{"contracts/P2PMarketManager.sol":{"EventPool":{"abi":[{"inputs":[{"internalType":"address","name":"initialOwner","type":"address"},{"internalType":"address payable","name":"_treasury","type":"address"},{"internalType":"address","name":"_adminManager","type":"address"}],"stateMutability":"nonpayable","type":"constructor"},{"inputs":[{"internalType":"address","name":"owner","type":"address"}],"name":"OwnableInvalidOwner","type":"error"},{"inputs":[{"internalType":"address","name":"account","type":"address"}],"name":"OwnableUnauthorizedAccount","type":"error"},{"inputs":[{"internalType":"address","name":"token","type":"address"}],"name":"SafeERC20FailedOperation","type":"error"},{"anonymous":false,"inputs":[{"indexed":true,"internalType":"uint256","name":"marketId","type":"uint256"},{"indexed":false,"internalType":"string","name":"reason","type":"string"}],"name":"MarketCancelled","type":"event"},{"anonymous":false,"inputs":[{"indexed":true,"internalType":"uint256","name":"marketId","type":"uint256"},{"indexed":true,"internalType":"address","name":"creator","type":"address"},{"indexed":false,"internalType":"string","name":"ipfsHash","type":"string"},{"indexed":false,"internalType":"bool","name":"isMultiOption","type":"bool"},{"indexed":false,"internalType":"uint256","name":"maxOptions","type":"uint256"},{"indexed":false,"internalType":"address","name":"paymentToken","type":"address"},{"indexed":false,"internalType":"uint256","name":"minStake","type":"uint256"},{"indexed":false,"internalType":"uint256","name":"startTime","type":"uint256"},{"indexed":false,"internalType":"uint256","name":"stakeEndTime","type":"uint256"},{"indexed":false,"internalType":"uint256","name":"endTime","type":"uint256"},{"indexed":false,"internalType":"uint256","name":"resolutionEndTime","type":"uint256"}],"name":"MarketCreated","type":"event"},{"anonymous":false,"inputs":[{"indexed":true,"internalType":"uint256","name":"marketId","type":"uint256"},{"indexed":false,"internalType":"uint256","name":"winningOption","type":"uint256"}],"name":"MarketResolved","type":"event"},{"anonymous":false,"inputs":[{"indexed":true,"internalType":"uint256","name":"marketId","type":"uint256"},{"indexed":true,"internalType":"bytes32","name":"assertionId","type":"bytes32"},{"indexed":true,"internalType":"address","name":"disputer","type":"address"}],"name":"OracleDisputed","type":"event"},{"anonymous":false,"inputs":[{"indexed":true,"internalType":"uint256","name":"marketId","type":"uint256"},{"indexed":true,"internalType":"bytes32","name":"assertionId","type":"bytes32"},{"indexed":false,"internalType":"bool","name":"accepted","type":"bool"}],"name":"OracleResultProcessed","type":"event"},{"anonymous":false,"inputs":[{"indexed":true,"internalType":"uint256","name":"marketId","type":"uint256"},{"indexed":true,"internalType":"bytes32","name":"assertionId","type":"bytes32"}],"name":"OracleSettled","type":"event"},{"anonymous":false,"inputs":[{"indexed":true,"internalType":"address","name":"previousOwner","type":"address"},{"indexed":true,"internalType":"address","name":"newOwner","type":"address"}],"name":"OwnershipTransferred","type":"event"},{"anonymous":false,"inputs":[{"indexed":true,"internalType":"uint256","name":"marketId","type":"uint256"},{"indexed":true,"internalType":"address","name":"user","type":"address"},{"indexed":false,"internalType":"uint256","name":"amount","type":"uint256"}],"name":"RefundClaimed","type":"event"},{"anonymous":false,"inputs":[{"indexed":true,"internalType":"uint256","name":"marketId","type":"uint256"},{"indexed":true,"internalType":"bytes32","name":"assertionId","type":"bytes32"}],"name":"ResolutionRequested","type":"event"},{"anonymous":false,"inputs":[{"indexed":true,"internalType":"uint256","name":"marketId","type":"uint256"},{"indexed":true,"internalType":"address","name":"user","type":"address"},{"indexed":false,"internalType":"uint256","name":"option","type":"uint256"},{"indexed":false,"internalType":"uint256","name":"amount","type":"uint256"}],"name":"StakePlaced","type":"event"},{"anonymous":false,"inputs":[{"indexed":true,"internalType":"uint256","name":"marketId","type":"uint256"},{"indexed":true,"internalType":"address","name":"user","type":"address"},{"indexed":false,"internalType":"uint256","name":"amount","type":"uint256"}],"name":"WinningsClaimed","type":"event"},{"inputs":[],"name":"CREATOR_FEE_BPS","outputs":[{"internalType":"uint256","name":"","type":"uint256"}],"stateMutability":"view","type":"function"},{"inputs":[],"name":"PLATFORM_FEE_BPS","outputs":[{"internalType":"uint256","name":"","type":"uint256"}],"stateMutability":"view","type":"function"},{"inputs":[{"internalType":"uint256","name":"","type":"uint256"}],"name":"activeMarkets","outputs":[{"internalType":"uint256","name":"","type":"uint256"}],"stateMutability":"view","type":"function"},{"inputs":[],"name":"adminManager","outputs":[{"internalType":"address","name":"","type":"address"}],"stateMutability":"view","type":"function"},{"inputs":[],"name":"assertionGracePeriod","outputs":[{"internalType":"uint256","name":"","type":"uint256"}],"stateMutability":"view","type":"function"},{"inputs":[{"internalType":"uint256","name":"marketId","type":"uint256"},{"internalType":"address","name":"user","type":"address"}],"name":"calculateWinnings","outputs":[{"internalType":"uint256","name":"","type":"uint256"}],"stateMutability":"view","type":"function"},{"inputs":[{"internalType":"uint256","name":"marketId","type":"uint256"}],"name":"cancelMarket","outputs":[],"stateMutability":"nonpayable","type":"function"},{"inputs":[{"internalType":"uint256","name":"marketId","type":"uint256"}],"name":"cancelMarketNoAssertion","outputs":[],"stateMutability":"nonpayable","type":"function"},{"inputs":[{"internalType":"uint256","name":"marketId","type":"uint256"}],"name":"claimRefund","outputs":[],"stateMutability":"nonpayable","type":"function"},{"inputs":[{"internalType":"uint256","name":"marketId","type":"uint256"}],"name":"claimWinnings","outputs":[],"stateMutability":"nonpayable","type":"function"},{"inputs":[{"internalType":"string","name":"ipfsHash","type":"string"},{"internalType":"bool","name":"isMultiOption","type":"bool"},{"internalType":"uint256","name":"maxOptions","type":"uint256"},{"internalType":"address","name":"paymentToken","type":"address"},{"internalType":"uint256","name":"minStake","type":"uint256"},{"internalType":"uint256","name":"creatorDeposit","type":"uint256"},{"internalType":"uint256","name":"creatorOutcome","type":"uint256"},{"internalType":"uint256","name":"stakeDurationMinutes","type":"uint256"},{"internalType":"uint256","name":"resolutionDurationMinutes","type":"uint256"},{"internalType":"enum EventPool.MarketType","name":"marketType","type":"uint8"},{"internalType":"address","name":"priceFeed","type":"address"},{"internalType":"uint256","name":"priceThreshold","type":"uint256"}],"name":"createMarket","outputs":[{"internalType":"uint256","name":"","type":"uint256"}],"stateMutability":"payable","type":"function"},{"inputs":[{"internalType":"uint256","name":"marketId","type":"uint256"}],"name":"creatorCancelMarket","outputs":[],"stateMutability":"nonpayable","type":"function"},{"inputs":[],"name":"defaultBondCurrency","outputs":[{"internalType":"address","name":"","type":"address"}],"stateMutability":"view","type":"function"},{"inputs":[{"internalType":"uint256","name":"marketId","type":"uint256"}],"name":"disputeOracle","outputs":[],"stateMutability":"nonpayable","type":"function"},{"inputs":[{"internalType":"uint256","name":"marketId","type":"uint256"}],"name":"endMarket","outputs":[],"stateMutability":"nonpayable","type":"function"},{"inputs":[{"internalType":"uint256","name":"marketId","type":"uint256"}],"name":"getMarket","outputs":[{"components":[{"internalType":"address","name":"creator","type":"address"},{"internalType":"string","name":"ipfsHash","type":"string"},{"internalType":"bool","name":"isMultiOption","type":"bool"},{"internalType":"uint256","name":"maxOptions","type":"uint256"},{"internalType":"address","name":"paymentToken","type":"address"},{"internalType":"uint256","name":"minStake","type":"uint256"},{"internalType":"uint256","name":"creatorDeposit","type":"uint256"},{"internalType":"uint256","name":"creatorOutcome","type":"uint256"},{"internalType":"uint256","name":"startTime","type":"uint256"},{"internalType":"uint256","name":"stakeEndTime","type":"uint256"},{"internalType":"uint256","name":"endTime","type":"uint256"},{"internalType":"uint256","name":"resolutionEndTime","type":"uint256"},{"internalType":"enum EventPool.MarketState","name":"state","type":"uint8"},{"internalType":"uint256","name":"winningOption","type":"uint256"},{"internalType":"bool","name":"isResolved","type":"bool"},{"internalType":"enum EventPool.MarketType","name":"marketType","type":"uint8"},{"internalType":"address","name":"priceFeed","type":"address"},{"internalType":"uint256","name":"priceThreshold","type":"uint256"},{"internalType":"bytes32","name":"p2pAssertionId","type":"bytes32"},{"internalType":"bool","name":"p2pAssertionMade","type":"bool"}],"internalType":"struct EventPool.Market","name":"","type":"tuple"}],"stateMutability":"view","type":"function"},{"inputs":[{"internalType":"uint256","name":"marketId","type":"uint256"}],"name":"getMarketStakers","outputs":[{"internalType":"address[]","name":"","type":"address[]"}],"stateMutability":"view","type":"function"},{"inputs":[],"name":"getNextMarketId","outputs":[{"internalType":"uint256","name":"","type":"uint256"}],"stateMutability":"view","type":"function"},{"inputs":[{"internalType":"uint256","name":"marketId","type":"uint256"},{"internalType":"uint256","name":"option","type":"uint256"},{"internalType":"address","name":"token","type":"address"}],"name":"getOptionPool","outputs":[{"internalType":"uint256","name":"","type":"uint256"}],"stateMutability":"view","type":"function"},{"inputs":[{"internalType":"uint256","name":"marketId","type":"uint256"}],"name":"getStakerCount","outputs":[{"internalType":"uint256","name":"","type":"uint256"}],"stateMutability":"view","type":"function"},{"inputs":[{"internalType":"uint256","name":"marketId","type":"uint256"},{"internalType":"address","name":"token","type":"address"}],"name":"getSupportPool","outputs":[{"internalType":"uint256","name":"","type":"uint256"}],"stateMutability":"view","type":"function"},{"inputs":[{"internalType":"uint256","name":"marketId","type":"uint256"}],"name":"getSupporterCount","outputs":[{"internalType":"uint256","name":"","type":"uint256"}],"stateMutability":"view","type":"function"},{"inputs":[{"internalType":"uint256","name":"marketId","type":"uint256"},{"internalType":"address","name":"token","type":"address"}],"name":"getTotalPool","outputs":[{"internalType":"uint256","name":"","type":"uint256"}],"stateMutability":"view","type":"function"},{"inputs":[{"internalType":"uint256","name":"marketId","type":"uint256"},{"internalType":"address","name":"user","type":"address"},{"internalType":"address","name":"token","type":"address"}],"name":"getUserStake","outputs":[{"internalType":"uint256","name":"","type":"uint256"}],"stateMutability":"view","type":"function"},{"inputs":[{"internalType":"uint256","name":"marketId","type":"uint256"},{"internalType":"address","name":"user","type":"address"},{"internalType":"address","name":"token","type":"address"}],"name":"getUserSupport","outputs":[{"internalType":"uint256","name":"","type":"uint256"}],"stateMutability":"view","type":"function"},{"inputs":[{"internalType":"uint256","name":"","type":"uint256"}],"name":"isActiveMarket","outputs":[{"internalType":"bool","name":"","type":"bool"}],"stateMutability":"view","type":"function"},{"inputs":[{"internalType":"uint256","name":"marketId","type":"uint256"}],"name":"markMarketDeleted","outputs":[],"stateMutability":"nonpayable","type":"function"},{"inputs":[{"internalType":"uint256","name":"marketId","type":"uint256"}],"name":"markMarketPermanentlyRemoved","outputs":[],"stateMutability":"nonpayable","type":"function"},{"inputs":[],"name":"marketCreationFee","outputs":[{"internalType":"uint256","name":"","type":"uint256"}],"stateMutability":"view","type":"function"},{"inputs":[{"internalType":"uint256","name":"","type":"uint256"},{"internalType":"uint256","name":"","type":"uint256"}],"name":"marketStakers","outputs":[{"internalType":"address","name":"","type":"address"}],"stateMutability":"view","type":"function"},{"inputs":[{"internalType":"uint256","name":"","type":"uint256"},{"internalType":"uint256","name":"","type":"uint256"}],"name":"marketSupporters","outputs":[{"internalType":"address","name":"","type":"address"}],"stateMutability":"view","type":"function"},{"inputs":[{"internalType":"uint256","name":"","type":"uint256"}],"name":"markets","outputs":[{"internalType":"address","name":"creator","type":"address"},{"internalType":"string","name":"ipfsHash","type":"string"},{"internalType":"bool","name":"isMultiOption","type":"bool"},{"internalType":"uint256","name":"maxOptions","type":"uint256"},{"internalType":"address","name":"paymentToken","type":"address"},{"internalType":"uint256","name":"minStake","type":"uint256"},{"internalType":"uint256","name":"creatorDeposit","type":"uint256"},{"internalType":"uint256","name":"creatorOutcome","type":"uint256"},{"internalType":"uint256","name":"startTime","type":"uint256"},{"internalType":"uint256","name":"stakeEndTime","type":"uint256"},{"internalType":"uint256","name":"endTime","type":"uint256"},{"internalType":"uint256","name":"resolutionEndTime","type":"uint256"},{"internalType":"enum EventPool.MarketState","name":"state","type":"uint8"},{"internalType":"uint256","name":"winningOption","type":"uint256"},{"internalType":"bool","name":"isResolved","type":"bool"},{"internalType":"enum EventPool.MarketType","name":"marketType","type":"uint8"},{"internalType":"address","name":"priceFeed","type":"address"},{"internalType":"uint256","name":"priceThreshold","type":"uint256"},{"internalType":"bytes32","name":"p2pAssertionId","type":"bytes32"},{"internalType":"bool","name":"p2pAssertionMade","type":"bool"}],"stateMutability":"view","type":"function"},{"inputs":[],"name":"nextMarketId","outputs":[{"internalType":"uint256","name":"","type":"uint256"}],"stateMutability":"view","type":"function"},{"inputs":[],"name":"optimisticOracle","outputs":[{"internalType":"contract IOptimisticOracle","name":"","type":"address"}],"stateMutability":"view","type":"function"},{"inputs":[],"name":"owner","outputs":[{"internalType":"address","name":"","type":"address"}],"stateMutability":"view","type":"function"},{"inputs":[{"internalType":"uint256","name":"marketId","type":"uint256"},{"internalType":"uint256","name":"option","type":"uint256"}],"name":"placeStake","outputs":[],"stateMutability":"payable","type":"function"},{"inputs":[{"internalType":"uint256","name":"marketId","type":"uint256"},{"internalType":"uint256","name":"option","type":"uint256"},{"internalType":"uint256","name":"amount","type":"uint256"}],"name":"placeStakeWithToken","outputs":[],"stateMutability":"nonpayable","type":"function"},{"inputs":[],"name":"renounceOwnership","outputs":[],"stateMutability":"nonpayable","type":"function"},{"inputs":[{"internalType":"uint256","name":"marketId","type":"uint256"},{"internalType":"uint256","name":"optionId","type":"uint256"},{"internalType":"bytes","name":"claim","type":"bytes"}],"name":"requestP2PResolution","outputs":[],"stateMutability":"nonpayable","type":"function"},{"inputs":[{"internalType":"uint256","name":"marketId","type":"uint256"}],"name":"resolveP2PMarket","outputs":[],"stateMutability":"nonpayable","type":"function"},{"inputs":[{"internalType":"uint256","name":"marketId","type":"uint256"}],"name":"resolvePriceFeedMarket","outputs":[],"stateMutability":"nonpayable","type":"function"},{"inputs":[{"internalType":"address","name":"_adminManager","type":"address"}],"name":"setAdminManager","outputs":[],"stateMutability":"nonpayable","type":"function"},{"inputs":[{"internalType":"uint256","name":"_seconds","type":"uint256"}],"name":"setAssertionGracePeriod","outputs":[],"stateMutability":"nonpayable","type":"function"},{"inputs":[{"internalType":"address","name":"_currency","type":"address"}],"name":"setDefaultBondCurrency","outputs":[],"stateMutability":"nonpayable","type":"function"},{"inputs":[{"internalType":"address","name":"_oo","type":"address"}],"name":"setOptimisticOracle","outputs":[],"stateMutability":"nonpayable","type":"function"},{"inputs":[{"internalType":"uint256","name":"marketId","type":"uint256"}],"name":"settleOracle","outputs":[],"stateMutability":"nonpayable","type":"function"},{"inputs":[{"internalType":"uint256","name":"marketId","type":"uint256"},{"internalType":"uint256","name":"amount","type":"uint256"}],"name":"supportMarket","outputs":[],"stateMutability":"payable","type":"function"},{"inputs":[{"internalType":"address","name":"newOwner","type":"address"}],"name":"transferOwnership","outputs":[],"stateMutability":"nonpayable","type":"function"},{"inputs":[],"name":"treasury","outputs":[{"internalType":"address payable","name":"","type":"address"}],"stateMutability":"view","type":"function"},{"inputs":[{"internalType":"uint256","name":"","type":"uint256"},{"internalType":"address","name":"","type":"address"}],"name":"userHasStaked","outputs":[{"internalType":"bool","name":"","type":"bool"}],"stateMutability":"view","type":"function"},{"inputs":[{"internalType":"uint256","name":"","type":"uint256"},{"internalType":"address","name":"","type":"address"}],"name":"userHasSupported","outputs":[{"internalType":"bool","name":"","type":"bool"}],"stateMutability":"view","type":"function"},{"inputs":[{"internalType":"address","name":"","type":"address"},{"internalType":"uint256","name":"","type":"uint256"}],"name":"userMarketHistory","outputs":[{"internalType":"uint256","name":"","type":"uint256"}],"stateMutability":"view","type":"function"},{"inputs":[{"internalType":"uint256","name":"","type":"uint256"},{"internalType":"address","name":"","type":"address"}],"name":"userStakeOptions","outputs":[{"internalType":"uint256","name":"","type":"uint256"}],"stateMutability":"view","type":"function"},{"inputs":[{"internalType":"uint256","name":"marketId","type":"uint256"}],"name":"withdrawSupport","outputs":[],"stateMutability":"nonpayable","type":"function"},{"stateMutability":"payable","type":"receive"}],"evm":{"bytecode":{"linkReferences":{},"object":"6080346200010657601f620057e938819003918201601f19168301916001600160401b038311848410176200010b5780849260609460405283398101031262000106576200004d8162000121565b60208201516001600160a01b03808216939091849003620001065762000077604083920162000121565b9216918215620000ed576000549360018060a01b03199380858716176000558360405196167f8be0079c531659141344cd1fd0a4f28419497f9722a3daafe3b4186f6b6457e0600080a36202a300600155600160095583600c541617600c551690600d541617600d556156b29081620001378239f35b604051631e4fbdf760e01b815260006004820152602490fd5b600080fd5b634e487b7160e01b600052604160045260246000fd5b51906001600160a01b0382168203620001065756fe61012080604052600436101561001e575b50361561001c57600080fd5b005b600090813560e01c9081630ccf446714613d8c575080630d64cdbd14613d5d578063157bdcce14613cf9578063209c1c9414613cd05780632230292214613ca7578063256ba74114613c12578063287f57b514613bca5780632ef1bdfa14613ba7578063304bf1f114613b5e5780633adfe6d014613b335780633e32a76c146138b7578063406ef2ef146138995780634f44289d14613850578063539aa77f14613833578063569946c51461375f5780635b7baf64146134085780635cb305a61461328c57806361d027b31461326357806366cf7ed41461249e578063677bd9ff146122f45780636d4476ec146120985780636f59359e14611fe6578063715018a614611f9e5780637c16cd9e14611ec4578063818ef5f614611e63578063847cf78214611e1f57806387a6b0ff14611d0b5780638d0d180e14611a1b5780638da5cb5b146119f457806393fcf24d146119d657806398a17671146119805780639a3a40d61461177b578063a210b6a414611752578063a30a091414611728578063a550725d146116db578063b1283e771461153a578063bc160758146114ed578063bf5c3252146114a0578063c22c62c31461146e578063c3436e0c14611353578063cc3cbd2a14611336578063d5f82707146112eb578063d8c5dd67146112a4578063dc4ce34914611251578063e0bd4acc146110d0578063eb44fdd314610dc9578063f00fe32114610d2d578063f15cc40614610bf8578063f1b7dde314610a63578063f204072f1461064f578063f2fde38b146105d9578063f486759114610432578063fb87f2c3146102995763fe53a6e80361001057346102965780600319360112610296576020600954604051908152f35b80fd5b50346102965760208060031936011261042e576004359060018060a01b036102c681600d541633146155e1565b6009548310156103fc5782845260028252604084205416156103c8578183526002815260ff600c6040852001541660058110156103b45760041461037a5760606000805160206156268339815191529183855260028152600c6040862001600460ff19825416179055838552600b815260ff60408620541661036c575b6010604051918083528201526f2232b632ba32b210313c9030b236b4b760811b6040820152a280f35b610375846154e7565b610343565b6064906040519062461bcd60e51b82526004820152601360248201527211540e88185b1c9958591e4819195b195d1959606a1b6044820152fd5b634e487b7160e01b84526021600452602484fd5b6064906040519062461bcd60e51b82526004820152600d60248201526c11540e881b9bc81b585c9ad95d609a1b6044820152fd5b60405162461bcd60e51b815260048101839052600a60248201526911540e8818985908125160b21b6044820152606490fd5b5080fd5b5061043c36614042565b9060018060a01b0380600d5416906040518092634d9b423560e11b825284600483015281602460209586935afa80156105ce578690610594575b610481915015614301565b828552600282526040852060ff600c820154166005811015610580576104a7901561433b565b60048101908282541661053d579185916104e5600561050d958515158061052f575b6104d290614378565b6104db81615340565b01543410156143b5565b610502888080803487600c54165af16104fc61419f565b506143f1565b54163490338661515b565b604051928352349083015260008051602061568683398151915260403393a380f35b5060038101548611156104c9565b60405162461bcd60e51b815260048101859052601b60248201527a22a81d103ab9b290383630b1b2a9ba30b5b2abb4ba342a37b5b2b760291b6044820152606490fd5b634e487b7160e01b87526021600452602487fd5b508281813d83116105c7575b6105aa8183613ec2565b810103126105c3576105be61048191614084565b610476565b8580fd5b503d6105a0565b6040513d88823e3d90fd5b5034610296576020366003190112610296576105f3613dc9565b6105fb614058565b6001600160a01b03908116908115610636576000548260018060a01b031982161760005516600080516020615646833981519152600080a380f35b604051631e4fbdf760e01b815260048101849052602490fd5b5061065936614042565b600d54604051632b5ba3b960e01b815233600482015260209493916024916001600160a01b039182169087818581855afa9081156108975791889185938991610a21575b506106a89015614091565b60405192838092634d9b423560e11b82528860048301525afa80156105ce5786906109eb575b6106d9915015614301565b828552600286526040852060ff600c8201541660058110156109d8576106ff901561433b565b600981015442101561099f578415610969576004019581875416801560001461090957508434036108d3578596610743878080808a88600c54165af16104fc61419f565b848752600482526040872033600052825260ff60406000205416156108ba575b84875260048252604087203360005282526040600020600160ff198254161790558280600c541691541690803b156108b6578688916107bc938360405180968195829463c15d980760e01b84528d339060048601614473565b03925af19081156108975787916108a2575b505060048183600d54166040519283809263406ad64560e11b82525afa91821561089757879261086a575b50501680610805578480f35b803b15610866578492836064926040519687958694638f46a5a160e01b86526004860152339085015260448401525af1801561085b57610847575b8080808480f35b61085090613e5d565b610296578038610840565b6040513d84823e3d90fd5b8480fd5b6108899250803d10610890575b6108818183613ec2565b81019061449b565b38806107f9565b503d610877565b6040513d89823e3d90fd5b6108ab90613e5d565b6105c35785386107ce565b8780fd5b848752600782526108ce3360408920614438565b610763565b6064906010846040519262461bcd60e51b845260048401528201526f08aa074408aa89040dad2e6dac2e8c6d60831b6044820152fd5b96346109275761092286889985600c5416903390614263565b610743565b60405162461bcd60e51b815260048101839052601b818601527a11540e881b9bc811551208199bdc881d1bdad95b881b585c9ad95d602a1b6044820152606490fd5b60405162461bcd60e51b815260048101889052600f818501526e11540e881e995c9bc8185b5bdd5b9d608a1b6044820152606490fd5b60405162461bcd60e51b8152600481018890526012818501527111540e881cdd5c1c1bdc9d0818db1bdcd95960721b6044820152606490fd5b634e487b7160e01b875260216004528387fd5b508681813d8311610a1a575b610a018183613ec2565b810103126105c357610a156106d991614084565b6106ce565b503d6109f7565b92809294508391503d8311610a5c575b610a3b8183613ec2565b81010312610a585783916106a8610a528a93614084565b9061069d565b8680fd5b503d610a31565b5034610296576060366003190112610296576004356024359060443560018060a01b0380600d5416906040518092634d9b423560e11b825285600483015281602460209586935afa8015610897578790610bc2575b610ac3915015614301565b838652600282526040862060ff600c820154166005811015610bae57610ae9901561433b565b600481019082825416908115610b7457928792610b3d878094610b30610b469888151580610b66575b610b1b90614378565b610b2b60058201548510156143b5565b615340565b84600c5416903390614263565b5416338761515b565b60405193845283015260008051602061568683398151915260403393a380f35b506003810154891115610b12565b60405162461bcd60e51b815260048101869052601260248201527145503a2075736520706c6163655374616b6560701b6044820152606490fd5b634e487b7160e01b88526021600452602488fd5b508281813d8311610bf1575b610bd88183613ec2565b81010312610a5857610bec610ac391614084565b610ab8565b503d610bce565b503461029657604036600319011261029657600435610c15613db3565b818352602091600283526040842060ff600c820154166005811015610d1957610c4f91610c466002600d931461480c565b0154151561484b565b808452600383526040842060018060a01b03908184166000528452610c7b60ff60406000205416614887565b600c54168360405180926307c7a72d60e01b82528180610c9f8888600484016148c2565b03915afa948515610d0d578095610cce575b5050610cc1610cc69394156148db565b614936565b604051908152f35b9094508385813d8311610d06575b610ce68183613ec2565b810103126102965750610cc1610cff610cc69495614084565b9493610cb1565b503d610cdc565b604051903d90823e3d90fd5b634e487b7160e01b86526021600452602486fd5b503461029657604036600319011261029657610d76906020610d4d613db3565b60018060a01b03600c54166040518080968194633d1e7ba160e11b8352600435600484016148c2565b03915afa908115610d0d5790610d92575b602090604051908152f35b506020813d8211610dc1575b81610dab60209383613ec2565b81010312610dbc5760209051610d87565b600080fd5b3d9150610d9e565b503461029657602036600319011261029657806040916102608351610ded81613e70565b8281526060602082015282858201528260608201528260808201528260a08201528260c08201528260e08201528261010082015282610120820152826101408201528261016082015282610180820152826101a0820152826101c0820152826101e08201528261020082015282610220820152826102408201520152600435815260026020522060405190610e8182613e70565b80546001600160a01b03168252610e9a60018201613f3a565b602083015260ff600282015416151560408301526003810154606083015260018060a01b036004820154166080830152600581015460a0830152600681015460c0830152600781015460e083015260088101546101008301526009810154610120830152600a810154610140830152600b81015461016083015260ff600c8201541660058110156110ba5760ff91601191610180850152600d8101546101a0850152600e81015483811615156101c0860152610f5f848260081c166101e08701614145565b60018060a01b039060101c16610200850152600f8101546102208501526010810154610240850152015416151561026082015260405180916020825260018060a01b038151166020830152610260610fc8602083015161028060408601526102a0850190614003565b916040810151151560608501526060810151608085015260018060a01b0360808201511660a085015260a081015160c085015260c081015160e085015260e08101516101008501526101008101516101208501526101208101516101408501526101408101516101608501526101608101516101808501526110546101808201516101a0860190614028565b6101a08101516101c08501526101c081015115156101e08501526110826101e0820151610200860190614035565b60018060a01b036102008201511661022085015261022081015161024085015261024081015182850152015115156102808301520390f35b634e487b7160e01b600052602160045260246000fd5b50346102965760208060031936011261042e57600435906110fc60018060a01b03600d541633146155e1565b8183526002815260ff600c6040852001541660058110156103b4576000805160206156268339815191529161113560026060931461480c565b838552600281528460116040822082815582600182016111558154613f00565b80611211575b505060028201556000600382015582600482015560006005820155600060068201556000600782015560006008820155600060098201556000600a8201556000600b82015582600c8201556000600d82015582600e8201556000600f820155600060108201550155838552600b815260ff604086205416611203575b6013604051918083528201527214195c9b585b995b9d1b1e481c995b5bdd9959606a1b6040820152a280f35b61120c846154e7565b6111d7565b601f811160011461122b575060009150555b82388061115b565b9080600091845261124a601f898620940160051c840160018501614151565b5555611223565b503461029657606036600319011261029657604435906001600160a01b038083168303610dbc57610d7692602091600c5416604051808096819463dc4ce34960e01b835260243560043560048501614915565b50346102965760403660031901126102965760406112c0613db3565b9160043581526005602052209060018060a01b03166000526020526020604060002054604051908152f35b5034610296576112fa36614042565b9190815260066020526040812090815483101561029657602061131d8484613e45565b905460405160039290921b1c6001600160a01b03168152f35b5034610296578060031936011261029657602060405161015e8152f35b50346102965760203660031901126102965760043580825260026020526040822080546001600160a01b031633036114375760ff600c8201541660058110156103b457906113a36009921561433b565b015461a8bf198101908111611423574210156113ef576040516113ec916113c982613ea7565b601182527010dc99585d1bdc8818d85b98d95b1b1959607a1b60208301526150cd565b80f35b60405162461bcd60e51b815260206004820152600c60248201526b45503a20746f6f206c61746560a01b6044820152606490fd5b634e487b7160e01b83526011600452602483fd5b60405162461bcd60e51b815260206004820152600f60248201526e22a81d103737ba1031b932b0ba37b960891b6044820152606490fd5b50346102965761147d36614042565b9190815260076020526040812090815483101561029657602061131d8484613e45565b5034610296576020366003190112610296576114ba613dc9565b6114c2614058565b6001600160a01b03166114d68115156155a2565b600e80546001600160a01b03191691909117905580f35b503461029657602036600319011261029657611507613dc9565b61150f614058565b6001600160a01b03166115238115156155a2565b600d80546001600160a01b03191691909117905580f35b503461029657602036600319011261029657600435815260026020526040902080546001600160a01b03169061157260018201613f3a565b60c052600281015460ff16608052600381015460e052600160a01b600190036004820154169160058201546006830154600784015460088501546009860154600a87015490600b88015492600c89015460ff1694600d8a015496600e8b015498600f8c01549a60108d01549c6011015460ff16610100526040518060a052526102808060a0516020015260a0510160c0519061160d91614003565b9c608051151560a0516040015260e05160a0516060015260a0516080015260a05160a0015260a05160c0015260a05160e0015260a051610100015260a051610120015260a051610140015260a051610160015260a0516101800161167091614028565b60a0516101a0015260ff8116151560a0516101c0015260a0516101e0018160081c60ff169061169e91614035565b600160a01b600190039060101c1660a051610200015260a051610220015260a051610240015261010051151560a051610260015260a05180910390f35b5034610296576020366003190112610296576116f5613dc9565b6116fd614058565b6001600160a01b03166117118115156155a2565b600f80546001600160a01b03191691909117905580f35b50346102965760203660031901126102965760406020916004358152600783522054604051908152f35b5034610296578060031936011261029657600d546040516001600160a01b039091168152602090f35b50346102965760208060031936011261042e5760043590818352600281526040832090600e820191825460ff8160081c1660028110156105805761194657600c820190815460ff811660058110156119325760016117d991146144e7565b6117e660ff831615614523565b600b84015442106118fd57604051633fabe5a360e21b815260a081600481601087901c6001600160a01b03165afa9081156118f257899161188a575b50600f85015460008051602061566683398151915297600294939290911161187f5760ff600d6001975b0196168655600160ff198094161790551617905561186984614c05565b611874815485615446565b54604051908152a280f35b60ff600d859761184c565b9291905060a0833d82116118ea575b816118a660a09383613ec2565b810103126118e65760008051602061566683398151915296836118ca600295614566565b506118db6080898301519201614566565b509192935096611822565b8880fd5b3d9150611899565b6040513d8b823e3d90fd5b60405162461bcd60e51b815260048101869052600d60248201526c45503a20746f6f206561726c7960981b6044820152606490fd5b634e487b7160e01b89526021600452602489fd5b60405162461bcd60e51b815260048101849052601260248201527111540e881b9bdd0814149250d157d191515160721b6044820152606490fd5b50346102965760403660031901126102965761199a613dc9565b6001600160a01b03168152600860205260408120805460243592908310156102965760206119c88484613e45565b90546040519160031b1c8152f35b50346102965780600319360112610296576020600154604051908152f35b5034610296578060031936011261029657546040516001600160a01b039091168152602090f35b50346102965760603660031901126102965760443560043560248035906001600160401b038085116105c357366023860112156105c35784600401359081116105c357368282870101116105c357838652602094600286526040872092600e84015460ff8160081c166002811015611cf8576001611a99911461457a565b60ff600c860154166005811015611cf857611ac391611abc600160ff93146144e7565b16156145be565b6011840194611ad660ff875416156145f9565b84546001600160a01b03939084163314611cb85789839183151580611caa575b611aff90614378565b85600e541695611b1087151561463c565b8b81600f541697611b2289151561467d565b60405197888092634360af3d60e01b82528b60048301525afa8015611c9f578c9789978592611c61575b5081611b63611be49493611b739330903390614263565b82600f541683600e5416906146e0565b604051958c89880152604087015260408652611b8e86613e8c565b600e5416946084856040519a8b998a98899763abdc5dcd60e01b8952606060048a01528260648a0152018488013786838288010152601f8019910116850190339086015260808582030160448601520190614003565b03925af19485156105ce578695611c30575b5050601001839055805460ff191660011790557fc92f993487c6d961b60ff2a81386dff5cc620cd4aed9cddabe26500391655e828380a380f35b90809550813d8311611c5a575b611c478183613ec2565b8101031261086657601093519338611bf6565b503d611c3d565b945097809297508491503d8311611c98575b611c7d8183613ec2565b81010312610dbc5790518a9587958d93929091611b73611b4c565b503d611c73565b6040513d85823e3d90fd5b506003880154841115611af6565b60405162461bcd60e51b8152600481018a90526019818501527811540e8818dc99585d1bdc8818d85b9b9bdd08185cdcd95c9d603a1b6044820152606490fd5b634e487b7160e01b8a526021600452828afd5b50346102965760203660031901126102965760043580825260026020526040822060ff600e82015460081c1660028110156103b4576001611d4c911461457a565b60ff600c8201541660058110156103b457611d8b91611d6f6001600a93146144e7565b611d8060ff601183015416156145f9565b015460015490614113565b4210611de0576040516113ec91611da182613e8c565b602782527f4e6f20617373657274696f6e206d61646520e2809420726566756e647320617660208301526661696c61626c6560c81b60408301526150cd565b60405162461bcd60e51b815260206004820152601760248201527645503a20677261636520706572696f642061637469766560481b6044820152606490fd5b503461029657610d76906020611e3436613ddf565b600c5460405163423e7bc160e11b81529687946001600160a01b039092169385938493909190600485016144c7565b503461029657602036600319011261029657600435611e80614058565b610e108110611e8f5760015580f35b60405162461bcd60e51b815260206004820152600d60248201526c11540e881d1bdbc81cda1bdc9d609a1b6044820152606490fd5b5034610296576020366003190112610296576004358082526002602052604082209060ff600c8301541660058110156103b4576001611f0391146144e7565b600b8201544210611f5a57611f2260ff600e6113ec9401541615614523565b60405190611f2f82613ea7565b601982527814995cdbdb1d5d1a5bdb881c195c9a5bd908195e1c1a5c9959603a1b60208301526150cd565b60405162461bcd60e51b815260206004820152601c60248201527b45503a207265736f6c7574696f6e20706572696f642061637469766560201b6044820152606490fd5b5034610296578060031936011261029657611fb7614058565b600080546001600160a01b0319811682556001600160a01b03166000805160206156468339815191528280a380f35b50346102965760208060031936011261042e576004358252600681526040822060405192838383549182815201908193835284832090835b81811061207b5750505084612034910385613ec2565b60405193838594850191818652518092526040850193925b82811061205b57505050500390f35b83516001600160a01b03168552869550938101939281019260010161204c565b82546001600160a01b03168452928601926001928301920161201e565b5034610296576020908160031936011261029657600435808252600283526040822092600e8401805460ff8160081c166002811015610d19576120f2916120e3600160ff931461457a565b611abc8260118a0154166147cd565b600e54601086015460405163e39dfd7f60e01b81526004810182905290918690829060249082906001600160a01b03165afa9182156105ce578691879361226c575b50857f01bcfc076833db7a342b2b4213f01d2341de157027e6a14cb082cc770513937c866040518515158152a3156122115760408180518101031261086657604001519081151580612203575b156121c1576002600c87600d6000805160206156668339815191529798990194855560ff1993600185825416179055019182541617905561186984614c05565b60405162461bcd60e51b815260048101849052601a60248201527945503a20626164206f7074696f6e2066726f6d206f7261636c6560301b6044820152606490fd5b506003860154821115612181565b5050906113ec9293507f4f7261636c6520617373657274696f6e2072656a656374656420e280942072656040519261224884613e8c565b602f84528301526e66756e647320617661696c61626c6560881b60408301526150cd565b915091503d8087833e61227f8183613ec2565b810190604081830312610a585761229581614084565b8582015190916001600160401b0382116118e6570182601f820112156108b6578051906122c182613ee5565b936122cf6040519586613ec2565b8285528783830101116118e657906122ec91878086019101613fe0565b909138612134565b50346102965760208060031936011261042e5760043580835260028252604083209160ff600c84015416600581101561248a576002612333911461480c565b612342600d840154151561484b565b818452600381526040842033600052815261236460ff60406000205416614887565b600c546040516307c7a72d60e01b815285916001600160a01b0390811691848180612393338a600484016148c2565b0381865afa801561247f578490612449575b6123b09150156148db565b60046123bc3387614936565b9601541690803b15612445578583916123ee9383604051809681958294632f0041ed60e11b8452338d60048601614473565b03925af1801561085b5761242d575b50507f5380cf6fe903b40c6d5a9e0dfbca2f3a423f0a21520b4d5947ed5169bdba946d906040519384523393a380f35b61243690613e5d565b6124415783386123fd565b8380fd5b8280fd5b508481813d8311612478575b61245f8183613ec2565b81010312612441576124736123b091614084565b6123a5565b503d612455565b6040513d86823e3d90fd5b634e487b7160e01b85526021600452602485fd5b5061018036600319011261029657600435906001600160401b03821161029657366023830112156102965781600401356124d781613ee5565b926124e56040519485613ec2565b8184523660248383010111612445578183926024602093018387013784010152602435151560243503610296576064356001600160a01b0381169003610dbc5760026101243510156102965761014435906001600160a01b0382168203610dbc57600d54604051632b5ba3b960e01b81523360048201526001600160a01b0390911690602081602481855afa8015611c9f578390613228575b612589915015614091565b8351156131f25760026044351015806131e5575b156131ae57608435156131795760a435156131425760c435151580613134575b156130fd57610124351561306f575b6040516317916e0160e01b8152602081600481855afa908115611c9f57839161303d575b5060e435106130055760e4356101043510612fc35760243515612f29576064356001600160a01b031615612eec57604051633462561360e11b81526064356001600160a01b0316600482015290602090829060249082905afa801561085b578290612eb1575b61266091506140cf565b670de0b6b3a76400003410612e7a57603c60e4350260e4358104603c1460e435151715612d0f576126919042614113565b9061010435603c610104350204603c1461010435151715612e66576126bc603c610104350242614113565b61012435612e505780915b600954946126d486614136565b600955604051906126e482613e70565b33825287602083015260243515156040830152604435606083015260018060a01b0360643516608083015260843560a083015260a43560c083015260c43560e08301524261010083015285610120830152836101408301528461016083015282610180830152826101a0830152826101c0830152612769610124356101e08401614145565b6001600160a01b0390811661020083015261016435610220830152610240820183905261026082018390528683526002602090815260408420835181546001600160a01b03191693169290921782558201518051919291906001600160401b038211612e3c5781906127de6001860154613f00565b601f8111612dfe575b50602090601f8311600114612d8f578692612d84575b50508160011b916000199060031b1c19161760018301555b6128286040820151151560028401614168565b606081015160038301556004820160018060a01b0360808301511660018060a01b031982541617905560a0810151600583015560c0810151600683015560e0810151600783015561010081015160088301556101208101516009830155610140810151600a830155610160810151600b830155600c8201610180820151600581101561248a5760ff801983541691161790556101a0810151600d830155600e82016128da6101c0830151151582614168565b6101e0820151600281101561248a578154610200840151610100600160b01b031990911660089290921b61ff001691909117601091821b62010000600160b01b031617909155610220820151600f84015561024082015190830155610260015161294a9190151590601101614168565b600a54600160401b811015612d6e5761298461296d826001899401600a55613e14565b819391549060031b91821b91600019901b19161790565b9055848152600b60205260408120805460ff191660011790556064356001600160a01b0316612d235760a435670de0b6b3a76400000180670de0b6b3a764000011612d0f573410612cd2576129f981808080670de0b6b3a764000060018060a01b038254165af16129f361419f565b506141cf565b8080808060a43560018060a01b03600c54165af1612a1561419f565b5015612c93575b848152600360205260408120336000526020526040600020600160ff198254161790558481526005602052604081203360005260205260c4356040600020553381526008602052612a708560408320614179565b600c546001600160a01b0316803b1561042e578160405180926395f4109560e01b8252818381612ab060c4358d60a4359060643590339060048701614211565b03925af1801561085b57908291612c7f575b5050600d5460405163406ad64560e11b815290602090829060049082906001600160a01b03165afa90811561085b578291612c60575b506001600160a01b038116612b9a575b505060209484927f5d0726a1bb5ec8c87527e69ba86d988202e885fad8f2b4aacd618793d6f297b292612b48604051936101208552610120850190614003565b6024351515848a015260443560408501526064356001600160a01b0316606085015260843560808501524260a085015260c084019690965260e0830152610100820152339381900390a3604051908152f35b6001600160a01b0381163b1561042e5760405163782a780560e11b8152828180612bc8338b600484016148c2565b0381836001600160a01b0387165af18015611c9f57908391612c4c575b50506001600160a01b0381163b1561042e5760405163c228038d60e01b81529082908290818381612c2060a43560c435338f60048601615137565b03926001600160a01b03165af1801561085b5715612b0857612c428291613e5d565b6102965780612b08565b612c5590613e5d565b61042e578138612be5565b612c79915060203d602011610890576108818183613ec2565b38612af8565b612c8890613e5d565b610296578038612ac2565b60405162461bcd60e51b815260206004820152601760248201527611540e8819195c1bdcda5d081cd95b990819985a5b1959604a1b6044820152606490fd5b60405162461bcd60e51b815260206004820152601560248201527445503a20696e73756666696369656e74205045505560581b6044820152606490fd5b634e487b7160e01b82526011600452602482fd5b612d4781808080670de0b6b3a764000060018060a01b038254165af16129f361419f565b600c54612d699060a435906001600160a01b0390811690339060643516614263565b612a1c565b634e487b7160e01b600052604160045260246000fd5b0151905038806127fd565b9250600185018652602086209086935b601f1984168510612de3576001945083601f19811610612dca575b505050811b016001830155612815565b015160001960f88460031b161c19169055388080612dba565b81810151835560209485019460019093019290910190612d9f565b612e2c9060018701885260208820601f850160051c81019160208610612e32575b601f0160051c0190614151565b386127e7565b9091508190612e1f565b634e487b7160e01b85526041600452602485fd5b61e10081018111612d0f5761e1008101916126c7565b634e487b7160e01b81526011600452602490fd5b60405162461bcd60e51b815260206004820152600f60248201526e45503a2066656520746f6f206c6f7760881b6044820152606490fd5b506020813d602011612ee4575b81612ecb60209383613ec2565b8101031261042e57612edf61266091614084565b612656565b3d9150612ebe565b60405162461bcd60e51b815260206004820152601560248201527422a81d1036bab63a34903732b2b239903a37b5b2b760591b6044820152606490fd5b6064356001600160a01b0316612f40575b50612660565b604051633462561360e11b81526064356001600160a01b0316600482015290602090829060249082905afa801561085b578290612f88575b612f8291506140cf565b38612f3a565b506020813d602011612fbb575b81612fa260209383613ec2565b8101031261042e57612fb6612f8291614084565b612f78565b3d9150612f95565b60405162461bcd60e51b815260206004820152601a60248201527945503a207265736f6c7574696f6e206166746572207374616b6560301b6044820152606490fd5b60405162461bcd60e51b815260206004820152601060248201526f22a81d1036b4b710323ab930ba34b7b760811b6044820152606490fd5b90506020813d602011613067575b8161305860209383613ec2565b81010312610dbc5751386125f0565b3d915061304b565b6001600160a01b038316156130c457610164356125cc5760405162461bcd60e51b815260206004820152601660248201527511540e881d1a1c995cda1bdb19081c995c5d5a5c995960521b6044820152606490fd5b60405162461bcd60e51b815260206004820152601160248201527011540e8819995959081c995c5d5a5c9959607a1b6044820152606490fd5b60405162461bcd60e51b815260206004820152600f60248201526e45503a20626164206f7574636f6d6560881b6044820152606490fd5b5060443560c43511156125bd565b60405162461bcd60e51b815260206004820152600f60248201526e11540e881898590819195c1bdcda5d608a1b6044820152606490fd5b60405162461bcd60e51b815260206004820152600d60248201526c45503a20626164207374616b6560981b6044820152606490fd5b60405162461bcd60e51b815260206004820152600f60248201526e45503a20626164206f7074696f6e7360881b6044820152606490fd5b50600a604435111561259d565b60405162461bcd60e51b815260206004820152600e60248201526d08aa07440cadae0e8f240d0c2e6d60931b6044820152606490fd5b506020813d60201161325b575b8161324260209383613ec2565b810103126124455761325661258991614084565b61257e565b3d9150613235565b5034610296578060031936011261029657600c546040516001600160a01b039091168152602090f35b50346102965760208060031936011261042e57600435808352600282526040832091600e83015460ff8160081c166002811015610d19576132e4916132d5600160ff931461457a565b611abc826011880154166147cd565b600e5484906001600160a01b039081166132ff81151561463c565b60248483600f54169261331384151561467d565b60405192838092634360af3d60e01b82528660048301525afa94851561247f5784956133d2575b505083611b63601094956133519330903390614263565b600e54169301928354813b1561244557829160448392604051948593849263a6a22b4360e01b845260048401523360248401525af1801561085b576133be575b5050339154907f8764c70ba5e4ae969c50093a5cb46e29238fb82e4b7eb17d22a8102996b01c8a8480a480f35b6133c790613e5d565b612445578238613391565b819550809294503d8311613401575b6133eb8183613ec2565b81010312610dbc57915191859180611b6361333a565b503d6133e1565b50346102965760208060031936011261042e5760043580835260028252604083209160ff600c84015416600581101561248a5760030361372757818452600381526040842033600052815260ff604060002054168015613707575b156136cb578392828552600382526040852033600052825260ff60406000205416613625575b828552600482526040852033600052825260ff6040600020541661357d575b831561354657600c5460049091015485916001600160a01b039182169116803b15612445578583916134f3938360405180968195829463164fcd7d60e21b8452338d60048601614473565b03925af1801561085b57613532575b50507ff3f402280ef0a7905e124aa621b65eaeb2725c343e8b36d398ed78c29daf285c906040519384523393a380f35b61353b90613e5d565b612441578338613502565b60405162461bcd60e51b815260048101839052600f60248201526e11540e881e995c9bc81c99599d5b99608a1b6044820152606490fd5b926135b4908260018060a01b0380600c54169060048801541690604051808096819463256ba74160e01b8352338b600485016144c7565b03915afa9081156105ce5786916135f4575b6135d09250614113565b928285526004825260408520336000528252604060002060ff1981541690556134a8565b90508282813d831161361e575b61360b8183613ec2565b81010312610dbc576135d09151906135c6565b503d613601565b925061365c8160018060a01b0380600c54169060048701541690604051808095819463423e7bc160e11b8352338a600485016144c7565b03915afa9081156136c0578591613693575b50928285526003825260408520336000528252604060002060ff198154169055613489565b90508181813d83116136b9575b6136aa8183613ec2565b81010312610dbc57513861366e565b503d6136a0565b6040513d87823e3d90fd5b6064906040519062461bcd60e51b82526004820152601560248201527411540e881b9bdd1a1a5b99c81d1bc81c99599d5b99605a1b6044820152fd5b50818452600481526040842033600052815260ff60406000205416613463565b6064906040519062461bcd60e51b82526004820152601160248201527011540e881b9bdd0818d85b98d95b1b1959607a1b6044820152fd5b50346102965760203660031901126102965760043580825260026020526040822060ff600e82015460081c1660028110156103b45760016137a0911461457a565b6137b060ff6011830154166147cd565b82601060018060a01b03600e54169201918254813b15612445578291602483926040519485938492634124beef60e01b845260048401525af1801561085b5761381f575b505054907f049c1c3eca1ffdb1b59f7205ce06f2461ace420050f9ad1b4b6b55f4a0f2e5268380a380f35b61382890613e5d565b6124455782386137f4565b503461029657806003193601126102965760206040516101f48152f35b503461029657604036600319011261029657610d76906020613870613db3565b60018060a01b03600c54166040518080968194634f44289d60e01b8352600435600484016148c2565b50346102965780600319360112610296576020600954604051908152f35b50346102965760208060031936011261042e5760043580835260028252604083206004835260408420338552835260ff60408520541615613afd5760ff600c82015416600581101561248a5780613aa25750600981015461a8bf198101908111613a8e57421015613a4e575b60018060a01b03600481600c541692015416906040519063256ba74160e01b8252848280613956863389600485016144c7565b0381845afa9182156105ce578692613a1f575b5081156139e057908186923b156124455761399d93836040518096819582946317be0b2f60e11b8452338b60048601614473565b03925af1801561247f576139cd575b5082526004815260408220903360005252604060002060ff19815416905580f35b6139d990939193613e5d565b91386139ac565b60405162461bcd60e51b815260048101869052601760248201527645503a206e6f7468696e6720746f20776974686472617760481b6044820152606490fd5b9091508481813d8311613a47575b613a378183613ec2565b810103126105c357519038613969565b503d613a2d565b60405162461bcd60e51b815260048101849052601860248201527745503a20746f6f206c61746520746f20776974686472617760401b6044820152606490fd5b634e487b7160e01b85526011600452602485fd5b60048114908115613af2575b506139235760405162461bcd60e51b815260048101849052601760248201527645503a2063616e6e6f74207769746864726177206e6f7760481b6044820152606490fd5b600391501438613aae565b60405162461bcd60e51b815260048101849052600e60248201526d11540e881b9bc81cdd5c1c1bdc9d60921b6044820152606490fd5b50346102965760203660031901126102965760043590600a548210156102965760206119c883613e14565b50346102965760403660031901126102965760ff6040602092613b7f613db3565b6004358252600385528282206001600160a01b03909116825284522054604051911615158152f35b50346102965780600319360112610296576020604051670de0b6b3a76400008152f35b50346102965760403660031901126102965760ff6040602092613beb613db3565b60048035835285528282206001600160a01b03909116825284522054604051911615158152f35b503461029657613c556020613c2636613ddf565b600c5460405163256ba74160e01b81529586946001600160a01b039092169385938493909190600485016144c7565b03915afa90811561085b578291613c72575b602082604051908152f35b90506020813d8211613c9f575b81613c8c60209383613ec2565b8101031261042e57602091505138613c67565b3d9150613c7f565b5034610296578060031936011261029657600e546040516001600160a01b039091168152602090f35b5034610296578060031936011261029657600f546040516001600160a01b039091168152602090f35b5034610296576020366003190112610296576004359081815260026020526040812091600c830180549360ff8516600581101561248a5794613d51600a600193613d476113ec98991561433b565b01544210156144e7565b60ff19161790556154e7565b50346102965760203660031901126102965760ff60406020926004358152600b84522054166040519015158152f35b90503461042e57602036600319011261042e57604060209260043581526006845220548152f35b602435906001600160a01b0382168203610dbc57565b600435906001600160a01b0382168203610dbc57565b6060906003190112610dbc57600435906001600160a01b03906024358281168103610dbc57916044359081168103610dbc5790565b600a54811015613e2f57600a60005260206000200190600090565b634e487b7160e01b600052603260045260246000fd5b8054821015613e2f5760005260206000200190600090565b6001600160401b038111612d6e57604052565b61028081019081106001600160401b03821117612d6e57604052565b606081019081106001600160401b03821117612d6e57604052565b604081019081106001600160401b03821117612d6e57604052565b601f909101601f19168101906001600160401b03821190821017612d6e57604052565b6001600160401b038111612d6e57601f01601f191660200190565b90600182811c92168015613f30575b6020831014613f1a57565b634e487b7160e01b600052602260045260246000fd5b91607f1691613f0f565b9060405191826000825492613f4e84613f00565b908184526001948581169081600014613fbd5750600114613f7a575b5050613f7892500383613ec2565b565b9093915060005260209081600020936000915b818310613fa5575050613f7893508201013880613f6a565b85548884018501529485019487945091830191613f8d565b915050613f7894506020925060ff191682840152151560051b8201013880613f6a565b60005b838110613ff35750506000910152565b8181015183820152602001613fe3565b9060209161401c81518092818552858086019101613fe0565b601f01601f1916010190565b9060058210156110ba5752565b9060028210156110ba5752565b6040906003190112610dbc576004359060243590565b6000546001600160a01b0316330361406c57565b60405163118cdaa760e01b8152336004820152602490fd5b51908115158203610dbc57565b1561409857565b60405162461bcd60e51b815260206004820152600f60248201526e11540e88189b1858dadb1a5cdd1959608a1b6044820152606490fd5b156140d657565b60405162461bcd60e51b815260206004820152601560248201527422a81d103ab739bab83837b93a32b2103a37b5b2b760591b6044820152606490fd5b9190820180921161412057565b634e487b7160e01b600052601160045260246000fd5b60001981146141205760010190565b60028210156110ba5752565b81811061415c575050565b60008155600101614151565b9060ff801983541691151516179055565b805490600160401b821015612d6e578161296d91600161419b94018155613e45565b9055565b3d156141ca573d906141b082613ee5565b916141be6040519384613ec2565b82523d6000602084013e565b606090565b156141d657565b60405162461bcd60e51b815260206004820152601360248201527211540e88199959481cd95b990819985a5b1959606a1b6044820152606490fd5b9081526001600160a01b039182166020820152911660408201526060810191909152608081019190915260a00190565b6001600160a01b03918216815291166020820152604081019190915260600190565b906142999061428b613f78956040519586936323b872dd60e01b602086015260248501614241565b03601f198101845283613ec2565b906000602091828151910182855af1156142f5576000513d6142ec57506001600160a01b0381163b155b6142ca5750565b604051635274afe760e01b81526001600160a01b039091166004820152602490fd5b600114156142c3565b6040513d6000823e3d90fd5b1561430857565b60405162461bcd60e51b815260206004820152600b60248201526a11540e8819195b195d195960aa1b6044820152606490fd5b1561434257565b60405162461bcd60e51b815260206004820152600e60248201526d45503a206e6f742061637469766560901b6044820152606490fd5b1561437f57565b60405162461bcd60e51b815260206004820152600e60248201526d22a81d103130b21037b83a34b7b760911b6044820152606490fd5b156143bc57565b60405162461bcd60e51b815260206004820152600d60248201526c22a81d103132b637bb9036b4b760991b6044820152606490fd5b156143f857565b60405162461bcd60e51b815260206004820152601860248201527711540e881d1c99585cdd5c9e481cd95b990819985a5b195960421b6044820152606490fd5b8054600160401b811015612d6e5761445591600182018155613e45565b819291549060031b9160018060a01b03809116831b921b1916179055565b9081526001600160a01b03918216602082015291166040820152606081019190915260800190565b90816020910312610dbc57516001600160a01b0381168103610dbc5790565b9190820391821161412057565b9081526001600160a01b0391821660208201529116604082015260600190565b156144ee57565b60405162461bcd60e51b815260206004820152600d60248201526c11540e881b9bdd08195b991959609a1b6044820152606490fd5b1561452a57565b60405162461bcd60e51b815260206004820152601460248201527311540e88185b1c9958591e481c995cdbdb1d995960621b6044820152606490fd5b51906001600160501b0382168203610dbc57565b1561458157565b60405162461bcd60e51b815260206004820152601560248201527445503a206e6f74205032504f5054494d495354494360581b6044820152606490fd5b156145c557565b60405162461bcd60e51b815260206004820152600c60248201526b11540e881c995cdbdb1d995960a21b6044820152606490fd5b1561460057565b60405162461bcd60e51b815260206004820152601460248201527345503a20617373657274696f6e2065786973747360601b6044820152606490fd5b1561464357565b60405162461bcd60e51b815260206004820152601260248201527111540e881bdc9858db19481b9bdd081cd95d60721b6044820152606490fd5b1561468457565b60405162461bcd60e51b815260206004820152601960248201527811540e88189bdb990818dd5c9c995b98de481b9bdd081cd95d603a1b6044820152606490fd5b6001600160a01b039091168152602081019190915260400190565b9291926040519160208301906147178461470963095ea7b360e01b9889865284602484016146c5565b03601f198101865285613ec2565b60206000809386519082875af182513d826147a8575b50501561473d575b505050509050565b60405160208101969096526001600160a01b031660248601526044808601829052855260808501906001600160401b03821186831017614794575061478a93946142999160405282614299565b8038808080614735565b634e487b7160e01b81526041600452602490fd5b9091506147c557506001600160a01b0383163b15155b388061472d565b6001146147be565b156147d457565b60405162461bcd60e51b815260206004820152601060248201526f22a81d1037379030b9b9b2b93a34b7b760811b6044820152606490fd5b1561481357565b60405162461bcd60e51b815260206004820152601060248201526f11540e881b9bdd081c995cdbdb1d995960821b6044820152606490fd5b1561485257565b60405162461bcd60e51b815260206004820152600d60248201526c22a81d103737903bb4b73732b960991b6044820152606490fd5b1561488e57565b60405162461bcd60e51b815260206004820152600c60248201526b45503a206e6f207374616b6560a01b6044820152606490fd5b9081526001600160a01b03909116602082015260400190565b156148e257565b60405162461bcd60e51b815260206004820152600b60248201526a11540e8818db185a5b595960aa1b6044820152606490fd5b90815260208101919091526001600160a01b03909116604082015260600190565b90816000526002602052604091826000209160018060a01b03600c54169360018060a01b036004850154169181519463423e7bc160e11b86526020868061498287868a600485016144c7565b03818a5afa958615614bfa57600096614bc6575b50600d8101549383519763dc4ce34960e01b8952602089806149bd858a8c60048501614915565b0381845afa988915614bbb57600099614b87575b5060009260036001910154905b81811115614ae6575050614a0b929160209186518080968194634f44289d60e01b83528c600484016148c2565b03915afa908115614adb57600091614aa5575b614a289250614113565b938615614a99576000526005602052816000209060018060a01b03166000526020526000205403614a91578015614a8b57612328808202918204036141205761271090049182820292828404148215171561412057614a88920490614113565b90565b50905090565b505050600090565b50505050505050600090565b90506020823d602011614ad3575b81614ac060209383613ec2565b81010312610dbc57614a28915190614a1e565b3d9150614ab3565b84513d6000823e3d90fd5b878103614afc575b614af790614136565b6149de565b865163dc4ce34960e01b815290949060208180614b1e888a8f60048501614915565b0381875afa908115614b7c57600091614b48575b50614b4090614af792614113565b949050614aee565b90506020813d602011614b74575b81614b6360209383613ec2565b81010312610dbc5751614af7614b32565b3d9150614b56565b88513d6000823e3d90fd5b9098506020813d602011614bb3575b81614ba360209383613ec2565b81010312610dbc575197386149d1565b3d9150614b96565b85513d6000823e3d90fd5b9095506020813d602011614bf2575b81614be260209383613ec2565b81010312610dbc57519438614996565b3d9150614bd5565b83513d6000823e3d90fd5b600090808252602090600282526040918284209184916001936003810154600d820154955b8181111561501f575050600c54600482810180548951634f44289d60e01b81526001600160a01b03999298939792948a1693918a169291878280614c718787838f016148c2565b0381885afa918215615015579189918d999897969594938f92614fce575b5091614cb985614ca186948c96614113565b9b5163dc4ce34960e01b815298899485948501614915565b0381865afa938415614f8f579086918d95614f99575b508b51633d1e7ba160e11b8152919082908190614cf09086908d84016148c2565b0381865afa958615614f8f578c96614f5b575b505061015e9586860286159787820414881715614f4857612710809104976101f49081890291898304141715614f35570493614e3b575050505082614dc8575b5090614d4e916144ba565b9283614d5d575b505050505050565b80600c541692541690823b156105c35791849391868094614d9197519788958694859363f0824f3360e01b855284016146c5565b03925af1908115614dbf5750614dab575b80808080614d55565b614db58291613e5d565b6102965780614da2565b513d84823e3d90fd5b8580600c54169154168686541690823b15614e3757614e01928a928387938c519687958694859363112cd22360e01b85528d8501614241565b03925af18015614e2d57908891614e19575b50614d43565b614e2290613e5d565b610a58578638614e13565b87513d8a823e3d90fd5b8980fd5b909298959450929092614e55575b50505050505050505050565b849084614ed3575b505050505083614e71575b80808080614e49565b80600c541692541690823b156105c35791849391868094614ea59751978895869485936348fef59560e01b855284016146c5565b03925af1908115614dbf5750614ebf575b80808080614e68565b614ec98291613e5d565b6102965780614eb6565b5416823b15614e375791614f0093918a80948b519687958694859363112cd22360e01b85528c8501614241565b03925af18015614f2b57614f18575b80808381614e5d565b614f2490969196613e5d565b9438614f0f565b86513d89823e3d90fd5b634e487b7160e01b8e5260118a5260248efd5b634e487b7160e01b8d526011895260248dfd5b9080929650813d8311614f88575b614f738183613ec2565b81010312614f845751933880614d03565b8a80fd5b503d614f69565b8b513d8e823e3d90fd5b8281939296503d8311614fc7575b614fb18183613ec2565b81010312614fc3575192859082614ccf565b8b80fd5b503d614fa7565b92509293949596979850508781813d831161500e575b614fee8183613ec2565b8101031261500a57518b97969594939291899190614cb9614c8f565b8c80fd5b503d614fe4565b8c513d8f823e3d90fd5b868103615035575b61503090614136565b614c2a565b9487848760018060a01b038881600c54169161506c600491828b01541696519687958694859463dc4ce34960e01b86528501614915565b03915afa9081156150c3578a91615094575b5061508c9061503092614113565b959050615027565b90508481813d83116150bc575b6150ab8183613ec2565b81010312614e37575161503061507e565b503d6150a1565b89513d8c823e3d90fd5b9061512460008051602061562683398151915291836000526002602052600c604060002001600360ff19825416179055600b60205260ff60406000205416615129575b604051918291602083526020830190614003565b0390a2565b615132846154e7565b615110565b909493926060926080830196835260018060a01b0316602083015260408201520152565b939093600094818652602093600385526040948588209160018060a01b039283851690818b52835260ff888b205416156152d4575b858a5260038352878a20818b528352878a20600160ff19825416179055858a5260058352878a20908a52825285878a205582600c5416803b15614e375788918a918683896151f48c8e51988997889687956395f4109560e01b875260048701614211565b03925af180156152b7576152c1575b5060048183600d541688519283809263406ad64560e11b82525afa9182156152b757899261529a575b505016918261523f575b50505050505050565b823b15610a585790868094939261526b87519889968795869463c228038d60e01b865260048601615137565b03925af1908115614dbf5750615286575b8080808080615236565b6152908291613e5d565b610296578061527c565b6152b09250803d10610890576108818183613ec2565b388061522c565b87513d8b823e3d90fd5b6152cd90989198613e5d565b9638615203565b858a52600683526152e785898c20614438565b808a52600883526152fa86898c20614179565b615190565b1561530657565b60405162461bcd60e51b815260206004820152601260248201527111540e881cdd185ada5b99c818db1bdcd95960721b6044820152606490fd5b600d5460405163111a798960e31b8152602092916001600160a01b0316908381600481855afa9081156142f557600091615411575b5015615400578260049160405192838092632eaa712b60e21b82525afa9283156142f5576000936153ce575b505060090154603c820291808304603c149015171561412057613f78916153c7916144ba565b42106152ff565b8181949293943d83116153f9575b6153e68183613ec2565b81010312610296575051906009386153a1565b503d6153dc565b50613f7891506009015442106152ff565b908482813d831161543f575b6154278183613ec2565b81010312610296575061543990614084565b38615375565b503d61541d565b600d5460405163406ad64560e11b81526001600160a01b03916020908290600490829086165afa9081156142f5576000916154c9575b5016918261548957505050565b823b15610dbc57604460009283604051958694859362ff4a7360e81b8552600485015260248401525af180156142f5576154c05750565b613f7890613e5d565b6154e1915060203d8111610890576108818183613ec2565b3861547c565b60005b600a908154918282101561559c57839261550383613e14565b949054600395861b1c1461552257505061551d9150614136565b6154ea565b9091600019918281019081116141205761296d61554161554d92613e14565b905490871b1c92613e14565b9055815480156155865781019261556384613e14565b81939154921b1b1916905555600052600b602052604060002060ff198154169055565b634e487b7160e01b600052603160045260246000fd5b50505050565b156155a957565b60405162461bcd60e51b815260206004820152601060248201526f45503a207a65726f206164647265737360801b6044820152606490fd5b156155e857565b60405162461bcd60e51b815260206004820152601560248201527422a81d1037b7363c9020b236b4b726b0b730b3b2b960591b6044820152606490fdfe4c4561c5b0048424071c1115e9f1e325486e21c21333d968f21097b7b72d12ad8be0079c531659141344cd1fd0a4f28419497f9722a3daafe3b4186f6b6457e06dfc24f0f2fb42e49fb4fa3ffa8abb148cab908a1fb8335b3f128a08b2594af1e10fdde2c5cd9b92e449ee25df01febda2cbebc5553e38f2250ffe7f2d5143bca164736f6c6343000814000a","opcodes":"PUSH1 0x80 CALLVALUE PUSH3 0x106 JUMPI PUSH1 0x1F PUSH3 0x57E9 CODESIZE DUP2 SWAP1 SUB SWAP2 DUP3 ADD PUSH1 0x1F NOT AND DUP4 ADD SWAP2 PUSH1 0x1 PUSH1 0x1 PUSH1 0x40 SHL SUB DUP4 GT DUP5 DUP5 LT OR PUSH3 0x10B JUMPI DUP1 DUP5 SWAP3 PUSH1 0x60 SWAP5 PUSH1 0x40 MSTORE DUP4 CODECOPY DUP2 ADD SUB SLT PUSH3 0x106 JUMPI PUSH3 0x4D DUP2 PUSH3 0x121 JUMP JUMPDEST PUSH1 0x20 DUP3 ADD MLOAD PUSH1 0x1 PUSH1 0x1 PUSH1 0xA0 SHL SUB DUP1 DUP3 AND SWAP4 SWAP1 SWAP2 DUP5 SWAP1 SUB PUSH3 0x106 JUMPI PUSH3 0x77 PUSH1 0x40 DUP4 SWAP3 ADD PUSH3 0x121 JUMP JUMPDEST SWAP3 AND SWAP2 DUP3 ISZERO PUSH3 0xED JUMPI PUSH1 0x0 SLOAD SWAP4 PUSH1 0x1 DUP1 PUSH1 0xA0 SHL SUB NOT SWAP4 DUP1 DUP6 DUP8 AND OR PUSH1 0x0 SSTORE DUP4 PUSH1 0x40 MLOAD SWAP7 AND PUSH32 0x8BE0079C531659141344CD1FD0A4F28419497F9722A3DAAFE3B4186F6B6457E0 PUSH1 0x0 DUP1 LOG3 PUSH3 0x2A300 PUSH1 0x1 SSTORE PUSH1 0x1 PUSH1 0x9 SSTORE DUP4 PUSH1 0xC SLOAD AND OR PUSH1 0xC SSTORE AND SWAP1 PUSH1 0xD SLOAD AND OR PUSH1 0xD SSTORE PUSH2 0x56B2 SWAP1 DUP2 PUSH3 0x137 DUP3 CODECOPY RETURN JUMPDEST PUSH1 0x40 MLOAD PUSH4 0x1E4FBDF7 PUSH1 0xE0 SHL DUP2 MSTORE PUSH1 0x0 PUSH1 0x4 DUP3 ADD MSTORE PUSH1 0x24 SWAP1 REVERT JUMPDEST PUSH1 0x0 DUP1 REVERT JUMPDEST PUSH4 0x4E487B71 PUSH1 0xE0 SHL PUSH1 0x0 MSTORE PUSH1 0x41 PUSH1 0x4 MSTORE PUSH1 0x24 PUSH1 0x0 REVERT JUMPDEST MLOAD SWAP1 PUSH1 0x1 PUSH1 0x1 PUSH1 0xA0 SHL SUB DUP3 AND DUP3 SUB PUSH3 0x106 JUMPI JUMP INVALID PUSH2 0x120 DUP1 PUSH1 0x40 MSTORE PUSH1 0x4 CALLDATASIZE LT ISZERO PUSH2 0x1E JUMPI JUMPDEST POP CALLDATASIZE ISZERO PUSH2 0x1C JUMPI PUSH1 0x0 DUP1 REVERT JUMPDEST STOP JUMPDEST PUSH1 0x0 SWAP1 DUP2 CALLDATALOAD PUSH1 0xE0 SHR SWAP1 DUP2 PUSH4 0xCCF4467 EQ PUSH2 0x3D8C JUMPI POP DUP1 PUSH4 0xD64CDBD EQ PUSH2 0x3D5D JUMPI DUP1 PUSH4 0x157BDCCE EQ PUSH2 0x3CF9 JUMPI DUP1 PUSH4 0x209C1C94 EQ PUSH2 0x3CD0 JUMPI DUP1 PUSH4 0x22302922 EQ PUSH2 0x3CA7 JUMPI DUP1 PUSH4 0x256BA741 EQ PUSH2 0x3C12 JUMPI DUP1 PUSH4 0x287F57B5 EQ PUSH2 0x3BCA JUMPI DUP1 PUSH4 0x2EF1BDFA EQ PUSH2 0x3BA7 JUMPI DUP1 PUSH4 0x304BF1F1 EQ PUSH2 0x3B5E JUMPI DUP1 PUSH4 0x3ADFE6D0 EQ PUSH2 0x3B33 JUMPI DUP1 PUSH4 0x3E32A76C EQ PUSH2 0x38B7 JUMPI DUP1 PUSH4 0x406EF2EF EQ PUSH2 0x3899 JUMPI DUP1 PUSH4 0x4F44289D EQ PUSH2 0x3850 JUMPI DUP1 PUSH4 0x539AA77F EQ PUSH2 0x3833 JUMPI DUP1 PUSH4 0x569946C5 EQ PUSH2 0x375F JUMPI DUP1 PUSH4 0x5B7BAF64 EQ PUSH2 0x3408 JUMPI DUP1 PUSH4 0x5CB305A6 EQ PUSH2 0x328C JUMPI DUP1 PUSH4 0x61D027B3 EQ PUSH2 0x3263 JUMPI DUP1 PUSH4 0x66CF7ED4 EQ PUSH2 0x249E JUMPI DUP1 PUSH4 0x677BD9FF EQ PUSH2 0x22F4 JUMPI DUP1 PUSH4 0x6D4476EC EQ PUSH2 0x2098 JUMPI DUP1 PUSH4 0x6F59359E EQ PUSH2 0x1FE6 JUMPI DUP1 PUSH4 0x715018A6 EQ PUSH2 0x1F9E JUMPI DUP1 PUSH4 0x7C16CD9E EQ PUSH2 0x1EC4 JUMPI DUP1 PUSH4 0x818EF5F6 EQ PUSH2 0x1E63 JUMPI DUP1 PUSH4 0x847CF782 EQ PUSH2 0x1E1F JUMPI DUP1 PUSH4 0x87A6B0FF EQ PUSH2 0x1D0B JUMPI DUP1 PUSH4 0x8D0D180E EQ PUSH2 0x1A1B JUMPI DUP1 PUSH4 0x8DA5CB5B EQ PUSH2 0x19F4 JUMPI DUP1 PUSH4 0x93FCF24D EQ PUSH2 0x19D6 JUMPI DUP1 PUSH4 0x98A17671 EQ PUSH2 0x1980 JUMPI DUP1 PUSH4 0x9A3A40D6 EQ PUSH2 0x177B JUMPI DUP1 PUSH4 0xA210B6A4 EQ PUSH2 0x1752 JUMPI DUP1 PUSH4 0xA30A0914 EQ PUSH2 0x1728 JUMPI DUP1 PUSH4 0xA550725D EQ PUSH2 0x16DB JUMPI DUP1 PUSH4 0xB1283E77 EQ PUSH2 0x153A JUMPI DUP1 PUSH4 0xBC160758 EQ PUSH2 0x14ED JUMPI DUP1 PUSH4 0xBF5C3252 EQ PUSH2 0x14A0 JUMPI DUP1 PUSH4 0xC22C62C3 EQ PUSH2 0x146E JUMPI DUP1 PUSH4 0xC3436E0C EQ PUSH2 0x1353 JUMPI DUP1 PUSH4 0xCC3CBD2A EQ PUSH2 0x1336 JUMPI DUP1 PUSH4 0xD5F82707 EQ PUSH2 0x12EB JUMPI DUP1 PUSH4 0xD8C5DD67 EQ PUSH2 0x12A4 JUMPI DUP1 PUSH4 0xDC4CE349 EQ PUSH2 0x1251 JUMPI DUP1 PUSH4 0xE0BD4ACC EQ PUSH2 0x10D0 JUMPI DUP1 PUSH4 0xEB44FDD3 EQ PUSH2 0xDC9 JUMPI DUP1 PUSH4 0xF00FE321 EQ PUSH2 0xD2D JUMPI DUP1 PUSH4 0xF15CC406 EQ PUSH2 0xBF8 JUMPI DUP1 PUSH4 0xF1B7DDE3 EQ PUSH2 0xA63 JUMPI DUP1 PUSH4 0xF204072F EQ PUSH2 0x64F JUMPI DUP1 PUSH4 0xF2FDE38B EQ PUSH2 0x5D9 JUMPI DUP1 PUSH4 0xF4867591 EQ PUSH2 0x432 JUMPI DUP1 PUSH4 0xFB87F2C3 EQ PUSH2 0x299 JUMPI PUSH4 0xFE53A6E8 SUB PUSH2 0x10 JUMPI CALLVALUE PUSH2 0x296 JUMPI DUP1 PUSH1 0x3 NOT CALLDATASIZE ADD SLT PUSH2 0x296 JUMPI PUSH1 0x20 PUSH1 0x9 SLOAD PUSH1 0x40 MLOAD SWAP1 DUP2 MSTORE RETURN JUMPDEST DUP1 REVERT JUMPDEST POP CALLVALUE PUSH2 0x296 JUMPI PUSH1 0x20 DUP1 PUSH1 0x3 NOT CALLDATASIZE ADD SLT PUSH2 0x42E JUMPI PUSH1 0x4 CALLDATALOAD SWAP1 PUSH1 0x1 DUP1 PUSH1 0xA0 SHL SUB PUSH2 0x2C6 DUP2 PUSH1 0xD SLOAD AND CALLER EQ PUSH2 0x55E1 JUMP JUMPDEST PUSH1 0x9 SLOAD DUP4 LT ISZERO PUSH2 0x3FC JUMPI DUP3 DUP5 MSTORE PUSH1 0x2 DUP3 MSTORE PUSH1 0x40 DUP5 KECCAK256 SLOAD AND ISZERO PUSH2 0x3C8 JUMPI DUP2 DUP4 MSTORE PUSH1 0x2 DUP2 MSTORE PUSH1 0xFF PUSH1 0xC PUSH1 0x40 DUP6 KECCAK256 ADD SLOAD AND PUSH1 0x5 DUP2 LT ISZERO PUSH2 0x3B4 JUMPI PUSH1 0x4 EQ PUSH2 0x37A JUMPI PUSH1 0x60 PUSH1 0x0 DUP1 MLOAD PUSH1 0x20 PUSH2 0x5626 DUP4 CODECOPY DUP2 MLOAD SWAP2 MSTORE SWAP2 DUP4 DUP6 MSTORE PUSH1 0x2 DUP2 MSTORE PUSH1 0xC PUSH1 0x40 DUP7 KECCAK256 ADD PUSH1 0x4 PUSH1 0xFF NOT DUP3 SLOAD AND OR SWAP1 SSTORE DUP4 DUP6 MSTORE PUSH1 0xB DUP2 MSTORE PUSH1 0xFF PUSH1 0x40 DUP7 KECCAK256 SLOAD AND PUSH2 0x36C JUMPI JUMPDEST PUSH1 0x10 PUSH1 0x40 MLOAD SWAP2 DUP1 DUP4 MSTORE DUP3 ADD MSTORE PUSH16 0x2232B632BA32B210313C9030B236B4B7 PUSH1 0x81 SHL PUSH1 0x40 DUP3 ADD MSTORE LOG2 DUP1 RETURN JUMPDEST PUSH2 0x375 DUP5 PUSH2 0x54E7 JUMP JUMPDEST PUSH2 0x343 JUMP JUMPDEST PUSH1 0x64 SWAP1 PUSH1 0x40 MLOAD SWAP1 PUSH3 0x461BCD PUSH1 0xE5 SHL DUP3 MSTORE PUSH1 0x4 DUP3 ADD MSTORE PUSH1 0x13 PUSH1 0x24 DUP3 ADD MSTORE PUSH19 0x11540E88185B1C9958591E4819195B195D1959 PUSH1 0x6A SHL PUSH1 0x44 DUP3 ADD MSTORE REVERT JUMPDEST PUSH4 0x4E487B71 PUSH1 0xE0 SHL DUP5 MSTORE PUSH1 0x21 PUSH1 0x4 MSTORE PUSH1 0x24 DUP5 REVERT JUMPDEST PUSH1 0x64 SWAP1 PUSH1 0x40 MLOAD SWAP1 PUSH3 0x461BCD PUSH1 0xE5 SHL DUP3 MSTORE PUSH1 0x4 DUP3 ADD MSTORE PUSH1 0xD PUSH1 0x24 DUP3 ADD MSTORE PUSH13 0x11540E881B9BC81B585C9AD95D PUSH1 0x9A SHL PUSH1 0x44 DUP3 ADD MSTORE REVERT JUMPDEST PUSH1 0x40 MLOAD PUSH3 0x461BCD PUSH1 0xE5 SHL DUP2 MSTORE PUSH1 0x4 DUP2 ADD DUP4 SWAP1 MSTORE PUSH1 0xA PUSH1 0x24 DUP3 ADD MSTORE PUSH10 0x11540E88189859081251 PUSH1 0xB2 SHL PUSH1 0x44 DUP3 ADD MSTORE PUSH1 0x64 SWAP1 REVERT JUMPDEST POP DUP1 REVERT JUMPDEST POP PUSH2 0x43C CALLDATASIZE PUSH2 0x4042 JUMP JUMPDEST SWAP1 PUSH1 0x1 DUP1 PUSH1 0xA0 SHL SUB DUP1 PUSH1 0xD SLOAD AND SWAP1 PUSH1 0x40 MLOAD DUP1 SWAP3 PUSH4 0x4D9B4235 PUSH1 0xE1 SHL DUP3 MSTORE DUP5 PUSH1 0x4 DUP4 ADD MSTORE DUP2 PUSH1 0x24 PUSH1 0x20 SWAP6 DUP7 SWAP4 GAS STATICCALL DUP1 ISZERO PUSH2 0x5CE JUMPI DUP7 SWAP1 PUSH2 0x594 JUMPI JUMPDEST PUSH2 0x481 SWAP2 POP ISZERO PUSH2 0x4301 JUMP JUMPDEST DUP3 DUP6 MSTORE PUSH1 0x2 DUP3 MSTORE PUSH1 0x40 DUP6 KECCAK256 PUSH1 0xFF PUSH1 0xC DUP3 ADD SLOAD AND PUSH1 0x5 DUP2 LT ISZERO PUSH2 0x580 JUMPI PUSH2 0x4A7 SWAP1 ISZERO PUSH2 0x433B JUMP JUMPDEST PUSH1 0x4 DUP2 ADD SWAP1 DUP3 DUP3 SLOAD AND PUSH2 0x53D JUMPI SWAP2 DUP6 SWAP2 PUSH2 0x4E5 PUSH1 0x5 PUSH2 0x50D SWAP6 DUP6 ISZERO ISZERO DUP1 PUSH2 0x52F JUMPI JUMPDEST PUSH2 0x4D2 SWAP1 PUSH2 0x4378 JUMP JUMPDEST PUSH2 0x4DB DUP2 PUSH2 0x5340 JUMP JUMPDEST ADD SLOAD CALLVALUE LT ISZERO PUSH2 0x43B5 JUMP JUMPDEST PUSH2 0x502 DUP9 DUP1 DUP1 DUP1 CALLVALUE DUP8 PUSH1 0xC SLOAD AND GAS CALL PUSH2 0x4FC PUSH2 0x419F JUMP JUMPDEST POP PUSH2 0x43F1 JUMP JUMPDEST SLOAD AND CALLVALUE SWAP1 CALLER DUP7 PUSH2 0x515B JUMP JUMPDEST PUSH1 0x40 MLOAD SWAP3 DUP4 MSTORE CALLVALUE SWAP1 DUP4 ADD MSTORE PUSH1 0x0 DUP1 MLOAD PUSH1 0x20 PUSH2 0x5686 DUP4 CODECOPY DUP2 MLOAD SWAP2 MSTORE PUSH1 0x40 CALLER SWAP4 LOG3 DUP1 RETURN JUMPDEST POP PUSH1 0x3 DUP2 ADD SLOAD DUP7 GT ISZERO PUSH2 0x4C9 JUMP JUMPDEST PUSH1 0x40 MLOAD PUSH3 0x461BCD PUSH1 0xE5 SHL DUP2 MSTORE PUSH1 0x4 DUP2 ADD DUP6 SWAP1 MSTORE PUSH1 0x1B PUSH1 0x24 DUP3 ADD MSTORE PUSH27 0x22A81D103AB9B290383630B1B2A9BA30B5B2ABB4BA342A37B5B2B7 PUSH1 0x29 SHL PUSH1 0x44 DUP3 ADD MSTORE PUSH1 0x64 SWAP1 REVERT JUMPDEST PUSH4 0x4E487B71 PUSH1 0xE0 SHL DUP8 MSTORE PUSH1 0x21 PUSH1 0x4 MSTORE PUSH1 0x24 DUP8 REVERT JUMPDEST POP DUP3 DUP2 DUP2 RETURNDATASIZE DUP4 GT PUSH2 0x5C7 JUMPI JUMPDEST PUSH2 0x5AA DUP2 DUP4 PUSH2 0x3EC2 JUMP JUMPDEST DUP2 ADD SUB SLT PUSH2 0x5C3 JUMPI PUSH2 0x5BE PUSH2 0x481 SWAP2 PUSH2 0x4084 JUMP JUMPDEST PUSH2 0x476 JUMP JUMPDEST DUP6 DUP1 REVERT JUMPDEST POP RETURNDATASIZE PUSH2 0x5A0 JUMP JUMPDEST PUSH1 0x40 MLOAD RETURNDATASIZE DUP9 DUP3 RETURNDATACOPY RETURNDATASIZE SWAP1 REVERT JUMPDEST POP CALLVALUE PUSH2 0x296 JUMPI PUSH1 0x20 CALLDATASIZE PUSH1 0x3 NOT ADD SLT PUSH2 0x296 JUMPI PUSH2 0x5F3 PUSH2 0x3DC9 JUMP JUMPDEST PUSH2 0x5FB PUSH2 0x4058 JUMP JUMPDEST PUSH1 0x1 PUSH1 0x1 PUSH1 0xA0 SHL SUB SWAP1 DUP2 AND SWAP1 DUP2 ISZERO PUSH2 0x636 JUMPI PUSH1 0x0 SLOAD DUP3 PUSH1 0x1 DUP1 PUSH1 0xA0 SHL SUB NOT DUP3 AND OR PUSH1 0x0 SSTORE AND PUSH1 0x0 DUP1 MLOAD PUSH1 0x20 PUSH2 0x5646 DUP4 CODECOPY DUP2 MLOAD SWAP2 MSTORE PUSH1 0x0 DUP1 LOG3 DUP1 RETURN JUMPDEST PUSH1 0x40 MLOAD PUSH4 0x1E4FBDF7 PUSH1 0xE0 SHL DUP2 MSTORE PUSH1 0x4 DUP2 ADD DUP5 SWAP1 MSTORE PUSH1 0x24 SWAP1 REVERT JUMPDEST POP PUSH2 0x659 CALLDATASIZE PUSH2 0x4042 JUMP JUMPDEST PUSH1 0xD SLOAD PUSH1 0x40 MLOAD PUSH4 0x2B5BA3B9 PUSH1 0xE0 SHL DUP2 MSTORE CALLER PUSH1 0x4 DUP3 ADD MSTORE PUSH1 0x20 SWAP5 SWAP4 SWAP2 PUSH1 0x24 SWAP2 PUSH1 0x1 PUSH1 0x1 PUSH1 0xA0 SHL SUB SWAP2 DUP3 AND SWAP1 DUP8 DUP2 DUP6 DUP2 DUP6 GAS STATICCALL SWAP1 DUP2 ISZERO PUSH2 0x897 JUMPI SWAP2 DUP9 SWAP2 DUP6 SWAP4 DUP10 SWAP2 PUSH2 0xA21 JUMPI JUMPDEST POP PUSH2 0x6A8 SWAP1 ISZERO PUSH2 0x4091 JUMP JUMPDEST PUSH1 0x40 MLOAD SWAP3 DUP4 DUP1 SWAP3 PUSH4 0x4D9B4235 PUSH1 0xE1 SHL DUP3 MSTORE DUP9 PUSH1 0x4 DUP4 ADD MSTORE GAS STATICCALL DUP1 ISZERO PUSH2 0x5CE JUMPI DUP7 SWAP1 PUSH2 0x9EB JUMPI JUMPDEST PUSH2 0x6D9 SWAP2 POP ISZERO PUSH2 0x4301 JUMP JUMPDEST DUP3 DUP6 MSTORE PUSH1 0x2 DUP7 MSTORE PUSH1 0x40 DUP6 KECCAK256 PUSH1 0xFF PUSH1 0xC DUP3 ADD SLOAD AND PUSH1 0x5 DUP2 LT ISZERO PUSH2 0x9D8 JUMPI PUSH2 0x6FF SWAP1 ISZERO PUSH2 0x433B JUMP JUMPDEST PUSH1 0x9 DUP2 ADD SLOAD TIMESTAMP LT ISZERO PUSH2 0x99F JUMPI DUP5 ISZERO PUSH2 0x969 JUMPI PUSH1 0x4 ADD SWAP6 DUP2 DUP8 SLOAD AND DUP1 ISZERO PUSH1 0x0 EQ PUSH2 0x909 JUMPI POP DUP5 CALLVALUE SUB PUSH2 0x8D3 JUMPI DUP6 SWAP7 PUSH2 0x743 DUP8 DUP1 DUP1 DUP1 DUP11 DUP9 PUSH1 0xC SLOAD AND GAS CALL PUSH2 0x4FC PUSH2 0x419F JUMP JUMPDEST DUP5 DUP8 MSTORE PUSH1 0x4 DUP3 MSTORE PUSH1 0x40 DUP8 KECCAK256 CALLER PUSH1 0x0 MSTORE DUP3 MSTORE PUSH1 0xFF PUSH1 0x40 PUSH1 0x0 KECCAK256 SLOAD AND ISZERO PUSH2 0x8BA JUMPI JUMPDEST DUP5 DUP8 MSTORE PUSH1 0x4 DUP3 MSTORE PUSH1 0x40 DUP8 KECCAK256 CALLER PUSH1 0x0 MSTORE DUP3 MSTORE PUSH1 0x40 PUSH1 0x0 KECCAK256 PUSH1 0x1 PUSH1 0xFF NOT DUP3 SLOAD AND OR SWAP1 SSTORE DUP3 DUP1 PUSH1 0xC SLOAD AND SWAP2 SLOAD AND SWAP1 DUP1 EXTCODESIZE ISZERO PUSH2 0x8B6 JUMPI DUP7 DUP9 SWAP2 PUSH2 0x7BC SWAP4 DUP4 PUSH1 0x40 MLOAD DUP1 SWAP7 DUP2 SWAP6 DUP3 SWAP5 PUSH4 0xC15D9807 PUSH1 0xE0 SHL DUP5 MSTORE DUP14 CALLER SWAP1 PUSH1 0x4 DUP7 ADD PUSH2 0x4473 JUMP JUMPDEST SUB SWAP3 GAS CALL SWAP1 DUP2 ISZERO PUSH2 0x897 JUMPI DUP8 SWAP2 PUSH2 0x8A2 JUMPI JUMPDEST POP POP PUSH1 0x4 DUP2 DUP4 PUSH1 0xD SLOAD AND PUSH1 0x40 MLOAD SWAP3 DUP4 DUP1 SWAP3 PUSH4 0x406AD645 PUSH1 0xE1 SHL DUP3 MSTORE GAS STATICCALL SWAP2 DUP3 ISZERO PUSH2 0x897 JUMPI DUP8 SWAP3 PUSH2 0x86A JUMPI JUMPDEST POP POP AND DUP1 PUSH2 0x805 JUMPI DUP5 DUP1 RETURN JUMPDEST DUP1 EXTCODESIZE ISZERO PUSH2 0x866 JUMPI DUP5 SWAP3 DUP4 PUSH1 0x64 SWAP3 PUSH1 0x40 MLOAD SWAP7 DUP8 SWAP6 DUP7 SWAP5 PUSH4 0x8F46A5A1 PUSH1 0xE0 SHL DUP7 MSTORE PUSH1 0x4 DUP7 ADD MSTORE CALLER SWAP1 DUP6 ADD MSTORE PUSH1 0x44 DUP5 ADD MSTORE GAS CALL DUP1 ISZERO PUSH2 0x85B JUMPI PUSH2 0x847 JUMPI JUMPDEST DUP1 DUP1 DUP1 DUP5 DUP1 RETURN JUMPDEST PUSH2 0x850 SWAP1 PUSH2 0x3E5D JUMP JUMPDEST PUSH2 0x296 JUMPI DUP1 CODESIZE PUSH2 0x840 JUMP JUMPDEST PUSH1 0x40 MLOAD RETURNDATASIZE DUP5 DUP3 RETURNDATACOPY RETURNDATASIZE SWAP1 REVERT JUMPDEST DUP5 DUP1 REVERT JUMPDEST PUSH2 0x889 SWAP3 POP DUP1 RETURNDATASIZE LT PUSH2 0x890 JUMPI JUMPDEST PUSH2 0x881 DUP2 DUP4 PUSH2 0x3EC2 JUMP JUMPDEST DUP2 ADD SWAP1 PUSH2 0x449B JUMP JUMPDEST CODESIZE DUP1 PUSH2 0x7F9 JUMP JUMPDEST POP RETURNDATASIZE PUSH2 0x877 JUMP JUMPDEST PUSH1 0x40 MLOAD RETURNDATASIZE DUP10 DUP3 RETURNDATACOPY RETURNDATASIZE SWAP1 REVERT JUMPDEST PUSH2 0x8AB SWAP1 PUSH2 0x3E5D JUMP JUMPDEST PUSH2 0x5C3 JUMPI DUP6 CODESIZE PUSH2 0x7CE JUMP JUMPDEST DUP8 DUP1 REVERT JUMPDEST DUP5 DUP8 MSTORE PUSH1 0x7 DUP3 MSTORE PUSH2 0x8CE CALLER PUSH1 0x40 DUP10 KECCAK256 PUSH2 0x4438 JUMP JUMPDEST PUSH2 0x763 JUMP JUMPDEST PUSH1 0x64 SWAP1 PUSH1 0x10 DUP5 PUSH1 0x40 MLOAD SWAP3 PUSH3 0x461BCD PUSH1 0xE5 SHL DUP5 MSTORE PUSH1 0x4 DUP5 ADD MSTORE DUP3 ADD MSTORE PUSH16 0x8AA074408AA89040DAD2E6DAC2E8C6D PUSH1 0x83 SHL PUSH1 0x44 DUP3 ADD MSTORE REVERT JUMPDEST SWAP7 CALLVALUE PUSH2 0x927 JUMPI PUSH2 0x922 DUP7 DUP9 SWAP10 DUP6 PUSH1 0xC SLOAD AND SWAP1 CALLER SWAP1 PUSH2 0x4263 JUMP JUMPDEST PUSH2 0x743 JUMP JUMPDEST PUSH1 0x40 MLOAD PUSH3 0x461BCD PUSH1 0xE5 SHL DUP2 MSTORE PUSH1 0x4 DUP2 ADD DUP4 SWAP1 MSTORE PUSH1 0x1B DUP2 DUP7 ADD MSTORE PUSH27 0x11540E881B9BC811551208199BDC881D1BDAD95B881B585C9AD95D PUSH1 0x2A SHL PUSH1 0x44 DUP3 ADD MSTORE PUSH1 0x64 SWAP1 REVERT JUMPDEST PUSH1 0x40 MLOAD PUSH3 0x461BCD PUSH1 0xE5 SHL DUP2 MSTORE PUSH1 0x4 DUP2 ADD DUP9 SWAP1 MSTORE PUSH1 0xF DUP2 DUP6 ADD MSTORE PUSH15 0x11540E881E995C9BC8185B5BDD5B9D PUSH1 0x8A SHL PUSH1 0x44 DUP3 ADD MSTORE PUSH1 0x64 SWAP1 REVERT JUMPDEST PUSH1 0x40 MLOAD PUSH3 0x461BCD PUSH1 0xE5 SHL DUP2 MSTORE PUSH1 0x4 DUP2 ADD DUP9 SWAP1 MSTORE PUSH1 0x12 DUP2 DUP6 ADD MSTORE PUSH18 0x11540E881CDD5C1C1BDC9D0818DB1BDCD959 PUSH1 0x72 SHL PUSH1 0x44 DUP3 ADD MSTORE PUSH1 0x64 SWAP1 REVERT JUMPDEST PUSH4 0x4E487B71 PUSH1 0xE0 SHL DUP8 MSTORE PUSH1 0x21 PUSH1 0x4 MSTORE DUP4 DUP8 REVERT JUMPDEST POP DUP7 DUP2 DUP2 RETURNDATASIZE DUP4 GT PUSH2 0xA1A JUMPI JUMPDEST PUSH2 0xA01 DUP2 DUP4 PUSH2 0x3EC2 JUMP JUMPDEST DUP2 ADD SUB SLT PUSH2 0x5C3 JUMPI PUSH2 0xA15 PUSH2 0x6D9 SWAP2 PUSH2 0x4084 JUMP JUMPDEST PUSH2 0x6CE JUMP JUMPDEST POP RETURNDATASIZE PUSH2 0x9F7 JUMP JUMPDEST SWAP3 DUP1 SWAP3 SWAP5 POP DUP4 SWAP2 POP RETURNDATASIZE DUP4 GT PUSH2 0xA5C JUMPI JUMPDEST PUSH2 0xA3B DUP2 DUP4 PUSH2 0x3EC2 JUMP JUMPDEST DUP2 ADD SUB SLT PUSH2 0xA58 JUMPI DUP4 SWAP2 PUSH2 0x6A8 PUSH2 0xA52 DUP11 SWAP4 PUSH2 0x4084 JUMP JUMPDEST SWAP1 PUSH2 0x69D JUMP JUMPDEST DUP7 DUP1 REVERT JUMPDEST POP RETURNDATASIZE PUSH2 0xA31 JUMP JUMPDEST POP CALLVALUE PUSH2 0x296 JUMPI PUSH1 0x60 CALLDATASIZE PUSH1 0x3 NOT ADD SLT PUSH2 0x296 JUMPI PUSH1 0x4 CALLDATALOAD PUSH1 0x24 CALLDATALOAD SWAP1 PUSH1 0x44 CALLDATALOAD PUSH1 0x1 DUP1 PUSH1 0xA0 SHL SUB DUP1 PUSH1 0xD SLOAD AND SWAP1 PUSH1 0x40 MLOAD DUP1 SWAP3 PUSH4 0x4D9B4235 PUSH1 0xE1 SHL DUP3 MSTORE DUP6 PUSH1 0x4 DUP4 ADD MSTORE DUP2 PUSH1 0x24 PUSH1 0x20 SWAP6 DUP7 SWAP4 GAS STATICCALL DUP1 ISZERO PUSH2 0x897 JUMPI DUP8 SWAP1 PUSH2 0xBC2 JUMPI JUMPDEST PUSH2 0xAC3 SWAP2 POP ISZERO PUSH2 0x4301 JUMP JUMPDEST DUP4 DUP7 MSTORE PUSH1 0x2 DUP3 MSTORE PUSH1 0x40 DUP7 KECCAK256 PUSH1 0xFF PUSH1 0xC DUP3 ADD SLOAD AND PUSH1 0x5 DUP2 LT ISZERO PUSH2 0xBAE JUMPI PUSH2 0xAE9 SWAP1 ISZERO PUSH2 0x433B JUMP JUMPDEST PUSH1 0x4 DUP2 ADD SWAP1 DUP3 DUP3 SLOAD AND SWAP1 DUP2 ISZERO PUSH2 0xB74 JUMPI SWAP3 DUP8 SWAP3 PUSH2 0xB3D DUP8 DUP1 SWAP5 PUSH2 0xB30 PUSH2 0xB46 SWAP9 DUP9 ISZERO ISZERO DUP1 PUSH2 0xB66 JUMPI JUMPDEST PUSH2 0xB1B SWAP1 PUSH2 0x4378 JUMP JUMPDEST PUSH2 0xB2B PUSH1 0x5 DUP3 ADD SLOAD DUP6 LT ISZERO PUSH2 0x43B5 JUMP JUMPDEST PUSH2 0x5340 JUMP JUMPDEST DUP5 PUSH1 0xC SLOAD AND SWAP1 CALLER SWAP1 PUSH2 0x4263 JUMP JUMPDEST SLOAD AND CALLER DUP8 PUSH2 0x515B JUMP JUMPDEST PUSH1 0x40 MLOAD SWAP4 DUP5 MSTORE DUP4 ADD MSTORE PUSH1 0x0 DUP1 MLOAD PUSH1 0x20 PUSH2 0x5686 DUP4 CODECOPY DUP2 MLOAD SWAP2 MSTORE PUSH1 0x40 CALLER SWAP4 LOG3 DUP1 RETURN JUMPDEST POP PUSH1 0x3 DUP2 ADD SLOAD DUP10 GT ISZERO PUSH2 0xB12 JUMP JUMPDEST PUSH1 0x40 MLOAD PUSH3 0x461BCD PUSH1 0xE5 SHL DUP2 MSTORE PUSH1 0x4 DUP2 ADD DUP7 SWAP1 MSTORE PUSH1 0x12 PUSH1 0x24 DUP3 ADD MSTORE PUSH18 0x45503A2075736520706C6163655374616B65 PUSH1 0x70 SHL PUSH1 0x44 DUP3 ADD MSTORE PUSH1 0x64 SWAP1 REVERT JUMPDEST PUSH4 0x4E487B71 PUSH1 0xE0 SHL DUP9 MSTORE PUSH1 0x21 PUSH1 0x4 MSTORE PUSH1 0x24 DUP9 REVERT JUMPDEST POP DUP3 DUP2 DUP2 RETURNDATASIZE DUP4 GT PUSH2 0xBF1 JUMPI JUMPDEST PUSH2 0xBD8 DUP2 DUP4 PUSH2 0x3EC2 JUMP JUMPDEST DUP2 ADD SUB SLT PUSH2 0xA58 JUMPI PUSH2 0xBEC PUSH2 0xAC3 SWAP2 PUSH2 0x4084 JUMP JUMPDEST PUSH2 0xAB8 JUMP JUMPDEST POP RETURNDATASIZE PUSH2 0xBCE JUMP JUMPDEST POP CALLVALUE PUSH2 0x296 JUMPI PUSH1 0x40 CALLDATASIZE PUSH1 0x3 NOT ADD SLT PUSH2 0x296 JUMPI PUSH1 0x4 CALLDATALOAD PUSH2 0xC15 PUSH2 0x3DB3 JUMP JUMPDEST DUP2 DUP4 MSTORE PUSH1 0x20 SWAP2 PUSH1 0x2 DUP4 MSTORE PUSH1 0x40 DUP5 KECCAK256 PUSH1 0xFF PUSH1 0xC DUP3 ADD SLOAD AND PUSH1 0x5 DUP2 LT ISZERO PUSH2 0xD19 JUMPI PUSH2 0xC4F SWAP2 PUSH2 0xC46 PUSH1 0x2 PUSH1 0xD SWAP4 EQ PUSH2 0x480C JUMP JUMPDEST ADD SLOAD ISZERO ISZERO PUSH2 0x484B JUMP JUMPDEST DUP1 DUP5 MSTORE PUSH1 0x3 DUP4 MSTORE PUSH1 0x40 DUP5 KECCAK256 PUSH1 0x1 DUP1 PUSH1 0xA0 SHL SUB SWAP1 DUP2 DUP5 AND PUSH1 0x0 MSTORE DUP5 MSTORE PUSH2 0xC7B PUSH1 0xFF PUSH1 0x40 PUSH1 0x0 KECCAK256 SLOAD AND PUSH2 0x4887 JUMP JUMPDEST PUSH1 0xC SLOAD AND DUP4 PUSH1 0x40 MLOAD DUP1 SWAP3 PUSH4 0x7C7A72D PUSH1 0xE0 SHL DUP3 MSTORE DUP2 DUP1 PUSH2 0xC9F DUP9 DUP9 PUSH1 0x4 DUP5 ADD PUSH2 0x48C2 JUMP JUMPDEST SUB SWAP2 GAS STATICCALL SWAP5 DUP6 ISZERO PUSH2 0xD0D JUMPI DUP1 SWAP6 PUSH2 0xCCE JUMPI JUMPDEST POP POP PUSH2 0xCC1 PUSH2 0xCC6 SWAP4 SWAP5 ISZERO PUSH2 0x48DB JUMP JUMPDEST PUSH2 0x4936 JUMP JUMPDEST PUSH1 0x40 MLOAD SWAP1 DUP2 MSTORE RETURN JUMPDEST SWAP1 SWAP5 POP DUP4 DUP6 DUP2 RETURNDATASIZE DUP4 GT PUSH2 0xD06 JUMPI JUMPDEST PUSH2 0xCE6 DUP2 DUP4 PUSH2 0x3EC2 JUMP JUMPDEST DUP2 ADD SUB SLT PUSH2 0x296 JUMPI POP PUSH2 0xCC1 PUSH2 0xCFF PUSH2 0xCC6 SWAP5 SWAP6 PUSH2 0x4084 JUMP JUMPDEST SWAP5 SWAP4 PUSH2 0xCB1 JUMP JUMPDEST POP RETURNDATASIZE PUSH2 0xCDC JUMP JUMPDEST PUSH1 0x40 MLOAD SWAP1 RETURNDATASIZE SWAP1 DUP3 RETURNDATACOPY RETURNDATASIZE SWAP1 REVERT JUMPDEST PUSH4 0x4E487B71 PUSH1 0xE0 SHL DUP7 MSTORE PUSH1 0x21 PUSH1 0x4 MSTORE PUSH1 0x24 DUP7 REVERT JUMPDEST POP CALLVALUE PUSH2 0x296 JUMPI PUSH1 0x40 CALLDATASIZE PUSH1 0x3 NOT ADD SLT PUSH2 0x296 JUMPI PUSH2 0xD76 SWAP1 PUSH1 0x20 PUSH2 0xD4D PUSH2 0x3DB3 JUMP JUMPDEST PUSH1 0x1 DUP1 PUSH1 0xA0 SHL SUB PUSH1 0xC SLOAD AND PUSH1 0x40 MLOAD DUP1 DUP1 SWAP7 DUP2 SWAP5 PUSH4 0x3D1E7BA1 PUSH1 0xE1 SHL DUP4 MSTORE PUSH1 0x4 CALLDATALOAD PUSH1 0x4 DUP5 ADD PUSH2 0x48C2 JUMP JUMPDEST SUB SWAP2 GAS STATICCALL SWAP1 DUP2 ISZERO PUSH2 0xD0D JUMPI SWAP1 PUSH2 0xD92 JUMPI JUMPDEST PUSH1 0x20 SWAP1 PUSH1 0x40 MLOAD SWAP1 DUP2 MSTORE RETURN JUMPDEST POP PUSH1 0x20 DUP2 RETURNDATASIZE DUP3 GT PUSH2 0xDC1 JUMPI JUMPDEST DUP2 PUSH2 0xDAB PUSH1 0x20 SWAP4 DUP4 PUSH2 0x3EC2 JUMP JUMPDEST DUP2 ADD SUB SLT PUSH2 0xDBC JUMPI PUSH1 0x20 SWAP1 MLOAD PUSH2 0xD87 JUMP JUMPDEST PUSH1 0x0 DUP1 REVERT JUMPDEST RETURNDATASIZE SWAP2 POP PUSH2 0xD9E JUMP JUMPDEST POP CALLVALUE PUSH2 0x296 JUMPI PUSH1 0x20 CALLDATASIZE PUSH1 0x3 NOT ADD SLT PUSH2 0x296 JUMPI DUP1 PUSH1 0x40 SWAP2 PUSH2 0x260 DUP4 MLOAD PUSH2 0xDED DUP2 PUSH2 0x3E70 JUMP JUMPDEST DUP3 DUP2 MSTORE PUSH1 0x60 PUSH1 0x20 DUP3 ADD MSTORE DUP3 DUP6 DUP3 ADD MSTORE DUP3 PUSH1 0x60 DUP3 ADD MSTORE DUP3 PUSH1 0x80 DUP3 ADD MSTORE DUP3 PUSH1 0xA0 DUP3 ADD MSTORE DUP3 PUSH1 0xC0 DUP3 ADD MSTORE DUP3 PUSH1 0xE0 DUP3 ADD MSTORE DUP3 PUSH2 0x100 DUP3 ADD MSTORE DUP3 PUSH2 0x120 DUP3 ADD MSTORE DUP3 PUSH2 0x140 DUP3 ADD MSTORE DUP3 PUSH2 0x160 DUP3 ADD MSTORE DUP3 PUSH2 0x180 DUP3 ADD MSTORE DUP3 PUSH2 0x1A0 DUP3 ADD MSTORE DUP3 PUSH2 0x1C0 DUP3 ADD MSTORE DUP3 PUSH2 0x1E0 DUP3 ADD MSTORE DUP3 PUSH2 0x200 DUP3 ADD MSTORE DUP3 PUSH2 0x220 DUP3 ADD MSTORE DUP3 PUSH2 0x240 DUP3 ADD MSTORE ADD MSTORE PUSH1 0x4 CALLDATALOAD DUP2 MSTORE PUSH1 0x2 PUSH1 0x20 MSTORE KECCAK256 PUSH1 0x40 MLOAD SWAP1 PUSH2 0xE81 DUP3 PUSH2 0x3E70 JUMP JUMPDEST DUP1 SLOAD PUSH1 0x1 PUSH1 0x1 PUSH1 0xA0 SHL SUB AND DUP3 MSTORE PUSH2 0xE9A PUSH1 0x1 DUP3 ADD PUSH2 0x3F3A JUMP JUMPDEST PUSH1 0x20 DUP4 ADD MSTORE PUSH1 0xFF PUSH1 0x2 DUP3 ADD SLOAD AND ISZERO ISZERO PUSH1 0x40 DUP4 ADD MSTORE PUSH1 0x3 DUP2 ADD SLOAD PUSH1 0x60 DUP4 ADD MSTORE PUSH1 0x1 DUP1 PUSH1 0xA0 SHL SUB PUSH1 0x4 DUP3 ADD SLOAD AND PUSH1 0x80 DUP4 ADD MSTORE PUSH1 0x5 DUP2 ADD SLOAD PUSH1 0xA0 DUP4 ADD MSTORE PUSH1 0x6 DUP2 ADD SLOAD PUSH1 0xC0 DUP4 ADD MSTORE PUSH1 0x7 DUP2 ADD SLOAD PUSH1 0xE0 DUP4 ADD MSTORE PUSH1 0x8 DUP2 ADD SLOAD PUSH2 0x100 DUP4 ADD MSTORE PUSH1 0x9 DUP2 ADD SLOAD PUSH2 0x120 DUP4 ADD MSTORE PUSH1 0xA DUP2 ADD SLOAD PUSH2 0x140 DUP4 ADD MSTORE PUSH1 0xB DUP2 ADD SLOAD PUSH2 0x160 DUP4 ADD MSTORE PUSH1 0xFF PUSH1 0xC DUP3 ADD SLOAD AND PUSH1 0x5 DUP2 LT ISZERO PUSH2 0x10BA JUMPI PUSH1 0xFF SWAP2 PUSH1 0x11 SWAP2 PUSH2 0x180 DUP6 ADD MSTORE PUSH1 0xD DUP2 ADD SLOAD PUSH2 0x1A0 DUP6 ADD MSTORE PUSH1 0xE DUP2 ADD SLOAD DUP4 DUP2 AND ISZERO ISZERO PUSH2 0x1C0 DUP7 ADD MSTORE PUSH2 0xF5F DUP5 DUP3 PUSH1 0x8 SHR AND PUSH2 0x1E0 DUP8 ADD PUSH2 0x4145 JUMP JUMPDEST PUSH1 0x1 DUP1 PUSH1 0xA0 SHL SUB SWAP1 PUSH1 0x10 SHR AND PUSH2 0x200 DUP6 ADD MSTORE PUSH1 0xF DUP2 ADD SLOAD PUSH2 0x220 DUP6 ADD MSTORE PUSH1 0x10 DUP2 ADD SLOAD PUSH2 0x240 DUP6 ADD MSTORE ADD SLOAD AND ISZERO ISZERO PUSH2 0x260 DUP3 ADD MSTORE PUSH1 0x40 MLOAD DUP1 SWAP2 PUSH1 0x20 DUP3 MSTORE PUSH1 0x1 DUP1 PUSH1 0xA0 SHL SUB DUP2 MLOAD AND PUSH1 0x20 DUP4 ADD MSTORE PUSH2 0x260 PUSH2 0xFC8 PUSH1 0x20 DUP4 ADD MLOAD PUSH2 0x280 PUSH1 0x40 DUP7 ADD MSTORE PUSH2 0x2A0 DUP6 ADD SWAP1 PUSH2 0x4003 JUMP JUMPDEST SWAP2 PUSH1 0x40 DUP2 ADD MLOAD ISZERO ISZERO PUSH1 0x60 DUP6 ADD MSTORE PUSH1 0x60 DUP2 ADD MLOAD PUSH1 0x80 DUP6 ADD MSTORE PUSH1 0x1 DUP1 PUSH1 0xA0 SHL SUB PUSH1 0x80 DUP3 ADD MLOAD AND PUSH1 0xA0 DUP6 ADD MSTORE PUSH1 0xA0 DUP2 ADD MLOAD PUSH1 0xC0 DUP6 ADD MSTORE PUSH1 0xC0 DUP2 ADD MLOAD PUSH1 0xE0 DUP6 ADD MSTORE PUSH1 0xE0 DUP2 ADD MLOAD PUSH2 0x100 DUP6 ADD MSTORE PUSH2 0x100 DUP2 ADD MLOAD PUSH2 0x120 DUP6 ADD MSTORE PUSH2 0x120 DUP2 ADD MLOAD PUSH2 0x140 DUP6 ADD MSTORE PUSH2 0x140 DUP2 ADD MLOAD PUSH2 0x160 DUP6 ADD MSTORE PUSH2 0x160 DUP2 ADD MLOAD PUSH2 0x180 DUP6 ADD MSTORE PUSH2 0x1054 PUSH2 0x180 DUP3 ADD MLOAD PUSH2 0x1A0 DUP7 ADD SWAP1 PUSH2 0x4028 JUMP JUMPDEST PUSH2 0x1A0 DUP2 ADD MLOAD PUSH2 0x1C0 DUP6 ADD MSTORE PUSH2 0x1C0 DUP2 ADD MLOAD ISZERO ISZERO PUSH2 0x1E0 DUP6 ADD MSTORE PUSH2 0x1082 PUSH2 0x1E0 DUP3 ADD MLOAD PUSH2 0x200 DUP7 ADD SWAP1 PUSH2 0x4035 JUMP JUMPDEST PUSH1 0x1 DUP1 PUSH1 0xA0 SHL SUB PUSH2 0x200 DUP3 ADD MLOAD AND PUSH2 0x220 DUP6 ADD MSTORE PUSH2 0x220 DUP2 ADD MLOAD PUSH2 0x240 DUP6 ADD MSTORE PUSH2 0x240 DUP2 ADD MLOAD DUP3 DUP6 ADD MSTORE ADD MLOAD ISZERO ISZERO PUSH2 0x280 DUP4 ADD MSTORE SUB SWAP1 RETURN JUMPDEST PUSH4 0x4E487B71 PUSH1 0xE0 SHL PUSH1 0x0 MSTORE PUSH1 0x21 PUSH1 0x4 MSTORE PUSH1 0x24 PUSH1 0x0 REVERT JUMPDEST POP CALLVALUE PUSH2 0x296 JUMPI PUSH1 0x20 DUP1 PUSH1 0x3 NOT CALLDATASIZE ADD SLT PUSH2 0x42E JUMPI PUSH1 0x4 CALLDATALOAD SWAP1 PUSH2 0x10FC PUSH1 0x1 DUP1 PUSH1 0xA0 SHL SUB PUSH1 0xD SLOAD AND CALLER EQ PUSH2 0x55E1 JUMP JUMPDEST DUP2 DUP4 MSTORE PUSH1 0x2 DUP2 MSTORE PUSH1 0xFF PUSH1 0xC PUSH1 0x40 DUP6 KECCAK256 ADD SLOAD AND PUSH1 0x5 DUP2 LT ISZERO PUSH2 0x3B4 JUMPI PUSH1 0x0 DUP1 MLOAD PUSH1 0x20 PUSH2 0x5626 DUP4 CODECOPY DUP2 MLOAD SWAP2 MSTORE SWAP2 PUSH2 0x1135 PUSH1 0x2 PUSH1 0x60 SWAP4 EQ PUSH2 0x480C JUMP JUMPDEST DUP4 DUP6 MSTORE PUSH1 0x2 DUP2 MSTORE DUP5 PUSH1 0x11 PUSH1 0x40 DUP3 KECCAK256 DUP3 DUP2 SSTORE DUP3 PUSH1 0x1 DUP3 ADD PUSH2 0x1155 DUP2 SLOAD PUSH2 0x3F00 JUMP JUMPDEST DUP1 PUSH2 0x1211 JUMPI JUMPDEST POP POP PUSH1 0x2 DUP3 ADD SSTORE PUSH1 0x0 PUSH1 0x3 DUP3 ADD SSTORE DUP3 PUSH1 0x4 DUP3 ADD SSTORE PUSH1 0x0 PUSH1 0x5 DUP3 ADD SSTORE PUSH1 0x0 PUSH1 0x6 DUP3 ADD SSTORE PUSH1 0x0 PUSH1 0x7 DUP3 ADD SSTORE PUSH1 0x0 PUSH1 0x8 DUP3 ADD SSTORE PUSH1 0x0 PUSH1 0x9 DUP3 ADD SSTORE PUSH1 0x0 PUSH1 0xA DUP3 ADD SSTORE PUSH1 0x0 PUSH1 0xB DUP3 ADD SSTORE DUP3 PUSH1 0xC DUP3 ADD SSTORE PUSH1 0x0 PUSH1 0xD DUP3 ADD SSTORE DUP3 PUSH1 0xE DUP3 ADD SSTORE PUSH1 0x0 PUSH1 0xF DUP3 ADD SSTORE PUSH1 0x0 PUSH1 0x10 DUP3 ADD SSTORE ADD SSTORE DUP4 DUP6 MSTORE PUSH1 0xB DUP2 MSTORE PUSH1 0xFF PUSH1 0x40 DUP7 KECCAK256 SLOAD AND PUSH2 0x1203 JUMPI JUMPDEST PUSH1 0x13 PUSH1 0x40 MLOAD SWAP2 DUP1 DUP4 MSTORE DUP3 ADD MSTORE PUSH19 0x14195C9B585B995B9D1B1E481C995B5BDD9959 PUSH1 0x6A SHL PUSH1 0x40 DUP3 ADD MSTORE LOG2 DUP1 RETURN JUMPDEST PUSH2 0x120C DUP5 PUSH2 0x54E7 JUMP JUMPDEST PUSH2 0x11D7 JUMP JUMPDEST PUSH1 0x1F DUP2 GT PUSH1 0x1 EQ PUSH2 0x122B JUMPI POP PUSH1 0x0 SWAP2 POP SSTORE JUMPDEST DUP3 CODESIZE DUP1 PUSH2 0x115B JUMP JUMPDEST SWAP1 DUP1 PUSH1 0x0 SWAP2 DUP5 MSTORE PUSH2 0x124A PUSH1 0x1F DUP10 DUP7 KECCAK256 SWAP5 ADD PUSH1 0x5 SHR DUP5 ADD PUSH1 0x1 DUP6 ADD PUSH2 0x4151 JUMP JUMPDEST SSTORE SSTORE PUSH2 0x1223 JUMP JUMPDEST POP CALLVALUE PUSH2 0x296 JUMPI PUSH1 0x60 CALLDATASIZE PUSH1 0x3 NOT ADD SLT PUSH2 0x296 JUMPI PUSH1 0x44 CALLDATALOAD SWAP1 PUSH1 0x1 PUSH1 0x1 PUSH1 0xA0 SHL SUB DUP1 DUP4 AND DUP4 SUB PUSH2 0xDBC JUMPI PUSH2 0xD76 SWAP3 PUSH1 0x20 SWAP2 PUSH1 0xC SLOAD AND PUSH1 0x40 MLOAD DUP1 DUP1 SWAP7 DUP2 SWAP5 PUSH4 0xDC4CE349 PUSH1 0xE0 SHL DUP4 MSTORE PUSH1 0x24 CALLDATALOAD PUSH1 0x4 CALLDATALOAD PUSH1 0x4 DUP6 ADD PUSH2 0x4915 JUMP JUMPDEST POP CALLVALUE PUSH2 0x296 JUMPI PUSH1 0x40 CALLDATASIZE PUSH1 0x3 NOT ADD SLT PUSH2 0x296 JUMPI PUSH1 0x40 PUSH2 0x12C0 PUSH2 0x3DB3 JUMP JUMPDEST SWAP2 PUSH1 0x4 CALLDATALOAD DUP2 MSTORE PUSH1 0x5 PUSH1 0x20 MSTORE KECCAK256 SWAP1 PUSH1 0x1 DUP1 PUSH1 0xA0 SHL SUB AND PUSH1 0x0 MSTORE PUSH1 0x20 MSTORE PUSH1 0x20 PUSH1 0x40 PUSH1 0x0 KECCAK256 SLOAD PUSH1 0x40 MLOAD SWAP1 DUP2 MSTORE RETURN JUMPDEST POP CALLVALUE PUSH2 0x296 JUMPI PUSH2 0x12FA CALLDATASIZE PUSH2 0x4042 JUMP JUMPDEST SWAP2 SWAP1 DUP2 MSTORE PUSH1 0x6 PUSH1 0x20 MSTORE PUSH1 0x40 DUP2 KECCAK256 SWAP1 DUP2 SLOAD DUP4 LT ISZERO PUSH2 0x296 JUMPI PUSH1 0x20 PUSH2 0x131D DUP5 DUP5 PUSH2 0x3E45 JUMP JUMPDEST SWAP1 SLOAD PUSH1 0x40 MLOAD PUSH1 0x3 SWAP3 SWAP1 SWAP3 SHL SHR PUSH1 0x1 PUSH1 0x1 PUSH1 0xA0 SHL SUB AND DUP2 MSTORE RETURN JUMPDEST POP CALLVALUE PUSH2 0x296 JUMPI DUP1 PUSH1 0x3 NOT CALLDATASIZE ADD SLT PUSH2 0x296 JUMPI PUSH1 0x20 PUSH1 0x40 MLOAD PUSH2 0x15E DUP2 MSTORE RETURN JUMPDEST POP CALLVALUE PUSH2 0x296 JUMPI PUSH1 0x20 CALLDATASIZE PUSH1 0x3 NOT ADD SLT PUSH2 0x296 JUMPI PUSH1 0x4 CALLDATALOAD DUP1 DUP3 MSTORE PUSH1 0x2 PUSH1 0x20 MSTORE PUSH1 0x40 DUP3 KECCAK256 DUP1 SLOAD PUSH1 0x1 PUSH1 0x1 PUSH1 0xA0 SHL SUB AND CALLER SUB PUSH2 0x1437 JUMPI PUSH1 0xFF PUSH1 0xC DUP3 ADD SLOAD AND PUSH1 0x5 DUP2 LT ISZERO PUSH2 0x3B4 JUMPI SWAP1 PUSH2 0x13A3 PUSH1 0x9 SWAP3 ISZERO PUSH2 0x433B JUMP JUMPDEST ADD SLOAD PUSH2 0xA8BF NOT DUP2 ADD SWAP1 DUP2 GT PUSH2 0x1423 JUMPI TIMESTAMP LT ISZERO PUSH2 0x13EF JUMPI PUSH1 0x40 MLOAD PUSH2 0x13EC SWAP2 PUSH2 0x13C9 DUP3 PUSH2 0x3EA7 JUMP JUMPDEST PUSH1 0x11 DUP3 MSTORE PUSH17 0x10DC99585D1BDC8818D85B98D95B1B1959 PUSH1 0x7A SHL PUSH1 0x20 DUP4 ADD MSTORE PUSH2 0x50CD JUMP JUMPDEST DUP1 RETURN JUMPDEST PUSH1 0x40 MLOAD PUSH3 0x461BCD PUSH1 0xE5 SHL DUP2 MSTORE PUSH1 0x20 PUSH1 0x4 DUP3 ADD MSTORE PUSH1 0xC PUSH1 0x24 DUP3 ADD MSTORE PUSH12 0x45503A20746F6F206C617465 PUSH1 0xA0 SHL PUSH1 0x44 DUP3 ADD MSTORE PUSH1 0x64 SWAP1 REVERT JUMPDEST PUSH4 0x4E487B71 PUSH1 0xE0 SHL DUP4 MSTORE PUSH1 0x11 PUSH1 0x4 MSTORE PUSH1 0x24 DUP4 REVERT JUMPDEST PUSH1 0x40 MLOAD PUSH3 0x461BCD PUSH1 0xE5 SHL DUP2 MSTORE PUSH1 0x20 PUSH1 0x4 DUP3 ADD MSTORE PUSH1 0xF PUSH1 0x24 DUP3 ADD MSTORE PUSH15 0x22A81D103737BA1031B932B0BA37B9 PUSH1 0x89 SHL PUSH1 0x44 DUP3 ADD MSTORE PUSH1 0x64 SWAP1 REVERT JUMPDEST POP CALLVALUE PUSH2 0x296 JUMPI PUSH2 0x147D CALLDATASIZE PUSH2 0x4042 JUMP JUMPDEST SWAP2 SWAP1 DUP2 MSTORE PUSH1 0x7 PUSH1 0x20 MSTORE PUSH1 0x40 DUP2 KECCAK256 SWAP1 DUP2 SLOAD DUP4 LT ISZERO PUSH2 0x296 JUMPI PUSH1 0x20 PUSH2 0x131D DUP5 DUP5 PUSH2 0x3E45 JUMP JUMPDEST POP CALLVALUE PUSH2 0x296 JUMPI PUSH1 0x20 CALLDATASIZE PUSH1 0x3 NOT ADD SLT PUSH2 0x296 JUMPI PUSH2 0x14BA PUSH2 0x3DC9 JUMP JUMPDEST PUSH2 0x14C2 PUSH2 0x4058 JUMP JUMPDEST PUSH1 0x1 PUSH1 0x1 PUSH1 0xA0 SHL SUB AND PUSH2 0x14D6 DUP2 ISZERO ISZERO PUSH2 0x55A2 JUMP JUMPDEST PUSH1 0xE DUP1 SLOAD PUSH1 0x1 PUSH1 0x1 PUSH1 0xA0 SHL SUB NOT AND SWAP2 SWAP1 SWAP2 OR SWAP1 SSTORE DUP1 RETURN JUMPDEST POP CALLVALUE PUSH2 0x296 JUMPI PUSH1 0x20 CALLDATASIZE PUSH1 0x3 NOT ADD SLT PUSH2 0x296 JUMPI PUSH2 0x1507 PUSH2 0x3DC9 JUMP JUMPDEST PUSH2 0x150F PUSH2 0x4058 JUMP JUMPDEST PUSH1 0x1 PUSH1 0x1 PUSH1 0xA0 SHL SUB AND PUSH2 0x1523 DUP2 ISZERO ISZERO PUSH2 0x55A2 JUMP JUMPDEST PUSH1 0xD DUP1 SLOAD PUSH1 0x1 PUSH1 0x1 PUSH1 0xA0 SHL SUB NOT AND SWAP2 SWAP1 SWAP2 OR SWAP1 SSTORE DUP1 RETURN JUMPDEST POP CALLVALUE PUSH2 0x296 JUMPI PUSH1 0x20 CALLDATASIZE PUSH1 0x3 NOT ADD SLT PUSH2 0x296 JUMPI PUSH1 0x4 CALLDATALOAD DUP2 MSTORE PUSH1 0x2 PUSH1 0x20 MSTORE PUSH1 0x40 SWAP1 KECCAK256 DUP1 SLOAD PUSH1 0x1 PUSH1 0x1 PUSH1 0xA0 SHL SUB AND SWAP1 PUSH2 0x1572 PUSH1 0x1 DUP3 ADD PUSH2 0x3F3A JUMP JUMPDEST PUSH1 0xC0 MSTORE PUSH1 0x2 DUP2 ADD SLOAD PUSH1 0xFF AND PUSH1 0x80 MSTORE PUSH1 0x3 DUP2 ADD SLOAD PUSH1 0xE0 MSTORE PUSH1 0x1 PUSH1 0xA0 SHL PUSH1 0x1 SWAP1 SUB PUSH1 0x4 DUP3 ADD SLOAD AND SWAP2 PUSH1 0x5 DUP3 ADD SLOAD PUSH1 0x6 DUP4 ADD SLOAD PUSH1 0x7 DUP5 ADD SLOAD PUSH1 0x8 DUP6 ADD SLOAD PUSH1 0x9 DUP7 ADD SLOAD PUSH1 0xA DUP8 ADD SLOAD SWAP1 PUSH1 0xB DUP9 ADD SLOAD SWAP3 PUSH1 0xC DUP10 ADD SLOAD PUSH1 0xFF AND SWAP5 PUSH1 0xD DUP11 ADD SLOAD SWAP7 PUSH1 0xE DUP12 ADD SLOAD SWAP9 PUSH1 0xF DUP13 ADD SLOAD SWAP11 PUSH1 0x10 DUP14 ADD SLOAD SWAP13 PUSH1 0x11 ADD SLOAD PUSH1 0xFF AND PUSH2 0x100 MSTORE PUSH1 0x40 MLOAD DUP1 PUSH1 0xA0 MSTORE MSTORE PUSH2 0x280 DUP1 PUSH1 0xA0 MLOAD PUSH1 0x20 ADD MSTORE PUSH1 0xA0 MLOAD ADD PUSH1 0xC0 MLOAD SWAP1 PUSH2 0x160D SWAP2 PUSH2 0x4003 JUMP JUMPDEST SWAP13 PUSH1 0x80 MLOAD ISZERO ISZERO PUSH1 0xA0 MLOAD PUSH1 0x40 ADD MSTORE PUSH1 0xE0 MLOAD PUSH1 0xA0 MLOAD PUSH1 0x60 ADD MSTORE PUSH1 0xA0 MLOAD PUSH1 0x80 ADD MSTORE PUSH1 0xA0 MLOAD PUSH1 0xA0 ADD MSTORE PUSH1 0xA0 MLOAD PUSH1 0xC0 ADD MSTORE PUSH1 0xA0 MLOAD PUSH1 0xE0 ADD MSTORE PUSH1 0xA0 MLOAD PUSH2 0x100 ADD MSTORE PUSH1 0xA0 MLOAD PUSH2 0x120 ADD MSTORE PUSH1 0xA0 MLOAD PUSH2 0x140 ADD MSTORE PUSH1 0xA0 MLOAD PUSH2 0x160 ADD MSTORE PUSH1 0xA0 MLOAD PUSH2 0x180 ADD PUSH2 0x1670 SWAP2 PUSH2 0x4028 JUMP JUMPDEST PUSH1 0xA0 MLOAD PUSH2 0x1A0 ADD MSTORE PUSH1 0xFF DUP2 AND ISZERO ISZERO PUSH1 0xA0 MLOAD PUSH2 0x1C0 ADD MSTORE PUSH1 0xA0 MLOAD PUSH2 0x1E0 ADD DUP2 PUSH1 0x8 SHR PUSH1 0xFF AND SWAP1 PUSH2 0x169E SWAP2 PUSH2 0x4035 JUMP JUMPDEST PUSH1 0x1 PUSH1 0xA0 SHL PUSH1 0x1 SWAP1 SUB SWAP1 PUSH1 0x10 SHR AND PUSH1 0xA0 MLOAD PUSH2 0x200 ADD MSTORE PUSH1 0xA0 MLOAD PUSH2 0x220 ADD MSTORE PUSH1 0xA0 MLOAD PUSH2 0x240 ADD MSTORE PUSH2 0x100 MLOAD ISZERO ISZERO PUSH1 0xA0 MLOAD PUSH2 0x260 ADD MSTORE PUSH1 0xA0 MLOAD DUP1 SWAP2 SUB SWAP1 RETURN JUMPDEST POP CALLVALUE PUSH2 0x296 JUMPI PUSH1 0x20 CALLDATASIZE PUSH1 0x3 NOT ADD SLT PUSH2 0x296 JUMPI PUSH2 0x16F5 PUSH2 0x3DC9 JUMP JUMPDEST PUSH2 0x16FD PUSH2 0x4058 JUMP JUMPDEST PUSH1 0x1 PUSH1 0x1 PUSH1 0xA0 SHL SUB AND PUSH2 0x1711 DUP2 ISZERO ISZERO PUSH2 0x55A2 JUMP JUMPDEST PUSH1 0xF DUP1 SLOAD PUSH1 0x1 PUSH1 0x1 PUSH1 0xA0 SHL SUB NOT AND SWAP2 SWAP1 SWAP2 OR SWAP1 SSTORE DUP1 RETURN JUMPDEST POP CALLVALUE PUSH2 0x296 JUMPI PUSH1 0x20 CALLDATASIZE PUSH1 0x3 NOT ADD SLT PUSH2 0x296 JUMPI PUSH1 0x40 PUSH1 0x20 SWAP2 PUSH1 0x4 CALLDATALOAD DUP2 MSTORE PUSH1 0x7 DUP4 MSTORE KECCAK256 SLOAD PUSH1 0x40 MLOAD SWAP1 DUP2 MSTORE RETURN JUMPDEST POP CALLVALUE PUSH2 0x296 JUMPI DUP1 PUSH1 0x3 NOT CALLDATASIZE ADD SLT PUSH2 0x296 JUMPI PUSH1 0xD SLOAD PUSH1 0x40 MLOAD PUSH1 0x1 PUSH1 0x1 PUSH1 0xA0 SHL SUB SWAP1 SWAP2 AND DUP2 MSTORE PUSH1 0x20 SWAP1 RETURN JUMPDEST POP CALLVALUE PUSH2 0x296 JUMPI PUSH1 0x20 DUP1 PUSH1 0x3 NOT CALLDATASIZE ADD SLT PUSH2 0x42E JUMPI PUSH1 0x4 CALLDATALOAD SWAP1 DUP2 DUP4 MSTORE PUSH1 0x2 DUP2 MSTORE PUSH1 0x40 DUP4 KECCAK256 SWAP1 PUSH1 0xE DUP3 ADD SWAP2 DUP3 SLOAD PUSH1 0xFF DUP2 PUSH1 0x8 SHR AND PUSH1 0x2 DUP2 LT ISZERO PUSH2 0x580 JUMPI PUSH2 0x1946 JUMPI PUSH1 0xC DUP3 ADD SWAP1 DUP2 SLOAD PUSH1 0xFF DUP2 AND PUSH1 0x5 DUP2 LT ISZERO PUSH2 0x1932 JUMPI PUSH1 0x1 PUSH2 0x17D9 SWAP2 EQ PUSH2 0x44E7 JUMP JUMPDEST PUSH2 0x17E6 PUSH1 0xFF DUP4 AND ISZERO PUSH2 0x4523 JUMP JUMPDEST PUSH1 0xB DUP5 ADD SLOAD TIMESTAMP LT PUSH2 0x18FD JUMPI PUSH1 0x40 MLOAD PUSH4 0x3FABE5A3 PUSH1 0xE2 SHL DUP2 MSTORE PUSH1 0xA0 DUP2 PUSH1 0x4 DUP2 PUSH1 0x10 DUP8 SWAP1 SHR PUSH1 0x1 PUSH1 0x1 PUSH1 0xA0 SHL SUB AND GAS STATICCALL SWAP1 DUP2 ISZERO PUSH2 0x18F2 JUMPI DUP10 SWAP2 PUSH2 0x188A JUMPI JUMPDEST POP PUSH1 0xF DUP6 ADD SLOAD PUSH1 0x0 DUP1 MLOAD PUSH1 0x20 PUSH2 0x5666 DUP4 CODECOPY DUP2 MLOAD SWAP2 MSTORE SWAP8 PUSH1 0x2 SWAP5 SWAP4 SWAP3 SWAP1 SWAP2 GT PUSH2 0x187F JUMPI PUSH1 0xFF PUSH1 0xD PUSH1 0x1 SWAP8 JUMPDEST ADD SWAP7 AND DUP7 SSTORE PUSH1 0x1 PUSH1 0xFF NOT DUP1 SWAP5 AND OR SWAP1 SSTORE AND OR SWAP1 SSTORE PUSH2 0x1869 DUP5 PUSH2 0x4C05 JUMP JUMPDEST PUSH2 0x1874 DUP2 SLOAD DUP6 PUSH2 0x5446 JUMP JUMPDEST SLOAD PUSH1 0x40 MLOAD SWAP1 DUP2 MSTORE LOG2 DUP1 RETURN JUMPDEST PUSH1 0xFF PUSH1 0xD DUP6 SWAP8 PUSH2 0x184C JUMP JUMPDEST SWAP3 SWAP2 SWAP1 POP PUSH1 0xA0 DUP4 RETURNDATASIZE DUP3 GT PUSH2 0x18EA JUMPI JUMPDEST DUP2 PUSH2 0x18A6 PUSH1 0xA0 SWAP4 DUP4 PUSH2 0x3EC2 JUMP JUMPDEST DUP2 ADD SUB SLT PUSH2 0x18E6 JUMPI PUSH1 0x0 DUP1 MLOAD PUSH1 0x20 PUSH2 0x5666 DUP4 CODECOPY DUP2 MLOAD SWAP2 MSTORE SWAP7 DUP4 PUSH2 0x18CA PUSH1 0x2 SWAP6 PUSH2 0x4566 JUMP JUMPDEST POP PUSH2 0x18DB PUSH1 0x80 DUP10 DUP4 ADD MLOAD SWAP3 ADD PUSH2 0x4566 JUMP JUMPDEST POP SWAP2 SWAP3 SWAP4 POP SWAP7 PUSH2 0x1822 JUMP JUMPDEST DUP9 DUP1 REVERT JUMPDEST RETURNDATASIZE SWAP2 POP PUSH2 0x1899 JUMP JUMPDEST PUSH1 0x40 MLOAD RETURNDATASIZE DUP12 DUP3 RETURNDATACOPY RETURNDATASIZE SWAP1 REVERT JUMPDEST PUSH1 0x40 MLOAD PUSH3 0x461BCD PUSH1 0xE5 SHL DUP2 MSTORE PUSH1 0x4 DUP2 ADD DUP7 SWAP1 MSTORE PUSH1 0xD PUSH1 0x24 DUP3 ADD MSTORE PUSH13 0x45503A20746F6F206561726C79 PUSH1 0x98 SHL PUSH1 0x44 DUP3 ADD MSTORE PUSH1 0x64 SWAP1 REVERT JUMPDEST PUSH4 0x4E487B71 PUSH1 0xE0 SHL DUP10 MSTORE PUSH1 0x21 PUSH1 0x4 MSTORE PUSH1 0x24 DUP10 REVERT JUMPDEST PUSH1 0x40 MLOAD PUSH3 0x461BCD PUSH1 0xE5 SHL DUP2 MSTORE PUSH1 0x4 DUP2 ADD DUP5 SWAP1 MSTORE PUSH1 0x12 PUSH1 0x24 DUP3 ADD MSTORE PUSH18 0x11540E881B9BDD0814149250D157D1915151 PUSH1 0x72 SHL PUSH1 0x44 DUP3 ADD MSTORE PUSH1 0x64 SWAP1 REVERT JUMPDEST POP CALLVALUE PUSH2 0x296 JUMPI PUSH1 0x40 CALLDATASIZE PUSH1 0x3 NOT ADD SLT PUSH2 0x296 JUMPI PUSH2 0x199A PUSH2 0x3DC9 JUMP JUMPDEST PUSH1 0x1 PUSH1 0x1 PUSH1 0xA0 SHL SUB AND DUP2 MSTORE PUSH1 0x8 PUSH1 0x20 MSTORE PUSH1 0x40 DUP2 KECCAK256 DUP1 SLOAD PUSH1 0x24 CALLDATALOAD SWAP3 SWAP1 DUP4 LT ISZERO PUSH2 0x296 JUMPI PUSH1 0x20 PUSH2 0x19C8 DUP5 DUP5 PUSH2 0x3E45 JUMP JUMPDEST SWAP1 SLOAD PUSH1 0x40 MLOAD SWAP2 PUSH1 0x3 SHL SHR DUP2 MSTORE RETURN JUMPDEST POP CALLVALUE PUSH2 0x296 JUMPI DUP1 PUSH1 0x3 NOT CALLDATASIZE ADD SLT PUSH2 0x296 JUMPI PUSH1 0x20 PUSH1 0x1 SLOAD PUSH1 0x40 MLOAD SWAP1 DUP2 MSTORE RETURN JUMPDEST POP CALLVALUE PUSH2 0x296 JUMPI DUP1 PUSH1 0x3 NOT CALLDATASIZE ADD SLT PUSH2 0x296 JUMPI SLOAD PUSH1 0x40 MLOAD PUSH1 0x1 PUSH1 0x1 PUSH1 0xA0 SHL SUB SWAP1 SWAP2 AND DUP2 MSTORE PUSH1 0x20 SWAP1 RETURN JUMPDEST POP CALLVALUE PUSH2 0x296 JUMPI PUSH1 0x60 CALLDATASIZE PUSH1 0x3 NOT ADD SLT PUSH2 0x296 JUMPI PUSH1 0x44 CALLDATALOAD PUSH1 0x4 CALLDATALOAD PUSH1 0x24 DUP1 CALLDATALOAD SWAP1 PUSH1 0x1 PUSH1 0x1 PUSH1 0x40 SHL SUB DUP1 DUP6 GT PUSH2 0x5C3 JUMPI CALLDATASIZE PUSH1 0x23 DUP7 ADD SLT ISZERO PUSH2 0x5C3 JUMPI DUP5 PUSH1 0x4 ADD CALLDATALOAD SWAP1 DUP2 GT PUSH2 0x5C3 JUMPI CALLDATASIZE DUP3 DUP3 DUP8 ADD ADD GT PUSH2 0x5C3 JUMPI DUP4 DUP7 MSTORE PUSH1 0x20 SWAP5 PUSH1 0x2 DUP7 MSTORE PUSH1 0x40 DUP8 KECCAK256 SWAP3 PUSH1 0xE DUP5 ADD SLOAD PUSH1 0xFF DUP2 PUSH1 0x8 SHR AND PUSH1 0x2 DUP2 LT ISZERO PUSH2 0x1CF8 JUMPI PUSH1 0x1 PUSH2 0x1A99 SWAP2 EQ PUSH2 0x457A JUMP JUMPDEST PUSH1 0xFF PUSH1 0xC DUP7 ADD SLOAD AND PUSH1 0x5 DUP2 LT ISZERO PUSH2 0x1CF8 JUMPI PUSH2 0x1AC3 SWAP2 PUSH2 0x1ABC PUSH1 0x1 PUSH1 0xFF SWAP4 EQ PUSH2 0x44E7 JUMP JUMPDEST AND ISZERO PUSH2 0x45BE JUMP JUMPDEST PUSH1 0x11 DUP5 ADD SWAP5 PUSH2 0x1AD6 PUSH1 0xFF DUP8 SLOAD AND ISZERO PUSH2 0x45F9 JUMP JUMPDEST DUP5 SLOAD PUSH1 0x1 PUSH1 0x1 PUSH1 0xA0 SHL SUB SWAP4 SWAP1 DUP5 AND CALLER EQ PUSH2 0x1CB8 JUMPI DUP10 DUP4 SWAP2 DUP4 ISZERO ISZERO DUP1 PUSH2 0x1CAA JUMPI JUMPDEST PUSH2 0x1AFF SWAP1 PUSH2 0x4378 JUMP JUMPDEST DUP6 PUSH1 0xE SLOAD AND SWAP6 PUSH2 0x1B10 DUP8 ISZERO ISZERO PUSH2 0x463C JUMP JUMPDEST DUP12 DUP2 PUSH1 0xF SLOAD AND SWAP8 PUSH2 0x1B22 DUP10 ISZERO ISZERO PUSH2 0x467D JUMP JUMPDEST PUSH1 0x40 MLOAD SWAP8 DUP9 DUP1 SWAP3 PUSH4 0x4360AF3D PUSH1 0xE0 SHL DUP3 MSTORE DUP12 PUSH1 0x4 DUP4 ADD MSTORE GAS STATICCALL DUP1 ISZERO PUSH2 0x1C9F JUMPI DUP13 SWAP8 DUP10 SWAP8 DUP6 SWAP3 PUSH2 0x1C61 JUMPI JUMPDEST POP DUP2 PUSH2 0x1B63 PUSH2 0x1BE4 SWAP5 SWAP4 PUSH2 0x1B73 SWAP4 ADDRESS SWAP1 CALLER SWAP1 PUSH2 0x4263 JUMP JUMPDEST DUP3 PUSH1 0xF SLOAD AND DUP4 PUSH1 0xE SLOAD AND SWAP1 PUSH2 0x46E0 JUMP JUMPDEST PUSH1 0x40 MLOAD SWAP6 DUP13 DUP10 DUP9 ADD MSTORE PUSH1 0x40 DUP8 ADD MSTORE PUSH1 0x40 DUP7 MSTORE PUSH2 0x1B8E DUP7 PUSH2 0x3E8C JUMP JUMPDEST PUSH1 0xE SLOAD AND SWAP5 PUSH1 0x84 DUP6 PUSH1 0x40 MLOAD SWAP11 DUP12 SWAP10 DUP11 SWAP9 DUP10 SWAP8 PUSH4 0xABDC5DCD PUSH1 0xE0 SHL DUP10 MSTORE PUSH1 0x60 PUSH1 0x4 DUP11 ADD MSTORE DUP3 PUSH1 0x64 DUP11 ADD MSTORE ADD DUP5 DUP9 ADD CALLDATACOPY DUP7 DUP4 DUP3 DUP9 ADD ADD MSTORE PUSH1 0x1F DUP1 NOT SWAP2 ADD AND DUP6 ADD SWAP1 CALLER SWAP1 DUP7 ADD MSTORE PUSH1 0x80 DUP6 DUP3 SUB ADD PUSH1 0x44 DUP7 ADD MSTORE ADD SWAP1 PUSH2 0x4003 JUMP JUMPDEST SUB SWAP3 GAS CALL SWAP5 DUP6 ISZERO PUSH2 0x5CE JUMPI DUP7 SWAP6 PUSH2 0x1C30 JUMPI JUMPDEST POP POP PUSH1 0x10 ADD DUP4 SWAP1 SSTORE DUP1 SLOAD PUSH1 0xFF NOT AND PUSH1 0x1 OR SWAP1 SSTORE PUSH32 0xC92F993487C6D961B60FF2A81386DFF5CC620CD4AED9CDDABE26500391655E82 DUP4 DUP1 LOG3 DUP1 RETURN JUMPDEST SWAP1 DUP1 SWAP6 POP DUP2 RETURNDATASIZE DUP4 GT PUSH2 0x1C5A JUMPI JUMPDEST PUSH2 0x1C47 DUP2 DUP4 PUSH2 0x3EC2 JUMP JUMPDEST DUP2 ADD SUB SLT PUSH2 0x866 JUMPI PUSH1 0x10 SWAP4 MLOAD SWAP4 CODESIZE PUSH2 0x1BF6 JUMP JUMPDEST POP RETURNDATASIZE PUSH2 0x1C3D JUMP JUMPDEST SWAP5 POP SWAP8 DUP1 SWAP3 SWAP8 POP DUP5 SWAP2 POP RETURNDATASIZE DUP4 GT PUSH2 0x1C98 JUMPI JUMPDEST PUSH2 0x1C7D DUP2 DUP4 PUSH2 0x3EC2 JUMP JUMPDEST DUP2 ADD SUB SLT PUSH2 0xDBC JUMPI SWAP1 MLOAD DUP11 SWAP6 DUP8 SWAP6 DUP14 SWAP4 SWAP3 SWAP1 SWAP2 PUSH2 0x1B73 PUSH2 0x1B4C JUMP JUMPDEST POP RETURNDATASIZE PUSH2 0x1C73 JUMP JUMPDEST PUSH1 0x40 MLOAD RETURNDATASIZE DUP6 DUP3 RETURNDATACOPY RETURNDATASIZE SWAP1 REVERT JUMPDEST POP PUSH1 0x3 DUP9 ADD SLOAD DUP5 GT ISZERO PUSH2 0x1AF6 JUMP JUMPDEST PUSH1 0x40 MLOAD PUSH3 0x461BCD PUSH1 0xE5 SHL DUP2 MSTORE PUSH1 0x4 DUP2 ADD DUP11 SWAP1 MSTORE PUSH1 0x19 DUP2 DUP6 ADD MSTORE PUSH25 0x11540E8818DC99585D1BDC8818D85B9B9BDD08185CDCD95C9D PUSH1 0x3A SHL PUSH1 0x44 DUP3 ADD MSTORE PUSH1 0x64 SWAP1 REVERT JUMPDEST PUSH4 0x4E487B71 PUSH1 0xE0 SHL DUP11 MSTORE PUSH1 0x21 PUSH1 0x4 MSTORE DUP3 DUP11 REVERT JUMPDEST POP CALLVALUE PUSH2 0x296 JUMPI PUSH1 0x20 CALLDATASIZE PUSH1 0x3 NOT ADD SLT PUSH2 0x296 JUMPI PUSH1 0x4 CALLDATALOAD DUP1 DUP3 MSTORE PUSH1 0x2 PUSH1 0x20 MSTORE PUSH1 0x40 DUP3 KECCAK256 PUSH1 0xFF PUSH1 0xE DUP3 ADD SLOAD PUSH1 0x8 SHR AND PUSH1 0x2 DUP2 LT ISZERO PUSH2 0x3B4 JUMPI PUSH1 0x1 PUSH2 0x1D4C SWAP2 EQ PUSH2 0x457A JUMP JUMPDEST PUSH1 0xFF PUSH1 0xC DUP3 ADD SLOAD AND PUSH1 0x5 DUP2 LT ISZERO PUSH2 0x3B4 JUMPI PUSH2 0x1D8B SWAP2 PUSH2 0x1D6F PUSH1 0x1 PUSH1 0xA SWAP4 EQ PUSH2 0x44E7 JUMP JUMPDEST PUSH2 0x1D80 PUSH1 0xFF PUSH1 0x11 DUP4 ADD SLOAD AND ISZERO PUSH2 0x45F9 JUMP JUMPDEST ADD SLOAD PUSH1 0x1 SLOAD SWAP1 PUSH2 0x4113 JUMP JUMPDEST TIMESTAMP LT PUSH2 0x1DE0 JUMPI PUSH1 0x40 MLOAD PUSH2 0x13EC SWAP2 PUSH2 0x1DA1 DUP3 PUSH2 0x3E8C JUMP JUMPDEST PUSH1 0x27 DUP3 MSTORE PUSH32 0x4E6F20617373657274696F6E206D61646520E2809420726566756E6473206176 PUSH1 0x20 DUP4 ADD MSTORE PUSH7 0x61696C61626C65 PUSH1 0xC8 SHL PUSH1 0x40 DUP4 ADD MSTORE PUSH2 0x50CD JUMP JUMPDEST PUSH1 0x40 MLOAD PUSH3 0x461BCD PUSH1 0xE5 SHL DUP2 MSTORE PUSH1 0x20 PUSH1 0x4 DUP3 ADD MSTORE PUSH1 0x17 PUSH1 0x24 DUP3 ADD MSTORE PUSH23 0x45503A20677261636520706572696F6420616374697665 PUSH1 0x48 SHL PUSH1 0x44 DUP3 ADD MSTORE PUSH1 0x64 SWAP1 REVERT JUMPDEST POP CALLVALUE PUSH2 0x296 JUMPI PUSH2 0xD76 SWAP1 PUSH1 0x20 PUSH2 0x1E34 CALLDATASIZE PUSH2 0x3DDF JUMP JUMPDEST PUSH1 0xC SLOAD PUSH1 0x40 MLOAD PUSH4 0x423E7BC1 PUSH1 0xE1 SHL DUP2 MSTORE SWAP7 DUP8 SWAP5 PUSH1 0x1 PUSH1 0x1 PUSH1 0xA0 SHL SUB SWAP1 SWAP3 AND SWAP4 DUP6 SWAP4 DUP5 SWAP4 SWAP1 SWAP2 SWAP1 PUSH1 0x4 DUP6 ADD PUSH2 0x44C7 JUMP JUMPDEST POP CALLVALUE PUSH2 0x296 JUMPI PUSH1 0x20 CALLDATASIZE PUSH1 0x3 NOT ADD SLT PUSH2 0x296 JUMPI PUSH1 0x4 CALLDATALOAD PUSH2 0x1E80 PUSH2 0x4058 JUMP JUMPDEST PUSH2 0xE10 DUP2 LT PUSH2 0x1E8F JUMPI PUSH1 0x1 SSTORE DUP1 RETURN JUMPDEST PUSH1 0x40 MLOAD PUSH3 0x461BCD PUSH1 0xE5 SHL DUP2 MSTORE PUSH1 0x20 PUSH1 0x4 DUP3 ADD MSTORE PUSH1 0xD PUSH1 0x24 DUP3 ADD MSTORE PUSH13 0x11540E881D1BDBC81CDA1BDC9D PUSH1 0x9A SHL PUSH1 0x44 DUP3 ADD MSTORE PUSH1 0x64 SWAP1 REVERT JUMPDEST POP CALLVALUE PUSH2 0x296 JUMPI PUSH1 0x20 CALLDATASIZE PUSH1 0x3 NOT ADD SLT PUSH2 0x296 JUMPI PUSH1 0x4 CALLDATALOAD DUP1 DUP3 MSTORE PUSH1 0x2 PUSH1 0x20 MSTORE PUSH1 0x40 DUP3 KECCAK256 SWAP1 PUSH1 0xFF PUSH1 0xC DUP4 ADD SLOAD AND PUSH1 0x5 DUP2 LT ISZERO PUSH2 0x3B4 JUMPI PUSH1 0x1 PUSH2 0x1F03 SWAP2 EQ PUSH2 0x44E7 JUMP JUMPDEST PUSH1 0xB DUP3 ADD SLOAD TIMESTAMP LT PUSH2 0x1F5A JUMPI PUSH2 0x1F22 PUSH1 0xFF PUSH1 0xE PUSH2 0x13EC SWAP5 ADD SLOAD AND ISZERO PUSH2 0x4523 JUMP JUMPDEST PUSH1 0x40 MLOAD SWAP1 PUSH2 0x1F2F DUP3 PUSH2 0x3EA7 JUMP JUMPDEST PUSH1 0x19 DUP3 MSTORE PUSH25 0x14995CDBDB1D5D1A5BDB881C195C9A5BD908195E1C1A5C9959 PUSH1 0x3A SHL PUSH1 0x20 DUP4 ADD MSTORE PUSH2 0x50CD JUMP JUMPDEST PUSH1 0x40 MLOAD PUSH3 0x461BCD PUSH1 0xE5 SHL DUP2 MSTORE PUSH1 0x20 PUSH1 0x4 DUP3 ADD MSTORE PUSH1 0x1C PUSH1 0x24 DUP3 ADD MSTORE PUSH28 0x45503A207265736F6C7574696F6E20706572696F6420616374697665 PUSH1 0x20 SHL PUSH1 0x44 DUP3 ADD MSTORE PUSH1 0x64 SWAP1 REVERT JUMPDEST POP CALLVALUE PUSH2 0x296 JUMPI DUP1 PUSH1 0x3 NOT CALLDATASIZE ADD SLT PUSH2 0x296 JUMPI PUSH2 0x1FB7 PUSH2 0x4058 JUMP JUMPDEST PUSH1 0x0 DUP1 SLOAD PUSH1 0x1 PUSH1 0x1 PUSH1 0xA0 SHL SUB NOT DUP2 AND DUP3 SSTORE PUSH1 0x1 PUSH1 0x1 PUSH1 0xA0 SHL SUB AND PUSH1 0x0 DUP1 MLOAD PUSH1 0x20 PUSH2 0x5646 DUP4 CODECOPY DUP2 MLOAD SWAP2 MSTORE DUP3 DUP1 LOG3 DUP1 RETURN JUMPDEST POP CALLVALUE PUSH2 0x296 JUMPI PUSH1 0x20 DUP1 PUSH1 0x3 NOT CALLDATASIZE ADD SLT PUSH2 0x42E JUMPI PUSH1 0x4 CALLDATALOAD DUP3 MSTORE PUSH1 0x6 DUP2 MSTORE PUSH1 0x40 DUP3 KECCAK256 PUSH1 0x40 MLOAD SWAP3 DUP4 DUP4 DUP4 SLOAD SWAP2 DUP3 DUP2 MSTORE ADD SWAP1 DUP2 SWAP4 DUP4 MSTORE DUP5 DUP4 KECCAK256 SWAP1 DUP4 JUMPDEST DUP2 DUP2 LT PUSH2 0x207B JUMPI POP POP POP DUP5 PUSH2 0x2034 SWAP2 SUB DUP6 PUSH2 0x3EC2 JUMP JUMPDEST PUSH1 0x40 MLOAD SWAP4 DUP4 DUP6 SWAP5 DUP6 ADD SWAP2 DUP2 DUP7 MSTORE MLOAD DUP1 SWAP3 MSTORE PUSH1 0x40 DUP6 ADD SWAP4 SWAP3 JUMPDEST DUP3 DUP2 LT PUSH2 0x205B JUMPI POP POP POP POP SUB SWAP1 RETURN JUMPDEST DUP4 MLOAD PUSH1 0x1 PUSH1 0x1 PUSH1 0xA0 SHL SUB AND DUP6 MSTORE DUP7 SWAP6 POP SWAP4 DUP2 ADD SWAP4 SWAP3 DUP2 ADD SWAP3 PUSH1 0x1 ADD PUSH2 0x204C JUMP JUMPDEST DUP3 SLOAD PUSH1 0x1 PUSH1 0x1 PUSH1 0xA0 SHL SUB AND DUP5 MSTORE SWAP3 DUP7 ADD SWAP3 PUSH1 0x1 SWAP3 DUP4 ADD SWAP3 ADD PUSH2 0x201E JUMP JUMPDEST POP CALLVALUE PUSH2 0x296 JUMPI PUSH1 0x20 SWAP1 DUP2 PUSH1 0x3 NOT CALLDATASIZE ADD SLT PUSH2 0x296 JUMPI PUSH1 0x4 CALLDATALOAD DUP1 DUP3 MSTORE PUSH1 0x2 DUP4 MSTORE PUSH1 0x40 DUP3 KECCAK256 SWAP3 PUSH1 0xE DUP5 ADD DUP1 SLOAD PUSH1 0xFF DUP2 PUSH1 0x8 SHR AND PUSH1 0x2 DUP2 LT ISZERO PUSH2 0xD19 JUMPI PUSH2 0x20F2 SWAP2 PUSH2 0x20E3 PUSH1 0x1 PUSH1 0xFF SWAP4 EQ PUSH2 0x457A JUMP JUMPDEST PUSH2 0x1ABC DUP3 PUSH1 0x11 DUP11 ADD SLOAD AND PUSH2 0x47CD JUMP JUMPDEST PUSH1 0xE SLOAD PUSH1 0x10 DUP7 ADD SLOAD PUSH1 0x40 MLOAD PUSH4 0xE39DFD7F PUSH1 0xE0 SHL DUP2 MSTORE PUSH1 0x4 DUP2 ADD DUP3 SWAP1 MSTORE SWAP1 SWAP2 DUP7 SWAP1 DUP3 SWAP1 PUSH1 0x24 SWAP1 DUP3 SWAP1 PUSH1 0x1 PUSH1 0x1 PUSH1 0xA0 SHL SUB AND GAS STATICCALL SWAP2 DUP3 ISZERO PUSH2 0x5CE JUMPI DUP7 SWAP2 DUP8 SWAP4 PUSH2 0x226C JUMPI JUMPDEST POP DUP6 PUSH32 0x1BCFC076833DB7A342B2B4213F01D2341DE157027E6A14CB082CC770513937C DUP7 PUSH1 0x40 MLOAD DUP6 ISZERO ISZERO DUP2 MSTORE LOG3 ISZERO PUSH2 0x2211 JUMPI PUSH1 0x40 DUP2 DUP1 MLOAD DUP2 ADD SUB SLT PUSH2 0x866 JUMPI PUSH1 0x40 ADD MLOAD SWAP1 DUP2 ISZERO ISZERO DUP1 PUSH2 0x2203 JUMPI JUMPDEST ISZERO PUSH2 0x21C1 JUMPI PUSH1 0x2 PUSH1 0xC DUP8 PUSH1 0xD PUSH1 0x0 DUP1 MLOAD PUSH1 0x20 PUSH2 0x5666 DUP4 CODECOPY DUP2 MLOAD SWAP2 MSTORE SWAP8 SWAP9 SWAP10 ADD SWAP5 DUP6 SSTORE PUSH1 0xFF NOT SWAP4 PUSH1 0x1 DUP6 DUP3 SLOAD AND OR SWAP1 SSTORE ADD SWAP2 DUP3 SLOAD AND OR SWAP1 SSTORE PUSH2 0x1869 DUP5 PUSH2 0x4C05 JUMP JUMPDEST PUSH1 0x40 MLOAD PUSH3 0x461BCD PUSH1 0xE5 SHL DUP2 MSTORE PUSH1 0x4 DUP2 ADD DUP5 SWAP1 MSTORE PUSH1 0x1A PUSH1 0x24 DUP3 ADD MSTORE PUSH26 0x45503A20626164206F7074696F6E2066726F6D206F7261636C65 PUSH1 0x30 SHL PUSH1 0x44 DUP3 ADD MSTORE PUSH1 0x64 SWAP1 REVERT JUMPDEST POP PUSH1 0x3 DUP7 ADD SLOAD DUP3 GT ISZERO PUSH2 0x2181 JUMP JUMPDEST POP POP SWAP1 PUSH2 0x13EC SWAP3 SWAP4 POP PUSH32 0x4F7261636C6520617373657274696F6E2072656A656374656420E28094207265 PUSH1 0x40 MLOAD SWAP3 PUSH2 0x2248 DUP5 PUSH2 0x3E8C JUMP JUMPDEST PUSH1 0x2F DUP5 MSTORE DUP4 ADD MSTORE PUSH15 0x66756E647320617661696C61626C65 PUSH1 0x88 SHL PUSH1 0x40 DUP4 ADD MSTORE PUSH2 0x50CD JUMP JUMPDEST SWAP2 POP SWAP2 POP RETURNDATASIZE DUP1 DUP8 DUP4 RETURNDATACOPY PUSH2 0x227F DUP2 DUP4 PUSH2 0x3EC2 JUMP JUMPDEST DUP2 ADD SWAP1 PUSH1 0x40 DUP2 DUP4 SUB SLT PUSH2 0xA58 JUMPI PUSH2 0x2295 DUP2 PUSH2 0x4084 JUMP JUMPDEST DUP6 DUP3 ADD MLOAD SWAP1 SWAP2 PUSH1 0x1 PUSH1 0x1 PUSH1 0x40 SHL SUB DUP3 GT PUSH2 0x18E6 JUMPI ADD DUP3 PUSH1 0x1F DUP3 ADD SLT ISZERO PUSH2 0x8B6 JUMPI DUP1 MLOAD SWAP1 PUSH2 0x22C1 DUP3 PUSH2 0x3EE5 JUMP JUMPDEST SWAP4 PUSH2 0x22CF PUSH1 0x40 MLOAD SWAP6 DUP7 PUSH2 0x3EC2 JUMP JUMPDEST DUP3 DUP6 MSTORE DUP8 DUP4 DUP4 ADD ADD GT PUSH2 0x18E6 JUMPI SWAP1 PUSH2 0x22EC SWAP2 DUP8 DUP1 DUP7 ADD SWAP2 ADD PUSH2 0x3FE0 JUMP JUMPDEST SWAP1 SWAP2 CODESIZE PUSH2 0x2134 JUMP JUMPDEST POP CALLVALUE PUSH2 0x296 JUMPI PUSH1 0x20 DUP1 PUSH1 0x3 NOT CALLDATASIZE ADD SLT PUSH2 0x42E JUMPI PUSH1 0x4 CALLDATALOAD DUP1 DUP4 MSTORE PUSH1 0x2 DUP3 MSTORE PUSH1 0x40 DUP4 KECCAK256 SWAP2 PUSH1 0xFF PUSH1 0xC DUP5 ADD SLOAD AND PUSH1 0x5 DUP2 LT ISZERO PUSH2 0x248A JUMPI PUSH1 0x2 PUSH2 0x2333 SWAP2 EQ PUSH2 0x480C JUMP JUMPDEST PUSH2 0x2342 PUSH1 0xD DUP5 ADD SLOAD ISZERO ISZERO PUSH2 0x484B JUMP JUMPDEST DUP2 DUP5 MSTORE PUSH1 0x3 DUP2 MSTORE PUSH1 0x40 DUP5 KECCAK256 CALLER PUSH1 0x0 MSTORE DUP2 MSTORE PUSH2 0x2364 PUSH1 0xFF PUSH1 0x40 PUSH1 0x0 KECCAK256 SLOAD AND PUSH2 0x4887 JUMP JUMPDEST PUSH1 0xC SLOAD PUSH1 0x40 MLOAD PUSH4 0x7C7A72D PUSH1 0xE0 SHL DUP2 MSTORE DUP6 SWAP2 PUSH1 0x1 PUSH1 0x1 PUSH1 0xA0 SHL SUB SWAP1 DUP2 AND SWAP2 DUP5 DUP2 DUP1 PUSH2 0x2393 CALLER DUP11 PUSH1 0x4 DUP5 ADD PUSH2 0x48C2 JUMP JUMPDEST SUB DUP2 DUP7 GAS STATICCALL DUP1 ISZERO PUSH2 0x247F JUMPI DUP5 SWAP1 PUSH2 0x2449 JUMPI JUMPDEST PUSH2 0x23B0 SWAP2 POP ISZERO PUSH2 0x48DB JUMP JUMPDEST PUSH1 0x4 PUSH2 0x23BC CALLER DUP8 PUSH2 0x4936 JUMP JUMPDEST SWAP7 ADD SLOAD AND SWAP1 DUP1 EXTCODESIZE ISZERO PUSH2 0x2445 JUMPI DUP6 DUP4 SWAP2 PUSH2 0x23EE SWAP4 DUP4 PUSH1 0x40 MLOAD DUP1 SWAP7 DUP2 SWAP6 DUP3 SWAP5 PUSH4 0x2F0041ED PUSH1 0xE1 SHL DUP5 MSTORE CALLER DUP14 PUSH1 0x4 DUP7 ADD PUSH2 0x4473 JUMP JUMPDEST SUB SWAP3 GAS CALL DUP1 ISZERO PUSH2 0x85B JUMPI PUSH2 0x242D JUMPI JUMPDEST POP POP PUSH32 0x5380CF6FE903B40C6D5A9E0DFBCA2F3A423F0A21520B4D5947ED5169BDBA946D SWAP1 PUSH1 0x40 MLOAD SWAP4 DUP5 MSTORE CALLER SWAP4 LOG3 DUP1 RETURN JUMPDEST PUSH2 0x2436 SWAP1 PUSH2 0x3E5D JUMP JUMPDEST PUSH2 0x2441 JUMPI DUP4 CODESIZE PUSH2 0x23FD JUMP JUMPDEST DUP4 DUP1 REVERT JUMPDEST DUP3 DUP1 REVERT JUMPDEST POP DUP5 DUP2 DUP2 RETURNDATASIZE DUP4 GT PUSH2 0x2478 JUMPI JUMPDEST PUSH2 0x245F DUP2 DUP4 PUSH2 0x3EC2 JUMP JUMPDEST DUP2 ADD SUB SLT PUSH2 0x2441 JUMPI PUSH2 0x2473 PUSH2 0x23B0 SWAP2 PUSH2 0x4084 JUMP JUMPDEST PUSH2 0x23A5 JUMP JUMPDEST POP RETURNDATASIZE PUSH2 0x2455 JUMP JUMPDEST PUSH1 0x40 MLOAD RETURNDATASIZE DUP7 DUP3 RETURNDATACOPY RETURNDATASIZE SWAP1 REVERT JUMPDEST PUSH4 0x4E487B71 PUSH1 0xE0 SHL DUP6 MSTORE PUSH1 0x21 PUSH1 0x4 MSTORE PUSH1 0x24 DUP6 REVERT JUMPDEST POP PUSH2 0x180 CALLDATASIZE PUSH1 0x3 NOT ADD SLT PUSH2 0x296 JUMPI PUSH1 0x4 CALLDATALOAD SWAP1 PUSH1 0x1 PUSH1 0x1 PUSH1 0x40 SHL SUB DUP3 GT PUSH2 0x296 JUMPI CALLDATASIZE PUSH1 0x23 DUP4 ADD SLT ISZERO PUSH2 0x296 JUMPI DUP2 PUSH1 0x4 ADD CALLDATALOAD PUSH2 0x24D7 DUP2 PUSH2 0x3EE5 JUMP JUMPDEST SWAP3 PUSH2 0x24E5 PUSH1 0x40 MLOAD SWAP5 DUP6 PUSH2 0x3EC2 JUMP JUMPDEST DUP2 DUP5 MSTORE CALLDATASIZE PUSH1 0x24 DUP4 DUP4 ADD ADD GT PUSH2 0x2445 JUMPI DUP2 DUP4 SWAP3 PUSH1 0x24 PUSH1 0x20 SWAP4 ADD DUP4 DUP8 ADD CALLDATACOPY DUP5 ADD ADD MSTORE PUSH1 0x24 CALLDATALOAD ISZERO ISZERO PUSH1 0x24 CALLDATALOAD SUB PUSH2 0x296 JUMPI PUSH1 0x64 CALLDATALOAD PUSH1 0x1 PUSH1 0x1 PUSH1 0xA0 SHL SUB DUP2 AND SWAP1 SUB PUSH2 0xDBC JUMPI PUSH1 0x2 PUSH2 0x124 CALLDATALOAD LT ISZERO PUSH2 0x296 JUMPI PUSH2 0x144 CALLDATALOAD SWAP1 PUSH1 0x1 PUSH1 0x1 PUSH1 0xA0 SHL SUB DUP3 AND DUP3 SUB PUSH2 0xDBC JUMPI PUSH1 0xD SLOAD PUSH1 0x40 MLOAD PUSH4 0x2B5BA3B9 PUSH1 0xE0 SHL DUP2 MSTORE CALLER PUSH1 0x4 DUP3 ADD MSTORE PUSH1 0x1 PUSH1 0x1 PUSH1 0xA0 SHL SUB SWAP1 SWAP2 AND SWAP1 PUSH1 0x20 DUP2 PUSH1 0x24 DUP2 DUP6 GAS STATICCALL DUP1 ISZERO PUSH2 0x1C9F JUMPI DUP4 SWAP1 PUSH2 0x3228 JUMPI JUMPDEST PUSH2 0x2589 SWAP2 POP ISZERO PUSH2 0x4091 JUMP JUMPDEST DUP4 MLOAD ISZERO PUSH2 0x31F2 JUMPI PUSH1 0x2 PUSH1 0x44 CALLDATALOAD LT ISZERO DUP1 PUSH2 0x31E5 JUMPI JUMPDEST ISZERO PUSH2 0x31AE JUMPI PUSH1 0x84 CALLDATALOAD ISZERO PUSH2 0x3179 JUMPI PUSH1 0xA4 CALLDATALOAD ISZERO PUSH2 0x3142 JUMPI PUSH1 0xC4 CALLDATALOAD ISZERO ISZERO DUP1 PUSH2 0x3134 JUMPI JUMPDEST ISZERO PUSH2 0x30FD JUMPI PUSH2 0x124 CALLDATALOAD ISZERO PUSH2 0x306F JUMPI JUMPDEST PUSH1 0x40 MLOAD PUSH4 0x17916E01 PUSH1 0xE0 SHL DUP2 MSTORE PUSH1 0x20 DUP2 PUSH1 0x4 DUP2 DUP6 GAS STATICCALL SWAP1 DUP2 ISZERO PUSH2 0x1C9F JUMPI DUP4 SWAP2 PUSH2 0x303D JUMPI JUMPDEST POP PUSH1 0xE4 CALLDATALOAD LT PUSH2 0x3005 JUMPI PUSH1 0xE4 CALLDATALOAD PUSH2 0x104 CALLDATALOAD LT PUSH2 0x2FC3 JUMPI PUSH1 0x24 CALLDATALOAD ISZERO PUSH2 0x2F29 JUMPI PUSH1 0x64 CALLDATALOAD PUSH1 0x1 PUSH1 0x1 PUSH1 0xA0 SHL SUB AND ISZERO PUSH2 0x2EEC JUMPI PUSH1 0x40 MLOAD PUSH4 0x34625613 PUSH1 0xE1 SHL DUP2 MSTORE PUSH1 0x64 CALLDATALOAD PUSH1 0x1 PUSH1 0x1 PUSH1 0xA0 SHL SUB AND PUSH1 0x4 DUP3 ADD MSTORE SWAP1 PUSH1 0x20 SWAP1 DUP3 SWAP1 PUSH1 0x24 SWAP1 DUP3 SWAP1 GAS STATICCALL DUP1 ISZERO PUSH2 0x85B JUMPI DUP3 SWAP1 PUSH2 0x2EB1 JUMPI JUMPDEST PUSH2 0x2660 SWAP2 POP PUSH2 0x40CF JUMP JUMPDEST PUSH8 0xDE0B6B3A7640000 CALLVALUE LT PUSH2 0x2E7A JUMPI PUSH1 0x3C PUSH1 0xE4 CALLDATALOAD MUL PUSH1 0xE4 CALLDATALOAD DUP2 DIV PUSH1 0x3C EQ PUSH1 0xE4 CALLDATALOAD ISZERO OR ISZERO PUSH2 0x2D0F JUMPI PUSH2 0x2691 SWAP1 TIMESTAMP PUSH2 0x4113 JUMP JUMPDEST SWAP1 PUSH2 0x104 CALLDATALOAD PUSH1 0x3C PUSH2 0x104 CALLDATALOAD MUL DIV PUSH1 0x3C EQ PUSH2 0x104 CALLDATALOAD ISZERO OR ISZERO PUSH2 0x2E66 JUMPI PUSH2 0x26BC PUSH1 0x3C PUSH2 0x104 CALLDATALOAD MUL TIMESTAMP PUSH2 0x4113 JUMP JUMPDEST PUSH2 0x124 CALLDATALOAD PUSH2 0x2E50 JUMPI DUP1 SWAP2 JUMPDEST PUSH1 0x9 SLOAD SWAP5 PUSH2 0x26D4 DUP7 PUSH2 0x4136 JUMP JUMPDEST PUSH1 0x9 SSTORE PUSH1 0x40 MLOAD SWAP1 PUSH2 0x26E4 DUP3 PUSH2 0x3E70 JUMP JUMPDEST CALLER DUP3 MSTORE DUP8 PUSH1 0x20 DUP4 ADD MSTORE PUSH1 0x24 CALLDATALOAD ISZERO ISZERO PUSH1 0x40 DUP4 ADD MSTORE PUSH1 0x44 CALLDATALOAD PUSH1 0x60 DUP4 ADD MSTORE PUSH1 0x1 DUP1 PUSH1 0xA0 SHL SUB PUSH1 0x64 CALLDATALOAD AND PUSH1 0x80 DUP4 ADD MSTORE PUSH1 0x84 CALLDATALOAD PUSH1 0xA0 DUP4 ADD MSTORE PUSH1 0xA4 CALLDATALOAD PUSH1 0xC0 DUP4 ADD MSTORE PUSH1 0xC4 CALLDATALOAD PUSH1 0xE0 DUP4 ADD MSTORE TIMESTAMP PUSH2 0x100 DUP4 ADD MSTORE DUP6 PUSH2 0x120 DUP4 ADD MSTORE DUP4 PUSH2 0x140 DUP4 ADD MSTORE DUP5 PUSH2 0x160 DUP4 ADD MSTORE DUP3 PUSH2 0x180 DUP4 ADD MSTORE DUP3 PUSH2 0x1A0 DUP4 ADD MSTORE DUP3 PUSH2 0x1C0 DUP4 ADD MSTORE PUSH2 0x2769 PUSH2 0x124 CALLDATALOAD PUSH2 0x1E0 DUP5 ADD PUSH2 0x4145 JUMP JUMPDEST PUSH1 0x1 PUSH1 0x1 PUSH1 0xA0 SHL SUB SWAP1 DUP2 AND PUSH2 0x200 DUP4 ADD MSTORE PUSH2 0x164 CALLDATALOAD PUSH2 0x220 DUP4 ADD MSTORE PUSH2 0x240 DUP3 ADD DUP4 SWAP1 MSTORE PUSH2 0x260 DUP3 ADD DUP4 SWAP1 MSTORE DUP7 DUP4 MSTORE PUSH1 0x2 PUSH1 0x20 SWAP1 DUP2 MSTORE PUSH1 0x40 DUP5 KECCAK256 DUP4 MLOAD DUP2 SLOAD PUSH1 0x1 PUSH1 0x1 PUSH1 0xA0 SHL SUB NOT AND SWAP4 AND SWAP3 SWAP1 SWAP3 OR DUP3 SSTORE DUP3 ADD MLOAD DUP1 MLOAD SWAP2 SWAP3 SWAP2 SWAP1 PUSH1 0x1 PUSH1 0x1 PUSH1 0x40 SHL SUB DUP3 GT PUSH2 0x2E3C JUMPI DUP2 SWAP1 PUSH2 0x27DE PUSH1 0x1 DUP7 ADD SLOAD PUSH2 0x3F00 JUMP JUMPDEST PUSH1 0x1F DUP2 GT PUSH2 0x2DFE JUMPI JUMPDEST POP PUSH1 0x20 SWAP1 PUSH1 0x1F DUP4 GT PUSH1 0x1 EQ PUSH2 0x2D8F JUMPI DUP7 SWAP3 PUSH2 0x2D84 JUMPI JUMPDEST POP POP DUP2 PUSH1 0x1 SHL SWAP2 PUSH1 0x0 NOT SWAP1 PUSH1 0x3 SHL SHR NOT AND OR PUSH1 0x1 DUP4 ADD SSTORE JUMPDEST PUSH2 0x2828 PUSH1 0x40 DUP3 ADD MLOAD ISZERO ISZERO PUSH1 0x2 DUP5 ADD PUSH2 0x4168 JUMP JUMPDEST PUSH1 0x60 DUP2 ADD MLOAD PUSH1 0x3 DUP4 ADD SSTORE PUSH1 0x4 DUP3 ADD PUSH1 0x1 DUP1 PUSH1 0xA0 SHL SUB PUSH1 0x80 DUP4 ADD MLOAD AND PUSH1 0x1 DUP1 PUSH1 0xA0 SHL SUB NOT DUP3 SLOAD AND OR SWAP1 SSTORE PUSH1 0xA0 DUP2 ADD MLOAD PUSH1 0x5 DUP4 ADD SSTORE PUSH1 0xC0 DUP2 ADD MLOAD PUSH1 0x6 DUP4 ADD SSTORE PUSH1 0xE0 DUP2 ADD MLOAD PUSH1 0x7 DUP4 ADD SSTORE PUSH2 0x100 DUP2 ADD MLOAD PUSH1 0x8 DUP4 ADD SSTORE PUSH2 0x120 DUP2 ADD MLOAD PUSH1 0x9 DUP4 ADD SSTORE PUSH2 0x140 DUP2 ADD MLOAD PUSH1 0xA DUP4 ADD SSTORE PUSH2 0x160 DUP2 ADD MLOAD PUSH1 0xB DUP4 ADD SSTORE PUSH1 0xC DUP3 ADD PUSH2 0x180 DUP3 ADD MLOAD PUSH1 0x5 DUP2 LT ISZERO PUSH2 0x248A JUMPI PUSH1 0xFF DUP1 NOT DUP4 SLOAD AND SWAP2 AND OR SWAP1 SSTORE PUSH2 0x1A0 DUP2 ADD MLOAD PUSH1 0xD DUP4 ADD SSTORE PUSH1 0xE DUP3 ADD PUSH2 0x28DA PUSH2 0x1C0 DUP4 ADD MLOAD ISZERO ISZERO DUP3 PUSH2 0x4168 JUMP JUMPDEST PUSH2 0x1E0 DUP3 ADD MLOAD PUSH1 0x2 DUP2 LT ISZERO PUSH2 0x248A JUMPI DUP2 SLOAD PUSH2 0x200 DUP5 ADD MLOAD PUSH2 0x100 PUSH1 0x1 PUSH1 0xB0 SHL SUB NOT SWAP1 SWAP2 AND PUSH1 0x8 SWAP3 SWAP1 SWAP3 SHL PUSH2 0xFF00 AND SWAP2 SWAP1 SWAP2 OR PUSH1 0x10 SWAP2 DUP3 SHL PUSH3 0x10000 PUSH1 0x1 PUSH1 0xB0 SHL SUB AND OR SWAP1 SWAP2 SSTORE PUSH2 0x220 DUP3 ADD MLOAD PUSH1 0xF DUP5 ADD SSTORE PUSH2 0x240 DUP3 ADD MLOAD SWAP1 DUP4 ADD SSTORE PUSH2 0x260 ADD MLOAD PUSH2 0x294A SWAP2 SWAP1 ISZERO ISZERO SWAP1 PUSH1 0x11 ADD PUSH2 0x4168 JUMP JUMPDEST PUSH1 0xA SLOAD PUSH1 0x1 PUSH1 0x40 SHL DUP2 LT ISZERO PUSH2 0x2D6E JUMPI PUSH2 0x2984 PUSH2 0x296D DUP3 PUSH1 0x1 DUP10 SWAP5 ADD PUSH1 0xA SSTORE PUSH2 0x3E14 JUMP JUMPDEST DUP2 SWAP4 SWAP2 SLOAD SWAP1 PUSH1 0x3 SHL SWAP2 DUP3 SHL SWAP2 PUSH1 0x0 NOT SWAP1 SHL NOT AND OR SWAP1 JUMP JUMPDEST SWAP1 SSTORE DUP5 DUP2 MSTORE PUSH1 0xB PUSH1 0x20 MSTORE PUSH1 0x40 DUP2 KECCAK256 DUP1 SLOAD PUSH1 0xFF NOT AND PUSH1 0x1 OR SWAP1 SSTORE PUSH1 0x64 CALLDATALOAD PUSH1 0x1 PUSH1 0x1 PUSH1 0xA0 SHL SUB AND PUSH2 0x2D23 JUMPI PUSH1 0xA4 CALLDATALOAD PUSH8 0xDE0B6B3A7640000 ADD DUP1 PUSH8 0xDE0B6B3A7640000 GT PUSH2 0x2D0F JUMPI CALLVALUE LT PUSH2 0x2CD2 JUMPI PUSH2 0x29F9 DUP2 DUP1 DUP1 DUP1 PUSH8 0xDE0B6B3A7640000 PUSH1 0x1 DUP1 PUSH1 0xA0 SHL SUB DUP3 SLOAD AND GAS CALL PUSH2 0x29F3 PUSH2 0x419F JUMP JUMPDEST POP PUSH2 0x41CF JUMP JUMPDEST DUP1 DUP1 DUP1 DUP1 PUSH1 0xA4 CALLDATALOAD PUSH1 0x1 DUP1 PUSH1 0xA0 SHL SUB PUSH1 0xC SLOAD AND GAS CALL PUSH2 0x2A15 PUSH2 0x419F JUMP JUMPDEST POP ISZERO PUSH2 0x2C93 JUMPI JUMPDEST DUP5 DUP2 MSTORE PUSH1 0x3 PUSH1 0x20 MSTORE PUSH1 0x40 DUP2 KECCAK256 CALLER PUSH1 0x0 MSTORE PUSH1 0x20 MSTORE PUSH1 0x40 PUSH1 0x0 KECCAK256 PUSH1 0x1 PUSH1 0xFF NOT DUP3 SLOAD AND OR SWAP1 SSTORE DUP5 DUP2 MSTORE PUSH1 0x5 PUSH1 0x20 MSTORE PUSH1 0x40 DUP2 KECCAK256 CALLER PUSH1 0x0 MSTORE PUSH1 0x20 MSTORE PUSH1 0xC4 CALLDATALOAD PUSH1 0x40 PUSH1 0x0 KECCAK256 SSTORE CALLER DUP2 MSTORE PUSH1 0x8 PUSH1 0x20 MSTORE PUSH2 0x2A70 DUP6 PUSH1 0x40 DUP4 KECCAK256 PUSH2 0x4179 JUMP JUMPDEST PUSH1 0xC SLOAD PUSH1 0x1 PUSH1 0x1 PUSH1 0xA0 SHL SUB AND DUP1 EXTCODESIZE ISZERO PUSH2 0x42E JUMPI DUP2 PUSH1 0x40 MLOAD DUP1 SWAP3 PUSH4 0x95F41095 PUSH1 0xE0 SHL DUP3 MSTORE DUP2 DUP4 DUP2 PUSH2 0x2AB0 PUSH1 0xC4 CALLDATALOAD DUP14 PUSH1 0xA4 CALLDATALOAD SWAP1 PUSH1 0x64 CALLDATALOAD SWAP1 CALLER SWAP1 PUSH1 0x4 DUP8 ADD PUSH2 0x4211 JUMP JUMPDEST SUB SWAP3 GAS CALL DUP1 ISZERO PUSH2 0x85B JUMPI SWAP1 DUP3 SWAP2 PUSH2 0x2C7F JUMPI JUMPDEST POP POP PUSH1 0xD SLOAD PUSH1 0x40 MLOAD PUSH4 0x406AD645 PUSH1 0xE1 SHL DUP2 MSTORE SWAP1 PUSH1 0x20 SWAP1 DUP3 SWAP1 PUSH1 0x4 SWAP1 DUP3 SWAP1 PUSH1 0x1 PUSH1 0x1 PUSH1 0xA0 SHL SUB AND GAS STATICCALL SWAP1 DUP2 ISZERO PUSH2 0x85B JUMPI DUP3 SWAP2 PUSH2 0x2C60 JUMPI JUMPDEST POP PUSH1 0x1 PUSH1 0x1 PUSH1 0xA0 SHL SUB DUP2 AND PUSH2 0x2B9A JUMPI JUMPDEST POP POP PUSH1 0x20 SWAP5 DUP5 SWAP3 PUSH32 0x5D0726A1BB5EC8C87527E69BA86D988202E885FAD8F2B4AACD618793D6F297B2 SWAP3 PUSH2 0x2B48 PUSH1 0x40 MLOAD SWAP4 PUSH2 0x120 DUP6 MSTORE PUSH2 0x120 DUP6 ADD SWAP1 PUSH2 0x4003 JUMP JUMPDEST PUSH1 0x24 CALLDATALOAD ISZERO ISZERO DUP5 DUP11 ADD MSTORE PUSH1 0x44 CALLDATALOAD PUSH1 0x40 DUP6 ADD MSTORE PUSH1 0x64 CALLDATALOAD PUSH1 0x1 PUSH1 0x1 PUSH1 0xA0 SHL SUB AND PUSH1 0x60 DUP6 ADD MSTORE PUSH1 0x84 CALLDATALOAD PUSH1 0x80 DUP6 ADD MSTORE TIMESTAMP PUSH1 0xA0 DUP6 ADD MSTORE PUSH1 0xC0 DUP5 ADD SWAP7 SWAP1 SWAP7 MSTORE PUSH1 0xE0 DUP4 ADD MSTORE PUSH2 0x100 DUP3 ADD MSTORE CALLER SWAP4 DUP2 SWAP1 SUB SWAP1 LOG3 PUSH1 0x40 MLOAD SWAP1 DUP2 MSTORE RETURN JUMPDEST PUSH1 0x1 PUSH1 0x1 PUSH1 0xA0 SHL SUB DUP2 AND EXTCODESIZE ISZERO PUSH2 0x42E JUMPI PUSH1 0x40 MLOAD PUSH4 0x782A7805 PUSH1 0xE1 SHL DUP2 MSTORE DUP3 DUP2 DUP1 PUSH2 0x2BC8 CALLER DUP12 PUSH1 0x4 DUP5 ADD PUSH2 0x48C2 JUMP JUMPDEST SUB DUP2 DUP4 PUSH1 0x1 PUSH1 0x1 PUSH1 0xA0 SHL SUB DUP8 AND GAS CALL DUP1 ISZERO PUSH2 0x1C9F JUMPI SWAP1 DUP4 SWAP2 PUSH2 0x2C4C JUMPI JUMPDEST POP POP PUSH1 0x1 PUSH1 0x1 PUSH1 0xA0 SHL SUB DUP2 AND EXTCODESIZE ISZERO PUSH2 0x42E JUMPI PUSH1 0x40 MLOAD PUSH4 0xC228038D PUSH1 0xE0 SHL DUP2 MSTORE SWAP1 DUP3 SWAP1 DUP3 SWAP1 DUP2 DUP4 DUP2 PUSH2 0x2C20 PUSH1 0xA4 CALLDATALOAD PUSH1 0xC4 CALLDATALOAD CALLER DUP16 PUSH1 0x4 DUP7 ADD PUSH2 0x5137 JUMP JUMPDEST SUB SWAP3 PUSH1 0x1 PUSH1 0x1 PUSH1 0xA0 SHL SUB AND GAS CALL DUP1 ISZERO PUSH2 0x85B JUMPI ISZERO PUSH2 0x2B08 JUMPI PUSH2 0x2C42 DUP3 SWAP2 PUSH2 0x3E5D JUMP JUMPDEST PUSH2 0x296 JUMPI DUP1 PUSH2 0x2B08 JUMP JUMPDEST PUSH2 0x2C55 SWAP1 PUSH2 0x3E5D JUMP JUMPDEST PUSH2 0x42E JUMPI DUP2 CODESIZE PUSH2 0x2BE5 JUMP JUMPDEST PUSH2 0x2C79 SWAP2 POP PUSH1 0x20 RETURNDATASIZE PUSH1 0x20 GT PUSH2 0x890 JUMPI PUSH2 0x881 DUP2 DUP4 PUSH2 0x3EC2 JUMP JUMPDEST CODESIZE PUSH2 0x2AF8 JUMP JUMPDEST PUSH2 0x2C88 SWAP1 PUSH2 0x3E5D JUMP JUMPDEST PUSH2 0x296 JUMPI DUP1 CODESIZE PUSH2 0x2AC2 JUMP JUMPDEST PUSH1 0x40 MLOAD PUSH3 0x461BCD PUSH1 0xE5 SHL DUP2 MSTORE PUSH1 0x20 PUSH1 0x4 DUP3 ADD MSTORE PUSH1 0x17 PUSH1 0x24 DUP3 ADD MSTORE PUSH23 0x11540E8819195C1BDCDA5D081CD95B990819985A5B1959 PUSH1 0x4A SHL PUSH1 0x44 DUP3 ADD MSTORE PUSH1 0x64 SWAP1 REVERT JUMPDEST PUSH1 0x40 MLOAD PUSH3 0x461BCD PUSH1 0xE5 SHL DUP2 MSTORE PUSH1 0x20 PUSH1 0x4 DUP3 ADD MSTORE PUSH1 0x15 PUSH1 0x24 DUP3 ADD MSTORE PUSH21 0x45503A20696E73756666696369656E742050455055 PUSH1 0x58 SHL PUSH1 0x44 DUP3 ADD MSTORE PUSH1 0x64 SWAP1 REVERT JUMPDEST PUSH4 0x4E487B71 PUSH1 0xE0 SHL DUP3 MSTORE PUSH1 0x11 PUSH1 0x4 MSTORE PUSH1 0x24 DUP3 REVERT JUMPDEST PUSH2 0x2D47 DUP2 DUP1 DUP1 DUP1 PUSH8 0xDE0B6B3A7640000 PUSH1 0x1 DUP1 PUSH1 0xA0 SHL SUB DUP3 SLOAD AND GAS CALL PUSH2 0x29F3 PUSH2 0x419F JUMP JUMPDEST PUSH1 0xC SLOAD PUSH2 0x2D69 SWAP1 PUSH1 0xA4 CALLDATALOAD SWAP1 PUSH1 0x1 PUSH1 0x1 PUSH1 0xA0 SHL SUB SWAP1 DUP2 AND SWAP1 CALLER SWAP1 PUSH1 0x64 CALLDATALOAD AND PUSH2 0x4263 JUMP JUMPDEST PUSH2 0x2A1C JUMP JUMPDEST PUSH4 0x4E487B71 PUSH1 0xE0 SHL PUSH1 0x0 MSTORE PUSH1 0x41 PUSH1 0x4 MSTORE PUSH1 0x24 PUSH1 0x0 REVERT JUMPDEST ADD MLOAD SWAP1 POP CODESIZE DUP1 PUSH2 0x27FD JUMP JUMPDEST SWAP3 POP PUSH1 0x1 DUP6 ADD DUP7 MSTORE PUSH1 0x20 DUP7 KECCAK256 SWAP1 DUP7 SWAP4 JUMPDEST PUSH1 0x1F NOT DUP5 AND DUP6 LT PUSH2 0x2DE3 JUMPI PUSH1 0x1 SWAP5 POP DUP4 PUSH1 0x1F NOT DUP2 AND LT PUSH2 0x2DCA JUMPI JUMPDEST POP POP POP DUP2 SHL ADD PUSH1 0x1 DUP4 ADD SSTORE PUSH2 0x2815 JUMP JUMPDEST ADD MLOAD PUSH1 0x0 NOT PUSH1 0xF8 DUP5 PUSH1 0x3 SHL AND SHR NOT AND SWAP1 SSTORE CODESIZE DUP1 DUP1 PUSH2 0x2DBA JUMP JUMPDEST DUP2 DUP2 ADD MLOAD DUP4 SSTORE PUSH1 0x20 SWAP5 DUP6 ADD SWAP5 PUSH1 0x1 SWAP1 SWAP4 ADD SWAP3 SWAP1 SWAP2 ADD SWAP1 PUSH2 0x2D9F JUMP JUMPDEST PUSH2 0x2E2C SWAP1 PUSH1 0x1 DUP8 ADD DUP9 MSTORE PUSH1 0x20 DUP9 KECCAK256 PUSH1 0x1F DUP6 ADD PUSH1 0x5 SHR DUP2 ADD SWAP2 PUSH1 0x20 DUP7 LT PUSH2 0x2E32 JUMPI JUMPDEST PUSH1 0x1F ADD PUSH1 0x5 SHR ADD SWAP1 PUSH2 0x4151 JUMP JUMPDEST CODESIZE PUSH2 0x27E7 JUMP JUMPDEST SWAP1 SWAP2 POP DUP2 SWAP1 PUSH2 0x2E1F JUMP JUMPDEST PUSH4 0x4E487B71 PUSH1 0xE0 SHL DUP6 MSTORE PUSH1 0x41 PUSH1 0x4 MSTORE PUSH1 0x24 DUP6 REVERT JUMPDEST PUSH2 0xE100 DUP2 ADD DUP2 GT PUSH2 0x2D0F JUMPI PUSH2 0xE100 DUP2 ADD SWAP2 PUSH2 0x26C7 JUMP JUMPDEST PUSH4 0x4E487B71 PUSH1 0xE0 SHL DUP2 MSTORE PUSH1 0x11 PUSH1 0x4 MSTORE PUSH1 0x24 SWAP1 REVERT JUMPDEST PUSH1 0x40 MLOAD PUSH3 0x461BCD PUSH1 0xE5 SHL DUP2 MSTORE PUSH1 0x20 PUSH1 0x4 DUP3 ADD MSTORE PUSH1 0xF PUSH1 0x24 DUP3 ADD MSTORE PUSH15 0x45503A2066656520746F6F206C6F77 PUSH1 0x88 SHL PUSH1 0x44 DUP3 ADD MSTORE PUSH1 0x64 SWAP1 REVERT JUMPDEST POP PUSH1 0x20 DUP2 RETURNDATASIZE PUSH1 0x20 GT PUSH2 0x2EE4 JUMPI JUMPDEST DUP2 PUSH2 0x2ECB PUSH1 0x20 SWAP4 DUP4 PUSH2 0x3EC2 JUMP JUMPDEST DUP2 ADD SUB SLT PUSH2 0x42E JUMPI PUSH2 0x2EDF PUSH2 0x2660 SWAP2 PUSH2 0x4084 JUMP JUMPDEST PUSH2 0x2656 JUMP JUMPDEST RETURNDATASIZE SWAP2 POP PUSH2 0x2EBE JUMP JUMPDEST PUSH1 0x40 MLOAD PUSH3 0x461BCD PUSH1 0xE5 SHL DUP2 MSTORE PUSH1 0x20 PUSH1 0x4 DUP3 ADD MSTORE PUSH1 0x15 PUSH1 0x24 DUP3 ADD MSTORE PUSH21 0x22A81D1036BAB63A34903732B2B239903A37B5B2B7 PUSH1 0x59 SHL PUSH1 0x44 DUP3 ADD MSTORE PUSH1 0x64 SWAP1 REVERT JUMPDEST PUSH1 0x64 CALLDATALOAD PUSH1 0x1 PUSH1 0x1 PUSH1 0xA0 SHL SUB AND PUSH2 0x2F40 JUMPI JUMPDEST POP PUSH2 0x2660 JUMP JUMPDEST PUSH1 0x40 MLOAD PUSH4 0x34625613 PUSH1 0xE1 SHL DUP2 MSTORE PUSH1 0x64 CALLDATALOAD PUSH1 0x1 PUSH1 0x1 PUSH1 0xA0 SHL SUB AND PUSH1 0x4 DUP3 ADD MSTORE SWAP1 PUSH1 0x20 SWAP1 DUP3 SWAP1 PUSH1 0x24 SWAP1 DUP3 SWAP1 GAS STATICCALL DUP1 ISZERO PUSH2 0x85B JUMPI DUP3 SWAP1 PUSH2 0x2F88 JUMPI JUMPDEST PUSH2 0x2F82 SWAP2 POP PUSH2 0x40CF JUMP JUMPDEST CODESIZE PUSH2 0x2F3A JUMP JUMPDEST POP PUSH1 0x20 DUP2 RETURNDATASIZE PUSH1 0x20 GT PUSH2 0x2FBB JUMPI JUMPDEST DUP2 PUSH2 0x2FA2 PUSH1 0x20 SWAP4 DUP4 PUSH2 0x3EC2 JUMP JUMPDEST DUP2 ADD SUB SLT PUSH2 0x42E JUMPI PUSH2 0x2FB6 PUSH2 0x2F82 SWAP2 PUSH2 0x4084 JUMP JUMPDEST PUSH2 0x2F78 JUMP JUMPDEST RETURNDATASIZE SWAP2 POP PUSH2 0x2F95 JUMP JUMPDEST PUSH1 0x40 MLOAD PUSH3 0x461BCD PUSH1 0xE5 SHL DUP2 MSTORE PUSH1 0x20 PUSH1 0x4 DUP3 ADD MSTORE PUSH1 0x1A PUSH1 0x24 DUP3 ADD MSTORE PUSH26 0x45503A207265736F6C7574696F6E206166746572207374616B65 PUSH1 0x30 SHL PUSH1 0x44 DUP3 ADD MSTORE PUSH1 0x64 SWAP1 REVERT JUMPDEST PUSH1 0x40 MLOAD PUSH3 0x461BCD PUSH1 0xE5 SHL DUP2 MSTORE PUSH1 0x20 PUSH1 0x4 DUP3 ADD MSTORE PUSH1 0x10 PUSH1 0x24 DUP3 ADD MSTORE PUSH16 0x22A81D1036B4B710323AB930BA34B7B7 PUSH1 0x81 SHL PUSH1 0x44 DUP3 ADD MSTORE PUSH1 0x64 SWAP1 REVERT JUMPDEST SWAP1 POP PUSH1 0x20 DUP2 RETURNDATASIZE PUSH1 0x20 GT PUSH2 0x3067 JUMPI JUMPDEST DUP2 PUSH2 0x3058 PUSH1 0x20 SWAP4 DUP4 PUSH2 0x3EC2 JUMP JUMPDEST DUP2 ADD SUB SLT PUSH2 0xDBC JUMPI MLOAD CODESIZE PUSH2 0x25F0 JUMP JUMPDEST RETURNDATASIZE SWAP2 POP PUSH2 0x304B JUMP JUMPDEST PUSH1 0x1 PUSH1 0x1 PUSH1 0xA0 SHL SUB DUP4 AND ISZERO PUSH2 0x30C4 JUMPI PUSH2 0x164 CALLDATALOAD PUSH2 0x25CC JUMPI PUSH1 0x40 MLOAD PUSH3 0x461BCD PUSH1 0xE5 SHL DUP2 MSTORE PUSH1 0x20 PUSH1 0x4 DUP3 ADD MSTORE PUSH1 0x16 PUSH1 0x24 DUP3 ADD MSTORE PUSH22 0x11540E881D1A1C995CDA1BDB19081C995C5D5A5C9959 PUSH1 0x52 SHL PUSH1 0x44 DUP3 ADD MSTORE PUSH1 0x64 SWAP1 REVERT JUMPDEST PUSH1 0x40 MLOAD PUSH3 0x461BCD PUSH1 0xE5 SHL DUP2 MSTORE PUSH1 0x20 PUSH1 0x4 DUP3 ADD MSTORE PUSH1 0x11 PUSH1 0x24 DUP3 ADD MSTORE PUSH17 0x11540E8819995959081C995C5D5A5C9959 PUSH1 0x7A SHL PUSH1 0x44 DUP3 ADD MSTORE PUSH1 0x64 SWAP1 REVERT JUMPDEST PUSH1 0x40 MLOAD PUSH3 0x461BCD PUSH1 0xE5 SHL DUP2 MSTORE PUSH1 0x20 PUSH1 0x4 DUP3 ADD MSTORE PUSH1 0xF PUSH1 0x24 DUP3 ADD MSTORE PUSH15 0x45503A20626164206F7574636F6D65 PUSH1 0x88 SHL PUSH1 0x44 DUP3 ADD MSTORE PUSH1 0x64 SWAP1 REVERT JUMPDEST POP PUSH1 0x44 CALLDATALOAD PUSH1 0xC4 CALLDATALOAD GT ISZERO PUSH2 0x25BD JUMP JUMPDEST PUSH1 0x40 MLOAD PUSH3 0x461BCD PUSH1 0xE5 SHL DUP2 MSTORE PUSH1 0x20 PUSH1 0x4 DUP3 ADD MSTORE PUSH1 0xF PUSH1 0x24 DUP3 ADD MSTORE PUSH15 0x11540E881898590819195C1BDCDA5D PUSH1 0x8A SHL PUSH1 0x44 DUP3 ADD MSTORE PUSH1 0x64 SWAP1 REVERT JUMPDEST PUSH1 0x40 MLOAD PUSH3 0x461BCD PUSH1 0xE5 SHL DUP2 MSTORE PUSH1 0x20 PUSH1 0x4 DUP3 ADD MSTORE PUSH1 0xD PUSH1 0x24 DUP3 ADD MSTORE PUSH13 0x45503A20626164207374616B65 PUSH1 0x98 SHL PUSH1 0x44 DUP3 ADD MSTORE PUSH1 0x64 SWAP1 REVERT JUMPDEST PUSH1 0x40 MLOAD PUSH3 0x461BCD PUSH1 0xE5 SHL DUP2 MSTORE PUSH1 0x20 PUSH1 0x4 DUP3 ADD MSTORE PUSH1 0xF PUSH1 0x24 DUP3 ADD MSTORE PUSH15 0x45503A20626164206F7074696F6E73 PUSH1 0x88 SHL PUSH1 0x44 DUP3 ADD MSTORE PUSH1 0x64 SWAP1 REVERT JUMPDEST POP PUSH1 0xA PUSH1 0x44 CALLDATALOAD GT ISZERO PUSH2 0x259D JUMP JUMPDEST PUSH1 0x40 MLOAD PUSH3 0x461BCD PUSH1 0xE5 SHL DUP2 MSTORE PUSH1 0x20 PUSH1 0x4 DUP3 ADD MSTORE PUSH1 0xE PUSH1 0x24 DUP3 ADD MSTORE PUSH14 0x8AA07440CADAE0E8F240D0C2E6D PUSH1 0x93 SHL PUSH1 0x44 DUP3 ADD MSTORE PUSH1 0x64 SWAP1 REVERT JUMPDEST POP PUSH1 0x20 DUP2 RETURNDATASIZE PUSH1 0x20 GT PUSH2 0x325B JUMPI JUMPDEST DUP2 PUSH2 0x3242 PUSH1 0x20 SWAP4 DUP4 PUSH2 0x3EC2 JUMP JUMPDEST DUP2 ADD SUB SLT PUSH2 0x2445 JUMPI PUSH2 0x3256 PUSH2 0x2589 SWAP2 PUSH2 0x4084 JUMP JUMPDEST PUSH2 0x257E JUMP JUMPDEST RETURNDATASIZE SWAP2 POP PUSH2 0x3235 JUMP JUMPDEST POP CALLVALUE PUSH2 0x296 JUMPI DUP1 PUSH1 0x3 NOT CALLDATASIZE ADD SLT PUSH2 0x296 JUMPI PUSH1 0xC SLOAD PUSH1 0x40 MLOAD PUSH1 0x1 PUSH1 0x1 PUSH1 0xA0 SHL SUB SWAP1 SWAP2 AND DUP2 MSTORE PUSH1 0x20 SWAP1 RETURN JUMPDEST POP CALLVALUE PUSH2 0x296 JUMPI PUSH1 0x20 DUP1 PUSH1 0x3 NOT CALLDATASIZE ADD SLT PUSH2 0x42E JUMPI PUSH1 0x4 CALLDATALOAD DUP1 DUP4 MSTORE PUSH1 0x2 DUP3 MSTORE PUSH1 0x40 DUP4 KECCAK256 SWAP2 PUSH1 0xE DUP4 ADD SLOAD PUSH1 0xFF DUP2 PUSH1 0x8 SHR AND PUSH1 0x2 DUP2 LT ISZERO PUSH2 0xD19 JUMPI PUSH2 0x32E4 SWAP2 PUSH2 0x32D5 PUSH1 0x1 PUSH1 0xFF SWAP4 EQ PUSH2 0x457A JUMP JUMPDEST PUSH2 0x1ABC DUP3 PUSH1 0x11 DUP9 ADD SLOAD AND PUSH2 0x47CD JUMP JUMPDEST PUSH1 0xE SLOAD DUP5 SWAP1 PUSH1 0x1 PUSH1 0x1 PUSH1 0xA0 SHL SUB SWAP1 DUP2 AND PUSH2 0x32FF DUP2 ISZERO ISZERO PUSH2 0x463C JUMP JUMPDEST PUSH1 0x24 DUP5 DUP4 PUSH1 0xF SLOAD AND SWAP3 PUSH2 0x3313 DUP5 ISZERO ISZERO PUSH2 0x467D JUMP JUMPDEST PUSH1 0x40 MLOAD SWAP3 DUP4 DUP1 SWAP3 PUSH4 0x4360AF3D PUSH1 0xE0 SHL DUP3 MSTORE DUP7 PUSH1 0x4 DUP4 ADD MSTORE GAS STATICCALL SWAP5 DUP6 ISZERO PUSH2 0x247F JUMPI DUP5 SWAP6 PUSH2 0x33D2 JUMPI JUMPDEST POP POP DUP4 PUSH2 0x1B63 PUSH1 0x10 SWAP5 SWAP6 PUSH2 0x3351 SWAP4 ADDRESS SWAP1 CALLER SWAP1 PUSH2 0x4263 JUMP JUMPDEST PUSH1 0xE SLOAD AND SWAP4 ADD SWAP3 DUP4 SLOAD DUP2 EXTCODESIZE ISZERO PUSH2 0x2445 JUMPI DUP3 SWAP2 PUSH1 0x44 DUP4 SWAP3 PUSH1 0x40 MLOAD SWAP5 DUP6 SWAP4 DUP5 SWAP3 PUSH4 0xA6A22B43 PUSH1 0xE0 SHL DUP5 MSTORE PUSH1 0x4 DUP5 ADD MSTORE CALLER PUSH1 0x24 DUP5 ADD MSTORE GAS CALL DUP1 ISZERO PUSH2 0x85B JUMPI PUSH2 0x33BE JUMPI JUMPDEST POP POP CALLER SWAP2 SLOAD SWAP1 PUSH32 0x8764C70BA5E4AE969C50093A5CB46E29238FB82E4B7EB17D22A8102996B01C8A DUP5 DUP1 LOG4 DUP1 RETURN JUMPDEST PUSH2 0x33C7 SWAP1 PUSH2 0x3E5D JUMP JUMPDEST PUSH2 0x2445 JUMPI DUP3 CODESIZE PUSH2 0x3391 JUMP JUMPDEST DUP2 SWAP6 POP DUP1 SWAP3 SWAP5 POP RETURNDATASIZE DUP4 GT PUSH2 0x3401 JUMPI JUMPDEST PUSH2 0x33EB DUP2 DUP4 PUSH2 0x3EC2 JUMP JUMPDEST DUP2 ADD SUB SLT PUSH2 0xDBC JUMPI SWAP2 MLOAD SWAP2 DUP6 SWAP2 DUP1 PUSH2 0x1B63 PUSH2 0x333A JUMP JUMPDEST POP RETURNDATASIZE PUSH2 0x33E1 JUMP JUMPDEST POP CALLVALUE PUSH2 0x296 JUMPI PUSH1 0x20 DUP1 PUSH1 0x3 NOT CALLDATASIZE ADD SLT PUSH2 0x42E JUMPI PUSH1 0x4 CALLDATALOAD DUP1 DUP4 MSTORE PUSH1 0x2 DUP3 MSTORE PUSH1 0x40 DUP4 KECCAK256 SWAP2 PUSH1 0xFF PUSH1 0xC DUP5 ADD SLOAD AND PUSH1 0x5 DUP2 LT ISZERO PUSH2 0x248A JUMPI PUSH1 0x3 SUB PUSH2 0x3727 JUMPI DUP2 DUP5 MSTORE PUSH1 0x3 DUP2 MSTORE PUSH1 0x40 DUP5 KECCAK256 CALLER PUSH1 0x0 MSTORE DUP2 MSTORE PUSH1 0xFF PUSH1 0x40 PUSH1 0x0 KECCAK256 SLOAD AND DUP1 ISZERO PUSH2 0x3707 JUMPI JUMPDEST ISZERO PUSH2 0x36CB JUMPI DUP4 SWAP3 DUP3 DUP6 MSTORE PUSH1 0x3 DUP3 MSTORE PUSH1 0x40 DUP6 KECCAK256 CALLER PUSH1 0x0 MSTORE DUP3 MSTORE PUSH1 0xFF PUSH1 0x40 PUSH1 0x0 KECCAK256 SLOAD AND PUSH2 0x3625 JUMPI JUMPDEST DUP3 DUP6 MSTORE PUSH1 0x4 DUP3 MSTORE PUSH1 0x40 DUP6 KECCAK256 CALLER PUSH1 0x0 MSTORE DUP3 MSTORE PUSH1 0xFF PUSH1 0x40 PUSH1 0x0 KECCAK256 SLOAD AND PUSH2 0x357D JUMPI JUMPDEST DUP4 ISZERO PUSH2 0x3546 JUMPI PUSH1 0xC SLOAD PUSH1 0x4 SWAP1 SWAP2 ADD SLOAD DUP6 SWAP2 PUSH1 0x1 PUSH1 0x1 PUSH1 0xA0 SHL SUB SWAP2 DUP3 AND SWAP2 AND DUP1 EXTCODESIZE ISZERO PUSH2 0x2445 JUMPI DUP6 DUP4 SWAP2 PUSH2 0x34F3 SWAP4 DUP4 PUSH1 0x40 MLOAD DUP1 SWAP7 DUP2 SWAP6 DUP3 SWAP5 PUSH4 0x164FCD7D PUSH1 0xE2 SHL DUP5 MSTORE CALLER DUP14 PUSH1 0x4 DUP7 ADD PUSH2 0x4473 JUMP JUMPDEST SUB SWAP3 GAS CALL DUP1 ISZERO PUSH2 0x85B JUMPI PUSH2 0x3532 JUMPI JUMPDEST POP POP PUSH32 0xF3F402280EF0A7905E124AA621B65EAEB2725C343E8B36D398ED78C29DAF285C SWAP1 PUSH1 0x40 MLOAD SWAP4 DUP5 MSTORE CALLER SWAP4 LOG3 DUP1 RETURN JUMPDEST PUSH2 0x353B SWAP1 PUSH2 0x3E5D JUMP JUMPDEST PUSH2 0x2441 JUMPI DUP4 CODESIZE PUSH2 0x3502 JUMP JUMPDEST PUSH1 0x40 MLOAD PUSH3 0x461BCD PUSH1 0xE5 SHL DUP2 MSTORE PUSH1 0x4 DUP2 ADD DUP4 SWAP1 MSTORE PUSH1 0xF PUSH1 0x24 DUP3 ADD MSTORE PUSH15 0x11540E881E995C9BC81C99599D5B99 PUSH1 0x8A SHL PUSH1 0x44 DUP3 ADD MSTORE PUSH1 0x64 SWAP1 REVERT JUMPDEST SWAP3 PUSH2 0x35B4 SWAP1 DUP3 PUSH1 0x1 DUP1 PUSH1 0xA0 SHL SUB DUP1 PUSH1 0xC SLOAD AND SWAP1 PUSH1 0x4 DUP9 ADD SLOAD AND SWAP1 PUSH1 0x40 MLOAD DUP1 DUP1 SWAP7 DUP2 SWAP5 PUSH4 0x256BA741 PUSH1 0xE0 SHL DUP4 MSTORE CALLER DUP12 PUSH1 0x4 DUP6 ADD PUSH2 0x44C7 JUMP JUMPDEST SUB SWAP2 GAS STATICCALL SWAP1 DUP2 ISZERO PUSH2 0x5CE JUMPI DUP7 SWAP2 PUSH2 0x35F4 JUMPI JUMPDEST PUSH2 0x35D0 SWAP3 POP PUSH2 0x4113 JUMP JUMPDEST SWAP3 DUP3 DUP6 MSTORE PUSH1 0x4 DUP3 MSTORE PUSH1 0x40 DUP6 KECCAK256 CALLER PUSH1 0x0 MSTORE DUP3 MSTORE PUSH1 0x40 PUSH1 0x0 KECCAK256 PUSH1 0xFF NOT DUP2 SLOAD AND SWAP1 SSTORE PUSH2 0x34A8 JUMP JUMPDEST SWAP1 POP DUP3 DUP3 DUP2 RETURNDATASIZE DUP4 GT PUSH2 0x361E JUMPI JUMPDEST PUSH2 0x360B DUP2 DUP4 PUSH2 0x3EC2 JUMP JUMPDEST DUP2 ADD SUB SLT PUSH2 0xDBC JUMPI PUSH2 0x35D0 SWAP2 MLOAD SWAP1 PUSH2 0x35C6 JUMP JUMPDEST POP RETURNDATASIZE PUSH2 0x3601 JUMP JUMPDEST SWAP3 POP PUSH2 0x365C DUP2 PUSH1 0x1 DUP1 PUSH1 0xA0 SHL SUB DUP1 PUSH1 0xC SLOAD AND SWAP1 PUSH1 0x4 DUP8 ADD SLOAD AND SWAP1 PUSH1 0x40 MLOAD DUP1 DUP1 SWAP6 DUP2 SWAP5 PUSH4 0x423E7BC1 PUSH1 0xE1 SHL DUP4 MSTORE CALLER DUP11 PUSH1 0x4 DUP6 ADD PUSH2 0x44C7 JUMP JUMPDEST SUB SWAP2 GAS STATICCALL SWAP1 DUP2 ISZERO PUSH2 0x36C0 JUMPI DUP6 SWAP2 PUSH2 0x3693 JUMPI JUMPDEST POP SWAP3 DUP3 DUP6 MSTORE PUSH1 0x3 DUP3 MSTORE PUSH1 0x40 DUP6 KECCAK256 CALLER PUSH1 0x0 MSTORE DUP3 MSTORE PUSH1 0x40 PUSH1 0x0 KECCAK256 PUSH1 0xFF NOT DUP2 SLOAD AND SWAP1 SSTORE PUSH2 0x3489 JUMP JUMPDEST SWAP1 POP DUP2 DUP2 DUP2 RETURNDATASIZE DUP4 GT PUSH2 0x36B9 JUMPI JUMPDEST PUSH2 0x36AA DUP2 DUP4 PUSH2 0x3EC2 JUMP JUMPDEST DUP2 ADD SUB SLT PUSH2 0xDBC JUMPI MLOAD CODESIZE PUSH2 0x366E JUMP JUMPDEST POP RETURNDATASIZE PUSH2 0x36A0 JUMP JUMPDEST PUSH1 0x40 MLOAD RETURNDATASIZE DUP8 DUP3 RETURNDATACOPY RETURNDATASIZE SWAP1 REVERT JUMPDEST PUSH1 0x64 SWAP1 PUSH1 0x40 MLOAD SWAP1 PUSH3 0x461BCD PUSH1 0xE5 SHL DUP3 MSTORE PUSH1 0x4 DUP3 ADD MSTORE PUSH1 0x15 PUSH1 0x24 DUP3 ADD MSTORE PUSH21 0x11540E881B9BDD1A1A5B99C81D1BC81C99599D5B99 PUSH1 0x5A SHL PUSH1 0x44 DUP3 ADD MSTORE REVERT JUMPDEST POP DUP2 DUP5 MSTORE PUSH1 0x4 DUP2 MSTORE PUSH1 0x40 DUP5 KECCAK256 CALLER PUSH1 0x0 MSTORE DUP2 MSTORE PUSH1 0xFF PUSH1 0x40 PUSH1 0x0 KECCAK256 SLOAD AND PUSH2 0x3463 JUMP JUMPDEST PUSH1 0x64 SWAP1 PUSH1 0x40 MLOAD SWAP1 PUSH3 0x461BCD PUSH1 0xE5 SHL DUP3 MSTORE PUSH1 0x4 DUP3 ADD MSTORE PUSH1 0x11 PUSH1 0x24 DUP3 ADD MSTORE PUSH17 0x11540E881B9BDD0818D85B98D95B1B1959 PUSH1 0x7A SHL PUSH1 0x44 DUP3 ADD MSTORE REVERT JUMPDEST POP CALLVALUE PUSH2 0x296 JUMPI PUSH1 0x20 CALLDATASIZE PUSH1 0x3 NOT ADD SLT PUSH2 0x296 JUMPI PUSH1 0x4 CALLDATALOAD DUP1 DUP3 MSTORE PUSH1 0x2 PUSH1 0x20 MSTORE PUSH1 0x40 DUP3 KECCAK256 PUSH1 0xFF PUSH1 0xE DUP3 ADD SLOAD PUSH1 0x8 SHR AND PUSH1 0x2 DUP2 LT ISZERO PUSH2 0x3B4 JUMPI PUSH1 0x1 PUSH2 0x37A0 SWAP2 EQ PUSH2 0x457A JUMP JUMPDEST PUSH2 0x37B0 PUSH1 0xFF PUSH1 0x11 DUP4 ADD SLOAD AND PUSH2 0x47CD JUMP JUMPDEST DUP3 PUSH1 0x10 PUSH1 0x1 DUP1 PUSH1 0xA0 SHL SUB PUSH1 0xE SLOAD AND SWAP3 ADD SWAP2 DUP3 SLOAD DUP2 EXTCODESIZE ISZERO PUSH2 0x2445 JUMPI DUP3 SWAP2 PUSH1 0x24 DUP4 SWAP3 PUSH1 0x40 MLOAD SWAP5 DUP6 SWAP4 DUP5 SWAP3 PUSH4 0x4124BEEF PUSH1 0xE0 SHL DUP5 MSTORE PUSH1 0x4 DUP5 ADD MSTORE GAS CALL DUP1 ISZERO PUSH2 0x85B JUMPI PUSH2 0x381F JUMPI JUMPDEST POP POP SLOAD SWAP1 PUSH32 0x49C1C3ECA1FFDB1B59F7205CE06F2461ACE420050F9AD1B4B6B55F4A0F2E526 DUP4 DUP1 LOG3 DUP1 RETURN JUMPDEST PUSH2 0x3828 SWAP1 PUSH2 0x3E5D JUMP JUMPDEST PUSH2 0x2445 JUMPI DUP3 CODESIZE PUSH2 0x37F4 JUMP JUMPDEST POP CALLVALUE PUSH2 0x296 JUMPI DUP1 PUSH1 0x3 NOT CALLDATASIZE ADD SLT PUSH2 0x296 JUMPI PUSH1 0x20 PUSH1 0x40 MLOAD PUSH2 0x1F4 DUP2 MSTORE RETURN JUMPDEST POP CALLVALUE PUSH2 0x296 JUMPI PUSH1 0x40 CALLDATASIZE PUSH1 0x3 NOT ADD SLT PUSH2 0x296 JUMPI PUSH2 0xD76 SWAP1 PUSH1 0x20 PUSH2 0x3870 PUSH2 0x3DB3 JUMP JUMPDEST PUSH1 0x1 DUP1 PUSH1 0xA0 SHL SUB PUSH1 0xC SLOAD AND PUSH1 0x40 MLOAD DUP1 DUP1 SWAP7 DUP2 SWAP5 PUSH4 0x4F44289D PUSH1 0xE0 SHL DUP4 MSTORE PUSH1 0x4 CALLDATALOAD PUSH1 0x4 DUP5 ADD PUSH2 0x48C2 JUMP JUMPDEST POP CALLVALUE PUSH2 0x296 JUMPI DUP1 PUSH1 0x3 NOT CALLDATASIZE ADD SLT PUSH2 0x296 JUMPI PUSH1 0x20 PUSH1 0x9 SLOAD PUSH1 0x40 MLOAD SWAP1 DUP2 MSTORE RETURN JUMPDEST POP CALLVALUE PUSH2 0x296 JUMPI PUSH1 0x20 DUP1 PUSH1 0x3 NOT CALLDATASIZE ADD SLT PUSH2 0x42E JUMPI PUSH1 0x4 CALLDATALOAD DUP1 DUP4 MSTORE PUSH1 0x2 DUP3 MSTORE PUSH1 0x40 DUP4 KECCAK256 PUSH1 0x4 DUP4 MSTORE PUSH1 0x40 DUP5 KECCAK256 CALLER DUP6 MSTORE DUP4 MSTORE PUSH1 0xFF PUSH1 0x40 DUP6 KECCAK256 SLOAD AND ISZERO PUSH2 0x3AFD JUMPI PUSH1 0xFF PUSH1 0xC DUP3 ADD SLOAD AND PUSH1 0x5 DUP2 LT ISZERO PUSH2 0x248A JUMPI DUP1 PUSH2 0x3AA2 JUMPI POP PUSH1 0x9 DUP2 ADD SLOAD PUSH2 0xA8BF NOT DUP2 ADD SWAP1 DUP2 GT PUSH2 0x3A8E JUMPI TIMESTAMP LT ISZERO PUSH2 0x3A4E JUMPI JUMPDEST PUSH1 0x1 DUP1 PUSH1 0xA0 SHL SUB PUSH1 0x4 DUP2 PUSH1 0xC SLOAD AND SWAP3 ADD SLOAD AND SWAP1 PUSH1 0x40 MLOAD SWAP1 PUSH4 0x256BA741 PUSH1 0xE0 SHL DUP3 MSTORE DUP5 DUP3 DUP1 PUSH2 0x3956 DUP7 CALLER DUP10 PUSH1 0x4 DUP6 ADD PUSH2 0x44C7 JUMP JUMPDEST SUB DUP2 DUP5 GAS STATICCALL SWAP2 DUP3 ISZERO PUSH2 0x5CE JUMPI DUP7 SWAP3 PUSH2 0x3A1F JUMPI JUMPDEST POP DUP2 ISZERO PUSH2 0x39E0 JUMPI SWAP1 DUP2 DUP7 SWAP3 EXTCODESIZE ISZERO PUSH2 0x2445 JUMPI PUSH2 0x399D SWAP4 DUP4 PUSH1 0x40 MLOAD DUP1 SWAP7 DUP2 SWAP6 DUP3 SWAP5 PUSH4 0x17BE0B2F PUSH1 0xE1 SHL DUP5 MSTORE CALLER DUP12 PUSH1 0x4 DUP7 ADD PUSH2 0x4473 JUMP JUMPDEST SUB SWAP3 GAS CALL DUP1 ISZERO PUSH2 0x247F JUMPI PUSH2 0x39CD JUMPI JUMPDEST POP DUP3 MSTORE PUSH1 0x4 DUP2 MSTORE PUSH1 0x40 DUP3 KECCAK256 SWAP1 CALLER PUSH1 0x0 MSTORE MSTORE PUSH1 0x40 PUSH1 0x0 KECCAK256 PUSH1 0xFF NOT DUP2 SLOAD AND SWAP1 SSTORE DUP1 RETURN JUMPDEST PUSH2 0x39D9 SWAP1 SWAP4 SWAP2 SWAP4 PUSH2 0x3E5D JUMP JUMPDEST SWAP2 CODESIZE PUSH2 0x39AC JUMP JUMPDEST PUSH1 0x40 MLOAD PUSH3 0x461BCD PUSH1 0xE5 SHL DUP2 MSTORE PUSH1 0x4 DUP2 ADD DUP7 SWAP1 MSTORE PUSH1 0x17 PUSH1 0x24 DUP3 ADD MSTORE PUSH23 0x45503A206E6F7468696E6720746F207769746864726177 PUSH1 0x48 SHL PUSH1 0x44 DUP3 ADD MSTORE PUSH1 0x64 SWAP1 REVERT JUMPDEST SWAP1 SWAP2 POP DUP5 DUP2 DUP2 RETURNDATASIZE DUP4 GT PUSH2 0x3A47 JUMPI JUMPDEST PUSH2 0x3A37 DUP2 DUP4 PUSH2 0x3EC2 JUMP JUMPDEST DUP2 ADD SUB SLT PUSH2 0x5C3 JUMPI MLOAD SWAP1 CODESIZE PUSH2 0x3969 JUMP JUMPDEST POP RETURNDATASIZE PUSH2 0x3A2D JUMP JUMPDEST PUSH1 0x40 MLOAD PUSH3 0x461BCD PUSH1 0xE5 SHL DUP2 MSTORE PUSH1 0x4 DUP2 ADD DUP5 SWAP1 MSTORE PUSH1 0x18 PUSH1 0x24 DUP3 ADD MSTORE PUSH24 0x45503A20746F6F206C61746520746F207769746864726177 PUSH1 0x40 SHL PUSH1 0x44 DUP3 ADD MSTORE PUSH1 0x64 SWAP1 REVERT JUMPDEST PUSH4 0x4E487B71 PUSH1 0xE0 SHL DUP6 MSTORE PUSH1 0x11 PUSH1 0x4 MSTORE PUSH1 0x24 DUP6 REVERT JUMPDEST PUSH1 0x4 DUP2 EQ SWAP1 DUP2 ISZERO PUSH2 0x3AF2 JUMPI JUMPDEST POP PUSH2 0x3923 JUMPI PUSH1 0x40 MLOAD PUSH3 0x461BCD PUSH1 0xE5 SHL DUP2 MSTORE PUSH1 0x4 DUP2 ADD DUP5 SWAP1 MSTORE PUSH1 0x17 PUSH1 0x24 DUP3 ADD MSTORE PUSH23 0x45503A2063616E6E6F74207769746864726177206E6F77 PUSH1 0x48 SHL PUSH1 0x44 DUP3 ADD MSTORE PUSH1 0x64 SWAP1 REVERT JUMPDEST PUSH1 0x3 SWAP2 POP EQ CODESIZE PUSH2 0x3AAE JUMP JUMPDEST PUSH1 0x40 MLOAD PUSH3 0x461BCD PUSH1 0xE5 SHL DUP2 MSTORE PUSH1 0x4 DUP2 ADD DUP5 SWAP1 MSTORE PUSH1 0xE PUSH1 0x24 DUP3 ADD MSTORE PUSH14 0x11540E881B9BC81CDD5C1C1BDC9D PUSH1 0x92 SHL PUSH1 0x44 DUP3 ADD MSTORE PUSH1 0x64 SWAP1 REVERT JUMPDEST POP CALLVALUE PUSH2 0x296 JUMPI PUSH1 0x20 CALLDATASIZE PUSH1 0x3 NOT ADD SLT PUSH2 0x296 JUMPI PUSH1 0x4 CALLDATALOAD SWAP1 PUSH1 0xA SLOAD DUP3 LT ISZERO PUSH2 0x296 JUMPI PUSH1 0x20 PUSH2 0x19C8 DUP4 PUSH2 0x3E14 JUMP JUMPDEST POP CALLVALUE PUSH2 0x296 JUMPI PUSH1 0x40 CALLDATASIZE PUSH1 0x3 NOT ADD SLT PUSH2 0x296 JUMPI PUSH1 0xFF PUSH1 0x40 PUSH1 0x20 SWAP3 PUSH2 0x3B7F PUSH2 0x3DB3 JUMP JUMPDEST PUSH1 0x4 CALLDATALOAD DUP3 MSTORE PUSH1 0x3 DUP6 MSTORE DUP3 DUP3 KECCAK256 PUSH1 0x1 PUSH1 0x1 PUSH1 0xA0 SHL SUB SWAP1 SWAP2 AND DUP3 MSTORE DUP5 MSTORE KECCAK256 SLOAD PUSH1 0x40 MLOAD SWAP2 AND ISZERO ISZERO DUP2 MSTORE RETURN JUMPDEST POP CALLVALUE PUSH2 0x296 JUMPI DUP1 PUSH1 0x3 NOT CALLDATASIZE ADD SLT PUSH2 0x296 JUMPI PUSH1 0x20 PUSH1 0x40 MLOAD PUSH8 0xDE0B6B3A7640000 DUP2 MSTORE RETURN JUMPDEST POP CALLVALUE PUSH2 0x296 JUMPI PUSH1 0x40 CALLDATASIZE PUSH1 0x3 NOT ADD SLT PUSH2 0x296 JUMPI PUSH1 0xFF PUSH1 0x40 PUSH1 0x20 SWAP3 PUSH2 0x3BEB PUSH2 0x3DB3 JUMP JUMPDEST PUSH1 0x4 DUP1 CALLDATALOAD DUP4 MSTORE DUP6 MSTORE DUP3 DUP3 KECCAK256 PUSH1 0x1 PUSH1 0x1 PUSH1 0xA0 SHL SUB SWAP1 SWAP2 AND DUP3 MSTORE DUP5 MSTORE KECCAK256 SLOAD PUSH1 0x40 MLOAD SWAP2 AND ISZERO ISZERO DUP2 MSTORE RETURN JUMPDEST POP CALLVALUE PUSH2 0x296 JUMPI PUSH2 0x3C55 PUSH1 0x20 PUSH2 0x3C26 CALLDATASIZE PUSH2 0x3DDF JUMP JUMPDEST PUSH1 0xC SLOAD PUSH1 0x40 MLOAD PUSH4 0x256BA741 PUSH1 0xE0 SHL DUP2 MSTORE SWAP6 DUP7 SWAP5 PUSH1 0x1 PUSH1 0x1 PUSH1 0xA0 SHL SUB SWAP1 SWAP3 AND SWAP4 DUP6 SWAP4 DUP5 SWAP4 SWAP1 SWAP2 SWAP1 PUSH1 0x4 DUP6 ADD PUSH2 0x44C7 JUMP JUMPDEST SUB SWAP2 GAS STATICCALL SWAP1 DUP2 ISZERO PUSH2 0x85B JUMPI DUP3 SWAP2 PUSH2 0x3C72 JUMPI JUMPDEST PUSH1 0x20 DUP3 PUSH1 0x40 MLOAD SWAP1 DUP2 MSTORE RETURN JUMPDEST SWAP1 POP PUSH1 0x20 DUP2 RETURNDATASIZE DUP3 GT PUSH2 0x3C9F JUMPI JUMPDEST DUP2 PUSH2 0x3C8C PUSH1 0x20 SWAP4 DUP4 PUSH2 0x3EC2 JUMP JUMPDEST DUP2 ADD SUB SLT PUSH2 0x42E JUMPI PUSH1 0x20 SWAP2 POP MLOAD CODESIZE PUSH2 0x3C67 JUMP JUMPDEST RETURNDATASIZE SWAP2 POP PUSH2 0x3C7F JUMP JUMPDEST POP CALLVALUE PUSH2 0x296 JUMPI DUP1 PUSH1 0x3 NOT CALLDATASIZE ADD SLT PUSH2 0x296 JUMPI PUSH1 0xE SLOAD PUSH1 0x40 MLOAD PUSH1 0x1 PUSH1 0x1 PUSH1 0xA0 SHL SUB SWAP1 SWAP2 AND DUP2 MSTORE PUSH1 0x20 SWAP1 RETURN JUMPDEST POP CALLVALUE PUSH2 0x296 JUMPI DUP1 PUSH1 0x3 NOT CALLDATASIZE ADD SLT PUSH2 0x296 JUMPI PUSH1 0xF SLOAD PUSH1 0x40 MLOAD PUSH1 0x1 PUSH1 0x1 PUSH1 0xA0 SHL SUB SWAP1 SWAP2 AND DUP2 MSTORE PUSH1 0x20 SWAP1 RETURN JUMPDEST POP CALLVALUE PUSH2 0x296 JUMPI PUSH1 0x20 CALLDATASIZE PUSH1 0x3 NOT ADD SLT PUSH2 0x296 JUMPI PUSH1 0x4 CALLDATALOAD SWAP1 DUP2 DUP2 MSTORE PUSH1 0x2 PUSH1 0x20 MSTORE PUSH1 0x40 DUP2 KECCAK256 SWAP2 PUSH1 0xC DUP4 ADD DUP1 SLOAD SWAP4 PUSH1 0xFF DUP6 AND PUSH1 0x5 DUP2 LT ISZERO PUSH2 0x248A JUMPI SWAP5 PUSH2 0x3D51 PUSH1 0xA PUSH1 0x1 SWAP4 PUSH2 0x3D47 PUSH2 0x13EC SWAP9 SWAP10 ISZERO PUSH2 0x433B JUMP JUMPDEST ADD SLOAD TIMESTAMP LT ISZERO PUSH2 0x44E7 JUMP JUMPDEST PUSH1 0xFF NOT AND OR SWAP1 SSTORE PUSH2 0x54E7 JUMP JUMPDEST POP CALLVALUE PUSH2 0x296 JUMPI PUSH1 0x20 CALLDATASIZE PUSH1 0x3 NOT ADD SLT PUSH2 0x296 JUMPI PUSH1 0xFF PUSH1 0x40 PUSH1 0x20 SWAP3 PUSH1 0x4 CALLDATALOAD DUP2 MSTORE PUSH1 0xB DUP5 MSTORE KECCAK256 SLOAD AND PUSH1 0x40 MLOAD SWAP1 ISZERO ISZERO DUP2 MSTORE RETURN JUMPDEST SWAP1 POP CALLVALUE PUSH2 0x42E JUMPI PUSH1 0x20 CALLDATASIZE PUSH1 0x3 NOT ADD SLT PUSH2 0x42E JUMPI PUSH1 0x40 PUSH1 0x20 SWAP3 PUSH1 0x4 CALLDATALOAD DUP2 MSTORE PUSH1 0x6 DUP5 MSTORE KECCAK256 SLOAD DUP2 MSTORE RETURN JUMPDEST PUSH1 0x24 CALLDATALOAD SWAP1 PUSH1 0x1 PUSH1 0x1 PUSH1 0xA0 SHL SUB DUP3 AND DUP3 SUB PUSH2 0xDBC JUMPI JUMP JUMPDEST PUSH1 0x4 CALLDATALOAD SWAP1 PUSH1 0x1 PUSH1 0x1 PUSH1 0xA0 SHL SUB DUP3 AND DUP3 SUB PUSH2 0xDBC JUMPI JUMP JUMPDEST PUSH1 0x60 SWAP1 PUSH1 0x3 NOT ADD SLT PUSH2 0xDBC JUMPI PUSH1 0x4 CALLDATALOAD SWAP1 PUSH1 0x1 PUSH1 0x1 PUSH1 0xA0 SHL SUB SWAP1 PUSH1 0x24 CALLDATALOAD DUP3 DUP2 AND DUP2 SUB PUSH2 0xDBC JUMPI SWAP2 PUSH1 0x44 CALLDATALOAD SWAP1 DUP2 AND DUP2 SUB PUSH2 0xDBC JUMPI SWAP1 JUMP JUMPDEST PUSH1 0xA SLOAD DUP2 LT ISZERO PUSH2 0x3E2F JUMPI PUSH1 0xA PUSH1 0x0 MSTORE PUSH1 0x20 PUSH1 0x0 KECCAK256 ADD SWAP1 PUSH1 0x0 SWAP1 JUMP JUMPDEST PUSH4 0x4E487B71 PUSH1 0xE0 SHL PUSH1 0x0 MSTORE PUSH1 0x32 PUSH1 0x4 MSTORE PUSH1 0x24 PUSH1 0x0 REVERT JUMPDEST DUP1 SLOAD DUP3 LT ISZERO PUSH2 0x3E2F JUMPI PUSH1 0x0 MSTORE PUSH1 0x20 PUSH1 0x0 KECCAK256 ADD SWAP1 PUSH1 0x0 SWAP1 JUMP JUMPDEST PUSH1 0x1 PUSH1 0x1 PUSH1 0x40 SHL SUB DUP2 GT PUSH2 0x2D6E JUMPI PUSH1 0x40 MSTORE JUMP JUMPDEST PUSH2 0x280 DUP2 ADD SWAP1 DUP2 LT PUSH1 0x1 PUSH1 0x1 PUSH1 0x40 SHL SUB DUP3 GT OR PUSH2 0x2D6E JUMPI PUSH1 0x40 MSTORE JUMP JUMPDEST PUSH1 0x60 DUP2 ADD SWAP1 DUP2 LT PUSH1 0x1 PUSH1 0x1 PUSH1 0x40 SHL SUB DUP3 GT OR PUSH2 0x2D6E JUMPI PUSH1 0x40 MSTORE JUMP JUMPDEST PUSH1 0x40 DUP2 ADD SWAP1 DUP2 LT PUSH1 0x1 PUSH1 0x1 PUSH1 0x40 SHL SUB DUP3 GT OR PUSH2 0x2D6E JUMPI PUSH1 0x40 MSTORE JUMP JUMPDEST PUSH1 0x1F SWAP1 SWAP2 ADD PUSH1 0x1F NOT AND DUP2 ADD SWAP1 PUSH1 0x1 PUSH1 0x1 PUSH1 0x40 SHL SUB DUP3 GT SWAP1 DUP3 LT OR PUSH2 0x2D6E JUMPI PUSH1 0x40 MSTORE JUMP JUMPDEST PUSH1 0x1 PUSH1 0x1 PUSH1 0x40 SHL SUB DUP2 GT PUSH2 0x2D6E JUMPI PUSH1 0x1F ADD PUSH1 0x1F NOT AND PUSH1 0x20 ADD SWAP1 JUMP JUMPDEST SWAP1 PUSH1 0x1 DUP3 DUP2 SHR SWAP3 AND DUP1 ISZERO PUSH2 0x3F30 JUMPI JUMPDEST PUSH1 0x20 DUP4 LT EQ PUSH2 0x3F1A JUMPI JUMP JUMPDEST PUSH4 0x4E487B71 PUSH1 0xE0 SHL PUSH1 0x0 MSTORE PUSH1 0x22 PUSH1 0x4 MSTORE PUSH1 0x24 PUSH1 0x0 REVERT JUMPDEST SWAP2 PUSH1 0x7F AND SWAP2 PUSH2 0x3F0F JUMP JUMPDEST SWAP1 PUSH1 0x40 MLOAD SWAP2 DUP3 PUSH1 0x0 DUP3 SLOAD SWAP3 PUSH2 0x3F4E DUP5 PUSH2 0x3F00 JUMP JUMPDEST SWAP1 DUP2 DUP5 MSTORE PUSH1 0x1 SWAP5 DUP6 DUP2 AND SWAP1 DUP2 PUSH1 0x0 EQ PUSH2 0x3FBD JUMPI POP PUSH1 0x1 EQ PUSH2 0x3F7A JUMPI JUMPDEST POP POP PUSH2 0x3F78 SWAP3 POP SUB DUP4 PUSH2 0x3EC2 JUMP JUMPDEST JUMP JUMPDEST SWAP1 SWAP4 SWAP2 POP PUSH1 0x0 MSTORE PUSH1 0x20 SWAP1 DUP2 PUSH1 0x0 KECCAK256 SWAP4 PUSH1 0x0 SWAP2 JUMPDEST DUP2 DUP4 LT PUSH2 0x3FA5 JUMPI POP POP PUSH2 0x3F78 SWAP4 POP DUP3 ADD ADD CODESIZE DUP1 PUSH2 0x3F6A JUMP JUMPDEST DUP6 SLOAD DUP9 DUP5 ADD DUP6 ADD MSTORE SWAP5 DUP6 ADD SWAP5 DUP8 SWAP5 POP SWAP2 DUP4 ADD SWAP2 PUSH2 0x3F8D JUMP JUMPDEST SWAP2 POP POP PUSH2 0x3F78 SWAP5 POP PUSH1 0x20 SWAP3 POP PUSH1 0xFF NOT AND DUP3 DUP5 ADD MSTORE ISZERO ISZERO PUSH1 0x5 SHL DUP3 ADD ADD CODESIZE DUP1 PUSH2 0x3F6A JUMP JUMPDEST PUSH1 0x0 JUMPDEST DUP4 DUP2 LT PUSH2 0x3FF3 JUMPI POP POP PUSH1 0x0 SWAP2 ADD MSTORE JUMP JUMPDEST DUP2 DUP2 ADD MLOAD DUP4 DUP3 ADD MSTORE PUSH1 0x20 ADD PUSH2 0x3FE3 JUMP JUMPDEST SWAP1 PUSH1 0x20 SWAP2 PUSH2 0x401C DUP2 MLOAD DUP1 SWAP3 DUP2 DUP6 MSTORE DUP6 DUP1 DUP7 ADD SWAP2 ADD PUSH2 0x3FE0 JUMP JUMPDEST PUSH1 0x1F ADD PUSH1 0x1F NOT AND ADD ADD SWAP1 JUMP JUMPDEST SWAP1 PUSH1 0x5 DUP3 LT ISZERO PUSH2 0x10BA JUMPI MSTORE JUMP JUMPDEST SWAP1 PUSH1 0x2 DUP3 LT ISZERO PUSH2 0x10BA JUMPI MSTORE JUMP JUMPDEST PUSH1 0x40 SWAP1 PUSH1 0x3 NOT ADD SLT PUSH2 0xDBC JUMPI PUSH1 0x4 CALLDATALOAD SWAP1 PUSH1 0x24 CALLDATALOAD SWAP1 JUMP JUMPDEST PUSH1 0x0 SLOAD PUSH1 0x1 PUSH1 0x1 PUSH1 0xA0 SHL SUB AND CALLER SUB PUSH2 0x406C JUMPI JUMP JUMPDEST PUSH1 0x40 MLOAD PUSH4 0x118CDAA7 PUSH1 0xE0 SHL DUP2 MSTORE CALLER PUSH1 0x4 DUP3 ADD MSTORE PUSH1 0x24 SWAP1 REVERT JUMPDEST MLOAD SWAP1 DUP2 ISZERO ISZERO DUP3 SUB PUSH2 0xDBC JUMPI JUMP JUMPDEST ISZERO PUSH2 0x4098 JUMPI JUMP JUMPDEST PUSH1 0x40 MLOAD PUSH3 0x461BCD PUSH1 0xE5 SHL DUP2 MSTORE PUSH1 0x20 PUSH1 0x4 DUP3 ADD MSTORE PUSH1 0xF PUSH1 0x24 DUP3 ADD MSTORE PUSH15 0x11540E88189B1858DADB1A5CDD1959 PUSH1 0x8A SHL PUSH1 0x44 DUP3 ADD MSTORE PUSH1 0x64 SWAP1 REVERT JUMPDEST ISZERO PUSH2 0x40D6 JUMPI JUMP JUMPDEST PUSH1 0x40 MLOAD PUSH3 0x461BCD PUSH1 0xE5 SHL DUP2 MSTORE PUSH1 0x20 PUSH1 0x4 DUP3 ADD MSTORE PUSH1 0x15 PUSH1 0x24 DUP3 ADD MSTORE PUSH21 0x22A81D103AB739BAB83837B93A32B2103A37B5B2B7 PUSH1 0x59 SHL PUSH1 0x44 DUP3 ADD MSTORE PUSH1 0x64 SWAP1 REVERT JUMPDEST SWAP2 SWAP1 DUP3 ADD DUP1 SWAP3 GT PUSH2 0x4120 JUMPI JUMP JUMPDEST PUSH4 0x4E487B71 PUSH1 0xE0 SHL PUSH1 0x0 MSTORE PUSH1 0x11 PUSH1 0x4 MSTORE PUSH1 0x24 PUSH1 0x0 REVERT JUMPDEST PUSH1 0x0 NOT DUP2 EQ PUSH2 0x4120 JUMPI PUSH1 0x1 ADD SWAP1 JUMP JUMPDEST PUSH1 0x2 DUP3 LT ISZERO PUSH2 0x10BA JUMPI MSTORE JUMP JUMPDEST DUP2 DUP2 LT PUSH2 0x415C JUMPI POP POP JUMP JUMPDEST PUSH1 0x0 DUP2 SSTORE PUSH1 0x1 ADD PUSH2 0x4151 JUMP JUMPDEST SWAP1 PUSH1 0xFF DUP1 NOT DUP4 SLOAD AND SWAP2 ISZERO ISZERO AND OR SWAP1 SSTORE JUMP JUMPDEST DUP1 SLOAD SWAP1 PUSH1 0x1 PUSH1 0x40 SHL DUP3 LT ISZERO PUSH2 0x2D6E JUMPI DUP2 PUSH2 0x296D SWAP2 PUSH1 0x1 PUSH2 0x419B SWAP5 ADD DUP2 SSTORE PUSH2 0x3E45 JUMP JUMPDEST SWAP1 SSTORE JUMP JUMPDEST RETURNDATASIZE ISZERO PUSH2 0x41CA JUMPI RETURNDATASIZE SWAP1 PUSH2 0x41B0 DUP3 PUSH2 0x3EE5 JUMP JUMPDEST SWAP2 PUSH2 0x41BE PUSH1 0x40 MLOAD SWAP4 DUP5 PUSH2 0x3EC2 JUMP JUMPDEST DUP3 MSTORE RETURNDATASIZE PUSH1 0x0 PUSH1 0x20 DUP5 ADD RETURNDATACOPY JUMP JUMPDEST PUSH1 0x60 SWAP1 JUMP JUMPDEST ISZERO PUSH2 0x41D6 JUMPI JUMP JUMPDEST PUSH1 0x40 MLOAD PUSH3 0x461BCD PUSH1 0xE5 SHL DUP2 MSTORE PUSH1 0x20 PUSH1 0x4 DUP3 ADD MSTORE PUSH1 0x13 PUSH1 0x24 DUP3 ADD MSTORE PUSH19 0x11540E88199959481CD95B990819985A5B1959 PUSH1 0x6A SHL PUSH1 0x44 DUP3 ADD MSTORE PUSH1 0x64 SWAP1 REVERT JUMPDEST SWAP1 DUP2 MSTORE PUSH1 0x1 PUSH1 0x1 PUSH1 0xA0 SHL SUB SWAP2 DUP3 AND PUSH1 0x20 DUP3 ADD MSTORE SWAP2 AND PUSH1 0x40 DUP3 ADD MSTORE PUSH1 0x60 DUP2 ADD SWAP2 SWAP1 SWAP2 MSTORE PUSH1 0x80 DUP2 ADD SWAP2 SWAP1 SWAP2 MSTORE PUSH1 0xA0 ADD SWAP1 JUMP JUMPDEST PUSH1 0x1 PUSH1 0x1 PUSH1 0xA0 SHL SUB SWAP2 DUP3 AND DUP2 MSTORE SWAP2 AND PUSH1 0x20 DUP3 ADD MSTORE PUSH1 0x40 DUP2 ADD SWAP2 SWAP1 SWAP2 MSTORE PUSH1 0x60 ADD SWAP1 JUMP JUMPDEST SWAP1 PUSH2 0x4299 SWAP1 PUSH2 0x428B PUSH2 0x3F78 SWAP6 PUSH1 0x40 MLOAD SWAP6 DUP7 SWAP4 PUSH4 0x23B872DD PUSH1 0xE0 SHL PUSH1 0x20 DUP7 ADD MSTORE PUSH1 0x24 DUP6 ADD PUSH2 0x4241 JUMP JUMPDEST SUB PUSH1 0x1F NOT DUP2 ADD DUP5 MSTORE DUP4 PUSH2 0x3EC2 JUMP JUMPDEST SWAP1 PUSH1 0x0 PUSH1 0x20 SWAP2 DUP3 DUP2 MLOAD SWAP2 ADD DUP3 DUP6 GAS CALL ISZERO PUSH2 0x42F5 JUMPI PUSH1 0x0 MLOAD RETURNDATASIZE PUSH2 0x42EC JUMPI POP PUSH1 0x1 PUSH1 0x1 PUSH1 0xA0 SHL SUB DUP2 AND EXTCODESIZE ISZERO JUMPDEST PUSH2 0x42CA JUMPI POP JUMP JUMPDEST PUSH1 0x40 MLOAD PUSH4 0x5274AFE7 PUSH1 0xE0 SHL DUP2 MSTORE PUSH1 0x1 PUSH1 0x1 PUSH1 0xA0 SHL SUB SWAP1 SWAP2 AND PUSH1 0x4 DUP3 ADD MSTORE PUSH1 0x24 SWAP1 REVERT JUMPDEST PUSH1 0x1 EQ ISZERO PUSH2 0x42C3 JUMP JUMPDEST PUSH1 0x40 MLOAD RETURNDATASIZE PUSH1 0x0 DUP3 RETURNDATACOPY RETURNDATASIZE SWAP1 REVERT JUMPDEST ISZERO PUSH2 0x4308 JUMPI JUMP JUMPDEST PUSH1 0x40 MLOAD PUSH3 0x461BCD PUSH1 0xE5 SHL DUP2 MSTORE PUSH1 0x20 PUSH1 0x4 DUP3 ADD MSTORE PUSH1 0xB PUSH1 0x24 DUP3 ADD MSTORE PUSH11 0x11540E8819195B195D1959 PUSH1 0xAA SHL PUSH1 0x44 DUP3 ADD MSTORE PUSH1 0x64 SWAP1 REVERT JUMPDEST ISZERO PUSH2 0x4342 JUMPI JUMP JUMPDEST PUSH1 0x40 MLOAD PUSH3 0x461BCD PUSH1 0xE5 SHL DUP2 MSTORE PUSH1 0x20 PUSH1 0x4 DUP3 ADD MSTORE PUSH1 0xE PUSH1 0x24 DUP3 ADD MSTORE PUSH14 0x45503A206E6F7420616374697665 PUSH1 0x90 SHL PUSH1 0x44 DUP3 ADD MSTORE PUSH1 0x64 SWAP1 REVERT JUMPDEST ISZERO PUSH2 0x437F JUMPI JUMP JUMPDEST PUSH1 0x40 MLOAD PUSH3 0x461BCD PUSH1 0xE5 SHL DUP2 MSTORE PUSH1 0x20 PUSH1 0x4 DUP3 ADD MSTORE PUSH1 0xE PUSH1 0x24 DUP3 ADD MSTORE PUSH14 0x22A81D103130B21037B83A34B7B7 PUSH1 0x91 SHL PUSH1 0x44 DUP3 ADD MSTORE PUSH1 0x64 SWAP1 REVERT JUMPDEST ISZERO PUSH2 0x43BC JUMPI JUMP JUMPDEST PUSH1 0x40 MLOAD PUSH3 0x461BCD PUSH1 0xE5 SHL DUP2 MSTORE PUSH1 0x20 PUSH1 0x4 DUP3 ADD MSTORE PUSH1 0xD PUSH1 0x24 DUP3 ADD MSTORE PUSH13 0x22A81D103132B637BB9036B4B7 PUSH1 0x99 SHL PUSH1 0x44 DUP3 ADD MSTORE PUSH1 0x64 SWAP1 REVERT JUMPDEST ISZERO PUSH2 0x43F8 JUMPI JUMP JUMPDEST PUSH1 0x40 MLOAD PUSH3 0x461BCD PUSH1 0xE5 SHL DUP2 MSTORE PUSH1 0x20 PUSH1 0x4 DUP3 ADD MSTORE PUSH1 0x18 PUSH1 0x24 DUP3 ADD MSTORE PUSH24 0x11540E881D1C99585CDD5C9E481CD95B990819985A5B1959 PUSH1 0x42 SHL PUSH1 0x44 DUP3 ADD MSTORE PUSH1 0x64 SWAP1 REVERT JUMPDEST DUP1 SLOAD PUSH1 0x1 PUSH1 0x40 SHL DUP2 LT ISZERO PUSH2 0x2D6E JUMPI PUSH2 0x4455 SWAP2 PUSH1 0x1 DUP3 ADD DUP2 SSTORE PUSH2 0x3E45 JUMP JUMPDEST DUP2 SWAP3 SWAP2 SLOAD SWAP1 PUSH1 0x3 SHL SWAP2 PUSH1 0x1 DUP1 PUSH1 0xA0 SHL SUB DUP1 SWAP2 AND DUP4 SHL SWAP3 SHL NOT AND OR SWAP1 SSTORE JUMP JUMPDEST SWAP1 DUP2 MSTORE PUSH1 0x1 PUSH1 0x1 PUSH1 0xA0 SHL SUB SWAP2 DUP3 AND PUSH1 0x20 DUP3 ADD MSTORE SWAP2 AND PUSH1 0x40 DUP3 ADD MSTORE PUSH1 0x60 DUP2 ADD SWAP2 SWAP1 SWAP2 MSTORE PUSH1 0x80 ADD SWAP1 JUMP JUMPDEST SWAP1 DUP2 PUSH1 0x20 SWAP2 SUB SLT PUSH2 0xDBC JUMPI MLOAD PUSH1 0x1 PUSH1 0x1 PUSH1 0xA0 SHL SUB DUP2 AND DUP2 SUB PUSH2 0xDBC JUMPI SWAP1 JUMP JUMPDEST SWAP2 SWAP1 DUP3 SUB SWAP2 DUP3 GT PUSH2 0x4120 JUMPI JUMP JUMPDEST SWAP1 DUP2 MSTORE PUSH1 0x1 PUSH1 0x1 PUSH1 0xA0 SHL SUB SWAP2 DUP3 AND PUSH1 0x20 DUP3 ADD MSTORE SWAP2 AND PUSH1 0x40 DUP3 ADD MSTORE PUSH1 0x60 ADD SWAP1 JUMP JUMPDEST ISZERO PUSH2 0x44EE JUMPI JUMP JUMPDEST PUSH1 0x40 MLOAD PUSH3 0x461BCD PUSH1 0xE5 SHL DUP2 MSTORE PUSH1 0x20 PUSH1 0x4 DUP3 ADD MSTORE PUSH1 0xD PUSH1 0x24 DUP3 ADD MSTORE PUSH13 0x11540E881B9BDD08195B991959 PUSH1 0x9A SHL PUSH1 0x44 DUP3 ADD MSTORE PUSH1 0x64 SWAP1 REVERT JUMPDEST ISZERO PUSH2 0x452A JUMPI JUMP JUMPDEST PUSH1 0x40 MLOAD PUSH3 0x461BCD PUSH1 0xE5 SHL DUP2 MSTORE PUSH1 0x20 PUSH1 0x4 DUP3 ADD MSTORE PUSH1 0x14 PUSH1 0x24 DUP3 ADD MSTORE PUSH20 0x11540E88185B1C9958591E481C995CDBDB1D9959 PUSH1 0x62 SHL PUSH1 0x44 DUP3 ADD MSTORE PUSH1 0x64 SWAP1 REVERT JUMPDEST MLOAD SWAP1 PUSH1 0x1 PUSH1 0x1 PUSH1 0x50 SHL SUB DUP3 AND DUP3 SUB PUSH2 0xDBC JUMPI JUMP JUMPDEST ISZERO PUSH2 0x4581 JUMPI JUMP JUMPDEST PUSH1 0x40 MLOAD PUSH3 0x461BCD PUSH1 0xE5 SHL DUP2 MSTORE PUSH1 0x20 PUSH1 0x4 DUP3 ADD MSTORE PUSH1 0x15 PUSH1 0x24 DUP3 ADD MSTORE PUSH21 0x45503A206E6F74205032504F5054494D4953544943 PUSH1 0x58 SHL PUSH1 0x44 DUP3 ADD MSTORE PUSH1 0x64 SWAP1 REVERT JUMPDEST ISZERO PUSH2 0x45C5 JUMPI JUMP JUMPDEST PUSH1 0x40 MLOAD PUSH3 0x461BCD PUSH1 0xE5 SHL DUP2 MSTORE PUSH1 0x20 PUSH1 0x4 DUP3 ADD MSTORE PUSH1 0xC PUSH1 0x24 DUP3 ADD MSTORE PUSH12 0x11540E881C995CDBDB1D9959 PUSH1 0xA2 SHL PUSH1 0x44 DUP3 ADD MSTORE PUSH1 0x64 SWAP1 REVERT JUMPDEST ISZERO PUSH2 0x4600 JUMPI JUMP JUMPDEST PUSH1 0x40 MLOAD PUSH3 0x461BCD PUSH1 0xE5 SHL DUP2 MSTORE PUSH1 0x20 PUSH1 0x4 DUP3 ADD MSTORE PUSH1 0x14 PUSH1 0x24 DUP3 ADD MSTORE PUSH20 0x45503A20617373657274696F6E20657869737473 PUSH1 0x60 SHL PUSH1 0x44 DUP3 ADD MSTORE PUSH1 0x64 SWAP1 REVERT JUMPDEST ISZERO PUSH2 0x4643 JUMPI JUMP JUMPDEST PUSH1 0x40 MLOAD PUSH3 0x461BCD PUSH1 0xE5 SHL DUP2 MSTORE PUSH1 0x20 PUSH1 0x4 DUP3 ADD MSTORE PUSH1 0x12 PUSH1 0x24 DUP3 ADD MSTORE PUSH18 0x11540E881BDC9858DB19481B9BDD081CD95D PUSH1 0x72 SHL PUSH1 0x44 DUP3 ADD MSTORE PUSH1 0x64 SWAP1 REVERT JUMPDEST ISZERO PUSH2 0x4684 JUMPI JUMP JUMPDEST PUSH1 0x40 MLOAD PUSH3 0x461BCD PUSH1 0xE5 SHL DUP2 MSTORE PUSH1 0x20 PUSH1 0x4 DUP3 ADD MSTORE PUSH1 0x19 PUSH1 0x24 DUP3 ADD MSTORE PUSH25 0x11540E88189BDB990818DD5C9C995B98DE481B9BDD081CD95D PUSH1 0x3A SHL PUSH1 0x44 DUP3 ADD MSTORE PUSH1 0x64 SWAP1 REVERT JUMPDEST PUSH1 0x1 PUSH1 0x1 PUSH1 0xA0 SHL SUB SWAP1 SWAP2 AND DUP2 MSTORE PUSH1 0x20 DUP2 ADD SWAP2 SWAP1 SWAP2 MSTORE PUSH1 0x40 ADD SWAP1 JUMP JUMPDEST SWAP3 SWAP2 SWAP3 PUSH1 0x40 MLOAD SWAP2 PUSH1 0x20 DUP4 ADD SWAP1 PUSH2 0x4717 DUP5 PUSH2 0x4709 PUSH4 0x95EA7B3 PUSH1 0xE0 SHL SWAP9 DUP10 DUP7 MSTORE DUP5 PUSH1 0x24 DUP5 ADD PUSH2 0x46C5 JUMP JUMPDEST SUB PUSH1 0x1F NOT DUP2 ADD DUP7 MSTORE DUP6 PUSH2 0x3EC2 JUMP JUMPDEST PUSH1 0x20 PUSH1 0x0 DUP1 SWAP4 DUP7 MLOAD SWAP1 DUP3 DUP8 GAS CALL DUP3 MLOAD RETURNDATASIZE DUP3 PUSH2 0x47A8 JUMPI JUMPDEST POP POP ISZERO PUSH2 0x473D JUMPI JUMPDEST POP POP POP POP SWAP1 POP JUMP JUMPDEST PUSH1 0x40 MLOAD PUSH1 0x20 DUP2 ADD SWAP7 SWAP1 SWAP7 MSTORE PUSH1 0x1 PUSH1 0x1 PUSH1 0xA0 SHL SUB AND PUSH1 0x24 DUP7 ADD MSTORE PUSH1 0x44 DUP1 DUP7 ADD DUP3 SWAP1 MSTORE DUP6 MSTORE PUSH1 0x80 DUP6 ADD SWAP1 PUSH1 0x1 PUSH1 0x1 PUSH1 0x40 SHL SUB DUP3 GT DUP7 DUP4 LT OR PUSH2 0x4794 JUMPI POP PUSH2 0x478A SWAP4 SWAP5 PUSH2 0x4299 SWAP2 PUSH1 0x40 MSTORE DUP3 PUSH2 0x4299 JUMP JUMPDEST DUP1 CODESIZE DUP1 DUP1 DUP1 PUSH2 0x4735 JUMP JUMPDEST PUSH4 0x4E487B71 PUSH1 0xE0 SHL DUP2 MSTORE PUSH1 0x41 PUSH1 0x4 MSTORE PUSH1 0x24 SWAP1 REVERT JUMPDEST SWAP1 SWAP2 POP PUSH2 0x47C5 JUMPI POP PUSH1 0x1 PUSH1 0x1 PUSH1 0xA0 SHL SUB DUP4 AND EXTCODESIZE ISZERO ISZERO JUMPDEST CODESIZE DUP1 PUSH2 0x472D JUMP JUMPDEST PUSH1 0x1 EQ PUSH2 0x47BE JUMP JUMPDEST ISZERO PUSH2 0x47D4 JUMPI JUMP JUMPDEST PUSH1 0x40 MLOAD PUSH3 0x461BCD PUSH1 0xE5 SHL DUP2 MSTORE PUSH1 0x20 PUSH1 0x4 DUP3 ADD MSTORE PUSH1 0x10 PUSH1 0x24 DUP3 ADD MSTORE PUSH16 0x22A81D1037379030B9B9B2B93A34B7B7 PUSH1 0x81 SHL PUSH1 0x44 DUP3 ADD MSTORE PUSH1 0x64 SWAP1 REVERT JUMPDEST ISZERO PUSH2 0x4813 JUMPI JUMP JUMPDEST PUSH1 0x40 MLOAD PUSH3 0x461BCD PUSH1 0xE5 SHL DUP2 MSTORE PUSH1 0x20 PUSH1 0x4 DUP3 ADD MSTORE PUSH1 0x10 PUSH1 0x24 DUP3 ADD MSTORE PUSH16 0x11540E881B9BDD081C995CDBDB1D9959 PUSH1 0x82 SHL PUSH1 0x44 DUP3 ADD MSTORE PUSH1 0x64 SWAP1 REVERT JUMPDEST ISZERO PUSH2 0x4852 JUMPI JUMP JUMPDEST PUSH1 0x40 MLOAD PUSH3 0x461BCD PUSH1 0xE5 SHL DUP2 MSTORE PUSH1 0x20 PUSH1 0x4 DUP3 ADD MSTORE PUSH1 0xD PUSH1 0x24 DUP3 ADD MSTORE PUSH13 0x22A81D103737903BB4B73732B9 PUSH1 0x99 SHL PUSH1 0x44 DUP3 ADD MSTORE PUSH1 0x64 SWAP1 REVERT JUMPDEST ISZERO PUSH2 0x488E JUMPI JUMP JUMPDEST PUSH1 0x40 MLOAD PUSH3 0x461BCD PUSH1 0xE5 SHL DUP2 MSTORE PUSH1 0x20 PUSH1 0x4 DUP3 ADD MSTORE PUSH1 0xC PUSH1 0x24 DUP3 ADD MSTORE PUSH12 0x45503A206E6F207374616B65 PUSH1 0xA0 SHL PUSH1 0x44 DUP3 ADD MSTORE PUSH1 0x64 SWAP1 REVERT JUMPDEST SWAP1 DUP2 MSTORE PUSH1 0x1 PUSH1 0x1 PUSH1 0xA0 SHL SUB SWAP1 SWAP2 AND PUSH1 0x20 DUP3 ADD MSTORE PUSH1 0x40 ADD SWAP1 JUMP JUMPDEST ISZERO PUSH2 0x48E2 JUMPI JUMP JUMPDEST PUSH1 0x40 MLOAD PUSH3 0x461BCD PUSH1 0xE5 SHL DUP2 MSTORE PUSH1 0x20 PUSH1 0x4 DUP3 ADD MSTORE PUSH1 0xB PUSH1 0x24 DUP3 ADD MSTORE PUSH11 0x11540E8818DB185A5B5959 PUSH1 0xAA SHL PUSH1 0x44 DUP3 ADD MSTORE PUSH1 0x64 SWAP1 REVERT JUMPDEST SWAP1 DUP2 MSTORE PUSH1 0x20 DUP2 ADD SWAP2 SWAP1 SWAP2 MSTORE PUSH1 0x1 PUSH1 0x1 PUSH1 0xA0 SHL SUB SWAP1 SWAP2 AND PUSH1 0x40 DUP3 ADD MSTORE PUSH1 0x60 ADD SWAP1 JUMP JUMPDEST SWAP1 DUP2 PUSH1 0x0 MSTORE PUSH1 0x2 PUSH1 0x20 MSTORE PUSH1 0x40 SWAP2 DUP3 PUSH1 0x0 KECCAK256 SWAP2 PUSH1 0x1 DUP1 PUSH1 0xA0 SHL SUB PUSH1 0xC SLOAD AND SWAP4 PUSH1 0x1 DUP1 PUSH1 0xA0 SHL SUB PUSH1 0x4 DUP6 ADD SLOAD AND SWAP2 DUP2 MLOAD SWAP5 PUSH4 0x423E7BC1 PUSH1 0xE1 SHL DUP7 MSTORE PUSH1 0x20 DUP7 DUP1 PUSH2 0x4982 DUP8 DUP7 DUP11 PUSH1 0x4 DUP6 ADD PUSH2 0x44C7 JUMP JUMPDEST SUB DUP2 DUP11 GAS STATICCALL SWAP6 DUP7 ISZERO PUSH2 0x4BFA JUMPI PUSH1 0x0 SWAP7 PUSH2 0x4BC6 JUMPI JUMPDEST POP PUSH1 0xD DUP2 ADD SLOAD SWAP4 DUP4 MLOAD SWAP8 PUSH4 0xDC4CE349 PUSH1 0xE0 SHL DUP10 MSTORE PUSH1 0x20 DUP10 DUP1 PUSH2 0x49BD DUP6 DUP11 DUP13 PUSH1 0x4 DUP6 ADD PUSH2 0x4915 JUMP JUMPDEST SUB DUP2 DUP5 GAS STATICCALL SWAP9 DUP10 ISZERO PUSH2 0x4BBB JUMPI PUSH1 0x0 SWAP10 PUSH2 0x4B87 JUMPI JUMPDEST POP PUSH1 0x0 SWAP3 PUSH1 0x3 PUSH1 0x1 SWAP2 ADD SLOAD SWAP1 JUMPDEST DUP2 DUP2 GT ISZERO PUSH2 0x4AE6 JUMPI POP POP PUSH2 0x4A0B SWAP3 SWAP2 PUSH1 0x20 SWAP2 DUP7 MLOAD DUP1 DUP1 SWAP7 DUP2 SWAP5 PUSH4 0x4F44289D PUSH1 0xE0 SHL DUP4 MSTORE DUP13 PUSH1 0x4 DUP5 ADD PUSH2 0x48C2 JUMP JUMPDEST SUB SWAP2 GAS STATICCALL SWAP1 DUP2 ISZERO PUSH2 0x4ADB JUMPI PUSH1 0x0 SWAP2 PUSH2 0x4AA5 JUMPI JUMPDEST PUSH2 0x4A28 SWAP3 POP PUSH2 0x4113 JUMP JUMPDEST SWAP4 DUP7 ISZERO PUSH2 0x4A99 JUMPI PUSH1 0x0 MSTORE PUSH1 0x5 PUSH1 0x20 MSTORE DUP2 PUSH1 0x0 KECCAK256 SWAP1 PUSH1 0x1 DUP1 PUSH1 0xA0 SHL SUB AND PUSH1 0x0 MSTORE PUSH1 0x20 MSTORE PUSH1 0x0 KECCAK256 SLOAD SUB PUSH2 0x4A91 JUMPI DUP1 ISZERO PUSH2 0x4A8B JUMPI PUSH2 0x2328 DUP1 DUP3 MUL SWAP2 DUP3 DIV SUB PUSH2 0x4120 JUMPI PUSH2 0x2710 SWAP1 DIV SWAP2 DUP3 DUP3 MUL SWAP3 DUP3 DUP5 DIV EQ DUP3 ISZERO OR ISZERO PUSH2 0x4120 JUMPI PUSH2 0x4A88 SWAP3 DIV SWAP1 PUSH2 0x4113 JUMP JUMPDEST SWAP1 JUMP JUMPDEST POP SWAP1 POP SWAP1 JUMP JUMPDEST POP POP POP PUSH1 0x0 SWAP1 JUMP JUMPDEST POP POP POP POP POP POP POP PUSH1 0x0 SWAP1 JUMP JUMPDEST SWAP1 POP PUSH1 0x20 DUP3 RETURNDATASIZE PUSH1 0x20 GT PUSH2 0x4AD3 JUMPI JUMPDEST DUP2 PUSH2 0x4AC0 PUSH1 0x20 SWAP4 DUP4 PUSH2 0x3EC2 JUMP JUMPDEST DUP2 ADD SUB SLT PUSH2 0xDBC JUMPI PUSH2 0x4A28 SWAP2 MLOAD SWAP1 PUSH2 0x4A1E JUMP JUMPDEST RETURNDATASIZE SWAP2 POP PUSH2 0x4AB3 JUMP JUMPDEST DUP5 MLOAD RETURNDATASIZE PUSH1 0x0 DUP3 RETURNDATACOPY RETURNDATASIZE SWAP1 REVERT JUMPDEST DUP8 DUP2 SUB PUSH2 0x4AFC JUMPI JUMPDEST PUSH2 0x4AF7 SWAP1 PUSH2 0x4136 JUMP JUMPDEST PUSH2 0x49DE JUMP JUMPDEST DUP7 MLOAD PUSH4 0xDC4CE349 PUSH1 0xE0 SHL DUP2 MSTORE SWAP1 SWAP5 SWAP1 PUSH1 0x20 DUP2 DUP1 PUSH2 0x4B1E DUP9 DUP11 DUP16 PUSH1 0x4 DUP6 ADD PUSH2 0x4915 JUMP JUMPDEST SUB DUP2 DUP8 GAS STATICCALL SWAP1 DUP2 ISZERO PUSH2 0x4B7C JUMPI PUSH1 0x0 SWAP2 PUSH2 0x4B48 JUMPI JUMPDEST POP PUSH2 0x4B40 SWAP1 PUSH2 0x4AF7 SWAP3 PUSH2 0x4113 JUMP JUMPDEST SWAP5 SWAP1 POP PUSH2 0x4AEE JUMP JUMPDEST SWAP1 POP PUSH1 0x20 DUP2 RETURNDATASIZE PUSH1 0x20 GT PUSH2 0x4B74 JUMPI JUMPDEST DUP2 PUSH2 0x4B63 PUSH1 0x20 SWAP4 DUP4 PUSH2 0x3EC2 JUMP JUMPDEST DUP2 ADD SUB SLT PUSH2 0xDBC JUMPI MLOAD PUSH2 0x4AF7 PUSH2 0x4B32 JUMP JUMPDEST RETURNDATASIZE SWAP2 POP PUSH2 0x4B56 JUMP JUMPDEST DUP9 MLOAD RETURNDATASIZE PUSH1 0x0 DUP3 RETURNDATACOPY RETURNDATASIZE SWAP1 REVERT JUMPDEST SWAP1 SWAP9 POP PUSH1 0x20 DUP2 RETURNDATASIZE PUSH1 0x20 GT PUSH2 0x4BB3 JUMPI JUMPDEST DUP2 PUSH2 0x4BA3 PUSH1 0x20 SWAP4 DUP4 PUSH2 0x3EC2 JUMP JUMPDEST DUP2 ADD SUB SLT PUSH2 0xDBC JUMPI MLOAD SWAP8 CODESIZE PUSH2 0x49D1 JUMP JUMPDEST RETURNDATASIZE SWAP2 POP PUSH2 0x4B96 JUMP JUMPDEST DUP6 MLOAD RETURNDATASIZE PUSH1 0x0 DUP3 RETURNDATACOPY RETURNDATASIZE SWAP1 REVERT JUMPDEST SWAP1 SWAP6 POP PUSH1 0x20 DUP2 RETURNDATASIZE PUSH1 0x20 GT PUSH2 0x4BF2 JUMPI JUMPDEST DUP2 PUSH2 0x4BE2 PUSH1 0x20 SWAP4 DUP4 PUSH2 0x3EC2 JUMP JUMPDEST DUP2 ADD SUB SLT PUSH2 0xDBC JUMPI MLOAD SWAP5 CODESIZE PUSH2 0x4996 JUMP JUMPDEST RETURNDATASIZE SWAP2 POP PUSH2 0x4BD5 JUMP JUMPDEST DUP4 MLOAD RETURNDATASIZE PUSH1 0x0 DUP3 RETURNDATACOPY RETURNDATASIZE SWAP1 REVERT JUMPDEST PUSH1 0x0 SWAP1 DUP1 DUP3 MSTORE PUSH1 0x20 SWAP1 PUSH1 0x2 DUP3 MSTORE PUSH1 0x40 SWAP2 DUP3 DUP5 KECCAK256 SWAP2 DUP5 SWAP2 PUSH1 0x1 SWAP4 PUSH1 0x3 DUP2 ADD SLOAD PUSH1 0xD DUP3 ADD SLOAD SWAP6 JUMPDEST DUP2 DUP2 GT ISZERO PUSH2 0x501F JUMPI POP POP PUSH1 0xC SLOAD PUSH1 0x4 DUP3 DUP2 ADD DUP1 SLOAD DUP10 MLOAD PUSH4 0x4F44289D PUSH1 0xE0 SHL DUP2 MSTORE PUSH1 0x1 PUSH1 0x1 PUSH1 0xA0 SHL SUB SWAP10 SWAP3 SWAP9 SWAP4 SWAP8 SWAP3 SWAP5 DUP11 AND SWAP4 SWAP2 DUP11 AND SWAP3 SWAP2 DUP8 DUP3 DUP1 PUSH2 0x4C71 DUP8 DUP8 DUP4 DUP16 ADD PUSH2 0x48C2 JUMP JUMPDEST SUB DUP2 DUP9 GAS STATICCALL SWAP2 DUP3 ISZERO PUSH2 0x5015 JUMPI SWAP2 DUP10 SWAP2 DUP14 SWAP10 SWAP9 SWAP8 SWAP7 SWAP6 SWAP5 SWAP4 DUP16 SWAP3 PUSH2 0x4FCE JUMPI JUMPDEST POP SWAP2 PUSH2 0x4CB9 DUP6 PUSH2 0x4CA1 DUP7 SWAP5 DUP13 SWAP7 PUSH2 0x4113 JUMP JUMPDEST SWAP12 MLOAD PUSH4 0xDC4CE349 PUSH1 0xE0 SHL DUP2 MSTORE SWAP9 DUP10 SWAP5 DUP6 SWAP5 DUP6 ADD PUSH2 0x4915 JUMP JUMPDEST SUB DUP2 DUP7 GAS STATICCALL SWAP4 DUP5 ISZERO PUSH2 0x4F8F JUMPI SWAP1 DUP7 SWAP2 DUP14 SWAP6 PUSH2 0x4F99 JUMPI JUMPDEST POP DUP12 MLOAD PUSH4 0x3D1E7BA1 PUSH1 0xE1 SHL DUP2 MSTORE SWAP2 SWAP1 DUP3 SWAP1 DUP2 SWAP1 PUSH2 0x4CF0 SWAP1 DUP7 SWAP1 DUP14 DUP5 ADD PUSH2 0x48C2 JUMP JUMPDEST SUB DUP2 DUP7 GAS STATICCALL SWAP6 DUP7 ISZERO PUSH2 0x4F8F JUMPI DUP13 SWAP7 PUSH2 0x4F5B JUMPI JUMPDEST POP POP PUSH2 0x15E SWAP6 DUP7 DUP7 MUL DUP7 ISZERO SWAP8 DUP8 DUP3 DIV EQ DUP9 OR ISZERO PUSH2 0x4F48 JUMPI PUSH2 0x2710 DUP1 SWAP2 DIV SWAP8 PUSH2 0x1F4 SWAP1 DUP2 DUP10 MUL SWAP2 DUP10 DUP4 DIV EQ OR ISZERO PUSH2 0x4F35 JUMPI DIV SWAP4 PUSH2 0x4E3B JUMPI POP POP POP POP DUP3 PUSH2 0x4DC8 JUMPI JUMPDEST POP SWAP1 PUSH2 0x4D4E SWAP2 PUSH2 0x44BA JUMP JUMPDEST SWAP3 DUP4 PUSH2 0x4D5D JUMPI JUMPDEST POP POP POP POP POP POP JUMP JUMPDEST DUP1 PUSH1 0xC SLOAD AND SWAP3 SLOAD AND SWAP1 DUP3 EXTCODESIZE ISZERO PUSH2 0x5C3 JUMPI SWAP2 DUP5 SWAP4 SWAP2 DUP7 DUP1 SWAP5 PUSH2 0x4D91 SWAP8 MLOAD SWAP8 DUP9 SWAP6 DUP7 SWAP5 DUP6 SWAP4 PUSH4 0xF0824F33 PUSH1 0xE0 SHL DUP6 MSTORE DUP5 ADD PUSH2 0x46C5 JUMP JUMPDEST SUB SWAP3 GAS CALL SWAP1 DUP2 ISZERO PUSH2 0x4DBF JUMPI POP PUSH2 0x4DAB JUMPI JUMPDEST DUP1 DUP1 DUP1 DUP1 PUSH2 0x4D55 JUMP JUMPDEST PUSH2 0x4DB5 DUP3 SWAP2 PUSH2 0x3E5D JUMP JUMPDEST PUSH2 0x296 JUMPI DUP1 PUSH2 0x4DA2 JUMP JUMPDEST MLOAD RETURNDATASIZE DUP5 DUP3 RETURNDATACOPY RETURNDATASIZE SWAP1 REVERT JUMPDEST DUP6 DUP1 PUSH1 0xC SLOAD AND SWAP2 SLOAD AND DUP7 DUP7 SLOAD AND SWAP1 DUP3 EXTCODESIZE ISZERO PUSH2 0x4E37 JUMPI PUSH2 0x4E01 SWAP3 DUP11 SWAP3 DUP4 DUP8 SWAP4 DUP13 MLOAD SWAP7 DUP8 SWAP6 DUP7 SWAP5 DUP6 SWAP4 PUSH4 0x112CD223 PUSH1 0xE0 SHL DUP6 MSTORE DUP14 DUP6 ADD PUSH2 0x4241 JUMP JUMPDEST SUB SWAP3 GAS CALL DUP1 ISZERO PUSH2 0x4E2D JUMPI SWAP1 DUP9 SWAP2 PUSH2 0x4E19 JUMPI JUMPDEST POP PUSH2 0x4D43 JUMP JUMPDEST PUSH2 0x4E22 SWAP1 PUSH2 0x3E5D JUMP JUMPDEST PUSH2 0xA58 JUMPI DUP7 CODESIZE PUSH2 0x4E13 JUMP JUMPDEST DUP8 MLOAD RETURNDATASIZE DUP11 DUP3 RETURNDATACOPY RETURNDATASIZE SWAP1 REVERT JUMPDEST DUP10 DUP1 REVERT JUMPDEST SWAP1 SWAP3 SWAP9 SWAP6 SWAP5 POP SWAP3 SWAP1 SWAP3 PUSH2 0x4E55 JUMPI JUMPDEST POP POP POP POP POP POP POP POP POP POP JUMP JUMPDEST DUP5 SWAP1 DUP5 PUSH2 0x4ED3 JUMPI JUMPDEST POP POP POP POP POP DUP4 PUSH2 0x4E71 JUMPI JUMPDEST DUP1 DUP1 DUP1 DUP1 PUSH2 0x4E49 JUMP JUMPDEST DUP1 PUSH1 0xC SLOAD AND SWAP3 SLOAD AND SWAP1 DUP3 EXTCODESIZE ISZERO PUSH2 0x5C3 JUMPI SWAP2 DUP5 SWAP4 SWAP2 DUP7 DUP1 SWAP5 PUSH2 0x4EA5 SWAP8 MLOAD SWAP8 DUP9 SWAP6 DUP7 SWAP5 DUP6 SWAP4 PUSH4 0x48FEF595 PUSH1 0xE0 SHL DUP6 MSTORE DUP5 ADD PUSH2 0x46C5 JUMP JUMPDEST SUB SWAP3 GAS CALL SWAP1 DUP2 ISZERO PUSH2 0x4DBF JUMPI POP PUSH2 0x4EBF JUMPI JUMPDEST DUP1 DUP1 DUP1 DUP1 PUSH2 0x4E68 JUMP JUMPDEST PUSH2 0x4EC9 DUP3 SWAP2 PUSH2 0x3E5D JUMP JUMPDEST PUSH2 0x296 JUMPI DUP1 PUSH2 0x4EB6 JUMP JUMPDEST SLOAD AND DUP3 EXTCODESIZE ISZERO PUSH2 0x4E37 JUMPI SWAP2 PUSH2 0x4F00 SWAP4 SWAP2 DUP11 DUP1 SWAP5 DUP12 MLOAD SWAP7 DUP8 SWAP6 DUP7 SWAP5 DUP6 SWAP4 PUSH4 0x112CD223 PUSH1 0xE0 SHL DUP6 MSTORE DUP13 DUP6 ADD PUSH2 0x4241 JUMP JUMPDEST SUB SWAP3 GAS CALL DUP1 ISZERO PUSH2 0x4F2B JUMPI PUSH2 0x4F18 JUMPI JUMPDEST DUP1 DUP1 DUP4 DUP2 PUSH2 0x4E5D JUMP JUMPDEST PUSH2 0x4F24 SWAP1 SWAP7 SWAP2 SWAP7 PUSH2 0x3E5D JUMP JUMPDEST SWAP5 CODESIZE PUSH2 0x4F0F JUMP JUMPDEST DUP7 MLOAD RETURNDATASIZE DUP10 DUP3 RETURNDATACOPY RETURNDATASIZE SWAP1 REVERT JUMPDEST PUSH4 0x4E487B71 PUSH1 0xE0 SHL DUP15 MSTORE PUSH1 0x11 DUP11 MSTORE PUSH1 0x24 DUP15 REVERT JUMPDEST PUSH4 0x4E487B71 PUSH1 0xE0 SHL DUP14 MSTORE PUSH1 0x11 DUP10 MSTORE PUSH1 0x24 DUP14 REVERT JUMPDEST SWAP1 DUP1 SWAP3 SWAP7 POP DUP2 RETURNDATASIZE DUP4 GT PUSH2 0x4F88 JUMPI JUMPDEST PUSH2 0x4F73 DUP2 DUP4 PUSH2 0x3EC2 JUMP JUMPDEST DUP2 ADD SUB SLT PUSH2 0x4F84 JUMPI MLOAD SWAP4 CODESIZE DUP1 PUSH2 0x4D03 JUMP JUMPDEST DUP11 DUP1 REVERT JUMPDEST POP RETURNDATASIZE PUSH2 0x4F69 JUMP JUMPDEST DUP12 MLOAD RETURNDATASIZE DUP15 DUP3 RETURNDATACOPY RETURNDATASIZE SWAP1 REVERT JUMPDEST DUP3 DUP2 SWAP4 SWAP3 SWAP7 POP RETURNDATASIZE DUP4 GT PUSH2 0x4FC7 JUMPI JUMPDEST PUSH2 0x4FB1 DUP2 DUP4 PUSH2 0x3EC2 JUMP JUMPDEST DUP2 ADD SUB SLT PUSH2 0x4FC3 JUMPI MLOAD SWAP3 DUP6 SWAP1 DUP3 PUSH2 0x4CCF JUMP JUMPDEST DUP12 DUP1 REVERT JUMPDEST POP RETURNDATASIZE PUSH2 0x4FA7 JUMP JUMPDEST SWAP3 POP SWAP3 SWAP4 SWAP5 SWAP6 SWAP7 SWAP8 SWAP9 POP POP DUP8 DUP2 DUP2 RETURNDATASIZE DUP4 GT PUSH2 0x500E JUMPI JUMPDEST PUSH2 0x4FEE DUP2 DUP4 PUSH2 0x3EC2 JUMP JUMPDEST DUP2 ADD SUB SLT PUSH2 0x500A JUMPI MLOAD DUP12 SWAP8 SWAP7 SWAP6 SWAP5 SWAP4 SWAP3 SWAP2 DUP10 SWAP2 SWAP1 PUSH2 0x4CB9 PUSH2 0x4C8F JUMP JUMPDEST DUP13 DUP1 REVERT JUMPDEST POP RETURNDATASIZE PUSH2 0x4FE4 JUMP JUMPDEST DUP13 MLOAD RETURNDATASIZE DUP16 DUP3 RETURNDATACOPY RETURNDATASIZE SWAP1 REVERT JUMPDEST DUP7 DUP2 SUB PUSH2 0x5035 JUMPI JUMPDEST PUSH2 0x5030 SWAP1 PUSH2 0x4136 JUMP JUMPDEST PUSH2 0x4C2A JUMP JUMPDEST SWAP5 DUP8 DUP5 DUP8 PUSH1 0x1 DUP1 PUSH1 0xA0 SHL SUB DUP9 DUP2 PUSH1 0xC SLOAD AND SWAP2 PUSH2 0x506C PUSH1 0x4 SWAP2 DUP3 DUP12 ADD SLOAD AND SWAP7 MLOAD SWAP7 DUP8 SWAP6 DUP7 SWAP5 DUP6 SWAP5 PUSH4 0xDC4CE349 PUSH1 0xE0 SHL DUP7 MSTORE DUP6 ADD PUSH2 0x4915 JUMP JUMPDEST SUB SWAP2 GAS STATICCALL SWAP1 DUP2 ISZERO PUSH2 0x50C3 JUMPI DUP11 SWAP2 PUSH2 0x5094 JUMPI JUMPDEST POP PUSH2 0x508C SWAP1 PUSH2 0x5030 SWAP3 PUSH2 0x4113 JUMP JUMPDEST SWAP6 SWAP1 POP PUSH2 0x5027 JUMP JUMPDEST SWAP1 POP DUP5 DUP2 DUP2 RETURNDATASIZE DUP4 GT PUSH2 0x50BC JUMPI JUMPDEST PUSH2 0x50AB DUP2 DUP4 PUSH2 0x3EC2 JUMP JUMPDEST DUP2 ADD SUB SLT PUSH2 0x4E37 JUMPI MLOAD PUSH2 0x5030 PUSH2 0x507E JUMP JUMPDEST POP RETURNDATASIZE PUSH2 0x50A1 JUMP JUMPDEST DUP10 MLOAD RETURNDATASIZE DUP13 DUP3 RETURNDATACOPY RETURNDATASIZE SWAP1 REVERT JUMPDEST SWAP1 PUSH2 0x5124 PUSH1 0x0 DUP1 MLOAD PUSH1 0x20 PUSH2 0x5626 DUP4 CODECOPY DUP2 MLOAD SWAP2 MSTORE SWAP2 DUP4 PUSH1 0x0 MSTORE PUSH1 0x2 PUSH1 0x20 MSTORE PUSH1 0xC PUSH1 0x40 PUSH1 0x0 KECCAK256 ADD PUSH1 0x3 PUSH1 0xFF NOT DUP3 SLOAD AND OR SWAP1 SSTORE PUSH1 0xB PUSH1 0x20 MSTORE PUSH1 0xFF PUSH1 0x40 PUSH1 0x0 KECCAK256 SLOAD AND PUSH2 0x5129 JUMPI JUMPDEST PUSH1 0x40 MLOAD SWAP2 DUP3 SWAP2 PUSH1 0x20 DUP4 MSTORE PUSH1 0x20 DUP4 ADD SWAP1 PUSH2 0x4003 JUMP JUMPDEST SUB SWAP1 LOG2 JUMP JUMPDEST PUSH2 0x5132 DUP5 PUSH2 0x54E7 JUMP JUMPDEST PUSH2 0x5110 JUMP JUMPDEST SWAP1 SWAP5 SWAP4 SWAP3 PUSH1 0x60 SWAP3 PUSH1 0x80 DUP4 ADD SWAP7 DUP4 MSTORE PUSH1 0x1 DUP1 PUSH1 0xA0 SHL SUB AND PUSH1 0x20 DUP4 ADD MSTORE PUSH1 0x40 DUP3 ADD MSTORE ADD MSTORE JUMP JUMPDEST SWAP4 SWAP1 SWAP4 PUSH1 0x0 SWAP5 DUP2 DUP7 MSTORE PUSH1 0x20 SWAP4 PUSH1 0x3 DUP6 MSTORE PUSH1 0x40 SWAP5 DUP6 DUP9 KECCAK256 SWAP2 PUSH1 0x1 DUP1 PUSH1 0xA0 SHL SUB SWAP3 DUP4 DUP6 AND SWAP1 DUP2 DUP12 MSTORE DUP4 MSTORE PUSH1 0xFF DUP9 DUP12 KECCAK256 SLOAD AND ISZERO PUSH2 0x52D4 JUMPI JUMPDEST DUP6 DUP11 MSTORE PUSH1 0x3 DUP4 MSTORE DUP8 DUP11 KECCAK256 DUP2 DUP12 MSTORE DUP4 MSTORE DUP8 DUP11 KECCAK256 PUSH1 0x1 PUSH1 0xFF NOT DUP3 SLOAD AND OR SWAP1 SSTORE DUP6 DUP11 MSTORE PUSH1 0x5 DUP4 MSTORE DUP8 DUP11 KECCAK256 SWAP1 DUP11 MSTORE DUP3 MSTORE DUP6 DUP8 DUP11 KECCAK256 SSTORE DUP3 PUSH1 0xC SLOAD AND DUP1 EXTCODESIZE ISZERO PUSH2 0x4E37 JUMPI DUP9 SWAP2 DUP11 SWAP2 DUP7 DUP4 DUP10 PUSH2 0x51F4 DUP13 DUP15 MLOAD SWAP9 DUP10 SWAP8 DUP9 SWAP7 DUP8 SWAP6 PUSH4 0x95F41095 PUSH1 0xE0 SHL DUP8 MSTORE PUSH1 0x4 DUP8 ADD PUSH2 0x4211 JUMP JUMPDEST SUB SWAP3 GAS CALL DUP1 ISZERO PUSH2 0x52B7 JUMPI PUSH2 0x52C1 JUMPI JUMPDEST POP PUSH1 0x4 DUP2 DUP4 PUSH1 0xD SLOAD AND DUP9 MLOAD SWAP3 DUP4 DUP1 SWAP3 PUSH4 0x406AD645 PUSH1 0xE1 SHL DUP3 MSTORE GAS STATICCALL SWAP2 DUP3 ISZERO PUSH2 0x52B7 JUMPI DUP10 SWAP3 PUSH2 0x529A JUMPI JUMPDEST POP POP AND SWAP2 DUP3 PUSH2 0x523F JUMPI JUMPDEST POP POP POP POP POP POP POP JUMP JUMPDEST DUP3 EXTCODESIZE ISZERO PUSH2 0xA58 JUMPI SWAP1 DUP7 DUP1 SWAP5 SWAP4 SWAP3 PUSH2 0x526B DUP8 MLOAD SWAP9 DUP10 SWAP7 DUP8 SWAP6 DUP7 SWAP5 PUSH4 0xC228038D PUSH1 0xE0 SHL DUP7 MSTORE PUSH1 0x4 DUP7 ADD PUSH2 0x5137 JUMP JUMPDEST SUB SWAP3 GAS CALL SWAP1 DUP2 ISZERO PUSH2 0x4DBF JUMPI POP PUSH2 0x5286 JUMPI JUMPDEST DUP1 DUP1 DUP1 DUP1 DUP1 PUSH2 0x5236 JUMP JUMPDEST PUSH2 0x5290 DUP3 SWAP2 PUSH2 0x3E5D JUMP JUMPDEST PUSH2 0x296 JUMPI DUP1 PUSH2 0x527C JUMP JUMPDEST PUSH2 0x52B0 SWAP3 POP DUP1 RETURNDATASIZE LT PUSH2 0x890 JUMPI PUSH2 0x881 DUP2 DUP4 PUSH2 0x3EC2 JUMP JUMPDEST CODESIZE DUP1 PUSH2 0x522C JUMP JUMPDEST DUP8 MLOAD RETURNDATASIZE DUP12 DUP3 RETURNDATACOPY RETURNDATASIZE SWAP1 REVERT JUMPDEST PUSH2 0x52CD SWAP1 SWAP9 SWAP2 SWAP9 PUSH2 0x3E5D JUMP JUMPDEST SWAP7 CODESIZE PUSH2 0x5203 JUMP JUMPDEST DUP6 DUP11 MSTORE PUSH1 0x6 DUP4 MSTORE PUSH2 0x52E7 DUP6 DUP10 DUP13 KECCAK256 PUSH2 0x4438 JUMP JUMPDEST DUP1 DUP11 MSTORE PUSH1 0x8 DUP4 MSTORE PUSH2 0x52FA DUP7 DUP10 DUP13 KECCAK256 PUSH2 0x4179 JUMP JUMPDEST PUSH2 0x5190 JUMP JUMPDEST ISZERO PUSH2 0x5306 JUMPI JUMP JUMPDEST PUSH1 0x40 MLOAD PUSH3 0x461BCD PUSH1 0xE5 SHL DUP2 MSTORE PUSH1 0x20 PUSH1 0x4 DUP3 ADD MSTORE PUSH1 0x12 PUSH1 0x24 DUP3 ADD MSTORE PUSH18 0x11540E881CDD185ADA5B99C818DB1BDCD959 PUSH1 0x72 SHL PUSH1 0x44 DUP3 ADD MSTORE PUSH1 0x64 SWAP1 REVERT JUMPDEST PUSH1 0xD SLOAD PUSH1 0x40 MLOAD PUSH4 0x111A7989 PUSH1 0xE3 SHL DUP2 MSTORE PUSH1 0x20 SWAP3 SWAP2 PUSH1 0x1 PUSH1 0x1 PUSH1 0xA0 SHL SUB AND SWAP1 DUP4 DUP2 PUSH1 0x4 DUP2 DUP6 GAS STATICCALL SWAP1 DUP2 ISZERO PUSH2 0x42F5 JUMPI PUSH1 0x0 SWAP2 PUSH2 0x5411 JUMPI JUMPDEST POP ISZERO PUSH2 0x5400 JUMPI DUP3 PUSH1 0x4 SWAP2 PUSH1 0x40 MLOAD SWAP3 DUP4 DUP1 SWAP3 PUSH4 0x2EAA712B PUSH1 0xE2 SHL DUP3 MSTORE GAS STATICCALL SWAP3 DUP4 ISZERO PUSH2 0x42F5 JUMPI PUSH1 0x0 SWAP4 PUSH2 0x53CE JUMPI JUMPDEST POP POP PUSH1 0x9 ADD SLOAD PUSH1 0x3C DUP3 MUL SWAP2 DUP1 DUP4 DIV PUSH1 0x3C EQ SWAP1 ISZERO OR ISZERO PUSH2 0x4120 JUMPI PUSH2 0x3F78 SWAP2 PUSH2 0x53C7 SWAP2 PUSH2 0x44BA JUMP JUMPDEST TIMESTAMP LT PUSH2 0x52FF JUMP JUMPDEST DUP2 DUP2 SWAP5 SWAP3 SWAP4 SWAP5 RETURNDATASIZE DUP4 GT PUSH2 0x53F9 JUMPI JUMPDEST PUSH2 0x53E6 DUP2 DUP4 PUSH2 0x3EC2 JUMP JUMPDEST DUP2 ADD SUB SLT PUSH2 0x296 JUMPI POP MLOAD SWAP1 PUSH1 0x9 CODESIZE PUSH2 0x53A1 JUMP JUMPDEST POP RETURNDATASIZE PUSH2 0x53DC JUMP JUMPDEST POP PUSH2 0x3F78 SWAP2 POP PUSH1 0x9 ADD SLOAD TIMESTAMP LT PUSH2 0x52FF JUMP JUMPDEST SWAP1 DUP5 DUP3 DUP2 RETURNDATASIZE DUP4 GT PUSH2 0x543F JUMPI JUMPDEST PUSH2 0x5427 DUP2 DUP4 PUSH2 0x3EC2 JUMP JUMPDEST DUP2 ADD SUB SLT PUSH2 0x296 JUMPI POP PUSH2 0x5439 SWAP1 PUSH2 0x4084 JUMP JUMPDEST CODESIZE PUSH2 0x5375 JUMP JUMPDEST POP RETURNDATASIZE PUSH2 0x541D JUMP JUMPDEST PUSH1 0xD SLOAD PUSH1 0x40 MLOAD PUSH4 0x406AD645 PUSH1 0xE1 SHL DUP2 MSTORE PUSH1 0x1 PUSH1 0x1 PUSH1 0xA0 SHL SUB SWAP2 PUSH1 0x20 SWAP1 DUP3 SWAP1 PUSH1 0x4 SWAP1 DUP3 SWAP1 DUP7 AND GAS STATICCALL SWAP1 DUP2 ISZERO PUSH2 0x42F5 JUMPI PUSH1 0x0 SWAP2 PUSH2 0x54C9 JUMPI JUMPDEST POP AND SWAP2 DUP3 PUSH2 0x5489 JUMPI POP POP POP JUMP JUMPDEST DUP3 EXTCODESIZE ISZERO PUSH2 0xDBC JUMPI PUSH1 0x44 PUSH1 0x0 SWAP3 DUP4 PUSH1 0x40 MLOAD SWAP6 DUP7 SWAP5 DUP6 SWAP4 PUSH3 0xFF4A73 PUSH1 0xE8 SHL DUP6 MSTORE PUSH1 0x4 DUP6 ADD MSTORE PUSH1 0x24 DUP5 ADD MSTORE GAS CALL DUP1 ISZERO PUSH2 0x42F5 JUMPI PUSH2 0x54C0 JUMPI POP JUMP JUMPDEST PUSH2 0x3F78 SWAP1 PUSH2 0x3E5D JUMP JUMPDEST PUSH2 0x54E1 SWAP2 POP PUSH1 0x20 RETURNDATASIZE DUP2 GT PUSH2 0x890 JUMPI PUSH2 0x881 DUP2 DUP4 PUSH2 0x3EC2 JUMP JUMPDEST CODESIZE PUSH2 0x547C JUMP JUMPDEST PUSH1 0x0 JUMPDEST PUSH1 0xA SWAP1 DUP2 SLOAD SWAP2 DUP3 DUP3 LT ISZERO PUSH2 0x559C JUMPI DUP4 SWAP3 PUSH2 0x5503 DUP4 PUSH2 0x3E14 JUMP JUMPDEST SWAP5 SWAP1 SLOAD PUSH1 0x3 SWAP6 DUP7 SHL SHR EQ PUSH2 0x5522 JUMPI POP POP PUSH2 0x551D SWAP2 POP PUSH2 0x4136 JUMP JUMPDEST PUSH2 0x54EA JUMP JUMPDEST SWAP1 SWAP2 PUSH1 0x0 NOT SWAP2 DUP3 DUP2 ADD SWAP1 DUP2 GT PUSH2 0x4120 JUMPI PUSH2 0x296D PUSH2 0x5541 PUSH2 0x554D SWAP3 PUSH2 0x3E14 JUMP JUMPDEST SWAP1 SLOAD SWAP1 DUP8 SHL SHR SWAP3 PUSH2 0x3E14 JUMP JUMPDEST SWAP1 SSTORE DUP2 SLOAD DUP1 ISZERO PUSH2 0x5586 JUMPI DUP2 ADD SWAP3 PUSH2 0x5563 DUP5 PUSH2 0x3E14 JUMP JUMPDEST DUP2 SWAP4 SWAP2 SLOAD SWAP3 SHL SHL NOT AND SWAP1 SSTORE SSTORE PUSH1 0x0 MSTORE PUSH1 0xB PUSH1 0x20 MSTORE PUSH1 0x40 PUSH1 0x0 KECCAK256 PUSH1 0xFF NOT DUP2 SLOAD AND SWAP1 SSTORE JUMP JUMPDEST PUSH4 0x4E487B71 PUSH1 0xE0 SHL PUSH1 0x0 MSTORE PUSH1 0x31 PUSH1 0x4 MSTORE PUSH1 0x24 PUSH1 0x0 REVERT JUMPDEST POP POP POP POP JUMP JUMPDEST ISZERO PUSH2 0x55A9 JUMPI JUMP JUMPDEST PUSH1 0x40 MLOAD PUSH3 0x461BCD PUSH1 0xE5 SHL DUP2 MSTORE PUSH1 0x20 PUSH1 0x4 DUP3 ADD MSTORE PUSH1 0x10 PUSH1 0x24 DUP3 ADD MSTORE PUSH16 0x45503A207A65726F2061646472657373 PUSH1 0x80 SHL PUSH1 0x44 DUP3 ADD MSTORE PUSH1 0x64 SWAP1 REVERT JUMPDEST ISZERO PUSH2 0x55E8 JUMPI JUMP JUMPDEST PUSH1 0x40 MLOAD PUSH3 0x461BCD PUSH1 0xE5 SHL DUP2 MSTORE PUSH1 0x20 PUSH1 0x4 DUP3 ADD MSTORE PUSH1 0x15 PUSH1 0x24 DUP3 ADD MSTORE PUSH21 0x22A81D1037B7363C9020B236B4B726B0B730B3B2B9 PUSH1 0x59 SHL PUSH1 0x44 DUP3 ADD MSTORE PUSH1 0x64 SWAP1 REVERT INVALID 0x4C GASLIMIT PUSH2 0xC5B0 DIV DUP5 0x24 SMOD SHR GT ISZERO 0xE9 CALL 0xE3 0x25 BASEFEE PUSH15 0x21C21333D968F21097B7B72D12AD8B 0xE0 SMOD SWAP13 MSTORE8 AND MSIZE EQ SGT PREVRANDAO 0xCD 0x1F 0xD0 LOG4 CALLCODE DUP5 NOT 0x49 PUSH32 0x9722A3DAAFE3B4186F6B6457E06DFC24F0F2FB42E49FB4FA3FFA8ABB148CAB90 DUP11 0x1F 0xB8 CALLER JUMPDEST EXTCODEHASH SLT DUP11 ADDMOD 0xB2 MSIZE 0x4A CALL 0xE1 0xF 0xDD 0xE2 0xC5 0xCD SWAP12 SWAP3 0xE4 0x49 0xEE 0x25 0xDF ADD INVALID 0xBD LOG2 0xCB 0xEB 0xC5 SSTORE RETURNDATACOPY CODESIZE CALLCODE 0x25 0xF INVALID PUSH32 0x2D5143BCA164736F6C6343000814000A00000000000000000000000000000000 "},"methodIdentifiers":{"CREATOR_FEE_BPS()":"cc3cbd2a","PLATFORM_FEE_BPS()":"539aa77f","activeMarkets(uint256)":"3adfe6d0","adminManager()":"a210b6a4","assertionGracePeriod()":"93fcf24d","calculateWinnings(uint256,address)":"f15cc406","cancelMarket(uint256)":"7c16cd9e","cancelMarketNoAssertion(uint256)":"87a6b0ff","claimRefund(uint256)":"5b7baf64","claimWinnings(uint256)":"677bd9ff","createMarket(string,bool,uint256,address,uint256,uint256,uint256,uint256,uint256,uint8,address,uint256)":"66cf7ed4","creatorCancelMarket(uint256)":"c3436e0c","defaultBondCurrency()":"209c1c94","disputeOracle(uint256)":"5cb305a6","endMarket(uint256)":"157bdcce","getMarket(uint256)":"eb44fdd3","getMarketStakers(uint256)":"6f59359e","getNextMarketId()":"fe53a6e8","getOptionPool(uint256,uint256,address)":"dc4ce349","getStakerCount(uint256)":"0ccf4467","getSupportPool(uint256,address)":"4f44289d","getSupporterCount(uint256)":"a30a0914","getTotalPool(uint256,address)":"f00fe321","getUserStake(uint256,address,address)":"847cf782","getUserSupport(uint256,address,address)":"256ba741","isActiveMarket(uint256)":"0d64cdbd","markMarketDeleted(uint256)":"fb87f2c3","markMarketPermanentlyRemoved(uint256)":"e0bd4acc","marketCreationFee()":"2ef1bdfa","marketStakers(uint256,uint256)":"d5f82707","marketSupporters(uint256,uint256)":"c22c62c3","markets(uint256)":"b1283e77","nextMarketId()":"406ef2ef","optimisticOracle()":"22302922","owner()":"8da5cb5b","placeStake(uint256,uint256)":"f4867591","placeStakeWithToken(uint256,uint256,uint256)":"f1b7dde3","renounceOwnership()":"715018a6","requestP2PResolution(uint256,uint256,bytes)":"8d0d180e","resolveP2PMarket(uint256)":"6d4476ec","resolvePriceFeedMarket(uint256)":"9a3a40d6","setAdminManager(address)":"bc160758","setAssertionGracePeriod(uint256)":"818ef5f6","setDefaultBondCurrency(address)":"a550725d","setOptimisticOracle(address)":"bf5c3252","settleOracle(uint256)":"569946c5","supportMarket(uint256,uint256)":"f204072f","transferOwnership(address)":"f2fde38b","treasury()":"61d027b3","userHasStaked(uint256,address)":"304bf1f1","userHasSupported(uint256,address)":"287f57b5","userMarketHistory(address,uint256)":"98a17671","userStakeOptions(uint256,address)":"d8c5dd67","withdrawSupport(uint256)":"3e32a76c"}}}}}