{"contracts/P2PMarketManager.sol":{"EventPool":{"abi":[{"inputs":[{"internalType":"address","name":"initialOwner","type":"address"},{"internalType":"address payable","name":"_treasury","type":"address"},{"internalType":"address","name":"_verification","type":"address"},{"internalType":"address","name":"_analytics","type":"address"},{"internalType":"uint256","name":"_marketCreationFee","type":"uint256"}],"stateMutability":"nonpayable","type":"constructor"},{"inputs":[{"internalType":"address","name":"owner","type":"address"}],"name":"OwnableInvalidOwner","type":"error"},{"inputs":[{"internalType":"address","name":"account","type":"address"}],"name":"OwnableUnauthorizedAccount","type":"error"},{"inputs":[{"internalType":"address","name":"token","type":"address"}],"name":"SafeERC20FailedOperation","type":"error"},{"anonymous":false,"inputs":[{"indexed":true,"internalType":"uint256","name":"marketId","type":"uint256"},{"indexed":false,"internalType":"string","name":"reason","type":"string"}],"name":"MarketCancelled","type":"event"},{"anonymous":false,"inputs":[{"indexed":true,"internalType":"uint256","name":"marketId","type":"uint256"},{"indexed":true,"internalType":"address","name":"creator","type":"address"},{"indexed":false,"internalType":"string","name":"ipfsHash","type":"string"},{"indexed":false,"internalType":"bool","name":"isMultiOption","type":"bool"},{"indexed":false,"internalType":"uint256","name":"maxOptions","type":"uint256"},{"indexed":false,"internalType":"address","name":"paymentToken","type":"address"},{"indexed":false,"internalType":"uint256","name":"minStake","type":"uint256"}],"name":"MarketCreated","type":"event"},{"anonymous":false,"inputs":[{"indexed":true,"internalType":"uint256","name":"marketId","type":"uint256"},{"indexed":false,"internalType":"uint256","name":"endTime","type":"uint256"}],"name":"MarketEnded","type":"event"},{"anonymous":false,"inputs":[{"indexed":true,"internalType":"uint256","name":"marketId","type":"uint256"},{"indexed":false,"internalType":"uint256","name":"winningOption","type":"uint256"}],"name":"MarketResolved","type":"event"},{"anonymous":false,"inputs":[{"indexed":true,"internalType":"uint256","name":"marketId","type":"uint256"},{"indexed":true,"internalType":"address","name":"supporter","type":"address"},{"indexed":false,"internalType":"uint256","name":"amount","type":"uint256"}],"name":"MarketSupported","type":"event"},{"anonymous":false,"inputs":[{"indexed":true,"internalType":"address","name":"previousOwner","type":"address"},{"indexed":true,"internalType":"address","name":"newOwner","type":"address"}],"name":"OwnershipTransferred","type":"event"},{"anonymous":false,"inputs":[{"indexed":true,"internalType":"uint256","name":"marketId","type":"uint256"},{"indexed":true,"internalType":"address","name":"user","type":"address"},{"indexed":false,"internalType":"uint256","name":"amount","type":"uint256"}],"name":"RefundClaimed","type":"event"},{"anonymous":false,"inputs":[{"indexed":true,"internalType":"uint256","name":"marketId","type":"uint256"},{"indexed":true,"internalType":"address","name":"user","type":"address"},{"indexed":false,"internalType":"uint256","name":"option","type":"uint256"},{"indexed":false,"internalType":"uint256","name":"amount","type":"uint256"}],"name":"StakePlaced","type":"event"},{"anonymous":false,"inputs":[{"indexed":true,"internalType":"uint256","name":"marketId","type":"uint256"},{"indexed":true,"internalType":"address","name":"supporter","type":"address"},{"indexed":false,"internalType":"uint256","name":"amount","type":"uint256"}],"name":"SupportRewardClaimed","type":"event"},{"anonymous":false,"inputs":[{"indexed":true,"internalType":"uint256","name":"marketId","type":"uint256"},{"indexed":true,"internalType":"address","name":"supporter","type":"address"},{"indexed":false,"internalType":"uint256","name":"amount","type":"uint256"}],"name":"SupportWithdrawn","type":"event"},{"anonymous":false,"inputs":[{"indexed":true,"internalType":"uint256","name":"marketId","type":"uint256"},{"indexed":true,"internalType":"address","name":"user","type":"address"},{"indexed":false,"internalType":"uint256","name":"amount","type":"uint256"}],"name":"WinningsClaimed","type":"event"},{"inputs":[{"internalType":"uint256","name":"","type":"uint256"}],"name":"activeMarkets","outputs":[{"internalType":"uint256","name":"","type":"uint256"}],"stateMutability":"view","type":"function"},{"inputs":[{"internalType":"address","name":"token","type":"address"},{"internalType":"string","name":"symbol","type":"string"}],"name":"addSupportedToken","outputs":[],"stateMutability":"nonpayable","type":"function"},{"inputs":[],"name":"analytics","outputs":[{"internalType":"address","name":"","type":"address"}],"stateMutability":"view","type":"function"},{"inputs":[{"internalType":"uint256","name":"marketId","type":"uint256"}],"name":"autoResolve","outputs":[],"stateMutability":"nonpayable","type":"function"},{"inputs":[],"name":"bettingRestrictionEnabled","outputs":[{"internalType":"bool","name":"","type":"bool"}],"stateMutability":"view","type":"function"},{"inputs":[],"name":"bettingRestrictionMinutes","outputs":[{"internalType":"uint256","name":"","type":"uint256"}],"stateMutability":"view","type":"function"},{"inputs":[{"internalType":"address","name":"","type":"address"}],"name":"blacklistedWallets","outputs":[{"internalType":"bool","name":"","type":"bool"}],"stateMutability":"view","type":"function"},{"inputs":[{"internalType":"uint256","name":"marketId","type":"uint256"},{"internalType":"address","name":"user","type":"address"}],"name":"calculateWinnings","outputs":[{"internalType":"uint256","name":"","type":"uint256"}],"stateMutability":"view","type":"function"},{"inputs":[{"internalType":"uint256","name":"marketId","type":"uint256"}],"name":"cancelMarket","outputs":[],"stateMutability":"nonpayable","type":"function"},{"inputs":[{"internalType":"uint256","name":"marketId","type":"uint256"}],"name":"claimRefund","outputs":[],"stateMutability":"nonpayable","type":"function"},{"inputs":[{"internalType":"uint256","name":"marketId","type":"uint256"}],"name":"claimWinnings","outputs":[],"stateMutability":"nonpayable","type":"function"},{"inputs":[{"internalType":"string","name":"ipfsHash","type":"string"},{"internalType":"bool","name":"isMultiOption","type":"bool"},{"internalType":"uint256","name":"maxOptions","type":"uint256"},{"internalType":"address","name":"paymentToken","type":"address"},{"internalType":"uint256","name":"minStake","type":"uint256"},{"internalType":"uint256","name":"creatorDeposit","type":"uint256"},{"internalType":"uint256","name":"creatorOutcome","type":"uint256"},{"internalType":"uint256","name":"stakeDurationMinutes","type":"uint256"},{"internalType":"uint256","name":"resolutionDurationMinutes","type":"uint256"}],"name":"createMarket","outputs":[{"internalType":"uint256","name":"","type":"uint256"}],"stateMutability":"payable","type":"function"},{"inputs":[{"internalType":"uint256","name":"marketId","type":"uint256"}],"name":"creatorCancelMarket","outputs":[],"stateMutability":"nonpayable","type":"function"},{"inputs":[{"internalType":"uint256","name":"marketId","type":"uint256"},{"internalType":"string","name":"reason","type":"string"}],"name":"deleteMarket","outputs":[],"stateMutability":"nonpayable","type":"function"},{"inputs":[{"internalType":"uint256","name":"","type":"uint256"}],"name":"deletedMarkets","outputs":[{"internalType":"uint256","name":"","type":"uint256"}],"stateMutability":"view","type":"function"},{"inputs":[{"internalType":"uint256","name":"","type":"uint256"}],"name":"deletionTimestamp","outputs":[{"internalType":"uint256","name":"","type":"uint256"}],"stateMutability":"view","type":"function"},{"inputs":[{"internalType":"uint256","name":"marketId","type":"uint256"}],"name":"endMarket","outputs":[],"stateMutability":"nonpayable","type":"function"},{"inputs":[],"name":"getActiveMarketCount","outputs":[{"internalType":"uint256","name":"","type":"uint256"}],"stateMutability":"view","type":"function"},{"inputs":[],"name":"getActiveMarkets","outputs":[{"internalType":"uint256[]","name":"","type":"uint256[]"}],"stateMutability":"view","type":"function"},{"inputs":[],"name":"getAllMarketIds","outputs":[{"internalType":"uint256[]","name":"","type":"uint256[]"}],"stateMutability":"view","type":"function"},{"inputs":[],"name":"getDeletedMarkets","outputs":[{"internalType":"uint256[]","name":"","type":"uint256[]"}],"stateMutability":"view","type":"function"},{"inputs":[{"internalType":"uint256","name":"marketId","type":"uint256"}],"name":"getMarket","outputs":[{"components":[{"internalType":"address","name":"creator","type":"address"},{"internalType":"string","name":"ipfsHash","type":"string"},{"internalType":"bool","name":"isMultiOption","type":"bool"},{"internalType":"uint256","name":"maxOptions","type":"uint256"},{"internalType":"address","name":"paymentToken","type":"address"},{"internalType":"uint256","name":"minStake","type":"uint256"},{"internalType":"uint256","name":"creatorDeposit","type":"uint256"},{"internalType":"uint256","name":"creatorOutcome","type":"uint256"},{"internalType":"uint256","name":"startTime","type":"uint256"},{"internalType":"uint256","name":"stakeEndTime","type":"uint256"},{"internalType":"uint256","name":"endTime","type":"uint256"},{"internalType":"uint256","name":"resolutionEndTime","type":"uint256"},{"internalType":"enum EventPool.MarketState","name":"state","type":"uint8"},{"internalType":"uint256","name":"winningOption","type":"uint256"},{"internalType":"bool","name":"isResolved","type":"bool"}],"internalType":"struct EventPool.Market","name":"","type":"tuple"}],"stateMutability":"view","type":"function"},{"inputs":[{"internalType":"uint256","name":"marketId","type":"uint256"}],"name":"getMarketInfo","outputs":[{"components":[{"internalType":"address","name":"creator","type":"address"},{"internalType":"string","name":"ipfsHash","type":"string"},{"internalType":"bool","name":"isMultiOption","type":"bool"},{"internalType":"uint256","name":"maxOptions","type":"uint256"},{"internalType":"address","name":"paymentToken","type":"address"},{"internalType":"uint256","name":"minStake","type":"uint256"},{"internalType":"uint256","name":"creatorDeposit","type":"uint256"},{"internalType":"uint256","name":"creatorOutcome","type":"uint256"},{"internalType":"uint256","name":"startTime","type":"uint256"},{"internalType":"uint256","name":"stakeEndTime","type":"uint256"},{"internalType":"uint256","name":"endTime","type":"uint256"},{"internalType":"uint256","name":"resolutionEndTime","type":"uint256"},{"internalType":"enum EventPool.MarketState","name":"state","type":"uint8"},{"internalType":"uint256","name":"winningOption","type":"uint256"},{"internalType":"bool","name":"isResolved","type":"bool"}],"internalType":"struct EventPool.Market","name":"market","type":"tuple"},{"internalType":"uint256","name":"totalPool","type":"uint256"},{"internalType":"uint256","name":"supportPool","type":"uint256"},{"internalType":"uint256","name":"stakerCount","type":"uint256"},{"internalType":"uint256","name":"supporterCount","type":"uint256"},{"internalType":"address[]","name":"stakers","type":"address[]"},{"internalType":"address[]","name":"supporters","type":"address[]"},{"internalType":"string","name":"tokenSymbol","type":"string"}],"stateMutability":"view","type":"function"},{"inputs":[{"internalType":"uint256","name":"marketId","type":"uint256"}],"name":"getMarketStakers","outputs":[{"internalType":"address[]","name":"","type":"address[]"}],"stateMutability":"view","type":"function"},{"inputs":[{"internalType":"uint256","name":"marketId","type":"uint256"}],"name":"getMarketSupporters","outputs":[{"internalType":"address[]","name":"","type":"address[]"}],"stateMutability":"view","type":"function"},{"inputs":[],"name":"getMarketsReadyForRemoval","outputs":[{"internalType":"uint256[]","name":"","type":"uint256[]"}],"stateMutability":"view","type":"function"},{"inputs":[],"name":"getNextMarketId","outputs":[{"internalType":"uint256","name":"","type":"uint256"}],"stateMutability":"view","type":"function"},{"inputs":[{"internalType":"uint256","name":"marketId","type":"uint256"},{"internalType":"uint256","name":"option","type":"uint256"},{"internalType":"address","name":"token","type":"address"}],"name":"getOptionPool","outputs":[{"internalType":"uint256","name":"","type":"uint256"}],"stateMutability":"view","type":"function"},{"inputs":[],"name":"getPermanentlyRemovedMarkets","outputs":[{"internalType":"uint256[]","name":"","type":"uint256[]"}],"stateMutability":"view","type":"function"},{"inputs":[{"internalType":"uint256","name":"marketId","type":"uint256"}],"name":"getStakerCount","outputs":[{"internalType":"uint256","name":"","type":"uint256"}],"stateMutability":"view","type":"function"},{"inputs":[{"internalType":"uint256","name":"marketId","type":"uint256"},{"internalType":"address","name":"token","type":"address"}],"name":"getSupportPool","outputs":[{"internalType":"uint256","name":"","type":"uint256"}],"stateMutability":"view","type":"function"},{"inputs":[],"name":"getSupportedTokenCount","outputs":[{"internalType":"uint256","name":"","type":"uint256"}],"stateMutability":"view","type":"function"},{"inputs":[],"name":"getSupportedTokens","outputs":[{"internalType":"address[]","name":"tokens","type":"address[]"},{"internalType":"string[]","name":"symbols","type":"string[]"}],"stateMutability":"view","type":"function"},{"inputs":[{"internalType":"uint256","name":"marketId","type":"uint256"}],"name":"getSupporterCount","outputs":[{"internalType":"uint256","name":"","type":"uint256"}],"stateMutability":"view","type":"function"},{"inputs":[{"internalType":"uint256","name":"marketId","type":"uint256"},{"internalType":"address","name":"token","type":"address"}],"name":"getTotalPool","outputs":[{"internalType":"uint256","name":"","type":"uint256"}],"stateMutability":"view","type":"function"},{"inputs":[{"internalType":"address","name":"user","type":"address"}],"name":"getUserMarketHistory","outputs":[{"internalType":"uint256[]","name":"","type":"uint256[]"}],"stateMutability":"view","type":"function"},{"inputs":[{"internalType":"uint256","name":"marketId","type":"uint256"},{"internalType":"address","name":"user","type":"address"},{"internalType":"address","name":"token","type":"address"}],"name":"getUserStake","outputs":[{"internalType":"uint256","name":"","type":"uint256"}],"stateMutability":"view","type":"function"},{"inputs":[{"internalType":"uint256","name":"marketId","type":"uint256"},{"internalType":"address","name":"user","type":"address"},{"internalType":"address","name":"token","type":"address"}],"name":"getUserSupport","outputs":[{"internalType":"uint256","name":"","type":"uint256"}],"stateMutability":"view","type":"function"},{"inputs":[{"internalType":"uint256","name":"","type":"uint256"}],"name":"isActiveMarket","outputs":[{"internalType":"bool","name":"","type":"bool"}],"stateMutability":"view","type":"function"},{"inputs":[{"internalType":"uint256","name":"marketId","type":"uint256"}],"name":"isMarketActive","outputs":[{"internalType":"bool","name":"","type":"bool"}],"stateMutability":"view","type":"function"},{"inputs":[],"name":"marketCreationFee","outputs":[{"internalType":"uint256","name":"","type":"uint256"}],"stateMutability":"view","type":"function"},{"inputs":[{"internalType":"uint256","name":"","type":"uint256"},{"internalType":"uint256","name":"","type":"uint256"}],"name":"marketStakers","outputs":[{"internalType":"address","name":"","type":"address"}],"stateMutability":"view","type":"function"},{"inputs":[{"internalType":"uint256","name":"","type":"uint256"},{"internalType":"uint256","name":"","type":"uint256"}],"name":"marketSupporters","outputs":[{"internalType":"address","name":"","type":"address"}],"stateMutability":"view","type":"function"},{"inputs":[{"internalType":"uint256","name":"","type":"uint256"}],"name":"markets","outputs":[{"internalType":"address","name":"creator","type":"address"},{"internalType":"string","name":"ipfsHash","type":"string"},{"internalType":"bool","name":"isMultiOption","type":"bool"},{"internalType":"uint256","name":"maxOptions","type":"uint256"},{"internalType":"address","name":"paymentToken","type":"address"},{"internalType":"uint256","name":"minStake","type":"uint256"},{"internalType":"uint256","name":"creatorDeposit","type":"uint256"},{"internalType":"uint256","name":"creatorOutcome","type":"uint256"},{"internalType":"uint256","name":"startTime","type":"uint256"},{"internalType":"uint256","name":"stakeEndTime","type":"uint256"},{"internalType":"uint256","name":"endTime","type":"uint256"},{"internalType":"uint256","name":"resolutionEndTime","type":"uint256"},{"internalType":"enum EventPool.MarketState","name":"state","type":"uint8"},{"internalType":"uint256","name":"winningOption","type":"uint256"},{"internalType":"bool","name":"isResolved","type":"bool"}],"stateMutability":"view","type":"function"},{"inputs":[],"name":"minMarketDurationMinutes","outputs":[{"internalType":"uint256","name":"","type":"uint256"}],"stateMutability":"view","type":"function"},{"inputs":[],"name":"nextMarketId","outputs":[{"internalType":"uint256","name":"","type":"uint256"}],"stateMutability":"view","type":"function"},{"inputs":[],"name":"owner","outputs":[{"internalType":"address","name":"","type":"address"}],"stateMutability":"view","type":"function"},{"inputs":[{"internalType":"uint256","name":"marketId","type":"uint256"}],"name":"permanentlyRemoveMarket","outputs":[],"stateMutability":"nonpayable","type":"function"},{"inputs":[{"internalType":"uint256","name":"","type":"uint256"}],"name":"permanentlyRemovedMarkets","outputs":[{"internalType":"uint256","name":"","type":"uint256"}],"stateMutability":"view","type":"function"},{"inputs":[{"internalType":"uint256","name":"marketId","type":"uint256"},{"internalType":"uint256","name":"option","type":"uint256"}],"name":"placeStake","outputs":[],"stateMutability":"payable","type":"function"},{"inputs":[{"internalType":"uint256","name":"marketId","type":"uint256"},{"internalType":"uint256","name":"option","type":"uint256"},{"internalType":"uint256","name":"amount","type":"uint256"}],"name":"placeStakeWithToken","outputs":[],"stateMutability":"nonpayable","type":"function"},{"inputs":[{"internalType":"address","name":"token","type":"address"}],"name":"removeSupportedToken","outputs":[],"stateMutability":"nonpayable","type":"function"},{"inputs":[],"name":"renounceOwnership","outputs":[],"stateMutability":"nonpayable","type":"function"},{"inputs":[{"internalType":"uint256","name":"marketId","type":"uint256"},{"internalType":"uint256","name":"_winningOption","type":"uint256"}],"name":"resolveMarket","outputs":[],"stateMutability":"nonpayable","type":"function"},{"inputs":[{"internalType":"address","name":"_analytics","type":"address"}],"name":"setAnalytics","outputs":[],"stateMutability":"nonpayable","type":"function"},{"inputs":[{"internalType":"bool","name":"_enabled","type":"bool"},{"internalType":"uint256","name":"_restrictionMinutes","type":"uint256"}],"name":"setBettingRestriction","outputs":[],"stateMutability":"nonpayable","type":"function"},{"inputs":[{"internalType":"uint256","name":"_marketCreationFee","type":"uint256"}],"name":"setMarketCreationFee","outputs":[],"stateMutability":"nonpayable","type":"function"},{"inputs":[{"internalType":"uint256","name":"_minMarketDurationMinutes","type":"uint256"}],"name":"setMinMarketDuration","outputs":[],"stateMutability":"nonpayable","type":"function"},{"inputs":[{"internalType":"address","name":"_verification","type":"address"}],"name":"setVerification","outputs":[],"stateMutability":"nonpayable","type":"function"},{"inputs":[{"internalType":"address","name":"wallet","type":"address"},{"internalType":"bool","name":"blacklisted","type":"bool"}],"name":"setWalletBlacklist","outputs":[],"stateMutability":"nonpayable","type":"function"},{"inputs":[{"internalType":"uint256","name":"marketId","type":"uint256"},{"internalType":"uint256","name":"amount","type":"uint256"}],"name":"supportMarket","outputs":[],"stateMutability":"payable","type":"function"},{"inputs":[{"internalType":"uint256","name":"","type":"uint256"}],"name":"supportedTokenList","outputs":[{"internalType":"address","name":"","type":"address"}],"stateMutability":"view","type":"function"},{"inputs":[{"internalType":"address","name":"","type":"address"}],"name":"supportedTokens","outputs":[{"internalType":"bool","name":"","type":"bool"}],"stateMutability":"view","type":"function"},{"inputs":[{"internalType":"address","name":"","type":"address"}],"name":"tokenSymbols","outputs":[{"internalType":"string","name":"","type":"string"}],"stateMutability":"view","type":"function"},{"inputs":[{"internalType":"address","name":"newOwner","type":"address"}],"name":"transferOwnership","outputs":[],"stateMutability":"nonpayable","type":"function"},{"inputs":[],"name":"treasury","outputs":[{"internalType":"address payable","name":"","type":"address"}],"stateMutability":"view","type":"function"},{"inputs":[{"internalType":"uint256","name":"","type":"uint256"},{"internalType":"address","name":"","type":"address"}],"name":"userHasStaked","outputs":[{"internalType":"bool","name":"","type":"bool"}],"stateMutability":"view","type":"function"},{"inputs":[{"internalType":"uint256","name":"","type":"uint256"},{"internalType":"address","name":"","type":"address"}],"name":"userHasSupported","outputs":[{"internalType":"bool","name":"","type":"bool"}],"stateMutability":"view","type":"function"},{"inputs":[{"internalType":"address","name":"","type":"address"},{"internalType":"uint256","name":"","type":"uint256"}],"name":"userMarketHistory","outputs":[{"internalType":"uint256","name":"","type":"uint256"}],"stateMutability":"view","type":"function"},{"inputs":[{"internalType":"uint256","name":"","type":"uint256"},{"internalType":"address","name":"","type":"address"}],"name":"userStakeOptions","outputs":[{"internalType":"uint256","name":"","type":"uint256"}],"stateMutability":"view","type":"function"},{"inputs":[],"name":"verification","outputs":[{"internalType":"address","name":"","type":"address"}],"stateMutability":"view","type":"function"},{"inputs":[{"internalType":"uint256","name":"marketId","type":"uint256"}],"name":"withdrawSupport","outputs":[],"stateMutability":"nonpayable","type":"function"},{"stateMutability":"payable","type":"receive"}],"evm":{"bytecode":{"linkReferences":{},"object":"6080346200023457601f620061a138819003918201601f1916830191906001600160401b0383118484101762000239578160a09285926040958652833981010312620002345762000050826200024f565b6020838101519192916001600160a01b03908181169081900362000234576200007b8487016200024f565b938260806200008d60608a016200024f565b98015196169586156200021c57600080546001600160a01b03198082168a17835584519a9099929692909183167f8be0079c531659141344cd1fd0a4f28419497f9722a3daafe3b4186f6b6457e08880a38160019889600e55600560105560ff1996876011541660115560056012558b600b541617600b551689600c541617600c551687600d541617600d55600f558280526008845280832080548681811c9116801562000211575b86821014620001fd579081601f88949311620001d1575b506008635045505560e01b01905583805260078552832080549092161790556009549268010000000000000000841015620001bd57830180600955831015620001a957600981522001908154169055615f3c9081620002658239f35b634e487b7160e01b81526032600452602490fd5b634e487b7160e01b82526041600452602482fd5b818652601f878720910160051c8101905b818110620001f157506200014d565b868155889401620001e2565b634e487b7160e01b85526022600452602485fd5b90607f169062000136565b8151631e4fbdf760e01b815260006004820152602490fd5b600080fd5b634e487b7160e01b600052604160045260246000fd5b51906001600160a01b0382168203620002345756fe6080604052600436101561001b575b361561001957600080fd5b005b6000803560e01c806307adc191146145e25780630ccf4467146145b85780630d64cdbd14614589578063157bdcce146144ae57806317916e0114614490578063256ba741146143fb578063287f57b5146143b25780632b5ba3b9146143735780632b60c822146143485780632ef1bdfa1461432a578063304bf1f1146142e157806333d6b46e1461426e5780633adfe6d0146142435780633e32a76c14613fbd5780633ec7919314613cae578063406ef2ef14613c905780634584369514613c125780634f44289d14613bc95780634ffe2a8b14613ba05780635104996914613a3a5780635b7baf64146136955780635da3247a14613677578063605573331461365f57806361d027b314613636578063638b022c14612ac657806365ebce5514612a50578063677bd9ff1461267357806368c4ac26146126345780636d822220146125d05780636f59359e14612562578063715018a61461251a578063720138e81461225a57806374c350eb1461221557806376319190146120845780637c16cd9e14611fc057806380d5ac8a14611f9757806381b17d2914611f57578063847cf78214611f1357806387fea11014611e91578063881df9e114611e6657806388d3cc4814611e435780638da5cb5b14611e1c578063971f8bb114611dd757806398a1767114611d815780639f37022a14611d5e578063a30a091414611d34578063a5e973c314611cb2578063ad8e42ff14611c88578063b1138b5014611aaf578063b1283e77146119ab578063b85ed63614611921578063baa9c4ac14611903578063c22c62c3146118d1578063c3436e0c14611781578063c8a843b714611676578063ce67be2614611658578063d3c7c2c7146114e3578063d5f8270714611498578063d8c5dd6714611451578063db62c6de146113ac578063dc4ce34914611359578063e78d0117146112b2578063eb44fdd3146111aa578063f00fe32114611107578063f15cc40614610df8578063f1b7dde314610b40578063f204072f146107d1578063f2fde38b1461075b578063f486759114610425578063f849f69e146103b2578063fb0b2b361461035f5763fe53a6e81461033f575061000e565b3461035c578060031936011261035c576020600e54604051908152f35b80fd5b503461035c57602036600319011261035c576103ae9061039a906040906001600160a01b0361038c6147f9565b168152600860205220614b8d565b6040519182916020835260208301906148fe565b0390f35b503461035c57602036600319011261035c576004358152601460205260ff604082205416806103e9575b6020906040519015158152f35b50600160205260ff600c604083200154169060058210156104115750600460209114156103dc565b634e487b7160e01b81526021600452602490fd5b5061042f36614b2e565b908083526020600181526040842060ff600c820154166005811015610747576104589015614f4d565b60ff601154166106fe575b831515806106f0575b6104759061502d565b6004810180546001600160a01b039290831661069757600561049b910154341015615079565b858080803486600b54165af16104af614d96565b501561063b57908591848352600284526040832033600052845260ff604060002054161561060e575b84835260028452604083203360005284526040600020600160ff198254161790558483526004845260408320336000528452856040600020558180600b541691541690803b156105dc576040516395f4109560e01b8152918491839182908490829061054d908d903490338f60048701614e26565b03925af19081156106035783916105ef575b5050600d54168061058f575b50506040519283523490830152600080516020615ee783398151915260403393a380f35b803b156105eb5781604051809263c228038d60e01b82528183816105b9348c338d60048601614e6f565b03925af180156105e0571561056b576105d190614a5f565b6105dc57833861056b565b8380fd5b6040513d84823e3d90fd5b5080fd5b6105f890614a5f565b6105eb57813861055f565b6040513d85823e3d90fd5b8483526005845261062233604085206150be565b338352601584526106368560408520614d73565b6104d8565b60405162461bcd60e51b815260048101849052602e60248201527f4d61726b65744d616e616765723a20455448207472616e7366657220746f205460448201526d1c99585cdd5c9e4819985a5b195960921b6064820152608490fd5b60405162461bcd60e51b815260048101859052603d6024820152600080516020615de783398151915260448201527f746f6b656e732c2075736520706c61636542657457697468546f6b656e0000006064820152608490fd5b50600381015484111561046c565b600981015460125490603c820291808304603c14901517156107335761072e9161072791614f98565b4210614fa5565b610463565b634e487b7160e01b87526011600452602487fd5b634e487b7160e01b86526021600452602486fd5b503461035c57602036600319011261035c576107756147f9565b61077d614c33565b6001600160a01b039081169081156107b8576000548260018060a01b031982161760005516600080516020615e87833981519152600080a380f35b604051631e4fbdf760e01b815260048101849052602490fd5b506107db36614b2e565b908083526020600181526040842060ff600c820154166005811015610747576108049015614f4d565b6009810154421015610aef57600490338652600a835261082b60ff60408820541615614c5f565b6108368515156150e1565b0180546001600160a01b039190821680610a6c5750843403610a1b5761085d3415156150e1565b858080803486600b54165af1610871614d96565b50156109bf579085915b848352600384526040832033600052845260ff60406000205416156109a6575b84835260038452604083203360005284526040600020600160ff198254161790558180600b541691541690803b156105dc578684916108f4938360405180968195829463c15d980760e01b84528d33906004860161514a565b03925af1908115610603578391610992575b5050600d541680610942575b50507fc02bbaff19bde22745e7227aeb31741efd4bf98ebb8b48ac49dd40833fac6756906040519384523393a380f35b803b156105eb57818091606460405180948193638f46a5a160e01b83528960048401523360248401528a60448401525af180156105e057156109125761098790614a5f565b6105dc578338610912565b61099b90614a5f565b6105eb578138610906565b848352600684526109ba33604085206150be565b61089b565b60405162461bcd60e51b815260048101849052602e60248201527f4d61726b65744d616e616765723a20455448207472616e7366657220746f207460448201526d1c99585cdd5c9e4819985a5b195960921b6064820152608490fd5b60405162461bcd60e51b815260048101849052602360248201527f4d61726b65744d616e616765723a20496e636f72726563742045544820616d6f6044820152621d5b9d60ea1b6064820152608490fd5b34610a8b5790610a868684938995600b5416903390614eb5565b61087b565b60405162461bcd60e51b815260048101859052603660248201527f4d61726b65744d616e616765723a204e6f204554482073686f756c64206265206044820152751cd95b9d08199bdc881d1bdad95b881cdd5c1c1bdc9d60521b6064820152608490fd5b60405162461bcd60e51b815260048101839052602360248201527f4d61726b65744d616e616765723a20537570706f727420706572696f6420656e60448201526219195960ea1b6064820152608490fd5b503461035c57606036600319011261035c57600435602435906044358184526020600181526040852060ff600c820154166005811015610de457610b849015614f4d565b60ff60115416610da2575b84151580610d94575b610ba19061502d565b6004810180546001600160a01b0392908316908115610d46578589949392610bd26005610bdf940154831015615079565b84600b5416903390614eb5565b858352600284526040832033600052845260ff6040600020541615610d19575b85835260028452604083203360005284526040600020600160ff198254161790558583526004845260408320336000528452866040600020558180600b541691541690803b156105dc578584918993838a610c72604051978896879586946395f4109560e01b8652339060048701614e26565b03925af1908115610603578391610d05575b5050600d541680610cb2575b5050604051938452830152600080516020615ee783398151915260403393a380f35b803b156105eb5760405163c228038d60e01b81529082908290818381610cde8a8d338e60048601614e6f565b03925af180156105e05715610c9057610cf690614a5f565b610d01578438610c90565b8480fd5b610d0e90614a5f565b6105eb578138610c84565b85835260058452610d2d33604085206150be565b33835260158452610d418660408520614d73565b610bff565b60405162461bcd60e51b81526004810186905260326024820152600080516020615de7833981519152604482015271141154154b081d5cd9481c1b1858d950995d60721b6064820152608490fd5b506003810154851115610b98565b600981015460125490603c820291808304603c1490151715610dd057610dcb9161072791614f98565b610b8f565b634e487b7160e01b88526011600452602488fd5b634e487b7160e01b87526021600452602487fd5b503461035c57604036600319011261035c57600435610e156147e3565b9181815260209160018352604082209360ff600c8601541660058110156110f3576002610e429114615565565b600d850154610e528115156155bc565b828452600285526040842060018060a01b039384841691826000528752610e8060ff60406000205416615607565b84600b5416946040516307c7a72d60e01b8152888180610ea4898760048401614e56565b03818a5afa90811561106c5788916110a6575b50906004899a610ecc610eed9a9b9415615653565b0154168095604051988992839263423e7bc160e11b845286600485016151cc565b0381885afa95861561102e578796611077575b5060405163dc4ce34960e01b815293888580610f218488876004850161569f565b0381895afa94851561106c579089918996611039575b50610f5995966040518080988194633d1e7ba160e11b83528760048401614e56565b03915afa93841561102e578794610ffa575b5084610f80575050505050505b604051908152f35b869394959652600487526040832090600052865260406000205414600014610ff15761232891828102928184041490151715610fdd5750610fd89291610fcd612710610fd2930484614cfa565b6156c0565b90614d23565b610f78565b634e487b7160e01b81526011600452602490fd5b92505050610f78565b9093508781813d8311611027575b6110128183614aa9565b8101031261102257519238610f6b565b600080fd5b503d611008565b6040513d89823e3d90fd5b8281939297503d8311611065575b6110518183614aa9565b810103126110225751938890610f59610f37565b503d611047565b6040513d8a823e3d90fd5b9095508781813d831161109f575b61108f8183614aa9565b8101031261102257519438610f00565b503d611085565b90508881813d83116110ec575b6110bd8183614aa9565b810103126110e857906004899a610ecc6110db610eed9b9c956152ca565b939450509a999850610eb7565b8780fd5b503d6110b3565b634e487b7160e01b84526021600452602484fd5b503461035c57604036600319011261035c576111509060206111276147e3565b60018060a01b03600b54166040518080968194633d1e7ba160e11b835260043560048401614e56565b03915afa90811561119e579061116c575b602090604051908152f35b506020813d8211611196575b8161118560209383614aa9565b810103126110225760209051611161565b3d9150611178565b604051903d90823e3d90fd5b503461035c57602036600319011261035c5760406103ae916111ca615d24565b50600435815260016020522060ff600e604051926111e784614a72565b80546001600160a01b03908116855261120260018301614b8d565b60208601528360028301541615156040860152600382015460608601526004820154166080850152600581015460a0850152600681015460c0850152600781015460e085015260088101546101008501526009810154610120850152600a810154610140850152600b81015461016085015261128883600c830154166101808601614d3f565b600d8101546101a085015201541615156101c0820152604051918291602083526020830190614961565b503461035c57604036600319011261035c576004358015159081810361102257602435916112de614c33565b60ff8019601154169116176011556112f4575080f35b80156113005760125580f35b60405162461bcd60e51b815260206004820152602b60248201527f4d61726b65744d616e616765723a20496e76616c69642072657374726963746960448201526a37b710323ab930ba34b7b760a91b6064820152608490fd5b503461035c57606036600319011261035c57604435906001600160a01b0380831683036110225761115092602091600b5416604051808096819463dc4ce34960e01b83526024356004356004850161569f565b503461035c57604036600319011261035c576113c66147f9565b6113ce614b44565b906113d7614c33565b6001600160a01b03169081156113fe576113fb918352600a60205260408320614d62565b80f35b60405162461bcd60e51b815260206004820152602560248201527f4d61726b65744d616e616765723a20496e76616c69642077616c6c6574206164604482015264647265737360d81b6064820152608490fd5b503461035c57604036600319011261035c57604061146d6147e3565b9160043581526004602052209060018060a01b03166000526020526020604060002054604051908152f35b503461035c576114a736614b2e565b9190815260056020526040812090815483101561035c5760206114ca84846148ab565b905460405160039290921b1c6001600160a01b03168152f35b503461035c578060031936011261035c5760095461150081615b9c565b9061150e6040519283614aa9565b808252601f19928361151f83615b9c565b0193602094368686013761153283615b9c565b926115406040519485614aa9565b8084528161154d82615b9c565b01835b818110611649575050825b8181106115d457505061157960405194604086526040860190614a22565b94848603818601528351918287528187019082808560051b8a0101960194975b8489106115a65787870388f35b90919293949584806115c2838686600196030188528a516148fe565b98019401980197919094939294611599565b806115e56116409298949598614844565b90546001600160a01b039160039190821b1c8216611603848b615bb3565b5261160d83614844565b9054911b1c1688526008845261162560408920614b8d565b61162f8288615bb3565b5261163a8187615bb3565b50614d30565b9592919561155b565b60608682018901528701611550565b503461035c578060031936011261035c576020600954604051908152f35b503461035c578060031936011261035c5760165461169381615d94565b8291835b8181106116e45750506116a982615d94565b925b8281106116c057604051806103ae86826148c3565b806116ce6116df9284615bb3565b516116d98287615bb3565b52614d30565b6116ab565b6116ed81614890565b90549060031b1c80865260206001815260ff600c60408920015416600581101561176d57600414908161174a575b50611730575b5061172b90614d30565b611697565b84611743916116d961172b949787615bb3565b9390611721565b6017915082885252604086205462278d008101809111610733574210153861171b565b634e487b7160e01b88526021600452602488fd5b503461035c57602036600319011261035c5760043580825260016020526040822080546001600160a01b0316330361187d5760ff600c8201541660058110156110f357906117d160099215614f4d565b015461a8bf1981019081116118695742101561181a576040516113fb916117f782614a8e565b601182527010dc99585d1bdc8818d85b98d95b1b1959607a1b60208301526156e0565b60405162461bcd60e51b815260206004820152602160248201527f4d61726b65744d616e616765723a20546f6f206c61746520746f2063616e63656044820152601b60fa1b6064820152608490fd5b634e487b7160e01b83526011600452602483fd5b60405162461bcd60e51b815260206004820152602660248201527f4d61726b65744d616e616765723a204f6e6c792063726561746f722063616e2060448201526518d85b98d95b60d21b6064820152608490fd5b503461035c576118e036614b2e565b9190815260066020526040812090815483101561035c5760206114ca84846148ab565b503461035c578060031936011261035c576020601254604051908152f35b503461035c578060031936011261035c57600e54600019908181018181116119975761194c90615d94565b9160015b82811061196557604051806103ae86826148c3565b8181018181116119835790806116d961197e9387615bb3565b611950565b634e487b7160e01b86526011600452602486fd5b634e487b7160e01b84526011600452602484fd5b503461035c57602036600319011261035c576004358152600160205260409020600160a01b600190038082541691600181016119e690614b8d565b91600282015460ff16916003810154916004820154166005820154600683015460078401546008850154600986015491600a87015493600b88015495600c89015460ff1697600d8a015499600e015460ff169a6040519e8f9e8f9182526101e08060208401528201611a57916148fe565b9d151560408201526060015260808d015260a08c015260c08b015260e08a01526101008901526101208801526101408701526101608601526101808501611a9d9161493e565b6101a084015215156101c08301520390f35b503461035c57602036600319011261035c576004359081815260016020526040812091600c830192835460ff8116946005861015611c7457611af760016024959697146151ec565b600e8301928354611b0b60ff821615615249565b600c5460408051633313865560e21b8152600481018a9052976001600160a01b039692899190829089165afa968715611c695789908a98611c35575b5015611be457889587600d6002950155600160ff1980941617905516179055611b6f84615744565b600d541680611b97575b50506020600080516020615ea783398151915291604051908152a280f35b803b156105eb5781809160446040518094819362ff4a7360e81b83528960048401528860248401525af180156105e05715611b7957611bd590614a5f565b611be0578238611b79565b8280fd5b60405162461bcd60e51b8152602060048201526024808201527f4d61726b65744d616e616765723a204e6f207265736f6c7574696f6e2072656160448201526318da195960e21b6064820152608490fd5b9050611c5a91975060403d604011611c62575b611c528183614aa9565b8101906152d7565b969038611b47565b503d611c48565b6040513d8b823e3d90fd5b634e487b7160e01b85526021600452602485fd5b503461035c57602036600319011261035c5760406020916004358152601783522054604051908152f35b503461035c578060031936011261035c57604051601380548083529083526020808301937f66de8ffda797e3de9c05e8fc57b3bf0ec28a930d40b0d285d93c06501cf6a09092915b828210611d1d576103ae85611d1181890382614aa9565b604051918291826148c3565b835486529485019460019384019390910190611cfa565b503461035c57602036600319011261035c5760406020916004358152600683522054604051908152f35b503461035c57602036600319011261035c57611d78614c33565b600435600f5580f35b503461035c57604036600319011261035c57611d9b6147f9565b6001600160a01b031681526015602052604081208054602435929083101561035c576020611dc984846148ab565b90546040519160031b1c8152f35b503461035c57602036600319011261035c57611df16147f9565b611df9614c33565b600c80546001600160a01b0319166001600160a01b039290921691909117905580f35b503461035c578060031936011261035c57546040516001600160a01b039091168152602090f35b503461035c578060031936011261035c57602060ff601154166040519015158152f35b503461035c57602036600319011261035c576004359060165482101561035c576020611dc983614890565b503461035c576020806003193601126105eb576004358252600681526040822091604051809384918482549182815201918452848420935b85828210611ef457505050611ee092500383614aa9565b6103ae604051928284938452830190614a22565b85546001600160a01b0316845260019586019588955093019201611ec9565b503461035c57611150906020611f283661480f565b600b5460405163423e7bc160e11b81529687946001600160a01b039092169385938493909190600485016151cc565b503461035c57602036600319011261035c576004356018548110156105eb576018600052600080516020615e678339815191520154604051908152602090f35b503461035c578060031936011261035c57600d546040516001600160a01b039091168152602090f35b503461035c57602036600319011261035c576004358082526001602052604082209060ff600c8301541660058110156110f3576001611fff91146151ec565b600b820154421061202c5761201e60ff600e6113fb9401541615615249565b612026615295565b906156e0565b60405162461bcd60e51b815260206004820152602a60248201527f4d61726b65744d616e616765723a205265736f6c7574696f6e20706572696f64604482015269081b9bdd08195b99195960b21b6064820152608490fd5b503461035c57602036600319011261035c5761209e6147f9565b6120a6614c33565b6001600160a01b039081169081156121be5781835260076020526120d060ff604085205416614cb5565b81835260076020526040832060ff19815416905560086020526120f560408420615b53565b825b6009805490818310156121b65783918561211085614844565b949054600395861b1c16146121305750505061212b90614d30565b6120f7565b91945092916000199182810190811161073357906121618461215461218094614844565b905490891b1c1691614844565b90919082549060031b9160018060a01b03809116831b921b1916179055565b825480156121a257019261219384614844565b81939154921b1b191690555580f35b634e487b7160e01b86526031600452602486fd5b505050505080f35b60405162461bcd60e51b815260206004820152602960248201527f4d61726b65744d616e616765723a2043616e6e6f742072656d6f7665206e617460448201526834bb32903a37b5b2b760b91b6064820152608490fd5b503461035c57602036600319011261035c5761222f6147f9565b612237614c33565b600d80546001600160a01b0319166001600160a01b039290921691909117905580f35b503461035c57604036600319011261035c576122746147f9565b60246001600160401b038135818111610d0157612295903690600401614ae7565b61229d614c33565b6001600160a01b0384169182156124c957815115612479578286526020926007845260ff6040882054166124265786526007835260408620926001938460ff198254161790556008815260408720928051928311612413579082916123028554614b53565b601f81116123da575b5081601f84116001146123775750889261236c575b5050600019600383901b1c191690831b1790555b60095491600160401b831015612358575081612161916113fb949301600955614844565b634e487b7160e01b60009081526041600452fd5b015190503880612320565b9190869450601f198416868b52838b20938b905b8282106123c157505084116123a8575b505050811b019055612334565b015160001960f88460031b161c1916905538808061239b565b848401518655899790950194938401939081019061238b565b61240390868b52838b20601f860160051c810191858710612409575b601f0160051c0190614d4b565b3861230b565b90915081906123f6565b634e487b7160e01b885260416004528588fd5b60405162461bcd60e51b8152600481018590526026818701527f4d61726b65744d616e616765723a20546f6b656e20616c7265616479207375706044820152651c1bdc9d195960d21b6064820152608490fd5b60405162461bcd60e51b8152602060048201526023818601527f4d61726b65744d616e616765723a20496e76616c696420746f6b656e2073796d604482015262189bdb60ea1b6064820152608490fd5b60405162461bcd60e51b8152602060048201528085018590527f4d61726b65744d616e616765723a20496e76616c696420746f6b656e206164646044820152637265737360e01b6064820152608490fd5b503461035c578060031936011261035c57612533614c33565b600080546001600160a01b0319811682556001600160a01b0316600080516020615e878339815191528280a380f35b503461035c576020806003193601126105eb576004358252600581526040822091604051809384918482549182815201918452848420935b858282106125b157505050611ee092500383614aa9565b85546001600160a01b031684526001958601958895509301920161259a565b503461035c578060031936011261035c5760405160188054808352908352602080830193600080516020615e6783398151915292915b82821061261d576103ae85611d1181890382614aa9565b835486529485019460019384019390910190612606565b503461035c57602036600319011261035c5760209060ff906040906001600160a01b0361265f6147f9565b168152600784522054166040519015158152f35b503461035c576020908160031936011261035c576004359182825260018152604082209260ff600c8501541660058110156110f35760026126b49114615565565b600d840154916126c58315156155bc565b81845260028152604084203360005281526126e760ff60406000205416615607565b600b546040516307c7a72d60e01b81526001600160a01b03918216949190838180612716338960048401614e56565b0381895afa801561102e578790612a16575b612733915015615653565b600487015416906040519063423e7bc160e11b825283828061275a86338a600485016151cc565b0381895afa91821561102e5787926129e7575b506040519063dc4ce34960e01b9889835285838061279088868c6004850161569f565b03818b5afa928315611c695789936129b8575b50889960036001920154915b82811115612921575050604051634f44289d60e01b8152899594939291508a8782806127df898d60048401614e56565b03818d5afa91821561102e5787926128ed575b50906127fd91614d23565b908261288a575050505081945b803b15611be0578583916128379383604051809681958294632f0041ed60e11b8452338d6004860161514a565b03925af180156105e057612876575b50507f5380cf6fe903b40c6d5a9e0dfbca2f3a423f0a21520b4d5947ed5169bdba946d906040519384523393a380f35b61287f90614a5f565b6105dc578385612846565b87869293949596526004875260408220336000528752604060002054146000146128e1575061232890818102918183041490151715610dd05791610fd26128db92610fcd6127108b97960484614cfa565b9461280a565b9392505050819461280a565b88809298508193503d831161291a575b6129078183614aa9565b81010312611022575189956127fd6127f2565b503d6128fd565b838103612937575b61293290614d30565b6127af565b9a61295688888c8f8d604051958694859384938b85526004850161569f565b03915afa9081156129ad578c9161297e575b506129769061293292614d23565b9b9050612929565b90508881813d83116129a6575b6129958183614aa9565b810103126110225751612932612968565b503d61298b565b6040513d8e823e3d90fd5b9092508581813d83116129e0575b6129d08183614aa9565b81010312611022575191386127a3565b503d6129c6565b9091508381813d8311612a0f575b6129ff8183614aa9565b810103126110225751903861276d565b503d6129f5565b508381813d8311612a49575b612a2c8183614aa9565b81010312612a4557612a40612733916152ca565b612728565b8680fd5b503d612a22565b503461035c578060031936011261035c57604051601680548083529083526020808301937fd833147d7dc355ba459fc788f669e58cfaf9dc25ddcd0702e87d69c7b512428992915b828210612aaf576103ae85611d1181890382614aa9565b835486529485019460019384019390910190612a98565b5061012036600319011261035c576004356001600160401b0381116105eb57612af3903690600401614ae7565b90612afc614b44565b6064356001600160a01b038116900361102257338252600a602052612b2860ff60408420541615614c5f565b8251156135f25760026044351015806135e5575b1561359557608435156135515760a435156134fd5760c4351515806134ef575b1561349b5760105460e435106134545760e43561010435106133f25780156133b8576064356001600160a01b031615613355576064356001600160a01b031682526007602052604082205460ff1615613306575b600f5434106132b057603c60e4350260e4358104603c1460e43515171561186957612bdb9042614d23565b91603c6101043502610104358104603c146101043515171561329c57612c019042614d23565b926202a3008401841161329c576202a300600e5494612c1f86614d30565b600e5560405192612c2f84614a72565b3384528760208501528515156040850152604435606085015260018060a01b0360643516608085015260843560a085015260a43560c085015260c43560e085015242610100850152610120840152806101408401520161016082015281610180820152816101a0820152816101c08201528382526001602052604082209060018060a01b0381511660018060a01b0319835416178255602081015180519060018060401b038211613288578190612ce96001860154614b53565b601f8111613255575b50602090601f83116001146131e65786926131db575b50508160011b916000199060031b1c19161760018301555b612d336040820151151560028401614d62565b606081015160038301556004820160018060a01b0360808301511660018060a01b031982541617905560a0810151600583015560c0810151600683015560e0810151600783015561010081015160088301556101208101516009830155610140810151600a830155610160810151600b830155600c82016101808201516005811015611c7457612de79392600e926101c09260ff801983541691161790556101a0810151600d850155015115159101614d62565b601354600160401b8110156131c55783612e0a826001612e239401601355614875565b90919082549060031b91821b91600019901b1916179055565b828152601460205260408120805460ff191660011790556064356001600160a01b031661312b57600f54612e5960a43582614d23565b34106130f95781808080612e819460018060a01b038254165af1612e7b614d96565b50614dc6565b8080808060a43560018060a01b03600b54165af1612e9d614d96565b5015613091575b828152600260205260408120336000526020526040600020600160ff198254161790558281526004602052604081203360005260205260c4356040600020553381526015602052612ef88360408320614d73565b600b546001600160a01b0316803b156105eb576040516395f4109560e01b81529082908290818381612f3760c43560a435606435338e60048701614e26565b03925af180156105e05790829161307d575b5050600d546001600160a01b031680612fd0575b5050817fe47f69e204f188e4f9df6adc50c9cf0bd76c1cd85f34a8a3e8284064afb4fb82602094612f996040519160a0835260a08301906148fe565b9315158187015260443560408201526064356001600160a01b031660608201526084356080820152339381900390a3604051908152f35b803b156105eb5781604051809263782a780560e11b8252818381612ff8338b60048401614e56565b03925af180156105e057908291613069575b5050600d546001600160a01b0316803b156105eb5781604051809263c228038d60e01b825281838161304660a43560c435338d60048601614e6f565b03925af180156105e05715612f5d5761305f8291614a5f565b61035c5780612f5d565b61307290614a5f565b61035c57803861300a565b61308690614a5f565b61035c578038612f49565b60405162461bcd60e51b815260206004820152603a60248201527f4d61726b65744d616e616765723a2043726561746f72206465706f73697420746044820152791c985b9cd9995c881d1bc8151c99585cdd5c9e4819985a5b195960321b6064820152608490fd5b606460405162461bcd60e51b81526020600482015260206024820152600080516020615ec78339815191526044820152fd5b600f5480341061317857818080806131519460018060a01b038254165af1612e7b614d96565b600b546131739060a435906001600160a01b0390811690339060643516614eb5565b612ea4565b60405162461bcd60e51b81526020600482015260316024820152600080516020615ec783398151915260448201527020666f72206372656174696f6e2066656560781b6064820152608490fd5b634e487b7160e01b600052604160045260246000fd5b015190503880612d08565b9250600185018652602086209086935b601f198416851061323a576001945083601f19811610613221575b505050811b016001830155612d20565b015160001960f88460031b161c19169055388080613211565b818101518355602094850194600190930192909101906131f6565b6132829060018701885260208820601f850160051c8101916020861061240957601f0160051c0190614d4b565b38612cf2565b634e487b7160e01b85526041600452602485fd5b634e487b7160e01b82526011600452602482fd5b60405162461bcd60e51b815260206004820152602860248201527f4d61726b65744d616e616765723a20496e73756666696369656e74206372656160448201526774696f6e2066656560c01b6064820152608490fd5b60405162461bcd60e51b81526020600482015260336024820152600080516020615e0783398151915260448201527232b2103337b91036bab63a3496b7b83a34b7b760691b6064820152608490fd5b60405162461bcd60e51b815260206004820152603560248201527f4d61726b65744d616e616765723a204d756c74692d6f7074696f6e206d61726b60448201527432ba39903932b8bab4b93290281928103a37b5b2b760591b6064820152608490fd5b6064356001600160a01b031615612bb0576064356001600160a01b03168252600760205260408220546133ed9060ff16614cb5565b612bb0565b60405162461bcd60e51b815260206004820152603460248201527f4d61726b65744d616e616765723a205265736f6c7574696f6e206d7573742062604482015273194818599d195c881cdd185ad9481c195c9a5bd960621b6064820152608490fd5b60405162461bcd60e51b815260206004820152602b6024820152600080516020615e4783398151915260448201526a35b290323ab930ba34b7b760a91b6064820152608490fd5b60405162461bcd60e51b815260206004820152602660248201527f4d61726b65744d616e616765723a20496e76616c69642063726561746f72206f6044820152657574636f6d6560d01b6064820152608490fd5b5060443560c4351115612b5c565b60405162461bcd60e51b815260206004820152602660248201527f4d61726b65744d616e616765723a20496e76616c69642063726561746f722064604482015265195c1bdcda5d60d21b6064820152608490fd5b606460405162461bcd60e51b815260206004820152602060248201527f4d61726b65744d616e616765723a20496e76616c6964206d696e207374616b656044820152fd5b60405162461bcd60e51b815260206004820152602260248201527f4d61726b65744d616e616765723a20496e76616c6964206d6178206f7074696f6044820152616e7360f01b6064820152608490fd5b50600a6044351115612b3c565b606460405162461bcd60e51b815260206004820152602060248201527f4d61726b65744d616e616765723a20496e76616c6964204950465320686173686044820152fd5b503461035c578060031936011261035c57600b546040516001600160a01b039091168152602090f35b503461035c576113fb61367136614b2e565b906152f4565b503461035c578060031936011261035c576020601354604051908152f35b503461035c576020806003193601126105eb5760043580835260018252604083209160ff600c840154166005811015611c74576003036139ea57818452600281526040842033600052815260ff6040600020541680156139ca575b1561397c578392828552600282526040852033600052825260ff604060002054166138d6575b828552600382526040852033600052825260ff60406000205416613823575b83156137d357600b5460049091015485916001600160a01b039182169116803b15611be057858391613780938360405180968195829463164fcd7d60e21b8452338d6004860161514a565b03925af180156105e0576137bf575b50507ff3f402280ef0a7905e124aa621b65eaeb2725c343e8b36d398ed78c29daf285c906040519384523393a380f35b6137c890614a5f565b6105dc57833861378f565b60405162461bcd60e51b815260048101839052602260248201527f4d61726b65744d616e616765723a204e6f20726566756e6420617661696c61626044820152616c6560f01b6064820152608490fd5b9261385a908260018060a01b0380600b54169060048801541690604051808096819463256ba74160e01b8352338b600485016151cc565b03915afa9081156138cb57869161389a575b6138769250614d23565b928285526003825260408520336000528252604060002060ff198154169055613735565b90508282813d83116138c4575b6138b18183614aa9565b810103126110225761387691519061386c565b503d6138a7565b6040513d88823e3d90fd5b925061390d8160018060a01b0380600b54169060048701541690604051808095819463423e7bc160e11b8352338a600485016151cc565b03915afa908115613971578591613944575b50928285526002825260408520336000528252604060002060ff198154169055613716565b90508181813d831161396a575b61395b8183614aa9565b8101031261102257513861391f565b503d613951565b6040513d87823e3d90fd5b6084906040519062461bcd60e51b82526004820152602160248201527f4d61726b65744d616e616765723a204e6f207374616b6520746f20726566756e6044820152601960fa1b6064820152fd5b50818452600381526040842033600052815260ff604060002054166136f0565b6084906040519062461bcd60e51b82526004820152602360248201527f4d61726b65744d616e616765723a204d61726b6574206e6f742063616e63656c6044820152621b195960ea1b6064820152fd5b503461035c57604036600319011261035c576004356024356001600160401b038111611be057613a6e903690600401614ae7565b613a76614c33565b613a83600e548310615bc7565b81835260209060018252613aa460018060a01b036040862054161515615c12565b8284526001825260ff600c604086200154166005811015611c7457600414613b5b57828452600182526040808520600c01805460ff1916600417905583855260178352842042905560165491600160401b8310156131c557613b1f84612e0a856001600080516020615dc78339815191529701601655614890565b8385526014815260ff604086205416613b4d575b613b476040519282849384528301906148fe565b0390a280f35b613b5684615c6a565b613b33565b60405162461bcd60e51b815260048101839052601e60248201527f4d61726b65744d616e616765723a20416c72656164792064656c6574656400006044820152606490fd5b503461035c578060031936011261035c57600c546040516001600160a01b039091168152602090f35b503461035c57604036600319011261035c57611150906020613be96147e3565b60018060a01b03600b54166040518080968194634f44289d60e01b835260043560048401614e56565b503461035c57602036600319011261035c57600435613c2f614c33565b8015613c3b5760105580f35b60405162461bcd60e51b815260206004820152602760248201527f4d61726b65744d616e616765723a20496e76616c6964206d696e696d756d20646044820152663ab930ba34b7b760c91b6064820152608490fd5b503461035c578060031936011261035c576020600e54604051908152f35b503461035c576020806003193601126105eb57613dd360043591613cd0615d24565b50828452600190818152604085209360405195613cec87614a72565b85546001600160a01b039081168852613d06858801614b8d565b8489015260ff6002880154161515604089015260038701546060890152806004880154169160808901928352600588015460a08a0152600688015460c08a0152600788015460e08a015260ff600e60088a0154996101009a8b8d015260098101546101208d0152600a8101546101408d0152600b8101546101608d0152613d988c61018085600c850154169101614d3f565b600d8101546101a08d015201541615156101c08a015281600b54168583855116604051809a8192633d1e7ba160e11b83528960048401614e56565b0381845afa9788156105e0578298613f8c575b509085613e0e9284865116906040518080968194634f44289d60e01b83528b60048401614e56565b03915afa918215613f7f578192613f50575b5084815260058652604081205492600687526040822054946005885260408320968960405180998a918c825491828152019188528c8089209489915b838310613f375750505050613e7392500389614aa9565b83526006885260408320604051809a8a835492838152019286528a862091865b818110613f2257505050506040613f069794613f149a97948c9a9794613ec26103ae9f9e613ed096038d614aa9565b511681526008885220614b8d565b98613ee66040519d8d8f9e8f9081520190614961565b958c015260408b015260608a0152608089015287820360a0890152614a22565b9085820360c0870152614a22565b9083820360e08501526148fe565b835487168552938c0193928201928201613e93565b86548a168552958101958e955090930192018e8e613e5c565b9091508581813d8311613f78575b613f688183614aa9565b8101031261102257519038613e20565b503d613f5e565b50604051903d90823e3d90fd5b919097508582813d8311613fb6575b613fa58183614aa9565b810103126110225790519685613de6565b503d613f9b565b503461035c576020806003193601126105eb5760043580835260018252604083209160038152604084203385528152613ffc60ff604086205416615172565b60ff600c840154166005811015611c7457806141c45750600983015461a8bf1981019081116141b057421015614146575b60018060a01b03600481600b54169401541692846040519463256ba74160e01b865283868061406184338a600485016151cc565b0381865afa9586156105e0578296614117575b50614080861515615172565b823b156105eb576140ac928691836040518096819582946317be0b2f60e11b8452338c6004860161514a565b03925af18015613971576140f6575b50600080516020615e27833981519152908285526003815260408520336000528152604060002060ff1981541690556040519384523393a380f35b93614110600080516020615e278339815191529295614a5f565b93906140bb565b9095508381813d831161413f575b61412f8183614aa9565b810103126105eb57519438614074565b503d614125565b6084906040519062461bcd60e51b82526004820152603d60248201527f4d61726b65744d616e616765723a2043616e6e6f74207769746864726177207760448201527f697468696e20313220686f757273206f66207374616b696e6720656e640000006064820152fd5b634e487b7160e01b85526011600452602485fd5b60048114908115614238575b5061402d576084906040519062461bcd60e51b82526004820152603660248201527f4d61726b65744d616e616765723a2043616e6e6f7420776974686472617720696044820152756e2063757272656e74206d61726b657420737461746560501b6064820152fd5b6003915014386141d0565b503461035c57602036600319011261035c576004359060135482101561035c576020611dc983614875565b503461035c576020806003193601126105eb576001600160a01b036142916147f9565b1682526015815260408220916040518092808554928381520194835280832092905b8282106142ca576103ae85611d1181890382614aa9565b8354865294850194600193840193909101906142b3565b503461035c57604036600319011261035c5760ff60406020926143026147e3565b6004358252600285528282206001600160a01b03909116825284522054604051911615158152f35b503461035c578060031936011261035c576020600f54604051908152f35b503461035c57602036600319011261035c576004359060095482101561035c5760206114ca83614844565b503461035c57602036600319011261035c5760209060ff906040906001600160a01b0361439e6147f9565b168152600a84522054166040519015158152f35b503461035c57604036600319011261035c5760ff60406020926143d36147e3565b6004358252600385528282206001600160a01b03909116825284522054604051911615158152f35b503461035c5761443e602061440f3661480f565b600b5460405163256ba74160e01b81529586946001600160a01b039092169385938493909190600485016151cc565b03915afa9081156105e057829161445b575b602082604051908152f35b90506020813d8211614488575b8161447560209383614aa9565b810103126105eb57602091505138614450565b3d9150614468565b503461035c578060031936011261035c576020601054604051908152f35b503461035c57602036600319011261035c57600435808252600160205260408220600c81019081549060ff8216600581101561074757906144f1600a9215614f4d565b0154804210614531577e0b6feae4bec70344a7d0e99f4c0237adaaeee2fbb258266be400bd8612a33292600160209360ff1916179055604051908152a280f35b60405162461bcd60e51b815260206004820152602a60248201527f4d61726b65744d616e616765723a205265736f6c7574696f6e2074696d65206e6044820152691bdd081c995858da195960b21b6064820152608490fd5b503461035c57602036600319011261035c5760ff60406020926004358152601484522054166040519015158152f35b503461035c57602036600319011261035c5760406020916004358152600583522054604051908152f35b503461035c576020806003193601126105eb5760043590614601614c33565b61460e600e548310615bc7565b8183526001808252604084205461462f906001600160a01b03161515615c12565b82845280825260ff600c604086200154166005811015611c745760026146559114615565565b828452808252600b60408520015462278d0081018091116141b05742106147905782845280825283600e60408220828155614691848201615b53565b82600282015582600382015582600482015582600582015582600682015582600782015582600882015582600982015582600a82015582600b82015582600c82015582600d82015501558284526014825260ff604085205416614782575b60185490600160401b8210156132885781018060185581101561476e57600080516020615dc783398151915291836080926018875282872001556026604051918083528201527f5065726d616e656e746c792072656d6f76656420616674657220636c61696d206040820152651c195c9a5bd960d21b6060820152a280f35b634e487b7160e01b84526032600452602484fd5b61478b83615c6a565b6146ef565b60405162461bcd60e51b815260048101839052602560248201527f4d61726b65744d616e616765723a20436c61696d20706572696f64206e6f7420604482015264195b99195960da1b6064820152608490fd5b602435906001600160a01b038216820361102257565b600435906001600160a01b038216820361102257565b606090600319011261102257600435906001600160a01b03906024358281168103611022579160443590811681036110225790565b60095481101561485f57600960005260206000200190600090565b634e487b7160e01b600052603260045260246000fd5b60135481101561485f57601360005260206000200190600090565b60165481101561485f57601660005260206000200190600090565b805482101561485f5760005260206000200190600090565b6020908160408183019282815285518094520193019160005b8281106148ea575050505090565b8351855293810193928101926001016148dc565b919082519283825260005b84811061492a575050826000602080949584010152601f8019910116010190565b602081830181015184830182015201614909565b90600582101561494b5752565b634e487b7160e01b600052602160045260246000fd5b9060018060a01b039182815116825261498960208201516101e08060208601528401906148fe565b9260408201511515604084015260608201516060840152608082015116608083015260a081015160a083015260c081015160c083015260e081015160e08301526101008082015190830152610120808201519083015261014080820151908301526101608082015190830152614a08610180808301519084019061493e565b6101a080820151908301526101c080910151151591015290565b90815180825260208080930193019160005b828110614a42575050505090565b83516001600160a01b031685529381019392810192600101614a34565b6001600160401b0381116131c557604052565b6101e081019081106001600160401b038211176131c557604052565b604081019081106001600160401b038211176131c557604052565b601f909101601f19168101906001600160401b038211908210176131c557604052565b6001600160401b0381116131c557601f01601f191660200190565b81601f8201121561102257803590614afe82614acc565b92614b0c6040519485614aa9565b8284526020838301011161102257816000926020809301838601378301015290565b6040906003190112611022576004359060243590565b60243590811515820361102257565b90600182811c92168015614b83575b6020831014614b6d57565b634e487b7160e01b600052602260045260246000fd5b91607f1691614b62565b9060405191826000825492614ba184614b53565b908184526001948581169081600014614c105750600114614bcd575b5050614bcb92500383614aa9565b565b9093915060005260209081600020936000915b818310614bf8575050614bcb93508201013880614bbd565b85548884018501529485019487945091830191614be0565b915050614bcb94506020925060ff191682840152151560051b8201013880614bbd565b6000546001600160a01b03163303614c4757565b60405163118cdaa760e01b8152336004820152602490fd5b15614c6657565b60405162461bcd60e51b815260206004820152602160248201527f4d61726b65744d616e616765723a2057616c6c657420626c61636b6c697374656044820152601960fa1b6064820152608490fd5b15614cbc57565b60405162461bcd60e51b81526020600482015260226024820152600080516020615e07833981519152604482015261195960f21b6064820152608490fd5b81810292918115918404141715614d0d57565b634e487b7160e01b600052601160045260246000fd5b91908201809211614d0d57565b6000198114614d0d5760010190565b600582101561494b5752565b818110614d56575050565b60008155600101614d4b565b9060ff801983541691151516179055565b80549190600160401b8310156131c55782612e0a916001614bcb950181556148ab565b3d15614dc1573d90614da782614acc565b91614db56040519384614aa9565b82523d6000602084013e565b606090565b15614dcd57565b60405162461bcd60e51b815260206004820152602b60248201527f4d61726b65744d616e616765723a20466565207472616e7366657220746f206f60448201526a1ddb995c8819985a5b195960aa1b6064820152608490fd5b9081526001600160a01b039182166020820152911660408201526060810191909152608081019190915260a00190565b9081526001600160a01b03909116602082015260400190565b909493926060926080830196835260018060a01b0316602083015260408201520152565b6001600160a01b03918216815291166020820152604081019190915260600190565b9290600091614eee602094614ee0604051938492888401966323b872dd60e01b885260248501614e93565b03601f198101835282614aa9565b519082855af115614f41576000513d614f3857506001600160a01b0381163b155b614f165750565b604051635274afe760e01b81526001600160a01b039091166004820152602490fd5b60011415614f0f565b6040513d6000823e3d90fd5b15614f5457565b606460405162461bcd60e51b815260206004820152602060248201527f4d61726b65744d616e616765723a204d61726b6574206e6f74206163746976656044820152fd5b91908203918211614d0d57565b15614fac57565b60405162461bcd60e51b815260206004820152604d60248201527f4d61726b65744d616e616765723a205374616b696e6720706572696f6420656e60448201527f646564202d206e6f207374616b657320616c6c6f77656420696e20726573747260648201526c1a58dd1a5bdb881c195c9a5bd9609a1b608482015260a490fd5b1561503457565b60405162461bcd60e51b815260206004820152601d60248201527f4d61726b65744d616e616765723a20496e76616c6964206f7074696f6e0000006044820152606490fd5b1561508057565b60405162461bcd60e51b81526020600482015260226024820152600080516020615e478339815191526044820152616b6560f01b6064820152608490fd5b80549190600160401b8310156131c55782612161916001614bcb950181556148ab565b156150e857565b60405162461bcd60e51b815260206004820152603460248201527f4d61726b65744d616e616765723a20537570706f727420616d6f756e74206d75604482015273073742062652067726561746572207468616e20360641b6064820152608490fd5b9081526001600160a01b03918216602082015291166040820152606081019190915260800190565b1561517957565b60405162461bcd60e51b815260206004820152602560248201527f4d61726b65744d616e616765723a204e6f20737570706f727420746f20776974604482015264686472617760d81b6064820152608490fd5b9081526001600160a01b0391821660208201529116604082015260600190565b156151f357565b60405162461bcd60e51b815260206004820152602860248201527f4d61726b65744d616e616765723a204d61726b6574206e6f7420696e20656e64604482015267656420737461746560c01b6064820152608490fd5b1561525057565b60405162461bcd60e51b815260206004820152601f60248201527f4d61726b65744d616e616765723a20416c7265616479207265736f6c766564006044820152606490fd5b604051906152a282614a8e565b601982527814995cdbdb1d5d1a5bdb881c195c9a5bd908195e1c1a5c9959603a1b6020830152565b5190811515820361102257565b91908260409103126110225760206152ee836152ca565b92015190565b9060008281526001602052604090818120600c810160ff81541660058110156110f357600161532391146151ec565b84151580615557575b1561550557600e820161534360ff82541615615249565b600b8301544210156154f357600c548551633313865560e21b8152600481018990526001600160a01b03949187908290602490829089165afa80156154e9578890879288916154c6575b50826154bc575b50501561545557600d01869055805460ff1990811660011790915581541660021790556153c085615744565b600d5416806153e6575b5050600080516020615ea78339815191529160209151908152a2565b803b156105eb57818091604485518095819362ff4a7360e81b83528a60048401528960248401525af190811561544a575091600080516020615ea7833981519152939160209361543b575b50918193506153ca565b61544490614a5f565b38615431565b8351903d90823e3d90fd5b855162461bcd60e51b815260206004820152603a60248201527f4d61726b65744d616e616765723a20496e73756666696369656e7420766572696044820152793334b2b9103b37ba32b9903337b9103a3434b99037b83a34b7b760311b6064820152608490fd5b1490508738615394565b90506154e0919250883d8a11611c6257611c528183614aa9565b9190913861538d565b87513d88823e3d90fd5b505050505050614bcb90612026615295565b835162461bcd60e51b815260206004820152602560248201527f4d61726b65744d616e616765723a20496e76616c69642077696e6e696e67206f604482015264383a34b7b760d91b6064820152608490fd5b50600382015485111561532c565b1561556c57565b60405162461bcd60e51b815260206004820152602260248201527f4d61726b65744d616e616765723a204d61726b6574206e6f74207265736f6c76604482015261195960f21b6064820152608490fd5b156155c357565b606460405162461bcd60e51b815260206004820152602060248201527f4d61726b65744d616e616765723a204e6f2077696e6e696e67206f7074696f6e6044820152fd5b1561560e57565b60405162461bcd60e51b815260206004820152601e60248201527f4d61726b65744d616e616765723a204e6f207374616b6520706c6163656400006044820152606490fd5b1561565a57565b60405162461bcd60e51b815260206004820152601e60248201527f4d61726b65744d616e616765723a20416c726561647920636c61696d656400006044820152606490fd5b90815260208101919091526001600160a01b03909116604082015260600190565b81156156ca570490565b634e487b7160e01b600052601260045260246000fd5b90615724600080516020615dc783398151915291836000526001602052600c604060002001600360ff198254161790556040519182916020835260208301906148fe565b0390a2565b6001600160a01b039091168152602081019190915260400190565b6000908082526020906001825260409182842091849160019085600386015493600d870154945b80851115615a9d5750600b54600480890180549451634f44289d60e01b81526001600160a01b039a91999298958b16975094928a1693909290918686806157b58b87838f01614e56565b0381885afa958615615a935791889188938f98615a51575b506157f6976157db91614d23565b508c5163dc4ce34960e01b81529687928392868d850161569f565b0381865afa938415615a0c57859187918d96615a16575b508b51633d1e7ba160e11b815292918391829161582c918c8401614e56565b0381865afa948515615a0c578b956159d8575b50506101f49283850295851594868804148517156159c557612710809704938a851515948561595f575b505050501560001461591957505061251c80830292830414171561590657049283615897575b505050505050565b80600b541692541690823b1561590257918493918680946158cb97519788958694859363f0824f3360e01b85528401615729565b03925af19081156158f957506158e5575b8080808061588f565b6158ef8291614a5f565b61035c57806158dc565b513d84823e3d90fd5b8580fd5b634e487b7160e01b875260118352602487fd5b92509592505061592b57505050505050565b80600b541692541690823b1561590257918493918680946158cb9751978895869485936348fef59560e01b85528401615729565b5416813b156159c157918d918693838f61598d8e91519788968795869463112cd22360e01b86528501614e93565b03925af180156159b7576159a4575b808a81615869565b6159b0909b919b614a5f565b993861599c565b8b513d8e823e3d90fd5b8d80fd5b634e487b7160e01b8c526011885260248cfd5b9080929550813d8311615a05575b6159f08183614aa9565b81010312615a01575192388061583f565b8980fd5b503d6159e6565b8a513d8d823e3d90fd5b92839196508092503d8311615a4a575b615a308183614aa9565b81010312615a465751928490869061582c61580d565b8a80fd5b503d615a26565b92509290939495965081813d8311615a8c575b615a6e8183614aa9565b81010312615a8857519493929186918891906157db6157cd565b8c80fd5b503d615a64565b8c513d8f823e3d90fd5b91509192848103615abb575b615ab290614d30565b9291879161576b565b9487848760018060a01b03868b615af283600b5416936004809301541696519687958694859463dc4ce34960e01b8652850161569f565b03915afa908115615b49578a91615b1a575b50615b1290615ab292614d23565b959050615aa9565b90508481813d8311615b42575b615b318183614aa9565b81010312615a015751615ab2615b04565b503d615b27565b89513d8c823e3d90fd5b615b5d8154614b53565b9081615b67575050565b81601f60009311600114615b79575055565b908083918252615b98601f60208420940160051c840160018501614d4b565b5555565b6001600160401b0381116131c55760051b60200190565b805182101561485f5760209160051b010190565b15615bce57565b606460405162461bcd60e51b815260206004820152602060248201527f4d61726b65744d616e616765723a20496e76616c6964206d61726b65742049446044820152fd5b15615c1957565b60405162461bcd60e51b8152602060048201526024808201527f4d61726b65744d616e616765723a204d61726b657420646f6573206e6f7420656044820152631e1a5cdd60e21b6064820152608490fd5b60005b60139081549182821015615d1e578392615c8683614875565b949054600395861b1c14615ca5575050615ca09150614d30565b615c6d565b90916000199180830191908211614d0d57612e0a615cc5615cd193614875565b905490871b1c91614875565b81548015615d0857810192615ce584614875565b81939154921b1b19169055556000526014602052604060002060ff198154169055565b634e487b7160e01b600052603160045260246000fd5b50505050565b60405190615d3182614a72565b816101c0600091828152606060208201528260408201528260608201528260808201528260a08201528260c08201528260e08201528261010082015282610120820152826101408201528261016082015282610180820152826101a08201520152565b90615d9e82615b9c565b615dab6040519182614aa9565b8281528092615dbc601f1991615b9c565b019060203691013756fe4c4561c5b0048424071c1115e9f1e325486e21c21333d968f21097b7b72d12ad4d61726b65744d616e616765723a2054686973206d61726b65742075736573204d61726b65744d616e616765723a20546f6b656e206e6f7420737570706f7274fb349e367fa58e764f8867e52d91c7e0b9e6904700091667054ce1fdb56c496d4d61726b65744d616e616765723a2042656c6f77206d696e696d756d20737461b13d2d76d1f4b7be834882e410b3e3a8afaf69f83600ae24db354391d2378d2e8be0079c531659141344cd1fd0a4f28419497f9722a3daafe3b4186f6b6457e06dfc24f0f2fb42e49fb4fa3ffa8abb148cab908a1fb8335b3f128a08b2594af14d61726b65744d616e616765723a20496e73756666696369656e742050455055e10fdde2c5cd9b92e449ee25df01febda2cbebc5553e38f2250ffe7f2d5143bca2646970667358221220d02b039fe239f9adf314ba65f26771901f015aecfd3ecafb78a91e230b2a84af64736f6c63430008140033","opcodes":"PUSH1 0x80 CALLVALUE PUSH3 0x234 JUMPI PUSH1 0x1F PUSH3 0x61A1 CODESIZE DUP2 SWAP1 SUB SWAP2 DUP3 ADD PUSH1 0x1F NOT AND DUP4 ADD SWAP2 SWAP1 PUSH1 0x1 PUSH1 0x1 PUSH1 0x40 SHL SUB DUP4 GT DUP5 DUP5 LT OR PUSH3 0x239 JUMPI DUP2 PUSH1 0xA0 SWAP3 DUP6 SWAP3 PUSH1 0x40 SWAP6 DUP7 MSTORE DUP4 CODECOPY DUP2 ADD SUB SLT PUSH3 0x234 JUMPI PUSH3 0x50 DUP3 PUSH3 0x24F JUMP JUMPDEST PUSH1 0x20 DUP4 DUP2 ADD MLOAD SWAP2 SWAP3 SWAP2 PUSH1 0x1 PUSH1 0x1 PUSH1 0xA0 SHL SUB SWAP1 DUP2 DUP2 AND SWAP1 DUP2 SWAP1 SUB PUSH3 0x234 JUMPI PUSH3 0x7B DUP5 DUP8 ADD PUSH3 0x24F JUMP JUMPDEST SWAP4 DUP3 PUSH1 0x80 PUSH3 0x8D PUSH1 0x60 DUP11 ADD PUSH3 0x24F JUMP JUMPDEST SWAP9 ADD MLOAD SWAP7 AND SWAP6 DUP7 ISZERO PUSH3 0x21C JUMPI PUSH1 0x0 DUP1 SLOAD PUSH1 0x1 PUSH1 0x1 PUSH1 0xA0 SHL SUB NOT DUP1 DUP3 AND DUP11 OR DUP4 SSTORE DUP5 MLOAD SWAP11 SWAP1 SWAP10 SWAP3 SWAP7 SWAP3 SWAP1 SWAP2 DUP4 AND PUSH32 0x8BE0079C531659141344CD1FD0A4F28419497F9722A3DAAFE3B4186F6B6457E0 DUP9 DUP1 LOG3 DUP2 PUSH1 0x1 SWAP9 DUP10 PUSH1 0xE SSTORE PUSH1 0x5 PUSH1 0x10 SSTORE PUSH1 0xFF NOT SWAP7 DUP8 PUSH1 0x11 SLOAD AND PUSH1 0x11 SSTORE PUSH1 0x5 PUSH1 0x12 SSTORE DUP12 PUSH1 0xB SLOAD AND OR PUSH1 0xB SSTORE AND DUP10 PUSH1 0xC SLOAD AND OR PUSH1 0xC SSTORE AND DUP8 PUSH1 0xD SLOAD AND OR PUSH1 0xD SSTORE PUSH1 0xF SSTORE DUP3 DUP1 MSTORE PUSH1 0x8 DUP5 MSTORE DUP1 DUP4 KECCAK256 DUP1 SLOAD DUP7 DUP2 DUP2 SHR SWAP2 AND DUP1 ISZERO PUSH3 0x211 JUMPI JUMPDEST DUP7 DUP3 LT EQ PUSH3 0x1FD JUMPI SWAP1 DUP2 PUSH1 0x1F DUP9 SWAP5 SWAP4 GT PUSH3 0x1D1 JUMPI JUMPDEST POP PUSH1 0x8 PUSH4 0x50455055 PUSH1 0xE0 SHL ADD SWAP1 SSTORE DUP4 DUP1 MSTORE PUSH1 0x7 DUP6 MSTORE DUP4 KECCAK256 DUP1 SLOAD SWAP1 SWAP3 AND OR SWAP1 SSTORE PUSH1 0x9 SLOAD SWAP3 PUSH9 0x10000000000000000 DUP5 LT ISZERO PUSH3 0x1BD JUMPI DUP4 ADD DUP1 PUSH1 0x9 SSTORE DUP4 LT ISZERO PUSH3 0x1A9 JUMPI PUSH1 0x9 DUP2 MSTORE KECCAK256 ADD SWAP1 DUP2 SLOAD AND SWAP1 SSTORE PUSH2 0x5F3C SWAP1 DUP2 PUSH3 0x265 DUP3 CODECOPY RETURN JUMPDEST PUSH4 0x4E487B71 PUSH1 0xE0 SHL DUP2 MSTORE PUSH1 0x32 PUSH1 0x4 MSTORE PUSH1 0x24 SWAP1 REVERT JUMPDEST PUSH4 0x4E487B71 PUSH1 0xE0 SHL DUP3 MSTORE PUSH1 0x41 PUSH1 0x4 MSTORE PUSH1 0x24 DUP3 REVERT JUMPDEST DUP2 DUP7 MSTORE PUSH1 0x1F DUP8 DUP8 KECCAK256 SWAP2 ADD PUSH1 0x5 SHR DUP2 ADD SWAP1 JUMPDEST DUP2 DUP2 LT PUSH3 0x1F1 JUMPI POP PUSH3 0x14D JUMP JUMPDEST DUP7 DUP2 SSTORE DUP9 SWAP5 ADD PUSH3 0x1E2 JUMP JUMPDEST PUSH4 0x4E487B71 PUSH1 0xE0 SHL DUP6 MSTORE PUSH1 0x22 PUSH1 0x4 MSTORE PUSH1 0x24 DUP6 REVERT JUMPDEST SWAP1 PUSH1 0x7F AND SWAP1 PUSH3 0x136 JUMP JUMPDEST DUP2 MLOAD PUSH4 0x1E4FBDF7 PUSH1 0xE0 SHL DUP2 MSTORE PUSH1 0x0 PUSH1 0x4 DUP3 ADD MSTORE PUSH1 0x24 SWAP1 REVERT JUMPDEST PUSH1 0x0 DUP1 REVERT JUMPDEST PUSH4 0x4E487B71 PUSH1 0xE0 SHL PUSH1 0x0 MSTORE PUSH1 0x41 PUSH1 0x4 MSTORE PUSH1 0x24 PUSH1 0x0 REVERT JUMPDEST MLOAD SWAP1 PUSH1 0x1 PUSH1 0x1 PUSH1 0xA0 SHL SUB DUP3 AND DUP3 SUB PUSH3 0x234 JUMPI JUMP INVALID PUSH1 0x80 PUSH1 0x40 MSTORE PUSH1 0x4 CALLDATASIZE LT ISZERO PUSH2 0x1B JUMPI JUMPDEST CALLDATASIZE ISZERO PUSH2 0x19 JUMPI PUSH1 0x0 DUP1 REVERT JUMPDEST STOP JUMPDEST PUSH1 0x0 DUP1 CALLDATALOAD PUSH1 0xE0 SHR DUP1 PUSH4 0x7ADC191 EQ PUSH2 0x45E2 JUMPI DUP1 PUSH4 0xCCF4467 EQ PUSH2 0x45B8 JUMPI DUP1 PUSH4 0xD64CDBD EQ PUSH2 0x4589 JUMPI DUP1 PUSH4 0x157BDCCE EQ PUSH2 0x44AE JUMPI DUP1 PUSH4 0x17916E01 EQ PUSH2 0x4490 JUMPI DUP1 PUSH4 0x256BA741 EQ PUSH2 0x43FB JUMPI DUP1 PUSH4 0x287F57B5 EQ PUSH2 0x43B2 JUMPI DUP1 PUSH4 0x2B5BA3B9 EQ PUSH2 0x4373 JUMPI DUP1 PUSH4 0x2B60C822 EQ PUSH2 0x4348 JUMPI DUP1 PUSH4 0x2EF1BDFA EQ PUSH2 0x432A JUMPI DUP1 PUSH4 0x304BF1F1 EQ PUSH2 0x42E1 JUMPI DUP1 PUSH4 0x33D6B46E EQ PUSH2 0x426E JUMPI DUP1 PUSH4 0x3ADFE6D0 EQ PUSH2 0x4243 JUMPI DUP1 PUSH4 0x3E32A76C EQ PUSH2 0x3FBD JUMPI DUP1 PUSH4 0x3EC79193 EQ PUSH2 0x3CAE JUMPI DUP1 PUSH4 0x406EF2EF EQ PUSH2 0x3C90 JUMPI DUP1 PUSH4 0x45843695 EQ PUSH2 0x3C12 JUMPI DUP1 PUSH4 0x4F44289D EQ PUSH2 0x3BC9 JUMPI DUP1 PUSH4 0x4FFE2A8B EQ PUSH2 0x3BA0 JUMPI DUP1 PUSH4 0x51049969 EQ PUSH2 0x3A3A JUMPI DUP1 PUSH4 0x5B7BAF64 EQ PUSH2 0x3695 JUMPI DUP1 PUSH4 0x5DA3247A EQ PUSH2 0x3677 JUMPI DUP1 PUSH4 0x60557333 EQ PUSH2 0x365F JUMPI DUP1 PUSH4 0x61D027B3 EQ PUSH2 0x3636 JUMPI DUP1 PUSH4 0x638B022C EQ PUSH2 0x2AC6 JUMPI DUP1 PUSH4 0x65EBCE55 EQ PUSH2 0x2A50 JUMPI DUP1 PUSH4 0x677BD9FF EQ PUSH2 0x2673 JUMPI DUP1 PUSH4 0x68C4AC26 EQ PUSH2 0x2634 JUMPI DUP1 PUSH4 0x6D822220 EQ PUSH2 0x25D0 JUMPI DUP1 PUSH4 0x6F59359E EQ PUSH2 0x2562 JUMPI DUP1 PUSH4 0x715018A6 EQ PUSH2 0x251A JUMPI DUP1 PUSH4 0x720138E8 EQ PUSH2 0x225A JUMPI DUP1 PUSH4 0x74C350EB EQ PUSH2 0x2215 JUMPI DUP1 PUSH4 0x76319190 EQ PUSH2 0x2084 JUMPI DUP1 PUSH4 0x7C16CD9E EQ PUSH2 0x1FC0 JUMPI DUP1 PUSH4 0x80D5AC8A EQ PUSH2 0x1F97 JUMPI DUP1 PUSH4 0x81B17D29 EQ PUSH2 0x1F57 JUMPI DUP1 PUSH4 0x847CF782 EQ PUSH2 0x1F13 JUMPI DUP1 PUSH4 0x87FEA110 EQ PUSH2 0x1E91 JUMPI DUP1 PUSH4 0x881DF9E1 EQ PUSH2 0x1E66 JUMPI DUP1 PUSH4 0x88D3CC48 EQ PUSH2 0x1E43 JUMPI DUP1 PUSH4 0x8DA5CB5B EQ PUSH2 0x1E1C JUMPI DUP1 PUSH4 0x971F8BB1 EQ PUSH2 0x1DD7 JUMPI DUP1 PUSH4 0x98A17671 EQ PUSH2 0x1D81 JUMPI DUP1 PUSH4 0x9F37022A EQ PUSH2 0x1D5E JUMPI DUP1 PUSH4 0xA30A0914 EQ PUSH2 0x1D34 JUMPI DUP1 PUSH4 0xA5E973C3 EQ PUSH2 0x1CB2 JUMPI DUP1 PUSH4 0xAD8E42FF EQ PUSH2 0x1C88 JUMPI DUP1 PUSH4 0xB1138B50 EQ PUSH2 0x1AAF JUMPI DUP1 PUSH4 0xB1283E77 EQ PUSH2 0x19AB JUMPI DUP1 PUSH4 0xB85ED636 EQ PUSH2 0x1921 JUMPI DUP1 PUSH4 0xBAA9C4AC EQ PUSH2 0x1903 JUMPI DUP1 PUSH4 0xC22C62C3 EQ PUSH2 0x18D1 JUMPI DUP1 PUSH4 0xC3436E0C EQ PUSH2 0x1781 JUMPI DUP1 PUSH4 0xC8A843B7 EQ PUSH2 0x1676 JUMPI DUP1 PUSH4 0xCE67BE26 EQ PUSH2 0x1658 JUMPI DUP1 PUSH4 0xD3C7C2C7 EQ PUSH2 0x14E3 JUMPI DUP1 PUSH4 0xD5F82707 EQ PUSH2 0x1498 JUMPI DUP1 PUSH4 0xD8C5DD67 EQ PUSH2 0x1451 JUMPI DUP1 PUSH4 0xDB62C6DE EQ PUSH2 0x13AC JUMPI DUP1 PUSH4 0xDC4CE349 EQ PUSH2 0x1359 JUMPI DUP1 PUSH4 0xE78D0117 EQ PUSH2 0x12B2 JUMPI DUP1 PUSH4 0xEB44FDD3 EQ PUSH2 0x11AA JUMPI DUP1 PUSH4 0xF00FE321 EQ PUSH2 0x1107 JUMPI DUP1 PUSH4 0xF15CC406 EQ PUSH2 0xDF8 JUMPI DUP1 PUSH4 0xF1B7DDE3 EQ PUSH2 0xB40 JUMPI DUP1 PUSH4 0xF204072F EQ PUSH2 0x7D1 JUMPI DUP1 PUSH4 0xF2FDE38B EQ PUSH2 0x75B JUMPI DUP1 PUSH4 0xF4867591 EQ PUSH2 0x425 JUMPI DUP1 PUSH4 0xF849F69E EQ PUSH2 0x3B2 JUMPI DUP1 PUSH4 0xFB0B2B36 EQ PUSH2 0x35F JUMPI PUSH4 0xFE53A6E8 EQ PUSH2 0x33F JUMPI POP PUSH2 0xE JUMP JUMPDEST CALLVALUE PUSH2 0x35C JUMPI DUP1 PUSH1 0x3 NOT CALLDATASIZE ADD SLT PUSH2 0x35C JUMPI PUSH1 0x20 PUSH1 0xE SLOAD PUSH1 0x40 MLOAD SWAP1 DUP2 MSTORE RETURN JUMPDEST DUP1 REVERT JUMPDEST POP CALLVALUE PUSH2 0x35C JUMPI PUSH1 0x20 CALLDATASIZE PUSH1 0x3 NOT ADD SLT PUSH2 0x35C JUMPI PUSH2 0x3AE SWAP1 PUSH2 0x39A SWAP1 PUSH1 0x40 SWAP1 PUSH1 0x1 PUSH1 0x1 PUSH1 0xA0 SHL SUB PUSH2 0x38C PUSH2 0x47F9 JUMP JUMPDEST AND DUP2 MSTORE PUSH1 0x8 PUSH1 0x20 MSTORE KECCAK256 PUSH2 0x4B8D JUMP JUMPDEST PUSH1 0x40 MLOAD SWAP2 DUP3 SWAP2 PUSH1 0x20 DUP4 MSTORE PUSH1 0x20 DUP4 ADD SWAP1 PUSH2 0x48FE JUMP JUMPDEST SUB SWAP1 RETURN JUMPDEST POP CALLVALUE PUSH2 0x35C JUMPI PUSH1 0x20 CALLDATASIZE PUSH1 0x3 NOT ADD SLT PUSH2 0x35C JUMPI PUSH1 0x4 CALLDATALOAD DUP2 MSTORE PUSH1 0x14 PUSH1 0x20 MSTORE PUSH1 0xFF PUSH1 0x40 DUP3 KECCAK256 SLOAD AND DUP1 PUSH2 0x3E9 JUMPI JUMPDEST PUSH1 0x20 SWAP1 PUSH1 0x40 MLOAD SWAP1 ISZERO ISZERO DUP2 MSTORE RETURN JUMPDEST POP PUSH1 0x1 PUSH1 0x20 MSTORE PUSH1 0xFF PUSH1 0xC PUSH1 0x40 DUP4 KECCAK256 ADD SLOAD AND SWAP1 PUSH1 0x5 DUP3 LT ISZERO PUSH2 0x411 JUMPI POP PUSH1 0x4 PUSH1 0x20 SWAP2 EQ ISZERO PUSH2 0x3DC JUMP JUMPDEST PUSH4 0x4E487B71 PUSH1 0xE0 SHL DUP2 MSTORE PUSH1 0x21 PUSH1 0x4 MSTORE PUSH1 0x24 SWAP1 REVERT JUMPDEST POP PUSH2 0x42F CALLDATASIZE PUSH2 0x4B2E JUMP JUMPDEST SWAP1 DUP1 DUP4 MSTORE PUSH1 0x20 PUSH1 0x1 DUP2 MSTORE PUSH1 0x40 DUP5 KECCAK256 PUSH1 0xFF PUSH1 0xC DUP3 ADD SLOAD AND PUSH1 0x5 DUP2 LT ISZERO PUSH2 0x747 JUMPI PUSH2 0x458 SWAP1 ISZERO PUSH2 0x4F4D JUMP JUMPDEST PUSH1 0xFF PUSH1 0x11 SLOAD AND PUSH2 0x6FE JUMPI JUMPDEST DUP4 ISZERO ISZERO DUP1 PUSH2 0x6F0 JUMPI JUMPDEST PUSH2 0x475 SWAP1 PUSH2 0x502D JUMP JUMPDEST PUSH1 0x4 DUP2 ADD DUP1 SLOAD PUSH1 0x1 PUSH1 0x1 PUSH1 0xA0 SHL SUB SWAP3 SWAP1 DUP4 AND PUSH2 0x697 JUMPI PUSH1 0x5 PUSH2 0x49B SWAP2 ADD SLOAD CALLVALUE LT ISZERO PUSH2 0x5079 JUMP JUMPDEST DUP6 DUP1 DUP1 DUP1 CALLVALUE DUP7 PUSH1 0xB SLOAD AND GAS CALL PUSH2 0x4AF PUSH2 0x4D96 JUMP JUMPDEST POP ISZERO PUSH2 0x63B JUMPI SWAP1 DUP6 SWAP2 DUP5 DUP4 MSTORE PUSH1 0x2 DUP5 MSTORE PUSH1 0x40 DUP4 KECCAK256 CALLER PUSH1 0x0 MSTORE DUP5 MSTORE PUSH1 0xFF PUSH1 0x40 PUSH1 0x0 KECCAK256 SLOAD AND ISZERO PUSH2 0x60E JUMPI JUMPDEST DUP5 DUP4 MSTORE PUSH1 0x2 DUP5 MSTORE PUSH1 0x40 DUP4 KECCAK256 CALLER PUSH1 0x0 MSTORE DUP5 MSTORE PUSH1 0x40 PUSH1 0x0 KECCAK256 PUSH1 0x1 PUSH1 0xFF NOT DUP3 SLOAD AND OR SWAP1 SSTORE DUP5 DUP4 MSTORE PUSH1 0x4 DUP5 MSTORE PUSH1 0x40 DUP4 KECCAK256 CALLER PUSH1 0x0 MSTORE DUP5 MSTORE DUP6 PUSH1 0x40 PUSH1 0x0 KECCAK256 SSTORE DUP2 DUP1 PUSH1 0xB SLOAD AND SWAP2 SLOAD AND SWAP1 DUP1 EXTCODESIZE ISZERO PUSH2 0x5DC JUMPI PUSH1 0x40 MLOAD PUSH4 0x95F41095 PUSH1 0xE0 SHL DUP2 MSTORE SWAP2 DUP5 SWAP2 DUP4 SWAP2 DUP3 SWAP1 DUP5 SWAP1 DUP3 SWAP1 PUSH2 0x54D SWAP1 DUP14 SWAP1 CALLVALUE SWAP1 CALLER DUP16 PUSH1 0x4 DUP8 ADD PUSH2 0x4E26 JUMP JUMPDEST SUB SWAP3 GAS CALL SWAP1 DUP2 ISZERO PUSH2 0x603 JUMPI DUP4 SWAP2 PUSH2 0x5EF JUMPI JUMPDEST POP POP PUSH1 0xD SLOAD AND DUP1 PUSH2 0x58F JUMPI JUMPDEST POP POP PUSH1 0x40 MLOAD SWAP3 DUP4 MSTORE CALLVALUE SWAP1 DUP4 ADD MSTORE PUSH1 0x0 DUP1 MLOAD PUSH1 0x20 PUSH2 0x5EE7 DUP4 CODECOPY DUP2 MLOAD SWAP2 MSTORE PUSH1 0x40 CALLER SWAP4 LOG3 DUP1 RETURN JUMPDEST DUP1 EXTCODESIZE ISZERO PUSH2 0x5EB JUMPI DUP2 PUSH1 0x40 MLOAD DUP1 SWAP3 PUSH4 0xC228038D PUSH1 0xE0 SHL DUP3 MSTORE DUP2 DUP4 DUP2 PUSH2 0x5B9 CALLVALUE DUP13 CALLER DUP14 PUSH1 0x4 DUP7 ADD PUSH2 0x4E6F JUMP JUMPDEST SUB SWAP3 GAS CALL DUP1 ISZERO PUSH2 0x5E0 JUMPI ISZERO PUSH2 0x56B JUMPI PUSH2 0x5D1 SWAP1 PUSH2 0x4A5F JUMP JUMPDEST PUSH2 0x5DC JUMPI DUP4 CODESIZE PUSH2 0x56B JUMP JUMPDEST DUP4 DUP1 REVERT JUMPDEST PUSH1 0x40 MLOAD RETURNDATASIZE DUP5 DUP3 RETURNDATACOPY RETURNDATASIZE SWAP1 REVERT JUMPDEST POP DUP1 REVERT JUMPDEST PUSH2 0x5F8 SWAP1 PUSH2 0x4A5F JUMP JUMPDEST PUSH2 0x5EB JUMPI DUP2 CODESIZE PUSH2 0x55F JUMP JUMPDEST PUSH1 0x40 MLOAD RETURNDATASIZE DUP6 DUP3 RETURNDATACOPY RETURNDATASIZE SWAP1 REVERT JUMPDEST DUP5 DUP4 MSTORE PUSH1 0x5 DUP5 MSTORE PUSH2 0x622 CALLER PUSH1 0x40 DUP6 KECCAK256 PUSH2 0x50BE JUMP JUMPDEST CALLER DUP4 MSTORE PUSH1 0x15 DUP5 MSTORE PUSH2 0x636 DUP6 PUSH1 0x40 DUP6 KECCAK256 PUSH2 0x4D73 JUMP JUMPDEST PUSH2 0x4D8 JUMP JUMPDEST PUSH1 0x40 MLOAD PUSH3 0x461BCD PUSH1 0xE5 SHL DUP2 MSTORE PUSH1 0x4 DUP2 ADD DUP5 SWAP1 MSTORE PUSH1 0x2E PUSH1 0x24 DUP3 ADD MSTORE PUSH32 0x4D61726B65744D616E616765723A20455448207472616E7366657220746F2054 PUSH1 0x44 DUP3 ADD MSTORE PUSH14 0x1C99585CDD5C9E4819985A5B1959 PUSH1 0x92 SHL PUSH1 0x64 DUP3 ADD MSTORE PUSH1 0x84 SWAP1 REVERT JUMPDEST PUSH1 0x40 MLOAD PUSH3 0x461BCD PUSH1 0xE5 SHL DUP2 MSTORE PUSH1 0x4 DUP2 ADD DUP6 SWAP1 MSTORE PUSH1 0x3D PUSH1 0x24 DUP3 ADD MSTORE PUSH1 0x0 DUP1 MLOAD PUSH1 0x20 PUSH2 0x5DE7 DUP4 CODECOPY DUP2 MLOAD SWAP2 MSTORE PUSH1 0x44 DUP3 ADD MSTORE PUSH32 0x746F6B656E732C2075736520706C61636542657457697468546F6B656E000000 PUSH1 0x64 DUP3 ADD MSTORE PUSH1 0x84 SWAP1 REVERT JUMPDEST POP PUSH1 0x3 DUP2 ADD SLOAD DUP5 GT ISZERO PUSH2 0x46C JUMP JUMPDEST PUSH1 0x9 DUP2 ADD SLOAD PUSH1 0x12 SLOAD SWAP1 PUSH1 0x3C DUP3 MUL SWAP2 DUP1 DUP4 DIV PUSH1 0x3C EQ SWAP1 ISZERO OR ISZERO PUSH2 0x733 JUMPI PUSH2 0x72E SWAP2 PUSH2 0x727 SWAP2 PUSH2 0x4F98 JUMP JUMPDEST TIMESTAMP LT PUSH2 0x4FA5 JUMP JUMPDEST PUSH2 0x463 JUMP JUMPDEST PUSH4 0x4E487B71 PUSH1 0xE0 SHL DUP8 MSTORE PUSH1 0x11 PUSH1 0x4 MSTORE PUSH1 0x24 DUP8 REVERT JUMPDEST PUSH4 0x4E487B71 PUSH1 0xE0 SHL DUP7 MSTORE PUSH1 0x21 PUSH1 0x4 MSTORE PUSH1 0x24 DUP7 REVERT JUMPDEST POP CALLVALUE PUSH2 0x35C JUMPI PUSH1 0x20 CALLDATASIZE PUSH1 0x3 NOT ADD SLT PUSH2 0x35C JUMPI PUSH2 0x775 PUSH2 0x47F9 JUMP JUMPDEST PUSH2 0x77D PUSH2 0x4C33 JUMP JUMPDEST PUSH1 0x1 PUSH1 0x1 PUSH1 0xA0 SHL SUB SWAP1 DUP2 AND SWAP1 DUP2 ISZERO PUSH2 0x7B8 JUMPI PUSH1 0x0 SLOAD DUP3 PUSH1 0x1 DUP1 PUSH1 0xA0 SHL SUB NOT DUP3 AND OR PUSH1 0x0 SSTORE AND PUSH1 0x0 DUP1 MLOAD PUSH1 0x20 PUSH2 0x5E87 DUP4 CODECOPY DUP2 MLOAD SWAP2 MSTORE PUSH1 0x0 DUP1 LOG3 DUP1 RETURN JUMPDEST PUSH1 0x40 MLOAD PUSH4 0x1E4FBDF7 PUSH1 0xE0 SHL DUP2 MSTORE PUSH1 0x4 DUP2 ADD DUP5 SWAP1 MSTORE PUSH1 0x24 SWAP1 REVERT JUMPDEST POP PUSH2 0x7DB CALLDATASIZE PUSH2 0x4B2E JUMP JUMPDEST SWAP1 DUP1 DUP4 MSTORE PUSH1 0x20 PUSH1 0x1 DUP2 MSTORE PUSH1 0x40 DUP5 KECCAK256 PUSH1 0xFF PUSH1 0xC DUP3 ADD SLOAD AND PUSH1 0x5 DUP2 LT ISZERO PUSH2 0x747 JUMPI PUSH2 0x804 SWAP1 ISZERO PUSH2 0x4F4D JUMP JUMPDEST PUSH1 0x9 DUP2 ADD SLOAD TIMESTAMP LT ISZERO PUSH2 0xAEF JUMPI PUSH1 0x4 SWAP1 CALLER DUP7 MSTORE PUSH1 0xA DUP4 MSTORE PUSH2 0x82B PUSH1 0xFF PUSH1 0x40 DUP9 KECCAK256 SLOAD AND ISZERO PUSH2 0x4C5F JUMP JUMPDEST PUSH2 0x836 DUP6 ISZERO ISZERO PUSH2 0x50E1 JUMP JUMPDEST ADD DUP1 SLOAD PUSH1 0x1 PUSH1 0x1 PUSH1 0xA0 SHL SUB SWAP2 SWAP1 DUP3 AND DUP1 PUSH2 0xA6C JUMPI POP DUP5 CALLVALUE SUB PUSH2 0xA1B JUMPI PUSH2 0x85D CALLVALUE ISZERO ISZERO PUSH2 0x50E1 JUMP JUMPDEST DUP6 DUP1 DUP1 DUP1 CALLVALUE DUP7 PUSH1 0xB SLOAD AND GAS CALL PUSH2 0x871 PUSH2 0x4D96 JUMP JUMPDEST POP ISZERO PUSH2 0x9BF JUMPI SWAP1 DUP6 SWAP2 JUMPDEST DUP5 DUP4 MSTORE PUSH1 0x3 DUP5 MSTORE PUSH1 0x40 DUP4 KECCAK256 CALLER PUSH1 0x0 MSTORE DUP5 MSTORE PUSH1 0xFF PUSH1 0x40 PUSH1 0x0 KECCAK256 SLOAD AND ISZERO PUSH2 0x9A6 JUMPI JUMPDEST DUP5 DUP4 MSTORE PUSH1 0x3 DUP5 MSTORE PUSH1 0x40 DUP4 KECCAK256 CALLER PUSH1 0x0 MSTORE DUP5 MSTORE PUSH1 0x40 PUSH1 0x0 KECCAK256 PUSH1 0x1 PUSH1 0xFF NOT DUP3 SLOAD AND OR SWAP1 SSTORE DUP2 DUP1 PUSH1 0xB SLOAD AND SWAP2 SLOAD AND SWAP1 DUP1 EXTCODESIZE ISZERO PUSH2 0x5DC JUMPI DUP7 DUP5 SWAP2 PUSH2 0x8F4 SWAP4 DUP4 PUSH1 0x40 MLOAD DUP1 SWAP7 DUP2 SWAP6 DUP3 SWAP5 PUSH4 0xC15D9807 PUSH1 0xE0 SHL DUP5 MSTORE DUP14 CALLER SWAP1 PUSH1 0x4 DUP7 ADD PUSH2 0x514A JUMP JUMPDEST SUB SWAP3 GAS CALL SWAP1 DUP2 ISZERO PUSH2 0x603 JUMPI DUP4 SWAP2 PUSH2 0x992 JUMPI JUMPDEST POP POP PUSH1 0xD SLOAD AND DUP1 PUSH2 0x942 JUMPI JUMPDEST POP POP PUSH32 0xC02BBAFF19BDE22745E7227AEB31741EFD4BF98EBB8B48AC49DD40833FAC6756 SWAP1 PUSH1 0x40 MLOAD SWAP4 DUP5 MSTORE CALLER SWAP4 LOG3 DUP1 RETURN JUMPDEST DUP1 EXTCODESIZE ISZERO PUSH2 0x5EB JUMPI DUP2 DUP1 SWAP2 PUSH1 0x64 PUSH1 0x40 MLOAD DUP1 SWAP5 DUP2 SWAP4 PUSH4 0x8F46A5A1 PUSH1 0xE0 SHL DUP4 MSTORE DUP10 PUSH1 0x4 DUP5 ADD MSTORE CALLER PUSH1 0x24 DUP5 ADD MSTORE DUP11 PUSH1 0x44 DUP5 ADD MSTORE GAS CALL DUP1 ISZERO PUSH2 0x5E0 JUMPI ISZERO PUSH2 0x912 JUMPI PUSH2 0x987 SWAP1 PUSH2 0x4A5F JUMP JUMPDEST PUSH2 0x5DC JUMPI DUP4 CODESIZE PUSH2 0x912 JUMP JUMPDEST PUSH2 0x99B SWAP1 PUSH2 0x4A5F JUMP JUMPDEST PUSH2 0x5EB JUMPI DUP2 CODESIZE PUSH2 0x906 JUMP JUMPDEST DUP5 DUP4 MSTORE PUSH1 0x6 DUP5 MSTORE PUSH2 0x9BA CALLER PUSH1 0x40 DUP6 KECCAK256 PUSH2 0x50BE JUMP JUMPDEST PUSH2 0x89B JUMP JUMPDEST PUSH1 0x40 MLOAD PUSH3 0x461BCD PUSH1 0xE5 SHL DUP2 MSTORE PUSH1 0x4 DUP2 ADD DUP5 SWAP1 MSTORE PUSH1 0x2E PUSH1 0x24 DUP3 ADD MSTORE PUSH32 0x4D61726B65744D616E616765723A20455448207472616E7366657220746F2074 PUSH1 0x44 DUP3 ADD MSTORE PUSH14 0x1C99585CDD5C9E4819985A5B1959 PUSH1 0x92 SHL PUSH1 0x64 DUP3 ADD MSTORE PUSH1 0x84 SWAP1 REVERT JUMPDEST PUSH1 0x40 MLOAD PUSH3 0x461BCD PUSH1 0xE5 SHL DUP2 MSTORE PUSH1 0x4 DUP2 ADD DUP5 SWAP1 MSTORE PUSH1 0x23 PUSH1 0x24 DUP3 ADD MSTORE PUSH32 0x4D61726B65744D616E616765723A20496E636F72726563742045544820616D6F PUSH1 0x44 DUP3 ADD MSTORE PUSH3 0x1D5B9D PUSH1 0xEA SHL PUSH1 0x64 DUP3 ADD MSTORE PUSH1 0x84 SWAP1 REVERT JUMPDEST CALLVALUE PUSH2 0xA8B JUMPI SWAP1 PUSH2 0xA86 DUP7 DUP5 SWAP4 DUP10 SWAP6 PUSH1 0xB SLOAD AND SWAP1 CALLER SWAP1 PUSH2 0x4EB5 JUMP JUMPDEST PUSH2 0x87B JUMP JUMPDEST PUSH1 0x40 MLOAD PUSH3 0x461BCD PUSH1 0xE5 SHL DUP2 MSTORE PUSH1 0x4 DUP2 ADD DUP6 SWAP1 MSTORE PUSH1 0x36 PUSH1 0x24 DUP3 ADD MSTORE PUSH32 0x4D61726B65744D616E616765723A204E6F204554482073686F756C6420626520 PUSH1 0x44 DUP3 ADD MSTORE PUSH22 0x1CD95B9D08199BDC881D1BDAD95B881CDD5C1C1BDC9D PUSH1 0x52 SHL PUSH1 0x64 DUP3 ADD MSTORE PUSH1 0x84 SWAP1 REVERT JUMPDEST PUSH1 0x40 MLOAD PUSH3 0x461BCD PUSH1 0xE5 SHL DUP2 MSTORE PUSH1 0x4 DUP2 ADD DUP4 SWAP1 MSTORE PUSH1 0x23 PUSH1 0x24 DUP3 ADD MSTORE PUSH32 0x4D61726B65744D616E616765723A20537570706F727420706572696F6420656E PUSH1 0x44 DUP3 ADD MSTORE PUSH3 0x191959 PUSH1 0xEA SHL PUSH1 0x64 DUP3 ADD MSTORE PUSH1 0x84 SWAP1 REVERT JUMPDEST POP CALLVALUE PUSH2 0x35C JUMPI PUSH1 0x60 CALLDATASIZE PUSH1 0x3 NOT ADD SLT PUSH2 0x35C JUMPI PUSH1 0x4 CALLDATALOAD PUSH1 0x24 CALLDATALOAD SWAP1 PUSH1 0x44 CALLDATALOAD DUP2 DUP5 MSTORE PUSH1 0x20 PUSH1 0x1 DUP2 MSTORE PUSH1 0x40 DUP6 KECCAK256 PUSH1 0xFF PUSH1 0xC DUP3 ADD SLOAD AND PUSH1 0x5 DUP2 LT ISZERO PUSH2 0xDE4 JUMPI PUSH2 0xB84 SWAP1 ISZERO PUSH2 0x4F4D JUMP JUMPDEST PUSH1 0xFF PUSH1 0x11 SLOAD AND PUSH2 0xDA2 JUMPI JUMPDEST DUP5 ISZERO ISZERO DUP1 PUSH2 0xD94 JUMPI JUMPDEST PUSH2 0xBA1 SWAP1 PUSH2 0x502D JUMP JUMPDEST PUSH1 0x4 DUP2 ADD DUP1 SLOAD PUSH1 0x1 PUSH1 0x1 PUSH1 0xA0 SHL SUB SWAP3 SWAP1 DUP4 AND SWAP1 DUP2 ISZERO PUSH2 0xD46 JUMPI DUP6 DUP10 SWAP5 SWAP4 SWAP3 PUSH2 0xBD2 PUSH1 0x5 PUSH2 0xBDF SWAP5 ADD SLOAD DUP4 LT ISZERO PUSH2 0x5079 JUMP JUMPDEST DUP5 PUSH1 0xB SLOAD AND SWAP1 CALLER SWAP1 PUSH2 0x4EB5 JUMP JUMPDEST DUP6 DUP4 MSTORE PUSH1 0x2 DUP5 MSTORE PUSH1 0x40 DUP4 KECCAK256 CALLER PUSH1 0x0 MSTORE DUP5 MSTORE PUSH1 0xFF PUSH1 0x40 PUSH1 0x0 KECCAK256 SLOAD AND ISZERO PUSH2 0xD19 JUMPI JUMPDEST DUP6 DUP4 MSTORE PUSH1 0x2 DUP5 MSTORE PUSH1 0x40 DUP4 KECCAK256 CALLER PUSH1 0x0 MSTORE DUP5 MSTORE PUSH1 0x40 PUSH1 0x0 KECCAK256 PUSH1 0x1 PUSH1 0xFF NOT DUP3 SLOAD AND OR SWAP1 SSTORE DUP6 DUP4 MSTORE PUSH1 0x4 DUP5 MSTORE PUSH1 0x40 DUP4 KECCAK256 CALLER PUSH1 0x0 MSTORE DUP5 MSTORE DUP7 PUSH1 0x40 PUSH1 0x0 KECCAK256 SSTORE DUP2 DUP1 PUSH1 0xB SLOAD AND SWAP2 SLOAD AND SWAP1 DUP1 EXTCODESIZE ISZERO PUSH2 0x5DC JUMPI DUP6 DUP5 SWAP2 DUP10 SWAP4 DUP4 DUP11 PUSH2 0xC72 PUSH1 0x40 MLOAD SWAP8 DUP9 SWAP7 DUP8 SWAP6 DUP7 SWAP5 PUSH4 0x95F41095 PUSH1 0xE0 SHL DUP7 MSTORE CALLER SWAP1 PUSH1 0x4 DUP8 ADD PUSH2 0x4E26 JUMP JUMPDEST SUB SWAP3 GAS CALL SWAP1 DUP2 ISZERO PUSH2 0x603 JUMPI DUP4 SWAP2 PUSH2 0xD05 JUMPI JUMPDEST POP POP PUSH1 0xD SLOAD AND DUP1 PUSH2 0xCB2 JUMPI JUMPDEST POP POP PUSH1 0x40 MLOAD SWAP4 DUP5 MSTORE DUP4 ADD MSTORE PUSH1 0x0 DUP1 MLOAD PUSH1 0x20 PUSH2 0x5EE7 DUP4 CODECOPY DUP2 MLOAD SWAP2 MSTORE PUSH1 0x40 CALLER SWAP4 LOG3 DUP1 RETURN JUMPDEST DUP1 EXTCODESIZE ISZERO PUSH2 0x5EB JUMPI PUSH1 0x40 MLOAD PUSH4 0xC228038D PUSH1 0xE0 SHL DUP2 MSTORE SWAP1 DUP3 SWAP1 DUP3 SWAP1 DUP2 DUP4 DUP2 PUSH2 0xCDE DUP11 DUP14 CALLER DUP15 PUSH1 0x4 DUP7 ADD PUSH2 0x4E6F JUMP JUMPDEST SUB SWAP3 GAS CALL DUP1 ISZERO PUSH2 0x5E0 JUMPI ISZERO PUSH2 0xC90 JUMPI PUSH2 0xCF6 SWAP1 PUSH2 0x4A5F JUMP JUMPDEST PUSH2 0xD01 JUMPI DUP5 CODESIZE PUSH2 0xC90 JUMP JUMPDEST DUP5 DUP1 REVERT JUMPDEST PUSH2 0xD0E SWAP1 PUSH2 0x4A5F JUMP JUMPDEST PUSH2 0x5EB JUMPI DUP2 CODESIZE PUSH2 0xC84 JUMP JUMPDEST DUP6 DUP4 MSTORE PUSH1 0x5 DUP5 MSTORE PUSH2 0xD2D CALLER PUSH1 0x40 DUP6 KECCAK256 PUSH2 0x50BE JUMP JUMPDEST CALLER DUP4 MSTORE PUSH1 0x15 DUP5 MSTORE PUSH2 0xD41 DUP7 PUSH1 0x40 DUP6 KECCAK256 PUSH2 0x4D73 JUMP JUMPDEST PUSH2 0xBFF JUMP JUMPDEST PUSH1 0x40 MLOAD PUSH3 0x461BCD PUSH1 0xE5 SHL DUP2 MSTORE PUSH1 0x4 DUP2 ADD DUP7 SWAP1 MSTORE PUSH1 0x32 PUSH1 0x24 DUP3 ADD MSTORE PUSH1 0x0 DUP1 MLOAD PUSH1 0x20 PUSH2 0x5DE7 DUP4 CODECOPY DUP2 MLOAD SWAP2 MSTORE PUSH1 0x44 DUP3 ADD MSTORE PUSH18 0x141154154B081D5CD9481C1B1858D950995D PUSH1 0x72 SHL PUSH1 0x64 DUP3 ADD MSTORE PUSH1 0x84 SWAP1 REVERT JUMPDEST POP PUSH1 0x3 DUP2 ADD SLOAD DUP6 GT ISZERO PUSH2 0xB98 JUMP JUMPDEST PUSH1 0x9 DUP2 ADD SLOAD PUSH1 0x12 SLOAD SWAP1 PUSH1 0x3C DUP3 MUL SWAP2 DUP1 DUP4 DIV PUSH1 0x3C EQ SWAP1 ISZERO OR ISZERO PUSH2 0xDD0 JUMPI PUSH2 0xDCB SWAP2 PUSH2 0x727 SWAP2 PUSH2 0x4F98 JUMP JUMPDEST PUSH2 0xB8F JUMP JUMPDEST PUSH4 0x4E487B71 PUSH1 0xE0 SHL DUP9 MSTORE PUSH1 0x11 PUSH1 0x4 MSTORE PUSH1 0x24 DUP9 REVERT JUMPDEST PUSH4 0x4E487B71 PUSH1 0xE0 SHL DUP8 MSTORE PUSH1 0x21 PUSH1 0x4 MSTORE PUSH1 0x24 DUP8 REVERT JUMPDEST POP CALLVALUE PUSH2 0x35C JUMPI PUSH1 0x40 CALLDATASIZE PUSH1 0x3 NOT ADD SLT PUSH2 0x35C JUMPI PUSH1 0x4 CALLDATALOAD PUSH2 0xE15 PUSH2 0x47E3 JUMP JUMPDEST SWAP2 DUP2 DUP2 MSTORE PUSH1 0x20 SWAP2 PUSH1 0x1 DUP4 MSTORE PUSH1 0x40 DUP3 KECCAK256 SWAP4 PUSH1 0xFF PUSH1 0xC DUP7 ADD SLOAD AND PUSH1 0x5 DUP2 LT ISZERO PUSH2 0x10F3 JUMPI PUSH1 0x2 PUSH2 0xE42 SWAP2 EQ PUSH2 0x5565 JUMP JUMPDEST PUSH1 0xD DUP6 ADD SLOAD PUSH2 0xE52 DUP2 ISZERO ISZERO PUSH2 0x55BC JUMP JUMPDEST DUP3 DUP5 MSTORE PUSH1 0x2 DUP6 MSTORE PUSH1 0x40 DUP5 KECCAK256 PUSH1 0x1 DUP1 PUSH1 0xA0 SHL SUB SWAP4 DUP5 DUP5 AND SWAP2 DUP3 PUSH1 0x0 MSTORE DUP8 MSTORE PUSH2 0xE80 PUSH1 0xFF PUSH1 0x40 PUSH1 0x0 KECCAK256 SLOAD AND PUSH2 0x5607 JUMP JUMPDEST DUP5 PUSH1 0xB SLOAD AND SWAP5 PUSH1 0x40 MLOAD PUSH4 0x7C7A72D PUSH1 0xE0 SHL DUP2 MSTORE DUP9 DUP2 DUP1 PUSH2 0xEA4 DUP10 DUP8 PUSH1 0x4 DUP5 ADD PUSH2 0x4E56 JUMP JUMPDEST SUB DUP2 DUP11 GAS STATICCALL SWAP1 DUP2 ISZERO PUSH2 0x106C JUMPI DUP9 SWAP2 PUSH2 0x10A6 JUMPI JUMPDEST POP SWAP1 PUSH1 0x4 DUP10 SWAP11 PUSH2 0xECC PUSH2 0xEED SWAP11 SWAP12 SWAP5 ISZERO PUSH2 0x5653 JUMP JUMPDEST ADD SLOAD AND DUP1 SWAP6 PUSH1 0x40 MLOAD SWAP9 DUP10 SWAP3 DUP4 SWAP3 PUSH4 0x423E7BC1 PUSH1 0xE1 SHL DUP5 MSTORE DUP7 PUSH1 0x4 DUP6 ADD PUSH2 0x51CC JUMP JUMPDEST SUB DUP2 DUP9 GAS STATICCALL SWAP6 DUP7 ISZERO PUSH2 0x102E JUMPI DUP8 SWAP7 PUSH2 0x1077 JUMPI JUMPDEST POP PUSH1 0x40 MLOAD PUSH4 0xDC4CE349 PUSH1 0xE0 SHL DUP2 MSTORE SWAP4 DUP9 DUP6 DUP1 PUSH2 0xF21 DUP5 DUP9 DUP8 PUSH1 0x4 DUP6 ADD PUSH2 0x569F JUMP JUMPDEST SUB DUP2 DUP10 GAS STATICCALL SWAP5 DUP6 ISZERO PUSH2 0x106C JUMPI SWAP1 DUP10 SWAP2 DUP10 SWAP7 PUSH2 0x1039 JUMPI JUMPDEST POP PUSH2 0xF59 SWAP6 SWAP7 PUSH1 0x40 MLOAD DUP1 DUP1 SWAP9 DUP2 SWAP5 PUSH4 0x3D1E7BA1 PUSH1 0xE1 SHL DUP4 MSTORE DUP8 PUSH1 0x4 DUP5 ADD PUSH2 0x4E56 JUMP JUMPDEST SUB SWAP2 GAS STATICCALL SWAP4 DUP5 ISZERO PUSH2 0x102E JUMPI DUP8 SWAP5 PUSH2 0xFFA JUMPI JUMPDEST POP DUP5 PUSH2 0xF80 JUMPI POP POP POP POP POP POP JUMPDEST PUSH1 0x40 MLOAD SWAP1 DUP2 MSTORE RETURN JUMPDEST DUP7 SWAP4 SWAP5 SWAP6 SWAP7 MSTORE PUSH1 0x4 DUP8 MSTORE PUSH1 0x40 DUP4 KECCAK256 SWAP1 PUSH1 0x0 MSTORE DUP7 MSTORE PUSH1 0x40 PUSH1 0x0 KECCAK256 SLOAD EQ PUSH1 0x0 EQ PUSH2 0xFF1 JUMPI PUSH2 0x2328 SWAP2 DUP3 DUP2 MUL SWAP3 DUP2 DUP5 DIV EQ SWAP1 ISZERO OR ISZERO PUSH2 0xFDD JUMPI POP PUSH2 0xFD8 SWAP3 SWAP2 PUSH2 0xFCD PUSH2 0x2710 PUSH2 0xFD2 SWAP4 DIV DUP5 PUSH2 0x4CFA JUMP JUMPDEST PUSH2 0x56C0 JUMP JUMPDEST SWAP1 PUSH2 0x4D23 JUMP JUMPDEST PUSH2 0xF78 JUMP JUMPDEST PUSH4 0x4E487B71 PUSH1 0xE0 SHL DUP2 MSTORE PUSH1 0x11 PUSH1 0x4 MSTORE PUSH1 0x24 SWAP1 REVERT JUMPDEST SWAP3 POP POP POP PUSH2 0xF78 JUMP JUMPDEST SWAP1 SWAP4 POP DUP8 DUP2 DUP2 RETURNDATASIZE DUP4 GT PUSH2 0x1027 JUMPI JUMPDEST PUSH2 0x1012 DUP2 DUP4 PUSH2 0x4AA9 JUMP JUMPDEST DUP2 ADD SUB SLT PUSH2 0x1022 JUMPI MLOAD SWAP3 CODESIZE PUSH2 0xF6B JUMP JUMPDEST PUSH1 0x0 DUP1 REVERT JUMPDEST POP RETURNDATASIZE PUSH2 0x1008 JUMP JUMPDEST PUSH1 0x40 MLOAD RETURNDATASIZE DUP10 DUP3 RETURNDATACOPY RETURNDATASIZE SWAP1 REVERT JUMPDEST DUP3 DUP2 SWAP4 SWAP3 SWAP8 POP RETURNDATASIZE DUP4 GT PUSH2 0x1065 JUMPI JUMPDEST PUSH2 0x1051 DUP2 DUP4 PUSH2 0x4AA9 JUMP JUMPDEST DUP2 ADD SUB SLT PUSH2 0x1022 JUMPI MLOAD SWAP4 DUP9 SWAP1 PUSH2 0xF59 PUSH2 0xF37 JUMP JUMPDEST POP RETURNDATASIZE PUSH2 0x1047 JUMP JUMPDEST PUSH1 0x40 MLOAD RETURNDATASIZE DUP11 DUP3 RETURNDATACOPY RETURNDATASIZE SWAP1 REVERT JUMPDEST SWAP1 SWAP6 POP DUP8 DUP2 DUP2 RETURNDATASIZE DUP4 GT PUSH2 0x109F JUMPI JUMPDEST PUSH2 0x108F DUP2 DUP4 PUSH2 0x4AA9 JUMP JUMPDEST DUP2 ADD SUB SLT PUSH2 0x1022 JUMPI MLOAD SWAP5 CODESIZE PUSH2 0xF00 JUMP JUMPDEST POP RETURNDATASIZE PUSH2 0x1085 JUMP JUMPDEST SWAP1 POP DUP9 DUP2 DUP2 RETURNDATASIZE DUP4 GT PUSH2 0x10EC JUMPI JUMPDEST PUSH2 0x10BD DUP2 DUP4 PUSH2 0x4AA9 JUMP JUMPDEST DUP2 ADD SUB SLT PUSH2 0x10E8 JUMPI SWAP1 PUSH1 0x4 DUP10 SWAP11 PUSH2 0xECC PUSH2 0x10DB PUSH2 0xEED SWAP12 SWAP13 SWAP6 PUSH2 0x52CA JUMP JUMPDEST SWAP4 SWAP5 POP POP SWAP11 SWAP10 SWAP9 POP PUSH2 0xEB7 JUMP JUMPDEST DUP8 DUP1 REVERT JUMPDEST POP RETURNDATASIZE PUSH2 0x10B3 JUMP JUMPDEST PUSH4 0x4E487B71 PUSH1 0xE0 SHL DUP5 MSTORE PUSH1 0x21 PUSH1 0x4 MSTORE PUSH1 0x24 DUP5 REVERT JUMPDEST POP CALLVALUE PUSH2 0x35C JUMPI PUSH1 0x40 CALLDATASIZE PUSH1 0x3 NOT ADD SLT PUSH2 0x35C JUMPI PUSH2 0x1150 SWAP1 PUSH1 0x20 PUSH2 0x1127 PUSH2 0x47E3 JUMP JUMPDEST PUSH1 0x1 DUP1 PUSH1 0xA0 SHL SUB PUSH1 0xB SLOAD AND PUSH1 0x40 MLOAD DUP1 DUP1 SWAP7 DUP2 SWAP5 PUSH4 0x3D1E7BA1 PUSH1 0xE1 SHL DUP4 MSTORE PUSH1 0x4 CALLDATALOAD PUSH1 0x4 DUP5 ADD PUSH2 0x4E56 JUMP JUMPDEST SUB SWAP2 GAS STATICCALL SWAP1 DUP2 ISZERO PUSH2 0x119E JUMPI SWAP1 PUSH2 0x116C JUMPI JUMPDEST PUSH1 0x20 SWAP1 PUSH1 0x40 MLOAD SWAP1 DUP2 MSTORE RETURN JUMPDEST POP PUSH1 0x20 DUP2 RETURNDATASIZE DUP3 GT PUSH2 0x1196 JUMPI JUMPDEST DUP2 PUSH2 0x1185 PUSH1 0x20 SWAP4 DUP4 PUSH2 0x4AA9 JUMP JUMPDEST DUP2 ADD SUB SLT PUSH2 0x1022 JUMPI PUSH1 0x20 SWAP1 MLOAD PUSH2 0x1161 JUMP JUMPDEST RETURNDATASIZE SWAP2 POP PUSH2 0x1178 JUMP JUMPDEST PUSH1 0x40 MLOAD SWAP1 RETURNDATASIZE SWAP1 DUP3 RETURNDATACOPY RETURNDATASIZE SWAP1 REVERT JUMPDEST POP CALLVALUE PUSH2 0x35C JUMPI PUSH1 0x20 CALLDATASIZE PUSH1 0x3 NOT ADD SLT PUSH2 0x35C JUMPI PUSH1 0x40 PUSH2 0x3AE SWAP2 PUSH2 0x11CA PUSH2 0x5D24 JUMP JUMPDEST POP PUSH1 0x4 CALLDATALOAD DUP2 MSTORE PUSH1 0x1 PUSH1 0x20 MSTORE KECCAK256 PUSH1 0xFF PUSH1 0xE PUSH1 0x40 MLOAD SWAP3 PUSH2 0x11E7 DUP5 PUSH2 0x4A72 JUMP JUMPDEST DUP1 SLOAD PUSH1 0x1 PUSH1 0x1 PUSH1 0xA0 SHL SUB SWAP1 DUP2 AND DUP6 MSTORE PUSH2 0x1202 PUSH1 0x1 DUP4 ADD PUSH2 0x4B8D JUMP JUMPDEST PUSH1 0x20 DUP7 ADD MSTORE DUP4 PUSH1 0x2 DUP4 ADD SLOAD AND ISZERO ISZERO PUSH1 0x40 DUP7 ADD MSTORE PUSH1 0x3 DUP3 ADD SLOAD PUSH1 0x60 DUP7 ADD MSTORE PUSH1 0x4 DUP3 ADD SLOAD AND PUSH1 0x80 DUP6 ADD MSTORE PUSH1 0x5 DUP2 ADD SLOAD PUSH1 0xA0 DUP6 ADD MSTORE PUSH1 0x6 DUP2 ADD SLOAD PUSH1 0xC0 DUP6 ADD MSTORE PUSH1 0x7 DUP2 ADD SLOAD PUSH1 0xE0 DUP6 ADD MSTORE PUSH1 0x8 DUP2 ADD SLOAD PUSH2 0x100 DUP6 ADD MSTORE PUSH1 0x9 DUP2 ADD SLOAD PUSH2 0x120 DUP6 ADD MSTORE PUSH1 0xA DUP2 ADD SLOAD PUSH2 0x140 DUP6 ADD MSTORE PUSH1 0xB DUP2 ADD SLOAD PUSH2 0x160 DUP6 ADD MSTORE PUSH2 0x1288 DUP4 PUSH1 0xC DUP4 ADD SLOAD AND PUSH2 0x180 DUP7 ADD PUSH2 0x4D3F JUMP JUMPDEST PUSH1 0xD DUP2 ADD SLOAD PUSH2 0x1A0 DUP6 ADD MSTORE ADD SLOAD AND ISZERO ISZERO PUSH2 0x1C0 DUP3 ADD MSTORE PUSH1 0x40 MLOAD SWAP2 DUP3 SWAP2 PUSH1 0x20 DUP4 MSTORE PUSH1 0x20 DUP4 ADD SWAP1 PUSH2 0x4961 JUMP JUMPDEST POP CALLVALUE PUSH2 0x35C JUMPI PUSH1 0x40 CALLDATASIZE PUSH1 0x3 NOT ADD SLT PUSH2 0x35C JUMPI PUSH1 0x4 CALLDATALOAD DUP1 ISZERO ISZERO SWAP1 DUP2 DUP2 SUB PUSH2 0x1022 JUMPI PUSH1 0x24 CALLDATALOAD SWAP2 PUSH2 0x12DE PUSH2 0x4C33 JUMP JUMPDEST PUSH1 0xFF DUP1 NOT PUSH1 0x11 SLOAD AND SWAP2 AND OR PUSH1 0x11 SSTORE PUSH2 0x12F4 JUMPI POP DUP1 RETURN JUMPDEST DUP1 ISZERO PUSH2 0x1300 JUMPI PUSH1 0x12 SSTORE DUP1 RETURN JUMPDEST PUSH1 0x40 MLOAD PUSH3 0x461BCD PUSH1 0xE5 SHL DUP2 MSTORE PUSH1 0x20 PUSH1 0x4 DUP3 ADD MSTORE PUSH1 0x2B PUSH1 0x24 DUP3 ADD MSTORE PUSH32 0x4D61726B65744D616E616765723A20496E76616C696420726573747269637469 PUSH1 0x44 DUP3 ADD MSTORE PUSH11 0x37B710323AB930BA34B7B7 PUSH1 0xA9 SHL PUSH1 0x64 DUP3 ADD MSTORE PUSH1 0x84 SWAP1 REVERT JUMPDEST POP CALLVALUE PUSH2 0x35C JUMPI PUSH1 0x60 CALLDATASIZE PUSH1 0x3 NOT ADD SLT PUSH2 0x35C JUMPI PUSH1 0x44 CALLDATALOAD SWAP1 PUSH1 0x1 PUSH1 0x1 PUSH1 0xA0 SHL SUB DUP1 DUP4 AND DUP4 SUB PUSH2 0x1022 JUMPI PUSH2 0x1150 SWAP3 PUSH1 0x20 SWAP2 PUSH1 0xB SLOAD AND PUSH1 0x40 MLOAD DUP1 DUP1 SWAP7 DUP2 SWAP5 PUSH4 0xDC4CE349 PUSH1 0xE0 SHL DUP4 MSTORE PUSH1 0x24 CALLDATALOAD PUSH1 0x4 CALLDATALOAD PUSH1 0x4 DUP6 ADD PUSH2 0x569F JUMP JUMPDEST POP CALLVALUE PUSH2 0x35C JUMPI PUSH1 0x40 CALLDATASIZE PUSH1 0x3 NOT ADD SLT PUSH2 0x35C JUMPI PUSH2 0x13C6 PUSH2 0x47F9 JUMP JUMPDEST PUSH2 0x13CE PUSH2 0x4B44 JUMP JUMPDEST SWAP1 PUSH2 0x13D7 PUSH2 0x4C33 JUMP JUMPDEST PUSH1 0x1 PUSH1 0x1 PUSH1 0xA0 SHL SUB AND SWAP1 DUP2 ISZERO PUSH2 0x13FE JUMPI PUSH2 0x13FB SWAP2 DUP4 MSTORE PUSH1 0xA PUSH1 0x20 MSTORE PUSH1 0x40 DUP4 KECCAK256 PUSH2 0x4D62 JUMP JUMPDEST DUP1 RETURN JUMPDEST PUSH1 0x40 MLOAD PUSH3 0x461BCD PUSH1 0xE5 SHL DUP2 MSTORE PUSH1 0x20 PUSH1 0x4 DUP3 ADD MSTORE PUSH1 0x25 PUSH1 0x24 DUP3 ADD MSTORE PUSH32 0x4D61726B65744D616E616765723A20496E76616C69642077616C6C6574206164 PUSH1 0x44 DUP3 ADD MSTORE PUSH5 0x6472657373 PUSH1 0xD8 SHL PUSH1 0x64 DUP3 ADD MSTORE PUSH1 0x84 SWAP1 REVERT JUMPDEST POP CALLVALUE PUSH2 0x35C JUMPI PUSH1 0x40 CALLDATASIZE PUSH1 0x3 NOT ADD SLT PUSH2 0x35C JUMPI PUSH1 0x40 PUSH2 0x146D PUSH2 0x47E3 JUMP JUMPDEST SWAP2 PUSH1 0x4 CALLDATALOAD DUP2 MSTORE PUSH1 0x4 PUSH1 0x20 MSTORE KECCAK256 SWAP1 PUSH1 0x1 DUP1 PUSH1 0xA0 SHL SUB AND PUSH1 0x0 MSTORE PUSH1 0x20 MSTORE PUSH1 0x20 PUSH1 0x40 PUSH1 0x0 KECCAK256 SLOAD PUSH1 0x40 MLOAD SWAP1 DUP2 MSTORE RETURN JUMPDEST POP CALLVALUE PUSH2 0x35C JUMPI PUSH2 0x14A7 CALLDATASIZE PUSH2 0x4B2E JUMP JUMPDEST SWAP2 SWAP1 DUP2 MSTORE PUSH1 0x5 PUSH1 0x20 MSTORE PUSH1 0x40 DUP2 KECCAK256 SWAP1 DUP2 SLOAD DUP4 LT ISZERO PUSH2 0x35C JUMPI PUSH1 0x20 PUSH2 0x14CA DUP5 DUP5 PUSH2 0x48AB JUMP JUMPDEST SWAP1 SLOAD PUSH1 0x40 MLOAD PUSH1 0x3 SWAP3 SWAP1 SWAP3 SHL SHR PUSH1 0x1 PUSH1 0x1 PUSH1 0xA0 SHL SUB AND DUP2 MSTORE RETURN JUMPDEST POP CALLVALUE PUSH2 0x35C JUMPI DUP1 PUSH1 0x3 NOT CALLDATASIZE ADD SLT PUSH2 0x35C JUMPI PUSH1 0x9 SLOAD PUSH2 0x1500 DUP2 PUSH2 0x5B9C JUMP JUMPDEST SWAP1 PUSH2 0x150E PUSH1 0x40 MLOAD SWAP3 DUP4 PUSH2 0x4AA9 JUMP JUMPDEST DUP1 DUP3 MSTORE PUSH1 0x1F NOT SWAP3 DUP4 PUSH2 0x151F DUP4 PUSH2 0x5B9C JUMP JUMPDEST ADD SWAP4 PUSH1 0x20 SWAP5 CALLDATASIZE DUP7 DUP7 ADD CALLDATACOPY PUSH2 0x1532 DUP4 PUSH2 0x5B9C JUMP JUMPDEST SWAP3 PUSH2 0x1540 PUSH1 0x40 MLOAD SWAP5 DUP6 PUSH2 0x4AA9 JUMP JUMPDEST DUP1 DUP5 MSTORE DUP2 PUSH2 0x154D DUP3 PUSH2 0x5B9C JUMP JUMPDEST ADD DUP4 JUMPDEST DUP2 DUP2 LT PUSH2 0x1649 JUMPI POP POP DUP3 JUMPDEST DUP2 DUP2 LT PUSH2 0x15D4 JUMPI POP POP PUSH2 0x1579 PUSH1 0x40 MLOAD SWAP5 PUSH1 0x40 DUP7 MSTORE PUSH1 0x40 DUP7 ADD SWAP1 PUSH2 0x4A22 JUMP JUMPDEST SWAP5 DUP5 DUP7 SUB DUP2 DUP7 ADD MSTORE DUP4 MLOAD SWAP2 DUP3 DUP8 MSTORE DUP2 DUP8 ADD SWAP1 DUP3 DUP1 DUP6 PUSH1 0x5 SHL DUP11 ADD ADD SWAP7 ADD SWAP5 SWAP8 JUMPDEST DUP5 DUP10 LT PUSH2 0x15A6 JUMPI DUP8 DUP8 SUB DUP9 RETURN JUMPDEST SWAP1 SWAP2 SWAP3 SWAP4 SWAP5 SWAP6 DUP5 DUP1 PUSH2 0x15C2 DUP4 DUP7 DUP7 PUSH1 0x1 SWAP7 SUB ADD DUP9 MSTORE DUP11 MLOAD PUSH2 0x48FE JUMP JUMPDEST SWAP9 ADD SWAP5 ADD SWAP9 ADD SWAP8 SWAP2 SWAP1 SWAP5 SWAP4 SWAP3 SWAP5 PUSH2 0x1599 JUMP JUMPDEST DUP1 PUSH2 0x15E5 PUSH2 0x1640 SWAP3 SWAP9 SWAP5 SWAP6 SWAP9 PUSH2 0x4844 JUMP JUMPDEST SWAP1 SLOAD PUSH1 0x1 PUSH1 0x1 PUSH1 0xA0 SHL SUB SWAP2 PUSH1 0x3 SWAP2 SWAP1 DUP3 SHL SHR DUP3 AND PUSH2 0x1603 DUP5 DUP12 PUSH2 0x5BB3 JUMP JUMPDEST MSTORE PUSH2 0x160D DUP4 PUSH2 0x4844 JUMP JUMPDEST SWAP1 SLOAD SWAP2 SHL SHR AND DUP9 MSTORE PUSH1 0x8 DUP5 MSTORE PUSH2 0x1625 PUSH1 0x40 DUP10 KECCAK256 PUSH2 0x4B8D JUMP JUMPDEST PUSH2 0x162F DUP3 DUP9 PUSH2 0x5BB3 JUMP JUMPDEST MSTORE PUSH2 0x163A DUP2 DUP8 PUSH2 0x5BB3 JUMP JUMPDEST POP PUSH2 0x4D30 JUMP JUMPDEST SWAP6 SWAP3 SWAP2 SWAP6 PUSH2 0x155B JUMP JUMPDEST PUSH1 0x60 DUP7 DUP3 ADD DUP10 ADD MSTORE DUP8 ADD PUSH2 0x1550 JUMP JUMPDEST POP CALLVALUE PUSH2 0x35C JUMPI DUP1 PUSH1 0x3 NOT CALLDATASIZE ADD SLT PUSH2 0x35C JUMPI PUSH1 0x20 PUSH1 0x9 SLOAD PUSH1 0x40 MLOAD SWAP1 DUP2 MSTORE RETURN JUMPDEST POP CALLVALUE PUSH2 0x35C JUMPI DUP1 PUSH1 0x3 NOT CALLDATASIZE ADD SLT PUSH2 0x35C JUMPI PUSH1 0x16 SLOAD PUSH2 0x1693 DUP2 PUSH2 0x5D94 JUMP JUMPDEST DUP3 SWAP2 DUP4 JUMPDEST DUP2 DUP2 LT PUSH2 0x16E4 JUMPI POP POP PUSH2 0x16A9 DUP3 PUSH2 0x5D94 JUMP JUMPDEST SWAP3 JUMPDEST DUP3 DUP2 LT PUSH2 0x16C0 JUMPI PUSH1 0x40 MLOAD DUP1 PUSH2 0x3AE DUP7 DUP3 PUSH2 0x48C3 JUMP JUMPDEST DUP1 PUSH2 0x16CE PUSH2 0x16DF SWAP3 DUP5 PUSH2 0x5BB3 JUMP JUMPDEST MLOAD PUSH2 0x16D9 DUP3 DUP8 PUSH2 0x5BB3 JUMP JUMPDEST MSTORE PUSH2 0x4D30 JUMP JUMPDEST PUSH2 0x16AB JUMP JUMPDEST PUSH2 0x16ED DUP2 PUSH2 0x4890 JUMP JUMPDEST SWAP1 SLOAD SWAP1 PUSH1 0x3 SHL SHR DUP1 DUP7 MSTORE PUSH1 0x20 PUSH1 0x1 DUP2 MSTORE PUSH1 0xFF PUSH1 0xC PUSH1 0x40 DUP10 KECCAK256 ADD SLOAD AND PUSH1 0x5 DUP2 LT ISZERO PUSH2 0x176D JUMPI PUSH1 0x4 EQ SWAP1 DUP2 PUSH2 0x174A JUMPI JUMPDEST POP PUSH2 0x1730 JUMPI JUMPDEST POP PUSH2 0x172B SWAP1 PUSH2 0x4D30 JUMP JUMPDEST PUSH2 0x1697 JUMP JUMPDEST DUP5 PUSH2 0x1743 SWAP2 PUSH2 0x16D9 PUSH2 0x172B SWAP5 SWAP8 DUP8 PUSH2 0x5BB3 JUMP JUMPDEST SWAP4 SWAP1 PUSH2 0x1721 JUMP JUMPDEST PUSH1 0x17 SWAP2 POP DUP3 DUP9 MSTORE MSTORE PUSH1 0x40 DUP7 KECCAK256 SLOAD PUSH3 0x278D00 DUP2 ADD DUP1 SWAP2 GT PUSH2 0x733 JUMPI TIMESTAMP LT ISZERO CODESIZE PUSH2 0x171B JUMP JUMPDEST PUSH4 0x4E487B71 PUSH1 0xE0 SHL DUP9 MSTORE PUSH1 0x21 PUSH1 0x4 MSTORE PUSH1 0x24 DUP9 REVERT JUMPDEST POP CALLVALUE PUSH2 0x35C JUMPI PUSH1 0x20 CALLDATASIZE PUSH1 0x3 NOT ADD SLT PUSH2 0x35C JUMPI PUSH1 0x4 CALLDATALOAD DUP1 DUP3 MSTORE PUSH1 0x1 PUSH1 0x20 MSTORE PUSH1 0x40 DUP3 KECCAK256 DUP1 SLOAD PUSH1 0x1 PUSH1 0x1 PUSH1 0xA0 SHL SUB AND CALLER SUB PUSH2 0x187D JUMPI PUSH1 0xFF PUSH1 0xC DUP3 ADD SLOAD AND PUSH1 0x5 DUP2 LT ISZERO PUSH2 0x10F3 JUMPI SWAP1 PUSH2 0x17D1 PUSH1 0x9 SWAP3 ISZERO PUSH2 0x4F4D JUMP JUMPDEST ADD SLOAD PUSH2 0xA8BF NOT DUP2 ADD SWAP1 DUP2 GT PUSH2 0x1869 JUMPI TIMESTAMP LT ISZERO PUSH2 0x181A JUMPI PUSH1 0x40 MLOAD PUSH2 0x13FB SWAP2 PUSH2 0x17F7 DUP3 PUSH2 0x4A8E JUMP JUMPDEST PUSH1 0x11 DUP3 MSTORE PUSH17 0x10DC99585D1BDC8818D85B98D95B1B1959 PUSH1 0x7A SHL PUSH1 0x20 DUP4 ADD MSTORE PUSH2 0x56E0 JUMP JUMPDEST PUSH1 0x40 MLOAD PUSH3 0x461BCD PUSH1 0xE5 SHL DUP2 MSTORE PUSH1 0x20 PUSH1 0x4 DUP3 ADD MSTORE PUSH1 0x21 PUSH1 0x24 DUP3 ADD MSTORE PUSH32 0x4D61726B65744D616E616765723A20546F6F206C61746520746F2063616E6365 PUSH1 0x44 DUP3 ADD MSTORE PUSH1 0x1B PUSH1 0xFA SHL PUSH1 0x64 DUP3 ADD MSTORE PUSH1 0x84 SWAP1 REVERT JUMPDEST PUSH4 0x4E487B71 PUSH1 0xE0 SHL DUP4 MSTORE PUSH1 0x11 PUSH1 0x4 MSTORE PUSH1 0x24 DUP4 REVERT JUMPDEST PUSH1 0x40 MLOAD PUSH3 0x461BCD PUSH1 0xE5 SHL DUP2 MSTORE PUSH1 0x20 PUSH1 0x4 DUP3 ADD MSTORE PUSH1 0x26 PUSH1 0x24 DUP3 ADD MSTORE PUSH32 0x4D61726B65744D616E616765723A204F6E6C792063726561746F722063616E20 PUSH1 0x44 DUP3 ADD MSTORE PUSH6 0x18D85B98D95B PUSH1 0xD2 SHL PUSH1 0x64 DUP3 ADD MSTORE PUSH1 0x84 SWAP1 REVERT JUMPDEST POP CALLVALUE PUSH2 0x35C JUMPI PUSH2 0x18E0 CALLDATASIZE PUSH2 0x4B2E JUMP JUMPDEST SWAP2 SWAP1 DUP2 MSTORE PUSH1 0x6 PUSH1 0x20 MSTORE PUSH1 0x40 DUP2 KECCAK256 SWAP1 DUP2 SLOAD DUP4 LT ISZERO PUSH2 0x35C JUMPI PUSH1 0x20 PUSH2 0x14CA DUP5 DUP5 PUSH2 0x48AB JUMP JUMPDEST POP CALLVALUE PUSH2 0x35C JUMPI DUP1 PUSH1 0x3 NOT CALLDATASIZE ADD SLT PUSH2 0x35C JUMPI PUSH1 0x20 PUSH1 0x12 SLOAD PUSH1 0x40 MLOAD SWAP1 DUP2 MSTORE RETURN JUMPDEST POP CALLVALUE PUSH2 0x35C JUMPI DUP1 PUSH1 0x3 NOT CALLDATASIZE ADD SLT PUSH2 0x35C JUMPI PUSH1 0xE SLOAD PUSH1 0x0 NOT SWAP1 DUP2 DUP2 ADD DUP2 DUP2 GT PUSH2 0x1997 JUMPI PUSH2 0x194C SWAP1 PUSH2 0x5D94 JUMP JUMPDEST SWAP2 PUSH1 0x1 JUMPDEST DUP3 DUP2 LT PUSH2 0x1965 JUMPI PUSH1 0x40 MLOAD DUP1 PUSH2 0x3AE DUP7 DUP3 PUSH2 0x48C3 JUMP JUMPDEST DUP2 DUP2 ADD DUP2 DUP2 GT PUSH2 0x1983 JUMPI SWAP1 DUP1 PUSH2 0x16D9 PUSH2 0x197E SWAP4 DUP8 PUSH2 0x5BB3 JUMP JUMPDEST PUSH2 0x1950 JUMP JUMPDEST PUSH4 0x4E487B71 PUSH1 0xE0 SHL DUP7 MSTORE PUSH1 0x11 PUSH1 0x4 MSTORE PUSH1 0x24 DUP7 REVERT JUMPDEST PUSH4 0x4E487B71 PUSH1 0xE0 SHL DUP5 MSTORE PUSH1 0x11 PUSH1 0x4 MSTORE PUSH1 0x24 DUP5 REVERT JUMPDEST POP CALLVALUE PUSH2 0x35C JUMPI PUSH1 0x20 CALLDATASIZE PUSH1 0x3 NOT ADD SLT PUSH2 0x35C JUMPI PUSH1 0x4 CALLDATALOAD DUP2 MSTORE PUSH1 0x1 PUSH1 0x20 MSTORE PUSH1 0x40 SWAP1 KECCAK256 PUSH1 0x1 PUSH1 0xA0 SHL PUSH1 0x1 SWAP1 SUB DUP1 DUP3 SLOAD AND SWAP2 PUSH1 0x1 DUP2 ADD PUSH2 0x19E6 SWAP1 PUSH2 0x4B8D JUMP JUMPDEST SWAP2 PUSH1 0x2 DUP3 ADD SLOAD PUSH1 0xFF AND SWAP2 PUSH1 0x3 DUP2 ADD SLOAD SWAP2 PUSH1 0x4 DUP3 ADD SLOAD AND PUSH1 0x5 DUP3 ADD SLOAD PUSH1 0x6 DUP4 ADD SLOAD PUSH1 0x7 DUP5 ADD SLOAD PUSH1 0x8 DUP6 ADD SLOAD PUSH1 0x9 DUP7 ADD SLOAD SWAP2 PUSH1 0xA DUP8 ADD SLOAD SWAP4 PUSH1 0xB DUP9 ADD SLOAD SWAP6 PUSH1 0xC DUP10 ADD SLOAD PUSH1 0xFF AND SWAP8 PUSH1 0xD DUP11 ADD SLOAD SWAP10 PUSH1 0xE ADD SLOAD PUSH1 0xFF AND SWAP11 PUSH1 0x40 MLOAD SWAP15 DUP16 SWAP15 DUP16 SWAP2 DUP3 MSTORE PUSH2 0x1E0 DUP1 PUSH1 0x20 DUP5 ADD MSTORE DUP3 ADD PUSH2 0x1A57 SWAP2 PUSH2 0x48FE JUMP JUMPDEST SWAP14 ISZERO ISZERO PUSH1 0x40 DUP3 ADD MSTORE PUSH1 0x60 ADD MSTORE PUSH1 0x80 DUP14 ADD MSTORE PUSH1 0xA0 DUP13 ADD MSTORE PUSH1 0xC0 DUP12 ADD MSTORE PUSH1 0xE0 DUP11 ADD MSTORE PUSH2 0x100 DUP10 ADD MSTORE PUSH2 0x120 DUP9 ADD MSTORE PUSH2 0x140 DUP8 ADD MSTORE PUSH2 0x160 DUP7 ADD MSTORE PUSH2 0x180 DUP6 ADD PUSH2 0x1A9D SWAP2 PUSH2 0x493E JUMP JUMPDEST PUSH2 0x1A0 DUP5 ADD MSTORE ISZERO ISZERO PUSH2 0x1C0 DUP4 ADD MSTORE SUB SWAP1 RETURN JUMPDEST POP CALLVALUE PUSH2 0x35C JUMPI PUSH1 0x20 CALLDATASIZE PUSH1 0x3 NOT ADD SLT PUSH2 0x35C JUMPI PUSH1 0x4 CALLDATALOAD SWAP1 DUP2 DUP2 MSTORE PUSH1 0x1 PUSH1 0x20 MSTORE PUSH1 0x40 DUP2 KECCAK256 SWAP2 PUSH1 0xC DUP4 ADD SWAP3 DUP4 SLOAD PUSH1 0xFF DUP2 AND SWAP5 PUSH1 0x5 DUP7 LT ISZERO PUSH2 0x1C74 JUMPI PUSH2 0x1AF7 PUSH1 0x1 PUSH1 0x24 SWAP6 SWAP7 SWAP8 EQ PUSH2 0x51EC JUMP JUMPDEST PUSH1 0xE DUP4 ADD SWAP3 DUP4 SLOAD PUSH2 0x1B0B PUSH1 0xFF DUP3 AND ISZERO PUSH2 0x5249 JUMP JUMPDEST PUSH1 0xC SLOAD PUSH1 0x40 DUP1 MLOAD PUSH4 0x33138655 PUSH1 0xE2 SHL DUP2 MSTORE PUSH1 0x4 DUP2 ADD DUP11 SWAP1 MSTORE SWAP8 PUSH1 0x1 PUSH1 0x1 PUSH1 0xA0 SHL SUB SWAP7 SWAP3 DUP10 SWAP2 SWAP1 DUP3 SWAP1 DUP10 AND GAS STATICCALL SWAP7 DUP8 ISZERO PUSH2 0x1C69 JUMPI DUP10 SWAP1 DUP11 SWAP9 PUSH2 0x1C35 JUMPI JUMPDEST POP ISZERO PUSH2 0x1BE4 JUMPI DUP9 SWAP6 DUP8 PUSH1 0xD PUSH1 0x2 SWAP6 ADD SSTORE PUSH1 0x1 PUSH1 0xFF NOT DUP1 SWAP5 AND OR SWAP1 SSTORE AND OR SWAP1 SSTORE PUSH2 0x1B6F DUP5 PUSH2 0x5744 JUMP JUMPDEST PUSH1 0xD SLOAD AND DUP1 PUSH2 0x1B97 JUMPI JUMPDEST POP POP PUSH1 0x20 PUSH1 0x0 DUP1 MLOAD PUSH1 0x20 PUSH2 0x5EA7 DUP4 CODECOPY DUP2 MLOAD SWAP2 MSTORE SWAP2 PUSH1 0x40 MLOAD SWAP1 DUP2 MSTORE LOG2 DUP1 RETURN JUMPDEST DUP1 EXTCODESIZE ISZERO PUSH2 0x5EB JUMPI DUP2 DUP1 SWAP2 PUSH1 0x44 PUSH1 0x40 MLOAD DUP1 SWAP5 DUP2 SWAP4 PUSH3 0xFF4A73 PUSH1 0xE8 SHL DUP4 MSTORE DUP10 PUSH1 0x4 DUP5 ADD MSTORE DUP9 PUSH1 0x24 DUP5 ADD MSTORE GAS CALL DUP1 ISZERO PUSH2 0x5E0 JUMPI ISZERO PUSH2 0x1B79 JUMPI PUSH2 0x1BD5 SWAP1 PUSH2 0x4A5F JUMP JUMPDEST PUSH2 0x1BE0 JUMPI DUP3 CODESIZE PUSH2 0x1B79 JUMP JUMPDEST DUP3 DUP1 REVERT JUMPDEST PUSH1 0x40 MLOAD PUSH3 0x461BCD PUSH1 0xE5 SHL DUP2 MSTORE PUSH1 0x20 PUSH1 0x4 DUP3 ADD MSTORE PUSH1 0x24 DUP1 DUP3 ADD MSTORE PUSH32 0x4D61726B65744D616E616765723A204E6F207265736F6C7574696F6E20726561 PUSH1 0x44 DUP3 ADD MSTORE PUSH4 0x18DA1959 PUSH1 0xE2 SHL PUSH1 0x64 DUP3 ADD MSTORE PUSH1 0x84 SWAP1 REVERT JUMPDEST SWAP1 POP PUSH2 0x1C5A SWAP2 SWAP8 POP PUSH1 0x40 RETURNDATASIZE PUSH1 0x40 GT PUSH2 0x1C62 JUMPI JUMPDEST PUSH2 0x1C52 DUP2 DUP4 PUSH2 0x4AA9 JUMP JUMPDEST DUP2 ADD SWAP1 PUSH2 0x52D7 JUMP JUMPDEST SWAP7 SWAP1 CODESIZE PUSH2 0x1B47 JUMP JUMPDEST POP RETURNDATASIZE PUSH2 0x1C48 JUMP JUMPDEST PUSH1 0x40 MLOAD RETURNDATASIZE DUP12 DUP3 RETURNDATACOPY RETURNDATASIZE SWAP1 REVERT JUMPDEST PUSH4 0x4E487B71 PUSH1 0xE0 SHL DUP6 MSTORE PUSH1 0x21 PUSH1 0x4 MSTORE PUSH1 0x24 DUP6 REVERT JUMPDEST POP CALLVALUE PUSH2 0x35C JUMPI PUSH1 0x20 CALLDATASIZE PUSH1 0x3 NOT ADD SLT PUSH2 0x35C JUMPI PUSH1 0x40 PUSH1 0x20 SWAP2 PUSH1 0x4 CALLDATALOAD DUP2 MSTORE PUSH1 0x17 DUP4 MSTORE KECCAK256 SLOAD PUSH1 0x40 MLOAD SWAP1 DUP2 MSTORE RETURN JUMPDEST POP CALLVALUE PUSH2 0x35C JUMPI DUP1 PUSH1 0x3 NOT CALLDATASIZE ADD SLT PUSH2 0x35C JUMPI PUSH1 0x40 MLOAD PUSH1 0x13 DUP1 SLOAD DUP1 DUP4 MSTORE SWAP1 DUP4 MSTORE PUSH1 0x20 DUP1 DUP4 ADD SWAP4 PUSH32 0x66DE8FFDA797E3DE9C05E8FC57B3BF0EC28A930D40B0D285D93C06501CF6A090 SWAP3 SWAP2 JUMPDEST DUP3 DUP3 LT PUSH2 0x1D1D JUMPI PUSH2 0x3AE DUP6 PUSH2 0x1D11 DUP2 DUP10 SUB DUP3 PUSH2 0x4AA9 JUMP JUMPDEST PUSH1 0x40 MLOAD SWAP2 DUP3 SWAP2 DUP3 PUSH2 0x48C3 JUMP JUMPDEST DUP4 SLOAD DUP7 MSTORE SWAP5 DUP6 ADD SWAP5 PUSH1 0x1 SWAP4 DUP5 ADD SWAP4 SWAP1 SWAP2 ADD SWAP1 PUSH2 0x1CFA JUMP JUMPDEST POP CALLVALUE PUSH2 0x35C JUMPI PUSH1 0x20 CALLDATASIZE PUSH1 0x3 NOT ADD SLT PUSH2 0x35C JUMPI PUSH1 0x40 PUSH1 0x20 SWAP2 PUSH1 0x4 CALLDATALOAD DUP2 MSTORE PUSH1 0x6 DUP4 MSTORE KECCAK256 SLOAD PUSH1 0x40 MLOAD SWAP1 DUP2 MSTORE RETURN JUMPDEST POP CALLVALUE PUSH2 0x35C JUMPI PUSH1 0x20 CALLDATASIZE PUSH1 0x3 NOT ADD SLT PUSH2 0x35C JUMPI PUSH2 0x1D78 PUSH2 0x4C33 JUMP JUMPDEST PUSH1 0x4 CALLDATALOAD PUSH1 0xF SSTORE DUP1 RETURN JUMPDEST POP CALLVALUE PUSH2 0x35C JUMPI PUSH1 0x40 CALLDATASIZE PUSH1 0x3 NOT ADD SLT PUSH2 0x35C JUMPI PUSH2 0x1D9B PUSH2 0x47F9 JUMP JUMPDEST PUSH1 0x1 PUSH1 0x1 PUSH1 0xA0 SHL SUB AND DUP2 MSTORE PUSH1 0x15 PUSH1 0x20 MSTORE PUSH1 0x40 DUP2 KECCAK256 DUP1 SLOAD PUSH1 0x24 CALLDATALOAD SWAP3 SWAP1 DUP4 LT ISZERO PUSH2 0x35C JUMPI PUSH1 0x20 PUSH2 0x1DC9 DUP5 DUP5 PUSH2 0x48AB JUMP JUMPDEST SWAP1 SLOAD PUSH1 0x40 MLOAD SWAP2 PUSH1 0x3 SHL SHR DUP2 MSTORE RETURN JUMPDEST POP CALLVALUE PUSH2 0x35C JUMPI PUSH1 0x20 CALLDATASIZE PUSH1 0x3 NOT ADD SLT PUSH2 0x35C JUMPI PUSH2 0x1DF1 PUSH2 0x47F9 JUMP JUMPDEST PUSH2 0x1DF9 PUSH2 0x4C33 JUMP JUMPDEST PUSH1 0xC DUP1 SLOAD PUSH1 0x1 PUSH1 0x1 PUSH1 0xA0 SHL SUB NOT AND PUSH1 0x1 PUSH1 0x1 PUSH1 0xA0 SHL SUB SWAP3 SWAP1 SWAP3 AND SWAP2 SWAP1 SWAP2 OR SWAP1 SSTORE DUP1 RETURN JUMPDEST POP CALLVALUE PUSH2 0x35C JUMPI DUP1 PUSH1 0x3 NOT CALLDATASIZE ADD SLT PUSH2 0x35C JUMPI SLOAD PUSH1 0x40 MLOAD PUSH1 0x1 PUSH1 0x1 PUSH1 0xA0 SHL SUB SWAP1 SWAP2 AND DUP2 MSTORE PUSH1 0x20 SWAP1 RETURN JUMPDEST POP CALLVALUE PUSH2 0x35C JUMPI DUP1 PUSH1 0x3 NOT CALLDATASIZE ADD SLT PUSH2 0x35C JUMPI PUSH1 0x20 PUSH1 0xFF PUSH1 0x11 SLOAD AND PUSH1 0x40 MLOAD SWAP1 ISZERO ISZERO DUP2 MSTORE RETURN JUMPDEST POP CALLVALUE PUSH2 0x35C JUMPI PUSH1 0x20 CALLDATASIZE PUSH1 0x3 NOT ADD SLT PUSH2 0x35C JUMPI PUSH1 0x4 CALLDATALOAD SWAP1 PUSH1 0x16 SLOAD DUP3 LT ISZERO PUSH2 0x35C JUMPI PUSH1 0x20 PUSH2 0x1DC9 DUP4 PUSH2 0x4890 JUMP JUMPDEST POP CALLVALUE PUSH2 0x35C JUMPI PUSH1 0x20 DUP1 PUSH1 0x3 NOT CALLDATASIZE ADD SLT PUSH2 0x5EB JUMPI PUSH1 0x4 CALLDATALOAD DUP3 MSTORE PUSH1 0x6 DUP2 MSTORE PUSH1 0x40 DUP3 KECCAK256 SWAP2 PUSH1 0x40 MLOAD DUP1 SWAP4 DUP5 SWAP2 DUP5 DUP3 SLOAD SWAP2 DUP3 DUP2 MSTORE ADD SWAP2 DUP5 MSTORE DUP5 DUP5 KECCAK256 SWAP4 JUMPDEST DUP6 DUP3 DUP3 LT PUSH2 0x1EF4 JUMPI POP POP POP PUSH2 0x1EE0 SWAP3 POP SUB DUP4 PUSH2 0x4AA9 JUMP JUMPDEST PUSH2 0x3AE PUSH1 0x40 MLOAD SWAP3 DUP3 DUP5 SWAP4 DUP5 MSTORE DUP4 ADD SWAP1 PUSH2 0x4A22 JUMP JUMPDEST DUP6 SLOAD PUSH1 0x1 PUSH1 0x1 PUSH1 0xA0 SHL SUB AND DUP5 MSTORE PUSH1 0x1 SWAP6 DUP7 ADD SWAP6 DUP9 SWAP6 POP SWAP4 ADD SWAP3 ADD PUSH2 0x1EC9 JUMP JUMPDEST POP CALLVALUE PUSH2 0x35C JUMPI PUSH2 0x1150 SWAP1 PUSH1 0x20 PUSH2 0x1F28 CALLDATASIZE PUSH2 0x480F JUMP JUMPDEST PUSH1 0xB SLOAD PUSH1 0x40 MLOAD PUSH4 0x423E7BC1 PUSH1 0xE1 SHL DUP2 MSTORE SWAP7 DUP8 SWAP5 PUSH1 0x1 PUSH1 0x1 PUSH1 0xA0 SHL SUB SWAP1 SWAP3 AND SWAP4 DUP6 SWAP4 DUP5 SWAP4 SWAP1 SWAP2 SWAP1 PUSH1 0x4 DUP6 ADD PUSH2 0x51CC JUMP JUMPDEST POP CALLVALUE PUSH2 0x35C JUMPI PUSH1 0x20 CALLDATASIZE PUSH1 0x3 NOT ADD SLT PUSH2 0x35C JUMPI PUSH1 0x4 CALLDATALOAD PUSH1 0x18 SLOAD DUP2 LT ISZERO PUSH2 0x5EB JUMPI PUSH1 0x18 PUSH1 0x0 MSTORE PUSH1 0x0 DUP1 MLOAD PUSH1 0x20 PUSH2 0x5E67 DUP4 CODECOPY DUP2 MLOAD SWAP2 MSTORE ADD SLOAD PUSH1 0x40 MLOAD SWAP1 DUP2 MSTORE PUSH1 0x20 SWAP1 RETURN JUMPDEST POP CALLVALUE PUSH2 0x35C JUMPI DUP1 PUSH1 0x3 NOT CALLDATASIZE ADD SLT PUSH2 0x35C JUMPI PUSH1 0xD SLOAD PUSH1 0x40 MLOAD PUSH1 0x1 PUSH1 0x1 PUSH1 0xA0 SHL SUB SWAP1 SWAP2 AND DUP2 MSTORE PUSH1 0x20 SWAP1 RETURN JUMPDEST POP CALLVALUE PUSH2 0x35C JUMPI PUSH1 0x20 CALLDATASIZE PUSH1 0x3 NOT ADD SLT PUSH2 0x35C JUMPI PUSH1 0x4 CALLDATALOAD DUP1 DUP3 MSTORE PUSH1 0x1 PUSH1 0x20 MSTORE PUSH1 0x40 DUP3 KECCAK256 SWAP1 PUSH1 0xFF PUSH1 0xC DUP4 ADD SLOAD AND PUSH1 0x5 DUP2 LT ISZERO PUSH2 0x10F3 JUMPI PUSH1 0x1 PUSH2 0x1FFF SWAP2 EQ PUSH2 0x51EC JUMP JUMPDEST PUSH1 0xB DUP3 ADD SLOAD TIMESTAMP LT PUSH2 0x202C JUMPI PUSH2 0x201E PUSH1 0xFF PUSH1 0xE PUSH2 0x13FB SWAP5 ADD SLOAD AND ISZERO PUSH2 0x5249 JUMP JUMPDEST PUSH2 0x2026 PUSH2 0x5295 JUMP JUMPDEST SWAP1 PUSH2 0x56E0 JUMP JUMPDEST PUSH1 0x40 MLOAD PUSH3 0x461BCD PUSH1 0xE5 SHL DUP2 MSTORE PUSH1 0x20 PUSH1 0x4 DUP3 ADD MSTORE PUSH1 0x2A PUSH1 0x24 DUP3 ADD MSTORE PUSH32 0x4D61726B65744D616E616765723A205265736F6C7574696F6E20706572696F64 PUSH1 0x44 DUP3 ADD MSTORE PUSH10 0x81B9BDD08195B991959 PUSH1 0xB2 SHL PUSH1 0x64 DUP3 ADD MSTORE PUSH1 0x84 SWAP1 REVERT JUMPDEST POP CALLVALUE PUSH2 0x35C JUMPI PUSH1 0x20 CALLDATASIZE PUSH1 0x3 NOT ADD SLT PUSH2 0x35C JUMPI PUSH2 0x209E PUSH2 0x47F9 JUMP JUMPDEST PUSH2 0x20A6 PUSH2 0x4C33 JUMP JUMPDEST PUSH1 0x1 PUSH1 0x1 PUSH1 0xA0 SHL SUB SWAP1 DUP2 AND SWAP1 DUP2 ISZERO PUSH2 0x21BE JUMPI DUP2 DUP4 MSTORE PUSH1 0x7 PUSH1 0x20 MSTORE PUSH2 0x20D0 PUSH1 0xFF PUSH1 0x40 DUP6 KECCAK256 SLOAD AND PUSH2 0x4CB5 JUMP JUMPDEST DUP2 DUP4 MSTORE PUSH1 0x7 PUSH1 0x20 MSTORE PUSH1 0x40 DUP4 KECCAK256 PUSH1 0xFF NOT DUP2 SLOAD AND SWAP1 SSTORE PUSH1 0x8 PUSH1 0x20 MSTORE PUSH2 0x20F5 PUSH1 0x40 DUP5 KECCAK256 PUSH2 0x5B53 JUMP JUMPDEST DUP3 JUMPDEST PUSH1 0x9 DUP1 SLOAD SWAP1 DUP2 DUP4 LT ISZERO PUSH2 0x21B6 JUMPI DUP4 SWAP2 DUP6 PUSH2 0x2110 DUP6 PUSH2 0x4844 JUMP JUMPDEST SWAP5 SWAP1 SLOAD PUSH1 0x3 SWAP6 DUP7 SHL SHR AND EQ PUSH2 0x2130 JUMPI POP POP POP PUSH2 0x212B SWAP1 PUSH2 0x4D30 JUMP JUMPDEST PUSH2 0x20F7 JUMP JUMPDEST SWAP2 SWAP5 POP SWAP3 SWAP2 PUSH1 0x0 NOT SWAP2 DUP3 DUP2 ADD SWAP1 DUP2 GT PUSH2 0x733 JUMPI SWAP1 PUSH2 0x2161 DUP5 PUSH2 0x2154 PUSH2 0x2180 SWAP5 PUSH2 0x4844 JUMP JUMPDEST SWAP1 SLOAD SWAP1 DUP10 SHL SHR AND SWAP2 PUSH2 0x4844 JUMP JUMPDEST SWAP1 SWAP2 SWAP1 DUP3 SLOAD SWAP1 PUSH1 0x3 SHL SWAP2 PUSH1 0x1 DUP1 PUSH1 0xA0 SHL SUB DUP1 SWAP2 AND DUP4 SHL SWAP3 SHL NOT AND OR SWAP1 SSTORE JUMP JUMPDEST DUP3 SLOAD DUP1 ISZERO PUSH2 0x21A2 JUMPI ADD SWAP3 PUSH2 0x2193 DUP5 PUSH2 0x4844 JUMP JUMPDEST DUP2 SWAP4 SWAP2 SLOAD SWAP3 SHL SHL NOT AND SWAP1 SSTORE SSTORE DUP1 RETURN JUMPDEST PUSH4 0x4E487B71 PUSH1 0xE0 SHL DUP7 MSTORE PUSH1 0x31 PUSH1 0x4 MSTORE PUSH1 0x24 DUP7 REVERT JUMPDEST POP POP POP POP POP DUP1 RETURN JUMPDEST PUSH1 0x40 MLOAD PUSH3 0x461BCD PUSH1 0xE5 SHL DUP2 MSTORE PUSH1 0x20 PUSH1 0x4 DUP3 ADD MSTORE PUSH1 0x29 PUSH1 0x24 DUP3 ADD MSTORE PUSH32 0x4D61726B65744D616E616765723A2043616E6E6F742072656D6F7665206E6174 PUSH1 0x44 DUP3 ADD MSTORE PUSH9 0x34BB32903A37B5B2B7 PUSH1 0xB9 SHL PUSH1 0x64 DUP3 ADD MSTORE PUSH1 0x84 SWAP1 REVERT JUMPDEST POP CALLVALUE PUSH2 0x35C JUMPI PUSH1 0x20 CALLDATASIZE PUSH1 0x3 NOT ADD SLT PUSH2 0x35C JUMPI PUSH2 0x222F PUSH2 0x47F9 JUMP JUMPDEST PUSH2 0x2237 PUSH2 0x4C33 JUMP JUMPDEST PUSH1 0xD DUP1 SLOAD PUSH1 0x1 PUSH1 0x1 PUSH1 0xA0 SHL SUB NOT AND PUSH1 0x1 PUSH1 0x1 PUSH1 0xA0 SHL SUB SWAP3 SWAP1 SWAP3 AND SWAP2 SWAP1 SWAP2 OR SWAP1 SSTORE DUP1 RETURN JUMPDEST POP CALLVALUE PUSH2 0x35C JUMPI PUSH1 0x40 CALLDATASIZE PUSH1 0x3 NOT ADD SLT PUSH2 0x35C JUMPI PUSH2 0x2274 PUSH2 0x47F9 JUMP JUMPDEST PUSH1 0x24 PUSH1 0x1 PUSH1 0x1 PUSH1 0x40 SHL SUB DUP2 CALLDATALOAD DUP2 DUP2 GT PUSH2 0xD01 JUMPI PUSH2 0x2295 SWAP1 CALLDATASIZE SWAP1 PUSH1 0x4 ADD PUSH2 0x4AE7 JUMP JUMPDEST PUSH2 0x229D PUSH2 0x4C33 JUMP JUMPDEST PUSH1 0x1 PUSH1 0x1 PUSH1 0xA0 SHL SUB DUP5 AND SWAP2 DUP3 ISZERO PUSH2 0x24C9 JUMPI DUP2 MLOAD ISZERO PUSH2 0x2479 JUMPI DUP3 DUP7 MSTORE PUSH1 0x20 SWAP3 PUSH1 0x7 DUP5 MSTORE PUSH1 0xFF PUSH1 0x40 DUP9 KECCAK256 SLOAD AND PUSH2 0x2426 JUMPI DUP7 MSTORE PUSH1 0x7 DUP4 MSTORE PUSH1 0x40 DUP7 KECCAK256 SWAP3 PUSH1 0x1 SWAP4 DUP5 PUSH1 0xFF NOT DUP3 SLOAD AND OR SWAP1 SSTORE PUSH1 0x8 DUP2 MSTORE PUSH1 0x40 DUP8 KECCAK256 SWAP3 DUP1 MLOAD SWAP3 DUP4 GT PUSH2 0x2413 JUMPI SWAP1 DUP3 SWAP2 PUSH2 0x2302 DUP6 SLOAD PUSH2 0x4B53 JUMP JUMPDEST PUSH1 0x1F DUP2 GT PUSH2 0x23DA JUMPI JUMPDEST POP DUP2 PUSH1 0x1F DUP5 GT PUSH1 0x1 EQ PUSH2 0x2377 JUMPI POP DUP9 SWAP3 PUSH2 0x236C JUMPI JUMPDEST POP POP PUSH1 0x0 NOT PUSH1 0x3 DUP4 SWAP1 SHL SHR NOT AND SWAP1 DUP4 SHL OR SWAP1 SSTORE JUMPDEST PUSH1 0x9 SLOAD SWAP2 PUSH1 0x1 PUSH1 0x40 SHL DUP4 LT ISZERO PUSH2 0x2358 JUMPI POP DUP2 PUSH2 0x2161 SWAP2 PUSH2 0x13FB SWAP5 SWAP4 ADD PUSH1 0x9 SSTORE PUSH2 0x4844 JUMP JUMPDEST PUSH4 0x4E487B71 PUSH1 0xE0 SHL PUSH1 0x0 SWAP1 DUP2 MSTORE PUSH1 0x41 PUSH1 0x4 MSTORE REVERT JUMPDEST ADD MLOAD SWAP1 POP CODESIZE DUP1 PUSH2 0x2320 JUMP JUMPDEST SWAP2 SWAP1 DUP7 SWAP5 POP PUSH1 0x1F NOT DUP5 AND DUP7 DUP12 MSTORE DUP4 DUP12 KECCAK256 SWAP4 DUP12 SWAP1 JUMPDEST DUP3 DUP3 LT PUSH2 0x23C1 JUMPI POP POP DUP5 GT PUSH2 0x23A8 JUMPI JUMPDEST POP POP POP DUP2 SHL ADD SWAP1 SSTORE PUSH2 0x2334 JUMP JUMPDEST ADD MLOAD PUSH1 0x0 NOT PUSH1 0xF8 DUP5 PUSH1 0x3 SHL AND SHR NOT AND SWAP1 SSTORE CODESIZE DUP1 DUP1 PUSH2 0x239B JUMP JUMPDEST DUP5 DUP5 ADD MLOAD DUP7 SSTORE DUP10 SWAP8 SWAP1 SWAP6 ADD SWAP5 SWAP4 DUP5 ADD SWAP4 SWAP1 DUP2 ADD SWAP1 PUSH2 0x238B JUMP JUMPDEST PUSH2 0x2403 SWAP1 DUP7 DUP12 MSTORE DUP4 DUP12 KECCAK256 PUSH1 0x1F DUP7 ADD PUSH1 0x5 SHR DUP2 ADD SWAP2 DUP6 DUP8 LT PUSH2 0x2409 JUMPI JUMPDEST PUSH1 0x1F ADD PUSH1 0x5 SHR ADD SWAP1 PUSH2 0x4D4B JUMP JUMPDEST CODESIZE PUSH2 0x230B JUMP JUMPDEST SWAP1 SWAP2 POP DUP2 SWAP1 PUSH2 0x23F6 JUMP JUMPDEST PUSH4 0x4E487B71 PUSH1 0xE0 SHL DUP9 MSTORE PUSH1 0x41 PUSH1 0x4 MSTORE DUP6 DUP9 REVERT JUMPDEST PUSH1 0x40 MLOAD PUSH3 0x461BCD PUSH1 0xE5 SHL DUP2 MSTORE PUSH1 0x4 DUP2 ADD DUP6 SWAP1 MSTORE PUSH1 0x26 DUP2 DUP8 ADD MSTORE PUSH32 0x4D61726B65744D616E616765723A20546F6B656E20616C726561647920737570 PUSH1 0x44 DUP3 ADD MSTORE PUSH6 0x1C1BDC9D1959 PUSH1 0xD2 SHL PUSH1 0x64 DUP3 ADD MSTORE PUSH1 0x84 SWAP1 REVERT JUMPDEST PUSH1 0x40 MLOAD PUSH3 0x461BCD PUSH1 0xE5 SHL DUP2 MSTORE PUSH1 0x20 PUSH1 0x4 DUP3 ADD MSTORE PUSH1 0x23 DUP2 DUP7 ADD MSTORE PUSH32 0x4D61726B65744D616E616765723A20496E76616C696420746F6B656E2073796D PUSH1 0x44 DUP3 ADD MSTORE PUSH3 0x189BDB PUSH1 0xEA SHL PUSH1 0x64 DUP3 ADD MSTORE PUSH1 0x84 SWAP1 REVERT JUMPDEST PUSH1 0x40 MLOAD PUSH3 0x461BCD PUSH1 0xE5 SHL DUP2 MSTORE PUSH1 0x20 PUSH1 0x4 DUP3 ADD MSTORE DUP1 DUP6 ADD DUP6 SWAP1 MSTORE PUSH32 0x4D61726B65744D616E616765723A20496E76616C696420746F6B656E20616464 PUSH1 0x44 DUP3 ADD MSTORE PUSH4 0x72657373 PUSH1 0xE0 SHL PUSH1 0x64 DUP3 ADD MSTORE PUSH1 0x84 SWAP1 REVERT JUMPDEST POP CALLVALUE PUSH2 0x35C JUMPI DUP1 PUSH1 0x3 NOT CALLDATASIZE ADD SLT PUSH2 0x35C JUMPI PUSH2 0x2533 PUSH2 0x4C33 JUMP JUMPDEST PUSH1 0x0 DUP1 SLOAD PUSH1 0x1 PUSH1 0x1 PUSH1 0xA0 SHL SUB NOT DUP2 AND DUP3 SSTORE PUSH1 0x1 PUSH1 0x1 PUSH1 0xA0 SHL SUB AND PUSH1 0x0 DUP1 MLOAD PUSH1 0x20 PUSH2 0x5E87 DUP4 CODECOPY DUP2 MLOAD SWAP2 MSTORE DUP3 DUP1 LOG3 DUP1 RETURN JUMPDEST POP CALLVALUE PUSH2 0x35C JUMPI PUSH1 0x20 DUP1 PUSH1 0x3 NOT CALLDATASIZE ADD SLT PUSH2 0x5EB JUMPI PUSH1 0x4 CALLDATALOAD DUP3 MSTORE PUSH1 0x5 DUP2 MSTORE PUSH1 0x40 DUP3 KECCAK256 SWAP2 PUSH1 0x40 MLOAD DUP1 SWAP4 DUP5 SWAP2 DUP5 DUP3 SLOAD SWAP2 DUP3 DUP2 MSTORE ADD SWAP2 DUP5 MSTORE DUP5 DUP5 KECCAK256 SWAP4 JUMPDEST DUP6 DUP3 DUP3 LT PUSH2 0x25B1 JUMPI POP POP POP PUSH2 0x1EE0 SWAP3 POP SUB DUP4 PUSH2 0x4AA9 JUMP JUMPDEST DUP6 SLOAD PUSH1 0x1 PUSH1 0x1 PUSH1 0xA0 SHL SUB AND DUP5 MSTORE PUSH1 0x1 SWAP6 DUP7 ADD SWAP6 DUP9 SWAP6 POP SWAP4 ADD SWAP3 ADD PUSH2 0x259A JUMP JUMPDEST POP CALLVALUE PUSH2 0x35C JUMPI DUP1 PUSH1 0x3 NOT CALLDATASIZE ADD SLT PUSH2 0x35C JUMPI PUSH1 0x40 MLOAD PUSH1 0x18 DUP1 SLOAD DUP1 DUP4 MSTORE SWAP1 DUP4 MSTORE PUSH1 0x20 DUP1 DUP4 ADD SWAP4 PUSH1 0x0 DUP1 MLOAD PUSH1 0x20 PUSH2 0x5E67 DUP4 CODECOPY DUP2 MLOAD SWAP2 MSTORE SWAP3 SWAP2 JUMPDEST DUP3 DUP3 LT PUSH2 0x261D JUMPI PUSH2 0x3AE DUP6 PUSH2 0x1D11 DUP2 DUP10 SUB DUP3 PUSH2 0x4AA9 JUMP JUMPDEST DUP4 SLOAD DUP7 MSTORE SWAP5 DUP6 ADD SWAP5 PUSH1 0x1 SWAP4 DUP5 ADD SWAP4 SWAP1 SWAP2 ADD SWAP1 PUSH2 0x2606 JUMP JUMPDEST POP CALLVALUE PUSH2 0x35C JUMPI PUSH1 0x20 CALLDATASIZE PUSH1 0x3 NOT ADD SLT PUSH2 0x35C JUMPI PUSH1 0x20 SWAP1 PUSH1 0xFF SWAP1 PUSH1 0x40 SWAP1 PUSH1 0x1 PUSH1 0x1 PUSH1 0xA0 SHL SUB PUSH2 0x265F PUSH2 0x47F9 JUMP JUMPDEST AND DUP2 MSTORE PUSH1 0x7 DUP5 MSTORE KECCAK256 SLOAD AND PUSH1 0x40 MLOAD SWAP1 ISZERO ISZERO DUP2 MSTORE RETURN JUMPDEST POP CALLVALUE PUSH2 0x35C JUMPI PUSH1 0x20 SWAP1 DUP2 PUSH1 0x3 NOT CALLDATASIZE ADD SLT PUSH2 0x35C JUMPI PUSH1 0x4 CALLDATALOAD SWAP2 DUP3 DUP3 MSTORE PUSH1 0x1 DUP2 MSTORE PUSH1 0x40 DUP3 KECCAK256 SWAP3 PUSH1 0xFF PUSH1 0xC DUP6 ADD SLOAD AND PUSH1 0x5 DUP2 LT ISZERO PUSH2 0x10F3 JUMPI PUSH1 0x2 PUSH2 0x26B4 SWAP2 EQ PUSH2 0x5565 JUMP JUMPDEST PUSH1 0xD DUP5 ADD SLOAD SWAP2 PUSH2 0x26C5 DUP4 ISZERO ISZERO PUSH2 0x55BC JUMP JUMPDEST DUP2 DUP5 MSTORE PUSH1 0x2 DUP2 MSTORE PUSH1 0x40 DUP5 KECCAK256 CALLER PUSH1 0x0 MSTORE DUP2 MSTORE PUSH2 0x26E7 PUSH1 0xFF PUSH1 0x40 PUSH1 0x0 KECCAK256 SLOAD AND PUSH2 0x5607 JUMP JUMPDEST PUSH1 0xB SLOAD PUSH1 0x40 MLOAD PUSH4 0x7C7A72D PUSH1 0xE0 SHL DUP2 MSTORE PUSH1 0x1 PUSH1 0x1 PUSH1 0xA0 SHL SUB SWAP2 DUP3 AND SWAP5 SWAP2 SWAP1 DUP4 DUP2 DUP1 PUSH2 0x2716 CALLER DUP10 PUSH1 0x4 DUP5 ADD PUSH2 0x4E56 JUMP JUMPDEST SUB DUP2 DUP10 GAS STATICCALL DUP1 ISZERO PUSH2 0x102E JUMPI DUP8 SWAP1 PUSH2 0x2A16 JUMPI JUMPDEST PUSH2 0x2733 SWAP2 POP ISZERO PUSH2 0x5653 JUMP JUMPDEST PUSH1 0x4 DUP8 ADD SLOAD AND SWAP1 PUSH1 0x40 MLOAD SWAP1 PUSH4 0x423E7BC1 PUSH1 0xE1 SHL DUP3 MSTORE DUP4 DUP3 DUP1 PUSH2 0x275A DUP7 CALLER DUP11 PUSH1 0x4 DUP6 ADD PUSH2 0x51CC JUMP JUMPDEST SUB DUP2 DUP10 GAS STATICCALL SWAP2 DUP3 ISZERO PUSH2 0x102E JUMPI DUP8 SWAP3 PUSH2 0x29E7 JUMPI JUMPDEST POP PUSH1 0x40 MLOAD SWAP1 PUSH4 0xDC4CE349 PUSH1 0xE0 SHL SWAP9 DUP10 DUP4 MSTORE DUP6 DUP4 DUP1 PUSH2 0x2790 DUP9 DUP7 DUP13 PUSH1 0x4 DUP6 ADD PUSH2 0x569F JUMP JUMPDEST SUB DUP2 DUP12 GAS STATICCALL SWAP3 DUP4 ISZERO PUSH2 0x1C69 JUMPI DUP10 SWAP4 PUSH2 0x29B8 JUMPI JUMPDEST POP DUP9 SWAP10 PUSH1 0x3 PUSH1 0x1 SWAP3 ADD SLOAD SWAP2 JUMPDEST DUP3 DUP2 GT ISZERO PUSH2 0x2921 JUMPI POP POP PUSH1 0x40 MLOAD PUSH4 0x4F44289D PUSH1 0xE0 SHL DUP2 MSTORE DUP10 SWAP6 SWAP5 SWAP4 SWAP3 SWAP2 POP DUP11 DUP8 DUP3 DUP1 PUSH2 0x27DF DUP10 DUP14 PUSH1 0x4 DUP5 ADD PUSH2 0x4E56 JUMP JUMPDEST SUB DUP2 DUP14 GAS STATICCALL SWAP2 DUP3 ISZERO PUSH2 0x102E JUMPI DUP8 SWAP3 PUSH2 0x28ED JUMPI JUMPDEST POP SWAP1 PUSH2 0x27FD SWAP2 PUSH2 0x4D23 JUMP JUMPDEST SWAP1 DUP3 PUSH2 0x288A JUMPI POP POP POP POP DUP2 SWAP5 JUMPDEST DUP1 EXTCODESIZE ISZERO PUSH2 0x1BE0 JUMPI DUP6 DUP4 SWAP2 PUSH2 0x2837 SWAP4 DUP4 PUSH1 0x40 MLOAD DUP1 SWAP7 DUP2 SWAP6 DUP3 SWAP5 PUSH4 0x2F0041ED PUSH1 0xE1 SHL DUP5 MSTORE CALLER DUP14 PUSH1 0x4 DUP7 ADD PUSH2 0x514A JUMP JUMPDEST SUB SWAP3 GAS CALL DUP1 ISZERO PUSH2 0x5E0 JUMPI PUSH2 0x2876 JUMPI JUMPDEST POP POP PUSH32 0x5380CF6FE903B40C6D5A9E0DFBCA2F3A423F0A21520B4D5947ED5169BDBA946D SWAP1 PUSH1 0x40 MLOAD SWAP4 DUP5 MSTORE CALLER SWAP4 LOG3 DUP1 RETURN JUMPDEST PUSH2 0x287F SWAP1 PUSH2 0x4A5F JUMP JUMPDEST PUSH2 0x5DC JUMPI DUP4 DUP6 PUSH2 0x2846 JUMP JUMPDEST DUP8 DUP7 SWAP3 SWAP4 SWAP5 SWAP6 SWAP7 MSTORE PUSH1 0x4 DUP8 MSTORE PUSH1 0x40 DUP3 KECCAK256 CALLER PUSH1 0x0 MSTORE DUP8 MSTORE PUSH1 0x40 PUSH1 0x0 KECCAK256 SLOAD EQ PUSH1 0x0 EQ PUSH2 0x28E1 JUMPI POP PUSH2 0x2328 SWAP1 DUP2 DUP2 MUL SWAP2 DUP2 DUP4 DIV EQ SWAP1 ISZERO OR ISZERO PUSH2 0xDD0 JUMPI SWAP2 PUSH2 0xFD2 PUSH2 0x28DB SWAP3 PUSH2 0xFCD PUSH2 0x2710 DUP12 SWAP8 SWAP7 DIV DUP5 PUSH2 0x4CFA JUMP JUMPDEST SWAP5 PUSH2 0x280A JUMP JUMPDEST SWAP4 SWAP3 POP POP POP DUP2 SWAP5 PUSH2 0x280A JUMP JUMPDEST DUP9 DUP1 SWAP3 SWAP9 POP DUP2 SWAP4 POP RETURNDATASIZE DUP4 GT PUSH2 0x291A JUMPI JUMPDEST PUSH2 0x2907 DUP2 DUP4 PUSH2 0x4AA9 JUMP JUMPDEST DUP2 ADD SUB SLT PUSH2 0x1022 JUMPI MLOAD DUP10 SWAP6 PUSH2 0x27FD PUSH2 0x27F2 JUMP JUMPDEST POP RETURNDATASIZE PUSH2 0x28FD JUMP JUMPDEST DUP4 DUP2 SUB PUSH2 0x2937 JUMPI JUMPDEST PUSH2 0x2932 SWAP1 PUSH2 0x4D30 JUMP JUMPDEST PUSH2 0x27AF JUMP JUMPDEST SWAP11 PUSH2 0x2956 DUP9 DUP9 DUP13 DUP16 DUP14 PUSH1 0x40 MLOAD SWAP6 DUP7 SWAP5 DUP6 SWAP4 DUP5 SWAP4 DUP12 DUP6 MSTORE PUSH1 0x4 DUP6 ADD PUSH2 0x569F JUMP JUMPDEST SUB SWAP2 GAS STATICCALL SWAP1 DUP2 ISZERO PUSH2 0x29AD JUMPI DUP13 SWAP2 PUSH2 0x297E JUMPI JUMPDEST POP PUSH2 0x2976 SWAP1 PUSH2 0x2932 SWAP3 PUSH2 0x4D23 JUMP JUMPDEST SWAP12 SWAP1 POP PUSH2 0x2929 JUMP JUMPDEST SWAP1 POP DUP9 DUP2 DUP2 RETURNDATASIZE DUP4 GT PUSH2 0x29A6 JUMPI JUMPDEST PUSH2 0x2995 DUP2 DUP4 PUSH2 0x4AA9 JUMP JUMPDEST DUP2 ADD SUB SLT PUSH2 0x1022 JUMPI MLOAD PUSH2 0x2932 PUSH2 0x2968 JUMP JUMPDEST POP RETURNDATASIZE PUSH2 0x298B JUMP JUMPDEST PUSH1 0x40 MLOAD RETURNDATASIZE DUP15 DUP3 RETURNDATACOPY RETURNDATASIZE SWAP1 REVERT JUMPDEST SWAP1 SWAP3 POP DUP6 DUP2 DUP2 RETURNDATASIZE DUP4 GT PUSH2 0x29E0 JUMPI JUMPDEST PUSH2 0x29D0 DUP2 DUP4 PUSH2 0x4AA9 JUMP JUMPDEST DUP2 ADD SUB SLT PUSH2 0x1022 JUMPI MLOAD SWAP2 CODESIZE PUSH2 0x27A3 JUMP JUMPDEST POP RETURNDATASIZE PUSH2 0x29C6 JUMP JUMPDEST SWAP1 SWAP2 POP DUP4 DUP2 DUP2 RETURNDATASIZE DUP4 GT PUSH2 0x2A0F JUMPI JUMPDEST PUSH2 0x29FF DUP2 DUP4 PUSH2 0x4AA9 JUMP JUMPDEST DUP2 ADD SUB SLT PUSH2 0x1022 JUMPI MLOAD SWAP1 CODESIZE PUSH2 0x276D JUMP JUMPDEST POP RETURNDATASIZE PUSH2 0x29F5 JUMP JUMPDEST POP DUP4 DUP2 DUP2 RETURNDATASIZE DUP4 GT PUSH2 0x2A49 JUMPI JUMPDEST PUSH2 0x2A2C DUP2 DUP4 PUSH2 0x4AA9 JUMP JUMPDEST DUP2 ADD SUB SLT PUSH2 0x2A45 JUMPI PUSH2 0x2A40 PUSH2 0x2733 SWAP2 PUSH2 0x52CA JUMP JUMPDEST PUSH2 0x2728 JUMP JUMPDEST DUP7 DUP1 REVERT JUMPDEST POP RETURNDATASIZE PUSH2 0x2A22 JUMP JUMPDEST POP CALLVALUE PUSH2 0x35C JUMPI DUP1 PUSH1 0x3 NOT CALLDATASIZE ADD SLT PUSH2 0x35C JUMPI PUSH1 0x40 MLOAD PUSH1 0x16 DUP1 SLOAD DUP1 DUP4 MSTORE SWAP1 DUP4 MSTORE PUSH1 0x20 DUP1 DUP4 ADD SWAP4 PUSH32 0xD833147D7DC355BA459FC788F669E58CFAF9DC25DDCD0702E87D69C7B5124289 SWAP3 SWAP2 JUMPDEST DUP3 DUP3 LT PUSH2 0x2AAF JUMPI PUSH2 0x3AE DUP6 PUSH2 0x1D11 DUP2 DUP10 SUB DUP3 PUSH2 0x4AA9 JUMP JUMPDEST DUP4 SLOAD DUP7 MSTORE SWAP5 DUP6 ADD SWAP5 PUSH1 0x1 SWAP4 DUP5 ADD SWAP4 SWAP1 SWAP2 ADD SWAP1 PUSH2 0x2A98 JUMP JUMPDEST POP PUSH2 0x120 CALLDATASIZE PUSH1 0x3 NOT ADD SLT PUSH2 0x35C JUMPI PUSH1 0x4 CALLDATALOAD PUSH1 0x1 PUSH1 0x1 PUSH1 0x40 SHL SUB DUP2 GT PUSH2 0x5EB JUMPI PUSH2 0x2AF3 SWAP1 CALLDATASIZE SWAP1 PUSH1 0x4 ADD PUSH2 0x4AE7 JUMP JUMPDEST SWAP1 PUSH2 0x2AFC PUSH2 0x4B44 JUMP JUMPDEST PUSH1 0x64 CALLDATALOAD PUSH1 0x1 PUSH1 0x1 PUSH1 0xA0 SHL SUB DUP2 AND SWAP1 SUB PUSH2 0x1022 JUMPI CALLER DUP3 MSTORE PUSH1 0xA PUSH1 0x20 MSTORE PUSH2 0x2B28 PUSH1 0xFF PUSH1 0x40 DUP5 KECCAK256 SLOAD AND ISZERO PUSH2 0x4C5F JUMP JUMPDEST DUP3 MLOAD ISZERO PUSH2 0x35F2 JUMPI PUSH1 0x2 PUSH1 0x44 CALLDATALOAD LT ISZERO DUP1 PUSH2 0x35E5 JUMPI JUMPDEST ISZERO PUSH2 0x3595 JUMPI PUSH1 0x84 CALLDATALOAD ISZERO PUSH2 0x3551 JUMPI PUSH1 0xA4 CALLDATALOAD ISZERO PUSH2 0x34FD JUMPI PUSH1 0xC4 CALLDATALOAD ISZERO ISZERO DUP1 PUSH2 0x34EF JUMPI JUMPDEST ISZERO PUSH2 0x349B JUMPI PUSH1 0x10 SLOAD PUSH1 0xE4 CALLDATALOAD LT PUSH2 0x3454 JUMPI PUSH1 0xE4 CALLDATALOAD PUSH2 0x104 CALLDATALOAD LT PUSH2 0x33F2 JUMPI DUP1 ISZERO PUSH2 0x33B8 JUMPI PUSH1 0x64 CALLDATALOAD PUSH1 0x1 PUSH1 0x1 PUSH1 0xA0 SHL SUB AND ISZERO PUSH2 0x3355 JUMPI PUSH1 0x64 CALLDATALOAD PUSH1 0x1 PUSH1 0x1 PUSH1 0xA0 SHL SUB AND DUP3 MSTORE PUSH1 0x7 PUSH1 0x20 MSTORE PUSH1 0x40 DUP3 KECCAK256 SLOAD PUSH1 0xFF AND ISZERO PUSH2 0x3306 JUMPI JUMPDEST PUSH1 0xF SLOAD CALLVALUE LT PUSH2 0x32B0 JUMPI PUSH1 0x3C PUSH1 0xE4 CALLDATALOAD MUL PUSH1 0xE4 CALLDATALOAD DUP2 DIV PUSH1 0x3C EQ PUSH1 0xE4 CALLDATALOAD ISZERO OR ISZERO PUSH2 0x1869 JUMPI PUSH2 0x2BDB SWAP1 TIMESTAMP PUSH2 0x4D23 JUMP JUMPDEST SWAP2 PUSH1 0x3C PUSH2 0x104 CALLDATALOAD MUL PUSH2 0x104 CALLDATALOAD DUP2 DIV PUSH1 0x3C EQ PUSH2 0x104 CALLDATALOAD ISZERO OR ISZERO PUSH2 0x329C JUMPI PUSH2 0x2C01 SWAP1 TIMESTAMP PUSH2 0x4D23 JUMP JUMPDEST SWAP3 PUSH3 0x2A300 DUP5 ADD DUP5 GT PUSH2 0x329C JUMPI PUSH3 0x2A300 PUSH1 0xE SLOAD SWAP5 PUSH2 0x2C1F DUP7 PUSH2 0x4D30 JUMP JUMPDEST PUSH1 0xE SSTORE PUSH1 0x40 MLOAD SWAP3 PUSH2 0x2C2F DUP5 PUSH2 0x4A72 JUMP JUMPDEST CALLER DUP5 MSTORE DUP8 PUSH1 0x20 DUP6 ADD MSTORE DUP6 ISZERO ISZERO PUSH1 0x40 DUP6 ADD MSTORE PUSH1 0x44 CALLDATALOAD PUSH1 0x60 DUP6 ADD MSTORE PUSH1 0x1 DUP1 PUSH1 0xA0 SHL SUB PUSH1 0x64 CALLDATALOAD AND PUSH1 0x80 DUP6 ADD MSTORE PUSH1 0x84 CALLDATALOAD PUSH1 0xA0 DUP6 ADD MSTORE PUSH1 0xA4 CALLDATALOAD PUSH1 0xC0 DUP6 ADD MSTORE PUSH1 0xC4 CALLDATALOAD PUSH1 0xE0 DUP6 ADD MSTORE TIMESTAMP PUSH2 0x100 DUP6 ADD MSTORE PUSH2 0x120 DUP5 ADD MSTORE DUP1 PUSH2 0x140 DUP5 ADD MSTORE ADD PUSH2 0x160 DUP3 ADD MSTORE DUP2 PUSH2 0x180 DUP3 ADD MSTORE DUP2 PUSH2 0x1A0 DUP3 ADD MSTORE DUP2 PUSH2 0x1C0 DUP3 ADD MSTORE DUP4 DUP3 MSTORE PUSH1 0x1 PUSH1 0x20 MSTORE PUSH1 0x40 DUP3 KECCAK256 SWAP1 PUSH1 0x1 DUP1 PUSH1 0xA0 SHL SUB DUP2 MLOAD AND PUSH1 0x1 DUP1 PUSH1 0xA0 SHL SUB NOT DUP4 SLOAD AND OR DUP3 SSTORE PUSH1 0x20 DUP2 ADD MLOAD DUP1 MLOAD SWAP1 PUSH1 0x1 DUP1 PUSH1 0x40 SHL SUB DUP3 GT PUSH2 0x3288 JUMPI DUP2 SWAP1 PUSH2 0x2CE9 PUSH1 0x1 DUP7 ADD SLOAD PUSH2 0x4B53 JUMP JUMPDEST PUSH1 0x1F DUP2 GT PUSH2 0x3255 JUMPI JUMPDEST POP PUSH1 0x20 SWAP1 PUSH1 0x1F DUP4 GT PUSH1 0x1 EQ PUSH2 0x31E6 JUMPI DUP7 SWAP3 PUSH2 0x31DB JUMPI JUMPDEST POP POP DUP2 PUSH1 0x1 SHL SWAP2 PUSH1 0x0 NOT SWAP1 PUSH1 0x3 SHL SHR NOT AND OR PUSH1 0x1 DUP4 ADD SSTORE JUMPDEST PUSH2 0x2D33 PUSH1 0x40 DUP3 ADD MLOAD ISZERO ISZERO PUSH1 0x2 DUP5 ADD PUSH2 0x4D62 JUMP JUMPDEST PUSH1 0x60 DUP2 ADD MLOAD PUSH1 0x3 DUP4 ADD SSTORE PUSH1 0x4 DUP3 ADD PUSH1 0x1 DUP1 PUSH1 0xA0 SHL SUB PUSH1 0x80 DUP4 ADD MLOAD AND PUSH1 0x1 DUP1 PUSH1 0xA0 SHL SUB NOT DUP3 SLOAD AND OR SWAP1 SSTORE PUSH1 0xA0 DUP2 ADD MLOAD PUSH1 0x5 DUP4 ADD SSTORE PUSH1 0xC0 DUP2 ADD MLOAD PUSH1 0x6 DUP4 ADD SSTORE PUSH1 0xE0 DUP2 ADD MLOAD PUSH1 0x7 DUP4 ADD SSTORE PUSH2 0x100 DUP2 ADD MLOAD PUSH1 0x8 DUP4 ADD SSTORE PUSH2 0x120 DUP2 ADD MLOAD PUSH1 0x9 DUP4 ADD SSTORE PUSH2 0x140 DUP2 ADD MLOAD PUSH1 0xA DUP4 ADD SSTORE PUSH2 0x160 DUP2 ADD MLOAD PUSH1 0xB DUP4 ADD SSTORE PUSH1 0xC DUP3 ADD PUSH2 0x180 DUP3 ADD MLOAD PUSH1 0x5 DUP2 LT ISZERO PUSH2 0x1C74 JUMPI PUSH2 0x2DE7 SWAP4 SWAP3 PUSH1 0xE SWAP3 PUSH2 0x1C0 SWAP3 PUSH1 0xFF DUP1 NOT DUP4 SLOAD AND SWAP2 AND OR SWAP1 SSTORE PUSH2 0x1A0 DUP2 ADD MLOAD PUSH1 0xD DUP6 ADD SSTORE ADD MLOAD ISZERO ISZERO SWAP2 ADD PUSH2 0x4D62 JUMP JUMPDEST PUSH1 0x13 SLOAD PUSH1 0x1 PUSH1 0x40 SHL DUP2 LT ISZERO PUSH2 0x31C5 JUMPI DUP4 PUSH2 0x2E0A DUP3 PUSH1 0x1 PUSH2 0x2E23 SWAP5 ADD PUSH1 0x13 SSTORE PUSH2 0x4875 JUMP JUMPDEST SWAP1 SWAP2 SWAP1 DUP3 SLOAD SWAP1 PUSH1 0x3 SHL SWAP2 DUP3 SHL SWAP2 PUSH1 0x0 NOT SWAP1 SHL NOT AND OR SWAP1 SSTORE JUMP JUMPDEST DUP3 DUP2 MSTORE PUSH1 0x14 PUSH1 0x20 MSTORE PUSH1 0x40 DUP2 KECCAK256 DUP1 SLOAD PUSH1 0xFF NOT AND PUSH1 0x1 OR SWAP1 SSTORE PUSH1 0x64 CALLDATALOAD PUSH1 0x1 PUSH1 0x1 PUSH1 0xA0 SHL SUB AND PUSH2 0x312B JUMPI PUSH1 0xF SLOAD PUSH2 0x2E59 PUSH1 0xA4 CALLDATALOAD DUP3 PUSH2 0x4D23 JUMP JUMPDEST CALLVALUE LT PUSH2 0x30F9 JUMPI DUP2 DUP1 DUP1 DUP1 PUSH2 0x2E81 SWAP5 PUSH1 0x1 DUP1 PUSH1 0xA0 SHL SUB DUP3 SLOAD AND GAS CALL PUSH2 0x2E7B PUSH2 0x4D96 JUMP JUMPDEST POP PUSH2 0x4DC6 JUMP JUMPDEST DUP1 DUP1 DUP1 DUP1 PUSH1 0xA4 CALLDATALOAD PUSH1 0x1 DUP1 PUSH1 0xA0 SHL SUB PUSH1 0xB SLOAD AND GAS CALL PUSH2 0x2E9D PUSH2 0x4D96 JUMP JUMPDEST POP ISZERO PUSH2 0x3091 JUMPI JUMPDEST DUP3 DUP2 MSTORE PUSH1 0x2 PUSH1 0x20 MSTORE PUSH1 0x40 DUP2 KECCAK256 CALLER PUSH1 0x0 MSTORE PUSH1 0x20 MSTORE PUSH1 0x40 PUSH1 0x0 KECCAK256 PUSH1 0x1 PUSH1 0xFF NOT DUP3 SLOAD AND OR SWAP1 SSTORE DUP3 DUP2 MSTORE PUSH1 0x4 PUSH1 0x20 MSTORE PUSH1 0x40 DUP2 KECCAK256 CALLER PUSH1 0x0 MSTORE PUSH1 0x20 MSTORE PUSH1 0xC4 CALLDATALOAD PUSH1 0x40 PUSH1 0x0 KECCAK256 SSTORE CALLER DUP2 MSTORE PUSH1 0x15 PUSH1 0x20 MSTORE PUSH2 0x2EF8 DUP4 PUSH1 0x40 DUP4 KECCAK256 PUSH2 0x4D73 JUMP JUMPDEST PUSH1 0xB SLOAD PUSH1 0x1 PUSH1 0x1 PUSH1 0xA0 SHL SUB AND DUP1 EXTCODESIZE ISZERO PUSH2 0x5EB JUMPI PUSH1 0x40 MLOAD PUSH4 0x95F41095 PUSH1 0xE0 SHL DUP2 MSTORE SWAP1 DUP3 SWAP1 DUP3 SWAP1 DUP2 DUP4 DUP2 PUSH2 0x2F37 PUSH1 0xC4 CALLDATALOAD PUSH1 0xA4 CALLDATALOAD PUSH1 0x64 CALLDATALOAD CALLER DUP15 PUSH1 0x4 DUP8 ADD PUSH2 0x4E26 JUMP JUMPDEST SUB SWAP3 GAS CALL DUP1 ISZERO PUSH2 0x5E0 JUMPI SWAP1 DUP3 SWAP2 PUSH2 0x307D JUMPI JUMPDEST POP POP PUSH1 0xD SLOAD PUSH1 0x1 PUSH1 0x1 PUSH1 0xA0 SHL SUB AND DUP1 PUSH2 0x2FD0 JUMPI JUMPDEST POP POP DUP2 PUSH32 0xE47F69E204F188E4F9DF6ADC50C9CF0BD76C1CD85F34A8A3E8284064AFB4FB82 PUSH1 0x20 SWAP5 PUSH2 0x2F99 PUSH1 0x40 MLOAD SWAP2 PUSH1 0xA0 DUP4 MSTORE PUSH1 0xA0 DUP4 ADD SWAP1 PUSH2 0x48FE JUMP JUMPDEST SWAP4 ISZERO ISZERO DUP2 DUP8 ADD MSTORE PUSH1 0x44 CALLDATALOAD PUSH1 0x40 DUP3 ADD MSTORE PUSH1 0x64 CALLDATALOAD PUSH1 0x1 PUSH1 0x1 PUSH1 0xA0 SHL SUB AND PUSH1 0x60 DUP3 ADD MSTORE PUSH1 0x84 CALLDATALOAD PUSH1 0x80 DUP3 ADD MSTORE CALLER SWAP4 DUP2 SWAP1 SUB SWAP1 LOG3 PUSH1 0x40 MLOAD SWAP1 DUP2 MSTORE RETURN JUMPDEST DUP1 EXTCODESIZE ISZERO PUSH2 0x5EB JUMPI DUP2 PUSH1 0x40 MLOAD DUP1 SWAP3 PUSH4 0x782A7805 PUSH1 0xE1 SHL DUP3 MSTORE DUP2 DUP4 DUP2 PUSH2 0x2FF8 CALLER DUP12 PUSH1 0x4 DUP5 ADD PUSH2 0x4E56 JUMP JUMPDEST SUB SWAP3 GAS CALL DUP1 ISZERO PUSH2 0x5E0 JUMPI SWAP1 DUP3 SWAP2 PUSH2 0x3069 JUMPI JUMPDEST POP POP PUSH1 0xD SLOAD PUSH1 0x1 PUSH1 0x1 PUSH1 0xA0 SHL SUB AND DUP1 EXTCODESIZE ISZERO PUSH2 0x5EB JUMPI DUP2 PUSH1 0x40 MLOAD DUP1 SWAP3 PUSH4 0xC228038D PUSH1 0xE0 SHL DUP3 MSTORE DUP2 DUP4 DUP2 PUSH2 0x3046 PUSH1 0xA4 CALLDATALOAD PUSH1 0xC4 CALLDATALOAD CALLER DUP14 PUSH1 0x4 DUP7 ADD PUSH2 0x4E6F JUMP JUMPDEST SUB SWAP3 GAS CALL DUP1 ISZERO PUSH2 0x5E0 JUMPI ISZERO PUSH2 0x2F5D JUMPI PUSH2 0x305F DUP3 SWAP2 PUSH2 0x4A5F JUMP JUMPDEST PUSH2 0x35C JUMPI DUP1 PUSH2 0x2F5D JUMP JUMPDEST PUSH2 0x3072 SWAP1 PUSH2 0x4A5F JUMP JUMPDEST PUSH2 0x35C JUMPI DUP1 CODESIZE PUSH2 0x300A JUMP JUMPDEST PUSH2 0x3086 SWAP1 PUSH2 0x4A5F JUMP JUMPDEST PUSH2 0x35C JUMPI DUP1 CODESIZE PUSH2 0x2F49 JUMP JUMPDEST PUSH1 0x40 MLOAD PUSH3 0x461BCD PUSH1 0xE5 SHL DUP2 MSTORE PUSH1 0x20 PUSH1 0x4 DUP3 ADD MSTORE PUSH1 0x3A PUSH1 0x24 DUP3 ADD MSTORE PUSH32 0x4D61726B65744D616E616765723A2043726561746F72206465706F7369742074 PUSH1 0x44 DUP3 ADD MSTORE PUSH26 0x1C985B9CD9995C881D1BC8151C99585CDD5C9E4819985A5B1959 PUSH1 0x32 SHL PUSH1 0x64 DUP3 ADD MSTORE PUSH1 0x84 SWAP1 REVERT JUMPDEST PUSH1 0x64 PUSH1 0x40 MLOAD PUSH3 0x461BCD PUSH1 0xE5 SHL DUP2 MSTORE PUSH1 0x20 PUSH1 0x4 DUP3 ADD MSTORE PUSH1 0x20 PUSH1 0x24 DUP3 ADD MSTORE PUSH1 0x0 DUP1 MLOAD PUSH1 0x20 PUSH2 0x5EC7 DUP4 CODECOPY DUP2 MLOAD SWAP2 MSTORE PUSH1 0x44 DUP3 ADD MSTORE REVERT JUMPDEST PUSH1 0xF SLOAD DUP1 CALLVALUE LT PUSH2 0x3178 JUMPI DUP2 DUP1 DUP1 DUP1 PUSH2 0x3151 SWAP5 PUSH1 0x1 DUP1 PUSH1 0xA0 SHL SUB DUP3 SLOAD AND GAS CALL PUSH2 0x2E7B PUSH2 0x4D96 JUMP JUMPDEST PUSH1 0xB SLOAD PUSH2 0x3173 SWAP1 PUSH1 0xA4 CALLDATALOAD SWAP1 PUSH1 0x1 PUSH1 0x1 PUSH1 0xA0 SHL SUB SWAP1 DUP2 AND SWAP1 CALLER SWAP1 PUSH1 0x64 CALLDATALOAD AND PUSH2 0x4EB5 JUMP JUMPDEST PUSH2 0x2EA4 JUMP JUMPDEST PUSH1 0x40 MLOAD PUSH3 0x461BCD PUSH1 0xE5 SHL DUP2 MSTORE PUSH1 0x20 PUSH1 0x4 DUP3 ADD MSTORE PUSH1 0x31 PUSH1 0x24 DUP3 ADD MSTORE PUSH1 0x0 DUP1 MLOAD PUSH1 0x20 PUSH2 0x5EC7 DUP4 CODECOPY DUP2 MLOAD SWAP2 MSTORE PUSH1 0x44 DUP3 ADD MSTORE PUSH17 0x20666F72206372656174696F6E20666565 PUSH1 0x78 SHL PUSH1 0x64 DUP3 ADD MSTORE PUSH1 0x84 SWAP1 REVERT JUMPDEST PUSH4 0x4E487B71 PUSH1 0xE0 SHL PUSH1 0x0 MSTORE PUSH1 0x41 PUSH1 0x4 MSTORE PUSH1 0x24 PUSH1 0x0 REVERT JUMPDEST ADD MLOAD SWAP1 POP CODESIZE DUP1 PUSH2 0x2D08 JUMP JUMPDEST SWAP3 POP PUSH1 0x1 DUP6 ADD DUP7 MSTORE PUSH1 0x20 DUP7 KECCAK256 SWAP1 DUP7 SWAP4 JUMPDEST PUSH1 0x1F NOT DUP5 AND DUP6 LT PUSH2 0x323A JUMPI PUSH1 0x1 SWAP5 POP DUP4 PUSH1 0x1F NOT DUP2 AND LT PUSH2 0x3221 JUMPI JUMPDEST POP POP POP DUP2 SHL ADD PUSH1 0x1 DUP4 ADD SSTORE PUSH2 0x2D20 JUMP JUMPDEST ADD MLOAD PUSH1 0x0 NOT PUSH1 0xF8 DUP5 PUSH1 0x3 SHL AND SHR NOT AND SWAP1 SSTORE CODESIZE DUP1 DUP1 PUSH2 0x3211 JUMP JUMPDEST DUP2 DUP2 ADD MLOAD DUP4 SSTORE PUSH1 0x20 SWAP5 DUP6 ADD SWAP5 PUSH1 0x1 SWAP1 SWAP4 ADD SWAP3 SWAP1 SWAP2 ADD SWAP1 PUSH2 0x31F6 JUMP JUMPDEST PUSH2 0x3282 SWAP1 PUSH1 0x1 DUP8 ADD DUP9 MSTORE PUSH1 0x20 DUP9 KECCAK256 PUSH1 0x1F DUP6 ADD PUSH1 0x5 SHR DUP2 ADD SWAP2 PUSH1 0x20 DUP7 LT PUSH2 0x2409 JUMPI PUSH1 0x1F ADD PUSH1 0x5 SHR ADD SWAP1 PUSH2 0x4D4B JUMP JUMPDEST CODESIZE PUSH2 0x2CF2 JUMP JUMPDEST PUSH4 0x4E487B71 PUSH1 0xE0 SHL DUP6 MSTORE PUSH1 0x41 PUSH1 0x4 MSTORE PUSH1 0x24 DUP6 REVERT JUMPDEST PUSH4 0x4E487B71 PUSH1 0xE0 SHL DUP3 MSTORE PUSH1 0x11 PUSH1 0x4 MSTORE PUSH1 0x24 DUP3 REVERT JUMPDEST PUSH1 0x40 MLOAD PUSH3 0x461BCD PUSH1 0xE5 SHL DUP2 MSTORE PUSH1 0x20 PUSH1 0x4 DUP3 ADD MSTORE PUSH1 0x28 PUSH1 0x24 DUP3 ADD MSTORE PUSH32 0x4D61726B65744D616E616765723A20496E73756666696369656E742063726561 PUSH1 0x44 DUP3 ADD MSTORE PUSH8 0x74696F6E20666565 PUSH1 0xC0 SHL PUSH1 0x64 DUP3 ADD MSTORE PUSH1 0x84 SWAP1 REVERT JUMPDEST PUSH1 0x40 MLOAD PUSH3 0x461BCD PUSH1 0xE5 SHL DUP2 MSTORE PUSH1 0x20 PUSH1 0x4 DUP3 ADD MSTORE PUSH1 0x33 PUSH1 0x24 DUP3 ADD MSTORE PUSH1 0x0 DUP1 MLOAD PUSH1 0x20 PUSH2 0x5E07 DUP4 CODECOPY DUP2 MLOAD SWAP2 MSTORE PUSH1 0x44 DUP3 ADD MSTORE PUSH19 0x32B2103337B91036BAB63A3496B7B83A34B7B7 PUSH1 0x69 SHL PUSH1 0x64 DUP3 ADD MSTORE PUSH1 0x84 SWAP1 REVERT JUMPDEST PUSH1 0x40 MLOAD PUSH3 0x461BCD PUSH1 0xE5 SHL DUP2 MSTORE PUSH1 0x20 PUSH1 0x4 DUP3 ADD MSTORE PUSH1 0x35 PUSH1 0x24 DUP3 ADD MSTORE PUSH32 0x4D61726B65744D616E616765723A204D756C74692D6F7074696F6E206D61726B PUSH1 0x44 DUP3 ADD MSTORE PUSH21 0x32BA39903932B8BAB4B93290281928103A37B5B2B7 PUSH1 0x59 SHL PUSH1 0x64 DUP3 ADD MSTORE PUSH1 0x84 SWAP1 REVERT JUMPDEST PUSH1 0x64 CALLDATALOAD PUSH1 0x1 PUSH1 0x1 PUSH1 0xA0 SHL SUB AND ISZERO PUSH2 0x2BB0 JUMPI PUSH1 0x64 CALLDATALOAD PUSH1 0x1 PUSH1 0x1 PUSH1 0xA0 SHL SUB AND DUP3 MSTORE PUSH1 0x7 PUSH1 0x20 MSTORE PUSH1 0x40 DUP3 KECCAK256 SLOAD PUSH2 0x33ED SWAP1 PUSH1 0xFF AND PUSH2 0x4CB5 JUMP JUMPDEST PUSH2 0x2BB0 JUMP JUMPDEST PUSH1 0x40 MLOAD PUSH3 0x461BCD PUSH1 0xE5 SHL DUP2 MSTORE PUSH1 0x20 PUSH1 0x4 DUP3 ADD MSTORE PUSH1 0x34 PUSH1 0x24 DUP3 ADD MSTORE PUSH32 0x4D61726B65744D616E616765723A205265736F6C7574696F6E206D7573742062 PUSH1 0x44 DUP3 ADD MSTORE PUSH20 0x194818599D195C881CDD185AD9481C195C9A5BD9 PUSH1 0x62 SHL PUSH1 0x64 DUP3 ADD MSTORE PUSH1 0x84 SWAP1 REVERT JUMPDEST PUSH1 0x40 MLOAD PUSH3 0x461BCD PUSH1 0xE5 SHL DUP2 MSTORE PUSH1 0x20 PUSH1 0x4 DUP3 ADD MSTORE PUSH1 0x2B PUSH1 0x24 DUP3 ADD MSTORE PUSH1 0x0 DUP1 MLOAD PUSH1 0x20 PUSH2 0x5E47 DUP4 CODECOPY DUP2 MLOAD SWAP2 MSTORE PUSH1 0x44 DUP3 ADD MSTORE PUSH11 0x35B290323AB930BA34B7B7 PUSH1 0xA9 SHL PUSH1 0x64 DUP3 ADD MSTORE PUSH1 0x84 SWAP1 REVERT JUMPDEST PUSH1 0x40 MLOAD PUSH3 0x461BCD PUSH1 0xE5 SHL DUP2 MSTORE PUSH1 0x20 PUSH1 0x4 DUP3 ADD MSTORE PUSH1 0x26 PUSH1 0x24 DUP3 ADD MSTORE PUSH32 0x4D61726B65744D616E616765723A20496E76616C69642063726561746F72206F PUSH1 0x44 DUP3 ADD MSTORE PUSH6 0x7574636F6D65 PUSH1 0xD0 SHL PUSH1 0x64 DUP3 ADD MSTORE PUSH1 0x84 SWAP1 REVERT JUMPDEST POP PUSH1 0x44 CALLDATALOAD PUSH1 0xC4 CALLDATALOAD GT ISZERO PUSH2 0x2B5C JUMP JUMPDEST PUSH1 0x40 MLOAD PUSH3 0x461BCD PUSH1 0xE5 SHL DUP2 MSTORE PUSH1 0x20 PUSH1 0x4 DUP3 ADD MSTORE PUSH1 0x26 PUSH1 0x24 DUP3 ADD MSTORE PUSH32 0x4D61726B65744D616E616765723A20496E76616C69642063726561746F722064 PUSH1 0x44 DUP3 ADD MSTORE PUSH6 0x195C1BDCDA5D PUSH1 0xD2 SHL PUSH1 0x64 DUP3 ADD MSTORE PUSH1 0x84 SWAP1 REVERT JUMPDEST PUSH1 0x64 PUSH1 0x40 MLOAD PUSH3 0x461BCD PUSH1 0xE5 SHL DUP2 MSTORE PUSH1 0x20 PUSH1 0x4 DUP3 ADD MSTORE PUSH1 0x20 PUSH1 0x24 DUP3 ADD MSTORE PUSH32 0x4D61726B65744D616E616765723A20496E76616C6964206D696E207374616B65 PUSH1 0x44 DUP3 ADD MSTORE REVERT JUMPDEST PUSH1 0x40 MLOAD PUSH3 0x461BCD PUSH1 0xE5 SHL DUP2 MSTORE PUSH1 0x20 PUSH1 0x4 DUP3 ADD MSTORE PUSH1 0x22 PUSH1 0x24 DUP3 ADD MSTORE PUSH32 0x4D61726B65744D616E616765723A20496E76616C6964206D6178206F7074696F PUSH1 0x44 DUP3 ADD MSTORE PUSH2 0x6E73 PUSH1 0xF0 SHL PUSH1 0x64 DUP3 ADD MSTORE PUSH1 0x84 SWAP1 REVERT JUMPDEST POP PUSH1 0xA PUSH1 0x44 CALLDATALOAD GT ISZERO PUSH2 0x2B3C JUMP JUMPDEST PUSH1 0x64 PUSH1 0x40 MLOAD PUSH3 0x461BCD PUSH1 0xE5 SHL DUP2 MSTORE PUSH1 0x20 PUSH1 0x4 DUP3 ADD MSTORE PUSH1 0x20 PUSH1 0x24 DUP3 ADD MSTORE PUSH32 0x4D61726B65744D616E616765723A20496E76616C696420495046532068617368 PUSH1 0x44 DUP3 ADD MSTORE REVERT JUMPDEST POP CALLVALUE PUSH2 0x35C JUMPI DUP1 PUSH1 0x3 NOT CALLDATASIZE ADD SLT PUSH2 0x35C JUMPI PUSH1 0xB SLOAD PUSH1 0x40 MLOAD PUSH1 0x1 PUSH1 0x1 PUSH1 0xA0 SHL SUB SWAP1 SWAP2 AND DUP2 MSTORE PUSH1 0x20 SWAP1 RETURN JUMPDEST POP CALLVALUE PUSH2 0x35C JUMPI PUSH2 0x13FB PUSH2 0x3671 CALLDATASIZE PUSH2 0x4B2E JUMP JUMPDEST SWAP1 PUSH2 0x52F4 JUMP JUMPDEST POP CALLVALUE PUSH2 0x35C JUMPI DUP1 PUSH1 0x3 NOT CALLDATASIZE ADD SLT PUSH2 0x35C JUMPI PUSH1 0x20 PUSH1 0x13 SLOAD PUSH1 0x40 MLOAD SWAP1 DUP2 MSTORE RETURN JUMPDEST POP CALLVALUE PUSH2 0x35C JUMPI PUSH1 0x20 DUP1 PUSH1 0x3 NOT CALLDATASIZE ADD SLT PUSH2 0x5EB JUMPI PUSH1 0x4 CALLDATALOAD DUP1 DUP4 MSTORE PUSH1 0x1 DUP3 MSTORE PUSH1 0x40 DUP4 KECCAK256 SWAP2 PUSH1 0xFF PUSH1 0xC DUP5 ADD SLOAD AND PUSH1 0x5 DUP2 LT ISZERO PUSH2 0x1C74 JUMPI PUSH1 0x3 SUB PUSH2 0x39EA JUMPI DUP2 DUP5 MSTORE PUSH1 0x2 DUP2 MSTORE PUSH1 0x40 DUP5 KECCAK256 CALLER PUSH1 0x0 MSTORE DUP2 MSTORE PUSH1 0xFF PUSH1 0x40 PUSH1 0x0 KECCAK256 SLOAD AND DUP1 ISZERO PUSH2 0x39CA JUMPI JUMPDEST ISZERO PUSH2 0x397C JUMPI DUP4 SWAP3 DUP3 DUP6 MSTORE PUSH1 0x2 DUP3 MSTORE PUSH1 0x40 DUP6 KECCAK256 CALLER PUSH1 0x0 MSTORE DUP3 MSTORE PUSH1 0xFF PUSH1 0x40 PUSH1 0x0 KECCAK256 SLOAD AND PUSH2 0x38D6 JUMPI JUMPDEST DUP3 DUP6 MSTORE PUSH1 0x3 DUP3 MSTORE PUSH1 0x40 DUP6 KECCAK256 CALLER PUSH1 0x0 MSTORE DUP3 MSTORE PUSH1 0xFF PUSH1 0x40 PUSH1 0x0 KECCAK256 SLOAD AND PUSH2 0x3823 JUMPI JUMPDEST DUP4 ISZERO PUSH2 0x37D3 JUMPI PUSH1 0xB SLOAD PUSH1 0x4 SWAP1 SWAP2 ADD SLOAD DUP6 SWAP2 PUSH1 0x1 PUSH1 0x1 PUSH1 0xA0 SHL SUB SWAP2 DUP3 AND SWAP2 AND DUP1 EXTCODESIZE ISZERO PUSH2 0x1BE0 JUMPI DUP6 DUP4 SWAP2 PUSH2 0x3780 SWAP4 DUP4 PUSH1 0x40 MLOAD DUP1 SWAP7 DUP2 SWAP6 DUP3 SWAP5 PUSH4 0x164FCD7D PUSH1 0xE2 SHL DUP5 MSTORE CALLER DUP14 PUSH1 0x4 DUP7 ADD PUSH2 0x514A JUMP JUMPDEST SUB SWAP3 GAS CALL DUP1 ISZERO PUSH2 0x5E0 JUMPI PUSH2 0x37BF JUMPI JUMPDEST POP POP PUSH32 0xF3F402280EF0A7905E124AA621B65EAEB2725C343E8B36D398ED78C29DAF285C SWAP1 PUSH1 0x40 MLOAD SWAP4 DUP5 MSTORE CALLER SWAP4 LOG3 DUP1 RETURN JUMPDEST PUSH2 0x37C8 SWAP1 PUSH2 0x4A5F JUMP JUMPDEST PUSH2 0x5DC JUMPI DUP4 CODESIZE PUSH2 0x378F JUMP JUMPDEST PUSH1 0x40 MLOAD PUSH3 0x461BCD PUSH1 0xE5 SHL DUP2 MSTORE PUSH1 0x4 DUP2 ADD DUP4 SWAP1 MSTORE PUSH1 0x22 PUSH1 0x24 DUP3 ADD MSTORE PUSH32 0x4D61726B65744D616E616765723A204E6F20726566756E6420617661696C6162 PUSH1 0x44 DUP3 ADD MSTORE PUSH2 0x6C65 PUSH1 0xF0 SHL PUSH1 0x64 DUP3 ADD MSTORE PUSH1 0x84 SWAP1 REVERT JUMPDEST SWAP3 PUSH2 0x385A SWAP1 DUP3 PUSH1 0x1 DUP1 PUSH1 0xA0 SHL SUB DUP1 PUSH1 0xB SLOAD AND SWAP1 PUSH1 0x4 DUP9 ADD SLOAD AND SWAP1 PUSH1 0x40 MLOAD DUP1 DUP1 SWAP7 DUP2 SWAP5 PUSH4 0x256BA741 PUSH1 0xE0 SHL DUP4 MSTORE CALLER DUP12 PUSH1 0x4 DUP6 ADD PUSH2 0x51CC JUMP JUMPDEST SUB SWAP2 GAS STATICCALL SWAP1 DUP2 ISZERO PUSH2 0x38CB JUMPI DUP7 SWAP2 PUSH2 0x389A JUMPI JUMPDEST PUSH2 0x3876 SWAP3 POP PUSH2 0x4D23 JUMP JUMPDEST SWAP3 DUP3 DUP6 MSTORE PUSH1 0x3 DUP3 MSTORE PUSH1 0x40 DUP6 KECCAK256 CALLER PUSH1 0x0 MSTORE DUP3 MSTORE PUSH1 0x40 PUSH1 0x0 KECCAK256 PUSH1 0xFF NOT DUP2 SLOAD AND SWAP1 SSTORE PUSH2 0x3735 JUMP JUMPDEST SWAP1 POP DUP3 DUP3 DUP2 RETURNDATASIZE DUP4 GT PUSH2 0x38C4 JUMPI JUMPDEST PUSH2 0x38B1 DUP2 DUP4 PUSH2 0x4AA9 JUMP JUMPDEST DUP2 ADD SUB SLT PUSH2 0x1022 JUMPI PUSH2 0x3876 SWAP2 MLOAD SWAP1 PUSH2 0x386C JUMP JUMPDEST POP RETURNDATASIZE PUSH2 0x38A7 JUMP JUMPDEST PUSH1 0x40 MLOAD RETURNDATASIZE DUP9 DUP3 RETURNDATACOPY RETURNDATASIZE SWAP1 REVERT JUMPDEST SWAP3 POP PUSH2 0x390D DUP2 PUSH1 0x1 DUP1 PUSH1 0xA0 SHL SUB DUP1 PUSH1 0xB SLOAD AND SWAP1 PUSH1 0x4 DUP8 ADD SLOAD AND SWAP1 PUSH1 0x40 MLOAD DUP1 DUP1 SWAP6 DUP2 SWAP5 PUSH4 0x423E7BC1 PUSH1 0xE1 SHL DUP4 MSTORE CALLER DUP11 PUSH1 0x4 DUP6 ADD PUSH2 0x51CC JUMP JUMPDEST SUB SWAP2 GAS STATICCALL SWAP1 DUP2 ISZERO PUSH2 0x3971 JUMPI DUP6 SWAP2 PUSH2 0x3944 JUMPI JUMPDEST POP SWAP3 DUP3 DUP6 MSTORE PUSH1 0x2 DUP3 MSTORE PUSH1 0x40 DUP6 KECCAK256 CALLER PUSH1 0x0 MSTORE DUP3 MSTORE PUSH1 0x40 PUSH1 0x0 KECCAK256 PUSH1 0xFF NOT DUP2 SLOAD AND SWAP1 SSTORE PUSH2 0x3716 JUMP JUMPDEST SWAP1 POP DUP2 DUP2 DUP2 RETURNDATASIZE DUP4 GT PUSH2 0x396A JUMPI JUMPDEST PUSH2 0x395B DUP2 DUP4 PUSH2 0x4AA9 JUMP JUMPDEST DUP2 ADD SUB SLT PUSH2 0x1022 JUMPI MLOAD CODESIZE PUSH2 0x391F JUMP JUMPDEST POP RETURNDATASIZE PUSH2 0x3951 JUMP JUMPDEST PUSH1 0x40 MLOAD RETURNDATASIZE DUP8 DUP3 RETURNDATACOPY RETURNDATASIZE SWAP1 REVERT JUMPDEST PUSH1 0x84 SWAP1 PUSH1 0x40 MLOAD SWAP1 PUSH3 0x461BCD PUSH1 0xE5 SHL DUP3 MSTORE PUSH1 0x4 DUP3 ADD MSTORE PUSH1 0x21 PUSH1 0x24 DUP3 ADD MSTORE PUSH32 0x4D61726B65744D616E616765723A204E6F207374616B6520746F20726566756E PUSH1 0x44 DUP3 ADD MSTORE PUSH1 0x19 PUSH1 0xFA SHL PUSH1 0x64 DUP3 ADD MSTORE REVERT JUMPDEST POP DUP2 DUP5 MSTORE PUSH1 0x3 DUP2 MSTORE PUSH1 0x40 DUP5 KECCAK256 CALLER PUSH1 0x0 MSTORE DUP2 MSTORE PUSH1 0xFF PUSH1 0x40 PUSH1 0x0 KECCAK256 SLOAD AND PUSH2 0x36F0 JUMP JUMPDEST PUSH1 0x84 SWAP1 PUSH1 0x40 MLOAD SWAP1 PUSH3 0x461BCD PUSH1 0xE5 SHL DUP3 MSTORE PUSH1 0x4 DUP3 ADD MSTORE PUSH1 0x23 PUSH1 0x24 DUP3 ADD MSTORE PUSH32 0x4D61726B65744D616E616765723A204D61726B6574206E6F742063616E63656C PUSH1 0x44 DUP3 ADD MSTORE PUSH3 0x1B1959 PUSH1 0xEA SHL PUSH1 0x64 DUP3 ADD MSTORE REVERT JUMPDEST POP CALLVALUE PUSH2 0x35C JUMPI PUSH1 0x40 CALLDATASIZE PUSH1 0x3 NOT ADD SLT PUSH2 0x35C JUMPI PUSH1 0x4 CALLDATALOAD PUSH1 0x24 CALLDATALOAD PUSH1 0x1 PUSH1 0x1 PUSH1 0x40 SHL SUB DUP2 GT PUSH2 0x1BE0 JUMPI PUSH2 0x3A6E SWAP1 CALLDATASIZE SWAP1 PUSH1 0x4 ADD PUSH2 0x4AE7 JUMP JUMPDEST PUSH2 0x3A76 PUSH2 0x4C33 JUMP JUMPDEST PUSH2 0x3A83 PUSH1 0xE SLOAD DUP4 LT PUSH2 0x5BC7 JUMP JUMPDEST DUP2 DUP4 MSTORE PUSH1 0x20 SWAP1 PUSH1 0x1 DUP3 MSTORE PUSH2 0x3AA4 PUSH1 0x1 DUP1 PUSH1 0xA0 SHL SUB PUSH1 0x40 DUP7 KECCAK256 SLOAD AND ISZERO ISZERO PUSH2 0x5C12 JUMP JUMPDEST DUP3 DUP5 MSTORE PUSH1 0x1 DUP3 MSTORE PUSH1 0xFF PUSH1 0xC PUSH1 0x40 DUP7 KECCAK256 ADD SLOAD AND PUSH1 0x5 DUP2 LT ISZERO PUSH2 0x1C74 JUMPI PUSH1 0x4 EQ PUSH2 0x3B5B JUMPI DUP3 DUP5 MSTORE PUSH1 0x1 DUP3 MSTORE PUSH1 0x40 DUP1 DUP6 KECCAK256 PUSH1 0xC ADD DUP1 SLOAD PUSH1 0xFF NOT AND PUSH1 0x4 OR SWAP1 SSTORE DUP4 DUP6 MSTORE PUSH1 0x17 DUP4 MSTORE DUP5 KECCAK256 TIMESTAMP SWAP1 SSTORE PUSH1 0x16 SLOAD SWAP2 PUSH1 0x1 PUSH1 0x40 SHL DUP4 LT ISZERO PUSH2 0x31C5 JUMPI PUSH2 0x3B1F DUP5 PUSH2 0x2E0A DUP6 PUSH1 0x1 PUSH1 0x0 DUP1 MLOAD PUSH1 0x20 PUSH2 0x5DC7 DUP4 CODECOPY DUP2 MLOAD SWAP2 MSTORE SWAP8 ADD PUSH1 0x16 SSTORE PUSH2 0x4890 JUMP JUMPDEST DUP4 DUP6 MSTORE PUSH1 0x14 DUP2 MSTORE PUSH1 0xFF PUSH1 0x40 DUP7 KECCAK256 SLOAD AND PUSH2 0x3B4D JUMPI JUMPDEST PUSH2 0x3B47 PUSH1 0x40 MLOAD SWAP3 DUP3 DUP5 SWAP4 DUP5 MSTORE DUP4 ADD SWAP1 PUSH2 0x48FE JUMP JUMPDEST SUB SWAP1 LOG2 DUP1 RETURN JUMPDEST PUSH2 0x3B56 DUP5 PUSH2 0x5C6A JUMP JUMPDEST PUSH2 0x3B33 JUMP JUMPDEST PUSH1 0x40 MLOAD PUSH3 0x461BCD PUSH1 0xE5 SHL DUP2 MSTORE PUSH1 0x4 DUP2 ADD DUP4 SWAP1 MSTORE PUSH1 0x1E PUSH1 0x24 DUP3 ADD MSTORE PUSH32 0x4D61726B65744D616E616765723A20416C72656164792064656C657465640000 PUSH1 0x44 DUP3 ADD MSTORE PUSH1 0x64 SWAP1 REVERT JUMPDEST POP CALLVALUE PUSH2 0x35C JUMPI DUP1 PUSH1 0x3 NOT CALLDATASIZE ADD SLT PUSH2 0x35C JUMPI PUSH1 0xC SLOAD PUSH1 0x40 MLOAD PUSH1 0x1 PUSH1 0x1 PUSH1 0xA0 SHL SUB SWAP1 SWAP2 AND DUP2 MSTORE PUSH1 0x20 SWAP1 RETURN JUMPDEST POP CALLVALUE PUSH2 0x35C JUMPI PUSH1 0x40 CALLDATASIZE PUSH1 0x3 NOT ADD SLT PUSH2 0x35C JUMPI PUSH2 0x1150 SWAP1 PUSH1 0x20 PUSH2 0x3BE9 PUSH2 0x47E3 JUMP JUMPDEST PUSH1 0x1 DUP1 PUSH1 0xA0 SHL SUB PUSH1 0xB SLOAD AND PUSH1 0x40 MLOAD DUP1 DUP1 SWAP7 DUP2 SWAP5 PUSH4 0x4F44289D PUSH1 0xE0 SHL DUP4 MSTORE PUSH1 0x4 CALLDATALOAD PUSH1 0x4 DUP5 ADD PUSH2 0x4E56 JUMP JUMPDEST POP CALLVALUE PUSH2 0x35C JUMPI PUSH1 0x20 CALLDATASIZE PUSH1 0x3 NOT ADD SLT PUSH2 0x35C JUMPI PUSH1 0x4 CALLDATALOAD PUSH2 0x3C2F PUSH2 0x4C33 JUMP JUMPDEST DUP1 ISZERO PUSH2 0x3C3B JUMPI PUSH1 0x10 SSTORE DUP1 RETURN JUMPDEST PUSH1 0x40 MLOAD PUSH3 0x461BCD PUSH1 0xE5 SHL DUP2 MSTORE PUSH1 0x20 PUSH1 0x4 DUP3 ADD MSTORE PUSH1 0x27 PUSH1 0x24 DUP3 ADD MSTORE PUSH32 0x4D61726B65744D616E616765723A20496E76616C6964206D696E696D756D2064 PUSH1 0x44 DUP3 ADD MSTORE PUSH7 0x3AB930BA34B7B7 PUSH1 0xC9 SHL PUSH1 0x64 DUP3 ADD MSTORE PUSH1 0x84 SWAP1 REVERT JUMPDEST POP CALLVALUE PUSH2 0x35C JUMPI DUP1 PUSH1 0x3 NOT CALLDATASIZE ADD SLT PUSH2 0x35C JUMPI PUSH1 0x20 PUSH1 0xE SLOAD PUSH1 0x40 MLOAD SWAP1 DUP2 MSTORE RETURN JUMPDEST POP CALLVALUE PUSH2 0x35C JUMPI PUSH1 0x20 DUP1 PUSH1 0x3 NOT CALLDATASIZE ADD SLT PUSH2 0x5EB JUMPI PUSH2 0x3DD3 PUSH1 0x4 CALLDATALOAD SWAP2 PUSH2 0x3CD0 PUSH2 0x5D24 JUMP JUMPDEST POP DUP3 DUP5 MSTORE PUSH1 0x1 SWAP1 DUP2 DUP2 MSTORE PUSH1 0x40 DUP6 KECCAK256 SWAP4 PUSH1 0x40 MLOAD SWAP6 PUSH2 0x3CEC DUP8 PUSH2 0x4A72 JUMP JUMPDEST DUP6 SLOAD PUSH1 0x1 PUSH1 0x1 PUSH1 0xA0 SHL SUB SWAP1 DUP2 AND DUP9 MSTORE PUSH2 0x3D06 DUP6 DUP9 ADD PUSH2 0x4B8D JUMP JUMPDEST DUP5 DUP10 ADD MSTORE PUSH1 0xFF PUSH1 0x2 DUP9 ADD SLOAD AND ISZERO ISZERO PUSH1 0x40 DUP10 ADD MSTORE PUSH1 0x3 DUP8 ADD SLOAD PUSH1 0x60 DUP10 ADD MSTORE DUP1 PUSH1 0x4 DUP9 ADD SLOAD AND SWAP2 PUSH1 0x80 DUP10 ADD SWAP3 DUP4 MSTORE PUSH1 0x5 DUP9 ADD SLOAD PUSH1 0xA0 DUP11 ADD MSTORE PUSH1 0x6 DUP9 ADD SLOAD PUSH1 0xC0 DUP11 ADD MSTORE PUSH1 0x7 DUP9 ADD SLOAD PUSH1 0xE0 DUP11 ADD MSTORE PUSH1 0xFF PUSH1 0xE PUSH1 0x8 DUP11 ADD SLOAD SWAP10 PUSH2 0x100 SWAP11 DUP12 DUP14 ADD MSTORE PUSH1 0x9 DUP2 ADD SLOAD PUSH2 0x120 DUP14 ADD MSTORE PUSH1 0xA DUP2 ADD SLOAD PUSH2 0x140 DUP14 ADD MSTORE PUSH1 0xB DUP2 ADD SLOAD PUSH2 0x160 DUP14 ADD MSTORE PUSH2 0x3D98 DUP13 PUSH2 0x180 DUP6 PUSH1 0xC DUP6 ADD SLOAD AND SWAP2 ADD PUSH2 0x4D3F JUMP JUMPDEST PUSH1 0xD DUP2 ADD SLOAD PUSH2 0x1A0 DUP14 ADD MSTORE ADD SLOAD AND ISZERO ISZERO PUSH2 0x1C0 DUP11 ADD MSTORE DUP2 PUSH1 0xB SLOAD AND DUP6 DUP4 DUP6 MLOAD AND PUSH1 0x40 MLOAD DUP1 SWAP11 DUP2 SWAP3 PUSH4 0x3D1E7BA1 PUSH1 0xE1 SHL DUP4 MSTORE DUP10 PUSH1 0x4 DUP5 ADD PUSH2 0x4E56 JUMP JUMPDEST SUB DUP2 DUP5 GAS STATICCALL SWAP8 DUP9 ISZERO PUSH2 0x5E0 JUMPI DUP3 SWAP9 PUSH2 0x3F8C JUMPI JUMPDEST POP SWAP1 DUP6 PUSH2 0x3E0E SWAP3 DUP5 DUP7 MLOAD AND SWAP1 PUSH1 0x40 MLOAD DUP1 DUP1 SWAP7 DUP2 SWAP5 PUSH4 0x4F44289D PUSH1 0xE0 SHL DUP4 MSTORE DUP12 PUSH1 0x4 DUP5 ADD PUSH2 0x4E56 JUMP JUMPDEST SUB SWAP2 GAS STATICCALL SWAP2 DUP3 ISZERO PUSH2 0x3F7F JUMPI DUP2 SWAP3 PUSH2 0x3F50 JUMPI JUMPDEST POP DUP5 DUP2 MSTORE PUSH1 0x5 DUP7 MSTORE PUSH1 0x40 DUP2 KECCAK256 SLOAD SWAP3 PUSH1 0x6 DUP8 MSTORE PUSH1 0x40 DUP3 KECCAK256 SLOAD SWAP5 PUSH1 0x5 DUP9 MSTORE PUSH1 0x40 DUP4 KECCAK256 SWAP7 DUP10 PUSH1 0x40 MLOAD DUP1 SWAP10 DUP11 SWAP2 DUP13 DUP3 SLOAD SWAP2 DUP3 DUP2 MSTORE ADD SWAP2 DUP9 MSTORE DUP13 DUP1 DUP10 KECCAK256 SWAP5 DUP10 SWAP2 JUMPDEST DUP4 DUP4 LT PUSH2 0x3F37 JUMPI POP POP POP POP PUSH2 0x3E73 SWAP3 POP SUB DUP10 PUSH2 0x4AA9 JUMP JUMPDEST DUP4 MSTORE PUSH1 0x6 DUP9 MSTORE PUSH1 0x40 DUP4 KECCAK256 PUSH1 0x40 MLOAD DUP1 SWAP11 DUP11 DUP4 SLOAD SWAP3 DUP4 DUP2 MSTORE ADD SWAP3 DUP7 MSTORE DUP11 DUP7 KECCAK256 SWAP2 DUP7 JUMPDEST DUP2 DUP2 LT PUSH2 0x3F22 JUMPI POP POP POP POP PUSH1 0x40 PUSH2 0x3F06 SWAP8 SWAP5 PUSH2 0x3F14 SWAP11 SWAP8 SWAP5 DUP13 SWAP11 SWAP8 SWAP5 PUSH2 0x3EC2 PUSH2 0x3AE SWAP16 SWAP15 PUSH2 0x3ED0 SWAP7 SUB DUP14 PUSH2 0x4AA9 JUMP JUMPDEST MLOAD AND DUP2 MSTORE PUSH1 0x8 DUP9 MSTORE KECCAK256 PUSH2 0x4B8D JUMP JUMPDEST SWAP9 PUSH2 0x3EE6 PUSH1 0x40 MLOAD SWAP14 DUP14 DUP16 SWAP15 DUP16 SWAP1 DUP2 MSTORE ADD SWAP1 PUSH2 0x4961 JUMP JUMPDEST SWAP6 DUP13 ADD MSTORE PUSH1 0x40 DUP12 ADD MSTORE PUSH1 0x60 DUP11 ADD MSTORE PUSH1 0x80 DUP10 ADD MSTORE DUP8 DUP3 SUB PUSH1 0xA0 DUP10 ADD MSTORE PUSH2 0x4A22 JUMP JUMPDEST SWAP1 DUP6 DUP3 SUB PUSH1 0xC0 DUP8 ADD MSTORE PUSH2 0x4A22 JUMP JUMPDEST SWAP1 DUP4 DUP3 SUB PUSH1 0xE0 DUP6 ADD MSTORE PUSH2 0x48FE JUMP JUMPDEST DUP4 SLOAD DUP8 AND DUP6 MSTORE SWAP4 DUP13 ADD SWAP4 SWAP3 DUP3 ADD SWAP3 DUP3 ADD PUSH2 0x3E93 JUMP JUMPDEST DUP7 SLOAD DUP11 AND DUP6 MSTORE SWAP6 DUP2 ADD SWAP6 DUP15 SWAP6 POP SWAP1 SWAP4 ADD SWAP3 ADD DUP15 DUP15 PUSH2 0x3E5C JUMP JUMPDEST SWAP1 SWAP2 POP DUP6 DUP2 DUP2 RETURNDATASIZE DUP4 GT PUSH2 0x3F78 JUMPI JUMPDEST PUSH2 0x3F68 DUP2 DUP4 PUSH2 0x4AA9 JUMP JUMPDEST DUP2 ADD SUB SLT PUSH2 0x1022 JUMPI MLOAD SWAP1 CODESIZE PUSH2 0x3E20 JUMP JUMPDEST POP RETURNDATASIZE PUSH2 0x3F5E JUMP JUMPDEST POP PUSH1 0x40 MLOAD SWAP1 RETURNDATASIZE SWAP1 DUP3 RETURNDATACOPY RETURNDATASIZE SWAP1 REVERT JUMPDEST SWAP2 SWAP1 SWAP8 POP DUP6 DUP3 DUP2 RETURNDATASIZE DUP4 GT PUSH2 0x3FB6 JUMPI JUMPDEST PUSH2 0x3FA5 DUP2 DUP4 PUSH2 0x4AA9 JUMP JUMPDEST DUP2 ADD SUB SLT PUSH2 0x1022 JUMPI SWAP1 MLOAD SWAP7 DUP6 PUSH2 0x3DE6 JUMP JUMPDEST POP RETURNDATASIZE PUSH2 0x3F9B JUMP JUMPDEST POP CALLVALUE PUSH2 0x35C JUMPI PUSH1 0x20 DUP1 PUSH1 0x3 NOT CALLDATASIZE ADD SLT PUSH2 0x5EB JUMPI PUSH1 0x4 CALLDATALOAD DUP1 DUP4 MSTORE PUSH1 0x1 DUP3 MSTORE PUSH1 0x40 DUP4 KECCAK256 SWAP2 PUSH1 0x3 DUP2 MSTORE PUSH1 0x40 DUP5 KECCAK256 CALLER DUP6 MSTORE DUP2 MSTORE PUSH2 0x3FFC PUSH1 0xFF PUSH1 0x40 DUP7 KECCAK256 SLOAD AND PUSH2 0x5172 JUMP JUMPDEST PUSH1 0xFF PUSH1 0xC DUP5 ADD SLOAD AND PUSH1 0x5 DUP2 LT ISZERO PUSH2 0x1C74 JUMPI DUP1 PUSH2 0x41C4 JUMPI POP PUSH1 0x9 DUP4 ADD SLOAD PUSH2 0xA8BF NOT DUP2 ADD SWAP1 DUP2 GT PUSH2 0x41B0 JUMPI TIMESTAMP LT ISZERO PUSH2 0x4146 JUMPI JUMPDEST PUSH1 0x1 DUP1 PUSH1 0xA0 SHL SUB PUSH1 0x4 DUP2 PUSH1 0xB SLOAD AND SWAP5 ADD SLOAD AND SWAP3 DUP5 PUSH1 0x40 MLOAD SWAP5 PUSH4 0x256BA741 PUSH1 0xE0 SHL DUP7 MSTORE DUP4 DUP7 DUP1 PUSH2 0x4061 DUP5 CALLER DUP11 PUSH1 0x4 DUP6 ADD PUSH2 0x51CC JUMP JUMPDEST SUB DUP2 DUP7 GAS STATICCALL SWAP6 DUP7 ISZERO PUSH2 0x5E0 JUMPI DUP3 SWAP7 PUSH2 0x4117 JUMPI JUMPDEST POP PUSH2 0x4080 DUP7 ISZERO ISZERO PUSH2 0x5172 JUMP JUMPDEST DUP3 EXTCODESIZE ISZERO PUSH2 0x5EB JUMPI PUSH2 0x40AC SWAP3 DUP7 SWAP2 DUP4 PUSH1 0x40 MLOAD DUP1 SWAP7 DUP2 SWAP6 DUP3 SWAP5 PUSH4 0x17BE0B2F PUSH1 0xE1 SHL DUP5 MSTORE CALLER DUP13 PUSH1 0x4 DUP7 ADD PUSH2 0x514A JUMP JUMPDEST SUB SWAP3 GAS CALL DUP1 ISZERO PUSH2 0x3971 JUMPI PUSH2 0x40F6 JUMPI JUMPDEST POP PUSH1 0x0 DUP1 MLOAD PUSH1 0x20 PUSH2 0x5E27 DUP4 CODECOPY DUP2 MLOAD SWAP2 MSTORE SWAP1 DUP3 DUP6 MSTORE PUSH1 0x3 DUP2 MSTORE PUSH1 0x40 DUP6 KECCAK256 CALLER PUSH1 0x0 MSTORE DUP2 MSTORE PUSH1 0x40 PUSH1 0x0 KECCAK256 PUSH1 0xFF NOT DUP2 SLOAD AND SWAP1 SSTORE PUSH1 0x40 MLOAD SWAP4 DUP5 MSTORE CALLER SWAP4 LOG3 DUP1 RETURN JUMPDEST SWAP4 PUSH2 0x4110 PUSH1 0x0 DUP1 MLOAD PUSH1 0x20 PUSH2 0x5E27 DUP4 CODECOPY DUP2 MLOAD SWAP2 MSTORE SWAP3 SWAP6 PUSH2 0x4A5F JUMP JUMPDEST SWAP4 SWAP1 PUSH2 0x40BB JUMP JUMPDEST SWAP1 SWAP6 POP DUP4 DUP2 DUP2 RETURNDATASIZE DUP4 GT PUSH2 0x413F JUMPI JUMPDEST PUSH2 0x412F DUP2 DUP4 PUSH2 0x4AA9 JUMP JUMPDEST DUP2 ADD SUB SLT PUSH2 0x5EB JUMPI MLOAD SWAP5 CODESIZE PUSH2 0x4074 JUMP JUMPDEST POP RETURNDATASIZE PUSH2 0x4125 JUMP JUMPDEST PUSH1 0x84 SWAP1 PUSH1 0x40 MLOAD SWAP1 PUSH3 0x461BCD PUSH1 0xE5 SHL DUP3 MSTORE PUSH1 0x4 DUP3 ADD MSTORE PUSH1 0x3D PUSH1 0x24 DUP3 ADD MSTORE PUSH32 0x4D61726B65744D616E616765723A2043616E6E6F742077697468647261772077 PUSH1 0x44 DUP3 ADD MSTORE PUSH32 0x697468696E20313220686F757273206F66207374616B696E6720656E64000000 PUSH1 0x64 DUP3 ADD MSTORE REVERT JUMPDEST PUSH4 0x4E487B71 PUSH1 0xE0 SHL DUP6 MSTORE PUSH1 0x11 PUSH1 0x4 MSTORE PUSH1 0x24 DUP6 REVERT JUMPDEST PUSH1 0x4 DUP2 EQ SWAP1 DUP2 ISZERO PUSH2 0x4238 JUMPI JUMPDEST POP PUSH2 0x402D JUMPI PUSH1 0x84 SWAP1 PUSH1 0x40 MLOAD SWAP1 PUSH3 0x461BCD PUSH1 0xE5 SHL DUP3 MSTORE PUSH1 0x4 DUP3 ADD MSTORE PUSH1 0x36 PUSH1 0x24 DUP3 ADD MSTORE PUSH32 0x4D61726B65744D616E616765723A2043616E6E6F742077697468647261772069 PUSH1 0x44 DUP3 ADD MSTORE PUSH22 0x6E2063757272656E74206D61726B6574207374617465 PUSH1 0x50 SHL PUSH1 0x64 DUP3 ADD MSTORE REVERT JUMPDEST PUSH1 0x3 SWAP2 POP EQ CODESIZE PUSH2 0x41D0 JUMP JUMPDEST POP CALLVALUE PUSH2 0x35C JUMPI PUSH1 0x20 CALLDATASIZE PUSH1 0x3 NOT ADD SLT PUSH2 0x35C JUMPI PUSH1 0x4 CALLDATALOAD SWAP1 PUSH1 0x13 SLOAD DUP3 LT ISZERO PUSH2 0x35C JUMPI PUSH1 0x20 PUSH2 0x1DC9 DUP4 PUSH2 0x4875 JUMP JUMPDEST POP CALLVALUE PUSH2 0x35C JUMPI PUSH1 0x20 DUP1 PUSH1 0x3 NOT CALLDATASIZE ADD SLT PUSH2 0x5EB JUMPI PUSH1 0x1 PUSH1 0x1 PUSH1 0xA0 SHL SUB PUSH2 0x4291 PUSH2 0x47F9 JUMP JUMPDEST AND DUP3 MSTORE PUSH1 0x15 DUP2 MSTORE PUSH1 0x40 DUP3 KECCAK256 SWAP2 PUSH1 0x40 MLOAD DUP1 SWAP3 DUP1 DUP6 SLOAD SWAP3 DUP4 DUP2 MSTORE ADD SWAP5 DUP4 MSTORE DUP1 DUP4 KECCAK256 SWAP3 SWAP1 JUMPDEST DUP3 DUP3 LT PUSH2 0x42CA JUMPI PUSH2 0x3AE DUP6 PUSH2 0x1D11 DUP2 DUP10 SUB DUP3 PUSH2 0x4AA9 JUMP JUMPDEST DUP4 SLOAD DUP7 MSTORE SWAP5 DUP6 ADD SWAP5 PUSH1 0x1 SWAP4 DUP5 ADD SWAP4 SWAP1 SWAP2 ADD SWAP1 PUSH2 0x42B3 JUMP JUMPDEST POP CALLVALUE PUSH2 0x35C JUMPI PUSH1 0x40 CALLDATASIZE PUSH1 0x3 NOT ADD SLT PUSH2 0x35C JUMPI PUSH1 0xFF PUSH1 0x40 PUSH1 0x20 SWAP3 PUSH2 0x4302 PUSH2 0x47E3 JUMP JUMPDEST PUSH1 0x4 CALLDATALOAD DUP3 MSTORE PUSH1 0x2 DUP6 MSTORE DUP3 DUP3 KECCAK256 PUSH1 0x1 PUSH1 0x1 PUSH1 0xA0 SHL SUB SWAP1 SWAP2 AND DUP3 MSTORE DUP5 MSTORE KECCAK256 SLOAD PUSH1 0x40 MLOAD SWAP2 AND ISZERO ISZERO DUP2 MSTORE RETURN JUMPDEST POP CALLVALUE PUSH2 0x35C JUMPI DUP1 PUSH1 0x3 NOT CALLDATASIZE ADD SLT PUSH2 0x35C JUMPI PUSH1 0x20 PUSH1 0xF SLOAD PUSH1 0x40 MLOAD SWAP1 DUP2 MSTORE RETURN JUMPDEST POP CALLVALUE PUSH2 0x35C JUMPI PUSH1 0x20 CALLDATASIZE PUSH1 0x3 NOT ADD SLT PUSH2 0x35C JUMPI PUSH1 0x4 CALLDATALOAD SWAP1 PUSH1 0x9 SLOAD DUP3 LT ISZERO PUSH2 0x35C JUMPI PUSH1 0x20 PUSH2 0x14CA DUP4 PUSH2 0x4844 JUMP JUMPDEST POP CALLVALUE PUSH2 0x35C JUMPI PUSH1 0x20 CALLDATASIZE PUSH1 0x3 NOT ADD SLT PUSH2 0x35C JUMPI PUSH1 0x20 SWAP1 PUSH1 0xFF SWAP1 PUSH1 0x40 SWAP1 PUSH1 0x1 PUSH1 0x1 PUSH1 0xA0 SHL SUB PUSH2 0x439E PUSH2 0x47F9 JUMP JUMPDEST AND DUP2 MSTORE PUSH1 0xA DUP5 MSTORE KECCAK256 SLOAD AND PUSH1 0x40 MLOAD SWAP1 ISZERO ISZERO DUP2 MSTORE RETURN JUMPDEST POP CALLVALUE PUSH2 0x35C JUMPI PUSH1 0x40 CALLDATASIZE PUSH1 0x3 NOT ADD SLT PUSH2 0x35C JUMPI PUSH1 0xFF PUSH1 0x40 PUSH1 0x20 SWAP3 PUSH2 0x43D3 PUSH2 0x47E3 JUMP JUMPDEST PUSH1 0x4 CALLDATALOAD DUP3 MSTORE PUSH1 0x3 DUP6 MSTORE DUP3 DUP3 KECCAK256 PUSH1 0x1 PUSH1 0x1 PUSH1 0xA0 SHL SUB SWAP1 SWAP2 AND DUP3 MSTORE DUP5 MSTORE KECCAK256 SLOAD PUSH1 0x40 MLOAD SWAP2 AND ISZERO ISZERO DUP2 MSTORE RETURN JUMPDEST POP CALLVALUE PUSH2 0x35C JUMPI PUSH2 0x443E PUSH1 0x20 PUSH2 0x440F CALLDATASIZE PUSH2 0x480F JUMP JUMPDEST PUSH1 0xB SLOAD PUSH1 0x40 MLOAD PUSH4 0x256BA741 PUSH1 0xE0 SHL DUP2 MSTORE SWAP6 DUP7 SWAP5 PUSH1 0x1 PUSH1 0x1 PUSH1 0xA0 SHL SUB SWAP1 SWAP3 AND SWAP4 DUP6 SWAP4 DUP5 SWAP4 SWAP1 SWAP2 SWAP1 PUSH1 0x4 DUP6 ADD PUSH2 0x51CC JUMP JUMPDEST SUB SWAP2 GAS STATICCALL SWAP1 DUP2 ISZERO PUSH2 0x5E0 JUMPI DUP3 SWAP2 PUSH2 0x445B JUMPI JUMPDEST PUSH1 0x20 DUP3 PUSH1 0x40 MLOAD SWAP1 DUP2 MSTORE RETURN JUMPDEST SWAP1 POP PUSH1 0x20 DUP2 RETURNDATASIZE DUP3 GT PUSH2 0x4488 JUMPI JUMPDEST DUP2 PUSH2 0x4475 PUSH1 0x20 SWAP4 DUP4 PUSH2 0x4AA9 JUMP JUMPDEST DUP2 ADD SUB SLT PUSH2 0x5EB JUMPI PUSH1 0x20 SWAP2 POP MLOAD CODESIZE PUSH2 0x4450 JUMP JUMPDEST RETURNDATASIZE SWAP2 POP PUSH2 0x4468 JUMP JUMPDEST POP CALLVALUE PUSH2 0x35C JUMPI DUP1 PUSH1 0x3 NOT CALLDATASIZE ADD SLT PUSH2 0x35C JUMPI PUSH1 0x20 PUSH1 0x10 SLOAD PUSH1 0x40 MLOAD SWAP1 DUP2 MSTORE RETURN JUMPDEST POP CALLVALUE PUSH2 0x35C JUMPI PUSH1 0x20 CALLDATASIZE PUSH1 0x3 NOT ADD SLT PUSH2 0x35C JUMPI PUSH1 0x4 CALLDATALOAD DUP1 DUP3 MSTORE PUSH1 0x1 PUSH1 0x20 MSTORE PUSH1 0x40 DUP3 KECCAK256 PUSH1 0xC DUP2 ADD SWAP1 DUP2 SLOAD SWAP1 PUSH1 0xFF DUP3 AND PUSH1 0x5 DUP2 LT ISZERO PUSH2 0x747 JUMPI SWAP1 PUSH2 0x44F1 PUSH1 0xA SWAP3 ISZERO PUSH2 0x4F4D JUMP JUMPDEST ADD SLOAD DUP1 TIMESTAMP LT PUSH2 0x4531 JUMPI PUSH31 0xB6FEAE4BEC70344A7D0E99F4C0237ADAAEEE2FBB258266BE400BD8612A332 SWAP3 PUSH1 0x1 PUSH1 0x20 SWAP4 PUSH1 0xFF NOT AND OR SWAP1 SSTORE PUSH1 0x40 MLOAD SWAP1 DUP2 MSTORE LOG2 DUP1 RETURN JUMPDEST PUSH1 0x40 MLOAD PUSH3 0x461BCD PUSH1 0xE5 SHL DUP2 MSTORE PUSH1 0x20 PUSH1 0x4 DUP3 ADD MSTORE PUSH1 0x2A PUSH1 0x24 DUP3 ADD MSTORE PUSH32 0x4D61726B65744D616E616765723A205265736F6C7574696F6E2074696D65206E PUSH1 0x44 DUP3 ADD MSTORE PUSH10 0x1BDD081C995858DA1959 PUSH1 0xB2 SHL PUSH1 0x64 DUP3 ADD MSTORE PUSH1 0x84 SWAP1 REVERT JUMPDEST POP CALLVALUE PUSH2 0x35C JUMPI PUSH1 0x20 CALLDATASIZE PUSH1 0x3 NOT ADD SLT PUSH2 0x35C JUMPI PUSH1 0xFF PUSH1 0x40 PUSH1 0x20 SWAP3 PUSH1 0x4 CALLDATALOAD DUP2 MSTORE PUSH1 0x14 DUP5 MSTORE KECCAK256 SLOAD AND PUSH1 0x40 MLOAD SWAP1 ISZERO ISZERO DUP2 MSTORE RETURN JUMPDEST POP CALLVALUE PUSH2 0x35C JUMPI PUSH1 0x20 CALLDATASIZE PUSH1 0x3 NOT ADD SLT PUSH2 0x35C JUMPI PUSH1 0x40 PUSH1 0x20 SWAP2 PUSH1 0x4 CALLDATALOAD DUP2 MSTORE PUSH1 0x5 DUP4 MSTORE KECCAK256 SLOAD PUSH1 0x40 MLOAD SWAP1 DUP2 MSTORE RETURN JUMPDEST POP CALLVALUE PUSH2 0x35C JUMPI PUSH1 0x20 DUP1 PUSH1 0x3 NOT CALLDATASIZE ADD SLT PUSH2 0x5EB JUMPI PUSH1 0x4 CALLDATALOAD SWAP1 PUSH2 0x4601 PUSH2 0x4C33 JUMP JUMPDEST PUSH2 0x460E PUSH1 0xE SLOAD DUP4 LT PUSH2 0x5BC7 JUMP JUMPDEST DUP2 DUP4 MSTORE PUSH1 0x1 DUP1 DUP3 MSTORE PUSH1 0x40 DUP5 KECCAK256 SLOAD PUSH2 0x462F SWAP1 PUSH1 0x1 PUSH1 0x1 PUSH1 0xA0 SHL SUB AND ISZERO ISZERO PUSH2 0x5C12 JUMP JUMPDEST DUP3 DUP5 MSTORE DUP1 DUP3 MSTORE PUSH1 0xFF PUSH1 0xC PUSH1 0x40 DUP7 KECCAK256 ADD SLOAD AND PUSH1 0x5 DUP2 LT ISZERO PUSH2 0x1C74 JUMPI PUSH1 0x2 PUSH2 0x4655 SWAP2 EQ PUSH2 0x5565 JUMP JUMPDEST DUP3 DUP5 MSTORE DUP1 DUP3 MSTORE PUSH1 0xB PUSH1 0x40 DUP6 KECCAK256 ADD SLOAD PUSH3 0x278D00 DUP2 ADD DUP1 SWAP2 GT PUSH2 0x41B0 JUMPI TIMESTAMP LT PUSH2 0x4790 JUMPI DUP3 DUP5 MSTORE DUP1 DUP3 MSTORE DUP4 PUSH1 0xE PUSH1 0x40 DUP3 KECCAK256 DUP3 DUP2 SSTORE PUSH2 0x4691 DUP5 DUP3 ADD PUSH2 0x5B53 JUMP JUMPDEST DUP3 PUSH1 0x2 DUP3 ADD SSTORE DUP3 PUSH1 0x3 DUP3 ADD SSTORE DUP3 PUSH1 0x4 DUP3 ADD SSTORE DUP3 PUSH1 0x5 DUP3 ADD SSTORE DUP3 PUSH1 0x6 DUP3 ADD SSTORE DUP3 PUSH1 0x7 DUP3 ADD SSTORE DUP3 PUSH1 0x8 DUP3 ADD SSTORE DUP3 PUSH1 0x9 DUP3 ADD SSTORE DUP3 PUSH1 0xA DUP3 ADD SSTORE DUP3 PUSH1 0xB DUP3 ADD SSTORE DUP3 PUSH1 0xC DUP3 ADD SSTORE DUP3 PUSH1 0xD DUP3 ADD SSTORE ADD SSTORE DUP3 DUP5 MSTORE PUSH1 0x14 DUP3 MSTORE PUSH1 0xFF PUSH1 0x40 DUP6 KECCAK256 SLOAD AND PUSH2 0x4782 JUMPI JUMPDEST PUSH1 0x18 SLOAD SWAP1 PUSH1 0x1 PUSH1 0x40 SHL DUP3 LT ISZERO PUSH2 0x3288 JUMPI DUP2 ADD DUP1 PUSH1 0x18 SSTORE DUP2 LT ISZERO PUSH2 0x476E JUMPI PUSH1 0x0 DUP1 MLOAD PUSH1 0x20 PUSH2 0x5DC7 DUP4 CODECOPY DUP2 MLOAD SWAP2 MSTORE SWAP2 DUP4 PUSH1 0x80 SWAP3 PUSH1 0x18 DUP8 MSTORE DUP3 DUP8 KECCAK256 ADD SSTORE PUSH1 0x26 PUSH1 0x40 MLOAD SWAP2 DUP1 DUP4 MSTORE DUP3 ADD MSTORE PUSH32 0x5065726D616E656E746C792072656D6F76656420616674657220636C61696D20 PUSH1 0x40 DUP3 ADD MSTORE PUSH6 0x1C195C9A5BD9 PUSH1 0xD2 SHL PUSH1 0x60 DUP3 ADD MSTORE LOG2 DUP1 RETURN JUMPDEST PUSH4 0x4E487B71 PUSH1 0xE0 SHL DUP5 MSTORE PUSH1 0x32 PUSH1 0x4 MSTORE PUSH1 0x24 DUP5 REVERT JUMPDEST PUSH2 0x478B DUP4 PUSH2 0x5C6A JUMP JUMPDEST PUSH2 0x46EF JUMP JUMPDEST PUSH1 0x40 MLOAD PUSH3 0x461BCD PUSH1 0xE5 SHL DUP2 MSTORE PUSH1 0x4 DUP2 ADD DUP4 SWAP1 MSTORE PUSH1 0x25 PUSH1 0x24 DUP3 ADD MSTORE PUSH32 0x4D61726B65744D616E616765723A20436C61696D20706572696F64206E6F7420 PUSH1 0x44 DUP3 ADD MSTORE PUSH5 0x195B991959 PUSH1 0xDA SHL PUSH1 0x64 DUP3 ADD MSTORE PUSH1 0x84 SWAP1 REVERT JUMPDEST PUSH1 0x24 CALLDATALOAD SWAP1 PUSH1 0x1 PUSH1 0x1 PUSH1 0xA0 SHL SUB DUP3 AND DUP3 SUB PUSH2 0x1022 JUMPI JUMP JUMPDEST PUSH1 0x4 CALLDATALOAD SWAP1 PUSH1 0x1 PUSH1 0x1 PUSH1 0xA0 SHL SUB DUP3 AND DUP3 SUB PUSH2 0x1022 JUMPI JUMP JUMPDEST PUSH1 0x60 SWAP1 PUSH1 0x3 NOT ADD SLT PUSH2 0x1022 JUMPI PUSH1 0x4 CALLDATALOAD SWAP1 PUSH1 0x1 PUSH1 0x1 PUSH1 0xA0 SHL SUB SWAP1 PUSH1 0x24 CALLDATALOAD DUP3 DUP2 AND DUP2 SUB PUSH2 0x1022 JUMPI SWAP2 PUSH1 0x44 CALLDATALOAD SWAP1 DUP2 AND DUP2 SUB PUSH2 0x1022 JUMPI SWAP1 JUMP JUMPDEST PUSH1 0x9 SLOAD DUP2 LT ISZERO PUSH2 0x485F JUMPI PUSH1 0x9 PUSH1 0x0 MSTORE PUSH1 0x20 PUSH1 0x0 KECCAK256 ADD SWAP1 PUSH1 0x0 SWAP1 JUMP JUMPDEST PUSH4 0x4E487B71 PUSH1 0xE0 SHL PUSH1 0x0 MSTORE PUSH1 0x32 PUSH1 0x4 MSTORE PUSH1 0x24 PUSH1 0x0 REVERT JUMPDEST PUSH1 0x13 SLOAD DUP2 LT ISZERO PUSH2 0x485F JUMPI PUSH1 0x13 PUSH1 0x0 MSTORE PUSH1 0x20 PUSH1 0x0 KECCAK256 ADD SWAP1 PUSH1 0x0 SWAP1 JUMP JUMPDEST PUSH1 0x16 SLOAD DUP2 LT ISZERO PUSH2 0x485F JUMPI PUSH1 0x16 PUSH1 0x0 MSTORE PUSH1 0x20 PUSH1 0x0 KECCAK256 ADD SWAP1 PUSH1 0x0 SWAP1 JUMP JUMPDEST DUP1 SLOAD DUP3 LT ISZERO PUSH2 0x485F JUMPI PUSH1 0x0 MSTORE PUSH1 0x20 PUSH1 0x0 KECCAK256 ADD SWAP1 PUSH1 0x0 SWAP1 JUMP JUMPDEST PUSH1 0x20 SWAP1 DUP2 PUSH1 0x40 DUP2 DUP4 ADD SWAP3 DUP3 DUP2 MSTORE DUP6 MLOAD DUP1 SWAP5 MSTORE ADD SWAP4 ADD SWAP2 PUSH1 0x0 JUMPDEST DUP3 DUP2 LT PUSH2 0x48EA JUMPI POP POP POP POP SWAP1 JUMP JUMPDEST DUP4 MLOAD DUP6 MSTORE SWAP4 DUP2 ADD SWAP4 SWAP3 DUP2 ADD SWAP3 PUSH1 0x1 ADD PUSH2 0x48DC JUMP JUMPDEST SWAP2 SWAP1 DUP3 MLOAD SWAP3 DUP4 DUP3 MSTORE PUSH1 0x0 JUMPDEST DUP5 DUP2 LT PUSH2 0x492A JUMPI POP POP DUP3 PUSH1 0x0 PUSH1 0x20 DUP1 SWAP5 SWAP6 DUP5 ADD ADD MSTORE PUSH1 0x1F DUP1 NOT SWAP2 ADD AND ADD ADD SWAP1 JUMP JUMPDEST PUSH1 0x20 DUP2 DUP4 ADD DUP2 ADD MLOAD DUP5 DUP4 ADD DUP3 ADD MSTORE ADD PUSH2 0x4909 JUMP JUMPDEST SWAP1 PUSH1 0x5 DUP3 LT ISZERO PUSH2 0x494B JUMPI MSTORE JUMP JUMPDEST PUSH4 0x4E487B71 PUSH1 0xE0 SHL PUSH1 0x0 MSTORE PUSH1 0x21 PUSH1 0x4 MSTORE PUSH1 0x24 PUSH1 0x0 REVERT JUMPDEST SWAP1 PUSH1 0x1 DUP1 PUSH1 0xA0 SHL SUB SWAP2 DUP3 DUP2 MLOAD AND DUP3 MSTORE PUSH2 0x4989 PUSH1 0x20 DUP3 ADD MLOAD PUSH2 0x1E0 DUP1 PUSH1 0x20 DUP7 ADD MSTORE DUP5 ADD SWAP1 PUSH2 0x48FE JUMP JUMPDEST SWAP3 PUSH1 0x40 DUP3 ADD MLOAD ISZERO ISZERO PUSH1 0x40 DUP5 ADD MSTORE PUSH1 0x60 DUP3 ADD MLOAD PUSH1 0x60 DUP5 ADD MSTORE PUSH1 0x80 DUP3 ADD MLOAD AND PUSH1 0x80 DUP4 ADD MSTORE PUSH1 0xA0 DUP2 ADD MLOAD PUSH1 0xA0 DUP4 ADD MSTORE PUSH1 0xC0 DUP2 ADD MLOAD PUSH1 0xC0 DUP4 ADD MSTORE PUSH1 0xE0 DUP2 ADD MLOAD PUSH1 0xE0 DUP4 ADD MSTORE PUSH2 0x100 DUP1 DUP3 ADD MLOAD SWAP1 DUP4 ADD MSTORE PUSH2 0x120 DUP1 DUP3 ADD MLOAD SWAP1 DUP4 ADD MSTORE PUSH2 0x140 DUP1 DUP3 ADD MLOAD SWAP1 DUP4 ADD MSTORE PUSH2 0x160 DUP1 DUP3 ADD MLOAD SWAP1 DUP4 ADD MSTORE PUSH2 0x4A08 PUSH2 0x180 DUP1 DUP4 ADD MLOAD SWAP1 DUP5 ADD SWAP1 PUSH2 0x493E JUMP JUMPDEST PUSH2 0x1A0 DUP1 DUP3 ADD MLOAD SWAP1 DUP4 ADD MSTORE PUSH2 0x1C0 DUP1 SWAP2 ADD MLOAD ISZERO ISZERO SWAP2 ADD MSTORE SWAP1 JUMP JUMPDEST SWAP1 DUP2 MLOAD DUP1 DUP3 MSTORE PUSH1 0x20 DUP1 DUP1 SWAP4 ADD SWAP4 ADD SWAP2 PUSH1 0x0 JUMPDEST DUP3 DUP2 LT PUSH2 0x4A42 JUMPI POP POP POP POP SWAP1 JUMP JUMPDEST DUP4 MLOAD PUSH1 0x1 PUSH1 0x1 PUSH1 0xA0 SHL SUB AND DUP6 MSTORE SWAP4 DUP2 ADD SWAP4 SWAP3 DUP2 ADD SWAP3 PUSH1 0x1 ADD PUSH2 0x4A34 JUMP JUMPDEST PUSH1 0x1 PUSH1 0x1 PUSH1 0x40 SHL SUB DUP2 GT PUSH2 0x31C5 JUMPI PUSH1 0x40 MSTORE JUMP JUMPDEST PUSH2 0x1E0 DUP2 ADD SWAP1 DUP2 LT PUSH1 0x1 PUSH1 0x1 PUSH1 0x40 SHL SUB DUP3 GT OR PUSH2 0x31C5 JUMPI PUSH1 0x40 MSTORE JUMP JUMPDEST PUSH1 0x40 DUP2 ADD SWAP1 DUP2 LT PUSH1 0x1 PUSH1 0x1 PUSH1 0x40 SHL SUB DUP3 GT OR PUSH2 0x31C5 JUMPI PUSH1 0x40 MSTORE JUMP JUMPDEST PUSH1 0x1F SWAP1 SWAP2 ADD PUSH1 0x1F NOT AND DUP2 ADD SWAP1 PUSH1 0x1 PUSH1 0x1 PUSH1 0x40 SHL SUB DUP3 GT SWAP1 DUP3 LT OR PUSH2 0x31C5 JUMPI PUSH1 0x40 MSTORE JUMP JUMPDEST PUSH1 0x1 PUSH1 0x1 PUSH1 0x40 SHL SUB DUP2 GT PUSH2 0x31C5 JUMPI PUSH1 0x1F ADD PUSH1 0x1F NOT AND PUSH1 0x20 ADD SWAP1 JUMP JUMPDEST DUP2 PUSH1 0x1F DUP3 ADD SLT ISZERO PUSH2 0x1022 JUMPI DUP1 CALLDATALOAD SWAP1 PUSH2 0x4AFE DUP3 PUSH2 0x4ACC JUMP JUMPDEST SWAP3 PUSH2 0x4B0C PUSH1 0x40 MLOAD SWAP5 DUP6 PUSH2 0x4AA9 JUMP JUMPDEST DUP3 DUP5 MSTORE PUSH1 0x20 DUP4 DUP4 ADD ADD GT PUSH2 0x1022 JUMPI DUP2 PUSH1 0x0 SWAP3 PUSH1 0x20 DUP1 SWAP4 ADD DUP4 DUP7 ADD CALLDATACOPY DUP4 ADD ADD MSTORE SWAP1 JUMP JUMPDEST PUSH1 0x40 SWAP1 PUSH1 0x3 NOT ADD SLT PUSH2 0x1022 JUMPI PUSH1 0x4 CALLDATALOAD SWAP1 PUSH1 0x24 CALLDATALOAD SWAP1 JUMP JUMPDEST PUSH1 0x24 CALLDATALOAD SWAP1 DUP2 ISZERO ISZERO DUP3 SUB PUSH2 0x1022 JUMPI JUMP JUMPDEST SWAP1 PUSH1 0x1 DUP3 DUP2 SHR SWAP3 AND DUP1 ISZERO PUSH2 0x4B83 JUMPI JUMPDEST PUSH1 0x20 DUP4 LT EQ PUSH2 0x4B6D JUMPI JUMP JUMPDEST PUSH4 0x4E487B71 PUSH1 0xE0 SHL PUSH1 0x0 MSTORE PUSH1 0x22 PUSH1 0x4 MSTORE PUSH1 0x24 PUSH1 0x0 REVERT JUMPDEST SWAP2 PUSH1 0x7F AND SWAP2 PUSH2 0x4B62 JUMP JUMPDEST SWAP1 PUSH1 0x40 MLOAD SWAP2 DUP3 PUSH1 0x0 DUP3 SLOAD SWAP3 PUSH2 0x4BA1 DUP5 PUSH2 0x4B53 JUMP JUMPDEST SWAP1 DUP2 DUP5 MSTORE PUSH1 0x1 SWAP5 DUP6 DUP2 AND SWAP1 DUP2 PUSH1 0x0 EQ PUSH2 0x4C10 JUMPI POP PUSH1 0x1 EQ PUSH2 0x4BCD JUMPI JUMPDEST POP POP PUSH2 0x4BCB SWAP3 POP SUB DUP4 PUSH2 0x4AA9 JUMP JUMPDEST JUMP JUMPDEST SWAP1 SWAP4 SWAP2 POP PUSH1 0x0 MSTORE PUSH1 0x20 SWAP1 DUP2 PUSH1 0x0 KECCAK256 SWAP4 PUSH1 0x0 SWAP2 JUMPDEST DUP2 DUP4 LT PUSH2 0x4BF8 JUMPI POP POP PUSH2 0x4BCB SWAP4 POP DUP3 ADD ADD CODESIZE DUP1 PUSH2 0x4BBD JUMP JUMPDEST DUP6 SLOAD DUP9 DUP5 ADD DUP6 ADD MSTORE SWAP5 DUP6 ADD SWAP5 DUP8 SWAP5 POP SWAP2 DUP4 ADD SWAP2 PUSH2 0x4BE0 JUMP JUMPDEST SWAP2 POP POP PUSH2 0x4BCB SWAP5 POP PUSH1 0x20 SWAP3 POP PUSH1 0xFF NOT AND DUP3 DUP5 ADD MSTORE ISZERO ISZERO PUSH1 0x5 SHL DUP3 ADD ADD CODESIZE DUP1 PUSH2 0x4BBD JUMP JUMPDEST PUSH1 0x0 SLOAD PUSH1 0x1 PUSH1 0x1 PUSH1 0xA0 SHL SUB AND CALLER SUB PUSH2 0x4C47 JUMPI JUMP JUMPDEST PUSH1 0x40 MLOAD PUSH4 0x118CDAA7 PUSH1 0xE0 SHL DUP2 MSTORE CALLER PUSH1 0x4 DUP3 ADD MSTORE PUSH1 0x24 SWAP1 REVERT JUMPDEST ISZERO PUSH2 0x4C66 JUMPI JUMP JUMPDEST PUSH1 0x40 MLOAD PUSH3 0x461BCD PUSH1 0xE5 SHL DUP2 MSTORE PUSH1 0x20 PUSH1 0x4 DUP3 ADD MSTORE PUSH1 0x21 PUSH1 0x24 DUP3 ADD MSTORE PUSH32 0x4D61726B65744D616E616765723A2057616C6C657420626C61636B6C69737465 PUSH1 0x44 DUP3 ADD MSTORE PUSH1 0x19 PUSH1 0xFA SHL PUSH1 0x64 DUP3 ADD MSTORE PUSH1 0x84 SWAP1 REVERT JUMPDEST ISZERO PUSH2 0x4CBC JUMPI JUMP JUMPDEST PUSH1 0x40 MLOAD PUSH3 0x461BCD PUSH1 0xE5 SHL DUP2 MSTORE PUSH1 0x20 PUSH1 0x4 DUP3 ADD MSTORE PUSH1 0x22 PUSH1 0x24 DUP3 ADD MSTORE PUSH1 0x0 DUP1 MLOAD PUSH1 0x20 PUSH2 0x5E07 DUP4 CODECOPY DUP2 MLOAD SWAP2 MSTORE PUSH1 0x44 DUP3 ADD MSTORE PUSH2 0x1959 PUSH1 0xF2 SHL PUSH1 0x64 DUP3 ADD MSTORE PUSH1 0x84 SWAP1 REVERT JUMPDEST DUP2 DUP2 MUL SWAP3 SWAP2 DUP2 ISZERO SWAP2 DUP5 DIV EQ OR ISZERO PUSH2 0x4D0D JUMPI JUMP JUMPDEST PUSH4 0x4E487B71 PUSH1 0xE0 SHL PUSH1 0x0 MSTORE PUSH1 0x11 PUSH1 0x4 MSTORE PUSH1 0x24 PUSH1 0x0 REVERT JUMPDEST SWAP2 SWAP1 DUP3 ADD DUP1 SWAP3 GT PUSH2 0x4D0D JUMPI JUMP JUMPDEST PUSH1 0x0 NOT DUP2 EQ PUSH2 0x4D0D JUMPI PUSH1 0x1 ADD SWAP1 JUMP JUMPDEST PUSH1 0x5 DUP3 LT ISZERO PUSH2 0x494B JUMPI MSTORE JUMP JUMPDEST DUP2 DUP2 LT PUSH2 0x4D56 JUMPI POP POP JUMP JUMPDEST PUSH1 0x0 DUP2 SSTORE PUSH1 0x1 ADD PUSH2 0x4D4B JUMP JUMPDEST SWAP1 PUSH1 0xFF DUP1 NOT DUP4 SLOAD AND SWAP2 ISZERO ISZERO AND OR SWAP1 SSTORE JUMP JUMPDEST DUP1 SLOAD SWAP2 SWAP1 PUSH1 0x1 PUSH1 0x40 SHL DUP4 LT ISZERO PUSH2 0x31C5 JUMPI DUP3 PUSH2 0x2E0A SWAP2 PUSH1 0x1 PUSH2 0x4BCB SWAP6 ADD DUP2 SSTORE PUSH2 0x48AB JUMP JUMPDEST RETURNDATASIZE ISZERO PUSH2 0x4DC1 JUMPI RETURNDATASIZE SWAP1 PUSH2 0x4DA7 DUP3 PUSH2 0x4ACC JUMP JUMPDEST SWAP2 PUSH2 0x4DB5 PUSH1 0x40 MLOAD SWAP4 DUP5 PUSH2 0x4AA9 JUMP JUMPDEST DUP3 MSTORE RETURNDATASIZE PUSH1 0x0 PUSH1 0x20 DUP5 ADD RETURNDATACOPY JUMP JUMPDEST PUSH1 0x60 SWAP1 JUMP JUMPDEST ISZERO PUSH2 0x4DCD JUMPI JUMP JUMPDEST PUSH1 0x40 MLOAD PUSH3 0x461BCD PUSH1 0xE5 SHL DUP2 MSTORE PUSH1 0x20 PUSH1 0x4 DUP3 ADD MSTORE PUSH1 0x2B PUSH1 0x24 DUP3 ADD MSTORE PUSH32 0x4D61726B65744D616E616765723A20466565207472616E7366657220746F206F PUSH1 0x44 DUP3 ADD MSTORE PUSH11 0x1DDB995C8819985A5B1959 PUSH1 0xAA SHL PUSH1 0x64 DUP3 ADD MSTORE PUSH1 0x84 SWAP1 REVERT JUMPDEST SWAP1 DUP2 MSTORE PUSH1 0x1 PUSH1 0x1 PUSH1 0xA0 SHL SUB SWAP2 DUP3 AND PUSH1 0x20 DUP3 ADD MSTORE SWAP2 AND PUSH1 0x40 DUP3 ADD MSTORE PUSH1 0x60 DUP2 ADD SWAP2 SWAP1 SWAP2 MSTORE PUSH1 0x80 DUP2 ADD SWAP2 SWAP1 SWAP2 MSTORE PUSH1 0xA0 ADD SWAP1 JUMP JUMPDEST SWAP1 DUP2 MSTORE PUSH1 0x1 PUSH1 0x1 PUSH1 0xA0 SHL SUB SWAP1 SWAP2 AND PUSH1 0x20 DUP3 ADD MSTORE PUSH1 0x40 ADD SWAP1 JUMP JUMPDEST SWAP1 SWAP5 SWAP4 SWAP3 PUSH1 0x60 SWAP3 PUSH1 0x80 DUP4 ADD SWAP7 DUP4 MSTORE PUSH1 0x1 DUP1 PUSH1 0xA0 SHL SUB AND PUSH1 0x20 DUP4 ADD MSTORE PUSH1 0x40 DUP3 ADD MSTORE ADD MSTORE JUMP JUMPDEST PUSH1 0x1 PUSH1 0x1 PUSH1 0xA0 SHL SUB SWAP2 DUP3 AND DUP2 MSTORE SWAP2 AND PUSH1 0x20 DUP3 ADD MSTORE PUSH1 0x40 DUP2 ADD SWAP2 SWAP1 SWAP2 MSTORE PUSH1 0x60 ADD SWAP1 JUMP JUMPDEST SWAP3 SWAP1 PUSH1 0x0 SWAP2 PUSH2 0x4EEE PUSH1 0x20 SWAP5 PUSH2 0x4EE0 PUSH1 0x40 MLOAD SWAP4 DUP5 SWAP3 DUP9 DUP5 ADD SWAP7 PUSH4 0x23B872DD PUSH1 0xE0 SHL DUP9 MSTORE PUSH1 0x24 DUP6 ADD PUSH2 0x4E93 JUMP JUMPDEST SUB PUSH1 0x1F NOT DUP2 ADD DUP4 MSTORE DUP3 PUSH2 0x4AA9 JUMP JUMPDEST MLOAD SWAP1 DUP3 DUP6 GAS CALL ISZERO PUSH2 0x4F41 JUMPI PUSH1 0x0 MLOAD RETURNDATASIZE PUSH2 0x4F38 JUMPI POP PUSH1 0x1 PUSH1 0x1 PUSH1 0xA0 SHL SUB DUP2 AND EXTCODESIZE ISZERO JUMPDEST PUSH2 0x4F16 JUMPI POP JUMP JUMPDEST PUSH1 0x40 MLOAD PUSH4 0x5274AFE7 PUSH1 0xE0 SHL DUP2 MSTORE PUSH1 0x1 PUSH1 0x1 PUSH1 0xA0 SHL SUB SWAP1 SWAP2 AND PUSH1 0x4 DUP3 ADD MSTORE PUSH1 0x24 SWAP1 REVERT JUMPDEST PUSH1 0x1 EQ ISZERO PUSH2 0x4F0F JUMP JUMPDEST PUSH1 0x40 MLOAD RETURNDATASIZE PUSH1 0x0 DUP3 RETURNDATACOPY RETURNDATASIZE SWAP1 REVERT JUMPDEST ISZERO PUSH2 0x4F54 JUMPI JUMP JUMPDEST PUSH1 0x64 PUSH1 0x40 MLOAD PUSH3 0x461BCD PUSH1 0xE5 SHL DUP2 MSTORE PUSH1 0x20 PUSH1 0x4 DUP3 ADD MSTORE PUSH1 0x20 PUSH1 0x24 DUP3 ADD MSTORE PUSH32 0x4D61726B65744D616E616765723A204D61726B6574206E6F7420616374697665 PUSH1 0x44 DUP3 ADD MSTORE REVERT JUMPDEST SWAP2 SWAP1 DUP3 SUB SWAP2 DUP3 GT PUSH2 0x4D0D JUMPI JUMP JUMPDEST ISZERO PUSH2 0x4FAC JUMPI JUMP JUMPDEST PUSH1 0x40 MLOAD PUSH3 0x461BCD PUSH1 0xE5 SHL DUP2 MSTORE PUSH1 0x20 PUSH1 0x4 DUP3 ADD MSTORE PUSH1 0x4D PUSH1 0x24 DUP3 ADD MSTORE PUSH32 0x4D61726B65744D616E616765723A205374616B696E6720706572696F6420656E PUSH1 0x44 DUP3 ADD MSTORE PUSH32 0x646564202D206E6F207374616B657320616C6C6F77656420696E207265737472 PUSH1 0x64 DUP3 ADD MSTORE PUSH13 0x1A58DD1A5BDB881C195C9A5BD9 PUSH1 0x9A SHL PUSH1 0x84 DUP3 ADD MSTORE PUSH1 0xA4 SWAP1 REVERT JUMPDEST ISZERO PUSH2 0x5034 JUMPI JUMP JUMPDEST PUSH1 0x40 MLOAD PUSH3 0x461BCD PUSH1 0xE5 SHL DUP2 MSTORE PUSH1 0x20 PUSH1 0x4 DUP3 ADD MSTORE PUSH1 0x1D PUSH1 0x24 DUP3 ADD MSTORE PUSH32 0x4D61726B65744D616E616765723A20496E76616C6964206F7074696F6E000000 PUSH1 0x44 DUP3 ADD MSTORE PUSH1 0x64 SWAP1 REVERT JUMPDEST ISZERO PUSH2 0x5080 JUMPI JUMP JUMPDEST PUSH1 0x40 MLOAD PUSH3 0x461BCD PUSH1 0xE5 SHL DUP2 MSTORE PUSH1 0x20 PUSH1 0x4 DUP3 ADD MSTORE PUSH1 0x22 PUSH1 0x24 DUP3 ADD MSTORE PUSH1 0x0 DUP1 MLOAD PUSH1 0x20 PUSH2 0x5E47 DUP4 CODECOPY DUP2 MLOAD SWAP2 MSTORE PUSH1 0x44 DUP3 ADD MSTORE PUSH2 0x6B65 PUSH1 0xF0 SHL PUSH1 0x64 DUP3 ADD MSTORE PUSH1 0x84 SWAP1 REVERT JUMPDEST DUP1 SLOAD SWAP2 SWAP1 PUSH1 0x1 PUSH1 0x40 SHL DUP4 LT ISZERO PUSH2 0x31C5 JUMPI DUP3 PUSH2 0x2161 SWAP2 PUSH1 0x1 PUSH2 0x4BCB SWAP6 ADD DUP2 SSTORE PUSH2 0x48AB JUMP JUMPDEST ISZERO PUSH2 0x50E8 JUMPI JUMP JUMPDEST PUSH1 0x40 MLOAD PUSH3 0x461BCD PUSH1 0xE5 SHL DUP2 MSTORE PUSH1 0x20 PUSH1 0x4 DUP3 ADD MSTORE PUSH1 0x34 PUSH1 0x24 DUP3 ADD MSTORE PUSH32 0x4D61726B65744D616E616765723A20537570706F727420616D6F756E74206D75 PUSH1 0x44 DUP3 ADD MSTORE PUSH20 0x73742062652067726561746572207468616E203 PUSH1 0x64 SHL PUSH1 0x64 DUP3 ADD MSTORE PUSH1 0x84 SWAP1 REVERT JUMPDEST SWAP1 DUP2 MSTORE PUSH1 0x1 PUSH1 0x1 PUSH1 0xA0 SHL SUB SWAP2 DUP3 AND PUSH1 0x20 DUP3 ADD MSTORE SWAP2 AND PUSH1 0x40 DUP3 ADD MSTORE PUSH1 0x60 DUP2 ADD SWAP2 SWAP1 SWAP2 MSTORE PUSH1 0x80 ADD SWAP1 JUMP JUMPDEST ISZERO PUSH2 0x5179 JUMPI JUMP JUMPDEST PUSH1 0x40 MLOAD PUSH3 0x461BCD PUSH1 0xE5 SHL DUP2 MSTORE PUSH1 0x20 PUSH1 0x4 DUP3 ADD MSTORE PUSH1 0x25 PUSH1 0x24 DUP3 ADD MSTORE PUSH32 0x4D61726B65744D616E616765723A204E6F20737570706F727420746F20776974 PUSH1 0x44 DUP3 ADD MSTORE PUSH5 0x6864726177 PUSH1 0xD8 SHL PUSH1 0x64 DUP3 ADD MSTORE PUSH1 0x84 SWAP1 REVERT JUMPDEST SWAP1 DUP2 MSTORE PUSH1 0x1 PUSH1 0x1 PUSH1 0xA0 SHL SUB SWAP2 DUP3 AND PUSH1 0x20 DUP3 ADD MSTORE SWAP2 AND PUSH1 0x40 DUP3 ADD MSTORE PUSH1 0x60 ADD SWAP1 JUMP JUMPDEST ISZERO PUSH2 0x51F3 JUMPI JUMP JUMPDEST PUSH1 0x40 MLOAD PUSH3 0x461BCD PUSH1 0xE5 SHL DUP2 MSTORE PUSH1 0x20 PUSH1 0x4 DUP3 ADD MSTORE PUSH1 0x28 PUSH1 0x24 DUP3 ADD MSTORE PUSH32 0x4D61726B65744D616E616765723A204D61726B6574206E6F7420696E20656E64 PUSH1 0x44 DUP3 ADD MSTORE PUSH8 0x6564207374617465 PUSH1 0xC0 SHL PUSH1 0x64 DUP3 ADD MSTORE PUSH1 0x84 SWAP1 REVERT JUMPDEST ISZERO PUSH2 0x5250 JUMPI JUMP JUMPDEST PUSH1 0x40 MLOAD PUSH3 0x461BCD PUSH1 0xE5 SHL DUP2 MSTORE PUSH1 0x20 PUSH1 0x4 DUP3 ADD MSTORE PUSH1 0x1F PUSH1 0x24 DUP3 ADD MSTORE PUSH32 0x4D61726B65744D616E616765723A20416C7265616479207265736F6C76656400 PUSH1 0x44 DUP3 ADD MSTORE PUSH1 0x64 SWAP1 REVERT JUMPDEST PUSH1 0x40 MLOAD SWAP1 PUSH2 0x52A2 DUP3 PUSH2 0x4A8E JUMP JUMPDEST PUSH1 0x19 DUP3 MSTORE PUSH25 0x14995CDBDB1D5D1A5BDB881C195C9A5BD908195E1C1A5C9959 PUSH1 0x3A SHL PUSH1 0x20 DUP4 ADD MSTORE JUMP JUMPDEST MLOAD SWAP1 DUP2 ISZERO ISZERO DUP3 SUB PUSH2 0x1022 JUMPI JUMP JUMPDEST SWAP2 SWAP1 DUP3 PUSH1 0x40 SWAP2 SUB SLT PUSH2 0x1022 JUMPI PUSH1 0x20 PUSH2 0x52EE DUP4 PUSH2 0x52CA JUMP JUMPDEST SWAP3 ADD MLOAD SWAP1 JUMP JUMPDEST SWAP1 PUSH1 0x0 DUP3 DUP2 MSTORE PUSH1 0x1 PUSH1 0x20 MSTORE PUSH1 0x40 SWAP1 DUP2 DUP2 KECCAK256 PUSH1 0xC DUP2 ADD PUSH1 0xFF DUP2 SLOAD AND PUSH1 0x5 DUP2 LT ISZERO PUSH2 0x10F3 JUMPI PUSH1 0x1 PUSH2 0x5323 SWAP2 EQ PUSH2 0x51EC JUMP JUMPDEST DUP5 ISZERO ISZERO DUP1 PUSH2 0x5557 JUMPI JUMPDEST ISZERO PUSH2 0x5505 JUMPI PUSH1 0xE DUP3 ADD PUSH2 0x5343 PUSH1 0xFF DUP3 SLOAD AND ISZERO PUSH2 0x5249 JUMP JUMPDEST PUSH1 0xB DUP4 ADD SLOAD TIMESTAMP LT ISZERO PUSH2 0x54F3 JUMPI PUSH1 0xC SLOAD DUP6 MLOAD PUSH4 0x33138655 PUSH1 0xE2 SHL DUP2 MSTORE PUSH1 0x4 DUP2 ADD DUP10 SWAP1 MSTORE PUSH1 0x1 PUSH1 0x1 PUSH1 0xA0 SHL SUB SWAP5 SWAP2 DUP8 SWAP1 DUP3 SWAP1 PUSH1 0x24 SWAP1 DUP3 SWAP1 DUP10 AND GAS STATICCALL DUP1 ISZERO PUSH2 0x54E9 JUMPI DUP9 SWAP1 DUP8 SWAP3 DUP9 SWAP2 PUSH2 0x54C6 JUMPI JUMPDEST POP DUP3 PUSH2 0x54BC JUMPI JUMPDEST POP POP ISZERO PUSH2 0x5455 JUMPI PUSH1 0xD ADD DUP7 SWAP1 SSTORE DUP1 SLOAD PUSH1 0xFF NOT SWAP1 DUP2 AND PUSH1 0x1 OR SWAP1 SWAP2 SSTORE DUP2 SLOAD AND PUSH1 0x2 OR SWAP1 SSTORE PUSH2 0x53C0 DUP6 PUSH2 0x5744 JUMP JUMPDEST PUSH1 0xD SLOAD AND DUP1 PUSH2 0x53E6 JUMPI JUMPDEST POP POP PUSH1 0x0 DUP1 MLOAD PUSH1 0x20 PUSH2 0x5EA7 DUP4 CODECOPY DUP2 MLOAD SWAP2 MSTORE SWAP2 PUSH1 0x20 SWAP2 MLOAD SWAP1 DUP2 MSTORE LOG2 JUMP JUMPDEST DUP1 EXTCODESIZE ISZERO PUSH2 0x5EB JUMPI DUP2 DUP1 SWAP2 PUSH1 0x44 DUP6 MLOAD DUP1 SWAP6 DUP2 SWAP4 PUSH3 0xFF4A73 PUSH1 0xE8 SHL DUP4 MSTORE DUP11 PUSH1 0x4 DUP5 ADD MSTORE DUP10 PUSH1 0x24 DUP5 ADD MSTORE GAS CALL SWAP1 DUP2 ISZERO PUSH2 0x544A JUMPI POP SWAP2 PUSH1 0x0 DUP1 MLOAD PUSH1 0x20 PUSH2 0x5EA7 DUP4 CODECOPY DUP2 MLOAD SWAP2 MSTORE SWAP4 SWAP2 PUSH1 0x20 SWAP4 PUSH2 0x543B JUMPI JUMPDEST POP SWAP2 DUP2 SWAP4 POP PUSH2 0x53CA JUMP JUMPDEST PUSH2 0x5444 SWAP1 PUSH2 0x4A5F JUMP JUMPDEST CODESIZE PUSH2 0x5431 JUMP JUMPDEST DUP4 MLOAD SWAP1 RETURNDATASIZE SWAP1 DUP3 RETURNDATACOPY RETURNDATASIZE SWAP1 REVERT JUMPDEST DUP6 MLOAD PUSH3 0x461BCD PUSH1 0xE5 SHL DUP2 MSTORE PUSH1 0x20 PUSH1 0x4 DUP3 ADD MSTORE PUSH1 0x3A PUSH1 0x24 DUP3 ADD MSTORE PUSH32 0x4D61726B65744D616E616765723A20496E73756666696369656E742076657269 PUSH1 0x44 DUP3 ADD MSTORE PUSH26 0x3334B2B9103B37BA32B9903337B9103A3434B99037B83A34B7B7 PUSH1 0x31 SHL PUSH1 0x64 DUP3 ADD MSTORE PUSH1 0x84 SWAP1 REVERT JUMPDEST EQ SWAP1 POP DUP8 CODESIZE PUSH2 0x5394 JUMP JUMPDEST SWAP1 POP PUSH2 0x54E0 SWAP2 SWAP3 POP DUP9 RETURNDATASIZE DUP11 GT PUSH2 0x1C62 JUMPI PUSH2 0x1C52 DUP2 DUP4 PUSH2 0x4AA9 JUMP JUMPDEST SWAP2 SWAP1 SWAP2 CODESIZE PUSH2 0x538D JUMP JUMPDEST DUP8 MLOAD RETURNDATASIZE DUP9 DUP3 RETURNDATACOPY RETURNDATASIZE SWAP1 REVERT JUMPDEST POP POP POP POP POP POP PUSH2 0x4BCB SWAP1 PUSH2 0x2026 PUSH2 0x5295 JUMP JUMPDEST DUP4 MLOAD PUSH3 0x461BCD PUSH1 0xE5 SHL DUP2 MSTORE PUSH1 0x20 PUSH1 0x4 DUP3 ADD MSTORE PUSH1 0x25 PUSH1 0x24 DUP3 ADD MSTORE PUSH32 0x4D61726B65744D616E616765723A20496E76616C69642077696E6E696E67206F PUSH1 0x44 DUP3 ADD MSTORE PUSH5 0x383A34B7B7 PUSH1 0xD9 SHL PUSH1 0x64 DUP3 ADD MSTORE PUSH1 0x84 SWAP1 REVERT JUMPDEST POP PUSH1 0x3 DUP3 ADD SLOAD DUP6 GT ISZERO PUSH2 0x532C JUMP JUMPDEST ISZERO PUSH2 0x556C JUMPI JUMP JUMPDEST PUSH1 0x40 MLOAD PUSH3 0x461BCD PUSH1 0xE5 SHL DUP2 MSTORE PUSH1 0x20 PUSH1 0x4 DUP3 ADD MSTORE PUSH1 0x22 PUSH1 0x24 DUP3 ADD MSTORE PUSH32 0x4D61726B65744D616E616765723A204D61726B6574206E6F74207265736F6C76 PUSH1 0x44 DUP3 ADD MSTORE PUSH2 0x1959 PUSH1 0xF2 SHL PUSH1 0x64 DUP3 ADD MSTORE PUSH1 0x84 SWAP1 REVERT JUMPDEST ISZERO PUSH2 0x55C3 JUMPI JUMP JUMPDEST PUSH1 0x64 PUSH1 0x40 MLOAD PUSH3 0x461BCD PUSH1 0xE5 SHL DUP2 MSTORE PUSH1 0x20 PUSH1 0x4 DUP3 ADD MSTORE PUSH1 0x20 PUSH1 0x24 DUP3 ADD MSTORE PUSH32 0x4D61726B65744D616E616765723A204E6F2077696E6E696E67206F7074696F6E PUSH1 0x44 DUP3 ADD MSTORE REVERT JUMPDEST ISZERO PUSH2 0x560E JUMPI JUMP JUMPDEST PUSH1 0x40 MLOAD PUSH3 0x461BCD PUSH1 0xE5 SHL DUP2 MSTORE PUSH1 0x20 PUSH1 0x4 DUP3 ADD MSTORE PUSH1 0x1E PUSH1 0x24 DUP3 ADD MSTORE PUSH32 0x4D61726B65744D616E616765723A204E6F207374616B6520706C616365640000 PUSH1 0x44 DUP3 ADD MSTORE PUSH1 0x64 SWAP1 REVERT JUMPDEST ISZERO PUSH2 0x565A JUMPI JUMP JUMPDEST PUSH1 0x40 MLOAD PUSH3 0x461BCD PUSH1 0xE5 SHL DUP2 MSTORE PUSH1 0x20 PUSH1 0x4 DUP3 ADD MSTORE PUSH1 0x1E PUSH1 0x24 DUP3 ADD MSTORE PUSH32 0x4D61726B65744D616E616765723A20416C726561647920636C61696D65640000 PUSH1 0x44 DUP3 ADD MSTORE PUSH1 0x64 SWAP1 REVERT JUMPDEST SWAP1 DUP2 MSTORE PUSH1 0x20 DUP2 ADD SWAP2 SWAP1 SWAP2 MSTORE PUSH1 0x1 PUSH1 0x1 PUSH1 0xA0 SHL SUB SWAP1 SWAP2 AND PUSH1 0x40 DUP3 ADD MSTORE PUSH1 0x60 ADD SWAP1 JUMP JUMPDEST DUP2 ISZERO PUSH2 0x56CA JUMPI DIV SWAP1 JUMP JUMPDEST PUSH4 0x4E487B71 PUSH1 0xE0 SHL PUSH1 0x0 MSTORE PUSH1 0x12 PUSH1 0x4 MSTORE PUSH1 0x24 PUSH1 0x0 REVERT JUMPDEST SWAP1 PUSH2 0x5724 PUSH1 0x0 DUP1 MLOAD PUSH1 0x20 PUSH2 0x5DC7 DUP4 CODECOPY DUP2 MLOAD SWAP2 MSTORE SWAP2 DUP4 PUSH1 0x0 MSTORE PUSH1 0x1 PUSH1 0x20 MSTORE PUSH1 0xC PUSH1 0x40 PUSH1 0x0 KECCAK256 ADD PUSH1 0x3 PUSH1 0xFF NOT DUP3 SLOAD AND OR SWAP1 SSTORE PUSH1 0x40 MLOAD SWAP2 DUP3 SWAP2 PUSH1 0x20 DUP4 MSTORE PUSH1 0x20 DUP4 ADD SWAP1 PUSH2 0x48FE JUMP JUMPDEST SUB SWAP1 LOG2 JUMP JUMPDEST PUSH1 0x1 PUSH1 0x1 PUSH1 0xA0 SHL SUB SWAP1 SWAP2 AND DUP2 MSTORE PUSH1 0x20 DUP2 ADD SWAP2 SWAP1 SWAP2 MSTORE PUSH1 0x40 ADD SWAP1 JUMP JUMPDEST PUSH1 0x0 SWAP1 DUP1 DUP3 MSTORE PUSH1 0x20 SWAP1 PUSH1 0x1 DUP3 MSTORE PUSH1 0x40 SWAP2 DUP3 DUP5 KECCAK256 SWAP2 DUP5 SWAP2 PUSH1 0x1 SWAP1 DUP6 PUSH1 0x3 DUP7 ADD SLOAD SWAP4 PUSH1 0xD DUP8 ADD SLOAD SWAP5 JUMPDEST DUP1 DUP6 GT ISZERO PUSH2 0x5A9D JUMPI POP PUSH1 0xB SLOAD PUSH1 0x4 DUP1 DUP10 ADD DUP1 SLOAD SWAP5 MLOAD PUSH4 0x4F44289D PUSH1 0xE0 SHL DUP2 MSTORE PUSH1 0x1 PUSH1 0x1 PUSH1 0xA0 SHL SUB SWAP11 SWAP2 SWAP10 SWAP3 SWAP9 SWAP6 DUP12 AND SWAP8 POP SWAP5 SWAP3 DUP11 AND SWAP4 SWAP1 SWAP3 SWAP1 SWAP2 DUP7 DUP7 DUP1 PUSH2 0x57B5 DUP12 DUP8 DUP4 DUP16 ADD PUSH2 0x4E56 JUMP JUMPDEST SUB DUP2 DUP9 GAS STATICCALL SWAP6 DUP7 ISZERO PUSH2 0x5A93 JUMPI SWAP2 DUP9 SWAP2 DUP9 SWAP4 DUP16 SWAP9 PUSH2 0x5A51 JUMPI JUMPDEST POP PUSH2 0x57F6 SWAP8 PUSH2 0x57DB SWAP2 PUSH2 0x4D23 JUMP JUMPDEST POP DUP13 MLOAD PUSH4 0xDC4CE349 PUSH1 0xE0 SHL DUP2 MSTORE SWAP7 DUP8 SWAP3 DUP4 SWAP3 DUP7 DUP14 DUP6 ADD PUSH2 0x569F JUMP JUMPDEST SUB DUP2 DUP7 GAS STATICCALL SWAP4 DUP5 ISZERO PUSH2 0x5A0C JUMPI DUP6 SWAP2 DUP8 SWAP2 DUP14 SWAP7 PUSH2 0x5A16 JUMPI JUMPDEST POP DUP12 MLOAD PUSH4 0x3D1E7BA1 PUSH1 0xE1 SHL DUP2 MSTORE SWAP3 SWAP2 DUP4 SWAP2 DUP3 SWAP2 PUSH2 0x582C SWAP2 DUP13 DUP5 ADD PUSH2 0x4E56 JUMP JUMPDEST SUB DUP2 DUP7 GAS STATICCALL SWAP5 DUP6 ISZERO PUSH2 0x5A0C JUMPI DUP12 SWAP6 PUSH2 0x59D8 JUMPI JUMPDEST POP POP PUSH2 0x1F4 SWAP3 DUP4 DUP6 MUL SWAP6 DUP6 ISZERO SWAP5 DUP7 DUP9 DIV EQ DUP6 OR ISZERO PUSH2 0x59C5 JUMPI PUSH2 0x2710 DUP1 SWAP8 DIV SWAP4 DUP11 DUP6 ISZERO ISZERO SWAP5 DUP6 PUSH2 0x595F JUMPI JUMPDEST POP POP POP POP ISZERO PUSH1 0x0 EQ PUSH2 0x5919 JUMPI POP POP PUSH2 0x251C DUP1 DUP4 MUL SWAP3 DUP4 DIV EQ OR ISZERO PUSH2 0x5906 JUMPI DIV SWAP3 DUP4 PUSH2 0x5897 JUMPI JUMPDEST POP POP POP POP POP POP JUMP JUMPDEST DUP1 PUSH1 0xB SLOAD AND SWAP3 SLOAD AND SWAP1 DUP3 EXTCODESIZE ISZERO PUSH2 0x5902 JUMPI SWAP2 DUP5 SWAP4 SWAP2 DUP7 DUP1 SWAP5 PUSH2 0x58CB SWAP8 MLOAD SWAP8 DUP9 SWAP6 DUP7 SWAP5 DUP6 SWAP4 PUSH4 0xF0824F33 PUSH1 0xE0 SHL DUP6 MSTORE DUP5 ADD PUSH2 0x5729 JUMP JUMPDEST SUB SWAP3 GAS CALL SWAP1 DUP2 ISZERO PUSH2 0x58F9 JUMPI POP PUSH2 0x58E5 JUMPI JUMPDEST DUP1 DUP1 DUP1 DUP1 PUSH2 0x588F JUMP JUMPDEST PUSH2 0x58EF DUP3 SWAP2 PUSH2 0x4A5F JUMP JUMPDEST PUSH2 0x35C JUMPI DUP1 PUSH2 0x58DC JUMP JUMPDEST MLOAD RETURNDATASIZE DUP5 DUP3 RETURNDATACOPY RETURNDATASIZE SWAP1 REVERT JUMPDEST DUP6 DUP1 REVERT JUMPDEST PUSH4 0x4E487B71 PUSH1 0xE0 SHL DUP8 MSTORE PUSH1 0x11 DUP4 MSTORE PUSH1 0x24 DUP8 REVERT JUMPDEST SWAP3 POP SWAP6 SWAP3 POP POP PUSH2 0x592B JUMPI POP POP POP POP POP POP JUMP JUMPDEST DUP1 PUSH1 0xB SLOAD AND SWAP3 SLOAD AND SWAP1 DUP3 EXTCODESIZE ISZERO PUSH2 0x5902 JUMPI SWAP2 DUP5 SWAP4 SWAP2 DUP7 DUP1 SWAP5 PUSH2 0x58CB SWAP8 MLOAD SWAP8 DUP9 SWAP6 DUP7 SWAP5 DUP6 SWAP4 PUSH4 0x48FEF595 PUSH1 0xE0 SHL DUP6 MSTORE DUP5 ADD PUSH2 0x5729 JUMP JUMPDEST SLOAD AND DUP2 EXTCODESIZE ISZERO PUSH2 0x59C1 JUMPI SWAP2 DUP14 SWAP2 DUP7 SWAP4 DUP4 DUP16 PUSH2 0x598D DUP15 SWAP2 MLOAD SWAP8 DUP9 SWAP7 DUP8 SWAP6 DUP7 SWAP5 PUSH4 0x112CD223 PUSH1 0xE0 SHL DUP7 MSTORE DUP6 ADD PUSH2 0x4E93 JUMP JUMPDEST SUB SWAP3 GAS CALL DUP1 ISZERO PUSH2 0x59B7 JUMPI PUSH2 0x59A4 JUMPI JUMPDEST DUP1 DUP11 DUP2 PUSH2 0x5869 JUMP JUMPDEST PUSH2 0x59B0 SWAP1 SWAP12 SWAP2 SWAP12 PUSH2 0x4A5F JUMP JUMPDEST SWAP10 CODESIZE PUSH2 0x599C JUMP JUMPDEST DUP12 MLOAD RETURNDATASIZE DUP15 DUP3 RETURNDATACOPY RETURNDATASIZE SWAP1 REVERT JUMPDEST DUP14 DUP1 REVERT JUMPDEST PUSH4 0x4E487B71 PUSH1 0xE0 SHL DUP13 MSTORE PUSH1 0x11 DUP9 MSTORE PUSH1 0x24 DUP13 REVERT JUMPDEST SWAP1 DUP1 SWAP3 SWAP6 POP DUP2 RETURNDATASIZE DUP4 GT PUSH2 0x5A05 JUMPI JUMPDEST PUSH2 0x59F0 DUP2 DUP4 PUSH2 0x4AA9 JUMP JUMPDEST DUP2 ADD SUB SLT PUSH2 0x5A01 JUMPI MLOAD SWAP3 CODESIZE DUP1 PUSH2 0x583F JUMP JUMPDEST DUP10 DUP1 REVERT JUMPDEST POP RETURNDATASIZE PUSH2 0x59E6 JUMP JUMPDEST DUP11 MLOAD RETURNDATASIZE DUP14 DUP3 RETURNDATACOPY RETURNDATASIZE SWAP1 REVERT JUMPDEST SWAP3 DUP4 SWAP2 SWAP7 POP DUP1 SWAP3 POP RETURNDATASIZE DUP4 GT PUSH2 0x5A4A JUMPI JUMPDEST PUSH2 0x5A30 DUP2 DUP4 PUSH2 0x4AA9 JUMP JUMPDEST DUP2 ADD SUB SLT PUSH2 0x5A46 JUMPI MLOAD SWAP3 DUP5 SWAP1 DUP7 SWAP1 PUSH2 0x582C PUSH2 0x580D JUMP JUMPDEST DUP11 DUP1 REVERT JUMPDEST POP RETURNDATASIZE PUSH2 0x5A26 JUMP JUMPDEST SWAP3 POP SWAP3 SWAP1 SWAP4 SWAP5 SWAP6 SWAP7 POP DUP2 DUP2 RETURNDATASIZE DUP4 GT PUSH2 0x5A8C JUMPI JUMPDEST PUSH2 0x5A6E DUP2 DUP4 PUSH2 0x4AA9 JUMP JUMPDEST DUP2 ADD SUB SLT PUSH2 0x5A88 JUMPI MLOAD SWAP5 SWAP4 SWAP3 SWAP2 DUP7 SWAP2 DUP9 SWAP2 SWAP1 PUSH2 0x57DB PUSH2 0x57CD JUMP JUMPDEST DUP13 DUP1 REVERT JUMPDEST POP RETURNDATASIZE PUSH2 0x5A64 JUMP JUMPDEST DUP13 MLOAD RETURNDATASIZE DUP16 DUP3 RETURNDATACOPY RETURNDATASIZE SWAP1 REVERT JUMPDEST SWAP2 POP SWAP2 SWAP3 DUP5 DUP2 SUB PUSH2 0x5ABB JUMPI JUMPDEST PUSH2 0x5AB2 SWAP1 PUSH2 0x4D30 JUMP JUMPDEST SWAP3 SWAP2 DUP8 SWAP2 PUSH2 0x576B JUMP JUMPDEST SWAP5 DUP8 DUP5 DUP8 PUSH1 0x1 DUP1 PUSH1 0xA0 SHL SUB DUP7 DUP12 PUSH2 0x5AF2 DUP4 PUSH1 0xB SLOAD AND SWAP4 PUSH1 0x4 DUP1 SWAP4 ADD SLOAD AND SWAP7 MLOAD SWAP7 DUP8 SWAP6 DUP7 SWAP5 DUP6 SWAP5 PUSH4 0xDC4CE349 PUSH1 0xE0 SHL DUP7 MSTORE DUP6 ADD PUSH2 0x569F JUMP JUMPDEST SUB SWAP2 GAS STATICCALL SWAP1 DUP2 ISZERO PUSH2 0x5B49 JUMPI DUP11 SWAP2 PUSH2 0x5B1A JUMPI JUMPDEST POP PUSH2 0x5B12 SWAP1 PUSH2 0x5AB2 SWAP3 PUSH2 0x4D23 JUMP JUMPDEST SWAP6 SWAP1 POP PUSH2 0x5AA9 JUMP JUMPDEST SWAP1 POP DUP5 DUP2 DUP2 RETURNDATASIZE DUP4 GT PUSH2 0x5B42 JUMPI JUMPDEST PUSH2 0x5B31 DUP2 DUP4 PUSH2 0x4AA9 JUMP JUMPDEST DUP2 ADD SUB SLT PUSH2 0x5A01 JUMPI MLOAD PUSH2 0x5AB2 PUSH2 0x5B04 JUMP JUMPDEST POP RETURNDATASIZE PUSH2 0x5B27 JUMP JUMPDEST DUP10 MLOAD RETURNDATASIZE DUP13 DUP3 RETURNDATACOPY RETURNDATASIZE SWAP1 REVERT JUMPDEST PUSH2 0x5B5D DUP2 SLOAD PUSH2 0x4B53 JUMP JUMPDEST SWAP1 DUP2 PUSH2 0x5B67 JUMPI POP POP JUMP JUMPDEST DUP2 PUSH1 0x1F PUSH1 0x0 SWAP4 GT PUSH1 0x1 EQ PUSH2 0x5B79 JUMPI POP SSTORE JUMP JUMPDEST SWAP1 DUP1 DUP4 SWAP2 DUP3 MSTORE PUSH2 0x5B98 PUSH1 0x1F PUSH1 0x20 DUP5 KECCAK256 SWAP5 ADD PUSH1 0x5 SHR DUP5 ADD PUSH1 0x1 DUP6 ADD PUSH2 0x4D4B JUMP JUMPDEST SSTORE SSTORE JUMP JUMPDEST PUSH1 0x1 PUSH1 0x1 PUSH1 0x40 SHL SUB DUP2 GT PUSH2 0x31C5 JUMPI PUSH1 0x5 SHL PUSH1 0x20 ADD SWAP1 JUMP JUMPDEST DUP1 MLOAD DUP3 LT ISZERO PUSH2 0x485F JUMPI PUSH1 0x20 SWAP2 PUSH1 0x5 SHL ADD ADD SWAP1 JUMP JUMPDEST ISZERO PUSH2 0x5BCE JUMPI JUMP JUMPDEST PUSH1 0x64 PUSH1 0x40 MLOAD PUSH3 0x461BCD PUSH1 0xE5 SHL DUP2 MSTORE PUSH1 0x20 PUSH1 0x4 DUP3 ADD MSTORE PUSH1 0x20 PUSH1 0x24 DUP3 ADD MSTORE PUSH32 0x4D61726B65744D616E616765723A20496E76616C6964206D61726B6574204944 PUSH1 0x44 DUP3 ADD MSTORE REVERT JUMPDEST ISZERO PUSH2 0x5C19 JUMPI JUMP JUMPDEST PUSH1 0x40 MLOAD PUSH3 0x461BCD PUSH1 0xE5 SHL DUP2 MSTORE PUSH1 0x20 PUSH1 0x4 DUP3 ADD MSTORE PUSH1 0x24 DUP1 DUP3 ADD MSTORE PUSH32 0x4D61726B65744D616E616765723A204D61726B657420646F6573206E6F742065 PUSH1 0x44 DUP3 ADD MSTORE PUSH4 0x1E1A5CDD PUSH1 0xE2 SHL PUSH1 0x64 DUP3 ADD MSTORE PUSH1 0x84 SWAP1 REVERT JUMPDEST PUSH1 0x0 JUMPDEST PUSH1 0x13 SWAP1 DUP2 SLOAD SWAP2 DUP3 DUP3 LT ISZERO PUSH2 0x5D1E JUMPI DUP4 SWAP3 PUSH2 0x5C86 DUP4 PUSH2 0x4875 JUMP JUMPDEST SWAP5 SWAP1 SLOAD PUSH1 0x3 SWAP6 DUP7 SHL SHR EQ PUSH2 0x5CA5 JUMPI POP POP PUSH2 0x5CA0 SWAP2 POP PUSH2 0x4D30 JUMP JUMPDEST PUSH2 0x5C6D JUMP JUMPDEST SWAP1 SWAP2 PUSH1 0x0 NOT SWAP2 DUP1 DUP4 ADD SWAP2 SWAP1 DUP3 GT PUSH2 0x4D0D JUMPI PUSH2 0x2E0A PUSH2 0x5CC5 PUSH2 0x5CD1 SWAP4 PUSH2 0x4875 JUMP JUMPDEST SWAP1 SLOAD SWAP1 DUP8 SHL SHR SWAP2 PUSH2 0x4875 JUMP JUMPDEST DUP2 SLOAD DUP1 ISZERO PUSH2 0x5D08 JUMPI DUP2 ADD SWAP3 PUSH2 0x5CE5 DUP5 PUSH2 0x4875 JUMP JUMPDEST DUP2 SWAP4 SWAP2 SLOAD SWAP3 SHL SHL NOT AND SWAP1 SSTORE SSTORE PUSH1 0x0 MSTORE PUSH1 0x14 PUSH1 0x20 MSTORE PUSH1 0x40 PUSH1 0x0 KECCAK256 PUSH1 0xFF NOT DUP2 SLOAD AND SWAP1 SSTORE JUMP JUMPDEST PUSH4 0x4E487B71 PUSH1 0xE0 SHL PUSH1 0x0 MSTORE PUSH1 0x31 PUSH1 0x4 MSTORE PUSH1 0x24 PUSH1 0x0 REVERT JUMPDEST POP POP POP POP JUMP JUMPDEST PUSH1 0x40 MLOAD SWAP1 PUSH2 0x5D31 DUP3 PUSH2 0x4A72 JUMP JUMPDEST DUP2 PUSH2 0x1C0 PUSH1 0x0 SWAP2 DUP3 DUP2 MSTORE PUSH1 0x60 PUSH1 0x20 DUP3 ADD MSTORE DUP3 PUSH1 0x40 DUP3 ADD MSTORE DUP3 PUSH1 0x60 DUP3 ADD MSTORE DUP3 PUSH1 0x80 DUP3 ADD MSTORE DUP3 PUSH1 0xA0 DUP3 ADD MSTORE DUP3 PUSH1 0xC0 DUP3 ADD MSTORE DUP3 PUSH1 0xE0 DUP3 ADD MSTORE DUP3 PUSH2 0x100 DUP3 ADD MSTORE DUP3 PUSH2 0x120 DUP3 ADD MSTORE DUP3 PUSH2 0x140 DUP3 ADD MSTORE DUP3 PUSH2 0x160 DUP3 ADD MSTORE DUP3 PUSH2 0x180 DUP3 ADD MSTORE DUP3 PUSH2 0x1A0 DUP3 ADD MSTORE ADD MSTORE JUMP JUMPDEST SWAP1 PUSH2 0x5D9E DUP3 PUSH2 0x5B9C JUMP JUMPDEST PUSH2 0x5DAB PUSH1 0x40 MLOAD SWAP2 DUP3 PUSH2 0x4AA9 JUMP JUMPDEST DUP3 DUP2 MSTORE DUP1 SWAP3 PUSH2 0x5DBC PUSH1 0x1F NOT SWAP2 PUSH2 0x5B9C JUMP JUMPDEST ADD SWAP1 PUSH1 0x20 CALLDATASIZE SWAP2 ADD CALLDATACOPY JUMP INVALID 0x4C GASLIMIT PUSH2 0xC5B0 DIV DUP5 0x24 SMOD SHR GT ISZERO 0xE9 CALL 0xE3 0x25 BASEFEE PUSH15 0x21C21333D968F21097B7B72D12AD4D PUSH2 0x726B PUSH6 0x744D616E6167 PUSH6 0x723A20546869 PUSH20 0x206D61726B65742075736573204D61726B65744D PUSH2 0x6E61 PUSH8 0x65723A20546F6B65 PUSH15 0x206E6F7420737570706F7274FB349E CALLDATASIZE PUSH32 0xA58E764F8867E52D91C7E0B9E6904700091667054CE1FDB56C496D4D61726B65 PUSH21 0x4D616E616765723A2042656C6F77206D696E696D75 PUSH14 0x20737461B13D2D76D1F4B7BE8348 DUP3 0xE4 LT 0xB3 0xE3 0xA8 0xAF 0xAF PUSH10 0xF83600AE24DB354391D2 CALLDATACOPY DUP14 0x2E DUP12 0xE0 SMOD SWAP13 MSTORE8 AND MSIZE EQ SGT PREVRANDAO 0xCD 0x1F 0xD0 LOG4 CALLCODE DUP5 NOT 0x49 PUSH32 0x9722A3DAAFE3B4186F6B6457E06DFC24F0F2FB42E49FB4FA3FFA8ABB148CAB90 DUP11 0x1F 0xB8 CALLER JUMPDEST EXTCODEHASH SLT DUP11 ADDMOD 0xB2 MSIZE 0x4A CALL 0x4D PUSH2 0x726B PUSH6 0x744D616E6167 PUSH6 0x723A20496E73 PUSH22 0x6666696369656E742050455055E10FDDE2C5CD9B92E4 0x49 0xEE 0x25 0xDF ADD INVALID 0xBD LOG2 0xCB 0xEB 0xC5 SSTORE RETURNDATACOPY CODESIZE CALLCODE 0x25 0xF INVALID PUSH32 0x2D5143BCA2646970667358221220D02B039FE239F9ADF314BA65F26771901F01 GAS 0xEC REVERT RETURNDATACOPY 0xCA 0xFB PUSH25 0xA91E230B2A84AF64736F6C6343000814003300000000000000 "},"methodIdentifiers":{"activeMarkets(uint256)":"3adfe6d0","addSupportedToken(address,string)":"720138e8","analytics()":"80d5ac8a","autoResolve(uint256)":"b1138b50","bettingRestrictionEnabled()":"88d3cc48","bettingRestrictionMinutes()":"baa9c4ac","blacklistedWallets(address)":"2b5ba3b9","calculateWinnings(uint256,address)":"f15cc406","cancelMarket(uint256)":"7c16cd9e","claimRefund(uint256)":"5b7baf64","claimWinnings(uint256)":"677bd9ff","createMarket(string,bool,uint256,address,uint256,uint256,uint256,uint256,uint256)":"638b022c","creatorCancelMarket(uint256)":"c3436e0c","deleteMarket(uint256,string)":"51049969","deletedMarkets(uint256)":"881df9e1","deletionTimestamp(uint256)":"ad8e42ff","endMarket(uint256)":"157bdcce","getActiveMarketCount()":"5da3247a","getActiveMarkets()":"a5e973c3","getAllMarketIds()":"b85ed636","getDeletedMarkets()":"65ebce55","getMarket(uint256)":"eb44fdd3","getMarketInfo(uint256)":"3ec79193","getMarketStakers(uint256)":"6f59359e","getMarketSupporters(uint256)":"87fea110","getMarketsReadyForRemoval()":"c8a843b7","getNextMarketId()":"fe53a6e8","getOptionPool(uint256,uint256,address)":"dc4ce349","getPermanentlyRemovedMarkets()":"6d822220","getStakerCount(uint256)":"0ccf4467","getSupportPool(uint256,address)":"4f44289d","getSupportedTokenCount()":"ce67be26","getSupportedTokens()":"d3c7c2c7","getSupporterCount(uint256)":"a30a0914","getTotalPool(uint256,address)":"f00fe321","getUserMarketHistory(address)":"33d6b46e","getUserStake(uint256,address,address)":"847cf782","getUserSupport(uint256,address,address)":"256ba741","isActiveMarket(uint256)":"0d64cdbd","isMarketActive(uint256)":"f849f69e","marketCreationFee()":"2ef1bdfa","marketStakers(uint256,uint256)":"d5f82707","marketSupporters(uint256,uint256)":"c22c62c3","markets(uint256)":"b1283e77","minMarketDurationMinutes()":"17916e01","nextMarketId()":"406ef2ef","owner()":"8da5cb5b","permanentlyRemoveMarket(uint256)":"07adc191","permanentlyRemovedMarkets(uint256)":"81b17d29","placeStake(uint256,uint256)":"f4867591","placeStakeWithToken(uint256,uint256,uint256)":"f1b7dde3","removeSupportedToken(address)":"76319190","renounceOwnership()":"715018a6","resolveMarket(uint256,uint256)":"60557333","setAnalytics(address)":"74c350eb","setBettingRestriction(bool,uint256)":"e78d0117","setMarketCreationFee(uint256)":"9f37022a","setMinMarketDuration(uint256)":"45843695","setVerification(address)":"971f8bb1","setWalletBlacklist(address,bool)":"db62c6de","supportMarket(uint256,uint256)":"f204072f","supportedTokenList(uint256)":"2b60c822","supportedTokens(address)":"68c4ac26","tokenSymbols(address)":"fb0b2b36","transferOwnership(address)":"f2fde38b","treasury()":"61d027b3","userHasStaked(uint256,address)":"304bf1f1","userHasSupported(uint256,address)":"287f57b5","userMarketHistory(address,uint256)":"98a17671","userStakeOptions(uint256,address)":"d8c5dd67","verification()":"4ffe2a8b","withdrawSupport(uint256)":"3e32a76c"}}}}}