{"contracts/P2PAnalytics.sol":{"MetricsHub":{"abi":[{"inputs":[{"internalType":"address","name":"initialOwner","type":"address"},{"internalType":"address","name":"_marketManager","type":"address"}],"stateMutability":"nonpayable","type":"constructor"},{"inputs":[{"internalType":"address","name":"owner","type":"address"}],"name":"OwnableInvalidOwner","type":"error"},{"inputs":[{"internalType":"address","name":"account","type":"address"}],"name":"OwnableUnauthorizedAccount","type":"error"},{"anonymous":false,"inputs":[{"indexed":false,"internalType":"uint256","name":"totalMarkets","type":"uint256"},{"indexed":false,"internalType":"uint256","name":"totalVolume","type":"uint256"}],"name":"GlobalStatsUpdated","type":"event"},{"anonymous":false,"inputs":[{"indexed":true,"internalType":"uint256","name":"marketId","type":"uint256"},{"indexed":false,"internalType":"uint256","name":"volume","type":"uint256"},{"indexed":false,"internalType":"uint256","name":"stakers","type":"uint256"}],"name":"MarketStatsUpdated","type":"event"},{"anonymous":false,"inputs":[{"indexed":true,"internalType":"address","name":"previousOwner","type":"address"},{"indexed":true,"internalType":"address","name":"newOwner","type":"address"}],"name":"OwnershipTransferred","type":"event"},{"anonymous":false,"inputs":[{"indexed":true,"internalType":"address","name":"user","type":"address"},{"indexed":false,"internalType":"uint256","name":"totalStakes","type":"uint256"},{"indexed":false,"internalType":"uint256","name":"winnings","type":"uint256"}],"name":"UserStatsUpdated","type":"event"},{"inputs":[{"internalType":"uint256","name":"minVolume","type":"uint256"}],"name":"getActiveMarketsByMinVolume","outputs":[{"internalType":"uint256[]","name":"","type":"uint256[]"}],"stateMutability":"view","type":"function"},{"inputs":[{"internalType":"uint256","name":"limit","type":"uint256"}],"name":"getActiveMarketsByParticipants","outputs":[{"internalType":"uint256[]","name":"","type":"uint256[]"},{"internalType":"uint256[]","name":"","type":"uint256[]"}],"stateMutability":"view","type":"function"},{"inputs":[{"internalType":"uint256","name":"limit","type":"uint256"}],"name":"getActiveMarketsByStakerCount","outputs":[{"internalType":"uint256[]","name":"","type":"uint256[]"},{"internalType":"uint256[]","name":"","type":"uint256[]"}],"stateMutability":"view","type":"function"},{"inputs":[{"internalType":"uint256","name":"limit","type":"uint256"}],"name":"getActiveMarketsByVolume","outputs":[{"internalType":"uint256[]","name":"","type":"uint256[]"},{"internalType":"uint256[]","name":"","type":"uint256[]"}],"stateMutability":"view","type":"function"},{"inputs":[],"name":"getGlobalStats","outputs":[{"components":[{"internalType":"uint256","name":"totalMarkets","type":"uint256"},{"internalType":"uint256","name":"totalVolume","type":"uint256"},{"internalType":"uint256","name":"totalStakers","type":"uint256"},{"internalType":"uint256","name":"totalSupporters","type":"uint256"},{"internalType":"uint256","name":"totalWinnings","type":"uint256"},{"internalType":"uint256","name":"averageMarketSize","type":"uint256"},{"internalType":"uint256","name":"mostActiveToken","type":"uint256"},{"internalType":"uint256","name":"averageResolutionTime","type":"uint256"}],"internalType":"struct MetricsHub.GlobalStats","name":"","type":"tuple"}],"stateMutability":"view","type":"function"},{"inputs":[{"internalType":"uint256","name":"marketId","type":"uint256"}],"name":"getMarketStats","outputs":[{"components":[{"internalType":"uint256","name":"totalVolume","type":"uint256"},{"internalType":"uint256","name":"totalStakers","type":"uint256"},{"internalType":"uint256","name":"totalSupporters","type":"uint256"},{"internalType":"uint256","name":"averageStakeSize","type":"uint256"},{"internalType":"uint256","name":"largestStake","type":"uint256"},{"internalType":"uint256","name":"mostPopularOption","type":"uint256"},{"internalType":"uint256","name":"resolutionTime","type":"uint256"},{"internalType":"bool","name":"wasResolved","type":"bool"},{"internalType":"uint256","name":"creatorWinnings","type":"uint256"}],"internalType":"struct MetricsHub.MarketStats","name":"","type":"tuple"}],"stateMutability":"view","type":"function"},{"inputs":[{"internalType":"address","name":"creator","type":"address"}],"name":"getMarketsByCreator","outputs":[{"internalType":"uint256[]","name":"","type":"uint256[]"}],"stateMutability":"view","type":"function"},{"inputs":[{"internalType":"uint256","name":"startTime","type":"uint256"},{"internalType":"uint256","name":"endTime","type":"uint256"}],"name":"getMarketsByDateRange","outputs":[{"internalType":"uint256[]","name":"","type":"uint256[]"}],"stateMutability":"view","type":"function"},{"inputs":[{"internalType":"enum EventPool.MarketState","name":"state","type":"uint8"}],"name":"getMarketsByState","outputs":[{"internalType":"uint256[]","name":"","type":"uint256[]"}],"stateMutability":"view","type":"function"},{"inputs":[{"internalType":"address","name":"token","type":"address"}],"name":"getMarketsByToken","outputs":[{"internalType":"uint256[]","name":"","type":"uint256[]"}],"stateMutability":"view","type":"function"},{"inputs":[{"internalType":"address","name":"creator","type":"address"},{"internalType":"address","name":"token","type":"address"},{"internalType":"uint256","name":"minVolume","type":"uint256"},{"internalType":"uint256","name":"maxVolume","type":"uint256"},{"internalType":"enum EventPool.MarketState","name":"state","type":"uint8"},{"internalType":"uint256","name":"startTime","type":"uint256"},{"internalType":"uint256","name":"endTime","type":"uint256"}],"name":"getMarketsFiltered","outputs":[{"internalType":"uint256[]","name":"","type":"uint256[]"}],"stateMutability":"view","type":"function"},{"inputs":[{"internalType":"uint256","name":"daysBack","type":"uint256"},{"internalType":"uint256","name":"limit","type":"uint256"}],"name":"getRecentActiveMarkets","outputs":[{"internalType":"uint256[]","name":"","type":"uint256[]"},{"internalType":"uint256[]","name":"","type":"uint256[]"}],"stateMutability":"view","type":"function"},{"inputs":[{"internalType":"uint256","name":"limit","type":"uint256"}],"name":"getThisWeekActiveMarkets","outputs":[{"internalType":"uint256[]","name":"","type":"uint256[]"},{"internalType":"uint256[]","name":"","type":"uint256[]"}],"stateMutability":"view","type":"function"},{"inputs":[{"internalType":"uint256","name":"limit","type":"uint256"}],"name":"getTodayActiveMarkets","outputs":[{"internalType":"uint256[]","name":"","type":"uint256[]"},{"internalType":"uint256[]","name":"","type":"uint256[]"}],"stateMutability":"view","type":"function"},{"inputs":[{"internalType":"uint256","name":"limit","type":"uint256"}],"name":"getTopStakers","outputs":[{"internalType":"address[]","name":"","type":"address[]"},{"internalType":"uint256[]","name":"","type":"uint256[]"}],"stateMutability":"view","type":"function"},{"inputs":[{"internalType":"address","name":"user","type":"address"}],"name":"getUserFavoriteOption","outputs":[{"internalType":"uint256","name":"","type":"uint256"}],"stateMutability":"view","type":"function"},{"inputs":[{"internalType":"address","name":"user","type":"address"}],"name":"getUserMarkets","outputs":[{"internalType":"uint256[]","name":"","type":"uint256[]"}],"stateMutability":"view","type":"function"},{"inputs":[{"internalType":"address","name":"user","type":"address"},{"internalType":"enum EventPool.MarketState","name":"state","type":"uint8"}],"name":"getUserMarketsByState","outputs":[{"internalType":"uint256[]","name":"","type":"uint256[]"}],"stateMutability":"view","type":"function"},{"inputs":[{"internalType":"address","name":"user","type":"address"}],"name":"getUserStakes","outputs":[{"internalType":"uint256[]","name":"","type":"uint256[]"}],"stateMutability":"view","type":"function"},{"inputs":[{"internalType":"address","name":"user","type":"address"}],"name":"getUserStats","outputs":[{"components":[{"internalType":"uint256","name":"totalStakesPlaced","type":"uint256"},{"internalType":"uint256","name":"totalStakesWon","type":"uint256"},{"internalType":"uint256","name":"totalStakesLost","type":"uint256"},{"internalType":"uint256","name":"totalWinnings","type":"uint256"},{"internalType":"uint256","name":"totalLosses","type":"uint256"},{"internalType":"uint256","name":"totalSupportDonated","type":"uint256"},{"internalType":"uint256","name":"marketsCreated","type":"uint256"},{"internalType":"uint256","name":"marketsWon","type":"uint256"},{"internalType":"uint256","name":"marketsLost","type":"uint256"},{"internalType":"uint256","name":"favoriteOption","type":"uint256"},{"internalType":"uint256","name":"lastActivity","type":"uint256"}],"internalType":"struct MetricsHub.UserStats","name":"","type":"tuple"}],"stateMutability":"view","type":"function"},{"inputs":[{"internalType":"address","name":"user","type":"address"}],"name":"getUserSupports","outputs":[{"internalType":"uint256[]","name":"","type":"uint256[]"}],"stateMutability":"view","type":"function"},{"inputs":[{"internalType":"address","name":"user","type":"address"}],"name":"getUserWinRate","outputs":[{"internalType":"uint256","name":"","type":"uint256"}],"stateMutability":"view","type":"function"},{"inputs":[],"name":"marketManager","outputs":[{"internalType":"address payable","name":"","type":"address"}],"stateMutability":"view","type":"function"},{"inputs":[{"internalType":"uint256","name":"","type":"uint256"}],"name":"marketStats","outputs":[{"internalType":"uint256","name":"totalVolume","type":"uint256"},{"internalType":"uint256","name":"totalStakers","type":"uint256"},{"internalType":"uint256","name":"totalSupporters","type":"uint256"},{"internalType":"uint256","name":"averageStakeSize","type":"uint256"},{"internalType":"uint256","name":"largestStake","type":"uint256"},{"internalType":"uint256","name":"mostPopularOption","type":"uint256"},{"internalType":"uint256","name":"resolutionTime","type":"uint256"},{"internalType":"bool","name":"wasResolved","type":"bool"},{"internalType":"uint256","name":"creatorWinnings","type":"uint256"}],"stateMutability":"view","type":"function"},{"inputs":[],"name":"owner","outputs":[{"internalType":"address","name":"","type":"address"}],"stateMutability":"view","type":"function"},{"inputs":[],"name":"renounceOwnership","outputs":[],"stateMutability":"nonpayable","type":"function"},{"inputs":[{"internalType":"address","name":"_marketManager","type":"address"}],"name":"setMarketManager","outputs":[],"stateMutability":"nonpayable","type":"function"},{"inputs":[{"internalType":"uint256","name":"marketId","type":"uint256"},{"internalType":"address","name":"user","type":"address"},{"internalType":"uint256","name":"loss","type":"uint256"}],"name":"trackLoss","outputs":[],"stateMutability":"nonpayable","type":"function"},{"inputs":[{"internalType":"uint256","name":"marketId","type":"uint256"},{"internalType":"address","name":"creator","type":"address"}],"name":"trackMarketCreation","outputs":[],"stateMutability":"nonpayable","type":"function"},{"inputs":[{"internalType":"uint256","name":"marketId","type":"uint256"},{"internalType":"uint256","name":"winningOption","type":"uint256"}],"name":"trackMarketResolution","outputs":[],"stateMutability":"nonpayable","type":"function"},{"inputs":[{"internalType":"uint256","name":"marketId","type":"uint256"},{"internalType":"address","name":"user","type":"address"},{"internalType":"uint256","name":"option","type":"uint256"},{"internalType":"uint256","name":"amount","type":"uint256"}],"name":"trackStake","outputs":[],"stateMutability":"nonpayable","type":"function"},{"inputs":[{"internalType":"uint256","name":"marketId","type":"uint256"},{"internalType":"address","name":"user","type":"address"},{"internalType":"uint256","name":"amount","type":"uint256"}],"name":"trackSupport","outputs":[],"stateMutability":"nonpayable","type":"function"},{"inputs":[{"internalType":"uint256","name":"marketId","type":"uint256"},{"internalType":"address","name":"user","type":"address"},{"internalType":"uint256","name":"winnings","type":"uint256"}],"name":"trackWinnings","outputs":[],"stateMutability":"nonpayable","type":"function"},{"inputs":[{"internalType":"address","name":"newOwner","type":"address"}],"name":"transferOwnership","outputs":[],"stateMutability":"nonpayable","type":"function"},{"inputs":[{"internalType":"address","name":"","type":"address"},{"internalType":"uint256","name":"","type":"uint256"}],"name":"userMarkets","outputs":[{"internalType":"uint256","name":"","type":"uint256"}],"stateMutability":"view","type":"function"},{"inputs":[{"internalType":"address","name":"","type":"address"},{"internalType":"uint256","name":"","type":"uint256"}],"name":"userOptionStats","outputs":[{"internalType":"uint256","name":"","type":"uint256"}],"stateMutability":"view","type":"function"},{"inputs":[{"internalType":"address","name":"","type":"address"},{"internalType":"uint256","name":"","type":"uint256"}],"name":"userStakes","outputs":[{"internalType":"uint256","name":"","type":"uint256"}],"stateMutability":"view","type":"function"},{"inputs":[{"internalType":"address","name":"","type":"address"}],"name":"userStats","outputs":[{"internalType":"uint256","name":"totalStakesPlaced","type":"uint256"},{"internalType":"uint256","name":"totalStakesWon","type":"uint256"},{"internalType":"uint256","name":"totalStakesLost","type":"uint256"},{"internalType":"uint256","name":"totalWinnings","type":"uint256"},{"internalType":"uint256","name":"totalLosses","type":"uint256"},{"internalType":"uint256","name":"totalSupportDonated","type":"uint256"},{"internalType":"uint256","name":"marketsCreated","type":"uint256"},{"internalType":"uint256","name":"marketsWon","type":"uint256"},{"internalType":"uint256","name":"marketsLost","type":"uint256"},{"internalType":"uint256","name":"favoriteOption","type":"uint256"},{"internalType":"uint256","name":"lastActivity","type":"uint256"}],"stateMutability":"view","type":"function"},{"inputs":[{"internalType":"address","name":"","type":"address"},{"internalType":"uint256","name":"","type":"uint256"}],"name":"userSupports","outputs":[{"internalType":"uint256","name":"","type":"uint256"}],"stateMutability":"view","type":"function"}],"evm":{"bytecode":{"linkReferences":{},"object":"608034620000de57601f6200353f38819003918201601f19168301916001600160401b03831184841017620000e3578084926040948552833981010312620000de576200005a60206200005283620000f9565b9201620000f9565b906001600160a01b03908116908115620000c5576000549260018060a01b03199280848616176000558260405195167f8be0079c531659141344cd1fd0a4f28419497f9722a3daafe3b4186f6b6457e0600080a31690600154161760015561343090816200010f8239f35b604051631e4fbdf760e01b815260006004820152602490fd5b600080fd5b634e487b7160e01b600052604160045260246000fd5b51906001600160a01b0382168203620000de5756fe608080604052600436101561001357600080fd5b60003560e01c9081630649e0c014612ceb57508063110d05e514612cae5780631c6e04db14612c375780632053114d14612b5557806325ec5ef114612b2a5780633d80d00b146127b25780633f89efda1461273457806341ed2c121461270b5780634b669c09146126825780634e43603a1461251a57806350ad34a11461223057806354488a5a146121e857806357f978ad1461205a57806358057fe514611f3957806361d442c214611e345780636b3b7ea714611dea5780636b4169c314611bc8578063715018a614611b8157806380aa0d8c14611995578063837cd2351461161c578063842e2981146115915780638a65d874146114e85780638da5cb5b146114bf5780638f46a5a1146113a95780639b7bcd2414611210578063a119515a14610eb5578063b5d5b5fa14610e6b578063c228038d14610be3578063c80ca39a14610b4b578063cd94a775146109c1578063d82aff111461097e578063da4473d814610548578063db0f871d14610926578063e893a76f1461054d578063e99c80bd14610548578063f054f00a146104b4578063f2fde38b14610440578063fbe151591461024e5763ff4a7300146101cc57600080fd5b34610249576101da36612df1565b906101f060018060a01b03600154163314612ed8565b60005260036020526005604060002060078101600160ff1982541617905542600682015501557f17d726ad382ea92487e2c4d01469c94fa17bef35e71d3f4b5414159695c038d2604080516000815260006020820152a1005b600080fd5b3461024957602080600319360112610249576004359060405161027081612fba565b6000815260018054604051631fca74dd60e31b81529294906001600160a01b03168484600481845afa93841561040557600094610411575b50825b8481106102c957604051868152806102c58189018a612d3f565b0390f35b60405163eb44fdd360e01b8152600481018290526024906000818381875afa801561040557610180916000916103e2575b50015160058110156103cd5715806103b6575b610321575b5061031c90612f34565b6102ab565b87919751908582018092116103a25750908761033d86936132b3565b91836000945b610361575b5061031c93506103599051836132e5565b529690610312565b91819394915182101561039857508061037d61038e92856132e5565b5161038882876132e5565b52612f34565b9291818a92610343565b9184939150610348565b634e487b7160e01b60009081526011600452fd5b50816000526003875283604060002054101561030d565b50634e487b7160e01b60009081526021600452fd5b6103ff91503d806000833e6103f78183612fd5565b81019061307b565b8a6102fa565b6040513d6000823e3d90fd5b9093508481813d8311610439575b6104298183612fd5565b81010312610249575192866102a8565b503d61041f565b3461024957602036600319011261024957610459612d9b565b610461612eac565b6001600160a01b0390811690811561049b576000548260018060a01b0319821617600055166000805160206133bb833981519152600080a3005b604051631e4fbdf760e01b815260006004820152602490fd5b34610249576040366003190112610249576104cd612db1565b6001546001600160a01b0391906104e79083163314612ed8565b1680600052600260205260008051602061339b833981519152604080600020600681016105148154612f34565b905542600a82015583600052600460205261053460043583600020613025565b6003815491015482519182526020820152a2005b612e35565b34610249576020806003193601126102495760018054604051631fca74dd60e31b81526001600160a01b039091169291908281600481875afa908115610405576000916108f9575b506040516105a281612fba565b60008152936040516105b381612fba565b6000815293835b83811061076b5750505050806000905b610656575b50506004358015158061064c575b15610644575b6105ec816132b3565b916105f6826132b3565b9360005b83811061061057604051806102c5888883612d73565b8061061e61063f92846132e5565b5161062982886132e5565b5261063481856132e5565b5161038882896132e5565b6105fa565b5081516105e3565b50825181106105dd565b8351600019908181019081116107445782101561076557600090835b610689575b50506106838291612f34565b906105ca565b6106998387949693959751613018565b8181019081116107445784101561075a576106b484836132e5565b518685019485811161074457856106dd926106d08a98876132e5565b51116106e6575b50612f34565b91949295610672565b6106f082866132e5565b516106fb82876132e5565b5161070684886132e5565b5261071182876132e5565b5261073d61071f83886132e5565b519161072b81896132e5565b51610736858a6132e5565b52876132e5565b52886106d7565b634e487b7160e01b600052601160045260246000fd5b819492959350610677565b506105cf565b60405163eb44fdd360e01b8152600481018290526024906000818381885afa801561040557610180916000916108de575b50015160058110156103cd57156107bd575b506107b890612f34565b6105ba565b909560405190630ccf446760e01b825287600483015283828481885afa918215610405576000926108af575b50885187810180911161089a576107ff906132b3565b928151908882018092116103a2575061081889916132b3565b99886000815b61084b575b5050916108429161083a6107b896959451866132e5565b52518a6132e5565b529695906107ae565b909192835182101561089257508061086661088892856132e5565b5161087182896132e5565b528c6103888261088181896132e5565b51926132e5565b908a92918161081e565b929190610823565b83634e487b7160e01b60005260116004526000fd5b9091508381813d83116108d7575b6108c78183612fd5565b81010312610249575190896107e9565b503d6108bd565b6108f391503d806000833e6103f78183612fd5565b8a61079c565b90508281813d831161091f575b6109108183612fd5565b81010312610249575184610595565b503d610906565b346102495760403660031901126102495761093f612d9b565b6001600160a01b03166000908152600460205260409020805460243591908210156102495760209161097091612e07565b90546040519160031b1c8152f35b3461024957602036600319011261024957610997612d9b565b61099f612eac565b600180546001600160a01b0319166001600160a01b0392909216919091179055005b3461024957602080600319360112610249576109db612d9b565b906040516109e881612fba565b6000815260018054604051631fca74dd60e31b8152929492906001600160a01b039081168583600481845afa92831561040557600093610b1c575b509193811691835b858110610a4557604051878152806102c5818a018b612d3f565b60405163eb44fdd360e01b8152600481018290526024906000818381875afa801561040557608086918893600091610b01575b5001511614610a91575b50610a8c90612f34565b610a2b565b88919851908682018092116103a257509088610aad87936132b3565b91836000945b610ad1575b50610a8c9350610ac99051836132e5565b529790610a82565b918193949151821015610af757508061037d610aed92856132e5565b9291818b92610ab3565b9184939150610ab8565b610b1691503d806000833e6103f78183612fd5565b8d610a78565b9092508581813d8311610b44575b610b348183612fd5565b8101031261024957519187610a23565b503d610b2a565b3461024957602080600319360112610249576040518091604082019060408352606051809252606083019160809060005b818110610bc357505050828203818401528060605192838152019160809160005b828110610bac57505050500390f35b835185528695509381019392810192600101610b9d565b82516001600160a01b031685528695509383019391830191600101610b7c565b34610249576080366003190112610249576004356024610c01612db1565b600154606435916001600160a01b0391604435918391610c249083163314612ed8565b16908160005260209360028552604060002091610c418354612f34565b835560048301610c52838254612f43565b905542600a840155836000526007865260406000208160005286526040600020610c7c8154612f34565b905583600052600786526040600020816000528652604060002054846000526007875260406000209060098501918254600052885260406000205410610e63575b5050866000526003855260406000209385610cd9838754612f43565b918287556001541660405198898092630ccf446760e01b82528c60048301525afa96871561040557600097610e34575b5060018501878155968015610e2b57610d2191612ff8565b60038501556004840180548211610e23575b5050816000526004845260406000208054908115918215610dcc575b50509160008051602061339b83398151915260406000805160206133db833981519152979593819795610db2575b8360005260058652610d928a83600020613025565b60038154910154825191825286820152a2549154908351928352820152a2005b8360005260048652610dc78a83600020613025565b610d7d565b90969492959391506000198101908111610744576040809689610e0d60008051602061339b833981519152946000805160206133db8339815191529b612e07565b90549060031b1c14159395975093959750610d4f565b558680610d33565b50506000610d21565b9096508581813d8311610e5c575b610e4c8183612fd5565b8101031261024957519588610d09565b503d610e42565b558780610cbd565b3461024957604036600319011261024957610e84612d9b565b6001600160a01b03166000908152600560205260409020805460243591908210156102495760209161097091612e07565b34610249576020806003193601126102495760018054604051631fca74dd60e31b81526001600160a01b0390911691908381600481865afa908115610405576000916111e3575b50604051610f0981612fba565b6000815293604051610f1a81612fba565b6000815293835b8381106110305750505050806000905b610f9c575b505060043580151580610f92575b15610f8a575b610f53816132b3565b91610f5d826132b3565b9360005b838110610f7757604051806102c5888883612d73565b8061061e610f8592846132e5565b610f61565b508151610f4a565b5082518110610f44565b8351600019908181019081116107445782101561102a57600090835b610fcf575b5050610fc98291612f34565b90610f31565b610fdf8387949693959751613018565b8181019081116107445784101561101f57610ffa84836132e5565b51868501948581116107445785611016926106d08a98876132e5565b91949295610fb8565b819492959350610fbd565b50610f36565b60405163eb44fdd360e01b8152600481018290526024906000818381875afa801561040557610180916000916111c8575b50015160058110156103cd5715611082575b5061107d90612f34565b610f21565b9095604051630ccf446760e01b815287600482015284818481875afa9081156104055760009161119b575b506040516328c2824560e21b8152600481018990529085828581885afa9081156104055760009161116a575b6110e39250612f43565b90885187810180911161089a576110f9906132b3565b928151908882018092116103a2575061111289916132b3565b99886000815b61113d575b5050916111349161083a61107d96959451866132e5565b52969590611073565b909192835182101561116257508061086661115892856132e5565b908a929181611118565b92919061111d565b90508582813d8311611194575b6111818183612fd5565b81010312610249576110e39151906110d9565b503d611177565b90508481813d83116111c1575b6111b28183612fd5565b810103126102495751896110ad565b503d6111a8565b6111dd91503d806000833e6103f78183612fd5565b8a611061565b90508381813d8311611209575b6111fa8183612fd5565b81010312610249575184610efc565b503d6111f0565b3461024957602080600319360112610249576004359060058083101590816102495760405161123e81612fba565b6000815260018054604051631fca74dd60e31b815292969294919391906001600160a01b03168686600481845afa9586156104055760009661137a575b50845b86811061129857604051888152806102c5818b018c612d3f565b60405163eb44fdd360e01b8152600481018290526024906000818381875afa8015610405576101809160009161135f575b500151858110156103cd57846103cd5786146112ef575b506112ea90612f34565b61127e565b89919951908782018092116103a25750908961130b88936132b3565b91836000945b61132f575b506112ea93506113279051836132e5565b5298906112e0565b91819394915182101561135557508061037d61134b92856132e5565b9291818c92611311565b9184939150611316565b61137491503d806000833e6103f78183612fd5565b8c6112c9565b9095508681813d83116113a2575b6113928183612fd5565b810103126102495751948861127b565b503d611388565b34610249576113b736612dc7565b6001546001600160a01b03939284916113d39083163314612ed8565b1692836000526024602091600283526040600020936113f760058601918254612f43565b905542600a85015584600052600383528260406000209160015416604051938480926328c2824560e21b82528960048301525afa9182156104055760009261147c575b5060008051602061339b8339815191529460409493926002611469930155866000526006835284600020613025565b60038254920154908351928352820152a2005b90939280925081813d83116114b8575b6114968183612fd5565b810103126102495751919290919060008051602061339b83398151915261143a565b503d61148c565b34610249576000366003190112610249576000546040516001600160a01b039091168152602090f35b34610249576020366003190112610249576001600160a01b03611509612d9b565b16600052600260205261016060406000208054906001810154906002810154600382015460048301546005840154600685015491600786015493600887015495600a6009890154980154986040519a8b5260208b015260408a01526060890152608088015260a087015260c086015260e0850152610100840152610120830152610140820152f35b3461024957602080600319360112610249576001600160a01b036115b3612d9b565b1660005260058152604060002090604051808383829554938481520190600052836000209260005b85828210611606575050506115f292500383612fd5565b6102c5604051928284938452830190612d3f565b85548452600195860195889550930192016115db565b346102495760e036600319011261024957611635612d9b565b61163d612db1565b6005608435101591826102495760405161165681612fba565b60008152600154604051631fca74dd60e31b815291949193906001600160a01b0316602085600481845afa94851561040557600095611961575b5060015b8581106116b157604051602080825281906102c59082018a612d3f565b60405163eb44fdd360e01b815260048101829052600081602481865afa90811561040557600091611946575b508160005260036020526040600020906040516116f981612f82565b82548082526001808501546020840152600285015460408401526003850154606084015260048501546080840152600585015460a0840152600685015460c0840152600785015460ff16151560e08401526008909401546101009092019190915286906001600160a01b0389168015159061192f575b611926575b6001600160a01b0387168015159061190c575b611903575b60443515156044356118f8575b6118ef575b6064351515906064356118e3575b506118da575b6118c45760843515156084356118a5575b61189c575b60a435151560a43561188c575b611883575b60c43515159060c435611871575b50611869575b611801575b6117fc90612f34565b611694565b9491939092865160018101811161074457600161181e91016132b3565b9460005b88518110156118495780611839611844928b6132e5565b51610388828a6132e5565b611822565b5092959694876118606117fc9396949751836132e5565b529690506117f3565b5060006117ee565b905061010060c43591015111896117e8565b600091506117da565b5060a435610100820151106117d5565b600091506117c8565b50610180810151955060058610156118c45760009560843514156117c3565b634e487b7160e01b600052602160045260246000fd5b600092506117b2565b9050606435108b6117ac565b6000935061179e565b506044358110611799565b6000935061178c565b5060808301516001600160a01b0388811691161415611787565b60009350611774565b5082516001600160a01b038a81169116141561176f565b61195b91503d806000833e6103f78183612fd5565b886116dd565b9094506020813d60201161198d575b8161197d60209383612fd5565b8101031261024957519386611690565b3d9150611970565b34610249576040366003190112610249576119ae612d9b565b60248035600592838210159081610249578383869260018060a01b03809116600052602092600484526040600020926040519384868254918281520191600052866000209060005b818110611b6d5750505084611a0c910385612fd5565b604051611a1881612fba565b60008152956000976001988995865416995b611a42575b604051888152806102c5818b018c612d3f565b8651811015611b6857896000611a58838a6132e5565b51876040518094819363eb44fdd360e01b835260048301525afa80156104055761018091600091611b4d575b50015183811015611b385782611b38578414611ab3575b98611aa9869798999a612f34565b9099989796611a2a565b978051868101809111611b2357611ac9906132b3565b906000875b611b00575b50899a91611aa991611af4611aeb8b9c9d8b9c6132e5565b519151836132e5565b52999897505098611a9b565b8151811015611b1e57611b188161037d8a93856132e5565b90611ace565b611ad3565b85634e487b7160e01b60005260116004526000fd5b85634e487b7160e01b60005260216004526000fd5b611b6291503d806000833e6103f78183612fd5565b8c611a84565b611a2f565b8254845292880192600192830192016119f6565b3461024957600036600319011261024957611b9a612eac565b600080546001600160a01b0319811682556001600160a01b03166000805160206133bb8339815191528280a3005b3461024957600036600319011261024957600060e0604051611be981612f9e565b8281528260208201528260408201528260608201528260808201528260a08201528260c082015201526004602060018060a01b036001541660405192838092631fca74dd60e31b82525afa90811561040557600091611db8575b508060001981011161074457600090818060015b6000198401811115611d0a575061010093600019840115611d0257611c80600019850184612ff8565b905b60405192611c8f84612f9e565b6000198601845260208401948552604084019182526060840190815260808401916000835260a0850193845260e060c086019560008752019560008752604051976000190188525160208801525160408701525160608601525160808501525160a08401525160c08301525160e0820152f35b600090611c82565b90611dad611db391611da5600295978560005260036020526020611d9c6040600020809b60086040519b8c93611d3f85612f82565b8054948590526001810154878f0152015460408d0190815260038f015460608e015260048f015460808e015260058f015460a08e015260068f015460c08e015260078f015460ff16151560e08e01529d01546101008c0152612f43565b97015190612f43565b965190612f43565b91612f34565b611c57565b90506020813d602011611de2575b81611dd360209383612fd5565b81010312610249575181611c43565b3d9150611dc6565b3461024957604036600319011261024957611e03612d9b565b6001600160a01b03166000908152600660205260409020805460243591908210156102495760209161097091612e07565b34610249576024611e4436612dc7565b92909160018060a01b038093611e5f82600154163314612ed8565b169384600052600260205260406000209060018201611e7e8154612f34565b90556003820192611e90828554612f43565b845542600a840155600086600154166040519687809263eb44fdd360e01b82528560048301525afa9485156104055760008051602061339b833981519152966040968992600091611f1e575b50511614611ef7575b505054905482519182526020820152a2005b60078301611f058154612f34565b9055600052600360205260088460002001558580611ee5565b611f3391503d806000833e6103f78183612fd5565b8a611edc565b3461024957602036600319011261024957610120604051611f5981612f82565b6000815260006020820152600060408201526000606082015260006080820152600060a0820152600060c0820152600060e08201526000610100809201526004356000526003602052604060002090604051611fb481612f82565b8254928382526001810154602083019081526002820154604084019081526003830154606085019081526004840154906080860191825260058501549260a0870193845260068601549460c0880195865288600860ff60078a0154169860e08b019915158a5201549801978852604051998a525160208a01525160408901525160608801525160808701525160a08601525160c085015251151560e08401525190820152f35b346102495761206836612df1565b9060405161207581612fba565b6000815260018054604051631fca74dd60e31b81529294602094916001600160a01b03168585600481845afa948515610405576000956121b9575b50835b8581106120cd57604051878152806102c5818a018b612d3f565b60405163eb44fdd360e01b8152600481018290526024906000818381875afa8015610405576101009160009161219e575b50015184868210159182612193575b5050612123575b5061211e90612f34565b6120b3565b88919851908682018092116103a25750908861213f87936132b3565b91836000945b612163575b5061211e935061215b9051836132e5565b529790612114565b91819394915182101561218957508061037d61217f92856132e5565b9291818b92612145565b918493915061214a565b11159050848b61210d565b6121b391503d806000833e6103f78183612fd5565b8b6120fe565b9094508581813d83116121e1575b6121d18183612fd5565b81010312610249575193876120b0565b503d6121c7565b34610249576040366003190112610249576001600160a01b03612209612d9b565b16600052600760205260406000206024356000526020526020604060002054604051908152f35b34610249576020806003193601126102495760018054604051631fca74dd60e31b81526001600160a01b0390911691908381600481865afa908115610405576000916124ed575b5060405161228481612fba565b600081529360405161229581612fba565b6000815293835b8381106123ab5750505050806000905b612317575b50506004358015158061230d575b15612305575b6122ce816132b3565b916122d8826132b3565b9360005b8381106122f257604051806102c5888883612d73565b8061061e61230092846132e5565b6122dc565b5081516122c5565b50825181106122bf565b835160001990818101908111610744578210156123a557600090835b61234a575b50506123448291612f34565b906122ac565b61235a8387949693959751613018565b8181019081116107445784101561239a5761237584836132e5565b51868501948581116107445785612391926106d08a98876132e5565b91949295612333565b819492959350612338565b506122b1565b60405163eb44fdd360e01b8152600481018290526024906000818381875afa801561040557610180916000916124d2575b50015160058110156103cd57156123fd575b506123f890612f34565b61229c565b909587518681018091116124bd57612414906132b3565b918151908782018092116103a2575090876124308894936132b3565b99846000955b61246f575b506123f8945061244c9051846132e5565b52876000526003855261246660406000205491518a6132e5565b529695906123ee565b918193949591518210156124b257508061248c6124a792856132e5565b5161249782886132e5565b528b6103888261088181896132e5565b939291818a92612436565b91859493915061243b565b82634e487b7160e01b60005260116004526000fd5b6124e791503d806000833e6103f78183612fd5565b8a6123dc565b90508381813d8311612513575b6125048183612fd5565b81010312610249575184612277565b503d6124fa565b3461024957602036600319011261024957610160612536612d9b565b6101406040519161254683612f50565b6000835260006020840152600060408401526000606084015260006080840152600060a0840152600060c0840152600060e084015261010090600082850152600083610120958287820152015260018060a01b03166000526002602052604060002092604051916125b683612f50565b600a85549586855260018101546020860152600281015460408601526003810154606086015260048101546080860152600581015460a0860152600681015460c0860152600781015460e08601526008810154838601526009810154848601520154848401526040519485526020830151602086015260408301516040860152606083015160608601526080830151608086015260a083015160a086015260c083015160c086015260e083015160e0860152808301519085015280820151908401520151610140820152f35b346102495760203660031901126102495760043560005260036020526101206040600020805490600181015490600281015460038201546004830154600584015491600685015493600860ff60078801541696015496604051988952602089015260408801526060870152608086015260a085015260c0840152151560e0830152610100820152f35b34610249576000366003190112610249576001546040516001600160a01b039091168152602090f35b3461024957602036600319011261024957604051633d80d00b60e01b8152600760048201526004356024820152600081604481305afa9081156104055760009060009261278c575b506102c560405192839283612d73565b90506127ab91503d806000833e6127a38183612fd5565b810190613357565b908261277c565b34610249576127c036612df1565b60018054604051631fca74dd60e31b81526001600160a01b0390911693929190602081600481885afa90811561040557600091612af9575b5060405161280581612fba565b600081529460405161281681612fba565b600081529462015180908181029181830414901517156107445761283a9042613018565b835b8381106129ac5750505050806000905b6128b4575b5050801515806128aa575b156128a2575b61286b816132b3565b91612875826132b3565b9360005b83811061288f57604051806102c5888883612d73565b8061061e61289d92846132e5565b612879565b508151612862565b508251811061285c565b845160001990818101908111610744578210156129a657908280926000915b6128e9575b50506128e390612f34565b9061284c565b909192506128f8838851613018565b81810190811161074457849083101561299f575061291682876132e5565b5184830192838111610744578361293e9261293288968b6132e5565b51116129475750612f34565b908293926128d3565b612951828a6132e5565b5161295c828b6132e5565b51612967848c6132e5565b52612972828b6132e5565b52612998612980838c6132e5565b51918b6129918561088184846132e5565b528b6132e5565b52896106d7565b92916128d8565b50612851565b60405163eb44fdd360e01b8152600481018290526024906000818381885afa90811561040557600091612ade575b506101808101516005811015612ac9571580612aba575b612a06575b5050612a0190612f34565b61283c565b89989192985187810180911161089a57612a1f906132b3565b928251908882018092116103a25750612a388a916132b3565b9a886000815b612a72575b5050612a01949392612a6892612a5d6101009351876132e5565b52015191518b6132e5565b52979690896129f6565b9091928351821015612ab2575080612a8d612aa892856132e5565b51612a9882896132e5565b528d61038882610881818a6132e5565b908b929181612a3e565b929190612a43565b508361010082015110156129f1565b82634e487b7160e01b60005260216004526000fd5b612af391503d806000833e6103f78183612fd5565b8a6129da565b90506020813d8211612b22575b81612b1360209383612fd5565b810103126102495751856127f8565b3d9150612b06565b34610249576020366003190112610249576020612b4d612b48612d9b565b6131e3565b604051908152f35b3461024957612b6336612dc7565b506001546001600160a01b03918291612b7f9083163314612ed8565b1691826000526002602052604060002060028101612b9d8154612f34565b905542600a820155600083600154169260246040518095819363eb44fdd360e01b835260048301525afa9182156104055760008051602061339b833981519152936040938692600091612c1c575b50511614612c07576003815491015482519182526020820152a2005b60088101612c158154612f34565b9055610534565b612c3191503d806000833e6103f78183612fd5565b87612beb565b3461024957602080600319360112610249576001600160a01b03612c59612d9b565b1660005260068152604060002090604051808383829554938481520190600052836000209260005b85828210612c98575050506115f292500383612fd5565b8554845260019586019588955093019201612c81565b34610249576020366003190112610249576001600160a01b03612ccf612d9b565b1660005260026020526020600960406000200154604051908152f35b3461024957602036600319011261024957633d80d00b60e01b8152600160048201526004356024820152600081604481305afa9081156104055760009060009261278c57506102c560405192839283612d73565b90815180825260208080930193019160005b828110612d5f575050505090565b835185529381019392810192600101612d51565b9091612d8a612d9893604084526040840190612d3f565b916020818403910152612d3f565b90565b600435906001600160a01b038216820361024957565b602435906001600160a01b038216820361024957565b606090600319011261024957600435906024356001600160a01b0381168103610249579060443590565b6040906003190112610249576004359060243590565b8054821015612e1f5760005260206000200190600090565b634e487b7160e01b600052603260045260246000fd5b3461024957602080600319360112610249576001600160a01b03612e57612d9b565b1660005260048152604060002090604051808383829554938481520190600052836000209260005b85828210612e96575050506115f292500383612fd5565b8554845260019586019588955093019201612e7f565b6000546001600160a01b03163303612ec057565b60405163118cdaa760e01b8152336004820152602490fd5b15612edf57565b60405162461bcd60e51b815260206004820152602760248201527f416e616c79746963733a204f6e6c79204d61726b65744d616e616765722063616044820152666e20747261636b60c81b6064820152608490fd5b60001981146107445760010190565b9190820180921161074457565b61016081019081106001600160401b03821117612f6c57604052565b634e487b7160e01b600052604160045260246000fd5b61012081019081106001600160401b03821117612f6c57604052565b61010081019081106001600160401b03821117612f6c57604052565b602081019081106001600160401b03821117612f6c57604052565b601f909101601f19168101906001600160401b03821190821017612f6c57604052565b8115613002570490565b634e487b7160e01b600052601260045260246000fd5b9190820391821161074457565b8054600160401b811015612f6c5761304291600182018155612e07565b819291549060031b91821b91600019901b1916179055565b51906001600160a01b038216820361024957565b5190811515820361024957565b9060209081838203126102495782516001600160401b03938482116102495701916101e09384848403126102495760405194850185811082821117612f6c576040526130c68461305a565b85528184015181811161024957840183601f82011215610249578051918211612f6c5760405193613100601f8401601f1916850186612fd5565b82855283838301011161024957829060005b8381106131cf575050600091840101528301526131316040820161306e565b60408301526060810151606083015261314c6080820161305a565b608083015260a081015160a083015260c081015160c083015260e081015160e0830152610100808201519083015261012080820151908301526101408082015190830152610160808201519083015261018080820151906005821015610249578301526101a080820151908301526131c86101c080920161306e565b9082015290565b818101830151868201840152849201613112565b60018060a01b0316600052600260205260406000206040519061320582612f50565b8054808352600a600183015492836020860152600281015460408601526003810154606086015260048101546080860152600581015460a0860152600681015460c0860152600781015460e0860152600881015461010086015260098101546101208601520154610140840152156132955760648102908082046064149015171561074457612d98915190612ff8565b5050600090565b6001600160401b038111612f6c5760051b60200190565b906132bd8261329c565b6132ca6040519182612fd5565b82815280926132db601f199161329c565b0190602036910137565b8051821015612e1f5760209160051b010190565b81601f82011215610249578051916133108361329c565b9261331e6040519485612fd5565b808452602092838086019260051b820101928311610249578301905b828210613348575050505090565b8151815290830190830161333a565b9190916040818403126102495780516001600160401b03939084811161024957816133839184016132f9565b93602083015190811161024957612d9892016132f956fe4b6c7abacb75992cc13ad43ffe4479dac5f7be91202f5fbb108eb1af8d56ed628be0079c531659141344cd1fd0a4f28419497f9722a3daafe3b4186f6b6457e057aec02922d876ec3d68c70ddf1563d34f09d29032f77ccb3357d31cffe7e733a26469706673582212209da94c5a71b263523eab9d478dc7b1e5b473ac16cbeddf29f3b58fc0859c31d964736f6c63430008140033","opcodes":"PUSH1 0x80 CALLVALUE PUSH3 0xDE JUMPI PUSH1 0x1F PUSH3 0x353F CODESIZE DUP2 SWAP1 SUB SWAP2 DUP3 ADD PUSH1 0x1F NOT AND DUP4 ADD SWAP2 PUSH1 0x1 PUSH1 0x1 PUSH1 0x40 SHL SUB DUP4 GT DUP5 DUP5 LT OR PUSH3 0xE3 JUMPI DUP1 DUP5 SWAP3 PUSH1 0x40 SWAP5 DUP6 MSTORE DUP4 CODECOPY DUP2 ADD SUB SLT PUSH3 0xDE JUMPI PUSH3 0x5A PUSH1 0x20 PUSH3 0x52 DUP4 PUSH3 0xF9 JUMP JUMPDEST SWAP3 ADD PUSH3 0xF9 JUMP JUMPDEST SWAP1 PUSH1 0x1 PUSH1 0x1 PUSH1 0xA0 SHL SUB SWAP1 DUP2 AND SWAP1 DUP2 ISZERO PUSH3 0xC5 JUMPI PUSH1 0x0 SLOAD SWAP3 PUSH1 0x1 DUP1 PUSH1 0xA0 SHL SUB NOT SWAP3 DUP1 DUP5 DUP7 AND OR PUSH1 0x0 SSTORE DUP3 PUSH1 0x40 MLOAD SWAP6 AND PUSH32 0x8BE0079C531659141344CD1FD0A4F28419497F9722A3DAAFE3B4186F6B6457E0 PUSH1 0x0 DUP1 LOG3 AND SWAP1 PUSH1 0x1 SLOAD AND OR PUSH1 0x1 SSTORE PUSH2 0x3430 SWAP1 DUP2 PUSH3 0x10F DUP3 CODECOPY RETURN JUMPDEST PUSH1 0x40 MLOAD PUSH4 0x1E4FBDF7 PUSH1 0xE0 SHL DUP2 MSTORE PUSH1 0x0 PUSH1 0x4 DUP3 ADD MSTORE PUSH1 0x24 SWAP1 REVERT JUMPDEST PUSH1 0x0 DUP1 REVERT JUMPDEST PUSH4 0x4E487B71 PUSH1 0xE0 SHL PUSH1 0x0 MSTORE PUSH1 0x41 PUSH1 0x4 MSTORE PUSH1 0x24 PUSH1 0x0 REVERT JUMPDEST MLOAD SWAP1 PUSH1 0x1 PUSH1 0x1 PUSH1 0xA0 SHL SUB DUP3 AND DUP3 SUB PUSH3 0xDE JUMPI JUMP INVALID PUSH1 0x80 DUP1 PUSH1 0x40 MSTORE PUSH1 0x4 CALLDATASIZE LT ISZERO PUSH2 0x13 JUMPI PUSH1 0x0 DUP1 REVERT JUMPDEST PUSH1 0x0 CALLDATALOAD PUSH1 0xE0 SHR SWAP1 DUP2 PUSH4 0x649E0C0 EQ PUSH2 0x2CEB JUMPI POP DUP1 PUSH4 0x110D05E5 EQ PUSH2 0x2CAE JUMPI DUP1 PUSH4 0x1C6E04DB EQ PUSH2 0x2C37 JUMPI DUP1 PUSH4 0x2053114D EQ PUSH2 0x2B55 JUMPI DUP1 PUSH4 0x25EC5EF1 EQ PUSH2 0x2B2A JUMPI DUP1 PUSH4 0x3D80D00B EQ PUSH2 0x27B2 JUMPI DUP1 PUSH4 0x3F89EFDA EQ PUSH2 0x2734 JUMPI DUP1 PUSH4 0x41ED2C12 EQ PUSH2 0x270B JUMPI DUP1 PUSH4 0x4B669C09 EQ PUSH2 0x2682 JUMPI DUP1 PUSH4 0x4E43603A EQ PUSH2 0x251A JUMPI DUP1 PUSH4 0x50AD34A1 EQ PUSH2 0x2230 JUMPI DUP1 PUSH4 0x54488A5A EQ PUSH2 0x21E8 JUMPI DUP1 PUSH4 0x57F978AD EQ PUSH2 0x205A JUMPI DUP1 PUSH4 0x58057FE5 EQ PUSH2 0x1F39 JUMPI DUP1 PUSH4 0x61D442C2 EQ PUSH2 0x1E34 JUMPI DUP1 PUSH4 0x6B3B7EA7 EQ PUSH2 0x1DEA JUMPI DUP1 PUSH4 0x6B4169C3 EQ PUSH2 0x1BC8 JUMPI DUP1 PUSH4 0x715018A6 EQ PUSH2 0x1B81 JUMPI DUP1 PUSH4 0x80AA0D8C EQ PUSH2 0x1995 JUMPI DUP1 PUSH4 0x837CD235 EQ PUSH2 0x161C JUMPI DUP1 PUSH4 0x842E2981 EQ PUSH2 0x1591 JUMPI DUP1 PUSH4 0x8A65D874 EQ PUSH2 0x14E8 JUMPI DUP1 PUSH4 0x8DA5CB5B EQ PUSH2 0x14BF JUMPI DUP1 PUSH4 0x8F46A5A1 EQ PUSH2 0x13A9 JUMPI DUP1 PUSH4 0x9B7BCD24 EQ PUSH2 0x1210 JUMPI DUP1 PUSH4 0xA119515A EQ PUSH2 0xEB5 JUMPI DUP1 PUSH4 0xB5D5B5FA EQ PUSH2 0xE6B JUMPI DUP1 PUSH4 0xC228038D EQ PUSH2 0xBE3 JUMPI DUP1 PUSH4 0xC80CA39A EQ PUSH2 0xB4B JUMPI DUP1 PUSH4 0xCD94A775 EQ PUSH2 0x9C1 JUMPI DUP1 PUSH4 0xD82AFF11 EQ PUSH2 0x97E JUMPI DUP1 PUSH4 0xDA4473D8 EQ PUSH2 0x548 JUMPI DUP1 PUSH4 0xDB0F871D EQ PUSH2 0x926 JUMPI DUP1 PUSH4 0xE893A76F EQ PUSH2 0x54D JUMPI DUP1 PUSH4 0xE99C80BD EQ PUSH2 0x548 JUMPI DUP1 PUSH4 0xF054F00A EQ PUSH2 0x4B4 JUMPI DUP1 PUSH4 0xF2FDE38B EQ PUSH2 0x440 JUMPI DUP1 PUSH4 0xFBE15159 EQ PUSH2 0x24E JUMPI PUSH4 0xFF4A7300 EQ PUSH2 0x1CC JUMPI PUSH1 0x0 DUP1 REVERT JUMPDEST CALLVALUE PUSH2 0x249 JUMPI PUSH2 0x1DA CALLDATASIZE PUSH2 0x2DF1 JUMP JUMPDEST SWAP1 PUSH2 0x1F0 PUSH1 0x1 DUP1 PUSH1 0xA0 SHL SUB PUSH1 0x1 SLOAD AND CALLER EQ PUSH2 0x2ED8 JUMP JUMPDEST PUSH1 0x0 MSTORE PUSH1 0x3 PUSH1 0x20 MSTORE PUSH1 0x5 PUSH1 0x40 PUSH1 0x0 KECCAK256 PUSH1 0x7 DUP2 ADD PUSH1 0x1 PUSH1 0xFF NOT DUP3 SLOAD AND OR SWAP1 SSTORE TIMESTAMP PUSH1 0x6 DUP3 ADD SSTORE ADD SSTORE PUSH32 0x17D726AD382EA92487E2C4D01469C94FA17BEF35E71D3F4B5414159695C038D2 PUSH1 0x40 DUP1 MLOAD PUSH1 0x0 DUP2 MSTORE PUSH1 0x0 PUSH1 0x20 DUP3 ADD MSTORE LOG1 STOP JUMPDEST PUSH1 0x0 DUP1 REVERT JUMPDEST CALLVALUE PUSH2 0x249 JUMPI PUSH1 0x20 DUP1 PUSH1 0x3 NOT CALLDATASIZE ADD SLT PUSH2 0x249 JUMPI PUSH1 0x4 CALLDATALOAD SWAP1 PUSH1 0x40 MLOAD PUSH2 0x270 DUP2 PUSH2 0x2FBA JUMP JUMPDEST PUSH1 0x0 DUP2 MSTORE PUSH1 0x1 DUP1 SLOAD PUSH1 0x40 MLOAD PUSH4 0x1FCA74DD PUSH1 0xE3 SHL DUP2 MSTORE SWAP3 SWAP5 SWAP1 PUSH1 0x1 PUSH1 0x1 PUSH1 0xA0 SHL SUB AND DUP5 DUP5 PUSH1 0x4 DUP2 DUP5 GAS STATICCALL SWAP4 DUP5 ISZERO PUSH2 0x405 JUMPI PUSH1 0x0 SWAP5 PUSH2 0x411 JUMPI JUMPDEST POP DUP3 JUMPDEST DUP5 DUP2 LT PUSH2 0x2C9 JUMPI PUSH1 0x40 MLOAD DUP7 DUP2 MSTORE DUP1 PUSH2 0x2C5 DUP2 DUP10 ADD DUP11 PUSH2 0x2D3F JUMP JUMPDEST SUB SWAP1 RETURN JUMPDEST PUSH1 0x40 MLOAD PUSH4 0xEB44FDD3 PUSH1 0xE0 SHL DUP2 MSTORE PUSH1 0x4 DUP2 ADD DUP3 SWAP1 MSTORE PUSH1 0x24 SWAP1 PUSH1 0x0 DUP2 DUP4 DUP2 DUP8 GAS STATICCALL DUP1 ISZERO PUSH2 0x405 JUMPI PUSH2 0x180 SWAP2 PUSH1 0x0 SWAP2 PUSH2 0x3E2 JUMPI JUMPDEST POP ADD MLOAD PUSH1 0x5 DUP2 LT ISZERO PUSH2 0x3CD JUMPI ISZERO DUP1 PUSH2 0x3B6 JUMPI JUMPDEST PUSH2 0x321 JUMPI JUMPDEST POP PUSH2 0x31C SWAP1 PUSH2 0x2F34 JUMP JUMPDEST PUSH2 0x2AB JUMP JUMPDEST DUP8 SWAP2 SWAP8 MLOAD SWAP1 DUP6 DUP3 ADD DUP1 SWAP3 GT PUSH2 0x3A2 JUMPI POP SWAP1 DUP8 PUSH2 0x33D DUP7 SWAP4 PUSH2 0x32B3 JUMP JUMPDEST SWAP2 DUP4 PUSH1 0x0 SWAP5 JUMPDEST PUSH2 0x361 JUMPI JUMPDEST POP PUSH2 0x31C SWAP4 POP PUSH2 0x359 SWAP1 MLOAD DUP4 PUSH2 0x32E5 JUMP JUMPDEST MSTORE SWAP7 SWAP1 PUSH2 0x312 JUMP JUMPDEST SWAP2 DUP2 SWAP4 SWAP5 SWAP2 MLOAD DUP3 LT ISZERO PUSH2 0x398 JUMPI POP DUP1 PUSH2 0x37D PUSH2 0x38E SWAP3 DUP6 PUSH2 0x32E5 JUMP JUMPDEST MLOAD PUSH2 0x388 DUP3 DUP8 PUSH2 0x32E5 JUMP JUMPDEST MSTORE PUSH2 0x2F34 JUMP JUMPDEST SWAP3 SWAP2 DUP2 DUP11 SWAP3 PUSH2 0x343 JUMP JUMPDEST SWAP2 DUP5 SWAP4 SWAP2 POP PUSH2 0x348 JUMP JUMPDEST PUSH4 0x4E487B71 PUSH1 0xE0 SHL PUSH1 0x0 SWAP1 DUP2 MSTORE PUSH1 0x11 PUSH1 0x4 MSTORE REVERT JUMPDEST POP DUP2 PUSH1 0x0 MSTORE PUSH1 0x3 DUP8 MSTORE DUP4 PUSH1 0x40 PUSH1 0x0 KECCAK256 SLOAD LT ISZERO PUSH2 0x30D JUMP JUMPDEST POP PUSH4 0x4E487B71 PUSH1 0xE0 SHL PUSH1 0x0 SWAP1 DUP2 MSTORE PUSH1 0x21 PUSH1 0x4 MSTORE REVERT JUMPDEST PUSH2 0x3FF SWAP2 POP RETURNDATASIZE DUP1 PUSH1 0x0 DUP4 RETURNDATACOPY PUSH2 0x3F7 DUP2 DUP4 PUSH2 0x2FD5 JUMP JUMPDEST DUP2 ADD SWAP1 PUSH2 0x307B JUMP JUMPDEST DUP11 PUSH2 0x2FA JUMP JUMPDEST PUSH1 0x40 MLOAD RETURNDATASIZE PUSH1 0x0 DUP3 RETURNDATACOPY RETURNDATASIZE SWAP1 REVERT JUMPDEST SWAP1 SWAP4 POP DUP5 DUP2 DUP2 RETURNDATASIZE DUP4 GT PUSH2 0x439 JUMPI JUMPDEST PUSH2 0x429 DUP2 DUP4 PUSH2 0x2FD5 JUMP JUMPDEST DUP2 ADD SUB SLT PUSH2 0x249 JUMPI MLOAD SWAP3 DUP7 PUSH2 0x2A8 JUMP JUMPDEST POP RETURNDATASIZE PUSH2 0x41F JUMP JUMPDEST CALLVALUE PUSH2 0x249 JUMPI PUSH1 0x20 CALLDATASIZE PUSH1 0x3 NOT ADD SLT PUSH2 0x249 JUMPI PUSH2 0x459 PUSH2 0x2D9B JUMP JUMPDEST PUSH2 0x461 PUSH2 0x2EAC JUMP JUMPDEST PUSH1 0x1 PUSH1 0x1 PUSH1 0xA0 SHL SUB SWAP1 DUP2 AND SWAP1 DUP2 ISZERO PUSH2 0x49B JUMPI PUSH1 0x0 SLOAD DUP3 PUSH1 0x1 DUP1 PUSH1 0xA0 SHL SUB NOT DUP3 AND OR PUSH1 0x0 SSTORE AND PUSH1 0x0 DUP1 MLOAD PUSH1 0x20 PUSH2 0x33BB DUP4 CODECOPY DUP2 MLOAD SWAP2 MSTORE PUSH1 0x0 DUP1 LOG3 STOP JUMPDEST PUSH1 0x40 MLOAD PUSH4 0x1E4FBDF7 PUSH1 0xE0 SHL DUP2 MSTORE PUSH1 0x0 PUSH1 0x4 DUP3 ADD MSTORE PUSH1 0x24 SWAP1 REVERT JUMPDEST CALLVALUE PUSH2 0x249 JUMPI PUSH1 0x40 CALLDATASIZE PUSH1 0x3 NOT ADD SLT PUSH2 0x249 JUMPI PUSH2 0x4CD PUSH2 0x2DB1 JUMP JUMPDEST PUSH1 0x1 SLOAD PUSH1 0x1 PUSH1 0x1 PUSH1 0xA0 SHL SUB SWAP2 SWAP1 PUSH2 0x4E7 SWAP1 DUP4 AND CALLER EQ PUSH2 0x2ED8 JUMP JUMPDEST AND DUP1 PUSH1 0x0 MSTORE PUSH1 0x2 PUSH1 0x20 MSTORE PUSH1 0x0 DUP1 MLOAD PUSH1 0x20 PUSH2 0x339B DUP4 CODECOPY DUP2 MLOAD SWAP2 MSTORE PUSH1 0x40 DUP1 PUSH1 0x0 KECCAK256 PUSH1 0x6 DUP2 ADD PUSH2 0x514 DUP2 SLOAD PUSH2 0x2F34 JUMP JUMPDEST SWAP1 SSTORE TIMESTAMP PUSH1 0xA DUP3 ADD SSTORE DUP4 PUSH1 0x0 MSTORE PUSH1 0x4 PUSH1 0x20 MSTORE PUSH2 0x534 PUSH1 0x4 CALLDATALOAD DUP4 PUSH1 0x0 KECCAK256 PUSH2 0x3025 JUMP JUMPDEST PUSH1 0x3 DUP2 SLOAD SWAP2 ADD SLOAD DUP3 MLOAD SWAP2 DUP3 MSTORE PUSH1 0x20 DUP3 ADD MSTORE LOG2 STOP JUMPDEST PUSH2 0x2E35 JUMP JUMPDEST CALLVALUE PUSH2 0x249 JUMPI PUSH1 0x20 DUP1 PUSH1 0x3 NOT CALLDATASIZE ADD SLT PUSH2 0x249 JUMPI PUSH1 0x1 DUP1 SLOAD PUSH1 0x40 MLOAD PUSH4 0x1FCA74DD PUSH1 0xE3 SHL DUP2 MSTORE PUSH1 0x1 PUSH1 0x1 PUSH1 0xA0 SHL SUB SWAP1 SWAP2 AND SWAP3 SWAP2 SWAP1 DUP3 DUP2 PUSH1 0x4 DUP2 DUP8 GAS STATICCALL SWAP1 DUP2 ISZERO PUSH2 0x405 JUMPI PUSH1 0x0 SWAP2 PUSH2 0x8F9 JUMPI JUMPDEST POP PUSH1 0x40 MLOAD PUSH2 0x5A2 DUP2 PUSH2 0x2FBA JUMP JUMPDEST PUSH1 0x0 DUP2 MSTORE SWAP4 PUSH1 0x40 MLOAD PUSH2 0x5B3 DUP2 PUSH2 0x2FBA JUMP JUMPDEST PUSH1 0x0 DUP2 MSTORE SWAP4 DUP4 JUMPDEST DUP4 DUP2 LT PUSH2 0x76B JUMPI POP POP POP POP DUP1 PUSH1 0x0 SWAP1 JUMPDEST PUSH2 0x656 JUMPI JUMPDEST POP POP PUSH1 0x4 CALLDATALOAD DUP1 ISZERO ISZERO DUP1 PUSH2 0x64C JUMPI JUMPDEST ISZERO PUSH2 0x644 JUMPI JUMPDEST PUSH2 0x5EC DUP2 PUSH2 0x32B3 JUMP JUMPDEST SWAP2 PUSH2 0x5F6 DUP3 PUSH2 0x32B3 JUMP JUMPDEST SWAP4 PUSH1 0x0 JUMPDEST DUP4 DUP2 LT PUSH2 0x610 JUMPI PUSH1 0x40 MLOAD DUP1 PUSH2 0x2C5 DUP9 DUP9 DUP4 PUSH2 0x2D73 JUMP JUMPDEST DUP1 PUSH2 0x61E PUSH2 0x63F SWAP3 DUP5 PUSH2 0x32E5 JUMP JUMPDEST MLOAD PUSH2 0x629 DUP3 DUP9 PUSH2 0x32E5 JUMP JUMPDEST MSTORE PUSH2 0x634 DUP2 DUP6 PUSH2 0x32E5 JUMP JUMPDEST MLOAD PUSH2 0x388 DUP3 DUP10 PUSH2 0x32E5 JUMP JUMPDEST PUSH2 0x5FA JUMP JUMPDEST POP DUP2 MLOAD PUSH2 0x5E3 JUMP JUMPDEST POP DUP3 MLOAD DUP2 LT PUSH2 0x5DD JUMP JUMPDEST DUP4 MLOAD PUSH1 0x0 NOT SWAP1 DUP2 DUP2 ADD SWAP1 DUP2 GT PUSH2 0x744 JUMPI DUP3 LT ISZERO PUSH2 0x765 JUMPI PUSH1 0x0 SWAP1 DUP4 JUMPDEST PUSH2 0x689 JUMPI JUMPDEST POP POP PUSH2 0x683 DUP3 SWAP2 PUSH2 0x2F34 JUMP JUMPDEST SWAP1 PUSH2 0x5CA JUMP JUMPDEST PUSH2 0x699 DUP4 DUP8 SWAP5 SWAP7 SWAP4 SWAP6 SWAP8 MLOAD PUSH2 0x3018 JUMP JUMPDEST DUP2 DUP2 ADD SWAP1 DUP2 GT PUSH2 0x744 JUMPI DUP5 LT ISZERO PUSH2 0x75A JUMPI PUSH2 0x6B4 DUP5 DUP4 PUSH2 0x32E5 JUMP JUMPDEST MLOAD DUP7 DUP6 ADD SWAP5 DUP6 DUP2 GT PUSH2 0x744 JUMPI DUP6 PUSH2 0x6DD SWAP3 PUSH2 0x6D0 DUP11 SWAP9 DUP8 PUSH2 0x32E5 JUMP JUMPDEST MLOAD GT PUSH2 0x6E6 JUMPI JUMPDEST POP PUSH2 0x2F34 JUMP JUMPDEST SWAP2 SWAP5 SWAP3 SWAP6 PUSH2 0x672 JUMP JUMPDEST PUSH2 0x6F0 DUP3 DUP7 PUSH2 0x32E5 JUMP JUMPDEST MLOAD PUSH2 0x6FB DUP3 DUP8 PUSH2 0x32E5 JUMP JUMPDEST MLOAD PUSH2 0x706 DUP5 DUP9 PUSH2 0x32E5 JUMP JUMPDEST MSTORE PUSH2 0x711 DUP3 DUP8 PUSH2 0x32E5 JUMP JUMPDEST MSTORE PUSH2 0x73D PUSH2 0x71F DUP4 DUP9 PUSH2 0x32E5 JUMP JUMPDEST MLOAD SWAP2 PUSH2 0x72B DUP2 DUP10 PUSH2 0x32E5 JUMP JUMPDEST MLOAD PUSH2 0x736 DUP6 DUP11 PUSH2 0x32E5 JUMP JUMPDEST MSTORE DUP8 PUSH2 0x32E5 JUMP JUMPDEST MSTORE DUP9 PUSH2 0x6D7 JUMP JUMPDEST PUSH4 0x4E487B71 PUSH1 0xE0 SHL PUSH1 0x0 MSTORE PUSH1 0x11 PUSH1 0x4 MSTORE PUSH1 0x24 PUSH1 0x0 REVERT JUMPDEST DUP2 SWAP5 SWAP3 SWAP6 SWAP4 POP PUSH2 0x677 JUMP JUMPDEST POP PUSH2 0x5CF JUMP JUMPDEST PUSH1 0x40 MLOAD PUSH4 0xEB44FDD3 PUSH1 0xE0 SHL DUP2 MSTORE PUSH1 0x4 DUP2 ADD DUP3 SWAP1 MSTORE PUSH1 0x24 SWAP1 PUSH1 0x0 DUP2 DUP4 DUP2 DUP9 GAS STATICCALL DUP1 ISZERO PUSH2 0x405 JUMPI PUSH2 0x180 SWAP2 PUSH1 0x0 SWAP2 PUSH2 0x8DE JUMPI JUMPDEST POP ADD MLOAD PUSH1 0x5 DUP2 LT ISZERO PUSH2 0x3CD JUMPI ISZERO PUSH2 0x7BD JUMPI JUMPDEST POP PUSH2 0x7B8 SWAP1 PUSH2 0x2F34 JUMP JUMPDEST PUSH2 0x5BA JUMP JUMPDEST SWAP1 SWAP6 PUSH1 0x40 MLOAD SWAP1 PUSH4 0xCCF4467 PUSH1 0xE0 SHL DUP3 MSTORE DUP8 PUSH1 0x4 DUP4 ADD MSTORE DUP4 DUP3 DUP5 DUP2 DUP9 GAS STATICCALL SWAP2 DUP3 ISZERO PUSH2 0x405 JUMPI PUSH1 0x0 SWAP3 PUSH2 0x8AF JUMPI JUMPDEST POP DUP9 MLOAD DUP8 DUP2 ADD DUP1 SWAP2 GT PUSH2 0x89A JUMPI PUSH2 0x7FF SWAP1 PUSH2 0x32B3 JUMP JUMPDEST SWAP3 DUP2 MLOAD SWAP1 DUP9 DUP3 ADD DUP1 SWAP3 GT PUSH2 0x3A2 JUMPI POP PUSH2 0x818 DUP10 SWAP2 PUSH2 0x32B3 JUMP JUMPDEST SWAP10 DUP9 PUSH1 0x0 DUP2 JUMPDEST PUSH2 0x84B JUMPI JUMPDEST POP POP SWAP2 PUSH2 0x842 SWAP2 PUSH2 0x83A PUSH2 0x7B8 SWAP7 SWAP6 SWAP5 MLOAD DUP7 PUSH2 0x32E5 JUMP JUMPDEST MSTORE MLOAD DUP11 PUSH2 0x32E5 JUMP JUMPDEST MSTORE SWAP7 SWAP6 SWAP1 PUSH2 0x7AE JUMP JUMPDEST SWAP1 SWAP2 SWAP3 DUP4 MLOAD DUP3 LT ISZERO PUSH2 0x892 JUMPI POP DUP1 PUSH2 0x866 PUSH2 0x888 SWAP3 DUP6 PUSH2 0x32E5 JUMP JUMPDEST MLOAD PUSH2 0x871 DUP3 DUP10 PUSH2 0x32E5 JUMP JUMPDEST MSTORE DUP13 PUSH2 0x388 DUP3 PUSH2 0x881 DUP2 DUP10 PUSH2 0x32E5 JUMP JUMPDEST MLOAD SWAP3 PUSH2 0x32E5 JUMP JUMPDEST SWAP1 DUP11 SWAP3 SWAP2 DUP2 PUSH2 0x81E JUMP JUMPDEST SWAP3 SWAP2 SWAP1 PUSH2 0x823 JUMP JUMPDEST DUP4 PUSH4 0x4E487B71 PUSH1 0xE0 SHL PUSH1 0x0 MSTORE PUSH1 0x11 PUSH1 0x4 MSTORE PUSH1 0x0 REVERT JUMPDEST SWAP1 SWAP2 POP DUP4 DUP2 DUP2 RETURNDATASIZE DUP4 GT PUSH2 0x8D7 JUMPI JUMPDEST PUSH2 0x8C7 DUP2 DUP4 PUSH2 0x2FD5 JUMP JUMPDEST DUP2 ADD SUB SLT PUSH2 0x249 JUMPI MLOAD SWAP1 DUP10 PUSH2 0x7E9 JUMP JUMPDEST POP RETURNDATASIZE PUSH2 0x8BD JUMP JUMPDEST PUSH2 0x8F3 SWAP2 POP RETURNDATASIZE DUP1 PUSH1 0x0 DUP4 RETURNDATACOPY PUSH2 0x3F7 DUP2 DUP4 PUSH2 0x2FD5 JUMP JUMPDEST DUP11 PUSH2 0x79C JUMP JUMPDEST SWAP1 POP DUP3 DUP2 DUP2 RETURNDATASIZE DUP4 GT PUSH2 0x91F JUMPI JUMPDEST PUSH2 0x910 DUP2 DUP4 PUSH2 0x2FD5 JUMP JUMPDEST DUP2 ADD SUB SLT PUSH2 0x249 JUMPI MLOAD DUP5 PUSH2 0x595 JUMP JUMPDEST POP RETURNDATASIZE PUSH2 0x906 JUMP JUMPDEST CALLVALUE PUSH2 0x249 JUMPI PUSH1 0x40 CALLDATASIZE PUSH1 0x3 NOT ADD SLT PUSH2 0x249 JUMPI PUSH2 0x93F PUSH2 0x2D9B JUMP JUMPDEST PUSH1 0x1 PUSH1 0x1 PUSH1 0xA0 SHL SUB AND PUSH1 0x0 SWAP1 DUP2 MSTORE PUSH1 0x4 PUSH1 0x20 MSTORE PUSH1 0x40 SWAP1 KECCAK256 DUP1 SLOAD PUSH1 0x24 CALLDATALOAD SWAP2 SWAP1 DUP3 LT ISZERO PUSH2 0x249 JUMPI PUSH1 0x20 SWAP2 PUSH2 0x970 SWAP2 PUSH2 0x2E07 JUMP JUMPDEST SWAP1 SLOAD PUSH1 0x40 MLOAD SWAP2 PUSH1 0x3 SHL SHR DUP2 MSTORE RETURN JUMPDEST CALLVALUE PUSH2 0x249 JUMPI PUSH1 0x20 CALLDATASIZE PUSH1 0x3 NOT ADD SLT PUSH2 0x249 JUMPI PUSH2 0x997 PUSH2 0x2D9B JUMP JUMPDEST PUSH2 0x99F PUSH2 0x2EAC JUMP JUMPDEST PUSH1 0x1 DUP1 SLOAD PUSH1 0x1 PUSH1 0x1 PUSH1 0xA0 SHL SUB NOT AND PUSH1 0x1 PUSH1 0x1 PUSH1 0xA0 SHL SUB SWAP3 SWAP1 SWAP3 AND SWAP2 SWAP1 SWAP2 OR SWAP1 SSTORE STOP JUMPDEST CALLVALUE PUSH2 0x249 JUMPI PUSH1 0x20 DUP1 PUSH1 0x3 NOT CALLDATASIZE ADD SLT PUSH2 0x249 JUMPI PUSH2 0x9DB PUSH2 0x2D9B JUMP JUMPDEST SWAP1 PUSH1 0x40 MLOAD PUSH2 0x9E8 DUP2 PUSH2 0x2FBA JUMP JUMPDEST PUSH1 0x0 DUP2 MSTORE PUSH1 0x1 DUP1 SLOAD PUSH1 0x40 MLOAD PUSH4 0x1FCA74DD PUSH1 0xE3 SHL DUP2 MSTORE SWAP3 SWAP5 SWAP3 SWAP1 PUSH1 0x1 PUSH1 0x1 PUSH1 0xA0 SHL SUB SWAP1 DUP2 AND DUP6 DUP4 PUSH1 0x4 DUP2 DUP5 GAS STATICCALL SWAP3 DUP4 ISZERO PUSH2 0x405 JUMPI PUSH1 0x0 SWAP4 PUSH2 0xB1C JUMPI JUMPDEST POP SWAP2 SWAP4 DUP2 AND SWAP2 DUP4 JUMPDEST DUP6 DUP2 LT PUSH2 0xA45 JUMPI PUSH1 0x40 MLOAD DUP8 DUP2 MSTORE DUP1 PUSH2 0x2C5 DUP2 DUP11 ADD DUP12 PUSH2 0x2D3F JUMP JUMPDEST PUSH1 0x40 MLOAD PUSH4 0xEB44FDD3 PUSH1 0xE0 SHL DUP2 MSTORE PUSH1 0x4 DUP2 ADD DUP3 SWAP1 MSTORE PUSH1 0x24 SWAP1 PUSH1 0x0 DUP2 DUP4 DUP2 DUP8 GAS STATICCALL DUP1 ISZERO PUSH2 0x405 JUMPI PUSH1 0x80 DUP7 SWAP2 DUP9 SWAP4 PUSH1 0x0 SWAP2 PUSH2 0xB01 JUMPI JUMPDEST POP ADD MLOAD AND EQ PUSH2 0xA91 JUMPI JUMPDEST POP PUSH2 0xA8C SWAP1 PUSH2 0x2F34 JUMP JUMPDEST PUSH2 0xA2B JUMP JUMPDEST DUP9 SWAP2 SWAP9 MLOAD SWAP1 DUP7 DUP3 ADD DUP1 SWAP3 GT PUSH2 0x3A2 JUMPI POP SWAP1 DUP9 PUSH2 0xAAD DUP8 SWAP4 PUSH2 0x32B3 JUMP JUMPDEST SWAP2 DUP4 PUSH1 0x0 SWAP5 JUMPDEST PUSH2 0xAD1 JUMPI JUMPDEST POP PUSH2 0xA8C SWAP4 POP PUSH2 0xAC9 SWAP1 MLOAD DUP4 PUSH2 0x32E5 JUMP JUMPDEST MSTORE SWAP8 SWAP1 PUSH2 0xA82 JUMP JUMPDEST SWAP2 DUP2 SWAP4 SWAP5 SWAP2 MLOAD DUP3 LT ISZERO PUSH2 0xAF7 JUMPI POP DUP1 PUSH2 0x37D PUSH2 0xAED SWAP3 DUP6 PUSH2 0x32E5 JUMP JUMPDEST SWAP3 SWAP2 DUP2 DUP12 SWAP3 PUSH2 0xAB3 JUMP JUMPDEST SWAP2 DUP5 SWAP4 SWAP2 POP PUSH2 0xAB8 JUMP JUMPDEST PUSH2 0xB16 SWAP2 POP RETURNDATASIZE DUP1 PUSH1 0x0 DUP4 RETURNDATACOPY PUSH2 0x3F7 DUP2 DUP4 PUSH2 0x2FD5 JUMP JUMPDEST DUP14 PUSH2 0xA78 JUMP JUMPDEST SWAP1 SWAP3 POP DUP6 DUP2 DUP2 RETURNDATASIZE DUP4 GT PUSH2 0xB44 JUMPI JUMPDEST PUSH2 0xB34 DUP2 DUP4 PUSH2 0x2FD5 JUMP JUMPDEST DUP2 ADD SUB SLT PUSH2 0x249 JUMPI MLOAD SWAP2 DUP8 PUSH2 0xA23 JUMP JUMPDEST POP RETURNDATASIZE PUSH2 0xB2A JUMP JUMPDEST CALLVALUE PUSH2 0x249 JUMPI PUSH1 0x20 DUP1 PUSH1 0x3 NOT CALLDATASIZE ADD SLT PUSH2 0x249 JUMPI PUSH1 0x40 MLOAD DUP1 SWAP2 PUSH1 0x40 DUP3 ADD SWAP1 PUSH1 0x40 DUP4 MSTORE PUSH1 0x60 MLOAD DUP1 SWAP3 MSTORE PUSH1 0x60 DUP4 ADD SWAP2 PUSH1 0x80 SWAP1 PUSH1 0x0 JUMPDEST DUP2 DUP2 LT PUSH2 0xBC3 JUMPI POP POP POP DUP3 DUP3 SUB DUP2 DUP5 ADD MSTORE DUP1 PUSH1 0x60 MLOAD SWAP3 DUP4 DUP2 MSTORE ADD SWAP2 PUSH1 0x80 SWAP2 PUSH1 0x0 JUMPDEST DUP3 DUP2 LT PUSH2 0xBAC JUMPI POP POP POP POP SUB SWAP1 RETURN JUMPDEST DUP4 MLOAD DUP6 MSTORE DUP7 SWAP6 POP SWAP4 DUP2 ADD SWAP4 SWAP3 DUP2 ADD SWAP3 PUSH1 0x1 ADD PUSH2 0xB9D JUMP JUMPDEST DUP3 MLOAD PUSH1 0x1 PUSH1 0x1 PUSH1 0xA0 SHL SUB AND DUP6 MSTORE DUP7 SWAP6 POP SWAP4 DUP4 ADD SWAP4 SWAP2 DUP4 ADD SWAP2 PUSH1 0x1 ADD PUSH2 0xB7C JUMP JUMPDEST CALLVALUE PUSH2 0x249 JUMPI PUSH1 0x80 CALLDATASIZE PUSH1 0x3 NOT ADD SLT PUSH2 0x249 JUMPI PUSH1 0x4 CALLDATALOAD PUSH1 0x24 PUSH2 0xC01 PUSH2 0x2DB1 JUMP JUMPDEST PUSH1 0x1 SLOAD PUSH1 0x64 CALLDATALOAD SWAP2 PUSH1 0x1 PUSH1 0x1 PUSH1 0xA0 SHL SUB SWAP2 PUSH1 0x44 CALLDATALOAD SWAP2 DUP4 SWAP2 PUSH2 0xC24 SWAP1 DUP4 AND CALLER EQ PUSH2 0x2ED8 JUMP JUMPDEST AND SWAP1 DUP2 PUSH1 0x0 MSTORE PUSH1 0x20 SWAP4 PUSH1 0x2 DUP6 MSTORE PUSH1 0x40 PUSH1 0x0 KECCAK256 SWAP2 PUSH2 0xC41 DUP4 SLOAD PUSH2 0x2F34 JUMP JUMPDEST DUP4 SSTORE PUSH1 0x4 DUP4 ADD PUSH2 0xC52 DUP4 DUP3 SLOAD PUSH2 0x2F43 JUMP JUMPDEST SWAP1 SSTORE TIMESTAMP PUSH1 0xA DUP5 ADD SSTORE DUP4 PUSH1 0x0 MSTORE PUSH1 0x7 DUP7 MSTORE PUSH1 0x40 PUSH1 0x0 KECCAK256 DUP2 PUSH1 0x0 MSTORE DUP7 MSTORE PUSH1 0x40 PUSH1 0x0 KECCAK256 PUSH2 0xC7C DUP2 SLOAD PUSH2 0x2F34 JUMP JUMPDEST SWAP1 SSTORE DUP4 PUSH1 0x0 MSTORE PUSH1 0x7 DUP7 MSTORE PUSH1 0x40 PUSH1 0x0 KECCAK256 DUP2 PUSH1 0x0 MSTORE DUP7 MSTORE PUSH1 0x40 PUSH1 0x0 KECCAK256 SLOAD DUP5 PUSH1 0x0 MSTORE PUSH1 0x7 DUP8 MSTORE PUSH1 0x40 PUSH1 0x0 KECCAK256 SWAP1 PUSH1 0x9 DUP6 ADD SWAP2 DUP3 SLOAD PUSH1 0x0 MSTORE DUP9 MSTORE PUSH1 0x40 PUSH1 0x0 KECCAK256 SLOAD LT PUSH2 0xE63 JUMPI JUMPDEST POP POP DUP7 PUSH1 0x0 MSTORE PUSH1 0x3 DUP6 MSTORE PUSH1 0x40 PUSH1 0x0 KECCAK256 SWAP4 DUP6 PUSH2 0xCD9 DUP4 DUP8 SLOAD PUSH2 0x2F43 JUMP JUMPDEST SWAP2 DUP3 DUP8 SSTORE PUSH1 0x1 SLOAD AND PUSH1 0x40 MLOAD SWAP9 DUP10 DUP1 SWAP3 PUSH4 0xCCF4467 PUSH1 0xE0 SHL DUP3 MSTORE DUP13 PUSH1 0x4 DUP4 ADD MSTORE GAS STATICCALL SWAP7 DUP8 ISZERO PUSH2 0x405 JUMPI PUSH1 0x0 SWAP8 PUSH2 0xE34 JUMPI JUMPDEST POP PUSH1 0x1 DUP6 ADD DUP8 DUP2 SSTORE SWAP7 DUP1 ISZERO PUSH2 0xE2B JUMPI PUSH2 0xD21 SWAP2 PUSH2 0x2FF8 JUMP JUMPDEST PUSH1 0x3 DUP6 ADD SSTORE PUSH1 0x4 DUP5 ADD DUP1 SLOAD DUP3 GT PUSH2 0xE23 JUMPI JUMPDEST POP POP DUP2 PUSH1 0x0 MSTORE PUSH1 0x4 DUP5 MSTORE PUSH1 0x40 PUSH1 0x0 KECCAK256 DUP1 SLOAD SWAP1 DUP2 ISZERO SWAP2 DUP3 ISZERO PUSH2 0xDCC JUMPI JUMPDEST POP POP SWAP2 PUSH1 0x0 DUP1 MLOAD PUSH1 0x20 PUSH2 0x339B DUP4 CODECOPY DUP2 MLOAD SWAP2 MSTORE PUSH1 0x40 PUSH1 0x0 DUP1 MLOAD PUSH1 0x20 PUSH2 0x33DB DUP4 CODECOPY DUP2 MLOAD SWAP2 MSTORE SWAP8 SWAP6 SWAP4 DUP2 SWAP8 SWAP6 PUSH2 0xDB2 JUMPI JUMPDEST DUP4 PUSH1 0x0 MSTORE PUSH1 0x5 DUP7 MSTORE PUSH2 0xD92 DUP11 DUP4 PUSH1 0x0 KECCAK256 PUSH2 0x3025 JUMP JUMPDEST PUSH1 0x3 DUP2 SLOAD SWAP2 ADD SLOAD DUP3 MLOAD SWAP2 DUP3 MSTORE DUP7 DUP3 ADD MSTORE LOG2 SLOAD SWAP2 SLOAD SWAP1 DUP4 MLOAD SWAP3 DUP4 MSTORE DUP3 ADD MSTORE LOG2 STOP JUMPDEST DUP4 PUSH1 0x0 MSTORE PUSH1 0x4 DUP7 MSTORE PUSH2 0xDC7 DUP11 DUP4 PUSH1 0x0 KECCAK256 PUSH2 0x3025 JUMP JUMPDEST PUSH2 0xD7D JUMP JUMPDEST SWAP1 SWAP7 SWAP5 SWAP3 SWAP6 SWAP4 SWAP2 POP PUSH1 0x0 NOT DUP2 ADD SWAP1 DUP2 GT PUSH2 0x744 JUMPI PUSH1 0x40 DUP1 SWAP7 DUP10 PUSH2 0xE0D PUSH1 0x0 DUP1 MLOAD PUSH1 0x20 PUSH2 0x339B DUP4 CODECOPY DUP2 MLOAD SWAP2 MSTORE SWAP5 PUSH1 0x0 DUP1 MLOAD PUSH1 0x20 PUSH2 0x33DB DUP4 CODECOPY DUP2 MLOAD SWAP2 MSTORE SWAP12 PUSH2 0x2E07 JUMP JUMPDEST SWAP1 SLOAD SWAP1 PUSH1 0x3 SHL SHR EQ ISZERO SWAP4 SWAP6 SWAP8 POP SWAP4 SWAP6 SWAP8 POP PUSH2 0xD4F JUMP JUMPDEST SSTORE DUP7 DUP1 PUSH2 0xD33 JUMP JUMPDEST POP POP PUSH1 0x0 PUSH2 0xD21 JUMP JUMPDEST SWAP1 SWAP7 POP DUP6 DUP2 DUP2 RETURNDATASIZE DUP4 GT PUSH2 0xE5C JUMPI JUMPDEST PUSH2 0xE4C DUP2 DUP4 PUSH2 0x2FD5 JUMP JUMPDEST DUP2 ADD SUB SLT PUSH2 0x249 JUMPI MLOAD SWAP6 DUP9 PUSH2 0xD09 JUMP JUMPDEST POP RETURNDATASIZE PUSH2 0xE42 JUMP JUMPDEST SSTORE DUP8 DUP1 PUSH2 0xCBD JUMP JUMPDEST CALLVALUE PUSH2 0x249 JUMPI PUSH1 0x40 CALLDATASIZE PUSH1 0x3 NOT ADD SLT PUSH2 0x249 JUMPI PUSH2 0xE84 PUSH2 0x2D9B JUMP JUMPDEST PUSH1 0x1 PUSH1 0x1 PUSH1 0xA0 SHL SUB AND PUSH1 0x0 SWAP1 DUP2 MSTORE PUSH1 0x5 PUSH1 0x20 MSTORE PUSH1 0x40 SWAP1 KECCAK256 DUP1 SLOAD PUSH1 0x24 CALLDATALOAD SWAP2 SWAP1 DUP3 LT ISZERO PUSH2 0x249 JUMPI PUSH1 0x20 SWAP2 PUSH2 0x970 SWAP2 PUSH2 0x2E07 JUMP JUMPDEST CALLVALUE PUSH2 0x249 JUMPI PUSH1 0x20 DUP1 PUSH1 0x3 NOT CALLDATASIZE ADD SLT PUSH2 0x249 JUMPI PUSH1 0x1 DUP1 SLOAD PUSH1 0x40 MLOAD PUSH4 0x1FCA74DD PUSH1 0xE3 SHL DUP2 MSTORE PUSH1 0x1 PUSH1 0x1 PUSH1 0xA0 SHL SUB SWAP1 SWAP2 AND SWAP2 SWAP1 DUP4 DUP2 PUSH1 0x4 DUP2 DUP7 GAS STATICCALL SWAP1 DUP2 ISZERO PUSH2 0x405 JUMPI PUSH1 0x0 SWAP2 PUSH2 0x11E3 JUMPI JUMPDEST POP PUSH1 0x40 MLOAD PUSH2 0xF09 DUP2 PUSH2 0x2FBA JUMP JUMPDEST PUSH1 0x0 DUP2 MSTORE SWAP4 PUSH1 0x40 MLOAD PUSH2 0xF1A DUP2 PUSH2 0x2FBA JUMP JUMPDEST PUSH1 0x0 DUP2 MSTORE SWAP4 DUP4 JUMPDEST DUP4 DUP2 LT PUSH2 0x1030 JUMPI POP POP POP POP DUP1 PUSH1 0x0 SWAP1 JUMPDEST PUSH2 0xF9C JUMPI JUMPDEST POP POP PUSH1 0x4 CALLDATALOAD DUP1 ISZERO ISZERO DUP1 PUSH2 0xF92 JUMPI JUMPDEST ISZERO PUSH2 0xF8A JUMPI JUMPDEST PUSH2 0xF53 DUP2 PUSH2 0x32B3 JUMP JUMPDEST SWAP2 PUSH2 0xF5D DUP3 PUSH2 0x32B3 JUMP JUMPDEST SWAP4 PUSH1 0x0 JUMPDEST DUP4 DUP2 LT PUSH2 0xF77 JUMPI PUSH1 0x40 MLOAD DUP1 PUSH2 0x2C5 DUP9 DUP9 DUP4 PUSH2 0x2D73 JUMP JUMPDEST DUP1 PUSH2 0x61E PUSH2 0xF85 SWAP3 DUP5 PUSH2 0x32E5 JUMP JUMPDEST PUSH2 0xF61 JUMP JUMPDEST POP DUP2 MLOAD PUSH2 0xF4A JUMP JUMPDEST POP DUP3 MLOAD DUP2 LT PUSH2 0xF44 JUMP JUMPDEST DUP4 MLOAD PUSH1 0x0 NOT SWAP1 DUP2 DUP2 ADD SWAP1 DUP2 GT PUSH2 0x744 JUMPI DUP3 LT ISZERO PUSH2 0x102A JUMPI PUSH1 0x0 SWAP1 DUP4 JUMPDEST PUSH2 0xFCF JUMPI JUMPDEST POP POP PUSH2 0xFC9 DUP3 SWAP2 PUSH2 0x2F34 JUMP JUMPDEST SWAP1 PUSH2 0xF31 JUMP JUMPDEST PUSH2 0xFDF DUP4 DUP8 SWAP5 SWAP7 SWAP4 SWAP6 SWAP8 MLOAD PUSH2 0x3018 JUMP JUMPDEST DUP2 DUP2 ADD SWAP1 DUP2 GT PUSH2 0x744 JUMPI DUP5 LT ISZERO PUSH2 0x101F JUMPI PUSH2 0xFFA DUP5 DUP4 PUSH2 0x32E5 JUMP JUMPDEST MLOAD DUP7 DUP6 ADD SWAP5 DUP6 DUP2 GT PUSH2 0x744 JUMPI DUP6 PUSH2 0x1016 SWAP3 PUSH2 0x6D0 DUP11 SWAP9 DUP8 PUSH2 0x32E5 JUMP JUMPDEST SWAP2 SWAP5 SWAP3 SWAP6 PUSH2 0xFB8 JUMP JUMPDEST DUP2 SWAP5 SWAP3 SWAP6 SWAP4 POP PUSH2 0xFBD JUMP JUMPDEST POP PUSH2 0xF36 JUMP JUMPDEST PUSH1 0x40 MLOAD PUSH4 0xEB44FDD3 PUSH1 0xE0 SHL DUP2 MSTORE PUSH1 0x4 DUP2 ADD DUP3 SWAP1 MSTORE PUSH1 0x24 SWAP1 PUSH1 0x0 DUP2 DUP4 DUP2 DUP8 GAS STATICCALL DUP1 ISZERO PUSH2 0x405 JUMPI PUSH2 0x180 SWAP2 PUSH1 0x0 SWAP2 PUSH2 0x11C8 JUMPI JUMPDEST POP ADD MLOAD PUSH1 0x5 DUP2 LT ISZERO PUSH2 0x3CD JUMPI ISZERO PUSH2 0x1082 JUMPI JUMPDEST POP PUSH2 0x107D SWAP1 PUSH2 0x2F34 JUMP JUMPDEST PUSH2 0xF21 JUMP JUMPDEST SWAP1 SWAP6 PUSH1 0x40 MLOAD PUSH4 0xCCF4467 PUSH1 0xE0 SHL DUP2 MSTORE DUP8 PUSH1 0x4 DUP3 ADD MSTORE DUP5 DUP2 DUP5 DUP2 DUP8 GAS STATICCALL SWAP1 DUP2 ISZERO PUSH2 0x405 JUMPI PUSH1 0x0 SWAP2 PUSH2 0x119B JUMPI JUMPDEST POP PUSH1 0x40 MLOAD PUSH4 0x28C28245 PUSH1 0xE2 SHL DUP2 MSTORE PUSH1 0x4 DUP2 ADD DUP10 SWAP1 MSTORE SWAP1 DUP6 DUP3 DUP6 DUP2 DUP9 GAS STATICCALL SWAP1 DUP2 ISZERO PUSH2 0x405 JUMPI PUSH1 0x0 SWAP2 PUSH2 0x116A JUMPI JUMPDEST PUSH2 0x10E3 SWAP3 POP PUSH2 0x2F43 JUMP JUMPDEST SWAP1 DUP9 MLOAD DUP8 DUP2 ADD DUP1 SWAP2 GT PUSH2 0x89A JUMPI PUSH2 0x10F9 SWAP1 PUSH2 0x32B3 JUMP JUMPDEST SWAP3 DUP2 MLOAD SWAP1 DUP9 DUP3 ADD DUP1 SWAP3 GT PUSH2 0x3A2 JUMPI POP PUSH2 0x1112 DUP10 SWAP2 PUSH2 0x32B3 JUMP JUMPDEST SWAP10 DUP9 PUSH1 0x0 DUP2 JUMPDEST PUSH2 0x113D JUMPI JUMPDEST POP POP SWAP2 PUSH2 0x1134 SWAP2 PUSH2 0x83A PUSH2 0x107D SWAP7 SWAP6 SWAP5 MLOAD DUP7 PUSH2 0x32E5 JUMP JUMPDEST MSTORE SWAP7 SWAP6 SWAP1 PUSH2 0x1073 JUMP JUMPDEST SWAP1 SWAP2 SWAP3 DUP4 MLOAD DUP3 LT ISZERO PUSH2 0x1162 JUMPI POP DUP1 PUSH2 0x866 PUSH2 0x1158 SWAP3 DUP6 PUSH2 0x32E5 JUMP JUMPDEST SWAP1 DUP11 SWAP3 SWAP2 DUP2 PUSH2 0x1118 JUMP JUMPDEST SWAP3 SWAP2 SWAP1 PUSH2 0x111D JUMP JUMPDEST SWAP1 POP DUP6 DUP3 DUP2 RETURNDATASIZE DUP4 GT PUSH2 0x1194 JUMPI JUMPDEST PUSH2 0x1181 DUP2 DUP4 PUSH2 0x2FD5 JUMP JUMPDEST DUP2 ADD SUB SLT PUSH2 0x249 JUMPI PUSH2 0x10E3 SWAP2 MLOAD SWAP1 PUSH2 0x10D9 JUMP JUMPDEST POP RETURNDATASIZE PUSH2 0x1177 JUMP JUMPDEST SWAP1 POP DUP5 DUP2 DUP2 RETURNDATASIZE DUP4 GT PUSH2 0x11C1 JUMPI JUMPDEST PUSH2 0x11B2 DUP2 DUP4 PUSH2 0x2FD5 JUMP JUMPDEST DUP2 ADD SUB SLT PUSH2 0x249 JUMPI MLOAD DUP10 PUSH2 0x10AD JUMP JUMPDEST POP RETURNDATASIZE PUSH2 0x11A8 JUMP JUMPDEST PUSH2 0x11DD SWAP2 POP RETURNDATASIZE DUP1 PUSH1 0x0 DUP4 RETURNDATACOPY PUSH2 0x3F7 DUP2 DUP4 PUSH2 0x2FD5 JUMP JUMPDEST DUP11 PUSH2 0x1061 JUMP JUMPDEST SWAP1 POP DUP4 DUP2 DUP2 RETURNDATASIZE DUP4 GT PUSH2 0x1209 JUMPI JUMPDEST PUSH2 0x11FA DUP2 DUP4 PUSH2 0x2FD5 JUMP JUMPDEST DUP2 ADD SUB SLT PUSH2 0x249 JUMPI MLOAD DUP5 PUSH2 0xEFC JUMP JUMPDEST POP RETURNDATASIZE PUSH2 0x11F0 JUMP JUMPDEST CALLVALUE PUSH2 0x249 JUMPI PUSH1 0x20 DUP1 PUSH1 0x3 NOT CALLDATASIZE ADD SLT PUSH2 0x249 JUMPI PUSH1 0x4 CALLDATALOAD SWAP1 PUSH1 0x5 DUP1 DUP4 LT ISZERO SWAP1 DUP2 PUSH2 0x249 JUMPI PUSH1 0x40 MLOAD PUSH2 0x123E DUP2 PUSH2 0x2FBA JUMP JUMPDEST PUSH1 0x0 DUP2 MSTORE PUSH1 0x1 DUP1 SLOAD PUSH1 0x40 MLOAD PUSH4 0x1FCA74DD PUSH1 0xE3 SHL DUP2 MSTORE SWAP3 SWAP7 SWAP3 SWAP5 SWAP2 SWAP4 SWAP2 SWAP1 PUSH1 0x1 PUSH1 0x1 PUSH1 0xA0 SHL SUB AND DUP7 DUP7 PUSH1 0x4 DUP2 DUP5 GAS STATICCALL SWAP6 DUP7 ISZERO PUSH2 0x405 JUMPI PUSH1 0x0 SWAP7 PUSH2 0x137A JUMPI JUMPDEST POP DUP5 JUMPDEST DUP7 DUP2 LT PUSH2 0x1298 JUMPI PUSH1 0x40 MLOAD DUP9 DUP2 MSTORE DUP1 PUSH2 0x2C5 DUP2 DUP12 ADD DUP13 PUSH2 0x2D3F JUMP JUMPDEST PUSH1 0x40 MLOAD PUSH4 0xEB44FDD3 PUSH1 0xE0 SHL DUP2 MSTORE PUSH1 0x4 DUP2 ADD DUP3 SWAP1 MSTORE PUSH1 0x24 SWAP1 PUSH1 0x0 DUP2 DUP4 DUP2 DUP8 GAS STATICCALL DUP1 ISZERO PUSH2 0x405 JUMPI PUSH2 0x180 SWAP2 PUSH1 0x0 SWAP2 PUSH2 0x135F JUMPI JUMPDEST POP ADD MLOAD DUP6 DUP2 LT ISZERO PUSH2 0x3CD JUMPI DUP5 PUSH2 0x3CD JUMPI DUP7 EQ PUSH2 0x12EF JUMPI JUMPDEST POP PUSH2 0x12EA SWAP1 PUSH2 0x2F34 JUMP JUMPDEST PUSH2 0x127E JUMP JUMPDEST DUP10 SWAP2 SWAP10 MLOAD SWAP1 DUP8 DUP3 ADD DUP1 SWAP3 GT PUSH2 0x3A2 JUMPI POP SWAP1 DUP10 PUSH2 0x130B DUP9 SWAP4 PUSH2 0x32B3 JUMP JUMPDEST SWAP2 DUP4 PUSH1 0x0 SWAP5 JUMPDEST PUSH2 0x132F JUMPI JUMPDEST POP PUSH2 0x12EA SWAP4 POP PUSH2 0x1327 SWAP1 MLOAD DUP4 PUSH2 0x32E5 JUMP JUMPDEST MSTORE SWAP9 SWAP1 PUSH2 0x12E0 JUMP JUMPDEST SWAP2 DUP2 SWAP4 SWAP5 SWAP2 MLOAD DUP3 LT ISZERO PUSH2 0x1355 JUMPI POP DUP1 PUSH2 0x37D PUSH2 0x134B SWAP3 DUP6 PUSH2 0x32E5 JUMP JUMPDEST SWAP3 SWAP2 DUP2 DUP13 SWAP3 PUSH2 0x1311 JUMP JUMPDEST SWAP2 DUP5 SWAP4 SWAP2 POP PUSH2 0x1316 JUMP JUMPDEST PUSH2 0x1374 SWAP2 POP RETURNDATASIZE DUP1 PUSH1 0x0 DUP4 RETURNDATACOPY PUSH2 0x3F7 DUP2 DUP4 PUSH2 0x2FD5 JUMP JUMPDEST DUP13 PUSH2 0x12C9 JUMP JUMPDEST SWAP1 SWAP6 POP DUP7 DUP2 DUP2 RETURNDATASIZE DUP4 GT PUSH2 0x13A2 JUMPI JUMPDEST PUSH2 0x1392 DUP2 DUP4 PUSH2 0x2FD5 JUMP JUMPDEST DUP2 ADD SUB SLT PUSH2 0x249 JUMPI MLOAD SWAP5 DUP9 PUSH2 0x127B JUMP JUMPDEST POP RETURNDATASIZE PUSH2 0x1388 JUMP JUMPDEST CALLVALUE PUSH2 0x249 JUMPI PUSH2 0x13B7 CALLDATASIZE PUSH2 0x2DC7 JUMP JUMPDEST PUSH1 0x1 SLOAD PUSH1 0x1 PUSH1 0x1 PUSH1 0xA0 SHL SUB SWAP4 SWAP3 DUP5 SWAP2 PUSH2 0x13D3 SWAP1 DUP4 AND CALLER EQ PUSH2 0x2ED8 JUMP JUMPDEST AND SWAP3 DUP4 PUSH1 0x0 MSTORE PUSH1 0x24 PUSH1 0x20 SWAP2 PUSH1 0x2 DUP4 MSTORE PUSH1 0x40 PUSH1 0x0 KECCAK256 SWAP4 PUSH2 0x13F7 PUSH1 0x5 DUP7 ADD SWAP2 DUP3 SLOAD PUSH2 0x2F43 JUMP JUMPDEST SWAP1 SSTORE TIMESTAMP PUSH1 0xA DUP6 ADD SSTORE DUP5 PUSH1 0x0 MSTORE PUSH1 0x3 DUP4 MSTORE DUP3 PUSH1 0x40 PUSH1 0x0 KECCAK256 SWAP2 PUSH1 0x1 SLOAD AND PUSH1 0x40 MLOAD SWAP4 DUP5 DUP1 SWAP3 PUSH4 0x28C28245 PUSH1 0xE2 SHL DUP3 MSTORE DUP10 PUSH1 0x4 DUP4 ADD MSTORE GAS STATICCALL SWAP2 DUP3 ISZERO PUSH2 0x405 JUMPI PUSH1 0x0 SWAP3 PUSH2 0x147C JUMPI JUMPDEST POP PUSH1 0x0 DUP1 MLOAD PUSH1 0x20 PUSH2 0x339B DUP4 CODECOPY DUP2 MLOAD SWAP2 MSTORE SWAP5 PUSH1 0x40 SWAP5 SWAP4 SWAP3 PUSH1 0x2 PUSH2 0x1469 SWAP4 ADD SSTORE DUP7 PUSH1 0x0 MSTORE PUSH1 0x6 DUP4 MSTORE DUP5 PUSH1 0x0 KECCAK256 PUSH2 0x3025 JUMP JUMPDEST PUSH1 0x3 DUP3 SLOAD SWAP3 ADD SLOAD SWAP1 DUP4 MLOAD SWAP3 DUP4 MSTORE DUP3 ADD MSTORE LOG2 STOP JUMPDEST SWAP1 SWAP4 SWAP3 DUP1 SWAP3 POP DUP2 DUP2 RETURNDATASIZE DUP4 GT PUSH2 0x14B8 JUMPI JUMPDEST PUSH2 0x1496 DUP2 DUP4 PUSH2 0x2FD5 JUMP JUMPDEST DUP2 ADD SUB SLT PUSH2 0x249 JUMPI MLOAD SWAP2 SWAP3 SWAP1 SWAP2 SWAP1 PUSH1 0x0 DUP1 MLOAD PUSH1 0x20 PUSH2 0x339B DUP4 CODECOPY DUP2 MLOAD SWAP2 MSTORE PUSH2 0x143A JUMP JUMPDEST POP RETURNDATASIZE PUSH2 0x148C JUMP JUMPDEST CALLVALUE PUSH2 0x249 JUMPI PUSH1 0x0 CALLDATASIZE PUSH1 0x3 NOT ADD SLT PUSH2 0x249 JUMPI PUSH1 0x0 SLOAD PUSH1 0x40 MLOAD PUSH1 0x1 PUSH1 0x1 PUSH1 0xA0 SHL SUB SWAP1 SWAP2 AND DUP2 MSTORE PUSH1 0x20 SWAP1 RETURN JUMPDEST CALLVALUE PUSH2 0x249 JUMPI PUSH1 0x20 CALLDATASIZE PUSH1 0x3 NOT ADD SLT PUSH2 0x249 JUMPI PUSH1 0x1 PUSH1 0x1 PUSH1 0xA0 SHL SUB PUSH2 0x1509 PUSH2 0x2D9B JUMP JUMPDEST AND PUSH1 0x0 MSTORE PUSH1 0x2 PUSH1 0x20 MSTORE PUSH2 0x160 PUSH1 0x40 PUSH1 0x0 KECCAK256 DUP1 SLOAD SWAP1 PUSH1 0x1 DUP2 ADD SLOAD SWAP1 PUSH1 0x2 DUP2 ADD SLOAD PUSH1 0x3 DUP3 ADD SLOAD PUSH1 0x4 DUP4 ADD SLOAD PUSH1 0x5 DUP5 ADD SLOAD PUSH1 0x6 DUP6 ADD SLOAD SWAP2 PUSH1 0x7 DUP7 ADD SLOAD SWAP4 PUSH1 0x8 DUP8 ADD SLOAD SWAP6 PUSH1 0xA PUSH1 0x9 DUP10 ADD SLOAD SWAP9 ADD SLOAD SWAP9 PUSH1 0x40 MLOAD SWAP11 DUP12 MSTORE PUSH1 0x20 DUP12 ADD MSTORE PUSH1 0x40 DUP11 ADD MSTORE PUSH1 0x60 DUP10 ADD MSTORE PUSH1 0x80 DUP9 ADD MSTORE PUSH1 0xA0 DUP8 ADD MSTORE PUSH1 0xC0 DUP7 ADD MSTORE PUSH1 0xE0 DUP6 ADD MSTORE PUSH2 0x100 DUP5 ADD MSTORE PUSH2 0x120 DUP4 ADD MSTORE PUSH2 0x140 DUP3 ADD MSTORE RETURN JUMPDEST CALLVALUE PUSH2 0x249 JUMPI PUSH1 0x20 DUP1 PUSH1 0x3 NOT CALLDATASIZE ADD SLT PUSH2 0x249 JUMPI PUSH1 0x1 PUSH1 0x1 PUSH1 0xA0 SHL SUB PUSH2 0x15B3 PUSH2 0x2D9B JUMP JUMPDEST AND PUSH1 0x0 MSTORE PUSH1 0x5 DUP2 MSTORE PUSH1 0x40 PUSH1 0x0 KECCAK256 SWAP1 PUSH1 0x40 MLOAD DUP1 DUP4 DUP4 DUP3 SWAP6 SLOAD SWAP4 DUP5 DUP2 MSTORE ADD SWAP1 PUSH1 0x0 MSTORE DUP4 PUSH1 0x0 KECCAK256 SWAP3 PUSH1 0x0 JUMPDEST DUP6 DUP3 DUP3 LT PUSH2 0x1606 JUMPI POP POP POP PUSH2 0x15F2 SWAP3 POP SUB DUP4 PUSH2 0x2FD5 JUMP JUMPDEST PUSH2 0x2C5 PUSH1 0x40 MLOAD SWAP3 DUP3 DUP5 SWAP4 DUP5 MSTORE DUP4 ADD SWAP1 PUSH2 0x2D3F JUMP JUMPDEST DUP6 SLOAD DUP5 MSTORE PUSH1 0x1 SWAP6 DUP7 ADD SWAP6 DUP9 SWAP6 POP SWAP4 ADD SWAP3 ADD PUSH2 0x15DB JUMP JUMPDEST CALLVALUE PUSH2 0x249 JUMPI PUSH1 0xE0 CALLDATASIZE PUSH1 0x3 NOT ADD SLT PUSH2 0x249 JUMPI PUSH2 0x1635 PUSH2 0x2D9B JUMP JUMPDEST PUSH2 0x163D PUSH2 0x2DB1 JUMP JUMPDEST PUSH1 0x5 PUSH1 0x84 CALLDATALOAD LT ISZERO SWAP2 DUP3 PUSH2 0x249 JUMPI PUSH1 0x40 MLOAD PUSH2 0x1656 DUP2 PUSH2 0x2FBA JUMP JUMPDEST PUSH1 0x0 DUP2 MSTORE PUSH1 0x1 SLOAD PUSH1 0x40 MLOAD PUSH4 0x1FCA74DD PUSH1 0xE3 SHL DUP2 MSTORE SWAP2 SWAP5 SWAP2 SWAP4 SWAP1 PUSH1 0x1 PUSH1 0x1 PUSH1 0xA0 SHL SUB AND PUSH1 0x20 DUP6 PUSH1 0x4 DUP2 DUP5 GAS STATICCALL SWAP5 DUP6 ISZERO PUSH2 0x405 JUMPI PUSH1 0x0 SWAP6 PUSH2 0x1961 JUMPI JUMPDEST POP PUSH1 0x1 JUMPDEST DUP6 DUP2 LT PUSH2 0x16B1 JUMPI PUSH1 0x40 MLOAD PUSH1 0x20 DUP1 DUP3 MSTORE DUP2 SWAP1 PUSH2 0x2C5 SWAP1 DUP3 ADD DUP11 PUSH2 0x2D3F JUMP JUMPDEST PUSH1 0x40 MLOAD PUSH4 0xEB44FDD3 PUSH1 0xE0 SHL DUP2 MSTORE PUSH1 0x4 DUP2 ADD DUP3 SWAP1 MSTORE PUSH1 0x0 DUP2 PUSH1 0x24 DUP2 DUP7 GAS STATICCALL SWAP1 DUP2 ISZERO PUSH2 0x405 JUMPI PUSH1 0x0 SWAP2 PUSH2 0x1946 JUMPI JUMPDEST POP DUP2 PUSH1 0x0 MSTORE PUSH1 0x3 PUSH1 0x20 MSTORE PUSH1 0x40 PUSH1 0x0 KECCAK256 SWAP1 PUSH1 0x40 MLOAD PUSH2 0x16F9 DUP2 PUSH2 0x2F82 JUMP JUMPDEST DUP3 SLOAD DUP1 DUP3 MSTORE PUSH1 0x1 DUP1 DUP6 ADD SLOAD PUSH1 0x20 DUP5 ADD MSTORE PUSH1 0x2 DUP6 ADD SLOAD PUSH1 0x40 DUP5 ADD MSTORE PUSH1 0x3 DUP6 ADD SLOAD PUSH1 0x60 DUP5 ADD MSTORE PUSH1 0x4 DUP6 ADD SLOAD PUSH1 0x80 DUP5 ADD MSTORE PUSH1 0x5 DUP6 ADD SLOAD PUSH1 0xA0 DUP5 ADD MSTORE PUSH1 0x6 DUP6 ADD SLOAD PUSH1 0xC0 DUP5 ADD MSTORE PUSH1 0x7 DUP6 ADD SLOAD PUSH1 0xFF AND ISZERO ISZERO PUSH1 0xE0 DUP5 ADD MSTORE PUSH1 0x8 SWAP1 SWAP5 ADD SLOAD PUSH2 0x100 SWAP1 SWAP3 ADD SWAP2 SWAP1 SWAP2 MSTORE DUP7 SWAP1 PUSH1 0x1 PUSH1 0x1 PUSH1 0xA0 SHL SUB DUP10 AND DUP1 ISZERO ISZERO SWAP1 PUSH2 0x192F JUMPI JUMPDEST PUSH2 0x1926 JUMPI JUMPDEST PUSH1 0x1 PUSH1 0x1 PUSH1 0xA0 SHL SUB DUP8 AND DUP1 ISZERO ISZERO SWAP1 PUSH2 0x190C JUMPI JUMPDEST PUSH2 0x1903 JUMPI JUMPDEST PUSH1 0x44 CALLDATALOAD ISZERO ISZERO PUSH1 0x44 CALLDATALOAD PUSH2 0x18F8 JUMPI JUMPDEST PUSH2 0x18EF JUMPI JUMPDEST PUSH1 0x64 CALLDATALOAD ISZERO ISZERO SWAP1 PUSH1 0x64 CALLDATALOAD PUSH2 0x18E3 JUMPI JUMPDEST POP PUSH2 0x18DA JUMPI JUMPDEST PUSH2 0x18C4 JUMPI PUSH1 0x84 CALLDATALOAD ISZERO ISZERO PUSH1 0x84 CALLDATALOAD PUSH2 0x18A5 JUMPI JUMPDEST PUSH2 0x189C JUMPI JUMPDEST PUSH1 0xA4 CALLDATALOAD ISZERO ISZERO PUSH1 0xA4 CALLDATALOAD PUSH2 0x188C JUMPI JUMPDEST PUSH2 0x1883 JUMPI JUMPDEST PUSH1 0xC4 CALLDATALOAD ISZERO ISZERO SWAP1 PUSH1 0xC4 CALLDATALOAD PUSH2 0x1871 JUMPI JUMPDEST POP PUSH2 0x1869 JUMPI JUMPDEST PUSH2 0x1801 JUMPI JUMPDEST PUSH2 0x17FC SWAP1 PUSH2 0x2F34 JUMP JUMPDEST PUSH2 0x1694 JUMP JUMPDEST SWAP5 SWAP2 SWAP4 SWAP1 SWAP3 DUP7 MLOAD PUSH1 0x1 DUP2 ADD DUP2 GT PUSH2 0x744 JUMPI PUSH1 0x1 PUSH2 0x181E SWAP2 ADD PUSH2 0x32B3 JUMP JUMPDEST SWAP5 PUSH1 0x0 JUMPDEST DUP9 MLOAD DUP2 LT ISZERO PUSH2 0x1849 JUMPI DUP1 PUSH2 0x1839 PUSH2 0x1844 SWAP3 DUP12 PUSH2 0x32E5 JUMP JUMPDEST MLOAD PUSH2 0x388 DUP3 DUP11 PUSH2 0x32E5 JUMP JUMPDEST PUSH2 0x1822 JUMP JUMPDEST POP SWAP3 SWAP6 SWAP7 SWAP5 DUP8 PUSH2 0x1860 PUSH2 0x17FC SWAP4 SWAP7 SWAP5 SWAP8 MLOAD DUP4 PUSH2 0x32E5 JUMP JUMPDEST MSTORE SWAP7 SWAP1 POP PUSH2 0x17F3 JUMP JUMPDEST POP PUSH1 0x0 PUSH2 0x17EE JUMP JUMPDEST SWAP1 POP PUSH2 0x100 PUSH1 0xC4 CALLDATALOAD SWAP2 ADD MLOAD GT DUP10 PUSH2 0x17E8 JUMP JUMPDEST PUSH1 0x0 SWAP2 POP PUSH2 0x17DA JUMP JUMPDEST POP PUSH1 0xA4 CALLDATALOAD PUSH2 0x100 DUP3 ADD MLOAD LT PUSH2 0x17D5 JUMP JUMPDEST PUSH1 0x0 SWAP2 POP PUSH2 0x17C8 JUMP JUMPDEST POP PUSH2 0x180 DUP2 ADD MLOAD SWAP6 POP PUSH1 0x5 DUP7 LT ISZERO PUSH2 0x18C4 JUMPI PUSH1 0x0 SWAP6 PUSH1 0x84 CALLDATALOAD EQ ISZERO PUSH2 0x17C3 JUMP JUMPDEST PUSH4 0x4E487B71 PUSH1 0xE0 SHL PUSH1 0x0 MSTORE PUSH1 0x21 PUSH1 0x4 MSTORE PUSH1 0x24 PUSH1 0x0 REVERT JUMPDEST PUSH1 0x0 SWAP3 POP PUSH2 0x17B2 JUMP JUMPDEST SWAP1 POP PUSH1 0x64 CALLDATALOAD LT DUP12 PUSH2 0x17AC JUMP JUMPDEST PUSH1 0x0 SWAP4 POP PUSH2 0x179E JUMP JUMPDEST POP PUSH1 0x44 CALLDATALOAD DUP2 LT PUSH2 0x1799 JUMP JUMPDEST PUSH1 0x0 SWAP4 POP PUSH2 0x178C JUMP JUMPDEST POP PUSH1 0x80 DUP4 ADD MLOAD PUSH1 0x1 PUSH1 0x1 PUSH1 0xA0 SHL SUB DUP9 DUP2 AND SWAP2 AND EQ ISZERO PUSH2 0x1787 JUMP JUMPDEST PUSH1 0x0 SWAP4 POP PUSH2 0x1774 JUMP JUMPDEST POP DUP3 MLOAD PUSH1 0x1 PUSH1 0x1 PUSH1 0xA0 SHL SUB DUP11 DUP2 AND SWAP2 AND EQ ISZERO PUSH2 0x176F JUMP JUMPDEST PUSH2 0x195B SWAP2 POP RETURNDATASIZE DUP1 PUSH1 0x0 DUP4 RETURNDATACOPY PUSH2 0x3F7 DUP2 DUP4 PUSH2 0x2FD5 JUMP JUMPDEST DUP9 PUSH2 0x16DD JUMP JUMPDEST SWAP1 SWAP5 POP PUSH1 0x20 DUP2 RETURNDATASIZE PUSH1 0x20 GT PUSH2 0x198D JUMPI JUMPDEST DUP2 PUSH2 0x197D PUSH1 0x20 SWAP4 DUP4 PUSH2 0x2FD5 JUMP JUMPDEST DUP2 ADD SUB SLT PUSH2 0x249 JUMPI MLOAD SWAP4 DUP7 PUSH2 0x1690 JUMP JUMPDEST RETURNDATASIZE SWAP2 POP PUSH2 0x1970 JUMP JUMPDEST CALLVALUE PUSH2 0x249 JUMPI PUSH1 0x40 CALLDATASIZE PUSH1 0x3 NOT ADD SLT PUSH2 0x249 JUMPI PUSH2 0x19AE PUSH2 0x2D9B JUMP JUMPDEST PUSH1 0x24 DUP1 CALLDATALOAD PUSH1 0x5 SWAP3 DUP4 DUP3 LT ISZERO SWAP1 DUP2 PUSH2 0x249 JUMPI DUP4 DUP4 DUP7 SWAP3 PUSH1 0x1 DUP1 PUSH1 0xA0 SHL SUB DUP1 SWAP2 AND PUSH1 0x0 MSTORE PUSH1 0x20 SWAP3 PUSH1 0x4 DUP5 MSTORE PUSH1 0x40 PUSH1 0x0 KECCAK256 SWAP3 PUSH1 0x40 MLOAD SWAP4 DUP5 DUP7 DUP3 SLOAD SWAP2 DUP3 DUP2 MSTORE ADD SWAP2 PUSH1 0x0 MSTORE DUP7 PUSH1 0x0 KECCAK256 SWAP1 PUSH1 0x0 JUMPDEST DUP2 DUP2 LT PUSH2 0x1B6D JUMPI POP POP POP DUP5 PUSH2 0x1A0C SWAP2 SUB DUP6 PUSH2 0x2FD5 JUMP JUMPDEST PUSH1 0x40 MLOAD PUSH2 0x1A18 DUP2 PUSH2 0x2FBA JUMP JUMPDEST PUSH1 0x0 DUP2 MSTORE SWAP6 PUSH1 0x0 SWAP8 PUSH1 0x1 SWAP9 DUP10 SWAP6 DUP7 SLOAD AND SWAP10 JUMPDEST PUSH2 0x1A42 JUMPI JUMPDEST PUSH1 0x40 MLOAD DUP9 DUP2 MSTORE DUP1 PUSH2 0x2C5 DUP2 DUP12 ADD DUP13 PUSH2 0x2D3F JUMP JUMPDEST DUP7 MLOAD DUP2 LT ISZERO PUSH2 0x1B68 JUMPI DUP10 PUSH1 0x0 PUSH2 0x1A58 DUP4 DUP11 PUSH2 0x32E5 JUMP JUMPDEST MLOAD DUP8 PUSH1 0x40 MLOAD DUP1 SWAP5 DUP2 SWAP4 PUSH4 0xEB44FDD3 PUSH1 0xE0 SHL DUP4 MSTORE PUSH1 0x4 DUP4 ADD MSTORE GAS STATICCALL DUP1 ISZERO PUSH2 0x405 JUMPI PUSH2 0x180 SWAP2 PUSH1 0x0 SWAP2 PUSH2 0x1B4D JUMPI JUMPDEST POP ADD MLOAD DUP4 DUP2 LT ISZERO PUSH2 0x1B38 JUMPI DUP3 PUSH2 0x1B38 JUMPI DUP5 EQ PUSH2 0x1AB3 JUMPI JUMPDEST SWAP9 PUSH2 0x1AA9 DUP7 SWAP8 SWAP9 SWAP10 SWAP11 PUSH2 0x2F34 JUMP JUMPDEST SWAP1 SWAP10 SWAP9 SWAP8 SWAP7 PUSH2 0x1A2A JUMP JUMPDEST SWAP8 DUP1 MLOAD DUP7 DUP2 ADD DUP1 SWAP2 GT PUSH2 0x1B23 JUMPI PUSH2 0x1AC9 SWAP1 PUSH2 0x32B3 JUMP JUMPDEST SWAP1 PUSH1 0x0 DUP8 JUMPDEST PUSH2 0x1B00 JUMPI JUMPDEST POP DUP10 SWAP11 SWAP2 PUSH2 0x1AA9 SWAP2 PUSH2 0x1AF4 PUSH2 0x1AEB DUP12 SWAP13 SWAP14 DUP12 SWAP13 PUSH2 0x32E5 JUMP JUMPDEST MLOAD SWAP2 MLOAD DUP4 PUSH2 0x32E5 JUMP JUMPDEST MSTORE SWAP10 SWAP9 SWAP8 POP POP SWAP9 PUSH2 0x1A9B JUMP JUMPDEST DUP2 MLOAD DUP2 LT ISZERO PUSH2 0x1B1E JUMPI PUSH2 0x1B18 DUP2 PUSH2 0x37D DUP11 SWAP4 DUP6 PUSH2 0x32E5 JUMP JUMPDEST SWAP1 PUSH2 0x1ACE JUMP JUMPDEST PUSH2 0x1AD3 JUMP JUMPDEST DUP6 PUSH4 0x4E487B71 PUSH1 0xE0 SHL PUSH1 0x0 MSTORE PUSH1 0x11 PUSH1 0x4 MSTORE PUSH1 0x0 REVERT JUMPDEST DUP6 PUSH4 0x4E487B71 PUSH1 0xE0 SHL PUSH1 0x0 MSTORE PUSH1 0x21 PUSH1 0x4 MSTORE PUSH1 0x0 REVERT JUMPDEST PUSH2 0x1B62 SWAP2 POP RETURNDATASIZE DUP1 PUSH1 0x0 DUP4 RETURNDATACOPY PUSH2 0x3F7 DUP2 DUP4 PUSH2 0x2FD5 JUMP JUMPDEST DUP13 PUSH2 0x1A84 JUMP JUMPDEST PUSH2 0x1A2F JUMP JUMPDEST DUP3 SLOAD DUP5 MSTORE SWAP3 DUP9 ADD SWAP3 PUSH1 0x1 SWAP3 DUP4 ADD SWAP3 ADD PUSH2 0x19F6 JUMP JUMPDEST CALLVALUE PUSH2 0x249 JUMPI PUSH1 0x0 CALLDATASIZE PUSH1 0x3 NOT ADD SLT PUSH2 0x249 JUMPI PUSH2 0x1B9A PUSH2 0x2EAC JUMP JUMPDEST PUSH1 0x0 DUP1 SLOAD PUSH1 0x1 PUSH1 0x1 PUSH1 0xA0 SHL SUB NOT DUP2 AND DUP3 SSTORE PUSH1 0x1 PUSH1 0x1 PUSH1 0xA0 SHL SUB AND PUSH1 0x0 DUP1 MLOAD PUSH1 0x20 PUSH2 0x33BB DUP4 CODECOPY DUP2 MLOAD SWAP2 MSTORE DUP3 DUP1 LOG3 STOP JUMPDEST CALLVALUE PUSH2 0x249 JUMPI PUSH1 0x0 CALLDATASIZE PUSH1 0x3 NOT ADD SLT PUSH2 0x249 JUMPI PUSH1 0x0 PUSH1 0xE0 PUSH1 0x40 MLOAD PUSH2 0x1BE9 DUP2 PUSH2 0x2F9E JUMP JUMPDEST DUP3 DUP2 MSTORE DUP3 PUSH1 0x20 DUP3 ADD MSTORE DUP3 PUSH1 0x40 DUP3 ADD MSTORE DUP3 PUSH1 0x60 DUP3 ADD MSTORE DUP3 PUSH1 0x80 DUP3 ADD MSTORE DUP3 PUSH1 0xA0 DUP3 ADD MSTORE DUP3 PUSH1 0xC0 DUP3 ADD MSTORE ADD MSTORE PUSH1 0x4 PUSH1 0x20 PUSH1 0x1 DUP1 PUSH1 0xA0 SHL SUB PUSH1 0x1 SLOAD AND PUSH1 0x40 MLOAD SWAP3 DUP4 DUP1 SWAP3 PUSH4 0x1FCA74DD PUSH1 0xE3 SHL DUP3 MSTORE GAS STATICCALL SWAP1 DUP2 ISZERO PUSH2 0x405 JUMPI PUSH1 0x0 SWAP2 PUSH2 0x1DB8 JUMPI JUMPDEST POP DUP1 PUSH1 0x0 NOT DUP2 ADD GT PUSH2 0x744 JUMPI PUSH1 0x0 SWAP1 DUP2 DUP1 PUSH1 0x1 JUMPDEST PUSH1 0x0 NOT DUP5 ADD DUP2 GT ISZERO PUSH2 0x1D0A JUMPI POP PUSH2 0x100 SWAP4 PUSH1 0x0 NOT DUP5 ADD ISZERO PUSH2 0x1D02 JUMPI PUSH2 0x1C80 PUSH1 0x0 NOT DUP6 ADD DUP5 PUSH2 0x2FF8 JUMP JUMPDEST SWAP1 JUMPDEST PUSH1 0x40 MLOAD SWAP3 PUSH2 0x1C8F DUP5 PUSH2 0x2F9E JUMP JUMPDEST PUSH1 0x0 NOT DUP7 ADD DUP5 MSTORE PUSH1 0x20 DUP5 ADD SWAP5 DUP6 MSTORE PUSH1 0x40 DUP5 ADD SWAP2 DUP3 MSTORE PUSH1 0x60 DUP5 ADD SWAP1 DUP2 MSTORE PUSH1 0x80 DUP5 ADD SWAP2 PUSH1 0x0 DUP4 MSTORE PUSH1 0xA0 DUP6 ADD SWAP4 DUP5 MSTORE PUSH1 0xE0 PUSH1 0xC0 DUP7 ADD SWAP6 PUSH1 0x0 DUP8 MSTORE ADD SWAP6 PUSH1 0x0 DUP8 MSTORE PUSH1 0x40 MLOAD SWAP8 PUSH1 0x0 NOT ADD DUP9 MSTORE MLOAD PUSH1 0x20 DUP9 ADD MSTORE MLOAD PUSH1 0x40 DUP8 ADD MSTORE MLOAD PUSH1 0x60 DUP7 ADD MSTORE MLOAD PUSH1 0x80 DUP6 ADD MSTORE MLOAD PUSH1 0xA0 DUP5 ADD MSTORE MLOAD PUSH1 0xC0 DUP4 ADD MSTORE MLOAD PUSH1 0xE0 DUP3 ADD MSTORE RETURN JUMPDEST PUSH1 0x0 SWAP1 PUSH2 0x1C82 JUMP JUMPDEST SWAP1 PUSH2 0x1DAD PUSH2 0x1DB3 SWAP2 PUSH2 0x1DA5 PUSH1 0x2 SWAP6 SWAP8 DUP6 PUSH1 0x0 MSTORE PUSH1 0x3 PUSH1 0x20 MSTORE PUSH1 0x20 PUSH2 0x1D9C PUSH1 0x40 PUSH1 0x0 KECCAK256 DUP1 SWAP12 PUSH1 0x8 PUSH1 0x40 MLOAD SWAP12 DUP13 SWAP4 PUSH2 0x1D3F DUP6 PUSH2 0x2F82 JUMP JUMPDEST DUP1 SLOAD SWAP5 DUP6 SWAP1 MSTORE PUSH1 0x1 DUP2 ADD SLOAD DUP8 DUP16 ADD MSTORE ADD SLOAD PUSH1 0x40 DUP14 ADD SWAP1 DUP2 MSTORE PUSH1 0x3 DUP16 ADD SLOAD PUSH1 0x60 DUP15 ADD MSTORE PUSH1 0x4 DUP16 ADD SLOAD PUSH1 0x80 DUP15 ADD MSTORE PUSH1 0x5 DUP16 ADD SLOAD PUSH1 0xA0 DUP15 ADD MSTORE PUSH1 0x6 DUP16 ADD SLOAD PUSH1 0xC0 DUP15 ADD MSTORE PUSH1 0x7 DUP16 ADD SLOAD PUSH1 0xFF AND ISZERO ISZERO PUSH1 0xE0 DUP15 ADD MSTORE SWAP14 ADD SLOAD PUSH2 0x100 DUP13 ADD MSTORE PUSH2 0x2F43 JUMP JUMPDEST SWAP8 ADD MLOAD SWAP1 PUSH2 0x2F43 JUMP JUMPDEST SWAP7 MLOAD SWAP1 PUSH2 0x2F43 JUMP JUMPDEST SWAP2 PUSH2 0x2F34 JUMP JUMPDEST PUSH2 0x1C57 JUMP JUMPDEST SWAP1 POP PUSH1 0x20 DUP2 RETURNDATASIZE PUSH1 0x20 GT PUSH2 0x1DE2 JUMPI JUMPDEST DUP2 PUSH2 0x1DD3 PUSH1 0x20 SWAP4 DUP4 PUSH2 0x2FD5 JUMP JUMPDEST DUP2 ADD SUB SLT PUSH2 0x249 JUMPI MLOAD DUP2 PUSH2 0x1C43 JUMP JUMPDEST RETURNDATASIZE SWAP2 POP PUSH2 0x1DC6 JUMP JUMPDEST CALLVALUE PUSH2 0x249 JUMPI PUSH1 0x40 CALLDATASIZE PUSH1 0x3 NOT ADD SLT PUSH2 0x249 JUMPI PUSH2 0x1E03 PUSH2 0x2D9B JUMP JUMPDEST PUSH1 0x1 PUSH1 0x1 PUSH1 0xA0 SHL SUB AND PUSH1 0x0 SWAP1 DUP2 MSTORE PUSH1 0x6 PUSH1 0x20 MSTORE PUSH1 0x40 SWAP1 KECCAK256 DUP1 SLOAD PUSH1 0x24 CALLDATALOAD SWAP2 SWAP1 DUP3 LT ISZERO PUSH2 0x249 JUMPI PUSH1 0x20 SWAP2 PUSH2 0x970 SWAP2 PUSH2 0x2E07 JUMP JUMPDEST CALLVALUE PUSH2 0x249 JUMPI PUSH1 0x24 PUSH2 0x1E44 CALLDATASIZE PUSH2 0x2DC7 JUMP JUMPDEST SWAP3 SWAP1 SWAP2 PUSH1 0x1 DUP1 PUSH1 0xA0 SHL SUB DUP1 SWAP4 PUSH2 0x1E5F DUP3 PUSH1 0x1 SLOAD AND CALLER EQ PUSH2 0x2ED8 JUMP JUMPDEST AND SWAP4 DUP5 PUSH1 0x0 MSTORE PUSH1 0x2 PUSH1 0x20 MSTORE PUSH1 0x40 PUSH1 0x0 KECCAK256 SWAP1 PUSH1 0x1 DUP3 ADD PUSH2 0x1E7E DUP2 SLOAD PUSH2 0x2F34 JUMP JUMPDEST SWAP1 SSTORE PUSH1 0x3 DUP3 ADD SWAP3 PUSH2 0x1E90 DUP3 DUP6 SLOAD PUSH2 0x2F43 JUMP JUMPDEST DUP5 SSTORE TIMESTAMP PUSH1 0xA DUP5 ADD SSTORE PUSH1 0x0 DUP7 PUSH1 0x1 SLOAD AND PUSH1 0x40 MLOAD SWAP7 DUP8 DUP1 SWAP3 PUSH4 0xEB44FDD3 PUSH1 0xE0 SHL DUP3 MSTORE DUP6 PUSH1 0x4 DUP4 ADD MSTORE GAS STATICCALL SWAP5 DUP6 ISZERO PUSH2 0x405 JUMPI PUSH1 0x0 DUP1 MLOAD PUSH1 0x20 PUSH2 0x339B DUP4 CODECOPY DUP2 MLOAD SWAP2 MSTORE SWAP7 PUSH1 0x40 SWAP7 DUP10 SWAP3 PUSH1 0x0 SWAP2 PUSH2 0x1F1E JUMPI JUMPDEST POP MLOAD AND EQ PUSH2 0x1EF7 JUMPI JUMPDEST POP POP SLOAD SWAP1 SLOAD DUP3 MLOAD SWAP2 DUP3 MSTORE PUSH1 0x20 DUP3 ADD MSTORE LOG2 STOP JUMPDEST PUSH1 0x7 DUP4 ADD PUSH2 0x1F05 DUP2 SLOAD PUSH2 0x2F34 JUMP JUMPDEST SWAP1 SSTORE PUSH1 0x0 MSTORE PUSH1 0x3 PUSH1 0x20 MSTORE PUSH1 0x8 DUP5 PUSH1 0x0 KECCAK256 ADD SSTORE DUP6 DUP1 PUSH2 0x1EE5 JUMP JUMPDEST PUSH2 0x1F33 SWAP2 POP RETURNDATASIZE DUP1 PUSH1 0x0 DUP4 RETURNDATACOPY PUSH2 0x3F7 DUP2 DUP4 PUSH2 0x2FD5 JUMP JUMPDEST DUP11 PUSH2 0x1EDC JUMP JUMPDEST CALLVALUE PUSH2 0x249 JUMPI PUSH1 0x20 CALLDATASIZE PUSH1 0x3 NOT ADD SLT PUSH2 0x249 JUMPI PUSH2 0x120 PUSH1 0x40 MLOAD PUSH2 0x1F59 DUP2 PUSH2 0x2F82 JUMP JUMPDEST PUSH1 0x0 DUP2 MSTORE PUSH1 0x0 PUSH1 0x20 DUP3 ADD MSTORE PUSH1 0x0 PUSH1 0x40 DUP3 ADD MSTORE PUSH1 0x0 PUSH1 0x60 DUP3 ADD MSTORE PUSH1 0x0 PUSH1 0x80 DUP3 ADD MSTORE PUSH1 0x0 PUSH1 0xA0 DUP3 ADD MSTORE PUSH1 0x0 PUSH1 0xC0 DUP3 ADD MSTORE PUSH1 0x0 PUSH1 0xE0 DUP3 ADD MSTORE PUSH1 0x0 PUSH2 0x100 DUP1 SWAP3 ADD MSTORE PUSH1 0x4 CALLDATALOAD PUSH1 0x0 MSTORE PUSH1 0x3 PUSH1 0x20 MSTORE PUSH1 0x40 PUSH1 0x0 KECCAK256 SWAP1 PUSH1 0x40 MLOAD PUSH2 0x1FB4 DUP2 PUSH2 0x2F82 JUMP JUMPDEST DUP3 SLOAD SWAP3 DUP4 DUP3 MSTORE PUSH1 0x1 DUP2 ADD SLOAD PUSH1 0x20 DUP4 ADD SWAP1 DUP2 MSTORE PUSH1 0x2 DUP3 ADD SLOAD PUSH1 0x40 DUP5 ADD SWAP1 DUP2 MSTORE PUSH1 0x3 DUP4 ADD SLOAD PUSH1 0x60 DUP6 ADD SWAP1 DUP2 MSTORE PUSH1 0x4 DUP5 ADD SLOAD SWAP1 PUSH1 0x80 DUP7 ADD SWAP2 DUP3 MSTORE PUSH1 0x5 DUP6 ADD SLOAD SWAP3 PUSH1 0xA0 DUP8 ADD SWAP4 DUP5 MSTORE PUSH1 0x6 DUP7 ADD SLOAD SWAP5 PUSH1 0xC0 DUP9 ADD SWAP6 DUP7 MSTORE DUP9 PUSH1 0x8 PUSH1 0xFF PUSH1 0x7 DUP11 ADD SLOAD AND SWAP9 PUSH1 0xE0 DUP12 ADD SWAP10 ISZERO ISZERO DUP11 MSTORE ADD SLOAD SWAP9 ADD SWAP8 DUP9 MSTORE PUSH1 0x40 MLOAD SWAP10 DUP11 MSTORE MLOAD PUSH1 0x20 DUP11 ADD MSTORE MLOAD PUSH1 0x40 DUP10 ADD MSTORE MLOAD PUSH1 0x60 DUP9 ADD MSTORE MLOAD PUSH1 0x80 DUP8 ADD MSTORE MLOAD PUSH1 0xA0 DUP7 ADD MSTORE MLOAD PUSH1 0xC0 DUP6 ADD MSTORE MLOAD ISZERO ISZERO PUSH1 0xE0 DUP5 ADD MSTORE MLOAD SWAP1 DUP3 ADD MSTORE RETURN JUMPDEST CALLVALUE PUSH2 0x249 JUMPI PUSH2 0x2068 CALLDATASIZE PUSH2 0x2DF1 JUMP JUMPDEST SWAP1 PUSH1 0x40 MLOAD PUSH2 0x2075 DUP2 PUSH2 0x2FBA JUMP JUMPDEST PUSH1 0x0 DUP2 MSTORE PUSH1 0x1 DUP1 SLOAD PUSH1 0x40 MLOAD PUSH4 0x1FCA74DD PUSH1 0xE3 SHL DUP2 MSTORE SWAP3 SWAP5 PUSH1 0x20 SWAP5 SWAP2 PUSH1 0x1 PUSH1 0x1 PUSH1 0xA0 SHL SUB AND DUP6 DUP6 PUSH1 0x4 DUP2 DUP5 GAS STATICCALL SWAP5 DUP6 ISZERO PUSH2 0x405 JUMPI PUSH1 0x0 SWAP6 PUSH2 0x21B9 JUMPI JUMPDEST POP DUP4 JUMPDEST DUP6 DUP2 LT PUSH2 0x20CD JUMPI PUSH1 0x40 MLOAD DUP8 DUP2 MSTORE DUP1 PUSH2 0x2C5 DUP2 DUP11 ADD DUP12 PUSH2 0x2D3F JUMP JUMPDEST PUSH1 0x40 MLOAD PUSH4 0xEB44FDD3 PUSH1 0xE0 SHL DUP2 MSTORE PUSH1 0x4 DUP2 ADD DUP3 SWAP1 MSTORE PUSH1 0x24 SWAP1 PUSH1 0x0 DUP2 DUP4 DUP2 DUP8 GAS STATICCALL DUP1 ISZERO PUSH2 0x405 JUMPI PUSH2 0x100 SWAP2 PUSH1 0x0 SWAP2 PUSH2 0x219E JUMPI JUMPDEST POP ADD MLOAD DUP5 DUP7 DUP3 LT ISZERO SWAP2 DUP3 PUSH2 0x2193 JUMPI JUMPDEST POP POP PUSH2 0x2123 JUMPI JUMPDEST POP PUSH2 0x211E SWAP1 PUSH2 0x2F34 JUMP JUMPDEST PUSH2 0x20B3 JUMP JUMPDEST DUP9 SWAP2 SWAP9 MLOAD SWAP1 DUP7 DUP3 ADD DUP1 SWAP3 GT PUSH2 0x3A2 JUMPI POP SWAP1 DUP9 PUSH2 0x213F DUP8 SWAP4 PUSH2 0x32B3 JUMP JUMPDEST SWAP2 DUP4 PUSH1 0x0 SWAP5 JUMPDEST PUSH2 0x2163 JUMPI JUMPDEST POP PUSH2 0x211E SWAP4 POP PUSH2 0x215B SWAP1 MLOAD DUP4 PUSH2 0x32E5 JUMP JUMPDEST MSTORE SWAP8 SWAP1 PUSH2 0x2114 JUMP JUMPDEST SWAP2 DUP2 SWAP4 SWAP5 SWAP2 MLOAD DUP3 LT ISZERO PUSH2 0x2189 JUMPI POP DUP1 PUSH2 0x37D PUSH2 0x217F SWAP3 DUP6 PUSH2 0x32E5 JUMP JUMPDEST SWAP3 SWAP2 DUP2 DUP12 SWAP3 PUSH2 0x2145 JUMP JUMPDEST SWAP2 DUP5 SWAP4 SWAP2 POP PUSH2 0x214A JUMP JUMPDEST GT ISZERO SWAP1 POP DUP5 DUP12 PUSH2 0x210D JUMP JUMPDEST PUSH2 0x21B3 SWAP2 POP RETURNDATASIZE DUP1 PUSH1 0x0 DUP4 RETURNDATACOPY PUSH2 0x3F7 DUP2 DUP4 PUSH2 0x2FD5 JUMP JUMPDEST DUP12 PUSH2 0x20FE JUMP JUMPDEST SWAP1 SWAP5 POP DUP6 DUP2 DUP2 RETURNDATASIZE DUP4 GT PUSH2 0x21E1 JUMPI JUMPDEST PUSH2 0x21D1 DUP2 DUP4 PUSH2 0x2FD5 JUMP JUMPDEST DUP2 ADD SUB SLT PUSH2 0x249 JUMPI MLOAD SWAP4 DUP8 PUSH2 0x20B0 JUMP JUMPDEST POP RETURNDATASIZE PUSH2 0x21C7 JUMP JUMPDEST CALLVALUE PUSH2 0x249 JUMPI PUSH1 0x40 CALLDATASIZE PUSH1 0x3 NOT ADD SLT PUSH2 0x249 JUMPI PUSH1 0x1 PUSH1 0x1 PUSH1 0xA0 SHL SUB PUSH2 0x2209 PUSH2 0x2D9B JUMP JUMPDEST AND PUSH1 0x0 MSTORE PUSH1 0x7 PUSH1 0x20 MSTORE PUSH1 0x40 PUSH1 0x0 KECCAK256 PUSH1 0x24 CALLDATALOAD PUSH1 0x0 MSTORE PUSH1 0x20 MSTORE PUSH1 0x20 PUSH1 0x40 PUSH1 0x0 KECCAK256 SLOAD PUSH1 0x40 MLOAD SWAP1 DUP2 MSTORE RETURN JUMPDEST CALLVALUE PUSH2 0x249 JUMPI PUSH1 0x20 DUP1 PUSH1 0x3 NOT CALLDATASIZE ADD SLT PUSH2 0x249 JUMPI PUSH1 0x1 DUP1 SLOAD PUSH1 0x40 MLOAD PUSH4 0x1FCA74DD PUSH1 0xE3 SHL DUP2 MSTORE PUSH1 0x1 PUSH1 0x1 PUSH1 0xA0 SHL SUB SWAP1 SWAP2 AND SWAP2 SWAP1 DUP4 DUP2 PUSH1 0x4 DUP2 DUP7 GAS STATICCALL SWAP1 DUP2 ISZERO PUSH2 0x405 JUMPI PUSH1 0x0 SWAP2 PUSH2 0x24ED JUMPI JUMPDEST POP PUSH1 0x40 MLOAD PUSH2 0x2284 DUP2 PUSH2 0x2FBA JUMP JUMPDEST PUSH1 0x0 DUP2 MSTORE SWAP4 PUSH1 0x40 MLOAD PUSH2 0x2295 DUP2 PUSH2 0x2FBA JUMP JUMPDEST PUSH1 0x0 DUP2 MSTORE SWAP4 DUP4 JUMPDEST DUP4 DUP2 LT PUSH2 0x23AB JUMPI POP POP POP POP DUP1 PUSH1 0x0 SWAP1 JUMPDEST PUSH2 0x2317 JUMPI JUMPDEST POP POP PUSH1 0x4 CALLDATALOAD DUP1 ISZERO ISZERO DUP1 PUSH2 0x230D JUMPI JUMPDEST ISZERO PUSH2 0x2305 JUMPI JUMPDEST PUSH2 0x22CE DUP2 PUSH2 0x32B3 JUMP JUMPDEST SWAP2 PUSH2 0x22D8 DUP3 PUSH2 0x32B3 JUMP JUMPDEST SWAP4 PUSH1 0x0 JUMPDEST DUP4 DUP2 LT PUSH2 0x22F2 JUMPI PUSH1 0x40 MLOAD DUP1 PUSH2 0x2C5 DUP9 DUP9 DUP4 PUSH2 0x2D73 JUMP JUMPDEST DUP1 PUSH2 0x61E PUSH2 0x2300 SWAP3 DUP5 PUSH2 0x32E5 JUMP JUMPDEST PUSH2 0x22DC JUMP JUMPDEST POP DUP2 MLOAD PUSH2 0x22C5 JUMP JUMPDEST POP DUP3 MLOAD DUP2 LT PUSH2 0x22BF JUMP JUMPDEST DUP4 MLOAD PUSH1 0x0 NOT SWAP1 DUP2 DUP2 ADD SWAP1 DUP2 GT PUSH2 0x744 JUMPI DUP3 LT ISZERO PUSH2 0x23A5 JUMPI PUSH1 0x0 SWAP1 DUP4 JUMPDEST PUSH2 0x234A JUMPI JUMPDEST POP POP PUSH2 0x2344 DUP3 SWAP2 PUSH2 0x2F34 JUMP JUMPDEST SWAP1 PUSH2 0x22AC JUMP JUMPDEST PUSH2 0x235A DUP4 DUP8 SWAP5 SWAP7 SWAP4 SWAP6 SWAP8 MLOAD PUSH2 0x3018 JUMP JUMPDEST DUP2 DUP2 ADD SWAP1 DUP2 GT PUSH2 0x744 JUMPI DUP5 LT ISZERO PUSH2 0x239A JUMPI PUSH2 0x2375 DUP5 DUP4 PUSH2 0x32E5 JUMP JUMPDEST MLOAD DUP7 DUP6 ADD SWAP5 DUP6 DUP2 GT PUSH2 0x744 JUMPI DUP6 PUSH2 0x2391 SWAP3 PUSH2 0x6D0 DUP11 SWAP9 DUP8 PUSH2 0x32E5 JUMP JUMPDEST SWAP2 SWAP5 SWAP3 SWAP6 PUSH2 0x2333 JUMP JUMPDEST DUP2 SWAP5 SWAP3 SWAP6 SWAP4 POP PUSH2 0x2338 JUMP JUMPDEST POP PUSH2 0x22B1 JUMP JUMPDEST PUSH1 0x40 MLOAD PUSH4 0xEB44FDD3 PUSH1 0xE0 SHL DUP2 MSTORE PUSH1 0x4 DUP2 ADD DUP3 SWAP1 MSTORE PUSH1 0x24 SWAP1 PUSH1 0x0 DUP2 DUP4 DUP2 DUP8 GAS STATICCALL DUP1 ISZERO PUSH2 0x405 JUMPI PUSH2 0x180 SWAP2 PUSH1 0x0 SWAP2 PUSH2 0x24D2 JUMPI JUMPDEST POP ADD MLOAD PUSH1 0x5 DUP2 LT ISZERO PUSH2 0x3CD JUMPI ISZERO PUSH2 0x23FD JUMPI JUMPDEST POP PUSH2 0x23F8 SWAP1 PUSH2 0x2F34 JUMP JUMPDEST PUSH2 0x229C JUMP JUMPDEST SWAP1 SWAP6 DUP8 MLOAD DUP7 DUP2 ADD DUP1 SWAP2 GT PUSH2 0x24BD JUMPI PUSH2 0x2414 SWAP1 PUSH2 0x32B3 JUMP JUMPDEST SWAP2 DUP2 MLOAD SWAP1 DUP8 DUP3 ADD DUP1 SWAP3 GT PUSH2 0x3A2 JUMPI POP SWAP1 DUP8 PUSH2 0x2430 DUP9 SWAP5 SWAP4 PUSH2 0x32B3 JUMP JUMPDEST SWAP10 DUP5 PUSH1 0x0 SWAP6 JUMPDEST PUSH2 0x246F JUMPI JUMPDEST POP PUSH2 0x23F8 SWAP5 POP PUSH2 0x244C SWAP1 MLOAD DUP5 PUSH2 0x32E5 JUMP JUMPDEST MSTORE DUP8 PUSH1 0x0 MSTORE PUSH1 0x3 DUP6 MSTORE PUSH2 0x2466 PUSH1 0x40 PUSH1 0x0 KECCAK256 SLOAD SWAP2 MLOAD DUP11 PUSH2 0x32E5 JUMP JUMPDEST MSTORE SWAP7 SWAP6 SWAP1 PUSH2 0x23EE JUMP JUMPDEST SWAP2 DUP2 SWAP4 SWAP5 SWAP6 SWAP2 MLOAD DUP3 LT ISZERO PUSH2 0x24B2 JUMPI POP DUP1 PUSH2 0x248C PUSH2 0x24A7 SWAP3 DUP6 PUSH2 0x32E5 JUMP JUMPDEST MLOAD PUSH2 0x2497 DUP3 DUP9 PUSH2 0x32E5 JUMP JUMPDEST MSTORE DUP12 PUSH2 0x388 DUP3 PUSH2 0x881 DUP2 DUP10 PUSH2 0x32E5 JUMP JUMPDEST SWAP4 SWAP3 SWAP2 DUP2 DUP11 SWAP3 PUSH2 0x2436 JUMP JUMPDEST SWAP2 DUP6 SWAP5 SWAP4 SWAP2 POP PUSH2 0x243B JUMP JUMPDEST DUP3 PUSH4 0x4E487B71 PUSH1 0xE0 SHL PUSH1 0x0 MSTORE PUSH1 0x11 PUSH1 0x4 MSTORE PUSH1 0x0 REVERT JUMPDEST PUSH2 0x24E7 SWAP2 POP RETURNDATASIZE DUP1 PUSH1 0x0 DUP4 RETURNDATACOPY PUSH2 0x3F7 DUP2 DUP4 PUSH2 0x2FD5 JUMP JUMPDEST DUP11 PUSH2 0x23DC JUMP JUMPDEST SWAP1 POP DUP4 DUP2 DUP2 RETURNDATASIZE DUP4 GT PUSH2 0x2513 JUMPI JUMPDEST PUSH2 0x2504 DUP2 DUP4 PUSH2 0x2FD5 JUMP JUMPDEST DUP2 ADD SUB SLT PUSH2 0x249 JUMPI MLOAD DUP5 PUSH2 0x2277 JUMP JUMPDEST POP RETURNDATASIZE PUSH2 0x24FA JUMP JUMPDEST CALLVALUE PUSH2 0x249 JUMPI PUSH1 0x20 CALLDATASIZE PUSH1 0x3 NOT ADD SLT PUSH2 0x249 JUMPI PUSH2 0x160 PUSH2 0x2536 PUSH2 0x2D9B JUMP JUMPDEST PUSH2 0x140 PUSH1 0x40 MLOAD SWAP2 PUSH2 0x2546 DUP4 PUSH2 0x2F50 JUMP JUMPDEST PUSH1 0x0 DUP4 MSTORE PUSH1 0x0 PUSH1 0x20 DUP5 ADD MSTORE PUSH1 0x0 PUSH1 0x40 DUP5 ADD MSTORE PUSH1 0x0 PUSH1 0x60 DUP5 ADD MSTORE PUSH1 0x0 PUSH1 0x80 DUP5 ADD MSTORE PUSH1 0x0 PUSH1 0xA0 DUP5 ADD MSTORE PUSH1 0x0 PUSH1 0xC0 DUP5 ADD MSTORE PUSH1 0x0 PUSH1 0xE0 DUP5 ADD MSTORE PUSH2 0x100 SWAP1 PUSH1 0x0 DUP3 DUP6 ADD MSTORE PUSH1 0x0 DUP4 PUSH2 0x120 SWAP6 DUP3 DUP8 DUP3 ADD MSTORE ADD MSTORE PUSH1 0x1 DUP1 PUSH1 0xA0 SHL SUB AND PUSH1 0x0 MSTORE PUSH1 0x2 PUSH1 0x20 MSTORE PUSH1 0x40 PUSH1 0x0 KECCAK256 SWAP3 PUSH1 0x40 MLOAD SWAP2 PUSH2 0x25B6 DUP4 PUSH2 0x2F50 JUMP JUMPDEST PUSH1 0xA DUP6 SLOAD SWAP6 DUP7 DUP6 MSTORE PUSH1 0x1 DUP2 ADD SLOAD PUSH1 0x20 DUP7 ADD MSTORE PUSH1 0x2 DUP2 ADD SLOAD PUSH1 0x40 DUP7 ADD MSTORE PUSH1 0x3 DUP2 ADD SLOAD PUSH1 0x60 DUP7 ADD MSTORE PUSH1 0x4 DUP2 ADD SLOAD PUSH1 0x80 DUP7 ADD MSTORE PUSH1 0x5 DUP2 ADD SLOAD PUSH1 0xA0 DUP7 ADD MSTORE PUSH1 0x6 DUP2 ADD SLOAD PUSH1 0xC0 DUP7 ADD MSTORE PUSH1 0x7 DUP2 ADD SLOAD PUSH1 0xE0 DUP7 ADD MSTORE PUSH1 0x8 DUP2 ADD SLOAD DUP4 DUP7 ADD MSTORE PUSH1 0x9 DUP2 ADD SLOAD DUP5 DUP7 ADD MSTORE ADD SLOAD DUP5 DUP5 ADD MSTORE PUSH1 0x40 MLOAD SWAP5 DUP6 MSTORE PUSH1 0x20 DUP4 ADD MLOAD PUSH1 0x20 DUP7 ADD MSTORE PUSH1 0x40 DUP4 ADD MLOAD PUSH1 0x40 DUP7 ADD MSTORE PUSH1 0x60 DUP4 ADD MLOAD PUSH1 0x60 DUP7 ADD MSTORE PUSH1 0x80 DUP4 ADD MLOAD PUSH1 0x80 DUP7 ADD MSTORE PUSH1 0xA0 DUP4 ADD MLOAD PUSH1 0xA0 DUP7 ADD MSTORE PUSH1 0xC0 DUP4 ADD MLOAD PUSH1 0xC0 DUP7 ADD MSTORE PUSH1 0xE0 DUP4 ADD MLOAD PUSH1 0xE0 DUP7 ADD MSTORE DUP1 DUP4 ADD MLOAD SWAP1 DUP6 ADD MSTORE DUP1 DUP3 ADD MLOAD SWAP1 DUP5 ADD MSTORE ADD MLOAD PUSH2 0x140 DUP3 ADD MSTORE RETURN JUMPDEST CALLVALUE PUSH2 0x249 JUMPI PUSH1 0x20 CALLDATASIZE PUSH1 0x3 NOT ADD SLT PUSH2 0x249 JUMPI PUSH1 0x4 CALLDATALOAD PUSH1 0x0 MSTORE PUSH1 0x3 PUSH1 0x20 MSTORE PUSH2 0x120 PUSH1 0x40 PUSH1 0x0 KECCAK256 DUP1 SLOAD SWAP1 PUSH1 0x1 DUP2 ADD SLOAD SWAP1 PUSH1 0x2 DUP2 ADD SLOAD PUSH1 0x3 DUP3 ADD SLOAD PUSH1 0x4 DUP4 ADD SLOAD PUSH1 0x5 DUP5 ADD SLOAD SWAP2 PUSH1 0x6 DUP6 ADD SLOAD SWAP4 PUSH1 0x8 PUSH1 0xFF PUSH1 0x7 DUP9 ADD SLOAD AND SWAP7 ADD SLOAD SWAP7 PUSH1 0x40 MLOAD SWAP9 DUP10 MSTORE PUSH1 0x20 DUP10 ADD MSTORE PUSH1 0x40 DUP9 ADD MSTORE PUSH1 0x60 DUP8 ADD MSTORE PUSH1 0x80 DUP7 ADD MSTORE PUSH1 0xA0 DUP6 ADD MSTORE PUSH1 0xC0 DUP5 ADD MSTORE ISZERO ISZERO PUSH1 0xE0 DUP4 ADD MSTORE PUSH2 0x100 DUP3 ADD MSTORE RETURN JUMPDEST CALLVALUE PUSH2 0x249 JUMPI PUSH1 0x0 CALLDATASIZE PUSH1 0x3 NOT ADD SLT PUSH2 0x249 JUMPI PUSH1 0x1 SLOAD PUSH1 0x40 MLOAD PUSH1 0x1 PUSH1 0x1 PUSH1 0xA0 SHL SUB SWAP1 SWAP2 AND DUP2 MSTORE PUSH1 0x20 SWAP1 RETURN JUMPDEST CALLVALUE PUSH2 0x249 JUMPI PUSH1 0x20 CALLDATASIZE PUSH1 0x3 NOT ADD SLT PUSH2 0x249 JUMPI PUSH1 0x40 MLOAD PUSH4 0x3D80D00B PUSH1 0xE0 SHL DUP2 MSTORE PUSH1 0x7 PUSH1 0x4 DUP3 ADD MSTORE PUSH1 0x4 CALLDATALOAD PUSH1 0x24 DUP3 ADD MSTORE PUSH1 0x0 DUP2 PUSH1 0x44 DUP2 ADDRESS GAS STATICCALL SWAP1 DUP2 ISZERO PUSH2 0x405 JUMPI PUSH1 0x0 SWAP1 PUSH1 0x0 SWAP3 PUSH2 0x278C JUMPI JUMPDEST POP PUSH2 0x2C5 PUSH1 0x40 MLOAD SWAP3 DUP4 SWAP3 DUP4 PUSH2 0x2D73 JUMP JUMPDEST SWAP1 POP PUSH2 0x27AB SWAP2 POP RETURNDATASIZE DUP1 PUSH1 0x0 DUP4 RETURNDATACOPY PUSH2 0x27A3 DUP2 DUP4 PUSH2 0x2FD5 JUMP JUMPDEST DUP2 ADD SWAP1 PUSH2 0x3357 JUMP JUMPDEST SWAP1 DUP3 PUSH2 0x277C JUMP JUMPDEST CALLVALUE PUSH2 0x249 JUMPI PUSH2 0x27C0 CALLDATASIZE PUSH2 0x2DF1 JUMP JUMPDEST PUSH1 0x1 DUP1 SLOAD PUSH1 0x40 MLOAD PUSH4 0x1FCA74DD PUSH1 0xE3 SHL DUP2 MSTORE PUSH1 0x1 PUSH1 0x1 PUSH1 0xA0 SHL SUB SWAP1 SWAP2 AND SWAP4 SWAP3 SWAP2 SWAP1 PUSH1 0x20 DUP2 PUSH1 0x4 DUP2 DUP9 GAS STATICCALL SWAP1 DUP2 ISZERO PUSH2 0x405 JUMPI PUSH1 0x0 SWAP2 PUSH2 0x2AF9 JUMPI JUMPDEST POP PUSH1 0x40 MLOAD PUSH2 0x2805 DUP2 PUSH2 0x2FBA JUMP JUMPDEST PUSH1 0x0 DUP2 MSTORE SWAP5 PUSH1 0x40 MLOAD PUSH2 0x2816 DUP2 PUSH2 0x2FBA JUMP JUMPDEST PUSH1 0x0 DUP2 MSTORE SWAP5 PUSH3 0x15180 SWAP1 DUP2 DUP2 MUL SWAP2 DUP2 DUP4 DIV EQ SWAP1 ISZERO OR ISZERO PUSH2 0x744 JUMPI PUSH2 0x283A SWAP1 TIMESTAMP PUSH2 0x3018 JUMP JUMPDEST DUP4 JUMPDEST DUP4 DUP2 LT PUSH2 0x29AC JUMPI POP POP POP POP DUP1 PUSH1 0x0 SWAP1 JUMPDEST PUSH2 0x28B4 JUMPI JUMPDEST POP POP DUP1 ISZERO ISZERO DUP1 PUSH2 0x28AA JUMPI JUMPDEST ISZERO PUSH2 0x28A2 JUMPI JUMPDEST PUSH2 0x286B DUP2 PUSH2 0x32B3 JUMP JUMPDEST SWAP2 PUSH2 0x2875 DUP3 PUSH2 0x32B3 JUMP JUMPDEST SWAP4 PUSH1 0x0 JUMPDEST DUP4 DUP2 LT PUSH2 0x288F JUMPI PUSH1 0x40 MLOAD DUP1 PUSH2 0x2C5 DUP9 DUP9 DUP4 PUSH2 0x2D73 JUMP JUMPDEST DUP1 PUSH2 0x61E PUSH2 0x289D SWAP3 DUP5 PUSH2 0x32E5 JUMP JUMPDEST PUSH2 0x2879 JUMP JUMPDEST POP DUP2 MLOAD PUSH2 0x2862 JUMP JUMPDEST POP DUP3 MLOAD DUP2 LT PUSH2 0x285C JUMP JUMPDEST DUP5 MLOAD PUSH1 0x0 NOT SWAP1 DUP2 DUP2 ADD SWAP1 DUP2 GT PUSH2 0x744 JUMPI DUP3 LT ISZERO PUSH2 0x29A6 JUMPI SWAP1 DUP3 DUP1 SWAP3 PUSH1 0x0 SWAP2 JUMPDEST PUSH2 0x28E9 JUMPI JUMPDEST POP POP PUSH2 0x28E3 SWAP1 PUSH2 0x2F34 JUMP JUMPDEST SWAP1 PUSH2 0x284C JUMP JUMPDEST SWAP1 SWAP2 SWAP3 POP PUSH2 0x28F8 DUP4 DUP9 MLOAD PUSH2 0x3018 JUMP JUMPDEST DUP2 DUP2 ADD SWAP1 DUP2 GT PUSH2 0x744 JUMPI DUP5 SWAP1 DUP4 LT ISZERO PUSH2 0x299F JUMPI POP PUSH2 0x2916 DUP3 DUP8 PUSH2 0x32E5 JUMP JUMPDEST MLOAD DUP5 DUP4 ADD SWAP3 DUP4 DUP2 GT PUSH2 0x744 JUMPI DUP4 PUSH2 0x293E SWAP3 PUSH2 0x2932 DUP9 SWAP7 DUP12 PUSH2 0x32E5 JUMP JUMPDEST MLOAD GT PUSH2 0x2947 JUMPI POP PUSH2 0x2F34 JUMP JUMPDEST SWAP1 DUP3 SWAP4 SWAP3 PUSH2 0x28D3 JUMP JUMPDEST PUSH2 0x2951 DUP3 DUP11 PUSH2 0x32E5 JUMP JUMPDEST MLOAD PUSH2 0x295C DUP3 DUP12 PUSH2 0x32E5 JUMP JUMPDEST MLOAD PUSH2 0x2967 DUP5 DUP13 PUSH2 0x32E5 JUMP JUMPDEST MSTORE PUSH2 0x2972 DUP3 DUP12 PUSH2 0x32E5 JUMP JUMPDEST MSTORE PUSH2 0x2998 PUSH2 0x2980 DUP4 DUP13 PUSH2 0x32E5 JUMP JUMPDEST MLOAD SWAP2 DUP12 PUSH2 0x2991 DUP6 PUSH2 0x881 DUP5 DUP5 PUSH2 0x32E5 JUMP JUMPDEST MSTORE DUP12 PUSH2 0x32E5 JUMP JUMPDEST MSTORE DUP10 PUSH2 0x6D7 JUMP JUMPDEST SWAP3 SWAP2 PUSH2 0x28D8 JUMP JUMPDEST POP PUSH2 0x2851 JUMP JUMPDEST PUSH1 0x40 MLOAD PUSH4 0xEB44FDD3 PUSH1 0xE0 SHL DUP2 MSTORE PUSH1 0x4 DUP2 ADD DUP3 SWAP1 MSTORE PUSH1 0x24 SWAP1 PUSH1 0x0 DUP2 DUP4 DUP2 DUP9 GAS STATICCALL SWAP1 DUP2 ISZERO PUSH2 0x405 JUMPI PUSH1 0x0 SWAP2 PUSH2 0x2ADE JUMPI JUMPDEST POP PUSH2 0x180 DUP2 ADD MLOAD PUSH1 0x5 DUP2 LT ISZERO PUSH2 0x2AC9 JUMPI ISZERO DUP1 PUSH2 0x2ABA JUMPI JUMPDEST PUSH2 0x2A06 JUMPI JUMPDEST POP POP PUSH2 0x2A01 SWAP1 PUSH2 0x2F34 JUMP JUMPDEST PUSH2 0x283C JUMP JUMPDEST DUP10 SWAP9 SWAP2 SWAP3 SWAP9 MLOAD DUP8 DUP2 ADD DUP1 SWAP2 GT PUSH2 0x89A JUMPI PUSH2 0x2A1F SWAP1 PUSH2 0x32B3 JUMP JUMPDEST SWAP3 DUP3 MLOAD SWAP1 DUP9 DUP3 ADD DUP1 SWAP3 GT PUSH2 0x3A2 JUMPI POP PUSH2 0x2A38 DUP11 SWAP2 PUSH2 0x32B3 JUMP JUMPDEST SWAP11 DUP9 PUSH1 0x0 DUP2 JUMPDEST PUSH2 0x2A72 JUMPI JUMPDEST POP POP PUSH2 0x2A01 SWAP5 SWAP4 SWAP3 PUSH2 0x2A68 SWAP3 PUSH2 0x2A5D PUSH2 0x100 SWAP4 MLOAD DUP8 PUSH2 0x32E5 JUMP JUMPDEST MSTORE ADD MLOAD SWAP2 MLOAD DUP12 PUSH2 0x32E5 JUMP JUMPDEST MSTORE SWAP8 SWAP7 SWAP1 DUP10 PUSH2 0x29F6 JUMP JUMPDEST SWAP1 SWAP2 SWAP3 DUP4 MLOAD DUP3 LT ISZERO PUSH2 0x2AB2 JUMPI POP DUP1 PUSH2 0x2A8D PUSH2 0x2AA8 SWAP3 DUP6 PUSH2 0x32E5 JUMP JUMPDEST MLOAD PUSH2 0x2A98 DUP3 DUP10 PUSH2 0x32E5 JUMP JUMPDEST MSTORE DUP14 PUSH2 0x388 DUP3 PUSH2 0x881 DUP2 DUP11 PUSH2 0x32E5 JUMP JUMPDEST SWAP1 DUP12 SWAP3 SWAP2 DUP2 PUSH2 0x2A3E JUMP JUMPDEST SWAP3 SWAP2 SWAP1 PUSH2 0x2A43 JUMP JUMPDEST POP DUP4 PUSH2 0x100 DUP3 ADD MLOAD LT ISZERO PUSH2 0x29F1 JUMP JUMPDEST DUP3 PUSH4 0x4E487B71 PUSH1 0xE0 SHL PUSH1 0x0 MSTORE PUSH1 0x21 PUSH1 0x4 MSTORE PUSH1 0x0 REVERT JUMPDEST PUSH2 0x2AF3 SWAP2 POP RETURNDATASIZE DUP1 PUSH1 0x0 DUP4 RETURNDATACOPY PUSH2 0x3F7 DUP2 DUP4 PUSH2 0x2FD5 JUMP JUMPDEST DUP11 PUSH2 0x29DA JUMP JUMPDEST SWAP1 POP PUSH1 0x20 DUP2 RETURNDATASIZE DUP3 GT PUSH2 0x2B22 JUMPI JUMPDEST DUP2 PUSH2 0x2B13 PUSH1 0x20 SWAP4 DUP4 PUSH2 0x2FD5 JUMP JUMPDEST DUP2 ADD SUB SLT PUSH2 0x249 JUMPI MLOAD DUP6 PUSH2 0x27F8 JUMP JUMPDEST RETURNDATASIZE SWAP2 POP PUSH2 0x2B06 JUMP JUMPDEST CALLVALUE PUSH2 0x249 JUMPI PUSH1 0x20 CALLDATASIZE PUSH1 0x3 NOT ADD SLT PUSH2 0x249 JUMPI PUSH1 0x20 PUSH2 0x2B4D PUSH2 0x2B48 PUSH2 0x2D9B JUMP JUMPDEST PUSH2 0x31E3 JUMP JUMPDEST PUSH1 0x40 MLOAD SWAP1 DUP2 MSTORE RETURN JUMPDEST CALLVALUE PUSH2 0x249 JUMPI PUSH2 0x2B63 CALLDATASIZE PUSH2 0x2DC7 JUMP JUMPDEST POP PUSH1 0x1 SLOAD PUSH1 0x1 PUSH1 0x1 PUSH1 0xA0 SHL SUB SWAP2 DUP3 SWAP2 PUSH2 0x2B7F SWAP1 DUP4 AND CALLER EQ PUSH2 0x2ED8 JUMP JUMPDEST AND SWAP2 DUP3 PUSH1 0x0 MSTORE PUSH1 0x2 PUSH1 0x20 MSTORE PUSH1 0x40 PUSH1 0x0 KECCAK256 PUSH1 0x2 DUP2 ADD PUSH2 0x2B9D DUP2 SLOAD PUSH2 0x2F34 JUMP JUMPDEST SWAP1 SSTORE TIMESTAMP PUSH1 0xA DUP3 ADD SSTORE PUSH1 0x0 DUP4 PUSH1 0x1 SLOAD AND SWAP3 PUSH1 0x24 PUSH1 0x40 MLOAD DUP1 SWAP6 DUP2 SWAP4 PUSH4 0xEB44FDD3 PUSH1 0xE0 SHL DUP4 MSTORE PUSH1 0x4 DUP4 ADD MSTORE GAS STATICCALL SWAP2 DUP3 ISZERO PUSH2 0x405 JUMPI PUSH1 0x0 DUP1 MLOAD PUSH1 0x20 PUSH2 0x339B DUP4 CODECOPY DUP2 MLOAD SWAP2 MSTORE SWAP4 PUSH1 0x40 SWAP4 DUP7 SWAP3 PUSH1 0x0 SWAP2 PUSH2 0x2C1C JUMPI JUMPDEST POP MLOAD AND EQ PUSH2 0x2C07 JUMPI PUSH1 0x3 DUP2 SLOAD SWAP2 ADD SLOAD DUP3 MLOAD SWAP2 DUP3 MSTORE PUSH1 0x20 DUP3 ADD MSTORE LOG2 STOP JUMPDEST PUSH1 0x8 DUP2 ADD PUSH2 0x2C15 DUP2 SLOAD PUSH2 0x2F34 JUMP JUMPDEST SWAP1 SSTORE PUSH2 0x534 JUMP JUMPDEST PUSH2 0x2C31 SWAP2 POP RETURNDATASIZE DUP1 PUSH1 0x0 DUP4 RETURNDATACOPY PUSH2 0x3F7 DUP2 DUP4 PUSH2 0x2FD5 JUMP JUMPDEST DUP8 PUSH2 0x2BEB JUMP JUMPDEST CALLVALUE PUSH2 0x249 JUMPI PUSH1 0x20 DUP1 PUSH1 0x3 NOT CALLDATASIZE ADD SLT PUSH2 0x249 JUMPI PUSH1 0x1 PUSH1 0x1 PUSH1 0xA0 SHL SUB PUSH2 0x2C59 PUSH2 0x2D9B JUMP JUMPDEST AND PUSH1 0x0 MSTORE PUSH1 0x6 DUP2 MSTORE PUSH1 0x40 PUSH1 0x0 KECCAK256 SWAP1 PUSH1 0x40 MLOAD DUP1 DUP4 DUP4 DUP3 SWAP6 SLOAD SWAP4 DUP5 DUP2 MSTORE ADD SWAP1 PUSH1 0x0 MSTORE DUP4 PUSH1 0x0 KECCAK256 SWAP3 PUSH1 0x0 JUMPDEST DUP6 DUP3 DUP3 LT PUSH2 0x2C98 JUMPI POP POP POP PUSH2 0x15F2 SWAP3 POP SUB DUP4 PUSH2 0x2FD5 JUMP JUMPDEST DUP6 SLOAD DUP5 MSTORE PUSH1 0x1 SWAP6 DUP7 ADD SWAP6 DUP9 SWAP6 POP SWAP4 ADD SWAP3 ADD PUSH2 0x2C81 JUMP JUMPDEST CALLVALUE PUSH2 0x249 JUMPI PUSH1 0x20 CALLDATASIZE PUSH1 0x3 NOT ADD SLT PUSH2 0x249 JUMPI PUSH1 0x1 PUSH1 0x1 PUSH1 0xA0 SHL SUB PUSH2 0x2CCF PUSH2 0x2D9B JUMP JUMPDEST AND PUSH1 0x0 MSTORE PUSH1 0x2 PUSH1 0x20 MSTORE PUSH1 0x20 PUSH1 0x9 PUSH1 0x40 PUSH1 0x0 KECCAK256 ADD SLOAD PUSH1 0x40 MLOAD SWAP1 DUP2 MSTORE RETURN JUMPDEST CALLVALUE PUSH2 0x249 JUMPI PUSH1 0x20 CALLDATASIZE PUSH1 0x3 NOT ADD SLT PUSH2 0x249 JUMPI PUSH4 0x3D80D00B PUSH1 0xE0 SHL DUP2 MSTORE PUSH1 0x1 PUSH1 0x4 DUP3 ADD MSTORE PUSH1 0x4 CALLDATALOAD PUSH1 0x24 DUP3 ADD MSTORE PUSH1 0x0 DUP2 PUSH1 0x44 DUP2 ADDRESS GAS STATICCALL SWAP1 DUP2 ISZERO PUSH2 0x405 JUMPI PUSH1 0x0 SWAP1 PUSH1 0x0 SWAP3 PUSH2 0x278C JUMPI POP PUSH2 0x2C5 PUSH1 0x40 MLOAD SWAP3 DUP4 SWAP3 DUP4 PUSH2 0x2D73 JUMP JUMPDEST SWAP1 DUP2 MLOAD DUP1 DUP3 MSTORE PUSH1 0x20 DUP1 DUP1 SWAP4 ADD SWAP4 ADD SWAP2 PUSH1 0x0 JUMPDEST DUP3 DUP2 LT PUSH2 0x2D5F JUMPI POP POP POP POP SWAP1 JUMP JUMPDEST DUP4 MLOAD DUP6 MSTORE SWAP4 DUP2 ADD SWAP4 SWAP3 DUP2 ADD SWAP3 PUSH1 0x1 ADD PUSH2 0x2D51 JUMP JUMPDEST SWAP1 SWAP2 PUSH2 0x2D8A PUSH2 0x2D98 SWAP4 PUSH1 0x40 DUP5 MSTORE PUSH1 0x40 DUP5 ADD SWAP1 PUSH2 0x2D3F JUMP JUMPDEST SWAP2 PUSH1 0x20 DUP2 DUP5 SUB SWAP2 ADD MSTORE PUSH2 0x2D3F JUMP JUMPDEST SWAP1 JUMP JUMPDEST PUSH1 0x4 CALLDATALOAD SWAP1 PUSH1 0x1 PUSH1 0x1 PUSH1 0xA0 SHL SUB DUP3 AND DUP3 SUB PUSH2 0x249 JUMPI JUMP JUMPDEST PUSH1 0x24 CALLDATALOAD SWAP1 PUSH1 0x1 PUSH1 0x1 PUSH1 0xA0 SHL SUB DUP3 AND DUP3 SUB PUSH2 0x249 JUMPI JUMP JUMPDEST PUSH1 0x60 SWAP1 PUSH1 0x3 NOT ADD SLT PUSH2 0x249 JUMPI PUSH1 0x4 CALLDATALOAD SWAP1 PUSH1 0x24 CALLDATALOAD PUSH1 0x1 PUSH1 0x1 PUSH1 0xA0 SHL SUB DUP2 AND DUP2 SUB PUSH2 0x249 JUMPI SWAP1 PUSH1 0x44 CALLDATALOAD SWAP1 JUMP JUMPDEST PUSH1 0x40 SWAP1 PUSH1 0x3 NOT ADD SLT PUSH2 0x249 JUMPI PUSH1 0x4 CALLDATALOAD SWAP1 PUSH1 0x24 CALLDATALOAD SWAP1 JUMP JUMPDEST DUP1 SLOAD DUP3 LT ISZERO PUSH2 0x2E1F JUMPI PUSH1 0x0 MSTORE PUSH1 0x20 PUSH1 0x0 KECCAK256 ADD SWAP1 PUSH1 0x0 SWAP1 JUMP JUMPDEST PUSH4 0x4E487B71 PUSH1 0xE0 SHL PUSH1 0x0 MSTORE PUSH1 0x32 PUSH1 0x4 MSTORE PUSH1 0x24 PUSH1 0x0 REVERT JUMPDEST CALLVALUE PUSH2 0x249 JUMPI PUSH1 0x20 DUP1 PUSH1 0x3 NOT CALLDATASIZE ADD SLT PUSH2 0x249 JUMPI PUSH1 0x1 PUSH1 0x1 PUSH1 0xA0 SHL SUB PUSH2 0x2E57 PUSH2 0x2D9B JUMP JUMPDEST AND PUSH1 0x0 MSTORE PUSH1 0x4 DUP2 MSTORE PUSH1 0x40 PUSH1 0x0 KECCAK256 SWAP1 PUSH1 0x40 MLOAD DUP1 DUP4 DUP4 DUP3 SWAP6 SLOAD SWAP4 DUP5 DUP2 MSTORE ADD SWAP1 PUSH1 0x0 MSTORE DUP4 PUSH1 0x0 KECCAK256 SWAP3 PUSH1 0x0 JUMPDEST DUP6 DUP3 DUP3 LT PUSH2 0x2E96 JUMPI POP POP POP PUSH2 0x15F2 SWAP3 POP SUB DUP4 PUSH2 0x2FD5 JUMP JUMPDEST DUP6 SLOAD DUP5 MSTORE PUSH1 0x1 SWAP6 DUP7 ADD SWAP6 DUP9 SWAP6 POP SWAP4 ADD SWAP3 ADD PUSH2 0x2E7F JUMP JUMPDEST PUSH1 0x0 SLOAD PUSH1 0x1 PUSH1 0x1 PUSH1 0xA0 SHL SUB AND CALLER SUB PUSH2 0x2EC0 JUMPI JUMP JUMPDEST PUSH1 0x40 MLOAD PUSH4 0x118CDAA7 PUSH1 0xE0 SHL DUP2 MSTORE CALLER PUSH1 0x4 DUP3 ADD MSTORE PUSH1 0x24 SWAP1 REVERT JUMPDEST ISZERO PUSH2 0x2EDF JUMPI JUMP JUMPDEST PUSH1 0x40 MLOAD PUSH3 0x461BCD PUSH1 0xE5 SHL DUP2 MSTORE PUSH1 0x20 PUSH1 0x4 DUP3 ADD MSTORE PUSH1 0x27 PUSH1 0x24 DUP3 ADD MSTORE PUSH32 0x416E616C79746963733A204F6E6C79204D61726B65744D616E61676572206361 PUSH1 0x44 DUP3 ADD MSTORE PUSH7 0x6E20747261636B PUSH1 0xC8 SHL PUSH1 0x64 DUP3 ADD MSTORE PUSH1 0x84 SWAP1 REVERT JUMPDEST PUSH1 0x0 NOT DUP2 EQ PUSH2 0x744 JUMPI PUSH1 0x1 ADD SWAP1 JUMP JUMPDEST SWAP2 SWAP1 DUP3 ADD DUP1 SWAP3 GT PUSH2 0x744 JUMPI JUMP JUMPDEST PUSH2 0x160 DUP2 ADD SWAP1 DUP2 LT PUSH1 0x1 PUSH1 0x1 PUSH1 0x40 SHL SUB DUP3 GT OR PUSH2 0x2F6C JUMPI PUSH1 0x40 MSTORE JUMP JUMPDEST PUSH4 0x4E487B71 PUSH1 0xE0 SHL PUSH1 0x0 MSTORE PUSH1 0x41 PUSH1 0x4 MSTORE PUSH1 0x24 PUSH1 0x0 REVERT JUMPDEST PUSH2 0x120 DUP2 ADD SWAP1 DUP2 LT PUSH1 0x1 PUSH1 0x1 PUSH1 0x40 SHL SUB DUP3 GT OR PUSH2 0x2F6C JUMPI PUSH1 0x40 MSTORE JUMP JUMPDEST PUSH2 0x100 DUP2 ADD SWAP1 DUP2 LT PUSH1 0x1 PUSH1 0x1 PUSH1 0x40 SHL SUB DUP3 GT OR PUSH2 0x2F6C JUMPI PUSH1 0x40 MSTORE JUMP JUMPDEST PUSH1 0x20 DUP2 ADD SWAP1 DUP2 LT PUSH1 0x1 PUSH1 0x1 PUSH1 0x40 SHL SUB DUP3 GT OR PUSH2 0x2F6C JUMPI PUSH1 0x40 MSTORE JUMP JUMPDEST PUSH1 0x1F SWAP1 SWAP2 ADD PUSH1 0x1F NOT AND DUP2 ADD SWAP1 PUSH1 0x1 PUSH1 0x1 PUSH1 0x40 SHL SUB DUP3 GT SWAP1 DUP3 LT OR PUSH2 0x2F6C JUMPI PUSH1 0x40 MSTORE JUMP JUMPDEST DUP2 ISZERO PUSH2 0x3002 JUMPI DIV SWAP1 JUMP JUMPDEST PUSH4 0x4E487B71 PUSH1 0xE0 SHL PUSH1 0x0 MSTORE PUSH1 0x12 PUSH1 0x4 MSTORE PUSH1 0x24 PUSH1 0x0 REVERT JUMPDEST SWAP2 SWAP1 DUP3 SUB SWAP2 DUP3 GT PUSH2 0x744 JUMPI JUMP JUMPDEST DUP1 SLOAD PUSH1 0x1 PUSH1 0x40 SHL DUP2 LT ISZERO PUSH2 0x2F6C JUMPI PUSH2 0x3042 SWAP2 PUSH1 0x1 DUP3 ADD DUP2 SSTORE PUSH2 0x2E07 JUMP JUMPDEST DUP2 SWAP3 SWAP2 SLOAD SWAP1 PUSH1 0x3 SHL SWAP2 DUP3 SHL SWAP2 PUSH1 0x0 NOT SWAP1 SHL NOT AND OR SWAP1 SSTORE JUMP JUMPDEST MLOAD SWAP1 PUSH1 0x1 PUSH1 0x1 PUSH1 0xA0 SHL SUB DUP3 AND DUP3 SUB PUSH2 0x249 JUMPI JUMP JUMPDEST MLOAD SWAP1 DUP2 ISZERO ISZERO DUP3 SUB PUSH2 0x249 JUMPI JUMP JUMPDEST SWAP1 PUSH1 0x20 SWAP1 DUP2 DUP4 DUP3 SUB SLT PUSH2 0x249 JUMPI DUP3 MLOAD PUSH1 0x1 PUSH1 0x1 PUSH1 0x40 SHL SUB SWAP4 DUP5 DUP3 GT PUSH2 0x249 JUMPI ADD SWAP2 PUSH2 0x1E0 SWAP4 DUP5 DUP5 DUP5 SUB SLT PUSH2 0x249 JUMPI PUSH1 0x40 MLOAD SWAP5 DUP6 ADD DUP6 DUP2 LT DUP3 DUP3 GT OR PUSH2 0x2F6C JUMPI PUSH1 0x40 MSTORE PUSH2 0x30C6 DUP5 PUSH2 0x305A JUMP JUMPDEST DUP6 MSTORE DUP2 DUP5 ADD MLOAD DUP2 DUP2 GT PUSH2 0x249 JUMPI DUP5 ADD DUP4 PUSH1 0x1F DUP3 ADD SLT ISZERO PUSH2 0x249 JUMPI DUP1 MLOAD SWAP2 DUP3 GT PUSH2 0x2F6C JUMPI PUSH1 0x40 MLOAD SWAP4 PUSH2 0x3100 PUSH1 0x1F DUP5 ADD PUSH1 0x1F NOT AND DUP6 ADD DUP7 PUSH2 0x2FD5 JUMP JUMPDEST DUP3 DUP6 MSTORE DUP4 DUP4 DUP4 ADD ADD GT PUSH2 0x249 JUMPI DUP3 SWAP1 PUSH1 0x0 JUMPDEST DUP4 DUP2 LT PUSH2 0x31CF JUMPI POP POP PUSH1 0x0 SWAP2 DUP5 ADD ADD MSTORE DUP4 ADD MSTORE PUSH2 0x3131 PUSH1 0x40 DUP3 ADD PUSH2 0x306E JUMP JUMPDEST PUSH1 0x40 DUP4 ADD MSTORE PUSH1 0x60 DUP2 ADD MLOAD PUSH1 0x60 DUP4 ADD MSTORE PUSH2 0x314C PUSH1 0x80 DUP3 ADD PUSH2 0x305A JUMP JUMPDEST PUSH1 0x80 DUP4 ADD MSTORE PUSH1 0xA0 DUP2 ADD MLOAD PUSH1 0xA0 DUP4 ADD MSTORE PUSH1 0xC0 DUP2 ADD MLOAD PUSH1 0xC0 DUP4 ADD MSTORE PUSH1 0xE0 DUP2 ADD MLOAD PUSH1 0xE0 DUP4 ADD MSTORE PUSH2 0x100 DUP1 DUP3 ADD MLOAD SWAP1 DUP4 ADD MSTORE PUSH2 0x120 DUP1 DUP3 ADD MLOAD SWAP1 DUP4 ADD MSTORE PUSH2 0x140 DUP1 DUP3 ADD MLOAD SWAP1 DUP4 ADD MSTORE PUSH2 0x160 DUP1 DUP3 ADD MLOAD SWAP1 DUP4 ADD MSTORE PUSH2 0x180 DUP1 DUP3 ADD MLOAD SWAP1 PUSH1 0x5 DUP3 LT ISZERO PUSH2 0x249 JUMPI DUP4 ADD MSTORE PUSH2 0x1A0 DUP1 DUP3 ADD MLOAD SWAP1 DUP4 ADD MSTORE PUSH2 0x31C8 PUSH2 0x1C0 DUP1 SWAP3 ADD PUSH2 0x306E JUMP JUMPDEST SWAP1 DUP3 ADD MSTORE SWAP1 JUMP JUMPDEST DUP2 DUP2 ADD DUP4 ADD MLOAD DUP7 DUP3 ADD DUP5 ADD MSTORE DUP5 SWAP3 ADD PUSH2 0x3112 JUMP JUMPDEST PUSH1 0x1 DUP1 PUSH1 0xA0 SHL SUB AND PUSH1 0x0 MSTORE PUSH1 0x2 PUSH1 0x20 MSTORE PUSH1 0x40 PUSH1 0x0 KECCAK256 PUSH1 0x40 MLOAD SWAP1 PUSH2 0x3205 DUP3 PUSH2 0x2F50 JUMP JUMPDEST DUP1 SLOAD DUP1 DUP4 MSTORE PUSH1 0xA PUSH1 0x1 DUP4 ADD SLOAD SWAP3 DUP4 PUSH1 0x20 DUP7 ADD MSTORE PUSH1 0x2 DUP2 ADD SLOAD PUSH1 0x40 DUP7 ADD MSTORE PUSH1 0x3 DUP2 ADD SLOAD PUSH1 0x60 DUP7 ADD MSTORE PUSH1 0x4 DUP2 ADD SLOAD PUSH1 0x80 DUP7 ADD MSTORE PUSH1 0x5 DUP2 ADD SLOAD PUSH1 0xA0 DUP7 ADD MSTORE PUSH1 0x6 DUP2 ADD SLOAD PUSH1 0xC0 DUP7 ADD MSTORE PUSH1 0x7 DUP2 ADD SLOAD PUSH1 0xE0 DUP7 ADD MSTORE PUSH1 0x8 DUP2 ADD SLOAD PUSH2 0x100 DUP7 ADD MSTORE PUSH1 0x9 DUP2 ADD SLOAD PUSH2 0x120 DUP7 ADD MSTORE ADD SLOAD PUSH2 0x140 DUP5 ADD MSTORE ISZERO PUSH2 0x3295 JUMPI PUSH1 0x64 DUP2 MUL SWAP1 DUP1 DUP3 DIV PUSH1 0x64 EQ SWAP1 ISZERO OR ISZERO PUSH2 0x744 JUMPI PUSH2 0x2D98 SWAP2 MLOAD SWAP1 PUSH2 0x2FF8 JUMP JUMPDEST POP POP PUSH1 0x0 SWAP1 JUMP JUMPDEST PUSH1 0x1 PUSH1 0x1 PUSH1 0x40 SHL SUB DUP2 GT PUSH2 0x2F6C JUMPI PUSH1 0x5 SHL PUSH1 0x20 ADD SWAP1 JUMP JUMPDEST SWAP1 PUSH2 0x32BD DUP3 PUSH2 0x329C JUMP JUMPDEST PUSH2 0x32CA PUSH1 0x40 MLOAD SWAP2 DUP3 PUSH2 0x2FD5 JUMP JUMPDEST DUP3 DUP2 MSTORE DUP1 SWAP3 PUSH2 0x32DB PUSH1 0x1F NOT SWAP2 PUSH2 0x329C JUMP JUMPDEST ADD SWAP1 PUSH1 0x20 CALLDATASIZE SWAP2 ADD CALLDATACOPY JUMP JUMPDEST DUP1 MLOAD DUP3 LT ISZERO PUSH2 0x2E1F JUMPI PUSH1 0x20 SWAP2 PUSH1 0x5 SHL ADD ADD SWAP1 JUMP JUMPDEST DUP2 PUSH1 0x1F DUP3 ADD SLT ISZERO PUSH2 0x249 JUMPI DUP1 MLOAD SWAP2 PUSH2 0x3310 DUP4 PUSH2 0x329C JUMP JUMPDEST SWAP3 PUSH2 0x331E PUSH1 0x40 MLOAD SWAP5 DUP6 PUSH2 0x2FD5 JUMP JUMPDEST DUP1 DUP5 MSTORE PUSH1 0x20 SWAP3 DUP4 DUP1 DUP7 ADD SWAP3 PUSH1 0x5 SHL DUP3 ADD ADD SWAP3 DUP4 GT PUSH2 0x249 JUMPI DUP4 ADD SWAP1 JUMPDEST DUP3 DUP3 LT PUSH2 0x3348 JUMPI POP POP POP POP SWAP1 JUMP JUMPDEST DUP2 MLOAD DUP2 MSTORE SWAP1 DUP4 ADD SWAP1 DUP4 ADD PUSH2 0x333A JUMP JUMPDEST SWAP2 SWAP1 SWAP2 PUSH1 0x40 DUP2 DUP5 SUB SLT PUSH2 0x249 JUMPI DUP1 MLOAD PUSH1 0x1 PUSH1 0x1 PUSH1 0x40 SHL SUB SWAP4 SWAP1 DUP5 DUP2 GT PUSH2 0x249 JUMPI DUP2 PUSH2 0x3383 SWAP2 DUP5 ADD PUSH2 0x32F9 JUMP JUMPDEST SWAP4 PUSH1 0x20 DUP4 ADD MLOAD SWAP1 DUP2 GT PUSH2 0x249 JUMPI PUSH2 0x2D98 SWAP3 ADD PUSH2 0x32F9 JUMP INVALID 0x4B PUSH13 0x7ABACB75992CC13AD43FFE4479 0xDA 0xC5 0xF7 0xBE SWAP2 KECCAK256 0x2F PUSH0 0xBB LT DUP15 0xB1 0xAF DUP14 JUMP 0xED PUSH3 0x8BE007 SWAP13 MSTORE8 AND MSIZE EQ SGT PREVRANDAO 0xCD 0x1F 0xD0 LOG4 CALLCODE DUP5 NOT 0x49 PUSH32 0x9722A3DAAFE3B4186F6B6457E057AEC02922D876EC3D68C70DDF1563D34F09D2 SWAP1 ORIGIN 0xF7 PUSH29 0xCB3357D31CFFE7E733A26469706673582212209DA94C5A71B263523EAB SWAP14 SELFBALANCE DUP14 0xC7 0xB1 0xE5 0xB4 PUSH20 0xAC16CBEDDF29F3B58FC0859C31D964736F6C6343 STOP ADDMOD EQ STOP CALLER "},"methodIdentifiers":{"getActiveMarketsByMinVolume(uint256)":"fbe15159","getActiveMarketsByParticipants(uint256)":"a119515a","getActiveMarketsByStakerCount(uint256)":"e893a76f","getActiveMarketsByVolume(uint256)":"50ad34a1","getGlobalStats()":"6b4169c3","getMarketStats(uint256)":"58057fe5","getMarketsByCreator(address)":"e99c80bd","getMarketsByDateRange(uint256,uint256)":"57f978ad","getMarketsByState(uint8)":"9b7bcd24","getMarketsByToken(address)":"cd94a775","getMarketsFiltered(address,address,uint256,uint256,uint8,uint256,uint256)":"837cd235","getRecentActiveMarkets(uint256,uint256)":"3d80d00b","getThisWeekActiveMarkets(uint256)":"3f89efda","getTodayActiveMarkets(uint256)":"0649e0c0","getTopStakers(uint256)":"c80ca39a","getUserFavoriteOption(address)":"110d05e5","getUserMarkets(address)":"da4473d8","getUserMarketsByState(address,uint8)":"80aa0d8c","getUserStakes(address)":"842e2981","getUserStats(address)":"4e43603a","getUserSupports(address)":"1c6e04db","getUserWinRate(address)":"25ec5ef1","marketManager()":"41ed2c12","marketStats(uint256)":"4b669c09","owner()":"8da5cb5b","renounceOwnership()":"715018a6","setMarketManager(address)":"d82aff11","trackLoss(uint256,address,uint256)":"2053114d","trackMarketCreation(uint256,address)":"f054f00a","trackMarketResolution(uint256,uint256)":"ff4a7300","trackStake(uint256,address,uint256,uint256)":"c228038d","trackSupport(uint256,address,uint256)":"8f46a5a1","trackWinnings(uint256,address,uint256)":"61d442c2","transferOwnership(address)":"f2fde38b","userMarkets(address,uint256)":"db0f871d","userOptionStats(address,uint256)":"54488a5a","userStakes(address,uint256)":"b5d5b5fa","userStats(address)":"8a65d874","userSupports(address,uint256)":"6b3b7ea7"}}}}}