{"contracts/P2PMarketManager.sol":{"EventPool":{"abi":[{"inputs":[{"internalType":"address","name":"initialOwner","type":"address"},{"internalType":"address payable","name":"_treasury","type":"address"},{"internalType":"address","name":"_adminManager","type":"address"}],"stateMutability":"nonpayable","type":"constructor"},{"inputs":[{"internalType":"address","name":"owner","type":"address"}],"name":"OwnableInvalidOwner","type":"error"},{"inputs":[{"internalType":"address","name":"account","type":"address"}],"name":"OwnableUnauthorizedAccount","type":"error"},{"inputs":[{"internalType":"address","name":"token","type":"address"}],"name":"SafeERC20FailedOperation","type":"error"},{"anonymous":false,"inputs":[{"indexed":true,"internalType":"uint256","name":"marketId","type":"uint256"},{"indexed":false,"internalType":"string","name":"reason","type":"string"}],"name":"MarketCancelled","type":"event"},{"anonymous":false,"inputs":[{"indexed":true,"internalType":"uint256","name":"marketId","type":"uint256"},{"indexed":true,"internalType":"address","name":"creator","type":"address"},{"indexed":false,"internalType":"string","name":"ipfsHash","type":"string"},{"indexed":false,"internalType":"bool","name":"isMultiOption","type":"bool"},{"indexed":false,"internalType":"uint256","name":"maxOptions","type":"uint256"},{"indexed":false,"internalType":"address","name":"paymentToken","type":"address"},{"indexed":false,"internalType":"uint256","name":"minStake","type":"uint256"},{"indexed":false,"internalType":"uint256","name":"startTime","type":"uint256"},{"indexed":false,"internalType":"uint256","name":"stakeEndTime","type":"uint256"},{"indexed":false,"internalType":"uint256","name":"endTime","type":"uint256"},{"indexed":false,"internalType":"uint256","name":"resolutionEndTime","type":"uint256"}],"name":"MarketCreated","type":"event"},{"anonymous":false,"inputs":[{"indexed":true,"internalType":"uint256","name":"marketId","type":"uint256"},{"indexed":false,"internalType":"uint256","name":"winningOption","type":"uint256"}],"name":"MarketResolved","type":"event"},{"anonymous":false,"inputs":[{"indexed":true,"internalType":"uint256","name":"marketId","type":"uint256"},{"indexed":true,"internalType":"bytes32","name":"assertionId","type":"bytes32"},{"indexed":true,"internalType":"address","name":"disputer","type":"address"}],"name":"OracleDisputed","type":"event"},{"anonymous":false,"inputs":[{"indexed":true,"internalType":"uint256","name":"marketId","type":"uint256"},{"indexed":true,"internalType":"bytes32","name":"assertionId","type":"bytes32"}],"name":"OracleSettled","type":"event"},{"anonymous":false,"inputs":[{"indexed":true,"internalType":"address","name":"previousOwner","type":"address"},{"indexed":true,"internalType":"address","name":"newOwner","type":"address"}],"name":"OwnershipTransferred","type":"event"},{"anonymous":false,"inputs":[{"indexed":true,"internalType":"uint256","name":"marketId","type":"uint256"},{"indexed":true,"internalType":"address","name":"user","type":"address"},{"indexed":false,"internalType":"uint256","name":"amount","type":"uint256"}],"name":"RefundClaimed","type":"event"},{"anonymous":false,"inputs":[{"indexed":true,"internalType":"uint256","name":"marketId","type":"uint256"},{"indexed":true,"internalType":"bytes32","name":"assertionId","type":"bytes32"}],"name":"ResolutionRequested","type":"event"},{"anonymous":false,"inputs":[{"indexed":true,"internalType":"uint256","name":"marketId","type":"uint256"},{"indexed":true,"internalType":"address","name":"user","type":"address"},{"indexed":false,"internalType":"uint256","name":"option","type":"uint256"},{"indexed":false,"internalType":"uint256","name":"amount","type":"uint256"}],"name":"StakePlaced","type":"event"},{"anonymous":false,"inputs":[{"indexed":true,"internalType":"uint256","name":"marketId","type":"uint256"},{"indexed":true,"internalType":"bytes32","name":"assertionId","type":"bytes32"},{"indexed":false,"internalType":"bool","name":"outcome","type":"bool"}],"name":"UMAResolutionSettled","type":"event"},{"anonymous":false,"inputs":[{"indexed":true,"internalType":"uint256","name":"marketId","type":"uint256"},{"indexed":true,"internalType":"address","name":"user","type":"address"},{"indexed":false,"internalType":"uint256","name":"amount","type":"uint256"}],"name":"WinningsClaimed","type":"event"},{"inputs":[],"name":"CREATOR_FEE_BPS","outputs":[{"internalType":"uint256","name":"","type":"uint256"}],"stateMutability":"view","type":"function"},{"inputs":[],"name":"PLATFORM_FEE_BPS","outputs":[{"internalType":"uint256","name":"","type":"uint256"}],"stateMutability":"view","type":"function"},{"inputs":[{"internalType":"uint256","name":"","type":"uint256"}],"name":"activeMarkets","outputs":[{"internalType":"uint256","name":"","type":"uint256"}],"stateMutability":"view","type":"function"},{"inputs":[],"name":"adminManager","outputs":[{"internalType":"address","name":"","type":"address"}],"stateMutability":"view","type":"function"},{"inputs":[{"internalType":"uint256","name":"marketId","type":"uint256"},{"internalType":"address","name":"user","type":"address"}],"name":"calculateWinnings","outputs":[{"internalType":"uint256","name":"","type":"uint256"}],"stateMutability":"view","type":"function"},{"inputs":[{"internalType":"uint256","name":"marketId","type":"uint256"}],"name":"cancelMarket","outputs":[],"stateMutability":"nonpayable","type":"function"},{"inputs":[{"internalType":"uint256","name":"marketId","type":"uint256"}],"name":"claimRefund","outputs":[],"stateMutability":"nonpayable","type":"function"},{"inputs":[{"internalType":"uint256","name":"marketId","type":"uint256"}],"name":"claimWinnings","outputs":[],"stateMutability":"nonpayable","type":"function"},{"inputs":[{"internalType":"string","name":"ipfsHash","type":"string"},{"internalType":"bool","name":"isMultiOption","type":"bool"},{"internalType":"uint256","name":"maxOptions","type":"uint256"},{"internalType":"address","name":"paymentToken","type":"address"},{"internalType":"uint256","name":"minStake","type":"uint256"},{"internalType":"uint256","name":"creatorDeposit","type":"uint256"},{"internalType":"uint256","name":"creatorOutcome","type":"uint256"},{"internalType":"uint256","name":"stakeDurationMinutes","type":"uint256"},{"internalType":"uint256","name":"resolutionDurationMinutes","type":"uint256"},{"internalType":"enum EventPool.MarketType","name":"marketType","type":"uint8"},{"internalType":"address","name":"priceFeed","type":"address"},{"internalType":"uint256","name":"priceThreshold","type":"uint256"}],"name":"createMarket","outputs":[{"internalType":"uint256","name":"","type":"uint256"}],"stateMutability":"payable","type":"function"},{"inputs":[{"internalType":"uint256","name":"marketId","type":"uint256"}],"name":"creatorCancelMarket","outputs":[],"stateMutability":"nonpayable","type":"function"},{"inputs":[],"name":"defaultBondCurrency","outputs":[{"internalType":"address","name":"","type":"address"}],"stateMutability":"view","type":"function"},{"inputs":[{"internalType":"uint256","name":"marketId","type":"uint256"}],"name":"disputeOracle","outputs":[],"stateMutability":"nonpayable","type":"function"},{"inputs":[{"internalType":"uint256","name":"marketId","type":"uint256"}],"name":"endMarket","outputs":[],"stateMutability":"nonpayable","type":"function"},{"inputs":[{"internalType":"uint256","name":"marketId","type":"uint256"}],"name":"getMarket","outputs":[{"components":[{"internalType":"address","name":"creator","type":"address"},{"internalType":"string","name":"ipfsHash","type":"string"},{"internalType":"bool","name":"isMultiOption","type":"bool"},{"internalType":"uint256","name":"maxOptions","type":"uint256"},{"internalType":"address","name":"paymentToken","type":"address"},{"internalType":"uint256","name":"minStake","type":"uint256"},{"internalType":"uint256","name":"creatorDeposit","type":"uint256"},{"internalType":"uint256","name":"creatorOutcome","type":"uint256"},{"internalType":"uint256","name":"startTime","type":"uint256"},{"internalType":"uint256","name":"stakeEndTime","type":"uint256"},{"internalType":"uint256","name":"endTime","type":"uint256"},{"internalType":"uint256","name":"resolutionEndTime","type":"uint256"},{"internalType":"enum EventPool.MarketState","name":"state","type":"uint8"},{"internalType":"uint256","name":"winningOption","type":"uint256"},{"internalType":"bool","name":"isResolved","type":"bool"},{"internalType":"enum EventPool.MarketType","name":"marketType","type":"uint8"},{"internalType":"address","name":"priceFeed","type":"address"},{"internalType":"uint256","name":"priceThreshold","type":"uint256"},{"internalType":"bytes32","name":"p2pAssertionId","type":"bytes32"},{"internalType":"bool","name":"p2pAssertionMade","type":"bool"}],"internalType":"struct EventPool.Market","name":"","type":"tuple"}],"stateMutability":"view","type":"function"},{"inputs":[{"internalType":"uint256","name":"marketId","type":"uint256"}],"name":"getMarketStakers","outputs":[{"internalType":"address[]","name":"","type":"address[]"}],"stateMutability":"view","type":"function"},{"inputs":[],"name":"getNextMarketId","outputs":[{"internalType":"uint256","name":"","type":"uint256"}],"stateMutability":"view","type":"function"},{"inputs":[{"internalType":"uint256","name":"marketId","type":"uint256"},{"internalType":"uint256","name":"option","type":"uint256"},{"internalType":"address","name":"token","type":"address"}],"name":"getOptionPool","outputs":[{"internalType":"uint256","name":"","type":"uint256"}],"stateMutability":"view","type":"function"},{"inputs":[{"internalType":"uint256","name":"marketId","type":"uint256"}],"name":"getStakerCount","outputs":[{"internalType":"uint256","name":"","type":"uint256"}],"stateMutability":"view","type":"function"},{"inputs":[{"internalType":"uint256","name":"marketId","type":"uint256"},{"internalType":"address","name":"token","type":"address"}],"name":"getSupportPool","outputs":[{"internalType":"uint256","name":"","type":"uint256"}],"stateMutability":"view","type":"function"},{"inputs":[{"internalType":"uint256","name":"marketId","type":"uint256"}],"name":"getSupporterCount","outputs":[{"internalType":"uint256","name":"","type":"uint256"}],"stateMutability":"view","type":"function"},{"inputs":[{"internalType":"uint256","name":"marketId","type":"uint256"},{"internalType":"address","name":"token","type":"address"}],"name":"getTotalPool","outputs":[{"internalType":"uint256","name":"","type":"uint256"}],"stateMutability":"view","type":"function"},{"inputs":[{"internalType":"uint256","name":"marketId","type":"uint256"},{"internalType":"address","name":"user","type":"address"},{"internalType":"address","name":"token","type":"address"}],"name":"getUserStake","outputs":[{"internalType":"uint256","name":"","type":"uint256"}],"stateMutability":"view","type":"function"},{"inputs":[{"internalType":"uint256","name":"marketId","type":"uint256"},{"internalType":"address","name":"user","type":"address"},{"internalType":"address","name":"token","type":"address"}],"name":"getUserSupport","outputs":[{"internalType":"uint256","name":"","type":"uint256"}],"stateMutability":"view","type":"function"},{"inputs":[{"internalType":"uint256","name":"","type":"uint256"}],"name":"isActiveMarket","outputs":[{"internalType":"bool","name":"","type":"bool"}],"stateMutability":"view","type":"function"},{"inputs":[{"internalType":"uint256","name":"marketId","type":"uint256"}],"name":"markMarketDeleted","outputs":[],"stateMutability":"nonpayable","type":"function"},{"inputs":[{"internalType":"uint256","name":"marketId","type":"uint256"}],"name":"markMarketPermanentlyRemoved","outputs":[],"stateMutability":"nonpayable","type":"function"},{"inputs":[],"name":"marketCreationFee","outputs":[{"internalType":"uint256","name":"","type":"uint256"}],"stateMutability":"view","type":"function"},{"inputs":[{"internalType":"uint256","name":"","type":"uint256"},{"internalType":"uint256","name":"","type":"uint256"}],"name":"marketStakers","outputs":[{"internalType":"address","name":"","type":"address"}],"stateMutability":"view","type":"function"},{"inputs":[{"internalType":"uint256","name":"","type":"uint256"},{"internalType":"uint256","name":"","type":"uint256"}],"name":"marketSupporters","outputs":[{"internalType":"address","name":"","type":"address"}],"stateMutability":"view","type":"function"},{"inputs":[{"internalType":"uint256","name":"","type":"uint256"}],"name":"markets","outputs":[{"internalType":"address","name":"creator","type":"address"},{"internalType":"string","name":"ipfsHash","type":"string"},{"internalType":"bool","name":"isMultiOption","type":"bool"},{"internalType":"uint256","name":"maxOptions","type":"uint256"},{"internalType":"address","name":"paymentToken","type":"address"},{"internalType":"uint256","name":"minStake","type":"uint256"},{"internalType":"uint256","name":"creatorDeposit","type":"uint256"},{"internalType":"uint256","name":"creatorOutcome","type":"uint256"},{"internalType":"uint256","name":"startTime","type":"uint256"},{"internalType":"uint256","name":"stakeEndTime","type":"uint256"},{"internalType":"uint256","name":"endTime","type":"uint256"},{"internalType":"uint256","name":"resolutionEndTime","type":"uint256"},{"internalType":"enum EventPool.MarketState","name":"state","type":"uint8"},{"internalType":"uint256","name":"winningOption","type":"uint256"},{"internalType":"bool","name":"isResolved","type":"bool"},{"internalType":"enum EventPool.MarketType","name":"marketType","type":"uint8"},{"internalType":"address","name":"priceFeed","type":"address"},{"internalType":"uint256","name":"priceThreshold","type":"uint256"},{"internalType":"bytes32","name":"p2pAssertionId","type":"bytes32"},{"internalType":"bool","name":"p2pAssertionMade","type":"bool"}],"stateMutability":"view","type":"function"},{"inputs":[],"name":"nextMarketId","outputs":[{"internalType":"uint256","name":"","type":"uint256"}],"stateMutability":"view","type":"function"},{"inputs":[],"name":"optimisticOracle","outputs":[{"internalType":"address","name":"","type":"address"}],"stateMutability":"view","type":"function"},{"inputs":[],"name":"owner","outputs":[{"internalType":"address","name":"","type":"address"}],"stateMutability":"view","type":"function"},{"inputs":[{"internalType":"uint256","name":"marketId","type":"uint256"},{"internalType":"uint256","name":"option","type":"uint256"}],"name":"placeStake","outputs":[],"stateMutability":"payable","type":"function"},{"inputs":[{"internalType":"uint256","name":"marketId","type":"uint256"},{"internalType":"uint256","name":"option","type":"uint256"},{"internalType":"uint256","name":"amount","type":"uint256"}],"name":"placeStakeWithToken","outputs":[],"stateMutability":"nonpayable","type":"function"},{"inputs":[],"name":"renounceOwnership","outputs":[],"stateMutability":"nonpayable","type":"function"},{"inputs":[{"internalType":"uint256","name":"marketId","type":"uint256"},{"internalType":"bytes","name":"claim","type":"bytes"},{"internalType":"uint256","name":"optionId","type":"uint256"}],"name":"requestP2PResolution","outputs":[],"stateMutability":"nonpayable","type":"function"},{"inputs":[{"internalType":"uint256","name":"marketId","type":"uint256"}],"name":"resolveP2PMarket","outputs":[],"stateMutability":"nonpayable","type":"function"},{"inputs":[{"internalType":"uint256","name":"marketId","type":"uint256"}],"name":"resolvePriceFeedMarket","outputs":[],"stateMutability":"nonpayable","type":"function"},{"inputs":[{"internalType":"address","name":"_adminManager","type":"address"}],"name":"setAdminManager","outputs":[],"stateMutability":"nonpayable","type":"function"},{"inputs":[{"internalType":"address","name":"_currency","type":"address"}],"name":"setDefaultBondCurrency","outputs":[],"stateMutability":"nonpayable","type":"function"},{"inputs":[{"internalType":"address","name":"_oo","type":"address"}],"name":"setOptimisticOracle","outputs":[],"stateMutability":"nonpayable","type":"function"},{"inputs":[{"internalType":"uint256","name":"marketId","type":"uint256"}],"name":"settleOracle","outputs":[],"stateMutability":"nonpayable","type":"function"},{"inputs":[{"internalType":"uint256","name":"marketId","type":"uint256"},{"internalType":"uint256","name":"amount","type":"uint256"}],"name":"supportMarket","outputs":[],"stateMutability":"payable","type":"function"},{"inputs":[{"internalType":"address","name":"newOwner","type":"address"}],"name":"transferOwnership","outputs":[],"stateMutability":"nonpayable","type":"function"},{"inputs":[],"name":"treasury","outputs":[{"internalType":"address payable","name":"","type":"address"}],"stateMutability":"view","type":"function"},{"inputs":[{"internalType":"uint256","name":"","type":"uint256"},{"internalType":"address","name":"","type":"address"}],"name":"userHasStaked","outputs":[{"internalType":"bool","name":"","type":"bool"}],"stateMutability":"view","type":"function"},{"inputs":[{"internalType":"uint256","name":"","type":"uint256"},{"internalType":"address","name":"","type":"address"}],"name":"userHasSupported","outputs":[{"internalType":"bool","name":"","type":"bool"}],"stateMutability":"view","type":"function"},{"inputs":[{"internalType":"address","name":"","type":"address"},{"internalType":"uint256","name":"","type":"uint256"}],"name":"userMarketHistory","outputs":[{"internalType":"uint256","name":"","type":"uint256"}],"stateMutability":"view","type":"function"},{"inputs":[{"internalType":"uint256","name":"","type":"uint256"},{"internalType":"address","name":"","type":"address"}],"name":"userStakeOptions","outputs":[{"internalType":"uint256","name":"","type":"uint256"}],"stateMutability":"view","type":"function"},{"inputs":[{"internalType":"uint256","name":"marketId","type":"uint256"}],"name":"withdrawSupport","outputs":[],"stateMutability":"nonpayable","type":"function"},{"stateMutability":"payable","type":"receive"}],"evm":{"bytecode":{"linkReferences":{},"object":"608034620000ff57601f62005f1938819003918201601f19168301916001600160401b038311848410176200010457808492606094604052833981010312620000ff576200004d816200011a565b60208201516001600160a01b03808216939091849003620000ff576200007760408392016200011a565b9216918215620000e6576000549360018060a01b03199380858716176000558360405196167f8be0079c531659141344cd1fd0a4f28419497f9722a3daafe3b4186f6b6457e0600080a3600160095583600754161760075516906008541617600855615de99081620001308239f35b604051631e4fbdf760e01b815260006004820152602490fd5b600080fd5b634e487b7160e01b600052604160045260246000fd5b51906001600160a01b0382168203620000ff5756fe61012080604052600436101561001e575b50361561001c57600080fd5b005b600090813560e01c9081630ccf446714614a83575080630d64cdbd14614a54578063157bdcce1461499a578063209c1c94146149715780632230292214614948578063256ba741146148b3578063287f57b51461486a5780632ef1bdfa14614847578063304bf1f1146147fe5780633adfe6d0146147d35780633e32a76c1461458c578063406ef2ef1461456e5780634f44289d14614525578063539aa77f14614508578063569946c5146144285780635b7baf64146140cc5780635cb305a614613ee757806361d027b314613ebe57806366cf7ed4146130d9578063677bd9ff14612c775780636d4476ec146129ae5780636f59359e146128fc578063715018a6146128b45780637c16cd9e146127d9578063847cf782146127955780638da5cb5b1461276e57806398a17671146127185780639a3a40d614612496578063a210b6a41461246d578063a30a091414612443578063a550725d146123ba578063b1283e7714612217578063bc1607581461219b578063bf5c325214612102578063c22c62c3146120d0578063c3436e0c14611f9f578063cc3cbd2a14611f82578063d18e181a14611c27578063d5f8270714611bdc578063d8c5dd6714611b95578063dc4ce34914611b42578063e0bd4acc1461196b578063eb44fdd314611664578063f00fe321146115c1578063f15cc4061461115f578063f1b7dde314610d39578063f204072f146108f2578063f2fde38b1461087c578063f4867591146103ba578063fb87f2c3146102785763fe53a6e80361001057346102755780600319360112610275576020600954604051908152f35b80fd5b5034610275576020806003193601126103b657600435906102c960018060a01b036102a881600854163314615ca3565b6102b56009548510615ce7565b838552600183526040852054161515615d20565b8183526001815260ff600c6040852001541660058110156103a257600414610368576060600080516020615d5d8339815191529183855260018152600c6040862001600460ff19825416179055838552600b815260ff60408620541661035a575b6017604051918083528201527626b0b935b2ba103232b632ba32b210313c9030b236b4b760491b6040820152a280f35b61036384615be8565b61032a565b6064906040519062461bcd60e51b82526004820152601360248201527211540e88105b1c9958591e4819195b195d1959606a1b6044820152fd5b634e487b7160e01b84526021600452602484fd5b5080fd5b506103c436614d4d565b600854604051634d9b423560e11b8152600481018490529192916020916001600160a01b0391908216908381602481855afa80156107de578790610842575b61040e91501561508d565b83865260018352604086209060ff600c83015416600581101561082e5761043590156150ce565b60405163111a798960e31b81528481600481855afa801561082357859189916107e9575b5061073f575b505084151580610731575b6104739061515f565b6004810190828254166106d157600561049091015434101561519c565b858080803486600754165af16104a4614ec6565b501561068057908591848352600284526040832033600052845260ff6040600020541615610653575b84835260028452604083203360005284526040600020600160ff1982541617905584835260048452604083203360005284528560406000205581806007541691541690803b156105f8576040516395f4109560e01b81529184918391829084908290610542908d903490338f60048701614f41565b03925af190811561063457839161063f575b505060048382600854166040519283809263406ad64560e11b82525afa908115610634578391610607575b5016806105ab575b50506040519283523490830152600080516020615dbd83398151915260403393a380f35b803b156103b65781604051809263c228038d60e01b82528183816105d5348c338d60048601614fa9565b03925af180156105fc5715610587576105ed90614b54565b6105f8578338610587565b8380fd5b6040513d84823e3d90fd5b6106279150843d861161062d575b61061f8183614b9e565b810190614f71565b3861057f565b503d610615565b6040513d85823e3d90fd5b61064890614b54565b6103b6578138610554565b8483526005845261066733604085206151d8565b338352600c845261067b8560408520614ea0565b6104cd565b60405162461bcd60e51b815260048101849052602360248201527f45503a20455448207472616e7366657220746f205472656173757279206661696044820152621b195960ea1b6064820152608490fd5b60405162461bcd60e51b815260048101859052603260248201527f45503a2054686973206d61726b6574207573657320746f6b656e732c2075736560448201527110383630b1b2a132ba2bb4ba342a37b5b2b760711b6064820152608490fd5b50600381015485111561046a565b604051632eaa712b60e21b815291829060049082905afa9081156107de5787916107ac575b506009820154603c820291808304603c1490151715610798576107919161078a9161510b565b4210615118565b388361045f565b634e487b7160e01b88526011600452602488fd5b90508381813d83116107d7575b6107c38183614b9e565b810103126107d2575138610764565b600080fd5b503d6107b9565b6040513d89823e3d90fd5b82819392503d831161081c575b6108008183614b9e565b81010312610818576108128591614d8f565b38610459565b8780fd5b503d6107f6565b6040513d8a823e3d90fd5b634e487b7160e01b88526021600452602488fd5b508381813d8311610875575b6108588183614b9e565b810103126108715761086c61040e91614d8f565b610403565b8680fd5b503d61084e565b503461027557602036600319011261027557610896614ac0565b61089e614d63565b6001600160a01b039081169081156108d9576000548260018060a01b031982161760005516600080516020615d7d833981519152600080a380f35b604051631e4fbdf760e01b815260048101849052602490fd5b506108fc36614d4d565b600854604051632b5ba3b960e01b815233600482015260209493916024916001600160a01b039182169087818581855afa9081156107de5791889185938991610cfb575b5061094b9015614d9c565b60405192838092634d9b423560e11b82528860048301525afa8015610cf0578690610cba575b61097c91501561508d565b828552600186526040852060ff600c820154166005811015610ca7576109a290156150ce565b6009810154421015610c68576004906109bc861515615213565b0195818754168015600014610bf25750843403610bb4576109de341515615213565b858080803486600754165af16109f2614ec6565b5015610b655785965b848752600382526040872033600052825260ff6040600020541615610b4c575b84875260038252604087203360005282526040600020600160ff1982541617905582806007541691541690803b1561081857868891610a74938360405180968195829463c15d980760e01b84528d339060048601615271565b03925af19081156107de578791610b34575b505060048183600854166040519283809263406ad64560e11b82525afa9182156107de578792610b17575b50501680610abd578480f35b803b15610b13578492836064926040519687958694638f46a5a160e01b86526004860152339085015260448401525af180156105fc57610aff575b8080808480f35b610b0890614b54565b610275578038610af8565b8480fd5b610b2d9250803d1061062d5761061f8183614b9e565b3880610ab1565b610b3d90614b54565b610b48578538610a86565b8580fd5b84875260068252610b6033604089206151d8565b610a1b565b6084906023846040519262461bcd60e51b845260048401528201527f45503a20455448207472616e7366657220746f207472656173757279206661696044820152621b195960ea1b6064820152fd5b6064906018846040519262461bcd60e51b845260048401528201527711540e88125b98dbdc9c9958dd0811551208185b5bdd5b9d60421b6044820152fd5b9634610c1057610c0b8688998560075416903390614fef565b6109fb565b60405162461bcd60e51b815260048101839052602b818601527f45503a204e6f204554482073686f756c642062652073656e7420666f7220746f60448201526a1ad95b881cdd5c1c1bdc9d60aa1b6064820152608490fd5b60405162461bcd60e51b8152600481018890526018818501527711540e8814dd5c1c1bdc9d081c195c9a5bd908195b99195960421b6044820152606490fd5b634e487b7160e01b875260216004528387fd5b508681813d8311610ce9575b610cd08183614b9e565b81010312610b4857610ce461097c91614d8f565b610971565b503d610cc6565b6040513d88823e3d90fd5b92809294508391503d8311610d32575b610d158183614b9e565b8101031261087157839161094b610d2c8a93614d8f565b90610940565b503d610d0b565b5034610275576060366003190112610275576004356024359060443560018060a01b0380600854169060405191634d9b423560e11b83528460048401526020928381602481855afa8015610823578890611129575b610d9991501561508d565b84875260018352604087209060ff600c83015416600581101561111557610dc090156150ce565b60405163111a798960e31b81528481600481855afa801561110a5785918a916110d0575b5061103d575b50508515158061102f575b610dfe9061515f565b600481019082825416908115610fda578589949392610e266005610e3394015483101561519c565b8460075416903390614fef565b858352600284526040832033600052845260ff6040600020541615610fad575b85835260028452604083203360005284526040600020600160ff1982541617905585835260048452604083203360005284528660406000205581806007541691541690803b156105f8578584918993838a610ec6604051978896879586946395f4109560e01b8652339060048701614f41565b03925af1908115610634578391610f99575b505060048382600854166040519283809263406ad64560e11b82525afa908115610634578391610f7c575b501680610f2d575b5050604051938452830152600080516020615dbd83398151915260403393a380f35b803b156103b65760405163c228038d60e01b81529082908290818381610f598a8d338e60048601614fa9565b03925af180156105fc5715610f0b57610f7190614b54565b610b13578438610f0b565b610f939150843d861161062d5761061f8183614b9e565b38610f03565b610fa290614b54565b6103b6578138610ed8565b85835260058452610fc133604085206151d8565b338352600c8452610fd58660408520614ea0565b610e53565b60405162461bcd60e51b815260048101869052602760248201527f45503a2054686973206d61726b6574207573657320504550552c2075736520706044820152661b1858d950995d60ca1b6064820152608490fd5b506003810154861115610df5565b604051632eaa712b60e21b815291829060049082905afa9081156108235788916110a3575b506009820154603c820291808304603c149015171561108f576110889161078a9161510b565b3883610dea565b634e487b7160e01b89526011600452602489fd5b90508381813d83116110c9575b6110ba8183614b9e565b810103126107d2575138611062565b503d6110b0565b82819392503d8311611103575b6110e78183614b9e565b810103126110ff576110f98591614d8f565b38610de4565b8880fd5b503d6110dd565b6040513d8b823e3d90fd5b634e487b7160e01b89526021600452602489fd5b508381813d8311611158575b61113f8183614b9e565b8101031261081857611153610d9991614d8f565b610d8e565b503d611135565b503461027557604036600319011261027557611179614aaa565b90600435815260016020526040812060ff600c8201541660058110156115ad5760026111a5911461561a565b600d8101546111b5811515615659565b60043583526002602052604083209360018060a01b039485821660005260205260ff60406000205416156115725784600754166040516307c7a72d60e01b8152602081806112098660043560048401614f90565b0381855afa908115610cf0578691611538575b506114fd5785600485015416936040519463423e7bc160e11b86526020868061124c8488600435600485016152e2565b0381865afa9586156107de5787966114c9575b5060405163dc4ce34960e01b81529260208480611283858a60048035908501615695565b0381845afa938415610823578894611495575b50879260036001910154905b818111156113f45750506112d292916020916040518080968194634f44289d60e01b835260043560048401614f90565b03915afa9081156107de5787916113be575b6112ee9250614e50565b81611305575050505050602091505b604051908152f35b9394938061134257505060209460043584526004865260408420911660005284526040600020541460001461133b57505b6112fd565b90506112fd565b93929190949560043584526004602052604084209116600052602052604060002054146000146113b2576123288083029283040361139e575091611398611336926113936127106020960484614e27565b6156b6565b90614e50565b634e487b7160e01b81526011600452602490fd5b915050602091506112fd565b90506020823d6020116113ec575b816113d960209383614b9e565b810103126107d2576112ee9151906112e4565b3d91506113cc565b87810361140a575b61140590614e5d565b6112a2565b9360405163dc4ce34960e01b81526020818061142d888a60043560048501615695565b0381875afa90811561148a578b91611456575b5061144e9061140592614e50565b9490506113fc565b90506020813d602011611482575b8161147160209383614b9e565b810103126107d25751611405611440565b3d9150611464565b6040513d8d823e3d90fd5b9093506020813d6020116114c1575b816114b160209383614b9e565b810103126107d257519238611296565b3d91506114a4565b9095506020813d6020116114f5575b816114e560209383614b9e565b810103126107d25751943861125f565b3d91506114d8565b60405162461bcd60e51b815260206004820152601360248201527211540e88105b1c9958591e4818db185a5b5959606a1b6044820152606490fd5b90506020813d60201161156a575b8161155360209383614b9e565b81010312610b485761156490614d8f565b3861121c565b3d9150611546565b60405162461bcd60e51b815260206004820152601360248201527211540e88139bc81cdd185ad9481c1b1858d959606a1b6044820152606490fd5b634e487b7160e01b83526021600452602483fd5b50346102755760403660031901126102755761160a9060206115e1614aaa565b60018060a01b03600754166040518080968194633d1e7ba160e11b835260043560048401614f90565b03915afa9081156116585790611626575b602090604051908152f35b506020813d8211611650575b8161163f60209383614b9e565b810103126107d2576020905161161b565b3d9150611632565b604051903d90823e3d90fd5b50346102755760203660031901126102755780604091610260835161168881614b67565b8281526060602082015282858201528260608201528260808201528260a08201528260c08201528260e08201528261010082015282610120820152826101408201528261016082015282610180820152826101a0820152826101c0820152826101e0820152826102008201528261022082015282610240820152015260043581526001602052206040519061171c82614b67565b80546001600160a01b0316825261173560018201614c4d565b602083015260ff600282015416151560408301526003810154606083015260018060a01b036004820154166080830152600581015460a0830152600681015460c0830152600781015460e083015260088101546101008301526009810154610120830152600a810154610140830152600b81015461016083015260ff600c8201541660058110156119555760ff91601191610180850152600d8101546101a0850152600e81015483811615156101c08601526117fa848260081c166101e08701614e6c565b60018060a01b039060101c16610200850152600f8101546102208501526010810154610240850152015416151561026082015260405180916020825260018060a01b038151166020830152610260611863602083015161028060408601526102a0850190614cf3565b916040810151151560608501526060810151608085015260018060a01b0360808201511660a085015260a081015160c085015260c081015160e085015260e08101516101008501526101008101516101208501526101208101516101408501526101408101516101608501526101608101516101808501526118ef6101808201516101a0860190614d33565b6101a08101516101c08501526101c081015115156101e085015261191d6101e0820151610200860190614d40565b60018060a01b036102008201511661022085015261022081015161024085015261024081015182850152015115156102808301520390f35b634e487b7160e01b600052602160045260246000fd5b5034610275576020806003193601126103b6576004359061199b60018060a01b036102a881600854163314615ca3565b8183526001815260ff600c6040852001541660058110156103a257600203611b04576080600080516020615d5d83398151915291838552600181528460116040822082815582600182016119ef8154614c13565b80611ac4575b505060028201556000600382015582600482015560006005820155600060068201556000600782015560006008820155600060098201556000600a8201556000600b82015582600c8201556000600d82015582600e8201556000600f820155600060108201550155838552600b815260ff604086205416611ab6575b6026604051918083528201527f5065726d616e656e746c792072656d6f76656420616674657220636c61696d206040820152651c195c9a5bd960d21b6060820152a280f35b611abf84615be8565b611a71565b601f8111600114611ade575060009150555b8238806119f5565b90806000918452611afd601f898620940160051c840160018501614e78565b5555611ad6565b6064906040519062461bcd60e51b82526004820152601760248201527611540e8813585c9ad95d081b9bdd081c995cdbdb1d9959604a1b6044820152fd5b503461027557606036600319011261027557604435906001600160a01b0380831683036107d25761160a9260209160075416604051808096819463dc4ce34960e01b835260243560043560048501615695565b5034610275576040366003190112610275576040611bb1614aaa565b9160043581526004602052209060018060a01b03166000526020526020604060002054604051908152f35b503461027557611beb36614d4d565b91908152600560205260408120908154831015610275576020611c0e8484614b3c565b905460405160039290921b1c6001600160a01b03168152f35b503461027557606036600319011261027557602460043581356001600160401b0381116105f857366023820112156105f857611c6c9036908481600401359101614bdc565b60448035838652602094600186526040872092600e84015460ff8160081c166002811015611f6f576001611ca0911461538d565b60ff600c860154166005811015611f6f57611cca91611cc3600160ff9314615302565b161561533e565b600a8401544210611f3d57601184019460ff865416611f055784546001600160a01b039081163314611ec65780600d5416611d068115156153d1565b81600e541690611d1782151561540e565b86151580611eb8575b15611e8057918593918b8d9460405198898092634360af3d60e01b82528560048301525afa908115611e75578c978592611e39575b5081611d7981611d8993611d70611db399989796151561544d565b30903390614fef565b82600e541683600d5416906154a7565b600d54169360405197889687958694631a43338160e21b8652606060048701526064860190614cf3565b92339085015283015203925af1948515610cf0578695611e08575b5050601001839055805460ff191660011790557fc92f993487c6d961b60ff2a81386dff5cc620cd4aed9cddabe26500391655e828380a380f35b90809550813d8311611e32575b611e1f8183614b9e565b81010312610b1357601093519338611dce565b503d611e15565b9450929196905083813d8311611e6e575b611e548183614b9e565b810103126107d25791518a958c9392909190611d89611d55565b503d611e4a565b6040513d86823e3d90fd5b60405162461bcd60e51b8152600481018c90526012818801527122a81d1024b73b30b634b21037b83a34b7b760711b81870152606490fd5b506003880154871115611d20565b60405162461bcd60e51b8152600481018a90526019818601527811540e8810dc99585d1bdc8818d85b9b9bdd08185cdcd95c9d603a1b81850152606490fd5b60405162461bcd60e51b8152600481018990526012818501527145503a20417373657274696f6e206d61646560701b81840152606490fd5b6c45503a20546f6f206561726c7960981b8791600d6064946040519462461bcd60e51b86526004860152840152820152fd5b634e487b7160e01b8a526021600452838afd5b5034610275578060031936011261027557602060405161015e8152f35b50346102755760203660031901126102755760043580825260016020526040822080546001600160a01b0316330361208d5760ff600c8201541660058110156103a25790611fef600992156150ce565b015461a8bf1981019081116120795742101561203b576040516120389161201582614b83565b601182527010dc99585d1bdc8818d85b98d95b1b1959607a1b60208301526156d6565b80f35b60405162461bcd60e51b815260206004820152601660248201527511540e88151bdbc81b185d19481d1bc818d85b98d95b60521b6044820152606490fd5b634e487b7160e01b83526011600452602483fd5b60405162461bcd60e51b815260206004820152601b60248201527a11540e8813db9b1e4818dc99585d1bdc8818d85b8818d85b98d95b602a1b6044820152606490fd5b5034610275576120df36614d4d565b91908152600660205260408120908154831015610275576020611c0e8484614b3c565b50346102755760203660031901126102755761211c614ac0565b612124614d63565b6001600160a01b0316801561214a57600d80546001600160a01b03191691909117905580f35b60405162461bcd60e51b8152602060048201526024808201527f45503a20496e76616c6964204f7074696d69737469634f7261636c65206164646044820152637265737360e01b6064820152608490fd5b5034610275576020366003190112610275576121b5614ac0565b6121bd614d63565b6001600160a01b031680156121e357600880546001600160a01b03191691909117905580f35b60405162461bcd60e51b815260206004820152600c60248201526b22a81d102130b21030b2323960a11b6044820152606490fd5b503461027557602036600319011261027557600435815260016020819052604090912080546001600160a01b031691612251908201614c4d565b60e052600281015460ff16608052600381015461010052600160a01b600190036004820154169160058201546006830154600784015460088501546009860154600a87015490600b88015492600c89015460ff1694600d8a015496600e8b015498600f8c01549a60108d01549c6011015460ff1660a0526040518060c052526102808060c0516020015260c0510160e051906122ec91614cf3565b9c608051151560c051604001526101005160c0516060015260c0516080015260c05160a0015260c05160c0015260c05160e0015260c051610100015260c051610120015260c051610140015260c051610160015260c0516101800161235091614d33565b60c0516101a0015260ff8116151560c0516101c0015260c0516101e0018160081c60ff169061237e91614d40565b600160a01b600190039060101c1660c051610200015260c051610220015260c051610240015260a051151560c051610260015260c05180910390f35b5034610275576020366003190112610275576123d4614ac0565b6123dc614d63565b6001600160a01b0316801561240257600e80546001600160a01b03191691909117905580f35b60405162461bcd60e51b815260206004820152601960248201527845503a20496e76616c696420626f6e642063757272656e637960381b6044820152606490fd5b50346102755760203660031901126102755760406020916004358152600683522054604051908152f35b50346102755780600319360112610275576008546040516001600160a01b039091168152602090f35b5034610275576020806003193601126103b65760043590818352600181526040832090600e8201805460ff8160081c166002811015612704576126ca57600c84019081549060ff821660058110156111155760016124f49114615302565b61250160ff82161561533e565b600b860154421061268a57604051633fabe5a360e21b815288946001600160a01b0394939192919060a084600481601087901c8a165afa80156107de57879061263e575b600f8a015460029550116126335760ff600d60019a5b0199168955600160ff19809416179055161790556125788561571f565b60048382600854166040519283809263406ad64560e11b82525afa908115610634578391612616575b5016806125c6575b5050600080516020615d9d8339815191529154604051908152a280f35b8354813b1561261257829160448392604051948593849262ff4a7360e81b84528b600485015260248401525af180156105fc57156125a95761260790614b54565b6105f85783386125a9565b8280fd5b61262d9150843d861161062d5761061f8183614b9e565b386125a1565b60ff600d859a61255b565b5060a0843d8211612682575b8161265760a09383614b9e565b81010312610871578361266b600295615379565b5061267c60808a8301519201615379565b50612545565b3d915061264a565b60405162461bcd60e51b815260048101869052601860248201527745503a20546f6f206561726c7920746f207265736f6c766560401b6044820152606490fd5b60405162461bcd60e51b815260048101849052601260248201527111540e88139bdd081c1c9a58d9481999595960721b6044820152606490fd5b634e487b7160e01b87526021600452602487fd5b503461027557604036600319011261027557612732614ac0565b6001600160a01b03168152600c60205260408120805460243592908310156102755760206127608484614b3c565b90546040519160031b1c8152f35b5034610275578060031936011261027557546040516001600160a01b039091168152602090f35b50346102755761160a9060206127aa36614ad6565b60075460405163423e7bc160e11b81529687946001600160a01b039092169385938493909190600485016152e2565b5034610275576020366003190112610275576004358082526001602052604082209060ff600c8301541660058110156103a25760016128189114615302565b600b820154421061286f5761283760ff600e612038940154161561533e565b6040519061284482614b83565b601982527814995cdbdb1d5d1a5bdb881c195c9a5bd908195e1c1a5c9959603a1b60208301526156d6565b60405162461bcd60e51b815260206004820152601f60248201527f45503a205265736f6c7574696f6e20706572696f64206e6f7420656e646564006044820152606490fd5b50346102755780600319360112610275576128cd614d63565b600080546001600160a01b0319811682556001600160a01b0316600080516020615d7d8339815191528280a380f35b5034610275576020806003193601126103b6576004358252600581526040822060405192838383549182815201908193835284832090835b818110612991575050508461294a910385614b9e565b60405193838594850191818652518092526040850193925b82811061297157505050500390f35b83516001600160a01b031685528695509381019392810192600101612962565b82546001600160a01b031684529286019260019283019201612934565b5034610275576020806003193601126103b6576004358083526001825260408320600e810180549060ff8260081c1660028110156127045760016129f2911461538d565b612a0260ff601185015416615594565b612a0f60ff83161561533e565b6010830191825493612a228515156155d8565b600d546040805163e39dfd7f60e01b815260048101979097526001600160a01b0394918790602490829088165afa95861561110a5789908a97612c37575b5015612bf25785151580612be4575b15612b9f57600d820195865560ff199283166001179055600c0180549091166002179055612a9c8461571f565b6004868683600854166040519384809263406ad64560e11b82525afa928315612b9257869388938391612b75575b501680612b1b575b5050600080516020615d9d833981519152907f32736e1fe22a85082b71b7eb923b176a17df522ea8342ff5e24ce4b7e2019bbf9454604051908152a2549260405160018152a380f35b91509150835490803b156126125760448392604051948593849262ff4a7360e81b84528a600485015260248401525af1868115611658578592879215612ad257909250612b689150614b54565b610b135782848638612ad2565b612b8c9150843d861161062d5761061f8183614b9e565b38612aca565b50604051903d90823e3d90fd5b60405162461bcd60e51b815260048101899052601e60248201527f45503a20496e76616c6964206f7074696f6e2066726f6d206f7261636c6500006044820152606490fd5b506003820154861115612a6f565b60405162461bcd60e51b815260048101899052601d60248201527f45503a204f7261636c6520617373657274696f6e2072656a65637465640000006044820152606490fd5b9650506040863d604011612c6f575b81612c5360409383614b9e565b810103126110ff5787612c6587614d8f565b9601519538612a60565b3d9150612c46565b50346102755760209081600319360112610275576004359182825260018152604082209260ff600c8501541660058110156103a2576002612cb8911461561a565b600d84015491612cc9831515615659565b818452600281526040842033600052815260ff60406000205416156130a6576007546040516307c7a72d60e01b81526001600160a01b03918216949190838180612d17338960048401614f90565b0381895afa9081156107de578791613071575b5061303e57600487015416906040519063423e7bc160e11b8252838280612d5686338a600485016152e2565b0381895afa9182156107de57879261300f575b5060405163dc4ce34960e01b80825298858280612d8b88878c60048501615695565b03818b5afa91821561110a578992612fe0575b50889960036001920154915b82811115612f49575050604051634f44289d60e01b8152899594939291508a878280612dda898d60048401614f90565b03818d5afa9182156107de578792612f15575b5090612df891614e50565b81612e84575050505081945b803b1561261257858391612e319383604051809681958294632f0041ed60e11b8452338d60048601615271565b03925af180156105fc57612e70575b50507f5380cf6fe903b40c6d5a9e0dfbca2f3a423f0a21520b4d5947ed5169bdba946d906040519384523393a380f35b612e7990614b54565b6105f8578385612e40565b80612eb8575050858452600485526040842033600052855260406000205414600014612eb05794612e04565b508194612e04565b9187869294959652600487526040822033600052875260406000205414600014612f095750612328808202918204036107985791611398612f03926113936127108b97960484614e27565b94612e04565b93925050508194612e04565b88809298508193503d8311612f42575b612f2f8183614b9e565b810103126107d257518995612df8612ded565b503d612f25565b848103612f5f575b612f5a90614e5d565b612daa565b9a612f7e88888c8f8d604051958694859384938b855260048501615695565b03915afa908115612fd5578c91612fa6575b50612f9e90612f5a92614e50565b9b9050612f51565b90508881813d8311612fce575b612fbd8183614b9e565b810103126107d25751612f5a612f90565b503d612fb3565b6040513d8e823e3d90fd5b9091508581813d8311613008575b612ff88183614b9e565b810103126107d257519038612d9e565b503d612fee565b9091508381813d8311613037575b6130278183614b9e565b810103126107d257519038612d69565b503d61301d565b60405162461bcd60e51b815260048101849052600b60248201526a11540e8810db185a5b595960aa1b6044820152606490fd5b90508381813d831161309f575b6130888183614b9e565b810103126108715761309990614d8f565b38612d2a565b503d61307e565b6064906040519062461bcd60e51b82526004820152600c60248201526b45503a204e6f207374616b6560a01b6044820152fd5b50610180366003190112610275576004356001600160401b0381116103b657366023820112156103b657613117903690602481600401359101614bdc565b90602435151560243503610275576064356001600160a01b03811690036107d25760026101243510156102755761014435906001600160a01b03821682036107d257600854604051632b5ba3b960e01b81523360048201526001600160a01b0390911690602081602481855afa8015610634578390613e83575b61319c915015614d9c565b835115613e4b576002604435101580613e3e575b15613e035760843515613dca5760a43515613d8f5760c435151580613d81575b15613d46576101243515613cac575b6040516317916e0160e01b8152602081600481855afa908115610634578391613c7a575b5060e43510613c425760e4356101043510613c005760243515613b66576064356001600160a01b031615613b2257604051633462561360e11b81526064356001600160a01b0316600482015290602090829060249082905afa80156105fc578290613ae7575b6132739150614de1565b670de0b6b3a76400003410613aab57603c60e4350260e4358104603c1460e435151715613940576132a49042614e50565b9061010435603c610104350204603c146101043515171561139e576132cf603c610104350242614e50565b61012435613a955780915b600954946132e786614e5d565b600955604051906132f782614b67565b33825287602083015260243515156040830152604435606083015260018060a01b0360643516608083015260843560a083015260a43560c083015260c43560e08301524261010083015285610120830152836101408301528461016083015282610180830152826101a0830152826101c083015261337c610124356101e08401614e6c565b6001600160a01b0390811661020083015261016435610220830152610240820183905261026082018390528683526001602090815260408420835181546001600160a01b03191693169290921782558201518051919291906001600160401b038211613a815781906133f16001860154614c13565b601f8111613a43575b50602090601f83116001146139d45786926139c9575b50508160011b916000199060031b1c19161760018301555b61343b6040820151151560028401614e8f565b606081015160038301556004820160018060a01b0360808301511660018060a01b031982541617905560a0810151600583015560c0810151600683015560e0810151600783015561010081015160088301556101208101516009830155610140810151600a830155610160810151600b830155600c820161018082015160058110156139b55760ff801983541691161790556101a0810151600d830155600e82016134ed6101c0830151151582614e8f565b6101e082015160028110156139b5578154610200840151610100600160b01b031990911660089290921b61ff001691909117601091821b62010000600160b01b031617909155610220820151600f84015561024082015190830155610260015161355d9190151590601101614e8f565b600a54600160401b81101561399f57613597613580826001899401600a55614b0b565b819391549060031b91821b91600019901b19161790565b9055848152600b60205260408120805460ff191660011790556064356001600160a01b03166139545760a435670de0b6b3a76400000180670de0b6b3a7640000116139405734106139035761360c81808080670de0b6b3a764000060018060a01b038254165af1613606614ec6565b50614ef6565b8080808060a43560018060a01b03600754165af1613628614ec6565b50156138a6575b848152600260205260408120336000526020526040600020600160ff198254161790558481526004602052604081203360005260205260c435604060002055338152600c6020526136838560408320614ea0565b6007546001600160a01b0316803b156103b6578160405180926395f4109560e01b82528183816136c360c4358d60a4359060643590339060048701614f41565b03925af180156105fc57908291613892575b505060085460405163406ad64560e11b815290602090829060049082906001600160a01b03165afa9081156105fc578291613873575b506001600160a01b0381166137ad575b505060209484927f5d0726a1bb5ec8c87527e69ba86d988202e885fad8f2b4aacd618793d6f297b29261375b604051936101208552610120850190614cf3565b6024351515848a015260443560408501526064356001600160a01b0316606085015260843560808501524260a085015260c084019690965260e0830152610100820152339381900390a3604051908152f35b6001600160a01b0381163b156103b65760405163782a780560e11b81528281806137db338b60048401614f90565b0381836001600160a01b0387165af180156106345790839161385f575b50506001600160a01b0381163b156103b65760405163c228038d60e01b8152908290829081838161383360a43560c435338f60048601614fa9565b03926001600160a01b03165af180156105fc571561371b576138558291614b54565b610275578061371b565b61386890614b54565b6103b65781386137f8565b61388c915060203d60201161062d5761061f8183614b9e565b3861370b565b61389b90614b54565b6102755780386136d5565b60405162461bcd60e51b815260206004820152602f60248201527f45503a2043726561746f72206465706f736974207472616e7366657220746f2060448201526e151c99585cdd5c9e4819985a5b1959608a1b6064820152608490fd5b60405162461bcd60e51b815260206004820152601560248201527445503a20496e73756666696369656e74205045505560581b6044820152606490fd5b634e487b7160e01b82526011600452602482fd5b61397881808080670de0b6b3a764000060018060a01b038254165af1613606614ec6565b60075461399a9060a435906001600160a01b0390811690339060643516614fef565b61362f565b634e487b7160e01b600052604160045260246000fd5b634e487b7160e01b85526021600452602485fd5b015190503880613410565b9250600185018652602086209086935b601f1984168510613a28576001945083601f19811610613a0f575b505050811b016001830155613428565b015160001960f88460031b161c191690553880806139ff565b818101518355602094850194600190930192909101906139e4565b613a719060018701885260208820601f850160051c81019160208610613a77575b601f0160051c0190614e78565b386133fa565b9091508190613a64565b634e487b7160e01b85526041600452602485fd5b61c4e0810181116139405761c4e08101916132da565b60405162461bcd60e51b815260206004820152601460248201527345503a20496e73756666696369656e742066656560601b6044820152606490fd5b506020813d602011613b1a575b81613b0160209383614b9e565b810103126103b657613b1561327391614d8f565b613269565b3d9150613af4565b606460405162461bcd60e51b815260206004820152602060248201527f45503a204d756c74692d6f7074696f6e206e656564732050325020746f6b656e6044820152fd5b6064356001600160a01b0316613b7d575b50613273565b604051633462561360e11b81526064356001600160a01b0316600482015290602090829060249082905afa80156105fc578290613bc5575b613bbf9150614de1565b38613b77565b506020813d602011613bf8575b81613bdf60209383614b9e565b810103126103b657613bf3613bbf91614d8f565b613bb5565b3d9150613bd2565b60405162461bcd60e51b815260206004820152601a60248201527945503a205265736f6c7574696f6e206166746572207374616b6560301b6044820152606490fd5b60405162461bcd60e51b815260206004820152601060248201526f22a81d1026b4b710323ab930ba34b7b760811b6044820152606490fd5b90506020813d602011613ca4575b81613c9560209383614b9e565b810103126107d2575138613203565b3d9150613c88565b6001600160a01b03831615613d0757610164356131df5760405162461bcd60e51b815260206004820152601c60248201527b11540e88141c9a58d9481d1a1c995cda1bdb19081c995c5d5a5c995960221b6044820152606490fd5b60405162461bcd60e51b815260206004820152601760248201527611540e88141c9a58d94819995959081c995c5d5a5c9959604a1b6044820152606490fd5b60405162461bcd60e51b815260206004820152601360248201527245503a20496e76616c6964206f7574636f6d6560681b6044820152606490fd5b5060443560c43511156131d0565b60405162461bcd60e51b815260206004820152601360248201527211540e88125b9d985b1a590819195c1bdcda5d606a1b6044820152606490fd5b60405162461bcd60e51b815260206004820152601160248201527045503a20496e76616c6964207374616b6560781b6044820152606490fd5b60405162461bcd60e51b815260206004820152601360248201527245503a20496e76616c6964206f7074696f6e7360681b6044820152606490fd5b50600a60443511156131b0565b60405162461bcd60e51b815260206004820152601060248201526f08aa0744092dcecc2d8d2c840d0c2e6d60831b6044820152606490fd5b506020813d602011613eb6575b81613e9d60209383614b9e565b8101031261261257613eb161319c91614d8f565b613191565b3d9150613e90565b50346102755780600319360112610275576007546040516001600160a01b039091168152602090f35b5034610275576020806003193601126103b657600435808352600182526040832091600e8301549260ff8460081c1660028110156140b85760ff91613f3060016010931461538d565b613f3f83601183015416615594565b0193613f4d855415156155d8565b1661407d57600d5484916001600160a01b03918216613f6d8115156153d1565b60248284600e541692613f8184151561540e565b60405192838092634360af3d60e01b82528660048301525afa92831561407257859361403c575b505090611d7981613fbe93611d7082151561544d565b600d54168354813b1561261257829160448392604051948593849263a6a22b4360e01b845260048401523360248401525af180156105fc57614028575b5050339154907f8764c70ba5e4ae969c50093a5cb46e29238fb82e4b7eb17d22a8102996b01c8a8480a480f35b61403190614b54565b612612578238613ffb565b809295508193503d831161406b575b6140558183614b9e565b810103126107d257518592611d79613fbe613fa8565b503d61404b565b6040513d87823e3d90fd5b6064906040519062461bcd60e51b82526004820152601460248201527311540e88105b1c9958591e481c995cdbdb1d995960621b6044820152fd5b634e487b7160e01b86526021600452602486fd5b5034610275576020806003193601126103b65760043580835260018252604083209160ff600c8401541660058110156139b5576003036143e957818452600281526040842033600052815260ff6040600020541680156143c9575b1561438c578392828552600282526040852033600052825260ff604060002054166142f1575b828552600382526040852033600052825260ff60406000205416614249575b831561420a5760075460049091015485916001600160a01b039182169116803b15612612578583916141b7938360405180968195829463164fcd7d60e21b8452338d60048601615271565b03925af180156105fc576141f6575b50507ff3f402280ef0a7905e124aa621b65eaeb2725c343e8b36d398ed78c29daf285c906040519384523393a380f35b6141ff90614b54565b6105f85783386141c6565b60405162461bcd60e51b815260048101839052601760248201527645503a204e6f20726566756e6420617661696c61626c6560481b6044820152606490fd5b92614280908260018060a01b0380600754169060048801541690604051808096819463256ba74160e01b8352338b600485016152e2565b03915afa908115610cf05786916142c0575b61429c9250614e50565b928285526003825260408520336000528252604060002060ff19815416905561416c565b90508282813d83116142ea575b6142d78183614b9e565b810103126107d25761429c915190614292565b503d6142cd565b92506143288160018060a01b0380600754169060048701541690604051808095819463423e7bc160e11b8352338a600485016152e2565b03915afa90811561407257859161435f575b50928285526002825260408520336000528252604060002060ff19815416905561414d565b90508181813d8311614385575b6143768183614b9e565b810103126107d257513861433a565b503d61436c565b6064906040519062461bcd60e51b82526004820152601660248201527511540e88139bc81cdd185ad9481d1bc81c99599d5b9960521b6044820152fd5b50818452600381526040842033600052815260ff60406000205416614127565b6064906040519062461bcd60e51b82526004820152601860248201527711540e8813585c9ad95d081b9bdd0818d85b98d95b1b195960421b6044820152fd5b50346102755760203660031901126102755760043580825260016020526040822060ff600e82015460081c1660028110156103a2579061446c60016010931461538d565b61447c60ff601183015416615594565b0182815461448b8115156155d8565b600d546001600160a01b031690813b15612612578291602483926040519485938492634124beef60e01b845260048401525af180156105fc576144f4575b505054907f049c1c3eca1ffdb1b59f7205ce06f2461ace420050f9ad1b4b6b55f4a0f2e5268380a380f35b6144fd90614b54565b6126125782386144c9565b503461027557806003193601126102755760206040516101f48152f35b50346102755760403660031901126102755761160a906020614545614aaa565b60018060a01b03600754166040518080968194634f44289d60e01b835260043560048401614f90565b50346102755780600319360112610275576020600954604051908152f35b5034610275576020806003193601126103b6576004358083526001825260408320600383526040842033855283526145ca60ff604086205416615299565b60ff600c8201541660058110156139b5578061475e5750600981015461a8bf19810190811161474a574210156146ea575b8360018060a01b036004816007541693015416916040519063256ba74160e01b825285828061462f87338a600485016152e2565b0381845afa9182156106345783926146bb575b5061464e821515615299565b803b156126125761467893836040518096819582946317be0b2f60e11b8452338b60048601615271565b03925af18015611e75576146a8575b5082526003815260408220903360005252604060002060ff19815416905580f35b6146b490939193614b54565b9138614687565b9091508581813d83116146e3575b6146d38183614b9e565b8101031261261257519038614642565b503d6146c9565b60405162461bcd60e51b815260048101849052603260248201527f45503a2043616e6e6f742077697468647261772077697468696e20313220686f6044820152711d5c9cc81bd9881cdd185ada5b99c8195b9960721b6064820152608490fd5b634e487b7160e01b85526011600452602485fd5b600481149081156147c8575b506145fb5760405162461bcd60e51b815260048101849052602b60248201527f45503a2043616e6e6f7420776974686472617720696e2063757272656e74206d60448201526a61726b657420737461746560a81b6064820152608490fd5b60039150143861476a565b50346102755760203660031901126102755760043590600a5482101561027557602061276083614b0b565b50346102755760403660031901126102755760ff604060209261481f614aaa565b6004358252600285528282206001600160a01b03909116825284522054604051911615158152f35b50346102755780600319360112610275576020604051670de0b6b3a76400008152f35b50346102755760403660031901126102755760ff604060209261488b614aaa565b6004358252600385528282206001600160a01b03909116825284522054604051911615158152f35b5034610275576148f660206148c736614ad6565b60075460405163256ba74160e01b81529586946001600160a01b039092169385938493909190600485016152e2565b03915afa9081156105fc578291614913575b602082604051908152f35b90506020813d8211614940575b8161492d60209383614b9e565b810103126103b657602091505138614908565b3d9150614920565b5034610275578060031936011261027557600d546040516001600160a01b039091168152602090f35b5034610275578060031936011261027557600e546040516001600160a01b039091168152602090f35b503461027557602036600319011261027557600435808252600160205260408220600c81019081549060ff821660058110156140b857906149dd600a92156150ce565b01544210614a0f5760ff19166001179055808252600b602052604082205460ff16614a06575080f35b61203890615be8565b60405162461bcd60e51b815260206004820152601f60248201527f45503a205265736f6c7574696f6e2074696d65206e6f742072656163686564006044820152606490fd5b50346102755760203660031901126102755760ff60406020926004358152600b84522054166040519015158152f35b9050346103b65760203660031901126103b657604060209260043581526005845220548152f35b602435906001600160a01b03821682036107d257565b600435906001600160a01b03821682036107d257565b60609060031901126107d257600435906001600160a01b039060243582811681036107d2579160443590811681036107d25790565b600a54811015614b2657600a60005260206000200190600090565b634e487b7160e01b600052603260045260246000fd5b8054821015614b265760005260206000200190600090565b6001600160401b03811161399f57604052565b61028081019081106001600160401b0382111761399f57604052565b604081019081106001600160401b0382111761399f57604052565b601f909101601f19168101906001600160401b0382119082101761399f57604052565b6001600160401b03811161399f57601f01601f191660200190565b929192614be882614bc1565b91614bf66040519384614b9e565b8294818452818301116107d2578281602093846000960137010152565b90600182811c92168015614c43575b6020831014614c2d57565b634e487b7160e01b600052602260045260246000fd5b91607f1691614c22565b9060405191826000825492614c6184614c13565b908184526001948581169081600014614cd05750600114614c8d575b5050614c8b92500383614b9e565b565b9093915060005260209081600020936000915b818310614cb8575050614c8b93508201013880614c7d565b85548884018501529485019487945091830191614ca0565b915050614c8b94506020925060ff191682840152151560051b8201013880614c7d565b919082519283825260005b848110614d1f575050826000602080949584010152601f8019910116010190565b602081830181015184830182015201614cfe565b9060058210156119555752565b9060028210156119555752565b60409060031901126107d2576004359060243590565b6000546001600160a01b03163303614d7757565b60405163118cdaa760e01b8152336004820152602490fd5b519081151582036107d257565b15614da357565b60405162461bcd60e51b815260206004820152601660248201527511540e8815d85b1b195d08189b1858dadb1a5cdd195960521b6044820152606490fd5b15614de857565b60405162461bcd60e51b815260206004820152601760248201527611540e88151bdad95b881b9bdd081cdd5c1c1bdc9d1959604a1b6044820152606490fd5b81810292918115918404141715614e3a57565b634e487b7160e01b600052601160045260246000fd5b91908201809211614e3a57565b6000198114614e3a5760010190565b60028210156119555752565b818110614e83575050565b60008155600101614e78565b9060ff801983541691151516179055565b805490600160401b82101561399f5781613580916001614ec294018155614b3c565b9055565b3d15614ef1573d90614ed782614bc1565b91614ee56040519384614b9e565b82523d6000602084013e565b606090565b15614efd57565b606460405162461bcd60e51b815260206004820152602060248201527f45503a20466565207472616e7366657220746f206f776e6572206661696c65646044820152fd5b9081526001600160a01b039182166020820152911660408201526060810191909152608081019190915260a00190565b908160209103126107d257516001600160a01b03811681036107d25790565b9081526001600160a01b03909116602082015260400190565b909493926060926080830196835260018060a01b0316602083015260408201520152565b6001600160a01b03918216815291166020820152604081019190915260600190565b9061502590615017614c8b956040519586936323b872dd60e01b602086015260248501614fcd565b03601f198101845283614b9e565b906000602091828151910182855af115615081576000513d61507857506001600160a01b0381163b155b6150565750565b604051635274afe760e01b81526001600160a01b039091166004820152602490fd5b6001141561504f565b6040513d6000823e3d90fd5b1561509457565b60405162461bcd60e51b815260206004820152601260248201527111540e8813585c9ad95d0819195b195d195960721b6044820152606490fd5b156150d557565b60405162461bcd60e51b815260206004820152600e60248201526d45503a204e6f742061637469766560901b6044820152606490fd5b91908203918211614e3a57565b1561511f57565b60405162461bcd60e51b815260206004820152601860248201527711540e8814dd185ada5b99c81c195c9a5bd908195b99195960421b6044820152606490fd5b1561516657565b60405162461bcd60e51b815260206004820152600e60248201526d22a81d102130b21037b83a34b7b760911b6044820152606490fd5b156151a357565b60405162461bcd60e51b815260206004820152600d60248201526c22a81d102132b637bb9036b4b760991b6044820152606490fd5b8054600160401b81101561399f576151f591600182018155614b3c565b819291549060031b9160018060a01b03809116831b921b1916179055565b1561521a57565b60405162461bcd60e51b815260206004820152602960248201527f45503a20537570706f727420616d6f756e74206d75737420626520677265617460448201526806572207468616e20360bc1b6064820152608490fd5b9081526001600160a01b03918216602082015291166040820152606081019190915260800190565b156152a057565b60405162461bcd60e51b815260206004820152601a60248201527945503a204e6f20737570706f727420746f20776974686472617760301b6044820152606490fd5b9081526001600160a01b0391821660208201529116604082015260600190565b1561530957565b60405162461bcd60e51b815260206004820152600d60248201526c11540e88139bdd08195b991959609a1b6044820152606490fd5b1561534557565b60405162461bcd60e51b815260206004820152600c60248201526b11540e8814995cdbdb1d995960a21b6044820152606490fd5b51906001600160501b03821682036107d257565b1561539457565b60405162461bcd60e51b815260206004820152601560248201527445503a204e6f74205032504f5054494d495354494360581b6044820152606490fd5b156153d857565b60405162461bcd60e51b815260206004820152600e60248201526d11540e8813d3c81b9bdd081cd95d60921b6044820152606490fd5b1561541557565b60405162461bcd60e51b815260206004820152601060248201526f11540e88109bdb99081b9bdd081cd95d60821b6044820152606490fd5b1561545457565b60405162461bcd60e51b815260206004820152601060248201526f11540e88125b9d985b1a5908189bdb9960821b6044820152606490fd5b6001600160a01b039091168152602081019190915260400190565b9291926040519160208301906154de846154d063095ea7b360e01b98898652846024840161548c565b03601f198101865285614b9e565b60206000809386519082875af182513d8261556f575b505015615504575b505050509050565b60405160208101969096526001600160a01b031660248601526044808601829052855260808501906001600160401b0382118683101761555b575061555193946150259160405282615025565b80388080806154fc565b634e487b7160e01b81526041600452602490fd5b90915061558c57506001600160a01b0383163b15155b38806154f4565b600114615585565b1561559b57565b60405162461bcd60e51b815260206004820152601560248201527445503a204e6f20617373657274696f6e206d61646560581b6044820152606490fd5b156155df57565b60405162461bcd60e51b815260206004820152601360248201527211540e88139bc8185cdcd95c9d1a5bdb881251606a1b6044820152606490fd5b1561562157565b60405162461bcd60e51b815260206004820152601060248201526f11540e88139bdd081c995cdbdb1d995960821b6044820152606490fd5b1561566057565b60405162461bcd60e51b815260206004820152600d60248201526c22a81d102737903bb4b73732b960991b6044820152606490fd5b90815260208101919091526001600160a01b03909116604082015260600190565b81156156c0570490565b634e487b7160e01b600052601260045260246000fd5b9061571a600080516020615d5d83398151915291836000526001602052600c604060002001600360ff19825416179055604051918291602083526020830190614cf3565b0390a2565b60009080825260206001815260409182842090849160016003820154600d830154915b81811115615b3a575050600754600483810180548951634f44289d60e01b81526001600160a01b03999298939792948a1693918a1692918582806157898787838f01614f90565b0381885afa918215615b30579189918d97969594938f92615aed575b50916157cf856157b786948a96614e50565b995163dc4ce34960e01b81529a8b9485948501615695565b0381865afa958615615ab0578c96615aba575b508382615802928d519384928392633d1e7ba160e11b84528d8401614f90565b0381865afa938415615ab0578c94615a80575b505061015e9384840284159585820414861715615a6d57612710809104956101f49081870291878304141715615a5a57049561595c575050506158629061585c8484614e50565b9061510b565b92816158ef575b50509061587591614e50565b9283615884575b505050505050565b806007541692541690823b15610b4857918493918680946158b897519788958694859363f0824f3360e01b8552840161548c565b03925af19081156158e657506158d2575b8080808061587c565b6158dc8291614b54565b61027557806158c9565b513d84823e3d90fd5b8680600754169154168787541690823b15615958579161592893918b80948c519687958694859363112cd22360e01b85528d8501614fcd565b03925af1801561594e57908891156158695761594390614b54565b610871578638615869565b87513d8a823e3d90fd5b8a80fd5b909250979490929397615976575b50505050505050505050565b8490846159f4575b505050505083615992575b8080808061596a565b806007541692541690823b15610b4857918493918680946159c69751978895869485936348fef59560e01b8552840161548c565b03925af19081156158e657506159e0575b80808080615989565b6159ea8291614b54565b61027557806159d7565b5416823b15615a565791615a2193918a80948b519687958694859363112cd22360e01b85528c8501614fcd565b03925af18015615a4c57615a39575b8080838161597e565b615a4590969196614b54565b9438615a30565b86513d89823e3d90fd5b8980fd5b634e487b7160e01b8e5260118a5260248efd5b634e487b7160e01b8d526011895260248dfd5b9080929450813d8311615aa9575b615a988183614b9e565b810103126159585751913880615815565b503d615a8e565b8b513d8e823e3d90fd5b9095508381813d8311615ae6575b615ad28183614b9e565b81010312615ae2575194836157e2565b8b80fd5b503d615ac8565b9250929394959650508581813d8311615b29575b615b0b8183614b9e565b81010312615b2557518b95949392918991906157cf6157a5565b8c80fd5b503d615b01565b8c513d8f823e3d90fd5b828103615b50575b615b4b90614e5d565b615742565b9487878760018060a01b0388816007541691615b87600491828c01541696519687958694859463dc4ce34960e01b86528501615695565b03915afa908115615bde578a91615baf575b50615ba790615b4b92614e50565b959050615b42565b90508781813d8311615bd7575b615bc68183614b9e565b81010312615a565751615b4b615b99565b503d615bbc565b89513d8c823e3d90fd5b60005b600a9081549182821015615c9d578392615c0483614b0b565b949054600395861b1c14615c23575050615c1e9150614e5d565b615beb565b909160001991828101908111614e3a57613580615c42615c4e92614b0b565b905490871b1c92614b0b565b905581548015615c8757810192615c6484614b0b565b81939154921b1b1916905555600052600b602052604060002060ff198154169055565b634e487b7160e01b600052603160045260246000fd5b50505050565b15615caa57565b60405162461bcd60e51b815260206004820152601560248201527422a81d1027b7363c9020b236b4b726b0b730b3b2b960591b6044820152606490fd5b15615cee57565b60405162461bcd60e51b815260206004820152600a60248201526911540e8810985908125160b21b6044820152606490fd5b15615d2757565b60405162461bcd60e51b815260206004820152600d60248201526c11540e88139bc81b585c9ad95d609a1b6044820152606490fdfe4c4561c5b0048424071c1115e9f1e325486e21c21333d968f21097b7b72d12ad8be0079c531659141344cd1fd0a4f28419497f9722a3daafe3b4186f6b6457e06dfc24f0f2fb42e49fb4fa3ffa8abb148cab908a1fb8335b3f128a08b2594af1e10fdde2c5cd9b92e449ee25df01febda2cbebc5553e38f2250ffe7f2d5143bca164736f6c6343000814000a","opcodes":"PUSH1 0x80 CALLVALUE PUSH3 0xFF JUMPI PUSH1 0x1F PUSH3 0x5F19 CODESIZE DUP2 SWAP1 SUB SWAP2 DUP3 ADD PUSH1 0x1F NOT AND DUP4 ADD SWAP2 PUSH1 0x1 PUSH1 0x1 PUSH1 0x40 SHL SUB DUP4 GT DUP5 DUP5 LT OR PUSH3 0x104 JUMPI DUP1 DUP5 SWAP3 PUSH1 0x60 SWAP5 PUSH1 0x40 MSTORE DUP4 CODECOPY DUP2 ADD SUB SLT PUSH3 0xFF JUMPI PUSH3 0x4D DUP2 PUSH3 0x11A JUMP JUMPDEST PUSH1 0x20 DUP3 ADD MLOAD PUSH1 0x1 PUSH1 0x1 PUSH1 0xA0 SHL SUB DUP1 DUP3 AND SWAP4 SWAP1 SWAP2 DUP5 SWAP1 SUB PUSH3 0xFF JUMPI PUSH3 0x77 PUSH1 0x40 DUP4 SWAP3 ADD PUSH3 0x11A JUMP JUMPDEST SWAP3 AND SWAP2 DUP3 ISZERO PUSH3 0xE6 JUMPI PUSH1 0x0 SLOAD SWAP4 PUSH1 0x1 DUP1 PUSH1 0xA0 SHL SUB NOT SWAP4 DUP1 DUP6 DUP8 AND OR PUSH1 0x0 SSTORE DUP4 PUSH1 0x40 MLOAD SWAP7 AND PUSH32 0x8BE0079C531659141344CD1FD0A4F28419497F9722A3DAAFE3B4186F6B6457E0 PUSH1 0x0 DUP1 LOG3 PUSH1 0x1 PUSH1 0x9 SSTORE DUP4 PUSH1 0x7 SLOAD AND OR PUSH1 0x7 SSTORE AND SWAP1 PUSH1 0x8 SLOAD AND OR PUSH1 0x8 SSTORE PUSH2 0x5DE9 SWAP1 DUP2 PUSH3 0x130 DUP3 CODECOPY RETURN JUMPDEST PUSH1 0x40 MLOAD PUSH4 0x1E4FBDF7 PUSH1 0xE0 SHL DUP2 MSTORE PUSH1 0x0 PUSH1 0x4 DUP3 ADD MSTORE PUSH1 0x24 SWAP1 REVERT JUMPDEST PUSH1 0x0 DUP1 REVERT JUMPDEST PUSH4 0x4E487B71 PUSH1 0xE0 SHL PUSH1 0x0 MSTORE PUSH1 0x41 PUSH1 0x4 MSTORE PUSH1 0x24 PUSH1 0x0 REVERT JUMPDEST MLOAD SWAP1 PUSH1 0x1 PUSH1 0x1 PUSH1 0xA0 SHL SUB DUP3 AND DUP3 SUB PUSH3 0xFF JUMPI JUMP INVALID PUSH2 0x120 DUP1 PUSH1 0x40 MSTORE PUSH1 0x4 CALLDATASIZE LT ISZERO PUSH2 0x1E JUMPI JUMPDEST POP CALLDATASIZE ISZERO PUSH2 0x1C JUMPI PUSH1 0x0 DUP1 REVERT JUMPDEST STOP JUMPDEST PUSH1 0x0 SWAP1 DUP2 CALLDATALOAD PUSH1 0xE0 SHR SWAP1 DUP2 PUSH4 0xCCF4467 EQ PUSH2 0x4A83 JUMPI POP DUP1 PUSH4 0xD64CDBD EQ PUSH2 0x4A54 JUMPI DUP1 PUSH4 0x157BDCCE EQ PUSH2 0x499A JUMPI DUP1 PUSH4 0x209C1C94 EQ PUSH2 0x4971 JUMPI DUP1 PUSH4 0x22302922 EQ PUSH2 0x4948 JUMPI DUP1 PUSH4 0x256BA741 EQ PUSH2 0x48B3 JUMPI DUP1 PUSH4 0x287F57B5 EQ PUSH2 0x486A JUMPI DUP1 PUSH4 0x2EF1BDFA EQ PUSH2 0x4847 JUMPI DUP1 PUSH4 0x304BF1F1 EQ PUSH2 0x47FE JUMPI DUP1 PUSH4 0x3ADFE6D0 EQ PUSH2 0x47D3 JUMPI DUP1 PUSH4 0x3E32A76C EQ PUSH2 0x458C JUMPI DUP1 PUSH4 0x406EF2EF EQ PUSH2 0x456E JUMPI DUP1 PUSH4 0x4F44289D EQ PUSH2 0x4525 JUMPI DUP1 PUSH4 0x539AA77F EQ PUSH2 0x4508 JUMPI DUP1 PUSH4 0x569946C5 EQ PUSH2 0x4428 JUMPI DUP1 PUSH4 0x5B7BAF64 EQ PUSH2 0x40CC JUMPI DUP1 PUSH4 0x5CB305A6 EQ PUSH2 0x3EE7 JUMPI DUP1 PUSH4 0x61D027B3 EQ PUSH2 0x3EBE JUMPI DUP1 PUSH4 0x66CF7ED4 EQ PUSH2 0x30D9 JUMPI DUP1 PUSH4 0x677BD9FF EQ PUSH2 0x2C77 JUMPI DUP1 PUSH4 0x6D4476EC EQ PUSH2 0x29AE JUMPI DUP1 PUSH4 0x6F59359E EQ PUSH2 0x28FC JUMPI DUP1 PUSH4 0x715018A6 EQ PUSH2 0x28B4 JUMPI DUP1 PUSH4 0x7C16CD9E EQ PUSH2 0x27D9 JUMPI DUP1 PUSH4 0x847CF782 EQ PUSH2 0x2795 JUMPI DUP1 PUSH4 0x8DA5CB5B EQ PUSH2 0x276E JUMPI DUP1 PUSH4 0x98A17671 EQ PUSH2 0x2718 JUMPI DUP1 PUSH4 0x9A3A40D6 EQ PUSH2 0x2496 JUMPI DUP1 PUSH4 0xA210B6A4 EQ PUSH2 0x246D JUMPI DUP1 PUSH4 0xA30A0914 EQ PUSH2 0x2443 JUMPI DUP1 PUSH4 0xA550725D EQ PUSH2 0x23BA JUMPI DUP1 PUSH4 0xB1283E77 EQ PUSH2 0x2217 JUMPI DUP1 PUSH4 0xBC160758 EQ PUSH2 0x219B JUMPI DUP1 PUSH4 0xBF5C3252 EQ PUSH2 0x2102 JUMPI DUP1 PUSH4 0xC22C62C3 EQ PUSH2 0x20D0 JUMPI DUP1 PUSH4 0xC3436E0C EQ PUSH2 0x1F9F JUMPI DUP1 PUSH4 0xCC3CBD2A EQ PUSH2 0x1F82 JUMPI DUP1 PUSH4 0xD18E181A EQ PUSH2 0x1C27 JUMPI DUP1 PUSH4 0xD5F82707 EQ PUSH2 0x1BDC JUMPI DUP1 PUSH4 0xD8C5DD67 EQ PUSH2 0x1B95 JUMPI DUP1 PUSH4 0xDC4CE349 EQ PUSH2 0x1B42 JUMPI DUP1 PUSH4 0xE0BD4ACC EQ PUSH2 0x196B JUMPI DUP1 PUSH4 0xEB44FDD3 EQ PUSH2 0x1664 JUMPI DUP1 PUSH4 0xF00FE321 EQ PUSH2 0x15C1 JUMPI DUP1 PUSH4 0xF15CC406 EQ PUSH2 0x115F JUMPI DUP1 PUSH4 0xF1B7DDE3 EQ PUSH2 0xD39 JUMPI DUP1 PUSH4 0xF204072F EQ PUSH2 0x8F2 JUMPI DUP1 PUSH4 0xF2FDE38B EQ PUSH2 0x87C JUMPI DUP1 PUSH4 0xF4867591 EQ PUSH2 0x3BA JUMPI DUP1 PUSH4 0xFB87F2C3 EQ PUSH2 0x278 JUMPI PUSH4 0xFE53A6E8 SUB PUSH2 0x10 JUMPI CALLVALUE PUSH2 0x275 JUMPI DUP1 PUSH1 0x3 NOT CALLDATASIZE ADD SLT PUSH2 0x275 JUMPI PUSH1 0x20 PUSH1 0x9 SLOAD PUSH1 0x40 MLOAD SWAP1 DUP2 MSTORE RETURN JUMPDEST DUP1 REVERT JUMPDEST POP CALLVALUE PUSH2 0x275 JUMPI PUSH1 0x20 DUP1 PUSH1 0x3 NOT CALLDATASIZE ADD SLT PUSH2 0x3B6 JUMPI PUSH1 0x4 CALLDATALOAD SWAP1 PUSH2 0x2C9 PUSH1 0x1 DUP1 PUSH1 0xA0 SHL SUB PUSH2 0x2A8 DUP2 PUSH1 0x8 SLOAD AND CALLER EQ PUSH2 0x5CA3 JUMP JUMPDEST PUSH2 0x2B5 PUSH1 0x9 SLOAD DUP6 LT PUSH2 0x5CE7 JUMP JUMPDEST DUP4 DUP6 MSTORE PUSH1 0x1 DUP4 MSTORE PUSH1 0x40 DUP6 KECCAK256 SLOAD AND ISZERO ISZERO PUSH2 0x5D20 JUMP JUMPDEST DUP2 DUP4 MSTORE PUSH1 0x1 DUP2 MSTORE PUSH1 0xFF PUSH1 0xC PUSH1 0x40 DUP6 KECCAK256 ADD SLOAD AND PUSH1 0x5 DUP2 LT ISZERO PUSH2 0x3A2 JUMPI PUSH1 0x4 EQ PUSH2 0x368 JUMPI PUSH1 0x60 PUSH1 0x0 DUP1 MLOAD PUSH1 0x20 PUSH2 0x5D5D DUP4 CODECOPY DUP2 MLOAD SWAP2 MSTORE SWAP2 DUP4 DUP6 MSTORE PUSH1 0x1 DUP2 MSTORE PUSH1 0xC PUSH1 0x40 DUP7 KECCAK256 ADD PUSH1 0x4 PUSH1 0xFF NOT DUP3 SLOAD AND OR SWAP1 SSTORE DUP4 DUP6 MSTORE PUSH1 0xB DUP2 MSTORE PUSH1 0xFF PUSH1 0x40 DUP7 KECCAK256 SLOAD AND PUSH2 0x35A JUMPI JUMPDEST PUSH1 0x17 PUSH1 0x40 MLOAD SWAP2 DUP1 DUP4 MSTORE DUP3 ADD MSTORE PUSH23 0x26B0B935B2BA103232B632BA32B210313C9030B236B4B7 PUSH1 0x49 SHL PUSH1 0x40 DUP3 ADD MSTORE LOG2 DUP1 RETURN JUMPDEST PUSH2 0x363 DUP5 PUSH2 0x5BE8 JUMP JUMPDEST PUSH2 0x32A JUMP JUMPDEST PUSH1 0x64 SWAP1 PUSH1 0x40 MLOAD SWAP1 PUSH3 0x461BCD PUSH1 0xE5 SHL DUP3 MSTORE PUSH1 0x4 DUP3 ADD MSTORE PUSH1 0x13 PUSH1 0x24 DUP3 ADD MSTORE PUSH19 0x11540E88105B1C9958591E4819195B195D1959 PUSH1 0x6A SHL PUSH1 0x44 DUP3 ADD MSTORE REVERT JUMPDEST PUSH4 0x4E487B71 PUSH1 0xE0 SHL DUP5 MSTORE PUSH1 0x21 PUSH1 0x4 MSTORE PUSH1 0x24 DUP5 REVERT JUMPDEST POP DUP1 REVERT JUMPDEST POP PUSH2 0x3C4 CALLDATASIZE PUSH2 0x4D4D JUMP JUMPDEST PUSH1 0x8 SLOAD PUSH1 0x40 MLOAD PUSH4 0x4D9B4235 PUSH1 0xE1 SHL DUP2 MSTORE PUSH1 0x4 DUP2 ADD DUP5 SWAP1 MSTORE SWAP2 SWAP3 SWAP2 PUSH1 0x20 SWAP2 PUSH1 0x1 PUSH1 0x1 PUSH1 0xA0 SHL SUB SWAP2 SWAP1 DUP3 AND SWAP1 DUP4 DUP2 PUSH1 0x24 DUP2 DUP6 GAS STATICCALL DUP1 ISZERO PUSH2 0x7DE JUMPI DUP8 SWAP1 PUSH2 0x842 JUMPI JUMPDEST PUSH2 0x40E SWAP2 POP ISZERO PUSH2 0x508D JUMP JUMPDEST DUP4 DUP7 MSTORE PUSH1 0x1 DUP4 MSTORE PUSH1 0x40 DUP7 KECCAK256 SWAP1 PUSH1 0xFF PUSH1 0xC DUP4 ADD SLOAD AND PUSH1 0x5 DUP2 LT ISZERO PUSH2 0x82E JUMPI PUSH2 0x435 SWAP1 ISZERO PUSH2 0x50CE JUMP JUMPDEST PUSH1 0x40 MLOAD PUSH4 0x111A7989 PUSH1 0xE3 SHL DUP2 MSTORE DUP5 DUP2 PUSH1 0x4 DUP2 DUP6 GAS STATICCALL DUP1 ISZERO PUSH2 0x823 JUMPI DUP6 SWAP2 DUP10 SWAP2 PUSH2 0x7E9 JUMPI JUMPDEST POP PUSH2 0x73F JUMPI JUMPDEST POP POP DUP5 ISZERO ISZERO DUP1 PUSH2 0x731 JUMPI JUMPDEST PUSH2 0x473 SWAP1 PUSH2 0x515F JUMP JUMPDEST PUSH1 0x4 DUP2 ADD SWAP1 DUP3 DUP3 SLOAD AND PUSH2 0x6D1 JUMPI PUSH1 0x5 PUSH2 0x490 SWAP2 ADD SLOAD CALLVALUE LT ISZERO PUSH2 0x519C JUMP JUMPDEST DUP6 DUP1 DUP1 DUP1 CALLVALUE DUP7 PUSH1 0x7 SLOAD AND GAS CALL PUSH2 0x4A4 PUSH2 0x4EC6 JUMP JUMPDEST POP ISZERO PUSH2 0x680 JUMPI SWAP1 DUP6 SWAP2 DUP5 DUP4 MSTORE PUSH1 0x2 DUP5 MSTORE PUSH1 0x40 DUP4 KECCAK256 CALLER PUSH1 0x0 MSTORE DUP5 MSTORE PUSH1 0xFF PUSH1 0x40 PUSH1 0x0 KECCAK256 SLOAD AND ISZERO PUSH2 0x653 JUMPI JUMPDEST DUP5 DUP4 MSTORE PUSH1 0x2 DUP5 MSTORE PUSH1 0x40 DUP4 KECCAK256 CALLER PUSH1 0x0 MSTORE DUP5 MSTORE PUSH1 0x40 PUSH1 0x0 KECCAK256 PUSH1 0x1 PUSH1 0xFF NOT DUP3 SLOAD AND OR SWAP1 SSTORE DUP5 DUP4 MSTORE PUSH1 0x4 DUP5 MSTORE PUSH1 0x40 DUP4 KECCAK256 CALLER PUSH1 0x0 MSTORE DUP5 MSTORE DUP6 PUSH1 0x40 PUSH1 0x0 KECCAK256 SSTORE DUP2 DUP1 PUSH1 0x7 SLOAD AND SWAP2 SLOAD AND SWAP1 DUP1 EXTCODESIZE ISZERO PUSH2 0x5F8 JUMPI PUSH1 0x40 MLOAD PUSH4 0x95F41095 PUSH1 0xE0 SHL DUP2 MSTORE SWAP2 DUP5 SWAP2 DUP4 SWAP2 DUP3 SWAP1 DUP5 SWAP1 DUP3 SWAP1 PUSH2 0x542 SWAP1 DUP14 SWAP1 CALLVALUE SWAP1 CALLER DUP16 PUSH1 0x4 DUP8 ADD PUSH2 0x4F41 JUMP JUMPDEST SUB SWAP3 GAS CALL SWAP1 DUP2 ISZERO PUSH2 0x634 JUMPI DUP4 SWAP2 PUSH2 0x63F JUMPI JUMPDEST POP POP PUSH1 0x4 DUP4 DUP3 PUSH1 0x8 SLOAD AND PUSH1 0x40 MLOAD SWAP3 DUP4 DUP1 SWAP3 PUSH4 0x406AD645 PUSH1 0xE1 SHL DUP3 MSTORE GAS STATICCALL SWAP1 DUP2 ISZERO PUSH2 0x634 JUMPI DUP4 SWAP2 PUSH2 0x607 JUMPI JUMPDEST POP AND DUP1 PUSH2 0x5AB JUMPI JUMPDEST POP POP PUSH1 0x40 MLOAD SWAP3 DUP4 MSTORE CALLVALUE SWAP1 DUP4 ADD MSTORE PUSH1 0x0 DUP1 MLOAD PUSH1 0x20 PUSH2 0x5DBD DUP4 CODECOPY DUP2 MLOAD SWAP2 MSTORE PUSH1 0x40 CALLER SWAP4 LOG3 DUP1 RETURN JUMPDEST DUP1 EXTCODESIZE ISZERO PUSH2 0x3B6 JUMPI DUP2 PUSH1 0x40 MLOAD DUP1 SWAP3 PUSH4 0xC228038D PUSH1 0xE0 SHL DUP3 MSTORE DUP2 DUP4 DUP2 PUSH2 0x5D5 CALLVALUE DUP13 CALLER DUP14 PUSH1 0x4 DUP7 ADD PUSH2 0x4FA9 JUMP JUMPDEST SUB SWAP3 GAS CALL DUP1 ISZERO PUSH2 0x5FC JUMPI ISZERO PUSH2 0x587 JUMPI PUSH2 0x5ED SWAP1 PUSH2 0x4B54 JUMP JUMPDEST PUSH2 0x5F8 JUMPI DUP4 CODESIZE PUSH2 0x587 JUMP JUMPDEST DUP4 DUP1 REVERT JUMPDEST PUSH1 0x40 MLOAD RETURNDATASIZE DUP5 DUP3 RETURNDATACOPY RETURNDATASIZE SWAP1 REVERT JUMPDEST PUSH2 0x627 SWAP2 POP DUP5 RETURNDATASIZE DUP7 GT PUSH2 0x62D JUMPI JUMPDEST PUSH2 0x61F DUP2 DUP4 PUSH2 0x4B9E JUMP JUMPDEST DUP2 ADD SWAP1 PUSH2 0x4F71 JUMP JUMPDEST CODESIZE PUSH2 0x57F JUMP JUMPDEST POP RETURNDATASIZE PUSH2 0x615 JUMP JUMPDEST PUSH1 0x40 MLOAD RETURNDATASIZE DUP6 DUP3 RETURNDATACOPY RETURNDATASIZE SWAP1 REVERT JUMPDEST PUSH2 0x648 SWAP1 PUSH2 0x4B54 JUMP JUMPDEST PUSH2 0x3B6 JUMPI DUP2 CODESIZE PUSH2 0x554 JUMP JUMPDEST DUP5 DUP4 MSTORE PUSH1 0x5 DUP5 MSTORE PUSH2 0x667 CALLER PUSH1 0x40 DUP6 KECCAK256 PUSH2 0x51D8 JUMP JUMPDEST CALLER DUP4 MSTORE PUSH1 0xC DUP5 MSTORE PUSH2 0x67B DUP6 PUSH1 0x40 DUP6 KECCAK256 PUSH2 0x4EA0 JUMP JUMPDEST PUSH2 0x4CD JUMP JUMPDEST PUSH1 0x40 MLOAD PUSH3 0x461BCD PUSH1 0xE5 SHL DUP2 MSTORE PUSH1 0x4 DUP2 ADD DUP5 SWAP1 MSTORE PUSH1 0x23 PUSH1 0x24 DUP3 ADD MSTORE PUSH32 0x45503A20455448207472616E7366657220746F20547265617375727920666169 PUSH1 0x44 DUP3 ADD MSTORE PUSH3 0x1B1959 PUSH1 0xEA SHL PUSH1 0x64 DUP3 ADD MSTORE PUSH1 0x84 SWAP1 REVERT JUMPDEST PUSH1 0x40 MLOAD PUSH3 0x461BCD PUSH1 0xE5 SHL DUP2 MSTORE PUSH1 0x4 DUP2 ADD DUP6 SWAP1 MSTORE PUSH1 0x32 PUSH1 0x24 DUP3 ADD MSTORE PUSH32 0x45503A2054686973206D61726B6574207573657320746F6B656E732C20757365 PUSH1 0x44 DUP3 ADD MSTORE PUSH18 0x10383630B1B2A132BA2BB4BA342A37B5B2B7 PUSH1 0x71 SHL PUSH1 0x64 DUP3 ADD MSTORE PUSH1 0x84 SWAP1 REVERT JUMPDEST POP PUSH1 0x3 DUP2 ADD SLOAD DUP6 GT ISZERO PUSH2 0x46A JUMP JUMPDEST PUSH1 0x40 MLOAD PUSH4 0x2EAA712B PUSH1 0xE2 SHL DUP2 MSTORE SWAP2 DUP3 SWAP1 PUSH1 0x4 SWAP1 DUP3 SWAP1 GAS STATICCALL SWAP1 DUP2 ISZERO PUSH2 0x7DE JUMPI DUP8 SWAP2 PUSH2 0x7AC JUMPI JUMPDEST POP PUSH1 0x9 DUP3 ADD SLOAD PUSH1 0x3C DUP3 MUL SWAP2 DUP1 DUP4 DIV PUSH1 0x3C EQ SWAP1 ISZERO OR ISZERO PUSH2 0x798 JUMPI PUSH2 0x791 SWAP2 PUSH2 0x78A SWAP2 PUSH2 0x510B JUMP JUMPDEST TIMESTAMP LT PUSH2 0x5118 JUMP JUMPDEST CODESIZE DUP4 PUSH2 0x45F JUMP JUMPDEST PUSH4 0x4E487B71 PUSH1 0xE0 SHL DUP9 MSTORE PUSH1 0x11 PUSH1 0x4 MSTORE PUSH1 0x24 DUP9 REVERT JUMPDEST SWAP1 POP DUP4 DUP2 DUP2 RETURNDATASIZE DUP4 GT PUSH2 0x7D7 JUMPI JUMPDEST PUSH2 0x7C3 DUP2 DUP4 PUSH2 0x4B9E JUMP JUMPDEST DUP2 ADD SUB SLT PUSH2 0x7D2 JUMPI MLOAD CODESIZE PUSH2 0x764 JUMP JUMPDEST PUSH1 0x0 DUP1 REVERT JUMPDEST POP RETURNDATASIZE PUSH2 0x7B9 JUMP JUMPDEST PUSH1 0x40 MLOAD RETURNDATASIZE DUP10 DUP3 RETURNDATACOPY RETURNDATASIZE SWAP1 REVERT JUMPDEST DUP3 DUP2 SWAP4 SWAP3 POP RETURNDATASIZE DUP4 GT PUSH2 0x81C JUMPI JUMPDEST PUSH2 0x800 DUP2 DUP4 PUSH2 0x4B9E JUMP JUMPDEST DUP2 ADD SUB SLT PUSH2 0x818 JUMPI PUSH2 0x812 DUP6 SWAP2 PUSH2 0x4D8F JUMP JUMPDEST CODESIZE PUSH2 0x459 JUMP JUMPDEST DUP8 DUP1 REVERT JUMPDEST POP RETURNDATASIZE PUSH2 0x7F6 JUMP JUMPDEST PUSH1 0x40 MLOAD RETURNDATASIZE DUP11 DUP3 RETURNDATACOPY RETURNDATASIZE SWAP1 REVERT JUMPDEST PUSH4 0x4E487B71 PUSH1 0xE0 SHL DUP9 MSTORE PUSH1 0x21 PUSH1 0x4 MSTORE PUSH1 0x24 DUP9 REVERT JUMPDEST POP DUP4 DUP2 DUP2 RETURNDATASIZE DUP4 GT PUSH2 0x875 JUMPI JUMPDEST PUSH2 0x858 DUP2 DUP4 PUSH2 0x4B9E JUMP JUMPDEST DUP2 ADD SUB SLT PUSH2 0x871 JUMPI PUSH2 0x86C PUSH2 0x40E SWAP2 PUSH2 0x4D8F JUMP JUMPDEST PUSH2 0x403 JUMP JUMPDEST DUP7 DUP1 REVERT JUMPDEST POP RETURNDATASIZE PUSH2 0x84E JUMP JUMPDEST POP CALLVALUE PUSH2 0x275 JUMPI PUSH1 0x20 CALLDATASIZE PUSH1 0x3 NOT ADD SLT PUSH2 0x275 JUMPI PUSH2 0x896 PUSH2 0x4AC0 JUMP JUMPDEST PUSH2 0x89E PUSH2 0x4D63 JUMP JUMPDEST PUSH1 0x1 PUSH1 0x1 PUSH1 0xA0 SHL SUB SWAP1 DUP2 AND SWAP1 DUP2 ISZERO PUSH2 0x8D9 JUMPI PUSH1 0x0 SLOAD DUP3 PUSH1 0x1 DUP1 PUSH1 0xA0 SHL SUB NOT DUP3 AND OR PUSH1 0x0 SSTORE AND PUSH1 0x0 DUP1 MLOAD PUSH1 0x20 PUSH2 0x5D7D DUP4 CODECOPY DUP2 MLOAD SWAP2 MSTORE PUSH1 0x0 DUP1 LOG3 DUP1 RETURN JUMPDEST PUSH1 0x40 MLOAD PUSH4 0x1E4FBDF7 PUSH1 0xE0 SHL DUP2 MSTORE PUSH1 0x4 DUP2 ADD DUP5 SWAP1 MSTORE PUSH1 0x24 SWAP1 REVERT JUMPDEST POP PUSH2 0x8FC CALLDATASIZE PUSH2 0x4D4D JUMP JUMPDEST PUSH1 0x8 SLOAD PUSH1 0x40 MLOAD PUSH4 0x2B5BA3B9 PUSH1 0xE0 SHL DUP2 MSTORE CALLER PUSH1 0x4 DUP3 ADD MSTORE PUSH1 0x20 SWAP5 SWAP4 SWAP2 PUSH1 0x24 SWAP2 PUSH1 0x1 PUSH1 0x1 PUSH1 0xA0 SHL SUB SWAP2 DUP3 AND SWAP1 DUP8 DUP2 DUP6 DUP2 DUP6 GAS STATICCALL SWAP1 DUP2 ISZERO PUSH2 0x7DE JUMPI SWAP2 DUP9 SWAP2 DUP6 SWAP4 DUP10 SWAP2 PUSH2 0xCFB JUMPI JUMPDEST POP PUSH2 0x94B SWAP1 ISZERO PUSH2 0x4D9C JUMP JUMPDEST PUSH1 0x40 MLOAD SWAP3 DUP4 DUP1 SWAP3 PUSH4 0x4D9B4235 PUSH1 0xE1 SHL DUP3 MSTORE DUP9 PUSH1 0x4 DUP4 ADD MSTORE GAS STATICCALL DUP1 ISZERO PUSH2 0xCF0 JUMPI DUP7 SWAP1 PUSH2 0xCBA JUMPI JUMPDEST PUSH2 0x97C SWAP2 POP ISZERO PUSH2 0x508D JUMP JUMPDEST DUP3 DUP6 MSTORE PUSH1 0x1 DUP7 MSTORE PUSH1 0x40 DUP6 KECCAK256 PUSH1 0xFF PUSH1 0xC DUP3 ADD SLOAD AND PUSH1 0x5 DUP2 LT ISZERO PUSH2 0xCA7 JUMPI PUSH2 0x9A2 SWAP1 ISZERO PUSH2 0x50CE JUMP JUMPDEST PUSH1 0x9 DUP2 ADD SLOAD TIMESTAMP LT ISZERO PUSH2 0xC68 JUMPI PUSH1 0x4 SWAP1 PUSH2 0x9BC DUP7 ISZERO ISZERO PUSH2 0x5213 JUMP JUMPDEST ADD SWAP6 DUP2 DUP8 SLOAD AND DUP1 ISZERO PUSH1 0x0 EQ PUSH2 0xBF2 JUMPI POP DUP5 CALLVALUE SUB PUSH2 0xBB4 JUMPI PUSH2 0x9DE CALLVALUE ISZERO ISZERO PUSH2 0x5213 JUMP JUMPDEST DUP6 DUP1 DUP1 DUP1 CALLVALUE DUP7 PUSH1 0x7 SLOAD AND GAS CALL PUSH2 0x9F2 PUSH2 0x4EC6 JUMP JUMPDEST POP ISZERO PUSH2 0xB65 JUMPI DUP6 SWAP7 JUMPDEST DUP5 DUP8 MSTORE PUSH1 0x3 DUP3 MSTORE PUSH1 0x40 DUP8 KECCAK256 CALLER PUSH1 0x0 MSTORE DUP3 MSTORE PUSH1 0xFF PUSH1 0x40 PUSH1 0x0 KECCAK256 SLOAD AND ISZERO PUSH2 0xB4C JUMPI JUMPDEST DUP5 DUP8 MSTORE PUSH1 0x3 DUP3 MSTORE PUSH1 0x40 DUP8 KECCAK256 CALLER PUSH1 0x0 MSTORE DUP3 MSTORE PUSH1 0x40 PUSH1 0x0 KECCAK256 PUSH1 0x1 PUSH1 0xFF NOT DUP3 SLOAD AND OR SWAP1 SSTORE DUP3 DUP1 PUSH1 0x7 SLOAD AND SWAP2 SLOAD AND SWAP1 DUP1 EXTCODESIZE ISZERO PUSH2 0x818 JUMPI DUP7 DUP9 SWAP2 PUSH2 0xA74 SWAP4 DUP4 PUSH1 0x40 MLOAD DUP1 SWAP7 DUP2 SWAP6 DUP3 SWAP5 PUSH4 0xC15D9807 PUSH1 0xE0 SHL DUP5 MSTORE DUP14 CALLER SWAP1 PUSH1 0x4 DUP7 ADD PUSH2 0x5271 JUMP JUMPDEST SUB SWAP3 GAS CALL SWAP1 DUP2 ISZERO PUSH2 0x7DE JUMPI DUP8 SWAP2 PUSH2 0xB34 JUMPI JUMPDEST POP POP PUSH1 0x4 DUP2 DUP4 PUSH1 0x8 SLOAD AND PUSH1 0x40 MLOAD SWAP3 DUP4 DUP1 SWAP3 PUSH4 0x406AD645 PUSH1 0xE1 SHL DUP3 MSTORE GAS STATICCALL SWAP2 DUP3 ISZERO PUSH2 0x7DE JUMPI DUP8 SWAP3 PUSH2 0xB17 JUMPI JUMPDEST POP POP AND DUP1 PUSH2 0xABD JUMPI DUP5 DUP1 RETURN JUMPDEST DUP1 EXTCODESIZE ISZERO PUSH2 0xB13 JUMPI DUP5 SWAP3 DUP4 PUSH1 0x64 SWAP3 PUSH1 0x40 MLOAD SWAP7 DUP8 SWAP6 DUP7 SWAP5 PUSH4 0x8F46A5A1 PUSH1 0xE0 SHL DUP7 MSTORE PUSH1 0x4 DUP7 ADD MSTORE CALLER SWAP1 DUP6 ADD MSTORE PUSH1 0x44 DUP5 ADD MSTORE GAS CALL DUP1 ISZERO PUSH2 0x5FC JUMPI PUSH2 0xAFF JUMPI JUMPDEST DUP1 DUP1 DUP1 DUP5 DUP1 RETURN JUMPDEST PUSH2 0xB08 SWAP1 PUSH2 0x4B54 JUMP JUMPDEST PUSH2 0x275 JUMPI DUP1 CODESIZE PUSH2 0xAF8 JUMP JUMPDEST DUP5 DUP1 REVERT JUMPDEST PUSH2 0xB2D SWAP3 POP DUP1 RETURNDATASIZE LT PUSH2 0x62D JUMPI PUSH2 0x61F DUP2 DUP4 PUSH2 0x4B9E JUMP JUMPDEST CODESIZE DUP1 PUSH2 0xAB1 JUMP JUMPDEST PUSH2 0xB3D SWAP1 PUSH2 0x4B54 JUMP JUMPDEST PUSH2 0xB48 JUMPI DUP6 CODESIZE PUSH2 0xA86 JUMP JUMPDEST DUP6 DUP1 REVERT JUMPDEST DUP5 DUP8 MSTORE PUSH1 0x6 DUP3 MSTORE PUSH2 0xB60 CALLER PUSH1 0x40 DUP10 KECCAK256 PUSH2 0x51D8 JUMP JUMPDEST PUSH2 0xA1B JUMP JUMPDEST PUSH1 0x84 SWAP1 PUSH1 0x23 DUP5 PUSH1 0x40 MLOAD SWAP3 PUSH3 0x461BCD PUSH1 0xE5 SHL DUP5 MSTORE PUSH1 0x4 DUP5 ADD MSTORE DUP3 ADD MSTORE PUSH32 0x45503A20455448207472616E7366657220746F20747265617375727920666169 PUSH1 0x44 DUP3 ADD MSTORE PUSH3 0x1B1959 PUSH1 0xEA SHL PUSH1 0x64 DUP3 ADD MSTORE REVERT JUMPDEST PUSH1 0x64 SWAP1 PUSH1 0x18 DUP5 PUSH1 0x40 MLOAD SWAP3 PUSH3 0x461BCD PUSH1 0xE5 SHL DUP5 MSTORE PUSH1 0x4 DUP5 ADD MSTORE DUP3 ADD MSTORE PUSH24 0x11540E88125B98DBDC9C9958DD0811551208185B5BDD5B9D PUSH1 0x42 SHL PUSH1 0x44 DUP3 ADD MSTORE REVERT JUMPDEST SWAP7 CALLVALUE PUSH2 0xC10 JUMPI PUSH2 0xC0B DUP7 DUP9 SWAP10 DUP6 PUSH1 0x7 SLOAD AND SWAP1 CALLER SWAP1 PUSH2 0x4FEF JUMP JUMPDEST PUSH2 0x9FB JUMP JUMPDEST PUSH1 0x40 MLOAD PUSH3 0x461BCD PUSH1 0xE5 SHL DUP2 MSTORE PUSH1 0x4 DUP2 ADD DUP4 SWAP1 MSTORE PUSH1 0x2B DUP2 DUP7 ADD MSTORE PUSH32 0x45503A204E6F204554482073686F756C642062652073656E7420666F7220746F PUSH1 0x44 DUP3 ADD MSTORE PUSH11 0x1AD95B881CDD5C1C1BDC9D PUSH1 0xAA SHL PUSH1 0x64 DUP3 ADD MSTORE PUSH1 0x84 SWAP1 REVERT JUMPDEST PUSH1 0x40 MLOAD PUSH3 0x461BCD PUSH1 0xE5 SHL DUP2 MSTORE PUSH1 0x4 DUP2 ADD DUP9 SWAP1 MSTORE PUSH1 0x18 DUP2 DUP6 ADD MSTORE PUSH24 0x11540E8814DD5C1C1BDC9D081C195C9A5BD908195B991959 PUSH1 0x42 SHL PUSH1 0x44 DUP3 ADD MSTORE PUSH1 0x64 SWAP1 REVERT JUMPDEST PUSH4 0x4E487B71 PUSH1 0xE0 SHL DUP8 MSTORE PUSH1 0x21 PUSH1 0x4 MSTORE DUP4 DUP8 REVERT JUMPDEST POP DUP7 DUP2 DUP2 RETURNDATASIZE DUP4 GT PUSH2 0xCE9 JUMPI JUMPDEST PUSH2 0xCD0 DUP2 DUP4 PUSH2 0x4B9E JUMP JUMPDEST DUP2 ADD SUB SLT PUSH2 0xB48 JUMPI PUSH2 0xCE4 PUSH2 0x97C SWAP2 PUSH2 0x4D8F JUMP JUMPDEST PUSH2 0x971 JUMP JUMPDEST POP RETURNDATASIZE PUSH2 0xCC6 JUMP JUMPDEST PUSH1 0x40 MLOAD RETURNDATASIZE DUP9 DUP3 RETURNDATACOPY RETURNDATASIZE SWAP1 REVERT JUMPDEST SWAP3 DUP1 SWAP3 SWAP5 POP DUP4 SWAP2 POP RETURNDATASIZE DUP4 GT PUSH2 0xD32 JUMPI JUMPDEST PUSH2 0xD15 DUP2 DUP4 PUSH2 0x4B9E JUMP JUMPDEST DUP2 ADD SUB SLT PUSH2 0x871 JUMPI DUP4 SWAP2 PUSH2 0x94B PUSH2 0xD2C DUP11 SWAP4 PUSH2 0x4D8F JUMP JUMPDEST SWAP1 PUSH2 0x940 JUMP JUMPDEST POP RETURNDATASIZE PUSH2 0xD0B JUMP JUMPDEST POP CALLVALUE PUSH2 0x275 JUMPI PUSH1 0x60 CALLDATASIZE PUSH1 0x3 NOT ADD SLT PUSH2 0x275 JUMPI PUSH1 0x4 CALLDATALOAD PUSH1 0x24 CALLDATALOAD SWAP1 PUSH1 0x44 CALLDATALOAD PUSH1 0x1 DUP1 PUSH1 0xA0 SHL SUB DUP1 PUSH1 0x8 SLOAD AND SWAP1 PUSH1 0x40 MLOAD SWAP2 PUSH4 0x4D9B4235 PUSH1 0xE1 SHL DUP4 MSTORE DUP5 PUSH1 0x4 DUP5 ADD MSTORE PUSH1 0x20 SWAP3 DUP4 DUP2 PUSH1 0x24 DUP2 DUP6 GAS STATICCALL DUP1 ISZERO PUSH2 0x823 JUMPI DUP9 SWAP1 PUSH2 0x1129 JUMPI JUMPDEST PUSH2 0xD99 SWAP2 POP ISZERO PUSH2 0x508D JUMP JUMPDEST DUP5 DUP8 MSTORE PUSH1 0x1 DUP4 MSTORE PUSH1 0x40 DUP8 KECCAK256 SWAP1 PUSH1 0xFF PUSH1 0xC DUP4 ADD SLOAD AND PUSH1 0x5 DUP2 LT ISZERO PUSH2 0x1115 JUMPI PUSH2 0xDC0 SWAP1 ISZERO PUSH2 0x50CE JUMP JUMPDEST PUSH1 0x40 MLOAD PUSH4 0x111A7989 PUSH1 0xE3 SHL DUP2 MSTORE DUP5 DUP2 PUSH1 0x4 DUP2 DUP6 GAS STATICCALL DUP1 ISZERO PUSH2 0x110A JUMPI DUP6 SWAP2 DUP11 SWAP2 PUSH2 0x10D0 JUMPI JUMPDEST POP PUSH2 0x103D JUMPI JUMPDEST POP POP DUP6 ISZERO ISZERO DUP1 PUSH2 0x102F JUMPI JUMPDEST PUSH2 0xDFE SWAP1 PUSH2 0x515F JUMP JUMPDEST PUSH1 0x4 DUP2 ADD SWAP1 DUP3 DUP3 SLOAD AND SWAP1 DUP2 ISZERO PUSH2 0xFDA JUMPI DUP6 DUP10 SWAP5 SWAP4 SWAP3 PUSH2 0xE26 PUSH1 0x5 PUSH2 0xE33 SWAP5 ADD SLOAD DUP4 LT ISZERO PUSH2 0x519C JUMP JUMPDEST DUP5 PUSH1 0x7 SLOAD AND SWAP1 CALLER SWAP1 PUSH2 0x4FEF JUMP JUMPDEST DUP6 DUP4 MSTORE PUSH1 0x2 DUP5 MSTORE PUSH1 0x40 DUP4 KECCAK256 CALLER PUSH1 0x0 MSTORE DUP5 MSTORE PUSH1 0xFF PUSH1 0x40 PUSH1 0x0 KECCAK256 SLOAD AND ISZERO PUSH2 0xFAD JUMPI JUMPDEST DUP6 DUP4 MSTORE PUSH1 0x2 DUP5 MSTORE PUSH1 0x40 DUP4 KECCAK256 CALLER PUSH1 0x0 MSTORE DUP5 MSTORE PUSH1 0x40 PUSH1 0x0 KECCAK256 PUSH1 0x1 PUSH1 0xFF NOT DUP3 SLOAD AND OR SWAP1 SSTORE DUP6 DUP4 MSTORE PUSH1 0x4 DUP5 MSTORE PUSH1 0x40 DUP4 KECCAK256 CALLER PUSH1 0x0 MSTORE DUP5 MSTORE DUP7 PUSH1 0x40 PUSH1 0x0 KECCAK256 SSTORE DUP2 DUP1 PUSH1 0x7 SLOAD AND SWAP2 SLOAD AND SWAP1 DUP1 EXTCODESIZE ISZERO PUSH2 0x5F8 JUMPI DUP6 DUP5 SWAP2 DUP10 SWAP4 DUP4 DUP11 PUSH2 0xEC6 PUSH1 0x40 MLOAD SWAP8 DUP9 SWAP7 DUP8 SWAP6 DUP7 SWAP5 PUSH4 0x95F41095 PUSH1 0xE0 SHL DUP7 MSTORE CALLER SWAP1 PUSH1 0x4 DUP8 ADD PUSH2 0x4F41 JUMP JUMPDEST SUB SWAP3 GAS CALL SWAP1 DUP2 ISZERO PUSH2 0x634 JUMPI DUP4 SWAP2 PUSH2 0xF99 JUMPI JUMPDEST POP POP PUSH1 0x4 DUP4 DUP3 PUSH1 0x8 SLOAD AND PUSH1 0x40 MLOAD SWAP3 DUP4 DUP1 SWAP3 PUSH4 0x406AD645 PUSH1 0xE1 SHL DUP3 MSTORE GAS STATICCALL SWAP1 DUP2 ISZERO PUSH2 0x634 JUMPI DUP4 SWAP2 PUSH2 0xF7C JUMPI JUMPDEST POP AND DUP1 PUSH2 0xF2D JUMPI JUMPDEST POP POP PUSH1 0x40 MLOAD SWAP4 DUP5 MSTORE DUP4 ADD MSTORE PUSH1 0x0 DUP1 MLOAD PUSH1 0x20 PUSH2 0x5DBD DUP4 CODECOPY DUP2 MLOAD SWAP2 MSTORE PUSH1 0x40 CALLER SWAP4 LOG3 DUP1 RETURN JUMPDEST DUP1 EXTCODESIZE ISZERO PUSH2 0x3B6 JUMPI PUSH1 0x40 MLOAD PUSH4 0xC228038D PUSH1 0xE0 SHL DUP2 MSTORE SWAP1 DUP3 SWAP1 DUP3 SWAP1 DUP2 DUP4 DUP2 PUSH2 0xF59 DUP11 DUP14 CALLER DUP15 PUSH1 0x4 DUP7 ADD PUSH2 0x4FA9 JUMP JUMPDEST SUB SWAP3 GAS CALL DUP1 ISZERO PUSH2 0x5FC JUMPI ISZERO PUSH2 0xF0B JUMPI PUSH2 0xF71 SWAP1 PUSH2 0x4B54 JUMP JUMPDEST PUSH2 0xB13 JUMPI DUP5 CODESIZE PUSH2 0xF0B JUMP JUMPDEST PUSH2 0xF93 SWAP2 POP DUP5 RETURNDATASIZE DUP7 GT PUSH2 0x62D JUMPI PUSH2 0x61F DUP2 DUP4 PUSH2 0x4B9E JUMP JUMPDEST CODESIZE PUSH2 0xF03 JUMP JUMPDEST PUSH2 0xFA2 SWAP1 PUSH2 0x4B54 JUMP JUMPDEST PUSH2 0x3B6 JUMPI DUP2 CODESIZE PUSH2 0xED8 JUMP JUMPDEST DUP6 DUP4 MSTORE PUSH1 0x5 DUP5 MSTORE PUSH2 0xFC1 CALLER PUSH1 0x40 DUP6 KECCAK256 PUSH2 0x51D8 JUMP JUMPDEST CALLER DUP4 MSTORE PUSH1 0xC DUP5 MSTORE PUSH2 0xFD5 DUP7 PUSH1 0x40 DUP6 KECCAK256 PUSH2 0x4EA0 JUMP JUMPDEST PUSH2 0xE53 JUMP JUMPDEST PUSH1 0x40 MLOAD PUSH3 0x461BCD PUSH1 0xE5 SHL DUP2 MSTORE PUSH1 0x4 DUP2 ADD DUP7 SWAP1 MSTORE PUSH1 0x27 PUSH1 0x24 DUP3 ADD MSTORE PUSH32 0x45503A2054686973206D61726B6574207573657320504550552C207573652070 PUSH1 0x44 DUP3 ADD MSTORE PUSH7 0x1B1858D950995D PUSH1 0xCA SHL PUSH1 0x64 DUP3 ADD MSTORE PUSH1 0x84 SWAP1 REVERT JUMPDEST POP PUSH1 0x3 DUP2 ADD SLOAD DUP7 GT ISZERO PUSH2 0xDF5 JUMP JUMPDEST PUSH1 0x40 MLOAD PUSH4 0x2EAA712B PUSH1 0xE2 SHL DUP2 MSTORE SWAP2 DUP3 SWAP1 PUSH1 0x4 SWAP1 DUP3 SWAP1 GAS STATICCALL SWAP1 DUP2 ISZERO PUSH2 0x823 JUMPI DUP9 SWAP2 PUSH2 0x10A3 JUMPI JUMPDEST POP PUSH1 0x9 DUP3 ADD SLOAD PUSH1 0x3C DUP3 MUL SWAP2 DUP1 DUP4 DIV PUSH1 0x3C EQ SWAP1 ISZERO OR ISZERO PUSH2 0x108F JUMPI PUSH2 0x1088 SWAP2 PUSH2 0x78A SWAP2 PUSH2 0x510B JUMP JUMPDEST CODESIZE DUP4 PUSH2 0xDEA JUMP JUMPDEST PUSH4 0x4E487B71 PUSH1 0xE0 SHL DUP10 MSTORE PUSH1 0x11 PUSH1 0x4 MSTORE PUSH1 0x24 DUP10 REVERT JUMPDEST SWAP1 POP DUP4 DUP2 DUP2 RETURNDATASIZE DUP4 GT PUSH2 0x10C9 JUMPI JUMPDEST PUSH2 0x10BA DUP2 DUP4 PUSH2 0x4B9E JUMP JUMPDEST DUP2 ADD SUB SLT PUSH2 0x7D2 JUMPI MLOAD CODESIZE PUSH2 0x1062 JUMP JUMPDEST POP RETURNDATASIZE PUSH2 0x10B0 JUMP JUMPDEST DUP3 DUP2 SWAP4 SWAP3 POP RETURNDATASIZE DUP4 GT PUSH2 0x1103 JUMPI JUMPDEST PUSH2 0x10E7 DUP2 DUP4 PUSH2 0x4B9E JUMP JUMPDEST DUP2 ADD SUB SLT PUSH2 0x10FF JUMPI PUSH2 0x10F9 DUP6 SWAP2 PUSH2 0x4D8F JUMP JUMPDEST CODESIZE PUSH2 0xDE4 JUMP JUMPDEST DUP9 DUP1 REVERT JUMPDEST POP RETURNDATASIZE PUSH2 0x10DD JUMP JUMPDEST PUSH1 0x40 MLOAD RETURNDATASIZE DUP12 DUP3 RETURNDATACOPY RETURNDATASIZE SWAP1 REVERT JUMPDEST PUSH4 0x4E487B71 PUSH1 0xE0 SHL DUP10 MSTORE PUSH1 0x21 PUSH1 0x4 MSTORE PUSH1 0x24 DUP10 REVERT JUMPDEST POP DUP4 DUP2 DUP2 RETURNDATASIZE DUP4 GT PUSH2 0x1158 JUMPI JUMPDEST PUSH2 0x113F DUP2 DUP4 PUSH2 0x4B9E JUMP JUMPDEST DUP2 ADD SUB SLT PUSH2 0x818 JUMPI PUSH2 0x1153 PUSH2 0xD99 SWAP2 PUSH2 0x4D8F JUMP JUMPDEST PUSH2 0xD8E JUMP JUMPDEST POP RETURNDATASIZE PUSH2 0x1135 JUMP JUMPDEST POP CALLVALUE PUSH2 0x275 JUMPI PUSH1 0x40 CALLDATASIZE PUSH1 0x3 NOT ADD SLT PUSH2 0x275 JUMPI PUSH2 0x1179 PUSH2 0x4AAA JUMP JUMPDEST SWAP1 PUSH1 0x4 CALLDATALOAD DUP2 MSTORE PUSH1 0x1 PUSH1 0x20 MSTORE PUSH1 0x40 DUP2 KECCAK256 PUSH1 0xFF PUSH1 0xC DUP3 ADD SLOAD AND PUSH1 0x5 DUP2 LT ISZERO PUSH2 0x15AD JUMPI PUSH1 0x2 PUSH2 0x11A5 SWAP2 EQ PUSH2 0x561A JUMP JUMPDEST PUSH1 0xD DUP2 ADD SLOAD PUSH2 0x11B5 DUP2 ISZERO ISZERO PUSH2 0x5659 JUMP JUMPDEST PUSH1 0x4 CALLDATALOAD DUP4 MSTORE PUSH1 0x2 PUSH1 0x20 MSTORE PUSH1 0x40 DUP4 KECCAK256 SWAP4 PUSH1 0x1 DUP1 PUSH1 0xA0 SHL SUB SWAP5 DUP6 DUP3 AND PUSH1 0x0 MSTORE PUSH1 0x20 MSTORE PUSH1 0xFF PUSH1 0x40 PUSH1 0x0 KECCAK256 SLOAD AND ISZERO PUSH2 0x1572 JUMPI DUP5 PUSH1 0x7 SLOAD AND PUSH1 0x40 MLOAD PUSH4 0x7C7A72D PUSH1 0xE0 SHL DUP2 MSTORE PUSH1 0x20 DUP2 DUP1 PUSH2 0x1209 DUP7 PUSH1 0x4 CALLDATALOAD PUSH1 0x4 DUP5 ADD PUSH2 0x4F90 JUMP JUMPDEST SUB DUP2 DUP6 GAS STATICCALL SWAP1 DUP2 ISZERO PUSH2 0xCF0 JUMPI DUP7 SWAP2 PUSH2 0x1538 JUMPI JUMPDEST POP PUSH2 0x14FD JUMPI DUP6 PUSH1 0x4 DUP6 ADD SLOAD AND SWAP4 PUSH1 0x40 MLOAD SWAP5 PUSH4 0x423E7BC1 PUSH1 0xE1 SHL DUP7 MSTORE PUSH1 0x20 DUP7 DUP1 PUSH2 0x124C DUP5 DUP9 PUSH1 0x4 CALLDATALOAD PUSH1 0x4 DUP6 ADD PUSH2 0x52E2 JUMP JUMPDEST SUB DUP2 DUP7 GAS STATICCALL SWAP6 DUP7 ISZERO PUSH2 0x7DE JUMPI DUP8 SWAP7 PUSH2 0x14C9 JUMPI JUMPDEST POP PUSH1 0x40 MLOAD PUSH4 0xDC4CE349 PUSH1 0xE0 SHL DUP2 MSTORE SWAP3 PUSH1 0x20 DUP5 DUP1 PUSH2 0x1283 DUP6 DUP11 PUSH1 0x4 DUP1 CALLDATALOAD SWAP1 DUP6 ADD PUSH2 0x5695 JUMP JUMPDEST SUB DUP2 DUP5 GAS STATICCALL SWAP4 DUP5 ISZERO PUSH2 0x823 JUMPI DUP9 SWAP5 PUSH2 0x1495 JUMPI JUMPDEST POP DUP8 SWAP3 PUSH1 0x3 PUSH1 0x1 SWAP2 ADD SLOAD SWAP1 JUMPDEST DUP2 DUP2 GT ISZERO PUSH2 0x13F4 JUMPI POP POP PUSH2 0x12D2 SWAP3 SWAP2 PUSH1 0x20 SWAP2 PUSH1 0x40 MLOAD DUP1 DUP1 SWAP7 DUP2 SWAP5 PUSH4 0x4F44289D PUSH1 0xE0 SHL DUP4 MSTORE PUSH1 0x4 CALLDATALOAD PUSH1 0x4 DUP5 ADD PUSH2 0x4F90 JUMP JUMPDEST SUB SWAP2 GAS STATICCALL SWAP1 DUP2 ISZERO PUSH2 0x7DE JUMPI DUP8 SWAP2 PUSH2 0x13BE JUMPI JUMPDEST PUSH2 0x12EE SWAP3 POP PUSH2 0x4E50 JUMP JUMPDEST DUP2 PUSH2 0x1305 JUMPI POP POP POP POP POP PUSH1 0x20 SWAP2 POP JUMPDEST PUSH1 0x40 MLOAD SWAP1 DUP2 MSTORE RETURN JUMPDEST SWAP4 SWAP5 SWAP4 DUP1 PUSH2 0x1342 JUMPI POP POP PUSH1 0x20 SWAP5 PUSH1 0x4 CALLDATALOAD DUP5 MSTORE PUSH1 0x4 DUP7 MSTORE PUSH1 0x40 DUP5 KECCAK256 SWAP2 AND PUSH1 0x0 MSTORE DUP5 MSTORE PUSH1 0x40 PUSH1 0x0 KECCAK256 SLOAD EQ PUSH1 0x0 EQ PUSH2 0x133B JUMPI POP JUMPDEST PUSH2 0x12FD JUMP JUMPDEST SWAP1 POP PUSH2 0x12FD JUMP JUMPDEST SWAP4 SWAP3 SWAP2 SWAP1 SWAP5 SWAP6 PUSH1 0x4 CALLDATALOAD DUP5 MSTORE PUSH1 0x4 PUSH1 0x20 MSTORE PUSH1 0x40 DUP5 KECCAK256 SWAP2 AND PUSH1 0x0 MSTORE PUSH1 0x20 MSTORE PUSH1 0x40 PUSH1 0x0 KECCAK256 SLOAD EQ PUSH1 0x0 EQ PUSH2 0x13B2 JUMPI PUSH2 0x2328 DUP1 DUP4 MUL SWAP3 DUP4 DIV SUB PUSH2 0x139E JUMPI POP SWAP2 PUSH2 0x1398 PUSH2 0x1336 SWAP3 PUSH2 0x1393 PUSH2 0x2710 PUSH1 0x20 SWAP7 DIV DUP5 PUSH2 0x4E27 JUMP JUMPDEST PUSH2 0x56B6 JUMP JUMPDEST SWAP1 PUSH2 0x4E50 JUMP JUMPDEST PUSH4 0x4E487B71 PUSH1 0xE0 SHL DUP2 MSTORE PUSH1 0x11 PUSH1 0x4 MSTORE PUSH1 0x24 SWAP1 REVERT JUMPDEST SWAP2 POP POP PUSH1 0x20 SWAP2 POP PUSH2 0x12FD JUMP JUMPDEST SWAP1 POP PUSH1 0x20 DUP3 RETURNDATASIZE PUSH1 0x20 GT PUSH2 0x13EC JUMPI JUMPDEST DUP2 PUSH2 0x13D9 PUSH1 0x20 SWAP4 DUP4 PUSH2 0x4B9E JUMP JUMPDEST DUP2 ADD SUB SLT PUSH2 0x7D2 JUMPI PUSH2 0x12EE SWAP2 MLOAD SWAP1 PUSH2 0x12E4 JUMP JUMPDEST RETURNDATASIZE SWAP2 POP PUSH2 0x13CC JUMP JUMPDEST DUP8 DUP2 SUB PUSH2 0x140A JUMPI JUMPDEST PUSH2 0x1405 SWAP1 PUSH2 0x4E5D JUMP JUMPDEST PUSH2 0x12A2 JUMP JUMPDEST SWAP4 PUSH1 0x40 MLOAD PUSH4 0xDC4CE349 PUSH1 0xE0 SHL DUP2 MSTORE PUSH1 0x20 DUP2 DUP1 PUSH2 0x142D DUP9 DUP11 PUSH1 0x4 CALLDATALOAD PUSH1 0x4 DUP6 ADD PUSH2 0x5695 JUMP JUMPDEST SUB DUP2 DUP8 GAS STATICCALL SWAP1 DUP2 ISZERO PUSH2 0x148A JUMPI DUP12 SWAP2 PUSH2 0x1456 JUMPI JUMPDEST POP PUSH2 0x144E SWAP1 PUSH2 0x1405 SWAP3 PUSH2 0x4E50 JUMP JUMPDEST SWAP5 SWAP1 POP PUSH2 0x13FC JUMP JUMPDEST SWAP1 POP PUSH1 0x20 DUP2 RETURNDATASIZE PUSH1 0x20 GT PUSH2 0x1482 JUMPI JUMPDEST DUP2 PUSH2 0x1471 PUSH1 0x20 SWAP4 DUP4 PUSH2 0x4B9E JUMP JUMPDEST DUP2 ADD SUB SLT PUSH2 0x7D2 JUMPI MLOAD PUSH2 0x1405 PUSH2 0x1440 JUMP JUMPDEST RETURNDATASIZE SWAP2 POP PUSH2 0x1464 JUMP JUMPDEST PUSH1 0x40 MLOAD RETURNDATASIZE DUP14 DUP3 RETURNDATACOPY RETURNDATASIZE SWAP1 REVERT JUMPDEST SWAP1 SWAP4 POP PUSH1 0x20 DUP2 RETURNDATASIZE PUSH1 0x20 GT PUSH2 0x14C1 JUMPI JUMPDEST DUP2 PUSH2 0x14B1 PUSH1 0x20 SWAP4 DUP4 PUSH2 0x4B9E JUMP JUMPDEST DUP2 ADD SUB SLT PUSH2 0x7D2 JUMPI MLOAD SWAP3 CODESIZE PUSH2 0x1296 JUMP JUMPDEST RETURNDATASIZE SWAP2 POP PUSH2 0x14A4 JUMP JUMPDEST SWAP1 SWAP6 POP PUSH1 0x20 DUP2 RETURNDATASIZE PUSH1 0x20 GT PUSH2 0x14F5 JUMPI JUMPDEST DUP2 PUSH2 0x14E5 PUSH1 0x20 SWAP4 DUP4 PUSH2 0x4B9E JUMP JUMPDEST DUP2 ADD SUB SLT PUSH2 0x7D2 JUMPI MLOAD SWAP5 CODESIZE PUSH2 0x125F JUMP JUMPDEST RETURNDATASIZE SWAP2 POP PUSH2 0x14D8 JUMP JUMPDEST PUSH1 0x40 MLOAD PUSH3 0x461BCD PUSH1 0xE5 SHL DUP2 MSTORE PUSH1 0x20 PUSH1 0x4 DUP3 ADD MSTORE PUSH1 0x13 PUSH1 0x24 DUP3 ADD MSTORE PUSH19 0x11540E88105B1C9958591E4818DB185A5B5959 PUSH1 0x6A SHL PUSH1 0x44 DUP3 ADD MSTORE PUSH1 0x64 SWAP1 REVERT JUMPDEST SWAP1 POP PUSH1 0x20 DUP2 RETURNDATASIZE PUSH1 0x20 GT PUSH2 0x156A JUMPI JUMPDEST DUP2 PUSH2 0x1553 PUSH1 0x20 SWAP4 DUP4 PUSH2 0x4B9E JUMP JUMPDEST DUP2 ADD SUB SLT PUSH2 0xB48 JUMPI PUSH2 0x1564 SWAP1 PUSH2 0x4D8F JUMP JUMPDEST CODESIZE PUSH2 0x121C JUMP JUMPDEST RETURNDATASIZE SWAP2 POP PUSH2 0x1546 JUMP JUMPDEST PUSH1 0x40 MLOAD PUSH3 0x461BCD PUSH1 0xE5 SHL DUP2 MSTORE PUSH1 0x20 PUSH1 0x4 DUP3 ADD MSTORE PUSH1 0x13 PUSH1 0x24 DUP3 ADD MSTORE PUSH19 0x11540E88139BC81CDD185AD9481C1B1858D959 PUSH1 0x6A SHL PUSH1 0x44 DUP3 ADD MSTORE PUSH1 0x64 SWAP1 REVERT JUMPDEST PUSH4 0x4E487B71 PUSH1 0xE0 SHL DUP4 MSTORE PUSH1 0x21 PUSH1 0x4 MSTORE PUSH1 0x24 DUP4 REVERT JUMPDEST POP CALLVALUE PUSH2 0x275 JUMPI PUSH1 0x40 CALLDATASIZE PUSH1 0x3 NOT ADD SLT PUSH2 0x275 JUMPI PUSH2 0x160A SWAP1 PUSH1 0x20 PUSH2 0x15E1 PUSH2 0x4AAA JUMP JUMPDEST PUSH1 0x1 DUP1 PUSH1 0xA0 SHL SUB PUSH1 0x7 SLOAD AND PUSH1 0x40 MLOAD DUP1 DUP1 SWAP7 DUP2 SWAP5 PUSH4 0x3D1E7BA1 PUSH1 0xE1 SHL DUP4 MSTORE PUSH1 0x4 CALLDATALOAD PUSH1 0x4 DUP5 ADD PUSH2 0x4F90 JUMP JUMPDEST SUB SWAP2 GAS STATICCALL SWAP1 DUP2 ISZERO PUSH2 0x1658 JUMPI SWAP1 PUSH2 0x1626 JUMPI JUMPDEST PUSH1 0x20 SWAP1 PUSH1 0x40 MLOAD SWAP1 DUP2 MSTORE RETURN JUMPDEST POP PUSH1 0x20 DUP2 RETURNDATASIZE DUP3 GT PUSH2 0x1650 JUMPI JUMPDEST DUP2 PUSH2 0x163F PUSH1 0x20 SWAP4 DUP4 PUSH2 0x4B9E JUMP JUMPDEST DUP2 ADD SUB SLT PUSH2 0x7D2 JUMPI PUSH1 0x20 SWAP1 MLOAD PUSH2 0x161B JUMP JUMPDEST RETURNDATASIZE SWAP2 POP PUSH2 0x1632 JUMP JUMPDEST PUSH1 0x40 MLOAD SWAP1 RETURNDATASIZE SWAP1 DUP3 RETURNDATACOPY RETURNDATASIZE SWAP1 REVERT JUMPDEST POP CALLVALUE PUSH2 0x275 JUMPI PUSH1 0x20 CALLDATASIZE PUSH1 0x3 NOT ADD SLT PUSH2 0x275 JUMPI DUP1 PUSH1 0x40 SWAP2 PUSH2 0x260 DUP4 MLOAD PUSH2 0x1688 DUP2 PUSH2 0x4B67 JUMP JUMPDEST DUP3 DUP2 MSTORE PUSH1 0x60 PUSH1 0x20 DUP3 ADD MSTORE DUP3 DUP6 DUP3 ADD MSTORE DUP3 PUSH1 0x60 DUP3 ADD MSTORE DUP3 PUSH1 0x80 DUP3 ADD MSTORE DUP3 PUSH1 0xA0 DUP3 ADD MSTORE DUP3 PUSH1 0xC0 DUP3 ADD MSTORE DUP3 PUSH1 0xE0 DUP3 ADD MSTORE DUP3 PUSH2 0x100 DUP3 ADD MSTORE DUP3 PUSH2 0x120 DUP3 ADD MSTORE DUP3 PUSH2 0x140 DUP3 ADD MSTORE DUP3 PUSH2 0x160 DUP3 ADD MSTORE DUP3 PUSH2 0x180 DUP3 ADD MSTORE DUP3 PUSH2 0x1A0 DUP3 ADD MSTORE DUP3 PUSH2 0x1C0 DUP3 ADD MSTORE DUP3 PUSH2 0x1E0 DUP3 ADD MSTORE DUP3 PUSH2 0x200 DUP3 ADD MSTORE DUP3 PUSH2 0x220 DUP3 ADD MSTORE DUP3 PUSH2 0x240 DUP3 ADD MSTORE ADD MSTORE PUSH1 0x4 CALLDATALOAD DUP2 MSTORE PUSH1 0x1 PUSH1 0x20 MSTORE KECCAK256 PUSH1 0x40 MLOAD SWAP1 PUSH2 0x171C DUP3 PUSH2 0x4B67 JUMP JUMPDEST DUP1 SLOAD PUSH1 0x1 PUSH1 0x1 PUSH1 0xA0 SHL SUB AND DUP3 MSTORE PUSH2 0x1735 PUSH1 0x1 DUP3 ADD PUSH2 0x4C4D JUMP JUMPDEST PUSH1 0x20 DUP4 ADD MSTORE PUSH1 0xFF PUSH1 0x2 DUP3 ADD SLOAD AND ISZERO ISZERO PUSH1 0x40 DUP4 ADD MSTORE PUSH1 0x3 DUP2 ADD SLOAD PUSH1 0x60 DUP4 ADD MSTORE PUSH1 0x1 DUP1 PUSH1 0xA0 SHL SUB PUSH1 0x4 DUP3 ADD SLOAD AND PUSH1 0x80 DUP4 ADD MSTORE PUSH1 0x5 DUP2 ADD SLOAD PUSH1 0xA0 DUP4 ADD MSTORE PUSH1 0x6 DUP2 ADD SLOAD PUSH1 0xC0 DUP4 ADD MSTORE PUSH1 0x7 DUP2 ADD SLOAD PUSH1 0xE0 DUP4 ADD MSTORE PUSH1 0x8 DUP2 ADD SLOAD PUSH2 0x100 DUP4 ADD MSTORE PUSH1 0x9 DUP2 ADD SLOAD PUSH2 0x120 DUP4 ADD MSTORE PUSH1 0xA DUP2 ADD SLOAD PUSH2 0x140 DUP4 ADD MSTORE PUSH1 0xB DUP2 ADD SLOAD PUSH2 0x160 DUP4 ADD MSTORE PUSH1 0xFF PUSH1 0xC DUP3 ADD SLOAD AND PUSH1 0x5 DUP2 LT ISZERO PUSH2 0x1955 JUMPI PUSH1 0xFF SWAP2 PUSH1 0x11 SWAP2 PUSH2 0x180 DUP6 ADD MSTORE PUSH1 0xD DUP2 ADD SLOAD PUSH2 0x1A0 DUP6 ADD MSTORE PUSH1 0xE DUP2 ADD SLOAD DUP4 DUP2 AND ISZERO ISZERO PUSH2 0x1C0 DUP7 ADD MSTORE PUSH2 0x17FA DUP5 DUP3 PUSH1 0x8 SHR AND PUSH2 0x1E0 DUP8 ADD PUSH2 0x4E6C JUMP JUMPDEST PUSH1 0x1 DUP1 PUSH1 0xA0 SHL SUB SWAP1 PUSH1 0x10 SHR AND PUSH2 0x200 DUP6 ADD MSTORE PUSH1 0xF DUP2 ADD SLOAD PUSH2 0x220 DUP6 ADD MSTORE PUSH1 0x10 DUP2 ADD SLOAD PUSH2 0x240 DUP6 ADD MSTORE ADD SLOAD AND ISZERO ISZERO PUSH2 0x260 DUP3 ADD MSTORE PUSH1 0x40 MLOAD DUP1 SWAP2 PUSH1 0x20 DUP3 MSTORE PUSH1 0x1 DUP1 PUSH1 0xA0 SHL SUB DUP2 MLOAD AND PUSH1 0x20 DUP4 ADD MSTORE PUSH2 0x260 PUSH2 0x1863 PUSH1 0x20 DUP4 ADD MLOAD PUSH2 0x280 PUSH1 0x40 DUP7 ADD MSTORE PUSH2 0x2A0 DUP6 ADD SWAP1 PUSH2 0x4CF3 JUMP JUMPDEST SWAP2 PUSH1 0x40 DUP2 ADD MLOAD ISZERO ISZERO PUSH1 0x60 DUP6 ADD MSTORE PUSH1 0x60 DUP2 ADD MLOAD PUSH1 0x80 DUP6 ADD MSTORE PUSH1 0x1 DUP1 PUSH1 0xA0 SHL SUB PUSH1 0x80 DUP3 ADD MLOAD AND PUSH1 0xA0 DUP6 ADD MSTORE PUSH1 0xA0 DUP2 ADD MLOAD PUSH1 0xC0 DUP6 ADD MSTORE PUSH1 0xC0 DUP2 ADD MLOAD PUSH1 0xE0 DUP6 ADD MSTORE PUSH1 0xE0 DUP2 ADD MLOAD PUSH2 0x100 DUP6 ADD MSTORE PUSH2 0x100 DUP2 ADD MLOAD PUSH2 0x120 DUP6 ADD MSTORE PUSH2 0x120 DUP2 ADD MLOAD PUSH2 0x140 DUP6 ADD MSTORE PUSH2 0x140 DUP2 ADD MLOAD PUSH2 0x160 DUP6 ADD MSTORE PUSH2 0x160 DUP2 ADD MLOAD PUSH2 0x180 DUP6 ADD MSTORE PUSH2 0x18EF PUSH2 0x180 DUP3 ADD MLOAD PUSH2 0x1A0 DUP7 ADD SWAP1 PUSH2 0x4D33 JUMP JUMPDEST PUSH2 0x1A0 DUP2 ADD MLOAD PUSH2 0x1C0 DUP6 ADD MSTORE PUSH2 0x1C0 DUP2 ADD MLOAD ISZERO ISZERO PUSH2 0x1E0 DUP6 ADD MSTORE PUSH2 0x191D PUSH2 0x1E0 DUP3 ADD MLOAD PUSH2 0x200 DUP7 ADD SWAP1 PUSH2 0x4D40 JUMP JUMPDEST PUSH1 0x1 DUP1 PUSH1 0xA0 SHL SUB PUSH2 0x200 DUP3 ADD MLOAD AND PUSH2 0x220 DUP6 ADD MSTORE PUSH2 0x220 DUP2 ADD MLOAD PUSH2 0x240 DUP6 ADD MSTORE PUSH2 0x240 DUP2 ADD MLOAD DUP3 DUP6 ADD MSTORE ADD MLOAD ISZERO ISZERO PUSH2 0x280 DUP4 ADD MSTORE SUB SWAP1 RETURN JUMPDEST PUSH4 0x4E487B71 PUSH1 0xE0 SHL PUSH1 0x0 MSTORE PUSH1 0x21 PUSH1 0x4 MSTORE PUSH1 0x24 PUSH1 0x0 REVERT JUMPDEST POP CALLVALUE PUSH2 0x275 JUMPI PUSH1 0x20 DUP1 PUSH1 0x3 NOT CALLDATASIZE ADD SLT PUSH2 0x3B6 JUMPI PUSH1 0x4 CALLDATALOAD SWAP1 PUSH2 0x199B PUSH1 0x1 DUP1 PUSH1 0xA0 SHL SUB PUSH2 0x2A8 DUP2 PUSH1 0x8 SLOAD AND CALLER EQ PUSH2 0x5CA3 JUMP JUMPDEST DUP2 DUP4 MSTORE PUSH1 0x1 DUP2 MSTORE PUSH1 0xFF PUSH1 0xC PUSH1 0x40 DUP6 KECCAK256 ADD SLOAD AND PUSH1 0x5 DUP2 LT ISZERO PUSH2 0x3A2 JUMPI PUSH1 0x2 SUB PUSH2 0x1B04 JUMPI PUSH1 0x80 PUSH1 0x0 DUP1 MLOAD PUSH1 0x20 PUSH2 0x5D5D DUP4 CODECOPY DUP2 MLOAD SWAP2 MSTORE SWAP2 DUP4 DUP6 MSTORE PUSH1 0x1 DUP2 MSTORE DUP5 PUSH1 0x11 PUSH1 0x40 DUP3 KECCAK256 DUP3 DUP2 SSTORE DUP3 PUSH1 0x1 DUP3 ADD PUSH2 0x19EF DUP2 SLOAD PUSH2 0x4C13 JUMP JUMPDEST DUP1 PUSH2 0x1AC4 JUMPI JUMPDEST POP POP PUSH1 0x2 DUP3 ADD SSTORE PUSH1 0x0 PUSH1 0x3 DUP3 ADD SSTORE DUP3 PUSH1 0x4 DUP3 ADD SSTORE PUSH1 0x0 PUSH1 0x5 DUP3 ADD SSTORE PUSH1 0x0 PUSH1 0x6 DUP3 ADD SSTORE PUSH1 0x0 PUSH1 0x7 DUP3 ADD SSTORE PUSH1 0x0 PUSH1 0x8 DUP3 ADD SSTORE PUSH1 0x0 PUSH1 0x9 DUP3 ADD SSTORE PUSH1 0x0 PUSH1 0xA DUP3 ADD SSTORE PUSH1 0x0 PUSH1 0xB DUP3 ADD SSTORE DUP3 PUSH1 0xC DUP3 ADD SSTORE PUSH1 0x0 PUSH1 0xD DUP3 ADD SSTORE DUP3 PUSH1 0xE DUP3 ADD SSTORE PUSH1 0x0 PUSH1 0xF DUP3 ADD SSTORE PUSH1 0x0 PUSH1 0x10 DUP3 ADD SSTORE ADD SSTORE DUP4 DUP6 MSTORE PUSH1 0xB DUP2 MSTORE PUSH1 0xFF PUSH1 0x40 DUP7 KECCAK256 SLOAD AND PUSH2 0x1AB6 JUMPI JUMPDEST PUSH1 0x26 PUSH1 0x40 MLOAD SWAP2 DUP1 DUP4 MSTORE DUP3 ADD MSTORE PUSH32 0x5065726D616E656E746C792072656D6F76656420616674657220636C61696D20 PUSH1 0x40 DUP3 ADD MSTORE PUSH6 0x1C195C9A5BD9 PUSH1 0xD2 SHL PUSH1 0x60 DUP3 ADD MSTORE LOG2 DUP1 RETURN JUMPDEST PUSH2 0x1ABF DUP5 PUSH2 0x5BE8 JUMP JUMPDEST PUSH2 0x1A71 JUMP JUMPDEST PUSH1 0x1F DUP2 GT PUSH1 0x1 EQ PUSH2 0x1ADE JUMPI POP PUSH1 0x0 SWAP2 POP SSTORE JUMPDEST DUP3 CODESIZE DUP1 PUSH2 0x19F5 JUMP JUMPDEST SWAP1 DUP1 PUSH1 0x0 SWAP2 DUP5 MSTORE PUSH2 0x1AFD PUSH1 0x1F DUP10 DUP7 KECCAK256 SWAP5 ADD PUSH1 0x5 SHR DUP5 ADD PUSH1 0x1 DUP6 ADD PUSH2 0x4E78 JUMP JUMPDEST SSTORE SSTORE PUSH2 0x1AD6 JUMP JUMPDEST PUSH1 0x64 SWAP1 PUSH1 0x40 MLOAD SWAP1 PUSH3 0x461BCD PUSH1 0xE5 SHL DUP3 MSTORE PUSH1 0x4 DUP3 ADD MSTORE PUSH1 0x17 PUSH1 0x24 DUP3 ADD MSTORE PUSH23 0x11540E8813585C9AD95D081B9BDD081C995CDBDB1D9959 PUSH1 0x4A SHL PUSH1 0x44 DUP3 ADD MSTORE REVERT JUMPDEST POP CALLVALUE PUSH2 0x275 JUMPI PUSH1 0x60 CALLDATASIZE PUSH1 0x3 NOT ADD SLT PUSH2 0x275 JUMPI PUSH1 0x44 CALLDATALOAD SWAP1 PUSH1 0x1 PUSH1 0x1 PUSH1 0xA0 SHL SUB DUP1 DUP4 AND DUP4 SUB PUSH2 0x7D2 JUMPI PUSH2 0x160A SWAP3 PUSH1 0x20 SWAP2 PUSH1 0x7 SLOAD AND PUSH1 0x40 MLOAD DUP1 DUP1 SWAP7 DUP2 SWAP5 PUSH4 0xDC4CE349 PUSH1 0xE0 SHL DUP4 MSTORE PUSH1 0x24 CALLDATALOAD PUSH1 0x4 CALLDATALOAD PUSH1 0x4 DUP6 ADD PUSH2 0x5695 JUMP JUMPDEST POP CALLVALUE PUSH2 0x275 JUMPI PUSH1 0x40 CALLDATASIZE PUSH1 0x3 NOT ADD SLT PUSH2 0x275 JUMPI PUSH1 0x40 PUSH2 0x1BB1 PUSH2 0x4AAA JUMP JUMPDEST SWAP2 PUSH1 0x4 CALLDATALOAD DUP2 MSTORE PUSH1 0x4 PUSH1 0x20 MSTORE KECCAK256 SWAP1 PUSH1 0x1 DUP1 PUSH1 0xA0 SHL SUB AND PUSH1 0x0 MSTORE PUSH1 0x20 MSTORE PUSH1 0x20 PUSH1 0x40 PUSH1 0x0 KECCAK256 SLOAD PUSH1 0x40 MLOAD SWAP1 DUP2 MSTORE RETURN JUMPDEST POP CALLVALUE PUSH2 0x275 JUMPI PUSH2 0x1BEB CALLDATASIZE PUSH2 0x4D4D JUMP JUMPDEST SWAP2 SWAP1 DUP2 MSTORE PUSH1 0x5 PUSH1 0x20 MSTORE PUSH1 0x40 DUP2 KECCAK256 SWAP1 DUP2 SLOAD DUP4 LT ISZERO PUSH2 0x275 JUMPI PUSH1 0x20 PUSH2 0x1C0E DUP5 DUP5 PUSH2 0x4B3C JUMP JUMPDEST SWAP1 SLOAD PUSH1 0x40 MLOAD PUSH1 0x3 SWAP3 SWAP1 SWAP3 SHL SHR PUSH1 0x1 PUSH1 0x1 PUSH1 0xA0 SHL SUB AND DUP2 MSTORE RETURN JUMPDEST POP CALLVALUE PUSH2 0x275 JUMPI PUSH1 0x60 CALLDATASIZE PUSH1 0x3 NOT ADD SLT PUSH2 0x275 JUMPI PUSH1 0x24 PUSH1 0x4 CALLDATALOAD DUP2 CALLDATALOAD PUSH1 0x1 PUSH1 0x1 PUSH1 0x40 SHL SUB DUP2 GT PUSH2 0x5F8 JUMPI CALLDATASIZE PUSH1 0x23 DUP3 ADD SLT ISZERO PUSH2 0x5F8 JUMPI PUSH2 0x1C6C SWAP1 CALLDATASIZE SWAP1 DUP5 DUP2 PUSH1 0x4 ADD CALLDATALOAD SWAP2 ADD PUSH2 0x4BDC JUMP JUMPDEST PUSH1 0x44 DUP1 CALLDATALOAD DUP4 DUP7 MSTORE PUSH1 0x20 SWAP5 PUSH1 0x1 DUP7 MSTORE PUSH1 0x40 DUP8 KECCAK256 SWAP3 PUSH1 0xE DUP5 ADD SLOAD PUSH1 0xFF DUP2 PUSH1 0x8 SHR AND PUSH1 0x2 DUP2 LT ISZERO PUSH2 0x1F6F JUMPI PUSH1 0x1 PUSH2 0x1CA0 SWAP2 EQ PUSH2 0x538D JUMP JUMPDEST PUSH1 0xFF PUSH1 0xC DUP7 ADD SLOAD AND PUSH1 0x5 DUP2 LT ISZERO PUSH2 0x1F6F JUMPI PUSH2 0x1CCA SWAP2 PUSH2 0x1CC3 PUSH1 0x1 PUSH1 0xFF SWAP4 EQ PUSH2 0x5302 JUMP JUMPDEST AND ISZERO PUSH2 0x533E JUMP JUMPDEST PUSH1 0xA DUP5 ADD SLOAD TIMESTAMP LT PUSH2 0x1F3D JUMPI PUSH1 0x11 DUP5 ADD SWAP5 PUSH1 0xFF DUP7 SLOAD AND PUSH2 0x1F05 JUMPI DUP5 SLOAD PUSH1 0x1 PUSH1 0x1 PUSH1 0xA0 SHL SUB SWAP1 DUP2 AND CALLER EQ PUSH2 0x1EC6 JUMPI DUP1 PUSH1 0xD SLOAD AND PUSH2 0x1D06 DUP2 ISZERO ISZERO PUSH2 0x53D1 JUMP JUMPDEST DUP2 PUSH1 0xE SLOAD AND SWAP1 PUSH2 0x1D17 DUP3 ISZERO ISZERO PUSH2 0x540E JUMP JUMPDEST DUP7 ISZERO ISZERO DUP1 PUSH2 0x1EB8 JUMPI JUMPDEST ISZERO PUSH2 0x1E80 JUMPI SWAP2 DUP6 SWAP4 SWAP2 DUP12 DUP14 SWAP5 PUSH1 0x40 MLOAD SWAP9 DUP10 DUP1 SWAP3 PUSH4 0x4360AF3D PUSH1 0xE0 SHL DUP3 MSTORE DUP6 PUSH1 0x4 DUP4 ADD MSTORE GAS STATICCALL SWAP1 DUP2 ISZERO PUSH2 0x1E75 JUMPI DUP13 SWAP8 DUP6 SWAP3 PUSH2 0x1E39 JUMPI JUMPDEST POP DUP2 PUSH2 0x1D79 DUP2 PUSH2 0x1D89 SWAP4 PUSH2 0x1D70 PUSH2 0x1DB3 SWAP10 SWAP9 SWAP8 SWAP7 ISZERO ISZERO PUSH2 0x544D JUMP JUMPDEST ADDRESS SWAP1 CALLER SWAP1 PUSH2 0x4FEF JUMP JUMPDEST DUP3 PUSH1 0xE SLOAD AND DUP4 PUSH1 0xD SLOAD AND SWAP1 PUSH2 0x54A7 JUMP JUMPDEST PUSH1 0xD SLOAD AND SWAP4 PUSH1 0x40 MLOAD SWAP8 DUP9 SWAP7 DUP8 SWAP6 DUP7 SWAP5 PUSH4 0x1A433381 PUSH1 0xE2 SHL DUP7 MSTORE PUSH1 0x60 PUSH1 0x4 DUP8 ADD MSTORE PUSH1 0x64 DUP7 ADD SWAP1 PUSH2 0x4CF3 JUMP JUMPDEST SWAP3 CALLER SWAP1 DUP6 ADD MSTORE DUP4 ADD MSTORE SUB SWAP3 GAS CALL SWAP5 DUP6 ISZERO PUSH2 0xCF0 JUMPI DUP7 SWAP6 PUSH2 0x1E08 JUMPI JUMPDEST POP POP PUSH1 0x10 ADD DUP4 SWAP1 SSTORE DUP1 SLOAD PUSH1 0xFF NOT AND PUSH1 0x1 OR SWAP1 SSTORE PUSH32 0xC92F993487C6D961B60FF2A81386DFF5CC620CD4AED9CDDABE26500391655E82 DUP4 DUP1 LOG3 DUP1 RETURN JUMPDEST SWAP1 DUP1 SWAP6 POP DUP2 RETURNDATASIZE DUP4 GT PUSH2 0x1E32 JUMPI JUMPDEST PUSH2 0x1E1F DUP2 DUP4 PUSH2 0x4B9E JUMP JUMPDEST DUP2 ADD SUB SLT PUSH2 0xB13 JUMPI PUSH1 0x10 SWAP4 MLOAD SWAP4 CODESIZE PUSH2 0x1DCE JUMP JUMPDEST POP RETURNDATASIZE PUSH2 0x1E15 JUMP JUMPDEST SWAP5 POP SWAP3 SWAP2 SWAP7 SWAP1 POP DUP4 DUP2 RETURNDATASIZE DUP4 GT PUSH2 0x1E6E JUMPI JUMPDEST PUSH2 0x1E54 DUP2 DUP4 PUSH2 0x4B9E JUMP JUMPDEST DUP2 ADD SUB SLT PUSH2 0x7D2 JUMPI SWAP2 MLOAD DUP11 SWAP6 DUP13 SWAP4 SWAP3 SWAP1 SWAP2 SWAP1 PUSH2 0x1D89 PUSH2 0x1D55 JUMP JUMPDEST POP RETURNDATASIZE PUSH2 0x1E4A JUMP JUMPDEST PUSH1 0x40 MLOAD RETURNDATASIZE DUP7 DUP3 RETURNDATACOPY RETURNDATASIZE SWAP1 REVERT JUMPDEST PUSH1 0x40 MLOAD PUSH3 0x461BCD PUSH1 0xE5 SHL DUP2 MSTORE PUSH1 0x4 DUP2 ADD DUP13 SWAP1 MSTORE PUSH1 0x12 DUP2 DUP9 ADD MSTORE PUSH18 0x22A81D1024B73B30B634B21037B83A34B7B7 PUSH1 0x71 SHL DUP2 DUP8 ADD MSTORE PUSH1 0x64 SWAP1 REVERT JUMPDEST POP PUSH1 0x3 DUP9 ADD SLOAD DUP8 GT ISZERO PUSH2 0x1D20 JUMP JUMPDEST PUSH1 0x40 MLOAD PUSH3 0x461BCD PUSH1 0xE5 SHL DUP2 MSTORE PUSH1 0x4 DUP2 ADD DUP11 SWAP1 MSTORE PUSH1 0x19 DUP2 DUP7 ADD MSTORE PUSH25 0x11540E8810DC99585D1BDC8818D85B9B9BDD08185CDCD95C9D PUSH1 0x3A SHL DUP2 DUP6 ADD MSTORE PUSH1 0x64 SWAP1 REVERT JUMPDEST PUSH1 0x40 MLOAD PUSH3 0x461BCD PUSH1 0xE5 SHL DUP2 MSTORE PUSH1 0x4 DUP2 ADD DUP10 SWAP1 MSTORE PUSH1 0x12 DUP2 DUP6 ADD MSTORE PUSH18 0x45503A20417373657274696F6E206D616465 PUSH1 0x70 SHL DUP2 DUP5 ADD MSTORE PUSH1 0x64 SWAP1 REVERT JUMPDEST PUSH13 0x45503A20546F6F206561726C79 PUSH1 0x98 SHL DUP8 SWAP2 PUSH1 0xD PUSH1 0x64 SWAP5 PUSH1 0x40 MLOAD SWAP5 PUSH3 0x461BCD PUSH1 0xE5 SHL DUP7 MSTORE PUSH1 0x4 DUP7 ADD MSTORE DUP5 ADD MSTORE DUP3 ADD MSTORE REVERT JUMPDEST PUSH4 0x4E487B71 PUSH1 0xE0 SHL DUP11 MSTORE PUSH1 0x21 PUSH1 0x4 MSTORE DUP4 DUP11 REVERT JUMPDEST POP CALLVALUE PUSH2 0x275 JUMPI DUP1 PUSH1 0x3 NOT CALLDATASIZE ADD SLT PUSH2 0x275 JUMPI PUSH1 0x20 PUSH1 0x40 MLOAD PUSH2 0x15E DUP2 MSTORE RETURN JUMPDEST POP CALLVALUE PUSH2 0x275 JUMPI PUSH1 0x20 CALLDATASIZE PUSH1 0x3 NOT ADD SLT PUSH2 0x275 JUMPI PUSH1 0x4 CALLDATALOAD DUP1 DUP3 MSTORE PUSH1 0x1 PUSH1 0x20 MSTORE PUSH1 0x40 DUP3 KECCAK256 DUP1 SLOAD PUSH1 0x1 PUSH1 0x1 PUSH1 0xA0 SHL SUB AND CALLER SUB PUSH2 0x208D JUMPI PUSH1 0xFF PUSH1 0xC DUP3 ADD SLOAD AND PUSH1 0x5 DUP2 LT ISZERO PUSH2 0x3A2 JUMPI SWAP1 PUSH2 0x1FEF PUSH1 0x9 SWAP3 ISZERO PUSH2 0x50CE JUMP JUMPDEST ADD SLOAD PUSH2 0xA8BF NOT DUP2 ADD SWAP1 DUP2 GT PUSH2 0x2079 JUMPI TIMESTAMP LT ISZERO PUSH2 0x203B JUMPI PUSH1 0x40 MLOAD PUSH2 0x2038 SWAP2 PUSH2 0x2015 DUP3 PUSH2 0x4B83 JUMP JUMPDEST PUSH1 0x11 DUP3 MSTORE PUSH17 0x10DC99585D1BDC8818D85B98D95B1B1959 PUSH1 0x7A SHL PUSH1 0x20 DUP4 ADD MSTORE PUSH2 0x56D6 JUMP JUMPDEST DUP1 RETURN JUMPDEST PUSH1 0x40 MLOAD PUSH3 0x461BCD PUSH1 0xE5 SHL DUP2 MSTORE PUSH1 0x20 PUSH1 0x4 DUP3 ADD MSTORE PUSH1 0x16 PUSH1 0x24 DUP3 ADD MSTORE PUSH22 0x11540E88151BDBC81B185D19481D1BC818D85B98D95B PUSH1 0x52 SHL PUSH1 0x44 DUP3 ADD MSTORE PUSH1 0x64 SWAP1 REVERT JUMPDEST PUSH4 0x4E487B71 PUSH1 0xE0 SHL DUP4 MSTORE PUSH1 0x11 PUSH1 0x4 MSTORE PUSH1 0x24 DUP4 REVERT JUMPDEST PUSH1 0x40 MLOAD PUSH3 0x461BCD PUSH1 0xE5 SHL DUP2 MSTORE PUSH1 0x20 PUSH1 0x4 DUP3 ADD MSTORE PUSH1 0x1B PUSH1 0x24 DUP3 ADD MSTORE PUSH27 0x11540E8813DB9B1E4818DC99585D1BDC8818D85B8818D85B98D95B PUSH1 0x2A SHL PUSH1 0x44 DUP3 ADD MSTORE PUSH1 0x64 SWAP1 REVERT JUMPDEST POP CALLVALUE PUSH2 0x275 JUMPI PUSH2 0x20DF CALLDATASIZE PUSH2 0x4D4D JUMP JUMPDEST SWAP2 SWAP1 DUP2 MSTORE PUSH1 0x6 PUSH1 0x20 MSTORE PUSH1 0x40 DUP2 KECCAK256 SWAP1 DUP2 SLOAD DUP4 LT ISZERO PUSH2 0x275 JUMPI PUSH1 0x20 PUSH2 0x1C0E DUP5 DUP5 PUSH2 0x4B3C JUMP JUMPDEST POP CALLVALUE PUSH2 0x275 JUMPI PUSH1 0x20 CALLDATASIZE PUSH1 0x3 NOT ADD SLT PUSH2 0x275 JUMPI PUSH2 0x211C PUSH2 0x4AC0 JUMP JUMPDEST PUSH2 0x2124 PUSH2 0x4D63 JUMP JUMPDEST PUSH1 0x1 PUSH1 0x1 PUSH1 0xA0 SHL SUB AND DUP1 ISZERO PUSH2 0x214A JUMPI PUSH1 0xD DUP1 SLOAD PUSH1 0x1 PUSH1 0x1 PUSH1 0xA0 SHL SUB NOT AND SWAP2 SWAP1 SWAP2 OR SWAP1 SSTORE DUP1 RETURN JUMPDEST PUSH1 0x40 MLOAD PUSH3 0x461BCD PUSH1 0xE5 SHL DUP2 MSTORE PUSH1 0x20 PUSH1 0x4 DUP3 ADD MSTORE PUSH1 0x24 DUP1 DUP3 ADD MSTORE PUSH32 0x45503A20496E76616C6964204F7074696D69737469634F7261636C6520616464 PUSH1 0x44 DUP3 ADD MSTORE PUSH4 0x72657373 PUSH1 0xE0 SHL PUSH1 0x64 DUP3 ADD MSTORE PUSH1 0x84 SWAP1 REVERT JUMPDEST POP CALLVALUE PUSH2 0x275 JUMPI PUSH1 0x20 CALLDATASIZE PUSH1 0x3 NOT ADD SLT PUSH2 0x275 JUMPI PUSH2 0x21B5 PUSH2 0x4AC0 JUMP JUMPDEST PUSH2 0x21BD PUSH2 0x4D63 JUMP JUMPDEST PUSH1 0x1 PUSH1 0x1 PUSH1 0xA0 SHL SUB AND DUP1 ISZERO PUSH2 0x21E3 JUMPI PUSH1 0x8 DUP1 SLOAD PUSH1 0x1 PUSH1 0x1 PUSH1 0xA0 SHL SUB NOT AND SWAP2 SWAP1 SWAP2 OR SWAP1 SSTORE DUP1 RETURN JUMPDEST PUSH1 0x40 MLOAD PUSH3 0x461BCD PUSH1 0xE5 SHL DUP2 MSTORE PUSH1 0x20 PUSH1 0x4 DUP3 ADD MSTORE PUSH1 0xC PUSH1 0x24 DUP3 ADD MSTORE PUSH12 0x22A81D102130B21030B23239 PUSH1 0xA1 SHL PUSH1 0x44 DUP3 ADD MSTORE PUSH1 0x64 SWAP1 REVERT JUMPDEST POP CALLVALUE PUSH2 0x275 JUMPI PUSH1 0x20 CALLDATASIZE PUSH1 0x3 NOT ADD SLT PUSH2 0x275 JUMPI PUSH1 0x4 CALLDATALOAD DUP2 MSTORE PUSH1 0x1 PUSH1 0x20 DUP2 SWAP1 MSTORE PUSH1 0x40 SWAP1 SWAP2 KECCAK256 DUP1 SLOAD PUSH1 0x1 PUSH1 0x1 PUSH1 0xA0 SHL SUB AND SWAP2 PUSH2 0x2251 SWAP1 DUP3 ADD PUSH2 0x4C4D JUMP JUMPDEST PUSH1 0xE0 MSTORE PUSH1 0x2 DUP2 ADD SLOAD PUSH1 0xFF AND PUSH1 0x80 MSTORE PUSH1 0x3 DUP2 ADD SLOAD PUSH2 0x100 MSTORE PUSH1 0x1 PUSH1 0xA0 SHL PUSH1 0x1 SWAP1 SUB PUSH1 0x4 DUP3 ADD SLOAD AND SWAP2 PUSH1 0x5 DUP3 ADD SLOAD PUSH1 0x6 DUP4 ADD SLOAD PUSH1 0x7 DUP5 ADD SLOAD PUSH1 0x8 DUP6 ADD SLOAD PUSH1 0x9 DUP7 ADD SLOAD PUSH1 0xA DUP8 ADD SLOAD SWAP1 PUSH1 0xB DUP9 ADD SLOAD SWAP3 PUSH1 0xC DUP10 ADD SLOAD PUSH1 0xFF AND SWAP5 PUSH1 0xD DUP11 ADD SLOAD SWAP7 PUSH1 0xE DUP12 ADD SLOAD SWAP9 PUSH1 0xF DUP13 ADD SLOAD SWAP11 PUSH1 0x10 DUP14 ADD SLOAD SWAP13 PUSH1 0x11 ADD SLOAD PUSH1 0xFF AND PUSH1 0xA0 MSTORE PUSH1 0x40 MLOAD DUP1 PUSH1 0xC0 MSTORE MSTORE PUSH2 0x280 DUP1 PUSH1 0xC0 MLOAD PUSH1 0x20 ADD MSTORE PUSH1 0xC0 MLOAD ADD PUSH1 0xE0 MLOAD SWAP1 PUSH2 0x22EC SWAP2 PUSH2 0x4CF3 JUMP JUMPDEST SWAP13 PUSH1 0x80 MLOAD ISZERO ISZERO PUSH1 0xC0 MLOAD PUSH1 0x40 ADD MSTORE PUSH2 0x100 MLOAD PUSH1 0xC0 MLOAD PUSH1 0x60 ADD MSTORE PUSH1 0xC0 MLOAD PUSH1 0x80 ADD MSTORE PUSH1 0xC0 MLOAD PUSH1 0xA0 ADD MSTORE PUSH1 0xC0 MLOAD PUSH1 0xC0 ADD MSTORE PUSH1 0xC0 MLOAD PUSH1 0xE0 ADD MSTORE PUSH1 0xC0 MLOAD PUSH2 0x100 ADD MSTORE PUSH1 0xC0 MLOAD PUSH2 0x120 ADD MSTORE PUSH1 0xC0 MLOAD PUSH2 0x140 ADD MSTORE PUSH1 0xC0 MLOAD PUSH2 0x160 ADD MSTORE PUSH1 0xC0 MLOAD PUSH2 0x180 ADD PUSH2 0x2350 SWAP2 PUSH2 0x4D33 JUMP JUMPDEST PUSH1 0xC0 MLOAD PUSH2 0x1A0 ADD MSTORE PUSH1 0xFF DUP2 AND ISZERO ISZERO PUSH1 0xC0 MLOAD PUSH2 0x1C0 ADD MSTORE PUSH1 0xC0 MLOAD PUSH2 0x1E0 ADD DUP2 PUSH1 0x8 SHR PUSH1 0xFF AND SWAP1 PUSH2 0x237E SWAP2 PUSH2 0x4D40 JUMP JUMPDEST PUSH1 0x1 PUSH1 0xA0 SHL PUSH1 0x1 SWAP1 SUB SWAP1 PUSH1 0x10 SHR AND PUSH1 0xC0 MLOAD PUSH2 0x200 ADD MSTORE PUSH1 0xC0 MLOAD PUSH2 0x220 ADD MSTORE PUSH1 0xC0 MLOAD PUSH2 0x240 ADD MSTORE PUSH1 0xA0 MLOAD ISZERO ISZERO PUSH1 0xC0 MLOAD PUSH2 0x260 ADD MSTORE PUSH1 0xC0 MLOAD DUP1 SWAP2 SUB SWAP1 RETURN JUMPDEST POP CALLVALUE PUSH2 0x275 JUMPI PUSH1 0x20 CALLDATASIZE PUSH1 0x3 NOT ADD SLT PUSH2 0x275 JUMPI PUSH2 0x23D4 PUSH2 0x4AC0 JUMP JUMPDEST PUSH2 0x23DC PUSH2 0x4D63 JUMP JUMPDEST PUSH1 0x1 PUSH1 0x1 PUSH1 0xA0 SHL SUB AND DUP1 ISZERO PUSH2 0x2402 JUMPI PUSH1 0xE DUP1 SLOAD PUSH1 0x1 PUSH1 0x1 PUSH1 0xA0 SHL SUB NOT AND SWAP2 SWAP1 SWAP2 OR SWAP1 SSTORE DUP1 RETURN JUMPDEST PUSH1 0x40 MLOAD PUSH3 0x461BCD PUSH1 0xE5 SHL DUP2 MSTORE PUSH1 0x20 PUSH1 0x4 DUP3 ADD MSTORE PUSH1 0x19 PUSH1 0x24 DUP3 ADD MSTORE PUSH25 0x45503A20496E76616C696420626F6E642063757272656E6379 PUSH1 0x38 SHL PUSH1 0x44 DUP3 ADD MSTORE PUSH1 0x64 SWAP1 REVERT JUMPDEST POP CALLVALUE PUSH2 0x275 JUMPI PUSH1 0x20 CALLDATASIZE PUSH1 0x3 NOT ADD SLT PUSH2 0x275 JUMPI PUSH1 0x40 PUSH1 0x20 SWAP2 PUSH1 0x4 CALLDATALOAD DUP2 MSTORE PUSH1 0x6 DUP4 MSTORE KECCAK256 SLOAD PUSH1 0x40 MLOAD SWAP1 DUP2 MSTORE RETURN JUMPDEST POP CALLVALUE PUSH2 0x275 JUMPI DUP1 PUSH1 0x3 NOT CALLDATASIZE ADD SLT PUSH2 0x275 JUMPI PUSH1 0x8 SLOAD PUSH1 0x40 MLOAD PUSH1 0x1 PUSH1 0x1 PUSH1 0xA0 SHL SUB SWAP1 SWAP2 AND DUP2 MSTORE PUSH1 0x20 SWAP1 RETURN JUMPDEST POP CALLVALUE PUSH2 0x275 JUMPI PUSH1 0x20 DUP1 PUSH1 0x3 NOT CALLDATASIZE ADD SLT PUSH2 0x3B6 JUMPI PUSH1 0x4 CALLDATALOAD SWAP1 DUP2 DUP4 MSTORE PUSH1 0x1 DUP2 MSTORE PUSH1 0x40 DUP4 KECCAK256 SWAP1 PUSH1 0xE DUP3 ADD DUP1 SLOAD PUSH1 0xFF DUP2 PUSH1 0x8 SHR AND PUSH1 0x2 DUP2 LT ISZERO PUSH2 0x2704 JUMPI PUSH2 0x26CA JUMPI PUSH1 0xC DUP5 ADD SWAP1 DUP2 SLOAD SWAP1 PUSH1 0xFF DUP3 AND PUSH1 0x5 DUP2 LT ISZERO PUSH2 0x1115 JUMPI PUSH1 0x1 PUSH2 0x24F4 SWAP2 EQ PUSH2 0x5302 JUMP JUMPDEST PUSH2 0x2501 PUSH1 0xFF DUP3 AND ISZERO PUSH2 0x533E JUMP JUMPDEST PUSH1 0xB DUP7 ADD SLOAD TIMESTAMP LT PUSH2 0x268A JUMPI PUSH1 0x40 MLOAD PUSH4 0x3FABE5A3 PUSH1 0xE2 SHL DUP2 MSTORE DUP9 SWAP5 PUSH1 0x1 PUSH1 0x1 PUSH1 0xA0 SHL SUB SWAP5 SWAP4 SWAP2 SWAP3 SWAP2 SWAP1 PUSH1 0xA0 DUP5 PUSH1 0x4 DUP2 PUSH1 0x10 DUP8 SWAP1 SHR DUP11 AND GAS STATICCALL DUP1 ISZERO PUSH2 0x7DE JUMPI DUP8 SWAP1 PUSH2 0x263E JUMPI JUMPDEST PUSH1 0xF DUP11 ADD SLOAD PUSH1 0x2 SWAP6 POP GT PUSH2 0x2633 JUMPI PUSH1 0xFF PUSH1 0xD PUSH1 0x1 SWAP11 JUMPDEST ADD SWAP10 AND DUP10 SSTORE PUSH1 0x1 PUSH1 0xFF NOT DUP1 SWAP5 AND OR SWAP1 SSTORE AND OR SWAP1 SSTORE PUSH2 0x2578 DUP6 PUSH2 0x571F JUMP JUMPDEST PUSH1 0x4 DUP4 DUP3 PUSH1 0x8 SLOAD AND PUSH1 0x40 MLOAD SWAP3 DUP4 DUP1 SWAP3 PUSH4 0x406AD645 PUSH1 0xE1 SHL DUP3 MSTORE GAS STATICCALL SWAP1 DUP2 ISZERO PUSH2 0x634 JUMPI DUP4 SWAP2 PUSH2 0x2616 JUMPI JUMPDEST POP AND DUP1 PUSH2 0x25C6 JUMPI JUMPDEST POP POP PUSH1 0x0 DUP1 MLOAD PUSH1 0x20 PUSH2 0x5D9D DUP4 CODECOPY DUP2 MLOAD SWAP2 MSTORE SWAP2 SLOAD PUSH1 0x40 MLOAD SWAP1 DUP2 MSTORE LOG2 DUP1 RETURN JUMPDEST DUP4 SLOAD DUP2 EXTCODESIZE ISZERO PUSH2 0x2612 JUMPI DUP3 SWAP2 PUSH1 0x44 DUP4 SWAP3 PUSH1 0x40 MLOAD SWAP5 DUP6 SWAP4 DUP5 SWAP3 PUSH3 0xFF4A73 PUSH1 0xE8 SHL DUP5 MSTORE DUP12 PUSH1 0x4 DUP6 ADD MSTORE PUSH1 0x24 DUP5 ADD MSTORE GAS CALL DUP1 ISZERO PUSH2 0x5FC JUMPI ISZERO PUSH2 0x25A9 JUMPI PUSH2 0x2607 SWAP1 PUSH2 0x4B54 JUMP JUMPDEST PUSH2 0x5F8 JUMPI DUP4 CODESIZE PUSH2 0x25A9 JUMP JUMPDEST DUP3 DUP1 REVERT JUMPDEST PUSH2 0x262D SWAP2 POP DUP5 RETURNDATASIZE DUP7 GT PUSH2 0x62D JUMPI PUSH2 0x61F DUP2 DUP4 PUSH2 0x4B9E JUMP JUMPDEST CODESIZE PUSH2 0x25A1 JUMP JUMPDEST PUSH1 0xFF PUSH1 0xD DUP6 SWAP11 PUSH2 0x255B JUMP JUMPDEST POP PUSH1 0xA0 DUP5 RETURNDATASIZE DUP3 GT PUSH2 0x2682 JUMPI JUMPDEST DUP2 PUSH2 0x2657 PUSH1 0xA0 SWAP4 DUP4 PUSH2 0x4B9E JUMP JUMPDEST DUP2 ADD SUB SLT PUSH2 0x871 JUMPI DUP4 PUSH2 0x266B PUSH1 0x2 SWAP6 PUSH2 0x5379 JUMP JUMPDEST POP PUSH2 0x267C PUSH1 0x80 DUP11 DUP4 ADD MLOAD SWAP3 ADD PUSH2 0x5379 JUMP JUMPDEST POP PUSH2 0x2545 JUMP JUMPDEST RETURNDATASIZE SWAP2 POP PUSH2 0x264A JUMP JUMPDEST PUSH1 0x40 MLOAD PUSH3 0x461BCD PUSH1 0xE5 SHL DUP2 MSTORE PUSH1 0x4 DUP2 ADD DUP7 SWAP1 MSTORE PUSH1 0x18 PUSH1 0x24 DUP3 ADD MSTORE PUSH24 0x45503A20546F6F206561726C7920746F207265736F6C7665 PUSH1 0x40 SHL PUSH1 0x44 DUP3 ADD MSTORE PUSH1 0x64 SWAP1 REVERT JUMPDEST PUSH1 0x40 MLOAD PUSH3 0x461BCD PUSH1 0xE5 SHL DUP2 MSTORE PUSH1 0x4 DUP2 ADD DUP5 SWAP1 MSTORE PUSH1 0x12 PUSH1 0x24 DUP3 ADD MSTORE PUSH18 0x11540E88139BDD081C1C9A58D94819995959 PUSH1 0x72 SHL PUSH1 0x44 DUP3 ADD MSTORE PUSH1 0x64 SWAP1 REVERT JUMPDEST PUSH4 0x4E487B71 PUSH1 0xE0 SHL DUP8 MSTORE PUSH1 0x21 PUSH1 0x4 MSTORE PUSH1 0x24 DUP8 REVERT JUMPDEST POP CALLVALUE PUSH2 0x275 JUMPI PUSH1 0x40 CALLDATASIZE PUSH1 0x3 NOT ADD SLT PUSH2 0x275 JUMPI PUSH2 0x2732 PUSH2 0x4AC0 JUMP JUMPDEST PUSH1 0x1 PUSH1 0x1 PUSH1 0xA0 SHL SUB AND DUP2 MSTORE PUSH1 0xC PUSH1 0x20 MSTORE PUSH1 0x40 DUP2 KECCAK256 DUP1 SLOAD PUSH1 0x24 CALLDATALOAD SWAP3 SWAP1 DUP4 LT ISZERO PUSH2 0x275 JUMPI PUSH1 0x20 PUSH2 0x2760 DUP5 DUP5 PUSH2 0x4B3C JUMP JUMPDEST SWAP1 SLOAD PUSH1 0x40 MLOAD SWAP2 PUSH1 0x3 SHL SHR DUP2 MSTORE RETURN JUMPDEST POP CALLVALUE PUSH2 0x275 JUMPI DUP1 PUSH1 0x3 NOT CALLDATASIZE ADD SLT PUSH2 0x275 JUMPI SLOAD PUSH1 0x40 MLOAD PUSH1 0x1 PUSH1 0x1 PUSH1 0xA0 SHL SUB SWAP1 SWAP2 AND DUP2 MSTORE PUSH1 0x20 SWAP1 RETURN JUMPDEST POP CALLVALUE PUSH2 0x275 JUMPI PUSH2 0x160A SWAP1 PUSH1 0x20 PUSH2 0x27AA CALLDATASIZE PUSH2 0x4AD6 JUMP JUMPDEST PUSH1 0x7 SLOAD PUSH1 0x40 MLOAD PUSH4 0x423E7BC1 PUSH1 0xE1 SHL DUP2 MSTORE SWAP7 DUP8 SWAP5 PUSH1 0x1 PUSH1 0x1 PUSH1 0xA0 SHL SUB SWAP1 SWAP3 AND SWAP4 DUP6 SWAP4 DUP5 SWAP4 SWAP1 SWAP2 SWAP1 PUSH1 0x4 DUP6 ADD PUSH2 0x52E2 JUMP JUMPDEST POP CALLVALUE PUSH2 0x275 JUMPI PUSH1 0x20 CALLDATASIZE PUSH1 0x3 NOT ADD SLT PUSH2 0x275 JUMPI PUSH1 0x4 CALLDATALOAD DUP1 DUP3 MSTORE PUSH1 0x1 PUSH1 0x20 MSTORE PUSH1 0x40 DUP3 KECCAK256 SWAP1 PUSH1 0xFF PUSH1 0xC DUP4 ADD SLOAD AND PUSH1 0x5 DUP2 LT ISZERO PUSH2 0x3A2 JUMPI PUSH1 0x1 PUSH2 0x2818 SWAP2 EQ PUSH2 0x5302 JUMP JUMPDEST PUSH1 0xB DUP3 ADD SLOAD TIMESTAMP LT PUSH2 0x286F JUMPI PUSH2 0x2837 PUSH1 0xFF PUSH1 0xE PUSH2 0x2038 SWAP5 ADD SLOAD AND ISZERO PUSH2 0x533E JUMP JUMPDEST PUSH1 0x40 MLOAD SWAP1 PUSH2 0x2844 DUP3 PUSH2 0x4B83 JUMP JUMPDEST PUSH1 0x19 DUP3 MSTORE PUSH25 0x14995CDBDB1D5D1A5BDB881C195C9A5BD908195E1C1A5C9959 PUSH1 0x3A SHL PUSH1 0x20 DUP4 ADD MSTORE PUSH2 0x56D6 JUMP JUMPDEST PUSH1 0x40 MLOAD PUSH3 0x461BCD PUSH1 0xE5 SHL DUP2 MSTORE PUSH1 0x20 PUSH1 0x4 DUP3 ADD MSTORE PUSH1 0x1F PUSH1 0x24 DUP3 ADD MSTORE PUSH32 0x45503A205265736F6C7574696F6E20706572696F64206E6F7420656E64656400 PUSH1 0x44 DUP3 ADD MSTORE PUSH1 0x64 SWAP1 REVERT JUMPDEST POP CALLVALUE PUSH2 0x275 JUMPI DUP1 PUSH1 0x3 NOT CALLDATASIZE ADD SLT PUSH2 0x275 JUMPI PUSH2 0x28CD PUSH2 0x4D63 JUMP JUMPDEST PUSH1 0x0 DUP1 SLOAD PUSH1 0x1 PUSH1 0x1 PUSH1 0xA0 SHL SUB NOT DUP2 AND DUP3 SSTORE PUSH1 0x1 PUSH1 0x1 PUSH1 0xA0 SHL SUB AND PUSH1 0x0 DUP1 MLOAD PUSH1 0x20 PUSH2 0x5D7D DUP4 CODECOPY DUP2 MLOAD SWAP2 MSTORE DUP3 DUP1 LOG3 DUP1 RETURN JUMPDEST POP CALLVALUE PUSH2 0x275 JUMPI PUSH1 0x20 DUP1 PUSH1 0x3 NOT CALLDATASIZE ADD SLT PUSH2 0x3B6 JUMPI PUSH1 0x4 CALLDATALOAD DUP3 MSTORE PUSH1 0x5 DUP2 MSTORE PUSH1 0x40 DUP3 KECCAK256 PUSH1 0x40 MLOAD SWAP3 DUP4 DUP4 DUP4 SLOAD SWAP2 DUP3 DUP2 MSTORE ADD SWAP1 DUP2 SWAP4 DUP4 MSTORE DUP5 DUP4 KECCAK256 SWAP1 DUP4 JUMPDEST DUP2 DUP2 LT PUSH2 0x2991 JUMPI POP POP POP DUP5 PUSH2 0x294A SWAP2 SUB DUP6 PUSH2 0x4B9E JUMP JUMPDEST PUSH1 0x40 MLOAD SWAP4 DUP4 DUP6 SWAP5 DUP6 ADD SWAP2 DUP2 DUP7 MSTORE MLOAD DUP1 SWAP3 MSTORE PUSH1 0x40 DUP6 ADD SWAP4 SWAP3 JUMPDEST DUP3 DUP2 LT PUSH2 0x2971 JUMPI POP POP POP POP SUB SWAP1 RETURN JUMPDEST DUP4 MLOAD PUSH1 0x1 PUSH1 0x1 PUSH1 0xA0 SHL SUB AND DUP6 MSTORE DUP7 SWAP6 POP SWAP4 DUP2 ADD SWAP4 SWAP3 DUP2 ADD SWAP3 PUSH1 0x1 ADD PUSH2 0x2962 JUMP JUMPDEST DUP3 SLOAD PUSH1 0x1 PUSH1 0x1 PUSH1 0xA0 SHL SUB AND DUP5 MSTORE SWAP3 DUP7 ADD SWAP3 PUSH1 0x1 SWAP3 DUP4 ADD SWAP3 ADD PUSH2 0x2934 JUMP JUMPDEST POP CALLVALUE PUSH2 0x275 JUMPI PUSH1 0x20 DUP1 PUSH1 0x3 NOT CALLDATASIZE ADD SLT PUSH2 0x3B6 JUMPI PUSH1 0x4 CALLDATALOAD DUP1 DUP4 MSTORE PUSH1 0x1 DUP3 MSTORE PUSH1 0x40 DUP4 KECCAK256 PUSH1 0xE DUP2 ADD DUP1 SLOAD SWAP1 PUSH1 0xFF DUP3 PUSH1 0x8 SHR AND PUSH1 0x2 DUP2 LT ISZERO PUSH2 0x2704 JUMPI PUSH1 0x1 PUSH2 0x29F2 SWAP2 EQ PUSH2 0x538D JUMP JUMPDEST PUSH2 0x2A02 PUSH1 0xFF PUSH1 0x11 DUP6 ADD SLOAD AND PUSH2 0x5594 JUMP JUMPDEST PUSH2 0x2A0F PUSH1 0xFF DUP4 AND ISZERO PUSH2 0x533E JUMP JUMPDEST PUSH1 0x10 DUP4 ADD SWAP2 DUP3 SLOAD SWAP4 PUSH2 0x2A22 DUP6 ISZERO ISZERO PUSH2 0x55D8 JUMP JUMPDEST PUSH1 0xD SLOAD PUSH1 0x40 DUP1 MLOAD PUSH4 0xE39DFD7F PUSH1 0xE0 SHL DUP2 MSTORE PUSH1 0x4 DUP2 ADD SWAP8 SWAP1 SWAP8 MSTORE PUSH1 0x1 PUSH1 0x1 PUSH1 0xA0 SHL SUB SWAP5 SWAP2 DUP8 SWAP1 PUSH1 0x24 SWAP1 DUP3 SWAP1 DUP9 AND GAS STATICCALL SWAP6 DUP7 ISZERO PUSH2 0x110A JUMPI DUP10 SWAP1 DUP11 SWAP8 PUSH2 0x2C37 JUMPI JUMPDEST POP ISZERO PUSH2 0x2BF2 JUMPI DUP6 ISZERO ISZERO DUP1 PUSH2 0x2BE4 JUMPI JUMPDEST ISZERO PUSH2 0x2B9F JUMPI PUSH1 0xD DUP3 ADD SWAP6 DUP7 SSTORE PUSH1 0xFF NOT SWAP3 DUP4 AND PUSH1 0x1 OR SWAP1 SSTORE PUSH1 0xC ADD DUP1 SLOAD SWAP1 SWAP2 AND PUSH1 0x2 OR SWAP1 SSTORE PUSH2 0x2A9C DUP5 PUSH2 0x571F JUMP JUMPDEST PUSH1 0x4 DUP7 DUP7 DUP4 PUSH1 0x8 SLOAD AND PUSH1 0x40 MLOAD SWAP4 DUP5 DUP1 SWAP3 PUSH4 0x406AD645 PUSH1 0xE1 SHL DUP3 MSTORE GAS STATICCALL SWAP3 DUP4 ISZERO PUSH2 0x2B92 JUMPI DUP7 SWAP4 DUP9 SWAP4 DUP4 SWAP2 PUSH2 0x2B75 JUMPI JUMPDEST POP AND DUP1 PUSH2 0x2B1B JUMPI JUMPDEST POP POP PUSH1 0x0 DUP1 MLOAD PUSH1 0x20 PUSH2 0x5D9D DUP4 CODECOPY DUP2 MLOAD SWAP2 MSTORE SWAP1 PUSH32 0x32736E1FE22A85082B71B7EB923B176A17DF522EA8342FF5E24CE4B7E2019BBF SWAP5 SLOAD PUSH1 0x40 MLOAD SWAP1 DUP2 MSTORE LOG2 SLOAD SWAP3 PUSH1 0x40 MLOAD PUSH1 0x1 DUP2 MSTORE LOG3 DUP1 RETURN JUMPDEST SWAP2 POP SWAP2 POP DUP4 SLOAD SWAP1 DUP1 EXTCODESIZE ISZERO PUSH2 0x2612 JUMPI PUSH1 0x44 DUP4 SWAP3 PUSH1 0x40 MLOAD SWAP5 DUP6 SWAP4 DUP5 SWAP3 PUSH3 0xFF4A73 PUSH1 0xE8 SHL DUP5 MSTORE DUP11 PUSH1 0x4 DUP6 ADD MSTORE PUSH1 0x24 DUP5 ADD MSTORE GAS CALL DUP7 DUP2 ISZERO PUSH2 0x1658 JUMPI DUP6 SWAP3 DUP8 SWAP3 ISZERO PUSH2 0x2AD2 JUMPI SWAP1 SWAP3 POP PUSH2 0x2B68 SWAP2 POP PUSH2 0x4B54 JUMP JUMPDEST PUSH2 0xB13 JUMPI DUP3 DUP5 DUP7 CODESIZE PUSH2 0x2AD2 JUMP JUMPDEST PUSH2 0x2B8C SWAP2 POP DUP5 RETURNDATASIZE DUP7 GT PUSH2 0x62D JUMPI PUSH2 0x61F DUP2 DUP4 PUSH2 0x4B9E JUMP JUMPDEST CODESIZE PUSH2 0x2ACA JUMP JUMPDEST POP PUSH1 0x40 MLOAD SWAP1 RETURNDATASIZE SWAP1 DUP3 RETURNDATACOPY RETURNDATASIZE SWAP1 REVERT JUMPDEST PUSH1 0x40 MLOAD PUSH3 0x461BCD PUSH1 0xE5 SHL DUP2 MSTORE PUSH1 0x4 DUP2 ADD DUP10 SWAP1 MSTORE PUSH1 0x1E PUSH1 0x24 DUP3 ADD MSTORE PUSH32 0x45503A20496E76616C6964206F7074696F6E2066726F6D206F7261636C650000 PUSH1 0x44 DUP3 ADD MSTORE PUSH1 0x64 SWAP1 REVERT JUMPDEST POP PUSH1 0x3 DUP3 ADD SLOAD DUP7 GT ISZERO PUSH2 0x2A6F JUMP JUMPDEST PUSH1 0x40 MLOAD PUSH3 0x461BCD PUSH1 0xE5 SHL DUP2 MSTORE PUSH1 0x4 DUP2 ADD DUP10 SWAP1 MSTORE PUSH1 0x1D PUSH1 0x24 DUP3 ADD MSTORE PUSH32 0x45503A204F7261636C6520617373657274696F6E2072656A6563746564000000 PUSH1 0x44 DUP3 ADD MSTORE PUSH1 0x64 SWAP1 REVERT JUMPDEST SWAP7 POP POP PUSH1 0x40 DUP7 RETURNDATASIZE PUSH1 0x40 GT PUSH2 0x2C6F JUMPI JUMPDEST DUP2 PUSH2 0x2C53 PUSH1 0x40 SWAP4 DUP4 PUSH2 0x4B9E JUMP JUMPDEST DUP2 ADD SUB SLT PUSH2 0x10FF JUMPI DUP8 PUSH2 0x2C65 DUP8 PUSH2 0x4D8F JUMP JUMPDEST SWAP7 ADD MLOAD SWAP6 CODESIZE PUSH2 0x2A60 JUMP JUMPDEST RETURNDATASIZE SWAP2 POP PUSH2 0x2C46 JUMP JUMPDEST POP CALLVALUE PUSH2 0x275 JUMPI PUSH1 0x20 SWAP1 DUP2 PUSH1 0x3 NOT CALLDATASIZE ADD SLT PUSH2 0x275 JUMPI PUSH1 0x4 CALLDATALOAD SWAP2 DUP3 DUP3 MSTORE PUSH1 0x1 DUP2 MSTORE PUSH1 0x40 DUP3 KECCAK256 SWAP3 PUSH1 0xFF PUSH1 0xC DUP6 ADD SLOAD AND PUSH1 0x5 DUP2 LT ISZERO PUSH2 0x3A2 JUMPI PUSH1 0x2 PUSH2 0x2CB8 SWAP2 EQ PUSH2 0x561A JUMP JUMPDEST PUSH1 0xD DUP5 ADD SLOAD SWAP2 PUSH2 0x2CC9 DUP4 ISZERO ISZERO PUSH2 0x5659 JUMP JUMPDEST DUP2 DUP5 MSTORE PUSH1 0x2 DUP2 MSTORE PUSH1 0x40 DUP5 KECCAK256 CALLER PUSH1 0x0 MSTORE DUP2 MSTORE PUSH1 0xFF PUSH1 0x40 PUSH1 0x0 KECCAK256 SLOAD AND ISZERO PUSH2 0x30A6 JUMPI PUSH1 0x7 SLOAD PUSH1 0x40 MLOAD PUSH4 0x7C7A72D PUSH1 0xE0 SHL DUP2 MSTORE PUSH1 0x1 PUSH1 0x1 PUSH1 0xA0 SHL SUB SWAP2 DUP3 AND SWAP5 SWAP2 SWAP1 DUP4 DUP2 DUP1 PUSH2 0x2D17 CALLER DUP10 PUSH1 0x4 DUP5 ADD PUSH2 0x4F90 JUMP JUMPDEST SUB DUP2 DUP10 GAS STATICCALL SWAP1 DUP2 ISZERO PUSH2 0x7DE JUMPI DUP8 SWAP2 PUSH2 0x3071 JUMPI JUMPDEST POP PUSH2 0x303E JUMPI PUSH1 0x4 DUP8 ADD SLOAD AND SWAP1 PUSH1 0x40 MLOAD SWAP1 PUSH4 0x423E7BC1 PUSH1 0xE1 SHL DUP3 MSTORE DUP4 DUP3 DUP1 PUSH2 0x2D56 DUP7 CALLER DUP11 PUSH1 0x4 DUP6 ADD PUSH2 0x52E2 JUMP JUMPDEST SUB DUP2 DUP10 GAS STATICCALL SWAP2 DUP3 ISZERO PUSH2 0x7DE JUMPI DUP8 SWAP3 PUSH2 0x300F JUMPI JUMPDEST POP PUSH1 0x40 MLOAD PUSH4 0xDC4CE349 PUSH1 0xE0 SHL DUP1 DUP3 MSTORE SWAP9 DUP6 DUP3 DUP1 PUSH2 0x2D8B DUP9 DUP8 DUP13 PUSH1 0x4 DUP6 ADD PUSH2 0x5695 JUMP JUMPDEST SUB DUP2 DUP12 GAS STATICCALL SWAP2 DUP3 ISZERO PUSH2 0x110A JUMPI DUP10 SWAP3 PUSH2 0x2FE0 JUMPI JUMPDEST POP DUP9 SWAP10 PUSH1 0x3 PUSH1 0x1 SWAP3 ADD SLOAD SWAP2 JUMPDEST DUP3 DUP2 GT ISZERO PUSH2 0x2F49 JUMPI POP POP PUSH1 0x40 MLOAD PUSH4 0x4F44289D PUSH1 0xE0 SHL DUP2 MSTORE DUP10 SWAP6 SWAP5 SWAP4 SWAP3 SWAP2 POP DUP11 DUP8 DUP3 DUP1 PUSH2 0x2DDA DUP10 DUP14 PUSH1 0x4 DUP5 ADD PUSH2 0x4F90 JUMP JUMPDEST SUB DUP2 DUP14 GAS STATICCALL SWAP2 DUP3 ISZERO PUSH2 0x7DE JUMPI DUP8 SWAP3 PUSH2 0x2F15 JUMPI JUMPDEST POP SWAP1 PUSH2 0x2DF8 SWAP2 PUSH2 0x4E50 JUMP JUMPDEST DUP2 PUSH2 0x2E84 JUMPI POP POP POP POP DUP2 SWAP5 JUMPDEST DUP1 EXTCODESIZE ISZERO PUSH2 0x2612 JUMPI DUP6 DUP4 SWAP2 PUSH2 0x2E31 SWAP4 DUP4 PUSH1 0x40 MLOAD DUP1 SWAP7 DUP2 SWAP6 DUP3 SWAP5 PUSH4 0x2F0041ED PUSH1 0xE1 SHL DUP5 MSTORE CALLER DUP14 PUSH1 0x4 DUP7 ADD PUSH2 0x5271 JUMP JUMPDEST SUB SWAP3 GAS CALL DUP1 ISZERO PUSH2 0x5FC JUMPI PUSH2 0x2E70 JUMPI JUMPDEST POP POP PUSH32 0x5380CF6FE903B40C6D5A9E0DFBCA2F3A423F0A21520B4D5947ED5169BDBA946D SWAP1 PUSH1 0x40 MLOAD SWAP4 DUP5 MSTORE CALLER SWAP4 LOG3 DUP1 RETURN JUMPDEST PUSH2 0x2E79 SWAP1 PUSH2 0x4B54 JUMP JUMPDEST PUSH2 0x5F8 JUMPI DUP4 DUP6 PUSH2 0x2E40 JUMP JUMPDEST DUP1 PUSH2 0x2EB8 JUMPI POP POP DUP6 DUP5 MSTORE PUSH1 0x4 DUP6 MSTORE PUSH1 0x40 DUP5 KECCAK256 CALLER PUSH1 0x0 MSTORE DUP6 MSTORE PUSH1 0x40 PUSH1 0x0 KECCAK256 SLOAD EQ PUSH1 0x0 EQ PUSH2 0x2EB0 JUMPI SWAP5 PUSH2 0x2E04 JUMP JUMPDEST POP DUP2 SWAP5 PUSH2 0x2E04 JUMP JUMPDEST SWAP2 DUP8 DUP7 SWAP3 SWAP5 SWAP6 SWAP7 MSTORE PUSH1 0x4 DUP8 MSTORE PUSH1 0x40 DUP3 KECCAK256 CALLER PUSH1 0x0 MSTORE DUP8 MSTORE PUSH1 0x40 PUSH1 0x0 KECCAK256 SLOAD EQ PUSH1 0x0 EQ PUSH2 0x2F09 JUMPI POP PUSH2 0x2328 DUP1 DUP3 MUL SWAP2 DUP3 DIV SUB PUSH2 0x798 JUMPI SWAP2 PUSH2 0x1398 PUSH2 0x2F03 SWAP3 PUSH2 0x1393 PUSH2 0x2710 DUP12 SWAP8 SWAP7 DIV DUP5 PUSH2 0x4E27 JUMP JUMPDEST SWAP5 PUSH2 0x2E04 JUMP JUMPDEST SWAP4 SWAP3 POP POP POP DUP2 SWAP5 PUSH2 0x2E04 JUMP JUMPDEST DUP9 DUP1 SWAP3 SWAP9 POP DUP2 SWAP4 POP RETURNDATASIZE DUP4 GT PUSH2 0x2F42 JUMPI JUMPDEST PUSH2 0x2F2F DUP2 DUP4 PUSH2 0x4B9E JUMP JUMPDEST DUP2 ADD SUB SLT PUSH2 0x7D2 JUMPI MLOAD DUP10 SWAP6 PUSH2 0x2DF8 PUSH2 0x2DED JUMP JUMPDEST POP RETURNDATASIZE PUSH2 0x2F25 JUMP JUMPDEST DUP5 DUP2 SUB PUSH2 0x2F5F JUMPI JUMPDEST PUSH2 0x2F5A SWAP1 PUSH2 0x4E5D JUMP JUMPDEST PUSH2 0x2DAA JUMP JUMPDEST SWAP11 PUSH2 0x2F7E DUP9 DUP9 DUP13 DUP16 DUP14 PUSH1 0x40 MLOAD SWAP6 DUP7 SWAP5 DUP6 SWAP4 DUP5 SWAP4 DUP12 DUP6 MSTORE PUSH1 0x4 DUP6 ADD PUSH2 0x5695 JUMP JUMPDEST SUB SWAP2 GAS STATICCALL SWAP1 DUP2 ISZERO PUSH2 0x2FD5 JUMPI DUP13 SWAP2 PUSH2 0x2FA6 JUMPI JUMPDEST POP PUSH2 0x2F9E SWAP1 PUSH2 0x2F5A SWAP3 PUSH2 0x4E50 JUMP JUMPDEST SWAP12 SWAP1 POP PUSH2 0x2F51 JUMP JUMPDEST SWAP1 POP DUP9 DUP2 DUP2 RETURNDATASIZE DUP4 GT PUSH2 0x2FCE JUMPI JUMPDEST PUSH2 0x2FBD DUP2 DUP4 PUSH2 0x4B9E JUMP JUMPDEST DUP2 ADD SUB SLT PUSH2 0x7D2 JUMPI MLOAD PUSH2 0x2F5A PUSH2 0x2F90 JUMP JUMPDEST POP RETURNDATASIZE PUSH2 0x2FB3 JUMP JUMPDEST PUSH1 0x40 MLOAD RETURNDATASIZE DUP15 DUP3 RETURNDATACOPY RETURNDATASIZE SWAP1 REVERT JUMPDEST SWAP1 SWAP2 POP DUP6 DUP2 DUP2 RETURNDATASIZE DUP4 GT PUSH2 0x3008 JUMPI JUMPDEST PUSH2 0x2FF8 DUP2 DUP4 PUSH2 0x4B9E JUMP JUMPDEST DUP2 ADD SUB SLT PUSH2 0x7D2 JUMPI MLOAD SWAP1 CODESIZE PUSH2 0x2D9E JUMP JUMPDEST POP RETURNDATASIZE PUSH2 0x2FEE JUMP JUMPDEST SWAP1 SWAP2 POP DUP4 DUP2 DUP2 RETURNDATASIZE DUP4 GT PUSH2 0x3037 JUMPI JUMPDEST PUSH2 0x3027 DUP2 DUP4 PUSH2 0x4B9E JUMP JUMPDEST DUP2 ADD SUB SLT PUSH2 0x7D2 JUMPI MLOAD SWAP1 CODESIZE PUSH2 0x2D69 JUMP JUMPDEST POP RETURNDATASIZE PUSH2 0x301D JUMP JUMPDEST PUSH1 0x40 MLOAD PUSH3 0x461BCD PUSH1 0xE5 SHL DUP2 MSTORE PUSH1 0x4 DUP2 ADD DUP5 SWAP1 MSTORE PUSH1 0xB PUSH1 0x24 DUP3 ADD MSTORE PUSH11 0x11540E8810DB185A5B5959 PUSH1 0xAA SHL PUSH1 0x44 DUP3 ADD MSTORE PUSH1 0x64 SWAP1 REVERT JUMPDEST SWAP1 POP DUP4 DUP2 DUP2 RETURNDATASIZE DUP4 GT PUSH2 0x309F JUMPI JUMPDEST PUSH2 0x3088 DUP2 DUP4 PUSH2 0x4B9E JUMP JUMPDEST DUP2 ADD SUB SLT PUSH2 0x871 JUMPI PUSH2 0x3099 SWAP1 PUSH2 0x4D8F JUMP JUMPDEST CODESIZE PUSH2 0x2D2A JUMP JUMPDEST POP RETURNDATASIZE PUSH2 0x307E JUMP JUMPDEST PUSH1 0x64 SWAP1 PUSH1 0x40 MLOAD SWAP1 PUSH3 0x461BCD PUSH1 0xE5 SHL DUP3 MSTORE PUSH1 0x4 DUP3 ADD MSTORE PUSH1 0xC PUSH1 0x24 DUP3 ADD MSTORE PUSH12 0x45503A204E6F207374616B65 PUSH1 0xA0 SHL PUSH1 0x44 DUP3 ADD MSTORE REVERT JUMPDEST POP PUSH2 0x180 CALLDATASIZE PUSH1 0x3 NOT ADD SLT PUSH2 0x275 JUMPI PUSH1 0x4 CALLDATALOAD PUSH1 0x1 PUSH1 0x1 PUSH1 0x40 SHL SUB DUP2 GT PUSH2 0x3B6 JUMPI CALLDATASIZE PUSH1 0x23 DUP3 ADD SLT ISZERO PUSH2 0x3B6 JUMPI PUSH2 0x3117 SWAP1 CALLDATASIZE SWAP1 PUSH1 0x24 DUP2 PUSH1 0x4 ADD CALLDATALOAD SWAP2 ADD PUSH2 0x4BDC JUMP JUMPDEST SWAP1 PUSH1 0x24 CALLDATALOAD ISZERO ISZERO PUSH1 0x24 CALLDATALOAD SUB PUSH2 0x275 JUMPI PUSH1 0x64 CALLDATALOAD PUSH1 0x1 PUSH1 0x1 PUSH1 0xA0 SHL SUB DUP2 AND SWAP1 SUB PUSH2 0x7D2 JUMPI PUSH1 0x2 PUSH2 0x124 CALLDATALOAD LT ISZERO PUSH2 0x275 JUMPI PUSH2 0x144 CALLDATALOAD SWAP1 PUSH1 0x1 PUSH1 0x1 PUSH1 0xA0 SHL SUB DUP3 AND DUP3 SUB PUSH2 0x7D2 JUMPI PUSH1 0x8 SLOAD PUSH1 0x40 MLOAD PUSH4 0x2B5BA3B9 PUSH1 0xE0 SHL DUP2 MSTORE CALLER PUSH1 0x4 DUP3 ADD MSTORE PUSH1 0x1 PUSH1 0x1 PUSH1 0xA0 SHL SUB SWAP1 SWAP2 AND SWAP1 PUSH1 0x20 DUP2 PUSH1 0x24 DUP2 DUP6 GAS STATICCALL DUP1 ISZERO PUSH2 0x634 JUMPI DUP4 SWAP1 PUSH2 0x3E83 JUMPI JUMPDEST PUSH2 0x319C SWAP2 POP ISZERO PUSH2 0x4D9C JUMP JUMPDEST DUP4 MLOAD ISZERO PUSH2 0x3E4B JUMPI PUSH1 0x2 PUSH1 0x44 CALLDATALOAD LT ISZERO DUP1 PUSH2 0x3E3E JUMPI JUMPDEST ISZERO PUSH2 0x3E03 JUMPI PUSH1 0x84 CALLDATALOAD ISZERO PUSH2 0x3DCA JUMPI PUSH1 0xA4 CALLDATALOAD ISZERO PUSH2 0x3D8F JUMPI PUSH1 0xC4 CALLDATALOAD ISZERO ISZERO DUP1 PUSH2 0x3D81 JUMPI JUMPDEST ISZERO PUSH2 0x3D46 JUMPI PUSH2 0x124 CALLDATALOAD ISZERO PUSH2 0x3CAC JUMPI JUMPDEST PUSH1 0x40 MLOAD PUSH4 0x17916E01 PUSH1 0xE0 SHL DUP2 MSTORE PUSH1 0x20 DUP2 PUSH1 0x4 DUP2 DUP6 GAS STATICCALL SWAP1 DUP2 ISZERO PUSH2 0x634 JUMPI DUP4 SWAP2 PUSH2 0x3C7A JUMPI JUMPDEST POP PUSH1 0xE4 CALLDATALOAD LT PUSH2 0x3C42 JUMPI PUSH1 0xE4 CALLDATALOAD PUSH2 0x104 CALLDATALOAD LT PUSH2 0x3C00 JUMPI PUSH1 0x24 CALLDATALOAD ISZERO PUSH2 0x3B66 JUMPI PUSH1 0x64 CALLDATALOAD PUSH1 0x1 PUSH1 0x1 PUSH1 0xA0 SHL SUB AND ISZERO PUSH2 0x3B22 JUMPI PUSH1 0x40 MLOAD PUSH4 0x34625613 PUSH1 0xE1 SHL DUP2 MSTORE PUSH1 0x64 CALLDATALOAD PUSH1 0x1 PUSH1 0x1 PUSH1 0xA0 SHL SUB AND PUSH1 0x4 DUP3 ADD MSTORE SWAP1 PUSH1 0x20 SWAP1 DUP3 SWAP1 PUSH1 0x24 SWAP1 DUP3 SWAP1 GAS STATICCALL DUP1 ISZERO PUSH2 0x5FC JUMPI DUP3 SWAP1 PUSH2 0x3AE7 JUMPI JUMPDEST PUSH2 0x3273 SWAP2 POP PUSH2 0x4DE1 JUMP JUMPDEST PUSH8 0xDE0B6B3A7640000 CALLVALUE LT PUSH2 0x3AAB JUMPI PUSH1 0x3C PUSH1 0xE4 CALLDATALOAD MUL PUSH1 0xE4 CALLDATALOAD DUP2 DIV PUSH1 0x3C EQ PUSH1 0xE4 CALLDATALOAD ISZERO OR ISZERO PUSH2 0x3940 JUMPI PUSH2 0x32A4 SWAP1 TIMESTAMP PUSH2 0x4E50 JUMP JUMPDEST SWAP1 PUSH2 0x104 CALLDATALOAD PUSH1 0x3C PUSH2 0x104 CALLDATALOAD MUL DIV PUSH1 0x3C EQ PUSH2 0x104 CALLDATALOAD ISZERO OR ISZERO PUSH2 0x139E JUMPI PUSH2 0x32CF PUSH1 0x3C PUSH2 0x104 CALLDATALOAD MUL TIMESTAMP PUSH2 0x4E50 JUMP JUMPDEST PUSH2 0x124 CALLDATALOAD PUSH2 0x3A95 JUMPI DUP1 SWAP2 JUMPDEST PUSH1 0x9 SLOAD SWAP5 PUSH2 0x32E7 DUP7 PUSH2 0x4E5D JUMP JUMPDEST PUSH1 0x9 SSTORE PUSH1 0x40 MLOAD SWAP1 PUSH2 0x32F7 DUP3 PUSH2 0x4B67 JUMP JUMPDEST CALLER DUP3 MSTORE DUP8 PUSH1 0x20 DUP4 ADD MSTORE PUSH1 0x24 CALLDATALOAD ISZERO ISZERO PUSH1 0x40 DUP4 ADD MSTORE PUSH1 0x44 CALLDATALOAD PUSH1 0x60 DUP4 ADD MSTORE PUSH1 0x1 DUP1 PUSH1 0xA0 SHL SUB PUSH1 0x64 CALLDATALOAD AND PUSH1 0x80 DUP4 ADD MSTORE PUSH1 0x84 CALLDATALOAD PUSH1 0xA0 DUP4 ADD MSTORE PUSH1 0xA4 CALLDATALOAD PUSH1 0xC0 DUP4 ADD MSTORE PUSH1 0xC4 CALLDATALOAD PUSH1 0xE0 DUP4 ADD MSTORE TIMESTAMP PUSH2 0x100 DUP4 ADD MSTORE DUP6 PUSH2 0x120 DUP4 ADD MSTORE DUP4 PUSH2 0x140 DUP4 ADD MSTORE DUP5 PUSH2 0x160 DUP4 ADD MSTORE DUP3 PUSH2 0x180 DUP4 ADD MSTORE DUP3 PUSH2 0x1A0 DUP4 ADD MSTORE DUP3 PUSH2 0x1C0 DUP4 ADD MSTORE PUSH2 0x337C PUSH2 0x124 CALLDATALOAD PUSH2 0x1E0 DUP5 ADD PUSH2 0x4E6C JUMP JUMPDEST PUSH1 0x1 PUSH1 0x1 PUSH1 0xA0 SHL SUB SWAP1 DUP2 AND PUSH2 0x200 DUP4 ADD MSTORE PUSH2 0x164 CALLDATALOAD PUSH2 0x220 DUP4 ADD MSTORE PUSH2 0x240 DUP3 ADD DUP4 SWAP1 MSTORE PUSH2 0x260 DUP3 ADD DUP4 SWAP1 MSTORE DUP7 DUP4 MSTORE PUSH1 0x1 PUSH1 0x20 SWAP1 DUP2 MSTORE PUSH1 0x40 DUP5 KECCAK256 DUP4 MLOAD DUP2 SLOAD PUSH1 0x1 PUSH1 0x1 PUSH1 0xA0 SHL SUB NOT AND SWAP4 AND SWAP3 SWAP1 SWAP3 OR DUP3 SSTORE DUP3 ADD MLOAD DUP1 MLOAD SWAP2 SWAP3 SWAP2 SWAP1 PUSH1 0x1 PUSH1 0x1 PUSH1 0x40 SHL SUB DUP3 GT PUSH2 0x3A81 JUMPI DUP2 SWAP1 PUSH2 0x33F1 PUSH1 0x1 DUP7 ADD SLOAD PUSH2 0x4C13 JUMP JUMPDEST PUSH1 0x1F DUP2 GT PUSH2 0x3A43 JUMPI JUMPDEST POP PUSH1 0x20 SWAP1 PUSH1 0x1F DUP4 GT PUSH1 0x1 EQ PUSH2 0x39D4 JUMPI DUP7 SWAP3 PUSH2 0x39C9 JUMPI JUMPDEST POP POP DUP2 PUSH1 0x1 SHL SWAP2 PUSH1 0x0 NOT SWAP1 PUSH1 0x3 SHL SHR NOT AND OR PUSH1 0x1 DUP4 ADD SSTORE JUMPDEST PUSH2 0x343B PUSH1 0x40 DUP3 ADD MLOAD ISZERO ISZERO PUSH1 0x2 DUP5 ADD PUSH2 0x4E8F JUMP JUMPDEST PUSH1 0x60 DUP2 ADD MLOAD PUSH1 0x3 DUP4 ADD SSTORE PUSH1 0x4 DUP3 ADD PUSH1 0x1 DUP1 PUSH1 0xA0 SHL SUB PUSH1 0x80 DUP4 ADD MLOAD AND PUSH1 0x1 DUP1 PUSH1 0xA0 SHL SUB NOT DUP3 SLOAD AND OR SWAP1 SSTORE PUSH1 0xA0 DUP2 ADD MLOAD PUSH1 0x5 DUP4 ADD SSTORE PUSH1 0xC0 DUP2 ADD MLOAD PUSH1 0x6 DUP4 ADD SSTORE PUSH1 0xE0 DUP2 ADD MLOAD PUSH1 0x7 DUP4 ADD SSTORE PUSH2 0x100 DUP2 ADD MLOAD PUSH1 0x8 DUP4 ADD SSTORE PUSH2 0x120 DUP2 ADD MLOAD PUSH1 0x9 DUP4 ADD SSTORE PUSH2 0x140 DUP2 ADD MLOAD PUSH1 0xA DUP4 ADD SSTORE PUSH2 0x160 DUP2 ADD MLOAD PUSH1 0xB DUP4 ADD SSTORE PUSH1 0xC DUP3 ADD PUSH2 0x180 DUP3 ADD MLOAD PUSH1 0x5 DUP2 LT ISZERO PUSH2 0x39B5 JUMPI PUSH1 0xFF DUP1 NOT DUP4 SLOAD AND SWAP2 AND OR SWAP1 SSTORE PUSH2 0x1A0 DUP2 ADD MLOAD PUSH1 0xD DUP4 ADD SSTORE PUSH1 0xE DUP3 ADD PUSH2 0x34ED PUSH2 0x1C0 DUP4 ADD MLOAD ISZERO ISZERO DUP3 PUSH2 0x4E8F JUMP JUMPDEST PUSH2 0x1E0 DUP3 ADD MLOAD PUSH1 0x2 DUP2 LT ISZERO PUSH2 0x39B5 JUMPI DUP2 SLOAD PUSH2 0x200 DUP5 ADD MLOAD PUSH2 0x100 PUSH1 0x1 PUSH1 0xB0 SHL SUB NOT SWAP1 SWAP2 AND PUSH1 0x8 SWAP3 SWAP1 SWAP3 SHL PUSH2 0xFF00 AND SWAP2 SWAP1 SWAP2 OR PUSH1 0x10 SWAP2 DUP3 SHL PUSH3 0x10000 PUSH1 0x1 PUSH1 0xB0 SHL SUB AND OR SWAP1 SWAP2 SSTORE PUSH2 0x220 DUP3 ADD MLOAD PUSH1 0xF DUP5 ADD SSTORE PUSH2 0x240 DUP3 ADD MLOAD SWAP1 DUP4 ADD SSTORE PUSH2 0x260 ADD MLOAD PUSH2 0x355D SWAP2 SWAP1 ISZERO ISZERO SWAP1 PUSH1 0x11 ADD PUSH2 0x4E8F JUMP JUMPDEST PUSH1 0xA SLOAD PUSH1 0x1 PUSH1 0x40 SHL DUP2 LT ISZERO PUSH2 0x399F JUMPI PUSH2 0x3597 PUSH2 0x3580 DUP3 PUSH1 0x1 DUP10 SWAP5 ADD PUSH1 0xA SSTORE PUSH2 0x4B0B JUMP JUMPDEST DUP2 SWAP4 SWAP2 SLOAD SWAP1 PUSH1 0x3 SHL SWAP2 DUP3 SHL SWAP2 PUSH1 0x0 NOT SWAP1 SHL NOT AND OR SWAP1 JUMP JUMPDEST SWAP1 SSTORE DUP5 DUP2 MSTORE PUSH1 0xB PUSH1 0x20 MSTORE PUSH1 0x40 DUP2 KECCAK256 DUP1 SLOAD PUSH1 0xFF NOT AND PUSH1 0x1 OR SWAP1 SSTORE PUSH1 0x64 CALLDATALOAD PUSH1 0x1 PUSH1 0x1 PUSH1 0xA0 SHL SUB AND PUSH2 0x3954 JUMPI PUSH1 0xA4 CALLDATALOAD PUSH8 0xDE0B6B3A7640000 ADD DUP1 PUSH8 0xDE0B6B3A7640000 GT PUSH2 0x3940 JUMPI CALLVALUE LT PUSH2 0x3903 JUMPI PUSH2 0x360C DUP2 DUP1 DUP1 DUP1 PUSH8 0xDE0B6B3A7640000 PUSH1 0x1 DUP1 PUSH1 0xA0 SHL SUB DUP3 SLOAD AND GAS CALL PUSH2 0x3606 PUSH2 0x4EC6 JUMP JUMPDEST POP PUSH2 0x4EF6 JUMP JUMPDEST DUP1 DUP1 DUP1 DUP1 PUSH1 0xA4 CALLDATALOAD PUSH1 0x1 DUP1 PUSH1 0xA0 SHL SUB PUSH1 0x7 SLOAD AND GAS CALL PUSH2 0x3628 PUSH2 0x4EC6 JUMP JUMPDEST POP ISZERO PUSH2 0x38A6 JUMPI JUMPDEST DUP5 DUP2 MSTORE PUSH1 0x2 PUSH1 0x20 MSTORE PUSH1 0x40 DUP2 KECCAK256 CALLER PUSH1 0x0 MSTORE PUSH1 0x20 MSTORE PUSH1 0x40 PUSH1 0x0 KECCAK256 PUSH1 0x1 PUSH1 0xFF NOT DUP3 SLOAD AND OR SWAP1 SSTORE DUP5 DUP2 MSTORE PUSH1 0x4 PUSH1 0x20 MSTORE PUSH1 0x40 DUP2 KECCAK256 CALLER PUSH1 0x0 MSTORE PUSH1 0x20 MSTORE PUSH1 0xC4 CALLDATALOAD PUSH1 0x40 PUSH1 0x0 KECCAK256 SSTORE CALLER DUP2 MSTORE PUSH1 0xC PUSH1 0x20 MSTORE PUSH2 0x3683 DUP6 PUSH1 0x40 DUP4 KECCAK256 PUSH2 0x4EA0 JUMP JUMPDEST PUSH1 0x7 SLOAD PUSH1 0x1 PUSH1 0x1 PUSH1 0xA0 SHL SUB AND DUP1 EXTCODESIZE ISZERO PUSH2 0x3B6 JUMPI DUP2 PUSH1 0x40 MLOAD DUP1 SWAP3 PUSH4 0x95F41095 PUSH1 0xE0 SHL DUP3 MSTORE DUP2 DUP4 DUP2 PUSH2 0x36C3 PUSH1 0xC4 CALLDATALOAD DUP14 PUSH1 0xA4 CALLDATALOAD SWAP1 PUSH1 0x64 CALLDATALOAD SWAP1 CALLER SWAP1 PUSH1 0x4 DUP8 ADD PUSH2 0x4F41 JUMP JUMPDEST SUB SWAP3 GAS CALL DUP1 ISZERO PUSH2 0x5FC JUMPI SWAP1 DUP3 SWAP2 PUSH2 0x3892 JUMPI JUMPDEST POP POP PUSH1 0x8 SLOAD PUSH1 0x40 MLOAD PUSH4 0x406AD645 PUSH1 0xE1 SHL DUP2 MSTORE SWAP1 PUSH1 0x20 SWAP1 DUP3 SWAP1 PUSH1 0x4 SWAP1 DUP3 SWAP1 PUSH1 0x1 PUSH1 0x1 PUSH1 0xA0 SHL SUB AND GAS STATICCALL SWAP1 DUP2 ISZERO PUSH2 0x5FC JUMPI DUP3 SWAP2 PUSH2 0x3873 JUMPI JUMPDEST POP PUSH1 0x1 PUSH1 0x1 PUSH1 0xA0 SHL SUB DUP2 AND PUSH2 0x37AD JUMPI JUMPDEST POP POP PUSH1 0x20 SWAP5 DUP5 SWAP3 PUSH32 0x5D0726A1BB5EC8C87527E69BA86D988202E885FAD8F2B4AACD618793D6F297B2 SWAP3 PUSH2 0x375B PUSH1 0x40 MLOAD SWAP4 PUSH2 0x120 DUP6 MSTORE PUSH2 0x120 DUP6 ADD SWAP1 PUSH2 0x4CF3 JUMP JUMPDEST PUSH1 0x24 CALLDATALOAD ISZERO ISZERO DUP5 DUP11 ADD MSTORE PUSH1 0x44 CALLDATALOAD PUSH1 0x40 DUP6 ADD MSTORE PUSH1 0x64 CALLDATALOAD PUSH1 0x1 PUSH1 0x1 PUSH1 0xA0 SHL SUB AND PUSH1 0x60 DUP6 ADD MSTORE PUSH1 0x84 CALLDATALOAD PUSH1 0x80 DUP6 ADD MSTORE TIMESTAMP PUSH1 0xA0 DUP6 ADD MSTORE PUSH1 0xC0 DUP5 ADD SWAP7 SWAP1 SWAP7 MSTORE PUSH1 0xE0 DUP4 ADD MSTORE PUSH2 0x100 DUP3 ADD MSTORE CALLER SWAP4 DUP2 SWAP1 SUB SWAP1 LOG3 PUSH1 0x40 MLOAD SWAP1 DUP2 MSTORE RETURN JUMPDEST PUSH1 0x1 PUSH1 0x1 PUSH1 0xA0 SHL SUB DUP2 AND EXTCODESIZE ISZERO PUSH2 0x3B6 JUMPI PUSH1 0x40 MLOAD PUSH4 0x782A7805 PUSH1 0xE1 SHL DUP2 MSTORE DUP3 DUP2 DUP1 PUSH2 0x37DB CALLER DUP12 PUSH1 0x4 DUP5 ADD PUSH2 0x4F90 JUMP JUMPDEST SUB DUP2 DUP4 PUSH1 0x1 PUSH1 0x1 PUSH1 0xA0 SHL SUB DUP8 AND GAS CALL DUP1 ISZERO PUSH2 0x634 JUMPI SWAP1 DUP4 SWAP2 PUSH2 0x385F JUMPI JUMPDEST POP POP PUSH1 0x1 PUSH1 0x1 PUSH1 0xA0 SHL SUB DUP2 AND EXTCODESIZE ISZERO PUSH2 0x3B6 JUMPI PUSH1 0x40 MLOAD PUSH4 0xC228038D PUSH1 0xE0 SHL DUP2 MSTORE SWAP1 DUP3 SWAP1 DUP3 SWAP1 DUP2 DUP4 DUP2 PUSH2 0x3833 PUSH1 0xA4 CALLDATALOAD PUSH1 0xC4 CALLDATALOAD CALLER DUP16 PUSH1 0x4 DUP7 ADD PUSH2 0x4FA9 JUMP JUMPDEST SUB SWAP3 PUSH1 0x1 PUSH1 0x1 PUSH1 0xA0 SHL SUB AND GAS CALL DUP1 ISZERO PUSH2 0x5FC JUMPI ISZERO PUSH2 0x371B JUMPI PUSH2 0x3855 DUP3 SWAP2 PUSH2 0x4B54 JUMP JUMPDEST PUSH2 0x275 JUMPI DUP1 PUSH2 0x371B JUMP JUMPDEST PUSH2 0x3868 SWAP1 PUSH2 0x4B54 JUMP JUMPDEST PUSH2 0x3B6 JUMPI DUP2 CODESIZE PUSH2 0x37F8 JUMP JUMPDEST PUSH2 0x388C SWAP2 POP PUSH1 0x20 RETURNDATASIZE PUSH1 0x20 GT PUSH2 0x62D JUMPI PUSH2 0x61F DUP2 DUP4 PUSH2 0x4B9E JUMP JUMPDEST CODESIZE PUSH2 0x370B JUMP JUMPDEST PUSH2 0x389B SWAP1 PUSH2 0x4B54 JUMP JUMPDEST PUSH2 0x275 JUMPI DUP1 CODESIZE PUSH2 0x36D5 JUMP JUMPDEST PUSH1 0x40 MLOAD PUSH3 0x461BCD PUSH1 0xE5 SHL DUP2 MSTORE PUSH1 0x20 PUSH1 0x4 DUP3 ADD MSTORE PUSH1 0x2F PUSH1 0x24 DUP3 ADD MSTORE PUSH32 0x45503A2043726561746F72206465706F736974207472616E7366657220746F20 PUSH1 0x44 DUP3 ADD MSTORE PUSH15 0x151C99585CDD5C9E4819985A5B1959 PUSH1 0x8A SHL PUSH1 0x64 DUP3 ADD MSTORE PUSH1 0x84 SWAP1 REVERT JUMPDEST PUSH1 0x40 MLOAD PUSH3 0x461BCD PUSH1 0xE5 SHL DUP2 MSTORE PUSH1 0x20 PUSH1 0x4 DUP3 ADD MSTORE PUSH1 0x15 PUSH1 0x24 DUP3 ADD MSTORE PUSH21 0x45503A20496E73756666696369656E742050455055 PUSH1 0x58 SHL PUSH1 0x44 DUP3 ADD MSTORE PUSH1 0x64 SWAP1 REVERT JUMPDEST PUSH4 0x4E487B71 PUSH1 0xE0 SHL DUP3 MSTORE PUSH1 0x11 PUSH1 0x4 MSTORE PUSH1 0x24 DUP3 REVERT JUMPDEST PUSH2 0x3978 DUP2 DUP1 DUP1 DUP1 PUSH8 0xDE0B6B3A7640000 PUSH1 0x1 DUP1 PUSH1 0xA0 SHL SUB DUP3 SLOAD AND GAS CALL PUSH2 0x3606 PUSH2 0x4EC6 JUMP JUMPDEST PUSH1 0x7 SLOAD PUSH2 0x399A SWAP1 PUSH1 0xA4 CALLDATALOAD SWAP1 PUSH1 0x1 PUSH1 0x1 PUSH1 0xA0 SHL SUB SWAP1 DUP2 AND SWAP1 CALLER SWAP1 PUSH1 0x64 CALLDATALOAD AND PUSH2 0x4FEF JUMP JUMPDEST PUSH2 0x362F JUMP JUMPDEST PUSH4 0x4E487B71 PUSH1 0xE0 SHL PUSH1 0x0 MSTORE PUSH1 0x41 PUSH1 0x4 MSTORE PUSH1 0x24 PUSH1 0x0 REVERT JUMPDEST PUSH4 0x4E487B71 PUSH1 0xE0 SHL DUP6 MSTORE PUSH1 0x21 PUSH1 0x4 MSTORE PUSH1 0x24 DUP6 REVERT JUMPDEST ADD MLOAD SWAP1 POP CODESIZE DUP1 PUSH2 0x3410 JUMP JUMPDEST SWAP3 POP PUSH1 0x1 DUP6 ADD DUP7 MSTORE PUSH1 0x20 DUP7 KECCAK256 SWAP1 DUP7 SWAP4 JUMPDEST PUSH1 0x1F NOT DUP5 AND DUP6 LT PUSH2 0x3A28 JUMPI PUSH1 0x1 SWAP5 POP DUP4 PUSH1 0x1F NOT DUP2 AND LT PUSH2 0x3A0F JUMPI JUMPDEST POP POP POP DUP2 SHL ADD PUSH1 0x1 DUP4 ADD SSTORE PUSH2 0x3428 JUMP JUMPDEST ADD MLOAD PUSH1 0x0 NOT PUSH1 0xF8 DUP5 PUSH1 0x3 SHL AND SHR NOT AND SWAP1 SSTORE CODESIZE DUP1 DUP1 PUSH2 0x39FF JUMP JUMPDEST DUP2 DUP2 ADD MLOAD DUP4 SSTORE PUSH1 0x20 SWAP5 DUP6 ADD SWAP5 PUSH1 0x1 SWAP1 SWAP4 ADD SWAP3 SWAP1 SWAP2 ADD SWAP1 PUSH2 0x39E4 JUMP JUMPDEST PUSH2 0x3A71 SWAP1 PUSH1 0x1 DUP8 ADD DUP9 MSTORE PUSH1 0x20 DUP9 KECCAK256 PUSH1 0x1F DUP6 ADD PUSH1 0x5 SHR DUP2 ADD SWAP2 PUSH1 0x20 DUP7 LT PUSH2 0x3A77 JUMPI JUMPDEST PUSH1 0x1F ADD PUSH1 0x5 SHR ADD SWAP1 PUSH2 0x4E78 JUMP JUMPDEST CODESIZE PUSH2 0x33FA JUMP JUMPDEST SWAP1 SWAP2 POP DUP2 SWAP1 PUSH2 0x3A64 JUMP JUMPDEST PUSH4 0x4E487B71 PUSH1 0xE0 SHL DUP6 MSTORE PUSH1 0x41 PUSH1 0x4 MSTORE PUSH1 0x24 DUP6 REVERT JUMPDEST PUSH2 0xC4E0 DUP2 ADD DUP2 GT PUSH2 0x3940 JUMPI PUSH2 0xC4E0 DUP2 ADD SWAP2 PUSH2 0x32DA JUMP JUMPDEST PUSH1 0x40 MLOAD PUSH3 0x461BCD PUSH1 0xE5 SHL DUP2 MSTORE PUSH1 0x20 PUSH1 0x4 DUP3 ADD MSTORE PUSH1 0x14 PUSH1 0x24 DUP3 ADD MSTORE PUSH20 0x45503A20496E73756666696369656E7420666565 PUSH1 0x60 SHL PUSH1 0x44 DUP3 ADD MSTORE PUSH1 0x64 SWAP1 REVERT JUMPDEST POP PUSH1 0x20 DUP2 RETURNDATASIZE PUSH1 0x20 GT PUSH2 0x3B1A JUMPI JUMPDEST DUP2 PUSH2 0x3B01 PUSH1 0x20 SWAP4 DUP4 PUSH2 0x4B9E JUMP JUMPDEST DUP2 ADD SUB SLT PUSH2 0x3B6 JUMPI PUSH2 0x3B15 PUSH2 0x3273 SWAP2 PUSH2 0x4D8F JUMP JUMPDEST PUSH2 0x3269 JUMP JUMPDEST RETURNDATASIZE SWAP2 POP PUSH2 0x3AF4 JUMP JUMPDEST PUSH1 0x64 PUSH1 0x40 MLOAD PUSH3 0x461BCD PUSH1 0xE5 SHL DUP2 MSTORE PUSH1 0x20 PUSH1 0x4 DUP3 ADD MSTORE PUSH1 0x20 PUSH1 0x24 DUP3 ADD MSTORE PUSH32 0x45503A204D756C74692D6F7074696F6E206E656564732050325020746F6B656E PUSH1 0x44 DUP3 ADD MSTORE REVERT JUMPDEST PUSH1 0x64 CALLDATALOAD PUSH1 0x1 PUSH1 0x1 PUSH1 0xA0 SHL SUB AND PUSH2 0x3B7D JUMPI JUMPDEST POP PUSH2 0x3273 JUMP JUMPDEST PUSH1 0x40 MLOAD PUSH4 0x34625613 PUSH1 0xE1 SHL DUP2 MSTORE PUSH1 0x64 CALLDATALOAD PUSH1 0x1 PUSH1 0x1 PUSH1 0xA0 SHL SUB AND PUSH1 0x4 DUP3 ADD MSTORE SWAP1 PUSH1 0x20 SWAP1 DUP3 SWAP1 PUSH1 0x24 SWAP1 DUP3 SWAP1 GAS STATICCALL DUP1 ISZERO PUSH2 0x5FC JUMPI DUP3 SWAP1 PUSH2 0x3BC5 JUMPI JUMPDEST PUSH2 0x3BBF SWAP2 POP PUSH2 0x4DE1 JUMP JUMPDEST CODESIZE PUSH2 0x3B77 JUMP JUMPDEST POP PUSH1 0x20 DUP2 RETURNDATASIZE PUSH1 0x20 GT PUSH2 0x3BF8 JUMPI JUMPDEST DUP2 PUSH2 0x3BDF PUSH1 0x20 SWAP4 DUP4 PUSH2 0x4B9E JUMP JUMPDEST DUP2 ADD SUB SLT PUSH2 0x3B6 JUMPI PUSH2 0x3BF3 PUSH2 0x3BBF SWAP2 PUSH2 0x4D8F JUMP JUMPDEST PUSH2 0x3BB5 JUMP JUMPDEST RETURNDATASIZE SWAP2 POP PUSH2 0x3BD2 JUMP JUMPDEST PUSH1 0x40 MLOAD PUSH3 0x461BCD PUSH1 0xE5 SHL DUP2 MSTORE PUSH1 0x20 PUSH1 0x4 DUP3 ADD MSTORE PUSH1 0x1A PUSH1 0x24 DUP3 ADD MSTORE PUSH26 0x45503A205265736F6C7574696F6E206166746572207374616B65 PUSH1 0x30 SHL PUSH1 0x44 DUP3 ADD MSTORE PUSH1 0x64 SWAP1 REVERT JUMPDEST PUSH1 0x40 MLOAD PUSH3 0x461BCD PUSH1 0xE5 SHL DUP2 MSTORE PUSH1 0x20 PUSH1 0x4 DUP3 ADD MSTORE PUSH1 0x10 PUSH1 0x24 DUP3 ADD MSTORE PUSH16 0x22A81D1026B4B710323AB930BA34B7B7 PUSH1 0x81 SHL PUSH1 0x44 DUP3 ADD MSTORE PUSH1 0x64 SWAP1 REVERT JUMPDEST SWAP1 POP PUSH1 0x20 DUP2 RETURNDATASIZE PUSH1 0x20 GT PUSH2 0x3CA4 JUMPI JUMPDEST DUP2 PUSH2 0x3C95 PUSH1 0x20 SWAP4 DUP4 PUSH2 0x4B9E JUMP JUMPDEST DUP2 ADD SUB SLT PUSH2 0x7D2 JUMPI MLOAD CODESIZE PUSH2 0x3203 JUMP JUMPDEST RETURNDATASIZE SWAP2 POP PUSH2 0x3C88 JUMP JUMPDEST PUSH1 0x1 PUSH1 0x1 PUSH1 0xA0 SHL SUB DUP4 AND ISZERO PUSH2 0x3D07 JUMPI PUSH2 0x164 CALLDATALOAD PUSH2 0x31DF JUMPI PUSH1 0x40 MLOAD PUSH3 0x461BCD PUSH1 0xE5 SHL DUP2 MSTORE PUSH1 0x20 PUSH1 0x4 DUP3 ADD MSTORE PUSH1 0x1C PUSH1 0x24 DUP3 ADD MSTORE PUSH28 0x11540E88141C9A58D9481D1A1C995CDA1BDB19081C995C5D5A5C9959 PUSH1 0x22 SHL PUSH1 0x44 DUP3 ADD MSTORE PUSH1 0x64 SWAP1 REVERT JUMPDEST PUSH1 0x40 MLOAD PUSH3 0x461BCD PUSH1 0xE5 SHL DUP2 MSTORE PUSH1 0x20 PUSH1 0x4 DUP3 ADD MSTORE PUSH1 0x17 PUSH1 0x24 DUP3 ADD MSTORE PUSH23 0x11540E88141C9A58D94819995959081C995C5D5A5C9959 PUSH1 0x4A SHL PUSH1 0x44 DUP3 ADD MSTORE PUSH1 0x64 SWAP1 REVERT JUMPDEST PUSH1 0x40 MLOAD PUSH3 0x461BCD PUSH1 0xE5 SHL DUP2 MSTORE PUSH1 0x20 PUSH1 0x4 DUP3 ADD MSTORE PUSH1 0x13 PUSH1 0x24 DUP3 ADD MSTORE PUSH19 0x45503A20496E76616C6964206F7574636F6D65 PUSH1 0x68 SHL PUSH1 0x44 DUP3 ADD MSTORE PUSH1 0x64 SWAP1 REVERT JUMPDEST POP PUSH1 0x44 CALLDATALOAD PUSH1 0xC4 CALLDATALOAD GT ISZERO PUSH2 0x31D0 JUMP JUMPDEST PUSH1 0x40 MLOAD PUSH3 0x461BCD PUSH1 0xE5 SHL DUP2 MSTORE PUSH1 0x20 PUSH1 0x4 DUP3 ADD MSTORE PUSH1 0x13 PUSH1 0x24 DUP3 ADD MSTORE PUSH19 0x11540E88125B9D985B1A590819195C1BDCDA5D PUSH1 0x6A SHL PUSH1 0x44 DUP3 ADD MSTORE PUSH1 0x64 SWAP1 REVERT JUMPDEST PUSH1 0x40 MLOAD PUSH3 0x461BCD PUSH1 0xE5 SHL DUP2 MSTORE PUSH1 0x20 PUSH1 0x4 DUP3 ADD MSTORE PUSH1 0x11 PUSH1 0x24 DUP3 ADD MSTORE PUSH17 0x45503A20496E76616C6964207374616B65 PUSH1 0x78 SHL PUSH1 0x44 DUP3 ADD MSTORE PUSH1 0x64 SWAP1 REVERT JUMPDEST PUSH1 0x40 MLOAD PUSH3 0x461BCD PUSH1 0xE5 SHL DUP2 MSTORE PUSH1 0x20 PUSH1 0x4 DUP3 ADD MSTORE PUSH1 0x13 PUSH1 0x24 DUP3 ADD MSTORE PUSH19 0x45503A20496E76616C6964206F7074696F6E73 PUSH1 0x68 SHL PUSH1 0x44 DUP3 ADD MSTORE PUSH1 0x64 SWAP1 REVERT JUMPDEST POP PUSH1 0xA PUSH1 0x44 CALLDATALOAD GT ISZERO PUSH2 0x31B0 JUMP JUMPDEST PUSH1 0x40 MLOAD PUSH3 0x461BCD PUSH1 0xE5 SHL DUP2 MSTORE PUSH1 0x20 PUSH1 0x4 DUP3 ADD MSTORE PUSH1 0x10 PUSH1 0x24 DUP3 ADD MSTORE PUSH16 0x8AA0744092DCECC2D8D2C840D0C2E6D PUSH1 0x83 SHL PUSH1 0x44 DUP3 ADD MSTORE PUSH1 0x64 SWAP1 REVERT JUMPDEST POP PUSH1 0x20 DUP2 RETURNDATASIZE PUSH1 0x20 GT PUSH2 0x3EB6 JUMPI JUMPDEST DUP2 PUSH2 0x3E9D PUSH1 0x20 SWAP4 DUP4 PUSH2 0x4B9E JUMP JUMPDEST DUP2 ADD SUB SLT PUSH2 0x2612 JUMPI PUSH2 0x3EB1 PUSH2 0x319C SWAP2 PUSH2 0x4D8F JUMP JUMPDEST PUSH2 0x3191 JUMP JUMPDEST RETURNDATASIZE SWAP2 POP PUSH2 0x3E90 JUMP JUMPDEST POP CALLVALUE PUSH2 0x275 JUMPI DUP1 PUSH1 0x3 NOT CALLDATASIZE ADD SLT PUSH2 0x275 JUMPI PUSH1 0x7 SLOAD PUSH1 0x40 MLOAD PUSH1 0x1 PUSH1 0x1 PUSH1 0xA0 SHL SUB SWAP1 SWAP2 AND DUP2 MSTORE PUSH1 0x20 SWAP1 RETURN JUMPDEST POP CALLVALUE PUSH2 0x275 JUMPI PUSH1 0x20 DUP1 PUSH1 0x3 NOT CALLDATASIZE ADD SLT PUSH2 0x3B6 JUMPI PUSH1 0x4 CALLDATALOAD DUP1 DUP4 MSTORE PUSH1 0x1 DUP3 MSTORE PUSH1 0x40 DUP4 KECCAK256 SWAP2 PUSH1 0xE DUP4 ADD SLOAD SWAP3 PUSH1 0xFF DUP5 PUSH1 0x8 SHR AND PUSH1 0x2 DUP2 LT ISZERO PUSH2 0x40B8 JUMPI PUSH1 0xFF SWAP2 PUSH2 0x3F30 PUSH1 0x1 PUSH1 0x10 SWAP4 EQ PUSH2 0x538D JUMP JUMPDEST PUSH2 0x3F3F DUP4 PUSH1 0x11 DUP4 ADD SLOAD AND PUSH2 0x5594 JUMP JUMPDEST ADD SWAP4 PUSH2 0x3F4D DUP6 SLOAD ISZERO ISZERO PUSH2 0x55D8 JUMP JUMPDEST AND PUSH2 0x407D JUMPI PUSH1 0xD SLOAD DUP5 SWAP2 PUSH1 0x1 PUSH1 0x1 PUSH1 0xA0 SHL SUB SWAP2 DUP3 AND PUSH2 0x3F6D DUP2 ISZERO ISZERO PUSH2 0x53D1 JUMP JUMPDEST PUSH1 0x24 DUP3 DUP5 PUSH1 0xE SLOAD AND SWAP3 PUSH2 0x3F81 DUP5 ISZERO ISZERO PUSH2 0x540E JUMP JUMPDEST PUSH1 0x40 MLOAD SWAP3 DUP4 DUP1 SWAP3 PUSH4 0x4360AF3D PUSH1 0xE0 SHL DUP3 MSTORE DUP7 PUSH1 0x4 DUP4 ADD MSTORE GAS STATICCALL SWAP3 DUP4 ISZERO PUSH2 0x4072 JUMPI DUP6 SWAP4 PUSH2 0x403C JUMPI JUMPDEST POP POP SWAP1 PUSH2 0x1D79 DUP2 PUSH2 0x3FBE SWAP4 PUSH2 0x1D70 DUP3 ISZERO ISZERO PUSH2 0x544D JUMP JUMPDEST PUSH1 0xD SLOAD AND DUP4 SLOAD DUP2 EXTCODESIZE ISZERO PUSH2 0x2612 JUMPI DUP3 SWAP2 PUSH1 0x44 DUP4 SWAP3 PUSH1 0x40 MLOAD SWAP5 DUP6 SWAP4 DUP5 SWAP3 PUSH4 0xA6A22B43 PUSH1 0xE0 SHL DUP5 MSTORE PUSH1 0x4 DUP5 ADD MSTORE CALLER PUSH1 0x24 DUP5 ADD MSTORE GAS CALL DUP1 ISZERO PUSH2 0x5FC JUMPI PUSH2 0x4028 JUMPI JUMPDEST POP POP CALLER SWAP2 SLOAD SWAP1 PUSH32 0x8764C70BA5E4AE969C50093A5CB46E29238FB82E4B7EB17D22A8102996B01C8A DUP5 DUP1 LOG4 DUP1 RETURN JUMPDEST PUSH2 0x4031 SWAP1 PUSH2 0x4B54 JUMP JUMPDEST PUSH2 0x2612 JUMPI DUP3 CODESIZE PUSH2 0x3FFB JUMP JUMPDEST DUP1 SWAP3 SWAP6 POP DUP2 SWAP4 POP RETURNDATASIZE DUP4 GT PUSH2 0x406B JUMPI JUMPDEST PUSH2 0x4055 DUP2 DUP4 PUSH2 0x4B9E JUMP JUMPDEST DUP2 ADD SUB SLT PUSH2 0x7D2 JUMPI MLOAD DUP6 SWAP3 PUSH2 0x1D79 PUSH2 0x3FBE PUSH2 0x3FA8 JUMP JUMPDEST POP RETURNDATASIZE PUSH2 0x404B JUMP JUMPDEST PUSH1 0x40 MLOAD RETURNDATASIZE DUP8 DUP3 RETURNDATACOPY RETURNDATASIZE SWAP1 REVERT JUMPDEST PUSH1 0x64 SWAP1 PUSH1 0x40 MLOAD SWAP1 PUSH3 0x461BCD PUSH1 0xE5 SHL DUP3 MSTORE PUSH1 0x4 DUP3 ADD MSTORE PUSH1 0x14 PUSH1 0x24 DUP3 ADD MSTORE PUSH20 0x11540E88105B1C9958591E481C995CDBDB1D9959 PUSH1 0x62 SHL PUSH1 0x44 DUP3 ADD MSTORE REVERT JUMPDEST PUSH4 0x4E487B71 PUSH1 0xE0 SHL DUP7 MSTORE PUSH1 0x21 PUSH1 0x4 MSTORE PUSH1 0x24 DUP7 REVERT JUMPDEST POP CALLVALUE PUSH2 0x275 JUMPI PUSH1 0x20 DUP1 PUSH1 0x3 NOT CALLDATASIZE ADD SLT PUSH2 0x3B6 JUMPI PUSH1 0x4 CALLDATALOAD DUP1 DUP4 MSTORE PUSH1 0x1 DUP3 MSTORE PUSH1 0x40 DUP4 KECCAK256 SWAP2 PUSH1 0xFF PUSH1 0xC DUP5 ADD SLOAD AND PUSH1 0x5 DUP2 LT ISZERO PUSH2 0x39B5 JUMPI PUSH1 0x3 SUB PUSH2 0x43E9 JUMPI DUP2 DUP5 MSTORE PUSH1 0x2 DUP2 MSTORE PUSH1 0x40 DUP5 KECCAK256 CALLER PUSH1 0x0 MSTORE DUP2 MSTORE PUSH1 0xFF PUSH1 0x40 PUSH1 0x0 KECCAK256 SLOAD AND DUP1 ISZERO PUSH2 0x43C9 JUMPI JUMPDEST ISZERO PUSH2 0x438C JUMPI DUP4 SWAP3 DUP3 DUP6 MSTORE PUSH1 0x2 DUP3 MSTORE PUSH1 0x40 DUP6 KECCAK256 CALLER PUSH1 0x0 MSTORE DUP3 MSTORE PUSH1 0xFF PUSH1 0x40 PUSH1 0x0 KECCAK256 SLOAD AND PUSH2 0x42F1 JUMPI JUMPDEST DUP3 DUP6 MSTORE PUSH1 0x3 DUP3 MSTORE PUSH1 0x40 DUP6 KECCAK256 CALLER PUSH1 0x0 MSTORE DUP3 MSTORE PUSH1 0xFF PUSH1 0x40 PUSH1 0x0 KECCAK256 SLOAD AND PUSH2 0x4249 JUMPI JUMPDEST DUP4 ISZERO PUSH2 0x420A JUMPI PUSH1 0x7 SLOAD PUSH1 0x4 SWAP1 SWAP2 ADD SLOAD DUP6 SWAP2 PUSH1 0x1 PUSH1 0x1 PUSH1 0xA0 SHL SUB SWAP2 DUP3 AND SWAP2 AND DUP1 EXTCODESIZE ISZERO PUSH2 0x2612 JUMPI DUP6 DUP4 SWAP2 PUSH2 0x41B7 SWAP4 DUP4 PUSH1 0x40 MLOAD DUP1 SWAP7 DUP2 SWAP6 DUP3 SWAP5 PUSH4 0x164FCD7D PUSH1 0xE2 SHL DUP5 MSTORE CALLER DUP14 PUSH1 0x4 DUP7 ADD PUSH2 0x5271 JUMP JUMPDEST SUB SWAP3 GAS CALL DUP1 ISZERO PUSH2 0x5FC JUMPI PUSH2 0x41F6 JUMPI JUMPDEST POP POP PUSH32 0xF3F402280EF0A7905E124AA621B65EAEB2725C343E8B36D398ED78C29DAF285C SWAP1 PUSH1 0x40 MLOAD SWAP4 DUP5 MSTORE CALLER SWAP4 LOG3 DUP1 RETURN JUMPDEST PUSH2 0x41FF SWAP1 PUSH2 0x4B54 JUMP JUMPDEST PUSH2 0x5F8 JUMPI DUP4 CODESIZE PUSH2 0x41C6 JUMP JUMPDEST PUSH1 0x40 MLOAD PUSH3 0x461BCD PUSH1 0xE5 SHL DUP2 MSTORE PUSH1 0x4 DUP2 ADD DUP4 SWAP1 MSTORE PUSH1 0x17 PUSH1 0x24 DUP3 ADD MSTORE PUSH23 0x45503A204E6F20726566756E6420617661696C61626C65 PUSH1 0x48 SHL PUSH1 0x44 DUP3 ADD MSTORE PUSH1 0x64 SWAP1 REVERT JUMPDEST SWAP3 PUSH2 0x4280 SWAP1 DUP3 PUSH1 0x1 DUP1 PUSH1 0xA0 SHL SUB DUP1 PUSH1 0x7 SLOAD AND SWAP1 PUSH1 0x4 DUP9 ADD SLOAD AND SWAP1 PUSH1 0x40 MLOAD DUP1 DUP1 SWAP7 DUP2 SWAP5 PUSH4 0x256BA741 PUSH1 0xE0 SHL DUP4 MSTORE CALLER DUP12 PUSH1 0x4 DUP6 ADD PUSH2 0x52E2 JUMP JUMPDEST SUB SWAP2 GAS STATICCALL SWAP1 DUP2 ISZERO PUSH2 0xCF0 JUMPI DUP7 SWAP2 PUSH2 0x42C0 JUMPI JUMPDEST PUSH2 0x429C SWAP3 POP PUSH2 0x4E50 JUMP JUMPDEST SWAP3 DUP3 DUP6 MSTORE PUSH1 0x3 DUP3 MSTORE PUSH1 0x40 DUP6 KECCAK256 CALLER PUSH1 0x0 MSTORE DUP3 MSTORE PUSH1 0x40 PUSH1 0x0 KECCAK256 PUSH1 0xFF NOT DUP2 SLOAD AND SWAP1 SSTORE PUSH2 0x416C JUMP JUMPDEST SWAP1 POP DUP3 DUP3 DUP2 RETURNDATASIZE DUP4 GT PUSH2 0x42EA JUMPI JUMPDEST PUSH2 0x42D7 DUP2 DUP4 PUSH2 0x4B9E JUMP JUMPDEST DUP2 ADD SUB SLT PUSH2 0x7D2 JUMPI PUSH2 0x429C SWAP2 MLOAD SWAP1 PUSH2 0x4292 JUMP JUMPDEST POP RETURNDATASIZE PUSH2 0x42CD JUMP JUMPDEST SWAP3 POP PUSH2 0x4328 DUP2 PUSH1 0x1 DUP1 PUSH1 0xA0 SHL SUB DUP1 PUSH1 0x7 SLOAD AND SWAP1 PUSH1 0x4 DUP8 ADD SLOAD AND SWAP1 PUSH1 0x40 MLOAD DUP1 DUP1 SWAP6 DUP2 SWAP5 PUSH4 0x423E7BC1 PUSH1 0xE1 SHL DUP4 MSTORE CALLER DUP11 PUSH1 0x4 DUP6 ADD PUSH2 0x52E2 JUMP JUMPDEST SUB SWAP2 GAS STATICCALL SWAP1 DUP2 ISZERO PUSH2 0x4072 JUMPI DUP6 SWAP2 PUSH2 0x435F JUMPI JUMPDEST POP SWAP3 DUP3 DUP6 MSTORE PUSH1 0x2 DUP3 MSTORE PUSH1 0x40 DUP6 KECCAK256 CALLER PUSH1 0x0 MSTORE DUP3 MSTORE PUSH1 0x40 PUSH1 0x0 KECCAK256 PUSH1 0xFF NOT DUP2 SLOAD AND SWAP1 SSTORE PUSH2 0x414D JUMP JUMPDEST SWAP1 POP DUP2 DUP2 DUP2 RETURNDATASIZE DUP4 GT PUSH2 0x4385 JUMPI JUMPDEST PUSH2 0x4376 DUP2 DUP4 PUSH2 0x4B9E JUMP JUMPDEST DUP2 ADD SUB SLT PUSH2 0x7D2 JUMPI MLOAD CODESIZE PUSH2 0x433A JUMP JUMPDEST POP RETURNDATASIZE PUSH2 0x436C JUMP JUMPDEST PUSH1 0x64 SWAP1 PUSH1 0x40 MLOAD SWAP1 PUSH3 0x461BCD PUSH1 0xE5 SHL DUP3 MSTORE PUSH1 0x4 DUP3 ADD MSTORE PUSH1 0x16 PUSH1 0x24 DUP3 ADD MSTORE PUSH22 0x11540E88139BC81CDD185AD9481D1BC81C99599D5B99 PUSH1 0x52 SHL PUSH1 0x44 DUP3 ADD MSTORE REVERT JUMPDEST POP DUP2 DUP5 MSTORE PUSH1 0x3 DUP2 MSTORE PUSH1 0x40 DUP5 KECCAK256 CALLER PUSH1 0x0 MSTORE DUP2 MSTORE PUSH1 0xFF PUSH1 0x40 PUSH1 0x0 KECCAK256 SLOAD AND PUSH2 0x4127 JUMP JUMPDEST PUSH1 0x64 SWAP1 PUSH1 0x40 MLOAD SWAP1 PUSH3 0x461BCD PUSH1 0xE5 SHL DUP3 MSTORE PUSH1 0x4 DUP3 ADD MSTORE PUSH1 0x18 PUSH1 0x24 DUP3 ADD MSTORE PUSH24 0x11540E8813585C9AD95D081B9BDD0818D85B98D95B1B1959 PUSH1 0x42 SHL PUSH1 0x44 DUP3 ADD MSTORE REVERT JUMPDEST POP CALLVALUE PUSH2 0x275 JUMPI PUSH1 0x20 CALLDATASIZE PUSH1 0x3 NOT ADD SLT PUSH2 0x275 JUMPI PUSH1 0x4 CALLDATALOAD DUP1 DUP3 MSTORE PUSH1 0x1 PUSH1 0x20 MSTORE PUSH1 0x40 DUP3 KECCAK256 PUSH1 0xFF PUSH1 0xE DUP3 ADD SLOAD PUSH1 0x8 SHR AND PUSH1 0x2 DUP2 LT ISZERO PUSH2 0x3A2 JUMPI SWAP1 PUSH2 0x446C PUSH1 0x1 PUSH1 0x10 SWAP4 EQ PUSH2 0x538D JUMP JUMPDEST PUSH2 0x447C PUSH1 0xFF PUSH1 0x11 DUP4 ADD SLOAD AND PUSH2 0x5594 JUMP JUMPDEST ADD DUP3 DUP2 SLOAD PUSH2 0x448B DUP2 ISZERO ISZERO PUSH2 0x55D8 JUMP JUMPDEST PUSH1 0xD SLOAD PUSH1 0x1 PUSH1 0x1 PUSH1 0xA0 SHL SUB AND SWAP1 DUP2 EXTCODESIZE ISZERO PUSH2 0x2612 JUMPI DUP3 SWAP2 PUSH1 0x24 DUP4 SWAP3 PUSH1 0x40 MLOAD SWAP5 DUP6 SWAP4 DUP5 SWAP3 PUSH4 0x4124BEEF PUSH1 0xE0 SHL DUP5 MSTORE PUSH1 0x4 DUP5 ADD MSTORE GAS CALL DUP1 ISZERO PUSH2 0x5FC JUMPI PUSH2 0x44F4 JUMPI JUMPDEST POP POP SLOAD SWAP1 PUSH32 0x49C1C3ECA1FFDB1B59F7205CE06F2461ACE420050F9AD1B4B6B55F4A0F2E526 DUP4 DUP1 LOG3 DUP1 RETURN JUMPDEST PUSH2 0x44FD SWAP1 PUSH2 0x4B54 JUMP JUMPDEST PUSH2 0x2612 JUMPI DUP3 CODESIZE PUSH2 0x44C9 JUMP JUMPDEST POP CALLVALUE PUSH2 0x275 JUMPI DUP1 PUSH1 0x3 NOT CALLDATASIZE ADD SLT PUSH2 0x275 JUMPI PUSH1 0x20 PUSH1 0x40 MLOAD PUSH2 0x1F4 DUP2 MSTORE RETURN JUMPDEST POP CALLVALUE PUSH2 0x275 JUMPI PUSH1 0x40 CALLDATASIZE PUSH1 0x3 NOT ADD SLT PUSH2 0x275 JUMPI PUSH2 0x160A SWAP1 PUSH1 0x20 PUSH2 0x4545 PUSH2 0x4AAA JUMP JUMPDEST PUSH1 0x1 DUP1 PUSH1 0xA0 SHL SUB PUSH1 0x7 SLOAD AND PUSH1 0x40 MLOAD DUP1 DUP1 SWAP7 DUP2 SWAP5 PUSH4 0x4F44289D PUSH1 0xE0 SHL DUP4 MSTORE PUSH1 0x4 CALLDATALOAD PUSH1 0x4 DUP5 ADD PUSH2 0x4F90 JUMP JUMPDEST POP CALLVALUE PUSH2 0x275 JUMPI DUP1 PUSH1 0x3 NOT CALLDATASIZE ADD SLT PUSH2 0x275 JUMPI PUSH1 0x20 PUSH1 0x9 SLOAD PUSH1 0x40 MLOAD SWAP1 DUP2 MSTORE RETURN JUMPDEST POP CALLVALUE PUSH2 0x275 JUMPI PUSH1 0x20 DUP1 PUSH1 0x3 NOT CALLDATASIZE ADD SLT PUSH2 0x3B6 JUMPI PUSH1 0x4 CALLDATALOAD DUP1 DUP4 MSTORE PUSH1 0x1 DUP3 MSTORE PUSH1 0x40 DUP4 KECCAK256 PUSH1 0x3 DUP4 MSTORE PUSH1 0x40 DUP5 KECCAK256 CALLER DUP6 MSTORE DUP4 MSTORE PUSH2 0x45CA PUSH1 0xFF PUSH1 0x40 DUP7 KECCAK256 SLOAD AND PUSH2 0x5299 JUMP JUMPDEST PUSH1 0xFF PUSH1 0xC DUP3 ADD SLOAD AND PUSH1 0x5 DUP2 LT ISZERO PUSH2 0x39B5 JUMPI DUP1 PUSH2 0x475E JUMPI POP PUSH1 0x9 DUP2 ADD SLOAD PUSH2 0xA8BF NOT DUP2 ADD SWAP1 DUP2 GT PUSH2 0x474A JUMPI TIMESTAMP LT ISZERO PUSH2 0x46EA JUMPI JUMPDEST DUP4 PUSH1 0x1 DUP1 PUSH1 0xA0 SHL SUB PUSH1 0x4 DUP2 PUSH1 0x7 SLOAD AND SWAP4 ADD SLOAD AND SWAP2 PUSH1 0x40 MLOAD SWAP1 PUSH4 0x256BA741 PUSH1 0xE0 SHL DUP3 MSTORE DUP6 DUP3 DUP1 PUSH2 0x462F DUP8 CALLER DUP11 PUSH1 0x4 DUP6 ADD PUSH2 0x52E2 JUMP JUMPDEST SUB DUP2 DUP5 GAS STATICCALL SWAP2 DUP3 ISZERO PUSH2 0x634 JUMPI DUP4 SWAP3 PUSH2 0x46BB JUMPI JUMPDEST POP PUSH2 0x464E DUP3 ISZERO ISZERO PUSH2 0x5299 JUMP JUMPDEST DUP1 EXTCODESIZE ISZERO PUSH2 0x2612 JUMPI PUSH2 0x4678 SWAP4 DUP4 PUSH1 0x40 MLOAD DUP1 SWAP7 DUP2 SWAP6 DUP3 SWAP5 PUSH4 0x17BE0B2F PUSH1 0xE1 SHL DUP5 MSTORE CALLER DUP12 PUSH1 0x4 DUP7 ADD PUSH2 0x5271 JUMP JUMPDEST SUB SWAP3 GAS CALL DUP1 ISZERO PUSH2 0x1E75 JUMPI PUSH2 0x46A8 JUMPI JUMPDEST POP DUP3 MSTORE PUSH1 0x3 DUP2 MSTORE PUSH1 0x40 DUP3 KECCAK256 SWAP1 CALLER PUSH1 0x0 MSTORE MSTORE PUSH1 0x40 PUSH1 0x0 KECCAK256 PUSH1 0xFF NOT DUP2 SLOAD AND SWAP1 SSTORE DUP1 RETURN JUMPDEST PUSH2 0x46B4 SWAP1 SWAP4 SWAP2 SWAP4 PUSH2 0x4B54 JUMP JUMPDEST SWAP2 CODESIZE PUSH2 0x4687 JUMP JUMPDEST SWAP1 SWAP2 POP DUP6 DUP2 DUP2 RETURNDATASIZE DUP4 GT PUSH2 0x46E3 JUMPI JUMPDEST PUSH2 0x46D3 DUP2 DUP4 PUSH2 0x4B9E JUMP JUMPDEST DUP2 ADD SUB SLT PUSH2 0x2612 JUMPI MLOAD SWAP1 CODESIZE PUSH2 0x4642 JUMP JUMPDEST POP RETURNDATASIZE PUSH2 0x46C9 JUMP JUMPDEST PUSH1 0x40 MLOAD PUSH3 0x461BCD PUSH1 0xE5 SHL DUP2 MSTORE PUSH1 0x4 DUP2 ADD DUP5 SWAP1 MSTORE PUSH1 0x32 PUSH1 0x24 DUP3 ADD MSTORE PUSH32 0x45503A2043616E6E6F742077697468647261772077697468696E20313220686F PUSH1 0x44 DUP3 ADD MSTORE PUSH18 0x1D5C9CC81BD9881CDD185ADA5B99C8195B99 PUSH1 0x72 SHL PUSH1 0x64 DUP3 ADD MSTORE PUSH1 0x84 SWAP1 REVERT JUMPDEST PUSH4 0x4E487B71 PUSH1 0xE0 SHL DUP6 MSTORE PUSH1 0x11 PUSH1 0x4 MSTORE PUSH1 0x24 DUP6 REVERT JUMPDEST PUSH1 0x4 DUP2 EQ SWAP1 DUP2 ISZERO PUSH2 0x47C8 JUMPI JUMPDEST POP PUSH2 0x45FB JUMPI PUSH1 0x40 MLOAD PUSH3 0x461BCD PUSH1 0xE5 SHL DUP2 MSTORE PUSH1 0x4 DUP2 ADD DUP5 SWAP1 MSTORE PUSH1 0x2B PUSH1 0x24 DUP3 ADD MSTORE PUSH32 0x45503A2043616E6E6F7420776974686472617720696E2063757272656E74206D PUSH1 0x44 DUP3 ADD MSTORE PUSH11 0x61726B6574207374617465 PUSH1 0xA8 SHL PUSH1 0x64 DUP3 ADD MSTORE PUSH1 0x84 SWAP1 REVERT JUMPDEST PUSH1 0x3 SWAP2 POP EQ CODESIZE PUSH2 0x476A JUMP JUMPDEST POP CALLVALUE PUSH2 0x275 JUMPI PUSH1 0x20 CALLDATASIZE PUSH1 0x3 NOT ADD SLT PUSH2 0x275 JUMPI PUSH1 0x4 CALLDATALOAD SWAP1 PUSH1 0xA SLOAD DUP3 LT ISZERO PUSH2 0x275 JUMPI PUSH1 0x20 PUSH2 0x2760 DUP4 PUSH2 0x4B0B JUMP JUMPDEST POP CALLVALUE PUSH2 0x275 JUMPI PUSH1 0x40 CALLDATASIZE PUSH1 0x3 NOT ADD SLT PUSH2 0x275 JUMPI PUSH1 0xFF PUSH1 0x40 PUSH1 0x20 SWAP3 PUSH2 0x481F PUSH2 0x4AAA JUMP JUMPDEST PUSH1 0x4 CALLDATALOAD DUP3 MSTORE PUSH1 0x2 DUP6 MSTORE DUP3 DUP3 KECCAK256 PUSH1 0x1 PUSH1 0x1 PUSH1 0xA0 SHL SUB SWAP1 SWAP2 AND DUP3 MSTORE DUP5 MSTORE KECCAK256 SLOAD PUSH1 0x40 MLOAD SWAP2 AND ISZERO ISZERO DUP2 MSTORE RETURN JUMPDEST POP CALLVALUE PUSH2 0x275 JUMPI DUP1 PUSH1 0x3 NOT CALLDATASIZE ADD SLT PUSH2 0x275 JUMPI PUSH1 0x20 PUSH1 0x40 MLOAD PUSH8 0xDE0B6B3A7640000 DUP2 MSTORE RETURN JUMPDEST POP CALLVALUE PUSH2 0x275 JUMPI PUSH1 0x40 CALLDATASIZE PUSH1 0x3 NOT ADD SLT PUSH2 0x275 JUMPI PUSH1 0xFF PUSH1 0x40 PUSH1 0x20 SWAP3 PUSH2 0x488B PUSH2 0x4AAA JUMP JUMPDEST PUSH1 0x4 CALLDATALOAD DUP3 MSTORE PUSH1 0x3 DUP6 MSTORE DUP3 DUP3 KECCAK256 PUSH1 0x1 PUSH1 0x1 PUSH1 0xA0 SHL SUB SWAP1 SWAP2 AND DUP3 MSTORE DUP5 MSTORE KECCAK256 SLOAD PUSH1 0x40 MLOAD SWAP2 AND ISZERO ISZERO DUP2 MSTORE RETURN JUMPDEST POP CALLVALUE PUSH2 0x275 JUMPI PUSH2 0x48F6 PUSH1 0x20 PUSH2 0x48C7 CALLDATASIZE PUSH2 0x4AD6 JUMP JUMPDEST PUSH1 0x7 SLOAD PUSH1 0x40 MLOAD PUSH4 0x256BA741 PUSH1 0xE0 SHL DUP2 MSTORE SWAP6 DUP7 SWAP5 PUSH1 0x1 PUSH1 0x1 PUSH1 0xA0 SHL SUB SWAP1 SWAP3 AND SWAP4 DUP6 SWAP4 DUP5 SWAP4 SWAP1 SWAP2 SWAP1 PUSH1 0x4 DUP6 ADD PUSH2 0x52E2 JUMP JUMPDEST SUB SWAP2 GAS STATICCALL SWAP1 DUP2 ISZERO PUSH2 0x5FC JUMPI DUP3 SWAP2 PUSH2 0x4913 JUMPI JUMPDEST PUSH1 0x20 DUP3 PUSH1 0x40 MLOAD SWAP1 DUP2 MSTORE RETURN JUMPDEST SWAP1 POP PUSH1 0x20 DUP2 RETURNDATASIZE DUP3 GT PUSH2 0x4940 JUMPI JUMPDEST DUP2 PUSH2 0x492D PUSH1 0x20 SWAP4 DUP4 PUSH2 0x4B9E JUMP JUMPDEST DUP2 ADD SUB SLT PUSH2 0x3B6 JUMPI PUSH1 0x20 SWAP2 POP MLOAD CODESIZE PUSH2 0x4908 JUMP JUMPDEST RETURNDATASIZE SWAP2 POP PUSH2 0x4920 JUMP JUMPDEST POP CALLVALUE PUSH2 0x275 JUMPI DUP1 PUSH1 0x3 NOT CALLDATASIZE ADD SLT PUSH2 0x275 JUMPI PUSH1 0xD SLOAD PUSH1 0x40 MLOAD PUSH1 0x1 PUSH1 0x1 PUSH1 0xA0 SHL SUB SWAP1 SWAP2 AND DUP2 MSTORE PUSH1 0x20 SWAP1 RETURN JUMPDEST POP CALLVALUE PUSH2 0x275 JUMPI DUP1 PUSH1 0x3 NOT CALLDATASIZE ADD SLT PUSH2 0x275 JUMPI PUSH1 0xE SLOAD PUSH1 0x40 MLOAD PUSH1 0x1 PUSH1 0x1 PUSH1 0xA0 SHL SUB SWAP1 SWAP2 AND DUP2 MSTORE PUSH1 0x20 SWAP1 RETURN JUMPDEST POP CALLVALUE PUSH2 0x275 JUMPI PUSH1 0x20 CALLDATASIZE PUSH1 0x3 NOT ADD SLT PUSH2 0x275 JUMPI PUSH1 0x4 CALLDATALOAD DUP1 DUP3 MSTORE PUSH1 0x1 PUSH1 0x20 MSTORE PUSH1 0x40 DUP3 KECCAK256 PUSH1 0xC DUP2 ADD SWAP1 DUP2 SLOAD SWAP1 PUSH1 0xFF DUP3 AND PUSH1 0x5 DUP2 LT ISZERO PUSH2 0x40B8 JUMPI SWAP1 PUSH2 0x49DD PUSH1 0xA SWAP3 ISZERO PUSH2 0x50CE JUMP JUMPDEST ADD SLOAD TIMESTAMP LT PUSH2 0x4A0F JUMPI PUSH1 0xFF NOT AND PUSH1 0x1 OR SWAP1 SSTORE DUP1 DUP3 MSTORE PUSH1 0xB PUSH1 0x20 MSTORE PUSH1 0x40 DUP3 KECCAK256 SLOAD PUSH1 0xFF AND PUSH2 0x4A06 JUMPI POP DUP1 RETURN JUMPDEST PUSH2 0x2038 SWAP1 PUSH2 0x5BE8 JUMP JUMPDEST PUSH1 0x40 MLOAD PUSH3 0x461BCD PUSH1 0xE5 SHL DUP2 MSTORE PUSH1 0x20 PUSH1 0x4 DUP3 ADD MSTORE PUSH1 0x1F PUSH1 0x24 DUP3 ADD MSTORE PUSH32 0x45503A205265736F6C7574696F6E2074696D65206E6F74207265616368656400 PUSH1 0x44 DUP3 ADD MSTORE PUSH1 0x64 SWAP1 REVERT JUMPDEST POP CALLVALUE PUSH2 0x275 JUMPI PUSH1 0x20 CALLDATASIZE PUSH1 0x3 NOT ADD SLT PUSH2 0x275 JUMPI PUSH1 0xFF PUSH1 0x40 PUSH1 0x20 SWAP3 PUSH1 0x4 CALLDATALOAD DUP2 MSTORE PUSH1 0xB DUP5 MSTORE KECCAK256 SLOAD AND PUSH1 0x40 MLOAD SWAP1 ISZERO ISZERO DUP2 MSTORE RETURN JUMPDEST SWAP1 POP CALLVALUE PUSH2 0x3B6 JUMPI PUSH1 0x20 CALLDATASIZE PUSH1 0x3 NOT ADD SLT PUSH2 0x3B6 JUMPI PUSH1 0x40 PUSH1 0x20 SWAP3 PUSH1 0x4 CALLDATALOAD DUP2 MSTORE PUSH1 0x5 DUP5 MSTORE KECCAK256 SLOAD DUP2 MSTORE RETURN JUMPDEST PUSH1 0x24 CALLDATALOAD SWAP1 PUSH1 0x1 PUSH1 0x1 PUSH1 0xA0 SHL SUB DUP3 AND DUP3 SUB PUSH2 0x7D2 JUMPI JUMP JUMPDEST PUSH1 0x4 CALLDATALOAD SWAP1 PUSH1 0x1 PUSH1 0x1 PUSH1 0xA0 SHL SUB DUP3 AND DUP3 SUB PUSH2 0x7D2 JUMPI JUMP JUMPDEST PUSH1 0x60 SWAP1 PUSH1 0x3 NOT ADD SLT PUSH2 0x7D2 JUMPI PUSH1 0x4 CALLDATALOAD SWAP1 PUSH1 0x1 PUSH1 0x1 PUSH1 0xA0 SHL SUB SWAP1 PUSH1 0x24 CALLDATALOAD DUP3 DUP2 AND DUP2 SUB PUSH2 0x7D2 JUMPI SWAP2 PUSH1 0x44 CALLDATALOAD SWAP1 DUP2 AND DUP2 SUB PUSH2 0x7D2 JUMPI SWAP1 JUMP JUMPDEST PUSH1 0xA SLOAD DUP2 LT ISZERO PUSH2 0x4B26 JUMPI PUSH1 0xA PUSH1 0x0 MSTORE PUSH1 0x20 PUSH1 0x0 KECCAK256 ADD SWAP1 PUSH1 0x0 SWAP1 JUMP JUMPDEST PUSH4 0x4E487B71 PUSH1 0xE0 SHL PUSH1 0x0 MSTORE PUSH1 0x32 PUSH1 0x4 MSTORE PUSH1 0x24 PUSH1 0x0 REVERT JUMPDEST DUP1 SLOAD DUP3 LT ISZERO PUSH2 0x4B26 JUMPI PUSH1 0x0 MSTORE PUSH1 0x20 PUSH1 0x0 KECCAK256 ADD SWAP1 PUSH1 0x0 SWAP1 JUMP JUMPDEST PUSH1 0x1 PUSH1 0x1 PUSH1 0x40 SHL SUB DUP2 GT PUSH2 0x399F JUMPI PUSH1 0x40 MSTORE JUMP JUMPDEST PUSH2 0x280 DUP2 ADD SWAP1 DUP2 LT PUSH1 0x1 PUSH1 0x1 PUSH1 0x40 SHL SUB DUP3 GT OR PUSH2 0x399F JUMPI PUSH1 0x40 MSTORE JUMP JUMPDEST PUSH1 0x40 DUP2 ADD SWAP1 DUP2 LT PUSH1 0x1 PUSH1 0x1 PUSH1 0x40 SHL SUB DUP3 GT OR PUSH2 0x399F JUMPI PUSH1 0x40 MSTORE JUMP JUMPDEST PUSH1 0x1F SWAP1 SWAP2 ADD PUSH1 0x1F NOT AND DUP2 ADD SWAP1 PUSH1 0x1 PUSH1 0x1 PUSH1 0x40 SHL SUB DUP3 GT SWAP1 DUP3 LT OR PUSH2 0x399F JUMPI PUSH1 0x40 MSTORE JUMP JUMPDEST PUSH1 0x1 PUSH1 0x1 PUSH1 0x40 SHL SUB DUP2 GT PUSH2 0x399F JUMPI PUSH1 0x1F ADD PUSH1 0x1F NOT AND PUSH1 0x20 ADD SWAP1 JUMP JUMPDEST SWAP3 SWAP2 SWAP3 PUSH2 0x4BE8 DUP3 PUSH2 0x4BC1 JUMP JUMPDEST SWAP2 PUSH2 0x4BF6 PUSH1 0x40 MLOAD SWAP4 DUP5 PUSH2 0x4B9E JUMP JUMPDEST DUP3 SWAP5 DUP2 DUP5 MSTORE DUP2 DUP4 ADD GT PUSH2 0x7D2 JUMPI DUP3 DUP2 PUSH1 0x20 SWAP4 DUP5 PUSH1 0x0 SWAP7 ADD CALLDATACOPY ADD ADD MSTORE JUMP JUMPDEST SWAP1 PUSH1 0x1 DUP3 DUP2 SHR SWAP3 AND DUP1 ISZERO PUSH2 0x4C43 JUMPI JUMPDEST PUSH1 0x20 DUP4 LT EQ PUSH2 0x4C2D JUMPI JUMP JUMPDEST PUSH4 0x4E487B71 PUSH1 0xE0 SHL PUSH1 0x0 MSTORE PUSH1 0x22 PUSH1 0x4 MSTORE PUSH1 0x24 PUSH1 0x0 REVERT JUMPDEST SWAP2 PUSH1 0x7F AND SWAP2 PUSH2 0x4C22 JUMP JUMPDEST SWAP1 PUSH1 0x40 MLOAD SWAP2 DUP3 PUSH1 0x0 DUP3 SLOAD SWAP3 PUSH2 0x4C61 DUP5 PUSH2 0x4C13 JUMP JUMPDEST SWAP1 DUP2 DUP5 MSTORE PUSH1 0x1 SWAP5 DUP6 DUP2 AND SWAP1 DUP2 PUSH1 0x0 EQ PUSH2 0x4CD0 JUMPI POP PUSH1 0x1 EQ PUSH2 0x4C8D JUMPI JUMPDEST POP POP PUSH2 0x4C8B SWAP3 POP SUB DUP4 PUSH2 0x4B9E JUMP JUMPDEST JUMP JUMPDEST SWAP1 SWAP4 SWAP2 POP PUSH1 0x0 MSTORE PUSH1 0x20 SWAP1 DUP2 PUSH1 0x0 KECCAK256 SWAP4 PUSH1 0x0 SWAP2 JUMPDEST DUP2 DUP4 LT PUSH2 0x4CB8 JUMPI POP POP PUSH2 0x4C8B SWAP4 POP DUP3 ADD ADD CODESIZE DUP1 PUSH2 0x4C7D JUMP JUMPDEST DUP6 SLOAD DUP9 DUP5 ADD DUP6 ADD MSTORE SWAP5 DUP6 ADD SWAP5 DUP8 SWAP5 POP SWAP2 DUP4 ADD SWAP2 PUSH2 0x4CA0 JUMP JUMPDEST SWAP2 POP POP PUSH2 0x4C8B SWAP5 POP PUSH1 0x20 SWAP3 POP PUSH1 0xFF NOT AND DUP3 DUP5 ADD MSTORE ISZERO ISZERO PUSH1 0x5 SHL DUP3 ADD ADD CODESIZE DUP1 PUSH2 0x4C7D JUMP JUMPDEST SWAP2 SWAP1 DUP3 MLOAD SWAP3 DUP4 DUP3 MSTORE PUSH1 0x0 JUMPDEST DUP5 DUP2 LT PUSH2 0x4D1F JUMPI POP POP DUP3 PUSH1 0x0 PUSH1 0x20 DUP1 SWAP5 SWAP6 DUP5 ADD ADD MSTORE PUSH1 0x1F DUP1 NOT SWAP2 ADD AND ADD ADD SWAP1 JUMP JUMPDEST PUSH1 0x20 DUP2 DUP4 ADD DUP2 ADD MLOAD DUP5 DUP4 ADD DUP3 ADD MSTORE ADD PUSH2 0x4CFE JUMP JUMPDEST SWAP1 PUSH1 0x5 DUP3 LT ISZERO PUSH2 0x1955 JUMPI MSTORE JUMP JUMPDEST SWAP1 PUSH1 0x2 DUP3 LT ISZERO PUSH2 0x1955 JUMPI MSTORE JUMP JUMPDEST PUSH1 0x40 SWAP1 PUSH1 0x3 NOT ADD SLT PUSH2 0x7D2 JUMPI PUSH1 0x4 CALLDATALOAD SWAP1 PUSH1 0x24 CALLDATALOAD SWAP1 JUMP JUMPDEST PUSH1 0x0 SLOAD PUSH1 0x1 PUSH1 0x1 PUSH1 0xA0 SHL SUB AND CALLER SUB PUSH2 0x4D77 JUMPI JUMP JUMPDEST PUSH1 0x40 MLOAD PUSH4 0x118CDAA7 PUSH1 0xE0 SHL DUP2 MSTORE CALLER PUSH1 0x4 DUP3 ADD MSTORE PUSH1 0x24 SWAP1 REVERT JUMPDEST MLOAD SWAP1 DUP2 ISZERO ISZERO DUP3 SUB PUSH2 0x7D2 JUMPI JUMP JUMPDEST ISZERO PUSH2 0x4DA3 JUMPI JUMP JUMPDEST PUSH1 0x40 MLOAD PUSH3 0x461BCD PUSH1 0xE5 SHL DUP2 MSTORE PUSH1 0x20 PUSH1 0x4 DUP3 ADD MSTORE PUSH1 0x16 PUSH1 0x24 DUP3 ADD MSTORE PUSH22 0x11540E8815D85B1B195D08189B1858DADB1A5CDD1959 PUSH1 0x52 SHL PUSH1 0x44 DUP3 ADD MSTORE PUSH1 0x64 SWAP1 REVERT JUMPDEST ISZERO PUSH2 0x4DE8 JUMPI JUMP JUMPDEST PUSH1 0x40 MLOAD PUSH3 0x461BCD PUSH1 0xE5 SHL DUP2 MSTORE PUSH1 0x20 PUSH1 0x4 DUP3 ADD MSTORE PUSH1 0x17 PUSH1 0x24 DUP3 ADD MSTORE PUSH23 0x11540E88151BDAD95B881B9BDD081CDD5C1C1BDC9D1959 PUSH1 0x4A SHL PUSH1 0x44 DUP3 ADD MSTORE PUSH1 0x64 SWAP1 REVERT JUMPDEST DUP2 DUP2 MUL SWAP3 SWAP2 DUP2 ISZERO SWAP2 DUP5 DIV EQ OR ISZERO PUSH2 0x4E3A JUMPI JUMP JUMPDEST PUSH4 0x4E487B71 PUSH1 0xE0 SHL PUSH1 0x0 MSTORE PUSH1 0x11 PUSH1 0x4 MSTORE PUSH1 0x24 PUSH1 0x0 REVERT JUMPDEST SWAP2 SWAP1 DUP3 ADD DUP1 SWAP3 GT PUSH2 0x4E3A JUMPI JUMP JUMPDEST PUSH1 0x0 NOT DUP2 EQ PUSH2 0x4E3A JUMPI PUSH1 0x1 ADD SWAP1 JUMP JUMPDEST PUSH1 0x2 DUP3 LT ISZERO PUSH2 0x1955 JUMPI MSTORE JUMP JUMPDEST DUP2 DUP2 LT PUSH2 0x4E83 JUMPI POP POP JUMP JUMPDEST PUSH1 0x0 DUP2 SSTORE PUSH1 0x1 ADD PUSH2 0x4E78 JUMP JUMPDEST SWAP1 PUSH1 0xFF DUP1 NOT DUP4 SLOAD AND SWAP2 ISZERO ISZERO AND OR SWAP1 SSTORE JUMP JUMPDEST DUP1 SLOAD SWAP1 PUSH1 0x1 PUSH1 0x40 SHL DUP3 LT ISZERO PUSH2 0x399F JUMPI DUP2 PUSH2 0x3580 SWAP2 PUSH1 0x1 PUSH2 0x4EC2 SWAP5 ADD DUP2 SSTORE PUSH2 0x4B3C JUMP JUMPDEST SWAP1 SSTORE JUMP JUMPDEST RETURNDATASIZE ISZERO PUSH2 0x4EF1 JUMPI RETURNDATASIZE SWAP1 PUSH2 0x4ED7 DUP3 PUSH2 0x4BC1 JUMP JUMPDEST SWAP2 PUSH2 0x4EE5 PUSH1 0x40 MLOAD SWAP4 DUP5 PUSH2 0x4B9E JUMP JUMPDEST DUP3 MSTORE RETURNDATASIZE PUSH1 0x0 PUSH1 0x20 DUP5 ADD RETURNDATACOPY JUMP JUMPDEST PUSH1 0x60 SWAP1 JUMP JUMPDEST ISZERO PUSH2 0x4EFD JUMPI JUMP JUMPDEST PUSH1 0x64 PUSH1 0x40 MLOAD PUSH3 0x461BCD PUSH1 0xE5 SHL DUP2 MSTORE PUSH1 0x20 PUSH1 0x4 DUP3 ADD MSTORE PUSH1 0x20 PUSH1 0x24 DUP3 ADD MSTORE PUSH32 0x45503A20466565207472616E7366657220746F206F776E6572206661696C6564 PUSH1 0x44 DUP3 ADD MSTORE REVERT JUMPDEST SWAP1 DUP2 MSTORE PUSH1 0x1 PUSH1 0x1 PUSH1 0xA0 SHL SUB SWAP2 DUP3 AND PUSH1 0x20 DUP3 ADD MSTORE SWAP2 AND PUSH1 0x40 DUP3 ADD MSTORE PUSH1 0x60 DUP2 ADD SWAP2 SWAP1 SWAP2 MSTORE PUSH1 0x80 DUP2 ADD SWAP2 SWAP1 SWAP2 MSTORE PUSH1 0xA0 ADD SWAP1 JUMP JUMPDEST SWAP1 DUP2 PUSH1 0x20 SWAP2 SUB SLT PUSH2 0x7D2 JUMPI MLOAD PUSH1 0x1 PUSH1 0x1 PUSH1 0xA0 SHL SUB DUP2 AND DUP2 SUB PUSH2 0x7D2 JUMPI SWAP1 JUMP JUMPDEST SWAP1 DUP2 MSTORE PUSH1 0x1 PUSH1 0x1 PUSH1 0xA0 SHL SUB SWAP1 SWAP2 AND PUSH1 0x20 DUP3 ADD MSTORE PUSH1 0x40 ADD SWAP1 JUMP JUMPDEST SWAP1 SWAP5 SWAP4 SWAP3 PUSH1 0x60 SWAP3 PUSH1 0x80 DUP4 ADD SWAP7 DUP4 MSTORE PUSH1 0x1 DUP1 PUSH1 0xA0 SHL SUB AND PUSH1 0x20 DUP4 ADD MSTORE PUSH1 0x40 DUP3 ADD MSTORE ADD MSTORE JUMP JUMPDEST PUSH1 0x1 PUSH1 0x1 PUSH1 0xA0 SHL SUB SWAP2 DUP3 AND DUP2 MSTORE SWAP2 AND PUSH1 0x20 DUP3 ADD MSTORE PUSH1 0x40 DUP2 ADD SWAP2 SWAP1 SWAP2 MSTORE PUSH1 0x60 ADD SWAP1 JUMP JUMPDEST SWAP1 PUSH2 0x5025 SWAP1 PUSH2 0x5017 PUSH2 0x4C8B SWAP6 PUSH1 0x40 MLOAD SWAP6 DUP7 SWAP4 PUSH4 0x23B872DD PUSH1 0xE0 SHL PUSH1 0x20 DUP7 ADD MSTORE PUSH1 0x24 DUP6 ADD PUSH2 0x4FCD JUMP JUMPDEST SUB PUSH1 0x1F NOT DUP2 ADD DUP5 MSTORE DUP4 PUSH2 0x4B9E JUMP JUMPDEST SWAP1 PUSH1 0x0 PUSH1 0x20 SWAP2 DUP3 DUP2 MLOAD SWAP2 ADD DUP3 DUP6 GAS CALL ISZERO PUSH2 0x5081 JUMPI PUSH1 0x0 MLOAD RETURNDATASIZE PUSH2 0x5078 JUMPI POP PUSH1 0x1 PUSH1 0x1 PUSH1 0xA0 SHL SUB DUP2 AND EXTCODESIZE ISZERO JUMPDEST PUSH2 0x5056 JUMPI POP JUMP JUMPDEST PUSH1 0x40 MLOAD PUSH4 0x5274AFE7 PUSH1 0xE0 SHL DUP2 MSTORE PUSH1 0x1 PUSH1 0x1 PUSH1 0xA0 SHL SUB SWAP1 SWAP2 AND PUSH1 0x4 DUP3 ADD MSTORE PUSH1 0x24 SWAP1 REVERT JUMPDEST PUSH1 0x1 EQ ISZERO PUSH2 0x504F JUMP JUMPDEST PUSH1 0x40 MLOAD RETURNDATASIZE PUSH1 0x0 DUP3 RETURNDATACOPY RETURNDATASIZE SWAP1 REVERT JUMPDEST ISZERO PUSH2 0x5094 JUMPI JUMP JUMPDEST PUSH1 0x40 MLOAD PUSH3 0x461BCD PUSH1 0xE5 SHL DUP2 MSTORE PUSH1 0x20 PUSH1 0x4 DUP3 ADD MSTORE PUSH1 0x12 PUSH1 0x24 DUP3 ADD MSTORE PUSH18 0x11540E8813585C9AD95D0819195B195D1959 PUSH1 0x72 SHL PUSH1 0x44 DUP3 ADD MSTORE PUSH1 0x64 SWAP1 REVERT JUMPDEST ISZERO PUSH2 0x50D5 JUMPI JUMP JUMPDEST PUSH1 0x40 MLOAD PUSH3 0x461BCD PUSH1 0xE5 SHL DUP2 MSTORE PUSH1 0x20 PUSH1 0x4 DUP3 ADD MSTORE PUSH1 0xE PUSH1 0x24 DUP3 ADD MSTORE PUSH14 0x45503A204E6F7420616374697665 PUSH1 0x90 SHL PUSH1 0x44 DUP3 ADD MSTORE PUSH1 0x64 SWAP1 REVERT JUMPDEST SWAP2 SWAP1 DUP3 SUB SWAP2 DUP3 GT PUSH2 0x4E3A JUMPI JUMP JUMPDEST ISZERO PUSH2 0x511F JUMPI JUMP JUMPDEST PUSH1 0x40 MLOAD PUSH3 0x461BCD PUSH1 0xE5 SHL DUP2 MSTORE PUSH1 0x20 PUSH1 0x4 DUP3 ADD MSTORE PUSH1 0x18 PUSH1 0x24 DUP3 ADD MSTORE PUSH24 0x11540E8814DD185ADA5B99C81C195C9A5BD908195B991959 PUSH1 0x42 SHL PUSH1 0x44 DUP3 ADD MSTORE PUSH1 0x64 SWAP1 REVERT JUMPDEST ISZERO PUSH2 0x5166 JUMPI JUMP JUMPDEST PUSH1 0x40 MLOAD PUSH3 0x461BCD PUSH1 0xE5 SHL DUP2 MSTORE PUSH1 0x20 PUSH1 0x4 DUP3 ADD MSTORE PUSH1 0xE PUSH1 0x24 DUP3 ADD MSTORE PUSH14 0x22A81D102130B21037B83A34B7B7 PUSH1 0x91 SHL PUSH1 0x44 DUP3 ADD MSTORE PUSH1 0x64 SWAP1 REVERT JUMPDEST ISZERO PUSH2 0x51A3 JUMPI JUMP JUMPDEST PUSH1 0x40 MLOAD PUSH3 0x461BCD PUSH1 0xE5 SHL DUP2 MSTORE PUSH1 0x20 PUSH1 0x4 DUP3 ADD MSTORE PUSH1 0xD PUSH1 0x24 DUP3 ADD MSTORE PUSH13 0x22A81D102132B637BB9036B4B7 PUSH1 0x99 SHL PUSH1 0x44 DUP3 ADD MSTORE PUSH1 0x64 SWAP1 REVERT JUMPDEST DUP1 SLOAD PUSH1 0x1 PUSH1 0x40 SHL DUP2 LT ISZERO PUSH2 0x399F JUMPI PUSH2 0x51F5 SWAP2 PUSH1 0x1 DUP3 ADD DUP2 SSTORE PUSH2 0x4B3C JUMP JUMPDEST DUP2 SWAP3 SWAP2 SLOAD SWAP1 PUSH1 0x3 SHL SWAP2 PUSH1 0x1 DUP1 PUSH1 0xA0 SHL SUB DUP1 SWAP2 AND DUP4 SHL SWAP3 SHL NOT AND OR SWAP1 SSTORE JUMP JUMPDEST ISZERO PUSH2 0x521A JUMPI JUMP JUMPDEST PUSH1 0x40 MLOAD PUSH3 0x461BCD PUSH1 0xE5 SHL DUP2 MSTORE PUSH1 0x20 PUSH1 0x4 DUP3 ADD MSTORE PUSH1 0x29 PUSH1 0x24 DUP3 ADD MSTORE PUSH32 0x45503A20537570706F727420616D6F756E74206D757374206265206772656174 PUSH1 0x44 DUP3 ADD MSTORE PUSH9 0x6572207468616E203 PUSH1 0xBC SHL PUSH1 0x64 DUP3 ADD MSTORE PUSH1 0x84 SWAP1 REVERT JUMPDEST SWAP1 DUP2 MSTORE PUSH1 0x1 PUSH1 0x1 PUSH1 0xA0 SHL SUB SWAP2 DUP3 AND PUSH1 0x20 DUP3 ADD MSTORE SWAP2 AND PUSH1 0x40 DUP3 ADD MSTORE PUSH1 0x60 DUP2 ADD SWAP2 SWAP1 SWAP2 MSTORE PUSH1 0x80 ADD SWAP1 JUMP JUMPDEST ISZERO PUSH2 0x52A0 JUMPI JUMP JUMPDEST PUSH1 0x40 MLOAD PUSH3 0x461BCD PUSH1 0xE5 SHL DUP2 MSTORE PUSH1 0x20 PUSH1 0x4 DUP3 ADD MSTORE PUSH1 0x1A PUSH1 0x24 DUP3 ADD MSTORE PUSH26 0x45503A204E6F20737570706F727420746F207769746864726177 PUSH1 0x30 SHL PUSH1 0x44 DUP3 ADD MSTORE PUSH1 0x64 SWAP1 REVERT JUMPDEST SWAP1 DUP2 MSTORE PUSH1 0x1 PUSH1 0x1 PUSH1 0xA0 SHL SUB SWAP2 DUP3 AND PUSH1 0x20 DUP3 ADD MSTORE SWAP2 AND PUSH1 0x40 DUP3 ADD MSTORE PUSH1 0x60 ADD SWAP1 JUMP JUMPDEST ISZERO PUSH2 0x5309 JUMPI JUMP JUMPDEST PUSH1 0x40 MLOAD PUSH3 0x461BCD PUSH1 0xE5 SHL DUP2 MSTORE PUSH1 0x20 PUSH1 0x4 DUP3 ADD MSTORE PUSH1 0xD PUSH1 0x24 DUP3 ADD MSTORE PUSH13 0x11540E88139BDD08195B991959 PUSH1 0x9A SHL PUSH1 0x44 DUP3 ADD MSTORE PUSH1 0x64 SWAP1 REVERT JUMPDEST ISZERO PUSH2 0x5345 JUMPI JUMP JUMPDEST PUSH1 0x40 MLOAD PUSH3 0x461BCD PUSH1 0xE5 SHL DUP2 MSTORE PUSH1 0x20 PUSH1 0x4 DUP3 ADD MSTORE PUSH1 0xC PUSH1 0x24 DUP3 ADD MSTORE PUSH12 0x11540E8814995CDBDB1D9959 PUSH1 0xA2 SHL PUSH1 0x44 DUP3 ADD MSTORE PUSH1 0x64 SWAP1 REVERT JUMPDEST MLOAD SWAP1 PUSH1 0x1 PUSH1 0x1 PUSH1 0x50 SHL SUB DUP3 AND DUP3 SUB PUSH2 0x7D2 JUMPI JUMP JUMPDEST ISZERO PUSH2 0x5394 JUMPI JUMP JUMPDEST PUSH1 0x40 MLOAD PUSH3 0x461BCD PUSH1 0xE5 SHL DUP2 MSTORE PUSH1 0x20 PUSH1 0x4 DUP3 ADD MSTORE PUSH1 0x15 PUSH1 0x24 DUP3 ADD MSTORE PUSH21 0x45503A204E6F74205032504F5054494D4953544943 PUSH1 0x58 SHL PUSH1 0x44 DUP3 ADD MSTORE PUSH1 0x64 SWAP1 REVERT JUMPDEST ISZERO PUSH2 0x53D8 JUMPI JUMP JUMPDEST PUSH1 0x40 MLOAD PUSH3 0x461BCD PUSH1 0xE5 SHL DUP2 MSTORE PUSH1 0x20 PUSH1 0x4 DUP3 ADD MSTORE PUSH1 0xE PUSH1 0x24 DUP3 ADD MSTORE PUSH14 0x11540E8813D3C81B9BDD081CD95D PUSH1 0x92 SHL PUSH1 0x44 DUP3 ADD MSTORE PUSH1 0x64 SWAP1 REVERT JUMPDEST ISZERO PUSH2 0x5415 JUMPI JUMP JUMPDEST PUSH1 0x40 MLOAD PUSH3 0x461BCD PUSH1 0xE5 SHL DUP2 MSTORE PUSH1 0x20 PUSH1 0x4 DUP3 ADD MSTORE PUSH1 0x10 PUSH1 0x24 DUP3 ADD MSTORE PUSH16 0x11540E88109BDB99081B9BDD081CD95D PUSH1 0x82 SHL PUSH1 0x44 DUP3 ADD MSTORE PUSH1 0x64 SWAP1 REVERT JUMPDEST ISZERO PUSH2 0x5454 JUMPI JUMP JUMPDEST PUSH1 0x40 MLOAD PUSH3 0x461BCD PUSH1 0xE5 SHL DUP2 MSTORE PUSH1 0x20 PUSH1 0x4 DUP3 ADD MSTORE PUSH1 0x10 PUSH1 0x24 DUP3 ADD MSTORE PUSH16 0x11540E88125B9D985B1A5908189BDB99 PUSH1 0x82 SHL PUSH1 0x44 DUP3 ADD MSTORE PUSH1 0x64 SWAP1 REVERT JUMPDEST PUSH1 0x1 PUSH1 0x1 PUSH1 0xA0 SHL SUB SWAP1 SWAP2 AND DUP2 MSTORE PUSH1 0x20 DUP2 ADD SWAP2 SWAP1 SWAP2 MSTORE PUSH1 0x40 ADD SWAP1 JUMP JUMPDEST SWAP3 SWAP2 SWAP3 PUSH1 0x40 MLOAD SWAP2 PUSH1 0x20 DUP4 ADD SWAP1 PUSH2 0x54DE DUP5 PUSH2 0x54D0 PUSH4 0x95EA7B3 PUSH1 0xE0 SHL SWAP9 DUP10 DUP7 MSTORE DUP5 PUSH1 0x24 DUP5 ADD PUSH2 0x548C JUMP JUMPDEST SUB PUSH1 0x1F NOT DUP2 ADD DUP7 MSTORE DUP6 PUSH2 0x4B9E JUMP JUMPDEST PUSH1 0x20 PUSH1 0x0 DUP1 SWAP4 DUP7 MLOAD SWAP1 DUP3 DUP8 GAS CALL DUP3 MLOAD RETURNDATASIZE DUP3 PUSH2 0x556F JUMPI JUMPDEST POP POP ISZERO PUSH2 0x5504 JUMPI JUMPDEST POP POP POP POP SWAP1 POP JUMP JUMPDEST PUSH1 0x40 MLOAD PUSH1 0x20 DUP2 ADD SWAP7 SWAP1 SWAP7 MSTORE PUSH1 0x1 PUSH1 0x1 PUSH1 0xA0 SHL SUB AND PUSH1 0x24 DUP7 ADD MSTORE PUSH1 0x44 DUP1 DUP7 ADD DUP3 SWAP1 MSTORE DUP6 MSTORE PUSH1 0x80 DUP6 ADD SWAP1 PUSH1 0x1 PUSH1 0x1 PUSH1 0x40 SHL SUB DUP3 GT DUP7 DUP4 LT OR PUSH2 0x555B JUMPI POP PUSH2 0x5551 SWAP4 SWAP5 PUSH2 0x5025 SWAP2 PUSH1 0x40 MSTORE DUP3 PUSH2 0x5025 JUMP JUMPDEST DUP1 CODESIZE DUP1 DUP1 DUP1 PUSH2 0x54FC JUMP JUMPDEST PUSH4 0x4E487B71 PUSH1 0xE0 SHL DUP2 MSTORE PUSH1 0x41 PUSH1 0x4 MSTORE PUSH1 0x24 SWAP1 REVERT JUMPDEST SWAP1 SWAP2 POP PUSH2 0x558C JUMPI POP PUSH1 0x1 PUSH1 0x1 PUSH1 0xA0 SHL SUB DUP4 AND EXTCODESIZE ISZERO ISZERO JUMPDEST CODESIZE DUP1 PUSH2 0x54F4 JUMP JUMPDEST PUSH1 0x1 EQ PUSH2 0x5585 JUMP JUMPDEST ISZERO PUSH2 0x559B JUMPI JUMP JUMPDEST PUSH1 0x40 MLOAD PUSH3 0x461BCD PUSH1 0xE5 SHL DUP2 MSTORE PUSH1 0x20 PUSH1 0x4 DUP3 ADD MSTORE PUSH1 0x15 PUSH1 0x24 DUP3 ADD MSTORE PUSH21 0x45503A204E6F20617373657274696F6E206D616465 PUSH1 0x58 SHL PUSH1 0x44 DUP3 ADD MSTORE PUSH1 0x64 SWAP1 REVERT JUMPDEST ISZERO PUSH2 0x55DF JUMPI JUMP JUMPDEST PUSH1 0x40 MLOAD PUSH3 0x461BCD PUSH1 0xE5 SHL DUP2 MSTORE PUSH1 0x20 PUSH1 0x4 DUP3 ADD MSTORE PUSH1 0x13 PUSH1 0x24 DUP3 ADD MSTORE PUSH19 0x11540E88139BC8185CDCD95C9D1A5BDB881251 PUSH1 0x6A SHL PUSH1 0x44 DUP3 ADD MSTORE PUSH1 0x64 SWAP1 REVERT JUMPDEST ISZERO PUSH2 0x5621 JUMPI JUMP JUMPDEST PUSH1 0x40 MLOAD PUSH3 0x461BCD PUSH1 0xE5 SHL DUP2 MSTORE PUSH1 0x20 PUSH1 0x4 DUP3 ADD MSTORE PUSH1 0x10 PUSH1 0x24 DUP3 ADD MSTORE PUSH16 0x11540E88139BDD081C995CDBDB1D9959 PUSH1 0x82 SHL PUSH1 0x44 DUP3 ADD MSTORE PUSH1 0x64 SWAP1 REVERT JUMPDEST ISZERO PUSH2 0x5660 JUMPI JUMP JUMPDEST PUSH1 0x40 MLOAD PUSH3 0x461BCD PUSH1 0xE5 SHL DUP2 MSTORE PUSH1 0x20 PUSH1 0x4 DUP3 ADD MSTORE PUSH1 0xD PUSH1 0x24 DUP3 ADD MSTORE PUSH13 0x22A81D102737903BB4B73732B9 PUSH1 0x99 SHL PUSH1 0x44 DUP3 ADD MSTORE PUSH1 0x64 SWAP1 REVERT JUMPDEST SWAP1 DUP2 MSTORE PUSH1 0x20 DUP2 ADD SWAP2 SWAP1 SWAP2 MSTORE PUSH1 0x1 PUSH1 0x1 PUSH1 0xA0 SHL SUB SWAP1 SWAP2 AND PUSH1 0x40 DUP3 ADD MSTORE PUSH1 0x60 ADD SWAP1 JUMP JUMPDEST DUP2 ISZERO PUSH2 0x56C0 JUMPI DIV SWAP1 JUMP JUMPDEST PUSH4 0x4E487B71 PUSH1 0xE0 SHL PUSH1 0x0 MSTORE PUSH1 0x12 PUSH1 0x4 MSTORE PUSH1 0x24 PUSH1 0x0 REVERT JUMPDEST SWAP1 PUSH2 0x571A PUSH1 0x0 DUP1 MLOAD PUSH1 0x20 PUSH2 0x5D5D DUP4 CODECOPY DUP2 MLOAD SWAP2 MSTORE SWAP2 DUP4 PUSH1 0x0 MSTORE PUSH1 0x1 PUSH1 0x20 MSTORE PUSH1 0xC PUSH1 0x40 PUSH1 0x0 KECCAK256 ADD PUSH1 0x3 PUSH1 0xFF NOT DUP3 SLOAD AND OR SWAP1 SSTORE PUSH1 0x40 MLOAD SWAP2 DUP3 SWAP2 PUSH1 0x20 DUP4 MSTORE PUSH1 0x20 DUP4 ADD SWAP1 PUSH2 0x4CF3 JUMP JUMPDEST SUB SWAP1 LOG2 JUMP JUMPDEST PUSH1 0x0 SWAP1 DUP1 DUP3 MSTORE PUSH1 0x20 PUSH1 0x1 DUP2 MSTORE PUSH1 0x40 SWAP2 DUP3 DUP5 KECCAK256 SWAP1 DUP5 SWAP2 PUSH1 0x1 PUSH1 0x3 DUP3 ADD SLOAD PUSH1 0xD DUP4 ADD SLOAD SWAP2 JUMPDEST DUP2 DUP2 GT ISZERO PUSH2 0x5B3A JUMPI POP POP PUSH1 0x7 SLOAD PUSH1 0x4 DUP4 DUP2 ADD DUP1 SLOAD DUP10 MLOAD PUSH4 0x4F44289D PUSH1 0xE0 SHL DUP2 MSTORE PUSH1 0x1 PUSH1 0x1 PUSH1 0xA0 SHL SUB SWAP10 SWAP3 SWAP9 SWAP4 SWAP8 SWAP3 SWAP5 DUP11 AND SWAP4 SWAP2 DUP11 AND SWAP3 SWAP2 DUP6 DUP3 DUP1 PUSH2 0x5789 DUP8 DUP8 DUP4 DUP16 ADD PUSH2 0x4F90 JUMP JUMPDEST SUB DUP2 DUP9 GAS STATICCALL SWAP2 DUP3 ISZERO PUSH2 0x5B30 JUMPI SWAP2 DUP10 SWAP2 DUP14 SWAP8 SWAP7 SWAP6 SWAP5 SWAP4 DUP16 SWAP3 PUSH2 0x5AED JUMPI JUMPDEST POP SWAP2 PUSH2 0x57CF DUP6 PUSH2 0x57B7 DUP7 SWAP5 DUP11 SWAP7 PUSH2 0x4E50 JUMP JUMPDEST SWAP10 MLOAD PUSH4 0xDC4CE349 PUSH1 0xE0 SHL DUP2 MSTORE SWAP11 DUP12 SWAP5 DUP6 SWAP5 DUP6 ADD PUSH2 0x5695 JUMP JUMPDEST SUB DUP2 DUP7 GAS STATICCALL SWAP6 DUP7 ISZERO PUSH2 0x5AB0 JUMPI DUP13 SWAP7 PUSH2 0x5ABA JUMPI JUMPDEST POP DUP4 DUP3 PUSH2 0x5802 SWAP3 DUP14 MLOAD SWAP4 DUP5 SWAP3 DUP4 SWAP3 PUSH4 0x3D1E7BA1 PUSH1 0xE1 SHL DUP5 MSTORE DUP14 DUP5 ADD PUSH2 0x4F90 JUMP JUMPDEST SUB DUP2 DUP7 GAS STATICCALL SWAP4 DUP5 ISZERO PUSH2 0x5AB0 JUMPI DUP13 SWAP5 PUSH2 0x5A80 JUMPI JUMPDEST POP POP PUSH2 0x15E SWAP4 DUP5 DUP5 MUL DUP5 ISZERO SWAP6 DUP6 DUP3 DIV EQ DUP7 OR ISZERO PUSH2 0x5A6D JUMPI PUSH2 0x2710 DUP1 SWAP2 DIV SWAP6 PUSH2 0x1F4 SWAP1 DUP2 DUP8 MUL SWAP2 DUP8 DUP4 DIV EQ OR ISZERO PUSH2 0x5A5A JUMPI DIV SWAP6 PUSH2 0x595C JUMPI POP POP POP PUSH2 0x5862 SWAP1 PUSH2 0x585C DUP5 DUP5 PUSH2 0x4E50 JUMP JUMPDEST SWAP1 PUSH2 0x510B JUMP JUMPDEST SWAP3 DUP2 PUSH2 0x58EF JUMPI JUMPDEST POP POP SWAP1 PUSH2 0x5875 SWAP2 PUSH2 0x4E50 JUMP JUMPDEST SWAP3 DUP4 PUSH2 0x5884 JUMPI JUMPDEST POP POP POP POP POP POP JUMP JUMPDEST DUP1 PUSH1 0x7 SLOAD AND SWAP3 SLOAD AND SWAP1 DUP3 EXTCODESIZE ISZERO PUSH2 0xB48 JUMPI SWAP2 DUP5 SWAP4 SWAP2 DUP7 DUP1 SWAP5 PUSH2 0x58B8 SWAP8 MLOAD SWAP8 DUP9 SWAP6 DUP7 SWAP5 DUP6 SWAP4 PUSH4 0xF0824F33 PUSH1 0xE0 SHL DUP6 MSTORE DUP5 ADD PUSH2 0x548C JUMP JUMPDEST SUB SWAP3 GAS CALL SWAP1 DUP2 ISZERO PUSH2 0x58E6 JUMPI POP PUSH2 0x58D2 JUMPI JUMPDEST DUP1 DUP1 DUP1 DUP1 PUSH2 0x587C JUMP JUMPDEST PUSH2 0x58DC DUP3 SWAP2 PUSH2 0x4B54 JUMP JUMPDEST PUSH2 0x275 JUMPI DUP1 PUSH2 0x58C9 JUMP JUMPDEST MLOAD RETURNDATASIZE DUP5 DUP3 RETURNDATACOPY RETURNDATASIZE SWAP1 REVERT JUMPDEST DUP7 DUP1 PUSH1 0x7 SLOAD AND SWAP2 SLOAD AND DUP8 DUP8 SLOAD AND SWAP1 DUP3 EXTCODESIZE ISZERO PUSH2 0x5958 JUMPI SWAP2 PUSH2 0x5928 SWAP4 SWAP2 DUP12 DUP1 SWAP5 DUP13 MLOAD SWAP7 DUP8 SWAP6 DUP7 SWAP5 DUP6 SWAP4 PUSH4 0x112CD223 PUSH1 0xE0 SHL DUP6 MSTORE DUP14 DUP6 ADD PUSH2 0x4FCD JUMP JUMPDEST SUB SWAP3 GAS CALL DUP1 ISZERO PUSH2 0x594E JUMPI SWAP1 DUP9 SWAP2 ISZERO PUSH2 0x5869 JUMPI PUSH2 0x5943 SWAP1 PUSH2 0x4B54 JUMP JUMPDEST PUSH2 0x871 JUMPI DUP7 CODESIZE PUSH2 0x5869 JUMP JUMPDEST DUP8 MLOAD RETURNDATASIZE DUP11 DUP3 RETURNDATACOPY RETURNDATASIZE SWAP1 REVERT JUMPDEST DUP11 DUP1 REVERT JUMPDEST SWAP1 SWAP3 POP SWAP8 SWAP5 SWAP1 SWAP3 SWAP4 SWAP8 PUSH2 0x5976 JUMPI JUMPDEST POP POP POP POP POP POP POP POP POP POP JUMP JUMPDEST DUP5 SWAP1 DUP5 PUSH2 0x59F4 JUMPI JUMPDEST POP POP POP POP POP DUP4 PUSH2 0x5992 JUMPI JUMPDEST DUP1 DUP1 DUP1 DUP1 PUSH2 0x596A JUMP JUMPDEST DUP1 PUSH1 0x7 SLOAD AND SWAP3 SLOAD AND SWAP1 DUP3 EXTCODESIZE ISZERO PUSH2 0xB48 JUMPI SWAP2 DUP5 SWAP4 SWAP2 DUP7 DUP1 SWAP5 PUSH2 0x59C6 SWAP8 MLOAD SWAP8 DUP9 SWAP6 DUP7 SWAP5 DUP6 SWAP4 PUSH4 0x48FEF595 PUSH1 0xE0 SHL DUP6 MSTORE DUP5 ADD PUSH2 0x548C JUMP JUMPDEST SUB SWAP3 GAS CALL SWAP1 DUP2 ISZERO PUSH2 0x58E6 JUMPI POP PUSH2 0x59E0 JUMPI JUMPDEST DUP1 DUP1 DUP1 DUP1 PUSH2 0x5989 JUMP JUMPDEST PUSH2 0x59EA DUP3 SWAP2 PUSH2 0x4B54 JUMP JUMPDEST PUSH2 0x275 JUMPI DUP1 PUSH2 0x59D7 JUMP JUMPDEST SLOAD AND DUP3 EXTCODESIZE ISZERO PUSH2 0x5A56 JUMPI SWAP2 PUSH2 0x5A21 SWAP4 SWAP2 DUP11 DUP1 SWAP5 DUP12 MLOAD SWAP7 DUP8 SWAP6 DUP7 SWAP5 DUP6 SWAP4 PUSH4 0x112CD223 PUSH1 0xE0 SHL DUP6 MSTORE DUP13 DUP6 ADD PUSH2 0x4FCD JUMP JUMPDEST SUB SWAP3 GAS CALL DUP1 ISZERO PUSH2 0x5A4C JUMPI PUSH2 0x5A39 JUMPI JUMPDEST DUP1 DUP1 DUP4 DUP2 PUSH2 0x597E JUMP JUMPDEST PUSH2 0x5A45 SWAP1 SWAP7 SWAP2 SWAP7 PUSH2 0x4B54 JUMP JUMPDEST SWAP5 CODESIZE PUSH2 0x5A30 JUMP JUMPDEST DUP7 MLOAD RETURNDATASIZE DUP10 DUP3 RETURNDATACOPY RETURNDATASIZE SWAP1 REVERT JUMPDEST DUP10 DUP1 REVERT JUMPDEST PUSH4 0x4E487B71 PUSH1 0xE0 SHL DUP15 MSTORE PUSH1 0x11 DUP11 MSTORE PUSH1 0x24 DUP15 REVERT JUMPDEST PUSH4 0x4E487B71 PUSH1 0xE0 SHL DUP14 MSTORE PUSH1 0x11 DUP10 MSTORE PUSH1 0x24 DUP14 REVERT JUMPDEST SWAP1 DUP1 SWAP3 SWAP5 POP DUP2 RETURNDATASIZE DUP4 GT PUSH2 0x5AA9 JUMPI JUMPDEST PUSH2 0x5A98 DUP2 DUP4 PUSH2 0x4B9E JUMP JUMPDEST DUP2 ADD SUB SLT PUSH2 0x5958 JUMPI MLOAD SWAP2 CODESIZE DUP1 PUSH2 0x5815 JUMP JUMPDEST POP RETURNDATASIZE PUSH2 0x5A8E JUMP JUMPDEST DUP12 MLOAD RETURNDATASIZE DUP15 DUP3 RETURNDATACOPY RETURNDATASIZE SWAP1 REVERT JUMPDEST SWAP1 SWAP6 POP DUP4 DUP2 DUP2 RETURNDATASIZE DUP4 GT PUSH2 0x5AE6 JUMPI JUMPDEST PUSH2 0x5AD2 DUP2 DUP4 PUSH2 0x4B9E JUMP JUMPDEST DUP2 ADD SUB SLT PUSH2 0x5AE2 JUMPI MLOAD SWAP5 DUP4 PUSH2 0x57E2 JUMP JUMPDEST DUP12 DUP1 REVERT JUMPDEST POP RETURNDATASIZE PUSH2 0x5AC8 JUMP JUMPDEST SWAP3 POP SWAP3 SWAP4 SWAP5 SWAP6 SWAP7 POP POP DUP6 DUP2 DUP2 RETURNDATASIZE DUP4 GT PUSH2 0x5B29 JUMPI JUMPDEST PUSH2 0x5B0B DUP2 DUP4 PUSH2 0x4B9E JUMP JUMPDEST DUP2 ADD SUB SLT PUSH2 0x5B25 JUMPI MLOAD DUP12 SWAP6 SWAP5 SWAP4 SWAP3 SWAP2 DUP10 SWAP2 SWAP1 PUSH2 0x57CF PUSH2 0x57A5 JUMP JUMPDEST DUP13 DUP1 REVERT JUMPDEST POP RETURNDATASIZE PUSH2 0x5B01 JUMP JUMPDEST DUP13 MLOAD RETURNDATASIZE DUP16 DUP3 RETURNDATACOPY RETURNDATASIZE SWAP1 REVERT JUMPDEST DUP3 DUP2 SUB PUSH2 0x5B50 JUMPI JUMPDEST PUSH2 0x5B4B SWAP1 PUSH2 0x4E5D JUMP JUMPDEST PUSH2 0x5742 JUMP JUMPDEST SWAP5 DUP8 DUP8 DUP8 PUSH1 0x1 DUP1 PUSH1 0xA0 SHL SUB DUP9 DUP2 PUSH1 0x7 SLOAD AND SWAP2 PUSH2 0x5B87 PUSH1 0x4 SWAP2 DUP3 DUP13 ADD SLOAD AND SWAP7 MLOAD SWAP7 DUP8 SWAP6 DUP7 SWAP5 DUP6 SWAP5 PUSH4 0xDC4CE349 PUSH1 0xE0 SHL DUP7 MSTORE DUP6 ADD PUSH2 0x5695 JUMP JUMPDEST SUB SWAP2 GAS STATICCALL SWAP1 DUP2 ISZERO PUSH2 0x5BDE JUMPI DUP11 SWAP2 PUSH2 0x5BAF JUMPI JUMPDEST POP PUSH2 0x5BA7 SWAP1 PUSH2 0x5B4B SWAP3 PUSH2 0x4E50 JUMP JUMPDEST SWAP6 SWAP1 POP PUSH2 0x5B42 JUMP JUMPDEST SWAP1 POP DUP8 DUP2 DUP2 RETURNDATASIZE DUP4 GT PUSH2 0x5BD7 JUMPI JUMPDEST PUSH2 0x5BC6 DUP2 DUP4 PUSH2 0x4B9E JUMP JUMPDEST DUP2 ADD SUB SLT PUSH2 0x5A56 JUMPI MLOAD PUSH2 0x5B4B PUSH2 0x5B99 JUMP JUMPDEST POP RETURNDATASIZE PUSH2 0x5BBC JUMP JUMPDEST DUP10 MLOAD RETURNDATASIZE DUP13 DUP3 RETURNDATACOPY RETURNDATASIZE SWAP1 REVERT JUMPDEST PUSH1 0x0 JUMPDEST PUSH1 0xA SWAP1 DUP2 SLOAD SWAP2 DUP3 DUP3 LT ISZERO PUSH2 0x5C9D JUMPI DUP4 SWAP3 PUSH2 0x5C04 DUP4 PUSH2 0x4B0B JUMP JUMPDEST SWAP5 SWAP1 SLOAD PUSH1 0x3 SWAP6 DUP7 SHL SHR EQ PUSH2 0x5C23 JUMPI POP POP PUSH2 0x5C1E SWAP2 POP PUSH2 0x4E5D JUMP JUMPDEST PUSH2 0x5BEB JUMP JUMPDEST SWAP1 SWAP2 PUSH1 0x0 NOT SWAP2 DUP3 DUP2 ADD SWAP1 DUP2 GT PUSH2 0x4E3A JUMPI PUSH2 0x3580 PUSH2 0x5C42 PUSH2 0x5C4E SWAP3 PUSH2 0x4B0B JUMP JUMPDEST SWAP1 SLOAD SWAP1 DUP8 SHL SHR SWAP3 PUSH2 0x4B0B JUMP JUMPDEST SWAP1 SSTORE DUP2 SLOAD DUP1 ISZERO PUSH2 0x5C87 JUMPI DUP2 ADD SWAP3 PUSH2 0x5C64 DUP5 PUSH2 0x4B0B JUMP JUMPDEST DUP2 SWAP4 SWAP2 SLOAD SWAP3 SHL SHL NOT AND SWAP1 SSTORE SSTORE PUSH1 0x0 MSTORE PUSH1 0xB PUSH1 0x20 MSTORE PUSH1 0x40 PUSH1 0x0 KECCAK256 PUSH1 0xFF NOT DUP2 SLOAD AND SWAP1 SSTORE JUMP JUMPDEST PUSH4 0x4E487B71 PUSH1 0xE0 SHL PUSH1 0x0 MSTORE PUSH1 0x31 PUSH1 0x4 MSTORE PUSH1 0x24 PUSH1 0x0 REVERT JUMPDEST POP POP POP POP JUMP JUMPDEST ISZERO PUSH2 0x5CAA JUMPI JUMP JUMPDEST PUSH1 0x40 MLOAD PUSH3 0x461BCD PUSH1 0xE5 SHL DUP2 MSTORE PUSH1 0x20 PUSH1 0x4 DUP3 ADD MSTORE PUSH1 0x15 PUSH1 0x24 DUP3 ADD MSTORE PUSH21 0x22A81D1027B7363C9020B236B4B726B0B730B3B2B9 PUSH1 0x59 SHL PUSH1 0x44 DUP3 ADD MSTORE PUSH1 0x64 SWAP1 REVERT JUMPDEST ISZERO PUSH2 0x5CEE JUMPI JUMP JUMPDEST PUSH1 0x40 MLOAD PUSH3 0x461BCD PUSH1 0xE5 SHL DUP2 MSTORE PUSH1 0x20 PUSH1 0x4 DUP3 ADD MSTORE PUSH1 0xA PUSH1 0x24 DUP3 ADD MSTORE PUSH10 0x11540E88109859081251 PUSH1 0xB2 SHL PUSH1 0x44 DUP3 ADD MSTORE PUSH1 0x64 SWAP1 REVERT JUMPDEST ISZERO PUSH2 0x5D27 JUMPI JUMP JUMPDEST PUSH1 0x40 MLOAD PUSH3 0x461BCD PUSH1 0xE5 SHL DUP2 MSTORE PUSH1 0x20 PUSH1 0x4 DUP3 ADD MSTORE PUSH1 0xD PUSH1 0x24 DUP3 ADD MSTORE PUSH13 0x11540E88139BC81B585C9AD95D PUSH1 0x9A SHL PUSH1 0x44 DUP3 ADD MSTORE PUSH1 0x64 SWAP1 REVERT INVALID 0x4C GASLIMIT PUSH2 0xC5B0 DIV DUP5 0x24 SMOD SHR GT ISZERO 0xE9 CALL 0xE3 0x25 BASEFEE PUSH15 0x21C21333D968F21097B7B72D12AD8B 0xE0 SMOD SWAP13 MSTORE8 AND MSIZE EQ SGT PREVRANDAO 0xCD 0x1F 0xD0 LOG4 CALLCODE DUP5 NOT 0x49 PUSH32 0x9722A3DAAFE3B4186F6B6457E06DFC24F0F2FB42E49FB4FA3FFA8ABB148CAB90 DUP11 0x1F 0xB8 CALLER JUMPDEST EXTCODEHASH SLT DUP11 ADDMOD 0xB2 MSIZE 0x4A CALL 0xE1 0xF 0xDD 0xE2 0xC5 0xCD SWAP12 SWAP3 0xE4 0x49 0xEE 0x25 0xDF ADD INVALID 0xBD LOG2 0xCB 0xEB 0xC5 SSTORE RETURNDATACOPY CODESIZE CALLCODE 0x25 0xF INVALID PUSH32 0x2D5143BCA164736F6C6343000814000A00000000000000000000000000000000 "},"methodIdentifiers":{"CREATOR_FEE_BPS()":"cc3cbd2a","PLATFORM_FEE_BPS()":"539aa77f","activeMarkets(uint256)":"3adfe6d0","adminManager()":"a210b6a4","calculateWinnings(uint256,address)":"f15cc406","cancelMarket(uint256)":"7c16cd9e","claimRefund(uint256)":"5b7baf64","claimWinnings(uint256)":"677bd9ff","createMarket(string,bool,uint256,address,uint256,uint256,uint256,uint256,uint256,uint8,address,uint256)":"66cf7ed4","creatorCancelMarket(uint256)":"c3436e0c","defaultBondCurrency()":"209c1c94","disputeOracle(uint256)":"5cb305a6","endMarket(uint256)":"157bdcce","getMarket(uint256)":"eb44fdd3","getMarketStakers(uint256)":"6f59359e","getNextMarketId()":"fe53a6e8","getOptionPool(uint256,uint256,address)":"dc4ce349","getStakerCount(uint256)":"0ccf4467","getSupportPool(uint256,address)":"4f44289d","getSupporterCount(uint256)":"a30a0914","getTotalPool(uint256,address)":"f00fe321","getUserStake(uint256,address,address)":"847cf782","getUserSupport(uint256,address,address)":"256ba741","isActiveMarket(uint256)":"0d64cdbd","markMarketDeleted(uint256)":"fb87f2c3","markMarketPermanentlyRemoved(uint256)":"e0bd4acc","marketCreationFee()":"2ef1bdfa","marketStakers(uint256,uint256)":"d5f82707","marketSupporters(uint256,uint256)":"c22c62c3","markets(uint256)":"b1283e77","nextMarketId()":"406ef2ef","optimisticOracle()":"22302922","owner()":"8da5cb5b","placeStake(uint256,uint256)":"f4867591","placeStakeWithToken(uint256,uint256,uint256)":"f1b7dde3","renounceOwnership()":"715018a6","requestP2PResolution(uint256,bytes,uint256)":"d18e181a","resolveP2PMarket(uint256)":"6d4476ec","resolvePriceFeedMarket(uint256)":"9a3a40d6","setAdminManager(address)":"bc160758","setDefaultBondCurrency(address)":"a550725d","setOptimisticOracle(address)":"bf5c3252","settleOracle(uint256)":"569946c5","supportMarket(uint256,uint256)":"f204072f","transferOwnership(address)":"f2fde38b","treasury()":"61d027b3","userHasStaked(uint256,address)":"304bf1f1","userHasSupported(uint256,address)":"287f57b5","userMarketHistory(address,uint256)":"98a17671","userStakeOptions(uint256,address)":"d8c5dd67","withdrawSupport(uint256)":"3e32a76c"}}}}}