{"contracts/P2PTreasury.sol":{"PoolVault":{"abi":[{"inputs":[{"internalType":"address","name":"initialOwner","type":"address"},{"internalType":"address","name":"_partner","type":"address"}],"stateMutability":"nonpayable","type":"constructor"},{"inputs":[{"internalType":"address","name":"owner","type":"address"}],"name":"OwnableInvalidOwner","type":"error"},{"inputs":[{"internalType":"address","name":"account","type":"address"}],"name":"OwnableUnauthorizedAccount","type":"error"},{"inputs":[{"internalType":"address","name":"token","type":"address"}],"name":"SafeERC20FailedOperation","type":"error"},{"anonymous":false,"inputs":[{"indexed":true,"internalType":"address","name":"contractAddr","type":"address"}],"name":"ContractAuthorized","type":"event"},{"anonymous":false,"inputs":[{"indexed":true,"internalType":"address","name":"contractAddr","type":"address"}],"name":"ContractDeauthorized","type":"event"},{"anonymous":false,"inputs":[{"indexed":true,"internalType":"address","name":"token","type":"address"},{"indexed":false,"internalType":"uint256","name":"platformAmount","type":"uint256"},{"indexed":false,"internalType":"uint256","name":"partnerAmount","type":"uint256"}],"name":"FeesDistributed","type":"event"},{"anonymous":false,"inputs":[{"indexed":true,"internalType":"address","name":"token","type":"address"},{"indexed":false,"internalType":"uint256","name":"amount","type":"uint256"},{"indexed":true,"internalType":"address","name":"to","type":"address"}],"name":"FundsWithdrawn","type":"event"},{"anonymous":false,"inputs":[{"indexed":true,"internalType":"address","name":"oldManager","type":"address"},{"indexed":true,"internalType":"address","name":"newManager","type":"address"}],"name":"MarketManagerUpdated","type":"event"},{"anonymous":false,"inputs":[{"indexed":true,"internalType":"address","name":"previousOwner","type":"address"},{"indexed":true,"internalType":"address","name":"newOwner","type":"address"}],"name":"OwnershipTransferred","type":"event"},{"anonymous":false,"inputs":[{"indexed":true,"internalType":"address","name":"oldPartner","type":"address"},{"indexed":true,"internalType":"address","name":"newPartner","type":"address"}],"name":"PartnerUpdated","type":"event"},{"anonymous":false,"inputs":[{"indexed":true,"internalType":"address","name":"token","type":"address"},{"indexed":false,"internalType":"uint256","name":"amount","type":"uint256"},{"indexed":true,"internalType":"address","name":"to","type":"address"}],"name":"PlatformFundsWithdrawn","type":"event"},{"anonymous":false,"inputs":[{"indexed":true,"internalType":"address","name":"token","type":"address"},{"indexed":false,"internalType":"uint256","name":"amount","type":"uint256"},{"indexed":false,"internalType":"string","name":"reason","type":"string"}],"name":"PlatformPoolUpdated","type":"event"},{"inputs":[],"name":"PARTNER_FEE_BPS","outputs":[{"internalType":"uint256","name":"","type":"uint256"}],"stateMutability":"view","type":"function"},{"inputs":[],"name":"PLATFORM_FEE_BPS","outputs":[{"internalType":"uint256","name":"","type":"uint256"}],"stateMutability":"view","type":"function"},{"inputs":[{"internalType":"address","name":"token","type":"address"},{"internalType":"uint256","name":"amount","type":"uint256"}],"name":"addToPlatformPool","outputs":[],"stateMutability":"nonpayable","type":"function"},{"inputs":[{"internalType":"address","name":"contractAddr","type":"address"}],"name":"authorizeContract","outputs":[],"stateMutability":"nonpayable","type":"function"},{"inputs":[{"internalType":"address","name":"","type":"address"}],"name":"authorizedContracts","outputs":[{"internalType":"bool","name":"","type":"bool"}],"stateMutability":"view","type":"function"},{"inputs":[{"internalType":"uint256","name":"totalAmount","type":"uint256"}],"name":"calculateFees","outputs":[{"internalType":"uint256","name":"platformFee","type":"uint256"},{"internalType":"uint256","name":"partnerFee","type":"uint256"}],"stateMutability":"pure","type":"function"},{"inputs":[{"internalType":"uint256","name":"marketId","type":"uint256"},{"internalType":"address","name":"user","type":"address"},{"internalType":"address","name":"token","type":"address"},{"internalType":"uint256","name":"amount","type":"uint256"}],"name":"claimRefund","outputs":[],"stateMutability":"nonpayable","type":"function"},{"inputs":[{"internalType":"uint256","name":"marketId","type":"uint256"},{"internalType":"address","name":"user","type":"address"},{"internalType":"address","name":"token","type":"address"},{"internalType":"uint256","name":"amount","type":"uint256"}],"name":"claimWinnings","outputs":[],"stateMutability":"nonpayable","type":"function"},{"inputs":[{"internalType":"address","name":"contractAddr","type":"address"}],"name":"deauthorizeContract","outputs":[],"stateMutability":"nonpayable","type":"function"},{"inputs":[{"internalType":"address","name":"token","type":"address"},{"internalType":"uint256","name":"totalAmount","type":"uint256"}],"name":"distributeFees","outputs":[],"stateMutability":"nonpayable","type":"function"},{"inputs":[{"internalType":"address[]","name":"tokens","type":"address[]"}],"name":"getAllPlatformPools","outputs":[{"internalType":"uint256[]","name":"balances","type":"uint256[]"}],"stateMutability":"view","type":"function"},{"inputs":[{"internalType":"address","name":"token","type":"address"}],"name":"getBalanceInfo","outputs":[{"internalType":"uint256","name":"contractBalance","type":"uint256"},{"internalType":"uint256","name":"platformPoolBalance","type":"uint256"}],"stateMutability":"view","type":"function"},{"inputs":[{"internalType":"uint256","name":"marketId","type":"uint256"},{"internalType":"address","name":"token","type":"address"}],"name":"getMarketPool","outputs":[{"internalType":"uint256","name":"","type":"uint256"}],"stateMutability":"view","type":"function"},{"inputs":[{"internalType":"uint256","name":"marketId","type":"uint256"},{"internalType":"uint256","name":"option","type":"uint256"},{"internalType":"address","name":"token","type":"address"}],"name":"getOptionPool","outputs":[{"internalType":"uint256","name":"","type":"uint256"}],"stateMutability":"view","type":"function"},{"inputs":[{"internalType":"address","name":"token","type":"address"}],"name":"getPlatformPool","outputs":[{"internalType":"uint256","name":"","type":"uint256"}],"stateMutability":"view","type":"function"},{"inputs":[{"internalType":"uint256","name":"marketId","type":"uint256"},{"internalType":"address","name":"token","type":"address"}],"name":"getSupportPool","outputs":[{"internalType":"uint256","name":"","type":"uint256"}],"stateMutability":"view","type":"function"},{"inputs":[{"internalType":"uint256","name":"marketId","type":"uint256"},{"internalType":"address","name":"user","type":"address"},{"internalType":"address","name":"token","type":"address"}],"name":"getUserStake","outputs":[{"internalType":"uint256","name":"","type":"uint256"}],"stateMutability":"view","type":"function"},{"inputs":[{"internalType":"uint256","name":"marketId","type":"uint256"},{"internalType":"address","name":"user","type":"address"},{"internalType":"address","name":"token","type":"address"}],"name":"getUserSupport","outputs":[{"internalType":"uint256","name":"","type":"uint256"}],"stateMutability":"view","type":"function"},{"inputs":[{"internalType":"uint256","name":"marketId","type":"uint256"},{"internalType":"address","name":"user","type":"address"}],"name":"hasUserClaimed","outputs":[{"internalType":"bool","name":"","type":"bool"}],"stateMutability":"view","type":"function"},{"inputs":[{"internalType":"uint256","name":"marketId","type":"uint256"},{"internalType":"address","name":"user","type":"address"}],"name":"hasUserSupportClaimed","outputs":[{"internalType":"bool","name":"","type":"bool"}],"stateMutability":"view","type":"function"},{"inputs":[],"name":"marketManager","outputs":[{"internalType":"address","name":"","type":"address"}],"stateMutability":"view","type":"function"},{"inputs":[{"internalType":"uint256","name":"","type":"uint256"},{"internalType":"address","name":"","type":"address"}],"name":"marketPools","outputs":[{"internalType":"uint256","name":"","type":"uint256"}],"stateMutability":"view","type":"function"},{"inputs":[{"internalType":"uint256","name":"","type":"uint256"},{"internalType":"uint256","name":"","type":"uint256"},{"internalType":"address","name":"","type":"address"}],"name":"optionPools","outputs":[{"internalType":"uint256","name":"","type":"uint256"}],"stateMutability":"view","type":"function"},{"inputs":[],"name":"owner","outputs":[{"internalType":"address","name":"","type":"address"}],"stateMutability":"view","type":"function"},{"inputs":[],"name":"partner","outputs":[{"internalType":"address","name":"","type":"address"}],"stateMutability":"view","type":"function"},{"inputs":[{"internalType":"uint256","name":"marketId","type":"uint256"},{"internalType":"address","name":"user","type":"address"},{"internalType":"address","name":"token","type":"address"},{"internalType":"uint256","name":"amount","type":"uint256"},{"internalType":"uint256","name":"option","type":"uint256"}],"name":"placeStake","outputs":[],"stateMutability":"nonpayable","type":"function"},{"inputs":[{"internalType":"address","name":"","type":"address"}],"name":"platformPools","outputs":[{"internalType":"uint256","name":"","type":"uint256"}],"stateMutability":"view","type":"function"},{"inputs":[],"name":"renounceOwnership","outputs":[],"stateMutability":"nonpayable","type":"function"},{"inputs":[{"internalType":"address","name":"_marketManager","type":"address"}],"name":"setMarketManager","outputs":[],"stateMutability":"nonpayable","type":"function"},{"inputs":[{"internalType":"address","name":"_partner","type":"address"}],"name":"setPartner","outputs":[],"stateMutability":"nonpayable","type":"function"},{"inputs":[{"internalType":"uint256","name":"marketId","type":"uint256"},{"internalType":"address","name":"user","type":"address"},{"internalType":"address","name":"token","type":"address"},{"internalType":"uint256","name":"amount","type":"uint256"}],"name":"supportMarket","outputs":[],"stateMutability":"nonpayable","type":"function"},{"inputs":[{"internalType":"uint256","name":"","type":"uint256"},{"internalType":"address","name":"","type":"address"}],"name":"supportPools","outputs":[{"internalType":"uint256","name":"","type":"uint256"}],"stateMutability":"view","type":"function"},{"inputs":[{"internalType":"address","name":"newOwner","type":"address"}],"name":"transferOwnership","outputs":[],"stateMutability":"nonpayable","type":"function"},{"inputs":[{"internalType":"address","name":"creator","type":"address"},{"internalType":"address","name":"token","type":"address"},{"internalType":"uint256","name":"amount","type":"uint256"}],"name":"transferToCreator","outputs":[],"stateMutability":"nonpayable","type":"function"},{"inputs":[{"internalType":"uint256","name":"","type":"uint256"},{"internalType":"address","name":"","type":"address"},{"internalType":"uint256","name":"","type":"uint256"}],"name":"userBetOptions","outputs":[{"internalType":"uint256","name":"","type":"uint256"}],"stateMutability":"view","type":"function"},{"inputs":[{"internalType":"uint256","name":"","type":"uint256"},{"internalType":"address","name":"","type":"address"}],"name":"userClaimed","outputs":[{"internalType":"bool","name":"","type":"bool"}],"stateMutability":"view","type":"function"},{"inputs":[{"internalType":"uint256","name":"","type":"uint256"},{"internalType":"address","name":"","type":"address"},{"internalType":"address","name":"","type":"address"}],"name":"userStakes","outputs":[{"internalType":"uint256","name":"","type":"uint256"}],"stateMutability":"view","type":"function"},{"inputs":[{"internalType":"uint256","name":"","type":"uint256"},{"internalType":"address","name":"","type":"address"}],"name":"userSupportClaimed","outputs":[{"internalType":"bool","name":"","type":"bool"}],"stateMutability":"view","type":"function"},{"inputs":[{"internalType":"uint256","name":"","type":"uint256"},{"internalType":"address","name":"","type":"address"},{"internalType":"address","name":"","type":"address"}],"name":"userSupports","outputs":[{"internalType":"uint256","name":"","type":"uint256"}],"stateMutability":"view","type":"function"},{"inputs":[{"internalType":"address","name":"token","type":"address"},{"internalType":"uint256","name":"amount","type":"uint256"},{"internalType":"address","name":"to","type":"address"}],"name":"withdraw","outputs":[],"stateMutability":"nonpayable","type":"function"},{"inputs":[{"internalType":"address","name":"token","type":"address"},{"internalType":"uint256","name":"amount","type":"uint256"},{"internalType":"address","name":"to","type":"address"}],"name":"withdrawPlatformFunds","outputs":[],"stateMutability":"nonpayable","type":"function"},{"inputs":[{"internalType":"uint256","name":"marketId","type":"uint256"},{"internalType":"address","name":"user","type":"address"},{"internalType":"address","name":"token","type":"address"},{"internalType":"uint256","name":"amount","type":"uint256"}],"name":"withdrawSupport","outputs":[],"stateMutability":"nonpayable","type":"function"},{"stateMutability":"payable","type":"receive"}],"evm":{"bytecode":{"linkReferences":{},"object":"608034620000de57601f6200227338819003918201601f19168301916001600160401b03831184841017620000e3578084926040948552833981010312620000de576200005a60206200005283620000f9565b9201620000f9565b906001600160a01b03908116908115620000c5576000549260018060a01b03199280848616176000558260405195167f8be0079c531659141344cd1fd0a4f28419497f9722a3daafe3b4186f6b6457e0600080a31690600154161760015561216490816200010f8239f35b604051631e4fbdf760e01b815260006004820152602490fd5b600080fd5b634e487b7160e01b600052604160045260246000fd5b51906001600160a01b0382168203620000de5756fe60806040818152600480361015610021575b505050361561001f57600080fd5b005b600092833560e01c908163055c796b14611b6f5750806307c7a72d1461163d578063112cd223146119545780631abf870514611913578063256ba741146117375780632f2e594e14610a2e5780632f7c165e146117765780632ff44b6f1461127457806334eba1661461173757806339adac4d146116835780633beb98421461163d57806341ed2c121461161457806341ee37d1146115f857806348fef595146113cd5780634f44289d14610a6d57806352238fdd146113a3578063539aa77f14611386578063593f35f4146112ba5780635d1c5820146112745780635e0083da14611120578063674d20cb14610f0e57806367561d9314610e6357806369328dec14610d3b5780636c1b5c8a14610d065780636e861c0e14610ca05780636ee02a9b14610b59578063715018a614610b0e5780637a3cf74214610aae5780637de4263414610a6d578063847cf78214610a2e5780638da5cb5b14610a0657806395f4109514610880578063a16d5960146107c0578063a24693ed14610774578063be10862b1461074b578063c15d980714610630578063d5b9221b146105f2578063d82aff11146104fd578063dc4ce3491461026f578063f0824f33146102b1578063f133a04f1461026f5763f2fde38b03610011573461026b57602036600319011261026b57610211611ba3565b9061021a611ca0565b6001600160a01b0391821692831561025557505082546001600160a01b0319811683178455166000805160206120f88339815191528380a380f35b51631e4fbdf760e01b8152908101849052602490fd5b8280fd5b5050346102ad578060209261028336611c76565b9183526006865283832090835285528282206001600160a01b039091168252845220549051908152f35b5080fd5b509190346102ad57806003193601126102ad576102cc611ba3565b906024359133845260206002815260ff8386205416156104a85783156102f28115611d14565b6107d090818602918683041417156104955785939291612710889204916103198388611dec565b6001600160a01b0394851697909490886103e35796849161034b60008051602061209883398151915299471015611e06565b826103bf575b5050505b8688528152838720610368848254611df9565b9055856000805160206120d8833981519152608086518681528785820152601d888201527f44697265637420706c6174666f726d20706f6f6c206164646974696f6e0000006060820152a28351928352820152a280f35b81806103db948193600154165af16103d5611e5d565b50611e9c565b82888a610351565b86516370a0823160e01b8152308482015290975083816024818c5afa90811561048b578a9161044c575b5060008051602061209883398151915297610429911015611d94565b8380610437575b5050610355565b610445916001541689611ef9565b8883610430565b90508381813d8311610484575b6104638183611d5b565b81010312610480575160008051602061209883398151915261040d565b8980fd5b503d610459565b87513d8c823e3d90fd5b634e487b7160e01b865260118752602486fd5b8560849184519162461bcd60e51b8352820152603c602482015260008051602061211883398151915260448201527b18dd1cc818d85b88185919081d1bc81c1b185d199bdc9b481c1bdbdb60221b6064820152fd5b508290346102ad5760203660031901126102ad57610519611ba3565b610521611ca0565b6001600160a01b0390811691821561059e5750600380546001600160a01b0319811684179091558284526002602052938320805460ff19166001179055919290918291167f6d5236c24f887cea37fd19d8fffc6c47b564af445baf220a6c7f9a58bb6ae04e8480a36000805160206120b88339815191528280a280f35b608490602086519162461bcd60e51b8352820152602860248201527f54726561737572793a20496e76616c6964206d61726b6574206d616e61676572604482015267206164647265737360c01b6064820152fd5b5050346102ad5760203660031901126102ad5760209160ff9082906001600160a01b0361061d611ba3565b1681526002855220541690519015158152f35b509190346102ad5761064136611c09565b9392959091953386526020916002835260ff8588205416156106fa5785156106b957508596816106b49697526009835284882060018060a01b0380921689528352848820931692838852825283872061069b878254611df9565b9055865260078152828620918652528320918254611df9565b905580f35b606490838087519262461bcd60e51b845283015260248201527f54726561737572793a20496e76616c696420737570706f727420616d6f756e746044820152fd5b845162461bcd60e51b8152908101839052603760248201526000805160206121188339815191526044820152766374732063616e20737570706f7274206d61726b65747360481b6064820152608490fd5b5050346102ad57816003193601126102ad5760015490516001600160a01b039091168152602090f35b503461026b57606036600319011261026b576020928291610793611bbe565b90358252600a85528282206001600160a01b03909116825284528181206044358252845220549051908152f35b503461026b57602036600319011261026b576107da611ba3565b906107e3611ca0565b6001600160a01b03918216928315610833575050600180546001600160a01b031981168417909155167fc853be2b3168a7fe00e46da23214c5345a752dc61cd3300d7f255f8ae55345878380a380f35b906020608492519162461bcd60e51b8352820152602160248201527f54726561737572793a20496e76616c696420706172746e6572206164647265736044820152607360f81b6064820152fd5b509190346102ad5760a03660031901126102ad5782359061089f611bbe565b6001600160a01b03946044358681169290839003610a025760643594608435913388526020936002855260ff878a205416156109b457871561097157508798826106b498995260088552868a20911690818a528452858920858a52845285892061090a898254611df9565b9055818952600a845285892090895283528488208289528352848820610931888254611df9565b9055808852600583528488208489528352848820610950888254611df9565b90558752600682528387209087528152828620918652528320918254611df9565b865162461bcd60e51b8152908101859052601e60248201527f54726561737572793a20496e76616c6964207374616b6520616d6f756e7400006044820152606490fd5b865162461bcd60e51b8152908101859052603460248201526000805160206121188339815191526044820152736374732063616e20706c616365207374616b657360601b6064820152608490fd5b8580fd5b5050346102ad57816003193601126102ad57905490516001600160a01b039091168152602090f35b5050346102ad5780602092610a4236611bd4565b918352600886528383206001600160a01b039182168452865283832091168252845220549051908152f35b503461026b578160031936011261026b576020928291610a8b611bbe565b90358252600785528282206001600160a01b039091168252845220549051908152f35b503461026b578160031936011261026b5760209282610b07923591610ad1611bbe565b838252600587528282206001600160a01b0390911680835290875282822054938252600787528282209082528652205490611df9565b9051908152f35b8334610b565780600319360112610b5657610b27611ca0565b80546001600160a01b03198116825581906001600160a01b03166000805160206120f88339815191528280a380f35b80fd5b508234610b56576020806003193601126102ad578235916001600160401b038084116102ad57366023850112156102ad57838501359081116102ad57602490600595368383891b88010111610c9c57610bb782989796949598612060565b93610bc488519586611d5b565b828552610bd083612060565b858a019790601f1901368937865b848110610c265750505050505083519485948186019282875251809352850193925b828110610c0f57505050500390f35b835185528695509381019392810192600101610c00565b80829b9897999a9b1b86818501013560018060a01b038116809103610c985788528489528b882054908a51831015610c86578a018901526000198114610c7457600101999897959699610bde565b634e487b7160e01b8752601184528587fd5b634e487b7160e01b8952603286528789fd5b8880fd5b8380fd5b5050346102ad5760203660031901126102ad57610cbb611ba3565b610cc3611ca0565b6001600160a01b03168083526002602052908220805460ff191690557f54142b7cb3ceaa9e564243ce4cc2303723c842a1144192de6b3c594f68b16a9a8280a280f35b503461026b57602036600319011261026b5760209282916001600160a01b03610d2d611ba3565b168252845220549051908152f35b503461026b57610d4a36611c42565b9193610d54611ca0565b6001600160a01b0383811695879190610d6e881515611f9a565b610d79851515611d14565b169485610dc1575090610db982808086958660008051602061213883398151915299610da960209a471015611e06565b5af1610db3611e5d565b50611fe4565b51908152a380f35b90508151906370a0823160e01b82523090820152602081602481885afa908115610e59578791610e1c575b5090610e178360008051602061213883398151915295610e1182602097961015611d94565b87611ef9565b610db9565b929190506020833d8211610e51575b81610e3860209383611d5b565b81010312610e4d579151909190610e17610dec565b8680fd5b3d9150610e2b565b82513d89823e3d90fd5b50903461026b57602036600319011261026b57610e7e611ba3565b610e86611ca0565b6001600160a01b0316918215610ec1575081835260026020528220805460ff191660011790556000805160206120b88339815191528280a280f35b6020608492519162461bcd60e51b8352820152602260248201527f54726561737572793a20496e76616c696420636f6e7472616374206164647265604482015261737360f01b6064820152fd5b503461026b57610f1d36611c42565b91939092610f29611ca0565b6001600160a01b0383811695610f40871515611f9a565b610f4b861515611d14565b16948587526020938285528584892054106110c857878791828252848752858220610f77898254611dec565b905582610ffe57916000805160206120788339815191528789610fbc85808060809d9c9a986000805160206120d88339815191529f60199d9b610da982471015611e06565b8651908152a38688528352808088205493815194855284015282015278141b185d199bdc9b48199d5b991cc81dda5d1a191c985dd85b603a1b6060820152a280f35b91505083516370a0823160e01b8152308482015285816024818b5afa9081156110be57908892918a91611072575b5091600080516020612078833981519152878961106d8160809b9a98966110676000805160206120d88339815191529e60199c9a1015611d94565b86611ef9565b610fbc565b8095935087809795939892503d83116110b7575b6110908183611d5b565b81010312610c9857925193949193909291879160008051602061207883398151915261102c565b503d611086565b85513d8b823e3d90fd5b835162461bcd60e51b8152808401869052602c60248201527f54726561737572793a20496e73756666696369656e7420706c6174666f726d2060448201526b706f6f6c2062616c616e636560a01b6064820152608490fd5b508290346102ad5761113136611c09565b9295909333865260206002815260ff8388205416156112275784156111dd57878752600b81528287206001600160a01b0385168089529082528388205490929060ff166111a05750869761119d9752600b8152828820918852528520600160ff19825416179055612030565b80f35b60649184519162461bcd60e51b83528201526019602482015278151c99585cdd5c9e4e88105b1c9958591e4818db185a5b5959603a1b6044820152fd5b608492519162461bcd60e51b8352820152602160248201527f54726561737572793a20496e76616c69642077696e6e696e677320616d6f756e6044820152601d60fa1b6064820152fd5b608492519162461bcd60e51b8352820152603660248201526000805160206121188339815191526044820152756374732063616e20636c61696d2077696e6e696e677360501b6064820152fd5b503461026b578160031936011261026b578160209360ff92611294611bbe565b90358252600c86528282206001600160a01b039091168252855220549151911615158152f35b508290346102ad576112cb36611c09565b925092338552600260205260ff8686205416156113375782156112f4575061119d939450612030565b606490602087519162461bcd60e51b8352820152601f60248201527f54726561737572793a20496e76616c696420726566756e6420616d6f756e74006044820152fd5b608490602087519162461bcd60e51b8352820152603560248201526000805160206121188339815191526044820152746374732063616e20636c61696d20726566756e647360581b6064820152fd5b5050346102ad57816003193601126102ad57602090516101f48152f35b508234610b56576020366003190112610b5657506113c19035611ccc565b82519182526020820152f35b509190346102ad57806003193601126102ad576113e8611ba3565b90602435913384526020946002865260ff8386205416156115a75784956114128596951515611d14565b61141b86611ccc565b6001600160a01b03948516979194909391886114ff5796849161144f60008051602061209883398151915299471015611e06565b826114e1575b50506114619085611dec565b908789528252611475858920918254611df9565b9055856000805160206120d88339815191526114d26114948587611dec565b87519182918260809181526040602082015260186040820152772932b3bab630b9103332b2903234b9ba3934b13aba34b7b760411b60608201520190565b0390a28351928352820152a280f35b81806114f7948193600154165af16103d5611e5d565b828838611455565b86516370a0823160e01b8152308482015290975083816024818c5afa90811561048b578a9161156c575b5060008051602061209883398151915297611545911015611d94565b8380611557575b611461915085611dec565b611565916001541689611ef9565b388361154c565b90508381813d83116115a0575b6115838183611d5b565b810103126104805751600080516020612098833981519152611529565b503d611579565b825162461bcd60e51b8152908101869052603760248201526000805160206121188339815191526044820152766374732063616e2064697374726962757465206665657360481b6064820152608490fd5b5050346102ad57816003193601126102ad576020905160648152f35b5050346102ad57816003193601126102ad5760035490516001600160a01b039091168152602090f35b503461026b578160031936011261026b578160209360ff9261165d611bbe565b90358252600b86528282206001600160a01b039091168252855220549151911615158152f35b508290346102ad5760209182600319360112610b56576116a1611ba3565b6001600160a01b031680825282845284822054928490826116cd575050505047915b8351928352820152f35b60248751809481936370a0823160e01b835230908301525afa91821561172c5780926116fc575b5050916116c3565b9091508382813d8311611725575b6117148183611d5b565b81010312610b5657505184806116f4565b503d61170a565b8551903d90823e3d90fd5b5050346102ad578060209261174b36611bd4565b918352600986528383206001600160a01b039182168452865283832091168252845220549051908152f35b508290346102ad5761178736611c09565b9295909333865260206002815260ff8388205416156118c457841561187857878752600981528287209760018060a01b0392838616998a8a52835284892093881693848a52835286858a205410611826575087988161119d995260098352848a20908a528252838920838a528252838920611803878254611dec565b905588526007815282882091885252852061181f838254611dec565b9055612030565b845162461bcd60e51b8152908101839052602660248201527f54726561737572793a20496e73756666696369656e7420737570706f72742062604482015265616c616e636560d01b6064820152608490fd5b608492519162461bcd60e51b8352820152602360248201527f54726561737572793a20496e76616c6964207769746864726177616c20616d6f6044820152621d5b9d60ea1b6064820152fd5b608492519162461bcd60e51b83528201526038602482015260008051602061211883398151915260448201527718dd1cc818d85b881dda5d1a191c985dc81cdd5c1c1bdc9d60421b6064820152fd5b503461026b578160031936011261026b576020928291611931611bbe565b90358252600585528282206001600160a01b039091168252845220549051908152f35b503461026b57606036600319011261026b5761196e611ba3565b611976611bbe565b926044353386526020916002835260ff818820541615611b1b5761199b821515611d14565b6001600160a01b03848116968715611ace5716948786611a46578080858097986119ca83969798471015611e06565b5af16119d4611e5d565b50156119f45750519081526000805160206121388339815191529190a380f35b83608492519162461bcd60e51b8352820152602860248201527f54726561737572793a20455448207472616e7366657220746f2063726561746f6044820152671c8819985a5b195960c21b6064820152fd5b50938151946370a0823160e01b865230908601528385602481895afa948515611ac4578895611a91575b5082610e1791610e1182600080516020612138833981519152981015611d94565b94508385813d8311611abd575b611aa88183611d5b565b81010312611ab95793519382611a70565b8780fd5b503d611a9e565b82513d8a823e3d90fd5b825162461bcd60e51b8152808801869052602160248201527f54726561737572793a20496e76616c69642063726561746f72206164647265736044820152607360f81b6064820152608490fd5b5162461bcd60e51b8152808501839052603b602482015260008051602061211883398151915260448201527a31ba399031b0b7103a3930b739b332b9103a379031b932b0ba37b960291b6064820152608490fd5b9291905034610c9c576020366003190112610c9c57602093906001600160a01b03611b98611ba3565b168252845220548152f35b600435906001600160a01b0382168203611bb957565b600080fd5b602435906001600160a01b0382168203611bb957565b6060906003190112611bb957600435906001600160a01b03906024358281168103611bb957916044359081168103611bb95790565b6080906003190112611bb957600435906001600160a01b03906024358281168103611bb957916044359081168103611bb9579060643590565b6060906003190112611bb9576001600160a01b036004358181168103611bb95791602435916044359081168103611bb95790565b6060906003190112611bb95760043590602435906044356001600160a01b0381168103611bb95790565b6000546001600160a01b03163303611cb457565b60405163118cdaa760e01b8152336004820152602490fd5b906101f491828102928184041490151715611cfe57612710809204916064830283810460641484151715611cfe570490565b634e487b7160e01b600052601160045260246000fd5b15611d1b57565b60405162461bcd60e51b8152602060048201526018602482015277151c99585cdd5c9e4e88125b9d985b1a5908185b5bdd5b9d60421b6044820152606490fd5b601f909101601f19168101906001600160401b03821190821017611d7e57604052565b634e487b7160e01b600052604160045260246000fd5b15611d9b57565b60405162461bcd60e51b8152602060048201526024808201527f54726561737572793a20496e73756666696369656e7420746f6b656e2062616c604482015263616e636560e01b6064820152608490fd5b91908203918211611cfe57565b91908201809211611cfe57565b15611e0d57565b60405162461bcd60e51b815260206004820152602260248201527f54726561737572793a20496e73756666696369656e74204554482062616c616e604482015261636560f01b6064820152608490fd5b3d15611e97573d906001600160401b038211611d7e5760405191611e8b601f8201601f191660200184611d5b565b82523d6000602084013e565b606090565b15611ea357565b60405162461bcd60e51b815260206004820152602860248201527f54726561737572793a20455448207472616e7366657220746f20706172746e656044820152671c8819985a5b195960c21b6064820152608490fd5b60405163a9059cbb60e01b602082019081526001600160a01b039384166024830152604480830195909552938152909260808201906001600160401b03821183831017611d7e57602092600092604052519082865af115611f8e576000513d611f8557508082163b155b611f6b575050565b604051635274afe760e01b81529116600482015260249150fd5b60011415611f63565b6040513d6000823e3d90fd5b15611fa157565b60405162461bcd60e51b815260206004820152601b60248201527a151c99585cdd5c9e4e88125b9d985b1a59081c9958da5c1a595b9d602a1b6044820152606490fd5b15611feb57565b60405162461bcd60e51b815260206004820152601d60248201527f54726561737572793a20455448207472616e73666572206661696c65640000006044820152606490fd5b916001600160a01b0316806120565750600080808093612054955af1610db3611e5d565b565b9161205492611ef9565b6001600160401b038111611d7e5760051b6020019056fe0d40d374fecc4dca2567cc5ab864d037f0cd1f1e9bda38c23aff691cd74629e085da6ab72d2b48932522aea80adb8ca4fab6cdeb87bc2e7f6c03fd78d3b2100e8983a1f3c3cb45c24c8226b5b805e3b6eb49686530b808534b2a920129eff6511118cdec69d543750c0863ccd71a7d9183543cd6696b187370ce3b76a9003bf88be0079c531659141344cd1fd0a4f28419497f9722a3daafe3b4186f6b6457e054726561737572793a204f6e6c7920617574686f72697a656420636f6e747261e9171aeff46c37ab955b8aff908e14ae9732bd06634fa131226cfe5c25bfd2fba164736f6c6343000814000a","opcodes":"PUSH1 0x80 CALLVALUE PUSH3 0xDE JUMPI PUSH1 0x1F PUSH3 0x2273 CODESIZE DUP2 SWAP1 SUB SWAP2 DUP3 ADD PUSH1 0x1F NOT AND DUP4 ADD SWAP2 PUSH1 0x1 PUSH1 0x1 PUSH1 0x40 SHL SUB DUP4 GT DUP5 DUP5 LT OR PUSH3 0xE3 JUMPI DUP1 DUP5 SWAP3 PUSH1 0x40 SWAP5 DUP6 MSTORE DUP4 CODECOPY DUP2 ADD SUB SLT PUSH3 0xDE JUMPI PUSH3 0x5A PUSH1 0x20 PUSH3 0x52 DUP4 PUSH3 0xF9 JUMP JUMPDEST SWAP3 ADD PUSH3 0xF9 JUMP JUMPDEST SWAP1 PUSH1 0x1 PUSH1 0x1 PUSH1 0xA0 SHL SUB SWAP1 DUP2 AND SWAP1 DUP2 ISZERO PUSH3 0xC5 JUMPI PUSH1 0x0 SLOAD SWAP3 PUSH1 0x1 DUP1 PUSH1 0xA0 SHL SUB NOT SWAP3 DUP1 DUP5 DUP7 AND OR PUSH1 0x0 SSTORE DUP3 PUSH1 0x40 MLOAD SWAP6 AND PUSH32 0x8BE0079C531659141344CD1FD0A4F28419497F9722A3DAAFE3B4186F6B6457E0 PUSH1 0x0 DUP1 LOG3 AND SWAP1 PUSH1 0x1 SLOAD AND OR PUSH1 0x1 SSTORE PUSH2 0x2164 SWAP1 DUP2 PUSH3 0x10F DUP3 CODECOPY RETURN JUMPDEST PUSH1 0x40 MLOAD PUSH4 0x1E4FBDF7 PUSH1 0xE0 SHL DUP2 MSTORE PUSH1 0x0 PUSH1 0x4 DUP3 ADD MSTORE PUSH1 0x24 SWAP1 REVERT JUMPDEST PUSH1 0x0 DUP1 REVERT JUMPDEST PUSH4 0x4E487B71 PUSH1 0xE0 SHL PUSH1 0x0 MSTORE PUSH1 0x41 PUSH1 0x4 MSTORE PUSH1 0x24 PUSH1 0x0 REVERT JUMPDEST MLOAD SWAP1 PUSH1 0x1 PUSH1 0x1 PUSH1 0xA0 SHL SUB DUP3 AND DUP3 SUB PUSH3 0xDE JUMPI JUMP INVALID PUSH1 0x80 PUSH1 0x40 DUP2 DUP2 MSTORE PUSH1 0x4 DUP1 CALLDATASIZE LT ISZERO PUSH2 0x21 JUMPI JUMPDEST POP POP POP CALLDATASIZE ISZERO PUSH2 0x1F JUMPI PUSH1 0x0 DUP1 REVERT JUMPDEST STOP JUMPDEST PUSH1 0x0 SWAP3 DUP4 CALLDATALOAD PUSH1 0xE0 SHR SWAP1 DUP2 PUSH4 0x55C796B EQ PUSH2 0x1B6F JUMPI POP DUP1 PUSH4 0x7C7A72D EQ PUSH2 0x163D JUMPI DUP1 PUSH4 0x112CD223 EQ PUSH2 0x1954 JUMPI DUP1 PUSH4 0x1ABF8705 EQ PUSH2 0x1913 JUMPI DUP1 PUSH4 0x256BA741 EQ PUSH2 0x1737 JUMPI DUP1 PUSH4 0x2F2E594E EQ PUSH2 0xA2E JUMPI DUP1 PUSH4 0x2F7C165E EQ PUSH2 0x1776 JUMPI DUP1 PUSH4 0x2FF44B6F EQ PUSH2 0x1274 JUMPI DUP1 PUSH4 0x34EBA166 EQ PUSH2 0x1737 JUMPI DUP1 PUSH4 0x39ADAC4D EQ PUSH2 0x1683 JUMPI DUP1 PUSH4 0x3BEB9842 EQ PUSH2 0x163D JUMPI DUP1 PUSH4 0x41ED2C12 EQ PUSH2 0x1614 JUMPI DUP1 PUSH4 0x41EE37D1 EQ PUSH2 0x15F8 JUMPI DUP1 PUSH4 0x48FEF595 EQ PUSH2 0x13CD JUMPI DUP1 PUSH4 0x4F44289D EQ PUSH2 0xA6D JUMPI DUP1 PUSH4 0x52238FDD EQ PUSH2 0x13A3 JUMPI DUP1 PUSH4 0x539AA77F EQ PUSH2 0x1386 JUMPI DUP1 PUSH4 0x593F35F4 EQ PUSH2 0x12BA JUMPI DUP1 PUSH4 0x5D1C5820 EQ PUSH2 0x1274 JUMPI DUP1 PUSH4 0x5E0083DA EQ PUSH2 0x1120 JUMPI DUP1 PUSH4 0x674D20CB EQ PUSH2 0xF0E JUMPI DUP1 PUSH4 0x67561D93 EQ PUSH2 0xE63 JUMPI DUP1 PUSH4 0x69328DEC EQ PUSH2 0xD3B JUMPI DUP1 PUSH4 0x6C1B5C8A EQ PUSH2 0xD06 JUMPI DUP1 PUSH4 0x6E861C0E EQ PUSH2 0xCA0 JUMPI DUP1 PUSH4 0x6EE02A9B EQ PUSH2 0xB59 JUMPI DUP1 PUSH4 0x715018A6 EQ PUSH2 0xB0E JUMPI DUP1 PUSH4 0x7A3CF742 EQ PUSH2 0xAAE JUMPI DUP1 PUSH4 0x7DE42634 EQ PUSH2 0xA6D JUMPI DUP1 PUSH4 0x847CF782 EQ PUSH2 0xA2E JUMPI DUP1 PUSH4 0x8DA5CB5B EQ PUSH2 0xA06 JUMPI DUP1 PUSH4 0x95F41095 EQ PUSH2 0x880 JUMPI DUP1 PUSH4 0xA16D5960 EQ PUSH2 0x7C0 JUMPI DUP1 PUSH4 0xA24693ED EQ PUSH2 0x774 JUMPI DUP1 PUSH4 0xBE10862B EQ PUSH2 0x74B JUMPI DUP1 PUSH4 0xC15D9807 EQ PUSH2 0x630 JUMPI DUP1 PUSH4 0xD5B9221B EQ PUSH2 0x5F2 JUMPI DUP1 PUSH4 0xD82AFF11 EQ PUSH2 0x4FD JUMPI DUP1 PUSH4 0xDC4CE349 EQ PUSH2 0x26F JUMPI DUP1 PUSH4 0xF0824F33 EQ PUSH2 0x2B1 JUMPI DUP1 PUSH4 0xF133A04F EQ PUSH2 0x26F JUMPI PUSH4 0xF2FDE38B SUB PUSH2 0x11 JUMPI CALLVALUE PUSH2 0x26B JUMPI PUSH1 0x20 CALLDATASIZE PUSH1 0x3 NOT ADD SLT PUSH2 0x26B JUMPI PUSH2 0x211 PUSH2 0x1BA3 JUMP JUMPDEST SWAP1 PUSH2 0x21A PUSH2 0x1CA0 JUMP JUMPDEST PUSH1 0x1 PUSH1 0x1 PUSH1 0xA0 SHL SUB SWAP2 DUP3 AND SWAP3 DUP4 ISZERO PUSH2 0x255 JUMPI POP POP DUP3 SLOAD PUSH1 0x1 PUSH1 0x1 PUSH1 0xA0 SHL SUB NOT DUP2 AND DUP4 OR DUP5 SSTORE AND PUSH1 0x0 DUP1 MLOAD PUSH1 0x20 PUSH2 0x20F8 DUP4 CODECOPY DUP2 MLOAD SWAP2 MSTORE DUP4 DUP1 LOG3 DUP1 RETURN JUMPDEST MLOAD PUSH4 0x1E4FBDF7 PUSH1 0xE0 SHL DUP2 MSTORE SWAP1 DUP2 ADD DUP5 SWAP1 MSTORE PUSH1 0x24 SWAP1 REVERT JUMPDEST DUP3 DUP1 REVERT JUMPDEST POP POP CALLVALUE PUSH2 0x2AD JUMPI DUP1 PUSH1 0x20 SWAP3 PUSH2 0x283 CALLDATASIZE PUSH2 0x1C76 JUMP JUMPDEST SWAP2 DUP4 MSTORE PUSH1 0x6 DUP7 MSTORE DUP4 DUP4 KECCAK256 SWAP1 DUP4 MSTORE DUP6 MSTORE DUP3 DUP3 KECCAK256 PUSH1 0x1 PUSH1 0x1 PUSH1 0xA0 SHL SUB SWAP1 SWAP2 AND DUP3 MSTORE DUP5 MSTORE KECCAK256 SLOAD SWAP1 MLOAD SWAP1 DUP2 MSTORE RETURN JUMPDEST POP DUP1 REVERT JUMPDEST POP SWAP2 SWAP1 CALLVALUE PUSH2 0x2AD JUMPI DUP1 PUSH1 0x3 NOT CALLDATASIZE ADD SLT PUSH2 0x2AD JUMPI PUSH2 0x2CC PUSH2 0x1BA3 JUMP JUMPDEST SWAP1 PUSH1 0x24 CALLDATALOAD SWAP2 CALLER DUP5 MSTORE PUSH1 0x20 PUSH1 0x2 DUP2 MSTORE PUSH1 0xFF DUP4 DUP7 KECCAK256 SLOAD AND ISZERO PUSH2 0x4A8 JUMPI DUP4 ISZERO PUSH2 0x2F2 DUP2 ISZERO PUSH2 0x1D14 JUMP JUMPDEST PUSH2 0x7D0 SWAP1 DUP2 DUP7 MUL SWAP2 DUP7 DUP4 DIV EQ OR ISZERO PUSH2 0x495 JUMPI DUP6 SWAP4 SWAP3 SWAP2 PUSH2 0x2710 DUP9 SWAP3 DIV SWAP2 PUSH2 0x319 DUP4 DUP9 PUSH2 0x1DEC JUMP JUMPDEST PUSH1 0x1 PUSH1 0x1 PUSH1 0xA0 SHL SUB SWAP5 DUP6 AND SWAP8 SWAP1 SWAP5 SWAP1 DUP9 PUSH2 0x3E3 JUMPI SWAP7 DUP5 SWAP2 PUSH2 0x34B PUSH1 0x0 DUP1 MLOAD PUSH1 0x20 PUSH2 0x2098 DUP4 CODECOPY DUP2 MLOAD SWAP2 MSTORE SWAP10 SELFBALANCE LT ISZERO PUSH2 0x1E06 JUMP JUMPDEST DUP3 PUSH2 0x3BF JUMPI JUMPDEST POP POP POP JUMPDEST DUP7 DUP9 MSTORE DUP2 MSTORE DUP4 DUP8 KECCAK256 PUSH2 0x368 DUP5 DUP3 SLOAD PUSH2 0x1DF9 JUMP JUMPDEST SWAP1 SSTORE DUP6 PUSH1 0x0 DUP1 MLOAD PUSH1 0x20 PUSH2 0x20D8 DUP4 CODECOPY DUP2 MLOAD SWAP2 MSTORE PUSH1 0x80 DUP7 MLOAD DUP7 DUP2 MSTORE DUP8 DUP6 DUP3 ADD MSTORE PUSH1 0x1D DUP9 DUP3 ADD MSTORE PUSH32 0x44697265637420706C6174666F726D20706F6F6C206164646974696F6E000000 PUSH1 0x60 DUP3 ADD MSTORE LOG2 DUP4 MLOAD SWAP3 DUP4 MSTORE DUP3 ADD MSTORE LOG2 DUP1 RETURN JUMPDEST DUP2 DUP1 PUSH2 0x3DB SWAP5 DUP2 SWAP4 PUSH1 0x1 SLOAD AND GAS CALL PUSH2 0x3D5 PUSH2 0x1E5D JUMP JUMPDEST POP PUSH2 0x1E9C JUMP JUMPDEST DUP3 DUP9 DUP11 PUSH2 0x351 JUMP JUMPDEST DUP7 MLOAD PUSH4 0x70A08231 PUSH1 0xE0 SHL DUP2 MSTORE ADDRESS DUP5 DUP3 ADD MSTORE SWAP1 SWAP8 POP DUP4 DUP2 PUSH1 0x24 DUP2 DUP13 GAS STATICCALL SWAP1 DUP2 ISZERO PUSH2 0x48B JUMPI DUP11 SWAP2 PUSH2 0x44C JUMPI JUMPDEST POP PUSH1 0x0 DUP1 MLOAD PUSH1 0x20 PUSH2 0x2098 DUP4 CODECOPY DUP2 MLOAD SWAP2 MSTORE SWAP8 PUSH2 0x429 SWAP2 LT ISZERO PUSH2 0x1D94 JUMP JUMPDEST DUP4 DUP1 PUSH2 0x437 JUMPI JUMPDEST POP POP PUSH2 0x355 JUMP JUMPDEST PUSH2 0x445 SWAP2 PUSH1 0x1 SLOAD AND DUP10 PUSH2 0x1EF9 JUMP JUMPDEST DUP9 DUP4 PUSH2 0x430 JUMP JUMPDEST SWAP1 POP DUP4 DUP2 DUP2 RETURNDATASIZE DUP4 GT PUSH2 0x484 JUMPI JUMPDEST PUSH2 0x463 DUP2 DUP4 PUSH2 0x1D5B JUMP JUMPDEST DUP2 ADD SUB SLT PUSH2 0x480 JUMPI MLOAD PUSH1 0x0 DUP1 MLOAD PUSH1 0x20 PUSH2 0x2098 DUP4 CODECOPY DUP2 MLOAD SWAP2 MSTORE PUSH2 0x40D JUMP JUMPDEST DUP10 DUP1 REVERT JUMPDEST POP RETURNDATASIZE PUSH2 0x459 JUMP JUMPDEST DUP8 MLOAD RETURNDATASIZE DUP13 DUP3 RETURNDATACOPY RETURNDATASIZE SWAP1 REVERT JUMPDEST PUSH4 0x4E487B71 PUSH1 0xE0 SHL DUP7 MSTORE PUSH1 0x11 DUP8 MSTORE PUSH1 0x24 DUP7 REVERT JUMPDEST DUP6 PUSH1 0x84 SWAP2 DUP5 MLOAD SWAP2 PUSH3 0x461BCD PUSH1 0xE5 SHL DUP4 MSTORE DUP3 ADD MSTORE PUSH1 0x3C PUSH1 0x24 DUP3 ADD MSTORE PUSH1 0x0 DUP1 MLOAD PUSH1 0x20 PUSH2 0x2118 DUP4 CODECOPY DUP2 MLOAD SWAP2 MSTORE PUSH1 0x44 DUP3 ADD MSTORE PUSH28 0x18DD1CC818D85B88185919081D1BC81C1B185D199BDC9B481C1BDBDB PUSH1 0x22 SHL PUSH1 0x64 DUP3 ADD MSTORE REVERT JUMPDEST POP DUP3 SWAP1 CALLVALUE PUSH2 0x2AD JUMPI PUSH1 0x20 CALLDATASIZE PUSH1 0x3 NOT ADD SLT PUSH2 0x2AD JUMPI PUSH2 0x519 PUSH2 0x1BA3 JUMP JUMPDEST PUSH2 0x521 PUSH2 0x1CA0 JUMP JUMPDEST PUSH1 0x1 PUSH1 0x1 PUSH1 0xA0 SHL SUB SWAP1 DUP2 AND SWAP2 DUP3 ISZERO PUSH2 0x59E JUMPI POP PUSH1 0x3 DUP1 SLOAD PUSH1 0x1 PUSH1 0x1 PUSH1 0xA0 SHL SUB NOT DUP2 AND DUP5 OR SWAP1 SWAP2 SSTORE DUP3 DUP5 MSTORE PUSH1 0x2 PUSH1 0x20 MSTORE SWAP4 DUP4 KECCAK256 DUP1 SLOAD PUSH1 0xFF NOT AND PUSH1 0x1 OR SWAP1 SSTORE SWAP2 SWAP3 SWAP1 SWAP2 DUP3 SWAP2 AND PUSH32 0x6D5236C24F887CEA37FD19D8FFFC6C47B564AF445BAF220A6C7F9A58BB6AE04E DUP5 DUP1 LOG3 PUSH1 0x0 DUP1 MLOAD PUSH1 0x20 PUSH2 0x20B8 DUP4 CODECOPY DUP2 MLOAD SWAP2 MSTORE DUP3 DUP1 LOG2 DUP1 RETURN JUMPDEST PUSH1 0x84 SWAP1 PUSH1 0x20 DUP7 MLOAD SWAP2 PUSH3 0x461BCD PUSH1 0xE5 SHL DUP4 MSTORE DUP3 ADD MSTORE PUSH1 0x28 PUSH1 0x24 DUP3 ADD MSTORE PUSH32 0x54726561737572793A20496E76616C6964206D61726B6574206D616E61676572 PUSH1 0x44 DUP3 ADD MSTORE PUSH8 0x2061646472657373 PUSH1 0xC0 SHL PUSH1 0x64 DUP3 ADD MSTORE REVERT JUMPDEST POP POP CALLVALUE PUSH2 0x2AD JUMPI PUSH1 0x20 CALLDATASIZE PUSH1 0x3 NOT ADD SLT PUSH2 0x2AD JUMPI PUSH1 0x20 SWAP2 PUSH1 0xFF SWAP1 DUP3 SWAP1 PUSH1 0x1 PUSH1 0x1 PUSH1 0xA0 SHL SUB PUSH2 0x61D PUSH2 0x1BA3 JUMP JUMPDEST AND DUP2 MSTORE PUSH1 0x2 DUP6 MSTORE KECCAK256 SLOAD AND SWAP1 MLOAD SWAP1 ISZERO ISZERO DUP2 MSTORE RETURN JUMPDEST POP SWAP2 SWAP1 CALLVALUE PUSH2 0x2AD JUMPI PUSH2 0x641 CALLDATASIZE PUSH2 0x1C09 JUMP JUMPDEST SWAP4 SWAP3 SWAP6 SWAP1 SWAP2 SWAP6 CALLER DUP7 MSTORE PUSH1 0x20 SWAP2 PUSH1 0x2 DUP4 MSTORE PUSH1 0xFF DUP6 DUP9 KECCAK256 SLOAD AND ISZERO PUSH2 0x6FA JUMPI DUP6 ISZERO PUSH2 0x6B9 JUMPI POP DUP6 SWAP7 DUP2 PUSH2 0x6B4 SWAP7 SWAP8 MSTORE PUSH1 0x9 DUP4 MSTORE DUP5 DUP9 KECCAK256 PUSH1 0x1 DUP1 PUSH1 0xA0 SHL SUB DUP1 SWAP3 AND DUP10 MSTORE DUP4 MSTORE DUP5 DUP9 KECCAK256 SWAP4 AND SWAP3 DUP4 DUP9 MSTORE DUP3 MSTORE DUP4 DUP8 KECCAK256 PUSH2 0x69B DUP8 DUP3 SLOAD PUSH2 0x1DF9 JUMP JUMPDEST SWAP1 SSTORE DUP7 MSTORE PUSH1 0x7 DUP2 MSTORE DUP3 DUP7 KECCAK256 SWAP2 DUP7 MSTORE MSTORE DUP4 KECCAK256 SWAP2 DUP3 SLOAD PUSH2 0x1DF9 JUMP JUMPDEST SWAP1 SSTORE DUP1 RETURN JUMPDEST PUSH1 0x64 SWAP1 DUP4 DUP1 DUP8 MLOAD SWAP3 PUSH3 0x461BCD PUSH1 0xE5 SHL DUP5 MSTORE DUP4 ADD MSTORE PUSH1 0x24 DUP3 ADD MSTORE PUSH32 0x54726561737572793A20496E76616C696420737570706F727420616D6F756E74 PUSH1 0x44 DUP3 ADD MSTORE REVERT JUMPDEST DUP5 MLOAD PUSH3 0x461BCD PUSH1 0xE5 SHL DUP2 MSTORE SWAP1 DUP2 ADD DUP4 SWAP1 MSTORE PUSH1 0x37 PUSH1 0x24 DUP3 ADD MSTORE PUSH1 0x0 DUP1 MLOAD PUSH1 0x20 PUSH2 0x2118 DUP4 CODECOPY DUP2 MLOAD SWAP2 MSTORE PUSH1 0x44 DUP3 ADD MSTORE PUSH23 0x6374732063616E20737570706F7274206D61726B657473 PUSH1 0x48 SHL PUSH1 0x64 DUP3 ADD MSTORE PUSH1 0x84 SWAP1 REVERT JUMPDEST POP POP CALLVALUE PUSH2 0x2AD JUMPI DUP2 PUSH1 0x3 NOT CALLDATASIZE ADD SLT PUSH2 0x2AD JUMPI PUSH1 0x1 SLOAD SWAP1 MLOAD PUSH1 0x1 PUSH1 0x1 PUSH1 0xA0 SHL SUB SWAP1 SWAP2 AND DUP2 MSTORE PUSH1 0x20 SWAP1 RETURN JUMPDEST POP CALLVALUE PUSH2 0x26B JUMPI PUSH1 0x60 CALLDATASIZE PUSH1 0x3 NOT ADD SLT PUSH2 0x26B JUMPI PUSH1 0x20 SWAP3 DUP3 SWAP2 PUSH2 0x793 PUSH2 0x1BBE JUMP JUMPDEST SWAP1 CALLDATALOAD DUP3 MSTORE PUSH1 0xA DUP6 MSTORE DUP3 DUP3 KECCAK256 PUSH1 0x1 PUSH1 0x1 PUSH1 0xA0 SHL SUB SWAP1 SWAP2 AND DUP3 MSTORE DUP5 MSTORE DUP2 DUP2 KECCAK256 PUSH1 0x44 CALLDATALOAD DUP3 MSTORE DUP5 MSTORE KECCAK256 SLOAD SWAP1 MLOAD SWAP1 DUP2 MSTORE RETURN JUMPDEST POP CALLVALUE PUSH2 0x26B JUMPI PUSH1 0x20 CALLDATASIZE PUSH1 0x3 NOT ADD SLT PUSH2 0x26B JUMPI PUSH2 0x7DA PUSH2 0x1BA3 JUMP JUMPDEST SWAP1 PUSH2 0x7E3 PUSH2 0x1CA0 JUMP JUMPDEST PUSH1 0x1 PUSH1 0x1 PUSH1 0xA0 SHL SUB SWAP2 DUP3 AND SWAP3 DUP4 ISZERO PUSH2 0x833 JUMPI POP POP PUSH1 0x1 DUP1 SLOAD PUSH1 0x1 PUSH1 0x1 PUSH1 0xA0 SHL SUB NOT DUP2 AND DUP5 OR SWAP1 SWAP2 SSTORE AND PUSH32 0xC853BE2B3168A7FE00E46DA23214C5345A752DC61CD3300D7F255F8AE5534587 DUP4 DUP1 LOG3 DUP1 RETURN JUMPDEST SWAP1 PUSH1 0x20 PUSH1 0x84 SWAP3 MLOAD SWAP2 PUSH3 0x461BCD PUSH1 0xE5 SHL DUP4 MSTORE DUP3 ADD MSTORE PUSH1 0x21 PUSH1 0x24 DUP3 ADD MSTORE PUSH32 0x54726561737572793A20496E76616C696420706172746E657220616464726573 PUSH1 0x44 DUP3 ADD MSTORE PUSH1 0x73 PUSH1 0xF8 SHL PUSH1 0x64 DUP3 ADD MSTORE REVERT JUMPDEST POP SWAP2 SWAP1 CALLVALUE PUSH2 0x2AD JUMPI PUSH1 0xA0 CALLDATASIZE PUSH1 0x3 NOT ADD SLT PUSH2 0x2AD JUMPI DUP3 CALLDATALOAD SWAP1 PUSH2 0x89F PUSH2 0x1BBE JUMP JUMPDEST PUSH1 0x1 PUSH1 0x1 PUSH1 0xA0 SHL SUB SWAP5 PUSH1 0x44 CALLDATALOAD DUP7 DUP2 AND SWAP3 SWAP1 DUP4 SWAP1 SUB PUSH2 0xA02 JUMPI PUSH1 0x64 CALLDATALOAD SWAP5 PUSH1 0x84 CALLDATALOAD SWAP2 CALLER DUP9 MSTORE PUSH1 0x20 SWAP4 PUSH1 0x2 DUP6 MSTORE PUSH1 0xFF DUP8 DUP11 KECCAK256 SLOAD AND ISZERO PUSH2 0x9B4 JUMPI DUP8 ISZERO PUSH2 0x971 JUMPI POP DUP8 SWAP9 DUP3 PUSH2 0x6B4 SWAP9 SWAP10 MSTORE PUSH1 0x8 DUP6 MSTORE DUP7 DUP11 KECCAK256 SWAP2 AND SWAP1 DUP2 DUP11 MSTORE DUP5 MSTORE DUP6 DUP10 KECCAK256 DUP6 DUP11 MSTORE DUP5 MSTORE DUP6 DUP10 KECCAK256 PUSH2 0x90A DUP10 DUP3 SLOAD PUSH2 0x1DF9 JUMP JUMPDEST SWAP1 SSTORE DUP2 DUP10 MSTORE PUSH1 0xA DUP5 MSTORE DUP6 DUP10 KECCAK256 SWAP1 DUP10 MSTORE DUP4 MSTORE DUP5 DUP9 KECCAK256 DUP3 DUP10 MSTORE DUP4 MSTORE DUP5 DUP9 KECCAK256 PUSH2 0x931 DUP9 DUP3 SLOAD PUSH2 0x1DF9 JUMP JUMPDEST SWAP1 SSTORE DUP1 DUP9 MSTORE PUSH1 0x5 DUP4 MSTORE DUP5 DUP9 KECCAK256 DUP5 DUP10 MSTORE DUP4 MSTORE DUP5 DUP9 KECCAK256 PUSH2 0x950 DUP9 DUP3 SLOAD PUSH2 0x1DF9 JUMP JUMPDEST SWAP1 SSTORE DUP8 MSTORE PUSH1 0x6 DUP3 MSTORE DUP4 DUP8 KECCAK256 SWAP1 DUP8 MSTORE DUP2 MSTORE DUP3 DUP7 KECCAK256 SWAP2 DUP7 MSTORE MSTORE DUP4 KECCAK256 SWAP2 DUP3 SLOAD PUSH2 0x1DF9 JUMP JUMPDEST DUP7 MLOAD PUSH3 0x461BCD PUSH1 0xE5 SHL DUP2 MSTORE SWAP1 DUP2 ADD DUP6 SWAP1 MSTORE PUSH1 0x1E PUSH1 0x24 DUP3 ADD MSTORE PUSH32 0x54726561737572793A20496E76616C6964207374616B6520616D6F756E740000 PUSH1 0x44 DUP3 ADD MSTORE PUSH1 0x64 SWAP1 REVERT JUMPDEST DUP7 MLOAD PUSH3 0x461BCD PUSH1 0xE5 SHL DUP2 MSTORE SWAP1 DUP2 ADD DUP6 SWAP1 MSTORE PUSH1 0x34 PUSH1 0x24 DUP3 ADD MSTORE PUSH1 0x0 DUP1 MLOAD PUSH1 0x20 PUSH2 0x2118 DUP4 CODECOPY DUP2 MLOAD SWAP2 MSTORE PUSH1 0x44 DUP3 ADD MSTORE PUSH20 0x6374732063616E20706C616365207374616B6573 PUSH1 0x60 SHL PUSH1 0x64 DUP3 ADD MSTORE PUSH1 0x84 SWAP1 REVERT JUMPDEST DUP6 DUP1 REVERT JUMPDEST POP POP CALLVALUE PUSH2 0x2AD JUMPI DUP2 PUSH1 0x3 NOT CALLDATASIZE ADD SLT PUSH2 0x2AD JUMPI SWAP1 SLOAD SWAP1 MLOAD PUSH1 0x1 PUSH1 0x1 PUSH1 0xA0 SHL SUB SWAP1 SWAP2 AND DUP2 MSTORE PUSH1 0x20 SWAP1 RETURN JUMPDEST POP POP CALLVALUE PUSH2 0x2AD JUMPI DUP1 PUSH1 0x20 SWAP3 PUSH2 0xA42 CALLDATASIZE PUSH2 0x1BD4 JUMP JUMPDEST SWAP2 DUP4 MSTORE PUSH1 0x8 DUP7 MSTORE DUP4 DUP4 KECCAK256 PUSH1 0x1 PUSH1 0x1 PUSH1 0xA0 SHL SUB SWAP2 DUP3 AND DUP5 MSTORE DUP7 MSTORE DUP4 DUP4 KECCAK256 SWAP2 AND DUP3 MSTORE DUP5 MSTORE KECCAK256 SLOAD SWAP1 MLOAD SWAP1 DUP2 MSTORE RETURN JUMPDEST POP CALLVALUE PUSH2 0x26B JUMPI DUP2 PUSH1 0x3 NOT CALLDATASIZE ADD SLT PUSH2 0x26B JUMPI PUSH1 0x20 SWAP3 DUP3 SWAP2 PUSH2 0xA8B PUSH2 0x1BBE JUMP JUMPDEST SWAP1 CALLDATALOAD DUP3 MSTORE PUSH1 0x7 DUP6 MSTORE DUP3 DUP3 KECCAK256 PUSH1 0x1 PUSH1 0x1 PUSH1 0xA0 SHL SUB SWAP1 SWAP2 AND DUP3 MSTORE DUP5 MSTORE KECCAK256 SLOAD SWAP1 MLOAD SWAP1 DUP2 MSTORE RETURN JUMPDEST POP CALLVALUE PUSH2 0x26B JUMPI DUP2 PUSH1 0x3 NOT CALLDATASIZE ADD SLT PUSH2 0x26B JUMPI PUSH1 0x20 SWAP3 DUP3 PUSH2 0xB07 SWAP3 CALLDATALOAD SWAP2 PUSH2 0xAD1 PUSH2 0x1BBE JUMP JUMPDEST DUP4 DUP3 MSTORE PUSH1 0x5 DUP8 MSTORE DUP3 DUP3 KECCAK256 PUSH1 0x1 PUSH1 0x1 PUSH1 0xA0 SHL SUB SWAP1 SWAP2 AND DUP1 DUP4 MSTORE SWAP1 DUP8 MSTORE DUP3 DUP3 KECCAK256 SLOAD SWAP4 DUP3 MSTORE PUSH1 0x7 DUP8 MSTORE DUP3 DUP3 KECCAK256 SWAP1 DUP3 MSTORE DUP7 MSTORE KECCAK256 SLOAD SWAP1 PUSH2 0x1DF9 JUMP JUMPDEST SWAP1 MLOAD SWAP1 DUP2 MSTORE RETURN JUMPDEST DUP4 CALLVALUE PUSH2 0xB56 JUMPI DUP1 PUSH1 0x3 NOT CALLDATASIZE ADD SLT PUSH2 0xB56 JUMPI PUSH2 0xB27 PUSH2 0x1CA0 JUMP JUMPDEST DUP1 SLOAD PUSH1 0x1 PUSH1 0x1 PUSH1 0xA0 SHL SUB NOT DUP2 AND DUP3 SSTORE DUP2 SWAP1 PUSH1 0x1 PUSH1 0x1 PUSH1 0xA0 SHL SUB AND PUSH1 0x0 DUP1 MLOAD PUSH1 0x20 PUSH2 0x20F8 DUP4 CODECOPY DUP2 MLOAD SWAP2 MSTORE DUP3 DUP1 LOG3 DUP1 RETURN JUMPDEST DUP1 REVERT JUMPDEST POP DUP3 CALLVALUE PUSH2 0xB56 JUMPI PUSH1 0x20 DUP1 PUSH1 0x3 NOT CALLDATASIZE ADD SLT PUSH2 0x2AD JUMPI DUP3 CALLDATALOAD SWAP2 PUSH1 0x1 PUSH1 0x1 PUSH1 0x40 SHL SUB DUP1 DUP5 GT PUSH2 0x2AD JUMPI CALLDATASIZE PUSH1 0x23 DUP6 ADD SLT ISZERO PUSH2 0x2AD JUMPI DUP4 DUP6 ADD CALLDATALOAD SWAP1 DUP2 GT PUSH2 0x2AD JUMPI PUSH1 0x24 SWAP1 PUSH1 0x5 SWAP6 CALLDATASIZE DUP4 DUP4 DUP10 SHL DUP9 ADD ADD GT PUSH2 0xC9C JUMPI PUSH2 0xBB7 DUP3 SWAP9 SWAP8 SWAP7 SWAP5 SWAP6 SWAP9 PUSH2 0x2060 JUMP JUMPDEST SWAP4 PUSH2 0xBC4 DUP9 MLOAD SWAP6 DUP7 PUSH2 0x1D5B JUMP JUMPDEST DUP3 DUP6 MSTORE PUSH2 0xBD0 DUP4 PUSH2 0x2060 JUMP JUMPDEST DUP6 DUP11 ADD SWAP8 SWAP1 PUSH1 0x1F NOT ADD CALLDATASIZE DUP10 CALLDATACOPY DUP7 JUMPDEST DUP5 DUP2 LT PUSH2 0xC26 JUMPI POP POP POP POP POP POP DUP4 MLOAD SWAP5 DUP6 SWAP5 DUP2 DUP7 ADD SWAP3 DUP3 DUP8 MSTORE MLOAD DUP1 SWAP4 MSTORE DUP6 ADD SWAP4 SWAP3 JUMPDEST DUP3 DUP2 LT PUSH2 0xC0F JUMPI POP POP POP POP SUB SWAP1 RETURN JUMPDEST DUP4 MLOAD DUP6 MSTORE DUP7 SWAP6 POP SWAP4 DUP2 ADD SWAP4 SWAP3 DUP2 ADD SWAP3 PUSH1 0x1 ADD PUSH2 0xC00 JUMP JUMPDEST DUP1 DUP3 SWAP12 SWAP9 SWAP8 SWAP10 SWAP11 SWAP12 SHL DUP7 DUP2 DUP6 ADD ADD CALLDATALOAD PUSH1 0x1 DUP1 PUSH1 0xA0 SHL SUB DUP2 AND DUP1 SWAP2 SUB PUSH2 0xC98 JUMPI DUP9 MSTORE DUP5 DUP10 MSTORE DUP12 DUP9 KECCAK256 SLOAD SWAP1 DUP11 MLOAD DUP4 LT ISZERO PUSH2 0xC86 JUMPI DUP11 ADD DUP10 ADD MSTORE PUSH1 0x0 NOT DUP2 EQ PUSH2 0xC74 JUMPI PUSH1 0x1 ADD SWAP10 SWAP9 SWAP8 SWAP6 SWAP7 SWAP10 PUSH2 0xBDE JUMP JUMPDEST PUSH4 0x4E487B71 PUSH1 0xE0 SHL DUP8 MSTORE PUSH1 0x11 DUP5 MSTORE DUP6 DUP8 REVERT JUMPDEST PUSH4 0x4E487B71 PUSH1 0xE0 SHL DUP10 MSTORE PUSH1 0x32 DUP7 MSTORE DUP8 DUP10 REVERT JUMPDEST DUP9 DUP1 REVERT JUMPDEST DUP4 DUP1 REVERT JUMPDEST POP POP CALLVALUE PUSH2 0x2AD JUMPI PUSH1 0x20 CALLDATASIZE PUSH1 0x3 NOT ADD SLT PUSH2 0x2AD JUMPI PUSH2 0xCBB PUSH2 0x1BA3 JUMP JUMPDEST PUSH2 0xCC3 PUSH2 0x1CA0 JUMP JUMPDEST PUSH1 0x1 PUSH1 0x1 PUSH1 0xA0 SHL SUB AND DUP1 DUP4 MSTORE PUSH1 0x2 PUSH1 0x20 MSTORE SWAP1 DUP3 KECCAK256 DUP1 SLOAD PUSH1 0xFF NOT AND SWAP1 SSTORE PUSH32 0x54142B7CB3CEAA9E564243CE4CC2303723C842A1144192DE6B3C594F68B16A9A DUP3 DUP1 LOG2 DUP1 RETURN JUMPDEST POP CALLVALUE PUSH2 0x26B JUMPI PUSH1 0x20 CALLDATASIZE PUSH1 0x3 NOT ADD SLT PUSH2 0x26B JUMPI PUSH1 0x20 SWAP3 DUP3 SWAP2 PUSH1 0x1 PUSH1 0x1 PUSH1 0xA0 SHL SUB PUSH2 0xD2D PUSH2 0x1BA3 JUMP JUMPDEST AND DUP3 MSTORE DUP5 MSTORE KECCAK256 SLOAD SWAP1 MLOAD SWAP1 DUP2 MSTORE RETURN JUMPDEST POP CALLVALUE PUSH2 0x26B JUMPI PUSH2 0xD4A CALLDATASIZE PUSH2 0x1C42 JUMP JUMPDEST SWAP2 SWAP4 PUSH2 0xD54 PUSH2 0x1CA0 JUMP JUMPDEST PUSH1 0x1 PUSH1 0x1 PUSH1 0xA0 SHL SUB DUP4 DUP2 AND SWAP6 DUP8 SWAP2 SWAP1 PUSH2 0xD6E DUP9 ISZERO ISZERO PUSH2 0x1F9A JUMP JUMPDEST PUSH2 0xD79 DUP6 ISZERO ISZERO PUSH2 0x1D14 JUMP JUMPDEST AND SWAP5 DUP6 PUSH2 0xDC1 JUMPI POP SWAP1 PUSH2 0xDB9 DUP3 DUP1 DUP1 DUP7 SWAP6 DUP7 PUSH1 0x0 DUP1 MLOAD PUSH1 0x20 PUSH2 0x2138 DUP4 CODECOPY DUP2 MLOAD SWAP2 MSTORE SWAP10 PUSH2 0xDA9 PUSH1 0x20 SWAP11 SELFBALANCE LT ISZERO PUSH2 0x1E06 JUMP JUMPDEST GAS CALL PUSH2 0xDB3 PUSH2 0x1E5D JUMP JUMPDEST POP PUSH2 0x1FE4 JUMP JUMPDEST MLOAD SWAP1 DUP2 MSTORE LOG3 DUP1 RETURN JUMPDEST SWAP1 POP DUP2 MLOAD SWAP1 PUSH4 0x70A08231 PUSH1 0xE0 SHL DUP3 MSTORE ADDRESS SWAP1 DUP3 ADD MSTORE PUSH1 0x20 DUP2 PUSH1 0x24 DUP2 DUP9 GAS STATICCALL SWAP1 DUP2 ISZERO PUSH2 0xE59 JUMPI DUP8 SWAP2 PUSH2 0xE1C JUMPI JUMPDEST POP SWAP1 PUSH2 0xE17 DUP4 PUSH1 0x0 DUP1 MLOAD PUSH1 0x20 PUSH2 0x2138 DUP4 CODECOPY DUP2 MLOAD SWAP2 MSTORE SWAP6 PUSH2 0xE11 DUP3 PUSH1 0x20 SWAP8 SWAP7 LT ISZERO PUSH2 0x1D94 JUMP JUMPDEST DUP8 PUSH2 0x1EF9 JUMP JUMPDEST PUSH2 0xDB9 JUMP JUMPDEST SWAP3 SWAP2 SWAP1 POP PUSH1 0x20 DUP4 RETURNDATASIZE DUP3 GT PUSH2 0xE51 JUMPI JUMPDEST DUP2 PUSH2 0xE38 PUSH1 0x20 SWAP4 DUP4 PUSH2 0x1D5B JUMP JUMPDEST DUP2 ADD SUB SLT PUSH2 0xE4D JUMPI SWAP2 MLOAD SWAP1 SWAP2 SWAP1 PUSH2 0xE17 PUSH2 0xDEC JUMP JUMPDEST DUP7 DUP1 REVERT JUMPDEST RETURNDATASIZE SWAP2 POP PUSH2 0xE2B JUMP JUMPDEST DUP3 MLOAD RETURNDATASIZE DUP10 DUP3 RETURNDATACOPY RETURNDATASIZE SWAP1 REVERT JUMPDEST POP SWAP1 CALLVALUE PUSH2 0x26B JUMPI PUSH1 0x20 CALLDATASIZE PUSH1 0x3 NOT ADD SLT PUSH2 0x26B JUMPI PUSH2 0xE7E PUSH2 0x1BA3 JUMP JUMPDEST PUSH2 0xE86 PUSH2 0x1CA0 JUMP JUMPDEST PUSH1 0x1 PUSH1 0x1 PUSH1 0xA0 SHL SUB AND SWAP2 DUP3 ISZERO PUSH2 0xEC1 JUMPI POP DUP2 DUP4 MSTORE PUSH1 0x2 PUSH1 0x20 MSTORE DUP3 KECCAK256 DUP1 SLOAD PUSH1 0xFF NOT AND PUSH1 0x1 OR SWAP1 SSTORE PUSH1 0x0 DUP1 MLOAD PUSH1 0x20 PUSH2 0x20B8 DUP4 CODECOPY DUP2 MLOAD SWAP2 MSTORE DUP3 DUP1 LOG2 DUP1 RETURN JUMPDEST PUSH1 0x20 PUSH1 0x84 SWAP3 MLOAD SWAP2 PUSH3 0x461BCD PUSH1 0xE5 SHL DUP4 MSTORE DUP3 ADD MSTORE PUSH1 0x22 PUSH1 0x24 DUP3 ADD MSTORE PUSH32 0x54726561737572793A20496E76616C696420636F6E7472616374206164647265 PUSH1 0x44 DUP3 ADD MSTORE PUSH2 0x7373 PUSH1 0xF0 SHL PUSH1 0x64 DUP3 ADD MSTORE REVERT JUMPDEST POP CALLVALUE PUSH2 0x26B JUMPI PUSH2 0xF1D CALLDATASIZE PUSH2 0x1C42 JUMP JUMPDEST SWAP2 SWAP4 SWAP1 SWAP3 PUSH2 0xF29 PUSH2 0x1CA0 JUMP JUMPDEST PUSH1 0x1 PUSH1 0x1 PUSH1 0xA0 SHL SUB DUP4 DUP2 AND SWAP6 PUSH2 0xF40 DUP8 ISZERO ISZERO PUSH2 0x1F9A JUMP JUMPDEST PUSH2 0xF4B DUP7 ISZERO ISZERO PUSH2 0x1D14 JUMP JUMPDEST AND SWAP5 DUP6 DUP8 MSTORE PUSH1 0x20 SWAP4 DUP3 DUP6 MSTORE DUP6 DUP5 DUP10 KECCAK256 SLOAD LT PUSH2 0x10C8 JUMPI DUP8 DUP8 SWAP2 DUP3 DUP3 MSTORE DUP5 DUP8 MSTORE DUP6 DUP3 KECCAK256 PUSH2 0xF77 DUP10 DUP3 SLOAD PUSH2 0x1DEC JUMP JUMPDEST SWAP1 SSTORE DUP3 PUSH2 0xFFE JUMPI SWAP2 PUSH1 0x0 DUP1 MLOAD PUSH1 0x20 PUSH2 0x2078 DUP4 CODECOPY DUP2 MLOAD SWAP2 MSTORE DUP8 DUP10 PUSH2 0xFBC DUP6 DUP1 DUP1 PUSH1 0x80 SWAP14 SWAP13 SWAP11 SWAP9 PUSH1 0x0 DUP1 MLOAD PUSH1 0x20 PUSH2 0x20D8 DUP4 CODECOPY DUP2 MLOAD SWAP2 MSTORE SWAP16 PUSH1 0x19 SWAP14 SWAP12 PUSH2 0xDA9 DUP3 SELFBALANCE LT ISZERO PUSH2 0x1E06 JUMP JUMPDEST DUP7 MLOAD SWAP1 DUP2 MSTORE LOG3 DUP7 DUP9 MSTORE DUP4 MSTORE DUP1 DUP1 DUP9 KECCAK256 SLOAD SWAP4 DUP2 MLOAD SWAP5 DUP6 MSTORE DUP5 ADD MSTORE DUP3 ADD MSTORE PUSH25 0x141B185D199BDC9B48199D5B991CC81DDA5D1A191C985DD85B PUSH1 0x3A SHL PUSH1 0x60 DUP3 ADD MSTORE LOG2 DUP1 RETURN JUMPDEST SWAP2 POP POP DUP4 MLOAD PUSH4 0x70A08231 PUSH1 0xE0 SHL DUP2 MSTORE ADDRESS DUP5 DUP3 ADD MSTORE DUP6 DUP2 PUSH1 0x24 DUP2 DUP12 GAS STATICCALL SWAP1 DUP2 ISZERO PUSH2 0x10BE JUMPI SWAP1 DUP9 SWAP3 SWAP2 DUP11 SWAP2 PUSH2 0x1072 JUMPI JUMPDEST POP SWAP2 PUSH1 0x0 DUP1 MLOAD PUSH1 0x20 PUSH2 0x2078 DUP4 CODECOPY DUP2 MLOAD SWAP2 MSTORE DUP8 DUP10 PUSH2 0x106D DUP2 PUSH1 0x80 SWAP12 SWAP11 SWAP9 SWAP7 PUSH2 0x1067 PUSH1 0x0 DUP1 MLOAD PUSH1 0x20 PUSH2 0x20D8 DUP4 CODECOPY DUP2 MLOAD SWAP2 MSTORE SWAP15 PUSH1 0x19 SWAP13 SWAP11 LT ISZERO PUSH2 0x1D94 JUMP JUMPDEST DUP7 PUSH2 0x1EF9 JUMP JUMPDEST PUSH2 0xFBC JUMP JUMPDEST DUP1 SWAP6 SWAP4 POP DUP8 DUP1 SWAP8 SWAP6 SWAP4 SWAP9 SWAP3 POP RETURNDATASIZE DUP4 GT PUSH2 0x10B7 JUMPI JUMPDEST PUSH2 0x1090 DUP2 DUP4 PUSH2 0x1D5B JUMP JUMPDEST DUP2 ADD SUB SLT PUSH2 0xC98 JUMPI SWAP3 MLOAD SWAP4 SWAP5 SWAP2 SWAP4 SWAP1 SWAP3 SWAP2 DUP8 SWAP2 PUSH1 0x0 DUP1 MLOAD PUSH1 0x20 PUSH2 0x2078 DUP4 CODECOPY DUP2 MLOAD SWAP2 MSTORE PUSH2 0x102C JUMP JUMPDEST POP RETURNDATASIZE PUSH2 0x1086 JUMP JUMPDEST DUP6 MLOAD RETURNDATASIZE DUP12 DUP3 RETURNDATACOPY RETURNDATASIZE SWAP1 REVERT JUMPDEST DUP4 MLOAD PUSH3 0x461BCD PUSH1 0xE5 SHL DUP2 MSTORE DUP1 DUP5 ADD DUP7 SWAP1 MSTORE PUSH1 0x2C PUSH1 0x24 DUP3 ADD MSTORE PUSH32 0x54726561737572793A20496E73756666696369656E7420706C6174666F726D20 PUSH1 0x44 DUP3 ADD MSTORE PUSH12 0x706F6F6C2062616C616E6365 PUSH1 0xA0 SHL PUSH1 0x64 DUP3 ADD MSTORE PUSH1 0x84 SWAP1 REVERT JUMPDEST POP DUP3 SWAP1 CALLVALUE PUSH2 0x2AD JUMPI PUSH2 0x1131 CALLDATASIZE PUSH2 0x1C09 JUMP JUMPDEST SWAP3 SWAP6 SWAP1 SWAP4 CALLER DUP7 MSTORE PUSH1 0x20 PUSH1 0x2 DUP2 MSTORE PUSH1 0xFF DUP4 DUP9 KECCAK256 SLOAD AND ISZERO PUSH2 0x1227 JUMPI DUP5 ISZERO PUSH2 0x11DD JUMPI DUP8 DUP8 MSTORE PUSH1 0xB DUP2 MSTORE DUP3 DUP8 KECCAK256 PUSH1 0x1 PUSH1 0x1 PUSH1 0xA0 SHL SUB DUP6 AND DUP1 DUP10 MSTORE SWAP1 DUP3 MSTORE DUP4 DUP9 KECCAK256 SLOAD SWAP1 SWAP3 SWAP1 PUSH1 0xFF AND PUSH2 0x11A0 JUMPI POP DUP7 SWAP8 PUSH2 0x119D SWAP8 MSTORE PUSH1 0xB DUP2 MSTORE DUP3 DUP9 KECCAK256 SWAP2 DUP9 MSTORE MSTORE DUP6 KECCAK256 PUSH1 0x1 PUSH1 0xFF NOT DUP3 SLOAD AND OR SWAP1 SSTORE PUSH2 0x2030 JUMP JUMPDEST DUP1 RETURN JUMPDEST PUSH1 0x64 SWAP2 DUP5 MLOAD SWAP2 PUSH3 0x461BCD PUSH1 0xE5 SHL DUP4 MSTORE DUP3 ADD MSTORE PUSH1 0x19 PUSH1 0x24 DUP3 ADD MSTORE PUSH25 0x151C99585CDD5C9E4E88105B1C9958591E4818DB185A5B5959 PUSH1 0x3A SHL PUSH1 0x44 DUP3 ADD MSTORE REVERT JUMPDEST PUSH1 0x84 SWAP3 MLOAD SWAP2 PUSH3 0x461BCD PUSH1 0xE5 SHL DUP4 MSTORE DUP3 ADD MSTORE PUSH1 0x21 PUSH1 0x24 DUP3 ADD MSTORE PUSH32 0x54726561737572793A20496E76616C69642077696E6E696E677320616D6F756E PUSH1 0x44 DUP3 ADD MSTORE PUSH1 0x1D PUSH1 0xFA SHL PUSH1 0x64 DUP3 ADD MSTORE REVERT JUMPDEST PUSH1 0x84 SWAP3 MLOAD SWAP2 PUSH3 0x461BCD PUSH1 0xE5 SHL DUP4 MSTORE DUP3 ADD MSTORE PUSH1 0x36 PUSH1 0x24 DUP3 ADD MSTORE PUSH1 0x0 DUP1 MLOAD PUSH1 0x20 PUSH2 0x2118 DUP4 CODECOPY DUP2 MLOAD SWAP2 MSTORE PUSH1 0x44 DUP3 ADD MSTORE PUSH22 0x6374732063616E20636C61696D2077696E6E696E6773 PUSH1 0x50 SHL PUSH1 0x64 DUP3 ADD MSTORE REVERT JUMPDEST POP CALLVALUE PUSH2 0x26B JUMPI DUP2 PUSH1 0x3 NOT CALLDATASIZE ADD SLT PUSH2 0x26B JUMPI DUP2 PUSH1 0x20 SWAP4 PUSH1 0xFF SWAP3 PUSH2 0x1294 PUSH2 0x1BBE JUMP JUMPDEST SWAP1 CALLDATALOAD DUP3 MSTORE PUSH1 0xC DUP7 MSTORE DUP3 DUP3 KECCAK256 PUSH1 0x1 PUSH1 0x1 PUSH1 0xA0 SHL SUB SWAP1 SWAP2 AND DUP3 MSTORE DUP6 MSTORE KECCAK256 SLOAD SWAP2 MLOAD SWAP2 AND ISZERO ISZERO DUP2 MSTORE RETURN JUMPDEST POP DUP3 SWAP1 CALLVALUE PUSH2 0x2AD JUMPI PUSH2 0x12CB CALLDATASIZE PUSH2 0x1C09 JUMP JUMPDEST SWAP3 POP SWAP3 CALLER DUP6 MSTORE PUSH1 0x2 PUSH1 0x20 MSTORE PUSH1 0xFF DUP7 DUP7 KECCAK256 SLOAD AND ISZERO PUSH2 0x1337 JUMPI DUP3 ISZERO PUSH2 0x12F4 JUMPI POP PUSH2 0x119D SWAP4 SWAP5 POP PUSH2 0x2030 JUMP JUMPDEST PUSH1 0x64 SWAP1 PUSH1 0x20 DUP8 MLOAD SWAP2 PUSH3 0x461BCD PUSH1 0xE5 SHL DUP4 MSTORE DUP3 ADD MSTORE PUSH1 0x1F PUSH1 0x24 DUP3 ADD MSTORE PUSH32 0x54726561737572793A20496E76616C696420726566756E6420616D6F756E7400 PUSH1 0x44 DUP3 ADD MSTORE REVERT JUMPDEST PUSH1 0x84 SWAP1 PUSH1 0x20 DUP8 MLOAD SWAP2 PUSH3 0x461BCD PUSH1 0xE5 SHL DUP4 MSTORE DUP3 ADD MSTORE PUSH1 0x35 PUSH1 0x24 DUP3 ADD MSTORE PUSH1 0x0 DUP1 MLOAD PUSH1 0x20 PUSH2 0x2118 DUP4 CODECOPY DUP2 MLOAD SWAP2 MSTORE PUSH1 0x44 DUP3 ADD MSTORE PUSH21 0x6374732063616E20636C61696D20726566756E6473 PUSH1 0x58 SHL PUSH1 0x64 DUP3 ADD MSTORE REVERT JUMPDEST POP POP CALLVALUE PUSH2 0x2AD JUMPI DUP2 PUSH1 0x3 NOT CALLDATASIZE ADD SLT PUSH2 0x2AD JUMPI PUSH1 0x20 SWAP1 MLOAD PUSH2 0x1F4 DUP2 MSTORE RETURN JUMPDEST POP DUP3 CALLVALUE PUSH2 0xB56 JUMPI PUSH1 0x20 CALLDATASIZE PUSH1 0x3 NOT ADD SLT PUSH2 0xB56 JUMPI POP PUSH2 0x13C1 SWAP1 CALLDATALOAD PUSH2 0x1CCC JUMP JUMPDEST DUP3 MLOAD SWAP2 DUP3 MSTORE PUSH1 0x20 DUP3 ADD MSTORE RETURN JUMPDEST POP SWAP2 SWAP1 CALLVALUE PUSH2 0x2AD JUMPI DUP1 PUSH1 0x3 NOT CALLDATASIZE ADD SLT PUSH2 0x2AD JUMPI PUSH2 0x13E8 PUSH2 0x1BA3 JUMP JUMPDEST SWAP1 PUSH1 0x24 CALLDATALOAD SWAP2 CALLER DUP5 MSTORE PUSH1 0x20 SWAP5 PUSH1 0x2 DUP7 MSTORE PUSH1 0xFF DUP4 DUP7 KECCAK256 SLOAD AND ISZERO PUSH2 0x15A7 JUMPI DUP5 SWAP6 PUSH2 0x1412 DUP6 SWAP7 SWAP6 ISZERO ISZERO PUSH2 0x1D14 JUMP JUMPDEST PUSH2 0x141B DUP7 PUSH2 0x1CCC JUMP JUMPDEST PUSH1 0x1 PUSH1 0x1 PUSH1 0xA0 SHL SUB SWAP5 DUP6 AND SWAP8 SWAP2 SWAP5 SWAP1 SWAP4 SWAP2 DUP9 PUSH2 0x14FF JUMPI SWAP7 DUP5 SWAP2 PUSH2 0x144F PUSH1 0x0 DUP1 MLOAD PUSH1 0x20 PUSH2 0x2098 DUP4 CODECOPY DUP2 MLOAD SWAP2 MSTORE SWAP10 SELFBALANCE LT ISZERO PUSH2 0x1E06 JUMP JUMPDEST DUP3 PUSH2 0x14E1 JUMPI JUMPDEST POP POP PUSH2 0x1461 SWAP1 DUP6 PUSH2 0x1DEC JUMP JUMPDEST SWAP1 DUP8 DUP10 MSTORE DUP3 MSTORE PUSH2 0x1475 DUP6 DUP10 KECCAK256 SWAP2 DUP3 SLOAD PUSH2 0x1DF9 JUMP JUMPDEST SWAP1 SSTORE DUP6 PUSH1 0x0 DUP1 MLOAD PUSH1 0x20 PUSH2 0x20D8 DUP4 CODECOPY DUP2 MLOAD SWAP2 MSTORE PUSH2 0x14D2 PUSH2 0x1494 DUP6 DUP8 PUSH2 0x1DEC JUMP JUMPDEST DUP8 MLOAD SWAP2 DUP3 SWAP2 DUP3 PUSH1 0x80 SWAP2 DUP2 MSTORE PUSH1 0x40 PUSH1 0x20 DUP3 ADD MSTORE PUSH1 0x18 PUSH1 0x40 DUP3 ADD MSTORE PUSH24 0x2932B3BAB630B9103332B2903234B9BA3934B13ABA34B7B7 PUSH1 0x41 SHL PUSH1 0x60 DUP3 ADD MSTORE ADD SWAP1 JUMP JUMPDEST SUB SWAP1 LOG2 DUP4 MLOAD SWAP3 DUP4 MSTORE DUP3 ADD MSTORE LOG2 DUP1 RETURN JUMPDEST DUP2 DUP1 PUSH2 0x14F7 SWAP5 DUP2 SWAP4 PUSH1 0x1 SLOAD AND GAS CALL PUSH2 0x3D5 PUSH2 0x1E5D JUMP JUMPDEST DUP3 DUP9 CODESIZE PUSH2 0x1455 JUMP JUMPDEST DUP7 MLOAD PUSH4 0x70A08231 PUSH1 0xE0 SHL DUP2 MSTORE ADDRESS DUP5 DUP3 ADD MSTORE SWAP1 SWAP8 POP DUP4 DUP2 PUSH1 0x24 DUP2 DUP13 GAS STATICCALL SWAP1 DUP2 ISZERO PUSH2 0x48B JUMPI DUP11 SWAP2 PUSH2 0x156C JUMPI JUMPDEST POP PUSH1 0x0 DUP1 MLOAD PUSH1 0x20 PUSH2 0x2098 DUP4 CODECOPY DUP2 MLOAD SWAP2 MSTORE SWAP8 PUSH2 0x1545 SWAP2 LT ISZERO PUSH2 0x1D94 JUMP JUMPDEST DUP4 DUP1 PUSH2 0x1557 JUMPI JUMPDEST PUSH2 0x1461 SWAP2 POP DUP6 PUSH2 0x1DEC JUMP JUMPDEST PUSH2 0x1565 SWAP2 PUSH1 0x1 SLOAD AND DUP10 PUSH2 0x1EF9 JUMP JUMPDEST CODESIZE DUP4 PUSH2 0x154C JUMP JUMPDEST SWAP1 POP DUP4 DUP2 DUP2 RETURNDATASIZE DUP4 GT PUSH2 0x15A0 JUMPI JUMPDEST PUSH2 0x1583 DUP2 DUP4 PUSH2 0x1D5B JUMP JUMPDEST DUP2 ADD SUB SLT PUSH2 0x480 JUMPI MLOAD PUSH1 0x0 DUP1 MLOAD PUSH1 0x20 PUSH2 0x2098 DUP4 CODECOPY DUP2 MLOAD SWAP2 MSTORE PUSH2 0x1529 JUMP JUMPDEST POP RETURNDATASIZE PUSH2 0x1579 JUMP JUMPDEST DUP3 MLOAD PUSH3 0x461BCD PUSH1 0xE5 SHL DUP2 MSTORE SWAP1 DUP2 ADD DUP7 SWAP1 MSTORE PUSH1 0x37 PUSH1 0x24 DUP3 ADD MSTORE PUSH1 0x0 DUP1 MLOAD PUSH1 0x20 PUSH2 0x2118 DUP4 CODECOPY DUP2 MLOAD SWAP2 MSTORE PUSH1 0x44 DUP3 ADD MSTORE PUSH23 0x6374732063616E20646973747269627574652066656573 PUSH1 0x48 SHL PUSH1 0x64 DUP3 ADD MSTORE PUSH1 0x84 SWAP1 REVERT JUMPDEST POP POP CALLVALUE PUSH2 0x2AD JUMPI DUP2 PUSH1 0x3 NOT CALLDATASIZE ADD SLT PUSH2 0x2AD JUMPI PUSH1 0x20 SWAP1 MLOAD PUSH1 0x64 DUP2 MSTORE RETURN JUMPDEST POP POP CALLVALUE PUSH2 0x2AD JUMPI DUP2 PUSH1 0x3 NOT CALLDATASIZE ADD SLT PUSH2 0x2AD JUMPI PUSH1 0x3 SLOAD SWAP1 MLOAD PUSH1 0x1 PUSH1 0x1 PUSH1 0xA0 SHL SUB SWAP1 SWAP2 AND DUP2 MSTORE PUSH1 0x20 SWAP1 RETURN JUMPDEST POP CALLVALUE PUSH2 0x26B JUMPI DUP2 PUSH1 0x3 NOT CALLDATASIZE ADD SLT PUSH2 0x26B JUMPI DUP2 PUSH1 0x20 SWAP4 PUSH1 0xFF SWAP3 PUSH2 0x165D PUSH2 0x1BBE JUMP JUMPDEST SWAP1 CALLDATALOAD DUP3 MSTORE PUSH1 0xB DUP7 MSTORE DUP3 DUP3 KECCAK256 PUSH1 0x1 PUSH1 0x1 PUSH1 0xA0 SHL SUB SWAP1 SWAP2 AND DUP3 MSTORE DUP6 MSTORE KECCAK256 SLOAD SWAP2 MLOAD SWAP2 AND ISZERO ISZERO DUP2 MSTORE RETURN JUMPDEST POP DUP3 SWAP1 CALLVALUE PUSH2 0x2AD JUMPI PUSH1 0x20 SWAP2 DUP3 PUSH1 0x3 NOT CALLDATASIZE ADD SLT PUSH2 0xB56 JUMPI PUSH2 0x16A1 PUSH2 0x1BA3 JUMP JUMPDEST PUSH1 0x1 PUSH1 0x1 PUSH1 0xA0 SHL SUB AND DUP1 DUP3 MSTORE DUP3 DUP5 MSTORE DUP5 DUP3 KECCAK256 SLOAD SWAP3 DUP5 SWAP1 DUP3 PUSH2 0x16CD JUMPI POP POP POP POP SELFBALANCE SWAP2 JUMPDEST DUP4 MLOAD SWAP3 DUP4 MSTORE DUP3 ADD MSTORE RETURN JUMPDEST PUSH1 0x24 DUP8 MLOAD DUP1 SWAP5 DUP2 SWAP4 PUSH4 0x70A08231 PUSH1 0xE0 SHL DUP4 MSTORE ADDRESS SWAP1 DUP4 ADD MSTORE GAS STATICCALL SWAP2 DUP3 ISZERO PUSH2 0x172C JUMPI DUP1 SWAP3 PUSH2 0x16FC JUMPI JUMPDEST POP POP SWAP2 PUSH2 0x16C3 JUMP JUMPDEST SWAP1 SWAP2 POP DUP4 DUP3 DUP2 RETURNDATASIZE DUP4 GT PUSH2 0x1725 JUMPI JUMPDEST PUSH2 0x1714 DUP2 DUP4 PUSH2 0x1D5B JUMP JUMPDEST DUP2 ADD SUB SLT PUSH2 0xB56 JUMPI POP MLOAD DUP5 DUP1 PUSH2 0x16F4 JUMP JUMPDEST POP RETURNDATASIZE PUSH2 0x170A JUMP JUMPDEST DUP6 MLOAD SWAP1 RETURNDATASIZE SWAP1 DUP3 RETURNDATACOPY RETURNDATASIZE SWAP1 REVERT JUMPDEST POP POP CALLVALUE PUSH2 0x2AD JUMPI DUP1 PUSH1 0x20 SWAP3 PUSH2 0x174B CALLDATASIZE PUSH2 0x1BD4 JUMP JUMPDEST SWAP2 DUP4 MSTORE PUSH1 0x9 DUP7 MSTORE DUP4 DUP4 KECCAK256 PUSH1 0x1 PUSH1 0x1 PUSH1 0xA0 SHL SUB SWAP2 DUP3 AND DUP5 MSTORE DUP7 MSTORE DUP4 DUP4 KECCAK256 SWAP2 AND DUP3 MSTORE DUP5 MSTORE KECCAK256 SLOAD SWAP1 MLOAD SWAP1 DUP2 MSTORE RETURN JUMPDEST POP DUP3 SWAP1 CALLVALUE PUSH2 0x2AD JUMPI PUSH2 0x1787 CALLDATASIZE PUSH2 0x1C09 JUMP JUMPDEST SWAP3 SWAP6 SWAP1 SWAP4 CALLER DUP7 MSTORE PUSH1 0x20 PUSH1 0x2 DUP2 MSTORE PUSH1 0xFF DUP4 DUP9 KECCAK256 SLOAD AND ISZERO PUSH2 0x18C4 JUMPI DUP5 ISZERO PUSH2 0x1878 JUMPI DUP8 DUP8 MSTORE PUSH1 0x9 DUP2 MSTORE DUP3 DUP8 KECCAK256 SWAP8 PUSH1 0x1 DUP1 PUSH1 0xA0 SHL SUB SWAP3 DUP4 DUP7 AND SWAP10 DUP11 DUP11 MSTORE DUP4 MSTORE DUP5 DUP10 KECCAK256 SWAP4 DUP9 AND SWAP4 DUP5 DUP11 MSTORE DUP4 MSTORE DUP7 DUP6 DUP11 KECCAK256 SLOAD LT PUSH2 0x1826 JUMPI POP DUP8 SWAP9 DUP2 PUSH2 0x119D SWAP10 MSTORE PUSH1 0x9 DUP4 MSTORE DUP5 DUP11 KECCAK256 SWAP1 DUP11 MSTORE DUP3 MSTORE DUP4 DUP10 KECCAK256 DUP4 DUP11 MSTORE DUP3 MSTORE DUP4 DUP10 KECCAK256 PUSH2 0x1803 DUP8 DUP3 SLOAD PUSH2 0x1DEC JUMP JUMPDEST SWAP1 SSTORE DUP9 MSTORE PUSH1 0x7 DUP2 MSTORE DUP3 DUP9 KECCAK256 SWAP2 DUP9 MSTORE MSTORE DUP6 KECCAK256 PUSH2 0x181F DUP4 DUP3 SLOAD PUSH2 0x1DEC JUMP JUMPDEST SWAP1 SSTORE PUSH2 0x2030 JUMP JUMPDEST DUP5 MLOAD PUSH3 0x461BCD PUSH1 0xE5 SHL DUP2 MSTORE SWAP1 DUP2 ADD DUP4 SWAP1 MSTORE PUSH1 0x26 PUSH1 0x24 DUP3 ADD MSTORE PUSH32 0x54726561737572793A20496E73756666696369656E7420737570706F72742062 PUSH1 0x44 DUP3 ADD MSTORE PUSH6 0x616C616E6365 PUSH1 0xD0 SHL PUSH1 0x64 DUP3 ADD MSTORE PUSH1 0x84 SWAP1 REVERT JUMPDEST PUSH1 0x84 SWAP3 MLOAD SWAP2 PUSH3 0x461BCD PUSH1 0xE5 SHL DUP4 MSTORE DUP3 ADD MSTORE PUSH1 0x23 PUSH1 0x24 DUP3 ADD MSTORE PUSH32 0x54726561737572793A20496E76616C6964207769746864726177616C20616D6F PUSH1 0x44 DUP3 ADD MSTORE PUSH3 0x1D5B9D PUSH1 0xEA SHL PUSH1 0x64 DUP3 ADD MSTORE REVERT JUMPDEST PUSH1 0x84 SWAP3 MLOAD SWAP2 PUSH3 0x461BCD PUSH1 0xE5 SHL DUP4 MSTORE DUP3 ADD MSTORE PUSH1 0x38 PUSH1 0x24 DUP3 ADD MSTORE PUSH1 0x0 DUP1 MLOAD PUSH1 0x20 PUSH2 0x2118 DUP4 CODECOPY DUP2 MLOAD SWAP2 MSTORE PUSH1 0x44 DUP3 ADD MSTORE PUSH24 0x18DD1CC818D85B881DDA5D1A191C985DC81CDD5C1C1BDC9D PUSH1 0x42 SHL PUSH1 0x64 DUP3 ADD MSTORE REVERT JUMPDEST POP CALLVALUE PUSH2 0x26B JUMPI DUP2 PUSH1 0x3 NOT CALLDATASIZE ADD SLT PUSH2 0x26B JUMPI PUSH1 0x20 SWAP3 DUP3 SWAP2 PUSH2 0x1931 PUSH2 0x1BBE JUMP JUMPDEST SWAP1 CALLDATALOAD DUP3 MSTORE PUSH1 0x5 DUP6 MSTORE DUP3 DUP3 KECCAK256 PUSH1 0x1 PUSH1 0x1 PUSH1 0xA0 SHL SUB SWAP1 SWAP2 AND DUP3 MSTORE DUP5 MSTORE KECCAK256 SLOAD SWAP1 MLOAD SWAP1 DUP2 MSTORE RETURN JUMPDEST POP CALLVALUE PUSH2 0x26B JUMPI PUSH1 0x60 CALLDATASIZE PUSH1 0x3 NOT ADD SLT PUSH2 0x26B JUMPI PUSH2 0x196E PUSH2 0x1BA3 JUMP JUMPDEST PUSH2 0x1976 PUSH2 0x1BBE JUMP JUMPDEST SWAP3 PUSH1 0x44 CALLDATALOAD CALLER DUP7 MSTORE PUSH1 0x20 SWAP2 PUSH1 0x2 DUP4 MSTORE PUSH1 0xFF DUP2 DUP9 KECCAK256 SLOAD AND ISZERO PUSH2 0x1B1B JUMPI PUSH2 0x199B DUP3 ISZERO ISZERO PUSH2 0x1D14 JUMP JUMPDEST PUSH1 0x1 PUSH1 0x1 PUSH1 0xA0 SHL SUB DUP5 DUP2 AND SWAP7 DUP8 ISZERO PUSH2 0x1ACE JUMPI AND SWAP5 DUP8 DUP7 PUSH2 0x1A46 JUMPI DUP1 DUP1 DUP6 DUP1 SWAP8 SWAP9 PUSH2 0x19CA DUP4 SWAP7 SWAP8 SWAP9 SELFBALANCE LT ISZERO PUSH2 0x1E06 JUMP JUMPDEST GAS CALL PUSH2 0x19D4 PUSH2 0x1E5D JUMP JUMPDEST POP ISZERO PUSH2 0x19F4 JUMPI POP MLOAD SWAP1 DUP2 MSTORE PUSH1 0x0 DUP1 MLOAD PUSH1 0x20 PUSH2 0x2138 DUP4 CODECOPY DUP2 MLOAD SWAP2 MSTORE SWAP2 SWAP1 LOG3 DUP1 RETURN JUMPDEST DUP4 PUSH1 0x84 SWAP3 MLOAD SWAP2 PUSH3 0x461BCD PUSH1 0xE5 SHL DUP4 MSTORE DUP3 ADD MSTORE PUSH1 0x28 PUSH1 0x24 DUP3 ADD MSTORE PUSH32 0x54726561737572793A20455448207472616E7366657220746F2063726561746F PUSH1 0x44 DUP3 ADD MSTORE PUSH8 0x1C8819985A5B1959 PUSH1 0xC2 SHL PUSH1 0x64 DUP3 ADD MSTORE REVERT JUMPDEST POP SWAP4 DUP2 MLOAD SWAP5 PUSH4 0x70A08231 PUSH1 0xE0 SHL DUP7 MSTORE ADDRESS SWAP1 DUP7 ADD MSTORE DUP4 DUP6 PUSH1 0x24 DUP2 DUP10 GAS STATICCALL SWAP5 DUP6 ISZERO PUSH2 0x1AC4 JUMPI DUP9 SWAP6 PUSH2 0x1A91 JUMPI JUMPDEST POP DUP3 PUSH2 0xE17 SWAP2 PUSH2 0xE11 DUP3 PUSH1 0x0 DUP1 MLOAD PUSH1 0x20 PUSH2 0x2138 DUP4 CODECOPY DUP2 MLOAD SWAP2 MSTORE SWAP9 LT ISZERO PUSH2 0x1D94 JUMP JUMPDEST SWAP5 POP DUP4 DUP6 DUP2 RETURNDATASIZE DUP4 GT PUSH2 0x1ABD JUMPI JUMPDEST PUSH2 0x1AA8 DUP2 DUP4 PUSH2 0x1D5B JUMP JUMPDEST DUP2 ADD SUB SLT PUSH2 0x1AB9 JUMPI SWAP4 MLOAD SWAP4 DUP3 PUSH2 0x1A70 JUMP JUMPDEST DUP8 DUP1 REVERT JUMPDEST POP RETURNDATASIZE PUSH2 0x1A9E JUMP JUMPDEST DUP3 MLOAD RETURNDATASIZE DUP11 DUP3 RETURNDATACOPY RETURNDATASIZE SWAP1 REVERT JUMPDEST DUP3 MLOAD PUSH3 0x461BCD PUSH1 0xE5 SHL DUP2 MSTORE DUP1 DUP9 ADD DUP7 SWAP1 MSTORE PUSH1 0x21 PUSH1 0x24 DUP3 ADD MSTORE PUSH32 0x54726561737572793A20496E76616C69642063726561746F7220616464726573 PUSH1 0x44 DUP3 ADD MSTORE PUSH1 0x73 PUSH1 0xF8 SHL PUSH1 0x64 DUP3 ADD MSTORE PUSH1 0x84 SWAP1 REVERT JUMPDEST MLOAD PUSH3 0x461BCD PUSH1 0xE5 SHL DUP2 MSTORE DUP1 DUP6 ADD DUP4 SWAP1 MSTORE PUSH1 0x3B PUSH1 0x24 DUP3 ADD MSTORE PUSH1 0x0 DUP1 MLOAD PUSH1 0x20 PUSH2 0x2118 DUP4 CODECOPY DUP2 MLOAD SWAP2 MSTORE PUSH1 0x44 DUP3 ADD MSTORE PUSH27 0x31BA399031B0B7103A3930B739B332B9103A379031B932B0BA37B9 PUSH1 0x29 SHL PUSH1 0x64 DUP3 ADD MSTORE PUSH1 0x84 SWAP1 REVERT JUMPDEST SWAP3 SWAP2 SWAP1 POP CALLVALUE PUSH2 0xC9C JUMPI PUSH1 0x20 CALLDATASIZE PUSH1 0x3 NOT ADD SLT PUSH2 0xC9C JUMPI PUSH1 0x20 SWAP4 SWAP1 PUSH1 0x1 PUSH1 0x1 PUSH1 0xA0 SHL SUB PUSH2 0x1B98 PUSH2 0x1BA3 JUMP JUMPDEST AND DUP3 MSTORE DUP5 MSTORE KECCAK256 SLOAD DUP2 MSTORE RETURN JUMPDEST PUSH1 0x4 CALLDATALOAD SWAP1 PUSH1 0x1 PUSH1 0x1 PUSH1 0xA0 SHL SUB DUP3 AND DUP3 SUB PUSH2 0x1BB9 JUMPI JUMP JUMPDEST PUSH1 0x0 DUP1 REVERT JUMPDEST PUSH1 0x24 CALLDATALOAD SWAP1 PUSH1 0x1 PUSH1 0x1 PUSH1 0xA0 SHL SUB DUP3 AND DUP3 SUB PUSH2 0x1BB9 JUMPI JUMP JUMPDEST PUSH1 0x60 SWAP1 PUSH1 0x3 NOT ADD SLT PUSH2 0x1BB9 JUMPI PUSH1 0x4 CALLDATALOAD SWAP1 PUSH1 0x1 PUSH1 0x1 PUSH1 0xA0 SHL SUB SWAP1 PUSH1 0x24 CALLDATALOAD DUP3 DUP2 AND DUP2 SUB PUSH2 0x1BB9 JUMPI SWAP2 PUSH1 0x44 CALLDATALOAD SWAP1 DUP2 AND DUP2 SUB PUSH2 0x1BB9 JUMPI SWAP1 JUMP JUMPDEST PUSH1 0x80 SWAP1 PUSH1 0x3 NOT ADD SLT PUSH2 0x1BB9 JUMPI PUSH1 0x4 CALLDATALOAD SWAP1 PUSH1 0x1 PUSH1 0x1 PUSH1 0xA0 SHL SUB SWAP1 PUSH1 0x24 CALLDATALOAD DUP3 DUP2 AND DUP2 SUB PUSH2 0x1BB9 JUMPI SWAP2 PUSH1 0x44 CALLDATALOAD SWAP1 DUP2 AND DUP2 SUB PUSH2 0x1BB9 JUMPI SWAP1 PUSH1 0x64 CALLDATALOAD SWAP1 JUMP JUMPDEST PUSH1 0x60 SWAP1 PUSH1 0x3 NOT ADD SLT PUSH2 0x1BB9 JUMPI PUSH1 0x1 PUSH1 0x1 PUSH1 0xA0 SHL SUB PUSH1 0x4 CALLDATALOAD DUP2 DUP2 AND DUP2 SUB PUSH2 0x1BB9 JUMPI SWAP2 PUSH1 0x24 CALLDATALOAD SWAP2 PUSH1 0x44 CALLDATALOAD SWAP1 DUP2 AND DUP2 SUB PUSH2 0x1BB9 JUMPI SWAP1 JUMP JUMPDEST PUSH1 0x60 SWAP1 PUSH1 0x3 NOT ADD SLT PUSH2 0x1BB9 JUMPI PUSH1 0x4 CALLDATALOAD SWAP1 PUSH1 0x24 CALLDATALOAD SWAP1 PUSH1 0x44 CALLDATALOAD PUSH1 0x1 PUSH1 0x1 PUSH1 0xA0 SHL SUB DUP2 AND DUP2 SUB PUSH2 0x1BB9 JUMPI SWAP1 JUMP JUMPDEST PUSH1 0x0 SLOAD PUSH1 0x1 PUSH1 0x1 PUSH1 0xA0 SHL SUB AND CALLER SUB PUSH2 0x1CB4 JUMPI JUMP JUMPDEST PUSH1 0x40 MLOAD PUSH4 0x118CDAA7 PUSH1 0xE0 SHL DUP2 MSTORE CALLER PUSH1 0x4 DUP3 ADD MSTORE PUSH1 0x24 SWAP1 REVERT JUMPDEST SWAP1 PUSH2 0x1F4 SWAP2 DUP3 DUP2 MUL SWAP3 DUP2 DUP5 DIV EQ SWAP1 ISZERO OR ISZERO PUSH2 0x1CFE JUMPI PUSH2 0x2710 DUP1 SWAP3 DIV SWAP2 PUSH1 0x64 DUP4 MUL DUP4 DUP2 DIV PUSH1 0x64 EQ DUP5 ISZERO OR ISZERO PUSH2 0x1CFE JUMPI DIV SWAP1 JUMP JUMPDEST PUSH4 0x4E487B71 PUSH1 0xE0 SHL PUSH1 0x0 MSTORE PUSH1 0x11 PUSH1 0x4 MSTORE PUSH1 0x24 PUSH1 0x0 REVERT JUMPDEST ISZERO PUSH2 0x1D1B JUMPI JUMP JUMPDEST PUSH1 0x40 MLOAD PUSH3 0x461BCD PUSH1 0xE5 SHL DUP2 MSTORE PUSH1 0x20 PUSH1 0x4 DUP3 ADD MSTORE PUSH1 0x18 PUSH1 0x24 DUP3 ADD MSTORE PUSH24 0x151C99585CDD5C9E4E88125B9D985B1A5908185B5BDD5B9D PUSH1 0x42 SHL PUSH1 0x44 DUP3 ADD MSTORE PUSH1 0x64 SWAP1 REVERT JUMPDEST PUSH1 0x1F SWAP1 SWAP2 ADD PUSH1 0x1F NOT AND DUP2 ADD SWAP1 PUSH1 0x1 PUSH1 0x1 PUSH1 0x40 SHL SUB DUP3 GT SWAP1 DUP3 LT OR PUSH2 0x1D7E JUMPI PUSH1 0x40 MSTORE JUMP JUMPDEST PUSH4 0x4E487B71 PUSH1 0xE0 SHL PUSH1 0x0 MSTORE PUSH1 0x41 PUSH1 0x4 MSTORE PUSH1 0x24 PUSH1 0x0 REVERT JUMPDEST ISZERO PUSH2 0x1D9B JUMPI JUMP JUMPDEST PUSH1 0x40 MLOAD PUSH3 0x461BCD PUSH1 0xE5 SHL DUP2 MSTORE PUSH1 0x20 PUSH1 0x4 DUP3 ADD MSTORE PUSH1 0x24 DUP1 DUP3 ADD MSTORE PUSH32 0x54726561737572793A20496E73756666696369656E7420746F6B656E2062616C PUSH1 0x44 DUP3 ADD MSTORE PUSH4 0x616E6365 PUSH1 0xE0 SHL PUSH1 0x64 DUP3 ADD MSTORE PUSH1 0x84 SWAP1 REVERT JUMPDEST SWAP2 SWAP1 DUP3 SUB SWAP2 DUP3 GT PUSH2 0x1CFE JUMPI JUMP JUMPDEST SWAP2 SWAP1 DUP3 ADD DUP1 SWAP3 GT PUSH2 0x1CFE JUMPI JUMP JUMPDEST ISZERO PUSH2 0x1E0D JUMPI JUMP JUMPDEST PUSH1 0x40 MLOAD PUSH3 0x461BCD PUSH1 0xE5 SHL DUP2 MSTORE PUSH1 0x20 PUSH1 0x4 DUP3 ADD MSTORE PUSH1 0x22 PUSH1 0x24 DUP3 ADD MSTORE PUSH32 0x54726561737572793A20496E73756666696369656E74204554482062616C616E PUSH1 0x44 DUP3 ADD MSTORE PUSH2 0x6365 PUSH1 0xF0 SHL PUSH1 0x64 DUP3 ADD MSTORE PUSH1 0x84 SWAP1 REVERT JUMPDEST RETURNDATASIZE ISZERO PUSH2 0x1E97 JUMPI RETURNDATASIZE SWAP1 PUSH1 0x1 PUSH1 0x1 PUSH1 0x40 SHL SUB DUP3 GT PUSH2 0x1D7E JUMPI PUSH1 0x40 MLOAD SWAP2 PUSH2 0x1E8B PUSH1 0x1F DUP3 ADD PUSH1 0x1F NOT AND PUSH1 0x20 ADD DUP5 PUSH2 0x1D5B JUMP JUMPDEST DUP3 MSTORE RETURNDATASIZE PUSH1 0x0 PUSH1 0x20 DUP5 ADD RETURNDATACOPY JUMP JUMPDEST PUSH1 0x60 SWAP1 JUMP JUMPDEST ISZERO PUSH2 0x1EA3 JUMPI JUMP JUMPDEST PUSH1 0x40 MLOAD PUSH3 0x461BCD PUSH1 0xE5 SHL DUP2 MSTORE PUSH1 0x20 PUSH1 0x4 DUP3 ADD MSTORE PUSH1 0x28 PUSH1 0x24 DUP3 ADD MSTORE PUSH32 0x54726561737572793A20455448207472616E7366657220746F20706172746E65 PUSH1 0x44 DUP3 ADD MSTORE PUSH8 0x1C8819985A5B1959 PUSH1 0xC2 SHL PUSH1 0x64 DUP3 ADD MSTORE PUSH1 0x84 SWAP1 REVERT JUMPDEST PUSH1 0x40 MLOAD PUSH4 0xA9059CBB PUSH1 0xE0 SHL PUSH1 0x20 DUP3 ADD SWAP1 DUP2 MSTORE PUSH1 0x1 PUSH1 0x1 PUSH1 0xA0 SHL SUB SWAP4 DUP5 AND PUSH1 0x24 DUP4 ADD MSTORE PUSH1 0x44 DUP1 DUP4 ADD SWAP6 SWAP1 SWAP6 MSTORE SWAP4 DUP2 MSTORE SWAP1 SWAP3 PUSH1 0x80 DUP3 ADD SWAP1 PUSH1 0x1 PUSH1 0x1 PUSH1 0x40 SHL SUB DUP3 GT DUP4 DUP4 LT OR PUSH2 0x1D7E JUMPI PUSH1 0x20 SWAP3 PUSH1 0x0 SWAP3 PUSH1 0x40 MSTORE MLOAD SWAP1 DUP3 DUP7 GAS CALL ISZERO PUSH2 0x1F8E JUMPI PUSH1 0x0 MLOAD RETURNDATASIZE PUSH2 0x1F85 JUMPI POP DUP1 DUP3 AND EXTCODESIZE ISZERO JUMPDEST PUSH2 0x1F6B JUMPI POP POP JUMP JUMPDEST PUSH1 0x40 MLOAD PUSH4 0x5274AFE7 PUSH1 0xE0 SHL DUP2 MSTORE SWAP2 AND PUSH1 0x4 DUP3 ADD MSTORE PUSH1 0x24 SWAP2 POP REVERT JUMPDEST PUSH1 0x1 EQ ISZERO PUSH2 0x1F63 JUMP JUMPDEST PUSH1 0x40 MLOAD RETURNDATASIZE PUSH1 0x0 DUP3 RETURNDATACOPY RETURNDATASIZE SWAP1 REVERT JUMPDEST ISZERO PUSH2 0x1FA1 JUMPI JUMP JUMPDEST PUSH1 0x40 MLOAD PUSH3 0x461BCD PUSH1 0xE5 SHL DUP2 MSTORE PUSH1 0x20 PUSH1 0x4 DUP3 ADD MSTORE PUSH1 0x1B PUSH1 0x24 DUP3 ADD MSTORE PUSH27 0x151C99585CDD5C9E4E88125B9D985B1A59081C9958DA5C1A595B9D PUSH1 0x2A SHL PUSH1 0x44 DUP3 ADD MSTORE PUSH1 0x64 SWAP1 REVERT JUMPDEST ISZERO PUSH2 0x1FEB JUMPI JUMP JUMPDEST PUSH1 0x40 MLOAD PUSH3 0x461BCD PUSH1 0xE5 SHL DUP2 MSTORE PUSH1 0x20 PUSH1 0x4 DUP3 ADD MSTORE PUSH1 0x1D PUSH1 0x24 DUP3 ADD MSTORE PUSH32 0x54726561737572793A20455448207472616E73666572206661696C6564000000 PUSH1 0x44 DUP3 ADD MSTORE PUSH1 0x64 SWAP1 REVERT JUMPDEST SWAP2 PUSH1 0x1 PUSH1 0x1 PUSH1 0xA0 SHL SUB AND DUP1 PUSH2 0x2056 JUMPI POP PUSH1 0x0 DUP1 DUP1 DUP1 SWAP4 PUSH2 0x2054 SWAP6 GAS CALL PUSH2 0xDB3 PUSH2 0x1E5D JUMP JUMPDEST JUMP JUMPDEST SWAP2 PUSH2 0x2054 SWAP3 PUSH2 0x1EF9 JUMP JUMPDEST PUSH1 0x1 PUSH1 0x1 PUSH1 0x40 SHL SUB DUP2 GT PUSH2 0x1D7E JUMPI PUSH1 0x5 SHL PUSH1 0x20 ADD SWAP1 JUMP INVALID 0xD BLOCKHASH 0xD3 PUSH21 0xFECC4DCA2567CC5AB864D037F0CD1F1E9BDA38C23A SELFDESTRUCT PUSH10 0x1CD74629E085DA6AB72D 0x2B BASEFEE SWAP4 0x25 0x22 0xAE 0xA8 EXP 0xDB DUP13 LOG4 STATICCALL 0xB6 0xCD 0xEB DUP8 0xBC 0x2E PUSH32 0x6C03FD78D3B2100E8983A1F3C3CB45C24C8226B5B805E3B6EB49686530B80853 0x4B 0x2A SWAP3 ADD 0x29 0xEF 0xF6 MLOAD GT XOR 0xCD 0xEC PUSH10 0xD543750C0863CCD71A7D SWAP2 DUP4 SLOAD EXTCODECOPY 0xD6 PUSH10 0x6B187370CE3B76A9003B 0xF8 DUP12 0xE0 SMOD SWAP13 MSTORE8 AND MSIZE EQ SGT PREVRANDAO 0xCD 0x1F 0xD0 LOG4 CALLCODE DUP5 NOT 0x49 PUSH32 0x9722A3DAAFE3B4186F6B6457E054726561737572793A204F6E6C792061757468 PUSH16 0x72697A656420636F6E747261E9171AEF DELEGATECALL PUSH13 0x37AB955B8AFF908E14AE9732BD MOD PUSH4 0x4FA13122 PUSH13 0xFE5C25BFD2FBA164736F6C6343 STOP ADDMOD EQ STOP EXP "},"methodIdentifiers":{"PARTNER_FEE_BPS()":"41ee37d1","PLATFORM_FEE_BPS()":"539aa77f","addToPlatformPool(address,uint256)":"f0824f33","authorizeContract(address)":"67561d93","authorizedContracts(address)":"d5b9221b","calculateFees(uint256)":"52238fdd","claimRefund(uint256,address,address,uint256)":"593f35f4","claimWinnings(uint256,address,address,uint256)":"5e0083da","deauthorizeContract(address)":"6e861c0e","distributeFees(address,uint256)":"48fef595","getAllPlatformPools(address[])":"6ee02a9b","getBalanceInfo(address)":"39adac4d","getMarketPool(uint256,address)":"7a3cf742","getOptionPool(uint256,uint256,address)":"dc4ce349","getPlatformPool(address)":"055c796b","getSupportPool(uint256,address)":"4f44289d","getUserStake(uint256,address,address)":"847cf782","getUserSupport(uint256,address,address)":"256ba741","hasUserClaimed(uint256,address)":"07c7a72d","hasUserSupportClaimed(uint256,address)":"5d1c5820","marketManager()":"41ed2c12","marketPools(uint256,address)":"1abf8705","optionPools(uint256,uint256,address)":"f133a04f","owner()":"8da5cb5b","partner()":"be10862b","placeStake(uint256,address,address,uint256,uint256)":"95f41095","platformPools(address)":"6c1b5c8a","renounceOwnership()":"715018a6","setMarketManager(address)":"d82aff11","setPartner(address)":"a16d5960","supportMarket(uint256,address,address,uint256)":"c15d9807","supportPools(uint256,address)":"7de42634","transferOwnership(address)":"f2fde38b","transferToCreator(address,address,uint256)":"112cd223","userBetOptions(uint256,address,uint256)":"a24693ed","userClaimed(uint256,address)":"3beb9842","userStakes(uint256,address,address)":"2f2e594e","userSupportClaimed(uint256,address)":"2ff44b6f","userSupports(uint256,address,address)":"34eba166","withdraw(address,uint256,address)":"69328dec","withdrawPlatformFunds(address,uint256,address)":"674d20cb","withdrawSupport(uint256,address,address,uint256)":"2f7c165e"}}}}}