{"contracts/P2PMarketManager.sol":{"P2PMarketManager":{"abi":[{"inputs":[{"internalType":"address","name":"initialOwner","type":"address"},{"internalType":"address payable","name":"_treasury","type":"address"},{"internalType":"address","name":"_adminManager","type":"address"}],"stateMutability":"nonpayable","type":"constructor"},{"inputs":[{"internalType":"address","name":"owner","type":"address"}],"name":"OwnableInvalidOwner","type":"error"},{"inputs":[{"internalType":"address","name":"account","type":"address"}],"name":"OwnableUnauthorizedAccount","type":"error"},{"inputs":[{"internalType":"address","name":"token","type":"address"}],"name":"SafeERC20FailedOperation","type":"error"},{"anonymous":false,"inputs":[{"indexed":true,"internalType":"uint256","name":"marketId","type":"uint256"},{"indexed":false,"internalType":"string","name":"reason","type":"string"}],"name":"MarketCancelled","type":"event"},{"anonymous":false,"inputs":[{"indexed":true,"internalType":"uint256","name":"marketId","type":"uint256"},{"indexed":true,"internalType":"address","name":"creator","type":"address"},{"indexed":false,"internalType":"string","name":"ipfsHash","type":"string"},{"indexed":false,"internalType":"bool","name":"isMultiOption","type":"bool"},{"indexed":false,"internalType":"uint256","name":"maxOptions","type":"uint256"},{"indexed":false,"internalType":"address","name":"paymentToken","type":"address"},{"indexed":false,"internalType":"uint256","name":"minStake","type":"uint256"},{"indexed":false,"internalType":"uint256","name":"startTime","type":"uint256"},{"indexed":false,"internalType":"uint256","name":"stakeEndTime","type":"uint256"},{"indexed":false,"internalType":"uint256","name":"endTime","type":"uint256"},{"indexed":false,"internalType":"uint256","name":"resolutionEndTime","type":"uint256"}],"name":"MarketCreated","type":"event"},{"anonymous":false,"inputs":[{"indexed":true,"internalType":"uint256","name":"marketId","type":"uint256"},{"indexed":false,"internalType":"uint256","name":"winningOption","type":"uint256"}],"name":"MarketResolved","type":"event"},{"anonymous":false,"inputs":[{"indexed":true,"internalType":"uint256","name":"marketId","type":"uint256"},{"indexed":false,"internalType":"uint256","name":"winningOption","type":"uint256"},{"indexed":false,"internalType":"uint256","name":"resolvedTimestamp","type":"uint256"},{"indexed":false,"internalType":"uint256","name":"resolvedPrice","type":"uint256"}],"name":"MarketResolvedDetailed","type":"event"},{"anonymous":false,"inputs":[{"indexed":true,"internalType":"uint256","name":"marketId","type":"uint256"},{"indexed":true,"internalType":"bytes32","name":"assertionId","type":"bytes32"},{"indexed":true,"internalType":"address","name":"disputer","type":"address"},{"indexed":false,"internalType":"uint256","name":"disputedOptionId","type":"uint256"}],"name":"OracleDisputed","type":"event"},{"anonymous":false,"inputs":[{"indexed":true,"internalType":"uint256","name":"marketId","type":"uint256"},{"indexed":true,"internalType":"bytes32","name":"assertionId","type":"bytes32"},{"indexed":false,"internalType":"bool","name":"accepted","type":"bool"}],"name":"OracleResultProcessed","type":"event"},{"anonymous":false,"inputs":[{"indexed":true,"internalType":"uint256","name":"marketId","type":"uint256"},{"indexed":true,"internalType":"bytes32","name":"assertionId","type":"bytes32"}],"name":"OracleSettled","type":"event"},{"anonymous":false,"inputs":[{"indexed":true,"internalType":"address","name":"previousOwner","type":"address"},{"indexed":true,"internalType":"address","name":"newOwner","type":"address"}],"name":"OwnershipTransferred","type":"event"},{"anonymous":false,"inputs":[{"indexed":true,"internalType":"uint256","name":"marketId","type":"uint256"},{"indexed":true,"internalType":"address","name":"user","type":"address"},{"indexed":false,"internalType":"uint256","name":"amount","type":"uint256"}],"name":"RefundClaimed","type":"event"},{"anonymous":false,"inputs":[{"indexed":true,"internalType":"uint256","name":"marketId","type":"uint256"},{"indexed":true,"internalType":"bytes32","name":"assertionId","type":"bytes32"}],"name":"ResolutionRequested","type":"event"},{"anonymous":false,"inputs":[{"indexed":true,"internalType":"uint256","name":"marketId","type":"uint256"},{"indexed":true,"internalType":"address","name":"user","type":"address"},{"indexed":false,"internalType":"uint256","name":"option","type":"uint256"},{"indexed":false,"internalType":"uint256","name":"amount","type":"uint256"}],"name":"StakePlaced","type":"event"},{"anonymous":false,"inputs":[{"indexed":true,"internalType":"uint256","name":"marketId","type":"uint256"},{"indexed":true,"internalType":"address","name":"user","type":"address"},{"indexed":false,"internalType":"uint256","name":"amount","type":"uint256"}],"name":"WinningsClaimed","type":"event"},{"inputs":[],"name":"CREATOR_FEE_BPS","outputs":[{"internalType":"uint256","name":"","type":"uint256"}],"stateMutability":"view","type":"function"},{"inputs":[],"name":"NET_WINNER_BPS","outputs":[{"internalType":"uint256","name":"","type":"uint256"}],"stateMutability":"view","type":"function"},{"inputs":[],"name":"PLATFORM_FEE_BPS","outputs":[{"internalType":"uint256","name":"","type":"uint256"}],"stateMutability":"view","type":"function"},{"inputs":[],"name":"TOTAL_FEE_BPS","outputs":[{"internalType":"uint256","name":"","type":"uint256"}],"stateMutability":"view","type":"function"},{"inputs":[{"internalType":"uint256","name":"","type":"uint256"}],"name":"activeMarkets","outputs":[{"internalType":"uint256","name":"","type":"uint256"}],"stateMutability":"view","type":"function"},{"inputs":[],"name":"adminManager","outputs":[{"internalType":"address","name":"","type":"address"}],"stateMutability":"view","type":"function"},{"inputs":[],"name":"assertionGracePeriod","outputs":[{"internalType":"uint256","name":"","type":"uint256"}],"stateMutability":"view","type":"function"},{"inputs":[{"internalType":"uint256","name":"marketId","type":"uint256"},{"internalType":"address","name":"user","type":"address"}],"name":"calculateWinnings","outputs":[{"internalType":"uint256","name":"","type":"uint256"}],"stateMutability":"view","type":"function"},{"inputs":[{"internalType":"uint256","name":"marketId","type":"uint256"}],"name":"cancelMarket","outputs":[],"stateMutability":"nonpayable","type":"function"},{"inputs":[{"internalType":"uint256","name":"marketId","type":"uint256"}],"name":"cancelMarketNoAssertion","outputs":[],"stateMutability":"nonpayable","type":"function"},{"inputs":[{"internalType":"uint256","name":"marketId","type":"uint256"}],"name":"claimRefund","outputs":[],"stateMutability":"nonpayable","type":"function"},{"inputs":[{"internalType":"uint256","name":"marketId","type":"uint256"}],"name":"claimWinnings","outputs":[],"stateMutability":"nonpayable","type":"function"},{"inputs":[{"internalType":"string","name":"ipfsHash","type":"string"},{"internalType":"bool","name":"isMultiOption","type":"bool"},{"internalType":"uint256","name":"maxOptions","type":"uint256"},{"internalType":"address","name":"paymentToken","type":"address"},{"internalType":"uint256","name":"minStake","type":"uint256"},{"internalType":"uint256","name":"creatorDeposit","type":"uint256"},{"internalType":"uint256","name":"creatorOutcome","type":"uint256"},{"internalType":"uint256","name":"stakeDurationMinutes","type":"uint256"},{"internalType":"uint256","name":"resolutionDurationMinutes","type":"uint256"},{"internalType":"enum P2PMarketManager.MarketType","name":"marketType","type":"uint8"},{"internalType":"address","name":"priceFeed","type":"address"},{"internalType":"uint256","name":"priceThreshold","type":"uint256"}],"name":"createMarket","outputs":[{"internalType":"uint256","name":"","type":"uint256"}],"stateMutability":"payable","type":"function"},{"inputs":[{"internalType":"uint256","name":"marketId","type":"uint256"}],"name":"creatorCancelMarket","outputs":[],"stateMutability":"nonpayable","type":"function"},{"inputs":[],"name":"defaultBondCurrency","outputs":[{"internalType":"address","name":"","type":"address"}],"stateMutability":"view","type":"function"},{"inputs":[{"internalType":"uint256","name":"marketId","type":"uint256"},{"internalType":"uint256","name":"optionId","type":"uint256"}],"name":"disputeOracle","outputs":[],"stateMutability":"nonpayable","type":"function"},{"inputs":[{"internalType":"uint256","name":"marketId","type":"uint256"}],"name":"endMarket","outputs":[],"stateMutability":"nonpayable","type":"function"},{"inputs":[{"internalType":"uint256","name":"marketId","type":"uint256"}],"name":"getMarket","outputs":[{"components":[{"internalType":"address","name":"creator","type":"address"},{"internalType":"string","name":"ipfsHash","type":"string"},{"internalType":"bool","name":"isMultiOption","type":"bool"},{"internalType":"uint256","name":"maxOptions","type":"uint256"},{"internalType":"address","name":"paymentToken","type":"address"},{"internalType":"uint256","name":"minStake","type":"uint256"},{"internalType":"uint256","name":"creatorDeposit","type":"uint256"},{"internalType":"uint256","name":"creatorOutcome","type":"uint256"},{"internalType":"uint256","name":"startTime","type":"uint256"},{"internalType":"uint256","name":"stakeEndTime","type":"uint256"},{"internalType":"uint256","name":"endTime","type":"uint256"},{"internalType":"uint256","name":"resolutionEndTime","type":"uint256"},{"internalType":"enum P2PMarketManager.MarketState","name":"state","type":"uint8"},{"internalType":"uint256","name":"winningOption","type":"uint256"},{"internalType":"bool","name":"isResolved","type":"bool"},{"internalType":"uint256","name":"resolvedTimestamp","type":"uint256"},{"internalType":"uint256","name":"resolvedPrice","type":"uint256"},{"internalType":"enum P2PMarketManager.MarketType","name":"marketType","type":"uint8"},{"internalType":"address","name":"priceFeed","type":"address"},{"internalType":"uint256","name":"priceThreshold","type":"uint256"},{"internalType":"bytes32","name":"p2pAssertionId","type":"bytes32"},{"internalType":"bool","name":"p2pAssertionMade","type":"bool"},{"internalType":"uint256","name":"p2pDisputedOptionId","type":"uint256"}],"internalType":"struct P2PMarketManager.Market","name":"","type":"tuple"}],"stateMutability":"view","type":"function"},{"inputs":[{"internalType":"uint256","name":"marketId","type":"uint256"}],"name":"getMarketStakers","outputs":[{"internalType":"address[]","name":"","type":"address[]"}],"stateMutability":"view","type":"function"},{"inputs":[],"name":"getNextMarketId","outputs":[{"internalType":"uint256","name":"","type":"uint256"}],"stateMutability":"view","type":"function"},{"inputs":[{"internalType":"uint256","name":"marketId","type":"uint256"},{"internalType":"uint256","name":"option","type":"uint256"},{"internalType":"address","name":"token","type":"address"}],"name":"getOptionPool","outputs":[{"internalType":"uint256","name":"","type":"uint256"}],"stateMutability":"view","type":"function"},{"inputs":[{"internalType":"uint256","name":"marketId","type":"uint256"}],"name":"getStakerCount","outputs":[{"internalType":"uint256","name":"","type":"uint256"}],"stateMutability":"view","type":"function"},{"inputs":[{"internalType":"uint256","name":"marketId","type":"uint256"},{"internalType":"address","name":"token","type":"address"}],"name":"getSupportPool","outputs":[{"internalType":"uint256","name":"","type":"uint256"}],"stateMutability":"view","type":"function"},{"inputs":[{"internalType":"uint256","name":"marketId","type":"uint256"}],"name":"getSupporterCount","outputs":[{"internalType":"uint256","name":"","type":"uint256"}],"stateMutability":"view","type":"function"},{"inputs":[{"internalType":"uint256","name":"marketId","type":"uint256"},{"internalType":"address","name":"token","type":"address"}],"name":"getTotalPool","outputs":[{"internalType":"uint256","name":"","type":"uint256"}],"stateMutability":"view","type":"function"},{"inputs":[{"internalType":"uint256","name":"marketId","type":"uint256"},{"internalType":"address","name":"user","type":"address"},{"internalType":"address","name":"token","type":"address"}],"name":"getUserStake","outputs":[{"internalType":"uint256","name":"","type":"uint256"}],"stateMutability":"view","type":"function"},{"inputs":[{"internalType":"uint256","name":"marketId","type":"uint256"},{"internalType":"address","name":"user","type":"address"},{"internalType":"address","name":"token","type":"address"}],"name":"getUserSupport","outputs":[{"internalType":"uint256","name":"","type":"uint256"}],"stateMutability":"view","type":"function"},{"inputs":[{"internalType":"uint256","name":"","type":"uint256"}],"name":"isActiveMarket","outputs":[{"internalType":"bool","name":"","type":"bool"}],"stateMutability":"view","type":"function"},{"inputs":[{"internalType":"uint256","name":"marketId","type":"uint256"}],"name":"markMarketDeleted","outputs":[],"stateMutability":"nonpayable","type":"function"},{"inputs":[{"internalType":"uint256","name":"marketId","type":"uint256"}],"name":"markMarketPermanentlyRemoved","outputs":[],"stateMutability":"nonpayable","type":"function"},{"inputs":[],"name":"marketCreationFee","outputs":[{"internalType":"uint256","name":"","type":"uint256"}],"stateMutability":"view","type":"function"},{"inputs":[{"internalType":"uint256","name":"","type":"uint256"},{"internalType":"uint256","name":"","type":"uint256"}],"name":"marketStakers","outputs":[{"internalType":"address","name":"","type":"address"}],"stateMutability":"view","type":"function"},{"inputs":[{"internalType":"uint256","name":"","type":"uint256"},{"internalType":"uint256","name":"","type":"uint256"}],"name":"marketSupporters","outputs":[{"internalType":"address","name":"","type":"address"}],"stateMutability":"view","type":"function"},{"inputs":[{"internalType":"uint256","name":"","type":"uint256"}],"name":"markets","outputs":[{"internalType":"address","name":"creator","type":"address"},{"internalType":"string","name":"ipfsHash","type":"string"},{"internalType":"bool","name":"isMultiOption","type":"bool"},{"internalType":"uint256","name":"maxOptions","type":"uint256"},{"internalType":"address","name":"paymentToken","type":"address"},{"internalType":"uint256","name":"minStake","type":"uint256"},{"internalType":"uint256","name":"creatorDeposit","type":"uint256"},{"internalType":"uint256","name":"creatorOutcome","type":"uint256"},{"internalType":"uint256","name":"startTime","type":"uint256"},{"internalType":"uint256","name":"stakeEndTime","type":"uint256"},{"internalType":"uint256","name":"endTime","type":"uint256"},{"internalType":"uint256","name":"resolutionEndTime","type":"uint256"},{"internalType":"enum P2PMarketManager.MarketState","name":"state","type":"uint8"},{"internalType":"uint256","name":"winningOption","type":"uint256"},{"internalType":"bool","name":"isResolved","type":"bool"},{"internalType":"uint256","name":"resolvedTimestamp","type":"uint256"},{"internalType":"uint256","name":"resolvedPrice","type":"uint256"},{"internalType":"enum P2PMarketManager.MarketType","name":"marketType","type":"uint8"},{"internalType":"address","name":"priceFeed","type":"address"},{"internalType":"uint256","name":"priceThreshold","type":"uint256"},{"internalType":"bytes32","name":"p2pAssertionId","type":"bytes32"},{"internalType":"bool","name":"p2pAssertionMade","type":"bool"},{"internalType":"uint256","name":"p2pDisputedOptionId","type":"uint256"}],"stateMutability":"view","type":"function"},{"inputs":[],"name":"nextMarketId","outputs":[{"internalType":"uint256","name":"","type":"uint256"}],"stateMutability":"view","type":"function"},{"inputs":[],"name":"optimisticOracle","outputs":[{"internalType":"contract IOptimisticOracle","name":"","type":"address"}],"stateMutability":"view","type":"function"},{"inputs":[],"name":"owner","outputs":[{"internalType":"address","name":"","type":"address"}],"stateMutability":"view","type":"function"},{"inputs":[{"internalType":"uint256","name":"marketId","type":"uint256"},{"internalType":"uint256","name":"option","type":"uint256"}],"name":"placeStake","outputs":[],"stateMutability":"payable","type":"function"},{"inputs":[{"internalType":"uint256","name":"marketId","type":"uint256"},{"internalType":"uint256","name":"option","type":"uint256"},{"internalType":"uint256","name":"amount","type":"uint256"}],"name":"placeStakeWithToken","outputs":[],"stateMutability":"nonpayable","type":"function"},{"inputs":[],"name":"renounceOwnership","outputs":[],"stateMutability":"nonpayable","type":"function"},{"inputs":[{"internalType":"uint256","name":"marketId","type":"uint256"},{"internalType":"uint256","name":"optionId","type":"uint256"},{"internalType":"bytes","name":"claim","type":"bytes"}],"name":"requestP2PResolution","outputs":[],"stateMutability":"nonpayable","type":"function"},{"inputs":[{"internalType":"uint256","name":"marketId","type":"uint256"}],"name":"resolveP2PMarket","outputs":[],"stateMutability":"nonpayable","type":"function"},{"inputs":[{"internalType":"uint256","name":"marketId","type":"uint256"}],"name":"resolvePriceFeedMarket","outputs":[],"stateMutability":"nonpayable","type":"function"},{"inputs":[{"internalType":"address","name":"_adminManager","type":"address"}],"name":"setAdminManager","outputs":[],"stateMutability":"nonpayable","type":"function"},{"inputs":[{"internalType":"uint256","name":"_seconds","type":"uint256"}],"name":"setAssertionGracePeriod","outputs":[],"stateMutability":"nonpayable","type":"function"},{"inputs":[{"internalType":"address","name":"_currency","type":"address"}],"name":"setDefaultBondCurrency","outputs":[],"stateMutability":"nonpayable","type":"function"},{"inputs":[{"internalType":"address","name":"_oo","type":"address"}],"name":"setOptimisticOracle","outputs":[],"stateMutability":"nonpayable","type":"function"},{"inputs":[{"internalType":"uint256","name":"marketId","type":"uint256"}],"name":"settleOracle","outputs":[],"stateMutability":"nonpayable","type":"function"},{"inputs":[{"internalType":"uint256","name":"marketId","type":"uint256"},{"internalType":"uint256","name":"amount","type":"uint256"}],"name":"supportMarket","outputs":[],"stateMutability":"payable","type":"function"},{"inputs":[{"internalType":"address","name":"newOwner","type":"address"}],"name":"transferOwnership","outputs":[],"stateMutability":"nonpayable","type":"function"},{"inputs":[],"name":"treasury","outputs":[{"internalType":"address payable","name":"","type":"address"}],"stateMutability":"view","type":"function"},{"inputs":[{"internalType":"uint256","name":"","type":"uint256"},{"internalType":"address","name":"","type":"address"}],"name":"userHasStaked","outputs":[{"internalType":"bool","name":"","type":"bool"}],"stateMutability":"view","type":"function"},{"inputs":[{"internalType":"uint256","name":"","type":"uint256"},{"internalType":"address","name":"","type":"address"}],"name":"userHasSupported","outputs":[{"internalType":"bool","name":"","type":"bool"}],"stateMutability":"view","type":"function"},{"inputs":[{"internalType":"address","name":"","type":"address"},{"internalType":"uint256","name":"","type":"uint256"}],"name":"userMarketHistory","outputs":[{"internalType":"uint256","name":"","type":"uint256"}],"stateMutability":"view","type":"function"},{"inputs":[{"internalType":"uint256","name":"","type":"uint256"},{"internalType":"address","name":"","type":"address"}],"name":"userStakeOptions","outputs":[{"internalType":"uint256","name":"","type":"uint256"}],"stateMutability":"view","type":"function"},{"inputs":[{"internalType":"uint256","name":"marketId","type":"uint256"}],"name":"withdrawSupport","outputs":[],"stateMutability":"nonpayable","type":"function"},{"stateMutability":"payable","type":"receive"}],"evm":{"bytecode":{"linkReferences":{},"object":"6080346200010657601f620058a238819003918201601f19168301916001600160401b038311848410176200010b5780849260609460405283398101031262000106576200004d8162000121565b60208201516001600160a01b03808216939091849003620001065762000077604083920162000121565b9216918215620000ed576000549360018060a01b03199380858716176000558360405196167f8be0079c531659141344cd1fd0a4f28419497f9722a3daafe3b4186f6b6457e0600080a36202a300600155600160095583600c541617600c551690600d541617600d5561576b9081620001378239f35b604051631e4fbdf760e01b815260006004820152602490fd5b600080fd5b634e487b7160e01b600052604160045260246000fd5b51906001600160a01b0382168203620001065756fe6101e080604052600436101561001e575b50361561001c57600080fd5b005b600090813560e01c9081630ccf446714614009575080630d64cdbd14613fda578063157bdcce14613f76578063209c1c9414613f4d5780632230292214613f24578063256ba74114613e8f578063287f57b514613e475780632ef1bdfa14613e24578063304bf1f114613ddb5780633adfe6d014613db05780633e32a76c14613b34578063406ef2ef14613b165780634f44289d14613acd578063539aa77f14613ab0578063569946c5146139df5780635b7baf641461368857806361d027b31461365f57806366cf7ed414612863578063677bd9ff146126d15780636d4476ec146124775780636f28507c1461245a5780636f59359e146123a8578063715018a6146123605780637c16cd9e146122865780637d54943314612269578063818ef5f614612208578063847cf782146121c457806387a6b0ff146120b35780638d0d180e14611d855780638da5cb5b14611d5e57806393fcf24d14611d4057806398a1767114611cea5780639a3a40d614611aaa578063a210b6a414611a81578063a30a091414611a57578063a550725d14611a0a578063b1283e771461180e578063bc160758146117c1578063bf5c325214611774578063bf5f984b1461151f578063c22c62c3146114ed578063c3436e0c146113d2578063cc3cbd2a146113b5578063d5f827071461136a578063d8c5dd6714611323578063dc4ce349146112d0578063e0bd4acc14611143578063eb44fdd314610ddf578063f00fe32114610d43578063f15cc40614610c0e578063f1b7dde314610a79578063f204072f14610665578063f2fde38b146105ef578063f486759114610448578063fb87f2c3146102af5763fe53a6e80361001057346102ac57806003193601126102ac576020600954604051908152f35b80fd5b50346102ac57602080600319360112610444576004359060018060a01b036102dc81600d5416331461567a565b6009548310156104125782845260028252604084205416156103de578183526002815260ff600c6040852001541660058110156103ca576004146103905760606000805160206156bf8339815191529183855260028152600c6040862001600460ff19825416179055838552600b815260ff604086205416610382575b6010604051918083528201526f2232b632ba32b210313c9030b236b4b760811b6040820152a280f35b61038b84615580565b610359565b6064906040519062461bcd60e51b82526004820152601360248201527211540e88185b1c9958591e4819195b195d1959606a1b6044820152fd5b634e487b7160e01b84526021600452602484fd5b6064906040519062461bcd60e51b82526004820152600d60248201526c11540e881b9bc81b585c9ad95d609a1b6044820152fd5b60405162461bcd60e51b815260048101839052600a60248201526911540e8818985908125160b21b6044820152606490fd5b5080fd5b50610452366142bf565b9060018060a01b0380600d5416906040518092634d9b423560e11b825284600483015281602460209586935afa80156105e45786906105aa575b61049791501561457e565b828552600282526040852060ff600c820154166005811015610596576104bd90156145b8565b600481019082825416610553579185916104fb60056105239585151580610545575b6104e8906145f5565b6104f1816153d9565b0154341015614632565b610518888080803487600c54165af161051261441c565b5061466e565b5416349033866151f4565b604051928352349083015260008051602061573f83398151915260403393a380f35b5060038101548611156104df565b60405162461bcd60e51b815260048101859052601b60248201527a22a81d103ab9b290383630b1b2a9ba30b5b2abb4ba342a37b5b2b760291b6044820152606490fd5b634e487b7160e01b87526021600452602487fd5b508281813d83116105dd575b6105c0818361413f565b810103126105d9576105d461049791614301565b61048c565b8580fd5b503d6105b6565b6040513d88823e3d90fd5b50346102ac5760203660031901126102ac57610609614046565b6106116142d5565b6001600160a01b0390811690811561064c576000548260018060a01b0319821617600055166000805160206156ff833981519152600080a380f35b604051631e4fbdf760e01b815260048101849052602490fd5b5061066f366142bf565b600d54604051632b5ba3b960e01b815233600482015260209493916024916001600160a01b039182169087818581855afa9081156108ad5791889185938991610a37575b506106be901561430e565b60405192838092634d9b423560e11b82528860048301525afa80156105e4578690610a01575b6106ef91501561457e565b828552600286526040852060ff600c8201541660058110156109ee5761071590156145b8565b60098101544210156109b557841561097f576004019581875416801560001461091f57508434036108e9578596610759878080808a88600c54165af161051261441c565b848752600482526040872033600052825260ff60406000205416156108d0575b84875260048252604087203360005282526040600020600160ff198254161790558280600c541691541690803b156108cc578688916107d2938360405180968195829463c15d980760e01b84528d3390600486016146f0565b03925af19081156108ad5787916108b8575b505060048183600d54166040519283809263406ad64560e11b82525afa9182156108ad578792610880575b5050168061081b578480f35b803b1561087c578492836064926040519687958694638f46a5a160e01b86526004860152339085015260448401525af180156108715761085d575b8080808480f35b610866906140da565b6102ac578038610856565b6040513d84823e3d90fd5b8480fd5b61089f9250803d106108a6575b610897818361413f565b810190614718565b388061080f565b503d61088d565b6040513d89823e3d90fd5b6108c1906140da565b6105d95785386107e4565b8780fd5b848752600782526108e433604089206146b5565b610779565b6064906010846040519262461bcd60e51b845260048401528201526f08aa074408aa89040dad2e6dac2e8c6d60831b6044820152fd5b963461093d5761093886889985600c54169033906144e0565b610759565b60405162461bcd60e51b815260048101839052601b818601527a11540e881b9bc811551208199bdc881d1bdad95b881b585c9ad95d602a1b6044820152606490fd5b60405162461bcd60e51b815260048101889052600f818501526e11540e881e995c9bc8185b5bdd5b9d608a1b6044820152606490fd5b60405162461bcd60e51b8152600481018890526012818501527111540e881cdd5c1c1bdc9d0818db1bdcd95960721b6044820152606490fd5b634e487b7160e01b875260216004528387fd5b508681813d8311610a30575b610a17818361413f565b810103126105d957610a2b6106ef91614301565b6106e4565b503d610a0d565b92809294508391503d8311610a72575b610a51818361413f565b81010312610a6e5783916106be610a688a93614301565b906106b3565b8680fd5b503d610a47565b50346102ac5760603660031901126102ac576004356024359060443560018060a01b0380600d5416906040518092634d9b423560e11b825285600483015281602460209586935afa80156108ad578790610bd8575b610ad991501561457e565b838652600282526040862060ff600c820154166005811015610bc457610aff90156145b8565b600481019082825416908115610b8a57928792610b53878094610b46610b5c9888151580610b7c575b610b31906145f5565b610b416005820154851015614632565b6153d9565b84600c54169033906144e0565b541633876151f4565b60405193845283015260008051602061573f83398151915260403393a380f35b506003810154891115610b28565b60405162461bcd60e51b815260048101869052601260248201527145503a2075736520706c6163655374616b6560701b6044820152606490fd5b634e487b7160e01b88526021600452602488fd5b508281813d8311610c07575b610bee818361413f565b81010312610a6e57610c02610ad991614301565b610ace565b503d610be4565b50346102ac5760403660031901126102ac57600435610c2b614030565b818352602091600283526040842060ff600c820154166005811015610d2f57610c6591610c5c6002600d9314614a89565b01541515614ac8565b808452600383526040842060018060a01b03908184166000528452610c9160ff60406000205416614b04565b600c54168360405180926307c7a72d60e01b82528180610cb5888860048401614b3f565b03915afa948515610d23578095610ce4575b5050610cd7610cdc939415614b58565b614bb3565b604051908152f35b9094508385813d8311610d1c575b610cfc818361413f565b810103126102ac5750610cd7610d15610cdc9495614301565b9493610cc7565b503d610cf2565b604051903d90823e3d90fd5b634e487b7160e01b86526021600452602486fd5b50346102ac5760403660031901126102ac57610d8c906020610d63614030565b60018060a01b03600c54166040518080968194633d1e7ba160e11b835260043560048401614b3f565b03915afa908115610d235790610da8575b602090604051908152f35b506020813d8211610dd7575b81610dc16020938361413f565b81010312610dd25760209051610d9d565b600080fd5b3d9150610db4565b50346102ac5760203660031901126102ac57806040916102c08351610e03816140ed565b8281526060602082015282858201528260608201528260808201528260a08201528260c08201528260e08201528261010082015282610120820152826101408201528261016082015282610180820152826101a0820152826101c0820152826101e08201528261020082015282610220820152826102408201528261026082015282610280820152826102a08201520152600435815260026020522060405190610eac826140ed565b80546001600160a01b03168252610ec5600182016141b7565b602083015260ff600282015416151560408301526003810154606083015260018060a01b036004820154166080830152600581015460a0830152600681015460c0830152600781015460e083015260088101546101008301526009810154610120830152600a810154610140830152600b81015461016083015260ff600c8201541690600582101561112d57601591610180840152600d8101546101a084015260ff600e8201541615156101c0840152600f8101546101e084015260108101546102008401526011810154610fa160ff821661022086016143c2565b60018060a01b039060081c166102408401526012810154610260840152601381015461028084015260ff60148201541615156102a084015201546102c082015260405180916020825260018060a01b0381511660208301526102c061101760208301516102e06040860152610300850190614280565b916040810151151560608501526060810151608085015260018060a01b0360808201511660a085015260a081015160c085015260c081015160e085015260e08101516101008501526101008101516101208501526101208101516101408501526101408101516101608501526101608101516101808501526110a36101808201516101a08601906142a5565b6101a08101516101c08501526101c081015115156101e08501526101e08101516102008501526102008101516102208501526110e96102208201516102408601906142b2565b60018060a01b03610240820151166102608501526102608101516102808501526102808101516102a08501526102a081015115158285015201516102e08301520390f35b634e487b7160e01b600052602160045260246000fd5b50346102ac57602080600319360112610444576004359061116f60018060a01b03600d5416331461567a565b8183526002815260ff600c6040852001541660058110156103ca576000805160206156bf833981519152916111a8600260609314614a89565b83855260028152600060156040872087815587600182016111c9815461417d565b80611292575b5050600282015582600382015587600482015582600582015582600682015582600782015582600882015582600982015582600a82015582600b82015587600c82015582600d82015587600e82015582600f8201558260108201558760118201558260128201558260138201558760148201550155838552600b815260ff604086205416611284575b6013604051918083528201527214195c9b585b995b9d1b1e481c995b5bdd9959606a1b6040820152a280f35b61128d84615580565b611258565b601f81116001146112ab5750849150555b8738806111cf565b9080869184526112c9601f898620940160051c8401600185016143ce565b55556112a3565b50346102ac5760603660031901126102ac57604435906001600160a01b038083168303610dd257610d8c92602091600c5416604051808096819463dc4ce34960e01b835260243560043560048501614b92565b50346102ac5760403660031901126102ac57604061133f614030565b9160043581526005602052209060018060a01b03166000526020526020604060002054604051908152f35b50346102ac57611379366142bf565b919081526006602052604081209081548310156102ac57602061139c84846140c2565b905460405160039290921b1c6001600160a01b03168152f35b50346102ac57806003193601126102ac57602060405161015e8152f35b50346102ac5760203660031901126102ac5760043580825260026020526040822080546001600160a01b031633036114b65760ff600c8201541660058110156103ca5790611422600992156145b8565b015461a8bf1981019081116114a25742101561146e5760405161146b9161144882614109565b601182527010dc99585d1bdc8818d85b98d95b1b1959607a1b6020830152615166565b80f35b60405162461bcd60e51b815260206004820152600c60248201526b45503a20746f6f206c61746560a01b6044820152606490fd5b634e487b7160e01b83526011600452602483fd5b60405162461bcd60e51b815260206004820152600f60248201526e22a81d103737ba1031b932b0ba37b960891b6044820152606490fd5b50346102ac576114fc366142bf565b919081526007602052604081209081548310156102ac57602061139c84846140c2565b50346102ac5761152e366142bf565b90808352602090600282526040842060ff6011820154166002811015610d2f57600161155a91146147f7565b61156a60ff601483015416614a4a565b61157b60ff600e830154161561483b565b6015810190815461173857600e546001600160a01b0390811661159f8115156148b9565b81600f5416906115b08215156148fa565b8715158061172a575b156116f0579188918760249460405195868092634360af3d60e01b82528560048301525afa9384156116e55783946116b0575b50836116026013949561161293309033906144e0565b82600f541683600e54169061495d565b600e54169201918254813b156116ac57829160448392604051958693849263a6a22b4360e01b845260048401523360248401525af191821561169f578792611688575b50507f51bc042e638ad412f566e4dc9014de5071ce0c49cc314e1056d2d492f4fa6d9c925554926040519485523394a480f35b6116939192506140da565b6105d957848638611655565b50604051903d90823e3d90fd5b8280fd5b935091508683813d81116116de575b6116c9818361413f565b81010312610dd25791519188916116126115ec565b503d6116bf565b6040513d85823e3d90fd5b60405162461bcd60e51b815260048101889052601260248201527122a81d1034b73b30b634b21037b83a34b7b760711b6044820152606490fd5b5060038401548811156115b9565b60405162461bcd60e51b815260048101859052601460248201527311540e88185b1c9958591e48191a5cdc1d5d195960621b6044820152606490fd5b50346102ac5760203660031901126102ac5761178e614046565b6117966142d5565b6001600160a01b03166117aa81151561563b565b600e80546001600160a01b03191691909117905580f35b50346102ac5760203660031901126102ac576117db614046565b6117e36142d5565b6001600160a01b03166117f781151561563b565b600d80546001600160a01b03191691909117905580f35b50346102ac5760203660031901126102ac57600435815260026020526040902061010081905280546001600160a01b03169061184c906001016141b7565b6101405261010051600281015460ff16608052600381015461018052600160a01b60019003600482015416610120526005810154916006820154600783015460088401546009850154600a860154600b87015491600c88015460ff1693600d89015495600e8a015460ff1697600f8b01549960108c01549b60118101546101a052601281015460c05260138101546101c052601481015460ff16610160526015015460e0526040518060a052526102e08060a0516020015260a05101610140519061191691614280565b9b608051151560a051604001526101805160a051606001526101205160a0516080015260a05160a0015260a05160c0015260a05160e0015260a051610100015260a051610120015260a051610140015260a051610160015260a0516101800161197e916142a5565b60a0516101a00152151560a0516101c0015260a0516101e0015260a051610200015260a051610220016101a05160ff16906119b8916142b2565b600160a01b600190036101a05160081c1660a051610240015260c05160a05161026001526101c05160a051610280015261016051151560a0516102a0015260e05160a0516102c0015260a05180910390f35b50346102ac5760203660031901126102ac57611a24614046565b611a2c6142d5565b6001600160a01b0316611a4081151561563b565b600f80546001600160a01b03191691909117905580f35b50346102ac5760203660031901126102ac5760406020916004358152600783522054604051908152f35b50346102ac57806003193601126102ac57600d546040516001600160a01b039091168152602090f35b50346102ac576020806003193601126104445760043590818352600281526040832060118101549060ff82166002811015610d2f57611cb057600c810180549260ff84166005811015610bc4576001611b039114614764565b600e830192835491611b1860ff8416156147a0565b600b8201544210611c7b57604051633fabe5a360e21b8152949392919060a0908690600490829060081c6001600160a01b03165afa948515611c70578995611bfb575b509160026000805160206156df833981519152979492600f85601260609a99970154871015600014611bf4576001955b60ff600d83019716875560108201978855600160ff19809516179055019642885516179055611bb987614d2b565b611bc48154886154df565b54928660008051602061571f83398151915284604051878152a2549054916040519384528301526040820152a280f35b8395611b8b565b9693919594509160a0873d8211611c68575b81611c1a60a0938361413f565b81010312611c64576002606096600f89611c426000805160206156df8339815191529b6147e3565b50611c5360808983015192016147e3565b509798505092949750929092611b5b565b8880fd5b3d9150611c0d565b6040513d8b823e3d90fd5b60405162461bcd60e51b815260048101889052600d60248201526c45503a20746f6f206561726c7960981b6044820152606490fd5b60405162461bcd60e51b815260048101849052601260248201527111540e881b9bdd0814149250d157d191515160721b6044820152606490fd5b50346102ac5760403660031901126102ac57611d04614046565b6001600160a01b03168152600860205260408120805460243592908310156102ac576020611d3284846140c2565b90546040519160031b1c8152f35b50346102ac57806003193601126102ac576020600154604051908152f35b50346102ac57806003193601126102ac57546040516001600160a01b039091168152602090f35b50346102ac5760603660031901126102ac5760443560043560248035906001600160401b038085116105d957366023860112156105d95784600401359081116105d957368282870101116105d95783865260209460028652604087209260ff60118501541660028110156120a0576001611dff91146147f7565b60ff600c8501541660058110156120a0576001611e1c9114614764565b611e2d60ff600e860154161561483b565b6014840194611e4060ff87541615614876565b84546001600160a01b0393908416331461206057878a526003895260408a2033600052895260ff60406000205416156120265789839183151580612018575b611e88906145f5565b85600e541695611e998715156148b9565b8b81600f541697611eab8915156148fa565b60405197888092634360af3d60e01b82528b60048301525afa80156116e5578c9789978592611fda575b5081611602611f5d9493611eec93309033906144e0565b604051958c89880152604087015260408652611f0786614124565b600e5416946084856040519a8b998a98899763abdc5dcd60e01b8952606060048a01528260648a0152018488013786838288010152601f8019910116850190339086015260808582030160448601520190614280565b03925af19485156105e4578695611fa9575b5050601301839055805460ff191660011790557fc92f993487c6d961b60ff2a81386dff5cc620cd4aed9cddabe26500391655e828380a380f35b90809550813d8311611fd3575b611fc0818361413f565b8101031261087c57601393519338611f6f565b503d611fb6565b945097809297508491503d8311612011575b611ff6818361413f565b81010312610dd25790518a9587958d93929091611eec611ed5565b503d611fec565b506003880154841115611e7f565b60405162461bcd60e51b8152600481018a90526013818501527245503a206d7573742068617665207374616b6560681b6044820152606490fd5b60405162461bcd60e51b8152600481018a90526019818501527811540e8818dc99585d1bdc8818d85b9b9bdd08185cdcd95c9d603a1b6044820152606490fd5b50634e487b7160e01b8852602160045287fd5b50346102ac5760203660031901126102ac5760043580825260026020526040822060ff60118201541660028110156103ca5760016120f191146147f7565b60ff600c8201541660058110156103ca57612130916121146001600a9314614764565b61212560ff60148301541615614876565b015460015490614390565b42106121855760405161146b9161214682614124565b602782527f4e6f20617373657274696f6e206d61646520e2809420726566756e647320617660208301526661696c61626c6560c81b6040830152615166565b60405162461bcd60e51b815260206004820152601760248201527645503a20677261636520706572696f642061637469766560481b6044820152606490fd5b50346102ac57610d8c9060206121d93661405c565b600c5460405163423e7bc160e11b81529687946001600160a01b03909216938593849390919060048501614744565b50346102ac5760203660031901126102ac576004356122256142d5565b610e1081106122345760015580f35b60405162461bcd60e51b815260206004820152600d60248201526c11540e881d1bdbc81cda1bdc9d609a1b6044820152606490fd5b50346102ac57806003193601126102ac5760206040516123be8152f35b50346102ac5760203660031901126102ac576004358082526002602052604082209060ff600c8301541660058110156103ca5760016122c59114614764565b600b820154421061231c576122e460ff600e61146b94015416156147a0565b604051906122f182614109565b601982527814995cdbdb1d5d1a5bdb881c195c9a5bd908195e1c1a5c9959603a1b6020830152615166565b60405162461bcd60e51b815260206004820152601c60248201527b45503a207265736f6c7574696f6e20706572696f642061637469766560201b6044820152606490fd5b50346102ac57806003193601126102ac576123796142d5565b600080546001600160a01b0319811682556001600160a01b03166000805160206156ff8339815191528280a380f35b50346102ac57602080600319360112610444576004358252600681526040822060405192838383549182815201908193835284832090835b81811061243d57505050846123f691038561413f565b60405193838594850191818652518092526040850193925b82811061241d57505050500390f35b83516001600160a01b03168552869550938101939281019260010161240e565b82546001600160a01b0316845292860192600192830192016123e0565b50346102ac57806003193601126102ac5760206040516103528152f35b50346102ac576020806003193601126104445760043590818352600281526040832060ff60118201541660028110156126bd5760016124b691146147f7565b6124c660ff601483015416614a4a565b600e8101908154926124db60ff85161561483b565b600e54601383015460405163e39dfd7f60e01b8152600481018290529094918890829060249082906001600160a01b03165afa9485156126b25788918996612624575b50877f01bcfc076833db7a342b2b4213f01d2341de157027e6a14cb082cc770513937c856040518515158152a31561260557604084805181010312610a6e576000805160206156df8339815191529460406060950151915b821515806125f7575b612588906145f5565b600d8501928355886010860155600160ff198093161790556002600c600f86019542875501918254161790556125bd86614d2b565b6125c88154876154df565b54918560008051602061571f83398151915283604051868152a25490604051928352820152846040820152a280f35b50600385015483111561257f565b606093506000805160206156df83398151915294601584015491612576565b915094503d8089833e612637818361413f565b810190604081830312611c645761264d81614301565b8482015190916001600160401b0382116126aa570182601f820112156126ae57805161267881614162565b93612686604051958661413f565b8185528682840101116126aa576126a29186808601910161425d565b90943861251e565b8a80fd5b8980fd5b6040513d8a823e3d90fd5b634e487b7160e01b85526021600452602485fd5b50346102ac576020806003193601126104445760043580835260028252604083209160ff600c8401541660058110156126bd5760026127109114614a89565b61271f600d8401541515614ac8565b818452600381526040842033600052815261274160ff60406000205416614b04565b600c546040516307c7a72d60e01b815285916001600160a01b0390811691848180612770338a60048401614b3f565b0381865afa8015612858578490612822575b61278d915015614b58565b60046127993387614bb3565b9601541690803b156116ac578583916127cb9383604051809681958294632f0041ed60e11b8452338d600486016146f0565b03925af180156108715761280a575b50507f5380cf6fe903b40c6d5a9e0dfbca2f3a423f0a21520b4d5947ed5169bdba946d906040519384523393a380f35b612813906140da565b61281e5783386127da565b8380fd5b508481813d8311612851575b612838818361413f565b8101031261281e5761284c61278d91614301565b612782565b503d61282e565b6040513d86823e3d90fd5b506101803660031901126102ac57600435906001600160401b0382116102ac57366023830112156102ac57816004013561289c81614162565b926128aa604051948561413f565b81845236602483830101116116ac5781839260246020930183870137840101526024351515602435036102ac576064356001600160a01b0381169003610dd25760026101243510156102ac5761014435906001600160a01b0382168203610dd257600d54604051632b5ba3b960e01b81523360048201526001600160a01b0390911690602081602481855afa80156116e5578390613624575b61294e91501561430e565b8351156135ee5760026044351015806135e1575b156135aa57608435156135755760a4351561353e5760c435151580613530575b156134f957610124351561346b575b6040516317916e0160e01b8152602081600481855afa9081156116e5578391613439575b5060e435106134015760e43561010435106133bf5760243515613325576064356001600160a01b0316156132e857604051633462561360e11b81526064356001600160a01b0316600482015290602090829060249082905afa80156108715782906132ad575b612a25915061434c565b670de0b6b3a7640000341061327657603c60e4350260e4358104603c1460e43515171561310957612a569042614390565b9061010435603c610104350204603c146101043515171561326257612a81603c610104350242614390565b6101243561324a5780915b60095494612a99866143b3565b60095560405190612aa9826140ed565b33825287602083015260243515156040830152604435606083015260018060a01b0360643516608083015260843560a083015260a43560c083015260c43560e08301524261010083015285610120830152836101408301528461016083015282610180830152826101a0830152826101c0830152826101e083015282610200830152612b3c6101243561022084016143c2565b6001600160a01b039081166102408301526101643561026083015261028082018390526102a082018390526102c082018390528683526002602090815260408420835181546001600160a01b03191693169290921782558201518051919291906001600160401b038211613236578190612bb9600186015461417d565b601f81116131f8575b50602090601f831160011461318957869261317e575b50508160011b916000199060031b1c19161760018301555b612c0360408201511515600284016143e5565b606081015160038301556004820160018060a01b0360808301511660018060a01b031982541617905560a0810151600583015560c0810151600683015560e0810151600783015561010081015160088301556101208101516009830155610140810151600a830155610160810151600b83015561018081015160058110156103ca5760ff8019600c85015416911617600c8301556101a0810151600d830155612cb66101c08201511515600e84016143e5565b6101e0810151600f83015561020081015160108301556011820161022082015160028110156126bd578154610240840151610100600160a81b0360089190911b1660ff929092166001600160a81b031990911617179055610260810151601283015561028081015160138301556102a08101516015916102c091612d3f901515601486016143e5565b0151910155600a54600160401b81101561316857612d7e612d67826001899401600a55614091565b819391549060031b91821b91600019901b19161790565b9055848152600b60205260408120805460ff191660011790556064356001600160a01b031661311d5760a435670de0b6b3a76400000180670de0b6b3a7640000116131095734106130cc57612df381808080670de0b6b3a764000060018060a01b038254165af1612ded61441c565b5061444c565b8080808060a43560018060a01b03600c54165af1612e0f61441c565b501561308d575b848152600360205260408120336000526020526040600020600160ff198254161790558481526005602052604081203360005260205260c4356040600020553381526008602052612e6a85604083206143f6565b600c546001600160a01b0316803b15610444578160405180926395f4109560e01b8252818381612eaa60c4358d60a435906064359033906004870161448e565b03925af1801561087157908291613079575b5050600d5460405163406ad64560e11b815290602090829060049082906001600160a01b03165afa90811561087157829161305a575b506001600160a01b038116612f94575b505060209484927f5d0726a1bb5ec8c87527e69ba86d988202e885fad8f2b4aacd618793d6f297b292612f42604051936101208552610120850190614280565b6024351515848a015260443560408501526064356001600160a01b0316606085015260843560808501524260a085015260c084019690965260e0830152610100820152339381900390a3604051908152f35b6001600160a01b0381163b156104445760405163782a780560e11b8152828180612fc2338b60048401614b3f565b0381836001600160a01b0387165af180156116e557908391613046575b50506001600160a01b0381163b156104445760405163c228038d60e01b8152908290829081838161301a60a43560c435338f600486016151d0565b03926001600160a01b03165af180156108715715612f025761303c82916140da565b6102ac5780612f02565b61304f906140da565b610444578138612fdf565b613073915060203d6020116108a657610897818361413f565b38612ef2565b613082906140da565b6102ac578038612ebc565b60405162461bcd60e51b815260206004820152601760248201527611540e8819195c1bdcda5d081cd95b990819985a5b1959604a1b6044820152606490fd5b60405162461bcd60e51b815260206004820152601560248201527445503a20696e73756666696369656e74205045505560581b6044820152606490fd5b634e487b7160e01b82526011600452602482fd5b61314181808080670de0b6b3a764000060018060a01b038254165af1612ded61441c565b600c546131639060a435906001600160a01b03908116903390606435166144e0565b612e16565b634e487b7160e01b600052604160045260246000fd5b015190503880612bd8565b9250600185018652602086209086935b601f19841685106131dd576001945083601f198116106131c4575b505050811b016001830155612bf0565b015160001960f88460031b161c191690553880806131b4565b81810151835560209485019460019093019290910190613199565b6132269060018701885260208820601f850160051c8101916020861061322c575b601f0160051c01906143ce565b38612bc2565b9091508190613219565b634e487b7160e01b85526041600452602485fd5b6201a5e081018111613109576201a5e0810191612a8c565b634e487b7160e01b81526011600452602490fd5b60405162461bcd60e51b815260206004820152600f60248201526e45503a2066656520746f6f206c6f7760881b6044820152606490fd5b506020813d6020116132e0575b816132c76020938361413f565b81010312610444576132db612a2591614301565b612a1b565b3d91506132ba565b60405162461bcd60e51b815260206004820152601560248201527422a81d1036bab63a34903732b2b239903a37b5b2b760591b6044820152606490fd5b6064356001600160a01b031661333c575b50612a25565b604051633462561360e11b81526064356001600160a01b0316600482015290602090829060249082905afa8015610871578290613384575b61337e915061434c565b38613336565b506020813d6020116133b7575b8161339e6020938361413f565b81010312610444576133b261337e91614301565b613374565b3d9150613391565b60405162461bcd60e51b815260206004820152601a60248201527945503a207265736f6c7574696f6e206166746572207374616b6560301b6044820152606490fd5b60405162461bcd60e51b815260206004820152601060248201526f22a81d1036b4b710323ab930ba34b7b760811b6044820152606490fd5b90506020813d602011613463575b816134546020938361413f565b81010312610dd25751386129b5565b3d9150613447565b6001600160a01b038316156134c057610164356129915760405162461bcd60e51b815260206004820152601660248201527511540e881d1a1c995cda1bdb19081c995c5d5a5c995960521b6044820152606490fd5b60405162461bcd60e51b815260206004820152601160248201527011540e8819995959081c995c5d5a5c9959607a1b6044820152606490fd5b60405162461bcd60e51b815260206004820152600f60248201526e45503a20626164206f7574636f6d6560881b6044820152606490fd5b5060443560c4351115612982565b60405162461bcd60e51b815260206004820152600f60248201526e11540e881898590819195c1bdcda5d608a1b6044820152606490fd5b60405162461bcd60e51b815260206004820152600d60248201526c45503a20626164207374616b6560981b6044820152606490fd5b60405162461bcd60e51b815260206004820152600f60248201526e45503a20626164206f7074696f6e7360881b6044820152606490fd5b50600a6044351115612962565b60405162461bcd60e51b815260206004820152600e60248201526d08aa07440cadae0e8f240d0c2e6d60931b6044820152606490fd5b506020813d602011613657575b8161363e6020938361413f565b810103126116ac5761365261294e91614301565b612943565b3d9150613631565b50346102ac57806003193601126102ac57600c546040516001600160a01b039091168152602090f35b50346102ac576020806003193601126104445760043580835260028252604083209160ff600c8401541660058110156126bd576003036139a757818452600381526040842033600052815260ff604060002054168015613987575b1561394b578392828552600382526040852033600052825260ff604060002054166138a5575b828552600482526040852033600052825260ff604060002054166137fd575b83156137c657600c5460049091015485916001600160a01b039182169116803b156116ac57858391613773938360405180968195829463164fcd7d60e21b8452338d600486016146f0565b03925af18015610871576137b2575b50507ff3f402280ef0a7905e124aa621b65eaeb2725c343e8b36d398ed78c29daf285c906040519384523393a380f35b6137bb906140da565b61281e578338613782565b60405162461bcd60e51b815260048101839052600f60248201526e11540e881e995c9bc81c99599d5b99608a1b6044820152606490fd5b92613834908260018060a01b0380600c54169060048801541690604051808096819463256ba74160e01b8352338b60048501614744565b03915afa9081156105e4578691613874575b6138509250614390565b928285526004825260408520336000528252604060002060ff198154169055613728565b90508282813d831161389e575b61388b818361413f565b81010312610dd257613850915190613846565b503d613881565b92506138dc8160018060a01b0380600c54169060048701541690604051808095819463423e7bc160e11b8352338a60048501614744565b03915afa908115613940578591613913575b50928285526003825260408520336000528252604060002060ff198154169055613709565b90508181813d8311613939575b61392a818361413f565b81010312610dd25751386138ee565b503d613920565b6040513d87823e3d90fd5b6064906040519062461bcd60e51b82526004820152601560248201527411540e881b9bdd1a1a5b99c81d1bc81c99599d5b99605a1b6044820152fd5b50818452600481526040842033600052815260ff604060002054166136e3565b6064906040519062461bcd60e51b82526004820152601160248201527011540e881b9bdd0818d85b98d95b1b1959607a1b6044820152fd5b50346102ac5760203660031901126102ac5760043580825260026020526040822060ff60118201541660028110156103ca576001613a1d91146147f7565b613a2d60ff601483015416614a4a565b82601360018060a01b03600e54169201918254813b156116ac578291602483926040519485938492634124beef60e01b845260048401525af1801561087157613a9c575b505054907f049c1c3eca1ffdb1b59f7205ce06f2461ace420050f9ad1b4b6b55f4a0f2e5268380a380f35b613aa5906140da565b6116ac578238613a71565b50346102ac57806003193601126102ac5760206040516101f48152f35b50346102ac5760403660031901126102ac57610d8c906020613aed614030565b60018060a01b03600c54166040518080968194634f44289d60e01b835260043560048401614b3f565b50346102ac57806003193601126102ac576020600954604051908152f35b50346102ac576020806003193601126104445760043580835260028252604083206004835260408420338552835260ff60408520541615613d7a5760ff600c8201541660058110156126bd5780613d1f5750600981015461a8bf198101908111613d0b57421015613ccb575b60018060a01b03600481600c541692015416906040519063256ba74160e01b8252848280613bd386338960048501614744565b0381845afa9182156105e4578692613c9c575b508115613c5d57908186923b156116ac57613c1a93836040518096819582946317be0b2f60e11b8452338b600486016146f0565b03925af1801561285857613c4a575b5082526004815260408220903360005252604060002060ff19815416905580f35b613c56909391936140da565b9138613c29565b60405162461bcd60e51b815260048101869052601760248201527645503a206e6f7468696e6720746f20776974686472617760481b6044820152606490fd5b9091508481813d8311613cc4575b613cb4818361413f565b810103126105d957519038613be6565b503d613caa565b60405162461bcd60e51b815260048101849052601860248201527745503a20746f6f206c61746520746f20776974686472617760401b6044820152606490fd5b634e487b7160e01b85526011600452602485fd5b60048114908115613d6f575b50613ba05760405162461bcd60e51b815260048101849052601760248201527645503a2063616e6e6f74207769746864726177206e6f7760481b6044820152606490fd5b600391501438613d2b565b60405162461bcd60e51b815260048101849052600e60248201526d11540e881b9bc81cdd5c1c1bdc9d60921b6044820152606490fd5b50346102ac5760203660031901126102ac5760043590600a548210156102ac576020611d3283614091565b50346102ac5760403660031901126102ac5760ff6040602092613dfc614030565b6004358252600385528282206001600160a01b03909116825284522054604051911615158152f35b50346102ac57806003193601126102ac576020604051670de0b6b3a76400008152f35b50346102ac5760403660031901126102ac5760ff6040602092613e68614030565b60048035835285528282206001600160a01b03909116825284522054604051911615158152f35b50346102ac57613ed26020613ea33661405c565b600c5460405163256ba74160e01b81529586946001600160a01b03909216938593849390919060048501614744565b03915afa908115610871578291613eef575b602082604051908152f35b90506020813d8211613f1c575b81613f096020938361413f565b8101031261044457602091505138613ee4565b3d9150613efc565b50346102ac57806003193601126102ac57600e546040516001600160a01b039091168152602090f35b50346102ac57806003193601126102ac57600f546040516001600160a01b039091168152602090f35b50346102ac5760203660031901126102ac576004359081815260026020526040812091600c830180549360ff851660058110156126bd5794613fce600a600193613fc461146b9899156145b8565b0154421015614764565b60ff1916179055615580565b50346102ac5760203660031901126102ac5760ff60406020926004358152600b84522054166040519015158152f35b90503461044457602036600319011261044457604060209260043581526006845220548152f35b602435906001600160a01b0382168203610dd257565b600435906001600160a01b0382168203610dd257565b6060906003190112610dd257600435906001600160a01b03906024358281168103610dd257916044359081168103610dd25790565b600a548110156140ac57600a60005260206000200190600090565b634e487b7160e01b600052603260045260246000fd5b80548210156140ac5760005260206000200190600090565b6001600160401b03811161316857604052565b6102e081019081106001600160401b0382111761316857604052565b604081019081106001600160401b0382111761316857604052565b606081019081106001600160401b0382111761316857604052565b601f909101601f19168101906001600160401b0382119082101761316857604052565b6001600160401b03811161316857601f01601f191660200190565b90600182811c921680156141ad575b602083101461419757565b634e487b7160e01b600052602260045260246000fd5b91607f169161418c565b90604051918260008254926141cb8461417d565b90818452600194858116908160001461423a57506001146141f7575b50506141f59250038361413f565b565b9093915060005260209081600020936000915b8183106142225750506141f5935082010138806141e7565b8554888401850152948501948794509183019161420a565b9150506141f594506020925060ff191682840152151560051b82010138806141e7565b60005b8381106142705750506000910152565b8181015183820152602001614260565b906020916142998151809281855285808601910161425d565b601f01601f1916010190565b90600582101561112d5752565b90600282101561112d5752565b6040906003190112610dd2576004359060243590565b6000546001600160a01b031633036142e957565b60405163118cdaa760e01b8152336004820152602490fd5b51908115158203610dd257565b1561431557565b60405162461bcd60e51b815260206004820152600f60248201526e11540e88189b1858dadb1a5cdd1959608a1b6044820152606490fd5b1561435357565b60405162461bcd60e51b815260206004820152601560248201527422a81d103ab739bab83837b93a32b2103a37b5b2b760591b6044820152606490fd5b9190820180921161439d57565b634e487b7160e01b600052601160045260246000fd5b600019811461439d5760010190565b600282101561112d5752565b8181106143d9575050565b600081556001016143ce565b9060ff801983541691151516179055565b805490600160401b8210156131685781612d67916001614418940181556140c2565b9055565b3d15614447573d9061442d82614162565b9161443b604051938461413f565b82523d6000602084013e565b606090565b1561445357565b60405162461bcd60e51b815260206004820152601360248201527211540e88199959481cd95b990819985a5b1959606a1b6044820152606490fd5b9081526001600160a01b039182166020820152911660408201526060810191909152608081019190915260a00190565b6001600160a01b03918216815291166020820152604081019190915260600190565b90614516906145086141f5956040519586936323b872dd60e01b6020860152602485016144be565b03601f19810184528361413f565b906000602091828151910182855af115614572576000513d61456957506001600160a01b0381163b155b6145475750565b604051635274afe760e01b81526001600160a01b039091166004820152602490fd5b60011415614540565b6040513d6000823e3d90fd5b1561458557565b60405162461bcd60e51b815260206004820152600b60248201526a11540e8819195b195d195960aa1b6044820152606490fd5b156145bf57565b60405162461bcd60e51b815260206004820152600e60248201526d45503a206e6f742061637469766560901b6044820152606490fd5b156145fc57565b60405162461bcd60e51b815260206004820152600e60248201526d22a81d103130b21037b83a34b7b760911b6044820152606490fd5b1561463957565b60405162461bcd60e51b815260206004820152600d60248201526c22a81d103132b637bb9036b4b760991b6044820152606490fd5b1561467557565b60405162461bcd60e51b815260206004820152601860248201527711540e881d1c99585cdd5c9e481cd95b990819985a5b195960421b6044820152606490fd5b8054600160401b811015613168576146d2916001820181556140c2565b819291549060031b9160018060a01b03809116831b921b1916179055565b9081526001600160a01b03918216602082015291166040820152606081019190915260800190565b90816020910312610dd257516001600160a01b0381168103610dd25790565b9190820391821161439d57565b9081526001600160a01b0391821660208201529116604082015260600190565b1561476b57565b60405162461bcd60e51b815260206004820152600d60248201526c11540e881b9bdd08195b991959609a1b6044820152606490fd5b156147a757565b60405162461bcd60e51b815260206004820152601460248201527311540e88185b1c9958591e481c995cdbdb1d995960621b6044820152606490fd5b51906001600160501b0382168203610dd257565b156147fe57565b60405162461bcd60e51b815260206004820152601560248201527445503a206e6f74205032504f5054494d495354494360581b6044820152606490fd5b1561484257565b60405162461bcd60e51b815260206004820152600c60248201526b11540e881c995cdbdb1d995960a21b6044820152606490fd5b1561487d57565b60405162461bcd60e51b815260206004820152601460248201527345503a20617373657274696f6e2065786973747360601b6044820152606490fd5b156148c057565b60405162461bcd60e51b815260206004820152601260248201527111540e881bdc9858db19481b9bdd081cd95d60721b6044820152606490fd5b1561490157565b60405162461bcd60e51b815260206004820152601960248201527811540e88189bdb990818dd5c9c995b98de481b9bdd081cd95d603a1b6044820152606490fd5b6001600160a01b039091168152602081019190915260400190565b9291926040519160208301906149948461498663095ea7b360e01b988986528460248401614942565b03601f19810186528561413f565b60206000809386519082875af182513d82614a25575b5050156149ba575b505050509050565b60405160208101969096526001600160a01b031660248601526044808601829052855260808501906001600160401b03821186831017614a115750614a0793946145169160405282614516565b80388080806149b2565b634e487b7160e01b81526041600452602490fd5b909150614a4257506001600160a01b0383163b15155b38806149aa565b600114614a3b565b15614a5157565b60405162461bcd60e51b815260206004820152601060248201526f22a81d1037379030b9b9b2b93a34b7b760811b6044820152606490fd5b15614a9057565b60405162461bcd60e51b815260206004820152601060248201526f11540e881b9bdd081c995cdbdb1d995960821b6044820152606490fd5b15614acf57565b60405162461bcd60e51b815260206004820152600d60248201526c22a81d103737903bb4b73732b960991b6044820152606490fd5b15614b0b57565b60405162461bcd60e51b815260206004820152600c60248201526b45503a206e6f207374616b6560a01b6044820152606490fd5b9081526001600160a01b03909116602082015260400190565b15614b5f57565b60405162461bcd60e51b815260206004820152600b60248201526a11540e8818db185a5b595960aa1b6044820152606490fd5b90815260208101919091526001600160a01b03909116604082015260600190565b919091600092818452602091600283526040928386209360018060a01b039384600c541692856004880154169583519663423e7bc160e11b8852828880614bff84888c60048501614744565b0381895afa978815614d21578b98614cf2575b508290600d614c3b999a015496865180809b819463dc4ce34960e01b83528b8d60048501614b92565b03915afa968715614ce8578a97614cb9575b50614c5786614ff2565b958a5260058252838a20921689525286205403614cb4578115614cb4578015614cad576123be80820291820403613d0b576127109004808302908382041483151715613d0b57614caa9394500490614390565b90565b5090925050565b505050565b9096508181813d8311614ce1575b614cd1818361413f565b810103126126ae57519538614c4d565b503d614cc7565b84513d8c823e3d90fd5b9097508281813d8311614d1a575b614d0a818361413f565b810103126126aa57519682614c12565b503d614d00565b85513d8d823e3d90fd5b60009080825260026020526040908183209060018060a01b039182600c5416600d82015490600492614d7c8482019560208888541680968b51948592839263dc4ce34960e01b8452868c8501614b92565b0381875afa918215614fe8578a92614fb3575b50614d9990614ff2565b928315614fa75761015e84029461015d1985870401614f9457612710809604956101f48087029087820403614f81570492614ecb5750505082614e5c575b5090614de291614737565b9283614df1575b505050505050565b80600c541692541690823b156105d95791849391868094614e2597519788958694859363f0824f3360e01b85528401614942565b03925af1908115614e535750614e3f575b80808080614de9565b614e4982916140da565b6102ac5780614e36565b513d84823e3d90fd5b8580600c54169154168686541690823b156126ae57614e95928a928387938c519687958694859363112cd22360e01b85528d85016144be565b03925af18015614ec157908891614ead575b50614dd7565b614eb6906140da565b610a6e578638614ea7565b87513d8a823e3d90fd5b919794935091849084614f1f575b505050505083614eeb57505050505050565b80600c541692541690823b156105d95791849391868094614e259751978895869485936348fef59560e01b85528401614942565b5416823b156126ae5791614f4c93918a80948b519687958694859363112cd22360e01b85528c85016144be565b03925af18015614f7757614f64575b80808381614ed9565b614f70909691966140da565b9438614f5b565b86513d89823e3d90fd5b634e487b7160e01b8d526011895260248dfd5b634e487b7160e01b8b526011875260248bfd5b50505050505050505050565b9091506020813d8211614fe0575b81614fce6020938361413f565b810103126126ae575190614d99614d8f565b3d9150614fc1565b89513d8c823e3d90fd5b90600091808352602090600282526040918285209185926001600382015490600d830154905b828111156150b8575050509180916150589360018060a01b03600481600c541692015416918751809681948293634f44289d60e01b845260048401614b3f565b03915afa9384156150af57508593615078575b5050614caa929350614390565b9080929350813d83116150a8575b615090818361413f565b8101031261281e57614caa929350519083923861506b565b503d615086565b513d87823e3d90fd5b8181036150ce575b6150c9906143b3565b615018565b9587868860018060a01b038881600c541691615105600491828c01541696519687958694859463dc4ce34960e01b86528501614b92565b03915afa90811561515c578b9161512d575b50615125906150c992614390565b9690506150c0565b90508681813d8311615155575b615144818361413f565b810103126126aa57516150c9615117565b503d61513a565b89513d8d823e3d90fd5b906151bd6000805160206156bf83398151915291836000526002602052600c604060002001600360ff19825416179055600b60205260ff604060002054166151c2575b604051918291602083526020830190614280565b0390a2565b6151cb84615580565b6151a9565b909493926060926080830196835260018060a01b0316602083015260408201520152565b939093600094818652602093600385526040948588209160018060a01b039283851690818b52835260ff888b2054161561536d575b858a5260038352878a20818b528352878a20600160ff19825416179055858a5260058352878a20908a52825285878a205582600c5416803b156126ae5788918a9186838961528d8c8e51988997889687956395f4109560e01b87526004870161448e565b03925af180156153505761535a575b5060048183600d541688519283809263406ad64560e11b82525afa918215615350578992615333575b50501691826152d8575b50505050505050565b823b15610a6e5790868094939261530487519889968795869463c228038d60e01b8652600486016151d0565b03925af1908115614e53575061531f575b80808080806152cf565b61532982916140da565b6102ac5780615315565b6153499250803d106108a657610897818361413f565b38806152c5565b87513d8b823e3d90fd5b615366909891986140da565b963861529c565b858a526006835261538085898c206146b5565b808a526008835261539386898c206143f6565b615229565b1561539f57565b60405162461bcd60e51b815260206004820152601260248201527111540e881cdd185ada5b99c818db1bdcd95960721b6044820152606490fd5b600d5460405163111a798960e31b8152602092916001600160a01b0316908381600481855afa908115614572576000916154aa575b5015615499578260049160405192838092632eaa712b60e21b82525afa92831561457257600093615467575b505060090154603c820291808304603c149015171561439d576141f59161546091614737565b4210615398565b8181949293943d8311615492575b61547f818361413f565b810103126102ac5750519060093861543a565b503d615475565b506141f59150600901544210615398565b908482813d83116154d8575b6154c0818361413f565b810103126102ac57506154d290614301565b3861540e565b503d6154b6565b600d5460405163406ad64560e11b81526001600160a01b03916020908290600490829086165afa90811561457257600091615562575b5016918261552257505050565b823b15610dd257604460009283604051958694859362ff4a7360e81b8552600485015260248401525af18015614572576155595750565b6141f5906140da565b61557a915060203d81116108a657610897818361413f565b38615515565b60005b600a908154918282101561563557839261559c83614091565b949054600395861b1c146155bb5750506155b691506143b3565b615583565b90916000199182810190811161439d57612d676155da6155e692614091565b905490871b1c92614091565b90558154801561561f578101926155fc84614091565b81939154921b1b1916905555600052600b602052604060002060ff198154169055565b634e487b7160e01b600052603160045260246000fd5b50505050565b1561564257565b60405162461bcd60e51b815260206004820152601060248201526f45503a207a65726f206164647265737360801b6044820152606490fd5b1561568157565b60405162461bcd60e51b815260206004820152601560248201527422a81d1037b7363c9020b236b4b726b0b730b3b2b960591b6044820152606490fdfe4c4561c5b0048424071c1115e9f1e325486e21c21333d968f21097b7b72d12ad08afae4e86110ea235d8bcdfcf9e4ce28970591d583838c26cfa08286a38d1b18be0079c531659141344cd1fd0a4f28419497f9722a3daafe3b4186f6b6457e06dfc24f0f2fb42e49fb4fa3ffa8abb148cab908a1fb8335b3f128a08b2594af1e10fdde2c5cd9b92e449ee25df01febda2cbebc5553e38f2250ffe7f2d5143bca164736f6c6343000814000a","opcodes":"PUSH1 0x80 CALLVALUE PUSH3 0x106 JUMPI PUSH1 0x1F PUSH3 0x58A2 CODESIZE DUP2 SWAP1 SUB SWAP2 DUP3 ADD PUSH1 0x1F NOT AND DUP4 ADD SWAP2 PUSH1 0x1 PUSH1 0x1 PUSH1 0x40 SHL SUB DUP4 GT DUP5 DUP5 LT OR PUSH3 0x10B JUMPI DUP1 DUP5 SWAP3 PUSH1 0x60 SWAP5 PUSH1 0x40 MSTORE DUP4 CODECOPY DUP2 ADD SUB SLT PUSH3 0x106 JUMPI PUSH3 0x4D DUP2 PUSH3 0x121 JUMP JUMPDEST PUSH1 0x20 DUP3 ADD MLOAD PUSH1 0x1 PUSH1 0x1 PUSH1 0xA0 SHL SUB DUP1 DUP3 AND SWAP4 SWAP1 SWAP2 DUP5 SWAP1 SUB PUSH3 0x106 JUMPI PUSH3 0x77 PUSH1 0x40 DUP4 SWAP3 ADD PUSH3 0x121 JUMP JUMPDEST SWAP3 AND SWAP2 DUP3 ISZERO PUSH3 0xED JUMPI PUSH1 0x0 SLOAD SWAP4 PUSH1 0x1 DUP1 PUSH1 0xA0 SHL SUB NOT SWAP4 DUP1 DUP6 DUP8 AND OR PUSH1 0x0 SSTORE DUP4 PUSH1 0x40 MLOAD SWAP7 AND PUSH32 0x8BE0079C531659141344CD1FD0A4F28419497F9722A3DAAFE3B4186F6B6457E0 PUSH1 0x0 DUP1 LOG3 PUSH3 0x2A300 PUSH1 0x1 SSTORE PUSH1 0x1 PUSH1 0x9 SSTORE DUP4 PUSH1 0xC SLOAD AND OR PUSH1 0xC SSTORE AND SWAP1 PUSH1 0xD SLOAD AND OR PUSH1 0xD SSTORE PUSH2 0x576B SWAP1 DUP2 PUSH3 0x137 DUP3 CODECOPY RETURN JUMPDEST PUSH1 0x40 MLOAD PUSH4 0x1E4FBDF7 PUSH1 0xE0 SHL DUP2 MSTORE PUSH1 0x0 PUSH1 0x4 DUP3 ADD MSTORE PUSH1 0x24 SWAP1 REVERT JUMPDEST PUSH1 0x0 DUP1 REVERT JUMPDEST PUSH4 0x4E487B71 PUSH1 0xE0 SHL PUSH1 0x0 MSTORE PUSH1 0x41 PUSH1 0x4 MSTORE PUSH1 0x24 PUSH1 0x0 REVERT JUMPDEST MLOAD SWAP1 PUSH1 0x1 PUSH1 0x1 PUSH1 0xA0 SHL SUB DUP3 AND DUP3 SUB PUSH3 0x106 JUMPI JUMP INVALID PUSH2 0x1E0 DUP1 PUSH1 0x40 MSTORE PUSH1 0x4 CALLDATASIZE LT ISZERO PUSH2 0x1E JUMPI JUMPDEST POP CALLDATASIZE ISZERO PUSH2 0x1C JUMPI PUSH1 0x0 DUP1 REVERT JUMPDEST STOP JUMPDEST PUSH1 0x0 SWAP1 DUP2 CALLDATALOAD PUSH1 0xE0 SHR SWAP1 DUP2 PUSH4 0xCCF4467 EQ PUSH2 0x4009 JUMPI POP DUP1 PUSH4 0xD64CDBD EQ PUSH2 0x3FDA JUMPI DUP1 PUSH4 0x157BDCCE EQ PUSH2 0x3F76 JUMPI DUP1 PUSH4 0x209C1C94 EQ PUSH2 0x3F4D JUMPI DUP1 PUSH4 0x22302922 EQ PUSH2 0x3F24 JUMPI DUP1 PUSH4 0x256BA741 EQ PUSH2 0x3E8F JUMPI DUP1 PUSH4 0x287F57B5 EQ PUSH2 0x3E47 JUMPI DUP1 PUSH4 0x2EF1BDFA EQ PUSH2 0x3E24 JUMPI DUP1 PUSH4 0x304BF1F1 EQ PUSH2 0x3DDB JUMPI DUP1 PUSH4 0x3ADFE6D0 EQ PUSH2 0x3DB0 JUMPI DUP1 PUSH4 0x3E32A76C EQ PUSH2 0x3B34 JUMPI DUP1 PUSH4 0x406EF2EF EQ PUSH2 0x3B16 JUMPI DUP1 PUSH4 0x4F44289D EQ PUSH2 0x3ACD JUMPI DUP1 PUSH4 0x539AA77F EQ PUSH2 0x3AB0 JUMPI DUP1 PUSH4 0x569946C5 EQ PUSH2 0x39DF JUMPI DUP1 PUSH4 0x5B7BAF64 EQ PUSH2 0x3688 JUMPI DUP1 PUSH4 0x61D027B3 EQ PUSH2 0x365F JUMPI DUP1 PUSH4 0x66CF7ED4 EQ PUSH2 0x2863 JUMPI DUP1 PUSH4 0x677BD9FF EQ PUSH2 0x26D1 JUMPI DUP1 PUSH4 0x6D4476EC EQ PUSH2 0x2477 JUMPI DUP1 PUSH4 0x6F28507C EQ PUSH2 0x245A JUMPI DUP1 PUSH4 0x6F59359E EQ PUSH2 0x23A8 JUMPI DUP1 PUSH4 0x715018A6 EQ PUSH2 0x2360 JUMPI DUP1 PUSH4 0x7C16CD9E EQ PUSH2 0x2286 JUMPI DUP1 PUSH4 0x7D549433 EQ PUSH2 0x2269 JUMPI DUP1 PUSH4 0x818EF5F6 EQ PUSH2 0x2208 JUMPI DUP1 PUSH4 0x847CF782 EQ PUSH2 0x21C4 JUMPI DUP1 PUSH4 0x87A6B0FF EQ PUSH2 0x20B3 JUMPI DUP1 PUSH4 0x8D0D180E EQ PUSH2 0x1D85 JUMPI DUP1 PUSH4 0x8DA5CB5B EQ PUSH2 0x1D5E JUMPI DUP1 PUSH4 0x93FCF24D EQ PUSH2 0x1D40 JUMPI DUP1 PUSH4 0x98A17671 EQ PUSH2 0x1CEA JUMPI DUP1 PUSH4 0x9A3A40D6 EQ PUSH2 0x1AAA JUMPI DUP1 PUSH4 0xA210B6A4 EQ PUSH2 0x1A81 JUMPI DUP1 PUSH4 0xA30A0914 EQ PUSH2 0x1A57 JUMPI DUP1 PUSH4 0xA550725D EQ PUSH2 0x1A0A JUMPI DUP1 PUSH4 0xB1283E77 EQ PUSH2 0x180E JUMPI DUP1 PUSH4 0xBC160758 EQ PUSH2 0x17C1 JUMPI DUP1 PUSH4 0xBF5C3252 EQ PUSH2 0x1774 JUMPI DUP1 PUSH4 0xBF5F984B EQ PUSH2 0x151F JUMPI DUP1 PUSH4 0xC22C62C3 EQ PUSH2 0x14ED JUMPI DUP1 PUSH4 0xC3436E0C EQ PUSH2 0x13D2 JUMPI DUP1 PUSH4 0xCC3CBD2A EQ PUSH2 0x13B5 JUMPI DUP1 PUSH4 0xD5F82707 EQ PUSH2 0x136A JUMPI DUP1 PUSH4 0xD8C5DD67 EQ PUSH2 0x1323 JUMPI DUP1 PUSH4 0xDC4CE349 EQ PUSH2 0x12D0 JUMPI DUP1 PUSH4 0xE0BD4ACC EQ PUSH2 0x1143 JUMPI DUP1 PUSH4 0xEB44FDD3 EQ PUSH2 0xDDF JUMPI DUP1 PUSH4 0xF00FE321 EQ PUSH2 0xD43 JUMPI DUP1 PUSH4 0xF15CC406 EQ PUSH2 0xC0E JUMPI DUP1 PUSH4 0xF1B7DDE3 EQ PUSH2 0xA79 JUMPI DUP1 PUSH4 0xF204072F EQ PUSH2 0x665 JUMPI DUP1 PUSH4 0xF2FDE38B EQ PUSH2 0x5EF JUMPI DUP1 PUSH4 0xF4867591 EQ PUSH2 0x448 JUMPI DUP1 PUSH4 0xFB87F2C3 EQ PUSH2 0x2AF JUMPI PUSH4 0xFE53A6E8 SUB PUSH2 0x10 JUMPI CALLVALUE PUSH2 0x2AC JUMPI DUP1 PUSH1 0x3 NOT CALLDATASIZE ADD SLT PUSH2 0x2AC JUMPI PUSH1 0x20 PUSH1 0x9 SLOAD PUSH1 0x40 MLOAD SWAP1 DUP2 MSTORE RETURN JUMPDEST DUP1 REVERT JUMPDEST POP CALLVALUE PUSH2 0x2AC JUMPI PUSH1 0x20 DUP1 PUSH1 0x3 NOT CALLDATASIZE ADD SLT PUSH2 0x444 JUMPI PUSH1 0x4 CALLDATALOAD SWAP1 PUSH1 0x1 DUP1 PUSH1 0xA0 SHL SUB PUSH2 0x2DC DUP2 PUSH1 0xD SLOAD AND CALLER EQ PUSH2 0x567A JUMP JUMPDEST PUSH1 0x9 SLOAD DUP4 LT ISZERO PUSH2 0x412 JUMPI DUP3 DUP5 MSTORE PUSH1 0x2 DUP3 MSTORE PUSH1 0x40 DUP5 KECCAK256 SLOAD AND ISZERO PUSH2 0x3DE JUMPI DUP2 DUP4 MSTORE PUSH1 0x2 DUP2 MSTORE PUSH1 0xFF PUSH1 0xC PUSH1 0x40 DUP6 KECCAK256 ADD SLOAD AND PUSH1 0x5 DUP2 LT ISZERO PUSH2 0x3CA JUMPI PUSH1 0x4 EQ PUSH2 0x390 JUMPI PUSH1 0x60 PUSH1 0x0 DUP1 MLOAD PUSH1 0x20 PUSH2 0x56BF DUP4 CODECOPY DUP2 MLOAD SWAP2 MSTORE SWAP2 DUP4 DUP6 MSTORE PUSH1 0x2 DUP2 MSTORE PUSH1 0xC PUSH1 0x40 DUP7 KECCAK256 ADD PUSH1 0x4 PUSH1 0xFF NOT DUP3 SLOAD AND OR SWAP1 SSTORE DUP4 DUP6 MSTORE PUSH1 0xB DUP2 MSTORE PUSH1 0xFF PUSH1 0x40 DUP7 KECCAK256 SLOAD AND PUSH2 0x382 JUMPI JUMPDEST PUSH1 0x10 PUSH1 0x40 MLOAD SWAP2 DUP1 DUP4 MSTORE DUP3 ADD MSTORE PUSH16 0x2232B632BA32B210313C9030B236B4B7 PUSH1 0x81 SHL PUSH1 0x40 DUP3 ADD MSTORE LOG2 DUP1 RETURN JUMPDEST PUSH2 0x38B DUP5 PUSH2 0x5580 JUMP JUMPDEST PUSH2 0x359 JUMP JUMPDEST PUSH1 0x64 SWAP1 PUSH1 0x40 MLOAD SWAP1 PUSH3 0x461BCD PUSH1 0xE5 SHL DUP3 MSTORE PUSH1 0x4 DUP3 ADD MSTORE PUSH1 0x13 PUSH1 0x24 DUP3 ADD MSTORE PUSH19 0x11540E88185B1C9958591E4819195B195D1959 PUSH1 0x6A SHL PUSH1 0x44 DUP3 ADD MSTORE REVERT JUMPDEST PUSH4 0x4E487B71 PUSH1 0xE0 SHL DUP5 MSTORE PUSH1 0x21 PUSH1 0x4 MSTORE PUSH1 0x24 DUP5 REVERT JUMPDEST PUSH1 0x64 SWAP1 PUSH1 0x40 MLOAD SWAP1 PUSH3 0x461BCD PUSH1 0xE5 SHL DUP3 MSTORE PUSH1 0x4 DUP3 ADD MSTORE PUSH1 0xD PUSH1 0x24 DUP3 ADD MSTORE PUSH13 0x11540E881B9BC81B585C9AD95D PUSH1 0x9A SHL PUSH1 0x44 DUP3 ADD MSTORE REVERT JUMPDEST PUSH1 0x40 MLOAD PUSH3 0x461BCD PUSH1 0xE5 SHL DUP2 MSTORE PUSH1 0x4 DUP2 ADD DUP4 SWAP1 MSTORE PUSH1 0xA PUSH1 0x24 DUP3 ADD MSTORE PUSH10 0x11540E88189859081251 PUSH1 0xB2 SHL PUSH1 0x44 DUP3 ADD MSTORE PUSH1 0x64 SWAP1 REVERT JUMPDEST POP DUP1 REVERT JUMPDEST POP PUSH2 0x452 CALLDATASIZE PUSH2 0x42BF JUMP JUMPDEST SWAP1 PUSH1 0x1 DUP1 PUSH1 0xA0 SHL SUB DUP1 PUSH1 0xD SLOAD AND SWAP1 PUSH1 0x40 MLOAD DUP1 SWAP3 PUSH4 0x4D9B4235 PUSH1 0xE1 SHL DUP3 MSTORE DUP5 PUSH1 0x4 DUP4 ADD MSTORE DUP2 PUSH1 0x24 PUSH1 0x20 SWAP6 DUP7 SWAP4 GAS STATICCALL DUP1 ISZERO PUSH2 0x5E4 JUMPI DUP7 SWAP1 PUSH2 0x5AA JUMPI JUMPDEST PUSH2 0x497 SWAP2 POP ISZERO PUSH2 0x457E JUMP JUMPDEST DUP3 DUP6 MSTORE PUSH1 0x2 DUP3 MSTORE PUSH1 0x40 DUP6 KECCAK256 PUSH1 0xFF PUSH1 0xC DUP3 ADD SLOAD AND PUSH1 0x5 DUP2 LT ISZERO PUSH2 0x596 JUMPI PUSH2 0x4BD SWAP1 ISZERO PUSH2 0x45B8 JUMP JUMPDEST PUSH1 0x4 DUP2 ADD SWAP1 DUP3 DUP3 SLOAD AND PUSH2 0x553 JUMPI SWAP2 DUP6 SWAP2 PUSH2 0x4FB PUSH1 0x5 PUSH2 0x523 SWAP6 DUP6 ISZERO ISZERO DUP1 PUSH2 0x545 JUMPI JUMPDEST PUSH2 0x4E8 SWAP1 PUSH2 0x45F5 JUMP JUMPDEST PUSH2 0x4F1 DUP2 PUSH2 0x53D9 JUMP JUMPDEST ADD SLOAD CALLVALUE LT ISZERO PUSH2 0x4632 JUMP JUMPDEST PUSH2 0x518 DUP9 DUP1 DUP1 DUP1 CALLVALUE DUP8 PUSH1 0xC SLOAD AND GAS CALL PUSH2 0x512 PUSH2 0x441C JUMP JUMPDEST POP PUSH2 0x466E JUMP JUMPDEST SLOAD AND CALLVALUE SWAP1 CALLER DUP7 PUSH2 0x51F4 JUMP JUMPDEST PUSH1 0x40 MLOAD SWAP3 DUP4 MSTORE CALLVALUE SWAP1 DUP4 ADD MSTORE PUSH1 0x0 DUP1 MLOAD PUSH1 0x20 PUSH2 0x573F DUP4 CODECOPY DUP2 MLOAD SWAP2 MSTORE PUSH1 0x40 CALLER SWAP4 LOG3 DUP1 RETURN JUMPDEST POP PUSH1 0x3 DUP2 ADD SLOAD DUP7 GT ISZERO PUSH2 0x4DF JUMP JUMPDEST PUSH1 0x40 MLOAD PUSH3 0x461BCD PUSH1 0xE5 SHL DUP2 MSTORE PUSH1 0x4 DUP2 ADD DUP6 SWAP1 MSTORE PUSH1 0x1B PUSH1 0x24 DUP3 ADD MSTORE PUSH27 0x22A81D103AB9B290383630B1B2A9BA30B5B2ABB4BA342A37B5B2B7 PUSH1 0x29 SHL PUSH1 0x44 DUP3 ADD MSTORE PUSH1 0x64 SWAP1 REVERT JUMPDEST PUSH4 0x4E487B71 PUSH1 0xE0 SHL DUP8 MSTORE PUSH1 0x21 PUSH1 0x4 MSTORE PUSH1 0x24 DUP8 REVERT JUMPDEST POP DUP3 DUP2 DUP2 RETURNDATASIZE DUP4 GT PUSH2 0x5DD JUMPI JUMPDEST PUSH2 0x5C0 DUP2 DUP4 PUSH2 0x413F JUMP JUMPDEST DUP2 ADD SUB SLT PUSH2 0x5D9 JUMPI PUSH2 0x5D4 PUSH2 0x497 SWAP2 PUSH2 0x4301 JUMP JUMPDEST PUSH2 0x48C JUMP JUMPDEST DUP6 DUP1 REVERT JUMPDEST POP RETURNDATASIZE PUSH2 0x5B6 JUMP JUMPDEST PUSH1 0x40 MLOAD RETURNDATASIZE DUP9 DUP3 RETURNDATACOPY RETURNDATASIZE SWAP1 REVERT JUMPDEST POP CALLVALUE PUSH2 0x2AC JUMPI PUSH1 0x20 CALLDATASIZE PUSH1 0x3 NOT ADD SLT PUSH2 0x2AC JUMPI PUSH2 0x609 PUSH2 0x4046 JUMP JUMPDEST PUSH2 0x611 PUSH2 0x42D5 JUMP JUMPDEST PUSH1 0x1 PUSH1 0x1 PUSH1 0xA0 SHL SUB SWAP1 DUP2 AND SWAP1 DUP2 ISZERO PUSH2 0x64C JUMPI PUSH1 0x0 SLOAD DUP3 PUSH1 0x1 DUP1 PUSH1 0xA0 SHL SUB NOT DUP3 AND OR PUSH1 0x0 SSTORE AND PUSH1 0x0 DUP1 MLOAD PUSH1 0x20 PUSH2 0x56FF DUP4 CODECOPY DUP2 MLOAD SWAP2 MSTORE PUSH1 0x0 DUP1 LOG3 DUP1 RETURN JUMPDEST PUSH1 0x40 MLOAD PUSH4 0x1E4FBDF7 PUSH1 0xE0 SHL DUP2 MSTORE PUSH1 0x4 DUP2 ADD DUP5 SWAP1 MSTORE PUSH1 0x24 SWAP1 REVERT JUMPDEST POP PUSH2 0x66F CALLDATASIZE PUSH2 0x42BF JUMP JUMPDEST PUSH1 0xD SLOAD PUSH1 0x40 MLOAD PUSH4 0x2B5BA3B9 PUSH1 0xE0 SHL DUP2 MSTORE CALLER PUSH1 0x4 DUP3 ADD MSTORE PUSH1 0x20 SWAP5 SWAP4 SWAP2 PUSH1 0x24 SWAP2 PUSH1 0x1 PUSH1 0x1 PUSH1 0xA0 SHL SUB SWAP2 DUP3 AND SWAP1 DUP8 DUP2 DUP6 DUP2 DUP6 GAS STATICCALL SWAP1 DUP2 ISZERO PUSH2 0x8AD JUMPI SWAP2 DUP9 SWAP2 DUP6 SWAP4 DUP10 SWAP2 PUSH2 0xA37 JUMPI JUMPDEST POP PUSH2 0x6BE SWAP1 ISZERO PUSH2 0x430E JUMP JUMPDEST PUSH1 0x40 MLOAD SWAP3 DUP4 DUP1 SWAP3 PUSH4 0x4D9B4235 PUSH1 0xE1 SHL DUP3 MSTORE DUP9 PUSH1 0x4 DUP4 ADD MSTORE GAS STATICCALL DUP1 ISZERO PUSH2 0x5E4 JUMPI DUP7 SWAP1 PUSH2 0xA01 JUMPI JUMPDEST PUSH2 0x6EF SWAP2 POP ISZERO PUSH2 0x457E JUMP JUMPDEST DUP3 DUP6 MSTORE PUSH1 0x2 DUP7 MSTORE PUSH1 0x40 DUP6 KECCAK256 PUSH1 0xFF PUSH1 0xC DUP3 ADD SLOAD AND PUSH1 0x5 DUP2 LT ISZERO PUSH2 0x9EE JUMPI PUSH2 0x715 SWAP1 ISZERO PUSH2 0x45B8 JUMP JUMPDEST PUSH1 0x9 DUP2 ADD SLOAD TIMESTAMP LT ISZERO PUSH2 0x9B5 JUMPI DUP5 ISZERO PUSH2 0x97F JUMPI PUSH1 0x4 ADD SWAP6 DUP2 DUP8 SLOAD AND DUP1 ISZERO PUSH1 0x0 EQ PUSH2 0x91F JUMPI POP DUP5 CALLVALUE SUB PUSH2 0x8E9 JUMPI DUP6 SWAP7 PUSH2 0x759 DUP8 DUP1 DUP1 DUP1 DUP11 DUP9 PUSH1 0xC SLOAD AND GAS CALL PUSH2 0x512 PUSH2 0x441C JUMP JUMPDEST DUP5 DUP8 MSTORE PUSH1 0x4 DUP3 MSTORE PUSH1 0x40 DUP8 KECCAK256 CALLER PUSH1 0x0 MSTORE DUP3 MSTORE PUSH1 0xFF PUSH1 0x40 PUSH1 0x0 KECCAK256 SLOAD AND ISZERO PUSH2 0x8D0 JUMPI JUMPDEST DUP5 DUP8 MSTORE PUSH1 0x4 DUP3 MSTORE PUSH1 0x40 DUP8 KECCAK256 CALLER PUSH1 0x0 MSTORE DUP3 MSTORE PUSH1 0x40 PUSH1 0x0 KECCAK256 PUSH1 0x1 PUSH1 0xFF NOT DUP3 SLOAD AND OR SWAP1 SSTORE DUP3 DUP1 PUSH1 0xC SLOAD AND SWAP2 SLOAD AND SWAP1 DUP1 EXTCODESIZE ISZERO PUSH2 0x8CC JUMPI DUP7 DUP9 SWAP2 PUSH2 0x7D2 SWAP4 DUP4 PUSH1 0x40 MLOAD DUP1 SWAP7 DUP2 SWAP6 DUP3 SWAP5 PUSH4 0xC15D9807 PUSH1 0xE0 SHL DUP5 MSTORE DUP14 CALLER SWAP1 PUSH1 0x4 DUP7 ADD PUSH2 0x46F0 JUMP JUMPDEST SUB SWAP3 GAS CALL SWAP1 DUP2 ISZERO PUSH2 0x8AD JUMPI DUP8 SWAP2 PUSH2 0x8B8 JUMPI JUMPDEST POP POP PUSH1 0x4 DUP2 DUP4 PUSH1 0xD SLOAD AND PUSH1 0x40 MLOAD SWAP3 DUP4 DUP1 SWAP3 PUSH4 0x406AD645 PUSH1 0xE1 SHL DUP3 MSTORE GAS STATICCALL SWAP2 DUP3 ISZERO PUSH2 0x8AD JUMPI DUP8 SWAP3 PUSH2 0x880 JUMPI JUMPDEST POP POP AND DUP1 PUSH2 0x81B JUMPI DUP5 DUP1 RETURN JUMPDEST DUP1 EXTCODESIZE ISZERO PUSH2 0x87C JUMPI DUP5 SWAP3 DUP4 PUSH1 0x64 SWAP3 PUSH1 0x40 MLOAD SWAP7 DUP8 SWAP6 DUP7 SWAP5 PUSH4 0x8F46A5A1 PUSH1 0xE0 SHL DUP7 MSTORE PUSH1 0x4 DUP7 ADD MSTORE CALLER SWAP1 DUP6 ADD MSTORE PUSH1 0x44 DUP5 ADD MSTORE GAS CALL DUP1 ISZERO PUSH2 0x871 JUMPI PUSH2 0x85D JUMPI JUMPDEST DUP1 DUP1 DUP1 DUP5 DUP1 RETURN JUMPDEST PUSH2 0x866 SWAP1 PUSH2 0x40DA JUMP JUMPDEST PUSH2 0x2AC JUMPI DUP1 CODESIZE PUSH2 0x856 JUMP JUMPDEST PUSH1 0x40 MLOAD RETURNDATASIZE DUP5 DUP3 RETURNDATACOPY RETURNDATASIZE SWAP1 REVERT JUMPDEST DUP5 DUP1 REVERT JUMPDEST PUSH2 0x89F SWAP3 POP DUP1 RETURNDATASIZE LT PUSH2 0x8A6 JUMPI JUMPDEST PUSH2 0x897 DUP2 DUP4 PUSH2 0x413F JUMP JUMPDEST DUP2 ADD SWAP1 PUSH2 0x4718 JUMP JUMPDEST CODESIZE DUP1 PUSH2 0x80F JUMP JUMPDEST POP RETURNDATASIZE PUSH2 0x88D JUMP JUMPDEST PUSH1 0x40 MLOAD RETURNDATASIZE DUP10 DUP3 RETURNDATACOPY RETURNDATASIZE SWAP1 REVERT JUMPDEST PUSH2 0x8C1 SWAP1 PUSH2 0x40DA JUMP JUMPDEST PUSH2 0x5D9 JUMPI DUP6 CODESIZE PUSH2 0x7E4 JUMP JUMPDEST DUP8 DUP1 REVERT JUMPDEST DUP5 DUP8 MSTORE PUSH1 0x7 DUP3 MSTORE PUSH2 0x8E4 CALLER PUSH1 0x40 DUP10 KECCAK256 PUSH2 0x46B5 JUMP JUMPDEST PUSH2 0x779 JUMP JUMPDEST PUSH1 0x64 SWAP1 PUSH1 0x10 DUP5 PUSH1 0x40 MLOAD SWAP3 PUSH3 0x461BCD PUSH1 0xE5 SHL DUP5 MSTORE PUSH1 0x4 DUP5 ADD MSTORE DUP3 ADD MSTORE PUSH16 0x8AA074408AA89040DAD2E6DAC2E8C6D PUSH1 0x83 SHL PUSH1 0x44 DUP3 ADD MSTORE REVERT JUMPDEST SWAP7 CALLVALUE PUSH2 0x93D JUMPI PUSH2 0x938 DUP7 DUP9 SWAP10 DUP6 PUSH1 0xC SLOAD AND SWAP1 CALLER SWAP1 PUSH2 0x44E0 JUMP JUMPDEST PUSH2 0x759 JUMP JUMPDEST PUSH1 0x40 MLOAD PUSH3 0x461BCD PUSH1 0xE5 SHL DUP2 MSTORE PUSH1 0x4 DUP2 ADD DUP4 SWAP1 MSTORE PUSH1 0x1B DUP2 DUP7 ADD MSTORE PUSH27 0x11540E881B9BC811551208199BDC881D1BDAD95B881B585C9AD95D PUSH1 0x2A SHL PUSH1 0x44 DUP3 ADD MSTORE PUSH1 0x64 SWAP1 REVERT JUMPDEST PUSH1 0x40 MLOAD PUSH3 0x461BCD PUSH1 0xE5 SHL DUP2 MSTORE PUSH1 0x4 DUP2 ADD DUP9 SWAP1 MSTORE PUSH1 0xF DUP2 DUP6 ADD MSTORE PUSH15 0x11540E881E995C9BC8185B5BDD5B9D PUSH1 0x8A SHL PUSH1 0x44 DUP3 ADD MSTORE PUSH1 0x64 SWAP1 REVERT JUMPDEST PUSH1 0x40 MLOAD PUSH3 0x461BCD PUSH1 0xE5 SHL DUP2 MSTORE PUSH1 0x4 DUP2 ADD DUP9 SWAP1 MSTORE PUSH1 0x12 DUP2 DUP6 ADD MSTORE PUSH18 0x11540E881CDD5C1C1BDC9D0818DB1BDCD959 PUSH1 0x72 SHL PUSH1 0x44 DUP3 ADD MSTORE PUSH1 0x64 SWAP1 REVERT JUMPDEST PUSH4 0x4E487B71 PUSH1 0xE0 SHL DUP8 MSTORE PUSH1 0x21 PUSH1 0x4 MSTORE DUP4 DUP8 REVERT JUMPDEST POP DUP7 DUP2 DUP2 RETURNDATASIZE DUP4 GT PUSH2 0xA30 JUMPI JUMPDEST PUSH2 0xA17 DUP2 DUP4 PUSH2 0x413F JUMP JUMPDEST DUP2 ADD SUB SLT PUSH2 0x5D9 JUMPI PUSH2 0xA2B PUSH2 0x6EF SWAP2 PUSH2 0x4301 JUMP JUMPDEST PUSH2 0x6E4 JUMP JUMPDEST POP RETURNDATASIZE PUSH2 0xA0D JUMP JUMPDEST SWAP3 DUP1 SWAP3 SWAP5 POP DUP4 SWAP2 POP RETURNDATASIZE DUP4 GT PUSH2 0xA72 JUMPI JUMPDEST PUSH2 0xA51 DUP2 DUP4 PUSH2 0x413F JUMP JUMPDEST DUP2 ADD SUB SLT PUSH2 0xA6E JUMPI DUP4 SWAP2 PUSH2 0x6BE PUSH2 0xA68 DUP11 SWAP4 PUSH2 0x4301 JUMP JUMPDEST SWAP1 PUSH2 0x6B3 JUMP JUMPDEST DUP7 DUP1 REVERT JUMPDEST POP RETURNDATASIZE PUSH2 0xA47 JUMP JUMPDEST POP CALLVALUE PUSH2 0x2AC JUMPI PUSH1 0x60 CALLDATASIZE PUSH1 0x3 NOT ADD SLT PUSH2 0x2AC JUMPI PUSH1 0x4 CALLDATALOAD PUSH1 0x24 CALLDATALOAD SWAP1 PUSH1 0x44 CALLDATALOAD PUSH1 0x1 DUP1 PUSH1 0xA0 SHL SUB DUP1 PUSH1 0xD SLOAD AND SWAP1 PUSH1 0x40 MLOAD DUP1 SWAP3 PUSH4 0x4D9B4235 PUSH1 0xE1 SHL DUP3 MSTORE DUP6 PUSH1 0x4 DUP4 ADD MSTORE DUP2 PUSH1 0x24 PUSH1 0x20 SWAP6 DUP7 SWAP4 GAS STATICCALL DUP1 ISZERO PUSH2 0x8AD JUMPI DUP8 SWAP1 PUSH2 0xBD8 JUMPI JUMPDEST PUSH2 0xAD9 SWAP2 POP ISZERO PUSH2 0x457E JUMP JUMPDEST DUP4 DUP7 MSTORE PUSH1 0x2 DUP3 MSTORE PUSH1 0x40 DUP7 KECCAK256 PUSH1 0xFF PUSH1 0xC DUP3 ADD SLOAD AND PUSH1 0x5 DUP2 LT ISZERO PUSH2 0xBC4 JUMPI PUSH2 0xAFF SWAP1 ISZERO PUSH2 0x45B8 JUMP JUMPDEST PUSH1 0x4 DUP2 ADD SWAP1 DUP3 DUP3 SLOAD AND SWAP1 DUP2 ISZERO PUSH2 0xB8A JUMPI SWAP3 DUP8 SWAP3 PUSH2 0xB53 DUP8 DUP1 SWAP5 PUSH2 0xB46 PUSH2 0xB5C SWAP9 DUP9 ISZERO ISZERO DUP1 PUSH2 0xB7C JUMPI JUMPDEST PUSH2 0xB31 SWAP1 PUSH2 0x45F5 JUMP JUMPDEST PUSH2 0xB41 PUSH1 0x5 DUP3 ADD SLOAD DUP6 LT ISZERO PUSH2 0x4632 JUMP JUMPDEST PUSH2 0x53D9 JUMP JUMPDEST DUP5 PUSH1 0xC SLOAD AND SWAP1 CALLER SWAP1 PUSH2 0x44E0 JUMP JUMPDEST SLOAD AND CALLER DUP8 PUSH2 0x51F4 JUMP JUMPDEST PUSH1 0x40 MLOAD SWAP4 DUP5 MSTORE DUP4 ADD MSTORE PUSH1 0x0 DUP1 MLOAD PUSH1 0x20 PUSH2 0x573F DUP4 CODECOPY DUP2 MLOAD SWAP2 MSTORE PUSH1 0x40 CALLER SWAP4 LOG3 DUP1 RETURN JUMPDEST POP PUSH1 0x3 DUP2 ADD SLOAD DUP10 GT ISZERO PUSH2 0xB28 JUMP JUMPDEST PUSH1 0x40 MLOAD PUSH3 0x461BCD PUSH1 0xE5 SHL DUP2 MSTORE PUSH1 0x4 DUP2 ADD DUP7 SWAP1 MSTORE PUSH1 0x12 PUSH1 0x24 DUP3 ADD MSTORE PUSH18 0x45503A2075736520706C6163655374616B65 PUSH1 0x70 SHL PUSH1 0x44 DUP3 ADD MSTORE PUSH1 0x64 SWAP1 REVERT JUMPDEST PUSH4 0x4E487B71 PUSH1 0xE0 SHL DUP9 MSTORE PUSH1 0x21 PUSH1 0x4 MSTORE PUSH1 0x24 DUP9 REVERT JUMPDEST POP DUP3 DUP2 DUP2 RETURNDATASIZE DUP4 GT PUSH2 0xC07 JUMPI JUMPDEST PUSH2 0xBEE DUP2 DUP4 PUSH2 0x413F JUMP JUMPDEST DUP2 ADD SUB SLT PUSH2 0xA6E JUMPI PUSH2 0xC02 PUSH2 0xAD9 SWAP2 PUSH2 0x4301 JUMP JUMPDEST PUSH2 0xACE JUMP JUMPDEST POP RETURNDATASIZE PUSH2 0xBE4 JUMP JUMPDEST POP CALLVALUE PUSH2 0x2AC JUMPI PUSH1 0x40 CALLDATASIZE PUSH1 0x3 NOT ADD SLT PUSH2 0x2AC JUMPI PUSH1 0x4 CALLDATALOAD PUSH2 0xC2B PUSH2 0x4030 JUMP JUMPDEST DUP2 DUP4 MSTORE PUSH1 0x20 SWAP2 PUSH1 0x2 DUP4 MSTORE PUSH1 0x40 DUP5 KECCAK256 PUSH1 0xFF PUSH1 0xC DUP3 ADD SLOAD AND PUSH1 0x5 DUP2 LT ISZERO PUSH2 0xD2F JUMPI PUSH2 0xC65 SWAP2 PUSH2 0xC5C PUSH1 0x2 PUSH1 0xD SWAP4 EQ PUSH2 0x4A89 JUMP JUMPDEST ADD SLOAD ISZERO ISZERO PUSH2 0x4AC8 JUMP JUMPDEST DUP1 DUP5 MSTORE PUSH1 0x3 DUP4 MSTORE PUSH1 0x40 DUP5 KECCAK256 PUSH1 0x1 DUP1 PUSH1 0xA0 SHL SUB SWAP1 DUP2 DUP5 AND PUSH1 0x0 MSTORE DUP5 MSTORE PUSH2 0xC91 PUSH1 0xFF PUSH1 0x40 PUSH1 0x0 KECCAK256 SLOAD AND PUSH2 0x4B04 JUMP JUMPDEST PUSH1 0xC SLOAD AND DUP4 PUSH1 0x40 MLOAD DUP1 SWAP3 PUSH4 0x7C7A72D PUSH1 0xE0 SHL DUP3 MSTORE DUP2 DUP1 PUSH2 0xCB5 DUP9 DUP9 PUSH1 0x4 DUP5 ADD PUSH2 0x4B3F JUMP JUMPDEST SUB SWAP2 GAS STATICCALL SWAP5 DUP6 ISZERO PUSH2 0xD23 JUMPI DUP1 SWAP6 PUSH2 0xCE4 JUMPI JUMPDEST POP POP PUSH2 0xCD7 PUSH2 0xCDC SWAP4 SWAP5 ISZERO PUSH2 0x4B58 JUMP JUMPDEST PUSH2 0x4BB3 JUMP JUMPDEST PUSH1 0x40 MLOAD SWAP1 DUP2 MSTORE RETURN JUMPDEST SWAP1 SWAP5 POP DUP4 DUP6 DUP2 RETURNDATASIZE DUP4 GT PUSH2 0xD1C JUMPI JUMPDEST PUSH2 0xCFC DUP2 DUP4 PUSH2 0x413F JUMP JUMPDEST DUP2 ADD SUB SLT PUSH2 0x2AC JUMPI POP PUSH2 0xCD7 PUSH2 0xD15 PUSH2 0xCDC SWAP5 SWAP6 PUSH2 0x4301 JUMP JUMPDEST SWAP5 SWAP4 PUSH2 0xCC7 JUMP JUMPDEST POP RETURNDATASIZE PUSH2 0xCF2 JUMP JUMPDEST PUSH1 0x40 MLOAD SWAP1 RETURNDATASIZE SWAP1 DUP3 RETURNDATACOPY RETURNDATASIZE SWAP1 REVERT JUMPDEST PUSH4 0x4E487B71 PUSH1 0xE0 SHL DUP7 MSTORE PUSH1 0x21 PUSH1 0x4 MSTORE PUSH1 0x24 DUP7 REVERT JUMPDEST POP CALLVALUE PUSH2 0x2AC JUMPI PUSH1 0x40 CALLDATASIZE PUSH1 0x3 NOT ADD SLT PUSH2 0x2AC JUMPI PUSH2 0xD8C SWAP1 PUSH1 0x20 PUSH2 0xD63 PUSH2 0x4030 JUMP JUMPDEST PUSH1 0x1 DUP1 PUSH1 0xA0 SHL SUB PUSH1 0xC SLOAD AND PUSH1 0x40 MLOAD DUP1 DUP1 SWAP7 DUP2 SWAP5 PUSH4 0x3D1E7BA1 PUSH1 0xE1 SHL DUP4 MSTORE PUSH1 0x4 CALLDATALOAD PUSH1 0x4 DUP5 ADD PUSH2 0x4B3F JUMP JUMPDEST SUB SWAP2 GAS STATICCALL SWAP1 DUP2 ISZERO PUSH2 0xD23 JUMPI SWAP1 PUSH2 0xDA8 JUMPI JUMPDEST PUSH1 0x20 SWAP1 PUSH1 0x40 MLOAD SWAP1 DUP2 MSTORE RETURN JUMPDEST POP PUSH1 0x20 DUP2 RETURNDATASIZE DUP3 GT PUSH2 0xDD7 JUMPI JUMPDEST DUP2 PUSH2 0xDC1 PUSH1 0x20 SWAP4 DUP4 PUSH2 0x413F JUMP JUMPDEST DUP2 ADD SUB SLT PUSH2 0xDD2 JUMPI PUSH1 0x20 SWAP1 MLOAD PUSH2 0xD9D JUMP JUMPDEST PUSH1 0x0 DUP1 REVERT JUMPDEST RETURNDATASIZE SWAP2 POP PUSH2 0xDB4 JUMP JUMPDEST POP CALLVALUE PUSH2 0x2AC JUMPI PUSH1 0x20 CALLDATASIZE PUSH1 0x3 NOT ADD SLT PUSH2 0x2AC JUMPI DUP1 PUSH1 0x40 SWAP2 PUSH2 0x2C0 DUP4 MLOAD PUSH2 0xE03 DUP2 PUSH2 0x40ED JUMP JUMPDEST DUP3 DUP2 MSTORE PUSH1 0x60 PUSH1 0x20 DUP3 ADD MSTORE DUP3 DUP6 DUP3 ADD MSTORE DUP3 PUSH1 0x60 DUP3 ADD MSTORE DUP3 PUSH1 0x80 DUP3 ADD MSTORE DUP3 PUSH1 0xA0 DUP3 ADD MSTORE DUP3 PUSH1 0xC0 DUP3 ADD MSTORE DUP3 PUSH1 0xE0 DUP3 ADD MSTORE DUP3 PUSH2 0x100 DUP3 ADD MSTORE DUP3 PUSH2 0x120 DUP3 ADD MSTORE DUP3 PUSH2 0x140 DUP3 ADD MSTORE DUP3 PUSH2 0x160 DUP3 ADD MSTORE DUP3 PUSH2 0x180 DUP3 ADD MSTORE DUP3 PUSH2 0x1A0 DUP3 ADD MSTORE DUP3 PUSH2 0x1C0 DUP3 ADD MSTORE DUP3 PUSH2 0x1E0 DUP3 ADD MSTORE DUP3 PUSH2 0x200 DUP3 ADD MSTORE DUP3 PUSH2 0x220 DUP3 ADD MSTORE DUP3 PUSH2 0x240 DUP3 ADD MSTORE DUP3 PUSH2 0x260 DUP3 ADD MSTORE DUP3 PUSH2 0x280 DUP3 ADD MSTORE DUP3 PUSH2 0x2A0 DUP3 ADD MSTORE ADD MSTORE PUSH1 0x4 CALLDATALOAD DUP2 MSTORE PUSH1 0x2 PUSH1 0x20 MSTORE KECCAK256 PUSH1 0x40 MLOAD SWAP1 PUSH2 0xEAC DUP3 PUSH2 0x40ED JUMP JUMPDEST DUP1 SLOAD PUSH1 0x1 PUSH1 0x1 PUSH1 0xA0 SHL SUB AND DUP3 MSTORE PUSH2 0xEC5 PUSH1 0x1 DUP3 ADD PUSH2 0x41B7 JUMP JUMPDEST PUSH1 0x20 DUP4 ADD MSTORE PUSH1 0xFF PUSH1 0x2 DUP3 ADD SLOAD AND ISZERO ISZERO PUSH1 0x40 DUP4 ADD MSTORE PUSH1 0x3 DUP2 ADD SLOAD PUSH1 0x60 DUP4 ADD MSTORE PUSH1 0x1 DUP1 PUSH1 0xA0 SHL SUB PUSH1 0x4 DUP3 ADD SLOAD AND PUSH1 0x80 DUP4 ADD MSTORE PUSH1 0x5 DUP2 ADD SLOAD PUSH1 0xA0 DUP4 ADD MSTORE PUSH1 0x6 DUP2 ADD SLOAD PUSH1 0xC0 DUP4 ADD MSTORE PUSH1 0x7 DUP2 ADD SLOAD PUSH1 0xE0 DUP4 ADD MSTORE PUSH1 0x8 DUP2 ADD SLOAD PUSH2 0x100 DUP4 ADD MSTORE PUSH1 0x9 DUP2 ADD SLOAD PUSH2 0x120 DUP4 ADD MSTORE PUSH1 0xA DUP2 ADD SLOAD PUSH2 0x140 DUP4 ADD MSTORE PUSH1 0xB DUP2 ADD SLOAD PUSH2 0x160 DUP4 ADD MSTORE PUSH1 0xFF PUSH1 0xC DUP3 ADD SLOAD AND SWAP1 PUSH1 0x5 DUP3 LT ISZERO PUSH2 0x112D JUMPI PUSH1 0x15 SWAP2 PUSH2 0x180 DUP5 ADD MSTORE PUSH1 0xD DUP2 ADD SLOAD PUSH2 0x1A0 DUP5 ADD MSTORE PUSH1 0xFF PUSH1 0xE DUP3 ADD SLOAD AND ISZERO ISZERO PUSH2 0x1C0 DUP5 ADD MSTORE PUSH1 0xF DUP2 ADD SLOAD PUSH2 0x1E0 DUP5 ADD MSTORE PUSH1 0x10 DUP2 ADD SLOAD PUSH2 0x200 DUP5 ADD MSTORE PUSH1 0x11 DUP2 ADD SLOAD PUSH2 0xFA1 PUSH1 0xFF DUP3 AND PUSH2 0x220 DUP7 ADD PUSH2 0x43C2 JUMP JUMPDEST PUSH1 0x1 DUP1 PUSH1 0xA0 SHL SUB SWAP1 PUSH1 0x8 SHR AND PUSH2 0x240 DUP5 ADD MSTORE PUSH1 0x12 DUP2 ADD SLOAD PUSH2 0x260 DUP5 ADD MSTORE PUSH1 0x13 DUP2 ADD SLOAD PUSH2 0x280 DUP5 ADD MSTORE PUSH1 0xFF PUSH1 0x14 DUP3 ADD SLOAD AND ISZERO ISZERO PUSH2 0x2A0 DUP5 ADD MSTORE ADD SLOAD PUSH2 0x2C0 DUP3 ADD MSTORE PUSH1 0x40 MLOAD DUP1 SWAP2 PUSH1 0x20 DUP3 MSTORE PUSH1 0x1 DUP1 PUSH1 0xA0 SHL SUB DUP2 MLOAD AND PUSH1 0x20 DUP4 ADD MSTORE PUSH2 0x2C0 PUSH2 0x1017 PUSH1 0x20 DUP4 ADD MLOAD PUSH2 0x2E0 PUSH1 0x40 DUP7 ADD MSTORE PUSH2 0x300 DUP6 ADD SWAP1 PUSH2 0x4280 JUMP JUMPDEST SWAP2 PUSH1 0x40 DUP2 ADD MLOAD ISZERO ISZERO PUSH1 0x60 DUP6 ADD MSTORE PUSH1 0x60 DUP2 ADD MLOAD PUSH1 0x80 DUP6 ADD MSTORE PUSH1 0x1 DUP1 PUSH1 0xA0 SHL SUB PUSH1 0x80 DUP3 ADD MLOAD AND PUSH1 0xA0 DUP6 ADD MSTORE PUSH1 0xA0 DUP2 ADD MLOAD PUSH1 0xC0 DUP6 ADD MSTORE PUSH1 0xC0 DUP2 ADD MLOAD PUSH1 0xE0 DUP6 ADD MSTORE PUSH1 0xE0 DUP2 ADD MLOAD PUSH2 0x100 DUP6 ADD MSTORE PUSH2 0x100 DUP2 ADD MLOAD PUSH2 0x120 DUP6 ADD MSTORE PUSH2 0x120 DUP2 ADD MLOAD PUSH2 0x140 DUP6 ADD MSTORE PUSH2 0x140 DUP2 ADD MLOAD PUSH2 0x160 DUP6 ADD MSTORE PUSH2 0x160 DUP2 ADD MLOAD PUSH2 0x180 DUP6 ADD MSTORE PUSH2 0x10A3 PUSH2 0x180 DUP3 ADD MLOAD PUSH2 0x1A0 DUP7 ADD SWAP1 PUSH2 0x42A5 JUMP JUMPDEST PUSH2 0x1A0 DUP2 ADD MLOAD PUSH2 0x1C0 DUP6 ADD MSTORE PUSH2 0x1C0 DUP2 ADD MLOAD ISZERO ISZERO PUSH2 0x1E0 DUP6 ADD MSTORE PUSH2 0x1E0 DUP2 ADD MLOAD PUSH2 0x200 DUP6 ADD MSTORE PUSH2 0x200 DUP2 ADD MLOAD PUSH2 0x220 DUP6 ADD MSTORE PUSH2 0x10E9 PUSH2 0x220 DUP3 ADD MLOAD PUSH2 0x240 DUP7 ADD SWAP1 PUSH2 0x42B2 JUMP JUMPDEST PUSH1 0x1 DUP1 PUSH1 0xA0 SHL SUB PUSH2 0x240 DUP3 ADD MLOAD AND PUSH2 0x260 DUP6 ADD MSTORE PUSH2 0x260 DUP2 ADD MLOAD PUSH2 0x280 DUP6 ADD MSTORE PUSH2 0x280 DUP2 ADD MLOAD PUSH2 0x2A0 DUP6 ADD MSTORE PUSH2 0x2A0 DUP2 ADD MLOAD ISZERO ISZERO DUP3 DUP6 ADD MSTORE ADD MLOAD PUSH2 0x2E0 DUP4 ADD MSTORE SUB SWAP1 RETURN JUMPDEST PUSH4 0x4E487B71 PUSH1 0xE0 SHL PUSH1 0x0 MSTORE PUSH1 0x21 PUSH1 0x4 MSTORE PUSH1 0x24 PUSH1 0x0 REVERT JUMPDEST POP CALLVALUE PUSH2 0x2AC JUMPI PUSH1 0x20 DUP1 PUSH1 0x3 NOT CALLDATASIZE ADD SLT PUSH2 0x444 JUMPI PUSH1 0x4 CALLDATALOAD SWAP1 PUSH2 0x116F PUSH1 0x1 DUP1 PUSH1 0xA0 SHL SUB PUSH1 0xD SLOAD AND CALLER EQ PUSH2 0x567A JUMP JUMPDEST DUP2 DUP4 MSTORE PUSH1 0x2 DUP2 MSTORE PUSH1 0xFF PUSH1 0xC PUSH1 0x40 DUP6 KECCAK256 ADD SLOAD AND PUSH1 0x5 DUP2 LT ISZERO PUSH2 0x3CA JUMPI PUSH1 0x0 DUP1 MLOAD PUSH1 0x20 PUSH2 0x56BF DUP4 CODECOPY DUP2 MLOAD SWAP2 MSTORE SWAP2 PUSH2 0x11A8 PUSH1 0x2 PUSH1 0x60 SWAP4 EQ PUSH2 0x4A89 JUMP JUMPDEST DUP4 DUP6 MSTORE PUSH1 0x2 DUP2 MSTORE PUSH1 0x0 PUSH1 0x15 PUSH1 0x40 DUP8 KECCAK256 DUP8 DUP2 SSTORE DUP8 PUSH1 0x1 DUP3 ADD PUSH2 0x11C9 DUP2 SLOAD PUSH2 0x417D JUMP JUMPDEST DUP1 PUSH2 0x1292 JUMPI JUMPDEST POP POP PUSH1 0x2 DUP3 ADD SSTORE DUP3 PUSH1 0x3 DUP3 ADD SSTORE DUP8 PUSH1 0x4 DUP3 ADD SSTORE DUP3 PUSH1 0x5 DUP3 ADD SSTORE DUP3 PUSH1 0x6 DUP3 ADD SSTORE DUP3 PUSH1 0x7 DUP3 ADD SSTORE DUP3 PUSH1 0x8 DUP3 ADD SSTORE DUP3 PUSH1 0x9 DUP3 ADD SSTORE DUP3 PUSH1 0xA DUP3 ADD SSTORE DUP3 PUSH1 0xB DUP3 ADD SSTORE DUP8 PUSH1 0xC DUP3 ADD SSTORE DUP3 PUSH1 0xD DUP3 ADD SSTORE DUP8 PUSH1 0xE DUP3 ADD SSTORE DUP3 PUSH1 0xF DUP3 ADD SSTORE DUP3 PUSH1 0x10 DUP3 ADD SSTORE DUP8 PUSH1 0x11 DUP3 ADD SSTORE DUP3 PUSH1 0x12 DUP3 ADD SSTORE DUP3 PUSH1 0x13 DUP3 ADD SSTORE DUP8 PUSH1 0x14 DUP3 ADD SSTORE ADD SSTORE DUP4 DUP6 MSTORE PUSH1 0xB DUP2 MSTORE PUSH1 0xFF PUSH1 0x40 DUP7 KECCAK256 SLOAD AND PUSH2 0x1284 JUMPI JUMPDEST PUSH1 0x13 PUSH1 0x40 MLOAD SWAP2 DUP1 DUP4 MSTORE DUP3 ADD MSTORE PUSH19 0x14195C9B585B995B9D1B1E481C995B5BDD9959 PUSH1 0x6A SHL PUSH1 0x40 DUP3 ADD MSTORE LOG2 DUP1 RETURN JUMPDEST PUSH2 0x128D DUP5 PUSH2 0x5580 JUMP JUMPDEST PUSH2 0x1258 JUMP JUMPDEST PUSH1 0x1F DUP2 GT PUSH1 0x1 EQ PUSH2 0x12AB JUMPI POP DUP5 SWAP2 POP SSTORE JUMPDEST DUP8 CODESIZE DUP1 PUSH2 0x11CF JUMP JUMPDEST SWAP1 DUP1 DUP7 SWAP2 DUP5 MSTORE PUSH2 0x12C9 PUSH1 0x1F DUP10 DUP7 KECCAK256 SWAP5 ADD PUSH1 0x5 SHR DUP5 ADD PUSH1 0x1 DUP6 ADD PUSH2 0x43CE JUMP JUMPDEST SSTORE SSTORE PUSH2 0x12A3 JUMP JUMPDEST POP CALLVALUE PUSH2 0x2AC JUMPI PUSH1 0x60 CALLDATASIZE PUSH1 0x3 NOT ADD SLT PUSH2 0x2AC JUMPI PUSH1 0x44 CALLDATALOAD SWAP1 PUSH1 0x1 PUSH1 0x1 PUSH1 0xA0 SHL SUB DUP1 DUP4 AND DUP4 SUB PUSH2 0xDD2 JUMPI PUSH2 0xD8C SWAP3 PUSH1 0x20 SWAP2 PUSH1 0xC SLOAD AND PUSH1 0x40 MLOAD DUP1 DUP1 SWAP7 DUP2 SWAP5 PUSH4 0xDC4CE349 PUSH1 0xE0 SHL DUP4 MSTORE PUSH1 0x24 CALLDATALOAD PUSH1 0x4 CALLDATALOAD PUSH1 0x4 DUP6 ADD PUSH2 0x4B92 JUMP JUMPDEST POP CALLVALUE PUSH2 0x2AC JUMPI PUSH1 0x40 CALLDATASIZE PUSH1 0x3 NOT ADD SLT PUSH2 0x2AC JUMPI PUSH1 0x40 PUSH2 0x133F PUSH2 0x4030 JUMP JUMPDEST SWAP2 PUSH1 0x4 CALLDATALOAD DUP2 MSTORE PUSH1 0x5 PUSH1 0x20 MSTORE KECCAK256 SWAP1 PUSH1 0x1 DUP1 PUSH1 0xA0 SHL SUB AND PUSH1 0x0 MSTORE PUSH1 0x20 MSTORE PUSH1 0x20 PUSH1 0x40 PUSH1 0x0 KECCAK256 SLOAD PUSH1 0x40 MLOAD SWAP1 DUP2 MSTORE RETURN JUMPDEST POP CALLVALUE PUSH2 0x2AC JUMPI PUSH2 0x1379 CALLDATASIZE PUSH2 0x42BF JUMP JUMPDEST SWAP2 SWAP1 DUP2 MSTORE PUSH1 0x6 PUSH1 0x20 MSTORE PUSH1 0x40 DUP2 KECCAK256 SWAP1 DUP2 SLOAD DUP4 LT ISZERO PUSH2 0x2AC JUMPI PUSH1 0x20 PUSH2 0x139C DUP5 DUP5 PUSH2 0x40C2 JUMP JUMPDEST SWAP1 SLOAD PUSH1 0x40 MLOAD PUSH1 0x3 SWAP3 SWAP1 SWAP3 SHL SHR PUSH1 0x1 PUSH1 0x1 PUSH1 0xA0 SHL SUB AND DUP2 MSTORE RETURN JUMPDEST POP CALLVALUE PUSH2 0x2AC JUMPI DUP1 PUSH1 0x3 NOT CALLDATASIZE ADD SLT PUSH2 0x2AC JUMPI PUSH1 0x20 PUSH1 0x40 MLOAD PUSH2 0x15E DUP2 MSTORE RETURN JUMPDEST POP CALLVALUE PUSH2 0x2AC JUMPI PUSH1 0x20 CALLDATASIZE PUSH1 0x3 NOT ADD SLT PUSH2 0x2AC JUMPI PUSH1 0x4 CALLDATALOAD DUP1 DUP3 MSTORE PUSH1 0x2 PUSH1 0x20 MSTORE PUSH1 0x40 DUP3 KECCAK256 DUP1 SLOAD PUSH1 0x1 PUSH1 0x1 PUSH1 0xA0 SHL SUB AND CALLER SUB PUSH2 0x14B6 JUMPI PUSH1 0xFF PUSH1 0xC DUP3 ADD SLOAD AND PUSH1 0x5 DUP2 LT ISZERO PUSH2 0x3CA JUMPI SWAP1 PUSH2 0x1422 PUSH1 0x9 SWAP3 ISZERO PUSH2 0x45B8 JUMP JUMPDEST ADD SLOAD PUSH2 0xA8BF NOT DUP2 ADD SWAP1 DUP2 GT PUSH2 0x14A2 JUMPI TIMESTAMP LT ISZERO PUSH2 0x146E JUMPI PUSH1 0x40 MLOAD PUSH2 0x146B SWAP2 PUSH2 0x1448 DUP3 PUSH2 0x4109 JUMP JUMPDEST PUSH1 0x11 DUP3 MSTORE PUSH17 0x10DC99585D1BDC8818D85B98D95B1B1959 PUSH1 0x7A SHL PUSH1 0x20 DUP4 ADD MSTORE PUSH2 0x5166 JUMP JUMPDEST DUP1 RETURN JUMPDEST PUSH1 0x40 MLOAD PUSH3 0x461BCD PUSH1 0xE5 SHL DUP2 MSTORE PUSH1 0x20 PUSH1 0x4 DUP3 ADD MSTORE PUSH1 0xC PUSH1 0x24 DUP3 ADD MSTORE PUSH12 0x45503A20746F6F206C617465 PUSH1 0xA0 SHL PUSH1 0x44 DUP3 ADD MSTORE PUSH1 0x64 SWAP1 REVERT JUMPDEST PUSH4 0x4E487B71 PUSH1 0xE0 SHL DUP4 MSTORE PUSH1 0x11 PUSH1 0x4 MSTORE PUSH1 0x24 DUP4 REVERT JUMPDEST PUSH1 0x40 MLOAD PUSH3 0x461BCD PUSH1 0xE5 SHL DUP2 MSTORE PUSH1 0x20 PUSH1 0x4 DUP3 ADD MSTORE PUSH1 0xF PUSH1 0x24 DUP3 ADD MSTORE PUSH15 0x22A81D103737BA1031B932B0BA37B9 PUSH1 0x89 SHL PUSH1 0x44 DUP3 ADD MSTORE PUSH1 0x64 SWAP1 REVERT JUMPDEST POP CALLVALUE PUSH2 0x2AC JUMPI PUSH2 0x14FC CALLDATASIZE PUSH2 0x42BF JUMP JUMPDEST SWAP2 SWAP1 DUP2 MSTORE PUSH1 0x7 PUSH1 0x20 MSTORE PUSH1 0x40 DUP2 KECCAK256 SWAP1 DUP2 SLOAD DUP4 LT ISZERO PUSH2 0x2AC JUMPI PUSH1 0x20 PUSH2 0x139C DUP5 DUP5 PUSH2 0x40C2 JUMP JUMPDEST POP CALLVALUE PUSH2 0x2AC JUMPI PUSH2 0x152E CALLDATASIZE PUSH2 0x42BF JUMP JUMPDEST SWAP1 DUP1 DUP4 MSTORE PUSH1 0x20 SWAP1 PUSH1 0x2 DUP3 MSTORE PUSH1 0x40 DUP5 KECCAK256 PUSH1 0xFF PUSH1 0x11 DUP3 ADD SLOAD AND PUSH1 0x2 DUP2 LT ISZERO PUSH2 0xD2F JUMPI PUSH1 0x1 PUSH2 0x155A SWAP2 EQ PUSH2 0x47F7 JUMP JUMPDEST PUSH2 0x156A PUSH1 0xFF PUSH1 0x14 DUP4 ADD SLOAD AND PUSH2 0x4A4A JUMP JUMPDEST PUSH2 0x157B PUSH1 0xFF PUSH1 0xE DUP4 ADD SLOAD AND ISZERO PUSH2 0x483B JUMP JUMPDEST PUSH1 0x15 DUP2 ADD SWAP1 DUP2 SLOAD PUSH2 0x1738 JUMPI PUSH1 0xE SLOAD PUSH1 0x1 PUSH1 0x1 PUSH1 0xA0 SHL SUB SWAP1 DUP2 AND PUSH2 0x159F DUP2 ISZERO ISZERO PUSH2 0x48B9 JUMP JUMPDEST DUP2 PUSH1 0xF SLOAD AND SWAP1 PUSH2 0x15B0 DUP3 ISZERO ISZERO PUSH2 0x48FA JUMP JUMPDEST DUP8 ISZERO ISZERO DUP1 PUSH2 0x172A JUMPI JUMPDEST ISZERO PUSH2 0x16F0 JUMPI SWAP2 DUP9 SWAP2 DUP8 PUSH1 0x24 SWAP5 PUSH1 0x40 MLOAD SWAP6 DUP7 DUP1 SWAP3 PUSH4 0x4360AF3D PUSH1 0xE0 SHL DUP3 MSTORE DUP6 PUSH1 0x4 DUP4 ADD MSTORE GAS STATICCALL SWAP4 DUP5 ISZERO PUSH2 0x16E5 JUMPI DUP4 SWAP5 PUSH2 0x16B0 JUMPI JUMPDEST POP DUP4 PUSH2 0x1602 PUSH1 0x13 SWAP5 SWAP6 PUSH2 0x1612 SWAP4 ADDRESS SWAP1 CALLER SWAP1 PUSH2 0x44E0 JUMP JUMPDEST DUP3 PUSH1 0xF SLOAD AND DUP4 PUSH1 0xE SLOAD AND SWAP1 PUSH2 0x495D JUMP JUMPDEST PUSH1 0xE SLOAD AND SWAP3 ADD SWAP2 DUP3 SLOAD DUP2 EXTCODESIZE ISZERO PUSH2 0x16AC JUMPI DUP3 SWAP2 PUSH1 0x44 DUP4 SWAP3 PUSH1 0x40 MLOAD SWAP6 DUP7 SWAP4 DUP5 SWAP3 PUSH4 0xA6A22B43 PUSH1 0xE0 SHL DUP5 MSTORE PUSH1 0x4 DUP5 ADD MSTORE CALLER PUSH1 0x24 DUP5 ADD MSTORE GAS CALL SWAP2 DUP3 ISZERO PUSH2 0x169F JUMPI DUP8 SWAP3 PUSH2 0x1688 JUMPI JUMPDEST POP POP PUSH32 0x51BC042E638AD412F566E4DC9014DE5071CE0C49CC314E1056D2D492F4FA6D9C SWAP3 SSTORE SLOAD SWAP3 PUSH1 0x40 MLOAD SWAP5 DUP6 MSTORE CALLER SWAP5 LOG4 DUP1 RETURN JUMPDEST PUSH2 0x1693 SWAP2 SWAP3 POP PUSH2 0x40DA JUMP JUMPDEST PUSH2 0x5D9 JUMPI DUP5 DUP7 CODESIZE PUSH2 0x1655 JUMP JUMPDEST POP PUSH1 0x40 MLOAD SWAP1 RETURNDATASIZE SWAP1 DUP3 RETURNDATACOPY RETURNDATASIZE SWAP1 REVERT JUMPDEST DUP3 DUP1 REVERT JUMPDEST SWAP4 POP SWAP2 POP DUP7 DUP4 DUP2 RETURNDATASIZE DUP2 GT PUSH2 0x16DE JUMPI JUMPDEST PUSH2 0x16C9 DUP2 DUP4 PUSH2 0x413F JUMP JUMPDEST DUP2 ADD SUB SLT PUSH2 0xDD2 JUMPI SWAP2 MLOAD SWAP2 DUP9 SWAP2 PUSH2 0x1612 PUSH2 0x15EC JUMP JUMPDEST POP RETURNDATASIZE PUSH2 0x16BF JUMP JUMPDEST PUSH1 0x40 MLOAD RETURNDATASIZE DUP6 DUP3 RETURNDATACOPY RETURNDATASIZE SWAP1 REVERT JUMPDEST PUSH1 0x40 MLOAD PUSH3 0x461BCD PUSH1 0xE5 SHL DUP2 MSTORE PUSH1 0x4 DUP2 ADD DUP9 SWAP1 MSTORE PUSH1 0x12 PUSH1 0x24 DUP3 ADD MSTORE PUSH18 0x22A81D1034B73B30B634B21037B83A34B7B7 PUSH1 0x71 SHL PUSH1 0x44 DUP3 ADD MSTORE PUSH1 0x64 SWAP1 REVERT JUMPDEST POP PUSH1 0x3 DUP5 ADD SLOAD DUP9 GT ISZERO PUSH2 0x15B9 JUMP JUMPDEST PUSH1 0x40 MLOAD PUSH3 0x461BCD PUSH1 0xE5 SHL DUP2 MSTORE PUSH1 0x4 DUP2 ADD DUP6 SWAP1 MSTORE PUSH1 0x14 PUSH1 0x24 DUP3 ADD MSTORE PUSH20 0x11540E88185B1C9958591E48191A5CDC1D5D1959 PUSH1 0x62 SHL PUSH1 0x44 DUP3 ADD MSTORE PUSH1 0x64 SWAP1 REVERT JUMPDEST POP CALLVALUE PUSH2 0x2AC JUMPI PUSH1 0x20 CALLDATASIZE PUSH1 0x3 NOT ADD SLT PUSH2 0x2AC JUMPI PUSH2 0x178E PUSH2 0x4046 JUMP JUMPDEST PUSH2 0x1796 PUSH2 0x42D5 JUMP JUMPDEST PUSH1 0x1 PUSH1 0x1 PUSH1 0xA0 SHL SUB AND PUSH2 0x17AA DUP2 ISZERO ISZERO PUSH2 0x563B JUMP JUMPDEST PUSH1 0xE DUP1 SLOAD PUSH1 0x1 PUSH1 0x1 PUSH1 0xA0 SHL SUB NOT AND SWAP2 SWAP1 SWAP2 OR SWAP1 SSTORE DUP1 RETURN JUMPDEST POP CALLVALUE PUSH2 0x2AC JUMPI PUSH1 0x20 CALLDATASIZE PUSH1 0x3 NOT ADD SLT PUSH2 0x2AC JUMPI PUSH2 0x17DB PUSH2 0x4046 JUMP JUMPDEST PUSH2 0x17E3 PUSH2 0x42D5 JUMP JUMPDEST PUSH1 0x1 PUSH1 0x1 PUSH1 0xA0 SHL SUB AND PUSH2 0x17F7 DUP2 ISZERO ISZERO PUSH2 0x563B JUMP JUMPDEST PUSH1 0xD DUP1 SLOAD PUSH1 0x1 PUSH1 0x1 PUSH1 0xA0 SHL SUB NOT AND SWAP2 SWAP1 SWAP2 OR SWAP1 SSTORE DUP1 RETURN JUMPDEST POP CALLVALUE PUSH2 0x2AC JUMPI PUSH1 0x20 CALLDATASIZE PUSH1 0x3 NOT ADD SLT PUSH2 0x2AC JUMPI PUSH1 0x4 CALLDATALOAD DUP2 MSTORE PUSH1 0x2 PUSH1 0x20 MSTORE PUSH1 0x40 SWAP1 KECCAK256 PUSH2 0x100 DUP2 SWAP1 MSTORE DUP1 SLOAD PUSH1 0x1 PUSH1 0x1 PUSH1 0xA0 SHL SUB AND SWAP1 PUSH2 0x184C SWAP1 PUSH1 0x1 ADD PUSH2 0x41B7 JUMP JUMPDEST PUSH2 0x140 MSTORE PUSH2 0x100 MLOAD PUSH1 0x2 DUP2 ADD SLOAD PUSH1 0xFF AND PUSH1 0x80 MSTORE PUSH1 0x3 DUP2 ADD SLOAD PUSH2 0x180 MSTORE PUSH1 0x1 PUSH1 0xA0 SHL PUSH1 0x1 SWAP1 SUB PUSH1 0x4 DUP3 ADD SLOAD AND PUSH2 0x120 MSTORE PUSH1 0x5 DUP2 ADD SLOAD SWAP2 PUSH1 0x6 DUP3 ADD SLOAD PUSH1 0x7 DUP4 ADD SLOAD PUSH1 0x8 DUP5 ADD SLOAD PUSH1 0x9 DUP6 ADD SLOAD PUSH1 0xA DUP7 ADD SLOAD PUSH1 0xB DUP8 ADD SLOAD SWAP2 PUSH1 0xC DUP9 ADD SLOAD PUSH1 0xFF AND SWAP4 PUSH1 0xD DUP10 ADD SLOAD SWAP6 PUSH1 0xE DUP11 ADD SLOAD PUSH1 0xFF AND SWAP8 PUSH1 0xF DUP12 ADD SLOAD SWAP10 PUSH1 0x10 DUP13 ADD SLOAD SWAP12 PUSH1 0x11 DUP2 ADD SLOAD PUSH2 0x1A0 MSTORE PUSH1 0x12 DUP2 ADD SLOAD PUSH1 0xC0 MSTORE PUSH1 0x13 DUP2 ADD SLOAD PUSH2 0x1C0 MSTORE PUSH1 0x14 DUP2 ADD SLOAD PUSH1 0xFF AND PUSH2 0x160 MSTORE PUSH1 0x15 ADD SLOAD PUSH1 0xE0 MSTORE PUSH1 0x40 MLOAD DUP1 PUSH1 0xA0 MSTORE MSTORE PUSH2 0x2E0 DUP1 PUSH1 0xA0 MLOAD PUSH1 0x20 ADD MSTORE PUSH1 0xA0 MLOAD ADD PUSH2 0x140 MLOAD SWAP1 PUSH2 0x1916 SWAP2 PUSH2 0x4280 JUMP JUMPDEST SWAP12 PUSH1 0x80 MLOAD ISZERO ISZERO PUSH1 0xA0 MLOAD PUSH1 0x40 ADD MSTORE PUSH2 0x180 MLOAD PUSH1 0xA0 MLOAD PUSH1 0x60 ADD MSTORE PUSH2 0x120 MLOAD PUSH1 0xA0 MLOAD PUSH1 0x80 ADD MSTORE PUSH1 0xA0 MLOAD PUSH1 0xA0 ADD MSTORE PUSH1 0xA0 MLOAD PUSH1 0xC0 ADD MSTORE PUSH1 0xA0 MLOAD PUSH1 0xE0 ADD MSTORE PUSH1 0xA0 MLOAD PUSH2 0x100 ADD MSTORE PUSH1 0xA0 MLOAD PUSH2 0x120 ADD MSTORE PUSH1 0xA0 MLOAD PUSH2 0x140 ADD MSTORE PUSH1 0xA0 MLOAD PUSH2 0x160 ADD MSTORE PUSH1 0xA0 MLOAD PUSH2 0x180 ADD PUSH2 0x197E SWAP2 PUSH2 0x42A5 JUMP JUMPDEST PUSH1 0xA0 MLOAD PUSH2 0x1A0 ADD MSTORE ISZERO ISZERO PUSH1 0xA0 MLOAD PUSH2 0x1C0 ADD MSTORE PUSH1 0xA0 MLOAD PUSH2 0x1E0 ADD MSTORE PUSH1 0xA0 MLOAD PUSH2 0x200 ADD MSTORE PUSH1 0xA0 MLOAD PUSH2 0x220 ADD PUSH2 0x1A0 MLOAD PUSH1 0xFF AND SWAP1 PUSH2 0x19B8 SWAP2 PUSH2 0x42B2 JUMP JUMPDEST PUSH1 0x1 PUSH1 0xA0 SHL PUSH1 0x1 SWAP1 SUB PUSH2 0x1A0 MLOAD PUSH1 0x8 SHR AND PUSH1 0xA0 MLOAD PUSH2 0x240 ADD MSTORE PUSH1 0xC0 MLOAD PUSH1 0xA0 MLOAD PUSH2 0x260 ADD MSTORE PUSH2 0x1C0 MLOAD PUSH1 0xA0 MLOAD PUSH2 0x280 ADD MSTORE PUSH2 0x160 MLOAD ISZERO ISZERO PUSH1 0xA0 MLOAD PUSH2 0x2A0 ADD MSTORE PUSH1 0xE0 MLOAD PUSH1 0xA0 MLOAD PUSH2 0x2C0 ADD MSTORE PUSH1 0xA0 MLOAD DUP1 SWAP2 SUB SWAP1 RETURN JUMPDEST POP CALLVALUE PUSH2 0x2AC JUMPI PUSH1 0x20 CALLDATASIZE PUSH1 0x3 NOT ADD SLT PUSH2 0x2AC JUMPI PUSH2 0x1A24 PUSH2 0x4046 JUMP JUMPDEST PUSH2 0x1A2C PUSH2 0x42D5 JUMP JUMPDEST PUSH1 0x1 PUSH1 0x1 PUSH1 0xA0 SHL SUB AND PUSH2 0x1A40 DUP2 ISZERO ISZERO PUSH2 0x563B JUMP JUMPDEST PUSH1 0xF DUP1 SLOAD PUSH1 0x1 PUSH1 0x1 PUSH1 0xA0 SHL SUB NOT AND SWAP2 SWAP1 SWAP2 OR SWAP1 SSTORE DUP1 RETURN JUMPDEST POP CALLVALUE PUSH2 0x2AC JUMPI PUSH1 0x20 CALLDATASIZE PUSH1 0x3 NOT ADD SLT PUSH2 0x2AC JUMPI PUSH1 0x40 PUSH1 0x20 SWAP2 PUSH1 0x4 CALLDATALOAD DUP2 MSTORE PUSH1 0x7 DUP4 MSTORE KECCAK256 SLOAD PUSH1 0x40 MLOAD SWAP1 DUP2 MSTORE RETURN JUMPDEST POP CALLVALUE PUSH2 0x2AC JUMPI DUP1 PUSH1 0x3 NOT CALLDATASIZE ADD SLT PUSH2 0x2AC JUMPI PUSH1 0xD SLOAD PUSH1 0x40 MLOAD PUSH1 0x1 PUSH1 0x1 PUSH1 0xA0 SHL SUB SWAP1 SWAP2 AND DUP2 MSTORE PUSH1 0x20 SWAP1 RETURN JUMPDEST POP CALLVALUE PUSH2 0x2AC JUMPI PUSH1 0x20 DUP1 PUSH1 0x3 NOT CALLDATASIZE ADD SLT PUSH2 0x444 JUMPI PUSH1 0x4 CALLDATALOAD SWAP1 DUP2 DUP4 MSTORE PUSH1 0x2 DUP2 MSTORE PUSH1 0x40 DUP4 KECCAK256 PUSH1 0x11 DUP2 ADD SLOAD SWAP1 PUSH1 0xFF DUP3 AND PUSH1 0x2 DUP2 LT ISZERO PUSH2 0xD2F JUMPI PUSH2 0x1CB0 JUMPI PUSH1 0xC DUP2 ADD DUP1 SLOAD SWAP3 PUSH1 0xFF DUP5 AND PUSH1 0x5 DUP2 LT ISZERO PUSH2 0xBC4 JUMPI PUSH1 0x1 PUSH2 0x1B03 SWAP2 EQ PUSH2 0x4764 JUMP JUMPDEST PUSH1 0xE DUP4 ADD SWAP3 DUP4 SLOAD SWAP2 PUSH2 0x1B18 PUSH1 0xFF DUP5 AND ISZERO PUSH2 0x47A0 JUMP JUMPDEST PUSH1 0xB DUP3 ADD SLOAD TIMESTAMP LT PUSH2 0x1C7B JUMPI PUSH1 0x40 MLOAD PUSH4 0x3FABE5A3 PUSH1 0xE2 SHL DUP2 MSTORE SWAP5 SWAP4 SWAP3 SWAP2 SWAP1 PUSH1 0xA0 SWAP1 DUP7 SWAP1 PUSH1 0x4 SWAP1 DUP3 SWAP1 PUSH1 0x8 SHR PUSH1 0x1 PUSH1 0x1 PUSH1 0xA0 SHL SUB AND GAS STATICCALL SWAP5 DUP6 ISZERO PUSH2 0x1C70 JUMPI DUP10 SWAP6 PUSH2 0x1BFB JUMPI JUMPDEST POP SWAP2 PUSH1 0x2 PUSH1 0x0 DUP1 MLOAD PUSH1 0x20 PUSH2 0x56DF DUP4 CODECOPY DUP2 MLOAD SWAP2 MSTORE SWAP8 SWAP5 SWAP3 PUSH1 0xF DUP6 PUSH1 0x12 PUSH1 0x60 SWAP11 SWAP10 SWAP8 ADD SLOAD DUP8 LT ISZERO PUSH1 0x0 EQ PUSH2 0x1BF4 JUMPI PUSH1 0x1 SWAP6 JUMPDEST PUSH1 0xFF PUSH1 0xD DUP4 ADD SWAP8 AND DUP8 SSTORE PUSH1 0x10 DUP3 ADD SWAP8 DUP9 SSTORE PUSH1 0x1 PUSH1 0xFF NOT DUP1 SWAP6 AND OR SWAP1 SSTORE ADD SWAP7 TIMESTAMP DUP9 SSTORE AND OR SWAP1 SSTORE PUSH2 0x1BB9 DUP8 PUSH2 0x4D2B JUMP JUMPDEST PUSH2 0x1BC4 DUP2 SLOAD DUP9 PUSH2 0x54DF JUMP JUMPDEST SLOAD SWAP3 DUP7 PUSH1 0x0 DUP1 MLOAD PUSH1 0x20 PUSH2 0x571F DUP4 CODECOPY DUP2 MLOAD SWAP2 MSTORE DUP5 PUSH1 0x40 MLOAD DUP8 DUP2 MSTORE LOG2 SLOAD SWAP1 SLOAD SWAP2 PUSH1 0x40 MLOAD SWAP4 DUP5 MSTORE DUP4 ADD MSTORE PUSH1 0x40 DUP3 ADD MSTORE LOG2 DUP1 RETURN JUMPDEST DUP4 SWAP6 PUSH2 0x1B8B JUMP JUMPDEST SWAP7 SWAP4 SWAP2 SWAP6 SWAP5 POP SWAP2 PUSH1 0xA0 DUP8 RETURNDATASIZE DUP3 GT PUSH2 0x1C68 JUMPI JUMPDEST DUP2 PUSH2 0x1C1A PUSH1 0xA0 SWAP4 DUP4 PUSH2 0x413F JUMP JUMPDEST DUP2 ADD SUB SLT PUSH2 0x1C64 JUMPI PUSH1 0x2 PUSH1 0x60 SWAP7 PUSH1 0xF DUP10 PUSH2 0x1C42 PUSH1 0x0 DUP1 MLOAD PUSH1 0x20 PUSH2 0x56DF DUP4 CODECOPY DUP2 MLOAD SWAP2 MSTORE SWAP12 PUSH2 0x47E3 JUMP JUMPDEST POP PUSH2 0x1C53 PUSH1 0x80 DUP10 DUP4 ADD MLOAD SWAP3 ADD PUSH2 0x47E3 JUMP JUMPDEST POP SWAP8 SWAP9 POP POP SWAP3 SWAP5 SWAP8 POP SWAP3 SWAP1 SWAP3 PUSH2 0x1B5B JUMP JUMPDEST DUP9 DUP1 REVERT JUMPDEST RETURNDATASIZE SWAP2 POP PUSH2 0x1C0D JUMP JUMPDEST PUSH1 0x40 MLOAD RETURNDATASIZE DUP12 DUP3 RETURNDATACOPY RETURNDATASIZE SWAP1 REVERT JUMPDEST PUSH1 0x40 MLOAD PUSH3 0x461BCD PUSH1 0xE5 SHL DUP2 MSTORE PUSH1 0x4 DUP2 ADD DUP9 SWAP1 MSTORE PUSH1 0xD PUSH1 0x24 DUP3 ADD MSTORE PUSH13 0x45503A20746F6F206561726C79 PUSH1 0x98 SHL PUSH1 0x44 DUP3 ADD MSTORE PUSH1 0x64 SWAP1 REVERT JUMPDEST PUSH1 0x40 MLOAD PUSH3 0x461BCD PUSH1 0xE5 SHL DUP2 MSTORE PUSH1 0x4 DUP2 ADD DUP5 SWAP1 MSTORE PUSH1 0x12 PUSH1 0x24 DUP3 ADD MSTORE PUSH18 0x11540E881B9BDD0814149250D157D1915151 PUSH1 0x72 SHL PUSH1 0x44 DUP3 ADD MSTORE PUSH1 0x64 SWAP1 REVERT JUMPDEST POP CALLVALUE PUSH2 0x2AC JUMPI PUSH1 0x40 CALLDATASIZE PUSH1 0x3 NOT ADD SLT PUSH2 0x2AC JUMPI PUSH2 0x1D04 PUSH2 0x4046 JUMP JUMPDEST PUSH1 0x1 PUSH1 0x1 PUSH1 0xA0 SHL SUB AND DUP2 MSTORE PUSH1 0x8 PUSH1 0x20 MSTORE PUSH1 0x40 DUP2 KECCAK256 DUP1 SLOAD PUSH1 0x24 CALLDATALOAD SWAP3 SWAP1 DUP4 LT ISZERO PUSH2 0x2AC JUMPI PUSH1 0x20 PUSH2 0x1D32 DUP5 DUP5 PUSH2 0x40C2 JUMP JUMPDEST SWAP1 SLOAD PUSH1 0x40 MLOAD SWAP2 PUSH1 0x3 SHL SHR DUP2 MSTORE RETURN JUMPDEST POP CALLVALUE PUSH2 0x2AC JUMPI DUP1 PUSH1 0x3 NOT CALLDATASIZE ADD SLT PUSH2 0x2AC JUMPI PUSH1 0x20 PUSH1 0x1 SLOAD PUSH1 0x40 MLOAD SWAP1 DUP2 MSTORE RETURN JUMPDEST POP CALLVALUE PUSH2 0x2AC JUMPI DUP1 PUSH1 0x3 NOT CALLDATASIZE ADD SLT PUSH2 0x2AC JUMPI SLOAD PUSH1 0x40 MLOAD PUSH1 0x1 PUSH1 0x1 PUSH1 0xA0 SHL SUB SWAP1 SWAP2 AND DUP2 MSTORE PUSH1 0x20 SWAP1 RETURN JUMPDEST POP CALLVALUE PUSH2 0x2AC JUMPI PUSH1 0x60 CALLDATASIZE PUSH1 0x3 NOT ADD SLT PUSH2 0x2AC JUMPI PUSH1 0x44 CALLDATALOAD PUSH1 0x4 CALLDATALOAD PUSH1 0x24 DUP1 CALLDATALOAD SWAP1 PUSH1 0x1 PUSH1 0x1 PUSH1 0x40 SHL SUB DUP1 DUP6 GT PUSH2 0x5D9 JUMPI CALLDATASIZE PUSH1 0x23 DUP7 ADD SLT ISZERO PUSH2 0x5D9 JUMPI DUP5 PUSH1 0x4 ADD CALLDATALOAD SWAP1 DUP2 GT PUSH2 0x5D9 JUMPI CALLDATASIZE DUP3 DUP3 DUP8 ADD ADD GT PUSH2 0x5D9 JUMPI DUP4 DUP7 MSTORE PUSH1 0x20 SWAP5 PUSH1 0x2 DUP7 MSTORE PUSH1 0x40 DUP8 KECCAK256 SWAP3 PUSH1 0xFF PUSH1 0x11 DUP6 ADD SLOAD AND PUSH1 0x2 DUP2 LT ISZERO PUSH2 0x20A0 JUMPI PUSH1 0x1 PUSH2 0x1DFF SWAP2 EQ PUSH2 0x47F7 JUMP JUMPDEST PUSH1 0xFF PUSH1 0xC DUP6 ADD SLOAD AND PUSH1 0x5 DUP2 LT ISZERO PUSH2 0x20A0 JUMPI PUSH1 0x1 PUSH2 0x1E1C SWAP2 EQ PUSH2 0x4764 JUMP JUMPDEST PUSH2 0x1E2D PUSH1 0xFF PUSH1 0xE DUP7 ADD SLOAD AND ISZERO PUSH2 0x483B JUMP JUMPDEST PUSH1 0x14 DUP5 ADD SWAP5 PUSH2 0x1E40 PUSH1 0xFF DUP8 SLOAD AND ISZERO PUSH2 0x4876 JUMP JUMPDEST DUP5 SLOAD PUSH1 0x1 PUSH1 0x1 PUSH1 0xA0 SHL SUB SWAP4 SWAP1 DUP5 AND CALLER EQ PUSH2 0x2060 JUMPI DUP8 DUP11 MSTORE PUSH1 0x3 DUP10 MSTORE PUSH1 0x40 DUP11 KECCAK256 CALLER PUSH1 0x0 MSTORE DUP10 MSTORE PUSH1 0xFF PUSH1 0x40 PUSH1 0x0 KECCAK256 SLOAD AND ISZERO PUSH2 0x2026 JUMPI DUP10 DUP4 SWAP2 DUP4 ISZERO ISZERO DUP1 PUSH2 0x2018 JUMPI JUMPDEST PUSH2 0x1E88 SWAP1 PUSH2 0x45F5 JUMP JUMPDEST DUP6 PUSH1 0xE SLOAD AND SWAP6 PUSH2 0x1E99 DUP8 ISZERO ISZERO PUSH2 0x48B9 JUMP JUMPDEST DUP12 DUP2 PUSH1 0xF SLOAD AND SWAP8 PUSH2 0x1EAB DUP10 ISZERO ISZERO PUSH2 0x48FA JUMP JUMPDEST PUSH1 0x40 MLOAD SWAP8 DUP9 DUP1 SWAP3 PUSH4 0x4360AF3D PUSH1 0xE0 SHL DUP3 MSTORE DUP12 PUSH1 0x4 DUP4 ADD MSTORE GAS STATICCALL DUP1 ISZERO PUSH2 0x16E5 JUMPI DUP13 SWAP8 DUP10 SWAP8 DUP6 SWAP3 PUSH2 0x1FDA JUMPI JUMPDEST POP DUP2 PUSH2 0x1602 PUSH2 0x1F5D SWAP5 SWAP4 PUSH2 0x1EEC SWAP4 ADDRESS SWAP1 CALLER SWAP1 PUSH2 0x44E0 JUMP JUMPDEST PUSH1 0x40 MLOAD SWAP6 DUP13 DUP10 DUP9 ADD MSTORE PUSH1 0x40 DUP8 ADD MSTORE PUSH1 0x40 DUP7 MSTORE PUSH2 0x1F07 DUP7 PUSH2 0x4124 JUMP JUMPDEST PUSH1 0xE SLOAD AND SWAP5 PUSH1 0x84 DUP6 PUSH1 0x40 MLOAD SWAP11 DUP12 SWAP10 DUP11 SWAP9 DUP10 SWAP8 PUSH4 0xABDC5DCD PUSH1 0xE0 SHL DUP10 MSTORE PUSH1 0x60 PUSH1 0x4 DUP11 ADD MSTORE DUP3 PUSH1 0x64 DUP11 ADD MSTORE ADD DUP5 DUP9 ADD CALLDATACOPY DUP7 DUP4 DUP3 DUP9 ADD ADD MSTORE PUSH1 0x1F DUP1 NOT SWAP2 ADD AND DUP6 ADD SWAP1 CALLER SWAP1 DUP7 ADD MSTORE PUSH1 0x80 DUP6 DUP3 SUB ADD PUSH1 0x44 DUP7 ADD MSTORE ADD SWAP1 PUSH2 0x4280 JUMP JUMPDEST SUB SWAP3 GAS CALL SWAP5 DUP6 ISZERO PUSH2 0x5E4 JUMPI DUP7 SWAP6 PUSH2 0x1FA9 JUMPI JUMPDEST POP POP PUSH1 0x13 ADD DUP4 SWAP1 SSTORE DUP1 SLOAD PUSH1 0xFF NOT AND PUSH1 0x1 OR SWAP1 SSTORE PUSH32 0xC92F993487C6D961B60FF2A81386DFF5CC620CD4AED9CDDABE26500391655E82 DUP4 DUP1 LOG3 DUP1 RETURN JUMPDEST SWAP1 DUP1 SWAP6 POP DUP2 RETURNDATASIZE DUP4 GT PUSH2 0x1FD3 JUMPI JUMPDEST PUSH2 0x1FC0 DUP2 DUP4 PUSH2 0x413F JUMP JUMPDEST DUP2 ADD SUB SLT PUSH2 0x87C JUMPI PUSH1 0x13 SWAP4 MLOAD SWAP4 CODESIZE PUSH2 0x1F6F JUMP JUMPDEST POP RETURNDATASIZE PUSH2 0x1FB6 JUMP JUMPDEST SWAP5 POP SWAP8 DUP1 SWAP3 SWAP8 POP DUP5 SWAP2 POP RETURNDATASIZE DUP4 GT PUSH2 0x2011 JUMPI JUMPDEST PUSH2 0x1FF6 DUP2 DUP4 PUSH2 0x413F JUMP JUMPDEST DUP2 ADD SUB SLT PUSH2 0xDD2 JUMPI SWAP1 MLOAD DUP11 SWAP6 DUP8 SWAP6 DUP14 SWAP4 SWAP3 SWAP1 SWAP2 PUSH2 0x1EEC PUSH2 0x1ED5 JUMP JUMPDEST POP RETURNDATASIZE PUSH2 0x1FEC JUMP JUMPDEST POP PUSH1 0x3 DUP9 ADD SLOAD DUP5 GT ISZERO PUSH2 0x1E7F JUMP JUMPDEST PUSH1 0x40 MLOAD PUSH3 0x461BCD PUSH1 0xE5 SHL DUP2 MSTORE PUSH1 0x4 DUP2 ADD DUP11 SWAP1 MSTORE PUSH1 0x13 DUP2 DUP6 ADD MSTORE PUSH19 0x45503A206D7573742068617665207374616B65 PUSH1 0x68 SHL PUSH1 0x44 DUP3 ADD MSTORE PUSH1 0x64 SWAP1 REVERT JUMPDEST PUSH1 0x40 MLOAD PUSH3 0x461BCD PUSH1 0xE5 SHL DUP2 MSTORE PUSH1 0x4 DUP2 ADD DUP11 SWAP1 MSTORE PUSH1 0x19 DUP2 DUP6 ADD MSTORE PUSH25 0x11540E8818DC99585D1BDC8818D85B9B9BDD08185CDCD95C9D PUSH1 0x3A SHL PUSH1 0x44 DUP3 ADD MSTORE PUSH1 0x64 SWAP1 REVERT JUMPDEST POP PUSH4 0x4E487B71 PUSH1 0xE0 SHL DUP9 MSTORE PUSH1 0x21 PUSH1 0x4 MSTORE DUP8 REVERT JUMPDEST POP CALLVALUE PUSH2 0x2AC JUMPI PUSH1 0x20 CALLDATASIZE PUSH1 0x3 NOT ADD SLT PUSH2 0x2AC JUMPI PUSH1 0x4 CALLDATALOAD DUP1 DUP3 MSTORE PUSH1 0x2 PUSH1 0x20 MSTORE PUSH1 0x40 DUP3 KECCAK256 PUSH1 0xFF PUSH1 0x11 DUP3 ADD SLOAD AND PUSH1 0x2 DUP2 LT ISZERO PUSH2 0x3CA JUMPI PUSH1 0x1 PUSH2 0x20F1 SWAP2 EQ PUSH2 0x47F7 JUMP JUMPDEST PUSH1 0xFF PUSH1 0xC DUP3 ADD SLOAD AND PUSH1 0x5 DUP2 LT ISZERO PUSH2 0x3CA JUMPI PUSH2 0x2130 SWAP2 PUSH2 0x2114 PUSH1 0x1 PUSH1 0xA SWAP4 EQ PUSH2 0x4764 JUMP JUMPDEST PUSH2 0x2125 PUSH1 0xFF PUSH1 0x14 DUP4 ADD SLOAD AND ISZERO PUSH2 0x4876 JUMP JUMPDEST ADD SLOAD PUSH1 0x1 SLOAD SWAP1 PUSH2 0x4390 JUMP JUMPDEST TIMESTAMP LT PUSH2 0x2185 JUMPI PUSH1 0x40 MLOAD PUSH2 0x146B SWAP2 PUSH2 0x2146 DUP3 PUSH2 0x4124 JUMP JUMPDEST PUSH1 0x27 DUP3 MSTORE PUSH32 0x4E6F20617373657274696F6E206D61646520E2809420726566756E6473206176 PUSH1 0x20 DUP4 ADD MSTORE PUSH7 0x61696C61626C65 PUSH1 0xC8 SHL PUSH1 0x40 DUP4 ADD MSTORE PUSH2 0x5166 JUMP JUMPDEST PUSH1 0x40 MLOAD PUSH3 0x461BCD PUSH1 0xE5 SHL DUP2 MSTORE PUSH1 0x20 PUSH1 0x4 DUP3 ADD MSTORE PUSH1 0x17 PUSH1 0x24 DUP3 ADD MSTORE PUSH23 0x45503A20677261636520706572696F6420616374697665 PUSH1 0x48 SHL PUSH1 0x44 DUP3 ADD MSTORE PUSH1 0x64 SWAP1 REVERT JUMPDEST POP CALLVALUE PUSH2 0x2AC JUMPI PUSH2 0xD8C SWAP1 PUSH1 0x20 PUSH2 0x21D9 CALLDATASIZE PUSH2 0x405C JUMP JUMPDEST PUSH1 0xC SLOAD PUSH1 0x40 MLOAD PUSH4 0x423E7BC1 PUSH1 0xE1 SHL DUP2 MSTORE SWAP7 DUP8 SWAP5 PUSH1 0x1 PUSH1 0x1 PUSH1 0xA0 SHL SUB SWAP1 SWAP3 AND SWAP4 DUP6 SWAP4 DUP5 SWAP4 SWAP1 SWAP2 SWAP1 PUSH1 0x4 DUP6 ADD PUSH2 0x4744 JUMP JUMPDEST POP CALLVALUE PUSH2 0x2AC JUMPI PUSH1 0x20 CALLDATASIZE PUSH1 0x3 NOT ADD SLT PUSH2 0x2AC JUMPI PUSH1 0x4 CALLDATALOAD PUSH2 0x2225 PUSH2 0x42D5 JUMP JUMPDEST PUSH2 0xE10 DUP2 LT PUSH2 0x2234 JUMPI PUSH1 0x1 SSTORE DUP1 RETURN JUMPDEST PUSH1 0x40 MLOAD PUSH3 0x461BCD PUSH1 0xE5 SHL DUP2 MSTORE PUSH1 0x20 PUSH1 0x4 DUP3 ADD MSTORE PUSH1 0xD PUSH1 0x24 DUP3 ADD MSTORE PUSH13 0x11540E881D1BDBC81CDA1BDC9D PUSH1 0x9A SHL PUSH1 0x44 DUP3 ADD MSTORE PUSH1 0x64 SWAP1 REVERT JUMPDEST POP CALLVALUE PUSH2 0x2AC JUMPI DUP1 PUSH1 0x3 NOT CALLDATASIZE ADD SLT PUSH2 0x2AC JUMPI PUSH1 0x20 PUSH1 0x40 MLOAD PUSH2 0x23BE DUP2 MSTORE RETURN JUMPDEST POP CALLVALUE PUSH2 0x2AC JUMPI PUSH1 0x20 CALLDATASIZE PUSH1 0x3 NOT ADD SLT PUSH2 0x2AC JUMPI PUSH1 0x4 CALLDATALOAD DUP1 DUP3 MSTORE PUSH1 0x2 PUSH1 0x20 MSTORE PUSH1 0x40 DUP3 KECCAK256 SWAP1 PUSH1 0xFF PUSH1 0xC DUP4 ADD SLOAD AND PUSH1 0x5 DUP2 LT ISZERO PUSH2 0x3CA JUMPI PUSH1 0x1 PUSH2 0x22C5 SWAP2 EQ PUSH2 0x4764 JUMP JUMPDEST PUSH1 0xB DUP3 ADD SLOAD TIMESTAMP LT PUSH2 0x231C JUMPI PUSH2 0x22E4 PUSH1 0xFF PUSH1 0xE PUSH2 0x146B SWAP5 ADD SLOAD AND ISZERO PUSH2 0x47A0 JUMP JUMPDEST PUSH1 0x40 MLOAD SWAP1 PUSH2 0x22F1 DUP3 PUSH2 0x4109 JUMP JUMPDEST PUSH1 0x19 DUP3 MSTORE PUSH25 0x14995CDBDB1D5D1A5BDB881C195C9A5BD908195E1C1A5C9959 PUSH1 0x3A SHL PUSH1 0x20 DUP4 ADD MSTORE PUSH2 0x5166 JUMP JUMPDEST PUSH1 0x40 MLOAD PUSH3 0x461BCD PUSH1 0xE5 SHL DUP2 MSTORE PUSH1 0x20 PUSH1 0x4 DUP3 ADD MSTORE PUSH1 0x1C PUSH1 0x24 DUP3 ADD MSTORE PUSH28 0x45503A207265736F6C7574696F6E20706572696F6420616374697665 PUSH1 0x20 SHL PUSH1 0x44 DUP3 ADD MSTORE PUSH1 0x64 SWAP1 REVERT JUMPDEST POP CALLVALUE PUSH2 0x2AC JUMPI DUP1 PUSH1 0x3 NOT CALLDATASIZE ADD SLT PUSH2 0x2AC JUMPI PUSH2 0x2379 PUSH2 0x42D5 JUMP JUMPDEST PUSH1 0x0 DUP1 SLOAD PUSH1 0x1 PUSH1 0x1 PUSH1 0xA0 SHL SUB NOT DUP2 AND DUP3 SSTORE PUSH1 0x1 PUSH1 0x1 PUSH1 0xA0 SHL SUB AND PUSH1 0x0 DUP1 MLOAD PUSH1 0x20 PUSH2 0x56FF DUP4 CODECOPY DUP2 MLOAD SWAP2 MSTORE DUP3 DUP1 LOG3 DUP1 RETURN JUMPDEST POP CALLVALUE PUSH2 0x2AC JUMPI PUSH1 0x20 DUP1 PUSH1 0x3 NOT CALLDATASIZE ADD SLT PUSH2 0x444 JUMPI PUSH1 0x4 CALLDATALOAD DUP3 MSTORE PUSH1 0x6 DUP2 MSTORE PUSH1 0x40 DUP3 KECCAK256 PUSH1 0x40 MLOAD SWAP3 DUP4 DUP4 DUP4 SLOAD SWAP2 DUP3 DUP2 MSTORE ADD SWAP1 DUP2 SWAP4 DUP4 MSTORE DUP5 DUP4 KECCAK256 SWAP1 DUP4 JUMPDEST DUP2 DUP2 LT PUSH2 0x243D JUMPI POP POP POP DUP5 PUSH2 0x23F6 SWAP2 SUB DUP6 PUSH2 0x413F JUMP JUMPDEST PUSH1 0x40 MLOAD SWAP4 DUP4 DUP6 SWAP5 DUP6 ADD SWAP2 DUP2 DUP7 MSTORE MLOAD DUP1 SWAP3 MSTORE PUSH1 0x40 DUP6 ADD SWAP4 SWAP3 JUMPDEST DUP3 DUP2 LT PUSH2 0x241D JUMPI POP POP POP POP SUB SWAP1 RETURN JUMPDEST DUP4 MLOAD PUSH1 0x1 PUSH1 0x1 PUSH1 0xA0 SHL SUB AND DUP6 MSTORE DUP7 SWAP6 POP SWAP4 DUP2 ADD SWAP4 SWAP3 DUP2 ADD SWAP3 PUSH1 0x1 ADD PUSH2 0x240E JUMP JUMPDEST DUP3 SLOAD PUSH1 0x1 PUSH1 0x1 PUSH1 0xA0 SHL SUB AND DUP5 MSTORE SWAP3 DUP7 ADD SWAP3 PUSH1 0x1 SWAP3 DUP4 ADD SWAP3 ADD PUSH2 0x23E0 JUMP JUMPDEST POP CALLVALUE PUSH2 0x2AC JUMPI DUP1 PUSH1 0x3 NOT CALLDATASIZE ADD SLT PUSH2 0x2AC JUMPI PUSH1 0x20 PUSH1 0x40 MLOAD PUSH2 0x352 DUP2 MSTORE RETURN JUMPDEST POP CALLVALUE PUSH2 0x2AC JUMPI PUSH1 0x20 DUP1 PUSH1 0x3 NOT CALLDATASIZE ADD SLT PUSH2 0x444 JUMPI PUSH1 0x4 CALLDATALOAD SWAP1 DUP2 DUP4 MSTORE PUSH1 0x2 DUP2 MSTORE PUSH1 0x40 DUP4 KECCAK256 PUSH1 0xFF PUSH1 0x11 DUP3 ADD SLOAD AND PUSH1 0x2 DUP2 LT ISZERO PUSH2 0x26BD JUMPI PUSH1 0x1 PUSH2 0x24B6 SWAP2 EQ PUSH2 0x47F7 JUMP JUMPDEST PUSH2 0x24C6 PUSH1 0xFF PUSH1 0x14 DUP4 ADD SLOAD AND PUSH2 0x4A4A JUMP JUMPDEST PUSH1 0xE DUP2 ADD SWAP1 DUP2 SLOAD SWAP3 PUSH2 0x24DB PUSH1 0xFF DUP6 AND ISZERO PUSH2 0x483B JUMP JUMPDEST PUSH1 0xE SLOAD PUSH1 0x13 DUP4 ADD SLOAD PUSH1 0x40 MLOAD PUSH4 0xE39DFD7F PUSH1 0xE0 SHL DUP2 MSTORE PUSH1 0x4 DUP2 ADD DUP3 SWAP1 MSTORE SWAP1 SWAP5 SWAP2 DUP9 SWAP1 DUP3 SWAP1 PUSH1 0x24 SWAP1 DUP3 SWAP1 PUSH1 0x1 PUSH1 0x1 PUSH1 0xA0 SHL SUB AND GAS STATICCALL SWAP5 DUP6 ISZERO PUSH2 0x26B2 JUMPI DUP9 SWAP2 DUP10 SWAP7 PUSH2 0x2624 JUMPI JUMPDEST POP DUP8 PUSH32 0x1BCFC076833DB7A342B2B4213F01D2341DE157027E6A14CB082CC770513937C DUP6 PUSH1 0x40 MLOAD DUP6 ISZERO ISZERO DUP2 MSTORE LOG3 ISZERO PUSH2 0x2605 JUMPI PUSH1 0x40 DUP5 DUP1 MLOAD DUP2 ADD SUB SLT PUSH2 0xA6E JUMPI PUSH1 0x0 DUP1 MLOAD PUSH1 0x20 PUSH2 0x56DF DUP4 CODECOPY DUP2 MLOAD SWAP2 MSTORE SWAP5 PUSH1 0x40 PUSH1 0x60 SWAP6 ADD MLOAD SWAP2 JUMPDEST DUP3 ISZERO ISZERO DUP1 PUSH2 0x25F7 JUMPI JUMPDEST PUSH2 0x2588 SWAP1 PUSH2 0x45F5 JUMP JUMPDEST PUSH1 0xD DUP6 ADD SWAP3 DUP4 SSTORE DUP9 PUSH1 0x10 DUP7 ADD SSTORE PUSH1 0x1 PUSH1 0xFF NOT DUP1 SWAP4 AND OR SWAP1 SSTORE PUSH1 0x2 PUSH1 0xC PUSH1 0xF DUP7 ADD SWAP6 TIMESTAMP DUP8 SSTORE ADD SWAP2 DUP3 SLOAD AND OR SWAP1 SSTORE PUSH2 0x25BD DUP7 PUSH2 0x4D2B JUMP JUMPDEST PUSH2 0x25C8 DUP2 SLOAD DUP8 PUSH2 0x54DF JUMP JUMPDEST SLOAD SWAP2 DUP6 PUSH1 0x0 DUP1 MLOAD PUSH1 0x20 PUSH2 0x571F DUP4 CODECOPY DUP2 MLOAD SWAP2 MSTORE DUP4 PUSH1 0x40 MLOAD DUP7 DUP2 MSTORE LOG2 SLOAD SWAP1 PUSH1 0x40 MLOAD SWAP3 DUP4 MSTORE DUP3 ADD MSTORE DUP5 PUSH1 0x40 DUP3 ADD MSTORE LOG2 DUP1 RETURN JUMPDEST POP PUSH1 0x3 DUP6 ADD SLOAD DUP4 GT ISZERO PUSH2 0x257F JUMP JUMPDEST PUSH1 0x60 SWAP4 POP PUSH1 0x0 DUP1 MLOAD PUSH1 0x20 PUSH2 0x56DF DUP4 CODECOPY DUP2 MLOAD SWAP2 MSTORE SWAP5 PUSH1 0x15 DUP5 ADD SLOAD SWAP2 PUSH2 0x2576 JUMP JUMPDEST SWAP2 POP SWAP5 POP RETURNDATASIZE DUP1 DUP10 DUP4 RETURNDATACOPY PUSH2 0x2637 DUP2 DUP4 PUSH2 0x413F JUMP JUMPDEST DUP2 ADD SWAP1 PUSH1 0x40 DUP2 DUP4 SUB SLT PUSH2 0x1C64 JUMPI PUSH2 0x264D DUP2 PUSH2 0x4301 JUMP JUMPDEST DUP5 DUP3 ADD MLOAD SWAP1 SWAP2 PUSH1 0x1 PUSH1 0x1 PUSH1 0x40 SHL SUB DUP3 GT PUSH2 0x26AA JUMPI ADD DUP3 PUSH1 0x1F DUP3 ADD SLT ISZERO PUSH2 0x26AE JUMPI DUP1 MLOAD PUSH2 0x2678 DUP2 PUSH2 0x4162 JUMP JUMPDEST SWAP4 PUSH2 0x2686 PUSH1 0x40 MLOAD SWAP6 DUP7 PUSH2 0x413F JUMP JUMPDEST DUP2 DUP6 MSTORE DUP7 DUP3 DUP5 ADD ADD GT PUSH2 0x26AA JUMPI PUSH2 0x26A2 SWAP2 DUP7 DUP1 DUP7 ADD SWAP2 ADD PUSH2 0x425D JUMP JUMPDEST SWAP1 SWAP5 CODESIZE PUSH2 0x251E JUMP JUMPDEST DUP11 DUP1 REVERT JUMPDEST DUP10 DUP1 REVERT JUMPDEST PUSH1 0x40 MLOAD RETURNDATASIZE DUP11 DUP3 RETURNDATACOPY RETURNDATASIZE SWAP1 REVERT JUMPDEST PUSH4 0x4E487B71 PUSH1 0xE0 SHL DUP6 MSTORE PUSH1 0x21 PUSH1 0x4 MSTORE PUSH1 0x24 DUP6 REVERT JUMPDEST POP CALLVALUE PUSH2 0x2AC JUMPI PUSH1 0x20 DUP1 PUSH1 0x3 NOT CALLDATASIZE ADD SLT PUSH2 0x444 JUMPI PUSH1 0x4 CALLDATALOAD DUP1 DUP4 MSTORE PUSH1 0x2 DUP3 MSTORE PUSH1 0x40 DUP4 KECCAK256 SWAP2 PUSH1 0xFF PUSH1 0xC DUP5 ADD SLOAD AND PUSH1 0x5 DUP2 LT ISZERO PUSH2 0x26BD JUMPI PUSH1 0x2 PUSH2 0x2710 SWAP2 EQ PUSH2 0x4A89 JUMP JUMPDEST PUSH2 0x271F PUSH1 0xD DUP5 ADD SLOAD ISZERO ISZERO PUSH2 0x4AC8 JUMP JUMPDEST DUP2 DUP5 MSTORE PUSH1 0x3 DUP2 MSTORE PUSH1 0x40 DUP5 KECCAK256 CALLER PUSH1 0x0 MSTORE DUP2 MSTORE PUSH2 0x2741 PUSH1 0xFF PUSH1 0x40 PUSH1 0x0 KECCAK256 SLOAD AND PUSH2 0x4B04 JUMP JUMPDEST PUSH1 0xC SLOAD PUSH1 0x40 MLOAD PUSH4 0x7C7A72D PUSH1 0xE0 SHL DUP2 MSTORE DUP6 SWAP2 PUSH1 0x1 PUSH1 0x1 PUSH1 0xA0 SHL SUB SWAP1 DUP2 AND SWAP2 DUP5 DUP2 DUP1 PUSH2 0x2770 CALLER DUP11 PUSH1 0x4 DUP5 ADD PUSH2 0x4B3F JUMP JUMPDEST SUB DUP2 DUP7 GAS STATICCALL DUP1 ISZERO PUSH2 0x2858 JUMPI DUP5 SWAP1 PUSH2 0x2822 JUMPI JUMPDEST PUSH2 0x278D SWAP2 POP ISZERO PUSH2 0x4B58 JUMP JUMPDEST PUSH1 0x4 PUSH2 0x2799 CALLER DUP8 PUSH2 0x4BB3 JUMP JUMPDEST SWAP7 ADD SLOAD AND SWAP1 DUP1 EXTCODESIZE ISZERO PUSH2 0x16AC JUMPI DUP6 DUP4 SWAP2 PUSH2 0x27CB SWAP4 DUP4 PUSH1 0x40 MLOAD DUP1 SWAP7 DUP2 SWAP6 DUP3 SWAP5 PUSH4 0x2F0041ED PUSH1 0xE1 SHL DUP5 MSTORE CALLER DUP14 PUSH1 0x4 DUP7 ADD PUSH2 0x46F0 JUMP JUMPDEST SUB SWAP3 GAS CALL DUP1 ISZERO PUSH2 0x871 JUMPI PUSH2 0x280A JUMPI JUMPDEST POP POP PUSH32 0x5380CF6FE903B40C6D5A9E0DFBCA2F3A423F0A21520B4D5947ED5169BDBA946D SWAP1 PUSH1 0x40 MLOAD SWAP4 DUP5 MSTORE CALLER SWAP4 LOG3 DUP1 RETURN JUMPDEST PUSH2 0x2813 SWAP1 PUSH2 0x40DA JUMP JUMPDEST PUSH2 0x281E JUMPI DUP4 CODESIZE PUSH2 0x27DA JUMP JUMPDEST DUP4 DUP1 REVERT JUMPDEST POP DUP5 DUP2 DUP2 RETURNDATASIZE DUP4 GT PUSH2 0x2851 JUMPI JUMPDEST PUSH2 0x2838 DUP2 DUP4 PUSH2 0x413F JUMP JUMPDEST DUP2 ADD SUB SLT PUSH2 0x281E JUMPI PUSH2 0x284C PUSH2 0x278D SWAP2 PUSH2 0x4301 JUMP JUMPDEST PUSH2 0x2782 JUMP JUMPDEST POP RETURNDATASIZE PUSH2 0x282E JUMP JUMPDEST PUSH1 0x40 MLOAD RETURNDATASIZE DUP7 DUP3 RETURNDATACOPY RETURNDATASIZE SWAP1 REVERT JUMPDEST POP PUSH2 0x180 CALLDATASIZE PUSH1 0x3 NOT ADD SLT PUSH2 0x2AC JUMPI PUSH1 0x4 CALLDATALOAD SWAP1 PUSH1 0x1 PUSH1 0x1 PUSH1 0x40 SHL SUB DUP3 GT PUSH2 0x2AC JUMPI CALLDATASIZE PUSH1 0x23 DUP4 ADD SLT ISZERO PUSH2 0x2AC JUMPI DUP2 PUSH1 0x4 ADD CALLDATALOAD PUSH2 0x289C DUP2 PUSH2 0x4162 JUMP JUMPDEST SWAP3 PUSH2 0x28AA PUSH1 0x40 MLOAD SWAP5 DUP6 PUSH2 0x413F JUMP JUMPDEST DUP2 DUP5 MSTORE CALLDATASIZE PUSH1 0x24 DUP4 DUP4 ADD ADD GT PUSH2 0x16AC JUMPI DUP2 DUP4 SWAP3 PUSH1 0x24 PUSH1 0x20 SWAP4 ADD DUP4 DUP8 ADD CALLDATACOPY DUP5 ADD ADD MSTORE PUSH1 0x24 CALLDATALOAD ISZERO ISZERO PUSH1 0x24 CALLDATALOAD SUB PUSH2 0x2AC JUMPI PUSH1 0x64 CALLDATALOAD PUSH1 0x1 PUSH1 0x1 PUSH1 0xA0 SHL SUB DUP2 AND SWAP1 SUB PUSH2 0xDD2 JUMPI PUSH1 0x2 PUSH2 0x124 CALLDATALOAD LT ISZERO PUSH2 0x2AC JUMPI PUSH2 0x144 CALLDATALOAD SWAP1 PUSH1 0x1 PUSH1 0x1 PUSH1 0xA0 SHL SUB DUP3 AND DUP3 SUB PUSH2 0xDD2 JUMPI PUSH1 0xD SLOAD PUSH1 0x40 MLOAD PUSH4 0x2B5BA3B9 PUSH1 0xE0 SHL DUP2 MSTORE CALLER PUSH1 0x4 DUP3 ADD MSTORE PUSH1 0x1 PUSH1 0x1 PUSH1 0xA0 SHL SUB SWAP1 SWAP2 AND SWAP1 PUSH1 0x20 DUP2 PUSH1 0x24 DUP2 DUP6 GAS STATICCALL DUP1 ISZERO PUSH2 0x16E5 JUMPI DUP4 SWAP1 PUSH2 0x3624 JUMPI JUMPDEST PUSH2 0x294E SWAP2 POP ISZERO PUSH2 0x430E JUMP JUMPDEST DUP4 MLOAD ISZERO PUSH2 0x35EE JUMPI PUSH1 0x2 PUSH1 0x44 CALLDATALOAD LT ISZERO DUP1 PUSH2 0x35E1 JUMPI JUMPDEST ISZERO PUSH2 0x35AA JUMPI PUSH1 0x84 CALLDATALOAD ISZERO PUSH2 0x3575 JUMPI PUSH1 0xA4 CALLDATALOAD ISZERO PUSH2 0x353E JUMPI PUSH1 0xC4 CALLDATALOAD ISZERO ISZERO DUP1 PUSH2 0x3530 JUMPI JUMPDEST ISZERO PUSH2 0x34F9 JUMPI PUSH2 0x124 CALLDATALOAD ISZERO PUSH2 0x346B JUMPI JUMPDEST PUSH1 0x40 MLOAD PUSH4 0x17916E01 PUSH1 0xE0 SHL DUP2 MSTORE PUSH1 0x20 DUP2 PUSH1 0x4 DUP2 DUP6 GAS STATICCALL SWAP1 DUP2 ISZERO PUSH2 0x16E5 JUMPI DUP4 SWAP2 PUSH2 0x3439 JUMPI JUMPDEST POP PUSH1 0xE4 CALLDATALOAD LT PUSH2 0x3401 JUMPI PUSH1 0xE4 CALLDATALOAD PUSH2 0x104 CALLDATALOAD LT PUSH2 0x33BF JUMPI PUSH1 0x24 CALLDATALOAD ISZERO PUSH2 0x3325 JUMPI PUSH1 0x64 CALLDATALOAD PUSH1 0x1 PUSH1 0x1 PUSH1 0xA0 SHL SUB AND ISZERO PUSH2 0x32E8 JUMPI PUSH1 0x40 MLOAD PUSH4 0x34625613 PUSH1 0xE1 SHL DUP2 MSTORE PUSH1 0x64 CALLDATALOAD PUSH1 0x1 PUSH1 0x1 PUSH1 0xA0 SHL SUB AND PUSH1 0x4 DUP3 ADD MSTORE SWAP1 PUSH1 0x20 SWAP1 DUP3 SWAP1 PUSH1 0x24 SWAP1 DUP3 SWAP1 GAS STATICCALL DUP1 ISZERO PUSH2 0x871 JUMPI DUP3 SWAP1 PUSH2 0x32AD JUMPI JUMPDEST PUSH2 0x2A25 SWAP2 POP PUSH2 0x434C JUMP JUMPDEST PUSH8 0xDE0B6B3A7640000 CALLVALUE LT PUSH2 0x3276 JUMPI PUSH1 0x3C PUSH1 0xE4 CALLDATALOAD MUL PUSH1 0xE4 CALLDATALOAD DUP2 DIV PUSH1 0x3C EQ PUSH1 0xE4 CALLDATALOAD ISZERO OR ISZERO PUSH2 0x3109 JUMPI PUSH2 0x2A56 SWAP1 TIMESTAMP PUSH2 0x4390 JUMP JUMPDEST SWAP1 PUSH2 0x104 CALLDATALOAD PUSH1 0x3C PUSH2 0x104 CALLDATALOAD MUL DIV PUSH1 0x3C EQ PUSH2 0x104 CALLDATALOAD ISZERO OR ISZERO PUSH2 0x3262 JUMPI PUSH2 0x2A81 PUSH1 0x3C PUSH2 0x104 CALLDATALOAD MUL TIMESTAMP PUSH2 0x4390 JUMP JUMPDEST PUSH2 0x124 CALLDATALOAD PUSH2 0x324A JUMPI DUP1 SWAP2 JUMPDEST PUSH1 0x9 SLOAD SWAP5 PUSH2 0x2A99 DUP7 PUSH2 0x43B3 JUMP JUMPDEST PUSH1 0x9 SSTORE PUSH1 0x40 MLOAD SWAP1 PUSH2 0x2AA9 DUP3 PUSH2 0x40ED JUMP JUMPDEST CALLER DUP3 MSTORE DUP8 PUSH1 0x20 DUP4 ADD MSTORE PUSH1 0x24 CALLDATALOAD ISZERO ISZERO PUSH1 0x40 DUP4 ADD MSTORE PUSH1 0x44 CALLDATALOAD PUSH1 0x60 DUP4 ADD MSTORE PUSH1 0x1 DUP1 PUSH1 0xA0 SHL SUB PUSH1 0x64 CALLDATALOAD AND PUSH1 0x80 DUP4 ADD MSTORE PUSH1 0x84 CALLDATALOAD PUSH1 0xA0 DUP4 ADD MSTORE PUSH1 0xA4 CALLDATALOAD PUSH1 0xC0 DUP4 ADD MSTORE PUSH1 0xC4 CALLDATALOAD PUSH1 0xE0 DUP4 ADD MSTORE TIMESTAMP PUSH2 0x100 DUP4 ADD MSTORE DUP6 PUSH2 0x120 DUP4 ADD MSTORE DUP4 PUSH2 0x140 DUP4 ADD MSTORE DUP5 PUSH2 0x160 DUP4 ADD MSTORE DUP3 PUSH2 0x180 DUP4 ADD MSTORE DUP3 PUSH2 0x1A0 DUP4 ADD MSTORE DUP3 PUSH2 0x1C0 DUP4 ADD MSTORE DUP3 PUSH2 0x1E0 DUP4 ADD MSTORE DUP3 PUSH2 0x200 DUP4 ADD MSTORE PUSH2 0x2B3C PUSH2 0x124 CALLDATALOAD PUSH2 0x220 DUP5 ADD PUSH2 0x43C2 JUMP JUMPDEST PUSH1 0x1 PUSH1 0x1 PUSH1 0xA0 SHL SUB SWAP1 DUP2 AND PUSH2 0x240 DUP4 ADD MSTORE PUSH2 0x164 CALLDATALOAD PUSH2 0x260 DUP4 ADD MSTORE PUSH2 0x280 DUP3 ADD DUP4 SWAP1 MSTORE PUSH2 0x2A0 DUP3 ADD DUP4 SWAP1 MSTORE PUSH2 0x2C0 DUP3 ADD DUP4 SWAP1 MSTORE DUP7 DUP4 MSTORE PUSH1 0x2 PUSH1 0x20 SWAP1 DUP2 MSTORE PUSH1 0x40 DUP5 KECCAK256 DUP4 MLOAD DUP2 SLOAD PUSH1 0x1 PUSH1 0x1 PUSH1 0xA0 SHL SUB NOT AND SWAP4 AND SWAP3 SWAP1 SWAP3 OR DUP3 SSTORE DUP3 ADD MLOAD DUP1 MLOAD SWAP2 SWAP3 SWAP2 SWAP1 PUSH1 0x1 PUSH1 0x1 PUSH1 0x40 SHL SUB DUP3 GT PUSH2 0x3236 JUMPI DUP2 SWAP1 PUSH2 0x2BB9 PUSH1 0x1 DUP7 ADD SLOAD PUSH2 0x417D JUMP JUMPDEST PUSH1 0x1F DUP2 GT PUSH2 0x31F8 JUMPI JUMPDEST POP PUSH1 0x20 SWAP1 PUSH1 0x1F DUP4 GT PUSH1 0x1 EQ PUSH2 0x3189 JUMPI DUP7 SWAP3 PUSH2 0x317E JUMPI JUMPDEST POP POP DUP2 PUSH1 0x1 SHL SWAP2 PUSH1 0x0 NOT SWAP1 PUSH1 0x3 SHL SHR NOT AND OR PUSH1 0x1 DUP4 ADD SSTORE JUMPDEST PUSH2 0x2C03 PUSH1 0x40 DUP3 ADD MLOAD ISZERO ISZERO PUSH1 0x2 DUP5 ADD PUSH2 0x43E5 JUMP JUMPDEST PUSH1 0x60 DUP2 ADD MLOAD PUSH1 0x3 DUP4 ADD SSTORE PUSH1 0x4 DUP3 ADD PUSH1 0x1 DUP1 PUSH1 0xA0 SHL SUB PUSH1 0x80 DUP4 ADD MLOAD AND PUSH1 0x1 DUP1 PUSH1 0xA0 SHL SUB NOT DUP3 SLOAD AND OR SWAP1 SSTORE PUSH1 0xA0 DUP2 ADD MLOAD PUSH1 0x5 DUP4 ADD SSTORE PUSH1 0xC0 DUP2 ADD MLOAD PUSH1 0x6 DUP4 ADD SSTORE PUSH1 0xE0 DUP2 ADD MLOAD PUSH1 0x7 DUP4 ADD SSTORE PUSH2 0x100 DUP2 ADD MLOAD PUSH1 0x8 DUP4 ADD SSTORE PUSH2 0x120 DUP2 ADD MLOAD PUSH1 0x9 DUP4 ADD SSTORE PUSH2 0x140 DUP2 ADD MLOAD PUSH1 0xA DUP4 ADD SSTORE PUSH2 0x160 DUP2 ADD MLOAD PUSH1 0xB DUP4 ADD SSTORE PUSH2 0x180 DUP2 ADD MLOAD PUSH1 0x5 DUP2 LT ISZERO PUSH2 0x3CA JUMPI PUSH1 0xFF DUP1 NOT PUSH1 0xC DUP6 ADD SLOAD AND SWAP2 AND OR PUSH1 0xC DUP4 ADD SSTORE PUSH2 0x1A0 DUP2 ADD MLOAD PUSH1 0xD DUP4 ADD SSTORE PUSH2 0x2CB6 PUSH2 0x1C0 DUP3 ADD MLOAD ISZERO ISZERO PUSH1 0xE DUP5 ADD PUSH2 0x43E5 JUMP JUMPDEST PUSH2 0x1E0 DUP2 ADD MLOAD PUSH1 0xF DUP4 ADD SSTORE PUSH2 0x200 DUP2 ADD MLOAD PUSH1 0x10 DUP4 ADD SSTORE PUSH1 0x11 DUP3 ADD PUSH2 0x220 DUP3 ADD MLOAD PUSH1 0x2 DUP2 LT ISZERO PUSH2 0x26BD JUMPI DUP2 SLOAD PUSH2 0x240 DUP5 ADD MLOAD PUSH2 0x100 PUSH1 0x1 PUSH1 0xA8 SHL SUB PUSH1 0x8 SWAP2 SWAP1 SWAP2 SHL AND PUSH1 0xFF SWAP3 SWAP1 SWAP3 AND PUSH1 0x1 PUSH1 0x1 PUSH1 0xA8 SHL SUB NOT SWAP1 SWAP2 AND OR OR SWAP1 SSTORE PUSH2 0x260 DUP2 ADD MLOAD PUSH1 0x12 DUP4 ADD SSTORE PUSH2 0x280 DUP2 ADD MLOAD PUSH1 0x13 DUP4 ADD SSTORE PUSH2 0x2A0 DUP2 ADD MLOAD PUSH1 0x15 SWAP2 PUSH2 0x2C0 SWAP2 PUSH2 0x2D3F SWAP1 ISZERO ISZERO PUSH1 0x14 DUP7 ADD PUSH2 0x43E5 JUMP JUMPDEST ADD MLOAD SWAP2 ADD SSTORE PUSH1 0xA SLOAD PUSH1 0x1 PUSH1 0x40 SHL DUP2 LT ISZERO PUSH2 0x3168 JUMPI PUSH2 0x2D7E PUSH2 0x2D67 DUP3 PUSH1 0x1 DUP10 SWAP5 ADD PUSH1 0xA SSTORE PUSH2 0x4091 JUMP JUMPDEST DUP2 SWAP4 SWAP2 SLOAD SWAP1 PUSH1 0x3 SHL SWAP2 DUP3 SHL SWAP2 PUSH1 0x0 NOT SWAP1 SHL NOT AND OR SWAP1 JUMP JUMPDEST SWAP1 SSTORE DUP5 DUP2 MSTORE PUSH1 0xB PUSH1 0x20 MSTORE PUSH1 0x40 DUP2 KECCAK256 DUP1 SLOAD PUSH1 0xFF NOT AND PUSH1 0x1 OR SWAP1 SSTORE PUSH1 0x64 CALLDATALOAD PUSH1 0x1 PUSH1 0x1 PUSH1 0xA0 SHL SUB AND PUSH2 0x311D JUMPI PUSH1 0xA4 CALLDATALOAD PUSH8 0xDE0B6B3A7640000 ADD DUP1 PUSH8 0xDE0B6B3A7640000 GT PUSH2 0x3109 JUMPI CALLVALUE LT PUSH2 0x30CC JUMPI PUSH2 0x2DF3 DUP2 DUP1 DUP1 DUP1 PUSH8 0xDE0B6B3A7640000 PUSH1 0x1 DUP1 PUSH1 0xA0 SHL SUB DUP3 SLOAD AND GAS CALL PUSH2 0x2DED PUSH2 0x441C JUMP JUMPDEST POP PUSH2 0x444C JUMP JUMPDEST DUP1 DUP1 DUP1 DUP1 PUSH1 0xA4 CALLDATALOAD PUSH1 0x1 DUP1 PUSH1 0xA0 SHL SUB PUSH1 0xC SLOAD AND GAS CALL PUSH2 0x2E0F PUSH2 0x441C JUMP JUMPDEST POP ISZERO PUSH2 0x308D JUMPI JUMPDEST DUP5 DUP2 MSTORE PUSH1 0x3 PUSH1 0x20 MSTORE PUSH1 0x40 DUP2 KECCAK256 CALLER PUSH1 0x0 MSTORE PUSH1 0x20 MSTORE PUSH1 0x40 PUSH1 0x0 KECCAK256 PUSH1 0x1 PUSH1 0xFF NOT DUP3 SLOAD AND OR SWAP1 SSTORE DUP5 DUP2 MSTORE PUSH1 0x5 PUSH1 0x20 MSTORE PUSH1 0x40 DUP2 KECCAK256 CALLER PUSH1 0x0 MSTORE PUSH1 0x20 MSTORE PUSH1 0xC4 CALLDATALOAD PUSH1 0x40 PUSH1 0x0 KECCAK256 SSTORE CALLER DUP2 MSTORE PUSH1 0x8 PUSH1 0x20 MSTORE PUSH2 0x2E6A DUP6 PUSH1 0x40 DUP4 KECCAK256 PUSH2 0x43F6 JUMP JUMPDEST PUSH1 0xC SLOAD PUSH1 0x1 PUSH1 0x1 PUSH1 0xA0 SHL SUB AND DUP1 EXTCODESIZE ISZERO PUSH2 0x444 JUMPI DUP2 PUSH1 0x40 MLOAD DUP1 SWAP3 PUSH4 0x95F41095 PUSH1 0xE0 SHL DUP3 MSTORE DUP2 DUP4 DUP2 PUSH2 0x2EAA PUSH1 0xC4 CALLDATALOAD DUP14 PUSH1 0xA4 CALLDATALOAD SWAP1 PUSH1 0x64 CALLDATALOAD SWAP1 CALLER SWAP1 PUSH1 0x4 DUP8 ADD PUSH2 0x448E JUMP JUMPDEST SUB SWAP3 GAS CALL DUP1 ISZERO PUSH2 0x871 JUMPI SWAP1 DUP3 SWAP2 PUSH2 0x3079 JUMPI JUMPDEST POP POP PUSH1 0xD SLOAD PUSH1 0x40 MLOAD PUSH4 0x406AD645 PUSH1 0xE1 SHL DUP2 MSTORE SWAP1 PUSH1 0x20 SWAP1 DUP3 SWAP1 PUSH1 0x4 SWAP1 DUP3 SWAP1 PUSH1 0x1 PUSH1 0x1 PUSH1 0xA0 SHL SUB AND GAS STATICCALL SWAP1 DUP2 ISZERO PUSH2 0x871 JUMPI DUP3 SWAP2 PUSH2 0x305A JUMPI JUMPDEST POP PUSH1 0x1 PUSH1 0x1 PUSH1 0xA0 SHL SUB DUP2 AND PUSH2 0x2F94 JUMPI JUMPDEST POP POP PUSH1 0x20 SWAP5 DUP5 SWAP3 PUSH32 0x5D0726A1BB5EC8C87527E69BA86D988202E885FAD8F2B4AACD618793D6F297B2 SWAP3 PUSH2 0x2F42 PUSH1 0x40 MLOAD SWAP4 PUSH2 0x120 DUP6 MSTORE PUSH2 0x120 DUP6 ADD SWAP1 PUSH2 0x4280 JUMP JUMPDEST PUSH1 0x24 CALLDATALOAD ISZERO ISZERO DUP5 DUP11 ADD MSTORE PUSH1 0x44 CALLDATALOAD PUSH1 0x40 DUP6 ADD MSTORE PUSH1 0x64 CALLDATALOAD PUSH1 0x1 PUSH1 0x1 PUSH1 0xA0 SHL SUB AND PUSH1 0x60 DUP6 ADD MSTORE PUSH1 0x84 CALLDATALOAD PUSH1 0x80 DUP6 ADD MSTORE TIMESTAMP PUSH1 0xA0 DUP6 ADD MSTORE PUSH1 0xC0 DUP5 ADD SWAP7 SWAP1 SWAP7 MSTORE PUSH1 0xE0 DUP4 ADD MSTORE PUSH2 0x100 DUP3 ADD MSTORE CALLER SWAP4 DUP2 SWAP1 SUB SWAP1 LOG3 PUSH1 0x40 MLOAD SWAP1 DUP2 MSTORE RETURN JUMPDEST PUSH1 0x1 PUSH1 0x1 PUSH1 0xA0 SHL SUB DUP2 AND EXTCODESIZE ISZERO PUSH2 0x444 JUMPI PUSH1 0x40 MLOAD PUSH4 0x782A7805 PUSH1 0xE1 SHL DUP2 MSTORE DUP3 DUP2 DUP1 PUSH2 0x2FC2 CALLER DUP12 PUSH1 0x4 DUP5 ADD PUSH2 0x4B3F JUMP JUMPDEST SUB DUP2 DUP4 PUSH1 0x1 PUSH1 0x1 PUSH1 0xA0 SHL SUB DUP8 AND GAS CALL DUP1 ISZERO PUSH2 0x16E5 JUMPI SWAP1 DUP4 SWAP2 PUSH2 0x3046 JUMPI JUMPDEST POP POP PUSH1 0x1 PUSH1 0x1 PUSH1 0xA0 SHL SUB DUP2 AND EXTCODESIZE ISZERO PUSH2 0x444 JUMPI PUSH1 0x40 MLOAD PUSH4 0xC228038D PUSH1 0xE0 SHL DUP2 MSTORE SWAP1 DUP3 SWAP1 DUP3 SWAP1 DUP2 DUP4 DUP2 PUSH2 0x301A PUSH1 0xA4 CALLDATALOAD PUSH1 0xC4 CALLDATALOAD CALLER DUP16 PUSH1 0x4 DUP7 ADD PUSH2 0x51D0 JUMP JUMPDEST SUB SWAP3 PUSH1 0x1 PUSH1 0x1 PUSH1 0xA0 SHL SUB AND GAS CALL DUP1 ISZERO PUSH2 0x871 JUMPI ISZERO PUSH2 0x2F02 JUMPI PUSH2 0x303C DUP3 SWAP2 PUSH2 0x40DA JUMP JUMPDEST PUSH2 0x2AC JUMPI DUP1 PUSH2 0x2F02 JUMP JUMPDEST PUSH2 0x304F SWAP1 PUSH2 0x40DA JUMP JUMPDEST PUSH2 0x444 JUMPI DUP2 CODESIZE PUSH2 0x2FDF JUMP JUMPDEST PUSH2 0x3073 SWAP2 POP PUSH1 0x20 RETURNDATASIZE PUSH1 0x20 GT PUSH2 0x8A6 JUMPI PUSH2 0x897 DUP2 DUP4 PUSH2 0x413F JUMP JUMPDEST CODESIZE PUSH2 0x2EF2 JUMP JUMPDEST PUSH2 0x3082 SWAP1 PUSH2 0x40DA JUMP JUMPDEST PUSH2 0x2AC JUMPI DUP1 CODESIZE PUSH2 0x2EBC JUMP JUMPDEST PUSH1 0x40 MLOAD PUSH3 0x461BCD PUSH1 0xE5 SHL DUP2 MSTORE PUSH1 0x20 PUSH1 0x4 DUP3 ADD MSTORE PUSH1 0x17 PUSH1 0x24 DUP3 ADD MSTORE PUSH23 0x11540E8819195C1BDCDA5D081CD95B990819985A5B1959 PUSH1 0x4A SHL PUSH1 0x44 DUP3 ADD MSTORE PUSH1 0x64 SWAP1 REVERT JUMPDEST PUSH1 0x40 MLOAD PUSH3 0x461BCD PUSH1 0xE5 SHL DUP2 MSTORE PUSH1 0x20 PUSH1 0x4 DUP3 ADD MSTORE PUSH1 0x15 PUSH1 0x24 DUP3 ADD MSTORE PUSH21 0x45503A20696E73756666696369656E742050455055 PUSH1 0x58 SHL PUSH1 0x44 DUP3 ADD MSTORE PUSH1 0x64 SWAP1 REVERT JUMPDEST PUSH4 0x4E487B71 PUSH1 0xE0 SHL DUP3 MSTORE PUSH1 0x11 PUSH1 0x4 MSTORE PUSH1 0x24 DUP3 REVERT JUMPDEST PUSH2 0x3141 DUP2 DUP1 DUP1 DUP1 PUSH8 0xDE0B6B3A7640000 PUSH1 0x1 DUP1 PUSH1 0xA0 SHL SUB DUP3 SLOAD AND GAS CALL PUSH2 0x2DED PUSH2 0x441C JUMP JUMPDEST PUSH1 0xC SLOAD PUSH2 0x3163 SWAP1 PUSH1 0xA4 CALLDATALOAD SWAP1 PUSH1 0x1 PUSH1 0x1 PUSH1 0xA0 SHL SUB SWAP1 DUP2 AND SWAP1 CALLER SWAP1 PUSH1 0x64 CALLDATALOAD AND PUSH2 0x44E0 JUMP JUMPDEST PUSH2 0x2E16 JUMP JUMPDEST PUSH4 0x4E487B71 PUSH1 0xE0 SHL PUSH1 0x0 MSTORE PUSH1 0x41 PUSH1 0x4 MSTORE PUSH1 0x24 PUSH1 0x0 REVERT JUMPDEST ADD MLOAD SWAP1 POP CODESIZE DUP1 PUSH2 0x2BD8 JUMP JUMPDEST SWAP3 POP PUSH1 0x1 DUP6 ADD DUP7 MSTORE PUSH1 0x20 DUP7 KECCAK256 SWAP1 DUP7 SWAP4 JUMPDEST PUSH1 0x1F NOT DUP5 AND DUP6 LT PUSH2 0x31DD JUMPI PUSH1 0x1 SWAP5 POP DUP4 PUSH1 0x1F NOT DUP2 AND LT PUSH2 0x31C4 JUMPI JUMPDEST POP POP POP DUP2 SHL ADD PUSH1 0x1 DUP4 ADD SSTORE PUSH2 0x2BF0 JUMP JUMPDEST ADD MLOAD PUSH1 0x0 NOT PUSH1 0xF8 DUP5 PUSH1 0x3 SHL AND SHR NOT AND SWAP1 SSTORE CODESIZE DUP1 DUP1 PUSH2 0x31B4 JUMP JUMPDEST DUP2 DUP2 ADD MLOAD DUP4 SSTORE PUSH1 0x20 SWAP5 DUP6 ADD SWAP5 PUSH1 0x1 SWAP1 SWAP4 ADD SWAP3 SWAP1 SWAP2 ADD SWAP1 PUSH2 0x3199 JUMP JUMPDEST PUSH2 0x3226 SWAP1 PUSH1 0x1 DUP8 ADD DUP9 MSTORE PUSH1 0x20 DUP9 KECCAK256 PUSH1 0x1F DUP6 ADD PUSH1 0x5 SHR DUP2 ADD SWAP2 PUSH1 0x20 DUP7 LT PUSH2 0x322C JUMPI JUMPDEST PUSH1 0x1F ADD PUSH1 0x5 SHR ADD SWAP1 PUSH2 0x43CE JUMP JUMPDEST CODESIZE PUSH2 0x2BC2 JUMP JUMPDEST SWAP1 SWAP2 POP DUP2 SWAP1 PUSH2 0x3219 JUMP JUMPDEST PUSH4 0x4E487B71 PUSH1 0xE0 SHL DUP6 MSTORE PUSH1 0x41 PUSH1 0x4 MSTORE PUSH1 0x24 DUP6 REVERT JUMPDEST PUSH3 0x1A5E0 DUP2 ADD DUP2 GT PUSH2 0x3109 JUMPI PUSH3 0x1A5E0 DUP2 ADD SWAP2 PUSH2 0x2A8C JUMP JUMPDEST PUSH4 0x4E487B71 PUSH1 0xE0 SHL DUP2 MSTORE PUSH1 0x11 PUSH1 0x4 MSTORE PUSH1 0x24 SWAP1 REVERT JUMPDEST PUSH1 0x40 MLOAD PUSH3 0x461BCD PUSH1 0xE5 SHL DUP2 MSTORE PUSH1 0x20 PUSH1 0x4 DUP3 ADD MSTORE PUSH1 0xF PUSH1 0x24 DUP3 ADD MSTORE PUSH15 0x45503A2066656520746F6F206C6F77 PUSH1 0x88 SHL PUSH1 0x44 DUP3 ADD MSTORE PUSH1 0x64 SWAP1 REVERT JUMPDEST POP PUSH1 0x20 DUP2 RETURNDATASIZE PUSH1 0x20 GT PUSH2 0x32E0 JUMPI JUMPDEST DUP2 PUSH2 0x32C7 PUSH1 0x20 SWAP4 DUP4 PUSH2 0x413F JUMP JUMPDEST DUP2 ADD SUB SLT PUSH2 0x444 JUMPI PUSH2 0x32DB PUSH2 0x2A25 SWAP2 PUSH2 0x4301 JUMP JUMPDEST PUSH2 0x2A1B JUMP JUMPDEST RETURNDATASIZE SWAP2 POP PUSH2 0x32BA JUMP JUMPDEST PUSH1 0x40 MLOAD PUSH3 0x461BCD PUSH1 0xE5 SHL DUP2 MSTORE PUSH1 0x20 PUSH1 0x4 DUP3 ADD MSTORE PUSH1 0x15 PUSH1 0x24 DUP3 ADD MSTORE PUSH21 0x22A81D1036BAB63A34903732B2B239903A37B5B2B7 PUSH1 0x59 SHL PUSH1 0x44 DUP3 ADD MSTORE PUSH1 0x64 SWAP1 REVERT JUMPDEST PUSH1 0x64 CALLDATALOAD PUSH1 0x1 PUSH1 0x1 PUSH1 0xA0 SHL SUB AND PUSH2 0x333C JUMPI JUMPDEST POP PUSH2 0x2A25 JUMP JUMPDEST PUSH1 0x40 MLOAD PUSH4 0x34625613 PUSH1 0xE1 SHL DUP2 MSTORE PUSH1 0x64 CALLDATALOAD PUSH1 0x1 PUSH1 0x1 PUSH1 0xA0 SHL SUB AND PUSH1 0x4 DUP3 ADD MSTORE SWAP1 PUSH1 0x20 SWAP1 DUP3 SWAP1 PUSH1 0x24 SWAP1 DUP3 SWAP1 GAS STATICCALL DUP1 ISZERO PUSH2 0x871 JUMPI DUP3 SWAP1 PUSH2 0x3384 JUMPI JUMPDEST PUSH2 0x337E SWAP2 POP PUSH2 0x434C JUMP JUMPDEST CODESIZE PUSH2 0x3336 JUMP JUMPDEST POP PUSH1 0x20 DUP2 RETURNDATASIZE PUSH1 0x20 GT PUSH2 0x33B7 JUMPI JUMPDEST DUP2 PUSH2 0x339E PUSH1 0x20 SWAP4 DUP4 PUSH2 0x413F JUMP JUMPDEST DUP2 ADD SUB SLT PUSH2 0x444 JUMPI PUSH2 0x33B2 PUSH2 0x337E SWAP2 PUSH2 0x4301 JUMP JUMPDEST PUSH2 0x3374 JUMP JUMPDEST RETURNDATASIZE SWAP2 POP PUSH2 0x3391 JUMP JUMPDEST PUSH1 0x40 MLOAD PUSH3 0x461BCD PUSH1 0xE5 SHL DUP2 MSTORE PUSH1 0x20 PUSH1 0x4 DUP3 ADD MSTORE PUSH1 0x1A PUSH1 0x24 DUP3 ADD MSTORE PUSH26 0x45503A207265736F6C7574696F6E206166746572207374616B65 PUSH1 0x30 SHL PUSH1 0x44 DUP3 ADD MSTORE PUSH1 0x64 SWAP1 REVERT JUMPDEST PUSH1 0x40 MLOAD PUSH3 0x461BCD PUSH1 0xE5 SHL DUP2 MSTORE PUSH1 0x20 PUSH1 0x4 DUP3 ADD MSTORE PUSH1 0x10 PUSH1 0x24 DUP3 ADD MSTORE PUSH16 0x22A81D1036B4B710323AB930BA34B7B7 PUSH1 0x81 SHL PUSH1 0x44 DUP3 ADD MSTORE PUSH1 0x64 SWAP1 REVERT JUMPDEST SWAP1 POP PUSH1 0x20 DUP2 RETURNDATASIZE PUSH1 0x20 GT PUSH2 0x3463 JUMPI JUMPDEST DUP2 PUSH2 0x3454 PUSH1 0x20 SWAP4 DUP4 PUSH2 0x413F JUMP JUMPDEST DUP2 ADD SUB SLT PUSH2 0xDD2 JUMPI MLOAD CODESIZE PUSH2 0x29B5 JUMP JUMPDEST RETURNDATASIZE SWAP2 POP PUSH2 0x3447 JUMP JUMPDEST PUSH1 0x1 PUSH1 0x1 PUSH1 0xA0 SHL SUB DUP4 AND ISZERO PUSH2 0x34C0 JUMPI PUSH2 0x164 CALLDATALOAD PUSH2 0x2991 JUMPI PUSH1 0x40 MLOAD PUSH3 0x461BCD PUSH1 0xE5 SHL DUP2 MSTORE PUSH1 0x20 PUSH1 0x4 DUP3 ADD MSTORE PUSH1 0x16 PUSH1 0x24 DUP3 ADD MSTORE PUSH22 0x11540E881D1A1C995CDA1BDB19081C995C5D5A5C9959 PUSH1 0x52 SHL PUSH1 0x44 DUP3 ADD MSTORE PUSH1 0x64 SWAP1 REVERT JUMPDEST PUSH1 0x40 MLOAD PUSH3 0x461BCD PUSH1 0xE5 SHL DUP2 MSTORE PUSH1 0x20 PUSH1 0x4 DUP3 ADD MSTORE PUSH1 0x11 PUSH1 0x24 DUP3 ADD MSTORE PUSH17 0x11540E8819995959081C995C5D5A5C9959 PUSH1 0x7A SHL PUSH1 0x44 DUP3 ADD MSTORE PUSH1 0x64 SWAP1 REVERT JUMPDEST PUSH1 0x40 MLOAD PUSH3 0x461BCD PUSH1 0xE5 SHL DUP2 MSTORE PUSH1 0x20 PUSH1 0x4 DUP3 ADD MSTORE PUSH1 0xF PUSH1 0x24 DUP3 ADD MSTORE PUSH15 0x45503A20626164206F7574636F6D65 PUSH1 0x88 SHL PUSH1 0x44 DUP3 ADD MSTORE PUSH1 0x64 SWAP1 REVERT JUMPDEST POP PUSH1 0x44 CALLDATALOAD PUSH1 0xC4 CALLDATALOAD GT ISZERO PUSH2 0x2982 JUMP JUMPDEST PUSH1 0x40 MLOAD PUSH3 0x461BCD PUSH1 0xE5 SHL DUP2 MSTORE PUSH1 0x20 PUSH1 0x4 DUP3 ADD MSTORE PUSH1 0xF PUSH1 0x24 DUP3 ADD MSTORE PUSH15 0x11540E881898590819195C1BDCDA5D PUSH1 0x8A SHL PUSH1 0x44 DUP3 ADD MSTORE PUSH1 0x64 SWAP1 REVERT JUMPDEST PUSH1 0x40 MLOAD PUSH3 0x461BCD PUSH1 0xE5 SHL DUP2 MSTORE PUSH1 0x20 PUSH1 0x4 DUP3 ADD MSTORE PUSH1 0xD PUSH1 0x24 DUP3 ADD MSTORE PUSH13 0x45503A20626164207374616B65 PUSH1 0x98 SHL PUSH1 0x44 DUP3 ADD MSTORE PUSH1 0x64 SWAP1 REVERT JUMPDEST PUSH1 0x40 MLOAD PUSH3 0x461BCD PUSH1 0xE5 SHL DUP2 MSTORE PUSH1 0x20 PUSH1 0x4 DUP3 ADD MSTORE PUSH1 0xF PUSH1 0x24 DUP3 ADD MSTORE PUSH15 0x45503A20626164206F7074696F6E73 PUSH1 0x88 SHL PUSH1 0x44 DUP3 ADD MSTORE PUSH1 0x64 SWAP1 REVERT JUMPDEST POP PUSH1 0xA PUSH1 0x44 CALLDATALOAD GT ISZERO PUSH2 0x2962 JUMP JUMPDEST PUSH1 0x40 MLOAD PUSH3 0x461BCD PUSH1 0xE5 SHL DUP2 MSTORE PUSH1 0x20 PUSH1 0x4 DUP3 ADD MSTORE PUSH1 0xE PUSH1 0x24 DUP3 ADD MSTORE PUSH14 0x8AA07440CADAE0E8F240D0C2E6D PUSH1 0x93 SHL PUSH1 0x44 DUP3 ADD MSTORE PUSH1 0x64 SWAP1 REVERT JUMPDEST POP PUSH1 0x20 DUP2 RETURNDATASIZE PUSH1 0x20 GT PUSH2 0x3657 JUMPI JUMPDEST DUP2 PUSH2 0x363E PUSH1 0x20 SWAP4 DUP4 PUSH2 0x413F JUMP JUMPDEST DUP2 ADD SUB SLT PUSH2 0x16AC JUMPI PUSH2 0x3652 PUSH2 0x294E SWAP2 PUSH2 0x4301 JUMP JUMPDEST PUSH2 0x2943 JUMP JUMPDEST RETURNDATASIZE SWAP2 POP PUSH2 0x3631 JUMP JUMPDEST POP CALLVALUE PUSH2 0x2AC JUMPI DUP1 PUSH1 0x3 NOT CALLDATASIZE ADD SLT PUSH2 0x2AC JUMPI PUSH1 0xC SLOAD PUSH1 0x40 MLOAD PUSH1 0x1 PUSH1 0x1 PUSH1 0xA0 SHL SUB SWAP1 SWAP2 AND DUP2 MSTORE PUSH1 0x20 SWAP1 RETURN JUMPDEST POP CALLVALUE PUSH2 0x2AC JUMPI PUSH1 0x20 DUP1 PUSH1 0x3 NOT CALLDATASIZE ADD SLT PUSH2 0x444 JUMPI PUSH1 0x4 CALLDATALOAD DUP1 DUP4 MSTORE PUSH1 0x2 DUP3 MSTORE PUSH1 0x40 DUP4 KECCAK256 SWAP2 PUSH1 0xFF PUSH1 0xC DUP5 ADD SLOAD AND PUSH1 0x5 DUP2 LT ISZERO PUSH2 0x26BD JUMPI PUSH1 0x3 SUB PUSH2 0x39A7 JUMPI DUP2 DUP5 MSTORE PUSH1 0x3 DUP2 MSTORE PUSH1 0x40 DUP5 KECCAK256 CALLER PUSH1 0x0 MSTORE DUP2 MSTORE PUSH1 0xFF PUSH1 0x40 PUSH1 0x0 KECCAK256 SLOAD AND DUP1 ISZERO PUSH2 0x3987 JUMPI JUMPDEST ISZERO PUSH2 0x394B JUMPI DUP4 SWAP3 DUP3 DUP6 MSTORE PUSH1 0x3 DUP3 MSTORE PUSH1 0x40 DUP6 KECCAK256 CALLER PUSH1 0x0 MSTORE DUP3 MSTORE PUSH1 0xFF PUSH1 0x40 PUSH1 0x0 KECCAK256 SLOAD AND PUSH2 0x38A5 JUMPI JUMPDEST DUP3 DUP6 MSTORE PUSH1 0x4 DUP3 MSTORE PUSH1 0x40 DUP6 KECCAK256 CALLER PUSH1 0x0 MSTORE DUP3 MSTORE PUSH1 0xFF PUSH1 0x40 PUSH1 0x0 KECCAK256 SLOAD AND PUSH2 0x37FD JUMPI JUMPDEST DUP4 ISZERO PUSH2 0x37C6 JUMPI PUSH1 0xC SLOAD PUSH1 0x4 SWAP1 SWAP2 ADD SLOAD DUP6 SWAP2 PUSH1 0x1 PUSH1 0x1 PUSH1 0xA0 SHL SUB SWAP2 DUP3 AND SWAP2 AND DUP1 EXTCODESIZE ISZERO PUSH2 0x16AC JUMPI DUP6 DUP4 SWAP2 PUSH2 0x3773 SWAP4 DUP4 PUSH1 0x40 MLOAD DUP1 SWAP7 DUP2 SWAP6 DUP3 SWAP5 PUSH4 0x164FCD7D PUSH1 0xE2 SHL DUP5 MSTORE CALLER DUP14 PUSH1 0x4 DUP7 ADD PUSH2 0x46F0 JUMP JUMPDEST SUB SWAP3 GAS CALL DUP1 ISZERO PUSH2 0x871 JUMPI PUSH2 0x37B2 JUMPI JUMPDEST POP POP PUSH32 0xF3F402280EF0A7905E124AA621B65EAEB2725C343E8B36D398ED78C29DAF285C SWAP1 PUSH1 0x40 MLOAD SWAP4 DUP5 MSTORE CALLER SWAP4 LOG3 DUP1 RETURN JUMPDEST PUSH2 0x37BB SWAP1 PUSH2 0x40DA JUMP JUMPDEST PUSH2 0x281E JUMPI DUP4 CODESIZE PUSH2 0x3782 JUMP JUMPDEST PUSH1 0x40 MLOAD PUSH3 0x461BCD PUSH1 0xE5 SHL DUP2 MSTORE PUSH1 0x4 DUP2 ADD DUP4 SWAP1 MSTORE PUSH1 0xF PUSH1 0x24 DUP3 ADD MSTORE PUSH15 0x11540E881E995C9BC81C99599D5B99 PUSH1 0x8A SHL PUSH1 0x44 DUP3 ADD MSTORE PUSH1 0x64 SWAP1 REVERT JUMPDEST SWAP3 PUSH2 0x3834 SWAP1 DUP3 PUSH1 0x1 DUP1 PUSH1 0xA0 SHL SUB DUP1 PUSH1 0xC SLOAD AND SWAP1 PUSH1 0x4 DUP9 ADD SLOAD AND SWAP1 PUSH1 0x40 MLOAD DUP1 DUP1 SWAP7 DUP2 SWAP5 PUSH4 0x256BA741 PUSH1 0xE0 SHL DUP4 MSTORE CALLER DUP12 PUSH1 0x4 DUP6 ADD PUSH2 0x4744 JUMP JUMPDEST SUB SWAP2 GAS STATICCALL SWAP1 DUP2 ISZERO PUSH2 0x5E4 JUMPI DUP7 SWAP2 PUSH2 0x3874 JUMPI JUMPDEST PUSH2 0x3850 SWAP3 POP PUSH2 0x4390 JUMP JUMPDEST SWAP3 DUP3 DUP6 MSTORE PUSH1 0x4 DUP3 MSTORE PUSH1 0x40 DUP6 KECCAK256 CALLER PUSH1 0x0 MSTORE DUP3 MSTORE PUSH1 0x40 PUSH1 0x0 KECCAK256 PUSH1 0xFF NOT DUP2 SLOAD AND SWAP1 SSTORE PUSH2 0x3728 JUMP JUMPDEST SWAP1 POP DUP3 DUP3 DUP2 RETURNDATASIZE DUP4 GT PUSH2 0x389E JUMPI JUMPDEST PUSH2 0x388B DUP2 DUP4 PUSH2 0x413F JUMP JUMPDEST DUP2 ADD SUB SLT PUSH2 0xDD2 JUMPI PUSH2 0x3850 SWAP2 MLOAD SWAP1 PUSH2 0x3846 JUMP JUMPDEST POP RETURNDATASIZE PUSH2 0x3881 JUMP JUMPDEST SWAP3 POP PUSH2 0x38DC DUP2 PUSH1 0x1 DUP1 PUSH1 0xA0 SHL SUB DUP1 PUSH1 0xC SLOAD AND SWAP1 PUSH1 0x4 DUP8 ADD SLOAD AND SWAP1 PUSH1 0x40 MLOAD DUP1 DUP1 SWAP6 DUP2 SWAP5 PUSH4 0x423E7BC1 PUSH1 0xE1 SHL DUP4 MSTORE CALLER DUP11 PUSH1 0x4 DUP6 ADD PUSH2 0x4744 JUMP JUMPDEST SUB SWAP2 GAS STATICCALL SWAP1 DUP2 ISZERO PUSH2 0x3940 JUMPI DUP6 SWAP2 PUSH2 0x3913 JUMPI JUMPDEST POP SWAP3 DUP3 DUP6 MSTORE PUSH1 0x3 DUP3 MSTORE PUSH1 0x40 DUP6 KECCAK256 CALLER PUSH1 0x0 MSTORE DUP3 MSTORE PUSH1 0x40 PUSH1 0x0 KECCAK256 PUSH1 0xFF NOT DUP2 SLOAD AND SWAP1 SSTORE PUSH2 0x3709 JUMP JUMPDEST SWAP1 POP DUP2 DUP2 DUP2 RETURNDATASIZE DUP4 GT PUSH2 0x3939 JUMPI JUMPDEST PUSH2 0x392A DUP2 DUP4 PUSH2 0x413F JUMP JUMPDEST DUP2 ADD SUB SLT PUSH2 0xDD2 JUMPI MLOAD CODESIZE PUSH2 0x38EE JUMP JUMPDEST POP RETURNDATASIZE PUSH2 0x3920 JUMP JUMPDEST PUSH1 0x40 MLOAD RETURNDATASIZE DUP8 DUP3 RETURNDATACOPY RETURNDATASIZE SWAP1 REVERT JUMPDEST PUSH1 0x64 SWAP1 PUSH1 0x40 MLOAD SWAP1 PUSH3 0x461BCD PUSH1 0xE5 SHL DUP3 MSTORE PUSH1 0x4 DUP3 ADD MSTORE PUSH1 0x15 PUSH1 0x24 DUP3 ADD MSTORE PUSH21 0x11540E881B9BDD1A1A5B99C81D1BC81C99599D5B99 PUSH1 0x5A SHL PUSH1 0x44 DUP3 ADD MSTORE REVERT JUMPDEST POP DUP2 DUP5 MSTORE PUSH1 0x4 DUP2 MSTORE PUSH1 0x40 DUP5 KECCAK256 CALLER PUSH1 0x0 MSTORE DUP2 MSTORE PUSH1 0xFF PUSH1 0x40 PUSH1 0x0 KECCAK256 SLOAD AND PUSH2 0x36E3 JUMP JUMPDEST PUSH1 0x64 SWAP1 PUSH1 0x40 MLOAD SWAP1 PUSH3 0x461BCD PUSH1 0xE5 SHL DUP3 MSTORE PUSH1 0x4 DUP3 ADD MSTORE PUSH1 0x11 PUSH1 0x24 DUP3 ADD MSTORE PUSH17 0x11540E881B9BDD0818D85B98D95B1B1959 PUSH1 0x7A SHL PUSH1 0x44 DUP3 ADD MSTORE REVERT JUMPDEST POP CALLVALUE PUSH2 0x2AC JUMPI PUSH1 0x20 CALLDATASIZE PUSH1 0x3 NOT ADD SLT PUSH2 0x2AC JUMPI PUSH1 0x4 CALLDATALOAD DUP1 DUP3 MSTORE PUSH1 0x2 PUSH1 0x20 MSTORE PUSH1 0x40 DUP3 KECCAK256 PUSH1 0xFF PUSH1 0x11 DUP3 ADD SLOAD AND PUSH1 0x2 DUP2 LT ISZERO PUSH2 0x3CA JUMPI PUSH1 0x1 PUSH2 0x3A1D SWAP2 EQ PUSH2 0x47F7 JUMP JUMPDEST PUSH2 0x3A2D PUSH1 0xFF PUSH1 0x14 DUP4 ADD SLOAD AND PUSH2 0x4A4A JUMP JUMPDEST DUP3 PUSH1 0x13 PUSH1 0x1 DUP1 PUSH1 0xA0 SHL SUB PUSH1 0xE SLOAD AND SWAP3 ADD SWAP2 DUP3 SLOAD DUP2 EXTCODESIZE ISZERO PUSH2 0x16AC JUMPI DUP3 SWAP2 PUSH1 0x24 DUP4 SWAP3 PUSH1 0x40 MLOAD SWAP5 DUP6 SWAP4 DUP5 SWAP3 PUSH4 0x4124BEEF PUSH1 0xE0 SHL DUP5 MSTORE PUSH1 0x4 DUP5 ADD MSTORE GAS CALL DUP1 ISZERO PUSH2 0x871 JUMPI PUSH2 0x3A9C JUMPI JUMPDEST POP POP SLOAD SWAP1 PUSH32 0x49C1C3ECA1FFDB1B59F7205CE06F2461ACE420050F9AD1B4B6B55F4A0F2E526 DUP4 DUP1 LOG3 DUP1 RETURN JUMPDEST PUSH2 0x3AA5 SWAP1 PUSH2 0x40DA JUMP JUMPDEST PUSH2 0x16AC JUMPI DUP3 CODESIZE PUSH2 0x3A71 JUMP JUMPDEST POP CALLVALUE PUSH2 0x2AC JUMPI DUP1 PUSH1 0x3 NOT CALLDATASIZE ADD SLT PUSH2 0x2AC JUMPI PUSH1 0x20 PUSH1 0x40 MLOAD PUSH2 0x1F4 DUP2 MSTORE RETURN JUMPDEST POP CALLVALUE PUSH2 0x2AC JUMPI PUSH1 0x40 CALLDATASIZE PUSH1 0x3 NOT ADD SLT PUSH2 0x2AC JUMPI PUSH2 0xD8C SWAP1 PUSH1 0x20 PUSH2 0x3AED PUSH2 0x4030 JUMP JUMPDEST PUSH1 0x1 DUP1 PUSH1 0xA0 SHL SUB PUSH1 0xC SLOAD AND PUSH1 0x40 MLOAD DUP1 DUP1 SWAP7 DUP2 SWAP5 PUSH4 0x4F44289D PUSH1 0xE0 SHL DUP4 MSTORE PUSH1 0x4 CALLDATALOAD PUSH1 0x4 DUP5 ADD PUSH2 0x4B3F JUMP JUMPDEST POP CALLVALUE PUSH2 0x2AC JUMPI DUP1 PUSH1 0x3 NOT CALLDATASIZE ADD SLT PUSH2 0x2AC JUMPI PUSH1 0x20 PUSH1 0x9 SLOAD PUSH1 0x40 MLOAD SWAP1 DUP2 MSTORE RETURN JUMPDEST POP CALLVALUE PUSH2 0x2AC JUMPI PUSH1 0x20 DUP1 PUSH1 0x3 NOT CALLDATASIZE ADD SLT PUSH2 0x444 JUMPI PUSH1 0x4 CALLDATALOAD DUP1 DUP4 MSTORE PUSH1 0x2 DUP3 MSTORE PUSH1 0x40 DUP4 KECCAK256 PUSH1 0x4 DUP4 MSTORE PUSH1 0x40 DUP5 KECCAK256 CALLER DUP6 MSTORE DUP4 MSTORE PUSH1 0xFF PUSH1 0x40 DUP6 KECCAK256 SLOAD AND ISZERO PUSH2 0x3D7A JUMPI PUSH1 0xFF PUSH1 0xC DUP3 ADD SLOAD AND PUSH1 0x5 DUP2 LT ISZERO PUSH2 0x26BD JUMPI DUP1 PUSH2 0x3D1F JUMPI POP PUSH1 0x9 DUP2 ADD SLOAD PUSH2 0xA8BF NOT DUP2 ADD SWAP1 DUP2 GT PUSH2 0x3D0B JUMPI TIMESTAMP LT ISZERO PUSH2 0x3CCB JUMPI JUMPDEST PUSH1 0x1 DUP1 PUSH1 0xA0 SHL SUB PUSH1 0x4 DUP2 PUSH1 0xC SLOAD AND SWAP3 ADD SLOAD AND SWAP1 PUSH1 0x40 MLOAD SWAP1 PUSH4 0x256BA741 PUSH1 0xE0 SHL DUP3 MSTORE DUP5 DUP3 DUP1 PUSH2 0x3BD3 DUP7 CALLER DUP10 PUSH1 0x4 DUP6 ADD PUSH2 0x4744 JUMP JUMPDEST SUB DUP2 DUP5 GAS STATICCALL SWAP2 DUP3 ISZERO PUSH2 0x5E4 JUMPI DUP7 SWAP3 PUSH2 0x3C9C JUMPI JUMPDEST POP DUP2 ISZERO PUSH2 0x3C5D JUMPI SWAP1 DUP2 DUP7 SWAP3 EXTCODESIZE ISZERO PUSH2 0x16AC JUMPI PUSH2 0x3C1A SWAP4 DUP4 PUSH1 0x40 MLOAD DUP1 SWAP7 DUP2 SWAP6 DUP3 SWAP5 PUSH4 0x17BE0B2F PUSH1 0xE1 SHL DUP5 MSTORE CALLER DUP12 PUSH1 0x4 DUP7 ADD PUSH2 0x46F0 JUMP JUMPDEST SUB SWAP3 GAS CALL DUP1 ISZERO PUSH2 0x2858 JUMPI PUSH2 0x3C4A JUMPI JUMPDEST POP DUP3 MSTORE PUSH1 0x4 DUP2 MSTORE PUSH1 0x40 DUP3 KECCAK256 SWAP1 CALLER PUSH1 0x0 MSTORE MSTORE PUSH1 0x40 PUSH1 0x0 KECCAK256 PUSH1 0xFF NOT DUP2 SLOAD AND SWAP1 SSTORE DUP1 RETURN JUMPDEST PUSH2 0x3C56 SWAP1 SWAP4 SWAP2 SWAP4 PUSH2 0x40DA JUMP JUMPDEST SWAP2 CODESIZE PUSH2 0x3C29 JUMP JUMPDEST PUSH1 0x40 MLOAD PUSH3 0x461BCD PUSH1 0xE5 SHL DUP2 MSTORE PUSH1 0x4 DUP2 ADD DUP7 SWAP1 MSTORE PUSH1 0x17 PUSH1 0x24 DUP3 ADD MSTORE PUSH23 0x45503A206E6F7468696E6720746F207769746864726177 PUSH1 0x48 SHL PUSH1 0x44 DUP3 ADD MSTORE PUSH1 0x64 SWAP1 REVERT JUMPDEST SWAP1 SWAP2 POP DUP5 DUP2 DUP2 RETURNDATASIZE DUP4 GT PUSH2 0x3CC4 JUMPI JUMPDEST PUSH2 0x3CB4 DUP2 DUP4 PUSH2 0x413F JUMP JUMPDEST DUP2 ADD SUB SLT PUSH2 0x5D9 JUMPI MLOAD SWAP1 CODESIZE PUSH2 0x3BE6 JUMP JUMPDEST POP RETURNDATASIZE PUSH2 0x3CAA JUMP JUMPDEST PUSH1 0x40 MLOAD PUSH3 0x461BCD PUSH1 0xE5 SHL DUP2 MSTORE PUSH1 0x4 DUP2 ADD DUP5 SWAP1 MSTORE PUSH1 0x18 PUSH1 0x24 DUP3 ADD MSTORE PUSH24 0x45503A20746F6F206C61746520746F207769746864726177 PUSH1 0x40 SHL PUSH1 0x44 DUP3 ADD MSTORE PUSH1 0x64 SWAP1 REVERT JUMPDEST PUSH4 0x4E487B71 PUSH1 0xE0 SHL DUP6 MSTORE PUSH1 0x11 PUSH1 0x4 MSTORE PUSH1 0x24 DUP6 REVERT JUMPDEST PUSH1 0x4 DUP2 EQ SWAP1 DUP2 ISZERO PUSH2 0x3D6F JUMPI JUMPDEST POP PUSH2 0x3BA0 JUMPI PUSH1 0x40 MLOAD PUSH3 0x461BCD PUSH1 0xE5 SHL DUP2 MSTORE PUSH1 0x4 DUP2 ADD DUP5 SWAP1 MSTORE PUSH1 0x17 PUSH1 0x24 DUP3 ADD MSTORE PUSH23 0x45503A2063616E6E6F74207769746864726177206E6F77 PUSH1 0x48 SHL PUSH1 0x44 DUP3 ADD MSTORE PUSH1 0x64 SWAP1 REVERT JUMPDEST PUSH1 0x3 SWAP2 POP EQ CODESIZE PUSH2 0x3D2B JUMP JUMPDEST PUSH1 0x40 MLOAD PUSH3 0x461BCD PUSH1 0xE5 SHL DUP2 MSTORE PUSH1 0x4 DUP2 ADD DUP5 SWAP1 MSTORE PUSH1 0xE PUSH1 0x24 DUP3 ADD MSTORE PUSH14 0x11540E881B9BC81CDD5C1C1BDC9D PUSH1 0x92 SHL PUSH1 0x44 DUP3 ADD MSTORE PUSH1 0x64 SWAP1 REVERT JUMPDEST POP CALLVALUE PUSH2 0x2AC JUMPI PUSH1 0x20 CALLDATASIZE PUSH1 0x3 NOT ADD SLT PUSH2 0x2AC JUMPI PUSH1 0x4 CALLDATALOAD SWAP1 PUSH1 0xA SLOAD DUP3 LT ISZERO PUSH2 0x2AC JUMPI PUSH1 0x20 PUSH2 0x1D32 DUP4 PUSH2 0x4091 JUMP JUMPDEST POP CALLVALUE PUSH2 0x2AC JUMPI PUSH1 0x40 CALLDATASIZE PUSH1 0x3 NOT ADD SLT PUSH2 0x2AC JUMPI PUSH1 0xFF PUSH1 0x40 PUSH1 0x20 SWAP3 PUSH2 0x3DFC PUSH2 0x4030 JUMP JUMPDEST PUSH1 0x4 CALLDATALOAD DUP3 MSTORE PUSH1 0x3 DUP6 MSTORE DUP3 DUP3 KECCAK256 PUSH1 0x1 PUSH1 0x1 PUSH1 0xA0 SHL SUB SWAP1 SWAP2 AND DUP3 MSTORE DUP5 MSTORE KECCAK256 SLOAD PUSH1 0x40 MLOAD SWAP2 AND ISZERO ISZERO DUP2 MSTORE RETURN JUMPDEST POP CALLVALUE PUSH2 0x2AC JUMPI DUP1 PUSH1 0x3 NOT CALLDATASIZE ADD SLT PUSH2 0x2AC JUMPI PUSH1 0x20 PUSH1 0x40 MLOAD PUSH8 0xDE0B6B3A7640000 DUP2 MSTORE RETURN JUMPDEST POP CALLVALUE PUSH2 0x2AC JUMPI PUSH1 0x40 CALLDATASIZE PUSH1 0x3 NOT ADD SLT PUSH2 0x2AC JUMPI PUSH1 0xFF PUSH1 0x40 PUSH1 0x20 SWAP3 PUSH2 0x3E68 PUSH2 0x4030 JUMP JUMPDEST PUSH1 0x4 DUP1 CALLDATALOAD DUP4 MSTORE DUP6 MSTORE DUP3 DUP3 KECCAK256 PUSH1 0x1 PUSH1 0x1 PUSH1 0xA0 SHL SUB SWAP1 SWAP2 AND DUP3 MSTORE DUP5 MSTORE KECCAK256 SLOAD PUSH1 0x40 MLOAD SWAP2 AND ISZERO ISZERO DUP2 MSTORE RETURN JUMPDEST POP CALLVALUE PUSH2 0x2AC JUMPI PUSH2 0x3ED2 PUSH1 0x20 PUSH2 0x3EA3 CALLDATASIZE PUSH2 0x405C JUMP JUMPDEST PUSH1 0xC SLOAD PUSH1 0x40 MLOAD PUSH4 0x256BA741 PUSH1 0xE0 SHL DUP2 MSTORE SWAP6 DUP7 SWAP5 PUSH1 0x1 PUSH1 0x1 PUSH1 0xA0 SHL SUB SWAP1 SWAP3 AND SWAP4 DUP6 SWAP4 DUP5 SWAP4 SWAP1 SWAP2 SWAP1 PUSH1 0x4 DUP6 ADD PUSH2 0x4744 JUMP JUMPDEST SUB SWAP2 GAS STATICCALL SWAP1 DUP2 ISZERO PUSH2 0x871 JUMPI DUP3 SWAP2 PUSH2 0x3EEF JUMPI JUMPDEST PUSH1 0x20 DUP3 PUSH1 0x40 MLOAD SWAP1 DUP2 MSTORE RETURN JUMPDEST SWAP1 POP PUSH1 0x20 DUP2 RETURNDATASIZE DUP3 GT PUSH2 0x3F1C JUMPI JUMPDEST DUP2 PUSH2 0x3F09 PUSH1 0x20 SWAP4 DUP4 PUSH2 0x413F JUMP JUMPDEST DUP2 ADD SUB SLT PUSH2 0x444 JUMPI PUSH1 0x20 SWAP2 POP MLOAD CODESIZE PUSH2 0x3EE4 JUMP JUMPDEST RETURNDATASIZE SWAP2 POP PUSH2 0x3EFC JUMP JUMPDEST POP CALLVALUE PUSH2 0x2AC JUMPI DUP1 PUSH1 0x3 NOT CALLDATASIZE ADD SLT PUSH2 0x2AC JUMPI PUSH1 0xE SLOAD PUSH1 0x40 MLOAD PUSH1 0x1 PUSH1 0x1 PUSH1 0xA0 SHL SUB SWAP1 SWAP2 AND DUP2 MSTORE PUSH1 0x20 SWAP1 RETURN JUMPDEST POP CALLVALUE PUSH2 0x2AC JUMPI DUP1 PUSH1 0x3 NOT CALLDATASIZE ADD SLT PUSH2 0x2AC JUMPI PUSH1 0xF SLOAD PUSH1 0x40 MLOAD PUSH1 0x1 PUSH1 0x1 PUSH1 0xA0 SHL SUB SWAP1 SWAP2 AND DUP2 MSTORE PUSH1 0x20 SWAP1 RETURN JUMPDEST POP CALLVALUE PUSH2 0x2AC JUMPI PUSH1 0x20 CALLDATASIZE PUSH1 0x3 NOT ADD SLT PUSH2 0x2AC JUMPI PUSH1 0x4 CALLDATALOAD SWAP1 DUP2 DUP2 MSTORE PUSH1 0x2 PUSH1 0x20 MSTORE PUSH1 0x40 DUP2 KECCAK256 SWAP2 PUSH1 0xC DUP4 ADD DUP1 SLOAD SWAP4 PUSH1 0xFF DUP6 AND PUSH1 0x5 DUP2 LT ISZERO PUSH2 0x26BD JUMPI SWAP5 PUSH2 0x3FCE PUSH1 0xA PUSH1 0x1 SWAP4 PUSH2 0x3FC4 PUSH2 0x146B SWAP9 SWAP10 ISZERO PUSH2 0x45B8 JUMP JUMPDEST ADD SLOAD TIMESTAMP LT ISZERO PUSH2 0x4764 JUMP JUMPDEST PUSH1 0xFF NOT AND OR SWAP1 SSTORE PUSH2 0x5580 JUMP JUMPDEST POP CALLVALUE PUSH2 0x2AC JUMPI PUSH1 0x20 CALLDATASIZE PUSH1 0x3 NOT ADD SLT PUSH2 0x2AC JUMPI PUSH1 0xFF PUSH1 0x40 PUSH1 0x20 SWAP3 PUSH1 0x4 CALLDATALOAD DUP2 MSTORE PUSH1 0xB DUP5 MSTORE KECCAK256 SLOAD AND PUSH1 0x40 MLOAD SWAP1 ISZERO ISZERO DUP2 MSTORE RETURN JUMPDEST SWAP1 POP CALLVALUE PUSH2 0x444 JUMPI PUSH1 0x20 CALLDATASIZE PUSH1 0x3 NOT ADD SLT PUSH2 0x444 JUMPI PUSH1 0x40 PUSH1 0x20 SWAP3 PUSH1 0x4 CALLDATALOAD DUP2 MSTORE PUSH1 0x6 DUP5 MSTORE KECCAK256 SLOAD DUP2 MSTORE RETURN JUMPDEST PUSH1 0x24 CALLDATALOAD SWAP1 PUSH1 0x1 PUSH1 0x1 PUSH1 0xA0 SHL SUB DUP3 AND DUP3 SUB PUSH2 0xDD2 JUMPI JUMP JUMPDEST PUSH1 0x4 CALLDATALOAD SWAP1 PUSH1 0x1 PUSH1 0x1 PUSH1 0xA0 SHL SUB DUP3 AND DUP3 SUB PUSH2 0xDD2 JUMPI JUMP JUMPDEST PUSH1 0x60 SWAP1 PUSH1 0x3 NOT ADD SLT PUSH2 0xDD2 JUMPI PUSH1 0x4 CALLDATALOAD SWAP1 PUSH1 0x1 PUSH1 0x1 PUSH1 0xA0 SHL SUB SWAP1 PUSH1 0x24 CALLDATALOAD DUP3 DUP2 AND DUP2 SUB PUSH2 0xDD2 JUMPI SWAP2 PUSH1 0x44 CALLDATALOAD SWAP1 DUP2 AND DUP2 SUB PUSH2 0xDD2 JUMPI SWAP1 JUMP JUMPDEST PUSH1 0xA SLOAD DUP2 LT ISZERO PUSH2 0x40AC JUMPI PUSH1 0xA PUSH1 0x0 MSTORE PUSH1 0x20 PUSH1 0x0 KECCAK256 ADD SWAP1 PUSH1 0x0 SWAP1 JUMP JUMPDEST PUSH4 0x4E487B71 PUSH1 0xE0 SHL PUSH1 0x0 MSTORE PUSH1 0x32 PUSH1 0x4 MSTORE PUSH1 0x24 PUSH1 0x0 REVERT JUMPDEST DUP1 SLOAD DUP3 LT ISZERO PUSH2 0x40AC JUMPI PUSH1 0x0 MSTORE PUSH1 0x20 PUSH1 0x0 KECCAK256 ADD SWAP1 PUSH1 0x0 SWAP1 JUMP JUMPDEST PUSH1 0x1 PUSH1 0x1 PUSH1 0x40 SHL SUB DUP2 GT PUSH2 0x3168 JUMPI PUSH1 0x40 MSTORE JUMP JUMPDEST PUSH2 0x2E0 DUP2 ADD SWAP1 DUP2 LT PUSH1 0x1 PUSH1 0x1 PUSH1 0x40 SHL SUB DUP3 GT OR PUSH2 0x3168 JUMPI PUSH1 0x40 MSTORE JUMP JUMPDEST PUSH1 0x40 DUP2 ADD SWAP1 DUP2 LT PUSH1 0x1 PUSH1 0x1 PUSH1 0x40 SHL SUB DUP3 GT OR PUSH2 0x3168 JUMPI PUSH1 0x40 MSTORE JUMP JUMPDEST PUSH1 0x60 DUP2 ADD SWAP1 DUP2 LT PUSH1 0x1 PUSH1 0x1 PUSH1 0x40 SHL SUB DUP3 GT OR PUSH2 0x3168 JUMPI PUSH1 0x40 MSTORE JUMP JUMPDEST PUSH1 0x1F SWAP1 SWAP2 ADD PUSH1 0x1F NOT AND DUP2 ADD SWAP1 PUSH1 0x1 PUSH1 0x1 PUSH1 0x40 SHL SUB DUP3 GT SWAP1 DUP3 LT OR PUSH2 0x3168 JUMPI PUSH1 0x40 MSTORE JUMP JUMPDEST PUSH1 0x1 PUSH1 0x1 PUSH1 0x40 SHL SUB DUP2 GT PUSH2 0x3168 JUMPI PUSH1 0x1F ADD PUSH1 0x1F NOT AND PUSH1 0x20 ADD SWAP1 JUMP JUMPDEST SWAP1 PUSH1 0x1 DUP3 DUP2 SHR SWAP3 AND DUP1 ISZERO PUSH2 0x41AD JUMPI JUMPDEST PUSH1 0x20 DUP4 LT EQ PUSH2 0x4197 JUMPI JUMP JUMPDEST PUSH4 0x4E487B71 PUSH1 0xE0 SHL PUSH1 0x0 MSTORE PUSH1 0x22 PUSH1 0x4 MSTORE PUSH1 0x24 PUSH1 0x0 REVERT JUMPDEST SWAP2 PUSH1 0x7F AND SWAP2 PUSH2 0x418C JUMP JUMPDEST SWAP1 PUSH1 0x40 MLOAD SWAP2 DUP3 PUSH1 0x0 DUP3 SLOAD SWAP3 PUSH2 0x41CB DUP5 PUSH2 0x417D JUMP JUMPDEST SWAP1 DUP2 DUP5 MSTORE PUSH1 0x1 SWAP5 DUP6 DUP2 AND SWAP1 DUP2 PUSH1 0x0 EQ PUSH2 0x423A JUMPI POP PUSH1 0x1 EQ PUSH2 0x41F7 JUMPI JUMPDEST POP POP PUSH2 0x41F5 SWAP3 POP SUB DUP4 PUSH2 0x413F JUMP JUMPDEST JUMP JUMPDEST SWAP1 SWAP4 SWAP2 POP PUSH1 0x0 MSTORE PUSH1 0x20 SWAP1 DUP2 PUSH1 0x0 KECCAK256 SWAP4 PUSH1 0x0 SWAP2 JUMPDEST DUP2 DUP4 LT PUSH2 0x4222 JUMPI POP POP PUSH2 0x41F5 SWAP4 POP DUP3 ADD ADD CODESIZE DUP1 PUSH2 0x41E7 JUMP JUMPDEST DUP6 SLOAD DUP9 DUP5 ADD DUP6 ADD MSTORE SWAP5 DUP6 ADD SWAP5 DUP8 SWAP5 POP SWAP2 DUP4 ADD SWAP2 PUSH2 0x420A JUMP JUMPDEST SWAP2 POP POP PUSH2 0x41F5 SWAP5 POP PUSH1 0x20 SWAP3 POP PUSH1 0xFF NOT AND DUP3 DUP5 ADD MSTORE ISZERO ISZERO PUSH1 0x5 SHL DUP3 ADD ADD CODESIZE DUP1 PUSH2 0x41E7 JUMP JUMPDEST PUSH1 0x0 JUMPDEST DUP4 DUP2 LT PUSH2 0x4270 JUMPI POP POP PUSH1 0x0 SWAP2 ADD MSTORE JUMP JUMPDEST DUP2 DUP2 ADD MLOAD DUP4 DUP3 ADD MSTORE PUSH1 0x20 ADD PUSH2 0x4260 JUMP JUMPDEST SWAP1 PUSH1 0x20 SWAP2 PUSH2 0x4299 DUP2 MLOAD DUP1 SWAP3 DUP2 DUP6 MSTORE DUP6 DUP1 DUP7 ADD SWAP2 ADD PUSH2 0x425D JUMP JUMPDEST PUSH1 0x1F ADD PUSH1 0x1F NOT AND ADD ADD SWAP1 JUMP JUMPDEST SWAP1 PUSH1 0x5 DUP3 LT ISZERO PUSH2 0x112D JUMPI MSTORE JUMP JUMPDEST SWAP1 PUSH1 0x2 DUP3 LT ISZERO PUSH2 0x112D JUMPI MSTORE JUMP JUMPDEST PUSH1 0x40 SWAP1 PUSH1 0x3 NOT ADD SLT PUSH2 0xDD2 JUMPI PUSH1 0x4 CALLDATALOAD SWAP1 PUSH1 0x24 CALLDATALOAD SWAP1 JUMP JUMPDEST PUSH1 0x0 SLOAD PUSH1 0x1 PUSH1 0x1 PUSH1 0xA0 SHL SUB AND CALLER SUB PUSH2 0x42E9 JUMPI JUMP JUMPDEST PUSH1 0x40 MLOAD PUSH4 0x118CDAA7 PUSH1 0xE0 SHL DUP2 MSTORE CALLER PUSH1 0x4 DUP3 ADD MSTORE PUSH1 0x24 SWAP1 REVERT JUMPDEST MLOAD SWAP1 DUP2 ISZERO ISZERO DUP3 SUB PUSH2 0xDD2 JUMPI JUMP JUMPDEST ISZERO PUSH2 0x4315 JUMPI JUMP JUMPDEST PUSH1 0x40 MLOAD PUSH3 0x461BCD PUSH1 0xE5 SHL DUP2 MSTORE PUSH1 0x20 PUSH1 0x4 DUP3 ADD MSTORE PUSH1 0xF PUSH1 0x24 DUP3 ADD MSTORE PUSH15 0x11540E88189B1858DADB1A5CDD1959 PUSH1 0x8A SHL PUSH1 0x44 DUP3 ADD MSTORE PUSH1 0x64 SWAP1 REVERT JUMPDEST ISZERO PUSH2 0x4353 JUMPI JUMP JUMPDEST PUSH1 0x40 MLOAD PUSH3 0x461BCD PUSH1 0xE5 SHL DUP2 MSTORE PUSH1 0x20 PUSH1 0x4 DUP3 ADD MSTORE PUSH1 0x15 PUSH1 0x24 DUP3 ADD MSTORE PUSH21 0x22A81D103AB739BAB83837B93A32B2103A37B5B2B7 PUSH1 0x59 SHL PUSH1 0x44 DUP3 ADD MSTORE PUSH1 0x64 SWAP1 REVERT JUMPDEST SWAP2 SWAP1 DUP3 ADD DUP1 SWAP3 GT PUSH2 0x439D JUMPI JUMP JUMPDEST PUSH4 0x4E487B71 PUSH1 0xE0 SHL PUSH1 0x0 MSTORE PUSH1 0x11 PUSH1 0x4 MSTORE PUSH1 0x24 PUSH1 0x0 REVERT JUMPDEST PUSH1 0x0 NOT DUP2 EQ PUSH2 0x439D JUMPI PUSH1 0x1 ADD SWAP1 JUMP JUMPDEST PUSH1 0x2 DUP3 LT ISZERO PUSH2 0x112D JUMPI MSTORE JUMP JUMPDEST DUP2 DUP2 LT PUSH2 0x43D9 JUMPI POP POP JUMP JUMPDEST PUSH1 0x0 DUP2 SSTORE PUSH1 0x1 ADD PUSH2 0x43CE JUMP JUMPDEST SWAP1 PUSH1 0xFF DUP1 NOT DUP4 SLOAD AND SWAP2 ISZERO ISZERO AND OR SWAP1 SSTORE JUMP JUMPDEST DUP1 SLOAD SWAP1 PUSH1 0x1 PUSH1 0x40 SHL DUP3 LT ISZERO PUSH2 0x3168 JUMPI DUP2 PUSH2 0x2D67 SWAP2 PUSH1 0x1 PUSH2 0x4418 SWAP5 ADD DUP2 SSTORE PUSH2 0x40C2 JUMP JUMPDEST SWAP1 SSTORE JUMP JUMPDEST RETURNDATASIZE ISZERO PUSH2 0x4447 JUMPI RETURNDATASIZE SWAP1 PUSH2 0x442D DUP3 PUSH2 0x4162 JUMP JUMPDEST SWAP2 PUSH2 0x443B PUSH1 0x40 MLOAD SWAP4 DUP5 PUSH2 0x413F JUMP JUMPDEST DUP3 MSTORE RETURNDATASIZE PUSH1 0x0 PUSH1 0x20 DUP5 ADD RETURNDATACOPY JUMP JUMPDEST PUSH1 0x60 SWAP1 JUMP JUMPDEST ISZERO PUSH2 0x4453 JUMPI JUMP JUMPDEST PUSH1 0x40 MLOAD PUSH3 0x461BCD PUSH1 0xE5 SHL DUP2 MSTORE PUSH1 0x20 PUSH1 0x4 DUP3 ADD MSTORE PUSH1 0x13 PUSH1 0x24 DUP3 ADD MSTORE PUSH19 0x11540E88199959481CD95B990819985A5B1959 PUSH1 0x6A SHL PUSH1 0x44 DUP3 ADD MSTORE PUSH1 0x64 SWAP1 REVERT JUMPDEST SWAP1 DUP2 MSTORE PUSH1 0x1 PUSH1 0x1 PUSH1 0xA0 SHL SUB SWAP2 DUP3 AND PUSH1 0x20 DUP3 ADD MSTORE SWAP2 AND PUSH1 0x40 DUP3 ADD MSTORE PUSH1 0x60 DUP2 ADD SWAP2 SWAP1 SWAP2 MSTORE PUSH1 0x80 DUP2 ADD SWAP2 SWAP1 SWAP2 MSTORE PUSH1 0xA0 ADD SWAP1 JUMP JUMPDEST PUSH1 0x1 PUSH1 0x1 PUSH1 0xA0 SHL SUB SWAP2 DUP3 AND DUP2 MSTORE SWAP2 AND PUSH1 0x20 DUP3 ADD MSTORE PUSH1 0x40 DUP2 ADD SWAP2 SWAP1 SWAP2 MSTORE PUSH1 0x60 ADD SWAP1 JUMP JUMPDEST SWAP1 PUSH2 0x4516 SWAP1 PUSH2 0x4508 PUSH2 0x41F5 SWAP6 PUSH1 0x40 MLOAD SWAP6 DUP7 SWAP4 PUSH4 0x23B872DD PUSH1 0xE0 SHL PUSH1 0x20 DUP7 ADD MSTORE PUSH1 0x24 DUP6 ADD PUSH2 0x44BE JUMP JUMPDEST SUB PUSH1 0x1F NOT DUP2 ADD DUP5 MSTORE DUP4 PUSH2 0x413F JUMP JUMPDEST SWAP1 PUSH1 0x0 PUSH1 0x20 SWAP2 DUP3 DUP2 MLOAD SWAP2 ADD DUP3 DUP6 GAS CALL ISZERO PUSH2 0x4572 JUMPI PUSH1 0x0 MLOAD RETURNDATASIZE PUSH2 0x4569 JUMPI POP PUSH1 0x1 PUSH1 0x1 PUSH1 0xA0 SHL SUB DUP2 AND EXTCODESIZE ISZERO JUMPDEST PUSH2 0x4547 JUMPI POP JUMP JUMPDEST PUSH1 0x40 MLOAD PUSH4 0x5274AFE7 PUSH1 0xE0 SHL DUP2 MSTORE PUSH1 0x1 PUSH1 0x1 PUSH1 0xA0 SHL SUB SWAP1 SWAP2 AND PUSH1 0x4 DUP3 ADD MSTORE PUSH1 0x24 SWAP1 REVERT JUMPDEST PUSH1 0x1 EQ ISZERO PUSH2 0x4540 JUMP JUMPDEST PUSH1 0x40 MLOAD RETURNDATASIZE PUSH1 0x0 DUP3 RETURNDATACOPY RETURNDATASIZE SWAP1 REVERT JUMPDEST ISZERO PUSH2 0x4585 JUMPI JUMP JUMPDEST PUSH1 0x40 MLOAD PUSH3 0x461BCD PUSH1 0xE5 SHL DUP2 MSTORE PUSH1 0x20 PUSH1 0x4 DUP3 ADD MSTORE PUSH1 0xB PUSH1 0x24 DUP3 ADD MSTORE PUSH11 0x11540E8819195B195D1959 PUSH1 0xAA SHL PUSH1 0x44 DUP3 ADD MSTORE PUSH1 0x64 SWAP1 REVERT JUMPDEST ISZERO PUSH2 0x45BF JUMPI JUMP JUMPDEST PUSH1 0x40 MLOAD PUSH3 0x461BCD PUSH1 0xE5 SHL DUP2 MSTORE PUSH1 0x20 PUSH1 0x4 DUP3 ADD MSTORE PUSH1 0xE PUSH1 0x24 DUP3 ADD MSTORE PUSH14 0x45503A206E6F7420616374697665 PUSH1 0x90 SHL PUSH1 0x44 DUP3 ADD MSTORE PUSH1 0x64 SWAP1 REVERT JUMPDEST ISZERO PUSH2 0x45FC JUMPI JUMP JUMPDEST PUSH1 0x40 MLOAD PUSH3 0x461BCD PUSH1 0xE5 SHL DUP2 MSTORE PUSH1 0x20 PUSH1 0x4 DUP3 ADD MSTORE PUSH1 0xE PUSH1 0x24 DUP3 ADD MSTORE PUSH14 0x22A81D103130B21037B83A34B7B7 PUSH1 0x91 SHL PUSH1 0x44 DUP3 ADD MSTORE PUSH1 0x64 SWAP1 REVERT JUMPDEST ISZERO PUSH2 0x4639 JUMPI JUMP JUMPDEST PUSH1 0x40 MLOAD PUSH3 0x461BCD PUSH1 0xE5 SHL DUP2 MSTORE PUSH1 0x20 PUSH1 0x4 DUP3 ADD MSTORE PUSH1 0xD PUSH1 0x24 DUP3 ADD MSTORE PUSH13 0x22A81D103132B637BB9036B4B7 PUSH1 0x99 SHL PUSH1 0x44 DUP3 ADD MSTORE PUSH1 0x64 SWAP1 REVERT JUMPDEST ISZERO PUSH2 0x4675 JUMPI JUMP JUMPDEST PUSH1 0x40 MLOAD PUSH3 0x461BCD PUSH1 0xE5 SHL DUP2 MSTORE PUSH1 0x20 PUSH1 0x4 DUP3 ADD MSTORE PUSH1 0x18 PUSH1 0x24 DUP3 ADD MSTORE PUSH24 0x11540E881D1C99585CDD5C9E481CD95B990819985A5B1959 PUSH1 0x42 SHL PUSH1 0x44 DUP3 ADD MSTORE PUSH1 0x64 SWAP1 REVERT JUMPDEST DUP1 SLOAD PUSH1 0x1 PUSH1 0x40 SHL DUP2 LT ISZERO PUSH2 0x3168 JUMPI PUSH2 0x46D2 SWAP2 PUSH1 0x1 DUP3 ADD DUP2 SSTORE PUSH2 0x40C2 JUMP JUMPDEST DUP2 SWAP3 SWAP2 SLOAD SWAP1 PUSH1 0x3 SHL SWAP2 PUSH1 0x1 DUP1 PUSH1 0xA0 SHL SUB DUP1 SWAP2 AND DUP4 SHL SWAP3 SHL NOT AND OR SWAP1 SSTORE JUMP JUMPDEST SWAP1 DUP2 MSTORE PUSH1 0x1 PUSH1 0x1 PUSH1 0xA0 SHL SUB SWAP2 DUP3 AND PUSH1 0x20 DUP3 ADD MSTORE SWAP2 AND PUSH1 0x40 DUP3 ADD MSTORE PUSH1 0x60 DUP2 ADD SWAP2 SWAP1 SWAP2 MSTORE PUSH1 0x80 ADD SWAP1 JUMP JUMPDEST SWAP1 DUP2 PUSH1 0x20 SWAP2 SUB SLT PUSH2 0xDD2 JUMPI MLOAD PUSH1 0x1 PUSH1 0x1 PUSH1 0xA0 SHL SUB DUP2 AND DUP2 SUB PUSH2 0xDD2 JUMPI SWAP1 JUMP JUMPDEST SWAP2 SWAP1 DUP3 SUB SWAP2 DUP3 GT PUSH2 0x439D JUMPI JUMP JUMPDEST SWAP1 DUP2 MSTORE PUSH1 0x1 PUSH1 0x1 PUSH1 0xA0 SHL SUB SWAP2 DUP3 AND PUSH1 0x20 DUP3 ADD MSTORE SWAP2 AND PUSH1 0x40 DUP3 ADD MSTORE PUSH1 0x60 ADD SWAP1 JUMP JUMPDEST ISZERO PUSH2 0x476B JUMPI JUMP JUMPDEST PUSH1 0x40 MLOAD PUSH3 0x461BCD PUSH1 0xE5 SHL DUP2 MSTORE PUSH1 0x20 PUSH1 0x4 DUP3 ADD MSTORE PUSH1 0xD PUSH1 0x24 DUP3 ADD MSTORE PUSH13 0x11540E881B9BDD08195B991959 PUSH1 0x9A SHL PUSH1 0x44 DUP3 ADD MSTORE PUSH1 0x64 SWAP1 REVERT JUMPDEST ISZERO PUSH2 0x47A7 JUMPI JUMP JUMPDEST PUSH1 0x40 MLOAD PUSH3 0x461BCD PUSH1 0xE5 SHL DUP2 MSTORE PUSH1 0x20 PUSH1 0x4 DUP3 ADD MSTORE PUSH1 0x14 PUSH1 0x24 DUP3 ADD MSTORE PUSH20 0x11540E88185B1C9958591E481C995CDBDB1D9959 PUSH1 0x62 SHL PUSH1 0x44 DUP3 ADD MSTORE PUSH1 0x64 SWAP1 REVERT JUMPDEST MLOAD SWAP1 PUSH1 0x1 PUSH1 0x1 PUSH1 0x50 SHL SUB DUP3 AND DUP3 SUB PUSH2 0xDD2 JUMPI JUMP JUMPDEST ISZERO PUSH2 0x47FE JUMPI JUMP JUMPDEST PUSH1 0x40 MLOAD PUSH3 0x461BCD PUSH1 0xE5 SHL DUP2 MSTORE PUSH1 0x20 PUSH1 0x4 DUP3 ADD MSTORE PUSH1 0x15 PUSH1 0x24 DUP3 ADD MSTORE PUSH21 0x45503A206E6F74205032504F5054494D4953544943 PUSH1 0x58 SHL PUSH1 0x44 DUP3 ADD MSTORE PUSH1 0x64 SWAP1 REVERT JUMPDEST ISZERO PUSH2 0x4842 JUMPI JUMP JUMPDEST PUSH1 0x40 MLOAD PUSH3 0x461BCD PUSH1 0xE5 SHL DUP2 MSTORE PUSH1 0x20 PUSH1 0x4 DUP3 ADD MSTORE PUSH1 0xC PUSH1 0x24 DUP3 ADD MSTORE PUSH12 0x11540E881C995CDBDB1D9959 PUSH1 0xA2 SHL PUSH1 0x44 DUP3 ADD MSTORE PUSH1 0x64 SWAP1 REVERT JUMPDEST ISZERO PUSH2 0x487D JUMPI JUMP JUMPDEST PUSH1 0x40 MLOAD PUSH3 0x461BCD PUSH1 0xE5 SHL DUP2 MSTORE PUSH1 0x20 PUSH1 0x4 DUP3 ADD MSTORE PUSH1 0x14 PUSH1 0x24 DUP3 ADD MSTORE PUSH20 0x45503A20617373657274696F6E20657869737473 PUSH1 0x60 SHL PUSH1 0x44 DUP3 ADD MSTORE PUSH1 0x64 SWAP1 REVERT JUMPDEST ISZERO PUSH2 0x48C0 JUMPI JUMP JUMPDEST PUSH1 0x40 MLOAD PUSH3 0x461BCD PUSH1 0xE5 SHL DUP2 MSTORE PUSH1 0x20 PUSH1 0x4 DUP3 ADD MSTORE PUSH1 0x12 PUSH1 0x24 DUP3 ADD MSTORE PUSH18 0x11540E881BDC9858DB19481B9BDD081CD95D PUSH1 0x72 SHL PUSH1 0x44 DUP3 ADD MSTORE PUSH1 0x64 SWAP1 REVERT JUMPDEST ISZERO PUSH2 0x4901 JUMPI JUMP JUMPDEST PUSH1 0x40 MLOAD PUSH3 0x461BCD PUSH1 0xE5 SHL DUP2 MSTORE PUSH1 0x20 PUSH1 0x4 DUP3 ADD MSTORE PUSH1 0x19 PUSH1 0x24 DUP3 ADD MSTORE PUSH25 0x11540E88189BDB990818DD5C9C995B98DE481B9BDD081CD95D PUSH1 0x3A SHL PUSH1 0x44 DUP3 ADD MSTORE PUSH1 0x64 SWAP1 REVERT JUMPDEST PUSH1 0x1 PUSH1 0x1 PUSH1 0xA0 SHL SUB SWAP1 SWAP2 AND DUP2 MSTORE PUSH1 0x20 DUP2 ADD SWAP2 SWAP1 SWAP2 MSTORE PUSH1 0x40 ADD SWAP1 JUMP JUMPDEST SWAP3 SWAP2 SWAP3 PUSH1 0x40 MLOAD SWAP2 PUSH1 0x20 DUP4 ADD SWAP1 PUSH2 0x4994 DUP5 PUSH2 0x4986 PUSH4 0x95EA7B3 PUSH1 0xE0 SHL SWAP9 DUP10 DUP7 MSTORE DUP5 PUSH1 0x24 DUP5 ADD PUSH2 0x4942 JUMP JUMPDEST SUB PUSH1 0x1F NOT DUP2 ADD DUP7 MSTORE DUP6 PUSH2 0x413F JUMP JUMPDEST PUSH1 0x20 PUSH1 0x0 DUP1 SWAP4 DUP7 MLOAD SWAP1 DUP3 DUP8 GAS CALL DUP3 MLOAD RETURNDATASIZE DUP3 PUSH2 0x4A25 JUMPI JUMPDEST POP POP ISZERO PUSH2 0x49BA JUMPI JUMPDEST POP POP POP POP SWAP1 POP JUMP JUMPDEST PUSH1 0x40 MLOAD PUSH1 0x20 DUP2 ADD SWAP7 SWAP1 SWAP7 MSTORE PUSH1 0x1 PUSH1 0x1 PUSH1 0xA0 SHL SUB AND PUSH1 0x24 DUP7 ADD MSTORE PUSH1 0x44 DUP1 DUP7 ADD DUP3 SWAP1 MSTORE DUP6 MSTORE PUSH1 0x80 DUP6 ADD SWAP1 PUSH1 0x1 PUSH1 0x1 PUSH1 0x40 SHL SUB DUP3 GT DUP7 DUP4 LT OR PUSH2 0x4A11 JUMPI POP PUSH2 0x4A07 SWAP4 SWAP5 PUSH2 0x4516 SWAP2 PUSH1 0x40 MSTORE DUP3 PUSH2 0x4516 JUMP JUMPDEST DUP1 CODESIZE DUP1 DUP1 DUP1 PUSH2 0x49B2 JUMP JUMPDEST PUSH4 0x4E487B71 PUSH1 0xE0 SHL DUP2 MSTORE PUSH1 0x41 PUSH1 0x4 MSTORE PUSH1 0x24 SWAP1 REVERT JUMPDEST SWAP1 SWAP2 POP PUSH2 0x4A42 JUMPI POP PUSH1 0x1 PUSH1 0x1 PUSH1 0xA0 SHL SUB DUP4 AND EXTCODESIZE ISZERO ISZERO JUMPDEST CODESIZE DUP1 PUSH2 0x49AA JUMP JUMPDEST PUSH1 0x1 EQ PUSH2 0x4A3B JUMP JUMPDEST ISZERO PUSH2 0x4A51 JUMPI JUMP JUMPDEST PUSH1 0x40 MLOAD PUSH3 0x461BCD PUSH1 0xE5 SHL DUP2 MSTORE PUSH1 0x20 PUSH1 0x4 DUP3 ADD MSTORE PUSH1 0x10 PUSH1 0x24 DUP3 ADD MSTORE PUSH16 0x22A81D1037379030B9B9B2B93A34B7B7 PUSH1 0x81 SHL PUSH1 0x44 DUP3 ADD MSTORE PUSH1 0x64 SWAP1 REVERT JUMPDEST ISZERO PUSH2 0x4A90 JUMPI JUMP JUMPDEST PUSH1 0x40 MLOAD PUSH3 0x461BCD PUSH1 0xE5 SHL DUP2 MSTORE PUSH1 0x20 PUSH1 0x4 DUP3 ADD MSTORE PUSH1 0x10 PUSH1 0x24 DUP3 ADD MSTORE PUSH16 0x11540E881B9BDD081C995CDBDB1D9959 PUSH1 0x82 SHL PUSH1 0x44 DUP3 ADD MSTORE PUSH1 0x64 SWAP1 REVERT JUMPDEST ISZERO PUSH2 0x4ACF JUMPI JUMP JUMPDEST PUSH1 0x40 MLOAD PUSH3 0x461BCD PUSH1 0xE5 SHL DUP2 MSTORE PUSH1 0x20 PUSH1 0x4 DUP3 ADD MSTORE PUSH1 0xD PUSH1 0x24 DUP3 ADD MSTORE PUSH13 0x22A81D103737903BB4B73732B9 PUSH1 0x99 SHL PUSH1 0x44 DUP3 ADD MSTORE PUSH1 0x64 SWAP1 REVERT JUMPDEST ISZERO PUSH2 0x4B0B JUMPI JUMP JUMPDEST PUSH1 0x40 MLOAD PUSH3 0x461BCD PUSH1 0xE5 SHL DUP2 MSTORE PUSH1 0x20 PUSH1 0x4 DUP3 ADD MSTORE PUSH1 0xC PUSH1 0x24 DUP3 ADD MSTORE PUSH12 0x45503A206E6F207374616B65 PUSH1 0xA0 SHL PUSH1 0x44 DUP3 ADD MSTORE PUSH1 0x64 SWAP1 REVERT JUMPDEST SWAP1 DUP2 MSTORE PUSH1 0x1 PUSH1 0x1 PUSH1 0xA0 SHL SUB SWAP1 SWAP2 AND PUSH1 0x20 DUP3 ADD MSTORE PUSH1 0x40 ADD SWAP1 JUMP JUMPDEST ISZERO PUSH2 0x4B5F JUMPI JUMP JUMPDEST PUSH1 0x40 MLOAD PUSH3 0x461BCD PUSH1 0xE5 SHL DUP2 MSTORE PUSH1 0x20 PUSH1 0x4 DUP3 ADD MSTORE PUSH1 0xB PUSH1 0x24 DUP3 ADD MSTORE PUSH11 0x11540E8818DB185A5B5959 PUSH1 0xAA SHL PUSH1 0x44 DUP3 ADD MSTORE PUSH1 0x64 SWAP1 REVERT JUMPDEST SWAP1 DUP2 MSTORE PUSH1 0x20 DUP2 ADD SWAP2 SWAP1 SWAP2 MSTORE PUSH1 0x1 PUSH1 0x1 PUSH1 0xA0 SHL SUB SWAP1 SWAP2 AND PUSH1 0x40 DUP3 ADD MSTORE PUSH1 0x60 ADD SWAP1 JUMP JUMPDEST SWAP2 SWAP1 SWAP2 PUSH1 0x0 SWAP3 DUP2 DUP5 MSTORE PUSH1 0x20 SWAP2 PUSH1 0x2 DUP4 MSTORE PUSH1 0x40 SWAP3 DUP4 DUP7 KECCAK256 SWAP4 PUSH1 0x1 DUP1 PUSH1 0xA0 SHL SUB SWAP4 DUP5 PUSH1 0xC SLOAD AND SWAP3 DUP6 PUSH1 0x4 DUP9 ADD SLOAD AND SWAP6 DUP4 MLOAD SWAP7 PUSH4 0x423E7BC1 PUSH1 0xE1 SHL DUP9 MSTORE DUP3 DUP9 DUP1 PUSH2 0x4BFF DUP5 DUP9 DUP13 PUSH1 0x4 DUP6 ADD PUSH2 0x4744 JUMP JUMPDEST SUB DUP2 DUP10 GAS STATICCALL SWAP8 DUP9 ISZERO PUSH2 0x4D21 JUMPI DUP12 SWAP9 PUSH2 0x4CF2 JUMPI JUMPDEST POP DUP3 SWAP1 PUSH1 0xD PUSH2 0x4C3B SWAP10 SWAP11 ADD SLOAD SWAP7 DUP7 MLOAD DUP1 DUP1 SWAP12 DUP2 SWAP5 PUSH4 0xDC4CE349 PUSH1 0xE0 SHL DUP4 MSTORE DUP12 DUP14 PUSH1 0x4 DUP6 ADD PUSH2 0x4B92 JUMP JUMPDEST SUB SWAP2 GAS STATICCALL SWAP7 DUP8 ISZERO PUSH2 0x4CE8 JUMPI DUP11 SWAP8 PUSH2 0x4CB9 JUMPI JUMPDEST POP PUSH2 0x4C57 DUP7 PUSH2 0x4FF2 JUMP JUMPDEST SWAP6 DUP11 MSTORE PUSH1 0x5 DUP3 MSTORE DUP4 DUP11 KECCAK256 SWAP3 AND DUP10 MSTORE MSTORE DUP7 KECCAK256 SLOAD SUB PUSH2 0x4CB4 JUMPI DUP2 ISZERO PUSH2 0x4CB4 JUMPI DUP1 ISZERO PUSH2 0x4CAD JUMPI PUSH2 0x23BE DUP1 DUP3 MUL SWAP2 DUP3 DIV SUB PUSH2 0x3D0B JUMPI PUSH2 0x2710 SWAP1 DIV DUP1 DUP4 MUL SWAP1 DUP4 DUP3 DIV EQ DUP4 ISZERO OR ISZERO PUSH2 0x3D0B JUMPI PUSH2 0x4CAA SWAP4 SWAP5 POP DIV SWAP1 PUSH2 0x4390 JUMP JUMPDEST SWAP1 JUMP JUMPDEST POP SWAP1 SWAP3 POP POP JUMP JUMPDEST POP POP POP JUMP JUMPDEST SWAP1 SWAP7 POP DUP2 DUP2 DUP2 RETURNDATASIZE DUP4 GT PUSH2 0x4CE1 JUMPI JUMPDEST PUSH2 0x4CD1 DUP2 DUP4 PUSH2 0x413F JUMP JUMPDEST DUP2 ADD SUB SLT PUSH2 0x26AE JUMPI MLOAD SWAP6 CODESIZE PUSH2 0x4C4D JUMP JUMPDEST POP RETURNDATASIZE PUSH2 0x4CC7 JUMP JUMPDEST DUP5 MLOAD RETURNDATASIZE DUP13 DUP3 RETURNDATACOPY RETURNDATASIZE SWAP1 REVERT JUMPDEST SWAP1 SWAP8 POP DUP3 DUP2 DUP2 RETURNDATASIZE DUP4 GT PUSH2 0x4D1A JUMPI JUMPDEST PUSH2 0x4D0A DUP2 DUP4 PUSH2 0x413F JUMP JUMPDEST DUP2 ADD SUB SLT PUSH2 0x26AA JUMPI MLOAD SWAP7 DUP3 PUSH2 0x4C12 JUMP JUMPDEST POP RETURNDATASIZE PUSH2 0x4D00 JUMP JUMPDEST DUP6 MLOAD RETURNDATASIZE DUP14 DUP3 RETURNDATACOPY RETURNDATASIZE SWAP1 REVERT JUMPDEST PUSH1 0x0 SWAP1 DUP1 DUP3 MSTORE PUSH1 0x2 PUSH1 0x20 MSTORE PUSH1 0x40 SWAP1 DUP2 DUP4 KECCAK256 SWAP1 PUSH1 0x1 DUP1 PUSH1 0xA0 SHL SUB SWAP2 DUP3 PUSH1 0xC SLOAD AND PUSH1 0xD DUP3 ADD SLOAD SWAP1 PUSH1 0x4 SWAP3 PUSH2 0x4D7C DUP5 DUP3 ADD SWAP6 PUSH1 0x20 DUP9 DUP9 SLOAD AND DUP1 SWAP7 DUP12 MLOAD SWAP5 DUP6 SWAP3 DUP4 SWAP3 PUSH4 0xDC4CE349 PUSH1 0xE0 SHL DUP5 MSTORE DUP7 DUP13 DUP6 ADD PUSH2 0x4B92 JUMP JUMPDEST SUB DUP2 DUP8 GAS STATICCALL SWAP2 DUP3 ISZERO PUSH2 0x4FE8 JUMPI DUP11 SWAP3 PUSH2 0x4FB3 JUMPI JUMPDEST POP PUSH2 0x4D99 SWAP1 PUSH2 0x4FF2 JUMP JUMPDEST SWAP3 DUP4 ISZERO PUSH2 0x4FA7 JUMPI PUSH2 0x15E DUP5 MUL SWAP5 PUSH2 0x15D NOT DUP6 DUP8 DIV ADD PUSH2 0x4F94 JUMPI PUSH2 0x2710 DUP1 SWAP7 DIV SWAP6 PUSH2 0x1F4 DUP1 DUP8 MUL SWAP1 DUP8 DUP3 DIV SUB PUSH2 0x4F81 JUMPI DIV SWAP3 PUSH2 0x4ECB JUMPI POP POP POP DUP3 PUSH2 0x4E5C JUMPI JUMPDEST POP SWAP1 PUSH2 0x4DE2 SWAP2 PUSH2 0x4737 JUMP JUMPDEST SWAP3 DUP4 PUSH2 0x4DF1 JUMPI JUMPDEST POP POP POP POP POP POP JUMP JUMPDEST DUP1 PUSH1 0xC SLOAD AND SWAP3 SLOAD AND SWAP1 DUP3 EXTCODESIZE ISZERO PUSH2 0x5D9 JUMPI SWAP2 DUP5 SWAP4 SWAP2 DUP7 DUP1 SWAP5 PUSH2 0x4E25 SWAP8 MLOAD SWAP8 DUP9 SWAP6 DUP7 SWAP5 DUP6 SWAP4 PUSH4 0xF0824F33 PUSH1 0xE0 SHL DUP6 MSTORE DUP5 ADD PUSH2 0x4942 JUMP JUMPDEST SUB SWAP3 GAS CALL SWAP1 DUP2 ISZERO PUSH2 0x4E53 JUMPI POP PUSH2 0x4E3F JUMPI JUMPDEST DUP1 DUP1 DUP1 DUP1 PUSH2 0x4DE9 JUMP JUMPDEST PUSH2 0x4E49 DUP3 SWAP2 PUSH2 0x40DA JUMP JUMPDEST PUSH2 0x2AC JUMPI DUP1 PUSH2 0x4E36 JUMP JUMPDEST MLOAD RETURNDATASIZE DUP5 DUP3 RETURNDATACOPY RETURNDATASIZE SWAP1 REVERT JUMPDEST DUP6 DUP1 PUSH1 0xC SLOAD AND SWAP2 SLOAD AND DUP7 DUP7 SLOAD AND SWAP1 DUP3 EXTCODESIZE ISZERO PUSH2 0x26AE JUMPI PUSH2 0x4E95 SWAP3 DUP11 SWAP3 DUP4 DUP8 SWAP4 DUP13 MLOAD SWAP7 DUP8 SWAP6 DUP7 SWAP5 DUP6 SWAP4 PUSH4 0x112CD223 PUSH1 0xE0 SHL DUP6 MSTORE DUP14 DUP6 ADD PUSH2 0x44BE JUMP JUMPDEST SUB SWAP3 GAS CALL DUP1 ISZERO PUSH2 0x4EC1 JUMPI SWAP1 DUP9 SWAP2 PUSH2 0x4EAD JUMPI JUMPDEST POP PUSH2 0x4DD7 JUMP JUMPDEST PUSH2 0x4EB6 SWAP1 PUSH2 0x40DA JUMP JUMPDEST PUSH2 0xA6E JUMPI DUP7 CODESIZE PUSH2 0x4EA7 JUMP JUMPDEST DUP8 MLOAD RETURNDATASIZE DUP11 DUP3 RETURNDATACOPY RETURNDATASIZE SWAP1 REVERT JUMPDEST SWAP2 SWAP8 SWAP5 SWAP4 POP SWAP2 DUP5 SWAP1 DUP5 PUSH2 0x4F1F JUMPI JUMPDEST POP POP POP POP POP DUP4 PUSH2 0x4EEB JUMPI POP POP POP POP POP POP JUMP JUMPDEST DUP1 PUSH1 0xC SLOAD AND SWAP3 SLOAD AND SWAP1 DUP3 EXTCODESIZE ISZERO PUSH2 0x5D9 JUMPI SWAP2 DUP5 SWAP4 SWAP2 DUP7 DUP1 SWAP5 PUSH2 0x4E25 SWAP8 MLOAD SWAP8 DUP9 SWAP6 DUP7 SWAP5 DUP6 SWAP4 PUSH4 0x48FEF595 PUSH1 0xE0 SHL DUP6 MSTORE DUP5 ADD PUSH2 0x4942 JUMP JUMPDEST SLOAD AND DUP3 EXTCODESIZE ISZERO PUSH2 0x26AE JUMPI SWAP2 PUSH2 0x4F4C SWAP4 SWAP2 DUP11 DUP1 SWAP5 DUP12 MLOAD SWAP7 DUP8 SWAP6 DUP7 SWAP5 DUP6 SWAP4 PUSH4 0x112CD223 PUSH1 0xE0 SHL DUP6 MSTORE DUP13 DUP6 ADD PUSH2 0x44BE JUMP JUMPDEST SUB SWAP3 GAS CALL DUP1 ISZERO PUSH2 0x4F77 JUMPI PUSH2 0x4F64 JUMPI JUMPDEST DUP1 DUP1 DUP4 DUP2 PUSH2 0x4ED9 JUMP JUMPDEST PUSH2 0x4F70 SWAP1 SWAP7 SWAP2 SWAP7 PUSH2 0x40DA JUMP JUMPDEST SWAP5 CODESIZE PUSH2 0x4F5B JUMP JUMPDEST DUP7 MLOAD RETURNDATASIZE DUP10 DUP3 RETURNDATACOPY RETURNDATASIZE SWAP1 REVERT JUMPDEST PUSH4 0x4E487B71 PUSH1 0xE0 SHL DUP14 MSTORE PUSH1 0x11 DUP10 MSTORE PUSH1 0x24 DUP14 REVERT JUMPDEST PUSH4 0x4E487B71 PUSH1 0xE0 SHL DUP12 MSTORE PUSH1 0x11 DUP8 MSTORE PUSH1 0x24 DUP12 REVERT JUMPDEST POP POP POP POP POP POP POP POP POP POP JUMP JUMPDEST SWAP1 SWAP2 POP PUSH1 0x20 DUP2 RETURNDATASIZE DUP3 GT PUSH2 0x4FE0 JUMPI JUMPDEST DUP2 PUSH2 0x4FCE PUSH1 0x20 SWAP4 DUP4 PUSH2 0x413F JUMP JUMPDEST DUP2 ADD SUB SLT PUSH2 0x26AE JUMPI MLOAD SWAP1 PUSH2 0x4D99 PUSH2 0x4D8F JUMP JUMPDEST RETURNDATASIZE SWAP2 POP PUSH2 0x4FC1 JUMP JUMPDEST DUP10 MLOAD RETURNDATASIZE DUP13 DUP3 RETURNDATACOPY RETURNDATASIZE SWAP1 REVERT JUMPDEST SWAP1 PUSH1 0x0 SWAP2 DUP1 DUP4 MSTORE PUSH1 0x20 SWAP1 PUSH1 0x2 DUP3 MSTORE PUSH1 0x40 SWAP2 DUP3 DUP6 KECCAK256 SWAP2 DUP6 SWAP3 PUSH1 0x1 PUSH1 0x3 DUP3 ADD SLOAD SWAP1 PUSH1 0xD DUP4 ADD SLOAD SWAP1 JUMPDEST DUP3 DUP2 GT ISZERO PUSH2 0x50B8 JUMPI POP POP POP SWAP2 DUP1 SWAP2 PUSH2 0x5058 SWAP4 PUSH1 0x1 DUP1 PUSH1 0xA0 SHL SUB PUSH1 0x4 DUP2 PUSH1 0xC SLOAD AND SWAP3 ADD SLOAD AND SWAP2 DUP8 MLOAD DUP1 SWAP7 DUP2 SWAP5 DUP3 SWAP4 PUSH4 0x4F44289D PUSH1 0xE0 SHL DUP5 MSTORE PUSH1 0x4 DUP5 ADD PUSH2 0x4B3F JUMP JUMPDEST SUB SWAP2 GAS STATICCALL SWAP4 DUP5 ISZERO PUSH2 0x50AF JUMPI POP DUP6 SWAP4 PUSH2 0x5078 JUMPI JUMPDEST POP POP PUSH2 0x4CAA SWAP3 SWAP4 POP PUSH2 0x4390 JUMP JUMPDEST SWAP1 DUP1 SWAP3 SWAP4 POP DUP2 RETURNDATASIZE DUP4 GT PUSH2 0x50A8 JUMPI JUMPDEST PUSH2 0x5090 DUP2 DUP4 PUSH2 0x413F JUMP JUMPDEST DUP2 ADD SUB SLT PUSH2 0x281E JUMPI PUSH2 0x4CAA SWAP3 SWAP4 POP MLOAD SWAP1 DUP4 SWAP3 CODESIZE PUSH2 0x506B JUMP JUMPDEST POP RETURNDATASIZE PUSH2 0x5086 JUMP JUMPDEST MLOAD RETURNDATASIZE DUP8 DUP3 RETURNDATACOPY RETURNDATASIZE SWAP1 REVERT JUMPDEST DUP2 DUP2 SUB PUSH2 0x50CE JUMPI JUMPDEST PUSH2 0x50C9 SWAP1 PUSH2 0x43B3 JUMP JUMPDEST PUSH2 0x5018 JUMP JUMPDEST SWAP6 DUP8 DUP7 DUP9 PUSH1 0x1 DUP1 PUSH1 0xA0 SHL SUB DUP9 DUP2 PUSH1 0xC SLOAD AND SWAP2 PUSH2 0x5105 PUSH1 0x4 SWAP2 DUP3 DUP13 ADD SLOAD AND SWAP7 MLOAD SWAP7 DUP8 SWAP6 DUP7 SWAP5 DUP6 SWAP5 PUSH4 0xDC4CE349 PUSH1 0xE0 SHL DUP7 MSTORE DUP6 ADD PUSH2 0x4B92 JUMP JUMPDEST SUB SWAP2 GAS STATICCALL SWAP1 DUP2 ISZERO PUSH2 0x515C JUMPI DUP12 SWAP2 PUSH2 0x512D JUMPI JUMPDEST POP PUSH2 0x5125 SWAP1 PUSH2 0x50C9 SWAP3 PUSH2 0x4390 JUMP JUMPDEST SWAP7 SWAP1 POP PUSH2 0x50C0 JUMP JUMPDEST SWAP1 POP DUP7 DUP2 DUP2 RETURNDATASIZE DUP4 GT PUSH2 0x5155 JUMPI JUMPDEST PUSH2 0x5144 DUP2 DUP4 PUSH2 0x413F JUMP JUMPDEST DUP2 ADD SUB SLT PUSH2 0x26AA JUMPI MLOAD PUSH2 0x50C9 PUSH2 0x5117 JUMP JUMPDEST POP RETURNDATASIZE PUSH2 0x513A JUMP JUMPDEST DUP10 MLOAD RETURNDATASIZE DUP14 DUP3 RETURNDATACOPY RETURNDATASIZE SWAP1 REVERT JUMPDEST SWAP1 PUSH2 0x51BD PUSH1 0x0 DUP1 MLOAD PUSH1 0x20 PUSH2 0x56BF DUP4 CODECOPY DUP2 MLOAD SWAP2 MSTORE SWAP2 DUP4 PUSH1 0x0 MSTORE PUSH1 0x2 PUSH1 0x20 MSTORE PUSH1 0xC PUSH1 0x40 PUSH1 0x0 KECCAK256 ADD PUSH1 0x3 PUSH1 0xFF NOT DUP3 SLOAD AND OR SWAP1 SSTORE PUSH1 0xB PUSH1 0x20 MSTORE PUSH1 0xFF PUSH1 0x40 PUSH1 0x0 KECCAK256 SLOAD AND PUSH2 0x51C2 JUMPI JUMPDEST PUSH1 0x40 MLOAD SWAP2 DUP3 SWAP2 PUSH1 0x20 DUP4 MSTORE PUSH1 0x20 DUP4 ADD SWAP1 PUSH2 0x4280 JUMP JUMPDEST SUB SWAP1 LOG2 JUMP JUMPDEST PUSH2 0x51CB DUP5 PUSH2 0x5580 JUMP JUMPDEST PUSH2 0x51A9 JUMP JUMPDEST SWAP1 SWAP5 SWAP4 SWAP3 PUSH1 0x60 SWAP3 PUSH1 0x80 DUP4 ADD SWAP7 DUP4 MSTORE PUSH1 0x1 DUP1 PUSH1 0xA0 SHL SUB AND PUSH1 0x20 DUP4 ADD MSTORE PUSH1 0x40 DUP3 ADD MSTORE ADD MSTORE JUMP JUMPDEST SWAP4 SWAP1 SWAP4 PUSH1 0x0 SWAP5 DUP2 DUP7 MSTORE PUSH1 0x20 SWAP4 PUSH1 0x3 DUP6 MSTORE PUSH1 0x40 SWAP5 DUP6 DUP9 KECCAK256 SWAP2 PUSH1 0x1 DUP1 PUSH1 0xA0 SHL SUB SWAP3 DUP4 DUP6 AND SWAP1 DUP2 DUP12 MSTORE DUP4 MSTORE PUSH1 0xFF DUP9 DUP12 KECCAK256 SLOAD AND ISZERO PUSH2 0x536D JUMPI JUMPDEST DUP6 DUP11 MSTORE PUSH1 0x3 DUP4 MSTORE DUP8 DUP11 KECCAK256 DUP2 DUP12 MSTORE DUP4 MSTORE DUP8 DUP11 KECCAK256 PUSH1 0x1 PUSH1 0xFF NOT DUP3 SLOAD AND OR SWAP1 SSTORE DUP6 DUP11 MSTORE PUSH1 0x5 DUP4 MSTORE DUP8 DUP11 KECCAK256 SWAP1 DUP11 MSTORE DUP3 MSTORE DUP6 DUP8 DUP11 KECCAK256 SSTORE DUP3 PUSH1 0xC SLOAD AND DUP1 EXTCODESIZE ISZERO PUSH2 0x26AE JUMPI DUP9 SWAP2 DUP11 SWAP2 DUP7 DUP4 DUP10 PUSH2 0x528D DUP13 DUP15 MLOAD SWAP9 DUP10 SWAP8 DUP9 SWAP7 DUP8 SWAP6 PUSH4 0x95F41095 PUSH1 0xE0 SHL DUP8 MSTORE PUSH1 0x4 DUP8 ADD PUSH2 0x448E JUMP JUMPDEST SUB SWAP3 GAS CALL DUP1 ISZERO PUSH2 0x5350 JUMPI PUSH2 0x535A JUMPI JUMPDEST POP PUSH1 0x4 DUP2 DUP4 PUSH1 0xD SLOAD AND DUP9 MLOAD SWAP3 DUP4 DUP1 SWAP3 PUSH4 0x406AD645 PUSH1 0xE1 SHL DUP3 MSTORE GAS STATICCALL SWAP2 DUP3 ISZERO PUSH2 0x5350 JUMPI DUP10 SWAP3 PUSH2 0x5333 JUMPI JUMPDEST POP POP AND SWAP2 DUP3 PUSH2 0x52D8 JUMPI JUMPDEST POP POP POP POP POP POP POP JUMP JUMPDEST DUP3 EXTCODESIZE ISZERO PUSH2 0xA6E JUMPI SWAP1 DUP7 DUP1 SWAP5 SWAP4 SWAP3 PUSH2 0x5304 DUP8 MLOAD SWAP9 DUP10 SWAP7 DUP8 SWAP6 DUP7 SWAP5 PUSH4 0xC228038D PUSH1 0xE0 SHL DUP7 MSTORE PUSH1 0x4 DUP7 ADD PUSH2 0x51D0 JUMP JUMPDEST SUB SWAP3 GAS CALL SWAP1 DUP2 ISZERO PUSH2 0x4E53 JUMPI POP PUSH2 0x531F JUMPI JUMPDEST DUP1 DUP1 DUP1 DUP1 DUP1 PUSH2 0x52CF JUMP JUMPDEST PUSH2 0x5329 DUP3 SWAP2 PUSH2 0x40DA JUMP JUMPDEST PUSH2 0x2AC JUMPI DUP1 PUSH2 0x5315 JUMP JUMPDEST PUSH2 0x5349 SWAP3 POP DUP1 RETURNDATASIZE LT PUSH2 0x8A6 JUMPI PUSH2 0x897 DUP2 DUP4 PUSH2 0x413F JUMP JUMPDEST CODESIZE DUP1 PUSH2 0x52C5 JUMP JUMPDEST DUP8 MLOAD RETURNDATASIZE DUP12 DUP3 RETURNDATACOPY RETURNDATASIZE SWAP1 REVERT JUMPDEST PUSH2 0x5366 SWAP1 SWAP9 SWAP2 SWAP9 PUSH2 0x40DA JUMP JUMPDEST SWAP7 CODESIZE PUSH2 0x529C JUMP JUMPDEST DUP6 DUP11 MSTORE PUSH1 0x6 DUP4 MSTORE PUSH2 0x5380 DUP6 DUP10 DUP13 KECCAK256 PUSH2 0x46B5 JUMP JUMPDEST DUP1 DUP11 MSTORE PUSH1 0x8 DUP4 MSTORE PUSH2 0x5393 DUP7 DUP10 DUP13 KECCAK256 PUSH2 0x43F6 JUMP JUMPDEST PUSH2 0x5229 JUMP JUMPDEST ISZERO PUSH2 0x539F JUMPI JUMP JUMPDEST PUSH1 0x40 MLOAD PUSH3 0x461BCD PUSH1 0xE5 SHL DUP2 MSTORE PUSH1 0x20 PUSH1 0x4 DUP3 ADD MSTORE PUSH1 0x12 PUSH1 0x24 DUP3 ADD MSTORE PUSH18 0x11540E881CDD185ADA5B99C818DB1BDCD959 PUSH1 0x72 SHL PUSH1 0x44 DUP3 ADD MSTORE PUSH1 0x64 SWAP1 REVERT JUMPDEST PUSH1 0xD SLOAD PUSH1 0x40 MLOAD PUSH4 0x111A7989 PUSH1 0xE3 SHL DUP2 MSTORE PUSH1 0x20 SWAP3 SWAP2 PUSH1 0x1 PUSH1 0x1 PUSH1 0xA0 SHL SUB AND SWAP1 DUP4 DUP2 PUSH1 0x4 DUP2 DUP6 GAS STATICCALL SWAP1 DUP2 ISZERO PUSH2 0x4572 JUMPI PUSH1 0x0 SWAP2 PUSH2 0x54AA JUMPI JUMPDEST POP ISZERO PUSH2 0x5499 JUMPI DUP3 PUSH1 0x4 SWAP2 PUSH1 0x40 MLOAD SWAP3 DUP4 DUP1 SWAP3 PUSH4 0x2EAA712B PUSH1 0xE2 SHL DUP3 MSTORE GAS STATICCALL SWAP3 DUP4 ISZERO PUSH2 0x4572 JUMPI PUSH1 0x0 SWAP4 PUSH2 0x5467 JUMPI JUMPDEST POP POP PUSH1 0x9 ADD SLOAD PUSH1 0x3C DUP3 MUL SWAP2 DUP1 DUP4 DIV PUSH1 0x3C EQ SWAP1 ISZERO OR ISZERO PUSH2 0x439D JUMPI PUSH2 0x41F5 SWAP2 PUSH2 0x5460 SWAP2 PUSH2 0x4737 JUMP JUMPDEST TIMESTAMP LT PUSH2 0x5398 JUMP JUMPDEST DUP2 DUP2 SWAP5 SWAP3 SWAP4 SWAP5 RETURNDATASIZE DUP4 GT PUSH2 0x5492 JUMPI JUMPDEST PUSH2 0x547F DUP2 DUP4 PUSH2 0x413F JUMP JUMPDEST DUP2 ADD SUB SLT PUSH2 0x2AC JUMPI POP MLOAD SWAP1 PUSH1 0x9 CODESIZE PUSH2 0x543A JUMP JUMPDEST POP RETURNDATASIZE PUSH2 0x5475 JUMP JUMPDEST POP PUSH2 0x41F5 SWAP2 POP PUSH1 0x9 ADD SLOAD TIMESTAMP LT PUSH2 0x5398 JUMP JUMPDEST SWAP1 DUP5 DUP3 DUP2 RETURNDATASIZE DUP4 GT PUSH2 0x54D8 JUMPI JUMPDEST PUSH2 0x54C0 DUP2 DUP4 PUSH2 0x413F JUMP JUMPDEST DUP2 ADD SUB SLT PUSH2 0x2AC JUMPI POP PUSH2 0x54D2 SWAP1 PUSH2 0x4301 JUMP JUMPDEST CODESIZE PUSH2 0x540E JUMP JUMPDEST POP RETURNDATASIZE PUSH2 0x54B6 JUMP JUMPDEST PUSH1 0xD SLOAD PUSH1 0x40 MLOAD PUSH4 0x406AD645 PUSH1 0xE1 SHL DUP2 MSTORE PUSH1 0x1 PUSH1 0x1 PUSH1 0xA0 SHL SUB SWAP2 PUSH1 0x20 SWAP1 DUP3 SWAP1 PUSH1 0x4 SWAP1 DUP3 SWAP1 DUP7 AND GAS STATICCALL SWAP1 DUP2 ISZERO PUSH2 0x4572 JUMPI PUSH1 0x0 SWAP2 PUSH2 0x5562 JUMPI JUMPDEST POP AND SWAP2 DUP3 PUSH2 0x5522 JUMPI POP POP POP JUMP JUMPDEST DUP3 EXTCODESIZE ISZERO PUSH2 0xDD2 JUMPI PUSH1 0x44 PUSH1 0x0 SWAP3 DUP4 PUSH1 0x40 MLOAD SWAP6 DUP7 SWAP5 DUP6 SWAP4 PUSH3 0xFF4A73 PUSH1 0xE8 SHL DUP6 MSTORE PUSH1 0x4 DUP6 ADD MSTORE PUSH1 0x24 DUP5 ADD MSTORE GAS CALL DUP1 ISZERO PUSH2 0x4572 JUMPI PUSH2 0x5559 JUMPI POP JUMP JUMPDEST PUSH2 0x41F5 SWAP1 PUSH2 0x40DA JUMP JUMPDEST PUSH2 0x557A SWAP2 POP PUSH1 0x20 RETURNDATASIZE DUP2 GT PUSH2 0x8A6 JUMPI PUSH2 0x897 DUP2 DUP4 PUSH2 0x413F JUMP JUMPDEST CODESIZE PUSH2 0x5515 JUMP JUMPDEST PUSH1 0x0 JUMPDEST PUSH1 0xA SWAP1 DUP2 SLOAD SWAP2 DUP3 DUP3 LT ISZERO PUSH2 0x5635 JUMPI DUP4 SWAP3 PUSH2 0x559C DUP4 PUSH2 0x4091 JUMP JUMPDEST SWAP5 SWAP1 SLOAD PUSH1 0x3 SWAP6 DUP7 SHL SHR EQ PUSH2 0x55BB JUMPI POP POP PUSH2 0x55B6 SWAP2 POP PUSH2 0x43B3 JUMP JUMPDEST PUSH2 0x5583 JUMP JUMPDEST SWAP1 SWAP2 PUSH1 0x0 NOT SWAP2 DUP3 DUP2 ADD SWAP1 DUP2 GT PUSH2 0x439D JUMPI PUSH2 0x2D67 PUSH2 0x55DA PUSH2 0x55E6 SWAP3 PUSH2 0x4091 JUMP JUMPDEST SWAP1 SLOAD SWAP1 DUP8 SHL SHR SWAP3 PUSH2 0x4091 JUMP JUMPDEST SWAP1 SSTORE DUP2 SLOAD DUP1 ISZERO PUSH2 0x561F JUMPI DUP2 ADD SWAP3 PUSH2 0x55FC DUP5 PUSH2 0x4091 JUMP JUMPDEST DUP2 SWAP4 SWAP2 SLOAD SWAP3 SHL SHL NOT AND SWAP1 SSTORE SSTORE PUSH1 0x0 MSTORE PUSH1 0xB PUSH1 0x20 MSTORE PUSH1 0x40 PUSH1 0x0 KECCAK256 PUSH1 0xFF NOT DUP2 SLOAD AND SWAP1 SSTORE JUMP JUMPDEST PUSH4 0x4E487B71 PUSH1 0xE0 SHL PUSH1 0x0 MSTORE PUSH1 0x31 PUSH1 0x4 MSTORE PUSH1 0x24 PUSH1 0x0 REVERT JUMPDEST POP POP POP POP JUMP JUMPDEST ISZERO PUSH2 0x5642 JUMPI JUMP JUMPDEST PUSH1 0x40 MLOAD PUSH3 0x461BCD PUSH1 0xE5 SHL DUP2 MSTORE PUSH1 0x20 PUSH1 0x4 DUP3 ADD MSTORE PUSH1 0x10 PUSH1 0x24 DUP3 ADD MSTORE PUSH16 0x45503A207A65726F2061646472657373 PUSH1 0x80 SHL PUSH1 0x44 DUP3 ADD MSTORE PUSH1 0x64 SWAP1 REVERT JUMPDEST ISZERO PUSH2 0x5681 JUMPI JUMP JUMPDEST PUSH1 0x40 MLOAD PUSH3 0x461BCD PUSH1 0xE5 SHL DUP2 MSTORE PUSH1 0x20 PUSH1 0x4 DUP3 ADD MSTORE PUSH1 0x15 PUSH1 0x24 DUP3 ADD MSTORE PUSH21 0x22A81D1037B7363C9020B236B4B726B0B730B3B2B9 PUSH1 0x59 SHL PUSH1 0x44 DUP3 ADD MSTORE PUSH1 0x64 SWAP1 REVERT INVALID 0x4C GASLIMIT PUSH2 0xC5B0 DIV DUP5 0x24 SMOD SHR GT ISZERO 0xE9 CALL 0xE3 0x25 BASEFEE PUSH15 0x21C21333D968F21097B7B72D12AD08 0xAF 0xAE 0x4E DUP7 GT 0xE LOG2 CALLDATALOAD 0xD8 0xBC 0xDF 0xCF SWAP15 0x4C 0xE2 DUP10 PUSH17 0x591D583838C26CFA08286A38D1B18BE007 SWAP13 MSTORE8 AND MSIZE EQ SGT PREVRANDAO 0xCD 0x1F 0xD0 LOG4 CALLCODE DUP5 NOT 0x49 PUSH32 0x9722A3DAAFE3B4186F6B6457E06DFC24F0F2FB42E49FB4FA3FFA8ABB148CAB90 DUP11 0x1F 0xB8 CALLER JUMPDEST EXTCODEHASH SLT DUP11 ADDMOD 0xB2 MSIZE 0x4A CALL 0xE1 0xF 0xDD 0xE2 0xC5 0xCD SWAP12 SWAP3 0xE4 0x49 0xEE 0x25 0xDF ADD INVALID 0xBD LOG2 0xCB 0xEB 0xC5 SSTORE RETURNDATACOPY CODESIZE CALLCODE 0x25 0xF INVALID PUSH32 0x2D5143BCA164736F6C6343000814000A00000000000000000000000000000000 "},"methodIdentifiers":{"CREATOR_FEE_BPS()":"cc3cbd2a","NET_WINNER_BPS()":"7d549433","PLATFORM_FEE_BPS()":"539aa77f","TOTAL_FEE_BPS()":"6f28507c","activeMarkets(uint256)":"3adfe6d0","adminManager()":"a210b6a4","assertionGracePeriod()":"93fcf24d","calculateWinnings(uint256,address)":"f15cc406","cancelMarket(uint256)":"7c16cd9e","cancelMarketNoAssertion(uint256)":"87a6b0ff","claimRefund(uint256)":"5b7baf64","claimWinnings(uint256)":"677bd9ff","createMarket(string,bool,uint256,address,uint256,uint256,uint256,uint256,uint256,uint8,address,uint256)":"66cf7ed4","creatorCancelMarket(uint256)":"c3436e0c","defaultBondCurrency()":"209c1c94","disputeOracle(uint256,uint256)":"bf5f984b","endMarket(uint256)":"157bdcce","getMarket(uint256)":"eb44fdd3","getMarketStakers(uint256)":"6f59359e","getNextMarketId()":"fe53a6e8","getOptionPool(uint256,uint256,address)":"dc4ce349","getStakerCount(uint256)":"0ccf4467","getSupportPool(uint256,address)":"4f44289d","getSupporterCount(uint256)":"a30a0914","getTotalPool(uint256,address)":"f00fe321","getUserStake(uint256,address,address)":"847cf782","getUserSupport(uint256,address,address)":"256ba741","isActiveMarket(uint256)":"0d64cdbd","markMarketDeleted(uint256)":"fb87f2c3","markMarketPermanentlyRemoved(uint256)":"e0bd4acc","marketCreationFee()":"2ef1bdfa","marketStakers(uint256,uint256)":"d5f82707","marketSupporters(uint256,uint256)":"c22c62c3","markets(uint256)":"b1283e77","nextMarketId()":"406ef2ef","optimisticOracle()":"22302922","owner()":"8da5cb5b","placeStake(uint256,uint256)":"f4867591","placeStakeWithToken(uint256,uint256,uint256)":"f1b7dde3","renounceOwnership()":"715018a6","requestP2PResolution(uint256,uint256,bytes)":"8d0d180e","resolveP2PMarket(uint256)":"6d4476ec","resolvePriceFeedMarket(uint256)":"9a3a40d6","setAdminManager(address)":"bc160758","setAssertionGracePeriod(uint256)":"818ef5f6","setDefaultBondCurrency(address)":"a550725d","setOptimisticOracle(address)":"bf5c3252","settleOracle(uint256)":"569946c5","supportMarket(uint256,uint256)":"f204072f","transferOwnership(address)":"f2fde38b","treasury()":"61d027b3","userHasStaked(uint256,address)":"304bf1f1","userHasSupported(uint256,address)":"287f57b5","userMarketHistory(address,uint256)":"98a17671","userStakeOptions(uint256,address)":"d8c5dd67","withdrawSupport(uint256)":"3e32a76c"}}}}}