{"contracts/P2PMarketManager.sol":{"EventPool":{"abi":[{"inputs":[{"internalType":"address","name":"initialOwner","type":"address"},{"internalType":"address payable","name":"_treasury","type":"address"},{"internalType":"address","name":"_adminManager","type":"address"}],"stateMutability":"nonpayable","type":"constructor"},{"inputs":[{"internalType":"address","name":"owner","type":"address"}],"name":"OwnableInvalidOwner","type":"error"},{"inputs":[{"internalType":"address","name":"account","type":"address"}],"name":"OwnableUnauthorizedAccount","type":"error"},{"inputs":[{"internalType":"address","name":"token","type":"address"}],"name":"SafeERC20FailedOperation","type":"error"},{"anonymous":false,"inputs":[{"indexed":true,"internalType":"uint256","name":"marketId","type":"uint256"},{"indexed":false,"internalType":"string","name":"reason","type":"string"}],"name":"MarketCancelled","type":"event"},{"anonymous":false,"inputs":[{"indexed":true,"internalType":"uint256","name":"marketId","type":"uint256"},{"indexed":true,"internalType":"address","name":"creator","type":"address"},{"indexed":false,"internalType":"string","name":"ipfsHash","type":"string"},{"indexed":false,"internalType":"bool","name":"isMultiOption","type":"bool"},{"indexed":false,"internalType":"uint256","name":"maxOptions","type":"uint256"},{"indexed":false,"internalType":"address","name":"paymentToken","type":"address"},{"indexed":false,"internalType":"uint256","name":"minStake","type":"uint256"},{"indexed":false,"internalType":"uint256","name":"startTime","type":"uint256"},{"indexed":false,"internalType":"uint256","name":"stakeEndTime","type":"uint256"},{"indexed":false,"internalType":"uint256","name":"endTime","type":"uint256"},{"indexed":false,"internalType":"uint256","name":"resolutionEndTime","type":"uint256"}],"name":"MarketCreated","type":"event"},{"anonymous":false,"inputs":[{"indexed":true,"internalType":"uint256","name":"marketId","type":"uint256"},{"indexed":false,"internalType":"uint256","name":"winningOption","type":"uint256"}],"name":"MarketResolved","type":"event"},{"anonymous":false,"inputs":[{"indexed":true,"internalType":"address","name":"previousOwner","type":"address"},{"indexed":true,"internalType":"address","name":"newOwner","type":"address"}],"name":"OwnershipTransferred","type":"event"},{"anonymous":false,"inputs":[{"indexed":true,"internalType":"uint256","name":"marketId","type":"uint256"},{"indexed":true,"internalType":"address","name":"user","type":"address"},{"indexed":false,"internalType":"uint256","name":"amount","type":"uint256"}],"name":"RefundClaimed","type":"event"},{"anonymous":false,"inputs":[{"indexed":true,"internalType":"uint256","name":"marketId","type":"uint256"},{"indexed":true,"internalType":"address","name":"user","type":"address"},{"indexed":false,"internalType":"uint256","name":"option","type":"uint256"},{"indexed":false,"internalType":"uint256","name":"amount","type":"uint256"}],"name":"StakePlaced","type":"event"},{"anonymous":false,"inputs":[{"indexed":true,"internalType":"uint256","name":"marketId","type":"uint256"},{"indexed":true,"internalType":"address","name":"user","type":"address"},{"indexed":false,"internalType":"uint256","name":"amount","type":"uint256"}],"name":"WinningsClaimed","type":"event"},{"inputs":[],"name":"CREATOR_FEE_BPS","outputs":[{"internalType":"uint256","name":"","type":"uint256"}],"stateMutability":"view","type":"function"},{"inputs":[],"name":"PLATFORM_FEE_BPS","outputs":[{"internalType":"uint256","name":"","type":"uint256"}],"stateMutability":"view","type":"function"},{"inputs":[],"name":"VERIFIER_FEE_BPS","outputs":[{"internalType":"uint256","name":"","type":"uint256"}],"stateMutability":"view","type":"function"},{"inputs":[{"internalType":"uint256","name":"","type":"uint256"}],"name":"activeMarkets","outputs":[{"internalType":"uint256","name":"","type":"uint256"}],"stateMutability":"view","type":"function"},{"inputs":[],"name":"adminManager","outputs":[{"internalType":"address","name":"","type":"address"}],"stateMutability":"view","type":"function"},{"inputs":[{"internalType":"uint256","name":"marketId","type":"uint256"}],"name":"autoResolve","outputs":[],"stateMutability":"nonpayable","type":"function"},{"inputs":[{"internalType":"uint256","name":"marketId","type":"uint256"},{"internalType":"address","name":"user","type":"address"}],"name":"calculateWinnings","outputs":[{"internalType":"uint256","name":"","type":"uint256"}],"stateMutability":"view","type":"function"},{"inputs":[{"internalType":"uint256","name":"marketId","type":"uint256"}],"name":"cancelMarket","outputs":[],"stateMutability":"nonpayable","type":"function"},{"inputs":[{"internalType":"uint256","name":"marketId","type":"uint256"}],"name":"claimRefund","outputs":[],"stateMutability":"nonpayable","type":"function"},{"inputs":[{"internalType":"uint256","name":"marketId","type":"uint256"}],"name":"claimWinnings","outputs":[],"stateMutability":"nonpayable","type":"function"},{"inputs":[{"internalType":"string","name":"ipfsHash","type":"string"},{"internalType":"bool","name":"isMultiOption","type":"bool"},{"internalType":"uint256","name":"maxOptions","type":"uint256"},{"internalType":"address","name":"paymentToken","type":"address"},{"internalType":"uint256","name":"minStake","type":"uint256"},{"internalType":"uint256","name":"creatorDeposit","type":"uint256"},{"internalType":"uint256","name":"creatorOutcome","type":"uint256"},{"internalType":"uint256","name":"stakeDurationMinutes","type":"uint256"},{"internalType":"uint256","name":"resolutionDurationMinutes","type":"uint256"}],"name":"createMarket","outputs":[{"internalType":"uint256","name":"","type":"uint256"}],"stateMutability":"payable","type":"function"},{"inputs":[{"internalType":"uint256","name":"marketId","type":"uint256"}],"name":"creatorCancelMarket","outputs":[],"stateMutability":"nonpayable","type":"function"},{"inputs":[{"internalType":"uint256","name":"marketId","type":"uint256"}],"name":"endMarket","outputs":[],"stateMutability":"nonpayable","type":"function"},{"inputs":[],"name":"getActiveMarketCount","outputs":[{"internalType":"uint256","name":"","type":"uint256"}],"stateMutability":"view","type":"function"},{"inputs":[],"name":"getActiveMarkets","outputs":[{"internalType":"uint256[]","name":"","type":"uint256[]"}],"stateMutability":"view","type":"function"},{"inputs":[],"name":"getAllMarketIds","outputs":[{"internalType":"uint256[]","name":"","type":"uint256[]"}],"stateMutability":"view","type":"function"},{"inputs":[{"internalType":"uint256","name":"marketId","type":"uint256"}],"name":"getMarket","outputs":[{"components":[{"internalType":"address","name":"creator","type":"address"},{"internalType":"string","name":"ipfsHash","type":"string"},{"internalType":"bool","name":"isMultiOption","type":"bool"},{"internalType":"uint256","name":"maxOptions","type":"uint256"},{"internalType":"address","name":"paymentToken","type":"address"},{"internalType":"uint256","name":"minStake","type":"uint256"},{"internalType":"uint256","name":"creatorDeposit","type":"uint256"},{"internalType":"uint256","name":"creatorOutcome","type":"uint256"},{"internalType":"uint256","name":"startTime","type":"uint256"},{"internalType":"uint256","name":"stakeEndTime","type":"uint256"},{"internalType":"uint256","name":"endTime","type":"uint256"},{"internalType":"uint256","name":"resolutionEndTime","type":"uint256"},{"internalType":"enum EventPool.MarketState","name":"state","type":"uint8"},{"internalType":"uint256","name":"winningOption","type":"uint256"},{"internalType":"bool","name":"isResolved","type":"bool"}],"internalType":"struct EventPool.Market","name":"","type":"tuple"}],"stateMutability":"view","type":"function"},{"inputs":[{"internalType":"uint256","name":"marketId","type":"uint256"}],"name":"getMarketInfo","outputs":[{"components":[{"internalType":"address","name":"creator","type":"address"},{"internalType":"string","name":"ipfsHash","type":"string"},{"internalType":"bool","name":"isMultiOption","type":"bool"},{"internalType":"uint256","name":"maxOptions","type":"uint256"},{"internalType":"address","name":"paymentToken","type":"address"},{"internalType":"uint256","name":"minStake","type":"uint256"},{"internalType":"uint256","name":"creatorDeposit","type":"uint256"},{"internalType":"uint256","name":"creatorOutcome","type":"uint256"},{"internalType":"uint256","name":"startTime","type":"uint256"},{"internalType":"uint256","name":"stakeEndTime","type":"uint256"},{"internalType":"uint256","name":"endTime","type":"uint256"},{"internalType":"uint256","name":"resolutionEndTime","type":"uint256"},{"internalType":"enum EventPool.MarketState","name":"state","type":"uint8"},{"internalType":"uint256","name":"winningOption","type":"uint256"},{"internalType":"bool","name":"isResolved","type":"bool"}],"internalType":"struct EventPool.Market","name":"market","type":"tuple"},{"internalType":"uint256","name":"totalPool","type":"uint256"},{"internalType":"uint256","name":"supportPool","type":"uint256"},{"internalType":"uint256","name":"stakerCount","type":"uint256"},{"internalType":"uint256","name":"supporterCount","type":"uint256"},{"internalType":"address[]","name":"stakers","type":"address[]"},{"internalType":"address[]","name":"supporters","type":"address[]"},{"internalType":"string","name":"tokenSymbol","type":"string"}],"stateMutability":"view","type":"function"},{"inputs":[{"internalType":"uint256","name":"marketId","type":"uint256"}],"name":"getMarketResolvingVerifiers","outputs":[{"internalType":"address[]","name":"","type":"address[]"}],"stateMutability":"view","type":"function"},{"inputs":[{"internalType":"uint256","name":"marketId","type":"uint256"}],"name":"getMarketStakers","outputs":[{"internalType":"address[]","name":"","type":"address[]"}],"stateMutability":"view","type":"function"},{"inputs":[],"name":"getNextMarketId","outputs":[{"internalType":"uint256","name":"","type":"uint256"}],"stateMutability":"view","type":"function"},{"inputs":[{"internalType":"uint256","name":"marketId","type":"uint256"},{"internalType":"uint256","name":"option","type":"uint256"},{"internalType":"address","name":"token","type":"address"}],"name":"getOptionPool","outputs":[{"internalType":"uint256","name":"","type":"uint256"}],"stateMutability":"view","type":"function"},{"inputs":[{"internalType":"uint256","name":"marketId","type":"uint256"}],"name":"getStakerCount","outputs":[{"internalType":"uint256","name":"","type":"uint256"}],"stateMutability":"view","type":"function"},{"inputs":[{"internalType":"uint256","name":"marketId","type":"uint256"},{"internalType":"address","name":"token","type":"address"}],"name":"getSupportPool","outputs":[{"internalType":"uint256","name":"","type":"uint256"}],"stateMutability":"view","type":"function"},{"inputs":[{"internalType":"uint256","name":"marketId","type":"uint256"}],"name":"getSupporterCount","outputs":[{"internalType":"uint256","name":"","type":"uint256"}],"stateMutability":"view","type":"function"},{"inputs":[{"internalType":"uint256","name":"marketId","type":"uint256"},{"internalType":"address","name":"token","type":"address"}],"name":"getTotalPool","outputs":[{"internalType":"uint256","name":"","type":"uint256"}],"stateMutability":"view","type":"function"},{"inputs":[{"internalType":"address","name":"user","type":"address"}],"name":"getUserMarketHistory","outputs":[{"internalType":"uint256[]","name":"","type":"uint256[]"}],"stateMutability":"view","type":"function"},{"inputs":[{"internalType":"uint256","name":"marketId","type":"uint256"},{"internalType":"address","name":"user","type":"address"},{"internalType":"address","name":"token","type":"address"}],"name":"getUserStake","outputs":[{"internalType":"uint256","name":"","type":"uint256"}],"stateMutability":"view","type":"function"},{"inputs":[{"internalType":"uint256","name":"marketId","type":"uint256"},{"internalType":"address","name":"user","type":"address"},{"internalType":"address","name":"token","type":"address"}],"name":"getUserSupport","outputs":[{"internalType":"uint256","name":"","type":"uint256"}],"stateMutability":"view","type":"function"},{"inputs":[{"internalType":"uint256","name":"","type":"uint256"}],"name":"isActiveMarket","outputs":[{"internalType":"bool","name":"","type":"bool"}],"stateMutability":"view","type":"function"},{"inputs":[{"internalType":"uint256","name":"marketId","type":"uint256"}],"name":"isMarketActive","outputs":[{"internalType":"bool","name":"","type":"bool"}],"stateMutability":"view","type":"function"},{"inputs":[{"internalType":"uint256","name":"marketId","type":"uint256"}],"name":"markMarketDeleted","outputs":[],"stateMutability":"nonpayable","type":"function"},{"inputs":[{"internalType":"uint256","name":"marketId","type":"uint256"}],"name":"markMarketPermanentlyRemoved","outputs":[],"stateMutability":"nonpayable","type":"function"},{"inputs":[],"name":"marketCreationFee","outputs":[{"internalType":"uint256","name":"","type":"uint256"}],"stateMutability":"view","type":"function"},{"inputs":[{"internalType":"uint256","name":"","type":"uint256"},{"internalType":"uint256","name":"","type":"uint256"}],"name":"marketResolvingVerifiers","outputs":[{"internalType":"address","name":"","type":"address"}],"stateMutability":"view","type":"function"},{"inputs":[{"internalType":"uint256","name":"","type":"uint256"},{"internalType":"uint256","name":"","type":"uint256"}],"name":"marketStakers","outputs":[{"internalType":"address","name":"","type":"address"}],"stateMutability":"view","type":"function"},{"inputs":[{"internalType":"uint256","name":"","type":"uint256"},{"internalType":"uint256","name":"","type":"uint256"}],"name":"marketSupporters","outputs":[{"internalType":"address","name":"","type":"address"}],"stateMutability":"view","type":"function"},{"inputs":[{"internalType":"uint256","name":"","type":"uint256"}],"name":"markets","outputs":[{"internalType":"address","name":"creator","type":"address"},{"internalType":"string","name":"ipfsHash","type":"string"},{"internalType":"bool","name":"isMultiOption","type":"bool"},{"internalType":"uint256","name":"maxOptions","type":"uint256"},{"internalType":"address","name":"paymentToken","type":"address"},{"internalType":"uint256","name":"minStake","type":"uint256"},{"internalType":"uint256","name":"creatorDeposit","type":"uint256"},{"internalType":"uint256","name":"creatorOutcome","type":"uint256"},{"internalType":"uint256","name":"startTime","type":"uint256"},{"internalType":"uint256","name":"stakeEndTime","type":"uint256"},{"internalType":"uint256","name":"endTime","type":"uint256"},{"internalType":"uint256","name":"resolutionEndTime","type":"uint256"},{"internalType":"enum EventPool.MarketState","name":"state","type":"uint8"},{"internalType":"uint256","name":"winningOption","type":"uint256"},{"internalType":"bool","name":"isResolved","type":"bool"}],"stateMutability":"view","type":"function"},{"inputs":[],"name":"nextMarketId","outputs":[{"internalType":"uint256","name":"","type":"uint256"}],"stateMutability":"view","type":"function"},{"inputs":[],"name":"owner","outputs":[{"internalType":"address","name":"","type":"address"}],"stateMutability":"view","type":"function"},{"inputs":[{"internalType":"uint256","name":"marketId","type":"uint256"},{"internalType":"uint256","name":"option","type":"uint256"}],"name":"placeStake","outputs":[],"stateMutability":"payable","type":"function"},{"inputs":[{"internalType":"uint256","name":"marketId","type":"uint256"},{"internalType":"uint256","name":"option","type":"uint256"},{"internalType":"uint256","name":"amount","type":"uint256"}],"name":"placeStakeWithToken","outputs":[],"stateMutability":"nonpayable","type":"function"},{"inputs":[],"name":"renounceOwnership","outputs":[],"stateMutability":"nonpayable","type":"function"},{"inputs":[{"internalType":"uint256","name":"marketId","type":"uint256"},{"internalType":"uint256","name":"_winningOption","type":"uint256"}],"name":"resolveMarket","outputs":[],"stateMutability":"nonpayable","type":"function"},{"inputs":[{"internalType":"address","name":"_adminManager","type":"address"}],"name":"setAdminManager","outputs":[],"stateMutability":"nonpayable","type":"function"},{"inputs":[{"internalType":"uint256","name":"marketId","type":"uint256"},{"internalType":"uint256","name":"amount","type":"uint256"}],"name":"supportMarket","outputs":[],"stateMutability":"payable","type":"function"},{"inputs":[{"internalType":"address","name":"newOwner","type":"address"}],"name":"transferOwnership","outputs":[],"stateMutability":"nonpayable","type":"function"},{"inputs":[],"name":"treasury","outputs":[{"internalType":"address payable","name":"","type":"address"}],"stateMutability":"view","type":"function"},{"inputs":[{"internalType":"uint256","name":"","type":"uint256"},{"internalType":"address","name":"","type":"address"}],"name":"userHasStaked","outputs":[{"internalType":"bool","name":"","type":"bool"}],"stateMutability":"view","type":"function"},{"inputs":[{"internalType":"uint256","name":"","type":"uint256"},{"internalType":"address","name":"","type":"address"}],"name":"userHasSupported","outputs":[{"internalType":"bool","name":"","type":"bool"}],"stateMutability":"view","type":"function"},{"inputs":[{"internalType":"address","name":"","type":"address"},{"internalType":"uint256","name":"","type":"uint256"}],"name":"userMarketHistory","outputs":[{"internalType":"uint256","name":"","type":"uint256"}],"stateMutability":"view","type":"function"},{"inputs":[{"internalType":"uint256","name":"","type":"uint256"},{"internalType":"address","name":"","type":"address"}],"name":"userStakeOptions","outputs":[{"internalType":"uint256","name":"","type":"uint256"}],"stateMutability":"view","type":"function"},{"inputs":[{"internalType":"uint256","name":"marketId","type":"uint256"}],"name":"withdrawSupport","outputs":[],"stateMutability":"nonpayable","type":"function"},{"stateMutability":"payable","type":"receive"}],"evm":{"bytecode":{"linkReferences":{},"object":"608034620000ff57601f6200604838819003918201601f19168301916001600160401b038311848410176200010457808492606094604052833981010312620000ff576200004d816200011a565b60208201516001600160a01b03808216939091849003620000ff576200007760408392016200011a565b9216918215620000e6576000549360018060a01b03199380858716176000558360405196167f8be0079c531659141344cd1fd0a4f28419497f9722a3daafe3b4186f6b6457e0600080a3600160095583600754161760075516906008541617600855615f189081620001308239f35b604051631e4fbdf760e01b815260006004820152602490fd5b600080fd5b634e487b7160e01b600052604160045260246000fd5b51906001600160a01b0382168203620000ff5756fe608080604052600436101561001d575b50361561001b57600080fd5b005b600090813560e01c9081630ccf44671461448d575080630d64cdbd1461445e578063157bdcce14614381578063256ba741146142ec578063287f57b5146142a35780632bdbb884146142715780632ee4018f146142555780632ef1bdfa14614232578063304bf1f1146141e957806333d6b46e146141765780633adfe6d01461414b5780633e32a76c14613ef65780633ec7919314613add578063406ef2ef14613abf5780634f44289d14613a76578063539aa77f14613a595780635b7baf64146136e05780635da3247a146136c257806360557333146136aa57806361d027b314613681578063638b022c14612862578063677bd9ff1461245d5780636f59359e146123ef578063715018a6146123a75780637c16cd9e146122e7578063847cf782146122a35780638da5cb5b1461227c578063902315ec146121fa57806398a17671146121a4578063a210b6a41461217b578063a30a091414612151578063a5e973c3146120cf578063b1138b5014611e3d578063b1283e7714611d39578063b85ed63614611c85578063bc16075814611bfb578063c22c62c314611bc9578063c3436e0c14611a84578063cc3cbd2a14611a67578063d5f8270714611a1c578063d8c5dd67146119d5578063dc4ce34914611982578063e0bd4acc146117f8578063eb44fdd3146116ec578063f00fe32114611649578063f15cc40614611254578063f1b7dde314610e0f578063f204072f1461099b578063f2fde38b14610925578063f486759114610449578063f849f69e146103d6578063fb87f2c31461028d5763fe53a6e80361000f573461028a578060031936011261028a576020600954604051908152f35b80fd5b503461028a576020806003193601126103d257600435906102de60018060a01b036102bd81600854163314615d11565b6102ca6009548510615d5c565b838552600183526040852054161515615da7565b8183526001815260ff600c6040852001541660058110156103be5760041461037d576060600080516020615e638339815191529183855260018152600c6040862001600460ff19825416179055838552600b815260ff60408620541661036f575b6017604051918083528201527626b0b935b2ba103232b632ba32b210313c9030b236b4b760491b6040820152a280f35b61037884615c57565b61033f565b6064906040519062461bcd60e51b82526004820152601a602482015279115d995b9d141bdbdb0e88105b1c9958591e4819195b195d195960321b6044820152fd5b634e487b7160e01b84526021600452602484fd5b5080fd5b503461028a57602036600319011261028a576004358152600b60205260ff6040822054168061040d575b6020906040519015158152f35b50600160205260ff600c60408320015416906005821015610435575060046020911415610400565b634e487b7160e01b81526021600452602490fd5b5061045336614515565b600854604051634d9b423560e11b8152600481018490529192916020916001600160a01b0391908216908381602481855afa80156108875787906108eb575b61049d915015614b57565b83865260018352604086209060ff600c8301541660058110156108d7576104c49015614b9f565b60405163111a798960e31b81528481600481855afa80156108cc5785918991610892575b506107e8575b5050841515806107da575b61050290614c43565b60048101908282541661077357600561051f910154341015614c8b565b858080803486600754165af1610533614990565b501561071b57908591848352600284526040832033600052845260ff60406000205416156106ee575b84835260028452604083203360005284526040600020600160ff1982541617905584835260048452604083203360005284528560406000205581806007541691541690803b15610687576040516395f4109560e01b815291849183918290849082906105d1908d903490338f60048701614a1c565b03925af19081156106cf5783916106da575b505060048382600854166040519283809263406ad64560e11b82525afa9081156106cf578391610696575b50168061063a575b50506040519283523490830152600080516020615ec383398151915260403393a380f35b803b156103d25781604051809263c228038d60e01b8252818381610664348c338d60048601614a79565b03925af1801561068b57156106165761067c90614718565b610687578338610616565b8380fd5b6040513d84823e3d90fd5b90508381813d83116106c8575b6106ad8183614762565b810103126106c4576106be90614a4c565b3861060e565b8280fd5b503d6106a3565b6040513d85823e3d90fd5b6106e390614718565b6103d25781386105e3565b848352600584526107023360408520614cd7565b338352600c8452610716856040852061496d565b61055c565b60405162461bcd60e51b815260048101849052602a60248201527f4576656e74506f6f6c3a20455448207472616e7366657220746f2054726561736044820152691d5c9e4819985a5b195960b21b6064820152608490fd5b60405162461bcd60e51b815260048101859052603960248201527f4576656e74506f6f6c3a2054686973206d61726b6574207573657320746f6b65604482015278373996103ab9b290383630b1b2a132ba2bb4ba342a37b5b2b760391b6064820152608490fd5b5060038101548511156104f9565b604051632eaa712b60e21b815291829060049082905afa908115610887578791610855575b506009820154603c820291808304603c14901517156108415761083a9161083391614bea565b4210614bf7565b38836104ee565b634e487b7160e01b88526011600452602488fd5b90508381813d8311610880575b61086c8183614762565b8101031261087b57513861080d565b600080fd5b503d610862565b6040513d89823e3d90fd5b82819392503d83116108c5575b6108a98183614762565b810103126108c1576108bb85916148ac565b386104e8565b8780fd5b503d61089f565b6040513d8a823e3d90fd5b634e487b7160e01b88526021600452602488fd5b508381813d831161091e575b6109018183614762565b8101031261091a5761091561049d916148ac565b610492565b8680fd5b503d6108f7565b503461028a57602036600319011261028a5761093f6144ca565b610947614880565b6001600160a01b03908116908115610982576000548260018060a01b031982161760005516600080516020615e83833981519152600080a380f35b604051631e4fbdf760e01b815260048101849052602490fd5b506109a536614515565b600854604051632b5ba3b960e01b815233600482015260249493916001600160a01b039160209183169082818981855afa9081156108875791839189938991610dd1575b506109f490156148b9565b60405192838092634d9b423560e11b82528860048301525afa8015610bef578690610d97575b610a25915015614b57565b828552600181526040852060ff600c820154166005811015610d8457610a4b9015614b9f565b6009810154421015610d4057600490610a65861515614d12565b018054831680610cc25750843403610c7e57610a82341515614d12565b858080803487600754165af1610a96614990565b5015610c27578596505b838652600382526040862033600052825260ff6040600020541615610c0e575b83865260038252604086203360005282526040600020600160ff1982541617905582806007541691541690803b1561091a57858791610b18938360405180968195829463c15d980760e01b8452338d60048601614d77565b03925af1908115610bef578691610bfa575b505060048183600854166040519283809263406ad64560e11b82525afa918215610bef578692610bb5575b5050169182610b6357505050f35b823b15610bb057610b8f92849283604051809681958294638f46a5a160e01b8452339060048501614d9f565b03925af1801561068b57610ba05750f35b610ba990614718565b61028a5780f35b505050fd5b90809250813d8311610be8575b610bcc8183614762565b81010312610be457610bdd90614a4c565b3880610b55565b8480fd5b503d610bc2565b6040513d88823e3d90fd5b610c0390614718565b610be4578438610b2a565b83865260068252610c223360408820614cd7565b610ac0565b60405162461bcd60e51b815260048101839052602a818901527f4576656e74506f6f6c3a20455448207472616e7366657220746f2074726561736044820152691d5c9e4819985a5b195960b21b6064820152608490fd5b60405162461bcd60e51b815260048101839052601f818901527f4576656e74506f6f6c3a20496e636f72726563742045544820616d6f756e74006044820152606490fd5b34610ce15786975085610cdc918560075416903390614abf565b610aa0565b60405162461bcd60e51b8152600481018490526032818a01527f4576656e74506f6f6c3a204e6f204554482073686f756c642062652073656e7460448201527108199bdc881d1bdad95b881cdd5c1c1bdc9d60721b6064820152608490fd5b60405162461bcd60e51b815260048101839052601f818901527f4576656e74506f6f6c3a20537570706f727420706572696f6420656e646564006044820152606490fd5b634e487b7160e01b875260216004528787fd5b508181813d8311610dca575b610dad8183614762565b81010312610dc657610dc1610a25916148ac565b610a1a565b8580fd5b503d610da3565b92809294508391503d8311610e08575b610deb8183614762565b8101031261091a5787916109f4610e0285936148ac565b906109e9565b503d610de1565b503461028a57606036600319011261028a576004356024359060443560018060a01b0380600854169060405191634d9b423560e11b83528460048401526020928381602481855afa80156108cc57889061121e575b610e6f915015614b57565b84875260018352604087209060ff600c83015416600581101561120a57610e969015614b9f565b60405163111a798960e31b81528481600481855afa80156111ff5785918a916111c5575b50611132575b505085151580611124575b610ed490614c43565b6004810190828254169081156110c8578589949392610efc6005610f09940154831015614c8b565b8460075416903390614abf565b858352600284526040832033600052845260ff604060002054161561109b575b85835260028452604083203360005284526040600020600160ff1982541617905585835260048452604083203360005284528660406000205581806007541691541690803b15610687578584918993838a610f9c604051978896879586946395f4109560e01b8652339060048701614a1c565b03925af19081156106cf578391611087575b505060048382600854166040519283809263406ad64560e11b82525afa9081156106cf578391611052575b501680611003575b5050604051938452830152600080516020615ec383398151915260403393a380f35b803b156103d25760405163c228038d60e01b8152908290829081838161102f8a8d338e60048601614a79565b03925af1801561068b5715610fe15761104790614718565b610be4578438610fe1565b90508381813d8311611080575b6110698183614762565b810103126106c45761107a90614a4c565b38610fd9565b503d61105f565b61109090614718565b6103d2578138610fae565b858352600584526110af3360408520614cd7565b338352600c84526110c3866040852061496d565b610f29565b60405162461bcd60e51b815260048101869052602e60248201527f4576656e74506f6f6c3a2054686973206d61726b65742075736573205045505560448201526d0b081d5cd9481c1b1858d950995d60921b6064820152608490fd5b506003810154861115610ecb565b604051632eaa712b60e21b815291829060049082905afa9081156108cc578891611198575b506009820154603c820291808304603c14901517156111845761117d9161083391614bea565b3883610ec0565b634e487b7160e01b89526011600452602489fd5b90508381813d83116111be575b6111af8183614762565b8101031261087b575138611157565b503d6111a5565b82819392503d83116111f8575b6111dc8183614762565b810103126111f4576111ee85916148ac565b38610eba565b8880fd5b503d6111d2565b6040513d8b823e3d90fd5b634e487b7160e01b89526021600452602489fd5b508381813d831161124d575b6112348183614762565b810103126108c157611248610e6f916148ac565b610e64565b503d61122a565b503461028a57604036600319011261028a5761126e6144b4565b90600435815260016020526040812060ff600c82015416600581101561163557600261129a9114615267565b600d8101546112aa8115156152b3565b60043583526002602052604083209360018060a01b03948582166000526020526112db60ff604060002054166152fe565b84600754166040516307c7a72d60e01b8152602081806113018660043560048401614a60565b0381855afa8015610bef5786906115fa575b61131e915015615347565b85600485015416936040519463423e7bc160e11b865260208680611349848860043560048501614e16565b0381865afa9586156108875787966115c6575b5060405163dc4ce34960e01b81529260208480611380858a60048035908501615390565b0381845afa9384156108cc578894611592575b50879260036001910154905b818111156114f15750506113cf92916020916040518080968194634f44289d60e01b835260043560048401614a60565b03915afa9081156108875787916114bb575b6113eb925061492e565b81611402575050505050602091505b604051908152f35b9394938061143f57505060209460043584526004865260408420911660005284526040600020541460001461143857505b6113fa565b90506113fa565b93929190949560043584526004602052604084209116600052602052604060002054146000146114af576123288083029283040361149b575091611495611433926114906127106020960484614905565b6153b1565b9061492e565b634e487b7160e01b81526011600452602490fd5b915050602091506113fa565b90506020823d6020116114e9575b816114d660209383614762565b8101031261087b576113eb9151906113e1565b3d91506114c9565b878103611507575b6115029061493b565b61139f565b9360405163dc4ce34960e01b81526020818061152a888a60043560048501615390565b0381875afa908115611587578b91611553575b5061154b906115029261492e565b9490506114f9565b90506020813d60201161157f575b8161156e60209383614762565b8101031261087b575161150261153d565b3d9150611561565b6040513d8d823e3d90fd5b9093506020813d6020116115be575b816115ae60209383614762565b8101031261087b57519238611393565b3d91506115a1565b9095506020813d6020116115f2575b816115e260209383614762565b8101031261087b5751943861135c565b3d91506115d5565b506020813d60201161162d575b8161161460209383614762565b81010312610dc65761162861131e916148ac565b611313565b3d9150611607565b634e487b7160e01b83526021600452602483fd5b503461028a57604036600319011261028a576116929060206116696144b4565b60018060a01b03600754166040518080968194633d1e7ba160e11b835260043560048401614a60565b03915afa9081156116e057906116ae575b602090604051908152f35b506020813d82116116d8575b816116c760209383614762565b8101031261087b57602090516116a3565b3d91506116ba565b604051903d90823e3d90fd5b503461028a57602036600319011261028a5760406117f49161170c615df2565b50600435815260016020522060ff600e604051926117298461472b565b80546001600160a01b039081168552611744600183016147da565b60208601528360028301541615156040860152600382015460608601526004820154166080850152600581015460a0850152600681015460c0850152600781015460e085015260088101546101008501526009810154610120850152600a810154610140850152600b8101546101608501526117ca83600c83015416610180860161494a565b600d8101546101a085015201541615156101c082015260405191829160208352602083019061461a565b0390f35b503461028a576020806003193601126103d2576004359061182860018060a01b036102bd81600854163314615d11565b8183526001815260ff600c6040852001541660058110156103be57600080516020615e6383398151915291611861600260809314615267565b8385526001815284600e60408220828155826001820161188181546147a0565b80611942575b505060028201556000600382015582600482015560006005820155600060068201556000600782015560006008820155600060098201556000600a8201556000600b82015582600c8201556000600d8201550155838552600b815260ff604086205416611934575b6026604051918083528201527f5065726d616e656e746c792072656d6f76656420616674657220636c61696d206040820152651c195c9a5bd960d21b6060820152a280f35b61193d84615c57565b6118ef565b601f811160011461195c575060009150555b823880611887565b9080600091845261197b601f898620940160051c840160018501614956565b5555611954565b503461028a57606036600319011261028a57604435906001600160a01b03808316830361087b576116929260209160075416604051808096819463dc4ce34960e01b835260243560043560048501615390565b503461028a57604036600319011261028a5760406119f16144b4565b9160043581526004602052209060018060a01b03166000526020526020604060002054604051908152f35b503461028a57611a2b36614515565b9190815260056020526040812090815483101561028a576020611a4e848461455c565b905460405160039290921b1c6001600160a01b03168152f35b503461028a578060031936011261028a57602060405161015e8152f35b503461028a57602036600319011261028a5760043580825260016020526040822080546001600160a01b03163303611b795760ff600c8201541660058110156103be5790611ad460099215614b9f565b015461a8bf198101908111611b6557421015611b2057604051611b1d91611afa82614747565b601182527010dc99585d1bdc8818d85b98d95b1b1959607a1b60208301526153d1565b80f35b60405162461bcd60e51b815260206004820152601d60248201527f4576656e74506f6f6c3a20546f6f206c61746520746f2063616e63656c0000006044820152606490fd5b634e487b7160e01b83526011600452602483fd5b60405162461bcd60e51b815260206004820152602260248201527f4576656e74506f6f6c3a204f6e6c792063726561746f722063616e2063616e63604482015261195b60f21b6064820152608490fd5b503461028a57611bd836614515565b9190815260066020526040812090815483101561028a576020611a4e848461455c565b503461028a57602036600319011261028a57611c156144ca565b611c1d614880565b6001600160a01b03168015611c4357600880546001600160a01b03191691909117905580f35b60405162461bcd60e51b815260206004820152601a6024820152794576656e74506f6f6c3a20496e76616c6964206164647265737360301b6044820152606490fd5b503461028a578060031936011261028a576009546000198082019190818311611d2557611cb18361541a565b92611cbf6040519485614762565b808452611cce601f199161541a565b0136602085013760015b828110611ced57604051806117f48682614574565b818101818111611d11579080611d06611d0c9387615431565b5261493b565b611cd8565b634e487b7160e01b86526011600452602486fd5b634e487b7160e01b84526011600452602484fd5b503461028a57602036600319011261028a576004358152600160205260409020600160a01b60019003808254169160018101611d74906147da565b91600282015460ff16916003810154916004820154166005820154600683015460078401546008850154600986015491600a87015493600b88015495600c89015460ff1697600d8a015499600e015460ff169a6040519e8f9e8f9182526101e08060208401528201611de5916145d2565b9d151560408201526060015260808d015260a08c015260c08b015260e08a01526101008901526101208801526101408701526101608601526101808501611e2b916145f7565b6101a084015215156101c08301520390f35b503461028a576020806003193601126103d25760043590818352600181526040832090600c8201805460ff811660058110156120bb5790611e8360016004949314614e36565b600e850190815491611e9860ff841615614e8e565b600854604051634ffe2a8b60e01b81526001600160a01b0398909690918891889182908c165afa80156120725788968b9161207d575b5060409060248b83519b8c938492633313865560e21b84526004840152165afa978815612072578a908b9961203e575b5015611ffb57600d0187905560ff1992831660011790551660021790558490611f278486615445565b611f3085615689565b60048382600854166040519283809263406ad64560e11b82525afa9081156106cf578391611fc6575b501680611f7d575b5050600080516020615ea383398151915291604051908152a280f35b803b156103d25781809160446040518094819362ff4a7360e81b83528a60048401528960248401525af1801561068b5715611f6157611fbb90614718565b610687578338611f61565b90508381813d8311611ff4575b611fdd8183614762565b810103126106c457611fee90614a4c565b38611f59565b503d611fd3565b6064876040519062461bcd60e51b825280600483015260248201527f4576656e74506f6f6c3a204e6f207265736f6c7574696f6e20726561636865646044820152fd5b905061206391985060403d60401161206b575b61205b8183614762565b810190614f0d565b979038611efe565b503d612051565b6040513d8c823e3d90fd5b809750888092503d83116120b4575b6120968183614762565b810103126120b05760406120aa8997614a4c565b90611ece565b8980fd5b503d61208c565b634e487b7160e01b87526021600452602487fd5b503461028a578060031936011261028a57604051600a80548083529083526020808301937fc65a7bb8d6351c1cf70c95a316cc6a92839c986682d98bc35f958f4883f9d2a892915b82821061213a576117f48561212e81890382614762565b60405191829182614574565b835486529485019460019384019390910190612117565b503461028a57602036600319011261028a5760406020916004358152600683522054604051908152f35b503461028a578060031936011261028a576008546040516001600160a01b039091168152602090f35b503461028a57604036600319011261028a576121be6144ca565b6001600160a01b03168152600c602052604081208054602435929083101561028a5760206121ec848461455c565b90546040519160031b1c8152f35b503461028a576020806003193601126103d2576004358252600d81526040822091604051809384918482549182815201918452848420935b8582821061225d5750505061224992500383614762565b6117f46040519282849384528301906146db565b85546001600160a01b0316845260019586019588955093019201612232565b503461028a578060031936011261028a57546040516001600160a01b039091168152602090f35b503461028a576116929060206122b8366144e0565b60075460405163423e7bc160e11b81529687946001600160a01b03909216938593849390919060048501614e16565b503461028a57602036600319011261028a576004358082526001602052604082209060ff600c8301541660058110156103be5760016123269114614e36565b600b82015442106123535761234560ff600e611b1d9401541615614e8e565b61234d614ed8565b906153d1565b60405162461bcd60e51b815260206004820152602660248201527f4576656e74506f6f6c3a205265736f6c7574696f6e20706572696f64206e6f7460448201526508195b99195960d21b6064820152608490fd5b503461028a578060031936011261028a576123c0614880565b600080546001600160a01b0319811682556001600160a01b0316600080516020615e838339815191528280a380f35b503461028a576020806003193601126103d2576004358252600581526040822091604051809384918482549182815201918452848420935b8582821061243e5750505061224992500383614762565b85546001600160a01b0316845260019586019588955093019201612427565b503461028a576020908160031936011261028a576004359182825260018152604082209260ff600c8501541660058110156103be57600261249e9114615267565b600d840154916124af8315156152b3565b81845260028152604084203360005281526124d160ff604060002054166152fe565b6007546040516307c7a72d60e01b81526001600160a01b03918216949190838180612500338960048401614a60565b0381895afa801561088757879061282c575b61251d915015615347565b600487015416906040519063423e7bc160e11b825283828061254486338a60048501614e16565b0381895afa9182156108875787926127fd575b5060405163dc4ce34960e01b8082529885828061257988878c60048501615390565b03818b5afa9182156111ff5789926127ce575b50889960036001920154915b82811115612737575050604051634f44289d60e01b8152899594939291508a8782806125c8898d60048401614a60565b03818d5afa918215610887578792612703575b50906125e69161492e565b81612672575050505081945b803b156106c45785839161261f9383604051809681958294632f0041ed60e11b8452338d60048601614d77565b03925af1801561068b5761265e575b50507f5380cf6fe903b40c6d5a9e0dfbca2f3a423f0a21520b4d5947ed5169bdba946d906040519384523393a380f35b61266790614718565b61068757838561262e565b806126a657505085845260048552604084203360005285526040600020541460001461269e57946125f2565b5081946125f2565b91878692949596526004875260408220336000528752604060002054146000146126f757506123288082029182040361084157916114956126f1926114906127108b97960484614905565b946125f2565b939250505081946125f2565b88809298508193503d8311612730575b61271d8183614762565b8101031261087b575189956125e66125db565b503d612713565b84810361274d575b6127489061493b565b612598565b9a61276c88888c8f8d604051958694859384938b855260048501615390565b03915afa9081156127c3578c91612794575b5061278c906127489261492e565b9b905061273f565b90508881813d83116127bc575b6127ab8183614762565b8101031261087b575161274861277e565b503d6127a1565b6040513d8e823e3d90fd5b9091508581813d83116127f6575b6127e68183614762565b8101031261087b5751903861258c565b503d6127dc565b9091508381813d8311612825575b6128158183614762565b8101031261087b57519038612557565b503d61280b565b508381813d831161285b575b6128428183614762565b8101031261091a5761285661251d916148ac565b612512565b503d612838565b5061012036600319011261028a57600435906001600160401b03821161028a573660238301121561028a57816004013561289b81614785565b926128a96040519485614762565b81845236602483830101116106c457818392602460209301838701378401015260243515156024350361028a576064356001600160a01b038116900361087b57600854604051632b5ba3b960e01b81523360048201526001600160a01b0390911690602081602481855afa80156106cf578390613646575b61292c9150156148b9565b8251156136025760026044351015806135f5575b156135b0576084351561356c5760a4351561351c5760c43515158061350e575b156134be576040516317916e0160e01b8152602081600481855afa9081156106cf57839161348c575b5060e435106134375760e43561010435106133d957602435156132fe576064356001600160a01b03161561329f57604051633462561360e11b81526064356001600160a01b0316600482015290602090829060249082905afa90811561068b578291613265575b5015613208575b670de0b6b3a764000034106131b757603c60e4350260e4358104603c1460e43515171561306257612a28904261492e565b603c6101043502610104358104603c1461010435151715611b6557612a4d904261492e565b6202a30081018111611b655760095492612a668461493b565b600955604051612a758161472b565b3381526020808201878152602435151560408085019190915260443560608501526064356001600160a01b03908116608086015260843560a086015260a43560c086015260c43560e086015242610100860152610120850188905261014085018790526202a300870161016086015261018085018690526101a085018690526101c0850186905288865260019093528420835181546001600160a01b0319169316929092178255518051919291906001600160401b0382116131a3578190612b4060018601546147a0565b601f8111613165575b50602090601f83116001146130f65786926130eb575b50508160011b916000199060031b1c19161760018301555b612b9660408201511515600284019060ff801983541691151516179055565b606081015160038301556004820160018060a01b0360808301511660018060a01b031982541617905560a0810151600583015560c0810151600683015560e0810151600783015561010081015160088301556101208101516009830155610140810151600a830155610160810151600b830155600c820161018082015160058110156130d757612c569392600e926101c09260ff801983541691161790556101a0810151600d8501550151151591019060ff801983541691151516179055565b600a54600160401b8110156130c15784612c79826001612c929401600a5561452b565b90919082549060031b91821b91600019901b1916179055565b838152600b60205260408120805460ff191660011790556064356001600160a01b03166130765760a435670de0b6b3a76400000180670de0b6b3a76400001161306257341061301e57612d0581808080670de0b6b3a764000060018060a01b038254165af1612cff614990565b506149c0565b8080808060a43560018060a01b03600754165af1612d21614990565b5015612fba575b838152600260205260408120336000526020526040600020600160ff198254161790558381526004602052604081203360005260205260c435604060002055338152600c602052612d7c846040832061496d565b6007546001600160a01b0316803b156103d2576040516395f4109560e01b81529082908290818381612dbb60c43560a435606435338f60048701614a1c565b03925af1801561068b57908291612fa6575b505060085460405163406ad64560e11b815290602090829060049082906001600160a01b03165afa90811561068b578291612f6c575b506001600160a01b038116612ea6575b50507f5d0726a1bb5ec8c87527e69ba86d988202e885fad8f2b4aacd618793d6f297b26020946202a3008593612e566040519361012085526101208501906145d2565b95602435151589850152604435604085015260018060a01b0360643516606085015260843560808501524260a085015260c08401528060e0840152016101008201528033940390a3604051908152f35b6001600160a01b0381163b156103d25760405163782a780560e11b8152828180612ed4338a60048401614a60565b0381836001600160a01b0387165af180156106cf57908391612f58575b50506001600160a01b0381163b156103d25760405163c228038d60e01b81529082908290818381612f2c60a43560c435338e60048601614a79565b03926001600160a01b03165af1801561068b5715612e1357612f4e8291614718565b61028a5780612e13565b612f6190614718565b6103d2578138612ef1565b90506020813d602011612f9e575b81612f8760209383614762565b810103126103d257612f9890614a4c565b38612e03565b3d9150612f7a565b612faf90614718565b61028a578038612dcd565b60405162461bcd60e51b815260206004820152603660248201527f4576656e74506f6f6c3a2043726561746f72206465706f736974207472616e7360448201527519995c881d1bc8151c99585cdd5c9e4819985a5b195960521b6064820152608490fd5b60405162461bcd60e51b815260206004820152601c60248201527b4576656e74506f6f6c3a20496e73756666696369656e74205045505560201b6044820152606490fd5b634e487b7160e01b82526011600452602482fd5b61309a81808080670de0b6b3a764000060018060a01b038254165af1612cff614990565b6007546130bc9060a435906001600160a01b0390811690339060643516614abf565b612d28565b634e487b7160e01b600052604160045260246000fd5b634e487b7160e01b85526021600452602485fd5b015190503880612b5f565b9250600185018652602086209086935b601f198416851061314a576001945083601f19811610613131575b505050811b016001830155612b77565b015160001960f88460031b161c19169055388080613121565b81810151835560209485019460019093019290910190613106565b6131939060018701885260208820601f850160051c81019160208610613199575b601f0160051c0190614956565b38612b49565b9091508190613186565b634e487b7160e01b85526041600452602485fd5b60405162461bcd60e51b8152602060048201526024808201527f4576656e74506f6f6c3a20496e73756666696369656e74206372656174696f6e6044820152632066656560e01b6064820152608490fd5b60405162461bcd60e51b815260206004820152602f60248201527f4576656e74506f6f6c3a20546f6b656e206e6f7420737570706f72746564206660448201526e37b91036bab63a3496b7b83a34b7b760891b6064820152608490fd5b90506020813d602011613297575b8161328060209383614762565b810103126103d257613291906148ac565b386129f0565b3d9150613273565b60405162461bcd60e51b815260206004820152603160248201527f4576656e74506f6f6c3a204d756c74692d6f7074696f6e206d61726b657473206044820152703932b8bab4b93290281928103a37b5b2b760791b6064820152608490fd5b6064356001600160a01b0316613315575b506129f7565b604051633462561360e11b81526064356001600160a01b0316600482015290602090829060249082905afa90811561068b57829161339f575b501561335a573861330f565b60405162461bcd60e51b815260206004820152601e60248201527f4576656e74506f6f6c3a20546f6b656e206e6f7420737570706f7274656400006044820152606490fd5b90506020813d6020116133d1575b816133ba60209383614762565b810103126103d2576133cb906148ac565b3861334e565b3d91506133ad565b60405162461bcd60e51b815260206004820152603060248201527f4576656e74506f6f6c3a205265736f6c7574696f6e206d75737420626520616660448201526f1d195c881cdd185ad9481c195c9a5bd960821b6064820152608490fd5b60405162461bcd60e51b815260206004820152602760248201527f4576656e74506f6f6c3a2042656c6f77206d696e696d756d207374616b6520646044820152663ab930ba34b7b760c91b6064820152608490fd5b90506020813d6020116134b6575b816134a760209383614762565b8101031261087b575138612989565b3d915061349a565b60405162461bcd60e51b815260206004820152602260248201527f4576656e74506f6f6c3a20496e76616c69642063726561746f72206f7574636f6044820152616d6560f01b6064820152608490fd5b5060443560c4351115612960565b60405162461bcd60e51b815260206004820152602260248201527f4576656e74506f6f6c3a20496e76616c69642063726561746f72206465706f736044820152611a5d60f21b6064820152608490fd5b60405162461bcd60e51b815260206004820152601c60248201527b4576656e74506f6f6c3a20496e76616c6964206d696e207374616b6560201b6044820152606490fd5b60405162461bcd60e51b815260206004820152601e60248201527f4576656e74506f6f6c3a20496e76616c6964206d6178206f7074696f6e7300006044820152606490fd5b50600a6044351115612940565b60405162461bcd60e51b815260206004820152601c60248201527b08aeccadce8a0deded8744092dcecc2d8d2c84092a08ca640d0c2e6d60231b6044820152606490fd5b506020813d602011613679575b8161366060209383614762565b810103126106c45761367461292c916148ac565b612921565b3d9150613653565b503461028a578060031936011261028a576007546040516001600160a01b039091168152602090f35b503461028a57611b1d6136bc36614515565b90614f2a565b503461028a578060031936011261028a576020600a54604051908152f35b503461028a576020806003193601126103d25760043580835260018252604083209160ff600c8401541660058110156130d757600303613a1557818452600281526040842033600052815260ff6040600020541680156139f5575b156139b1578392828552600282526040852033600052825260ff6040600020541661390b575b828552600382526040852033600052825260ff60406000205416613863575b831561381e5760075460049091015485916001600160a01b039182169116803b156106c4578583916137cb938360405180968195829463164fcd7d60e21b8452338d60048601614d77565b03925af1801561068b5761380a575b50507ff3f402280ef0a7905e124aa621b65eaeb2725c343e8b36d398ed78c29daf285c906040519384523393a380f35b61381390614718565b6106875783386137da565b60405162461bcd60e51b815260048101839052601e60248201527f4576656e74506f6f6c3a204e6f20726566756e6420617661696c61626c6500006044820152606490fd5b9261389a908260018060a01b0380600754169060048801541690604051808096819463256ba74160e01b8352338b60048501614e16565b03915afa908115610bef5786916138da575b6138b6925061492e565b928285526003825260408520336000528252604060002060ff198154169055613780565b90508282813d8311613904575b6138f18183614762565b8101031261087b576138b69151906138ac565b503d6138e7565b92506139428160018060a01b0380600754169060048701541690604051808095819463423e7bc160e11b8352338a60048501614e16565b03915afa9081156139a6578591613979575b50928285526002825260408520336000528252604060002060ff198154169055613761565b90508181813d831161399f575b6139908183614762565b8101031261087b575138613954565b503d613986565b6040513d87823e3d90fd5b6064906040519062461bcd60e51b82526004820152601d60248201527f4576656e74506f6f6c3a204e6f207374616b6520746f20726566756e640000006044820152fd5b50818452600381526040842033600052815260ff6040600020541661373b565b6064906040519062461bcd60e51b82526004820152601f60248201527f4576656e74506f6f6c3a204d61726b6574206e6f742063616e63656c6c6564006044820152fd5b503461028a578060031936011261028a5760206040516101f48152f35b503461028a57604036600319011261028a57611692906020613a966144b4565b60018060a01b03600754166040518080968194634f44289d60e01b835260043560048401614a60565b503461028a578060031936011261028a576020600954604051908152f35b503461028a57602036600319011261028a57613af7615df2565b50600435815260016020526040812060ff600e60405192613b178461472b565b80546001600160a01b03168452613b30600182016147da565b602085015260028101548316151560408501526003810154606085015260048101546001600160a01b03166080850152600581015460a0850152600681015460c0850152600781015460e085015260088101546101008501526009810154610120850152600a810154610140850152600b810154610160850152600c810154613bbf908416610180860161494a565b600d8101546101a085015201541615156101c08201526007546080820151604051633d1e7ba160e11b8152916001600160a01b039081169160209184918291613c0f911660048035908401614a60565b0381845afa918215613eb6578492613ec1575b506080830151604051634f44289d60e01b8152929160209184919082908190613c5a906001600160a01b031660048035908401614a60565b03915afa918215613eb6578492613e82575b506004358452600560205260408420546006602052604085205460056020526040862091604051808460208296549384815201908a5260208a20928a5b818110613e60575050613cbe92500384614762565b600435875260066020526040872094604051808760208299549384815201908b5260208b20928b5b818110613e3e575050613cfb92500387614762565b6008546080880151604051637d85959b60e11b81526001600160a01b039182166004820152918a9183916024918391165afa9889156116e0578099613da3575b613d65896117f48c613d958c613d878d8d8d8d8d6040519b8c9b6101008d526101008d019061461a565b9460208c015260408b015260608a0152608089015287820360a08901526146db565b9085820360c08701526146db565b9083820360e08501526145d2565b909198503d8082843e613db68184614762565b8201916020818403126103d2578051906001600160401b0382116106c4570182601f820112156103d257805191613dec83614785565b93613dfa6040519586614762565b8385526020848401011161028a575093613d879383613e2d613d9598946117f49b986020613d659f9c98810191016145af565b9a5093509396819550959195613d3b565b84546001600160a01b031683526001948501948b945060209093019201613ce6565b84546001600160a01b0316835260019485019488945060209093019201613ca9565b9091506020813d602011613eae575b81613e9e60209383614762565b8101031261087b57519038613c6c565b3d9150613e91565b6040513d86823e3d90fd5b91506020823d602011613eee575b81613edc60209383614762565b8101031261087b579051906020613c22565b3d9150613ecf565b503461028a576020806003193601126103d257600435808352600182526040832060038352604084203385528352613f3460ff604086205416614dc0565b60ff600c8201541660058110156130d757806140cf5750600981015461a8bf1981019081116140bb57421015614054575b8360018060a01b036004816007541693015416916040519063256ba74160e01b8252858280613f9987338a60048501614e16565b0381845afa9182156106cf578392614025575b50613fb8821515614dc0565b803b156106c457613fe293836040518096819582946317be0b2f60e11b8452338b60048601614d77565b03925af18015613eb657614012575b5082526003815260408220903360005252604060002060ff19815416905580f35b61401e90939193614718565b9138613ff1565b9091508581813d831161404d575b61403d8183614762565b810103126106c457519038613fac565b503d614033565b60405162461bcd60e51b815260048101849052603960248201527f4576656e74506f6f6c3a2043616e6e6f742077697468647261772077697468696044820152781b880c4c881a1bdd5c9cc81bd9881cdd185ada5b99c8195b99603a1b6064820152608490fd5b634e487b7160e01b85526011600452602485fd5b60048114908115614140575b50613f655760405162461bcd60e51b815260048101849052603260248201527f4576656e74506f6f6c3a2043616e6e6f7420776974686472617720696e2063756044820152717272656e74206d61726b657420737461746560701b6064820152608490fd5b6003915014386140db565b503461028a57602036600319011261028a5760043590600a5482101561028a5760206121ec8361452b565b503461028a576020806003193601126103d2576001600160a01b036141996144ca565b168252600c815260408220916040518092808554928381520194835280832092905b8282106141d2576117f48561212e81890382614762565b8354865294850194600193840193909101906141bb565b503461028a57604036600319011261028a5760ff604060209261420a6144b4565b6004358252600285528282206001600160a01b03909116825284522054604051911615158152f35b503461028a578060031936011261028a576020604051670de0b6b3a76400008152f35b503461028a578060031936011261028a57602060405160968152f35b503461028a5761428036614515565b91908152600d6020526040812090815483101561028a576020611a4e848461455c565b503461028a57604036600319011261028a5760ff60406020926142c46144b4565b6004358252600385528282206001600160a01b03909116825284522054604051911615158152f35b503461028a5761432f6020614300366144e0565b60075460405163256ba74160e01b81529586946001600160a01b03909216938593849390919060048501614e16565b03915afa90811561068b57829161434c575b602082604051908152f35b90506020813d8211614379575b8161436660209383614762565b810103126103d257602091505138614341565b3d9150614359565b503461028a57602036600319011261028a57600435808252600160205260408220600c81019081549060ff8216600581101561444a57906143c4600a9215614b9f565b015442106143f65760ff19166001179055808252600b602052604082205460ff166143ed575080f35b611b1d90615c57565b60405162461bcd60e51b815260206004820152602660248201527f4576656e74506f6f6c3a205265736f6c7574696f6e2074696d65206e6f742072604482015265195858da195960d21b6064820152608490fd5b634e487b7160e01b86526021600452602486fd5b503461028a57602036600319011261028a5760ff60406020926004358152600b84522054166040519015158152f35b9050346103d25760203660031901126103d257604060209260043581526005845220548152f35b602435906001600160a01b038216820361087b57565b600435906001600160a01b038216820361087b57565b606090600319011261087b57600435906001600160a01b0390602435828116810361087b5791604435908116810361087b5790565b604090600319011261087b576004359060243590565b600a5481101561454657600a60005260206000200190600090565b634e487b7160e01b600052603260045260246000fd5b80548210156145465760005260206000200190600090565b6020908160408183019282815285518094520193019160005b82811061459b575050505090565b83518552938101939281019260010161458d565b60005b8381106145c25750506000910152565b81810151838201526020016145b2565b906020916145eb815180928185528580860191016145af565b601f01601f1916010190565b9060058210156146045752565b634e487b7160e01b600052602160045260246000fd5b9060018060a01b039182815116825261464260208201516101e08060208601528401906145d2565b9260408201511515604084015260608201516060840152608082015116608083015260a081015160a083015260c081015160c083015260e081015160e083015261010080820151908301526101208082015190830152610140808201519083015261016080820151908301526146c161018080830151908401906145f7565b6101a080820151908301526101c080910151151591015290565b90815180825260208080930193019160005b8281106146fb575050505090565b83516001600160a01b0316855293810193928101926001016146ed565b6001600160401b0381116130c157604052565b6101e081019081106001600160401b038211176130c157604052565b604081019081106001600160401b038211176130c157604052565b601f909101601f19168101906001600160401b038211908210176130c157604052565b6001600160401b0381116130c157601f01601f191660200190565b90600182811c921680156147d0575b60208310146147ba57565b634e487b7160e01b600052602260045260246000fd5b91607f16916147af565b90604051918260008254926147ee846147a0565b90818452600194858116908160001461485d575060011461481a575b505061481892500383614762565b565b9093915060005260209081600020936000915b8183106148455750506148189350820101388061480a565b8554888401850152948501948794509183019161482d565b91505061481894506020925060ff191682840152151560051b820101388061480a565b6000546001600160a01b0316330361489457565b60405163118cdaa760e01b8152336004820152602490fd5b5190811515820361087b57565b156148c057565b60405162461bcd60e51b815260206004820152601d60248201527f4576656e74506f6f6c3a2057616c6c657420626c61636b6c69737465640000006044820152606490fd5b8181029291811591840414171561491857565b634e487b7160e01b600052601160045260246000fd5b9190820180921161491857565b60001981146149185760010190565b60058210156146045752565b818110614961575050565b60008155600101614956565b80549190600160401b8310156130c15782612c799160016148189501815561455c565b3d156149bb573d906149a182614785565b916149af6040519384614762565b82523d6000602084013e565b606090565b156149c757565b60405162461bcd60e51b815260206004820152602760248201527f4576656e74506f6f6c3a20466565207472616e7366657220746f206f776e65726044820152660819985a5b195960ca1b6064820152608490fd5b9081526001600160a01b039182166020820152911660408201526060810191909152608081019190915260a00190565b51906001600160a01b038216820361087b57565b9081526001600160a01b03909116602082015260400190565b909493926060926080830196835260018060a01b0316602083015260408201520152565b6001600160a01b03918216815291166020820152604081019190915260600190565b9290600091614af8602094614aea604051938492888401966323b872dd60e01b885260248501614a9d565b03601f198101835282614762565b519082855af115614b4b576000513d614b4257506001600160a01b0381163b155b614b205750565b604051635274afe760e01b81526001600160a01b039091166004820152602490fd5b60011415614b19565b6040513d6000823e3d90fd5b15614b5e57565b60405162461bcd60e51b8152602060048201526019602482015278115d995b9d141bdbdb0e8813585c9ad95d0819195b195d1959603a1b6044820152606490fd5b15614ba657565b60405162461bcd60e51b815260206004820152601c60248201527b4576656e74506f6f6c3a204d61726b6574206e6f742061637469766560201b6044820152606490fd5b9190820391821161491857565b15614bfe57565b60405162461bcd60e51b815260206004820152601f60248201527f4576656e74506f6f6c3a205374616b696e6720706572696f6420656e646564006044820152606490fd5b15614c4a57565b60405162461bcd60e51b815260206004820152601960248201527822bb32b73a2837b7b61d1024b73b30b634b21037b83a34b7b760391b6044820152606490fd5b15614c9257565b60405162461bcd60e51b815260206004820152601e60248201527f4576656e74506f6f6c3a2042656c6f77206d696e696d756d207374616b6500006044820152606490fd5b8054600160401b8110156130c157614cf49160018201815561455c565b819291549060031b9160018060a01b03809116831b921b1916179055565b15614d1957565b60405162461bcd60e51b815260206004820152603060248201527f4576656e74506f6f6c3a20537570706f727420616d6f756e74206d757374206260448201526f0652067726561746572207468616e20360841b6064820152608490fd5b9081526001600160a01b03918216602082015291166040820152606081019190915260800190565b9081526001600160a01b039091166020820152604081019190915260600190565b15614dc757565b60405162461bcd60e51b815260206004820152602160248201527f4576656e74506f6f6c3a204e6f20737570706f727420746f20776974686472616044820152607760f81b6064820152608490fd5b9081526001600160a01b0391821660208201529116604082015260600190565b15614e3d57565b60405162461bcd60e51b8152602060048201526024808201527f4576656e74506f6f6c3a204d61726b6574206e6f7420696e20656e64656420736044820152637461746560e01b6064820152608490fd5b15614e9557565b60405162461bcd60e51b815260206004820152601b60248201527a115d995b9d141bdbdb0e88105b1c9958591e481c995cdbdb1d9959602a1b6044820152606490fd5b60405190614ee582614747565b601982527814995cdbdb1d5d1a5bdb881c195c9a5bd908195e1c1a5c9959603a1b6020830152565b919082604091031261087b576020614f24836148ac565b92015190565b919091600092818452602090600182526040808620600c810160ff815416600581101561120a576001614f5d9114614e36565b83151580615259575b1561520b57600e8201614f7d60ff82541615614e8e565b600b8301544210156151f7576008548451634ffe2a8b60e01b81526001600160a01b03949188908290600490829089165afa9081156151b057859187918d916151ba575b5060248b83519485938492633313865560e21b84526004840152165afa80156151b05787908c928d9161518d575b5082615183575b50501561512057600d01859055805460ff1990811660011790915581541660021790556150238386615445565b61502c85615689565b600484826008541684519283809263406ad64560e11b82525afa9081156151165788916150e1575b501680615077575b50600080516020615ea38339815191529394955051908152a2565b8087913b156103d2578190604484518094819362ff4a7360e81b83528a60048401528860248401525af180156150d757600080516020615ea3833981519152959697506150c8575b8695945061505c565b6150d190614718565b386150bf565b82513d89823e3d90fd5b90508481813d831161510f575b6150f88183614762565b810103126108c15761510990614a4c565b38615054565b503d6150ee565b83513d8a823e3d90fd5b845162461bcd60e51b815260048101889052603660248201527f4576656e74506f6f6c3a20496e73756666696369656e74207665726966696572604482015275103b37ba32b9903337b9103a3434b99037b83a34b7b760511b6064820152608490fd5b1490508638614ff6565b90506151a7919250873d891161206b5761205b8183614762565b91909138614fef565b86513d8d823e3d90fd5b925050508781813d83116151f0575b6151d38183614762565b810103126151ec57856151e68692614a4c565b38614fc1565b8a80fd5b503d6151c9565b50505050505061481891925061234d614ed8565b825162461bcd60e51b815260048101869052602160248201527f4576656e74506f6f6c3a20496e76616c69642077696e6e696e67206f7074696f6044820152603760f91b6064820152608490fd5b506003820154841115614f66565b1561526e57565b60405162461bcd60e51b815260206004820152601e60248201527f4576656e74506f6f6c3a204d61726b6574206e6f74207265736f6c76656400006044820152606490fd5b156152ba57565b60405162461bcd60e51b815260206004820152601c60248201527b22bb32b73a2837b7b61d102737903bb4b73734b7339037b83a34b7b760211b6044820152606490fd5b1561530557565b60405162461bcd60e51b815260206004820152601a602482015279115d995b9d141bdbdb0e88139bc81cdd185ad9481c1b1858d95960321b6044820152606490fd5b1561534e57565b60405162461bcd60e51b815260206004820152601a602482015279115d995b9d141bdbdb0e88105b1c9958591e4818db185a5b595960321b6044820152606490fd5b90815260208101919091526001600160a01b03909116604082015260600190565b81156153bb570490565b634e487b7160e01b600052601260045260246000fd5b90615415600080516020615e6383398151915291836000526001602052600c604060002001600360ff198254161790556040519182916020835260208301906145d2565b0390a2565b6001600160401b0381116130c15760051b60200190565b80518210156145465760209160051b010190565b60085460408051634ffe2a8b60e01b8152909493916001600160a01b039160209160049190839082908490829088165afa801561566357849160009161562c575b50885163549af3b360e11b81529591166000868481845afa95861561562157600096615587575b5060005b865181101561557b578985848a6154e78a6154cc878e615431565b5116945194859384936321dc9b5960e21b85528b8501615390565b0381865afa90811561557057600091615536575b509061550a9161550f5761493b565b6154b1565b88600052600d86526155318b60002088615529848c615431565b511690614cd7565b61493b565b908682813d8311615569575b61554c8183614762565b8101031261028a57509061556261550a926148ac565b90916154fb565b503d615542565b8b513d6000823e3d90fd5b50505050505050509050565b9590953d8083833e6155998183614762565b81019085818303126106c4578051906001600160401b038211610687570181601f820112156106c4578051906155ce8261541a565b936155db8d519586614762565b828552878086019360051b83010193841161028a575086809101915b838310615609575050505094386154ad565b819061561484614a4c565b81520191019086906155f7565b89513d6000823e3d90fd5b91508382813d831161565c575b6156438183614762565b8101031261028a57506156568491614a4c565b38615486565b503d615639565b88513d6000823e3d90fd5b6001600160a01b039091168152602081019190915260400190565b600090808252602090600182526040918284209084906001926003810154600d820154945b81811115615bb357505060018060a01b0393849260079684885416916156f58a60049883858b808b019d8e5416958695519586938493634f44289d60e01b85528401614a60565b0381895afa918215615b23578d9493928f928c92889492615b76575b50846157238795949361573b9361492e565b975163dc4ce34960e01b81529a8b9485948501615390565b0381885afa958615615b6c578c8a918f98615b2f575b508583926157718693519485938493633d1e7ba160e11b85528401614a60565b0381895afa928315615b23578e93615af3575b505061015e948583029383159684860414871715615ae0576127108095049460968502858104609614891715615acb57819004976101f49081870291878304141715615acb57049761595a575050506157f0906157ea866157e5878661492e565b61492e565b90614bea565b94816158ed575b505081615886575b50509061580b9161492e565b938461581b575b50505050505050565b8190541692541690823b15610dc6579184939186809461584e97519788958694859363f0824f3360e01b8552840161566e565b03925af190811561587d5750615869575b8080808080615812565b6158738291614718565b61028a578061585f565b513d84823e3d90fd5b848854168588541691813b156158e957908b929183896158b98e5197889687958694633afb1f3f60e11b86528501614d9f565b03925af180156158df57908991156157ff576158d490614718565b6108c15787386157ff565b88513d8b823e3d90fd5b8b80fd5b86808b541691541690878a541691813b1561595657908d9291838b8f61592690519788968795869463112cd22360e01b86528501614a9d565b03925af1801561594c57908b91156157f75761594190614718565b6120b05789386157f7565b8a513d8d823e3d90fd5b8d80fd5b9092509a9690929394959a615979575b50505050505050505050505050565b879084615a66575b505050505081615a01575b50508461599f575b80808080808061596a565b8190541692541690823b15610dc657918493918680946159d29751978895869485936348fef59560e01b8552840161566e565b03925af190811561587d57506159ed575b8080808080615994565b6159f78291614718565b61028a57806159e3565b83835416908487541690823b156151ec5791615a3693918b80948c5196879586948593633afb1f3f60e11b85528d8501614d9f565b03925af18015615a5c579088911561598c57615a5190614718565b61091a57863861598c565b87513d8a823e3d90fd5b5416813b15615ac757908c9291838a615a928f519788968795869463112cd22360e01b86528501614a9d565b03925af18015615abd57615aaa575b80808681615981565b615ab690999199614718565b9738615aa1565b89513d8c823e3d90fd5b8c80fd5b5050634e487b7160e01b8f5260118b5260248ffd5b634e487b7160e01b8f5260118b5260248ffd5b9080929350813d8311615b1c575b615b0b8183614762565b81010312615ac75751903880615784565b503d615b01565b8e8e51903d90823e3d90fd5b92938095969798508092508391503d8311615b65575b615b4f8183614762565b81010312615ac757519493929190888c85615751565b503d615b45565b8c513d8f823e3d90fd5b935093948096508092508391503d8311615bac575b615b958183614762565b8101031261595657518c93929185918b9184615711565b503d615b8b565b858103615bc9575b615bc49061493b565b6156ae565b9387848660018060a01b038a816007541691615c00600491828b01541696519687958694859463dc4ce34960e01b86528501615390565b03915afa908115615abd578a91615c28575b50615c2090615bc49261492e565b949050615bbb565b90508481813d8311615c50575b615c3f8183614762565b810103126120b05751615bc4615c12565b503d615c35565b60005b600a9081549182821015615d0b578392615c738361452b565b949054600395861b1c14615c92575050615c8d915061493b565b615c5a565b9091600019918083019190821161491857612c79615cb2615cbe9361452b565b905490871b1c9161452b565b81548015615cf557810192615cd28461452b565b81939154921b1b1916905555600052600b602052604060002060ff198154169055565b634e487b7160e01b600052603160045260246000fd5b50505050565b15615d1857565b60405162461bcd60e51b815260206004820152601c60248201527b22bb32b73a2837b7b61d1027b7363c9020b236b4b726b0b730b3b2b960211b6044820152606490fd5b15615d6357565b60405162461bcd60e51b815260206004820152601c60248201527b115d995b9d141bdbdb0e88125b9d985b1a59081b585c9ad95d08125160221b6044820152606490fd5b15615dae57565b606460405162461bcd60e51b815260206004820152602060248201527f4576656e74506f6f6c3a204d61726b657420646f6573206e6f742065786973746044820152fd5b60405190615dff8261472b565b816101c0600091828152606060208201528260408201528260608201528260808201528260a08201528260c08201528260e08201528261010082015282610120820152826101408201528261016082015282610180820152826101a0820152015256fe4c4561c5b0048424071c1115e9f1e325486e21c21333d968f21097b7b72d12ad8be0079c531659141344cd1fd0a4f28419497f9722a3daafe3b4186f6b6457e06dfc24f0f2fb42e49fb4fa3ffa8abb148cab908a1fb8335b3f128a08b2594af1e10fdde2c5cd9b92e449ee25df01febda2cbebc5553e38f2250ffe7f2d5143bca2646970667358221220b11e32d12ee39fb87c9af6a80a8d2c2409eca5aca0077e8e04d536d2ecf456aa64736f6c63430008140033","opcodes":"PUSH1 0x80 CALLVALUE PUSH3 0xFF JUMPI PUSH1 0x1F PUSH3 0x6048 CODESIZE DUP2 SWAP1 SUB SWAP2 DUP3 ADD PUSH1 0x1F NOT AND DUP4 ADD SWAP2 PUSH1 0x1 PUSH1 0x1 PUSH1 0x40 SHL SUB DUP4 GT DUP5 DUP5 LT OR PUSH3 0x104 JUMPI DUP1 DUP5 SWAP3 PUSH1 0x60 SWAP5 PUSH1 0x40 MSTORE DUP4 CODECOPY DUP2 ADD SUB SLT PUSH3 0xFF JUMPI PUSH3 0x4D DUP2 PUSH3 0x11A JUMP JUMPDEST PUSH1 0x20 DUP3 ADD MLOAD PUSH1 0x1 PUSH1 0x1 PUSH1 0xA0 SHL SUB DUP1 DUP3 AND SWAP4 SWAP1 SWAP2 DUP5 SWAP1 SUB PUSH3 0xFF JUMPI PUSH3 0x77 PUSH1 0x40 DUP4 SWAP3 ADD PUSH3 0x11A JUMP JUMPDEST SWAP3 AND SWAP2 DUP3 ISZERO PUSH3 0xE6 JUMPI PUSH1 0x0 SLOAD SWAP4 PUSH1 0x1 DUP1 PUSH1 0xA0 SHL SUB NOT SWAP4 DUP1 DUP6 DUP8 AND OR PUSH1 0x0 SSTORE DUP4 PUSH1 0x40 MLOAD SWAP7 AND PUSH32 0x8BE0079C531659141344CD1FD0A4F28419497F9722A3DAAFE3B4186F6B6457E0 PUSH1 0x0 DUP1 LOG3 PUSH1 0x1 PUSH1 0x9 SSTORE DUP4 PUSH1 0x7 SLOAD AND OR PUSH1 0x7 SSTORE AND SWAP1 PUSH1 0x8 SLOAD AND OR PUSH1 0x8 SSTORE PUSH2 0x5F18 SWAP1 DUP2 PUSH3 0x130 DUP3 CODECOPY RETURN JUMPDEST PUSH1 0x40 MLOAD PUSH4 0x1E4FBDF7 PUSH1 0xE0 SHL DUP2 MSTORE PUSH1 0x0 PUSH1 0x4 DUP3 ADD MSTORE PUSH1 0x24 SWAP1 REVERT JUMPDEST PUSH1 0x0 DUP1 REVERT JUMPDEST PUSH4 0x4E487B71 PUSH1 0xE0 SHL PUSH1 0x0 MSTORE PUSH1 0x41 PUSH1 0x4 MSTORE PUSH1 0x24 PUSH1 0x0 REVERT JUMPDEST MLOAD SWAP1 PUSH1 0x1 PUSH1 0x1 PUSH1 0xA0 SHL SUB DUP3 AND DUP3 SUB PUSH3 0xFF JUMPI JUMP INVALID PUSH1 0x80 DUP1 PUSH1 0x40 MSTORE PUSH1 0x4 CALLDATASIZE LT ISZERO PUSH2 0x1D JUMPI JUMPDEST POP CALLDATASIZE ISZERO PUSH2 0x1B JUMPI PUSH1 0x0 DUP1 REVERT JUMPDEST STOP JUMPDEST PUSH1 0x0 SWAP1 DUP2 CALLDATALOAD PUSH1 0xE0 SHR SWAP1 DUP2 PUSH4 0xCCF4467 EQ PUSH2 0x448D JUMPI POP DUP1 PUSH4 0xD64CDBD EQ PUSH2 0x445E JUMPI DUP1 PUSH4 0x157BDCCE EQ PUSH2 0x4381 JUMPI DUP1 PUSH4 0x256BA741 EQ PUSH2 0x42EC JUMPI DUP1 PUSH4 0x287F57B5 EQ PUSH2 0x42A3 JUMPI DUP1 PUSH4 0x2BDBB884 EQ PUSH2 0x4271 JUMPI DUP1 PUSH4 0x2EE4018F EQ PUSH2 0x4255 JUMPI DUP1 PUSH4 0x2EF1BDFA EQ PUSH2 0x4232 JUMPI DUP1 PUSH4 0x304BF1F1 EQ PUSH2 0x41E9 JUMPI DUP1 PUSH4 0x33D6B46E EQ PUSH2 0x4176 JUMPI DUP1 PUSH4 0x3ADFE6D0 EQ PUSH2 0x414B JUMPI DUP1 PUSH4 0x3E32A76C EQ PUSH2 0x3EF6 JUMPI DUP1 PUSH4 0x3EC79193 EQ PUSH2 0x3ADD JUMPI DUP1 PUSH4 0x406EF2EF EQ PUSH2 0x3ABF JUMPI DUP1 PUSH4 0x4F44289D EQ PUSH2 0x3A76 JUMPI DUP1 PUSH4 0x539AA77F EQ PUSH2 0x3A59 JUMPI DUP1 PUSH4 0x5B7BAF64 EQ PUSH2 0x36E0 JUMPI DUP1 PUSH4 0x5DA3247A EQ PUSH2 0x36C2 JUMPI DUP1 PUSH4 0x60557333 EQ PUSH2 0x36AA JUMPI DUP1 PUSH4 0x61D027B3 EQ PUSH2 0x3681 JUMPI DUP1 PUSH4 0x638B022C EQ PUSH2 0x2862 JUMPI DUP1 PUSH4 0x677BD9FF EQ PUSH2 0x245D JUMPI DUP1 PUSH4 0x6F59359E EQ PUSH2 0x23EF JUMPI DUP1 PUSH4 0x715018A6 EQ PUSH2 0x23A7 JUMPI DUP1 PUSH4 0x7C16CD9E EQ PUSH2 0x22E7 JUMPI DUP1 PUSH4 0x847CF782 EQ PUSH2 0x22A3 JUMPI DUP1 PUSH4 0x8DA5CB5B EQ PUSH2 0x227C JUMPI DUP1 PUSH4 0x902315EC EQ PUSH2 0x21FA JUMPI DUP1 PUSH4 0x98A17671 EQ PUSH2 0x21A4 JUMPI DUP1 PUSH4 0xA210B6A4 EQ PUSH2 0x217B JUMPI DUP1 PUSH4 0xA30A0914 EQ PUSH2 0x2151 JUMPI DUP1 PUSH4 0xA5E973C3 EQ PUSH2 0x20CF JUMPI DUP1 PUSH4 0xB1138B50 EQ PUSH2 0x1E3D JUMPI DUP1 PUSH4 0xB1283E77 EQ PUSH2 0x1D39 JUMPI DUP1 PUSH4 0xB85ED636 EQ PUSH2 0x1C85 JUMPI DUP1 PUSH4 0xBC160758 EQ PUSH2 0x1BFB JUMPI DUP1 PUSH4 0xC22C62C3 EQ PUSH2 0x1BC9 JUMPI DUP1 PUSH4 0xC3436E0C EQ PUSH2 0x1A84 JUMPI DUP1 PUSH4 0xCC3CBD2A EQ PUSH2 0x1A67 JUMPI DUP1 PUSH4 0xD5F82707 EQ PUSH2 0x1A1C JUMPI DUP1 PUSH4 0xD8C5DD67 EQ PUSH2 0x19D5 JUMPI DUP1 PUSH4 0xDC4CE349 EQ PUSH2 0x1982 JUMPI DUP1 PUSH4 0xE0BD4ACC EQ PUSH2 0x17F8 JUMPI DUP1 PUSH4 0xEB44FDD3 EQ PUSH2 0x16EC JUMPI DUP1 PUSH4 0xF00FE321 EQ PUSH2 0x1649 JUMPI DUP1 PUSH4 0xF15CC406 EQ PUSH2 0x1254 JUMPI DUP1 PUSH4 0xF1B7DDE3 EQ PUSH2 0xE0F JUMPI DUP1 PUSH4 0xF204072F EQ PUSH2 0x99B JUMPI DUP1 PUSH4 0xF2FDE38B EQ PUSH2 0x925 JUMPI DUP1 PUSH4 0xF4867591 EQ PUSH2 0x449 JUMPI DUP1 PUSH4 0xF849F69E EQ PUSH2 0x3D6 JUMPI DUP1 PUSH4 0xFB87F2C3 EQ PUSH2 0x28D JUMPI PUSH4 0xFE53A6E8 SUB PUSH2 0xF JUMPI CALLVALUE PUSH2 0x28A JUMPI DUP1 PUSH1 0x3 NOT CALLDATASIZE ADD SLT PUSH2 0x28A JUMPI PUSH1 0x20 PUSH1 0x9 SLOAD PUSH1 0x40 MLOAD SWAP1 DUP2 MSTORE RETURN JUMPDEST DUP1 REVERT JUMPDEST POP CALLVALUE PUSH2 0x28A JUMPI PUSH1 0x20 DUP1 PUSH1 0x3 NOT CALLDATASIZE ADD SLT PUSH2 0x3D2 JUMPI PUSH1 0x4 CALLDATALOAD SWAP1 PUSH2 0x2DE PUSH1 0x1 DUP1 PUSH1 0xA0 SHL SUB PUSH2 0x2BD DUP2 PUSH1 0x8 SLOAD AND CALLER EQ PUSH2 0x5D11 JUMP JUMPDEST PUSH2 0x2CA PUSH1 0x9 SLOAD DUP6 LT PUSH2 0x5D5C JUMP JUMPDEST DUP4 DUP6 MSTORE PUSH1 0x1 DUP4 MSTORE PUSH1 0x40 DUP6 KECCAK256 SLOAD AND ISZERO ISZERO PUSH2 0x5DA7 JUMP JUMPDEST DUP2 DUP4 MSTORE PUSH1 0x1 DUP2 MSTORE PUSH1 0xFF PUSH1 0xC PUSH1 0x40 DUP6 KECCAK256 ADD SLOAD AND PUSH1 0x5 DUP2 LT ISZERO PUSH2 0x3BE JUMPI PUSH1 0x4 EQ PUSH2 0x37D JUMPI PUSH1 0x60 PUSH1 0x0 DUP1 MLOAD PUSH1 0x20 PUSH2 0x5E63 DUP4 CODECOPY DUP2 MLOAD SWAP2 MSTORE SWAP2 DUP4 DUP6 MSTORE PUSH1 0x1 DUP2 MSTORE PUSH1 0xC PUSH1 0x40 DUP7 KECCAK256 ADD PUSH1 0x4 PUSH1 0xFF NOT DUP3 SLOAD AND OR SWAP1 SSTORE DUP4 DUP6 MSTORE PUSH1 0xB DUP2 MSTORE PUSH1 0xFF PUSH1 0x40 DUP7 KECCAK256 SLOAD AND PUSH2 0x36F JUMPI JUMPDEST PUSH1 0x17 PUSH1 0x40 MLOAD SWAP2 DUP1 DUP4 MSTORE DUP3 ADD MSTORE PUSH23 0x26B0B935B2BA103232B632BA32B210313C9030B236B4B7 PUSH1 0x49 SHL PUSH1 0x40 DUP3 ADD MSTORE LOG2 DUP1 RETURN JUMPDEST PUSH2 0x378 DUP5 PUSH2 0x5C57 JUMP JUMPDEST PUSH2 0x33F JUMP JUMPDEST PUSH1 0x64 SWAP1 PUSH1 0x40 MLOAD SWAP1 PUSH3 0x461BCD PUSH1 0xE5 SHL DUP3 MSTORE PUSH1 0x4 DUP3 ADD MSTORE PUSH1 0x1A PUSH1 0x24 DUP3 ADD MSTORE PUSH26 0x115D995B9D141BDBDB0E88105B1C9958591E4819195B195D1959 PUSH1 0x32 SHL PUSH1 0x44 DUP3 ADD MSTORE REVERT JUMPDEST PUSH4 0x4E487B71 PUSH1 0xE0 SHL DUP5 MSTORE PUSH1 0x21 PUSH1 0x4 MSTORE PUSH1 0x24 DUP5 REVERT JUMPDEST POP DUP1 REVERT JUMPDEST POP CALLVALUE PUSH2 0x28A JUMPI PUSH1 0x20 CALLDATASIZE PUSH1 0x3 NOT ADD SLT PUSH2 0x28A JUMPI PUSH1 0x4 CALLDATALOAD DUP2 MSTORE PUSH1 0xB PUSH1 0x20 MSTORE PUSH1 0xFF PUSH1 0x40 DUP3 KECCAK256 SLOAD AND DUP1 PUSH2 0x40D JUMPI JUMPDEST PUSH1 0x20 SWAP1 PUSH1 0x40 MLOAD SWAP1 ISZERO ISZERO DUP2 MSTORE RETURN JUMPDEST POP PUSH1 0x1 PUSH1 0x20 MSTORE PUSH1 0xFF PUSH1 0xC PUSH1 0x40 DUP4 KECCAK256 ADD SLOAD AND SWAP1 PUSH1 0x5 DUP3 LT ISZERO PUSH2 0x435 JUMPI POP PUSH1 0x4 PUSH1 0x20 SWAP2 EQ ISZERO PUSH2 0x400 JUMP JUMPDEST PUSH4 0x4E487B71 PUSH1 0xE0 SHL DUP2 MSTORE PUSH1 0x21 PUSH1 0x4 MSTORE PUSH1 0x24 SWAP1 REVERT JUMPDEST POP PUSH2 0x453 CALLDATASIZE PUSH2 0x4515 JUMP JUMPDEST PUSH1 0x8 SLOAD PUSH1 0x40 MLOAD PUSH4 0x4D9B4235 PUSH1 0xE1 SHL DUP2 MSTORE PUSH1 0x4 DUP2 ADD DUP5 SWAP1 MSTORE SWAP2 SWAP3 SWAP2 PUSH1 0x20 SWAP2 PUSH1 0x1 PUSH1 0x1 PUSH1 0xA0 SHL SUB SWAP2 SWAP1 DUP3 AND SWAP1 DUP4 DUP2 PUSH1 0x24 DUP2 DUP6 GAS STATICCALL DUP1 ISZERO PUSH2 0x887 JUMPI DUP8 SWAP1 PUSH2 0x8EB JUMPI JUMPDEST PUSH2 0x49D SWAP2 POP ISZERO PUSH2 0x4B57 JUMP JUMPDEST DUP4 DUP7 MSTORE PUSH1 0x1 DUP4 MSTORE PUSH1 0x40 DUP7 KECCAK256 SWAP1 PUSH1 0xFF PUSH1 0xC DUP4 ADD SLOAD AND PUSH1 0x5 DUP2 LT ISZERO PUSH2 0x8D7 JUMPI PUSH2 0x4C4 SWAP1 ISZERO PUSH2 0x4B9F JUMP JUMPDEST PUSH1 0x40 MLOAD PUSH4 0x111A7989 PUSH1 0xE3 SHL DUP2 MSTORE DUP5 DUP2 PUSH1 0x4 DUP2 DUP6 GAS STATICCALL DUP1 ISZERO PUSH2 0x8CC JUMPI DUP6 SWAP2 DUP10 SWAP2 PUSH2 0x892 JUMPI JUMPDEST POP PUSH2 0x7E8 JUMPI JUMPDEST POP POP DUP5 ISZERO ISZERO DUP1 PUSH2 0x7DA JUMPI JUMPDEST PUSH2 0x502 SWAP1 PUSH2 0x4C43 JUMP JUMPDEST PUSH1 0x4 DUP2 ADD SWAP1 DUP3 DUP3 SLOAD AND PUSH2 0x773 JUMPI PUSH1 0x5 PUSH2 0x51F SWAP2 ADD SLOAD CALLVALUE LT ISZERO PUSH2 0x4C8B JUMP JUMPDEST DUP6 DUP1 DUP1 DUP1 CALLVALUE DUP7 PUSH1 0x7 SLOAD AND GAS CALL PUSH2 0x533 PUSH2 0x4990 JUMP JUMPDEST POP ISZERO PUSH2 0x71B JUMPI SWAP1 DUP6 SWAP2 DUP5 DUP4 MSTORE PUSH1 0x2 DUP5 MSTORE PUSH1 0x40 DUP4 KECCAK256 CALLER PUSH1 0x0 MSTORE DUP5 MSTORE PUSH1 0xFF PUSH1 0x40 PUSH1 0x0 KECCAK256 SLOAD AND ISZERO PUSH2 0x6EE JUMPI JUMPDEST DUP5 DUP4 MSTORE PUSH1 0x2 DUP5 MSTORE PUSH1 0x40 DUP4 KECCAK256 CALLER PUSH1 0x0 MSTORE DUP5 MSTORE PUSH1 0x40 PUSH1 0x0 KECCAK256 PUSH1 0x1 PUSH1 0xFF NOT DUP3 SLOAD AND OR SWAP1 SSTORE DUP5 DUP4 MSTORE PUSH1 0x4 DUP5 MSTORE PUSH1 0x40 DUP4 KECCAK256 CALLER PUSH1 0x0 MSTORE DUP5 MSTORE DUP6 PUSH1 0x40 PUSH1 0x0 KECCAK256 SSTORE DUP2 DUP1 PUSH1 0x7 SLOAD AND SWAP2 SLOAD AND SWAP1 DUP1 EXTCODESIZE ISZERO PUSH2 0x687 JUMPI PUSH1 0x40 MLOAD PUSH4 0x95F41095 PUSH1 0xE0 SHL DUP2 MSTORE SWAP2 DUP5 SWAP2 DUP4 SWAP2 DUP3 SWAP1 DUP5 SWAP1 DUP3 SWAP1 PUSH2 0x5D1 SWAP1 DUP14 SWAP1 CALLVALUE SWAP1 CALLER DUP16 PUSH1 0x4 DUP8 ADD PUSH2 0x4A1C JUMP JUMPDEST SUB SWAP3 GAS CALL SWAP1 DUP2 ISZERO PUSH2 0x6CF JUMPI DUP4 SWAP2 PUSH2 0x6DA JUMPI JUMPDEST POP POP PUSH1 0x4 DUP4 DUP3 PUSH1 0x8 SLOAD AND PUSH1 0x40 MLOAD SWAP3 DUP4 DUP1 SWAP3 PUSH4 0x406AD645 PUSH1 0xE1 SHL DUP3 MSTORE GAS STATICCALL SWAP1 DUP2 ISZERO PUSH2 0x6CF JUMPI DUP4 SWAP2 PUSH2 0x696 JUMPI JUMPDEST POP AND DUP1 PUSH2 0x63A JUMPI JUMPDEST POP POP PUSH1 0x40 MLOAD SWAP3 DUP4 MSTORE CALLVALUE SWAP1 DUP4 ADD MSTORE PUSH1 0x0 DUP1 MLOAD PUSH1 0x20 PUSH2 0x5EC3 DUP4 CODECOPY DUP2 MLOAD SWAP2 MSTORE PUSH1 0x40 CALLER SWAP4 LOG3 DUP1 RETURN JUMPDEST DUP1 EXTCODESIZE ISZERO PUSH2 0x3D2 JUMPI DUP2 PUSH1 0x40 MLOAD DUP1 SWAP3 PUSH4 0xC228038D PUSH1 0xE0 SHL DUP3 MSTORE DUP2 DUP4 DUP2 PUSH2 0x664 CALLVALUE DUP13 CALLER DUP14 PUSH1 0x4 DUP7 ADD PUSH2 0x4A79 JUMP JUMPDEST SUB SWAP3 GAS CALL DUP1 ISZERO PUSH2 0x68B JUMPI ISZERO PUSH2 0x616 JUMPI PUSH2 0x67C SWAP1 PUSH2 0x4718 JUMP JUMPDEST PUSH2 0x687 JUMPI DUP4 CODESIZE PUSH2 0x616 JUMP JUMPDEST DUP4 DUP1 REVERT JUMPDEST PUSH1 0x40 MLOAD RETURNDATASIZE DUP5 DUP3 RETURNDATACOPY RETURNDATASIZE SWAP1 REVERT JUMPDEST SWAP1 POP DUP4 DUP2 DUP2 RETURNDATASIZE DUP4 GT PUSH2 0x6C8 JUMPI JUMPDEST PUSH2 0x6AD DUP2 DUP4 PUSH2 0x4762 JUMP JUMPDEST DUP2 ADD SUB SLT PUSH2 0x6C4 JUMPI PUSH2 0x6BE SWAP1 PUSH2 0x4A4C JUMP JUMPDEST CODESIZE PUSH2 0x60E JUMP JUMPDEST DUP3 DUP1 REVERT JUMPDEST POP RETURNDATASIZE PUSH2 0x6A3 JUMP JUMPDEST PUSH1 0x40 MLOAD RETURNDATASIZE DUP6 DUP3 RETURNDATACOPY RETURNDATASIZE SWAP1 REVERT JUMPDEST PUSH2 0x6E3 SWAP1 PUSH2 0x4718 JUMP JUMPDEST PUSH2 0x3D2 JUMPI DUP2 CODESIZE PUSH2 0x5E3 JUMP JUMPDEST DUP5 DUP4 MSTORE PUSH1 0x5 DUP5 MSTORE PUSH2 0x702 CALLER PUSH1 0x40 DUP6 KECCAK256 PUSH2 0x4CD7 JUMP JUMPDEST CALLER DUP4 MSTORE PUSH1 0xC DUP5 MSTORE PUSH2 0x716 DUP6 PUSH1 0x40 DUP6 KECCAK256 PUSH2 0x496D JUMP JUMPDEST PUSH2 0x55C JUMP JUMPDEST PUSH1 0x40 MLOAD PUSH3 0x461BCD PUSH1 0xE5 SHL DUP2 MSTORE PUSH1 0x4 DUP2 ADD DUP5 SWAP1 MSTORE PUSH1 0x2A PUSH1 0x24 DUP3 ADD MSTORE PUSH32 0x4576656E74506F6F6C3A20455448207472616E7366657220746F205472656173 PUSH1 0x44 DUP3 ADD MSTORE PUSH10 0x1D5C9E4819985A5B1959 PUSH1 0xB2 SHL PUSH1 0x64 DUP3 ADD MSTORE PUSH1 0x84 SWAP1 REVERT JUMPDEST PUSH1 0x40 MLOAD PUSH3 0x461BCD PUSH1 0xE5 SHL DUP2 MSTORE PUSH1 0x4 DUP2 ADD DUP6 SWAP1 MSTORE PUSH1 0x39 PUSH1 0x24 DUP3 ADD MSTORE PUSH32 0x4576656E74506F6F6C3A2054686973206D61726B6574207573657320746F6B65 PUSH1 0x44 DUP3 ADD MSTORE PUSH25 0x373996103AB9B290383630B1B2A132BA2BB4BA342A37B5B2B7 PUSH1 0x39 SHL PUSH1 0x64 DUP3 ADD MSTORE PUSH1 0x84 SWAP1 REVERT JUMPDEST POP PUSH1 0x3 DUP2 ADD SLOAD DUP6 GT ISZERO PUSH2 0x4F9 JUMP JUMPDEST PUSH1 0x40 MLOAD PUSH4 0x2EAA712B PUSH1 0xE2 SHL DUP2 MSTORE SWAP2 DUP3 SWAP1 PUSH1 0x4 SWAP1 DUP3 SWAP1 GAS STATICCALL SWAP1 DUP2 ISZERO PUSH2 0x887 JUMPI DUP8 SWAP2 PUSH2 0x855 JUMPI JUMPDEST POP PUSH1 0x9 DUP3 ADD SLOAD PUSH1 0x3C DUP3 MUL SWAP2 DUP1 DUP4 DIV PUSH1 0x3C EQ SWAP1 ISZERO OR ISZERO PUSH2 0x841 JUMPI PUSH2 0x83A SWAP2 PUSH2 0x833 SWAP2 PUSH2 0x4BEA JUMP JUMPDEST TIMESTAMP LT PUSH2 0x4BF7 JUMP JUMPDEST CODESIZE DUP4 PUSH2 0x4EE JUMP JUMPDEST PUSH4 0x4E487B71 PUSH1 0xE0 SHL DUP9 MSTORE PUSH1 0x11 PUSH1 0x4 MSTORE PUSH1 0x24 DUP9 REVERT JUMPDEST SWAP1 POP DUP4 DUP2 DUP2 RETURNDATASIZE DUP4 GT PUSH2 0x880 JUMPI JUMPDEST PUSH2 0x86C DUP2 DUP4 PUSH2 0x4762 JUMP JUMPDEST DUP2 ADD SUB SLT PUSH2 0x87B JUMPI MLOAD CODESIZE PUSH2 0x80D JUMP JUMPDEST PUSH1 0x0 DUP1 REVERT JUMPDEST POP RETURNDATASIZE PUSH2 0x862 JUMP JUMPDEST PUSH1 0x40 MLOAD RETURNDATASIZE DUP10 DUP3 RETURNDATACOPY RETURNDATASIZE SWAP1 REVERT JUMPDEST DUP3 DUP2 SWAP4 SWAP3 POP RETURNDATASIZE DUP4 GT PUSH2 0x8C5 JUMPI JUMPDEST PUSH2 0x8A9 DUP2 DUP4 PUSH2 0x4762 JUMP JUMPDEST DUP2 ADD SUB SLT PUSH2 0x8C1 JUMPI PUSH2 0x8BB DUP6 SWAP2 PUSH2 0x48AC JUMP JUMPDEST CODESIZE PUSH2 0x4E8 JUMP JUMPDEST DUP8 DUP1 REVERT JUMPDEST POP RETURNDATASIZE PUSH2 0x89F JUMP JUMPDEST PUSH1 0x40 MLOAD RETURNDATASIZE DUP11 DUP3 RETURNDATACOPY RETURNDATASIZE SWAP1 REVERT JUMPDEST PUSH4 0x4E487B71 PUSH1 0xE0 SHL DUP9 MSTORE PUSH1 0x21 PUSH1 0x4 MSTORE PUSH1 0x24 DUP9 REVERT JUMPDEST POP DUP4 DUP2 DUP2 RETURNDATASIZE DUP4 GT PUSH2 0x91E JUMPI JUMPDEST PUSH2 0x901 DUP2 DUP4 PUSH2 0x4762 JUMP JUMPDEST DUP2 ADD SUB SLT PUSH2 0x91A JUMPI PUSH2 0x915 PUSH2 0x49D SWAP2 PUSH2 0x48AC JUMP JUMPDEST PUSH2 0x492 JUMP JUMPDEST DUP7 DUP1 REVERT JUMPDEST POP RETURNDATASIZE PUSH2 0x8F7 JUMP JUMPDEST POP CALLVALUE PUSH2 0x28A JUMPI PUSH1 0x20 CALLDATASIZE PUSH1 0x3 NOT ADD SLT PUSH2 0x28A JUMPI PUSH2 0x93F PUSH2 0x44CA JUMP JUMPDEST PUSH2 0x947 PUSH2 0x4880 JUMP JUMPDEST PUSH1 0x1 PUSH1 0x1 PUSH1 0xA0 SHL SUB SWAP1 DUP2 AND SWAP1 DUP2 ISZERO PUSH2 0x982 JUMPI PUSH1 0x0 SLOAD DUP3 PUSH1 0x1 DUP1 PUSH1 0xA0 SHL SUB NOT DUP3 AND OR PUSH1 0x0 SSTORE AND PUSH1 0x0 DUP1 MLOAD PUSH1 0x20 PUSH2 0x5E83 DUP4 CODECOPY DUP2 MLOAD SWAP2 MSTORE PUSH1 0x0 DUP1 LOG3 DUP1 RETURN JUMPDEST PUSH1 0x40 MLOAD PUSH4 0x1E4FBDF7 PUSH1 0xE0 SHL DUP2 MSTORE PUSH1 0x4 DUP2 ADD DUP5 SWAP1 MSTORE PUSH1 0x24 SWAP1 REVERT JUMPDEST POP PUSH2 0x9A5 CALLDATASIZE PUSH2 0x4515 JUMP JUMPDEST PUSH1 0x8 SLOAD PUSH1 0x40 MLOAD PUSH4 0x2B5BA3B9 PUSH1 0xE0 SHL DUP2 MSTORE CALLER PUSH1 0x4 DUP3 ADD MSTORE PUSH1 0x24 SWAP5 SWAP4 SWAP2 PUSH1 0x1 PUSH1 0x1 PUSH1 0xA0 SHL SUB SWAP2 PUSH1 0x20 SWAP2 DUP4 AND SWAP1 DUP3 DUP2 DUP10 DUP2 DUP6 GAS STATICCALL SWAP1 DUP2 ISZERO PUSH2 0x887 JUMPI SWAP2 DUP4 SWAP2 DUP10 SWAP4 DUP10 SWAP2 PUSH2 0xDD1 JUMPI JUMPDEST POP PUSH2 0x9F4 SWAP1 ISZERO PUSH2 0x48B9 JUMP JUMPDEST PUSH1 0x40 MLOAD SWAP3 DUP4 DUP1 SWAP3 PUSH4 0x4D9B4235 PUSH1 0xE1 SHL DUP3 MSTORE DUP9 PUSH1 0x4 DUP4 ADD MSTORE GAS STATICCALL DUP1 ISZERO PUSH2 0xBEF JUMPI DUP7 SWAP1 PUSH2 0xD97 JUMPI JUMPDEST PUSH2 0xA25 SWAP2 POP ISZERO PUSH2 0x4B57 JUMP JUMPDEST DUP3 DUP6 MSTORE PUSH1 0x1 DUP2 MSTORE PUSH1 0x40 DUP6 KECCAK256 PUSH1 0xFF PUSH1 0xC DUP3 ADD SLOAD AND PUSH1 0x5 DUP2 LT ISZERO PUSH2 0xD84 JUMPI PUSH2 0xA4B SWAP1 ISZERO PUSH2 0x4B9F JUMP JUMPDEST PUSH1 0x9 DUP2 ADD SLOAD TIMESTAMP LT ISZERO PUSH2 0xD40 JUMPI PUSH1 0x4 SWAP1 PUSH2 0xA65 DUP7 ISZERO ISZERO PUSH2 0x4D12 JUMP JUMPDEST ADD DUP1 SLOAD DUP4 AND DUP1 PUSH2 0xCC2 JUMPI POP DUP5 CALLVALUE SUB PUSH2 0xC7E JUMPI PUSH2 0xA82 CALLVALUE ISZERO ISZERO PUSH2 0x4D12 JUMP JUMPDEST DUP6 DUP1 DUP1 DUP1 CALLVALUE DUP8 PUSH1 0x7 SLOAD AND GAS CALL PUSH2 0xA96 PUSH2 0x4990 JUMP JUMPDEST POP ISZERO PUSH2 0xC27 JUMPI DUP6 SWAP7 POP JUMPDEST DUP4 DUP7 MSTORE PUSH1 0x3 DUP3 MSTORE PUSH1 0x40 DUP7 KECCAK256 CALLER PUSH1 0x0 MSTORE DUP3 MSTORE PUSH1 0xFF PUSH1 0x40 PUSH1 0x0 KECCAK256 SLOAD AND ISZERO PUSH2 0xC0E JUMPI JUMPDEST DUP4 DUP7 MSTORE PUSH1 0x3 DUP3 MSTORE PUSH1 0x40 DUP7 KECCAK256 CALLER PUSH1 0x0 MSTORE DUP3 MSTORE PUSH1 0x40 PUSH1 0x0 KECCAK256 PUSH1 0x1 PUSH1 0xFF NOT DUP3 SLOAD AND OR SWAP1 SSTORE DUP3 DUP1 PUSH1 0x7 SLOAD AND SWAP2 SLOAD AND SWAP1 DUP1 EXTCODESIZE ISZERO PUSH2 0x91A JUMPI DUP6 DUP8 SWAP2 PUSH2 0xB18 SWAP4 DUP4 PUSH1 0x40 MLOAD DUP1 SWAP7 DUP2 SWAP6 DUP3 SWAP5 PUSH4 0xC15D9807 PUSH1 0xE0 SHL DUP5 MSTORE CALLER DUP14 PUSH1 0x4 DUP7 ADD PUSH2 0x4D77 JUMP JUMPDEST SUB SWAP3 GAS CALL SWAP1 DUP2 ISZERO PUSH2 0xBEF JUMPI DUP7 SWAP2 PUSH2 0xBFA JUMPI JUMPDEST POP POP PUSH1 0x4 DUP2 DUP4 PUSH1 0x8 SLOAD AND PUSH1 0x40 MLOAD SWAP3 DUP4 DUP1 SWAP3 PUSH4 0x406AD645 PUSH1 0xE1 SHL DUP3 MSTORE GAS STATICCALL SWAP2 DUP3 ISZERO PUSH2 0xBEF JUMPI DUP7 SWAP3 PUSH2 0xBB5 JUMPI JUMPDEST POP POP AND SWAP2 DUP3 PUSH2 0xB63 JUMPI POP POP POP RETURN JUMPDEST DUP3 EXTCODESIZE ISZERO PUSH2 0xBB0 JUMPI PUSH2 0xB8F SWAP3 DUP5 SWAP3 DUP4 PUSH1 0x40 MLOAD DUP1 SWAP7 DUP2 SWAP6 DUP3 SWAP5 PUSH4 0x8F46A5A1 PUSH1 0xE0 SHL DUP5 MSTORE CALLER SWAP1 PUSH1 0x4 DUP6 ADD PUSH2 0x4D9F JUMP JUMPDEST SUB SWAP3 GAS CALL DUP1 ISZERO PUSH2 0x68B JUMPI PUSH2 0xBA0 JUMPI POP RETURN JUMPDEST PUSH2 0xBA9 SWAP1 PUSH2 0x4718 JUMP JUMPDEST PUSH2 0x28A JUMPI DUP1 RETURN JUMPDEST POP POP POP REVERT JUMPDEST SWAP1 DUP1 SWAP3 POP DUP2 RETURNDATASIZE DUP4 GT PUSH2 0xBE8 JUMPI JUMPDEST PUSH2 0xBCC DUP2 DUP4 PUSH2 0x4762 JUMP JUMPDEST DUP2 ADD SUB SLT PUSH2 0xBE4 JUMPI PUSH2 0xBDD SWAP1 PUSH2 0x4A4C JUMP JUMPDEST CODESIZE DUP1 PUSH2 0xB55 JUMP JUMPDEST DUP5 DUP1 REVERT JUMPDEST POP RETURNDATASIZE PUSH2 0xBC2 JUMP JUMPDEST PUSH1 0x40 MLOAD RETURNDATASIZE DUP9 DUP3 RETURNDATACOPY RETURNDATASIZE SWAP1 REVERT JUMPDEST PUSH2 0xC03 SWAP1 PUSH2 0x4718 JUMP JUMPDEST PUSH2 0xBE4 JUMPI DUP5 CODESIZE PUSH2 0xB2A JUMP JUMPDEST DUP4 DUP7 MSTORE PUSH1 0x6 DUP3 MSTORE PUSH2 0xC22 CALLER PUSH1 0x40 DUP9 KECCAK256 PUSH2 0x4CD7 JUMP JUMPDEST PUSH2 0xAC0 JUMP JUMPDEST PUSH1 0x40 MLOAD PUSH3 0x461BCD PUSH1 0xE5 SHL DUP2 MSTORE PUSH1 0x4 DUP2 ADD DUP4 SWAP1 MSTORE PUSH1 0x2A DUP2 DUP10 ADD MSTORE PUSH32 0x4576656E74506F6F6C3A20455448207472616E7366657220746F207472656173 PUSH1 0x44 DUP3 ADD MSTORE PUSH10 0x1D5C9E4819985A5B1959 PUSH1 0xB2 SHL PUSH1 0x64 DUP3 ADD MSTORE PUSH1 0x84 SWAP1 REVERT JUMPDEST PUSH1 0x40 MLOAD PUSH3 0x461BCD PUSH1 0xE5 SHL DUP2 MSTORE PUSH1 0x4 DUP2 ADD DUP4 SWAP1 MSTORE PUSH1 0x1F DUP2 DUP10 ADD MSTORE PUSH32 0x4576656E74506F6F6C3A20496E636F72726563742045544820616D6F756E7400 PUSH1 0x44 DUP3 ADD MSTORE PUSH1 0x64 SWAP1 REVERT JUMPDEST CALLVALUE PUSH2 0xCE1 JUMPI DUP7 SWAP8 POP DUP6 PUSH2 0xCDC SWAP2 DUP6 PUSH1 0x7 SLOAD AND SWAP1 CALLER SWAP1 PUSH2 0x4ABF JUMP JUMPDEST PUSH2 0xAA0 JUMP JUMPDEST PUSH1 0x40 MLOAD PUSH3 0x461BCD PUSH1 0xE5 SHL DUP2 MSTORE PUSH1 0x4 DUP2 ADD DUP5 SWAP1 MSTORE PUSH1 0x32 DUP2 DUP11 ADD MSTORE PUSH32 0x4576656E74506F6F6C3A204E6F204554482073686F756C642062652073656E74 PUSH1 0x44 DUP3 ADD MSTORE PUSH18 0x8199BDC881D1BDAD95B881CDD5C1C1BDC9D PUSH1 0x72 SHL PUSH1 0x64 DUP3 ADD MSTORE PUSH1 0x84 SWAP1 REVERT JUMPDEST PUSH1 0x40 MLOAD PUSH3 0x461BCD PUSH1 0xE5 SHL DUP2 MSTORE PUSH1 0x4 DUP2 ADD DUP4 SWAP1 MSTORE PUSH1 0x1F DUP2 DUP10 ADD MSTORE PUSH32 0x4576656E74506F6F6C3A20537570706F727420706572696F6420656E64656400 PUSH1 0x44 DUP3 ADD MSTORE PUSH1 0x64 SWAP1 REVERT JUMPDEST PUSH4 0x4E487B71 PUSH1 0xE0 SHL DUP8 MSTORE PUSH1 0x21 PUSH1 0x4 MSTORE DUP8 DUP8 REVERT JUMPDEST POP DUP2 DUP2 DUP2 RETURNDATASIZE DUP4 GT PUSH2 0xDCA JUMPI JUMPDEST PUSH2 0xDAD DUP2 DUP4 PUSH2 0x4762 JUMP JUMPDEST DUP2 ADD SUB SLT PUSH2 0xDC6 JUMPI PUSH2 0xDC1 PUSH2 0xA25 SWAP2 PUSH2 0x48AC JUMP JUMPDEST PUSH2 0xA1A JUMP JUMPDEST DUP6 DUP1 REVERT JUMPDEST POP RETURNDATASIZE PUSH2 0xDA3 JUMP JUMPDEST SWAP3 DUP1 SWAP3 SWAP5 POP DUP4 SWAP2 POP RETURNDATASIZE DUP4 GT PUSH2 0xE08 JUMPI JUMPDEST PUSH2 0xDEB DUP2 DUP4 PUSH2 0x4762 JUMP JUMPDEST DUP2 ADD SUB SLT PUSH2 0x91A JUMPI DUP8 SWAP2 PUSH2 0x9F4 PUSH2 0xE02 DUP6 SWAP4 PUSH2 0x48AC JUMP JUMPDEST SWAP1 PUSH2 0x9E9 JUMP JUMPDEST POP RETURNDATASIZE PUSH2 0xDE1 JUMP JUMPDEST POP CALLVALUE PUSH2 0x28A JUMPI PUSH1 0x60 CALLDATASIZE PUSH1 0x3 NOT ADD SLT PUSH2 0x28A JUMPI PUSH1 0x4 CALLDATALOAD PUSH1 0x24 CALLDATALOAD SWAP1 PUSH1 0x44 CALLDATALOAD PUSH1 0x1 DUP1 PUSH1 0xA0 SHL SUB DUP1 PUSH1 0x8 SLOAD AND SWAP1 PUSH1 0x40 MLOAD SWAP2 PUSH4 0x4D9B4235 PUSH1 0xE1 SHL DUP4 MSTORE DUP5 PUSH1 0x4 DUP5 ADD MSTORE PUSH1 0x20 SWAP3 DUP4 DUP2 PUSH1 0x24 DUP2 DUP6 GAS STATICCALL DUP1 ISZERO PUSH2 0x8CC JUMPI DUP9 SWAP1 PUSH2 0x121E JUMPI JUMPDEST PUSH2 0xE6F SWAP2 POP ISZERO PUSH2 0x4B57 JUMP JUMPDEST DUP5 DUP8 MSTORE PUSH1 0x1 DUP4 MSTORE PUSH1 0x40 DUP8 KECCAK256 SWAP1 PUSH1 0xFF PUSH1 0xC DUP4 ADD SLOAD AND PUSH1 0x5 DUP2 LT ISZERO PUSH2 0x120A JUMPI PUSH2 0xE96 SWAP1 ISZERO PUSH2 0x4B9F JUMP JUMPDEST PUSH1 0x40 MLOAD PUSH4 0x111A7989 PUSH1 0xE3 SHL DUP2 MSTORE DUP5 DUP2 PUSH1 0x4 DUP2 DUP6 GAS STATICCALL DUP1 ISZERO PUSH2 0x11FF JUMPI DUP6 SWAP2 DUP11 SWAP2 PUSH2 0x11C5 JUMPI JUMPDEST POP PUSH2 0x1132 JUMPI JUMPDEST POP POP DUP6 ISZERO ISZERO DUP1 PUSH2 0x1124 JUMPI JUMPDEST PUSH2 0xED4 SWAP1 PUSH2 0x4C43 JUMP JUMPDEST PUSH1 0x4 DUP2 ADD SWAP1 DUP3 DUP3 SLOAD AND SWAP1 DUP2 ISZERO PUSH2 0x10C8 JUMPI DUP6 DUP10 SWAP5 SWAP4 SWAP3 PUSH2 0xEFC PUSH1 0x5 PUSH2 0xF09 SWAP5 ADD SLOAD DUP4 LT ISZERO PUSH2 0x4C8B JUMP JUMPDEST DUP5 PUSH1 0x7 SLOAD AND SWAP1 CALLER SWAP1 PUSH2 0x4ABF JUMP JUMPDEST DUP6 DUP4 MSTORE PUSH1 0x2 DUP5 MSTORE PUSH1 0x40 DUP4 KECCAK256 CALLER PUSH1 0x0 MSTORE DUP5 MSTORE PUSH1 0xFF PUSH1 0x40 PUSH1 0x0 KECCAK256 SLOAD AND ISZERO PUSH2 0x109B JUMPI JUMPDEST DUP6 DUP4 MSTORE PUSH1 0x2 DUP5 MSTORE PUSH1 0x40 DUP4 KECCAK256 CALLER PUSH1 0x0 MSTORE DUP5 MSTORE PUSH1 0x40 PUSH1 0x0 KECCAK256 PUSH1 0x1 PUSH1 0xFF NOT DUP3 SLOAD AND OR SWAP1 SSTORE DUP6 DUP4 MSTORE PUSH1 0x4 DUP5 MSTORE PUSH1 0x40 DUP4 KECCAK256 CALLER PUSH1 0x0 MSTORE DUP5 MSTORE DUP7 PUSH1 0x40 PUSH1 0x0 KECCAK256 SSTORE DUP2 DUP1 PUSH1 0x7 SLOAD AND SWAP2 SLOAD AND SWAP1 DUP1 EXTCODESIZE ISZERO PUSH2 0x687 JUMPI DUP6 DUP5 SWAP2 DUP10 SWAP4 DUP4 DUP11 PUSH2 0xF9C PUSH1 0x40 MLOAD SWAP8 DUP9 SWAP7 DUP8 SWAP6 DUP7 SWAP5 PUSH4 0x95F41095 PUSH1 0xE0 SHL DUP7 MSTORE CALLER SWAP1 PUSH1 0x4 DUP8 ADD PUSH2 0x4A1C JUMP JUMPDEST SUB SWAP3 GAS CALL SWAP1 DUP2 ISZERO PUSH2 0x6CF JUMPI DUP4 SWAP2 PUSH2 0x1087 JUMPI JUMPDEST POP POP PUSH1 0x4 DUP4 DUP3 PUSH1 0x8 SLOAD AND PUSH1 0x40 MLOAD SWAP3 DUP4 DUP1 SWAP3 PUSH4 0x406AD645 PUSH1 0xE1 SHL DUP3 MSTORE GAS STATICCALL SWAP1 DUP2 ISZERO PUSH2 0x6CF JUMPI DUP4 SWAP2 PUSH2 0x1052 JUMPI JUMPDEST POP AND DUP1 PUSH2 0x1003 JUMPI JUMPDEST POP POP PUSH1 0x40 MLOAD SWAP4 DUP5 MSTORE DUP4 ADD MSTORE PUSH1 0x0 DUP1 MLOAD PUSH1 0x20 PUSH2 0x5EC3 DUP4 CODECOPY DUP2 MLOAD SWAP2 MSTORE PUSH1 0x40 CALLER SWAP4 LOG3 DUP1 RETURN JUMPDEST DUP1 EXTCODESIZE ISZERO PUSH2 0x3D2 JUMPI PUSH1 0x40 MLOAD PUSH4 0xC228038D PUSH1 0xE0 SHL DUP2 MSTORE SWAP1 DUP3 SWAP1 DUP3 SWAP1 DUP2 DUP4 DUP2 PUSH2 0x102F DUP11 DUP14 CALLER DUP15 PUSH1 0x4 DUP7 ADD PUSH2 0x4A79 JUMP JUMPDEST SUB SWAP3 GAS CALL DUP1 ISZERO PUSH2 0x68B JUMPI ISZERO PUSH2 0xFE1 JUMPI PUSH2 0x1047 SWAP1 PUSH2 0x4718 JUMP JUMPDEST PUSH2 0xBE4 JUMPI DUP5 CODESIZE PUSH2 0xFE1 JUMP JUMPDEST SWAP1 POP DUP4 DUP2 DUP2 RETURNDATASIZE DUP4 GT PUSH2 0x1080 JUMPI JUMPDEST PUSH2 0x1069 DUP2 DUP4 PUSH2 0x4762 JUMP JUMPDEST DUP2 ADD SUB SLT PUSH2 0x6C4 JUMPI PUSH2 0x107A SWAP1 PUSH2 0x4A4C JUMP JUMPDEST CODESIZE PUSH2 0xFD9 JUMP JUMPDEST POP RETURNDATASIZE PUSH2 0x105F JUMP JUMPDEST PUSH2 0x1090 SWAP1 PUSH2 0x4718 JUMP JUMPDEST PUSH2 0x3D2 JUMPI DUP2 CODESIZE PUSH2 0xFAE JUMP JUMPDEST DUP6 DUP4 MSTORE PUSH1 0x5 DUP5 MSTORE PUSH2 0x10AF CALLER PUSH1 0x40 DUP6 KECCAK256 PUSH2 0x4CD7 JUMP JUMPDEST CALLER DUP4 MSTORE PUSH1 0xC DUP5 MSTORE PUSH2 0x10C3 DUP7 PUSH1 0x40 DUP6 KECCAK256 PUSH2 0x496D JUMP JUMPDEST PUSH2 0xF29 JUMP JUMPDEST PUSH1 0x40 MLOAD PUSH3 0x461BCD PUSH1 0xE5 SHL DUP2 MSTORE PUSH1 0x4 DUP2 ADD DUP7 SWAP1 MSTORE PUSH1 0x2E PUSH1 0x24 DUP3 ADD MSTORE PUSH32 0x4576656E74506F6F6C3A2054686973206D61726B657420757365732050455055 PUSH1 0x44 DUP3 ADD MSTORE PUSH14 0xB081D5CD9481C1B1858D950995D PUSH1 0x92 SHL PUSH1 0x64 DUP3 ADD MSTORE PUSH1 0x84 SWAP1 REVERT JUMPDEST POP PUSH1 0x3 DUP2 ADD SLOAD DUP7 GT ISZERO PUSH2 0xECB JUMP JUMPDEST PUSH1 0x40 MLOAD PUSH4 0x2EAA712B PUSH1 0xE2 SHL DUP2 MSTORE SWAP2 DUP3 SWAP1 PUSH1 0x4 SWAP1 DUP3 SWAP1 GAS STATICCALL SWAP1 DUP2 ISZERO PUSH2 0x8CC JUMPI DUP9 SWAP2 PUSH2 0x1198 JUMPI JUMPDEST POP PUSH1 0x9 DUP3 ADD SLOAD PUSH1 0x3C DUP3 MUL SWAP2 DUP1 DUP4 DIV PUSH1 0x3C EQ SWAP1 ISZERO OR ISZERO PUSH2 0x1184 JUMPI PUSH2 0x117D SWAP2 PUSH2 0x833 SWAP2 PUSH2 0x4BEA JUMP JUMPDEST CODESIZE DUP4 PUSH2 0xEC0 JUMP JUMPDEST PUSH4 0x4E487B71 PUSH1 0xE0 SHL DUP10 MSTORE PUSH1 0x11 PUSH1 0x4 MSTORE PUSH1 0x24 DUP10 REVERT JUMPDEST SWAP1 POP DUP4 DUP2 DUP2 RETURNDATASIZE DUP4 GT PUSH2 0x11BE JUMPI JUMPDEST PUSH2 0x11AF DUP2 DUP4 PUSH2 0x4762 JUMP JUMPDEST DUP2 ADD SUB SLT PUSH2 0x87B JUMPI MLOAD CODESIZE PUSH2 0x1157 JUMP JUMPDEST POP RETURNDATASIZE PUSH2 0x11A5 JUMP JUMPDEST DUP3 DUP2 SWAP4 SWAP3 POP RETURNDATASIZE DUP4 GT PUSH2 0x11F8 JUMPI JUMPDEST PUSH2 0x11DC DUP2 DUP4 PUSH2 0x4762 JUMP JUMPDEST DUP2 ADD SUB SLT PUSH2 0x11F4 JUMPI PUSH2 0x11EE DUP6 SWAP2 PUSH2 0x48AC JUMP JUMPDEST CODESIZE PUSH2 0xEBA JUMP JUMPDEST DUP9 DUP1 REVERT JUMPDEST POP RETURNDATASIZE PUSH2 0x11D2 JUMP JUMPDEST PUSH1 0x40 MLOAD RETURNDATASIZE DUP12 DUP3 RETURNDATACOPY RETURNDATASIZE SWAP1 REVERT JUMPDEST PUSH4 0x4E487B71 PUSH1 0xE0 SHL DUP10 MSTORE PUSH1 0x21 PUSH1 0x4 MSTORE PUSH1 0x24 DUP10 REVERT JUMPDEST POP DUP4 DUP2 DUP2 RETURNDATASIZE DUP4 GT PUSH2 0x124D JUMPI JUMPDEST PUSH2 0x1234 DUP2 DUP4 PUSH2 0x4762 JUMP JUMPDEST DUP2 ADD SUB SLT PUSH2 0x8C1 JUMPI PUSH2 0x1248 PUSH2 0xE6F SWAP2 PUSH2 0x48AC JUMP JUMPDEST PUSH2 0xE64 JUMP JUMPDEST POP RETURNDATASIZE PUSH2 0x122A JUMP JUMPDEST POP CALLVALUE PUSH2 0x28A JUMPI PUSH1 0x40 CALLDATASIZE PUSH1 0x3 NOT ADD SLT PUSH2 0x28A JUMPI PUSH2 0x126E PUSH2 0x44B4 JUMP JUMPDEST SWAP1 PUSH1 0x4 CALLDATALOAD DUP2 MSTORE PUSH1 0x1 PUSH1 0x20 MSTORE PUSH1 0x40 DUP2 KECCAK256 PUSH1 0xFF PUSH1 0xC DUP3 ADD SLOAD AND PUSH1 0x5 DUP2 LT ISZERO PUSH2 0x1635 JUMPI PUSH1 0x2 PUSH2 0x129A SWAP2 EQ PUSH2 0x5267 JUMP JUMPDEST PUSH1 0xD DUP2 ADD SLOAD PUSH2 0x12AA DUP2 ISZERO ISZERO PUSH2 0x52B3 JUMP JUMPDEST PUSH1 0x4 CALLDATALOAD DUP4 MSTORE PUSH1 0x2 PUSH1 0x20 MSTORE PUSH1 0x40 DUP4 KECCAK256 SWAP4 PUSH1 0x1 DUP1 PUSH1 0xA0 SHL SUB SWAP5 DUP6 DUP3 AND PUSH1 0x0 MSTORE PUSH1 0x20 MSTORE PUSH2 0x12DB PUSH1 0xFF PUSH1 0x40 PUSH1 0x0 KECCAK256 SLOAD AND PUSH2 0x52FE JUMP JUMPDEST DUP5 PUSH1 0x7 SLOAD AND PUSH1 0x40 MLOAD PUSH4 0x7C7A72D PUSH1 0xE0 SHL DUP2 MSTORE PUSH1 0x20 DUP2 DUP1 PUSH2 0x1301 DUP7 PUSH1 0x4 CALLDATALOAD PUSH1 0x4 DUP5 ADD PUSH2 0x4A60 JUMP JUMPDEST SUB DUP2 DUP6 GAS STATICCALL DUP1 ISZERO PUSH2 0xBEF JUMPI DUP7 SWAP1 PUSH2 0x15FA JUMPI JUMPDEST PUSH2 0x131E SWAP2 POP ISZERO PUSH2 0x5347 JUMP JUMPDEST DUP6 PUSH1 0x4 DUP6 ADD SLOAD AND SWAP4 PUSH1 0x40 MLOAD SWAP5 PUSH4 0x423E7BC1 PUSH1 0xE1 SHL DUP7 MSTORE PUSH1 0x20 DUP7 DUP1 PUSH2 0x1349 DUP5 DUP9 PUSH1 0x4 CALLDATALOAD PUSH1 0x4 DUP6 ADD PUSH2 0x4E16 JUMP JUMPDEST SUB DUP2 DUP7 GAS STATICCALL SWAP6 DUP7 ISZERO PUSH2 0x887 JUMPI DUP8 SWAP7 PUSH2 0x15C6 JUMPI JUMPDEST POP PUSH1 0x40 MLOAD PUSH4 0xDC4CE349 PUSH1 0xE0 SHL DUP2 MSTORE SWAP3 PUSH1 0x20 DUP5 DUP1 PUSH2 0x1380 DUP6 DUP11 PUSH1 0x4 DUP1 CALLDATALOAD SWAP1 DUP6 ADD PUSH2 0x5390 JUMP JUMPDEST SUB DUP2 DUP5 GAS STATICCALL SWAP4 DUP5 ISZERO PUSH2 0x8CC JUMPI DUP9 SWAP5 PUSH2 0x1592 JUMPI JUMPDEST POP DUP8 SWAP3 PUSH1 0x3 PUSH1 0x1 SWAP2 ADD SLOAD SWAP1 JUMPDEST DUP2 DUP2 GT ISZERO PUSH2 0x14F1 JUMPI POP POP PUSH2 0x13CF SWAP3 SWAP2 PUSH1 0x20 SWAP2 PUSH1 0x40 MLOAD DUP1 DUP1 SWAP7 DUP2 SWAP5 PUSH4 0x4F44289D PUSH1 0xE0 SHL DUP4 MSTORE PUSH1 0x4 CALLDATALOAD PUSH1 0x4 DUP5 ADD PUSH2 0x4A60 JUMP JUMPDEST SUB SWAP2 GAS STATICCALL SWAP1 DUP2 ISZERO PUSH2 0x887 JUMPI DUP8 SWAP2 PUSH2 0x14BB JUMPI JUMPDEST PUSH2 0x13EB SWAP3 POP PUSH2 0x492E JUMP JUMPDEST DUP2 PUSH2 0x1402 JUMPI POP POP POP POP POP PUSH1 0x20 SWAP2 POP JUMPDEST PUSH1 0x40 MLOAD SWAP1 DUP2 MSTORE RETURN JUMPDEST SWAP4 SWAP5 SWAP4 DUP1 PUSH2 0x143F JUMPI POP POP PUSH1 0x20 SWAP5 PUSH1 0x4 CALLDATALOAD DUP5 MSTORE PUSH1 0x4 DUP7 MSTORE PUSH1 0x40 DUP5 KECCAK256 SWAP2 AND PUSH1 0x0 MSTORE DUP5 MSTORE PUSH1 0x40 PUSH1 0x0 KECCAK256 SLOAD EQ PUSH1 0x0 EQ PUSH2 0x1438 JUMPI POP JUMPDEST PUSH2 0x13FA JUMP JUMPDEST SWAP1 POP PUSH2 0x13FA JUMP JUMPDEST SWAP4 SWAP3 SWAP2 SWAP1 SWAP5 SWAP6 PUSH1 0x4 CALLDATALOAD DUP5 MSTORE PUSH1 0x4 PUSH1 0x20 MSTORE PUSH1 0x40 DUP5 KECCAK256 SWAP2 AND PUSH1 0x0 MSTORE PUSH1 0x20 MSTORE PUSH1 0x40 PUSH1 0x0 KECCAK256 SLOAD EQ PUSH1 0x0 EQ PUSH2 0x14AF JUMPI PUSH2 0x2328 DUP1 DUP4 MUL SWAP3 DUP4 DIV SUB PUSH2 0x149B JUMPI POP SWAP2 PUSH2 0x1495 PUSH2 0x1433 SWAP3 PUSH2 0x1490 PUSH2 0x2710 PUSH1 0x20 SWAP7 DIV DUP5 PUSH2 0x4905 JUMP JUMPDEST PUSH2 0x53B1 JUMP JUMPDEST SWAP1 PUSH2 0x492E JUMP JUMPDEST PUSH4 0x4E487B71 PUSH1 0xE0 SHL DUP2 MSTORE PUSH1 0x11 PUSH1 0x4 MSTORE PUSH1 0x24 SWAP1 REVERT JUMPDEST SWAP2 POP POP PUSH1 0x20 SWAP2 POP PUSH2 0x13FA JUMP JUMPDEST SWAP1 POP PUSH1 0x20 DUP3 RETURNDATASIZE PUSH1 0x20 GT PUSH2 0x14E9 JUMPI JUMPDEST DUP2 PUSH2 0x14D6 PUSH1 0x20 SWAP4 DUP4 PUSH2 0x4762 JUMP JUMPDEST DUP2 ADD SUB SLT PUSH2 0x87B JUMPI PUSH2 0x13EB SWAP2 MLOAD SWAP1 PUSH2 0x13E1 JUMP JUMPDEST RETURNDATASIZE SWAP2 POP PUSH2 0x14C9 JUMP JUMPDEST DUP8 DUP2 SUB PUSH2 0x1507 JUMPI JUMPDEST PUSH2 0x1502 SWAP1 PUSH2 0x493B JUMP JUMPDEST PUSH2 0x139F JUMP JUMPDEST SWAP4 PUSH1 0x40 MLOAD PUSH4 0xDC4CE349 PUSH1 0xE0 SHL DUP2 MSTORE PUSH1 0x20 DUP2 DUP1 PUSH2 0x152A DUP9 DUP11 PUSH1 0x4 CALLDATALOAD PUSH1 0x4 DUP6 ADD PUSH2 0x5390 JUMP JUMPDEST SUB DUP2 DUP8 GAS STATICCALL SWAP1 DUP2 ISZERO PUSH2 0x1587 JUMPI DUP12 SWAP2 PUSH2 0x1553 JUMPI JUMPDEST POP PUSH2 0x154B SWAP1 PUSH2 0x1502 SWAP3 PUSH2 0x492E JUMP JUMPDEST SWAP5 SWAP1 POP PUSH2 0x14F9 JUMP JUMPDEST SWAP1 POP PUSH1 0x20 DUP2 RETURNDATASIZE PUSH1 0x20 GT PUSH2 0x157F JUMPI JUMPDEST DUP2 PUSH2 0x156E PUSH1 0x20 SWAP4 DUP4 PUSH2 0x4762 JUMP JUMPDEST DUP2 ADD SUB SLT PUSH2 0x87B JUMPI MLOAD PUSH2 0x1502 PUSH2 0x153D JUMP JUMPDEST RETURNDATASIZE SWAP2 POP PUSH2 0x1561 JUMP JUMPDEST PUSH1 0x40 MLOAD RETURNDATASIZE DUP14 DUP3 RETURNDATACOPY RETURNDATASIZE SWAP1 REVERT JUMPDEST SWAP1 SWAP4 POP PUSH1 0x20 DUP2 RETURNDATASIZE PUSH1 0x20 GT PUSH2 0x15BE JUMPI JUMPDEST DUP2 PUSH2 0x15AE PUSH1 0x20 SWAP4 DUP4 PUSH2 0x4762 JUMP JUMPDEST DUP2 ADD SUB SLT PUSH2 0x87B JUMPI MLOAD SWAP3 CODESIZE PUSH2 0x1393 JUMP JUMPDEST RETURNDATASIZE SWAP2 POP PUSH2 0x15A1 JUMP JUMPDEST SWAP1 SWAP6 POP PUSH1 0x20 DUP2 RETURNDATASIZE PUSH1 0x20 GT PUSH2 0x15F2 JUMPI JUMPDEST DUP2 PUSH2 0x15E2 PUSH1 0x20 SWAP4 DUP4 PUSH2 0x4762 JUMP JUMPDEST DUP2 ADD SUB SLT PUSH2 0x87B JUMPI MLOAD SWAP5 CODESIZE PUSH2 0x135C JUMP JUMPDEST RETURNDATASIZE SWAP2 POP PUSH2 0x15D5 JUMP JUMPDEST POP PUSH1 0x20 DUP2 RETURNDATASIZE PUSH1 0x20 GT PUSH2 0x162D JUMPI JUMPDEST DUP2 PUSH2 0x1614 PUSH1 0x20 SWAP4 DUP4 PUSH2 0x4762 JUMP JUMPDEST DUP2 ADD SUB SLT PUSH2 0xDC6 JUMPI PUSH2 0x1628 PUSH2 0x131E SWAP2 PUSH2 0x48AC JUMP JUMPDEST PUSH2 0x1313 JUMP JUMPDEST RETURNDATASIZE SWAP2 POP PUSH2 0x1607 JUMP JUMPDEST PUSH4 0x4E487B71 PUSH1 0xE0 SHL DUP4 MSTORE PUSH1 0x21 PUSH1 0x4 MSTORE PUSH1 0x24 DUP4 REVERT JUMPDEST POP CALLVALUE PUSH2 0x28A JUMPI PUSH1 0x40 CALLDATASIZE PUSH1 0x3 NOT ADD SLT PUSH2 0x28A JUMPI PUSH2 0x1692 SWAP1 PUSH1 0x20 PUSH2 0x1669 PUSH2 0x44B4 JUMP JUMPDEST PUSH1 0x1 DUP1 PUSH1 0xA0 SHL SUB PUSH1 0x7 SLOAD AND PUSH1 0x40 MLOAD DUP1 DUP1 SWAP7 DUP2 SWAP5 PUSH4 0x3D1E7BA1 PUSH1 0xE1 SHL DUP4 MSTORE PUSH1 0x4 CALLDATALOAD PUSH1 0x4 DUP5 ADD PUSH2 0x4A60 JUMP JUMPDEST SUB SWAP2 GAS STATICCALL SWAP1 DUP2 ISZERO PUSH2 0x16E0 JUMPI SWAP1 PUSH2 0x16AE JUMPI JUMPDEST PUSH1 0x20 SWAP1 PUSH1 0x40 MLOAD SWAP1 DUP2 MSTORE RETURN JUMPDEST POP PUSH1 0x20 DUP2 RETURNDATASIZE DUP3 GT PUSH2 0x16D8 JUMPI JUMPDEST DUP2 PUSH2 0x16C7 PUSH1 0x20 SWAP4 DUP4 PUSH2 0x4762 JUMP JUMPDEST DUP2 ADD SUB SLT PUSH2 0x87B JUMPI PUSH1 0x20 SWAP1 MLOAD PUSH2 0x16A3 JUMP JUMPDEST RETURNDATASIZE SWAP2 POP PUSH2 0x16BA JUMP JUMPDEST PUSH1 0x40 MLOAD SWAP1 RETURNDATASIZE SWAP1 DUP3 RETURNDATACOPY RETURNDATASIZE SWAP1 REVERT JUMPDEST POP CALLVALUE PUSH2 0x28A JUMPI PUSH1 0x20 CALLDATASIZE PUSH1 0x3 NOT ADD SLT PUSH2 0x28A JUMPI PUSH1 0x40 PUSH2 0x17F4 SWAP2 PUSH2 0x170C PUSH2 0x5DF2 JUMP JUMPDEST POP PUSH1 0x4 CALLDATALOAD DUP2 MSTORE PUSH1 0x1 PUSH1 0x20 MSTORE KECCAK256 PUSH1 0xFF PUSH1 0xE PUSH1 0x40 MLOAD SWAP3 PUSH2 0x1729 DUP5 PUSH2 0x472B JUMP JUMPDEST DUP1 SLOAD PUSH1 0x1 PUSH1 0x1 PUSH1 0xA0 SHL SUB SWAP1 DUP2 AND DUP6 MSTORE PUSH2 0x1744 PUSH1 0x1 DUP4 ADD PUSH2 0x47DA JUMP JUMPDEST PUSH1 0x20 DUP7 ADD MSTORE DUP4 PUSH1 0x2 DUP4 ADD SLOAD AND ISZERO ISZERO PUSH1 0x40 DUP7 ADD MSTORE PUSH1 0x3 DUP3 ADD SLOAD PUSH1 0x60 DUP7 ADD MSTORE PUSH1 0x4 DUP3 ADD SLOAD AND PUSH1 0x80 DUP6 ADD MSTORE PUSH1 0x5 DUP2 ADD SLOAD PUSH1 0xA0 DUP6 ADD MSTORE PUSH1 0x6 DUP2 ADD SLOAD PUSH1 0xC0 DUP6 ADD MSTORE PUSH1 0x7 DUP2 ADD SLOAD PUSH1 0xE0 DUP6 ADD MSTORE PUSH1 0x8 DUP2 ADD SLOAD PUSH2 0x100 DUP6 ADD MSTORE PUSH1 0x9 DUP2 ADD SLOAD PUSH2 0x120 DUP6 ADD MSTORE PUSH1 0xA DUP2 ADD SLOAD PUSH2 0x140 DUP6 ADD MSTORE PUSH1 0xB DUP2 ADD SLOAD PUSH2 0x160 DUP6 ADD MSTORE PUSH2 0x17CA DUP4 PUSH1 0xC DUP4 ADD SLOAD AND PUSH2 0x180 DUP7 ADD PUSH2 0x494A JUMP JUMPDEST PUSH1 0xD DUP2 ADD SLOAD PUSH2 0x1A0 DUP6 ADD MSTORE ADD SLOAD AND ISZERO ISZERO PUSH2 0x1C0 DUP3 ADD MSTORE PUSH1 0x40 MLOAD SWAP2 DUP3 SWAP2 PUSH1 0x20 DUP4 MSTORE PUSH1 0x20 DUP4 ADD SWAP1 PUSH2 0x461A JUMP JUMPDEST SUB SWAP1 RETURN JUMPDEST POP CALLVALUE PUSH2 0x28A JUMPI PUSH1 0x20 DUP1 PUSH1 0x3 NOT CALLDATASIZE ADD SLT PUSH2 0x3D2 JUMPI PUSH1 0x4 CALLDATALOAD SWAP1 PUSH2 0x1828 PUSH1 0x1 DUP1 PUSH1 0xA0 SHL SUB PUSH2 0x2BD DUP2 PUSH1 0x8 SLOAD AND CALLER EQ PUSH2 0x5D11 JUMP JUMPDEST DUP2 DUP4 MSTORE PUSH1 0x1 DUP2 MSTORE PUSH1 0xFF PUSH1 0xC PUSH1 0x40 DUP6 KECCAK256 ADD SLOAD AND PUSH1 0x5 DUP2 LT ISZERO PUSH2 0x3BE JUMPI PUSH1 0x0 DUP1 MLOAD PUSH1 0x20 PUSH2 0x5E63 DUP4 CODECOPY DUP2 MLOAD SWAP2 MSTORE SWAP2 PUSH2 0x1861 PUSH1 0x2 PUSH1 0x80 SWAP4 EQ PUSH2 0x5267 JUMP JUMPDEST DUP4 DUP6 MSTORE PUSH1 0x1 DUP2 MSTORE DUP5 PUSH1 0xE PUSH1 0x40 DUP3 KECCAK256 DUP3 DUP2 SSTORE DUP3 PUSH1 0x1 DUP3 ADD PUSH2 0x1881 DUP2 SLOAD PUSH2 0x47A0 JUMP JUMPDEST DUP1 PUSH2 0x1942 JUMPI JUMPDEST POP POP PUSH1 0x2 DUP3 ADD SSTORE PUSH1 0x0 PUSH1 0x3 DUP3 ADD SSTORE DUP3 PUSH1 0x4 DUP3 ADD SSTORE PUSH1 0x0 PUSH1 0x5 DUP3 ADD SSTORE PUSH1 0x0 PUSH1 0x6 DUP3 ADD SSTORE PUSH1 0x0 PUSH1 0x7 DUP3 ADD SSTORE PUSH1 0x0 PUSH1 0x8 DUP3 ADD SSTORE PUSH1 0x0 PUSH1 0x9 DUP3 ADD SSTORE PUSH1 0x0 PUSH1 0xA DUP3 ADD SSTORE PUSH1 0x0 PUSH1 0xB DUP3 ADD SSTORE DUP3 PUSH1 0xC DUP3 ADD SSTORE PUSH1 0x0 PUSH1 0xD DUP3 ADD SSTORE ADD SSTORE DUP4 DUP6 MSTORE PUSH1 0xB DUP2 MSTORE PUSH1 0xFF PUSH1 0x40 DUP7 KECCAK256 SLOAD AND PUSH2 0x1934 JUMPI JUMPDEST PUSH1 0x26 PUSH1 0x40 MLOAD SWAP2 DUP1 DUP4 MSTORE DUP3 ADD MSTORE PUSH32 0x5065726D616E656E746C792072656D6F76656420616674657220636C61696D20 PUSH1 0x40 DUP3 ADD MSTORE PUSH6 0x1C195C9A5BD9 PUSH1 0xD2 SHL PUSH1 0x60 DUP3 ADD MSTORE LOG2 DUP1 RETURN JUMPDEST PUSH2 0x193D DUP5 PUSH2 0x5C57 JUMP JUMPDEST PUSH2 0x18EF JUMP JUMPDEST PUSH1 0x1F DUP2 GT PUSH1 0x1 EQ PUSH2 0x195C JUMPI POP PUSH1 0x0 SWAP2 POP SSTORE JUMPDEST DUP3 CODESIZE DUP1 PUSH2 0x1887 JUMP JUMPDEST SWAP1 DUP1 PUSH1 0x0 SWAP2 DUP5 MSTORE PUSH2 0x197B PUSH1 0x1F DUP10 DUP7 KECCAK256 SWAP5 ADD PUSH1 0x5 SHR DUP5 ADD PUSH1 0x1 DUP6 ADD PUSH2 0x4956 JUMP JUMPDEST SSTORE SSTORE PUSH2 0x1954 JUMP JUMPDEST POP CALLVALUE PUSH2 0x28A JUMPI PUSH1 0x60 CALLDATASIZE PUSH1 0x3 NOT ADD SLT PUSH2 0x28A JUMPI PUSH1 0x44 CALLDATALOAD SWAP1 PUSH1 0x1 PUSH1 0x1 PUSH1 0xA0 SHL SUB DUP1 DUP4 AND DUP4 SUB PUSH2 0x87B JUMPI PUSH2 0x1692 SWAP3 PUSH1 0x20 SWAP2 PUSH1 0x7 SLOAD AND PUSH1 0x40 MLOAD DUP1 DUP1 SWAP7 DUP2 SWAP5 PUSH4 0xDC4CE349 PUSH1 0xE0 SHL DUP4 MSTORE PUSH1 0x24 CALLDATALOAD PUSH1 0x4 CALLDATALOAD PUSH1 0x4 DUP6 ADD PUSH2 0x5390 JUMP JUMPDEST POP CALLVALUE PUSH2 0x28A JUMPI PUSH1 0x40 CALLDATASIZE PUSH1 0x3 NOT ADD SLT PUSH2 0x28A JUMPI PUSH1 0x40 PUSH2 0x19F1 PUSH2 0x44B4 JUMP JUMPDEST SWAP2 PUSH1 0x4 CALLDATALOAD DUP2 MSTORE PUSH1 0x4 PUSH1 0x20 MSTORE KECCAK256 SWAP1 PUSH1 0x1 DUP1 PUSH1 0xA0 SHL SUB AND PUSH1 0x0 MSTORE PUSH1 0x20 MSTORE PUSH1 0x20 PUSH1 0x40 PUSH1 0x0 KECCAK256 SLOAD PUSH1 0x40 MLOAD SWAP1 DUP2 MSTORE RETURN JUMPDEST POP CALLVALUE PUSH2 0x28A JUMPI PUSH2 0x1A2B CALLDATASIZE PUSH2 0x4515 JUMP JUMPDEST SWAP2 SWAP1 DUP2 MSTORE PUSH1 0x5 PUSH1 0x20 MSTORE PUSH1 0x40 DUP2 KECCAK256 SWAP1 DUP2 SLOAD DUP4 LT ISZERO PUSH2 0x28A JUMPI PUSH1 0x20 PUSH2 0x1A4E DUP5 DUP5 PUSH2 0x455C JUMP JUMPDEST SWAP1 SLOAD PUSH1 0x40 MLOAD PUSH1 0x3 SWAP3 SWAP1 SWAP3 SHL SHR PUSH1 0x1 PUSH1 0x1 PUSH1 0xA0 SHL SUB AND DUP2 MSTORE RETURN JUMPDEST POP CALLVALUE PUSH2 0x28A JUMPI DUP1 PUSH1 0x3 NOT CALLDATASIZE ADD SLT PUSH2 0x28A JUMPI PUSH1 0x20 PUSH1 0x40 MLOAD PUSH2 0x15E DUP2 MSTORE RETURN JUMPDEST POP CALLVALUE PUSH2 0x28A JUMPI PUSH1 0x20 CALLDATASIZE PUSH1 0x3 NOT ADD SLT PUSH2 0x28A JUMPI PUSH1 0x4 CALLDATALOAD DUP1 DUP3 MSTORE PUSH1 0x1 PUSH1 0x20 MSTORE PUSH1 0x40 DUP3 KECCAK256 DUP1 SLOAD PUSH1 0x1 PUSH1 0x1 PUSH1 0xA0 SHL SUB AND CALLER SUB PUSH2 0x1B79 JUMPI PUSH1 0xFF PUSH1 0xC DUP3 ADD SLOAD AND PUSH1 0x5 DUP2 LT ISZERO PUSH2 0x3BE JUMPI SWAP1 PUSH2 0x1AD4 PUSH1 0x9 SWAP3 ISZERO PUSH2 0x4B9F JUMP JUMPDEST ADD SLOAD PUSH2 0xA8BF NOT DUP2 ADD SWAP1 DUP2 GT PUSH2 0x1B65 JUMPI TIMESTAMP LT ISZERO PUSH2 0x1B20 JUMPI PUSH1 0x40 MLOAD PUSH2 0x1B1D SWAP2 PUSH2 0x1AFA DUP3 PUSH2 0x4747 JUMP JUMPDEST PUSH1 0x11 DUP3 MSTORE PUSH17 0x10DC99585D1BDC8818D85B98D95B1B1959 PUSH1 0x7A SHL PUSH1 0x20 DUP4 ADD MSTORE PUSH2 0x53D1 JUMP JUMPDEST DUP1 RETURN JUMPDEST PUSH1 0x40 MLOAD PUSH3 0x461BCD PUSH1 0xE5 SHL DUP2 MSTORE PUSH1 0x20 PUSH1 0x4 DUP3 ADD MSTORE PUSH1 0x1D PUSH1 0x24 DUP3 ADD MSTORE PUSH32 0x4576656E74506F6F6C3A20546F6F206C61746520746F2063616E63656C000000 PUSH1 0x44 DUP3 ADD MSTORE PUSH1 0x64 SWAP1 REVERT JUMPDEST PUSH4 0x4E487B71 PUSH1 0xE0 SHL DUP4 MSTORE PUSH1 0x11 PUSH1 0x4 MSTORE PUSH1 0x24 DUP4 REVERT JUMPDEST PUSH1 0x40 MLOAD PUSH3 0x461BCD PUSH1 0xE5 SHL DUP2 MSTORE PUSH1 0x20 PUSH1 0x4 DUP3 ADD MSTORE PUSH1 0x22 PUSH1 0x24 DUP3 ADD MSTORE PUSH32 0x4576656E74506F6F6C3A204F6E6C792063726561746F722063616E2063616E63 PUSH1 0x44 DUP3 ADD MSTORE PUSH2 0x195B PUSH1 0xF2 SHL PUSH1 0x64 DUP3 ADD MSTORE PUSH1 0x84 SWAP1 REVERT JUMPDEST POP CALLVALUE PUSH2 0x28A JUMPI PUSH2 0x1BD8 CALLDATASIZE PUSH2 0x4515 JUMP JUMPDEST SWAP2 SWAP1 DUP2 MSTORE PUSH1 0x6 PUSH1 0x20 MSTORE PUSH1 0x40 DUP2 KECCAK256 SWAP1 DUP2 SLOAD DUP4 LT ISZERO PUSH2 0x28A JUMPI PUSH1 0x20 PUSH2 0x1A4E DUP5 DUP5 PUSH2 0x455C JUMP JUMPDEST POP CALLVALUE PUSH2 0x28A JUMPI PUSH1 0x20 CALLDATASIZE PUSH1 0x3 NOT ADD SLT PUSH2 0x28A JUMPI PUSH2 0x1C15 PUSH2 0x44CA JUMP JUMPDEST PUSH2 0x1C1D PUSH2 0x4880 JUMP JUMPDEST PUSH1 0x1 PUSH1 0x1 PUSH1 0xA0 SHL SUB AND DUP1 ISZERO PUSH2 0x1C43 JUMPI PUSH1 0x8 DUP1 SLOAD PUSH1 0x1 PUSH1 0x1 PUSH1 0xA0 SHL SUB NOT AND SWAP2 SWAP1 SWAP2 OR SWAP1 SSTORE DUP1 RETURN JUMPDEST PUSH1 0x40 MLOAD PUSH3 0x461BCD PUSH1 0xE5 SHL DUP2 MSTORE PUSH1 0x20 PUSH1 0x4 DUP3 ADD MSTORE PUSH1 0x1A PUSH1 0x24 DUP3 ADD MSTORE PUSH26 0x4576656E74506F6F6C3A20496E76616C69642061646472657373 PUSH1 0x30 SHL PUSH1 0x44 DUP3 ADD MSTORE PUSH1 0x64 SWAP1 REVERT JUMPDEST POP CALLVALUE PUSH2 0x28A JUMPI DUP1 PUSH1 0x3 NOT CALLDATASIZE ADD SLT PUSH2 0x28A JUMPI PUSH1 0x9 SLOAD PUSH1 0x0 NOT DUP1 DUP3 ADD SWAP2 SWAP1 DUP2 DUP4 GT PUSH2 0x1D25 JUMPI PUSH2 0x1CB1 DUP4 PUSH2 0x541A JUMP JUMPDEST SWAP3 PUSH2 0x1CBF PUSH1 0x40 MLOAD SWAP5 DUP6 PUSH2 0x4762 JUMP JUMPDEST DUP1 DUP5 MSTORE PUSH2 0x1CCE PUSH1 0x1F NOT SWAP2 PUSH2 0x541A JUMP JUMPDEST ADD CALLDATASIZE PUSH1 0x20 DUP6 ADD CALLDATACOPY PUSH1 0x1 JUMPDEST DUP3 DUP2 LT PUSH2 0x1CED JUMPI PUSH1 0x40 MLOAD DUP1 PUSH2 0x17F4 DUP7 DUP3 PUSH2 0x4574 JUMP JUMPDEST DUP2 DUP2 ADD DUP2 DUP2 GT PUSH2 0x1D11 JUMPI SWAP1 DUP1 PUSH2 0x1D06 PUSH2 0x1D0C SWAP4 DUP8 PUSH2 0x5431 JUMP JUMPDEST MSTORE PUSH2 0x493B JUMP JUMPDEST PUSH2 0x1CD8 JUMP JUMPDEST PUSH4 0x4E487B71 PUSH1 0xE0 SHL DUP7 MSTORE PUSH1 0x11 PUSH1 0x4 MSTORE PUSH1 0x24 DUP7 REVERT JUMPDEST PUSH4 0x4E487B71 PUSH1 0xE0 SHL DUP5 MSTORE PUSH1 0x11 PUSH1 0x4 MSTORE PUSH1 0x24 DUP5 REVERT JUMPDEST POP CALLVALUE PUSH2 0x28A JUMPI PUSH1 0x20 CALLDATASIZE PUSH1 0x3 NOT ADD SLT PUSH2 0x28A JUMPI PUSH1 0x4 CALLDATALOAD DUP2 MSTORE PUSH1 0x1 PUSH1 0x20 MSTORE PUSH1 0x40 SWAP1 KECCAK256 PUSH1 0x1 PUSH1 0xA0 SHL PUSH1 0x1 SWAP1 SUB DUP1 DUP3 SLOAD AND SWAP2 PUSH1 0x1 DUP2 ADD PUSH2 0x1D74 SWAP1 PUSH2 0x47DA JUMP JUMPDEST SWAP2 PUSH1 0x2 DUP3 ADD SLOAD PUSH1 0xFF AND SWAP2 PUSH1 0x3 DUP2 ADD SLOAD SWAP2 PUSH1 0x4 DUP3 ADD SLOAD AND PUSH1 0x5 DUP3 ADD SLOAD PUSH1 0x6 DUP4 ADD SLOAD PUSH1 0x7 DUP5 ADD SLOAD PUSH1 0x8 DUP6 ADD SLOAD PUSH1 0x9 DUP7 ADD SLOAD SWAP2 PUSH1 0xA DUP8 ADD SLOAD SWAP4 PUSH1 0xB DUP9 ADD SLOAD SWAP6 PUSH1 0xC DUP10 ADD SLOAD PUSH1 0xFF AND SWAP8 PUSH1 0xD DUP11 ADD SLOAD SWAP10 PUSH1 0xE ADD SLOAD PUSH1 0xFF AND SWAP11 PUSH1 0x40 MLOAD SWAP15 DUP16 SWAP15 DUP16 SWAP2 DUP3 MSTORE PUSH2 0x1E0 DUP1 PUSH1 0x20 DUP5 ADD MSTORE DUP3 ADD PUSH2 0x1DE5 SWAP2 PUSH2 0x45D2 JUMP JUMPDEST SWAP14 ISZERO ISZERO PUSH1 0x40 DUP3 ADD MSTORE PUSH1 0x60 ADD MSTORE PUSH1 0x80 DUP14 ADD MSTORE PUSH1 0xA0 DUP13 ADD MSTORE PUSH1 0xC0 DUP12 ADD MSTORE PUSH1 0xE0 DUP11 ADD MSTORE PUSH2 0x100 DUP10 ADD MSTORE PUSH2 0x120 DUP9 ADD MSTORE PUSH2 0x140 DUP8 ADD MSTORE PUSH2 0x160 DUP7 ADD MSTORE PUSH2 0x180 DUP6 ADD PUSH2 0x1E2B SWAP2 PUSH2 0x45F7 JUMP JUMPDEST PUSH2 0x1A0 DUP5 ADD MSTORE ISZERO ISZERO PUSH2 0x1C0 DUP4 ADD MSTORE SUB SWAP1 RETURN JUMPDEST POP CALLVALUE PUSH2 0x28A JUMPI PUSH1 0x20 DUP1 PUSH1 0x3 NOT CALLDATASIZE ADD SLT PUSH2 0x3D2 JUMPI PUSH1 0x4 CALLDATALOAD SWAP1 DUP2 DUP4 MSTORE PUSH1 0x1 DUP2 MSTORE PUSH1 0x40 DUP4 KECCAK256 SWAP1 PUSH1 0xC DUP3 ADD DUP1 SLOAD PUSH1 0xFF DUP2 AND PUSH1 0x5 DUP2 LT ISZERO PUSH2 0x20BB JUMPI SWAP1 PUSH2 0x1E83 PUSH1 0x1 PUSH1 0x4 SWAP5 SWAP4 EQ PUSH2 0x4E36 JUMP JUMPDEST PUSH1 0xE DUP6 ADD SWAP1 DUP2 SLOAD SWAP2 PUSH2 0x1E98 PUSH1 0xFF DUP5 AND ISZERO PUSH2 0x4E8E JUMP JUMPDEST PUSH1 0x8 SLOAD PUSH1 0x40 MLOAD PUSH4 0x4FFE2A8B PUSH1 0xE0 SHL DUP2 MSTORE PUSH1 0x1 PUSH1 0x1 PUSH1 0xA0 SHL SUB SWAP9 SWAP1 SWAP7 SWAP1 SWAP2 DUP9 SWAP2 DUP9 SWAP2 DUP3 SWAP1 DUP13 AND GAS STATICCALL DUP1 ISZERO PUSH2 0x2072 JUMPI DUP9 SWAP7 DUP12 SWAP2 PUSH2 0x207D JUMPI JUMPDEST POP PUSH1 0x40 SWAP1 PUSH1 0x24 DUP12 DUP4 MLOAD SWAP12 DUP13 SWAP4 DUP5 SWAP3 PUSH4 0x33138655 PUSH1 0xE2 SHL DUP5 MSTORE PUSH1 0x4 DUP5 ADD MSTORE AND GAS STATICCALL SWAP8 DUP9 ISZERO PUSH2 0x2072 JUMPI DUP11 SWAP1 DUP12 SWAP10 PUSH2 0x203E JUMPI JUMPDEST POP ISZERO PUSH2 0x1FFB JUMPI PUSH1 0xD ADD DUP8 SWAP1 SSTORE PUSH1 0xFF NOT SWAP3 DUP4 AND PUSH1 0x1 OR SWAP1 SSTORE AND PUSH1 0x2 OR SWAP1 SSTORE DUP5 SWAP1 PUSH2 0x1F27 DUP5 DUP7 PUSH2 0x5445 JUMP JUMPDEST PUSH2 0x1F30 DUP6 PUSH2 0x5689 JUMP JUMPDEST PUSH1 0x4 DUP4 DUP3 PUSH1 0x8 SLOAD AND PUSH1 0x40 MLOAD SWAP3 DUP4 DUP1 SWAP3 PUSH4 0x406AD645 PUSH1 0xE1 SHL DUP3 MSTORE GAS STATICCALL SWAP1 DUP2 ISZERO PUSH2 0x6CF JUMPI DUP4 SWAP2 PUSH2 0x1FC6 JUMPI JUMPDEST POP AND DUP1 PUSH2 0x1F7D JUMPI JUMPDEST POP POP PUSH1 0x0 DUP1 MLOAD PUSH1 0x20 PUSH2 0x5EA3 DUP4 CODECOPY DUP2 MLOAD SWAP2 MSTORE SWAP2 PUSH1 0x40 MLOAD SWAP1 DUP2 MSTORE LOG2 DUP1 RETURN JUMPDEST DUP1 EXTCODESIZE ISZERO PUSH2 0x3D2 JUMPI DUP2 DUP1 SWAP2 PUSH1 0x44 PUSH1 0x40 MLOAD DUP1 SWAP5 DUP2 SWAP4 PUSH3 0xFF4A73 PUSH1 0xE8 SHL DUP4 MSTORE DUP11 PUSH1 0x4 DUP5 ADD MSTORE DUP10 PUSH1 0x24 DUP5 ADD MSTORE GAS CALL DUP1 ISZERO PUSH2 0x68B JUMPI ISZERO PUSH2 0x1F61 JUMPI PUSH2 0x1FBB SWAP1 PUSH2 0x4718 JUMP JUMPDEST PUSH2 0x687 JUMPI DUP4 CODESIZE PUSH2 0x1F61 JUMP JUMPDEST SWAP1 POP DUP4 DUP2 DUP2 RETURNDATASIZE DUP4 GT PUSH2 0x1FF4 JUMPI JUMPDEST PUSH2 0x1FDD DUP2 DUP4 PUSH2 0x4762 JUMP JUMPDEST DUP2 ADD SUB SLT PUSH2 0x6C4 JUMPI PUSH2 0x1FEE SWAP1 PUSH2 0x4A4C JUMP JUMPDEST CODESIZE PUSH2 0x1F59 JUMP JUMPDEST POP RETURNDATASIZE PUSH2 0x1FD3 JUMP JUMPDEST PUSH1 0x64 DUP8 PUSH1 0x40 MLOAD SWAP1 PUSH3 0x461BCD PUSH1 0xE5 SHL DUP3 MSTORE DUP1 PUSH1 0x4 DUP4 ADD MSTORE PUSH1 0x24 DUP3 ADD MSTORE PUSH32 0x4576656E74506F6F6C3A204E6F207265736F6C7574696F6E2072656163686564 PUSH1 0x44 DUP3 ADD MSTORE REVERT JUMPDEST SWAP1 POP PUSH2 0x2063 SWAP2 SWAP9 POP PUSH1 0x40 RETURNDATASIZE PUSH1 0x40 GT PUSH2 0x206B JUMPI JUMPDEST PUSH2 0x205B DUP2 DUP4 PUSH2 0x4762 JUMP JUMPDEST DUP2 ADD SWAP1 PUSH2 0x4F0D JUMP JUMPDEST SWAP8 SWAP1 CODESIZE PUSH2 0x1EFE JUMP JUMPDEST POP RETURNDATASIZE PUSH2 0x2051 JUMP JUMPDEST PUSH1 0x40 MLOAD RETURNDATASIZE DUP13 DUP3 RETURNDATACOPY RETURNDATASIZE SWAP1 REVERT JUMPDEST DUP1 SWAP8 POP DUP9 DUP1 SWAP3 POP RETURNDATASIZE DUP4 GT PUSH2 0x20B4 JUMPI JUMPDEST PUSH2 0x2096 DUP2 DUP4 PUSH2 0x4762 JUMP JUMPDEST DUP2 ADD SUB SLT PUSH2 0x20B0 JUMPI PUSH1 0x40 PUSH2 0x20AA DUP10 SWAP8 PUSH2 0x4A4C JUMP JUMPDEST SWAP1 PUSH2 0x1ECE JUMP JUMPDEST DUP10 DUP1 REVERT JUMPDEST POP RETURNDATASIZE PUSH2 0x208C JUMP JUMPDEST PUSH4 0x4E487B71 PUSH1 0xE0 SHL DUP8 MSTORE PUSH1 0x21 PUSH1 0x4 MSTORE PUSH1 0x24 DUP8 REVERT JUMPDEST POP CALLVALUE PUSH2 0x28A JUMPI DUP1 PUSH1 0x3 NOT CALLDATASIZE ADD SLT PUSH2 0x28A JUMPI PUSH1 0x40 MLOAD PUSH1 0xA DUP1 SLOAD DUP1 DUP4 MSTORE SWAP1 DUP4 MSTORE PUSH1 0x20 DUP1 DUP4 ADD SWAP4 PUSH32 0xC65A7BB8D6351C1CF70C95A316CC6A92839C986682D98BC35F958F4883F9D2A8 SWAP3 SWAP2 JUMPDEST DUP3 DUP3 LT PUSH2 0x213A JUMPI PUSH2 0x17F4 DUP6 PUSH2 0x212E DUP2 DUP10 SUB DUP3 PUSH2 0x4762 JUMP JUMPDEST PUSH1 0x40 MLOAD SWAP2 DUP3 SWAP2 DUP3 PUSH2 0x4574 JUMP JUMPDEST DUP4 SLOAD DUP7 MSTORE SWAP5 DUP6 ADD SWAP5 PUSH1 0x1 SWAP4 DUP5 ADD SWAP4 SWAP1 SWAP2 ADD SWAP1 PUSH2 0x2117 JUMP JUMPDEST POP CALLVALUE PUSH2 0x28A JUMPI PUSH1 0x20 CALLDATASIZE PUSH1 0x3 NOT ADD SLT PUSH2 0x28A JUMPI PUSH1 0x40 PUSH1 0x20 SWAP2 PUSH1 0x4 CALLDATALOAD DUP2 MSTORE PUSH1 0x6 DUP4 MSTORE KECCAK256 SLOAD PUSH1 0x40 MLOAD SWAP1 DUP2 MSTORE RETURN JUMPDEST POP CALLVALUE PUSH2 0x28A JUMPI DUP1 PUSH1 0x3 NOT CALLDATASIZE ADD SLT PUSH2 0x28A JUMPI PUSH1 0x8 SLOAD PUSH1 0x40 MLOAD PUSH1 0x1 PUSH1 0x1 PUSH1 0xA0 SHL SUB SWAP1 SWAP2 AND DUP2 MSTORE PUSH1 0x20 SWAP1 RETURN JUMPDEST POP CALLVALUE PUSH2 0x28A JUMPI PUSH1 0x40 CALLDATASIZE PUSH1 0x3 NOT ADD SLT PUSH2 0x28A JUMPI PUSH2 0x21BE PUSH2 0x44CA JUMP JUMPDEST PUSH1 0x1 PUSH1 0x1 PUSH1 0xA0 SHL SUB AND DUP2 MSTORE PUSH1 0xC PUSH1 0x20 MSTORE PUSH1 0x40 DUP2 KECCAK256 DUP1 SLOAD PUSH1 0x24 CALLDATALOAD SWAP3 SWAP1 DUP4 LT ISZERO PUSH2 0x28A JUMPI PUSH1 0x20 PUSH2 0x21EC DUP5 DUP5 PUSH2 0x455C JUMP JUMPDEST SWAP1 SLOAD PUSH1 0x40 MLOAD SWAP2 PUSH1 0x3 SHL SHR DUP2 MSTORE RETURN JUMPDEST POP CALLVALUE PUSH2 0x28A JUMPI PUSH1 0x20 DUP1 PUSH1 0x3 NOT CALLDATASIZE ADD SLT PUSH2 0x3D2 JUMPI PUSH1 0x4 CALLDATALOAD DUP3 MSTORE PUSH1 0xD DUP2 MSTORE PUSH1 0x40 DUP3 KECCAK256 SWAP2 PUSH1 0x40 MLOAD DUP1 SWAP4 DUP5 SWAP2 DUP5 DUP3 SLOAD SWAP2 DUP3 DUP2 MSTORE ADD SWAP2 DUP5 MSTORE DUP5 DUP5 KECCAK256 SWAP4 JUMPDEST DUP6 DUP3 DUP3 LT PUSH2 0x225D JUMPI POP POP POP PUSH2 0x2249 SWAP3 POP SUB DUP4 PUSH2 0x4762 JUMP JUMPDEST PUSH2 0x17F4 PUSH1 0x40 MLOAD SWAP3 DUP3 DUP5 SWAP4 DUP5 MSTORE DUP4 ADD SWAP1 PUSH2 0x46DB JUMP JUMPDEST DUP6 SLOAD PUSH1 0x1 PUSH1 0x1 PUSH1 0xA0 SHL SUB AND DUP5 MSTORE PUSH1 0x1 SWAP6 DUP7 ADD SWAP6 DUP9 SWAP6 POP SWAP4 ADD SWAP3 ADD PUSH2 0x2232 JUMP JUMPDEST POP CALLVALUE PUSH2 0x28A JUMPI DUP1 PUSH1 0x3 NOT CALLDATASIZE ADD SLT PUSH2 0x28A JUMPI SLOAD PUSH1 0x40 MLOAD PUSH1 0x1 PUSH1 0x1 PUSH1 0xA0 SHL SUB SWAP1 SWAP2 AND DUP2 MSTORE PUSH1 0x20 SWAP1 RETURN JUMPDEST POP CALLVALUE PUSH2 0x28A JUMPI PUSH2 0x1692 SWAP1 PUSH1 0x20 PUSH2 0x22B8 CALLDATASIZE PUSH2 0x44E0 JUMP JUMPDEST PUSH1 0x7 SLOAD PUSH1 0x40 MLOAD PUSH4 0x423E7BC1 PUSH1 0xE1 SHL DUP2 MSTORE SWAP7 DUP8 SWAP5 PUSH1 0x1 PUSH1 0x1 PUSH1 0xA0 SHL SUB SWAP1 SWAP3 AND SWAP4 DUP6 SWAP4 DUP5 SWAP4 SWAP1 SWAP2 SWAP1 PUSH1 0x4 DUP6 ADD PUSH2 0x4E16 JUMP JUMPDEST POP CALLVALUE PUSH2 0x28A JUMPI PUSH1 0x20 CALLDATASIZE PUSH1 0x3 NOT ADD SLT PUSH2 0x28A JUMPI PUSH1 0x4 CALLDATALOAD DUP1 DUP3 MSTORE PUSH1 0x1 PUSH1 0x20 MSTORE PUSH1 0x40 DUP3 KECCAK256 SWAP1 PUSH1 0xFF PUSH1 0xC DUP4 ADD SLOAD AND PUSH1 0x5 DUP2 LT ISZERO PUSH2 0x3BE JUMPI PUSH1 0x1 PUSH2 0x2326 SWAP2 EQ PUSH2 0x4E36 JUMP JUMPDEST PUSH1 0xB DUP3 ADD SLOAD TIMESTAMP LT PUSH2 0x2353 JUMPI PUSH2 0x2345 PUSH1 0xFF PUSH1 0xE PUSH2 0x1B1D SWAP5 ADD SLOAD AND ISZERO PUSH2 0x4E8E JUMP JUMPDEST PUSH2 0x234D PUSH2 0x4ED8 JUMP JUMPDEST SWAP1 PUSH2 0x53D1 JUMP JUMPDEST PUSH1 0x40 MLOAD PUSH3 0x461BCD PUSH1 0xE5 SHL DUP2 MSTORE PUSH1 0x20 PUSH1 0x4 DUP3 ADD MSTORE PUSH1 0x26 PUSH1 0x24 DUP3 ADD MSTORE PUSH32 0x4576656E74506F6F6C3A205265736F6C7574696F6E20706572696F64206E6F74 PUSH1 0x44 DUP3 ADD MSTORE PUSH6 0x8195B991959 PUSH1 0xD2 SHL PUSH1 0x64 DUP3 ADD MSTORE PUSH1 0x84 SWAP1 REVERT JUMPDEST POP CALLVALUE PUSH2 0x28A JUMPI DUP1 PUSH1 0x3 NOT CALLDATASIZE ADD SLT PUSH2 0x28A JUMPI PUSH2 0x23C0 PUSH2 0x4880 JUMP JUMPDEST PUSH1 0x0 DUP1 SLOAD PUSH1 0x1 PUSH1 0x1 PUSH1 0xA0 SHL SUB NOT DUP2 AND DUP3 SSTORE PUSH1 0x1 PUSH1 0x1 PUSH1 0xA0 SHL SUB AND PUSH1 0x0 DUP1 MLOAD PUSH1 0x20 PUSH2 0x5E83 DUP4 CODECOPY DUP2 MLOAD SWAP2 MSTORE DUP3 DUP1 LOG3 DUP1 RETURN JUMPDEST POP CALLVALUE PUSH2 0x28A JUMPI PUSH1 0x20 DUP1 PUSH1 0x3 NOT CALLDATASIZE ADD SLT PUSH2 0x3D2 JUMPI PUSH1 0x4 CALLDATALOAD DUP3 MSTORE PUSH1 0x5 DUP2 MSTORE PUSH1 0x40 DUP3 KECCAK256 SWAP2 PUSH1 0x40 MLOAD DUP1 SWAP4 DUP5 SWAP2 DUP5 DUP3 SLOAD SWAP2 DUP3 DUP2 MSTORE ADD SWAP2 DUP5 MSTORE DUP5 DUP5 KECCAK256 SWAP4 JUMPDEST DUP6 DUP3 DUP3 LT PUSH2 0x243E JUMPI POP POP POP PUSH2 0x2249 SWAP3 POP SUB DUP4 PUSH2 0x4762 JUMP JUMPDEST DUP6 SLOAD PUSH1 0x1 PUSH1 0x1 PUSH1 0xA0 SHL SUB AND DUP5 MSTORE PUSH1 0x1 SWAP6 DUP7 ADD SWAP6 DUP9 SWAP6 POP SWAP4 ADD SWAP3 ADD PUSH2 0x2427 JUMP JUMPDEST POP CALLVALUE PUSH2 0x28A JUMPI PUSH1 0x20 SWAP1 DUP2 PUSH1 0x3 NOT CALLDATASIZE ADD SLT PUSH2 0x28A JUMPI PUSH1 0x4 CALLDATALOAD SWAP2 DUP3 DUP3 MSTORE PUSH1 0x1 DUP2 MSTORE PUSH1 0x40 DUP3 KECCAK256 SWAP3 PUSH1 0xFF PUSH1 0xC DUP6 ADD SLOAD AND PUSH1 0x5 DUP2 LT ISZERO PUSH2 0x3BE JUMPI PUSH1 0x2 PUSH2 0x249E SWAP2 EQ PUSH2 0x5267 JUMP JUMPDEST PUSH1 0xD DUP5 ADD SLOAD SWAP2 PUSH2 0x24AF DUP4 ISZERO ISZERO PUSH2 0x52B3 JUMP JUMPDEST DUP2 DUP5 MSTORE PUSH1 0x2 DUP2 MSTORE PUSH1 0x40 DUP5 KECCAK256 CALLER PUSH1 0x0 MSTORE DUP2 MSTORE PUSH2 0x24D1 PUSH1 0xFF PUSH1 0x40 PUSH1 0x0 KECCAK256 SLOAD AND PUSH2 0x52FE JUMP JUMPDEST PUSH1 0x7 SLOAD PUSH1 0x40 MLOAD PUSH4 0x7C7A72D PUSH1 0xE0 SHL DUP2 MSTORE PUSH1 0x1 PUSH1 0x1 PUSH1 0xA0 SHL SUB SWAP2 DUP3 AND SWAP5 SWAP2 SWAP1 DUP4 DUP2 DUP1 PUSH2 0x2500 CALLER DUP10 PUSH1 0x4 DUP5 ADD PUSH2 0x4A60 JUMP JUMPDEST SUB DUP2 DUP10 GAS STATICCALL DUP1 ISZERO PUSH2 0x887 JUMPI DUP8 SWAP1 PUSH2 0x282C JUMPI JUMPDEST PUSH2 0x251D SWAP2 POP ISZERO PUSH2 0x5347 JUMP JUMPDEST PUSH1 0x4 DUP8 ADD SLOAD AND SWAP1 PUSH1 0x40 MLOAD SWAP1 PUSH4 0x423E7BC1 PUSH1 0xE1 SHL DUP3 MSTORE DUP4 DUP3 DUP1 PUSH2 0x2544 DUP7 CALLER DUP11 PUSH1 0x4 DUP6 ADD PUSH2 0x4E16 JUMP JUMPDEST SUB DUP2 DUP10 GAS STATICCALL SWAP2 DUP3 ISZERO PUSH2 0x887 JUMPI DUP8 SWAP3 PUSH2 0x27FD JUMPI JUMPDEST POP PUSH1 0x40 MLOAD PUSH4 0xDC4CE349 PUSH1 0xE0 SHL DUP1 DUP3 MSTORE SWAP9 DUP6 DUP3 DUP1 PUSH2 0x2579 DUP9 DUP8 DUP13 PUSH1 0x4 DUP6 ADD PUSH2 0x5390 JUMP JUMPDEST SUB DUP2 DUP12 GAS STATICCALL SWAP2 DUP3 ISZERO PUSH2 0x11FF JUMPI DUP10 SWAP3 PUSH2 0x27CE JUMPI JUMPDEST POP DUP9 SWAP10 PUSH1 0x3 PUSH1 0x1 SWAP3 ADD SLOAD SWAP2 JUMPDEST DUP3 DUP2 GT ISZERO PUSH2 0x2737 JUMPI POP POP PUSH1 0x40 MLOAD PUSH4 0x4F44289D PUSH1 0xE0 SHL DUP2 MSTORE DUP10 SWAP6 SWAP5 SWAP4 SWAP3 SWAP2 POP DUP11 DUP8 DUP3 DUP1 PUSH2 0x25C8 DUP10 DUP14 PUSH1 0x4 DUP5 ADD PUSH2 0x4A60 JUMP JUMPDEST SUB DUP2 DUP14 GAS STATICCALL SWAP2 DUP3 ISZERO PUSH2 0x887 JUMPI DUP8 SWAP3 PUSH2 0x2703 JUMPI JUMPDEST POP SWAP1 PUSH2 0x25E6 SWAP2 PUSH2 0x492E JUMP JUMPDEST DUP2 PUSH2 0x2672 JUMPI POP POP POP POP DUP2 SWAP5 JUMPDEST DUP1 EXTCODESIZE ISZERO PUSH2 0x6C4 JUMPI DUP6 DUP4 SWAP2 PUSH2 0x261F SWAP4 DUP4 PUSH1 0x40 MLOAD DUP1 SWAP7 DUP2 SWAP6 DUP3 SWAP5 PUSH4 0x2F0041ED PUSH1 0xE1 SHL DUP5 MSTORE CALLER DUP14 PUSH1 0x4 DUP7 ADD PUSH2 0x4D77 JUMP JUMPDEST SUB SWAP3 GAS CALL DUP1 ISZERO PUSH2 0x68B JUMPI PUSH2 0x265E JUMPI JUMPDEST POP POP PUSH32 0x5380CF6FE903B40C6D5A9E0DFBCA2F3A423F0A21520B4D5947ED5169BDBA946D SWAP1 PUSH1 0x40 MLOAD SWAP4 DUP5 MSTORE CALLER SWAP4 LOG3 DUP1 RETURN JUMPDEST PUSH2 0x2667 SWAP1 PUSH2 0x4718 JUMP JUMPDEST PUSH2 0x687 JUMPI DUP4 DUP6 PUSH2 0x262E JUMP JUMPDEST DUP1 PUSH2 0x26A6 JUMPI POP POP DUP6 DUP5 MSTORE PUSH1 0x4 DUP6 MSTORE PUSH1 0x40 DUP5 KECCAK256 CALLER PUSH1 0x0 MSTORE DUP6 MSTORE PUSH1 0x40 PUSH1 0x0 KECCAK256 SLOAD EQ PUSH1 0x0 EQ PUSH2 0x269E JUMPI SWAP5 PUSH2 0x25F2 JUMP JUMPDEST POP DUP2 SWAP5 PUSH2 0x25F2 JUMP JUMPDEST SWAP2 DUP8 DUP7 SWAP3 SWAP5 SWAP6 SWAP7 MSTORE PUSH1 0x4 DUP8 MSTORE PUSH1 0x40 DUP3 KECCAK256 CALLER PUSH1 0x0 MSTORE DUP8 MSTORE PUSH1 0x40 PUSH1 0x0 KECCAK256 SLOAD EQ PUSH1 0x0 EQ PUSH2 0x26F7 JUMPI POP PUSH2 0x2328 DUP1 DUP3 MUL SWAP2 DUP3 DIV SUB PUSH2 0x841 JUMPI SWAP2 PUSH2 0x1495 PUSH2 0x26F1 SWAP3 PUSH2 0x1490 PUSH2 0x2710 DUP12 SWAP8 SWAP7 DIV DUP5 PUSH2 0x4905 JUMP JUMPDEST SWAP5 PUSH2 0x25F2 JUMP JUMPDEST SWAP4 SWAP3 POP POP POP DUP2 SWAP5 PUSH2 0x25F2 JUMP JUMPDEST DUP9 DUP1 SWAP3 SWAP9 POP DUP2 SWAP4 POP RETURNDATASIZE DUP4 GT PUSH2 0x2730 JUMPI JUMPDEST PUSH2 0x271D DUP2 DUP4 PUSH2 0x4762 JUMP JUMPDEST DUP2 ADD SUB SLT PUSH2 0x87B JUMPI MLOAD DUP10 SWAP6 PUSH2 0x25E6 PUSH2 0x25DB JUMP JUMPDEST POP RETURNDATASIZE PUSH2 0x2713 JUMP JUMPDEST DUP5 DUP2 SUB PUSH2 0x274D JUMPI JUMPDEST PUSH2 0x2748 SWAP1 PUSH2 0x493B JUMP JUMPDEST PUSH2 0x2598 JUMP JUMPDEST SWAP11 PUSH2 0x276C DUP9 DUP9 DUP13 DUP16 DUP14 PUSH1 0x40 MLOAD SWAP6 DUP7 SWAP5 DUP6 SWAP4 DUP5 SWAP4 DUP12 DUP6 MSTORE PUSH1 0x4 DUP6 ADD PUSH2 0x5390 JUMP JUMPDEST SUB SWAP2 GAS STATICCALL SWAP1 DUP2 ISZERO PUSH2 0x27C3 JUMPI DUP13 SWAP2 PUSH2 0x2794 JUMPI JUMPDEST POP PUSH2 0x278C SWAP1 PUSH2 0x2748 SWAP3 PUSH2 0x492E JUMP JUMPDEST SWAP12 SWAP1 POP PUSH2 0x273F JUMP JUMPDEST SWAP1 POP DUP9 DUP2 DUP2 RETURNDATASIZE DUP4 GT PUSH2 0x27BC JUMPI JUMPDEST PUSH2 0x27AB DUP2 DUP4 PUSH2 0x4762 JUMP JUMPDEST DUP2 ADD SUB SLT PUSH2 0x87B JUMPI MLOAD PUSH2 0x2748 PUSH2 0x277E JUMP JUMPDEST POP RETURNDATASIZE PUSH2 0x27A1 JUMP JUMPDEST PUSH1 0x40 MLOAD RETURNDATASIZE DUP15 DUP3 RETURNDATACOPY RETURNDATASIZE SWAP1 REVERT JUMPDEST SWAP1 SWAP2 POP DUP6 DUP2 DUP2 RETURNDATASIZE DUP4 GT PUSH2 0x27F6 JUMPI JUMPDEST PUSH2 0x27E6 DUP2 DUP4 PUSH2 0x4762 JUMP JUMPDEST DUP2 ADD SUB SLT PUSH2 0x87B JUMPI MLOAD SWAP1 CODESIZE PUSH2 0x258C JUMP JUMPDEST POP RETURNDATASIZE PUSH2 0x27DC JUMP JUMPDEST SWAP1 SWAP2 POP DUP4 DUP2 DUP2 RETURNDATASIZE DUP4 GT PUSH2 0x2825 JUMPI JUMPDEST PUSH2 0x2815 DUP2 DUP4 PUSH2 0x4762 JUMP JUMPDEST DUP2 ADD SUB SLT PUSH2 0x87B JUMPI MLOAD SWAP1 CODESIZE PUSH2 0x2557 JUMP JUMPDEST POP RETURNDATASIZE PUSH2 0x280B JUMP JUMPDEST POP DUP4 DUP2 DUP2 RETURNDATASIZE DUP4 GT PUSH2 0x285B JUMPI JUMPDEST PUSH2 0x2842 DUP2 DUP4 PUSH2 0x4762 JUMP JUMPDEST DUP2 ADD SUB SLT PUSH2 0x91A JUMPI PUSH2 0x2856 PUSH2 0x251D SWAP2 PUSH2 0x48AC JUMP JUMPDEST PUSH2 0x2512 JUMP JUMPDEST POP RETURNDATASIZE PUSH2 0x2838 JUMP JUMPDEST POP PUSH2 0x120 CALLDATASIZE PUSH1 0x3 NOT ADD SLT PUSH2 0x28A JUMPI PUSH1 0x4 CALLDATALOAD SWAP1 PUSH1 0x1 PUSH1 0x1 PUSH1 0x40 SHL SUB DUP3 GT PUSH2 0x28A JUMPI CALLDATASIZE PUSH1 0x23 DUP4 ADD SLT ISZERO PUSH2 0x28A JUMPI DUP2 PUSH1 0x4 ADD CALLDATALOAD PUSH2 0x289B DUP2 PUSH2 0x4785 JUMP JUMPDEST SWAP3 PUSH2 0x28A9 PUSH1 0x40 MLOAD SWAP5 DUP6 PUSH2 0x4762 JUMP JUMPDEST DUP2 DUP5 MSTORE CALLDATASIZE PUSH1 0x24 DUP4 DUP4 ADD ADD GT PUSH2 0x6C4 JUMPI DUP2 DUP4 SWAP3 PUSH1 0x24 PUSH1 0x20 SWAP4 ADD DUP4 DUP8 ADD CALLDATACOPY DUP5 ADD ADD MSTORE PUSH1 0x24 CALLDATALOAD ISZERO ISZERO PUSH1 0x24 CALLDATALOAD SUB PUSH2 0x28A JUMPI PUSH1 0x64 CALLDATALOAD PUSH1 0x1 PUSH1 0x1 PUSH1 0xA0 SHL SUB DUP2 AND SWAP1 SUB PUSH2 0x87B JUMPI PUSH1 0x8 SLOAD PUSH1 0x40 MLOAD PUSH4 0x2B5BA3B9 PUSH1 0xE0 SHL DUP2 MSTORE CALLER PUSH1 0x4 DUP3 ADD MSTORE PUSH1 0x1 PUSH1 0x1 PUSH1 0xA0 SHL SUB SWAP1 SWAP2 AND SWAP1 PUSH1 0x20 DUP2 PUSH1 0x24 DUP2 DUP6 GAS STATICCALL DUP1 ISZERO PUSH2 0x6CF JUMPI DUP4 SWAP1 PUSH2 0x3646 JUMPI JUMPDEST PUSH2 0x292C SWAP2 POP ISZERO PUSH2 0x48B9 JUMP JUMPDEST DUP3 MLOAD ISZERO PUSH2 0x3602 JUMPI PUSH1 0x2 PUSH1 0x44 CALLDATALOAD LT ISZERO DUP1 PUSH2 0x35F5 JUMPI JUMPDEST ISZERO PUSH2 0x35B0 JUMPI PUSH1 0x84 CALLDATALOAD ISZERO PUSH2 0x356C JUMPI PUSH1 0xA4 CALLDATALOAD ISZERO PUSH2 0x351C JUMPI PUSH1 0xC4 CALLDATALOAD ISZERO ISZERO DUP1 PUSH2 0x350E JUMPI JUMPDEST ISZERO PUSH2 0x34BE JUMPI PUSH1 0x40 MLOAD PUSH4 0x17916E01 PUSH1 0xE0 SHL DUP2 MSTORE PUSH1 0x20 DUP2 PUSH1 0x4 DUP2 DUP6 GAS STATICCALL SWAP1 DUP2 ISZERO PUSH2 0x6CF JUMPI DUP4 SWAP2 PUSH2 0x348C JUMPI JUMPDEST POP PUSH1 0xE4 CALLDATALOAD LT PUSH2 0x3437 JUMPI PUSH1 0xE4 CALLDATALOAD PUSH2 0x104 CALLDATALOAD LT PUSH2 0x33D9 JUMPI PUSH1 0x24 CALLDATALOAD ISZERO PUSH2 0x32FE JUMPI PUSH1 0x64 CALLDATALOAD PUSH1 0x1 PUSH1 0x1 PUSH1 0xA0 SHL SUB AND ISZERO PUSH2 0x329F JUMPI PUSH1 0x40 MLOAD PUSH4 0x34625613 PUSH1 0xE1 SHL DUP2 MSTORE PUSH1 0x64 CALLDATALOAD PUSH1 0x1 PUSH1 0x1 PUSH1 0xA0 SHL SUB AND PUSH1 0x4 DUP3 ADD MSTORE SWAP1 PUSH1 0x20 SWAP1 DUP3 SWAP1 PUSH1 0x24 SWAP1 DUP3 SWAP1 GAS STATICCALL SWAP1 DUP2 ISZERO PUSH2 0x68B JUMPI DUP3 SWAP2 PUSH2 0x3265 JUMPI JUMPDEST POP ISZERO PUSH2 0x3208 JUMPI JUMPDEST PUSH8 0xDE0B6B3A7640000 CALLVALUE LT PUSH2 0x31B7 JUMPI PUSH1 0x3C PUSH1 0xE4 CALLDATALOAD MUL PUSH1 0xE4 CALLDATALOAD DUP2 DIV PUSH1 0x3C EQ PUSH1 0xE4 CALLDATALOAD ISZERO OR ISZERO PUSH2 0x3062 JUMPI PUSH2 0x2A28 SWAP1 TIMESTAMP PUSH2 0x492E JUMP JUMPDEST PUSH1 0x3C PUSH2 0x104 CALLDATALOAD MUL PUSH2 0x104 CALLDATALOAD DUP2 DIV PUSH1 0x3C EQ PUSH2 0x104 CALLDATALOAD ISZERO OR ISZERO PUSH2 0x1B65 JUMPI PUSH2 0x2A4D SWAP1 TIMESTAMP PUSH2 0x492E JUMP JUMPDEST PUSH3 0x2A300 DUP2 ADD DUP2 GT PUSH2 0x1B65 JUMPI PUSH1 0x9 SLOAD SWAP3 PUSH2 0x2A66 DUP5 PUSH2 0x493B JUMP JUMPDEST PUSH1 0x9 SSTORE PUSH1 0x40 MLOAD PUSH2 0x2A75 DUP2 PUSH2 0x472B JUMP JUMPDEST CALLER DUP2 MSTORE PUSH1 0x20 DUP1 DUP3 ADD DUP8 DUP2 MSTORE PUSH1 0x24 CALLDATALOAD ISZERO ISZERO PUSH1 0x40 DUP1 DUP6 ADD SWAP2 SWAP1 SWAP2 MSTORE PUSH1 0x44 CALLDATALOAD PUSH1 0x60 DUP6 ADD MSTORE PUSH1 0x64 CALLDATALOAD PUSH1 0x1 PUSH1 0x1 PUSH1 0xA0 SHL SUB SWAP1 DUP2 AND PUSH1 0x80 DUP7 ADD MSTORE PUSH1 0x84 CALLDATALOAD PUSH1 0xA0 DUP7 ADD MSTORE PUSH1 0xA4 CALLDATALOAD PUSH1 0xC0 DUP7 ADD MSTORE PUSH1 0xC4 CALLDATALOAD PUSH1 0xE0 DUP7 ADD MSTORE TIMESTAMP PUSH2 0x100 DUP7 ADD MSTORE PUSH2 0x120 DUP6 ADD DUP9 SWAP1 MSTORE PUSH2 0x140 DUP6 ADD DUP8 SWAP1 MSTORE PUSH3 0x2A300 DUP8 ADD PUSH2 0x160 DUP7 ADD MSTORE PUSH2 0x180 DUP6 ADD DUP7 SWAP1 MSTORE PUSH2 0x1A0 DUP6 ADD DUP7 SWAP1 MSTORE PUSH2 0x1C0 DUP6 ADD DUP7 SWAP1 MSTORE DUP9 DUP7 MSTORE PUSH1 0x1 SWAP1 SWAP4 MSTORE DUP5 KECCAK256 DUP4 MLOAD DUP2 SLOAD PUSH1 0x1 PUSH1 0x1 PUSH1 0xA0 SHL SUB NOT AND SWAP4 AND SWAP3 SWAP1 SWAP3 OR DUP3 SSTORE MLOAD DUP1 MLOAD SWAP2 SWAP3 SWAP2 SWAP1 PUSH1 0x1 PUSH1 0x1 PUSH1 0x40 SHL SUB DUP3 GT PUSH2 0x31A3 JUMPI DUP2 SWAP1 PUSH2 0x2B40 PUSH1 0x1 DUP7 ADD SLOAD PUSH2 0x47A0 JUMP JUMPDEST PUSH1 0x1F DUP2 GT PUSH2 0x3165 JUMPI JUMPDEST POP PUSH1 0x20 SWAP1 PUSH1 0x1F DUP4 GT PUSH1 0x1 EQ PUSH2 0x30F6 JUMPI DUP7 SWAP3 PUSH2 0x30EB JUMPI JUMPDEST POP POP DUP2 PUSH1 0x1 SHL SWAP2 PUSH1 0x0 NOT SWAP1 PUSH1 0x3 SHL SHR NOT AND OR PUSH1 0x1 DUP4 ADD SSTORE JUMPDEST PUSH2 0x2B96 PUSH1 0x40 DUP3 ADD MLOAD ISZERO ISZERO PUSH1 0x2 DUP5 ADD SWAP1 PUSH1 0xFF DUP1 NOT DUP4 SLOAD AND SWAP2 ISZERO ISZERO AND OR SWAP1 SSTORE JUMP JUMPDEST PUSH1 0x60 DUP2 ADD MLOAD PUSH1 0x3 DUP4 ADD SSTORE PUSH1 0x4 DUP3 ADD PUSH1 0x1 DUP1 PUSH1 0xA0 SHL SUB PUSH1 0x80 DUP4 ADD MLOAD AND PUSH1 0x1 DUP1 PUSH1 0xA0 SHL SUB NOT DUP3 SLOAD AND OR SWAP1 SSTORE PUSH1 0xA0 DUP2 ADD MLOAD PUSH1 0x5 DUP4 ADD SSTORE PUSH1 0xC0 DUP2 ADD MLOAD PUSH1 0x6 DUP4 ADD SSTORE PUSH1 0xE0 DUP2 ADD MLOAD PUSH1 0x7 DUP4 ADD SSTORE PUSH2 0x100 DUP2 ADD MLOAD PUSH1 0x8 DUP4 ADD SSTORE PUSH2 0x120 DUP2 ADD MLOAD PUSH1 0x9 DUP4 ADD SSTORE PUSH2 0x140 DUP2 ADD MLOAD PUSH1 0xA DUP4 ADD SSTORE PUSH2 0x160 DUP2 ADD MLOAD PUSH1 0xB DUP4 ADD SSTORE PUSH1 0xC DUP3 ADD PUSH2 0x180 DUP3 ADD MLOAD PUSH1 0x5 DUP2 LT ISZERO PUSH2 0x30D7 JUMPI PUSH2 0x2C56 SWAP4 SWAP3 PUSH1 0xE SWAP3 PUSH2 0x1C0 SWAP3 PUSH1 0xFF DUP1 NOT DUP4 SLOAD AND SWAP2 AND OR SWAP1 SSTORE PUSH2 0x1A0 DUP2 ADD MLOAD PUSH1 0xD DUP6 ADD SSTORE ADD MLOAD ISZERO ISZERO SWAP2 ADD SWAP1 PUSH1 0xFF DUP1 NOT DUP4 SLOAD AND SWAP2 ISZERO ISZERO AND OR SWAP1 SSTORE JUMP JUMPDEST PUSH1 0xA SLOAD PUSH1 0x1 PUSH1 0x40 SHL DUP2 LT ISZERO PUSH2 0x30C1 JUMPI DUP5 PUSH2 0x2C79 DUP3 PUSH1 0x1 PUSH2 0x2C92 SWAP5 ADD PUSH1 0xA SSTORE PUSH2 0x452B JUMP JUMPDEST SWAP1 SWAP2 SWAP1 DUP3 SLOAD SWAP1 PUSH1 0x3 SHL SWAP2 DUP3 SHL SWAP2 PUSH1 0x0 NOT SWAP1 SHL NOT AND OR SWAP1 SSTORE JUMP JUMPDEST DUP4 DUP2 MSTORE PUSH1 0xB PUSH1 0x20 MSTORE PUSH1 0x40 DUP2 KECCAK256 DUP1 SLOAD PUSH1 0xFF NOT AND PUSH1 0x1 OR SWAP1 SSTORE PUSH1 0x64 CALLDATALOAD PUSH1 0x1 PUSH1 0x1 PUSH1 0xA0 SHL SUB AND PUSH2 0x3076 JUMPI PUSH1 0xA4 CALLDATALOAD PUSH8 0xDE0B6B3A7640000 ADD DUP1 PUSH8 0xDE0B6B3A7640000 GT PUSH2 0x3062 JUMPI CALLVALUE LT PUSH2 0x301E JUMPI PUSH2 0x2D05 DUP2 DUP1 DUP1 DUP1 PUSH8 0xDE0B6B3A7640000 PUSH1 0x1 DUP1 PUSH1 0xA0 SHL SUB DUP3 SLOAD AND GAS CALL PUSH2 0x2CFF PUSH2 0x4990 JUMP JUMPDEST POP PUSH2 0x49C0 JUMP JUMPDEST DUP1 DUP1 DUP1 DUP1 PUSH1 0xA4 CALLDATALOAD PUSH1 0x1 DUP1 PUSH1 0xA0 SHL SUB PUSH1 0x7 SLOAD AND GAS CALL PUSH2 0x2D21 PUSH2 0x4990 JUMP JUMPDEST POP ISZERO PUSH2 0x2FBA JUMPI JUMPDEST DUP4 DUP2 MSTORE PUSH1 0x2 PUSH1 0x20 MSTORE PUSH1 0x40 DUP2 KECCAK256 CALLER PUSH1 0x0 MSTORE PUSH1 0x20 MSTORE PUSH1 0x40 PUSH1 0x0 KECCAK256 PUSH1 0x1 PUSH1 0xFF NOT DUP3 SLOAD AND OR SWAP1 SSTORE DUP4 DUP2 MSTORE PUSH1 0x4 PUSH1 0x20 MSTORE PUSH1 0x40 DUP2 KECCAK256 CALLER PUSH1 0x0 MSTORE PUSH1 0x20 MSTORE PUSH1 0xC4 CALLDATALOAD PUSH1 0x40 PUSH1 0x0 KECCAK256 SSTORE CALLER DUP2 MSTORE PUSH1 0xC PUSH1 0x20 MSTORE PUSH2 0x2D7C DUP5 PUSH1 0x40 DUP4 KECCAK256 PUSH2 0x496D JUMP JUMPDEST PUSH1 0x7 SLOAD PUSH1 0x1 PUSH1 0x1 PUSH1 0xA0 SHL SUB AND DUP1 EXTCODESIZE ISZERO PUSH2 0x3D2 JUMPI PUSH1 0x40 MLOAD PUSH4 0x95F41095 PUSH1 0xE0 SHL DUP2 MSTORE SWAP1 DUP3 SWAP1 DUP3 SWAP1 DUP2 DUP4 DUP2 PUSH2 0x2DBB PUSH1 0xC4 CALLDATALOAD PUSH1 0xA4 CALLDATALOAD PUSH1 0x64 CALLDATALOAD CALLER DUP16 PUSH1 0x4 DUP8 ADD PUSH2 0x4A1C JUMP JUMPDEST SUB SWAP3 GAS CALL DUP1 ISZERO PUSH2 0x68B JUMPI SWAP1 DUP3 SWAP2 PUSH2 0x2FA6 JUMPI JUMPDEST POP POP PUSH1 0x8 SLOAD PUSH1 0x40 MLOAD PUSH4 0x406AD645 PUSH1 0xE1 SHL DUP2 MSTORE SWAP1 PUSH1 0x20 SWAP1 DUP3 SWAP1 PUSH1 0x4 SWAP1 DUP3 SWAP1 PUSH1 0x1 PUSH1 0x1 PUSH1 0xA0 SHL SUB AND GAS STATICCALL SWAP1 DUP2 ISZERO PUSH2 0x68B JUMPI DUP3 SWAP2 PUSH2 0x2F6C JUMPI JUMPDEST POP PUSH1 0x1 PUSH1 0x1 PUSH1 0xA0 SHL SUB DUP2 AND PUSH2 0x2EA6 JUMPI JUMPDEST POP POP PUSH32 0x5D0726A1BB5EC8C87527E69BA86D988202E885FAD8F2B4AACD618793D6F297B2 PUSH1 0x20 SWAP5 PUSH3 0x2A300 DUP6 SWAP4 PUSH2 0x2E56 PUSH1 0x40 MLOAD SWAP4 PUSH2 0x120 DUP6 MSTORE PUSH2 0x120 DUP6 ADD SWAP1 PUSH2 0x45D2 JUMP JUMPDEST SWAP6 PUSH1 0x24 CALLDATALOAD ISZERO ISZERO DUP10 DUP6 ADD MSTORE PUSH1 0x44 CALLDATALOAD PUSH1 0x40 DUP6 ADD MSTORE PUSH1 0x1 DUP1 PUSH1 0xA0 SHL SUB PUSH1 0x64 CALLDATALOAD AND PUSH1 0x60 DUP6 ADD MSTORE PUSH1 0x84 CALLDATALOAD PUSH1 0x80 DUP6 ADD MSTORE TIMESTAMP PUSH1 0xA0 DUP6 ADD MSTORE PUSH1 0xC0 DUP5 ADD MSTORE DUP1 PUSH1 0xE0 DUP5 ADD MSTORE ADD PUSH2 0x100 DUP3 ADD MSTORE DUP1 CALLER SWAP5 SUB SWAP1 LOG3 PUSH1 0x40 MLOAD SWAP1 DUP2 MSTORE RETURN JUMPDEST PUSH1 0x1 PUSH1 0x1 PUSH1 0xA0 SHL SUB DUP2 AND EXTCODESIZE ISZERO PUSH2 0x3D2 JUMPI PUSH1 0x40 MLOAD PUSH4 0x782A7805 PUSH1 0xE1 SHL DUP2 MSTORE DUP3 DUP2 DUP1 PUSH2 0x2ED4 CALLER DUP11 PUSH1 0x4 DUP5 ADD PUSH2 0x4A60 JUMP JUMPDEST SUB DUP2 DUP4 PUSH1 0x1 PUSH1 0x1 PUSH1 0xA0 SHL SUB DUP8 AND GAS CALL DUP1 ISZERO PUSH2 0x6CF JUMPI SWAP1 DUP4 SWAP2 PUSH2 0x2F58 JUMPI JUMPDEST POP POP PUSH1 0x1 PUSH1 0x1 PUSH1 0xA0 SHL SUB DUP2 AND EXTCODESIZE ISZERO PUSH2 0x3D2 JUMPI PUSH1 0x40 MLOAD PUSH4 0xC228038D PUSH1 0xE0 SHL DUP2 MSTORE SWAP1 DUP3 SWAP1 DUP3 SWAP1 DUP2 DUP4 DUP2 PUSH2 0x2F2C PUSH1 0xA4 CALLDATALOAD PUSH1 0xC4 CALLDATALOAD CALLER DUP15 PUSH1 0x4 DUP7 ADD PUSH2 0x4A79 JUMP JUMPDEST SUB SWAP3 PUSH1 0x1 PUSH1 0x1 PUSH1 0xA0 SHL SUB AND GAS CALL DUP1 ISZERO PUSH2 0x68B JUMPI ISZERO PUSH2 0x2E13 JUMPI PUSH2 0x2F4E DUP3 SWAP2 PUSH2 0x4718 JUMP JUMPDEST PUSH2 0x28A JUMPI DUP1 PUSH2 0x2E13 JUMP JUMPDEST PUSH2 0x2F61 SWAP1 PUSH2 0x4718 JUMP JUMPDEST PUSH2 0x3D2 JUMPI DUP2 CODESIZE PUSH2 0x2EF1 JUMP JUMPDEST SWAP1 POP PUSH1 0x20 DUP2 RETURNDATASIZE PUSH1 0x20 GT PUSH2 0x2F9E JUMPI JUMPDEST DUP2 PUSH2 0x2F87 PUSH1 0x20 SWAP4 DUP4 PUSH2 0x4762 JUMP JUMPDEST DUP2 ADD SUB SLT PUSH2 0x3D2 JUMPI PUSH2 0x2F98 SWAP1 PUSH2 0x4A4C JUMP JUMPDEST CODESIZE PUSH2 0x2E03 JUMP JUMPDEST RETURNDATASIZE SWAP2 POP PUSH2 0x2F7A JUMP JUMPDEST PUSH2 0x2FAF SWAP1 PUSH2 0x4718 JUMP JUMPDEST PUSH2 0x28A JUMPI DUP1 CODESIZE PUSH2 0x2DCD JUMP JUMPDEST PUSH1 0x40 MLOAD PUSH3 0x461BCD PUSH1 0xE5 SHL DUP2 MSTORE PUSH1 0x20 PUSH1 0x4 DUP3 ADD MSTORE PUSH1 0x36 PUSH1 0x24 DUP3 ADD MSTORE PUSH32 0x4576656E74506F6F6C3A2043726561746F72206465706F736974207472616E73 PUSH1 0x44 DUP3 ADD MSTORE PUSH22 0x19995C881D1BC8151C99585CDD5C9E4819985A5B1959 PUSH1 0x52 SHL PUSH1 0x64 DUP3 ADD MSTORE PUSH1 0x84 SWAP1 REVERT JUMPDEST PUSH1 0x40 MLOAD PUSH3 0x461BCD PUSH1 0xE5 SHL DUP2 MSTORE PUSH1 0x20 PUSH1 0x4 DUP3 ADD MSTORE PUSH1 0x1C PUSH1 0x24 DUP3 ADD MSTORE PUSH28 0x4576656E74506F6F6C3A20496E73756666696369656E742050455055 PUSH1 0x20 SHL PUSH1 0x44 DUP3 ADD MSTORE PUSH1 0x64 SWAP1 REVERT JUMPDEST PUSH4 0x4E487B71 PUSH1 0xE0 SHL DUP3 MSTORE PUSH1 0x11 PUSH1 0x4 MSTORE PUSH1 0x24 DUP3 REVERT JUMPDEST PUSH2 0x309A DUP2 DUP1 DUP1 DUP1 PUSH8 0xDE0B6B3A7640000 PUSH1 0x1 DUP1 PUSH1 0xA0 SHL SUB DUP3 SLOAD AND GAS CALL PUSH2 0x2CFF PUSH2 0x4990 JUMP JUMPDEST PUSH1 0x7 SLOAD PUSH2 0x30BC SWAP1 PUSH1 0xA4 CALLDATALOAD SWAP1 PUSH1 0x1 PUSH1 0x1 PUSH1 0xA0 SHL SUB SWAP1 DUP2 AND SWAP1 CALLER SWAP1 PUSH1 0x64 CALLDATALOAD AND PUSH2 0x4ABF JUMP JUMPDEST PUSH2 0x2D28 JUMP JUMPDEST PUSH4 0x4E487B71 PUSH1 0xE0 SHL PUSH1 0x0 MSTORE PUSH1 0x41 PUSH1 0x4 MSTORE PUSH1 0x24 PUSH1 0x0 REVERT JUMPDEST PUSH4 0x4E487B71 PUSH1 0xE0 SHL DUP6 MSTORE PUSH1 0x21 PUSH1 0x4 MSTORE PUSH1 0x24 DUP6 REVERT JUMPDEST ADD MLOAD SWAP1 POP CODESIZE DUP1 PUSH2 0x2B5F JUMP JUMPDEST SWAP3 POP PUSH1 0x1 DUP6 ADD DUP7 MSTORE PUSH1 0x20 DUP7 KECCAK256 SWAP1 DUP7 SWAP4 JUMPDEST PUSH1 0x1F NOT DUP5 AND DUP6 LT PUSH2 0x314A JUMPI PUSH1 0x1 SWAP5 POP DUP4 PUSH1 0x1F NOT DUP2 AND LT PUSH2 0x3131 JUMPI JUMPDEST POP POP POP DUP2 SHL ADD PUSH1 0x1 DUP4 ADD SSTORE PUSH2 0x2B77 JUMP JUMPDEST ADD MLOAD PUSH1 0x0 NOT PUSH1 0xF8 DUP5 PUSH1 0x3 SHL AND SHR NOT AND SWAP1 SSTORE CODESIZE DUP1 DUP1 PUSH2 0x3121 JUMP JUMPDEST DUP2 DUP2 ADD MLOAD DUP4 SSTORE PUSH1 0x20 SWAP5 DUP6 ADD SWAP5 PUSH1 0x1 SWAP1 SWAP4 ADD SWAP3 SWAP1 SWAP2 ADD SWAP1 PUSH2 0x3106 JUMP JUMPDEST PUSH2 0x3193 SWAP1 PUSH1 0x1 DUP8 ADD DUP9 MSTORE PUSH1 0x20 DUP9 KECCAK256 PUSH1 0x1F DUP6 ADD PUSH1 0x5 SHR DUP2 ADD SWAP2 PUSH1 0x20 DUP7 LT PUSH2 0x3199 JUMPI JUMPDEST PUSH1 0x1F ADD PUSH1 0x5 SHR ADD SWAP1 PUSH2 0x4956 JUMP JUMPDEST CODESIZE PUSH2 0x2B49 JUMP JUMPDEST SWAP1 SWAP2 POP DUP2 SWAP1 PUSH2 0x3186 JUMP JUMPDEST PUSH4 0x4E487B71 PUSH1 0xE0 SHL DUP6 MSTORE PUSH1 0x41 PUSH1 0x4 MSTORE PUSH1 0x24 DUP6 REVERT JUMPDEST PUSH1 0x40 MLOAD PUSH3 0x461BCD PUSH1 0xE5 SHL DUP2 MSTORE PUSH1 0x20 PUSH1 0x4 DUP3 ADD MSTORE PUSH1 0x24 DUP1 DUP3 ADD MSTORE PUSH32 0x4576656E74506F6F6C3A20496E73756666696369656E74206372656174696F6E PUSH1 0x44 DUP3 ADD MSTORE PUSH4 0x20666565 PUSH1 0xE0 SHL PUSH1 0x64 DUP3 ADD MSTORE PUSH1 0x84 SWAP1 REVERT JUMPDEST PUSH1 0x40 MLOAD PUSH3 0x461BCD PUSH1 0xE5 SHL DUP2 MSTORE PUSH1 0x20 PUSH1 0x4 DUP3 ADD MSTORE PUSH1 0x2F PUSH1 0x24 DUP3 ADD MSTORE PUSH32 0x4576656E74506F6F6C3A20546F6B656E206E6F7420737570706F727465642066 PUSH1 0x44 DUP3 ADD MSTORE PUSH15 0x37B91036BAB63A3496B7B83A34B7B7 PUSH1 0x89 SHL PUSH1 0x64 DUP3 ADD MSTORE PUSH1 0x84 SWAP1 REVERT JUMPDEST SWAP1 POP PUSH1 0x20 DUP2 RETURNDATASIZE PUSH1 0x20 GT PUSH2 0x3297 JUMPI JUMPDEST DUP2 PUSH2 0x3280 PUSH1 0x20 SWAP4 DUP4 PUSH2 0x4762 JUMP JUMPDEST DUP2 ADD SUB SLT PUSH2 0x3D2 JUMPI PUSH2 0x3291 SWAP1 PUSH2 0x48AC JUMP JUMPDEST CODESIZE PUSH2 0x29F0 JUMP JUMPDEST RETURNDATASIZE SWAP2 POP PUSH2 0x3273 JUMP JUMPDEST PUSH1 0x40 MLOAD PUSH3 0x461BCD PUSH1 0xE5 SHL DUP2 MSTORE PUSH1 0x20 PUSH1 0x4 DUP3 ADD MSTORE PUSH1 0x31 PUSH1 0x24 DUP3 ADD MSTORE PUSH32 0x4576656E74506F6F6C3A204D756C74692D6F7074696F6E206D61726B65747320 PUSH1 0x44 DUP3 ADD MSTORE PUSH17 0x3932B8BAB4B93290281928103A37B5B2B7 PUSH1 0x79 SHL PUSH1 0x64 DUP3 ADD MSTORE PUSH1 0x84 SWAP1 REVERT JUMPDEST PUSH1 0x64 CALLDATALOAD PUSH1 0x1 PUSH1 0x1 PUSH1 0xA0 SHL SUB AND PUSH2 0x3315 JUMPI JUMPDEST POP PUSH2 0x29F7 JUMP JUMPDEST PUSH1 0x40 MLOAD PUSH4 0x34625613 PUSH1 0xE1 SHL DUP2 MSTORE PUSH1 0x64 CALLDATALOAD PUSH1 0x1 PUSH1 0x1 PUSH1 0xA0 SHL SUB AND PUSH1 0x4 DUP3 ADD MSTORE SWAP1 PUSH1 0x20 SWAP1 DUP3 SWAP1 PUSH1 0x24 SWAP1 DUP3 SWAP1 GAS STATICCALL SWAP1 DUP2 ISZERO PUSH2 0x68B JUMPI DUP3 SWAP2 PUSH2 0x339F JUMPI JUMPDEST POP ISZERO PUSH2 0x335A JUMPI CODESIZE PUSH2 0x330F JUMP JUMPDEST PUSH1 0x40 MLOAD PUSH3 0x461BCD PUSH1 0xE5 SHL DUP2 MSTORE PUSH1 0x20 PUSH1 0x4 DUP3 ADD MSTORE PUSH1 0x1E PUSH1 0x24 DUP3 ADD MSTORE PUSH32 0x4576656E74506F6F6C3A20546F6B656E206E6F7420737570706F727465640000 PUSH1 0x44 DUP3 ADD MSTORE PUSH1 0x64 SWAP1 REVERT JUMPDEST SWAP1 POP PUSH1 0x20 DUP2 RETURNDATASIZE PUSH1 0x20 GT PUSH2 0x33D1 JUMPI JUMPDEST DUP2 PUSH2 0x33BA PUSH1 0x20 SWAP4 DUP4 PUSH2 0x4762 JUMP JUMPDEST DUP2 ADD SUB SLT PUSH2 0x3D2 JUMPI PUSH2 0x33CB SWAP1 PUSH2 0x48AC JUMP JUMPDEST CODESIZE PUSH2 0x334E JUMP JUMPDEST RETURNDATASIZE SWAP2 POP PUSH2 0x33AD JUMP JUMPDEST PUSH1 0x40 MLOAD PUSH3 0x461BCD PUSH1 0xE5 SHL DUP2 MSTORE PUSH1 0x20 PUSH1 0x4 DUP3 ADD MSTORE PUSH1 0x30 PUSH1 0x24 DUP3 ADD MSTORE PUSH32 0x4576656E74506F6F6C3A205265736F6C7574696F6E206D757374206265206166 PUSH1 0x44 DUP3 ADD MSTORE PUSH16 0x1D195C881CDD185AD9481C195C9A5BD9 PUSH1 0x82 SHL PUSH1 0x64 DUP3 ADD MSTORE PUSH1 0x84 SWAP1 REVERT JUMPDEST PUSH1 0x40 MLOAD PUSH3 0x461BCD PUSH1 0xE5 SHL DUP2 MSTORE PUSH1 0x20 PUSH1 0x4 DUP3 ADD MSTORE PUSH1 0x27 PUSH1 0x24 DUP3 ADD MSTORE PUSH32 0x4576656E74506F6F6C3A2042656C6F77206D696E696D756D207374616B652064 PUSH1 0x44 DUP3 ADD MSTORE PUSH7 0x3AB930BA34B7B7 PUSH1 0xC9 SHL PUSH1 0x64 DUP3 ADD MSTORE PUSH1 0x84 SWAP1 REVERT JUMPDEST SWAP1 POP PUSH1 0x20 DUP2 RETURNDATASIZE PUSH1 0x20 GT PUSH2 0x34B6 JUMPI JUMPDEST DUP2 PUSH2 0x34A7 PUSH1 0x20 SWAP4 DUP4 PUSH2 0x4762 JUMP JUMPDEST DUP2 ADD SUB SLT PUSH2 0x87B JUMPI MLOAD CODESIZE PUSH2 0x2989 JUMP JUMPDEST RETURNDATASIZE SWAP2 POP PUSH2 0x349A JUMP JUMPDEST PUSH1 0x40 MLOAD PUSH3 0x461BCD PUSH1 0xE5 SHL DUP2 MSTORE PUSH1 0x20 PUSH1 0x4 DUP3 ADD MSTORE PUSH1 0x22 PUSH1 0x24 DUP3 ADD MSTORE PUSH32 0x4576656E74506F6F6C3A20496E76616C69642063726561746F72206F7574636F PUSH1 0x44 DUP3 ADD MSTORE PUSH2 0x6D65 PUSH1 0xF0 SHL PUSH1 0x64 DUP3 ADD MSTORE PUSH1 0x84 SWAP1 REVERT JUMPDEST POP PUSH1 0x44 CALLDATALOAD PUSH1 0xC4 CALLDATALOAD GT ISZERO PUSH2 0x2960 JUMP JUMPDEST PUSH1 0x40 MLOAD PUSH3 0x461BCD PUSH1 0xE5 SHL DUP2 MSTORE PUSH1 0x20 PUSH1 0x4 DUP3 ADD MSTORE PUSH1 0x22 PUSH1 0x24 DUP3 ADD MSTORE PUSH32 0x4576656E74506F6F6C3A20496E76616C69642063726561746F72206465706F73 PUSH1 0x44 DUP3 ADD MSTORE PUSH2 0x1A5D PUSH1 0xF2 SHL PUSH1 0x64 DUP3 ADD MSTORE PUSH1 0x84 SWAP1 REVERT JUMPDEST PUSH1 0x40 MLOAD PUSH3 0x461BCD PUSH1 0xE5 SHL DUP2 MSTORE PUSH1 0x20 PUSH1 0x4 DUP3 ADD MSTORE PUSH1 0x1C PUSH1 0x24 DUP3 ADD MSTORE PUSH28 0x4576656E74506F6F6C3A20496E76616C6964206D696E207374616B65 PUSH1 0x20 SHL PUSH1 0x44 DUP3 ADD MSTORE PUSH1 0x64 SWAP1 REVERT JUMPDEST PUSH1 0x40 MLOAD PUSH3 0x461BCD PUSH1 0xE5 SHL DUP2 MSTORE PUSH1 0x20 PUSH1 0x4 DUP3 ADD MSTORE PUSH1 0x1E PUSH1 0x24 DUP3 ADD MSTORE PUSH32 0x4576656E74506F6F6C3A20496E76616C6964206D6178206F7074696F6E730000 PUSH1 0x44 DUP3 ADD MSTORE PUSH1 0x64 SWAP1 REVERT JUMPDEST POP PUSH1 0xA PUSH1 0x44 CALLDATALOAD GT ISZERO PUSH2 0x2940 JUMP JUMPDEST PUSH1 0x40 MLOAD PUSH3 0x461BCD PUSH1 0xE5 SHL DUP2 MSTORE PUSH1 0x20 PUSH1 0x4 DUP3 ADD MSTORE PUSH1 0x1C PUSH1 0x24 DUP3 ADD MSTORE PUSH28 0x8AECCADCE8A0DEDED8744092DCECC2D8D2C84092A08CA640D0C2E6D PUSH1 0x23 SHL PUSH1 0x44 DUP3 ADD MSTORE PUSH1 0x64 SWAP1 REVERT JUMPDEST POP PUSH1 0x20 DUP2 RETURNDATASIZE PUSH1 0x20 GT PUSH2 0x3679 JUMPI JUMPDEST DUP2 PUSH2 0x3660 PUSH1 0x20 SWAP4 DUP4 PUSH2 0x4762 JUMP JUMPDEST DUP2 ADD SUB SLT PUSH2 0x6C4 JUMPI PUSH2 0x3674 PUSH2 0x292C SWAP2 PUSH2 0x48AC JUMP JUMPDEST PUSH2 0x2921 JUMP JUMPDEST RETURNDATASIZE SWAP2 POP PUSH2 0x3653 JUMP JUMPDEST POP CALLVALUE PUSH2 0x28A JUMPI DUP1 PUSH1 0x3 NOT CALLDATASIZE ADD SLT PUSH2 0x28A JUMPI PUSH1 0x7 SLOAD PUSH1 0x40 MLOAD PUSH1 0x1 PUSH1 0x1 PUSH1 0xA0 SHL SUB SWAP1 SWAP2 AND DUP2 MSTORE PUSH1 0x20 SWAP1 RETURN JUMPDEST POP CALLVALUE PUSH2 0x28A JUMPI PUSH2 0x1B1D PUSH2 0x36BC CALLDATASIZE PUSH2 0x4515 JUMP JUMPDEST SWAP1 PUSH2 0x4F2A JUMP JUMPDEST POP CALLVALUE PUSH2 0x28A JUMPI DUP1 PUSH1 0x3 NOT CALLDATASIZE ADD SLT PUSH2 0x28A JUMPI PUSH1 0x20 PUSH1 0xA SLOAD PUSH1 0x40 MLOAD SWAP1 DUP2 MSTORE RETURN JUMPDEST POP CALLVALUE PUSH2 0x28A JUMPI PUSH1 0x20 DUP1 PUSH1 0x3 NOT CALLDATASIZE ADD SLT PUSH2 0x3D2 JUMPI PUSH1 0x4 CALLDATALOAD DUP1 DUP4 MSTORE PUSH1 0x1 DUP3 MSTORE PUSH1 0x40 DUP4 KECCAK256 SWAP2 PUSH1 0xFF PUSH1 0xC DUP5 ADD SLOAD AND PUSH1 0x5 DUP2 LT ISZERO PUSH2 0x30D7 JUMPI PUSH1 0x3 SUB PUSH2 0x3A15 JUMPI DUP2 DUP5 MSTORE PUSH1 0x2 DUP2 MSTORE PUSH1 0x40 DUP5 KECCAK256 CALLER PUSH1 0x0 MSTORE DUP2 MSTORE PUSH1 0xFF PUSH1 0x40 PUSH1 0x0 KECCAK256 SLOAD AND DUP1 ISZERO PUSH2 0x39F5 JUMPI JUMPDEST ISZERO PUSH2 0x39B1 JUMPI DUP4 SWAP3 DUP3 DUP6 MSTORE PUSH1 0x2 DUP3 MSTORE PUSH1 0x40 DUP6 KECCAK256 CALLER PUSH1 0x0 MSTORE DUP3 MSTORE PUSH1 0xFF PUSH1 0x40 PUSH1 0x0 KECCAK256 SLOAD AND PUSH2 0x390B JUMPI JUMPDEST DUP3 DUP6 MSTORE PUSH1 0x3 DUP3 MSTORE PUSH1 0x40 DUP6 KECCAK256 CALLER PUSH1 0x0 MSTORE DUP3 MSTORE PUSH1 0xFF PUSH1 0x40 PUSH1 0x0 KECCAK256 SLOAD AND PUSH2 0x3863 JUMPI JUMPDEST DUP4 ISZERO PUSH2 0x381E JUMPI PUSH1 0x7 SLOAD PUSH1 0x4 SWAP1 SWAP2 ADD SLOAD DUP6 SWAP2 PUSH1 0x1 PUSH1 0x1 PUSH1 0xA0 SHL SUB SWAP2 DUP3 AND SWAP2 AND DUP1 EXTCODESIZE ISZERO PUSH2 0x6C4 JUMPI DUP6 DUP4 SWAP2 PUSH2 0x37CB SWAP4 DUP4 PUSH1 0x40 MLOAD DUP1 SWAP7 DUP2 SWAP6 DUP3 SWAP5 PUSH4 0x164FCD7D PUSH1 0xE2 SHL DUP5 MSTORE CALLER DUP14 PUSH1 0x4 DUP7 ADD PUSH2 0x4D77 JUMP JUMPDEST SUB SWAP3 GAS CALL DUP1 ISZERO PUSH2 0x68B JUMPI PUSH2 0x380A JUMPI JUMPDEST POP POP PUSH32 0xF3F402280EF0A7905E124AA621B65EAEB2725C343E8B36D398ED78C29DAF285C SWAP1 PUSH1 0x40 MLOAD SWAP4 DUP5 MSTORE CALLER SWAP4 LOG3 DUP1 RETURN JUMPDEST PUSH2 0x3813 SWAP1 PUSH2 0x4718 JUMP JUMPDEST PUSH2 0x687 JUMPI DUP4 CODESIZE PUSH2 0x37DA JUMP JUMPDEST PUSH1 0x40 MLOAD PUSH3 0x461BCD PUSH1 0xE5 SHL DUP2 MSTORE PUSH1 0x4 DUP2 ADD DUP4 SWAP1 MSTORE PUSH1 0x1E PUSH1 0x24 DUP3 ADD MSTORE PUSH32 0x4576656E74506F6F6C3A204E6F20726566756E6420617661696C61626C650000 PUSH1 0x44 DUP3 ADD MSTORE PUSH1 0x64 SWAP1 REVERT JUMPDEST SWAP3 PUSH2 0x389A SWAP1 DUP3 PUSH1 0x1 DUP1 PUSH1 0xA0 SHL SUB DUP1 PUSH1 0x7 SLOAD AND SWAP1 PUSH1 0x4 DUP9 ADD SLOAD AND SWAP1 PUSH1 0x40 MLOAD DUP1 DUP1 SWAP7 DUP2 SWAP5 PUSH4 0x256BA741 PUSH1 0xE0 SHL DUP4 MSTORE CALLER DUP12 PUSH1 0x4 DUP6 ADD PUSH2 0x4E16 JUMP JUMPDEST SUB SWAP2 GAS STATICCALL SWAP1 DUP2 ISZERO PUSH2 0xBEF JUMPI DUP7 SWAP2 PUSH2 0x38DA JUMPI JUMPDEST PUSH2 0x38B6 SWAP3 POP PUSH2 0x492E JUMP JUMPDEST SWAP3 DUP3 DUP6 MSTORE PUSH1 0x3 DUP3 MSTORE PUSH1 0x40 DUP6 KECCAK256 CALLER PUSH1 0x0 MSTORE DUP3 MSTORE PUSH1 0x40 PUSH1 0x0 KECCAK256 PUSH1 0xFF NOT DUP2 SLOAD AND SWAP1 SSTORE PUSH2 0x3780 JUMP JUMPDEST SWAP1 POP DUP3 DUP3 DUP2 RETURNDATASIZE DUP4 GT PUSH2 0x3904 JUMPI JUMPDEST PUSH2 0x38F1 DUP2 DUP4 PUSH2 0x4762 JUMP JUMPDEST DUP2 ADD SUB SLT PUSH2 0x87B JUMPI PUSH2 0x38B6 SWAP2 MLOAD SWAP1 PUSH2 0x38AC JUMP JUMPDEST POP RETURNDATASIZE PUSH2 0x38E7 JUMP JUMPDEST SWAP3 POP PUSH2 0x3942 DUP2 PUSH1 0x1 DUP1 PUSH1 0xA0 SHL SUB DUP1 PUSH1 0x7 SLOAD AND SWAP1 PUSH1 0x4 DUP8 ADD SLOAD AND SWAP1 PUSH1 0x40 MLOAD DUP1 DUP1 SWAP6 DUP2 SWAP5 PUSH4 0x423E7BC1 PUSH1 0xE1 SHL DUP4 MSTORE CALLER DUP11 PUSH1 0x4 DUP6 ADD PUSH2 0x4E16 JUMP JUMPDEST SUB SWAP2 GAS STATICCALL SWAP1 DUP2 ISZERO PUSH2 0x39A6 JUMPI DUP6 SWAP2 PUSH2 0x3979 JUMPI JUMPDEST POP SWAP3 DUP3 DUP6 MSTORE PUSH1 0x2 DUP3 MSTORE PUSH1 0x40 DUP6 KECCAK256 CALLER PUSH1 0x0 MSTORE DUP3 MSTORE PUSH1 0x40 PUSH1 0x0 KECCAK256 PUSH1 0xFF NOT DUP2 SLOAD AND SWAP1 SSTORE PUSH2 0x3761 JUMP JUMPDEST SWAP1 POP DUP2 DUP2 DUP2 RETURNDATASIZE DUP4 GT PUSH2 0x399F JUMPI JUMPDEST PUSH2 0x3990 DUP2 DUP4 PUSH2 0x4762 JUMP JUMPDEST DUP2 ADD SUB SLT PUSH2 0x87B JUMPI MLOAD CODESIZE PUSH2 0x3954 JUMP JUMPDEST POP RETURNDATASIZE PUSH2 0x3986 JUMP JUMPDEST PUSH1 0x40 MLOAD RETURNDATASIZE DUP8 DUP3 RETURNDATACOPY RETURNDATASIZE SWAP1 REVERT JUMPDEST PUSH1 0x64 SWAP1 PUSH1 0x40 MLOAD SWAP1 PUSH3 0x461BCD PUSH1 0xE5 SHL DUP3 MSTORE PUSH1 0x4 DUP3 ADD MSTORE PUSH1 0x1D PUSH1 0x24 DUP3 ADD MSTORE PUSH32 0x4576656E74506F6F6C3A204E6F207374616B6520746F20726566756E64000000 PUSH1 0x44 DUP3 ADD MSTORE REVERT JUMPDEST POP DUP2 DUP5 MSTORE PUSH1 0x3 DUP2 MSTORE PUSH1 0x40 DUP5 KECCAK256 CALLER PUSH1 0x0 MSTORE DUP2 MSTORE PUSH1 0xFF PUSH1 0x40 PUSH1 0x0 KECCAK256 SLOAD AND PUSH2 0x373B JUMP JUMPDEST PUSH1 0x64 SWAP1 PUSH1 0x40 MLOAD SWAP1 PUSH3 0x461BCD PUSH1 0xE5 SHL DUP3 MSTORE PUSH1 0x4 DUP3 ADD MSTORE PUSH1 0x1F PUSH1 0x24 DUP3 ADD MSTORE PUSH32 0x4576656E74506F6F6C3A204D61726B6574206E6F742063616E63656C6C656400 PUSH1 0x44 DUP3 ADD MSTORE REVERT JUMPDEST POP CALLVALUE PUSH2 0x28A JUMPI DUP1 PUSH1 0x3 NOT CALLDATASIZE ADD SLT PUSH2 0x28A JUMPI PUSH1 0x20 PUSH1 0x40 MLOAD PUSH2 0x1F4 DUP2 MSTORE RETURN JUMPDEST POP CALLVALUE PUSH2 0x28A JUMPI PUSH1 0x40 CALLDATASIZE PUSH1 0x3 NOT ADD SLT PUSH2 0x28A JUMPI PUSH2 0x1692 SWAP1 PUSH1 0x20 PUSH2 0x3A96 PUSH2 0x44B4 JUMP JUMPDEST PUSH1 0x1 DUP1 PUSH1 0xA0 SHL SUB PUSH1 0x7 SLOAD AND PUSH1 0x40 MLOAD DUP1 DUP1 SWAP7 DUP2 SWAP5 PUSH4 0x4F44289D PUSH1 0xE0 SHL DUP4 MSTORE PUSH1 0x4 CALLDATALOAD PUSH1 0x4 DUP5 ADD PUSH2 0x4A60 JUMP JUMPDEST POP CALLVALUE PUSH2 0x28A JUMPI DUP1 PUSH1 0x3 NOT CALLDATASIZE ADD SLT PUSH2 0x28A JUMPI PUSH1 0x20 PUSH1 0x9 SLOAD PUSH1 0x40 MLOAD SWAP1 DUP2 MSTORE RETURN JUMPDEST POP CALLVALUE PUSH2 0x28A JUMPI PUSH1 0x20 CALLDATASIZE PUSH1 0x3 NOT ADD SLT PUSH2 0x28A JUMPI PUSH2 0x3AF7 PUSH2 0x5DF2 JUMP JUMPDEST POP PUSH1 0x4 CALLDATALOAD DUP2 MSTORE PUSH1 0x1 PUSH1 0x20 MSTORE PUSH1 0x40 DUP2 KECCAK256 PUSH1 0xFF PUSH1 0xE PUSH1 0x40 MLOAD SWAP3 PUSH2 0x3B17 DUP5 PUSH2 0x472B JUMP JUMPDEST DUP1 SLOAD PUSH1 0x1 PUSH1 0x1 PUSH1 0xA0 SHL SUB AND DUP5 MSTORE PUSH2 0x3B30 PUSH1 0x1 DUP3 ADD PUSH2 0x47DA JUMP JUMPDEST PUSH1 0x20 DUP6 ADD MSTORE PUSH1 0x2 DUP2 ADD SLOAD DUP4 AND ISZERO ISZERO PUSH1 0x40 DUP6 ADD MSTORE PUSH1 0x3 DUP2 ADD SLOAD PUSH1 0x60 DUP6 ADD MSTORE PUSH1 0x4 DUP2 ADD SLOAD PUSH1 0x1 PUSH1 0x1 PUSH1 0xA0 SHL SUB AND PUSH1 0x80 DUP6 ADD MSTORE PUSH1 0x5 DUP2 ADD SLOAD PUSH1 0xA0 DUP6 ADD MSTORE PUSH1 0x6 DUP2 ADD SLOAD PUSH1 0xC0 DUP6 ADD MSTORE PUSH1 0x7 DUP2 ADD SLOAD PUSH1 0xE0 DUP6 ADD MSTORE PUSH1 0x8 DUP2 ADD SLOAD PUSH2 0x100 DUP6 ADD MSTORE PUSH1 0x9 DUP2 ADD SLOAD PUSH2 0x120 DUP6 ADD MSTORE PUSH1 0xA DUP2 ADD SLOAD PUSH2 0x140 DUP6 ADD MSTORE PUSH1 0xB DUP2 ADD SLOAD PUSH2 0x160 DUP6 ADD MSTORE PUSH1 0xC DUP2 ADD SLOAD PUSH2 0x3BBF SWAP1 DUP5 AND PUSH2 0x180 DUP7 ADD PUSH2 0x494A JUMP JUMPDEST PUSH1 0xD DUP2 ADD SLOAD PUSH2 0x1A0 DUP6 ADD MSTORE ADD SLOAD AND ISZERO ISZERO PUSH2 0x1C0 DUP3 ADD MSTORE PUSH1 0x7 SLOAD PUSH1 0x80 DUP3 ADD MLOAD PUSH1 0x40 MLOAD PUSH4 0x3D1E7BA1 PUSH1 0xE1 SHL DUP2 MSTORE SWAP2 PUSH1 0x1 PUSH1 0x1 PUSH1 0xA0 SHL SUB SWAP1 DUP2 AND SWAP2 PUSH1 0x20 SWAP2 DUP5 SWAP2 DUP3 SWAP2 PUSH2 0x3C0F SWAP2 AND PUSH1 0x4 DUP1 CALLDATALOAD SWAP1 DUP5 ADD PUSH2 0x4A60 JUMP JUMPDEST SUB DUP2 DUP5 GAS STATICCALL SWAP2 DUP3 ISZERO PUSH2 0x3EB6 JUMPI DUP5 SWAP3 PUSH2 0x3EC1 JUMPI JUMPDEST POP PUSH1 0x80 DUP4 ADD MLOAD PUSH1 0x40 MLOAD PUSH4 0x4F44289D PUSH1 0xE0 SHL DUP2 MSTORE SWAP3 SWAP2 PUSH1 0x20 SWAP2 DUP5 SWAP2 SWAP1 DUP3 SWAP1 DUP2 SWAP1 PUSH2 0x3C5A SWAP1 PUSH1 0x1 PUSH1 0x1 PUSH1 0xA0 SHL SUB AND PUSH1 0x4 DUP1 CALLDATALOAD SWAP1 DUP5 ADD PUSH2 0x4A60 JUMP JUMPDEST SUB SWAP2 GAS STATICCALL SWAP2 DUP3 ISZERO PUSH2 0x3EB6 JUMPI DUP5 SWAP3 PUSH2 0x3E82 JUMPI JUMPDEST POP PUSH1 0x4 CALLDATALOAD DUP5 MSTORE PUSH1 0x5 PUSH1 0x20 MSTORE PUSH1 0x40 DUP5 KECCAK256 SLOAD PUSH1 0x6 PUSH1 0x20 MSTORE PUSH1 0x40 DUP6 KECCAK256 SLOAD PUSH1 0x5 PUSH1 0x20 MSTORE PUSH1 0x40 DUP7 KECCAK256 SWAP2 PUSH1 0x40 MLOAD DUP1 DUP5 PUSH1 0x20 DUP3 SWAP7 SLOAD SWAP4 DUP5 DUP2 MSTORE ADD SWAP1 DUP11 MSTORE PUSH1 0x20 DUP11 KECCAK256 SWAP3 DUP11 JUMPDEST DUP2 DUP2 LT PUSH2 0x3E60 JUMPI POP POP PUSH2 0x3CBE SWAP3 POP SUB DUP5 PUSH2 0x4762 JUMP JUMPDEST PUSH1 0x4 CALLDATALOAD DUP8 MSTORE PUSH1 0x6 PUSH1 0x20 MSTORE PUSH1 0x40 DUP8 KECCAK256 SWAP5 PUSH1 0x40 MLOAD DUP1 DUP8 PUSH1 0x20 DUP3 SWAP10 SLOAD SWAP4 DUP5 DUP2 MSTORE ADD SWAP1 DUP12 MSTORE PUSH1 0x20 DUP12 KECCAK256 SWAP3 DUP12 JUMPDEST DUP2 DUP2 LT PUSH2 0x3E3E JUMPI POP POP PUSH2 0x3CFB SWAP3 POP SUB DUP8 PUSH2 0x4762 JUMP JUMPDEST PUSH1 0x8 SLOAD PUSH1 0x80 DUP9 ADD MLOAD PUSH1 0x40 MLOAD PUSH4 0x7D85959B PUSH1 0xE1 SHL DUP2 MSTORE PUSH1 0x1 PUSH1 0x1 PUSH1 0xA0 SHL SUB SWAP2 DUP3 AND PUSH1 0x4 DUP3 ADD MSTORE SWAP2 DUP11 SWAP2 DUP4 SWAP2 PUSH1 0x24 SWAP2 DUP4 SWAP2 AND GAS STATICCALL SWAP9 DUP10 ISZERO PUSH2 0x16E0 JUMPI DUP1 SWAP10 PUSH2 0x3DA3 JUMPI JUMPDEST PUSH2 0x3D65 DUP10 PUSH2 0x17F4 DUP13 PUSH2 0x3D95 DUP13 PUSH2 0x3D87 DUP14 DUP14 DUP14 DUP14 DUP14 PUSH1 0x40 MLOAD SWAP12 DUP13 SWAP12 PUSH2 0x100 DUP14 MSTORE PUSH2 0x100 DUP14 ADD SWAP1 PUSH2 0x461A JUMP JUMPDEST SWAP5 PUSH1 0x20 DUP13 ADD MSTORE PUSH1 0x40 DUP12 ADD MSTORE PUSH1 0x60 DUP11 ADD MSTORE PUSH1 0x80 DUP10 ADD MSTORE DUP8 DUP3 SUB PUSH1 0xA0 DUP10 ADD MSTORE PUSH2 0x46DB JUMP JUMPDEST SWAP1 DUP6 DUP3 SUB PUSH1 0xC0 DUP8 ADD MSTORE PUSH2 0x46DB JUMP JUMPDEST SWAP1 DUP4 DUP3 SUB PUSH1 0xE0 DUP6 ADD MSTORE PUSH2 0x45D2 JUMP JUMPDEST SWAP1 SWAP2 SWAP9 POP RETURNDATASIZE DUP1 DUP3 DUP5 RETURNDATACOPY PUSH2 0x3DB6 DUP2 DUP5 PUSH2 0x4762 JUMP JUMPDEST DUP3 ADD SWAP2 PUSH1 0x20 DUP2 DUP5 SUB SLT PUSH2 0x3D2 JUMPI DUP1 MLOAD SWAP1 PUSH1 0x1 PUSH1 0x1 PUSH1 0x40 SHL SUB DUP3 GT PUSH2 0x6C4 JUMPI ADD DUP3 PUSH1 0x1F DUP3 ADD SLT ISZERO PUSH2 0x3D2 JUMPI DUP1 MLOAD SWAP2 PUSH2 0x3DEC DUP4 PUSH2 0x4785 JUMP JUMPDEST SWAP4 PUSH2 0x3DFA PUSH1 0x40 MLOAD SWAP6 DUP7 PUSH2 0x4762 JUMP JUMPDEST DUP4 DUP6 MSTORE PUSH1 0x20 DUP5 DUP5 ADD ADD GT PUSH2 0x28A JUMPI POP SWAP4 PUSH2 0x3D87 SWAP4 DUP4 PUSH2 0x3E2D PUSH2 0x3D95 SWAP9 SWAP5 PUSH2 0x17F4 SWAP12 SWAP9 PUSH1 0x20 PUSH2 0x3D65 SWAP16 SWAP13 SWAP9 DUP2 ADD SWAP2 ADD PUSH2 0x45AF JUMP JUMPDEST SWAP11 POP SWAP4 POP SWAP4 SWAP7 DUP2 SWAP6 POP SWAP6 SWAP2 SWAP6 PUSH2 0x3D3B JUMP JUMPDEST DUP5 SLOAD PUSH1 0x1 PUSH1 0x1 PUSH1 0xA0 SHL SUB AND DUP4 MSTORE PUSH1 0x1 SWAP5 DUP6 ADD SWAP5 DUP12 SWAP5 POP PUSH1 0x20 SWAP1 SWAP4 ADD SWAP3 ADD PUSH2 0x3CE6 JUMP JUMPDEST DUP5 SLOAD PUSH1 0x1 PUSH1 0x1 PUSH1 0xA0 SHL SUB AND DUP4 MSTORE PUSH1 0x1 SWAP5 DUP6 ADD SWAP5 DUP9 SWAP5 POP PUSH1 0x20 SWAP1 SWAP4 ADD SWAP3 ADD PUSH2 0x3CA9 JUMP JUMPDEST SWAP1 SWAP2 POP PUSH1 0x20 DUP2 RETURNDATASIZE PUSH1 0x20 GT PUSH2 0x3EAE JUMPI JUMPDEST DUP2 PUSH2 0x3E9E PUSH1 0x20 SWAP4 DUP4 PUSH2 0x4762 JUMP JUMPDEST DUP2 ADD SUB SLT PUSH2 0x87B JUMPI MLOAD SWAP1 CODESIZE PUSH2 0x3C6C JUMP JUMPDEST RETURNDATASIZE SWAP2 POP PUSH2 0x3E91 JUMP JUMPDEST PUSH1 0x40 MLOAD RETURNDATASIZE DUP7 DUP3 RETURNDATACOPY RETURNDATASIZE SWAP1 REVERT JUMPDEST SWAP2 POP PUSH1 0x20 DUP3 RETURNDATASIZE PUSH1 0x20 GT PUSH2 0x3EEE JUMPI JUMPDEST DUP2 PUSH2 0x3EDC PUSH1 0x20 SWAP4 DUP4 PUSH2 0x4762 JUMP JUMPDEST DUP2 ADD SUB SLT PUSH2 0x87B JUMPI SWAP1 MLOAD SWAP1 PUSH1 0x20 PUSH2 0x3C22 JUMP JUMPDEST RETURNDATASIZE SWAP2 POP PUSH2 0x3ECF JUMP JUMPDEST POP CALLVALUE PUSH2 0x28A JUMPI PUSH1 0x20 DUP1 PUSH1 0x3 NOT CALLDATASIZE ADD SLT PUSH2 0x3D2 JUMPI PUSH1 0x4 CALLDATALOAD DUP1 DUP4 MSTORE PUSH1 0x1 DUP3 MSTORE PUSH1 0x40 DUP4 KECCAK256 PUSH1 0x3 DUP4 MSTORE PUSH1 0x40 DUP5 KECCAK256 CALLER DUP6 MSTORE DUP4 MSTORE PUSH2 0x3F34 PUSH1 0xFF PUSH1 0x40 DUP7 KECCAK256 SLOAD AND PUSH2 0x4DC0 JUMP JUMPDEST PUSH1 0xFF PUSH1 0xC DUP3 ADD SLOAD AND PUSH1 0x5 DUP2 LT ISZERO PUSH2 0x30D7 JUMPI DUP1 PUSH2 0x40CF JUMPI POP PUSH1 0x9 DUP2 ADD SLOAD PUSH2 0xA8BF NOT DUP2 ADD SWAP1 DUP2 GT PUSH2 0x40BB JUMPI TIMESTAMP LT ISZERO PUSH2 0x4054 JUMPI JUMPDEST DUP4 PUSH1 0x1 DUP1 PUSH1 0xA0 SHL SUB PUSH1 0x4 DUP2 PUSH1 0x7 SLOAD AND SWAP4 ADD SLOAD AND SWAP2 PUSH1 0x40 MLOAD SWAP1 PUSH4 0x256BA741 PUSH1 0xE0 SHL DUP3 MSTORE DUP6 DUP3 DUP1 PUSH2 0x3F99 DUP8 CALLER DUP11 PUSH1 0x4 DUP6 ADD PUSH2 0x4E16 JUMP JUMPDEST SUB DUP2 DUP5 GAS STATICCALL SWAP2 DUP3 ISZERO PUSH2 0x6CF JUMPI DUP4 SWAP3 PUSH2 0x4025 JUMPI JUMPDEST POP PUSH2 0x3FB8 DUP3 ISZERO ISZERO PUSH2 0x4DC0 JUMP JUMPDEST DUP1 EXTCODESIZE ISZERO PUSH2 0x6C4 JUMPI PUSH2 0x3FE2 SWAP4 DUP4 PUSH1 0x40 MLOAD DUP1 SWAP7 DUP2 SWAP6 DUP3 SWAP5 PUSH4 0x17BE0B2F PUSH1 0xE1 SHL DUP5 MSTORE CALLER DUP12 PUSH1 0x4 DUP7 ADD PUSH2 0x4D77 JUMP JUMPDEST SUB SWAP3 GAS CALL DUP1 ISZERO PUSH2 0x3EB6 JUMPI PUSH2 0x4012 JUMPI JUMPDEST POP DUP3 MSTORE PUSH1 0x3 DUP2 MSTORE PUSH1 0x40 DUP3 KECCAK256 SWAP1 CALLER PUSH1 0x0 MSTORE MSTORE PUSH1 0x40 PUSH1 0x0 KECCAK256 PUSH1 0xFF NOT DUP2 SLOAD AND SWAP1 SSTORE DUP1 RETURN JUMPDEST PUSH2 0x401E SWAP1 SWAP4 SWAP2 SWAP4 PUSH2 0x4718 JUMP JUMPDEST SWAP2 CODESIZE PUSH2 0x3FF1 JUMP JUMPDEST SWAP1 SWAP2 POP DUP6 DUP2 DUP2 RETURNDATASIZE DUP4 GT PUSH2 0x404D JUMPI JUMPDEST PUSH2 0x403D DUP2 DUP4 PUSH2 0x4762 JUMP JUMPDEST DUP2 ADD SUB SLT PUSH2 0x6C4 JUMPI MLOAD SWAP1 CODESIZE PUSH2 0x3FAC JUMP JUMPDEST POP RETURNDATASIZE PUSH2 0x4033 JUMP JUMPDEST PUSH1 0x40 MLOAD PUSH3 0x461BCD PUSH1 0xE5 SHL DUP2 MSTORE PUSH1 0x4 DUP2 ADD DUP5 SWAP1 MSTORE PUSH1 0x39 PUSH1 0x24 DUP3 ADD MSTORE PUSH32 0x4576656E74506F6F6C3A2043616E6E6F74207769746864726177207769746869 PUSH1 0x44 DUP3 ADD MSTORE PUSH25 0x1B880C4C881A1BDD5C9CC81BD9881CDD185ADA5B99C8195B99 PUSH1 0x3A SHL PUSH1 0x64 DUP3 ADD MSTORE PUSH1 0x84 SWAP1 REVERT JUMPDEST PUSH4 0x4E487B71 PUSH1 0xE0 SHL DUP6 MSTORE PUSH1 0x11 PUSH1 0x4 MSTORE PUSH1 0x24 DUP6 REVERT JUMPDEST PUSH1 0x4 DUP2 EQ SWAP1 DUP2 ISZERO PUSH2 0x4140 JUMPI JUMPDEST POP PUSH2 0x3F65 JUMPI PUSH1 0x40 MLOAD PUSH3 0x461BCD PUSH1 0xE5 SHL DUP2 MSTORE PUSH1 0x4 DUP2 ADD DUP5 SWAP1 MSTORE PUSH1 0x32 PUSH1 0x24 DUP3 ADD MSTORE PUSH32 0x4576656E74506F6F6C3A2043616E6E6F7420776974686472617720696E206375 PUSH1 0x44 DUP3 ADD MSTORE PUSH18 0x7272656E74206D61726B6574207374617465 PUSH1 0x70 SHL PUSH1 0x64 DUP3 ADD MSTORE PUSH1 0x84 SWAP1 REVERT JUMPDEST PUSH1 0x3 SWAP2 POP EQ CODESIZE PUSH2 0x40DB JUMP JUMPDEST POP CALLVALUE PUSH2 0x28A JUMPI PUSH1 0x20 CALLDATASIZE PUSH1 0x3 NOT ADD SLT PUSH2 0x28A JUMPI PUSH1 0x4 CALLDATALOAD SWAP1 PUSH1 0xA SLOAD DUP3 LT ISZERO PUSH2 0x28A JUMPI PUSH1 0x20 PUSH2 0x21EC DUP4 PUSH2 0x452B JUMP JUMPDEST POP CALLVALUE PUSH2 0x28A JUMPI PUSH1 0x20 DUP1 PUSH1 0x3 NOT CALLDATASIZE ADD SLT PUSH2 0x3D2 JUMPI PUSH1 0x1 PUSH1 0x1 PUSH1 0xA0 SHL SUB PUSH2 0x4199 PUSH2 0x44CA JUMP JUMPDEST AND DUP3 MSTORE PUSH1 0xC DUP2 MSTORE PUSH1 0x40 DUP3 KECCAK256 SWAP2 PUSH1 0x40 MLOAD DUP1 SWAP3 DUP1 DUP6 SLOAD SWAP3 DUP4 DUP2 MSTORE ADD SWAP5 DUP4 MSTORE DUP1 DUP4 KECCAK256 SWAP3 SWAP1 JUMPDEST DUP3 DUP3 LT PUSH2 0x41D2 JUMPI PUSH2 0x17F4 DUP6 PUSH2 0x212E DUP2 DUP10 SUB DUP3 PUSH2 0x4762 JUMP JUMPDEST DUP4 SLOAD DUP7 MSTORE SWAP5 DUP6 ADD SWAP5 PUSH1 0x1 SWAP4 DUP5 ADD SWAP4 SWAP1 SWAP2 ADD SWAP1 PUSH2 0x41BB JUMP JUMPDEST POP CALLVALUE PUSH2 0x28A JUMPI PUSH1 0x40 CALLDATASIZE PUSH1 0x3 NOT ADD SLT PUSH2 0x28A JUMPI PUSH1 0xFF PUSH1 0x40 PUSH1 0x20 SWAP3 PUSH2 0x420A PUSH2 0x44B4 JUMP JUMPDEST PUSH1 0x4 CALLDATALOAD DUP3 MSTORE PUSH1 0x2 DUP6 MSTORE DUP3 DUP3 KECCAK256 PUSH1 0x1 PUSH1 0x1 PUSH1 0xA0 SHL SUB SWAP1 SWAP2 AND DUP3 MSTORE DUP5 MSTORE KECCAK256 SLOAD PUSH1 0x40 MLOAD SWAP2 AND ISZERO ISZERO DUP2 MSTORE RETURN JUMPDEST POP CALLVALUE PUSH2 0x28A JUMPI DUP1 PUSH1 0x3 NOT CALLDATASIZE ADD SLT PUSH2 0x28A JUMPI PUSH1 0x20 PUSH1 0x40 MLOAD PUSH8 0xDE0B6B3A7640000 DUP2 MSTORE RETURN JUMPDEST POP CALLVALUE PUSH2 0x28A JUMPI DUP1 PUSH1 0x3 NOT CALLDATASIZE ADD SLT PUSH2 0x28A JUMPI PUSH1 0x20 PUSH1 0x40 MLOAD PUSH1 0x96 DUP2 MSTORE RETURN JUMPDEST POP CALLVALUE PUSH2 0x28A JUMPI PUSH2 0x4280 CALLDATASIZE PUSH2 0x4515 JUMP JUMPDEST SWAP2 SWAP1 DUP2 MSTORE PUSH1 0xD PUSH1 0x20 MSTORE PUSH1 0x40 DUP2 KECCAK256 SWAP1 DUP2 SLOAD DUP4 LT ISZERO PUSH2 0x28A JUMPI PUSH1 0x20 PUSH2 0x1A4E DUP5 DUP5 PUSH2 0x455C JUMP JUMPDEST POP CALLVALUE PUSH2 0x28A JUMPI PUSH1 0x40 CALLDATASIZE PUSH1 0x3 NOT ADD SLT PUSH2 0x28A JUMPI PUSH1 0xFF PUSH1 0x40 PUSH1 0x20 SWAP3 PUSH2 0x42C4 PUSH2 0x44B4 JUMP JUMPDEST PUSH1 0x4 CALLDATALOAD DUP3 MSTORE PUSH1 0x3 DUP6 MSTORE DUP3 DUP3 KECCAK256 PUSH1 0x1 PUSH1 0x1 PUSH1 0xA0 SHL SUB SWAP1 SWAP2 AND DUP3 MSTORE DUP5 MSTORE KECCAK256 SLOAD PUSH1 0x40 MLOAD SWAP2 AND ISZERO ISZERO DUP2 MSTORE RETURN JUMPDEST POP CALLVALUE PUSH2 0x28A JUMPI PUSH2 0x432F PUSH1 0x20 PUSH2 0x4300 CALLDATASIZE PUSH2 0x44E0 JUMP JUMPDEST PUSH1 0x7 SLOAD PUSH1 0x40 MLOAD PUSH4 0x256BA741 PUSH1 0xE0 SHL DUP2 MSTORE SWAP6 DUP7 SWAP5 PUSH1 0x1 PUSH1 0x1 PUSH1 0xA0 SHL SUB SWAP1 SWAP3 AND SWAP4 DUP6 SWAP4 DUP5 SWAP4 SWAP1 SWAP2 SWAP1 PUSH1 0x4 DUP6 ADD PUSH2 0x4E16 JUMP JUMPDEST SUB SWAP2 GAS STATICCALL SWAP1 DUP2 ISZERO PUSH2 0x68B JUMPI DUP3 SWAP2 PUSH2 0x434C JUMPI JUMPDEST PUSH1 0x20 DUP3 PUSH1 0x40 MLOAD SWAP1 DUP2 MSTORE RETURN JUMPDEST SWAP1 POP PUSH1 0x20 DUP2 RETURNDATASIZE DUP3 GT PUSH2 0x4379 JUMPI JUMPDEST DUP2 PUSH2 0x4366 PUSH1 0x20 SWAP4 DUP4 PUSH2 0x4762 JUMP JUMPDEST DUP2 ADD SUB SLT PUSH2 0x3D2 JUMPI PUSH1 0x20 SWAP2 POP MLOAD CODESIZE PUSH2 0x4341 JUMP JUMPDEST RETURNDATASIZE SWAP2 POP PUSH2 0x4359 JUMP JUMPDEST POP CALLVALUE PUSH2 0x28A JUMPI PUSH1 0x20 CALLDATASIZE PUSH1 0x3 NOT ADD SLT PUSH2 0x28A JUMPI PUSH1 0x4 CALLDATALOAD DUP1 DUP3 MSTORE PUSH1 0x1 PUSH1 0x20 MSTORE PUSH1 0x40 DUP3 KECCAK256 PUSH1 0xC DUP2 ADD SWAP1 DUP2 SLOAD SWAP1 PUSH1 0xFF DUP3 AND PUSH1 0x5 DUP2 LT ISZERO PUSH2 0x444A JUMPI SWAP1 PUSH2 0x43C4 PUSH1 0xA SWAP3 ISZERO PUSH2 0x4B9F JUMP JUMPDEST ADD SLOAD TIMESTAMP LT PUSH2 0x43F6 JUMPI PUSH1 0xFF NOT AND PUSH1 0x1 OR SWAP1 SSTORE DUP1 DUP3 MSTORE PUSH1 0xB PUSH1 0x20 MSTORE PUSH1 0x40 DUP3 KECCAK256 SLOAD PUSH1 0xFF AND PUSH2 0x43ED JUMPI POP DUP1 RETURN JUMPDEST PUSH2 0x1B1D SWAP1 PUSH2 0x5C57 JUMP JUMPDEST PUSH1 0x40 MLOAD PUSH3 0x461BCD PUSH1 0xE5 SHL DUP2 MSTORE PUSH1 0x20 PUSH1 0x4 DUP3 ADD MSTORE PUSH1 0x26 PUSH1 0x24 DUP3 ADD MSTORE PUSH32 0x4576656E74506F6F6C3A205265736F6C7574696F6E2074696D65206E6F742072 PUSH1 0x44 DUP3 ADD MSTORE PUSH6 0x195858DA1959 PUSH1 0xD2 SHL PUSH1 0x64 DUP3 ADD MSTORE PUSH1 0x84 SWAP1 REVERT JUMPDEST PUSH4 0x4E487B71 PUSH1 0xE0 SHL DUP7 MSTORE PUSH1 0x21 PUSH1 0x4 MSTORE PUSH1 0x24 DUP7 REVERT JUMPDEST POP CALLVALUE PUSH2 0x28A JUMPI PUSH1 0x20 CALLDATASIZE PUSH1 0x3 NOT ADD SLT PUSH2 0x28A JUMPI PUSH1 0xFF PUSH1 0x40 PUSH1 0x20 SWAP3 PUSH1 0x4 CALLDATALOAD DUP2 MSTORE PUSH1 0xB DUP5 MSTORE KECCAK256 SLOAD AND PUSH1 0x40 MLOAD SWAP1 ISZERO ISZERO DUP2 MSTORE RETURN JUMPDEST SWAP1 POP CALLVALUE PUSH2 0x3D2 JUMPI PUSH1 0x20 CALLDATASIZE PUSH1 0x3 NOT ADD SLT PUSH2 0x3D2 JUMPI PUSH1 0x40 PUSH1 0x20 SWAP3 PUSH1 0x4 CALLDATALOAD DUP2 MSTORE PUSH1 0x5 DUP5 MSTORE KECCAK256 SLOAD DUP2 MSTORE RETURN JUMPDEST PUSH1 0x24 CALLDATALOAD SWAP1 PUSH1 0x1 PUSH1 0x1 PUSH1 0xA0 SHL SUB DUP3 AND DUP3 SUB PUSH2 0x87B JUMPI JUMP JUMPDEST PUSH1 0x4 CALLDATALOAD SWAP1 PUSH1 0x1 PUSH1 0x1 PUSH1 0xA0 SHL SUB DUP3 AND DUP3 SUB PUSH2 0x87B JUMPI JUMP JUMPDEST PUSH1 0x60 SWAP1 PUSH1 0x3 NOT ADD SLT PUSH2 0x87B JUMPI PUSH1 0x4 CALLDATALOAD SWAP1 PUSH1 0x1 PUSH1 0x1 PUSH1 0xA0 SHL SUB SWAP1 PUSH1 0x24 CALLDATALOAD DUP3 DUP2 AND DUP2 SUB PUSH2 0x87B JUMPI SWAP2 PUSH1 0x44 CALLDATALOAD SWAP1 DUP2 AND DUP2 SUB PUSH2 0x87B JUMPI SWAP1 JUMP JUMPDEST PUSH1 0x40 SWAP1 PUSH1 0x3 NOT ADD SLT PUSH2 0x87B JUMPI PUSH1 0x4 CALLDATALOAD SWAP1 PUSH1 0x24 CALLDATALOAD SWAP1 JUMP JUMPDEST PUSH1 0xA SLOAD DUP2 LT ISZERO PUSH2 0x4546 JUMPI PUSH1 0xA PUSH1 0x0 MSTORE PUSH1 0x20 PUSH1 0x0 KECCAK256 ADD SWAP1 PUSH1 0x0 SWAP1 JUMP JUMPDEST PUSH4 0x4E487B71 PUSH1 0xE0 SHL PUSH1 0x0 MSTORE PUSH1 0x32 PUSH1 0x4 MSTORE PUSH1 0x24 PUSH1 0x0 REVERT JUMPDEST DUP1 SLOAD DUP3 LT ISZERO PUSH2 0x4546 JUMPI PUSH1 0x0 MSTORE PUSH1 0x20 PUSH1 0x0 KECCAK256 ADD SWAP1 PUSH1 0x0 SWAP1 JUMP JUMPDEST PUSH1 0x20 SWAP1 DUP2 PUSH1 0x40 DUP2 DUP4 ADD SWAP3 DUP3 DUP2 MSTORE DUP6 MLOAD DUP1 SWAP5 MSTORE ADD SWAP4 ADD SWAP2 PUSH1 0x0 JUMPDEST DUP3 DUP2 LT PUSH2 0x459B JUMPI POP POP POP POP SWAP1 JUMP JUMPDEST DUP4 MLOAD DUP6 MSTORE SWAP4 DUP2 ADD SWAP4 SWAP3 DUP2 ADD SWAP3 PUSH1 0x1 ADD PUSH2 0x458D JUMP JUMPDEST PUSH1 0x0 JUMPDEST DUP4 DUP2 LT PUSH2 0x45C2 JUMPI POP POP PUSH1 0x0 SWAP2 ADD MSTORE JUMP JUMPDEST DUP2 DUP2 ADD MLOAD DUP4 DUP3 ADD MSTORE PUSH1 0x20 ADD PUSH2 0x45B2 JUMP JUMPDEST SWAP1 PUSH1 0x20 SWAP2 PUSH2 0x45EB DUP2 MLOAD DUP1 SWAP3 DUP2 DUP6 MSTORE DUP6 DUP1 DUP7 ADD SWAP2 ADD PUSH2 0x45AF JUMP JUMPDEST PUSH1 0x1F ADD PUSH1 0x1F NOT AND ADD ADD SWAP1 JUMP JUMPDEST SWAP1 PUSH1 0x5 DUP3 LT ISZERO PUSH2 0x4604 JUMPI MSTORE JUMP JUMPDEST PUSH4 0x4E487B71 PUSH1 0xE0 SHL PUSH1 0x0 MSTORE PUSH1 0x21 PUSH1 0x4 MSTORE PUSH1 0x24 PUSH1 0x0 REVERT JUMPDEST SWAP1 PUSH1 0x1 DUP1 PUSH1 0xA0 SHL SUB SWAP2 DUP3 DUP2 MLOAD AND DUP3 MSTORE PUSH2 0x4642 PUSH1 0x20 DUP3 ADD MLOAD PUSH2 0x1E0 DUP1 PUSH1 0x20 DUP7 ADD MSTORE DUP5 ADD SWAP1 PUSH2 0x45D2 JUMP JUMPDEST SWAP3 PUSH1 0x40 DUP3 ADD MLOAD ISZERO ISZERO PUSH1 0x40 DUP5 ADD MSTORE PUSH1 0x60 DUP3 ADD MLOAD PUSH1 0x60 DUP5 ADD MSTORE PUSH1 0x80 DUP3 ADD MLOAD AND PUSH1 0x80 DUP4 ADD MSTORE PUSH1 0xA0 DUP2 ADD MLOAD PUSH1 0xA0 DUP4 ADD MSTORE PUSH1 0xC0 DUP2 ADD MLOAD PUSH1 0xC0 DUP4 ADD MSTORE PUSH1 0xE0 DUP2 ADD MLOAD PUSH1 0xE0 DUP4 ADD MSTORE PUSH2 0x100 DUP1 DUP3 ADD MLOAD SWAP1 DUP4 ADD MSTORE PUSH2 0x120 DUP1 DUP3 ADD MLOAD SWAP1 DUP4 ADD MSTORE PUSH2 0x140 DUP1 DUP3 ADD MLOAD SWAP1 DUP4 ADD MSTORE PUSH2 0x160 DUP1 DUP3 ADD MLOAD SWAP1 DUP4 ADD MSTORE PUSH2 0x46C1 PUSH2 0x180 DUP1 DUP4 ADD MLOAD SWAP1 DUP5 ADD SWAP1 PUSH2 0x45F7 JUMP JUMPDEST PUSH2 0x1A0 DUP1 DUP3 ADD MLOAD SWAP1 DUP4 ADD MSTORE PUSH2 0x1C0 DUP1 SWAP2 ADD MLOAD ISZERO ISZERO SWAP2 ADD MSTORE SWAP1 JUMP JUMPDEST SWAP1 DUP2 MLOAD DUP1 DUP3 MSTORE PUSH1 0x20 DUP1 DUP1 SWAP4 ADD SWAP4 ADD SWAP2 PUSH1 0x0 JUMPDEST DUP3 DUP2 LT PUSH2 0x46FB JUMPI POP POP POP POP SWAP1 JUMP JUMPDEST DUP4 MLOAD PUSH1 0x1 PUSH1 0x1 PUSH1 0xA0 SHL SUB AND DUP6 MSTORE SWAP4 DUP2 ADD SWAP4 SWAP3 DUP2 ADD SWAP3 PUSH1 0x1 ADD PUSH2 0x46ED JUMP JUMPDEST PUSH1 0x1 PUSH1 0x1 PUSH1 0x40 SHL SUB DUP2 GT PUSH2 0x30C1 JUMPI PUSH1 0x40 MSTORE JUMP JUMPDEST PUSH2 0x1E0 DUP2 ADD SWAP1 DUP2 LT PUSH1 0x1 PUSH1 0x1 PUSH1 0x40 SHL SUB DUP3 GT OR PUSH2 0x30C1 JUMPI PUSH1 0x40 MSTORE JUMP JUMPDEST PUSH1 0x40 DUP2 ADD SWAP1 DUP2 LT PUSH1 0x1 PUSH1 0x1 PUSH1 0x40 SHL SUB DUP3 GT OR PUSH2 0x30C1 JUMPI PUSH1 0x40 MSTORE JUMP JUMPDEST PUSH1 0x1F SWAP1 SWAP2 ADD PUSH1 0x1F NOT AND DUP2 ADD SWAP1 PUSH1 0x1 PUSH1 0x1 PUSH1 0x40 SHL SUB DUP3 GT SWAP1 DUP3 LT OR PUSH2 0x30C1 JUMPI PUSH1 0x40 MSTORE JUMP JUMPDEST PUSH1 0x1 PUSH1 0x1 PUSH1 0x40 SHL SUB DUP2 GT PUSH2 0x30C1 JUMPI PUSH1 0x1F ADD PUSH1 0x1F NOT AND PUSH1 0x20 ADD SWAP1 JUMP JUMPDEST SWAP1 PUSH1 0x1 DUP3 DUP2 SHR SWAP3 AND DUP1 ISZERO PUSH2 0x47D0 JUMPI JUMPDEST PUSH1 0x20 DUP4 LT EQ PUSH2 0x47BA JUMPI JUMP JUMPDEST PUSH4 0x4E487B71 PUSH1 0xE0 SHL PUSH1 0x0 MSTORE PUSH1 0x22 PUSH1 0x4 MSTORE PUSH1 0x24 PUSH1 0x0 REVERT JUMPDEST SWAP2 PUSH1 0x7F AND SWAP2 PUSH2 0x47AF JUMP JUMPDEST SWAP1 PUSH1 0x40 MLOAD SWAP2 DUP3 PUSH1 0x0 DUP3 SLOAD SWAP3 PUSH2 0x47EE DUP5 PUSH2 0x47A0 JUMP JUMPDEST SWAP1 DUP2 DUP5 MSTORE PUSH1 0x1 SWAP5 DUP6 DUP2 AND SWAP1 DUP2 PUSH1 0x0 EQ PUSH2 0x485D JUMPI POP PUSH1 0x1 EQ PUSH2 0x481A JUMPI JUMPDEST POP POP PUSH2 0x4818 SWAP3 POP SUB DUP4 PUSH2 0x4762 JUMP JUMPDEST JUMP JUMPDEST SWAP1 SWAP4 SWAP2 POP PUSH1 0x0 MSTORE PUSH1 0x20 SWAP1 DUP2 PUSH1 0x0 KECCAK256 SWAP4 PUSH1 0x0 SWAP2 JUMPDEST DUP2 DUP4 LT PUSH2 0x4845 JUMPI POP POP PUSH2 0x4818 SWAP4 POP DUP3 ADD ADD CODESIZE DUP1 PUSH2 0x480A JUMP JUMPDEST DUP6 SLOAD DUP9 DUP5 ADD DUP6 ADD MSTORE SWAP5 DUP6 ADD SWAP5 DUP8 SWAP5 POP SWAP2 DUP4 ADD SWAP2 PUSH2 0x482D JUMP JUMPDEST SWAP2 POP POP PUSH2 0x4818 SWAP5 POP PUSH1 0x20 SWAP3 POP PUSH1 0xFF NOT AND DUP3 DUP5 ADD MSTORE ISZERO ISZERO PUSH1 0x5 SHL DUP3 ADD ADD CODESIZE DUP1 PUSH2 0x480A JUMP JUMPDEST PUSH1 0x0 SLOAD PUSH1 0x1 PUSH1 0x1 PUSH1 0xA0 SHL SUB AND CALLER SUB PUSH2 0x4894 JUMPI JUMP JUMPDEST PUSH1 0x40 MLOAD PUSH4 0x118CDAA7 PUSH1 0xE0 SHL DUP2 MSTORE CALLER PUSH1 0x4 DUP3 ADD MSTORE PUSH1 0x24 SWAP1 REVERT JUMPDEST MLOAD SWAP1 DUP2 ISZERO ISZERO DUP3 SUB PUSH2 0x87B JUMPI JUMP JUMPDEST ISZERO PUSH2 0x48C0 JUMPI JUMP JUMPDEST PUSH1 0x40 MLOAD PUSH3 0x461BCD PUSH1 0xE5 SHL DUP2 MSTORE PUSH1 0x20 PUSH1 0x4 DUP3 ADD MSTORE PUSH1 0x1D PUSH1 0x24 DUP3 ADD MSTORE PUSH32 0x4576656E74506F6F6C3A2057616C6C657420626C61636B6C6973746564000000 PUSH1 0x44 DUP3 ADD MSTORE PUSH1 0x64 SWAP1 REVERT JUMPDEST DUP2 DUP2 MUL SWAP3 SWAP2 DUP2 ISZERO SWAP2 DUP5 DIV EQ OR ISZERO PUSH2 0x4918 JUMPI JUMP JUMPDEST PUSH4 0x4E487B71 PUSH1 0xE0 SHL PUSH1 0x0 MSTORE PUSH1 0x11 PUSH1 0x4 MSTORE PUSH1 0x24 PUSH1 0x0 REVERT JUMPDEST SWAP2 SWAP1 DUP3 ADD DUP1 SWAP3 GT PUSH2 0x4918 JUMPI JUMP JUMPDEST PUSH1 0x0 NOT DUP2 EQ PUSH2 0x4918 JUMPI PUSH1 0x1 ADD SWAP1 JUMP JUMPDEST PUSH1 0x5 DUP3 LT ISZERO PUSH2 0x4604 JUMPI MSTORE JUMP JUMPDEST DUP2 DUP2 LT PUSH2 0x4961 JUMPI POP POP JUMP JUMPDEST PUSH1 0x0 DUP2 SSTORE PUSH1 0x1 ADD PUSH2 0x4956 JUMP JUMPDEST DUP1 SLOAD SWAP2 SWAP1 PUSH1 0x1 PUSH1 0x40 SHL DUP4 LT ISZERO PUSH2 0x30C1 JUMPI DUP3 PUSH2 0x2C79 SWAP2 PUSH1 0x1 PUSH2 0x4818 SWAP6 ADD DUP2 SSTORE PUSH2 0x455C JUMP JUMPDEST RETURNDATASIZE ISZERO PUSH2 0x49BB JUMPI RETURNDATASIZE SWAP1 PUSH2 0x49A1 DUP3 PUSH2 0x4785 JUMP JUMPDEST SWAP2 PUSH2 0x49AF PUSH1 0x40 MLOAD SWAP4 DUP5 PUSH2 0x4762 JUMP JUMPDEST DUP3 MSTORE RETURNDATASIZE PUSH1 0x0 PUSH1 0x20 DUP5 ADD RETURNDATACOPY JUMP JUMPDEST PUSH1 0x60 SWAP1 JUMP JUMPDEST ISZERO PUSH2 0x49C7 JUMPI JUMP JUMPDEST PUSH1 0x40 MLOAD PUSH3 0x461BCD PUSH1 0xE5 SHL DUP2 MSTORE PUSH1 0x20 PUSH1 0x4 DUP3 ADD MSTORE PUSH1 0x27 PUSH1 0x24 DUP3 ADD MSTORE PUSH32 0x4576656E74506F6F6C3A20466565207472616E7366657220746F206F776E6572 PUSH1 0x44 DUP3 ADD MSTORE PUSH7 0x819985A5B1959 PUSH1 0xCA SHL PUSH1 0x64 DUP3 ADD MSTORE PUSH1 0x84 SWAP1 REVERT JUMPDEST SWAP1 DUP2 MSTORE PUSH1 0x1 PUSH1 0x1 PUSH1 0xA0 SHL SUB SWAP2 DUP3 AND PUSH1 0x20 DUP3 ADD MSTORE SWAP2 AND PUSH1 0x40 DUP3 ADD MSTORE PUSH1 0x60 DUP2 ADD SWAP2 SWAP1 SWAP2 MSTORE PUSH1 0x80 DUP2 ADD SWAP2 SWAP1 SWAP2 MSTORE PUSH1 0xA0 ADD SWAP1 JUMP JUMPDEST MLOAD SWAP1 PUSH1 0x1 PUSH1 0x1 PUSH1 0xA0 SHL SUB DUP3 AND DUP3 SUB PUSH2 0x87B JUMPI JUMP JUMPDEST SWAP1 DUP2 MSTORE PUSH1 0x1 PUSH1 0x1 PUSH1 0xA0 SHL SUB SWAP1 SWAP2 AND PUSH1 0x20 DUP3 ADD MSTORE PUSH1 0x40 ADD SWAP1 JUMP JUMPDEST SWAP1 SWAP5 SWAP4 SWAP3 PUSH1 0x60 SWAP3 PUSH1 0x80 DUP4 ADD SWAP7 DUP4 MSTORE PUSH1 0x1 DUP1 PUSH1 0xA0 SHL SUB AND PUSH1 0x20 DUP4 ADD MSTORE PUSH1 0x40 DUP3 ADD MSTORE ADD MSTORE JUMP JUMPDEST PUSH1 0x1 PUSH1 0x1 PUSH1 0xA0 SHL SUB SWAP2 DUP3 AND DUP2 MSTORE SWAP2 AND PUSH1 0x20 DUP3 ADD MSTORE PUSH1 0x40 DUP2 ADD SWAP2 SWAP1 SWAP2 MSTORE PUSH1 0x60 ADD SWAP1 JUMP JUMPDEST SWAP3 SWAP1 PUSH1 0x0 SWAP2 PUSH2 0x4AF8 PUSH1 0x20 SWAP5 PUSH2 0x4AEA PUSH1 0x40 MLOAD SWAP4 DUP5 SWAP3 DUP9 DUP5 ADD SWAP7 PUSH4 0x23B872DD PUSH1 0xE0 SHL DUP9 MSTORE PUSH1 0x24 DUP6 ADD PUSH2 0x4A9D JUMP JUMPDEST SUB PUSH1 0x1F NOT DUP2 ADD DUP4 MSTORE DUP3 PUSH2 0x4762 JUMP JUMPDEST MLOAD SWAP1 DUP3 DUP6 GAS CALL ISZERO PUSH2 0x4B4B JUMPI PUSH1 0x0 MLOAD RETURNDATASIZE PUSH2 0x4B42 JUMPI POP PUSH1 0x1 PUSH1 0x1 PUSH1 0xA0 SHL SUB DUP2 AND EXTCODESIZE ISZERO JUMPDEST PUSH2 0x4B20 JUMPI POP JUMP JUMPDEST PUSH1 0x40 MLOAD PUSH4 0x5274AFE7 PUSH1 0xE0 SHL DUP2 MSTORE PUSH1 0x1 PUSH1 0x1 PUSH1 0xA0 SHL SUB SWAP1 SWAP2 AND PUSH1 0x4 DUP3 ADD MSTORE PUSH1 0x24 SWAP1 REVERT JUMPDEST PUSH1 0x1 EQ ISZERO PUSH2 0x4B19 JUMP JUMPDEST PUSH1 0x40 MLOAD RETURNDATASIZE PUSH1 0x0 DUP3 RETURNDATACOPY RETURNDATASIZE SWAP1 REVERT JUMPDEST ISZERO PUSH2 0x4B5E JUMPI JUMP JUMPDEST PUSH1 0x40 MLOAD PUSH3 0x461BCD PUSH1 0xE5 SHL DUP2 MSTORE PUSH1 0x20 PUSH1 0x4 DUP3 ADD MSTORE PUSH1 0x19 PUSH1 0x24 DUP3 ADD MSTORE PUSH25 0x115D995B9D141BDBDB0E8813585C9AD95D0819195B195D1959 PUSH1 0x3A SHL PUSH1 0x44 DUP3 ADD MSTORE PUSH1 0x64 SWAP1 REVERT JUMPDEST ISZERO PUSH2 0x4BA6 JUMPI JUMP JUMPDEST PUSH1 0x40 MLOAD PUSH3 0x461BCD PUSH1 0xE5 SHL DUP2 MSTORE PUSH1 0x20 PUSH1 0x4 DUP3 ADD MSTORE PUSH1 0x1C PUSH1 0x24 DUP3 ADD MSTORE PUSH28 0x4576656E74506F6F6C3A204D61726B6574206E6F7420616374697665 PUSH1 0x20 SHL PUSH1 0x44 DUP3 ADD MSTORE PUSH1 0x64 SWAP1 REVERT JUMPDEST SWAP2 SWAP1 DUP3 SUB SWAP2 DUP3 GT PUSH2 0x4918 JUMPI JUMP JUMPDEST ISZERO PUSH2 0x4BFE JUMPI JUMP JUMPDEST PUSH1 0x40 MLOAD PUSH3 0x461BCD PUSH1 0xE5 SHL DUP2 MSTORE PUSH1 0x20 PUSH1 0x4 DUP3 ADD MSTORE PUSH1 0x1F PUSH1 0x24 DUP3 ADD MSTORE PUSH32 0x4576656E74506F6F6C3A205374616B696E6720706572696F6420656E64656400 PUSH1 0x44 DUP3 ADD MSTORE PUSH1 0x64 SWAP1 REVERT JUMPDEST ISZERO PUSH2 0x4C4A JUMPI JUMP JUMPDEST PUSH1 0x40 MLOAD PUSH3 0x461BCD PUSH1 0xE5 SHL DUP2 MSTORE PUSH1 0x20 PUSH1 0x4 DUP3 ADD MSTORE PUSH1 0x19 PUSH1 0x24 DUP3 ADD MSTORE PUSH25 0x22BB32B73A2837B7B61D1024B73B30B634B21037B83A34B7B7 PUSH1 0x39 SHL PUSH1 0x44 DUP3 ADD MSTORE PUSH1 0x64 SWAP1 REVERT JUMPDEST ISZERO PUSH2 0x4C92 JUMPI JUMP JUMPDEST PUSH1 0x40 MLOAD PUSH3 0x461BCD PUSH1 0xE5 SHL DUP2 MSTORE PUSH1 0x20 PUSH1 0x4 DUP3 ADD MSTORE PUSH1 0x1E PUSH1 0x24 DUP3 ADD MSTORE PUSH32 0x4576656E74506F6F6C3A2042656C6F77206D696E696D756D207374616B650000 PUSH1 0x44 DUP3 ADD MSTORE PUSH1 0x64 SWAP1 REVERT JUMPDEST DUP1 SLOAD PUSH1 0x1 PUSH1 0x40 SHL DUP2 LT ISZERO PUSH2 0x30C1 JUMPI PUSH2 0x4CF4 SWAP2 PUSH1 0x1 DUP3 ADD DUP2 SSTORE PUSH2 0x455C JUMP JUMPDEST DUP2 SWAP3 SWAP2 SLOAD SWAP1 PUSH1 0x3 SHL SWAP2 PUSH1 0x1 DUP1 PUSH1 0xA0 SHL SUB DUP1 SWAP2 AND DUP4 SHL SWAP3 SHL NOT AND OR SWAP1 SSTORE JUMP JUMPDEST ISZERO PUSH2 0x4D19 JUMPI JUMP JUMPDEST PUSH1 0x40 MLOAD PUSH3 0x461BCD PUSH1 0xE5 SHL DUP2 MSTORE PUSH1 0x20 PUSH1 0x4 DUP3 ADD MSTORE PUSH1 0x30 PUSH1 0x24 DUP3 ADD MSTORE PUSH32 0x4576656E74506F6F6C3A20537570706F727420616D6F756E74206D7573742062 PUSH1 0x44 DUP3 ADD MSTORE PUSH16 0x652067726561746572207468616E203 PUSH1 0x84 SHL PUSH1 0x64 DUP3 ADD MSTORE PUSH1 0x84 SWAP1 REVERT JUMPDEST SWAP1 DUP2 MSTORE PUSH1 0x1 PUSH1 0x1 PUSH1 0xA0 SHL SUB SWAP2 DUP3 AND PUSH1 0x20 DUP3 ADD MSTORE SWAP2 AND PUSH1 0x40 DUP3 ADD MSTORE PUSH1 0x60 DUP2 ADD SWAP2 SWAP1 SWAP2 MSTORE PUSH1 0x80 ADD SWAP1 JUMP JUMPDEST SWAP1 DUP2 MSTORE PUSH1 0x1 PUSH1 0x1 PUSH1 0xA0 SHL SUB SWAP1 SWAP2 AND PUSH1 0x20 DUP3 ADD MSTORE PUSH1 0x40 DUP2 ADD SWAP2 SWAP1 SWAP2 MSTORE PUSH1 0x60 ADD SWAP1 JUMP JUMPDEST ISZERO PUSH2 0x4DC7 JUMPI JUMP JUMPDEST PUSH1 0x40 MLOAD PUSH3 0x461BCD PUSH1 0xE5 SHL DUP2 MSTORE PUSH1 0x20 PUSH1 0x4 DUP3 ADD MSTORE PUSH1 0x21 PUSH1 0x24 DUP3 ADD MSTORE PUSH32 0x4576656E74506F6F6C3A204E6F20737570706F727420746F2077697468647261 PUSH1 0x44 DUP3 ADD MSTORE PUSH1 0x77 PUSH1 0xF8 SHL PUSH1 0x64 DUP3 ADD MSTORE PUSH1 0x84 SWAP1 REVERT JUMPDEST SWAP1 DUP2 MSTORE PUSH1 0x1 PUSH1 0x1 PUSH1 0xA0 SHL SUB SWAP2 DUP3 AND PUSH1 0x20 DUP3 ADD MSTORE SWAP2 AND PUSH1 0x40 DUP3 ADD MSTORE PUSH1 0x60 ADD SWAP1 JUMP JUMPDEST ISZERO PUSH2 0x4E3D JUMPI JUMP JUMPDEST PUSH1 0x40 MLOAD PUSH3 0x461BCD PUSH1 0xE5 SHL DUP2 MSTORE PUSH1 0x20 PUSH1 0x4 DUP3 ADD MSTORE PUSH1 0x24 DUP1 DUP3 ADD MSTORE PUSH32 0x4576656E74506F6F6C3A204D61726B6574206E6F7420696E20656E6465642073 PUSH1 0x44 DUP3 ADD MSTORE PUSH4 0x74617465 PUSH1 0xE0 SHL PUSH1 0x64 DUP3 ADD MSTORE PUSH1 0x84 SWAP1 REVERT JUMPDEST ISZERO PUSH2 0x4E95 JUMPI JUMP JUMPDEST PUSH1 0x40 MLOAD PUSH3 0x461BCD PUSH1 0xE5 SHL DUP2 MSTORE PUSH1 0x20 PUSH1 0x4 DUP3 ADD MSTORE PUSH1 0x1B PUSH1 0x24 DUP3 ADD MSTORE PUSH27 0x115D995B9D141BDBDB0E88105B1C9958591E481C995CDBDB1D9959 PUSH1 0x2A SHL PUSH1 0x44 DUP3 ADD MSTORE PUSH1 0x64 SWAP1 REVERT JUMPDEST PUSH1 0x40 MLOAD SWAP1 PUSH2 0x4EE5 DUP3 PUSH2 0x4747 JUMP JUMPDEST PUSH1 0x19 DUP3 MSTORE PUSH25 0x14995CDBDB1D5D1A5BDB881C195C9A5BD908195E1C1A5C9959 PUSH1 0x3A SHL PUSH1 0x20 DUP4 ADD MSTORE JUMP JUMPDEST SWAP2 SWAP1 DUP3 PUSH1 0x40 SWAP2 SUB SLT PUSH2 0x87B JUMPI PUSH1 0x20 PUSH2 0x4F24 DUP4 PUSH2 0x48AC JUMP JUMPDEST SWAP3 ADD MLOAD SWAP1 JUMP JUMPDEST SWAP2 SWAP1 SWAP2 PUSH1 0x0 SWAP3 DUP2 DUP5 MSTORE PUSH1 0x20 SWAP1 PUSH1 0x1 DUP3 MSTORE PUSH1 0x40 DUP1 DUP7 KECCAK256 PUSH1 0xC DUP2 ADD PUSH1 0xFF DUP2 SLOAD AND PUSH1 0x5 DUP2 LT ISZERO PUSH2 0x120A JUMPI PUSH1 0x1 PUSH2 0x4F5D SWAP2 EQ PUSH2 0x4E36 JUMP JUMPDEST DUP4 ISZERO ISZERO DUP1 PUSH2 0x5259 JUMPI JUMPDEST ISZERO PUSH2 0x520B JUMPI PUSH1 0xE DUP3 ADD PUSH2 0x4F7D PUSH1 0xFF DUP3 SLOAD AND ISZERO PUSH2 0x4E8E JUMP JUMPDEST PUSH1 0xB DUP4 ADD SLOAD TIMESTAMP LT ISZERO PUSH2 0x51F7 JUMPI PUSH1 0x8 SLOAD DUP5 MLOAD PUSH4 0x4FFE2A8B PUSH1 0xE0 SHL DUP2 MSTORE PUSH1 0x1 PUSH1 0x1 PUSH1 0xA0 SHL SUB SWAP5 SWAP2 DUP9 SWAP1 DUP3 SWAP1 PUSH1 0x4 SWAP1 DUP3 SWAP1 DUP10 AND GAS STATICCALL SWAP1 DUP2 ISZERO PUSH2 0x51B0 JUMPI DUP6 SWAP2 DUP8 SWAP2 DUP14 SWAP2 PUSH2 0x51BA JUMPI JUMPDEST POP PUSH1 0x24 DUP12 DUP4 MLOAD SWAP5 DUP6 SWAP4 DUP5 SWAP3 PUSH4 0x33138655 PUSH1 0xE2 SHL DUP5 MSTORE PUSH1 0x4 DUP5 ADD MSTORE AND GAS STATICCALL DUP1 ISZERO PUSH2 0x51B0 JUMPI DUP8 SWAP1 DUP13 SWAP3 DUP14 SWAP2 PUSH2 0x518D JUMPI JUMPDEST POP DUP3 PUSH2 0x5183 JUMPI JUMPDEST POP POP ISZERO PUSH2 0x5120 JUMPI PUSH1 0xD ADD DUP6 SWAP1 SSTORE DUP1 SLOAD PUSH1 0xFF NOT SWAP1 DUP2 AND PUSH1 0x1 OR SWAP1 SWAP2 SSTORE DUP2 SLOAD AND PUSH1 0x2 OR SWAP1 SSTORE PUSH2 0x5023 DUP4 DUP7 PUSH2 0x5445 JUMP JUMPDEST PUSH2 0x502C DUP6 PUSH2 0x5689 JUMP JUMPDEST PUSH1 0x4 DUP5 DUP3 PUSH1 0x8 SLOAD AND DUP5 MLOAD SWAP3 DUP4 DUP1 SWAP3 PUSH4 0x406AD645 PUSH1 0xE1 SHL DUP3 MSTORE GAS STATICCALL SWAP1 DUP2 ISZERO PUSH2 0x5116 JUMPI DUP9 SWAP2 PUSH2 0x50E1 JUMPI JUMPDEST POP AND DUP1 PUSH2 0x5077 JUMPI JUMPDEST POP PUSH1 0x0 DUP1 MLOAD PUSH1 0x20 PUSH2 0x5EA3 DUP4 CODECOPY DUP2 MLOAD SWAP2 MSTORE SWAP4 SWAP5 SWAP6 POP MLOAD SWAP1 DUP2 MSTORE LOG2 JUMP JUMPDEST DUP1 DUP8 SWAP2 EXTCODESIZE ISZERO PUSH2 0x3D2 JUMPI DUP2 SWAP1 PUSH1 0x44 DUP5 MLOAD DUP1 SWAP5 DUP2 SWAP4 PUSH3 0xFF4A73 PUSH1 0xE8 SHL DUP4 MSTORE DUP11 PUSH1 0x4 DUP5 ADD MSTORE DUP9 PUSH1 0x24 DUP5 ADD MSTORE GAS CALL DUP1 ISZERO PUSH2 0x50D7 JUMPI PUSH1 0x0 DUP1 MLOAD PUSH1 0x20 PUSH2 0x5EA3 DUP4 CODECOPY DUP2 MLOAD SWAP2 MSTORE SWAP6 SWAP7 SWAP8 POP PUSH2 0x50C8 JUMPI JUMPDEST DUP7 SWAP6 SWAP5 POP PUSH2 0x505C JUMP JUMPDEST PUSH2 0x50D1 SWAP1 PUSH2 0x4718 JUMP JUMPDEST CODESIZE PUSH2 0x50BF JUMP JUMPDEST DUP3 MLOAD RETURNDATASIZE DUP10 DUP3 RETURNDATACOPY RETURNDATASIZE SWAP1 REVERT JUMPDEST SWAP1 POP DUP5 DUP2 DUP2 RETURNDATASIZE DUP4 GT PUSH2 0x510F JUMPI JUMPDEST PUSH2 0x50F8 DUP2 DUP4 PUSH2 0x4762 JUMP JUMPDEST DUP2 ADD SUB SLT PUSH2 0x8C1 JUMPI PUSH2 0x5109 SWAP1 PUSH2 0x4A4C JUMP JUMPDEST CODESIZE PUSH2 0x5054 JUMP JUMPDEST POP RETURNDATASIZE PUSH2 0x50EE JUMP JUMPDEST DUP4 MLOAD RETURNDATASIZE DUP11 DUP3 RETURNDATACOPY RETURNDATASIZE SWAP1 REVERT JUMPDEST DUP5 MLOAD PUSH3 0x461BCD PUSH1 0xE5 SHL DUP2 MSTORE PUSH1 0x4 DUP2 ADD DUP9 SWAP1 MSTORE PUSH1 0x36 PUSH1 0x24 DUP3 ADD MSTORE PUSH32 0x4576656E74506F6F6C3A20496E73756666696369656E74207665726966696572 PUSH1 0x44 DUP3 ADD MSTORE PUSH22 0x103B37BA32B9903337B9103A3434B99037B83A34B7B7 PUSH1 0x51 SHL PUSH1 0x64 DUP3 ADD MSTORE PUSH1 0x84 SWAP1 REVERT JUMPDEST EQ SWAP1 POP DUP7 CODESIZE PUSH2 0x4FF6 JUMP JUMPDEST SWAP1 POP PUSH2 0x51A7 SWAP2 SWAP3 POP DUP8 RETURNDATASIZE DUP10 GT PUSH2 0x206B JUMPI PUSH2 0x205B DUP2 DUP4 PUSH2 0x4762 JUMP JUMPDEST SWAP2 SWAP1 SWAP2 CODESIZE PUSH2 0x4FEF JUMP JUMPDEST DUP7 MLOAD RETURNDATASIZE DUP14 DUP3 RETURNDATACOPY RETURNDATASIZE SWAP1 REVERT JUMPDEST SWAP3 POP POP POP DUP8 DUP2 DUP2 RETURNDATASIZE DUP4 GT PUSH2 0x51F0 JUMPI JUMPDEST PUSH2 0x51D3 DUP2 DUP4 PUSH2 0x4762 JUMP JUMPDEST DUP2 ADD SUB SLT PUSH2 0x51EC JUMPI DUP6 PUSH2 0x51E6 DUP7 SWAP3 PUSH2 0x4A4C JUMP JUMPDEST CODESIZE PUSH2 0x4FC1 JUMP JUMPDEST DUP11 DUP1 REVERT JUMPDEST POP RETURNDATASIZE PUSH2 0x51C9 JUMP JUMPDEST POP POP POP POP POP POP PUSH2 0x4818 SWAP2 SWAP3 POP PUSH2 0x234D PUSH2 0x4ED8 JUMP JUMPDEST DUP3 MLOAD PUSH3 0x461BCD PUSH1 0xE5 SHL DUP2 MSTORE PUSH1 0x4 DUP2 ADD DUP7 SWAP1 MSTORE PUSH1 0x21 PUSH1 0x24 DUP3 ADD MSTORE PUSH32 0x4576656E74506F6F6C3A20496E76616C69642077696E6E696E67206F7074696F PUSH1 0x44 DUP3 ADD MSTORE PUSH1 0x37 PUSH1 0xF9 SHL PUSH1 0x64 DUP3 ADD MSTORE PUSH1 0x84 SWAP1 REVERT JUMPDEST POP PUSH1 0x3 DUP3 ADD SLOAD DUP5 GT ISZERO PUSH2 0x4F66 JUMP JUMPDEST ISZERO PUSH2 0x526E JUMPI JUMP JUMPDEST PUSH1 0x40 MLOAD PUSH3 0x461BCD PUSH1 0xE5 SHL DUP2 MSTORE PUSH1 0x20 PUSH1 0x4 DUP3 ADD MSTORE PUSH1 0x1E PUSH1 0x24 DUP3 ADD MSTORE PUSH32 0x4576656E74506F6F6C3A204D61726B6574206E6F74207265736F6C7665640000 PUSH1 0x44 DUP3 ADD MSTORE PUSH1 0x64 SWAP1 REVERT JUMPDEST ISZERO PUSH2 0x52BA JUMPI JUMP JUMPDEST PUSH1 0x40 MLOAD PUSH3 0x461BCD PUSH1 0xE5 SHL DUP2 MSTORE PUSH1 0x20 PUSH1 0x4 DUP3 ADD MSTORE PUSH1 0x1C PUSH1 0x24 DUP3 ADD MSTORE PUSH28 0x22BB32B73A2837B7B61D102737903BB4B73734B7339037B83A34B7B7 PUSH1 0x21 SHL PUSH1 0x44 DUP3 ADD MSTORE PUSH1 0x64 SWAP1 REVERT JUMPDEST ISZERO PUSH2 0x5305 JUMPI JUMP JUMPDEST PUSH1 0x40 MLOAD PUSH3 0x461BCD PUSH1 0xE5 SHL DUP2 MSTORE PUSH1 0x20 PUSH1 0x4 DUP3 ADD MSTORE PUSH1 0x1A PUSH1 0x24 DUP3 ADD MSTORE PUSH26 0x115D995B9D141BDBDB0E88139BC81CDD185AD9481C1B1858D959 PUSH1 0x32 SHL PUSH1 0x44 DUP3 ADD MSTORE PUSH1 0x64 SWAP1 REVERT JUMPDEST ISZERO PUSH2 0x534E JUMPI JUMP JUMPDEST PUSH1 0x40 MLOAD PUSH3 0x461BCD PUSH1 0xE5 SHL DUP2 MSTORE PUSH1 0x20 PUSH1 0x4 DUP3 ADD MSTORE PUSH1 0x1A PUSH1 0x24 DUP3 ADD MSTORE PUSH26 0x115D995B9D141BDBDB0E88105B1C9958591E4818DB185A5B5959 PUSH1 0x32 SHL PUSH1 0x44 DUP3 ADD MSTORE PUSH1 0x64 SWAP1 REVERT JUMPDEST SWAP1 DUP2 MSTORE PUSH1 0x20 DUP2 ADD SWAP2 SWAP1 SWAP2 MSTORE PUSH1 0x1 PUSH1 0x1 PUSH1 0xA0 SHL SUB SWAP1 SWAP2 AND PUSH1 0x40 DUP3 ADD MSTORE PUSH1 0x60 ADD SWAP1 JUMP JUMPDEST DUP2 ISZERO PUSH2 0x53BB JUMPI DIV SWAP1 JUMP JUMPDEST PUSH4 0x4E487B71 PUSH1 0xE0 SHL PUSH1 0x0 MSTORE PUSH1 0x12 PUSH1 0x4 MSTORE PUSH1 0x24 PUSH1 0x0 REVERT JUMPDEST SWAP1 PUSH2 0x5415 PUSH1 0x0 DUP1 MLOAD PUSH1 0x20 PUSH2 0x5E63 DUP4 CODECOPY DUP2 MLOAD SWAP2 MSTORE SWAP2 DUP4 PUSH1 0x0 MSTORE PUSH1 0x1 PUSH1 0x20 MSTORE PUSH1 0xC PUSH1 0x40 PUSH1 0x0 KECCAK256 ADD PUSH1 0x3 PUSH1 0xFF NOT DUP3 SLOAD AND OR SWAP1 SSTORE PUSH1 0x40 MLOAD SWAP2 DUP3 SWAP2 PUSH1 0x20 DUP4 MSTORE PUSH1 0x20 DUP4 ADD SWAP1 PUSH2 0x45D2 JUMP JUMPDEST SUB SWAP1 LOG2 JUMP JUMPDEST PUSH1 0x1 PUSH1 0x1 PUSH1 0x40 SHL SUB DUP2 GT PUSH2 0x30C1 JUMPI PUSH1 0x5 SHL PUSH1 0x20 ADD SWAP1 JUMP JUMPDEST DUP1 MLOAD DUP3 LT ISZERO PUSH2 0x4546 JUMPI PUSH1 0x20 SWAP2 PUSH1 0x5 SHL ADD ADD SWAP1 JUMP JUMPDEST PUSH1 0x8 SLOAD PUSH1 0x40 DUP1 MLOAD PUSH4 0x4FFE2A8B PUSH1 0xE0 SHL DUP2 MSTORE SWAP1 SWAP5 SWAP4 SWAP2 PUSH1 0x1 PUSH1 0x1 PUSH1 0xA0 SHL SUB SWAP2 PUSH1 0x20 SWAP2 PUSH1 0x4 SWAP2 SWAP1 DUP4 SWAP1 DUP3 SWAP1 DUP5 SWAP1 DUP3 SWAP1 DUP9 AND GAS STATICCALL DUP1 ISZERO PUSH2 0x5663 JUMPI DUP5 SWAP2 PUSH1 0x0 SWAP2 PUSH2 0x562C JUMPI JUMPDEST POP DUP9 MLOAD PUSH4 0x549AF3B3 PUSH1 0xE1 SHL DUP2 MSTORE SWAP6 SWAP2 AND PUSH1 0x0 DUP7 DUP5 DUP2 DUP5 GAS STATICCALL SWAP6 DUP7 ISZERO PUSH2 0x5621 JUMPI PUSH1 0x0 SWAP7 PUSH2 0x5587 JUMPI JUMPDEST POP PUSH1 0x0 JUMPDEST DUP7 MLOAD DUP2 LT ISZERO PUSH2 0x557B JUMPI DUP10 DUP6 DUP5 DUP11 PUSH2 0x54E7 DUP11 PUSH2 0x54CC DUP8 DUP15 PUSH2 0x5431 JUMP JUMPDEST MLOAD AND SWAP5 MLOAD SWAP5 DUP6 SWAP4 DUP5 SWAP4 PUSH4 0x21DC9B59 PUSH1 0xE2 SHL DUP6 MSTORE DUP12 DUP6 ADD PUSH2 0x5390 JUMP JUMPDEST SUB DUP2 DUP7 GAS STATICCALL SWAP1 DUP2 ISZERO PUSH2 0x5570 JUMPI PUSH1 0x0 SWAP2 PUSH2 0x5536 JUMPI JUMPDEST POP SWAP1 PUSH2 0x550A SWAP2 PUSH2 0x550F JUMPI PUSH2 0x493B JUMP JUMPDEST PUSH2 0x54B1 JUMP JUMPDEST DUP9 PUSH1 0x0 MSTORE PUSH1 0xD DUP7 MSTORE PUSH2 0x5531 DUP12 PUSH1 0x0 KECCAK256 DUP9 PUSH2 0x5529 DUP5 DUP13 PUSH2 0x5431 JUMP JUMPDEST MLOAD AND SWAP1 PUSH2 0x4CD7 JUMP JUMPDEST PUSH2 0x493B JUMP JUMPDEST SWAP1 DUP7 DUP3 DUP2 RETURNDATASIZE DUP4 GT PUSH2 0x5569 JUMPI JUMPDEST PUSH2 0x554C DUP2 DUP4 PUSH2 0x4762 JUMP JUMPDEST DUP2 ADD SUB SLT PUSH2 0x28A JUMPI POP SWAP1 PUSH2 0x5562 PUSH2 0x550A SWAP3 PUSH2 0x48AC JUMP JUMPDEST SWAP1 SWAP2 PUSH2 0x54FB JUMP JUMPDEST POP RETURNDATASIZE PUSH2 0x5542 JUMP JUMPDEST DUP12 MLOAD RETURNDATASIZE PUSH1 0x0 DUP3 RETURNDATACOPY RETURNDATASIZE SWAP1 REVERT JUMPDEST POP POP POP POP POP POP POP POP SWAP1 POP JUMP JUMPDEST SWAP6 SWAP1 SWAP6 RETURNDATASIZE DUP1 DUP4 DUP4 RETURNDATACOPY PUSH2 0x5599 DUP2 DUP4 PUSH2 0x4762 JUMP JUMPDEST DUP2 ADD SWAP1 DUP6 DUP2 DUP4 SUB SLT PUSH2 0x6C4 JUMPI DUP1 MLOAD SWAP1 PUSH1 0x1 PUSH1 0x1 PUSH1 0x40 SHL SUB DUP3 GT PUSH2 0x687 JUMPI ADD DUP2 PUSH1 0x1F DUP3 ADD SLT ISZERO PUSH2 0x6C4 JUMPI DUP1 MLOAD SWAP1 PUSH2 0x55CE DUP3 PUSH2 0x541A JUMP JUMPDEST SWAP4 PUSH2 0x55DB DUP14 MLOAD SWAP6 DUP7 PUSH2 0x4762 JUMP JUMPDEST DUP3 DUP6 MSTORE DUP8 DUP1 DUP7 ADD SWAP4 PUSH1 0x5 SHL DUP4 ADD ADD SWAP4 DUP5 GT PUSH2 0x28A JUMPI POP DUP7 DUP1 SWAP2 ADD SWAP2 JUMPDEST DUP4 DUP4 LT PUSH2 0x5609 JUMPI POP POP POP POP SWAP5 CODESIZE PUSH2 0x54AD JUMP JUMPDEST DUP2 SWAP1 PUSH2 0x5614 DUP5 PUSH2 0x4A4C JUMP JUMPDEST DUP2 MSTORE ADD SWAP2 ADD SWAP1 DUP7 SWAP1 PUSH2 0x55F7 JUMP JUMPDEST DUP10 MLOAD RETURNDATASIZE PUSH1 0x0 DUP3 RETURNDATACOPY RETURNDATASIZE SWAP1 REVERT JUMPDEST SWAP2 POP DUP4 DUP3 DUP2 RETURNDATASIZE DUP4 GT PUSH2 0x565C JUMPI JUMPDEST PUSH2 0x5643 DUP2 DUP4 PUSH2 0x4762 JUMP JUMPDEST DUP2 ADD SUB SLT PUSH2 0x28A JUMPI POP PUSH2 0x5656 DUP5 SWAP2 PUSH2 0x4A4C JUMP JUMPDEST CODESIZE PUSH2 0x5486 JUMP JUMPDEST POP RETURNDATASIZE PUSH2 0x5639 JUMP JUMPDEST DUP9 MLOAD RETURNDATASIZE PUSH1 0x0 DUP3 RETURNDATACOPY RETURNDATASIZE SWAP1 REVERT JUMPDEST PUSH1 0x1 PUSH1 0x1 PUSH1 0xA0 SHL SUB SWAP1 SWAP2 AND DUP2 MSTORE PUSH1 0x20 DUP2 ADD SWAP2 SWAP1 SWAP2 MSTORE PUSH1 0x40 ADD SWAP1 JUMP JUMPDEST PUSH1 0x0 SWAP1 DUP1 DUP3 MSTORE PUSH1 0x20 SWAP1 PUSH1 0x1 DUP3 MSTORE PUSH1 0x40 SWAP2 DUP3 DUP5 KECCAK256 SWAP1 DUP5 SWAP1 PUSH1 0x1 SWAP3 PUSH1 0x3 DUP2 ADD SLOAD PUSH1 0xD DUP3 ADD SLOAD SWAP5 JUMPDEST DUP2 DUP2 GT ISZERO PUSH2 0x5BB3 JUMPI POP POP PUSH1 0x1 DUP1 PUSH1 0xA0 SHL SUB SWAP4 DUP5 SWAP3 PUSH1 0x7 SWAP7 DUP5 DUP9 SLOAD AND SWAP2 PUSH2 0x56F5 DUP11 PUSH1 0x4 SWAP9 DUP4 DUP6 DUP12 DUP1 DUP12 ADD SWAP14 DUP15 SLOAD AND SWAP6 DUP7 SWAP6 MLOAD SWAP6 DUP7 SWAP4 DUP5 SWAP4 PUSH4 0x4F44289D PUSH1 0xE0 SHL DUP6 MSTORE DUP5 ADD PUSH2 0x4A60 JUMP JUMPDEST SUB DUP2 DUP10 GAS STATICCALL SWAP2 DUP3 ISZERO PUSH2 0x5B23 JUMPI DUP14 SWAP5 SWAP4 SWAP3 DUP16 SWAP3 DUP13 SWAP3 DUP9 SWAP5 SWAP3 PUSH2 0x5B76 JUMPI JUMPDEST POP DUP5 PUSH2 0x5723 DUP8 SWAP6 SWAP5 SWAP4 PUSH2 0x573B SWAP4 PUSH2 0x492E JUMP JUMPDEST SWAP8 MLOAD PUSH4 0xDC4CE349 PUSH1 0xE0 SHL DUP2 MSTORE SWAP11 DUP12 SWAP5 DUP6 SWAP5 DUP6 ADD PUSH2 0x5390 JUMP JUMPDEST SUB DUP2 DUP9 GAS STATICCALL SWAP6 DUP7 ISZERO PUSH2 0x5B6C JUMPI DUP13 DUP11 SWAP2 DUP16 SWAP9 PUSH2 0x5B2F JUMPI JUMPDEST POP DUP6 DUP4 SWAP3 PUSH2 0x5771 DUP7 SWAP4 MLOAD SWAP5 DUP6 SWAP4 DUP5 SWAP4 PUSH4 0x3D1E7BA1 PUSH1 0xE1 SHL DUP6 MSTORE DUP5 ADD PUSH2 0x4A60 JUMP JUMPDEST SUB DUP2 DUP10 GAS STATICCALL SWAP3 DUP4 ISZERO PUSH2 0x5B23 JUMPI DUP15 SWAP4 PUSH2 0x5AF3 JUMPI JUMPDEST POP POP PUSH2 0x15E SWAP5 DUP6 DUP4 MUL SWAP4 DUP4 ISZERO SWAP7 DUP5 DUP7 DIV EQ DUP8 OR ISZERO PUSH2 0x5AE0 JUMPI PUSH2 0x2710 DUP1 SWAP6 DIV SWAP5 PUSH1 0x96 DUP6 MUL DUP6 DUP2 DIV PUSH1 0x96 EQ DUP10 OR ISZERO PUSH2 0x5ACB JUMPI DUP2 SWAP1 DIV SWAP8 PUSH2 0x1F4 SWAP1 DUP2 DUP8 MUL SWAP2 DUP8 DUP4 DIV EQ OR ISZERO PUSH2 0x5ACB JUMPI DIV SWAP8 PUSH2 0x595A JUMPI POP POP POP PUSH2 0x57F0 SWAP1 PUSH2 0x57EA DUP7 PUSH2 0x57E5 DUP8 DUP7 PUSH2 0x492E JUMP JUMPDEST PUSH2 0x492E JUMP JUMPDEST SWAP1 PUSH2 0x4BEA JUMP JUMPDEST SWAP5 DUP2 PUSH2 0x58ED JUMPI JUMPDEST POP POP DUP2 PUSH2 0x5886 JUMPI JUMPDEST POP POP SWAP1 PUSH2 0x580B SWAP2 PUSH2 0x492E JUMP JUMPDEST SWAP4 DUP5 PUSH2 0x581B JUMPI JUMPDEST POP POP POP POP POP POP POP JUMP JUMPDEST DUP2 SWAP1 SLOAD AND SWAP3 SLOAD AND SWAP1 DUP3 EXTCODESIZE ISZERO PUSH2 0xDC6 JUMPI SWAP2 DUP5 SWAP4 SWAP2 DUP7 DUP1 SWAP5 PUSH2 0x584E SWAP8 MLOAD SWAP8 DUP9 SWAP6 DUP7 SWAP5 DUP6 SWAP4 PUSH4 0xF0824F33 PUSH1 0xE0 SHL DUP6 MSTORE DUP5 ADD PUSH2 0x566E JUMP JUMPDEST SUB SWAP3 GAS CALL SWAP1 DUP2 ISZERO PUSH2 0x587D JUMPI POP PUSH2 0x5869 JUMPI JUMPDEST DUP1 DUP1 DUP1 DUP1 DUP1 PUSH2 0x5812 JUMP JUMPDEST PUSH2 0x5873 DUP3 SWAP2 PUSH2 0x4718 JUMP JUMPDEST PUSH2 0x28A JUMPI DUP1 PUSH2 0x585F JUMP JUMPDEST MLOAD RETURNDATASIZE DUP5 DUP3 RETURNDATACOPY RETURNDATASIZE SWAP1 REVERT JUMPDEST DUP5 DUP9 SLOAD AND DUP6 DUP9 SLOAD AND SWAP2 DUP2 EXTCODESIZE ISZERO PUSH2 0x58E9 JUMPI SWAP1 DUP12 SWAP3 SWAP2 DUP4 DUP10 PUSH2 0x58B9 DUP15 MLOAD SWAP8 DUP9 SWAP7 DUP8 SWAP6 DUP7 SWAP5 PUSH4 0x3AFB1F3F PUSH1 0xE1 SHL DUP7 MSTORE DUP6 ADD PUSH2 0x4D9F JUMP JUMPDEST SUB SWAP3 GAS CALL DUP1 ISZERO PUSH2 0x58DF JUMPI SWAP1 DUP10 SWAP2 ISZERO PUSH2 0x57FF JUMPI PUSH2 0x58D4 SWAP1 PUSH2 0x4718 JUMP JUMPDEST PUSH2 0x8C1 JUMPI DUP8 CODESIZE PUSH2 0x57FF JUMP JUMPDEST DUP9 MLOAD RETURNDATASIZE DUP12 DUP3 RETURNDATACOPY RETURNDATASIZE SWAP1 REVERT JUMPDEST DUP12 DUP1 REVERT JUMPDEST DUP7 DUP1 DUP12 SLOAD AND SWAP2 SLOAD AND SWAP1 DUP8 DUP11 SLOAD AND SWAP2 DUP2 EXTCODESIZE ISZERO PUSH2 0x5956 JUMPI SWAP1 DUP14 SWAP3 SWAP2 DUP4 DUP12 DUP16 PUSH2 0x5926 SWAP1 MLOAD SWAP8 DUP9 SWAP7 DUP8 SWAP6 DUP7 SWAP5 PUSH4 0x112CD223 PUSH1 0xE0 SHL DUP7 MSTORE DUP6 ADD PUSH2 0x4A9D JUMP JUMPDEST SUB SWAP3 GAS CALL DUP1 ISZERO PUSH2 0x594C JUMPI SWAP1 DUP12 SWAP2 ISZERO PUSH2 0x57F7 JUMPI PUSH2 0x5941 SWAP1 PUSH2 0x4718 JUMP JUMPDEST PUSH2 0x20B0 JUMPI DUP10 CODESIZE PUSH2 0x57F7 JUMP JUMPDEST DUP11 MLOAD RETURNDATASIZE DUP14 DUP3 RETURNDATACOPY RETURNDATASIZE SWAP1 REVERT JUMPDEST DUP14 DUP1 REVERT JUMPDEST SWAP1 SWAP3 POP SWAP11 SWAP7 SWAP1 SWAP3 SWAP4 SWAP5 SWAP6 SWAP11 PUSH2 0x5979 JUMPI JUMPDEST POP POP POP POP POP POP POP POP POP POP POP POP POP JUMP JUMPDEST DUP8 SWAP1 DUP5 PUSH2 0x5A66 JUMPI JUMPDEST POP POP POP POP POP DUP2 PUSH2 0x5A01 JUMPI JUMPDEST POP POP DUP5 PUSH2 0x599F JUMPI JUMPDEST DUP1 DUP1 DUP1 DUP1 DUP1 DUP1 PUSH2 0x596A JUMP JUMPDEST DUP2 SWAP1 SLOAD AND SWAP3 SLOAD AND SWAP1 DUP3 EXTCODESIZE ISZERO PUSH2 0xDC6 JUMPI SWAP2 DUP5 SWAP4 SWAP2 DUP7 DUP1 SWAP5 PUSH2 0x59D2 SWAP8 MLOAD SWAP8 DUP9 SWAP6 DUP7 SWAP5 DUP6 SWAP4 PUSH4 0x48FEF595 PUSH1 0xE0 SHL DUP6 MSTORE DUP5 ADD PUSH2 0x566E JUMP JUMPDEST SUB SWAP3 GAS CALL SWAP1 DUP2 ISZERO PUSH2 0x587D JUMPI POP PUSH2 0x59ED JUMPI JUMPDEST DUP1 DUP1 DUP1 DUP1 DUP1 PUSH2 0x5994 JUMP JUMPDEST PUSH2 0x59F7 DUP3 SWAP2 PUSH2 0x4718 JUMP JUMPDEST PUSH2 0x28A JUMPI DUP1 PUSH2 0x59E3 JUMP JUMPDEST DUP4 DUP4 SLOAD AND SWAP1 DUP5 DUP8 SLOAD AND SWAP1 DUP3 EXTCODESIZE ISZERO PUSH2 0x51EC JUMPI SWAP2 PUSH2 0x5A36 SWAP4 SWAP2 DUP12 DUP1 SWAP5 DUP13 MLOAD SWAP7 DUP8 SWAP6 DUP7 SWAP5 DUP6 SWAP4 PUSH4 0x3AFB1F3F PUSH1 0xE1 SHL DUP6 MSTORE DUP14 DUP6 ADD PUSH2 0x4D9F JUMP JUMPDEST SUB SWAP3 GAS CALL DUP1 ISZERO PUSH2 0x5A5C JUMPI SWAP1 DUP9 SWAP2 ISZERO PUSH2 0x598C JUMPI PUSH2 0x5A51 SWAP1 PUSH2 0x4718 JUMP JUMPDEST PUSH2 0x91A JUMPI DUP7 CODESIZE PUSH2 0x598C JUMP JUMPDEST DUP8 MLOAD RETURNDATASIZE DUP11 DUP3 RETURNDATACOPY RETURNDATASIZE SWAP1 REVERT JUMPDEST SLOAD AND DUP2 EXTCODESIZE ISZERO PUSH2 0x5AC7 JUMPI SWAP1 DUP13 SWAP3 SWAP2 DUP4 DUP11 PUSH2 0x5A92 DUP16 MLOAD SWAP8 DUP9 SWAP7 DUP8 SWAP6 DUP7 SWAP5 PUSH4 0x112CD223 PUSH1 0xE0 SHL DUP7 MSTORE DUP6 ADD PUSH2 0x4A9D JUMP JUMPDEST SUB SWAP3 GAS CALL DUP1 ISZERO PUSH2 0x5ABD JUMPI PUSH2 0x5AAA JUMPI JUMPDEST DUP1 DUP1 DUP7 DUP2 PUSH2 0x5981 JUMP JUMPDEST PUSH2 0x5AB6 SWAP1 SWAP10 SWAP2 SWAP10 PUSH2 0x4718 JUMP JUMPDEST SWAP8 CODESIZE PUSH2 0x5AA1 JUMP JUMPDEST DUP10 MLOAD RETURNDATASIZE DUP13 DUP3 RETURNDATACOPY RETURNDATASIZE SWAP1 REVERT JUMPDEST DUP13 DUP1 REVERT JUMPDEST POP POP PUSH4 0x4E487B71 PUSH1 0xE0 SHL DUP16 MSTORE PUSH1 0x11 DUP12 MSTORE PUSH1 0x24 DUP16 REVERT JUMPDEST PUSH4 0x4E487B71 PUSH1 0xE0 SHL DUP16 MSTORE PUSH1 0x11 DUP12 MSTORE PUSH1 0x24 DUP16 REVERT JUMPDEST SWAP1 DUP1 SWAP3 SWAP4 POP DUP2 RETURNDATASIZE DUP4 GT PUSH2 0x5B1C JUMPI JUMPDEST PUSH2 0x5B0B DUP2 DUP4 PUSH2 0x4762 JUMP JUMPDEST DUP2 ADD SUB SLT PUSH2 0x5AC7 JUMPI MLOAD SWAP1 CODESIZE DUP1 PUSH2 0x5784 JUMP JUMPDEST POP RETURNDATASIZE PUSH2 0x5B01 JUMP JUMPDEST DUP15 DUP15 MLOAD SWAP1 RETURNDATASIZE SWAP1 DUP3 RETURNDATACOPY RETURNDATASIZE SWAP1 REVERT JUMPDEST SWAP3 SWAP4 DUP1 SWAP6 SWAP7 SWAP8 SWAP9 POP DUP1 SWAP3 POP DUP4 SWAP2 POP RETURNDATASIZE DUP4 GT PUSH2 0x5B65 JUMPI JUMPDEST PUSH2 0x5B4F DUP2 DUP4 PUSH2 0x4762 JUMP JUMPDEST DUP2 ADD SUB SLT PUSH2 0x5AC7 JUMPI MLOAD SWAP5 SWAP4 SWAP3 SWAP2 SWAP1 DUP9 DUP13 DUP6 PUSH2 0x5751 JUMP JUMPDEST POP RETURNDATASIZE PUSH2 0x5B45 JUMP JUMPDEST DUP13 MLOAD RETURNDATASIZE DUP16 DUP3 RETURNDATACOPY RETURNDATASIZE SWAP1 REVERT JUMPDEST SWAP4 POP SWAP4 SWAP5 DUP1 SWAP7 POP DUP1 SWAP3 POP DUP4 SWAP2 POP RETURNDATASIZE DUP4 GT PUSH2 0x5BAC JUMPI JUMPDEST PUSH2 0x5B95 DUP2 DUP4 PUSH2 0x4762 JUMP JUMPDEST DUP2 ADD SUB SLT PUSH2 0x5956 JUMPI MLOAD DUP13 SWAP4 SWAP3 SWAP2 DUP6 SWAP2 DUP12 SWAP2 DUP5 PUSH2 0x5711 JUMP JUMPDEST POP RETURNDATASIZE PUSH2 0x5B8B JUMP JUMPDEST DUP6 DUP2 SUB PUSH2 0x5BC9 JUMPI JUMPDEST PUSH2 0x5BC4 SWAP1 PUSH2 0x493B JUMP JUMPDEST PUSH2 0x56AE JUMP JUMPDEST SWAP4 DUP8 DUP5 DUP7 PUSH1 0x1 DUP1 PUSH1 0xA0 SHL SUB DUP11 DUP2 PUSH1 0x7 SLOAD AND SWAP2 PUSH2 0x5C00 PUSH1 0x4 SWAP2 DUP3 DUP12 ADD SLOAD AND SWAP7 MLOAD SWAP7 DUP8 SWAP6 DUP7 SWAP5 DUP6 SWAP5 PUSH4 0xDC4CE349 PUSH1 0xE0 SHL DUP7 MSTORE DUP6 ADD PUSH2 0x5390 JUMP JUMPDEST SUB SWAP2 GAS STATICCALL SWAP1 DUP2 ISZERO PUSH2 0x5ABD JUMPI DUP11 SWAP2 PUSH2 0x5C28 JUMPI JUMPDEST POP PUSH2 0x5C20 SWAP1 PUSH2 0x5BC4 SWAP3 PUSH2 0x492E JUMP JUMPDEST SWAP5 SWAP1 POP PUSH2 0x5BBB JUMP JUMPDEST SWAP1 POP DUP5 DUP2 DUP2 RETURNDATASIZE DUP4 GT PUSH2 0x5C50 JUMPI JUMPDEST PUSH2 0x5C3F DUP2 DUP4 PUSH2 0x4762 JUMP JUMPDEST DUP2 ADD SUB SLT PUSH2 0x20B0 JUMPI MLOAD PUSH2 0x5BC4 PUSH2 0x5C12 JUMP JUMPDEST POP RETURNDATASIZE PUSH2 0x5C35 JUMP JUMPDEST PUSH1 0x0 JUMPDEST PUSH1 0xA SWAP1 DUP2 SLOAD SWAP2 DUP3 DUP3 LT ISZERO PUSH2 0x5D0B JUMPI DUP4 SWAP3 PUSH2 0x5C73 DUP4 PUSH2 0x452B JUMP JUMPDEST SWAP5 SWAP1 SLOAD PUSH1 0x3 SWAP6 DUP7 SHL SHR EQ PUSH2 0x5C92 JUMPI POP POP PUSH2 0x5C8D SWAP2 POP PUSH2 0x493B JUMP JUMPDEST PUSH2 0x5C5A JUMP JUMPDEST SWAP1 SWAP2 PUSH1 0x0 NOT SWAP2 DUP1 DUP4 ADD SWAP2 SWAP1 DUP3 GT PUSH2 0x4918 JUMPI PUSH2 0x2C79 PUSH2 0x5CB2 PUSH2 0x5CBE SWAP4 PUSH2 0x452B JUMP JUMPDEST SWAP1 SLOAD SWAP1 DUP8 SHL SHR SWAP2 PUSH2 0x452B JUMP JUMPDEST DUP2 SLOAD DUP1 ISZERO PUSH2 0x5CF5 JUMPI DUP2 ADD SWAP3 PUSH2 0x5CD2 DUP5 PUSH2 0x452B JUMP JUMPDEST DUP2 SWAP4 SWAP2 SLOAD SWAP3 SHL SHL NOT AND SWAP1 SSTORE SSTORE PUSH1 0x0 MSTORE PUSH1 0xB PUSH1 0x20 MSTORE PUSH1 0x40 PUSH1 0x0 KECCAK256 PUSH1 0xFF NOT DUP2 SLOAD AND SWAP1 SSTORE JUMP JUMPDEST PUSH4 0x4E487B71 PUSH1 0xE0 SHL PUSH1 0x0 MSTORE PUSH1 0x31 PUSH1 0x4 MSTORE PUSH1 0x24 PUSH1 0x0 REVERT JUMPDEST POP POP POP POP JUMP JUMPDEST ISZERO PUSH2 0x5D18 JUMPI JUMP JUMPDEST PUSH1 0x40 MLOAD PUSH3 0x461BCD PUSH1 0xE5 SHL DUP2 MSTORE PUSH1 0x20 PUSH1 0x4 DUP3 ADD MSTORE PUSH1 0x1C PUSH1 0x24 DUP3 ADD MSTORE PUSH28 0x22BB32B73A2837B7B61D1027B7363C9020B236B4B726B0B730B3B2B9 PUSH1 0x21 SHL PUSH1 0x44 DUP3 ADD MSTORE PUSH1 0x64 SWAP1 REVERT JUMPDEST ISZERO PUSH2 0x5D63 JUMPI JUMP JUMPDEST PUSH1 0x40 MLOAD PUSH3 0x461BCD PUSH1 0xE5 SHL DUP2 MSTORE PUSH1 0x20 PUSH1 0x4 DUP3 ADD MSTORE PUSH1 0x1C PUSH1 0x24 DUP3 ADD MSTORE PUSH28 0x115D995B9D141BDBDB0E88125B9D985B1A59081B585C9AD95D081251 PUSH1 0x22 SHL PUSH1 0x44 DUP3 ADD MSTORE PUSH1 0x64 SWAP1 REVERT JUMPDEST ISZERO PUSH2 0x5DAE JUMPI JUMP JUMPDEST PUSH1 0x64 PUSH1 0x40 MLOAD PUSH3 0x461BCD PUSH1 0xE5 SHL DUP2 MSTORE PUSH1 0x20 PUSH1 0x4 DUP3 ADD MSTORE PUSH1 0x20 PUSH1 0x24 DUP3 ADD MSTORE PUSH32 0x4576656E74506F6F6C3A204D61726B657420646F6573206E6F74206578697374 PUSH1 0x44 DUP3 ADD MSTORE REVERT JUMPDEST PUSH1 0x40 MLOAD SWAP1 PUSH2 0x5DFF DUP3 PUSH2 0x472B JUMP JUMPDEST DUP2 PUSH2 0x1C0 PUSH1 0x0 SWAP2 DUP3 DUP2 MSTORE PUSH1 0x60 PUSH1 0x20 DUP3 ADD MSTORE DUP3 PUSH1 0x40 DUP3 ADD MSTORE DUP3 PUSH1 0x60 DUP3 ADD MSTORE DUP3 PUSH1 0x80 DUP3 ADD MSTORE DUP3 PUSH1 0xA0 DUP3 ADD MSTORE DUP3 PUSH1 0xC0 DUP3 ADD MSTORE DUP3 PUSH1 0xE0 DUP3 ADD MSTORE DUP3 PUSH2 0x100 DUP3 ADD MSTORE DUP3 PUSH2 0x120 DUP3 ADD MSTORE DUP3 PUSH2 0x140 DUP3 ADD MSTORE DUP3 PUSH2 0x160 DUP3 ADD MSTORE DUP3 PUSH2 0x180 DUP3 ADD MSTORE DUP3 PUSH2 0x1A0 DUP3 ADD MSTORE ADD MSTORE JUMP INVALID 0x4C GASLIMIT PUSH2 0xC5B0 DIV DUP5 0x24 SMOD SHR GT ISZERO 0xE9 CALL 0xE3 0x25 BASEFEE PUSH15 0x21C21333D968F21097B7B72D12AD8B 0xE0 SMOD SWAP13 MSTORE8 AND MSIZE EQ SGT PREVRANDAO 0xCD 0x1F 0xD0 LOG4 CALLCODE DUP5 NOT 0x49 PUSH32 0x9722A3DAAFE3B4186F6B6457E06DFC24F0F2FB42E49FB4FA3FFA8ABB148CAB90 DUP11 0x1F 0xB8 CALLER JUMPDEST EXTCODEHASH SLT DUP11 ADDMOD 0xB2 MSIZE 0x4A CALL 0xE1 0xF 0xDD 0xE2 0xC5 0xCD SWAP12 SWAP3 0xE4 0x49 0xEE 0x25 0xDF ADD INVALID 0xBD LOG2 0xCB 0xEB 0xC5 SSTORE RETURNDATACOPY CODESIZE CALLCODE 0x25 0xF INVALID PUSH32 0x2D5143BCA2646970667358221220B11E32D12EE39FB87C9AF6A80A8D2C2409EC 0xA5 0xAC LOG0 SMOD PUSH31 0x8E04D536D2ECF456AA64736F6C634300081400330000000000000000000000 "},"methodIdentifiers":{"CREATOR_FEE_BPS()":"cc3cbd2a","PLATFORM_FEE_BPS()":"539aa77f","VERIFIER_FEE_BPS()":"2ee4018f","activeMarkets(uint256)":"3adfe6d0","adminManager()":"a210b6a4","autoResolve(uint256)":"b1138b50","calculateWinnings(uint256,address)":"f15cc406","cancelMarket(uint256)":"7c16cd9e","claimRefund(uint256)":"5b7baf64","claimWinnings(uint256)":"677bd9ff","createMarket(string,bool,uint256,address,uint256,uint256,uint256,uint256,uint256)":"638b022c","creatorCancelMarket(uint256)":"c3436e0c","endMarket(uint256)":"157bdcce","getActiveMarketCount()":"5da3247a","getActiveMarkets()":"a5e973c3","getAllMarketIds()":"b85ed636","getMarket(uint256)":"eb44fdd3","getMarketInfo(uint256)":"3ec79193","getMarketResolvingVerifiers(uint256)":"902315ec","getMarketStakers(uint256)":"6f59359e","getNextMarketId()":"fe53a6e8","getOptionPool(uint256,uint256,address)":"dc4ce349","getStakerCount(uint256)":"0ccf4467","getSupportPool(uint256,address)":"4f44289d","getSupporterCount(uint256)":"a30a0914","getTotalPool(uint256,address)":"f00fe321","getUserMarketHistory(address)":"33d6b46e","getUserStake(uint256,address,address)":"847cf782","getUserSupport(uint256,address,address)":"256ba741","isActiveMarket(uint256)":"0d64cdbd","isMarketActive(uint256)":"f849f69e","markMarketDeleted(uint256)":"fb87f2c3","markMarketPermanentlyRemoved(uint256)":"e0bd4acc","marketCreationFee()":"2ef1bdfa","marketResolvingVerifiers(uint256,uint256)":"2bdbb884","marketStakers(uint256,uint256)":"d5f82707","marketSupporters(uint256,uint256)":"c22c62c3","markets(uint256)":"b1283e77","nextMarketId()":"406ef2ef","owner()":"8da5cb5b","placeStake(uint256,uint256)":"f4867591","placeStakeWithToken(uint256,uint256,uint256)":"f1b7dde3","renounceOwnership()":"715018a6","resolveMarket(uint256,uint256)":"60557333","setAdminManager(address)":"bc160758","supportMarket(uint256,uint256)":"f204072f","transferOwnership(address)":"f2fde38b","treasury()":"61d027b3","userHasStaked(uint256,address)":"304bf1f1","userHasSupported(uint256,address)":"287f57b5","userMarketHistory(address,uint256)":"98a17671","userStakeOptions(uint256,address)":"d8c5dd67","withdrawSupport(uint256)":"3e32a76c"}}}}}