{"contracts/P2PAnalytics.sol":{"MetricsHub":{"abi":[{"inputs":[{"internalType":"address","name":"initialOwner","type":"address"},{"internalType":"address","name":"_marketManager","type":"address"}],"stateMutability":"nonpayable","type":"constructor"},{"inputs":[{"internalType":"address","name":"owner","type":"address"}],"name":"OwnableInvalidOwner","type":"error"},{"inputs":[{"internalType":"address","name":"account","type":"address"}],"name":"OwnableUnauthorizedAccount","type":"error"},{"anonymous":false,"inputs":[{"indexed":false,"internalType":"uint256","name":"totalMarkets","type":"uint256"},{"indexed":false,"internalType":"uint256","name":"totalVolume","type":"uint256"}],"name":"GlobalStatsUpdated","type":"event"},{"anonymous":false,"inputs":[{"indexed":true,"internalType":"uint256","name":"marketId","type":"uint256"},{"indexed":false,"internalType":"uint256","name":"volume","type":"uint256"},{"indexed":false,"internalType":"uint256","name":"bettors","type":"uint256"}],"name":"MarketStatsUpdated","type":"event"},{"anonymous":false,"inputs":[{"indexed":true,"internalType":"address","name":"previousOwner","type":"address"},{"indexed":true,"internalType":"address","name":"newOwner","type":"address"}],"name":"OwnershipTransferred","type":"event"},{"anonymous":false,"inputs":[{"indexed":true,"internalType":"address","name":"user","type":"address"},{"indexed":false,"internalType":"uint256","name":"totalBets","type":"uint256"},{"indexed":false,"internalType":"uint256","name":"winnings","type":"uint256"}],"name":"UserStatsUpdated","type":"event"},{"inputs":[{"internalType":"uint256","name":"limit","type":"uint256"}],"name":"getActiveMarketsByBettorCount","outputs":[{"internalType":"uint256[]","name":"","type":"uint256[]"},{"internalType":"uint256[]","name":"","type":"uint256[]"}],"stateMutability":"view","type":"function"},{"inputs":[{"internalType":"uint256","name":"minVolume","type":"uint256"}],"name":"getActiveMarketsByMinVolume","outputs":[{"internalType":"uint256[]","name":"","type":"uint256[]"}],"stateMutability":"view","type":"function"},{"inputs":[{"internalType":"uint256","name":"limit","type":"uint256"}],"name":"getActiveMarketsByParticipants","outputs":[{"internalType":"uint256[]","name":"","type":"uint256[]"},{"internalType":"uint256[]","name":"","type":"uint256[]"}],"stateMutability":"view","type":"function"},{"inputs":[{"internalType":"uint256","name":"limit","type":"uint256"}],"name":"getActiveMarketsByVolume","outputs":[{"internalType":"uint256[]","name":"","type":"uint256[]"},{"internalType":"uint256[]","name":"","type":"uint256[]"}],"stateMutability":"view","type":"function"},{"inputs":[],"name":"getGlobalStats","outputs":[{"components":[{"internalType":"uint256","name":"totalMarkets","type":"uint256"},{"internalType":"uint256","name":"totalVolume","type":"uint256"},{"internalType":"uint256","name":"totalStakers","type":"uint256"},{"internalType":"uint256","name":"totalSupporters","type":"uint256"},{"internalType":"uint256","name":"totalWinnings","type":"uint256"},{"internalType":"uint256","name":"averageMarketSize","type":"uint256"},{"internalType":"uint256","name":"mostActiveToken","type":"uint256"},{"internalType":"uint256","name":"averageResolutionTime","type":"uint256"}],"internalType":"struct MetricsHub.GlobalStats","name":"","type":"tuple"}],"stateMutability":"view","type":"function"},{"inputs":[{"internalType":"uint256","name":"marketId","type":"uint256"}],"name":"getMarketStats","outputs":[{"components":[{"internalType":"uint256","name":"totalVolume","type":"uint256"},{"internalType":"uint256","name":"totalStakers","type":"uint256"},{"internalType":"uint256","name":"totalSupporters","type":"uint256"},{"internalType":"uint256","name":"averageBetSize","type":"uint256"},{"internalType":"uint256","name":"largestBet","type":"uint256"},{"internalType":"uint256","name":"mostPopularOption","type":"uint256"},{"internalType":"uint256","name":"resolutionTime","type":"uint256"},{"internalType":"bool","name":"wasResolved","type":"bool"},{"internalType":"uint256","name":"creatorWinnings","type":"uint256"}],"internalType":"struct MetricsHub.MarketStats","name":"","type":"tuple"}],"stateMutability":"view","type":"function"},{"inputs":[{"internalType":"address","name":"creator","type":"address"}],"name":"getMarketsByCreator","outputs":[{"internalType":"uint256[]","name":"","type":"uint256[]"}],"stateMutability":"view","type":"function"},{"inputs":[{"internalType":"uint256","name":"startTime","type":"uint256"},{"internalType":"uint256","name":"endTime","type":"uint256"}],"name":"getMarketsByDateRange","outputs":[{"internalType":"uint256[]","name":"","type":"uint256[]"}],"stateMutability":"view","type":"function"},{"inputs":[{"internalType":"enum EventPool.MarketState","name":"state","type":"uint8"}],"name":"getMarketsByState","outputs":[{"internalType":"uint256[]","name":"","type":"uint256[]"}],"stateMutability":"view","type":"function"},{"inputs":[{"internalType":"address","name":"token","type":"address"}],"name":"getMarketsByToken","outputs":[{"internalType":"uint256[]","name":"","type":"uint256[]"}],"stateMutability":"view","type":"function"},{"inputs":[{"internalType":"address","name":"creator","type":"address"},{"internalType":"address","name":"token","type":"address"},{"internalType":"uint256","name":"minVolume","type":"uint256"},{"internalType":"uint256","name":"maxVolume","type":"uint256"},{"internalType":"enum EventPool.MarketState","name":"state","type":"uint8"},{"internalType":"uint256","name":"startTime","type":"uint256"},{"internalType":"uint256","name":"endTime","type":"uint256"}],"name":"getMarketsFiltered","outputs":[{"internalType":"uint256[]","name":"","type":"uint256[]"}],"stateMutability":"view","type":"function"},{"inputs":[{"internalType":"uint256","name":"daysBack","type":"uint256"},{"internalType":"uint256","name":"limit","type":"uint256"}],"name":"getRecentActiveMarkets","outputs":[{"internalType":"uint256[]","name":"","type":"uint256[]"},{"internalType":"uint256[]","name":"","type":"uint256[]"}],"stateMutability":"view","type":"function"},{"inputs":[{"internalType":"uint256","name":"limit","type":"uint256"}],"name":"getThisWeekActiveMarkets","outputs":[{"internalType":"uint256[]","name":"","type":"uint256[]"},{"internalType":"uint256[]","name":"","type":"uint256[]"}],"stateMutability":"view","type":"function"},{"inputs":[{"internalType":"uint256","name":"limit","type":"uint256"}],"name":"getTodayActiveMarkets","outputs":[{"internalType":"uint256[]","name":"","type":"uint256[]"},{"internalType":"uint256[]","name":"","type":"uint256[]"}],"stateMutability":"view","type":"function"},{"inputs":[{"internalType":"uint256","name":"limit","type":"uint256"}],"name":"getTopBettors","outputs":[{"internalType":"address[]","name":"","type":"address[]"},{"internalType":"uint256[]","name":"","type":"uint256[]"}],"stateMutability":"view","type":"function"},{"inputs":[{"internalType":"address","name":"user","type":"address"}],"name":"getUserBets","outputs":[{"internalType":"uint256[]","name":"","type":"uint256[]"}],"stateMutability":"view","type":"function"},{"inputs":[{"internalType":"address","name":"user","type":"address"}],"name":"getUserFavoriteOption","outputs":[{"internalType":"uint256","name":"","type":"uint256"}],"stateMutability":"view","type":"function"},{"inputs":[{"internalType":"address","name":"user","type":"address"}],"name":"getUserMarkets","outputs":[{"internalType":"uint256[]","name":"","type":"uint256[]"}],"stateMutability":"view","type":"function"},{"inputs":[{"internalType":"address","name":"user","type":"address"},{"internalType":"enum EventPool.MarketState","name":"state","type":"uint8"}],"name":"getUserMarketsByState","outputs":[{"internalType":"uint256[]","name":"","type":"uint256[]"}],"stateMutability":"view","type":"function"},{"inputs":[{"internalType":"address","name":"user","type":"address"}],"name":"getUserStats","outputs":[{"components":[{"internalType":"uint256","name":"totalBetsPlaced","type":"uint256"},{"internalType":"uint256","name":"totalBetsWon","type":"uint256"},{"internalType":"uint256","name":"totalBetsLost","type":"uint256"},{"internalType":"uint256","name":"totalWinnings","type":"uint256"},{"internalType":"uint256","name":"totalLosses","type":"uint256"},{"internalType":"uint256","name":"totalSupportDonated","type":"uint256"},{"internalType":"uint256","name":"marketsCreated","type":"uint256"},{"internalType":"uint256","name":"marketsWon","type":"uint256"},{"internalType":"uint256","name":"marketsLost","type":"uint256"},{"internalType":"uint256","name":"favoriteOption","type":"uint256"},{"internalType":"uint256","name":"lastActivity","type":"uint256"}],"internalType":"struct MetricsHub.UserStats","name":"","type":"tuple"}],"stateMutability":"view","type":"function"},{"inputs":[{"internalType":"address","name":"user","type":"address"}],"name":"getUserSupports","outputs":[{"internalType":"uint256[]","name":"","type":"uint256[]"}],"stateMutability":"view","type":"function"},{"inputs":[{"internalType":"address","name":"user","type":"address"}],"name":"getUserWinRate","outputs":[{"internalType":"uint256","name":"","type":"uint256"}],"stateMutability":"view","type":"function"},{"inputs":[],"name":"marketManager","outputs":[{"internalType":"address payable","name":"","type":"address"}],"stateMutability":"view","type":"function"},{"inputs":[{"internalType":"uint256","name":"","type":"uint256"}],"name":"marketStats","outputs":[{"internalType":"uint256","name":"totalVolume","type":"uint256"},{"internalType":"uint256","name":"totalStakers","type":"uint256"},{"internalType":"uint256","name":"totalSupporters","type":"uint256"},{"internalType":"uint256","name":"averageBetSize","type":"uint256"},{"internalType":"uint256","name":"largestBet","type":"uint256"},{"internalType":"uint256","name":"mostPopularOption","type":"uint256"},{"internalType":"uint256","name":"resolutionTime","type":"uint256"},{"internalType":"bool","name":"wasResolved","type":"bool"},{"internalType":"uint256","name":"creatorWinnings","type":"uint256"}],"stateMutability":"view","type":"function"},{"inputs":[],"name":"owner","outputs":[{"internalType":"address","name":"","type":"address"}],"stateMutability":"view","type":"function"},{"inputs":[],"name":"renounceOwnership","outputs":[],"stateMutability":"nonpayable","type":"function"},{"inputs":[{"internalType":"address","name":"_marketManager","type":"address"}],"name":"setMarketManager","outputs":[],"stateMutability":"nonpayable","type":"function"},{"inputs":[{"internalType":"uint256","name":"marketId","type":"uint256"},{"internalType":"address","name":"user","type":"address"},{"internalType":"uint256","name":"loss","type":"uint256"}],"name":"trackLoss","outputs":[],"stateMutability":"nonpayable","type":"function"},{"inputs":[{"internalType":"uint256","name":"marketId","type":"uint256"},{"internalType":"address","name":"creator","type":"address"}],"name":"trackMarketCreation","outputs":[],"stateMutability":"nonpayable","type":"function"},{"inputs":[{"internalType":"uint256","name":"marketId","type":"uint256"},{"internalType":"uint256","name":"winningOption","type":"uint256"}],"name":"trackMarketResolution","outputs":[],"stateMutability":"nonpayable","type":"function"},{"inputs":[{"internalType":"uint256","name":"marketId","type":"uint256"},{"internalType":"address","name":"user","type":"address"},{"internalType":"uint256","name":"option","type":"uint256"},{"internalType":"uint256","name":"amount","type":"uint256"}],"name":"trackStake","outputs":[],"stateMutability":"nonpayable","type":"function"},{"inputs":[{"internalType":"uint256","name":"marketId","type":"uint256"},{"internalType":"address","name":"user","type":"address"},{"internalType":"uint256","name":"amount","type":"uint256"}],"name":"trackSupport","outputs":[],"stateMutability":"nonpayable","type":"function"},{"inputs":[{"internalType":"uint256","name":"marketId","type":"uint256"},{"internalType":"address","name":"user","type":"address"},{"internalType":"uint256","name":"winnings","type":"uint256"}],"name":"trackWinnings","outputs":[],"stateMutability":"nonpayable","type":"function"},{"inputs":[{"internalType":"address","name":"newOwner","type":"address"}],"name":"transferOwnership","outputs":[],"stateMutability":"nonpayable","type":"function"},{"inputs":[{"internalType":"address","name":"","type":"address"},{"internalType":"uint256","name":"","type":"uint256"}],"name":"userBets","outputs":[{"internalType":"uint256","name":"","type":"uint256"}],"stateMutability":"view","type":"function"},{"inputs":[{"internalType":"address","name":"","type":"address"},{"internalType":"uint256","name":"","type":"uint256"}],"name":"userMarkets","outputs":[{"internalType":"uint256","name":"","type":"uint256"}],"stateMutability":"view","type":"function"},{"inputs":[{"internalType":"address","name":"","type":"address"},{"internalType":"uint256","name":"","type":"uint256"}],"name":"userOptionStats","outputs":[{"internalType":"uint256","name":"","type":"uint256"}],"stateMutability":"view","type":"function"},{"inputs":[{"internalType":"address","name":"","type":"address"}],"name":"userStats","outputs":[{"internalType":"uint256","name":"totalBetsPlaced","type":"uint256"},{"internalType":"uint256","name":"totalBetsWon","type":"uint256"},{"internalType":"uint256","name":"totalBetsLost","type":"uint256"},{"internalType":"uint256","name":"totalWinnings","type":"uint256"},{"internalType":"uint256","name":"totalLosses","type":"uint256"},{"internalType":"uint256","name":"totalSupportDonated","type":"uint256"},{"internalType":"uint256","name":"marketsCreated","type":"uint256"},{"internalType":"uint256","name":"marketsWon","type":"uint256"},{"internalType":"uint256","name":"marketsLost","type":"uint256"},{"internalType":"uint256","name":"favoriteOption","type":"uint256"},{"internalType":"uint256","name":"lastActivity","type":"uint256"}],"stateMutability":"view","type":"function"},{"inputs":[{"internalType":"address","name":"","type":"address"},{"internalType":"uint256","name":"","type":"uint256"}],"name":"userSupports","outputs":[{"internalType":"uint256","name":"","type":"uint256"}],"stateMutability":"view","type":"function"}],"evm":{"bytecode":{"linkReferences":{},"object":"608034620000de57601f6200353f38819003918201601f19168301916001600160401b03831184841017620000e3578084926040948552833981010312620000de576200005a60206200005283620000f9565b9201620000f9565b906001600160a01b03908116908115620000c5576000549260018060a01b03199280848616176000558260405195167f8be0079c531659141344cd1fd0a4f28419497f9722a3daafe3b4186f6b6457e0600080a31690600154161760015561343090816200010f8239f35b604051631e4fbdf760e01b815260006004820152602490fd5b600080fd5b634e487b7160e01b600052604160045260246000fd5b51906001600160a01b0382168203620000de5756fe608080604052600436101561001357600080fd5b60003560e01c9081630649e0c014612ceb57508063110d05e514612cae5780631c6e04db14612c375780632053114d14612b5557806325ec5ef114612b2a5780632d56657d14612a9f5780633d80d00b146127275780633f89efda146126a957806341ed2c12146126805780634b669c09146125f75780634e43603a1461248f57806350ad34a1146121a557806354488a5a1461215d57806357f978ad14611fcf57806358057fe514611eae5780635be0a34b14611e1657806361d442c214611d115780636b3b7ea714611cc75780636b4169c314611aa5578063715018a614611a5e5780638068aa6814611a1457806380aa0d8c14611828578063837cd235146114af5780638a65d874146114065780638da5cb5b146113dd5780638f46a5a1146112c75780639b7bcd241461112e578063a119515a14610dd3578063b2e1ae8b14610a10578063c228038d14610772578063cd94a775146105e8578063d82aff11146105a5578063da4473d814610548578063db0f871d1461054d578063e99c80bd14610548578063f054f00a146104b4578063f2fde38b14610440578063fbe151591461024e5763ff4a7300146101cc57600080fd5b34610249576101da36612df1565b906101f060018060a01b03600154163314612ed8565b60005260036020526005604060002060078101600160ff1982541617905542600682015501557f17d726ad382ea92487e2c4d01469c94fa17bef35e71d3f4b5414159695c038d2604080516000815260006020820152a1005b600080fd5b3461024957602080600319360112610249576004359060405161027081612fba565b6000815260018054604051631fca74dd60e31b81529294906001600160a01b03168484600481845afa93841561040557600094610411575b50825b8481106102c957604051868152806102c58189018a612d3f565b0390f35b60405163eb44fdd360e01b8152600481018290526024906000818381875afa801561040557610180916000916103e2575b50015160058110156103cd5715806103b6575b610321575b5061031c90612f34565b6102ab565b87919751908582018092116103a25750908761033d86936132b3565b91836000945b610361575b5061031c93506103599051836132e5565b529690610312565b91819394915182101561039857508061037d61038e92856132e5565b5161038882876132e5565b52612f34565b9291818a92610343565b9184939150610348565b634e487b7160e01b60009081526011600452fd5b50816000526003875283604060002054101561030d565b50634e487b7160e01b60009081526021600452fd5b6103ff91503d806000833e6103f78183612fd5565b81019061307b565b8a6102fa565b6040513d6000823e3d90fd5b9093508481813d8311610439575b6104298183612fd5565b81010312610249575192866102a8565b503d61041f565b3461024957602036600319011261024957610459612d9b565b610461612eac565b6001600160a01b0390811690811561049b576000548260018060a01b0319821617600055166000805160206133bb833981519152600080a3005b604051631e4fbdf760e01b815260006004820152602490fd5b34610249576040366003190112610249576104cd612db1565b6001546001600160a01b0391906104e79083163314612ed8565b1680600052600260205260008051602061339b833981519152604080600020600681016105148154612f34565b905542600a82015583600052600460205261053460043583600020613025565b6003815491015482519182526020820152a2005b612e35565b3461024957604036600319011261024957610566612d9b565b6001600160a01b03166000908152600460205260409020805460243591908210156102495760209161059791612e07565b90546040519160031b1c8152f35b34610249576020366003190112610249576105be612d9b565b6105c6612eac565b600180546001600160a01b0319166001600160a01b0392909216919091179055005b346102495760208060031936011261024957610602612d9b565b9060405161060f81612fba565b6000815260018054604051631fca74dd60e31b8152929492906001600160a01b039081168583600481845afa92831561040557600093610743575b509193811691835b85811061066c57604051878152806102c5818a018b612d3f565b60405163eb44fdd360e01b8152600481018290526024906000818381875afa801561040557608086918893600091610728575b50015116146106b8575b506106b390612f34565b610652565b88919851908682018092116103a2575090886106d487936132b3565b91836000945b6106f8575b506106b393506106f09051836132e5565b5297906106a9565b91819394915182101561071e57508061037d61071492856132e5565b9291818b926106da565b91849391506106df565b61073d91503d806000833e6103f78183612fd5565b8d61069f565b9092508581813d831161076b575b61075b8183612fd5565b810103126102495751918761064a565b503d610751565b34610249576080366003190112610249576004356024610790612db1565b600154606435916001600160a01b03916044359183916107b39083163314612ed8565b169081600052602093600285526040600020916107d08354612f34565b8355600483016107e1838254612f43565b905542600a84015583600052600786526040600020816000528652604060002061080b8154612f34565b905583600052600786526040600020816000528652604060002054846000526007875260406000209060098501918254600052885260406000205410610a08575b5050866000526003855260406000209385610868838754612f43565b918287556001541660405198898092630ccf446760e01b82528c60048301525afa968715610405576000976109d9575b50600185018781559680156109d0576108b091612ff8565b600385015560048401805482116109c8575b505081600052600484526040600020805490811591821561095b575b50509160008051602061339b83398151915260406000805160206133db833981519152979593819795610941575b83600052600586526109218a83600020613025565b60038154910154825191825286820152a2549154908351928352820152a2005b83600052600486526109568a83600020613025565b61090c565b909694929593915060001981019081116109b257604080968961099c60008051602061339b833981519152946000805160206133db8339815191529b612e07565b90549060031b1c141593959750939597506108de565b634e487b7160e01b600052601160045260246000fd5b5586806108c2565b505060006108b0565b9096508581813d8311610a01575b6109f18183612fd5565b8101031261024957519588610898565b503d6109e7565b55878061084c565b34610249576020806003193601126102495760018054604051631fca74dd60e31b81526001600160a01b039091169291908281600481875afa90811561040557600091610da6575b50604051610a6581612fba565b6000815293604051610a7681612fba565b6000815293835b838110610c185750505050806000905b610b19575b505060043580151580610b0f575b15610b07575b610aaf816132b3565b91610ab9826132b3565b9360005b838110610ad357604051806102c5888883612d73565b80610ae1610b0292846132e5565b51610aec82886132e5565b52610af781856132e5565b5161038882896132e5565b610abd565b508151610aa6565b5082518110610aa0565b8351600019908181019081116109b257821015610c1257600090835b610b4c575b5050610b468291612f34565b90610a8d565b610b5c8387949693959751613018565b8181019081116109b257841015610c0757610b7784836132e5565b51868501948581116109b25785610ba092610b938a98876132e5565b5111610ba9575b50612f34565b91949295610b35565b610bb382866132e5565b51610bbe82876132e5565b51610bc984886132e5565b52610bd482876132e5565b52610c00610be283886132e5565b5191610bee81896132e5565b51610bf9858a6132e5565b52876132e5565b5288610b9a565b819492959350610b3a565b50610a92565b60405163eb44fdd360e01b8152600481018290526024906000818381885afa80156104055761018091600091610d8b575b50015160058110156103cd5715610c6a575b50610c6590612f34565b610a7d565b909560405190630ccf446760e01b825287600483015283828481885afa91821561040557600092610d5c575b508851878101809111610d4757610cac906132b3565b928151908882018092116103a25750610cc589916132b3565b99886000815b610cf8575b505091610cef91610ce7610c6596959451866132e5565b52518a6132e5565b52969590610c5b565b9091928351821015610d3f575080610d13610d3592856132e5565b51610d1e82896132e5565b528c61038882610d2e81896132e5565b51926132e5565b908a929181610ccb565b929190610cd0565b83634e487b7160e01b60005260116004526000fd5b9091508381813d8311610d84575b610d748183612fd5565b8101031261024957519089610c96565b503d610d6a565b610da091503d806000833e6103f78183612fd5565b8a610c49565b90508281813d8311610dcc575b610dbd8183612fd5565b81010312610249575184610a58565b503d610db3565b34610249576020806003193601126102495760018054604051631fca74dd60e31b81526001600160a01b0390911691908381600481865afa90811561040557600091611101575b50604051610e2781612fba565b6000815293604051610e3881612fba565b6000815293835b838110610f4e5750505050806000905b610eba575b505060043580151580610eb0575b15610ea8575b610e71816132b3565b91610e7b826132b3565b9360005b838110610e9557604051806102c5888883612d73565b80610ae1610ea392846132e5565b610e7f565b508151610e68565b5082518110610e62565b8351600019908181019081116109b257821015610f4857600090835b610eed575b5050610ee78291612f34565b90610e4f565b610efd8387949693959751613018565b8181019081116109b257841015610f3d57610f1884836132e5565b51868501948581116109b25785610f3492610b938a98876132e5565b91949295610ed6565b819492959350610edb565b50610e54565b60405163eb44fdd360e01b8152600481018290526024906000818381875afa801561040557610180916000916110e6575b50015160058110156103cd5715610fa0575b50610f9b90612f34565b610e3f565b9095604051630ccf446760e01b815287600482015284818481875afa908115610405576000916110b9575b506040516328c2824560e21b8152600481018990529085828581885afa90811561040557600091611088575b6110019250612f43565b908851878101809111610d4757611017906132b3565b928151908882018092116103a2575061103089916132b3565b99886000815b61105b575b50509161105291610ce7610f9b96959451866132e5565b52969590610f91565b9091928351821015611080575080610d1361107692856132e5565b908a929181611036565b92919061103b565b90508582813d83116110b2575b61109f8183612fd5565b8101031261024957611001915190610ff7565b503d611095565b90508481813d83116110df575b6110d08183612fd5565b81010312610249575189610fcb565b503d6110c6565b6110fb91503d806000833e6103f78183612fd5565b8a610f7f565b90508381813d8311611127575b6111188183612fd5565b81010312610249575184610e1a565b503d61110e565b3461024957602080600319360112610249576004359060058083101590816102495760405161115c81612fba565b6000815260018054604051631fca74dd60e31b815292969294919391906001600160a01b03168686600481845afa95861561040557600096611298575b50845b8681106111b657604051888152806102c5818b018c612d3f565b60405163eb44fdd360e01b8152600481018290526024906000818381875afa8015610405576101809160009161127d575b500151858110156103cd57846103cd57861461120d575b5061120890612f34565b61119c565b89919951908782018092116103a25750908961122988936132b3565b91836000945b61124d575b5061120893506112459051836132e5565b5298906111fe565b91819394915182101561127357508061037d61126992856132e5565b9291818c9261122f565b9184939150611234565b61129291503d806000833e6103f78183612fd5565b8c6111e7565b9095508681813d83116112c0575b6112b08183612fd5565b8101031261024957519488611199565b503d6112a6565b34610249576112d536612dc7565b6001546001600160a01b03939284916112f19083163314612ed8565b16928360005260246020916002835260406000209361131560058601918254612f43565b905542600a85015584600052600383528260406000209160015416604051938480926328c2824560e21b82528960048301525afa9182156104055760009261139a575b5060008051602061339b8339815191529460409493926002611387930155866000526006835284600020613025565b60038254920154908351928352820152a2005b90939280925081813d83116113d6575b6113b48183612fd5565b810103126102495751919290919060008051602061339b833981519152611358565b503d6113aa565b34610249576000366003190112610249576000546040516001600160a01b039091168152602090f35b34610249576020366003190112610249576001600160a01b03611427612d9b565b16600052600260205261016060406000208054906001810154906002810154600382015460048301546005840154600685015491600786015493600887015495600a6009890154980154986040519a8b5260208b015260408a01526060890152608088015260a087015260c086015260e0850152610100840152610120830152610140820152f35b346102495760e0366003190112610249576114c8612d9b565b6114d0612db1565b600560843510159182610249576040516114e981612fba565b60008152600154604051631fca74dd60e31b815291949193906001600160a01b0316602085600481845afa948515610405576000956117f4575b5060015b85811061154457604051602080825281906102c59082018a612d3f565b60405163eb44fdd360e01b815260048101829052600081602481865afa908115610405576000916117d9575b5081600052600360205260406000209060405161158c81612f82565b82548082526001808501546020840152600285015460408401526003850154606084015260048501546080840152600585015460a0840152600685015460c0840152600785015460ff16151560e08401526008909401546101009092019190915286906001600160a01b038916801515906117c2575b6117b9575b6001600160a01b0387168015159061179f575b611796575b604435151560443561178b575b611782575b606435151590606435611776575b5061176d575b611757576084351515608435611738575b61172f575b60a435151560a43561171f575b611716575b60c43515159060c435611704575b506116fc575b611694575b61168f90612f34565b611527565b949193909286516001810181116109b25760016116b191016132b3565b9460005b88518110156116dc57806116cc6116d7928b6132e5565b51610388828a6132e5565b6116b5565b5092959694876116f361168f9396949751836132e5565b52969050611686565b506000611681565b905061010060c435910151118961167b565b6000915061166d565b5060a43561010082015110611668565b6000915061165b565b5061018081015195506005861015611757576000956084351415611656565b634e487b7160e01b600052602160045260246000fd5b60009250611645565b9050606435108b61163f565b60009350611631565b50604435811061162c565b6000935061161f565b5060808301516001600160a01b038881169116141561161a565b60009350611607565b5082516001600160a01b038a811691161415611602565b6117ee91503d806000833e6103f78183612fd5565b88611570565b9094506020813d602011611820575b8161181060209383612fd5565b8101031261024957519386611523565b3d9150611803565b3461024957604036600319011261024957611841612d9b565b60248035600592838210159081610249578383869260018060a01b03809116600052602092600484526040600020926040519384868254918281520191600052866000209060005b818110611a00575050508461189f910385612fd5565b6040516118ab81612fba565b60008152956000976001988995865416995b6118d5575b604051888152806102c5818b018c612d3f565b86518110156119fb578960006118eb838a6132e5565b51876040518094819363eb44fdd360e01b835260048301525afa801561040557610180916000916119e0575b500151838110156119cb57826119cb578414611946575b9861193c869798999a612f34565b90999897966118bd565b9780518681018091116119b65761195c906132b3565b906000875b611993575b50899a9161193c9161198761197e8b9c9d8b9c6132e5565b519151836132e5565b5299989750509861192e565b81518110156119b1576119ab8161037d8a93856132e5565b90611961565b611966565b85634e487b7160e01b60005260116004526000fd5b85634e487b7160e01b60005260216004526000fd5b6119f591503d806000833e6103f78183612fd5565b8c611917565b6118c2565b825484529288019260019283019201611889565b3461024957604036600319011261024957611a2d612d9b565b6001600160a01b03166000908152600560205260409020805460243591908210156102495760209161059791612e07565b3461024957600036600319011261024957611a77612eac565b600080546001600160a01b0319811682556001600160a01b03166000805160206133bb8339815191528280a3005b3461024957600036600319011261024957600060e0604051611ac681612f9e565b8281528260208201528260408201528260608201528260808201528260a08201528260c082015201526004602060018060a01b036001541660405192838092631fca74dd60e31b82525afa90811561040557600091611c95575b50806000198101116109b257600090818060015b6000198401811115611be7575061010093600019840115611bdf57611b5d600019850184612ff8565b905b60405192611b6c84612f9e565b6000198601845260208401948552604084019182526060840190815260808401916000835260a0850193845260e060c086019560008752019560008752604051976000190188525160208801525160408701525160608601525160808501525160a08401525160c08301525160e0820152f35b600090611b5f565b90611c8a611c9091611c82600295978560005260036020526020611c796040600020809b60086040519b8c93611c1c85612f82565b8054948590526001810154878f0152015460408d0190815260038f015460608e015260048f015460808e015260058f015460a08e015260068f015460c08e015260078f015460ff16151560e08e01529d01546101008c0152612f43565b97015190612f43565b965190612f43565b91612f34565b611b34565b90506020813d602011611cbf575b81611cb060209383612fd5565b81010312610249575181611b20565b3d9150611ca3565b3461024957604036600319011261024957611ce0612d9b565b6001600160a01b03166000908152600660205260409020805460243591908210156102495760209161059791612e07565b34610249576024611d2136612dc7565b92909160018060a01b038093611d3c82600154163314612ed8565b169384600052600260205260406000209060018201611d5b8154612f34565b90556003820192611d6d828554612f43565b845542600a840155600086600154166040519687809263eb44fdd360e01b82528560048301525afa9485156104055760008051602061339b833981519152966040968992600091611dfb575b50511614611dd4575b505054905482519182526020820152a2005b60078301611de28154612f34565b9055600052600360205260088460002001558580611dc2565b611e1091503d806000833e6103f78183612fd5565b8a611db9565b3461024957602080600319360112610249576040518091604082019060408352606051809252606083019160809060005b818110611e8e57505050828203818401528060605192838152019160809160005b828110611e7757505050500390f35b835185528695509381019392810192600101611e68565b82516001600160a01b031685528695509383019391830191600101611e47565b3461024957602036600319011261024957610120604051611ece81612f82565b6000815260006020820152600060408201526000606082015260006080820152600060a0820152600060c0820152600060e08201526000610100809201526004356000526003602052604060002090604051611f2981612f82565b8254928382526001810154602083019081526002820154604084019081526003830154606085019081526004840154906080860191825260058501549260a0870193845260068601549460c0880195865288600860ff60078a0154169860e08b019915158a5201549801978852604051998a525160208a01525160408901525160608801525160808701525160a08601525160c085015251151560e08401525190820152f35b3461024957611fdd36612df1565b90604051611fea81612fba565b6000815260018054604051631fca74dd60e31b81529294602094916001600160a01b03168585600481845afa9485156104055760009561212e575b50835b85811061204257604051878152806102c5818a018b612d3f565b60405163eb44fdd360e01b8152600481018290526024906000818381875afa80156104055761010091600091612113575b50015184868210159182612108575b5050612098575b5061209390612f34565b612028565b88919851908682018092116103a2575090886120b487936132b3565b91836000945b6120d8575b5061209393506120d09051836132e5565b529790612089565b9181939491518210156120fe57508061037d6120f492856132e5565b9291818b926120ba565b91849391506120bf565b11159050848b612082565b61212891503d806000833e6103f78183612fd5565b8b612073565b9094508581813d8311612156575b6121468183612fd5565b8101031261024957519387612025565b503d61213c565b34610249576040366003190112610249576001600160a01b0361217e612d9b565b16600052600760205260406000206024356000526020526020604060002054604051908152f35b34610249576020806003193601126102495760018054604051631fca74dd60e31b81526001600160a01b0390911691908381600481865afa90811561040557600091612462575b506040516121f981612fba565b600081529360405161220a81612fba565b6000815293835b8381106123205750505050806000905b61228c575b505060043580151580612282575b1561227a575b612243816132b3565b9161224d826132b3565b9360005b83811061226757604051806102c5888883612d73565b80610ae161227592846132e5565b612251565b50815161223a565b5082518110612234565b8351600019908181019081116109b25782101561231a57600090835b6122bf575b50506122b98291612f34565b90612221565b6122cf8387949693959751613018565b8181019081116109b25784101561230f576122ea84836132e5565b51868501948581116109b2578561230692610b938a98876132e5565b919492956122a8565b8194929593506122ad565b50612226565b60405163eb44fdd360e01b8152600481018290526024906000818381875afa80156104055761018091600091612447575b50015160058110156103cd5715612372575b5061236d90612f34565b612211565b9095875186810180911161243257612389906132b3565b918151908782018092116103a2575090876123a58894936132b3565b99846000955b6123e4575b5061236d94506123c19051846132e5565b5287600052600385526123db60406000205491518a6132e5565b52969590612363565b9181939495915182101561242757508061240161241c92856132e5565b5161240c82886132e5565b528b61038882610d2e81896132e5565b939291818a926123ab565b9185949391506123b0565b82634e487b7160e01b60005260116004526000fd5b61245c91503d806000833e6103f78183612fd5565b8a612351565b90508381813d8311612488575b6124798183612fd5565b810103126102495751846121ec565b503d61246f565b34610249576020366003190112610249576101606124ab612d9b565b610140604051916124bb83612f50565b6000835260006020840152600060408401526000606084015260006080840152600060a0840152600060c0840152600060e084015261010090600082850152600083610120958287820152015260018060a01b031660005260026020526040600020926040519161252b83612f50565b600a85549586855260018101546020860152600281015460408601526003810154606086015260048101546080860152600581015460a0860152600681015460c0860152600781015460e08601526008810154838601526009810154848601520154848401526040519485526020830151602086015260408301516040860152606083015160608601526080830151608086015260a083015160a086015260c083015160c086015260e083015160e0860152808301519085015280820151908401520151610140820152f35b346102495760203660031901126102495760043560005260036020526101206040600020805490600181015490600281015460038201546004830154600584015491600685015493600860ff60078801541696015496604051988952602089015260408801526060870152608086015260a085015260c0840152151560e0830152610100820152f35b34610249576000366003190112610249576001546040516001600160a01b039091168152602090f35b3461024957602036600319011261024957604051633d80d00b60e01b8152600760048201526004356024820152600081604481305afa90811561040557600090600092612701575b506102c560405192839283612d73565b905061272091503d806000833e6127188183612fd5565b810190613357565b90826126f1565b346102495761273536612df1565b60018054604051631fca74dd60e31b81526001600160a01b0390911693929190602081600481885afa90811561040557600091612a6e575b5060405161277a81612fba565b600081529460405161278b81612fba565b600081529462015180908181029181830414901517156109b2576127af9042613018565b835b8381106129215750505050806000905b612829575b50508015158061281f575b15612817575b6127e0816132b3565b916127ea826132b3565b9360005b83811061280457604051806102c5888883612d73565b80610ae161281292846132e5565b6127ee565b5081516127d7565b50825181106127d1565b8451600019908181019081116109b25782101561291b57908280926000915b61285e575b505061285890612f34565b906127c1565b9091925061286d838851613018565b8181019081116109b2578490831015612914575061288b82876132e5565b51848301928381116109b257836128b3926128a788968b6132e5565b51116128bc5750612f34565b90829392612848565b6128c6828a6132e5565b516128d1828b6132e5565b516128dc848c6132e5565b526128e7828b6132e5565b5261290d6128f5838c6132e5565b51918b61290685610d2e84846132e5565b528b6132e5565b5289610b9a565b929161284d565b506127c6565b60405163eb44fdd360e01b8152600481018290526024906000818381885afa90811561040557600091612a53575b506101808101516005811015612a3e571580612a2f575b61297b575b505061297690612f34565b6127b1565b899891929851878101809111610d4757612994906132b3565b928251908882018092116103a257506129ad8a916132b3565b9a886000815b6129e7575b50506129769493926129dd926129d26101009351876132e5565b52015191518b6132e5565b529796908961296b565b9091928351821015612a27575080612a02612a1d92856132e5565b51612a0d82896132e5565b528d61038882610d2e818a6132e5565b908b9291816129b3565b9291906129b8565b50836101008201511015612966565b82634e487b7160e01b60005260216004526000fd5b612a6891503d806000833e6103f78183612fd5565b8a61294f565b90506020813d8211612a97575b81612a8860209383612fd5565b8101031261024957518561276d565b3d9150612a7b565b3461024957602080600319360112610249576001600160a01b03612ac1612d9b565b1660005260058152604060002090604051808383829554938481520190600052836000209260005b85828210612b1457505050612b0092500383612fd5565b6102c5604051928284938452830190612d3f565b8554845260019586019588955093019201612ae9565b34610249576020366003190112610249576020612b4d612b48612d9b565b6131e3565b604051908152f35b3461024957612b6336612dc7565b506001546001600160a01b03918291612b7f9083163314612ed8565b1691826000526002602052604060002060028101612b9d8154612f34565b905542600a820155600083600154169260246040518095819363eb44fdd360e01b835260048301525afa9182156104055760008051602061339b833981519152936040938692600091612c1c575b50511614612c07576003815491015482519182526020820152a2005b60088101612c158154612f34565b9055610534565b612c3191503d806000833e6103f78183612fd5565b87612beb565b3461024957602080600319360112610249576001600160a01b03612c59612d9b565b1660005260068152604060002090604051808383829554938481520190600052836000209260005b85828210612c9857505050612b0092500383612fd5565b8554845260019586019588955093019201612c81565b34610249576020366003190112610249576001600160a01b03612ccf612d9b565b1660005260026020526020600960406000200154604051908152f35b3461024957602036600319011261024957633d80d00b60e01b8152600160048201526004356024820152600081604481305afa9081156104055760009060009261270157506102c560405192839283612d73565b90815180825260208080930193019160005b828110612d5f575050505090565b835185529381019392810192600101612d51565b9091612d8a612d9893604084526040840190612d3f565b916020818403910152612d3f565b90565b600435906001600160a01b038216820361024957565b602435906001600160a01b038216820361024957565b606090600319011261024957600435906024356001600160a01b0381168103610249579060443590565b6040906003190112610249576004359060243590565b8054821015612e1f5760005260206000200190600090565b634e487b7160e01b600052603260045260246000fd5b3461024957602080600319360112610249576001600160a01b03612e57612d9b565b1660005260048152604060002090604051808383829554938481520190600052836000209260005b85828210612e9657505050612b0092500383612fd5565b8554845260019586019588955093019201612e7f565b6000546001600160a01b03163303612ec057565b60405163118cdaa760e01b8152336004820152602490fd5b15612edf57565b60405162461bcd60e51b815260206004820152602760248201527f416e616c79746963733a204f6e6c79204d61726b65744d616e616765722063616044820152666e20747261636b60c81b6064820152608490fd5b60001981146109b25760010190565b919082018092116109b257565b61016081019081106001600160401b03821117612f6c57604052565b634e487b7160e01b600052604160045260246000fd5b61012081019081106001600160401b03821117612f6c57604052565b61010081019081106001600160401b03821117612f6c57604052565b602081019081106001600160401b03821117612f6c57604052565b601f909101601f19168101906001600160401b03821190821017612f6c57604052565b8115613002570490565b634e487b7160e01b600052601260045260246000fd5b919082039182116109b257565b8054600160401b811015612f6c5761304291600182018155612e07565b819291549060031b91821b91600019901b1916179055565b51906001600160a01b038216820361024957565b5190811515820361024957565b9060209081838203126102495782516001600160401b03938482116102495701916101e09384848403126102495760405194850185811082821117612f6c576040526130c68461305a565b85528184015181811161024957840183601f82011215610249578051918211612f6c5760405193613100601f8401601f1916850186612fd5565b82855283838301011161024957829060005b8381106131cf575050600091840101528301526131316040820161306e565b60408301526060810151606083015261314c6080820161305a565b608083015260a081015160a083015260c081015160c083015260e081015160e0830152610100808201519083015261012080820151908301526101408082015190830152610160808201519083015261018080820151906005821015610249578301526101a080820151908301526131c86101c080920161306e565b9082015290565b818101830151868201840152849201613112565b60018060a01b0316600052600260205260406000206040519061320582612f50565b8054808352600a600183015492836020860152600281015460408601526003810154606086015260048101546080860152600581015460a0860152600681015460c0860152600781015460e086015260088101546101008601526009810154610120860152015461014084015215613295576064810290808204606414901517156109b257612d98915190612ff8565b5050600090565b6001600160401b038111612f6c5760051b60200190565b906132bd8261329c565b6132ca6040519182612fd5565b82815280926132db601f199161329c565b0190602036910137565b8051821015612e1f5760209160051b010190565b81601f82011215610249578051916133108361329c565b9261331e6040519485612fd5565b808452602092838086019260051b820101928311610249578301905b828210613348575050505090565b8151815290830190830161333a565b9190916040818403126102495780516001600160401b03939084811161024957816133839184016132f9565b93602083015190811161024957612d9892016132f956fe4b6c7abacb75992cc13ad43ffe4479dac5f7be91202f5fbb108eb1af8d56ed628be0079c531659141344cd1fd0a4f28419497f9722a3daafe3b4186f6b6457e057aec02922d876ec3d68c70ddf1563d34f09d29032f77ccb3357d31cffe7e733a2646970667358221220571b1eaed1b11133cc9054a4f0497eb0817d855bebb69a81682c7ca8cc190a1564736f6c63430008140033","opcodes":"PUSH1 0x80 CALLVALUE PUSH3 0xDE JUMPI PUSH1 0x1F PUSH3 0x353F CODESIZE DUP2 SWAP1 SUB SWAP2 DUP3 ADD PUSH1 0x1F NOT AND DUP4 ADD SWAP2 PUSH1 0x1 PUSH1 0x1 PUSH1 0x40 SHL SUB DUP4 GT DUP5 DUP5 LT OR PUSH3 0xE3 JUMPI DUP1 DUP5 SWAP3 PUSH1 0x40 SWAP5 DUP6 MSTORE DUP4 CODECOPY DUP2 ADD SUB SLT PUSH3 0xDE JUMPI PUSH3 0x5A PUSH1 0x20 PUSH3 0x52 DUP4 PUSH3 0xF9 JUMP JUMPDEST SWAP3 ADD PUSH3 0xF9 JUMP JUMPDEST SWAP1 PUSH1 0x1 PUSH1 0x1 PUSH1 0xA0 SHL SUB SWAP1 DUP2 AND SWAP1 DUP2 ISZERO PUSH3 0xC5 JUMPI PUSH1 0x0 SLOAD SWAP3 PUSH1 0x1 DUP1 PUSH1 0xA0 SHL SUB NOT SWAP3 DUP1 DUP5 DUP7 AND OR PUSH1 0x0 SSTORE DUP3 PUSH1 0x40 MLOAD SWAP6 AND PUSH32 0x8BE0079C531659141344CD1FD0A4F28419497F9722A3DAAFE3B4186F6B6457E0 PUSH1 0x0 DUP1 LOG3 AND SWAP1 PUSH1 0x1 SLOAD AND OR PUSH1 0x1 SSTORE PUSH2 0x3430 SWAP1 DUP2 PUSH3 0x10F DUP3 CODECOPY RETURN JUMPDEST PUSH1 0x40 MLOAD PUSH4 0x1E4FBDF7 PUSH1 0xE0 SHL DUP2 MSTORE PUSH1 0x0 PUSH1 0x4 DUP3 ADD MSTORE PUSH1 0x24 SWAP1 REVERT JUMPDEST PUSH1 0x0 DUP1 REVERT JUMPDEST PUSH4 0x4E487B71 PUSH1 0xE0 SHL PUSH1 0x0 MSTORE PUSH1 0x41 PUSH1 0x4 MSTORE PUSH1 0x24 PUSH1 0x0 REVERT JUMPDEST MLOAD SWAP1 PUSH1 0x1 PUSH1 0x1 PUSH1 0xA0 SHL SUB DUP3 AND DUP3 SUB PUSH3 0xDE JUMPI JUMP INVALID PUSH1 0x80 DUP1 PUSH1 0x40 MSTORE PUSH1 0x4 CALLDATASIZE LT ISZERO PUSH2 0x13 JUMPI PUSH1 0x0 DUP1 REVERT JUMPDEST PUSH1 0x0 CALLDATALOAD PUSH1 0xE0 SHR SWAP1 DUP2 PUSH4 0x649E0C0 EQ PUSH2 0x2CEB JUMPI POP DUP1 PUSH4 0x110D05E5 EQ PUSH2 0x2CAE JUMPI DUP1 PUSH4 0x1C6E04DB EQ PUSH2 0x2C37 JUMPI DUP1 PUSH4 0x2053114D EQ PUSH2 0x2B55 JUMPI DUP1 PUSH4 0x25EC5EF1 EQ PUSH2 0x2B2A JUMPI DUP1 PUSH4 0x2D56657D EQ PUSH2 0x2A9F JUMPI DUP1 PUSH4 0x3D80D00B EQ PUSH2 0x2727 JUMPI DUP1 PUSH4 0x3F89EFDA EQ PUSH2 0x26A9 JUMPI DUP1 PUSH4 0x41ED2C12 EQ PUSH2 0x2680 JUMPI DUP1 PUSH4 0x4B669C09 EQ PUSH2 0x25F7 JUMPI DUP1 PUSH4 0x4E43603A EQ PUSH2 0x248F JUMPI DUP1 PUSH4 0x50AD34A1 EQ PUSH2 0x21A5 JUMPI DUP1 PUSH4 0x54488A5A EQ PUSH2 0x215D JUMPI DUP1 PUSH4 0x57F978AD EQ PUSH2 0x1FCF JUMPI DUP1 PUSH4 0x58057FE5 EQ PUSH2 0x1EAE JUMPI DUP1 PUSH4 0x5BE0A34B EQ PUSH2 0x1E16 JUMPI DUP1 PUSH4 0x61D442C2 EQ PUSH2 0x1D11 JUMPI DUP1 PUSH4 0x6B3B7EA7 EQ PUSH2 0x1CC7 JUMPI DUP1 PUSH4 0x6B4169C3 EQ PUSH2 0x1AA5 JUMPI DUP1 PUSH4 0x715018A6 EQ PUSH2 0x1A5E JUMPI DUP1 PUSH4 0x8068AA68 EQ PUSH2 0x1A14 JUMPI DUP1 PUSH4 0x80AA0D8C EQ PUSH2 0x1828 JUMPI DUP1 PUSH4 0x837CD235 EQ PUSH2 0x14AF JUMPI DUP1 PUSH4 0x8A65D874 EQ PUSH2 0x1406 JUMPI DUP1 PUSH4 0x8DA5CB5B EQ PUSH2 0x13DD JUMPI DUP1 PUSH4 0x8F46A5A1 EQ PUSH2 0x12C7 JUMPI DUP1 PUSH4 0x9B7BCD24 EQ PUSH2 0x112E JUMPI DUP1 PUSH4 0xA119515A EQ PUSH2 0xDD3 JUMPI DUP1 PUSH4 0xB2E1AE8B EQ PUSH2 0xA10 JUMPI DUP1 PUSH4 0xC228038D EQ PUSH2 0x772 JUMPI DUP1 PUSH4 0xCD94A775 EQ PUSH2 0x5E8 JUMPI DUP1 PUSH4 0xD82AFF11 EQ PUSH2 0x5A5 JUMPI DUP1 PUSH4 0xDA4473D8 EQ PUSH2 0x548 JUMPI DUP1 PUSH4 0xDB0F871D EQ PUSH2 0x54D JUMPI DUP1 PUSH4 0xE99C80BD EQ PUSH2 0x548 JUMPI DUP1 PUSH4 0xF054F00A EQ PUSH2 0x4B4 JUMPI DUP1 PUSH4 0xF2FDE38B EQ PUSH2 0x440 JUMPI DUP1 PUSH4 0xFBE15159 EQ PUSH2 0x24E JUMPI PUSH4 0xFF4A7300 EQ PUSH2 0x1CC JUMPI PUSH1 0x0 DUP1 REVERT JUMPDEST CALLVALUE PUSH2 0x249 JUMPI PUSH2 0x1DA CALLDATASIZE PUSH2 0x2DF1 JUMP JUMPDEST SWAP1 PUSH2 0x1F0 PUSH1 0x1 DUP1 PUSH1 0xA0 SHL SUB PUSH1 0x1 SLOAD AND CALLER EQ PUSH2 0x2ED8 JUMP JUMPDEST PUSH1 0x0 MSTORE PUSH1 0x3 PUSH1 0x20 MSTORE PUSH1 0x5 PUSH1 0x40 PUSH1 0x0 KECCAK256 PUSH1 0x7 DUP2 ADD PUSH1 0x1 PUSH1 0xFF NOT DUP3 SLOAD AND OR SWAP1 SSTORE TIMESTAMP PUSH1 0x6 DUP3 ADD SSTORE ADD SSTORE PUSH32 0x17D726AD382EA92487E2C4D01469C94FA17BEF35E71D3F4B5414159695C038D2 PUSH1 0x40 DUP1 MLOAD PUSH1 0x0 DUP2 MSTORE PUSH1 0x0 PUSH1 0x20 DUP3 ADD MSTORE LOG1 STOP JUMPDEST PUSH1 0x0 DUP1 REVERT JUMPDEST CALLVALUE PUSH2 0x249 JUMPI PUSH1 0x20 DUP1 PUSH1 0x3 NOT CALLDATASIZE ADD SLT PUSH2 0x249 JUMPI PUSH1 0x4 CALLDATALOAD SWAP1 PUSH1 0x40 MLOAD PUSH2 0x270 DUP2 PUSH2 0x2FBA JUMP JUMPDEST PUSH1 0x0 DUP2 MSTORE PUSH1 0x1 DUP1 SLOAD PUSH1 0x40 MLOAD PUSH4 0x1FCA74DD PUSH1 0xE3 SHL DUP2 MSTORE SWAP3 SWAP5 SWAP1 PUSH1 0x1 PUSH1 0x1 PUSH1 0xA0 SHL SUB AND DUP5 DUP5 PUSH1 0x4 DUP2 DUP5 GAS STATICCALL SWAP4 DUP5 ISZERO PUSH2 0x405 JUMPI PUSH1 0x0 SWAP5 PUSH2 0x411 JUMPI JUMPDEST POP DUP3 JUMPDEST DUP5 DUP2 LT PUSH2 0x2C9 JUMPI PUSH1 0x40 MLOAD DUP7 DUP2 MSTORE DUP1 PUSH2 0x2C5 DUP2 DUP10 ADD DUP11 PUSH2 0x2D3F JUMP JUMPDEST SUB SWAP1 RETURN JUMPDEST PUSH1 0x40 MLOAD PUSH4 0xEB44FDD3 PUSH1 0xE0 SHL DUP2 MSTORE PUSH1 0x4 DUP2 ADD DUP3 SWAP1 MSTORE PUSH1 0x24 SWAP1 PUSH1 0x0 DUP2 DUP4 DUP2 DUP8 GAS STATICCALL DUP1 ISZERO PUSH2 0x405 JUMPI PUSH2 0x180 SWAP2 PUSH1 0x0 SWAP2 PUSH2 0x3E2 JUMPI JUMPDEST POP ADD MLOAD PUSH1 0x5 DUP2 LT ISZERO PUSH2 0x3CD JUMPI ISZERO DUP1 PUSH2 0x3B6 JUMPI JUMPDEST PUSH2 0x321 JUMPI JUMPDEST POP PUSH2 0x31C SWAP1 PUSH2 0x2F34 JUMP JUMPDEST PUSH2 0x2AB JUMP JUMPDEST DUP8 SWAP2 SWAP8 MLOAD SWAP1 DUP6 DUP3 ADD DUP1 SWAP3 GT PUSH2 0x3A2 JUMPI POP SWAP1 DUP8 PUSH2 0x33D DUP7 SWAP4 PUSH2 0x32B3 JUMP JUMPDEST SWAP2 DUP4 PUSH1 0x0 SWAP5 JUMPDEST PUSH2 0x361 JUMPI JUMPDEST POP PUSH2 0x31C SWAP4 POP PUSH2 0x359 SWAP1 MLOAD DUP4 PUSH2 0x32E5 JUMP JUMPDEST MSTORE SWAP7 SWAP1 PUSH2 0x312 JUMP JUMPDEST SWAP2 DUP2 SWAP4 SWAP5 SWAP2 MLOAD DUP3 LT ISZERO PUSH2 0x398 JUMPI POP DUP1 PUSH2 0x37D PUSH2 0x38E SWAP3 DUP6 PUSH2 0x32E5 JUMP JUMPDEST MLOAD PUSH2 0x388 DUP3 DUP8 PUSH2 0x32E5 JUMP JUMPDEST MSTORE PUSH2 0x2F34 JUMP JUMPDEST SWAP3 SWAP2 DUP2 DUP11 SWAP3 PUSH2 0x343 JUMP JUMPDEST SWAP2 DUP5 SWAP4 SWAP2 POP PUSH2 0x348 JUMP JUMPDEST PUSH4 0x4E487B71 PUSH1 0xE0 SHL PUSH1 0x0 SWAP1 DUP2 MSTORE PUSH1 0x11 PUSH1 0x4 MSTORE REVERT JUMPDEST POP DUP2 PUSH1 0x0 MSTORE PUSH1 0x3 DUP8 MSTORE DUP4 PUSH1 0x40 PUSH1 0x0 KECCAK256 SLOAD LT ISZERO PUSH2 0x30D JUMP JUMPDEST POP PUSH4 0x4E487B71 PUSH1 0xE0 SHL PUSH1 0x0 SWAP1 DUP2 MSTORE PUSH1 0x21 PUSH1 0x4 MSTORE REVERT JUMPDEST PUSH2 0x3FF SWAP2 POP RETURNDATASIZE DUP1 PUSH1 0x0 DUP4 RETURNDATACOPY PUSH2 0x3F7 DUP2 DUP4 PUSH2 0x2FD5 JUMP JUMPDEST DUP2 ADD SWAP1 PUSH2 0x307B JUMP JUMPDEST DUP11 PUSH2 0x2FA JUMP JUMPDEST PUSH1 0x40 MLOAD RETURNDATASIZE PUSH1 0x0 DUP3 RETURNDATACOPY RETURNDATASIZE SWAP1 REVERT JUMPDEST SWAP1 SWAP4 POP DUP5 DUP2 DUP2 RETURNDATASIZE DUP4 GT PUSH2 0x439 JUMPI JUMPDEST PUSH2 0x429 DUP2 DUP4 PUSH2 0x2FD5 JUMP JUMPDEST DUP2 ADD SUB SLT PUSH2 0x249 JUMPI MLOAD SWAP3 DUP7 PUSH2 0x2A8 JUMP JUMPDEST POP RETURNDATASIZE PUSH2 0x41F JUMP JUMPDEST CALLVALUE PUSH2 0x249 JUMPI PUSH1 0x20 CALLDATASIZE PUSH1 0x3 NOT ADD SLT PUSH2 0x249 JUMPI PUSH2 0x459 PUSH2 0x2D9B JUMP JUMPDEST PUSH2 0x461 PUSH2 0x2EAC JUMP JUMPDEST PUSH1 0x1 PUSH1 0x1 PUSH1 0xA0 SHL SUB SWAP1 DUP2 AND SWAP1 DUP2 ISZERO PUSH2 0x49B JUMPI PUSH1 0x0 SLOAD DUP3 PUSH1 0x1 DUP1 PUSH1 0xA0 SHL SUB NOT DUP3 AND OR PUSH1 0x0 SSTORE AND PUSH1 0x0 DUP1 MLOAD PUSH1 0x20 PUSH2 0x33BB DUP4 CODECOPY DUP2 MLOAD SWAP2 MSTORE PUSH1 0x0 DUP1 LOG3 STOP JUMPDEST PUSH1 0x40 MLOAD PUSH4 0x1E4FBDF7 PUSH1 0xE0 SHL DUP2 MSTORE PUSH1 0x0 PUSH1 0x4 DUP3 ADD MSTORE PUSH1 0x24 SWAP1 REVERT JUMPDEST CALLVALUE PUSH2 0x249 JUMPI PUSH1 0x40 CALLDATASIZE PUSH1 0x3 NOT ADD SLT PUSH2 0x249 JUMPI PUSH2 0x4CD PUSH2 0x2DB1 JUMP JUMPDEST PUSH1 0x1 SLOAD PUSH1 0x1 PUSH1 0x1 PUSH1 0xA0 SHL SUB SWAP2 SWAP1 PUSH2 0x4E7 SWAP1 DUP4 AND CALLER EQ PUSH2 0x2ED8 JUMP JUMPDEST AND DUP1 PUSH1 0x0 MSTORE PUSH1 0x2 PUSH1 0x20 MSTORE PUSH1 0x0 DUP1 MLOAD PUSH1 0x20 PUSH2 0x339B DUP4 CODECOPY DUP2 MLOAD SWAP2 MSTORE PUSH1 0x40 DUP1 PUSH1 0x0 KECCAK256 PUSH1 0x6 DUP2 ADD PUSH2 0x514 DUP2 SLOAD PUSH2 0x2F34 JUMP JUMPDEST SWAP1 SSTORE TIMESTAMP PUSH1 0xA DUP3 ADD SSTORE DUP4 PUSH1 0x0 MSTORE PUSH1 0x4 PUSH1 0x20 MSTORE PUSH2 0x534 PUSH1 0x4 CALLDATALOAD DUP4 PUSH1 0x0 KECCAK256 PUSH2 0x3025 JUMP JUMPDEST PUSH1 0x3 DUP2 SLOAD SWAP2 ADD SLOAD DUP3 MLOAD SWAP2 DUP3 MSTORE PUSH1 0x20 DUP3 ADD MSTORE LOG2 STOP JUMPDEST PUSH2 0x2E35 JUMP JUMPDEST CALLVALUE PUSH2 0x249 JUMPI PUSH1 0x40 CALLDATASIZE PUSH1 0x3 NOT ADD SLT PUSH2 0x249 JUMPI PUSH2 0x566 PUSH2 0x2D9B JUMP JUMPDEST PUSH1 0x1 PUSH1 0x1 PUSH1 0xA0 SHL SUB AND PUSH1 0x0 SWAP1 DUP2 MSTORE PUSH1 0x4 PUSH1 0x20 MSTORE PUSH1 0x40 SWAP1 KECCAK256 DUP1 SLOAD PUSH1 0x24 CALLDATALOAD SWAP2 SWAP1 DUP3 LT ISZERO PUSH2 0x249 JUMPI PUSH1 0x20 SWAP2 PUSH2 0x597 SWAP2 PUSH2 0x2E07 JUMP JUMPDEST SWAP1 SLOAD PUSH1 0x40 MLOAD SWAP2 PUSH1 0x3 SHL SHR DUP2 MSTORE RETURN JUMPDEST CALLVALUE PUSH2 0x249 JUMPI PUSH1 0x20 CALLDATASIZE PUSH1 0x3 NOT ADD SLT PUSH2 0x249 JUMPI PUSH2 0x5BE PUSH2 0x2D9B JUMP JUMPDEST PUSH2 0x5C6 PUSH2 0x2EAC JUMP JUMPDEST PUSH1 0x1 DUP1 SLOAD PUSH1 0x1 PUSH1 0x1 PUSH1 0xA0 SHL SUB NOT AND PUSH1 0x1 PUSH1 0x1 PUSH1 0xA0 SHL SUB SWAP3 SWAP1 SWAP3 AND SWAP2 SWAP1 SWAP2 OR SWAP1 SSTORE STOP JUMPDEST CALLVALUE PUSH2 0x249 JUMPI PUSH1 0x20 DUP1 PUSH1 0x3 NOT CALLDATASIZE ADD SLT PUSH2 0x249 JUMPI PUSH2 0x602 PUSH2 0x2D9B JUMP JUMPDEST SWAP1 PUSH1 0x40 MLOAD PUSH2 0x60F DUP2 PUSH2 0x2FBA JUMP JUMPDEST PUSH1 0x0 DUP2 MSTORE PUSH1 0x1 DUP1 SLOAD PUSH1 0x40 MLOAD PUSH4 0x1FCA74DD PUSH1 0xE3 SHL DUP2 MSTORE SWAP3 SWAP5 SWAP3 SWAP1 PUSH1 0x1 PUSH1 0x1 PUSH1 0xA0 SHL SUB SWAP1 DUP2 AND DUP6 DUP4 PUSH1 0x4 DUP2 DUP5 GAS STATICCALL SWAP3 DUP4 ISZERO PUSH2 0x405 JUMPI PUSH1 0x0 SWAP4 PUSH2 0x743 JUMPI JUMPDEST POP SWAP2 SWAP4 DUP2 AND SWAP2 DUP4 JUMPDEST DUP6 DUP2 LT PUSH2 0x66C JUMPI PUSH1 0x40 MLOAD DUP8 DUP2 MSTORE DUP1 PUSH2 0x2C5 DUP2 DUP11 ADD DUP12 PUSH2 0x2D3F JUMP JUMPDEST PUSH1 0x40 MLOAD PUSH4 0xEB44FDD3 PUSH1 0xE0 SHL DUP2 MSTORE PUSH1 0x4 DUP2 ADD DUP3 SWAP1 MSTORE PUSH1 0x24 SWAP1 PUSH1 0x0 DUP2 DUP4 DUP2 DUP8 GAS STATICCALL DUP1 ISZERO PUSH2 0x405 JUMPI PUSH1 0x80 DUP7 SWAP2 DUP9 SWAP4 PUSH1 0x0 SWAP2 PUSH2 0x728 JUMPI JUMPDEST POP ADD MLOAD AND EQ PUSH2 0x6B8 JUMPI JUMPDEST POP PUSH2 0x6B3 SWAP1 PUSH2 0x2F34 JUMP JUMPDEST PUSH2 0x652 JUMP JUMPDEST DUP9 SWAP2 SWAP9 MLOAD SWAP1 DUP7 DUP3 ADD DUP1 SWAP3 GT PUSH2 0x3A2 JUMPI POP SWAP1 DUP9 PUSH2 0x6D4 DUP8 SWAP4 PUSH2 0x32B3 JUMP JUMPDEST SWAP2 DUP4 PUSH1 0x0 SWAP5 JUMPDEST PUSH2 0x6F8 JUMPI JUMPDEST POP PUSH2 0x6B3 SWAP4 POP PUSH2 0x6F0 SWAP1 MLOAD DUP4 PUSH2 0x32E5 JUMP JUMPDEST MSTORE SWAP8 SWAP1 PUSH2 0x6A9 JUMP JUMPDEST SWAP2 DUP2 SWAP4 SWAP5 SWAP2 MLOAD DUP3 LT ISZERO PUSH2 0x71E JUMPI POP DUP1 PUSH2 0x37D PUSH2 0x714 SWAP3 DUP6 PUSH2 0x32E5 JUMP JUMPDEST SWAP3 SWAP2 DUP2 DUP12 SWAP3 PUSH2 0x6DA JUMP JUMPDEST SWAP2 DUP5 SWAP4 SWAP2 POP PUSH2 0x6DF JUMP JUMPDEST PUSH2 0x73D SWAP2 POP RETURNDATASIZE DUP1 PUSH1 0x0 DUP4 RETURNDATACOPY PUSH2 0x3F7 DUP2 DUP4 PUSH2 0x2FD5 JUMP JUMPDEST DUP14 PUSH2 0x69F JUMP JUMPDEST SWAP1 SWAP3 POP DUP6 DUP2 DUP2 RETURNDATASIZE DUP4 GT PUSH2 0x76B JUMPI JUMPDEST PUSH2 0x75B DUP2 DUP4 PUSH2 0x2FD5 JUMP JUMPDEST DUP2 ADD SUB SLT PUSH2 0x249 JUMPI MLOAD SWAP2 DUP8 PUSH2 0x64A JUMP JUMPDEST POP RETURNDATASIZE PUSH2 0x751 JUMP JUMPDEST CALLVALUE PUSH2 0x249 JUMPI PUSH1 0x80 CALLDATASIZE PUSH1 0x3 NOT ADD SLT PUSH2 0x249 JUMPI PUSH1 0x4 CALLDATALOAD PUSH1 0x24 PUSH2 0x790 PUSH2 0x2DB1 JUMP JUMPDEST PUSH1 0x1 SLOAD PUSH1 0x64 CALLDATALOAD SWAP2 PUSH1 0x1 PUSH1 0x1 PUSH1 0xA0 SHL SUB SWAP2 PUSH1 0x44 CALLDATALOAD SWAP2 DUP4 SWAP2 PUSH2 0x7B3 SWAP1 DUP4 AND CALLER EQ PUSH2 0x2ED8 JUMP JUMPDEST AND SWAP1 DUP2 PUSH1 0x0 MSTORE PUSH1 0x20 SWAP4 PUSH1 0x2 DUP6 MSTORE PUSH1 0x40 PUSH1 0x0 KECCAK256 SWAP2 PUSH2 0x7D0 DUP4 SLOAD PUSH2 0x2F34 JUMP JUMPDEST DUP4 SSTORE PUSH1 0x4 DUP4 ADD PUSH2 0x7E1 DUP4 DUP3 SLOAD PUSH2 0x2F43 JUMP JUMPDEST SWAP1 SSTORE TIMESTAMP PUSH1 0xA DUP5 ADD SSTORE DUP4 PUSH1 0x0 MSTORE PUSH1 0x7 DUP7 MSTORE PUSH1 0x40 PUSH1 0x0 KECCAK256 DUP2 PUSH1 0x0 MSTORE DUP7 MSTORE PUSH1 0x40 PUSH1 0x0 KECCAK256 PUSH2 0x80B DUP2 SLOAD PUSH2 0x2F34 JUMP JUMPDEST SWAP1 SSTORE DUP4 PUSH1 0x0 MSTORE PUSH1 0x7 DUP7 MSTORE PUSH1 0x40 PUSH1 0x0 KECCAK256 DUP2 PUSH1 0x0 MSTORE DUP7 MSTORE PUSH1 0x40 PUSH1 0x0 KECCAK256 SLOAD DUP5 PUSH1 0x0 MSTORE PUSH1 0x7 DUP8 MSTORE PUSH1 0x40 PUSH1 0x0 KECCAK256 SWAP1 PUSH1 0x9 DUP6 ADD SWAP2 DUP3 SLOAD PUSH1 0x0 MSTORE DUP9 MSTORE PUSH1 0x40 PUSH1 0x0 KECCAK256 SLOAD LT PUSH2 0xA08 JUMPI JUMPDEST POP POP DUP7 PUSH1 0x0 MSTORE PUSH1 0x3 DUP6 MSTORE PUSH1 0x40 PUSH1 0x0 KECCAK256 SWAP4 DUP6 PUSH2 0x868 DUP4 DUP8 SLOAD PUSH2 0x2F43 JUMP JUMPDEST SWAP2 DUP3 DUP8 SSTORE PUSH1 0x1 SLOAD AND PUSH1 0x40 MLOAD SWAP9 DUP10 DUP1 SWAP3 PUSH4 0xCCF4467 PUSH1 0xE0 SHL DUP3 MSTORE DUP13 PUSH1 0x4 DUP4 ADD MSTORE GAS STATICCALL SWAP7 DUP8 ISZERO PUSH2 0x405 JUMPI PUSH1 0x0 SWAP8 PUSH2 0x9D9 JUMPI JUMPDEST POP PUSH1 0x1 DUP6 ADD DUP8 DUP2 SSTORE SWAP7 DUP1 ISZERO PUSH2 0x9D0 JUMPI PUSH2 0x8B0 SWAP2 PUSH2 0x2FF8 JUMP JUMPDEST PUSH1 0x3 DUP6 ADD SSTORE PUSH1 0x4 DUP5 ADD DUP1 SLOAD DUP3 GT PUSH2 0x9C8 JUMPI JUMPDEST POP POP DUP2 PUSH1 0x0 MSTORE PUSH1 0x4 DUP5 MSTORE PUSH1 0x40 PUSH1 0x0 KECCAK256 DUP1 SLOAD SWAP1 DUP2 ISZERO SWAP2 DUP3 ISZERO PUSH2 0x95B JUMPI JUMPDEST POP POP SWAP2 PUSH1 0x0 DUP1 MLOAD PUSH1 0x20 PUSH2 0x339B DUP4 CODECOPY DUP2 MLOAD SWAP2 MSTORE PUSH1 0x40 PUSH1 0x0 DUP1 MLOAD PUSH1 0x20 PUSH2 0x33DB DUP4 CODECOPY DUP2 MLOAD SWAP2 MSTORE SWAP8 SWAP6 SWAP4 DUP2 SWAP8 SWAP6 PUSH2 0x941 JUMPI JUMPDEST DUP4 PUSH1 0x0 MSTORE PUSH1 0x5 DUP7 MSTORE PUSH2 0x921 DUP11 DUP4 PUSH1 0x0 KECCAK256 PUSH2 0x3025 JUMP JUMPDEST PUSH1 0x3 DUP2 SLOAD SWAP2 ADD SLOAD DUP3 MLOAD SWAP2 DUP3 MSTORE DUP7 DUP3 ADD MSTORE LOG2 SLOAD SWAP2 SLOAD SWAP1 DUP4 MLOAD SWAP3 DUP4 MSTORE DUP3 ADD MSTORE LOG2 STOP JUMPDEST DUP4 PUSH1 0x0 MSTORE PUSH1 0x4 DUP7 MSTORE PUSH2 0x956 DUP11 DUP4 PUSH1 0x0 KECCAK256 PUSH2 0x3025 JUMP JUMPDEST PUSH2 0x90C JUMP JUMPDEST SWAP1 SWAP7 SWAP5 SWAP3 SWAP6 SWAP4 SWAP2 POP PUSH1 0x0 NOT DUP2 ADD SWAP1 DUP2 GT PUSH2 0x9B2 JUMPI PUSH1 0x40 DUP1 SWAP7 DUP10 PUSH2 0x99C PUSH1 0x0 DUP1 MLOAD PUSH1 0x20 PUSH2 0x339B DUP4 CODECOPY DUP2 MLOAD SWAP2 MSTORE SWAP5 PUSH1 0x0 DUP1 MLOAD PUSH1 0x20 PUSH2 0x33DB DUP4 CODECOPY DUP2 MLOAD SWAP2 MSTORE SWAP12 PUSH2 0x2E07 JUMP JUMPDEST SWAP1 SLOAD SWAP1 PUSH1 0x3 SHL SHR EQ ISZERO SWAP4 SWAP6 SWAP8 POP SWAP4 SWAP6 SWAP8 POP PUSH2 0x8DE JUMP JUMPDEST PUSH4 0x4E487B71 PUSH1 0xE0 SHL PUSH1 0x0 MSTORE PUSH1 0x11 PUSH1 0x4 MSTORE PUSH1 0x24 PUSH1 0x0 REVERT JUMPDEST SSTORE DUP7 DUP1 PUSH2 0x8C2 JUMP JUMPDEST POP POP PUSH1 0x0 PUSH2 0x8B0 JUMP JUMPDEST SWAP1 SWAP7 POP DUP6 DUP2 DUP2 RETURNDATASIZE DUP4 GT PUSH2 0xA01 JUMPI JUMPDEST PUSH2 0x9F1 DUP2 DUP4 PUSH2 0x2FD5 JUMP JUMPDEST DUP2 ADD SUB SLT PUSH2 0x249 JUMPI MLOAD SWAP6 DUP9 PUSH2 0x898 JUMP JUMPDEST POP RETURNDATASIZE PUSH2 0x9E7 JUMP JUMPDEST SSTORE DUP8 DUP1 PUSH2 0x84C JUMP JUMPDEST CALLVALUE PUSH2 0x249 JUMPI PUSH1 0x20 DUP1 PUSH1 0x3 NOT CALLDATASIZE ADD SLT PUSH2 0x249 JUMPI PUSH1 0x1 DUP1 SLOAD PUSH1 0x40 MLOAD PUSH4 0x1FCA74DD PUSH1 0xE3 SHL DUP2 MSTORE PUSH1 0x1 PUSH1 0x1 PUSH1 0xA0 SHL SUB SWAP1 SWAP2 AND SWAP3 SWAP2 SWAP1 DUP3 DUP2 PUSH1 0x4 DUP2 DUP8 GAS STATICCALL SWAP1 DUP2 ISZERO PUSH2 0x405 JUMPI PUSH1 0x0 SWAP2 PUSH2 0xDA6 JUMPI JUMPDEST POP PUSH1 0x40 MLOAD PUSH2 0xA65 DUP2 PUSH2 0x2FBA JUMP JUMPDEST PUSH1 0x0 DUP2 MSTORE SWAP4 PUSH1 0x40 MLOAD PUSH2 0xA76 DUP2 PUSH2 0x2FBA JUMP JUMPDEST PUSH1 0x0 DUP2 MSTORE SWAP4 DUP4 JUMPDEST DUP4 DUP2 LT PUSH2 0xC18 JUMPI POP POP POP POP DUP1 PUSH1 0x0 SWAP1 JUMPDEST PUSH2 0xB19 JUMPI JUMPDEST POP POP PUSH1 0x4 CALLDATALOAD DUP1 ISZERO ISZERO DUP1 PUSH2 0xB0F JUMPI JUMPDEST ISZERO PUSH2 0xB07 JUMPI JUMPDEST PUSH2 0xAAF DUP2 PUSH2 0x32B3 JUMP JUMPDEST SWAP2 PUSH2 0xAB9 DUP3 PUSH2 0x32B3 JUMP JUMPDEST SWAP4 PUSH1 0x0 JUMPDEST DUP4 DUP2 LT PUSH2 0xAD3 JUMPI PUSH1 0x40 MLOAD DUP1 PUSH2 0x2C5 DUP9 DUP9 DUP4 PUSH2 0x2D73 JUMP JUMPDEST DUP1 PUSH2 0xAE1 PUSH2 0xB02 SWAP3 DUP5 PUSH2 0x32E5 JUMP JUMPDEST MLOAD PUSH2 0xAEC DUP3 DUP9 PUSH2 0x32E5 JUMP JUMPDEST MSTORE PUSH2 0xAF7 DUP2 DUP6 PUSH2 0x32E5 JUMP JUMPDEST MLOAD PUSH2 0x388 DUP3 DUP10 PUSH2 0x32E5 JUMP JUMPDEST PUSH2 0xABD JUMP JUMPDEST POP DUP2 MLOAD PUSH2 0xAA6 JUMP JUMPDEST POP DUP3 MLOAD DUP2 LT PUSH2 0xAA0 JUMP JUMPDEST DUP4 MLOAD PUSH1 0x0 NOT SWAP1 DUP2 DUP2 ADD SWAP1 DUP2 GT PUSH2 0x9B2 JUMPI DUP3 LT ISZERO PUSH2 0xC12 JUMPI PUSH1 0x0 SWAP1 DUP4 JUMPDEST PUSH2 0xB4C JUMPI JUMPDEST POP POP PUSH2 0xB46 DUP3 SWAP2 PUSH2 0x2F34 JUMP JUMPDEST SWAP1 PUSH2 0xA8D JUMP JUMPDEST PUSH2 0xB5C DUP4 DUP8 SWAP5 SWAP7 SWAP4 SWAP6 SWAP8 MLOAD PUSH2 0x3018 JUMP JUMPDEST DUP2 DUP2 ADD SWAP1 DUP2 GT PUSH2 0x9B2 JUMPI DUP5 LT ISZERO PUSH2 0xC07 JUMPI PUSH2 0xB77 DUP5 DUP4 PUSH2 0x32E5 JUMP JUMPDEST MLOAD DUP7 DUP6 ADD SWAP5 DUP6 DUP2 GT PUSH2 0x9B2 JUMPI DUP6 PUSH2 0xBA0 SWAP3 PUSH2 0xB93 DUP11 SWAP9 DUP8 PUSH2 0x32E5 JUMP JUMPDEST MLOAD GT PUSH2 0xBA9 JUMPI JUMPDEST POP PUSH2 0x2F34 JUMP JUMPDEST SWAP2 SWAP5 SWAP3 SWAP6 PUSH2 0xB35 JUMP JUMPDEST PUSH2 0xBB3 DUP3 DUP7 PUSH2 0x32E5 JUMP JUMPDEST MLOAD PUSH2 0xBBE DUP3 DUP8 PUSH2 0x32E5 JUMP JUMPDEST MLOAD PUSH2 0xBC9 DUP5 DUP9 PUSH2 0x32E5 JUMP JUMPDEST MSTORE PUSH2 0xBD4 DUP3 DUP8 PUSH2 0x32E5 JUMP JUMPDEST MSTORE PUSH2 0xC00 PUSH2 0xBE2 DUP4 DUP9 PUSH2 0x32E5 JUMP JUMPDEST MLOAD SWAP2 PUSH2 0xBEE DUP2 DUP10 PUSH2 0x32E5 JUMP JUMPDEST MLOAD PUSH2 0xBF9 DUP6 DUP11 PUSH2 0x32E5 JUMP JUMPDEST MSTORE DUP8 PUSH2 0x32E5 JUMP JUMPDEST MSTORE DUP9 PUSH2 0xB9A JUMP JUMPDEST DUP2 SWAP5 SWAP3 SWAP6 SWAP4 POP PUSH2 0xB3A JUMP JUMPDEST POP PUSH2 0xA92 JUMP JUMPDEST PUSH1 0x40 MLOAD PUSH4 0xEB44FDD3 PUSH1 0xE0 SHL DUP2 MSTORE PUSH1 0x4 DUP2 ADD DUP3 SWAP1 MSTORE PUSH1 0x24 SWAP1 PUSH1 0x0 DUP2 DUP4 DUP2 DUP9 GAS STATICCALL DUP1 ISZERO PUSH2 0x405 JUMPI PUSH2 0x180 SWAP2 PUSH1 0x0 SWAP2 PUSH2 0xD8B JUMPI JUMPDEST POP ADD MLOAD PUSH1 0x5 DUP2 LT ISZERO PUSH2 0x3CD JUMPI ISZERO PUSH2 0xC6A JUMPI JUMPDEST POP PUSH2 0xC65 SWAP1 PUSH2 0x2F34 JUMP JUMPDEST PUSH2 0xA7D JUMP JUMPDEST SWAP1 SWAP6 PUSH1 0x40 MLOAD SWAP1 PUSH4 0xCCF4467 PUSH1 0xE0 SHL DUP3 MSTORE DUP8 PUSH1 0x4 DUP4 ADD MSTORE DUP4 DUP3 DUP5 DUP2 DUP9 GAS STATICCALL SWAP2 DUP3 ISZERO PUSH2 0x405 JUMPI PUSH1 0x0 SWAP3 PUSH2 0xD5C JUMPI JUMPDEST POP DUP9 MLOAD DUP8 DUP2 ADD DUP1 SWAP2 GT PUSH2 0xD47 JUMPI PUSH2 0xCAC SWAP1 PUSH2 0x32B3 JUMP JUMPDEST SWAP3 DUP2 MLOAD SWAP1 DUP9 DUP3 ADD DUP1 SWAP3 GT PUSH2 0x3A2 JUMPI POP PUSH2 0xCC5 DUP10 SWAP2 PUSH2 0x32B3 JUMP JUMPDEST SWAP10 DUP9 PUSH1 0x0 DUP2 JUMPDEST PUSH2 0xCF8 JUMPI JUMPDEST POP POP SWAP2 PUSH2 0xCEF SWAP2 PUSH2 0xCE7 PUSH2 0xC65 SWAP7 SWAP6 SWAP5 MLOAD DUP7 PUSH2 0x32E5 JUMP JUMPDEST MSTORE MLOAD DUP11 PUSH2 0x32E5 JUMP JUMPDEST MSTORE SWAP7 SWAP6 SWAP1 PUSH2 0xC5B JUMP JUMPDEST SWAP1 SWAP2 SWAP3 DUP4 MLOAD DUP3 LT ISZERO PUSH2 0xD3F JUMPI POP DUP1 PUSH2 0xD13 PUSH2 0xD35 SWAP3 DUP6 PUSH2 0x32E5 JUMP JUMPDEST MLOAD PUSH2 0xD1E DUP3 DUP10 PUSH2 0x32E5 JUMP JUMPDEST MSTORE DUP13 PUSH2 0x388 DUP3 PUSH2 0xD2E DUP2 DUP10 PUSH2 0x32E5 JUMP JUMPDEST MLOAD SWAP3 PUSH2 0x32E5 JUMP JUMPDEST SWAP1 DUP11 SWAP3 SWAP2 DUP2 PUSH2 0xCCB JUMP JUMPDEST SWAP3 SWAP2 SWAP1 PUSH2 0xCD0 JUMP JUMPDEST DUP4 PUSH4 0x4E487B71 PUSH1 0xE0 SHL PUSH1 0x0 MSTORE PUSH1 0x11 PUSH1 0x4 MSTORE PUSH1 0x0 REVERT JUMPDEST SWAP1 SWAP2 POP DUP4 DUP2 DUP2 RETURNDATASIZE DUP4 GT PUSH2 0xD84 JUMPI JUMPDEST PUSH2 0xD74 DUP2 DUP4 PUSH2 0x2FD5 JUMP JUMPDEST DUP2 ADD SUB SLT PUSH2 0x249 JUMPI MLOAD SWAP1 DUP10 PUSH2 0xC96 JUMP JUMPDEST POP RETURNDATASIZE PUSH2 0xD6A JUMP JUMPDEST PUSH2 0xDA0 SWAP2 POP RETURNDATASIZE DUP1 PUSH1 0x0 DUP4 RETURNDATACOPY PUSH2 0x3F7 DUP2 DUP4 PUSH2 0x2FD5 JUMP JUMPDEST DUP11 PUSH2 0xC49 JUMP JUMPDEST SWAP1 POP DUP3 DUP2 DUP2 RETURNDATASIZE DUP4 GT PUSH2 0xDCC JUMPI JUMPDEST PUSH2 0xDBD DUP2 DUP4 PUSH2 0x2FD5 JUMP JUMPDEST DUP2 ADD SUB SLT PUSH2 0x249 JUMPI MLOAD DUP5 PUSH2 0xA58 JUMP JUMPDEST POP RETURNDATASIZE PUSH2 0xDB3 JUMP JUMPDEST CALLVALUE PUSH2 0x249 JUMPI PUSH1 0x20 DUP1 PUSH1 0x3 NOT CALLDATASIZE ADD SLT PUSH2 0x249 JUMPI PUSH1 0x1 DUP1 SLOAD PUSH1 0x40 MLOAD PUSH4 0x1FCA74DD PUSH1 0xE3 SHL DUP2 MSTORE PUSH1 0x1 PUSH1 0x1 PUSH1 0xA0 SHL SUB SWAP1 SWAP2 AND SWAP2 SWAP1 DUP4 DUP2 PUSH1 0x4 DUP2 DUP7 GAS STATICCALL SWAP1 DUP2 ISZERO PUSH2 0x405 JUMPI PUSH1 0x0 SWAP2 PUSH2 0x1101 JUMPI JUMPDEST POP PUSH1 0x40 MLOAD PUSH2 0xE27 DUP2 PUSH2 0x2FBA JUMP JUMPDEST PUSH1 0x0 DUP2 MSTORE SWAP4 PUSH1 0x40 MLOAD PUSH2 0xE38 DUP2 PUSH2 0x2FBA JUMP JUMPDEST PUSH1 0x0 DUP2 MSTORE SWAP4 DUP4 JUMPDEST DUP4 DUP2 LT PUSH2 0xF4E JUMPI POP POP POP POP DUP1 PUSH1 0x0 SWAP1 JUMPDEST PUSH2 0xEBA JUMPI JUMPDEST POP POP PUSH1 0x4 CALLDATALOAD DUP1 ISZERO ISZERO DUP1 PUSH2 0xEB0 JUMPI JUMPDEST ISZERO PUSH2 0xEA8 JUMPI JUMPDEST PUSH2 0xE71 DUP2 PUSH2 0x32B3 JUMP JUMPDEST SWAP2 PUSH2 0xE7B DUP3 PUSH2 0x32B3 JUMP JUMPDEST SWAP4 PUSH1 0x0 JUMPDEST DUP4 DUP2 LT PUSH2 0xE95 JUMPI PUSH1 0x40 MLOAD DUP1 PUSH2 0x2C5 DUP9 DUP9 DUP4 PUSH2 0x2D73 JUMP JUMPDEST DUP1 PUSH2 0xAE1 PUSH2 0xEA3 SWAP3 DUP5 PUSH2 0x32E5 JUMP JUMPDEST PUSH2 0xE7F JUMP JUMPDEST POP DUP2 MLOAD PUSH2 0xE68 JUMP JUMPDEST POP DUP3 MLOAD DUP2 LT PUSH2 0xE62 JUMP JUMPDEST DUP4 MLOAD PUSH1 0x0 NOT SWAP1 DUP2 DUP2 ADD SWAP1 DUP2 GT PUSH2 0x9B2 JUMPI DUP3 LT ISZERO PUSH2 0xF48 JUMPI PUSH1 0x0 SWAP1 DUP4 JUMPDEST PUSH2 0xEED JUMPI JUMPDEST POP POP PUSH2 0xEE7 DUP3 SWAP2 PUSH2 0x2F34 JUMP JUMPDEST SWAP1 PUSH2 0xE4F JUMP JUMPDEST PUSH2 0xEFD DUP4 DUP8 SWAP5 SWAP7 SWAP4 SWAP6 SWAP8 MLOAD PUSH2 0x3018 JUMP JUMPDEST DUP2 DUP2 ADD SWAP1 DUP2 GT PUSH2 0x9B2 JUMPI DUP5 LT ISZERO PUSH2 0xF3D JUMPI PUSH2 0xF18 DUP5 DUP4 PUSH2 0x32E5 JUMP JUMPDEST MLOAD DUP7 DUP6 ADD SWAP5 DUP6 DUP2 GT PUSH2 0x9B2 JUMPI DUP6 PUSH2 0xF34 SWAP3 PUSH2 0xB93 DUP11 SWAP9 DUP8 PUSH2 0x32E5 JUMP JUMPDEST SWAP2 SWAP5 SWAP3 SWAP6 PUSH2 0xED6 JUMP JUMPDEST DUP2 SWAP5 SWAP3 SWAP6 SWAP4 POP PUSH2 0xEDB JUMP JUMPDEST POP PUSH2 0xE54 JUMP JUMPDEST PUSH1 0x40 MLOAD PUSH4 0xEB44FDD3 PUSH1 0xE0 SHL DUP2 MSTORE PUSH1 0x4 DUP2 ADD DUP3 SWAP1 MSTORE PUSH1 0x24 SWAP1 PUSH1 0x0 DUP2 DUP4 DUP2 DUP8 GAS STATICCALL DUP1 ISZERO PUSH2 0x405 JUMPI PUSH2 0x180 SWAP2 PUSH1 0x0 SWAP2 PUSH2 0x10E6 JUMPI JUMPDEST POP ADD MLOAD PUSH1 0x5 DUP2 LT ISZERO PUSH2 0x3CD JUMPI ISZERO PUSH2 0xFA0 JUMPI JUMPDEST POP PUSH2 0xF9B SWAP1 PUSH2 0x2F34 JUMP JUMPDEST PUSH2 0xE3F JUMP JUMPDEST SWAP1 SWAP6 PUSH1 0x40 MLOAD PUSH4 0xCCF4467 PUSH1 0xE0 SHL DUP2 MSTORE DUP8 PUSH1 0x4 DUP3 ADD MSTORE DUP5 DUP2 DUP5 DUP2 DUP8 GAS STATICCALL SWAP1 DUP2 ISZERO PUSH2 0x405 JUMPI PUSH1 0x0 SWAP2 PUSH2 0x10B9 JUMPI JUMPDEST POP PUSH1 0x40 MLOAD PUSH4 0x28C28245 PUSH1 0xE2 SHL DUP2 MSTORE PUSH1 0x4 DUP2 ADD DUP10 SWAP1 MSTORE SWAP1 DUP6 DUP3 DUP6 DUP2 DUP9 GAS STATICCALL SWAP1 DUP2 ISZERO PUSH2 0x405 JUMPI PUSH1 0x0 SWAP2 PUSH2 0x1088 JUMPI JUMPDEST PUSH2 0x1001 SWAP3 POP PUSH2 0x2F43 JUMP JUMPDEST SWAP1 DUP9 MLOAD DUP8 DUP2 ADD DUP1 SWAP2 GT PUSH2 0xD47 JUMPI PUSH2 0x1017 SWAP1 PUSH2 0x32B3 JUMP JUMPDEST SWAP3 DUP2 MLOAD SWAP1 DUP9 DUP3 ADD DUP1 SWAP3 GT PUSH2 0x3A2 JUMPI POP PUSH2 0x1030 DUP10 SWAP2 PUSH2 0x32B3 JUMP JUMPDEST SWAP10 DUP9 PUSH1 0x0 DUP2 JUMPDEST PUSH2 0x105B JUMPI JUMPDEST POP POP SWAP2 PUSH2 0x1052 SWAP2 PUSH2 0xCE7 PUSH2 0xF9B SWAP7 SWAP6 SWAP5 MLOAD DUP7 PUSH2 0x32E5 JUMP JUMPDEST MSTORE SWAP7 SWAP6 SWAP1 PUSH2 0xF91 JUMP JUMPDEST SWAP1 SWAP2 SWAP3 DUP4 MLOAD DUP3 LT ISZERO PUSH2 0x1080 JUMPI POP DUP1 PUSH2 0xD13 PUSH2 0x1076 SWAP3 DUP6 PUSH2 0x32E5 JUMP JUMPDEST SWAP1 DUP11 SWAP3 SWAP2 DUP2 PUSH2 0x1036 JUMP JUMPDEST SWAP3 SWAP2 SWAP1 PUSH2 0x103B JUMP JUMPDEST SWAP1 POP DUP6 DUP3 DUP2 RETURNDATASIZE DUP4 GT PUSH2 0x10B2 JUMPI JUMPDEST PUSH2 0x109F DUP2 DUP4 PUSH2 0x2FD5 JUMP JUMPDEST DUP2 ADD SUB SLT PUSH2 0x249 JUMPI PUSH2 0x1001 SWAP2 MLOAD SWAP1 PUSH2 0xFF7 JUMP JUMPDEST POP RETURNDATASIZE PUSH2 0x1095 JUMP JUMPDEST SWAP1 POP DUP5 DUP2 DUP2 RETURNDATASIZE DUP4 GT PUSH2 0x10DF JUMPI JUMPDEST PUSH2 0x10D0 DUP2 DUP4 PUSH2 0x2FD5 JUMP JUMPDEST DUP2 ADD SUB SLT PUSH2 0x249 JUMPI MLOAD DUP10 PUSH2 0xFCB JUMP JUMPDEST POP RETURNDATASIZE PUSH2 0x10C6 JUMP JUMPDEST PUSH2 0x10FB SWAP2 POP RETURNDATASIZE DUP1 PUSH1 0x0 DUP4 RETURNDATACOPY PUSH2 0x3F7 DUP2 DUP4 PUSH2 0x2FD5 JUMP JUMPDEST DUP11 PUSH2 0xF7F JUMP JUMPDEST SWAP1 POP DUP4 DUP2 DUP2 RETURNDATASIZE DUP4 GT PUSH2 0x1127 JUMPI JUMPDEST PUSH2 0x1118 DUP2 DUP4 PUSH2 0x2FD5 JUMP JUMPDEST DUP2 ADD SUB SLT PUSH2 0x249 JUMPI MLOAD DUP5 PUSH2 0xE1A JUMP JUMPDEST POP RETURNDATASIZE PUSH2 0x110E JUMP JUMPDEST CALLVALUE PUSH2 0x249 JUMPI PUSH1 0x20 DUP1 PUSH1 0x3 NOT CALLDATASIZE ADD SLT PUSH2 0x249 JUMPI PUSH1 0x4 CALLDATALOAD SWAP1 PUSH1 0x5 DUP1 DUP4 LT ISZERO SWAP1 DUP2 PUSH2 0x249 JUMPI PUSH1 0x40 MLOAD PUSH2 0x115C DUP2 PUSH2 0x2FBA JUMP JUMPDEST PUSH1 0x0 DUP2 MSTORE PUSH1 0x1 DUP1 SLOAD PUSH1 0x40 MLOAD PUSH4 0x1FCA74DD PUSH1 0xE3 SHL DUP2 MSTORE SWAP3 SWAP7 SWAP3 SWAP5 SWAP2 SWAP4 SWAP2 SWAP1 PUSH1 0x1 PUSH1 0x1 PUSH1 0xA0 SHL SUB AND DUP7 DUP7 PUSH1 0x4 DUP2 DUP5 GAS STATICCALL SWAP6 DUP7 ISZERO PUSH2 0x405 JUMPI PUSH1 0x0 SWAP7 PUSH2 0x1298 JUMPI JUMPDEST POP DUP5 JUMPDEST DUP7 DUP2 LT PUSH2 0x11B6 JUMPI PUSH1 0x40 MLOAD DUP9 DUP2 MSTORE DUP1 PUSH2 0x2C5 DUP2 DUP12 ADD DUP13 PUSH2 0x2D3F JUMP JUMPDEST PUSH1 0x40 MLOAD PUSH4 0xEB44FDD3 PUSH1 0xE0 SHL DUP2 MSTORE PUSH1 0x4 DUP2 ADD DUP3 SWAP1 MSTORE PUSH1 0x24 SWAP1 PUSH1 0x0 DUP2 DUP4 DUP2 DUP8 GAS STATICCALL DUP1 ISZERO PUSH2 0x405 JUMPI PUSH2 0x180 SWAP2 PUSH1 0x0 SWAP2 PUSH2 0x127D JUMPI JUMPDEST POP ADD MLOAD DUP6 DUP2 LT ISZERO PUSH2 0x3CD JUMPI DUP5 PUSH2 0x3CD JUMPI DUP7 EQ PUSH2 0x120D JUMPI JUMPDEST POP PUSH2 0x1208 SWAP1 PUSH2 0x2F34 JUMP JUMPDEST PUSH2 0x119C JUMP JUMPDEST DUP10 SWAP2 SWAP10 MLOAD SWAP1 DUP8 DUP3 ADD DUP1 SWAP3 GT PUSH2 0x3A2 JUMPI POP SWAP1 DUP10 PUSH2 0x1229 DUP9 SWAP4 PUSH2 0x32B3 JUMP JUMPDEST SWAP2 DUP4 PUSH1 0x0 SWAP5 JUMPDEST PUSH2 0x124D JUMPI JUMPDEST POP PUSH2 0x1208 SWAP4 POP PUSH2 0x1245 SWAP1 MLOAD DUP4 PUSH2 0x32E5 JUMP JUMPDEST MSTORE SWAP9 SWAP1 PUSH2 0x11FE JUMP JUMPDEST SWAP2 DUP2 SWAP4 SWAP5 SWAP2 MLOAD DUP3 LT ISZERO PUSH2 0x1273 JUMPI POP DUP1 PUSH2 0x37D PUSH2 0x1269 SWAP3 DUP6 PUSH2 0x32E5 JUMP JUMPDEST SWAP3 SWAP2 DUP2 DUP13 SWAP3 PUSH2 0x122F JUMP JUMPDEST SWAP2 DUP5 SWAP4 SWAP2 POP PUSH2 0x1234 JUMP JUMPDEST PUSH2 0x1292 SWAP2 POP RETURNDATASIZE DUP1 PUSH1 0x0 DUP4 RETURNDATACOPY PUSH2 0x3F7 DUP2 DUP4 PUSH2 0x2FD5 JUMP JUMPDEST DUP13 PUSH2 0x11E7 JUMP JUMPDEST SWAP1 SWAP6 POP DUP7 DUP2 DUP2 RETURNDATASIZE DUP4 GT PUSH2 0x12C0 JUMPI JUMPDEST PUSH2 0x12B0 DUP2 DUP4 PUSH2 0x2FD5 JUMP JUMPDEST DUP2 ADD SUB SLT PUSH2 0x249 JUMPI MLOAD SWAP5 DUP9 PUSH2 0x1199 JUMP JUMPDEST POP RETURNDATASIZE PUSH2 0x12A6 JUMP JUMPDEST CALLVALUE PUSH2 0x249 JUMPI PUSH2 0x12D5 CALLDATASIZE PUSH2 0x2DC7 JUMP JUMPDEST PUSH1 0x1 SLOAD PUSH1 0x1 PUSH1 0x1 PUSH1 0xA0 SHL SUB SWAP4 SWAP3 DUP5 SWAP2 PUSH2 0x12F1 SWAP1 DUP4 AND CALLER EQ PUSH2 0x2ED8 JUMP JUMPDEST AND SWAP3 DUP4 PUSH1 0x0 MSTORE PUSH1 0x24 PUSH1 0x20 SWAP2 PUSH1 0x2 DUP4 MSTORE PUSH1 0x40 PUSH1 0x0 KECCAK256 SWAP4 PUSH2 0x1315 PUSH1 0x5 DUP7 ADD SWAP2 DUP3 SLOAD PUSH2 0x2F43 JUMP JUMPDEST SWAP1 SSTORE TIMESTAMP PUSH1 0xA DUP6 ADD SSTORE DUP5 PUSH1 0x0 MSTORE PUSH1 0x3 DUP4 MSTORE DUP3 PUSH1 0x40 PUSH1 0x0 KECCAK256 SWAP2 PUSH1 0x1 SLOAD AND PUSH1 0x40 MLOAD SWAP4 DUP5 DUP1 SWAP3 PUSH4 0x28C28245 PUSH1 0xE2 SHL DUP3 MSTORE DUP10 PUSH1 0x4 DUP4 ADD MSTORE GAS STATICCALL SWAP2 DUP3 ISZERO PUSH2 0x405 JUMPI PUSH1 0x0 SWAP3 PUSH2 0x139A JUMPI JUMPDEST POP PUSH1 0x0 DUP1 MLOAD PUSH1 0x20 PUSH2 0x339B DUP4 CODECOPY DUP2 MLOAD SWAP2 MSTORE SWAP5 PUSH1 0x40 SWAP5 SWAP4 SWAP3 PUSH1 0x2 PUSH2 0x1387 SWAP4 ADD SSTORE DUP7 PUSH1 0x0 MSTORE PUSH1 0x6 DUP4 MSTORE DUP5 PUSH1 0x0 KECCAK256 PUSH2 0x3025 JUMP JUMPDEST PUSH1 0x3 DUP3 SLOAD SWAP3 ADD SLOAD SWAP1 DUP4 MLOAD SWAP3 DUP4 MSTORE DUP3 ADD MSTORE LOG2 STOP JUMPDEST SWAP1 SWAP4 SWAP3 DUP1 SWAP3 POP DUP2 DUP2 RETURNDATASIZE DUP4 GT PUSH2 0x13D6 JUMPI JUMPDEST PUSH2 0x13B4 DUP2 DUP4 PUSH2 0x2FD5 JUMP JUMPDEST DUP2 ADD SUB SLT PUSH2 0x249 JUMPI MLOAD SWAP2 SWAP3 SWAP1 SWAP2 SWAP1 PUSH1 0x0 DUP1 MLOAD PUSH1 0x20 PUSH2 0x339B DUP4 CODECOPY DUP2 MLOAD SWAP2 MSTORE PUSH2 0x1358 JUMP JUMPDEST POP RETURNDATASIZE PUSH2 0x13AA JUMP JUMPDEST CALLVALUE PUSH2 0x249 JUMPI PUSH1 0x0 CALLDATASIZE PUSH1 0x3 NOT ADD SLT PUSH2 0x249 JUMPI PUSH1 0x0 SLOAD PUSH1 0x40 MLOAD PUSH1 0x1 PUSH1 0x1 PUSH1 0xA0 SHL SUB SWAP1 SWAP2 AND DUP2 MSTORE PUSH1 0x20 SWAP1 RETURN JUMPDEST CALLVALUE PUSH2 0x249 JUMPI PUSH1 0x20 CALLDATASIZE PUSH1 0x3 NOT ADD SLT PUSH2 0x249 JUMPI PUSH1 0x1 PUSH1 0x1 PUSH1 0xA0 SHL SUB PUSH2 0x1427 PUSH2 0x2D9B JUMP JUMPDEST AND PUSH1 0x0 MSTORE PUSH1 0x2 PUSH1 0x20 MSTORE PUSH2 0x160 PUSH1 0x40 PUSH1 0x0 KECCAK256 DUP1 SLOAD SWAP1 PUSH1 0x1 DUP2 ADD SLOAD SWAP1 PUSH1 0x2 DUP2 ADD SLOAD PUSH1 0x3 DUP3 ADD SLOAD PUSH1 0x4 DUP4 ADD SLOAD PUSH1 0x5 DUP5 ADD SLOAD PUSH1 0x6 DUP6 ADD SLOAD SWAP2 PUSH1 0x7 DUP7 ADD SLOAD SWAP4 PUSH1 0x8 DUP8 ADD SLOAD SWAP6 PUSH1 0xA PUSH1 0x9 DUP10 ADD SLOAD SWAP9 ADD SLOAD SWAP9 PUSH1 0x40 MLOAD SWAP11 DUP12 MSTORE PUSH1 0x20 DUP12 ADD MSTORE PUSH1 0x40 DUP11 ADD MSTORE PUSH1 0x60 DUP10 ADD MSTORE PUSH1 0x80 DUP9 ADD MSTORE PUSH1 0xA0 DUP8 ADD MSTORE PUSH1 0xC0 DUP7 ADD MSTORE PUSH1 0xE0 DUP6 ADD MSTORE PUSH2 0x100 DUP5 ADD MSTORE PUSH2 0x120 DUP4 ADD MSTORE PUSH2 0x140 DUP3 ADD MSTORE RETURN JUMPDEST CALLVALUE PUSH2 0x249 JUMPI PUSH1 0xE0 CALLDATASIZE PUSH1 0x3 NOT ADD SLT PUSH2 0x249 JUMPI PUSH2 0x14C8 PUSH2 0x2D9B JUMP JUMPDEST PUSH2 0x14D0 PUSH2 0x2DB1 JUMP JUMPDEST PUSH1 0x5 PUSH1 0x84 CALLDATALOAD LT ISZERO SWAP2 DUP3 PUSH2 0x249 JUMPI PUSH1 0x40 MLOAD PUSH2 0x14E9 DUP2 PUSH2 0x2FBA JUMP JUMPDEST PUSH1 0x0 DUP2 MSTORE PUSH1 0x1 SLOAD PUSH1 0x40 MLOAD PUSH4 0x1FCA74DD PUSH1 0xE3 SHL DUP2 MSTORE SWAP2 SWAP5 SWAP2 SWAP4 SWAP1 PUSH1 0x1 PUSH1 0x1 PUSH1 0xA0 SHL SUB AND PUSH1 0x20 DUP6 PUSH1 0x4 DUP2 DUP5 GAS STATICCALL SWAP5 DUP6 ISZERO PUSH2 0x405 JUMPI PUSH1 0x0 SWAP6 PUSH2 0x17F4 JUMPI JUMPDEST POP PUSH1 0x1 JUMPDEST DUP6 DUP2 LT PUSH2 0x1544 JUMPI PUSH1 0x40 MLOAD PUSH1 0x20 DUP1 DUP3 MSTORE DUP2 SWAP1 PUSH2 0x2C5 SWAP1 DUP3 ADD DUP11 PUSH2 0x2D3F JUMP JUMPDEST PUSH1 0x40 MLOAD PUSH4 0xEB44FDD3 PUSH1 0xE0 SHL DUP2 MSTORE PUSH1 0x4 DUP2 ADD DUP3 SWAP1 MSTORE PUSH1 0x0 DUP2 PUSH1 0x24 DUP2 DUP7 GAS STATICCALL SWAP1 DUP2 ISZERO PUSH2 0x405 JUMPI PUSH1 0x0 SWAP2 PUSH2 0x17D9 JUMPI JUMPDEST POP DUP2 PUSH1 0x0 MSTORE PUSH1 0x3 PUSH1 0x20 MSTORE PUSH1 0x40 PUSH1 0x0 KECCAK256 SWAP1 PUSH1 0x40 MLOAD PUSH2 0x158C DUP2 PUSH2 0x2F82 JUMP JUMPDEST DUP3 SLOAD DUP1 DUP3 MSTORE PUSH1 0x1 DUP1 DUP6 ADD SLOAD PUSH1 0x20 DUP5 ADD MSTORE PUSH1 0x2 DUP6 ADD SLOAD PUSH1 0x40 DUP5 ADD MSTORE PUSH1 0x3 DUP6 ADD SLOAD PUSH1 0x60 DUP5 ADD MSTORE PUSH1 0x4 DUP6 ADD SLOAD PUSH1 0x80 DUP5 ADD MSTORE PUSH1 0x5 DUP6 ADD SLOAD PUSH1 0xA0 DUP5 ADD MSTORE PUSH1 0x6 DUP6 ADD SLOAD PUSH1 0xC0 DUP5 ADD MSTORE PUSH1 0x7 DUP6 ADD SLOAD PUSH1 0xFF AND ISZERO ISZERO PUSH1 0xE0 DUP5 ADD MSTORE PUSH1 0x8 SWAP1 SWAP5 ADD SLOAD PUSH2 0x100 SWAP1 SWAP3 ADD SWAP2 SWAP1 SWAP2 MSTORE DUP7 SWAP1 PUSH1 0x1 PUSH1 0x1 PUSH1 0xA0 SHL SUB DUP10 AND DUP1 ISZERO ISZERO SWAP1 PUSH2 0x17C2 JUMPI JUMPDEST PUSH2 0x17B9 JUMPI JUMPDEST PUSH1 0x1 PUSH1 0x1 PUSH1 0xA0 SHL SUB DUP8 AND DUP1 ISZERO ISZERO SWAP1 PUSH2 0x179F JUMPI JUMPDEST PUSH2 0x1796 JUMPI JUMPDEST PUSH1 0x44 CALLDATALOAD ISZERO ISZERO PUSH1 0x44 CALLDATALOAD PUSH2 0x178B JUMPI JUMPDEST PUSH2 0x1782 JUMPI JUMPDEST PUSH1 0x64 CALLDATALOAD ISZERO ISZERO SWAP1 PUSH1 0x64 CALLDATALOAD PUSH2 0x1776 JUMPI JUMPDEST POP PUSH2 0x176D JUMPI JUMPDEST PUSH2 0x1757 JUMPI PUSH1 0x84 CALLDATALOAD ISZERO ISZERO PUSH1 0x84 CALLDATALOAD PUSH2 0x1738 JUMPI JUMPDEST PUSH2 0x172F JUMPI JUMPDEST PUSH1 0xA4 CALLDATALOAD ISZERO ISZERO PUSH1 0xA4 CALLDATALOAD PUSH2 0x171F JUMPI JUMPDEST PUSH2 0x1716 JUMPI JUMPDEST PUSH1 0xC4 CALLDATALOAD ISZERO ISZERO SWAP1 PUSH1 0xC4 CALLDATALOAD PUSH2 0x1704 JUMPI JUMPDEST POP PUSH2 0x16FC JUMPI JUMPDEST PUSH2 0x1694 JUMPI JUMPDEST PUSH2 0x168F SWAP1 PUSH2 0x2F34 JUMP JUMPDEST PUSH2 0x1527 JUMP JUMPDEST SWAP5 SWAP2 SWAP4 SWAP1 SWAP3 DUP7 MLOAD PUSH1 0x1 DUP2 ADD DUP2 GT PUSH2 0x9B2 JUMPI PUSH1 0x1 PUSH2 0x16B1 SWAP2 ADD PUSH2 0x32B3 JUMP JUMPDEST SWAP5 PUSH1 0x0 JUMPDEST DUP9 MLOAD DUP2 LT ISZERO PUSH2 0x16DC JUMPI DUP1 PUSH2 0x16CC PUSH2 0x16D7 SWAP3 DUP12 PUSH2 0x32E5 JUMP JUMPDEST MLOAD PUSH2 0x388 DUP3 DUP11 PUSH2 0x32E5 JUMP JUMPDEST PUSH2 0x16B5 JUMP JUMPDEST POP SWAP3 SWAP6 SWAP7 SWAP5 DUP8 PUSH2 0x16F3 PUSH2 0x168F SWAP4 SWAP7 SWAP5 SWAP8 MLOAD DUP4 PUSH2 0x32E5 JUMP JUMPDEST MSTORE SWAP7 SWAP1 POP PUSH2 0x1686 JUMP JUMPDEST POP PUSH1 0x0 PUSH2 0x1681 JUMP JUMPDEST SWAP1 POP PUSH2 0x100 PUSH1 0xC4 CALLDATALOAD SWAP2 ADD MLOAD GT DUP10 PUSH2 0x167B JUMP JUMPDEST PUSH1 0x0 SWAP2 POP PUSH2 0x166D JUMP JUMPDEST POP PUSH1 0xA4 CALLDATALOAD PUSH2 0x100 DUP3 ADD MLOAD LT PUSH2 0x1668 JUMP JUMPDEST PUSH1 0x0 SWAP2 POP PUSH2 0x165B JUMP JUMPDEST POP PUSH2 0x180 DUP2 ADD MLOAD SWAP6 POP PUSH1 0x5 DUP7 LT ISZERO PUSH2 0x1757 JUMPI PUSH1 0x0 SWAP6 PUSH1 0x84 CALLDATALOAD EQ ISZERO PUSH2 0x1656 JUMP JUMPDEST PUSH4 0x4E487B71 PUSH1 0xE0 SHL PUSH1 0x0 MSTORE PUSH1 0x21 PUSH1 0x4 MSTORE PUSH1 0x24 PUSH1 0x0 REVERT JUMPDEST PUSH1 0x0 SWAP3 POP PUSH2 0x1645 JUMP JUMPDEST SWAP1 POP PUSH1 0x64 CALLDATALOAD LT DUP12 PUSH2 0x163F JUMP JUMPDEST PUSH1 0x0 SWAP4 POP PUSH2 0x1631 JUMP JUMPDEST POP PUSH1 0x44 CALLDATALOAD DUP2 LT PUSH2 0x162C JUMP JUMPDEST PUSH1 0x0 SWAP4 POP PUSH2 0x161F JUMP JUMPDEST POP PUSH1 0x80 DUP4 ADD MLOAD PUSH1 0x1 PUSH1 0x1 PUSH1 0xA0 SHL SUB DUP9 DUP2 AND SWAP2 AND EQ ISZERO PUSH2 0x161A JUMP JUMPDEST PUSH1 0x0 SWAP4 POP PUSH2 0x1607 JUMP JUMPDEST POP DUP3 MLOAD PUSH1 0x1 PUSH1 0x1 PUSH1 0xA0 SHL SUB DUP11 DUP2 AND SWAP2 AND EQ ISZERO PUSH2 0x1602 JUMP JUMPDEST PUSH2 0x17EE SWAP2 POP RETURNDATASIZE DUP1 PUSH1 0x0 DUP4 RETURNDATACOPY PUSH2 0x3F7 DUP2 DUP4 PUSH2 0x2FD5 JUMP JUMPDEST DUP9 PUSH2 0x1570 JUMP JUMPDEST SWAP1 SWAP5 POP PUSH1 0x20 DUP2 RETURNDATASIZE PUSH1 0x20 GT PUSH2 0x1820 JUMPI JUMPDEST DUP2 PUSH2 0x1810 PUSH1 0x20 SWAP4 DUP4 PUSH2 0x2FD5 JUMP JUMPDEST DUP2 ADD SUB SLT PUSH2 0x249 JUMPI MLOAD SWAP4 DUP7 PUSH2 0x1523 JUMP JUMPDEST RETURNDATASIZE SWAP2 POP PUSH2 0x1803 JUMP JUMPDEST CALLVALUE PUSH2 0x249 JUMPI PUSH1 0x40 CALLDATASIZE PUSH1 0x3 NOT ADD SLT PUSH2 0x249 JUMPI PUSH2 0x1841 PUSH2 0x2D9B JUMP JUMPDEST PUSH1 0x24 DUP1 CALLDATALOAD PUSH1 0x5 SWAP3 DUP4 DUP3 LT ISZERO SWAP1 DUP2 PUSH2 0x249 JUMPI DUP4 DUP4 DUP7 SWAP3 PUSH1 0x1 DUP1 PUSH1 0xA0 SHL SUB DUP1 SWAP2 AND PUSH1 0x0 MSTORE PUSH1 0x20 SWAP3 PUSH1 0x4 DUP5 MSTORE PUSH1 0x40 PUSH1 0x0 KECCAK256 SWAP3 PUSH1 0x40 MLOAD SWAP4 DUP5 DUP7 DUP3 SLOAD SWAP2 DUP3 DUP2 MSTORE ADD SWAP2 PUSH1 0x0 MSTORE DUP7 PUSH1 0x0 KECCAK256 SWAP1 PUSH1 0x0 JUMPDEST DUP2 DUP2 LT PUSH2 0x1A00 JUMPI POP POP POP DUP5 PUSH2 0x189F SWAP2 SUB DUP6 PUSH2 0x2FD5 JUMP JUMPDEST PUSH1 0x40 MLOAD PUSH2 0x18AB DUP2 PUSH2 0x2FBA JUMP JUMPDEST PUSH1 0x0 DUP2 MSTORE SWAP6 PUSH1 0x0 SWAP8 PUSH1 0x1 SWAP9 DUP10 SWAP6 DUP7 SLOAD AND SWAP10 JUMPDEST PUSH2 0x18D5 JUMPI JUMPDEST PUSH1 0x40 MLOAD DUP9 DUP2 MSTORE DUP1 PUSH2 0x2C5 DUP2 DUP12 ADD DUP13 PUSH2 0x2D3F JUMP JUMPDEST DUP7 MLOAD DUP2 LT ISZERO PUSH2 0x19FB JUMPI DUP10 PUSH1 0x0 PUSH2 0x18EB DUP4 DUP11 PUSH2 0x32E5 JUMP JUMPDEST MLOAD DUP8 PUSH1 0x40 MLOAD DUP1 SWAP5 DUP2 SWAP4 PUSH4 0xEB44FDD3 PUSH1 0xE0 SHL DUP4 MSTORE PUSH1 0x4 DUP4 ADD MSTORE GAS STATICCALL DUP1 ISZERO PUSH2 0x405 JUMPI PUSH2 0x180 SWAP2 PUSH1 0x0 SWAP2 PUSH2 0x19E0 JUMPI JUMPDEST POP ADD MLOAD DUP4 DUP2 LT ISZERO PUSH2 0x19CB JUMPI DUP3 PUSH2 0x19CB JUMPI DUP5 EQ PUSH2 0x1946 JUMPI JUMPDEST SWAP9 PUSH2 0x193C DUP7 SWAP8 SWAP9 SWAP10 SWAP11 PUSH2 0x2F34 JUMP JUMPDEST SWAP1 SWAP10 SWAP9 SWAP8 SWAP7 PUSH2 0x18BD JUMP JUMPDEST SWAP8 DUP1 MLOAD DUP7 DUP2 ADD DUP1 SWAP2 GT PUSH2 0x19B6 JUMPI PUSH2 0x195C SWAP1 PUSH2 0x32B3 JUMP JUMPDEST SWAP1 PUSH1 0x0 DUP8 JUMPDEST PUSH2 0x1993 JUMPI JUMPDEST POP DUP10 SWAP11 SWAP2 PUSH2 0x193C SWAP2 PUSH2 0x1987 PUSH2 0x197E DUP12 SWAP13 SWAP14 DUP12 SWAP13 PUSH2 0x32E5 JUMP JUMPDEST MLOAD SWAP2 MLOAD DUP4 PUSH2 0x32E5 JUMP JUMPDEST MSTORE SWAP10 SWAP9 SWAP8 POP POP SWAP9 PUSH2 0x192E JUMP JUMPDEST DUP2 MLOAD DUP2 LT ISZERO PUSH2 0x19B1 JUMPI PUSH2 0x19AB DUP2 PUSH2 0x37D DUP11 SWAP4 DUP6 PUSH2 0x32E5 JUMP JUMPDEST SWAP1 PUSH2 0x1961 JUMP JUMPDEST PUSH2 0x1966 JUMP JUMPDEST DUP6 PUSH4 0x4E487B71 PUSH1 0xE0 SHL PUSH1 0x0 MSTORE PUSH1 0x11 PUSH1 0x4 MSTORE PUSH1 0x0 REVERT JUMPDEST DUP6 PUSH4 0x4E487B71 PUSH1 0xE0 SHL PUSH1 0x0 MSTORE PUSH1 0x21 PUSH1 0x4 MSTORE PUSH1 0x0 REVERT JUMPDEST PUSH2 0x19F5 SWAP2 POP RETURNDATASIZE DUP1 PUSH1 0x0 DUP4 RETURNDATACOPY PUSH2 0x3F7 DUP2 DUP4 PUSH2 0x2FD5 JUMP JUMPDEST DUP13 PUSH2 0x1917 JUMP JUMPDEST PUSH2 0x18C2 JUMP JUMPDEST DUP3 SLOAD DUP5 MSTORE SWAP3 DUP9 ADD SWAP3 PUSH1 0x1 SWAP3 DUP4 ADD SWAP3 ADD PUSH2 0x1889 JUMP JUMPDEST CALLVALUE PUSH2 0x249 JUMPI PUSH1 0x40 CALLDATASIZE PUSH1 0x3 NOT ADD SLT PUSH2 0x249 JUMPI PUSH2 0x1A2D PUSH2 0x2D9B JUMP JUMPDEST PUSH1 0x1 PUSH1 0x1 PUSH1 0xA0 SHL SUB AND PUSH1 0x0 SWAP1 DUP2 MSTORE PUSH1 0x5 PUSH1 0x20 MSTORE PUSH1 0x40 SWAP1 KECCAK256 DUP1 SLOAD PUSH1 0x24 CALLDATALOAD SWAP2 SWAP1 DUP3 LT ISZERO PUSH2 0x249 JUMPI PUSH1 0x20 SWAP2 PUSH2 0x597 SWAP2 PUSH2 0x2E07 JUMP JUMPDEST CALLVALUE PUSH2 0x249 JUMPI PUSH1 0x0 CALLDATASIZE PUSH1 0x3 NOT ADD SLT PUSH2 0x249 JUMPI PUSH2 0x1A77 PUSH2 0x2EAC JUMP JUMPDEST PUSH1 0x0 DUP1 SLOAD PUSH1 0x1 PUSH1 0x1 PUSH1 0xA0 SHL SUB NOT DUP2 AND DUP3 SSTORE PUSH1 0x1 PUSH1 0x1 PUSH1 0xA0 SHL SUB AND PUSH1 0x0 DUP1 MLOAD PUSH1 0x20 PUSH2 0x33BB DUP4 CODECOPY DUP2 MLOAD SWAP2 MSTORE DUP3 DUP1 LOG3 STOP JUMPDEST CALLVALUE PUSH2 0x249 JUMPI PUSH1 0x0 CALLDATASIZE PUSH1 0x3 NOT ADD SLT PUSH2 0x249 JUMPI PUSH1 0x0 PUSH1 0xE0 PUSH1 0x40 MLOAD PUSH2 0x1AC6 DUP2 PUSH2 0x2F9E JUMP JUMPDEST DUP3 DUP2 MSTORE DUP3 PUSH1 0x20 DUP3 ADD MSTORE DUP3 PUSH1 0x40 DUP3 ADD MSTORE DUP3 PUSH1 0x60 DUP3 ADD MSTORE DUP3 PUSH1 0x80 DUP3 ADD MSTORE DUP3 PUSH1 0xA0 DUP3 ADD MSTORE DUP3 PUSH1 0xC0 DUP3 ADD MSTORE ADD MSTORE PUSH1 0x4 PUSH1 0x20 PUSH1 0x1 DUP1 PUSH1 0xA0 SHL SUB PUSH1 0x1 SLOAD AND PUSH1 0x40 MLOAD SWAP3 DUP4 DUP1 SWAP3 PUSH4 0x1FCA74DD PUSH1 0xE3 SHL DUP3 MSTORE GAS STATICCALL SWAP1 DUP2 ISZERO PUSH2 0x405 JUMPI PUSH1 0x0 SWAP2 PUSH2 0x1C95 JUMPI JUMPDEST POP DUP1 PUSH1 0x0 NOT DUP2 ADD GT PUSH2 0x9B2 JUMPI PUSH1 0x0 SWAP1 DUP2 DUP1 PUSH1 0x1 JUMPDEST PUSH1 0x0 NOT DUP5 ADD DUP2 GT ISZERO PUSH2 0x1BE7 JUMPI POP PUSH2 0x100 SWAP4 PUSH1 0x0 NOT DUP5 ADD ISZERO PUSH2 0x1BDF JUMPI PUSH2 0x1B5D PUSH1 0x0 NOT DUP6 ADD DUP5 PUSH2 0x2FF8 JUMP JUMPDEST SWAP1 JUMPDEST PUSH1 0x40 MLOAD SWAP3 PUSH2 0x1B6C DUP5 PUSH2 0x2F9E JUMP JUMPDEST PUSH1 0x0 NOT DUP7 ADD DUP5 MSTORE PUSH1 0x20 DUP5 ADD SWAP5 DUP6 MSTORE PUSH1 0x40 DUP5 ADD SWAP2 DUP3 MSTORE PUSH1 0x60 DUP5 ADD SWAP1 DUP2 MSTORE PUSH1 0x80 DUP5 ADD SWAP2 PUSH1 0x0 DUP4 MSTORE PUSH1 0xA0 DUP6 ADD SWAP4 DUP5 MSTORE PUSH1 0xE0 PUSH1 0xC0 DUP7 ADD SWAP6 PUSH1 0x0 DUP8 MSTORE ADD SWAP6 PUSH1 0x0 DUP8 MSTORE PUSH1 0x40 MLOAD SWAP8 PUSH1 0x0 NOT ADD DUP9 MSTORE MLOAD PUSH1 0x20 DUP9 ADD MSTORE MLOAD PUSH1 0x40 DUP8 ADD MSTORE MLOAD PUSH1 0x60 DUP7 ADD MSTORE MLOAD PUSH1 0x80 DUP6 ADD MSTORE MLOAD PUSH1 0xA0 DUP5 ADD MSTORE MLOAD PUSH1 0xC0 DUP4 ADD MSTORE MLOAD PUSH1 0xE0 DUP3 ADD MSTORE RETURN JUMPDEST PUSH1 0x0 SWAP1 PUSH2 0x1B5F JUMP JUMPDEST SWAP1 PUSH2 0x1C8A PUSH2 0x1C90 SWAP2 PUSH2 0x1C82 PUSH1 0x2 SWAP6 SWAP8 DUP6 PUSH1 0x0 MSTORE PUSH1 0x3 PUSH1 0x20 MSTORE PUSH1 0x20 PUSH2 0x1C79 PUSH1 0x40 PUSH1 0x0 KECCAK256 DUP1 SWAP12 PUSH1 0x8 PUSH1 0x40 MLOAD SWAP12 DUP13 SWAP4 PUSH2 0x1C1C DUP6 PUSH2 0x2F82 JUMP JUMPDEST DUP1 SLOAD SWAP5 DUP6 SWAP1 MSTORE PUSH1 0x1 DUP2 ADD SLOAD DUP8 DUP16 ADD MSTORE ADD SLOAD PUSH1 0x40 DUP14 ADD SWAP1 DUP2 MSTORE PUSH1 0x3 DUP16 ADD SLOAD PUSH1 0x60 DUP15 ADD MSTORE PUSH1 0x4 DUP16 ADD SLOAD PUSH1 0x80 DUP15 ADD MSTORE PUSH1 0x5 DUP16 ADD SLOAD PUSH1 0xA0 DUP15 ADD MSTORE PUSH1 0x6 DUP16 ADD SLOAD PUSH1 0xC0 DUP15 ADD MSTORE PUSH1 0x7 DUP16 ADD SLOAD PUSH1 0xFF AND ISZERO ISZERO PUSH1 0xE0 DUP15 ADD MSTORE SWAP14 ADD SLOAD PUSH2 0x100 DUP13 ADD MSTORE PUSH2 0x2F43 JUMP JUMPDEST SWAP8 ADD MLOAD SWAP1 PUSH2 0x2F43 JUMP JUMPDEST SWAP7 MLOAD SWAP1 PUSH2 0x2F43 JUMP JUMPDEST SWAP2 PUSH2 0x2F34 JUMP JUMPDEST PUSH2 0x1B34 JUMP JUMPDEST SWAP1 POP PUSH1 0x20 DUP2 RETURNDATASIZE PUSH1 0x20 GT PUSH2 0x1CBF JUMPI JUMPDEST DUP2 PUSH2 0x1CB0 PUSH1 0x20 SWAP4 DUP4 PUSH2 0x2FD5 JUMP JUMPDEST DUP2 ADD SUB SLT PUSH2 0x249 JUMPI MLOAD DUP2 PUSH2 0x1B20 JUMP JUMPDEST RETURNDATASIZE SWAP2 POP PUSH2 0x1CA3 JUMP JUMPDEST CALLVALUE PUSH2 0x249 JUMPI PUSH1 0x40 CALLDATASIZE PUSH1 0x3 NOT ADD SLT PUSH2 0x249 JUMPI PUSH2 0x1CE0 PUSH2 0x2D9B JUMP JUMPDEST PUSH1 0x1 PUSH1 0x1 PUSH1 0xA0 SHL SUB AND PUSH1 0x0 SWAP1 DUP2 MSTORE PUSH1 0x6 PUSH1 0x20 MSTORE PUSH1 0x40 SWAP1 KECCAK256 DUP1 SLOAD PUSH1 0x24 CALLDATALOAD SWAP2 SWAP1 DUP3 LT ISZERO PUSH2 0x249 JUMPI PUSH1 0x20 SWAP2 PUSH2 0x597 SWAP2 PUSH2 0x2E07 JUMP JUMPDEST CALLVALUE PUSH2 0x249 JUMPI PUSH1 0x24 PUSH2 0x1D21 CALLDATASIZE PUSH2 0x2DC7 JUMP JUMPDEST SWAP3 SWAP1 SWAP2 PUSH1 0x1 DUP1 PUSH1 0xA0 SHL SUB DUP1 SWAP4 PUSH2 0x1D3C DUP3 PUSH1 0x1 SLOAD AND CALLER EQ PUSH2 0x2ED8 JUMP JUMPDEST AND SWAP4 DUP5 PUSH1 0x0 MSTORE PUSH1 0x2 PUSH1 0x20 MSTORE PUSH1 0x40 PUSH1 0x0 KECCAK256 SWAP1 PUSH1 0x1 DUP3 ADD PUSH2 0x1D5B DUP2 SLOAD PUSH2 0x2F34 JUMP JUMPDEST SWAP1 SSTORE PUSH1 0x3 DUP3 ADD SWAP3 PUSH2 0x1D6D DUP3 DUP6 SLOAD PUSH2 0x2F43 JUMP JUMPDEST DUP5 SSTORE TIMESTAMP PUSH1 0xA DUP5 ADD SSTORE PUSH1 0x0 DUP7 PUSH1 0x1 SLOAD AND PUSH1 0x40 MLOAD SWAP7 DUP8 DUP1 SWAP3 PUSH4 0xEB44FDD3 PUSH1 0xE0 SHL DUP3 MSTORE DUP6 PUSH1 0x4 DUP4 ADD MSTORE GAS STATICCALL SWAP5 DUP6 ISZERO PUSH2 0x405 JUMPI PUSH1 0x0 DUP1 MLOAD PUSH1 0x20 PUSH2 0x339B DUP4 CODECOPY DUP2 MLOAD SWAP2 MSTORE SWAP7 PUSH1 0x40 SWAP7 DUP10 SWAP3 PUSH1 0x0 SWAP2 PUSH2 0x1DFB JUMPI JUMPDEST POP MLOAD AND EQ PUSH2 0x1DD4 JUMPI JUMPDEST POP POP SLOAD SWAP1 SLOAD DUP3 MLOAD SWAP2 DUP3 MSTORE PUSH1 0x20 DUP3 ADD MSTORE LOG2 STOP JUMPDEST PUSH1 0x7 DUP4 ADD PUSH2 0x1DE2 DUP2 SLOAD PUSH2 0x2F34 JUMP JUMPDEST SWAP1 SSTORE PUSH1 0x0 MSTORE PUSH1 0x3 PUSH1 0x20 MSTORE PUSH1 0x8 DUP5 PUSH1 0x0 KECCAK256 ADD SSTORE DUP6 DUP1 PUSH2 0x1DC2 JUMP JUMPDEST PUSH2 0x1E10 SWAP2 POP RETURNDATASIZE DUP1 PUSH1 0x0 DUP4 RETURNDATACOPY PUSH2 0x3F7 DUP2 DUP4 PUSH2 0x2FD5 JUMP JUMPDEST DUP11 PUSH2 0x1DB9 JUMP JUMPDEST CALLVALUE PUSH2 0x249 JUMPI PUSH1 0x20 DUP1 PUSH1 0x3 NOT CALLDATASIZE ADD SLT PUSH2 0x249 JUMPI PUSH1 0x40 MLOAD DUP1 SWAP2 PUSH1 0x40 DUP3 ADD SWAP1 PUSH1 0x40 DUP4 MSTORE PUSH1 0x60 MLOAD DUP1 SWAP3 MSTORE PUSH1 0x60 DUP4 ADD SWAP2 PUSH1 0x80 SWAP1 PUSH1 0x0 JUMPDEST DUP2 DUP2 LT PUSH2 0x1E8E JUMPI POP POP POP DUP3 DUP3 SUB DUP2 DUP5 ADD MSTORE DUP1 PUSH1 0x60 MLOAD SWAP3 DUP4 DUP2 MSTORE ADD SWAP2 PUSH1 0x80 SWAP2 PUSH1 0x0 JUMPDEST DUP3 DUP2 LT PUSH2 0x1E77 JUMPI POP POP POP POP SUB SWAP1 RETURN JUMPDEST DUP4 MLOAD DUP6 MSTORE DUP7 SWAP6 POP SWAP4 DUP2 ADD SWAP4 SWAP3 DUP2 ADD SWAP3 PUSH1 0x1 ADD PUSH2 0x1E68 JUMP JUMPDEST DUP3 MLOAD PUSH1 0x1 PUSH1 0x1 PUSH1 0xA0 SHL SUB AND DUP6 MSTORE DUP7 SWAP6 POP SWAP4 DUP4 ADD SWAP4 SWAP2 DUP4 ADD SWAP2 PUSH1 0x1 ADD PUSH2 0x1E47 JUMP JUMPDEST CALLVALUE PUSH2 0x249 JUMPI PUSH1 0x20 CALLDATASIZE PUSH1 0x3 NOT ADD SLT PUSH2 0x249 JUMPI PUSH2 0x120 PUSH1 0x40 MLOAD PUSH2 0x1ECE DUP2 PUSH2 0x2F82 JUMP JUMPDEST PUSH1 0x0 DUP2 MSTORE PUSH1 0x0 PUSH1 0x20 DUP3 ADD MSTORE PUSH1 0x0 PUSH1 0x40 DUP3 ADD MSTORE PUSH1 0x0 PUSH1 0x60 DUP3 ADD MSTORE PUSH1 0x0 PUSH1 0x80 DUP3 ADD MSTORE PUSH1 0x0 PUSH1 0xA0 DUP3 ADD MSTORE PUSH1 0x0 PUSH1 0xC0 DUP3 ADD MSTORE PUSH1 0x0 PUSH1 0xE0 DUP3 ADD MSTORE PUSH1 0x0 PUSH2 0x100 DUP1 SWAP3 ADD MSTORE PUSH1 0x4 CALLDATALOAD PUSH1 0x0 MSTORE PUSH1 0x3 PUSH1 0x20 MSTORE PUSH1 0x40 PUSH1 0x0 KECCAK256 SWAP1 PUSH1 0x40 MLOAD PUSH2 0x1F29 DUP2 PUSH2 0x2F82 JUMP JUMPDEST DUP3 SLOAD SWAP3 DUP4 DUP3 MSTORE PUSH1 0x1 DUP2 ADD SLOAD PUSH1 0x20 DUP4 ADD SWAP1 DUP2 MSTORE PUSH1 0x2 DUP3 ADD SLOAD PUSH1 0x40 DUP5 ADD SWAP1 DUP2 MSTORE PUSH1 0x3 DUP4 ADD SLOAD PUSH1 0x60 DUP6 ADD SWAP1 DUP2 MSTORE PUSH1 0x4 DUP5 ADD SLOAD SWAP1 PUSH1 0x80 DUP7 ADD SWAP2 DUP3 MSTORE PUSH1 0x5 DUP6 ADD SLOAD SWAP3 PUSH1 0xA0 DUP8 ADD SWAP4 DUP5 MSTORE PUSH1 0x6 DUP7 ADD SLOAD SWAP5 PUSH1 0xC0 DUP9 ADD SWAP6 DUP7 MSTORE DUP9 PUSH1 0x8 PUSH1 0xFF PUSH1 0x7 DUP11 ADD SLOAD AND SWAP9 PUSH1 0xE0 DUP12 ADD SWAP10 ISZERO ISZERO DUP11 MSTORE ADD SLOAD SWAP9 ADD SWAP8 DUP9 MSTORE PUSH1 0x40 MLOAD SWAP10 DUP11 MSTORE MLOAD PUSH1 0x20 DUP11 ADD MSTORE MLOAD PUSH1 0x40 DUP10 ADD MSTORE MLOAD PUSH1 0x60 DUP9 ADD MSTORE MLOAD PUSH1 0x80 DUP8 ADD MSTORE MLOAD PUSH1 0xA0 DUP7 ADD MSTORE MLOAD PUSH1 0xC0 DUP6 ADD MSTORE MLOAD ISZERO ISZERO PUSH1 0xE0 DUP5 ADD MSTORE MLOAD SWAP1 DUP3 ADD MSTORE RETURN JUMPDEST CALLVALUE PUSH2 0x249 JUMPI PUSH2 0x1FDD CALLDATASIZE PUSH2 0x2DF1 JUMP JUMPDEST SWAP1 PUSH1 0x40 MLOAD PUSH2 0x1FEA DUP2 PUSH2 0x2FBA JUMP JUMPDEST PUSH1 0x0 DUP2 MSTORE PUSH1 0x1 DUP1 SLOAD PUSH1 0x40 MLOAD PUSH4 0x1FCA74DD PUSH1 0xE3 SHL DUP2 MSTORE SWAP3 SWAP5 PUSH1 0x20 SWAP5 SWAP2 PUSH1 0x1 PUSH1 0x1 PUSH1 0xA0 SHL SUB AND DUP6 DUP6 PUSH1 0x4 DUP2 DUP5 GAS STATICCALL SWAP5 DUP6 ISZERO PUSH2 0x405 JUMPI PUSH1 0x0 SWAP6 PUSH2 0x212E JUMPI JUMPDEST POP DUP4 JUMPDEST DUP6 DUP2 LT PUSH2 0x2042 JUMPI PUSH1 0x40 MLOAD DUP8 DUP2 MSTORE DUP1 PUSH2 0x2C5 DUP2 DUP11 ADD DUP12 PUSH2 0x2D3F JUMP JUMPDEST PUSH1 0x40 MLOAD PUSH4 0xEB44FDD3 PUSH1 0xE0 SHL DUP2 MSTORE PUSH1 0x4 DUP2 ADD DUP3 SWAP1 MSTORE PUSH1 0x24 SWAP1 PUSH1 0x0 DUP2 DUP4 DUP2 DUP8 GAS STATICCALL DUP1 ISZERO PUSH2 0x405 JUMPI PUSH2 0x100 SWAP2 PUSH1 0x0 SWAP2 PUSH2 0x2113 JUMPI JUMPDEST POP ADD MLOAD DUP5 DUP7 DUP3 LT ISZERO SWAP2 DUP3 PUSH2 0x2108 JUMPI JUMPDEST POP POP PUSH2 0x2098 JUMPI JUMPDEST POP PUSH2 0x2093 SWAP1 PUSH2 0x2F34 JUMP JUMPDEST PUSH2 0x2028 JUMP JUMPDEST DUP9 SWAP2 SWAP9 MLOAD SWAP1 DUP7 DUP3 ADD DUP1 SWAP3 GT PUSH2 0x3A2 JUMPI POP SWAP1 DUP9 PUSH2 0x20B4 DUP8 SWAP4 PUSH2 0x32B3 JUMP JUMPDEST SWAP2 DUP4 PUSH1 0x0 SWAP5 JUMPDEST PUSH2 0x20D8 JUMPI JUMPDEST POP PUSH2 0x2093 SWAP4 POP PUSH2 0x20D0 SWAP1 MLOAD DUP4 PUSH2 0x32E5 JUMP JUMPDEST MSTORE SWAP8 SWAP1 PUSH2 0x2089 JUMP JUMPDEST SWAP2 DUP2 SWAP4 SWAP5 SWAP2 MLOAD DUP3 LT ISZERO PUSH2 0x20FE JUMPI POP DUP1 PUSH2 0x37D PUSH2 0x20F4 SWAP3 DUP6 PUSH2 0x32E5 JUMP JUMPDEST SWAP3 SWAP2 DUP2 DUP12 SWAP3 PUSH2 0x20BA JUMP JUMPDEST SWAP2 DUP5 SWAP4 SWAP2 POP PUSH2 0x20BF JUMP JUMPDEST GT ISZERO SWAP1 POP DUP5 DUP12 PUSH2 0x2082 JUMP JUMPDEST PUSH2 0x2128 SWAP2 POP RETURNDATASIZE DUP1 PUSH1 0x0 DUP4 RETURNDATACOPY PUSH2 0x3F7 DUP2 DUP4 PUSH2 0x2FD5 JUMP JUMPDEST DUP12 PUSH2 0x2073 JUMP JUMPDEST SWAP1 SWAP5 POP DUP6 DUP2 DUP2 RETURNDATASIZE DUP4 GT PUSH2 0x2156 JUMPI JUMPDEST PUSH2 0x2146 DUP2 DUP4 PUSH2 0x2FD5 JUMP JUMPDEST DUP2 ADD SUB SLT PUSH2 0x249 JUMPI MLOAD SWAP4 DUP8 PUSH2 0x2025 JUMP JUMPDEST POP RETURNDATASIZE PUSH2 0x213C JUMP JUMPDEST CALLVALUE PUSH2 0x249 JUMPI PUSH1 0x40 CALLDATASIZE PUSH1 0x3 NOT ADD SLT PUSH2 0x249 JUMPI PUSH1 0x1 PUSH1 0x1 PUSH1 0xA0 SHL SUB PUSH2 0x217E PUSH2 0x2D9B JUMP JUMPDEST AND PUSH1 0x0 MSTORE PUSH1 0x7 PUSH1 0x20 MSTORE PUSH1 0x40 PUSH1 0x0 KECCAK256 PUSH1 0x24 CALLDATALOAD PUSH1 0x0 MSTORE PUSH1 0x20 MSTORE PUSH1 0x20 PUSH1 0x40 PUSH1 0x0 KECCAK256 SLOAD PUSH1 0x40 MLOAD SWAP1 DUP2 MSTORE RETURN JUMPDEST CALLVALUE PUSH2 0x249 JUMPI PUSH1 0x20 DUP1 PUSH1 0x3 NOT CALLDATASIZE ADD SLT PUSH2 0x249 JUMPI PUSH1 0x1 DUP1 SLOAD PUSH1 0x40 MLOAD PUSH4 0x1FCA74DD PUSH1 0xE3 SHL DUP2 MSTORE PUSH1 0x1 PUSH1 0x1 PUSH1 0xA0 SHL SUB SWAP1 SWAP2 AND SWAP2 SWAP1 DUP4 DUP2 PUSH1 0x4 DUP2 DUP7 GAS STATICCALL SWAP1 DUP2 ISZERO PUSH2 0x405 JUMPI PUSH1 0x0 SWAP2 PUSH2 0x2462 JUMPI JUMPDEST POP PUSH1 0x40 MLOAD PUSH2 0x21F9 DUP2 PUSH2 0x2FBA JUMP JUMPDEST PUSH1 0x0 DUP2 MSTORE SWAP4 PUSH1 0x40 MLOAD PUSH2 0x220A DUP2 PUSH2 0x2FBA JUMP JUMPDEST PUSH1 0x0 DUP2 MSTORE SWAP4 DUP4 JUMPDEST DUP4 DUP2 LT PUSH2 0x2320 JUMPI POP POP POP POP DUP1 PUSH1 0x0 SWAP1 JUMPDEST PUSH2 0x228C JUMPI JUMPDEST POP POP PUSH1 0x4 CALLDATALOAD DUP1 ISZERO ISZERO DUP1 PUSH2 0x2282 JUMPI JUMPDEST ISZERO PUSH2 0x227A JUMPI JUMPDEST PUSH2 0x2243 DUP2 PUSH2 0x32B3 JUMP JUMPDEST SWAP2 PUSH2 0x224D DUP3 PUSH2 0x32B3 JUMP JUMPDEST SWAP4 PUSH1 0x0 JUMPDEST DUP4 DUP2 LT PUSH2 0x2267 JUMPI PUSH1 0x40 MLOAD DUP1 PUSH2 0x2C5 DUP9 DUP9 DUP4 PUSH2 0x2D73 JUMP JUMPDEST DUP1 PUSH2 0xAE1 PUSH2 0x2275 SWAP3 DUP5 PUSH2 0x32E5 JUMP JUMPDEST PUSH2 0x2251 JUMP JUMPDEST POP DUP2 MLOAD PUSH2 0x223A JUMP JUMPDEST POP DUP3 MLOAD DUP2 LT PUSH2 0x2234 JUMP JUMPDEST DUP4 MLOAD PUSH1 0x0 NOT SWAP1 DUP2 DUP2 ADD SWAP1 DUP2 GT PUSH2 0x9B2 JUMPI DUP3 LT ISZERO PUSH2 0x231A JUMPI PUSH1 0x0 SWAP1 DUP4 JUMPDEST PUSH2 0x22BF JUMPI JUMPDEST POP POP PUSH2 0x22B9 DUP3 SWAP2 PUSH2 0x2F34 JUMP JUMPDEST SWAP1 PUSH2 0x2221 JUMP JUMPDEST PUSH2 0x22CF DUP4 DUP8 SWAP5 SWAP7 SWAP4 SWAP6 SWAP8 MLOAD PUSH2 0x3018 JUMP JUMPDEST DUP2 DUP2 ADD SWAP1 DUP2 GT PUSH2 0x9B2 JUMPI DUP5 LT ISZERO PUSH2 0x230F JUMPI PUSH2 0x22EA DUP5 DUP4 PUSH2 0x32E5 JUMP JUMPDEST MLOAD DUP7 DUP6 ADD SWAP5 DUP6 DUP2 GT PUSH2 0x9B2 JUMPI DUP6 PUSH2 0x2306 SWAP3 PUSH2 0xB93 DUP11 SWAP9 DUP8 PUSH2 0x32E5 JUMP JUMPDEST SWAP2 SWAP5 SWAP3 SWAP6 PUSH2 0x22A8 JUMP JUMPDEST DUP2 SWAP5 SWAP3 SWAP6 SWAP4 POP PUSH2 0x22AD JUMP JUMPDEST POP PUSH2 0x2226 JUMP JUMPDEST PUSH1 0x40 MLOAD PUSH4 0xEB44FDD3 PUSH1 0xE0 SHL DUP2 MSTORE PUSH1 0x4 DUP2 ADD DUP3 SWAP1 MSTORE PUSH1 0x24 SWAP1 PUSH1 0x0 DUP2 DUP4 DUP2 DUP8 GAS STATICCALL DUP1 ISZERO PUSH2 0x405 JUMPI PUSH2 0x180 SWAP2 PUSH1 0x0 SWAP2 PUSH2 0x2447 JUMPI JUMPDEST POP ADD MLOAD PUSH1 0x5 DUP2 LT ISZERO PUSH2 0x3CD JUMPI ISZERO PUSH2 0x2372 JUMPI JUMPDEST POP PUSH2 0x236D SWAP1 PUSH2 0x2F34 JUMP JUMPDEST PUSH2 0x2211 JUMP JUMPDEST SWAP1 SWAP6 DUP8 MLOAD DUP7 DUP2 ADD DUP1 SWAP2 GT PUSH2 0x2432 JUMPI PUSH2 0x2389 SWAP1 PUSH2 0x32B3 JUMP JUMPDEST SWAP2 DUP2 MLOAD SWAP1 DUP8 DUP3 ADD DUP1 SWAP3 GT PUSH2 0x3A2 JUMPI POP SWAP1 DUP8 PUSH2 0x23A5 DUP9 SWAP5 SWAP4 PUSH2 0x32B3 JUMP JUMPDEST SWAP10 DUP5 PUSH1 0x0 SWAP6 JUMPDEST PUSH2 0x23E4 JUMPI JUMPDEST POP PUSH2 0x236D SWAP5 POP PUSH2 0x23C1 SWAP1 MLOAD DUP5 PUSH2 0x32E5 JUMP JUMPDEST MSTORE DUP8 PUSH1 0x0 MSTORE PUSH1 0x3 DUP6 MSTORE PUSH2 0x23DB PUSH1 0x40 PUSH1 0x0 KECCAK256 SLOAD SWAP2 MLOAD DUP11 PUSH2 0x32E5 JUMP JUMPDEST MSTORE SWAP7 SWAP6 SWAP1 PUSH2 0x2363 JUMP JUMPDEST SWAP2 DUP2 SWAP4 SWAP5 SWAP6 SWAP2 MLOAD DUP3 LT ISZERO PUSH2 0x2427 JUMPI POP DUP1 PUSH2 0x2401 PUSH2 0x241C SWAP3 DUP6 PUSH2 0x32E5 JUMP JUMPDEST MLOAD PUSH2 0x240C DUP3 DUP9 PUSH2 0x32E5 JUMP JUMPDEST MSTORE DUP12 PUSH2 0x388 DUP3 PUSH2 0xD2E DUP2 DUP10 PUSH2 0x32E5 JUMP JUMPDEST SWAP4 SWAP3 SWAP2 DUP2 DUP11 SWAP3 PUSH2 0x23AB JUMP JUMPDEST SWAP2 DUP6 SWAP5 SWAP4 SWAP2 POP PUSH2 0x23B0 JUMP JUMPDEST DUP3 PUSH4 0x4E487B71 PUSH1 0xE0 SHL PUSH1 0x0 MSTORE PUSH1 0x11 PUSH1 0x4 MSTORE PUSH1 0x0 REVERT JUMPDEST PUSH2 0x245C SWAP2 POP RETURNDATASIZE DUP1 PUSH1 0x0 DUP4 RETURNDATACOPY PUSH2 0x3F7 DUP2 DUP4 PUSH2 0x2FD5 JUMP JUMPDEST DUP11 PUSH2 0x2351 JUMP JUMPDEST SWAP1 POP DUP4 DUP2 DUP2 RETURNDATASIZE DUP4 GT PUSH2 0x2488 JUMPI JUMPDEST PUSH2 0x2479 DUP2 DUP4 PUSH2 0x2FD5 JUMP JUMPDEST DUP2 ADD SUB SLT PUSH2 0x249 JUMPI MLOAD DUP5 PUSH2 0x21EC JUMP JUMPDEST POP RETURNDATASIZE PUSH2 0x246F JUMP JUMPDEST CALLVALUE PUSH2 0x249 JUMPI PUSH1 0x20 CALLDATASIZE PUSH1 0x3 NOT ADD SLT PUSH2 0x249 JUMPI PUSH2 0x160 PUSH2 0x24AB PUSH2 0x2D9B JUMP JUMPDEST PUSH2 0x140 PUSH1 0x40 MLOAD SWAP2 PUSH2 0x24BB DUP4 PUSH2 0x2F50 JUMP JUMPDEST PUSH1 0x0 DUP4 MSTORE PUSH1 0x0 PUSH1 0x20 DUP5 ADD MSTORE PUSH1 0x0 PUSH1 0x40 DUP5 ADD MSTORE PUSH1 0x0 PUSH1 0x60 DUP5 ADD MSTORE PUSH1 0x0 PUSH1 0x80 DUP5 ADD MSTORE PUSH1 0x0 PUSH1 0xA0 DUP5 ADD MSTORE PUSH1 0x0 PUSH1 0xC0 DUP5 ADD MSTORE PUSH1 0x0 PUSH1 0xE0 DUP5 ADD MSTORE PUSH2 0x100 SWAP1 PUSH1 0x0 DUP3 DUP6 ADD MSTORE PUSH1 0x0 DUP4 PUSH2 0x120 SWAP6 DUP3 DUP8 DUP3 ADD MSTORE ADD MSTORE PUSH1 0x1 DUP1 PUSH1 0xA0 SHL SUB AND PUSH1 0x0 MSTORE PUSH1 0x2 PUSH1 0x20 MSTORE PUSH1 0x40 PUSH1 0x0 KECCAK256 SWAP3 PUSH1 0x40 MLOAD SWAP2 PUSH2 0x252B DUP4 PUSH2 0x2F50 JUMP JUMPDEST PUSH1 0xA DUP6 SLOAD SWAP6 DUP7 DUP6 MSTORE PUSH1 0x1 DUP2 ADD SLOAD PUSH1 0x20 DUP7 ADD MSTORE PUSH1 0x2 DUP2 ADD SLOAD PUSH1 0x40 DUP7 ADD MSTORE PUSH1 0x3 DUP2 ADD SLOAD PUSH1 0x60 DUP7 ADD MSTORE PUSH1 0x4 DUP2 ADD SLOAD PUSH1 0x80 DUP7 ADD MSTORE PUSH1 0x5 DUP2 ADD SLOAD PUSH1 0xA0 DUP7 ADD MSTORE PUSH1 0x6 DUP2 ADD SLOAD PUSH1 0xC0 DUP7 ADD MSTORE PUSH1 0x7 DUP2 ADD SLOAD PUSH1 0xE0 DUP7 ADD MSTORE PUSH1 0x8 DUP2 ADD SLOAD DUP4 DUP7 ADD MSTORE PUSH1 0x9 DUP2 ADD SLOAD DUP5 DUP7 ADD MSTORE ADD SLOAD DUP5 DUP5 ADD MSTORE PUSH1 0x40 MLOAD SWAP5 DUP6 MSTORE PUSH1 0x20 DUP4 ADD MLOAD PUSH1 0x20 DUP7 ADD MSTORE PUSH1 0x40 DUP4 ADD MLOAD PUSH1 0x40 DUP7 ADD MSTORE PUSH1 0x60 DUP4 ADD MLOAD PUSH1 0x60 DUP7 ADD MSTORE PUSH1 0x80 DUP4 ADD MLOAD PUSH1 0x80 DUP7 ADD MSTORE PUSH1 0xA0 DUP4 ADD MLOAD PUSH1 0xA0 DUP7 ADD MSTORE PUSH1 0xC0 DUP4 ADD MLOAD PUSH1 0xC0 DUP7 ADD MSTORE PUSH1 0xE0 DUP4 ADD MLOAD PUSH1 0xE0 DUP7 ADD MSTORE DUP1 DUP4 ADD MLOAD SWAP1 DUP6 ADD MSTORE DUP1 DUP3 ADD MLOAD SWAP1 DUP5 ADD MSTORE ADD MLOAD PUSH2 0x140 DUP3 ADD MSTORE RETURN JUMPDEST CALLVALUE PUSH2 0x249 JUMPI PUSH1 0x20 CALLDATASIZE PUSH1 0x3 NOT ADD SLT PUSH2 0x249 JUMPI PUSH1 0x4 CALLDATALOAD PUSH1 0x0 MSTORE PUSH1 0x3 PUSH1 0x20 MSTORE PUSH2 0x120 PUSH1 0x40 PUSH1 0x0 KECCAK256 DUP1 SLOAD SWAP1 PUSH1 0x1 DUP2 ADD SLOAD SWAP1 PUSH1 0x2 DUP2 ADD SLOAD PUSH1 0x3 DUP3 ADD SLOAD PUSH1 0x4 DUP4 ADD SLOAD PUSH1 0x5 DUP5 ADD SLOAD SWAP2 PUSH1 0x6 DUP6 ADD SLOAD SWAP4 PUSH1 0x8 PUSH1 0xFF PUSH1 0x7 DUP9 ADD SLOAD AND SWAP7 ADD SLOAD SWAP7 PUSH1 0x40 MLOAD SWAP9 DUP10 MSTORE PUSH1 0x20 DUP10 ADD MSTORE PUSH1 0x40 DUP9 ADD MSTORE PUSH1 0x60 DUP8 ADD MSTORE PUSH1 0x80 DUP7 ADD MSTORE PUSH1 0xA0 DUP6 ADD MSTORE PUSH1 0xC0 DUP5 ADD MSTORE ISZERO ISZERO PUSH1 0xE0 DUP4 ADD MSTORE PUSH2 0x100 DUP3 ADD MSTORE RETURN JUMPDEST CALLVALUE PUSH2 0x249 JUMPI PUSH1 0x0 CALLDATASIZE PUSH1 0x3 NOT ADD SLT PUSH2 0x249 JUMPI PUSH1 0x1 SLOAD PUSH1 0x40 MLOAD PUSH1 0x1 PUSH1 0x1 PUSH1 0xA0 SHL SUB SWAP1 SWAP2 AND DUP2 MSTORE PUSH1 0x20 SWAP1 RETURN JUMPDEST CALLVALUE PUSH2 0x249 JUMPI PUSH1 0x20 CALLDATASIZE PUSH1 0x3 NOT ADD SLT PUSH2 0x249 JUMPI PUSH1 0x40 MLOAD PUSH4 0x3D80D00B PUSH1 0xE0 SHL DUP2 MSTORE PUSH1 0x7 PUSH1 0x4 DUP3 ADD MSTORE PUSH1 0x4 CALLDATALOAD PUSH1 0x24 DUP3 ADD MSTORE PUSH1 0x0 DUP2 PUSH1 0x44 DUP2 ADDRESS GAS STATICCALL SWAP1 DUP2 ISZERO PUSH2 0x405 JUMPI PUSH1 0x0 SWAP1 PUSH1 0x0 SWAP3 PUSH2 0x2701 JUMPI JUMPDEST POP PUSH2 0x2C5 PUSH1 0x40 MLOAD SWAP3 DUP4 SWAP3 DUP4 PUSH2 0x2D73 JUMP JUMPDEST SWAP1 POP PUSH2 0x2720 SWAP2 POP RETURNDATASIZE DUP1 PUSH1 0x0 DUP4 RETURNDATACOPY PUSH2 0x2718 DUP2 DUP4 PUSH2 0x2FD5 JUMP JUMPDEST DUP2 ADD SWAP1 PUSH2 0x3357 JUMP JUMPDEST SWAP1 DUP3 PUSH2 0x26F1 JUMP JUMPDEST CALLVALUE PUSH2 0x249 JUMPI PUSH2 0x2735 CALLDATASIZE PUSH2 0x2DF1 JUMP JUMPDEST PUSH1 0x1 DUP1 SLOAD PUSH1 0x40 MLOAD PUSH4 0x1FCA74DD PUSH1 0xE3 SHL DUP2 MSTORE PUSH1 0x1 PUSH1 0x1 PUSH1 0xA0 SHL SUB SWAP1 SWAP2 AND SWAP4 SWAP3 SWAP2 SWAP1 PUSH1 0x20 DUP2 PUSH1 0x4 DUP2 DUP9 GAS STATICCALL SWAP1 DUP2 ISZERO PUSH2 0x405 JUMPI PUSH1 0x0 SWAP2 PUSH2 0x2A6E JUMPI JUMPDEST POP PUSH1 0x40 MLOAD PUSH2 0x277A DUP2 PUSH2 0x2FBA JUMP JUMPDEST PUSH1 0x0 DUP2 MSTORE SWAP5 PUSH1 0x40 MLOAD PUSH2 0x278B DUP2 PUSH2 0x2FBA JUMP JUMPDEST PUSH1 0x0 DUP2 MSTORE SWAP5 PUSH3 0x15180 SWAP1 DUP2 DUP2 MUL SWAP2 DUP2 DUP4 DIV EQ SWAP1 ISZERO OR ISZERO PUSH2 0x9B2 JUMPI PUSH2 0x27AF SWAP1 TIMESTAMP PUSH2 0x3018 JUMP JUMPDEST DUP4 JUMPDEST DUP4 DUP2 LT PUSH2 0x2921 JUMPI POP POP POP POP DUP1 PUSH1 0x0 SWAP1 JUMPDEST PUSH2 0x2829 JUMPI JUMPDEST POP POP DUP1 ISZERO ISZERO DUP1 PUSH2 0x281F JUMPI JUMPDEST ISZERO PUSH2 0x2817 JUMPI JUMPDEST PUSH2 0x27E0 DUP2 PUSH2 0x32B3 JUMP JUMPDEST SWAP2 PUSH2 0x27EA DUP3 PUSH2 0x32B3 JUMP JUMPDEST SWAP4 PUSH1 0x0 JUMPDEST DUP4 DUP2 LT PUSH2 0x2804 JUMPI PUSH1 0x40 MLOAD DUP1 PUSH2 0x2C5 DUP9 DUP9 DUP4 PUSH2 0x2D73 JUMP JUMPDEST DUP1 PUSH2 0xAE1 PUSH2 0x2812 SWAP3 DUP5 PUSH2 0x32E5 JUMP JUMPDEST PUSH2 0x27EE JUMP JUMPDEST POP DUP2 MLOAD PUSH2 0x27D7 JUMP JUMPDEST POP DUP3 MLOAD DUP2 LT PUSH2 0x27D1 JUMP JUMPDEST DUP5 MLOAD PUSH1 0x0 NOT SWAP1 DUP2 DUP2 ADD SWAP1 DUP2 GT PUSH2 0x9B2 JUMPI DUP3 LT ISZERO PUSH2 0x291B JUMPI SWAP1 DUP3 DUP1 SWAP3 PUSH1 0x0 SWAP2 JUMPDEST PUSH2 0x285E JUMPI JUMPDEST POP POP PUSH2 0x2858 SWAP1 PUSH2 0x2F34 JUMP JUMPDEST SWAP1 PUSH2 0x27C1 JUMP JUMPDEST SWAP1 SWAP2 SWAP3 POP PUSH2 0x286D DUP4 DUP9 MLOAD PUSH2 0x3018 JUMP JUMPDEST DUP2 DUP2 ADD SWAP1 DUP2 GT PUSH2 0x9B2 JUMPI DUP5 SWAP1 DUP4 LT ISZERO PUSH2 0x2914 JUMPI POP PUSH2 0x288B DUP3 DUP8 PUSH2 0x32E5 JUMP JUMPDEST MLOAD DUP5 DUP4 ADD SWAP3 DUP4 DUP2 GT PUSH2 0x9B2 JUMPI DUP4 PUSH2 0x28B3 SWAP3 PUSH2 0x28A7 DUP9 SWAP7 DUP12 PUSH2 0x32E5 JUMP JUMPDEST MLOAD GT PUSH2 0x28BC JUMPI POP PUSH2 0x2F34 JUMP JUMPDEST SWAP1 DUP3 SWAP4 SWAP3 PUSH2 0x2848 JUMP JUMPDEST PUSH2 0x28C6 DUP3 DUP11 PUSH2 0x32E5 JUMP JUMPDEST MLOAD PUSH2 0x28D1 DUP3 DUP12 PUSH2 0x32E5 JUMP JUMPDEST MLOAD PUSH2 0x28DC DUP5 DUP13 PUSH2 0x32E5 JUMP JUMPDEST MSTORE PUSH2 0x28E7 DUP3 DUP12 PUSH2 0x32E5 JUMP JUMPDEST MSTORE PUSH2 0x290D PUSH2 0x28F5 DUP4 DUP13 PUSH2 0x32E5 JUMP JUMPDEST MLOAD SWAP2 DUP12 PUSH2 0x2906 DUP6 PUSH2 0xD2E DUP5 DUP5 PUSH2 0x32E5 JUMP JUMPDEST MSTORE DUP12 PUSH2 0x32E5 JUMP JUMPDEST MSTORE DUP10 PUSH2 0xB9A JUMP JUMPDEST SWAP3 SWAP2 PUSH2 0x284D JUMP JUMPDEST POP PUSH2 0x27C6 JUMP JUMPDEST PUSH1 0x40 MLOAD PUSH4 0xEB44FDD3 PUSH1 0xE0 SHL DUP2 MSTORE PUSH1 0x4 DUP2 ADD DUP3 SWAP1 MSTORE PUSH1 0x24 SWAP1 PUSH1 0x0 DUP2 DUP4 DUP2 DUP9 GAS STATICCALL SWAP1 DUP2 ISZERO PUSH2 0x405 JUMPI PUSH1 0x0 SWAP2 PUSH2 0x2A53 JUMPI JUMPDEST POP PUSH2 0x180 DUP2 ADD MLOAD PUSH1 0x5 DUP2 LT ISZERO PUSH2 0x2A3E JUMPI ISZERO DUP1 PUSH2 0x2A2F JUMPI JUMPDEST PUSH2 0x297B JUMPI JUMPDEST POP POP PUSH2 0x2976 SWAP1 PUSH2 0x2F34 JUMP JUMPDEST PUSH2 0x27B1 JUMP JUMPDEST DUP10 SWAP9 SWAP2 SWAP3 SWAP9 MLOAD DUP8 DUP2 ADD DUP1 SWAP2 GT PUSH2 0xD47 JUMPI PUSH2 0x2994 SWAP1 PUSH2 0x32B3 JUMP JUMPDEST SWAP3 DUP3 MLOAD SWAP1 DUP9 DUP3 ADD DUP1 SWAP3 GT PUSH2 0x3A2 JUMPI POP PUSH2 0x29AD DUP11 SWAP2 PUSH2 0x32B3 JUMP JUMPDEST SWAP11 DUP9 PUSH1 0x0 DUP2 JUMPDEST PUSH2 0x29E7 JUMPI JUMPDEST POP POP PUSH2 0x2976 SWAP5 SWAP4 SWAP3 PUSH2 0x29DD SWAP3 PUSH2 0x29D2 PUSH2 0x100 SWAP4 MLOAD DUP8 PUSH2 0x32E5 JUMP JUMPDEST MSTORE ADD MLOAD SWAP2 MLOAD DUP12 PUSH2 0x32E5 JUMP JUMPDEST MSTORE SWAP8 SWAP7 SWAP1 DUP10 PUSH2 0x296B JUMP JUMPDEST SWAP1 SWAP2 SWAP3 DUP4 MLOAD DUP3 LT ISZERO PUSH2 0x2A27 JUMPI POP DUP1 PUSH2 0x2A02 PUSH2 0x2A1D SWAP3 DUP6 PUSH2 0x32E5 JUMP JUMPDEST MLOAD PUSH2 0x2A0D DUP3 DUP10 PUSH2 0x32E5 JUMP JUMPDEST MSTORE DUP14 PUSH2 0x388 DUP3 PUSH2 0xD2E DUP2 DUP11 PUSH2 0x32E5 JUMP JUMPDEST SWAP1 DUP12 SWAP3 SWAP2 DUP2 PUSH2 0x29B3 JUMP JUMPDEST SWAP3 SWAP2 SWAP1 PUSH2 0x29B8 JUMP JUMPDEST POP DUP4 PUSH2 0x100 DUP3 ADD MLOAD LT ISZERO PUSH2 0x2966 JUMP JUMPDEST DUP3 PUSH4 0x4E487B71 PUSH1 0xE0 SHL PUSH1 0x0 MSTORE PUSH1 0x21 PUSH1 0x4 MSTORE PUSH1 0x0 REVERT JUMPDEST PUSH2 0x2A68 SWAP2 POP RETURNDATASIZE DUP1 PUSH1 0x0 DUP4 RETURNDATACOPY PUSH2 0x3F7 DUP2 DUP4 PUSH2 0x2FD5 JUMP JUMPDEST DUP11 PUSH2 0x294F JUMP JUMPDEST SWAP1 POP PUSH1 0x20 DUP2 RETURNDATASIZE DUP3 GT PUSH2 0x2A97 JUMPI JUMPDEST DUP2 PUSH2 0x2A88 PUSH1 0x20 SWAP4 DUP4 PUSH2 0x2FD5 JUMP JUMPDEST DUP2 ADD SUB SLT PUSH2 0x249 JUMPI MLOAD DUP6 PUSH2 0x276D JUMP JUMPDEST RETURNDATASIZE SWAP2 POP PUSH2 0x2A7B JUMP JUMPDEST CALLVALUE PUSH2 0x249 JUMPI PUSH1 0x20 DUP1 PUSH1 0x3 NOT CALLDATASIZE ADD SLT PUSH2 0x249 JUMPI PUSH1 0x1 PUSH1 0x1 PUSH1 0xA0 SHL SUB PUSH2 0x2AC1 PUSH2 0x2D9B JUMP JUMPDEST AND PUSH1 0x0 MSTORE PUSH1 0x5 DUP2 MSTORE PUSH1 0x40 PUSH1 0x0 KECCAK256 SWAP1 PUSH1 0x40 MLOAD DUP1 DUP4 DUP4 DUP3 SWAP6 SLOAD SWAP4 DUP5 DUP2 MSTORE ADD SWAP1 PUSH1 0x0 MSTORE DUP4 PUSH1 0x0 KECCAK256 SWAP3 PUSH1 0x0 JUMPDEST DUP6 DUP3 DUP3 LT PUSH2 0x2B14 JUMPI POP POP POP PUSH2 0x2B00 SWAP3 POP SUB DUP4 PUSH2 0x2FD5 JUMP JUMPDEST PUSH2 0x2C5 PUSH1 0x40 MLOAD SWAP3 DUP3 DUP5 SWAP4 DUP5 MSTORE DUP4 ADD SWAP1 PUSH2 0x2D3F JUMP JUMPDEST DUP6 SLOAD DUP5 MSTORE PUSH1 0x1 SWAP6 DUP7 ADD SWAP6 DUP9 SWAP6 POP SWAP4 ADD SWAP3 ADD PUSH2 0x2AE9 JUMP JUMPDEST CALLVALUE PUSH2 0x249 JUMPI PUSH1 0x20 CALLDATASIZE PUSH1 0x3 NOT ADD SLT PUSH2 0x249 JUMPI PUSH1 0x20 PUSH2 0x2B4D PUSH2 0x2B48 PUSH2 0x2D9B JUMP JUMPDEST PUSH2 0x31E3 JUMP JUMPDEST PUSH1 0x40 MLOAD SWAP1 DUP2 MSTORE RETURN JUMPDEST CALLVALUE PUSH2 0x249 JUMPI PUSH2 0x2B63 CALLDATASIZE PUSH2 0x2DC7 JUMP JUMPDEST POP PUSH1 0x1 SLOAD PUSH1 0x1 PUSH1 0x1 PUSH1 0xA0 SHL SUB SWAP2 DUP3 SWAP2 PUSH2 0x2B7F SWAP1 DUP4 AND CALLER EQ PUSH2 0x2ED8 JUMP JUMPDEST AND SWAP2 DUP3 PUSH1 0x0 MSTORE PUSH1 0x2 PUSH1 0x20 MSTORE PUSH1 0x40 PUSH1 0x0 KECCAK256 PUSH1 0x2 DUP2 ADD PUSH2 0x2B9D DUP2 SLOAD PUSH2 0x2F34 JUMP JUMPDEST SWAP1 SSTORE TIMESTAMP PUSH1 0xA DUP3 ADD SSTORE PUSH1 0x0 DUP4 PUSH1 0x1 SLOAD AND SWAP3 PUSH1 0x24 PUSH1 0x40 MLOAD DUP1 SWAP6 DUP2 SWAP4 PUSH4 0xEB44FDD3 PUSH1 0xE0 SHL DUP4 MSTORE PUSH1 0x4 DUP4 ADD MSTORE GAS STATICCALL SWAP2 DUP3 ISZERO PUSH2 0x405 JUMPI PUSH1 0x0 DUP1 MLOAD PUSH1 0x20 PUSH2 0x339B DUP4 CODECOPY DUP2 MLOAD SWAP2 MSTORE SWAP4 PUSH1 0x40 SWAP4 DUP7 SWAP3 PUSH1 0x0 SWAP2 PUSH2 0x2C1C JUMPI JUMPDEST POP MLOAD AND EQ PUSH2 0x2C07 JUMPI PUSH1 0x3 DUP2 SLOAD SWAP2 ADD SLOAD DUP3 MLOAD SWAP2 DUP3 MSTORE PUSH1 0x20 DUP3 ADD MSTORE LOG2 STOP JUMPDEST PUSH1 0x8 DUP2 ADD PUSH2 0x2C15 DUP2 SLOAD PUSH2 0x2F34 JUMP JUMPDEST SWAP1 SSTORE PUSH2 0x534 JUMP JUMPDEST PUSH2 0x2C31 SWAP2 POP RETURNDATASIZE DUP1 PUSH1 0x0 DUP4 RETURNDATACOPY PUSH2 0x3F7 DUP2 DUP4 PUSH2 0x2FD5 JUMP JUMPDEST DUP8 PUSH2 0x2BEB JUMP JUMPDEST CALLVALUE PUSH2 0x249 JUMPI PUSH1 0x20 DUP1 PUSH1 0x3 NOT CALLDATASIZE ADD SLT PUSH2 0x249 JUMPI PUSH1 0x1 PUSH1 0x1 PUSH1 0xA0 SHL SUB PUSH2 0x2C59 PUSH2 0x2D9B JUMP JUMPDEST AND PUSH1 0x0 MSTORE PUSH1 0x6 DUP2 MSTORE PUSH1 0x40 PUSH1 0x0 KECCAK256 SWAP1 PUSH1 0x40 MLOAD DUP1 DUP4 DUP4 DUP3 SWAP6 SLOAD SWAP4 DUP5 DUP2 MSTORE ADD SWAP1 PUSH1 0x0 MSTORE DUP4 PUSH1 0x0 KECCAK256 SWAP3 PUSH1 0x0 JUMPDEST DUP6 DUP3 DUP3 LT PUSH2 0x2C98 JUMPI POP POP POP PUSH2 0x2B00 SWAP3 POP SUB DUP4 PUSH2 0x2FD5 JUMP JUMPDEST DUP6 SLOAD DUP5 MSTORE PUSH1 0x1 SWAP6 DUP7 ADD SWAP6 DUP9 SWAP6 POP SWAP4 ADD SWAP3 ADD PUSH2 0x2C81 JUMP JUMPDEST CALLVALUE PUSH2 0x249 JUMPI PUSH1 0x20 CALLDATASIZE PUSH1 0x3 NOT ADD SLT PUSH2 0x249 JUMPI PUSH1 0x1 PUSH1 0x1 PUSH1 0xA0 SHL SUB PUSH2 0x2CCF PUSH2 0x2D9B JUMP JUMPDEST AND PUSH1 0x0 MSTORE PUSH1 0x2 PUSH1 0x20 MSTORE PUSH1 0x20 PUSH1 0x9 PUSH1 0x40 PUSH1 0x0 KECCAK256 ADD SLOAD PUSH1 0x40 MLOAD SWAP1 DUP2 MSTORE RETURN JUMPDEST CALLVALUE PUSH2 0x249 JUMPI PUSH1 0x20 CALLDATASIZE PUSH1 0x3 NOT ADD SLT PUSH2 0x249 JUMPI PUSH4 0x3D80D00B PUSH1 0xE0 SHL DUP2 MSTORE PUSH1 0x1 PUSH1 0x4 DUP3 ADD MSTORE PUSH1 0x4 CALLDATALOAD PUSH1 0x24 DUP3 ADD MSTORE PUSH1 0x0 DUP2 PUSH1 0x44 DUP2 ADDRESS GAS STATICCALL SWAP1 DUP2 ISZERO PUSH2 0x405 JUMPI PUSH1 0x0 SWAP1 PUSH1 0x0 SWAP3 PUSH2 0x2701 JUMPI POP PUSH2 0x2C5 PUSH1 0x40 MLOAD SWAP3 DUP4 SWAP3 DUP4 PUSH2 0x2D73 JUMP JUMPDEST SWAP1 DUP2 MLOAD DUP1 DUP3 MSTORE PUSH1 0x20 DUP1 DUP1 SWAP4 ADD SWAP4 ADD SWAP2 PUSH1 0x0 JUMPDEST DUP3 DUP2 LT PUSH2 0x2D5F JUMPI POP POP POP POP SWAP1 JUMP JUMPDEST DUP4 MLOAD DUP6 MSTORE SWAP4 DUP2 ADD SWAP4 SWAP3 DUP2 ADD SWAP3 PUSH1 0x1 ADD PUSH2 0x2D51 JUMP JUMPDEST SWAP1 SWAP2 PUSH2 0x2D8A PUSH2 0x2D98 SWAP4 PUSH1 0x40 DUP5 MSTORE PUSH1 0x40 DUP5 ADD SWAP1 PUSH2 0x2D3F JUMP JUMPDEST SWAP2 PUSH1 0x20 DUP2 DUP5 SUB SWAP2 ADD MSTORE PUSH2 0x2D3F JUMP JUMPDEST SWAP1 JUMP JUMPDEST PUSH1 0x4 CALLDATALOAD SWAP1 PUSH1 0x1 PUSH1 0x1 PUSH1 0xA0 SHL SUB DUP3 AND DUP3 SUB PUSH2 0x249 JUMPI JUMP JUMPDEST PUSH1 0x24 CALLDATALOAD SWAP1 PUSH1 0x1 PUSH1 0x1 PUSH1 0xA0 SHL SUB DUP3 AND DUP3 SUB PUSH2 0x249 JUMPI JUMP JUMPDEST PUSH1 0x60 SWAP1 PUSH1 0x3 NOT ADD SLT PUSH2 0x249 JUMPI PUSH1 0x4 CALLDATALOAD SWAP1 PUSH1 0x24 CALLDATALOAD PUSH1 0x1 PUSH1 0x1 PUSH1 0xA0 SHL SUB DUP2 AND DUP2 SUB PUSH2 0x249 JUMPI SWAP1 PUSH1 0x44 CALLDATALOAD SWAP1 JUMP JUMPDEST PUSH1 0x40 SWAP1 PUSH1 0x3 NOT ADD SLT PUSH2 0x249 JUMPI PUSH1 0x4 CALLDATALOAD SWAP1 PUSH1 0x24 CALLDATALOAD SWAP1 JUMP JUMPDEST DUP1 SLOAD DUP3 LT ISZERO PUSH2 0x2E1F JUMPI PUSH1 0x0 MSTORE PUSH1 0x20 PUSH1 0x0 KECCAK256 ADD SWAP1 PUSH1 0x0 SWAP1 JUMP JUMPDEST PUSH4 0x4E487B71 PUSH1 0xE0 SHL PUSH1 0x0 MSTORE PUSH1 0x32 PUSH1 0x4 MSTORE PUSH1 0x24 PUSH1 0x0 REVERT JUMPDEST CALLVALUE PUSH2 0x249 JUMPI PUSH1 0x20 DUP1 PUSH1 0x3 NOT CALLDATASIZE ADD SLT PUSH2 0x249 JUMPI PUSH1 0x1 PUSH1 0x1 PUSH1 0xA0 SHL SUB PUSH2 0x2E57 PUSH2 0x2D9B JUMP JUMPDEST AND PUSH1 0x0 MSTORE PUSH1 0x4 DUP2 MSTORE PUSH1 0x40 PUSH1 0x0 KECCAK256 SWAP1 PUSH1 0x40 MLOAD DUP1 DUP4 DUP4 DUP3 SWAP6 SLOAD SWAP4 DUP5 DUP2 MSTORE ADD SWAP1 PUSH1 0x0 MSTORE DUP4 PUSH1 0x0 KECCAK256 SWAP3 PUSH1 0x0 JUMPDEST DUP6 DUP3 DUP3 LT PUSH2 0x2E96 JUMPI POP POP POP PUSH2 0x2B00 SWAP3 POP SUB DUP4 PUSH2 0x2FD5 JUMP JUMPDEST DUP6 SLOAD DUP5 MSTORE PUSH1 0x1 SWAP6 DUP7 ADD SWAP6 DUP9 SWAP6 POP SWAP4 ADD SWAP3 ADD PUSH2 0x2E7F JUMP JUMPDEST PUSH1 0x0 SLOAD PUSH1 0x1 PUSH1 0x1 PUSH1 0xA0 SHL SUB AND CALLER SUB PUSH2 0x2EC0 JUMPI JUMP JUMPDEST PUSH1 0x40 MLOAD PUSH4 0x118CDAA7 PUSH1 0xE0 SHL DUP2 MSTORE CALLER PUSH1 0x4 DUP3 ADD MSTORE PUSH1 0x24 SWAP1 REVERT JUMPDEST ISZERO PUSH2 0x2EDF JUMPI JUMP JUMPDEST PUSH1 0x40 MLOAD PUSH3 0x461BCD PUSH1 0xE5 SHL DUP2 MSTORE PUSH1 0x20 PUSH1 0x4 DUP3 ADD MSTORE PUSH1 0x27 PUSH1 0x24 DUP3 ADD MSTORE PUSH32 0x416E616C79746963733A204F6E6C79204D61726B65744D616E61676572206361 PUSH1 0x44 DUP3 ADD MSTORE PUSH7 0x6E20747261636B PUSH1 0xC8 SHL PUSH1 0x64 DUP3 ADD MSTORE PUSH1 0x84 SWAP1 REVERT JUMPDEST PUSH1 0x0 NOT DUP2 EQ PUSH2 0x9B2 JUMPI PUSH1 0x1 ADD SWAP1 JUMP JUMPDEST SWAP2 SWAP1 DUP3 ADD DUP1 SWAP3 GT PUSH2 0x9B2 JUMPI JUMP JUMPDEST PUSH2 0x160 DUP2 ADD SWAP1 DUP2 LT PUSH1 0x1 PUSH1 0x1 PUSH1 0x40 SHL SUB DUP3 GT OR PUSH2 0x2F6C JUMPI PUSH1 0x40 MSTORE JUMP JUMPDEST PUSH4 0x4E487B71 PUSH1 0xE0 SHL PUSH1 0x0 MSTORE PUSH1 0x41 PUSH1 0x4 MSTORE PUSH1 0x24 PUSH1 0x0 REVERT JUMPDEST PUSH2 0x120 DUP2 ADD SWAP1 DUP2 LT PUSH1 0x1 PUSH1 0x1 PUSH1 0x40 SHL SUB DUP3 GT OR PUSH2 0x2F6C JUMPI PUSH1 0x40 MSTORE JUMP JUMPDEST PUSH2 0x100 DUP2 ADD SWAP1 DUP2 LT PUSH1 0x1 PUSH1 0x1 PUSH1 0x40 SHL SUB DUP3 GT OR PUSH2 0x2F6C JUMPI PUSH1 0x40 MSTORE JUMP JUMPDEST PUSH1 0x20 DUP2 ADD SWAP1 DUP2 LT PUSH1 0x1 PUSH1 0x1 PUSH1 0x40 SHL SUB DUP3 GT OR PUSH2 0x2F6C JUMPI PUSH1 0x40 MSTORE JUMP JUMPDEST PUSH1 0x1F SWAP1 SWAP2 ADD PUSH1 0x1F NOT AND DUP2 ADD SWAP1 PUSH1 0x1 PUSH1 0x1 PUSH1 0x40 SHL SUB DUP3 GT SWAP1 DUP3 LT OR PUSH2 0x2F6C JUMPI PUSH1 0x40 MSTORE JUMP JUMPDEST DUP2 ISZERO PUSH2 0x3002 JUMPI DIV SWAP1 JUMP JUMPDEST PUSH4 0x4E487B71 PUSH1 0xE0 SHL PUSH1 0x0 MSTORE PUSH1 0x12 PUSH1 0x4 MSTORE PUSH1 0x24 PUSH1 0x0 REVERT JUMPDEST SWAP2 SWAP1 DUP3 SUB SWAP2 DUP3 GT PUSH2 0x9B2 JUMPI JUMP JUMPDEST DUP1 SLOAD PUSH1 0x1 PUSH1 0x40 SHL DUP2 LT ISZERO PUSH2 0x2F6C JUMPI PUSH2 0x3042 SWAP2 PUSH1 0x1 DUP3 ADD DUP2 SSTORE PUSH2 0x2E07 JUMP JUMPDEST DUP2 SWAP3 SWAP2 SLOAD SWAP1 PUSH1 0x3 SHL SWAP2 DUP3 SHL SWAP2 PUSH1 0x0 NOT SWAP1 SHL NOT AND OR SWAP1 SSTORE JUMP JUMPDEST MLOAD SWAP1 PUSH1 0x1 PUSH1 0x1 PUSH1 0xA0 SHL SUB DUP3 AND DUP3 SUB PUSH2 0x249 JUMPI JUMP JUMPDEST MLOAD SWAP1 DUP2 ISZERO ISZERO DUP3 SUB PUSH2 0x249 JUMPI JUMP JUMPDEST SWAP1 PUSH1 0x20 SWAP1 DUP2 DUP4 DUP3 SUB SLT PUSH2 0x249 JUMPI DUP3 MLOAD PUSH1 0x1 PUSH1 0x1 PUSH1 0x40 SHL SUB SWAP4 DUP5 DUP3 GT PUSH2 0x249 JUMPI ADD SWAP2 PUSH2 0x1E0 SWAP4 DUP5 DUP5 DUP5 SUB SLT PUSH2 0x249 JUMPI PUSH1 0x40 MLOAD SWAP5 DUP6 ADD DUP6 DUP2 LT DUP3 DUP3 GT OR PUSH2 0x2F6C JUMPI PUSH1 0x40 MSTORE PUSH2 0x30C6 DUP5 PUSH2 0x305A JUMP JUMPDEST DUP6 MSTORE DUP2 DUP5 ADD MLOAD DUP2 DUP2 GT PUSH2 0x249 JUMPI DUP5 ADD DUP4 PUSH1 0x1F DUP3 ADD SLT ISZERO PUSH2 0x249 JUMPI DUP1 MLOAD SWAP2 DUP3 GT PUSH2 0x2F6C JUMPI PUSH1 0x40 MLOAD SWAP4 PUSH2 0x3100 PUSH1 0x1F DUP5 ADD PUSH1 0x1F NOT AND DUP6 ADD DUP7 PUSH2 0x2FD5 JUMP JUMPDEST DUP3 DUP6 MSTORE DUP4 DUP4 DUP4 ADD ADD GT PUSH2 0x249 JUMPI DUP3 SWAP1 PUSH1 0x0 JUMPDEST DUP4 DUP2 LT PUSH2 0x31CF JUMPI POP POP PUSH1 0x0 SWAP2 DUP5 ADD ADD MSTORE DUP4 ADD MSTORE PUSH2 0x3131 PUSH1 0x40 DUP3 ADD PUSH2 0x306E JUMP JUMPDEST PUSH1 0x40 DUP4 ADD MSTORE PUSH1 0x60 DUP2 ADD MLOAD PUSH1 0x60 DUP4 ADD MSTORE PUSH2 0x314C PUSH1 0x80 DUP3 ADD PUSH2 0x305A JUMP JUMPDEST PUSH1 0x80 DUP4 ADD MSTORE PUSH1 0xA0 DUP2 ADD MLOAD PUSH1 0xA0 DUP4 ADD MSTORE PUSH1 0xC0 DUP2 ADD MLOAD PUSH1 0xC0 DUP4 ADD MSTORE PUSH1 0xE0 DUP2 ADD MLOAD PUSH1 0xE0 DUP4 ADD MSTORE PUSH2 0x100 DUP1 DUP3 ADD MLOAD SWAP1 DUP4 ADD MSTORE PUSH2 0x120 DUP1 DUP3 ADD MLOAD SWAP1 DUP4 ADD MSTORE PUSH2 0x140 DUP1 DUP3 ADD MLOAD SWAP1 DUP4 ADD MSTORE PUSH2 0x160 DUP1 DUP3 ADD MLOAD SWAP1 DUP4 ADD MSTORE PUSH2 0x180 DUP1 DUP3 ADD MLOAD SWAP1 PUSH1 0x5 DUP3 LT ISZERO PUSH2 0x249 JUMPI DUP4 ADD MSTORE PUSH2 0x1A0 DUP1 DUP3 ADD MLOAD SWAP1 DUP4 ADD MSTORE PUSH2 0x31C8 PUSH2 0x1C0 DUP1 SWAP3 ADD PUSH2 0x306E JUMP JUMPDEST SWAP1 DUP3 ADD MSTORE SWAP1 JUMP JUMPDEST DUP2 DUP2 ADD DUP4 ADD MLOAD DUP7 DUP3 ADD DUP5 ADD MSTORE DUP5 SWAP3 ADD PUSH2 0x3112 JUMP JUMPDEST PUSH1 0x1 DUP1 PUSH1 0xA0 SHL SUB AND PUSH1 0x0 MSTORE PUSH1 0x2 PUSH1 0x20 MSTORE PUSH1 0x40 PUSH1 0x0 KECCAK256 PUSH1 0x40 MLOAD SWAP1 PUSH2 0x3205 DUP3 PUSH2 0x2F50 JUMP JUMPDEST DUP1 SLOAD DUP1 DUP4 MSTORE PUSH1 0xA PUSH1 0x1 DUP4 ADD SLOAD SWAP3 DUP4 PUSH1 0x20 DUP7 ADD MSTORE PUSH1 0x2 DUP2 ADD SLOAD PUSH1 0x40 DUP7 ADD MSTORE PUSH1 0x3 DUP2 ADD SLOAD PUSH1 0x60 DUP7 ADD MSTORE PUSH1 0x4 DUP2 ADD SLOAD PUSH1 0x80 DUP7 ADD MSTORE PUSH1 0x5 DUP2 ADD SLOAD PUSH1 0xA0 DUP7 ADD MSTORE PUSH1 0x6 DUP2 ADD SLOAD PUSH1 0xC0 DUP7 ADD MSTORE PUSH1 0x7 DUP2 ADD SLOAD PUSH1 0xE0 DUP7 ADD MSTORE PUSH1 0x8 DUP2 ADD SLOAD PUSH2 0x100 DUP7 ADD MSTORE PUSH1 0x9 DUP2 ADD SLOAD PUSH2 0x120 DUP7 ADD MSTORE ADD SLOAD PUSH2 0x140 DUP5 ADD MSTORE ISZERO PUSH2 0x3295 JUMPI PUSH1 0x64 DUP2 MUL SWAP1 DUP1 DUP3 DIV PUSH1 0x64 EQ SWAP1 ISZERO OR ISZERO PUSH2 0x9B2 JUMPI PUSH2 0x2D98 SWAP2 MLOAD SWAP1 PUSH2 0x2FF8 JUMP JUMPDEST POP POP PUSH1 0x0 SWAP1 JUMP JUMPDEST PUSH1 0x1 PUSH1 0x1 PUSH1 0x40 SHL SUB DUP2 GT PUSH2 0x2F6C JUMPI PUSH1 0x5 SHL PUSH1 0x20 ADD SWAP1 JUMP JUMPDEST SWAP1 PUSH2 0x32BD DUP3 PUSH2 0x329C JUMP JUMPDEST PUSH2 0x32CA PUSH1 0x40 MLOAD SWAP2 DUP3 PUSH2 0x2FD5 JUMP JUMPDEST DUP3 DUP2 MSTORE DUP1 SWAP3 PUSH2 0x32DB PUSH1 0x1F NOT SWAP2 PUSH2 0x329C JUMP JUMPDEST ADD SWAP1 PUSH1 0x20 CALLDATASIZE SWAP2 ADD CALLDATACOPY JUMP JUMPDEST DUP1 MLOAD DUP3 LT ISZERO PUSH2 0x2E1F JUMPI PUSH1 0x20 SWAP2 PUSH1 0x5 SHL ADD ADD SWAP1 JUMP JUMPDEST DUP2 PUSH1 0x1F DUP3 ADD SLT ISZERO PUSH2 0x249 JUMPI DUP1 MLOAD SWAP2 PUSH2 0x3310 DUP4 PUSH2 0x329C JUMP JUMPDEST SWAP3 PUSH2 0x331E PUSH1 0x40 MLOAD SWAP5 DUP6 PUSH2 0x2FD5 JUMP JUMPDEST DUP1 DUP5 MSTORE PUSH1 0x20 SWAP3 DUP4 DUP1 DUP7 ADD SWAP3 PUSH1 0x5 SHL DUP3 ADD ADD SWAP3 DUP4 GT PUSH2 0x249 JUMPI DUP4 ADD SWAP1 JUMPDEST DUP3 DUP3 LT PUSH2 0x3348 JUMPI POP POP POP POP SWAP1 JUMP JUMPDEST DUP2 MLOAD DUP2 MSTORE SWAP1 DUP4 ADD SWAP1 DUP4 ADD PUSH2 0x333A JUMP JUMPDEST SWAP2 SWAP1 SWAP2 PUSH1 0x40 DUP2 DUP5 SUB SLT PUSH2 0x249 JUMPI DUP1 MLOAD PUSH1 0x1 PUSH1 0x1 PUSH1 0x40 SHL SUB SWAP4 SWAP1 DUP5 DUP2 GT PUSH2 0x249 JUMPI DUP2 PUSH2 0x3383 SWAP2 DUP5 ADD PUSH2 0x32F9 JUMP JUMPDEST SWAP4 PUSH1 0x20 DUP4 ADD MLOAD SWAP1 DUP2 GT PUSH2 0x249 JUMPI PUSH2 0x2D98 SWAP3 ADD PUSH2 0x32F9 JUMP INVALID 0x4B PUSH13 0x7ABACB75992CC13AD43FFE4479 0xDA 0xC5 0xF7 0xBE SWAP2 KECCAK256 0x2F PUSH0 0xBB LT DUP15 0xB1 0xAF DUP14 JUMP 0xED PUSH3 0x8BE007 SWAP13 MSTORE8 AND MSIZE EQ SGT PREVRANDAO 0xCD 0x1F 0xD0 LOG4 CALLCODE DUP5 NOT 0x49 PUSH32 0x9722A3DAAFE3B4186F6B6457E057AEC02922D876EC3D68C70DDF1563D34F09D2 SWAP1 ORIGIN 0xF7 PUSH29 0xCB3357D31CFFE7E733A2646970667358221220571B1EAED1B11133CC90 SLOAD LOG4 CREATE 0x49 PUSH31 0xB0817D855BEBB69A81682C7CA8CC190A1564736F6C63430008140033000000 "},"methodIdentifiers":{"getActiveMarketsByBettorCount(uint256)":"b2e1ae8b","getActiveMarketsByMinVolume(uint256)":"fbe15159","getActiveMarketsByParticipants(uint256)":"a119515a","getActiveMarketsByVolume(uint256)":"50ad34a1","getGlobalStats()":"6b4169c3","getMarketStats(uint256)":"58057fe5","getMarketsByCreator(address)":"e99c80bd","getMarketsByDateRange(uint256,uint256)":"57f978ad","getMarketsByState(uint8)":"9b7bcd24","getMarketsByToken(address)":"cd94a775","getMarketsFiltered(address,address,uint256,uint256,uint8,uint256,uint256)":"837cd235","getRecentActiveMarkets(uint256,uint256)":"3d80d00b","getThisWeekActiveMarkets(uint256)":"3f89efda","getTodayActiveMarkets(uint256)":"0649e0c0","getTopBettors(uint256)":"5be0a34b","getUserBets(address)":"2d56657d","getUserFavoriteOption(address)":"110d05e5","getUserMarkets(address)":"da4473d8","getUserMarketsByState(address,uint8)":"80aa0d8c","getUserStats(address)":"4e43603a","getUserSupports(address)":"1c6e04db","getUserWinRate(address)":"25ec5ef1","marketManager()":"41ed2c12","marketStats(uint256)":"4b669c09","owner()":"8da5cb5b","renounceOwnership()":"715018a6","setMarketManager(address)":"d82aff11","trackLoss(uint256,address,uint256)":"2053114d","trackMarketCreation(uint256,address)":"f054f00a","trackMarketResolution(uint256,uint256)":"ff4a7300","trackStake(uint256,address,uint256,uint256)":"c228038d","trackSupport(uint256,address,uint256)":"8f46a5a1","trackWinnings(uint256,address,uint256)":"61d442c2","transferOwnership(address)":"f2fde38b","userBets(address,uint256)":"8068aa68","userMarkets(address,uint256)":"db0f871d","userOptionStats(address,uint256)":"54488a5a","userStats(address)":"8a65d874","userSupports(address,uint256)":"6b3b7ea7"}}}}}