{"contracts/P2PMarketManager.sol":{"EventPool":{"abi":[{"inputs":[{"internalType":"address","name":"initialOwner","type":"address"},{"internalType":"address payable","name":"_treasury","type":"address"},{"internalType":"address","name":"_verification","type":"address"},{"internalType":"address","name":"_analytics","type":"address"},{"internalType":"uint256","name":"_marketCreationFee","type":"uint256"}],"stateMutability":"nonpayable","type":"constructor"},{"inputs":[{"internalType":"address","name":"owner","type":"address"}],"name":"OwnableInvalidOwner","type":"error"},{"inputs":[{"internalType":"address","name":"account","type":"address"}],"name":"OwnableUnauthorizedAccount","type":"error"},{"inputs":[{"internalType":"address","name":"token","type":"address"}],"name":"SafeERC20FailedOperation","type":"error"},{"anonymous":false,"inputs":[{"indexed":true,"internalType":"uint256","name":"marketId","type":"uint256"},{"indexed":true,"internalType":"address","name":"user","type":"address"},{"indexed":false,"internalType":"uint256","name":"option","type":"uint256"},{"indexed":false,"internalType":"uint256","name":"amount","type":"uint256"}],"name":"BetPlaced","type":"event"},{"anonymous":false,"inputs":[{"indexed":true,"internalType":"uint256","name":"marketId","type":"uint256"},{"indexed":false,"internalType":"string","name":"reason","type":"string"}],"name":"MarketCancelled","type":"event"},{"anonymous":false,"inputs":[{"indexed":true,"internalType":"uint256","name":"marketId","type":"uint256"},{"indexed":true,"internalType":"address","name":"creator","type":"address"},{"indexed":false,"internalType":"string","name":"ipfsHash","type":"string"},{"indexed":false,"internalType":"bool","name":"isMultiOption","type":"bool"},{"indexed":false,"internalType":"uint256","name":"maxOptions","type":"uint256"},{"indexed":false,"internalType":"address","name":"paymentToken","type":"address"},{"indexed":false,"internalType":"uint256","name":"minStake","type":"uint256"}],"name":"MarketCreated","type":"event"},{"anonymous":false,"inputs":[{"indexed":true,"internalType":"uint256","name":"marketId","type":"uint256"},{"indexed":false,"internalType":"uint256","name":"endTime","type":"uint256"}],"name":"MarketEnded","type":"event"},{"anonymous":false,"inputs":[{"indexed":true,"internalType":"uint256","name":"marketId","type":"uint256"},{"indexed":false,"internalType":"uint256","name":"winningOption","type":"uint256"}],"name":"MarketResolved","type":"event"},{"anonymous":false,"inputs":[{"indexed":true,"internalType":"uint256","name":"marketId","type":"uint256"},{"indexed":true,"internalType":"address","name":"supporter","type":"address"},{"indexed":false,"internalType":"uint256","name":"amount","type":"uint256"}],"name":"MarketSupported","type":"event"},{"anonymous":false,"inputs":[{"indexed":true,"internalType":"address","name":"previousOwner","type":"address"},{"indexed":true,"internalType":"address","name":"newOwner","type":"address"}],"name":"OwnershipTransferred","type":"event"},{"anonymous":false,"inputs":[{"indexed":true,"internalType":"uint256","name":"marketId","type":"uint256"},{"indexed":true,"internalType":"address","name":"user","type":"address"},{"indexed":false,"internalType":"uint256","name":"amount","type":"uint256"}],"name":"RefundClaimed","type":"event"},{"anonymous":false,"inputs":[{"indexed":true,"internalType":"uint256","name":"marketId","type":"uint256"},{"indexed":true,"internalType":"address","name":"supporter","type":"address"},{"indexed":false,"internalType":"uint256","name":"amount","type":"uint256"}],"name":"SupportRewardClaimed","type":"event"},{"anonymous":false,"inputs":[{"indexed":true,"internalType":"uint256","name":"marketId","type":"uint256"},{"indexed":true,"internalType":"address","name":"supporter","type":"address"},{"indexed":false,"internalType":"uint256","name":"amount","type":"uint256"}],"name":"SupportWithdrawn","type":"event"},{"anonymous":false,"inputs":[{"indexed":true,"internalType":"uint256","name":"marketId","type":"uint256"},{"indexed":true,"internalType":"address","name":"user","type":"address"},{"indexed":false,"internalType":"uint256","name":"amount","type":"uint256"}],"name":"WinningsClaimed","type":"event"},{"inputs":[{"internalType":"uint256","name":"","type":"uint256"}],"name":"activeMarkets","outputs":[{"internalType":"uint256","name":"","type":"uint256"}],"stateMutability":"view","type":"function"},{"inputs":[{"internalType":"address","name":"token","type":"address"},{"internalType":"string","name":"symbol","type":"string"}],"name":"addSupportedToken","outputs":[],"stateMutability":"nonpayable","type":"function"},{"inputs":[],"name":"analytics","outputs":[{"internalType":"address","name":"","type":"address"}],"stateMutability":"view","type":"function"},{"inputs":[{"internalType":"uint256","name":"marketId","type":"uint256"}],"name":"autoResolve","outputs":[],"stateMutability":"nonpayable","type":"function"},{"inputs":[{"internalType":"address","name":"","type":"address"}],"name":"blacklistedWallets","outputs":[{"internalType":"bool","name":"","type":"bool"}],"stateMutability":"view","type":"function"},{"inputs":[{"internalType":"uint256","name":"marketId","type":"uint256"}],"name":"cancelMarket","outputs":[],"stateMutability":"nonpayable","type":"function"},{"inputs":[{"internalType":"uint256","name":"marketId","type":"uint256"}],"name":"claimRefund","outputs":[],"stateMutability":"nonpayable","type":"function"},{"inputs":[{"internalType":"uint256","name":"marketId","type":"uint256"}],"name":"claimWinnings","outputs":[],"stateMutability":"nonpayable","type":"function"},{"inputs":[{"internalType":"string","name":"ipfsHash","type":"string"},{"internalType":"bool","name":"isMultiOption","type":"bool"},{"internalType":"uint256","name":"maxOptions","type":"uint256"},{"internalType":"address","name":"paymentToken","type":"address"},{"internalType":"uint256","name":"minStake","type":"uint256"},{"internalType":"uint256","name":"creatorDeposit","type":"uint256"},{"internalType":"uint256","name":"creatorOutcome","type":"uint256"},{"internalType":"uint256","name":"durationHours","type":"uint256"}],"name":"createMarket","outputs":[{"internalType":"uint256","name":"","type":"uint256"}],"stateMutability":"payable","type":"function"},{"inputs":[{"internalType":"uint256","name":"marketId","type":"uint256"}],"name":"creatorCancelMarket","outputs":[],"stateMutability":"nonpayable","type":"function"},{"inputs":[{"internalType":"uint256","name":"marketId","type":"uint256"},{"internalType":"string","name":"reason","type":"string"}],"name":"deleteMarket","outputs":[],"stateMutability":"nonpayable","type":"function"},{"inputs":[{"internalType":"uint256","name":"","type":"uint256"}],"name":"deletedMarkets","outputs":[{"internalType":"uint256","name":"","type":"uint256"}],"stateMutability":"view","type":"function"},{"inputs":[{"internalType":"uint256","name":"","type":"uint256"}],"name":"deletionTimestamp","outputs":[{"internalType":"uint256","name":"","type":"uint256"}],"stateMutability":"view","type":"function"},{"inputs":[{"internalType":"uint256","name":"marketId","type":"uint256"}],"name":"endMarket","outputs":[],"stateMutability":"nonpayable","type":"function"},{"inputs":[],"name":"getActiveMarketCount","outputs":[{"internalType":"uint256","name":"","type":"uint256"}],"stateMutability":"view","type":"function"},{"inputs":[],"name":"getActiveMarkets","outputs":[{"internalType":"uint256[]","name":"","type":"uint256[]"}],"stateMutability":"view","type":"function"},{"inputs":[],"name":"getAllMarketIds","outputs":[{"internalType":"uint256[]","name":"","type":"uint256[]"}],"stateMutability":"view","type":"function"},{"inputs":[{"internalType":"uint256","name":"marketId","type":"uint256"}],"name":"getBettorCount","outputs":[{"internalType":"uint256","name":"","type":"uint256"}],"stateMutability":"view","type":"function"},{"inputs":[],"name":"getDeletedMarkets","outputs":[{"internalType":"uint256[]","name":"","type":"uint256[]"}],"stateMutability":"view","type":"function"},{"inputs":[{"internalType":"uint256","name":"marketId","type":"uint256"}],"name":"getMarket","outputs":[{"components":[{"internalType":"address","name":"creator","type":"address"},{"internalType":"string","name":"ipfsHash","type":"string"},{"internalType":"bool","name":"isMultiOption","type":"bool"},{"internalType":"uint256","name":"maxOptions","type":"uint256"},{"internalType":"address","name":"paymentToken","type":"address"},{"internalType":"uint256","name":"minStake","type":"uint256"},{"internalType":"uint256","name":"creatorDeposit","type":"uint256"},{"internalType":"uint256","name":"creatorOutcome","type":"uint256"},{"internalType":"uint256","name":"startTime","type":"uint256"},{"internalType":"uint256","name":"endTime","type":"uint256"},{"internalType":"uint256","name":"resolutionEndTime","type":"uint256"},{"internalType":"enum EventPool.MarketState","name":"state","type":"uint8"},{"internalType":"uint256","name":"winningOption","type":"uint256"},{"internalType":"bool","name":"isResolved","type":"bool"}],"internalType":"struct EventPool.Market","name":"","type":"tuple"}],"stateMutability":"view","type":"function"},{"inputs":[{"internalType":"uint256","name":"marketId","type":"uint256"}],"name":"getMarketBettors","outputs":[{"internalType":"address[]","name":"","type":"address[]"}],"stateMutability":"view","type":"function"},{"inputs":[{"internalType":"uint256","name":"marketId","type":"uint256"}],"name":"getMarketInfo","outputs":[{"components":[{"internalType":"address","name":"creator","type":"address"},{"internalType":"string","name":"ipfsHash","type":"string"},{"internalType":"bool","name":"isMultiOption","type":"bool"},{"internalType":"uint256","name":"maxOptions","type":"uint256"},{"internalType":"address","name":"paymentToken","type":"address"},{"internalType":"uint256","name":"minStake","type":"uint256"},{"internalType":"uint256","name":"creatorDeposit","type":"uint256"},{"internalType":"uint256","name":"creatorOutcome","type":"uint256"},{"internalType":"uint256","name":"startTime","type":"uint256"},{"internalType":"uint256","name":"endTime","type":"uint256"},{"internalType":"uint256","name":"resolutionEndTime","type":"uint256"},{"internalType":"enum EventPool.MarketState","name":"state","type":"uint8"},{"internalType":"uint256","name":"winningOption","type":"uint256"},{"internalType":"bool","name":"isResolved","type":"bool"}],"internalType":"struct EventPool.Market","name":"market","type":"tuple"},{"internalType":"uint256","name":"totalPool","type":"uint256"},{"internalType":"uint256","name":"supportPool","type":"uint256"},{"internalType":"uint256","name":"bettorCount","type":"uint256"},{"internalType":"uint256","name":"supporterCount","type":"uint256"},{"internalType":"address[]","name":"bettors","type":"address[]"},{"internalType":"address[]","name":"supporters","type":"address[]"},{"internalType":"string","name":"tokenSymbol","type":"string"}],"stateMutability":"view","type":"function"},{"inputs":[{"internalType":"uint256","name":"marketId","type":"uint256"}],"name":"getMarketSupporters","outputs":[{"internalType":"address[]","name":"","type":"address[]"}],"stateMutability":"view","type":"function"},{"inputs":[],"name":"getMarketsReadyForRemoval","outputs":[{"internalType":"uint256[]","name":"","type":"uint256[]"}],"stateMutability":"view","type":"function"},{"inputs":[],"name":"getNextMarketId","outputs":[{"internalType":"uint256","name":"","type":"uint256"}],"stateMutability":"view","type":"function"},{"inputs":[{"internalType":"uint256","name":"marketId","type":"uint256"},{"internalType":"uint256","name":"option","type":"uint256"},{"internalType":"address","name":"token","type":"address"}],"name":"getOptionPool","outputs":[{"internalType":"uint256","name":"","type":"uint256"}],"stateMutability":"view","type":"function"},{"inputs":[],"name":"getPermanentlyRemovedMarkets","outputs":[{"internalType":"uint256[]","name":"","type":"uint256[]"}],"stateMutability":"view","type":"function"},{"inputs":[{"internalType":"uint256","name":"marketId","type":"uint256"},{"internalType":"address","name":"token","type":"address"}],"name":"getSupportPool","outputs":[{"internalType":"uint256","name":"","type":"uint256"}],"stateMutability":"view","type":"function"},{"inputs":[],"name":"getSupportedTokenCount","outputs":[{"internalType":"uint256","name":"","type":"uint256"}],"stateMutability":"view","type":"function"},{"inputs":[],"name":"getSupportedTokens","outputs":[{"internalType":"address[]","name":"tokens","type":"address[]"},{"internalType":"string[]","name":"symbols","type":"string[]"}],"stateMutability":"view","type":"function"},{"inputs":[{"internalType":"uint256","name":"marketId","type":"uint256"}],"name":"getSupporterCount","outputs":[{"internalType":"uint256","name":"","type":"uint256"}],"stateMutability":"view","type":"function"},{"inputs":[{"internalType":"uint256","name":"marketId","type":"uint256"},{"internalType":"address","name":"token","type":"address"}],"name":"getTotalPool","outputs":[{"internalType":"uint256","name":"","type":"uint256"}],"stateMutability":"view","type":"function"},{"inputs":[{"internalType":"uint256","name":"marketId","type":"uint256"},{"internalType":"address","name":"user","type":"address"},{"internalType":"address","name":"token","type":"address"}],"name":"getUserBet","outputs":[{"internalType":"uint256","name":"","type":"uint256"}],"stateMutability":"view","type":"function"},{"inputs":[{"internalType":"address","name":"user","type":"address"}],"name":"getUserMarketHistory","outputs":[{"internalType":"uint256[]","name":"","type":"uint256[]"}],"stateMutability":"view","type":"function"},{"inputs":[{"internalType":"uint256","name":"marketId","type":"uint256"},{"internalType":"address","name":"user","type":"address"},{"internalType":"address","name":"token","type":"address"}],"name":"getUserSupport","outputs":[{"internalType":"uint256","name":"","type":"uint256"}],"stateMutability":"view","type":"function"},{"inputs":[{"internalType":"uint256","name":"","type":"uint256"}],"name":"isActiveMarket","outputs":[{"internalType":"bool","name":"","type":"bool"}],"stateMutability":"view","type":"function"},{"inputs":[{"internalType":"uint256","name":"marketId","type":"uint256"}],"name":"isMarketActive","outputs":[{"internalType":"bool","name":"","type":"bool"}],"stateMutability":"view","type":"function"},{"inputs":[{"internalType":"uint256","name":"","type":"uint256"},{"internalType":"uint256","name":"","type":"uint256"}],"name":"marketBettors","outputs":[{"internalType":"address","name":"","type":"address"}],"stateMutability":"view","type":"function"},{"inputs":[],"name":"marketCreationFee","outputs":[{"internalType":"uint256","name":"","type":"uint256"}],"stateMutability":"view","type":"function"},{"inputs":[{"internalType":"uint256","name":"","type":"uint256"},{"internalType":"uint256","name":"","type":"uint256"}],"name":"marketSupporters","outputs":[{"internalType":"address","name":"","type":"address"}],"stateMutability":"view","type":"function"},{"inputs":[{"internalType":"uint256","name":"","type":"uint256"}],"name":"markets","outputs":[{"internalType":"address","name":"creator","type":"address"},{"internalType":"string","name":"ipfsHash","type":"string"},{"internalType":"bool","name":"isMultiOption","type":"bool"},{"internalType":"uint256","name":"maxOptions","type":"uint256"},{"internalType":"address","name":"paymentToken","type":"address"},{"internalType":"uint256","name":"minStake","type":"uint256"},{"internalType":"uint256","name":"creatorDeposit","type":"uint256"},{"internalType":"uint256","name":"creatorOutcome","type":"uint256"},{"internalType":"uint256","name":"startTime","type":"uint256"},{"internalType":"uint256","name":"endTime","type":"uint256"},{"internalType":"uint256","name":"resolutionEndTime","type":"uint256"},{"internalType":"enum EventPool.MarketState","name":"state","type":"uint8"},{"internalType":"uint256","name":"winningOption","type":"uint256"},{"internalType":"bool","name":"isResolved","type":"bool"}],"stateMutability":"view","type":"function"},{"inputs":[],"name":"nextMarketId","outputs":[{"internalType":"uint256","name":"","type":"uint256"}],"stateMutability":"view","type":"function"},{"inputs":[],"name":"owner","outputs":[{"internalType":"address","name":"","type":"address"}],"stateMutability":"view","type":"function"},{"inputs":[{"internalType":"uint256","name":"marketId","type":"uint256"}],"name":"permanentlyRemoveMarket","outputs":[],"stateMutability":"nonpayable","type":"function"},{"inputs":[{"internalType":"uint256","name":"","type":"uint256"}],"name":"permanentlyRemovedMarkets","outputs":[{"internalType":"uint256","name":"","type":"uint256"}],"stateMutability":"view","type":"function"},{"inputs":[{"internalType":"uint256","name":"marketId","type":"uint256"},{"internalType":"uint256","name":"option","type":"uint256"}],"name":"placeBet","outputs":[],"stateMutability":"payable","type":"function"},{"inputs":[{"internalType":"uint256","name":"marketId","type":"uint256"},{"internalType":"uint256","name":"option","type":"uint256"},{"internalType":"uint256","name":"amount","type":"uint256"}],"name":"placeBetWithToken","outputs":[],"stateMutability":"nonpayable","type":"function"},{"inputs":[{"internalType":"address","name":"token","type":"address"}],"name":"removeSupportedToken","outputs":[],"stateMutability":"nonpayable","type":"function"},{"inputs":[],"name":"renounceOwnership","outputs":[],"stateMutability":"nonpayable","type":"function"},{"inputs":[{"internalType":"uint256","name":"marketId","type":"uint256"},{"internalType":"uint256","name":"_winningOption","type":"uint256"}],"name":"resolveMarket","outputs":[],"stateMutability":"nonpayable","type":"function"},{"inputs":[{"internalType":"address","name":"_analytics","type":"address"}],"name":"setAnalytics","outputs":[],"stateMutability":"nonpayable","type":"function"},{"inputs":[{"internalType":"uint256","name":"_marketCreationFee","type":"uint256"}],"name":"setMarketCreationFee","outputs":[],"stateMutability":"nonpayable","type":"function"},{"inputs":[{"internalType":"address","name":"_verification","type":"address"}],"name":"setVerification","outputs":[],"stateMutability":"nonpayable","type":"function"},{"inputs":[{"internalType":"address","name":"wallet","type":"address"},{"internalType":"bool","name":"blacklisted","type":"bool"}],"name":"setWalletBlacklist","outputs":[],"stateMutability":"nonpayable","type":"function"},{"inputs":[{"internalType":"uint256","name":"marketId","type":"uint256"},{"internalType":"uint256","name":"amount","type":"uint256"}],"name":"supportMarket","outputs":[],"stateMutability":"nonpayable","type":"function"},{"inputs":[{"internalType":"uint256","name":"","type":"uint256"}],"name":"supportedTokenList","outputs":[{"internalType":"address","name":"","type":"address"}],"stateMutability":"view","type":"function"},{"inputs":[{"internalType":"address","name":"","type":"address"}],"name":"supportedTokens","outputs":[{"internalType":"bool","name":"","type":"bool"}],"stateMutability":"view","type":"function"},{"inputs":[{"internalType":"address","name":"","type":"address"}],"name":"tokenSymbols","outputs":[{"internalType":"string","name":"","type":"string"}],"stateMutability":"view","type":"function"},{"inputs":[{"internalType":"address","name":"newOwner","type":"address"}],"name":"transferOwnership","outputs":[],"stateMutability":"nonpayable","type":"function"},{"inputs":[],"name":"treasury","outputs":[{"internalType":"address payable","name":"","type":"address"}],"stateMutability":"view","type":"function"},{"inputs":[{"internalType":"uint256","name":"","type":"uint256"},{"internalType":"address","name":"","type":"address"}],"name":"userBetOptions","outputs":[{"internalType":"uint256","name":"","type":"uint256"}],"stateMutability":"view","type":"function"},{"inputs":[{"internalType":"uint256","name":"","type":"uint256"},{"internalType":"address","name":"","type":"address"}],"name":"userHasBet","outputs":[{"internalType":"bool","name":"","type":"bool"}],"stateMutability":"view","type":"function"},{"inputs":[{"internalType":"uint256","name":"","type":"uint256"},{"internalType":"address","name":"","type":"address"}],"name":"userHasSupported","outputs":[{"internalType":"bool","name":"","type":"bool"}],"stateMutability":"view","type":"function"},{"inputs":[{"internalType":"address","name":"","type":"address"},{"internalType":"uint256","name":"","type":"uint256"}],"name":"userMarketHistory","outputs":[{"internalType":"uint256","name":"","type":"uint256"}],"stateMutability":"view","type":"function"},{"inputs":[],"name":"verification","outputs":[{"internalType":"address","name":"","type":"address"}],"stateMutability":"view","type":"function"},{"inputs":[{"internalType":"uint256","name":"marketId","type":"uint256"}],"name":"withdrawSupport","outputs":[],"stateMutability":"nonpayable","type":"function"},{"stateMutability":"payable","type":"receive"}],"evm":{"bytecode":{"linkReferences":{},"object":"6080346200021c57601f620058e338819003918201601f1916830191906001600160401b0383118484101762000221578160a092859260409586528339810103126200021c57620000508262000237565b60208084015191936001600160a01b0393848416938490036200021c576200007a81830162000237565b958560806200008c6060860162000237565b94015191169586156200020457600080546001600160a01b03198082168a17835585519a9099929692849283167f8be0079c531659141344cd1fd0a4f28419497f9722a3daafe3b4186f6b6457e08980a360019889600e558a600b541617600b551688600c541617600c551686600d541617600d55600f558180526008835280822080548581811c91168015620001f9575b85821014620001e557601f8111620001b7575b506008635045505560e01b019055818052600783528120805460ff1916841790556009549268010000000000000000841015620001a3578301806009558310156200018f5760098152200190815416905561569690816200024d8239f35b634e487b7160e01b81526032600452602490fd5b634e487b7160e01b82526041600452602482fd5b81845285601f868620920160051c8201915b828110620001d957505062000131565b858155018690620001c9565b634e487b7160e01b84526022600452602484fd5b90607f16906200011e565b8251631e4fbdf760e01b815260006004820152602490fd5b600080fd5b634e487b7160e01b600052604160045260246000fd5b51906001600160a01b03821682036200021c5756fe6080604052600436101561001b575b361561001957600080fd5b005b6000803560e01c806307adc191146142195780630b501ab8146141ab5780630d64cdbd1461417c578063157bdcce146140a4578063256ba74114613ffb578063287f57b514613fb25780632b5ba3b914613f735780632b60c82214613f485780632ef1bdfa14613f2a57806333d6b46e14613eb75780633adfe6d014613e8c5780633e32a76c14613bc55780633ec791931461389e578063406ef2ef146138805780634986597f146138395780634afe62b5146135a85780634f44289d1461354e5780634ffe2a8b1461352557806351049969146133ac5780635351404414613382578063553b7cbb1461332a5780635b7baf6414612fc65780635da3247a14612fa85780636055733314612f9057806361d027b314612f6757806365ebce5514612ef1578063677bd9ff1461292857806368c4ac26146128e95780636d822220146128735780636ed2151a1461261e578063715018a6146125c4578063720138e81461230a57806374c350eb146122ca57806376319190146121395780637c16cd9e1461207557806380d5ac8a1461204c57806381b17d2914611ffa5780638704bec014611fae57806387fea11014611f2c578063881df9e114611f015780638da5cb5b14611eda578063971f8bb114611e9a57806398a1767114611e445780639f37022a14611e21578063a30a091414611df7578063a5e973c314611d75578063ad8e42ff14611d4b578063b1138b5014611b74578063b1283e7714611a78578063b85ed636146119ee578063c22c62c3146119bc578063c3436e0c1461186c578063c8a843b71461174d578063ce67be261461172f578063d3c7c2c7146115ba578063db62c6de14611509578063dc4ce349146114a1578063e053bcec14611456578063eb44fdd314611359578063efb2b6901461085e578063f00fe321146107a5578063f204072f1461046e578063f2fde38b146103e3578063f849f69e14610370578063fb0b2b361461031d5763fe53a6e8146102fd575061000e565b3461031a578060031936011261031a576020600e54604051908152f35b80fd5b503461031a57602036600319011261031a5761036c90610358906040906001600160a01b0361034a614497565b16815260086020522061482b565b6040519182916020835260208301906145f0565b0390f35b503461031a57602036600319011261031a576004358152601160205260ff604082205416806103a7575b6020906040519015158152f35b50600160205260ff600b604083200154169060058210156103cf57506004602091141561039a565b634e487b7160e01b81526021600452602490fd5b503461031a57602036600319011261031a576103fd614497565b6104056148e0565b6001600160a01b0390811690811561045557600054826001600160601b0360a01b821617600055167f8be0079c531659141344cd1fd0a4f28419497f9722a3daafe3b4186f6b6457e0600080a380f35b604051631e4fbdf760e01b815260048101849052602490fd5b503461031a5761047d36614709565b908083526020600181526040842060ff600b820154166005811015610791576104a69015614b68565b600981015442101561074057600490338652600a83526104cd60ff6040882054161561490c565b0180546001600160a01b039190821680156106d557851561067357906104fd8684938995600b5416903390614aab565b848352600384526040832033600052845260ff604060002054161561065a575b84835260038452604083203360005284526040600020600160ff198254161790558180600b541691541690803b156106285760405163c15d980760e01b8152600481018790523360248201526001600160a01b039290921660448301526064820187905283908290608490829084905af190811561064f57839161063b575b5050600d5416806105d8575b50507fc02bbaff19bde22745e7227aeb31741efd4bf98ebb8b48ac49dd40833fac6756906040519384523393a380f35b803b1561063757818091606460405180948193638f46a5a160e01b83528960048401523360248401528a60448401525af1801561062c57156105a85761061d9061471f565b6106285783386105a8565b8380fd5b6040513d84823e3d90fd5b5080fd5b6106449061471f565b61063757813861059c565b6040513d85823e3d90fd5b8483526006845261066e3360408520614cae565b61051d565b60405162461bcd60e51b815260048101859052603460248201527f4d61726b65744d616e616765723a20537570706f727420616d6f756e74206d75604482015273073742062652067726561746572207468616e20360641b6064820152608490fd5b60405162461bcd60e51b815260048101859052603760248201527f4d61726b65744d616e616765723a20537570706f7274206f6e6c79206176616960448201527f6c61626c6520666f7220746f6b656e206d61726b6574730000000000000000006064820152608490fd5b60405162461bcd60e51b815260048101839052602360248201527f4d61726b65744d616e616765723a20537570706f727420706572696f6420656e60448201526219195960ea1b6064820152608490fd5b634e487b7160e01b86526021600452602486fd5b503461031a57604036600319011261031a576107ff9060206107c5614481565b600b54604051633d1e7ba160e11b815260048035908201526001600160a01b03928316602482015294859290911690829081906044820190565b03915afa908115610852579061081b575b602090604051908152f35b506020813d821161084a575b816108346020938361476c565b810103126108455760209051610810565b600080fd5b3d9150610827565b604051903d90823e3d90fd5b5061010036600319011261031a5760043567ffffffffffffffff81116106375761088c9036906004016147aa565b906108956148d1565b6064356001600160a01b038116900361084557338252600a6020526108c160ff6040842054161561490c565b825115611315576002604435101580611308575b156112b857608435156112745760a435156112205760c435151580611212575b156111be57601860e4351061116857801561112e576064356001600160a01b0316156110cb576064356001600160a01b031682526007602052604082205460ff161561106a575b600f54341061101457610e108060e435029060e43582041460e4351517156110005761096890426149b9565b916202a30083018311610fec57600e5492610982846149c6565b600e556202a3006040519161099683614733565b3383528660208401528415156040840152604435606084015260018060a01b0360643516608084015260843560a084015260a43560c084015260c43560e08401524261010084015280610120840152016101408201528161016082015281610180820152816101a08201528382526001602052604082209060018060a01b038151166001600160601b0360a01b835416178255602081015180519067ffffffffffffffff8211610fd8578190610a4f60018601546147f1565b601f8111610f9a575b50602090601f8311600114610f2b578692610f20575b50508160011b916000199060031b1c19161760018301555b610aa560408201511515600284019060ff801983541691151516179055565b606081015160038301556004820160018060a01b036080830151166001600160601b0360a01b82541617905560a0810151600583015560c0810151600683015560e0810151600783015561010081015160088301556101208101516009830155610140810151600a830155600b82016101608201516005811015610f0c57610b5d9392600d926101a09260ff80198354169116179055610180810151600c8501550151151591019060ff801983541691151516179055565b601054600160401b811015610ef65783610b80826001610b99940160105561452f565b90919082549060031b91821b91600019901b1916179055565b828152601160205260408120805460ff191660011790556064356001600160a01b0316610e5357600f54610bcf60a435826149b9565b3410610e0f5781808080610bf79460018060a01b038254165af1610bf1614a1b565b50614a4b565b828152600260205260408120336000526020526040600020600160ff198254161790558281526004602052604081203360005260205260c4356040600020553381526012602052610c4b83604083206149f8565b600b546001600160a01b0316803b1561063757604051633805180760e21b815260048101859052336024820152606480356001600160a01b0316604483015260a480359183019190915260c4356084830152909183918391829084905af1801561062c57908291610dfb575b5050600d546001600160a01b031680610d3e575b5050817fe47f69e204f188e4f9df6adc50c9cf0bd76c1cd85f34a8a3e8284064afb4fb82602094610d076040519160a0835260a08301906145f0565b9315158187015260443560408201526064356001600160a01b031660608201526084356080820152339381900390a3604051908152f35b803b156106375760405163782a780560e11b8152600481018590523360248201529082908290604490829084905af1801561062c57908291610de7575b5050600d546001600160a01b0316803b1561063757604051635374b47b60e01b81526004810185905233602482015260c435604482015260a43560648201529082908290608490829084905af1801561062c5715610ccb57610ddd829161471f565b61031a5780610ccb565b610df09061471f565b61031a578038610d7b565b610e049061471f565b61031a578038610cb7565b606460405162461bcd60e51b815260206004820152602060248201527f4d61726b65744d616e616765723a20496e73756666696369656e7420504550556044820152fd5b600f54803410610e975781808080610e799460018060a01b038254165af1610bf1614a1b565b610e9260a43530336064356001600160a01b0316614aab565b610bf7565b60405162461bcd60e51b815260206004820152603160248201527f4d61726b65744d616e616765723a20496e73756666696369656e74205045505560448201527020666f72206372656174696f6e2066656560781b6064820152608490fd5b634e487b7160e01b600052604160045260246000fd5b634e487b7160e01b85526021600452602485fd5b015190503880610a6e565b9250600185018652602086209086935b601f1984168510610f7f576001945083601f19811610610f66575b505050811b016001830155610a86565b015160001960f88460031b161c19169055388080610f56565b81810151835560209485019460019093019290910190610f3b565b610fc89060018701885260208820601f850160051c81019160208610610fce575b601f0160051c01906149e1565b38610a58565b9091508190610fbb565b634e487b7160e01b85526041600452602485fd5b634e487b7160e01b81526011600452602490fd5b634e487b7160e01b83526011600452602483fd5b60405162461bcd60e51b815260206004820152602860248201527f4d61726b65744d616e616765723a20496e73756666696369656e74206372656160448201526774696f6e2066656560c01b6064820152608490fd5b60405162461bcd60e51b815260206004820152603360248201527f4d61726b65744d616e616765723a20546f6b656e206e6f7420737570706f727460448201527232b2103337b91036bab63a3496b7b83a34b7b760691b6064820152608490fd5b60405162461bcd60e51b815260206004820152603560248201527f4d61726b65744d616e616765723a204d756c74692d6f7074696f6e206d61726b60448201527432ba39903932b8bab4b93290281928103a37b5b2b760591b6064820152608490fd5b6064356001600160a01b03161561093c576064356001600160a01b03168252600760205260408220546111639060ff16614962565b61093c565b60405162461bcd60e51b815260206004820152602860248201527f4d61726b65744d616e616765723a204d696e696d756d20323420686f757273206044820152671c995c5d5a5c995960c21b6064820152608490fd5b60405162461bcd60e51b815260206004820152602660248201527f4d61726b65744d616e616765723a20496e76616c69642063726561746f72206f6044820152657574636f6d6560d01b6064820152608490fd5b5060443560c43511156108f5565b60405162461bcd60e51b815260206004820152602660248201527f4d61726b65744d616e616765723a20496e76616c69642063726561746f722064604482015265195c1bdcda5d60d21b6064820152608490fd5b606460405162461bcd60e51b815260206004820152602060248201527f4d61726b65744d616e616765723a20496e76616c6964206d696e207374616b656044820152fd5b60405162461bcd60e51b815260206004820152602260248201527f4d61726b65744d616e616765723a20496e76616c6964206d6178206f7074696f6044820152616e7360f01b6064820152608490fd5b50600a60443511156108d5565b606460405162461bcd60e51b815260206004820152602060248201527f4d61726b65744d616e616765723a20496e76616c6964204950465320686173686044820152fd5b503461031a57602036600319011261031a57604061036c916113796155c5565b50600435815260016020522060ff600d6040519261139684614733565b80546001600160a01b0390811685526113b16001830161482b565b60208601528360028301541615156040860152600382015460608601526004820154166080850152600581015460a0850152600681015460c0850152600781015460e085015260088101546101008501526009810154610120850152600a81015461014085015261142c83600b8301541661016086016149d5565b600c81015461018085015201541615156101a0820152604051918291602083526020830190614653565b503461031a5761146536614709565b9190815260056020526040812090815483101561031a576020611488848461459d565b905460405160039290921b1c6001600160a01b03168152f35b503461031a57606036600319011261031a57604435906001600160a01b03808316830361084557600b5460405163dc4ce34960e01b8152600480359082015260248035908201526001600160a01b0390941660448501526020918491168180606481016107ff565b503461031a57604036600319011261031a57611523614497565b61152b6148d1565b906115346148e0565b6001600160a01b031690811561156757611564918352600a602052604083209060ff801983541691151516179055565b80f35b60405162461bcd60e51b815260206004820152602560248201527f4d61726b65744d616e616765723a20496e76616c69642077616c6c6574206164604482015264647265737360d81b6064820152608490fd5b503461031a578060031936011261031a576009546115d78161543c565b906115e5604051928361476c565b808252601f1992836115f68361543c565b019360209436868601376116098361543c565b92611617604051948561476c565b808452816116248261543c565b01835b818110611720575050825b8181106116ab57505061165060405194604086526040860190614444565b94848603818601528351918287528187019082808560051b8a0101960194975b84891061167d5787870388f35b9091929394958480611699838686600196030188528a516145f0565b98019401980197919094939294611670565b806116bc61171792989495986144e2565b90546001600160a01b039160039190821b1c82166116da848b615454565b526116e4836144e2565b9054911b1c168852600884526116fc6040892061482b565b6117068288615454565b526117118187615454565b506149c6565b95929195611632565b60608682018901528701611627565b503461031a578060031936011261031a576020600954604051908152f35b503461031a578060031936011261031a5760135461176a8161562e565b8291835b8181106117bb5750506117808261562e565b925b828110611797576040518061036c86826145b5565b806117a56117b69284615454565b516117b08287615454565b526149c6565b611782565b6117c481614566565b90549060031b1c80865260206001815260ff600b604089200154166005811015611858576004149081611821575b50611807575b50611802906149c6565b61176e565b8461181a916117b0611802949787615454565b93906117f8565b6014915082885252604086205462278d00810180911161184457421015386117f2565b634e487b7160e01b87526011600452602487fd5b634e487b7160e01b88526021600452602488fd5b503461031a57602036600319011261031a5760043580825260016020526040822080546001600160a01b031633036119685760ff600b82015416600581101561195457906118bc60099215614b68565b015461a8bf1981019081116110005742101561190557604051611564916118e282614750565b601182527010dc99585d1bdc8818d85b98d95b1b1959607a1b6020830152615126565b60405162461bcd60e51b815260206004820152602160248201527f4d61726b65744d616e616765723a20546f6f206c61746520746f2063616e63656044820152601b60fa1b6064820152608490fd5b634e487b7160e01b84526021600452602484fd5b60405162461bcd60e51b815260206004820152602660248201527f4d61726b65744d616e616765723a204f6e6c792063726561746f722063616e2060448201526518d85b98d95b60d21b6064820152608490fd5b503461031a576119cb36614709565b9190815260066020526040812090815483101561031a576020611488848461459d565b503461031a578060031936011261031a57600e5460001990818101818111611a6457611a199061562e565b9160015b828110611a32576040518061036c86826145b5565b818101818111611a505790806117b0611a4b9387615454565b611a1d565b634e487b7160e01b86526011600452602486fd5b634e487b7160e01b84526011600452602484fd5b503461031a57602036600319011261031a57600435815260016020819052604090912080546001600160a01b03929083169190611ab690820161482b565b92600282015460ff1691600381015491600482015416600582015460068301546007840154600885015490600986015492600a87015494600b88015460ff1696600c89015498600d015460ff1699604051809e819e82526101c08060208401528201611b21916145f0565b9c1515906040015260608d015260808c015260a08b015260c08a015260e08901526101008801526101208701526101408601526101608501611b6291614630565b61018084015215156101a08301520390f35b503461031a57602036600319011261031a576004359081815260016020526040812091600b830192835460ff8116946005861015610f0c57611bbc6001602495969714614d2b565b600d8301928354611bd060ff821615614d88565b600c5460408051633313865560e21b8152600481018a9052976001600160a01b039692899190829089165afa968715611d405789908a98611d0c575b5015611cbb57889587600c6002950155600160ff1980941617905516179055611c3484615181565b600d541680611c6e575b505060207f6dfc24f0f2fb42e49fb4fa3ffa8abb148cab908a1fb8335b3f128a08b2594af191604051908152a280f35b803b156106375781809160446040518094819362ff4a7360e81b83528960048401528860248401525af1801561062c5715611c3e57611cac9061471f565b611cb7578238611c3e565b8280fd5b60405162461bcd60e51b8152602060048201526024808201527f4d61726b65744d616e616765723a204e6f207265736f6c7574696f6e2072656160448201526318da195960e21b6064820152608490fd5b9050611d3191975060403d604011611d39575b611d29818361476c565b810190614e1a565b969038611c0c565b503d611d1f565b6040513d8b823e3d90fd5b503461031a57602036600319011261031a5760406020916004358152601483522054604051908152f35b503461031a578060031936011261031a57604051601080548083529083526020808301937f1b6847dc741a1b0cd08d278845f9d819d87b734759afb55fe2de5cb82a9ae67292915b828210611de05761036c85611dd48189038261476c565b604051918291826145b5565b835486529485019460019384019390910190611dbd565b503461031a57602036600319011261031a5760406020916004358152600683522054604051908152f35b503461031a57602036600319011261031a57611e3b6148e0565b600435600f5580f35b503461031a57604036600319011261031a57611e5e614497565b6001600160a01b031681526012602052604081208054602435929083101561031a576020611e8c848461459d565b90546040519160031b1c8152f35b503461031a57602036600319011261031a57611eb4614497565b611ebc6148e0565b60018060a01b03166001600160601b0360a01b600c541617600c5580f35b503461031a578060031936011261031a57546040516001600160a01b039091168152602090f35b503461031a57602036600319011261031a576004359060135482101561031a576020611e8c83614566565b503461031a57602080600319360112610637576004358252600681526040822091604051809384918482549182815201918452848420935b85828210611f8f57505050611f7b9250038361476c565b61036c604051928284938452830190614444565b85546001600160a01b0316845260019586019588955093019201611f64565b503461031a57604036600319011261031a576040611fca614481565b9160043581526002602052209060018060a01b0316600052602052602060ff604060002054166040519015158152f35b503461031a57602036600319011261031a576004356015548110156106375760209060156000527f55f448fdea98c4d29eb340757ef0a66cd03dbb9538908a6a81d96026b71ec4750154604051908152f35b503461031a578060031936011261031a57600d546040516001600160a01b039091168152602090f35b503461031a57602036600319011261031a576004358082526001602052604082209060ff600b8301541660058110156119545760016120b49114614d2b565b600a82015442106120e1576120d360ff600d6115649401541615614d88565b6120db614dd4565b90615126565b60405162461bcd60e51b815260206004820152602a60248201527f4d61726b65744d616e616765723a205265736f6c7574696f6e20706572696f64604482015269081b9bdd08195b99195960b21b6064820152608490fd5b503461031a57602036600319011261031a57612153614497565b61215b6148e0565b6001600160a01b0390811690811561227357818352600760205261218560ff604085205416614962565b81835260076020526040832060ff19815416905560086020526121aa604084206153f3565b825b60098054908183101561226b578391856121c5856144e2565b949054600395861b1c16146121e5575050506121e0906149c6565b6121ac565b919450929160001991828101908111611844579061221684612209612235946144e2565b905490891b1c16916144e2565b90919082549060031b9160018060a01b03809116831b921b1916179055565b82548015612257570192612248846144e2565b81939154921b1b191690555580f35b634e487b7160e01b86526031600452602486fd5b505050505080f35b60405162461bcd60e51b815260206004820152602960248201527f4d61726b65744d616e616765723a2043616e6e6f742072656d6f7665206e617460448201526834bb32903a37b5b2b760b91b6064820152608490fd5b503461031a57602036600319011261031a576122e4614497565b6122ec6148e0565b60018060a01b03166001600160601b0360a01b600d541617600d5580f35b503461031a57604036600319011261031a57612324614497565b602467ffffffffffffffff81358181116125c0576123469036906004016147aa565b61234e6148e0565b6001600160a01b03841691821561256f5781511561251f578286526020926007845260ff6040882054166124cc5786526007835260408620926001938460ff1982541617905560088152604087209280519283116124b9579082916123b385546147f1565b601f811161248b575b5081601f84116001146124285750889261241d575b5050600019600383901b1c191690831b1790555b60095491600160401b831015612409575081612216916115649493016009556144e2565b634e487b7160e01b60009081526041600452fd5b0151905038806123d1565b9190869450601f198416868b52838b20938b905b8282106124725750508411612459575b505050811b0190556123e5565b015160001960f88460031b161c1916905538808061244c565b848401518655899790950194938401939081019061243c565b6124b390868b52838b20601f860160051c810191858710610fce57601f0160051c01906149e1565b386123bc565b634e487b7160e01b885260416004528588fd5b60405162461bcd60e51b8152600481018590526026818701527f4d61726b65744d616e616765723a20546f6b656e20616c7265616479207375706044820152651c1bdc9d195960d21b6064820152608490fd5b60405162461bcd60e51b8152602060048201526023818601527f4d61726b65744d616e616765723a20496e76616c696420746f6b656e2073796d604482015262189bdb60ea1b6064820152608490fd5b60405162461bcd60e51b8152602060048201528085018590527f4d61726b65744d616e616765723a20496e76616c696420746f6b656e206164646044820152637265737360e01b6064820152608490fd5b8480fd5b503461031a578060031936011261031a576125dd6148e0565b600080546001600160a01b0319811682556001600160a01b03167f8be0079c531659141344cd1fd0a4f28419497f9722a3daafe3b4186f6b6457e08280a380f35b503461031a57606036600319011261031a57600435602435906044358184526020600181526040852060ff600b82015416600581101561285f576126629015614b68565b61267160098201544210614bb3565b84151580612851575b61268390614c0b565b60048101805490916001600160a01b039182169081156127f15785899493926126b560056126c2940154831015614c57565b83600b5416903390614aab565b858352600284526040832033600052845260ff60406000205416156127c4575b85835260028452604083203360005284526040600020600160ff1982541617905585835260048452604083203360005284528660406000205580600b541691541690803b15611cb757604051633805180760e21b8152600481018790523360248201526001600160a01b0392909216604483015260648201859052608482018790528290829060a490829084905af1801561062c576127b0575b50506040519384528301527f1b8a9031cb9351278d70a994f81536e9e08c91162e64f92b2fe4766fb7a891b460403393a380f35b6127b99061471f565b6125c057843861277c565b858352600584526127d83360408520614cae565b338352601284526127ec86604085206149f8565b6126e2565b60405162461bcd60e51b815260048101869052603260248201527f4d61726b65744d616e616765723a2054686973206d61726b6574207573657320604482015271141154154b081d5cd9481c1b1858d950995d60721b6064820152608490fd5b50600381015485111561267a565b634e487b7160e01b87526021600452602487fd5b503461031a578060031936011261031a57604051601580548083529083526020808301937f55f448fdea98c4d29eb340757ef0a66cd03dbb9538908a6a81d96026b71ec47592915b8282106128d25761036c85611dd48189038261476c565b8354865294850194600193840193909101906128bb565b503461031a57602036600319011261031a5760209060ff906040906001600160a01b03612914614497565b168152600784522054166040519015158152f35b503461031a576020806003193601126106375760043580835260018252604083209160ff600b840154166005811015610f0c57600261296791146150cf565b600c8301548015612eae57828552600282526040852033600052825260ff6040600020541615612e695782855260048252604085203360005282528060406000205403612e2657600b546040516307c7a72d60e01b8152600481018590523360248201526001600160a01b03918216908481604481855afa908115612e1b578891612de2575b50612d9d5760048681015460405163553b7cbb60e01b815291820187905233602483015283166001600160a01b0381166044830152928582606481865afa908115611d405787928a92612d6b575b5060405163dc4ce34960e01b8082526004820194909452602481018790526001600160a01b0386166044820152958787606481885afa968715612d60578b97612d31575b5060038a01548b949091600186898c8e5b87851115612c8d5750505050505050508215916101f49284848102048414811715612c7957612328808602958604141715612c655761271080940490818102918183041481151715612c4f578715612c39578b97612aef9204906149b9565b9854163314612b90575b5050803b15611cb757604051632f0041ed60e11b8152600481018690523360248201526001600160a01b039290921660448301526064820186905282908290608490829084905af1801561062c57612b7c575b50507f5380cf6fe903b40c6d5a9e0dfbca2f3a423f0a21520b4d5947ed5169bdba946d906040519384523393a380f35b612b859061471f565b610628578338612b4c565b604051633d1e7ba160e11b8152600481018890526001600160a01b03851660248201529297939450909185816044818b5afa908115611d40578991612c0c575b50818102918183041490151715612bf85791612bf09188949304906149b9565b943880612af9565b634e487b7160e01b88526011600452602488fd5b90508581813d8311612c32575b612c23818361476c565b81010312610845575138612bd0565b503d612c19565b634e487b7160e01b600052601260045260246000fd5b634e487b7160e01b600052601160045260246000fd5b634e487b7160e01b8b52601160045260248bfd5b634e487b7160e01b8c52601160045260248cfd5b858503612cab575b50505050612ca2906149c6565b8d898c8e612a90565b6040518781526004810191909152602481018590526001600160a01b03929092166044830152929892816064818d5afa9182156108525791612d02575b50612cf690612ca2926149b9565b9690508d898c8e612c95565b90508b81813d8311612d2a575b612d19818361476c565b810103126108455751612ca2612ce8565b503d612d0f565b9096508781813d8311612d59575b612d49818361476c565b8101031261084557519538612a7f565b503d612d3f565b6040513d8d823e3d90fd5b925090508582813d8111612d96575b612d84818361476c565b81010312610845578691519038612a3b565b503d612d7a565b60405162461bcd60e51b815260048101859052601e60248201527f4d61726b65744d616e616765723a20416c726561647920636c61696d656400006044820152606490fd5b90508481813d8311612e14575b612df9818361476c565b81010312612e1057612e0a90614e0d565b386129ed565b8780fd5b503d612def565b6040513d8a823e3d90fd5b6064826040519062461bcd60e51b825280600483015260248201527f4d61726b65744d616e616765723a204e6f7420612077696e6e696e67206265746044820152fd5b60405162461bcd60e51b815260048101839052601c60248201527f4d61726b65744d616e616765723a204e6f2062657420706c61636564000000006044820152606490fd5b6064826040519062461bcd60e51b825280600483015260248201527f4d61726b65744d616e616765723a204e6f2077696e6e696e67206f7074696f6e6044820152fd5b503461031a578060031936011261031a57604051601380548083529083526020808301937f66de8ffda797e3de9c05e8fc57b3bf0ec28a930d40b0d285d93c06501cf6a09092915b828210612f505761036c85611dd48189038261476c565b835486529485019460019384019390910190612f39565b503461031a578060031936011261031a57600b546040516001600160a01b039091168152602090f35b503461031a57611564612fa236614709565b90614e37565b503461031a578060031936011261031a576020601054604051908152f35b503461031a576020806003193601126106375760043580835260018252604083209160ff600b840154166005811015610f0c576003036132da57818452600281526040842033600052815260ff6040600020541680156132ba575b1561326c578392828552600282526040852033600052825260ff604060002054166131bf575b828552600382526040852033600052825260ff60406000205416613103575b83156130b357600401547ff3f402280ef0a7905e124aa621b65eaeb2725c343e8b36d398ed78c29daf285c91906130a7906001600160a01b03168533615338565b6040519384523393a380f35b60405162461bcd60e51b815260048101839052602260248201527f4d61726b65744d616e616765723a204e6f20726566756e6420617661696c61626044820152616c6560f01b6064820152608490fd5b600b5460048281015460405163256ba74160e01b81529182018690523360248301526001600160a01b039081166044830152929590929091849184916064918391165afa9081156131b4578691613183575b61315f92506149b9565b928285526003825260408520336000528252604060002060ff198154169055613066565b90508282813d83116131ad575b61319a818361476c565b810103126108455761315f915190613155565b503d613190565b6040513d88823e3d90fd5b600b5460048281015460405163553b7cbb60e01b81529182018690523360248301526001600160a01b03908116604483015292955091839183916064918391165afa908115613261578591613234575b50928285526002825260408520336000528252604060002060ff198154169055613047565b90508181813d831161325a575b61324b818361476c565b8101031261084557513861320f565b503d613241565b6040513d87823e3d90fd5b6084906040519062461bcd60e51b82526004820152602160248201527f4d61726b65744d616e616765723a204e6f207374616b6520746f20726566756e6044820152601960fa1b6064820152fd5b50818452600381526040842033600052815260ff60406000205416613021565b6084906040519062461bcd60e51b82526004820152602360248201527f4d61726b65744d616e616765723a204d61726b6574206e6f742063616e63656c6044820152621b195960ea1b6064820152fd5b503461031a576107ff90602061333f366144ad565b600b5460405163553b7cbb60e01b815260048101949094526001600160a01b03928316602485015290821660448401529194859290911690829081906064820190565b503461031a57602036600319011261031a5760406020916004358152600583522054604051908152f35b503461031a57604036600319011261031a5760043560243567ffffffffffffffff8111611cb7576133e19036906004016147aa565b6133e96148e0565b6133f6600e548310615468565b8183526020906001825261341760018060a01b0360408620541615156154b3565b8284526001825260ff600b604086200154166005811015610f0c576004146134e05782845260018252600b6040852001600460ff198254161790558284526014825242604085205560135491600160401b831015610ef6576134a484610b808560017f4c4561c5b0048424071c1115e9f1e325486e21c21333d968f21097b7b72d12ad9701601355614566565b8385526011815260ff6040862054166134d2575b6134cc6040519282849384528301906145f0565b0390a280f35b6134db8461550b565b6134b8565b60405162461bcd60e51b815260048101839052601e60248201527f4d61726b65744d616e616765723a20416c72656164792064656c6574656400006044820152606490fd5b503461031a578060031936011261031a57600c546040516001600160a01b039091168152602090f35b503461031a57604036600319011261031a576107ff90602061356e614481565b600b54604051634f44289d60e01b815260048035908201526001600160a01b03928316602482015294859290911690829081906044820190565b506135b236614709565b908083526020600181526040842060ff600b820154166005811015610791576135db9015614b68565b6135ea60098201544210614bb3565b8315158061382b575b6135fc90614c0b565b6004810180546001600160a01b03929083166137c0579061362560058894930154341015614c57565b848352600284526040832033600052845260ff6040600020541615613793575b84835260028452604083203360005284526040600020600160ff198254161790558483526004845260408320336000528452856040600020558180600b541691541690803b1561062857604051633805180760e21b8152600481018790523360248201526001600160a01b03929092166044830152346064830152608482018790528390829060a490829084905af190811561064f57839161377f575b5050600d541680613724575b505060405192835234908301527f1b8a9031cb9351278d70a994f81536e9e08c91162e64f92b2fe4766fb7a891b460403393a380f35b803b1561063757604051635374b47b60e01b815260048101859052336024820152604481018690523460648201529082908290608490829084905af1801561062c57156136ee576137749061471f565b6106285783386136ee565b6137889061471f565b6106375781386136e2565b848352600584526137a73360408520614cae565b338352601284526137bb85604085206149f8565b613645565b60405162461bcd60e51b815260048101859052603d60248201527f4d61726b65744d616e616765723a2054686973206d61726b657420757365732060448201527f746f6b656e732c2075736520706c61636542657457697468546f6b656e0000006064820152608490fd5b5060038101548411156135f3565b503461031a57604036600319011261031a576040613855614481565b9160043581526004602052209060018060a01b03166000526020526020604060002054604051908152f35b503461031a578060031936011261031a576020600e54604051908152f35b503461031a57602080600319360112610637576139cf600435916138c06155c5565b508284526001908181526040852093604051956138dc87614733565b85546001600160a01b0390811688526138f685880161482b565b8489015260ff6002880154161515604089015260038701546060890152806004880154169160808901928352600588015460a08a0152600688015460c08a0152600788015460e08a015260ff600d60088a0154996101009a8b8d015260098101546101208d0152600a8101546101408d015261397d8c61016085600b8501541691016149d5565b600c8101546101808d015201541615156101a08a0152600b548351604051633d1e7ba160e11b8152600481018790529084166001600160a01b0316602482015297908316908690899081906044820190565b0381845afa97881561062c578298613b94575b508351604051634f44289d60e01b8152600481018790529084166001600160a01b0316602482015291908690839081806044810103915afa918215613b87578192613b58575b5084815260058652604081205492600687526040822054946005885260408320968960405180998a918c825491828152019188528c8089209489915b838310613b3f5750505050613a7b9250038961476c565b83526006885260408320604051809a8a835492838152019286528a862091865b818110613b2a57505050506040613b0e9794613b1c9a97948c9a9794613aca61036c9f9e613ad896038d61476c565b51168152600888522061482b565b98613aee6040519d8d8f9e8f9081520190614653565b958c015260408b015260608a0152608089015287820360a0890152614444565b9085820360c0870152614444565b9083820360e08501526145f0565b835487168552938c0193928201928201613a9b565b86548a168552958101958e955090930192018e8e613a64565b9091508581813d8311613b80575b613b70818361476c565b8101031261084557519038613a28565b503d613b66565b50604051903d90823e3d90fd5b919097508582813d8311613bbe575b613bad818361476c565b8101031261084557905196856139e2565b503d613ba3565b503461031a576020806003193601126106375760043580835260018252604083209160038152604084203385528152613c0460ff604086205416614cd1565b60ff600b840154166005811015610f0c5780613e0d5750600983015461a8bf198101908111613df957421015613d8f575b600b5460049384015460405163256ba74160e01b81529485018490523360248601526001600160a01b039081166044860181905291169085908386606481865afa95861561062c578296613d60575b50613c90861515614cd1565b823b15610637576040516317be0b2f60e11b8152600481018690523360248201526001600160a01b0391909116604482015260648101869052918290608490829084905af1801561326157613d2d575b507ffb349e367fa58e764f8867e52d91c7e0b9e6904700091667054ce1fdb56c496d908285526003815260408520336000528152604060002060ff1981541690556040519384523393a380f35b93613d597ffb349e367fa58e764f8867e52d91c7e0b9e6904700091667054ce1fdb56c496d929561471f565b9390613ce0565b9095508381813d8311613d88575b613d78818361476c565b8101031261063757519438613c84565b503d613d6e565b6084906040519062461bcd60e51b82526004820152603c60248201527f4d61726b65744d616e616765723a2043616e6e6f74207769746864726177207760448201527f697468696e20313220686f757273206f66206d61726b657420656e64000000006064820152fd5b634e487b7160e01b85526011600452602485fd5b60048114908115613e81575b50613c35576084906040519062461bcd60e51b82526004820152603660248201527f4d61726b65744d616e616765723a2043616e6e6f7420776974686472617720696044820152756e2063757272656e74206d61726b657420737461746560501b6064820152fd5b600391501438613e19565b503461031a57602036600319011261031a576004359060105482101561031a576020611e8c8361452f565b503461031a57602080600319360112610637576001600160a01b03613eda614497565b1682526012815260408220916040518092808554928381520194835280832092905b828210613f135761036c85611dd48189038261476c565b835486529485019460019384019390910190613efc565b503461031a578060031936011261031a576020600f54604051908152f35b503461031a57602036600319011261031a576004359060095482101561031a576020611488836144e2565b503461031a57602036600319011261031a5760209060ff906040906001600160a01b03613f9e614497565b168152600a84522054166040519015158152f35b503461031a57604036600319011261031a5760ff6040602092613fd3614481565b6004358252600385528282206001600160a01b03909116825284522054604051911615158152f35b503461031a57614052602061400f366144ad565b600b5460405163256ba74160e01b815260048101949094526001600160a01b03928316602485015290821660448401529193849290911690829081906064820190565b03915afa90811561062c57829161406f575b602082604051908152f35b90506020813d821161409c575b816140896020938361476c565b8101031261063757602091505138614064565b3d915061407c565b503461031a57602036600319011261031a57600435808252600160205260408220600b81019081549060ff8216600581101561079157906140e760099215614b68565b0154804210614127577e0b6feae4bec70344a7d0e99f4c0237adaaeee2fbb258266be400bd8612a33292600160209360ff1916179055604051908152a280f35b60405162461bcd60e51b815260206004820152602760248201527f4d61726b65744d616e616765723a2042657474696e6720706572696f64206e6f6044820152661d08195b99195960ca1b6064820152608490fd5b503461031a57602036600319011261031a5760ff60406020926004358152601184522054166040519015158152f35b503461031a57602080600319360112610637576004358252600581526040822091604051809384918482549182815201918452848420935b858282106141fa57505050611f7b9250038361476c565b85546001600160a01b03168452600195860195889550930192016141e3565b503461031a5760208060031936011261063757600435906142386148e0565b614245600e548310615468565b81835260018082526040842054614266906001600160a01b031615156154b3565b82845280825260ff600b604086200154166005811015610f0c57600261428c91146150cf565b828452808252600a60408520015462278d008101809111613df95742106143f15782845280825283600d604082208281556142c88482016153f3565b82600282015582600382015582600482015582600582015582600682015582600782015582600882015582600982015582600a82015582600b82015582600c82015501558284526011825260ff6040852054166143e3575b60155490600160401b821015610fd8578101806015558110156143cf577f4c4561c5b0048424071c1115e9f1e325486e21c21333d968f21097b7b72d12ad9183608092601587527f55f448fdea98c4d29eb340757ef0a66cd03dbb9538908a6a81d96026b71ec47501556026604051918083528201527f5065726d616e656e746c792072656d6f76656420616674657220636c61696d206040820152651c195c9a5bd960d21b6060820152a280f35b634e487b7160e01b84526032600452602484fd5b6143ec8361550b565b614320565b60405162461bcd60e51b815260048101839052602560248201527f4d61726b65744d616e616765723a20436c61696d20706572696f64206e6f7420604482015264195b99195960da1b6064820152608490fd5b90815180825260208080930193019160005b828110614464575050505090565b83516001600160a01b031685529381019392810192600101614456565b602435906001600160a01b038216820361084557565b600435906001600160a01b038216820361084557565b606090600319011261084557600435906001600160a01b03906024358281168103610845579160443590811681036108455790565b6009548110156145195760096000527f6e1540171b6c0c960b71a7020d9f60077f6af931a8bbf590da0223dacf75c7af0190600090565b634e487b7160e01b600052603260045260246000fd5b6010548110156145195760106000527f1b6847dc741a1b0cd08d278845f9d819d87b734759afb55fe2de5cb82a9ae6720190600090565b6013548110156145195760136000527f66de8ffda797e3de9c05e8fc57b3bf0ec28a930d40b0d285d93c06501cf6a0900190600090565b80548210156145195760005260206000200190600090565b6020908160408183019282815285518094520193019160005b8281106145dc575050505090565b8351855293810193928101926001016145ce565b919082519283825260005b84811061461c575050826000602080949584010152601f8019910116010190565b6020818301810151848301820152016145fb565b90600582101561463d5752565b634e487b7160e01b600052602160045260246000fd5b9060018060a01b039182815116825261467b60208201516101c08060208601528401906145f0565b9260408201511515604084015260608201516060840152608082015116608083015260a081015160a083015260c081015160c083015260e081015160e08301526101008082015190830152610120808201519083015261014080820151908301526146ef6101608083015190840190614630565b61018080820151908301526101a080910151151591015290565b6040906003190112610845576004359060243590565b67ffffffffffffffff8111610ef657604052565b6101c0810190811067ffffffffffffffff821117610ef657604052565b6040810190811067ffffffffffffffff821117610ef657604052565b90601f8019910116810190811067ffffffffffffffff821117610ef657604052565b67ffffffffffffffff8111610ef657601f01601f191660200190565b81601f82011215610845578035906147c18261478e565b926147cf604051948561476c565b8284526020838301011161084557816000926020809301838601378301015290565b90600182811c92168015614821575b602083101461480b57565b634e487b7160e01b600052602260045260246000fd5b91607f1691614800565b906040519182600082549261483f846147f1565b9081845260019485811690816000146148ae575060011461486b575b50506148699250038361476c565b565b9093915060005260209081600020936000915b8183106148965750506148699350820101388061485b565b8554888401850152948501948794509183019161487e565b91505061486994506020925060ff191682840152151560051b820101388061485b565b60243590811515820361084557565b6000546001600160a01b031633036148f457565b60405163118cdaa760e01b8152336004820152602490fd5b1561491357565b60405162461bcd60e51b815260206004820152602160248201527f4d61726b65744d616e616765723a2057616c6c657420626c61636b6c697374656044820152601960fa1b6064820152608490fd5b1561496957565b60405162461bcd60e51b815260206004820152602260248201527f4d61726b65744d616e616765723a20546f6b656e206e6f7420737570706f7274604482015261195960f21b6064820152608490fd5b91908201809211612c4f57565b6000198114612c4f5760010190565b600582101561463d5752565b8181106149ec575050565b600081556001016149e1565b90815491600160401b831015610ef65782610b809160016148699501815561459d565b3d15614a46573d90614a2c8261478e565b91614a3a604051938461476c565b82523d6000602084013e565b606090565b15614a5257565b60405162461bcd60e51b815260206004820152602b60248201527f4d61726b65744d616e616765723a20466565207472616e7366657220746f206f60448201526a1ddb995c8819985a5b195960aa1b6064820152608490fd5b6040516323b872dd60e01b60208201526001600160a01b03928316602482015292909116604483015260648083019390935291815260a081019181831067ffffffffffffffff841117610ef657614869926040525b906000602091828151910182855af115614b5c576000513d614b5357506001600160a01b0381163b155b614b315750565b604051635274afe760e01b81526001600160a01b039091166004820152602490fd5b60011415614b2a565b6040513d6000823e3d90fd5b15614b6f57565b606460405162461bcd60e51b815260206004820152602060248201527f4d61726b65744d616e616765723a204d61726b6574206e6f74206163746976656044820152fd5b15614bba57565b60405162461bcd60e51b815260206004820152602360248201527f4d61726b65744d616e616765723a2042657474696e6720706572696f6420656e60448201526219195960ea1b6064820152608490fd5b15614c1257565b60405162461bcd60e51b815260206004820152601d60248201527f4d61726b65744d616e616765723a20496e76616c6964206f7074696f6e0000006044820152606490fd5b15614c5e57565b60405162461bcd60e51b815260206004820152602260248201527f4d61726b65744d616e616765723a2042656c6f77206d696e696d756d207374616044820152616b6560f01b6064820152608490fd5b90815491600160401b831015610ef657826122169160016148699501815561459d565b15614cd857565b60405162461bcd60e51b815260206004820152602560248201527f4d61726b65744d616e616765723a204e6f20737570706f727420746f20776974604482015264686472617760d81b6064820152608490fd5b15614d3257565b60405162461bcd60e51b815260206004820152602860248201527f4d61726b65744d616e616765723a204d61726b6574206e6f7420696e20656e64604482015267656420737461746560c01b6064820152608490fd5b15614d8f57565b60405162461bcd60e51b815260206004820152601f60248201527f4d61726b65744d616e616765723a20416c7265616479207265736f6c766564006044820152606490fd5b60405190614de182614750565b601982527f5265736f6c7574696f6e20706572696f642065787069726564000000000000006020830152565b5190811515820361084557565b9190826040910312610845576020614e3183614e0d565b92015190565b9060008281526001602052604090818120600b810160ff8154166005811015611954576001614e669114614d2b565b841515806150c1575b1561506f57600d8201614e8660ff82541615614d88565b600a83015442101561505d57600c548551633313865560e21b8152600481018990526001600160a01b03949187908290602490829089165afa801561505357889087928891615030575b5082615026575b505015614fbc57600c01869055805460ff199081166001179091558154166002179055614f0385615181565b600d541680614f3b575b50507f6dfc24f0f2fb42e49fb4fa3ffa8abb148cab908a1fb8335b3f128a08b2594af19160209151908152a2565b803b1561063757818091604485518095819362ff4a7360e81b83528a60048401528960248401525af1908115614fb15750917f6dfc24f0f2fb42e49fb4fa3ffa8abb148cab908a1fb8335b3f128a08b2594af19391602093614fa2575b5091819350614f0d565b614fab9061471f565b38614f98565b8351903d90823e3d90fd5b855162461bcd60e51b815260206004820152603a60248201527f4d61726b65744d616e616765723a20496e73756666696369656e74207665726960448201527f6669657220766f74657320666f722074686973206f7074696f6e0000000000006064820152608490fd5b1490508738614ed7565b905061504a919250883d8a11611d3957611d29818361476c565b91909138614ed0565b87513d88823e3d90fd5b505050505050614869906120db614dd4565b835162461bcd60e51b815260206004820152602560248201527f4d61726b65744d616e616765723a20496e76616c69642077696e6e696e67206f604482015264383a34b7b760d91b6064820152608490fd5b506003820154851115614e6f565b156150d657565b60405162461bcd60e51b815260206004820152602260248201527f4d61726b65744d616e616765723a204d61726b6574206e6f74207265736f6c76604482015261195960f21b6064820152608490fd5b9061517c7f4c4561c5b0048424071c1115e9f1e325486e21c21333d968f21097b7b72d12ad91836000526001602052600b604060002001600360ff198254161790556040519182916020835260208301906145f0565b0390a2565b90600082815260209060018252604091828220948291600191600388015492600c890154905b848111156152825750505050506101f49081810291818304149015171561526e57612710900493846151db575b5050509050565b60018060a01b036151fa600482600b5416930192878385541691615338565b80600b5416915416813b15611cb75783516348fef59560e01b81526001600160a01b03919091166004820152602481019590955292939281908490604490829084905af1918215615264575050615255575b808083926151d4565b61525e9061471f565b3861524c565b51903d90823e3d90fd5b634e487b7160e01b82526011600452602482fd5b818103615298575b615293906149c6565b6151a7565b600b5460048b8101548a5163dc4ce34960e01b8152918201869052602482018490526001600160a01b0390811660448301529297929091869183916064918391165afa90811561532e5788916152ff575b506152f790615293926149b9565b95905061528a565b90508481813d8311615327575b615316818361476c565b81010312612e1057516152936152e9565b503d61530c565b89513d8a823e3d90fd5b90916001600160a01b0316806153b25750600080809381935af161535a614a1b565b501561536257565b60405162461bcd60e51b815260206004820152602260248201527f4d61726b65744d616e616765723a20455448207472616e73666572206661696c604482015261195960f21b6064820152608490fd5b60405163a9059cbb60e01b60208201526001600160a01b03929092166024830152604480830193909352918152614869916153ee60648361476c565b614b00565b6153fd81546147f1565b9081615407575050565b81601f60009311600114615419575055565b908083918252615438601f60208420940160051c8401600185016149e1565b5555565b67ffffffffffffffff8111610ef65760051b60200190565b80518210156145195760209160051b010190565b1561546f57565b606460405162461bcd60e51b815260206004820152602060248201527f4d61726b65744d616e616765723a20496e76616c6964206d61726b65742049446044820152fd5b156154ba57565b60405162461bcd60e51b8152602060048201526024808201527f4d61726b65744d616e616765723a204d61726b657420646f6573206e6f7420656044820152631e1a5cdd60e21b6064820152608490fd5b60005b601090815491828210156155bf5783926155278361452f565b949054600395861b1c1461554657505061554191506149c6565b61550e565b90916000199180830191908211612c4f57610b806155666155729361452f565b905490871b1c9161452f565b815480156155a9578101926155868461452f565b81939154921b1b19169055556000526011602052604060002060ff198154169055565b634e487b7160e01b600052603160045260246000fd5b50505050565b604051906155d282614733565b816101a0600091828152606060208201528260408201528260608201528260808201528260a08201528260c08201528260e082015282610100820152826101208201528261014082015282610160820152826101808201520152565b906156388261543c565b615645604051918261476c565b8281528092615656601f199161543c565b019060203691013756fea26469706673582212204c1af7b22de8bd334addefde4f0a09ff3f8b6d4ae483bca59b3e898c7696ff5764736f6c63430008140033","opcodes":"PUSH1 0x80 CALLVALUE PUSH3 0x21C JUMPI PUSH1 0x1F PUSH3 0x58E3 CODESIZE DUP2 SWAP1 SUB SWAP2 DUP3 ADD PUSH1 0x1F NOT AND DUP4 ADD SWAP2 SWAP1 PUSH1 0x1 PUSH1 0x1 PUSH1 0x40 SHL SUB DUP4 GT DUP5 DUP5 LT OR PUSH3 0x221 JUMPI DUP2 PUSH1 0xA0 SWAP3 DUP6 SWAP3 PUSH1 0x40 SWAP6 DUP7 MSTORE DUP4 CODECOPY DUP2 ADD SUB SLT PUSH3 0x21C JUMPI PUSH3 0x50 DUP3 PUSH3 0x237 JUMP JUMPDEST PUSH1 0x20 DUP1 DUP5 ADD MLOAD SWAP2 SWAP4 PUSH1 0x1 PUSH1 0x1 PUSH1 0xA0 SHL SUB SWAP4 DUP5 DUP5 AND SWAP4 DUP5 SWAP1 SUB PUSH3 0x21C JUMPI PUSH3 0x7A DUP2 DUP4 ADD PUSH3 0x237 JUMP JUMPDEST SWAP6 DUP6 PUSH1 0x80 PUSH3 0x8C PUSH1 0x60 DUP7 ADD PUSH3 0x237 JUMP JUMPDEST SWAP5 ADD MLOAD SWAP2 AND SWAP6 DUP7 ISZERO PUSH3 0x204 JUMPI PUSH1 0x0 DUP1 SLOAD PUSH1 0x1 PUSH1 0x1 PUSH1 0xA0 SHL SUB NOT DUP1 DUP3 AND DUP11 OR DUP4 SSTORE DUP6 MLOAD SWAP11 SWAP1 SWAP10 SWAP3 SWAP7 SWAP3 DUP5 SWAP3 DUP4 AND PUSH32 0x8BE0079C531659141344CD1FD0A4F28419497F9722A3DAAFE3B4186F6B6457E0 DUP10 DUP1 LOG3 PUSH1 0x1 SWAP9 DUP10 PUSH1 0xE SSTORE DUP11 PUSH1 0xB SLOAD AND OR PUSH1 0xB SSTORE AND DUP9 PUSH1 0xC SLOAD AND OR PUSH1 0xC SSTORE AND DUP7 PUSH1 0xD SLOAD AND OR PUSH1 0xD SSTORE PUSH1 0xF SSTORE DUP2 DUP1 MSTORE PUSH1 0x8 DUP4 MSTORE DUP1 DUP3 KECCAK256 DUP1 SLOAD DUP6 DUP2 DUP2 SHR SWAP2 AND DUP1 ISZERO PUSH3 0x1F9 JUMPI JUMPDEST DUP6 DUP3 LT EQ PUSH3 0x1E5 JUMPI PUSH1 0x1F DUP2 GT PUSH3 0x1B7 JUMPI JUMPDEST POP PUSH1 0x8 PUSH4 0x50455055 PUSH1 0xE0 SHL ADD SWAP1 SSTORE DUP2 DUP1 MSTORE PUSH1 0x7 DUP4 MSTORE DUP2 KECCAK256 DUP1 SLOAD PUSH1 0xFF NOT AND DUP5 OR SWAP1 SSTORE PUSH1 0x9 SLOAD SWAP3 PUSH9 0x10000000000000000 DUP5 LT ISZERO PUSH3 0x1A3 JUMPI DUP4 ADD DUP1 PUSH1 0x9 SSTORE DUP4 LT ISZERO PUSH3 0x18F JUMPI PUSH1 0x9 DUP2 MSTORE KECCAK256 ADD SWAP1 DUP2 SLOAD AND SWAP1 SSTORE PUSH2 0x5696 SWAP1 DUP2 PUSH3 0x24D DUP3 CODECOPY RETURN JUMPDEST PUSH4 0x4E487B71 PUSH1 0xE0 SHL DUP2 MSTORE PUSH1 0x32 PUSH1 0x4 MSTORE PUSH1 0x24 SWAP1 REVERT JUMPDEST PUSH4 0x4E487B71 PUSH1 0xE0 SHL DUP3 MSTORE PUSH1 0x41 PUSH1 0x4 MSTORE PUSH1 0x24 DUP3 REVERT JUMPDEST DUP2 DUP5 MSTORE DUP6 PUSH1 0x1F DUP7 DUP7 KECCAK256 SWAP3 ADD PUSH1 0x5 SHR DUP3 ADD SWAP2 JUMPDEST DUP3 DUP2 LT PUSH3 0x1D9 JUMPI POP POP PUSH3 0x131 JUMP JUMPDEST DUP6 DUP2 SSTORE ADD DUP7 SWAP1 PUSH3 0x1C9 JUMP JUMPDEST PUSH4 0x4E487B71 PUSH1 0xE0 SHL DUP5 MSTORE PUSH1 0x22 PUSH1 0x4 MSTORE PUSH1 0x24 DUP5 REVERT JUMPDEST SWAP1 PUSH1 0x7F AND SWAP1 PUSH3 0x11E JUMP JUMPDEST DUP3 MLOAD PUSH4 0x1E4FBDF7 PUSH1 0xE0 SHL DUP2 MSTORE PUSH1 0x0 PUSH1 0x4 DUP3 ADD MSTORE PUSH1 0x24 SWAP1 REVERT JUMPDEST PUSH1 0x0 DUP1 REVERT JUMPDEST PUSH4 0x4E487B71 PUSH1 0xE0 SHL PUSH1 0x0 MSTORE PUSH1 0x41 PUSH1 0x4 MSTORE PUSH1 0x24 PUSH1 0x0 REVERT JUMPDEST MLOAD SWAP1 PUSH1 0x1 PUSH1 0x1 PUSH1 0xA0 SHL SUB DUP3 AND DUP3 SUB PUSH3 0x21C JUMPI JUMP INVALID PUSH1 0x80 PUSH1 0x40 MSTORE PUSH1 0x4 CALLDATASIZE LT ISZERO PUSH2 0x1B JUMPI JUMPDEST CALLDATASIZE ISZERO PUSH2 0x19 JUMPI PUSH1 0x0 DUP1 REVERT JUMPDEST STOP JUMPDEST PUSH1 0x0 DUP1 CALLDATALOAD PUSH1 0xE0 SHR DUP1 PUSH4 0x7ADC191 EQ PUSH2 0x4219 JUMPI DUP1 PUSH4 0xB501AB8 EQ PUSH2 0x41AB JUMPI DUP1 PUSH4 0xD64CDBD EQ PUSH2 0x417C JUMPI DUP1 PUSH4 0x157BDCCE EQ PUSH2 0x40A4 JUMPI DUP1 PUSH4 0x256BA741 EQ PUSH2 0x3FFB JUMPI DUP1 PUSH4 0x287F57B5 EQ PUSH2 0x3FB2 JUMPI DUP1 PUSH4 0x2B5BA3B9 EQ PUSH2 0x3F73 JUMPI DUP1 PUSH4 0x2B60C822 EQ PUSH2 0x3F48 JUMPI DUP1 PUSH4 0x2EF1BDFA EQ PUSH2 0x3F2A JUMPI DUP1 PUSH4 0x33D6B46E EQ PUSH2 0x3EB7 JUMPI DUP1 PUSH4 0x3ADFE6D0 EQ PUSH2 0x3E8C JUMPI DUP1 PUSH4 0x3E32A76C EQ PUSH2 0x3BC5 JUMPI DUP1 PUSH4 0x3EC79193 EQ PUSH2 0x389E JUMPI DUP1 PUSH4 0x406EF2EF EQ PUSH2 0x3880 JUMPI DUP1 PUSH4 0x4986597F EQ PUSH2 0x3839 JUMPI DUP1 PUSH4 0x4AFE62B5 EQ PUSH2 0x35A8 JUMPI DUP1 PUSH4 0x4F44289D EQ PUSH2 0x354E JUMPI DUP1 PUSH4 0x4FFE2A8B EQ PUSH2 0x3525 JUMPI DUP1 PUSH4 0x51049969 EQ PUSH2 0x33AC JUMPI DUP1 PUSH4 0x53514044 EQ PUSH2 0x3382 JUMPI DUP1 PUSH4 0x553B7CBB EQ PUSH2 0x332A JUMPI DUP1 PUSH4 0x5B7BAF64 EQ PUSH2 0x2FC6 JUMPI DUP1 PUSH4 0x5DA3247A EQ PUSH2 0x2FA8 JUMPI DUP1 PUSH4 0x60557333 EQ PUSH2 0x2F90 JUMPI DUP1 PUSH4 0x61D027B3 EQ PUSH2 0x2F67 JUMPI DUP1 PUSH4 0x65EBCE55 EQ PUSH2 0x2EF1 JUMPI DUP1 PUSH4 0x677BD9FF EQ PUSH2 0x2928 JUMPI DUP1 PUSH4 0x68C4AC26 EQ PUSH2 0x28E9 JUMPI DUP1 PUSH4 0x6D822220 EQ PUSH2 0x2873 JUMPI DUP1 PUSH4 0x6ED2151A EQ PUSH2 0x261E JUMPI DUP1 PUSH4 0x715018A6 EQ PUSH2 0x25C4 JUMPI DUP1 PUSH4 0x720138E8 EQ PUSH2 0x230A JUMPI DUP1 PUSH4 0x74C350EB EQ PUSH2 0x22CA JUMPI DUP1 PUSH4 0x76319190 EQ PUSH2 0x2139 JUMPI DUP1 PUSH4 0x7C16CD9E EQ PUSH2 0x2075 JUMPI DUP1 PUSH4 0x80D5AC8A EQ PUSH2 0x204C JUMPI DUP1 PUSH4 0x81B17D29 EQ PUSH2 0x1FFA JUMPI DUP1 PUSH4 0x8704BEC0 EQ PUSH2 0x1FAE JUMPI DUP1 PUSH4 0x87FEA110 EQ PUSH2 0x1F2C JUMPI DUP1 PUSH4 0x881DF9E1 EQ PUSH2 0x1F01 JUMPI DUP1 PUSH4 0x8DA5CB5B EQ PUSH2 0x1EDA JUMPI DUP1 PUSH4 0x971F8BB1 EQ PUSH2 0x1E9A JUMPI DUP1 PUSH4 0x98A17671 EQ PUSH2 0x1E44 JUMPI DUP1 PUSH4 0x9F37022A EQ PUSH2 0x1E21 JUMPI DUP1 PUSH4 0xA30A0914 EQ PUSH2 0x1DF7 JUMPI DUP1 PUSH4 0xA5E973C3 EQ PUSH2 0x1D75 JUMPI DUP1 PUSH4 0xAD8E42FF EQ PUSH2 0x1D4B JUMPI DUP1 PUSH4 0xB1138B50 EQ PUSH2 0x1B74 JUMPI DUP1 PUSH4 0xB1283E77 EQ PUSH2 0x1A78 JUMPI DUP1 PUSH4 0xB85ED636 EQ PUSH2 0x19EE JUMPI DUP1 PUSH4 0xC22C62C3 EQ PUSH2 0x19BC JUMPI DUP1 PUSH4 0xC3436E0C EQ PUSH2 0x186C JUMPI DUP1 PUSH4 0xC8A843B7 EQ PUSH2 0x174D JUMPI DUP1 PUSH4 0xCE67BE26 EQ PUSH2 0x172F JUMPI DUP1 PUSH4 0xD3C7C2C7 EQ PUSH2 0x15BA JUMPI DUP1 PUSH4 0xDB62C6DE EQ PUSH2 0x1509 JUMPI DUP1 PUSH4 0xDC4CE349 EQ PUSH2 0x14A1 JUMPI DUP1 PUSH4 0xE053BCEC EQ PUSH2 0x1456 JUMPI DUP1 PUSH4 0xEB44FDD3 EQ PUSH2 0x1359 JUMPI DUP1 PUSH4 0xEFB2B690 EQ PUSH2 0x85E JUMPI DUP1 PUSH4 0xF00FE321 EQ PUSH2 0x7A5 JUMPI DUP1 PUSH4 0xF204072F EQ PUSH2 0x46E JUMPI DUP1 PUSH4 0xF2FDE38B EQ PUSH2 0x3E3 JUMPI DUP1 PUSH4 0xF849F69E EQ PUSH2 0x370 JUMPI DUP1 PUSH4 0xFB0B2B36 EQ PUSH2 0x31D JUMPI PUSH4 0xFE53A6E8 EQ PUSH2 0x2FD JUMPI POP PUSH2 0xE JUMP JUMPDEST CALLVALUE PUSH2 0x31A JUMPI DUP1 PUSH1 0x3 NOT CALLDATASIZE ADD SLT PUSH2 0x31A JUMPI PUSH1 0x20 PUSH1 0xE SLOAD PUSH1 0x40 MLOAD SWAP1 DUP2 MSTORE RETURN JUMPDEST DUP1 REVERT JUMPDEST POP CALLVALUE PUSH2 0x31A JUMPI PUSH1 0x20 CALLDATASIZE PUSH1 0x3 NOT ADD SLT PUSH2 0x31A JUMPI PUSH2 0x36C SWAP1 PUSH2 0x358 SWAP1 PUSH1 0x40 SWAP1 PUSH1 0x1 PUSH1 0x1 PUSH1 0xA0 SHL SUB PUSH2 0x34A PUSH2 0x4497 JUMP JUMPDEST AND DUP2 MSTORE PUSH1 0x8 PUSH1 0x20 MSTORE KECCAK256 PUSH2 0x482B JUMP JUMPDEST PUSH1 0x40 MLOAD SWAP2 DUP3 SWAP2 PUSH1 0x20 DUP4 MSTORE PUSH1 0x20 DUP4 ADD SWAP1 PUSH2 0x45F0 JUMP JUMPDEST SUB SWAP1 RETURN JUMPDEST POP CALLVALUE PUSH2 0x31A JUMPI PUSH1 0x20 CALLDATASIZE PUSH1 0x3 NOT ADD SLT PUSH2 0x31A JUMPI PUSH1 0x4 CALLDATALOAD DUP2 MSTORE PUSH1 0x11 PUSH1 0x20 MSTORE PUSH1 0xFF PUSH1 0x40 DUP3 KECCAK256 SLOAD AND DUP1 PUSH2 0x3A7 JUMPI JUMPDEST PUSH1 0x20 SWAP1 PUSH1 0x40 MLOAD SWAP1 ISZERO ISZERO DUP2 MSTORE RETURN JUMPDEST POP PUSH1 0x1 PUSH1 0x20 MSTORE PUSH1 0xFF PUSH1 0xB PUSH1 0x40 DUP4 KECCAK256 ADD SLOAD AND SWAP1 PUSH1 0x5 DUP3 LT ISZERO PUSH2 0x3CF JUMPI POP PUSH1 0x4 PUSH1 0x20 SWAP2 EQ ISZERO PUSH2 0x39A JUMP JUMPDEST PUSH4 0x4E487B71 PUSH1 0xE0 SHL DUP2 MSTORE PUSH1 0x21 PUSH1 0x4 MSTORE PUSH1 0x24 SWAP1 REVERT JUMPDEST POP CALLVALUE PUSH2 0x31A JUMPI PUSH1 0x20 CALLDATASIZE PUSH1 0x3 NOT ADD SLT PUSH2 0x31A JUMPI PUSH2 0x3FD PUSH2 0x4497 JUMP JUMPDEST PUSH2 0x405 PUSH2 0x48E0 JUMP JUMPDEST PUSH1 0x1 PUSH1 0x1 PUSH1 0xA0 SHL SUB SWAP1 DUP2 AND SWAP1 DUP2 ISZERO PUSH2 0x455 JUMPI PUSH1 0x0 SLOAD DUP3 PUSH1 0x1 PUSH1 0x1 PUSH1 0x60 SHL SUB PUSH1 0xA0 SHL DUP3 AND OR PUSH1 0x0 SSTORE AND PUSH32 0x8BE0079C531659141344CD1FD0A4F28419497F9722A3DAAFE3B4186F6B6457E0 PUSH1 0x0 DUP1 LOG3 DUP1 RETURN JUMPDEST PUSH1 0x40 MLOAD PUSH4 0x1E4FBDF7 PUSH1 0xE0 SHL DUP2 MSTORE PUSH1 0x4 DUP2 ADD DUP5 SWAP1 MSTORE PUSH1 0x24 SWAP1 REVERT JUMPDEST POP CALLVALUE PUSH2 0x31A JUMPI PUSH2 0x47D CALLDATASIZE PUSH2 0x4709 JUMP JUMPDEST SWAP1 DUP1 DUP4 MSTORE PUSH1 0x20 PUSH1 0x1 DUP2 MSTORE PUSH1 0x40 DUP5 KECCAK256 PUSH1 0xFF PUSH1 0xB DUP3 ADD SLOAD AND PUSH1 0x5 DUP2 LT ISZERO PUSH2 0x791 JUMPI PUSH2 0x4A6 SWAP1 ISZERO PUSH2 0x4B68 JUMP JUMPDEST PUSH1 0x9 DUP2 ADD SLOAD TIMESTAMP LT ISZERO PUSH2 0x740 JUMPI PUSH1 0x4 SWAP1 CALLER DUP7 MSTORE PUSH1 0xA DUP4 MSTORE PUSH2 0x4CD PUSH1 0xFF PUSH1 0x40 DUP9 KECCAK256 SLOAD AND ISZERO PUSH2 0x490C JUMP JUMPDEST ADD DUP1 SLOAD PUSH1 0x1 PUSH1 0x1 PUSH1 0xA0 SHL SUB SWAP2 SWAP1 DUP3 AND DUP1 ISZERO PUSH2 0x6D5 JUMPI DUP6 ISZERO PUSH2 0x673 JUMPI SWAP1 PUSH2 0x4FD DUP7 DUP5 SWAP4 DUP10 SWAP6 PUSH1 0xB SLOAD AND SWAP1 CALLER SWAP1 PUSH2 0x4AAB JUMP JUMPDEST DUP5 DUP4 MSTORE PUSH1 0x3 DUP5 MSTORE PUSH1 0x40 DUP4 KECCAK256 CALLER PUSH1 0x0 MSTORE DUP5 MSTORE PUSH1 0xFF PUSH1 0x40 PUSH1 0x0 KECCAK256 SLOAD AND ISZERO PUSH2 0x65A JUMPI JUMPDEST DUP5 DUP4 MSTORE PUSH1 0x3 DUP5 MSTORE PUSH1 0x40 DUP4 KECCAK256 CALLER PUSH1 0x0 MSTORE DUP5 MSTORE PUSH1 0x40 PUSH1 0x0 KECCAK256 PUSH1 0x1 PUSH1 0xFF NOT DUP3 SLOAD AND OR SWAP1 SSTORE DUP2 DUP1 PUSH1 0xB SLOAD AND SWAP2 SLOAD AND SWAP1 DUP1 EXTCODESIZE ISZERO PUSH2 0x628 JUMPI PUSH1 0x40 MLOAD PUSH4 0xC15D9807 PUSH1 0xE0 SHL DUP2 MSTORE PUSH1 0x4 DUP2 ADD DUP8 SWAP1 MSTORE CALLER PUSH1 0x24 DUP3 ADD MSTORE PUSH1 0x1 PUSH1 0x1 PUSH1 0xA0 SHL SUB SWAP3 SWAP1 SWAP3 AND PUSH1 0x44 DUP4 ADD MSTORE PUSH1 0x64 DUP3 ADD DUP8 SWAP1 MSTORE DUP4 SWAP1 DUP3 SWAP1 PUSH1 0x84 SWAP1 DUP3 SWAP1 DUP5 SWAP1 GAS CALL SWAP1 DUP2 ISZERO PUSH2 0x64F JUMPI DUP4 SWAP2 PUSH2 0x63B JUMPI JUMPDEST POP POP PUSH1 0xD SLOAD AND DUP1 PUSH2 0x5D8 JUMPI JUMPDEST POP POP PUSH32 0xC02BBAFF19BDE22745E7227AEB31741EFD4BF98EBB8B48AC49DD40833FAC6756 SWAP1 PUSH1 0x40 MLOAD SWAP4 DUP5 MSTORE CALLER SWAP4 LOG3 DUP1 RETURN JUMPDEST DUP1 EXTCODESIZE ISZERO PUSH2 0x637 JUMPI DUP2 DUP1 SWAP2 PUSH1 0x64 PUSH1 0x40 MLOAD DUP1 SWAP5 DUP2 SWAP4 PUSH4 0x8F46A5A1 PUSH1 0xE0 SHL DUP4 MSTORE DUP10 PUSH1 0x4 DUP5 ADD MSTORE CALLER PUSH1 0x24 DUP5 ADD MSTORE DUP11 PUSH1 0x44 DUP5 ADD MSTORE GAS CALL DUP1 ISZERO PUSH2 0x62C JUMPI ISZERO PUSH2 0x5A8 JUMPI PUSH2 0x61D SWAP1 PUSH2 0x471F JUMP JUMPDEST PUSH2 0x628 JUMPI DUP4 CODESIZE PUSH2 0x5A8 JUMP JUMPDEST DUP4 DUP1 REVERT JUMPDEST PUSH1 0x40 MLOAD RETURNDATASIZE DUP5 DUP3 RETURNDATACOPY RETURNDATASIZE SWAP1 REVERT JUMPDEST POP DUP1 REVERT JUMPDEST PUSH2 0x644 SWAP1 PUSH2 0x471F JUMP JUMPDEST PUSH2 0x637 JUMPI DUP2 CODESIZE PUSH2 0x59C JUMP JUMPDEST PUSH1 0x40 MLOAD RETURNDATASIZE DUP6 DUP3 RETURNDATACOPY RETURNDATASIZE SWAP1 REVERT JUMPDEST DUP5 DUP4 MSTORE PUSH1 0x6 DUP5 MSTORE PUSH2 0x66E CALLER PUSH1 0x40 DUP6 KECCAK256 PUSH2 0x4CAE JUMP JUMPDEST PUSH2 0x51D JUMP JUMPDEST PUSH1 0x40 MLOAD PUSH3 0x461BCD PUSH1 0xE5 SHL DUP2 MSTORE PUSH1 0x4 DUP2 ADD DUP6 SWAP1 MSTORE PUSH1 0x34 PUSH1 0x24 DUP3 ADD MSTORE PUSH32 0x4D61726B65744D616E616765723A20537570706F727420616D6F756E74206D75 PUSH1 0x44 DUP3 ADD MSTORE PUSH20 0x73742062652067726561746572207468616E203 PUSH1 0x64 SHL PUSH1 0x64 DUP3 ADD MSTORE PUSH1 0x84 SWAP1 REVERT JUMPDEST PUSH1 0x40 MLOAD PUSH3 0x461BCD PUSH1 0xE5 SHL DUP2 MSTORE PUSH1 0x4 DUP2 ADD DUP6 SWAP1 MSTORE PUSH1 0x37 PUSH1 0x24 DUP3 ADD MSTORE PUSH32 0x4D61726B65744D616E616765723A20537570706F7274206F6E6C792061766169 PUSH1 0x44 DUP3 ADD MSTORE PUSH32 0x6C61626C6520666F7220746F6B656E206D61726B657473000000000000000000 PUSH1 0x64 DUP3 ADD MSTORE PUSH1 0x84 SWAP1 REVERT JUMPDEST PUSH1 0x40 MLOAD PUSH3 0x461BCD PUSH1 0xE5 SHL DUP2 MSTORE PUSH1 0x4 DUP2 ADD DUP4 SWAP1 MSTORE PUSH1 0x23 PUSH1 0x24 DUP3 ADD MSTORE PUSH32 0x4D61726B65744D616E616765723A20537570706F727420706572696F6420656E PUSH1 0x44 DUP3 ADD MSTORE PUSH3 0x191959 PUSH1 0xEA SHL PUSH1 0x64 DUP3 ADD MSTORE PUSH1 0x84 SWAP1 REVERT JUMPDEST PUSH4 0x4E487B71 PUSH1 0xE0 SHL DUP7 MSTORE PUSH1 0x21 PUSH1 0x4 MSTORE PUSH1 0x24 DUP7 REVERT JUMPDEST POP CALLVALUE PUSH2 0x31A JUMPI PUSH1 0x40 CALLDATASIZE PUSH1 0x3 NOT ADD SLT PUSH2 0x31A JUMPI PUSH2 0x7FF SWAP1 PUSH1 0x20 PUSH2 0x7C5 PUSH2 0x4481 JUMP JUMPDEST PUSH1 0xB SLOAD PUSH1 0x40 MLOAD PUSH4 0x3D1E7BA1 PUSH1 0xE1 SHL DUP2 MSTORE PUSH1 0x4 DUP1 CALLDATALOAD SWAP1 DUP3 ADD MSTORE PUSH1 0x1 PUSH1 0x1 PUSH1 0xA0 SHL SUB SWAP3 DUP4 AND PUSH1 0x24 DUP3 ADD MSTORE SWAP5 DUP6 SWAP3 SWAP1 SWAP2 AND SWAP1 DUP3 SWAP1 DUP2 SWAP1 PUSH1 0x44 DUP3 ADD SWAP1 JUMP JUMPDEST SUB SWAP2 GAS STATICCALL SWAP1 DUP2 ISZERO PUSH2 0x852 JUMPI SWAP1 PUSH2 0x81B JUMPI JUMPDEST PUSH1 0x20 SWAP1 PUSH1 0x40 MLOAD SWAP1 DUP2 MSTORE RETURN JUMPDEST POP PUSH1 0x20 DUP2 RETURNDATASIZE DUP3 GT PUSH2 0x84A JUMPI JUMPDEST DUP2 PUSH2 0x834 PUSH1 0x20 SWAP4 DUP4 PUSH2 0x476C JUMP JUMPDEST DUP2 ADD SUB SLT PUSH2 0x845 JUMPI PUSH1 0x20 SWAP1 MLOAD PUSH2 0x810 JUMP JUMPDEST PUSH1 0x0 DUP1 REVERT JUMPDEST RETURNDATASIZE SWAP2 POP PUSH2 0x827 JUMP JUMPDEST PUSH1 0x40 MLOAD SWAP1 RETURNDATASIZE SWAP1 DUP3 RETURNDATACOPY RETURNDATASIZE SWAP1 REVERT JUMPDEST POP PUSH2 0x100 CALLDATASIZE PUSH1 0x3 NOT ADD SLT PUSH2 0x31A JUMPI PUSH1 0x4 CALLDATALOAD PUSH8 0xFFFFFFFFFFFFFFFF DUP2 GT PUSH2 0x637 JUMPI PUSH2 0x88C SWAP1 CALLDATASIZE SWAP1 PUSH1 0x4 ADD PUSH2 0x47AA JUMP JUMPDEST SWAP1 PUSH2 0x895 PUSH2 0x48D1 JUMP JUMPDEST PUSH1 0x64 CALLDATALOAD PUSH1 0x1 PUSH1 0x1 PUSH1 0xA0 SHL SUB DUP2 AND SWAP1 SUB PUSH2 0x845 JUMPI CALLER DUP3 MSTORE PUSH1 0xA PUSH1 0x20 MSTORE PUSH2 0x8C1 PUSH1 0xFF PUSH1 0x40 DUP5 KECCAK256 SLOAD AND ISZERO PUSH2 0x490C JUMP JUMPDEST DUP3 MLOAD ISZERO PUSH2 0x1315 JUMPI PUSH1 0x2 PUSH1 0x44 CALLDATALOAD LT ISZERO DUP1 PUSH2 0x1308 JUMPI JUMPDEST ISZERO PUSH2 0x12B8 JUMPI PUSH1 0x84 CALLDATALOAD ISZERO PUSH2 0x1274 JUMPI PUSH1 0xA4 CALLDATALOAD ISZERO PUSH2 0x1220 JUMPI PUSH1 0xC4 CALLDATALOAD ISZERO ISZERO DUP1 PUSH2 0x1212 JUMPI JUMPDEST ISZERO PUSH2 0x11BE JUMPI PUSH1 0x18 PUSH1 0xE4 CALLDATALOAD LT PUSH2 0x1168 JUMPI DUP1 ISZERO PUSH2 0x112E JUMPI PUSH1 0x64 CALLDATALOAD PUSH1 0x1 PUSH1 0x1 PUSH1 0xA0 SHL SUB AND ISZERO PUSH2 0x10CB JUMPI PUSH1 0x64 CALLDATALOAD PUSH1 0x1 PUSH1 0x1 PUSH1 0xA0 SHL SUB AND DUP3 MSTORE PUSH1 0x7 PUSH1 0x20 MSTORE PUSH1 0x40 DUP3 KECCAK256 SLOAD PUSH1 0xFF AND ISZERO PUSH2 0x106A JUMPI JUMPDEST PUSH1 0xF SLOAD CALLVALUE LT PUSH2 0x1014 JUMPI PUSH2 0xE10 DUP1 PUSH1 0xE4 CALLDATALOAD MUL SWAP1 PUSH1 0xE4 CALLDATALOAD DUP3 DIV EQ PUSH1 0xE4 CALLDATALOAD ISZERO OR ISZERO PUSH2 0x1000 JUMPI PUSH2 0x968 SWAP1 TIMESTAMP PUSH2 0x49B9 JUMP JUMPDEST SWAP2 PUSH3 0x2A300 DUP4 ADD DUP4 GT PUSH2 0xFEC JUMPI PUSH1 0xE SLOAD SWAP3 PUSH2 0x982 DUP5 PUSH2 0x49C6 JUMP JUMPDEST PUSH1 0xE SSTORE PUSH3 0x2A300 PUSH1 0x40 MLOAD SWAP2 PUSH2 0x996 DUP4 PUSH2 0x4733 JUMP JUMPDEST CALLER DUP4 MSTORE DUP7 PUSH1 0x20 DUP5 ADD MSTORE DUP5 ISZERO ISZERO PUSH1 0x40 DUP5 ADD MSTORE PUSH1 0x44 CALLDATALOAD PUSH1 0x60 DUP5 ADD MSTORE PUSH1 0x1 DUP1 PUSH1 0xA0 SHL SUB PUSH1 0x64 CALLDATALOAD AND PUSH1 0x80 DUP5 ADD MSTORE PUSH1 0x84 CALLDATALOAD PUSH1 0xA0 DUP5 ADD MSTORE PUSH1 0xA4 CALLDATALOAD PUSH1 0xC0 DUP5 ADD MSTORE PUSH1 0xC4 CALLDATALOAD PUSH1 0xE0 DUP5 ADD MSTORE TIMESTAMP PUSH2 0x100 DUP5 ADD MSTORE DUP1 PUSH2 0x120 DUP5 ADD MSTORE ADD PUSH2 0x140 DUP3 ADD MSTORE DUP2 PUSH2 0x160 DUP3 ADD MSTORE DUP2 PUSH2 0x180 DUP3 ADD MSTORE DUP2 PUSH2 0x1A0 DUP3 ADD MSTORE DUP4 DUP3 MSTORE PUSH1 0x1 PUSH1 0x20 MSTORE PUSH1 0x40 DUP3 KECCAK256 SWAP1 PUSH1 0x1 DUP1 PUSH1 0xA0 SHL SUB DUP2 MLOAD AND PUSH1 0x1 PUSH1 0x1 PUSH1 0x60 SHL SUB PUSH1 0xA0 SHL DUP4 SLOAD AND OR DUP3 SSTORE PUSH1 0x20 DUP2 ADD MLOAD DUP1 MLOAD SWAP1 PUSH8 0xFFFFFFFFFFFFFFFF DUP3 GT PUSH2 0xFD8 JUMPI DUP2 SWAP1 PUSH2 0xA4F PUSH1 0x1 DUP7 ADD SLOAD PUSH2 0x47F1 JUMP JUMPDEST PUSH1 0x1F DUP2 GT PUSH2 0xF9A JUMPI JUMPDEST POP PUSH1 0x20 SWAP1 PUSH1 0x1F DUP4 GT PUSH1 0x1 EQ PUSH2 0xF2B JUMPI DUP7 SWAP3 PUSH2 0xF20 JUMPI JUMPDEST POP POP DUP2 PUSH1 0x1 SHL SWAP2 PUSH1 0x0 NOT SWAP1 PUSH1 0x3 SHL SHR NOT AND OR PUSH1 0x1 DUP4 ADD SSTORE JUMPDEST PUSH2 0xAA5 PUSH1 0x40 DUP3 ADD MLOAD ISZERO ISZERO PUSH1 0x2 DUP5 ADD SWAP1 PUSH1 0xFF DUP1 NOT DUP4 SLOAD AND SWAP2 ISZERO ISZERO AND OR SWAP1 SSTORE JUMP JUMPDEST PUSH1 0x60 DUP2 ADD MLOAD PUSH1 0x3 DUP4 ADD SSTORE PUSH1 0x4 DUP3 ADD PUSH1 0x1 DUP1 PUSH1 0xA0 SHL SUB PUSH1 0x80 DUP4 ADD MLOAD AND PUSH1 0x1 PUSH1 0x1 PUSH1 0x60 SHL SUB PUSH1 0xA0 SHL DUP3 SLOAD AND OR SWAP1 SSTORE PUSH1 0xA0 DUP2 ADD MLOAD PUSH1 0x5 DUP4 ADD SSTORE PUSH1 0xC0 DUP2 ADD MLOAD PUSH1 0x6 DUP4 ADD SSTORE PUSH1 0xE0 DUP2 ADD MLOAD PUSH1 0x7 DUP4 ADD SSTORE PUSH2 0x100 DUP2 ADD MLOAD PUSH1 0x8 DUP4 ADD SSTORE PUSH2 0x120 DUP2 ADD MLOAD PUSH1 0x9 DUP4 ADD SSTORE PUSH2 0x140 DUP2 ADD MLOAD PUSH1 0xA DUP4 ADD SSTORE PUSH1 0xB DUP3 ADD PUSH2 0x160 DUP3 ADD MLOAD PUSH1 0x5 DUP2 LT ISZERO PUSH2 0xF0C JUMPI PUSH2 0xB5D SWAP4 SWAP3 PUSH1 0xD SWAP3 PUSH2 0x1A0 SWAP3 PUSH1 0xFF DUP1 NOT DUP4 SLOAD AND SWAP2 AND OR SWAP1 SSTORE PUSH2 0x180 DUP2 ADD MLOAD PUSH1 0xC DUP6 ADD SSTORE ADD MLOAD ISZERO ISZERO SWAP2 ADD SWAP1 PUSH1 0xFF DUP1 NOT DUP4 SLOAD AND SWAP2 ISZERO ISZERO AND OR SWAP1 SSTORE JUMP JUMPDEST PUSH1 0x10 SLOAD PUSH1 0x1 PUSH1 0x40 SHL DUP2 LT ISZERO PUSH2 0xEF6 JUMPI DUP4 PUSH2 0xB80 DUP3 PUSH1 0x1 PUSH2 0xB99 SWAP5 ADD PUSH1 0x10 SSTORE PUSH2 0x452F JUMP JUMPDEST SWAP1 SWAP2 SWAP1 DUP3 SLOAD SWAP1 PUSH1 0x3 SHL SWAP2 DUP3 SHL SWAP2 PUSH1 0x0 NOT SWAP1 SHL NOT AND OR SWAP1 SSTORE JUMP JUMPDEST DUP3 DUP2 MSTORE PUSH1 0x11 PUSH1 0x20 MSTORE PUSH1 0x40 DUP2 KECCAK256 DUP1 SLOAD PUSH1 0xFF NOT AND PUSH1 0x1 OR SWAP1 SSTORE PUSH1 0x64 CALLDATALOAD PUSH1 0x1 PUSH1 0x1 PUSH1 0xA0 SHL SUB AND PUSH2 0xE53 JUMPI PUSH1 0xF SLOAD PUSH2 0xBCF PUSH1 0xA4 CALLDATALOAD DUP3 PUSH2 0x49B9 JUMP JUMPDEST CALLVALUE LT PUSH2 0xE0F JUMPI DUP2 DUP1 DUP1 DUP1 PUSH2 0xBF7 SWAP5 PUSH1 0x1 DUP1 PUSH1 0xA0 SHL SUB DUP3 SLOAD AND GAS CALL PUSH2 0xBF1 PUSH2 0x4A1B JUMP JUMPDEST POP PUSH2 0x4A4B JUMP JUMPDEST DUP3 DUP2 MSTORE PUSH1 0x2 PUSH1 0x20 MSTORE PUSH1 0x40 DUP2 KECCAK256 CALLER PUSH1 0x0 MSTORE PUSH1 0x20 MSTORE PUSH1 0x40 PUSH1 0x0 KECCAK256 PUSH1 0x1 PUSH1 0xFF NOT DUP3 SLOAD AND OR SWAP1 SSTORE DUP3 DUP2 MSTORE PUSH1 0x4 PUSH1 0x20 MSTORE PUSH1 0x40 DUP2 KECCAK256 CALLER PUSH1 0x0 MSTORE PUSH1 0x20 MSTORE PUSH1 0xC4 CALLDATALOAD PUSH1 0x40 PUSH1 0x0 KECCAK256 SSTORE CALLER DUP2 MSTORE PUSH1 0x12 PUSH1 0x20 MSTORE PUSH2 0xC4B DUP4 PUSH1 0x40 DUP4 KECCAK256 PUSH2 0x49F8 JUMP JUMPDEST PUSH1 0xB SLOAD PUSH1 0x1 PUSH1 0x1 PUSH1 0xA0 SHL SUB AND DUP1 EXTCODESIZE ISZERO PUSH2 0x637 JUMPI PUSH1 0x40 MLOAD PUSH4 0x38051807 PUSH1 0xE2 SHL DUP2 MSTORE PUSH1 0x4 DUP2 ADD DUP6 SWAP1 MSTORE CALLER PUSH1 0x24 DUP3 ADD MSTORE PUSH1 0x64 DUP1 CALLDATALOAD PUSH1 0x1 PUSH1 0x1 PUSH1 0xA0 SHL SUB AND PUSH1 0x44 DUP4 ADD MSTORE PUSH1 0xA4 DUP1 CALLDATALOAD SWAP2 DUP4 ADD SWAP2 SWAP1 SWAP2 MSTORE PUSH1 0xC4 CALLDATALOAD PUSH1 0x84 DUP4 ADD MSTORE SWAP1 SWAP2 DUP4 SWAP2 DUP4 SWAP2 DUP3 SWAP1 DUP5 SWAP1 GAS CALL DUP1 ISZERO PUSH2 0x62C JUMPI SWAP1 DUP3 SWAP2 PUSH2 0xDFB JUMPI JUMPDEST POP POP PUSH1 0xD SLOAD PUSH1 0x1 PUSH1 0x1 PUSH1 0xA0 SHL SUB AND DUP1 PUSH2 0xD3E JUMPI JUMPDEST POP POP DUP2 PUSH32 0xE47F69E204F188E4F9DF6ADC50C9CF0BD76C1CD85F34A8A3E8284064AFB4FB82 PUSH1 0x20 SWAP5 PUSH2 0xD07 PUSH1 0x40 MLOAD SWAP2 PUSH1 0xA0 DUP4 MSTORE PUSH1 0xA0 DUP4 ADD SWAP1 PUSH2 0x45F0 JUMP JUMPDEST SWAP4 ISZERO ISZERO DUP2 DUP8 ADD MSTORE PUSH1 0x44 CALLDATALOAD PUSH1 0x40 DUP3 ADD MSTORE PUSH1 0x64 CALLDATALOAD PUSH1 0x1 PUSH1 0x1 PUSH1 0xA0 SHL SUB AND PUSH1 0x60 DUP3 ADD MSTORE PUSH1 0x84 CALLDATALOAD PUSH1 0x80 DUP3 ADD MSTORE CALLER SWAP4 DUP2 SWAP1 SUB SWAP1 LOG3 PUSH1 0x40 MLOAD SWAP1 DUP2 MSTORE RETURN JUMPDEST DUP1 EXTCODESIZE ISZERO PUSH2 0x637 JUMPI PUSH1 0x40 MLOAD PUSH4 0x782A7805 PUSH1 0xE1 SHL DUP2 MSTORE PUSH1 0x4 DUP2 ADD DUP6 SWAP1 MSTORE CALLER PUSH1 0x24 DUP3 ADD MSTORE SWAP1 DUP3 SWAP1 DUP3 SWAP1 PUSH1 0x44 SWAP1 DUP3 SWAP1 DUP5 SWAP1 GAS CALL DUP1 ISZERO PUSH2 0x62C JUMPI SWAP1 DUP3 SWAP2 PUSH2 0xDE7 JUMPI JUMPDEST POP POP PUSH1 0xD SLOAD PUSH1 0x1 PUSH1 0x1 PUSH1 0xA0 SHL SUB AND DUP1 EXTCODESIZE ISZERO PUSH2 0x637 JUMPI PUSH1 0x40 MLOAD PUSH4 0x5374B47B PUSH1 0xE0 SHL DUP2 MSTORE PUSH1 0x4 DUP2 ADD DUP6 SWAP1 MSTORE CALLER PUSH1 0x24 DUP3 ADD MSTORE PUSH1 0xC4 CALLDATALOAD PUSH1 0x44 DUP3 ADD MSTORE PUSH1 0xA4 CALLDATALOAD PUSH1 0x64 DUP3 ADD MSTORE SWAP1 DUP3 SWAP1 DUP3 SWAP1 PUSH1 0x84 SWAP1 DUP3 SWAP1 DUP5 SWAP1 GAS CALL DUP1 ISZERO PUSH2 0x62C JUMPI ISZERO PUSH2 0xCCB JUMPI PUSH2 0xDDD DUP3 SWAP2 PUSH2 0x471F JUMP JUMPDEST PUSH2 0x31A JUMPI DUP1 PUSH2 0xCCB JUMP JUMPDEST PUSH2 0xDF0 SWAP1 PUSH2 0x471F JUMP JUMPDEST PUSH2 0x31A JUMPI DUP1 CODESIZE PUSH2 0xD7B JUMP JUMPDEST PUSH2 0xE04 SWAP1 PUSH2 0x471F JUMP JUMPDEST PUSH2 0x31A JUMPI DUP1 CODESIZE PUSH2 0xCB7 JUMP JUMPDEST PUSH1 0x64 PUSH1 0x40 MLOAD PUSH3 0x461BCD PUSH1 0xE5 SHL DUP2 MSTORE PUSH1 0x20 PUSH1 0x4 DUP3 ADD MSTORE PUSH1 0x20 PUSH1 0x24 DUP3 ADD MSTORE PUSH32 0x4D61726B65744D616E616765723A20496E73756666696369656E742050455055 PUSH1 0x44 DUP3 ADD MSTORE REVERT JUMPDEST PUSH1 0xF SLOAD DUP1 CALLVALUE LT PUSH2 0xE97 JUMPI DUP2 DUP1 DUP1 DUP1 PUSH2 0xE79 SWAP5 PUSH1 0x1 DUP1 PUSH1 0xA0 SHL SUB DUP3 SLOAD AND GAS CALL PUSH2 0xBF1 PUSH2 0x4A1B JUMP JUMPDEST PUSH2 0xE92 PUSH1 0xA4 CALLDATALOAD ADDRESS CALLER PUSH1 0x64 CALLDATALOAD PUSH1 0x1 PUSH1 0x1 PUSH1 0xA0 SHL SUB AND PUSH2 0x4AAB JUMP JUMPDEST PUSH2 0xBF7 JUMP JUMPDEST PUSH1 0x40 MLOAD PUSH3 0x461BCD PUSH1 0xE5 SHL DUP2 MSTORE PUSH1 0x20 PUSH1 0x4 DUP3 ADD MSTORE PUSH1 0x31 PUSH1 0x24 DUP3 ADD MSTORE PUSH32 0x4D61726B65744D616E616765723A20496E73756666696369656E742050455055 PUSH1 0x44 DUP3 ADD MSTORE PUSH17 0x20666F72206372656174696F6E20666565 PUSH1 0x78 SHL PUSH1 0x64 DUP3 ADD MSTORE PUSH1 0x84 SWAP1 REVERT JUMPDEST PUSH4 0x4E487B71 PUSH1 0xE0 SHL PUSH1 0x0 MSTORE PUSH1 0x41 PUSH1 0x4 MSTORE PUSH1 0x24 PUSH1 0x0 REVERT JUMPDEST PUSH4 0x4E487B71 PUSH1 0xE0 SHL DUP6 MSTORE PUSH1 0x21 PUSH1 0x4 MSTORE PUSH1 0x24 DUP6 REVERT JUMPDEST ADD MLOAD SWAP1 POP CODESIZE DUP1 PUSH2 0xA6E JUMP JUMPDEST SWAP3 POP PUSH1 0x1 DUP6 ADD DUP7 MSTORE PUSH1 0x20 DUP7 KECCAK256 SWAP1 DUP7 SWAP4 JUMPDEST PUSH1 0x1F NOT DUP5 AND DUP6 LT PUSH2 0xF7F JUMPI PUSH1 0x1 SWAP5 POP DUP4 PUSH1 0x1F NOT DUP2 AND LT PUSH2 0xF66 JUMPI JUMPDEST POP POP POP DUP2 SHL ADD PUSH1 0x1 DUP4 ADD SSTORE PUSH2 0xA86 JUMP JUMPDEST ADD MLOAD PUSH1 0x0 NOT PUSH1 0xF8 DUP5 PUSH1 0x3 SHL AND SHR NOT AND SWAP1 SSTORE CODESIZE DUP1 DUP1 PUSH2 0xF56 JUMP JUMPDEST DUP2 DUP2 ADD MLOAD DUP4 SSTORE PUSH1 0x20 SWAP5 DUP6 ADD SWAP5 PUSH1 0x1 SWAP1 SWAP4 ADD SWAP3 SWAP1 SWAP2 ADD SWAP1 PUSH2 0xF3B JUMP JUMPDEST PUSH2 0xFC8 SWAP1 PUSH1 0x1 DUP8 ADD DUP9 MSTORE PUSH1 0x20 DUP9 KECCAK256 PUSH1 0x1F DUP6 ADD PUSH1 0x5 SHR DUP2 ADD SWAP2 PUSH1 0x20 DUP7 LT PUSH2 0xFCE JUMPI JUMPDEST PUSH1 0x1F ADD PUSH1 0x5 SHR ADD SWAP1 PUSH2 0x49E1 JUMP JUMPDEST CODESIZE PUSH2 0xA58 JUMP JUMPDEST SWAP1 SWAP2 POP DUP2 SWAP1 PUSH2 0xFBB JUMP JUMPDEST PUSH4 0x4E487B71 PUSH1 0xE0 SHL DUP6 MSTORE PUSH1 0x41 PUSH1 0x4 MSTORE PUSH1 0x24 DUP6 REVERT JUMPDEST PUSH4 0x4E487B71 PUSH1 0xE0 SHL DUP2 MSTORE PUSH1 0x11 PUSH1 0x4 MSTORE PUSH1 0x24 SWAP1 REVERT JUMPDEST PUSH4 0x4E487B71 PUSH1 0xE0 SHL DUP4 MSTORE PUSH1 0x11 PUSH1 0x4 MSTORE PUSH1 0x24 DUP4 REVERT JUMPDEST PUSH1 0x40 MLOAD PUSH3 0x461BCD PUSH1 0xE5 SHL DUP2 MSTORE PUSH1 0x20 PUSH1 0x4 DUP3 ADD MSTORE PUSH1 0x28 PUSH1 0x24 DUP3 ADD MSTORE PUSH32 0x4D61726B65744D616E616765723A20496E73756666696369656E742063726561 PUSH1 0x44 DUP3 ADD MSTORE PUSH8 0x74696F6E20666565 PUSH1 0xC0 SHL PUSH1 0x64 DUP3 ADD MSTORE PUSH1 0x84 SWAP1 REVERT JUMPDEST PUSH1 0x40 MLOAD PUSH3 0x461BCD PUSH1 0xE5 SHL DUP2 MSTORE PUSH1 0x20 PUSH1 0x4 DUP3 ADD MSTORE PUSH1 0x33 PUSH1 0x24 DUP3 ADD MSTORE PUSH32 0x4D61726B65744D616E616765723A20546F6B656E206E6F7420737570706F7274 PUSH1 0x44 DUP3 ADD MSTORE PUSH19 0x32B2103337B91036BAB63A3496B7B83A34B7B7 PUSH1 0x69 SHL PUSH1 0x64 DUP3 ADD MSTORE PUSH1 0x84 SWAP1 REVERT JUMPDEST PUSH1 0x40 MLOAD PUSH3 0x461BCD PUSH1 0xE5 SHL DUP2 MSTORE PUSH1 0x20 PUSH1 0x4 DUP3 ADD MSTORE PUSH1 0x35 PUSH1 0x24 DUP3 ADD MSTORE PUSH32 0x4D61726B65744D616E616765723A204D756C74692D6F7074696F6E206D61726B PUSH1 0x44 DUP3 ADD MSTORE PUSH21 0x32BA39903932B8BAB4B93290281928103A37B5B2B7 PUSH1 0x59 SHL PUSH1 0x64 DUP3 ADD MSTORE PUSH1 0x84 SWAP1 REVERT JUMPDEST PUSH1 0x64 CALLDATALOAD PUSH1 0x1 PUSH1 0x1 PUSH1 0xA0 SHL SUB AND ISZERO PUSH2 0x93C JUMPI PUSH1 0x64 CALLDATALOAD PUSH1 0x1 PUSH1 0x1 PUSH1 0xA0 SHL SUB AND DUP3 MSTORE PUSH1 0x7 PUSH1 0x20 MSTORE PUSH1 0x40 DUP3 KECCAK256 SLOAD PUSH2 0x1163 SWAP1 PUSH1 0xFF AND PUSH2 0x4962 JUMP JUMPDEST PUSH2 0x93C JUMP JUMPDEST PUSH1 0x40 MLOAD PUSH3 0x461BCD PUSH1 0xE5 SHL DUP2 MSTORE PUSH1 0x20 PUSH1 0x4 DUP3 ADD MSTORE PUSH1 0x28 PUSH1 0x24 DUP3 ADD MSTORE PUSH32 0x4D61726B65744D616E616765723A204D696E696D756D20323420686F75727320 PUSH1 0x44 DUP3 ADD MSTORE PUSH8 0x1C995C5D5A5C9959 PUSH1 0xC2 SHL PUSH1 0x64 DUP3 ADD MSTORE PUSH1 0x84 SWAP1 REVERT JUMPDEST PUSH1 0x40 MLOAD PUSH3 0x461BCD PUSH1 0xE5 SHL DUP2 MSTORE PUSH1 0x20 PUSH1 0x4 DUP3 ADD MSTORE PUSH1 0x26 PUSH1 0x24 DUP3 ADD MSTORE PUSH32 0x4D61726B65744D616E616765723A20496E76616C69642063726561746F72206F PUSH1 0x44 DUP3 ADD MSTORE PUSH6 0x7574636F6D65 PUSH1 0xD0 SHL PUSH1 0x64 DUP3 ADD MSTORE PUSH1 0x84 SWAP1 REVERT JUMPDEST POP PUSH1 0x44 CALLDATALOAD PUSH1 0xC4 CALLDATALOAD GT ISZERO PUSH2 0x8F5 JUMP JUMPDEST PUSH1 0x40 MLOAD PUSH3 0x461BCD PUSH1 0xE5 SHL DUP2 MSTORE PUSH1 0x20 PUSH1 0x4 DUP3 ADD MSTORE PUSH1 0x26 PUSH1 0x24 DUP3 ADD MSTORE PUSH32 0x4D61726B65744D616E616765723A20496E76616C69642063726561746F722064 PUSH1 0x44 DUP3 ADD MSTORE PUSH6 0x195C1BDCDA5D PUSH1 0xD2 SHL PUSH1 0x64 DUP3 ADD MSTORE PUSH1 0x84 SWAP1 REVERT JUMPDEST PUSH1 0x64 PUSH1 0x40 MLOAD PUSH3 0x461BCD PUSH1 0xE5 SHL DUP2 MSTORE PUSH1 0x20 PUSH1 0x4 DUP3 ADD MSTORE PUSH1 0x20 PUSH1 0x24 DUP3 ADD MSTORE PUSH32 0x4D61726B65744D616E616765723A20496E76616C6964206D696E207374616B65 PUSH1 0x44 DUP3 ADD MSTORE REVERT JUMPDEST PUSH1 0x40 MLOAD PUSH3 0x461BCD PUSH1 0xE5 SHL DUP2 MSTORE PUSH1 0x20 PUSH1 0x4 DUP3 ADD MSTORE PUSH1 0x22 PUSH1 0x24 DUP3 ADD MSTORE PUSH32 0x4D61726B65744D616E616765723A20496E76616C6964206D6178206F7074696F PUSH1 0x44 DUP3 ADD MSTORE PUSH2 0x6E73 PUSH1 0xF0 SHL PUSH1 0x64 DUP3 ADD MSTORE PUSH1 0x84 SWAP1 REVERT JUMPDEST POP PUSH1 0xA PUSH1 0x44 CALLDATALOAD GT ISZERO PUSH2 0x8D5 JUMP JUMPDEST PUSH1 0x64 PUSH1 0x40 MLOAD PUSH3 0x461BCD PUSH1 0xE5 SHL DUP2 MSTORE PUSH1 0x20 PUSH1 0x4 DUP3 ADD MSTORE PUSH1 0x20 PUSH1 0x24 DUP3 ADD MSTORE PUSH32 0x4D61726B65744D616E616765723A20496E76616C696420495046532068617368 PUSH1 0x44 DUP3 ADD MSTORE REVERT JUMPDEST POP CALLVALUE PUSH2 0x31A JUMPI PUSH1 0x20 CALLDATASIZE PUSH1 0x3 NOT ADD SLT PUSH2 0x31A JUMPI PUSH1 0x40 PUSH2 0x36C SWAP2 PUSH2 0x1379 PUSH2 0x55C5 JUMP JUMPDEST POP PUSH1 0x4 CALLDATALOAD DUP2 MSTORE PUSH1 0x1 PUSH1 0x20 MSTORE KECCAK256 PUSH1 0xFF PUSH1 0xD PUSH1 0x40 MLOAD SWAP3 PUSH2 0x1396 DUP5 PUSH2 0x4733 JUMP JUMPDEST DUP1 SLOAD PUSH1 0x1 PUSH1 0x1 PUSH1 0xA0 SHL SUB SWAP1 DUP2 AND DUP6 MSTORE PUSH2 0x13B1 PUSH1 0x1 DUP4 ADD PUSH2 0x482B JUMP JUMPDEST PUSH1 0x20 DUP7 ADD MSTORE DUP4 PUSH1 0x2 DUP4 ADD SLOAD AND ISZERO ISZERO PUSH1 0x40 DUP7 ADD MSTORE PUSH1 0x3 DUP3 ADD SLOAD PUSH1 0x60 DUP7 ADD MSTORE PUSH1 0x4 DUP3 ADD SLOAD AND PUSH1 0x80 DUP6 ADD MSTORE PUSH1 0x5 DUP2 ADD SLOAD PUSH1 0xA0 DUP6 ADD MSTORE PUSH1 0x6 DUP2 ADD SLOAD PUSH1 0xC0 DUP6 ADD MSTORE PUSH1 0x7 DUP2 ADD SLOAD PUSH1 0xE0 DUP6 ADD MSTORE PUSH1 0x8 DUP2 ADD SLOAD PUSH2 0x100 DUP6 ADD MSTORE PUSH1 0x9 DUP2 ADD SLOAD PUSH2 0x120 DUP6 ADD MSTORE PUSH1 0xA DUP2 ADD SLOAD PUSH2 0x140 DUP6 ADD MSTORE PUSH2 0x142C DUP4 PUSH1 0xB DUP4 ADD SLOAD AND PUSH2 0x160 DUP7 ADD PUSH2 0x49D5 JUMP JUMPDEST PUSH1 0xC DUP2 ADD SLOAD PUSH2 0x180 DUP6 ADD MSTORE ADD SLOAD AND ISZERO ISZERO PUSH2 0x1A0 DUP3 ADD MSTORE PUSH1 0x40 MLOAD SWAP2 DUP3 SWAP2 PUSH1 0x20 DUP4 MSTORE PUSH1 0x20 DUP4 ADD SWAP1 PUSH2 0x4653 JUMP JUMPDEST POP CALLVALUE PUSH2 0x31A JUMPI PUSH2 0x1465 CALLDATASIZE PUSH2 0x4709 JUMP JUMPDEST SWAP2 SWAP1 DUP2 MSTORE PUSH1 0x5 PUSH1 0x20 MSTORE PUSH1 0x40 DUP2 KECCAK256 SWAP1 DUP2 SLOAD DUP4 LT ISZERO PUSH2 0x31A JUMPI PUSH1 0x20 PUSH2 0x1488 DUP5 DUP5 PUSH2 0x459D JUMP JUMPDEST SWAP1 SLOAD PUSH1 0x40 MLOAD PUSH1 0x3 SWAP3 SWAP1 SWAP3 SHL SHR PUSH1 0x1 PUSH1 0x1 PUSH1 0xA0 SHL SUB AND DUP2 MSTORE RETURN JUMPDEST POP CALLVALUE PUSH2 0x31A JUMPI PUSH1 0x60 CALLDATASIZE PUSH1 0x3 NOT ADD SLT PUSH2 0x31A JUMPI PUSH1 0x44 CALLDATALOAD SWAP1 PUSH1 0x1 PUSH1 0x1 PUSH1 0xA0 SHL SUB DUP1 DUP4 AND DUP4 SUB PUSH2 0x845 JUMPI PUSH1 0xB SLOAD PUSH1 0x40 MLOAD PUSH4 0xDC4CE349 PUSH1 0xE0 SHL DUP2 MSTORE PUSH1 0x4 DUP1 CALLDATALOAD SWAP1 DUP3 ADD MSTORE PUSH1 0x24 DUP1 CALLDATALOAD SWAP1 DUP3 ADD MSTORE PUSH1 0x1 PUSH1 0x1 PUSH1 0xA0 SHL SUB SWAP1 SWAP5 AND PUSH1 0x44 DUP6 ADD MSTORE PUSH1 0x20 SWAP2 DUP5 SWAP2 AND DUP2 DUP1 PUSH1 0x64 DUP2 ADD PUSH2 0x7FF JUMP JUMPDEST POP CALLVALUE PUSH2 0x31A JUMPI PUSH1 0x40 CALLDATASIZE PUSH1 0x3 NOT ADD SLT PUSH2 0x31A JUMPI PUSH2 0x1523 PUSH2 0x4497 JUMP JUMPDEST PUSH2 0x152B PUSH2 0x48D1 JUMP JUMPDEST SWAP1 PUSH2 0x1534 PUSH2 0x48E0 JUMP JUMPDEST PUSH1 0x1 PUSH1 0x1 PUSH1 0xA0 SHL SUB AND SWAP1 DUP2 ISZERO PUSH2 0x1567 JUMPI PUSH2 0x1564 SWAP2 DUP4 MSTORE PUSH1 0xA PUSH1 0x20 MSTORE PUSH1 0x40 DUP4 KECCAK256 SWAP1 PUSH1 0xFF DUP1 NOT DUP4 SLOAD AND SWAP2 ISZERO ISZERO AND OR SWAP1 SSTORE JUMP JUMPDEST DUP1 RETURN JUMPDEST PUSH1 0x40 MLOAD PUSH3 0x461BCD PUSH1 0xE5 SHL DUP2 MSTORE PUSH1 0x20 PUSH1 0x4 DUP3 ADD MSTORE PUSH1 0x25 PUSH1 0x24 DUP3 ADD MSTORE PUSH32 0x4D61726B65744D616E616765723A20496E76616C69642077616C6C6574206164 PUSH1 0x44 DUP3 ADD MSTORE PUSH5 0x6472657373 PUSH1 0xD8 SHL PUSH1 0x64 DUP3 ADD MSTORE PUSH1 0x84 SWAP1 REVERT JUMPDEST POP CALLVALUE PUSH2 0x31A JUMPI DUP1 PUSH1 0x3 NOT CALLDATASIZE ADD SLT PUSH2 0x31A JUMPI PUSH1 0x9 SLOAD PUSH2 0x15D7 DUP2 PUSH2 0x543C JUMP JUMPDEST SWAP1 PUSH2 0x15E5 PUSH1 0x40 MLOAD SWAP3 DUP4 PUSH2 0x476C JUMP JUMPDEST DUP1 DUP3 MSTORE PUSH1 0x1F NOT SWAP3 DUP4 PUSH2 0x15F6 DUP4 PUSH2 0x543C JUMP JUMPDEST ADD SWAP4 PUSH1 0x20 SWAP5 CALLDATASIZE DUP7 DUP7 ADD CALLDATACOPY PUSH2 0x1609 DUP4 PUSH2 0x543C JUMP JUMPDEST SWAP3 PUSH2 0x1617 PUSH1 0x40 MLOAD SWAP5 DUP6 PUSH2 0x476C JUMP JUMPDEST DUP1 DUP5 MSTORE DUP2 PUSH2 0x1624 DUP3 PUSH2 0x543C JUMP JUMPDEST ADD DUP4 JUMPDEST DUP2 DUP2 LT PUSH2 0x1720 JUMPI POP POP DUP3 JUMPDEST DUP2 DUP2 LT PUSH2 0x16AB JUMPI POP POP PUSH2 0x1650 PUSH1 0x40 MLOAD SWAP5 PUSH1 0x40 DUP7 MSTORE PUSH1 0x40 DUP7 ADD SWAP1 PUSH2 0x4444 JUMP JUMPDEST SWAP5 DUP5 DUP7 SUB DUP2 DUP7 ADD MSTORE DUP4 MLOAD SWAP2 DUP3 DUP8 MSTORE DUP2 DUP8 ADD SWAP1 DUP3 DUP1 DUP6 PUSH1 0x5 SHL DUP11 ADD ADD SWAP7 ADD SWAP5 SWAP8 JUMPDEST DUP5 DUP10 LT PUSH2 0x167D JUMPI DUP8 DUP8 SUB DUP9 RETURN JUMPDEST SWAP1 SWAP2 SWAP3 SWAP4 SWAP5 SWAP6 DUP5 DUP1 PUSH2 0x1699 DUP4 DUP7 DUP7 PUSH1 0x1 SWAP7 SUB ADD DUP9 MSTORE DUP11 MLOAD PUSH2 0x45F0 JUMP JUMPDEST SWAP9 ADD SWAP5 ADD SWAP9 ADD SWAP8 SWAP2 SWAP1 SWAP5 SWAP4 SWAP3 SWAP5 PUSH2 0x1670 JUMP JUMPDEST DUP1 PUSH2 0x16BC PUSH2 0x1717 SWAP3 SWAP9 SWAP5 SWAP6 SWAP9 PUSH2 0x44E2 JUMP JUMPDEST SWAP1 SLOAD PUSH1 0x1 PUSH1 0x1 PUSH1 0xA0 SHL SUB SWAP2 PUSH1 0x3 SWAP2 SWAP1 DUP3 SHL SHR DUP3 AND PUSH2 0x16DA DUP5 DUP12 PUSH2 0x5454 JUMP JUMPDEST MSTORE PUSH2 0x16E4 DUP4 PUSH2 0x44E2 JUMP JUMPDEST SWAP1 SLOAD SWAP2 SHL SHR AND DUP9 MSTORE PUSH1 0x8 DUP5 MSTORE PUSH2 0x16FC PUSH1 0x40 DUP10 KECCAK256 PUSH2 0x482B JUMP JUMPDEST PUSH2 0x1706 DUP3 DUP9 PUSH2 0x5454 JUMP JUMPDEST MSTORE PUSH2 0x1711 DUP2 DUP8 PUSH2 0x5454 JUMP JUMPDEST POP PUSH2 0x49C6 JUMP JUMPDEST SWAP6 SWAP3 SWAP2 SWAP6 PUSH2 0x1632 JUMP JUMPDEST PUSH1 0x60 DUP7 DUP3 ADD DUP10 ADD MSTORE DUP8 ADD PUSH2 0x1627 JUMP JUMPDEST POP CALLVALUE PUSH2 0x31A JUMPI DUP1 PUSH1 0x3 NOT CALLDATASIZE ADD SLT PUSH2 0x31A JUMPI PUSH1 0x20 PUSH1 0x9 SLOAD PUSH1 0x40 MLOAD SWAP1 DUP2 MSTORE RETURN JUMPDEST POP CALLVALUE PUSH2 0x31A JUMPI DUP1 PUSH1 0x3 NOT CALLDATASIZE ADD SLT PUSH2 0x31A JUMPI PUSH1 0x13 SLOAD PUSH2 0x176A DUP2 PUSH2 0x562E JUMP JUMPDEST DUP3 SWAP2 DUP4 JUMPDEST DUP2 DUP2 LT PUSH2 0x17BB JUMPI POP POP PUSH2 0x1780 DUP3 PUSH2 0x562E JUMP JUMPDEST SWAP3 JUMPDEST DUP3 DUP2 LT PUSH2 0x1797 JUMPI PUSH1 0x40 MLOAD DUP1 PUSH2 0x36C DUP7 DUP3 PUSH2 0x45B5 JUMP JUMPDEST DUP1 PUSH2 0x17A5 PUSH2 0x17B6 SWAP3 DUP5 PUSH2 0x5454 JUMP JUMPDEST MLOAD PUSH2 0x17B0 DUP3 DUP8 PUSH2 0x5454 JUMP JUMPDEST MSTORE PUSH2 0x49C6 JUMP JUMPDEST PUSH2 0x1782 JUMP JUMPDEST PUSH2 0x17C4 DUP2 PUSH2 0x4566 JUMP JUMPDEST SWAP1 SLOAD SWAP1 PUSH1 0x3 SHL SHR DUP1 DUP7 MSTORE PUSH1 0x20 PUSH1 0x1 DUP2 MSTORE PUSH1 0xFF PUSH1 0xB PUSH1 0x40 DUP10 KECCAK256 ADD SLOAD AND PUSH1 0x5 DUP2 LT ISZERO PUSH2 0x1858 JUMPI PUSH1 0x4 EQ SWAP1 DUP2 PUSH2 0x1821 JUMPI JUMPDEST POP PUSH2 0x1807 JUMPI JUMPDEST POP PUSH2 0x1802 SWAP1 PUSH2 0x49C6 JUMP JUMPDEST PUSH2 0x176E JUMP JUMPDEST DUP5 PUSH2 0x181A SWAP2 PUSH2 0x17B0 PUSH2 0x1802 SWAP5 SWAP8 DUP8 PUSH2 0x5454 JUMP JUMPDEST SWAP4 SWAP1 PUSH2 0x17F8 JUMP JUMPDEST PUSH1 0x14 SWAP2 POP DUP3 DUP9 MSTORE MSTORE PUSH1 0x40 DUP7 KECCAK256 SLOAD PUSH3 0x278D00 DUP2 ADD DUP1 SWAP2 GT PUSH2 0x1844 JUMPI TIMESTAMP LT ISZERO CODESIZE PUSH2 0x17F2 JUMP JUMPDEST PUSH4 0x4E487B71 PUSH1 0xE0 SHL DUP8 MSTORE PUSH1 0x11 PUSH1 0x4 MSTORE PUSH1 0x24 DUP8 REVERT JUMPDEST PUSH4 0x4E487B71 PUSH1 0xE0 SHL DUP9 MSTORE PUSH1 0x21 PUSH1 0x4 MSTORE PUSH1 0x24 DUP9 REVERT JUMPDEST POP CALLVALUE PUSH2 0x31A JUMPI PUSH1 0x20 CALLDATASIZE PUSH1 0x3 NOT ADD SLT PUSH2 0x31A JUMPI PUSH1 0x4 CALLDATALOAD DUP1 DUP3 MSTORE PUSH1 0x1 PUSH1 0x20 MSTORE PUSH1 0x40 DUP3 KECCAK256 DUP1 SLOAD PUSH1 0x1 PUSH1 0x1 PUSH1 0xA0 SHL SUB AND CALLER SUB PUSH2 0x1968 JUMPI PUSH1 0xFF PUSH1 0xB DUP3 ADD SLOAD AND PUSH1 0x5 DUP2 LT ISZERO PUSH2 0x1954 JUMPI SWAP1 PUSH2 0x18BC PUSH1 0x9 SWAP3 ISZERO PUSH2 0x4B68 JUMP JUMPDEST ADD SLOAD PUSH2 0xA8BF NOT DUP2 ADD SWAP1 DUP2 GT PUSH2 0x1000 JUMPI TIMESTAMP LT ISZERO PUSH2 0x1905 JUMPI PUSH1 0x40 MLOAD PUSH2 0x1564 SWAP2 PUSH2 0x18E2 DUP3 PUSH2 0x4750 JUMP JUMPDEST PUSH1 0x11 DUP3 MSTORE PUSH17 0x10DC99585D1BDC8818D85B98D95B1B1959 PUSH1 0x7A SHL PUSH1 0x20 DUP4 ADD MSTORE PUSH2 0x5126 JUMP JUMPDEST PUSH1 0x40 MLOAD PUSH3 0x461BCD PUSH1 0xE5 SHL DUP2 MSTORE PUSH1 0x20 PUSH1 0x4 DUP3 ADD MSTORE PUSH1 0x21 PUSH1 0x24 DUP3 ADD MSTORE PUSH32 0x4D61726B65744D616E616765723A20546F6F206C61746520746F2063616E6365 PUSH1 0x44 DUP3 ADD MSTORE PUSH1 0x1B PUSH1 0xFA SHL PUSH1 0x64 DUP3 ADD MSTORE PUSH1 0x84 SWAP1 REVERT JUMPDEST PUSH4 0x4E487B71 PUSH1 0xE0 SHL DUP5 MSTORE PUSH1 0x21 PUSH1 0x4 MSTORE PUSH1 0x24 DUP5 REVERT JUMPDEST PUSH1 0x40 MLOAD PUSH3 0x461BCD PUSH1 0xE5 SHL DUP2 MSTORE PUSH1 0x20 PUSH1 0x4 DUP3 ADD MSTORE PUSH1 0x26 PUSH1 0x24 DUP3 ADD MSTORE PUSH32 0x4D61726B65744D616E616765723A204F6E6C792063726561746F722063616E20 PUSH1 0x44 DUP3 ADD MSTORE PUSH6 0x18D85B98D95B PUSH1 0xD2 SHL PUSH1 0x64 DUP3 ADD MSTORE PUSH1 0x84 SWAP1 REVERT JUMPDEST POP CALLVALUE PUSH2 0x31A JUMPI PUSH2 0x19CB CALLDATASIZE PUSH2 0x4709 JUMP JUMPDEST SWAP2 SWAP1 DUP2 MSTORE PUSH1 0x6 PUSH1 0x20 MSTORE PUSH1 0x40 DUP2 KECCAK256 SWAP1 DUP2 SLOAD DUP4 LT ISZERO PUSH2 0x31A JUMPI PUSH1 0x20 PUSH2 0x1488 DUP5 DUP5 PUSH2 0x459D JUMP JUMPDEST POP CALLVALUE PUSH2 0x31A JUMPI DUP1 PUSH1 0x3 NOT CALLDATASIZE ADD SLT PUSH2 0x31A JUMPI PUSH1 0xE SLOAD PUSH1 0x0 NOT SWAP1 DUP2 DUP2 ADD DUP2 DUP2 GT PUSH2 0x1A64 JUMPI PUSH2 0x1A19 SWAP1 PUSH2 0x562E JUMP JUMPDEST SWAP2 PUSH1 0x1 JUMPDEST DUP3 DUP2 LT PUSH2 0x1A32 JUMPI PUSH1 0x40 MLOAD DUP1 PUSH2 0x36C DUP7 DUP3 PUSH2 0x45B5 JUMP JUMPDEST DUP2 DUP2 ADD DUP2 DUP2 GT PUSH2 0x1A50 JUMPI SWAP1 DUP1 PUSH2 0x17B0 PUSH2 0x1A4B SWAP4 DUP8 PUSH2 0x5454 JUMP JUMPDEST PUSH2 0x1A1D JUMP JUMPDEST PUSH4 0x4E487B71 PUSH1 0xE0 SHL DUP7 MSTORE PUSH1 0x11 PUSH1 0x4 MSTORE PUSH1 0x24 DUP7 REVERT JUMPDEST PUSH4 0x4E487B71 PUSH1 0xE0 SHL DUP5 MSTORE PUSH1 0x11 PUSH1 0x4 MSTORE PUSH1 0x24 DUP5 REVERT JUMPDEST POP CALLVALUE PUSH2 0x31A JUMPI PUSH1 0x20 CALLDATASIZE PUSH1 0x3 NOT ADD SLT PUSH2 0x31A JUMPI PUSH1 0x4 CALLDATALOAD DUP2 MSTORE PUSH1 0x1 PUSH1 0x20 DUP2 SWAP1 MSTORE PUSH1 0x40 SWAP1 SWAP2 KECCAK256 DUP1 SLOAD PUSH1 0x1 PUSH1 0x1 PUSH1 0xA0 SHL SUB SWAP3 SWAP1 DUP4 AND SWAP2 SWAP1 PUSH2 0x1AB6 SWAP1 DUP3 ADD PUSH2 0x482B JUMP JUMPDEST SWAP3 PUSH1 0x2 DUP3 ADD SLOAD PUSH1 0xFF AND SWAP2 PUSH1 0x3 DUP2 ADD SLOAD SWAP2 PUSH1 0x4 DUP3 ADD SLOAD AND PUSH1 0x5 DUP3 ADD SLOAD PUSH1 0x6 DUP4 ADD SLOAD PUSH1 0x7 DUP5 ADD SLOAD PUSH1 0x8 DUP6 ADD SLOAD SWAP1 PUSH1 0x9 DUP7 ADD SLOAD SWAP3 PUSH1 0xA DUP8 ADD SLOAD SWAP5 PUSH1 0xB DUP9 ADD SLOAD PUSH1 0xFF AND SWAP7 PUSH1 0xC DUP10 ADD SLOAD SWAP9 PUSH1 0xD ADD SLOAD PUSH1 0xFF AND SWAP10 PUSH1 0x40 MLOAD DUP1 SWAP15 DUP2 SWAP15 DUP3 MSTORE PUSH2 0x1C0 DUP1 PUSH1 0x20 DUP5 ADD MSTORE DUP3 ADD PUSH2 0x1B21 SWAP2 PUSH2 0x45F0 JUMP JUMPDEST SWAP13 ISZERO ISZERO SWAP1 PUSH1 0x40 ADD MSTORE PUSH1 0x60 DUP14 ADD MSTORE PUSH1 0x80 DUP13 ADD MSTORE PUSH1 0xA0 DUP12 ADD MSTORE PUSH1 0xC0 DUP11 ADD MSTORE PUSH1 0xE0 DUP10 ADD MSTORE PUSH2 0x100 DUP9 ADD MSTORE PUSH2 0x120 DUP8 ADD MSTORE PUSH2 0x140 DUP7 ADD MSTORE PUSH2 0x160 DUP6 ADD PUSH2 0x1B62 SWAP2 PUSH2 0x4630 JUMP JUMPDEST PUSH2 0x180 DUP5 ADD MSTORE ISZERO ISZERO PUSH2 0x1A0 DUP4 ADD MSTORE SUB SWAP1 RETURN JUMPDEST POP CALLVALUE PUSH2 0x31A JUMPI PUSH1 0x20 CALLDATASIZE PUSH1 0x3 NOT ADD SLT PUSH2 0x31A JUMPI PUSH1 0x4 CALLDATALOAD SWAP1 DUP2 DUP2 MSTORE PUSH1 0x1 PUSH1 0x20 MSTORE PUSH1 0x40 DUP2 KECCAK256 SWAP2 PUSH1 0xB DUP4 ADD SWAP3 DUP4 SLOAD PUSH1 0xFF DUP2 AND SWAP5 PUSH1 0x5 DUP7 LT ISZERO PUSH2 0xF0C JUMPI PUSH2 0x1BBC PUSH1 0x1 PUSH1 0x24 SWAP6 SWAP7 SWAP8 EQ PUSH2 0x4D2B JUMP JUMPDEST PUSH1 0xD DUP4 ADD SWAP3 DUP4 SLOAD PUSH2 0x1BD0 PUSH1 0xFF DUP3 AND ISZERO PUSH2 0x4D88 JUMP JUMPDEST PUSH1 0xC SLOAD PUSH1 0x40 DUP1 MLOAD PUSH4 0x33138655 PUSH1 0xE2 SHL DUP2 MSTORE PUSH1 0x4 DUP2 ADD DUP11 SWAP1 MSTORE SWAP8 PUSH1 0x1 PUSH1 0x1 PUSH1 0xA0 SHL SUB SWAP7 SWAP3 DUP10 SWAP2 SWAP1 DUP3 SWAP1 DUP10 AND GAS STATICCALL SWAP7 DUP8 ISZERO PUSH2 0x1D40 JUMPI DUP10 SWAP1 DUP11 SWAP9 PUSH2 0x1D0C JUMPI JUMPDEST POP ISZERO PUSH2 0x1CBB JUMPI DUP9 SWAP6 DUP8 PUSH1 0xC PUSH1 0x2 SWAP6 ADD SSTORE PUSH1 0x1 PUSH1 0xFF NOT DUP1 SWAP5 AND OR SWAP1 SSTORE AND OR SWAP1 SSTORE PUSH2 0x1C34 DUP5 PUSH2 0x5181 JUMP JUMPDEST PUSH1 0xD SLOAD AND DUP1 PUSH2 0x1C6E JUMPI JUMPDEST POP POP PUSH1 0x20 PUSH32 0x6DFC24F0F2FB42E49FB4FA3FFA8ABB148CAB908A1FB8335B3F128A08B2594AF1 SWAP2 PUSH1 0x40 MLOAD SWAP1 DUP2 MSTORE LOG2 DUP1 RETURN JUMPDEST DUP1 EXTCODESIZE ISZERO PUSH2 0x637 JUMPI DUP2 DUP1 SWAP2 PUSH1 0x44 PUSH1 0x40 MLOAD DUP1 SWAP5 DUP2 SWAP4 PUSH3 0xFF4A73 PUSH1 0xE8 SHL DUP4 MSTORE DUP10 PUSH1 0x4 DUP5 ADD MSTORE DUP9 PUSH1 0x24 DUP5 ADD MSTORE GAS CALL DUP1 ISZERO PUSH2 0x62C JUMPI ISZERO PUSH2 0x1C3E JUMPI PUSH2 0x1CAC SWAP1 PUSH2 0x471F JUMP JUMPDEST PUSH2 0x1CB7 JUMPI DUP3 CODESIZE PUSH2 0x1C3E JUMP JUMPDEST DUP3 DUP1 REVERT JUMPDEST PUSH1 0x40 MLOAD PUSH3 0x461BCD PUSH1 0xE5 SHL DUP2 MSTORE PUSH1 0x20 PUSH1 0x4 DUP3 ADD MSTORE PUSH1 0x24 DUP1 DUP3 ADD MSTORE PUSH32 0x4D61726B65744D616E616765723A204E6F207265736F6C7574696F6E20726561 PUSH1 0x44 DUP3 ADD MSTORE PUSH4 0x18DA1959 PUSH1 0xE2 SHL PUSH1 0x64 DUP3 ADD MSTORE PUSH1 0x84 SWAP1 REVERT JUMPDEST SWAP1 POP PUSH2 0x1D31 SWAP2 SWAP8 POP PUSH1 0x40 RETURNDATASIZE PUSH1 0x40 GT PUSH2 0x1D39 JUMPI JUMPDEST PUSH2 0x1D29 DUP2 DUP4 PUSH2 0x476C JUMP JUMPDEST DUP2 ADD SWAP1 PUSH2 0x4E1A JUMP JUMPDEST SWAP7 SWAP1 CODESIZE PUSH2 0x1C0C JUMP JUMPDEST POP RETURNDATASIZE PUSH2 0x1D1F JUMP JUMPDEST PUSH1 0x40 MLOAD RETURNDATASIZE DUP12 DUP3 RETURNDATACOPY RETURNDATASIZE SWAP1 REVERT JUMPDEST POP CALLVALUE PUSH2 0x31A JUMPI PUSH1 0x20 CALLDATASIZE PUSH1 0x3 NOT ADD SLT PUSH2 0x31A JUMPI PUSH1 0x40 PUSH1 0x20 SWAP2 PUSH1 0x4 CALLDATALOAD DUP2 MSTORE PUSH1 0x14 DUP4 MSTORE KECCAK256 SLOAD PUSH1 0x40 MLOAD SWAP1 DUP2 MSTORE RETURN JUMPDEST POP CALLVALUE PUSH2 0x31A JUMPI DUP1 PUSH1 0x3 NOT CALLDATASIZE ADD SLT PUSH2 0x31A JUMPI PUSH1 0x40 MLOAD PUSH1 0x10 DUP1 SLOAD DUP1 DUP4 MSTORE SWAP1 DUP4 MSTORE PUSH1 0x20 DUP1 DUP4 ADD SWAP4 PUSH32 0x1B6847DC741A1B0CD08D278845F9D819D87B734759AFB55FE2DE5CB82A9AE672 SWAP3 SWAP2 JUMPDEST DUP3 DUP3 LT PUSH2 0x1DE0 JUMPI PUSH2 0x36C DUP6 PUSH2 0x1DD4 DUP2 DUP10 SUB DUP3 PUSH2 0x476C JUMP JUMPDEST PUSH1 0x40 MLOAD SWAP2 DUP3 SWAP2 DUP3 PUSH2 0x45B5 JUMP JUMPDEST DUP4 SLOAD DUP7 MSTORE SWAP5 DUP6 ADD SWAP5 PUSH1 0x1 SWAP4 DUP5 ADD SWAP4 SWAP1 SWAP2 ADD SWAP1 PUSH2 0x1DBD JUMP JUMPDEST POP CALLVALUE PUSH2 0x31A JUMPI PUSH1 0x20 CALLDATASIZE PUSH1 0x3 NOT ADD SLT PUSH2 0x31A JUMPI PUSH1 0x40 PUSH1 0x20 SWAP2 PUSH1 0x4 CALLDATALOAD DUP2 MSTORE PUSH1 0x6 DUP4 MSTORE KECCAK256 SLOAD PUSH1 0x40 MLOAD SWAP1 DUP2 MSTORE RETURN JUMPDEST POP CALLVALUE PUSH2 0x31A JUMPI PUSH1 0x20 CALLDATASIZE PUSH1 0x3 NOT ADD SLT PUSH2 0x31A JUMPI PUSH2 0x1E3B PUSH2 0x48E0 JUMP JUMPDEST PUSH1 0x4 CALLDATALOAD PUSH1 0xF SSTORE DUP1 RETURN JUMPDEST POP CALLVALUE PUSH2 0x31A JUMPI PUSH1 0x40 CALLDATASIZE PUSH1 0x3 NOT ADD SLT PUSH2 0x31A JUMPI PUSH2 0x1E5E PUSH2 0x4497 JUMP JUMPDEST PUSH1 0x1 PUSH1 0x1 PUSH1 0xA0 SHL SUB AND DUP2 MSTORE PUSH1 0x12 PUSH1 0x20 MSTORE PUSH1 0x40 DUP2 KECCAK256 DUP1 SLOAD PUSH1 0x24 CALLDATALOAD SWAP3 SWAP1 DUP4 LT ISZERO PUSH2 0x31A JUMPI PUSH1 0x20 PUSH2 0x1E8C DUP5 DUP5 PUSH2 0x459D JUMP JUMPDEST SWAP1 SLOAD PUSH1 0x40 MLOAD SWAP2 PUSH1 0x3 SHL SHR DUP2 MSTORE RETURN JUMPDEST POP CALLVALUE PUSH2 0x31A JUMPI PUSH1 0x20 CALLDATASIZE PUSH1 0x3 NOT ADD SLT PUSH2 0x31A JUMPI PUSH2 0x1EB4 PUSH2 0x4497 JUMP JUMPDEST PUSH2 0x1EBC PUSH2 0x48E0 JUMP JUMPDEST PUSH1 0x1 DUP1 PUSH1 0xA0 SHL SUB AND PUSH1 0x1 PUSH1 0x1 PUSH1 0x60 SHL SUB PUSH1 0xA0 SHL PUSH1 0xC SLOAD AND OR PUSH1 0xC SSTORE DUP1 RETURN JUMPDEST POP CALLVALUE PUSH2 0x31A JUMPI DUP1 PUSH1 0x3 NOT CALLDATASIZE ADD SLT PUSH2 0x31A JUMPI SLOAD PUSH1 0x40 MLOAD PUSH1 0x1 PUSH1 0x1 PUSH1 0xA0 SHL SUB SWAP1 SWAP2 AND DUP2 MSTORE PUSH1 0x20 SWAP1 RETURN JUMPDEST POP CALLVALUE PUSH2 0x31A JUMPI PUSH1 0x20 CALLDATASIZE PUSH1 0x3 NOT ADD SLT PUSH2 0x31A JUMPI PUSH1 0x4 CALLDATALOAD SWAP1 PUSH1 0x13 SLOAD DUP3 LT ISZERO PUSH2 0x31A JUMPI PUSH1 0x20 PUSH2 0x1E8C DUP4 PUSH2 0x4566 JUMP JUMPDEST POP CALLVALUE PUSH2 0x31A JUMPI PUSH1 0x20 DUP1 PUSH1 0x3 NOT CALLDATASIZE ADD SLT PUSH2 0x637 JUMPI PUSH1 0x4 CALLDATALOAD DUP3 MSTORE PUSH1 0x6 DUP2 MSTORE PUSH1 0x40 DUP3 KECCAK256 SWAP2 PUSH1 0x40 MLOAD DUP1 SWAP4 DUP5 SWAP2 DUP5 DUP3 SLOAD SWAP2 DUP3 DUP2 MSTORE ADD SWAP2 DUP5 MSTORE DUP5 DUP5 KECCAK256 SWAP4 JUMPDEST DUP6 DUP3 DUP3 LT PUSH2 0x1F8F JUMPI POP POP POP PUSH2 0x1F7B SWAP3 POP SUB DUP4 PUSH2 0x476C JUMP JUMPDEST PUSH2 0x36C PUSH1 0x40 MLOAD SWAP3 DUP3 DUP5 SWAP4 DUP5 MSTORE DUP4 ADD SWAP1 PUSH2 0x4444 JUMP JUMPDEST DUP6 SLOAD PUSH1 0x1 PUSH1 0x1 PUSH1 0xA0 SHL SUB AND DUP5 MSTORE PUSH1 0x1 SWAP6 DUP7 ADD SWAP6 DUP9 SWAP6 POP SWAP4 ADD SWAP3 ADD PUSH2 0x1F64 JUMP JUMPDEST POP CALLVALUE PUSH2 0x31A JUMPI PUSH1 0x40 CALLDATASIZE PUSH1 0x3 NOT ADD SLT PUSH2 0x31A JUMPI PUSH1 0x40 PUSH2 0x1FCA PUSH2 0x4481 JUMP JUMPDEST SWAP2 PUSH1 0x4 CALLDATALOAD DUP2 MSTORE PUSH1 0x2 PUSH1 0x20 MSTORE KECCAK256 SWAP1 PUSH1 0x1 DUP1 PUSH1 0xA0 SHL SUB AND PUSH1 0x0 MSTORE PUSH1 0x20 MSTORE PUSH1 0x20 PUSH1 0xFF PUSH1 0x40 PUSH1 0x0 KECCAK256 SLOAD AND PUSH1 0x40 MLOAD SWAP1 ISZERO ISZERO DUP2 MSTORE RETURN JUMPDEST POP CALLVALUE PUSH2 0x31A JUMPI PUSH1 0x20 CALLDATASIZE PUSH1 0x3 NOT ADD SLT PUSH2 0x31A JUMPI PUSH1 0x4 CALLDATALOAD PUSH1 0x15 SLOAD DUP2 LT ISZERO PUSH2 0x637 JUMPI PUSH1 0x20 SWAP1 PUSH1 0x15 PUSH1 0x0 MSTORE PUSH32 0x55F448FDEA98C4D29EB340757EF0A66CD03DBB9538908A6A81D96026B71EC475 ADD SLOAD PUSH1 0x40 MLOAD SWAP1 DUP2 MSTORE RETURN JUMPDEST POP CALLVALUE PUSH2 0x31A JUMPI DUP1 PUSH1 0x3 NOT CALLDATASIZE ADD SLT PUSH2 0x31A JUMPI PUSH1 0xD SLOAD PUSH1 0x40 MLOAD PUSH1 0x1 PUSH1 0x1 PUSH1 0xA0 SHL SUB SWAP1 SWAP2 AND DUP2 MSTORE PUSH1 0x20 SWAP1 RETURN JUMPDEST POP CALLVALUE PUSH2 0x31A JUMPI PUSH1 0x20 CALLDATASIZE PUSH1 0x3 NOT ADD SLT PUSH2 0x31A JUMPI PUSH1 0x4 CALLDATALOAD DUP1 DUP3 MSTORE PUSH1 0x1 PUSH1 0x20 MSTORE PUSH1 0x40 DUP3 KECCAK256 SWAP1 PUSH1 0xFF PUSH1 0xB DUP4 ADD SLOAD AND PUSH1 0x5 DUP2 LT ISZERO PUSH2 0x1954 JUMPI PUSH1 0x1 PUSH2 0x20B4 SWAP2 EQ PUSH2 0x4D2B JUMP JUMPDEST PUSH1 0xA DUP3 ADD SLOAD TIMESTAMP LT PUSH2 0x20E1 JUMPI PUSH2 0x20D3 PUSH1 0xFF PUSH1 0xD PUSH2 0x1564 SWAP5 ADD SLOAD AND ISZERO PUSH2 0x4D88 JUMP JUMPDEST PUSH2 0x20DB PUSH2 0x4DD4 JUMP JUMPDEST SWAP1 PUSH2 0x5126 JUMP JUMPDEST PUSH1 0x40 MLOAD PUSH3 0x461BCD PUSH1 0xE5 SHL DUP2 MSTORE PUSH1 0x20 PUSH1 0x4 DUP3 ADD MSTORE PUSH1 0x2A PUSH1 0x24 DUP3 ADD MSTORE PUSH32 0x4D61726B65744D616E616765723A205265736F6C7574696F6E20706572696F64 PUSH1 0x44 DUP3 ADD MSTORE PUSH10 0x81B9BDD08195B991959 PUSH1 0xB2 SHL PUSH1 0x64 DUP3 ADD MSTORE PUSH1 0x84 SWAP1 REVERT JUMPDEST POP CALLVALUE PUSH2 0x31A JUMPI PUSH1 0x20 CALLDATASIZE PUSH1 0x3 NOT ADD SLT PUSH2 0x31A JUMPI PUSH2 0x2153 PUSH2 0x4497 JUMP JUMPDEST PUSH2 0x215B PUSH2 0x48E0 JUMP JUMPDEST PUSH1 0x1 PUSH1 0x1 PUSH1 0xA0 SHL SUB SWAP1 DUP2 AND SWAP1 DUP2 ISZERO PUSH2 0x2273 JUMPI DUP2 DUP4 MSTORE PUSH1 0x7 PUSH1 0x20 MSTORE PUSH2 0x2185 PUSH1 0xFF PUSH1 0x40 DUP6 KECCAK256 SLOAD AND PUSH2 0x4962 JUMP JUMPDEST DUP2 DUP4 MSTORE PUSH1 0x7 PUSH1 0x20 MSTORE PUSH1 0x40 DUP4 KECCAK256 PUSH1 0xFF NOT DUP2 SLOAD AND SWAP1 SSTORE PUSH1 0x8 PUSH1 0x20 MSTORE PUSH2 0x21AA PUSH1 0x40 DUP5 KECCAK256 PUSH2 0x53F3 JUMP JUMPDEST DUP3 JUMPDEST PUSH1 0x9 DUP1 SLOAD SWAP1 DUP2 DUP4 LT ISZERO PUSH2 0x226B JUMPI DUP4 SWAP2 DUP6 PUSH2 0x21C5 DUP6 PUSH2 0x44E2 JUMP JUMPDEST SWAP5 SWAP1 SLOAD PUSH1 0x3 SWAP6 DUP7 SHL SHR AND EQ PUSH2 0x21E5 JUMPI POP POP POP PUSH2 0x21E0 SWAP1 PUSH2 0x49C6 JUMP JUMPDEST PUSH2 0x21AC JUMP JUMPDEST SWAP2 SWAP5 POP SWAP3 SWAP2 PUSH1 0x0 NOT SWAP2 DUP3 DUP2 ADD SWAP1 DUP2 GT PUSH2 0x1844 JUMPI SWAP1 PUSH2 0x2216 DUP5 PUSH2 0x2209 PUSH2 0x2235 SWAP5 PUSH2 0x44E2 JUMP JUMPDEST SWAP1 SLOAD SWAP1 DUP10 SHL SHR AND SWAP2 PUSH2 0x44E2 JUMP JUMPDEST SWAP1 SWAP2 SWAP1 DUP3 SLOAD SWAP1 PUSH1 0x3 SHL SWAP2 PUSH1 0x1 DUP1 PUSH1 0xA0 SHL SUB DUP1 SWAP2 AND DUP4 SHL SWAP3 SHL NOT AND OR SWAP1 SSTORE JUMP JUMPDEST DUP3 SLOAD DUP1 ISZERO PUSH2 0x2257 JUMPI ADD SWAP3 PUSH2 0x2248 DUP5 PUSH2 0x44E2 JUMP JUMPDEST DUP2 SWAP4 SWAP2 SLOAD SWAP3 SHL SHL NOT AND SWAP1 SSTORE SSTORE DUP1 RETURN JUMPDEST PUSH4 0x4E487B71 PUSH1 0xE0 SHL DUP7 MSTORE PUSH1 0x31 PUSH1 0x4 MSTORE PUSH1 0x24 DUP7 REVERT JUMPDEST POP POP POP POP POP DUP1 RETURN JUMPDEST PUSH1 0x40 MLOAD PUSH3 0x461BCD PUSH1 0xE5 SHL DUP2 MSTORE PUSH1 0x20 PUSH1 0x4 DUP3 ADD MSTORE PUSH1 0x29 PUSH1 0x24 DUP3 ADD MSTORE PUSH32 0x4D61726B65744D616E616765723A2043616E6E6F742072656D6F7665206E6174 PUSH1 0x44 DUP3 ADD MSTORE PUSH9 0x34BB32903A37B5B2B7 PUSH1 0xB9 SHL PUSH1 0x64 DUP3 ADD MSTORE PUSH1 0x84 SWAP1 REVERT JUMPDEST POP CALLVALUE PUSH2 0x31A JUMPI PUSH1 0x20 CALLDATASIZE PUSH1 0x3 NOT ADD SLT PUSH2 0x31A JUMPI PUSH2 0x22E4 PUSH2 0x4497 JUMP JUMPDEST PUSH2 0x22EC PUSH2 0x48E0 JUMP JUMPDEST PUSH1 0x1 DUP1 PUSH1 0xA0 SHL SUB AND PUSH1 0x1 PUSH1 0x1 PUSH1 0x60 SHL SUB PUSH1 0xA0 SHL PUSH1 0xD SLOAD AND OR PUSH1 0xD SSTORE DUP1 RETURN JUMPDEST POP CALLVALUE PUSH2 0x31A JUMPI PUSH1 0x40 CALLDATASIZE PUSH1 0x3 NOT ADD SLT PUSH2 0x31A JUMPI PUSH2 0x2324 PUSH2 0x4497 JUMP JUMPDEST PUSH1 0x24 PUSH8 0xFFFFFFFFFFFFFFFF DUP2 CALLDATALOAD DUP2 DUP2 GT PUSH2 0x25C0 JUMPI PUSH2 0x2346 SWAP1 CALLDATASIZE SWAP1 PUSH1 0x4 ADD PUSH2 0x47AA JUMP JUMPDEST PUSH2 0x234E PUSH2 0x48E0 JUMP JUMPDEST PUSH1 0x1 PUSH1 0x1 PUSH1 0xA0 SHL SUB DUP5 AND SWAP2 DUP3 ISZERO PUSH2 0x256F JUMPI DUP2 MLOAD ISZERO PUSH2 0x251F JUMPI DUP3 DUP7 MSTORE PUSH1 0x20 SWAP3 PUSH1 0x7 DUP5 MSTORE PUSH1 0xFF PUSH1 0x40 DUP9 KECCAK256 SLOAD AND PUSH2 0x24CC JUMPI DUP7 MSTORE PUSH1 0x7 DUP4 MSTORE PUSH1 0x40 DUP7 KECCAK256 SWAP3 PUSH1 0x1 SWAP4 DUP5 PUSH1 0xFF NOT DUP3 SLOAD AND OR SWAP1 SSTORE PUSH1 0x8 DUP2 MSTORE PUSH1 0x40 DUP8 KECCAK256 SWAP3 DUP1 MLOAD SWAP3 DUP4 GT PUSH2 0x24B9 JUMPI SWAP1 DUP3 SWAP2 PUSH2 0x23B3 DUP6 SLOAD PUSH2 0x47F1 JUMP JUMPDEST PUSH1 0x1F DUP2 GT PUSH2 0x248B JUMPI JUMPDEST POP DUP2 PUSH1 0x1F DUP5 GT PUSH1 0x1 EQ PUSH2 0x2428 JUMPI POP DUP9 SWAP3 PUSH2 0x241D JUMPI JUMPDEST POP POP PUSH1 0x0 NOT PUSH1 0x3 DUP4 SWAP1 SHL SHR NOT AND SWAP1 DUP4 SHL OR SWAP1 SSTORE JUMPDEST PUSH1 0x9 SLOAD SWAP2 PUSH1 0x1 PUSH1 0x40 SHL DUP4 LT ISZERO PUSH2 0x2409 JUMPI POP DUP2 PUSH2 0x2216 SWAP2 PUSH2 0x1564 SWAP5 SWAP4 ADD PUSH1 0x9 SSTORE PUSH2 0x44E2 JUMP JUMPDEST PUSH4 0x4E487B71 PUSH1 0xE0 SHL PUSH1 0x0 SWAP1 DUP2 MSTORE PUSH1 0x41 PUSH1 0x4 MSTORE REVERT JUMPDEST ADD MLOAD SWAP1 POP CODESIZE DUP1 PUSH2 0x23D1 JUMP JUMPDEST SWAP2 SWAP1 DUP7 SWAP5 POP PUSH1 0x1F NOT DUP5 AND DUP7 DUP12 MSTORE DUP4 DUP12 KECCAK256 SWAP4 DUP12 SWAP1 JUMPDEST DUP3 DUP3 LT PUSH2 0x2472 JUMPI POP POP DUP5 GT PUSH2 0x2459 JUMPI JUMPDEST POP POP POP DUP2 SHL ADD SWAP1 SSTORE PUSH2 0x23E5 JUMP JUMPDEST ADD MLOAD PUSH1 0x0 NOT PUSH1 0xF8 DUP5 PUSH1 0x3 SHL AND SHR NOT AND SWAP1 SSTORE CODESIZE DUP1 DUP1 PUSH2 0x244C JUMP JUMPDEST DUP5 DUP5 ADD MLOAD DUP7 SSTORE DUP10 SWAP8 SWAP1 SWAP6 ADD SWAP5 SWAP4 DUP5 ADD SWAP4 SWAP1 DUP2 ADD SWAP1 PUSH2 0x243C JUMP JUMPDEST PUSH2 0x24B3 SWAP1 DUP7 DUP12 MSTORE DUP4 DUP12 KECCAK256 PUSH1 0x1F DUP7 ADD PUSH1 0x5 SHR DUP2 ADD SWAP2 DUP6 DUP8 LT PUSH2 0xFCE JUMPI PUSH1 0x1F ADD PUSH1 0x5 SHR ADD SWAP1 PUSH2 0x49E1 JUMP JUMPDEST CODESIZE PUSH2 0x23BC JUMP JUMPDEST PUSH4 0x4E487B71 PUSH1 0xE0 SHL DUP9 MSTORE PUSH1 0x41 PUSH1 0x4 MSTORE DUP6 DUP9 REVERT JUMPDEST PUSH1 0x40 MLOAD PUSH3 0x461BCD PUSH1 0xE5 SHL DUP2 MSTORE PUSH1 0x4 DUP2 ADD DUP6 SWAP1 MSTORE PUSH1 0x26 DUP2 DUP8 ADD MSTORE PUSH32 0x4D61726B65744D616E616765723A20546F6B656E20616C726561647920737570 PUSH1 0x44 DUP3 ADD MSTORE PUSH6 0x1C1BDC9D1959 PUSH1 0xD2 SHL PUSH1 0x64 DUP3 ADD MSTORE PUSH1 0x84 SWAP1 REVERT JUMPDEST PUSH1 0x40 MLOAD PUSH3 0x461BCD PUSH1 0xE5 SHL DUP2 MSTORE PUSH1 0x20 PUSH1 0x4 DUP3 ADD MSTORE PUSH1 0x23 DUP2 DUP7 ADD MSTORE PUSH32 0x4D61726B65744D616E616765723A20496E76616C696420746F6B656E2073796D PUSH1 0x44 DUP3 ADD MSTORE PUSH3 0x189BDB PUSH1 0xEA SHL PUSH1 0x64 DUP3 ADD MSTORE PUSH1 0x84 SWAP1 REVERT JUMPDEST PUSH1 0x40 MLOAD PUSH3 0x461BCD PUSH1 0xE5 SHL DUP2 MSTORE PUSH1 0x20 PUSH1 0x4 DUP3 ADD MSTORE DUP1 DUP6 ADD DUP6 SWAP1 MSTORE PUSH32 0x4D61726B65744D616E616765723A20496E76616C696420746F6B656E20616464 PUSH1 0x44 DUP3 ADD MSTORE PUSH4 0x72657373 PUSH1 0xE0 SHL PUSH1 0x64 DUP3 ADD MSTORE PUSH1 0x84 SWAP1 REVERT JUMPDEST DUP5 DUP1 REVERT JUMPDEST POP CALLVALUE PUSH2 0x31A JUMPI DUP1 PUSH1 0x3 NOT CALLDATASIZE ADD SLT PUSH2 0x31A JUMPI PUSH2 0x25DD PUSH2 0x48E0 JUMP JUMPDEST PUSH1 0x0 DUP1 SLOAD PUSH1 0x1 PUSH1 0x1 PUSH1 0xA0 SHL SUB NOT DUP2 AND DUP3 SSTORE PUSH1 0x1 PUSH1 0x1 PUSH1 0xA0 SHL SUB AND PUSH32 0x8BE0079C531659141344CD1FD0A4F28419497F9722A3DAAFE3B4186F6B6457E0 DUP3 DUP1 LOG3 DUP1 RETURN JUMPDEST POP CALLVALUE PUSH2 0x31A JUMPI PUSH1 0x60 CALLDATASIZE PUSH1 0x3 NOT ADD SLT PUSH2 0x31A JUMPI PUSH1 0x4 CALLDATALOAD PUSH1 0x24 CALLDATALOAD SWAP1 PUSH1 0x44 CALLDATALOAD DUP2 DUP5 MSTORE PUSH1 0x20 PUSH1 0x1 DUP2 MSTORE PUSH1 0x40 DUP6 KECCAK256 PUSH1 0xFF PUSH1 0xB DUP3 ADD SLOAD AND PUSH1 0x5 DUP2 LT ISZERO PUSH2 0x285F JUMPI PUSH2 0x2662 SWAP1 ISZERO PUSH2 0x4B68 JUMP JUMPDEST PUSH2 0x2671 PUSH1 0x9 DUP3 ADD SLOAD TIMESTAMP LT PUSH2 0x4BB3 JUMP JUMPDEST DUP5 ISZERO ISZERO DUP1 PUSH2 0x2851 JUMPI JUMPDEST PUSH2 0x2683 SWAP1 PUSH2 0x4C0B JUMP JUMPDEST PUSH1 0x4 DUP2 ADD DUP1 SLOAD SWAP1 SWAP2 PUSH1 0x1 PUSH1 0x1 PUSH1 0xA0 SHL SUB SWAP2 DUP3 AND SWAP1 DUP2 ISZERO PUSH2 0x27F1 JUMPI DUP6 DUP10 SWAP5 SWAP4 SWAP3 PUSH2 0x26B5 PUSH1 0x5 PUSH2 0x26C2 SWAP5 ADD SLOAD DUP4 LT ISZERO PUSH2 0x4C57 JUMP JUMPDEST DUP4 PUSH1 0xB SLOAD AND SWAP1 CALLER SWAP1 PUSH2 0x4AAB JUMP JUMPDEST DUP6 DUP4 MSTORE PUSH1 0x2 DUP5 MSTORE PUSH1 0x40 DUP4 KECCAK256 CALLER PUSH1 0x0 MSTORE DUP5 MSTORE PUSH1 0xFF PUSH1 0x40 PUSH1 0x0 KECCAK256 SLOAD AND ISZERO PUSH2 0x27C4 JUMPI JUMPDEST DUP6 DUP4 MSTORE PUSH1 0x2 DUP5 MSTORE PUSH1 0x40 DUP4 KECCAK256 CALLER PUSH1 0x0 MSTORE DUP5 MSTORE PUSH1 0x40 PUSH1 0x0 KECCAK256 PUSH1 0x1 PUSH1 0xFF NOT DUP3 SLOAD AND OR SWAP1 SSTORE DUP6 DUP4 MSTORE PUSH1 0x4 DUP5 MSTORE PUSH1 0x40 DUP4 KECCAK256 CALLER PUSH1 0x0 MSTORE DUP5 MSTORE DUP7 PUSH1 0x40 PUSH1 0x0 KECCAK256 SSTORE DUP1 PUSH1 0xB SLOAD AND SWAP2 SLOAD AND SWAP1 DUP1 EXTCODESIZE ISZERO PUSH2 0x1CB7 JUMPI PUSH1 0x40 MLOAD PUSH4 0x38051807 PUSH1 0xE2 SHL DUP2 MSTORE PUSH1 0x4 DUP2 ADD DUP8 SWAP1 MSTORE CALLER PUSH1 0x24 DUP3 ADD MSTORE PUSH1 0x1 PUSH1 0x1 PUSH1 0xA0 SHL SUB SWAP3 SWAP1 SWAP3 AND PUSH1 0x44 DUP4 ADD MSTORE PUSH1 0x64 DUP3 ADD DUP6 SWAP1 MSTORE PUSH1 0x84 DUP3 ADD DUP8 SWAP1 MSTORE DUP3 SWAP1 DUP3 SWAP1 PUSH1 0xA4 SWAP1 DUP3 SWAP1 DUP5 SWAP1 GAS CALL DUP1 ISZERO PUSH2 0x62C JUMPI PUSH2 0x27B0 JUMPI JUMPDEST POP POP PUSH1 0x40 MLOAD SWAP4 DUP5 MSTORE DUP4 ADD MSTORE PUSH32 0x1B8A9031CB9351278D70A994F81536E9E08C91162E64F92B2FE4766FB7A891B4 PUSH1 0x40 CALLER SWAP4 LOG3 DUP1 RETURN JUMPDEST PUSH2 0x27B9 SWAP1 PUSH2 0x471F JUMP JUMPDEST PUSH2 0x25C0 JUMPI DUP5 CODESIZE PUSH2 0x277C JUMP JUMPDEST DUP6 DUP4 MSTORE PUSH1 0x5 DUP5 MSTORE PUSH2 0x27D8 CALLER PUSH1 0x40 DUP6 KECCAK256 PUSH2 0x4CAE JUMP JUMPDEST CALLER DUP4 MSTORE PUSH1 0x12 DUP5 MSTORE PUSH2 0x27EC DUP7 PUSH1 0x40 DUP6 KECCAK256 PUSH2 0x49F8 JUMP JUMPDEST PUSH2 0x26E2 JUMP JUMPDEST PUSH1 0x40 MLOAD PUSH3 0x461BCD PUSH1 0xE5 SHL DUP2 MSTORE PUSH1 0x4 DUP2 ADD DUP7 SWAP1 MSTORE PUSH1 0x32 PUSH1 0x24 DUP3 ADD MSTORE PUSH32 0x4D61726B65744D616E616765723A2054686973206D61726B6574207573657320 PUSH1 0x44 DUP3 ADD MSTORE PUSH18 0x141154154B081D5CD9481C1B1858D950995D PUSH1 0x72 SHL PUSH1 0x64 DUP3 ADD MSTORE PUSH1 0x84 SWAP1 REVERT JUMPDEST POP PUSH1 0x3 DUP2 ADD SLOAD DUP6 GT ISZERO PUSH2 0x267A JUMP JUMPDEST PUSH4 0x4E487B71 PUSH1 0xE0 SHL DUP8 MSTORE PUSH1 0x21 PUSH1 0x4 MSTORE PUSH1 0x24 DUP8 REVERT JUMPDEST POP CALLVALUE PUSH2 0x31A JUMPI DUP1 PUSH1 0x3 NOT CALLDATASIZE ADD SLT PUSH2 0x31A JUMPI PUSH1 0x40 MLOAD PUSH1 0x15 DUP1 SLOAD DUP1 DUP4 MSTORE SWAP1 DUP4 MSTORE PUSH1 0x20 DUP1 DUP4 ADD SWAP4 PUSH32 0x55F448FDEA98C4D29EB340757EF0A66CD03DBB9538908A6A81D96026B71EC475 SWAP3 SWAP2 JUMPDEST DUP3 DUP3 LT PUSH2 0x28D2 JUMPI PUSH2 0x36C DUP6 PUSH2 0x1DD4 DUP2 DUP10 SUB DUP3 PUSH2 0x476C JUMP JUMPDEST DUP4 SLOAD DUP7 MSTORE SWAP5 DUP6 ADD SWAP5 PUSH1 0x1 SWAP4 DUP5 ADD SWAP4 SWAP1 SWAP2 ADD SWAP1 PUSH2 0x28BB JUMP JUMPDEST POP CALLVALUE PUSH2 0x31A JUMPI PUSH1 0x20 CALLDATASIZE PUSH1 0x3 NOT ADD SLT PUSH2 0x31A JUMPI PUSH1 0x20 SWAP1 PUSH1 0xFF SWAP1 PUSH1 0x40 SWAP1 PUSH1 0x1 PUSH1 0x1 PUSH1 0xA0 SHL SUB PUSH2 0x2914 PUSH2 0x4497 JUMP JUMPDEST AND DUP2 MSTORE PUSH1 0x7 DUP5 MSTORE KECCAK256 SLOAD AND PUSH1 0x40 MLOAD SWAP1 ISZERO ISZERO DUP2 MSTORE RETURN JUMPDEST POP CALLVALUE PUSH2 0x31A JUMPI PUSH1 0x20 DUP1 PUSH1 0x3 NOT CALLDATASIZE ADD SLT PUSH2 0x637 JUMPI PUSH1 0x4 CALLDATALOAD DUP1 DUP4 MSTORE PUSH1 0x1 DUP3 MSTORE PUSH1 0x40 DUP4 KECCAK256 SWAP2 PUSH1 0xFF PUSH1 0xB DUP5 ADD SLOAD AND PUSH1 0x5 DUP2 LT ISZERO PUSH2 0xF0C JUMPI PUSH1 0x2 PUSH2 0x2967 SWAP2 EQ PUSH2 0x50CF JUMP JUMPDEST PUSH1 0xC DUP4 ADD SLOAD DUP1 ISZERO PUSH2 0x2EAE JUMPI DUP3 DUP6 MSTORE PUSH1 0x2 DUP3 MSTORE PUSH1 0x40 DUP6 KECCAK256 CALLER PUSH1 0x0 MSTORE DUP3 MSTORE PUSH1 0xFF PUSH1 0x40 PUSH1 0x0 KECCAK256 SLOAD AND ISZERO PUSH2 0x2E69 JUMPI DUP3 DUP6 MSTORE PUSH1 0x4 DUP3 MSTORE PUSH1 0x40 DUP6 KECCAK256 CALLER PUSH1 0x0 MSTORE DUP3 MSTORE DUP1 PUSH1 0x40 PUSH1 0x0 KECCAK256 SLOAD SUB PUSH2 0x2E26 JUMPI PUSH1 0xB SLOAD PUSH1 0x40 MLOAD PUSH4 0x7C7A72D PUSH1 0xE0 SHL DUP2 MSTORE PUSH1 0x4 DUP2 ADD DUP6 SWAP1 MSTORE CALLER PUSH1 0x24 DUP3 ADD MSTORE PUSH1 0x1 PUSH1 0x1 PUSH1 0xA0 SHL SUB SWAP2 DUP3 AND SWAP1 DUP5 DUP2 PUSH1 0x44 DUP2 DUP6 GAS STATICCALL SWAP1 DUP2 ISZERO PUSH2 0x2E1B JUMPI DUP9 SWAP2 PUSH2 0x2DE2 JUMPI JUMPDEST POP PUSH2 0x2D9D JUMPI PUSH1 0x4 DUP7 DUP2 ADD SLOAD PUSH1 0x40 MLOAD PUSH4 0x553B7CBB PUSH1 0xE0 SHL DUP2 MSTORE SWAP2 DUP3 ADD DUP8 SWAP1 MSTORE CALLER PUSH1 0x24 DUP4 ADD MSTORE DUP4 AND PUSH1 0x1 PUSH1 0x1 PUSH1 0xA0 SHL SUB DUP2 AND PUSH1 0x44 DUP4 ADD MSTORE SWAP3 DUP6 DUP3 PUSH1 0x64 DUP2 DUP7 GAS STATICCALL SWAP1 DUP2 ISZERO PUSH2 0x1D40 JUMPI DUP8 SWAP3 DUP11 SWAP3 PUSH2 0x2D6B JUMPI JUMPDEST POP PUSH1 0x40 MLOAD PUSH4 0xDC4CE349 PUSH1 0xE0 SHL DUP1 DUP3 MSTORE PUSH1 0x4 DUP3 ADD SWAP5 SWAP1 SWAP5 MSTORE PUSH1 0x24 DUP2 ADD DUP8 SWAP1 MSTORE PUSH1 0x1 PUSH1 0x1 PUSH1 0xA0 SHL SUB DUP7 AND PUSH1 0x44 DUP3 ADD MSTORE SWAP6 DUP8 DUP8 PUSH1 0x64 DUP2 DUP9 GAS STATICCALL SWAP7 DUP8 ISZERO PUSH2 0x2D60 JUMPI DUP12 SWAP8 PUSH2 0x2D31 JUMPI JUMPDEST POP PUSH1 0x3 DUP11 ADD SLOAD DUP12 SWAP5 SWAP1 SWAP2 PUSH1 0x1 DUP7 DUP10 DUP13 DUP15 JUMPDEST DUP8 DUP6 GT ISZERO PUSH2 0x2C8D JUMPI POP POP POP POP POP POP POP POP DUP3 ISZERO SWAP2 PUSH2 0x1F4 SWAP3 DUP5 DUP5 DUP2 MUL DIV DUP5 EQ DUP2 OR ISZERO PUSH2 0x2C79 JUMPI PUSH2 0x2328 DUP1 DUP7 MUL SWAP6 DUP7 DIV EQ OR ISZERO PUSH2 0x2C65 JUMPI PUSH2 0x2710 DUP1 SWAP5 DIV SWAP1 DUP2 DUP2 MUL SWAP2 DUP2 DUP4 DIV EQ DUP2 ISZERO OR ISZERO PUSH2 0x2C4F JUMPI DUP8 ISZERO PUSH2 0x2C39 JUMPI DUP12 SWAP8 PUSH2 0x2AEF SWAP3 DIV SWAP1 PUSH2 0x49B9 JUMP JUMPDEST SWAP9 SLOAD AND CALLER EQ PUSH2 0x2B90 JUMPI JUMPDEST POP POP DUP1 EXTCODESIZE ISZERO PUSH2 0x1CB7 JUMPI PUSH1 0x40 MLOAD PUSH4 0x2F0041ED PUSH1 0xE1 SHL DUP2 MSTORE PUSH1 0x4 DUP2 ADD DUP7 SWAP1 MSTORE CALLER PUSH1 0x24 DUP3 ADD MSTORE PUSH1 0x1 PUSH1 0x1 PUSH1 0xA0 SHL SUB SWAP3 SWAP1 SWAP3 AND PUSH1 0x44 DUP4 ADD MSTORE PUSH1 0x64 DUP3 ADD DUP7 SWAP1 MSTORE DUP3 SWAP1 DUP3 SWAP1 PUSH1 0x84 SWAP1 DUP3 SWAP1 DUP5 SWAP1 GAS CALL DUP1 ISZERO PUSH2 0x62C JUMPI PUSH2 0x2B7C JUMPI JUMPDEST POP POP PUSH32 0x5380CF6FE903B40C6D5A9E0DFBCA2F3A423F0A21520B4D5947ED5169BDBA946D SWAP1 PUSH1 0x40 MLOAD SWAP4 DUP5 MSTORE CALLER SWAP4 LOG3 DUP1 RETURN JUMPDEST PUSH2 0x2B85 SWAP1 PUSH2 0x471F JUMP JUMPDEST PUSH2 0x628 JUMPI DUP4 CODESIZE PUSH2 0x2B4C JUMP JUMPDEST PUSH1 0x40 MLOAD PUSH4 0x3D1E7BA1 PUSH1 0xE1 SHL DUP2 MSTORE PUSH1 0x4 DUP2 ADD DUP9 SWAP1 MSTORE PUSH1 0x1 PUSH1 0x1 PUSH1 0xA0 SHL SUB DUP6 AND PUSH1 0x24 DUP3 ADD MSTORE SWAP3 SWAP8 SWAP4 SWAP5 POP SWAP1 SWAP2 DUP6 DUP2 PUSH1 0x44 DUP2 DUP12 GAS STATICCALL SWAP1 DUP2 ISZERO PUSH2 0x1D40 JUMPI DUP10 SWAP2 PUSH2 0x2C0C JUMPI JUMPDEST POP DUP2 DUP2 MUL SWAP2 DUP2 DUP4 DIV EQ SWAP1 ISZERO OR ISZERO PUSH2 0x2BF8 JUMPI SWAP2 PUSH2 0x2BF0 SWAP2 DUP9 SWAP5 SWAP4 DIV SWAP1 PUSH2 0x49B9 JUMP JUMPDEST SWAP5 CODESIZE DUP1 PUSH2 0x2AF9 JUMP JUMPDEST PUSH4 0x4E487B71 PUSH1 0xE0 SHL DUP9 MSTORE PUSH1 0x11 PUSH1 0x4 MSTORE PUSH1 0x24 DUP9 REVERT JUMPDEST SWAP1 POP DUP6 DUP2 DUP2 RETURNDATASIZE DUP4 GT PUSH2 0x2C32 JUMPI JUMPDEST PUSH2 0x2C23 DUP2 DUP4 PUSH2 0x476C JUMP JUMPDEST DUP2 ADD SUB SLT PUSH2 0x845 JUMPI MLOAD CODESIZE PUSH2 0x2BD0 JUMP JUMPDEST POP RETURNDATASIZE PUSH2 0x2C19 JUMP JUMPDEST PUSH4 0x4E487B71 PUSH1 0xE0 SHL PUSH1 0x0 MSTORE PUSH1 0x12 PUSH1 0x4 MSTORE PUSH1 0x24 PUSH1 0x0 REVERT JUMPDEST PUSH4 0x4E487B71 PUSH1 0xE0 SHL PUSH1 0x0 MSTORE PUSH1 0x11 PUSH1 0x4 MSTORE PUSH1 0x24 PUSH1 0x0 REVERT JUMPDEST PUSH4 0x4E487B71 PUSH1 0xE0 SHL DUP12 MSTORE PUSH1 0x11 PUSH1 0x4 MSTORE PUSH1 0x24 DUP12 REVERT JUMPDEST PUSH4 0x4E487B71 PUSH1 0xE0 SHL DUP13 MSTORE PUSH1 0x11 PUSH1 0x4 MSTORE PUSH1 0x24 DUP13 REVERT JUMPDEST DUP6 DUP6 SUB PUSH2 0x2CAB JUMPI JUMPDEST POP POP POP POP PUSH2 0x2CA2 SWAP1 PUSH2 0x49C6 JUMP JUMPDEST DUP14 DUP10 DUP13 DUP15 PUSH2 0x2A90 JUMP JUMPDEST PUSH1 0x40 MLOAD DUP8 DUP2 MSTORE PUSH1 0x4 DUP2 ADD SWAP2 SWAP1 SWAP2 MSTORE PUSH1 0x24 DUP2 ADD DUP6 SWAP1 MSTORE PUSH1 0x1 PUSH1 0x1 PUSH1 0xA0 SHL SUB SWAP3 SWAP1 SWAP3 AND PUSH1 0x44 DUP4 ADD MSTORE SWAP3 SWAP9 SWAP3 DUP2 PUSH1 0x64 DUP2 DUP14 GAS STATICCALL SWAP2 DUP3 ISZERO PUSH2 0x852 JUMPI SWAP2 PUSH2 0x2D02 JUMPI JUMPDEST POP PUSH2 0x2CF6 SWAP1 PUSH2 0x2CA2 SWAP3 PUSH2 0x49B9 JUMP JUMPDEST SWAP7 SWAP1 POP DUP14 DUP10 DUP13 DUP15 PUSH2 0x2C95 JUMP JUMPDEST SWAP1 POP DUP12 DUP2 DUP2 RETURNDATASIZE DUP4 GT PUSH2 0x2D2A JUMPI JUMPDEST PUSH2 0x2D19 DUP2 DUP4 PUSH2 0x476C JUMP JUMPDEST DUP2 ADD SUB SLT PUSH2 0x845 JUMPI MLOAD PUSH2 0x2CA2 PUSH2 0x2CE8 JUMP JUMPDEST POP RETURNDATASIZE PUSH2 0x2D0F JUMP JUMPDEST SWAP1 SWAP7 POP DUP8 DUP2 DUP2 RETURNDATASIZE DUP4 GT PUSH2 0x2D59 JUMPI JUMPDEST PUSH2 0x2D49 DUP2 DUP4 PUSH2 0x476C JUMP JUMPDEST DUP2 ADD SUB SLT PUSH2 0x845 JUMPI MLOAD SWAP6 CODESIZE PUSH2 0x2A7F JUMP JUMPDEST POP RETURNDATASIZE PUSH2 0x2D3F JUMP JUMPDEST PUSH1 0x40 MLOAD RETURNDATASIZE DUP14 DUP3 RETURNDATACOPY RETURNDATASIZE SWAP1 REVERT JUMPDEST SWAP3 POP SWAP1 POP DUP6 DUP3 DUP2 RETURNDATASIZE DUP2 GT PUSH2 0x2D96 JUMPI JUMPDEST PUSH2 0x2D84 DUP2 DUP4 PUSH2 0x476C JUMP JUMPDEST DUP2 ADD SUB SLT PUSH2 0x845 JUMPI DUP7 SWAP2 MLOAD SWAP1 CODESIZE PUSH2 0x2A3B JUMP JUMPDEST POP RETURNDATASIZE PUSH2 0x2D7A JUMP JUMPDEST PUSH1 0x40 MLOAD PUSH3 0x461BCD PUSH1 0xE5 SHL DUP2 MSTORE PUSH1 0x4 DUP2 ADD DUP6 SWAP1 MSTORE PUSH1 0x1E PUSH1 0x24 DUP3 ADD MSTORE PUSH32 0x4D61726B65744D616E616765723A20416C726561647920636C61696D65640000 PUSH1 0x44 DUP3 ADD MSTORE PUSH1 0x64 SWAP1 REVERT JUMPDEST SWAP1 POP DUP5 DUP2 DUP2 RETURNDATASIZE DUP4 GT PUSH2 0x2E14 JUMPI JUMPDEST PUSH2 0x2DF9 DUP2 DUP4 PUSH2 0x476C JUMP JUMPDEST DUP2 ADD SUB SLT PUSH2 0x2E10 JUMPI PUSH2 0x2E0A SWAP1 PUSH2 0x4E0D JUMP JUMPDEST CODESIZE PUSH2 0x29ED JUMP JUMPDEST DUP8 DUP1 REVERT JUMPDEST POP RETURNDATASIZE PUSH2 0x2DEF JUMP JUMPDEST PUSH1 0x40 MLOAD RETURNDATASIZE DUP11 DUP3 RETURNDATACOPY RETURNDATASIZE SWAP1 REVERT JUMPDEST PUSH1 0x64 DUP3 PUSH1 0x40 MLOAD SWAP1 PUSH3 0x461BCD PUSH1 0xE5 SHL DUP3 MSTORE DUP1 PUSH1 0x4 DUP4 ADD MSTORE PUSH1 0x24 DUP3 ADD MSTORE PUSH32 0x4D61726B65744D616E616765723A204E6F7420612077696E6E696E6720626574 PUSH1 0x44 DUP3 ADD MSTORE REVERT JUMPDEST PUSH1 0x40 MLOAD PUSH3 0x461BCD PUSH1 0xE5 SHL DUP2 MSTORE PUSH1 0x4 DUP2 ADD DUP4 SWAP1 MSTORE PUSH1 0x1C PUSH1 0x24 DUP3 ADD MSTORE PUSH32 0x4D61726B65744D616E616765723A204E6F2062657420706C6163656400000000 PUSH1 0x44 DUP3 ADD MSTORE PUSH1 0x64 SWAP1 REVERT JUMPDEST PUSH1 0x64 DUP3 PUSH1 0x40 MLOAD SWAP1 PUSH3 0x461BCD PUSH1 0xE5 SHL DUP3 MSTORE DUP1 PUSH1 0x4 DUP4 ADD MSTORE PUSH1 0x24 DUP3 ADD MSTORE PUSH32 0x4D61726B65744D616E616765723A204E6F2077696E6E696E67206F7074696F6E PUSH1 0x44 DUP3 ADD MSTORE REVERT JUMPDEST POP CALLVALUE PUSH2 0x31A JUMPI DUP1 PUSH1 0x3 NOT CALLDATASIZE ADD SLT PUSH2 0x31A JUMPI PUSH1 0x40 MLOAD PUSH1 0x13 DUP1 SLOAD DUP1 DUP4 MSTORE SWAP1 DUP4 MSTORE PUSH1 0x20 DUP1 DUP4 ADD SWAP4 PUSH32 0x66DE8FFDA797E3DE9C05E8FC57B3BF0EC28A930D40B0D285D93C06501CF6A090 SWAP3 SWAP2 JUMPDEST DUP3 DUP3 LT PUSH2 0x2F50 JUMPI PUSH2 0x36C DUP6 PUSH2 0x1DD4 DUP2 DUP10 SUB DUP3 PUSH2 0x476C JUMP JUMPDEST DUP4 SLOAD DUP7 MSTORE SWAP5 DUP6 ADD SWAP5 PUSH1 0x1 SWAP4 DUP5 ADD SWAP4 SWAP1 SWAP2 ADD SWAP1 PUSH2 0x2F39 JUMP JUMPDEST POP CALLVALUE PUSH2 0x31A JUMPI DUP1 PUSH1 0x3 NOT CALLDATASIZE ADD SLT PUSH2 0x31A JUMPI PUSH1 0xB SLOAD PUSH1 0x40 MLOAD PUSH1 0x1 PUSH1 0x1 PUSH1 0xA0 SHL SUB SWAP1 SWAP2 AND DUP2 MSTORE PUSH1 0x20 SWAP1 RETURN JUMPDEST POP CALLVALUE PUSH2 0x31A JUMPI PUSH2 0x1564 PUSH2 0x2FA2 CALLDATASIZE PUSH2 0x4709 JUMP JUMPDEST SWAP1 PUSH2 0x4E37 JUMP JUMPDEST POP CALLVALUE PUSH2 0x31A JUMPI DUP1 PUSH1 0x3 NOT CALLDATASIZE ADD SLT PUSH2 0x31A JUMPI PUSH1 0x20 PUSH1 0x10 SLOAD PUSH1 0x40 MLOAD SWAP1 DUP2 MSTORE RETURN JUMPDEST POP CALLVALUE PUSH2 0x31A JUMPI PUSH1 0x20 DUP1 PUSH1 0x3 NOT CALLDATASIZE ADD SLT PUSH2 0x637 JUMPI PUSH1 0x4 CALLDATALOAD DUP1 DUP4 MSTORE PUSH1 0x1 DUP3 MSTORE PUSH1 0x40 DUP4 KECCAK256 SWAP2 PUSH1 0xFF PUSH1 0xB DUP5 ADD SLOAD AND PUSH1 0x5 DUP2 LT ISZERO PUSH2 0xF0C JUMPI PUSH1 0x3 SUB PUSH2 0x32DA JUMPI DUP2 DUP5 MSTORE PUSH1 0x2 DUP2 MSTORE PUSH1 0x40 DUP5 KECCAK256 CALLER PUSH1 0x0 MSTORE DUP2 MSTORE PUSH1 0xFF PUSH1 0x40 PUSH1 0x0 KECCAK256 SLOAD AND DUP1 ISZERO PUSH2 0x32BA JUMPI JUMPDEST ISZERO PUSH2 0x326C JUMPI DUP4 SWAP3 DUP3 DUP6 MSTORE PUSH1 0x2 DUP3 MSTORE PUSH1 0x40 DUP6 KECCAK256 CALLER PUSH1 0x0 MSTORE DUP3 MSTORE PUSH1 0xFF PUSH1 0x40 PUSH1 0x0 KECCAK256 SLOAD AND PUSH2 0x31BF JUMPI JUMPDEST DUP3 DUP6 MSTORE PUSH1 0x3 DUP3 MSTORE PUSH1 0x40 DUP6 KECCAK256 CALLER PUSH1 0x0 MSTORE DUP3 MSTORE PUSH1 0xFF PUSH1 0x40 PUSH1 0x0 KECCAK256 SLOAD AND PUSH2 0x3103 JUMPI JUMPDEST DUP4 ISZERO PUSH2 0x30B3 JUMPI PUSH1 0x4 ADD SLOAD PUSH32 0xF3F402280EF0A7905E124AA621B65EAEB2725C343E8B36D398ED78C29DAF285C SWAP2 SWAP1 PUSH2 0x30A7 SWAP1 PUSH1 0x1 PUSH1 0x1 PUSH1 0xA0 SHL SUB AND DUP6 CALLER PUSH2 0x5338 JUMP JUMPDEST PUSH1 0x40 MLOAD SWAP4 DUP5 MSTORE CALLER SWAP4 LOG3 DUP1 RETURN JUMPDEST PUSH1 0x40 MLOAD PUSH3 0x461BCD PUSH1 0xE5 SHL DUP2 MSTORE PUSH1 0x4 DUP2 ADD DUP4 SWAP1 MSTORE PUSH1 0x22 PUSH1 0x24 DUP3 ADD MSTORE PUSH32 0x4D61726B65744D616E616765723A204E6F20726566756E6420617661696C6162 PUSH1 0x44 DUP3 ADD MSTORE PUSH2 0x6C65 PUSH1 0xF0 SHL PUSH1 0x64 DUP3 ADD MSTORE PUSH1 0x84 SWAP1 REVERT JUMPDEST PUSH1 0xB SLOAD PUSH1 0x4 DUP3 DUP2 ADD SLOAD PUSH1 0x40 MLOAD PUSH4 0x256BA741 PUSH1 0xE0 SHL DUP2 MSTORE SWAP2 DUP3 ADD DUP7 SWAP1 MSTORE CALLER PUSH1 0x24 DUP4 ADD MSTORE PUSH1 0x1 PUSH1 0x1 PUSH1 0xA0 SHL SUB SWAP1 DUP2 AND PUSH1 0x44 DUP4 ADD MSTORE SWAP3 SWAP6 SWAP1 SWAP3 SWAP1 SWAP2 DUP5 SWAP2 DUP5 SWAP2 PUSH1 0x64 SWAP2 DUP4 SWAP2 AND GAS STATICCALL SWAP1 DUP2 ISZERO PUSH2 0x31B4 JUMPI DUP7 SWAP2 PUSH2 0x3183 JUMPI JUMPDEST PUSH2 0x315F SWAP3 POP PUSH2 0x49B9 JUMP JUMPDEST SWAP3 DUP3 DUP6 MSTORE PUSH1 0x3 DUP3 MSTORE PUSH1 0x40 DUP6 KECCAK256 CALLER PUSH1 0x0 MSTORE DUP3 MSTORE PUSH1 0x40 PUSH1 0x0 KECCAK256 PUSH1 0xFF NOT DUP2 SLOAD AND SWAP1 SSTORE PUSH2 0x3066 JUMP JUMPDEST SWAP1 POP DUP3 DUP3 DUP2 RETURNDATASIZE DUP4 GT PUSH2 0x31AD JUMPI JUMPDEST PUSH2 0x319A DUP2 DUP4 PUSH2 0x476C JUMP JUMPDEST DUP2 ADD SUB SLT PUSH2 0x845 JUMPI PUSH2 0x315F SWAP2 MLOAD SWAP1 PUSH2 0x3155 JUMP JUMPDEST POP RETURNDATASIZE PUSH2 0x3190 JUMP JUMPDEST PUSH1 0x40 MLOAD RETURNDATASIZE DUP9 DUP3 RETURNDATACOPY RETURNDATASIZE SWAP1 REVERT JUMPDEST PUSH1 0xB SLOAD PUSH1 0x4 DUP3 DUP2 ADD SLOAD PUSH1 0x40 MLOAD PUSH4 0x553B7CBB PUSH1 0xE0 SHL DUP2 MSTORE SWAP2 DUP3 ADD DUP7 SWAP1 MSTORE CALLER PUSH1 0x24 DUP4 ADD MSTORE PUSH1 0x1 PUSH1 0x1 PUSH1 0xA0 SHL SUB SWAP1 DUP2 AND PUSH1 0x44 DUP4 ADD MSTORE SWAP3 SWAP6 POP SWAP2 DUP4 SWAP2 DUP4 SWAP2 PUSH1 0x64 SWAP2 DUP4 SWAP2 AND GAS STATICCALL SWAP1 DUP2 ISZERO PUSH2 0x3261 JUMPI DUP6 SWAP2 PUSH2 0x3234 JUMPI JUMPDEST POP SWAP3 DUP3 DUP6 MSTORE PUSH1 0x2 DUP3 MSTORE PUSH1 0x40 DUP6 KECCAK256 CALLER PUSH1 0x0 MSTORE DUP3 MSTORE PUSH1 0x40 PUSH1 0x0 KECCAK256 PUSH1 0xFF NOT DUP2 SLOAD AND SWAP1 SSTORE PUSH2 0x3047 JUMP JUMPDEST SWAP1 POP DUP2 DUP2 DUP2 RETURNDATASIZE DUP4 GT PUSH2 0x325A JUMPI JUMPDEST PUSH2 0x324B DUP2 DUP4 PUSH2 0x476C JUMP JUMPDEST DUP2 ADD SUB SLT PUSH2 0x845 JUMPI MLOAD CODESIZE PUSH2 0x320F JUMP JUMPDEST POP RETURNDATASIZE PUSH2 0x3241 JUMP JUMPDEST PUSH1 0x40 MLOAD RETURNDATASIZE DUP8 DUP3 RETURNDATACOPY RETURNDATASIZE SWAP1 REVERT JUMPDEST PUSH1 0x84 SWAP1 PUSH1 0x40 MLOAD SWAP1 PUSH3 0x461BCD PUSH1 0xE5 SHL DUP3 MSTORE PUSH1 0x4 DUP3 ADD MSTORE PUSH1 0x21 PUSH1 0x24 DUP3 ADD MSTORE PUSH32 0x4D61726B65744D616E616765723A204E6F207374616B6520746F20726566756E PUSH1 0x44 DUP3 ADD MSTORE PUSH1 0x19 PUSH1 0xFA SHL PUSH1 0x64 DUP3 ADD MSTORE REVERT JUMPDEST POP DUP2 DUP5 MSTORE PUSH1 0x3 DUP2 MSTORE PUSH1 0x40 DUP5 KECCAK256 CALLER PUSH1 0x0 MSTORE DUP2 MSTORE PUSH1 0xFF PUSH1 0x40 PUSH1 0x0 KECCAK256 SLOAD AND PUSH2 0x3021 JUMP JUMPDEST PUSH1 0x84 SWAP1 PUSH1 0x40 MLOAD SWAP1 PUSH3 0x461BCD PUSH1 0xE5 SHL DUP3 MSTORE PUSH1 0x4 DUP3 ADD MSTORE PUSH1 0x23 PUSH1 0x24 DUP3 ADD MSTORE PUSH32 0x4D61726B65744D616E616765723A204D61726B6574206E6F742063616E63656C PUSH1 0x44 DUP3 ADD MSTORE PUSH3 0x1B1959 PUSH1 0xEA SHL PUSH1 0x64 DUP3 ADD MSTORE REVERT JUMPDEST POP CALLVALUE PUSH2 0x31A JUMPI PUSH2 0x7FF SWAP1 PUSH1 0x20 PUSH2 0x333F CALLDATASIZE PUSH2 0x44AD JUMP JUMPDEST PUSH1 0xB SLOAD PUSH1 0x40 MLOAD PUSH4 0x553B7CBB PUSH1 0xE0 SHL DUP2 MSTORE PUSH1 0x4 DUP2 ADD SWAP5 SWAP1 SWAP5 MSTORE PUSH1 0x1 PUSH1 0x1 PUSH1 0xA0 SHL SUB SWAP3 DUP4 AND PUSH1 0x24 DUP6 ADD MSTORE SWAP1 DUP3 AND PUSH1 0x44 DUP5 ADD MSTORE SWAP2 SWAP5 DUP6 SWAP3 SWAP1 SWAP2 AND SWAP1 DUP3 SWAP1 DUP2 SWAP1 PUSH1 0x64 DUP3 ADD SWAP1 JUMP JUMPDEST POP CALLVALUE PUSH2 0x31A JUMPI PUSH1 0x20 CALLDATASIZE PUSH1 0x3 NOT ADD SLT PUSH2 0x31A JUMPI PUSH1 0x40 PUSH1 0x20 SWAP2 PUSH1 0x4 CALLDATALOAD DUP2 MSTORE PUSH1 0x5 DUP4 MSTORE KECCAK256 SLOAD PUSH1 0x40 MLOAD SWAP1 DUP2 MSTORE RETURN JUMPDEST POP CALLVALUE PUSH2 0x31A JUMPI PUSH1 0x40 CALLDATASIZE PUSH1 0x3 NOT ADD SLT PUSH2 0x31A JUMPI PUSH1 0x4 CALLDATALOAD PUSH1 0x24 CALLDATALOAD PUSH8 0xFFFFFFFFFFFFFFFF DUP2 GT PUSH2 0x1CB7 JUMPI PUSH2 0x33E1 SWAP1 CALLDATASIZE SWAP1 PUSH1 0x4 ADD PUSH2 0x47AA JUMP JUMPDEST PUSH2 0x33E9 PUSH2 0x48E0 JUMP JUMPDEST PUSH2 0x33F6 PUSH1 0xE SLOAD DUP4 LT PUSH2 0x5468 JUMP JUMPDEST DUP2 DUP4 MSTORE PUSH1 0x20 SWAP1 PUSH1 0x1 DUP3 MSTORE PUSH2 0x3417 PUSH1 0x1 DUP1 PUSH1 0xA0 SHL SUB PUSH1 0x40 DUP7 KECCAK256 SLOAD AND ISZERO ISZERO PUSH2 0x54B3 JUMP JUMPDEST DUP3 DUP5 MSTORE PUSH1 0x1 DUP3 MSTORE PUSH1 0xFF PUSH1 0xB PUSH1 0x40 DUP7 KECCAK256 ADD SLOAD AND PUSH1 0x5 DUP2 LT ISZERO PUSH2 0xF0C JUMPI PUSH1 0x4 EQ PUSH2 0x34E0 JUMPI DUP3 DUP5 MSTORE PUSH1 0x1 DUP3 MSTORE PUSH1 0xB PUSH1 0x40 DUP6 KECCAK256 ADD PUSH1 0x4 PUSH1 0xFF NOT DUP3 SLOAD AND OR SWAP1 SSTORE DUP3 DUP5 MSTORE PUSH1 0x14 DUP3 MSTORE TIMESTAMP PUSH1 0x40 DUP6 KECCAK256 SSTORE PUSH1 0x13 SLOAD SWAP2 PUSH1 0x1 PUSH1 0x40 SHL DUP4 LT ISZERO PUSH2 0xEF6 JUMPI PUSH2 0x34A4 DUP5 PUSH2 0xB80 DUP6 PUSH1 0x1 PUSH32 0x4C4561C5B0048424071C1115E9F1E325486E21C21333D968F21097B7B72D12AD SWAP8 ADD PUSH1 0x13 SSTORE PUSH2 0x4566 JUMP JUMPDEST DUP4 DUP6 MSTORE PUSH1 0x11 DUP2 MSTORE PUSH1 0xFF PUSH1 0x40 DUP7 KECCAK256 SLOAD AND PUSH2 0x34D2 JUMPI JUMPDEST PUSH2 0x34CC PUSH1 0x40 MLOAD SWAP3 DUP3 DUP5 SWAP4 DUP5 MSTORE DUP4 ADD SWAP1 PUSH2 0x45F0 JUMP JUMPDEST SUB SWAP1 LOG2 DUP1 RETURN JUMPDEST PUSH2 0x34DB DUP5 PUSH2 0x550B JUMP JUMPDEST PUSH2 0x34B8 JUMP JUMPDEST PUSH1 0x40 MLOAD PUSH3 0x461BCD PUSH1 0xE5 SHL DUP2 MSTORE PUSH1 0x4 DUP2 ADD DUP4 SWAP1 MSTORE PUSH1 0x1E PUSH1 0x24 DUP3 ADD MSTORE PUSH32 0x4D61726B65744D616E616765723A20416C72656164792064656C657465640000 PUSH1 0x44 DUP3 ADD MSTORE PUSH1 0x64 SWAP1 REVERT JUMPDEST POP CALLVALUE PUSH2 0x31A JUMPI DUP1 PUSH1 0x3 NOT CALLDATASIZE ADD SLT PUSH2 0x31A JUMPI PUSH1 0xC SLOAD PUSH1 0x40 MLOAD PUSH1 0x1 PUSH1 0x1 PUSH1 0xA0 SHL SUB SWAP1 SWAP2 AND DUP2 MSTORE PUSH1 0x20 SWAP1 RETURN JUMPDEST POP CALLVALUE PUSH2 0x31A JUMPI PUSH1 0x40 CALLDATASIZE PUSH1 0x3 NOT ADD SLT PUSH2 0x31A JUMPI PUSH2 0x7FF SWAP1 PUSH1 0x20 PUSH2 0x356E PUSH2 0x4481 JUMP JUMPDEST PUSH1 0xB SLOAD PUSH1 0x40 MLOAD PUSH4 0x4F44289D PUSH1 0xE0 SHL DUP2 MSTORE PUSH1 0x4 DUP1 CALLDATALOAD SWAP1 DUP3 ADD MSTORE PUSH1 0x1 PUSH1 0x1 PUSH1 0xA0 SHL SUB SWAP3 DUP4 AND PUSH1 0x24 DUP3 ADD MSTORE SWAP5 DUP6 SWAP3 SWAP1 SWAP2 AND SWAP1 DUP3 SWAP1 DUP2 SWAP1 PUSH1 0x44 DUP3 ADD SWAP1 JUMP JUMPDEST POP PUSH2 0x35B2 CALLDATASIZE PUSH2 0x4709 JUMP JUMPDEST SWAP1 DUP1 DUP4 MSTORE PUSH1 0x20 PUSH1 0x1 DUP2 MSTORE PUSH1 0x40 DUP5 KECCAK256 PUSH1 0xFF PUSH1 0xB DUP3 ADD SLOAD AND PUSH1 0x5 DUP2 LT ISZERO PUSH2 0x791 JUMPI PUSH2 0x35DB SWAP1 ISZERO PUSH2 0x4B68 JUMP JUMPDEST PUSH2 0x35EA PUSH1 0x9 DUP3 ADD SLOAD TIMESTAMP LT PUSH2 0x4BB3 JUMP JUMPDEST DUP4 ISZERO ISZERO DUP1 PUSH2 0x382B JUMPI JUMPDEST PUSH2 0x35FC SWAP1 PUSH2 0x4C0B JUMP JUMPDEST PUSH1 0x4 DUP2 ADD DUP1 SLOAD PUSH1 0x1 PUSH1 0x1 PUSH1 0xA0 SHL SUB SWAP3 SWAP1 DUP4 AND PUSH2 0x37C0 JUMPI SWAP1 PUSH2 0x3625 PUSH1 0x5 DUP9 SWAP5 SWAP4 ADD SLOAD CALLVALUE LT ISZERO PUSH2 0x4C57 JUMP JUMPDEST DUP5 DUP4 MSTORE PUSH1 0x2 DUP5 MSTORE PUSH1 0x40 DUP4 KECCAK256 CALLER PUSH1 0x0 MSTORE DUP5 MSTORE PUSH1 0xFF PUSH1 0x40 PUSH1 0x0 KECCAK256 SLOAD AND ISZERO PUSH2 0x3793 JUMPI JUMPDEST DUP5 DUP4 MSTORE PUSH1 0x2 DUP5 MSTORE PUSH1 0x40 DUP4 KECCAK256 CALLER PUSH1 0x0 MSTORE DUP5 MSTORE PUSH1 0x40 PUSH1 0x0 KECCAK256 PUSH1 0x1 PUSH1 0xFF NOT DUP3 SLOAD AND OR SWAP1 SSTORE DUP5 DUP4 MSTORE PUSH1 0x4 DUP5 MSTORE PUSH1 0x40 DUP4 KECCAK256 CALLER PUSH1 0x0 MSTORE DUP5 MSTORE DUP6 PUSH1 0x40 PUSH1 0x0 KECCAK256 SSTORE DUP2 DUP1 PUSH1 0xB SLOAD AND SWAP2 SLOAD AND SWAP1 DUP1 EXTCODESIZE ISZERO PUSH2 0x628 JUMPI PUSH1 0x40 MLOAD PUSH4 0x38051807 PUSH1 0xE2 SHL DUP2 MSTORE PUSH1 0x4 DUP2 ADD DUP8 SWAP1 MSTORE CALLER PUSH1 0x24 DUP3 ADD MSTORE PUSH1 0x1 PUSH1 0x1 PUSH1 0xA0 SHL SUB SWAP3 SWAP1 SWAP3 AND PUSH1 0x44 DUP4 ADD MSTORE CALLVALUE PUSH1 0x64 DUP4 ADD MSTORE PUSH1 0x84 DUP3 ADD DUP8 SWAP1 MSTORE DUP4 SWAP1 DUP3 SWAP1 PUSH1 0xA4 SWAP1 DUP3 SWAP1 DUP5 SWAP1 GAS CALL SWAP1 DUP2 ISZERO PUSH2 0x64F JUMPI DUP4 SWAP2 PUSH2 0x377F JUMPI JUMPDEST POP POP PUSH1 0xD SLOAD AND DUP1 PUSH2 0x3724 JUMPI JUMPDEST POP POP PUSH1 0x40 MLOAD SWAP3 DUP4 MSTORE CALLVALUE SWAP1 DUP4 ADD MSTORE PUSH32 0x1B8A9031CB9351278D70A994F81536E9E08C91162E64F92B2FE4766FB7A891B4 PUSH1 0x40 CALLER SWAP4 LOG3 DUP1 RETURN JUMPDEST DUP1 EXTCODESIZE ISZERO PUSH2 0x637 JUMPI PUSH1 0x40 MLOAD PUSH4 0x5374B47B PUSH1 0xE0 SHL DUP2 MSTORE PUSH1 0x4 DUP2 ADD DUP6 SWAP1 MSTORE CALLER PUSH1 0x24 DUP3 ADD MSTORE PUSH1 0x44 DUP2 ADD DUP7 SWAP1 MSTORE CALLVALUE PUSH1 0x64 DUP3 ADD MSTORE SWAP1 DUP3 SWAP1 DUP3 SWAP1 PUSH1 0x84 SWAP1 DUP3 SWAP1 DUP5 SWAP1 GAS CALL DUP1 ISZERO PUSH2 0x62C JUMPI ISZERO PUSH2 0x36EE JUMPI PUSH2 0x3774 SWAP1 PUSH2 0x471F JUMP JUMPDEST PUSH2 0x628 JUMPI DUP4 CODESIZE PUSH2 0x36EE JUMP JUMPDEST PUSH2 0x3788 SWAP1 PUSH2 0x471F JUMP JUMPDEST PUSH2 0x637 JUMPI DUP2 CODESIZE PUSH2 0x36E2 JUMP JUMPDEST DUP5 DUP4 MSTORE PUSH1 0x5 DUP5 MSTORE PUSH2 0x37A7 CALLER PUSH1 0x40 DUP6 KECCAK256 PUSH2 0x4CAE JUMP JUMPDEST CALLER DUP4 MSTORE PUSH1 0x12 DUP5 MSTORE PUSH2 0x37BB DUP6 PUSH1 0x40 DUP6 KECCAK256 PUSH2 0x49F8 JUMP JUMPDEST PUSH2 0x3645 JUMP JUMPDEST PUSH1 0x40 MLOAD PUSH3 0x461BCD PUSH1 0xE5 SHL DUP2 MSTORE PUSH1 0x4 DUP2 ADD DUP6 SWAP1 MSTORE PUSH1 0x3D PUSH1 0x24 DUP3 ADD MSTORE PUSH32 0x4D61726B65744D616E616765723A2054686973206D61726B6574207573657320 PUSH1 0x44 DUP3 ADD MSTORE PUSH32 0x746F6B656E732C2075736520706C61636542657457697468546F6B656E000000 PUSH1 0x64 DUP3 ADD MSTORE PUSH1 0x84 SWAP1 REVERT JUMPDEST POP PUSH1 0x3 DUP2 ADD SLOAD DUP5 GT ISZERO PUSH2 0x35F3 JUMP JUMPDEST POP CALLVALUE PUSH2 0x31A JUMPI PUSH1 0x40 CALLDATASIZE PUSH1 0x3 NOT ADD SLT PUSH2 0x31A JUMPI PUSH1 0x40 PUSH2 0x3855 PUSH2 0x4481 JUMP JUMPDEST SWAP2 PUSH1 0x4 CALLDATALOAD DUP2 MSTORE PUSH1 0x4 PUSH1 0x20 MSTORE KECCAK256 SWAP1 PUSH1 0x1 DUP1 PUSH1 0xA0 SHL SUB AND PUSH1 0x0 MSTORE PUSH1 0x20 MSTORE PUSH1 0x20 PUSH1 0x40 PUSH1 0x0 KECCAK256 SLOAD PUSH1 0x40 MLOAD SWAP1 DUP2 MSTORE RETURN JUMPDEST POP CALLVALUE PUSH2 0x31A JUMPI DUP1 PUSH1 0x3 NOT CALLDATASIZE ADD SLT PUSH2 0x31A JUMPI PUSH1 0x20 PUSH1 0xE SLOAD PUSH1 0x40 MLOAD SWAP1 DUP2 MSTORE RETURN JUMPDEST POP CALLVALUE PUSH2 0x31A JUMPI PUSH1 0x20 DUP1 PUSH1 0x3 NOT CALLDATASIZE ADD SLT PUSH2 0x637 JUMPI PUSH2 0x39CF PUSH1 0x4 CALLDATALOAD SWAP2 PUSH2 0x38C0 PUSH2 0x55C5 JUMP JUMPDEST POP DUP3 DUP5 MSTORE PUSH1 0x1 SWAP1 DUP2 DUP2 MSTORE PUSH1 0x40 DUP6 KECCAK256 SWAP4 PUSH1 0x40 MLOAD SWAP6 PUSH2 0x38DC DUP8 PUSH2 0x4733 JUMP JUMPDEST DUP6 SLOAD PUSH1 0x1 PUSH1 0x1 PUSH1 0xA0 SHL SUB SWAP1 DUP2 AND DUP9 MSTORE PUSH2 0x38F6 DUP6 DUP9 ADD PUSH2 0x482B JUMP JUMPDEST DUP5 DUP10 ADD MSTORE PUSH1 0xFF PUSH1 0x2 DUP9 ADD SLOAD AND ISZERO ISZERO PUSH1 0x40 DUP10 ADD MSTORE PUSH1 0x3 DUP8 ADD SLOAD PUSH1 0x60 DUP10 ADD MSTORE DUP1 PUSH1 0x4 DUP9 ADD SLOAD AND SWAP2 PUSH1 0x80 DUP10 ADD SWAP3 DUP4 MSTORE PUSH1 0x5 DUP9 ADD SLOAD PUSH1 0xA0 DUP11 ADD MSTORE PUSH1 0x6 DUP9 ADD SLOAD PUSH1 0xC0 DUP11 ADD MSTORE PUSH1 0x7 DUP9 ADD SLOAD PUSH1 0xE0 DUP11 ADD MSTORE PUSH1 0xFF PUSH1 0xD PUSH1 0x8 DUP11 ADD SLOAD SWAP10 PUSH2 0x100 SWAP11 DUP12 DUP14 ADD MSTORE PUSH1 0x9 DUP2 ADD SLOAD PUSH2 0x120 DUP14 ADD MSTORE PUSH1 0xA DUP2 ADD SLOAD PUSH2 0x140 DUP14 ADD MSTORE PUSH2 0x397D DUP13 PUSH2 0x160 DUP6 PUSH1 0xB DUP6 ADD SLOAD AND SWAP2 ADD PUSH2 0x49D5 JUMP JUMPDEST PUSH1 0xC DUP2 ADD SLOAD PUSH2 0x180 DUP14 ADD MSTORE ADD SLOAD AND ISZERO ISZERO PUSH2 0x1A0 DUP11 ADD MSTORE PUSH1 0xB SLOAD DUP4 MLOAD PUSH1 0x40 MLOAD PUSH4 0x3D1E7BA1 PUSH1 0xE1 SHL DUP2 MSTORE PUSH1 0x4 DUP2 ADD DUP8 SWAP1 MSTORE SWAP1 DUP5 AND PUSH1 0x1 PUSH1 0x1 PUSH1 0xA0 SHL SUB AND PUSH1 0x24 DUP3 ADD MSTORE SWAP8 SWAP1 DUP4 AND SWAP1 DUP7 SWAP1 DUP10 SWAP1 DUP2 SWAP1 PUSH1 0x44 DUP3 ADD SWAP1 JUMP JUMPDEST SUB DUP2 DUP5 GAS STATICCALL SWAP8 DUP9 ISZERO PUSH2 0x62C JUMPI DUP3 SWAP9 PUSH2 0x3B94 JUMPI JUMPDEST POP DUP4 MLOAD PUSH1 0x40 MLOAD PUSH4 0x4F44289D PUSH1 0xE0 SHL DUP2 MSTORE PUSH1 0x4 DUP2 ADD DUP8 SWAP1 MSTORE SWAP1 DUP5 AND PUSH1 0x1 PUSH1 0x1 PUSH1 0xA0 SHL SUB AND PUSH1 0x24 DUP3 ADD MSTORE SWAP2 SWAP1 DUP7 SWAP1 DUP4 SWAP1 DUP2 DUP1 PUSH1 0x44 DUP2 ADD SUB SWAP2 GAS STATICCALL SWAP2 DUP3 ISZERO PUSH2 0x3B87 JUMPI DUP2 SWAP3 PUSH2 0x3B58 JUMPI JUMPDEST POP DUP5 DUP2 MSTORE PUSH1 0x5 DUP7 MSTORE PUSH1 0x40 DUP2 KECCAK256 SLOAD SWAP3 PUSH1 0x6 DUP8 MSTORE PUSH1 0x40 DUP3 KECCAK256 SLOAD SWAP5 PUSH1 0x5 DUP9 MSTORE PUSH1 0x40 DUP4 KECCAK256 SWAP7 DUP10 PUSH1 0x40 MLOAD DUP1 SWAP10 DUP11 SWAP2 DUP13 DUP3 SLOAD SWAP2 DUP3 DUP2 MSTORE ADD SWAP2 DUP9 MSTORE DUP13 DUP1 DUP10 KECCAK256 SWAP5 DUP10 SWAP2 JUMPDEST DUP4 DUP4 LT PUSH2 0x3B3F JUMPI POP POP POP POP PUSH2 0x3A7B SWAP3 POP SUB DUP10 PUSH2 0x476C JUMP JUMPDEST DUP4 MSTORE PUSH1 0x6 DUP9 MSTORE PUSH1 0x40 DUP4 KECCAK256 PUSH1 0x40 MLOAD DUP1 SWAP11 DUP11 DUP4 SLOAD SWAP3 DUP4 DUP2 MSTORE ADD SWAP3 DUP7 MSTORE DUP11 DUP7 KECCAK256 SWAP2 DUP7 JUMPDEST DUP2 DUP2 LT PUSH2 0x3B2A JUMPI POP POP POP POP PUSH1 0x40 PUSH2 0x3B0E SWAP8 SWAP5 PUSH2 0x3B1C SWAP11 SWAP8 SWAP5 DUP13 SWAP11 SWAP8 SWAP5 PUSH2 0x3ACA PUSH2 0x36C SWAP16 SWAP15 PUSH2 0x3AD8 SWAP7 SUB DUP14 PUSH2 0x476C JUMP JUMPDEST MLOAD AND DUP2 MSTORE PUSH1 0x8 DUP9 MSTORE KECCAK256 PUSH2 0x482B JUMP JUMPDEST SWAP9 PUSH2 0x3AEE PUSH1 0x40 MLOAD SWAP14 DUP14 DUP16 SWAP15 DUP16 SWAP1 DUP2 MSTORE ADD SWAP1 PUSH2 0x4653 JUMP JUMPDEST SWAP6 DUP13 ADD MSTORE PUSH1 0x40 DUP12 ADD MSTORE PUSH1 0x60 DUP11 ADD MSTORE PUSH1 0x80 DUP10 ADD MSTORE DUP8 DUP3 SUB PUSH1 0xA0 DUP10 ADD MSTORE PUSH2 0x4444 JUMP JUMPDEST SWAP1 DUP6 DUP3 SUB PUSH1 0xC0 DUP8 ADD MSTORE PUSH2 0x4444 JUMP JUMPDEST SWAP1 DUP4 DUP3 SUB PUSH1 0xE0 DUP6 ADD MSTORE PUSH2 0x45F0 JUMP JUMPDEST DUP4 SLOAD DUP8 AND DUP6 MSTORE SWAP4 DUP13 ADD SWAP4 SWAP3 DUP3 ADD SWAP3 DUP3 ADD PUSH2 0x3A9B JUMP JUMPDEST DUP7 SLOAD DUP11 AND DUP6 MSTORE SWAP6 DUP2 ADD SWAP6 DUP15 SWAP6 POP SWAP1 SWAP4 ADD SWAP3 ADD DUP15 DUP15 PUSH2 0x3A64 JUMP JUMPDEST SWAP1 SWAP2 POP DUP6 DUP2 DUP2 RETURNDATASIZE DUP4 GT PUSH2 0x3B80 JUMPI JUMPDEST PUSH2 0x3B70 DUP2 DUP4 PUSH2 0x476C JUMP JUMPDEST DUP2 ADD SUB SLT PUSH2 0x845 JUMPI MLOAD SWAP1 CODESIZE PUSH2 0x3A28 JUMP JUMPDEST POP RETURNDATASIZE PUSH2 0x3B66 JUMP JUMPDEST POP PUSH1 0x40 MLOAD SWAP1 RETURNDATASIZE SWAP1 DUP3 RETURNDATACOPY RETURNDATASIZE SWAP1 REVERT JUMPDEST SWAP2 SWAP1 SWAP8 POP DUP6 DUP3 DUP2 RETURNDATASIZE DUP4 GT PUSH2 0x3BBE JUMPI JUMPDEST PUSH2 0x3BAD DUP2 DUP4 PUSH2 0x476C JUMP JUMPDEST DUP2 ADD SUB SLT PUSH2 0x845 JUMPI SWAP1 MLOAD SWAP7 DUP6 PUSH2 0x39E2 JUMP JUMPDEST POP RETURNDATASIZE PUSH2 0x3BA3 JUMP JUMPDEST POP CALLVALUE PUSH2 0x31A JUMPI PUSH1 0x20 DUP1 PUSH1 0x3 NOT CALLDATASIZE ADD SLT PUSH2 0x637 JUMPI PUSH1 0x4 CALLDATALOAD DUP1 DUP4 MSTORE PUSH1 0x1 DUP3 MSTORE PUSH1 0x40 DUP4 KECCAK256 SWAP2 PUSH1 0x3 DUP2 MSTORE PUSH1 0x40 DUP5 KECCAK256 CALLER DUP6 MSTORE DUP2 MSTORE PUSH2 0x3C04 PUSH1 0xFF PUSH1 0x40 DUP7 KECCAK256 SLOAD AND PUSH2 0x4CD1 JUMP JUMPDEST PUSH1 0xFF PUSH1 0xB DUP5 ADD SLOAD AND PUSH1 0x5 DUP2 LT ISZERO PUSH2 0xF0C JUMPI DUP1 PUSH2 0x3E0D JUMPI POP PUSH1 0x9 DUP4 ADD SLOAD PUSH2 0xA8BF NOT DUP2 ADD SWAP1 DUP2 GT PUSH2 0x3DF9 JUMPI TIMESTAMP LT ISZERO PUSH2 0x3D8F JUMPI JUMPDEST PUSH1 0xB SLOAD PUSH1 0x4 SWAP4 DUP5 ADD SLOAD PUSH1 0x40 MLOAD PUSH4 0x256BA741 PUSH1 0xE0 SHL DUP2 MSTORE SWAP5 DUP6 ADD DUP5 SWAP1 MSTORE CALLER PUSH1 0x24 DUP7 ADD MSTORE PUSH1 0x1 PUSH1 0x1 PUSH1 0xA0 SHL SUB SWAP1 DUP2 AND PUSH1 0x44 DUP7 ADD DUP2 SWAP1 MSTORE SWAP2 AND SWAP1 DUP6 SWAP1 DUP4 DUP7 PUSH1 0x64 DUP2 DUP7 GAS STATICCALL SWAP6 DUP7 ISZERO PUSH2 0x62C JUMPI DUP3 SWAP7 PUSH2 0x3D60 JUMPI JUMPDEST POP PUSH2 0x3C90 DUP7 ISZERO ISZERO PUSH2 0x4CD1 JUMP JUMPDEST DUP3 EXTCODESIZE ISZERO PUSH2 0x637 JUMPI PUSH1 0x40 MLOAD PUSH4 0x17BE0B2F PUSH1 0xE1 SHL DUP2 MSTORE PUSH1 0x4 DUP2 ADD DUP7 SWAP1 MSTORE CALLER PUSH1 0x24 DUP3 ADD MSTORE PUSH1 0x1 PUSH1 0x1 PUSH1 0xA0 SHL SUB SWAP2 SWAP1 SWAP2 AND PUSH1 0x44 DUP3 ADD MSTORE PUSH1 0x64 DUP2 ADD DUP7 SWAP1 MSTORE SWAP2 DUP3 SWAP1 PUSH1 0x84 SWAP1 DUP3 SWAP1 DUP5 SWAP1 GAS CALL DUP1 ISZERO PUSH2 0x3261 JUMPI PUSH2 0x3D2D JUMPI JUMPDEST POP PUSH32 0xFB349E367FA58E764F8867E52D91C7E0B9E6904700091667054CE1FDB56C496D SWAP1 DUP3 DUP6 MSTORE PUSH1 0x3 DUP2 MSTORE PUSH1 0x40 DUP6 KECCAK256 CALLER PUSH1 0x0 MSTORE DUP2 MSTORE PUSH1 0x40 PUSH1 0x0 KECCAK256 PUSH1 0xFF NOT DUP2 SLOAD AND SWAP1 SSTORE PUSH1 0x40 MLOAD SWAP4 DUP5 MSTORE CALLER SWAP4 LOG3 DUP1 RETURN JUMPDEST SWAP4 PUSH2 0x3D59 PUSH32 0xFB349E367FA58E764F8867E52D91C7E0B9E6904700091667054CE1FDB56C496D SWAP3 SWAP6 PUSH2 0x471F JUMP JUMPDEST SWAP4 SWAP1 PUSH2 0x3CE0 JUMP JUMPDEST SWAP1 SWAP6 POP DUP4 DUP2 DUP2 RETURNDATASIZE DUP4 GT PUSH2 0x3D88 JUMPI JUMPDEST PUSH2 0x3D78 DUP2 DUP4 PUSH2 0x476C JUMP JUMPDEST DUP2 ADD SUB SLT PUSH2 0x637 JUMPI MLOAD SWAP5 CODESIZE PUSH2 0x3C84 JUMP JUMPDEST POP RETURNDATASIZE PUSH2 0x3D6E JUMP JUMPDEST PUSH1 0x84 SWAP1 PUSH1 0x40 MLOAD SWAP1 PUSH3 0x461BCD PUSH1 0xE5 SHL DUP3 MSTORE PUSH1 0x4 DUP3 ADD MSTORE PUSH1 0x3C PUSH1 0x24 DUP3 ADD MSTORE PUSH32 0x4D61726B65744D616E616765723A2043616E6E6F742077697468647261772077 PUSH1 0x44 DUP3 ADD MSTORE PUSH32 0x697468696E20313220686F757273206F66206D61726B657420656E6400000000 PUSH1 0x64 DUP3 ADD MSTORE REVERT JUMPDEST PUSH4 0x4E487B71 PUSH1 0xE0 SHL DUP6 MSTORE PUSH1 0x11 PUSH1 0x4 MSTORE PUSH1 0x24 DUP6 REVERT JUMPDEST PUSH1 0x4 DUP2 EQ SWAP1 DUP2 ISZERO PUSH2 0x3E81 JUMPI JUMPDEST POP PUSH2 0x3C35 JUMPI PUSH1 0x84 SWAP1 PUSH1 0x40 MLOAD SWAP1 PUSH3 0x461BCD PUSH1 0xE5 SHL DUP3 MSTORE PUSH1 0x4 DUP3 ADD MSTORE PUSH1 0x36 PUSH1 0x24 DUP3 ADD MSTORE PUSH32 0x4D61726B65744D616E616765723A2043616E6E6F742077697468647261772069 PUSH1 0x44 DUP3 ADD MSTORE PUSH22 0x6E2063757272656E74206D61726B6574207374617465 PUSH1 0x50 SHL PUSH1 0x64 DUP3 ADD MSTORE REVERT JUMPDEST PUSH1 0x3 SWAP2 POP EQ CODESIZE PUSH2 0x3E19 JUMP JUMPDEST POP CALLVALUE PUSH2 0x31A JUMPI PUSH1 0x20 CALLDATASIZE PUSH1 0x3 NOT ADD SLT PUSH2 0x31A JUMPI PUSH1 0x4 CALLDATALOAD SWAP1 PUSH1 0x10 SLOAD DUP3 LT ISZERO PUSH2 0x31A JUMPI PUSH1 0x20 PUSH2 0x1E8C DUP4 PUSH2 0x452F JUMP JUMPDEST POP CALLVALUE PUSH2 0x31A JUMPI PUSH1 0x20 DUP1 PUSH1 0x3 NOT CALLDATASIZE ADD SLT PUSH2 0x637 JUMPI PUSH1 0x1 PUSH1 0x1 PUSH1 0xA0 SHL SUB PUSH2 0x3EDA PUSH2 0x4497 JUMP JUMPDEST AND DUP3 MSTORE PUSH1 0x12 DUP2 MSTORE PUSH1 0x40 DUP3 KECCAK256 SWAP2 PUSH1 0x40 MLOAD DUP1 SWAP3 DUP1 DUP6 SLOAD SWAP3 DUP4 DUP2 MSTORE ADD SWAP5 DUP4 MSTORE DUP1 DUP4 KECCAK256 SWAP3 SWAP1 JUMPDEST DUP3 DUP3 LT PUSH2 0x3F13 JUMPI PUSH2 0x36C DUP6 PUSH2 0x1DD4 DUP2 DUP10 SUB DUP3 PUSH2 0x476C JUMP JUMPDEST DUP4 SLOAD DUP7 MSTORE SWAP5 DUP6 ADD SWAP5 PUSH1 0x1 SWAP4 DUP5 ADD SWAP4 SWAP1 SWAP2 ADD SWAP1 PUSH2 0x3EFC JUMP JUMPDEST POP CALLVALUE PUSH2 0x31A JUMPI DUP1 PUSH1 0x3 NOT CALLDATASIZE ADD SLT PUSH2 0x31A JUMPI PUSH1 0x20 PUSH1 0xF SLOAD PUSH1 0x40 MLOAD SWAP1 DUP2 MSTORE RETURN JUMPDEST POP CALLVALUE PUSH2 0x31A JUMPI PUSH1 0x20 CALLDATASIZE PUSH1 0x3 NOT ADD SLT PUSH2 0x31A JUMPI PUSH1 0x4 CALLDATALOAD SWAP1 PUSH1 0x9 SLOAD DUP3 LT ISZERO PUSH2 0x31A JUMPI PUSH1 0x20 PUSH2 0x1488 DUP4 PUSH2 0x44E2 JUMP JUMPDEST POP CALLVALUE PUSH2 0x31A JUMPI PUSH1 0x20 CALLDATASIZE PUSH1 0x3 NOT ADD SLT PUSH2 0x31A JUMPI PUSH1 0x20 SWAP1 PUSH1 0xFF SWAP1 PUSH1 0x40 SWAP1 PUSH1 0x1 PUSH1 0x1 PUSH1 0xA0 SHL SUB PUSH2 0x3F9E PUSH2 0x4497 JUMP JUMPDEST AND DUP2 MSTORE PUSH1 0xA DUP5 MSTORE KECCAK256 SLOAD AND PUSH1 0x40 MLOAD SWAP1 ISZERO ISZERO DUP2 MSTORE RETURN JUMPDEST POP CALLVALUE PUSH2 0x31A JUMPI PUSH1 0x40 CALLDATASIZE PUSH1 0x3 NOT ADD SLT PUSH2 0x31A JUMPI PUSH1 0xFF PUSH1 0x40 PUSH1 0x20 SWAP3 PUSH2 0x3FD3 PUSH2 0x4481 JUMP JUMPDEST PUSH1 0x4 CALLDATALOAD DUP3 MSTORE PUSH1 0x3 DUP6 MSTORE DUP3 DUP3 KECCAK256 PUSH1 0x1 PUSH1 0x1 PUSH1 0xA0 SHL SUB SWAP1 SWAP2 AND DUP3 MSTORE DUP5 MSTORE KECCAK256 SLOAD PUSH1 0x40 MLOAD SWAP2 AND ISZERO ISZERO DUP2 MSTORE RETURN JUMPDEST POP CALLVALUE PUSH2 0x31A JUMPI PUSH2 0x4052 PUSH1 0x20 PUSH2 0x400F CALLDATASIZE PUSH2 0x44AD JUMP JUMPDEST PUSH1 0xB SLOAD PUSH1 0x40 MLOAD PUSH4 0x256BA741 PUSH1 0xE0 SHL DUP2 MSTORE PUSH1 0x4 DUP2 ADD SWAP5 SWAP1 SWAP5 MSTORE PUSH1 0x1 PUSH1 0x1 PUSH1 0xA0 SHL SUB SWAP3 DUP4 AND PUSH1 0x24 DUP6 ADD MSTORE SWAP1 DUP3 AND PUSH1 0x44 DUP5 ADD MSTORE SWAP2 SWAP4 DUP5 SWAP3 SWAP1 SWAP2 AND SWAP1 DUP3 SWAP1 DUP2 SWAP1 PUSH1 0x64 DUP3 ADD SWAP1 JUMP JUMPDEST SUB SWAP2 GAS STATICCALL SWAP1 DUP2 ISZERO PUSH2 0x62C JUMPI DUP3 SWAP2 PUSH2 0x406F JUMPI JUMPDEST PUSH1 0x20 DUP3 PUSH1 0x40 MLOAD SWAP1 DUP2 MSTORE RETURN JUMPDEST SWAP1 POP PUSH1 0x20 DUP2 RETURNDATASIZE DUP3 GT PUSH2 0x409C JUMPI JUMPDEST DUP2 PUSH2 0x4089 PUSH1 0x20 SWAP4 DUP4 PUSH2 0x476C JUMP JUMPDEST DUP2 ADD SUB SLT PUSH2 0x637 JUMPI PUSH1 0x20 SWAP2 POP MLOAD CODESIZE PUSH2 0x4064 JUMP JUMPDEST RETURNDATASIZE SWAP2 POP PUSH2 0x407C JUMP JUMPDEST POP CALLVALUE PUSH2 0x31A JUMPI PUSH1 0x20 CALLDATASIZE PUSH1 0x3 NOT ADD SLT PUSH2 0x31A JUMPI PUSH1 0x4 CALLDATALOAD DUP1 DUP3 MSTORE PUSH1 0x1 PUSH1 0x20 MSTORE PUSH1 0x40 DUP3 KECCAK256 PUSH1 0xB DUP2 ADD SWAP1 DUP2 SLOAD SWAP1 PUSH1 0xFF DUP3 AND PUSH1 0x5 DUP2 LT ISZERO PUSH2 0x791 JUMPI SWAP1 PUSH2 0x40E7 PUSH1 0x9 SWAP3 ISZERO PUSH2 0x4B68 JUMP JUMPDEST ADD SLOAD DUP1 TIMESTAMP LT PUSH2 0x4127 JUMPI PUSH31 0xB6FEAE4BEC70344A7D0E99F4C0237ADAAEEE2FBB258266BE400BD8612A332 SWAP3 PUSH1 0x1 PUSH1 0x20 SWAP4 PUSH1 0xFF NOT AND OR SWAP1 SSTORE PUSH1 0x40 MLOAD SWAP1 DUP2 MSTORE LOG2 DUP1 RETURN JUMPDEST PUSH1 0x40 MLOAD PUSH3 0x461BCD PUSH1 0xE5 SHL DUP2 MSTORE PUSH1 0x20 PUSH1 0x4 DUP3 ADD MSTORE PUSH1 0x27 PUSH1 0x24 DUP3 ADD MSTORE PUSH32 0x4D61726B65744D616E616765723A2042657474696E6720706572696F64206E6F PUSH1 0x44 DUP3 ADD MSTORE PUSH7 0x1D08195B991959 PUSH1 0xCA SHL PUSH1 0x64 DUP3 ADD MSTORE PUSH1 0x84 SWAP1 REVERT JUMPDEST POP CALLVALUE PUSH2 0x31A JUMPI PUSH1 0x20 CALLDATASIZE PUSH1 0x3 NOT ADD SLT PUSH2 0x31A JUMPI PUSH1 0xFF PUSH1 0x40 PUSH1 0x20 SWAP3 PUSH1 0x4 CALLDATALOAD DUP2 MSTORE PUSH1 0x11 DUP5 MSTORE KECCAK256 SLOAD AND PUSH1 0x40 MLOAD SWAP1 ISZERO ISZERO DUP2 MSTORE RETURN JUMPDEST POP CALLVALUE PUSH2 0x31A JUMPI PUSH1 0x20 DUP1 PUSH1 0x3 NOT CALLDATASIZE ADD SLT PUSH2 0x637 JUMPI PUSH1 0x4 CALLDATALOAD DUP3 MSTORE PUSH1 0x5 DUP2 MSTORE PUSH1 0x40 DUP3 KECCAK256 SWAP2 PUSH1 0x40 MLOAD DUP1 SWAP4 DUP5 SWAP2 DUP5 DUP3 SLOAD SWAP2 DUP3 DUP2 MSTORE ADD SWAP2 DUP5 MSTORE DUP5 DUP5 KECCAK256 SWAP4 JUMPDEST DUP6 DUP3 DUP3 LT PUSH2 0x41FA JUMPI POP POP POP PUSH2 0x1F7B SWAP3 POP SUB DUP4 PUSH2 0x476C JUMP JUMPDEST DUP6 SLOAD PUSH1 0x1 PUSH1 0x1 PUSH1 0xA0 SHL SUB AND DUP5 MSTORE PUSH1 0x1 SWAP6 DUP7 ADD SWAP6 DUP9 SWAP6 POP SWAP4 ADD SWAP3 ADD PUSH2 0x41E3 JUMP JUMPDEST POP CALLVALUE PUSH2 0x31A JUMPI PUSH1 0x20 DUP1 PUSH1 0x3 NOT CALLDATASIZE ADD SLT PUSH2 0x637 JUMPI PUSH1 0x4 CALLDATALOAD SWAP1 PUSH2 0x4238 PUSH2 0x48E0 JUMP JUMPDEST PUSH2 0x4245 PUSH1 0xE SLOAD DUP4 LT PUSH2 0x5468 JUMP JUMPDEST DUP2 DUP4 MSTORE PUSH1 0x1 DUP1 DUP3 MSTORE PUSH1 0x40 DUP5 KECCAK256 SLOAD PUSH2 0x4266 SWAP1 PUSH1 0x1 PUSH1 0x1 PUSH1 0xA0 SHL SUB AND ISZERO ISZERO PUSH2 0x54B3 JUMP JUMPDEST DUP3 DUP5 MSTORE DUP1 DUP3 MSTORE PUSH1 0xFF PUSH1 0xB PUSH1 0x40 DUP7 KECCAK256 ADD SLOAD AND PUSH1 0x5 DUP2 LT ISZERO PUSH2 0xF0C JUMPI PUSH1 0x2 PUSH2 0x428C SWAP2 EQ PUSH2 0x50CF JUMP JUMPDEST DUP3 DUP5 MSTORE DUP1 DUP3 MSTORE PUSH1 0xA PUSH1 0x40 DUP6 KECCAK256 ADD SLOAD PUSH3 0x278D00 DUP2 ADD DUP1 SWAP2 GT PUSH2 0x3DF9 JUMPI TIMESTAMP LT PUSH2 0x43F1 JUMPI DUP3 DUP5 MSTORE DUP1 DUP3 MSTORE DUP4 PUSH1 0xD PUSH1 0x40 DUP3 KECCAK256 DUP3 DUP2 SSTORE PUSH2 0x42C8 DUP5 DUP3 ADD PUSH2 0x53F3 JUMP JUMPDEST DUP3 PUSH1 0x2 DUP3 ADD SSTORE DUP3 PUSH1 0x3 DUP3 ADD SSTORE DUP3 PUSH1 0x4 DUP3 ADD SSTORE DUP3 PUSH1 0x5 DUP3 ADD SSTORE DUP3 PUSH1 0x6 DUP3 ADD SSTORE DUP3 PUSH1 0x7 DUP3 ADD SSTORE DUP3 PUSH1 0x8 DUP3 ADD SSTORE DUP3 PUSH1 0x9 DUP3 ADD SSTORE DUP3 PUSH1 0xA DUP3 ADD SSTORE DUP3 PUSH1 0xB DUP3 ADD SSTORE DUP3 PUSH1 0xC DUP3 ADD SSTORE ADD SSTORE DUP3 DUP5 MSTORE PUSH1 0x11 DUP3 MSTORE PUSH1 0xFF PUSH1 0x40 DUP6 KECCAK256 SLOAD AND PUSH2 0x43E3 JUMPI JUMPDEST PUSH1 0x15 SLOAD SWAP1 PUSH1 0x1 PUSH1 0x40 SHL DUP3 LT ISZERO PUSH2 0xFD8 JUMPI DUP2 ADD DUP1 PUSH1 0x15 SSTORE DUP2 LT ISZERO PUSH2 0x43CF JUMPI PUSH32 0x4C4561C5B0048424071C1115E9F1E325486E21C21333D968F21097B7B72D12AD SWAP2 DUP4 PUSH1 0x80 SWAP3 PUSH1 0x15 DUP8 MSTORE PUSH32 0x55F448FDEA98C4D29EB340757EF0A66CD03DBB9538908A6A81D96026B71EC475 ADD SSTORE PUSH1 0x26 PUSH1 0x40 MLOAD SWAP2 DUP1 DUP4 MSTORE DUP3 ADD MSTORE PUSH32 0x5065726D616E656E746C792072656D6F76656420616674657220636C61696D20 PUSH1 0x40 DUP3 ADD MSTORE PUSH6 0x1C195C9A5BD9 PUSH1 0xD2 SHL PUSH1 0x60 DUP3 ADD MSTORE LOG2 DUP1 RETURN JUMPDEST PUSH4 0x4E487B71 PUSH1 0xE0 SHL DUP5 MSTORE PUSH1 0x32 PUSH1 0x4 MSTORE PUSH1 0x24 DUP5 REVERT JUMPDEST PUSH2 0x43EC DUP4 PUSH2 0x550B JUMP JUMPDEST PUSH2 0x4320 JUMP JUMPDEST PUSH1 0x40 MLOAD PUSH3 0x461BCD PUSH1 0xE5 SHL DUP2 MSTORE PUSH1 0x4 DUP2 ADD DUP4 SWAP1 MSTORE PUSH1 0x25 PUSH1 0x24 DUP3 ADD MSTORE PUSH32 0x4D61726B65744D616E616765723A20436C61696D20706572696F64206E6F7420 PUSH1 0x44 DUP3 ADD MSTORE PUSH5 0x195B991959 PUSH1 0xDA SHL PUSH1 0x64 DUP3 ADD MSTORE PUSH1 0x84 SWAP1 REVERT JUMPDEST SWAP1 DUP2 MLOAD DUP1 DUP3 MSTORE PUSH1 0x20 DUP1 DUP1 SWAP4 ADD SWAP4 ADD SWAP2 PUSH1 0x0 JUMPDEST DUP3 DUP2 LT PUSH2 0x4464 JUMPI POP POP POP POP SWAP1 JUMP JUMPDEST DUP4 MLOAD PUSH1 0x1 PUSH1 0x1 PUSH1 0xA0 SHL SUB AND DUP6 MSTORE SWAP4 DUP2 ADD SWAP4 SWAP3 DUP2 ADD SWAP3 PUSH1 0x1 ADD PUSH2 0x4456 JUMP JUMPDEST PUSH1 0x24 CALLDATALOAD SWAP1 PUSH1 0x1 PUSH1 0x1 PUSH1 0xA0 SHL SUB DUP3 AND DUP3 SUB PUSH2 0x845 JUMPI JUMP JUMPDEST PUSH1 0x4 CALLDATALOAD SWAP1 PUSH1 0x1 PUSH1 0x1 PUSH1 0xA0 SHL SUB DUP3 AND DUP3 SUB PUSH2 0x845 JUMPI JUMP JUMPDEST PUSH1 0x60 SWAP1 PUSH1 0x3 NOT ADD SLT PUSH2 0x845 JUMPI PUSH1 0x4 CALLDATALOAD SWAP1 PUSH1 0x1 PUSH1 0x1 PUSH1 0xA0 SHL SUB SWAP1 PUSH1 0x24 CALLDATALOAD DUP3 DUP2 AND DUP2 SUB PUSH2 0x845 JUMPI SWAP2 PUSH1 0x44 CALLDATALOAD SWAP1 DUP2 AND DUP2 SUB PUSH2 0x845 JUMPI SWAP1 JUMP JUMPDEST PUSH1 0x9 SLOAD DUP2 LT ISZERO PUSH2 0x4519 JUMPI PUSH1 0x9 PUSH1 0x0 MSTORE PUSH32 0x6E1540171B6C0C960B71A7020D9F60077F6AF931A8BBF590DA0223DACF75C7AF ADD SWAP1 PUSH1 0x0 SWAP1 JUMP JUMPDEST PUSH4 0x4E487B71 PUSH1 0xE0 SHL PUSH1 0x0 MSTORE PUSH1 0x32 PUSH1 0x4 MSTORE PUSH1 0x24 PUSH1 0x0 REVERT JUMPDEST PUSH1 0x10 SLOAD DUP2 LT ISZERO PUSH2 0x4519 JUMPI PUSH1 0x10 PUSH1 0x0 MSTORE PUSH32 0x1B6847DC741A1B0CD08D278845F9D819D87B734759AFB55FE2DE5CB82A9AE672 ADD SWAP1 PUSH1 0x0 SWAP1 JUMP JUMPDEST PUSH1 0x13 SLOAD DUP2 LT ISZERO PUSH2 0x4519 JUMPI PUSH1 0x13 PUSH1 0x0 MSTORE PUSH32 0x66DE8FFDA797E3DE9C05E8FC57B3BF0EC28A930D40B0D285D93C06501CF6A090 ADD SWAP1 PUSH1 0x0 SWAP1 JUMP JUMPDEST DUP1 SLOAD DUP3 LT ISZERO PUSH2 0x4519 JUMPI PUSH1 0x0 MSTORE PUSH1 0x20 PUSH1 0x0 KECCAK256 ADD SWAP1 PUSH1 0x0 SWAP1 JUMP JUMPDEST PUSH1 0x20 SWAP1 DUP2 PUSH1 0x40 DUP2 DUP4 ADD SWAP3 DUP3 DUP2 MSTORE DUP6 MLOAD DUP1 SWAP5 MSTORE ADD SWAP4 ADD SWAP2 PUSH1 0x0 JUMPDEST DUP3 DUP2 LT PUSH2 0x45DC JUMPI POP POP POP POP SWAP1 JUMP JUMPDEST DUP4 MLOAD DUP6 MSTORE SWAP4 DUP2 ADD SWAP4 SWAP3 DUP2 ADD SWAP3 PUSH1 0x1 ADD PUSH2 0x45CE JUMP JUMPDEST SWAP2 SWAP1 DUP3 MLOAD SWAP3 DUP4 DUP3 MSTORE PUSH1 0x0 JUMPDEST DUP5 DUP2 LT PUSH2 0x461C JUMPI POP POP DUP3 PUSH1 0x0 PUSH1 0x20 DUP1 SWAP5 SWAP6 DUP5 ADD ADD MSTORE PUSH1 0x1F DUP1 NOT SWAP2 ADD AND ADD ADD SWAP1 JUMP JUMPDEST PUSH1 0x20 DUP2 DUP4 ADD DUP2 ADD MLOAD DUP5 DUP4 ADD DUP3 ADD MSTORE ADD PUSH2 0x45FB JUMP JUMPDEST SWAP1 PUSH1 0x5 DUP3 LT ISZERO PUSH2 0x463D JUMPI MSTORE JUMP JUMPDEST PUSH4 0x4E487B71 PUSH1 0xE0 SHL PUSH1 0x0 MSTORE PUSH1 0x21 PUSH1 0x4 MSTORE PUSH1 0x24 PUSH1 0x0 REVERT JUMPDEST SWAP1 PUSH1 0x1 DUP1 PUSH1 0xA0 SHL SUB SWAP2 DUP3 DUP2 MLOAD AND DUP3 MSTORE PUSH2 0x467B PUSH1 0x20 DUP3 ADD MLOAD PUSH2 0x1C0 DUP1 PUSH1 0x20 DUP7 ADD MSTORE DUP5 ADD SWAP1 PUSH2 0x45F0 JUMP JUMPDEST SWAP3 PUSH1 0x40 DUP3 ADD MLOAD ISZERO ISZERO PUSH1 0x40 DUP5 ADD MSTORE PUSH1 0x60 DUP3 ADD MLOAD PUSH1 0x60 DUP5 ADD MSTORE PUSH1 0x80 DUP3 ADD MLOAD AND PUSH1 0x80 DUP4 ADD MSTORE PUSH1 0xA0 DUP2 ADD MLOAD PUSH1 0xA0 DUP4 ADD MSTORE PUSH1 0xC0 DUP2 ADD MLOAD PUSH1 0xC0 DUP4 ADD MSTORE PUSH1 0xE0 DUP2 ADD MLOAD PUSH1 0xE0 DUP4 ADD MSTORE PUSH2 0x100 DUP1 DUP3 ADD MLOAD SWAP1 DUP4 ADD MSTORE PUSH2 0x120 DUP1 DUP3 ADD MLOAD SWAP1 DUP4 ADD MSTORE PUSH2 0x140 DUP1 DUP3 ADD MLOAD SWAP1 DUP4 ADD MSTORE PUSH2 0x46EF PUSH2 0x160 DUP1 DUP4 ADD MLOAD SWAP1 DUP5 ADD SWAP1 PUSH2 0x4630 JUMP JUMPDEST PUSH2 0x180 DUP1 DUP3 ADD MLOAD SWAP1 DUP4 ADD MSTORE PUSH2 0x1A0 DUP1 SWAP2 ADD MLOAD ISZERO ISZERO SWAP2 ADD MSTORE SWAP1 JUMP JUMPDEST PUSH1 0x40 SWAP1 PUSH1 0x3 NOT ADD SLT PUSH2 0x845 JUMPI PUSH1 0x4 CALLDATALOAD SWAP1 PUSH1 0x24 CALLDATALOAD SWAP1 JUMP JUMPDEST PUSH8 0xFFFFFFFFFFFFFFFF DUP2 GT PUSH2 0xEF6 JUMPI PUSH1 0x40 MSTORE JUMP JUMPDEST PUSH2 0x1C0 DUP2 ADD SWAP1 DUP2 LT PUSH8 0xFFFFFFFFFFFFFFFF DUP3 GT OR PUSH2 0xEF6 JUMPI PUSH1 0x40 MSTORE JUMP JUMPDEST PUSH1 0x40 DUP2 ADD SWAP1 DUP2 LT PUSH8 0xFFFFFFFFFFFFFFFF DUP3 GT OR PUSH2 0xEF6 JUMPI PUSH1 0x40 MSTORE JUMP JUMPDEST SWAP1 PUSH1 0x1F DUP1 NOT SWAP2 ADD AND DUP2 ADD SWAP1 DUP2 LT PUSH8 0xFFFFFFFFFFFFFFFF DUP3 GT OR PUSH2 0xEF6 JUMPI PUSH1 0x40 MSTORE JUMP JUMPDEST PUSH8 0xFFFFFFFFFFFFFFFF DUP2 GT PUSH2 0xEF6 JUMPI PUSH1 0x1F ADD PUSH1 0x1F NOT AND PUSH1 0x20 ADD SWAP1 JUMP JUMPDEST DUP2 PUSH1 0x1F DUP3 ADD SLT ISZERO PUSH2 0x845 JUMPI DUP1 CALLDATALOAD SWAP1 PUSH2 0x47C1 DUP3 PUSH2 0x478E JUMP JUMPDEST SWAP3 PUSH2 0x47CF PUSH1 0x40 MLOAD SWAP5 DUP6 PUSH2 0x476C JUMP JUMPDEST DUP3 DUP5 MSTORE PUSH1 0x20 DUP4 DUP4 ADD ADD GT PUSH2 0x845 JUMPI DUP2 PUSH1 0x0 SWAP3 PUSH1 0x20 DUP1 SWAP4 ADD DUP4 DUP7 ADD CALLDATACOPY DUP4 ADD ADD MSTORE SWAP1 JUMP JUMPDEST SWAP1 PUSH1 0x1 DUP3 DUP2 SHR SWAP3 AND DUP1 ISZERO PUSH2 0x4821 JUMPI JUMPDEST PUSH1 0x20 DUP4 LT EQ PUSH2 0x480B JUMPI JUMP JUMPDEST PUSH4 0x4E487B71 PUSH1 0xE0 SHL PUSH1 0x0 MSTORE PUSH1 0x22 PUSH1 0x4 MSTORE PUSH1 0x24 PUSH1 0x0 REVERT JUMPDEST SWAP2 PUSH1 0x7F AND SWAP2 PUSH2 0x4800 JUMP JUMPDEST SWAP1 PUSH1 0x40 MLOAD SWAP2 DUP3 PUSH1 0x0 DUP3 SLOAD SWAP3 PUSH2 0x483F DUP5 PUSH2 0x47F1 JUMP JUMPDEST SWAP1 DUP2 DUP5 MSTORE PUSH1 0x1 SWAP5 DUP6 DUP2 AND SWAP1 DUP2 PUSH1 0x0 EQ PUSH2 0x48AE JUMPI POP PUSH1 0x1 EQ PUSH2 0x486B JUMPI JUMPDEST POP POP PUSH2 0x4869 SWAP3 POP SUB DUP4 PUSH2 0x476C JUMP JUMPDEST JUMP JUMPDEST SWAP1 SWAP4 SWAP2 POP PUSH1 0x0 MSTORE PUSH1 0x20 SWAP1 DUP2 PUSH1 0x0 KECCAK256 SWAP4 PUSH1 0x0 SWAP2 JUMPDEST DUP2 DUP4 LT PUSH2 0x4896 JUMPI POP POP PUSH2 0x4869 SWAP4 POP DUP3 ADD ADD CODESIZE DUP1 PUSH2 0x485B JUMP JUMPDEST DUP6 SLOAD DUP9 DUP5 ADD DUP6 ADD MSTORE SWAP5 DUP6 ADD SWAP5 DUP8 SWAP5 POP SWAP2 DUP4 ADD SWAP2 PUSH2 0x487E JUMP JUMPDEST SWAP2 POP POP PUSH2 0x4869 SWAP5 POP PUSH1 0x20 SWAP3 POP PUSH1 0xFF NOT AND DUP3 DUP5 ADD MSTORE ISZERO ISZERO PUSH1 0x5 SHL DUP3 ADD ADD CODESIZE DUP1 PUSH2 0x485B JUMP JUMPDEST PUSH1 0x24 CALLDATALOAD SWAP1 DUP2 ISZERO ISZERO DUP3 SUB PUSH2 0x845 JUMPI JUMP JUMPDEST PUSH1 0x0 SLOAD PUSH1 0x1 PUSH1 0x1 PUSH1 0xA0 SHL SUB AND CALLER SUB PUSH2 0x48F4 JUMPI JUMP JUMPDEST PUSH1 0x40 MLOAD PUSH4 0x118CDAA7 PUSH1 0xE0 SHL DUP2 MSTORE CALLER PUSH1 0x4 DUP3 ADD MSTORE PUSH1 0x24 SWAP1 REVERT JUMPDEST ISZERO PUSH2 0x4913 JUMPI JUMP JUMPDEST PUSH1 0x40 MLOAD PUSH3 0x461BCD PUSH1 0xE5 SHL DUP2 MSTORE PUSH1 0x20 PUSH1 0x4 DUP3 ADD MSTORE PUSH1 0x21 PUSH1 0x24 DUP3 ADD MSTORE PUSH32 0x4D61726B65744D616E616765723A2057616C6C657420626C61636B6C69737465 PUSH1 0x44 DUP3 ADD MSTORE PUSH1 0x19 PUSH1 0xFA SHL PUSH1 0x64 DUP3 ADD MSTORE PUSH1 0x84 SWAP1 REVERT JUMPDEST ISZERO PUSH2 0x4969 JUMPI JUMP JUMPDEST PUSH1 0x40 MLOAD PUSH3 0x461BCD PUSH1 0xE5 SHL DUP2 MSTORE PUSH1 0x20 PUSH1 0x4 DUP3 ADD MSTORE PUSH1 0x22 PUSH1 0x24 DUP3 ADD MSTORE PUSH32 0x4D61726B65744D616E616765723A20546F6B656E206E6F7420737570706F7274 PUSH1 0x44 DUP3 ADD MSTORE PUSH2 0x1959 PUSH1 0xF2 SHL PUSH1 0x64 DUP3 ADD MSTORE PUSH1 0x84 SWAP1 REVERT JUMPDEST SWAP2 SWAP1 DUP3 ADD DUP1 SWAP3 GT PUSH2 0x2C4F JUMPI JUMP JUMPDEST PUSH1 0x0 NOT DUP2 EQ PUSH2 0x2C4F JUMPI PUSH1 0x1 ADD SWAP1 JUMP JUMPDEST PUSH1 0x5 DUP3 LT ISZERO PUSH2 0x463D JUMPI MSTORE JUMP JUMPDEST DUP2 DUP2 LT PUSH2 0x49EC JUMPI POP POP JUMP JUMPDEST PUSH1 0x0 DUP2 SSTORE PUSH1 0x1 ADD PUSH2 0x49E1 JUMP JUMPDEST SWAP1 DUP2 SLOAD SWAP2 PUSH1 0x1 PUSH1 0x40 SHL DUP4 LT ISZERO PUSH2 0xEF6 JUMPI DUP3 PUSH2 0xB80 SWAP2 PUSH1 0x1 PUSH2 0x4869 SWAP6 ADD DUP2 SSTORE PUSH2 0x459D JUMP JUMPDEST RETURNDATASIZE ISZERO PUSH2 0x4A46 JUMPI RETURNDATASIZE SWAP1 PUSH2 0x4A2C DUP3 PUSH2 0x478E JUMP JUMPDEST SWAP2 PUSH2 0x4A3A PUSH1 0x40 MLOAD SWAP4 DUP5 PUSH2 0x476C JUMP JUMPDEST DUP3 MSTORE RETURNDATASIZE PUSH1 0x0 PUSH1 0x20 DUP5 ADD RETURNDATACOPY JUMP JUMPDEST PUSH1 0x60 SWAP1 JUMP JUMPDEST ISZERO PUSH2 0x4A52 JUMPI JUMP JUMPDEST PUSH1 0x40 MLOAD PUSH3 0x461BCD PUSH1 0xE5 SHL DUP2 MSTORE PUSH1 0x20 PUSH1 0x4 DUP3 ADD MSTORE PUSH1 0x2B PUSH1 0x24 DUP3 ADD MSTORE PUSH32 0x4D61726B65744D616E616765723A20466565207472616E7366657220746F206F PUSH1 0x44 DUP3 ADD MSTORE PUSH11 0x1DDB995C8819985A5B1959 PUSH1 0xAA SHL PUSH1 0x64 DUP3 ADD MSTORE PUSH1 0x84 SWAP1 REVERT JUMPDEST PUSH1 0x40 MLOAD PUSH4 0x23B872DD PUSH1 0xE0 SHL PUSH1 0x20 DUP3 ADD MSTORE PUSH1 0x1 PUSH1 0x1 PUSH1 0xA0 SHL SUB SWAP3 DUP4 AND PUSH1 0x24 DUP3 ADD MSTORE SWAP3 SWAP1 SWAP2 AND PUSH1 0x44 DUP4 ADD MSTORE PUSH1 0x64 DUP1 DUP4 ADD SWAP4 SWAP1 SWAP4 MSTORE SWAP2 DUP2 MSTORE PUSH1 0xA0 DUP2 ADD SWAP2 DUP2 DUP4 LT PUSH8 0xFFFFFFFFFFFFFFFF DUP5 GT OR PUSH2 0xEF6 JUMPI PUSH2 0x4869 SWAP3 PUSH1 0x40 MSTORE JUMPDEST SWAP1 PUSH1 0x0 PUSH1 0x20 SWAP2 DUP3 DUP2 MLOAD SWAP2 ADD DUP3 DUP6 GAS CALL ISZERO PUSH2 0x4B5C JUMPI PUSH1 0x0 MLOAD RETURNDATASIZE PUSH2 0x4B53 JUMPI POP PUSH1 0x1 PUSH1 0x1 PUSH1 0xA0 SHL SUB DUP2 AND EXTCODESIZE ISZERO JUMPDEST PUSH2 0x4B31 JUMPI POP JUMP JUMPDEST PUSH1 0x40 MLOAD PUSH4 0x5274AFE7 PUSH1 0xE0 SHL DUP2 MSTORE PUSH1 0x1 PUSH1 0x1 PUSH1 0xA0 SHL SUB SWAP1 SWAP2 AND PUSH1 0x4 DUP3 ADD MSTORE PUSH1 0x24 SWAP1 REVERT JUMPDEST PUSH1 0x1 EQ ISZERO PUSH2 0x4B2A JUMP JUMPDEST PUSH1 0x40 MLOAD RETURNDATASIZE PUSH1 0x0 DUP3 RETURNDATACOPY RETURNDATASIZE SWAP1 REVERT JUMPDEST ISZERO PUSH2 0x4B6F JUMPI JUMP JUMPDEST PUSH1 0x64 PUSH1 0x40 MLOAD PUSH3 0x461BCD PUSH1 0xE5 SHL DUP2 MSTORE PUSH1 0x20 PUSH1 0x4 DUP3 ADD MSTORE PUSH1 0x20 PUSH1 0x24 DUP3 ADD MSTORE PUSH32 0x4D61726B65744D616E616765723A204D61726B6574206E6F7420616374697665 PUSH1 0x44 DUP3 ADD MSTORE REVERT JUMPDEST ISZERO PUSH2 0x4BBA JUMPI JUMP JUMPDEST PUSH1 0x40 MLOAD PUSH3 0x461BCD PUSH1 0xE5 SHL DUP2 MSTORE PUSH1 0x20 PUSH1 0x4 DUP3 ADD MSTORE PUSH1 0x23 PUSH1 0x24 DUP3 ADD MSTORE PUSH32 0x4D61726B65744D616E616765723A2042657474696E6720706572696F6420656E PUSH1 0x44 DUP3 ADD MSTORE PUSH3 0x191959 PUSH1 0xEA SHL PUSH1 0x64 DUP3 ADD MSTORE PUSH1 0x84 SWAP1 REVERT JUMPDEST ISZERO PUSH2 0x4C12 JUMPI JUMP JUMPDEST PUSH1 0x40 MLOAD PUSH3 0x461BCD PUSH1 0xE5 SHL DUP2 MSTORE PUSH1 0x20 PUSH1 0x4 DUP3 ADD MSTORE PUSH1 0x1D PUSH1 0x24 DUP3 ADD MSTORE PUSH32 0x4D61726B65744D616E616765723A20496E76616C6964206F7074696F6E000000 PUSH1 0x44 DUP3 ADD MSTORE PUSH1 0x64 SWAP1 REVERT JUMPDEST ISZERO PUSH2 0x4C5E JUMPI JUMP JUMPDEST PUSH1 0x40 MLOAD PUSH3 0x461BCD PUSH1 0xE5 SHL DUP2 MSTORE PUSH1 0x20 PUSH1 0x4 DUP3 ADD MSTORE PUSH1 0x22 PUSH1 0x24 DUP3 ADD MSTORE PUSH32 0x4D61726B65744D616E616765723A2042656C6F77206D696E696D756D20737461 PUSH1 0x44 DUP3 ADD MSTORE PUSH2 0x6B65 PUSH1 0xF0 SHL PUSH1 0x64 DUP3 ADD MSTORE PUSH1 0x84 SWAP1 REVERT JUMPDEST SWAP1 DUP2 SLOAD SWAP2 PUSH1 0x1 PUSH1 0x40 SHL DUP4 LT ISZERO PUSH2 0xEF6 JUMPI DUP3 PUSH2 0x2216 SWAP2 PUSH1 0x1 PUSH2 0x4869 SWAP6 ADD DUP2 SSTORE PUSH2 0x459D JUMP JUMPDEST ISZERO PUSH2 0x4CD8 JUMPI JUMP JUMPDEST PUSH1 0x40 MLOAD PUSH3 0x461BCD PUSH1 0xE5 SHL DUP2 MSTORE PUSH1 0x20 PUSH1 0x4 DUP3 ADD MSTORE PUSH1 0x25 PUSH1 0x24 DUP3 ADD MSTORE PUSH32 0x4D61726B65744D616E616765723A204E6F20737570706F727420746F20776974 PUSH1 0x44 DUP3 ADD MSTORE PUSH5 0x6864726177 PUSH1 0xD8 SHL PUSH1 0x64 DUP3 ADD MSTORE PUSH1 0x84 SWAP1 REVERT JUMPDEST ISZERO PUSH2 0x4D32 JUMPI JUMP JUMPDEST PUSH1 0x40 MLOAD PUSH3 0x461BCD PUSH1 0xE5 SHL DUP2 MSTORE PUSH1 0x20 PUSH1 0x4 DUP3 ADD MSTORE PUSH1 0x28 PUSH1 0x24 DUP3 ADD MSTORE PUSH32 0x4D61726B65744D616E616765723A204D61726B6574206E6F7420696E20656E64 PUSH1 0x44 DUP3 ADD MSTORE PUSH8 0x6564207374617465 PUSH1 0xC0 SHL PUSH1 0x64 DUP3 ADD MSTORE PUSH1 0x84 SWAP1 REVERT JUMPDEST ISZERO PUSH2 0x4D8F JUMPI JUMP JUMPDEST PUSH1 0x40 MLOAD PUSH3 0x461BCD PUSH1 0xE5 SHL DUP2 MSTORE PUSH1 0x20 PUSH1 0x4 DUP3 ADD MSTORE PUSH1 0x1F PUSH1 0x24 DUP3 ADD MSTORE PUSH32 0x4D61726B65744D616E616765723A20416C7265616479207265736F6C76656400 PUSH1 0x44 DUP3 ADD MSTORE PUSH1 0x64 SWAP1 REVERT JUMPDEST PUSH1 0x40 MLOAD SWAP1 PUSH2 0x4DE1 DUP3 PUSH2 0x4750 JUMP JUMPDEST PUSH1 0x19 DUP3 MSTORE PUSH32 0x5265736F6C7574696F6E20706572696F64206578706972656400000000000000 PUSH1 0x20 DUP4 ADD MSTORE JUMP JUMPDEST MLOAD SWAP1 DUP2 ISZERO ISZERO DUP3 SUB PUSH2 0x845 JUMPI JUMP JUMPDEST SWAP2 SWAP1 DUP3 PUSH1 0x40 SWAP2 SUB SLT PUSH2 0x845 JUMPI PUSH1 0x20 PUSH2 0x4E31 DUP4 PUSH2 0x4E0D JUMP JUMPDEST SWAP3 ADD MLOAD SWAP1 JUMP JUMPDEST SWAP1 PUSH1 0x0 DUP3 DUP2 MSTORE PUSH1 0x1 PUSH1 0x20 MSTORE PUSH1 0x40 SWAP1 DUP2 DUP2 KECCAK256 PUSH1 0xB DUP2 ADD PUSH1 0xFF DUP2 SLOAD AND PUSH1 0x5 DUP2 LT ISZERO PUSH2 0x1954 JUMPI PUSH1 0x1 PUSH2 0x4E66 SWAP2 EQ PUSH2 0x4D2B JUMP JUMPDEST DUP5 ISZERO ISZERO DUP1 PUSH2 0x50C1 JUMPI JUMPDEST ISZERO PUSH2 0x506F JUMPI PUSH1 0xD DUP3 ADD PUSH2 0x4E86 PUSH1 0xFF DUP3 SLOAD AND ISZERO PUSH2 0x4D88 JUMP JUMPDEST PUSH1 0xA DUP4 ADD SLOAD TIMESTAMP LT ISZERO PUSH2 0x505D JUMPI PUSH1 0xC SLOAD DUP6 MLOAD PUSH4 0x33138655 PUSH1 0xE2 SHL DUP2 MSTORE PUSH1 0x4 DUP2 ADD DUP10 SWAP1 MSTORE PUSH1 0x1 PUSH1 0x1 PUSH1 0xA0 SHL SUB SWAP5 SWAP2 DUP8 SWAP1 DUP3 SWAP1 PUSH1 0x24 SWAP1 DUP3 SWAP1 DUP10 AND GAS STATICCALL DUP1 ISZERO PUSH2 0x5053 JUMPI DUP9 SWAP1 DUP8 SWAP3 DUP9 SWAP2 PUSH2 0x5030 JUMPI JUMPDEST POP DUP3 PUSH2 0x5026 JUMPI JUMPDEST POP POP ISZERO PUSH2 0x4FBC JUMPI PUSH1 0xC ADD DUP7 SWAP1 SSTORE DUP1 SLOAD PUSH1 0xFF NOT SWAP1 DUP2 AND PUSH1 0x1 OR SWAP1 SWAP2 SSTORE DUP2 SLOAD AND PUSH1 0x2 OR SWAP1 SSTORE PUSH2 0x4F03 DUP6 PUSH2 0x5181 JUMP JUMPDEST PUSH1 0xD SLOAD AND DUP1 PUSH2 0x4F3B JUMPI JUMPDEST POP POP PUSH32 0x6DFC24F0F2FB42E49FB4FA3FFA8ABB148CAB908A1FB8335B3F128A08B2594AF1 SWAP2 PUSH1 0x20 SWAP2 MLOAD SWAP1 DUP2 MSTORE LOG2 JUMP JUMPDEST DUP1 EXTCODESIZE ISZERO PUSH2 0x637 JUMPI DUP2 DUP1 SWAP2 PUSH1 0x44 DUP6 MLOAD DUP1 SWAP6 DUP2 SWAP4 PUSH3 0xFF4A73 PUSH1 0xE8 SHL DUP4 MSTORE DUP11 PUSH1 0x4 DUP5 ADD MSTORE DUP10 PUSH1 0x24 DUP5 ADD MSTORE GAS CALL SWAP1 DUP2 ISZERO PUSH2 0x4FB1 JUMPI POP SWAP2 PUSH32 0x6DFC24F0F2FB42E49FB4FA3FFA8ABB148CAB908A1FB8335B3F128A08B2594AF1 SWAP4 SWAP2 PUSH1 0x20 SWAP4 PUSH2 0x4FA2 JUMPI JUMPDEST POP SWAP2 DUP2 SWAP4 POP PUSH2 0x4F0D JUMP JUMPDEST PUSH2 0x4FAB SWAP1 PUSH2 0x471F JUMP JUMPDEST CODESIZE PUSH2 0x4F98 JUMP JUMPDEST DUP4 MLOAD SWAP1 RETURNDATASIZE SWAP1 DUP3 RETURNDATACOPY RETURNDATASIZE SWAP1 REVERT JUMPDEST DUP6 MLOAD PUSH3 0x461BCD PUSH1 0xE5 SHL DUP2 MSTORE PUSH1 0x20 PUSH1 0x4 DUP3 ADD MSTORE PUSH1 0x3A PUSH1 0x24 DUP3 ADD MSTORE PUSH32 0x4D61726B65744D616E616765723A20496E73756666696369656E742076657269 PUSH1 0x44 DUP3 ADD MSTORE PUSH32 0x6669657220766F74657320666F722074686973206F7074696F6E000000000000 PUSH1 0x64 DUP3 ADD MSTORE PUSH1 0x84 SWAP1 REVERT JUMPDEST EQ SWAP1 POP DUP8 CODESIZE PUSH2 0x4ED7 JUMP JUMPDEST SWAP1 POP PUSH2 0x504A SWAP2 SWAP3 POP DUP9 RETURNDATASIZE DUP11 GT PUSH2 0x1D39 JUMPI PUSH2 0x1D29 DUP2 DUP4 PUSH2 0x476C JUMP JUMPDEST SWAP2 SWAP1 SWAP2 CODESIZE PUSH2 0x4ED0 JUMP JUMPDEST DUP8 MLOAD RETURNDATASIZE DUP9 DUP3 RETURNDATACOPY RETURNDATASIZE SWAP1 REVERT JUMPDEST POP POP POP POP POP POP PUSH2 0x4869 SWAP1 PUSH2 0x20DB PUSH2 0x4DD4 JUMP JUMPDEST DUP4 MLOAD PUSH3 0x461BCD PUSH1 0xE5 SHL DUP2 MSTORE PUSH1 0x20 PUSH1 0x4 DUP3 ADD MSTORE PUSH1 0x25 PUSH1 0x24 DUP3 ADD MSTORE PUSH32 0x4D61726B65744D616E616765723A20496E76616C69642077696E6E696E67206F PUSH1 0x44 DUP3 ADD MSTORE PUSH5 0x383A34B7B7 PUSH1 0xD9 SHL PUSH1 0x64 DUP3 ADD MSTORE PUSH1 0x84 SWAP1 REVERT JUMPDEST POP PUSH1 0x3 DUP3 ADD SLOAD DUP6 GT ISZERO PUSH2 0x4E6F JUMP JUMPDEST ISZERO PUSH2 0x50D6 JUMPI JUMP JUMPDEST PUSH1 0x40 MLOAD PUSH3 0x461BCD PUSH1 0xE5 SHL DUP2 MSTORE PUSH1 0x20 PUSH1 0x4 DUP3 ADD MSTORE PUSH1 0x22 PUSH1 0x24 DUP3 ADD MSTORE PUSH32 0x4D61726B65744D616E616765723A204D61726B6574206E6F74207265736F6C76 PUSH1 0x44 DUP3 ADD MSTORE PUSH2 0x1959 PUSH1 0xF2 SHL PUSH1 0x64 DUP3 ADD MSTORE PUSH1 0x84 SWAP1 REVERT JUMPDEST SWAP1 PUSH2 0x517C PUSH32 0x4C4561C5B0048424071C1115E9F1E325486E21C21333D968F21097B7B72D12AD SWAP2 DUP4 PUSH1 0x0 MSTORE PUSH1 0x1 PUSH1 0x20 MSTORE PUSH1 0xB PUSH1 0x40 PUSH1 0x0 KECCAK256 ADD PUSH1 0x3 PUSH1 0xFF NOT DUP3 SLOAD AND OR SWAP1 SSTORE PUSH1 0x40 MLOAD SWAP2 DUP3 SWAP2 PUSH1 0x20 DUP4 MSTORE PUSH1 0x20 DUP4 ADD SWAP1 PUSH2 0x45F0 JUMP JUMPDEST SUB SWAP1 LOG2 JUMP JUMPDEST SWAP1 PUSH1 0x0 DUP3 DUP2 MSTORE PUSH1 0x20 SWAP1 PUSH1 0x1 DUP3 MSTORE PUSH1 0x40 SWAP2 DUP3 DUP3 KECCAK256 SWAP5 DUP3 SWAP2 PUSH1 0x1 SWAP2 PUSH1 0x3 DUP9 ADD SLOAD SWAP3 PUSH1 0xC DUP10 ADD SLOAD SWAP1 JUMPDEST DUP5 DUP2 GT ISZERO PUSH2 0x5282 JUMPI POP POP POP POP POP PUSH2 0x1F4 SWAP1 DUP2 DUP2 MUL SWAP2 DUP2 DUP4 DIV EQ SWAP1 ISZERO OR ISZERO PUSH2 0x526E JUMPI PUSH2 0x2710 SWAP1 DIV SWAP4 DUP5 PUSH2 0x51DB JUMPI JUMPDEST POP POP POP SWAP1 POP JUMP JUMPDEST PUSH1 0x1 DUP1 PUSH1 0xA0 SHL SUB PUSH2 0x51FA PUSH1 0x4 DUP3 PUSH1 0xB SLOAD AND SWAP4 ADD SWAP3 DUP8 DUP4 DUP6 SLOAD AND SWAP2 PUSH2 0x5338 JUMP JUMPDEST DUP1 PUSH1 0xB SLOAD AND SWAP2 SLOAD AND DUP2 EXTCODESIZE ISZERO PUSH2 0x1CB7 JUMPI DUP4 MLOAD PUSH4 0x48FEF595 PUSH1 0xE0 SHL DUP2 MSTORE PUSH1 0x1 PUSH1 0x1 PUSH1 0xA0 SHL SUB SWAP2 SWAP1 SWAP2 AND PUSH1 0x4 DUP3 ADD MSTORE PUSH1 0x24 DUP2 ADD SWAP6 SWAP1 SWAP6 MSTORE SWAP3 SWAP4 SWAP3 DUP2 SWAP1 DUP5 SWAP1 PUSH1 0x44 SWAP1 DUP3 SWAP1 DUP5 SWAP1 GAS CALL SWAP2 DUP3 ISZERO PUSH2 0x5264 JUMPI POP POP PUSH2 0x5255 JUMPI JUMPDEST DUP1 DUP1 DUP4 SWAP3 PUSH2 0x51D4 JUMP JUMPDEST PUSH2 0x525E SWAP1 PUSH2 0x471F JUMP JUMPDEST CODESIZE PUSH2 0x524C JUMP JUMPDEST MLOAD SWAP1 RETURNDATASIZE SWAP1 DUP3 RETURNDATACOPY RETURNDATASIZE SWAP1 REVERT JUMPDEST PUSH4 0x4E487B71 PUSH1 0xE0 SHL DUP3 MSTORE PUSH1 0x11 PUSH1 0x4 MSTORE PUSH1 0x24 DUP3 REVERT JUMPDEST DUP2 DUP2 SUB PUSH2 0x5298 JUMPI JUMPDEST PUSH2 0x5293 SWAP1 PUSH2 0x49C6 JUMP JUMPDEST PUSH2 0x51A7 JUMP JUMPDEST PUSH1 0xB SLOAD PUSH1 0x4 DUP12 DUP2 ADD SLOAD DUP11 MLOAD PUSH4 0xDC4CE349 PUSH1 0xE0 SHL DUP2 MSTORE SWAP2 DUP3 ADD DUP7 SWAP1 MSTORE PUSH1 0x24 DUP3 ADD DUP5 SWAP1 MSTORE PUSH1 0x1 PUSH1 0x1 PUSH1 0xA0 SHL SUB SWAP1 DUP2 AND PUSH1 0x44 DUP4 ADD MSTORE SWAP3 SWAP8 SWAP3 SWAP1 SWAP2 DUP7 SWAP2 DUP4 SWAP2 PUSH1 0x64 SWAP2 DUP4 SWAP2 AND GAS STATICCALL SWAP1 DUP2 ISZERO PUSH2 0x532E JUMPI DUP9 SWAP2 PUSH2 0x52FF JUMPI JUMPDEST POP PUSH2 0x52F7 SWAP1 PUSH2 0x5293 SWAP3 PUSH2 0x49B9 JUMP JUMPDEST SWAP6 SWAP1 POP PUSH2 0x528A JUMP JUMPDEST SWAP1 POP DUP5 DUP2 DUP2 RETURNDATASIZE DUP4 GT PUSH2 0x5327 JUMPI JUMPDEST PUSH2 0x5316 DUP2 DUP4 PUSH2 0x476C JUMP JUMPDEST DUP2 ADD SUB SLT PUSH2 0x2E10 JUMPI MLOAD PUSH2 0x5293 PUSH2 0x52E9 JUMP JUMPDEST POP RETURNDATASIZE PUSH2 0x530C JUMP JUMPDEST DUP10 MLOAD RETURNDATASIZE DUP11 DUP3 RETURNDATACOPY RETURNDATASIZE SWAP1 REVERT JUMPDEST SWAP1 SWAP2 PUSH1 0x1 PUSH1 0x1 PUSH1 0xA0 SHL SUB AND DUP1 PUSH2 0x53B2 JUMPI POP PUSH1 0x0 DUP1 DUP1 SWAP4 DUP2 SWAP4 GAS CALL PUSH2 0x535A PUSH2 0x4A1B JUMP JUMPDEST POP ISZERO PUSH2 0x5362 JUMPI JUMP JUMPDEST PUSH1 0x40 MLOAD PUSH3 0x461BCD PUSH1 0xE5 SHL DUP2 MSTORE PUSH1 0x20 PUSH1 0x4 DUP3 ADD MSTORE PUSH1 0x22 PUSH1 0x24 DUP3 ADD MSTORE PUSH32 0x4D61726B65744D616E616765723A20455448207472616E73666572206661696C PUSH1 0x44 DUP3 ADD MSTORE PUSH2 0x1959 PUSH1 0xF2 SHL PUSH1 0x64 DUP3 ADD MSTORE PUSH1 0x84 SWAP1 REVERT JUMPDEST PUSH1 0x40 MLOAD PUSH4 0xA9059CBB PUSH1 0xE0 SHL PUSH1 0x20 DUP3 ADD MSTORE PUSH1 0x1 PUSH1 0x1 PUSH1 0xA0 SHL SUB SWAP3 SWAP1 SWAP3 AND PUSH1 0x24 DUP4 ADD MSTORE PUSH1 0x44 DUP1 DUP4 ADD SWAP4 SWAP1 SWAP4 MSTORE SWAP2 DUP2 MSTORE PUSH2 0x4869 SWAP2 PUSH2 0x53EE PUSH1 0x64 DUP4 PUSH2 0x476C JUMP JUMPDEST PUSH2 0x4B00 JUMP JUMPDEST PUSH2 0x53FD DUP2 SLOAD PUSH2 0x47F1 JUMP JUMPDEST SWAP1 DUP2 PUSH2 0x5407 JUMPI POP POP JUMP JUMPDEST DUP2 PUSH1 0x1F PUSH1 0x0 SWAP4 GT PUSH1 0x1 EQ PUSH2 0x5419 JUMPI POP SSTORE JUMP JUMPDEST SWAP1 DUP1 DUP4 SWAP2 DUP3 MSTORE PUSH2 0x5438 PUSH1 0x1F PUSH1 0x20 DUP5 KECCAK256 SWAP5 ADD PUSH1 0x5 SHR DUP5 ADD PUSH1 0x1 DUP6 ADD PUSH2 0x49E1 JUMP JUMPDEST SSTORE SSTORE JUMP JUMPDEST PUSH8 0xFFFFFFFFFFFFFFFF DUP2 GT PUSH2 0xEF6 JUMPI PUSH1 0x5 SHL PUSH1 0x20 ADD SWAP1 JUMP JUMPDEST DUP1 MLOAD DUP3 LT ISZERO PUSH2 0x4519 JUMPI PUSH1 0x20 SWAP2 PUSH1 0x5 SHL ADD ADD SWAP1 JUMP JUMPDEST ISZERO PUSH2 0x546F JUMPI JUMP JUMPDEST PUSH1 0x64 PUSH1 0x40 MLOAD PUSH3 0x461BCD PUSH1 0xE5 SHL DUP2 MSTORE PUSH1 0x20 PUSH1 0x4 DUP3 ADD MSTORE PUSH1 0x20 PUSH1 0x24 DUP3 ADD MSTORE PUSH32 0x4D61726B65744D616E616765723A20496E76616C6964206D61726B6574204944 PUSH1 0x44 DUP3 ADD MSTORE REVERT JUMPDEST ISZERO PUSH2 0x54BA JUMPI JUMP JUMPDEST PUSH1 0x40 MLOAD PUSH3 0x461BCD PUSH1 0xE5 SHL DUP2 MSTORE PUSH1 0x20 PUSH1 0x4 DUP3 ADD MSTORE PUSH1 0x24 DUP1 DUP3 ADD MSTORE PUSH32 0x4D61726B65744D616E616765723A204D61726B657420646F6573206E6F742065 PUSH1 0x44 DUP3 ADD MSTORE PUSH4 0x1E1A5CDD PUSH1 0xE2 SHL PUSH1 0x64 DUP3 ADD MSTORE PUSH1 0x84 SWAP1 REVERT JUMPDEST PUSH1 0x0 JUMPDEST PUSH1 0x10 SWAP1 DUP2 SLOAD SWAP2 DUP3 DUP3 LT ISZERO PUSH2 0x55BF JUMPI DUP4 SWAP3 PUSH2 0x5527 DUP4 PUSH2 0x452F JUMP JUMPDEST SWAP5 SWAP1 SLOAD PUSH1 0x3 SWAP6 DUP7 SHL SHR EQ PUSH2 0x5546 JUMPI POP POP PUSH2 0x5541 SWAP2 POP PUSH2 0x49C6 JUMP JUMPDEST PUSH2 0x550E JUMP JUMPDEST SWAP1 SWAP2 PUSH1 0x0 NOT SWAP2 DUP1 DUP4 ADD SWAP2 SWAP1 DUP3 GT PUSH2 0x2C4F JUMPI PUSH2 0xB80 PUSH2 0x5566 PUSH2 0x5572 SWAP4 PUSH2 0x452F JUMP JUMPDEST SWAP1 SLOAD SWAP1 DUP8 SHL SHR SWAP2 PUSH2 0x452F JUMP JUMPDEST DUP2 SLOAD DUP1 ISZERO PUSH2 0x55A9 JUMPI DUP2 ADD SWAP3 PUSH2 0x5586 DUP5 PUSH2 0x452F JUMP JUMPDEST DUP2 SWAP4 SWAP2 SLOAD SWAP3 SHL SHL NOT AND SWAP1 SSTORE SSTORE PUSH1 0x0 MSTORE PUSH1 0x11 PUSH1 0x20 MSTORE PUSH1 0x40 PUSH1 0x0 KECCAK256 PUSH1 0xFF NOT DUP2 SLOAD AND SWAP1 SSTORE JUMP JUMPDEST PUSH4 0x4E487B71 PUSH1 0xE0 SHL PUSH1 0x0 MSTORE PUSH1 0x31 PUSH1 0x4 MSTORE PUSH1 0x24 PUSH1 0x0 REVERT JUMPDEST POP POP POP POP JUMP JUMPDEST PUSH1 0x40 MLOAD SWAP1 PUSH2 0x55D2 DUP3 PUSH2 0x4733 JUMP JUMPDEST DUP2 PUSH2 0x1A0 PUSH1 0x0 SWAP2 DUP3 DUP2 MSTORE PUSH1 0x60 PUSH1 0x20 DUP3 ADD MSTORE DUP3 PUSH1 0x40 DUP3 ADD MSTORE DUP3 PUSH1 0x60 DUP3 ADD MSTORE DUP3 PUSH1 0x80 DUP3 ADD MSTORE DUP3 PUSH1 0xA0 DUP3 ADD MSTORE DUP3 PUSH1 0xC0 DUP3 ADD MSTORE DUP3 PUSH1 0xE0 DUP3 ADD MSTORE DUP3 PUSH2 0x100 DUP3 ADD MSTORE DUP3 PUSH2 0x120 DUP3 ADD MSTORE DUP3 PUSH2 0x140 DUP3 ADD MSTORE DUP3 PUSH2 0x160 DUP3 ADD MSTORE DUP3 PUSH2 0x180 DUP3 ADD MSTORE ADD MSTORE JUMP JUMPDEST SWAP1 PUSH2 0x5638 DUP3 PUSH2 0x543C JUMP JUMPDEST PUSH2 0x5645 PUSH1 0x40 MLOAD SWAP2 DUP3 PUSH2 0x476C JUMP JUMPDEST DUP3 DUP2 MSTORE DUP1 SWAP3 PUSH2 0x5656 PUSH1 0x1F NOT SWAP2 PUSH2 0x543C JUMP JUMPDEST ADD SWAP1 PUSH1 0x20 CALLDATASIZE SWAP2 ADD CALLDATACOPY JUMP INVALID LOG2 PUSH5 0x6970667358 0x22 SLT KECCAK256 0x4C BYTE 0xF7 0xB2 0x2D 0xE8 0xBD CALLER 0x4A 0xDD 0xEF 0xDE 0x4F EXP MULMOD SELFDESTRUCT EXTCODEHASH DUP12 PUSH14 0x4AE483BCA59B3E898C7696FF5764 PUSH20 0x6F6C634300081400330000000000000000000000 "},"methodIdentifiers":{"activeMarkets(uint256)":"3adfe6d0","addSupportedToken(address,string)":"720138e8","analytics()":"80d5ac8a","autoResolve(uint256)":"b1138b50","blacklistedWallets(address)":"2b5ba3b9","cancelMarket(uint256)":"7c16cd9e","claimRefund(uint256)":"5b7baf64","claimWinnings(uint256)":"677bd9ff","createMarket(string,bool,uint256,address,uint256,uint256,uint256,uint256)":"efb2b690","creatorCancelMarket(uint256)":"c3436e0c","deleteMarket(uint256,string)":"51049969","deletedMarkets(uint256)":"881df9e1","deletionTimestamp(uint256)":"ad8e42ff","endMarket(uint256)":"157bdcce","getActiveMarketCount()":"5da3247a","getActiveMarkets()":"a5e973c3","getAllMarketIds()":"b85ed636","getBettorCount(uint256)":"53514044","getDeletedMarkets()":"65ebce55","getMarket(uint256)":"eb44fdd3","getMarketBettors(uint256)":"0b501ab8","getMarketInfo(uint256)":"3ec79193","getMarketSupporters(uint256)":"87fea110","getMarketsReadyForRemoval()":"c8a843b7","getNextMarketId()":"fe53a6e8","getOptionPool(uint256,uint256,address)":"dc4ce349","getPermanentlyRemovedMarkets()":"6d822220","getSupportPool(uint256,address)":"4f44289d","getSupportedTokenCount()":"ce67be26","getSupportedTokens()":"d3c7c2c7","getSupporterCount(uint256)":"a30a0914","getTotalPool(uint256,address)":"f00fe321","getUserBet(uint256,address,address)":"553b7cbb","getUserMarketHistory(address)":"33d6b46e","getUserSupport(uint256,address,address)":"256ba741","isActiveMarket(uint256)":"0d64cdbd","isMarketActive(uint256)":"f849f69e","marketBettors(uint256,uint256)":"e053bcec","marketCreationFee()":"2ef1bdfa","marketSupporters(uint256,uint256)":"c22c62c3","markets(uint256)":"b1283e77","nextMarketId()":"406ef2ef","owner()":"8da5cb5b","permanentlyRemoveMarket(uint256)":"07adc191","permanentlyRemovedMarkets(uint256)":"81b17d29","placeBet(uint256,uint256)":"4afe62b5","placeBetWithToken(uint256,uint256,uint256)":"6ed2151a","removeSupportedToken(address)":"76319190","renounceOwnership()":"715018a6","resolveMarket(uint256,uint256)":"60557333","setAnalytics(address)":"74c350eb","setMarketCreationFee(uint256)":"9f37022a","setVerification(address)":"971f8bb1","setWalletBlacklist(address,bool)":"db62c6de","supportMarket(uint256,uint256)":"f204072f","supportedTokenList(uint256)":"2b60c822","supportedTokens(address)":"68c4ac26","tokenSymbols(address)":"fb0b2b36","transferOwnership(address)":"f2fde38b","treasury()":"61d027b3","userBetOptions(uint256,address)":"4986597f","userHasBet(uint256,address)":"8704bec0","userHasSupported(uint256,address)":"287f57b5","userMarketHistory(address,uint256)":"98a17671","verification()":"4ffe2a8b","withdrawSupport(uint256)":"3e32a76c"}}}}}