{"contracts/P2PAnalytics.sol":{"MetricsHub":{"abi":[{"inputs":[{"internalType":"address","name":"initialOwner","type":"address"},{"internalType":"address","name":"_marketManager","type":"address"}],"stateMutability":"nonpayable","type":"constructor"},{"inputs":[{"internalType":"address","name":"owner","type":"address"}],"name":"OwnableInvalidOwner","type":"error"},{"inputs":[{"internalType":"address","name":"account","type":"address"}],"name":"OwnableUnauthorizedAccount","type":"error"},{"anonymous":false,"inputs":[{"indexed":false,"internalType":"uint256","name":"totalMarkets","type":"uint256"},{"indexed":false,"internalType":"uint256","name":"totalVolume","type":"uint256"}],"name":"GlobalStatsUpdated","type":"event"},{"anonymous":false,"inputs":[{"indexed":true,"internalType":"uint256","name":"marketId","type":"uint256"},{"indexed":false,"internalType":"uint256","name":"volume","type":"uint256"},{"indexed":false,"internalType":"uint256","name":"bettors","type":"uint256"}],"name":"MarketStatsUpdated","type":"event"},{"anonymous":false,"inputs":[{"indexed":true,"internalType":"address","name":"previousOwner","type":"address"},{"indexed":true,"internalType":"address","name":"newOwner","type":"address"}],"name":"OwnershipTransferred","type":"event"},{"anonymous":false,"inputs":[{"indexed":true,"internalType":"address","name":"user","type":"address"},{"indexed":false,"internalType":"uint256","name":"totalBets","type":"uint256"},{"indexed":false,"internalType":"uint256","name":"winnings","type":"uint256"}],"name":"UserStatsUpdated","type":"event"},{"inputs":[{"internalType":"uint256","name":"limit","type":"uint256"}],"name":"getActiveMarketsByBettorCount","outputs":[{"internalType":"uint256[]","name":"","type":"uint256[]"},{"internalType":"uint256[]","name":"","type":"uint256[]"}],"stateMutability":"view","type":"function"},{"inputs":[{"internalType":"uint256","name":"minVolume","type":"uint256"}],"name":"getActiveMarketsByMinVolume","outputs":[{"internalType":"uint256[]","name":"","type":"uint256[]"}],"stateMutability":"view","type":"function"},{"inputs":[{"internalType":"uint256","name":"limit","type":"uint256"}],"name":"getActiveMarketsByParticipants","outputs":[{"internalType":"uint256[]","name":"","type":"uint256[]"},{"internalType":"uint256[]","name":"","type":"uint256[]"}],"stateMutability":"view","type":"function"},{"inputs":[{"internalType":"uint256","name":"limit","type":"uint256"}],"name":"getActiveMarketsByVolume","outputs":[{"internalType":"uint256[]","name":"","type":"uint256[]"},{"internalType":"uint256[]","name":"","type":"uint256[]"}],"stateMutability":"view","type":"function"},{"inputs":[],"name":"getGlobalStats","outputs":[{"components":[{"internalType":"uint256","name":"totalMarkets","type":"uint256"},{"internalType":"uint256","name":"totalVolume","type":"uint256"},{"internalType":"uint256","name":"totalBettors","type":"uint256"},{"internalType":"uint256","name":"totalSupporters","type":"uint256"},{"internalType":"uint256","name":"totalWinnings","type":"uint256"},{"internalType":"uint256","name":"averageMarketSize","type":"uint256"},{"internalType":"uint256","name":"mostActiveToken","type":"uint256"},{"internalType":"uint256","name":"averageResolutionTime","type":"uint256"}],"internalType":"struct MetricsHub.GlobalStats","name":"","type":"tuple"}],"stateMutability":"view","type":"function"},{"inputs":[{"internalType":"uint256","name":"marketId","type":"uint256"}],"name":"getMarketStats","outputs":[{"components":[{"internalType":"uint256","name":"totalVolume","type":"uint256"},{"internalType":"uint256","name":"totalBettors","type":"uint256"},{"internalType":"uint256","name":"totalSupporters","type":"uint256"},{"internalType":"uint256","name":"averageBetSize","type":"uint256"},{"internalType":"uint256","name":"largestBet","type":"uint256"},{"internalType":"uint256","name":"mostPopularOption","type":"uint256"},{"internalType":"uint256","name":"resolutionTime","type":"uint256"},{"internalType":"bool","name":"wasResolved","type":"bool"},{"internalType":"uint256","name":"creatorWinnings","type":"uint256"}],"internalType":"struct MetricsHub.MarketStats","name":"","type":"tuple"}],"stateMutability":"view","type":"function"},{"inputs":[{"internalType":"address","name":"creator","type":"address"}],"name":"getMarketsByCreator","outputs":[{"internalType":"uint256[]","name":"","type":"uint256[]"}],"stateMutability":"view","type":"function"},{"inputs":[{"internalType":"uint256","name":"startTime","type":"uint256"},{"internalType":"uint256","name":"endTime","type":"uint256"}],"name":"getMarketsByDateRange","outputs":[{"internalType":"uint256[]","name":"","type":"uint256[]"}],"stateMutability":"view","type":"function"},{"inputs":[{"internalType":"enum EventPool.MarketState","name":"state","type":"uint8"}],"name":"getMarketsByState","outputs":[{"internalType":"uint256[]","name":"","type":"uint256[]"}],"stateMutability":"view","type":"function"},{"inputs":[{"internalType":"address","name":"token","type":"address"}],"name":"getMarketsByToken","outputs":[{"internalType":"uint256[]","name":"","type":"uint256[]"}],"stateMutability":"view","type":"function"},{"inputs":[{"internalType":"address","name":"creator","type":"address"},{"internalType":"address","name":"token","type":"address"},{"internalType":"uint256","name":"minVolume","type":"uint256"},{"internalType":"uint256","name":"maxVolume","type":"uint256"},{"internalType":"enum EventPool.MarketState","name":"state","type":"uint8"},{"internalType":"uint256","name":"startTime","type":"uint256"},{"internalType":"uint256","name":"endTime","type":"uint256"}],"name":"getMarketsFiltered","outputs":[{"internalType":"uint256[]","name":"","type":"uint256[]"}],"stateMutability":"view","type":"function"},{"inputs":[{"internalType":"uint256","name":"daysBack","type":"uint256"},{"internalType":"uint256","name":"limit","type":"uint256"}],"name":"getRecentActiveMarkets","outputs":[{"internalType":"uint256[]","name":"","type":"uint256[]"},{"internalType":"uint256[]","name":"","type":"uint256[]"}],"stateMutability":"view","type":"function"},{"inputs":[{"internalType":"uint256","name":"limit","type":"uint256"}],"name":"getThisWeekActiveMarkets","outputs":[{"internalType":"uint256[]","name":"","type":"uint256[]"},{"internalType":"uint256[]","name":"","type":"uint256[]"}],"stateMutability":"view","type":"function"},{"inputs":[{"internalType":"uint256","name":"limit","type":"uint256"}],"name":"getTodayActiveMarkets","outputs":[{"internalType":"uint256[]","name":"","type":"uint256[]"},{"internalType":"uint256[]","name":"","type":"uint256[]"}],"stateMutability":"view","type":"function"},{"inputs":[{"internalType":"uint256","name":"limit","type":"uint256"}],"name":"getTopBettors","outputs":[{"internalType":"address[]","name":"","type":"address[]"},{"internalType":"uint256[]","name":"","type":"uint256[]"}],"stateMutability":"view","type":"function"},{"inputs":[{"internalType":"address","name":"user","type":"address"}],"name":"getUserBets","outputs":[{"internalType":"uint256[]","name":"","type":"uint256[]"}],"stateMutability":"view","type":"function"},{"inputs":[{"internalType":"address","name":"user","type":"address"}],"name":"getUserFavoriteOption","outputs":[{"internalType":"uint256","name":"","type":"uint256"}],"stateMutability":"view","type":"function"},{"inputs":[{"internalType":"address","name":"user","type":"address"}],"name":"getUserMarkets","outputs":[{"internalType":"uint256[]","name":"","type":"uint256[]"}],"stateMutability":"view","type":"function"},{"inputs":[{"internalType":"address","name":"user","type":"address"},{"internalType":"enum EventPool.MarketState","name":"state","type":"uint8"}],"name":"getUserMarketsByState","outputs":[{"internalType":"uint256[]","name":"","type":"uint256[]"}],"stateMutability":"view","type":"function"},{"inputs":[{"internalType":"address","name":"user","type":"address"}],"name":"getUserStats","outputs":[{"components":[{"internalType":"uint256","name":"totalBetsPlaced","type":"uint256"},{"internalType":"uint256","name":"totalBetsWon","type":"uint256"},{"internalType":"uint256","name":"totalBetsLost","type":"uint256"},{"internalType":"uint256","name":"totalWinnings","type":"uint256"},{"internalType":"uint256","name":"totalLosses","type":"uint256"},{"internalType":"uint256","name":"totalSupportDonated","type":"uint256"},{"internalType":"uint256","name":"marketsCreated","type":"uint256"},{"internalType":"uint256","name":"marketsWon","type":"uint256"},{"internalType":"uint256","name":"marketsLost","type":"uint256"},{"internalType":"uint256","name":"favoriteOption","type":"uint256"},{"internalType":"uint256","name":"lastActivity","type":"uint256"}],"internalType":"struct MetricsHub.UserStats","name":"","type":"tuple"}],"stateMutability":"view","type":"function"},{"inputs":[{"internalType":"address","name":"user","type":"address"}],"name":"getUserSupports","outputs":[{"internalType":"uint256[]","name":"","type":"uint256[]"}],"stateMutability":"view","type":"function"},{"inputs":[{"internalType":"address","name":"user","type":"address"}],"name":"getUserWinRate","outputs":[{"internalType":"uint256","name":"","type":"uint256"}],"stateMutability":"view","type":"function"},{"inputs":[],"name":"marketManager","outputs":[{"internalType":"address payable","name":"","type":"address"}],"stateMutability":"view","type":"function"},{"inputs":[{"internalType":"uint256","name":"","type":"uint256"}],"name":"marketStats","outputs":[{"internalType":"uint256","name":"totalVolume","type":"uint256"},{"internalType":"uint256","name":"totalBettors","type":"uint256"},{"internalType":"uint256","name":"totalSupporters","type":"uint256"},{"internalType":"uint256","name":"averageBetSize","type":"uint256"},{"internalType":"uint256","name":"largestBet","type":"uint256"},{"internalType":"uint256","name":"mostPopularOption","type":"uint256"},{"internalType":"uint256","name":"resolutionTime","type":"uint256"},{"internalType":"bool","name":"wasResolved","type":"bool"},{"internalType":"uint256","name":"creatorWinnings","type":"uint256"}],"stateMutability":"view","type":"function"},{"inputs":[],"name":"owner","outputs":[{"internalType":"address","name":"","type":"address"}],"stateMutability":"view","type":"function"},{"inputs":[],"name":"renounceOwnership","outputs":[],"stateMutability":"nonpayable","type":"function"},{"inputs":[{"internalType":"address","name":"_marketManager","type":"address"}],"name":"setMarketManager","outputs":[],"stateMutability":"nonpayable","type":"function"},{"inputs":[{"internalType":"uint256","name":"marketId","type":"uint256"},{"internalType":"address","name":"user","type":"address"},{"internalType":"uint256","name":"option","type":"uint256"},{"internalType":"uint256","name":"amount","type":"uint256"}],"name":"trackBet","outputs":[],"stateMutability":"nonpayable","type":"function"},{"inputs":[{"internalType":"uint256","name":"marketId","type":"uint256"},{"internalType":"address","name":"user","type":"address"},{"internalType":"uint256","name":"loss","type":"uint256"}],"name":"trackLoss","outputs":[],"stateMutability":"nonpayable","type":"function"},{"inputs":[{"internalType":"uint256","name":"marketId","type":"uint256"},{"internalType":"address","name":"creator","type":"address"}],"name":"trackMarketCreation","outputs":[],"stateMutability":"nonpayable","type":"function"},{"inputs":[{"internalType":"uint256","name":"marketId","type":"uint256"},{"internalType":"uint256","name":"winningOption","type":"uint256"}],"name":"trackMarketResolution","outputs":[],"stateMutability":"nonpayable","type":"function"},{"inputs":[{"internalType":"uint256","name":"marketId","type":"uint256"},{"internalType":"address","name":"user","type":"address"},{"internalType":"uint256","name":"amount","type":"uint256"}],"name":"trackSupport","outputs":[],"stateMutability":"nonpayable","type":"function"},{"inputs":[{"internalType":"uint256","name":"marketId","type":"uint256"},{"internalType":"address","name":"user","type":"address"},{"internalType":"uint256","name":"winnings","type":"uint256"}],"name":"trackWinnings","outputs":[],"stateMutability":"nonpayable","type":"function"},{"inputs":[{"internalType":"address","name":"newOwner","type":"address"}],"name":"transferOwnership","outputs":[],"stateMutability":"nonpayable","type":"function"},{"inputs":[{"internalType":"address","name":"","type":"address"},{"internalType":"uint256","name":"","type":"uint256"}],"name":"userBets","outputs":[{"internalType":"uint256","name":"","type":"uint256"}],"stateMutability":"view","type":"function"},{"inputs":[{"internalType":"address","name":"","type":"address"},{"internalType":"uint256","name":"","type":"uint256"}],"name":"userMarkets","outputs":[{"internalType":"uint256","name":"","type":"uint256"}],"stateMutability":"view","type":"function"},{"inputs":[{"internalType":"address","name":"","type":"address"},{"internalType":"uint256","name":"","type":"uint256"}],"name":"userOptionStats","outputs":[{"internalType":"uint256","name":"","type":"uint256"}],"stateMutability":"view","type":"function"},{"inputs":[{"internalType":"address","name":"","type":"address"}],"name":"userStats","outputs":[{"internalType":"uint256","name":"totalBetsPlaced","type":"uint256"},{"internalType":"uint256","name":"totalBetsWon","type":"uint256"},{"internalType":"uint256","name":"totalBetsLost","type":"uint256"},{"internalType":"uint256","name":"totalWinnings","type":"uint256"},{"internalType":"uint256","name":"totalLosses","type":"uint256"},{"internalType":"uint256","name":"totalSupportDonated","type":"uint256"},{"internalType":"uint256","name":"marketsCreated","type":"uint256"},{"internalType":"uint256","name":"marketsWon","type":"uint256"},{"internalType":"uint256","name":"marketsLost","type":"uint256"},{"internalType":"uint256","name":"favoriteOption","type":"uint256"},{"internalType":"uint256","name":"lastActivity","type":"uint256"}],"stateMutability":"view","type":"function"},{"inputs":[{"internalType":"address","name":"","type":"address"},{"internalType":"uint256","name":"","type":"uint256"}],"name":"userSupports","outputs":[{"internalType":"uint256","name":"","type":"uint256"}],"stateMutability":"view","type":"function"}],"evm":{"bytecode":{"linkReferences":{},"object":"608034620000de57601f6200353938819003918201601f19168301916001600160401b03831184841017620000e3578084926040948552833981010312620000de576200005a60206200005283620000f9565b9201620000f9565b906001600160a01b03908116908115620000c5576000549260018060a01b03199280848616176000558260405195167f8be0079c531659141344cd1fd0a4f28419497f9722a3daafe3b4186f6b6457e0600080a31690600154161760015561342a90816200010f8239f35b604051631e4fbdf760e01b815260006004820152602490fd5b600080fd5b634e487b7160e01b600052604160045260246000fd5b51906001600160a01b0382168203620000de5756fe608080604052600436101561001357600080fd5b60003560e01c9081630649e0c014612d2557508063110d05e514612ce85780631c6e04db14612c715780632053114d14612b8f57806325ec5ef114612b645780632d56657d14612ad95780633d80d00b146127615780633f89efda146126e357806341ed2c12146126ba5780634b669c09146126315780634e43603a146124c957806350ad34a1146121df5780635374b47b14611f4957806354488a5a14611f0157806357f978ad14611d7357806358057fe514611c525780635be0a34b14611bba57806361d442c214611ab55780636b3b7ea714611a6b5780636b4169c314611849578063715018a6146117f05780638068aa68146117a657806380aa0d8c146115ba578063837cd235146112415780638a65d874146111985780638da5cb5b1461116f5780638f46a5a1146110595780639b7bcd2414610ec0578063a119515a14610b65578063b2e1ae8b1461078c578063cd94a77514610602578063d82aff11146105bf578063da4473d814610562578063db0f871d14610567578063e99c80bd14610562578063f054f00a146104ce578063f2fde38b14610440578063fbe151591461024e5763ff4a7300146101cc57600080fd5b34610249576101da36612e2b565b906101f060018060a01b03600154163314612f12565b60005260036020526005604060002060078101600160ff1982541617905542600682015501557f17d726ad382ea92487e2c4d01469c94fa17bef35e71d3f4b5414159695c038d2604080516000815260006020820152a1005b600080fd5b3461024957602080600319360112610249576004359060405161027081612ff7565b6000815260018054604051631fca74dd60e31b81529294906001600160a01b03168484600481845afa93841561040557600094610411575b50825b8481106102c957604051868152806102c58189018a612d79565b0390f35b60405163eb44fdd360e01b8152600481018290526024906000818381875afa801561040557610160916000916103e2575b50015160058110156103cd5715806103b6575b610321575b5061031c90612f6e565b6102ab565b87919751908582018092116103a25750908761033d86936132ec565b91836000945b610361575b5061031c935061035990518361331e565b529690610312565b91819394915182101561039857508061037d61038e928561331e565b51610388828761331e565b52612f6e565b9291818a92610343565b9184939150610348565b634e487b7160e01b60009081526011600452fd5b50816000526003875283604060002054101561030d565b50634e487b7160e01b60009081526021600452fd5b6103ff91503d806000833e6103f78183613013565b8101906130bd565b8a6102fa565b6040513d6000823e3d90fd5b9093508481813d8311610439575b6104298183613013565b81010312610249575192866102a8565b503d61041f565b3461024957602036600319011261024957610459612dd5565b610461612ee6565b6001600160a01b039081169081156104b557600054826bffffffffffffffffffffffff60a01b821617600055167f8be0079c531659141344cd1fd0a4f28419497f9722a3daafe3b4186f6b6457e0600080a3005b604051631e4fbdf760e01b815260006004820152602490fd5b34610249576040366003190112610249576104e7612deb565b6001546001600160a01b0391906105019083163314612f12565b168060005260026020526000805160206133d58339815191526040806000206006810161052e8154612f6e565b905542600a82015583600052600460205261054e60043583600020613062565b6003815491015482519182526020820152a2005b612e6f565b3461024957604036600319011261024957610580612dd5565b6001600160a01b0316600090815260046020526040902080546024359190821015610249576020916105b191612e41565b90546040519160031b1c8152f35b34610249576020366003190112610249576105d8612dd5565b6105e0612ee6565b600180546001600160a01b0319166001600160a01b0392909216919091179055005b34610249576020806003193601126102495761061c612dd5565b9060405161062981612ff7565b6000815260018054604051631fca74dd60e31b8152929492906001600160a01b039081168583600481845afa9283156104055760009361075d575b509193811691835b85811061068657604051878152806102c5818a018b612d79565b60405163eb44fdd360e01b8152600481018290526024906000818381875afa801561040557608086918893600091610742575b50015116146106d2575b506106cd90612f6e565b61066c565b88919851908682018092116103a2575090886106ee87936132ec565b91836000945b610712575b506106cd935061070a90518361331e565b5297906106c3565b91819394915182101561073857508061037d61072e928561331e565b9291818b926106f4565b91849391506106f9565b61075791503d806000833e6103f78183613013565b8d6106b9565b9092508581813d8311610785575b6107758183613013565b8101031261024957519187610664565b503d61076b565b34610249576020806003193601126102495760018054604051631fca74dd60e31b81526001600160a01b039091169291908281600481875afa90811561040557600091610b38575b506040516107e181612ff7565b60008152936040516107f281612ff7565b6000815293835b8381106109aa5750505050806000905b610895575b50506004358015158061088b575b15610883575b61082b816132ec565b91610835826132ec565b9360005b83811061084f57604051806102c5888883612dad565b8061085d61087e928461331e565b51610868828861331e565b52610873818561331e565b51610388828961331e565b610839565b508151610822565b508251811061081c565b835160001990818101908111610983578210156109a457600090835b6108c8575b50506108c28291612f6e565b90610809565b6108d88387949693959751613055565b81810190811161098357841015610999576108f3848361331e565b5186850194858111610983578561091c9261090f8a988761331e565b5111610925575b50612f6e565b919492956108b1565b61092f828661331e565b5161093a828761331e565b51610945848861331e565b52610950828761331e565b5261097c61095e838861331e565b519161096a818961331e565b51610975858a61331e565b528761331e565b5288610916565b634e487b7160e01b600052601160045260246000fd5b8194929593506108b6565b5061080e565b60405163eb44fdd360e01b8152600481018290526024906000818381885afa80156104055761016091600091610b1d575b50015160058110156103cd57156109fc575b506109f790612f6e565b6107f9565b9095604051906314d4501160e21b825287600483015283828481885afa91821561040557600092610aee575b508851878101809111610ad957610a3e906132ec565b928151908882018092116103a25750610a5789916132ec565b99886000815b610a8a575b505091610a8191610a796109f7969594518661331e565b52518a61331e565b529695906109ed565b9091928351821015610ad1575080610aa5610ac7928561331e565b51610ab0828961331e565b528c61038882610ac0818961331e565b519261331e565b908a929181610a5d565b929190610a62565b83634e487b7160e01b60005260116004526000fd5b9091508381813d8311610b16575b610b068183613013565b8101031261024957519089610a28565b503d610afc565b610b3291503d806000833e6103f78183613013565b8a6109db565b90508281813d8311610b5e575b610b4f8183613013565b810103126102495751846107d4565b503d610b45565b34610249576020806003193601126102495760018054604051631fca74dd60e31b81526001600160a01b0390911691908381600481865afa90811561040557600091610e93575b50604051610bb981612ff7565b6000815293604051610bca81612ff7565b6000815293835b838110610ce05750505050806000905b610c4c575b505060043580151580610c42575b15610c3a575b610c03816132ec565b91610c0d826132ec565b9360005b838110610c2757604051806102c5888883612dad565b8061085d610c35928461331e565b610c11565b508151610bfa565b5082518110610bf4565b83516000199081810190811161098357821015610cda57600090835b610c7f575b5050610c798291612f6e565b90610be1565b610c8f8387949693959751613055565b81810190811161098357841015610ccf57610caa848361331e565b51868501948581116109835785610cc69261090f8a988761331e565b91949295610c68565b819492959350610c6d565b50610be6565b60405163eb44fdd360e01b8152600481018290526024906000818381875afa80156104055761016091600091610e78575b50015160058110156103cd5715610d32575b50610d2d90612f6e565b610bd1565b90956040516314d4501160e21b815287600482015284818481875afa90811561040557600091610e4b575b506040516328c2824560e21b8152600481018990529085828581885afa90811561040557600091610e1a575b610d939250612f7d565b908851878101809111610ad957610da9906132ec565b928151908882018092116103a25750610dc289916132ec565b99886000815b610ded575b505091610de491610a79610d2d969594518661331e565b52969590610d23565b9091928351821015610e12575080610aa5610e08928561331e565b908a929181610dc8565b929190610dcd565b90508582813d8311610e44575b610e318183613013565b8101031261024957610d93915190610d89565b503d610e27565b90508481813d8311610e71575b610e628183613013565b81010312610249575189610d5d565b503d610e58565b610e8d91503d806000833e6103f78183613013565b8a610d11565b90508381813d8311610eb9575b610eaa8183613013565b81010312610249575184610bac565b503d610ea0565b34610249576020806003193601126102495760043590600580831015908161024957604051610eee81612ff7565b6000815260018054604051631fca74dd60e31b815292969294919391906001600160a01b03168686600481845afa9586156104055760009661102a575b50845b868110610f4857604051888152806102c5818b018c612d79565b60405163eb44fdd360e01b8152600481018290526024906000818381875afa8015610405576101609160009161100f575b500151858110156103cd57846103cd578614610f9f575b50610f9a90612f6e565b610f2e565b89919951908782018092116103a257509089610fbb88936132ec565b91836000945b610fdf575b50610f9a9350610fd790518361331e565b529890610f90565b91819394915182101561100557508061037d610ffb928561331e565b9291818c92610fc1565b9184939150610fc6565b61102491503d806000833e6103f78183613013565b8c610f79565b9095508681813d8311611052575b6110428183613013565b8101031261024957519488610f2b565b503d611038565b346102495761106736612e01565b6001546001600160a01b03939284916110839083163314612f12565b1692836000526024602091600283526040600020936110a760058601918254612f7d565b905542600a85015584600052600383528260406000209160015416604051938480926328c2824560e21b82528960048301525afa9182156104055760009261112c575b506000805160206133d58339815191529460409493926002611119930155866000526006835284600020613062565b60038254920154908351928352820152a2005b90939280925081813d8311611168575b6111468183613013565b81010312610249575191929091906000805160206133d58339815191526110ea565b503d61113c565b34610249576000366003190112610249576000546040516001600160a01b039091168152602090f35b34610249576020366003190112610249576001600160a01b036111b9612dd5565b16600052600260205261016060406000208054906001810154906002810154600382015460048301546005840154600685015491600786015493600887015495600a6009890154980154986040519a8b5260208b015260408a01526060890152608088015260a087015260c086015260e0850152610100840152610120830152610140820152f35b346102495760e03660031901126102495761125a612dd5565b611262612deb565b6005608435101591826102495760405161127b81612ff7565b60008152600154604051631fca74dd60e31b815291949193906001600160a01b0316602085600481845afa94851561040557600095611586575b5060015b8581106112d657604051602080825281906102c59082018a612d79565b60405163eb44fdd360e01b815260048101829052600081602481865afa9081156104055760009161156b575b5081600052600360205260406000209060405161131e81612fbd565b82548082526001808501546020840152600285015460408401526003850154606084015260048501546080840152600585015460a0840152600685015460c0840152600785015460ff16151560e08401526008909401546101009092019190915286906001600160a01b03891680151590611554575b61154b575b6001600160a01b03871680151590611531575b611528575b604435151560443561151d575b611514575b606435151590606435611508575b506114ff575b6114e95760843515156084356114ca575b6114c1575b60a435151560a4356114b1575b6114a8575b60c43515159060c435611496575b5061148e575b611426575b61142190612f6e565b6112b9565b9491939092865160018101811161098357600161144391016132ec565b9460005b885181101561146e578061145e611469928b61331e565b51610388828a61331e565b611447565b50929596948761148561142193969497518361331e565b52969050611418565b506000611413565b905061010060c435910151118961140d565b600091506113ff565b5060a435610100820151106113fa565b600091506113ed565b50610160810151955060058610156114e95760009560843514156113e8565b634e487b7160e01b600052602160045260246000fd5b600092506113d7565b9050606435108b6113d1565b600093506113c3565b5060443581106113be565b600093506113b1565b5060808301516001600160a01b03888116911614156113ac565b60009350611399565b5082516001600160a01b038a811691161415611394565b61158091503d806000833e6103f78183613013565b88611302565b9094506020813d6020116115b2575b816115a260209383613013565b81010312610249575193866112b5565b3d9150611595565b34610249576040366003190112610249576115d3612dd5565b60248035600592838210159081610249578383869260018060a01b03809116600052602092600484526040600020926040519384868254918281520191600052866000209060005b8181106117925750505084611631910385613013565b60405161163d81612ff7565b60008152956000976001988995865416995b611667575b604051888152806102c5818b018c612d79565b865181101561178d5789600061167d838a61331e565b51876040518094819363eb44fdd360e01b835260048301525afa80156104055761016091600091611772575b5001518381101561175d578261175d5784146116d8575b986116ce869798999a612f6e565b909998979661164f565b978051868101809111611748576116ee906132ec565b906000875b611725575b50899a916116ce916117196117108b9c9d8b9c61331e565b5191518361331e565b529998975050986116c0565b81518110156117435761173d8161037d8a938561331e565b906116f3565b6116f8565b85634e487b7160e01b60005260116004526000fd5b85634e487b7160e01b60005260216004526000fd5b61178791503d806000833e6103f78183613013565b8c6116a9565b611654565b82548452928801926001928301920161161b565b34610249576040366003190112610249576117bf612dd5565b6001600160a01b0316600090815260056020526040902080546024359190821015610249576020916105b191612e41565b3461024957600036600319011261024957611809612ee6565b600080546001600160a01b0319811682556001600160a01b03167f8be0079c531659141344cd1fd0a4f28419497f9722a3daafe3b4186f6b6457e08280a3005b3461024957600036600319011261024957600060e060405161186a81612fda565b8281528260208201528260408201528260608201528260808201528260a08201528260c082015201526004602060018060a01b036001541660405192838092631fca74dd60e31b82525afa90811561040557600091611a39575b508060001981011161098357600090818060015b600019840181111561198b57506101009360001984011561198357611901600019850184613035565b905b6040519261191084612fda565b6000198601845260208401948552604084019182526060840190815260808401916000835260a0850193845260e060c086019560008752019560008752604051976000190188525160208801525160408701525160608601525160808501525160a08401525160c08301525160e0820152f35b600090611903565b90611a2e611a3491611a26600295978560005260036020526020611a1d6040600020809b60086040519b8c936119c085612fbd565b8054948590526001810154878f0152015460408d0190815260038f015460608e015260048f015460808e015260058f015460a08e015260068f015460c08e015260078f015460ff16151560e08e01529d01546101008c0152612f7d565b97015190612f7d565b965190612f7d565b91612f6e565b6118d8565b90506020813d602011611a63575b81611a5460209383613013565b810103126102495751816118c4565b3d9150611a47565b3461024957604036600319011261024957611a84612dd5565b6001600160a01b0316600090815260066020526040902080546024359190821015610249576020916105b191612e41565b34610249576024611ac536612e01565b92909160018060a01b038093611ae082600154163314612f12565b169384600052600260205260406000209060018201611aff8154612f6e565b90556003820192611b11828554612f7d565b845542600a840155600086600154166040519687809263eb44fdd360e01b82528560048301525afa948515610405576000805160206133d5833981519152966040968992600091611b9f575b50511614611b78575b505054905482519182526020820152a2005b60078301611b868154612f6e565b9055600052600360205260088460002001558580611b66565b611bb491503d806000833e6103f78183613013565b8a611b5d565b3461024957602080600319360112610249576040518091604082019060408352606051809252606083019160809060005b818110611c3257505050828203818401528060605192838152019160809160005b828110611c1b57505050500390f35b835185528695509381019392810192600101611c0c565b82516001600160a01b031685528695509383019391830191600101611beb565b3461024957602036600319011261024957610120604051611c7281612fbd565b6000815260006020820152600060408201526000606082015260006080820152600060a0820152600060c0820152600060e08201526000610100809201526004356000526003602052604060002090604051611ccd81612fbd565b8254928382526001810154602083019081526002820154604084019081526003830154606085019081526004840154906080860191825260058501549260a0870193845260068601549460c0880195865288600860ff60078a0154169860e08b019915158a5201549801978852604051998a525160208a01525160408901525160608801525160808701525160a08601525160c085015251151560e08401525190820152f35b3461024957611d8136612e2b565b90604051611d8e81612ff7565b6000815260018054604051631fca74dd60e31b81529294602094916001600160a01b03168585600481845afa94851561040557600095611ed2575b50835b858110611de657604051878152806102c5818a018b612d79565b60405163eb44fdd360e01b8152600481018290526024906000818381875afa80156104055761010091600091611eb7575b50015184868210159182611eac575b5050611e3c575b50611e3790612f6e565b611dcc565b88919851908682018092116103a257509088611e5887936132ec565b91836000945b611e7c575b50611e379350611e7490518361331e565b529790611e2d565b918193949151821015611ea257508061037d611e98928561331e565b9291818b92611e5e565b9184939150611e63565b11159050848b611e26565b611ecc91503d806000833e6103f78183613013565b8b611e17565b9094508581813d8311611efa575b611eea8183613013565b8101031261024957519387611dc9565b503d611ee0565b34610249576040366003190112610249576001600160a01b03611f22612dd5565b16600052600760205260406000206024356000526020526020604060002054604051908152f35b3461024957608036600319011261024957600435611f65612deb565b60443560643560018060a01b038093611f8382600154163314612f12565b168060005260209260028452604060002090611f9f8254612f6e565b825560048201611fb0858254612f7d565b905542600a830155826000526007855260406000208160005285526040600020611fda8154612f6e565b9055826000526007855260406000208160005285526040600020548360005260078652604060002090600984019182546000528752604060002054106121d7575b50508560005260038452604060002092602485612039838754612f7d565b9788875560015416604051928380926314d4501160e21b82528c60048301525afa8015610405576000906121a8575b61207a91506001860197818955613035565b600385015560048401805482116121a0575b5050816000526004845260406000208054908115918215612137575b5050916000805160206133d583398151915260407f57aec02922d876ec3d68c70ddf1563d34f09d29032f77ccb3357d31cffe7e73397959381979561211d575b83600052600586526120fd8a83600020613062565b60038154910154825191825286820152a2549154908351928352820152a2005b83600052600486526121328a83600020613062565b6120e8565b9096949295939150600019810190811161098357604080968961218a6000805160206133d5833981519152947f57aec02922d876ec3d68c70ddf1563d34f09d29032f77ccb3357d31cffe7e7339b612e41565b90549060031b1c141593959750939597506120a8565b55868061208c565b508581813d83116121d0575b6121be8183613013565b810103126102495761207a9051612068565b503d6121b4565b55868061201b565b34610249576020806003193601126102495760018054604051631fca74dd60e31b81526001600160a01b0390911691908381600481865afa9081156104055760009161249c575b5060405161223381612ff7565b600081529360405161224481612ff7565b6000815293835b83811061235a5750505050806000905b6122c6575b5050600435801515806122bc575b156122b4575b61227d816132ec565b91612287826132ec565b9360005b8381106122a157604051806102c5888883612dad565b8061085d6122af928461331e565b61228b565b508151612274565b508251811061226e565b8351600019908181019081116109835782101561235457600090835b6122f9575b50506122f38291612f6e565b9061225b565b6123098387949693959751613055565b8181019081116109835784101561234957612324848361331e565b518685019485811161098357856123409261090f8a988761331e565b919492956122e2565b8194929593506122e7565b50612260565b60405163eb44fdd360e01b8152600481018290526024906000818381875afa80156104055761016091600091612481575b50015160058110156103cd57156123ac575b506123a790612f6e565b61224b565b9095875186810180911161246c576123c3906132ec565b918151908782018092116103a2575090876123df8894936132ec565b99846000955b61241e575b506123a794506123fb90518461331e565b52876000526003855261241560406000205491518a61331e565b5296959061239d565b9181939495915182101561246157508061243b612456928561331e565b51612446828861331e565b528b61038882610ac0818961331e565b939291818a926123e5565b9185949391506123ea565b82634e487b7160e01b60005260116004526000fd5b61249691503d806000833e6103f78183613013565b8a61238b565b90508381813d83116124c2575b6124b38183613013565b81010312610249575184612226565b503d6124a9565b34610249576020366003190112610249576101606124e5612dd5565b610140604051916124f583612f8a565b6000835260006020840152600060408401526000606084015260006080840152600060a0840152600060c0840152600060e084015261010090600082850152600083610120958287820152015260018060a01b031660005260026020526040600020926040519161256583612f8a565b600a85549586855260018101546020860152600281015460408601526003810154606086015260048101546080860152600581015460a0860152600681015460c0860152600781015460e08601526008810154838601526009810154848601520154848401526040519485526020830151602086015260408301516040860152606083015160608601526080830151608086015260a083015160a086015260c083015160c086015260e083015160e0860152808301519085015280820151908401520151610140820152f35b346102495760203660031901126102495760043560005260036020526101206040600020805490600181015490600281015460038201546004830154600584015491600685015493600860ff60078801541696015496604051988952602089015260408801526060870152608086015260a085015260c0840152151560e0830152610100820152f35b34610249576000366003190112610249576001546040516001600160a01b039091168152602090f35b3461024957602036600319011261024957604051633d80d00b60e01b8152600760048201526004356024820152600081604481305afa9081156104055760009060009261273b575b506102c560405192839283612dad565b905061275a91503d806000833e6127528183613013565b810190613390565b908261272b565b346102495761276f36612e2b565b60018054604051631fca74dd60e31b81526001600160a01b0390911693929190602081600481885afa90811561040557600091612aa8575b506040516127b481612ff7565b60008152946040516127c581612ff7565b60008152946201518090818102918183041490151715610983576127e99042613055565b835b83811061295b5750505050806000905b612863575b505080151580612859575b15612851575b61281a816132ec565b91612824826132ec565b9360005b83811061283e57604051806102c5888883612dad565b8061085d61284c928461331e565b612828565b508151612811565b508251811061280b565b8451600019908181019081116109835782101561295557908280926000915b612898575b505061289290612f6e565b906127fb565b909192506128a7838851613055565b81810190811161098357849083101561294e57506128c5828761331e565b518483019283811161098357836128ed926128e188968b61331e565b51116128f65750612f6e565b90829392612882565b612900828a61331e565b5161290b828b61331e565b51612916848c61331e565b52612921828b61331e565b5261294761292f838c61331e565b51918b61294085610ac0848461331e565b528b61331e565b5289610916565b9291612887565b50612800565b60405163eb44fdd360e01b8152600481018290526024906000818381885afa90811561040557600091612a8d575b506101608101516005811015612a78571580612a69575b6129b5575b50506129b090612f6e565b6127eb565b899891929851878101809111610ad9576129ce906132ec565b928251908882018092116103a257506129e78a916132ec565b9a886000815b612a21575b50506129b0949392612a1792612a0c61010093518761331e565b52015191518b61331e565b52979690896129a5565b9091928351821015612a61575080612a3c612a57928561331e565b51612a47828961331e565b528d61038882610ac0818a61331e565b908b9291816129ed565b9291906129f2565b508361010082015110156129a0565b82634e487b7160e01b60005260216004526000fd5b612aa291503d806000833e6103f78183613013565b8a612989565b90506020813d8211612ad1575b81612ac260209383613013565b810103126102495751856127a7565b3d9150612ab5565b3461024957602080600319360112610249576001600160a01b03612afb612dd5565b1660005260058152604060002090604051808383829554938481520190600052836000209260005b85828210612b4e57505050612b3a92500383613013565b6102c5604051928284938452830190612d79565b8554845260019586019588955093019201612b23565b34610249576020366003190112610249576020612b87612b82612dd5565b61321b565b604051908152f35b3461024957612b9d36612e01565b506001546001600160a01b03918291612bb99083163314612f12565b1691826000526002602052604060002060028101612bd78154612f6e565b905542600a820155600083600154169260246040518095819363eb44fdd360e01b835260048301525afa918215610405576000805160206133d5833981519152936040938692600091612c56575b50511614612c41576003815491015482519182526020820152a2005b60088101612c4f8154612f6e565b905561054e565b612c6b91503d806000833e6103f78183613013565b87612c25565b3461024957602080600319360112610249576001600160a01b03612c93612dd5565b1660005260068152604060002090604051808383829554938481520190600052836000209260005b85828210612cd257505050612b3a92500383613013565b8554845260019586019588955093019201612cbb565b34610249576020366003190112610249576001600160a01b03612d09612dd5565b1660005260026020526020600960406000200154604051908152f35b3461024957602036600319011261024957633d80d00b60e01b8152600160048201526004356024820152600081604481305afa9081156104055760009060009261273b57506102c560405192839283612dad565b90815180825260208080930193019160005b828110612d99575050505090565b835185529381019392810192600101612d8b565b9091612dc4612dd293604084526040840190612d79565b916020818403910152612d79565b90565b600435906001600160a01b038216820361024957565b602435906001600160a01b038216820361024957565b606090600319011261024957600435906024356001600160a01b0381168103610249579060443590565b6040906003190112610249576004359060243590565b8054821015612e595760005260206000200190600090565b634e487b7160e01b600052603260045260246000fd5b3461024957602080600319360112610249576001600160a01b03612e91612dd5565b1660005260048152604060002090604051808383829554938481520190600052836000209260005b85828210612ed057505050612b3a92500383613013565b8554845260019586019588955093019201612eb9565b6000546001600160a01b03163303612efa57565b60405163118cdaa760e01b8152336004820152602490fd5b15612f1957565b60405162461bcd60e51b815260206004820152602760248201527f416e616c79746963733a204f6e6c79204d61726b65744d616e616765722063616044820152666e20747261636b60c81b6064820152608490fd5b60001981146109835760010190565b9190820180921161098357565b610160810190811067ffffffffffffffff821117612fa757604052565b634e487b7160e01b600052604160045260246000fd5b610120810190811067ffffffffffffffff821117612fa757604052565b610100810190811067ffffffffffffffff821117612fa757604052565b6020810190811067ffffffffffffffff821117612fa757604052565b90601f8019910116810190811067ffffffffffffffff821117612fa757604052565b811561303f570490565b634e487b7160e01b600052601260045260246000fd5b9190820391821161098357565b805468010000000000000000811015612fa75761308491600182018155612e41565b819291549060031b91821b91600019901b1916179055565b51906001600160a01b038216820361024957565b5190811515820361024957565b90602090818382031261024957825167ffffffffffffffff938482116102495701916101c09384848403126102495760405194850185811082821117612fa7576040526131098461309c565b85528184015181811161024957840183601f82011215610249578051918211612fa75760405193613143601f8401601f1916850186613013565b82855283838301011161024957829060005b83811061320757505060009184010152830152613174604082016130b0565b60408301526060810151606083015261318f6080820161309c565b608083015260a081015160a083015260c081015160c083015260e081015160e0830152610100808201519083015261012080820151908301526101408082015190830152610160808201519060058210156102495783015261018080820151908301526132006101a08092016130b0565b9082015290565b818101830151868201840152849201613155565b60018060a01b0316600052600260205260406000206040519061323d82612f8a565b8054808352600a600183015492836020860152600281015460408601526003810154606086015260048101546080860152600581015460a0860152600681015460c0860152600781015460e0860152600881015461010086015260098101546101208601520154610140840152156132cd5760648102908082046064149015171561098357612dd2915190613035565b5050600090565b67ffffffffffffffff8111612fa75760051b60200190565b906132f6826132d4565b6133036040519182613013565b8281528092613314601f19916132d4565b0190602036910137565b8051821015612e595760209160051b010190565b81601f8201121561024957805191613349836132d4565b926133576040519485613013565b808452602092838086019260051b820101928311610249578301905b828210613381575050505090565b81518152908301908301613373565b9190916040818403126102495780519267ffffffffffffffff9384811161024957816133bd918401613332565b93602083015190811161024957612dd2920161333256fe4b6c7abacb75992cc13ad43ffe4479dac5f7be91202f5fbb108eb1af8d56ed62a2646970667358221220a15496eb086c5cc12317a047f9fe4f1ae3078179b947eb90ca7c05ac5bbfe8e364736f6c63430008140033","opcodes":"PUSH1 0x80 CALLVALUE PUSH3 0xDE JUMPI PUSH1 0x1F PUSH3 0x3539 CODESIZE DUP2 SWAP1 SUB SWAP2 DUP3 ADD PUSH1 0x1F NOT AND DUP4 ADD SWAP2 PUSH1 0x1 PUSH1 0x1 PUSH1 0x40 SHL SUB DUP4 GT DUP5 DUP5 LT OR PUSH3 0xE3 JUMPI DUP1 DUP5 SWAP3 PUSH1 0x40 SWAP5 DUP6 MSTORE DUP4 CODECOPY DUP2 ADD SUB SLT PUSH3 0xDE JUMPI PUSH3 0x5A PUSH1 0x20 PUSH3 0x52 DUP4 PUSH3 0xF9 JUMP JUMPDEST SWAP3 ADD PUSH3 0xF9 JUMP JUMPDEST SWAP1 PUSH1 0x1 PUSH1 0x1 PUSH1 0xA0 SHL SUB SWAP1 DUP2 AND SWAP1 DUP2 ISZERO PUSH3 0xC5 JUMPI PUSH1 0x0 SLOAD SWAP3 PUSH1 0x1 DUP1 PUSH1 0xA0 SHL SUB NOT SWAP3 DUP1 DUP5 DUP7 AND OR PUSH1 0x0 SSTORE DUP3 PUSH1 0x40 MLOAD SWAP6 AND PUSH32 0x8BE0079C531659141344CD1FD0A4F28419497F9722A3DAAFE3B4186F6B6457E0 PUSH1 0x0 DUP1 LOG3 AND SWAP1 PUSH1 0x1 SLOAD AND OR PUSH1 0x1 SSTORE PUSH2 0x342A SWAP1 DUP2 PUSH3 0x10F DUP3 CODECOPY RETURN JUMPDEST PUSH1 0x40 MLOAD PUSH4 0x1E4FBDF7 PUSH1 0xE0 SHL DUP2 MSTORE PUSH1 0x0 PUSH1 0x4 DUP3 ADD MSTORE PUSH1 0x24 SWAP1 REVERT JUMPDEST PUSH1 0x0 DUP1 REVERT JUMPDEST PUSH4 0x4E487B71 PUSH1 0xE0 SHL PUSH1 0x0 MSTORE PUSH1 0x41 PUSH1 0x4 MSTORE PUSH1 0x24 PUSH1 0x0 REVERT JUMPDEST MLOAD SWAP1 PUSH1 0x1 PUSH1 0x1 PUSH1 0xA0 SHL SUB DUP3 AND DUP3 SUB PUSH3 0xDE JUMPI JUMP INVALID PUSH1 0x80 DUP1 PUSH1 0x40 MSTORE PUSH1 0x4 CALLDATASIZE LT ISZERO PUSH2 0x13 JUMPI PUSH1 0x0 DUP1 REVERT JUMPDEST PUSH1 0x0 CALLDATALOAD PUSH1 0xE0 SHR SWAP1 DUP2 PUSH4 0x649E0C0 EQ PUSH2 0x2D25 JUMPI POP DUP1 PUSH4 0x110D05E5 EQ PUSH2 0x2CE8 JUMPI DUP1 PUSH4 0x1C6E04DB EQ PUSH2 0x2C71 JUMPI DUP1 PUSH4 0x2053114D EQ PUSH2 0x2B8F JUMPI DUP1 PUSH4 0x25EC5EF1 EQ PUSH2 0x2B64 JUMPI DUP1 PUSH4 0x2D56657D EQ PUSH2 0x2AD9 JUMPI DUP1 PUSH4 0x3D80D00B EQ PUSH2 0x2761 JUMPI DUP1 PUSH4 0x3F89EFDA EQ PUSH2 0x26E3 JUMPI DUP1 PUSH4 0x41ED2C12 EQ PUSH2 0x26BA JUMPI DUP1 PUSH4 0x4B669C09 EQ PUSH2 0x2631 JUMPI DUP1 PUSH4 0x4E43603A EQ PUSH2 0x24C9 JUMPI DUP1 PUSH4 0x50AD34A1 EQ PUSH2 0x21DF JUMPI DUP1 PUSH4 0x5374B47B EQ PUSH2 0x1F49 JUMPI DUP1 PUSH4 0x54488A5A EQ PUSH2 0x1F01 JUMPI DUP1 PUSH4 0x57F978AD EQ PUSH2 0x1D73 JUMPI DUP1 PUSH4 0x58057FE5 EQ PUSH2 0x1C52 JUMPI DUP1 PUSH4 0x5BE0A34B EQ PUSH2 0x1BBA JUMPI DUP1 PUSH4 0x61D442C2 EQ PUSH2 0x1AB5 JUMPI DUP1 PUSH4 0x6B3B7EA7 EQ PUSH2 0x1A6B JUMPI DUP1 PUSH4 0x6B4169C3 EQ PUSH2 0x1849 JUMPI DUP1 PUSH4 0x715018A6 EQ PUSH2 0x17F0 JUMPI DUP1 PUSH4 0x8068AA68 EQ PUSH2 0x17A6 JUMPI DUP1 PUSH4 0x80AA0D8C EQ PUSH2 0x15BA JUMPI DUP1 PUSH4 0x837CD235 EQ PUSH2 0x1241 JUMPI DUP1 PUSH4 0x8A65D874 EQ PUSH2 0x1198 JUMPI DUP1 PUSH4 0x8DA5CB5B EQ PUSH2 0x116F JUMPI DUP1 PUSH4 0x8F46A5A1 EQ PUSH2 0x1059 JUMPI DUP1 PUSH4 0x9B7BCD24 EQ PUSH2 0xEC0 JUMPI DUP1 PUSH4 0xA119515A EQ PUSH2 0xB65 JUMPI DUP1 PUSH4 0xB2E1AE8B EQ PUSH2 0x78C JUMPI DUP1 PUSH4 0xCD94A775 EQ PUSH2 0x602 JUMPI DUP1 PUSH4 0xD82AFF11 EQ PUSH2 0x5BF JUMPI DUP1 PUSH4 0xDA4473D8 EQ PUSH2 0x562 JUMPI DUP1 PUSH4 0xDB0F871D EQ PUSH2 0x567 JUMPI DUP1 PUSH4 0xE99C80BD EQ PUSH2 0x562 JUMPI DUP1 PUSH4 0xF054F00A EQ PUSH2 0x4CE JUMPI DUP1 PUSH4 0xF2FDE38B EQ PUSH2 0x440 JUMPI DUP1 PUSH4 0xFBE15159 EQ PUSH2 0x24E JUMPI PUSH4 0xFF4A7300 EQ PUSH2 0x1CC JUMPI PUSH1 0x0 DUP1 REVERT JUMPDEST CALLVALUE PUSH2 0x249 JUMPI PUSH2 0x1DA CALLDATASIZE PUSH2 0x2E2B JUMP JUMPDEST SWAP1 PUSH2 0x1F0 PUSH1 0x1 DUP1 PUSH1 0xA0 SHL SUB PUSH1 0x1 SLOAD AND CALLER EQ PUSH2 0x2F12 JUMP JUMPDEST PUSH1 0x0 MSTORE PUSH1 0x3 PUSH1 0x20 MSTORE PUSH1 0x5 PUSH1 0x40 PUSH1 0x0 KECCAK256 PUSH1 0x7 DUP2 ADD PUSH1 0x1 PUSH1 0xFF NOT DUP3 SLOAD AND OR SWAP1 SSTORE TIMESTAMP PUSH1 0x6 DUP3 ADD SSTORE ADD SSTORE PUSH32 0x17D726AD382EA92487E2C4D01469C94FA17BEF35E71D3F4B5414159695C038D2 PUSH1 0x40 DUP1 MLOAD PUSH1 0x0 DUP2 MSTORE PUSH1 0x0 PUSH1 0x20 DUP3 ADD MSTORE LOG1 STOP JUMPDEST PUSH1 0x0 DUP1 REVERT JUMPDEST CALLVALUE PUSH2 0x249 JUMPI PUSH1 0x20 DUP1 PUSH1 0x3 NOT CALLDATASIZE ADD SLT PUSH2 0x249 JUMPI PUSH1 0x4 CALLDATALOAD SWAP1 PUSH1 0x40 MLOAD PUSH2 0x270 DUP2 PUSH2 0x2FF7 JUMP JUMPDEST PUSH1 0x0 DUP2 MSTORE PUSH1 0x1 DUP1 SLOAD PUSH1 0x40 MLOAD PUSH4 0x1FCA74DD PUSH1 0xE3 SHL DUP2 MSTORE SWAP3 SWAP5 SWAP1 PUSH1 0x1 PUSH1 0x1 PUSH1 0xA0 SHL SUB AND DUP5 DUP5 PUSH1 0x4 DUP2 DUP5 GAS STATICCALL SWAP4 DUP5 ISZERO PUSH2 0x405 JUMPI PUSH1 0x0 SWAP5 PUSH2 0x411 JUMPI JUMPDEST POP DUP3 JUMPDEST DUP5 DUP2 LT PUSH2 0x2C9 JUMPI PUSH1 0x40 MLOAD DUP7 DUP2 MSTORE DUP1 PUSH2 0x2C5 DUP2 DUP10 ADD DUP11 PUSH2 0x2D79 JUMP JUMPDEST SUB SWAP1 RETURN JUMPDEST PUSH1 0x40 MLOAD PUSH4 0xEB44FDD3 PUSH1 0xE0 SHL DUP2 MSTORE PUSH1 0x4 DUP2 ADD DUP3 SWAP1 MSTORE PUSH1 0x24 SWAP1 PUSH1 0x0 DUP2 DUP4 DUP2 DUP8 GAS STATICCALL DUP1 ISZERO PUSH2 0x405 JUMPI PUSH2 0x160 SWAP2 PUSH1 0x0 SWAP2 PUSH2 0x3E2 JUMPI JUMPDEST POP ADD MLOAD PUSH1 0x5 DUP2 LT ISZERO PUSH2 0x3CD JUMPI ISZERO DUP1 PUSH2 0x3B6 JUMPI JUMPDEST PUSH2 0x321 JUMPI JUMPDEST POP PUSH2 0x31C SWAP1 PUSH2 0x2F6E JUMP JUMPDEST PUSH2 0x2AB JUMP JUMPDEST DUP8 SWAP2 SWAP8 MLOAD SWAP1 DUP6 DUP3 ADD DUP1 SWAP3 GT PUSH2 0x3A2 JUMPI POP SWAP1 DUP8 PUSH2 0x33D DUP7 SWAP4 PUSH2 0x32EC JUMP JUMPDEST SWAP2 DUP4 PUSH1 0x0 SWAP5 JUMPDEST PUSH2 0x361 JUMPI JUMPDEST POP PUSH2 0x31C SWAP4 POP PUSH2 0x359 SWAP1 MLOAD DUP4 PUSH2 0x331E JUMP JUMPDEST MSTORE SWAP7 SWAP1 PUSH2 0x312 JUMP JUMPDEST SWAP2 DUP2 SWAP4 SWAP5 SWAP2 MLOAD DUP3 LT ISZERO PUSH2 0x398 JUMPI POP DUP1 PUSH2 0x37D PUSH2 0x38E SWAP3 DUP6 PUSH2 0x331E JUMP JUMPDEST MLOAD PUSH2 0x388 DUP3 DUP8 PUSH2 0x331E JUMP JUMPDEST MSTORE PUSH2 0x2F6E JUMP JUMPDEST SWAP3 SWAP2 DUP2 DUP11 SWAP3 PUSH2 0x343 JUMP JUMPDEST SWAP2 DUP5 SWAP4 SWAP2 POP PUSH2 0x348 JUMP JUMPDEST PUSH4 0x4E487B71 PUSH1 0xE0 SHL PUSH1 0x0 SWAP1 DUP2 MSTORE PUSH1 0x11 PUSH1 0x4 MSTORE REVERT JUMPDEST POP DUP2 PUSH1 0x0 MSTORE PUSH1 0x3 DUP8 MSTORE DUP4 PUSH1 0x40 PUSH1 0x0 KECCAK256 SLOAD LT ISZERO PUSH2 0x30D JUMP JUMPDEST POP PUSH4 0x4E487B71 PUSH1 0xE0 SHL PUSH1 0x0 SWAP1 DUP2 MSTORE PUSH1 0x21 PUSH1 0x4 MSTORE REVERT JUMPDEST PUSH2 0x3FF SWAP2 POP RETURNDATASIZE DUP1 PUSH1 0x0 DUP4 RETURNDATACOPY PUSH2 0x3F7 DUP2 DUP4 PUSH2 0x3013 JUMP JUMPDEST DUP2 ADD SWAP1 PUSH2 0x30BD JUMP JUMPDEST DUP11 PUSH2 0x2FA JUMP JUMPDEST PUSH1 0x40 MLOAD RETURNDATASIZE PUSH1 0x0 DUP3 RETURNDATACOPY RETURNDATASIZE SWAP1 REVERT JUMPDEST SWAP1 SWAP4 POP DUP5 DUP2 DUP2 RETURNDATASIZE DUP4 GT PUSH2 0x439 JUMPI JUMPDEST PUSH2 0x429 DUP2 DUP4 PUSH2 0x3013 JUMP JUMPDEST DUP2 ADD SUB SLT PUSH2 0x249 JUMPI MLOAD SWAP3 DUP7 PUSH2 0x2A8 JUMP JUMPDEST POP RETURNDATASIZE PUSH2 0x41F JUMP JUMPDEST CALLVALUE PUSH2 0x249 JUMPI PUSH1 0x20 CALLDATASIZE PUSH1 0x3 NOT ADD SLT PUSH2 0x249 JUMPI PUSH2 0x459 PUSH2 0x2DD5 JUMP JUMPDEST PUSH2 0x461 PUSH2 0x2EE6 JUMP JUMPDEST PUSH1 0x1 PUSH1 0x1 PUSH1 0xA0 SHL SUB SWAP1 DUP2 AND SWAP1 DUP2 ISZERO PUSH2 0x4B5 JUMPI PUSH1 0x0 SLOAD DUP3 PUSH12 0xFFFFFFFFFFFFFFFFFFFFFFFF PUSH1 0xA0 SHL DUP3 AND OR PUSH1 0x0 SSTORE AND PUSH32 0x8BE0079C531659141344CD1FD0A4F28419497F9722A3DAAFE3B4186F6B6457E0 PUSH1 0x0 DUP1 LOG3 STOP JUMPDEST PUSH1 0x40 MLOAD PUSH4 0x1E4FBDF7 PUSH1 0xE0 SHL DUP2 MSTORE PUSH1 0x0 PUSH1 0x4 DUP3 ADD MSTORE PUSH1 0x24 SWAP1 REVERT JUMPDEST CALLVALUE PUSH2 0x249 JUMPI PUSH1 0x40 CALLDATASIZE PUSH1 0x3 NOT ADD SLT PUSH2 0x249 JUMPI PUSH2 0x4E7 PUSH2 0x2DEB JUMP JUMPDEST PUSH1 0x1 SLOAD PUSH1 0x1 PUSH1 0x1 PUSH1 0xA0 SHL SUB SWAP2 SWAP1 PUSH2 0x501 SWAP1 DUP4 AND CALLER EQ PUSH2 0x2F12 JUMP JUMPDEST AND DUP1 PUSH1 0x0 MSTORE PUSH1 0x2 PUSH1 0x20 MSTORE PUSH1 0x0 DUP1 MLOAD PUSH1 0x20 PUSH2 0x33D5 DUP4 CODECOPY DUP2 MLOAD SWAP2 MSTORE PUSH1 0x40 DUP1 PUSH1 0x0 KECCAK256 PUSH1 0x6 DUP2 ADD PUSH2 0x52E DUP2 SLOAD PUSH2 0x2F6E JUMP JUMPDEST SWAP1 SSTORE TIMESTAMP PUSH1 0xA DUP3 ADD SSTORE DUP4 PUSH1 0x0 MSTORE PUSH1 0x4 PUSH1 0x20 MSTORE PUSH2 0x54E PUSH1 0x4 CALLDATALOAD DUP4 PUSH1 0x0 KECCAK256 PUSH2 0x3062 JUMP JUMPDEST PUSH1 0x3 DUP2 SLOAD SWAP2 ADD SLOAD DUP3 MLOAD SWAP2 DUP3 MSTORE PUSH1 0x20 DUP3 ADD MSTORE LOG2 STOP JUMPDEST PUSH2 0x2E6F JUMP JUMPDEST CALLVALUE PUSH2 0x249 JUMPI PUSH1 0x40 CALLDATASIZE PUSH1 0x3 NOT ADD SLT PUSH2 0x249 JUMPI PUSH2 0x580 PUSH2 0x2DD5 JUMP JUMPDEST PUSH1 0x1 PUSH1 0x1 PUSH1 0xA0 SHL SUB AND PUSH1 0x0 SWAP1 DUP2 MSTORE PUSH1 0x4 PUSH1 0x20 MSTORE PUSH1 0x40 SWAP1 KECCAK256 DUP1 SLOAD PUSH1 0x24 CALLDATALOAD SWAP2 SWAP1 DUP3 LT ISZERO PUSH2 0x249 JUMPI PUSH1 0x20 SWAP2 PUSH2 0x5B1 SWAP2 PUSH2 0x2E41 JUMP JUMPDEST SWAP1 SLOAD PUSH1 0x40 MLOAD SWAP2 PUSH1 0x3 SHL SHR DUP2 MSTORE RETURN JUMPDEST CALLVALUE PUSH2 0x249 JUMPI PUSH1 0x20 CALLDATASIZE PUSH1 0x3 NOT ADD SLT PUSH2 0x249 JUMPI PUSH2 0x5D8 PUSH2 0x2DD5 JUMP JUMPDEST PUSH2 0x5E0 PUSH2 0x2EE6 JUMP JUMPDEST PUSH1 0x1 DUP1 SLOAD PUSH1 0x1 PUSH1 0x1 PUSH1 0xA0 SHL SUB NOT AND PUSH1 0x1 PUSH1 0x1 PUSH1 0xA0 SHL SUB SWAP3 SWAP1 SWAP3 AND SWAP2 SWAP1 SWAP2 OR SWAP1 SSTORE STOP JUMPDEST CALLVALUE PUSH2 0x249 JUMPI PUSH1 0x20 DUP1 PUSH1 0x3 NOT CALLDATASIZE ADD SLT PUSH2 0x249 JUMPI PUSH2 0x61C PUSH2 0x2DD5 JUMP JUMPDEST SWAP1 PUSH1 0x40 MLOAD PUSH2 0x629 DUP2 PUSH2 0x2FF7 JUMP JUMPDEST PUSH1 0x0 DUP2 MSTORE PUSH1 0x1 DUP1 SLOAD PUSH1 0x40 MLOAD PUSH4 0x1FCA74DD PUSH1 0xE3 SHL DUP2 MSTORE SWAP3 SWAP5 SWAP3 SWAP1 PUSH1 0x1 PUSH1 0x1 PUSH1 0xA0 SHL SUB SWAP1 DUP2 AND DUP6 DUP4 PUSH1 0x4 DUP2 DUP5 GAS STATICCALL SWAP3 DUP4 ISZERO PUSH2 0x405 JUMPI PUSH1 0x0 SWAP4 PUSH2 0x75D JUMPI JUMPDEST POP SWAP2 SWAP4 DUP2 AND SWAP2 DUP4 JUMPDEST DUP6 DUP2 LT PUSH2 0x686 JUMPI PUSH1 0x40 MLOAD DUP8 DUP2 MSTORE DUP1 PUSH2 0x2C5 DUP2 DUP11 ADD DUP12 PUSH2 0x2D79 JUMP JUMPDEST PUSH1 0x40 MLOAD PUSH4 0xEB44FDD3 PUSH1 0xE0 SHL DUP2 MSTORE PUSH1 0x4 DUP2 ADD DUP3 SWAP1 MSTORE PUSH1 0x24 SWAP1 PUSH1 0x0 DUP2 DUP4 DUP2 DUP8 GAS STATICCALL DUP1 ISZERO PUSH2 0x405 JUMPI PUSH1 0x80 DUP7 SWAP2 DUP9 SWAP4 PUSH1 0x0 SWAP2 PUSH2 0x742 JUMPI JUMPDEST POP ADD MLOAD AND EQ PUSH2 0x6D2 JUMPI JUMPDEST POP PUSH2 0x6CD SWAP1 PUSH2 0x2F6E JUMP JUMPDEST PUSH2 0x66C JUMP JUMPDEST DUP9 SWAP2 SWAP9 MLOAD SWAP1 DUP7 DUP3 ADD DUP1 SWAP3 GT PUSH2 0x3A2 JUMPI POP SWAP1 DUP9 PUSH2 0x6EE DUP8 SWAP4 PUSH2 0x32EC JUMP JUMPDEST SWAP2 DUP4 PUSH1 0x0 SWAP5 JUMPDEST PUSH2 0x712 JUMPI JUMPDEST POP PUSH2 0x6CD SWAP4 POP PUSH2 0x70A SWAP1 MLOAD DUP4 PUSH2 0x331E JUMP JUMPDEST MSTORE SWAP8 SWAP1 PUSH2 0x6C3 JUMP JUMPDEST SWAP2 DUP2 SWAP4 SWAP5 SWAP2 MLOAD DUP3 LT ISZERO PUSH2 0x738 JUMPI POP DUP1 PUSH2 0x37D PUSH2 0x72E SWAP3 DUP6 PUSH2 0x331E JUMP JUMPDEST SWAP3 SWAP2 DUP2 DUP12 SWAP3 PUSH2 0x6F4 JUMP JUMPDEST SWAP2 DUP5 SWAP4 SWAP2 POP PUSH2 0x6F9 JUMP JUMPDEST PUSH2 0x757 SWAP2 POP RETURNDATASIZE DUP1 PUSH1 0x0 DUP4 RETURNDATACOPY PUSH2 0x3F7 DUP2 DUP4 PUSH2 0x3013 JUMP JUMPDEST DUP14 PUSH2 0x6B9 JUMP JUMPDEST SWAP1 SWAP3 POP DUP6 DUP2 DUP2 RETURNDATASIZE DUP4 GT PUSH2 0x785 JUMPI JUMPDEST PUSH2 0x775 DUP2 DUP4 PUSH2 0x3013 JUMP JUMPDEST DUP2 ADD SUB SLT PUSH2 0x249 JUMPI MLOAD SWAP2 DUP8 PUSH2 0x664 JUMP JUMPDEST POP RETURNDATASIZE PUSH2 0x76B JUMP JUMPDEST CALLVALUE PUSH2 0x249 JUMPI PUSH1 0x20 DUP1 PUSH1 0x3 NOT CALLDATASIZE ADD SLT PUSH2 0x249 JUMPI PUSH1 0x1 DUP1 SLOAD PUSH1 0x40 MLOAD PUSH4 0x1FCA74DD PUSH1 0xE3 SHL DUP2 MSTORE PUSH1 0x1 PUSH1 0x1 PUSH1 0xA0 SHL SUB SWAP1 SWAP2 AND SWAP3 SWAP2 SWAP1 DUP3 DUP2 PUSH1 0x4 DUP2 DUP8 GAS STATICCALL SWAP1 DUP2 ISZERO PUSH2 0x405 JUMPI PUSH1 0x0 SWAP2 PUSH2 0xB38 JUMPI JUMPDEST POP PUSH1 0x40 MLOAD PUSH2 0x7E1 DUP2 PUSH2 0x2FF7 JUMP JUMPDEST PUSH1 0x0 DUP2 MSTORE SWAP4 PUSH1 0x40 MLOAD PUSH2 0x7F2 DUP2 PUSH2 0x2FF7 JUMP JUMPDEST PUSH1 0x0 DUP2 MSTORE SWAP4 DUP4 JUMPDEST DUP4 DUP2 LT PUSH2 0x9AA JUMPI POP POP POP POP DUP1 PUSH1 0x0 SWAP1 JUMPDEST PUSH2 0x895 JUMPI JUMPDEST POP POP PUSH1 0x4 CALLDATALOAD DUP1 ISZERO ISZERO DUP1 PUSH2 0x88B JUMPI JUMPDEST ISZERO PUSH2 0x883 JUMPI JUMPDEST PUSH2 0x82B DUP2 PUSH2 0x32EC JUMP JUMPDEST SWAP2 PUSH2 0x835 DUP3 PUSH2 0x32EC JUMP JUMPDEST SWAP4 PUSH1 0x0 JUMPDEST DUP4 DUP2 LT PUSH2 0x84F JUMPI PUSH1 0x40 MLOAD DUP1 PUSH2 0x2C5 DUP9 DUP9 DUP4 PUSH2 0x2DAD JUMP JUMPDEST DUP1 PUSH2 0x85D PUSH2 0x87E SWAP3 DUP5 PUSH2 0x331E JUMP JUMPDEST MLOAD PUSH2 0x868 DUP3 DUP9 PUSH2 0x331E JUMP JUMPDEST MSTORE PUSH2 0x873 DUP2 DUP6 PUSH2 0x331E JUMP JUMPDEST MLOAD PUSH2 0x388 DUP3 DUP10 PUSH2 0x331E JUMP JUMPDEST PUSH2 0x839 JUMP JUMPDEST POP DUP2 MLOAD PUSH2 0x822 JUMP JUMPDEST POP DUP3 MLOAD DUP2 LT PUSH2 0x81C JUMP JUMPDEST DUP4 MLOAD PUSH1 0x0 NOT SWAP1 DUP2 DUP2 ADD SWAP1 DUP2 GT PUSH2 0x983 JUMPI DUP3 LT ISZERO PUSH2 0x9A4 JUMPI PUSH1 0x0 SWAP1 DUP4 JUMPDEST PUSH2 0x8C8 JUMPI JUMPDEST POP POP PUSH2 0x8C2 DUP3 SWAP2 PUSH2 0x2F6E JUMP JUMPDEST SWAP1 PUSH2 0x809 JUMP JUMPDEST PUSH2 0x8D8 DUP4 DUP8 SWAP5 SWAP7 SWAP4 SWAP6 SWAP8 MLOAD PUSH2 0x3055 JUMP JUMPDEST DUP2 DUP2 ADD SWAP1 DUP2 GT PUSH2 0x983 JUMPI DUP5 LT ISZERO PUSH2 0x999 JUMPI PUSH2 0x8F3 DUP5 DUP4 PUSH2 0x331E JUMP JUMPDEST MLOAD DUP7 DUP6 ADD SWAP5 DUP6 DUP2 GT PUSH2 0x983 JUMPI DUP6 PUSH2 0x91C SWAP3 PUSH2 0x90F DUP11 SWAP9 DUP8 PUSH2 0x331E JUMP JUMPDEST MLOAD GT PUSH2 0x925 JUMPI JUMPDEST POP PUSH2 0x2F6E JUMP JUMPDEST SWAP2 SWAP5 SWAP3 SWAP6 PUSH2 0x8B1 JUMP JUMPDEST PUSH2 0x92F DUP3 DUP7 PUSH2 0x331E JUMP JUMPDEST MLOAD PUSH2 0x93A DUP3 DUP8 PUSH2 0x331E JUMP JUMPDEST MLOAD PUSH2 0x945 DUP5 DUP9 PUSH2 0x331E JUMP JUMPDEST MSTORE PUSH2 0x950 DUP3 DUP8 PUSH2 0x331E JUMP JUMPDEST MSTORE PUSH2 0x97C PUSH2 0x95E DUP4 DUP9 PUSH2 0x331E JUMP JUMPDEST MLOAD SWAP2 PUSH2 0x96A DUP2 DUP10 PUSH2 0x331E JUMP JUMPDEST MLOAD PUSH2 0x975 DUP6 DUP11 PUSH2 0x331E JUMP JUMPDEST MSTORE DUP8 PUSH2 0x331E JUMP JUMPDEST MSTORE DUP9 PUSH2 0x916 JUMP JUMPDEST PUSH4 0x4E487B71 PUSH1 0xE0 SHL PUSH1 0x0 MSTORE PUSH1 0x11 PUSH1 0x4 MSTORE PUSH1 0x24 PUSH1 0x0 REVERT JUMPDEST DUP2 SWAP5 SWAP3 SWAP6 SWAP4 POP PUSH2 0x8B6 JUMP JUMPDEST POP PUSH2 0x80E JUMP JUMPDEST PUSH1 0x40 MLOAD PUSH4 0xEB44FDD3 PUSH1 0xE0 SHL DUP2 MSTORE PUSH1 0x4 DUP2 ADD DUP3 SWAP1 MSTORE PUSH1 0x24 SWAP1 PUSH1 0x0 DUP2 DUP4 DUP2 DUP9 GAS STATICCALL DUP1 ISZERO PUSH2 0x405 JUMPI PUSH2 0x160 SWAP2 PUSH1 0x0 SWAP2 PUSH2 0xB1D JUMPI JUMPDEST POP ADD MLOAD PUSH1 0x5 DUP2 LT ISZERO PUSH2 0x3CD JUMPI ISZERO PUSH2 0x9FC JUMPI JUMPDEST POP PUSH2 0x9F7 SWAP1 PUSH2 0x2F6E JUMP JUMPDEST PUSH2 0x7F9 JUMP JUMPDEST SWAP1 SWAP6 PUSH1 0x40 MLOAD SWAP1 PUSH4 0x14D45011 PUSH1 0xE2 SHL DUP3 MSTORE DUP8 PUSH1 0x4 DUP4 ADD MSTORE DUP4 DUP3 DUP5 DUP2 DUP9 GAS STATICCALL SWAP2 DUP3 ISZERO PUSH2 0x405 JUMPI PUSH1 0x0 SWAP3 PUSH2 0xAEE JUMPI JUMPDEST POP DUP9 MLOAD DUP8 DUP2 ADD DUP1 SWAP2 GT PUSH2 0xAD9 JUMPI PUSH2 0xA3E SWAP1 PUSH2 0x32EC JUMP JUMPDEST SWAP3 DUP2 MLOAD SWAP1 DUP9 DUP3 ADD DUP1 SWAP3 GT PUSH2 0x3A2 JUMPI POP PUSH2 0xA57 DUP10 SWAP2 PUSH2 0x32EC JUMP JUMPDEST SWAP10 DUP9 PUSH1 0x0 DUP2 JUMPDEST PUSH2 0xA8A JUMPI JUMPDEST POP POP SWAP2 PUSH2 0xA81 SWAP2 PUSH2 0xA79 PUSH2 0x9F7 SWAP7 SWAP6 SWAP5 MLOAD DUP7 PUSH2 0x331E JUMP JUMPDEST MSTORE MLOAD DUP11 PUSH2 0x331E JUMP JUMPDEST MSTORE SWAP7 SWAP6 SWAP1 PUSH2 0x9ED JUMP JUMPDEST SWAP1 SWAP2 SWAP3 DUP4 MLOAD DUP3 LT ISZERO PUSH2 0xAD1 JUMPI POP DUP1 PUSH2 0xAA5 PUSH2 0xAC7 SWAP3 DUP6 PUSH2 0x331E JUMP JUMPDEST MLOAD PUSH2 0xAB0 DUP3 DUP10 PUSH2 0x331E JUMP JUMPDEST MSTORE DUP13 PUSH2 0x388 DUP3 PUSH2 0xAC0 DUP2 DUP10 PUSH2 0x331E JUMP JUMPDEST MLOAD SWAP3 PUSH2 0x331E JUMP JUMPDEST SWAP1 DUP11 SWAP3 SWAP2 DUP2 PUSH2 0xA5D JUMP JUMPDEST SWAP3 SWAP2 SWAP1 PUSH2 0xA62 JUMP JUMPDEST DUP4 PUSH4 0x4E487B71 PUSH1 0xE0 SHL PUSH1 0x0 MSTORE PUSH1 0x11 PUSH1 0x4 MSTORE PUSH1 0x0 REVERT JUMPDEST SWAP1 SWAP2 POP DUP4 DUP2 DUP2 RETURNDATASIZE DUP4 GT PUSH2 0xB16 JUMPI JUMPDEST PUSH2 0xB06 DUP2 DUP4 PUSH2 0x3013 JUMP JUMPDEST DUP2 ADD SUB SLT PUSH2 0x249 JUMPI MLOAD SWAP1 DUP10 PUSH2 0xA28 JUMP JUMPDEST POP RETURNDATASIZE PUSH2 0xAFC JUMP JUMPDEST PUSH2 0xB32 SWAP2 POP RETURNDATASIZE DUP1 PUSH1 0x0 DUP4 RETURNDATACOPY PUSH2 0x3F7 DUP2 DUP4 PUSH2 0x3013 JUMP JUMPDEST DUP11 PUSH2 0x9DB JUMP JUMPDEST SWAP1 POP DUP3 DUP2 DUP2 RETURNDATASIZE DUP4 GT PUSH2 0xB5E JUMPI JUMPDEST PUSH2 0xB4F DUP2 DUP4 PUSH2 0x3013 JUMP JUMPDEST DUP2 ADD SUB SLT PUSH2 0x249 JUMPI MLOAD DUP5 PUSH2 0x7D4 JUMP JUMPDEST POP RETURNDATASIZE PUSH2 0xB45 JUMP JUMPDEST CALLVALUE PUSH2 0x249 JUMPI PUSH1 0x20 DUP1 PUSH1 0x3 NOT CALLDATASIZE ADD SLT PUSH2 0x249 JUMPI PUSH1 0x1 DUP1 SLOAD PUSH1 0x40 MLOAD PUSH4 0x1FCA74DD PUSH1 0xE3 SHL DUP2 MSTORE PUSH1 0x1 PUSH1 0x1 PUSH1 0xA0 SHL SUB SWAP1 SWAP2 AND SWAP2 SWAP1 DUP4 DUP2 PUSH1 0x4 DUP2 DUP7 GAS STATICCALL SWAP1 DUP2 ISZERO PUSH2 0x405 JUMPI PUSH1 0x0 SWAP2 PUSH2 0xE93 JUMPI JUMPDEST POP PUSH1 0x40 MLOAD PUSH2 0xBB9 DUP2 PUSH2 0x2FF7 JUMP JUMPDEST PUSH1 0x0 DUP2 MSTORE SWAP4 PUSH1 0x40 MLOAD PUSH2 0xBCA DUP2 PUSH2 0x2FF7 JUMP JUMPDEST PUSH1 0x0 DUP2 MSTORE SWAP4 DUP4 JUMPDEST DUP4 DUP2 LT PUSH2 0xCE0 JUMPI POP POP POP POP DUP1 PUSH1 0x0 SWAP1 JUMPDEST PUSH2 0xC4C JUMPI JUMPDEST POP POP PUSH1 0x4 CALLDATALOAD DUP1 ISZERO ISZERO DUP1 PUSH2 0xC42 JUMPI JUMPDEST ISZERO PUSH2 0xC3A JUMPI JUMPDEST PUSH2 0xC03 DUP2 PUSH2 0x32EC JUMP JUMPDEST SWAP2 PUSH2 0xC0D DUP3 PUSH2 0x32EC JUMP JUMPDEST SWAP4 PUSH1 0x0 JUMPDEST DUP4 DUP2 LT PUSH2 0xC27 JUMPI PUSH1 0x40 MLOAD DUP1 PUSH2 0x2C5 DUP9 DUP9 DUP4 PUSH2 0x2DAD JUMP JUMPDEST DUP1 PUSH2 0x85D PUSH2 0xC35 SWAP3 DUP5 PUSH2 0x331E JUMP JUMPDEST PUSH2 0xC11 JUMP JUMPDEST POP DUP2 MLOAD PUSH2 0xBFA JUMP JUMPDEST POP DUP3 MLOAD DUP2 LT PUSH2 0xBF4 JUMP JUMPDEST DUP4 MLOAD PUSH1 0x0 NOT SWAP1 DUP2 DUP2 ADD SWAP1 DUP2 GT PUSH2 0x983 JUMPI DUP3 LT ISZERO PUSH2 0xCDA JUMPI PUSH1 0x0 SWAP1 DUP4 JUMPDEST PUSH2 0xC7F JUMPI JUMPDEST POP POP PUSH2 0xC79 DUP3 SWAP2 PUSH2 0x2F6E JUMP JUMPDEST SWAP1 PUSH2 0xBE1 JUMP JUMPDEST PUSH2 0xC8F DUP4 DUP8 SWAP5 SWAP7 SWAP4 SWAP6 SWAP8 MLOAD PUSH2 0x3055 JUMP JUMPDEST DUP2 DUP2 ADD SWAP1 DUP2 GT PUSH2 0x983 JUMPI DUP5 LT ISZERO PUSH2 0xCCF JUMPI PUSH2 0xCAA DUP5 DUP4 PUSH2 0x331E JUMP JUMPDEST MLOAD DUP7 DUP6 ADD SWAP5 DUP6 DUP2 GT PUSH2 0x983 JUMPI DUP6 PUSH2 0xCC6 SWAP3 PUSH2 0x90F DUP11 SWAP9 DUP8 PUSH2 0x331E JUMP JUMPDEST SWAP2 SWAP5 SWAP3 SWAP6 PUSH2 0xC68 JUMP JUMPDEST DUP2 SWAP5 SWAP3 SWAP6 SWAP4 POP PUSH2 0xC6D JUMP JUMPDEST POP PUSH2 0xBE6 JUMP JUMPDEST PUSH1 0x40 MLOAD PUSH4 0xEB44FDD3 PUSH1 0xE0 SHL DUP2 MSTORE PUSH1 0x4 DUP2 ADD DUP3 SWAP1 MSTORE PUSH1 0x24 SWAP1 PUSH1 0x0 DUP2 DUP4 DUP2 DUP8 GAS STATICCALL DUP1 ISZERO PUSH2 0x405 JUMPI PUSH2 0x160 SWAP2 PUSH1 0x0 SWAP2 PUSH2 0xE78 JUMPI JUMPDEST POP ADD MLOAD PUSH1 0x5 DUP2 LT ISZERO PUSH2 0x3CD JUMPI ISZERO PUSH2 0xD32 JUMPI JUMPDEST POP PUSH2 0xD2D SWAP1 PUSH2 0x2F6E JUMP JUMPDEST PUSH2 0xBD1 JUMP JUMPDEST SWAP1 SWAP6 PUSH1 0x40 MLOAD PUSH4 0x14D45011 PUSH1 0xE2 SHL DUP2 MSTORE DUP8 PUSH1 0x4 DUP3 ADD MSTORE DUP5 DUP2 DUP5 DUP2 DUP8 GAS STATICCALL SWAP1 DUP2 ISZERO PUSH2 0x405 JUMPI PUSH1 0x0 SWAP2 PUSH2 0xE4B JUMPI JUMPDEST POP PUSH1 0x40 MLOAD PUSH4 0x28C28245 PUSH1 0xE2 SHL DUP2 MSTORE PUSH1 0x4 DUP2 ADD DUP10 SWAP1 MSTORE SWAP1 DUP6 DUP3 DUP6 DUP2 DUP9 GAS STATICCALL SWAP1 DUP2 ISZERO PUSH2 0x405 JUMPI PUSH1 0x0 SWAP2 PUSH2 0xE1A JUMPI JUMPDEST PUSH2 0xD93 SWAP3 POP PUSH2 0x2F7D JUMP JUMPDEST SWAP1 DUP9 MLOAD DUP8 DUP2 ADD DUP1 SWAP2 GT PUSH2 0xAD9 JUMPI PUSH2 0xDA9 SWAP1 PUSH2 0x32EC JUMP JUMPDEST SWAP3 DUP2 MLOAD SWAP1 DUP9 DUP3 ADD DUP1 SWAP3 GT PUSH2 0x3A2 JUMPI POP PUSH2 0xDC2 DUP10 SWAP2 PUSH2 0x32EC JUMP JUMPDEST SWAP10 DUP9 PUSH1 0x0 DUP2 JUMPDEST PUSH2 0xDED JUMPI JUMPDEST POP POP SWAP2 PUSH2 0xDE4 SWAP2 PUSH2 0xA79 PUSH2 0xD2D SWAP7 SWAP6 SWAP5 MLOAD DUP7 PUSH2 0x331E JUMP JUMPDEST MSTORE SWAP7 SWAP6 SWAP1 PUSH2 0xD23 JUMP JUMPDEST SWAP1 SWAP2 SWAP3 DUP4 MLOAD DUP3 LT ISZERO PUSH2 0xE12 JUMPI POP DUP1 PUSH2 0xAA5 PUSH2 0xE08 SWAP3 DUP6 PUSH2 0x331E JUMP JUMPDEST SWAP1 DUP11 SWAP3 SWAP2 DUP2 PUSH2 0xDC8 JUMP JUMPDEST SWAP3 SWAP2 SWAP1 PUSH2 0xDCD JUMP JUMPDEST SWAP1 POP DUP6 DUP3 DUP2 RETURNDATASIZE DUP4 GT PUSH2 0xE44 JUMPI JUMPDEST PUSH2 0xE31 DUP2 DUP4 PUSH2 0x3013 JUMP JUMPDEST DUP2 ADD SUB SLT PUSH2 0x249 JUMPI PUSH2 0xD93 SWAP2 MLOAD SWAP1 PUSH2 0xD89 JUMP JUMPDEST POP RETURNDATASIZE PUSH2 0xE27 JUMP JUMPDEST SWAP1 POP DUP5 DUP2 DUP2 RETURNDATASIZE DUP4 GT PUSH2 0xE71 JUMPI JUMPDEST PUSH2 0xE62 DUP2 DUP4 PUSH2 0x3013 JUMP JUMPDEST DUP2 ADD SUB SLT PUSH2 0x249 JUMPI MLOAD DUP10 PUSH2 0xD5D JUMP JUMPDEST POP RETURNDATASIZE PUSH2 0xE58 JUMP JUMPDEST PUSH2 0xE8D SWAP2 POP RETURNDATASIZE DUP1 PUSH1 0x0 DUP4 RETURNDATACOPY PUSH2 0x3F7 DUP2 DUP4 PUSH2 0x3013 JUMP JUMPDEST DUP11 PUSH2 0xD11 JUMP JUMPDEST SWAP1 POP DUP4 DUP2 DUP2 RETURNDATASIZE DUP4 GT PUSH2 0xEB9 JUMPI JUMPDEST PUSH2 0xEAA DUP2 DUP4 PUSH2 0x3013 JUMP JUMPDEST DUP2 ADD SUB SLT PUSH2 0x249 JUMPI MLOAD DUP5 PUSH2 0xBAC JUMP JUMPDEST POP RETURNDATASIZE PUSH2 0xEA0 JUMP JUMPDEST CALLVALUE PUSH2 0x249 JUMPI PUSH1 0x20 DUP1 PUSH1 0x3 NOT CALLDATASIZE ADD SLT PUSH2 0x249 JUMPI PUSH1 0x4 CALLDATALOAD SWAP1 PUSH1 0x5 DUP1 DUP4 LT ISZERO SWAP1 DUP2 PUSH2 0x249 JUMPI PUSH1 0x40 MLOAD PUSH2 0xEEE DUP2 PUSH2 0x2FF7 JUMP JUMPDEST PUSH1 0x0 DUP2 MSTORE PUSH1 0x1 DUP1 SLOAD PUSH1 0x40 MLOAD PUSH4 0x1FCA74DD PUSH1 0xE3 SHL DUP2 MSTORE SWAP3 SWAP7 SWAP3 SWAP5 SWAP2 SWAP4 SWAP2 SWAP1 PUSH1 0x1 PUSH1 0x1 PUSH1 0xA0 SHL SUB AND DUP7 DUP7 PUSH1 0x4 DUP2 DUP5 GAS STATICCALL SWAP6 DUP7 ISZERO PUSH2 0x405 JUMPI PUSH1 0x0 SWAP7 PUSH2 0x102A JUMPI JUMPDEST POP DUP5 JUMPDEST DUP7 DUP2 LT PUSH2 0xF48 JUMPI PUSH1 0x40 MLOAD DUP9 DUP2 MSTORE DUP1 PUSH2 0x2C5 DUP2 DUP12 ADD DUP13 PUSH2 0x2D79 JUMP JUMPDEST PUSH1 0x40 MLOAD PUSH4 0xEB44FDD3 PUSH1 0xE0 SHL DUP2 MSTORE PUSH1 0x4 DUP2 ADD DUP3 SWAP1 MSTORE PUSH1 0x24 SWAP1 PUSH1 0x0 DUP2 DUP4 DUP2 DUP8 GAS STATICCALL DUP1 ISZERO PUSH2 0x405 JUMPI PUSH2 0x160 SWAP2 PUSH1 0x0 SWAP2 PUSH2 0x100F JUMPI JUMPDEST POP ADD MLOAD DUP6 DUP2 LT ISZERO PUSH2 0x3CD JUMPI DUP5 PUSH2 0x3CD JUMPI DUP7 EQ PUSH2 0xF9F JUMPI JUMPDEST POP PUSH2 0xF9A SWAP1 PUSH2 0x2F6E JUMP JUMPDEST PUSH2 0xF2E JUMP JUMPDEST DUP10 SWAP2 SWAP10 MLOAD SWAP1 DUP8 DUP3 ADD DUP1 SWAP3 GT PUSH2 0x3A2 JUMPI POP SWAP1 DUP10 PUSH2 0xFBB DUP9 SWAP4 PUSH2 0x32EC JUMP JUMPDEST SWAP2 DUP4 PUSH1 0x0 SWAP5 JUMPDEST PUSH2 0xFDF JUMPI JUMPDEST POP PUSH2 0xF9A SWAP4 POP PUSH2 0xFD7 SWAP1 MLOAD DUP4 PUSH2 0x331E JUMP JUMPDEST MSTORE SWAP9 SWAP1 PUSH2 0xF90 JUMP JUMPDEST SWAP2 DUP2 SWAP4 SWAP5 SWAP2 MLOAD DUP3 LT ISZERO PUSH2 0x1005 JUMPI POP DUP1 PUSH2 0x37D PUSH2 0xFFB SWAP3 DUP6 PUSH2 0x331E JUMP JUMPDEST SWAP3 SWAP2 DUP2 DUP13 SWAP3 PUSH2 0xFC1 JUMP JUMPDEST SWAP2 DUP5 SWAP4 SWAP2 POP PUSH2 0xFC6 JUMP JUMPDEST PUSH2 0x1024 SWAP2 POP RETURNDATASIZE DUP1 PUSH1 0x0 DUP4 RETURNDATACOPY PUSH2 0x3F7 DUP2 DUP4 PUSH2 0x3013 JUMP JUMPDEST DUP13 PUSH2 0xF79 JUMP JUMPDEST SWAP1 SWAP6 POP DUP7 DUP2 DUP2 RETURNDATASIZE DUP4 GT PUSH2 0x1052 JUMPI JUMPDEST PUSH2 0x1042 DUP2 DUP4 PUSH2 0x3013 JUMP JUMPDEST DUP2 ADD SUB SLT PUSH2 0x249 JUMPI MLOAD SWAP5 DUP9 PUSH2 0xF2B JUMP JUMPDEST POP RETURNDATASIZE PUSH2 0x1038 JUMP JUMPDEST CALLVALUE PUSH2 0x249 JUMPI PUSH2 0x1067 CALLDATASIZE PUSH2 0x2E01 JUMP JUMPDEST PUSH1 0x1 SLOAD PUSH1 0x1 PUSH1 0x1 PUSH1 0xA0 SHL SUB SWAP4 SWAP3 DUP5 SWAP2 PUSH2 0x1083 SWAP1 DUP4 AND CALLER EQ PUSH2 0x2F12 JUMP JUMPDEST AND SWAP3 DUP4 PUSH1 0x0 MSTORE PUSH1 0x24 PUSH1 0x20 SWAP2 PUSH1 0x2 DUP4 MSTORE PUSH1 0x40 PUSH1 0x0 KECCAK256 SWAP4 PUSH2 0x10A7 PUSH1 0x5 DUP7 ADD SWAP2 DUP3 SLOAD PUSH2 0x2F7D JUMP JUMPDEST SWAP1 SSTORE TIMESTAMP PUSH1 0xA DUP6 ADD SSTORE DUP5 PUSH1 0x0 MSTORE PUSH1 0x3 DUP4 MSTORE DUP3 PUSH1 0x40 PUSH1 0x0 KECCAK256 SWAP2 PUSH1 0x1 SLOAD AND PUSH1 0x40 MLOAD SWAP4 DUP5 DUP1 SWAP3 PUSH4 0x28C28245 PUSH1 0xE2 SHL DUP3 MSTORE DUP10 PUSH1 0x4 DUP4 ADD MSTORE GAS STATICCALL SWAP2 DUP3 ISZERO PUSH2 0x405 JUMPI PUSH1 0x0 SWAP3 PUSH2 0x112C JUMPI JUMPDEST POP PUSH1 0x0 DUP1 MLOAD PUSH1 0x20 PUSH2 0x33D5 DUP4 CODECOPY DUP2 MLOAD SWAP2 MSTORE SWAP5 PUSH1 0x40 SWAP5 SWAP4 SWAP3 PUSH1 0x2 PUSH2 0x1119 SWAP4 ADD SSTORE DUP7 PUSH1 0x0 MSTORE PUSH1 0x6 DUP4 MSTORE DUP5 PUSH1 0x0 KECCAK256 PUSH2 0x3062 JUMP JUMPDEST PUSH1 0x3 DUP3 SLOAD SWAP3 ADD SLOAD SWAP1 DUP4 MLOAD SWAP3 DUP4 MSTORE DUP3 ADD MSTORE LOG2 STOP JUMPDEST SWAP1 SWAP4 SWAP3 DUP1 SWAP3 POP DUP2 DUP2 RETURNDATASIZE DUP4 GT PUSH2 0x1168 JUMPI JUMPDEST PUSH2 0x1146 DUP2 DUP4 PUSH2 0x3013 JUMP JUMPDEST DUP2 ADD SUB SLT PUSH2 0x249 JUMPI MLOAD SWAP2 SWAP3 SWAP1 SWAP2 SWAP1 PUSH1 0x0 DUP1 MLOAD PUSH1 0x20 PUSH2 0x33D5 DUP4 CODECOPY DUP2 MLOAD SWAP2 MSTORE PUSH2 0x10EA JUMP JUMPDEST POP RETURNDATASIZE PUSH2 0x113C JUMP JUMPDEST CALLVALUE PUSH2 0x249 JUMPI PUSH1 0x0 CALLDATASIZE PUSH1 0x3 NOT ADD SLT PUSH2 0x249 JUMPI PUSH1 0x0 SLOAD PUSH1 0x40 MLOAD PUSH1 0x1 PUSH1 0x1 PUSH1 0xA0 SHL SUB SWAP1 SWAP2 AND DUP2 MSTORE PUSH1 0x20 SWAP1 RETURN JUMPDEST CALLVALUE PUSH2 0x249 JUMPI PUSH1 0x20 CALLDATASIZE PUSH1 0x3 NOT ADD SLT PUSH2 0x249 JUMPI PUSH1 0x1 PUSH1 0x1 PUSH1 0xA0 SHL SUB PUSH2 0x11B9 PUSH2 0x2DD5 JUMP JUMPDEST AND PUSH1 0x0 MSTORE PUSH1 0x2 PUSH1 0x20 MSTORE PUSH2 0x160 PUSH1 0x40 PUSH1 0x0 KECCAK256 DUP1 SLOAD SWAP1 PUSH1 0x1 DUP2 ADD SLOAD SWAP1 PUSH1 0x2 DUP2 ADD SLOAD PUSH1 0x3 DUP3 ADD SLOAD PUSH1 0x4 DUP4 ADD SLOAD PUSH1 0x5 DUP5 ADD SLOAD PUSH1 0x6 DUP6 ADD SLOAD SWAP2 PUSH1 0x7 DUP7 ADD SLOAD SWAP4 PUSH1 0x8 DUP8 ADD SLOAD SWAP6 PUSH1 0xA PUSH1 0x9 DUP10 ADD SLOAD SWAP9 ADD SLOAD SWAP9 PUSH1 0x40 MLOAD SWAP11 DUP12 MSTORE PUSH1 0x20 DUP12 ADD MSTORE PUSH1 0x40 DUP11 ADD MSTORE PUSH1 0x60 DUP10 ADD MSTORE PUSH1 0x80 DUP9 ADD MSTORE PUSH1 0xA0 DUP8 ADD MSTORE PUSH1 0xC0 DUP7 ADD MSTORE PUSH1 0xE0 DUP6 ADD MSTORE PUSH2 0x100 DUP5 ADD MSTORE PUSH2 0x120 DUP4 ADD MSTORE PUSH2 0x140 DUP3 ADD MSTORE RETURN JUMPDEST CALLVALUE PUSH2 0x249 JUMPI PUSH1 0xE0 CALLDATASIZE PUSH1 0x3 NOT ADD SLT PUSH2 0x249 JUMPI PUSH2 0x125A PUSH2 0x2DD5 JUMP JUMPDEST PUSH2 0x1262 PUSH2 0x2DEB JUMP JUMPDEST PUSH1 0x5 PUSH1 0x84 CALLDATALOAD LT ISZERO SWAP2 DUP3 PUSH2 0x249 JUMPI PUSH1 0x40 MLOAD PUSH2 0x127B DUP2 PUSH2 0x2FF7 JUMP JUMPDEST PUSH1 0x0 DUP2 MSTORE PUSH1 0x1 SLOAD PUSH1 0x40 MLOAD PUSH4 0x1FCA74DD PUSH1 0xE3 SHL DUP2 MSTORE SWAP2 SWAP5 SWAP2 SWAP4 SWAP1 PUSH1 0x1 PUSH1 0x1 PUSH1 0xA0 SHL SUB AND PUSH1 0x20 DUP6 PUSH1 0x4 DUP2 DUP5 GAS STATICCALL SWAP5 DUP6 ISZERO PUSH2 0x405 JUMPI PUSH1 0x0 SWAP6 PUSH2 0x1586 JUMPI JUMPDEST POP PUSH1 0x1 JUMPDEST DUP6 DUP2 LT PUSH2 0x12D6 JUMPI PUSH1 0x40 MLOAD PUSH1 0x20 DUP1 DUP3 MSTORE DUP2 SWAP1 PUSH2 0x2C5 SWAP1 DUP3 ADD DUP11 PUSH2 0x2D79 JUMP JUMPDEST PUSH1 0x40 MLOAD PUSH4 0xEB44FDD3 PUSH1 0xE0 SHL DUP2 MSTORE PUSH1 0x4 DUP2 ADD DUP3 SWAP1 MSTORE PUSH1 0x0 DUP2 PUSH1 0x24 DUP2 DUP7 GAS STATICCALL SWAP1 DUP2 ISZERO PUSH2 0x405 JUMPI PUSH1 0x0 SWAP2 PUSH2 0x156B JUMPI JUMPDEST POP DUP2 PUSH1 0x0 MSTORE PUSH1 0x3 PUSH1 0x20 MSTORE PUSH1 0x40 PUSH1 0x0 KECCAK256 SWAP1 PUSH1 0x40 MLOAD PUSH2 0x131E DUP2 PUSH2 0x2FBD JUMP JUMPDEST DUP3 SLOAD DUP1 DUP3 MSTORE PUSH1 0x1 DUP1 DUP6 ADD SLOAD PUSH1 0x20 DUP5 ADD MSTORE PUSH1 0x2 DUP6 ADD SLOAD PUSH1 0x40 DUP5 ADD MSTORE PUSH1 0x3 DUP6 ADD SLOAD PUSH1 0x60 DUP5 ADD MSTORE PUSH1 0x4 DUP6 ADD SLOAD PUSH1 0x80 DUP5 ADD MSTORE PUSH1 0x5 DUP6 ADD SLOAD PUSH1 0xA0 DUP5 ADD MSTORE PUSH1 0x6 DUP6 ADD SLOAD PUSH1 0xC0 DUP5 ADD MSTORE PUSH1 0x7 DUP6 ADD SLOAD PUSH1 0xFF AND ISZERO ISZERO PUSH1 0xE0 DUP5 ADD MSTORE PUSH1 0x8 SWAP1 SWAP5 ADD SLOAD PUSH2 0x100 SWAP1 SWAP3 ADD SWAP2 SWAP1 SWAP2 MSTORE DUP7 SWAP1 PUSH1 0x1 PUSH1 0x1 PUSH1 0xA0 SHL SUB DUP10 AND DUP1 ISZERO ISZERO SWAP1 PUSH2 0x1554 JUMPI JUMPDEST PUSH2 0x154B JUMPI JUMPDEST PUSH1 0x1 PUSH1 0x1 PUSH1 0xA0 SHL SUB DUP8 AND DUP1 ISZERO ISZERO SWAP1 PUSH2 0x1531 JUMPI JUMPDEST PUSH2 0x1528 JUMPI JUMPDEST PUSH1 0x44 CALLDATALOAD ISZERO ISZERO PUSH1 0x44 CALLDATALOAD PUSH2 0x151D JUMPI JUMPDEST PUSH2 0x1514 JUMPI JUMPDEST PUSH1 0x64 CALLDATALOAD ISZERO ISZERO SWAP1 PUSH1 0x64 CALLDATALOAD PUSH2 0x1508 JUMPI JUMPDEST POP PUSH2 0x14FF JUMPI JUMPDEST PUSH2 0x14E9 JUMPI PUSH1 0x84 CALLDATALOAD ISZERO ISZERO PUSH1 0x84 CALLDATALOAD PUSH2 0x14CA JUMPI JUMPDEST PUSH2 0x14C1 JUMPI JUMPDEST PUSH1 0xA4 CALLDATALOAD ISZERO ISZERO PUSH1 0xA4 CALLDATALOAD PUSH2 0x14B1 JUMPI JUMPDEST PUSH2 0x14A8 JUMPI JUMPDEST PUSH1 0xC4 CALLDATALOAD ISZERO ISZERO SWAP1 PUSH1 0xC4 CALLDATALOAD PUSH2 0x1496 JUMPI JUMPDEST POP PUSH2 0x148E JUMPI JUMPDEST PUSH2 0x1426 JUMPI JUMPDEST PUSH2 0x1421 SWAP1 PUSH2 0x2F6E JUMP JUMPDEST PUSH2 0x12B9 JUMP JUMPDEST SWAP5 SWAP2 SWAP4 SWAP1 SWAP3 DUP7 MLOAD PUSH1 0x1 DUP2 ADD DUP2 GT PUSH2 0x983 JUMPI PUSH1 0x1 PUSH2 0x1443 SWAP2 ADD PUSH2 0x32EC JUMP JUMPDEST SWAP5 PUSH1 0x0 JUMPDEST DUP9 MLOAD DUP2 LT ISZERO PUSH2 0x146E JUMPI DUP1 PUSH2 0x145E PUSH2 0x1469 SWAP3 DUP12 PUSH2 0x331E JUMP JUMPDEST MLOAD PUSH2 0x388 DUP3 DUP11 PUSH2 0x331E JUMP JUMPDEST PUSH2 0x1447 JUMP JUMPDEST POP SWAP3 SWAP6 SWAP7 SWAP5 DUP8 PUSH2 0x1485 PUSH2 0x1421 SWAP4 SWAP7 SWAP5 SWAP8 MLOAD DUP4 PUSH2 0x331E JUMP JUMPDEST MSTORE SWAP7 SWAP1 POP PUSH2 0x1418 JUMP JUMPDEST POP PUSH1 0x0 PUSH2 0x1413 JUMP JUMPDEST SWAP1 POP PUSH2 0x100 PUSH1 0xC4 CALLDATALOAD SWAP2 ADD MLOAD GT DUP10 PUSH2 0x140D JUMP JUMPDEST PUSH1 0x0 SWAP2 POP PUSH2 0x13FF JUMP JUMPDEST POP PUSH1 0xA4 CALLDATALOAD PUSH2 0x100 DUP3 ADD MLOAD LT PUSH2 0x13FA JUMP JUMPDEST PUSH1 0x0 SWAP2 POP PUSH2 0x13ED JUMP JUMPDEST POP PUSH2 0x160 DUP2 ADD MLOAD SWAP6 POP PUSH1 0x5 DUP7 LT ISZERO PUSH2 0x14E9 JUMPI PUSH1 0x0 SWAP6 PUSH1 0x84 CALLDATALOAD EQ ISZERO PUSH2 0x13E8 JUMP JUMPDEST PUSH4 0x4E487B71 PUSH1 0xE0 SHL PUSH1 0x0 MSTORE PUSH1 0x21 PUSH1 0x4 MSTORE PUSH1 0x24 PUSH1 0x0 REVERT JUMPDEST PUSH1 0x0 SWAP3 POP PUSH2 0x13D7 JUMP JUMPDEST SWAP1 POP PUSH1 0x64 CALLDATALOAD LT DUP12 PUSH2 0x13D1 JUMP JUMPDEST PUSH1 0x0 SWAP4 POP PUSH2 0x13C3 JUMP JUMPDEST POP PUSH1 0x44 CALLDATALOAD DUP2 LT PUSH2 0x13BE JUMP JUMPDEST PUSH1 0x0 SWAP4 POP PUSH2 0x13B1 JUMP JUMPDEST POP PUSH1 0x80 DUP4 ADD MLOAD PUSH1 0x1 PUSH1 0x1 PUSH1 0xA0 SHL SUB DUP9 DUP2 AND SWAP2 AND EQ ISZERO PUSH2 0x13AC JUMP JUMPDEST PUSH1 0x0 SWAP4 POP PUSH2 0x1399 JUMP JUMPDEST POP DUP3 MLOAD PUSH1 0x1 PUSH1 0x1 PUSH1 0xA0 SHL SUB DUP11 DUP2 AND SWAP2 AND EQ ISZERO PUSH2 0x1394 JUMP JUMPDEST PUSH2 0x1580 SWAP2 POP RETURNDATASIZE DUP1 PUSH1 0x0 DUP4 RETURNDATACOPY PUSH2 0x3F7 DUP2 DUP4 PUSH2 0x3013 JUMP JUMPDEST DUP9 PUSH2 0x1302 JUMP JUMPDEST SWAP1 SWAP5 POP PUSH1 0x20 DUP2 RETURNDATASIZE PUSH1 0x20 GT PUSH2 0x15B2 JUMPI JUMPDEST DUP2 PUSH2 0x15A2 PUSH1 0x20 SWAP4 DUP4 PUSH2 0x3013 JUMP JUMPDEST DUP2 ADD SUB SLT PUSH2 0x249 JUMPI MLOAD SWAP4 DUP7 PUSH2 0x12B5 JUMP JUMPDEST RETURNDATASIZE SWAP2 POP PUSH2 0x1595 JUMP JUMPDEST CALLVALUE PUSH2 0x249 JUMPI PUSH1 0x40 CALLDATASIZE PUSH1 0x3 NOT ADD SLT PUSH2 0x249 JUMPI PUSH2 0x15D3 PUSH2 0x2DD5 JUMP JUMPDEST PUSH1 0x24 DUP1 CALLDATALOAD PUSH1 0x5 SWAP3 DUP4 DUP3 LT ISZERO SWAP1 DUP2 PUSH2 0x249 JUMPI DUP4 DUP4 DUP7 SWAP3 PUSH1 0x1 DUP1 PUSH1 0xA0 SHL SUB DUP1 SWAP2 AND PUSH1 0x0 MSTORE PUSH1 0x20 SWAP3 PUSH1 0x4 DUP5 MSTORE PUSH1 0x40 PUSH1 0x0 KECCAK256 SWAP3 PUSH1 0x40 MLOAD SWAP4 DUP5 DUP7 DUP3 SLOAD SWAP2 DUP3 DUP2 MSTORE ADD SWAP2 PUSH1 0x0 MSTORE DUP7 PUSH1 0x0 KECCAK256 SWAP1 PUSH1 0x0 JUMPDEST DUP2 DUP2 LT PUSH2 0x1792 JUMPI POP POP POP DUP5 PUSH2 0x1631 SWAP2 SUB DUP6 PUSH2 0x3013 JUMP JUMPDEST PUSH1 0x40 MLOAD PUSH2 0x163D DUP2 PUSH2 0x2FF7 JUMP JUMPDEST PUSH1 0x0 DUP2 MSTORE SWAP6 PUSH1 0x0 SWAP8 PUSH1 0x1 SWAP9 DUP10 SWAP6 DUP7 SLOAD AND SWAP10 JUMPDEST PUSH2 0x1667 JUMPI JUMPDEST PUSH1 0x40 MLOAD DUP9 DUP2 MSTORE DUP1 PUSH2 0x2C5 DUP2 DUP12 ADD DUP13 PUSH2 0x2D79 JUMP JUMPDEST DUP7 MLOAD DUP2 LT ISZERO PUSH2 0x178D JUMPI DUP10 PUSH1 0x0 PUSH2 0x167D DUP4 DUP11 PUSH2 0x331E JUMP JUMPDEST MLOAD DUP8 PUSH1 0x40 MLOAD DUP1 SWAP5 DUP2 SWAP4 PUSH4 0xEB44FDD3 PUSH1 0xE0 SHL DUP4 MSTORE PUSH1 0x4 DUP4 ADD MSTORE GAS STATICCALL DUP1 ISZERO PUSH2 0x405 JUMPI PUSH2 0x160 SWAP2 PUSH1 0x0 SWAP2 PUSH2 0x1772 JUMPI JUMPDEST POP ADD MLOAD DUP4 DUP2 LT ISZERO PUSH2 0x175D JUMPI DUP3 PUSH2 0x175D JUMPI DUP5 EQ PUSH2 0x16D8 JUMPI JUMPDEST SWAP9 PUSH2 0x16CE DUP7 SWAP8 SWAP9 SWAP10 SWAP11 PUSH2 0x2F6E JUMP JUMPDEST SWAP1 SWAP10 SWAP9 SWAP8 SWAP7 PUSH2 0x164F JUMP JUMPDEST SWAP8 DUP1 MLOAD DUP7 DUP2 ADD DUP1 SWAP2 GT PUSH2 0x1748 JUMPI PUSH2 0x16EE SWAP1 PUSH2 0x32EC JUMP JUMPDEST SWAP1 PUSH1 0x0 DUP8 JUMPDEST PUSH2 0x1725 JUMPI JUMPDEST POP DUP10 SWAP11 SWAP2 PUSH2 0x16CE SWAP2 PUSH2 0x1719 PUSH2 0x1710 DUP12 SWAP13 SWAP14 DUP12 SWAP13 PUSH2 0x331E JUMP JUMPDEST MLOAD SWAP2 MLOAD DUP4 PUSH2 0x331E JUMP JUMPDEST MSTORE SWAP10 SWAP9 SWAP8 POP POP SWAP9 PUSH2 0x16C0 JUMP JUMPDEST DUP2 MLOAD DUP2 LT ISZERO PUSH2 0x1743 JUMPI PUSH2 0x173D DUP2 PUSH2 0x37D DUP11 SWAP4 DUP6 PUSH2 0x331E JUMP JUMPDEST SWAP1 PUSH2 0x16F3 JUMP JUMPDEST PUSH2 0x16F8 JUMP JUMPDEST DUP6 PUSH4 0x4E487B71 PUSH1 0xE0 SHL PUSH1 0x0 MSTORE PUSH1 0x11 PUSH1 0x4 MSTORE PUSH1 0x0 REVERT JUMPDEST DUP6 PUSH4 0x4E487B71 PUSH1 0xE0 SHL PUSH1 0x0 MSTORE PUSH1 0x21 PUSH1 0x4 MSTORE PUSH1 0x0 REVERT JUMPDEST PUSH2 0x1787 SWAP2 POP RETURNDATASIZE DUP1 PUSH1 0x0 DUP4 RETURNDATACOPY PUSH2 0x3F7 DUP2 DUP4 PUSH2 0x3013 JUMP JUMPDEST DUP13 PUSH2 0x16A9 JUMP JUMPDEST PUSH2 0x1654 JUMP JUMPDEST DUP3 SLOAD DUP5 MSTORE SWAP3 DUP9 ADD SWAP3 PUSH1 0x1 SWAP3 DUP4 ADD SWAP3 ADD PUSH2 0x161B JUMP JUMPDEST CALLVALUE PUSH2 0x249 JUMPI PUSH1 0x40 CALLDATASIZE PUSH1 0x3 NOT ADD SLT PUSH2 0x249 JUMPI PUSH2 0x17BF PUSH2 0x2DD5 JUMP JUMPDEST PUSH1 0x1 PUSH1 0x1 PUSH1 0xA0 SHL SUB AND PUSH1 0x0 SWAP1 DUP2 MSTORE PUSH1 0x5 PUSH1 0x20 MSTORE PUSH1 0x40 SWAP1 KECCAK256 DUP1 SLOAD PUSH1 0x24 CALLDATALOAD SWAP2 SWAP1 DUP3 LT ISZERO PUSH2 0x249 JUMPI PUSH1 0x20 SWAP2 PUSH2 0x5B1 SWAP2 PUSH2 0x2E41 JUMP JUMPDEST CALLVALUE PUSH2 0x249 JUMPI PUSH1 0x0 CALLDATASIZE PUSH1 0x3 NOT ADD SLT PUSH2 0x249 JUMPI PUSH2 0x1809 PUSH2 0x2EE6 JUMP JUMPDEST PUSH1 0x0 DUP1 SLOAD PUSH1 0x1 PUSH1 0x1 PUSH1 0xA0 SHL SUB NOT DUP2 AND DUP3 SSTORE PUSH1 0x1 PUSH1 0x1 PUSH1 0xA0 SHL SUB AND PUSH32 0x8BE0079C531659141344CD1FD0A4F28419497F9722A3DAAFE3B4186F6B6457E0 DUP3 DUP1 LOG3 STOP JUMPDEST CALLVALUE PUSH2 0x249 JUMPI PUSH1 0x0 CALLDATASIZE PUSH1 0x3 NOT ADD SLT PUSH2 0x249 JUMPI PUSH1 0x0 PUSH1 0xE0 PUSH1 0x40 MLOAD PUSH2 0x186A DUP2 PUSH2 0x2FDA JUMP JUMPDEST DUP3 DUP2 MSTORE DUP3 PUSH1 0x20 DUP3 ADD MSTORE DUP3 PUSH1 0x40 DUP3 ADD MSTORE DUP3 PUSH1 0x60 DUP3 ADD MSTORE DUP3 PUSH1 0x80 DUP3 ADD MSTORE DUP3 PUSH1 0xA0 DUP3 ADD MSTORE DUP3 PUSH1 0xC0 DUP3 ADD MSTORE ADD MSTORE PUSH1 0x4 PUSH1 0x20 PUSH1 0x1 DUP1 PUSH1 0xA0 SHL SUB PUSH1 0x1 SLOAD AND PUSH1 0x40 MLOAD SWAP3 DUP4 DUP1 SWAP3 PUSH4 0x1FCA74DD PUSH1 0xE3 SHL DUP3 MSTORE GAS STATICCALL SWAP1 DUP2 ISZERO PUSH2 0x405 JUMPI PUSH1 0x0 SWAP2 PUSH2 0x1A39 JUMPI JUMPDEST POP DUP1 PUSH1 0x0 NOT DUP2 ADD GT PUSH2 0x983 JUMPI PUSH1 0x0 SWAP1 DUP2 DUP1 PUSH1 0x1 JUMPDEST PUSH1 0x0 NOT DUP5 ADD DUP2 GT ISZERO PUSH2 0x198B JUMPI POP PUSH2 0x100 SWAP4 PUSH1 0x0 NOT DUP5 ADD ISZERO PUSH2 0x1983 JUMPI PUSH2 0x1901 PUSH1 0x0 NOT DUP6 ADD DUP5 PUSH2 0x3035 JUMP JUMPDEST SWAP1 JUMPDEST PUSH1 0x40 MLOAD SWAP3 PUSH2 0x1910 DUP5 PUSH2 0x2FDA JUMP JUMPDEST PUSH1 0x0 NOT DUP7 ADD DUP5 MSTORE PUSH1 0x20 DUP5 ADD SWAP5 DUP6 MSTORE PUSH1 0x40 DUP5 ADD SWAP2 DUP3 MSTORE PUSH1 0x60 DUP5 ADD SWAP1 DUP2 MSTORE PUSH1 0x80 DUP5 ADD SWAP2 PUSH1 0x0 DUP4 MSTORE PUSH1 0xA0 DUP6 ADD SWAP4 DUP5 MSTORE PUSH1 0xE0 PUSH1 0xC0 DUP7 ADD SWAP6 PUSH1 0x0 DUP8 MSTORE ADD SWAP6 PUSH1 0x0 DUP8 MSTORE PUSH1 0x40 MLOAD SWAP8 PUSH1 0x0 NOT ADD DUP9 MSTORE MLOAD PUSH1 0x20 DUP9 ADD MSTORE MLOAD PUSH1 0x40 DUP8 ADD MSTORE MLOAD PUSH1 0x60 DUP7 ADD MSTORE MLOAD PUSH1 0x80 DUP6 ADD MSTORE MLOAD PUSH1 0xA0 DUP5 ADD MSTORE MLOAD PUSH1 0xC0 DUP4 ADD MSTORE MLOAD PUSH1 0xE0 DUP3 ADD MSTORE RETURN JUMPDEST PUSH1 0x0 SWAP1 PUSH2 0x1903 JUMP JUMPDEST SWAP1 PUSH2 0x1A2E PUSH2 0x1A34 SWAP2 PUSH2 0x1A26 PUSH1 0x2 SWAP6 SWAP8 DUP6 PUSH1 0x0 MSTORE PUSH1 0x3 PUSH1 0x20 MSTORE PUSH1 0x20 PUSH2 0x1A1D PUSH1 0x40 PUSH1 0x0 KECCAK256 DUP1 SWAP12 PUSH1 0x8 PUSH1 0x40 MLOAD SWAP12 DUP13 SWAP4 PUSH2 0x19C0 DUP6 PUSH2 0x2FBD JUMP JUMPDEST DUP1 SLOAD SWAP5 DUP6 SWAP1 MSTORE PUSH1 0x1 DUP2 ADD SLOAD DUP8 DUP16 ADD MSTORE ADD SLOAD PUSH1 0x40 DUP14 ADD SWAP1 DUP2 MSTORE PUSH1 0x3 DUP16 ADD SLOAD PUSH1 0x60 DUP15 ADD MSTORE PUSH1 0x4 DUP16 ADD SLOAD PUSH1 0x80 DUP15 ADD MSTORE PUSH1 0x5 DUP16 ADD SLOAD PUSH1 0xA0 DUP15 ADD MSTORE PUSH1 0x6 DUP16 ADD SLOAD PUSH1 0xC0 DUP15 ADD MSTORE PUSH1 0x7 DUP16 ADD SLOAD PUSH1 0xFF AND ISZERO ISZERO PUSH1 0xE0 DUP15 ADD MSTORE SWAP14 ADD SLOAD PUSH2 0x100 DUP13 ADD MSTORE PUSH2 0x2F7D JUMP JUMPDEST SWAP8 ADD MLOAD SWAP1 PUSH2 0x2F7D JUMP JUMPDEST SWAP7 MLOAD SWAP1 PUSH2 0x2F7D JUMP JUMPDEST SWAP2 PUSH2 0x2F6E JUMP JUMPDEST PUSH2 0x18D8 JUMP JUMPDEST SWAP1 POP PUSH1 0x20 DUP2 RETURNDATASIZE PUSH1 0x20 GT PUSH2 0x1A63 JUMPI JUMPDEST DUP2 PUSH2 0x1A54 PUSH1 0x20 SWAP4 DUP4 PUSH2 0x3013 JUMP JUMPDEST DUP2 ADD SUB SLT PUSH2 0x249 JUMPI MLOAD DUP2 PUSH2 0x18C4 JUMP JUMPDEST RETURNDATASIZE SWAP2 POP PUSH2 0x1A47 JUMP JUMPDEST CALLVALUE PUSH2 0x249 JUMPI PUSH1 0x40 CALLDATASIZE PUSH1 0x3 NOT ADD SLT PUSH2 0x249 JUMPI PUSH2 0x1A84 PUSH2 0x2DD5 JUMP JUMPDEST PUSH1 0x1 PUSH1 0x1 PUSH1 0xA0 SHL SUB AND PUSH1 0x0 SWAP1 DUP2 MSTORE PUSH1 0x6 PUSH1 0x20 MSTORE PUSH1 0x40 SWAP1 KECCAK256 DUP1 SLOAD PUSH1 0x24 CALLDATALOAD SWAP2 SWAP1 DUP3 LT ISZERO PUSH2 0x249 JUMPI PUSH1 0x20 SWAP2 PUSH2 0x5B1 SWAP2 PUSH2 0x2E41 JUMP JUMPDEST CALLVALUE PUSH2 0x249 JUMPI PUSH1 0x24 PUSH2 0x1AC5 CALLDATASIZE PUSH2 0x2E01 JUMP JUMPDEST SWAP3 SWAP1 SWAP2 PUSH1 0x1 DUP1 PUSH1 0xA0 SHL SUB DUP1 SWAP4 PUSH2 0x1AE0 DUP3 PUSH1 0x1 SLOAD AND CALLER EQ PUSH2 0x2F12 JUMP JUMPDEST AND SWAP4 DUP5 PUSH1 0x0 MSTORE PUSH1 0x2 PUSH1 0x20 MSTORE PUSH1 0x40 PUSH1 0x0 KECCAK256 SWAP1 PUSH1 0x1 DUP3 ADD PUSH2 0x1AFF DUP2 SLOAD PUSH2 0x2F6E JUMP JUMPDEST SWAP1 SSTORE PUSH1 0x3 DUP3 ADD SWAP3 PUSH2 0x1B11 DUP3 DUP6 SLOAD PUSH2 0x2F7D JUMP JUMPDEST DUP5 SSTORE TIMESTAMP PUSH1 0xA DUP5 ADD SSTORE PUSH1 0x0 DUP7 PUSH1 0x1 SLOAD AND PUSH1 0x40 MLOAD SWAP7 DUP8 DUP1 SWAP3 PUSH4 0xEB44FDD3 PUSH1 0xE0 SHL DUP3 MSTORE DUP6 PUSH1 0x4 DUP4 ADD MSTORE GAS STATICCALL SWAP5 DUP6 ISZERO PUSH2 0x405 JUMPI PUSH1 0x0 DUP1 MLOAD PUSH1 0x20 PUSH2 0x33D5 DUP4 CODECOPY DUP2 MLOAD SWAP2 MSTORE SWAP7 PUSH1 0x40 SWAP7 DUP10 SWAP3 PUSH1 0x0 SWAP2 PUSH2 0x1B9F JUMPI JUMPDEST POP MLOAD AND EQ PUSH2 0x1B78 JUMPI JUMPDEST POP POP SLOAD SWAP1 SLOAD DUP3 MLOAD SWAP2 DUP3 MSTORE PUSH1 0x20 DUP3 ADD MSTORE LOG2 STOP JUMPDEST PUSH1 0x7 DUP4 ADD PUSH2 0x1B86 DUP2 SLOAD PUSH2 0x2F6E JUMP JUMPDEST SWAP1 SSTORE PUSH1 0x0 MSTORE PUSH1 0x3 PUSH1 0x20 MSTORE PUSH1 0x8 DUP5 PUSH1 0x0 KECCAK256 ADD SSTORE DUP6 DUP1 PUSH2 0x1B66 JUMP JUMPDEST PUSH2 0x1BB4 SWAP2 POP RETURNDATASIZE DUP1 PUSH1 0x0 DUP4 RETURNDATACOPY PUSH2 0x3F7 DUP2 DUP4 PUSH2 0x3013 JUMP JUMPDEST DUP11 PUSH2 0x1B5D JUMP JUMPDEST CALLVALUE PUSH2 0x249 JUMPI PUSH1 0x20 DUP1 PUSH1 0x3 NOT CALLDATASIZE ADD SLT PUSH2 0x249 JUMPI PUSH1 0x40 MLOAD DUP1 SWAP2 PUSH1 0x40 DUP3 ADD SWAP1 PUSH1 0x40 DUP4 MSTORE PUSH1 0x60 MLOAD DUP1 SWAP3 MSTORE PUSH1 0x60 DUP4 ADD SWAP2 PUSH1 0x80 SWAP1 PUSH1 0x0 JUMPDEST DUP2 DUP2 LT PUSH2 0x1C32 JUMPI POP POP POP DUP3 DUP3 SUB DUP2 DUP5 ADD MSTORE DUP1 PUSH1 0x60 MLOAD SWAP3 DUP4 DUP2 MSTORE ADD SWAP2 PUSH1 0x80 SWAP2 PUSH1 0x0 JUMPDEST DUP3 DUP2 LT PUSH2 0x1C1B JUMPI POP POP POP POP SUB SWAP1 RETURN JUMPDEST DUP4 MLOAD DUP6 MSTORE DUP7 SWAP6 POP SWAP4 DUP2 ADD SWAP4 SWAP3 DUP2 ADD SWAP3 PUSH1 0x1 ADD PUSH2 0x1C0C JUMP JUMPDEST DUP3 MLOAD PUSH1 0x1 PUSH1 0x1 PUSH1 0xA0 SHL SUB AND DUP6 MSTORE DUP7 SWAP6 POP SWAP4 DUP4 ADD SWAP4 SWAP2 DUP4 ADD SWAP2 PUSH1 0x1 ADD PUSH2 0x1BEB JUMP JUMPDEST CALLVALUE PUSH2 0x249 JUMPI PUSH1 0x20 CALLDATASIZE PUSH1 0x3 NOT ADD SLT PUSH2 0x249 JUMPI PUSH2 0x120 PUSH1 0x40 MLOAD PUSH2 0x1C72 DUP2 PUSH2 0x2FBD JUMP JUMPDEST PUSH1 0x0 DUP2 MSTORE PUSH1 0x0 PUSH1 0x20 DUP3 ADD MSTORE PUSH1 0x0 PUSH1 0x40 DUP3 ADD MSTORE PUSH1 0x0 PUSH1 0x60 DUP3 ADD MSTORE PUSH1 0x0 PUSH1 0x80 DUP3 ADD MSTORE PUSH1 0x0 PUSH1 0xA0 DUP3 ADD MSTORE PUSH1 0x0 PUSH1 0xC0 DUP3 ADD MSTORE PUSH1 0x0 PUSH1 0xE0 DUP3 ADD MSTORE PUSH1 0x0 PUSH2 0x100 DUP1 SWAP3 ADD MSTORE PUSH1 0x4 CALLDATALOAD PUSH1 0x0 MSTORE PUSH1 0x3 PUSH1 0x20 MSTORE PUSH1 0x40 PUSH1 0x0 KECCAK256 SWAP1 PUSH1 0x40 MLOAD PUSH2 0x1CCD DUP2 PUSH2 0x2FBD JUMP JUMPDEST DUP3 SLOAD SWAP3 DUP4 DUP3 MSTORE PUSH1 0x1 DUP2 ADD SLOAD PUSH1 0x20 DUP4 ADD SWAP1 DUP2 MSTORE PUSH1 0x2 DUP3 ADD SLOAD PUSH1 0x40 DUP5 ADD SWAP1 DUP2 MSTORE PUSH1 0x3 DUP4 ADD SLOAD PUSH1 0x60 DUP6 ADD SWAP1 DUP2 MSTORE PUSH1 0x4 DUP5 ADD SLOAD SWAP1 PUSH1 0x80 DUP7 ADD SWAP2 DUP3 MSTORE PUSH1 0x5 DUP6 ADD SLOAD SWAP3 PUSH1 0xA0 DUP8 ADD SWAP4 DUP5 MSTORE PUSH1 0x6 DUP7 ADD SLOAD SWAP5 PUSH1 0xC0 DUP9 ADD SWAP6 DUP7 MSTORE DUP9 PUSH1 0x8 PUSH1 0xFF PUSH1 0x7 DUP11 ADD SLOAD AND SWAP9 PUSH1 0xE0 DUP12 ADD SWAP10 ISZERO ISZERO DUP11 MSTORE ADD SLOAD SWAP9 ADD SWAP8 DUP9 MSTORE PUSH1 0x40 MLOAD SWAP10 DUP11 MSTORE MLOAD PUSH1 0x20 DUP11 ADD MSTORE MLOAD PUSH1 0x40 DUP10 ADD MSTORE MLOAD PUSH1 0x60 DUP9 ADD MSTORE MLOAD PUSH1 0x80 DUP8 ADD MSTORE MLOAD PUSH1 0xA0 DUP7 ADD MSTORE MLOAD PUSH1 0xC0 DUP6 ADD MSTORE MLOAD ISZERO ISZERO PUSH1 0xE0 DUP5 ADD MSTORE MLOAD SWAP1 DUP3 ADD MSTORE RETURN JUMPDEST CALLVALUE PUSH2 0x249 JUMPI PUSH2 0x1D81 CALLDATASIZE PUSH2 0x2E2B JUMP JUMPDEST SWAP1 PUSH1 0x40 MLOAD PUSH2 0x1D8E DUP2 PUSH2 0x2FF7 JUMP JUMPDEST PUSH1 0x0 DUP2 MSTORE PUSH1 0x1 DUP1 SLOAD PUSH1 0x40 MLOAD PUSH4 0x1FCA74DD PUSH1 0xE3 SHL DUP2 MSTORE SWAP3 SWAP5 PUSH1 0x20 SWAP5 SWAP2 PUSH1 0x1 PUSH1 0x1 PUSH1 0xA0 SHL SUB AND DUP6 DUP6 PUSH1 0x4 DUP2 DUP5 GAS STATICCALL SWAP5 DUP6 ISZERO PUSH2 0x405 JUMPI PUSH1 0x0 SWAP6 PUSH2 0x1ED2 JUMPI JUMPDEST POP DUP4 JUMPDEST DUP6 DUP2 LT PUSH2 0x1DE6 JUMPI PUSH1 0x40 MLOAD DUP8 DUP2 MSTORE DUP1 PUSH2 0x2C5 DUP2 DUP11 ADD DUP12 PUSH2 0x2D79 JUMP JUMPDEST PUSH1 0x40 MLOAD PUSH4 0xEB44FDD3 PUSH1 0xE0 SHL DUP2 MSTORE PUSH1 0x4 DUP2 ADD DUP3 SWAP1 MSTORE PUSH1 0x24 SWAP1 PUSH1 0x0 DUP2 DUP4 DUP2 DUP8 GAS STATICCALL DUP1 ISZERO PUSH2 0x405 JUMPI PUSH2 0x100 SWAP2 PUSH1 0x0 SWAP2 PUSH2 0x1EB7 JUMPI JUMPDEST POP ADD MLOAD DUP5 DUP7 DUP3 LT ISZERO SWAP2 DUP3 PUSH2 0x1EAC JUMPI JUMPDEST POP POP PUSH2 0x1E3C JUMPI JUMPDEST POP PUSH2 0x1E37 SWAP1 PUSH2 0x2F6E JUMP JUMPDEST PUSH2 0x1DCC JUMP JUMPDEST DUP9 SWAP2 SWAP9 MLOAD SWAP1 DUP7 DUP3 ADD DUP1 SWAP3 GT PUSH2 0x3A2 JUMPI POP SWAP1 DUP9 PUSH2 0x1E58 DUP8 SWAP4 PUSH2 0x32EC JUMP JUMPDEST SWAP2 DUP4 PUSH1 0x0 SWAP5 JUMPDEST PUSH2 0x1E7C JUMPI JUMPDEST POP PUSH2 0x1E37 SWAP4 POP PUSH2 0x1E74 SWAP1 MLOAD DUP4 PUSH2 0x331E JUMP JUMPDEST MSTORE SWAP8 SWAP1 PUSH2 0x1E2D JUMP JUMPDEST SWAP2 DUP2 SWAP4 SWAP5 SWAP2 MLOAD DUP3 LT ISZERO PUSH2 0x1EA2 JUMPI POP DUP1 PUSH2 0x37D PUSH2 0x1E98 SWAP3 DUP6 PUSH2 0x331E JUMP JUMPDEST SWAP3 SWAP2 DUP2 DUP12 SWAP3 PUSH2 0x1E5E JUMP JUMPDEST SWAP2 DUP5 SWAP4 SWAP2 POP PUSH2 0x1E63 JUMP JUMPDEST GT ISZERO SWAP1 POP DUP5 DUP12 PUSH2 0x1E26 JUMP JUMPDEST PUSH2 0x1ECC SWAP2 POP RETURNDATASIZE DUP1 PUSH1 0x0 DUP4 RETURNDATACOPY PUSH2 0x3F7 DUP2 DUP4 PUSH2 0x3013 JUMP JUMPDEST DUP12 PUSH2 0x1E17 JUMP JUMPDEST SWAP1 SWAP5 POP DUP6 DUP2 DUP2 RETURNDATASIZE DUP4 GT PUSH2 0x1EFA JUMPI JUMPDEST PUSH2 0x1EEA DUP2 DUP4 PUSH2 0x3013 JUMP JUMPDEST DUP2 ADD SUB SLT PUSH2 0x249 JUMPI MLOAD SWAP4 DUP8 PUSH2 0x1DC9 JUMP JUMPDEST POP RETURNDATASIZE PUSH2 0x1EE0 JUMP JUMPDEST CALLVALUE PUSH2 0x249 JUMPI PUSH1 0x40 CALLDATASIZE PUSH1 0x3 NOT ADD SLT PUSH2 0x249 JUMPI PUSH1 0x1 PUSH1 0x1 PUSH1 0xA0 SHL SUB PUSH2 0x1F22 PUSH2 0x2DD5 JUMP JUMPDEST AND PUSH1 0x0 MSTORE PUSH1 0x7 PUSH1 0x20 MSTORE PUSH1 0x40 PUSH1 0x0 KECCAK256 PUSH1 0x24 CALLDATALOAD PUSH1 0x0 MSTORE PUSH1 0x20 MSTORE PUSH1 0x20 PUSH1 0x40 PUSH1 0x0 KECCAK256 SLOAD PUSH1 0x40 MLOAD SWAP1 DUP2 MSTORE RETURN JUMPDEST CALLVALUE PUSH2 0x249 JUMPI PUSH1 0x80 CALLDATASIZE PUSH1 0x3 NOT ADD SLT PUSH2 0x249 JUMPI PUSH1 0x4 CALLDATALOAD PUSH2 0x1F65 PUSH2 0x2DEB JUMP JUMPDEST PUSH1 0x44 CALLDATALOAD PUSH1 0x64 CALLDATALOAD PUSH1 0x1 DUP1 PUSH1 0xA0 SHL SUB DUP1 SWAP4 PUSH2 0x1F83 DUP3 PUSH1 0x1 SLOAD AND CALLER EQ PUSH2 0x2F12 JUMP JUMPDEST AND DUP1 PUSH1 0x0 MSTORE PUSH1 0x20 SWAP3 PUSH1 0x2 DUP5 MSTORE PUSH1 0x40 PUSH1 0x0 KECCAK256 SWAP1 PUSH2 0x1F9F DUP3 SLOAD PUSH2 0x2F6E JUMP JUMPDEST DUP3 SSTORE PUSH1 0x4 DUP3 ADD PUSH2 0x1FB0 DUP6 DUP3 SLOAD PUSH2 0x2F7D JUMP JUMPDEST SWAP1 SSTORE TIMESTAMP PUSH1 0xA DUP4 ADD SSTORE DUP3 PUSH1 0x0 MSTORE PUSH1 0x7 DUP6 MSTORE PUSH1 0x40 PUSH1 0x0 KECCAK256 DUP2 PUSH1 0x0 MSTORE DUP6 MSTORE PUSH1 0x40 PUSH1 0x0 KECCAK256 PUSH2 0x1FDA DUP2 SLOAD PUSH2 0x2F6E JUMP JUMPDEST SWAP1 SSTORE DUP3 PUSH1 0x0 MSTORE PUSH1 0x7 DUP6 MSTORE PUSH1 0x40 PUSH1 0x0 KECCAK256 DUP2 PUSH1 0x0 MSTORE DUP6 MSTORE PUSH1 0x40 PUSH1 0x0 KECCAK256 SLOAD DUP4 PUSH1 0x0 MSTORE PUSH1 0x7 DUP7 MSTORE PUSH1 0x40 PUSH1 0x0 KECCAK256 SWAP1 PUSH1 0x9 DUP5 ADD SWAP2 DUP3 SLOAD PUSH1 0x0 MSTORE DUP8 MSTORE PUSH1 0x40 PUSH1 0x0 KECCAK256 SLOAD LT PUSH2 0x21D7 JUMPI JUMPDEST POP POP DUP6 PUSH1 0x0 MSTORE PUSH1 0x3 DUP5 MSTORE PUSH1 0x40 PUSH1 0x0 KECCAK256 SWAP3 PUSH1 0x24 DUP6 PUSH2 0x2039 DUP4 DUP8 SLOAD PUSH2 0x2F7D JUMP JUMPDEST SWAP8 DUP9 DUP8 SSTORE PUSH1 0x1 SLOAD AND PUSH1 0x40 MLOAD SWAP3 DUP4 DUP1 SWAP3 PUSH4 0x14D45011 PUSH1 0xE2 SHL DUP3 MSTORE DUP13 PUSH1 0x4 DUP4 ADD MSTORE GAS STATICCALL DUP1 ISZERO PUSH2 0x405 JUMPI PUSH1 0x0 SWAP1 PUSH2 0x21A8 JUMPI JUMPDEST PUSH2 0x207A SWAP2 POP PUSH1 0x1 DUP7 ADD SWAP8 DUP2 DUP10 SSTORE PUSH2 0x3035 JUMP JUMPDEST PUSH1 0x3 DUP6 ADD SSTORE PUSH1 0x4 DUP5 ADD DUP1 SLOAD DUP3 GT PUSH2 0x21A0 JUMPI JUMPDEST POP POP DUP2 PUSH1 0x0 MSTORE PUSH1 0x4 DUP5 MSTORE PUSH1 0x40 PUSH1 0x0 KECCAK256 DUP1 SLOAD SWAP1 DUP2 ISZERO SWAP2 DUP3 ISZERO PUSH2 0x2137 JUMPI JUMPDEST POP POP SWAP2 PUSH1 0x0 DUP1 MLOAD PUSH1 0x20 PUSH2 0x33D5 DUP4 CODECOPY DUP2 MLOAD SWAP2 MSTORE PUSH1 0x40 PUSH32 0x57AEC02922D876EC3D68C70DDF1563D34F09D29032F77CCB3357D31CFFE7E733 SWAP8 SWAP6 SWAP4 DUP2 SWAP8 SWAP6 PUSH2 0x211D JUMPI JUMPDEST DUP4 PUSH1 0x0 MSTORE PUSH1 0x5 DUP7 MSTORE PUSH2 0x20FD DUP11 DUP4 PUSH1 0x0 KECCAK256 PUSH2 0x3062 JUMP JUMPDEST PUSH1 0x3 DUP2 SLOAD SWAP2 ADD SLOAD DUP3 MLOAD SWAP2 DUP3 MSTORE DUP7 DUP3 ADD MSTORE LOG2 SLOAD SWAP2 SLOAD SWAP1 DUP4 MLOAD SWAP3 DUP4 MSTORE DUP3 ADD MSTORE LOG2 STOP JUMPDEST DUP4 PUSH1 0x0 MSTORE PUSH1 0x4 DUP7 MSTORE PUSH2 0x2132 DUP11 DUP4 PUSH1 0x0 KECCAK256 PUSH2 0x3062 JUMP JUMPDEST PUSH2 0x20E8 JUMP JUMPDEST SWAP1 SWAP7 SWAP5 SWAP3 SWAP6 SWAP4 SWAP2 POP PUSH1 0x0 NOT DUP2 ADD SWAP1 DUP2 GT PUSH2 0x983 JUMPI PUSH1 0x40 DUP1 SWAP7 DUP10 PUSH2 0x218A PUSH1 0x0 DUP1 MLOAD PUSH1 0x20 PUSH2 0x33D5 DUP4 CODECOPY DUP2 MLOAD SWAP2 MSTORE SWAP5 PUSH32 0x57AEC02922D876EC3D68C70DDF1563D34F09D29032F77CCB3357D31CFFE7E733 SWAP12 PUSH2 0x2E41 JUMP JUMPDEST SWAP1 SLOAD SWAP1 PUSH1 0x3 SHL SHR EQ ISZERO SWAP4 SWAP6 SWAP8 POP SWAP4 SWAP6 SWAP8 POP PUSH2 0x20A8 JUMP JUMPDEST SSTORE DUP7 DUP1 PUSH2 0x208C JUMP JUMPDEST POP DUP6 DUP2 DUP2 RETURNDATASIZE DUP4 GT PUSH2 0x21D0 JUMPI JUMPDEST PUSH2 0x21BE DUP2 DUP4 PUSH2 0x3013 JUMP JUMPDEST DUP2 ADD SUB SLT PUSH2 0x249 JUMPI PUSH2 0x207A SWAP1 MLOAD PUSH2 0x2068 JUMP JUMPDEST POP RETURNDATASIZE PUSH2 0x21B4 JUMP JUMPDEST SSTORE DUP7 DUP1 PUSH2 0x201B JUMP JUMPDEST CALLVALUE PUSH2 0x249 JUMPI PUSH1 0x20 DUP1 PUSH1 0x3 NOT CALLDATASIZE ADD SLT PUSH2 0x249 JUMPI PUSH1 0x1 DUP1 SLOAD PUSH1 0x40 MLOAD PUSH4 0x1FCA74DD PUSH1 0xE3 SHL DUP2 MSTORE PUSH1 0x1 PUSH1 0x1 PUSH1 0xA0 SHL SUB SWAP1 SWAP2 AND SWAP2 SWAP1 DUP4 DUP2 PUSH1 0x4 DUP2 DUP7 GAS STATICCALL SWAP1 DUP2 ISZERO PUSH2 0x405 JUMPI PUSH1 0x0 SWAP2 PUSH2 0x249C JUMPI JUMPDEST POP PUSH1 0x40 MLOAD PUSH2 0x2233 DUP2 PUSH2 0x2FF7 JUMP JUMPDEST PUSH1 0x0 DUP2 MSTORE SWAP4 PUSH1 0x40 MLOAD PUSH2 0x2244 DUP2 PUSH2 0x2FF7 JUMP JUMPDEST PUSH1 0x0 DUP2 MSTORE SWAP4 DUP4 JUMPDEST DUP4 DUP2 LT PUSH2 0x235A JUMPI POP POP POP POP DUP1 PUSH1 0x0 SWAP1 JUMPDEST PUSH2 0x22C6 JUMPI JUMPDEST POP POP PUSH1 0x4 CALLDATALOAD DUP1 ISZERO ISZERO DUP1 PUSH2 0x22BC JUMPI JUMPDEST ISZERO PUSH2 0x22B4 JUMPI JUMPDEST PUSH2 0x227D DUP2 PUSH2 0x32EC JUMP JUMPDEST SWAP2 PUSH2 0x2287 DUP3 PUSH2 0x32EC JUMP JUMPDEST SWAP4 PUSH1 0x0 JUMPDEST DUP4 DUP2 LT PUSH2 0x22A1 JUMPI PUSH1 0x40 MLOAD DUP1 PUSH2 0x2C5 DUP9 DUP9 DUP4 PUSH2 0x2DAD JUMP JUMPDEST DUP1 PUSH2 0x85D PUSH2 0x22AF SWAP3 DUP5 PUSH2 0x331E JUMP JUMPDEST PUSH2 0x228B JUMP JUMPDEST POP DUP2 MLOAD PUSH2 0x2274 JUMP JUMPDEST POP DUP3 MLOAD DUP2 LT PUSH2 0x226E JUMP JUMPDEST DUP4 MLOAD PUSH1 0x0 NOT SWAP1 DUP2 DUP2 ADD SWAP1 DUP2 GT PUSH2 0x983 JUMPI DUP3 LT ISZERO PUSH2 0x2354 JUMPI PUSH1 0x0 SWAP1 DUP4 JUMPDEST PUSH2 0x22F9 JUMPI JUMPDEST POP POP PUSH2 0x22F3 DUP3 SWAP2 PUSH2 0x2F6E JUMP JUMPDEST SWAP1 PUSH2 0x225B JUMP JUMPDEST PUSH2 0x2309 DUP4 DUP8 SWAP5 SWAP7 SWAP4 SWAP6 SWAP8 MLOAD PUSH2 0x3055 JUMP JUMPDEST DUP2 DUP2 ADD SWAP1 DUP2 GT PUSH2 0x983 JUMPI DUP5 LT ISZERO PUSH2 0x2349 JUMPI PUSH2 0x2324 DUP5 DUP4 PUSH2 0x331E JUMP JUMPDEST MLOAD DUP7 DUP6 ADD SWAP5 DUP6 DUP2 GT PUSH2 0x983 JUMPI DUP6 PUSH2 0x2340 SWAP3 PUSH2 0x90F DUP11 SWAP9 DUP8 PUSH2 0x331E JUMP JUMPDEST SWAP2 SWAP5 SWAP3 SWAP6 PUSH2 0x22E2 JUMP JUMPDEST DUP2 SWAP5 SWAP3 SWAP6 SWAP4 POP PUSH2 0x22E7 JUMP JUMPDEST POP PUSH2 0x2260 JUMP JUMPDEST PUSH1 0x40 MLOAD PUSH4 0xEB44FDD3 PUSH1 0xE0 SHL DUP2 MSTORE PUSH1 0x4 DUP2 ADD DUP3 SWAP1 MSTORE PUSH1 0x24 SWAP1 PUSH1 0x0 DUP2 DUP4 DUP2 DUP8 GAS STATICCALL DUP1 ISZERO PUSH2 0x405 JUMPI PUSH2 0x160 SWAP2 PUSH1 0x0 SWAP2 PUSH2 0x2481 JUMPI JUMPDEST POP ADD MLOAD PUSH1 0x5 DUP2 LT ISZERO PUSH2 0x3CD JUMPI ISZERO PUSH2 0x23AC JUMPI JUMPDEST POP PUSH2 0x23A7 SWAP1 PUSH2 0x2F6E JUMP JUMPDEST PUSH2 0x224B JUMP JUMPDEST SWAP1 SWAP6 DUP8 MLOAD DUP7 DUP2 ADD DUP1 SWAP2 GT PUSH2 0x246C JUMPI PUSH2 0x23C3 SWAP1 PUSH2 0x32EC JUMP JUMPDEST SWAP2 DUP2 MLOAD SWAP1 DUP8 DUP3 ADD DUP1 SWAP3 GT PUSH2 0x3A2 JUMPI POP SWAP1 DUP8 PUSH2 0x23DF DUP9 SWAP5 SWAP4 PUSH2 0x32EC JUMP JUMPDEST SWAP10 DUP5 PUSH1 0x0 SWAP6 JUMPDEST PUSH2 0x241E JUMPI JUMPDEST POP PUSH2 0x23A7 SWAP5 POP PUSH2 0x23FB SWAP1 MLOAD DUP5 PUSH2 0x331E JUMP JUMPDEST MSTORE DUP8 PUSH1 0x0 MSTORE PUSH1 0x3 DUP6 MSTORE PUSH2 0x2415 PUSH1 0x40 PUSH1 0x0 KECCAK256 SLOAD SWAP2 MLOAD DUP11 PUSH2 0x331E JUMP JUMPDEST MSTORE SWAP7 SWAP6 SWAP1 PUSH2 0x239D JUMP JUMPDEST SWAP2 DUP2 SWAP4 SWAP5 SWAP6 SWAP2 MLOAD DUP3 LT ISZERO PUSH2 0x2461 JUMPI POP DUP1 PUSH2 0x243B PUSH2 0x2456 SWAP3 DUP6 PUSH2 0x331E JUMP JUMPDEST MLOAD PUSH2 0x2446 DUP3 DUP9 PUSH2 0x331E JUMP JUMPDEST MSTORE DUP12 PUSH2 0x388 DUP3 PUSH2 0xAC0 DUP2 DUP10 PUSH2 0x331E JUMP JUMPDEST SWAP4 SWAP3 SWAP2 DUP2 DUP11 SWAP3 PUSH2 0x23E5 JUMP JUMPDEST SWAP2 DUP6 SWAP5 SWAP4 SWAP2 POP PUSH2 0x23EA JUMP JUMPDEST DUP3 PUSH4 0x4E487B71 PUSH1 0xE0 SHL PUSH1 0x0 MSTORE PUSH1 0x11 PUSH1 0x4 MSTORE PUSH1 0x0 REVERT JUMPDEST PUSH2 0x2496 SWAP2 POP RETURNDATASIZE DUP1 PUSH1 0x0 DUP4 RETURNDATACOPY PUSH2 0x3F7 DUP2 DUP4 PUSH2 0x3013 JUMP JUMPDEST DUP11 PUSH2 0x238B JUMP JUMPDEST SWAP1 POP DUP4 DUP2 DUP2 RETURNDATASIZE DUP4 GT PUSH2 0x24C2 JUMPI JUMPDEST PUSH2 0x24B3 DUP2 DUP4 PUSH2 0x3013 JUMP JUMPDEST DUP2 ADD SUB SLT PUSH2 0x249 JUMPI MLOAD DUP5 PUSH2 0x2226 JUMP JUMPDEST POP RETURNDATASIZE PUSH2 0x24A9 JUMP JUMPDEST CALLVALUE PUSH2 0x249 JUMPI PUSH1 0x20 CALLDATASIZE PUSH1 0x3 NOT ADD SLT PUSH2 0x249 JUMPI PUSH2 0x160 PUSH2 0x24E5 PUSH2 0x2DD5 JUMP JUMPDEST PUSH2 0x140 PUSH1 0x40 MLOAD SWAP2 PUSH2 0x24F5 DUP4 PUSH2 0x2F8A JUMP JUMPDEST PUSH1 0x0 DUP4 MSTORE PUSH1 0x0 PUSH1 0x20 DUP5 ADD MSTORE PUSH1 0x0 PUSH1 0x40 DUP5 ADD MSTORE PUSH1 0x0 PUSH1 0x60 DUP5 ADD MSTORE PUSH1 0x0 PUSH1 0x80 DUP5 ADD MSTORE PUSH1 0x0 PUSH1 0xA0 DUP5 ADD MSTORE PUSH1 0x0 PUSH1 0xC0 DUP5 ADD MSTORE PUSH1 0x0 PUSH1 0xE0 DUP5 ADD MSTORE PUSH2 0x100 SWAP1 PUSH1 0x0 DUP3 DUP6 ADD MSTORE PUSH1 0x0 DUP4 PUSH2 0x120 SWAP6 DUP3 DUP8 DUP3 ADD MSTORE ADD MSTORE PUSH1 0x1 DUP1 PUSH1 0xA0 SHL SUB AND PUSH1 0x0 MSTORE PUSH1 0x2 PUSH1 0x20 MSTORE PUSH1 0x40 PUSH1 0x0 KECCAK256 SWAP3 PUSH1 0x40 MLOAD SWAP2 PUSH2 0x2565 DUP4 PUSH2 0x2F8A JUMP JUMPDEST PUSH1 0xA DUP6 SLOAD SWAP6 DUP7 DUP6 MSTORE PUSH1 0x1 DUP2 ADD SLOAD PUSH1 0x20 DUP7 ADD MSTORE PUSH1 0x2 DUP2 ADD SLOAD PUSH1 0x40 DUP7 ADD MSTORE PUSH1 0x3 DUP2 ADD SLOAD PUSH1 0x60 DUP7 ADD MSTORE PUSH1 0x4 DUP2 ADD SLOAD PUSH1 0x80 DUP7 ADD MSTORE PUSH1 0x5 DUP2 ADD SLOAD PUSH1 0xA0 DUP7 ADD MSTORE PUSH1 0x6 DUP2 ADD SLOAD PUSH1 0xC0 DUP7 ADD MSTORE PUSH1 0x7 DUP2 ADD SLOAD PUSH1 0xE0 DUP7 ADD MSTORE PUSH1 0x8 DUP2 ADD SLOAD DUP4 DUP7 ADD MSTORE PUSH1 0x9 DUP2 ADD SLOAD DUP5 DUP7 ADD MSTORE ADD SLOAD DUP5 DUP5 ADD MSTORE PUSH1 0x40 MLOAD SWAP5 DUP6 MSTORE PUSH1 0x20 DUP4 ADD MLOAD PUSH1 0x20 DUP7 ADD MSTORE PUSH1 0x40 DUP4 ADD MLOAD PUSH1 0x40 DUP7 ADD MSTORE PUSH1 0x60 DUP4 ADD MLOAD PUSH1 0x60 DUP7 ADD MSTORE PUSH1 0x80 DUP4 ADD MLOAD PUSH1 0x80 DUP7 ADD MSTORE PUSH1 0xA0 DUP4 ADD MLOAD PUSH1 0xA0 DUP7 ADD MSTORE PUSH1 0xC0 DUP4 ADD MLOAD PUSH1 0xC0 DUP7 ADD MSTORE PUSH1 0xE0 DUP4 ADD MLOAD PUSH1 0xE0 DUP7 ADD MSTORE DUP1 DUP4 ADD MLOAD SWAP1 DUP6 ADD MSTORE DUP1 DUP3 ADD MLOAD SWAP1 DUP5 ADD MSTORE ADD MLOAD PUSH2 0x140 DUP3 ADD MSTORE RETURN JUMPDEST CALLVALUE PUSH2 0x249 JUMPI PUSH1 0x20 CALLDATASIZE PUSH1 0x3 NOT ADD SLT PUSH2 0x249 JUMPI PUSH1 0x4 CALLDATALOAD PUSH1 0x0 MSTORE PUSH1 0x3 PUSH1 0x20 MSTORE PUSH2 0x120 PUSH1 0x40 PUSH1 0x0 KECCAK256 DUP1 SLOAD SWAP1 PUSH1 0x1 DUP2 ADD SLOAD SWAP1 PUSH1 0x2 DUP2 ADD SLOAD PUSH1 0x3 DUP3 ADD SLOAD PUSH1 0x4 DUP4 ADD SLOAD PUSH1 0x5 DUP5 ADD SLOAD SWAP2 PUSH1 0x6 DUP6 ADD SLOAD SWAP4 PUSH1 0x8 PUSH1 0xFF PUSH1 0x7 DUP9 ADD SLOAD AND SWAP7 ADD SLOAD SWAP7 PUSH1 0x40 MLOAD SWAP9 DUP10 MSTORE PUSH1 0x20 DUP10 ADD MSTORE PUSH1 0x40 DUP9 ADD MSTORE PUSH1 0x60 DUP8 ADD MSTORE PUSH1 0x80 DUP7 ADD MSTORE PUSH1 0xA0 DUP6 ADD MSTORE PUSH1 0xC0 DUP5 ADD MSTORE ISZERO ISZERO PUSH1 0xE0 DUP4 ADD MSTORE PUSH2 0x100 DUP3 ADD MSTORE RETURN JUMPDEST CALLVALUE PUSH2 0x249 JUMPI PUSH1 0x0 CALLDATASIZE PUSH1 0x3 NOT ADD SLT PUSH2 0x249 JUMPI PUSH1 0x1 SLOAD PUSH1 0x40 MLOAD PUSH1 0x1 PUSH1 0x1 PUSH1 0xA0 SHL SUB SWAP1 SWAP2 AND DUP2 MSTORE PUSH1 0x20 SWAP1 RETURN JUMPDEST CALLVALUE PUSH2 0x249 JUMPI PUSH1 0x20 CALLDATASIZE PUSH1 0x3 NOT ADD SLT PUSH2 0x249 JUMPI PUSH1 0x40 MLOAD PUSH4 0x3D80D00B PUSH1 0xE0 SHL DUP2 MSTORE PUSH1 0x7 PUSH1 0x4 DUP3 ADD MSTORE PUSH1 0x4 CALLDATALOAD PUSH1 0x24 DUP3 ADD MSTORE PUSH1 0x0 DUP2 PUSH1 0x44 DUP2 ADDRESS GAS STATICCALL SWAP1 DUP2 ISZERO PUSH2 0x405 JUMPI PUSH1 0x0 SWAP1 PUSH1 0x0 SWAP3 PUSH2 0x273B JUMPI JUMPDEST POP PUSH2 0x2C5 PUSH1 0x40 MLOAD SWAP3 DUP4 SWAP3 DUP4 PUSH2 0x2DAD JUMP JUMPDEST SWAP1 POP PUSH2 0x275A SWAP2 POP RETURNDATASIZE DUP1 PUSH1 0x0 DUP4 RETURNDATACOPY PUSH2 0x2752 DUP2 DUP4 PUSH2 0x3013 JUMP JUMPDEST DUP2 ADD SWAP1 PUSH2 0x3390 JUMP JUMPDEST SWAP1 DUP3 PUSH2 0x272B JUMP JUMPDEST CALLVALUE PUSH2 0x249 JUMPI PUSH2 0x276F CALLDATASIZE PUSH2 0x2E2B JUMP JUMPDEST PUSH1 0x1 DUP1 SLOAD PUSH1 0x40 MLOAD PUSH4 0x1FCA74DD PUSH1 0xE3 SHL DUP2 MSTORE PUSH1 0x1 PUSH1 0x1 PUSH1 0xA0 SHL SUB SWAP1 SWAP2 AND SWAP4 SWAP3 SWAP2 SWAP1 PUSH1 0x20 DUP2 PUSH1 0x4 DUP2 DUP9 GAS STATICCALL SWAP1 DUP2 ISZERO PUSH2 0x405 JUMPI PUSH1 0x0 SWAP2 PUSH2 0x2AA8 JUMPI JUMPDEST POP PUSH1 0x40 MLOAD PUSH2 0x27B4 DUP2 PUSH2 0x2FF7 JUMP JUMPDEST PUSH1 0x0 DUP2 MSTORE SWAP5 PUSH1 0x40 MLOAD PUSH2 0x27C5 DUP2 PUSH2 0x2FF7 JUMP JUMPDEST PUSH1 0x0 DUP2 MSTORE SWAP5 PUSH3 0x15180 SWAP1 DUP2 DUP2 MUL SWAP2 DUP2 DUP4 DIV EQ SWAP1 ISZERO OR ISZERO PUSH2 0x983 JUMPI PUSH2 0x27E9 SWAP1 TIMESTAMP PUSH2 0x3055 JUMP JUMPDEST DUP4 JUMPDEST DUP4 DUP2 LT PUSH2 0x295B JUMPI POP POP POP POP DUP1 PUSH1 0x0 SWAP1 JUMPDEST PUSH2 0x2863 JUMPI JUMPDEST POP POP DUP1 ISZERO ISZERO DUP1 PUSH2 0x2859 JUMPI JUMPDEST ISZERO PUSH2 0x2851 JUMPI JUMPDEST PUSH2 0x281A DUP2 PUSH2 0x32EC JUMP JUMPDEST SWAP2 PUSH2 0x2824 DUP3 PUSH2 0x32EC JUMP JUMPDEST SWAP4 PUSH1 0x0 JUMPDEST DUP4 DUP2 LT PUSH2 0x283E JUMPI PUSH1 0x40 MLOAD DUP1 PUSH2 0x2C5 DUP9 DUP9 DUP4 PUSH2 0x2DAD JUMP JUMPDEST DUP1 PUSH2 0x85D PUSH2 0x284C SWAP3 DUP5 PUSH2 0x331E JUMP JUMPDEST PUSH2 0x2828 JUMP JUMPDEST POP DUP2 MLOAD PUSH2 0x2811 JUMP JUMPDEST POP DUP3 MLOAD DUP2 LT PUSH2 0x280B JUMP JUMPDEST DUP5 MLOAD PUSH1 0x0 NOT SWAP1 DUP2 DUP2 ADD SWAP1 DUP2 GT PUSH2 0x983 JUMPI DUP3 LT ISZERO PUSH2 0x2955 JUMPI SWAP1 DUP3 DUP1 SWAP3 PUSH1 0x0 SWAP2 JUMPDEST PUSH2 0x2898 JUMPI JUMPDEST POP POP PUSH2 0x2892 SWAP1 PUSH2 0x2F6E JUMP JUMPDEST SWAP1 PUSH2 0x27FB JUMP JUMPDEST SWAP1 SWAP2 SWAP3 POP PUSH2 0x28A7 DUP4 DUP9 MLOAD PUSH2 0x3055 JUMP JUMPDEST DUP2 DUP2 ADD SWAP1 DUP2 GT PUSH2 0x983 JUMPI DUP5 SWAP1 DUP4 LT ISZERO PUSH2 0x294E JUMPI POP PUSH2 0x28C5 DUP3 DUP8 PUSH2 0x331E JUMP JUMPDEST MLOAD DUP5 DUP4 ADD SWAP3 DUP4 DUP2 GT PUSH2 0x983 JUMPI DUP4 PUSH2 0x28ED SWAP3 PUSH2 0x28E1 DUP9 SWAP7 DUP12 PUSH2 0x331E JUMP JUMPDEST MLOAD GT PUSH2 0x28F6 JUMPI POP PUSH2 0x2F6E JUMP JUMPDEST SWAP1 DUP3 SWAP4 SWAP3 PUSH2 0x2882 JUMP JUMPDEST PUSH2 0x2900 DUP3 DUP11 PUSH2 0x331E JUMP JUMPDEST MLOAD PUSH2 0x290B DUP3 DUP12 PUSH2 0x331E JUMP JUMPDEST MLOAD PUSH2 0x2916 DUP5 DUP13 PUSH2 0x331E JUMP JUMPDEST MSTORE PUSH2 0x2921 DUP3 DUP12 PUSH2 0x331E JUMP JUMPDEST MSTORE PUSH2 0x2947 PUSH2 0x292F DUP4 DUP13 PUSH2 0x331E JUMP JUMPDEST MLOAD SWAP2 DUP12 PUSH2 0x2940 DUP6 PUSH2 0xAC0 DUP5 DUP5 PUSH2 0x331E JUMP JUMPDEST MSTORE DUP12 PUSH2 0x331E JUMP JUMPDEST MSTORE DUP10 PUSH2 0x916 JUMP JUMPDEST SWAP3 SWAP2 PUSH2 0x2887 JUMP JUMPDEST POP PUSH2 0x2800 JUMP JUMPDEST PUSH1 0x40 MLOAD PUSH4 0xEB44FDD3 PUSH1 0xE0 SHL DUP2 MSTORE PUSH1 0x4 DUP2 ADD DUP3 SWAP1 MSTORE PUSH1 0x24 SWAP1 PUSH1 0x0 DUP2 DUP4 DUP2 DUP9 GAS STATICCALL SWAP1 DUP2 ISZERO PUSH2 0x405 JUMPI PUSH1 0x0 SWAP2 PUSH2 0x2A8D JUMPI JUMPDEST POP PUSH2 0x160 DUP2 ADD MLOAD PUSH1 0x5 DUP2 LT ISZERO PUSH2 0x2A78 JUMPI ISZERO DUP1 PUSH2 0x2A69 JUMPI JUMPDEST PUSH2 0x29B5 JUMPI JUMPDEST POP POP PUSH2 0x29B0 SWAP1 PUSH2 0x2F6E JUMP JUMPDEST PUSH2 0x27EB JUMP JUMPDEST DUP10 SWAP9 SWAP2 SWAP3 SWAP9 MLOAD DUP8 DUP2 ADD DUP1 SWAP2 GT PUSH2 0xAD9 JUMPI PUSH2 0x29CE SWAP1 PUSH2 0x32EC JUMP JUMPDEST SWAP3 DUP3 MLOAD SWAP1 DUP9 DUP3 ADD DUP1 SWAP3 GT PUSH2 0x3A2 JUMPI POP PUSH2 0x29E7 DUP11 SWAP2 PUSH2 0x32EC JUMP JUMPDEST SWAP11 DUP9 PUSH1 0x0 DUP2 JUMPDEST PUSH2 0x2A21 JUMPI JUMPDEST POP POP PUSH2 0x29B0 SWAP5 SWAP4 SWAP3 PUSH2 0x2A17 SWAP3 PUSH2 0x2A0C PUSH2 0x100 SWAP4 MLOAD DUP8 PUSH2 0x331E JUMP JUMPDEST MSTORE ADD MLOAD SWAP2 MLOAD DUP12 PUSH2 0x331E JUMP JUMPDEST MSTORE SWAP8 SWAP7 SWAP1 DUP10 PUSH2 0x29A5 JUMP JUMPDEST SWAP1 SWAP2 SWAP3 DUP4 MLOAD DUP3 LT ISZERO PUSH2 0x2A61 JUMPI POP DUP1 PUSH2 0x2A3C PUSH2 0x2A57 SWAP3 DUP6 PUSH2 0x331E JUMP JUMPDEST MLOAD PUSH2 0x2A47 DUP3 DUP10 PUSH2 0x331E JUMP JUMPDEST MSTORE DUP14 PUSH2 0x388 DUP3 PUSH2 0xAC0 DUP2 DUP11 PUSH2 0x331E JUMP JUMPDEST SWAP1 DUP12 SWAP3 SWAP2 DUP2 PUSH2 0x29ED JUMP JUMPDEST SWAP3 SWAP2 SWAP1 PUSH2 0x29F2 JUMP JUMPDEST POP DUP4 PUSH2 0x100 DUP3 ADD MLOAD LT ISZERO PUSH2 0x29A0 JUMP JUMPDEST DUP3 PUSH4 0x4E487B71 PUSH1 0xE0 SHL PUSH1 0x0 MSTORE PUSH1 0x21 PUSH1 0x4 MSTORE PUSH1 0x0 REVERT JUMPDEST PUSH2 0x2AA2 SWAP2 POP RETURNDATASIZE DUP1 PUSH1 0x0 DUP4 RETURNDATACOPY PUSH2 0x3F7 DUP2 DUP4 PUSH2 0x3013 JUMP JUMPDEST DUP11 PUSH2 0x2989 JUMP JUMPDEST SWAP1 POP PUSH1 0x20 DUP2 RETURNDATASIZE DUP3 GT PUSH2 0x2AD1 JUMPI JUMPDEST DUP2 PUSH2 0x2AC2 PUSH1 0x20 SWAP4 DUP4 PUSH2 0x3013 JUMP JUMPDEST DUP2 ADD SUB SLT PUSH2 0x249 JUMPI MLOAD DUP6 PUSH2 0x27A7 JUMP JUMPDEST RETURNDATASIZE SWAP2 POP PUSH2 0x2AB5 JUMP JUMPDEST CALLVALUE PUSH2 0x249 JUMPI PUSH1 0x20 DUP1 PUSH1 0x3 NOT CALLDATASIZE ADD SLT PUSH2 0x249 JUMPI PUSH1 0x1 PUSH1 0x1 PUSH1 0xA0 SHL SUB PUSH2 0x2AFB PUSH2 0x2DD5 JUMP JUMPDEST AND PUSH1 0x0 MSTORE PUSH1 0x5 DUP2 MSTORE PUSH1 0x40 PUSH1 0x0 KECCAK256 SWAP1 PUSH1 0x40 MLOAD DUP1 DUP4 DUP4 DUP3 SWAP6 SLOAD SWAP4 DUP5 DUP2 MSTORE ADD SWAP1 PUSH1 0x0 MSTORE DUP4 PUSH1 0x0 KECCAK256 SWAP3 PUSH1 0x0 JUMPDEST DUP6 DUP3 DUP3 LT PUSH2 0x2B4E JUMPI POP POP POP PUSH2 0x2B3A SWAP3 POP SUB DUP4 PUSH2 0x3013 JUMP JUMPDEST PUSH2 0x2C5 PUSH1 0x40 MLOAD SWAP3 DUP3 DUP5 SWAP4 DUP5 MSTORE DUP4 ADD SWAP1 PUSH2 0x2D79 JUMP JUMPDEST DUP6 SLOAD DUP5 MSTORE PUSH1 0x1 SWAP6 DUP7 ADD SWAP6 DUP9 SWAP6 POP SWAP4 ADD SWAP3 ADD PUSH2 0x2B23 JUMP JUMPDEST CALLVALUE PUSH2 0x249 JUMPI PUSH1 0x20 CALLDATASIZE PUSH1 0x3 NOT ADD SLT PUSH2 0x249 JUMPI PUSH1 0x20 PUSH2 0x2B87 PUSH2 0x2B82 PUSH2 0x2DD5 JUMP JUMPDEST PUSH2 0x321B JUMP JUMPDEST PUSH1 0x40 MLOAD SWAP1 DUP2 MSTORE RETURN JUMPDEST CALLVALUE PUSH2 0x249 JUMPI PUSH2 0x2B9D CALLDATASIZE PUSH2 0x2E01 JUMP JUMPDEST POP PUSH1 0x1 SLOAD PUSH1 0x1 PUSH1 0x1 PUSH1 0xA0 SHL SUB SWAP2 DUP3 SWAP2 PUSH2 0x2BB9 SWAP1 DUP4 AND CALLER EQ PUSH2 0x2F12 JUMP JUMPDEST AND SWAP2 DUP3 PUSH1 0x0 MSTORE PUSH1 0x2 PUSH1 0x20 MSTORE PUSH1 0x40 PUSH1 0x0 KECCAK256 PUSH1 0x2 DUP2 ADD PUSH2 0x2BD7 DUP2 SLOAD PUSH2 0x2F6E JUMP JUMPDEST SWAP1 SSTORE TIMESTAMP PUSH1 0xA DUP3 ADD SSTORE PUSH1 0x0 DUP4 PUSH1 0x1 SLOAD AND SWAP3 PUSH1 0x24 PUSH1 0x40 MLOAD DUP1 SWAP6 DUP2 SWAP4 PUSH4 0xEB44FDD3 PUSH1 0xE0 SHL DUP4 MSTORE PUSH1 0x4 DUP4 ADD MSTORE GAS STATICCALL SWAP2 DUP3 ISZERO PUSH2 0x405 JUMPI PUSH1 0x0 DUP1 MLOAD PUSH1 0x20 PUSH2 0x33D5 DUP4 CODECOPY DUP2 MLOAD SWAP2 MSTORE SWAP4 PUSH1 0x40 SWAP4 DUP7 SWAP3 PUSH1 0x0 SWAP2 PUSH2 0x2C56 JUMPI JUMPDEST POP MLOAD AND EQ PUSH2 0x2C41 JUMPI PUSH1 0x3 DUP2 SLOAD SWAP2 ADD SLOAD DUP3 MLOAD SWAP2 DUP3 MSTORE PUSH1 0x20 DUP3 ADD MSTORE LOG2 STOP JUMPDEST PUSH1 0x8 DUP2 ADD PUSH2 0x2C4F DUP2 SLOAD PUSH2 0x2F6E JUMP JUMPDEST SWAP1 SSTORE PUSH2 0x54E JUMP JUMPDEST PUSH2 0x2C6B SWAP2 POP RETURNDATASIZE DUP1 PUSH1 0x0 DUP4 RETURNDATACOPY PUSH2 0x3F7 DUP2 DUP4 PUSH2 0x3013 JUMP JUMPDEST DUP8 PUSH2 0x2C25 JUMP JUMPDEST CALLVALUE PUSH2 0x249 JUMPI PUSH1 0x20 DUP1 PUSH1 0x3 NOT CALLDATASIZE ADD SLT PUSH2 0x249 JUMPI PUSH1 0x1 PUSH1 0x1 PUSH1 0xA0 SHL SUB PUSH2 0x2C93 PUSH2 0x2DD5 JUMP JUMPDEST AND PUSH1 0x0 MSTORE PUSH1 0x6 DUP2 MSTORE PUSH1 0x40 PUSH1 0x0 KECCAK256 SWAP1 PUSH1 0x40 MLOAD DUP1 DUP4 DUP4 DUP3 SWAP6 SLOAD SWAP4 DUP5 DUP2 MSTORE ADD SWAP1 PUSH1 0x0 MSTORE DUP4 PUSH1 0x0 KECCAK256 SWAP3 PUSH1 0x0 JUMPDEST DUP6 DUP3 DUP3 LT PUSH2 0x2CD2 JUMPI POP POP POP PUSH2 0x2B3A SWAP3 POP SUB DUP4 PUSH2 0x3013 JUMP JUMPDEST DUP6 SLOAD DUP5 MSTORE PUSH1 0x1 SWAP6 DUP7 ADD SWAP6 DUP9 SWAP6 POP SWAP4 ADD SWAP3 ADD PUSH2 0x2CBB JUMP JUMPDEST CALLVALUE PUSH2 0x249 JUMPI PUSH1 0x20 CALLDATASIZE PUSH1 0x3 NOT ADD SLT PUSH2 0x249 JUMPI PUSH1 0x1 PUSH1 0x1 PUSH1 0xA0 SHL SUB PUSH2 0x2D09 PUSH2 0x2DD5 JUMP JUMPDEST AND PUSH1 0x0 MSTORE PUSH1 0x2 PUSH1 0x20 MSTORE PUSH1 0x20 PUSH1 0x9 PUSH1 0x40 PUSH1 0x0 KECCAK256 ADD SLOAD PUSH1 0x40 MLOAD SWAP1 DUP2 MSTORE RETURN JUMPDEST CALLVALUE PUSH2 0x249 JUMPI PUSH1 0x20 CALLDATASIZE PUSH1 0x3 NOT ADD SLT PUSH2 0x249 JUMPI PUSH4 0x3D80D00B PUSH1 0xE0 SHL DUP2 MSTORE PUSH1 0x1 PUSH1 0x4 DUP3 ADD MSTORE PUSH1 0x4 CALLDATALOAD PUSH1 0x24 DUP3 ADD MSTORE PUSH1 0x0 DUP2 PUSH1 0x44 DUP2 ADDRESS GAS STATICCALL SWAP1 DUP2 ISZERO PUSH2 0x405 JUMPI PUSH1 0x0 SWAP1 PUSH1 0x0 SWAP3 PUSH2 0x273B JUMPI POP PUSH2 0x2C5 PUSH1 0x40 MLOAD SWAP3 DUP4 SWAP3 DUP4 PUSH2 0x2DAD JUMP JUMPDEST SWAP1 DUP2 MLOAD DUP1 DUP3 MSTORE PUSH1 0x20 DUP1 DUP1 SWAP4 ADD SWAP4 ADD SWAP2 PUSH1 0x0 JUMPDEST DUP3 DUP2 LT PUSH2 0x2D99 JUMPI POP POP POP POP SWAP1 JUMP JUMPDEST DUP4 MLOAD DUP6 MSTORE SWAP4 DUP2 ADD SWAP4 SWAP3 DUP2 ADD SWAP3 PUSH1 0x1 ADD PUSH2 0x2D8B JUMP JUMPDEST SWAP1 SWAP2 PUSH2 0x2DC4 PUSH2 0x2DD2 SWAP4 PUSH1 0x40 DUP5 MSTORE PUSH1 0x40 DUP5 ADD SWAP1 PUSH2 0x2D79 JUMP JUMPDEST SWAP2 PUSH1 0x20 DUP2 DUP5 SUB SWAP2 ADD MSTORE PUSH2 0x2D79 JUMP JUMPDEST SWAP1 JUMP JUMPDEST PUSH1 0x4 CALLDATALOAD SWAP1 PUSH1 0x1 PUSH1 0x1 PUSH1 0xA0 SHL SUB DUP3 AND DUP3 SUB PUSH2 0x249 JUMPI JUMP JUMPDEST PUSH1 0x24 CALLDATALOAD SWAP1 PUSH1 0x1 PUSH1 0x1 PUSH1 0xA0 SHL SUB DUP3 AND DUP3 SUB PUSH2 0x249 JUMPI JUMP JUMPDEST PUSH1 0x60 SWAP1 PUSH1 0x3 NOT ADD SLT PUSH2 0x249 JUMPI PUSH1 0x4 CALLDATALOAD SWAP1 PUSH1 0x24 CALLDATALOAD PUSH1 0x1 PUSH1 0x1 PUSH1 0xA0 SHL SUB DUP2 AND DUP2 SUB PUSH2 0x249 JUMPI SWAP1 PUSH1 0x44 CALLDATALOAD SWAP1 JUMP JUMPDEST PUSH1 0x40 SWAP1 PUSH1 0x3 NOT ADD SLT PUSH2 0x249 JUMPI PUSH1 0x4 CALLDATALOAD SWAP1 PUSH1 0x24 CALLDATALOAD SWAP1 JUMP JUMPDEST DUP1 SLOAD DUP3 LT ISZERO PUSH2 0x2E59 JUMPI PUSH1 0x0 MSTORE PUSH1 0x20 PUSH1 0x0 KECCAK256 ADD SWAP1 PUSH1 0x0 SWAP1 JUMP JUMPDEST PUSH4 0x4E487B71 PUSH1 0xE0 SHL PUSH1 0x0 MSTORE PUSH1 0x32 PUSH1 0x4 MSTORE PUSH1 0x24 PUSH1 0x0 REVERT JUMPDEST CALLVALUE PUSH2 0x249 JUMPI PUSH1 0x20 DUP1 PUSH1 0x3 NOT CALLDATASIZE ADD SLT PUSH2 0x249 JUMPI PUSH1 0x1 PUSH1 0x1 PUSH1 0xA0 SHL SUB PUSH2 0x2E91 PUSH2 0x2DD5 JUMP JUMPDEST AND PUSH1 0x0 MSTORE PUSH1 0x4 DUP2 MSTORE PUSH1 0x40 PUSH1 0x0 KECCAK256 SWAP1 PUSH1 0x40 MLOAD DUP1 DUP4 DUP4 DUP3 SWAP6 SLOAD SWAP4 DUP5 DUP2 MSTORE ADD SWAP1 PUSH1 0x0 MSTORE DUP4 PUSH1 0x0 KECCAK256 SWAP3 PUSH1 0x0 JUMPDEST DUP6 DUP3 DUP3 LT PUSH2 0x2ED0 JUMPI POP POP POP PUSH2 0x2B3A SWAP3 POP SUB DUP4 PUSH2 0x3013 JUMP JUMPDEST DUP6 SLOAD DUP5 MSTORE PUSH1 0x1 SWAP6 DUP7 ADD SWAP6 DUP9 SWAP6 POP SWAP4 ADD SWAP3 ADD PUSH2 0x2EB9 JUMP JUMPDEST PUSH1 0x0 SLOAD PUSH1 0x1 PUSH1 0x1 PUSH1 0xA0 SHL SUB AND CALLER SUB PUSH2 0x2EFA JUMPI JUMP JUMPDEST PUSH1 0x40 MLOAD PUSH4 0x118CDAA7 PUSH1 0xE0 SHL DUP2 MSTORE CALLER PUSH1 0x4 DUP3 ADD MSTORE PUSH1 0x24 SWAP1 REVERT JUMPDEST ISZERO PUSH2 0x2F19 JUMPI JUMP JUMPDEST PUSH1 0x40 MLOAD PUSH3 0x461BCD PUSH1 0xE5 SHL DUP2 MSTORE PUSH1 0x20 PUSH1 0x4 DUP3 ADD MSTORE PUSH1 0x27 PUSH1 0x24 DUP3 ADD MSTORE PUSH32 0x416E616C79746963733A204F6E6C79204D61726B65744D616E61676572206361 PUSH1 0x44 DUP3 ADD MSTORE PUSH7 0x6E20747261636B PUSH1 0xC8 SHL PUSH1 0x64 DUP3 ADD MSTORE PUSH1 0x84 SWAP1 REVERT JUMPDEST PUSH1 0x0 NOT DUP2 EQ PUSH2 0x983 JUMPI PUSH1 0x1 ADD SWAP1 JUMP JUMPDEST SWAP2 SWAP1 DUP3 ADD DUP1 SWAP3 GT PUSH2 0x983 JUMPI JUMP JUMPDEST PUSH2 0x160 DUP2 ADD SWAP1 DUP2 LT PUSH8 0xFFFFFFFFFFFFFFFF DUP3 GT OR PUSH2 0x2FA7 JUMPI PUSH1 0x40 MSTORE JUMP JUMPDEST PUSH4 0x4E487B71 PUSH1 0xE0 SHL PUSH1 0x0 MSTORE PUSH1 0x41 PUSH1 0x4 MSTORE PUSH1 0x24 PUSH1 0x0 REVERT JUMPDEST PUSH2 0x120 DUP2 ADD SWAP1 DUP2 LT PUSH8 0xFFFFFFFFFFFFFFFF DUP3 GT OR PUSH2 0x2FA7 JUMPI PUSH1 0x40 MSTORE JUMP JUMPDEST PUSH2 0x100 DUP2 ADD SWAP1 DUP2 LT PUSH8 0xFFFFFFFFFFFFFFFF DUP3 GT OR PUSH2 0x2FA7 JUMPI PUSH1 0x40 MSTORE JUMP JUMPDEST PUSH1 0x20 DUP2 ADD SWAP1 DUP2 LT PUSH8 0xFFFFFFFFFFFFFFFF DUP3 GT OR PUSH2 0x2FA7 JUMPI PUSH1 0x40 MSTORE JUMP JUMPDEST SWAP1 PUSH1 0x1F DUP1 NOT SWAP2 ADD AND DUP2 ADD SWAP1 DUP2 LT PUSH8 0xFFFFFFFFFFFFFFFF DUP3 GT OR PUSH2 0x2FA7 JUMPI PUSH1 0x40 MSTORE JUMP JUMPDEST DUP2 ISZERO PUSH2 0x303F JUMPI DIV SWAP1 JUMP JUMPDEST PUSH4 0x4E487B71 PUSH1 0xE0 SHL PUSH1 0x0 MSTORE PUSH1 0x12 PUSH1 0x4 MSTORE PUSH1 0x24 PUSH1 0x0 REVERT JUMPDEST SWAP2 SWAP1 DUP3 SUB SWAP2 DUP3 GT PUSH2 0x983 JUMPI JUMP JUMPDEST DUP1 SLOAD PUSH9 0x10000000000000000 DUP2 LT ISZERO PUSH2 0x2FA7 JUMPI PUSH2 0x3084 SWAP2 PUSH1 0x1 DUP3 ADD DUP2 SSTORE PUSH2 0x2E41 JUMP JUMPDEST DUP2 SWAP3 SWAP2 SLOAD SWAP1 PUSH1 0x3 SHL SWAP2 DUP3 SHL SWAP2 PUSH1 0x0 NOT SWAP1 SHL NOT AND OR SWAP1 SSTORE JUMP JUMPDEST MLOAD SWAP1 PUSH1 0x1 PUSH1 0x1 PUSH1 0xA0 SHL SUB DUP3 AND DUP3 SUB PUSH2 0x249 JUMPI JUMP JUMPDEST MLOAD SWAP1 DUP2 ISZERO ISZERO DUP3 SUB PUSH2 0x249 JUMPI JUMP JUMPDEST SWAP1 PUSH1 0x20 SWAP1 DUP2 DUP4 DUP3 SUB SLT PUSH2 0x249 JUMPI DUP3 MLOAD PUSH8 0xFFFFFFFFFFFFFFFF SWAP4 DUP5 DUP3 GT PUSH2 0x249 JUMPI ADD SWAP2 PUSH2 0x1C0 SWAP4 DUP5 DUP5 DUP5 SUB SLT PUSH2 0x249 JUMPI PUSH1 0x40 MLOAD SWAP5 DUP6 ADD DUP6 DUP2 LT DUP3 DUP3 GT OR PUSH2 0x2FA7 JUMPI PUSH1 0x40 MSTORE PUSH2 0x3109 DUP5 PUSH2 0x309C JUMP JUMPDEST DUP6 MSTORE DUP2 DUP5 ADD MLOAD DUP2 DUP2 GT PUSH2 0x249 JUMPI DUP5 ADD DUP4 PUSH1 0x1F DUP3 ADD SLT ISZERO PUSH2 0x249 JUMPI DUP1 MLOAD SWAP2 DUP3 GT PUSH2 0x2FA7 JUMPI PUSH1 0x40 MLOAD SWAP4 PUSH2 0x3143 PUSH1 0x1F DUP5 ADD PUSH1 0x1F NOT AND DUP6 ADD DUP7 PUSH2 0x3013 JUMP JUMPDEST DUP3 DUP6 MSTORE DUP4 DUP4 DUP4 ADD ADD GT PUSH2 0x249 JUMPI DUP3 SWAP1 PUSH1 0x0 JUMPDEST DUP4 DUP2 LT PUSH2 0x3207 JUMPI POP POP PUSH1 0x0 SWAP2 DUP5 ADD ADD MSTORE DUP4 ADD MSTORE PUSH2 0x3174 PUSH1 0x40 DUP3 ADD PUSH2 0x30B0 JUMP JUMPDEST PUSH1 0x40 DUP4 ADD MSTORE PUSH1 0x60 DUP2 ADD MLOAD PUSH1 0x60 DUP4 ADD MSTORE PUSH2 0x318F PUSH1 0x80 DUP3 ADD PUSH2 0x309C JUMP JUMPDEST PUSH1 0x80 DUP4 ADD MSTORE PUSH1 0xA0 DUP2 ADD MLOAD PUSH1 0xA0 DUP4 ADD MSTORE PUSH1 0xC0 DUP2 ADD MLOAD PUSH1 0xC0 DUP4 ADD MSTORE PUSH1 0xE0 DUP2 ADD MLOAD PUSH1 0xE0 DUP4 ADD MSTORE PUSH2 0x100 DUP1 DUP3 ADD MLOAD SWAP1 DUP4 ADD MSTORE PUSH2 0x120 DUP1 DUP3 ADD MLOAD SWAP1 DUP4 ADD MSTORE PUSH2 0x140 DUP1 DUP3 ADD MLOAD SWAP1 DUP4 ADD MSTORE PUSH2 0x160 DUP1 DUP3 ADD MLOAD SWAP1 PUSH1 0x5 DUP3 LT ISZERO PUSH2 0x249 JUMPI DUP4 ADD MSTORE PUSH2 0x180 DUP1 DUP3 ADD MLOAD SWAP1 DUP4 ADD MSTORE PUSH2 0x3200 PUSH2 0x1A0 DUP1 SWAP3 ADD PUSH2 0x30B0 JUMP JUMPDEST SWAP1 DUP3 ADD MSTORE SWAP1 JUMP JUMPDEST DUP2 DUP2 ADD DUP4 ADD MLOAD DUP7 DUP3 ADD DUP5 ADD MSTORE DUP5 SWAP3 ADD PUSH2 0x3155 JUMP JUMPDEST PUSH1 0x1 DUP1 PUSH1 0xA0 SHL SUB AND PUSH1 0x0 MSTORE PUSH1 0x2 PUSH1 0x20 MSTORE PUSH1 0x40 PUSH1 0x0 KECCAK256 PUSH1 0x40 MLOAD SWAP1 PUSH2 0x323D DUP3 PUSH2 0x2F8A JUMP JUMPDEST DUP1 SLOAD DUP1 DUP4 MSTORE PUSH1 0xA PUSH1 0x1 DUP4 ADD SLOAD SWAP3 DUP4 PUSH1 0x20 DUP7 ADD MSTORE PUSH1 0x2 DUP2 ADD SLOAD PUSH1 0x40 DUP7 ADD MSTORE PUSH1 0x3 DUP2 ADD SLOAD PUSH1 0x60 DUP7 ADD MSTORE PUSH1 0x4 DUP2 ADD SLOAD PUSH1 0x80 DUP7 ADD MSTORE PUSH1 0x5 DUP2 ADD SLOAD PUSH1 0xA0 DUP7 ADD MSTORE PUSH1 0x6 DUP2 ADD SLOAD PUSH1 0xC0 DUP7 ADD MSTORE PUSH1 0x7 DUP2 ADD SLOAD PUSH1 0xE0 DUP7 ADD MSTORE PUSH1 0x8 DUP2 ADD SLOAD PUSH2 0x100 DUP7 ADD MSTORE PUSH1 0x9 DUP2 ADD SLOAD PUSH2 0x120 DUP7 ADD MSTORE ADD SLOAD PUSH2 0x140 DUP5 ADD MSTORE ISZERO PUSH2 0x32CD JUMPI PUSH1 0x64 DUP2 MUL SWAP1 DUP1 DUP3 DIV PUSH1 0x64 EQ SWAP1 ISZERO OR ISZERO PUSH2 0x983 JUMPI PUSH2 0x2DD2 SWAP2 MLOAD SWAP1 PUSH2 0x3035 JUMP JUMPDEST POP POP PUSH1 0x0 SWAP1 JUMP JUMPDEST PUSH8 0xFFFFFFFFFFFFFFFF DUP2 GT PUSH2 0x2FA7 JUMPI PUSH1 0x5 SHL PUSH1 0x20 ADD SWAP1 JUMP JUMPDEST SWAP1 PUSH2 0x32F6 DUP3 PUSH2 0x32D4 JUMP JUMPDEST PUSH2 0x3303 PUSH1 0x40 MLOAD SWAP2 DUP3 PUSH2 0x3013 JUMP JUMPDEST DUP3 DUP2 MSTORE DUP1 SWAP3 PUSH2 0x3314 PUSH1 0x1F NOT SWAP2 PUSH2 0x32D4 JUMP JUMPDEST ADD SWAP1 PUSH1 0x20 CALLDATASIZE SWAP2 ADD CALLDATACOPY JUMP JUMPDEST DUP1 MLOAD DUP3 LT ISZERO PUSH2 0x2E59 JUMPI PUSH1 0x20 SWAP2 PUSH1 0x5 SHL ADD ADD SWAP1 JUMP JUMPDEST DUP2 PUSH1 0x1F DUP3 ADD SLT ISZERO PUSH2 0x249 JUMPI DUP1 MLOAD SWAP2 PUSH2 0x3349 DUP4 PUSH2 0x32D4 JUMP JUMPDEST SWAP3 PUSH2 0x3357 PUSH1 0x40 MLOAD SWAP5 DUP6 PUSH2 0x3013 JUMP JUMPDEST DUP1 DUP5 MSTORE PUSH1 0x20 SWAP3 DUP4 DUP1 DUP7 ADD SWAP3 PUSH1 0x5 SHL DUP3 ADD ADD SWAP3 DUP4 GT PUSH2 0x249 JUMPI DUP4 ADD SWAP1 JUMPDEST DUP3 DUP3 LT PUSH2 0x3381 JUMPI POP POP POP POP SWAP1 JUMP JUMPDEST DUP2 MLOAD DUP2 MSTORE SWAP1 DUP4 ADD SWAP1 DUP4 ADD PUSH2 0x3373 JUMP JUMPDEST SWAP2 SWAP1 SWAP2 PUSH1 0x40 DUP2 DUP5 SUB SLT PUSH2 0x249 JUMPI DUP1 MLOAD SWAP3 PUSH8 0xFFFFFFFFFFFFFFFF SWAP4 DUP5 DUP2 GT PUSH2 0x249 JUMPI DUP2 PUSH2 0x33BD SWAP2 DUP5 ADD PUSH2 0x3332 JUMP JUMPDEST SWAP4 PUSH1 0x20 DUP4 ADD MLOAD SWAP1 DUP2 GT PUSH2 0x249 JUMPI PUSH2 0x2DD2 SWAP3 ADD PUSH2 0x3332 JUMP INVALID 0x4B PUSH13 0x7ABACB75992CC13AD43FFE4479 0xDA 0xC5 0xF7 0xBE SWAP2 KECCAK256 0x2F PUSH0 0xBB LT DUP15 0xB1 0xAF DUP14 JUMP 0xED PUSH3 0xA26469 PUSH17 0x667358221220A15496EB086C5CC12317A0 SELFBALANCE 0xF9 INVALID 0x4F BYTE 0xE3 SMOD DUP2 PUSH26 0xB947EB90CA7C05AC5BBFE8E364736F6C63430008140033000000 "},"methodIdentifiers":{"getActiveMarketsByBettorCount(uint256)":"b2e1ae8b","getActiveMarketsByMinVolume(uint256)":"fbe15159","getActiveMarketsByParticipants(uint256)":"a119515a","getActiveMarketsByVolume(uint256)":"50ad34a1","getGlobalStats()":"6b4169c3","getMarketStats(uint256)":"58057fe5","getMarketsByCreator(address)":"e99c80bd","getMarketsByDateRange(uint256,uint256)":"57f978ad","getMarketsByState(uint8)":"9b7bcd24","getMarketsByToken(address)":"cd94a775","getMarketsFiltered(address,address,uint256,uint256,uint8,uint256,uint256)":"837cd235","getRecentActiveMarkets(uint256,uint256)":"3d80d00b","getThisWeekActiveMarkets(uint256)":"3f89efda","getTodayActiveMarkets(uint256)":"0649e0c0","getTopBettors(uint256)":"5be0a34b","getUserBets(address)":"2d56657d","getUserFavoriteOption(address)":"110d05e5","getUserMarkets(address)":"da4473d8","getUserMarketsByState(address,uint8)":"80aa0d8c","getUserStats(address)":"4e43603a","getUserSupports(address)":"1c6e04db","getUserWinRate(address)":"25ec5ef1","marketManager()":"41ed2c12","marketStats(uint256)":"4b669c09","owner()":"8da5cb5b","renounceOwnership()":"715018a6","setMarketManager(address)":"d82aff11","trackBet(uint256,address,uint256,uint256)":"5374b47b","trackLoss(uint256,address,uint256)":"2053114d","trackMarketCreation(uint256,address)":"f054f00a","trackMarketResolution(uint256,uint256)":"ff4a7300","trackSupport(uint256,address,uint256)":"8f46a5a1","trackWinnings(uint256,address,uint256)":"61d442c2","transferOwnership(address)":"f2fde38b","userBets(address,uint256)":"8068aa68","userMarkets(address,uint256)":"db0f871d","userOptionStats(address,uint256)":"54488a5a","userStats(address)":"8a65d874","userSupports(address,uint256)":"6b3b7ea7"}}}}}