{"contracts/P2PMarketManager.sol":{"EventPool":{"abi":[{"inputs":[{"internalType":"address","name":"initialOwner","type":"address"},{"internalType":"address payable","name":"_treasury","type":"address"},{"internalType":"address","name":"_verification","type":"address"},{"internalType":"address","name":"_analytics","type":"address"},{"internalType":"uint256","name":"_marketCreationFee","type":"uint256"}],"stateMutability":"nonpayable","type":"constructor"},{"inputs":[{"internalType":"address","name":"owner","type":"address"}],"name":"OwnableInvalidOwner","type":"error"},{"inputs":[{"internalType":"address","name":"account","type":"address"}],"name":"OwnableUnauthorizedAccount","type":"error"},{"inputs":[{"internalType":"address","name":"token","type":"address"}],"name":"SafeERC20FailedOperation","type":"error"},{"anonymous":false,"inputs":[{"indexed":true,"internalType":"uint256","name":"marketId","type":"uint256"},{"indexed":false,"internalType":"string","name":"reason","type":"string"}],"name":"MarketCancelled","type":"event"},{"anonymous":false,"inputs":[{"indexed":true,"internalType":"uint256","name":"marketId","type":"uint256"},{"indexed":true,"internalType":"address","name":"creator","type":"address"},{"indexed":false,"internalType":"string","name":"ipfsHash","type":"string"},{"indexed":false,"internalType":"bool","name":"isMultiOption","type":"bool"},{"indexed":false,"internalType":"uint256","name":"maxOptions","type":"uint256"},{"indexed":false,"internalType":"address","name":"paymentToken","type":"address"},{"indexed":false,"internalType":"uint256","name":"minStake","type":"uint256"}],"name":"MarketCreated","type":"event"},{"anonymous":false,"inputs":[{"indexed":true,"internalType":"uint256","name":"marketId","type":"uint256"},{"indexed":false,"internalType":"uint256","name":"endTime","type":"uint256"}],"name":"MarketEnded","type":"event"},{"anonymous":false,"inputs":[{"indexed":true,"internalType":"uint256","name":"marketId","type":"uint256"},{"indexed":false,"internalType":"uint256","name":"winningOption","type":"uint256"}],"name":"MarketResolved","type":"event"},{"anonymous":false,"inputs":[{"indexed":true,"internalType":"uint256","name":"marketId","type":"uint256"},{"indexed":true,"internalType":"address","name":"supporter","type":"address"},{"indexed":false,"internalType":"uint256","name":"amount","type":"uint256"}],"name":"MarketSupported","type":"event"},{"anonymous":false,"inputs":[{"indexed":true,"internalType":"address","name":"previousOwner","type":"address"},{"indexed":true,"internalType":"address","name":"newOwner","type":"address"}],"name":"OwnershipTransferred","type":"event"},{"anonymous":false,"inputs":[{"indexed":true,"internalType":"uint256","name":"marketId","type":"uint256"},{"indexed":true,"internalType":"address","name":"user","type":"address"},{"indexed":false,"internalType":"uint256","name":"amount","type":"uint256"}],"name":"RefundClaimed","type":"event"},{"anonymous":false,"inputs":[{"indexed":true,"internalType":"uint256","name":"marketId","type":"uint256"},{"indexed":true,"internalType":"address","name":"user","type":"address"},{"indexed":false,"internalType":"uint256","name":"option","type":"uint256"},{"indexed":false,"internalType":"uint256","name":"amount","type":"uint256"}],"name":"StakePlaced","type":"event"},{"anonymous":false,"inputs":[{"indexed":true,"internalType":"uint256","name":"marketId","type":"uint256"},{"indexed":true,"internalType":"address","name":"supporter","type":"address"},{"indexed":false,"internalType":"uint256","name":"amount","type":"uint256"}],"name":"SupportRewardClaimed","type":"event"},{"anonymous":false,"inputs":[{"indexed":true,"internalType":"uint256","name":"marketId","type":"uint256"},{"indexed":true,"internalType":"address","name":"supporter","type":"address"},{"indexed":false,"internalType":"uint256","name":"amount","type":"uint256"}],"name":"SupportWithdrawn","type":"event"},{"anonymous":false,"inputs":[{"indexed":true,"internalType":"uint256","name":"marketId","type":"uint256"},{"indexed":true,"internalType":"address","name":"user","type":"address"},{"indexed":false,"internalType":"uint256","name":"amount","type":"uint256"}],"name":"WinningsClaimed","type":"event"},{"inputs":[{"internalType":"uint256","name":"","type":"uint256"}],"name":"activeMarkets","outputs":[{"internalType":"uint256","name":"","type":"uint256"}],"stateMutability":"view","type":"function"},{"inputs":[{"internalType":"address","name":"token","type":"address"},{"internalType":"string","name":"symbol","type":"string"}],"name":"addSupportedToken","outputs":[],"stateMutability":"nonpayable","type":"function"},{"inputs":[],"name":"analytics","outputs":[{"internalType":"address","name":"","type":"address"}],"stateMutability":"view","type":"function"},{"inputs":[{"internalType":"uint256","name":"marketId","type":"uint256"}],"name":"autoResolve","outputs":[],"stateMutability":"nonpayable","type":"function"},{"inputs":[],"name":"bettingRestrictionEnabled","outputs":[{"internalType":"bool","name":"","type":"bool"}],"stateMutability":"view","type":"function"},{"inputs":[],"name":"bettingRestrictionMinutes","outputs":[{"internalType":"uint256","name":"","type":"uint256"}],"stateMutability":"view","type":"function"},{"inputs":[{"internalType":"uint256","name":"","type":"uint256"}],"name":"blacklistedAddresses","outputs":[{"internalType":"address","name":"","type":"address"}],"stateMutability":"view","type":"function"},{"inputs":[{"internalType":"address","name":"","type":"address"}],"name":"blacklistedWallets","outputs":[{"internalType":"bool","name":"","type":"bool"}],"stateMutability":"view","type":"function"},{"inputs":[{"internalType":"uint256","name":"marketId","type":"uint256"},{"internalType":"address","name":"user","type":"address"}],"name":"calculateWinnings","outputs":[{"internalType":"uint256","name":"","type":"uint256"}],"stateMutability":"view","type":"function"},{"inputs":[{"internalType":"uint256","name":"marketId","type":"uint256"}],"name":"cancelMarket","outputs":[],"stateMutability":"nonpayable","type":"function"},{"inputs":[{"internalType":"uint256","name":"marketId","type":"uint256"}],"name":"claimRefund","outputs":[],"stateMutability":"nonpayable","type":"function"},{"inputs":[{"internalType":"uint256","name":"marketId","type":"uint256"}],"name":"claimWinnings","outputs":[],"stateMutability":"nonpayable","type":"function"},{"inputs":[{"internalType":"string","name":"ipfsHash","type":"string"},{"internalType":"bool","name":"isMultiOption","type":"bool"},{"internalType":"uint256","name":"maxOptions","type":"uint256"},{"internalType":"address","name":"paymentToken","type":"address"},{"internalType":"uint256","name":"minStake","type":"uint256"},{"internalType":"uint256","name":"creatorDeposit","type":"uint256"},{"internalType":"uint256","name":"creatorOutcome","type":"uint256"},{"internalType":"uint256","name":"stakeDurationMinutes","type":"uint256"},{"internalType":"uint256","name":"resolutionDurationMinutes","type":"uint256"}],"name":"createMarket","outputs":[{"internalType":"uint256","name":"","type":"uint256"}],"stateMutability":"payable","type":"function"},{"inputs":[{"internalType":"uint256","name":"marketId","type":"uint256"}],"name":"creatorCancelMarket","outputs":[],"stateMutability":"nonpayable","type":"function"},{"inputs":[{"internalType":"uint256","name":"marketId","type":"uint256"},{"internalType":"string","name":"reason","type":"string"}],"name":"deleteMarket","outputs":[],"stateMutability":"nonpayable","type":"function"},{"inputs":[{"internalType":"uint256","name":"","type":"uint256"}],"name":"deletedMarkets","outputs":[{"internalType":"uint256","name":"","type":"uint256"}],"stateMutability":"view","type":"function"},{"inputs":[{"internalType":"uint256","name":"","type":"uint256"}],"name":"deletionTimestamp","outputs":[{"internalType":"uint256","name":"","type":"uint256"}],"stateMutability":"view","type":"function"},{"inputs":[{"internalType":"uint256","name":"marketId","type":"uint256"}],"name":"endMarket","outputs":[],"stateMutability":"nonpayable","type":"function"},{"inputs":[],"name":"getActiveMarketCount","outputs":[{"internalType":"uint256","name":"","type":"uint256"}],"stateMutability":"view","type":"function"},{"inputs":[],"name":"getActiveMarkets","outputs":[{"internalType":"uint256[]","name":"","type":"uint256[]"}],"stateMutability":"view","type":"function"},{"inputs":[],"name":"getAllMarketIds","outputs":[{"internalType":"uint256[]","name":"","type":"uint256[]"}],"stateMutability":"view","type":"function"},{"inputs":[],"name":"getBlacklistedAddresses","outputs":[{"internalType":"address[]","name":"","type":"address[]"}],"stateMutability":"view","type":"function"},{"inputs":[],"name":"getBlacklistedCount","outputs":[{"internalType":"uint256","name":"","type":"uint256"}],"stateMutability":"view","type":"function"},{"inputs":[{"internalType":"uint256","name":"index","type":"uint256"}],"name":"getBlacklistedWallet","outputs":[{"internalType":"address","name":"","type":"address"}],"stateMutability":"view","type":"function"},{"inputs":[],"name":"getDeletedMarkets","outputs":[{"internalType":"uint256[]","name":"","type":"uint256[]"}],"stateMutability":"view","type":"function"},{"inputs":[{"internalType":"uint256","name":"marketId","type":"uint256"}],"name":"getMarket","outputs":[{"components":[{"internalType":"address","name":"creator","type":"address"},{"internalType":"string","name":"ipfsHash","type":"string"},{"internalType":"bool","name":"isMultiOption","type":"bool"},{"internalType":"uint256","name":"maxOptions","type":"uint256"},{"internalType":"address","name":"paymentToken","type":"address"},{"internalType":"uint256","name":"minStake","type":"uint256"},{"internalType":"uint256","name":"creatorDeposit","type":"uint256"},{"internalType":"uint256","name":"creatorOutcome","type":"uint256"},{"internalType":"uint256","name":"startTime","type":"uint256"},{"internalType":"uint256","name":"stakeEndTime","type":"uint256"},{"internalType":"uint256","name":"endTime","type":"uint256"},{"internalType":"uint256","name":"resolutionEndTime","type":"uint256"},{"internalType":"enum EventPool.MarketState","name":"state","type":"uint8"},{"internalType":"uint256","name":"winningOption","type":"uint256"},{"internalType":"bool","name":"isResolved","type":"bool"}],"internalType":"struct EventPool.Market","name":"","type":"tuple"}],"stateMutability":"view","type":"function"},{"inputs":[{"internalType":"uint256","name":"marketId","type":"uint256"}],"name":"getMarketInfo","outputs":[{"components":[{"internalType":"address","name":"creator","type":"address"},{"internalType":"string","name":"ipfsHash","type":"string"},{"internalType":"bool","name":"isMultiOption","type":"bool"},{"internalType":"uint256","name":"maxOptions","type":"uint256"},{"internalType":"address","name":"paymentToken","type":"address"},{"internalType":"uint256","name":"minStake","type":"uint256"},{"internalType":"uint256","name":"creatorDeposit","type":"uint256"},{"internalType":"uint256","name":"creatorOutcome","type":"uint256"},{"internalType":"uint256","name":"startTime","type":"uint256"},{"internalType":"uint256","name":"stakeEndTime","type":"uint256"},{"internalType":"uint256","name":"endTime","type":"uint256"},{"internalType":"uint256","name":"resolutionEndTime","type":"uint256"},{"internalType":"enum EventPool.MarketState","name":"state","type":"uint8"},{"internalType":"uint256","name":"winningOption","type":"uint256"},{"internalType":"bool","name":"isResolved","type":"bool"}],"internalType":"struct EventPool.Market","name":"market","type":"tuple"},{"internalType":"uint256","name":"totalPool","type":"uint256"},{"internalType":"uint256","name":"supportPool","type":"uint256"},{"internalType":"uint256","name":"stakerCount","type":"uint256"},{"internalType":"uint256","name":"supporterCount","type":"uint256"},{"internalType":"address[]","name":"stakers","type":"address[]"},{"internalType":"address[]","name":"supporters","type":"address[]"},{"internalType":"string","name":"tokenSymbol","type":"string"}],"stateMutability":"view","type":"function"},{"inputs":[{"internalType":"uint256","name":"marketId","type":"uint256"}],"name":"getMarketStakers","outputs":[{"internalType":"address[]","name":"","type":"address[]"}],"stateMutability":"view","type":"function"},{"inputs":[{"internalType":"uint256","name":"marketId","type":"uint256"}],"name":"getMarketSupporters","outputs":[{"internalType":"address[]","name":"","type":"address[]"}],"stateMutability":"view","type":"function"},{"inputs":[],"name":"getMarketsReadyForRemoval","outputs":[{"internalType":"uint256[]","name":"","type":"uint256[]"}],"stateMutability":"view","type":"function"},{"inputs":[],"name":"getNextMarketId","outputs":[{"internalType":"uint256","name":"","type":"uint256"}],"stateMutability":"view","type":"function"},{"inputs":[{"internalType":"uint256","name":"marketId","type":"uint256"},{"internalType":"uint256","name":"option","type":"uint256"},{"internalType":"address","name":"token","type":"address"}],"name":"getOptionPool","outputs":[{"internalType":"uint256","name":"","type":"uint256"}],"stateMutability":"view","type":"function"},{"inputs":[],"name":"getPermanentlyRemovedMarkets","outputs":[{"internalType":"uint256[]","name":"","type":"uint256[]"}],"stateMutability":"view","type":"function"},{"inputs":[{"internalType":"uint256","name":"marketId","type":"uint256"}],"name":"getStakerCount","outputs":[{"internalType":"uint256","name":"","type":"uint256"}],"stateMutability":"view","type":"function"},{"inputs":[{"internalType":"uint256","name":"marketId","type":"uint256"},{"internalType":"address","name":"token","type":"address"}],"name":"getSupportPool","outputs":[{"internalType":"uint256","name":"","type":"uint256"}],"stateMutability":"view","type":"function"},{"inputs":[],"name":"getSupportedTokenCount","outputs":[{"internalType":"uint256","name":"","type":"uint256"}],"stateMutability":"view","type":"function"},{"inputs":[],"name":"getSupportedTokens","outputs":[{"internalType":"address[]","name":"tokens","type":"address[]"},{"internalType":"string[]","name":"symbols","type":"string[]"}],"stateMutability":"view","type":"function"},{"inputs":[{"internalType":"uint256","name":"marketId","type":"uint256"}],"name":"getSupporterCount","outputs":[{"internalType":"uint256","name":"","type":"uint256"}],"stateMutability":"view","type":"function"},{"inputs":[{"internalType":"uint256","name":"marketId","type":"uint256"},{"internalType":"address","name":"token","type":"address"}],"name":"getTotalPool","outputs":[{"internalType":"uint256","name":"","type":"uint256"}],"stateMutability":"view","type":"function"},{"inputs":[{"internalType":"address","name":"user","type":"address"}],"name":"getUserMarketHistory","outputs":[{"internalType":"uint256[]","name":"","type":"uint256[]"}],"stateMutability":"view","type":"function"},{"inputs":[{"internalType":"uint256","name":"marketId","type":"uint256"},{"internalType":"address","name":"user","type":"address"},{"internalType":"address","name":"token","type":"address"}],"name":"getUserStake","outputs":[{"internalType":"uint256","name":"","type":"uint256"}],"stateMutability":"view","type":"function"},{"inputs":[{"internalType":"uint256","name":"marketId","type":"uint256"},{"internalType":"address","name":"user","type":"address"},{"internalType":"address","name":"token","type":"address"}],"name":"getUserSupport","outputs":[{"internalType":"uint256","name":"","type":"uint256"}],"stateMutability":"view","type":"function"},{"inputs":[{"internalType":"uint256","name":"","type":"uint256"}],"name":"isActiveMarket","outputs":[{"internalType":"bool","name":"","type":"bool"}],"stateMutability":"view","type":"function"},{"inputs":[{"internalType":"uint256","name":"marketId","type":"uint256"}],"name":"isMarketActive","outputs":[{"internalType":"bool","name":"","type":"bool"}],"stateMutability":"view","type":"function"},{"inputs":[{"internalType":"address","name":"wallet","type":"address"}],"name":"isWalletBlacklisted","outputs":[{"internalType":"bool","name":"","type":"bool"}],"stateMutability":"view","type":"function"},{"inputs":[],"name":"marketCreationFee","outputs":[{"internalType":"uint256","name":"","type":"uint256"}],"stateMutability":"view","type":"function"},{"inputs":[{"internalType":"uint256","name":"","type":"uint256"},{"internalType":"uint256","name":"","type":"uint256"}],"name":"marketStakers","outputs":[{"internalType":"address","name":"","type":"address"}],"stateMutability":"view","type":"function"},{"inputs":[{"internalType":"uint256","name":"","type":"uint256"},{"internalType":"uint256","name":"","type":"uint256"}],"name":"marketSupporters","outputs":[{"internalType":"address","name":"","type":"address"}],"stateMutability":"view","type":"function"},{"inputs":[{"internalType":"uint256","name":"","type":"uint256"}],"name":"markets","outputs":[{"internalType":"address","name":"creator","type":"address"},{"internalType":"string","name":"ipfsHash","type":"string"},{"internalType":"bool","name":"isMultiOption","type":"bool"},{"internalType":"uint256","name":"maxOptions","type":"uint256"},{"internalType":"address","name":"paymentToken","type":"address"},{"internalType":"uint256","name":"minStake","type":"uint256"},{"internalType":"uint256","name":"creatorDeposit","type":"uint256"},{"internalType":"uint256","name":"creatorOutcome","type":"uint256"},{"internalType":"uint256","name":"startTime","type":"uint256"},{"internalType":"uint256","name":"stakeEndTime","type":"uint256"},{"internalType":"uint256","name":"endTime","type":"uint256"},{"internalType":"uint256","name":"resolutionEndTime","type":"uint256"},{"internalType":"enum EventPool.MarketState","name":"state","type":"uint8"},{"internalType":"uint256","name":"winningOption","type":"uint256"},{"internalType":"bool","name":"isResolved","type":"bool"}],"stateMutability":"view","type":"function"},{"inputs":[],"name":"minMarketDurationMinutes","outputs":[{"internalType":"uint256","name":"","type":"uint256"}],"stateMutability":"view","type":"function"},{"inputs":[],"name":"nextMarketId","outputs":[{"internalType":"uint256","name":"","type":"uint256"}],"stateMutability":"view","type":"function"},{"inputs":[],"name":"owner","outputs":[{"internalType":"address","name":"","type":"address"}],"stateMutability":"view","type":"function"},{"inputs":[{"internalType":"uint256","name":"marketId","type":"uint256"}],"name":"permanentlyRemoveMarket","outputs":[],"stateMutability":"nonpayable","type":"function"},{"inputs":[{"internalType":"uint256","name":"","type":"uint256"}],"name":"permanentlyRemovedMarkets","outputs":[{"internalType":"uint256","name":"","type":"uint256"}],"stateMutability":"view","type":"function"},{"inputs":[{"internalType":"uint256","name":"marketId","type":"uint256"},{"internalType":"uint256","name":"option","type":"uint256"}],"name":"placeStake","outputs":[],"stateMutability":"payable","type":"function"},{"inputs":[{"internalType":"uint256","name":"marketId","type":"uint256"},{"internalType":"uint256","name":"option","type":"uint256"},{"internalType":"uint256","name":"amount","type":"uint256"}],"name":"placeStakeWithToken","outputs":[],"stateMutability":"nonpayable","type":"function"},{"inputs":[{"internalType":"address","name":"token","type":"address"}],"name":"removeSupportedToken","outputs":[],"stateMutability":"nonpayable","type":"function"},{"inputs":[],"name":"renounceOwnership","outputs":[],"stateMutability":"nonpayable","type":"function"},{"inputs":[{"internalType":"uint256","name":"marketId","type":"uint256"},{"internalType":"uint256","name":"_winningOption","type":"uint256"}],"name":"resolveMarket","outputs":[],"stateMutability":"nonpayable","type":"function"},{"inputs":[{"internalType":"address","name":"_analytics","type":"address"}],"name":"setAnalytics","outputs":[],"stateMutability":"nonpayable","type":"function"},{"inputs":[{"internalType":"bool","name":"_enabled","type":"bool"},{"internalType":"uint256","name":"_restrictionMinutes","type":"uint256"}],"name":"setBettingRestriction","outputs":[],"stateMutability":"nonpayable","type":"function"},{"inputs":[{"internalType":"uint256","name":"_marketCreationFee","type":"uint256"}],"name":"setMarketCreationFee","outputs":[],"stateMutability":"nonpayable","type":"function"},{"inputs":[{"internalType":"uint256","name":"_minMarketDurationMinutes","type":"uint256"}],"name":"setMinMarketDuration","outputs":[],"stateMutability":"nonpayable","type":"function"},{"inputs":[{"internalType":"address","name":"_verification","type":"address"}],"name":"setVerification","outputs":[],"stateMutability":"nonpayable","type":"function"},{"inputs":[{"internalType":"address","name":"wallet","type":"address"},{"internalType":"bool","name":"blacklisted","type":"bool"}],"name":"setWalletBlacklist","outputs":[],"stateMutability":"nonpayable","type":"function"},{"inputs":[{"internalType":"uint256","name":"marketId","type":"uint256"},{"internalType":"uint256","name":"amount","type":"uint256"}],"name":"supportMarket","outputs":[],"stateMutability":"payable","type":"function"},{"inputs":[{"internalType":"uint256","name":"","type":"uint256"}],"name":"supportedTokenList","outputs":[{"internalType":"address","name":"","type":"address"}],"stateMutability":"view","type":"function"},{"inputs":[{"internalType":"address","name":"","type":"address"}],"name":"supportedTokens","outputs":[{"internalType":"bool","name":"","type":"bool"}],"stateMutability":"view","type":"function"},{"inputs":[{"internalType":"address","name":"","type":"address"}],"name":"tokenSymbols","outputs":[{"internalType":"string","name":"","type":"string"}],"stateMutability":"view","type":"function"},{"inputs":[{"internalType":"address","name":"newOwner","type":"address"}],"name":"transferOwnership","outputs":[],"stateMutability":"nonpayable","type":"function"},{"inputs":[],"name":"treasury","outputs":[{"internalType":"address payable","name":"","type":"address"}],"stateMutability":"view","type":"function"},{"inputs":[{"internalType":"uint256","name":"","type":"uint256"},{"internalType":"address","name":"","type":"address"}],"name":"userHasStaked","outputs":[{"internalType":"bool","name":"","type":"bool"}],"stateMutability":"view","type":"function"},{"inputs":[{"internalType":"uint256","name":"","type":"uint256"},{"internalType":"address","name":"","type":"address"}],"name":"userHasSupported","outputs":[{"internalType":"bool","name":"","type":"bool"}],"stateMutability":"view","type":"function"},{"inputs":[{"internalType":"address","name":"","type":"address"},{"internalType":"uint256","name":"","type":"uint256"}],"name":"userMarketHistory","outputs":[{"internalType":"uint256","name":"","type":"uint256"}],"stateMutability":"view","type":"function"},{"inputs":[{"internalType":"uint256","name":"","type":"uint256"},{"internalType":"address","name":"","type":"address"}],"name":"userStakeOptions","outputs":[{"internalType":"uint256","name":"","type":"uint256"}],"stateMutability":"view","type":"function"},{"inputs":[],"name":"verification","outputs":[{"internalType":"address","name":"","type":"address"}],"stateMutability":"view","type":"function"},{"inputs":[{"internalType":"uint256","name":"marketId","type":"uint256"}],"name":"withdrawSupport","outputs":[],"stateMutability":"nonpayable","type":"function"},{"stateMutability":"payable","type":"receive"}],"evm":{"bytecode":{"linkReferences":{},"object":"6080346200023457601f620063f338819003918201601f1916830191906001600160401b0383118484101762000239578160a09285926040958652833981010312620002345762000050826200024f565b6020838101519192916001600160a01b03908181169081900362000234576200007b8487016200024f565b938260806200008d60608a016200024f565b98015196169586156200021c57600080546001600160a01b03198082168a17835584519a9099929692909183167f8be0079c531659141344cd1fd0a4f28419497f9722a3daafe3b4186f6b6457e08880a38160019889600f55600560115560ff1996876012541660125560056013558b600c541617600c551689600d541617600d551687600e541617600e556010558280526008845280832080548681811c9116801562000211575b86821014620001fd579081601f88949311620001d1575b506008635045505560e01b01905583805260078552832080549092161790556009549268010000000000000000841015620001bd57830180600955831015620001a95760098152200190815416905561618e9081620002658239f35b634e487b7160e01b81526032600452602490fd5b634e487b7160e01b82526041600452602482fd5b818652601f878720910160051c8101905b818110620001f157506200014d565b868155889401620001e2565b634e487b7160e01b85526022600452602485fd5b90607f169062000136565b8151631e4fbdf760e01b815260006004820152602490fd5b600080fd5b634e487b7160e01b600052604160045260246000fd5b51906001600160a01b0382168203620002345756fe6080604052600436101561001b575b361561001957600080fd5b005b6000803560e01c806307adc1911461482f5780630ccf4467146148055780630d64cdbd146147d65780631356af02146145c0578063157bdcce146146fb57806317916e01146146dd578063256ba74114614648578063287f57b5146145ff5780632b5ba3b9146145c05780632b60c822146145955780632b8aa3ad1461451b5780632ef1bdfa146144fd578063304bf1f1146144b457806333d6b46e146144415780633adfe6d0146144165780633bbab179146143b45780633e32a76c1461412e5780633ec7919314613e1f578063406ef2ef14613e015780634584369514613d835780634f44289d14613d3a5780634ffe2a8b14613d115780635104996914613bab5780635a1d027714613b8d5780635b7baf64146137e85780635da3247a146137ca57806360557333146137b257806361d027b314613789578063638b022c14612c2f57806365ebce5514612bb9578063677bd9ff146127dc57806368c4ac261461279d5780636d822220146127395780636f59359e146126cb578063715018a614612683578063720138e8146123c357806374c350eb1461237e57806376319190146122365780637c16cd9e1461217257806380d5ac8a1461214957806381b17d2914612109578063847cf782146120c557806387fea11014612043578063881df9e11461201857806388d3cc4814611ff55780638da5cb5b14611fce578063971f8bb114611f8957806398a1767114611f335780639f37022a14611f10578063a30a091414611ee6578063a5e973c314611e64578063a7a8c35914611e39578063ad8e42ff14611e0f578063b1138b5014611c36578063b1283e7714611b32578063b85ed63614611aa8578063baa9c4ac14611a8a578063c22c62c314611a58578063c3436e0c14611908578063c8a843b7146117fd578063ce67be26146117df578063d3c7c2c71461166a578063d5f827071461161f578063d8c5dd67146115d8578063db62c6de146113e3578063dc4ce34914611390578063e78d0117146112e9578063eb44fdd3146111e1578063f00fe3211461113e578063f15cc40614610e2f578063f1b7dde314610b77578063f204072f14610808578063f2fde38b14610792578063f48675911461045c578063f849f69e146103e9578063fb0b2b36146103965763fe53a6e814610376575061000e565b346103935780600319360112610393576020600f54604051908152f35b80fd5b5034610393576020366003190112610393576103e5906103d1906040906001600160a01b036103c3614a30565b168152600860205220614df5565b604051918291602083526020830190614ba3565b0390f35b5034610393576020366003190112610393576004358152601560205260ff60408220541680610420575b6020906040519015158152f35b50600160205260ff600c60408320015416906005821015610448575060046020911415610413565b634e487b7160e01b81526021600452602490fd5b5061046636614d96565b908083526020600181526040842060ff600c82015416600581101561077e5761048f90156151b5565b60ff60125416610735575b83151580610727575b6104ac90615295565b6004810180546001600160a01b03929083166106ce5760056104d29101543410156152e1565b858080803486600c54165af16104e6614ffe565b501561067257908591848352600284526040832033600052845260ff6040600020541615610645575b84835260028452604083203360005284526040600020600160ff198254161790558483526004845260408320336000528452856040600020558180600c541691541690803b15610613576040516395f4109560e01b81529184918391829084908290610584908d903490338f6004870161508e565b03925af190811561063a578391610626575b5050600e5416806105c6575b5050604051928352349083015260008051602061611983398151915260403393a380f35b803b156106225781604051809263c228038d60e01b82528183816105f0348c338d600486016150d7565b03925af1801561061757156105a25761060890614cc7565b6106135783386105a2565b8380fd5b6040513d84823e3d90fd5b5080fd5b61062f90614cc7565b610622578138610596565b6040513d85823e3d90fd5b848352600584526106593360408520615326565b3383526016845261066d8560408520614fdb565b61050f565b60405162461bcd60e51b815260048101849052602e60248201527f4d61726b65744d616e616765723a20455448207472616e7366657220746f205460448201526d1c99585cdd5c9e4819985a5b195960921b6064820152608490fd5b60405162461bcd60e51b815260048101859052603d602482015260008051602061603983398151915260448201527f746f6b656e732c2075736520706c61636542657457697468546f6b656e0000006064820152608490fd5b5060038101548411156104a3565b600981015460135490603c820291808304603c149015171561076a576107659161075e91615200565b421061520d565b61049a565b634e487b7160e01b87526011600452602487fd5b634e487b7160e01b86526021600452602486fd5b5034610393576020366003190112610393576107ac614a30565b6107b4614e9b565b6001600160a01b039081169081156107ef576000548260018060a01b0319821617600055166000805160206160b9833981519152600080a380f35b604051631e4fbdf760e01b815260048101849052602490fd5b5061081236614d96565b908083526020600181526040842060ff600c82015416600581101561077e5761083b90156151b5565b6009810154421015610b2657600490338652600a835261086260ff60408820541615614ec7565b61086d851515615349565b0180546001600160a01b039190821680610aa35750843403610a5257610894341515615349565b858080803486600c54165af16108a8614ffe565b50156109f6579085915b848352600384526040832033600052845260ff60406000205416156109dd575b84835260038452604083203360005284526040600020600160ff198254161790558180600c541691541690803b156106135786849161092b938360405180968195829463c15d980760e01b84528d3390600486016153b2565b03925af190811561063a5783916109c9575b5050600e541680610979575b50507fc02bbaff19bde22745e7227aeb31741efd4bf98ebb8b48ac49dd40833fac6756906040519384523393a380f35b803b1561062257818091606460405180948193638f46a5a160e01b83528960048401523360248401528a60448401525af180156106175715610949576109be90614cc7565b610613578338610949565b6109d290614cc7565b61062257813861093d565b848352600684526109f13360408520615326565b6108d2565b60405162461bcd60e51b815260048101849052602e60248201527f4d61726b65744d616e616765723a20455448207472616e7366657220746f207460448201526d1c99585cdd5c9e4819985a5b195960921b6064820152608490fd5b60405162461bcd60e51b815260048101849052602360248201527f4d61726b65744d616e616765723a20496e636f72726563742045544820616d6f6044820152621d5b9d60ea1b6064820152608490fd5b34610ac25790610abd8684938995600c541690339061511d565b6108b2565b60405162461bcd60e51b815260048101859052603660248201527f4d61726b65744d616e616765723a204e6f204554482073686f756c64206265206044820152751cd95b9d08199bdc881d1bdad95b881cdd5c1c1bdc9d60521b6064820152608490fd5b60405162461bcd60e51b815260048101839052602360248201527f4d61726b65744d616e616765723a20537570706f727420706572696f6420656e60448201526219195960ea1b6064820152608490fd5b503461039357606036600319011261039357600435602435906044358184526020600181526040852060ff600c820154166005811015610e1b57610bbb90156151b5565b60ff60125416610dd9575b84151580610dcb575b610bd890615295565b6004810180546001600160a01b0392908316908115610d7d578589949392610c096005610c169401548310156152e1565b84600c541690339061511d565b858352600284526040832033600052845260ff6040600020541615610d50575b85835260028452604083203360005284526040600020600160ff198254161790558583526004845260408320336000528452866040600020558180600c541691541690803b15610613578584918993838a610ca9604051978896879586946395f4109560e01b865233906004870161508e565b03925af190811561063a578391610d3c575b5050600e541680610ce9575b505060405193845283015260008051602061611983398151915260403393a380f35b803b156106225760405163c228038d60e01b81529082908290818381610d158a8d338e600486016150d7565b03925af180156106175715610cc757610d2d90614cc7565b610d38578438610cc7565b8480fd5b610d4590614cc7565b610622578138610cbb565b85835260058452610d643360408520615326565b33835260168452610d788660408520614fdb565b610c36565b60405162461bcd60e51b81526004810186905260326024820152600080516020616039833981519152604482015271141154154b081d5cd9481c1b1858d950995d60721b6064820152608490fd5b506003810154851115610bcf565b600981015460135490603c820291808304603c1490151715610e0757610e029161075e91615200565b610bc6565b634e487b7160e01b88526011600452602488fd5b634e487b7160e01b87526021600452602487fd5b503461039357604036600319011261039357600435610e4c614a46565b9181815260209160018352604082209360ff600c86015416600581101561112a576002610e7991146157cd565b600d850154610e89811515615824565b828452600285526040842060018060a01b039384841691826000528752610eb760ff6040600020541661586f565b84600c5416946040516307c7a72d60e01b8152888180610edb8987600484016150be565b03818a5afa9081156110a35788916110dd575b50906004899a610f03610f249a9b94156158bb565b0154168095604051988992839263423e7bc160e11b84528660048501615434565b0381885afa9586156110655787966110ae575b5060405163dc4ce34960e01b815293888580610f5884888760048501615907565b0381895afa9485156110a3579089918996611070575b50610f9095966040518080988194633d1e7ba160e11b835287600484016150be565b03915afa938415611065578794611031575b5084610fb7575050505050505b604051908152f35b8693949596526004875260408320906000528652604060002054146000146110285761232891828102928184041490151715611014575061100f9291611004612710611009930484614f62565b615928565b90614f8b565b610faf565b634e487b7160e01b81526011600452602490fd5b92505050610faf565b9093508781813d831161105e575b6110498183614d11565b8101031261105957519238610fa2565b600080fd5b503d61103f565b6040513d89823e3d90fd5b8281939297503d831161109c575b6110888183614d11565b810103126110595751938890610f90610f6e565b503d61107e565b6040513d8a823e3d90fd5b9095508781813d83116110d6575b6110c68183614d11565b8101031261105957519438610f37565b503d6110bc565b90508881813d8311611123575b6110f48183614d11565b8101031261111f57906004899a610f03611112610f249b9c95615532565b939450509a999850610eee565b8780fd5b503d6110ea565b634e487b7160e01b84526021600452602484fd5b50346103935760403660031901126103935761118790602061115e614a46565b60018060a01b03600c54166040518080968194633d1e7ba160e11b8352600435600484016150be565b03915afa9081156111d557906111a3575b602090604051908152f35b506020813d82116111cd575b816111bc60209383614d11565b810103126110595760209051611198565b3d91506111af565b604051903d90823e3d90fd5b50346103935760203660031901126103935760406103e591611201615f76565b50600435815260016020522060ff600e6040519261121e84614cda565b80546001600160a01b03908116855261123960018301614df5565b60208601528360028301541615156040860152600382015460608601526004820154166080850152600581015460a0850152600681015460c0850152600781015460e085015260088101546101008501526009810154610120850152600a810154610140850152600b8101546101608501526112bf83600c830154166101808601614fa7565b600d8101546101a085015201541615156101c0820152604051918291602083526020830190614c06565b503461039357604036600319011261039357600435801515908181036110595760243591611315614e9b565b60ff80196012541691161760125561132b575080f35b80156113375760135580f35b60405162461bcd60e51b815260206004820152602b60248201527f4d61726b65744d616e616765723a20496e76616c69642072657374726963746960448201526a37b710323ab930ba34b7b760a91b6064820152608490fd5b503461039357606036600319011261039357604435906001600160a01b0380831683036110595761118792602091600c5416604051808096819463dc4ce34960e01b835260243560043560048501615907565b5034610393576040366003190112610393576113fd614a30565b611405614dac565b61140d614e9b565b6001600160a01b0382811691821561158557828552600a602052604085209061143b8160ff84541693614fca565b808061157d575b156114a7575050600b5492915050600160401b8210156114915761146f82600161148e9401600b55614ac2565b90919082549060031b9160018060a01b03809116831b921b1916179055565b80f35b634e487b7160e01b600052604160045260246000fd5b9091929350159081611575575b506114be57505080f35b825b600b80548083101561156d5783856114d785614ac2565b929054600393841b1c16146114f7575050506114f290614f98565b6114c0565b91945060001993919084810190811161076a579161146f9161151c6115289594614ac2565b9054911b1c1691614ac2565b8154801561155757019061155361153e83614ac2565b81549060018060a01b039060031b1b19169055565b5580f35b634e487b7160e01b600052603160045260246000fd5b505050505080f35b9050386114b4565b508115611442565b60405162461bcd60e51b815260206004820152602560248201527f4d61726b65744d616e616765723a20496e76616c69642077616c6c6574206164604482015264647265737360d81b6064820152608490fd5b50346103935760403660031901126103935760406115f4614a46565b9160043581526004602052209060018060a01b03166000526020526020604060002054604051908152f35b50346103935761162e36614d96565b919081526005602052604081209081548310156103935760206116518484614b13565b905460405160039290921b1c6001600160a01b03168152f35b503461039357806003193601126103935760095461168781615e04565b906116956040519283614d11565b808252601f1992836116a683615e04565b019360209436868601376116b983615e04565b926116c76040519485614d11565b808452816116d482615e04565b01835b8181106117d0575050825b81811061175b57505061170060405194604086526040860190614b66565b94848603818601528351918287528187019082808560051b8a0101960194975b84891061172d5787870388f35b9091929394958480611749838686600196030188528a51614ba3565b98019401980197919094939294611720565b8061176c6117c79298949598614a91565b90546001600160a01b039160039190821b1c821661178a848b615e1b565b5261179483614a91565b9054911b1c168852600884526117ac60408920614df5565b6117b68288615e1b565b526117c18187615e1b565b50614f98565b959291956116e2565b606086820189015287016116d7565b50346103935780600319360112610393576020600954604051908152f35b503461039357806003193601126103935760175461181a81615fe6565b8291835b81811061186b57505061183082615fe6565b925b82811061184757604051806103e58682614b2b565b806118556118669284615e1b565b516118608287615e1b565b52614f98565b611832565b61187481614af8565b90549060031b1c80865260206001815260ff600c6040892001541660058110156118f45760041490816118d1575b506118b7575b506118b290614f98565b61181e565b846118ca916118606118b2949787615e1b565b93906118a8565b6018915082885252604086205462278d00810180911161076a57421015386118a2565b634e487b7160e01b88526021600452602488fd5b50346103935760203660031901126103935760043580825260016020526040822080546001600160a01b03163303611a045760ff600c82015416600581101561112a5790611958600992156151b5565b015461a8bf1981019081116119f0574210156119a15760405161148e9161197e82614cf6565b601182527010dc99585d1bdc8818d85b98d95b1b1959607a1b6020830152615948565b60405162461bcd60e51b815260206004820152602160248201527f4d61726b65744d616e616765723a20546f6f206c61746520746f2063616e63656044820152601b60fa1b6064820152608490fd5b634e487b7160e01b83526011600452602483fd5b60405162461bcd60e51b815260206004820152602660248201527f4d61726b65744d616e616765723a204f6e6c792063726561746f722063616e2060448201526518d85b98d95b60d21b6064820152608490fd5b503461039357611a6736614d96565b919081526006602052604081209081548310156103935760206116518484614b13565b50346103935780600319360112610393576020601354604051908152f35b5034610393578060031936011261039357600f5460001990818101818111611b1e57611ad390615fe6565b9160015b828110611aec57604051806103e58682614b2b565b818101818111611b0a579080611860611b059387615e1b565b611ad7565b634e487b7160e01b86526011600452602486fd5b634e487b7160e01b84526011600452602484fd5b5034610393576020366003190112610393576004358152600160205260409020600160a01b60019003808254169160018101611b6d90614df5565b91600282015460ff16916003810154916004820154166005820154600683015460078401546008850154600986015491600a87015493600b88015495600c89015460ff1697600d8a015499600e015460ff169a6040519e8f9e8f9182526101e08060208401528201611bde91614ba3565b9d151560408201526060015260808d015260a08c015260c08b015260e08a01526101008901526101208801526101408701526101608601526101808501611c2491614be3565b6101a084015215156101c08301520390f35b5034610393576020366003190112610393576004359081815260016020526040812091600c830192835460ff8116946005861015611dfb57611c7e6001602495969714615454565b600e8301928354611c9260ff8216156154b1565b600d5460408051633313865560e21b8152600481018a9052976001600160a01b039692899190829089165afa968715611df05789908a98611dbc575b5015611d6b57889587600d6002950155600160ff1980941617905516179055611cf6846159ac565b600e541680611d1e575b505060206000805160206160d983398151915291604051908152a280f35b803b156106225781809160446040518094819362ff4a7360e81b83528960048401528860248401525af180156106175715611d0057611d5c90614cc7565b611d67578238611d00565b8280fd5b60405162461bcd60e51b8152602060048201526024808201527f4d61726b65744d616e616765723a204e6f207265736f6c7574696f6e2072656160448201526318da195960e21b6064820152608490fd5b9050611de191975060403d604011611de9575b611dd98183614d11565b81019061553f565b969038611cce565b503d611dcf565b6040513d8b823e3d90fd5b634e487b7160e01b85526021600452602485fd5b50346103935760203660031901126103935760406020916004358152601883522054604051908152f35b50346103935760203660031901126103935760043590600b5482101561039357602061165183614ac2565b5034610393578060031936011261039357604051601480548083529083526020808301937fce6d7b5282bd9a3661ae061feed1dbda4e52ab073b1f9285be6e155d9c38d4ec92915b828210611ecf576103e585611ec381890382614d11565b60405191829182614b2b565b835486529485019460019384019390910190611eac565b50346103935760203660031901126103935760406020916004358152600683522054604051908152f35b503461039357602036600319011261039357611f2a614e9b565b60043560105580f35b503461039357604036600319011261039357611f4d614a30565b6001600160a01b0316815260166020526040812080546024359290831015610393576020611f7b8484614b13565b90546040519160031b1c8152f35b503461039357602036600319011261039357611fa3614a30565b611fab614e9b565b600d80546001600160a01b0319166001600160a01b039290921691909117905580f35b5034610393578060031936011261039357546040516001600160a01b039091168152602090f35b5034610393578060031936011261039357602060ff601254166040519015158152f35b50346103935760203660031901126103935760043590601754821015610393576020611f7b83614af8565b503461039357602080600319360112610622576004358252600681526040822091604051809384918482549182815201918452848420935b858282106120a65750505061209292500383614d11565b6103e5604051928284938452830190614b66565b85546001600160a01b031684526001958601958895509301920161207b565b5034610393576111879060206120da36614a5c565b600c5460405163423e7bc160e11b81529687946001600160a01b03909216938593849390919060048501615434565b5034610393576020366003190112610393576004356019548110156106225760196000526000805160206161398339815191520154604051908152602090f35b5034610393578060031936011261039357600e546040516001600160a01b039091168152602090f35b5034610393576020366003190112610393576004358082526001602052604082209060ff600c83015416600581101561112a5760016121b19114615454565b600b82015442106121de576121d060ff600e61148e94015416156154b1565b6121d86154fd565b90615948565b60405162461bcd60e51b815260206004820152602a60248201527f4d61726b65744d616e616765723a205265736f6c7574696f6e20706572696f64604482015269081b9bdd08195b99195960b21b6064820152608490fd5b503461039357602036600319011261039357612250614a30565b612258614e9b565b6001600160a01b0390811690811561232757818352600760205261228260ff604085205416614f1d565b81835260076020526040832060ff19815416905560086020526122a760408420615dbb565b825b600980548083101561156d5783856122c085614a91565b929054600393841b1c16146122e0575050506122db90614f98565b6122a9565b91945060001993919084810190811161076a579161146f916123056123119594614a91565b9054911b1c1691614a91565b8154801561155757019061155361153e83614a91565b60405162461bcd60e51b815260206004820152602960248201527f4d61726b65744d616e616765723a2043616e6e6f742072656d6f7665206e617460448201526834bb32903a37b5b2b760b91b6064820152608490fd5b503461039357602036600319011261039357612398614a30565b6123a0614e9b565b600e80546001600160a01b0319166001600160a01b039290921691909117905580f35b5034610393576040366003190112610393576123dd614a30565b60246001600160401b038135818111610d38576123fe903690600401614d4f565b612406614e9b565b6001600160a01b038416918215612632578151156125e2578286526020926007845260ff60408820541661258f5786526007835260408620926001938460ff19825416179055600881526040872092805192831161257c5790829161246b8554614dbb565b601f8111612543575b5081601f84116001146124e0575088926124d5575b5050600019600383901b1c191690831b1790555b60095491600160401b8310156124c157508161146f9161148e949301600955614a91565b634e487b7160e01b60009081526041600452fd5b015190503880612489565b9190869450601f198416868b52838b20938b905b82821061252a5750508411612511575b505050811b01905561249d565b015160001960f88460031b161c19169055388080612504565b84840151865589979095019493840193908101906124f4565b61256c90868b52838b20601f860160051c810191858710612572575b601f0160051c0190614fb3565b38612474565b909150819061255f565b634e487b7160e01b885260416004528588fd5b60405162461bcd60e51b8152600481018590526026818701527f4d61726b65744d616e616765723a20546f6b656e20616c7265616479207375706044820152651c1bdc9d195960d21b6064820152608490fd5b60405162461bcd60e51b8152602060048201526023818601527f4d61726b65744d616e616765723a20496e76616c696420746f6b656e2073796d604482015262189bdb60ea1b6064820152608490fd5b60405162461bcd60e51b8152602060048201528085018590527f4d61726b65744d616e616765723a20496e76616c696420746f6b656e206164646044820152637265737360e01b6064820152608490fd5b503461039357806003193601126103935761269c614e9b565b600080546001600160a01b0319811682556001600160a01b03166000805160206160b98339815191528280a380f35b503461039357602080600319360112610622576004358252600581526040822091604051809384918482549182815201918452848420935b8582821061271a5750505061209292500383614d11565b85546001600160a01b0316845260019586019588955093019201612703565b50346103935780600319360112610393576040516019805480835290835260208083019360008051602061613983398151915292915b828210612786576103e585611ec381890382614d11565b83548652948501946001938401939091019061276f565b50346103935760203660031901126103935760209060ff906040906001600160a01b036127c8614a30565b168152600784522054166040519015158152f35b50346103935760209081600319360112610393576004359182825260018152604082209260ff600c85015416600581101561112a57600261281d91146157cd565b600d8401549161282e831515615824565b818452600281526040842033600052815261285060ff6040600020541661586f565b600c546040516307c7a72d60e01b81526001600160a01b0391821694919083818061287f3389600484016150be565b0381895afa8015611065578790612b7f575b61289c9150156158bb565b600487015416906040519063423e7bc160e11b82528382806128c386338a60048501615434565b0381895afa918215611065578792612b50575b506040519063dc4ce34960e01b988983528583806128f988868c60048501615907565b03818b5afa928315611df0578993612b21575b50889960036001920154915b82811115612a8a575050604051634f44289d60e01b8152899594939291508a878280612948898d600484016150be565b03818d5afa918215611065578792612a56575b509061296691614f8b565b90826129f3575050505081945b803b15611d67578583916129a09383604051809681958294632f0041ed60e11b8452338d600486016153b2565b03925af18015610617576129df575b50507f5380cf6fe903b40c6d5a9e0dfbca2f3a423f0a21520b4d5947ed5169bdba946d906040519384523393a380f35b6129e890614cc7565b6106135783856129af565b8786929394959652600487526040822033600052875260406000205414600014612a4a575061232890818102918183041490151715610e075791611009612a44926110046127108b97960484614f62565b94612973565b93925050508194612973565b88809298508193503d8311612a83575b612a708183614d11565b810103126110595751899561296661295b565b503d612a66565b838103612aa0575b612a9b90614f98565b612918565b9a612abf88888c8f8d604051958694859384938b855260048501615907565b03915afa908115612b16578c91612ae7575b50612adf90612a9b92614f8b565b9b9050612a92565b90508881813d8311612b0f575b612afe8183614d11565b810103126110595751612a9b612ad1565b503d612af4565b6040513d8e823e3d90fd5b9092508581813d8311612b49575b612b398183614d11565b810103126110595751913861290c565b503d612b2f565b9091508381813d8311612b78575b612b688183614d11565b81010312611059575190386128d6565b503d612b5e565b508381813d8311612bb2575b612b958183614d11565b81010312612bae57612ba961289c91615532565b612891565b8680fd5b503d612b8b565b5034610393578060031936011261039357604051601780548083529083526020808301937fc624b66cc0138b8fabc209247f72d758e1cf3343756d543badbf24212bed8c1592915b828210612c18576103e585611ec381890382614d11565b835486529485019460019384019390910190612c01565b50610120366003190112610393576004356001600160401b03811161062257612c5c903690600401614d4f565b90612c65614dac565b6064356001600160a01b038116900361105957338252600a602052612c9160ff60408420541615614ec7565b825115613745576002604435101580613738575b156136e857608435156136a45760a435156136505760c435151580613642575b156135ee5760115460e435106135a75760e435610104351061354557801561350b576064356001600160a01b0316156134a8576064356001600160a01b031682526007602052604082205460ff1615613459575b601054341061340357603c60e4350260e4358104603c1460e4351517156119f057612d449042614f8b565b91603c6101043502610104358104603c14610104351517156133ef57612d6a9042614f8b565b926202a300840184116133ef576202a300600f5494612d8886614f98565b600f5560405192612d9884614cda565b3384528760208501528515156040850152604435606085015260018060a01b0360643516608085015260843560a085015260a43560c085015260c43560e085015242610100850152610120840152806101408401520161016082015281610180820152816101a0820152816101c08201528382526001602052604082209060018060a01b0381511660018060a01b0319835416178255602081015180519060018060401b0382116133db578190612e526001860154614dbb565b601f81116133a8575b50602090601f831160011461333957869261332e575b50508160011b916000199060031b1c19161760018301555b612e9c6040820151151560028401614fca565b606081015160038301556004820160018060a01b0360808301511660018060a01b031982541617905560a0810151600583015560c0810151600683015560e0810151600783015561010081015160088301556101208101516009830155610140810151600a830155610160810151600b830155600c82016101808201516005811015611dfb57612f509392600e926101c09260ff801983541691161790556101a0810151600d850155015115159101614fca565b601454600160401b8110156114915783612f73826001612f8c9401601455614add565b90919082549060031b91821b91600019901b1916179055565b828152601560205260408120805460ff191660011790556064356001600160a01b031661329457601054612fc260a43582614f8b565b34106132625781808080612fea9460018060a01b038254165af1612fe4614ffe565b5061502e565b8080808060a43560018060a01b03600c54165af1613006614ffe565b50156131fa575b828152600260205260408120336000526020526040600020600160ff198254161790558281526004602052604081203360005260205260c43560406000205533815260166020526130618360408320614fdb565b600c546001600160a01b0316803b15610622576040516395f4109560e01b815290829082908183816130a060c43560a435606435338e6004870161508e565b03925af18015610617579082916131e6575b5050600e546001600160a01b031680613139575b5050817fe47f69e204f188e4f9df6adc50c9cf0bd76c1cd85f34a8a3e8284064afb4fb826020946131026040519160a0835260a0830190614ba3565b9315158187015260443560408201526064356001600160a01b031660608201526084356080820152339381900390a3604051908152f35b803b156106225781604051809263782a780560e11b8252818381613161338b600484016150be565b03925af18015610617579082916131d2575b5050600e546001600160a01b0316803b156106225781604051809263c228038d60e01b82528183816131af60a43560c435338d600486016150d7565b03925af1801561061757156130c6576131c88291614cc7565b61039357806130c6565b6131db90614cc7565b610393578038613173565b6131ef90614cc7565b6103935780386130b2565b60405162461bcd60e51b815260206004820152603a60248201527f4d61726b65744d616e616765723a2043726561746f72206465706f73697420746044820152791c985b9cd9995c881d1bc8151c99585cdd5c9e4819985a5b195960321b6064820152608490fd5b606460405162461bcd60e51b815260206004820152602060248201526000805160206160f98339815191526044820152fd5b6010548034106132e157818080806132ba9460018060a01b038254165af1612fe4614ffe565b600c546132dc9060a435906001600160a01b039081169033906064351661511d565b61300d565b60405162461bcd60e51b815260206004820152603160248201526000805160206160f983398151915260448201527020666f72206372656174696f6e2066656560781b6064820152608490fd5b015190503880612e71565b9250600185018652602086209086935b601f198416851061338d576001945083601f19811610613374575b505050811b016001830155612e89565b015160001960f88460031b161c19169055388080613364565b81810151835560209485019460019093019290910190613349565b6133d59060018701885260208820601f850160051c8101916020861061257257601f0160051c0190614fb3565b38612e5b565b634e487b7160e01b85526041600452602485fd5b634e487b7160e01b82526011600452602482fd5b60405162461bcd60e51b815260206004820152602860248201527f4d61726b65744d616e616765723a20496e73756666696369656e74206372656160448201526774696f6e2066656560c01b6064820152608490fd5b60405162461bcd60e51b8152602060048201526033602482015260008051602061605983398151915260448201527232b2103337b91036bab63a3496b7b83a34b7b760691b6064820152608490fd5b60405162461bcd60e51b815260206004820152603560248201527f4d61726b65744d616e616765723a204d756c74692d6f7074696f6e206d61726b60448201527432ba39903932b8bab4b93290281928103a37b5b2b760591b6064820152608490fd5b6064356001600160a01b031615612d19576064356001600160a01b03168252600760205260408220546135409060ff16614f1d565b612d19565b60405162461bcd60e51b815260206004820152603460248201527f4d61726b65744d616e616765723a205265736f6c7574696f6e206d7573742062604482015273194818599d195c881cdd185ad9481c195c9a5bd960621b6064820152608490fd5b60405162461bcd60e51b815260206004820152602b602482015260008051602061609983398151915260448201526a35b290323ab930ba34b7b760a91b6064820152608490fd5b60405162461bcd60e51b815260206004820152602660248201527f4d61726b65744d616e616765723a20496e76616c69642063726561746f72206f6044820152657574636f6d6560d01b6064820152608490fd5b5060443560c4351115612cc5565b60405162461bcd60e51b815260206004820152602660248201527f4d61726b65744d616e616765723a20496e76616c69642063726561746f722064604482015265195c1bdcda5d60d21b6064820152608490fd5b606460405162461bcd60e51b815260206004820152602060248201527f4d61726b65744d616e616765723a20496e76616c6964206d696e207374616b656044820152fd5b60405162461bcd60e51b815260206004820152602260248201527f4d61726b65744d616e616765723a20496e76616c6964206d6178206f7074696f6044820152616e7360f01b6064820152608490fd5b50600a6044351115612ca5565b606460405162461bcd60e51b815260206004820152602060248201527f4d61726b65744d616e616765723a20496e76616c6964204950465320686173686044820152fd5b5034610393578060031936011261039357600c546040516001600160a01b039091168152602090f35b50346103935761148e6137c436614d96565b9061555c565b50346103935780600319360112610393576020601454604051908152f35b5034610393576020806003193601126106225760043580835260018252604083209160ff600c840154166005811015611dfb57600303613b3d57818452600281526040842033600052815260ff604060002054168015613b1d575b15613acf578392828552600282526040852033600052825260ff60406000205416613a29575b828552600382526040852033600052825260ff60406000205416613976575b831561392657600c5460049091015485916001600160a01b039182169116803b15611d67578583916138d3938360405180968195829463164fcd7d60e21b8452338d600486016153b2565b03925af1801561061757613912575b50507ff3f402280ef0a7905e124aa621b65eaeb2725c343e8b36d398ed78c29daf285c906040519384523393a380f35b61391b90614cc7565b6106135783386138e2565b60405162461bcd60e51b815260048101839052602260248201527f4d61726b65744d616e616765723a204e6f20726566756e6420617661696c61626044820152616c6560f01b6064820152608490fd5b926139ad908260018060a01b0380600c54169060048801541690604051808096819463256ba74160e01b8352338b60048501615434565b03915afa908115613a1e5786916139ed575b6139c99250614f8b565b928285526003825260408520336000528252604060002060ff198154169055613888565b90508282813d8311613a17575b613a048183614d11565b81010312611059576139c99151906139bf565b503d6139fa565b6040513d88823e3d90fd5b9250613a608160018060a01b0380600c54169060048701541690604051808095819463423e7bc160e11b8352338a60048501615434565b03915afa908115613ac4578591613a97575b50928285526002825260408520336000528252604060002060ff198154169055613869565b90508181813d8311613abd575b613aae8183614d11565b81010312611059575138613a72565b503d613aa4565b6040513d87823e3d90fd5b6084906040519062461bcd60e51b82526004820152602160248201527f4d61726b65744d616e616765723a204e6f207374616b6520746f20726566756e6044820152601960fa1b6064820152fd5b50818452600381526040842033600052815260ff60406000205416613843565b6084906040519062461bcd60e51b82526004820152602360248201527f4d61726b65744d616e616765723a204d61726b6574206e6f742063616e63656c6044820152621b195960ea1b6064820152fd5b50346103935780600319360112610393576020600b54604051908152f35b5034610393576040366003190112610393576004356024356001600160401b038111611d6757613bdf903690600401614d4f565b613be7614e9b565b613bf4600f548310615e2f565b81835260209060018252613c1560018060a01b036040862054161515615e7a565b8284526001825260ff600c604086200154166005811015611dfb57600414613ccc57828452600182526040808520600c01805460ff1916600417905583855260188352842042905560175491600160401b83101561149157613c9084612f738560016000805160206160198339815191529701601755614af8565b8385526015815260ff604086205416613cbe575b613cb8604051928284938452830190614ba3565b0390a280f35b613cc784615ed2565b613ca4565b60405162461bcd60e51b815260048101839052601e60248201527f4d61726b65744d616e616765723a20416c72656164792064656c6574656400006044820152606490fd5b5034610393578060031936011261039357600d546040516001600160a01b039091168152602090f35b503461039357604036600319011261039357611187906020613d5a614a46565b60018060a01b03600c54166040518080968194634f44289d60e01b8352600435600484016150be565b503461039357602036600319011261039357600435613da0614e9b565b8015613dac5760115580f35b60405162461bcd60e51b815260206004820152602760248201527f4d61726b65744d616e616765723a20496e76616c6964206d696e696d756d20646044820152663ab930ba34b7b760c91b6064820152608490fd5b50346103935780600319360112610393576020600f54604051908152f35b50346103935760208060031936011261062257613f4460043591613e41615f76565b50828452600190818152604085209360405195613e5d87614cda565b85546001600160a01b039081168852613e77858801614df5565b8489015260ff6002880154161515604089015260038701546060890152806004880154169160808901928352600588015460a08a0152600688015460c08a0152600788015460e08a015260ff600e60088a0154996101009a8b8d015260098101546101208d0152600a8101546101408d0152600b8101546101608d0152613f098c61018085600c850154169101614fa7565b600d8101546101a08d015201541615156101c08a015281600c54168583855116604051809a8192633d1e7ba160e11b835289600484016150be565b0381845afa9788156106175782986140fd575b509085613f7f9284865116906040518080968194634f44289d60e01b83528b600484016150be565b03915afa9182156140f05781926140c1575b5084815260058652604081205492600687526040822054946005885260408320968960405180998a918c825491828152019188528c8089209489915b8383106140a85750505050613fe492500389614d11565b83526006885260408320604051809a8a835492838152019286528a862091865b8181106140935750505050604061407797946140859a97948c9a97946140336103e59f9e61404196038d614d11565b511681526008885220614df5565b986140576040519d8d8f9e8f9081520190614c06565b958c015260408b015260608a0152608089015287820360a0890152614b66565b9085820360c0870152614b66565b9083820360e0850152614ba3565b835487168552938c0193928201928201614004565b86548a168552958101958e955090930192018e8e613fcd565b9091508581813d83116140e9575b6140d98183614d11565b8101031261105957519038613f91565b503d6140cf565b50604051903d90823e3d90fd5b919097508582813d8311614127575b6141168183614d11565b810103126110595790519685613f57565b503d61410c565b503461039357602080600319360112610622576004358083526001825260408320916003815260408420338552815261416d60ff6040862054166153da565b60ff600c840154166005811015611dfb57806143355750600983015461a8bf198101908111614321574210156142b7575b60018060a01b03600481600c54169401541692846040519463256ba74160e01b86528386806141d284338a60048501615434565b0381865afa958615610617578296614288575b506141f18615156153da565b823b156106225761421d928691836040518096819582946317be0b2f60e11b8452338c600486016153b2565b03925af18015613ac457614267575b50600080516020616079833981519152908285526003815260408520336000528152604060002060ff1981541690556040519384523393a380f35b936142816000805160206160798339815191529295614cc7565b939061422c565b9095508381813d83116142b0575b6142a08183614d11565b81010312610622575194386141e5565b503d614296565b6084906040519062461bcd60e51b82526004820152603d60248201527f4d61726b65744d616e616765723a2043616e6e6f74207769746864726177207760448201527f697468696e20313220686f757273206f66207374616b696e6720656e640000006064820152fd5b634e487b7160e01b85526011600452602485fd5b600481149081156143a9575b5061419e576084906040519062461bcd60e51b82526004820152603660248201527f4d61726b65744d616e616765723a2043616e6e6f7420776974686472617720696044820152756e2063757272656e74206d61726b657420737461746560501b6064820152fd5b600391501438614341565b5034610393578060031936011261039357604051809182600b54808452602080940190600b8452848420935b858282106143f75750505061209292500383614d11565b85546001600160a01b03168452600195860195889550930192016143e0565b50346103935760203660031901126103935760043590601454821015610393576020611f7b83614add565b503461039357602080600319360112610622576001600160a01b03614464614a30565b1682526016815260408220916040518092808554928381520194835280832092905b82821061449d576103e585611ec381890382614d11565b835486529485019460019384019390910190614486565b50346103935760403660031901126103935760ff60406020926144d5614a46565b6004358252600285528282206001600160a01b03909116825284522054604051911615158152f35b50346103935780600319360112610393576020601054604051908152f35b503461039357602036600319011261039357600435600b5481101561454557611651602091614ac2565b60405162461bcd60e51b815260206004820152602260248201527f4d61726b65744d616e616765723a20496e646578206f7574206f6620626f756e604482015261647360f01b6064820152608490fd5b5034610393576020366003190112610393576004359060095482101561039357602061165183614a91565b50346103935760203660031901126103935760209060ff906040906001600160a01b036145eb614a30565b168152600a84522054166040519015158152f35b50346103935760403660031901126103935760ff6040602092614620614a46565b6004358252600385528282206001600160a01b03909116825284522054604051911615158152f35b50346103935761468b602061465c36614a5c565b600c5460405163256ba74160e01b81529586946001600160a01b03909216938593849390919060048501615434565b03915afa9081156106175782916146a8575b602082604051908152f35b90506020813d82116146d5575b816146c260209383614d11565b810103126106225760209150513861469d565b3d91506146b5565b50346103935780600319360112610393576020601154604051908152f35b503461039357602036600319011261039357600435808252600160205260408220600c81019081549060ff8216600581101561077e579061473e600a92156151b5565b015480421061477e577e0b6feae4bec70344a7d0e99f4c0237adaaeee2fbb258266be400bd8612a33292600160209360ff1916179055604051908152a280f35b60405162461bcd60e51b815260206004820152602a60248201527f4d61726b65744d616e616765723a205265736f6c7574696f6e2074696d65206e6044820152691bdd081c995858da195960b21b6064820152608490fd5b50346103935760203660031901126103935760ff60406020926004358152601584522054166040519015158152f35b50346103935760203660031901126103935760406020916004358152600583522054604051908152f35b503461039357602080600319360112610622576004359061484e614e9b565b61485b600f548310615e2f565b8183526001808252604084205461487c906001600160a01b03161515615e7a565b82845280825260ff600c604086200154166005811015611dfb5760026148a291146157cd565b828452808252600b60408520015462278d0081018091116143215742106149dd5782845280825283600e604082208281556148de848201615dbb565b82600282015582600382015582600482015582600582015582600682015582600782015582600882015582600982015582600a82015582600b82015582600c82015582600d82015501558284526015825260ff6040852054166149cf575b60195490600160401b8210156133db578101806019558110156149bb5760008051602061601983398151915291836080926019875282872001556026604051918083528201527f5065726d616e656e746c792072656d6f76656420616674657220636c61696d206040820152651c195c9a5bd960d21b6060820152a280f35b634e487b7160e01b84526032600452602484fd5b6149d883615ed2565b61493c565b60405162461bcd60e51b815260048101839052602560248201527f4d61726b65744d616e616765723a20436c61696d20706572696f64206e6f7420604482015264195b99195960da1b6064820152608490fd5b600435906001600160a01b038216820361105957565b602435906001600160a01b038216820361105957565b606090600319011261105957600435906001600160a01b03906024358281168103611059579160443590811681036110595790565b600954811015614aac57600960005260206000200190600090565b634e487b7160e01b600052603260045260246000fd5b600b54811015614aac57600b60005260206000200190600090565b601454811015614aac57601460005260206000200190600090565b601754811015614aac57601760005260206000200190600090565b8054821015614aac5760005260206000200190600090565b6020908160408183019282815285518094520193019160005b828110614b52575050505090565b835185529381019392810192600101614b44565b90815180825260208080930193019160005b828110614b86575050505090565b83516001600160a01b031685529381019392810192600101614b78565b919082519283825260005b848110614bcf575050826000602080949584010152601f8019910116010190565b602081830181015184830182015201614bae565b906005821015614bf05752565b634e487b7160e01b600052602160045260246000fd5b9060018060a01b0391828151168252614c2e60208201516101e0806020860152840190614ba3565b9260408201511515604084015260608201516060840152608082015116608083015260a081015160a083015260c081015160c083015260e081015160e08301526101008082015190830152610120808201519083015261014080820151908301526101608082015190830152614cad6101808083015190840190614be3565b6101a080820151908301526101c080910151151591015290565b6001600160401b03811161149157604052565b6101e081019081106001600160401b0382111761149157604052565b604081019081106001600160401b0382111761149157604052565b601f909101601f19168101906001600160401b0382119082101761149157604052565b6001600160401b03811161149157601f01601f191660200190565b81601f8201121561105957803590614d6682614d34565b92614d746040519485614d11565b8284526020838301011161105957816000926020809301838601378301015290565b6040906003190112611059576004359060243590565b60243590811515820361105957565b90600182811c92168015614deb575b6020831014614dd557565b634e487b7160e01b600052602260045260246000fd5b91607f1691614dca565b9060405191826000825492614e0984614dbb565b908184526001948581169081600014614e785750600114614e35575b5050614e3392500383614d11565b565b9093915060005260209081600020936000915b818310614e60575050614e3393508201013880614e25565b85548884018501529485019487945091830191614e48565b915050614e3394506020925060ff191682840152151560051b8201013880614e25565b6000546001600160a01b03163303614eaf57565b60405163118cdaa760e01b8152336004820152602490fd5b15614ece57565b60405162461bcd60e51b815260206004820152602160248201527f4d61726b65744d616e616765723a2057616c6c657420626c61636b6c697374656044820152601960fa1b6064820152608490fd5b15614f2457565b60405162461bcd60e51b81526020600482015260226024820152600080516020616059833981519152604482015261195960f21b6064820152608490fd5b81810292918115918404141715614f7557565b634e487b7160e01b600052601160045260246000fd5b91908201809211614f7557565b6000198114614f755760010190565b6005821015614bf05752565b818110614fbe575050565b60008155600101614fb3565b9060ff801983541691151516179055565b80549190600160401b8310156114915782612f73916001614e3395018155614b13565b3d15615029573d9061500f82614d34565b9161501d6040519384614d11565b82523d6000602084013e565b606090565b1561503557565b60405162461bcd60e51b815260206004820152602b60248201527f4d61726b65744d616e616765723a20466565207472616e7366657220746f206f60448201526a1ddb995c8819985a5b195960aa1b6064820152608490fd5b9081526001600160a01b039182166020820152911660408201526060810191909152608081019190915260a00190565b9081526001600160a01b03909116602082015260400190565b909493926060926080830196835260018060a01b0316602083015260408201520152565b6001600160a01b03918216815291166020820152604081019190915260600190565b9290600091615156602094615148604051938492888401966323b872dd60e01b8852602485016150fb565b03601f198101835282614d11565b519082855af1156151a9576000513d6151a057506001600160a01b0381163b155b61517e5750565b604051635274afe760e01b81526001600160a01b039091166004820152602490fd5b60011415615177565b6040513d6000823e3d90fd5b156151bc57565b606460405162461bcd60e51b815260206004820152602060248201527f4d61726b65744d616e616765723a204d61726b6574206e6f74206163746976656044820152fd5b91908203918211614f7557565b1561521457565b60405162461bcd60e51b815260206004820152604d60248201527f4d61726b65744d616e616765723a205374616b696e6720706572696f6420656e60448201527f646564202d206e6f207374616b657320616c6c6f77656420696e20726573747260648201526c1a58dd1a5bdb881c195c9a5bd9609a1b608482015260a490fd5b1561529c57565b60405162461bcd60e51b815260206004820152601d60248201527f4d61726b65744d616e616765723a20496e76616c6964206f7074696f6e0000006044820152606490fd5b156152e857565b60405162461bcd60e51b815260206004820152602260248201526000805160206160998339815191526044820152616b6560f01b6064820152608490fd5b80549190600160401b831015611491578261146f916001614e3395018155614b13565b1561535057565b60405162461bcd60e51b815260206004820152603460248201527f4d61726b65744d616e616765723a20537570706f727420616d6f756e74206d75604482015273073742062652067726561746572207468616e20360641b6064820152608490fd5b9081526001600160a01b03918216602082015291166040820152606081019190915260800190565b156153e157565b60405162461bcd60e51b815260206004820152602560248201527f4d61726b65744d616e616765723a204e6f20737570706f727420746f20776974604482015264686472617760d81b6064820152608490fd5b9081526001600160a01b0391821660208201529116604082015260600190565b1561545b57565b60405162461bcd60e51b815260206004820152602860248201527f4d61726b65744d616e616765723a204d61726b6574206e6f7420696e20656e64604482015267656420737461746560c01b6064820152608490fd5b156154b857565b60405162461bcd60e51b815260206004820152601f60248201527f4d61726b65744d616e616765723a20416c7265616479207265736f6c766564006044820152606490fd5b6040519061550a82614cf6565b601982527814995cdbdb1d5d1a5bdb881c195c9a5bd908195e1c1a5c9959603a1b6020830152565b5190811515820361105957565b919082604091031261105957602061555683615532565b92015190565b9060008281526001602052604090818120600c810160ff815416600581101561112a57600161558b9114615454565b841515806157bf575b1561576d57600e82016155ab60ff825416156154b1565b600b83015442101561575b57600d548551633313865560e21b8152600481018990526001600160a01b03949187908290602490829089165afa80156157515788908792889161572e575b5082615724575b5050156156bd57600d01869055805460ff199081166001179091558154166002179055615628856159ac565b600e54168061564e575b50506000805160206160d98339815191529160209151908152a2565b803b1561062257818091604485518095819362ff4a7360e81b83528a60048401528960248401525af19081156156b25750916000805160206160d983398151915293916020936156a3575b5091819350615632565b6156ac90614cc7565b38615699565b8351903d90823e3d90fd5b855162461bcd60e51b815260206004820152603a60248201527f4d61726b65744d616e616765723a20496e73756666696369656e7420766572696044820152793334b2b9103b37ba32b9903337b9103a3434b99037b83a34b7b760311b6064820152608490fd5b14905087386155fc565b9050615748919250883d8a11611de957611dd98183614d11565b919091386155f5565b87513d88823e3d90fd5b505050505050614e33906121d86154fd565b835162461bcd60e51b815260206004820152602560248201527f4d61726b65744d616e616765723a20496e76616c69642077696e6e696e67206f604482015264383a34b7b760d91b6064820152608490fd5b506003820154851115615594565b156157d457565b60405162461bcd60e51b815260206004820152602260248201527f4d61726b65744d616e616765723a204d61726b6574206e6f74207265736f6c76604482015261195960f21b6064820152608490fd5b1561582b57565b606460405162461bcd60e51b815260206004820152602060248201527f4d61726b65744d616e616765723a204e6f2077696e6e696e67206f7074696f6e6044820152fd5b1561587657565b60405162461bcd60e51b815260206004820152601e60248201527f4d61726b65744d616e616765723a204e6f207374616b6520706c6163656400006044820152606490fd5b156158c257565b60405162461bcd60e51b815260206004820152601e60248201527f4d61726b65744d616e616765723a20416c726561647920636c61696d656400006044820152606490fd5b90815260208101919091526001600160a01b03909116604082015260600190565b8115615932570490565b634e487b7160e01b600052601260045260246000fd5b9061598c60008051602061601983398151915291836000526001602052600c604060002001600360ff19825416179055604051918291602083526020830190614ba3565b0390a2565b6001600160a01b039091168152602081019190915260400190565b6000908082526020906001825260409182842091849160019085600386015493600d870154945b80851115615d055750600c54600480890180549451634f44289d60e01b81526001600160a01b039a91999298958b16975094928a169390929091868680615a1d8b87838f016150be565b0381885afa958615615cfb5791889188938f98615cb9575b50615a5e97615a4391614f8b565b508c5163dc4ce34960e01b81529687928392868d8501615907565b0381865afa938415615c7457859187918d96615c7e575b508b51633d1e7ba160e11b8152929183918291615a94918c84016150be565b0381865afa948515615c74578b95615c40575b50506101f4928385029585159486880414851715615c2d57612710809704938a8515159485615bc7575b5050505015600014615b8157505061251c808302928304141715615b6e57049283615aff575b505050505050565b80600c541692541690823b15615b6a5791849391868094615b3397519788958694859363f0824f3360e01b85528401615991565b03925af1908115615b615750615b4d575b80808080615af7565b615b578291614cc7565b6103935780615b44565b513d84823e3d90fd5b8580fd5b634e487b7160e01b875260118352602487fd5b925095925050615b9357505050505050565b80600c541692541690823b15615b6a5791849391868094615b339751978895869485936348fef59560e01b85528401615991565b5416813b15615c2957918d918693838f615bf58e91519788968795869463112cd22360e01b865285016150fb565b03925af18015615c1f57615c0c575b808a81615ad1565b615c18909b919b614cc7565b9938615c04565b8b513d8e823e3d90fd5b8d80fd5b634e487b7160e01b8c526011885260248cfd5b9080929550813d8311615c6d575b615c588183614d11565b81010312615c695751923880615aa7565b8980fd5b503d615c4e565b8a513d8d823e3d90fd5b92839196508092503d8311615cb2575b615c988183614d11565b81010312615cae57519284908690615a94615a75565b8a80fd5b503d615c8e565b92509290939495965081813d8311615cf4575b615cd68183614d11565b81010312615cf05751949392918691889190615a43615a35565b8c80fd5b503d615ccc565b8c513d8f823e3d90fd5b91509192848103615d23575b615d1a90614f98565b929187916159d3565b9487848760018060a01b03868b615d5a83600c5416936004809301541696519687958694859463dc4ce34960e01b86528501615907565b03915afa908115615db1578a91615d82575b50615d7a90615d1a92614f8b565b959050615d11565b90508481813d8311615daa575b615d998183614d11565b81010312615c695751615d1a615d6c565b503d615d8f565b89513d8c823e3d90fd5b615dc58154614dbb565b9081615dcf575050565b81601f60009311600114615de1575055565b908083918252615e00601f60208420940160051c840160018501614fb3565b5555565b6001600160401b0381116114915760051b60200190565b8051821015614aac5760209160051b010190565b15615e3657565b606460405162461bcd60e51b815260206004820152602060248201527f4d61726b65744d616e616765723a20496e76616c6964206d61726b65742049446044820152fd5b15615e8157565b60405162461bcd60e51b8152602060048201526024808201527f4d61726b65744d616e616765723a204d61726b657420646f6573206e6f7420656044820152631e1a5cdd60e21b6064820152608490fd5b60005b60149081549182821015615f70578392615eee83614add565b949054600395861b1c14615f0d575050615f089150614f98565b615ed5565b90916000199180830191908211614f7557612f73615f2d615f3993614add565b905490871b1c91614add565b8154801561155757810192615f4d84614add565b81939154921b1b19169055556000526015602052604060002060ff198154169055565b50505050565b60405190615f8382614cda565b816101c0600091828152606060208201528260408201528260608201528260808201528260a08201528260c08201528260e08201528261010082015282610120820152826101408201528261016082015282610180820152826101a08201520152565b90615ff082615e04565b615ffd6040519182614d11565b828152809261600e601f1991615e04565b019060203691013756fe4c4561c5b0048424071c1115e9f1e325486e21c21333d968f21097b7b72d12ad4d61726b65744d616e616765723a2054686973206d61726b65742075736573204d61726b65744d616e616765723a20546f6b656e206e6f7420737570706f7274fb349e367fa58e764f8867e52d91c7e0b9e6904700091667054ce1fdb56c496d4d61726b65744d616e616765723a2042656c6f77206d696e696d756d207374618be0079c531659141344cd1fd0a4f28419497f9722a3daafe3b4186f6b6457e06dfc24f0f2fb42e49fb4fa3ffa8abb148cab908a1fb8335b3f128a08b2594af14d61726b65744d616e616765723a20496e73756666696369656e742050455055e10fdde2c5cd9b92e449ee25df01febda2cbebc5553e38f2250ffe7f2d5143bc944998273e477b495144fb8794c914197f3ccb46be2900f4698fd0ef743c9695a264697066735822122049d04bbcb197a923270fc76752d06806b39462244353ba99e9574cf2414eedc964736f6c63430008140033","opcodes":"PUSH1 0x80 CALLVALUE PUSH3 0x234 JUMPI PUSH1 0x1F PUSH3 0x63F3 CODESIZE DUP2 SWAP1 SUB SWAP2 DUP3 ADD PUSH1 0x1F NOT AND DUP4 ADD SWAP2 SWAP1 PUSH1 0x1 PUSH1 0x1 PUSH1 0x40 SHL SUB DUP4 GT DUP5 DUP5 LT OR PUSH3 0x239 JUMPI DUP2 PUSH1 0xA0 SWAP3 DUP6 SWAP3 PUSH1 0x40 SWAP6 DUP7 MSTORE DUP4 CODECOPY DUP2 ADD SUB SLT PUSH3 0x234 JUMPI PUSH3 0x50 DUP3 PUSH3 0x24F JUMP JUMPDEST PUSH1 0x20 DUP4 DUP2 ADD MLOAD SWAP2 SWAP3 SWAP2 PUSH1 0x1 PUSH1 0x1 PUSH1 0xA0 SHL SUB SWAP1 DUP2 DUP2 AND SWAP1 DUP2 SWAP1 SUB PUSH3 0x234 JUMPI PUSH3 0x7B DUP5 DUP8 ADD PUSH3 0x24F JUMP JUMPDEST SWAP4 DUP3 PUSH1 0x80 PUSH3 0x8D PUSH1 0x60 DUP11 ADD PUSH3 0x24F JUMP JUMPDEST SWAP9 ADD MLOAD SWAP7 AND SWAP6 DUP7 ISZERO PUSH3 0x21C JUMPI PUSH1 0x0 DUP1 SLOAD PUSH1 0x1 PUSH1 0x1 PUSH1 0xA0 SHL SUB NOT DUP1 DUP3 AND DUP11 OR DUP4 SSTORE DUP5 MLOAD SWAP11 SWAP1 SWAP10 SWAP3 SWAP7 SWAP3 SWAP1 SWAP2 DUP4 AND PUSH32 0x8BE0079C531659141344CD1FD0A4F28419497F9722A3DAAFE3B4186F6B6457E0 DUP9 DUP1 LOG3 DUP2 PUSH1 0x1 SWAP9 DUP10 PUSH1 0xF SSTORE PUSH1 0x5 PUSH1 0x11 SSTORE PUSH1 0xFF NOT SWAP7 DUP8 PUSH1 0x12 SLOAD AND PUSH1 0x12 SSTORE PUSH1 0x5 PUSH1 0x13 SSTORE DUP12 PUSH1 0xC SLOAD AND OR PUSH1 0xC SSTORE AND DUP10 PUSH1 0xD SLOAD AND OR PUSH1 0xD SSTORE AND DUP8 PUSH1 0xE SLOAD AND OR PUSH1 0xE SSTORE PUSH1 0x10 SSTORE DUP3 DUP1 MSTORE PUSH1 0x8 DUP5 MSTORE DUP1 DUP4 KECCAK256 DUP1 SLOAD DUP7 DUP2 DUP2 SHR SWAP2 AND DUP1 ISZERO PUSH3 0x211 JUMPI JUMPDEST DUP7 DUP3 LT EQ PUSH3 0x1FD JUMPI SWAP1 DUP2 PUSH1 0x1F DUP9 SWAP5 SWAP4 GT PUSH3 0x1D1 JUMPI JUMPDEST POP PUSH1 0x8 PUSH4 0x50455055 PUSH1 0xE0 SHL ADD SWAP1 SSTORE DUP4 DUP1 MSTORE PUSH1 0x7 DUP6 MSTORE DUP4 KECCAK256 DUP1 SLOAD SWAP1 SWAP3 AND OR SWAP1 SSTORE PUSH1 0x9 SLOAD SWAP3 PUSH9 0x10000000000000000 DUP5 LT ISZERO PUSH3 0x1BD JUMPI DUP4 ADD DUP1 PUSH1 0x9 SSTORE DUP4 LT ISZERO PUSH3 0x1A9 JUMPI PUSH1 0x9 DUP2 MSTORE KECCAK256 ADD SWAP1 DUP2 SLOAD AND SWAP1 SSTORE PUSH2 0x618E SWAP1 DUP2 PUSH3 0x265 DUP3 CODECOPY RETURN JUMPDEST PUSH4 0x4E487B71 PUSH1 0xE0 SHL DUP2 MSTORE PUSH1 0x32 PUSH1 0x4 MSTORE PUSH1 0x24 SWAP1 REVERT JUMPDEST PUSH4 0x4E487B71 PUSH1 0xE0 SHL DUP3 MSTORE PUSH1 0x41 PUSH1 0x4 MSTORE PUSH1 0x24 DUP3 REVERT JUMPDEST DUP2 DUP7 MSTORE PUSH1 0x1F DUP8 DUP8 KECCAK256 SWAP2 ADD PUSH1 0x5 SHR DUP2 ADD SWAP1 JUMPDEST DUP2 DUP2 LT PUSH3 0x1F1 JUMPI POP PUSH3 0x14D JUMP JUMPDEST DUP7 DUP2 SSTORE DUP9 SWAP5 ADD PUSH3 0x1E2 JUMP JUMPDEST PUSH4 0x4E487B71 PUSH1 0xE0 SHL DUP6 MSTORE PUSH1 0x22 PUSH1 0x4 MSTORE PUSH1 0x24 DUP6 REVERT JUMPDEST SWAP1 PUSH1 0x7F AND SWAP1 PUSH3 0x136 JUMP JUMPDEST DUP2 MLOAD PUSH4 0x1E4FBDF7 PUSH1 0xE0 SHL DUP2 MSTORE PUSH1 0x0 PUSH1 0x4 DUP3 ADD MSTORE PUSH1 0x24 SWAP1 REVERT JUMPDEST PUSH1 0x0 DUP1 REVERT JUMPDEST PUSH4 0x4E487B71 PUSH1 0xE0 SHL PUSH1 0x0 MSTORE PUSH1 0x41 PUSH1 0x4 MSTORE PUSH1 0x24 PUSH1 0x0 REVERT JUMPDEST MLOAD SWAP1 PUSH1 0x1 PUSH1 0x1 PUSH1 0xA0 SHL SUB DUP3 AND DUP3 SUB PUSH3 0x234 JUMPI JUMP INVALID PUSH1 0x80 PUSH1 0x40 MSTORE PUSH1 0x4 CALLDATASIZE LT ISZERO PUSH2 0x1B JUMPI JUMPDEST CALLDATASIZE ISZERO PUSH2 0x19 JUMPI PUSH1 0x0 DUP1 REVERT JUMPDEST STOP JUMPDEST PUSH1 0x0 DUP1 CALLDATALOAD PUSH1 0xE0 SHR DUP1 PUSH4 0x7ADC191 EQ PUSH2 0x482F JUMPI DUP1 PUSH4 0xCCF4467 EQ PUSH2 0x4805 JUMPI DUP1 PUSH4 0xD64CDBD EQ PUSH2 0x47D6 JUMPI DUP1 PUSH4 0x1356AF02 EQ PUSH2 0x45C0 JUMPI DUP1 PUSH4 0x157BDCCE EQ PUSH2 0x46FB JUMPI DUP1 PUSH4 0x17916E01 EQ PUSH2 0x46DD JUMPI DUP1 PUSH4 0x256BA741 EQ PUSH2 0x4648 JUMPI DUP1 PUSH4 0x287F57B5 EQ PUSH2 0x45FF JUMPI DUP1 PUSH4 0x2B5BA3B9 EQ PUSH2 0x45C0 JUMPI DUP1 PUSH4 0x2B60C822 EQ PUSH2 0x4595 JUMPI DUP1 PUSH4 0x2B8AA3AD EQ PUSH2 0x451B JUMPI DUP1 PUSH4 0x2EF1BDFA EQ PUSH2 0x44FD JUMPI DUP1 PUSH4 0x304BF1F1 EQ PUSH2 0x44B4 JUMPI DUP1 PUSH4 0x33D6B46E EQ PUSH2 0x4441 JUMPI DUP1 PUSH4 0x3ADFE6D0 EQ PUSH2 0x4416 JUMPI DUP1 PUSH4 0x3BBAB179 EQ PUSH2 0x43B4 JUMPI DUP1 PUSH4 0x3E32A76C EQ PUSH2 0x412E JUMPI DUP1 PUSH4 0x3EC79193 EQ PUSH2 0x3E1F JUMPI DUP1 PUSH4 0x406EF2EF EQ PUSH2 0x3E01 JUMPI DUP1 PUSH4 0x45843695 EQ PUSH2 0x3D83 JUMPI DUP1 PUSH4 0x4F44289D EQ PUSH2 0x3D3A JUMPI DUP1 PUSH4 0x4FFE2A8B EQ PUSH2 0x3D11 JUMPI DUP1 PUSH4 0x51049969 EQ PUSH2 0x3BAB JUMPI DUP1 PUSH4 0x5A1D0277 EQ PUSH2 0x3B8D JUMPI DUP1 PUSH4 0x5B7BAF64 EQ PUSH2 0x37E8 JUMPI DUP1 PUSH4 0x5DA3247A EQ PUSH2 0x37CA JUMPI DUP1 PUSH4 0x60557333 EQ PUSH2 0x37B2 JUMPI DUP1 PUSH4 0x61D027B3 EQ PUSH2 0x3789 JUMPI DUP1 PUSH4 0x638B022C EQ PUSH2 0x2C2F JUMPI DUP1 PUSH4 0x65EBCE55 EQ PUSH2 0x2BB9 JUMPI DUP1 PUSH4 0x677BD9FF EQ PUSH2 0x27DC JUMPI DUP1 PUSH4 0x68C4AC26 EQ PUSH2 0x279D JUMPI DUP1 PUSH4 0x6D822220 EQ PUSH2 0x2739 JUMPI DUP1 PUSH4 0x6F59359E EQ PUSH2 0x26CB JUMPI DUP1 PUSH4 0x715018A6 EQ PUSH2 0x2683 JUMPI DUP1 PUSH4 0x720138E8 EQ PUSH2 0x23C3 JUMPI DUP1 PUSH4 0x74C350EB EQ PUSH2 0x237E JUMPI DUP1 PUSH4 0x76319190 EQ PUSH2 0x2236 JUMPI DUP1 PUSH4 0x7C16CD9E EQ PUSH2 0x2172 JUMPI DUP1 PUSH4 0x80D5AC8A EQ PUSH2 0x2149 JUMPI DUP1 PUSH4 0x81B17D29 EQ PUSH2 0x2109 JUMPI DUP1 PUSH4 0x847CF782 EQ PUSH2 0x20C5 JUMPI DUP1 PUSH4 0x87FEA110 EQ PUSH2 0x2043 JUMPI DUP1 PUSH4 0x881DF9E1 EQ PUSH2 0x2018 JUMPI DUP1 PUSH4 0x88D3CC48 EQ PUSH2 0x1FF5 JUMPI DUP1 PUSH4 0x8DA5CB5B EQ PUSH2 0x1FCE JUMPI DUP1 PUSH4 0x971F8BB1 EQ PUSH2 0x1F89 JUMPI DUP1 PUSH4 0x98A17671 EQ PUSH2 0x1F33 JUMPI DUP1 PUSH4 0x9F37022A EQ PUSH2 0x1F10 JUMPI DUP1 PUSH4 0xA30A0914 EQ PUSH2 0x1EE6 JUMPI DUP1 PUSH4 0xA5E973C3 EQ PUSH2 0x1E64 JUMPI DUP1 PUSH4 0xA7A8C359 EQ PUSH2 0x1E39 JUMPI DUP1 PUSH4 0xAD8E42FF EQ PUSH2 0x1E0F JUMPI DUP1 PUSH4 0xB1138B50 EQ PUSH2 0x1C36 JUMPI DUP1 PUSH4 0xB1283E77 EQ PUSH2 0x1B32 JUMPI DUP1 PUSH4 0xB85ED636 EQ PUSH2 0x1AA8 JUMPI DUP1 PUSH4 0xBAA9C4AC EQ PUSH2 0x1A8A JUMPI DUP1 PUSH4 0xC22C62C3 EQ PUSH2 0x1A58 JUMPI DUP1 PUSH4 0xC3436E0C EQ PUSH2 0x1908 JUMPI DUP1 PUSH4 0xC8A843B7 EQ PUSH2 0x17FD JUMPI DUP1 PUSH4 0xCE67BE26 EQ PUSH2 0x17DF JUMPI DUP1 PUSH4 0xD3C7C2C7 EQ PUSH2 0x166A JUMPI DUP1 PUSH4 0xD5F82707 EQ PUSH2 0x161F JUMPI DUP1 PUSH4 0xD8C5DD67 EQ PUSH2 0x15D8 JUMPI DUP1 PUSH4 0xDB62C6DE EQ PUSH2 0x13E3 JUMPI DUP1 PUSH4 0xDC4CE349 EQ PUSH2 0x1390 JUMPI DUP1 PUSH4 0xE78D0117 EQ PUSH2 0x12E9 JUMPI DUP1 PUSH4 0xEB44FDD3 EQ PUSH2 0x11E1 JUMPI DUP1 PUSH4 0xF00FE321 EQ PUSH2 0x113E JUMPI DUP1 PUSH4 0xF15CC406 EQ PUSH2 0xE2F JUMPI DUP1 PUSH4 0xF1B7DDE3 EQ PUSH2 0xB77 JUMPI DUP1 PUSH4 0xF204072F EQ PUSH2 0x808 JUMPI DUP1 PUSH4 0xF2FDE38B EQ PUSH2 0x792 JUMPI DUP1 PUSH4 0xF4867591 EQ PUSH2 0x45C JUMPI DUP1 PUSH4 0xF849F69E EQ PUSH2 0x3E9 JUMPI DUP1 PUSH4 0xFB0B2B36 EQ PUSH2 0x396 JUMPI PUSH4 0xFE53A6E8 EQ PUSH2 0x376 JUMPI POP PUSH2 0xE JUMP JUMPDEST CALLVALUE PUSH2 0x393 JUMPI DUP1 PUSH1 0x3 NOT CALLDATASIZE ADD SLT PUSH2 0x393 JUMPI PUSH1 0x20 PUSH1 0xF SLOAD PUSH1 0x40 MLOAD SWAP1 DUP2 MSTORE RETURN JUMPDEST DUP1 REVERT JUMPDEST POP CALLVALUE PUSH2 0x393 JUMPI PUSH1 0x20 CALLDATASIZE PUSH1 0x3 NOT ADD SLT PUSH2 0x393 JUMPI PUSH2 0x3E5 SWAP1 PUSH2 0x3D1 SWAP1 PUSH1 0x40 SWAP1 PUSH1 0x1 PUSH1 0x1 PUSH1 0xA0 SHL SUB PUSH2 0x3C3 PUSH2 0x4A30 JUMP JUMPDEST AND DUP2 MSTORE PUSH1 0x8 PUSH1 0x20 MSTORE KECCAK256 PUSH2 0x4DF5 JUMP JUMPDEST PUSH1 0x40 MLOAD SWAP2 DUP3 SWAP2 PUSH1 0x20 DUP4 MSTORE PUSH1 0x20 DUP4 ADD SWAP1 PUSH2 0x4BA3 JUMP JUMPDEST SUB SWAP1 RETURN JUMPDEST POP CALLVALUE PUSH2 0x393 JUMPI PUSH1 0x20 CALLDATASIZE PUSH1 0x3 NOT ADD SLT PUSH2 0x393 JUMPI PUSH1 0x4 CALLDATALOAD DUP2 MSTORE PUSH1 0x15 PUSH1 0x20 MSTORE PUSH1 0xFF PUSH1 0x40 DUP3 KECCAK256 SLOAD AND DUP1 PUSH2 0x420 JUMPI JUMPDEST PUSH1 0x20 SWAP1 PUSH1 0x40 MLOAD SWAP1 ISZERO ISZERO DUP2 MSTORE RETURN JUMPDEST POP PUSH1 0x1 PUSH1 0x20 MSTORE PUSH1 0xFF PUSH1 0xC PUSH1 0x40 DUP4 KECCAK256 ADD SLOAD AND SWAP1 PUSH1 0x5 DUP3 LT ISZERO PUSH2 0x448 JUMPI POP PUSH1 0x4 PUSH1 0x20 SWAP2 EQ ISZERO PUSH2 0x413 JUMP JUMPDEST PUSH4 0x4E487B71 PUSH1 0xE0 SHL DUP2 MSTORE PUSH1 0x21 PUSH1 0x4 MSTORE PUSH1 0x24 SWAP1 REVERT JUMPDEST POP PUSH2 0x466 CALLDATASIZE PUSH2 0x4D96 JUMP JUMPDEST SWAP1 DUP1 DUP4 MSTORE PUSH1 0x20 PUSH1 0x1 DUP2 MSTORE PUSH1 0x40 DUP5 KECCAK256 PUSH1 0xFF PUSH1 0xC DUP3 ADD SLOAD AND PUSH1 0x5 DUP2 LT ISZERO PUSH2 0x77E JUMPI PUSH2 0x48F SWAP1 ISZERO PUSH2 0x51B5 JUMP JUMPDEST PUSH1 0xFF PUSH1 0x12 SLOAD AND PUSH2 0x735 JUMPI JUMPDEST DUP4 ISZERO ISZERO DUP1 PUSH2 0x727 JUMPI JUMPDEST PUSH2 0x4AC SWAP1 PUSH2 0x5295 JUMP JUMPDEST PUSH1 0x4 DUP2 ADD DUP1 SLOAD PUSH1 0x1 PUSH1 0x1 PUSH1 0xA0 SHL SUB SWAP3 SWAP1 DUP4 AND PUSH2 0x6CE JUMPI PUSH1 0x5 PUSH2 0x4D2 SWAP2 ADD SLOAD CALLVALUE LT ISZERO PUSH2 0x52E1 JUMP JUMPDEST DUP6 DUP1 DUP1 DUP1 CALLVALUE DUP7 PUSH1 0xC SLOAD AND GAS CALL PUSH2 0x4E6 PUSH2 0x4FFE JUMP JUMPDEST POP ISZERO PUSH2 0x672 JUMPI SWAP1 DUP6 SWAP2 DUP5 DUP4 MSTORE PUSH1 0x2 DUP5 MSTORE PUSH1 0x40 DUP4 KECCAK256 CALLER PUSH1 0x0 MSTORE DUP5 MSTORE PUSH1 0xFF PUSH1 0x40 PUSH1 0x0 KECCAK256 SLOAD AND ISZERO PUSH2 0x645 JUMPI JUMPDEST DUP5 DUP4 MSTORE PUSH1 0x2 DUP5 MSTORE PUSH1 0x40 DUP4 KECCAK256 CALLER PUSH1 0x0 MSTORE DUP5 MSTORE PUSH1 0x40 PUSH1 0x0 KECCAK256 PUSH1 0x1 PUSH1 0xFF NOT DUP3 SLOAD AND OR SWAP1 SSTORE DUP5 DUP4 MSTORE PUSH1 0x4 DUP5 MSTORE PUSH1 0x40 DUP4 KECCAK256 CALLER PUSH1 0x0 MSTORE DUP5 MSTORE DUP6 PUSH1 0x40 PUSH1 0x0 KECCAK256 SSTORE DUP2 DUP1 PUSH1 0xC SLOAD AND SWAP2 SLOAD AND SWAP1 DUP1 EXTCODESIZE ISZERO PUSH2 0x613 JUMPI PUSH1 0x40 MLOAD PUSH4 0x95F41095 PUSH1 0xE0 SHL DUP2 MSTORE SWAP2 DUP5 SWAP2 DUP4 SWAP2 DUP3 SWAP1 DUP5 SWAP1 DUP3 SWAP1 PUSH2 0x584 SWAP1 DUP14 SWAP1 CALLVALUE SWAP1 CALLER DUP16 PUSH1 0x4 DUP8 ADD PUSH2 0x508E JUMP JUMPDEST SUB SWAP3 GAS CALL SWAP1 DUP2 ISZERO PUSH2 0x63A JUMPI DUP4 SWAP2 PUSH2 0x626 JUMPI JUMPDEST POP POP PUSH1 0xE SLOAD AND DUP1 PUSH2 0x5C6 JUMPI JUMPDEST POP POP PUSH1 0x40 MLOAD SWAP3 DUP4 MSTORE CALLVALUE SWAP1 DUP4 ADD MSTORE PUSH1 0x0 DUP1 MLOAD PUSH1 0x20 PUSH2 0x6119 DUP4 CODECOPY DUP2 MLOAD SWAP2 MSTORE PUSH1 0x40 CALLER SWAP4 LOG3 DUP1 RETURN JUMPDEST DUP1 EXTCODESIZE ISZERO PUSH2 0x622 JUMPI DUP2 PUSH1 0x40 MLOAD DUP1 SWAP3 PUSH4 0xC228038D PUSH1 0xE0 SHL DUP3 MSTORE DUP2 DUP4 DUP2 PUSH2 0x5F0 CALLVALUE DUP13 CALLER DUP14 PUSH1 0x4 DUP7 ADD PUSH2 0x50D7 JUMP JUMPDEST SUB SWAP3 GAS CALL DUP1 ISZERO PUSH2 0x617 JUMPI ISZERO PUSH2 0x5A2 JUMPI PUSH2 0x608 SWAP1 PUSH2 0x4CC7 JUMP JUMPDEST PUSH2 0x613 JUMPI DUP4 CODESIZE PUSH2 0x5A2 JUMP JUMPDEST DUP4 DUP1 REVERT JUMPDEST PUSH1 0x40 MLOAD RETURNDATASIZE DUP5 DUP3 RETURNDATACOPY RETURNDATASIZE SWAP1 REVERT JUMPDEST POP DUP1 REVERT JUMPDEST PUSH2 0x62F SWAP1 PUSH2 0x4CC7 JUMP JUMPDEST PUSH2 0x622 JUMPI DUP2 CODESIZE PUSH2 0x596 JUMP JUMPDEST PUSH1 0x40 MLOAD RETURNDATASIZE DUP6 DUP3 RETURNDATACOPY RETURNDATASIZE SWAP1 REVERT JUMPDEST DUP5 DUP4 MSTORE PUSH1 0x5 DUP5 MSTORE PUSH2 0x659 CALLER PUSH1 0x40 DUP6 KECCAK256 PUSH2 0x5326 JUMP JUMPDEST CALLER DUP4 MSTORE PUSH1 0x16 DUP5 MSTORE PUSH2 0x66D DUP6 PUSH1 0x40 DUP6 KECCAK256 PUSH2 0x4FDB JUMP JUMPDEST PUSH2 0x50F JUMP JUMPDEST PUSH1 0x40 MLOAD PUSH3 0x461BCD PUSH1 0xE5 SHL DUP2 MSTORE PUSH1 0x4 DUP2 ADD DUP5 SWAP1 MSTORE PUSH1 0x2E PUSH1 0x24 DUP3 ADD MSTORE PUSH32 0x4D61726B65744D616E616765723A20455448207472616E7366657220746F2054 PUSH1 0x44 DUP3 ADD MSTORE PUSH14 0x1C99585CDD5C9E4819985A5B1959 PUSH1 0x92 SHL PUSH1 0x64 DUP3 ADD MSTORE PUSH1 0x84 SWAP1 REVERT JUMPDEST PUSH1 0x40 MLOAD PUSH3 0x461BCD PUSH1 0xE5 SHL DUP2 MSTORE PUSH1 0x4 DUP2 ADD DUP6 SWAP1 MSTORE PUSH1 0x3D PUSH1 0x24 DUP3 ADD MSTORE PUSH1 0x0 DUP1 MLOAD PUSH1 0x20 PUSH2 0x6039 DUP4 CODECOPY DUP2 MLOAD SWAP2 MSTORE PUSH1 0x44 DUP3 ADD MSTORE PUSH32 0x746F6B656E732C2075736520706C61636542657457697468546F6B656E000000 PUSH1 0x64 DUP3 ADD MSTORE PUSH1 0x84 SWAP1 REVERT JUMPDEST POP PUSH1 0x3 DUP2 ADD SLOAD DUP5 GT ISZERO PUSH2 0x4A3 JUMP JUMPDEST PUSH1 0x9 DUP2 ADD SLOAD PUSH1 0x13 SLOAD SWAP1 PUSH1 0x3C DUP3 MUL SWAP2 DUP1 DUP4 DIV PUSH1 0x3C EQ SWAP1 ISZERO OR ISZERO PUSH2 0x76A JUMPI PUSH2 0x765 SWAP2 PUSH2 0x75E SWAP2 PUSH2 0x5200 JUMP JUMPDEST TIMESTAMP LT PUSH2 0x520D JUMP JUMPDEST PUSH2 0x49A JUMP JUMPDEST PUSH4 0x4E487B71 PUSH1 0xE0 SHL DUP8 MSTORE PUSH1 0x11 PUSH1 0x4 MSTORE PUSH1 0x24 DUP8 REVERT JUMPDEST PUSH4 0x4E487B71 PUSH1 0xE0 SHL DUP7 MSTORE PUSH1 0x21 PUSH1 0x4 MSTORE PUSH1 0x24 DUP7 REVERT JUMPDEST POP CALLVALUE PUSH2 0x393 JUMPI PUSH1 0x20 CALLDATASIZE PUSH1 0x3 NOT ADD SLT PUSH2 0x393 JUMPI PUSH2 0x7AC PUSH2 0x4A30 JUMP JUMPDEST PUSH2 0x7B4 PUSH2 0x4E9B JUMP JUMPDEST PUSH1 0x1 PUSH1 0x1 PUSH1 0xA0 SHL SUB SWAP1 DUP2 AND SWAP1 DUP2 ISZERO PUSH2 0x7EF JUMPI PUSH1 0x0 SLOAD DUP3 PUSH1 0x1 DUP1 PUSH1 0xA0 SHL SUB NOT DUP3 AND OR PUSH1 0x0 SSTORE AND PUSH1 0x0 DUP1 MLOAD PUSH1 0x20 PUSH2 0x60B9 DUP4 CODECOPY DUP2 MLOAD SWAP2 MSTORE PUSH1 0x0 DUP1 LOG3 DUP1 RETURN JUMPDEST PUSH1 0x40 MLOAD PUSH4 0x1E4FBDF7 PUSH1 0xE0 SHL DUP2 MSTORE PUSH1 0x4 DUP2 ADD DUP5 SWAP1 MSTORE PUSH1 0x24 SWAP1 REVERT JUMPDEST POP PUSH2 0x812 CALLDATASIZE PUSH2 0x4D96 JUMP JUMPDEST SWAP1 DUP1 DUP4 MSTORE PUSH1 0x20 PUSH1 0x1 DUP2 MSTORE PUSH1 0x40 DUP5 KECCAK256 PUSH1 0xFF PUSH1 0xC DUP3 ADD SLOAD AND PUSH1 0x5 DUP2 LT ISZERO PUSH2 0x77E JUMPI PUSH2 0x83B SWAP1 ISZERO PUSH2 0x51B5 JUMP JUMPDEST PUSH1 0x9 DUP2 ADD SLOAD TIMESTAMP LT ISZERO PUSH2 0xB26 JUMPI PUSH1 0x4 SWAP1 CALLER DUP7 MSTORE PUSH1 0xA DUP4 MSTORE PUSH2 0x862 PUSH1 0xFF PUSH1 0x40 DUP9 KECCAK256 SLOAD AND ISZERO PUSH2 0x4EC7 JUMP JUMPDEST PUSH2 0x86D DUP6 ISZERO ISZERO PUSH2 0x5349 JUMP JUMPDEST ADD DUP1 SLOAD PUSH1 0x1 PUSH1 0x1 PUSH1 0xA0 SHL SUB SWAP2 SWAP1 DUP3 AND DUP1 PUSH2 0xAA3 JUMPI POP DUP5 CALLVALUE SUB PUSH2 0xA52 JUMPI PUSH2 0x894 CALLVALUE ISZERO ISZERO PUSH2 0x5349 JUMP JUMPDEST DUP6 DUP1 DUP1 DUP1 CALLVALUE DUP7 PUSH1 0xC SLOAD AND GAS CALL PUSH2 0x8A8 PUSH2 0x4FFE JUMP JUMPDEST POP ISZERO PUSH2 0x9F6 JUMPI SWAP1 DUP6 SWAP2 JUMPDEST DUP5 DUP4 MSTORE PUSH1 0x3 DUP5 MSTORE PUSH1 0x40 DUP4 KECCAK256 CALLER PUSH1 0x0 MSTORE DUP5 MSTORE PUSH1 0xFF PUSH1 0x40 PUSH1 0x0 KECCAK256 SLOAD AND ISZERO PUSH2 0x9DD JUMPI JUMPDEST DUP5 DUP4 MSTORE PUSH1 0x3 DUP5 MSTORE PUSH1 0x40 DUP4 KECCAK256 CALLER PUSH1 0x0 MSTORE DUP5 MSTORE PUSH1 0x40 PUSH1 0x0 KECCAK256 PUSH1 0x1 PUSH1 0xFF NOT DUP3 SLOAD AND OR SWAP1 SSTORE DUP2 DUP1 PUSH1 0xC SLOAD AND SWAP2 SLOAD AND SWAP1 DUP1 EXTCODESIZE ISZERO PUSH2 0x613 JUMPI DUP7 DUP5 SWAP2 PUSH2 0x92B SWAP4 DUP4 PUSH1 0x40 MLOAD DUP1 SWAP7 DUP2 SWAP6 DUP3 SWAP5 PUSH4 0xC15D9807 PUSH1 0xE0 SHL DUP5 MSTORE DUP14 CALLER SWAP1 PUSH1 0x4 DUP7 ADD PUSH2 0x53B2 JUMP JUMPDEST SUB SWAP3 GAS CALL SWAP1 DUP2 ISZERO PUSH2 0x63A JUMPI DUP4 SWAP2 PUSH2 0x9C9 JUMPI JUMPDEST POP POP PUSH1 0xE SLOAD AND DUP1 PUSH2 0x979 JUMPI JUMPDEST POP POP PUSH32 0xC02BBAFF19BDE22745E7227AEB31741EFD4BF98EBB8B48AC49DD40833FAC6756 SWAP1 PUSH1 0x40 MLOAD SWAP4 DUP5 MSTORE CALLER SWAP4 LOG3 DUP1 RETURN JUMPDEST DUP1 EXTCODESIZE ISZERO PUSH2 0x622 JUMPI DUP2 DUP1 SWAP2 PUSH1 0x64 PUSH1 0x40 MLOAD DUP1 SWAP5 DUP2 SWAP4 PUSH4 0x8F46A5A1 PUSH1 0xE0 SHL DUP4 MSTORE DUP10 PUSH1 0x4 DUP5 ADD MSTORE CALLER PUSH1 0x24 DUP5 ADD MSTORE DUP11 PUSH1 0x44 DUP5 ADD MSTORE GAS CALL DUP1 ISZERO PUSH2 0x617 JUMPI ISZERO PUSH2 0x949 JUMPI PUSH2 0x9BE SWAP1 PUSH2 0x4CC7 JUMP JUMPDEST PUSH2 0x613 JUMPI DUP4 CODESIZE PUSH2 0x949 JUMP JUMPDEST PUSH2 0x9D2 SWAP1 PUSH2 0x4CC7 JUMP JUMPDEST PUSH2 0x622 JUMPI DUP2 CODESIZE PUSH2 0x93D JUMP JUMPDEST DUP5 DUP4 MSTORE PUSH1 0x6 DUP5 MSTORE PUSH2 0x9F1 CALLER PUSH1 0x40 DUP6 KECCAK256 PUSH2 0x5326 JUMP JUMPDEST PUSH2 0x8D2 JUMP JUMPDEST PUSH1 0x40 MLOAD PUSH3 0x461BCD PUSH1 0xE5 SHL DUP2 MSTORE PUSH1 0x4 DUP2 ADD DUP5 SWAP1 MSTORE PUSH1 0x2E PUSH1 0x24 DUP3 ADD MSTORE PUSH32 0x4D61726B65744D616E616765723A20455448207472616E7366657220746F2074 PUSH1 0x44 DUP3 ADD MSTORE PUSH14 0x1C99585CDD5C9E4819985A5B1959 PUSH1 0x92 SHL PUSH1 0x64 DUP3 ADD MSTORE PUSH1 0x84 SWAP1 REVERT JUMPDEST PUSH1 0x40 MLOAD PUSH3 0x461BCD PUSH1 0xE5 SHL DUP2 MSTORE PUSH1 0x4 DUP2 ADD DUP5 SWAP1 MSTORE PUSH1 0x23 PUSH1 0x24 DUP3 ADD MSTORE PUSH32 0x4D61726B65744D616E616765723A20496E636F72726563742045544820616D6F PUSH1 0x44 DUP3 ADD MSTORE PUSH3 0x1D5B9D PUSH1 0xEA SHL PUSH1 0x64 DUP3 ADD MSTORE PUSH1 0x84 SWAP1 REVERT JUMPDEST CALLVALUE PUSH2 0xAC2 JUMPI SWAP1 PUSH2 0xABD DUP7 DUP5 SWAP4 DUP10 SWAP6 PUSH1 0xC SLOAD AND SWAP1 CALLER SWAP1 PUSH2 0x511D JUMP JUMPDEST PUSH2 0x8B2 JUMP JUMPDEST PUSH1 0x40 MLOAD PUSH3 0x461BCD PUSH1 0xE5 SHL DUP2 MSTORE PUSH1 0x4 DUP2 ADD DUP6 SWAP1 MSTORE PUSH1 0x36 PUSH1 0x24 DUP3 ADD MSTORE PUSH32 0x4D61726B65744D616E616765723A204E6F204554482073686F756C6420626520 PUSH1 0x44 DUP3 ADD MSTORE PUSH22 0x1CD95B9D08199BDC881D1BDAD95B881CDD5C1C1BDC9D PUSH1 0x52 SHL PUSH1 0x64 DUP3 ADD MSTORE PUSH1 0x84 SWAP1 REVERT JUMPDEST PUSH1 0x40 MLOAD PUSH3 0x461BCD PUSH1 0xE5 SHL DUP2 MSTORE PUSH1 0x4 DUP2 ADD DUP4 SWAP1 MSTORE PUSH1 0x23 PUSH1 0x24 DUP3 ADD MSTORE PUSH32 0x4D61726B65744D616E616765723A20537570706F727420706572696F6420656E PUSH1 0x44 DUP3 ADD MSTORE PUSH3 0x191959 PUSH1 0xEA SHL PUSH1 0x64 DUP3 ADD MSTORE PUSH1 0x84 SWAP1 REVERT JUMPDEST POP CALLVALUE PUSH2 0x393 JUMPI PUSH1 0x60 CALLDATASIZE PUSH1 0x3 NOT ADD SLT PUSH2 0x393 JUMPI PUSH1 0x4 CALLDATALOAD PUSH1 0x24 CALLDATALOAD SWAP1 PUSH1 0x44 CALLDATALOAD DUP2 DUP5 MSTORE PUSH1 0x20 PUSH1 0x1 DUP2 MSTORE PUSH1 0x40 DUP6 KECCAK256 PUSH1 0xFF PUSH1 0xC DUP3 ADD SLOAD AND PUSH1 0x5 DUP2 LT ISZERO PUSH2 0xE1B JUMPI PUSH2 0xBBB SWAP1 ISZERO PUSH2 0x51B5 JUMP JUMPDEST PUSH1 0xFF PUSH1 0x12 SLOAD AND PUSH2 0xDD9 JUMPI JUMPDEST DUP5 ISZERO ISZERO DUP1 PUSH2 0xDCB JUMPI JUMPDEST PUSH2 0xBD8 SWAP1 PUSH2 0x5295 JUMP JUMPDEST PUSH1 0x4 DUP2 ADD DUP1 SLOAD PUSH1 0x1 PUSH1 0x1 PUSH1 0xA0 SHL SUB SWAP3 SWAP1 DUP4 AND SWAP1 DUP2 ISZERO PUSH2 0xD7D JUMPI DUP6 DUP10 SWAP5 SWAP4 SWAP3 PUSH2 0xC09 PUSH1 0x5 PUSH2 0xC16 SWAP5 ADD SLOAD DUP4 LT ISZERO PUSH2 0x52E1 JUMP JUMPDEST DUP5 PUSH1 0xC SLOAD AND SWAP1 CALLER SWAP1 PUSH2 0x511D JUMP JUMPDEST DUP6 DUP4 MSTORE PUSH1 0x2 DUP5 MSTORE PUSH1 0x40 DUP4 KECCAK256 CALLER PUSH1 0x0 MSTORE DUP5 MSTORE PUSH1 0xFF PUSH1 0x40 PUSH1 0x0 KECCAK256 SLOAD AND ISZERO PUSH2 0xD50 JUMPI JUMPDEST DUP6 DUP4 MSTORE PUSH1 0x2 DUP5 MSTORE PUSH1 0x40 DUP4 KECCAK256 CALLER PUSH1 0x0 MSTORE DUP5 MSTORE PUSH1 0x40 PUSH1 0x0 KECCAK256 PUSH1 0x1 PUSH1 0xFF NOT DUP3 SLOAD AND OR SWAP1 SSTORE DUP6 DUP4 MSTORE PUSH1 0x4 DUP5 MSTORE PUSH1 0x40 DUP4 KECCAK256 CALLER PUSH1 0x0 MSTORE DUP5 MSTORE DUP7 PUSH1 0x40 PUSH1 0x0 KECCAK256 SSTORE DUP2 DUP1 PUSH1 0xC SLOAD AND SWAP2 SLOAD AND SWAP1 DUP1 EXTCODESIZE ISZERO PUSH2 0x613 JUMPI DUP6 DUP5 SWAP2 DUP10 SWAP4 DUP4 DUP11 PUSH2 0xCA9 PUSH1 0x40 MLOAD SWAP8 DUP9 SWAP7 DUP8 SWAP6 DUP7 SWAP5 PUSH4 0x95F41095 PUSH1 0xE0 SHL DUP7 MSTORE CALLER SWAP1 PUSH1 0x4 DUP8 ADD PUSH2 0x508E JUMP JUMPDEST SUB SWAP3 GAS CALL SWAP1 DUP2 ISZERO PUSH2 0x63A JUMPI DUP4 SWAP2 PUSH2 0xD3C JUMPI JUMPDEST POP POP PUSH1 0xE SLOAD AND DUP1 PUSH2 0xCE9 JUMPI JUMPDEST POP POP PUSH1 0x40 MLOAD SWAP4 DUP5 MSTORE DUP4 ADD MSTORE PUSH1 0x0 DUP1 MLOAD PUSH1 0x20 PUSH2 0x6119 DUP4 CODECOPY DUP2 MLOAD SWAP2 MSTORE PUSH1 0x40 CALLER SWAP4 LOG3 DUP1 RETURN JUMPDEST DUP1 EXTCODESIZE ISZERO PUSH2 0x622 JUMPI PUSH1 0x40 MLOAD PUSH4 0xC228038D PUSH1 0xE0 SHL DUP2 MSTORE SWAP1 DUP3 SWAP1 DUP3 SWAP1 DUP2 DUP4 DUP2 PUSH2 0xD15 DUP11 DUP14 CALLER DUP15 PUSH1 0x4 DUP7 ADD PUSH2 0x50D7 JUMP JUMPDEST SUB SWAP3 GAS CALL DUP1 ISZERO PUSH2 0x617 JUMPI ISZERO PUSH2 0xCC7 JUMPI PUSH2 0xD2D SWAP1 PUSH2 0x4CC7 JUMP JUMPDEST PUSH2 0xD38 JUMPI DUP5 CODESIZE PUSH2 0xCC7 JUMP JUMPDEST DUP5 DUP1 REVERT JUMPDEST PUSH2 0xD45 SWAP1 PUSH2 0x4CC7 JUMP JUMPDEST PUSH2 0x622 JUMPI DUP2 CODESIZE PUSH2 0xCBB JUMP JUMPDEST DUP6 DUP4 MSTORE PUSH1 0x5 DUP5 MSTORE PUSH2 0xD64 CALLER PUSH1 0x40 DUP6 KECCAK256 PUSH2 0x5326 JUMP JUMPDEST CALLER DUP4 MSTORE PUSH1 0x16 DUP5 MSTORE PUSH2 0xD78 DUP7 PUSH1 0x40 DUP6 KECCAK256 PUSH2 0x4FDB JUMP JUMPDEST PUSH2 0xC36 JUMP JUMPDEST PUSH1 0x40 MLOAD PUSH3 0x461BCD PUSH1 0xE5 SHL DUP2 MSTORE PUSH1 0x4 DUP2 ADD DUP7 SWAP1 MSTORE PUSH1 0x32 PUSH1 0x24 DUP3 ADD MSTORE PUSH1 0x0 DUP1 MLOAD PUSH1 0x20 PUSH2 0x6039 DUP4 CODECOPY DUP2 MLOAD SWAP2 MSTORE PUSH1 0x44 DUP3 ADD MSTORE PUSH18 0x141154154B081D5CD9481C1B1858D950995D PUSH1 0x72 SHL PUSH1 0x64 DUP3 ADD MSTORE PUSH1 0x84 SWAP1 REVERT JUMPDEST POP PUSH1 0x3 DUP2 ADD SLOAD DUP6 GT ISZERO PUSH2 0xBCF JUMP JUMPDEST PUSH1 0x9 DUP2 ADD SLOAD PUSH1 0x13 SLOAD SWAP1 PUSH1 0x3C DUP3 MUL SWAP2 DUP1 DUP4 DIV PUSH1 0x3C EQ SWAP1 ISZERO OR ISZERO PUSH2 0xE07 JUMPI PUSH2 0xE02 SWAP2 PUSH2 0x75E SWAP2 PUSH2 0x5200 JUMP JUMPDEST PUSH2 0xBC6 JUMP JUMPDEST PUSH4 0x4E487B71 PUSH1 0xE0 SHL DUP9 MSTORE PUSH1 0x11 PUSH1 0x4 MSTORE PUSH1 0x24 DUP9 REVERT JUMPDEST PUSH4 0x4E487B71 PUSH1 0xE0 SHL DUP8 MSTORE PUSH1 0x21 PUSH1 0x4 MSTORE PUSH1 0x24 DUP8 REVERT JUMPDEST POP CALLVALUE PUSH2 0x393 JUMPI PUSH1 0x40 CALLDATASIZE PUSH1 0x3 NOT ADD SLT PUSH2 0x393 JUMPI PUSH1 0x4 CALLDATALOAD PUSH2 0xE4C PUSH2 0x4A46 JUMP JUMPDEST SWAP2 DUP2 DUP2 MSTORE PUSH1 0x20 SWAP2 PUSH1 0x1 DUP4 MSTORE PUSH1 0x40 DUP3 KECCAK256 SWAP4 PUSH1 0xFF PUSH1 0xC DUP7 ADD SLOAD AND PUSH1 0x5 DUP2 LT ISZERO PUSH2 0x112A JUMPI PUSH1 0x2 PUSH2 0xE79 SWAP2 EQ PUSH2 0x57CD JUMP JUMPDEST PUSH1 0xD DUP6 ADD SLOAD PUSH2 0xE89 DUP2 ISZERO ISZERO PUSH2 0x5824 JUMP JUMPDEST DUP3 DUP5 MSTORE PUSH1 0x2 DUP6 MSTORE PUSH1 0x40 DUP5 KECCAK256 PUSH1 0x1 DUP1 PUSH1 0xA0 SHL SUB SWAP4 DUP5 DUP5 AND SWAP2 DUP3 PUSH1 0x0 MSTORE DUP8 MSTORE PUSH2 0xEB7 PUSH1 0xFF PUSH1 0x40 PUSH1 0x0 KECCAK256 SLOAD AND PUSH2 0x586F JUMP JUMPDEST DUP5 PUSH1 0xC SLOAD AND SWAP5 PUSH1 0x40 MLOAD PUSH4 0x7C7A72D PUSH1 0xE0 SHL DUP2 MSTORE DUP9 DUP2 DUP1 PUSH2 0xEDB DUP10 DUP8 PUSH1 0x4 DUP5 ADD PUSH2 0x50BE JUMP JUMPDEST SUB DUP2 DUP11 GAS STATICCALL SWAP1 DUP2 ISZERO PUSH2 0x10A3 JUMPI DUP9 SWAP2 PUSH2 0x10DD JUMPI JUMPDEST POP SWAP1 PUSH1 0x4 DUP10 SWAP11 PUSH2 0xF03 PUSH2 0xF24 SWAP11 SWAP12 SWAP5 ISZERO PUSH2 0x58BB JUMP JUMPDEST ADD SLOAD AND DUP1 SWAP6 PUSH1 0x40 MLOAD SWAP9 DUP10 SWAP3 DUP4 SWAP3 PUSH4 0x423E7BC1 PUSH1 0xE1 SHL DUP5 MSTORE DUP7 PUSH1 0x4 DUP6 ADD PUSH2 0x5434 JUMP JUMPDEST SUB DUP2 DUP9 GAS STATICCALL SWAP6 DUP7 ISZERO PUSH2 0x1065 JUMPI DUP8 SWAP7 PUSH2 0x10AE JUMPI JUMPDEST POP PUSH1 0x40 MLOAD PUSH4 0xDC4CE349 PUSH1 0xE0 SHL DUP2 MSTORE SWAP4 DUP9 DUP6 DUP1 PUSH2 0xF58 DUP5 DUP9 DUP8 PUSH1 0x4 DUP6 ADD PUSH2 0x5907 JUMP JUMPDEST SUB DUP2 DUP10 GAS STATICCALL SWAP5 DUP6 ISZERO PUSH2 0x10A3 JUMPI SWAP1 DUP10 SWAP2 DUP10 SWAP7 PUSH2 0x1070 JUMPI JUMPDEST POP PUSH2 0xF90 SWAP6 SWAP7 PUSH1 0x40 MLOAD DUP1 DUP1 SWAP9 DUP2 SWAP5 PUSH4 0x3D1E7BA1 PUSH1 0xE1 SHL DUP4 MSTORE DUP8 PUSH1 0x4 DUP5 ADD PUSH2 0x50BE JUMP JUMPDEST SUB SWAP2 GAS STATICCALL SWAP4 DUP5 ISZERO PUSH2 0x1065 JUMPI DUP8 SWAP5 PUSH2 0x1031 JUMPI JUMPDEST POP DUP5 PUSH2 0xFB7 JUMPI POP POP POP POP POP POP JUMPDEST PUSH1 0x40 MLOAD SWAP1 DUP2 MSTORE RETURN JUMPDEST DUP7 SWAP4 SWAP5 SWAP6 SWAP7 MSTORE PUSH1 0x4 DUP8 MSTORE PUSH1 0x40 DUP4 KECCAK256 SWAP1 PUSH1 0x0 MSTORE DUP7 MSTORE PUSH1 0x40 PUSH1 0x0 KECCAK256 SLOAD EQ PUSH1 0x0 EQ PUSH2 0x1028 JUMPI PUSH2 0x2328 SWAP2 DUP3 DUP2 MUL SWAP3 DUP2 DUP5 DIV EQ SWAP1 ISZERO OR ISZERO PUSH2 0x1014 JUMPI POP PUSH2 0x100F SWAP3 SWAP2 PUSH2 0x1004 PUSH2 0x2710 PUSH2 0x1009 SWAP4 DIV DUP5 PUSH2 0x4F62 JUMP JUMPDEST PUSH2 0x5928 JUMP JUMPDEST SWAP1 PUSH2 0x4F8B JUMP JUMPDEST PUSH2 0xFAF JUMP JUMPDEST PUSH4 0x4E487B71 PUSH1 0xE0 SHL DUP2 MSTORE PUSH1 0x11 PUSH1 0x4 MSTORE PUSH1 0x24 SWAP1 REVERT JUMPDEST SWAP3 POP POP POP PUSH2 0xFAF JUMP JUMPDEST SWAP1 SWAP4 POP DUP8 DUP2 DUP2 RETURNDATASIZE DUP4 GT PUSH2 0x105E JUMPI JUMPDEST PUSH2 0x1049 DUP2 DUP4 PUSH2 0x4D11 JUMP JUMPDEST DUP2 ADD SUB SLT PUSH2 0x1059 JUMPI MLOAD SWAP3 CODESIZE PUSH2 0xFA2 JUMP JUMPDEST PUSH1 0x0 DUP1 REVERT JUMPDEST POP RETURNDATASIZE PUSH2 0x103F JUMP JUMPDEST PUSH1 0x40 MLOAD RETURNDATASIZE DUP10 DUP3 RETURNDATACOPY RETURNDATASIZE SWAP1 REVERT JUMPDEST DUP3 DUP2 SWAP4 SWAP3 SWAP8 POP RETURNDATASIZE DUP4 GT PUSH2 0x109C JUMPI JUMPDEST PUSH2 0x1088 DUP2 DUP4 PUSH2 0x4D11 JUMP JUMPDEST DUP2 ADD SUB SLT PUSH2 0x1059 JUMPI MLOAD SWAP4 DUP9 SWAP1 PUSH2 0xF90 PUSH2 0xF6E JUMP JUMPDEST POP RETURNDATASIZE PUSH2 0x107E JUMP JUMPDEST PUSH1 0x40 MLOAD RETURNDATASIZE DUP11 DUP3 RETURNDATACOPY RETURNDATASIZE SWAP1 REVERT JUMPDEST SWAP1 SWAP6 POP DUP8 DUP2 DUP2 RETURNDATASIZE DUP4 GT PUSH2 0x10D6 JUMPI JUMPDEST PUSH2 0x10C6 DUP2 DUP4 PUSH2 0x4D11 JUMP JUMPDEST DUP2 ADD SUB SLT PUSH2 0x1059 JUMPI MLOAD SWAP5 CODESIZE PUSH2 0xF37 JUMP JUMPDEST POP RETURNDATASIZE PUSH2 0x10BC JUMP JUMPDEST SWAP1 POP DUP9 DUP2 DUP2 RETURNDATASIZE DUP4 GT PUSH2 0x1123 JUMPI JUMPDEST PUSH2 0x10F4 DUP2 DUP4 PUSH2 0x4D11 JUMP JUMPDEST DUP2 ADD SUB SLT PUSH2 0x111F JUMPI SWAP1 PUSH1 0x4 DUP10 SWAP11 PUSH2 0xF03 PUSH2 0x1112 PUSH2 0xF24 SWAP12 SWAP13 SWAP6 PUSH2 0x5532 JUMP JUMPDEST SWAP4 SWAP5 POP POP SWAP11 SWAP10 SWAP9 POP PUSH2 0xEEE JUMP JUMPDEST DUP8 DUP1 REVERT JUMPDEST POP RETURNDATASIZE PUSH2 0x10EA JUMP JUMPDEST PUSH4 0x4E487B71 PUSH1 0xE0 SHL DUP5 MSTORE PUSH1 0x21 PUSH1 0x4 MSTORE PUSH1 0x24 DUP5 REVERT JUMPDEST POP CALLVALUE PUSH2 0x393 JUMPI PUSH1 0x40 CALLDATASIZE PUSH1 0x3 NOT ADD SLT PUSH2 0x393 JUMPI PUSH2 0x1187 SWAP1 PUSH1 0x20 PUSH2 0x115E PUSH2 0x4A46 JUMP JUMPDEST PUSH1 0x1 DUP1 PUSH1 0xA0 SHL SUB PUSH1 0xC SLOAD AND PUSH1 0x40 MLOAD DUP1 DUP1 SWAP7 DUP2 SWAP5 PUSH4 0x3D1E7BA1 PUSH1 0xE1 SHL DUP4 MSTORE PUSH1 0x4 CALLDATALOAD PUSH1 0x4 DUP5 ADD PUSH2 0x50BE JUMP JUMPDEST SUB SWAP2 GAS STATICCALL SWAP1 DUP2 ISZERO PUSH2 0x11D5 JUMPI SWAP1 PUSH2 0x11A3 JUMPI JUMPDEST PUSH1 0x20 SWAP1 PUSH1 0x40 MLOAD SWAP1 DUP2 MSTORE RETURN JUMPDEST POP PUSH1 0x20 DUP2 RETURNDATASIZE DUP3 GT PUSH2 0x11CD JUMPI JUMPDEST DUP2 PUSH2 0x11BC PUSH1 0x20 SWAP4 DUP4 PUSH2 0x4D11 JUMP JUMPDEST DUP2 ADD SUB SLT PUSH2 0x1059 JUMPI PUSH1 0x20 SWAP1 MLOAD PUSH2 0x1198 JUMP JUMPDEST RETURNDATASIZE SWAP2 POP PUSH2 0x11AF JUMP JUMPDEST PUSH1 0x40 MLOAD SWAP1 RETURNDATASIZE SWAP1 DUP3 RETURNDATACOPY RETURNDATASIZE SWAP1 REVERT JUMPDEST POP CALLVALUE PUSH2 0x393 JUMPI PUSH1 0x20 CALLDATASIZE PUSH1 0x3 NOT ADD SLT PUSH2 0x393 JUMPI PUSH1 0x40 PUSH2 0x3E5 SWAP2 PUSH2 0x1201 PUSH2 0x5F76 JUMP JUMPDEST POP PUSH1 0x4 CALLDATALOAD DUP2 MSTORE PUSH1 0x1 PUSH1 0x20 MSTORE KECCAK256 PUSH1 0xFF PUSH1 0xE PUSH1 0x40 MLOAD SWAP3 PUSH2 0x121E DUP5 PUSH2 0x4CDA JUMP JUMPDEST DUP1 SLOAD PUSH1 0x1 PUSH1 0x1 PUSH1 0xA0 SHL SUB SWAP1 DUP2 AND DUP6 MSTORE PUSH2 0x1239 PUSH1 0x1 DUP4 ADD PUSH2 0x4DF5 JUMP JUMPDEST PUSH1 0x20 DUP7 ADD MSTORE DUP4 PUSH1 0x2 DUP4 ADD SLOAD AND ISZERO ISZERO PUSH1 0x40 DUP7 ADD MSTORE PUSH1 0x3 DUP3 ADD SLOAD PUSH1 0x60 DUP7 ADD MSTORE PUSH1 0x4 DUP3 ADD SLOAD AND PUSH1 0x80 DUP6 ADD MSTORE PUSH1 0x5 DUP2 ADD SLOAD PUSH1 0xA0 DUP6 ADD MSTORE PUSH1 0x6 DUP2 ADD SLOAD PUSH1 0xC0 DUP6 ADD MSTORE PUSH1 0x7 DUP2 ADD SLOAD PUSH1 0xE0 DUP6 ADD MSTORE PUSH1 0x8 DUP2 ADD SLOAD PUSH2 0x100 DUP6 ADD MSTORE PUSH1 0x9 DUP2 ADD SLOAD PUSH2 0x120 DUP6 ADD MSTORE PUSH1 0xA DUP2 ADD SLOAD PUSH2 0x140 DUP6 ADD MSTORE PUSH1 0xB DUP2 ADD SLOAD PUSH2 0x160 DUP6 ADD MSTORE PUSH2 0x12BF DUP4 PUSH1 0xC DUP4 ADD SLOAD AND PUSH2 0x180 DUP7 ADD PUSH2 0x4FA7 JUMP JUMPDEST PUSH1 0xD DUP2 ADD SLOAD PUSH2 0x1A0 DUP6 ADD MSTORE ADD SLOAD AND ISZERO ISZERO PUSH2 0x1C0 DUP3 ADD MSTORE PUSH1 0x40 MLOAD SWAP2 DUP3 SWAP2 PUSH1 0x20 DUP4 MSTORE PUSH1 0x20 DUP4 ADD SWAP1 PUSH2 0x4C06 JUMP JUMPDEST POP CALLVALUE PUSH2 0x393 JUMPI PUSH1 0x40 CALLDATASIZE PUSH1 0x3 NOT ADD SLT PUSH2 0x393 JUMPI PUSH1 0x4 CALLDATALOAD DUP1 ISZERO ISZERO SWAP1 DUP2 DUP2 SUB PUSH2 0x1059 JUMPI PUSH1 0x24 CALLDATALOAD SWAP2 PUSH2 0x1315 PUSH2 0x4E9B JUMP JUMPDEST PUSH1 0xFF DUP1 NOT PUSH1 0x12 SLOAD AND SWAP2 AND OR PUSH1 0x12 SSTORE PUSH2 0x132B JUMPI POP DUP1 RETURN JUMPDEST DUP1 ISZERO PUSH2 0x1337 JUMPI PUSH1 0x13 SSTORE DUP1 RETURN JUMPDEST PUSH1 0x40 MLOAD PUSH3 0x461BCD PUSH1 0xE5 SHL DUP2 MSTORE PUSH1 0x20 PUSH1 0x4 DUP3 ADD MSTORE PUSH1 0x2B PUSH1 0x24 DUP3 ADD MSTORE PUSH32 0x4D61726B65744D616E616765723A20496E76616C696420726573747269637469 PUSH1 0x44 DUP3 ADD MSTORE PUSH11 0x37B710323AB930BA34B7B7 PUSH1 0xA9 SHL PUSH1 0x64 DUP3 ADD MSTORE PUSH1 0x84 SWAP1 REVERT JUMPDEST POP CALLVALUE PUSH2 0x393 JUMPI PUSH1 0x60 CALLDATASIZE PUSH1 0x3 NOT ADD SLT PUSH2 0x393 JUMPI PUSH1 0x44 CALLDATALOAD SWAP1 PUSH1 0x1 PUSH1 0x1 PUSH1 0xA0 SHL SUB DUP1 DUP4 AND DUP4 SUB PUSH2 0x1059 JUMPI PUSH2 0x1187 SWAP3 PUSH1 0x20 SWAP2 PUSH1 0xC SLOAD AND PUSH1 0x40 MLOAD DUP1 DUP1 SWAP7 DUP2 SWAP5 PUSH4 0xDC4CE349 PUSH1 0xE0 SHL DUP4 MSTORE PUSH1 0x24 CALLDATALOAD PUSH1 0x4 CALLDATALOAD PUSH1 0x4 DUP6 ADD PUSH2 0x5907 JUMP JUMPDEST POP CALLVALUE PUSH2 0x393 JUMPI PUSH1 0x40 CALLDATASIZE PUSH1 0x3 NOT ADD SLT PUSH2 0x393 JUMPI PUSH2 0x13FD PUSH2 0x4A30 JUMP JUMPDEST PUSH2 0x1405 PUSH2 0x4DAC JUMP JUMPDEST PUSH2 0x140D PUSH2 0x4E9B JUMP JUMPDEST PUSH1 0x1 PUSH1 0x1 PUSH1 0xA0 SHL SUB DUP3 DUP2 AND SWAP2 DUP3 ISZERO PUSH2 0x1585 JUMPI DUP3 DUP6 MSTORE PUSH1 0xA PUSH1 0x20 MSTORE PUSH1 0x40 DUP6 KECCAK256 SWAP1 PUSH2 0x143B DUP2 PUSH1 0xFF DUP5 SLOAD AND SWAP4 PUSH2 0x4FCA JUMP JUMPDEST DUP1 DUP1 PUSH2 0x157D JUMPI JUMPDEST ISZERO PUSH2 0x14A7 JUMPI POP POP PUSH1 0xB SLOAD SWAP3 SWAP2 POP POP PUSH1 0x1 PUSH1 0x40 SHL DUP3 LT ISZERO PUSH2 0x1491 JUMPI PUSH2 0x146F DUP3 PUSH1 0x1 PUSH2 0x148E SWAP5 ADD PUSH1 0xB SSTORE PUSH2 0x4AC2 JUMP JUMPDEST SWAP1 SWAP2 SWAP1 DUP3 SLOAD SWAP1 PUSH1 0x3 SHL SWAP2 PUSH1 0x1 DUP1 PUSH1 0xA0 SHL SUB DUP1 SWAP2 AND DUP4 SHL SWAP3 SHL NOT AND OR SWAP1 SSTORE JUMP JUMPDEST DUP1 RETURN JUMPDEST PUSH4 0x4E487B71 PUSH1 0xE0 SHL PUSH1 0x0 MSTORE PUSH1 0x41 PUSH1 0x4 MSTORE PUSH1 0x24 PUSH1 0x0 REVERT JUMPDEST SWAP1 SWAP2 SWAP3 SWAP4 POP ISZERO SWAP1 DUP2 PUSH2 0x1575 JUMPI JUMPDEST POP PUSH2 0x14BE JUMPI POP POP DUP1 RETURN JUMPDEST DUP3 JUMPDEST PUSH1 0xB DUP1 SLOAD DUP1 DUP4 LT ISZERO PUSH2 0x156D JUMPI DUP4 DUP6 PUSH2 0x14D7 DUP6 PUSH2 0x4AC2 JUMP JUMPDEST SWAP3 SWAP1 SLOAD PUSH1 0x3 SWAP4 DUP5 SHL SHR AND EQ PUSH2 0x14F7 JUMPI POP POP POP PUSH2 0x14F2 SWAP1 PUSH2 0x4F98 JUMP JUMPDEST PUSH2 0x14C0 JUMP JUMPDEST SWAP2 SWAP5 POP PUSH1 0x0 NOT SWAP4 SWAP2 SWAP1 DUP5 DUP2 ADD SWAP1 DUP2 GT PUSH2 0x76A JUMPI SWAP2 PUSH2 0x146F SWAP2 PUSH2 0x151C PUSH2 0x1528 SWAP6 SWAP5 PUSH2 0x4AC2 JUMP JUMPDEST SWAP1 SLOAD SWAP2 SHL SHR AND SWAP2 PUSH2 0x4AC2 JUMP JUMPDEST DUP2 SLOAD DUP1 ISZERO PUSH2 0x1557 JUMPI ADD SWAP1 PUSH2 0x1553 PUSH2 0x153E DUP4 PUSH2 0x4AC2 JUMP JUMPDEST DUP2 SLOAD SWAP1 PUSH1 0x1 DUP1 PUSH1 0xA0 SHL SUB SWAP1 PUSH1 0x3 SHL SHL NOT AND SWAP1 SSTORE JUMP JUMPDEST SSTORE DUP1 RETURN JUMPDEST PUSH4 0x4E487B71 PUSH1 0xE0 SHL PUSH1 0x0 MSTORE PUSH1 0x31 PUSH1 0x4 MSTORE PUSH1 0x24 PUSH1 0x0 REVERT JUMPDEST POP POP POP POP POP DUP1 RETURN JUMPDEST SWAP1 POP CODESIZE PUSH2 0x14B4 JUMP JUMPDEST POP DUP2 ISZERO PUSH2 0x1442 JUMP JUMPDEST PUSH1 0x40 MLOAD PUSH3 0x461BCD PUSH1 0xE5 SHL DUP2 MSTORE PUSH1 0x20 PUSH1 0x4 DUP3 ADD MSTORE PUSH1 0x25 PUSH1 0x24 DUP3 ADD MSTORE PUSH32 0x4D61726B65744D616E616765723A20496E76616C69642077616C6C6574206164 PUSH1 0x44 DUP3 ADD MSTORE PUSH5 0x6472657373 PUSH1 0xD8 SHL PUSH1 0x64 DUP3 ADD MSTORE PUSH1 0x84 SWAP1 REVERT JUMPDEST POP CALLVALUE PUSH2 0x393 JUMPI PUSH1 0x40 CALLDATASIZE PUSH1 0x3 NOT ADD SLT PUSH2 0x393 JUMPI PUSH1 0x40 PUSH2 0x15F4 PUSH2 0x4A46 JUMP JUMPDEST SWAP2 PUSH1 0x4 CALLDATALOAD DUP2 MSTORE PUSH1 0x4 PUSH1 0x20 MSTORE KECCAK256 SWAP1 PUSH1 0x1 DUP1 PUSH1 0xA0 SHL SUB AND PUSH1 0x0 MSTORE PUSH1 0x20 MSTORE PUSH1 0x20 PUSH1 0x40 PUSH1 0x0 KECCAK256 SLOAD PUSH1 0x40 MLOAD SWAP1 DUP2 MSTORE RETURN JUMPDEST POP CALLVALUE PUSH2 0x393 JUMPI PUSH2 0x162E CALLDATASIZE PUSH2 0x4D96 JUMP JUMPDEST SWAP2 SWAP1 DUP2 MSTORE PUSH1 0x5 PUSH1 0x20 MSTORE PUSH1 0x40 DUP2 KECCAK256 SWAP1 DUP2 SLOAD DUP4 LT ISZERO PUSH2 0x393 JUMPI PUSH1 0x20 PUSH2 0x1651 DUP5 DUP5 PUSH2 0x4B13 JUMP JUMPDEST SWAP1 SLOAD PUSH1 0x40 MLOAD PUSH1 0x3 SWAP3 SWAP1 SWAP3 SHL SHR PUSH1 0x1 PUSH1 0x1 PUSH1 0xA0 SHL SUB AND DUP2 MSTORE RETURN JUMPDEST POP CALLVALUE PUSH2 0x393 JUMPI DUP1 PUSH1 0x3 NOT CALLDATASIZE ADD SLT PUSH2 0x393 JUMPI PUSH1 0x9 SLOAD PUSH2 0x1687 DUP2 PUSH2 0x5E04 JUMP JUMPDEST SWAP1 PUSH2 0x1695 PUSH1 0x40 MLOAD SWAP3 DUP4 PUSH2 0x4D11 JUMP JUMPDEST DUP1 DUP3 MSTORE PUSH1 0x1F NOT SWAP3 DUP4 PUSH2 0x16A6 DUP4 PUSH2 0x5E04 JUMP JUMPDEST ADD SWAP4 PUSH1 0x20 SWAP5 CALLDATASIZE DUP7 DUP7 ADD CALLDATACOPY PUSH2 0x16B9 DUP4 PUSH2 0x5E04 JUMP JUMPDEST SWAP3 PUSH2 0x16C7 PUSH1 0x40 MLOAD SWAP5 DUP6 PUSH2 0x4D11 JUMP JUMPDEST DUP1 DUP5 MSTORE DUP2 PUSH2 0x16D4 DUP3 PUSH2 0x5E04 JUMP JUMPDEST ADD DUP4 JUMPDEST DUP2 DUP2 LT PUSH2 0x17D0 JUMPI POP POP DUP3 JUMPDEST DUP2 DUP2 LT PUSH2 0x175B JUMPI POP POP PUSH2 0x1700 PUSH1 0x40 MLOAD SWAP5 PUSH1 0x40 DUP7 MSTORE PUSH1 0x40 DUP7 ADD SWAP1 PUSH2 0x4B66 JUMP JUMPDEST SWAP5 DUP5 DUP7 SUB DUP2 DUP7 ADD MSTORE DUP4 MLOAD SWAP2 DUP3 DUP8 MSTORE DUP2 DUP8 ADD SWAP1 DUP3 DUP1 DUP6 PUSH1 0x5 SHL DUP11 ADD ADD SWAP7 ADD SWAP5 SWAP8 JUMPDEST DUP5 DUP10 LT PUSH2 0x172D JUMPI DUP8 DUP8 SUB DUP9 RETURN JUMPDEST SWAP1 SWAP2 SWAP3 SWAP4 SWAP5 SWAP6 DUP5 DUP1 PUSH2 0x1749 DUP4 DUP7 DUP7 PUSH1 0x1 SWAP7 SUB ADD DUP9 MSTORE DUP11 MLOAD PUSH2 0x4BA3 JUMP JUMPDEST SWAP9 ADD SWAP5 ADD SWAP9 ADD SWAP8 SWAP2 SWAP1 SWAP5 SWAP4 SWAP3 SWAP5 PUSH2 0x1720 JUMP JUMPDEST DUP1 PUSH2 0x176C PUSH2 0x17C7 SWAP3 SWAP9 SWAP5 SWAP6 SWAP9 PUSH2 0x4A91 JUMP JUMPDEST SWAP1 SLOAD PUSH1 0x1 PUSH1 0x1 PUSH1 0xA0 SHL SUB SWAP2 PUSH1 0x3 SWAP2 SWAP1 DUP3 SHL SHR DUP3 AND PUSH2 0x178A DUP5 DUP12 PUSH2 0x5E1B JUMP JUMPDEST MSTORE PUSH2 0x1794 DUP4 PUSH2 0x4A91 JUMP JUMPDEST SWAP1 SLOAD SWAP2 SHL SHR AND DUP9 MSTORE PUSH1 0x8 DUP5 MSTORE PUSH2 0x17AC PUSH1 0x40 DUP10 KECCAK256 PUSH2 0x4DF5 JUMP JUMPDEST PUSH2 0x17B6 DUP3 DUP9 PUSH2 0x5E1B JUMP JUMPDEST MSTORE PUSH2 0x17C1 DUP2 DUP8 PUSH2 0x5E1B JUMP JUMPDEST POP PUSH2 0x4F98 JUMP JUMPDEST SWAP6 SWAP3 SWAP2 SWAP6 PUSH2 0x16E2 JUMP JUMPDEST PUSH1 0x60 DUP7 DUP3 ADD DUP10 ADD MSTORE DUP8 ADD PUSH2 0x16D7 JUMP JUMPDEST POP CALLVALUE PUSH2 0x393 JUMPI DUP1 PUSH1 0x3 NOT CALLDATASIZE ADD SLT PUSH2 0x393 JUMPI PUSH1 0x20 PUSH1 0x9 SLOAD PUSH1 0x40 MLOAD SWAP1 DUP2 MSTORE RETURN JUMPDEST POP CALLVALUE PUSH2 0x393 JUMPI DUP1 PUSH1 0x3 NOT CALLDATASIZE ADD SLT PUSH2 0x393 JUMPI PUSH1 0x17 SLOAD PUSH2 0x181A DUP2 PUSH2 0x5FE6 JUMP JUMPDEST DUP3 SWAP2 DUP4 JUMPDEST DUP2 DUP2 LT PUSH2 0x186B JUMPI POP POP PUSH2 0x1830 DUP3 PUSH2 0x5FE6 JUMP JUMPDEST SWAP3 JUMPDEST DUP3 DUP2 LT PUSH2 0x1847 JUMPI PUSH1 0x40 MLOAD DUP1 PUSH2 0x3E5 DUP7 DUP3 PUSH2 0x4B2B JUMP JUMPDEST DUP1 PUSH2 0x1855 PUSH2 0x1866 SWAP3 DUP5 PUSH2 0x5E1B JUMP JUMPDEST MLOAD PUSH2 0x1860 DUP3 DUP8 PUSH2 0x5E1B JUMP JUMPDEST MSTORE PUSH2 0x4F98 JUMP JUMPDEST PUSH2 0x1832 JUMP JUMPDEST PUSH2 0x1874 DUP2 PUSH2 0x4AF8 JUMP JUMPDEST SWAP1 SLOAD SWAP1 PUSH1 0x3 SHL SHR DUP1 DUP7 MSTORE PUSH1 0x20 PUSH1 0x1 DUP2 MSTORE PUSH1 0xFF PUSH1 0xC PUSH1 0x40 DUP10 KECCAK256 ADD SLOAD AND PUSH1 0x5 DUP2 LT ISZERO PUSH2 0x18F4 JUMPI PUSH1 0x4 EQ SWAP1 DUP2 PUSH2 0x18D1 JUMPI JUMPDEST POP PUSH2 0x18B7 JUMPI JUMPDEST POP PUSH2 0x18B2 SWAP1 PUSH2 0x4F98 JUMP JUMPDEST PUSH2 0x181E JUMP JUMPDEST DUP5 PUSH2 0x18CA SWAP2 PUSH2 0x1860 PUSH2 0x18B2 SWAP5 SWAP8 DUP8 PUSH2 0x5E1B JUMP JUMPDEST SWAP4 SWAP1 PUSH2 0x18A8 JUMP JUMPDEST PUSH1 0x18 SWAP2 POP DUP3 DUP9 MSTORE MSTORE PUSH1 0x40 DUP7 KECCAK256 SLOAD PUSH3 0x278D00 DUP2 ADD DUP1 SWAP2 GT PUSH2 0x76A JUMPI TIMESTAMP LT ISZERO CODESIZE PUSH2 0x18A2 JUMP JUMPDEST PUSH4 0x4E487B71 PUSH1 0xE0 SHL DUP9 MSTORE PUSH1 0x21 PUSH1 0x4 MSTORE PUSH1 0x24 DUP9 REVERT JUMPDEST POP CALLVALUE PUSH2 0x393 JUMPI PUSH1 0x20 CALLDATASIZE PUSH1 0x3 NOT ADD SLT PUSH2 0x393 JUMPI PUSH1 0x4 CALLDATALOAD DUP1 DUP3 MSTORE PUSH1 0x1 PUSH1 0x20 MSTORE PUSH1 0x40 DUP3 KECCAK256 DUP1 SLOAD PUSH1 0x1 PUSH1 0x1 PUSH1 0xA0 SHL SUB AND CALLER SUB PUSH2 0x1A04 JUMPI PUSH1 0xFF PUSH1 0xC DUP3 ADD SLOAD AND PUSH1 0x5 DUP2 LT ISZERO PUSH2 0x112A JUMPI SWAP1 PUSH2 0x1958 PUSH1 0x9 SWAP3 ISZERO PUSH2 0x51B5 JUMP JUMPDEST ADD SLOAD PUSH2 0xA8BF NOT DUP2 ADD SWAP1 DUP2 GT PUSH2 0x19F0 JUMPI TIMESTAMP LT ISZERO PUSH2 0x19A1 JUMPI PUSH1 0x40 MLOAD PUSH2 0x148E SWAP2 PUSH2 0x197E DUP3 PUSH2 0x4CF6 JUMP JUMPDEST PUSH1 0x11 DUP3 MSTORE PUSH17 0x10DC99585D1BDC8818D85B98D95B1B1959 PUSH1 0x7A SHL PUSH1 0x20 DUP4 ADD MSTORE PUSH2 0x5948 JUMP JUMPDEST PUSH1 0x40 MLOAD PUSH3 0x461BCD PUSH1 0xE5 SHL DUP2 MSTORE PUSH1 0x20 PUSH1 0x4 DUP3 ADD MSTORE PUSH1 0x21 PUSH1 0x24 DUP3 ADD MSTORE PUSH32 0x4D61726B65744D616E616765723A20546F6F206C61746520746F2063616E6365 PUSH1 0x44 DUP3 ADD MSTORE PUSH1 0x1B PUSH1 0xFA SHL PUSH1 0x64 DUP3 ADD MSTORE PUSH1 0x84 SWAP1 REVERT JUMPDEST PUSH4 0x4E487B71 PUSH1 0xE0 SHL DUP4 MSTORE PUSH1 0x11 PUSH1 0x4 MSTORE PUSH1 0x24 DUP4 REVERT JUMPDEST PUSH1 0x40 MLOAD PUSH3 0x461BCD PUSH1 0xE5 SHL DUP2 MSTORE PUSH1 0x20 PUSH1 0x4 DUP3 ADD MSTORE PUSH1 0x26 PUSH1 0x24 DUP3 ADD MSTORE PUSH32 0x4D61726B65744D616E616765723A204F6E6C792063726561746F722063616E20 PUSH1 0x44 DUP3 ADD MSTORE PUSH6 0x18D85B98D95B PUSH1 0xD2 SHL PUSH1 0x64 DUP3 ADD MSTORE PUSH1 0x84 SWAP1 REVERT JUMPDEST POP CALLVALUE PUSH2 0x393 JUMPI PUSH2 0x1A67 CALLDATASIZE PUSH2 0x4D96 JUMP JUMPDEST SWAP2 SWAP1 DUP2 MSTORE PUSH1 0x6 PUSH1 0x20 MSTORE PUSH1 0x40 DUP2 KECCAK256 SWAP1 DUP2 SLOAD DUP4 LT ISZERO PUSH2 0x393 JUMPI PUSH1 0x20 PUSH2 0x1651 DUP5 DUP5 PUSH2 0x4B13 JUMP JUMPDEST POP CALLVALUE PUSH2 0x393 JUMPI DUP1 PUSH1 0x3 NOT CALLDATASIZE ADD SLT PUSH2 0x393 JUMPI PUSH1 0x20 PUSH1 0x13 SLOAD PUSH1 0x40 MLOAD SWAP1 DUP2 MSTORE RETURN JUMPDEST POP CALLVALUE PUSH2 0x393 JUMPI DUP1 PUSH1 0x3 NOT CALLDATASIZE ADD SLT PUSH2 0x393 JUMPI PUSH1 0xF SLOAD PUSH1 0x0 NOT SWAP1 DUP2 DUP2 ADD DUP2 DUP2 GT PUSH2 0x1B1E JUMPI PUSH2 0x1AD3 SWAP1 PUSH2 0x5FE6 JUMP JUMPDEST SWAP2 PUSH1 0x1 JUMPDEST DUP3 DUP2 LT PUSH2 0x1AEC JUMPI PUSH1 0x40 MLOAD DUP1 PUSH2 0x3E5 DUP7 DUP3 PUSH2 0x4B2B JUMP JUMPDEST DUP2 DUP2 ADD DUP2 DUP2 GT PUSH2 0x1B0A JUMPI SWAP1 DUP1 PUSH2 0x1860 PUSH2 0x1B05 SWAP4 DUP8 PUSH2 0x5E1B JUMP JUMPDEST PUSH2 0x1AD7 JUMP JUMPDEST PUSH4 0x4E487B71 PUSH1 0xE0 SHL DUP7 MSTORE PUSH1 0x11 PUSH1 0x4 MSTORE PUSH1 0x24 DUP7 REVERT JUMPDEST PUSH4 0x4E487B71 PUSH1 0xE0 SHL DUP5 MSTORE PUSH1 0x11 PUSH1 0x4 MSTORE PUSH1 0x24 DUP5 REVERT JUMPDEST POP CALLVALUE PUSH2 0x393 JUMPI PUSH1 0x20 CALLDATASIZE PUSH1 0x3 NOT ADD SLT PUSH2 0x393 JUMPI PUSH1 0x4 CALLDATALOAD DUP2 MSTORE PUSH1 0x1 PUSH1 0x20 MSTORE PUSH1 0x40 SWAP1 KECCAK256 PUSH1 0x1 PUSH1 0xA0 SHL PUSH1 0x1 SWAP1 SUB DUP1 DUP3 SLOAD AND SWAP2 PUSH1 0x1 DUP2 ADD PUSH2 0x1B6D SWAP1 PUSH2 0x4DF5 JUMP JUMPDEST SWAP2 PUSH1 0x2 DUP3 ADD SLOAD PUSH1 0xFF AND SWAP2 PUSH1 0x3 DUP2 ADD SLOAD SWAP2 PUSH1 0x4 DUP3 ADD SLOAD AND PUSH1 0x5 DUP3 ADD SLOAD PUSH1 0x6 DUP4 ADD SLOAD PUSH1 0x7 DUP5 ADD SLOAD PUSH1 0x8 DUP6 ADD SLOAD PUSH1 0x9 DUP7 ADD SLOAD SWAP2 PUSH1 0xA DUP8 ADD SLOAD SWAP4 PUSH1 0xB DUP9 ADD SLOAD SWAP6 PUSH1 0xC DUP10 ADD SLOAD PUSH1 0xFF AND SWAP8 PUSH1 0xD DUP11 ADD SLOAD SWAP10 PUSH1 0xE ADD SLOAD PUSH1 0xFF AND SWAP11 PUSH1 0x40 MLOAD SWAP15 DUP16 SWAP15 DUP16 SWAP2 DUP3 MSTORE PUSH2 0x1E0 DUP1 PUSH1 0x20 DUP5 ADD MSTORE DUP3 ADD PUSH2 0x1BDE SWAP2 PUSH2 0x4BA3 JUMP JUMPDEST SWAP14 ISZERO ISZERO PUSH1 0x40 DUP3 ADD MSTORE PUSH1 0x60 ADD MSTORE PUSH1 0x80 DUP14 ADD MSTORE PUSH1 0xA0 DUP13 ADD MSTORE PUSH1 0xC0 DUP12 ADD MSTORE PUSH1 0xE0 DUP11 ADD MSTORE PUSH2 0x100 DUP10 ADD MSTORE PUSH2 0x120 DUP9 ADD MSTORE PUSH2 0x140 DUP8 ADD MSTORE PUSH2 0x160 DUP7 ADD MSTORE PUSH2 0x180 DUP6 ADD PUSH2 0x1C24 SWAP2 PUSH2 0x4BE3 JUMP JUMPDEST PUSH2 0x1A0 DUP5 ADD MSTORE ISZERO ISZERO PUSH2 0x1C0 DUP4 ADD MSTORE SUB SWAP1 RETURN JUMPDEST POP CALLVALUE PUSH2 0x393 JUMPI PUSH1 0x20 CALLDATASIZE PUSH1 0x3 NOT ADD SLT PUSH2 0x393 JUMPI PUSH1 0x4 CALLDATALOAD SWAP1 DUP2 DUP2 MSTORE PUSH1 0x1 PUSH1 0x20 MSTORE PUSH1 0x40 DUP2 KECCAK256 SWAP2 PUSH1 0xC DUP4 ADD SWAP3 DUP4 SLOAD PUSH1 0xFF DUP2 AND SWAP5 PUSH1 0x5 DUP7 LT ISZERO PUSH2 0x1DFB JUMPI PUSH2 0x1C7E PUSH1 0x1 PUSH1 0x24 SWAP6 SWAP7 SWAP8 EQ PUSH2 0x5454 JUMP JUMPDEST PUSH1 0xE DUP4 ADD SWAP3 DUP4 SLOAD PUSH2 0x1C92 PUSH1 0xFF DUP3 AND ISZERO PUSH2 0x54B1 JUMP JUMPDEST PUSH1 0xD SLOAD PUSH1 0x40 DUP1 MLOAD PUSH4 0x33138655 PUSH1 0xE2 SHL DUP2 MSTORE PUSH1 0x4 DUP2 ADD DUP11 SWAP1 MSTORE SWAP8 PUSH1 0x1 PUSH1 0x1 PUSH1 0xA0 SHL SUB SWAP7 SWAP3 DUP10 SWAP2 SWAP1 DUP3 SWAP1 DUP10 AND GAS STATICCALL SWAP7 DUP8 ISZERO PUSH2 0x1DF0 JUMPI DUP10 SWAP1 DUP11 SWAP9 PUSH2 0x1DBC JUMPI JUMPDEST POP ISZERO PUSH2 0x1D6B JUMPI DUP9 SWAP6 DUP8 PUSH1 0xD PUSH1 0x2 SWAP6 ADD SSTORE PUSH1 0x1 PUSH1 0xFF NOT DUP1 SWAP5 AND OR SWAP1 SSTORE AND OR SWAP1 SSTORE PUSH2 0x1CF6 DUP5 PUSH2 0x59AC JUMP JUMPDEST PUSH1 0xE SLOAD AND DUP1 PUSH2 0x1D1E JUMPI JUMPDEST POP POP PUSH1 0x20 PUSH1 0x0 DUP1 MLOAD PUSH1 0x20 PUSH2 0x60D9 DUP4 CODECOPY DUP2 MLOAD SWAP2 MSTORE SWAP2 PUSH1 0x40 MLOAD SWAP1 DUP2 MSTORE LOG2 DUP1 RETURN JUMPDEST DUP1 EXTCODESIZE ISZERO PUSH2 0x622 JUMPI DUP2 DUP1 SWAP2 PUSH1 0x44 PUSH1 0x40 MLOAD DUP1 SWAP5 DUP2 SWAP4 PUSH3 0xFF4A73 PUSH1 0xE8 SHL DUP4 MSTORE DUP10 PUSH1 0x4 DUP5 ADD MSTORE DUP9 PUSH1 0x24 DUP5 ADD MSTORE GAS CALL DUP1 ISZERO PUSH2 0x617 JUMPI ISZERO PUSH2 0x1D00 JUMPI PUSH2 0x1D5C SWAP1 PUSH2 0x4CC7 JUMP JUMPDEST PUSH2 0x1D67 JUMPI DUP3 CODESIZE PUSH2 0x1D00 JUMP JUMPDEST DUP3 DUP1 REVERT JUMPDEST PUSH1 0x40 MLOAD PUSH3 0x461BCD PUSH1 0xE5 SHL DUP2 MSTORE PUSH1 0x20 PUSH1 0x4 DUP3 ADD MSTORE PUSH1 0x24 DUP1 DUP3 ADD MSTORE PUSH32 0x4D61726B65744D616E616765723A204E6F207265736F6C7574696F6E20726561 PUSH1 0x44 DUP3 ADD MSTORE PUSH4 0x18DA1959 PUSH1 0xE2 SHL PUSH1 0x64 DUP3 ADD MSTORE PUSH1 0x84 SWAP1 REVERT JUMPDEST SWAP1 POP PUSH2 0x1DE1 SWAP2 SWAP8 POP PUSH1 0x40 RETURNDATASIZE PUSH1 0x40 GT PUSH2 0x1DE9 JUMPI JUMPDEST PUSH2 0x1DD9 DUP2 DUP4 PUSH2 0x4D11 JUMP JUMPDEST DUP2 ADD SWAP1 PUSH2 0x553F JUMP JUMPDEST SWAP7 SWAP1 CODESIZE PUSH2 0x1CCE JUMP JUMPDEST POP RETURNDATASIZE PUSH2 0x1DCF JUMP JUMPDEST PUSH1 0x40 MLOAD RETURNDATASIZE DUP12 DUP3 RETURNDATACOPY RETURNDATASIZE SWAP1 REVERT JUMPDEST PUSH4 0x4E487B71 PUSH1 0xE0 SHL DUP6 MSTORE PUSH1 0x21 PUSH1 0x4 MSTORE PUSH1 0x24 DUP6 REVERT JUMPDEST POP CALLVALUE PUSH2 0x393 JUMPI PUSH1 0x20 CALLDATASIZE PUSH1 0x3 NOT ADD SLT PUSH2 0x393 JUMPI PUSH1 0x40 PUSH1 0x20 SWAP2 PUSH1 0x4 CALLDATALOAD DUP2 MSTORE PUSH1 0x18 DUP4 MSTORE KECCAK256 SLOAD PUSH1 0x40 MLOAD SWAP1 DUP2 MSTORE RETURN JUMPDEST POP CALLVALUE PUSH2 0x393 JUMPI PUSH1 0x20 CALLDATASIZE PUSH1 0x3 NOT ADD SLT PUSH2 0x393 JUMPI PUSH1 0x4 CALLDATALOAD SWAP1 PUSH1 0xB SLOAD DUP3 LT ISZERO PUSH2 0x393 JUMPI PUSH1 0x20 PUSH2 0x1651 DUP4 PUSH2 0x4AC2 JUMP JUMPDEST POP CALLVALUE PUSH2 0x393 JUMPI DUP1 PUSH1 0x3 NOT CALLDATASIZE ADD SLT PUSH2 0x393 JUMPI PUSH1 0x40 MLOAD PUSH1 0x14 DUP1 SLOAD DUP1 DUP4 MSTORE SWAP1 DUP4 MSTORE PUSH1 0x20 DUP1 DUP4 ADD SWAP4 PUSH32 0xCE6D7B5282BD9A3661AE061FEED1DBDA4E52AB073B1F9285BE6E155D9C38D4EC SWAP3 SWAP2 JUMPDEST DUP3 DUP3 LT PUSH2 0x1ECF JUMPI PUSH2 0x3E5 DUP6 PUSH2 0x1EC3 DUP2 DUP10 SUB DUP3 PUSH2 0x4D11 JUMP JUMPDEST PUSH1 0x40 MLOAD SWAP2 DUP3 SWAP2 DUP3 PUSH2 0x4B2B JUMP JUMPDEST DUP4 SLOAD DUP7 MSTORE SWAP5 DUP6 ADD SWAP5 PUSH1 0x1 SWAP4 DUP5 ADD SWAP4 SWAP1 SWAP2 ADD SWAP1 PUSH2 0x1EAC JUMP JUMPDEST POP CALLVALUE PUSH2 0x393 JUMPI PUSH1 0x20 CALLDATASIZE PUSH1 0x3 NOT ADD SLT PUSH2 0x393 JUMPI PUSH1 0x40 PUSH1 0x20 SWAP2 PUSH1 0x4 CALLDATALOAD DUP2 MSTORE PUSH1 0x6 DUP4 MSTORE KECCAK256 SLOAD PUSH1 0x40 MLOAD SWAP1 DUP2 MSTORE RETURN JUMPDEST POP CALLVALUE PUSH2 0x393 JUMPI PUSH1 0x20 CALLDATASIZE PUSH1 0x3 NOT ADD SLT PUSH2 0x393 JUMPI PUSH2 0x1F2A PUSH2 0x4E9B JUMP JUMPDEST PUSH1 0x4 CALLDATALOAD PUSH1 0x10 SSTORE DUP1 RETURN JUMPDEST POP CALLVALUE PUSH2 0x393 JUMPI PUSH1 0x40 CALLDATASIZE PUSH1 0x3 NOT ADD SLT PUSH2 0x393 JUMPI PUSH2 0x1F4D PUSH2 0x4A30 JUMP JUMPDEST PUSH1 0x1 PUSH1 0x1 PUSH1 0xA0 SHL SUB AND DUP2 MSTORE PUSH1 0x16 PUSH1 0x20 MSTORE PUSH1 0x40 DUP2 KECCAK256 DUP1 SLOAD PUSH1 0x24 CALLDATALOAD SWAP3 SWAP1 DUP4 LT ISZERO PUSH2 0x393 JUMPI PUSH1 0x20 PUSH2 0x1F7B DUP5 DUP5 PUSH2 0x4B13 JUMP JUMPDEST SWAP1 SLOAD PUSH1 0x40 MLOAD SWAP2 PUSH1 0x3 SHL SHR DUP2 MSTORE RETURN JUMPDEST POP CALLVALUE PUSH2 0x393 JUMPI PUSH1 0x20 CALLDATASIZE PUSH1 0x3 NOT ADD SLT PUSH2 0x393 JUMPI PUSH2 0x1FA3 PUSH2 0x4A30 JUMP JUMPDEST PUSH2 0x1FAB PUSH2 0x4E9B JUMP JUMPDEST PUSH1 0xD DUP1 SLOAD PUSH1 0x1 PUSH1 0x1 PUSH1 0xA0 SHL SUB NOT AND PUSH1 0x1 PUSH1 0x1 PUSH1 0xA0 SHL SUB SWAP3 SWAP1 SWAP3 AND SWAP2 SWAP1 SWAP2 OR SWAP1 SSTORE DUP1 RETURN JUMPDEST POP CALLVALUE PUSH2 0x393 JUMPI DUP1 PUSH1 0x3 NOT CALLDATASIZE ADD SLT PUSH2 0x393 JUMPI SLOAD PUSH1 0x40 MLOAD PUSH1 0x1 PUSH1 0x1 PUSH1 0xA0 SHL SUB SWAP1 SWAP2 AND DUP2 MSTORE PUSH1 0x20 SWAP1 RETURN JUMPDEST POP CALLVALUE PUSH2 0x393 JUMPI DUP1 PUSH1 0x3 NOT CALLDATASIZE ADD SLT PUSH2 0x393 JUMPI PUSH1 0x20 PUSH1 0xFF PUSH1 0x12 SLOAD AND PUSH1 0x40 MLOAD SWAP1 ISZERO ISZERO DUP2 MSTORE RETURN JUMPDEST POP CALLVALUE PUSH2 0x393 JUMPI PUSH1 0x20 CALLDATASIZE PUSH1 0x3 NOT ADD SLT PUSH2 0x393 JUMPI PUSH1 0x4 CALLDATALOAD SWAP1 PUSH1 0x17 SLOAD DUP3 LT ISZERO PUSH2 0x393 JUMPI PUSH1 0x20 PUSH2 0x1F7B DUP4 PUSH2 0x4AF8 JUMP JUMPDEST POP CALLVALUE PUSH2 0x393 JUMPI PUSH1 0x20 DUP1 PUSH1 0x3 NOT CALLDATASIZE ADD SLT PUSH2 0x622 JUMPI PUSH1 0x4 CALLDATALOAD DUP3 MSTORE PUSH1 0x6 DUP2 MSTORE PUSH1 0x40 DUP3 KECCAK256 SWAP2 PUSH1 0x40 MLOAD DUP1 SWAP4 DUP5 SWAP2 DUP5 DUP3 SLOAD SWAP2 DUP3 DUP2 MSTORE ADD SWAP2 DUP5 MSTORE DUP5 DUP5 KECCAK256 SWAP4 JUMPDEST DUP6 DUP3 DUP3 LT PUSH2 0x20A6 JUMPI POP POP POP PUSH2 0x2092 SWAP3 POP SUB DUP4 PUSH2 0x4D11 JUMP JUMPDEST PUSH2 0x3E5 PUSH1 0x40 MLOAD SWAP3 DUP3 DUP5 SWAP4 DUP5 MSTORE DUP4 ADD SWAP1 PUSH2 0x4B66 JUMP JUMPDEST DUP6 SLOAD PUSH1 0x1 PUSH1 0x1 PUSH1 0xA0 SHL SUB AND DUP5 MSTORE PUSH1 0x1 SWAP6 DUP7 ADD SWAP6 DUP9 SWAP6 POP SWAP4 ADD SWAP3 ADD PUSH2 0x207B JUMP JUMPDEST POP CALLVALUE PUSH2 0x393 JUMPI PUSH2 0x1187 SWAP1 PUSH1 0x20 PUSH2 0x20DA CALLDATASIZE PUSH2 0x4A5C JUMP JUMPDEST PUSH1 0xC SLOAD PUSH1 0x40 MLOAD PUSH4 0x423E7BC1 PUSH1 0xE1 SHL DUP2 MSTORE SWAP7 DUP8 SWAP5 PUSH1 0x1 PUSH1 0x1 PUSH1 0xA0 SHL SUB SWAP1 SWAP3 AND SWAP4 DUP6 SWAP4 DUP5 SWAP4 SWAP1 SWAP2 SWAP1 PUSH1 0x4 DUP6 ADD PUSH2 0x5434 JUMP JUMPDEST POP CALLVALUE PUSH2 0x393 JUMPI PUSH1 0x20 CALLDATASIZE PUSH1 0x3 NOT ADD SLT PUSH2 0x393 JUMPI PUSH1 0x4 CALLDATALOAD PUSH1 0x19 SLOAD DUP2 LT ISZERO PUSH2 0x622 JUMPI PUSH1 0x19 PUSH1 0x0 MSTORE PUSH1 0x0 DUP1 MLOAD PUSH1 0x20 PUSH2 0x6139 DUP4 CODECOPY DUP2 MLOAD SWAP2 MSTORE ADD SLOAD PUSH1 0x40 MLOAD SWAP1 DUP2 MSTORE PUSH1 0x20 SWAP1 RETURN JUMPDEST POP CALLVALUE PUSH2 0x393 JUMPI DUP1 PUSH1 0x3 NOT CALLDATASIZE ADD SLT PUSH2 0x393 JUMPI PUSH1 0xE SLOAD PUSH1 0x40 MLOAD PUSH1 0x1 PUSH1 0x1 PUSH1 0xA0 SHL SUB SWAP1 SWAP2 AND DUP2 MSTORE PUSH1 0x20 SWAP1 RETURN JUMPDEST POP CALLVALUE PUSH2 0x393 JUMPI PUSH1 0x20 CALLDATASIZE PUSH1 0x3 NOT ADD SLT PUSH2 0x393 JUMPI PUSH1 0x4 CALLDATALOAD DUP1 DUP3 MSTORE PUSH1 0x1 PUSH1 0x20 MSTORE PUSH1 0x40 DUP3 KECCAK256 SWAP1 PUSH1 0xFF PUSH1 0xC DUP4 ADD SLOAD AND PUSH1 0x5 DUP2 LT ISZERO PUSH2 0x112A JUMPI PUSH1 0x1 PUSH2 0x21B1 SWAP2 EQ PUSH2 0x5454 JUMP JUMPDEST PUSH1 0xB DUP3 ADD SLOAD TIMESTAMP LT PUSH2 0x21DE JUMPI PUSH2 0x21D0 PUSH1 0xFF PUSH1 0xE PUSH2 0x148E SWAP5 ADD SLOAD AND ISZERO PUSH2 0x54B1 JUMP JUMPDEST PUSH2 0x21D8 PUSH2 0x54FD JUMP JUMPDEST SWAP1 PUSH2 0x5948 JUMP JUMPDEST PUSH1 0x40 MLOAD PUSH3 0x461BCD PUSH1 0xE5 SHL DUP2 MSTORE PUSH1 0x20 PUSH1 0x4 DUP3 ADD MSTORE PUSH1 0x2A PUSH1 0x24 DUP3 ADD MSTORE PUSH32 0x4D61726B65744D616E616765723A205265736F6C7574696F6E20706572696F64 PUSH1 0x44 DUP3 ADD MSTORE PUSH10 0x81B9BDD08195B991959 PUSH1 0xB2 SHL PUSH1 0x64 DUP3 ADD MSTORE PUSH1 0x84 SWAP1 REVERT JUMPDEST POP CALLVALUE PUSH2 0x393 JUMPI PUSH1 0x20 CALLDATASIZE PUSH1 0x3 NOT ADD SLT PUSH2 0x393 JUMPI PUSH2 0x2250 PUSH2 0x4A30 JUMP JUMPDEST PUSH2 0x2258 PUSH2 0x4E9B JUMP JUMPDEST PUSH1 0x1 PUSH1 0x1 PUSH1 0xA0 SHL SUB SWAP1 DUP2 AND SWAP1 DUP2 ISZERO PUSH2 0x2327 JUMPI DUP2 DUP4 MSTORE PUSH1 0x7 PUSH1 0x20 MSTORE PUSH2 0x2282 PUSH1 0xFF PUSH1 0x40 DUP6 KECCAK256 SLOAD AND PUSH2 0x4F1D JUMP JUMPDEST DUP2 DUP4 MSTORE PUSH1 0x7 PUSH1 0x20 MSTORE PUSH1 0x40 DUP4 KECCAK256 PUSH1 0xFF NOT DUP2 SLOAD AND SWAP1 SSTORE PUSH1 0x8 PUSH1 0x20 MSTORE PUSH2 0x22A7 PUSH1 0x40 DUP5 KECCAK256 PUSH2 0x5DBB JUMP JUMPDEST DUP3 JUMPDEST PUSH1 0x9 DUP1 SLOAD DUP1 DUP4 LT ISZERO PUSH2 0x156D JUMPI DUP4 DUP6 PUSH2 0x22C0 DUP6 PUSH2 0x4A91 JUMP JUMPDEST SWAP3 SWAP1 SLOAD PUSH1 0x3 SWAP4 DUP5 SHL SHR AND EQ PUSH2 0x22E0 JUMPI POP POP POP PUSH2 0x22DB SWAP1 PUSH2 0x4F98 JUMP JUMPDEST PUSH2 0x22A9 JUMP JUMPDEST SWAP2 SWAP5 POP PUSH1 0x0 NOT SWAP4 SWAP2 SWAP1 DUP5 DUP2 ADD SWAP1 DUP2 GT PUSH2 0x76A JUMPI SWAP2 PUSH2 0x146F SWAP2 PUSH2 0x2305 PUSH2 0x2311 SWAP6 SWAP5 PUSH2 0x4A91 JUMP JUMPDEST SWAP1 SLOAD SWAP2 SHL SHR AND SWAP2 PUSH2 0x4A91 JUMP JUMPDEST DUP2 SLOAD DUP1 ISZERO PUSH2 0x1557 JUMPI ADD SWAP1 PUSH2 0x1553 PUSH2 0x153E DUP4 PUSH2 0x4A91 JUMP JUMPDEST PUSH1 0x40 MLOAD PUSH3 0x461BCD PUSH1 0xE5 SHL DUP2 MSTORE PUSH1 0x20 PUSH1 0x4 DUP3 ADD MSTORE PUSH1 0x29 PUSH1 0x24 DUP3 ADD MSTORE PUSH32 0x4D61726B65744D616E616765723A2043616E6E6F742072656D6F7665206E6174 PUSH1 0x44 DUP3 ADD MSTORE PUSH9 0x34BB32903A37B5B2B7 PUSH1 0xB9 SHL PUSH1 0x64 DUP3 ADD MSTORE PUSH1 0x84 SWAP1 REVERT JUMPDEST POP CALLVALUE PUSH2 0x393 JUMPI PUSH1 0x20 CALLDATASIZE PUSH1 0x3 NOT ADD SLT PUSH2 0x393 JUMPI PUSH2 0x2398 PUSH2 0x4A30 JUMP JUMPDEST PUSH2 0x23A0 PUSH2 0x4E9B JUMP JUMPDEST PUSH1 0xE DUP1 SLOAD PUSH1 0x1 PUSH1 0x1 PUSH1 0xA0 SHL SUB NOT AND PUSH1 0x1 PUSH1 0x1 PUSH1 0xA0 SHL SUB SWAP3 SWAP1 SWAP3 AND SWAP2 SWAP1 SWAP2 OR SWAP1 SSTORE DUP1 RETURN JUMPDEST POP CALLVALUE PUSH2 0x393 JUMPI PUSH1 0x40 CALLDATASIZE PUSH1 0x3 NOT ADD SLT PUSH2 0x393 JUMPI PUSH2 0x23DD PUSH2 0x4A30 JUMP JUMPDEST PUSH1 0x24 PUSH1 0x1 PUSH1 0x1 PUSH1 0x40 SHL SUB DUP2 CALLDATALOAD DUP2 DUP2 GT PUSH2 0xD38 JUMPI PUSH2 0x23FE SWAP1 CALLDATASIZE SWAP1 PUSH1 0x4 ADD PUSH2 0x4D4F JUMP JUMPDEST PUSH2 0x2406 PUSH2 0x4E9B JUMP JUMPDEST PUSH1 0x1 PUSH1 0x1 PUSH1 0xA0 SHL SUB DUP5 AND SWAP2 DUP3 ISZERO PUSH2 0x2632 JUMPI DUP2 MLOAD ISZERO PUSH2 0x25E2 JUMPI DUP3 DUP7 MSTORE PUSH1 0x20 SWAP3 PUSH1 0x7 DUP5 MSTORE PUSH1 0xFF PUSH1 0x40 DUP9 KECCAK256 SLOAD AND PUSH2 0x258F JUMPI DUP7 MSTORE PUSH1 0x7 DUP4 MSTORE PUSH1 0x40 DUP7 KECCAK256 SWAP3 PUSH1 0x1 SWAP4 DUP5 PUSH1 0xFF NOT DUP3 SLOAD AND OR SWAP1 SSTORE PUSH1 0x8 DUP2 MSTORE PUSH1 0x40 DUP8 KECCAK256 SWAP3 DUP1 MLOAD SWAP3 DUP4 GT PUSH2 0x257C JUMPI SWAP1 DUP3 SWAP2 PUSH2 0x246B DUP6 SLOAD PUSH2 0x4DBB JUMP JUMPDEST PUSH1 0x1F DUP2 GT PUSH2 0x2543 JUMPI JUMPDEST POP DUP2 PUSH1 0x1F DUP5 GT PUSH1 0x1 EQ PUSH2 0x24E0 JUMPI POP DUP9 SWAP3 PUSH2 0x24D5 JUMPI JUMPDEST POP POP PUSH1 0x0 NOT PUSH1 0x3 DUP4 SWAP1 SHL SHR NOT AND SWAP1 DUP4 SHL OR SWAP1 SSTORE JUMPDEST PUSH1 0x9 SLOAD SWAP2 PUSH1 0x1 PUSH1 0x40 SHL DUP4 LT ISZERO PUSH2 0x24C1 JUMPI POP DUP2 PUSH2 0x146F SWAP2 PUSH2 0x148E SWAP5 SWAP4 ADD PUSH1 0x9 SSTORE PUSH2 0x4A91 JUMP JUMPDEST PUSH4 0x4E487B71 PUSH1 0xE0 SHL PUSH1 0x0 SWAP1 DUP2 MSTORE PUSH1 0x41 PUSH1 0x4 MSTORE REVERT JUMPDEST ADD MLOAD SWAP1 POP CODESIZE DUP1 PUSH2 0x2489 JUMP JUMPDEST SWAP2 SWAP1 DUP7 SWAP5 POP PUSH1 0x1F NOT DUP5 AND DUP7 DUP12 MSTORE DUP4 DUP12 KECCAK256 SWAP4 DUP12 SWAP1 JUMPDEST DUP3 DUP3 LT PUSH2 0x252A JUMPI POP POP DUP5 GT PUSH2 0x2511 JUMPI JUMPDEST POP POP POP DUP2 SHL ADD SWAP1 SSTORE PUSH2 0x249D JUMP JUMPDEST ADD MLOAD PUSH1 0x0 NOT PUSH1 0xF8 DUP5 PUSH1 0x3 SHL AND SHR NOT AND SWAP1 SSTORE CODESIZE DUP1 DUP1 PUSH2 0x2504 JUMP JUMPDEST DUP5 DUP5 ADD MLOAD DUP7 SSTORE DUP10 SWAP8 SWAP1 SWAP6 ADD SWAP5 SWAP4 DUP5 ADD SWAP4 SWAP1 DUP2 ADD SWAP1 PUSH2 0x24F4 JUMP JUMPDEST PUSH2 0x256C SWAP1 DUP7 DUP12 MSTORE DUP4 DUP12 KECCAK256 PUSH1 0x1F DUP7 ADD PUSH1 0x5 SHR DUP2 ADD SWAP2 DUP6 DUP8 LT PUSH2 0x2572 JUMPI JUMPDEST PUSH1 0x1F ADD PUSH1 0x5 SHR ADD SWAP1 PUSH2 0x4FB3 JUMP JUMPDEST CODESIZE PUSH2 0x2474 JUMP JUMPDEST SWAP1 SWAP2 POP DUP2 SWAP1 PUSH2 0x255F JUMP JUMPDEST PUSH4 0x4E487B71 PUSH1 0xE0 SHL DUP9 MSTORE PUSH1 0x41 PUSH1 0x4 MSTORE DUP6 DUP9 REVERT JUMPDEST PUSH1 0x40 MLOAD PUSH3 0x461BCD PUSH1 0xE5 SHL DUP2 MSTORE PUSH1 0x4 DUP2 ADD DUP6 SWAP1 MSTORE PUSH1 0x26 DUP2 DUP8 ADD MSTORE PUSH32 0x4D61726B65744D616E616765723A20546F6B656E20616C726561647920737570 PUSH1 0x44 DUP3 ADD MSTORE PUSH6 0x1C1BDC9D1959 PUSH1 0xD2 SHL PUSH1 0x64 DUP3 ADD MSTORE PUSH1 0x84 SWAP1 REVERT JUMPDEST PUSH1 0x40 MLOAD PUSH3 0x461BCD PUSH1 0xE5 SHL DUP2 MSTORE PUSH1 0x20 PUSH1 0x4 DUP3 ADD MSTORE PUSH1 0x23 DUP2 DUP7 ADD MSTORE PUSH32 0x4D61726B65744D616E616765723A20496E76616C696420746F6B656E2073796D PUSH1 0x44 DUP3 ADD MSTORE PUSH3 0x189BDB PUSH1 0xEA SHL PUSH1 0x64 DUP3 ADD MSTORE PUSH1 0x84 SWAP1 REVERT JUMPDEST PUSH1 0x40 MLOAD PUSH3 0x461BCD PUSH1 0xE5 SHL DUP2 MSTORE PUSH1 0x20 PUSH1 0x4 DUP3 ADD MSTORE DUP1 DUP6 ADD DUP6 SWAP1 MSTORE PUSH32 0x4D61726B65744D616E616765723A20496E76616C696420746F6B656E20616464 PUSH1 0x44 DUP3 ADD MSTORE PUSH4 0x72657373 PUSH1 0xE0 SHL PUSH1 0x64 DUP3 ADD MSTORE PUSH1 0x84 SWAP1 REVERT JUMPDEST POP CALLVALUE PUSH2 0x393 JUMPI DUP1 PUSH1 0x3 NOT CALLDATASIZE ADD SLT PUSH2 0x393 JUMPI PUSH2 0x269C PUSH2 0x4E9B JUMP JUMPDEST PUSH1 0x0 DUP1 SLOAD PUSH1 0x1 PUSH1 0x1 PUSH1 0xA0 SHL SUB NOT DUP2 AND DUP3 SSTORE PUSH1 0x1 PUSH1 0x1 PUSH1 0xA0 SHL SUB AND PUSH1 0x0 DUP1 MLOAD PUSH1 0x20 PUSH2 0x60B9 DUP4 CODECOPY DUP2 MLOAD SWAP2 MSTORE DUP3 DUP1 LOG3 DUP1 RETURN JUMPDEST POP CALLVALUE PUSH2 0x393 JUMPI PUSH1 0x20 DUP1 PUSH1 0x3 NOT CALLDATASIZE ADD SLT PUSH2 0x622 JUMPI PUSH1 0x4 CALLDATALOAD DUP3 MSTORE PUSH1 0x5 DUP2 MSTORE PUSH1 0x40 DUP3 KECCAK256 SWAP2 PUSH1 0x40 MLOAD DUP1 SWAP4 DUP5 SWAP2 DUP5 DUP3 SLOAD SWAP2 DUP3 DUP2 MSTORE ADD SWAP2 DUP5 MSTORE DUP5 DUP5 KECCAK256 SWAP4 JUMPDEST DUP6 DUP3 DUP3 LT PUSH2 0x271A JUMPI POP POP POP PUSH2 0x2092 SWAP3 POP SUB DUP4 PUSH2 0x4D11 JUMP JUMPDEST DUP6 SLOAD PUSH1 0x1 PUSH1 0x1 PUSH1 0xA0 SHL SUB AND DUP5 MSTORE PUSH1 0x1 SWAP6 DUP7 ADD SWAP6 DUP9 SWAP6 POP SWAP4 ADD SWAP3 ADD PUSH2 0x2703 JUMP JUMPDEST POP CALLVALUE PUSH2 0x393 JUMPI DUP1 PUSH1 0x3 NOT CALLDATASIZE ADD SLT PUSH2 0x393 JUMPI PUSH1 0x40 MLOAD PUSH1 0x19 DUP1 SLOAD DUP1 DUP4 MSTORE SWAP1 DUP4 MSTORE PUSH1 0x20 DUP1 DUP4 ADD SWAP4 PUSH1 0x0 DUP1 MLOAD PUSH1 0x20 PUSH2 0x6139 DUP4 CODECOPY DUP2 MLOAD SWAP2 MSTORE SWAP3 SWAP2 JUMPDEST DUP3 DUP3 LT PUSH2 0x2786 JUMPI PUSH2 0x3E5 DUP6 PUSH2 0x1EC3 DUP2 DUP10 SUB DUP3 PUSH2 0x4D11 JUMP JUMPDEST DUP4 SLOAD DUP7 MSTORE SWAP5 DUP6 ADD SWAP5 PUSH1 0x1 SWAP4 DUP5 ADD SWAP4 SWAP1 SWAP2 ADD SWAP1 PUSH2 0x276F JUMP JUMPDEST POP CALLVALUE PUSH2 0x393 JUMPI PUSH1 0x20 CALLDATASIZE PUSH1 0x3 NOT ADD SLT PUSH2 0x393 JUMPI PUSH1 0x20 SWAP1 PUSH1 0xFF SWAP1 PUSH1 0x40 SWAP1 PUSH1 0x1 PUSH1 0x1 PUSH1 0xA0 SHL SUB PUSH2 0x27C8 PUSH2 0x4A30 JUMP JUMPDEST AND DUP2 MSTORE PUSH1 0x7 DUP5 MSTORE KECCAK256 SLOAD AND PUSH1 0x40 MLOAD SWAP1 ISZERO ISZERO DUP2 MSTORE RETURN JUMPDEST POP CALLVALUE PUSH2 0x393 JUMPI PUSH1 0x20 SWAP1 DUP2 PUSH1 0x3 NOT CALLDATASIZE ADD SLT PUSH2 0x393 JUMPI PUSH1 0x4 CALLDATALOAD SWAP2 DUP3 DUP3 MSTORE PUSH1 0x1 DUP2 MSTORE PUSH1 0x40 DUP3 KECCAK256 SWAP3 PUSH1 0xFF PUSH1 0xC DUP6 ADD SLOAD AND PUSH1 0x5 DUP2 LT ISZERO PUSH2 0x112A JUMPI PUSH1 0x2 PUSH2 0x281D SWAP2 EQ PUSH2 0x57CD JUMP JUMPDEST PUSH1 0xD DUP5 ADD SLOAD SWAP2 PUSH2 0x282E DUP4 ISZERO ISZERO PUSH2 0x5824 JUMP JUMPDEST DUP2 DUP5 MSTORE PUSH1 0x2 DUP2 MSTORE PUSH1 0x40 DUP5 KECCAK256 CALLER PUSH1 0x0 MSTORE DUP2 MSTORE PUSH2 0x2850 PUSH1 0xFF PUSH1 0x40 PUSH1 0x0 KECCAK256 SLOAD AND PUSH2 0x586F JUMP JUMPDEST PUSH1 0xC SLOAD PUSH1 0x40 MLOAD PUSH4 0x7C7A72D PUSH1 0xE0 SHL DUP2 MSTORE PUSH1 0x1 PUSH1 0x1 PUSH1 0xA0 SHL SUB SWAP2 DUP3 AND SWAP5 SWAP2 SWAP1 DUP4 DUP2 DUP1 PUSH2 0x287F CALLER DUP10 PUSH1 0x4 DUP5 ADD PUSH2 0x50BE JUMP JUMPDEST SUB DUP2 DUP10 GAS STATICCALL DUP1 ISZERO PUSH2 0x1065 JUMPI DUP8 SWAP1 PUSH2 0x2B7F JUMPI JUMPDEST PUSH2 0x289C SWAP2 POP ISZERO PUSH2 0x58BB JUMP JUMPDEST PUSH1 0x4 DUP8 ADD SLOAD AND SWAP1 PUSH1 0x40 MLOAD SWAP1 PUSH4 0x423E7BC1 PUSH1 0xE1 SHL DUP3 MSTORE DUP4 DUP3 DUP1 PUSH2 0x28C3 DUP7 CALLER DUP11 PUSH1 0x4 DUP6 ADD PUSH2 0x5434 JUMP JUMPDEST SUB DUP2 DUP10 GAS STATICCALL SWAP2 DUP3 ISZERO PUSH2 0x1065 JUMPI DUP8 SWAP3 PUSH2 0x2B50 JUMPI JUMPDEST POP PUSH1 0x40 MLOAD SWAP1 PUSH4 0xDC4CE349 PUSH1 0xE0 SHL SWAP9 DUP10 DUP4 MSTORE DUP6 DUP4 DUP1 PUSH2 0x28F9 DUP9 DUP7 DUP13 PUSH1 0x4 DUP6 ADD PUSH2 0x5907 JUMP JUMPDEST SUB DUP2 DUP12 GAS STATICCALL SWAP3 DUP4 ISZERO PUSH2 0x1DF0 JUMPI DUP10 SWAP4 PUSH2 0x2B21 JUMPI JUMPDEST POP DUP9 SWAP10 PUSH1 0x3 PUSH1 0x1 SWAP3 ADD SLOAD SWAP2 JUMPDEST DUP3 DUP2 GT ISZERO PUSH2 0x2A8A JUMPI POP POP PUSH1 0x40 MLOAD PUSH4 0x4F44289D PUSH1 0xE0 SHL DUP2 MSTORE DUP10 SWAP6 SWAP5 SWAP4 SWAP3 SWAP2 POP DUP11 DUP8 DUP3 DUP1 PUSH2 0x2948 DUP10 DUP14 PUSH1 0x4 DUP5 ADD PUSH2 0x50BE JUMP JUMPDEST SUB DUP2 DUP14 GAS STATICCALL SWAP2 DUP3 ISZERO PUSH2 0x1065 JUMPI DUP8 SWAP3 PUSH2 0x2A56 JUMPI JUMPDEST POP SWAP1 PUSH2 0x2966 SWAP2 PUSH2 0x4F8B JUMP JUMPDEST SWAP1 DUP3 PUSH2 0x29F3 JUMPI POP POP POP POP DUP2 SWAP5 JUMPDEST DUP1 EXTCODESIZE ISZERO PUSH2 0x1D67 JUMPI DUP6 DUP4 SWAP2 PUSH2 0x29A0 SWAP4 DUP4 PUSH1 0x40 MLOAD DUP1 SWAP7 DUP2 SWAP6 DUP3 SWAP5 PUSH4 0x2F0041ED PUSH1 0xE1 SHL DUP5 MSTORE CALLER DUP14 PUSH1 0x4 DUP7 ADD PUSH2 0x53B2 JUMP JUMPDEST SUB SWAP3 GAS CALL DUP1 ISZERO PUSH2 0x617 JUMPI PUSH2 0x29DF JUMPI JUMPDEST POP POP PUSH32 0x5380CF6FE903B40C6D5A9E0DFBCA2F3A423F0A21520B4D5947ED5169BDBA946D SWAP1 PUSH1 0x40 MLOAD SWAP4 DUP5 MSTORE CALLER SWAP4 LOG3 DUP1 RETURN JUMPDEST PUSH2 0x29E8 SWAP1 PUSH2 0x4CC7 JUMP JUMPDEST PUSH2 0x613 JUMPI DUP4 DUP6 PUSH2 0x29AF JUMP JUMPDEST DUP8 DUP7 SWAP3 SWAP4 SWAP5 SWAP6 SWAP7 MSTORE PUSH1 0x4 DUP8 MSTORE PUSH1 0x40 DUP3 KECCAK256 CALLER PUSH1 0x0 MSTORE DUP8 MSTORE PUSH1 0x40 PUSH1 0x0 KECCAK256 SLOAD EQ PUSH1 0x0 EQ PUSH2 0x2A4A JUMPI POP PUSH2 0x2328 SWAP1 DUP2 DUP2 MUL SWAP2 DUP2 DUP4 DIV EQ SWAP1 ISZERO OR ISZERO PUSH2 0xE07 JUMPI SWAP2 PUSH2 0x1009 PUSH2 0x2A44 SWAP3 PUSH2 0x1004 PUSH2 0x2710 DUP12 SWAP8 SWAP7 DIV DUP5 PUSH2 0x4F62 JUMP JUMPDEST SWAP5 PUSH2 0x2973 JUMP JUMPDEST SWAP4 SWAP3 POP POP POP DUP2 SWAP5 PUSH2 0x2973 JUMP JUMPDEST DUP9 DUP1 SWAP3 SWAP9 POP DUP2 SWAP4 POP RETURNDATASIZE DUP4 GT PUSH2 0x2A83 JUMPI JUMPDEST PUSH2 0x2A70 DUP2 DUP4 PUSH2 0x4D11 JUMP JUMPDEST DUP2 ADD SUB SLT PUSH2 0x1059 JUMPI MLOAD DUP10 SWAP6 PUSH2 0x2966 PUSH2 0x295B JUMP JUMPDEST POP RETURNDATASIZE PUSH2 0x2A66 JUMP JUMPDEST DUP4 DUP2 SUB PUSH2 0x2AA0 JUMPI JUMPDEST PUSH2 0x2A9B SWAP1 PUSH2 0x4F98 JUMP JUMPDEST PUSH2 0x2918 JUMP JUMPDEST SWAP11 PUSH2 0x2ABF DUP9 DUP9 DUP13 DUP16 DUP14 PUSH1 0x40 MLOAD SWAP6 DUP7 SWAP5 DUP6 SWAP4 DUP5 SWAP4 DUP12 DUP6 MSTORE PUSH1 0x4 DUP6 ADD PUSH2 0x5907 JUMP JUMPDEST SUB SWAP2 GAS STATICCALL SWAP1 DUP2 ISZERO PUSH2 0x2B16 JUMPI DUP13 SWAP2 PUSH2 0x2AE7 JUMPI JUMPDEST POP PUSH2 0x2ADF SWAP1 PUSH2 0x2A9B SWAP3 PUSH2 0x4F8B JUMP JUMPDEST SWAP12 SWAP1 POP PUSH2 0x2A92 JUMP JUMPDEST SWAP1 POP DUP9 DUP2 DUP2 RETURNDATASIZE DUP4 GT PUSH2 0x2B0F JUMPI JUMPDEST PUSH2 0x2AFE DUP2 DUP4 PUSH2 0x4D11 JUMP JUMPDEST DUP2 ADD SUB SLT PUSH2 0x1059 JUMPI MLOAD PUSH2 0x2A9B PUSH2 0x2AD1 JUMP JUMPDEST POP RETURNDATASIZE PUSH2 0x2AF4 JUMP JUMPDEST PUSH1 0x40 MLOAD RETURNDATASIZE DUP15 DUP3 RETURNDATACOPY RETURNDATASIZE SWAP1 REVERT JUMPDEST SWAP1 SWAP3 POP DUP6 DUP2 DUP2 RETURNDATASIZE DUP4 GT PUSH2 0x2B49 JUMPI JUMPDEST PUSH2 0x2B39 DUP2 DUP4 PUSH2 0x4D11 JUMP JUMPDEST DUP2 ADD SUB SLT PUSH2 0x1059 JUMPI MLOAD SWAP2 CODESIZE PUSH2 0x290C JUMP JUMPDEST POP RETURNDATASIZE PUSH2 0x2B2F JUMP JUMPDEST SWAP1 SWAP2 POP DUP4 DUP2 DUP2 RETURNDATASIZE DUP4 GT PUSH2 0x2B78 JUMPI JUMPDEST PUSH2 0x2B68 DUP2 DUP4 PUSH2 0x4D11 JUMP JUMPDEST DUP2 ADD SUB SLT PUSH2 0x1059 JUMPI MLOAD SWAP1 CODESIZE PUSH2 0x28D6 JUMP JUMPDEST POP RETURNDATASIZE PUSH2 0x2B5E JUMP JUMPDEST POP DUP4 DUP2 DUP2 RETURNDATASIZE DUP4 GT PUSH2 0x2BB2 JUMPI JUMPDEST PUSH2 0x2B95 DUP2 DUP4 PUSH2 0x4D11 JUMP JUMPDEST DUP2 ADD SUB SLT PUSH2 0x2BAE JUMPI PUSH2 0x2BA9 PUSH2 0x289C SWAP2 PUSH2 0x5532 JUMP JUMPDEST PUSH2 0x2891 JUMP JUMPDEST DUP7 DUP1 REVERT JUMPDEST POP RETURNDATASIZE PUSH2 0x2B8B JUMP JUMPDEST POP CALLVALUE PUSH2 0x393 JUMPI DUP1 PUSH1 0x3 NOT CALLDATASIZE ADD SLT PUSH2 0x393 JUMPI PUSH1 0x40 MLOAD PUSH1 0x17 DUP1 SLOAD DUP1 DUP4 MSTORE SWAP1 DUP4 MSTORE PUSH1 0x20 DUP1 DUP4 ADD SWAP4 PUSH32 0xC624B66CC0138B8FABC209247F72D758E1CF3343756D543BADBF24212BED8C15 SWAP3 SWAP2 JUMPDEST DUP3 DUP3 LT PUSH2 0x2C18 JUMPI PUSH2 0x3E5 DUP6 PUSH2 0x1EC3 DUP2 DUP10 SUB DUP3 PUSH2 0x4D11 JUMP JUMPDEST DUP4 SLOAD DUP7 MSTORE SWAP5 DUP6 ADD SWAP5 PUSH1 0x1 SWAP4 DUP5 ADD SWAP4 SWAP1 SWAP2 ADD SWAP1 PUSH2 0x2C01 JUMP JUMPDEST POP PUSH2 0x120 CALLDATASIZE PUSH1 0x3 NOT ADD SLT PUSH2 0x393 JUMPI PUSH1 0x4 CALLDATALOAD PUSH1 0x1 PUSH1 0x1 PUSH1 0x40 SHL SUB DUP2 GT PUSH2 0x622 JUMPI PUSH2 0x2C5C SWAP1 CALLDATASIZE SWAP1 PUSH1 0x4 ADD PUSH2 0x4D4F JUMP JUMPDEST SWAP1 PUSH2 0x2C65 PUSH2 0x4DAC JUMP JUMPDEST PUSH1 0x64 CALLDATALOAD PUSH1 0x1 PUSH1 0x1 PUSH1 0xA0 SHL SUB DUP2 AND SWAP1 SUB PUSH2 0x1059 JUMPI CALLER DUP3 MSTORE PUSH1 0xA PUSH1 0x20 MSTORE PUSH2 0x2C91 PUSH1 0xFF PUSH1 0x40 DUP5 KECCAK256 SLOAD AND ISZERO PUSH2 0x4EC7 JUMP JUMPDEST DUP3 MLOAD ISZERO PUSH2 0x3745 JUMPI PUSH1 0x2 PUSH1 0x44 CALLDATALOAD LT ISZERO DUP1 PUSH2 0x3738 JUMPI JUMPDEST ISZERO PUSH2 0x36E8 JUMPI PUSH1 0x84 CALLDATALOAD ISZERO PUSH2 0x36A4 JUMPI PUSH1 0xA4 CALLDATALOAD ISZERO PUSH2 0x3650 JUMPI PUSH1 0xC4 CALLDATALOAD ISZERO ISZERO DUP1 PUSH2 0x3642 JUMPI JUMPDEST ISZERO PUSH2 0x35EE JUMPI PUSH1 0x11 SLOAD PUSH1 0xE4 CALLDATALOAD LT PUSH2 0x35A7 JUMPI PUSH1 0xE4 CALLDATALOAD PUSH2 0x104 CALLDATALOAD LT PUSH2 0x3545 JUMPI DUP1 ISZERO PUSH2 0x350B JUMPI PUSH1 0x64 CALLDATALOAD PUSH1 0x1 PUSH1 0x1 PUSH1 0xA0 SHL SUB AND ISZERO PUSH2 0x34A8 JUMPI PUSH1 0x64 CALLDATALOAD PUSH1 0x1 PUSH1 0x1 PUSH1 0xA0 SHL SUB AND DUP3 MSTORE PUSH1 0x7 PUSH1 0x20 MSTORE PUSH1 0x40 DUP3 KECCAK256 SLOAD PUSH1 0xFF AND ISZERO PUSH2 0x3459 JUMPI JUMPDEST PUSH1 0x10 SLOAD CALLVALUE LT PUSH2 0x3403 JUMPI PUSH1 0x3C PUSH1 0xE4 CALLDATALOAD MUL PUSH1 0xE4 CALLDATALOAD DUP2 DIV PUSH1 0x3C EQ PUSH1 0xE4 CALLDATALOAD ISZERO OR ISZERO PUSH2 0x19F0 JUMPI PUSH2 0x2D44 SWAP1 TIMESTAMP PUSH2 0x4F8B JUMP JUMPDEST SWAP2 PUSH1 0x3C PUSH2 0x104 CALLDATALOAD MUL PUSH2 0x104 CALLDATALOAD DUP2 DIV PUSH1 0x3C EQ PUSH2 0x104 CALLDATALOAD ISZERO OR ISZERO PUSH2 0x33EF JUMPI PUSH2 0x2D6A SWAP1 TIMESTAMP PUSH2 0x4F8B JUMP JUMPDEST SWAP3 PUSH3 0x2A300 DUP5 ADD DUP5 GT PUSH2 0x33EF JUMPI PUSH3 0x2A300 PUSH1 0xF SLOAD SWAP5 PUSH2 0x2D88 DUP7 PUSH2 0x4F98 JUMP JUMPDEST PUSH1 0xF SSTORE PUSH1 0x40 MLOAD SWAP3 PUSH2 0x2D98 DUP5 PUSH2 0x4CDA JUMP JUMPDEST CALLER DUP5 MSTORE DUP8 PUSH1 0x20 DUP6 ADD MSTORE DUP6 ISZERO ISZERO PUSH1 0x40 DUP6 ADD MSTORE PUSH1 0x44 CALLDATALOAD PUSH1 0x60 DUP6 ADD MSTORE PUSH1 0x1 DUP1 PUSH1 0xA0 SHL SUB PUSH1 0x64 CALLDATALOAD AND PUSH1 0x80 DUP6 ADD MSTORE PUSH1 0x84 CALLDATALOAD PUSH1 0xA0 DUP6 ADD MSTORE PUSH1 0xA4 CALLDATALOAD PUSH1 0xC0 DUP6 ADD MSTORE PUSH1 0xC4 CALLDATALOAD PUSH1 0xE0 DUP6 ADD MSTORE TIMESTAMP PUSH2 0x100 DUP6 ADD MSTORE PUSH2 0x120 DUP5 ADD MSTORE DUP1 PUSH2 0x140 DUP5 ADD MSTORE ADD PUSH2 0x160 DUP3 ADD MSTORE DUP2 PUSH2 0x180 DUP3 ADD MSTORE DUP2 PUSH2 0x1A0 DUP3 ADD MSTORE DUP2 PUSH2 0x1C0 DUP3 ADD MSTORE DUP4 DUP3 MSTORE PUSH1 0x1 PUSH1 0x20 MSTORE PUSH1 0x40 DUP3 KECCAK256 SWAP1 PUSH1 0x1 DUP1 PUSH1 0xA0 SHL SUB DUP2 MLOAD AND PUSH1 0x1 DUP1 PUSH1 0xA0 SHL SUB NOT DUP4 SLOAD AND OR DUP3 SSTORE PUSH1 0x20 DUP2 ADD MLOAD DUP1 MLOAD SWAP1 PUSH1 0x1 DUP1 PUSH1 0x40 SHL SUB DUP3 GT PUSH2 0x33DB JUMPI DUP2 SWAP1 PUSH2 0x2E52 PUSH1 0x1 DUP7 ADD SLOAD PUSH2 0x4DBB JUMP JUMPDEST PUSH1 0x1F DUP2 GT PUSH2 0x33A8 JUMPI JUMPDEST POP PUSH1 0x20 SWAP1 PUSH1 0x1F DUP4 GT PUSH1 0x1 EQ PUSH2 0x3339 JUMPI DUP7 SWAP3 PUSH2 0x332E JUMPI JUMPDEST POP POP DUP2 PUSH1 0x1 SHL SWAP2 PUSH1 0x0 NOT SWAP1 PUSH1 0x3 SHL SHR NOT AND OR PUSH1 0x1 DUP4 ADD SSTORE JUMPDEST PUSH2 0x2E9C PUSH1 0x40 DUP3 ADD MLOAD ISZERO ISZERO PUSH1 0x2 DUP5 ADD PUSH2 0x4FCA JUMP JUMPDEST PUSH1 0x60 DUP2 ADD MLOAD PUSH1 0x3 DUP4 ADD SSTORE PUSH1 0x4 DUP3 ADD PUSH1 0x1 DUP1 PUSH1 0xA0 SHL SUB PUSH1 0x80 DUP4 ADD MLOAD AND PUSH1 0x1 DUP1 PUSH1 0xA0 SHL SUB NOT DUP3 SLOAD AND OR SWAP1 SSTORE PUSH1 0xA0 DUP2 ADD MLOAD PUSH1 0x5 DUP4 ADD SSTORE PUSH1 0xC0 DUP2 ADD MLOAD PUSH1 0x6 DUP4 ADD SSTORE PUSH1 0xE0 DUP2 ADD MLOAD PUSH1 0x7 DUP4 ADD SSTORE PUSH2 0x100 DUP2 ADD MLOAD PUSH1 0x8 DUP4 ADD SSTORE PUSH2 0x120 DUP2 ADD MLOAD PUSH1 0x9 DUP4 ADD SSTORE PUSH2 0x140 DUP2 ADD MLOAD PUSH1 0xA DUP4 ADD SSTORE PUSH2 0x160 DUP2 ADD MLOAD PUSH1 0xB DUP4 ADD SSTORE PUSH1 0xC DUP3 ADD PUSH2 0x180 DUP3 ADD MLOAD PUSH1 0x5 DUP2 LT ISZERO PUSH2 0x1DFB JUMPI PUSH2 0x2F50 SWAP4 SWAP3 PUSH1 0xE SWAP3 PUSH2 0x1C0 SWAP3 PUSH1 0xFF DUP1 NOT DUP4 SLOAD AND SWAP2 AND OR SWAP1 SSTORE PUSH2 0x1A0 DUP2 ADD MLOAD PUSH1 0xD DUP6 ADD SSTORE ADD MLOAD ISZERO ISZERO SWAP2 ADD PUSH2 0x4FCA JUMP JUMPDEST PUSH1 0x14 SLOAD PUSH1 0x1 PUSH1 0x40 SHL DUP2 LT ISZERO PUSH2 0x1491 JUMPI DUP4 PUSH2 0x2F73 DUP3 PUSH1 0x1 PUSH2 0x2F8C SWAP5 ADD PUSH1 0x14 SSTORE PUSH2 0x4ADD JUMP JUMPDEST SWAP1 SWAP2 SWAP1 DUP3 SLOAD SWAP1 PUSH1 0x3 SHL SWAP2 DUP3 SHL SWAP2 PUSH1 0x0 NOT SWAP1 SHL NOT AND OR SWAP1 SSTORE JUMP JUMPDEST DUP3 DUP2 MSTORE PUSH1 0x15 PUSH1 0x20 MSTORE PUSH1 0x40 DUP2 KECCAK256 DUP1 SLOAD PUSH1 0xFF NOT AND PUSH1 0x1 OR SWAP1 SSTORE PUSH1 0x64 CALLDATALOAD PUSH1 0x1 PUSH1 0x1 PUSH1 0xA0 SHL SUB AND PUSH2 0x3294 JUMPI PUSH1 0x10 SLOAD PUSH2 0x2FC2 PUSH1 0xA4 CALLDATALOAD DUP3 PUSH2 0x4F8B JUMP JUMPDEST CALLVALUE LT PUSH2 0x3262 JUMPI DUP2 DUP1 DUP1 DUP1 PUSH2 0x2FEA SWAP5 PUSH1 0x1 DUP1 PUSH1 0xA0 SHL SUB DUP3 SLOAD AND GAS CALL PUSH2 0x2FE4 PUSH2 0x4FFE JUMP JUMPDEST POP PUSH2 0x502E JUMP JUMPDEST DUP1 DUP1 DUP1 DUP1 PUSH1 0xA4 CALLDATALOAD PUSH1 0x1 DUP1 PUSH1 0xA0 SHL SUB PUSH1 0xC SLOAD AND GAS CALL PUSH2 0x3006 PUSH2 0x4FFE JUMP JUMPDEST POP ISZERO PUSH2 0x31FA JUMPI JUMPDEST DUP3 DUP2 MSTORE PUSH1 0x2 PUSH1 0x20 MSTORE PUSH1 0x40 DUP2 KECCAK256 CALLER PUSH1 0x0 MSTORE PUSH1 0x20 MSTORE PUSH1 0x40 PUSH1 0x0 KECCAK256 PUSH1 0x1 PUSH1 0xFF NOT DUP3 SLOAD AND OR SWAP1 SSTORE DUP3 DUP2 MSTORE PUSH1 0x4 PUSH1 0x20 MSTORE PUSH1 0x40 DUP2 KECCAK256 CALLER PUSH1 0x0 MSTORE PUSH1 0x20 MSTORE PUSH1 0xC4 CALLDATALOAD PUSH1 0x40 PUSH1 0x0 KECCAK256 SSTORE CALLER DUP2 MSTORE PUSH1 0x16 PUSH1 0x20 MSTORE PUSH2 0x3061 DUP4 PUSH1 0x40 DUP4 KECCAK256 PUSH2 0x4FDB JUMP JUMPDEST PUSH1 0xC SLOAD PUSH1 0x1 PUSH1 0x1 PUSH1 0xA0 SHL SUB AND DUP1 EXTCODESIZE ISZERO PUSH2 0x622 JUMPI PUSH1 0x40 MLOAD PUSH4 0x95F41095 PUSH1 0xE0 SHL DUP2 MSTORE SWAP1 DUP3 SWAP1 DUP3 SWAP1 DUP2 DUP4 DUP2 PUSH2 0x30A0 PUSH1 0xC4 CALLDATALOAD PUSH1 0xA4 CALLDATALOAD PUSH1 0x64 CALLDATALOAD CALLER DUP15 PUSH1 0x4 DUP8 ADD PUSH2 0x508E JUMP JUMPDEST SUB SWAP3 GAS CALL DUP1 ISZERO PUSH2 0x617 JUMPI SWAP1 DUP3 SWAP2 PUSH2 0x31E6 JUMPI JUMPDEST POP POP PUSH1 0xE SLOAD PUSH1 0x1 PUSH1 0x1 PUSH1 0xA0 SHL SUB AND DUP1 PUSH2 0x3139 JUMPI JUMPDEST POP POP DUP2 PUSH32 0xE47F69E204F188E4F9DF6ADC50C9CF0BD76C1CD85F34A8A3E8284064AFB4FB82 PUSH1 0x20 SWAP5 PUSH2 0x3102 PUSH1 0x40 MLOAD SWAP2 PUSH1 0xA0 DUP4 MSTORE PUSH1 0xA0 DUP4 ADD SWAP1 PUSH2 0x4BA3 JUMP JUMPDEST SWAP4 ISZERO ISZERO DUP2 DUP8 ADD MSTORE PUSH1 0x44 CALLDATALOAD PUSH1 0x40 DUP3 ADD MSTORE PUSH1 0x64 CALLDATALOAD PUSH1 0x1 PUSH1 0x1 PUSH1 0xA0 SHL SUB AND PUSH1 0x60 DUP3 ADD MSTORE PUSH1 0x84 CALLDATALOAD PUSH1 0x80 DUP3 ADD MSTORE CALLER SWAP4 DUP2 SWAP1 SUB SWAP1 LOG3 PUSH1 0x40 MLOAD SWAP1 DUP2 MSTORE RETURN JUMPDEST DUP1 EXTCODESIZE ISZERO PUSH2 0x622 JUMPI DUP2 PUSH1 0x40 MLOAD DUP1 SWAP3 PUSH4 0x782A7805 PUSH1 0xE1 SHL DUP3 MSTORE DUP2 DUP4 DUP2 PUSH2 0x3161 CALLER DUP12 PUSH1 0x4 DUP5 ADD PUSH2 0x50BE JUMP JUMPDEST SUB SWAP3 GAS CALL DUP1 ISZERO PUSH2 0x617 JUMPI SWAP1 DUP3 SWAP2 PUSH2 0x31D2 JUMPI JUMPDEST POP POP PUSH1 0xE SLOAD PUSH1 0x1 PUSH1 0x1 PUSH1 0xA0 SHL SUB AND DUP1 EXTCODESIZE ISZERO PUSH2 0x622 JUMPI DUP2 PUSH1 0x40 MLOAD DUP1 SWAP3 PUSH4 0xC228038D PUSH1 0xE0 SHL DUP3 MSTORE DUP2 DUP4 DUP2 PUSH2 0x31AF PUSH1 0xA4 CALLDATALOAD PUSH1 0xC4 CALLDATALOAD CALLER DUP14 PUSH1 0x4 DUP7 ADD PUSH2 0x50D7 JUMP JUMPDEST SUB SWAP3 GAS CALL DUP1 ISZERO PUSH2 0x617 JUMPI ISZERO PUSH2 0x30C6 JUMPI PUSH2 0x31C8 DUP3 SWAP2 PUSH2 0x4CC7 JUMP JUMPDEST PUSH2 0x393 JUMPI DUP1 PUSH2 0x30C6 JUMP JUMPDEST PUSH2 0x31DB SWAP1 PUSH2 0x4CC7 JUMP JUMPDEST PUSH2 0x393 JUMPI DUP1 CODESIZE PUSH2 0x3173 JUMP JUMPDEST PUSH2 0x31EF SWAP1 PUSH2 0x4CC7 JUMP JUMPDEST PUSH2 0x393 JUMPI DUP1 CODESIZE PUSH2 0x30B2 JUMP JUMPDEST PUSH1 0x40 MLOAD PUSH3 0x461BCD PUSH1 0xE5 SHL DUP2 MSTORE PUSH1 0x20 PUSH1 0x4 DUP3 ADD MSTORE PUSH1 0x3A PUSH1 0x24 DUP3 ADD MSTORE PUSH32 0x4D61726B65744D616E616765723A2043726561746F72206465706F7369742074 PUSH1 0x44 DUP3 ADD MSTORE PUSH26 0x1C985B9CD9995C881D1BC8151C99585CDD5C9E4819985A5B1959 PUSH1 0x32 SHL PUSH1 0x64 DUP3 ADD MSTORE PUSH1 0x84 SWAP1 REVERT JUMPDEST PUSH1 0x64 PUSH1 0x40 MLOAD PUSH3 0x461BCD PUSH1 0xE5 SHL DUP2 MSTORE PUSH1 0x20 PUSH1 0x4 DUP3 ADD MSTORE PUSH1 0x20 PUSH1 0x24 DUP3 ADD MSTORE PUSH1 0x0 DUP1 MLOAD PUSH1 0x20 PUSH2 0x60F9 DUP4 CODECOPY DUP2 MLOAD SWAP2 MSTORE PUSH1 0x44 DUP3 ADD MSTORE REVERT JUMPDEST PUSH1 0x10 SLOAD DUP1 CALLVALUE LT PUSH2 0x32E1 JUMPI DUP2 DUP1 DUP1 DUP1 PUSH2 0x32BA SWAP5 PUSH1 0x1 DUP1 PUSH1 0xA0 SHL SUB DUP3 SLOAD AND GAS CALL PUSH2 0x2FE4 PUSH2 0x4FFE JUMP JUMPDEST PUSH1 0xC SLOAD PUSH2 0x32DC SWAP1 PUSH1 0xA4 CALLDATALOAD SWAP1 PUSH1 0x1 PUSH1 0x1 PUSH1 0xA0 SHL SUB SWAP1 DUP2 AND SWAP1 CALLER SWAP1 PUSH1 0x64 CALLDATALOAD AND PUSH2 0x511D JUMP JUMPDEST PUSH2 0x300D JUMP JUMPDEST PUSH1 0x40 MLOAD PUSH3 0x461BCD PUSH1 0xE5 SHL DUP2 MSTORE PUSH1 0x20 PUSH1 0x4 DUP3 ADD MSTORE PUSH1 0x31 PUSH1 0x24 DUP3 ADD MSTORE PUSH1 0x0 DUP1 MLOAD PUSH1 0x20 PUSH2 0x60F9 DUP4 CODECOPY DUP2 MLOAD SWAP2 MSTORE PUSH1 0x44 DUP3 ADD MSTORE PUSH17 0x20666F72206372656174696F6E20666565 PUSH1 0x78 SHL PUSH1 0x64 DUP3 ADD MSTORE PUSH1 0x84 SWAP1 REVERT JUMPDEST ADD MLOAD SWAP1 POP CODESIZE DUP1 PUSH2 0x2E71 JUMP JUMPDEST SWAP3 POP PUSH1 0x1 DUP6 ADD DUP7 MSTORE PUSH1 0x20 DUP7 KECCAK256 SWAP1 DUP7 SWAP4 JUMPDEST PUSH1 0x1F NOT DUP5 AND DUP6 LT PUSH2 0x338D JUMPI PUSH1 0x1 SWAP5 POP DUP4 PUSH1 0x1F NOT DUP2 AND LT PUSH2 0x3374 JUMPI JUMPDEST POP POP POP DUP2 SHL ADD PUSH1 0x1 DUP4 ADD SSTORE PUSH2 0x2E89 JUMP JUMPDEST ADD MLOAD PUSH1 0x0 NOT PUSH1 0xF8 DUP5 PUSH1 0x3 SHL AND SHR NOT AND SWAP1 SSTORE CODESIZE DUP1 DUP1 PUSH2 0x3364 JUMP JUMPDEST DUP2 DUP2 ADD MLOAD DUP4 SSTORE PUSH1 0x20 SWAP5 DUP6 ADD SWAP5 PUSH1 0x1 SWAP1 SWAP4 ADD SWAP3 SWAP1 SWAP2 ADD SWAP1 PUSH2 0x3349 JUMP JUMPDEST PUSH2 0x33D5 SWAP1 PUSH1 0x1 DUP8 ADD DUP9 MSTORE PUSH1 0x20 DUP9 KECCAK256 PUSH1 0x1F DUP6 ADD PUSH1 0x5 SHR DUP2 ADD SWAP2 PUSH1 0x20 DUP7 LT PUSH2 0x2572 JUMPI PUSH1 0x1F ADD PUSH1 0x5 SHR ADD SWAP1 PUSH2 0x4FB3 JUMP JUMPDEST CODESIZE PUSH2 0x2E5B JUMP JUMPDEST PUSH4 0x4E487B71 PUSH1 0xE0 SHL DUP6 MSTORE PUSH1 0x41 PUSH1 0x4 MSTORE PUSH1 0x24 DUP6 REVERT JUMPDEST PUSH4 0x4E487B71 PUSH1 0xE0 SHL DUP3 MSTORE PUSH1 0x11 PUSH1 0x4 MSTORE PUSH1 0x24 DUP3 REVERT JUMPDEST PUSH1 0x40 MLOAD PUSH3 0x461BCD PUSH1 0xE5 SHL DUP2 MSTORE PUSH1 0x20 PUSH1 0x4 DUP3 ADD MSTORE PUSH1 0x28 PUSH1 0x24 DUP3 ADD MSTORE PUSH32 0x4D61726B65744D616E616765723A20496E73756666696369656E742063726561 PUSH1 0x44 DUP3 ADD MSTORE PUSH8 0x74696F6E20666565 PUSH1 0xC0 SHL PUSH1 0x64 DUP3 ADD MSTORE PUSH1 0x84 SWAP1 REVERT JUMPDEST PUSH1 0x40 MLOAD PUSH3 0x461BCD PUSH1 0xE5 SHL DUP2 MSTORE PUSH1 0x20 PUSH1 0x4 DUP3 ADD MSTORE PUSH1 0x33 PUSH1 0x24 DUP3 ADD MSTORE PUSH1 0x0 DUP1 MLOAD PUSH1 0x20 PUSH2 0x6059 DUP4 CODECOPY DUP2 MLOAD SWAP2 MSTORE PUSH1 0x44 DUP3 ADD MSTORE PUSH19 0x32B2103337B91036BAB63A3496B7B83A34B7B7 PUSH1 0x69 SHL PUSH1 0x64 DUP3 ADD MSTORE PUSH1 0x84 SWAP1 REVERT JUMPDEST PUSH1 0x40 MLOAD PUSH3 0x461BCD PUSH1 0xE5 SHL DUP2 MSTORE PUSH1 0x20 PUSH1 0x4 DUP3 ADD MSTORE PUSH1 0x35 PUSH1 0x24 DUP3 ADD MSTORE PUSH32 0x4D61726B65744D616E616765723A204D756C74692D6F7074696F6E206D61726B PUSH1 0x44 DUP3 ADD MSTORE PUSH21 0x32BA39903932B8BAB4B93290281928103A37B5B2B7 PUSH1 0x59 SHL PUSH1 0x64 DUP3 ADD MSTORE PUSH1 0x84 SWAP1 REVERT JUMPDEST PUSH1 0x64 CALLDATALOAD PUSH1 0x1 PUSH1 0x1 PUSH1 0xA0 SHL SUB AND ISZERO PUSH2 0x2D19 JUMPI PUSH1 0x64 CALLDATALOAD PUSH1 0x1 PUSH1 0x1 PUSH1 0xA0 SHL SUB AND DUP3 MSTORE PUSH1 0x7 PUSH1 0x20 MSTORE PUSH1 0x40 DUP3 KECCAK256 SLOAD PUSH2 0x3540 SWAP1 PUSH1 0xFF AND PUSH2 0x4F1D JUMP JUMPDEST PUSH2 0x2D19 JUMP JUMPDEST PUSH1 0x40 MLOAD PUSH3 0x461BCD PUSH1 0xE5 SHL DUP2 MSTORE PUSH1 0x20 PUSH1 0x4 DUP3 ADD MSTORE PUSH1 0x34 PUSH1 0x24 DUP3 ADD MSTORE PUSH32 0x4D61726B65744D616E616765723A205265736F6C7574696F6E206D7573742062 PUSH1 0x44 DUP3 ADD MSTORE PUSH20 0x194818599D195C881CDD185AD9481C195C9A5BD9 PUSH1 0x62 SHL PUSH1 0x64 DUP3 ADD MSTORE PUSH1 0x84 SWAP1 REVERT JUMPDEST PUSH1 0x40 MLOAD PUSH3 0x461BCD PUSH1 0xE5 SHL DUP2 MSTORE PUSH1 0x20 PUSH1 0x4 DUP3 ADD MSTORE PUSH1 0x2B PUSH1 0x24 DUP3 ADD MSTORE PUSH1 0x0 DUP1 MLOAD PUSH1 0x20 PUSH2 0x6099 DUP4 CODECOPY DUP2 MLOAD SWAP2 MSTORE PUSH1 0x44 DUP3 ADD MSTORE PUSH11 0x35B290323AB930BA34B7B7 PUSH1 0xA9 SHL PUSH1 0x64 DUP3 ADD MSTORE PUSH1 0x84 SWAP1 REVERT JUMPDEST PUSH1 0x40 MLOAD PUSH3 0x461BCD PUSH1 0xE5 SHL DUP2 MSTORE PUSH1 0x20 PUSH1 0x4 DUP3 ADD MSTORE PUSH1 0x26 PUSH1 0x24 DUP3 ADD MSTORE PUSH32 0x4D61726B65744D616E616765723A20496E76616C69642063726561746F72206F PUSH1 0x44 DUP3 ADD MSTORE PUSH6 0x7574636F6D65 PUSH1 0xD0 SHL PUSH1 0x64 DUP3 ADD MSTORE PUSH1 0x84 SWAP1 REVERT JUMPDEST POP PUSH1 0x44 CALLDATALOAD PUSH1 0xC4 CALLDATALOAD GT ISZERO PUSH2 0x2CC5 JUMP JUMPDEST PUSH1 0x40 MLOAD PUSH3 0x461BCD PUSH1 0xE5 SHL DUP2 MSTORE PUSH1 0x20 PUSH1 0x4 DUP3 ADD MSTORE PUSH1 0x26 PUSH1 0x24 DUP3 ADD MSTORE PUSH32 0x4D61726B65744D616E616765723A20496E76616C69642063726561746F722064 PUSH1 0x44 DUP3 ADD MSTORE PUSH6 0x195C1BDCDA5D PUSH1 0xD2 SHL PUSH1 0x64 DUP3 ADD MSTORE PUSH1 0x84 SWAP1 REVERT JUMPDEST PUSH1 0x64 PUSH1 0x40 MLOAD PUSH3 0x461BCD PUSH1 0xE5 SHL DUP2 MSTORE PUSH1 0x20 PUSH1 0x4 DUP3 ADD MSTORE PUSH1 0x20 PUSH1 0x24 DUP3 ADD MSTORE PUSH32 0x4D61726B65744D616E616765723A20496E76616C6964206D696E207374616B65 PUSH1 0x44 DUP3 ADD MSTORE REVERT JUMPDEST PUSH1 0x40 MLOAD PUSH3 0x461BCD PUSH1 0xE5 SHL DUP2 MSTORE PUSH1 0x20 PUSH1 0x4 DUP3 ADD MSTORE PUSH1 0x22 PUSH1 0x24 DUP3 ADD MSTORE PUSH32 0x4D61726B65744D616E616765723A20496E76616C6964206D6178206F7074696F PUSH1 0x44 DUP3 ADD MSTORE PUSH2 0x6E73 PUSH1 0xF0 SHL PUSH1 0x64 DUP3 ADD MSTORE PUSH1 0x84 SWAP1 REVERT JUMPDEST POP PUSH1 0xA PUSH1 0x44 CALLDATALOAD GT ISZERO PUSH2 0x2CA5 JUMP JUMPDEST PUSH1 0x64 PUSH1 0x40 MLOAD PUSH3 0x461BCD PUSH1 0xE5 SHL DUP2 MSTORE PUSH1 0x20 PUSH1 0x4 DUP3 ADD MSTORE PUSH1 0x20 PUSH1 0x24 DUP3 ADD MSTORE PUSH32 0x4D61726B65744D616E616765723A20496E76616C696420495046532068617368 PUSH1 0x44 DUP3 ADD MSTORE REVERT JUMPDEST POP CALLVALUE PUSH2 0x393 JUMPI DUP1 PUSH1 0x3 NOT CALLDATASIZE ADD SLT PUSH2 0x393 JUMPI PUSH1 0xC SLOAD PUSH1 0x40 MLOAD PUSH1 0x1 PUSH1 0x1 PUSH1 0xA0 SHL SUB SWAP1 SWAP2 AND DUP2 MSTORE PUSH1 0x20 SWAP1 RETURN JUMPDEST POP CALLVALUE PUSH2 0x393 JUMPI PUSH2 0x148E PUSH2 0x37C4 CALLDATASIZE PUSH2 0x4D96 JUMP JUMPDEST SWAP1 PUSH2 0x555C JUMP JUMPDEST POP CALLVALUE PUSH2 0x393 JUMPI DUP1 PUSH1 0x3 NOT CALLDATASIZE ADD SLT PUSH2 0x393 JUMPI PUSH1 0x20 PUSH1 0x14 SLOAD PUSH1 0x40 MLOAD SWAP1 DUP2 MSTORE RETURN JUMPDEST POP CALLVALUE PUSH2 0x393 JUMPI PUSH1 0x20 DUP1 PUSH1 0x3 NOT CALLDATASIZE ADD SLT PUSH2 0x622 JUMPI PUSH1 0x4 CALLDATALOAD DUP1 DUP4 MSTORE PUSH1 0x1 DUP3 MSTORE PUSH1 0x40 DUP4 KECCAK256 SWAP2 PUSH1 0xFF PUSH1 0xC DUP5 ADD SLOAD AND PUSH1 0x5 DUP2 LT ISZERO PUSH2 0x1DFB JUMPI PUSH1 0x3 SUB PUSH2 0x3B3D JUMPI DUP2 DUP5 MSTORE PUSH1 0x2 DUP2 MSTORE PUSH1 0x40 DUP5 KECCAK256 CALLER PUSH1 0x0 MSTORE DUP2 MSTORE PUSH1 0xFF PUSH1 0x40 PUSH1 0x0 KECCAK256 SLOAD AND DUP1 ISZERO PUSH2 0x3B1D JUMPI JUMPDEST ISZERO PUSH2 0x3ACF JUMPI DUP4 SWAP3 DUP3 DUP6 MSTORE PUSH1 0x2 DUP3 MSTORE PUSH1 0x40 DUP6 KECCAK256 CALLER PUSH1 0x0 MSTORE DUP3 MSTORE PUSH1 0xFF PUSH1 0x40 PUSH1 0x0 KECCAK256 SLOAD AND PUSH2 0x3A29 JUMPI JUMPDEST DUP3 DUP6 MSTORE PUSH1 0x3 DUP3 MSTORE PUSH1 0x40 DUP6 KECCAK256 CALLER PUSH1 0x0 MSTORE DUP3 MSTORE PUSH1 0xFF PUSH1 0x40 PUSH1 0x0 KECCAK256 SLOAD AND PUSH2 0x3976 JUMPI JUMPDEST DUP4 ISZERO PUSH2 0x3926 JUMPI PUSH1 0xC SLOAD PUSH1 0x4 SWAP1 SWAP2 ADD SLOAD DUP6 SWAP2 PUSH1 0x1 PUSH1 0x1 PUSH1 0xA0 SHL SUB SWAP2 DUP3 AND SWAP2 AND DUP1 EXTCODESIZE ISZERO PUSH2 0x1D67 JUMPI DUP6 DUP4 SWAP2 PUSH2 0x38D3 SWAP4 DUP4 PUSH1 0x40 MLOAD DUP1 SWAP7 DUP2 SWAP6 DUP3 SWAP5 PUSH4 0x164FCD7D PUSH1 0xE2 SHL DUP5 MSTORE CALLER DUP14 PUSH1 0x4 DUP7 ADD PUSH2 0x53B2 JUMP JUMPDEST SUB SWAP3 GAS CALL DUP1 ISZERO PUSH2 0x617 JUMPI PUSH2 0x3912 JUMPI JUMPDEST POP POP PUSH32 0xF3F402280EF0A7905E124AA621B65EAEB2725C343E8B36D398ED78C29DAF285C SWAP1 PUSH1 0x40 MLOAD SWAP4 DUP5 MSTORE CALLER SWAP4 LOG3 DUP1 RETURN JUMPDEST PUSH2 0x391B SWAP1 PUSH2 0x4CC7 JUMP JUMPDEST PUSH2 0x613 JUMPI DUP4 CODESIZE PUSH2 0x38E2 JUMP JUMPDEST PUSH1 0x40 MLOAD PUSH3 0x461BCD PUSH1 0xE5 SHL DUP2 MSTORE PUSH1 0x4 DUP2 ADD DUP4 SWAP1 MSTORE PUSH1 0x22 PUSH1 0x24 DUP3 ADD MSTORE PUSH32 0x4D61726B65744D616E616765723A204E6F20726566756E6420617661696C6162 PUSH1 0x44 DUP3 ADD MSTORE PUSH2 0x6C65 PUSH1 0xF0 SHL PUSH1 0x64 DUP3 ADD MSTORE PUSH1 0x84 SWAP1 REVERT JUMPDEST SWAP3 PUSH2 0x39AD SWAP1 DUP3 PUSH1 0x1 DUP1 PUSH1 0xA0 SHL SUB DUP1 PUSH1 0xC SLOAD AND SWAP1 PUSH1 0x4 DUP9 ADD SLOAD AND SWAP1 PUSH1 0x40 MLOAD DUP1 DUP1 SWAP7 DUP2 SWAP5 PUSH4 0x256BA741 PUSH1 0xE0 SHL DUP4 MSTORE CALLER DUP12 PUSH1 0x4 DUP6 ADD PUSH2 0x5434 JUMP JUMPDEST SUB SWAP2 GAS STATICCALL SWAP1 DUP2 ISZERO PUSH2 0x3A1E JUMPI DUP7 SWAP2 PUSH2 0x39ED JUMPI JUMPDEST PUSH2 0x39C9 SWAP3 POP PUSH2 0x4F8B JUMP JUMPDEST SWAP3 DUP3 DUP6 MSTORE PUSH1 0x3 DUP3 MSTORE PUSH1 0x40 DUP6 KECCAK256 CALLER PUSH1 0x0 MSTORE DUP3 MSTORE PUSH1 0x40 PUSH1 0x0 KECCAK256 PUSH1 0xFF NOT DUP2 SLOAD AND SWAP1 SSTORE PUSH2 0x3888 JUMP JUMPDEST SWAP1 POP DUP3 DUP3 DUP2 RETURNDATASIZE DUP4 GT PUSH2 0x3A17 JUMPI JUMPDEST PUSH2 0x3A04 DUP2 DUP4 PUSH2 0x4D11 JUMP JUMPDEST DUP2 ADD SUB SLT PUSH2 0x1059 JUMPI PUSH2 0x39C9 SWAP2 MLOAD SWAP1 PUSH2 0x39BF JUMP JUMPDEST POP RETURNDATASIZE PUSH2 0x39FA JUMP JUMPDEST PUSH1 0x40 MLOAD RETURNDATASIZE DUP9 DUP3 RETURNDATACOPY RETURNDATASIZE SWAP1 REVERT JUMPDEST SWAP3 POP PUSH2 0x3A60 DUP2 PUSH1 0x1 DUP1 PUSH1 0xA0 SHL SUB DUP1 PUSH1 0xC SLOAD AND SWAP1 PUSH1 0x4 DUP8 ADD SLOAD AND SWAP1 PUSH1 0x40 MLOAD DUP1 DUP1 SWAP6 DUP2 SWAP5 PUSH4 0x423E7BC1 PUSH1 0xE1 SHL DUP4 MSTORE CALLER DUP11 PUSH1 0x4 DUP6 ADD PUSH2 0x5434 JUMP JUMPDEST SUB SWAP2 GAS STATICCALL SWAP1 DUP2 ISZERO PUSH2 0x3AC4 JUMPI DUP6 SWAP2 PUSH2 0x3A97 JUMPI JUMPDEST POP SWAP3 DUP3 DUP6 MSTORE PUSH1 0x2 DUP3 MSTORE PUSH1 0x40 DUP6 KECCAK256 CALLER PUSH1 0x0 MSTORE DUP3 MSTORE PUSH1 0x40 PUSH1 0x0 KECCAK256 PUSH1 0xFF NOT DUP2 SLOAD AND SWAP1 SSTORE PUSH2 0x3869 JUMP JUMPDEST SWAP1 POP DUP2 DUP2 DUP2 RETURNDATASIZE DUP4 GT PUSH2 0x3ABD JUMPI JUMPDEST PUSH2 0x3AAE DUP2 DUP4 PUSH2 0x4D11 JUMP JUMPDEST DUP2 ADD SUB SLT PUSH2 0x1059 JUMPI MLOAD CODESIZE PUSH2 0x3A72 JUMP JUMPDEST POP RETURNDATASIZE PUSH2 0x3AA4 JUMP JUMPDEST PUSH1 0x40 MLOAD RETURNDATASIZE DUP8 DUP3 RETURNDATACOPY RETURNDATASIZE SWAP1 REVERT JUMPDEST PUSH1 0x84 SWAP1 PUSH1 0x40 MLOAD SWAP1 PUSH3 0x461BCD PUSH1 0xE5 SHL DUP3 MSTORE PUSH1 0x4 DUP3 ADD MSTORE PUSH1 0x21 PUSH1 0x24 DUP3 ADD MSTORE PUSH32 0x4D61726B65744D616E616765723A204E6F207374616B6520746F20726566756E PUSH1 0x44 DUP3 ADD MSTORE PUSH1 0x19 PUSH1 0xFA SHL PUSH1 0x64 DUP3 ADD MSTORE REVERT JUMPDEST POP DUP2 DUP5 MSTORE PUSH1 0x3 DUP2 MSTORE PUSH1 0x40 DUP5 KECCAK256 CALLER PUSH1 0x0 MSTORE DUP2 MSTORE PUSH1 0xFF PUSH1 0x40 PUSH1 0x0 KECCAK256 SLOAD AND PUSH2 0x3843 JUMP JUMPDEST PUSH1 0x84 SWAP1 PUSH1 0x40 MLOAD SWAP1 PUSH3 0x461BCD PUSH1 0xE5 SHL DUP3 MSTORE PUSH1 0x4 DUP3 ADD MSTORE PUSH1 0x23 PUSH1 0x24 DUP3 ADD MSTORE PUSH32 0x4D61726B65744D616E616765723A204D61726B6574206E6F742063616E63656C PUSH1 0x44 DUP3 ADD MSTORE PUSH3 0x1B1959 PUSH1 0xEA SHL PUSH1 0x64 DUP3 ADD MSTORE REVERT JUMPDEST POP CALLVALUE PUSH2 0x393 JUMPI DUP1 PUSH1 0x3 NOT CALLDATASIZE ADD SLT PUSH2 0x393 JUMPI PUSH1 0x20 PUSH1 0xB SLOAD PUSH1 0x40 MLOAD SWAP1 DUP2 MSTORE RETURN JUMPDEST POP CALLVALUE PUSH2 0x393 JUMPI PUSH1 0x40 CALLDATASIZE PUSH1 0x3 NOT ADD SLT PUSH2 0x393 JUMPI PUSH1 0x4 CALLDATALOAD PUSH1 0x24 CALLDATALOAD PUSH1 0x1 PUSH1 0x1 PUSH1 0x40 SHL SUB DUP2 GT PUSH2 0x1D67 JUMPI PUSH2 0x3BDF SWAP1 CALLDATASIZE SWAP1 PUSH1 0x4 ADD PUSH2 0x4D4F JUMP JUMPDEST PUSH2 0x3BE7 PUSH2 0x4E9B JUMP JUMPDEST PUSH2 0x3BF4 PUSH1 0xF SLOAD DUP4 LT PUSH2 0x5E2F JUMP JUMPDEST DUP2 DUP4 MSTORE PUSH1 0x20 SWAP1 PUSH1 0x1 DUP3 MSTORE PUSH2 0x3C15 PUSH1 0x1 DUP1 PUSH1 0xA0 SHL SUB PUSH1 0x40 DUP7 KECCAK256 SLOAD AND ISZERO ISZERO PUSH2 0x5E7A JUMP JUMPDEST DUP3 DUP5 MSTORE PUSH1 0x1 DUP3 MSTORE PUSH1 0xFF PUSH1 0xC PUSH1 0x40 DUP7 KECCAK256 ADD SLOAD AND PUSH1 0x5 DUP2 LT ISZERO PUSH2 0x1DFB JUMPI PUSH1 0x4 EQ PUSH2 0x3CCC JUMPI DUP3 DUP5 MSTORE PUSH1 0x1 DUP3 MSTORE PUSH1 0x40 DUP1 DUP6 KECCAK256 PUSH1 0xC ADD DUP1 SLOAD PUSH1 0xFF NOT AND PUSH1 0x4 OR SWAP1 SSTORE DUP4 DUP6 MSTORE PUSH1 0x18 DUP4 MSTORE DUP5 KECCAK256 TIMESTAMP SWAP1 SSTORE PUSH1 0x17 SLOAD SWAP2 PUSH1 0x1 PUSH1 0x40 SHL DUP4 LT ISZERO PUSH2 0x1491 JUMPI PUSH2 0x3C90 DUP5 PUSH2 0x2F73 DUP6 PUSH1 0x1 PUSH1 0x0 DUP1 MLOAD PUSH1 0x20 PUSH2 0x6019 DUP4 CODECOPY DUP2 MLOAD SWAP2 MSTORE SWAP8 ADD PUSH1 0x17 SSTORE PUSH2 0x4AF8 JUMP JUMPDEST DUP4 DUP6 MSTORE PUSH1 0x15 DUP2 MSTORE PUSH1 0xFF PUSH1 0x40 DUP7 KECCAK256 SLOAD AND PUSH2 0x3CBE JUMPI JUMPDEST PUSH2 0x3CB8 PUSH1 0x40 MLOAD SWAP3 DUP3 DUP5 SWAP4 DUP5 MSTORE DUP4 ADD SWAP1 PUSH2 0x4BA3 JUMP JUMPDEST SUB SWAP1 LOG2 DUP1 RETURN JUMPDEST PUSH2 0x3CC7 DUP5 PUSH2 0x5ED2 JUMP JUMPDEST PUSH2 0x3CA4 JUMP JUMPDEST PUSH1 0x40 MLOAD PUSH3 0x461BCD PUSH1 0xE5 SHL DUP2 MSTORE PUSH1 0x4 DUP2 ADD DUP4 SWAP1 MSTORE PUSH1 0x1E PUSH1 0x24 DUP3 ADD MSTORE PUSH32 0x4D61726B65744D616E616765723A20416C72656164792064656C657465640000 PUSH1 0x44 DUP3 ADD MSTORE PUSH1 0x64 SWAP1 REVERT JUMPDEST POP CALLVALUE PUSH2 0x393 JUMPI DUP1 PUSH1 0x3 NOT CALLDATASIZE ADD SLT PUSH2 0x393 JUMPI PUSH1 0xD SLOAD PUSH1 0x40 MLOAD PUSH1 0x1 PUSH1 0x1 PUSH1 0xA0 SHL SUB SWAP1 SWAP2 AND DUP2 MSTORE PUSH1 0x20 SWAP1 RETURN JUMPDEST POP CALLVALUE PUSH2 0x393 JUMPI PUSH1 0x40 CALLDATASIZE PUSH1 0x3 NOT ADD SLT PUSH2 0x393 JUMPI PUSH2 0x1187 SWAP1 PUSH1 0x20 PUSH2 0x3D5A PUSH2 0x4A46 JUMP JUMPDEST PUSH1 0x1 DUP1 PUSH1 0xA0 SHL SUB PUSH1 0xC SLOAD AND PUSH1 0x40 MLOAD DUP1 DUP1 SWAP7 DUP2 SWAP5 PUSH4 0x4F44289D PUSH1 0xE0 SHL DUP4 MSTORE PUSH1 0x4 CALLDATALOAD PUSH1 0x4 DUP5 ADD PUSH2 0x50BE JUMP JUMPDEST POP CALLVALUE PUSH2 0x393 JUMPI PUSH1 0x20 CALLDATASIZE PUSH1 0x3 NOT ADD SLT PUSH2 0x393 JUMPI PUSH1 0x4 CALLDATALOAD PUSH2 0x3DA0 PUSH2 0x4E9B JUMP JUMPDEST DUP1 ISZERO PUSH2 0x3DAC JUMPI PUSH1 0x11 SSTORE DUP1 RETURN JUMPDEST PUSH1 0x40 MLOAD PUSH3 0x461BCD PUSH1 0xE5 SHL DUP2 MSTORE PUSH1 0x20 PUSH1 0x4 DUP3 ADD MSTORE PUSH1 0x27 PUSH1 0x24 DUP3 ADD MSTORE PUSH32 0x4D61726B65744D616E616765723A20496E76616C6964206D696E696D756D2064 PUSH1 0x44 DUP3 ADD MSTORE PUSH7 0x3AB930BA34B7B7 PUSH1 0xC9 SHL PUSH1 0x64 DUP3 ADD MSTORE PUSH1 0x84 SWAP1 REVERT JUMPDEST POP CALLVALUE PUSH2 0x393 JUMPI DUP1 PUSH1 0x3 NOT CALLDATASIZE ADD SLT PUSH2 0x393 JUMPI PUSH1 0x20 PUSH1 0xF SLOAD PUSH1 0x40 MLOAD SWAP1 DUP2 MSTORE RETURN JUMPDEST POP CALLVALUE PUSH2 0x393 JUMPI PUSH1 0x20 DUP1 PUSH1 0x3 NOT CALLDATASIZE ADD SLT PUSH2 0x622 JUMPI PUSH2 0x3F44 PUSH1 0x4 CALLDATALOAD SWAP2 PUSH2 0x3E41 PUSH2 0x5F76 JUMP JUMPDEST POP DUP3 DUP5 MSTORE PUSH1 0x1 SWAP1 DUP2 DUP2 MSTORE PUSH1 0x40 DUP6 KECCAK256 SWAP4 PUSH1 0x40 MLOAD SWAP6 PUSH2 0x3E5D DUP8 PUSH2 0x4CDA JUMP JUMPDEST DUP6 SLOAD PUSH1 0x1 PUSH1 0x1 PUSH1 0xA0 SHL SUB SWAP1 DUP2 AND DUP9 MSTORE PUSH2 0x3E77 DUP6 DUP9 ADD PUSH2 0x4DF5 JUMP JUMPDEST DUP5 DUP10 ADD MSTORE PUSH1 0xFF PUSH1 0x2 DUP9 ADD SLOAD AND ISZERO ISZERO PUSH1 0x40 DUP10 ADD MSTORE PUSH1 0x3 DUP8 ADD SLOAD PUSH1 0x60 DUP10 ADD MSTORE DUP1 PUSH1 0x4 DUP9 ADD SLOAD AND SWAP2 PUSH1 0x80 DUP10 ADD SWAP3 DUP4 MSTORE PUSH1 0x5 DUP9 ADD SLOAD PUSH1 0xA0 DUP11 ADD MSTORE PUSH1 0x6 DUP9 ADD SLOAD PUSH1 0xC0 DUP11 ADD MSTORE PUSH1 0x7 DUP9 ADD SLOAD PUSH1 0xE0 DUP11 ADD MSTORE PUSH1 0xFF PUSH1 0xE PUSH1 0x8 DUP11 ADD SLOAD SWAP10 PUSH2 0x100 SWAP11 DUP12 DUP14 ADD MSTORE PUSH1 0x9 DUP2 ADD SLOAD PUSH2 0x120 DUP14 ADD MSTORE PUSH1 0xA DUP2 ADD SLOAD PUSH2 0x140 DUP14 ADD MSTORE PUSH1 0xB DUP2 ADD SLOAD PUSH2 0x160 DUP14 ADD MSTORE PUSH2 0x3F09 DUP13 PUSH2 0x180 DUP6 PUSH1 0xC DUP6 ADD SLOAD AND SWAP2 ADD PUSH2 0x4FA7 JUMP JUMPDEST PUSH1 0xD DUP2 ADD SLOAD PUSH2 0x1A0 DUP14 ADD MSTORE ADD SLOAD AND ISZERO ISZERO PUSH2 0x1C0 DUP11 ADD MSTORE DUP2 PUSH1 0xC SLOAD AND DUP6 DUP4 DUP6 MLOAD AND PUSH1 0x40 MLOAD DUP1 SWAP11 DUP2 SWAP3 PUSH4 0x3D1E7BA1 PUSH1 0xE1 SHL DUP4 MSTORE DUP10 PUSH1 0x4 DUP5 ADD PUSH2 0x50BE JUMP JUMPDEST SUB DUP2 DUP5 GAS STATICCALL SWAP8 DUP9 ISZERO PUSH2 0x617 JUMPI DUP3 SWAP9 PUSH2 0x40FD JUMPI JUMPDEST POP SWAP1 DUP6 PUSH2 0x3F7F SWAP3 DUP5 DUP7 MLOAD AND SWAP1 PUSH1 0x40 MLOAD DUP1 DUP1 SWAP7 DUP2 SWAP5 PUSH4 0x4F44289D PUSH1 0xE0 SHL DUP4 MSTORE DUP12 PUSH1 0x4 DUP5 ADD PUSH2 0x50BE JUMP JUMPDEST SUB SWAP2 GAS STATICCALL SWAP2 DUP3 ISZERO PUSH2 0x40F0 JUMPI DUP2 SWAP3 PUSH2 0x40C1 JUMPI JUMPDEST POP DUP5 DUP2 MSTORE PUSH1 0x5 DUP7 MSTORE PUSH1 0x40 DUP2 KECCAK256 SLOAD SWAP3 PUSH1 0x6 DUP8 MSTORE PUSH1 0x40 DUP3 KECCAK256 SLOAD SWAP5 PUSH1 0x5 DUP9 MSTORE PUSH1 0x40 DUP4 KECCAK256 SWAP7 DUP10 PUSH1 0x40 MLOAD DUP1 SWAP10 DUP11 SWAP2 DUP13 DUP3 SLOAD SWAP2 DUP3 DUP2 MSTORE ADD SWAP2 DUP9 MSTORE DUP13 DUP1 DUP10 KECCAK256 SWAP5 DUP10 SWAP2 JUMPDEST DUP4 DUP4 LT PUSH2 0x40A8 JUMPI POP POP POP POP PUSH2 0x3FE4 SWAP3 POP SUB DUP10 PUSH2 0x4D11 JUMP JUMPDEST DUP4 MSTORE PUSH1 0x6 DUP9 MSTORE PUSH1 0x40 DUP4 KECCAK256 PUSH1 0x40 MLOAD DUP1 SWAP11 DUP11 DUP4 SLOAD SWAP3 DUP4 DUP2 MSTORE ADD SWAP3 DUP7 MSTORE DUP11 DUP7 KECCAK256 SWAP2 DUP7 JUMPDEST DUP2 DUP2 LT PUSH2 0x4093 JUMPI POP POP POP POP PUSH1 0x40 PUSH2 0x4077 SWAP8 SWAP5 PUSH2 0x4085 SWAP11 SWAP8 SWAP5 DUP13 SWAP11 SWAP8 SWAP5 PUSH2 0x4033 PUSH2 0x3E5 SWAP16 SWAP15 PUSH2 0x4041 SWAP7 SUB DUP14 PUSH2 0x4D11 JUMP JUMPDEST MLOAD AND DUP2 MSTORE PUSH1 0x8 DUP9 MSTORE KECCAK256 PUSH2 0x4DF5 JUMP JUMPDEST SWAP9 PUSH2 0x4057 PUSH1 0x40 MLOAD SWAP14 DUP14 DUP16 SWAP15 DUP16 SWAP1 DUP2 MSTORE ADD SWAP1 PUSH2 0x4C06 JUMP JUMPDEST SWAP6 DUP13 ADD MSTORE PUSH1 0x40 DUP12 ADD MSTORE PUSH1 0x60 DUP11 ADD MSTORE PUSH1 0x80 DUP10 ADD MSTORE DUP8 DUP3 SUB PUSH1 0xA0 DUP10 ADD MSTORE PUSH2 0x4B66 JUMP JUMPDEST SWAP1 DUP6 DUP3 SUB PUSH1 0xC0 DUP8 ADD MSTORE PUSH2 0x4B66 JUMP JUMPDEST SWAP1 DUP4 DUP3 SUB PUSH1 0xE0 DUP6 ADD MSTORE PUSH2 0x4BA3 JUMP JUMPDEST DUP4 SLOAD DUP8 AND DUP6 MSTORE SWAP4 DUP13 ADD SWAP4 SWAP3 DUP3 ADD SWAP3 DUP3 ADD PUSH2 0x4004 JUMP JUMPDEST DUP7 SLOAD DUP11 AND DUP6 MSTORE SWAP6 DUP2 ADD SWAP6 DUP15 SWAP6 POP SWAP1 SWAP4 ADD SWAP3 ADD DUP15 DUP15 PUSH2 0x3FCD JUMP JUMPDEST SWAP1 SWAP2 POP DUP6 DUP2 DUP2 RETURNDATASIZE DUP4 GT PUSH2 0x40E9 JUMPI JUMPDEST PUSH2 0x40D9 DUP2 DUP4 PUSH2 0x4D11 JUMP JUMPDEST DUP2 ADD SUB SLT PUSH2 0x1059 JUMPI MLOAD SWAP1 CODESIZE PUSH2 0x3F91 JUMP JUMPDEST POP RETURNDATASIZE PUSH2 0x40CF JUMP JUMPDEST POP PUSH1 0x40 MLOAD SWAP1 RETURNDATASIZE SWAP1 DUP3 RETURNDATACOPY RETURNDATASIZE SWAP1 REVERT JUMPDEST SWAP2 SWAP1 SWAP8 POP DUP6 DUP3 DUP2 RETURNDATASIZE DUP4 GT PUSH2 0x4127 JUMPI JUMPDEST PUSH2 0x4116 DUP2 DUP4 PUSH2 0x4D11 JUMP JUMPDEST DUP2 ADD SUB SLT PUSH2 0x1059 JUMPI SWAP1 MLOAD SWAP7 DUP6 PUSH2 0x3F57 JUMP JUMPDEST POP RETURNDATASIZE PUSH2 0x410C JUMP JUMPDEST POP CALLVALUE PUSH2 0x393 JUMPI PUSH1 0x20 DUP1 PUSH1 0x3 NOT CALLDATASIZE ADD SLT PUSH2 0x622 JUMPI PUSH1 0x4 CALLDATALOAD DUP1 DUP4 MSTORE PUSH1 0x1 DUP3 MSTORE PUSH1 0x40 DUP4 KECCAK256 SWAP2 PUSH1 0x3 DUP2 MSTORE PUSH1 0x40 DUP5 KECCAK256 CALLER DUP6 MSTORE DUP2 MSTORE PUSH2 0x416D PUSH1 0xFF PUSH1 0x40 DUP7 KECCAK256 SLOAD AND PUSH2 0x53DA JUMP JUMPDEST PUSH1 0xFF PUSH1 0xC DUP5 ADD SLOAD AND PUSH1 0x5 DUP2 LT ISZERO PUSH2 0x1DFB JUMPI DUP1 PUSH2 0x4335 JUMPI POP PUSH1 0x9 DUP4 ADD SLOAD PUSH2 0xA8BF NOT DUP2 ADD SWAP1 DUP2 GT PUSH2 0x4321 JUMPI TIMESTAMP LT ISZERO PUSH2 0x42B7 JUMPI JUMPDEST PUSH1 0x1 DUP1 PUSH1 0xA0 SHL SUB PUSH1 0x4 DUP2 PUSH1 0xC SLOAD AND SWAP5 ADD SLOAD AND SWAP3 DUP5 PUSH1 0x40 MLOAD SWAP5 PUSH4 0x256BA741 PUSH1 0xE0 SHL DUP7 MSTORE DUP4 DUP7 DUP1 PUSH2 0x41D2 DUP5 CALLER DUP11 PUSH1 0x4 DUP6 ADD PUSH2 0x5434 JUMP JUMPDEST SUB DUP2 DUP7 GAS STATICCALL SWAP6 DUP7 ISZERO PUSH2 0x617 JUMPI DUP3 SWAP7 PUSH2 0x4288 JUMPI JUMPDEST POP PUSH2 0x41F1 DUP7 ISZERO ISZERO PUSH2 0x53DA JUMP JUMPDEST DUP3 EXTCODESIZE ISZERO PUSH2 0x622 JUMPI PUSH2 0x421D SWAP3 DUP7 SWAP2 DUP4 PUSH1 0x40 MLOAD DUP1 SWAP7 DUP2 SWAP6 DUP3 SWAP5 PUSH4 0x17BE0B2F PUSH1 0xE1 SHL DUP5 MSTORE CALLER DUP13 PUSH1 0x4 DUP7 ADD PUSH2 0x53B2 JUMP JUMPDEST SUB SWAP3 GAS CALL DUP1 ISZERO PUSH2 0x3AC4 JUMPI PUSH2 0x4267 JUMPI JUMPDEST POP PUSH1 0x0 DUP1 MLOAD PUSH1 0x20 PUSH2 0x6079 DUP4 CODECOPY DUP2 MLOAD SWAP2 MSTORE SWAP1 DUP3 DUP6 MSTORE PUSH1 0x3 DUP2 MSTORE PUSH1 0x40 DUP6 KECCAK256 CALLER PUSH1 0x0 MSTORE DUP2 MSTORE PUSH1 0x40 PUSH1 0x0 KECCAK256 PUSH1 0xFF NOT DUP2 SLOAD AND SWAP1 SSTORE PUSH1 0x40 MLOAD SWAP4 DUP5 MSTORE CALLER SWAP4 LOG3 DUP1 RETURN JUMPDEST SWAP4 PUSH2 0x4281 PUSH1 0x0 DUP1 MLOAD PUSH1 0x20 PUSH2 0x6079 DUP4 CODECOPY DUP2 MLOAD SWAP2 MSTORE SWAP3 SWAP6 PUSH2 0x4CC7 JUMP JUMPDEST SWAP4 SWAP1 PUSH2 0x422C JUMP JUMPDEST SWAP1 SWAP6 POP DUP4 DUP2 DUP2 RETURNDATASIZE DUP4 GT PUSH2 0x42B0 JUMPI JUMPDEST PUSH2 0x42A0 DUP2 DUP4 PUSH2 0x4D11 JUMP JUMPDEST DUP2 ADD SUB SLT PUSH2 0x622 JUMPI MLOAD SWAP5 CODESIZE PUSH2 0x41E5 JUMP JUMPDEST POP RETURNDATASIZE PUSH2 0x4296 JUMP JUMPDEST PUSH1 0x84 SWAP1 PUSH1 0x40 MLOAD SWAP1 PUSH3 0x461BCD PUSH1 0xE5 SHL DUP3 MSTORE PUSH1 0x4 DUP3 ADD MSTORE PUSH1 0x3D PUSH1 0x24 DUP3 ADD MSTORE PUSH32 0x4D61726B65744D616E616765723A2043616E6E6F742077697468647261772077 PUSH1 0x44 DUP3 ADD MSTORE PUSH32 0x697468696E20313220686F757273206F66207374616B696E6720656E64000000 PUSH1 0x64 DUP3 ADD MSTORE REVERT JUMPDEST PUSH4 0x4E487B71 PUSH1 0xE0 SHL DUP6 MSTORE PUSH1 0x11 PUSH1 0x4 MSTORE PUSH1 0x24 DUP6 REVERT JUMPDEST PUSH1 0x4 DUP2 EQ SWAP1 DUP2 ISZERO PUSH2 0x43A9 JUMPI JUMPDEST POP PUSH2 0x419E JUMPI PUSH1 0x84 SWAP1 PUSH1 0x40 MLOAD SWAP1 PUSH3 0x461BCD PUSH1 0xE5 SHL DUP3 MSTORE PUSH1 0x4 DUP3 ADD MSTORE PUSH1 0x36 PUSH1 0x24 DUP3 ADD MSTORE PUSH32 0x4D61726B65744D616E616765723A2043616E6E6F742077697468647261772069 PUSH1 0x44 DUP3 ADD MSTORE PUSH22 0x6E2063757272656E74206D61726B6574207374617465 PUSH1 0x50 SHL PUSH1 0x64 DUP3 ADD MSTORE REVERT JUMPDEST PUSH1 0x3 SWAP2 POP EQ CODESIZE PUSH2 0x4341 JUMP JUMPDEST POP CALLVALUE PUSH2 0x393 JUMPI DUP1 PUSH1 0x3 NOT CALLDATASIZE ADD SLT PUSH2 0x393 JUMPI PUSH1 0x40 MLOAD DUP1 SWAP2 DUP3 PUSH1 0xB SLOAD DUP1 DUP5 MSTORE PUSH1 0x20 DUP1 SWAP5 ADD SWAP1 PUSH1 0xB DUP5 MSTORE DUP5 DUP5 KECCAK256 SWAP4 JUMPDEST DUP6 DUP3 DUP3 LT PUSH2 0x43F7 JUMPI POP POP POP PUSH2 0x2092 SWAP3 POP SUB DUP4 PUSH2 0x4D11 JUMP JUMPDEST DUP6 SLOAD PUSH1 0x1 PUSH1 0x1 PUSH1 0xA0 SHL SUB AND DUP5 MSTORE PUSH1 0x1 SWAP6 DUP7 ADD SWAP6 DUP9 SWAP6 POP SWAP4 ADD SWAP3 ADD PUSH2 0x43E0 JUMP JUMPDEST POP CALLVALUE PUSH2 0x393 JUMPI PUSH1 0x20 CALLDATASIZE PUSH1 0x3 NOT ADD SLT PUSH2 0x393 JUMPI PUSH1 0x4 CALLDATALOAD SWAP1 PUSH1 0x14 SLOAD DUP3 LT ISZERO PUSH2 0x393 JUMPI PUSH1 0x20 PUSH2 0x1F7B DUP4 PUSH2 0x4ADD JUMP JUMPDEST POP CALLVALUE PUSH2 0x393 JUMPI PUSH1 0x20 DUP1 PUSH1 0x3 NOT CALLDATASIZE ADD SLT PUSH2 0x622 JUMPI PUSH1 0x1 PUSH1 0x1 PUSH1 0xA0 SHL SUB PUSH2 0x4464 PUSH2 0x4A30 JUMP JUMPDEST AND DUP3 MSTORE PUSH1 0x16 DUP2 MSTORE PUSH1 0x40 DUP3 KECCAK256 SWAP2 PUSH1 0x40 MLOAD DUP1 SWAP3 DUP1 DUP6 SLOAD SWAP3 DUP4 DUP2 MSTORE ADD SWAP5 DUP4 MSTORE DUP1 DUP4 KECCAK256 SWAP3 SWAP1 JUMPDEST DUP3 DUP3 LT PUSH2 0x449D JUMPI PUSH2 0x3E5 DUP6 PUSH2 0x1EC3 DUP2 DUP10 SUB DUP3 PUSH2 0x4D11 JUMP JUMPDEST DUP4 SLOAD DUP7 MSTORE SWAP5 DUP6 ADD SWAP5 PUSH1 0x1 SWAP4 DUP5 ADD SWAP4 SWAP1 SWAP2 ADD SWAP1 PUSH2 0x4486 JUMP JUMPDEST POP CALLVALUE PUSH2 0x393 JUMPI PUSH1 0x40 CALLDATASIZE PUSH1 0x3 NOT ADD SLT PUSH2 0x393 JUMPI PUSH1 0xFF PUSH1 0x40 PUSH1 0x20 SWAP3 PUSH2 0x44D5 PUSH2 0x4A46 JUMP JUMPDEST PUSH1 0x4 CALLDATALOAD DUP3 MSTORE PUSH1 0x2 DUP6 MSTORE DUP3 DUP3 KECCAK256 PUSH1 0x1 PUSH1 0x1 PUSH1 0xA0 SHL SUB SWAP1 SWAP2 AND DUP3 MSTORE DUP5 MSTORE KECCAK256 SLOAD PUSH1 0x40 MLOAD SWAP2 AND ISZERO ISZERO DUP2 MSTORE RETURN JUMPDEST POP CALLVALUE PUSH2 0x393 JUMPI DUP1 PUSH1 0x3 NOT CALLDATASIZE ADD SLT PUSH2 0x393 JUMPI PUSH1 0x20 PUSH1 0x10 SLOAD PUSH1 0x40 MLOAD SWAP1 DUP2 MSTORE RETURN JUMPDEST POP CALLVALUE PUSH2 0x393 JUMPI PUSH1 0x20 CALLDATASIZE PUSH1 0x3 NOT ADD SLT PUSH2 0x393 JUMPI PUSH1 0x4 CALLDATALOAD PUSH1 0xB SLOAD DUP2 LT ISZERO PUSH2 0x4545 JUMPI PUSH2 0x1651 PUSH1 0x20 SWAP2 PUSH2 0x4AC2 JUMP JUMPDEST PUSH1 0x40 MLOAD PUSH3 0x461BCD PUSH1 0xE5 SHL DUP2 MSTORE PUSH1 0x20 PUSH1 0x4 DUP3 ADD MSTORE PUSH1 0x22 PUSH1 0x24 DUP3 ADD MSTORE PUSH32 0x4D61726B65744D616E616765723A20496E646578206F7574206F6620626F756E PUSH1 0x44 DUP3 ADD MSTORE PUSH2 0x6473 PUSH1 0xF0 SHL PUSH1 0x64 DUP3 ADD MSTORE PUSH1 0x84 SWAP1 REVERT JUMPDEST POP CALLVALUE PUSH2 0x393 JUMPI PUSH1 0x20 CALLDATASIZE PUSH1 0x3 NOT ADD SLT PUSH2 0x393 JUMPI PUSH1 0x4 CALLDATALOAD SWAP1 PUSH1 0x9 SLOAD DUP3 LT ISZERO PUSH2 0x393 JUMPI PUSH1 0x20 PUSH2 0x1651 DUP4 PUSH2 0x4A91 JUMP JUMPDEST POP CALLVALUE PUSH2 0x393 JUMPI PUSH1 0x20 CALLDATASIZE PUSH1 0x3 NOT ADD SLT PUSH2 0x393 JUMPI PUSH1 0x20 SWAP1 PUSH1 0xFF SWAP1 PUSH1 0x40 SWAP1 PUSH1 0x1 PUSH1 0x1 PUSH1 0xA0 SHL SUB PUSH2 0x45EB PUSH2 0x4A30 JUMP JUMPDEST AND DUP2 MSTORE PUSH1 0xA DUP5 MSTORE KECCAK256 SLOAD AND PUSH1 0x40 MLOAD SWAP1 ISZERO ISZERO DUP2 MSTORE RETURN JUMPDEST POP CALLVALUE PUSH2 0x393 JUMPI PUSH1 0x40 CALLDATASIZE PUSH1 0x3 NOT ADD SLT PUSH2 0x393 JUMPI PUSH1 0xFF PUSH1 0x40 PUSH1 0x20 SWAP3 PUSH2 0x4620 PUSH2 0x4A46 JUMP JUMPDEST PUSH1 0x4 CALLDATALOAD DUP3 MSTORE PUSH1 0x3 DUP6 MSTORE DUP3 DUP3 KECCAK256 PUSH1 0x1 PUSH1 0x1 PUSH1 0xA0 SHL SUB SWAP1 SWAP2 AND DUP3 MSTORE DUP5 MSTORE KECCAK256 SLOAD PUSH1 0x40 MLOAD SWAP2 AND ISZERO ISZERO DUP2 MSTORE RETURN JUMPDEST POP CALLVALUE PUSH2 0x393 JUMPI PUSH2 0x468B PUSH1 0x20 PUSH2 0x465C CALLDATASIZE PUSH2 0x4A5C JUMP JUMPDEST PUSH1 0xC SLOAD PUSH1 0x40 MLOAD PUSH4 0x256BA741 PUSH1 0xE0 SHL DUP2 MSTORE SWAP6 DUP7 SWAP5 PUSH1 0x1 PUSH1 0x1 PUSH1 0xA0 SHL SUB SWAP1 SWAP3 AND SWAP4 DUP6 SWAP4 DUP5 SWAP4 SWAP1 SWAP2 SWAP1 PUSH1 0x4 DUP6 ADD PUSH2 0x5434 JUMP JUMPDEST SUB SWAP2 GAS STATICCALL SWAP1 DUP2 ISZERO PUSH2 0x617 JUMPI DUP3 SWAP2 PUSH2 0x46A8 JUMPI JUMPDEST PUSH1 0x20 DUP3 PUSH1 0x40 MLOAD SWAP1 DUP2 MSTORE RETURN JUMPDEST SWAP1 POP PUSH1 0x20 DUP2 RETURNDATASIZE DUP3 GT PUSH2 0x46D5 JUMPI JUMPDEST DUP2 PUSH2 0x46C2 PUSH1 0x20 SWAP4 DUP4 PUSH2 0x4D11 JUMP JUMPDEST DUP2 ADD SUB SLT PUSH2 0x622 JUMPI PUSH1 0x20 SWAP2 POP MLOAD CODESIZE PUSH2 0x469D JUMP JUMPDEST RETURNDATASIZE SWAP2 POP PUSH2 0x46B5 JUMP JUMPDEST POP CALLVALUE PUSH2 0x393 JUMPI DUP1 PUSH1 0x3 NOT CALLDATASIZE ADD SLT PUSH2 0x393 JUMPI PUSH1 0x20 PUSH1 0x11 SLOAD PUSH1 0x40 MLOAD SWAP1 DUP2 MSTORE RETURN JUMPDEST POP CALLVALUE PUSH2 0x393 JUMPI PUSH1 0x20 CALLDATASIZE PUSH1 0x3 NOT ADD SLT PUSH2 0x393 JUMPI PUSH1 0x4 CALLDATALOAD DUP1 DUP3 MSTORE PUSH1 0x1 PUSH1 0x20 MSTORE PUSH1 0x40 DUP3 KECCAK256 PUSH1 0xC DUP2 ADD SWAP1 DUP2 SLOAD SWAP1 PUSH1 0xFF DUP3 AND PUSH1 0x5 DUP2 LT ISZERO PUSH2 0x77E JUMPI SWAP1 PUSH2 0x473E PUSH1 0xA SWAP3 ISZERO PUSH2 0x51B5 JUMP JUMPDEST ADD SLOAD DUP1 TIMESTAMP LT PUSH2 0x477E JUMPI PUSH31 0xB6FEAE4BEC70344A7D0E99F4C0237ADAAEEE2FBB258266BE400BD8612A332 SWAP3 PUSH1 0x1 PUSH1 0x20 SWAP4 PUSH1 0xFF NOT AND OR SWAP1 SSTORE PUSH1 0x40 MLOAD SWAP1 DUP2 MSTORE LOG2 DUP1 RETURN JUMPDEST PUSH1 0x40 MLOAD PUSH3 0x461BCD PUSH1 0xE5 SHL DUP2 MSTORE PUSH1 0x20 PUSH1 0x4 DUP3 ADD MSTORE PUSH1 0x2A PUSH1 0x24 DUP3 ADD MSTORE PUSH32 0x4D61726B65744D616E616765723A205265736F6C7574696F6E2074696D65206E PUSH1 0x44 DUP3 ADD MSTORE PUSH10 0x1BDD081C995858DA1959 PUSH1 0xB2 SHL PUSH1 0x64 DUP3 ADD MSTORE PUSH1 0x84 SWAP1 REVERT JUMPDEST POP CALLVALUE PUSH2 0x393 JUMPI PUSH1 0x20 CALLDATASIZE PUSH1 0x3 NOT ADD SLT PUSH2 0x393 JUMPI PUSH1 0xFF PUSH1 0x40 PUSH1 0x20 SWAP3 PUSH1 0x4 CALLDATALOAD DUP2 MSTORE PUSH1 0x15 DUP5 MSTORE KECCAK256 SLOAD AND PUSH1 0x40 MLOAD SWAP1 ISZERO ISZERO DUP2 MSTORE RETURN JUMPDEST POP CALLVALUE PUSH2 0x393 JUMPI PUSH1 0x20 CALLDATASIZE PUSH1 0x3 NOT ADD SLT PUSH2 0x393 JUMPI PUSH1 0x40 PUSH1 0x20 SWAP2 PUSH1 0x4 CALLDATALOAD DUP2 MSTORE PUSH1 0x5 DUP4 MSTORE KECCAK256 SLOAD PUSH1 0x40 MLOAD SWAP1 DUP2 MSTORE RETURN JUMPDEST POP CALLVALUE PUSH2 0x393 JUMPI PUSH1 0x20 DUP1 PUSH1 0x3 NOT CALLDATASIZE ADD SLT PUSH2 0x622 JUMPI PUSH1 0x4 CALLDATALOAD SWAP1 PUSH2 0x484E PUSH2 0x4E9B JUMP JUMPDEST PUSH2 0x485B PUSH1 0xF SLOAD DUP4 LT PUSH2 0x5E2F JUMP JUMPDEST DUP2 DUP4 MSTORE PUSH1 0x1 DUP1 DUP3 MSTORE PUSH1 0x40 DUP5 KECCAK256 SLOAD PUSH2 0x487C SWAP1 PUSH1 0x1 PUSH1 0x1 PUSH1 0xA0 SHL SUB AND ISZERO ISZERO PUSH2 0x5E7A JUMP JUMPDEST DUP3 DUP5 MSTORE DUP1 DUP3 MSTORE PUSH1 0xFF PUSH1 0xC PUSH1 0x40 DUP7 KECCAK256 ADD SLOAD AND PUSH1 0x5 DUP2 LT ISZERO PUSH2 0x1DFB JUMPI PUSH1 0x2 PUSH2 0x48A2 SWAP2 EQ PUSH2 0x57CD JUMP JUMPDEST DUP3 DUP5 MSTORE DUP1 DUP3 MSTORE PUSH1 0xB PUSH1 0x40 DUP6 KECCAK256 ADD SLOAD PUSH3 0x278D00 DUP2 ADD DUP1 SWAP2 GT PUSH2 0x4321 JUMPI TIMESTAMP LT PUSH2 0x49DD JUMPI DUP3 DUP5 MSTORE DUP1 DUP3 MSTORE DUP4 PUSH1 0xE PUSH1 0x40 DUP3 KECCAK256 DUP3 DUP2 SSTORE PUSH2 0x48DE DUP5 DUP3 ADD PUSH2 0x5DBB JUMP JUMPDEST DUP3 PUSH1 0x2 DUP3 ADD SSTORE DUP3 PUSH1 0x3 DUP3 ADD SSTORE DUP3 PUSH1 0x4 DUP3 ADD SSTORE DUP3 PUSH1 0x5 DUP3 ADD SSTORE DUP3 PUSH1 0x6 DUP3 ADD SSTORE DUP3 PUSH1 0x7 DUP3 ADD SSTORE DUP3 PUSH1 0x8 DUP3 ADD SSTORE DUP3 PUSH1 0x9 DUP3 ADD SSTORE DUP3 PUSH1 0xA DUP3 ADD SSTORE DUP3 PUSH1 0xB DUP3 ADD SSTORE DUP3 PUSH1 0xC DUP3 ADD SSTORE DUP3 PUSH1 0xD DUP3 ADD SSTORE ADD SSTORE DUP3 DUP5 MSTORE PUSH1 0x15 DUP3 MSTORE PUSH1 0xFF PUSH1 0x40 DUP6 KECCAK256 SLOAD AND PUSH2 0x49CF JUMPI JUMPDEST PUSH1 0x19 SLOAD SWAP1 PUSH1 0x1 PUSH1 0x40 SHL DUP3 LT ISZERO PUSH2 0x33DB JUMPI DUP2 ADD DUP1 PUSH1 0x19 SSTORE DUP2 LT ISZERO PUSH2 0x49BB JUMPI PUSH1 0x0 DUP1 MLOAD PUSH1 0x20 PUSH2 0x6019 DUP4 CODECOPY DUP2 MLOAD SWAP2 MSTORE SWAP2 DUP4 PUSH1 0x80 SWAP3 PUSH1 0x19 DUP8 MSTORE DUP3 DUP8 KECCAK256 ADD SSTORE PUSH1 0x26 PUSH1 0x40 MLOAD SWAP2 DUP1 DUP4 MSTORE DUP3 ADD MSTORE PUSH32 0x5065726D616E656E746C792072656D6F76656420616674657220636C61696D20 PUSH1 0x40 DUP3 ADD MSTORE PUSH6 0x1C195C9A5BD9 PUSH1 0xD2 SHL PUSH1 0x60 DUP3 ADD MSTORE LOG2 DUP1 RETURN JUMPDEST PUSH4 0x4E487B71 PUSH1 0xE0 SHL DUP5 MSTORE PUSH1 0x32 PUSH1 0x4 MSTORE PUSH1 0x24 DUP5 REVERT JUMPDEST PUSH2 0x49D8 DUP4 PUSH2 0x5ED2 JUMP JUMPDEST PUSH2 0x493C JUMP JUMPDEST PUSH1 0x40 MLOAD PUSH3 0x461BCD PUSH1 0xE5 SHL DUP2 MSTORE PUSH1 0x4 DUP2 ADD DUP4 SWAP1 MSTORE PUSH1 0x25 PUSH1 0x24 DUP3 ADD MSTORE PUSH32 0x4D61726B65744D616E616765723A20436C61696D20706572696F64206E6F7420 PUSH1 0x44 DUP3 ADD MSTORE PUSH5 0x195B991959 PUSH1 0xDA SHL PUSH1 0x64 DUP3 ADD MSTORE PUSH1 0x84 SWAP1 REVERT JUMPDEST PUSH1 0x4 CALLDATALOAD SWAP1 PUSH1 0x1 PUSH1 0x1 PUSH1 0xA0 SHL SUB DUP3 AND DUP3 SUB PUSH2 0x1059 JUMPI JUMP JUMPDEST PUSH1 0x24 CALLDATALOAD SWAP1 PUSH1 0x1 PUSH1 0x1 PUSH1 0xA0 SHL SUB DUP3 AND DUP3 SUB PUSH2 0x1059 JUMPI JUMP JUMPDEST PUSH1 0x60 SWAP1 PUSH1 0x3 NOT ADD SLT PUSH2 0x1059 JUMPI PUSH1 0x4 CALLDATALOAD SWAP1 PUSH1 0x1 PUSH1 0x1 PUSH1 0xA0 SHL SUB SWAP1 PUSH1 0x24 CALLDATALOAD DUP3 DUP2 AND DUP2 SUB PUSH2 0x1059 JUMPI SWAP2 PUSH1 0x44 CALLDATALOAD SWAP1 DUP2 AND DUP2 SUB PUSH2 0x1059 JUMPI SWAP1 JUMP JUMPDEST PUSH1 0x9 SLOAD DUP2 LT ISZERO PUSH2 0x4AAC JUMPI PUSH1 0x9 PUSH1 0x0 MSTORE PUSH1 0x20 PUSH1 0x0 KECCAK256 ADD SWAP1 PUSH1 0x0 SWAP1 JUMP JUMPDEST PUSH4 0x4E487B71 PUSH1 0xE0 SHL PUSH1 0x0 MSTORE PUSH1 0x32 PUSH1 0x4 MSTORE PUSH1 0x24 PUSH1 0x0 REVERT JUMPDEST PUSH1 0xB SLOAD DUP2 LT ISZERO PUSH2 0x4AAC JUMPI PUSH1 0xB PUSH1 0x0 MSTORE PUSH1 0x20 PUSH1 0x0 KECCAK256 ADD SWAP1 PUSH1 0x0 SWAP1 JUMP JUMPDEST PUSH1 0x14 SLOAD DUP2 LT ISZERO PUSH2 0x4AAC JUMPI PUSH1 0x14 PUSH1 0x0 MSTORE PUSH1 0x20 PUSH1 0x0 KECCAK256 ADD SWAP1 PUSH1 0x0 SWAP1 JUMP JUMPDEST PUSH1 0x17 SLOAD DUP2 LT ISZERO PUSH2 0x4AAC JUMPI PUSH1 0x17 PUSH1 0x0 MSTORE PUSH1 0x20 PUSH1 0x0 KECCAK256 ADD SWAP1 PUSH1 0x0 SWAP1 JUMP JUMPDEST DUP1 SLOAD DUP3 LT ISZERO PUSH2 0x4AAC JUMPI PUSH1 0x0 MSTORE PUSH1 0x20 PUSH1 0x0 KECCAK256 ADD SWAP1 PUSH1 0x0 SWAP1 JUMP JUMPDEST PUSH1 0x20 SWAP1 DUP2 PUSH1 0x40 DUP2 DUP4 ADD SWAP3 DUP3 DUP2 MSTORE DUP6 MLOAD DUP1 SWAP5 MSTORE ADD SWAP4 ADD SWAP2 PUSH1 0x0 JUMPDEST DUP3 DUP2 LT PUSH2 0x4B52 JUMPI POP POP POP POP SWAP1 JUMP JUMPDEST DUP4 MLOAD DUP6 MSTORE SWAP4 DUP2 ADD SWAP4 SWAP3 DUP2 ADD SWAP3 PUSH1 0x1 ADD PUSH2 0x4B44 JUMP JUMPDEST SWAP1 DUP2 MLOAD DUP1 DUP3 MSTORE PUSH1 0x20 DUP1 DUP1 SWAP4 ADD SWAP4 ADD SWAP2 PUSH1 0x0 JUMPDEST DUP3 DUP2 LT PUSH2 0x4B86 JUMPI POP POP POP POP SWAP1 JUMP JUMPDEST DUP4 MLOAD PUSH1 0x1 PUSH1 0x1 PUSH1 0xA0 SHL SUB AND DUP6 MSTORE SWAP4 DUP2 ADD SWAP4 SWAP3 DUP2 ADD SWAP3 PUSH1 0x1 ADD PUSH2 0x4B78 JUMP JUMPDEST SWAP2 SWAP1 DUP3 MLOAD SWAP3 DUP4 DUP3 MSTORE PUSH1 0x0 JUMPDEST DUP5 DUP2 LT PUSH2 0x4BCF JUMPI POP POP DUP3 PUSH1 0x0 PUSH1 0x20 DUP1 SWAP5 SWAP6 DUP5 ADD ADD MSTORE PUSH1 0x1F DUP1 NOT SWAP2 ADD AND ADD ADD SWAP1 JUMP JUMPDEST PUSH1 0x20 DUP2 DUP4 ADD DUP2 ADD MLOAD DUP5 DUP4 ADD DUP3 ADD MSTORE ADD PUSH2 0x4BAE JUMP JUMPDEST SWAP1 PUSH1 0x5 DUP3 LT ISZERO PUSH2 0x4BF0 JUMPI MSTORE JUMP JUMPDEST PUSH4 0x4E487B71 PUSH1 0xE0 SHL PUSH1 0x0 MSTORE PUSH1 0x21 PUSH1 0x4 MSTORE PUSH1 0x24 PUSH1 0x0 REVERT JUMPDEST SWAP1 PUSH1 0x1 DUP1 PUSH1 0xA0 SHL SUB SWAP2 DUP3 DUP2 MLOAD AND DUP3 MSTORE PUSH2 0x4C2E PUSH1 0x20 DUP3 ADD MLOAD PUSH2 0x1E0 DUP1 PUSH1 0x20 DUP7 ADD MSTORE DUP5 ADD SWAP1 PUSH2 0x4BA3 JUMP JUMPDEST SWAP3 PUSH1 0x40 DUP3 ADD MLOAD ISZERO ISZERO PUSH1 0x40 DUP5 ADD MSTORE PUSH1 0x60 DUP3 ADD MLOAD PUSH1 0x60 DUP5 ADD MSTORE PUSH1 0x80 DUP3 ADD MLOAD AND PUSH1 0x80 DUP4 ADD MSTORE PUSH1 0xA0 DUP2 ADD MLOAD PUSH1 0xA0 DUP4 ADD MSTORE PUSH1 0xC0 DUP2 ADD MLOAD PUSH1 0xC0 DUP4 ADD MSTORE PUSH1 0xE0 DUP2 ADD MLOAD PUSH1 0xE0 DUP4 ADD MSTORE PUSH2 0x100 DUP1 DUP3 ADD MLOAD SWAP1 DUP4 ADD MSTORE PUSH2 0x120 DUP1 DUP3 ADD MLOAD SWAP1 DUP4 ADD MSTORE PUSH2 0x140 DUP1 DUP3 ADD MLOAD SWAP1 DUP4 ADD MSTORE PUSH2 0x160 DUP1 DUP3 ADD MLOAD SWAP1 DUP4 ADD MSTORE PUSH2 0x4CAD PUSH2 0x180 DUP1 DUP4 ADD MLOAD SWAP1 DUP5 ADD SWAP1 PUSH2 0x4BE3 JUMP JUMPDEST PUSH2 0x1A0 DUP1 DUP3 ADD MLOAD SWAP1 DUP4 ADD MSTORE PUSH2 0x1C0 DUP1 SWAP2 ADD MLOAD ISZERO ISZERO SWAP2 ADD MSTORE SWAP1 JUMP JUMPDEST PUSH1 0x1 PUSH1 0x1 PUSH1 0x40 SHL SUB DUP2 GT PUSH2 0x1491 JUMPI PUSH1 0x40 MSTORE JUMP JUMPDEST PUSH2 0x1E0 DUP2 ADD SWAP1 DUP2 LT PUSH1 0x1 PUSH1 0x1 PUSH1 0x40 SHL SUB DUP3 GT OR PUSH2 0x1491 JUMPI PUSH1 0x40 MSTORE JUMP JUMPDEST PUSH1 0x40 DUP2 ADD SWAP1 DUP2 LT PUSH1 0x1 PUSH1 0x1 PUSH1 0x40 SHL SUB DUP3 GT OR PUSH2 0x1491 JUMPI PUSH1 0x40 MSTORE JUMP JUMPDEST PUSH1 0x1F SWAP1 SWAP2 ADD PUSH1 0x1F NOT AND DUP2 ADD SWAP1 PUSH1 0x1 PUSH1 0x1 PUSH1 0x40 SHL SUB DUP3 GT SWAP1 DUP3 LT OR PUSH2 0x1491 JUMPI PUSH1 0x40 MSTORE JUMP JUMPDEST PUSH1 0x1 PUSH1 0x1 PUSH1 0x40 SHL SUB DUP2 GT PUSH2 0x1491 JUMPI PUSH1 0x1F ADD PUSH1 0x1F NOT AND PUSH1 0x20 ADD SWAP1 JUMP JUMPDEST DUP2 PUSH1 0x1F DUP3 ADD SLT ISZERO PUSH2 0x1059 JUMPI DUP1 CALLDATALOAD SWAP1 PUSH2 0x4D66 DUP3 PUSH2 0x4D34 JUMP JUMPDEST SWAP3 PUSH2 0x4D74 PUSH1 0x40 MLOAD SWAP5 DUP6 PUSH2 0x4D11 JUMP JUMPDEST DUP3 DUP5 MSTORE PUSH1 0x20 DUP4 DUP4 ADD ADD GT PUSH2 0x1059 JUMPI DUP2 PUSH1 0x0 SWAP3 PUSH1 0x20 DUP1 SWAP4 ADD DUP4 DUP7 ADD CALLDATACOPY DUP4 ADD ADD MSTORE SWAP1 JUMP JUMPDEST PUSH1 0x40 SWAP1 PUSH1 0x3 NOT ADD SLT PUSH2 0x1059 JUMPI PUSH1 0x4 CALLDATALOAD SWAP1 PUSH1 0x24 CALLDATALOAD SWAP1 JUMP JUMPDEST PUSH1 0x24 CALLDATALOAD SWAP1 DUP2 ISZERO ISZERO DUP3 SUB PUSH2 0x1059 JUMPI JUMP JUMPDEST SWAP1 PUSH1 0x1 DUP3 DUP2 SHR SWAP3 AND DUP1 ISZERO PUSH2 0x4DEB JUMPI JUMPDEST PUSH1 0x20 DUP4 LT EQ PUSH2 0x4DD5 JUMPI JUMP JUMPDEST PUSH4 0x4E487B71 PUSH1 0xE0 SHL PUSH1 0x0 MSTORE PUSH1 0x22 PUSH1 0x4 MSTORE PUSH1 0x24 PUSH1 0x0 REVERT JUMPDEST SWAP2 PUSH1 0x7F AND SWAP2 PUSH2 0x4DCA JUMP JUMPDEST SWAP1 PUSH1 0x40 MLOAD SWAP2 DUP3 PUSH1 0x0 DUP3 SLOAD SWAP3 PUSH2 0x4E09 DUP5 PUSH2 0x4DBB JUMP JUMPDEST SWAP1 DUP2 DUP5 MSTORE PUSH1 0x1 SWAP5 DUP6 DUP2 AND SWAP1 DUP2 PUSH1 0x0 EQ PUSH2 0x4E78 JUMPI POP PUSH1 0x1 EQ PUSH2 0x4E35 JUMPI JUMPDEST POP POP PUSH2 0x4E33 SWAP3 POP SUB DUP4 PUSH2 0x4D11 JUMP JUMPDEST JUMP JUMPDEST SWAP1 SWAP4 SWAP2 POP PUSH1 0x0 MSTORE PUSH1 0x20 SWAP1 DUP2 PUSH1 0x0 KECCAK256 SWAP4 PUSH1 0x0 SWAP2 JUMPDEST DUP2 DUP4 LT PUSH2 0x4E60 JUMPI POP POP PUSH2 0x4E33 SWAP4 POP DUP3 ADD ADD CODESIZE DUP1 PUSH2 0x4E25 JUMP JUMPDEST DUP6 SLOAD DUP9 DUP5 ADD DUP6 ADD MSTORE SWAP5 DUP6 ADD SWAP5 DUP8 SWAP5 POP SWAP2 DUP4 ADD SWAP2 PUSH2 0x4E48 JUMP JUMPDEST SWAP2 POP POP PUSH2 0x4E33 SWAP5 POP PUSH1 0x20 SWAP3 POP PUSH1 0xFF NOT AND DUP3 DUP5 ADD MSTORE ISZERO ISZERO PUSH1 0x5 SHL DUP3 ADD ADD CODESIZE DUP1 PUSH2 0x4E25 JUMP JUMPDEST PUSH1 0x0 SLOAD PUSH1 0x1 PUSH1 0x1 PUSH1 0xA0 SHL SUB AND CALLER SUB PUSH2 0x4EAF JUMPI JUMP JUMPDEST PUSH1 0x40 MLOAD PUSH4 0x118CDAA7 PUSH1 0xE0 SHL DUP2 MSTORE CALLER PUSH1 0x4 DUP3 ADD MSTORE PUSH1 0x24 SWAP1 REVERT JUMPDEST ISZERO PUSH2 0x4ECE JUMPI JUMP JUMPDEST PUSH1 0x40 MLOAD PUSH3 0x461BCD PUSH1 0xE5 SHL DUP2 MSTORE PUSH1 0x20 PUSH1 0x4 DUP3 ADD MSTORE PUSH1 0x21 PUSH1 0x24 DUP3 ADD MSTORE PUSH32 0x4D61726B65744D616E616765723A2057616C6C657420626C61636B6C69737465 PUSH1 0x44 DUP3 ADD MSTORE PUSH1 0x19 PUSH1 0xFA SHL PUSH1 0x64 DUP3 ADD MSTORE PUSH1 0x84 SWAP1 REVERT JUMPDEST ISZERO PUSH2 0x4F24 JUMPI JUMP JUMPDEST PUSH1 0x40 MLOAD PUSH3 0x461BCD PUSH1 0xE5 SHL DUP2 MSTORE PUSH1 0x20 PUSH1 0x4 DUP3 ADD MSTORE PUSH1 0x22 PUSH1 0x24 DUP3 ADD MSTORE PUSH1 0x0 DUP1 MLOAD PUSH1 0x20 PUSH2 0x6059 DUP4 CODECOPY DUP2 MLOAD SWAP2 MSTORE PUSH1 0x44 DUP3 ADD MSTORE PUSH2 0x1959 PUSH1 0xF2 SHL PUSH1 0x64 DUP3 ADD MSTORE PUSH1 0x84 SWAP1 REVERT JUMPDEST DUP2 DUP2 MUL SWAP3 SWAP2 DUP2 ISZERO SWAP2 DUP5 DIV EQ OR ISZERO PUSH2 0x4F75 JUMPI JUMP JUMPDEST PUSH4 0x4E487B71 PUSH1 0xE0 SHL PUSH1 0x0 MSTORE PUSH1 0x11 PUSH1 0x4 MSTORE PUSH1 0x24 PUSH1 0x0 REVERT JUMPDEST SWAP2 SWAP1 DUP3 ADD DUP1 SWAP3 GT PUSH2 0x4F75 JUMPI JUMP JUMPDEST PUSH1 0x0 NOT DUP2 EQ PUSH2 0x4F75 JUMPI PUSH1 0x1 ADD SWAP1 JUMP JUMPDEST PUSH1 0x5 DUP3 LT ISZERO PUSH2 0x4BF0 JUMPI MSTORE JUMP JUMPDEST DUP2 DUP2 LT PUSH2 0x4FBE JUMPI POP POP JUMP JUMPDEST PUSH1 0x0 DUP2 SSTORE PUSH1 0x1 ADD PUSH2 0x4FB3 JUMP JUMPDEST SWAP1 PUSH1 0xFF DUP1 NOT DUP4 SLOAD AND SWAP2 ISZERO ISZERO AND OR SWAP1 SSTORE JUMP JUMPDEST DUP1 SLOAD SWAP2 SWAP1 PUSH1 0x1 PUSH1 0x40 SHL DUP4 LT ISZERO PUSH2 0x1491 JUMPI DUP3 PUSH2 0x2F73 SWAP2 PUSH1 0x1 PUSH2 0x4E33 SWAP6 ADD DUP2 SSTORE PUSH2 0x4B13 JUMP JUMPDEST RETURNDATASIZE ISZERO PUSH2 0x5029 JUMPI RETURNDATASIZE SWAP1 PUSH2 0x500F DUP3 PUSH2 0x4D34 JUMP JUMPDEST SWAP2 PUSH2 0x501D PUSH1 0x40 MLOAD SWAP4 DUP5 PUSH2 0x4D11 JUMP JUMPDEST DUP3 MSTORE RETURNDATASIZE PUSH1 0x0 PUSH1 0x20 DUP5 ADD RETURNDATACOPY JUMP JUMPDEST PUSH1 0x60 SWAP1 JUMP JUMPDEST ISZERO PUSH2 0x5035 JUMPI JUMP JUMPDEST PUSH1 0x40 MLOAD PUSH3 0x461BCD PUSH1 0xE5 SHL DUP2 MSTORE PUSH1 0x20 PUSH1 0x4 DUP3 ADD MSTORE PUSH1 0x2B PUSH1 0x24 DUP3 ADD MSTORE PUSH32 0x4D61726B65744D616E616765723A20466565207472616E7366657220746F206F PUSH1 0x44 DUP3 ADD MSTORE PUSH11 0x1DDB995C8819985A5B1959 PUSH1 0xAA SHL PUSH1 0x64 DUP3 ADD MSTORE PUSH1 0x84 SWAP1 REVERT JUMPDEST SWAP1 DUP2 MSTORE PUSH1 0x1 PUSH1 0x1 PUSH1 0xA0 SHL SUB SWAP2 DUP3 AND PUSH1 0x20 DUP3 ADD MSTORE SWAP2 AND PUSH1 0x40 DUP3 ADD MSTORE PUSH1 0x60 DUP2 ADD SWAP2 SWAP1 SWAP2 MSTORE PUSH1 0x80 DUP2 ADD SWAP2 SWAP1 SWAP2 MSTORE PUSH1 0xA0 ADD SWAP1 JUMP JUMPDEST SWAP1 DUP2 MSTORE PUSH1 0x1 PUSH1 0x1 PUSH1 0xA0 SHL SUB SWAP1 SWAP2 AND PUSH1 0x20 DUP3 ADD MSTORE PUSH1 0x40 ADD SWAP1 JUMP JUMPDEST SWAP1 SWAP5 SWAP4 SWAP3 PUSH1 0x60 SWAP3 PUSH1 0x80 DUP4 ADD SWAP7 DUP4 MSTORE PUSH1 0x1 DUP1 PUSH1 0xA0 SHL SUB AND PUSH1 0x20 DUP4 ADD MSTORE PUSH1 0x40 DUP3 ADD MSTORE ADD MSTORE JUMP JUMPDEST PUSH1 0x1 PUSH1 0x1 PUSH1 0xA0 SHL SUB SWAP2 DUP3 AND DUP2 MSTORE SWAP2 AND PUSH1 0x20 DUP3 ADD MSTORE PUSH1 0x40 DUP2 ADD SWAP2 SWAP1 SWAP2 MSTORE PUSH1 0x60 ADD SWAP1 JUMP JUMPDEST SWAP3 SWAP1 PUSH1 0x0 SWAP2 PUSH2 0x5156 PUSH1 0x20 SWAP5 PUSH2 0x5148 PUSH1 0x40 MLOAD SWAP4 DUP5 SWAP3 DUP9 DUP5 ADD SWAP7 PUSH4 0x23B872DD PUSH1 0xE0 SHL DUP9 MSTORE PUSH1 0x24 DUP6 ADD PUSH2 0x50FB JUMP JUMPDEST SUB PUSH1 0x1F NOT DUP2 ADD DUP4 MSTORE DUP3 PUSH2 0x4D11 JUMP JUMPDEST MLOAD SWAP1 DUP3 DUP6 GAS CALL ISZERO PUSH2 0x51A9 JUMPI PUSH1 0x0 MLOAD RETURNDATASIZE PUSH2 0x51A0 JUMPI POP PUSH1 0x1 PUSH1 0x1 PUSH1 0xA0 SHL SUB DUP2 AND EXTCODESIZE ISZERO JUMPDEST PUSH2 0x517E JUMPI POP JUMP JUMPDEST PUSH1 0x40 MLOAD PUSH4 0x5274AFE7 PUSH1 0xE0 SHL DUP2 MSTORE PUSH1 0x1 PUSH1 0x1 PUSH1 0xA0 SHL SUB SWAP1 SWAP2 AND PUSH1 0x4 DUP3 ADD MSTORE PUSH1 0x24 SWAP1 REVERT JUMPDEST PUSH1 0x1 EQ ISZERO PUSH2 0x5177 JUMP JUMPDEST PUSH1 0x40 MLOAD RETURNDATASIZE PUSH1 0x0 DUP3 RETURNDATACOPY RETURNDATASIZE SWAP1 REVERT JUMPDEST ISZERO PUSH2 0x51BC JUMPI JUMP JUMPDEST PUSH1 0x64 PUSH1 0x40 MLOAD PUSH3 0x461BCD PUSH1 0xE5 SHL DUP2 MSTORE PUSH1 0x20 PUSH1 0x4 DUP3 ADD MSTORE PUSH1 0x20 PUSH1 0x24 DUP3 ADD MSTORE PUSH32 0x4D61726B65744D616E616765723A204D61726B6574206E6F7420616374697665 PUSH1 0x44 DUP3 ADD MSTORE REVERT JUMPDEST SWAP2 SWAP1 DUP3 SUB SWAP2 DUP3 GT PUSH2 0x4F75 JUMPI JUMP JUMPDEST ISZERO PUSH2 0x5214 JUMPI JUMP JUMPDEST PUSH1 0x40 MLOAD PUSH3 0x461BCD PUSH1 0xE5 SHL DUP2 MSTORE PUSH1 0x20 PUSH1 0x4 DUP3 ADD MSTORE PUSH1 0x4D PUSH1 0x24 DUP3 ADD MSTORE PUSH32 0x4D61726B65744D616E616765723A205374616B696E6720706572696F6420656E PUSH1 0x44 DUP3 ADD MSTORE PUSH32 0x646564202D206E6F207374616B657320616C6C6F77656420696E207265737472 PUSH1 0x64 DUP3 ADD MSTORE PUSH13 0x1A58DD1A5BDB881C195C9A5BD9 PUSH1 0x9A SHL PUSH1 0x84 DUP3 ADD MSTORE PUSH1 0xA4 SWAP1 REVERT JUMPDEST ISZERO PUSH2 0x529C JUMPI JUMP JUMPDEST PUSH1 0x40 MLOAD PUSH3 0x461BCD PUSH1 0xE5 SHL DUP2 MSTORE PUSH1 0x20 PUSH1 0x4 DUP3 ADD MSTORE PUSH1 0x1D PUSH1 0x24 DUP3 ADD MSTORE PUSH32 0x4D61726B65744D616E616765723A20496E76616C6964206F7074696F6E000000 PUSH1 0x44 DUP3 ADD MSTORE PUSH1 0x64 SWAP1 REVERT JUMPDEST ISZERO PUSH2 0x52E8 JUMPI JUMP JUMPDEST PUSH1 0x40 MLOAD PUSH3 0x461BCD PUSH1 0xE5 SHL DUP2 MSTORE PUSH1 0x20 PUSH1 0x4 DUP3 ADD MSTORE PUSH1 0x22 PUSH1 0x24 DUP3 ADD MSTORE PUSH1 0x0 DUP1 MLOAD PUSH1 0x20 PUSH2 0x6099 DUP4 CODECOPY DUP2 MLOAD SWAP2 MSTORE PUSH1 0x44 DUP3 ADD MSTORE PUSH2 0x6B65 PUSH1 0xF0 SHL PUSH1 0x64 DUP3 ADD MSTORE PUSH1 0x84 SWAP1 REVERT JUMPDEST DUP1 SLOAD SWAP2 SWAP1 PUSH1 0x1 PUSH1 0x40 SHL DUP4 LT ISZERO PUSH2 0x1491 JUMPI DUP3 PUSH2 0x146F SWAP2 PUSH1 0x1 PUSH2 0x4E33 SWAP6 ADD DUP2 SSTORE PUSH2 0x4B13 JUMP JUMPDEST ISZERO PUSH2 0x5350 JUMPI JUMP JUMPDEST PUSH1 0x40 MLOAD PUSH3 0x461BCD PUSH1 0xE5 SHL DUP2 MSTORE PUSH1 0x20 PUSH1 0x4 DUP3 ADD MSTORE PUSH1 0x34 PUSH1 0x24 DUP3 ADD MSTORE PUSH32 0x4D61726B65744D616E616765723A20537570706F727420616D6F756E74206D75 PUSH1 0x44 DUP3 ADD MSTORE PUSH20 0x73742062652067726561746572207468616E203 PUSH1 0x64 SHL PUSH1 0x64 DUP3 ADD MSTORE PUSH1 0x84 SWAP1 REVERT JUMPDEST SWAP1 DUP2 MSTORE PUSH1 0x1 PUSH1 0x1 PUSH1 0xA0 SHL SUB SWAP2 DUP3 AND PUSH1 0x20 DUP3 ADD MSTORE SWAP2 AND PUSH1 0x40 DUP3 ADD MSTORE PUSH1 0x60 DUP2 ADD SWAP2 SWAP1 SWAP2 MSTORE PUSH1 0x80 ADD SWAP1 JUMP JUMPDEST ISZERO PUSH2 0x53E1 JUMPI JUMP JUMPDEST PUSH1 0x40 MLOAD PUSH3 0x461BCD PUSH1 0xE5 SHL DUP2 MSTORE PUSH1 0x20 PUSH1 0x4 DUP3 ADD MSTORE PUSH1 0x25 PUSH1 0x24 DUP3 ADD MSTORE PUSH32 0x4D61726B65744D616E616765723A204E6F20737570706F727420746F20776974 PUSH1 0x44 DUP3 ADD MSTORE PUSH5 0x6864726177 PUSH1 0xD8 SHL PUSH1 0x64 DUP3 ADD MSTORE PUSH1 0x84 SWAP1 REVERT JUMPDEST SWAP1 DUP2 MSTORE PUSH1 0x1 PUSH1 0x1 PUSH1 0xA0 SHL SUB SWAP2 DUP3 AND PUSH1 0x20 DUP3 ADD MSTORE SWAP2 AND PUSH1 0x40 DUP3 ADD MSTORE PUSH1 0x60 ADD SWAP1 JUMP JUMPDEST ISZERO PUSH2 0x545B JUMPI JUMP JUMPDEST PUSH1 0x40 MLOAD PUSH3 0x461BCD PUSH1 0xE5 SHL DUP2 MSTORE PUSH1 0x20 PUSH1 0x4 DUP3 ADD MSTORE PUSH1 0x28 PUSH1 0x24 DUP3 ADD MSTORE PUSH32 0x4D61726B65744D616E616765723A204D61726B6574206E6F7420696E20656E64 PUSH1 0x44 DUP3 ADD MSTORE PUSH8 0x6564207374617465 PUSH1 0xC0 SHL PUSH1 0x64 DUP3 ADD MSTORE PUSH1 0x84 SWAP1 REVERT JUMPDEST ISZERO PUSH2 0x54B8 JUMPI JUMP JUMPDEST PUSH1 0x40 MLOAD PUSH3 0x461BCD PUSH1 0xE5 SHL DUP2 MSTORE PUSH1 0x20 PUSH1 0x4 DUP3 ADD MSTORE PUSH1 0x1F PUSH1 0x24 DUP3 ADD MSTORE PUSH32 0x4D61726B65744D616E616765723A20416C7265616479207265736F6C76656400 PUSH1 0x44 DUP3 ADD MSTORE PUSH1 0x64 SWAP1 REVERT JUMPDEST PUSH1 0x40 MLOAD SWAP1 PUSH2 0x550A DUP3 PUSH2 0x4CF6 JUMP JUMPDEST PUSH1 0x19 DUP3 MSTORE PUSH25 0x14995CDBDB1D5D1A5BDB881C195C9A5BD908195E1C1A5C9959 PUSH1 0x3A SHL PUSH1 0x20 DUP4 ADD MSTORE JUMP JUMPDEST MLOAD SWAP1 DUP2 ISZERO ISZERO DUP3 SUB PUSH2 0x1059 JUMPI JUMP JUMPDEST SWAP2 SWAP1 DUP3 PUSH1 0x40 SWAP2 SUB SLT PUSH2 0x1059 JUMPI PUSH1 0x20 PUSH2 0x5556 DUP4 PUSH2 0x5532 JUMP JUMPDEST SWAP3 ADD MLOAD SWAP1 JUMP JUMPDEST SWAP1 PUSH1 0x0 DUP3 DUP2 MSTORE PUSH1 0x1 PUSH1 0x20 MSTORE PUSH1 0x40 SWAP1 DUP2 DUP2 KECCAK256 PUSH1 0xC DUP2 ADD PUSH1 0xFF DUP2 SLOAD AND PUSH1 0x5 DUP2 LT ISZERO PUSH2 0x112A JUMPI PUSH1 0x1 PUSH2 0x558B SWAP2 EQ PUSH2 0x5454 JUMP JUMPDEST DUP5 ISZERO ISZERO DUP1 PUSH2 0x57BF JUMPI JUMPDEST ISZERO PUSH2 0x576D JUMPI PUSH1 0xE DUP3 ADD PUSH2 0x55AB PUSH1 0xFF DUP3 SLOAD AND ISZERO PUSH2 0x54B1 JUMP JUMPDEST PUSH1 0xB DUP4 ADD SLOAD TIMESTAMP LT ISZERO PUSH2 0x575B JUMPI PUSH1 0xD SLOAD DUP6 MLOAD PUSH4 0x33138655 PUSH1 0xE2 SHL DUP2 MSTORE PUSH1 0x4 DUP2 ADD DUP10 SWAP1 MSTORE PUSH1 0x1 PUSH1 0x1 PUSH1 0xA0 SHL SUB SWAP5 SWAP2 DUP8 SWAP1 DUP3 SWAP1 PUSH1 0x24 SWAP1 DUP3 SWAP1 DUP10 AND GAS STATICCALL DUP1 ISZERO PUSH2 0x5751 JUMPI DUP9 SWAP1 DUP8 SWAP3 DUP9 SWAP2 PUSH2 0x572E JUMPI JUMPDEST POP DUP3 PUSH2 0x5724 JUMPI JUMPDEST POP POP ISZERO PUSH2 0x56BD JUMPI PUSH1 0xD ADD DUP7 SWAP1 SSTORE DUP1 SLOAD PUSH1 0xFF NOT SWAP1 DUP2 AND PUSH1 0x1 OR SWAP1 SWAP2 SSTORE DUP2 SLOAD AND PUSH1 0x2 OR SWAP1 SSTORE PUSH2 0x5628 DUP6 PUSH2 0x59AC JUMP JUMPDEST PUSH1 0xE SLOAD AND DUP1 PUSH2 0x564E JUMPI JUMPDEST POP POP PUSH1 0x0 DUP1 MLOAD PUSH1 0x20 PUSH2 0x60D9 DUP4 CODECOPY DUP2 MLOAD SWAP2 MSTORE SWAP2 PUSH1 0x20 SWAP2 MLOAD SWAP1 DUP2 MSTORE LOG2 JUMP JUMPDEST DUP1 EXTCODESIZE ISZERO PUSH2 0x622 JUMPI DUP2 DUP1 SWAP2 PUSH1 0x44 DUP6 MLOAD DUP1 SWAP6 DUP2 SWAP4 PUSH3 0xFF4A73 PUSH1 0xE8 SHL DUP4 MSTORE DUP11 PUSH1 0x4 DUP5 ADD MSTORE DUP10 PUSH1 0x24 DUP5 ADD MSTORE GAS CALL SWAP1 DUP2 ISZERO PUSH2 0x56B2 JUMPI POP SWAP2 PUSH1 0x0 DUP1 MLOAD PUSH1 0x20 PUSH2 0x60D9 DUP4 CODECOPY DUP2 MLOAD SWAP2 MSTORE SWAP4 SWAP2 PUSH1 0x20 SWAP4 PUSH2 0x56A3 JUMPI JUMPDEST POP SWAP2 DUP2 SWAP4 POP PUSH2 0x5632 JUMP JUMPDEST PUSH2 0x56AC SWAP1 PUSH2 0x4CC7 JUMP JUMPDEST CODESIZE PUSH2 0x5699 JUMP JUMPDEST DUP4 MLOAD SWAP1 RETURNDATASIZE SWAP1 DUP3 RETURNDATACOPY RETURNDATASIZE SWAP1 REVERT JUMPDEST DUP6 MLOAD PUSH3 0x461BCD PUSH1 0xE5 SHL DUP2 MSTORE PUSH1 0x20 PUSH1 0x4 DUP3 ADD MSTORE PUSH1 0x3A PUSH1 0x24 DUP3 ADD MSTORE PUSH32 0x4D61726B65744D616E616765723A20496E73756666696369656E742076657269 PUSH1 0x44 DUP3 ADD MSTORE PUSH26 0x3334B2B9103B37BA32B9903337B9103A3434B99037B83A34B7B7 PUSH1 0x31 SHL PUSH1 0x64 DUP3 ADD MSTORE PUSH1 0x84 SWAP1 REVERT JUMPDEST EQ SWAP1 POP DUP8 CODESIZE PUSH2 0x55FC JUMP JUMPDEST SWAP1 POP PUSH2 0x5748 SWAP2 SWAP3 POP DUP9 RETURNDATASIZE DUP11 GT PUSH2 0x1DE9 JUMPI PUSH2 0x1DD9 DUP2 DUP4 PUSH2 0x4D11 JUMP JUMPDEST SWAP2 SWAP1 SWAP2 CODESIZE PUSH2 0x55F5 JUMP JUMPDEST DUP8 MLOAD RETURNDATASIZE DUP9 DUP3 RETURNDATACOPY RETURNDATASIZE SWAP1 REVERT JUMPDEST POP POP POP POP POP POP PUSH2 0x4E33 SWAP1 PUSH2 0x21D8 PUSH2 0x54FD JUMP JUMPDEST DUP4 MLOAD PUSH3 0x461BCD PUSH1 0xE5 SHL DUP2 MSTORE PUSH1 0x20 PUSH1 0x4 DUP3 ADD MSTORE PUSH1 0x25 PUSH1 0x24 DUP3 ADD MSTORE PUSH32 0x4D61726B65744D616E616765723A20496E76616C69642077696E6E696E67206F PUSH1 0x44 DUP3 ADD MSTORE PUSH5 0x383A34B7B7 PUSH1 0xD9 SHL PUSH1 0x64 DUP3 ADD MSTORE PUSH1 0x84 SWAP1 REVERT JUMPDEST POP PUSH1 0x3 DUP3 ADD SLOAD DUP6 GT ISZERO PUSH2 0x5594 JUMP JUMPDEST ISZERO PUSH2 0x57D4 JUMPI JUMP JUMPDEST PUSH1 0x40 MLOAD PUSH3 0x461BCD PUSH1 0xE5 SHL DUP2 MSTORE PUSH1 0x20 PUSH1 0x4 DUP3 ADD MSTORE PUSH1 0x22 PUSH1 0x24 DUP3 ADD MSTORE PUSH32 0x4D61726B65744D616E616765723A204D61726B6574206E6F74207265736F6C76 PUSH1 0x44 DUP3 ADD MSTORE PUSH2 0x1959 PUSH1 0xF2 SHL PUSH1 0x64 DUP3 ADD MSTORE PUSH1 0x84 SWAP1 REVERT JUMPDEST ISZERO PUSH2 0x582B JUMPI JUMP JUMPDEST PUSH1 0x64 PUSH1 0x40 MLOAD PUSH3 0x461BCD PUSH1 0xE5 SHL DUP2 MSTORE PUSH1 0x20 PUSH1 0x4 DUP3 ADD MSTORE PUSH1 0x20 PUSH1 0x24 DUP3 ADD MSTORE PUSH32 0x4D61726B65744D616E616765723A204E6F2077696E6E696E67206F7074696F6E PUSH1 0x44 DUP3 ADD MSTORE REVERT JUMPDEST ISZERO PUSH2 0x5876 JUMPI JUMP JUMPDEST PUSH1 0x40 MLOAD PUSH3 0x461BCD PUSH1 0xE5 SHL DUP2 MSTORE PUSH1 0x20 PUSH1 0x4 DUP3 ADD MSTORE PUSH1 0x1E PUSH1 0x24 DUP3 ADD MSTORE PUSH32 0x4D61726B65744D616E616765723A204E6F207374616B6520706C616365640000 PUSH1 0x44 DUP3 ADD MSTORE PUSH1 0x64 SWAP1 REVERT JUMPDEST ISZERO PUSH2 0x58C2 JUMPI JUMP JUMPDEST PUSH1 0x40 MLOAD PUSH3 0x461BCD PUSH1 0xE5 SHL DUP2 MSTORE PUSH1 0x20 PUSH1 0x4 DUP3 ADD MSTORE PUSH1 0x1E PUSH1 0x24 DUP3 ADD MSTORE PUSH32 0x4D61726B65744D616E616765723A20416C726561647920636C61696D65640000 PUSH1 0x44 DUP3 ADD MSTORE PUSH1 0x64 SWAP1 REVERT JUMPDEST SWAP1 DUP2 MSTORE PUSH1 0x20 DUP2 ADD SWAP2 SWAP1 SWAP2 MSTORE PUSH1 0x1 PUSH1 0x1 PUSH1 0xA0 SHL SUB SWAP1 SWAP2 AND PUSH1 0x40 DUP3 ADD MSTORE PUSH1 0x60 ADD SWAP1 JUMP JUMPDEST DUP2 ISZERO PUSH2 0x5932 JUMPI DIV SWAP1 JUMP JUMPDEST PUSH4 0x4E487B71 PUSH1 0xE0 SHL PUSH1 0x0 MSTORE PUSH1 0x12 PUSH1 0x4 MSTORE PUSH1 0x24 PUSH1 0x0 REVERT JUMPDEST SWAP1 PUSH2 0x598C PUSH1 0x0 DUP1 MLOAD PUSH1 0x20 PUSH2 0x6019 DUP4 CODECOPY DUP2 MLOAD SWAP2 MSTORE SWAP2 DUP4 PUSH1 0x0 MSTORE PUSH1 0x1 PUSH1 0x20 MSTORE PUSH1 0xC PUSH1 0x40 PUSH1 0x0 KECCAK256 ADD PUSH1 0x3 PUSH1 0xFF NOT DUP3 SLOAD AND OR SWAP1 SSTORE PUSH1 0x40 MLOAD SWAP2 DUP3 SWAP2 PUSH1 0x20 DUP4 MSTORE PUSH1 0x20 DUP4 ADD SWAP1 PUSH2 0x4BA3 JUMP JUMPDEST SUB SWAP1 LOG2 JUMP JUMPDEST PUSH1 0x1 PUSH1 0x1 PUSH1 0xA0 SHL SUB SWAP1 SWAP2 AND DUP2 MSTORE PUSH1 0x20 DUP2 ADD SWAP2 SWAP1 SWAP2 MSTORE PUSH1 0x40 ADD SWAP1 JUMP JUMPDEST PUSH1 0x0 SWAP1 DUP1 DUP3 MSTORE PUSH1 0x20 SWAP1 PUSH1 0x1 DUP3 MSTORE PUSH1 0x40 SWAP2 DUP3 DUP5 KECCAK256 SWAP2 DUP5 SWAP2 PUSH1 0x1 SWAP1 DUP6 PUSH1 0x3 DUP7 ADD SLOAD SWAP4 PUSH1 0xD DUP8 ADD SLOAD SWAP5 JUMPDEST DUP1 DUP6 GT ISZERO PUSH2 0x5D05 JUMPI POP PUSH1 0xC SLOAD PUSH1 0x4 DUP1 DUP10 ADD DUP1 SLOAD SWAP5 MLOAD PUSH4 0x4F44289D PUSH1 0xE0 SHL DUP2 MSTORE PUSH1 0x1 PUSH1 0x1 PUSH1 0xA0 SHL SUB SWAP11 SWAP2 SWAP10 SWAP3 SWAP9 SWAP6 DUP12 AND SWAP8 POP SWAP5 SWAP3 DUP11 AND SWAP4 SWAP1 SWAP3 SWAP1 SWAP2 DUP7 DUP7 DUP1 PUSH2 0x5A1D DUP12 DUP8 DUP4 DUP16 ADD PUSH2 0x50BE JUMP JUMPDEST SUB DUP2 DUP9 GAS STATICCALL SWAP6 DUP7 ISZERO PUSH2 0x5CFB JUMPI SWAP2 DUP9 SWAP2 DUP9 SWAP4 DUP16 SWAP9 PUSH2 0x5CB9 JUMPI JUMPDEST POP PUSH2 0x5A5E SWAP8 PUSH2 0x5A43 SWAP2 PUSH2 0x4F8B JUMP JUMPDEST POP DUP13 MLOAD PUSH4 0xDC4CE349 PUSH1 0xE0 SHL DUP2 MSTORE SWAP7 DUP8 SWAP3 DUP4 SWAP3 DUP7 DUP14 DUP6 ADD PUSH2 0x5907 JUMP JUMPDEST SUB DUP2 DUP7 GAS STATICCALL SWAP4 DUP5 ISZERO PUSH2 0x5C74 JUMPI DUP6 SWAP2 DUP8 SWAP2 DUP14 SWAP7 PUSH2 0x5C7E JUMPI JUMPDEST POP DUP12 MLOAD PUSH4 0x3D1E7BA1 PUSH1 0xE1 SHL DUP2 MSTORE SWAP3 SWAP2 DUP4 SWAP2 DUP3 SWAP2 PUSH2 0x5A94 SWAP2 DUP13 DUP5 ADD PUSH2 0x50BE JUMP JUMPDEST SUB DUP2 DUP7 GAS STATICCALL SWAP5 DUP6 ISZERO PUSH2 0x5C74 JUMPI DUP12 SWAP6 PUSH2 0x5C40 JUMPI JUMPDEST POP POP PUSH2 0x1F4 SWAP3 DUP4 DUP6 MUL SWAP6 DUP6 ISZERO SWAP5 DUP7 DUP9 DIV EQ DUP6 OR ISZERO PUSH2 0x5C2D JUMPI PUSH2 0x2710 DUP1 SWAP8 DIV SWAP4 DUP11 DUP6 ISZERO ISZERO SWAP5 DUP6 PUSH2 0x5BC7 JUMPI JUMPDEST POP POP POP POP ISZERO PUSH1 0x0 EQ PUSH2 0x5B81 JUMPI POP POP PUSH2 0x251C DUP1 DUP4 MUL SWAP3 DUP4 DIV EQ OR ISZERO PUSH2 0x5B6E JUMPI DIV SWAP3 DUP4 PUSH2 0x5AFF JUMPI JUMPDEST POP POP POP POP POP POP JUMP JUMPDEST DUP1 PUSH1 0xC SLOAD AND SWAP3 SLOAD AND SWAP1 DUP3 EXTCODESIZE ISZERO PUSH2 0x5B6A JUMPI SWAP2 DUP5 SWAP4 SWAP2 DUP7 DUP1 SWAP5 PUSH2 0x5B33 SWAP8 MLOAD SWAP8 DUP9 SWAP6 DUP7 SWAP5 DUP6 SWAP4 PUSH4 0xF0824F33 PUSH1 0xE0 SHL DUP6 MSTORE DUP5 ADD PUSH2 0x5991 JUMP JUMPDEST SUB SWAP3 GAS CALL SWAP1 DUP2 ISZERO PUSH2 0x5B61 JUMPI POP PUSH2 0x5B4D JUMPI JUMPDEST DUP1 DUP1 DUP1 DUP1 PUSH2 0x5AF7 JUMP JUMPDEST PUSH2 0x5B57 DUP3 SWAP2 PUSH2 0x4CC7 JUMP JUMPDEST PUSH2 0x393 JUMPI DUP1 PUSH2 0x5B44 JUMP JUMPDEST MLOAD RETURNDATASIZE DUP5 DUP3 RETURNDATACOPY RETURNDATASIZE SWAP1 REVERT JUMPDEST DUP6 DUP1 REVERT JUMPDEST PUSH4 0x4E487B71 PUSH1 0xE0 SHL DUP8 MSTORE PUSH1 0x11 DUP4 MSTORE PUSH1 0x24 DUP8 REVERT JUMPDEST SWAP3 POP SWAP6 SWAP3 POP POP PUSH2 0x5B93 JUMPI POP POP POP POP POP POP JUMP JUMPDEST DUP1 PUSH1 0xC SLOAD AND SWAP3 SLOAD AND SWAP1 DUP3 EXTCODESIZE ISZERO PUSH2 0x5B6A JUMPI SWAP2 DUP5 SWAP4 SWAP2 DUP7 DUP1 SWAP5 PUSH2 0x5B33 SWAP8 MLOAD SWAP8 DUP9 SWAP6 DUP7 SWAP5 DUP6 SWAP4 PUSH4 0x48FEF595 PUSH1 0xE0 SHL DUP6 MSTORE DUP5 ADD PUSH2 0x5991 JUMP JUMPDEST SLOAD AND DUP2 EXTCODESIZE ISZERO PUSH2 0x5C29 JUMPI SWAP2 DUP14 SWAP2 DUP7 SWAP4 DUP4 DUP16 PUSH2 0x5BF5 DUP15 SWAP2 MLOAD SWAP8 DUP9 SWAP7 DUP8 SWAP6 DUP7 SWAP5 PUSH4 0x112CD223 PUSH1 0xE0 SHL DUP7 MSTORE DUP6 ADD PUSH2 0x50FB JUMP JUMPDEST SUB SWAP3 GAS CALL DUP1 ISZERO PUSH2 0x5C1F JUMPI PUSH2 0x5C0C JUMPI JUMPDEST DUP1 DUP11 DUP2 PUSH2 0x5AD1 JUMP JUMPDEST PUSH2 0x5C18 SWAP1 SWAP12 SWAP2 SWAP12 PUSH2 0x4CC7 JUMP JUMPDEST SWAP10 CODESIZE PUSH2 0x5C04 JUMP JUMPDEST DUP12 MLOAD RETURNDATASIZE DUP15 DUP3 RETURNDATACOPY RETURNDATASIZE SWAP1 REVERT JUMPDEST DUP14 DUP1 REVERT JUMPDEST PUSH4 0x4E487B71 PUSH1 0xE0 SHL DUP13 MSTORE PUSH1 0x11 DUP9 MSTORE PUSH1 0x24 DUP13 REVERT JUMPDEST SWAP1 DUP1 SWAP3 SWAP6 POP DUP2 RETURNDATASIZE DUP4 GT PUSH2 0x5C6D JUMPI JUMPDEST PUSH2 0x5C58 DUP2 DUP4 PUSH2 0x4D11 JUMP JUMPDEST DUP2 ADD SUB SLT PUSH2 0x5C69 JUMPI MLOAD SWAP3 CODESIZE DUP1 PUSH2 0x5AA7 JUMP JUMPDEST DUP10 DUP1 REVERT JUMPDEST POP RETURNDATASIZE PUSH2 0x5C4E JUMP JUMPDEST DUP11 MLOAD RETURNDATASIZE DUP14 DUP3 RETURNDATACOPY RETURNDATASIZE SWAP1 REVERT JUMPDEST SWAP3 DUP4 SWAP2 SWAP7 POP DUP1 SWAP3 POP RETURNDATASIZE DUP4 GT PUSH2 0x5CB2 JUMPI JUMPDEST PUSH2 0x5C98 DUP2 DUP4 PUSH2 0x4D11 JUMP JUMPDEST DUP2 ADD SUB SLT PUSH2 0x5CAE JUMPI MLOAD SWAP3 DUP5 SWAP1 DUP7 SWAP1 PUSH2 0x5A94 PUSH2 0x5A75 JUMP JUMPDEST DUP11 DUP1 REVERT JUMPDEST POP RETURNDATASIZE PUSH2 0x5C8E JUMP JUMPDEST SWAP3 POP SWAP3 SWAP1 SWAP4 SWAP5 SWAP6 SWAP7 POP DUP2 DUP2 RETURNDATASIZE DUP4 GT PUSH2 0x5CF4 JUMPI JUMPDEST PUSH2 0x5CD6 DUP2 DUP4 PUSH2 0x4D11 JUMP JUMPDEST DUP2 ADD SUB SLT PUSH2 0x5CF0 JUMPI MLOAD SWAP5 SWAP4 SWAP3 SWAP2 DUP7 SWAP2 DUP9 SWAP2 SWAP1 PUSH2 0x5A43 PUSH2 0x5A35 JUMP JUMPDEST DUP13 DUP1 REVERT JUMPDEST POP RETURNDATASIZE PUSH2 0x5CCC JUMP JUMPDEST DUP13 MLOAD RETURNDATASIZE DUP16 DUP3 RETURNDATACOPY RETURNDATASIZE SWAP1 REVERT JUMPDEST SWAP2 POP SWAP2 SWAP3 DUP5 DUP2 SUB PUSH2 0x5D23 JUMPI JUMPDEST PUSH2 0x5D1A SWAP1 PUSH2 0x4F98 JUMP JUMPDEST SWAP3 SWAP2 DUP8 SWAP2 PUSH2 0x59D3 JUMP JUMPDEST SWAP5 DUP8 DUP5 DUP8 PUSH1 0x1 DUP1 PUSH1 0xA0 SHL SUB DUP7 DUP12 PUSH2 0x5D5A DUP4 PUSH1 0xC SLOAD AND SWAP4 PUSH1 0x4 DUP1 SWAP4 ADD SLOAD AND SWAP7 MLOAD SWAP7 DUP8 SWAP6 DUP7 SWAP5 DUP6 SWAP5 PUSH4 0xDC4CE349 PUSH1 0xE0 SHL DUP7 MSTORE DUP6 ADD PUSH2 0x5907 JUMP JUMPDEST SUB SWAP2 GAS STATICCALL SWAP1 DUP2 ISZERO PUSH2 0x5DB1 JUMPI DUP11 SWAP2 PUSH2 0x5D82 JUMPI JUMPDEST POP PUSH2 0x5D7A SWAP1 PUSH2 0x5D1A SWAP3 PUSH2 0x4F8B JUMP JUMPDEST SWAP6 SWAP1 POP PUSH2 0x5D11 JUMP JUMPDEST SWAP1 POP DUP5 DUP2 DUP2 RETURNDATASIZE DUP4 GT PUSH2 0x5DAA JUMPI JUMPDEST PUSH2 0x5D99 DUP2 DUP4 PUSH2 0x4D11 JUMP JUMPDEST DUP2 ADD SUB SLT PUSH2 0x5C69 JUMPI MLOAD PUSH2 0x5D1A PUSH2 0x5D6C JUMP JUMPDEST POP RETURNDATASIZE PUSH2 0x5D8F JUMP JUMPDEST DUP10 MLOAD RETURNDATASIZE DUP13 DUP3 RETURNDATACOPY RETURNDATASIZE SWAP1 REVERT JUMPDEST PUSH2 0x5DC5 DUP2 SLOAD PUSH2 0x4DBB JUMP JUMPDEST SWAP1 DUP2 PUSH2 0x5DCF JUMPI POP POP JUMP JUMPDEST DUP2 PUSH1 0x1F PUSH1 0x0 SWAP4 GT PUSH1 0x1 EQ PUSH2 0x5DE1 JUMPI POP SSTORE JUMP JUMPDEST SWAP1 DUP1 DUP4 SWAP2 DUP3 MSTORE PUSH2 0x5E00 PUSH1 0x1F PUSH1 0x20 DUP5 KECCAK256 SWAP5 ADD PUSH1 0x5 SHR DUP5 ADD PUSH1 0x1 DUP6 ADD PUSH2 0x4FB3 JUMP JUMPDEST SSTORE SSTORE JUMP JUMPDEST PUSH1 0x1 PUSH1 0x1 PUSH1 0x40 SHL SUB DUP2 GT PUSH2 0x1491 JUMPI PUSH1 0x5 SHL PUSH1 0x20 ADD SWAP1 JUMP JUMPDEST DUP1 MLOAD DUP3 LT ISZERO PUSH2 0x4AAC JUMPI PUSH1 0x20 SWAP2 PUSH1 0x5 SHL ADD ADD SWAP1 JUMP JUMPDEST ISZERO PUSH2 0x5E36 JUMPI JUMP JUMPDEST PUSH1 0x64 PUSH1 0x40 MLOAD PUSH3 0x461BCD PUSH1 0xE5 SHL DUP2 MSTORE PUSH1 0x20 PUSH1 0x4 DUP3 ADD MSTORE PUSH1 0x20 PUSH1 0x24 DUP3 ADD MSTORE PUSH32 0x4D61726B65744D616E616765723A20496E76616C6964206D61726B6574204944 PUSH1 0x44 DUP3 ADD MSTORE REVERT JUMPDEST ISZERO PUSH2 0x5E81 JUMPI JUMP JUMPDEST PUSH1 0x40 MLOAD PUSH3 0x461BCD PUSH1 0xE5 SHL DUP2 MSTORE PUSH1 0x20 PUSH1 0x4 DUP3 ADD MSTORE PUSH1 0x24 DUP1 DUP3 ADD MSTORE PUSH32 0x4D61726B65744D616E616765723A204D61726B657420646F6573206E6F742065 PUSH1 0x44 DUP3 ADD MSTORE PUSH4 0x1E1A5CDD PUSH1 0xE2 SHL PUSH1 0x64 DUP3 ADD MSTORE PUSH1 0x84 SWAP1 REVERT JUMPDEST PUSH1 0x0 JUMPDEST PUSH1 0x14 SWAP1 DUP2 SLOAD SWAP2 DUP3 DUP3 LT ISZERO PUSH2 0x5F70 JUMPI DUP4 SWAP3 PUSH2 0x5EEE DUP4 PUSH2 0x4ADD JUMP JUMPDEST SWAP5 SWAP1 SLOAD PUSH1 0x3 SWAP6 DUP7 SHL SHR EQ PUSH2 0x5F0D JUMPI POP POP PUSH2 0x5F08 SWAP2 POP PUSH2 0x4F98 JUMP JUMPDEST PUSH2 0x5ED5 JUMP JUMPDEST SWAP1 SWAP2 PUSH1 0x0 NOT SWAP2 DUP1 DUP4 ADD SWAP2 SWAP1 DUP3 GT PUSH2 0x4F75 JUMPI PUSH2 0x2F73 PUSH2 0x5F2D PUSH2 0x5F39 SWAP4 PUSH2 0x4ADD JUMP JUMPDEST SWAP1 SLOAD SWAP1 DUP8 SHL SHR SWAP2 PUSH2 0x4ADD JUMP JUMPDEST DUP2 SLOAD DUP1 ISZERO PUSH2 0x1557 JUMPI DUP2 ADD SWAP3 PUSH2 0x5F4D DUP5 PUSH2 0x4ADD JUMP JUMPDEST DUP2 SWAP4 SWAP2 SLOAD SWAP3 SHL SHL NOT AND SWAP1 SSTORE SSTORE PUSH1 0x0 MSTORE PUSH1 0x15 PUSH1 0x20 MSTORE PUSH1 0x40 PUSH1 0x0 KECCAK256 PUSH1 0xFF NOT DUP2 SLOAD AND SWAP1 SSTORE JUMP JUMPDEST POP POP POP POP JUMP JUMPDEST PUSH1 0x40 MLOAD SWAP1 PUSH2 0x5F83 DUP3 PUSH2 0x4CDA JUMP JUMPDEST DUP2 PUSH2 0x1C0 PUSH1 0x0 SWAP2 DUP3 DUP2 MSTORE PUSH1 0x60 PUSH1 0x20 DUP3 ADD MSTORE DUP3 PUSH1 0x40 DUP3 ADD MSTORE DUP3 PUSH1 0x60 DUP3 ADD MSTORE DUP3 PUSH1 0x80 DUP3 ADD MSTORE DUP3 PUSH1 0xA0 DUP3 ADD MSTORE DUP3 PUSH1 0xC0 DUP3 ADD MSTORE DUP3 PUSH1 0xE0 DUP3 ADD MSTORE DUP3 PUSH2 0x100 DUP3 ADD MSTORE DUP3 PUSH2 0x120 DUP3 ADD MSTORE DUP3 PUSH2 0x140 DUP3 ADD MSTORE DUP3 PUSH2 0x160 DUP3 ADD MSTORE DUP3 PUSH2 0x180 DUP3 ADD MSTORE DUP3 PUSH2 0x1A0 DUP3 ADD MSTORE ADD MSTORE JUMP JUMPDEST SWAP1 PUSH2 0x5FF0 DUP3 PUSH2 0x5E04 JUMP JUMPDEST PUSH2 0x5FFD PUSH1 0x40 MLOAD SWAP2 DUP3 PUSH2 0x4D11 JUMP JUMPDEST DUP3 DUP2 MSTORE DUP1 SWAP3 PUSH2 0x600E PUSH1 0x1F NOT SWAP2 PUSH2 0x5E04 JUMP JUMPDEST ADD SWAP1 PUSH1 0x20 CALLDATASIZE SWAP2 ADD CALLDATACOPY JUMP INVALID 0x4C GASLIMIT PUSH2 0xC5B0 DIV DUP5 0x24 SMOD SHR GT ISZERO 0xE9 CALL 0xE3 0x25 BASEFEE PUSH15 0x21C21333D968F21097B7B72D12AD4D PUSH2 0x726B PUSH6 0x744D616E6167 PUSH6 0x723A20546869 PUSH20 0x206D61726B65742075736573204D61726B65744D PUSH2 0x6E61 PUSH8 0x65723A20546F6B65 PUSH15 0x206E6F7420737570706F7274FB349E CALLDATASIZE PUSH32 0xA58E764F8867E52D91C7E0B9E6904700091667054CE1FDB56C496D4D61726B65 PUSH21 0x4D616E616765723A2042656C6F77206D696E696D75 PUSH14 0x207374618BE0079C531659141344 0xCD 0x1F 0xD0 LOG4 CALLCODE DUP5 NOT 0x49 PUSH32 0x9722A3DAAFE3B4186F6B6457E06DFC24F0F2FB42E49FB4FA3FFA8ABB148CAB90 DUP11 0x1F 0xB8 CALLER JUMPDEST EXTCODEHASH SLT DUP11 ADDMOD 0xB2 MSIZE 0x4A CALL 0x4D PUSH2 0x726B PUSH6 0x744D616E6167 PUSH6 0x723A20496E73 PUSH22 0x6666696369656E742050455055E10FDDE2C5CD9B92E4 0x49 0xEE 0x25 0xDF ADD INVALID 0xBD LOG2 0xCB 0xEB 0xC5 SSTORE RETURNDATACOPY CODESIZE CALLCODE 0x25 0xF INVALID PUSH32 0x2D5143BC944998273E477B495144FB8794C914197F3CCB46BE2900F4698FD0EF PUSH21 0x3C9695A264697066735822122049D04BBCB197A923 0x27 0xF 0xC7 PUSH8 0x52D06806B3946224 NUMBER MSTORE8 0xBA SWAP10 0xE9 JUMPI 0x4C CALLCODE COINBASE 0x4E 0xED 0xC9 PUSH5 0x736F6C6343 STOP ADDMOD EQ STOP CALLER "},"methodIdentifiers":{"activeMarkets(uint256)":"3adfe6d0","addSupportedToken(address,string)":"720138e8","analytics()":"80d5ac8a","autoResolve(uint256)":"b1138b50","bettingRestrictionEnabled()":"88d3cc48","bettingRestrictionMinutes()":"baa9c4ac","blacklistedAddresses(uint256)":"a7a8c359","blacklistedWallets(address)":"2b5ba3b9","calculateWinnings(uint256,address)":"f15cc406","cancelMarket(uint256)":"7c16cd9e","claimRefund(uint256)":"5b7baf64","claimWinnings(uint256)":"677bd9ff","createMarket(string,bool,uint256,address,uint256,uint256,uint256,uint256,uint256)":"638b022c","creatorCancelMarket(uint256)":"c3436e0c","deleteMarket(uint256,string)":"51049969","deletedMarkets(uint256)":"881df9e1","deletionTimestamp(uint256)":"ad8e42ff","endMarket(uint256)":"157bdcce","getActiveMarketCount()":"5da3247a","getActiveMarkets()":"a5e973c3","getAllMarketIds()":"b85ed636","getBlacklistedAddresses()":"3bbab179","getBlacklistedCount()":"5a1d0277","getBlacklistedWallet(uint256)":"2b8aa3ad","getDeletedMarkets()":"65ebce55","getMarket(uint256)":"eb44fdd3","getMarketInfo(uint256)":"3ec79193","getMarketStakers(uint256)":"6f59359e","getMarketSupporters(uint256)":"87fea110","getMarketsReadyForRemoval()":"c8a843b7","getNextMarketId()":"fe53a6e8","getOptionPool(uint256,uint256,address)":"dc4ce349","getPermanentlyRemovedMarkets()":"6d822220","getStakerCount(uint256)":"0ccf4467","getSupportPool(uint256,address)":"4f44289d","getSupportedTokenCount()":"ce67be26","getSupportedTokens()":"d3c7c2c7","getSupporterCount(uint256)":"a30a0914","getTotalPool(uint256,address)":"f00fe321","getUserMarketHistory(address)":"33d6b46e","getUserStake(uint256,address,address)":"847cf782","getUserSupport(uint256,address,address)":"256ba741","isActiveMarket(uint256)":"0d64cdbd","isMarketActive(uint256)":"f849f69e","isWalletBlacklisted(address)":"1356af02","marketCreationFee()":"2ef1bdfa","marketStakers(uint256,uint256)":"d5f82707","marketSupporters(uint256,uint256)":"c22c62c3","markets(uint256)":"b1283e77","minMarketDurationMinutes()":"17916e01","nextMarketId()":"406ef2ef","owner()":"8da5cb5b","permanentlyRemoveMarket(uint256)":"07adc191","permanentlyRemovedMarkets(uint256)":"81b17d29","placeStake(uint256,uint256)":"f4867591","placeStakeWithToken(uint256,uint256,uint256)":"f1b7dde3","removeSupportedToken(address)":"76319190","renounceOwnership()":"715018a6","resolveMarket(uint256,uint256)":"60557333","setAnalytics(address)":"74c350eb","setBettingRestriction(bool,uint256)":"e78d0117","setMarketCreationFee(uint256)":"9f37022a","setMinMarketDuration(uint256)":"45843695","setVerification(address)":"971f8bb1","setWalletBlacklist(address,bool)":"db62c6de","supportMarket(uint256,uint256)":"f204072f","supportedTokenList(uint256)":"2b60c822","supportedTokens(address)":"68c4ac26","tokenSymbols(address)":"fb0b2b36","transferOwnership(address)":"f2fde38b","treasury()":"61d027b3","userHasStaked(uint256,address)":"304bf1f1","userHasSupported(uint256,address)":"287f57b5","userMarketHistory(address,uint256)":"98a17671","userStakeOptions(uint256,address)":"d8c5dd67","verification()":"4ffe2a8b","withdrawSupport(uint256)":"3e32a76c"}}}}}