{"contracts/P2PMarketManager.sol":{"P2PMarketManager":{"abi":[{"inputs":[{"internalType":"address","name":"initialOwner","type":"address"},{"internalType":"address payable","name":"_treasury","type":"address"},{"internalType":"address","name":"_adminManager","type":"address"}],"stateMutability":"nonpayable","type":"constructor"},{"inputs":[{"internalType":"address","name":"owner","type":"address"}],"name":"OwnableInvalidOwner","type":"error"},{"inputs":[{"internalType":"address","name":"account","type":"address"}],"name":"OwnableUnauthorizedAccount","type":"error"},{"inputs":[{"internalType":"address","name":"token","type":"address"}],"name":"SafeERC20FailedOperation","type":"error"},{"anonymous":false,"inputs":[{"indexed":true,"internalType":"uint256","name":"marketId","type":"uint256"},{"indexed":false,"internalType":"string","name":"reason","type":"string"}],"name":"MarketCancelled","type":"event"},{"anonymous":false,"inputs":[{"indexed":true,"internalType":"uint256","name":"marketId","type":"uint256"},{"indexed":true,"internalType":"address","name":"creator","type":"address"},{"indexed":false,"internalType":"string","name":"ipfsHash","type":"string"},{"indexed":false,"internalType":"bool","name":"isMultiOption","type":"bool"},{"indexed":false,"internalType":"uint256","name":"maxOptions","type":"uint256"},{"indexed":false,"internalType":"address","name":"paymentToken","type":"address"},{"indexed":false,"internalType":"uint256","name":"minStake","type":"uint256"},{"indexed":false,"internalType":"uint256","name":"startTime","type":"uint256"},{"indexed":false,"internalType":"uint256","name":"stakeEndTime","type":"uint256"},{"indexed":false,"internalType":"uint256","name":"endTime","type":"uint256"},{"indexed":false,"internalType":"uint256","name":"resolutionEndTime","type":"uint256"}],"name":"MarketCreated","type":"event"},{"anonymous":false,"inputs":[{"indexed":true,"internalType":"uint256","name":"marketId","type":"uint256"},{"indexed":false,"internalType":"uint256","name":"winningOption","type":"uint256"}],"name":"MarketResolved","type":"event"},{"anonymous":false,"inputs":[{"indexed":true,"internalType":"uint256","name":"marketId","type":"uint256"},{"indexed":true,"internalType":"bytes32","name":"assertionId","type":"bytes32"},{"indexed":true,"internalType":"address","name":"disputer","type":"address"}],"name":"OracleDisputed","type":"event"},{"anonymous":false,"inputs":[{"indexed":true,"internalType":"uint256","name":"marketId","type":"uint256"},{"indexed":true,"internalType":"bytes32","name":"assertionId","type":"bytes32"},{"indexed":false,"internalType":"bool","name":"accepted","type":"bool"}],"name":"OracleResultProcessed","type":"event"},{"anonymous":false,"inputs":[{"indexed":true,"internalType":"uint256","name":"marketId","type":"uint256"},{"indexed":true,"internalType":"bytes32","name":"assertionId","type":"bytes32"}],"name":"OracleSettled","type":"event"},{"anonymous":false,"inputs":[{"indexed":true,"internalType":"address","name":"previousOwner","type":"address"},{"indexed":true,"internalType":"address","name":"newOwner","type":"address"}],"name":"OwnershipTransferred","type":"event"},{"anonymous":false,"inputs":[{"indexed":true,"internalType":"uint256","name":"marketId","type":"uint256"},{"indexed":true,"internalType":"address","name":"user","type":"address"},{"indexed":false,"internalType":"uint256","name":"amount","type":"uint256"}],"name":"RefundClaimed","type":"event"},{"anonymous":false,"inputs":[{"indexed":true,"internalType":"uint256","name":"marketId","type":"uint256"},{"indexed":true,"internalType":"bytes32","name":"assertionId","type":"bytes32"}],"name":"ResolutionRequested","type":"event"},{"anonymous":false,"inputs":[{"indexed":true,"internalType":"uint256","name":"marketId","type":"uint256"},{"indexed":true,"internalType":"address","name":"user","type":"address"},{"indexed":false,"internalType":"uint256","name":"option","type":"uint256"},{"indexed":false,"internalType":"uint256","name":"amount","type":"uint256"}],"name":"StakePlaced","type":"event"},{"anonymous":false,"inputs":[{"indexed":true,"internalType":"uint256","name":"marketId","type":"uint256"},{"indexed":true,"internalType":"address","name":"user","type":"address"},{"indexed":false,"internalType":"uint256","name":"amount","type":"uint256"}],"name":"WinningsClaimed","type":"event"},{"inputs":[],"name":"CREATOR_FEE_BPS","outputs":[{"internalType":"uint256","name":"","type":"uint256"}],"stateMutability":"view","type":"function"},{"inputs":[],"name":"PLATFORM_FEE_BPS","outputs":[{"internalType":"uint256","name":"","type":"uint256"}],"stateMutability":"view","type":"function"},{"inputs":[{"internalType":"uint256","name":"","type":"uint256"}],"name":"activeMarkets","outputs":[{"internalType":"uint256","name":"","type":"uint256"}],"stateMutability":"view","type":"function"},{"inputs":[],"name":"adminManager","outputs":[{"internalType":"address","name":"","type":"address"}],"stateMutability":"view","type":"function"},{"inputs":[],"name":"assertionGracePeriod","outputs":[{"internalType":"uint256","name":"","type":"uint256"}],"stateMutability":"view","type":"function"},{"inputs":[{"internalType":"uint256","name":"marketId","type":"uint256"},{"internalType":"address","name":"user","type":"address"}],"name":"calculateWinnings","outputs":[{"internalType":"uint256","name":"","type":"uint256"}],"stateMutability":"view","type":"function"},{"inputs":[{"internalType":"uint256","name":"marketId","type":"uint256"}],"name":"cancelMarket","outputs":[],"stateMutability":"nonpayable","type":"function"},{"inputs":[{"internalType":"uint256","name":"marketId","type":"uint256"}],"name":"cancelMarketNoAssertion","outputs":[],"stateMutability":"nonpayable","type":"function"},{"inputs":[{"internalType":"uint256","name":"marketId","type":"uint256"}],"name":"claimRefund","outputs":[],"stateMutability":"nonpayable","type":"function"},{"inputs":[{"internalType":"uint256","name":"marketId","type":"uint256"}],"name":"claimWinnings","outputs":[],"stateMutability":"nonpayable","type":"function"},{"inputs":[{"internalType":"string","name":"ipfsHash","type":"string"},{"internalType":"bool","name":"isMultiOption","type":"bool"},{"internalType":"uint256","name":"maxOptions","type":"uint256"},{"internalType":"address","name":"paymentToken","type":"address"},{"internalType":"uint256","name":"minStake","type":"uint256"},{"internalType":"uint256","name":"creatorDeposit","type":"uint256"},{"internalType":"uint256","name":"creatorOutcome","type":"uint256"},{"internalType":"uint256","name":"stakeDurationMinutes","type":"uint256"},{"internalType":"uint256","name":"resolutionDurationMinutes","type":"uint256"},{"internalType":"enum P2PMarketManager.MarketType","name":"marketType","type":"uint8"},{"internalType":"address","name":"priceFeed","type":"address"},{"internalType":"uint256","name":"priceThreshold","type":"uint256"}],"name":"createMarket","outputs":[{"internalType":"uint256","name":"","type":"uint256"}],"stateMutability":"payable","type":"function"},{"inputs":[{"internalType":"uint256","name":"marketId","type":"uint256"}],"name":"creatorCancelMarket","outputs":[],"stateMutability":"nonpayable","type":"function"},{"inputs":[],"name":"defaultBondCurrency","outputs":[{"internalType":"address","name":"","type":"address"}],"stateMutability":"view","type":"function"},{"inputs":[{"internalType":"uint256","name":"marketId","type":"uint256"},{"internalType":"uint256","name":"optionId","type":"uint256"}],"name":"disputeOracle","outputs":[],"stateMutability":"nonpayable","type":"function"},{"inputs":[{"internalType":"uint256","name":"marketId","type":"uint256"}],"name":"endMarket","outputs":[],"stateMutability":"nonpayable","type":"function"},{"inputs":[{"internalType":"uint256","name":"marketId","type":"uint256"}],"name":"getMarket","outputs":[{"components":[{"internalType":"address","name":"creator","type":"address"},{"internalType":"string","name":"ipfsHash","type":"string"},{"internalType":"bool","name":"isMultiOption","type":"bool"},{"internalType":"uint256","name":"maxOptions","type":"uint256"},{"internalType":"address","name":"paymentToken","type":"address"},{"internalType":"uint256","name":"minStake","type":"uint256"},{"internalType":"uint256","name":"creatorDeposit","type":"uint256"},{"internalType":"uint256","name":"creatorOutcome","type":"uint256"},{"internalType":"uint256","name":"startTime","type":"uint256"},{"internalType":"uint256","name":"stakeEndTime","type":"uint256"},{"internalType":"uint256","name":"endTime","type":"uint256"},{"internalType":"uint256","name":"resolutionEndTime","type":"uint256"},{"internalType":"enum P2PMarketManager.MarketState","name":"state","type":"uint8"},{"internalType":"uint256","name":"winningOption","type":"uint256"},{"internalType":"bool","name":"isResolved","type":"bool"},{"internalType":"enum P2PMarketManager.MarketType","name":"marketType","type":"uint8"},{"internalType":"address","name":"priceFeed","type":"address"},{"internalType":"uint256","name":"priceThreshold","type":"uint256"},{"internalType":"bytes32","name":"p2pAssertionId","type":"bytes32"},{"internalType":"bool","name":"p2pAssertionMade","type":"bool"},{"internalType":"uint256","name":"p2pDisputedOptionId","type":"uint256"}],"internalType":"struct P2PMarketManager.Market","name":"","type":"tuple"}],"stateMutability":"view","type":"function"},{"inputs":[{"internalType":"uint256","name":"marketId","type":"uint256"}],"name":"getMarketStakers","outputs":[{"internalType":"address[]","name":"","type":"address[]"}],"stateMutability":"view","type":"function"},{"inputs":[],"name":"getNextMarketId","outputs":[{"internalType":"uint256","name":"","type":"uint256"}],"stateMutability":"view","type":"function"},{"inputs":[{"internalType":"uint256","name":"marketId","type":"uint256"},{"internalType":"uint256","name":"option","type":"uint256"},{"internalType":"address","name":"token","type":"address"}],"name":"getOptionPool","outputs":[{"internalType":"uint256","name":"","type":"uint256"}],"stateMutability":"view","type":"function"},{"inputs":[{"internalType":"uint256","name":"marketId","type":"uint256"}],"name":"getStakerCount","outputs":[{"internalType":"uint256","name":"","type":"uint256"}],"stateMutability":"view","type":"function"},{"inputs":[{"internalType":"uint256","name":"marketId","type":"uint256"},{"internalType":"address","name":"token","type":"address"}],"name":"getSupportPool","outputs":[{"internalType":"uint256","name":"","type":"uint256"}],"stateMutability":"view","type":"function"},{"inputs":[{"internalType":"uint256","name":"marketId","type":"uint256"}],"name":"getSupporterCount","outputs":[{"internalType":"uint256","name":"","type":"uint256"}],"stateMutability":"view","type":"function"},{"inputs":[{"internalType":"uint256","name":"marketId","type":"uint256"},{"internalType":"address","name":"token","type":"address"}],"name":"getTotalPool","outputs":[{"internalType":"uint256","name":"","type":"uint256"}],"stateMutability":"view","type":"function"},{"inputs":[{"internalType":"uint256","name":"marketId","type":"uint256"},{"internalType":"address","name":"user","type":"address"},{"internalType":"address","name":"token","type":"address"}],"name":"getUserStake","outputs":[{"internalType":"uint256","name":"","type":"uint256"}],"stateMutability":"view","type":"function"},{"inputs":[{"internalType":"uint256","name":"marketId","type":"uint256"},{"internalType":"address","name":"user","type":"address"},{"internalType":"address","name":"token","type":"address"}],"name":"getUserSupport","outputs":[{"internalType":"uint256","name":"","type":"uint256"}],"stateMutability":"view","type":"function"},{"inputs":[{"internalType":"uint256","name":"","type":"uint256"}],"name":"isActiveMarket","outputs":[{"internalType":"bool","name":"","type":"bool"}],"stateMutability":"view","type":"function"},{"inputs":[{"internalType":"uint256","name":"marketId","type":"uint256"}],"name":"markMarketDeleted","outputs":[],"stateMutability":"nonpayable","type":"function"},{"inputs":[{"internalType":"uint256","name":"marketId","type":"uint256"}],"name":"markMarketPermanentlyRemoved","outputs":[],"stateMutability":"nonpayable","type":"function"},{"inputs":[],"name":"marketCreationFee","outputs":[{"internalType":"uint256","name":"","type":"uint256"}],"stateMutability":"view","type":"function"},{"inputs":[{"internalType":"uint256","name":"","type":"uint256"},{"internalType":"uint256","name":"","type":"uint256"}],"name":"marketStakers","outputs":[{"internalType":"address","name":"","type":"address"}],"stateMutability":"view","type":"function"},{"inputs":[{"internalType":"uint256","name":"","type":"uint256"},{"internalType":"uint256","name":"","type":"uint256"}],"name":"marketSupporters","outputs":[{"internalType":"address","name":"","type":"address"}],"stateMutability":"view","type":"function"},{"inputs":[{"internalType":"uint256","name":"","type":"uint256"}],"name":"markets","outputs":[{"internalType":"address","name":"creator","type":"address"},{"internalType":"string","name":"ipfsHash","type":"string"},{"internalType":"bool","name":"isMultiOption","type":"bool"},{"internalType":"uint256","name":"maxOptions","type":"uint256"},{"internalType":"address","name":"paymentToken","type":"address"},{"internalType":"uint256","name":"minStake","type":"uint256"},{"internalType":"uint256","name":"creatorDeposit","type":"uint256"},{"internalType":"uint256","name":"creatorOutcome","type":"uint256"},{"internalType":"uint256","name":"startTime","type":"uint256"},{"internalType":"uint256","name":"stakeEndTime","type":"uint256"},{"internalType":"uint256","name":"endTime","type":"uint256"},{"internalType":"uint256","name":"resolutionEndTime","type":"uint256"},{"internalType":"enum P2PMarketManager.MarketState","name":"state","type":"uint8"},{"internalType":"uint256","name":"winningOption","type":"uint256"},{"internalType":"bool","name":"isResolved","type":"bool"},{"internalType":"enum P2PMarketManager.MarketType","name":"marketType","type":"uint8"},{"internalType":"address","name":"priceFeed","type":"address"},{"internalType":"uint256","name":"priceThreshold","type":"uint256"},{"internalType":"bytes32","name":"p2pAssertionId","type":"bytes32"},{"internalType":"bool","name":"p2pAssertionMade","type":"bool"},{"internalType":"uint256","name":"p2pDisputedOptionId","type":"uint256"}],"stateMutability":"view","type":"function"},{"inputs":[],"name":"nextMarketId","outputs":[{"internalType":"uint256","name":"","type":"uint256"}],"stateMutability":"view","type":"function"},{"inputs":[],"name":"optimisticOracle","outputs":[{"internalType":"contract IOptimisticOracle","name":"","type":"address"}],"stateMutability":"view","type":"function"},{"inputs":[],"name":"owner","outputs":[{"internalType":"address","name":"","type":"address"}],"stateMutability":"view","type":"function"},{"inputs":[{"internalType":"uint256","name":"marketId","type":"uint256"},{"internalType":"uint256","name":"option","type":"uint256"}],"name":"placeStake","outputs":[],"stateMutability":"payable","type":"function"},{"inputs":[{"internalType":"uint256","name":"marketId","type":"uint256"},{"internalType":"uint256","name":"option","type":"uint256"},{"internalType":"uint256","name":"amount","type":"uint256"}],"name":"placeStakeWithToken","outputs":[],"stateMutability":"nonpayable","type":"function"},{"inputs":[],"name":"renounceOwnership","outputs":[],"stateMutability":"nonpayable","type":"function"},{"inputs":[{"internalType":"uint256","name":"marketId","type":"uint256"},{"internalType":"uint256","name":"optionId","type":"uint256"},{"internalType":"bytes","name":"claim","type":"bytes"}],"name":"requestP2PResolution","outputs":[],"stateMutability":"nonpayable","type":"function"},{"inputs":[{"internalType":"uint256","name":"marketId","type":"uint256"}],"name":"resolveP2PMarket","outputs":[],"stateMutability":"nonpayable","type":"function"},{"inputs":[{"internalType":"uint256","name":"marketId","type":"uint256"}],"name":"resolvePriceFeedMarket","outputs":[],"stateMutability":"nonpayable","type":"function"},{"inputs":[{"internalType":"address","name":"_adminManager","type":"address"}],"name":"setAdminManager","outputs":[],"stateMutability":"nonpayable","type":"function"},{"inputs":[{"internalType":"uint256","name":"_seconds","type":"uint256"}],"name":"setAssertionGracePeriod","outputs":[],"stateMutability":"nonpayable","type":"function"},{"inputs":[{"internalType":"address","name":"_currency","type":"address"}],"name":"setDefaultBondCurrency","outputs":[],"stateMutability":"nonpayable","type":"function"},{"inputs":[{"internalType":"address","name":"_oo","type":"address"}],"name":"setOptimisticOracle","outputs":[],"stateMutability":"nonpayable","type":"function"},{"inputs":[{"internalType":"uint256","name":"marketId","type":"uint256"}],"name":"settleOracle","outputs":[],"stateMutability":"nonpayable","type":"function"},{"inputs":[{"internalType":"uint256","name":"marketId","type":"uint256"},{"internalType":"uint256","name":"amount","type":"uint256"}],"name":"supportMarket","outputs":[],"stateMutability":"payable","type":"function"},{"inputs":[{"internalType":"address","name":"newOwner","type":"address"}],"name":"transferOwnership","outputs":[],"stateMutability":"nonpayable","type":"function"},{"inputs":[],"name":"treasury","outputs":[{"internalType":"address payable","name":"","type":"address"}],"stateMutability":"view","type":"function"},{"inputs":[{"internalType":"uint256","name":"","type":"uint256"},{"internalType":"address","name":"","type":"address"}],"name":"userHasStaked","outputs":[{"internalType":"bool","name":"","type":"bool"}],"stateMutability":"view","type":"function"},{"inputs":[{"internalType":"uint256","name":"","type":"uint256"},{"internalType":"address","name":"","type":"address"}],"name":"userHasSupported","outputs":[{"internalType":"bool","name":"","type":"bool"}],"stateMutability":"view","type":"function"},{"inputs":[{"internalType":"address","name":"","type":"address"},{"internalType":"uint256","name":"","type":"uint256"}],"name":"userMarketHistory","outputs":[{"internalType":"uint256","name":"","type":"uint256"}],"stateMutability":"view","type":"function"},{"inputs":[{"internalType":"uint256","name":"","type":"uint256"},{"internalType":"address","name":"","type":"address"}],"name":"userStakeOptions","outputs":[{"internalType":"uint256","name":"","type":"uint256"}],"stateMutability":"view","type":"function"},{"inputs":[{"internalType":"uint256","name":"marketId","type":"uint256"}],"name":"withdrawSupport","outputs":[],"stateMutability":"nonpayable","type":"function"},{"stateMutability":"payable","type":"receive"}],"evm":{"bytecode":{"linkReferences":{},"object":"6080346200010657601f6200592b38819003918201601f19168301916001600160401b038311848410176200010b5780849260609460405283398101031262000106576200004d8162000121565b60208201516001600160a01b03808216939091849003620001065762000077604083920162000121565b9216918215620000ed576000549360018060a01b03199380858716176000558360405196167f8be0079c531659141344cd1fd0a4f28419497f9722a3daafe3b4186f6b6457e0600080a36202a300600155600160095583600c541617600c551690600d541617600d556157f49081620001378239f35b604051631e4fbdf760e01b815260006004820152602490fd5b600080fd5b634e487b7160e01b600052604160045260246000fd5b51906001600160a01b0382168203620001065756fe61014080604052600436101561001e575b50361561001c57600080fd5b005b600090813560e01c9081630ccf446714613ed2575080630d64cdbd14613ea3578063157bdcce14613e3f578063209c1c9414613e165780632230292214613ded578063256ba74114613d58578063287f57b514613d105780632ef1bdfa14613ced578063304bf1f114613ca45780633adfe6d014613c795780633e32a76c146139fd578063406ef2ef146139df5780634f44289d14613996578063539aa77f14613979578063569946c5146138a55780635b7baf641461354e57806361d027b31461352557806366cf7ed414612752578063677bd9ff146125ac5780636d4476ec146123015780636f59359e1461224f578063715018a6146122075780637c16cd9e1461212d578063818ef5f6146120cc578063847cf7821461208857806387a6b0ff14611f745780638d0d180e14611c425780638da5cb5b14611c1b57806393fcf24d14611bfd57806398a1767114611ba75780639a3a40d6146119a2578063a210b6a414611979578063a30a09141461194f578063a550725d14611902578063b1283e771461174c578063bc160758146116ff578063bf5c3252146116b2578063bf5f984b146114ba578063c22c62c314611488578063c3436e0c1461136d578063cc3cbd2a14611350578063d5f8270714611305578063d8c5dd67146112be578063dc4ce3491461126b578063e0bd4acc146110f0578063eb44fdd314610dc9578063f00fe32114610d2d578063f15cc40614610bf8578063f1b7dde314610a63578063f204072f1461064f578063f2fde38b146105d9578063f486759114610432578063fb87f2c3146102995763fe53a6e80361001057346102965780600319360112610296576020600954604051908152f35b80fd5b50346102965760208060031936011261042e576004359060018060a01b036102c681600d54163314615723565b6009548310156103fc5782845260028252604084205416156103c8578183526002815260ff600c6040852001541660058110156103b45760041461037a5760606000805160206157688339815191529183855260028152600c6040862001600460ff19825416179055838552600b815260ff60408620541661036c575b6010604051918083528201526f2232b632ba32b210313c9030b236b4b760811b6040820152a280f35b61037584615629565b610343565b6064906040519062461bcd60e51b82526004820152601360248201527211540e88185b1c9958591e4819195b195d1959606a1b6044820152fd5b634e487b7160e01b84526021600452602484fd5b6064906040519062461bcd60e51b82526004820152600d60248201526c11540e881b9bc81b585c9ad95d609a1b6044820152fd5b60405162461bcd60e51b815260048101839052600a60248201526911540e8818985908125160b21b6044820152606490fd5b5080fd5b5061043c36614188565b9060018060a01b0380600d5416906040518092634d9b423560e11b825284600483015281602460209586935afa80156105ce578690610594575b610481915015614447565b828552600282526040852060ff600c820154166005811015610580576104a79015614481565b60048101908282541661053d579185916104e5600561050d958515158061052f575b6104d2906144be565b6104db81615482565b01543410156144fb565b610502888080803487600c54165af16104fc6142e5565b50614537565b54163490338661529d565b60405192835234908301526000805160206157c883398151915260403393a380f35b5060038101548611156104c9565b60405162461bcd60e51b815260048101859052601b60248201527a22a81d103ab9b290383630b1b2a9ba30b5b2abb4ba342a37b5b2b760291b6044820152606490fd5b634e487b7160e01b87526021600452602487fd5b508281813d83116105c7575b6105aa8183614008565b810103126105c3576105be610481916141ca565b610476565b8580fd5b503d6105a0565b6040513d88823e3d90fd5b5034610296576020366003190112610296576105f3613f0f565b6105fb61419e565b6001600160a01b03908116908115610636576000548260018060a01b031982161760005516600080516020615788833981519152600080a380f35b604051631e4fbdf760e01b815260048101849052602490fd5b5061065936614188565b600d54604051632b5ba3b960e01b815233600482015260209493916024916001600160a01b039182169087818581855afa9081156108975791889185938991610a21575b506106a890156141d7565b60405192838092634d9b423560e11b82528860048301525afa80156105ce5786906109eb575b6106d9915015614447565b828552600286526040852060ff600c8201541660058110156109d8576106ff9015614481565b600981015442101561099f578415610969576004019581875416801560001461090957508434036108d3578596610743878080808a88600c54165af16104fc6142e5565b848752600482526040872033600052825260ff60406000205416156108ba575b84875260048252604087203360005282526040600020600160ff198254161790558280600c541691541690803b156108b6578688916107bc938360405180968195829463c15d980760e01b84528d3390600486016145b9565b03925af19081156108975787916108a2575b505060048183600d54166040519283809263406ad64560e11b82525afa91821561089757879261086a575b50501680610805578480f35b803b15610866578492836064926040519687958694638f46a5a160e01b86526004860152339085015260448401525af1801561085b57610847575b8080808480f35b61085090613fa3565b610296578038610840565b6040513d84823e3d90fd5b8480fd5b6108899250803d10610890575b6108818183614008565b8101906145e1565b38806107f9565b503d610877565b6040513d89823e3d90fd5b6108ab90613fa3565b6105c35785386107ce565b8780fd5b848752600782526108ce336040892061457e565b610763565b6064906010846040519262461bcd60e51b845260048401528201526f08aa074408aa89040dad2e6dac2e8c6d60831b6044820152fd5b96346109275761092286889985600c54169033906143a9565b610743565b60405162461bcd60e51b815260048101839052601b818601527a11540e881b9bc811551208199bdc881d1bdad95b881b585c9ad95d602a1b6044820152606490fd5b60405162461bcd60e51b815260048101889052600f818501526e11540e881e995c9bc8185b5bdd5b9d608a1b6044820152606490fd5b60405162461bcd60e51b8152600481018890526012818501527111540e881cdd5c1c1bdc9d0818db1bdcd95960721b6044820152606490fd5b634e487b7160e01b875260216004528387fd5b508681813d8311610a1a575b610a018183614008565b810103126105c357610a156106d9916141ca565b6106ce565b503d6109f7565b92809294508391503d8311610a5c575b610a3b8183614008565b81010312610a585783916106a8610a528a936141ca565b9061069d565b8680fd5b503d610a31565b5034610296576060366003190112610296576004356024359060443560018060a01b0380600d5416906040518092634d9b423560e11b825285600483015281602460209586935afa8015610897578790610bc2575b610ac3915015614447565b838652600282526040862060ff600c820154166005811015610bae57610ae99015614481565b600481019082825416908115610b7457928792610b3d878094610b30610b469888151580610b66575b610b1b906144be565b610b2b60058201548510156144fb565b615482565b84600c54169033906143a9565b5416338761529d565b6040519384528301526000805160206157c883398151915260403393a380f35b506003810154891115610b12565b60405162461bcd60e51b815260048101869052601260248201527145503a2075736520706c6163655374616b6560701b6044820152606490fd5b634e487b7160e01b88526021600452602488fd5b508281813d8311610bf1575b610bd88183614008565b81010312610a5857610bec610ac3916141ca565b610ab8565b503d610bce565b503461029657604036600319011261029657600435610c15613ef9565b818352602091600283526040842060ff600c820154166005811015610d1957610c4f91610c466002600d9314614952565b01541515614991565b808452600383526040842060018060a01b03908184166000528452610c7b60ff604060002054166149cd565b600c54168360405180926307c7a72d60e01b82528180610c9f888860048401614a08565b03915afa948515610d0d578095610cce575b5050610cc1610cc6939415614a21565b614a7c565b604051908152f35b9094508385813d8311610d06575b610ce68183614008565b810103126102965750610cc1610cff610cc694956141ca565b9493610cb1565b503d610cdc565b604051903d90823e3d90fd5b634e487b7160e01b86526021600452602486fd5b503461029657604036600319011261029657610d76906020610d4d613ef9565b60018060a01b03600c54166040518080968194633d1e7ba160e11b835260043560048401614a08565b03915afa908115610d0d5790610d92575b602090604051908152f35b506020813d8211610dc1575b81610dab60209383614008565b81010312610dbc5760209051610d87565b600080fd5b3d9150610d9e565b503461029657602036600319011261029657806040916102808351610ded81613fb6565b8281526060602082015282858201528260608201528260808201528260a08201528260c08201528260e08201528261010082015282610120820152826101408201528261016082015282610180820152826101a0820152826101c0820152826101e0820152826102008201528261022082015282610240820152826102608201520152600435815260026020522060405190610e8882613fb6565b80546001600160a01b03168252610ea160018201614080565b602083015260ff600282015416151560408301526003810154606083015260018060a01b036004820154166080830152600581015460a0830152600681015460c0830152600781015460e083015260088101546101008301526009810154610120830152600a810154610140830152600b81015461016083015260ff600c820154169060058210156110da57601291610180840152600d8101546101a0840152600e81015460ff811615156101c0850152610f6660ff8260081c166101e0860161428b565b60018060a01b039060101c16610200840152600f810154610220840152601081015461024084015260ff6011820154161515610260840152015461028082015260405180916020825260018060a01b038151166020830152610280610fdc60208301516102a060408601526102c0850190614149565b916040810151151560608501526060810151608085015260018060a01b0360808201511660a085015260a081015160c085015260c081015160e085015260e08101516101008501526101008101516101208501526101208101516101408501526101408101516101608501526101608101516101808501526110686101808201516101a086019061416e565b6101a08101516101c08501526101c081015115156101e08501526110966101e082015161020086019061417b565b60018060a01b036102008201511661022085015261022081015161024085015261024081015161026085015261026081015115158285015201516102a08301520390f35b634e487b7160e01b600052602160045260246000fd5b50346102965760208060031936011261042e576004359061111c60018060a01b03600d54163314615723565b8183526002815260ff600c6040852001541660058110156103b45760008051602061576883398151915291611155600260609314614952565b83855260028152600060126040872087815587600182016111768154614046565b8061122d575b5050600282015582600382015587600482015582600582015582600682015582600782015582600882015582600982015582600a82015582600b82015587600c82015582600d82015587600e82015582600f8201558260108201558760118201550155838552600b815260ff60408620541661121f575b6013604051918083528201527214195c9b585b995b9d1b1e481c995b5bdd9959606a1b6040820152a280f35b61122884615629565b6111f3565b601f81116001146112465750849150555b87388061117c565b908086918452611264601f898620940160051c840160018501614297565b555561123e565b503461029657606036600319011261029657604435906001600160a01b038083168303610dbc57610d7692602091600c5416604051808096819463dc4ce34960e01b835260243560043560048501614a5b565b50346102965760403660031901126102965760406112da613ef9565b9160043581526005602052209060018060a01b03166000526020526020604060002054604051908152f35b50346102965761131436614188565b919081526006602052604081209081548310156102965760206113378484613f8b565b905460405160039290921b1c6001600160a01b03168152f35b5034610296578060031936011261029657602060405161015e8152f35b50346102965760203660031901126102965760043580825260026020526040822080546001600160a01b031633036114515760ff600c8201541660058110156103b457906113bd60099215614481565b015461a8bf19810190811161143d5742101561140957604051611406916113e382613fd2565b601182527010dc99585d1bdc8818d85b98d95b1b1959607a1b602083015261520f565b80f35b60405162461bcd60e51b815260206004820152600c60248201526b45503a20746f6f206c61746560a01b6044820152606490fd5b634e487b7160e01b83526011600452602483fd5b60405162461bcd60e51b815260206004820152600f60248201526e22a81d103737ba1031b932b0ba37b960891b6044820152606490fd5b50346102965761149736614188565b919081526007602052604081209081548310156102965760206113378484613f8b565b5034610296576114c936614188565b90808352602091600283526040842092600e84015460ff8160081c1660028110156105805761151691611500600160ff93146146c0565b61150f82601189015416614913565b1615614704565b600e546001600160a01b0391908216611530811515614782565b82600f5416906115418215156147c3565b841515806116a4575b1561166a578260249160405192838092634360af3d60e01b82528660048301525afa92831561165f57889361162b575b50509061158e8161159e93309033906143a9565b82600f541683600e541690614826565b600e5416928460108201948554813b1561162757829160448392604051948593849263a6a22b4360e01b845260048401523360248401525af1801561085b57611613575b505060120155339154907f8764c70ba5e4ae969c50093a5cb46e29238fb82e4b7eb17d22a8102996b01c8a8480a480f35b61161c90613fa3565b6108665784386115e2565b8280fd5b90809350813d8311611658575b6116428183614008565b81010312610dbc5761158e61159e92519261157a565b503d611638565b6040513d8a823e3d90fd5b60405162461bcd60e51b815260048101849052601260248201527122a81d1034b73b30b634b21037b83a34b7b760711b6044820152606490fd5b50600387015485111561154a565b5034610296576020366003190112610296576116cc613f0f565b6116d461419e565b6001600160a01b03166116e88115156156e4565b600e80546001600160a01b03191691909117905580f35b503461029657602036600319011261029657611719613f0f565b61172161419e565b6001600160a01b03166117358115156156e4565b600d80546001600160a01b03191691909117905580f35b503461029657602036600319011261029657600435815260026020526040902080546001600160a01b03169061178460018201614080565b60c052600281015460ff1661012052600381015461010052600160a01b600190036004820154169160058201546006830154600784015460088501546009860154600a87015490600b88015492600c89015460ff1694600d8a015496600e8b015498600f8c01549a60108d01549c601181015460ff1660e0526012015460a05260405180608052526102a080608051602001526080510160c0519061182891614149565b9c6101205115156080516040015261010051608051606001526080516080015260805160a0015260805160c0015260805160e0015260805161010001526080516101200152608051610140015260805161016001526080516101800161188d9161416e565b6080516101a0015260ff811615156080516101c001526080516101e0018160081c60ff16906118bb9161417b565b600160a01b600190039060101c1660805161020001526080516102200152608051610240015260e0511515608051610260015260a051608051610280015260805180910390f35b50346102965760203660031901126102965761191c613f0f565b61192461419e565b6001600160a01b03166119388115156156e4565b600f80546001600160a01b03191691909117905580f35b50346102965760203660031901126102965760406020916004358152600783522054604051908152f35b5034610296578060031936011261029657600d546040516001600160a01b039091168152602090f35b50346102965760208060031936011261042e5760043590818352600281526040832090600e820191825460ff8160081c16600281101561058057611b6d57600c820190815460ff81166005811015611b59576001611a00911461462d565b611a0d60ff831615614669565b600b8401544210611b2457604051633fabe5a360e21b815260a081600481601087901c6001600160a01b03165afa908115611b19578991611ab1575b50600f8501546000805160206157a8833981519152976002949392909111611aa65760ff600d6001975b0196168655600160ff1980941617905516179055611a9084614d4b565b611a9b815485615588565b54604051908152a280f35b60ff600d8597611a73565b9291905060a0833d8211611b11575b81611acd60a09383614008565b81010312611b0d576000805160206157a88339815191529683611af16002956146ac565b50611b0260808983015192016146ac565b509192935096611a49565b8880fd5b3d9150611ac0565b6040513d8b823e3d90fd5b60405162461bcd60e51b815260048101869052600d60248201526c45503a20746f6f206561726c7960981b6044820152606490fd5b634e487b7160e01b89526021600452602489fd5b60405162461bcd60e51b815260048101849052601260248201527111540e881b9bdd0814149250d157d191515160721b6044820152606490fd5b503461029657604036600319011261029657611bc1613f0f565b6001600160a01b0316815260086020526040812080546024359290831015610296576020611bef8484613f8b565b90546040519160031b1c8152f35b50346102965780600319360112610296576020600154604051908152f35b5034610296578060031936011261029657546040516001600160a01b039091168152602090f35b50346102965760603660031901126102965760443560043560248035906001600160401b038085116105c357366023860112156105c35784600401359081116105c357368282870101116105c357838652602094600286526040872092600e84015460ff8160081c166002811015611f61576001611cc091146146c0565b60ff600c860154166005811015611f6157611ce39161150f600160ff931461462d565b6011840194611cf660ff8754161561473f565b84546001600160a01b03939084163314611f2157878a526003895260408a2033600052895260ff6040600020541615611ee75789839183151580611ed9575b611d3e906144be565b85600e541695611d4f871515614782565b8b81600f541697611d618915156147c3565b60405197888092634360af3d60e01b82528b60048301525afa8015611ece578c9789978592611e90575b508161158e611e139493611da293309033906143a9565b604051958c89880152604087015260408652611dbd86613fed565b600e5416946084856040519a8b998a98899763abdc5dcd60e01b8952606060048a01528260648a0152018488013786838288010152601f8019910116850190339086015260808582030160448601520190614149565b03925af19485156105ce578695611e5f575b5050601001839055805460ff191660011790557fc92f993487c6d961b60ff2a81386dff5cc620cd4aed9cddabe26500391655e828380a380f35b90809550813d8311611e89575b611e768183614008565b8101031261086657601093519338611e25565b503d611e6c565b945097809297508491503d8311611ec7575b611eac8183614008565b81010312610dbc5790518a9587958d93929091611da2611d8b565b503d611ea2565b6040513d85823e3d90fd5b506003880154841115611d35565b60405162461bcd60e51b8152600481018a90526013818501527245503a206d7573742068617665207374616b6560681b6044820152606490fd5b60405162461bcd60e51b8152600481018a90526019818501527811540e8818dc99585d1bdc8818d85b9b9bdd08185cdcd95c9d603a1b6044820152606490fd5b634e487b7160e01b8a526021600452828afd5b50346102965760203660031901126102965760043580825260026020526040822060ff600e82015460081c1660028110156103b4576001611fb591146146c0565b60ff600c8201541660058110156103b457611ff491611fd86001600a931461462d565b611fe960ff6011830154161561473f565b015460015490614259565b4210612049576040516114069161200a82613fed565b602782527f4e6f20617373657274696f6e206d61646520e2809420726566756e647320617660208301526661696c61626c6560c81b604083015261520f565b60405162461bcd60e51b815260206004820152601760248201527645503a20677261636520706572696f642061637469766560481b6044820152606490fd5b503461029657610d7690602061209d36613f25565b600c5460405163423e7bc160e11b81529687946001600160a01b0390921693859384939091906004850161460d565b5034610296576020366003190112610296576004356120e961419e565b610e1081106120f85760015580f35b60405162461bcd60e51b815260206004820152600d60248201526c11540e881d1bdbc81cda1bdc9d609a1b6044820152606490fd5b5034610296576020366003190112610296576004358082526002602052604082209060ff600c8301541660058110156103b457600161216c911461462d565b600b82015442106121c35761218b60ff600e6114069401541615614669565b6040519061219882613fd2565b601982527814995cdbdb1d5d1a5bdb881c195c9a5bd908195e1c1a5c9959603a1b602083015261520f565b60405162461bcd60e51b815260206004820152601c60248201527b45503a207265736f6c7574696f6e20706572696f642061637469766560201b6044820152606490fd5b503461029657806003193601126102965761222061419e565b600080546001600160a01b0319811682556001600160a01b03166000805160206157888339815191528280a380f35b50346102965760208060031936011261042e576004358252600681526040822060405192838383549182815201908193835284832090835b8181106122e4575050508461229d910385614008565b60405193838594850191818652518092526040850193925b8281106122c457505050500390f35b83516001600160a01b0316855286955093810193928101926001016122b5565b82546001600160a01b031684529286019260019283019201612287565b5034610296576020908160031936011261029657600435808252600283526040822092600e8401805460ff8160081c166002811015610d1957600161234691146146c0565b61235660ff601188015416614913565b61236360ff821615614704565b600e54601087015460405163e39dfd7f60e01b8152600481018290529092918790829060249082906001600160a01b03165afa9283156108975787918894612520575b50867f01bcfc076833db7a342b2b4213f01d2341de157027e6a14cb082cc770513937c876040518515158152a315612484575060408180518101031261086657604001519081151580612476575b15612434576002600c87600d6000805160206157a88339815191529798990194855560ff19936001858254161790550191825416179055611a9084614d4b565b60405162461bcd60e51b815260048101849052601a60248201527945503a20626164206f7074696f6e2066726f6d206f7261636c6560301b6044820152606490fd5b5060038601548211156123f4565b905060128601549182151580612512575b156124d457600c87600292600d6000805160206157a883398151915298999a01958655600160ff198096161790550191825416179055611a9084614d4b565b60405162461bcd60e51b815260048101859052601660248201527522a81d103737903234b9b83aba32b21037b83a34b7b760511b6044820152606490fd5b506003870154831115612495565b915092503d8088833e6125338183614008565b8101906040818303126108b657612549816141ca565b8682015190916001600160401b0382116125a8570182601f82011215611b0d578051906125758261402b565b936125836040519586614008565b8285528883830101116125a857906125a091888086019101614126565b9092386123a6565b8980fd5b50346102965760208060031936011261042e5760043580835260028252604083209160ff600c84015416600581101561273e5760026125eb9114614952565b6125fa600d8401541515614991565b818452600381526040842033600052815261261c60ff604060002054166149cd565b600c546040516307c7a72d60e01b815285916001600160a01b039081169184818061264b338a60048401614a08565b0381865afa80156127335784906126fd575b612668915015614a21565b60046126743387614a7c565b9601541690803b15611627578583916126a69383604051809681958294632f0041ed60e11b8452338d600486016145b9565b03925af1801561085b576126e5575b50507f5380cf6fe903b40c6d5a9e0dfbca2f3a423f0a21520b4d5947ed5169bdba946d906040519384523393a380f35b6126ee90613fa3565b6126f95783386126b5565b8380fd5b508481813d831161272c575b6127138183614008565b810103126126f957612727612668916141ca565b61265d565b503d612709565b6040513d86823e3d90fd5b634e487b7160e01b85526021600452602485fd5b5061018036600319011261029657600435906001600160401b038211610296573660238301121561029657816004013561278b8161402b565b926127996040519485614008565b8184523660248383010111611627578183926024602093018387013784010152602435151560243503610296576064356001600160a01b0381169003610dbc5760026101243510156102965761014435906001600160a01b0382168203610dbc57600d54604051632b5ba3b960e01b81523360048201526001600160a01b0390911690602081602481855afa8015611ece5783906134ea575b61283d9150156141d7565b8351156134b45760026044351015806134a7575b15613470576084351561343b5760a435156134045760c4351515806133f6575b156133bf576101243515613331575b6040516317916e0160e01b8152602081600481855afa908115611ece5783916132ff575b5060e435106132c75760e435610104351061328557602435156131eb576064356001600160a01b0316156131ae57604051633462561360e11b81526064356001600160a01b0316600482015290602090829060249082905afa801561085b578290613173575b6129149150614215565b670de0b6b3a7640000341061313c57603c60e4350260e4358104603c1460e435151715612fd1576129459042614259565b9061010435603c610104350204603c146101043515171561312857612970603c610104350242614259565b610124356131125780915b600954946129888661427c565b6009556040519061299882613fb6565b33825287602083015260243515156040830152604435606083015260018060a01b0360643516608083015260843560a083015260a43560c083015260c43560e08301524261010083015285610120830152836101408301528461016083015282610180830152826101a0830152826101c0830152612a1d610124356101e0840161428b565b6001600160a01b03908116610200830152610164356102208301526102408201839052610260820183905261028082018390528683526002602090815260408420835181546001600160a01b03191693169290921782558201518051919291906001600160401b0382116130fe578190612a9a6001860154614046565b601f81116130c0575b50602090601f8311600114613051578692613046575b50508160011b916000199060031b1c19161760018301555b612ae460408201511515600284016142ae565b606081015160038301556004820160018060a01b0360808301511660018060a01b031982541617905560a0810151600583015560c0810151600683015560e0810151600783015561010081015160088301556101208101516009830155610140810151600a830155610160810151600b83015561018081015160058110156103b45760ff8019600c85015416911617600c8301556101a0810151600d830155600e8201612b986101c08301511515826142ae565b6101e0820151600281101561273e579181601293610280935461ff0062010000600160b01b0361020086015160101b169260081b1690610100600160b01b03191617179055610220810151600f8501556102408101516010850155612c076102608201511515601186016142ae565b0151910155600a54600160401b81101561303057612c46612c2f826001899401600a55613f5a565b819391549060031b91821b91600019901b19161790565b9055848152600b60205260408120805460ff191660011790556064356001600160a01b0316612fe55760a435670de0b6b3a76400000180670de0b6b3a764000011612fd1573410612f9457612cbb81808080670de0b6b3a764000060018060a01b038254165af1612cb56142e5565b50614315565b8080808060a43560018060a01b03600c54165af1612cd76142e5565b5015612f55575b848152600360205260408120336000526020526040600020600160ff198254161790558481526005602052604081203360005260205260c4356040600020553381526008602052612d3285604083206142bf565b600c546001600160a01b0316803b1561042e578160405180926395f4109560e01b8252818381612d7260c4358d60a4359060643590339060048701614357565b03925af1801561085b57908291612f41575b5050600d5460405163406ad64560e11b815290602090829060049082906001600160a01b03165afa90811561085b578291612f22575b506001600160a01b038116612e5c575b505060209484927f5d0726a1bb5ec8c87527e69ba86d988202e885fad8f2b4aacd618793d6f297b292612e0a604051936101208552610120850190614149565b6024351515848a015260443560408501526064356001600160a01b0316606085015260843560808501524260a085015260c084019690965260e0830152610100820152339381900390a3604051908152f35b6001600160a01b0381163b1561042e5760405163782a780560e11b8152828180612e8a338b60048401614a08565b0381836001600160a01b0387165af18015611ece57908391612f0e575b50506001600160a01b0381163b1561042e5760405163c228038d60e01b81529082908290818381612ee260a43560c435338f60048601615279565b03926001600160a01b03165af1801561085b5715612dca57612f048291613fa3565b6102965780612dca565b612f1790613fa3565b61042e578138612ea7565b612f3b915060203d602011610890576108818183614008565b38612dba565b612f4a90613fa3565b610296578038612d84565b60405162461bcd60e51b815260206004820152601760248201527611540e8819195c1bdcda5d081cd95b990819985a5b1959604a1b6044820152606490fd5b60405162461bcd60e51b815260206004820152601560248201527445503a20696e73756666696369656e74205045505560581b6044820152606490fd5b634e487b7160e01b82526011600452602482fd5b61300981808080670de0b6b3a764000060018060a01b038254165af1612cb56142e5565b600c5461302b9060a435906001600160a01b03908116903390606435166143a9565b612cde565b634e487b7160e01b600052604160045260246000fd5b015190503880612ab9565b9250600185018652602086209086935b601f19841685106130a5576001945083601f1981161061308c575b505050811b016001830155612ad1565b015160001960f88460031b161c1916905538808061307c565b81810151835560209485019460019093019290910190613061565b6130ee9060018701885260208820601f850160051c810191602086106130f4575b601f0160051c0190614297565b38612aa3565b90915081906130e1565b634e487b7160e01b85526041600452602485fd5b61e10081018111612fd15761e10081019161297b565b634e487b7160e01b81526011600452602490fd5b60405162461bcd60e51b815260206004820152600f60248201526e45503a2066656520746f6f206c6f7760881b6044820152606490fd5b506020813d6020116131a6575b8161318d60209383614008565b8101031261042e576131a1612914916141ca565b61290a565b3d9150613180565b60405162461bcd60e51b815260206004820152601560248201527422a81d1036bab63a34903732b2b239903a37b5b2b760591b6044820152606490fd5b6064356001600160a01b0316613202575b50612914565b604051633462561360e11b81526064356001600160a01b0316600482015290602090829060249082905afa801561085b57829061324a575b6132449150614215565b386131fc565b506020813d60201161327d575b8161326460209383614008565b8101031261042e57613278613244916141ca565b61323a565b3d9150613257565b60405162461bcd60e51b815260206004820152601a60248201527945503a207265736f6c7574696f6e206166746572207374616b6560301b6044820152606490fd5b60405162461bcd60e51b815260206004820152601060248201526f22a81d1036b4b710323ab930ba34b7b760811b6044820152606490fd5b90506020813d602011613329575b8161331a60209383614008565b81010312610dbc5751386128a4565b3d915061330d565b6001600160a01b0383161561338657610164356128805760405162461bcd60e51b815260206004820152601660248201527511540e881d1a1c995cda1bdb19081c995c5d5a5c995960521b6044820152606490fd5b60405162461bcd60e51b815260206004820152601160248201527011540e8819995959081c995c5d5a5c9959607a1b6044820152606490fd5b60405162461bcd60e51b815260206004820152600f60248201526e45503a20626164206f7574636f6d6560881b6044820152606490fd5b5060443560c4351115612871565b60405162461bcd60e51b815260206004820152600f60248201526e11540e881898590819195c1bdcda5d608a1b6044820152606490fd5b60405162461bcd60e51b815260206004820152600d60248201526c45503a20626164207374616b6560981b6044820152606490fd5b60405162461bcd60e51b815260206004820152600f60248201526e45503a20626164206f7074696f6e7360881b6044820152606490fd5b50600a6044351115612851565b60405162461bcd60e51b815260206004820152600e60248201526d08aa07440cadae0e8f240d0c2e6d60931b6044820152606490fd5b506020813d60201161351d575b8161350460209383614008565b810103126116275761351861283d916141ca565b612832565b3d91506134f7565b5034610296578060031936011261029657600c546040516001600160a01b039091168152602090f35b50346102965760208060031936011261042e5760043580835260028252604083209160ff600c84015416600581101561273e5760030361386d57818452600381526040842033600052815260ff60406000205416801561384d575b15613811578392828552600382526040852033600052825260ff6040600020541661376b575b828552600482526040852033600052825260ff604060002054166136c3575b831561368c57600c5460049091015485916001600160a01b039182169116803b1561162757858391613639938360405180968195829463164fcd7d60e21b8452338d600486016145b9565b03925af1801561085b57613678575b50507ff3f402280ef0a7905e124aa621b65eaeb2725c343e8b36d398ed78c29daf285c906040519384523393a380f35b61368190613fa3565b6126f9578338613648565b60405162461bcd60e51b815260048101839052600f60248201526e11540e881e995c9bc81c99599d5b99608a1b6044820152606490fd5b926136fa908260018060a01b0380600c54169060048801541690604051808096819463256ba74160e01b8352338b6004850161460d565b03915afa9081156105ce57869161373a575b6137169250614259565b928285526004825260408520336000528252604060002060ff1981541690556135ee565b90508282813d8311613764575b6137518183614008565b81010312610dbc5761371691519061370c565b503d613747565b92506137a28160018060a01b0380600c54169060048701541690604051808095819463423e7bc160e11b8352338a6004850161460d565b03915afa9081156138065785916137d9575b50928285526003825260408520336000528252604060002060ff1981541690556135cf565b90508181813d83116137ff575b6137f08183614008565b81010312610dbc5751386137b4565b503d6137e6565b6040513d87823e3d90fd5b6064906040519062461bcd60e51b82526004820152601560248201527411540e881b9bdd1a1a5b99c81d1bc81c99599d5b99605a1b6044820152fd5b50818452600481526040842033600052815260ff604060002054166135a9565b6064906040519062461bcd60e51b82526004820152601160248201527011540e881b9bdd0818d85b98d95b1b1959607a1b6044820152fd5b50346102965760203660031901126102965760043580825260026020526040822060ff600e82015460081c1660028110156103b45760016138e691146146c0565b6138f660ff601183015416614913565b82601060018060a01b03600e54169201918254813b15611627578291602483926040519485938492634124beef60e01b845260048401525af1801561085b57613965575b505054907f049c1c3eca1ffdb1b59f7205ce06f2461ace420050f9ad1b4b6b55f4a0f2e5268380a380f35b61396e90613fa3565b61162757823861393a565b503461029657806003193601126102965760206040516101f48152f35b503461029657604036600319011261029657610d769060206139b6613ef9565b60018060a01b03600c54166040518080968194634f44289d60e01b835260043560048401614a08565b50346102965780600319360112610296576020600954604051908152f35b50346102965760208060031936011261042e5760043580835260028252604083206004835260408420338552835260ff60408520541615613c435760ff600c82015416600581101561273e5780613be85750600981015461a8bf198101908111613bd457421015613b94575b60018060a01b03600481600c541692015416906040519063256ba74160e01b8252848280613a9c8633896004850161460d565b0381845afa9182156105ce578692613b65575b508115613b2657908186923b1561162757613ae393836040518096819582946317be0b2f60e11b8452338b600486016145b9565b03925af1801561273357613b13575b5082526004815260408220903360005252604060002060ff19815416905580f35b613b1f90939193613fa3565b9138613af2565b60405162461bcd60e51b815260048101869052601760248201527645503a206e6f7468696e6720746f20776974686472617760481b6044820152606490fd5b9091508481813d8311613b8d575b613b7d8183614008565b810103126105c357519038613aaf565b503d613b73565b60405162461bcd60e51b815260048101849052601860248201527745503a20746f6f206c61746520746f20776974686472617760401b6044820152606490fd5b634e487b7160e01b85526011600452602485fd5b60048114908115613c38575b50613a695760405162461bcd60e51b815260048101849052601760248201527645503a2063616e6e6f74207769746864726177206e6f7760481b6044820152606490fd5b600391501438613bf4565b60405162461bcd60e51b815260048101849052600e60248201526d11540e881b9bc81cdd5c1c1bdc9d60921b6044820152606490fd5b50346102965760203660031901126102965760043590600a54821015610296576020611bef83613f5a565b50346102965760403660031901126102965760ff6040602092613cc5613ef9565b6004358252600385528282206001600160a01b03909116825284522054604051911615158152f35b50346102965780600319360112610296576020604051670de0b6b3a76400008152f35b50346102965760403660031901126102965760ff6040602092613d31613ef9565b60048035835285528282206001600160a01b03909116825284522054604051911615158152f35b503461029657613d9b6020613d6c36613f25565b600c5460405163256ba74160e01b81529586946001600160a01b0390921693859384939091906004850161460d565b03915afa90811561085b578291613db8575b602082604051908152f35b90506020813d8211613de5575b81613dd260209383614008565b8101031261042e57602091505138613dad565b3d9150613dc5565b5034610296578060031936011261029657600e546040516001600160a01b039091168152602090f35b5034610296578060031936011261029657600f546040516001600160a01b039091168152602090f35b5034610296576020366003190112610296576004359081815260026020526040812091600c830180549360ff8516600581101561273e5794613e97600a600193613e8d611406989915614481565b015442101561462d565b60ff1916179055615629565b50346102965760203660031901126102965760ff60406020926004358152600b84522054166040519015158152f35b90503461042e57602036600319011261042e57604060209260043581526006845220548152f35b602435906001600160a01b0382168203610dbc57565b600435906001600160a01b0382168203610dbc57565b6060906003190112610dbc57600435906001600160a01b03906024358281168103610dbc57916044359081168103610dbc5790565b600a54811015613f7557600a60005260206000200190600090565b634e487b7160e01b600052603260045260246000fd5b8054821015613f755760005260206000200190600090565b6001600160401b03811161303057604052565b6102a081019081106001600160401b0382111761303057604052565b604081019081106001600160401b0382111761303057604052565b606081019081106001600160401b0382111761303057604052565b601f909101601f19168101906001600160401b0382119082101761303057604052565b6001600160401b03811161303057601f01601f191660200190565b90600182811c92168015614076575b602083101461406057565b634e487b7160e01b600052602260045260246000fd5b91607f1691614055565b906040519182600082549261409484614046565b90818452600194858116908160001461410357506001146140c0575b50506140be92500383614008565b565b9093915060005260209081600020936000915b8183106140eb5750506140be935082010138806140b0565b855488840185015294850194879450918301916140d3565b9150506140be94506020925060ff191682840152151560051b82010138806140b0565b60005b8381106141395750506000910152565b8181015183820152602001614129565b9060209161416281518092818552858086019101614126565b601f01601f1916010190565b9060058210156110da5752565b9060028210156110da5752565b6040906003190112610dbc576004359060243590565b6000546001600160a01b031633036141b257565b60405163118cdaa760e01b8152336004820152602490fd5b51908115158203610dbc57565b156141de57565b60405162461bcd60e51b815260206004820152600f60248201526e11540e88189b1858dadb1a5cdd1959608a1b6044820152606490fd5b1561421c57565b60405162461bcd60e51b815260206004820152601560248201527422a81d103ab739bab83837b93a32b2103a37b5b2b760591b6044820152606490fd5b9190820180921161426657565b634e487b7160e01b600052601160045260246000fd5b60001981146142665760010190565b60028210156110da5752565b8181106142a2575050565b60008155600101614297565b9060ff801983541691151516179055565b805490600160401b8210156130305781612c2f9160016142e194018155613f8b565b9055565b3d15614310573d906142f68261402b565b916143046040519384614008565b82523d6000602084013e565b606090565b1561431c57565b60405162461bcd60e51b815260206004820152601360248201527211540e88199959481cd95b990819985a5b1959606a1b6044820152606490fd5b9081526001600160a01b039182166020820152911660408201526060810191909152608081019190915260a00190565b6001600160a01b03918216815291166020820152604081019190915260600190565b906143df906143d16140be956040519586936323b872dd60e01b602086015260248501614387565b03601f198101845283614008565b906000602091828151910182855af11561443b576000513d61443257506001600160a01b0381163b155b6144105750565b604051635274afe760e01b81526001600160a01b039091166004820152602490fd5b60011415614409565b6040513d6000823e3d90fd5b1561444e57565b60405162461bcd60e51b815260206004820152600b60248201526a11540e8819195b195d195960aa1b6044820152606490fd5b1561448857565b60405162461bcd60e51b815260206004820152600e60248201526d45503a206e6f742061637469766560901b6044820152606490fd5b156144c557565b60405162461bcd60e51b815260206004820152600e60248201526d22a81d103130b21037b83a34b7b760911b6044820152606490fd5b1561450257565b60405162461bcd60e51b815260206004820152600d60248201526c22a81d103132b637bb9036b4b760991b6044820152606490fd5b1561453e57565b60405162461bcd60e51b815260206004820152601860248201527711540e881d1c99585cdd5c9e481cd95b990819985a5b195960421b6044820152606490fd5b8054600160401b8110156130305761459b91600182018155613f8b565b819291549060031b9160018060a01b03809116831b921b1916179055565b9081526001600160a01b03918216602082015291166040820152606081019190915260800190565b90816020910312610dbc57516001600160a01b0381168103610dbc5790565b9190820391821161426657565b9081526001600160a01b0391821660208201529116604082015260600190565b1561463457565b60405162461bcd60e51b815260206004820152600d60248201526c11540e881b9bdd08195b991959609a1b6044820152606490fd5b1561467057565b60405162461bcd60e51b815260206004820152601460248201527311540e88185b1c9958591e481c995cdbdb1d995960621b6044820152606490fd5b51906001600160501b0382168203610dbc57565b156146c757565b60405162461bcd60e51b815260206004820152601560248201527445503a206e6f74205032504f5054494d495354494360581b6044820152606490fd5b1561470b57565b60405162461bcd60e51b815260206004820152600c60248201526b11540e881c995cdbdb1d995960a21b6044820152606490fd5b1561474657565b60405162461bcd60e51b815260206004820152601460248201527345503a20617373657274696f6e2065786973747360601b6044820152606490fd5b1561478957565b60405162461bcd60e51b815260206004820152601260248201527111540e881bdc9858db19481b9bdd081cd95d60721b6044820152606490fd5b156147ca57565b60405162461bcd60e51b815260206004820152601960248201527811540e88189bdb990818dd5c9c995b98de481b9bdd081cd95d603a1b6044820152606490fd5b6001600160a01b039091168152602081019190915260400190565b92919260405191602083019061485d8461484f63095ea7b360e01b98898652846024840161480b565b03601f198101865285614008565b60206000809386519082875af182513d826148ee575b505015614883575b505050509050565b60405160208101969096526001600160a01b031660248601526044808601829052855260808501906001600160401b038211868310176148da57506148d093946143df91604052826143df565b803880808061487b565b634e487b7160e01b81526041600452602490fd5b90915061490b57506001600160a01b0383163b15155b3880614873565b600114614904565b1561491a57565b60405162461bcd60e51b815260206004820152601060248201526f22a81d1037379030b9b9b2b93a34b7b760811b6044820152606490fd5b1561495957565b60405162461bcd60e51b815260206004820152601060248201526f11540e881b9bdd081c995cdbdb1d995960821b6044820152606490fd5b1561499857565b60405162461bcd60e51b815260206004820152600d60248201526c22a81d103737903bb4b73732b960991b6044820152606490fd5b156149d457565b60405162461bcd60e51b815260206004820152600c60248201526b45503a206e6f207374616b6560a01b6044820152606490fd5b9081526001600160a01b03909116602082015260400190565b15614a2857565b60405162461bcd60e51b815260206004820152600b60248201526a11540e8818db185a5b595960aa1b6044820152606490fd5b90815260208101919091526001600160a01b03909116604082015260600190565b90816000526002602052604091826000209160018060a01b03600c54169360018060a01b036004850154169181519463423e7bc160e11b865260208680614ac887868a6004850161460d565b03818a5afa958615614d4057600096614d0c575b50600d8101549383519763dc4ce34960e01b895260208980614b03858a8c60048501614a5b565b0381845afa988915614d0157600099614ccd575b5060009260036001910154905b81811115614c2c575050614b51929160209186518080968194634f44289d60e01b83528c60048401614a08565b03915afa908115614c2157600091614beb575b614b6e9250614259565b938615614bdf576000526005602052816000209060018060a01b03166000526020526000205403614bd7578015614bd157612328808202918204036142665761271090049182820292828404148215171561426657614bce920490614259565b90565b50905090565b505050600090565b50505050505050600090565b90506020823d602011614c19575b81614c0660209383614008565b81010312610dbc57614b6e915190614b64565b3d9150614bf9565b84513d6000823e3d90fd5b878103614c42575b614c3d9061427c565b614b24565b865163dc4ce34960e01b815290949060208180614c64888a8f60048501614a5b565b0381875afa908115614cc257600091614c8e575b50614c8690614c3d92614259565b949050614c34565b90506020813d602011614cba575b81614ca960209383614008565b81010312610dbc5751614c3d614c78565b3d9150614c9c565b88513d6000823e3d90fd5b9098506020813d602011614cf9575b81614ce960209383614008565b81010312610dbc57519738614b17565b3d9150614cdc565b85513d6000823e3d90fd5b9095506020813d602011614d38575b81614d2860209383614008565b81010312610dbc57519438614adc565b3d9150614d1b565b83513d6000823e3d90fd5b600090808252602090600282526040918284209184916001936003810154600d820154955b81811115615161575050600c54600482810180548951634f44289d60e01b81526001600160a01b03999298939792948a1693918a169291878280614db78787838f01614a08565b0381885afa918215615157579189918d999897969594938f92615110575b5091614dff85614de786948c96614259565b9b5163dc4ce34960e01b815298899485948501614a5b565b0381865afa9384156150d1579086918d956150db575b508b51633d1e7ba160e11b8152919082908190614e369086908d8401614a08565b0381865afa9586156150d1578c9661509d575b505061015e958686028615978782041488171561508a57612710809104976101f49081890291898304141715615077570493614f7d575050505082614f0e575b5090614e9491614600565b9283614ea3575b505050505050565b80600c541692541690823b156105c35791849391868094614ed797519788958694859363f0824f3360e01b8552840161480b565b03925af1908115614f055750614ef1575b80808080614e9b565b614efb8291613fa3565b6102965780614ee8565b513d84823e3d90fd5b8580600c54169154168686541690823b156125a857614f47928a928387938c519687958694859363112cd22360e01b85528d8501614387565b03925af18015614f7357908891614f5f575b50614e89565b614f6890613fa3565b610a58578638614f59565b87513d8a823e3d90fd5b909298959450929092614f97575b50505050505050505050565b849084615015575b505050505083614fb3575b80808080614f8b565b80600c541692541690823b156105c35791849391868094614fe79751978895869485936348fef59560e01b8552840161480b565b03925af1908115614f055750615001575b80808080614faa565b61500b8291613fa3565b6102965780614ff8565b5416823b156125a8579161504293918a80948b519687958694859363112cd22360e01b85528c8501614387565b03925af1801561506d5761505a575b80808381614f9f565b61506690969196613fa3565b9438615051565b86513d89823e3d90fd5b634e487b7160e01b8e5260118a5260248efd5b634e487b7160e01b8d526011895260248dfd5b9080929650813d83116150ca575b6150b58183614008565b810103126150c65751933880614e49565b8a80fd5b503d6150ab565b8b513d8e823e3d90fd5b8281939296503d8311615109575b6150f38183614008565b81010312615105575192859082614e15565b8b80fd5b503d6150e9565b92509293949596979850508781813d8311615150575b6151308183614008565b8101031261514c57518b97969594939291899190614dff614dd5565b8c80fd5b503d615126565b8c513d8f823e3d90fd5b868103615177575b6151729061427c565b614d70565b9487848760018060a01b038881600c5416916151ae600491828b01541696519687958694859463dc4ce34960e01b86528501614a5b565b03915afa908115615205578a916151d6575b506151ce9061517292614259565b959050615169565b90508481813d83116151fe575b6151ed8183614008565b810103126125a857516151726151c0565b503d6151e3565b89513d8c823e3d90fd5b9061526660008051602061576883398151915291836000526002602052600c604060002001600360ff19825416179055600b60205260ff6040600020541661526b575b604051918291602083526020830190614149565b0390a2565b61527484615629565b615252565b909493926060926080830196835260018060a01b0316602083015260408201520152565b939093600094818652602093600385526040948588209160018060a01b039283851690818b52835260ff888b20541615615416575b858a5260038352878a20818b528352878a20600160ff19825416179055858a5260058352878a20908a52825285878a205582600c5416803b156125a85788918a918683896153368c8e51988997889687956395f4109560e01b875260048701614357565b03925af180156153f957615403575b5060048183600d541688519283809263406ad64560e11b82525afa9182156153f95789926153dc575b5050169182615381575b50505050505050565b823b15610a58579086809493926153ad87519889968795869463c228038d60e01b865260048601615279565b03925af1908115614f0557506153c8575b8080808080615378565b6153d28291613fa3565b61029657806153be565b6153f29250803d10610890576108818183614008565b388061536e565b87513d8b823e3d90fd5b61540f90989198613fa3565b9638615345565b858a526006835261542985898c2061457e565b808a526008835261543c86898c206142bf565b6152d2565b1561544857565b60405162461bcd60e51b815260206004820152601260248201527111540e881cdd185ada5b99c818db1bdcd95960721b6044820152606490fd5b600d5460405163111a798960e31b8152602092916001600160a01b0316908381600481855afa90811561443b57600091615553575b5015615542578260049160405192838092632eaa712b60e21b82525afa92831561443b57600093615510575b505060090154603c820291808304603c1490151715614266576140be9161550991614600565b4210615441565b8181949293943d831161553b575b6155288183614008565b81010312610296575051906009386154e3565b503d61551e565b506140be9150600901544210615441565b908482813d8311615581575b6155698183614008565b81010312610296575061557b906141ca565b386154b7565b503d61555f565b600d5460405163406ad64560e11b81526001600160a01b03916020908290600490829086165afa90811561443b5760009161560b575b501691826155cb57505050565b823b15610dbc57604460009283604051958694859362ff4a7360e81b8552600485015260248401525af1801561443b576156025750565b6140be90613fa3565b615623915060203d8111610890576108818183614008565b386155be565b60005b600a90815491828210156156de57839261564583613f5a565b949054600395861b1c1461566457505061565f915061427c565b61562c565b90916000199182810190811161426657612c2f61568361568f92613f5a565b905490871b1c92613f5a565b9055815480156156c8578101926156a584613f5a565b81939154921b1b1916905555600052600b602052604060002060ff198154169055565b634e487b7160e01b600052603160045260246000fd5b50505050565b156156eb57565b60405162461bcd60e51b815260206004820152601060248201526f45503a207a65726f206164647265737360801b6044820152606490fd5b1561572a57565b60405162461bcd60e51b815260206004820152601560248201527422a81d1037b7363c9020b236b4b726b0b730b3b2b960591b6044820152606490fdfe4c4561c5b0048424071c1115e9f1e325486e21c21333d968f21097b7b72d12ad8be0079c531659141344cd1fd0a4f28419497f9722a3daafe3b4186f6b6457e06dfc24f0f2fb42e49fb4fa3ffa8abb148cab908a1fb8335b3f128a08b2594af1e10fdde2c5cd9b92e449ee25df01febda2cbebc5553e38f2250ffe7f2d5143bca164736f6c6343000814000a","opcodes":"PUSH1 0x80 CALLVALUE PUSH3 0x106 JUMPI PUSH1 0x1F PUSH3 0x592B CODESIZE DUP2 SWAP1 SUB SWAP2 DUP3 ADD PUSH1 0x1F NOT AND DUP4 ADD SWAP2 PUSH1 0x1 PUSH1 0x1 PUSH1 0x40 SHL SUB DUP4 GT DUP5 DUP5 LT OR PUSH3 0x10B JUMPI DUP1 DUP5 SWAP3 PUSH1 0x60 SWAP5 PUSH1 0x40 MSTORE DUP4 CODECOPY DUP2 ADD SUB SLT PUSH3 0x106 JUMPI PUSH3 0x4D DUP2 PUSH3 0x121 JUMP JUMPDEST PUSH1 0x20 DUP3 ADD MLOAD PUSH1 0x1 PUSH1 0x1 PUSH1 0xA0 SHL SUB DUP1 DUP3 AND SWAP4 SWAP1 SWAP2 DUP5 SWAP1 SUB PUSH3 0x106 JUMPI PUSH3 0x77 PUSH1 0x40 DUP4 SWAP3 ADD PUSH3 0x121 JUMP JUMPDEST SWAP3 AND SWAP2 DUP3 ISZERO PUSH3 0xED JUMPI PUSH1 0x0 SLOAD SWAP4 PUSH1 0x1 DUP1 PUSH1 0xA0 SHL SUB NOT SWAP4 DUP1 DUP6 DUP8 AND OR PUSH1 0x0 SSTORE DUP4 PUSH1 0x40 MLOAD SWAP7 AND PUSH32 0x8BE0079C531659141344CD1FD0A4F28419497F9722A3DAAFE3B4186F6B6457E0 PUSH1 0x0 DUP1 LOG3 PUSH3 0x2A300 PUSH1 0x1 SSTORE PUSH1 0x1 PUSH1 0x9 SSTORE DUP4 PUSH1 0xC SLOAD AND OR PUSH1 0xC SSTORE AND SWAP1 PUSH1 0xD SLOAD AND OR PUSH1 0xD SSTORE PUSH2 0x57F4 SWAP1 DUP2 PUSH3 0x137 DUP3 CODECOPY RETURN JUMPDEST PUSH1 0x40 MLOAD PUSH4 0x1E4FBDF7 PUSH1 0xE0 SHL DUP2 MSTORE PUSH1 0x0 PUSH1 0x4 DUP3 ADD MSTORE PUSH1 0x24 SWAP1 REVERT JUMPDEST PUSH1 0x0 DUP1 REVERT JUMPDEST PUSH4 0x4E487B71 PUSH1 0xE0 SHL PUSH1 0x0 MSTORE PUSH1 0x41 PUSH1 0x4 MSTORE PUSH1 0x24 PUSH1 0x0 REVERT JUMPDEST MLOAD SWAP1 PUSH1 0x1 PUSH1 0x1 PUSH1 0xA0 SHL SUB DUP3 AND DUP3 SUB PUSH3 0x106 JUMPI JUMP INVALID PUSH2 0x140 DUP1 PUSH1 0x40 MSTORE PUSH1 0x4 CALLDATASIZE LT ISZERO PUSH2 0x1E JUMPI JUMPDEST POP CALLDATASIZE ISZERO PUSH2 0x1C JUMPI PUSH1 0x0 DUP1 REVERT JUMPDEST STOP JUMPDEST PUSH1 0x0 SWAP1 DUP2 CALLDATALOAD PUSH1 0xE0 SHR SWAP1 DUP2 PUSH4 0xCCF4467 EQ PUSH2 0x3ED2 JUMPI POP DUP1 PUSH4 0xD64CDBD EQ PUSH2 0x3EA3 JUMPI DUP1 PUSH4 0x157BDCCE EQ PUSH2 0x3E3F JUMPI DUP1 PUSH4 0x209C1C94 EQ PUSH2 0x3E16 JUMPI DUP1 PUSH4 0x22302922 EQ PUSH2 0x3DED JUMPI DUP1 PUSH4 0x256BA741 EQ PUSH2 0x3D58 JUMPI DUP1 PUSH4 0x287F57B5 EQ PUSH2 0x3D10 JUMPI DUP1 PUSH4 0x2EF1BDFA EQ PUSH2 0x3CED JUMPI DUP1 PUSH4 0x304BF1F1 EQ PUSH2 0x3CA4 JUMPI DUP1 PUSH4 0x3ADFE6D0 EQ PUSH2 0x3C79 JUMPI DUP1 PUSH4 0x3E32A76C EQ PUSH2 0x39FD JUMPI DUP1 PUSH4 0x406EF2EF EQ PUSH2 0x39DF JUMPI DUP1 PUSH4 0x4F44289D EQ PUSH2 0x3996 JUMPI DUP1 PUSH4 0x539AA77F EQ PUSH2 0x3979 JUMPI DUP1 PUSH4 0x569946C5 EQ PUSH2 0x38A5 JUMPI DUP1 PUSH4 0x5B7BAF64 EQ PUSH2 0x354E JUMPI DUP1 PUSH4 0x61D027B3 EQ PUSH2 0x3525 JUMPI DUP1 PUSH4 0x66CF7ED4 EQ PUSH2 0x2752 JUMPI DUP1 PUSH4 0x677BD9FF EQ PUSH2 0x25AC JUMPI DUP1 PUSH4 0x6D4476EC EQ PUSH2 0x2301 JUMPI DUP1 PUSH4 0x6F59359E EQ PUSH2 0x224F JUMPI DUP1 PUSH4 0x715018A6 EQ PUSH2 0x2207 JUMPI DUP1 PUSH4 0x7C16CD9E EQ PUSH2 0x212D JUMPI DUP1 PUSH4 0x818EF5F6 EQ PUSH2 0x20CC JUMPI DUP1 PUSH4 0x847CF782 EQ PUSH2 0x2088 JUMPI DUP1 PUSH4 0x87A6B0FF EQ PUSH2 0x1F74 JUMPI DUP1 PUSH4 0x8D0D180E EQ PUSH2 0x1C42 JUMPI DUP1 PUSH4 0x8DA5CB5B EQ PUSH2 0x1C1B JUMPI DUP1 PUSH4 0x93FCF24D EQ PUSH2 0x1BFD JUMPI DUP1 PUSH4 0x98A17671 EQ PUSH2 0x1BA7 JUMPI DUP1 PUSH4 0x9A3A40D6 EQ PUSH2 0x19A2 JUMPI DUP1 PUSH4 0xA210B6A4 EQ PUSH2 0x1979 JUMPI DUP1 PUSH4 0xA30A0914 EQ PUSH2 0x194F JUMPI DUP1 PUSH4 0xA550725D EQ PUSH2 0x1902 JUMPI DUP1 PUSH4 0xB1283E77 EQ PUSH2 0x174C JUMPI DUP1 PUSH4 0xBC160758 EQ PUSH2 0x16FF JUMPI DUP1 PUSH4 0xBF5C3252 EQ PUSH2 0x16B2 JUMPI DUP1 PUSH4 0xBF5F984B EQ PUSH2 0x14BA JUMPI DUP1 PUSH4 0xC22C62C3 EQ PUSH2 0x1488 JUMPI DUP1 PUSH4 0xC3436E0C EQ PUSH2 0x136D JUMPI DUP1 PUSH4 0xCC3CBD2A EQ PUSH2 0x1350 JUMPI DUP1 PUSH4 0xD5F82707 EQ PUSH2 0x1305 JUMPI DUP1 PUSH4 0xD8C5DD67 EQ PUSH2 0x12BE JUMPI DUP1 PUSH4 0xDC4CE349 EQ PUSH2 0x126B JUMPI DUP1 PUSH4 0xE0BD4ACC EQ PUSH2 0x10F0 JUMPI DUP1 PUSH4 0xEB44FDD3 EQ PUSH2 0xDC9 JUMPI DUP1 PUSH4 0xF00FE321 EQ PUSH2 0xD2D JUMPI DUP1 PUSH4 0xF15CC406 EQ PUSH2 0xBF8 JUMPI DUP1 PUSH4 0xF1B7DDE3 EQ PUSH2 0xA63 JUMPI DUP1 PUSH4 0xF204072F EQ PUSH2 0x64F JUMPI DUP1 PUSH4 0xF2FDE38B EQ PUSH2 0x5D9 JUMPI DUP1 PUSH4 0xF4867591 EQ PUSH2 0x432 JUMPI DUP1 PUSH4 0xFB87F2C3 EQ PUSH2 0x299 JUMPI PUSH4 0xFE53A6E8 SUB PUSH2 0x10 JUMPI CALLVALUE PUSH2 0x296 JUMPI DUP1 PUSH1 0x3 NOT CALLDATASIZE ADD SLT PUSH2 0x296 JUMPI PUSH1 0x20 PUSH1 0x9 SLOAD PUSH1 0x40 MLOAD SWAP1 DUP2 MSTORE RETURN JUMPDEST DUP1 REVERT JUMPDEST POP CALLVALUE PUSH2 0x296 JUMPI PUSH1 0x20 DUP1 PUSH1 0x3 NOT CALLDATASIZE ADD SLT PUSH2 0x42E JUMPI PUSH1 0x4 CALLDATALOAD SWAP1 PUSH1 0x1 DUP1 PUSH1 0xA0 SHL SUB PUSH2 0x2C6 DUP2 PUSH1 0xD SLOAD AND CALLER EQ PUSH2 0x5723 JUMP JUMPDEST PUSH1 0x9 SLOAD DUP4 LT ISZERO PUSH2 0x3FC JUMPI DUP3 DUP5 MSTORE PUSH1 0x2 DUP3 MSTORE PUSH1 0x40 DUP5 KECCAK256 SLOAD AND ISZERO PUSH2 0x3C8 JUMPI DUP2 DUP4 MSTORE PUSH1 0x2 DUP2 MSTORE PUSH1 0xFF PUSH1 0xC PUSH1 0x40 DUP6 KECCAK256 ADD SLOAD AND PUSH1 0x5 DUP2 LT ISZERO PUSH2 0x3B4 JUMPI PUSH1 0x4 EQ PUSH2 0x37A JUMPI PUSH1 0x60 PUSH1 0x0 DUP1 MLOAD PUSH1 0x20 PUSH2 0x5768 DUP4 CODECOPY DUP2 MLOAD SWAP2 MSTORE SWAP2 DUP4 DUP6 MSTORE PUSH1 0x2 DUP2 MSTORE PUSH1 0xC PUSH1 0x40 DUP7 KECCAK256 ADD PUSH1 0x4 PUSH1 0xFF NOT DUP3 SLOAD AND OR SWAP1 SSTORE DUP4 DUP6 MSTORE PUSH1 0xB DUP2 MSTORE PUSH1 0xFF PUSH1 0x40 DUP7 KECCAK256 SLOAD AND PUSH2 0x36C JUMPI JUMPDEST PUSH1 0x10 PUSH1 0x40 MLOAD SWAP2 DUP1 DUP4 MSTORE DUP3 ADD MSTORE PUSH16 0x2232B632BA32B210313C9030B236B4B7 PUSH1 0x81 SHL PUSH1 0x40 DUP3 ADD MSTORE LOG2 DUP1 RETURN JUMPDEST PUSH2 0x375 DUP5 PUSH2 0x5629 JUMP JUMPDEST PUSH2 0x343 JUMP JUMPDEST PUSH1 0x64 SWAP1 PUSH1 0x40 MLOAD SWAP1 PUSH3 0x461BCD PUSH1 0xE5 SHL DUP3 MSTORE PUSH1 0x4 DUP3 ADD MSTORE PUSH1 0x13 PUSH1 0x24 DUP3 ADD MSTORE PUSH19 0x11540E88185B1C9958591E4819195B195D1959 PUSH1 0x6A SHL PUSH1 0x44 DUP3 ADD MSTORE REVERT JUMPDEST PUSH4 0x4E487B71 PUSH1 0xE0 SHL DUP5 MSTORE PUSH1 0x21 PUSH1 0x4 MSTORE PUSH1 0x24 DUP5 REVERT JUMPDEST PUSH1 0x64 SWAP1 PUSH1 0x40 MLOAD SWAP1 PUSH3 0x461BCD PUSH1 0xE5 SHL DUP3 MSTORE PUSH1 0x4 DUP3 ADD MSTORE PUSH1 0xD PUSH1 0x24 DUP3 ADD MSTORE PUSH13 0x11540E881B9BC81B585C9AD95D PUSH1 0x9A SHL PUSH1 0x44 DUP3 ADD MSTORE REVERT JUMPDEST PUSH1 0x40 MLOAD PUSH3 0x461BCD PUSH1 0xE5 SHL DUP2 MSTORE PUSH1 0x4 DUP2 ADD DUP4 SWAP1 MSTORE PUSH1 0xA PUSH1 0x24 DUP3 ADD MSTORE PUSH10 0x11540E88189859081251 PUSH1 0xB2 SHL PUSH1 0x44 DUP3 ADD MSTORE PUSH1 0x64 SWAP1 REVERT JUMPDEST POP DUP1 REVERT JUMPDEST POP PUSH2 0x43C CALLDATASIZE PUSH2 0x4188 JUMP JUMPDEST SWAP1 PUSH1 0x1 DUP1 PUSH1 0xA0 SHL SUB DUP1 PUSH1 0xD SLOAD AND SWAP1 PUSH1 0x40 MLOAD DUP1 SWAP3 PUSH4 0x4D9B4235 PUSH1 0xE1 SHL DUP3 MSTORE DUP5 PUSH1 0x4 DUP4 ADD MSTORE DUP2 PUSH1 0x24 PUSH1 0x20 SWAP6 DUP7 SWAP4 GAS STATICCALL DUP1 ISZERO PUSH2 0x5CE JUMPI DUP7 SWAP1 PUSH2 0x594 JUMPI JUMPDEST PUSH2 0x481 SWAP2 POP ISZERO PUSH2 0x4447 JUMP JUMPDEST DUP3 DUP6 MSTORE PUSH1 0x2 DUP3 MSTORE PUSH1 0x40 DUP6 KECCAK256 PUSH1 0xFF PUSH1 0xC DUP3 ADD SLOAD AND PUSH1 0x5 DUP2 LT ISZERO PUSH2 0x580 JUMPI PUSH2 0x4A7 SWAP1 ISZERO PUSH2 0x4481 JUMP JUMPDEST PUSH1 0x4 DUP2 ADD SWAP1 DUP3 DUP3 SLOAD AND PUSH2 0x53D JUMPI SWAP2 DUP6 SWAP2 PUSH2 0x4E5 PUSH1 0x5 PUSH2 0x50D SWAP6 DUP6 ISZERO ISZERO DUP1 PUSH2 0x52F JUMPI JUMPDEST PUSH2 0x4D2 SWAP1 PUSH2 0x44BE JUMP JUMPDEST PUSH2 0x4DB DUP2 PUSH2 0x5482 JUMP JUMPDEST ADD SLOAD CALLVALUE LT ISZERO PUSH2 0x44FB JUMP JUMPDEST PUSH2 0x502 DUP9 DUP1 DUP1 DUP1 CALLVALUE DUP8 PUSH1 0xC SLOAD AND GAS CALL PUSH2 0x4FC PUSH2 0x42E5 JUMP JUMPDEST POP PUSH2 0x4537 JUMP JUMPDEST SLOAD AND CALLVALUE SWAP1 CALLER DUP7 PUSH2 0x529D JUMP JUMPDEST PUSH1 0x40 MLOAD SWAP3 DUP4 MSTORE CALLVALUE SWAP1 DUP4 ADD MSTORE PUSH1 0x0 DUP1 MLOAD PUSH1 0x20 PUSH2 0x57C8 DUP4 CODECOPY DUP2 MLOAD SWAP2 MSTORE PUSH1 0x40 CALLER SWAP4 LOG3 DUP1 RETURN JUMPDEST POP PUSH1 0x3 DUP2 ADD SLOAD DUP7 GT ISZERO PUSH2 0x4C9 JUMP JUMPDEST PUSH1 0x40 MLOAD PUSH3 0x461BCD PUSH1 0xE5 SHL DUP2 MSTORE PUSH1 0x4 DUP2 ADD DUP6 SWAP1 MSTORE PUSH1 0x1B PUSH1 0x24 DUP3 ADD MSTORE PUSH27 0x22A81D103AB9B290383630B1B2A9BA30B5B2ABB4BA342A37B5B2B7 PUSH1 0x29 SHL PUSH1 0x44 DUP3 ADD MSTORE PUSH1 0x64 SWAP1 REVERT JUMPDEST PUSH4 0x4E487B71 PUSH1 0xE0 SHL DUP8 MSTORE PUSH1 0x21 PUSH1 0x4 MSTORE PUSH1 0x24 DUP8 REVERT JUMPDEST POP DUP3 DUP2 DUP2 RETURNDATASIZE DUP4 GT PUSH2 0x5C7 JUMPI JUMPDEST PUSH2 0x5AA DUP2 DUP4 PUSH2 0x4008 JUMP JUMPDEST DUP2 ADD SUB SLT PUSH2 0x5C3 JUMPI PUSH2 0x5BE PUSH2 0x481 SWAP2 PUSH2 0x41CA JUMP JUMPDEST PUSH2 0x476 JUMP JUMPDEST DUP6 DUP1 REVERT JUMPDEST POP RETURNDATASIZE PUSH2 0x5A0 JUMP JUMPDEST PUSH1 0x40 MLOAD RETURNDATASIZE DUP9 DUP3 RETURNDATACOPY RETURNDATASIZE SWAP1 REVERT JUMPDEST POP CALLVALUE PUSH2 0x296 JUMPI PUSH1 0x20 CALLDATASIZE PUSH1 0x3 NOT ADD SLT PUSH2 0x296 JUMPI PUSH2 0x5F3 PUSH2 0x3F0F JUMP JUMPDEST PUSH2 0x5FB PUSH2 0x419E JUMP JUMPDEST PUSH1 0x1 PUSH1 0x1 PUSH1 0xA0 SHL SUB SWAP1 DUP2 AND SWAP1 DUP2 ISZERO PUSH2 0x636 JUMPI PUSH1 0x0 SLOAD DUP3 PUSH1 0x1 DUP1 PUSH1 0xA0 SHL SUB NOT DUP3 AND OR PUSH1 0x0 SSTORE AND PUSH1 0x0 DUP1 MLOAD PUSH1 0x20 PUSH2 0x5788 DUP4 CODECOPY DUP2 MLOAD SWAP2 MSTORE PUSH1 0x0 DUP1 LOG3 DUP1 RETURN JUMPDEST PUSH1 0x40 MLOAD PUSH4 0x1E4FBDF7 PUSH1 0xE0 SHL DUP2 MSTORE PUSH1 0x4 DUP2 ADD DUP5 SWAP1 MSTORE PUSH1 0x24 SWAP1 REVERT JUMPDEST POP PUSH2 0x659 CALLDATASIZE PUSH2 0x4188 JUMP JUMPDEST PUSH1 0xD SLOAD PUSH1 0x40 MLOAD PUSH4 0x2B5BA3B9 PUSH1 0xE0 SHL DUP2 MSTORE CALLER PUSH1 0x4 DUP3 ADD MSTORE PUSH1 0x20 SWAP5 SWAP4 SWAP2 PUSH1 0x24 SWAP2 PUSH1 0x1 PUSH1 0x1 PUSH1 0xA0 SHL SUB SWAP2 DUP3 AND SWAP1 DUP8 DUP2 DUP6 DUP2 DUP6 GAS STATICCALL SWAP1 DUP2 ISZERO PUSH2 0x897 JUMPI SWAP2 DUP9 SWAP2 DUP6 SWAP4 DUP10 SWAP2 PUSH2 0xA21 JUMPI JUMPDEST POP PUSH2 0x6A8 SWAP1 ISZERO PUSH2 0x41D7 JUMP JUMPDEST PUSH1 0x40 MLOAD SWAP3 DUP4 DUP1 SWAP3 PUSH4 0x4D9B4235 PUSH1 0xE1 SHL DUP3 MSTORE DUP9 PUSH1 0x4 DUP4 ADD MSTORE GAS STATICCALL DUP1 ISZERO PUSH2 0x5CE JUMPI DUP7 SWAP1 PUSH2 0x9EB JUMPI JUMPDEST PUSH2 0x6D9 SWAP2 POP ISZERO PUSH2 0x4447 JUMP JUMPDEST DUP3 DUP6 MSTORE PUSH1 0x2 DUP7 MSTORE PUSH1 0x40 DUP6 KECCAK256 PUSH1 0xFF PUSH1 0xC DUP3 ADD SLOAD AND PUSH1 0x5 DUP2 LT ISZERO PUSH2 0x9D8 JUMPI PUSH2 0x6FF SWAP1 ISZERO PUSH2 0x4481 JUMP JUMPDEST PUSH1 0x9 DUP2 ADD SLOAD TIMESTAMP LT ISZERO PUSH2 0x99F JUMPI DUP5 ISZERO PUSH2 0x969 JUMPI PUSH1 0x4 ADD SWAP6 DUP2 DUP8 SLOAD AND DUP1 ISZERO PUSH1 0x0 EQ PUSH2 0x909 JUMPI POP DUP5 CALLVALUE SUB PUSH2 0x8D3 JUMPI DUP6 SWAP7 PUSH2 0x743 DUP8 DUP1 DUP1 DUP1 DUP11 DUP9 PUSH1 0xC SLOAD AND GAS CALL PUSH2 0x4FC PUSH2 0x42E5 JUMP JUMPDEST DUP5 DUP8 MSTORE PUSH1 0x4 DUP3 MSTORE PUSH1 0x40 DUP8 KECCAK256 CALLER PUSH1 0x0 MSTORE DUP3 MSTORE PUSH1 0xFF PUSH1 0x40 PUSH1 0x0 KECCAK256 SLOAD AND ISZERO PUSH2 0x8BA JUMPI JUMPDEST DUP5 DUP8 MSTORE PUSH1 0x4 DUP3 MSTORE PUSH1 0x40 DUP8 KECCAK256 CALLER PUSH1 0x0 MSTORE DUP3 MSTORE PUSH1 0x40 PUSH1 0x0 KECCAK256 PUSH1 0x1 PUSH1 0xFF NOT DUP3 SLOAD AND OR SWAP1 SSTORE DUP3 DUP1 PUSH1 0xC SLOAD AND SWAP2 SLOAD AND SWAP1 DUP1 EXTCODESIZE ISZERO PUSH2 0x8B6 JUMPI DUP7 DUP9 SWAP2 PUSH2 0x7BC SWAP4 DUP4 PUSH1 0x40 MLOAD DUP1 SWAP7 DUP2 SWAP6 DUP3 SWAP5 PUSH4 0xC15D9807 PUSH1 0xE0 SHL DUP5 MSTORE DUP14 CALLER SWAP1 PUSH1 0x4 DUP7 ADD PUSH2 0x45B9 JUMP JUMPDEST SUB SWAP3 GAS CALL SWAP1 DUP2 ISZERO PUSH2 0x897 JUMPI DUP8 SWAP2 PUSH2 0x8A2 JUMPI JUMPDEST POP POP PUSH1 0x4 DUP2 DUP4 PUSH1 0xD SLOAD AND PUSH1 0x40 MLOAD SWAP3 DUP4 DUP1 SWAP3 PUSH4 0x406AD645 PUSH1 0xE1 SHL DUP3 MSTORE GAS STATICCALL SWAP2 DUP3 ISZERO PUSH2 0x897 JUMPI DUP8 SWAP3 PUSH2 0x86A JUMPI JUMPDEST POP POP AND DUP1 PUSH2 0x805 JUMPI DUP5 DUP1 RETURN JUMPDEST DUP1 EXTCODESIZE ISZERO PUSH2 0x866 JUMPI DUP5 SWAP3 DUP4 PUSH1 0x64 SWAP3 PUSH1 0x40 MLOAD SWAP7 DUP8 SWAP6 DUP7 SWAP5 PUSH4 0x8F46A5A1 PUSH1 0xE0 SHL DUP7 MSTORE PUSH1 0x4 DUP7 ADD MSTORE CALLER SWAP1 DUP6 ADD MSTORE PUSH1 0x44 DUP5 ADD MSTORE GAS CALL DUP1 ISZERO PUSH2 0x85B JUMPI PUSH2 0x847 JUMPI JUMPDEST DUP1 DUP1 DUP1 DUP5 DUP1 RETURN JUMPDEST PUSH2 0x850 SWAP1 PUSH2 0x3FA3 JUMP JUMPDEST PUSH2 0x296 JUMPI DUP1 CODESIZE PUSH2 0x840 JUMP JUMPDEST PUSH1 0x40 MLOAD RETURNDATASIZE DUP5 DUP3 RETURNDATACOPY RETURNDATASIZE SWAP1 REVERT JUMPDEST DUP5 DUP1 REVERT JUMPDEST PUSH2 0x889 SWAP3 POP DUP1 RETURNDATASIZE LT PUSH2 0x890 JUMPI JUMPDEST PUSH2 0x881 DUP2 DUP4 PUSH2 0x4008 JUMP JUMPDEST DUP2 ADD SWAP1 PUSH2 0x45E1 JUMP JUMPDEST CODESIZE DUP1 PUSH2 0x7F9 JUMP JUMPDEST POP RETURNDATASIZE PUSH2 0x877 JUMP JUMPDEST PUSH1 0x40 MLOAD RETURNDATASIZE DUP10 DUP3 RETURNDATACOPY RETURNDATASIZE SWAP1 REVERT JUMPDEST PUSH2 0x8AB SWAP1 PUSH2 0x3FA3 JUMP JUMPDEST PUSH2 0x5C3 JUMPI DUP6 CODESIZE PUSH2 0x7CE JUMP JUMPDEST DUP8 DUP1 REVERT JUMPDEST DUP5 DUP8 MSTORE PUSH1 0x7 DUP3 MSTORE PUSH2 0x8CE CALLER PUSH1 0x40 DUP10 KECCAK256 PUSH2 0x457E JUMP JUMPDEST PUSH2 0x763 JUMP JUMPDEST PUSH1 0x64 SWAP1 PUSH1 0x10 DUP5 PUSH1 0x40 MLOAD SWAP3 PUSH3 0x461BCD PUSH1 0xE5 SHL DUP5 MSTORE PUSH1 0x4 DUP5 ADD MSTORE DUP3 ADD MSTORE PUSH16 0x8AA074408AA89040DAD2E6DAC2E8C6D PUSH1 0x83 SHL PUSH1 0x44 DUP3 ADD MSTORE REVERT JUMPDEST SWAP7 CALLVALUE PUSH2 0x927 JUMPI PUSH2 0x922 DUP7 DUP9 SWAP10 DUP6 PUSH1 0xC SLOAD AND SWAP1 CALLER SWAP1 PUSH2 0x43A9 JUMP JUMPDEST PUSH2 0x743 JUMP JUMPDEST PUSH1 0x40 MLOAD PUSH3 0x461BCD PUSH1 0xE5 SHL DUP2 MSTORE PUSH1 0x4 DUP2 ADD DUP4 SWAP1 MSTORE PUSH1 0x1B DUP2 DUP7 ADD MSTORE PUSH27 0x11540E881B9BC811551208199BDC881D1BDAD95B881B585C9AD95D PUSH1 0x2A SHL PUSH1 0x44 DUP3 ADD MSTORE PUSH1 0x64 SWAP1 REVERT JUMPDEST PUSH1 0x40 MLOAD PUSH3 0x461BCD PUSH1 0xE5 SHL DUP2 MSTORE PUSH1 0x4 DUP2 ADD DUP9 SWAP1 MSTORE PUSH1 0xF DUP2 DUP6 ADD MSTORE PUSH15 0x11540E881E995C9BC8185B5BDD5B9D PUSH1 0x8A SHL PUSH1 0x44 DUP3 ADD MSTORE PUSH1 0x64 SWAP1 REVERT JUMPDEST PUSH1 0x40 MLOAD PUSH3 0x461BCD PUSH1 0xE5 SHL DUP2 MSTORE PUSH1 0x4 DUP2 ADD DUP9 SWAP1 MSTORE PUSH1 0x12 DUP2 DUP6 ADD MSTORE PUSH18 0x11540E881CDD5C1C1BDC9D0818DB1BDCD959 PUSH1 0x72 SHL PUSH1 0x44 DUP3 ADD MSTORE PUSH1 0x64 SWAP1 REVERT JUMPDEST PUSH4 0x4E487B71 PUSH1 0xE0 SHL DUP8 MSTORE PUSH1 0x21 PUSH1 0x4 MSTORE DUP4 DUP8 REVERT JUMPDEST POP DUP7 DUP2 DUP2 RETURNDATASIZE DUP4 GT PUSH2 0xA1A JUMPI JUMPDEST PUSH2 0xA01 DUP2 DUP4 PUSH2 0x4008 JUMP JUMPDEST DUP2 ADD SUB SLT PUSH2 0x5C3 JUMPI PUSH2 0xA15 PUSH2 0x6D9 SWAP2 PUSH2 0x41CA JUMP JUMPDEST PUSH2 0x6CE JUMP JUMPDEST POP RETURNDATASIZE PUSH2 0x9F7 JUMP JUMPDEST SWAP3 DUP1 SWAP3 SWAP5 POP DUP4 SWAP2 POP RETURNDATASIZE DUP4 GT PUSH2 0xA5C JUMPI JUMPDEST PUSH2 0xA3B DUP2 DUP4 PUSH2 0x4008 JUMP JUMPDEST DUP2 ADD SUB SLT PUSH2 0xA58 JUMPI DUP4 SWAP2 PUSH2 0x6A8 PUSH2 0xA52 DUP11 SWAP4 PUSH2 0x41CA JUMP JUMPDEST SWAP1 PUSH2 0x69D JUMP JUMPDEST DUP7 DUP1 REVERT JUMPDEST POP RETURNDATASIZE PUSH2 0xA31 JUMP JUMPDEST POP CALLVALUE PUSH2 0x296 JUMPI PUSH1 0x60 CALLDATASIZE PUSH1 0x3 NOT ADD SLT PUSH2 0x296 JUMPI PUSH1 0x4 CALLDATALOAD PUSH1 0x24 CALLDATALOAD SWAP1 PUSH1 0x44 CALLDATALOAD PUSH1 0x1 DUP1 PUSH1 0xA0 SHL SUB DUP1 PUSH1 0xD SLOAD AND SWAP1 PUSH1 0x40 MLOAD DUP1 SWAP3 PUSH4 0x4D9B4235 PUSH1 0xE1 SHL DUP3 MSTORE DUP6 PUSH1 0x4 DUP4 ADD MSTORE DUP2 PUSH1 0x24 PUSH1 0x20 SWAP6 DUP7 SWAP4 GAS STATICCALL DUP1 ISZERO PUSH2 0x897 JUMPI DUP8 SWAP1 PUSH2 0xBC2 JUMPI JUMPDEST PUSH2 0xAC3 SWAP2 POP ISZERO PUSH2 0x4447 JUMP JUMPDEST DUP4 DUP7 MSTORE PUSH1 0x2 DUP3 MSTORE PUSH1 0x40 DUP7 KECCAK256 PUSH1 0xFF PUSH1 0xC DUP3 ADD SLOAD AND PUSH1 0x5 DUP2 LT ISZERO PUSH2 0xBAE JUMPI PUSH2 0xAE9 SWAP1 ISZERO PUSH2 0x4481 JUMP JUMPDEST PUSH1 0x4 DUP2 ADD SWAP1 DUP3 DUP3 SLOAD AND SWAP1 DUP2 ISZERO PUSH2 0xB74 JUMPI SWAP3 DUP8 SWAP3 PUSH2 0xB3D DUP8 DUP1 SWAP5 PUSH2 0xB30 PUSH2 0xB46 SWAP9 DUP9 ISZERO ISZERO DUP1 PUSH2 0xB66 JUMPI JUMPDEST PUSH2 0xB1B SWAP1 PUSH2 0x44BE JUMP JUMPDEST PUSH2 0xB2B PUSH1 0x5 DUP3 ADD SLOAD DUP6 LT ISZERO PUSH2 0x44FB JUMP JUMPDEST PUSH2 0x5482 JUMP JUMPDEST DUP5 PUSH1 0xC SLOAD AND SWAP1 CALLER SWAP1 PUSH2 0x43A9 JUMP JUMPDEST SLOAD AND CALLER DUP8 PUSH2 0x529D JUMP JUMPDEST PUSH1 0x40 MLOAD SWAP4 DUP5 MSTORE DUP4 ADD MSTORE PUSH1 0x0 DUP1 MLOAD PUSH1 0x20 PUSH2 0x57C8 DUP4 CODECOPY DUP2 MLOAD SWAP2 MSTORE PUSH1 0x40 CALLER SWAP4 LOG3 DUP1 RETURN JUMPDEST POP PUSH1 0x3 DUP2 ADD SLOAD DUP10 GT ISZERO PUSH2 0xB12 JUMP JUMPDEST PUSH1 0x40 MLOAD PUSH3 0x461BCD PUSH1 0xE5 SHL DUP2 MSTORE PUSH1 0x4 DUP2 ADD DUP7 SWAP1 MSTORE PUSH1 0x12 PUSH1 0x24 DUP3 ADD MSTORE PUSH18 0x45503A2075736520706C6163655374616B65 PUSH1 0x70 SHL PUSH1 0x44 DUP3 ADD MSTORE PUSH1 0x64 SWAP1 REVERT JUMPDEST PUSH4 0x4E487B71 PUSH1 0xE0 SHL DUP9 MSTORE PUSH1 0x21 PUSH1 0x4 MSTORE PUSH1 0x24 DUP9 REVERT JUMPDEST POP DUP3 DUP2 DUP2 RETURNDATASIZE DUP4 GT PUSH2 0xBF1 JUMPI JUMPDEST PUSH2 0xBD8 DUP2 DUP4 PUSH2 0x4008 JUMP JUMPDEST DUP2 ADD SUB SLT PUSH2 0xA58 JUMPI PUSH2 0xBEC PUSH2 0xAC3 SWAP2 PUSH2 0x41CA JUMP JUMPDEST PUSH2 0xAB8 JUMP JUMPDEST POP RETURNDATASIZE PUSH2 0xBCE JUMP JUMPDEST POP CALLVALUE PUSH2 0x296 JUMPI PUSH1 0x40 CALLDATASIZE PUSH1 0x3 NOT ADD SLT PUSH2 0x296 JUMPI PUSH1 0x4 CALLDATALOAD PUSH2 0xC15 PUSH2 0x3EF9 JUMP JUMPDEST DUP2 DUP4 MSTORE PUSH1 0x20 SWAP2 PUSH1 0x2 DUP4 MSTORE PUSH1 0x40 DUP5 KECCAK256 PUSH1 0xFF PUSH1 0xC DUP3 ADD SLOAD AND PUSH1 0x5 DUP2 LT ISZERO PUSH2 0xD19 JUMPI PUSH2 0xC4F SWAP2 PUSH2 0xC46 PUSH1 0x2 PUSH1 0xD SWAP4 EQ PUSH2 0x4952 JUMP JUMPDEST ADD SLOAD ISZERO ISZERO PUSH2 0x4991 JUMP JUMPDEST DUP1 DUP5 MSTORE PUSH1 0x3 DUP4 MSTORE PUSH1 0x40 DUP5 KECCAK256 PUSH1 0x1 DUP1 PUSH1 0xA0 SHL SUB SWAP1 DUP2 DUP5 AND PUSH1 0x0 MSTORE DUP5 MSTORE PUSH2 0xC7B PUSH1 0xFF PUSH1 0x40 PUSH1 0x0 KECCAK256 SLOAD AND PUSH2 0x49CD JUMP JUMPDEST PUSH1 0xC SLOAD AND DUP4 PUSH1 0x40 MLOAD DUP1 SWAP3 PUSH4 0x7C7A72D PUSH1 0xE0 SHL DUP3 MSTORE DUP2 DUP1 PUSH2 0xC9F DUP9 DUP9 PUSH1 0x4 DUP5 ADD PUSH2 0x4A08 JUMP JUMPDEST SUB SWAP2 GAS STATICCALL SWAP5 DUP6 ISZERO PUSH2 0xD0D JUMPI DUP1 SWAP6 PUSH2 0xCCE JUMPI JUMPDEST POP POP PUSH2 0xCC1 PUSH2 0xCC6 SWAP4 SWAP5 ISZERO PUSH2 0x4A21 JUMP JUMPDEST PUSH2 0x4A7C JUMP JUMPDEST PUSH1 0x40 MLOAD SWAP1 DUP2 MSTORE RETURN JUMPDEST SWAP1 SWAP5 POP DUP4 DUP6 DUP2 RETURNDATASIZE DUP4 GT PUSH2 0xD06 JUMPI JUMPDEST PUSH2 0xCE6 DUP2 DUP4 PUSH2 0x4008 JUMP JUMPDEST DUP2 ADD SUB SLT PUSH2 0x296 JUMPI POP PUSH2 0xCC1 PUSH2 0xCFF PUSH2 0xCC6 SWAP5 SWAP6 PUSH2 0x41CA JUMP JUMPDEST SWAP5 SWAP4 PUSH2 0xCB1 JUMP JUMPDEST POP RETURNDATASIZE PUSH2 0xCDC JUMP JUMPDEST PUSH1 0x40 MLOAD SWAP1 RETURNDATASIZE SWAP1 DUP3 RETURNDATACOPY RETURNDATASIZE SWAP1 REVERT JUMPDEST PUSH4 0x4E487B71 PUSH1 0xE0 SHL DUP7 MSTORE PUSH1 0x21 PUSH1 0x4 MSTORE PUSH1 0x24 DUP7 REVERT JUMPDEST POP CALLVALUE PUSH2 0x296 JUMPI PUSH1 0x40 CALLDATASIZE PUSH1 0x3 NOT ADD SLT PUSH2 0x296 JUMPI PUSH2 0xD76 SWAP1 PUSH1 0x20 PUSH2 0xD4D PUSH2 0x3EF9 JUMP JUMPDEST PUSH1 0x1 DUP1 PUSH1 0xA0 SHL SUB PUSH1 0xC SLOAD AND PUSH1 0x40 MLOAD DUP1 DUP1 SWAP7 DUP2 SWAP5 PUSH4 0x3D1E7BA1 PUSH1 0xE1 SHL DUP4 MSTORE PUSH1 0x4 CALLDATALOAD PUSH1 0x4 DUP5 ADD PUSH2 0x4A08 JUMP JUMPDEST SUB SWAP2 GAS STATICCALL SWAP1 DUP2 ISZERO PUSH2 0xD0D JUMPI SWAP1 PUSH2 0xD92 JUMPI JUMPDEST PUSH1 0x20 SWAP1 PUSH1 0x40 MLOAD SWAP1 DUP2 MSTORE RETURN JUMPDEST POP PUSH1 0x20 DUP2 RETURNDATASIZE DUP3 GT PUSH2 0xDC1 JUMPI JUMPDEST DUP2 PUSH2 0xDAB PUSH1 0x20 SWAP4 DUP4 PUSH2 0x4008 JUMP JUMPDEST DUP2 ADD SUB SLT PUSH2 0xDBC JUMPI PUSH1 0x20 SWAP1 MLOAD PUSH2 0xD87 JUMP JUMPDEST PUSH1 0x0 DUP1 REVERT JUMPDEST RETURNDATASIZE SWAP2 POP PUSH2 0xD9E JUMP JUMPDEST POP CALLVALUE PUSH2 0x296 JUMPI PUSH1 0x20 CALLDATASIZE PUSH1 0x3 NOT ADD SLT PUSH2 0x296 JUMPI DUP1 PUSH1 0x40 SWAP2 PUSH2 0x280 DUP4 MLOAD PUSH2 0xDED DUP2 PUSH2 0x3FB6 JUMP JUMPDEST DUP3 DUP2 MSTORE PUSH1 0x60 PUSH1 0x20 DUP3 ADD MSTORE DUP3 DUP6 DUP3 ADD MSTORE DUP3 PUSH1 0x60 DUP3 ADD MSTORE DUP3 PUSH1 0x80 DUP3 ADD MSTORE DUP3 PUSH1 0xA0 DUP3 ADD MSTORE DUP3 PUSH1 0xC0 DUP3 ADD MSTORE DUP3 PUSH1 0xE0 DUP3 ADD MSTORE DUP3 PUSH2 0x100 DUP3 ADD MSTORE DUP3 PUSH2 0x120 DUP3 ADD MSTORE DUP3 PUSH2 0x140 DUP3 ADD MSTORE DUP3 PUSH2 0x160 DUP3 ADD MSTORE DUP3 PUSH2 0x180 DUP3 ADD MSTORE DUP3 PUSH2 0x1A0 DUP3 ADD MSTORE DUP3 PUSH2 0x1C0 DUP3 ADD MSTORE DUP3 PUSH2 0x1E0 DUP3 ADD MSTORE DUP3 PUSH2 0x200 DUP3 ADD MSTORE DUP3 PUSH2 0x220 DUP3 ADD MSTORE DUP3 PUSH2 0x240 DUP3 ADD MSTORE DUP3 PUSH2 0x260 DUP3 ADD MSTORE ADD MSTORE PUSH1 0x4 CALLDATALOAD DUP2 MSTORE PUSH1 0x2 PUSH1 0x20 MSTORE KECCAK256 PUSH1 0x40 MLOAD SWAP1 PUSH2 0xE88 DUP3 PUSH2 0x3FB6 JUMP JUMPDEST DUP1 SLOAD PUSH1 0x1 PUSH1 0x1 PUSH1 0xA0 SHL SUB AND DUP3 MSTORE PUSH2 0xEA1 PUSH1 0x1 DUP3 ADD PUSH2 0x4080 JUMP JUMPDEST PUSH1 0x20 DUP4 ADD MSTORE PUSH1 0xFF PUSH1 0x2 DUP3 ADD SLOAD AND ISZERO ISZERO PUSH1 0x40 DUP4 ADD MSTORE PUSH1 0x3 DUP2 ADD SLOAD PUSH1 0x60 DUP4 ADD MSTORE PUSH1 0x1 DUP1 PUSH1 0xA0 SHL SUB PUSH1 0x4 DUP3 ADD SLOAD AND PUSH1 0x80 DUP4 ADD MSTORE PUSH1 0x5 DUP2 ADD SLOAD PUSH1 0xA0 DUP4 ADD MSTORE PUSH1 0x6 DUP2 ADD SLOAD PUSH1 0xC0 DUP4 ADD MSTORE PUSH1 0x7 DUP2 ADD SLOAD PUSH1 0xE0 DUP4 ADD MSTORE PUSH1 0x8 DUP2 ADD SLOAD PUSH2 0x100 DUP4 ADD MSTORE PUSH1 0x9 DUP2 ADD SLOAD PUSH2 0x120 DUP4 ADD MSTORE PUSH1 0xA DUP2 ADD SLOAD PUSH2 0x140 DUP4 ADD MSTORE PUSH1 0xB DUP2 ADD SLOAD PUSH2 0x160 DUP4 ADD MSTORE PUSH1 0xFF PUSH1 0xC DUP3 ADD SLOAD AND SWAP1 PUSH1 0x5 DUP3 LT ISZERO PUSH2 0x10DA JUMPI PUSH1 0x12 SWAP2 PUSH2 0x180 DUP5 ADD MSTORE PUSH1 0xD DUP2 ADD SLOAD PUSH2 0x1A0 DUP5 ADD MSTORE PUSH1 0xE DUP2 ADD SLOAD PUSH1 0xFF DUP2 AND ISZERO ISZERO PUSH2 0x1C0 DUP6 ADD MSTORE PUSH2 0xF66 PUSH1 0xFF DUP3 PUSH1 0x8 SHR AND PUSH2 0x1E0 DUP7 ADD PUSH2 0x428B JUMP JUMPDEST PUSH1 0x1 DUP1 PUSH1 0xA0 SHL SUB SWAP1 PUSH1 0x10 SHR AND PUSH2 0x200 DUP5 ADD MSTORE PUSH1 0xF DUP2 ADD SLOAD PUSH2 0x220 DUP5 ADD MSTORE PUSH1 0x10 DUP2 ADD SLOAD PUSH2 0x240 DUP5 ADD MSTORE PUSH1 0xFF PUSH1 0x11 DUP3 ADD SLOAD AND ISZERO ISZERO PUSH2 0x260 DUP5 ADD MSTORE ADD SLOAD PUSH2 0x280 DUP3 ADD MSTORE PUSH1 0x40 MLOAD DUP1 SWAP2 PUSH1 0x20 DUP3 MSTORE PUSH1 0x1 DUP1 PUSH1 0xA0 SHL SUB DUP2 MLOAD AND PUSH1 0x20 DUP4 ADD MSTORE PUSH2 0x280 PUSH2 0xFDC PUSH1 0x20 DUP4 ADD MLOAD PUSH2 0x2A0 PUSH1 0x40 DUP7 ADD MSTORE PUSH2 0x2C0 DUP6 ADD SWAP1 PUSH2 0x4149 JUMP JUMPDEST SWAP2 PUSH1 0x40 DUP2 ADD MLOAD ISZERO ISZERO PUSH1 0x60 DUP6 ADD MSTORE PUSH1 0x60 DUP2 ADD MLOAD PUSH1 0x80 DUP6 ADD MSTORE PUSH1 0x1 DUP1 PUSH1 0xA0 SHL SUB PUSH1 0x80 DUP3 ADD MLOAD AND PUSH1 0xA0 DUP6 ADD MSTORE PUSH1 0xA0 DUP2 ADD MLOAD PUSH1 0xC0 DUP6 ADD MSTORE PUSH1 0xC0 DUP2 ADD MLOAD PUSH1 0xE0 DUP6 ADD MSTORE PUSH1 0xE0 DUP2 ADD MLOAD PUSH2 0x100 DUP6 ADD MSTORE PUSH2 0x100 DUP2 ADD MLOAD PUSH2 0x120 DUP6 ADD MSTORE PUSH2 0x120 DUP2 ADD MLOAD PUSH2 0x140 DUP6 ADD MSTORE PUSH2 0x140 DUP2 ADD MLOAD PUSH2 0x160 DUP6 ADD MSTORE PUSH2 0x160 DUP2 ADD MLOAD PUSH2 0x180 DUP6 ADD MSTORE PUSH2 0x1068 PUSH2 0x180 DUP3 ADD MLOAD PUSH2 0x1A0 DUP7 ADD SWAP1 PUSH2 0x416E JUMP JUMPDEST PUSH2 0x1A0 DUP2 ADD MLOAD PUSH2 0x1C0 DUP6 ADD MSTORE PUSH2 0x1C0 DUP2 ADD MLOAD ISZERO ISZERO PUSH2 0x1E0 DUP6 ADD MSTORE PUSH2 0x1096 PUSH2 0x1E0 DUP3 ADD MLOAD PUSH2 0x200 DUP7 ADD SWAP1 PUSH2 0x417B JUMP JUMPDEST PUSH1 0x1 DUP1 PUSH1 0xA0 SHL SUB PUSH2 0x200 DUP3 ADD MLOAD AND PUSH2 0x220 DUP6 ADD MSTORE PUSH2 0x220 DUP2 ADD MLOAD PUSH2 0x240 DUP6 ADD MSTORE PUSH2 0x240 DUP2 ADD MLOAD PUSH2 0x260 DUP6 ADD MSTORE PUSH2 0x260 DUP2 ADD MLOAD ISZERO ISZERO DUP3 DUP6 ADD MSTORE ADD MLOAD PUSH2 0x2A0 DUP4 ADD MSTORE SUB SWAP1 RETURN JUMPDEST PUSH4 0x4E487B71 PUSH1 0xE0 SHL PUSH1 0x0 MSTORE PUSH1 0x21 PUSH1 0x4 MSTORE PUSH1 0x24 PUSH1 0x0 REVERT JUMPDEST POP CALLVALUE PUSH2 0x296 JUMPI PUSH1 0x20 DUP1 PUSH1 0x3 NOT CALLDATASIZE ADD SLT PUSH2 0x42E JUMPI PUSH1 0x4 CALLDATALOAD SWAP1 PUSH2 0x111C PUSH1 0x1 DUP1 PUSH1 0xA0 SHL SUB PUSH1 0xD SLOAD AND CALLER EQ PUSH2 0x5723 JUMP JUMPDEST DUP2 DUP4 MSTORE PUSH1 0x2 DUP2 MSTORE PUSH1 0xFF PUSH1 0xC PUSH1 0x40 DUP6 KECCAK256 ADD SLOAD AND PUSH1 0x5 DUP2 LT ISZERO PUSH2 0x3B4 JUMPI PUSH1 0x0 DUP1 MLOAD PUSH1 0x20 PUSH2 0x5768 DUP4 CODECOPY DUP2 MLOAD SWAP2 MSTORE SWAP2 PUSH2 0x1155 PUSH1 0x2 PUSH1 0x60 SWAP4 EQ PUSH2 0x4952 JUMP JUMPDEST DUP4 DUP6 MSTORE PUSH1 0x2 DUP2 MSTORE PUSH1 0x0 PUSH1 0x12 PUSH1 0x40 DUP8 KECCAK256 DUP8 DUP2 SSTORE DUP8 PUSH1 0x1 DUP3 ADD PUSH2 0x1176 DUP2 SLOAD PUSH2 0x4046 JUMP JUMPDEST DUP1 PUSH2 0x122D JUMPI JUMPDEST POP POP PUSH1 0x2 DUP3 ADD SSTORE DUP3 PUSH1 0x3 DUP3 ADD SSTORE DUP8 PUSH1 0x4 DUP3 ADD SSTORE DUP3 PUSH1 0x5 DUP3 ADD SSTORE DUP3 PUSH1 0x6 DUP3 ADD SSTORE DUP3 PUSH1 0x7 DUP3 ADD SSTORE DUP3 PUSH1 0x8 DUP3 ADD SSTORE DUP3 PUSH1 0x9 DUP3 ADD SSTORE DUP3 PUSH1 0xA DUP3 ADD SSTORE DUP3 PUSH1 0xB DUP3 ADD SSTORE DUP8 PUSH1 0xC DUP3 ADD SSTORE DUP3 PUSH1 0xD DUP3 ADD SSTORE DUP8 PUSH1 0xE DUP3 ADD SSTORE DUP3 PUSH1 0xF DUP3 ADD SSTORE DUP3 PUSH1 0x10 DUP3 ADD SSTORE DUP8 PUSH1 0x11 DUP3 ADD SSTORE ADD SSTORE DUP4 DUP6 MSTORE PUSH1 0xB DUP2 MSTORE PUSH1 0xFF PUSH1 0x40 DUP7 KECCAK256 SLOAD AND PUSH2 0x121F JUMPI JUMPDEST PUSH1 0x13 PUSH1 0x40 MLOAD SWAP2 DUP1 DUP4 MSTORE DUP3 ADD MSTORE PUSH19 0x14195C9B585B995B9D1B1E481C995B5BDD9959 PUSH1 0x6A SHL PUSH1 0x40 DUP3 ADD MSTORE LOG2 DUP1 RETURN JUMPDEST PUSH2 0x1228 DUP5 PUSH2 0x5629 JUMP JUMPDEST PUSH2 0x11F3 JUMP JUMPDEST PUSH1 0x1F DUP2 GT PUSH1 0x1 EQ PUSH2 0x1246 JUMPI POP DUP5 SWAP2 POP SSTORE JUMPDEST DUP8 CODESIZE DUP1 PUSH2 0x117C JUMP JUMPDEST SWAP1 DUP1 DUP7 SWAP2 DUP5 MSTORE PUSH2 0x1264 PUSH1 0x1F DUP10 DUP7 KECCAK256 SWAP5 ADD PUSH1 0x5 SHR DUP5 ADD PUSH1 0x1 DUP6 ADD PUSH2 0x4297 JUMP JUMPDEST SSTORE SSTORE PUSH2 0x123E JUMP JUMPDEST POP CALLVALUE PUSH2 0x296 JUMPI PUSH1 0x60 CALLDATASIZE PUSH1 0x3 NOT ADD SLT PUSH2 0x296 JUMPI PUSH1 0x44 CALLDATALOAD SWAP1 PUSH1 0x1 PUSH1 0x1 PUSH1 0xA0 SHL SUB DUP1 DUP4 AND DUP4 SUB PUSH2 0xDBC JUMPI PUSH2 0xD76 SWAP3 PUSH1 0x20 SWAP2 PUSH1 0xC SLOAD AND PUSH1 0x40 MLOAD DUP1 DUP1 SWAP7 DUP2 SWAP5 PUSH4 0xDC4CE349 PUSH1 0xE0 SHL DUP4 MSTORE PUSH1 0x24 CALLDATALOAD PUSH1 0x4 CALLDATALOAD PUSH1 0x4 DUP6 ADD PUSH2 0x4A5B JUMP JUMPDEST POP CALLVALUE PUSH2 0x296 JUMPI PUSH1 0x40 CALLDATASIZE PUSH1 0x3 NOT ADD SLT PUSH2 0x296 JUMPI PUSH1 0x40 PUSH2 0x12DA PUSH2 0x3EF9 JUMP JUMPDEST SWAP2 PUSH1 0x4 CALLDATALOAD DUP2 MSTORE PUSH1 0x5 PUSH1 0x20 MSTORE KECCAK256 SWAP1 PUSH1 0x1 DUP1 PUSH1 0xA0 SHL SUB AND PUSH1 0x0 MSTORE PUSH1 0x20 MSTORE PUSH1 0x20 PUSH1 0x40 PUSH1 0x0 KECCAK256 SLOAD PUSH1 0x40 MLOAD SWAP1 DUP2 MSTORE RETURN JUMPDEST POP CALLVALUE PUSH2 0x296 JUMPI PUSH2 0x1314 CALLDATASIZE PUSH2 0x4188 JUMP JUMPDEST SWAP2 SWAP1 DUP2 MSTORE PUSH1 0x6 PUSH1 0x20 MSTORE PUSH1 0x40 DUP2 KECCAK256 SWAP1 DUP2 SLOAD DUP4 LT ISZERO PUSH2 0x296 JUMPI PUSH1 0x20 PUSH2 0x1337 DUP5 DUP5 PUSH2 0x3F8B JUMP JUMPDEST SWAP1 SLOAD PUSH1 0x40 MLOAD PUSH1 0x3 SWAP3 SWAP1 SWAP3 SHL SHR PUSH1 0x1 PUSH1 0x1 PUSH1 0xA0 SHL SUB AND DUP2 MSTORE RETURN JUMPDEST POP CALLVALUE PUSH2 0x296 JUMPI DUP1 PUSH1 0x3 NOT CALLDATASIZE ADD SLT PUSH2 0x296 JUMPI PUSH1 0x20 PUSH1 0x40 MLOAD PUSH2 0x15E DUP2 MSTORE RETURN JUMPDEST POP CALLVALUE PUSH2 0x296 JUMPI PUSH1 0x20 CALLDATASIZE PUSH1 0x3 NOT ADD SLT PUSH2 0x296 JUMPI PUSH1 0x4 CALLDATALOAD DUP1 DUP3 MSTORE PUSH1 0x2 PUSH1 0x20 MSTORE PUSH1 0x40 DUP3 KECCAK256 DUP1 SLOAD PUSH1 0x1 PUSH1 0x1 PUSH1 0xA0 SHL SUB AND CALLER SUB PUSH2 0x1451 JUMPI PUSH1 0xFF PUSH1 0xC DUP3 ADD SLOAD AND PUSH1 0x5 DUP2 LT ISZERO PUSH2 0x3B4 JUMPI SWAP1 PUSH2 0x13BD PUSH1 0x9 SWAP3 ISZERO PUSH2 0x4481 JUMP JUMPDEST ADD SLOAD PUSH2 0xA8BF NOT DUP2 ADD SWAP1 DUP2 GT PUSH2 0x143D JUMPI TIMESTAMP LT ISZERO PUSH2 0x1409 JUMPI PUSH1 0x40 MLOAD PUSH2 0x1406 SWAP2 PUSH2 0x13E3 DUP3 PUSH2 0x3FD2 JUMP JUMPDEST PUSH1 0x11 DUP3 MSTORE PUSH17 0x10DC99585D1BDC8818D85B98D95B1B1959 PUSH1 0x7A SHL PUSH1 0x20 DUP4 ADD MSTORE PUSH2 0x520F JUMP JUMPDEST DUP1 RETURN JUMPDEST PUSH1 0x40 MLOAD PUSH3 0x461BCD PUSH1 0xE5 SHL DUP2 MSTORE PUSH1 0x20 PUSH1 0x4 DUP3 ADD MSTORE PUSH1 0xC PUSH1 0x24 DUP3 ADD MSTORE PUSH12 0x45503A20746F6F206C617465 PUSH1 0xA0 SHL PUSH1 0x44 DUP3 ADD MSTORE PUSH1 0x64 SWAP1 REVERT JUMPDEST PUSH4 0x4E487B71 PUSH1 0xE0 SHL DUP4 MSTORE PUSH1 0x11 PUSH1 0x4 MSTORE PUSH1 0x24 DUP4 REVERT JUMPDEST PUSH1 0x40 MLOAD PUSH3 0x461BCD PUSH1 0xE5 SHL DUP2 MSTORE PUSH1 0x20 PUSH1 0x4 DUP3 ADD MSTORE PUSH1 0xF PUSH1 0x24 DUP3 ADD MSTORE PUSH15 0x22A81D103737BA1031B932B0BA37B9 PUSH1 0x89 SHL PUSH1 0x44 DUP3 ADD MSTORE PUSH1 0x64 SWAP1 REVERT JUMPDEST POP CALLVALUE PUSH2 0x296 JUMPI PUSH2 0x1497 CALLDATASIZE PUSH2 0x4188 JUMP JUMPDEST SWAP2 SWAP1 DUP2 MSTORE PUSH1 0x7 PUSH1 0x20 MSTORE PUSH1 0x40 DUP2 KECCAK256 SWAP1 DUP2 SLOAD DUP4 LT ISZERO PUSH2 0x296 JUMPI PUSH1 0x20 PUSH2 0x1337 DUP5 DUP5 PUSH2 0x3F8B JUMP JUMPDEST POP CALLVALUE PUSH2 0x296 JUMPI PUSH2 0x14C9 CALLDATASIZE PUSH2 0x4188 JUMP JUMPDEST SWAP1 DUP1 DUP4 MSTORE PUSH1 0x20 SWAP2 PUSH1 0x2 DUP4 MSTORE PUSH1 0x40 DUP5 KECCAK256 SWAP3 PUSH1 0xE DUP5 ADD SLOAD PUSH1 0xFF DUP2 PUSH1 0x8 SHR AND PUSH1 0x2 DUP2 LT ISZERO PUSH2 0x580 JUMPI PUSH2 0x1516 SWAP2 PUSH2 0x1500 PUSH1 0x1 PUSH1 0xFF SWAP4 EQ PUSH2 0x46C0 JUMP JUMPDEST PUSH2 0x150F DUP3 PUSH1 0x11 DUP10 ADD SLOAD AND PUSH2 0x4913 JUMP JUMPDEST AND ISZERO PUSH2 0x4704 JUMP JUMPDEST PUSH1 0xE SLOAD PUSH1 0x1 PUSH1 0x1 PUSH1 0xA0 SHL SUB SWAP2 SWAP1 DUP3 AND PUSH2 0x1530 DUP2 ISZERO ISZERO PUSH2 0x4782 JUMP JUMPDEST DUP3 PUSH1 0xF SLOAD AND SWAP1 PUSH2 0x1541 DUP3 ISZERO ISZERO PUSH2 0x47C3 JUMP JUMPDEST DUP5 ISZERO ISZERO DUP1 PUSH2 0x16A4 JUMPI JUMPDEST ISZERO PUSH2 0x166A JUMPI DUP3 PUSH1 0x24 SWAP2 PUSH1 0x40 MLOAD SWAP3 DUP4 DUP1 SWAP3 PUSH4 0x4360AF3D PUSH1 0xE0 SHL DUP3 MSTORE DUP7 PUSH1 0x4 DUP4 ADD MSTORE GAS STATICCALL SWAP3 DUP4 ISZERO PUSH2 0x165F JUMPI DUP9 SWAP4 PUSH2 0x162B JUMPI JUMPDEST POP POP SWAP1 PUSH2 0x158E DUP2 PUSH2 0x159E SWAP4 ADDRESS SWAP1 CALLER SWAP1 PUSH2 0x43A9 JUMP JUMPDEST DUP3 PUSH1 0xF SLOAD AND DUP4 PUSH1 0xE SLOAD AND SWAP1 PUSH2 0x4826 JUMP JUMPDEST PUSH1 0xE SLOAD AND SWAP3 DUP5 PUSH1 0x10 DUP3 ADD SWAP5 DUP6 SLOAD DUP2 EXTCODESIZE ISZERO PUSH2 0x1627 JUMPI DUP3 SWAP2 PUSH1 0x44 DUP4 SWAP3 PUSH1 0x40 MLOAD SWAP5 DUP6 SWAP4 DUP5 SWAP3 PUSH4 0xA6A22B43 PUSH1 0xE0 SHL DUP5 MSTORE PUSH1 0x4 DUP5 ADD MSTORE CALLER PUSH1 0x24 DUP5 ADD MSTORE GAS CALL DUP1 ISZERO PUSH2 0x85B JUMPI PUSH2 0x1613 JUMPI JUMPDEST POP POP PUSH1 0x12 ADD SSTORE CALLER SWAP2 SLOAD SWAP1 PUSH32 0x8764C70BA5E4AE969C50093A5CB46E29238FB82E4B7EB17D22A8102996B01C8A DUP5 DUP1 LOG4 DUP1 RETURN JUMPDEST PUSH2 0x161C SWAP1 PUSH2 0x3FA3 JUMP JUMPDEST PUSH2 0x866 JUMPI DUP5 CODESIZE PUSH2 0x15E2 JUMP JUMPDEST DUP3 DUP1 REVERT JUMPDEST SWAP1 DUP1 SWAP4 POP DUP2 RETURNDATASIZE DUP4 GT PUSH2 0x1658 JUMPI JUMPDEST PUSH2 0x1642 DUP2 DUP4 PUSH2 0x4008 JUMP JUMPDEST DUP2 ADD SUB SLT PUSH2 0xDBC JUMPI PUSH2 0x158E PUSH2 0x159E SWAP3 MLOAD SWAP3 PUSH2 0x157A JUMP JUMPDEST POP RETURNDATASIZE PUSH2 0x1638 JUMP JUMPDEST PUSH1 0x40 MLOAD RETURNDATASIZE DUP11 DUP3 RETURNDATACOPY RETURNDATASIZE SWAP1 REVERT JUMPDEST PUSH1 0x40 MLOAD PUSH3 0x461BCD PUSH1 0xE5 SHL DUP2 MSTORE PUSH1 0x4 DUP2 ADD DUP5 SWAP1 MSTORE PUSH1 0x12 PUSH1 0x24 DUP3 ADD MSTORE PUSH18 0x22A81D1034B73B30B634B21037B83A34B7B7 PUSH1 0x71 SHL PUSH1 0x44 DUP3 ADD MSTORE PUSH1 0x64 SWAP1 REVERT JUMPDEST POP PUSH1 0x3 DUP8 ADD SLOAD DUP6 GT ISZERO PUSH2 0x154A JUMP JUMPDEST POP CALLVALUE PUSH2 0x296 JUMPI PUSH1 0x20 CALLDATASIZE PUSH1 0x3 NOT ADD SLT PUSH2 0x296 JUMPI PUSH2 0x16CC PUSH2 0x3F0F JUMP JUMPDEST PUSH2 0x16D4 PUSH2 0x419E JUMP JUMPDEST PUSH1 0x1 PUSH1 0x1 PUSH1 0xA0 SHL SUB AND PUSH2 0x16E8 DUP2 ISZERO ISZERO PUSH2 0x56E4 JUMP JUMPDEST PUSH1 0xE DUP1 SLOAD PUSH1 0x1 PUSH1 0x1 PUSH1 0xA0 SHL SUB NOT AND SWAP2 SWAP1 SWAP2 OR SWAP1 SSTORE DUP1 RETURN JUMPDEST POP CALLVALUE PUSH2 0x296 JUMPI PUSH1 0x20 CALLDATASIZE PUSH1 0x3 NOT ADD SLT PUSH2 0x296 JUMPI PUSH2 0x1719 PUSH2 0x3F0F JUMP JUMPDEST PUSH2 0x1721 PUSH2 0x419E JUMP JUMPDEST PUSH1 0x1 PUSH1 0x1 PUSH1 0xA0 SHL SUB AND PUSH2 0x1735 DUP2 ISZERO ISZERO PUSH2 0x56E4 JUMP JUMPDEST PUSH1 0xD DUP1 SLOAD PUSH1 0x1 PUSH1 0x1 PUSH1 0xA0 SHL SUB NOT AND SWAP2 SWAP1 SWAP2 OR SWAP1 SSTORE DUP1 RETURN JUMPDEST POP CALLVALUE PUSH2 0x296 JUMPI PUSH1 0x20 CALLDATASIZE PUSH1 0x3 NOT ADD SLT PUSH2 0x296 JUMPI PUSH1 0x4 CALLDATALOAD DUP2 MSTORE PUSH1 0x2 PUSH1 0x20 MSTORE PUSH1 0x40 SWAP1 KECCAK256 DUP1 SLOAD PUSH1 0x1 PUSH1 0x1 PUSH1 0xA0 SHL SUB AND SWAP1 PUSH2 0x1784 PUSH1 0x1 DUP3 ADD PUSH2 0x4080 JUMP JUMPDEST PUSH1 0xC0 MSTORE PUSH1 0x2 DUP2 ADD SLOAD PUSH1 0xFF AND PUSH2 0x120 MSTORE PUSH1 0x3 DUP2 ADD SLOAD PUSH2 0x100 MSTORE PUSH1 0x1 PUSH1 0xA0 SHL PUSH1 0x1 SWAP1 SUB PUSH1 0x4 DUP3 ADD SLOAD AND SWAP2 PUSH1 0x5 DUP3 ADD SLOAD PUSH1 0x6 DUP4 ADD SLOAD PUSH1 0x7 DUP5 ADD SLOAD PUSH1 0x8 DUP6 ADD SLOAD PUSH1 0x9 DUP7 ADD SLOAD PUSH1 0xA DUP8 ADD SLOAD SWAP1 PUSH1 0xB DUP9 ADD SLOAD SWAP3 PUSH1 0xC DUP10 ADD SLOAD PUSH1 0xFF AND SWAP5 PUSH1 0xD DUP11 ADD SLOAD SWAP7 PUSH1 0xE DUP12 ADD SLOAD SWAP9 PUSH1 0xF DUP13 ADD SLOAD SWAP11 PUSH1 0x10 DUP14 ADD SLOAD SWAP13 PUSH1 0x11 DUP2 ADD SLOAD PUSH1 0xFF AND PUSH1 0xE0 MSTORE PUSH1 0x12 ADD SLOAD PUSH1 0xA0 MSTORE PUSH1 0x40 MLOAD DUP1 PUSH1 0x80 MSTORE MSTORE PUSH2 0x2A0 DUP1 PUSH1 0x80 MLOAD PUSH1 0x20 ADD MSTORE PUSH1 0x80 MLOAD ADD PUSH1 0xC0 MLOAD SWAP1 PUSH2 0x1828 SWAP2 PUSH2 0x4149 JUMP JUMPDEST SWAP13 PUSH2 0x120 MLOAD ISZERO ISZERO PUSH1 0x80 MLOAD PUSH1 0x40 ADD MSTORE PUSH2 0x100 MLOAD PUSH1 0x80 MLOAD PUSH1 0x60 ADD MSTORE PUSH1 0x80 MLOAD PUSH1 0x80 ADD MSTORE PUSH1 0x80 MLOAD PUSH1 0xA0 ADD MSTORE PUSH1 0x80 MLOAD PUSH1 0xC0 ADD MSTORE PUSH1 0x80 MLOAD PUSH1 0xE0 ADD MSTORE PUSH1 0x80 MLOAD PUSH2 0x100 ADD MSTORE PUSH1 0x80 MLOAD PUSH2 0x120 ADD MSTORE PUSH1 0x80 MLOAD PUSH2 0x140 ADD MSTORE PUSH1 0x80 MLOAD PUSH2 0x160 ADD MSTORE PUSH1 0x80 MLOAD PUSH2 0x180 ADD PUSH2 0x188D SWAP2 PUSH2 0x416E JUMP JUMPDEST PUSH1 0x80 MLOAD PUSH2 0x1A0 ADD MSTORE PUSH1 0xFF DUP2 AND ISZERO ISZERO PUSH1 0x80 MLOAD PUSH2 0x1C0 ADD MSTORE PUSH1 0x80 MLOAD PUSH2 0x1E0 ADD DUP2 PUSH1 0x8 SHR PUSH1 0xFF AND SWAP1 PUSH2 0x18BB SWAP2 PUSH2 0x417B JUMP JUMPDEST PUSH1 0x1 PUSH1 0xA0 SHL PUSH1 0x1 SWAP1 SUB SWAP1 PUSH1 0x10 SHR AND PUSH1 0x80 MLOAD PUSH2 0x200 ADD MSTORE PUSH1 0x80 MLOAD PUSH2 0x220 ADD MSTORE PUSH1 0x80 MLOAD PUSH2 0x240 ADD MSTORE PUSH1 0xE0 MLOAD ISZERO ISZERO PUSH1 0x80 MLOAD PUSH2 0x260 ADD MSTORE PUSH1 0xA0 MLOAD PUSH1 0x80 MLOAD PUSH2 0x280 ADD MSTORE PUSH1 0x80 MLOAD DUP1 SWAP2 SUB SWAP1 RETURN JUMPDEST POP CALLVALUE PUSH2 0x296 JUMPI PUSH1 0x20 CALLDATASIZE PUSH1 0x3 NOT ADD SLT PUSH2 0x296 JUMPI PUSH2 0x191C PUSH2 0x3F0F JUMP JUMPDEST PUSH2 0x1924 PUSH2 0x419E JUMP JUMPDEST PUSH1 0x1 PUSH1 0x1 PUSH1 0xA0 SHL SUB AND PUSH2 0x1938 DUP2 ISZERO ISZERO PUSH2 0x56E4 JUMP JUMPDEST PUSH1 0xF DUP1 SLOAD PUSH1 0x1 PUSH1 0x1 PUSH1 0xA0 SHL SUB NOT AND SWAP2 SWAP1 SWAP2 OR SWAP1 SSTORE DUP1 RETURN JUMPDEST POP CALLVALUE PUSH2 0x296 JUMPI PUSH1 0x20 CALLDATASIZE PUSH1 0x3 NOT ADD SLT PUSH2 0x296 JUMPI PUSH1 0x40 PUSH1 0x20 SWAP2 PUSH1 0x4 CALLDATALOAD DUP2 MSTORE PUSH1 0x7 DUP4 MSTORE KECCAK256 SLOAD PUSH1 0x40 MLOAD SWAP1 DUP2 MSTORE RETURN JUMPDEST POP CALLVALUE PUSH2 0x296 JUMPI DUP1 PUSH1 0x3 NOT CALLDATASIZE ADD SLT PUSH2 0x296 JUMPI PUSH1 0xD SLOAD PUSH1 0x40 MLOAD PUSH1 0x1 PUSH1 0x1 PUSH1 0xA0 SHL SUB SWAP1 SWAP2 AND DUP2 MSTORE PUSH1 0x20 SWAP1 RETURN JUMPDEST POP CALLVALUE PUSH2 0x296 JUMPI PUSH1 0x20 DUP1 PUSH1 0x3 NOT CALLDATASIZE ADD SLT PUSH2 0x42E JUMPI PUSH1 0x4 CALLDATALOAD SWAP1 DUP2 DUP4 MSTORE PUSH1 0x2 DUP2 MSTORE PUSH1 0x40 DUP4 KECCAK256 SWAP1 PUSH1 0xE DUP3 ADD SWAP2 DUP3 SLOAD PUSH1 0xFF DUP2 PUSH1 0x8 SHR AND PUSH1 0x2 DUP2 LT ISZERO PUSH2 0x580 JUMPI PUSH2 0x1B6D JUMPI PUSH1 0xC DUP3 ADD SWAP1 DUP2 SLOAD PUSH1 0xFF DUP2 AND PUSH1 0x5 DUP2 LT ISZERO PUSH2 0x1B59 JUMPI PUSH1 0x1 PUSH2 0x1A00 SWAP2 EQ PUSH2 0x462D JUMP JUMPDEST PUSH2 0x1A0D PUSH1 0xFF DUP4 AND ISZERO PUSH2 0x4669 JUMP JUMPDEST PUSH1 0xB DUP5 ADD SLOAD TIMESTAMP LT PUSH2 0x1B24 JUMPI PUSH1 0x40 MLOAD PUSH4 0x3FABE5A3 PUSH1 0xE2 SHL DUP2 MSTORE PUSH1 0xA0 DUP2 PUSH1 0x4 DUP2 PUSH1 0x10 DUP8 SWAP1 SHR PUSH1 0x1 PUSH1 0x1 PUSH1 0xA0 SHL SUB AND GAS STATICCALL SWAP1 DUP2 ISZERO PUSH2 0x1B19 JUMPI DUP10 SWAP2 PUSH2 0x1AB1 JUMPI JUMPDEST POP PUSH1 0xF DUP6 ADD SLOAD PUSH1 0x0 DUP1 MLOAD PUSH1 0x20 PUSH2 0x57A8 DUP4 CODECOPY DUP2 MLOAD SWAP2 MSTORE SWAP8 PUSH1 0x2 SWAP5 SWAP4 SWAP3 SWAP1 SWAP2 GT PUSH2 0x1AA6 JUMPI PUSH1 0xFF PUSH1 0xD PUSH1 0x1 SWAP8 JUMPDEST ADD SWAP7 AND DUP7 SSTORE PUSH1 0x1 PUSH1 0xFF NOT DUP1 SWAP5 AND OR SWAP1 SSTORE AND OR SWAP1 SSTORE PUSH2 0x1A90 DUP5 PUSH2 0x4D4B JUMP JUMPDEST PUSH2 0x1A9B DUP2 SLOAD DUP6 PUSH2 0x5588 JUMP JUMPDEST SLOAD PUSH1 0x40 MLOAD SWAP1 DUP2 MSTORE LOG2 DUP1 RETURN JUMPDEST PUSH1 0xFF PUSH1 0xD DUP6 SWAP8 PUSH2 0x1A73 JUMP JUMPDEST SWAP3 SWAP2 SWAP1 POP PUSH1 0xA0 DUP4 RETURNDATASIZE DUP3 GT PUSH2 0x1B11 JUMPI JUMPDEST DUP2 PUSH2 0x1ACD PUSH1 0xA0 SWAP4 DUP4 PUSH2 0x4008 JUMP JUMPDEST DUP2 ADD SUB SLT PUSH2 0x1B0D JUMPI PUSH1 0x0 DUP1 MLOAD PUSH1 0x20 PUSH2 0x57A8 DUP4 CODECOPY DUP2 MLOAD SWAP2 MSTORE SWAP7 DUP4 PUSH2 0x1AF1 PUSH1 0x2 SWAP6 PUSH2 0x46AC JUMP JUMPDEST POP PUSH2 0x1B02 PUSH1 0x80 DUP10 DUP4 ADD MLOAD SWAP3 ADD PUSH2 0x46AC JUMP JUMPDEST POP SWAP2 SWAP3 SWAP4 POP SWAP7 PUSH2 0x1A49 JUMP JUMPDEST DUP9 DUP1 REVERT JUMPDEST RETURNDATASIZE SWAP2 POP PUSH2 0x1AC0 JUMP JUMPDEST PUSH1 0x40 MLOAD RETURNDATASIZE DUP12 DUP3 RETURNDATACOPY RETURNDATASIZE SWAP1 REVERT JUMPDEST PUSH1 0x40 MLOAD PUSH3 0x461BCD PUSH1 0xE5 SHL DUP2 MSTORE PUSH1 0x4 DUP2 ADD DUP7 SWAP1 MSTORE PUSH1 0xD PUSH1 0x24 DUP3 ADD MSTORE PUSH13 0x45503A20746F6F206561726C79 PUSH1 0x98 SHL PUSH1 0x44 DUP3 ADD MSTORE PUSH1 0x64 SWAP1 REVERT JUMPDEST PUSH4 0x4E487B71 PUSH1 0xE0 SHL DUP10 MSTORE PUSH1 0x21 PUSH1 0x4 MSTORE PUSH1 0x24 DUP10 REVERT JUMPDEST PUSH1 0x40 MLOAD PUSH3 0x461BCD PUSH1 0xE5 SHL DUP2 MSTORE PUSH1 0x4 DUP2 ADD DUP5 SWAP1 MSTORE PUSH1 0x12 PUSH1 0x24 DUP3 ADD MSTORE PUSH18 0x11540E881B9BDD0814149250D157D1915151 PUSH1 0x72 SHL PUSH1 0x44 DUP3 ADD MSTORE PUSH1 0x64 SWAP1 REVERT JUMPDEST POP CALLVALUE PUSH2 0x296 JUMPI PUSH1 0x40 CALLDATASIZE PUSH1 0x3 NOT ADD SLT PUSH2 0x296 JUMPI PUSH2 0x1BC1 PUSH2 0x3F0F JUMP JUMPDEST PUSH1 0x1 PUSH1 0x1 PUSH1 0xA0 SHL SUB AND DUP2 MSTORE PUSH1 0x8 PUSH1 0x20 MSTORE PUSH1 0x40 DUP2 KECCAK256 DUP1 SLOAD PUSH1 0x24 CALLDATALOAD SWAP3 SWAP1 DUP4 LT ISZERO PUSH2 0x296 JUMPI PUSH1 0x20 PUSH2 0x1BEF DUP5 DUP5 PUSH2 0x3F8B JUMP JUMPDEST SWAP1 SLOAD PUSH1 0x40 MLOAD SWAP2 PUSH1 0x3 SHL SHR DUP2 MSTORE RETURN JUMPDEST POP CALLVALUE PUSH2 0x296 JUMPI DUP1 PUSH1 0x3 NOT CALLDATASIZE ADD SLT PUSH2 0x296 JUMPI PUSH1 0x20 PUSH1 0x1 SLOAD PUSH1 0x40 MLOAD SWAP1 DUP2 MSTORE RETURN JUMPDEST POP CALLVALUE PUSH2 0x296 JUMPI DUP1 PUSH1 0x3 NOT CALLDATASIZE ADD SLT PUSH2 0x296 JUMPI SLOAD PUSH1 0x40 MLOAD PUSH1 0x1 PUSH1 0x1 PUSH1 0xA0 SHL SUB SWAP1 SWAP2 AND DUP2 MSTORE PUSH1 0x20 SWAP1 RETURN JUMPDEST POP CALLVALUE PUSH2 0x296 JUMPI PUSH1 0x60 CALLDATASIZE PUSH1 0x3 NOT ADD SLT PUSH2 0x296 JUMPI PUSH1 0x44 CALLDATALOAD PUSH1 0x4 CALLDATALOAD PUSH1 0x24 DUP1 CALLDATALOAD SWAP1 PUSH1 0x1 PUSH1 0x1 PUSH1 0x40 SHL SUB DUP1 DUP6 GT PUSH2 0x5C3 JUMPI CALLDATASIZE PUSH1 0x23 DUP7 ADD SLT ISZERO PUSH2 0x5C3 JUMPI DUP5 PUSH1 0x4 ADD CALLDATALOAD SWAP1 DUP2 GT PUSH2 0x5C3 JUMPI CALLDATASIZE DUP3 DUP3 DUP8 ADD ADD GT PUSH2 0x5C3 JUMPI DUP4 DUP7 MSTORE PUSH1 0x20 SWAP5 PUSH1 0x2 DUP7 MSTORE PUSH1 0x40 DUP8 KECCAK256 SWAP3 PUSH1 0xE DUP5 ADD SLOAD PUSH1 0xFF DUP2 PUSH1 0x8 SHR AND PUSH1 0x2 DUP2 LT ISZERO PUSH2 0x1F61 JUMPI PUSH1 0x1 PUSH2 0x1CC0 SWAP2 EQ PUSH2 0x46C0 JUMP JUMPDEST PUSH1 0xFF PUSH1 0xC DUP7 ADD SLOAD AND PUSH1 0x5 DUP2 LT ISZERO PUSH2 0x1F61 JUMPI PUSH2 0x1CE3 SWAP2 PUSH2 0x150F PUSH1 0x1 PUSH1 0xFF SWAP4 EQ PUSH2 0x462D JUMP JUMPDEST PUSH1 0x11 DUP5 ADD SWAP5 PUSH2 0x1CF6 PUSH1 0xFF DUP8 SLOAD AND ISZERO PUSH2 0x473F JUMP JUMPDEST DUP5 SLOAD PUSH1 0x1 PUSH1 0x1 PUSH1 0xA0 SHL SUB SWAP4 SWAP1 DUP5 AND CALLER EQ PUSH2 0x1F21 JUMPI DUP8 DUP11 MSTORE PUSH1 0x3 DUP10 MSTORE PUSH1 0x40 DUP11 KECCAK256 CALLER PUSH1 0x0 MSTORE DUP10 MSTORE PUSH1 0xFF PUSH1 0x40 PUSH1 0x0 KECCAK256 SLOAD AND ISZERO PUSH2 0x1EE7 JUMPI DUP10 DUP4 SWAP2 DUP4 ISZERO ISZERO DUP1 PUSH2 0x1ED9 JUMPI JUMPDEST PUSH2 0x1D3E SWAP1 PUSH2 0x44BE JUMP JUMPDEST DUP6 PUSH1 0xE SLOAD AND SWAP6 PUSH2 0x1D4F DUP8 ISZERO ISZERO PUSH2 0x4782 JUMP JUMPDEST DUP12 DUP2 PUSH1 0xF SLOAD AND SWAP8 PUSH2 0x1D61 DUP10 ISZERO ISZERO PUSH2 0x47C3 JUMP JUMPDEST PUSH1 0x40 MLOAD SWAP8 DUP9 DUP1 SWAP3 PUSH4 0x4360AF3D PUSH1 0xE0 SHL DUP3 MSTORE DUP12 PUSH1 0x4 DUP4 ADD MSTORE GAS STATICCALL DUP1 ISZERO PUSH2 0x1ECE JUMPI DUP13 SWAP8 DUP10 SWAP8 DUP6 SWAP3 PUSH2 0x1E90 JUMPI JUMPDEST POP DUP2 PUSH2 0x158E PUSH2 0x1E13 SWAP5 SWAP4 PUSH2 0x1DA2 SWAP4 ADDRESS SWAP1 CALLER SWAP1 PUSH2 0x43A9 JUMP JUMPDEST PUSH1 0x40 MLOAD SWAP6 DUP13 DUP10 DUP9 ADD MSTORE PUSH1 0x40 DUP8 ADD MSTORE PUSH1 0x40 DUP7 MSTORE PUSH2 0x1DBD DUP7 PUSH2 0x3FED JUMP JUMPDEST PUSH1 0xE SLOAD AND SWAP5 PUSH1 0x84 DUP6 PUSH1 0x40 MLOAD SWAP11 DUP12 SWAP10 DUP11 SWAP9 DUP10 SWAP8 PUSH4 0xABDC5DCD PUSH1 0xE0 SHL DUP10 MSTORE PUSH1 0x60 PUSH1 0x4 DUP11 ADD MSTORE DUP3 PUSH1 0x64 DUP11 ADD MSTORE ADD DUP5 DUP9 ADD CALLDATACOPY DUP7 DUP4 DUP3 DUP9 ADD ADD MSTORE PUSH1 0x1F DUP1 NOT SWAP2 ADD AND DUP6 ADD SWAP1 CALLER SWAP1 DUP7 ADD MSTORE PUSH1 0x80 DUP6 DUP3 SUB ADD PUSH1 0x44 DUP7 ADD MSTORE ADD SWAP1 PUSH2 0x4149 JUMP JUMPDEST SUB SWAP3 GAS CALL SWAP5 DUP6 ISZERO PUSH2 0x5CE JUMPI DUP7 SWAP6 PUSH2 0x1E5F JUMPI JUMPDEST POP POP PUSH1 0x10 ADD DUP4 SWAP1 SSTORE DUP1 SLOAD PUSH1 0xFF NOT AND PUSH1 0x1 OR SWAP1 SSTORE PUSH32 0xC92F993487C6D961B60FF2A81386DFF5CC620CD4AED9CDDABE26500391655E82 DUP4 DUP1 LOG3 DUP1 RETURN JUMPDEST SWAP1 DUP1 SWAP6 POP DUP2 RETURNDATASIZE DUP4 GT PUSH2 0x1E89 JUMPI JUMPDEST PUSH2 0x1E76 DUP2 DUP4 PUSH2 0x4008 JUMP JUMPDEST DUP2 ADD SUB SLT PUSH2 0x866 JUMPI PUSH1 0x10 SWAP4 MLOAD SWAP4 CODESIZE PUSH2 0x1E25 JUMP JUMPDEST POP RETURNDATASIZE PUSH2 0x1E6C JUMP JUMPDEST SWAP5 POP SWAP8 DUP1 SWAP3 SWAP8 POP DUP5 SWAP2 POP RETURNDATASIZE DUP4 GT PUSH2 0x1EC7 JUMPI JUMPDEST PUSH2 0x1EAC DUP2 DUP4 PUSH2 0x4008 JUMP JUMPDEST DUP2 ADD SUB SLT PUSH2 0xDBC JUMPI SWAP1 MLOAD DUP11 SWAP6 DUP8 SWAP6 DUP14 SWAP4 SWAP3 SWAP1 SWAP2 PUSH2 0x1DA2 PUSH2 0x1D8B JUMP JUMPDEST POP RETURNDATASIZE PUSH2 0x1EA2 JUMP JUMPDEST PUSH1 0x40 MLOAD RETURNDATASIZE DUP6 DUP3 RETURNDATACOPY RETURNDATASIZE SWAP1 REVERT JUMPDEST POP PUSH1 0x3 DUP9 ADD SLOAD DUP5 GT ISZERO PUSH2 0x1D35 JUMP JUMPDEST PUSH1 0x40 MLOAD PUSH3 0x461BCD PUSH1 0xE5 SHL DUP2 MSTORE PUSH1 0x4 DUP2 ADD DUP11 SWAP1 MSTORE PUSH1 0x13 DUP2 DUP6 ADD MSTORE PUSH19 0x45503A206D7573742068617665207374616B65 PUSH1 0x68 SHL PUSH1 0x44 DUP3 ADD MSTORE PUSH1 0x64 SWAP1 REVERT JUMPDEST PUSH1 0x40 MLOAD PUSH3 0x461BCD PUSH1 0xE5 SHL DUP2 MSTORE PUSH1 0x4 DUP2 ADD DUP11 SWAP1 MSTORE PUSH1 0x19 DUP2 DUP6 ADD MSTORE PUSH25 0x11540E8818DC99585D1BDC8818D85B9B9BDD08185CDCD95C9D PUSH1 0x3A SHL PUSH1 0x44 DUP3 ADD MSTORE PUSH1 0x64 SWAP1 REVERT JUMPDEST PUSH4 0x4E487B71 PUSH1 0xE0 SHL DUP11 MSTORE PUSH1 0x21 PUSH1 0x4 MSTORE DUP3 DUP11 REVERT JUMPDEST POP CALLVALUE PUSH2 0x296 JUMPI PUSH1 0x20 CALLDATASIZE PUSH1 0x3 NOT ADD SLT PUSH2 0x296 JUMPI PUSH1 0x4 CALLDATALOAD DUP1 DUP3 MSTORE PUSH1 0x2 PUSH1 0x20 MSTORE PUSH1 0x40 DUP3 KECCAK256 PUSH1 0xFF PUSH1 0xE DUP3 ADD SLOAD PUSH1 0x8 SHR AND PUSH1 0x2 DUP2 LT ISZERO PUSH2 0x3B4 JUMPI PUSH1 0x1 PUSH2 0x1FB5 SWAP2 EQ PUSH2 0x46C0 JUMP JUMPDEST PUSH1 0xFF PUSH1 0xC DUP3 ADD SLOAD AND PUSH1 0x5 DUP2 LT ISZERO PUSH2 0x3B4 JUMPI PUSH2 0x1FF4 SWAP2 PUSH2 0x1FD8 PUSH1 0x1 PUSH1 0xA SWAP4 EQ PUSH2 0x462D JUMP JUMPDEST PUSH2 0x1FE9 PUSH1 0xFF PUSH1 0x11 DUP4 ADD SLOAD AND ISZERO PUSH2 0x473F JUMP JUMPDEST ADD SLOAD PUSH1 0x1 SLOAD SWAP1 PUSH2 0x4259 JUMP JUMPDEST TIMESTAMP LT PUSH2 0x2049 JUMPI PUSH1 0x40 MLOAD PUSH2 0x1406 SWAP2 PUSH2 0x200A DUP3 PUSH2 0x3FED JUMP JUMPDEST PUSH1 0x27 DUP3 MSTORE PUSH32 0x4E6F20617373657274696F6E206D61646520E2809420726566756E6473206176 PUSH1 0x20 DUP4 ADD MSTORE PUSH7 0x61696C61626C65 PUSH1 0xC8 SHL PUSH1 0x40 DUP4 ADD MSTORE PUSH2 0x520F JUMP JUMPDEST PUSH1 0x40 MLOAD PUSH3 0x461BCD PUSH1 0xE5 SHL DUP2 MSTORE PUSH1 0x20 PUSH1 0x4 DUP3 ADD MSTORE PUSH1 0x17 PUSH1 0x24 DUP3 ADD MSTORE PUSH23 0x45503A20677261636520706572696F6420616374697665 PUSH1 0x48 SHL PUSH1 0x44 DUP3 ADD MSTORE PUSH1 0x64 SWAP1 REVERT JUMPDEST POP CALLVALUE PUSH2 0x296 JUMPI PUSH2 0xD76 SWAP1 PUSH1 0x20 PUSH2 0x209D CALLDATASIZE PUSH2 0x3F25 JUMP JUMPDEST PUSH1 0xC SLOAD PUSH1 0x40 MLOAD PUSH4 0x423E7BC1 PUSH1 0xE1 SHL DUP2 MSTORE SWAP7 DUP8 SWAP5 PUSH1 0x1 PUSH1 0x1 PUSH1 0xA0 SHL SUB SWAP1 SWAP3 AND SWAP4 DUP6 SWAP4 DUP5 SWAP4 SWAP1 SWAP2 SWAP1 PUSH1 0x4 DUP6 ADD PUSH2 0x460D JUMP JUMPDEST POP CALLVALUE PUSH2 0x296 JUMPI PUSH1 0x20 CALLDATASIZE PUSH1 0x3 NOT ADD SLT PUSH2 0x296 JUMPI PUSH1 0x4 CALLDATALOAD PUSH2 0x20E9 PUSH2 0x419E JUMP JUMPDEST PUSH2 0xE10 DUP2 LT PUSH2 0x20F8 JUMPI PUSH1 0x1 SSTORE DUP1 RETURN JUMPDEST PUSH1 0x40 MLOAD PUSH3 0x461BCD PUSH1 0xE5 SHL DUP2 MSTORE PUSH1 0x20 PUSH1 0x4 DUP3 ADD MSTORE PUSH1 0xD PUSH1 0x24 DUP3 ADD MSTORE PUSH13 0x11540E881D1BDBC81CDA1BDC9D PUSH1 0x9A SHL PUSH1 0x44 DUP3 ADD MSTORE PUSH1 0x64 SWAP1 REVERT JUMPDEST POP CALLVALUE PUSH2 0x296 JUMPI PUSH1 0x20 CALLDATASIZE PUSH1 0x3 NOT ADD SLT PUSH2 0x296 JUMPI PUSH1 0x4 CALLDATALOAD DUP1 DUP3 MSTORE PUSH1 0x2 PUSH1 0x20 MSTORE PUSH1 0x40 DUP3 KECCAK256 SWAP1 PUSH1 0xFF PUSH1 0xC DUP4 ADD SLOAD AND PUSH1 0x5 DUP2 LT ISZERO PUSH2 0x3B4 JUMPI PUSH1 0x1 PUSH2 0x216C SWAP2 EQ PUSH2 0x462D JUMP JUMPDEST PUSH1 0xB DUP3 ADD SLOAD TIMESTAMP LT PUSH2 0x21C3 JUMPI PUSH2 0x218B PUSH1 0xFF PUSH1 0xE PUSH2 0x1406 SWAP5 ADD SLOAD AND ISZERO PUSH2 0x4669 JUMP JUMPDEST PUSH1 0x40 MLOAD SWAP1 PUSH2 0x2198 DUP3 PUSH2 0x3FD2 JUMP JUMPDEST PUSH1 0x19 DUP3 MSTORE PUSH25 0x14995CDBDB1D5D1A5BDB881C195C9A5BD908195E1C1A5C9959 PUSH1 0x3A SHL PUSH1 0x20 DUP4 ADD MSTORE PUSH2 0x520F JUMP JUMPDEST PUSH1 0x40 MLOAD PUSH3 0x461BCD PUSH1 0xE5 SHL DUP2 MSTORE PUSH1 0x20 PUSH1 0x4 DUP3 ADD MSTORE PUSH1 0x1C PUSH1 0x24 DUP3 ADD MSTORE PUSH28 0x45503A207265736F6C7574696F6E20706572696F6420616374697665 PUSH1 0x20 SHL PUSH1 0x44 DUP3 ADD MSTORE PUSH1 0x64 SWAP1 REVERT JUMPDEST POP CALLVALUE PUSH2 0x296 JUMPI DUP1 PUSH1 0x3 NOT CALLDATASIZE ADD SLT PUSH2 0x296 JUMPI PUSH2 0x2220 PUSH2 0x419E JUMP JUMPDEST PUSH1 0x0 DUP1 SLOAD PUSH1 0x1 PUSH1 0x1 PUSH1 0xA0 SHL SUB NOT DUP2 AND DUP3 SSTORE PUSH1 0x1 PUSH1 0x1 PUSH1 0xA0 SHL SUB AND PUSH1 0x0 DUP1 MLOAD PUSH1 0x20 PUSH2 0x5788 DUP4 CODECOPY DUP2 MLOAD SWAP2 MSTORE DUP3 DUP1 LOG3 DUP1 RETURN JUMPDEST POP CALLVALUE PUSH2 0x296 JUMPI PUSH1 0x20 DUP1 PUSH1 0x3 NOT CALLDATASIZE ADD SLT PUSH2 0x42E JUMPI PUSH1 0x4 CALLDATALOAD DUP3 MSTORE PUSH1 0x6 DUP2 MSTORE PUSH1 0x40 DUP3 KECCAK256 PUSH1 0x40 MLOAD SWAP3 DUP4 DUP4 DUP4 SLOAD SWAP2 DUP3 DUP2 MSTORE ADD SWAP1 DUP2 SWAP4 DUP4 MSTORE DUP5 DUP4 KECCAK256 SWAP1 DUP4 JUMPDEST DUP2 DUP2 LT PUSH2 0x22E4 JUMPI POP POP POP DUP5 PUSH2 0x229D SWAP2 SUB DUP6 PUSH2 0x4008 JUMP JUMPDEST PUSH1 0x40 MLOAD SWAP4 DUP4 DUP6 SWAP5 DUP6 ADD SWAP2 DUP2 DUP7 MSTORE MLOAD DUP1 SWAP3 MSTORE PUSH1 0x40 DUP6 ADD SWAP4 SWAP3 JUMPDEST DUP3 DUP2 LT PUSH2 0x22C4 JUMPI POP POP POP POP SUB SWAP1 RETURN JUMPDEST DUP4 MLOAD PUSH1 0x1 PUSH1 0x1 PUSH1 0xA0 SHL SUB AND DUP6 MSTORE DUP7 SWAP6 POP SWAP4 DUP2 ADD SWAP4 SWAP3 DUP2 ADD SWAP3 PUSH1 0x1 ADD PUSH2 0x22B5 JUMP JUMPDEST DUP3 SLOAD PUSH1 0x1 PUSH1 0x1 PUSH1 0xA0 SHL SUB AND DUP5 MSTORE SWAP3 DUP7 ADD SWAP3 PUSH1 0x1 SWAP3 DUP4 ADD SWAP3 ADD PUSH2 0x2287 JUMP JUMPDEST POP CALLVALUE PUSH2 0x296 JUMPI PUSH1 0x20 SWAP1 DUP2 PUSH1 0x3 NOT CALLDATASIZE ADD SLT PUSH2 0x296 JUMPI PUSH1 0x4 CALLDATALOAD DUP1 DUP3 MSTORE PUSH1 0x2 DUP4 MSTORE PUSH1 0x40 DUP3 KECCAK256 SWAP3 PUSH1 0xE DUP5 ADD DUP1 SLOAD PUSH1 0xFF DUP2 PUSH1 0x8 SHR AND PUSH1 0x2 DUP2 LT ISZERO PUSH2 0xD19 JUMPI PUSH1 0x1 PUSH2 0x2346 SWAP2 EQ PUSH2 0x46C0 JUMP JUMPDEST PUSH2 0x2356 PUSH1 0xFF PUSH1 0x11 DUP9 ADD SLOAD AND PUSH2 0x4913 JUMP JUMPDEST PUSH2 0x2363 PUSH1 0xFF DUP3 AND ISZERO PUSH2 0x4704 JUMP JUMPDEST PUSH1 0xE SLOAD PUSH1 0x10 DUP8 ADD SLOAD PUSH1 0x40 MLOAD PUSH4 0xE39DFD7F PUSH1 0xE0 SHL DUP2 MSTORE PUSH1 0x4 DUP2 ADD DUP3 SWAP1 MSTORE SWAP1 SWAP3 SWAP2 DUP8 SWAP1 DUP3 SWAP1 PUSH1 0x24 SWAP1 DUP3 SWAP1 PUSH1 0x1 PUSH1 0x1 PUSH1 0xA0 SHL SUB AND GAS STATICCALL SWAP3 DUP4 ISZERO PUSH2 0x897 JUMPI DUP8 SWAP2 DUP9 SWAP5 PUSH2 0x2520 JUMPI JUMPDEST POP DUP7 PUSH32 0x1BCFC076833DB7A342B2B4213F01D2341DE157027E6A14CB082CC770513937C DUP8 PUSH1 0x40 MLOAD DUP6 ISZERO ISZERO DUP2 MSTORE LOG3 ISZERO PUSH2 0x2484 JUMPI POP PUSH1 0x40 DUP2 DUP1 MLOAD DUP2 ADD SUB SLT PUSH2 0x866 JUMPI PUSH1 0x40 ADD MLOAD SWAP1 DUP2 ISZERO ISZERO DUP1 PUSH2 0x2476 JUMPI JUMPDEST ISZERO PUSH2 0x2434 JUMPI PUSH1 0x2 PUSH1 0xC DUP8 PUSH1 0xD PUSH1 0x0 DUP1 MLOAD PUSH1 0x20 PUSH2 0x57A8 DUP4 CODECOPY DUP2 MLOAD SWAP2 MSTORE SWAP8 SWAP9 SWAP10 ADD SWAP5 DUP6 SSTORE PUSH1 0xFF NOT SWAP4 PUSH1 0x1 DUP6 DUP3 SLOAD AND OR SWAP1 SSTORE ADD SWAP2 DUP3 SLOAD AND OR SWAP1 SSTORE PUSH2 0x1A90 DUP5 PUSH2 0x4D4B JUMP JUMPDEST PUSH1 0x40 MLOAD PUSH3 0x461BCD PUSH1 0xE5 SHL DUP2 MSTORE PUSH1 0x4 DUP2 ADD DUP5 SWAP1 MSTORE PUSH1 0x1A PUSH1 0x24 DUP3 ADD MSTORE PUSH26 0x45503A20626164206F7074696F6E2066726F6D206F7261636C65 PUSH1 0x30 SHL PUSH1 0x44 DUP3 ADD MSTORE PUSH1 0x64 SWAP1 REVERT JUMPDEST POP PUSH1 0x3 DUP7 ADD SLOAD DUP3 GT ISZERO PUSH2 0x23F4 JUMP JUMPDEST SWAP1 POP PUSH1 0x12 DUP7 ADD SLOAD SWAP2 DUP3 ISZERO ISZERO DUP1 PUSH2 0x2512 JUMPI JUMPDEST ISZERO PUSH2 0x24D4 JUMPI PUSH1 0xC DUP8 PUSH1 0x2 SWAP3 PUSH1 0xD PUSH1 0x0 DUP1 MLOAD PUSH1 0x20 PUSH2 0x57A8 DUP4 CODECOPY DUP2 MLOAD SWAP2 MSTORE SWAP9 SWAP10 SWAP11 ADD SWAP6 DUP7 SSTORE PUSH1 0x1 PUSH1 0xFF NOT DUP1 SWAP7 AND OR SWAP1 SSTORE ADD SWAP2 DUP3 SLOAD AND OR SWAP1 SSTORE PUSH2 0x1A90 DUP5 PUSH2 0x4D4B JUMP JUMPDEST PUSH1 0x40 MLOAD PUSH3 0x461BCD PUSH1 0xE5 SHL DUP2 MSTORE PUSH1 0x4 DUP2 ADD DUP6 SWAP1 MSTORE PUSH1 0x16 PUSH1 0x24 DUP3 ADD MSTORE PUSH22 0x22A81D103737903234B9B83ABA32B21037B83A34B7B7 PUSH1 0x51 SHL PUSH1 0x44 DUP3 ADD MSTORE PUSH1 0x64 SWAP1 REVERT JUMPDEST POP PUSH1 0x3 DUP8 ADD SLOAD DUP4 GT ISZERO PUSH2 0x2495 JUMP JUMPDEST SWAP2 POP SWAP3 POP RETURNDATASIZE DUP1 DUP9 DUP4 RETURNDATACOPY PUSH2 0x2533 DUP2 DUP4 PUSH2 0x4008 JUMP JUMPDEST DUP2 ADD SWAP1 PUSH1 0x40 DUP2 DUP4 SUB SLT PUSH2 0x8B6 JUMPI PUSH2 0x2549 DUP2 PUSH2 0x41CA JUMP JUMPDEST DUP7 DUP3 ADD MLOAD SWAP1 SWAP2 PUSH1 0x1 PUSH1 0x1 PUSH1 0x40 SHL SUB DUP3 GT PUSH2 0x25A8 JUMPI ADD DUP3 PUSH1 0x1F DUP3 ADD SLT ISZERO PUSH2 0x1B0D JUMPI DUP1 MLOAD SWAP1 PUSH2 0x2575 DUP3 PUSH2 0x402B JUMP JUMPDEST SWAP4 PUSH2 0x2583 PUSH1 0x40 MLOAD SWAP6 DUP7 PUSH2 0x4008 JUMP JUMPDEST DUP3 DUP6 MSTORE DUP9 DUP4 DUP4 ADD ADD GT PUSH2 0x25A8 JUMPI SWAP1 PUSH2 0x25A0 SWAP2 DUP9 DUP1 DUP7 ADD SWAP2 ADD PUSH2 0x4126 JUMP JUMPDEST SWAP1 SWAP3 CODESIZE PUSH2 0x23A6 JUMP JUMPDEST DUP10 DUP1 REVERT JUMPDEST POP CALLVALUE PUSH2 0x296 JUMPI PUSH1 0x20 DUP1 PUSH1 0x3 NOT CALLDATASIZE ADD SLT PUSH2 0x42E JUMPI PUSH1 0x4 CALLDATALOAD DUP1 DUP4 MSTORE PUSH1 0x2 DUP3 MSTORE PUSH1 0x40 DUP4 KECCAK256 SWAP2 PUSH1 0xFF PUSH1 0xC DUP5 ADD SLOAD AND PUSH1 0x5 DUP2 LT ISZERO PUSH2 0x273E JUMPI PUSH1 0x2 PUSH2 0x25EB SWAP2 EQ PUSH2 0x4952 JUMP JUMPDEST PUSH2 0x25FA PUSH1 0xD DUP5 ADD SLOAD ISZERO ISZERO PUSH2 0x4991 JUMP JUMPDEST DUP2 DUP5 MSTORE PUSH1 0x3 DUP2 MSTORE PUSH1 0x40 DUP5 KECCAK256 CALLER PUSH1 0x0 MSTORE DUP2 MSTORE PUSH2 0x261C PUSH1 0xFF PUSH1 0x40 PUSH1 0x0 KECCAK256 SLOAD AND PUSH2 0x49CD JUMP JUMPDEST PUSH1 0xC SLOAD PUSH1 0x40 MLOAD PUSH4 0x7C7A72D PUSH1 0xE0 SHL DUP2 MSTORE DUP6 SWAP2 PUSH1 0x1 PUSH1 0x1 PUSH1 0xA0 SHL SUB SWAP1 DUP2 AND SWAP2 DUP5 DUP2 DUP1 PUSH2 0x264B CALLER DUP11 PUSH1 0x4 DUP5 ADD PUSH2 0x4A08 JUMP JUMPDEST SUB DUP2 DUP7 GAS STATICCALL DUP1 ISZERO PUSH2 0x2733 JUMPI DUP5 SWAP1 PUSH2 0x26FD JUMPI JUMPDEST PUSH2 0x2668 SWAP2 POP ISZERO PUSH2 0x4A21 JUMP JUMPDEST PUSH1 0x4 PUSH2 0x2674 CALLER DUP8 PUSH2 0x4A7C JUMP JUMPDEST SWAP7 ADD SLOAD AND SWAP1 DUP1 EXTCODESIZE ISZERO PUSH2 0x1627 JUMPI DUP6 DUP4 SWAP2 PUSH2 0x26A6 SWAP4 DUP4 PUSH1 0x40 MLOAD DUP1 SWAP7 DUP2 SWAP6 DUP3 SWAP5 PUSH4 0x2F0041ED PUSH1 0xE1 SHL DUP5 MSTORE CALLER DUP14 PUSH1 0x4 DUP7 ADD PUSH2 0x45B9 JUMP JUMPDEST SUB SWAP3 GAS CALL DUP1 ISZERO PUSH2 0x85B JUMPI PUSH2 0x26E5 JUMPI JUMPDEST POP POP PUSH32 0x5380CF6FE903B40C6D5A9E0DFBCA2F3A423F0A21520B4D5947ED5169BDBA946D SWAP1 PUSH1 0x40 MLOAD SWAP4 DUP5 MSTORE CALLER SWAP4 LOG3 DUP1 RETURN JUMPDEST PUSH2 0x26EE SWAP1 PUSH2 0x3FA3 JUMP JUMPDEST PUSH2 0x26F9 JUMPI DUP4 CODESIZE PUSH2 0x26B5 JUMP JUMPDEST DUP4 DUP1 REVERT JUMPDEST POP DUP5 DUP2 DUP2 RETURNDATASIZE DUP4 GT PUSH2 0x272C JUMPI JUMPDEST PUSH2 0x2713 DUP2 DUP4 PUSH2 0x4008 JUMP JUMPDEST DUP2 ADD SUB SLT PUSH2 0x26F9 JUMPI PUSH2 0x2727 PUSH2 0x2668 SWAP2 PUSH2 0x41CA JUMP JUMPDEST PUSH2 0x265D JUMP JUMPDEST POP RETURNDATASIZE PUSH2 0x2709 JUMP JUMPDEST PUSH1 0x40 MLOAD RETURNDATASIZE DUP7 DUP3 RETURNDATACOPY RETURNDATASIZE SWAP1 REVERT JUMPDEST PUSH4 0x4E487B71 PUSH1 0xE0 SHL DUP6 MSTORE PUSH1 0x21 PUSH1 0x4 MSTORE PUSH1 0x24 DUP6 REVERT JUMPDEST POP PUSH2 0x180 CALLDATASIZE PUSH1 0x3 NOT ADD SLT PUSH2 0x296 JUMPI PUSH1 0x4 CALLDATALOAD SWAP1 PUSH1 0x1 PUSH1 0x1 PUSH1 0x40 SHL SUB DUP3 GT PUSH2 0x296 JUMPI CALLDATASIZE PUSH1 0x23 DUP4 ADD SLT ISZERO PUSH2 0x296 JUMPI DUP2 PUSH1 0x4 ADD CALLDATALOAD PUSH2 0x278B DUP2 PUSH2 0x402B JUMP JUMPDEST SWAP3 PUSH2 0x2799 PUSH1 0x40 MLOAD SWAP5 DUP6 PUSH2 0x4008 JUMP JUMPDEST DUP2 DUP5 MSTORE CALLDATASIZE PUSH1 0x24 DUP4 DUP4 ADD ADD GT PUSH2 0x1627 JUMPI DUP2 DUP4 SWAP3 PUSH1 0x24 PUSH1 0x20 SWAP4 ADD DUP4 DUP8 ADD CALLDATACOPY DUP5 ADD ADD MSTORE PUSH1 0x24 CALLDATALOAD ISZERO ISZERO PUSH1 0x24 CALLDATALOAD SUB PUSH2 0x296 JUMPI PUSH1 0x64 CALLDATALOAD PUSH1 0x1 PUSH1 0x1 PUSH1 0xA0 SHL SUB DUP2 AND SWAP1 SUB PUSH2 0xDBC JUMPI PUSH1 0x2 PUSH2 0x124 CALLDATALOAD LT ISZERO PUSH2 0x296 JUMPI PUSH2 0x144 CALLDATALOAD SWAP1 PUSH1 0x1 PUSH1 0x1 PUSH1 0xA0 SHL SUB DUP3 AND DUP3 SUB PUSH2 0xDBC JUMPI PUSH1 0xD SLOAD PUSH1 0x40 MLOAD PUSH4 0x2B5BA3B9 PUSH1 0xE0 SHL DUP2 MSTORE CALLER PUSH1 0x4 DUP3 ADD MSTORE PUSH1 0x1 PUSH1 0x1 PUSH1 0xA0 SHL SUB SWAP1 SWAP2 AND SWAP1 PUSH1 0x20 DUP2 PUSH1 0x24 DUP2 DUP6 GAS STATICCALL DUP1 ISZERO PUSH2 0x1ECE JUMPI DUP4 SWAP1 PUSH2 0x34EA JUMPI JUMPDEST PUSH2 0x283D SWAP2 POP ISZERO PUSH2 0x41D7 JUMP JUMPDEST DUP4 MLOAD ISZERO PUSH2 0x34B4 JUMPI PUSH1 0x2 PUSH1 0x44 CALLDATALOAD LT ISZERO DUP1 PUSH2 0x34A7 JUMPI JUMPDEST ISZERO PUSH2 0x3470 JUMPI PUSH1 0x84 CALLDATALOAD ISZERO PUSH2 0x343B JUMPI PUSH1 0xA4 CALLDATALOAD ISZERO PUSH2 0x3404 JUMPI PUSH1 0xC4 CALLDATALOAD ISZERO ISZERO DUP1 PUSH2 0x33F6 JUMPI JUMPDEST ISZERO PUSH2 0x33BF JUMPI PUSH2 0x124 CALLDATALOAD ISZERO PUSH2 0x3331 JUMPI JUMPDEST PUSH1 0x40 MLOAD PUSH4 0x17916E01 PUSH1 0xE0 SHL DUP2 MSTORE PUSH1 0x20 DUP2 PUSH1 0x4 DUP2 DUP6 GAS STATICCALL SWAP1 DUP2 ISZERO PUSH2 0x1ECE JUMPI DUP4 SWAP2 PUSH2 0x32FF JUMPI JUMPDEST POP PUSH1 0xE4 CALLDATALOAD LT PUSH2 0x32C7 JUMPI PUSH1 0xE4 CALLDATALOAD PUSH2 0x104 CALLDATALOAD LT PUSH2 0x3285 JUMPI PUSH1 0x24 CALLDATALOAD ISZERO PUSH2 0x31EB JUMPI PUSH1 0x64 CALLDATALOAD PUSH1 0x1 PUSH1 0x1 PUSH1 0xA0 SHL SUB AND ISZERO PUSH2 0x31AE JUMPI PUSH1 0x40 MLOAD PUSH4 0x34625613 PUSH1 0xE1 SHL DUP2 MSTORE PUSH1 0x64 CALLDATALOAD PUSH1 0x1 PUSH1 0x1 PUSH1 0xA0 SHL SUB AND PUSH1 0x4 DUP3 ADD MSTORE SWAP1 PUSH1 0x20 SWAP1 DUP3 SWAP1 PUSH1 0x24 SWAP1 DUP3 SWAP1 GAS STATICCALL DUP1 ISZERO PUSH2 0x85B JUMPI DUP3 SWAP1 PUSH2 0x3173 JUMPI JUMPDEST PUSH2 0x2914 SWAP2 POP PUSH2 0x4215 JUMP JUMPDEST PUSH8 0xDE0B6B3A7640000 CALLVALUE LT PUSH2 0x313C JUMPI PUSH1 0x3C PUSH1 0xE4 CALLDATALOAD MUL PUSH1 0xE4 CALLDATALOAD DUP2 DIV PUSH1 0x3C EQ PUSH1 0xE4 CALLDATALOAD ISZERO OR ISZERO PUSH2 0x2FD1 JUMPI PUSH2 0x2945 SWAP1 TIMESTAMP PUSH2 0x4259 JUMP JUMPDEST SWAP1 PUSH2 0x104 CALLDATALOAD PUSH1 0x3C PUSH2 0x104 CALLDATALOAD MUL DIV PUSH1 0x3C EQ PUSH2 0x104 CALLDATALOAD ISZERO OR ISZERO PUSH2 0x3128 JUMPI PUSH2 0x2970 PUSH1 0x3C PUSH2 0x104 CALLDATALOAD MUL TIMESTAMP PUSH2 0x4259 JUMP JUMPDEST PUSH2 0x124 CALLDATALOAD PUSH2 0x3112 JUMPI DUP1 SWAP2 JUMPDEST PUSH1 0x9 SLOAD SWAP5 PUSH2 0x2988 DUP7 PUSH2 0x427C JUMP JUMPDEST PUSH1 0x9 SSTORE PUSH1 0x40 MLOAD SWAP1 PUSH2 0x2998 DUP3 PUSH2 0x3FB6 JUMP JUMPDEST CALLER DUP3 MSTORE DUP8 PUSH1 0x20 DUP4 ADD MSTORE PUSH1 0x24 CALLDATALOAD ISZERO ISZERO PUSH1 0x40 DUP4 ADD MSTORE PUSH1 0x44 CALLDATALOAD PUSH1 0x60 DUP4 ADD MSTORE PUSH1 0x1 DUP1 PUSH1 0xA0 SHL SUB PUSH1 0x64 CALLDATALOAD AND PUSH1 0x80 DUP4 ADD MSTORE PUSH1 0x84 CALLDATALOAD PUSH1 0xA0 DUP4 ADD MSTORE PUSH1 0xA4 CALLDATALOAD PUSH1 0xC0 DUP4 ADD MSTORE PUSH1 0xC4 CALLDATALOAD PUSH1 0xE0 DUP4 ADD MSTORE TIMESTAMP PUSH2 0x100 DUP4 ADD MSTORE DUP6 PUSH2 0x120 DUP4 ADD MSTORE DUP4 PUSH2 0x140 DUP4 ADD MSTORE DUP5 PUSH2 0x160 DUP4 ADD MSTORE DUP3 PUSH2 0x180 DUP4 ADD MSTORE DUP3 PUSH2 0x1A0 DUP4 ADD MSTORE DUP3 PUSH2 0x1C0 DUP4 ADD MSTORE PUSH2 0x2A1D PUSH2 0x124 CALLDATALOAD PUSH2 0x1E0 DUP5 ADD PUSH2 0x428B JUMP JUMPDEST PUSH1 0x1 PUSH1 0x1 PUSH1 0xA0 SHL SUB SWAP1 DUP2 AND PUSH2 0x200 DUP4 ADD MSTORE PUSH2 0x164 CALLDATALOAD PUSH2 0x220 DUP4 ADD MSTORE PUSH2 0x240 DUP3 ADD DUP4 SWAP1 MSTORE PUSH2 0x260 DUP3 ADD DUP4 SWAP1 MSTORE PUSH2 0x280 DUP3 ADD DUP4 SWAP1 MSTORE DUP7 DUP4 MSTORE PUSH1 0x2 PUSH1 0x20 SWAP1 DUP2 MSTORE PUSH1 0x40 DUP5 KECCAK256 DUP4 MLOAD DUP2 SLOAD PUSH1 0x1 PUSH1 0x1 PUSH1 0xA0 SHL SUB NOT AND SWAP4 AND SWAP3 SWAP1 SWAP3 OR DUP3 SSTORE DUP3 ADD MLOAD DUP1 MLOAD SWAP2 SWAP3 SWAP2 SWAP1 PUSH1 0x1 PUSH1 0x1 PUSH1 0x40 SHL SUB DUP3 GT PUSH2 0x30FE JUMPI DUP2 SWAP1 PUSH2 0x2A9A PUSH1 0x1 DUP7 ADD SLOAD PUSH2 0x4046 JUMP JUMPDEST PUSH1 0x1F DUP2 GT PUSH2 0x30C0 JUMPI JUMPDEST POP PUSH1 0x20 SWAP1 PUSH1 0x1F DUP4 GT PUSH1 0x1 EQ PUSH2 0x3051 JUMPI DUP7 SWAP3 PUSH2 0x3046 JUMPI JUMPDEST POP POP DUP2 PUSH1 0x1 SHL SWAP2 PUSH1 0x0 NOT SWAP1 PUSH1 0x3 SHL SHR NOT AND OR PUSH1 0x1 DUP4 ADD SSTORE JUMPDEST PUSH2 0x2AE4 PUSH1 0x40 DUP3 ADD MLOAD ISZERO ISZERO PUSH1 0x2 DUP5 ADD PUSH2 0x42AE JUMP JUMPDEST PUSH1 0x60 DUP2 ADD MLOAD PUSH1 0x3 DUP4 ADD SSTORE PUSH1 0x4 DUP3 ADD PUSH1 0x1 DUP1 PUSH1 0xA0 SHL SUB PUSH1 0x80 DUP4 ADD MLOAD AND PUSH1 0x1 DUP1 PUSH1 0xA0 SHL SUB NOT DUP3 SLOAD AND OR SWAP1 SSTORE PUSH1 0xA0 DUP2 ADD MLOAD PUSH1 0x5 DUP4 ADD SSTORE PUSH1 0xC0 DUP2 ADD MLOAD PUSH1 0x6 DUP4 ADD SSTORE PUSH1 0xE0 DUP2 ADD MLOAD PUSH1 0x7 DUP4 ADD SSTORE PUSH2 0x100 DUP2 ADD MLOAD PUSH1 0x8 DUP4 ADD SSTORE PUSH2 0x120 DUP2 ADD MLOAD PUSH1 0x9 DUP4 ADD SSTORE PUSH2 0x140 DUP2 ADD MLOAD PUSH1 0xA DUP4 ADD SSTORE PUSH2 0x160 DUP2 ADD MLOAD PUSH1 0xB DUP4 ADD SSTORE PUSH2 0x180 DUP2 ADD MLOAD PUSH1 0x5 DUP2 LT ISZERO PUSH2 0x3B4 JUMPI PUSH1 0xFF DUP1 NOT PUSH1 0xC DUP6 ADD SLOAD AND SWAP2 AND OR PUSH1 0xC DUP4 ADD SSTORE PUSH2 0x1A0 DUP2 ADD MLOAD PUSH1 0xD DUP4 ADD SSTORE PUSH1 0xE DUP3 ADD PUSH2 0x2B98 PUSH2 0x1C0 DUP4 ADD MLOAD ISZERO ISZERO DUP3 PUSH2 0x42AE JUMP JUMPDEST PUSH2 0x1E0 DUP3 ADD MLOAD PUSH1 0x2 DUP2 LT ISZERO PUSH2 0x273E JUMPI SWAP2 DUP2 PUSH1 0x12 SWAP4 PUSH2 0x280 SWAP4 SLOAD PUSH2 0xFF00 PUSH3 0x10000 PUSH1 0x1 PUSH1 0xB0 SHL SUB PUSH2 0x200 DUP7 ADD MLOAD PUSH1 0x10 SHL AND SWAP3 PUSH1 0x8 SHL AND SWAP1 PUSH2 0x100 PUSH1 0x1 PUSH1 0xB0 SHL SUB NOT AND OR OR SWAP1 SSTORE PUSH2 0x220 DUP2 ADD MLOAD PUSH1 0xF DUP6 ADD SSTORE PUSH2 0x240 DUP2 ADD MLOAD PUSH1 0x10 DUP6 ADD SSTORE PUSH2 0x2C07 PUSH2 0x260 DUP3 ADD MLOAD ISZERO ISZERO PUSH1 0x11 DUP7 ADD PUSH2 0x42AE JUMP JUMPDEST ADD MLOAD SWAP2 ADD SSTORE PUSH1 0xA SLOAD PUSH1 0x1 PUSH1 0x40 SHL DUP2 LT ISZERO PUSH2 0x3030 JUMPI PUSH2 0x2C46 PUSH2 0x2C2F DUP3 PUSH1 0x1 DUP10 SWAP5 ADD PUSH1 0xA SSTORE PUSH2 0x3F5A JUMP JUMPDEST DUP2 SWAP4 SWAP2 SLOAD SWAP1 PUSH1 0x3 SHL SWAP2 DUP3 SHL SWAP2 PUSH1 0x0 NOT SWAP1 SHL NOT AND OR SWAP1 JUMP JUMPDEST SWAP1 SSTORE DUP5 DUP2 MSTORE PUSH1 0xB PUSH1 0x20 MSTORE PUSH1 0x40 DUP2 KECCAK256 DUP1 SLOAD PUSH1 0xFF NOT AND PUSH1 0x1 OR SWAP1 SSTORE PUSH1 0x64 CALLDATALOAD PUSH1 0x1 PUSH1 0x1 PUSH1 0xA0 SHL SUB AND PUSH2 0x2FE5 JUMPI PUSH1 0xA4 CALLDATALOAD PUSH8 0xDE0B6B3A7640000 ADD DUP1 PUSH8 0xDE0B6B3A7640000 GT PUSH2 0x2FD1 JUMPI CALLVALUE LT PUSH2 0x2F94 JUMPI PUSH2 0x2CBB DUP2 DUP1 DUP1 DUP1 PUSH8 0xDE0B6B3A7640000 PUSH1 0x1 DUP1 PUSH1 0xA0 SHL SUB DUP3 SLOAD AND GAS CALL PUSH2 0x2CB5 PUSH2 0x42E5 JUMP JUMPDEST POP PUSH2 0x4315 JUMP JUMPDEST DUP1 DUP1 DUP1 DUP1 PUSH1 0xA4 CALLDATALOAD PUSH1 0x1 DUP1 PUSH1 0xA0 SHL SUB PUSH1 0xC SLOAD AND GAS CALL PUSH2 0x2CD7 PUSH2 0x42E5 JUMP JUMPDEST POP ISZERO PUSH2 0x2F55 JUMPI JUMPDEST DUP5 DUP2 MSTORE PUSH1 0x3 PUSH1 0x20 MSTORE PUSH1 0x40 DUP2 KECCAK256 CALLER PUSH1 0x0 MSTORE PUSH1 0x20 MSTORE PUSH1 0x40 PUSH1 0x0 KECCAK256 PUSH1 0x1 PUSH1 0xFF NOT DUP3 SLOAD AND OR SWAP1 SSTORE DUP5 DUP2 MSTORE PUSH1 0x5 PUSH1 0x20 MSTORE PUSH1 0x40 DUP2 KECCAK256 CALLER PUSH1 0x0 MSTORE PUSH1 0x20 MSTORE PUSH1 0xC4 CALLDATALOAD PUSH1 0x40 PUSH1 0x0 KECCAK256 SSTORE CALLER DUP2 MSTORE PUSH1 0x8 PUSH1 0x20 MSTORE PUSH2 0x2D32 DUP6 PUSH1 0x40 DUP4 KECCAK256 PUSH2 0x42BF JUMP JUMPDEST PUSH1 0xC SLOAD PUSH1 0x1 PUSH1 0x1 PUSH1 0xA0 SHL SUB AND DUP1 EXTCODESIZE ISZERO PUSH2 0x42E JUMPI DUP2 PUSH1 0x40 MLOAD DUP1 SWAP3 PUSH4 0x95F41095 PUSH1 0xE0 SHL DUP3 MSTORE DUP2 DUP4 DUP2 PUSH2 0x2D72 PUSH1 0xC4 CALLDATALOAD DUP14 PUSH1 0xA4 CALLDATALOAD SWAP1 PUSH1 0x64 CALLDATALOAD SWAP1 CALLER SWAP1 PUSH1 0x4 DUP8 ADD PUSH2 0x4357 JUMP JUMPDEST SUB SWAP3 GAS CALL DUP1 ISZERO PUSH2 0x85B JUMPI SWAP1 DUP3 SWAP2 PUSH2 0x2F41 JUMPI JUMPDEST POP POP PUSH1 0xD SLOAD PUSH1 0x40 MLOAD PUSH4 0x406AD645 PUSH1 0xE1 SHL DUP2 MSTORE SWAP1 PUSH1 0x20 SWAP1 DUP3 SWAP1 PUSH1 0x4 SWAP1 DUP3 SWAP1 PUSH1 0x1 PUSH1 0x1 PUSH1 0xA0 SHL SUB AND GAS STATICCALL SWAP1 DUP2 ISZERO PUSH2 0x85B JUMPI DUP3 SWAP2 PUSH2 0x2F22 JUMPI JUMPDEST POP PUSH1 0x1 PUSH1 0x1 PUSH1 0xA0 SHL SUB DUP2 AND PUSH2 0x2E5C JUMPI JUMPDEST POP POP PUSH1 0x20 SWAP5 DUP5 SWAP3 PUSH32 0x5D0726A1BB5EC8C87527E69BA86D988202E885FAD8F2B4AACD618793D6F297B2 SWAP3 PUSH2 0x2E0A PUSH1 0x40 MLOAD SWAP4 PUSH2 0x120 DUP6 MSTORE PUSH2 0x120 DUP6 ADD SWAP1 PUSH2 0x4149 JUMP JUMPDEST PUSH1 0x24 CALLDATALOAD ISZERO ISZERO DUP5 DUP11 ADD MSTORE PUSH1 0x44 CALLDATALOAD PUSH1 0x40 DUP6 ADD MSTORE PUSH1 0x64 CALLDATALOAD PUSH1 0x1 PUSH1 0x1 PUSH1 0xA0 SHL SUB AND PUSH1 0x60 DUP6 ADD MSTORE PUSH1 0x84 CALLDATALOAD PUSH1 0x80 DUP6 ADD MSTORE TIMESTAMP PUSH1 0xA0 DUP6 ADD MSTORE PUSH1 0xC0 DUP5 ADD SWAP7 SWAP1 SWAP7 MSTORE PUSH1 0xE0 DUP4 ADD MSTORE PUSH2 0x100 DUP3 ADD MSTORE CALLER SWAP4 DUP2 SWAP1 SUB SWAP1 LOG3 PUSH1 0x40 MLOAD SWAP1 DUP2 MSTORE RETURN JUMPDEST PUSH1 0x1 PUSH1 0x1 PUSH1 0xA0 SHL SUB DUP2 AND EXTCODESIZE ISZERO PUSH2 0x42E JUMPI PUSH1 0x40 MLOAD PUSH4 0x782A7805 PUSH1 0xE1 SHL DUP2 MSTORE DUP3 DUP2 DUP1 PUSH2 0x2E8A CALLER DUP12 PUSH1 0x4 DUP5 ADD PUSH2 0x4A08 JUMP JUMPDEST SUB DUP2 DUP4 PUSH1 0x1 PUSH1 0x1 PUSH1 0xA0 SHL SUB DUP8 AND GAS CALL DUP1 ISZERO PUSH2 0x1ECE JUMPI SWAP1 DUP4 SWAP2 PUSH2 0x2F0E JUMPI JUMPDEST POP POP PUSH1 0x1 PUSH1 0x1 PUSH1 0xA0 SHL SUB DUP2 AND EXTCODESIZE ISZERO PUSH2 0x42E JUMPI PUSH1 0x40 MLOAD PUSH4 0xC228038D PUSH1 0xE0 SHL DUP2 MSTORE SWAP1 DUP3 SWAP1 DUP3 SWAP1 DUP2 DUP4 DUP2 PUSH2 0x2EE2 PUSH1 0xA4 CALLDATALOAD PUSH1 0xC4 CALLDATALOAD CALLER DUP16 PUSH1 0x4 DUP7 ADD PUSH2 0x5279 JUMP JUMPDEST SUB SWAP3 PUSH1 0x1 PUSH1 0x1 PUSH1 0xA0 SHL SUB AND GAS CALL DUP1 ISZERO PUSH2 0x85B JUMPI ISZERO PUSH2 0x2DCA JUMPI PUSH2 0x2F04 DUP3 SWAP2 PUSH2 0x3FA3 JUMP JUMPDEST PUSH2 0x296 JUMPI DUP1 PUSH2 0x2DCA JUMP JUMPDEST PUSH2 0x2F17 SWAP1 PUSH2 0x3FA3 JUMP JUMPDEST PUSH2 0x42E JUMPI DUP2 CODESIZE PUSH2 0x2EA7 JUMP JUMPDEST PUSH2 0x2F3B SWAP2 POP PUSH1 0x20 RETURNDATASIZE PUSH1 0x20 GT PUSH2 0x890 JUMPI PUSH2 0x881 DUP2 DUP4 PUSH2 0x4008 JUMP JUMPDEST CODESIZE PUSH2 0x2DBA JUMP JUMPDEST PUSH2 0x2F4A SWAP1 PUSH2 0x3FA3 JUMP JUMPDEST PUSH2 0x296 JUMPI DUP1 CODESIZE PUSH2 0x2D84 JUMP JUMPDEST PUSH1 0x40 MLOAD PUSH3 0x461BCD PUSH1 0xE5 SHL DUP2 MSTORE PUSH1 0x20 PUSH1 0x4 DUP3 ADD MSTORE PUSH1 0x17 PUSH1 0x24 DUP3 ADD MSTORE PUSH23 0x11540E8819195C1BDCDA5D081CD95B990819985A5B1959 PUSH1 0x4A SHL PUSH1 0x44 DUP3 ADD MSTORE PUSH1 0x64 SWAP1 REVERT JUMPDEST PUSH1 0x40 MLOAD PUSH3 0x461BCD PUSH1 0xE5 SHL DUP2 MSTORE PUSH1 0x20 PUSH1 0x4 DUP3 ADD MSTORE PUSH1 0x15 PUSH1 0x24 DUP3 ADD MSTORE PUSH21 0x45503A20696E73756666696369656E742050455055 PUSH1 0x58 SHL PUSH1 0x44 DUP3 ADD MSTORE PUSH1 0x64 SWAP1 REVERT JUMPDEST PUSH4 0x4E487B71 PUSH1 0xE0 SHL DUP3 MSTORE PUSH1 0x11 PUSH1 0x4 MSTORE PUSH1 0x24 DUP3 REVERT JUMPDEST PUSH2 0x3009 DUP2 DUP1 DUP1 DUP1 PUSH8 0xDE0B6B3A7640000 PUSH1 0x1 DUP1 PUSH1 0xA0 SHL SUB DUP3 SLOAD AND GAS CALL PUSH2 0x2CB5 PUSH2 0x42E5 JUMP JUMPDEST PUSH1 0xC SLOAD PUSH2 0x302B SWAP1 PUSH1 0xA4 CALLDATALOAD SWAP1 PUSH1 0x1 PUSH1 0x1 PUSH1 0xA0 SHL SUB SWAP1 DUP2 AND SWAP1 CALLER SWAP1 PUSH1 0x64 CALLDATALOAD AND PUSH2 0x43A9 JUMP JUMPDEST PUSH2 0x2CDE JUMP JUMPDEST PUSH4 0x4E487B71 PUSH1 0xE0 SHL PUSH1 0x0 MSTORE PUSH1 0x41 PUSH1 0x4 MSTORE PUSH1 0x24 PUSH1 0x0 REVERT JUMPDEST ADD MLOAD SWAP1 POP CODESIZE DUP1 PUSH2 0x2AB9 JUMP JUMPDEST SWAP3 POP PUSH1 0x1 DUP6 ADD DUP7 MSTORE PUSH1 0x20 DUP7 KECCAK256 SWAP1 DUP7 SWAP4 JUMPDEST PUSH1 0x1F NOT DUP5 AND DUP6 LT PUSH2 0x30A5 JUMPI PUSH1 0x1 SWAP5 POP DUP4 PUSH1 0x1F NOT DUP2 AND LT PUSH2 0x308C JUMPI JUMPDEST POP POP POP DUP2 SHL ADD PUSH1 0x1 DUP4 ADD SSTORE PUSH2 0x2AD1 JUMP JUMPDEST ADD MLOAD PUSH1 0x0 NOT PUSH1 0xF8 DUP5 PUSH1 0x3 SHL AND SHR NOT AND SWAP1 SSTORE CODESIZE DUP1 DUP1 PUSH2 0x307C JUMP JUMPDEST DUP2 DUP2 ADD MLOAD DUP4 SSTORE PUSH1 0x20 SWAP5 DUP6 ADD SWAP5 PUSH1 0x1 SWAP1 SWAP4 ADD SWAP3 SWAP1 SWAP2 ADD SWAP1 PUSH2 0x3061 JUMP JUMPDEST PUSH2 0x30EE SWAP1 PUSH1 0x1 DUP8 ADD DUP9 MSTORE PUSH1 0x20 DUP9 KECCAK256 PUSH1 0x1F DUP6 ADD PUSH1 0x5 SHR DUP2 ADD SWAP2 PUSH1 0x20 DUP7 LT PUSH2 0x30F4 JUMPI JUMPDEST PUSH1 0x1F ADD PUSH1 0x5 SHR ADD SWAP1 PUSH2 0x4297 JUMP JUMPDEST CODESIZE PUSH2 0x2AA3 JUMP JUMPDEST SWAP1 SWAP2 POP DUP2 SWAP1 PUSH2 0x30E1 JUMP JUMPDEST PUSH4 0x4E487B71 PUSH1 0xE0 SHL DUP6 MSTORE PUSH1 0x41 PUSH1 0x4 MSTORE PUSH1 0x24 DUP6 REVERT JUMPDEST PUSH2 0xE100 DUP2 ADD DUP2 GT PUSH2 0x2FD1 JUMPI PUSH2 0xE100 DUP2 ADD SWAP2 PUSH2 0x297B JUMP JUMPDEST PUSH4 0x4E487B71 PUSH1 0xE0 SHL DUP2 MSTORE PUSH1 0x11 PUSH1 0x4 MSTORE PUSH1 0x24 SWAP1 REVERT JUMPDEST PUSH1 0x40 MLOAD PUSH3 0x461BCD PUSH1 0xE5 SHL DUP2 MSTORE PUSH1 0x20 PUSH1 0x4 DUP3 ADD MSTORE PUSH1 0xF PUSH1 0x24 DUP3 ADD MSTORE PUSH15 0x45503A2066656520746F6F206C6F77 PUSH1 0x88 SHL PUSH1 0x44 DUP3 ADD MSTORE PUSH1 0x64 SWAP1 REVERT JUMPDEST POP PUSH1 0x20 DUP2 RETURNDATASIZE PUSH1 0x20 GT PUSH2 0x31A6 JUMPI JUMPDEST DUP2 PUSH2 0x318D PUSH1 0x20 SWAP4 DUP4 PUSH2 0x4008 JUMP JUMPDEST DUP2 ADD SUB SLT PUSH2 0x42E JUMPI PUSH2 0x31A1 PUSH2 0x2914 SWAP2 PUSH2 0x41CA JUMP JUMPDEST PUSH2 0x290A JUMP JUMPDEST RETURNDATASIZE SWAP2 POP PUSH2 0x3180 JUMP JUMPDEST PUSH1 0x40 MLOAD PUSH3 0x461BCD PUSH1 0xE5 SHL DUP2 MSTORE PUSH1 0x20 PUSH1 0x4 DUP3 ADD MSTORE PUSH1 0x15 PUSH1 0x24 DUP3 ADD MSTORE PUSH21 0x22A81D1036BAB63A34903732B2B239903A37B5B2B7 PUSH1 0x59 SHL PUSH1 0x44 DUP3 ADD MSTORE PUSH1 0x64 SWAP1 REVERT JUMPDEST PUSH1 0x64 CALLDATALOAD PUSH1 0x1 PUSH1 0x1 PUSH1 0xA0 SHL SUB AND PUSH2 0x3202 JUMPI JUMPDEST POP PUSH2 0x2914 JUMP JUMPDEST PUSH1 0x40 MLOAD PUSH4 0x34625613 PUSH1 0xE1 SHL DUP2 MSTORE PUSH1 0x64 CALLDATALOAD PUSH1 0x1 PUSH1 0x1 PUSH1 0xA0 SHL SUB AND PUSH1 0x4 DUP3 ADD MSTORE SWAP1 PUSH1 0x20 SWAP1 DUP3 SWAP1 PUSH1 0x24 SWAP1 DUP3 SWAP1 GAS STATICCALL DUP1 ISZERO PUSH2 0x85B JUMPI DUP3 SWAP1 PUSH2 0x324A JUMPI JUMPDEST PUSH2 0x3244 SWAP2 POP PUSH2 0x4215 JUMP JUMPDEST CODESIZE PUSH2 0x31FC JUMP JUMPDEST POP PUSH1 0x20 DUP2 RETURNDATASIZE PUSH1 0x20 GT PUSH2 0x327D JUMPI JUMPDEST DUP2 PUSH2 0x3264 PUSH1 0x20 SWAP4 DUP4 PUSH2 0x4008 JUMP JUMPDEST DUP2 ADD SUB SLT PUSH2 0x42E JUMPI PUSH2 0x3278 PUSH2 0x3244 SWAP2 PUSH2 0x41CA JUMP JUMPDEST PUSH2 0x323A JUMP JUMPDEST RETURNDATASIZE SWAP2 POP PUSH2 0x3257 JUMP JUMPDEST PUSH1 0x40 MLOAD PUSH3 0x461BCD PUSH1 0xE5 SHL DUP2 MSTORE PUSH1 0x20 PUSH1 0x4 DUP3 ADD MSTORE PUSH1 0x1A PUSH1 0x24 DUP3 ADD MSTORE PUSH26 0x45503A207265736F6C7574696F6E206166746572207374616B65 PUSH1 0x30 SHL PUSH1 0x44 DUP3 ADD MSTORE PUSH1 0x64 SWAP1 REVERT JUMPDEST PUSH1 0x40 MLOAD PUSH3 0x461BCD PUSH1 0xE5 SHL DUP2 MSTORE PUSH1 0x20 PUSH1 0x4 DUP3 ADD MSTORE PUSH1 0x10 PUSH1 0x24 DUP3 ADD MSTORE PUSH16 0x22A81D1036B4B710323AB930BA34B7B7 PUSH1 0x81 SHL PUSH1 0x44 DUP3 ADD MSTORE PUSH1 0x64 SWAP1 REVERT JUMPDEST SWAP1 POP PUSH1 0x20 DUP2 RETURNDATASIZE PUSH1 0x20 GT PUSH2 0x3329 JUMPI JUMPDEST DUP2 PUSH2 0x331A PUSH1 0x20 SWAP4 DUP4 PUSH2 0x4008 JUMP JUMPDEST DUP2 ADD SUB SLT PUSH2 0xDBC JUMPI MLOAD CODESIZE PUSH2 0x28A4 JUMP JUMPDEST RETURNDATASIZE SWAP2 POP PUSH2 0x330D JUMP JUMPDEST PUSH1 0x1 PUSH1 0x1 PUSH1 0xA0 SHL SUB DUP4 AND ISZERO PUSH2 0x3386 JUMPI PUSH2 0x164 CALLDATALOAD PUSH2 0x2880 JUMPI PUSH1 0x40 MLOAD PUSH3 0x461BCD PUSH1 0xE5 SHL DUP2 MSTORE PUSH1 0x20 PUSH1 0x4 DUP3 ADD MSTORE PUSH1 0x16 PUSH1 0x24 DUP3 ADD MSTORE PUSH22 0x11540E881D1A1C995CDA1BDB19081C995C5D5A5C9959 PUSH1 0x52 SHL PUSH1 0x44 DUP3 ADD MSTORE PUSH1 0x64 SWAP1 REVERT JUMPDEST PUSH1 0x40 MLOAD PUSH3 0x461BCD PUSH1 0xE5 SHL DUP2 MSTORE PUSH1 0x20 PUSH1 0x4 DUP3 ADD MSTORE PUSH1 0x11 PUSH1 0x24 DUP3 ADD MSTORE PUSH17 0x11540E8819995959081C995C5D5A5C9959 PUSH1 0x7A SHL PUSH1 0x44 DUP3 ADD MSTORE PUSH1 0x64 SWAP1 REVERT JUMPDEST PUSH1 0x40 MLOAD PUSH3 0x461BCD PUSH1 0xE5 SHL DUP2 MSTORE PUSH1 0x20 PUSH1 0x4 DUP3 ADD MSTORE PUSH1 0xF PUSH1 0x24 DUP3 ADD MSTORE PUSH15 0x45503A20626164206F7574636F6D65 PUSH1 0x88 SHL PUSH1 0x44 DUP3 ADD MSTORE PUSH1 0x64 SWAP1 REVERT JUMPDEST POP PUSH1 0x44 CALLDATALOAD PUSH1 0xC4 CALLDATALOAD GT ISZERO PUSH2 0x2871 JUMP JUMPDEST PUSH1 0x40 MLOAD PUSH3 0x461BCD PUSH1 0xE5 SHL DUP2 MSTORE PUSH1 0x20 PUSH1 0x4 DUP3 ADD MSTORE PUSH1 0xF PUSH1 0x24 DUP3 ADD MSTORE PUSH15 0x11540E881898590819195C1BDCDA5D PUSH1 0x8A SHL PUSH1 0x44 DUP3 ADD MSTORE PUSH1 0x64 SWAP1 REVERT JUMPDEST PUSH1 0x40 MLOAD PUSH3 0x461BCD PUSH1 0xE5 SHL DUP2 MSTORE PUSH1 0x20 PUSH1 0x4 DUP3 ADD MSTORE PUSH1 0xD PUSH1 0x24 DUP3 ADD MSTORE PUSH13 0x45503A20626164207374616B65 PUSH1 0x98 SHL PUSH1 0x44 DUP3 ADD MSTORE PUSH1 0x64 SWAP1 REVERT JUMPDEST PUSH1 0x40 MLOAD PUSH3 0x461BCD PUSH1 0xE5 SHL DUP2 MSTORE PUSH1 0x20 PUSH1 0x4 DUP3 ADD MSTORE PUSH1 0xF PUSH1 0x24 DUP3 ADD MSTORE PUSH15 0x45503A20626164206F7074696F6E73 PUSH1 0x88 SHL PUSH1 0x44 DUP3 ADD MSTORE PUSH1 0x64 SWAP1 REVERT JUMPDEST POP PUSH1 0xA PUSH1 0x44 CALLDATALOAD GT ISZERO PUSH2 0x2851 JUMP JUMPDEST PUSH1 0x40 MLOAD PUSH3 0x461BCD PUSH1 0xE5 SHL DUP2 MSTORE PUSH1 0x20 PUSH1 0x4 DUP3 ADD MSTORE PUSH1 0xE PUSH1 0x24 DUP3 ADD MSTORE PUSH14 0x8AA07440CADAE0E8F240D0C2E6D PUSH1 0x93 SHL PUSH1 0x44 DUP3 ADD MSTORE PUSH1 0x64 SWAP1 REVERT JUMPDEST POP PUSH1 0x20 DUP2 RETURNDATASIZE PUSH1 0x20 GT PUSH2 0x351D JUMPI JUMPDEST DUP2 PUSH2 0x3504 PUSH1 0x20 SWAP4 DUP4 PUSH2 0x4008 JUMP JUMPDEST DUP2 ADD SUB SLT PUSH2 0x1627 JUMPI PUSH2 0x3518 PUSH2 0x283D SWAP2 PUSH2 0x41CA JUMP JUMPDEST PUSH2 0x2832 JUMP JUMPDEST RETURNDATASIZE SWAP2 POP PUSH2 0x34F7 JUMP JUMPDEST POP CALLVALUE PUSH2 0x296 JUMPI DUP1 PUSH1 0x3 NOT CALLDATASIZE ADD SLT PUSH2 0x296 JUMPI PUSH1 0xC SLOAD PUSH1 0x40 MLOAD PUSH1 0x1 PUSH1 0x1 PUSH1 0xA0 SHL SUB SWAP1 SWAP2 AND DUP2 MSTORE PUSH1 0x20 SWAP1 RETURN JUMPDEST POP CALLVALUE PUSH2 0x296 JUMPI PUSH1 0x20 DUP1 PUSH1 0x3 NOT CALLDATASIZE ADD SLT PUSH2 0x42E JUMPI PUSH1 0x4 CALLDATALOAD DUP1 DUP4 MSTORE PUSH1 0x2 DUP3 MSTORE PUSH1 0x40 DUP4 KECCAK256 SWAP2 PUSH1 0xFF PUSH1 0xC DUP5 ADD SLOAD AND PUSH1 0x5 DUP2 LT ISZERO PUSH2 0x273E JUMPI PUSH1 0x3 SUB PUSH2 0x386D JUMPI DUP2 DUP5 MSTORE PUSH1 0x3 DUP2 MSTORE PUSH1 0x40 DUP5 KECCAK256 CALLER PUSH1 0x0 MSTORE DUP2 MSTORE PUSH1 0xFF PUSH1 0x40 PUSH1 0x0 KECCAK256 SLOAD AND DUP1 ISZERO PUSH2 0x384D JUMPI JUMPDEST ISZERO PUSH2 0x3811 JUMPI DUP4 SWAP3 DUP3 DUP6 MSTORE PUSH1 0x3 DUP3 MSTORE PUSH1 0x40 DUP6 KECCAK256 CALLER PUSH1 0x0 MSTORE DUP3 MSTORE PUSH1 0xFF PUSH1 0x40 PUSH1 0x0 KECCAK256 SLOAD AND PUSH2 0x376B JUMPI JUMPDEST DUP3 DUP6 MSTORE PUSH1 0x4 DUP3 MSTORE PUSH1 0x40 DUP6 KECCAK256 CALLER PUSH1 0x0 MSTORE DUP3 MSTORE PUSH1 0xFF PUSH1 0x40 PUSH1 0x0 KECCAK256 SLOAD AND PUSH2 0x36C3 JUMPI JUMPDEST DUP4 ISZERO PUSH2 0x368C JUMPI PUSH1 0xC SLOAD PUSH1 0x4 SWAP1 SWAP2 ADD SLOAD DUP6 SWAP2 PUSH1 0x1 PUSH1 0x1 PUSH1 0xA0 SHL SUB SWAP2 DUP3 AND SWAP2 AND DUP1 EXTCODESIZE ISZERO PUSH2 0x1627 JUMPI DUP6 DUP4 SWAP2 PUSH2 0x3639 SWAP4 DUP4 PUSH1 0x40 MLOAD DUP1 SWAP7 DUP2 SWAP6 DUP3 SWAP5 PUSH4 0x164FCD7D PUSH1 0xE2 SHL DUP5 MSTORE CALLER DUP14 PUSH1 0x4 DUP7 ADD PUSH2 0x45B9 JUMP JUMPDEST SUB SWAP3 GAS CALL DUP1 ISZERO PUSH2 0x85B JUMPI PUSH2 0x3678 JUMPI JUMPDEST POP POP PUSH32 0xF3F402280EF0A7905E124AA621B65EAEB2725C343E8B36D398ED78C29DAF285C SWAP1 PUSH1 0x40 MLOAD SWAP4 DUP5 MSTORE CALLER SWAP4 LOG3 DUP1 RETURN JUMPDEST PUSH2 0x3681 SWAP1 PUSH2 0x3FA3 JUMP JUMPDEST PUSH2 0x26F9 JUMPI DUP4 CODESIZE PUSH2 0x3648 JUMP JUMPDEST PUSH1 0x40 MLOAD PUSH3 0x461BCD PUSH1 0xE5 SHL DUP2 MSTORE PUSH1 0x4 DUP2 ADD DUP4 SWAP1 MSTORE PUSH1 0xF PUSH1 0x24 DUP3 ADD MSTORE PUSH15 0x11540E881E995C9BC81C99599D5B99 PUSH1 0x8A SHL PUSH1 0x44 DUP3 ADD MSTORE PUSH1 0x64 SWAP1 REVERT JUMPDEST SWAP3 PUSH2 0x36FA SWAP1 DUP3 PUSH1 0x1 DUP1 PUSH1 0xA0 SHL SUB DUP1 PUSH1 0xC SLOAD AND SWAP1 PUSH1 0x4 DUP9 ADD SLOAD AND SWAP1 PUSH1 0x40 MLOAD DUP1 DUP1 SWAP7 DUP2 SWAP5 PUSH4 0x256BA741 PUSH1 0xE0 SHL DUP4 MSTORE CALLER DUP12 PUSH1 0x4 DUP6 ADD PUSH2 0x460D JUMP JUMPDEST SUB SWAP2 GAS STATICCALL SWAP1 DUP2 ISZERO PUSH2 0x5CE JUMPI DUP7 SWAP2 PUSH2 0x373A JUMPI JUMPDEST PUSH2 0x3716 SWAP3 POP PUSH2 0x4259 JUMP JUMPDEST SWAP3 DUP3 DUP6 MSTORE PUSH1 0x4 DUP3 MSTORE PUSH1 0x40 DUP6 KECCAK256 CALLER PUSH1 0x0 MSTORE DUP3 MSTORE PUSH1 0x40 PUSH1 0x0 KECCAK256 PUSH1 0xFF NOT DUP2 SLOAD AND SWAP1 SSTORE PUSH2 0x35EE JUMP JUMPDEST SWAP1 POP DUP3 DUP3 DUP2 RETURNDATASIZE DUP4 GT PUSH2 0x3764 JUMPI JUMPDEST PUSH2 0x3751 DUP2 DUP4 PUSH2 0x4008 JUMP JUMPDEST DUP2 ADD SUB SLT PUSH2 0xDBC JUMPI PUSH2 0x3716 SWAP2 MLOAD SWAP1 PUSH2 0x370C JUMP JUMPDEST POP RETURNDATASIZE PUSH2 0x3747 JUMP JUMPDEST SWAP3 POP PUSH2 0x37A2 DUP2 PUSH1 0x1 DUP1 PUSH1 0xA0 SHL SUB DUP1 PUSH1 0xC SLOAD AND SWAP1 PUSH1 0x4 DUP8 ADD SLOAD AND SWAP1 PUSH1 0x40 MLOAD DUP1 DUP1 SWAP6 DUP2 SWAP5 PUSH4 0x423E7BC1 PUSH1 0xE1 SHL DUP4 MSTORE CALLER DUP11 PUSH1 0x4 DUP6 ADD PUSH2 0x460D JUMP JUMPDEST SUB SWAP2 GAS STATICCALL SWAP1 DUP2 ISZERO PUSH2 0x3806 JUMPI DUP6 SWAP2 PUSH2 0x37D9 JUMPI JUMPDEST POP SWAP3 DUP3 DUP6 MSTORE PUSH1 0x3 DUP3 MSTORE PUSH1 0x40 DUP6 KECCAK256 CALLER PUSH1 0x0 MSTORE DUP3 MSTORE PUSH1 0x40 PUSH1 0x0 KECCAK256 PUSH1 0xFF NOT DUP2 SLOAD AND SWAP1 SSTORE PUSH2 0x35CF JUMP JUMPDEST SWAP1 POP DUP2 DUP2 DUP2 RETURNDATASIZE DUP4 GT PUSH2 0x37FF JUMPI JUMPDEST PUSH2 0x37F0 DUP2 DUP4 PUSH2 0x4008 JUMP JUMPDEST DUP2 ADD SUB SLT PUSH2 0xDBC JUMPI MLOAD CODESIZE PUSH2 0x37B4 JUMP JUMPDEST POP RETURNDATASIZE PUSH2 0x37E6 JUMP JUMPDEST PUSH1 0x40 MLOAD RETURNDATASIZE DUP8 DUP3 RETURNDATACOPY RETURNDATASIZE SWAP1 REVERT JUMPDEST PUSH1 0x64 SWAP1 PUSH1 0x40 MLOAD SWAP1 PUSH3 0x461BCD PUSH1 0xE5 SHL DUP3 MSTORE PUSH1 0x4 DUP3 ADD MSTORE PUSH1 0x15 PUSH1 0x24 DUP3 ADD MSTORE PUSH21 0x11540E881B9BDD1A1A5B99C81D1BC81C99599D5B99 PUSH1 0x5A SHL PUSH1 0x44 DUP3 ADD MSTORE REVERT JUMPDEST POP DUP2 DUP5 MSTORE PUSH1 0x4 DUP2 MSTORE PUSH1 0x40 DUP5 KECCAK256 CALLER PUSH1 0x0 MSTORE DUP2 MSTORE PUSH1 0xFF PUSH1 0x40 PUSH1 0x0 KECCAK256 SLOAD AND PUSH2 0x35A9 JUMP JUMPDEST PUSH1 0x64 SWAP1 PUSH1 0x40 MLOAD SWAP1 PUSH3 0x461BCD PUSH1 0xE5 SHL DUP3 MSTORE PUSH1 0x4 DUP3 ADD MSTORE PUSH1 0x11 PUSH1 0x24 DUP3 ADD MSTORE PUSH17 0x11540E881B9BDD0818D85B98D95B1B1959 PUSH1 0x7A SHL PUSH1 0x44 DUP3 ADD MSTORE REVERT JUMPDEST POP CALLVALUE PUSH2 0x296 JUMPI PUSH1 0x20 CALLDATASIZE PUSH1 0x3 NOT ADD SLT PUSH2 0x296 JUMPI PUSH1 0x4 CALLDATALOAD DUP1 DUP3 MSTORE PUSH1 0x2 PUSH1 0x20 MSTORE PUSH1 0x40 DUP3 KECCAK256 PUSH1 0xFF PUSH1 0xE DUP3 ADD SLOAD PUSH1 0x8 SHR AND PUSH1 0x2 DUP2 LT ISZERO PUSH2 0x3B4 JUMPI PUSH1 0x1 PUSH2 0x38E6 SWAP2 EQ PUSH2 0x46C0 JUMP JUMPDEST PUSH2 0x38F6 PUSH1 0xFF PUSH1 0x11 DUP4 ADD SLOAD AND PUSH2 0x4913 JUMP JUMPDEST DUP3 PUSH1 0x10 PUSH1 0x1 DUP1 PUSH1 0xA0 SHL SUB PUSH1 0xE SLOAD AND SWAP3 ADD SWAP2 DUP3 SLOAD DUP2 EXTCODESIZE ISZERO PUSH2 0x1627 JUMPI DUP3 SWAP2 PUSH1 0x24 DUP4 SWAP3 PUSH1 0x40 MLOAD SWAP5 DUP6 SWAP4 DUP5 SWAP3 PUSH4 0x4124BEEF PUSH1 0xE0 SHL DUP5 MSTORE PUSH1 0x4 DUP5 ADD MSTORE GAS CALL DUP1 ISZERO PUSH2 0x85B JUMPI PUSH2 0x3965 JUMPI JUMPDEST POP POP SLOAD SWAP1 PUSH32 0x49C1C3ECA1FFDB1B59F7205CE06F2461ACE420050F9AD1B4B6B55F4A0F2E526 DUP4 DUP1 LOG3 DUP1 RETURN JUMPDEST PUSH2 0x396E SWAP1 PUSH2 0x3FA3 JUMP JUMPDEST PUSH2 0x1627 JUMPI DUP3 CODESIZE PUSH2 0x393A JUMP JUMPDEST POP CALLVALUE PUSH2 0x296 JUMPI DUP1 PUSH1 0x3 NOT CALLDATASIZE ADD SLT PUSH2 0x296 JUMPI PUSH1 0x20 PUSH1 0x40 MLOAD PUSH2 0x1F4 DUP2 MSTORE RETURN JUMPDEST POP CALLVALUE PUSH2 0x296 JUMPI PUSH1 0x40 CALLDATASIZE PUSH1 0x3 NOT ADD SLT PUSH2 0x296 JUMPI PUSH2 0xD76 SWAP1 PUSH1 0x20 PUSH2 0x39B6 PUSH2 0x3EF9 JUMP JUMPDEST PUSH1 0x1 DUP1 PUSH1 0xA0 SHL SUB PUSH1 0xC SLOAD AND PUSH1 0x40 MLOAD DUP1 DUP1 SWAP7 DUP2 SWAP5 PUSH4 0x4F44289D PUSH1 0xE0 SHL DUP4 MSTORE PUSH1 0x4 CALLDATALOAD PUSH1 0x4 DUP5 ADD PUSH2 0x4A08 JUMP JUMPDEST POP CALLVALUE PUSH2 0x296 JUMPI DUP1 PUSH1 0x3 NOT CALLDATASIZE ADD SLT PUSH2 0x296 JUMPI PUSH1 0x20 PUSH1 0x9 SLOAD PUSH1 0x40 MLOAD SWAP1 DUP2 MSTORE RETURN JUMPDEST POP CALLVALUE PUSH2 0x296 JUMPI PUSH1 0x20 DUP1 PUSH1 0x3 NOT CALLDATASIZE ADD SLT PUSH2 0x42E JUMPI PUSH1 0x4 CALLDATALOAD DUP1 DUP4 MSTORE PUSH1 0x2 DUP3 MSTORE PUSH1 0x40 DUP4 KECCAK256 PUSH1 0x4 DUP4 MSTORE PUSH1 0x40 DUP5 KECCAK256 CALLER DUP6 MSTORE DUP4 MSTORE PUSH1 0xFF PUSH1 0x40 DUP6 KECCAK256 SLOAD AND ISZERO PUSH2 0x3C43 JUMPI PUSH1 0xFF PUSH1 0xC DUP3 ADD SLOAD AND PUSH1 0x5 DUP2 LT ISZERO PUSH2 0x273E JUMPI DUP1 PUSH2 0x3BE8 JUMPI POP PUSH1 0x9 DUP2 ADD SLOAD PUSH2 0xA8BF NOT DUP2 ADD SWAP1 DUP2 GT PUSH2 0x3BD4 JUMPI TIMESTAMP LT ISZERO PUSH2 0x3B94 JUMPI JUMPDEST PUSH1 0x1 DUP1 PUSH1 0xA0 SHL SUB PUSH1 0x4 DUP2 PUSH1 0xC SLOAD AND SWAP3 ADD SLOAD AND SWAP1 PUSH1 0x40 MLOAD SWAP1 PUSH4 0x256BA741 PUSH1 0xE0 SHL DUP3 MSTORE DUP5 DUP3 DUP1 PUSH2 0x3A9C DUP7 CALLER DUP10 PUSH1 0x4 DUP6 ADD PUSH2 0x460D JUMP JUMPDEST SUB DUP2 DUP5 GAS STATICCALL SWAP2 DUP3 ISZERO PUSH2 0x5CE JUMPI DUP7 SWAP3 PUSH2 0x3B65 JUMPI JUMPDEST POP DUP2 ISZERO PUSH2 0x3B26 JUMPI SWAP1 DUP2 DUP7 SWAP3 EXTCODESIZE ISZERO PUSH2 0x1627 JUMPI PUSH2 0x3AE3 SWAP4 DUP4 PUSH1 0x40 MLOAD DUP1 SWAP7 DUP2 SWAP6 DUP3 SWAP5 PUSH4 0x17BE0B2F PUSH1 0xE1 SHL DUP5 MSTORE CALLER DUP12 PUSH1 0x4 DUP7 ADD PUSH2 0x45B9 JUMP JUMPDEST SUB SWAP3 GAS CALL DUP1 ISZERO PUSH2 0x2733 JUMPI PUSH2 0x3B13 JUMPI JUMPDEST POP DUP3 MSTORE PUSH1 0x4 DUP2 MSTORE PUSH1 0x40 DUP3 KECCAK256 SWAP1 CALLER PUSH1 0x0 MSTORE MSTORE PUSH1 0x40 PUSH1 0x0 KECCAK256 PUSH1 0xFF NOT DUP2 SLOAD AND SWAP1 SSTORE DUP1 RETURN JUMPDEST PUSH2 0x3B1F SWAP1 SWAP4 SWAP2 SWAP4 PUSH2 0x3FA3 JUMP JUMPDEST SWAP2 CODESIZE PUSH2 0x3AF2 JUMP JUMPDEST PUSH1 0x40 MLOAD PUSH3 0x461BCD PUSH1 0xE5 SHL DUP2 MSTORE PUSH1 0x4 DUP2 ADD DUP7 SWAP1 MSTORE PUSH1 0x17 PUSH1 0x24 DUP3 ADD MSTORE PUSH23 0x45503A206E6F7468696E6720746F207769746864726177 PUSH1 0x48 SHL PUSH1 0x44 DUP3 ADD MSTORE PUSH1 0x64 SWAP1 REVERT JUMPDEST SWAP1 SWAP2 POP DUP5 DUP2 DUP2 RETURNDATASIZE DUP4 GT PUSH2 0x3B8D JUMPI JUMPDEST PUSH2 0x3B7D DUP2 DUP4 PUSH2 0x4008 JUMP JUMPDEST DUP2 ADD SUB SLT PUSH2 0x5C3 JUMPI MLOAD SWAP1 CODESIZE PUSH2 0x3AAF JUMP JUMPDEST POP RETURNDATASIZE PUSH2 0x3B73 JUMP JUMPDEST PUSH1 0x40 MLOAD PUSH3 0x461BCD PUSH1 0xE5 SHL DUP2 MSTORE PUSH1 0x4 DUP2 ADD DUP5 SWAP1 MSTORE PUSH1 0x18 PUSH1 0x24 DUP3 ADD MSTORE PUSH24 0x45503A20746F6F206C61746520746F207769746864726177 PUSH1 0x40 SHL PUSH1 0x44 DUP3 ADD MSTORE PUSH1 0x64 SWAP1 REVERT JUMPDEST PUSH4 0x4E487B71 PUSH1 0xE0 SHL DUP6 MSTORE PUSH1 0x11 PUSH1 0x4 MSTORE PUSH1 0x24 DUP6 REVERT JUMPDEST PUSH1 0x4 DUP2 EQ SWAP1 DUP2 ISZERO PUSH2 0x3C38 JUMPI JUMPDEST POP PUSH2 0x3A69 JUMPI PUSH1 0x40 MLOAD PUSH3 0x461BCD PUSH1 0xE5 SHL DUP2 MSTORE PUSH1 0x4 DUP2 ADD DUP5 SWAP1 MSTORE PUSH1 0x17 PUSH1 0x24 DUP3 ADD MSTORE PUSH23 0x45503A2063616E6E6F74207769746864726177206E6F77 PUSH1 0x48 SHL PUSH1 0x44 DUP3 ADD MSTORE PUSH1 0x64 SWAP1 REVERT JUMPDEST PUSH1 0x3 SWAP2 POP EQ CODESIZE PUSH2 0x3BF4 JUMP JUMPDEST PUSH1 0x40 MLOAD PUSH3 0x461BCD PUSH1 0xE5 SHL DUP2 MSTORE PUSH1 0x4 DUP2 ADD DUP5 SWAP1 MSTORE PUSH1 0xE PUSH1 0x24 DUP3 ADD MSTORE PUSH14 0x11540E881B9BC81CDD5C1C1BDC9D PUSH1 0x92 SHL PUSH1 0x44 DUP3 ADD MSTORE PUSH1 0x64 SWAP1 REVERT JUMPDEST POP CALLVALUE PUSH2 0x296 JUMPI PUSH1 0x20 CALLDATASIZE PUSH1 0x3 NOT ADD SLT PUSH2 0x296 JUMPI PUSH1 0x4 CALLDATALOAD SWAP1 PUSH1 0xA SLOAD DUP3 LT ISZERO PUSH2 0x296 JUMPI PUSH1 0x20 PUSH2 0x1BEF DUP4 PUSH2 0x3F5A JUMP JUMPDEST POP CALLVALUE PUSH2 0x296 JUMPI PUSH1 0x40 CALLDATASIZE PUSH1 0x3 NOT ADD SLT PUSH2 0x296 JUMPI PUSH1 0xFF PUSH1 0x40 PUSH1 0x20 SWAP3 PUSH2 0x3CC5 PUSH2 0x3EF9 JUMP JUMPDEST PUSH1 0x4 CALLDATALOAD DUP3 MSTORE PUSH1 0x3 DUP6 MSTORE DUP3 DUP3 KECCAK256 PUSH1 0x1 PUSH1 0x1 PUSH1 0xA0 SHL SUB SWAP1 SWAP2 AND DUP3 MSTORE DUP5 MSTORE KECCAK256 SLOAD PUSH1 0x40 MLOAD SWAP2 AND ISZERO ISZERO DUP2 MSTORE RETURN JUMPDEST POP CALLVALUE PUSH2 0x296 JUMPI DUP1 PUSH1 0x3 NOT CALLDATASIZE ADD SLT PUSH2 0x296 JUMPI PUSH1 0x20 PUSH1 0x40 MLOAD PUSH8 0xDE0B6B3A7640000 DUP2 MSTORE RETURN JUMPDEST POP CALLVALUE PUSH2 0x296 JUMPI PUSH1 0x40 CALLDATASIZE PUSH1 0x3 NOT ADD SLT PUSH2 0x296 JUMPI PUSH1 0xFF PUSH1 0x40 PUSH1 0x20 SWAP3 PUSH2 0x3D31 PUSH2 0x3EF9 JUMP JUMPDEST PUSH1 0x4 DUP1 CALLDATALOAD DUP4 MSTORE DUP6 MSTORE DUP3 DUP3 KECCAK256 PUSH1 0x1 PUSH1 0x1 PUSH1 0xA0 SHL SUB SWAP1 SWAP2 AND DUP3 MSTORE DUP5 MSTORE KECCAK256 SLOAD PUSH1 0x40 MLOAD SWAP2 AND ISZERO ISZERO DUP2 MSTORE RETURN JUMPDEST POP CALLVALUE PUSH2 0x296 JUMPI PUSH2 0x3D9B PUSH1 0x20 PUSH2 0x3D6C CALLDATASIZE PUSH2 0x3F25 JUMP JUMPDEST PUSH1 0xC SLOAD PUSH1 0x40 MLOAD PUSH4 0x256BA741 PUSH1 0xE0 SHL DUP2 MSTORE SWAP6 DUP7 SWAP5 PUSH1 0x1 PUSH1 0x1 PUSH1 0xA0 SHL SUB SWAP1 SWAP3 AND SWAP4 DUP6 SWAP4 DUP5 SWAP4 SWAP1 SWAP2 SWAP1 PUSH1 0x4 DUP6 ADD PUSH2 0x460D JUMP JUMPDEST SUB SWAP2 GAS STATICCALL SWAP1 DUP2 ISZERO PUSH2 0x85B JUMPI DUP3 SWAP2 PUSH2 0x3DB8 JUMPI JUMPDEST PUSH1 0x20 DUP3 PUSH1 0x40 MLOAD SWAP1 DUP2 MSTORE RETURN JUMPDEST SWAP1 POP PUSH1 0x20 DUP2 RETURNDATASIZE DUP3 GT PUSH2 0x3DE5 JUMPI JUMPDEST DUP2 PUSH2 0x3DD2 PUSH1 0x20 SWAP4 DUP4 PUSH2 0x4008 JUMP JUMPDEST DUP2 ADD SUB SLT PUSH2 0x42E JUMPI PUSH1 0x20 SWAP2 POP MLOAD CODESIZE PUSH2 0x3DAD JUMP JUMPDEST RETURNDATASIZE SWAP2 POP PUSH2 0x3DC5 JUMP JUMPDEST POP CALLVALUE PUSH2 0x296 JUMPI DUP1 PUSH1 0x3 NOT CALLDATASIZE ADD SLT PUSH2 0x296 JUMPI PUSH1 0xE SLOAD PUSH1 0x40 MLOAD PUSH1 0x1 PUSH1 0x1 PUSH1 0xA0 SHL SUB SWAP1 SWAP2 AND DUP2 MSTORE PUSH1 0x20 SWAP1 RETURN JUMPDEST POP CALLVALUE PUSH2 0x296 JUMPI DUP1 PUSH1 0x3 NOT CALLDATASIZE ADD SLT PUSH2 0x296 JUMPI PUSH1 0xF SLOAD PUSH1 0x40 MLOAD PUSH1 0x1 PUSH1 0x1 PUSH1 0xA0 SHL SUB SWAP1 SWAP2 AND DUP2 MSTORE PUSH1 0x20 SWAP1 RETURN JUMPDEST POP CALLVALUE PUSH2 0x296 JUMPI PUSH1 0x20 CALLDATASIZE PUSH1 0x3 NOT ADD SLT PUSH2 0x296 JUMPI PUSH1 0x4 CALLDATALOAD SWAP1 DUP2 DUP2 MSTORE PUSH1 0x2 PUSH1 0x20 MSTORE PUSH1 0x40 DUP2 KECCAK256 SWAP2 PUSH1 0xC DUP4 ADD DUP1 SLOAD SWAP4 PUSH1 0xFF DUP6 AND PUSH1 0x5 DUP2 LT ISZERO PUSH2 0x273E JUMPI SWAP5 PUSH2 0x3E97 PUSH1 0xA PUSH1 0x1 SWAP4 PUSH2 0x3E8D PUSH2 0x1406 SWAP9 SWAP10 ISZERO PUSH2 0x4481 JUMP JUMPDEST ADD SLOAD TIMESTAMP LT ISZERO PUSH2 0x462D JUMP JUMPDEST PUSH1 0xFF NOT AND OR SWAP1 SSTORE PUSH2 0x5629 JUMP JUMPDEST POP CALLVALUE PUSH2 0x296 JUMPI PUSH1 0x20 CALLDATASIZE PUSH1 0x3 NOT ADD SLT PUSH2 0x296 JUMPI PUSH1 0xFF PUSH1 0x40 PUSH1 0x20 SWAP3 PUSH1 0x4 CALLDATALOAD DUP2 MSTORE PUSH1 0xB DUP5 MSTORE KECCAK256 SLOAD AND PUSH1 0x40 MLOAD SWAP1 ISZERO ISZERO DUP2 MSTORE RETURN JUMPDEST SWAP1 POP CALLVALUE PUSH2 0x42E JUMPI PUSH1 0x20 CALLDATASIZE PUSH1 0x3 NOT ADD SLT PUSH2 0x42E JUMPI PUSH1 0x40 PUSH1 0x20 SWAP3 PUSH1 0x4 CALLDATALOAD DUP2 MSTORE PUSH1 0x6 DUP5 MSTORE KECCAK256 SLOAD DUP2 MSTORE RETURN JUMPDEST PUSH1 0x24 CALLDATALOAD SWAP1 PUSH1 0x1 PUSH1 0x1 PUSH1 0xA0 SHL SUB DUP3 AND DUP3 SUB PUSH2 0xDBC JUMPI JUMP JUMPDEST PUSH1 0x4 CALLDATALOAD SWAP1 PUSH1 0x1 PUSH1 0x1 PUSH1 0xA0 SHL SUB DUP3 AND DUP3 SUB PUSH2 0xDBC JUMPI JUMP JUMPDEST PUSH1 0x60 SWAP1 PUSH1 0x3 NOT ADD SLT PUSH2 0xDBC JUMPI PUSH1 0x4 CALLDATALOAD SWAP1 PUSH1 0x1 PUSH1 0x1 PUSH1 0xA0 SHL SUB SWAP1 PUSH1 0x24 CALLDATALOAD DUP3 DUP2 AND DUP2 SUB PUSH2 0xDBC JUMPI SWAP2 PUSH1 0x44 CALLDATALOAD SWAP1 DUP2 AND DUP2 SUB PUSH2 0xDBC JUMPI SWAP1 JUMP JUMPDEST PUSH1 0xA SLOAD DUP2 LT ISZERO PUSH2 0x3F75 JUMPI PUSH1 0xA PUSH1 0x0 MSTORE PUSH1 0x20 PUSH1 0x0 KECCAK256 ADD SWAP1 PUSH1 0x0 SWAP1 JUMP JUMPDEST PUSH4 0x4E487B71 PUSH1 0xE0 SHL PUSH1 0x0 MSTORE PUSH1 0x32 PUSH1 0x4 MSTORE PUSH1 0x24 PUSH1 0x0 REVERT JUMPDEST DUP1 SLOAD DUP3 LT ISZERO PUSH2 0x3F75 JUMPI PUSH1 0x0 MSTORE PUSH1 0x20 PUSH1 0x0 KECCAK256 ADD SWAP1 PUSH1 0x0 SWAP1 JUMP JUMPDEST PUSH1 0x1 PUSH1 0x1 PUSH1 0x40 SHL SUB DUP2 GT PUSH2 0x3030 JUMPI PUSH1 0x40 MSTORE JUMP JUMPDEST PUSH2 0x2A0 DUP2 ADD SWAP1 DUP2 LT PUSH1 0x1 PUSH1 0x1 PUSH1 0x40 SHL SUB DUP3 GT OR PUSH2 0x3030 JUMPI PUSH1 0x40 MSTORE JUMP JUMPDEST PUSH1 0x40 DUP2 ADD SWAP1 DUP2 LT PUSH1 0x1 PUSH1 0x1 PUSH1 0x40 SHL SUB DUP3 GT OR PUSH2 0x3030 JUMPI PUSH1 0x40 MSTORE JUMP JUMPDEST PUSH1 0x60 DUP2 ADD SWAP1 DUP2 LT PUSH1 0x1 PUSH1 0x1 PUSH1 0x40 SHL SUB DUP3 GT OR PUSH2 0x3030 JUMPI PUSH1 0x40 MSTORE JUMP JUMPDEST PUSH1 0x1F SWAP1 SWAP2 ADD PUSH1 0x1F NOT AND DUP2 ADD SWAP1 PUSH1 0x1 PUSH1 0x1 PUSH1 0x40 SHL SUB DUP3 GT SWAP1 DUP3 LT OR PUSH2 0x3030 JUMPI PUSH1 0x40 MSTORE JUMP JUMPDEST PUSH1 0x1 PUSH1 0x1 PUSH1 0x40 SHL SUB DUP2 GT PUSH2 0x3030 JUMPI PUSH1 0x1F ADD PUSH1 0x1F NOT AND PUSH1 0x20 ADD SWAP1 JUMP JUMPDEST SWAP1 PUSH1 0x1 DUP3 DUP2 SHR SWAP3 AND DUP1 ISZERO PUSH2 0x4076 JUMPI JUMPDEST PUSH1 0x20 DUP4 LT EQ PUSH2 0x4060 JUMPI JUMP JUMPDEST PUSH4 0x4E487B71 PUSH1 0xE0 SHL PUSH1 0x0 MSTORE PUSH1 0x22 PUSH1 0x4 MSTORE PUSH1 0x24 PUSH1 0x0 REVERT JUMPDEST SWAP2 PUSH1 0x7F AND SWAP2 PUSH2 0x4055 JUMP JUMPDEST SWAP1 PUSH1 0x40 MLOAD SWAP2 DUP3 PUSH1 0x0 DUP3 SLOAD SWAP3 PUSH2 0x4094 DUP5 PUSH2 0x4046 JUMP JUMPDEST SWAP1 DUP2 DUP5 MSTORE PUSH1 0x1 SWAP5 DUP6 DUP2 AND SWAP1 DUP2 PUSH1 0x0 EQ PUSH2 0x4103 JUMPI POP PUSH1 0x1 EQ PUSH2 0x40C0 JUMPI JUMPDEST POP POP PUSH2 0x40BE SWAP3 POP SUB DUP4 PUSH2 0x4008 JUMP JUMPDEST JUMP JUMPDEST SWAP1 SWAP4 SWAP2 POP PUSH1 0x0 MSTORE PUSH1 0x20 SWAP1 DUP2 PUSH1 0x0 KECCAK256 SWAP4 PUSH1 0x0 SWAP2 JUMPDEST DUP2 DUP4 LT PUSH2 0x40EB JUMPI POP POP PUSH2 0x40BE SWAP4 POP DUP3 ADD ADD CODESIZE DUP1 PUSH2 0x40B0 JUMP JUMPDEST DUP6 SLOAD DUP9 DUP5 ADD DUP6 ADD MSTORE SWAP5 DUP6 ADD SWAP5 DUP8 SWAP5 POP SWAP2 DUP4 ADD SWAP2 PUSH2 0x40D3 JUMP JUMPDEST SWAP2 POP POP PUSH2 0x40BE SWAP5 POP PUSH1 0x20 SWAP3 POP PUSH1 0xFF NOT AND DUP3 DUP5 ADD MSTORE ISZERO ISZERO PUSH1 0x5 SHL DUP3 ADD ADD CODESIZE DUP1 PUSH2 0x40B0 JUMP JUMPDEST PUSH1 0x0 JUMPDEST DUP4 DUP2 LT PUSH2 0x4139 JUMPI POP POP PUSH1 0x0 SWAP2 ADD MSTORE JUMP JUMPDEST DUP2 DUP2 ADD MLOAD DUP4 DUP3 ADD MSTORE PUSH1 0x20 ADD PUSH2 0x4129 JUMP JUMPDEST SWAP1 PUSH1 0x20 SWAP2 PUSH2 0x4162 DUP2 MLOAD DUP1 SWAP3 DUP2 DUP6 MSTORE DUP6 DUP1 DUP7 ADD SWAP2 ADD PUSH2 0x4126 JUMP JUMPDEST PUSH1 0x1F ADD PUSH1 0x1F NOT AND ADD ADD SWAP1 JUMP JUMPDEST SWAP1 PUSH1 0x5 DUP3 LT ISZERO PUSH2 0x10DA JUMPI MSTORE JUMP JUMPDEST SWAP1 PUSH1 0x2 DUP3 LT ISZERO PUSH2 0x10DA JUMPI MSTORE JUMP JUMPDEST PUSH1 0x40 SWAP1 PUSH1 0x3 NOT ADD SLT PUSH2 0xDBC JUMPI PUSH1 0x4 CALLDATALOAD SWAP1 PUSH1 0x24 CALLDATALOAD SWAP1 JUMP JUMPDEST PUSH1 0x0 SLOAD PUSH1 0x1 PUSH1 0x1 PUSH1 0xA0 SHL SUB AND CALLER SUB PUSH2 0x41B2 JUMPI JUMP JUMPDEST PUSH1 0x40 MLOAD PUSH4 0x118CDAA7 PUSH1 0xE0 SHL DUP2 MSTORE CALLER PUSH1 0x4 DUP3 ADD MSTORE PUSH1 0x24 SWAP1 REVERT JUMPDEST MLOAD SWAP1 DUP2 ISZERO ISZERO DUP3 SUB PUSH2 0xDBC JUMPI JUMP JUMPDEST ISZERO PUSH2 0x41DE JUMPI JUMP JUMPDEST PUSH1 0x40 MLOAD PUSH3 0x461BCD PUSH1 0xE5 SHL DUP2 MSTORE PUSH1 0x20 PUSH1 0x4 DUP3 ADD MSTORE PUSH1 0xF PUSH1 0x24 DUP3 ADD MSTORE PUSH15 0x11540E88189B1858DADB1A5CDD1959 PUSH1 0x8A SHL PUSH1 0x44 DUP3 ADD MSTORE PUSH1 0x64 SWAP1 REVERT JUMPDEST ISZERO PUSH2 0x421C JUMPI JUMP JUMPDEST PUSH1 0x40 MLOAD PUSH3 0x461BCD PUSH1 0xE5 SHL DUP2 MSTORE PUSH1 0x20 PUSH1 0x4 DUP3 ADD MSTORE PUSH1 0x15 PUSH1 0x24 DUP3 ADD MSTORE PUSH21 0x22A81D103AB739BAB83837B93A32B2103A37B5B2B7 PUSH1 0x59 SHL PUSH1 0x44 DUP3 ADD MSTORE PUSH1 0x64 SWAP1 REVERT JUMPDEST SWAP2 SWAP1 DUP3 ADD DUP1 SWAP3 GT PUSH2 0x4266 JUMPI JUMP JUMPDEST PUSH4 0x4E487B71 PUSH1 0xE0 SHL PUSH1 0x0 MSTORE PUSH1 0x11 PUSH1 0x4 MSTORE PUSH1 0x24 PUSH1 0x0 REVERT JUMPDEST PUSH1 0x0 NOT DUP2 EQ PUSH2 0x4266 JUMPI PUSH1 0x1 ADD SWAP1 JUMP JUMPDEST PUSH1 0x2 DUP3 LT ISZERO PUSH2 0x10DA JUMPI MSTORE JUMP JUMPDEST DUP2 DUP2 LT PUSH2 0x42A2 JUMPI POP POP JUMP JUMPDEST PUSH1 0x0 DUP2 SSTORE PUSH1 0x1 ADD PUSH2 0x4297 JUMP JUMPDEST SWAP1 PUSH1 0xFF DUP1 NOT DUP4 SLOAD AND SWAP2 ISZERO ISZERO AND OR SWAP1 SSTORE JUMP JUMPDEST DUP1 SLOAD SWAP1 PUSH1 0x1 PUSH1 0x40 SHL DUP3 LT ISZERO PUSH2 0x3030 JUMPI DUP2 PUSH2 0x2C2F SWAP2 PUSH1 0x1 PUSH2 0x42E1 SWAP5 ADD DUP2 SSTORE PUSH2 0x3F8B JUMP JUMPDEST SWAP1 SSTORE JUMP JUMPDEST RETURNDATASIZE ISZERO PUSH2 0x4310 JUMPI RETURNDATASIZE SWAP1 PUSH2 0x42F6 DUP3 PUSH2 0x402B JUMP JUMPDEST SWAP2 PUSH2 0x4304 PUSH1 0x40 MLOAD SWAP4 DUP5 PUSH2 0x4008 JUMP JUMPDEST DUP3 MSTORE RETURNDATASIZE PUSH1 0x0 PUSH1 0x20 DUP5 ADD RETURNDATACOPY JUMP JUMPDEST PUSH1 0x60 SWAP1 JUMP JUMPDEST ISZERO PUSH2 0x431C JUMPI JUMP JUMPDEST PUSH1 0x40 MLOAD PUSH3 0x461BCD PUSH1 0xE5 SHL DUP2 MSTORE PUSH1 0x20 PUSH1 0x4 DUP3 ADD MSTORE PUSH1 0x13 PUSH1 0x24 DUP3 ADD MSTORE PUSH19 0x11540E88199959481CD95B990819985A5B1959 PUSH1 0x6A SHL PUSH1 0x44 DUP3 ADD MSTORE PUSH1 0x64 SWAP1 REVERT JUMPDEST SWAP1 DUP2 MSTORE PUSH1 0x1 PUSH1 0x1 PUSH1 0xA0 SHL SUB SWAP2 DUP3 AND PUSH1 0x20 DUP3 ADD MSTORE SWAP2 AND PUSH1 0x40 DUP3 ADD MSTORE PUSH1 0x60 DUP2 ADD SWAP2 SWAP1 SWAP2 MSTORE PUSH1 0x80 DUP2 ADD SWAP2 SWAP1 SWAP2 MSTORE PUSH1 0xA0 ADD SWAP1 JUMP JUMPDEST PUSH1 0x1 PUSH1 0x1 PUSH1 0xA0 SHL SUB SWAP2 DUP3 AND DUP2 MSTORE SWAP2 AND PUSH1 0x20 DUP3 ADD MSTORE PUSH1 0x40 DUP2 ADD SWAP2 SWAP1 SWAP2 MSTORE PUSH1 0x60 ADD SWAP1 JUMP JUMPDEST SWAP1 PUSH2 0x43DF SWAP1 PUSH2 0x43D1 PUSH2 0x40BE SWAP6 PUSH1 0x40 MLOAD SWAP6 DUP7 SWAP4 PUSH4 0x23B872DD PUSH1 0xE0 SHL PUSH1 0x20 DUP7 ADD MSTORE PUSH1 0x24 DUP6 ADD PUSH2 0x4387 JUMP JUMPDEST SUB PUSH1 0x1F NOT DUP2 ADD DUP5 MSTORE DUP4 PUSH2 0x4008 JUMP JUMPDEST SWAP1 PUSH1 0x0 PUSH1 0x20 SWAP2 DUP3 DUP2 MLOAD SWAP2 ADD DUP3 DUP6 GAS CALL ISZERO PUSH2 0x443B JUMPI PUSH1 0x0 MLOAD RETURNDATASIZE PUSH2 0x4432 JUMPI POP PUSH1 0x1 PUSH1 0x1 PUSH1 0xA0 SHL SUB DUP2 AND EXTCODESIZE ISZERO JUMPDEST PUSH2 0x4410 JUMPI POP JUMP JUMPDEST PUSH1 0x40 MLOAD PUSH4 0x5274AFE7 PUSH1 0xE0 SHL DUP2 MSTORE PUSH1 0x1 PUSH1 0x1 PUSH1 0xA0 SHL SUB SWAP1 SWAP2 AND PUSH1 0x4 DUP3 ADD MSTORE PUSH1 0x24 SWAP1 REVERT JUMPDEST PUSH1 0x1 EQ ISZERO PUSH2 0x4409 JUMP JUMPDEST PUSH1 0x40 MLOAD RETURNDATASIZE PUSH1 0x0 DUP3 RETURNDATACOPY RETURNDATASIZE SWAP1 REVERT JUMPDEST ISZERO PUSH2 0x444E JUMPI JUMP JUMPDEST PUSH1 0x40 MLOAD PUSH3 0x461BCD PUSH1 0xE5 SHL DUP2 MSTORE PUSH1 0x20 PUSH1 0x4 DUP3 ADD MSTORE PUSH1 0xB PUSH1 0x24 DUP3 ADD MSTORE PUSH11 0x11540E8819195B195D1959 PUSH1 0xAA SHL PUSH1 0x44 DUP3 ADD MSTORE PUSH1 0x64 SWAP1 REVERT JUMPDEST ISZERO PUSH2 0x4488 JUMPI JUMP JUMPDEST PUSH1 0x40 MLOAD PUSH3 0x461BCD PUSH1 0xE5 SHL DUP2 MSTORE PUSH1 0x20 PUSH1 0x4 DUP3 ADD MSTORE PUSH1 0xE PUSH1 0x24 DUP3 ADD MSTORE PUSH14 0x45503A206E6F7420616374697665 PUSH1 0x90 SHL PUSH1 0x44 DUP3 ADD MSTORE PUSH1 0x64 SWAP1 REVERT JUMPDEST ISZERO PUSH2 0x44C5 JUMPI JUMP JUMPDEST PUSH1 0x40 MLOAD PUSH3 0x461BCD PUSH1 0xE5 SHL DUP2 MSTORE PUSH1 0x20 PUSH1 0x4 DUP3 ADD MSTORE PUSH1 0xE PUSH1 0x24 DUP3 ADD MSTORE PUSH14 0x22A81D103130B21037B83A34B7B7 PUSH1 0x91 SHL PUSH1 0x44 DUP3 ADD MSTORE PUSH1 0x64 SWAP1 REVERT JUMPDEST ISZERO PUSH2 0x4502 JUMPI JUMP JUMPDEST PUSH1 0x40 MLOAD PUSH3 0x461BCD PUSH1 0xE5 SHL DUP2 MSTORE PUSH1 0x20 PUSH1 0x4 DUP3 ADD MSTORE PUSH1 0xD PUSH1 0x24 DUP3 ADD MSTORE PUSH13 0x22A81D103132B637BB9036B4B7 PUSH1 0x99 SHL PUSH1 0x44 DUP3 ADD MSTORE PUSH1 0x64 SWAP1 REVERT JUMPDEST ISZERO PUSH2 0x453E JUMPI JUMP JUMPDEST PUSH1 0x40 MLOAD PUSH3 0x461BCD PUSH1 0xE5 SHL DUP2 MSTORE PUSH1 0x20 PUSH1 0x4 DUP3 ADD MSTORE PUSH1 0x18 PUSH1 0x24 DUP3 ADD MSTORE PUSH24 0x11540E881D1C99585CDD5C9E481CD95B990819985A5B1959 PUSH1 0x42 SHL PUSH1 0x44 DUP3 ADD MSTORE PUSH1 0x64 SWAP1 REVERT JUMPDEST DUP1 SLOAD PUSH1 0x1 PUSH1 0x40 SHL DUP2 LT ISZERO PUSH2 0x3030 JUMPI PUSH2 0x459B SWAP2 PUSH1 0x1 DUP3 ADD DUP2 SSTORE PUSH2 0x3F8B JUMP JUMPDEST DUP2 SWAP3 SWAP2 SLOAD SWAP1 PUSH1 0x3 SHL SWAP2 PUSH1 0x1 DUP1 PUSH1 0xA0 SHL SUB DUP1 SWAP2 AND DUP4 SHL SWAP3 SHL NOT AND OR SWAP1 SSTORE JUMP JUMPDEST SWAP1 DUP2 MSTORE PUSH1 0x1 PUSH1 0x1 PUSH1 0xA0 SHL SUB SWAP2 DUP3 AND PUSH1 0x20 DUP3 ADD MSTORE SWAP2 AND PUSH1 0x40 DUP3 ADD MSTORE PUSH1 0x60 DUP2 ADD SWAP2 SWAP1 SWAP2 MSTORE PUSH1 0x80 ADD SWAP1 JUMP JUMPDEST SWAP1 DUP2 PUSH1 0x20 SWAP2 SUB SLT PUSH2 0xDBC JUMPI MLOAD PUSH1 0x1 PUSH1 0x1 PUSH1 0xA0 SHL SUB DUP2 AND DUP2 SUB PUSH2 0xDBC JUMPI SWAP1 JUMP JUMPDEST SWAP2 SWAP1 DUP3 SUB SWAP2 DUP3 GT PUSH2 0x4266 JUMPI JUMP JUMPDEST SWAP1 DUP2 MSTORE PUSH1 0x1 PUSH1 0x1 PUSH1 0xA0 SHL SUB SWAP2 DUP3 AND PUSH1 0x20 DUP3 ADD MSTORE SWAP2 AND PUSH1 0x40 DUP3 ADD MSTORE PUSH1 0x60 ADD SWAP1 JUMP JUMPDEST ISZERO PUSH2 0x4634 JUMPI JUMP JUMPDEST PUSH1 0x40 MLOAD PUSH3 0x461BCD PUSH1 0xE5 SHL DUP2 MSTORE PUSH1 0x20 PUSH1 0x4 DUP3 ADD MSTORE PUSH1 0xD PUSH1 0x24 DUP3 ADD MSTORE PUSH13 0x11540E881B9BDD08195B991959 PUSH1 0x9A SHL PUSH1 0x44 DUP3 ADD MSTORE PUSH1 0x64 SWAP1 REVERT JUMPDEST ISZERO PUSH2 0x4670 JUMPI JUMP JUMPDEST PUSH1 0x40 MLOAD PUSH3 0x461BCD PUSH1 0xE5 SHL DUP2 MSTORE PUSH1 0x20 PUSH1 0x4 DUP3 ADD MSTORE PUSH1 0x14 PUSH1 0x24 DUP3 ADD MSTORE PUSH20 0x11540E88185B1C9958591E481C995CDBDB1D9959 PUSH1 0x62 SHL PUSH1 0x44 DUP3 ADD MSTORE PUSH1 0x64 SWAP1 REVERT JUMPDEST MLOAD SWAP1 PUSH1 0x1 PUSH1 0x1 PUSH1 0x50 SHL SUB DUP3 AND DUP3 SUB PUSH2 0xDBC JUMPI JUMP JUMPDEST ISZERO PUSH2 0x46C7 JUMPI JUMP JUMPDEST PUSH1 0x40 MLOAD PUSH3 0x461BCD PUSH1 0xE5 SHL DUP2 MSTORE PUSH1 0x20 PUSH1 0x4 DUP3 ADD MSTORE PUSH1 0x15 PUSH1 0x24 DUP3 ADD MSTORE PUSH21 0x45503A206E6F74205032504F5054494D4953544943 PUSH1 0x58 SHL PUSH1 0x44 DUP3 ADD MSTORE PUSH1 0x64 SWAP1 REVERT JUMPDEST ISZERO PUSH2 0x470B JUMPI JUMP JUMPDEST PUSH1 0x40 MLOAD PUSH3 0x461BCD PUSH1 0xE5 SHL DUP2 MSTORE PUSH1 0x20 PUSH1 0x4 DUP3 ADD MSTORE PUSH1 0xC PUSH1 0x24 DUP3 ADD MSTORE PUSH12 0x11540E881C995CDBDB1D9959 PUSH1 0xA2 SHL PUSH1 0x44 DUP3 ADD MSTORE PUSH1 0x64 SWAP1 REVERT JUMPDEST ISZERO PUSH2 0x4746 JUMPI JUMP JUMPDEST PUSH1 0x40 MLOAD PUSH3 0x461BCD PUSH1 0xE5 SHL DUP2 MSTORE PUSH1 0x20 PUSH1 0x4 DUP3 ADD MSTORE PUSH1 0x14 PUSH1 0x24 DUP3 ADD MSTORE PUSH20 0x45503A20617373657274696F6E20657869737473 PUSH1 0x60 SHL PUSH1 0x44 DUP3 ADD MSTORE PUSH1 0x64 SWAP1 REVERT JUMPDEST ISZERO PUSH2 0x4789 JUMPI JUMP JUMPDEST PUSH1 0x40 MLOAD PUSH3 0x461BCD PUSH1 0xE5 SHL DUP2 MSTORE PUSH1 0x20 PUSH1 0x4 DUP3 ADD MSTORE PUSH1 0x12 PUSH1 0x24 DUP3 ADD MSTORE PUSH18 0x11540E881BDC9858DB19481B9BDD081CD95D PUSH1 0x72 SHL PUSH1 0x44 DUP3 ADD MSTORE PUSH1 0x64 SWAP1 REVERT JUMPDEST ISZERO PUSH2 0x47CA JUMPI JUMP JUMPDEST PUSH1 0x40 MLOAD PUSH3 0x461BCD PUSH1 0xE5 SHL DUP2 MSTORE PUSH1 0x20 PUSH1 0x4 DUP3 ADD MSTORE PUSH1 0x19 PUSH1 0x24 DUP3 ADD MSTORE PUSH25 0x11540E88189BDB990818DD5C9C995B98DE481B9BDD081CD95D PUSH1 0x3A SHL PUSH1 0x44 DUP3 ADD MSTORE PUSH1 0x64 SWAP1 REVERT JUMPDEST PUSH1 0x1 PUSH1 0x1 PUSH1 0xA0 SHL SUB SWAP1 SWAP2 AND DUP2 MSTORE PUSH1 0x20 DUP2 ADD SWAP2 SWAP1 SWAP2 MSTORE PUSH1 0x40 ADD SWAP1 JUMP JUMPDEST SWAP3 SWAP2 SWAP3 PUSH1 0x40 MLOAD SWAP2 PUSH1 0x20 DUP4 ADD SWAP1 PUSH2 0x485D DUP5 PUSH2 0x484F PUSH4 0x95EA7B3 PUSH1 0xE0 SHL SWAP9 DUP10 DUP7 MSTORE DUP5 PUSH1 0x24 DUP5 ADD PUSH2 0x480B JUMP JUMPDEST SUB PUSH1 0x1F NOT DUP2 ADD DUP7 MSTORE DUP6 PUSH2 0x4008 JUMP JUMPDEST PUSH1 0x20 PUSH1 0x0 DUP1 SWAP4 DUP7 MLOAD SWAP1 DUP3 DUP8 GAS CALL DUP3 MLOAD RETURNDATASIZE DUP3 PUSH2 0x48EE JUMPI JUMPDEST POP POP ISZERO PUSH2 0x4883 JUMPI JUMPDEST POP POP POP POP SWAP1 POP JUMP JUMPDEST PUSH1 0x40 MLOAD PUSH1 0x20 DUP2 ADD SWAP7 SWAP1 SWAP7 MSTORE PUSH1 0x1 PUSH1 0x1 PUSH1 0xA0 SHL SUB AND PUSH1 0x24 DUP7 ADD MSTORE PUSH1 0x44 DUP1 DUP7 ADD DUP3 SWAP1 MSTORE DUP6 MSTORE PUSH1 0x80 DUP6 ADD SWAP1 PUSH1 0x1 PUSH1 0x1 PUSH1 0x40 SHL SUB DUP3 GT DUP7 DUP4 LT OR PUSH2 0x48DA JUMPI POP PUSH2 0x48D0 SWAP4 SWAP5 PUSH2 0x43DF SWAP2 PUSH1 0x40 MSTORE DUP3 PUSH2 0x43DF JUMP JUMPDEST DUP1 CODESIZE DUP1 DUP1 DUP1 PUSH2 0x487B JUMP JUMPDEST PUSH4 0x4E487B71 PUSH1 0xE0 SHL DUP2 MSTORE PUSH1 0x41 PUSH1 0x4 MSTORE PUSH1 0x24 SWAP1 REVERT JUMPDEST SWAP1 SWAP2 POP PUSH2 0x490B JUMPI POP PUSH1 0x1 PUSH1 0x1 PUSH1 0xA0 SHL SUB DUP4 AND EXTCODESIZE ISZERO ISZERO JUMPDEST CODESIZE DUP1 PUSH2 0x4873 JUMP JUMPDEST PUSH1 0x1 EQ PUSH2 0x4904 JUMP JUMPDEST ISZERO PUSH2 0x491A JUMPI JUMP JUMPDEST PUSH1 0x40 MLOAD PUSH3 0x461BCD PUSH1 0xE5 SHL DUP2 MSTORE PUSH1 0x20 PUSH1 0x4 DUP3 ADD MSTORE PUSH1 0x10 PUSH1 0x24 DUP3 ADD MSTORE PUSH16 0x22A81D1037379030B9B9B2B93A34B7B7 PUSH1 0x81 SHL PUSH1 0x44 DUP3 ADD MSTORE PUSH1 0x64 SWAP1 REVERT JUMPDEST ISZERO PUSH2 0x4959 JUMPI JUMP JUMPDEST PUSH1 0x40 MLOAD PUSH3 0x461BCD PUSH1 0xE5 SHL DUP2 MSTORE PUSH1 0x20 PUSH1 0x4 DUP3 ADD MSTORE PUSH1 0x10 PUSH1 0x24 DUP3 ADD MSTORE PUSH16 0x11540E881B9BDD081C995CDBDB1D9959 PUSH1 0x82 SHL PUSH1 0x44 DUP3 ADD MSTORE PUSH1 0x64 SWAP1 REVERT JUMPDEST ISZERO PUSH2 0x4998 JUMPI JUMP JUMPDEST PUSH1 0x40 MLOAD PUSH3 0x461BCD PUSH1 0xE5 SHL DUP2 MSTORE PUSH1 0x20 PUSH1 0x4 DUP3 ADD MSTORE PUSH1 0xD PUSH1 0x24 DUP3 ADD MSTORE PUSH13 0x22A81D103737903BB4B73732B9 PUSH1 0x99 SHL PUSH1 0x44 DUP3 ADD MSTORE PUSH1 0x64 SWAP1 REVERT JUMPDEST ISZERO PUSH2 0x49D4 JUMPI JUMP JUMPDEST PUSH1 0x40 MLOAD PUSH3 0x461BCD PUSH1 0xE5 SHL DUP2 MSTORE PUSH1 0x20 PUSH1 0x4 DUP3 ADD MSTORE PUSH1 0xC PUSH1 0x24 DUP3 ADD MSTORE PUSH12 0x45503A206E6F207374616B65 PUSH1 0xA0 SHL PUSH1 0x44 DUP3 ADD MSTORE PUSH1 0x64 SWAP1 REVERT JUMPDEST SWAP1 DUP2 MSTORE PUSH1 0x1 PUSH1 0x1 PUSH1 0xA0 SHL SUB SWAP1 SWAP2 AND PUSH1 0x20 DUP3 ADD MSTORE PUSH1 0x40 ADD SWAP1 JUMP JUMPDEST ISZERO PUSH2 0x4A28 JUMPI JUMP JUMPDEST PUSH1 0x40 MLOAD PUSH3 0x461BCD PUSH1 0xE5 SHL DUP2 MSTORE PUSH1 0x20 PUSH1 0x4 DUP3 ADD MSTORE PUSH1 0xB PUSH1 0x24 DUP3 ADD MSTORE PUSH11 0x11540E8818DB185A5B5959 PUSH1 0xAA SHL PUSH1 0x44 DUP3 ADD MSTORE PUSH1 0x64 SWAP1 REVERT JUMPDEST SWAP1 DUP2 MSTORE PUSH1 0x20 DUP2 ADD SWAP2 SWAP1 SWAP2 MSTORE PUSH1 0x1 PUSH1 0x1 PUSH1 0xA0 SHL SUB SWAP1 SWAP2 AND PUSH1 0x40 DUP3 ADD MSTORE PUSH1 0x60 ADD SWAP1 JUMP JUMPDEST SWAP1 DUP2 PUSH1 0x0 MSTORE PUSH1 0x2 PUSH1 0x20 MSTORE PUSH1 0x40 SWAP2 DUP3 PUSH1 0x0 KECCAK256 SWAP2 PUSH1 0x1 DUP1 PUSH1 0xA0 SHL SUB PUSH1 0xC SLOAD AND SWAP4 PUSH1 0x1 DUP1 PUSH1 0xA0 SHL SUB PUSH1 0x4 DUP6 ADD SLOAD AND SWAP2 DUP2 MLOAD SWAP5 PUSH4 0x423E7BC1 PUSH1 0xE1 SHL DUP7 MSTORE PUSH1 0x20 DUP7 DUP1 PUSH2 0x4AC8 DUP8 DUP7 DUP11 PUSH1 0x4 DUP6 ADD PUSH2 0x460D JUMP JUMPDEST SUB DUP2 DUP11 GAS STATICCALL SWAP6 DUP7 ISZERO PUSH2 0x4D40 JUMPI PUSH1 0x0 SWAP7 PUSH2 0x4D0C JUMPI JUMPDEST POP PUSH1 0xD DUP2 ADD SLOAD SWAP4 DUP4 MLOAD SWAP8 PUSH4 0xDC4CE349 PUSH1 0xE0 SHL DUP10 MSTORE PUSH1 0x20 DUP10 DUP1 PUSH2 0x4B03 DUP6 DUP11 DUP13 PUSH1 0x4 DUP6 ADD PUSH2 0x4A5B JUMP JUMPDEST SUB DUP2 DUP5 GAS STATICCALL SWAP9 DUP10 ISZERO PUSH2 0x4D01 JUMPI PUSH1 0x0 SWAP10 PUSH2 0x4CCD JUMPI JUMPDEST POP PUSH1 0x0 SWAP3 PUSH1 0x3 PUSH1 0x1 SWAP2 ADD SLOAD SWAP1 JUMPDEST DUP2 DUP2 GT ISZERO PUSH2 0x4C2C JUMPI POP POP PUSH2 0x4B51 SWAP3 SWAP2 PUSH1 0x20 SWAP2 DUP7 MLOAD DUP1 DUP1 SWAP7 DUP2 SWAP5 PUSH4 0x4F44289D PUSH1 0xE0 SHL DUP4 MSTORE DUP13 PUSH1 0x4 DUP5 ADD PUSH2 0x4A08 JUMP JUMPDEST SUB SWAP2 GAS STATICCALL SWAP1 DUP2 ISZERO PUSH2 0x4C21 JUMPI PUSH1 0x0 SWAP2 PUSH2 0x4BEB JUMPI JUMPDEST PUSH2 0x4B6E SWAP3 POP PUSH2 0x4259 JUMP JUMPDEST SWAP4 DUP7 ISZERO PUSH2 0x4BDF JUMPI PUSH1 0x0 MSTORE PUSH1 0x5 PUSH1 0x20 MSTORE DUP2 PUSH1 0x0 KECCAK256 SWAP1 PUSH1 0x1 DUP1 PUSH1 0xA0 SHL SUB AND PUSH1 0x0 MSTORE PUSH1 0x20 MSTORE PUSH1 0x0 KECCAK256 SLOAD SUB PUSH2 0x4BD7 JUMPI DUP1 ISZERO PUSH2 0x4BD1 JUMPI PUSH2 0x2328 DUP1 DUP3 MUL SWAP2 DUP3 DIV SUB PUSH2 0x4266 JUMPI PUSH2 0x2710 SWAP1 DIV SWAP2 DUP3 DUP3 MUL SWAP3 DUP3 DUP5 DIV EQ DUP3 ISZERO OR ISZERO PUSH2 0x4266 JUMPI PUSH2 0x4BCE SWAP3 DIV SWAP1 PUSH2 0x4259 JUMP JUMPDEST SWAP1 JUMP JUMPDEST POP SWAP1 POP SWAP1 JUMP JUMPDEST POP POP POP PUSH1 0x0 SWAP1 JUMP JUMPDEST POP POP POP POP POP POP POP PUSH1 0x0 SWAP1 JUMP JUMPDEST SWAP1 POP PUSH1 0x20 DUP3 RETURNDATASIZE PUSH1 0x20 GT PUSH2 0x4C19 JUMPI JUMPDEST DUP2 PUSH2 0x4C06 PUSH1 0x20 SWAP4 DUP4 PUSH2 0x4008 JUMP JUMPDEST DUP2 ADD SUB SLT PUSH2 0xDBC JUMPI PUSH2 0x4B6E SWAP2 MLOAD SWAP1 PUSH2 0x4B64 JUMP JUMPDEST RETURNDATASIZE SWAP2 POP PUSH2 0x4BF9 JUMP JUMPDEST DUP5 MLOAD RETURNDATASIZE PUSH1 0x0 DUP3 RETURNDATACOPY RETURNDATASIZE SWAP1 REVERT JUMPDEST DUP8 DUP2 SUB PUSH2 0x4C42 JUMPI JUMPDEST PUSH2 0x4C3D SWAP1 PUSH2 0x427C JUMP JUMPDEST PUSH2 0x4B24 JUMP JUMPDEST DUP7 MLOAD PUSH4 0xDC4CE349 PUSH1 0xE0 SHL DUP2 MSTORE SWAP1 SWAP5 SWAP1 PUSH1 0x20 DUP2 DUP1 PUSH2 0x4C64 DUP9 DUP11 DUP16 PUSH1 0x4 DUP6 ADD PUSH2 0x4A5B JUMP JUMPDEST SUB DUP2 DUP8 GAS STATICCALL SWAP1 DUP2 ISZERO PUSH2 0x4CC2 JUMPI PUSH1 0x0 SWAP2 PUSH2 0x4C8E JUMPI JUMPDEST POP PUSH2 0x4C86 SWAP1 PUSH2 0x4C3D SWAP3 PUSH2 0x4259 JUMP JUMPDEST SWAP5 SWAP1 POP PUSH2 0x4C34 JUMP JUMPDEST SWAP1 POP PUSH1 0x20 DUP2 RETURNDATASIZE PUSH1 0x20 GT PUSH2 0x4CBA JUMPI JUMPDEST DUP2 PUSH2 0x4CA9 PUSH1 0x20 SWAP4 DUP4 PUSH2 0x4008 JUMP JUMPDEST DUP2 ADD SUB SLT PUSH2 0xDBC JUMPI MLOAD PUSH2 0x4C3D PUSH2 0x4C78 JUMP JUMPDEST RETURNDATASIZE SWAP2 POP PUSH2 0x4C9C JUMP JUMPDEST DUP9 MLOAD RETURNDATASIZE PUSH1 0x0 DUP3 RETURNDATACOPY RETURNDATASIZE SWAP1 REVERT JUMPDEST SWAP1 SWAP9 POP PUSH1 0x20 DUP2 RETURNDATASIZE PUSH1 0x20 GT PUSH2 0x4CF9 JUMPI JUMPDEST DUP2 PUSH2 0x4CE9 PUSH1 0x20 SWAP4 DUP4 PUSH2 0x4008 JUMP JUMPDEST DUP2 ADD SUB SLT PUSH2 0xDBC JUMPI MLOAD SWAP8 CODESIZE PUSH2 0x4B17 JUMP JUMPDEST RETURNDATASIZE SWAP2 POP PUSH2 0x4CDC JUMP JUMPDEST DUP6 MLOAD RETURNDATASIZE PUSH1 0x0 DUP3 RETURNDATACOPY RETURNDATASIZE SWAP1 REVERT JUMPDEST SWAP1 SWAP6 POP PUSH1 0x20 DUP2 RETURNDATASIZE PUSH1 0x20 GT PUSH2 0x4D38 JUMPI JUMPDEST DUP2 PUSH2 0x4D28 PUSH1 0x20 SWAP4 DUP4 PUSH2 0x4008 JUMP JUMPDEST DUP2 ADD SUB SLT PUSH2 0xDBC JUMPI MLOAD SWAP5 CODESIZE PUSH2 0x4ADC JUMP JUMPDEST RETURNDATASIZE SWAP2 POP PUSH2 0x4D1B JUMP JUMPDEST DUP4 MLOAD RETURNDATASIZE PUSH1 0x0 DUP3 RETURNDATACOPY RETURNDATASIZE SWAP1 REVERT JUMPDEST PUSH1 0x0 SWAP1 DUP1 DUP3 MSTORE PUSH1 0x20 SWAP1 PUSH1 0x2 DUP3 MSTORE PUSH1 0x40 SWAP2 DUP3 DUP5 KECCAK256 SWAP2 DUP5 SWAP2 PUSH1 0x1 SWAP4 PUSH1 0x3 DUP2 ADD SLOAD PUSH1 0xD DUP3 ADD SLOAD SWAP6 JUMPDEST DUP2 DUP2 GT ISZERO PUSH2 0x5161 JUMPI POP POP PUSH1 0xC SLOAD PUSH1 0x4 DUP3 DUP2 ADD DUP1 SLOAD DUP10 MLOAD PUSH4 0x4F44289D PUSH1 0xE0 SHL DUP2 MSTORE PUSH1 0x1 PUSH1 0x1 PUSH1 0xA0 SHL SUB SWAP10 SWAP3 SWAP9 SWAP4 SWAP8 SWAP3 SWAP5 DUP11 AND SWAP4 SWAP2 DUP11 AND SWAP3 SWAP2 DUP8 DUP3 DUP1 PUSH2 0x4DB7 DUP8 DUP8 DUP4 DUP16 ADD PUSH2 0x4A08 JUMP JUMPDEST SUB DUP2 DUP9 GAS STATICCALL SWAP2 DUP3 ISZERO PUSH2 0x5157 JUMPI SWAP2 DUP10 SWAP2 DUP14 SWAP10 SWAP9 SWAP8 SWAP7 SWAP6 SWAP5 SWAP4 DUP16 SWAP3 PUSH2 0x5110 JUMPI JUMPDEST POP SWAP2 PUSH2 0x4DFF DUP6 PUSH2 0x4DE7 DUP7 SWAP5 DUP13 SWAP7 PUSH2 0x4259 JUMP JUMPDEST SWAP12 MLOAD PUSH4 0xDC4CE349 PUSH1 0xE0 SHL DUP2 MSTORE SWAP9 DUP10 SWAP5 DUP6 SWAP5 DUP6 ADD PUSH2 0x4A5B JUMP JUMPDEST SUB DUP2 DUP7 GAS STATICCALL SWAP4 DUP5 ISZERO PUSH2 0x50D1 JUMPI SWAP1 DUP7 SWAP2 DUP14 SWAP6 PUSH2 0x50DB JUMPI JUMPDEST POP DUP12 MLOAD PUSH4 0x3D1E7BA1 PUSH1 0xE1 SHL DUP2 MSTORE SWAP2 SWAP1 DUP3 SWAP1 DUP2 SWAP1 PUSH2 0x4E36 SWAP1 DUP7 SWAP1 DUP14 DUP5 ADD PUSH2 0x4A08 JUMP JUMPDEST SUB DUP2 DUP7 GAS STATICCALL SWAP6 DUP7 ISZERO PUSH2 0x50D1 JUMPI DUP13 SWAP7 PUSH2 0x509D JUMPI JUMPDEST POP POP PUSH2 0x15E SWAP6 DUP7 DUP7 MUL DUP7 ISZERO SWAP8 DUP8 DUP3 DIV EQ DUP9 OR ISZERO PUSH2 0x508A JUMPI PUSH2 0x2710 DUP1 SWAP2 DIV SWAP8 PUSH2 0x1F4 SWAP1 DUP2 DUP10 MUL SWAP2 DUP10 DUP4 DIV EQ OR ISZERO PUSH2 0x5077 JUMPI DIV SWAP4 PUSH2 0x4F7D JUMPI POP POP POP POP DUP3 PUSH2 0x4F0E JUMPI JUMPDEST POP SWAP1 PUSH2 0x4E94 SWAP2 PUSH2 0x4600 JUMP JUMPDEST SWAP3 DUP4 PUSH2 0x4EA3 JUMPI JUMPDEST POP POP POP POP POP POP JUMP JUMPDEST DUP1 PUSH1 0xC SLOAD AND SWAP3 SLOAD AND SWAP1 DUP3 EXTCODESIZE ISZERO PUSH2 0x5C3 JUMPI SWAP2 DUP5 SWAP4 SWAP2 DUP7 DUP1 SWAP5 PUSH2 0x4ED7 SWAP8 MLOAD SWAP8 DUP9 SWAP6 DUP7 SWAP5 DUP6 SWAP4 PUSH4 0xF0824F33 PUSH1 0xE0 SHL DUP6 MSTORE DUP5 ADD PUSH2 0x480B JUMP JUMPDEST SUB SWAP3 GAS CALL SWAP1 DUP2 ISZERO PUSH2 0x4F05 JUMPI POP PUSH2 0x4EF1 JUMPI JUMPDEST DUP1 DUP1 DUP1 DUP1 PUSH2 0x4E9B JUMP JUMPDEST PUSH2 0x4EFB DUP3 SWAP2 PUSH2 0x3FA3 JUMP JUMPDEST PUSH2 0x296 JUMPI DUP1 PUSH2 0x4EE8 JUMP JUMPDEST MLOAD RETURNDATASIZE DUP5 DUP3 RETURNDATACOPY RETURNDATASIZE SWAP1 REVERT JUMPDEST DUP6 DUP1 PUSH1 0xC SLOAD AND SWAP2 SLOAD AND DUP7 DUP7 SLOAD AND SWAP1 DUP3 EXTCODESIZE ISZERO PUSH2 0x25A8 JUMPI PUSH2 0x4F47 SWAP3 DUP11 SWAP3 DUP4 DUP8 SWAP4 DUP13 MLOAD SWAP7 DUP8 SWAP6 DUP7 SWAP5 DUP6 SWAP4 PUSH4 0x112CD223 PUSH1 0xE0 SHL DUP6 MSTORE DUP14 DUP6 ADD PUSH2 0x4387 JUMP JUMPDEST SUB SWAP3 GAS CALL DUP1 ISZERO PUSH2 0x4F73 JUMPI SWAP1 DUP9 SWAP2 PUSH2 0x4F5F JUMPI JUMPDEST POP PUSH2 0x4E89 JUMP JUMPDEST PUSH2 0x4F68 SWAP1 PUSH2 0x3FA3 JUMP JUMPDEST PUSH2 0xA58 JUMPI DUP7 CODESIZE PUSH2 0x4F59 JUMP JUMPDEST DUP8 MLOAD RETURNDATASIZE DUP11 DUP3 RETURNDATACOPY RETURNDATASIZE SWAP1 REVERT JUMPDEST SWAP1 SWAP3 SWAP9 SWAP6 SWAP5 POP SWAP3 SWAP1 SWAP3 PUSH2 0x4F97 JUMPI JUMPDEST POP POP POP POP POP POP POP POP POP POP JUMP JUMPDEST DUP5 SWAP1 DUP5 PUSH2 0x5015 JUMPI JUMPDEST POP POP POP POP POP DUP4 PUSH2 0x4FB3 JUMPI JUMPDEST DUP1 DUP1 DUP1 DUP1 PUSH2 0x4F8B JUMP JUMPDEST DUP1 PUSH1 0xC SLOAD AND SWAP3 SLOAD AND SWAP1 DUP3 EXTCODESIZE ISZERO PUSH2 0x5C3 JUMPI SWAP2 DUP5 SWAP4 SWAP2 DUP7 DUP1 SWAP5 PUSH2 0x4FE7 SWAP8 MLOAD SWAP8 DUP9 SWAP6 DUP7 SWAP5 DUP6 SWAP4 PUSH4 0x48FEF595 PUSH1 0xE0 SHL DUP6 MSTORE DUP5 ADD PUSH2 0x480B JUMP JUMPDEST SUB SWAP3 GAS CALL SWAP1 DUP2 ISZERO PUSH2 0x4F05 JUMPI POP PUSH2 0x5001 JUMPI JUMPDEST DUP1 DUP1 DUP1 DUP1 PUSH2 0x4FAA JUMP JUMPDEST PUSH2 0x500B DUP3 SWAP2 PUSH2 0x3FA3 JUMP JUMPDEST PUSH2 0x296 JUMPI DUP1 PUSH2 0x4FF8 JUMP JUMPDEST SLOAD AND DUP3 EXTCODESIZE ISZERO PUSH2 0x25A8 JUMPI SWAP2 PUSH2 0x5042 SWAP4 SWAP2 DUP11 DUP1 SWAP5 DUP12 MLOAD SWAP7 DUP8 SWAP6 DUP7 SWAP5 DUP6 SWAP4 PUSH4 0x112CD223 PUSH1 0xE0 SHL DUP6 MSTORE DUP13 DUP6 ADD PUSH2 0x4387 JUMP JUMPDEST SUB SWAP3 GAS CALL DUP1 ISZERO PUSH2 0x506D JUMPI PUSH2 0x505A JUMPI JUMPDEST DUP1 DUP1 DUP4 DUP2 PUSH2 0x4F9F JUMP JUMPDEST PUSH2 0x5066 SWAP1 SWAP7 SWAP2 SWAP7 PUSH2 0x3FA3 JUMP JUMPDEST SWAP5 CODESIZE PUSH2 0x5051 JUMP JUMPDEST DUP7 MLOAD RETURNDATASIZE DUP10 DUP3 RETURNDATACOPY RETURNDATASIZE SWAP1 REVERT JUMPDEST PUSH4 0x4E487B71 PUSH1 0xE0 SHL DUP15 MSTORE PUSH1 0x11 DUP11 MSTORE PUSH1 0x24 DUP15 REVERT JUMPDEST PUSH4 0x4E487B71 PUSH1 0xE0 SHL DUP14 MSTORE PUSH1 0x11 DUP10 MSTORE PUSH1 0x24 DUP14 REVERT JUMPDEST SWAP1 DUP1 SWAP3 SWAP7 POP DUP2 RETURNDATASIZE DUP4 GT PUSH2 0x50CA JUMPI JUMPDEST PUSH2 0x50B5 DUP2 DUP4 PUSH2 0x4008 JUMP JUMPDEST DUP2 ADD SUB SLT PUSH2 0x50C6 JUMPI MLOAD SWAP4 CODESIZE DUP1 PUSH2 0x4E49 JUMP JUMPDEST DUP11 DUP1 REVERT JUMPDEST POP RETURNDATASIZE PUSH2 0x50AB JUMP JUMPDEST DUP12 MLOAD RETURNDATASIZE DUP15 DUP3 RETURNDATACOPY RETURNDATASIZE SWAP1 REVERT JUMPDEST DUP3 DUP2 SWAP4 SWAP3 SWAP7 POP RETURNDATASIZE DUP4 GT PUSH2 0x5109 JUMPI JUMPDEST PUSH2 0x50F3 DUP2 DUP4 PUSH2 0x4008 JUMP JUMPDEST DUP2 ADD SUB SLT PUSH2 0x5105 JUMPI MLOAD SWAP3 DUP6 SWAP1 DUP3 PUSH2 0x4E15 JUMP JUMPDEST DUP12 DUP1 REVERT JUMPDEST POP RETURNDATASIZE PUSH2 0x50E9 JUMP JUMPDEST SWAP3 POP SWAP3 SWAP4 SWAP5 SWAP6 SWAP7 SWAP8 SWAP9 POP POP DUP8 DUP2 DUP2 RETURNDATASIZE DUP4 GT PUSH2 0x5150 JUMPI JUMPDEST PUSH2 0x5130 DUP2 DUP4 PUSH2 0x4008 JUMP JUMPDEST DUP2 ADD SUB SLT PUSH2 0x514C JUMPI MLOAD DUP12 SWAP8 SWAP7 SWAP6 SWAP5 SWAP4 SWAP3 SWAP2 DUP10 SWAP2 SWAP1 PUSH2 0x4DFF PUSH2 0x4DD5 JUMP JUMPDEST DUP13 DUP1 REVERT JUMPDEST POP RETURNDATASIZE PUSH2 0x5126 JUMP JUMPDEST DUP13 MLOAD RETURNDATASIZE DUP16 DUP3 RETURNDATACOPY RETURNDATASIZE SWAP1 REVERT JUMPDEST DUP7 DUP2 SUB PUSH2 0x5177 JUMPI JUMPDEST PUSH2 0x5172 SWAP1 PUSH2 0x427C JUMP JUMPDEST PUSH2 0x4D70 JUMP JUMPDEST SWAP5 DUP8 DUP5 DUP8 PUSH1 0x1 DUP1 PUSH1 0xA0 SHL SUB DUP9 DUP2 PUSH1 0xC SLOAD AND SWAP2 PUSH2 0x51AE PUSH1 0x4 SWAP2 DUP3 DUP12 ADD SLOAD AND SWAP7 MLOAD SWAP7 DUP8 SWAP6 DUP7 SWAP5 DUP6 SWAP5 PUSH4 0xDC4CE349 PUSH1 0xE0 SHL DUP7 MSTORE DUP6 ADD PUSH2 0x4A5B JUMP JUMPDEST SUB SWAP2 GAS STATICCALL SWAP1 DUP2 ISZERO PUSH2 0x5205 JUMPI DUP11 SWAP2 PUSH2 0x51D6 JUMPI JUMPDEST POP PUSH2 0x51CE SWAP1 PUSH2 0x5172 SWAP3 PUSH2 0x4259 JUMP JUMPDEST SWAP6 SWAP1 POP PUSH2 0x5169 JUMP JUMPDEST SWAP1 POP DUP5 DUP2 DUP2 RETURNDATASIZE DUP4 GT PUSH2 0x51FE JUMPI JUMPDEST PUSH2 0x51ED DUP2 DUP4 PUSH2 0x4008 JUMP JUMPDEST DUP2 ADD SUB SLT PUSH2 0x25A8 JUMPI MLOAD PUSH2 0x5172 PUSH2 0x51C0 JUMP JUMPDEST POP RETURNDATASIZE PUSH2 0x51E3 JUMP JUMPDEST DUP10 MLOAD RETURNDATASIZE DUP13 DUP3 RETURNDATACOPY RETURNDATASIZE SWAP1 REVERT JUMPDEST SWAP1 PUSH2 0x5266 PUSH1 0x0 DUP1 MLOAD PUSH1 0x20 PUSH2 0x5768 DUP4 CODECOPY DUP2 MLOAD SWAP2 MSTORE SWAP2 DUP4 PUSH1 0x0 MSTORE PUSH1 0x2 PUSH1 0x20 MSTORE PUSH1 0xC PUSH1 0x40 PUSH1 0x0 KECCAK256 ADD PUSH1 0x3 PUSH1 0xFF NOT DUP3 SLOAD AND OR SWAP1 SSTORE PUSH1 0xB PUSH1 0x20 MSTORE PUSH1 0xFF PUSH1 0x40 PUSH1 0x0 KECCAK256 SLOAD AND PUSH2 0x526B JUMPI JUMPDEST PUSH1 0x40 MLOAD SWAP2 DUP3 SWAP2 PUSH1 0x20 DUP4 MSTORE PUSH1 0x20 DUP4 ADD SWAP1 PUSH2 0x4149 JUMP JUMPDEST SUB SWAP1 LOG2 JUMP JUMPDEST PUSH2 0x5274 DUP5 PUSH2 0x5629 JUMP JUMPDEST PUSH2 0x5252 JUMP JUMPDEST SWAP1 SWAP5 SWAP4 SWAP3 PUSH1 0x60 SWAP3 PUSH1 0x80 DUP4 ADD SWAP7 DUP4 MSTORE PUSH1 0x1 DUP1 PUSH1 0xA0 SHL SUB AND PUSH1 0x20 DUP4 ADD MSTORE PUSH1 0x40 DUP3 ADD MSTORE ADD MSTORE JUMP JUMPDEST SWAP4 SWAP1 SWAP4 PUSH1 0x0 SWAP5 DUP2 DUP7 MSTORE PUSH1 0x20 SWAP4 PUSH1 0x3 DUP6 MSTORE PUSH1 0x40 SWAP5 DUP6 DUP9 KECCAK256 SWAP2 PUSH1 0x1 DUP1 PUSH1 0xA0 SHL SUB SWAP3 DUP4 DUP6 AND SWAP1 DUP2 DUP12 MSTORE DUP4 MSTORE PUSH1 0xFF DUP9 DUP12 KECCAK256 SLOAD AND ISZERO PUSH2 0x5416 JUMPI JUMPDEST DUP6 DUP11 MSTORE PUSH1 0x3 DUP4 MSTORE DUP8 DUP11 KECCAK256 DUP2 DUP12 MSTORE DUP4 MSTORE DUP8 DUP11 KECCAK256 PUSH1 0x1 PUSH1 0xFF NOT DUP3 SLOAD AND OR SWAP1 SSTORE DUP6 DUP11 MSTORE PUSH1 0x5 DUP4 MSTORE DUP8 DUP11 KECCAK256 SWAP1 DUP11 MSTORE DUP3 MSTORE DUP6 DUP8 DUP11 KECCAK256 SSTORE DUP3 PUSH1 0xC SLOAD AND DUP1 EXTCODESIZE ISZERO PUSH2 0x25A8 JUMPI DUP9 SWAP2 DUP11 SWAP2 DUP7 DUP4 DUP10 PUSH2 0x5336 DUP13 DUP15 MLOAD SWAP9 DUP10 SWAP8 DUP9 SWAP7 DUP8 SWAP6 PUSH4 0x95F41095 PUSH1 0xE0 SHL DUP8 MSTORE PUSH1 0x4 DUP8 ADD PUSH2 0x4357 JUMP JUMPDEST SUB SWAP3 GAS CALL DUP1 ISZERO PUSH2 0x53F9 JUMPI PUSH2 0x5403 JUMPI JUMPDEST POP PUSH1 0x4 DUP2 DUP4 PUSH1 0xD SLOAD AND DUP9 MLOAD SWAP3 DUP4 DUP1 SWAP3 PUSH4 0x406AD645 PUSH1 0xE1 SHL DUP3 MSTORE GAS STATICCALL SWAP2 DUP3 ISZERO PUSH2 0x53F9 JUMPI DUP10 SWAP3 PUSH2 0x53DC JUMPI JUMPDEST POP POP AND SWAP2 DUP3 PUSH2 0x5381 JUMPI JUMPDEST POP POP POP POP POP POP POP JUMP JUMPDEST DUP3 EXTCODESIZE ISZERO PUSH2 0xA58 JUMPI SWAP1 DUP7 DUP1 SWAP5 SWAP4 SWAP3 PUSH2 0x53AD DUP8 MLOAD SWAP9 DUP10 SWAP7 DUP8 SWAP6 DUP7 SWAP5 PUSH4 0xC228038D PUSH1 0xE0 SHL DUP7 MSTORE PUSH1 0x4 DUP7 ADD PUSH2 0x5279 JUMP JUMPDEST SUB SWAP3 GAS CALL SWAP1 DUP2 ISZERO PUSH2 0x4F05 JUMPI POP PUSH2 0x53C8 JUMPI JUMPDEST DUP1 DUP1 DUP1 DUP1 DUP1 PUSH2 0x5378 JUMP JUMPDEST PUSH2 0x53D2 DUP3 SWAP2 PUSH2 0x3FA3 JUMP JUMPDEST PUSH2 0x296 JUMPI DUP1 PUSH2 0x53BE JUMP JUMPDEST PUSH2 0x53F2 SWAP3 POP DUP1 RETURNDATASIZE LT PUSH2 0x890 JUMPI PUSH2 0x881 DUP2 DUP4 PUSH2 0x4008 JUMP JUMPDEST CODESIZE DUP1 PUSH2 0x536E JUMP JUMPDEST DUP8 MLOAD RETURNDATASIZE DUP12 DUP3 RETURNDATACOPY RETURNDATASIZE SWAP1 REVERT JUMPDEST PUSH2 0x540F SWAP1 SWAP9 SWAP2 SWAP9 PUSH2 0x3FA3 JUMP JUMPDEST SWAP7 CODESIZE PUSH2 0x5345 JUMP JUMPDEST DUP6 DUP11 MSTORE PUSH1 0x6 DUP4 MSTORE PUSH2 0x5429 DUP6 DUP10 DUP13 KECCAK256 PUSH2 0x457E JUMP JUMPDEST DUP1 DUP11 MSTORE PUSH1 0x8 DUP4 MSTORE PUSH2 0x543C DUP7 DUP10 DUP13 KECCAK256 PUSH2 0x42BF JUMP JUMPDEST PUSH2 0x52D2 JUMP JUMPDEST ISZERO PUSH2 0x5448 JUMPI JUMP JUMPDEST PUSH1 0x40 MLOAD PUSH3 0x461BCD PUSH1 0xE5 SHL DUP2 MSTORE PUSH1 0x20 PUSH1 0x4 DUP3 ADD MSTORE PUSH1 0x12 PUSH1 0x24 DUP3 ADD MSTORE PUSH18 0x11540E881CDD185ADA5B99C818DB1BDCD959 PUSH1 0x72 SHL PUSH1 0x44 DUP3 ADD MSTORE PUSH1 0x64 SWAP1 REVERT JUMPDEST PUSH1 0xD SLOAD PUSH1 0x40 MLOAD PUSH4 0x111A7989 PUSH1 0xE3 SHL DUP2 MSTORE PUSH1 0x20 SWAP3 SWAP2 PUSH1 0x1 PUSH1 0x1 PUSH1 0xA0 SHL SUB AND SWAP1 DUP4 DUP2 PUSH1 0x4 DUP2 DUP6 GAS STATICCALL SWAP1 DUP2 ISZERO PUSH2 0x443B JUMPI PUSH1 0x0 SWAP2 PUSH2 0x5553 JUMPI JUMPDEST POP ISZERO PUSH2 0x5542 JUMPI DUP3 PUSH1 0x4 SWAP2 PUSH1 0x40 MLOAD SWAP3 DUP4 DUP1 SWAP3 PUSH4 0x2EAA712B PUSH1 0xE2 SHL DUP3 MSTORE GAS STATICCALL SWAP3 DUP4 ISZERO PUSH2 0x443B JUMPI PUSH1 0x0 SWAP4 PUSH2 0x5510 JUMPI JUMPDEST POP POP PUSH1 0x9 ADD SLOAD PUSH1 0x3C DUP3 MUL SWAP2 DUP1 DUP4 DIV PUSH1 0x3C EQ SWAP1 ISZERO OR ISZERO PUSH2 0x4266 JUMPI PUSH2 0x40BE SWAP2 PUSH2 0x5509 SWAP2 PUSH2 0x4600 JUMP JUMPDEST TIMESTAMP LT PUSH2 0x5441 JUMP JUMPDEST DUP2 DUP2 SWAP5 SWAP3 SWAP4 SWAP5 RETURNDATASIZE DUP4 GT PUSH2 0x553B JUMPI JUMPDEST PUSH2 0x5528 DUP2 DUP4 PUSH2 0x4008 JUMP JUMPDEST DUP2 ADD SUB SLT PUSH2 0x296 JUMPI POP MLOAD SWAP1 PUSH1 0x9 CODESIZE PUSH2 0x54E3 JUMP JUMPDEST POP RETURNDATASIZE PUSH2 0x551E JUMP JUMPDEST POP PUSH2 0x40BE SWAP2 POP PUSH1 0x9 ADD SLOAD TIMESTAMP LT PUSH2 0x5441 JUMP JUMPDEST SWAP1 DUP5 DUP3 DUP2 RETURNDATASIZE DUP4 GT PUSH2 0x5581 JUMPI JUMPDEST PUSH2 0x5569 DUP2 DUP4 PUSH2 0x4008 JUMP JUMPDEST DUP2 ADD SUB SLT PUSH2 0x296 JUMPI POP PUSH2 0x557B SWAP1 PUSH2 0x41CA JUMP JUMPDEST CODESIZE PUSH2 0x54B7 JUMP JUMPDEST POP RETURNDATASIZE PUSH2 0x555F JUMP JUMPDEST PUSH1 0xD SLOAD PUSH1 0x40 MLOAD PUSH4 0x406AD645 PUSH1 0xE1 SHL DUP2 MSTORE PUSH1 0x1 PUSH1 0x1 PUSH1 0xA0 SHL SUB SWAP2 PUSH1 0x20 SWAP1 DUP3 SWAP1 PUSH1 0x4 SWAP1 DUP3 SWAP1 DUP7 AND GAS STATICCALL SWAP1 DUP2 ISZERO PUSH2 0x443B JUMPI PUSH1 0x0 SWAP2 PUSH2 0x560B JUMPI JUMPDEST POP AND SWAP2 DUP3 PUSH2 0x55CB JUMPI POP POP POP JUMP JUMPDEST DUP3 EXTCODESIZE ISZERO PUSH2 0xDBC JUMPI PUSH1 0x44 PUSH1 0x0 SWAP3 DUP4 PUSH1 0x40 MLOAD SWAP6 DUP7 SWAP5 DUP6 SWAP4 PUSH3 0xFF4A73 PUSH1 0xE8 SHL DUP6 MSTORE PUSH1 0x4 DUP6 ADD MSTORE PUSH1 0x24 DUP5 ADD MSTORE GAS CALL DUP1 ISZERO PUSH2 0x443B JUMPI PUSH2 0x5602 JUMPI POP JUMP JUMPDEST PUSH2 0x40BE SWAP1 PUSH2 0x3FA3 JUMP JUMPDEST PUSH2 0x5623 SWAP2 POP PUSH1 0x20 RETURNDATASIZE DUP2 GT PUSH2 0x890 JUMPI PUSH2 0x881 DUP2 DUP4 PUSH2 0x4008 JUMP JUMPDEST CODESIZE PUSH2 0x55BE JUMP JUMPDEST PUSH1 0x0 JUMPDEST PUSH1 0xA SWAP1 DUP2 SLOAD SWAP2 DUP3 DUP3 LT ISZERO PUSH2 0x56DE JUMPI DUP4 SWAP3 PUSH2 0x5645 DUP4 PUSH2 0x3F5A JUMP JUMPDEST SWAP5 SWAP1 SLOAD PUSH1 0x3 SWAP6 DUP7 SHL SHR EQ PUSH2 0x5664 JUMPI POP POP PUSH2 0x565F SWAP2 POP PUSH2 0x427C JUMP JUMPDEST PUSH2 0x562C JUMP JUMPDEST SWAP1 SWAP2 PUSH1 0x0 NOT SWAP2 DUP3 DUP2 ADD SWAP1 DUP2 GT PUSH2 0x4266 JUMPI PUSH2 0x2C2F PUSH2 0x5683 PUSH2 0x568F SWAP3 PUSH2 0x3F5A JUMP JUMPDEST SWAP1 SLOAD SWAP1 DUP8 SHL SHR SWAP3 PUSH2 0x3F5A JUMP JUMPDEST SWAP1 SSTORE DUP2 SLOAD DUP1 ISZERO PUSH2 0x56C8 JUMPI DUP2 ADD SWAP3 PUSH2 0x56A5 DUP5 PUSH2 0x3F5A JUMP JUMPDEST DUP2 SWAP4 SWAP2 SLOAD SWAP3 SHL SHL NOT AND SWAP1 SSTORE SSTORE PUSH1 0x0 MSTORE PUSH1 0xB PUSH1 0x20 MSTORE PUSH1 0x40 PUSH1 0x0 KECCAK256 PUSH1 0xFF NOT DUP2 SLOAD AND SWAP1 SSTORE JUMP JUMPDEST PUSH4 0x4E487B71 PUSH1 0xE0 SHL PUSH1 0x0 MSTORE PUSH1 0x31 PUSH1 0x4 MSTORE PUSH1 0x24 PUSH1 0x0 REVERT JUMPDEST POP POP POP POP JUMP JUMPDEST ISZERO PUSH2 0x56EB JUMPI JUMP JUMPDEST PUSH1 0x40 MLOAD PUSH3 0x461BCD PUSH1 0xE5 SHL DUP2 MSTORE PUSH1 0x20 PUSH1 0x4 DUP3 ADD MSTORE PUSH1 0x10 PUSH1 0x24 DUP3 ADD MSTORE PUSH16 0x45503A207A65726F2061646472657373 PUSH1 0x80 SHL PUSH1 0x44 DUP3 ADD MSTORE PUSH1 0x64 SWAP1 REVERT JUMPDEST ISZERO PUSH2 0x572A JUMPI JUMP JUMPDEST PUSH1 0x40 MLOAD PUSH3 0x461BCD PUSH1 0xE5 SHL DUP2 MSTORE PUSH1 0x20 PUSH1 0x4 DUP3 ADD MSTORE PUSH1 0x15 PUSH1 0x24 DUP3 ADD MSTORE PUSH21 0x22A81D1037B7363C9020B236B4B726B0B730B3B2B9 PUSH1 0x59 SHL PUSH1 0x44 DUP3 ADD MSTORE PUSH1 0x64 SWAP1 REVERT INVALID 0x4C GASLIMIT PUSH2 0xC5B0 DIV DUP5 0x24 SMOD SHR GT ISZERO 0xE9 CALL 0xE3 0x25 BASEFEE PUSH15 0x21C21333D968F21097B7B72D12AD8B 0xE0 SMOD SWAP13 MSTORE8 AND MSIZE EQ SGT PREVRANDAO 0xCD 0x1F 0xD0 LOG4 CALLCODE DUP5 NOT 0x49 PUSH32 0x9722A3DAAFE3B4186F6B6457E06DFC24F0F2FB42E49FB4FA3FFA8ABB148CAB90 DUP11 0x1F 0xB8 CALLER JUMPDEST EXTCODEHASH SLT DUP11 ADDMOD 0xB2 MSIZE 0x4A CALL 0xE1 0xF 0xDD 0xE2 0xC5 0xCD SWAP12 SWAP3 0xE4 0x49 0xEE 0x25 0xDF ADD INVALID 0xBD LOG2 0xCB 0xEB 0xC5 SSTORE RETURNDATACOPY CODESIZE CALLCODE 0x25 0xF INVALID PUSH32 0x2D5143BCA164736F6C6343000814000A00000000000000000000000000000000 "},"methodIdentifiers":{"CREATOR_FEE_BPS()":"cc3cbd2a","PLATFORM_FEE_BPS()":"539aa77f","activeMarkets(uint256)":"3adfe6d0","adminManager()":"a210b6a4","assertionGracePeriod()":"93fcf24d","calculateWinnings(uint256,address)":"f15cc406","cancelMarket(uint256)":"7c16cd9e","cancelMarketNoAssertion(uint256)":"87a6b0ff","claimRefund(uint256)":"5b7baf64","claimWinnings(uint256)":"677bd9ff","createMarket(string,bool,uint256,address,uint256,uint256,uint256,uint256,uint256,uint8,address,uint256)":"66cf7ed4","creatorCancelMarket(uint256)":"c3436e0c","defaultBondCurrency()":"209c1c94","disputeOracle(uint256,uint256)":"bf5f984b","endMarket(uint256)":"157bdcce","getMarket(uint256)":"eb44fdd3","getMarketStakers(uint256)":"6f59359e","getNextMarketId()":"fe53a6e8","getOptionPool(uint256,uint256,address)":"dc4ce349","getStakerCount(uint256)":"0ccf4467","getSupportPool(uint256,address)":"4f44289d","getSupporterCount(uint256)":"a30a0914","getTotalPool(uint256,address)":"f00fe321","getUserStake(uint256,address,address)":"847cf782","getUserSupport(uint256,address,address)":"256ba741","isActiveMarket(uint256)":"0d64cdbd","markMarketDeleted(uint256)":"fb87f2c3","markMarketPermanentlyRemoved(uint256)":"e0bd4acc","marketCreationFee()":"2ef1bdfa","marketStakers(uint256,uint256)":"d5f82707","marketSupporters(uint256,uint256)":"c22c62c3","markets(uint256)":"b1283e77","nextMarketId()":"406ef2ef","optimisticOracle()":"22302922","owner()":"8da5cb5b","placeStake(uint256,uint256)":"f4867591","placeStakeWithToken(uint256,uint256,uint256)":"f1b7dde3","renounceOwnership()":"715018a6","requestP2PResolution(uint256,uint256,bytes)":"8d0d180e","resolveP2PMarket(uint256)":"6d4476ec","resolvePriceFeedMarket(uint256)":"9a3a40d6","setAdminManager(address)":"bc160758","setAssertionGracePeriod(uint256)":"818ef5f6","setDefaultBondCurrency(address)":"a550725d","setOptimisticOracle(address)":"bf5c3252","settleOracle(uint256)":"569946c5","supportMarket(uint256,uint256)":"f204072f","transferOwnership(address)":"f2fde38b","treasury()":"61d027b3","userHasStaked(uint256,address)":"304bf1f1","userHasSupported(uint256,address)":"287f57b5","userMarketHistory(address,uint256)":"98a17671","userStakeOptions(uint256,address)":"d8c5dd67","withdrawSupport(uint256)":"3e32a76c"}}}}}