{"contracts/WebSocketTest.sol":{"WebSocketTest":{"abi":[{"anonymous":false,"inputs":[{"indexed":true,"internalType":"uint256","name":"counter","type":"uint256"},{"indexed":false,"internalType":"string","name":"message","type":"string"},{"indexed":false,"internalType":"uint256","name":"timestamp","type":"uint256"},{"indexed":true,"internalType":"address","name":"caller","type":"address"}],"name":"TestEvent","type":"event"},{"inputs":[],"name":"counter","outputs":[{"internalType":"uint256","name":"","type":"uint256"}],"stateMutability":"view","type":"function"},{"inputs":[{"internalType":"string","name":"message","type":"string"}],"name":"emitTestEvent","outputs":[],"stateMutability":"nonpayable","type":"function"},{"inputs":[],"name":"getCounter","outputs":[{"internalType":"uint256","name":"","type":"uint256"}],"stateMutability":"view","type":"function"}],"evm":{"bytecode":{"linkReferences":{},"object":"60808060405234610016576101d1908161001c8239f35b600080fdfe6080604081815260048036101561001557600080fd5b600092833560e01c90816361bc221a146101aa575080638ada066e146101895763e50b61cf1461004457600080fd5b346101575760209081600319360112610185578035906001600160401b0390818311610181573660238401121561018157828101359282841161016e57855193601f1993601f82018516603f01851686019081118682101761015b5787528085528791903682820160240111610157578060248893018388013785010152855490600019821461014457506001019283865584519285845280518096850152865b8681106101305750508280926060928884897f370dfedc293fc804c1aad7ce4faca574818f8c01f36f99832842caf98f5aa179980101524290830152601f339701168101030190a380f35b8181018301518582016060015282016100e5565b634e487b7160e01b875260119052602486fd5b8280fd5b634e487b7160e01b895260418452602489fd5b634e487b7160e01b875260418252602487fd5b8580fd5b8380fd5b5050346101a657816003193601126101a657602091549051908152f35b5080fd5b8490346101a657816003193601126101a657602091548152f3fea164736f6c6343000814000a","opcodes":"PUSH1 0x80 DUP1 PUSH1 0x40 MSTORE CALLVALUE PUSH2 0x16 JUMPI PUSH2 0x1D1 SWAP1 DUP2 PUSH2 0x1C DUP3 CODECOPY RETURN JUMPDEST PUSH1 0x0 DUP1 REVERT INVALID PUSH1 0x80 PUSH1 0x40 DUP2 DUP2 MSTORE PUSH1 0x4 DUP1 CALLDATASIZE LT ISZERO PUSH2 0x15 JUMPI PUSH1 0x0 DUP1 REVERT JUMPDEST PUSH1 0x0 SWAP3 DUP4 CALLDATALOAD PUSH1 0xE0 SHR SWAP1 DUP2 PUSH4 0x61BC221A EQ PUSH2 0x1AA JUMPI POP DUP1 PUSH4 0x8ADA066E EQ PUSH2 0x189 JUMPI PUSH4 0xE50B61CF EQ PUSH2 0x44 JUMPI PUSH1 0x0 DUP1 REVERT JUMPDEST CALLVALUE PUSH2 0x157 JUMPI PUSH1 0x20 SWAP1 DUP2 PUSH1 0x3 NOT CALLDATASIZE ADD SLT PUSH2 0x185 JUMPI DUP1 CALLDATALOAD SWAP1 PUSH1 0x1 PUSH1 0x1 PUSH1 0x40 SHL SUB SWAP1 DUP2 DUP4 GT PUSH2 0x181 JUMPI CALLDATASIZE PUSH1 0x23 DUP5 ADD SLT ISZERO PUSH2 0x181 JUMPI DUP3 DUP2 ADD CALLDATALOAD SWAP3 DUP3 DUP5 GT PUSH2 0x16E JUMPI DUP6 MLOAD SWAP4 PUSH1 0x1F NOT SWAP4 PUSH1 0x1F DUP3 ADD DUP6 AND PUSH1 0x3F ADD DUP6 AND DUP7 ADD SWAP1 DUP2 GT DUP7 DUP3 LT OR PUSH2 0x15B JUMPI DUP8 MSTORE DUP1 DUP6 MSTORE DUP8 SWAP2 SWAP1 CALLDATASIZE DUP3 DUP3 ADD PUSH1 0x24 ADD GT PUSH2 0x157 JUMPI DUP1 PUSH1 0x24 DUP9 SWAP4 ADD DUP4 DUP9 ADD CALLDATACOPY DUP6 ADD ADD MSTORE DUP6 SLOAD SWAP1 PUSH1 0x0 NOT DUP3 EQ PUSH2 0x144 JUMPI POP PUSH1 0x1 ADD SWAP3 DUP4 DUP7 SSTORE DUP5 MLOAD SWAP3 DUP6 DUP5 MSTORE DUP1 MLOAD DUP1 SWAP7 DUP6 ADD MSTORE DUP7 JUMPDEST DUP7 DUP2 LT PUSH2 0x130 JUMPI POP POP DUP3 DUP1 SWAP3 PUSH1 0x60 SWAP3 DUP9 DUP5 DUP10 PUSH32 0x370DFEDC293FC804C1AAD7CE4FACA574818F8C01F36F99832842CAF98F5AA179 SWAP9 ADD ADD MSTORE TIMESTAMP SWAP1 DUP4 ADD MSTORE PUSH1 0x1F CALLER SWAP8 ADD AND DUP2 ADD SUB ADD SWAP1 LOG3 DUP1 RETURN JUMPDEST DUP2 DUP2 ADD DUP4 ADD MLOAD DUP6 DUP3 ADD PUSH1 0x60 ADD MSTORE DUP3 ADD PUSH2 0xE5 JUMP JUMPDEST PUSH4 0x4E487B71 PUSH1 0xE0 SHL DUP8 MSTORE PUSH1 0x11 SWAP1 MSTORE PUSH1 0x24 DUP7 REVERT JUMPDEST DUP3 DUP1 REVERT JUMPDEST PUSH4 0x4E487B71 PUSH1 0xE0 SHL DUP10 MSTORE PUSH1 0x41 DUP5 MSTORE PUSH1 0x24 DUP10 REVERT JUMPDEST PUSH4 0x4E487B71 PUSH1 0xE0 SHL DUP8 MSTORE PUSH1 0x41 DUP3 MSTORE PUSH1 0x24 DUP8 REVERT JUMPDEST DUP6 DUP1 REVERT JUMPDEST DUP4 DUP1 REVERT JUMPDEST POP POP CALLVALUE PUSH2 0x1A6 JUMPI DUP2 PUSH1 0x3 NOT CALLDATASIZE ADD SLT PUSH2 0x1A6 JUMPI PUSH1 0x20 SWAP2 SLOAD SWAP1 MLOAD SWAP1 DUP2 MSTORE RETURN JUMPDEST POP DUP1 REVERT JUMPDEST DUP5 SWAP1 CALLVALUE PUSH2 0x1A6 JUMPI DUP2 PUSH1 0x3 NOT CALLDATASIZE ADD SLT PUSH2 0x1A6 JUMPI PUSH1 0x20 SWAP2 SLOAD DUP2 MSTORE RETURN INVALID LOG1 PUSH5 0x736F6C6343 STOP ADDMOD EQ STOP EXP "},"methodIdentifiers":{"counter()":"61bc221a","emitTestEvent(string)":"e50b61cf","getCounter()":"8ada066e"}}}}}