{"contracts/P2PAnalytics.sol":{"MetricsHub":{"abi":[{"inputs":[{"internalType":"address","name":"initialOwner","type":"address"},{"internalType":"address","name":"_marketManager","type":"address"},{"internalType":"address","name":"_p2pErc20Token","type":"address"}],"stateMutability":"nonpayable","type":"constructor"},{"inputs":[{"internalType":"address","name":"owner","type":"address"}],"name":"OwnableInvalidOwner","type":"error"},{"inputs":[{"internalType":"address","name":"account","type":"address"}],"name":"OwnableUnauthorizedAccount","type":"error"},{"anonymous":false,"inputs":[{"indexed":false,"internalType":"uint256","name":"totalMarkets","type":"uint256"},{"indexed":false,"internalType":"uint256","name":"totalVolume","type":"uint256"}],"name":"GlobalStatsUpdated","type":"event"},{"anonymous":false,"inputs":[{"indexed":true,"internalType":"uint256","name":"marketId","type":"uint256"},{"indexed":false,"internalType":"uint256","name":"volume","type":"uint256"},{"indexed":false,"internalType":"uint256","name":"stakers","type":"uint256"}],"name":"MarketStatsUpdated","type":"event"},{"anonymous":false,"inputs":[{"indexed":true,"internalType":"address","name":"previousOwner","type":"address"},{"indexed":true,"internalType":"address","name":"newOwner","type":"address"}],"name":"OwnershipTransferred","type":"event"},{"anonymous":false,"inputs":[{"indexed":true,"internalType":"address","name":"user","type":"address"},{"indexed":false,"internalType":"uint256","name":"totalStakes","type":"uint256"},{"indexed":false,"internalType":"uint256","name":"winnings","type":"uint256"}],"name":"UserStatsUpdated","type":"event"},{"inputs":[{"internalType":"uint256","name":"minVolume","type":"uint256"}],"name":"getActiveMarketsByMinVolume","outputs":[{"internalType":"uint256[]","name":"","type":"uint256[]"}],"stateMutability":"view","type":"function"},{"inputs":[{"internalType":"uint256","name":"limit","type":"uint256"}],"name":"getActiveMarketsByParticipants","outputs":[{"internalType":"uint256[]","name":"","type":"uint256[]"},{"internalType":"uint256[]","name":"","type":"uint256[]"}],"stateMutability":"view","type":"function"},{"inputs":[{"internalType":"uint256","name":"limit","type":"uint256"}],"name":"getActiveMarketsByStakerCount","outputs":[{"internalType":"uint256[]","name":"","type":"uint256[]"},{"internalType":"uint256[]","name":"","type":"uint256[]"}],"stateMutability":"view","type":"function"},{"inputs":[{"internalType":"uint256","name":"limit","type":"uint256"}],"name":"getActiveMarketsByVolume","outputs":[{"internalType":"uint256[]","name":"","type":"uint256[]"},{"internalType":"uint256[]","name":"","type":"uint256[]"}],"stateMutability":"view","type":"function"},{"inputs":[],"name":"getGlobalStats","outputs":[{"components":[{"internalType":"uint256","name":"totalMarkets","type":"uint256"},{"internalType":"uint256","name":"totalVolume","type":"uint256"},{"internalType":"uint256","name":"totalStakers","type":"uint256"},{"internalType":"uint256","name":"totalSupporters","type":"uint256"},{"internalType":"uint256","name":"totalWinnings","type":"uint256"},{"internalType":"uint256","name":"averageMarketSize","type":"uint256"},{"internalType":"uint256","name":"mostActiveToken","type":"uint256"},{"internalType":"uint256","name":"averageResolutionTime","type":"uint256"}],"internalType":"struct MetricsHub.GlobalStats","name":"","type":"tuple"}],"stateMutability":"view","type":"function"},{"inputs":[{"internalType":"uint256","name":"marketId","type":"uint256"}],"name":"getMarketStats","outputs":[{"components":[{"internalType":"uint256","name":"totalVolume","type":"uint256"},{"internalType":"uint256","name":"totalStakers","type":"uint256"},{"internalType":"uint256","name":"totalSupporters","type":"uint256"},{"internalType":"uint256","name":"averageStakeSize","type":"uint256"},{"internalType":"uint256","name":"largestStake","type":"uint256"},{"internalType":"uint256","name":"mostPopularOption","type":"uint256"},{"internalType":"uint256","name":"resolutionTime","type":"uint256"},{"internalType":"bool","name":"wasResolved","type":"bool"},{"internalType":"uint256","name":"creatorWinnings","type":"uint256"}],"internalType":"struct MetricsHub.MarketStats","name":"","type":"tuple"}],"stateMutability":"view","type":"function"},{"inputs":[{"internalType":"address","name":"creator","type":"address"}],"name":"getMarketsByCreator","outputs":[{"internalType":"uint256[]","name":"","type":"uint256[]"}],"stateMutability":"view","type":"function"},{"inputs":[{"internalType":"uint256","name":"startTime","type":"uint256"},{"internalType":"uint256","name":"endTime","type":"uint256"}],"name":"getMarketsByDateRange","outputs":[{"internalType":"uint256[]","name":"","type":"uint256[]"}],"stateMutability":"view","type":"function"},{"inputs":[{"internalType":"enum P2PMarketManager.MarketState","name":"state","type":"uint8"}],"name":"getMarketsByState","outputs":[{"internalType":"uint256[]","name":"","type":"uint256[]"}],"stateMutability":"view","type":"function"},{"inputs":[{"internalType":"address","name":"token","type":"address"}],"name":"getMarketsByToken","outputs":[{"internalType":"uint256[]","name":"","type":"uint256[]"}],"stateMutability":"view","type":"function"},{"inputs":[{"internalType":"address","name":"creator","type":"address"},{"internalType":"address","name":"token","type":"address"},{"internalType":"uint256","name":"minVolume","type":"uint256"},{"internalType":"uint256","name":"maxVolume","type":"uint256"},{"internalType":"enum P2PMarketManager.MarketState","name":"state","type":"uint8"},{"internalType":"uint256","name":"startTime","type":"uint256"},{"internalType":"uint256","name":"endTime","type":"uint256"}],"name":"getMarketsFiltered","outputs":[{"internalType":"uint256[]","name":"","type":"uint256[]"}],"stateMutability":"view","type":"function"},{"inputs":[{"internalType":"uint256","name":"daysBack","type":"uint256"},{"internalType":"uint256","name":"limit","type":"uint256"}],"name":"getRecentActiveMarkets","outputs":[{"internalType":"uint256[]","name":"","type":"uint256[]"},{"internalType":"uint256[]","name":"","type":"uint256[]"}],"stateMutability":"view","type":"function"},{"inputs":[{"internalType":"uint256","name":"limit","type":"uint256"}],"name":"getThisWeekActiveMarkets","outputs":[{"internalType":"uint256[]","name":"","type":"uint256[]"},{"internalType":"uint256[]","name":"","type":"uint256[]"}],"stateMutability":"view","type":"function"},{"inputs":[{"internalType":"uint256","name":"limit","type":"uint256"}],"name":"getTodayActiveMarkets","outputs":[{"internalType":"uint256[]","name":"","type":"uint256[]"},{"internalType":"uint256[]","name":"","type":"uint256[]"}],"stateMutability":"view","type":"function"},{"inputs":[{"internalType":"uint256","name":"limit","type":"uint256"}],"name":"getTopStakers","outputs":[{"internalType":"address[]","name":"","type":"address[]"},{"internalType":"uint256[]","name":"","type":"uint256[]"}],"stateMutability":"view","type":"function"},{"inputs":[{"internalType":"address","name":"user","type":"address"}],"name":"getUserFavoriteOption","outputs":[{"internalType":"uint256","name":"","type":"uint256"}],"stateMutability":"view","type":"function"},{"inputs":[{"internalType":"address","name":"user","type":"address"}],"name":"getUserMarkets","outputs":[{"internalType":"uint256[]","name":"","type":"uint256[]"}],"stateMutability":"view","type":"function"},{"inputs":[{"internalType":"address","name":"user","type":"address"},{"internalType":"enum P2PMarketManager.MarketState","name":"state","type":"uint8"}],"name":"getUserMarketsByState","outputs":[{"internalType":"uint256[]","name":"","type":"uint256[]"}],"stateMutability":"view","type":"function"},{"inputs":[{"internalType":"address","name":"user","type":"address"}],"name":"getUserStakes","outputs":[{"internalType":"uint256[]","name":"","type":"uint256[]"}],"stateMutability":"view","type":"function"},{"inputs":[{"internalType":"address","name":"user","type":"address"}],"name":"getUserStats","outputs":[{"components":[{"internalType":"uint256","name":"totalStakesPlaced","type":"uint256"},{"internalType":"uint256","name":"totalStakesWon","type":"uint256"},{"internalType":"uint256","name":"totalStakesLost","type":"uint256"},{"internalType":"uint256","name":"totalWinnings","type":"uint256"},{"internalType":"uint256","name":"totalLosses","type":"uint256"},{"internalType":"uint256","name":"totalSupportDonated","type":"uint256"},{"internalType":"uint256","name":"marketsCreated","type":"uint256"},{"internalType":"uint256","name":"marketsWon","type":"uint256"},{"internalType":"uint256","name":"marketsLost","type":"uint256"},{"internalType":"uint256","name":"favoriteOption","type":"uint256"},{"internalType":"uint256","name":"lastActivity","type":"uint256"},{"internalType":"uint256","name":"totalStakesWonNative","type":"uint256"},{"internalType":"uint256","name":"totalStakesWonP2PToken","type":"uint256"},{"internalType":"uint256","name":"totalWinningsNative","type":"uint256"},{"internalType":"uint256","name":"totalWinningsP2PToken","type":"uint256"}],"internalType":"struct MetricsHub.UserStats","name":"","type":"tuple"}],"stateMutability":"view","type":"function"},{"inputs":[{"internalType":"address","name":"user","type":"address"}],"name":"getUserSupports","outputs":[{"internalType":"uint256[]","name":"","type":"uint256[]"}],"stateMutability":"view","type":"function"},{"inputs":[{"internalType":"address","name":"user","type":"address"}],"name":"getUserWinRate","outputs":[{"internalType":"uint256","name":"","type":"uint256"}],"stateMutability":"view","type":"function"},{"inputs":[{"internalType":"address","name":"paymentToken","type":"address"}],"name":"isTrackedPaymentToken","outputs":[{"internalType":"bool","name":"","type":"bool"}],"stateMutability":"view","type":"function"},{"inputs":[],"name":"marketManager","outputs":[{"internalType":"address payable","name":"","type":"address"}],"stateMutability":"view","type":"function"},{"inputs":[{"internalType":"uint256","name":"","type":"uint256"}],"name":"marketStats","outputs":[{"internalType":"uint256","name":"totalVolume","type":"uint256"},{"internalType":"uint256","name":"totalStakers","type":"uint256"},{"internalType":"uint256","name":"totalSupporters","type":"uint256"},{"internalType":"uint256","name":"averageStakeSize","type":"uint256"},{"internalType":"uint256","name":"largestStake","type":"uint256"},{"internalType":"uint256","name":"mostPopularOption","type":"uint256"},{"internalType":"uint256","name":"resolutionTime","type":"uint256"},{"internalType":"bool","name":"wasResolved","type":"bool"},{"internalType":"uint256","name":"creatorWinnings","type":"uint256"}],"stateMutability":"view","type":"function"},{"inputs":[],"name":"owner","outputs":[{"internalType":"address","name":"","type":"address"}],"stateMutability":"view","type":"function"},{"inputs":[],"name":"p2pErc20Token","outputs":[{"internalType":"address","name":"","type":"address"}],"stateMutability":"view","type":"function"},{"inputs":[],"name":"renounceOwnership","outputs":[],"stateMutability":"nonpayable","type":"function"},{"inputs":[{"internalType":"address","name":"_marketManager","type":"address"}],"name":"setMarketManager","outputs":[],"stateMutability":"nonpayable","type":"function"},{"inputs":[{"internalType":"address","name":"_token","type":"address"}],"name":"setP2PErc20Token","outputs":[],"stateMutability":"nonpayable","type":"function"},{"inputs":[{"internalType":"uint256","name":"marketId","type":"uint256"},{"internalType":"address","name":"user","type":"address"},{"internalType":"uint256","name":"loss","type":"uint256"}],"name":"trackLoss","outputs":[],"stateMutability":"nonpayable","type":"function"},{"inputs":[{"internalType":"uint256","name":"marketId","type":"uint256"},{"internalType":"address","name":"creator","type":"address"}],"name":"trackMarketCreation","outputs":[],"stateMutability":"nonpayable","type":"function"},{"inputs":[{"internalType":"uint256","name":"marketId","type":"uint256"},{"internalType":"uint256","name":"winningOption","type":"uint256"}],"name":"trackMarketResolution","outputs":[],"stateMutability":"nonpayable","type":"function"},{"inputs":[{"internalType":"uint256","name":"marketId","type":"uint256"},{"internalType":"address","name":"user","type":"address"},{"internalType":"uint256","name":"option","type":"uint256"},{"internalType":"uint256","name":"amount","type":"uint256"}],"name":"trackStake","outputs":[],"stateMutability":"nonpayable","type":"function"},{"inputs":[{"internalType":"uint256","name":"marketId","type":"uint256"},{"internalType":"address","name":"user","type":"address"},{"internalType":"uint256","name":"amount","type":"uint256"}],"name":"trackSupport","outputs":[],"stateMutability":"nonpayable","type":"function"},{"inputs":[{"internalType":"uint256","name":"marketId","type":"uint256"},{"internalType":"address","name":"user","type":"address"},{"internalType":"uint256","name":"winnings","type":"uint256"},{"internalType":"address","name":"paymentToken","type":"address"}],"name":"trackWinnings","outputs":[],"stateMutability":"nonpayable","type":"function"},{"inputs":[{"internalType":"address","name":"newOwner","type":"address"}],"name":"transferOwnership","outputs":[],"stateMutability":"nonpayable","type":"function"},{"inputs":[{"internalType":"address","name":"","type":"address"},{"internalType":"uint256","name":"","type":"uint256"}],"name":"userMarkets","outputs":[{"internalType":"uint256","name":"","type":"uint256"}],"stateMutability":"view","type":"function"},{"inputs":[{"internalType":"address","name":"","type":"address"},{"internalType":"uint256","name":"","type":"uint256"}],"name":"userOptionStats","outputs":[{"internalType":"uint256","name":"","type":"uint256"}],"stateMutability":"view","type":"function"},{"inputs":[{"internalType":"address","name":"","type":"address"},{"internalType":"uint256","name":"","type":"uint256"}],"name":"userStakes","outputs":[{"internalType":"uint256","name":"","type":"uint256"}],"stateMutability":"view","type":"function"},{"inputs":[{"internalType":"address","name":"","type":"address"}],"name":"userStats","outputs":[{"internalType":"uint256","name":"totalStakesPlaced","type":"uint256"},{"internalType":"uint256","name":"totalStakesWon","type":"uint256"},{"internalType":"uint256","name":"totalStakesLost","type":"uint256"},{"internalType":"uint256","name":"totalWinnings","type":"uint256"},{"internalType":"uint256","name":"totalLosses","type":"uint256"},{"internalType":"uint256","name":"totalSupportDonated","type":"uint256"},{"internalType":"uint256","name":"marketsCreated","type":"uint256"},{"internalType":"uint256","name":"marketsWon","type":"uint256"},{"internalType":"uint256","name":"marketsLost","type":"uint256"},{"internalType":"uint256","name":"favoriteOption","type":"uint256"},{"internalType":"uint256","name":"lastActivity","type":"uint256"},{"internalType":"uint256","name":"totalStakesWonNative","type":"uint256"},{"internalType":"uint256","name":"totalStakesWonP2PToken","type":"uint256"},{"internalType":"uint256","name":"totalWinningsNative","type":"uint256"},{"internalType":"uint256","name":"totalWinningsP2PToken","type":"uint256"}],"stateMutability":"view","type":"function"},{"inputs":[{"internalType":"address","name":"","type":"address"},{"internalType":"uint256","name":"","type":"uint256"}],"name":"userSupports","outputs":[{"internalType":"uint256","name":"","type":"uint256"}],"stateMutability":"view","type":"function"}],"evm":{"bytecode":{"linkReferences":{},"object":"608034620000f857601f6200389d38819003918201601f19168301916001600160401b03831184841017620000fd57808492606094604052833981010312620000f8576200004d8162000113565b620000696040620000616020850162000113565b930162000113565b6001600160a01b0391821691908215620000df57816000549460018060a01b03199480868816176000558260405197167f8be0079c531659141344cd1fd0a4f28419497f9722a3daafe3b4186f6b6457e0600080a316836001541617600155169060025416176002556137749081620001298239f35b604051631e4fbdf760e01b815260006004820152602490fd5b600080fd5b634e487b7160e01b600052604160045260246000fd5b51906001600160a01b0382168203620000f85756fe608080604052600436101561001357600080fd5b60003560e01c9081630649e0c014612f8c575080630a75a43414612f63578063110d05e514612f265780631c6e04db14612eaf5780632053114d14612dcd57806325ec5ef114612da25780633d80d00b14612a745780633f89efda146129f657806341ed2c12146129cd5780634b669c09146129445780634e43603a1461276657806350ad34a11461242b57806354488a5a146123e357806357f978ad1461225557806358057fe5146121345780636b3b7ea7146120ea5780636b4169c314611ec85780636cfcb21e14611e85578063715018a614611e3e57806380aa0d8c14611c53578063837cd235146118da578063842e29811461184f5780638a65d874146117775780638da5cb5b1461174e5780638f46a5a1146116385780639b7bcd241461149f578063a119515a14611144578063a2daa08714610f03578063b5d5b5fa14610eb9578063c228038d14610c31578063c80ca39a14610b99578063cd94a77514610a0f578063d82aff11146109cc578063da4473d814610596578063db0f871d14610974578063e893a76f1461059b578063e99c80bd14610596578063ec88636114610569578063f054f00a146104d5578063f2fde38b14610461578063fbe151591461026f5763ff4a7300146101ed57600080fd5b3461026a576101fb36613092565b9061021160018060a01b036001541633146131aa565b60005260046020526005604060002060078101600160ff1982541617905542600682015501557f17d726ad382ea92487e2c4d01469c94fa17bef35e71d3f4b5414159695c038d2604080516000815260006020820152a1005b600080fd5b3461026a5760208060031936011261026a57600435906040516102918161328c565b6000815260018054604051631fca74dd60e31b81529294906001600160a01b03168484600481845afa93841561042657600094610432575b50825b8481106102ea57604051868152806102e68189018a612fe0565b0390f35b60405163eb44fdd360e01b8152600481018290526024906000818381875afa80156104265761018091600091610403575b50015160058110156103ee5715806103d7575b610342575b5061033d90613206565b6102cc565b87919751908582018092116103c35750908761035e8693613620565b91836000945b610382575b5061033d935061037a905183613652565b529690610333565b9181939491518210156103b957508061039e6103af9285613652565b516103a98287613652565b52613206565b9291818a92610364565b9184939150610369565b634e487b7160e01b60009081526011600452fd5b50816000526004875283604060002054101561032e565b50634e487b7160e01b60009081526021600452fd5b61042091503d806000833e61041881836132a7565b81019061334d565b8a61031b565b6040513d6000823e3d90fd5b9093508481813d831161045a575b61044a81836132a7565b8101031261026a575192866102c9565b503d610440565b3461026a57602036600319011261026a5761047a61303c565b61048261314d565b6001600160a01b039081169081156104bc576000548260018060a01b031982161760005516600080516020613728833981519152600080a3005b604051631e4fbdf760e01b815260006004820152602490fd5b3461026a57604036600319011261026a576104ee613052565b6001546001600160a01b03919061050890831633146131aa565b16806000526003602052600080516020613708833981519152604080600020600681016105358154613206565b905542600a820155836000526005602052610555600435836000206132f7565b6003815491015482519182526020820152a2005b3461026a57602036600319011261026a57602061058c61058761303c565b613179565b6040519015158152f35b6130d6565b3461026a5760208060031936011261026a5760018054604051631fca74dd60e31b81526001600160a01b039091169291908281600481875afa90811561042657600091610947575b506040516105f08161328c565b60008152936040516106018161328c565b6000815293835b8381106107b95750505050806000905b6106a4575b50506004358015158061069a575b15610692575b61063a81613620565b9161064482613620565b9360005b83811061065e57604051806102e6888883613014565b8061066c61068d9284613652565b516106778288613652565b526106828185613652565b516103a98289613652565b610648565b508151610631565b508251811061062b565b835160001990818101908111610792578210156107b357600090835b6106d7575b50506106d18291613206565b90610618565b6106e783879496939597516132ea565b818101908111610792578410156107a8576107028483613652565b5186850194858111610792578561072b9261071e8a9887613652565b5111610734575b50613206565b919492956106c0565b61073e8286613652565b516107498287613652565b516107548488613652565b5261075f8287613652565b5261078b61076d8388613652565b51916107798189613652565b51610784858a613652565b5287613652565b5288610725565b634e487b7160e01b600052601160045260246000fd5b8194929593506106c5565b5061061d565b60405163eb44fdd360e01b8152600481018290526024906000818381885afa8015610426576101809160009161092c575b50015160058110156103ee571561080b575b5061080690613206565b610608565b909560405190630ccf446760e01b825287600483015283828481885afa918215610426576000926108fd575b5088518781018091116108e85761084d90613620565b928151908882018092116103c357506108668991613620565b99886000815b610899575b505091610890916108886108069695945186613652565b52518a613652565b529695906107fc565b90919283518210156108e05750806108b46108d69285613652565b516108bf8289613652565b528c6103a9826108cf8189613652565b5192613652565b908a92918161086c565b929190610871565b83634e487b7160e01b60005260116004526000fd5b9091508381813d8311610925575b61091581836132a7565b8101031261026a57519089610837565b503d61090b565b61094191503d806000833e61041881836132a7565b8a6107ea565b90508281813d831161096d575b61095e81836132a7565b8101031261026a5751846105e3565b503d610954565b3461026a57604036600319011261026a5761098d61303c565b6001600160a01b031660009081526005602052604090208054602435919082101561026a576020916109be916130a8565b90546040519160031b1c8152f35b3461026a57602036600319011261026a576109e561303c565b6109ed61314d565b600180546001600160a01b0319166001600160a01b0392909216919091179055005b3461026a5760208060031936011261026a57610a2961303c565b90604051610a368161328c565b6000815260018054604051631fca74dd60e31b8152929492906001600160a01b039081168583600481845afa92831561042657600093610b6a575b509193811691835b858110610a9357604051878152806102e6818a018b612fe0565b60405163eb44fdd360e01b8152600481018290526024906000818381875afa801561042657608086918893600091610b4f575b5001511614610adf575b50610ada90613206565b610a79565b88919851908682018092116103c357509088610afb8793613620565b91836000945b610b1f575b50610ada9350610b17905183613652565b529790610ad0565b918193949151821015610b4557508061039e610b3b9285613652565b9291818b92610b01565b9184939150610b06565b610b6491503d806000833e61041881836132a7565b8d610ac6565b9092508581813d8311610b92575b610b8281836132a7565b8101031261026a57519187610a71565b503d610b78565b3461026a5760208060031936011261026a576040518091604082019060408352606051809252606083019160809060005b818110610c1157505050828203818401528060605192838152019160809160005b828110610bfa57505050500390f35b835185528695509381019392810192600101610beb565b82516001600160a01b031685528695509383019391830191600101610bca565b3461026a57608036600319011261026a576004356024610c4f613052565b600154606435916001600160a01b0391604435918391610c7290831633146131aa565b16908160005260209360038552604060002091610c8f8354613206565b835560048301610ca0838254613215565b905542600a840155836000526008865260406000208160005286526040600020610cca8154613206565b905583600052600886526040600020816000528652604060002054846000526008875260406000209060098501918254600052885260406000205410610eb1575b5050866000526004855260406000209385610d27838754613215565b918287556001541660405198898092630ccf446760e01b82528c60048301525afa96871561042657600097610e82575b5060018501878155968015610e7957610d6f916132ca565b60038501556004840180548211610e71575b5050816000526005845260406000208054908115918215610e1a575b5050916000805160206137088339815191526040600080516020613748833981519152979593819795610e00575b8360005260068652610de08a836000206132f7565b60038154910154825191825286820152a2549154908351928352820152a2005b8360005260058652610e158a836000206132f7565b610dcb565b90969492959391506000198101908111610792576040809689610e5b600080516020613708833981519152946000805160206137488339815191529b6130a8565b90549060031b1c14159395975093959750610d9d565b558680610d81565b50506000610d6f565b9096508581813d8311610eaa575b610e9a81836132a7565b8101031261026a57519588610d57565b503d610e90565b558780610d0b565b3461026a57604036600319011261026a57610ed261303c565b6001600160a01b031660009081526006602052604090208054602435919082101561026a576020916109be916130a8565b3461026a57608036600319011261026a57600435610f1f613052565b604435916001600160a01b039190606435838116919082900361026a57610f4b846001541633146131aa565b841561110457811591846002541680151591826110fa575b5050829083156110f2575b50156110a15783602493169485600052600360205260406000209160018301610f978154613206565b905542600a840155831561107b57600b8301610fb38154613206565b9055600d8301610fc4838254613215565b90555b600086600154166040519687809263eb44fdd360e01b82528560048301525afa94851561042657600080516020613708833981519152966040968992600091611060575b50511614611039575b50508054911561103057600d01545b82519182526020820152a2005b600e0154611023565b600783016110478154613206565b9055600052600460205260088460002001558580611014565b61107591503d806000833e61041881836132a7565b8a61100b565b600c83016110898154613206565b9055600e830161109a838254613215565b9055610fc7565b60405162461bcd60e51b8152602060048201526024808201527f416e616c79746963733a207061796d656e7420746f6b656e206e6f742074726160448201526318dad95960e21b6064820152608490fd5b905086610f6e565b1490508680610f63565b60405162461bcd60e51b8152602060048201526018602482015277416e616c79746963733a207a65726f2077696e6e696e677360401b6044820152606490fd5b3461026a5760208060031936011261026a5760018054604051631fca74dd60e31b81526001600160a01b0390911691908381600481865afa90811561042657600091611472575b506040516111988161328c565b60008152936040516111a98161328c565b6000815293835b8381106112bf5750505050806000905b61122b575b505060043580151580611221575b15611219575b6111e281613620565b916111ec82613620565b9360005b83811061120657604051806102e6888883613014565b8061066c6112149284613652565b6111f0565b5081516111d9565b50825181106111d3565b835160001990818101908111610792578210156112b957600090835b61125e575b50506112588291613206565b906111c0565b61126e83879496939597516132ea565b818101908111610792578410156112ae576112898483613652565b518685019485811161079257856112a59261071e8a9887613652565b91949295611247565b81949295935061124c565b506111c5565b60405163eb44fdd360e01b8152600481018290526024906000818381875afa80156104265761018091600091611457575b50015160058110156103ee5715611311575b5061130c90613206565b6111b0565b9095604051630ccf446760e01b815287600482015284818481875afa9081156104265760009161142a575b506040516328c2824560e21b8152600481018990529085828581885afa908115610426576000916113f9575b6113729250613215565b9088518781018091116108e85761138890613620565b928151908882018092116103c357506113a18991613620565b99886000815b6113cc575b5050916113c39161088861130c9695945186613652565b52969590611302565b90919283518210156113f15750806108b46113e79285613652565b908a9291816113a7565b9291906113ac565b90508582813d8311611423575b61141081836132a7565b8101031261026a57611372915190611368565b503d611406565b90508481813d8311611450575b61144181836132a7565b8101031261026a57518961133c565b503d611437565b61146c91503d806000833e61041881836132a7565b8a6112f0565b90508381813d8311611498575b61148981836132a7565b8101031261026a57518461118b565b503d61147f565b3461026a5760208060031936011261026a5760043590600580831015908161026a576040516114cd8161328c565b6000815260018054604051631fca74dd60e31b815292969294919391906001600160a01b03168686600481845afa95861561042657600096611609575b50845b86811061152757604051888152806102e6818b018c612fe0565b60405163eb44fdd360e01b8152600481018290526024906000818381875afa801561042657610180916000916115ee575b500151858110156103ee57846103ee57861461157e575b5061157990613206565b61150d565b89919951908782018092116103c35750908961159a8893613620565b91836000945b6115be575b5061157993506115b6905183613652565b52989061156f565b9181939491518210156115e457508061039e6115da9285613652565b9291818c926115a0565b91849391506115a5565b61160391503d806000833e61041881836132a7565b8c611558565b9095508681813d8311611631575b61162181836132a7565b8101031261026a5751948861150a565b503d611617565b3461026a5761164636613068565b6001546001600160a01b039392849161166290831633146131aa565b16928360005260246020916003835260406000209361168660058601918254613215565b905542600a85015584600052600483528260406000209160015416604051938480926328c2824560e21b82528960048301525afa9182156104265760009261170b575b5060008051602061370883398151915294604094939260026116f89301558660005260078352846000206132f7565b60038254920154908351928352820152a2005b90939280925081813d8311611747575b61172581836132a7565b8101031261026a575191929091906000805160206137088339815191526116c9565b503d61171b565b3461026a57600036600319011261026a576000546040516001600160a01b039091168152602090f35b3461026a57602036600319011261026a576001600160a01b0361179861303c565b16600052600360205260406000208054600182015491600281015460038201546004830154600584015460068501546007860154600887015491600988015493600a89015495600b8a015497600c8b015499600d8c01549b600e01549c6040519e8f91825260208201526040015260608d015260808c015260a08b015260c08a015260e08901526101008801526101208701526101408601526101608501526101808401526101a08301526101c08201526101e090f35b3461026a5760208060031936011261026a576001600160a01b0361187161303c565b1660005260068152604060002090604051808383829554938481520190600052836000209260005b858282106118c4575050506118b0925003836132a7565b6102e6604051928284938452830190612fe0565b8554845260019586019588955093019201611899565b3461026a5760e036600319011261026a576118f361303c565b6118fb613052565b60056084351015918261026a576040516119148161328c565b60008152600154604051631fca74dd60e31b815291949193906001600160a01b0316602085600481845afa94851561042657600095611c1f575b5060015b85811061196f57604051602080825281906102e69082018a612fe0565b60405163eb44fdd360e01b815260048101829052600081602481865afa90811561042657600091611c04575b508160005260046020526040600020906040516119b781613254565b82548082526001808501546020840152600285015460408401526003850154606084015260048501546080840152600585015460a0840152600685015460c0840152600785015460ff16151560e08401526008909401546101009092019190915286906001600160a01b03891680151590611bed575b611be4575b6001600160a01b03871680151590611bca575b611bc1575b6044351515604435611bb6575b611bad575b606435151590606435611ba1575b50611b98575b611b82576084351515608435611b63575b611b5a575b60a435151560a435611b4a575b611b41575b60c43515159060c435611b2f575b50611b27575b611abf575b611aba90613206565b611952565b94919390928651600181018111610792576001611adc9101613620565b9460005b8851811015611b075780611af7611b02928b613652565b516103a9828a613652565b611ae0565b509295969487611b1e611aba939694975183613652565b52969050611ab1565b506000611aac565b905061010060c4359101511189611aa6565b60009150611a98565b5060a43561010082015110611a93565b60009150611a86565b5061018081015195506005861015611b82576000956084351415611a81565b634e487b7160e01b600052602160045260246000fd5b60009250611a70565b9050606435108b611a6a565b60009350611a5c565b506044358110611a57565b60009350611a4a565b5060808301516001600160a01b0388811691161415611a45565b60009350611a32565b5082516001600160a01b038a811691161415611a2d565b611c1991503d806000833e61041881836132a7565b8861199b565b9094506020813d602011611c4b575b81611c3b602093836132a7565b8101031261026a5751938661194e565b3d9150611c2e565b3461026a57604036600319011261026a57611c6c61303c565b6024803560059283821015908161026a578383869260018060a01b038091166000526020928484526040600020926040519384868254918281520191600052866000209060005b818110611e2a5750505084611cc99103856132a7565b604051611cd58161328c565b60008152956000976001988995865416995b611cff575b604051888152806102e6818b018c612fe0565b8651811015611e2557896000611d15838a613652565b51876040518094819363eb44fdd360e01b835260048301525afa80156104265761018091600091611e0a575b50015183811015611df55782611df5578414611d70575b98611d66869798999a613206565b9099989796611ce7565b978051868101809111611de057611d8690613620565b906000875b611dbd575b50899a91611d6691611db1611da88b9c9d8b9c613652565b51915183613652565b52999897505098611d58565b8151811015611ddb57611dd58161039e8a9385613652565b90611d8b565b611d90565b85634e487b7160e01b60005260116004526000fd5b85634e487b7160e01b60005260216004526000fd5b611e1f91503d806000833e61041881836132a7565b8c611d41565b611cec565b825484529288019260019283019201611cb3565b3461026a57600036600319011261026a57611e5761314d565b600080546001600160a01b0319811682556001600160a01b03166000805160206137288339815191528280a3005b3461026a57602036600319011261026a57611e9e61303c565b611ea661314d565b600280546001600160a01b0319166001600160a01b0392909216919091179055005b3461026a57600036600319011261026a57600060e0604051611ee981613270565b8281528260208201528260408201528260608201528260808201528260a08201528260c082015201526004602060018060a01b036001541660405192838092631fca74dd60e31b82525afa908115610426576000916120b8575b508060001981011161079257600090818060015b600019840181111561200a57506101009360001984011561200257611f806000198501846132ca565b905b60405192611f8f84613270565b6000198601845260208401948552604084019182526060840190815260808401916000835260a0850193845260e060c086019560008752019560008752604051976000190188525160208801525160408701525160608601525160808501525160a08401525160c08301525160e0820152f35b600090611f82565b906120ad6120b3916120a560029597856000526004602052602061209c6040600020809b60086040519b8c9361203f85613254565b8054948590526001810154878f0152015460408d0190815260038f015460608e015260048f015460808e015260058f015460a08e015260068f015460c08e015260078f015460ff16151560e08e01529d01546101008c0152613215565b97015190613215565b965190613215565b91613206565b611f57565b90506020813d6020116120e2575b816120d3602093836132a7565b8101031261026a575181611f43565b3d91506120c6565b3461026a57604036600319011261026a5761210361303c565b6001600160a01b031660009081526007602052604090208054602435919082101561026a576020916109be916130a8565b3461026a57602036600319011261026a5761012060405161215481613254565b6000815260006020820152600060408201526000606082015260006080820152600060a0820152600060c0820152600060e082015260006101008092015260043560005260046020526040600020906040516121af81613254565b8254928382526001810154602083019081526002820154604084019081526003830154606085019081526004840154906080860191825260058501549260a0870193845260068601549460c0880195865288600860ff60078a0154169860e08b019915158a5201549801978852604051998a525160208a01525160408901525160608801525160808701525160a08601525160c085015251151560e08401525190820152f35b3461026a5761226336613092565b906040516122708161328c565b6000815260018054604051631fca74dd60e31b81529294602094916001600160a01b03168585600481845afa948515610426576000956123b4575b50835b8581106122c857604051878152806102e6818a018b612fe0565b60405163eb44fdd360e01b8152600481018290526024906000818381875afa80156104265761010091600091612399575b5001518486821015918261238e575b505061231e575b5061231990613206565b6122ae565b88919851908682018092116103c35750908861233a8793613620565b91836000945b61235e575b506123199350612356905183613652565b52979061230f565b91819394915182101561238457508061039e61237a9285613652565b9291818b92612340565b9184939150612345565b11159050848b612308565b6123ae91503d806000833e61041881836132a7565b8b6122f9565b9094508581813d83116123dc575b6123cc81836132a7565b8101031261026a575193876122ab565b503d6123c2565b3461026a57604036600319011261026a576001600160a01b0361240461303c565b16600052600860205260406000206024356000526020526020604060002054604051908152f35b3461026a5760208060031936011261026a5760043560019060018060a01b0382541691604051631fca74dd60e31b81528481600481875afa90811561042657600091612739575b5060405161247f8161328c565b60008152946040516124908161328c565b6000815294835b8381106126075750505050806000905b61250f575b505080151580612505575b156124fd575b6124c681613620565b916124d082613620565b9360005b8381106124ea57604051806102e6888883613014565b8061066c6124f89284613652565b6124d4565b5081516124bd565b50825181106124b7565b8451600019908181019081116107925782101561260157908280926000915b612544575b505061253e90613206565b906124a7565b909192506125538388516132ea565b8181019081116107925784908310156125fa57506125718287613652565b518483019283811161079257836125999261258d88968b613652565b51116125a25750613206565b9082939261252e565b6125ac828a613652565b516125b7828b613652565b516125c2848c613652565b526125cd828b613652565b526125f36125db838c613652565b51918b6125ec856108cf8484613652565b528b613652565b5289610725565b9291612533565b506124ac565b60405163eb44fdd360e01b8152600481018290526024906000818381875afa8015610426576101809160009161271e575b50015160058110156103ee5715612659575b5061265490613206565b612497565b909688518681018091116127095761267090613620565b918151908782018092116103c35750908861268c889493613620565b9a846000955b6126cb575b5061265494506126a8905184613652565b5288600052600485526126c260406000205491518b613652565b5297969061264a565b918193949591518210156126fe5750806126e86126f39285613652565b516108bf8288613652565b939291818b92612692565b918594939150612697565b82634e487b7160e01b60005260116004526000fd5b61273391503d806000833e61041881836132a7565b8b612638565b90508481813d831161275f575b61275081836132a7565b8101031261026a575185612472565b503d612746565b3461026a57602036600319011261026a5761277f61303c565b60006101c060405161279081613222565b8281528260208201528260408201528260608201528260808201528260a08201528260c08201528260e08201528261010082015282610120820152826101408201528261016082015282610180820152826101a0820152015260018060a01b031660005260036020526101e060406000206101c060405161281081613222565b600e83549384835260018101546020840152600281015460408401526003810154606084015260048101546080840152600581015460a0840152600681015460c0840152600781015460e084015260088101546101008401526009810154610120840152600a810154610140840152600b810154610160840152600c810154610180840152600d8101546101a08401520154828201526040519283526020810151602084015260408101516040840152606081015160608401526080810151608084015260a081015160a084015260c081015160c084015260e081015160e08401526101008101516101008401526101208101516101208401526101408101516101408401526101608101516101608401526101808101516101808401526101a08101516101a084015201516101c0820152f35b3461026a57602036600319011261026a5760043560005260046020526101206040600020805490600181015490600281015460038201546004830154600584015491600685015493600860ff60078801541696015496604051988952602089015260408801526060870152608086015260a085015260c0840152151560e0830152610100820152f35b3461026a57600036600319011261026a576001546040516001600160a01b039091168152602090f35b3461026a57602036600319011261026a57604051633d80d00b60e01b8152600760048201526004356024820152600081604481305afa90811561042657600090600092612a4e575b506102e660405192839283613014565b9050612a6d91503d806000833e612a6581836132a7565b8101906136c4565b9082612a3e565b3461026a57612a8236613092565b600154604051631fca74dd60e31b81526001600160a01b0390911690602081600481855afa90811561042657600091612d71575b50604051612ac38161328c565b6000815291604051612ad48161328c565b6000815294620151809081810291818304149015171561079257612af890426132ea565b60015b838110612c2b575050505060005b8151600019939084810190811161079257821015612bc75760005b612b2f8385516132ea565b85810190811161079257811015612bb657612b4a8187613652565b51906001810180821161079257612b7192612b65828a613652565b5111612b765750613206565b612b24565b612b808289613652565b51612b8b828a613652565b51612b96848b613652565b52612ba1828a613652565b52612baf61076d8388613652565b5287610725565b509250612bc290613206565b612b09565b84915080151580612c21575b15612c19575b612be281613620565b91612bec82613620565b9360005b838110612c0657604051806102e6888883613014565b8061066c612c149284613652565b612bf0565b508151612bd9565b5082518110612bd3565b60405163eb44fdd360e01b81526004810182905260246000828281885afa91821561042657600092612d54575b5061018082015160058110156103ee571580612d45575b612c84575b5050612c7f90613206565b612afb565b948694969791979392935160018101809111612d3057612ca390613620565b95895190600182018092116103c35750612cbc90613620565b9660005b8651811015612cfd5780612cd7612cf89289613652565b51612ce2828b613652565b52612ced818d613652565b516103a9828c613652565b612cc0565b5094610100859a92979399612c7f9596612d1b612d26945187613652565b520151915188613652565b5294969088612c74565b86634e487b7160e01b60005260116004526000fd5b50836101008301511015612c6f565b612d6a9192503d806000833e61041881836132a7565b9089612c58565b90506020813d8211612d9a575b81612d8b602093836132a7565b8101031261026a575184612ab6565b3d9150612d7e565b3461026a57602036600319011261026a576020612dc5612dc061303c565b613524565b604051908152f35b3461026a57612ddb36613068565b506001546001600160a01b03918291612df790831633146131aa565b1691826000526003602052604060002060028101612e158154613206565b905542600a820155600083600154169260246040518095819363eb44fdd360e01b835260048301525afa91821561042657600080516020613708833981519152936040938692600091612e94575b50511614612e7f576003815491015482519182526020820152a2005b60088101612e8d8154613206565b9055610555565b612ea991503d806000833e61041881836132a7565b87612e63565b3461026a5760208060031936011261026a576001600160a01b03612ed161303c565b1660005260078152604060002090604051808383829554938481520190600052836000209260005b85828210612f10575050506118b0925003836132a7565b8554845260019586019588955093019201612ef9565b3461026a57602036600319011261026a576001600160a01b03612f4761303c565b1660005260036020526020600960406000200154604051908152f35b3461026a57600036600319011261026a576002546040516001600160a01b039091168152602090f35b3461026a57602036600319011261026a57633d80d00b60e01b8152600160048201526004356024820152600081604481305afa90811561042657600090600092612a4e57506102e660405192839283613014565b90815180825260208080930193019160005b828110613000575050505090565b835185529381019392810192600101612ff2565b909161302b61303993604084526040840190612fe0565b916020818403910152612fe0565b90565b600435906001600160a01b038216820361026a57565b602435906001600160a01b038216820361026a57565b606090600319011261026a57600435906024356001600160a01b038116810361026a579060443590565b604090600319011261026a576004359060243590565b80548210156130c05760005260206000200190600090565b634e487b7160e01b600052603260045260246000fd5b3461026a5760208060031936011261026a576001600160a01b036130f861303c565b1660005260058152604060002090604051808383829554938481520190600052836000209260005b85828210613137575050506118b0925003836132a7565b8554845260019586019588955093019201613120565b6000546001600160a01b0316330361316157565b60405163118cdaa760e01b8152336004820152602490fd5b6001600160a01b039081169081156131a35760025416801515918261319d57505090565b14919050565b5050600190565b156131b157565b60405162461bcd60e51b815260206004820152602760248201527f416e616c79746963733a204f6e6c79204d61726b65744d616e616765722063616044820152666e20747261636b60c81b6064820152608490fd5b60001981146107925760010190565b9190820180921161079257565b6101e081019081106001600160401b0382111761323e57604052565b634e487b7160e01b600052604160045260246000fd5b61012081019081106001600160401b0382111761323e57604052565b61010081019081106001600160401b0382111761323e57604052565b602081019081106001600160401b0382111761323e57604052565b601f909101601f19168101906001600160401b0382119082101761323e57604052565b81156132d4570490565b634e487b7160e01b600052601260045260246000fd5b9190820391821161079257565b8054600160401b81101561323e57613314916001820181556130a8565b819291549060031b91821b91600019901b1916179055565b51906001600160a01b038216820361026a57565b5190811515820361026a57565b90602090818382031261026a5782516001600160401b039384821161026a5701916102e093848484031261026a576040519485018581108282111761323e576040526133988461332c565b85528184015181811161026a57840183601f8201121561026a57805191821161323e57604051936133d2601f8401601f19168501866132a7565b82855283838301011161026a57829060005b8381106135105750506000918401015283015261340360408201613340565b60408301526060810151606083015261341e6080820161332c565b608083015260a081015160a083015260c081015160c083015260e081015160e083015261010080820151908301526101208082015190830152610140808201519083015261016080820151908301526101808082015190600582101561026a578301526101a080820151908301526101c061349a818301613340565b908301526101e0808201519083015261020080820151908301526102208082015190600282101561026a578301526102406134d681830161332c565b90830152610260808201519083015261028080820151908301526102a06134fe818301613340565b908301526102c0809101519082015290565b8181018301518682018401528492016133e4565b60018060a01b0316600052600360205260406000206040519061354682613222565b8054808352600e600183015492836020860152600281015460408601526003810154606086015260048101546080860152600581015460a0860152600681015460c0860152600781015460e086015260088101546101008601526009810154610120860152600a810154610140860152600b810154610160860152600c810154610180860152600d8101546101a086015201546101c08401521561360257606481029080820460641490151715610792576130399151906132ca565b5050600090565b6001600160401b03811161323e5760051b60200190565b9061362a82613609565b61363760405191826132a7565b8281528092613648601f1991613609565b0190602036910137565b80518210156130c05760209160051b010190565b81601f8201121561026a5780519161367d83613609565b9261368b60405194856132a7565b808452602092838086019260051b82010192831161026a578301905b8282106136b5575050505090565b815181529083019083016136a7565b91909160408184031261026a5780516001600160401b03939084811161026a57816136f0918401613666565b93602083015190811161026a57613039920161366656fe4b6c7abacb75992cc13ad43ffe4479dac5f7be91202f5fbb108eb1af8d56ed628be0079c531659141344cd1fd0a4f28419497f9722a3daafe3b4186f6b6457e057aec02922d876ec3d68c70ddf1563d34f09d29032f77ccb3357d31cffe7e733a164736f6c6343000814000a","opcodes":"PUSH1 0x80 CALLVALUE PUSH3 0xF8 JUMPI PUSH1 0x1F PUSH3 0x389D CODESIZE DUP2 SWAP1 SUB SWAP2 DUP3 ADD PUSH1 0x1F NOT AND DUP4 ADD SWAP2 PUSH1 0x1 PUSH1 0x1 PUSH1 0x40 SHL SUB DUP4 GT DUP5 DUP5 LT OR PUSH3 0xFD JUMPI DUP1 DUP5 SWAP3 PUSH1 0x60 SWAP5 PUSH1 0x40 MSTORE DUP4 CODECOPY DUP2 ADD SUB SLT PUSH3 0xF8 JUMPI PUSH3 0x4D DUP2 PUSH3 0x113 JUMP JUMPDEST PUSH3 0x69 PUSH1 0x40 PUSH3 0x61 PUSH1 0x20 DUP6 ADD PUSH3 0x113 JUMP JUMPDEST SWAP4 ADD PUSH3 0x113 JUMP JUMPDEST PUSH1 0x1 PUSH1 0x1 PUSH1 0xA0 SHL SUB SWAP2 DUP3 AND SWAP2 SWAP1 DUP3 ISZERO PUSH3 0xDF JUMPI DUP2 PUSH1 0x0 SLOAD SWAP5 PUSH1 0x1 DUP1 PUSH1 0xA0 SHL SUB NOT SWAP5 DUP1 DUP7 DUP9 AND OR PUSH1 0x0 SSTORE DUP3 PUSH1 0x40 MLOAD SWAP8 AND PUSH32 0x8BE0079C531659141344CD1FD0A4F28419497F9722A3DAAFE3B4186F6B6457E0 PUSH1 0x0 DUP1 LOG3 AND DUP4 PUSH1 0x1 SLOAD AND OR PUSH1 0x1 SSTORE AND SWAP1 PUSH1 0x2 SLOAD AND OR PUSH1 0x2 SSTORE PUSH2 0x3774 SWAP1 DUP2 PUSH3 0x129 DUP3 CODECOPY RETURN JUMPDEST PUSH1 0x40 MLOAD PUSH4 0x1E4FBDF7 PUSH1 0xE0 SHL DUP2 MSTORE PUSH1 0x0 PUSH1 0x4 DUP3 ADD MSTORE PUSH1 0x24 SWAP1 REVERT JUMPDEST PUSH1 0x0 DUP1 REVERT JUMPDEST PUSH4 0x4E487B71 PUSH1 0xE0 SHL PUSH1 0x0 MSTORE PUSH1 0x41 PUSH1 0x4 MSTORE PUSH1 0x24 PUSH1 0x0 REVERT JUMPDEST MLOAD SWAP1 PUSH1 0x1 PUSH1 0x1 PUSH1 0xA0 SHL SUB DUP3 AND DUP3 SUB PUSH3 0xF8 JUMPI JUMP INVALID PUSH1 0x80 DUP1 PUSH1 0x40 MSTORE PUSH1 0x4 CALLDATASIZE LT ISZERO PUSH2 0x13 JUMPI PUSH1 0x0 DUP1 REVERT JUMPDEST PUSH1 0x0 CALLDATALOAD PUSH1 0xE0 SHR SWAP1 DUP2 PUSH4 0x649E0C0 EQ PUSH2 0x2F8C JUMPI POP DUP1 PUSH4 0xA75A434 EQ PUSH2 0x2F63 JUMPI DUP1 PUSH4 0x110D05E5 EQ PUSH2 0x2F26 JUMPI DUP1 PUSH4 0x1C6E04DB EQ PUSH2 0x2EAF JUMPI DUP1 PUSH4 0x2053114D EQ PUSH2 0x2DCD JUMPI DUP1 PUSH4 0x25EC5EF1 EQ PUSH2 0x2DA2 JUMPI DUP1 PUSH4 0x3D80D00B EQ PUSH2 0x2A74 JUMPI DUP1 PUSH4 0x3F89EFDA EQ PUSH2 0x29F6 JUMPI DUP1 PUSH4 0x41ED2C12 EQ PUSH2 0x29CD JUMPI DUP1 PUSH4 0x4B669C09 EQ PUSH2 0x2944 JUMPI DUP1 PUSH4 0x4E43603A EQ PUSH2 0x2766 JUMPI DUP1 PUSH4 0x50AD34A1 EQ PUSH2 0x242B JUMPI DUP1 PUSH4 0x54488A5A EQ PUSH2 0x23E3 JUMPI DUP1 PUSH4 0x57F978AD EQ PUSH2 0x2255 JUMPI DUP1 PUSH4 0x58057FE5 EQ PUSH2 0x2134 JUMPI DUP1 PUSH4 0x6B3B7EA7 EQ PUSH2 0x20EA JUMPI DUP1 PUSH4 0x6B4169C3 EQ PUSH2 0x1EC8 JUMPI DUP1 PUSH4 0x6CFCB21E EQ PUSH2 0x1E85 JUMPI DUP1 PUSH4 0x715018A6 EQ PUSH2 0x1E3E JUMPI DUP1 PUSH4 0x80AA0D8C EQ PUSH2 0x1C53 JUMPI DUP1 PUSH4 0x837CD235 EQ PUSH2 0x18DA JUMPI DUP1 PUSH4 0x842E2981 EQ PUSH2 0x184F JUMPI DUP1 PUSH4 0x8A65D874 EQ PUSH2 0x1777 JUMPI DUP1 PUSH4 0x8DA5CB5B EQ PUSH2 0x174E JUMPI DUP1 PUSH4 0x8F46A5A1 EQ PUSH2 0x1638 JUMPI DUP1 PUSH4 0x9B7BCD24 EQ PUSH2 0x149F JUMPI DUP1 PUSH4 0xA119515A EQ PUSH2 0x1144 JUMPI DUP1 PUSH4 0xA2DAA087 EQ PUSH2 0xF03 JUMPI DUP1 PUSH4 0xB5D5B5FA EQ PUSH2 0xEB9 JUMPI DUP1 PUSH4 0xC228038D EQ PUSH2 0xC31 JUMPI DUP1 PUSH4 0xC80CA39A EQ PUSH2 0xB99 JUMPI DUP1 PUSH4 0xCD94A775 EQ PUSH2 0xA0F JUMPI DUP1 PUSH4 0xD82AFF11 EQ PUSH2 0x9CC JUMPI DUP1 PUSH4 0xDA4473D8 EQ PUSH2 0x596 JUMPI DUP1 PUSH4 0xDB0F871D EQ PUSH2 0x974 JUMPI DUP1 PUSH4 0xE893A76F EQ PUSH2 0x59B JUMPI DUP1 PUSH4 0xE99C80BD EQ PUSH2 0x596 JUMPI DUP1 PUSH4 0xEC886361 EQ PUSH2 0x569 JUMPI DUP1 PUSH4 0xF054F00A EQ PUSH2 0x4D5 JUMPI DUP1 PUSH4 0xF2FDE38B EQ PUSH2 0x461 JUMPI DUP1 PUSH4 0xFBE15159 EQ PUSH2 0x26F JUMPI PUSH4 0xFF4A7300 EQ PUSH2 0x1ED JUMPI PUSH1 0x0 DUP1 REVERT JUMPDEST CALLVALUE PUSH2 0x26A JUMPI PUSH2 0x1FB CALLDATASIZE PUSH2 0x3092 JUMP JUMPDEST SWAP1 PUSH2 0x211 PUSH1 0x1 DUP1 PUSH1 0xA0 SHL SUB PUSH1 0x1 SLOAD AND CALLER EQ PUSH2 0x31AA JUMP JUMPDEST PUSH1 0x0 MSTORE PUSH1 0x4 PUSH1 0x20 MSTORE PUSH1 0x5 PUSH1 0x40 PUSH1 0x0 KECCAK256 PUSH1 0x7 DUP2 ADD PUSH1 0x1 PUSH1 0xFF NOT DUP3 SLOAD AND OR SWAP1 SSTORE TIMESTAMP PUSH1 0x6 DUP3 ADD SSTORE ADD SSTORE PUSH32 0x17D726AD382EA92487E2C4D01469C94FA17BEF35E71D3F4B5414159695C038D2 PUSH1 0x40 DUP1 MLOAD PUSH1 0x0 DUP2 MSTORE PUSH1 0x0 PUSH1 0x20 DUP3 ADD MSTORE LOG1 STOP JUMPDEST PUSH1 0x0 DUP1 REVERT JUMPDEST CALLVALUE PUSH2 0x26A JUMPI PUSH1 0x20 DUP1 PUSH1 0x3 NOT CALLDATASIZE ADD SLT PUSH2 0x26A JUMPI PUSH1 0x4 CALLDATALOAD SWAP1 PUSH1 0x40 MLOAD PUSH2 0x291 DUP2 PUSH2 0x328C JUMP JUMPDEST PUSH1 0x0 DUP2 MSTORE PUSH1 0x1 DUP1 SLOAD PUSH1 0x40 MLOAD PUSH4 0x1FCA74DD PUSH1 0xE3 SHL DUP2 MSTORE SWAP3 SWAP5 SWAP1 PUSH1 0x1 PUSH1 0x1 PUSH1 0xA0 SHL SUB AND DUP5 DUP5 PUSH1 0x4 DUP2 DUP5 GAS STATICCALL SWAP4 DUP5 ISZERO PUSH2 0x426 JUMPI PUSH1 0x0 SWAP5 PUSH2 0x432 JUMPI JUMPDEST POP DUP3 JUMPDEST DUP5 DUP2 LT PUSH2 0x2EA JUMPI PUSH1 0x40 MLOAD DUP7 DUP2 MSTORE DUP1 PUSH2 0x2E6 DUP2 DUP10 ADD DUP11 PUSH2 0x2FE0 JUMP JUMPDEST SUB SWAP1 RETURN JUMPDEST PUSH1 0x40 MLOAD PUSH4 0xEB44FDD3 PUSH1 0xE0 SHL DUP2 MSTORE PUSH1 0x4 DUP2 ADD DUP3 SWAP1 MSTORE PUSH1 0x24 SWAP1 PUSH1 0x0 DUP2 DUP4 DUP2 DUP8 GAS STATICCALL DUP1 ISZERO PUSH2 0x426 JUMPI PUSH2 0x180 SWAP2 PUSH1 0x0 SWAP2 PUSH2 0x403 JUMPI JUMPDEST POP ADD MLOAD PUSH1 0x5 DUP2 LT ISZERO PUSH2 0x3EE JUMPI ISZERO DUP1 PUSH2 0x3D7 JUMPI JUMPDEST PUSH2 0x342 JUMPI JUMPDEST POP PUSH2 0x33D SWAP1 PUSH2 0x3206 JUMP JUMPDEST PUSH2 0x2CC JUMP JUMPDEST DUP8 SWAP2 SWAP8 MLOAD SWAP1 DUP6 DUP3 ADD DUP1 SWAP3 GT PUSH2 0x3C3 JUMPI POP SWAP1 DUP8 PUSH2 0x35E DUP7 SWAP4 PUSH2 0x3620 JUMP JUMPDEST SWAP2 DUP4 PUSH1 0x0 SWAP5 JUMPDEST PUSH2 0x382 JUMPI JUMPDEST POP PUSH2 0x33D SWAP4 POP PUSH2 0x37A SWAP1 MLOAD DUP4 PUSH2 0x3652 JUMP JUMPDEST MSTORE SWAP7 SWAP1 PUSH2 0x333 JUMP JUMPDEST SWAP2 DUP2 SWAP4 SWAP5 SWAP2 MLOAD DUP3 LT ISZERO PUSH2 0x3B9 JUMPI POP DUP1 PUSH2 0x39E PUSH2 0x3AF SWAP3 DUP6 PUSH2 0x3652 JUMP JUMPDEST MLOAD PUSH2 0x3A9 DUP3 DUP8 PUSH2 0x3652 JUMP JUMPDEST MSTORE PUSH2 0x3206 JUMP JUMPDEST SWAP3 SWAP2 DUP2 DUP11 SWAP3 PUSH2 0x364 JUMP JUMPDEST SWAP2 DUP5 SWAP4 SWAP2 POP PUSH2 0x369 JUMP JUMPDEST PUSH4 0x4E487B71 PUSH1 0xE0 SHL PUSH1 0x0 SWAP1 DUP2 MSTORE PUSH1 0x11 PUSH1 0x4 MSTORE REVERT JUMPDEST POP DUP2 PUSH1 0x0 MSTORE PUSH1 0x4 DUP8 MSTORE DUP4 PUSH1 0x40 PUSH1 0x0 KECCAK256 SLOAD LT ISZERO PUSH2 0x32E JUMP JUMPDEST POP PUSH4 0x4E487B71 PUSH1 0xE0 SHL PUSH1 0x0 SWAP1 DUP2 MSTORE PUSH1 0x21 PUSH1 0x4 MSTORE REVERT JUMPDEST PUSH2 0x420 SWAP2 POP RETURNDATASIZE DUP1 PUSH1 0x0 DUP4 RETURNDATACOPY PUSH2 0x418 DUP2 DUP4 PUSH2 0x32A7 JUMP JUMPDEST DUP2 ADD SWAP1 PUSH2 0x334D JUMP JUMPDEST DUP11 PUSH2 0x31B JUMP JUMPDEST PUSH1 0x40 MLOAD RETURNDATASIZE PUSH1 0x0 DUP3 RETURNDATACOPY RETURNDATASIZE SWAP1 REVERT JUMPDEST SWAP1 SWAP4 POP DUP5 DUP2 DUP2 RETURNDATASIZE DUP4 GT PUSH2 0x45A JUMPI JUMPDEST PUSH2 0x44A DUP2 DUP4 PUSH2 0x32A7 JUMP JUMPDEST DUP2 ADD SUB SLT PUSH2 0x26A JUMPI MLOAD SWAP3 DUP7 PUSH2 0x2C9 JUMP JUMPDEST POP RETURNDATASIZE PUSH2 0x440 JUMP JUMPDEST CALLVALUE PUSH2 0x26A JUMPI PUSH1 0x20 CALLDATASIZE PUSH1 0x3 NOT ADD SLT PUSH2 0x26A JUMPI PUSH2 0x47A PUSH2 0x303C JUMP JUMPDEST PUSH2 0x482 PUSH2 0x314D JUMP JUMPDEST PUSH1 0x1 PUSH1 0x1 PUSH1 0xA0 SHL SUB SWAP1 DUP2 AND SWAP1 DUP2 ISZERO PUSH2 0x4BC JUMPI PUSH1 0x0 SLOAD DUP3 PUSH1 0x1 DUP1 PUSH1 0xA0 SHL SUB NOT DUP3 AND OR PUSH1 0x0 SSTORE AND PUSH1 0x0 DUP1 MLOAD PUSH1 0x20 PUSH2 0x3728 DUP4 CODECOPY DUP2 MLOAD SWAP2 MSTORE PUSH1 0x0 DUP1 LOG3 STOP JUMPDEST PUSH1 0x40 MLOAD PUSH4 0x1E4FBDF7 PUSH1 0xE0 SHL DUP2 MSTORE PUSH1 0x0 PUSH1 0x4 DUP3 ADD MSTORE PUSH1 0x24 SWAP1 REVERT JUMPDEST CALLVALUE PUSH2 0x26A JUMPI PUSH1 0x40 CALLDATASIZE PUSH1 0x3 NOT ADD SLT PUSH2 0x26A JUMPI PUSH2 0x4EE PUSH2 0x3052 JUMP JUMPDEST PUSH1 0x1 SLOAD PUSH1 0x1 PUSH1 0x1 PUSH1 0xA0 SHL SUB SWAP2 SWAP1 PUSH2 0x508 SWAP1 DUP4 AND CALLER EQ PUSH2 0x31AA JUMP JUMPDEST AND DUP1 PUSH1 0x0 MSTORE PUSH1 0x3 PUSH1 0x20 MSTORE PUSH1 0x0 DUP1 MLOAD PUSH1 0x20 PUSH2 0x3708 DUP4 CODECOPY DUP2 MLOAD SWAP2 MSTORE PUSH1 0x40 DUP1 PUSH1 0x0 KECCAK256 PUSH1 0x6 DUP2 ADD PUSH2 0x535 DUP2 SLOAD PUSH2 0x3206 JUMP JUMPDEST SWAP1 SSTORE TIMESTAMP PUSH1 0xA DUP3 ADD SSTORE DUP4 PUSH1 0x0 MSTORE PUSH1 0x5 PUSH1 0x20 MSTORE PUSH2 0x555 PUSH1 0x4 CALLDATALOAD DUP4 PUSH1 0x0 KECCAK256 PUSH2 0x32F7 JUMP JUMPDEST PUSH1 0x3 DUP2 SLOAD SWAP2 ADD SLOAD DUP3 MLOAD SWAP2 DUP3 MSTORE PUSH1 0x20 DUP3 ADD MSTORE LOG2 STOP JUMPDEST CALLVALUE PUSH2 0x26A JUMPI PUSH1 0x20 CALLDATASIZE PUSH1 0x3 NOT ADD SLT PUSH2 0x26A JUMPI PUSH1 0x20 PUSH2 0x58C PUSH2 0x587 PUSH2 0x303C JUMP JUMPDEST PUSH2 0x3179 JUMP JUMPDEST PUSH1 0x40 MLOAD SWAP1 ISZERO ISZERO DUP2 MSTORE RETURN JUMPDEST PUSH2 0x30D6 JUMP JUMPDEST CALLVALUE PUSH2 0x26A JUMPI PUSH1 0x20 DUP1 PUSH1 0x3 NOT CALLDATASIZE ADD SLT PUSH2 0x26A JUMPI PUSH1 0x1 DUP1 SLOAD PUSH1 0x40 MLOAD PUSH4 0x1FCA74DD PUSH1 0xE3 SHL DUP2 MSTORE PUSH1 0x1 PUSH1 0x1 PUSH1 0xA0 SHL SUB SWAP1 SWAP2 AND SWAP3 SWAP2 SWAP1 DUP3 DUP2 PUSH1 0x4 DUP2 DUP8 GAS STATICCALL SWAP1 DUP2 ISZERO PUSH2 0x426 JUMPI PUSH1 0x0 SWAP2 PUSH2 0x947 JUMPI JUMPDEST POP PUSH1 0x40 MLOAD PUSH2 0x5F0 DUP2 PUSH2 0x328C JUMP JUMPDEST PUSH1 0x0 DUP2 MSTORE SWAP4 PUSH1 0x40 MLOAD PUSH2 0x601 DUP2 PUSH2 0x328C JUMP JUMPDEST PUSH1 0x0 DUP2 MSTORE SWAP4 DUP4 JUMPDEST DUP4 DUP2 LT PUSH2 0x7B9 JUMPI POP POP POP POP DUP1 PUSH1 0x0 SWAP1 JUMPDEST PUSH2 0x6A4 JUMPI JUMPDEST POP POP PUSH1 0x4 CALLDATALOAD DUP1 ISZERO ISZERO DUP1 PUSH2 0x69A JUMPI JUMPDEST ISZERO PUSH2 0x692 JUMPI JUMPDEST PUSH2 0x63A DUP2 PUSH2 0x3620 JUMP JUMPDEST SWAP2 PUSH2 0x644 DUP3 PUSH2 0x3620 JUMP JUMPDEST SWAP4 PUSH1 0x0 JUMPDEST DUP4 DUP2 LT PUSH2 0x65E JUMPI PUSH1 0x40 MLOAD DUP1 PUSH2 0x2E6 DUP9 DUP9 DUP4 PUSH2 0x3014 JUMP JUMPDEST DUP1 PUSH2 0x66C PUSH2 0x68D SWAP3 DUP5 PUSH2 0x3652 JUMP JUMPDEST MLOAD PUSH2 0x677 DUP3 DUP9 PUSH2 0x3652 JUMP JUMPDEST MSTORE PUSH2 0x682 DUP2 DUP6 PUSH2 0x3652 JUMP JUMPDEST MLOAD PUSH2 0x3A9 DUP3 DUP10 PUSH2 0x3652 JUMP JUMPDEST PUSH2 0x648 JUMP JUMPDEST POP DUP2 MLOAD PUSH2 0x631 JUMP JUMPDEST POP DUP3 MLOAD DUP2 LT PUSH2 0x62B JUMP JUMPDEST DUP4 MLOAD PUSH1 0x0 NOT SWAP1 DUP2 DUP2 ADD SWAP1 DUP2 GT PUSH2 0x792 JUMPI DUP3 LT ISZERO PUSH2 0x7B3 JUMPI PUSH1 0x0 SWAP1 DUP4 JUMPDEST PUSH2 0x6D7 JUMPI JUMPDEST POP POP PUSH2 0x6D1 DUP3 SWAP2 PUSH2 0x3206 JUMP JUMPDEST SWAP1 PUSH2 0x618 JUMP JUMPDEST PUSH2 0x6E7 DUP4 DUP8 SWAP5 SWAP7 SWAP4 SWAP6 SWAP8 MLOAD PUSH2 0x32EA JUMP JUMPDEST DUP2 DUP2 ADD SWAP1 DUP2 GT PUSH2 0x792 JUMPI DUP5 LT ISZERO PUSH2 0x7A8 JUMPI PUSH2 0x702 DUP5 DUP4 PUSH2 0x3652 JUMP JUMPDEST MLOAD DUP7 DUP6 ADD SWAP5 DUP6 DUP2 GT PUSH2 0x792 JUMPI DUP6 PUSH2 0x72B SWAP3 PUSH2 0x71E DUP11 SWAP9 DUP8 PUSH2 0x3652 JUMP JUMPDEST MLOAD GT PUSH2 0x734 JUMPI JUMPDEST POP PUSH2 0x3206 JUMP JUMPDEST SWAP2 SWAP5 SWAP3 SWAP6 PUSH2 0x6C0 JUMP JUMPDEST PUSH2 0x73E DUP3 DUP7 PUSH2 0x3652 JUMP JUMPDEST MLOAD PUSH2 0x749 DUP3 DUP8 PUSH2 0x3652 JUMP JUMPDEST MLOAD PUSH2 0x754 DUP5 DUP9 PUSH2 0x3652 JUMP JUMPDEST MSTORE PUSH2 0x75F DUP3 DUP8 PUSH2 0x3652 JUMP JUMPDEST MSTORE PUSH2 0x78B PUSH2 0x76D DUP4 DUP9 PUSH2 0x3652 JUMP JUMPDEST MLOAD SWAP2 PUSH2 0x779 DUP2 DUP10 PUSH2 0x3652 JUMP JUMPDEST MLOAD PUSH2 0x784 DUP6 DUP11 PUSH2 0x3652 JUMP JUMPDEST MSTORE DUP8 PUSH2 0x3652 JUMP JUMPDEST MSTORE DUP9 PUSH2 0x725 JUMP JUMPDEST PUSH4 0x4E487B71 PUSH1 0xE0 SHL PUSH1 0x0 MSTORE PUSH1 0x11 PUSH1 0x4 MSTORE PUSH1 0x24 PUSH1 0x0 REVERT JUMPDEST DUP2 SWAP5 SWAP3 SWAP6 SWAP4 POP PUSH2 0x6C5 JUMP JUMPDEST POP PUSH2 0x61D JUMP JUMPDEST PUSH1 0x40 MLOAD PUSH4 0xEB44FDD3 PUSH1 0xE0 SHL DUP2 MSTORE PUSH1 0x4 DUP2 ADD DUP3 SWAP1 MSTORE PUSH1 0x24 SWAP1 PUSH1 0x0 DUP2 DUP4 DUP2 DUP9 GAS STATICCALL DUP1 ISZERO PUSH2 0x426 JUMPI PUSH2 0x180 SWAP2 PUSH1 0x0 SWAP2 PUSH2 0x92C JUMPI JUMPDEST POP ADD MLOAD PUSH1 0x5 DUP2 LT ISZERO PUSH2 0x3EE JUMPI ISZERO PUSH2 0x80B JUMPI JUMPDEST POP PUSH2 0x806 SWAP1 PUSH2 0x3206 JUMP JUMPDEST PUSH2 0x608 JUMP JUMPDEST SWAP1 SWAP6 PUSH1 0x40 MLOAD SWAP1 PUSH4 0xCCF4467 PUSH1 0xE0 SHL DUP3 MSTORE DUP8 PUSH1 0x4 DUP4 ADD MSTORE DUP4 DUP3 DUP5 DUP2 DUP9 GAS STATICCALL SWAP2 DUP3 ISZERO PUSH2 0x426 JUMPI PUSH1 0x0 SWAP3 PUSH2 0x8FD JUMPI JUMPDEST POP DUP9 MLOAD DUP8 DUP2 ADD DUP1 SWAP2 GT PUSH2 0x8E8 JUMPI PUSH2 0x84D SWAP1 PUSH2 0x3620 JUMP JUMPDEST SWAP3 DUP2 MLOAD SWAP1 DUP9 DUP3 ADD DUP1 SWAP3 GT PUSH2 0x3C3 JUMPI POP PUSH2 0x866 DUP10 SWAP2 PUSH2 0x3620 JUMP JUMPDEST SWAP10 DUP9 PUSH1 0x0 DUP2 JUMPDEST PUSH2 0x899 JUMPI JUMPDEST POP POP SWAP2 PUSH2 0x890 SWAP2 PUSH2 0x888 PUSH2 0x806 SWAP7 SWAP6 SWAP5 MLOAD DUP7 PUSH2 0x3652 JUMP JUMPDEST MSTORE MLOAD DUP11 PUSH2 0x3652 JUMP JUMPDEST MSTORE SWAP7 SWAP6 SWAP1 PUSH2 0x7FC JUMP JUMPDEST SWAP1 SWAP2 SWAP3 DUP4 MLOAD DUP3 LT ISZERO PUSH2 0x8E0 JUMPI POP DUP1 PUSH2 0x8B4 PUSH2 0x8D6 SWAP3 DUP6 PUSH2 0x3652 JUMP JUMPDEST MLOAD PUSH2 0x8BF DUP3 DUP10 PUSH2 0x3652 JUMP JUMPDEST MSTORE DUP13 PUSH2 0x3A9 DUP3 PUSH2 0x8CF DUP2 DUP10 PUSH2 0x3652 JUMP JUMPDEST MLOAD SWAP3 PUSH2 0x3652 JUMP JUMPDEST SWAP1 DUP11 SWAP3 SWAP2 DUP2 PUSH2 0x86C JUMP JUMPDEST SWAP3 SWAP2 SWAP1 PUSH2 0x871 JUMP JUMPDEST DUP4 PUSH4 0x4E487B71 PUSH1 0xE0 SHL PUSH1 0x0 MSTORE PUSH1 0x11 PUSH1 0x4 MSTORE PUSH1 0x0 REVERT JUMPDEST SWAP1 SWAP2 POP DUP4 DUP2 DUP2 RETURNDATASIZE DUP4 GT PUSH2 0x925 JUMPI JUMPDEST PUSH2 0x915 DUP2 DUP4 PUSH2 0x32A7 JUMP JUMPDEST DUP2 ADD SUB SLT PUSH2 0x26A JUMPI MLOAD SWAP1 DUP10 PUSH2 0x837 JUMP JUMPDEST POP RETURNDATASIZE PUSH2 0x90B JUMP JUMPDEST PUSH2 0x941 SWAP2 POP RETURNDATASIZE DUP1 PUSH1 0x0 DUP4 RETURNDATACOPY PUSH2 0x418 DUP2 DUP4 PUSH2 0x32A7 JUMP JUMPDEST DUP11 PUSH2 0x7EA JUMP JUMPDEST SWAP1 POP DUP3 DUP2 DUP2 RETURNDATASIZE DUP4 GT PUSH2 0x96D JUMPI JUMPDEST PUSH2 0x95E DUP2 DUP4 PUSH2 0x32A7 JUMP JUMPDEST DUP2 ADD SUB SLT PUSH2 0x26A JUMPI MLOAD DUP5 PUSH2 0x5E3 JUMP JUMPDEST POP RETURNDATASIZE PUSH2 0x954 JUMP JUMPDEST CALLVALUE PUSH2 0x26A JUMPI PUSH1 0x40 CALLDATASIZE PUSH1 0x3 NOT ADD SLT PUSH2 0x26A JUMPI PUSH2 0x98D PUSH2 0x303C JUMP JUMPDEST PUSH1 0x1 PUSH1 0x1 PUSH1 0xA0 SHL SUB AND PUSH1 0x0 SWAP1 DUP2 MSTORE PUSH1 0x5 PUSH1 0x20 MSTORE PUSH1 0x40 SWAP1 KECCAK256 DUP1 SLOAD PUSH1 0x24 CALLDATALOAD SWAP2 SWAP1 DUP3 LT ISZERO PUSH2 0x26A JUMPI PUSH1 0x20 SWAP2 PUSH2 0x9BE SWAP2 PUSH2 0x30A8 JUMP JUMPDEST SWAP1 SLOAD PUSH1 0x40 MLOAD SWAP2 PUSH1 0x3 SHL SHR DUP2 MSTORE RETURN JUMPDEST CALLVALUE PUSH2 0x26A JUMPI PUSH1 0x20 CALLDATASIZE PUSH1 0x3 NOT ADD SLT PUSH2 0x26A JUMPI PUSH2 0x9E5 PUSH2 0x303C JUMP JUMPDEST PUSH2 0x9ED PUSH2 0x314D JUMP JUMPDEST PUSH1 0x1 DUP1 SLOAD PUSH1 0x1 PUSH1 0x1 PUSH1 0xA0 SHL SUB NOT AND PUSH1 0x1 PUSH1 0x1 PUSH1 0xA0 SHL SUB SWAP3 SWAP1 SWAP3 AND SWAP2 SWAP1 SWAP2 OR SWAP1 SSTORE STOP JUMPDEST CALLVALUE PUSH2 0x26A JUMPI PUSH1 0x20 DUP1 PUSH1 0x3 NOT CALLDATASIZE ADD SLT PUSH2 0x26A JUMPI PUSH2 0xA29 PUSH2 0x303C JUMP JUMPDEST SWAP1 PUSH1 0x40 MLOAD PUSH2 0xA36 DUP2 PUSH2 0x328C JUMP JUMPDEST PUSH1 0x0 DUP2 MSTORE PUSH1 0x1 DUP1 SLOAD PUSH1 0x40 MLOAD PUSH4 0x1FCA74DD PUSH1 0xE3 SHL DUP2 MSTORE SWAP3 SWAP5 SWAP3 SWAP1 PUSH1 0x1 PUSH1 0x1 PUSH1 0xA0 SHL SUB SWAP1 DUP2 AND DUP6 DUP4 PUSH1 0x4 DUP2 DUP5 GAS STATICCALL SWAP3 DUP4 ISZERO PUSH2 0x426 JUMPI PUSH1 0x0 SWAP4 PUSH2 0xB6A JUMPI JUMPDEST POP SWAP2 SWAP4 DUP2 AND SWAP2 DUP4 JUMPDEST DUP6 DUP2 LT PUSH2 0xA93 JUMPI PUSH1 0x40 MLOAD DUP8 DUP2 MSTORE DUP1 PUSH2 0x2E6 DUP2 DUP11 ADD DUP12 PUSH2 0x2FE0 JUMP JUMPDEST PUSH1 0x40 MLOAD PUSH4 0xEB44FDD3 PUSH1 0xE0 SHL DUP2 MSTORE PUSH1 0x4 DUP2 ADD DUP3 SWAP1 MSTORE PUSH1 0x24 SWAP1 PUSH1 0x0 DUP2 DUP4 DUP2 DUP8 GAS STATICCALL DUP1 ISZERO PUSH2 0x426 JUMPI PUSH1 0x80 DUP7 SWAP2 DUP9 SWAP4 PUSH1 0x0 SWAP2 PUSH2 0xB4F JUMPI JUMPDEST POP ADD MLOAD AND EQ PUSH2 0xADF JUMPI JUMPDEST POP PUSH2 0xADA SWAP1 PUSH2 0x3206 JUMP JUMPDEST PUSH2 0xA79 JUMP JUMPDEST DUP9 SWAP2 SWAP9 MLOAD SWAP1 DUP7 DUP3 ADD DUP1 SWAP3 GT PUSH2 0x3C3 JUMPI POP SWAP1 DUP9 PUSH2 0xAFB DUP8 SWAP4 PUSH2 0x3620 JUMP JUMPDEST SWAP2 DUP4 PUSH1 0x0 SWAP5 JUMPDEST PUSH2 0xB1F JUMPI JUMPDEST POP PUSH2 0xADA SWAP4 POP PUSH2 0xB17 SWAP1 MLOAD DUP4 PUSH2 0x3652 JUMP JUMPDEST MSTORE SWAP8 SWAP1 PUSH2 0xAD0 JUMP JUMPDEST SWAP2 DUP2 SWAP4 SWAP5 SWAP2 MLOAD DUP3 LT ISZERO PUSH2 0xB45 JUMPI POP DUP1 PUSH2 0x39E PUSH2 0xB3B SWAP3 DUP6 PUSH2 0x3652 JUMP JUMPDEST SWAP3 SWAP2 DUP2 DUP12 SWAP3 PUSH2 0xB01 JUMP JUMPDEST SWAP2 DUP5 SWAP4 SWAP2 POP PUSH2 0xB06 JUMP JUMPDEST PUSH2 0xB64 SWAP2 POP RETURNDATASIZE DUP1 PUSH1 0x0 DUP4 RETURNDATACOPY PUSH2 0x418 DUP2 DUP4 PUSH2 0x32A7 JUMP JUMPDEST DUP14 PUSH2 0xAC6 JUMP JUMPDEST SWAP1 SWAP3 POP DUP6 DUP2 DUP2 RETURNDATASIZE DUP4 GT PUSH2 0xB92 JUMPI JUMPDEST PUSH2 0xB82 DUP2 DUP4 PUSH2 0x32A7 JUMP JUMPDEST DUP2 ADD SUB SLT PUSH2 0x26A JUMPI MLOAD SWAP2 DUP8 PUSH2 0xA71 JUMP JUMPDEST POP RETURNDATASIZE PUSH2 0xB78 JUMP JUMPDEST CALLVALUE PUSH2 0x26A JUMPI PUSH1 0x20 DUP1 PUSH1 0x3 NOT CALLDATASIZE ADD SLT PUSH2 0x26A JUMPI PUSH1 0x40 MLOAD DUP1 SWAP2 PUSH1 0x40 DUP3 ADD SWAP1 PUSH1 0x40 DUP4 MSTORE PUSH1 0x60 MLOAD DUP1 SWAP3 MSTORE PUSH1 0x60 DUP4 ADD SWAP2 PUSH1 0x80 SWAP1 PUSH1 0x0 JUMPDEST DUP2 DUP2 LT PUSH2 0xC11 JUMPI POP POP POP DUP3 DUP3 SUB DUP2 DUP5 ADD MSTORE DUP1 PUSH1 0x60 MLOAD SWAP3 DUP4 DUP2 MSTORE ADD SWAP2 PUSH1 0x80 SWAP2 PUSH1 0x0 JUMPDEST DUP3 DUP2 LT PUSH2 0xBFA JUMPI POP POP POP POP SUB SWAP1 RETURN JUMPDEST DUP4 MLOAD DUP6 MSTORE DUP7 SWAP6 POP SWAP4 DUP2 ADD SWAP4 SWAP3 DUP2 ADD SWAP3 PUSH1 0x1 ADD PUSH2 0xBEB JUMP JUMPDEST DUP3 MLOAD PUSH1 0x1 PUSH1 0x1 PUSH1 0xA0 SHL SUB AND DUP6 MSTORE DUP7 SWAP6 POP SWAP4 DUP4 ADD SWAP4 SWAP2 DUP4 ADD SWAP2 PUSH1 0x1 ADD PUSH2 0xBCA JUMP JUMPDEST CALLVALUE PUSH2 0x26A JUMPI PUSH1 0x80 CALLDATASIZE PUSH1 0x3 NOT ADD SLT PUSH2 0x26A JUMPI PUSH1 0x4 CALLDATALOAD PUSH1 0x24 PUSH2 0xC4F PUSH2 0x3052 JUMP JUMPDEST PUSH1 0x1 SLOAD PUSH1 0x64 CALLDATALOAD SWAP2 PUSH1 0x1 PUSH1 0x1 PUSH1 0xA0 SHL SUB SWAP2 PUSH1 0x44 CALLDATALOAD SWAP2 DUP4 SWAP2 PUSH2 0xC72 SWAP1 DUP4 AND CALLER EQ PUSH2 0x31AA JUMP JUMPDEST AND SWAP1 DUP2 PUSH1 0x0 MSTORE PUSH1 0x20 SWAP4 PUSH1 0x3 DUP6 MSTORE PUSH1 0x40 PUSH1 0x0 KECCAK256 SWAP2 PUSH2 0xC8F DUP4 SLOAD PUSH2 0x3206 JUMP JUMPDEST DUP4 SSTORE PUSH1 0x4 DUP4 ADD PUSH2 0xCA0 DUP4 DUP3 SLOAD PUSH2 0x3215 JUMP JUMPDEST SWAP1 SSTORE TIMESTAMP PUSH1 0xA DUP5 ADD SSTORE DUP4 PUSH1 0x0 MSTORE PUSH1 0x8 DUP7 MSTORE PUSH1 0x40 PUSH1 0x0 KECCAK256 DUP2 PUSH1 0x0 MSTORE DUP7 MSTORE PUSH1 0x40 PUSH1 0x0 KECCAK256 PUSH2 0xCCA DUP2 SLOAD PUSH2 0x3206 JUMP JUMPDEST SWAP1 SSTORE DUP4 PUSH1 0x0 MSTORE PUSH1 0x8 DUP7 MSTORE PUSH1 0x40 PUSH1 0x0 KECCAK256 DUP2 PUSH1 0x0 MSTORE DUP7 MSTORE PUSH1 0x40 PUSH1 0x0 KECCAK256 SLOAD DUP5 PUSH1 0x0 MSTORE PUSH1 0x8 DUP8 MSTORE PUSH1 0x40 PUSH1 0x0 KECCAK256 SWAP1 PUSH1 0x9 DUP6 ADD SWAP2 DUP3 SLOAD PUSH1 0x0 MSTORE DUP9 MSTORE PUSH1 0x40 PUSH1 0x0 KECCAK256 SLOAD LT PUSH2 0xEB1 JUMPI JUMPDEST POP POP DUP7 PUSH1 0x0 MSTORE PUSH1 0x4 DUP6 MSTORE PUSH1 0x40 PUSH1 0x0 KECCAK256 SWAP4 DUP6 PUSH2 0xD27 DUP4 DUP8 SLOAD PUSH2 0x3215 JUMP JUMPDEST SWAP2 DUP3 DUP8 SSTORE PUSH1 0x1 SLOAD AND PUSH1 0x40 MLOAD SWAP9 DUP10 DUP1 SWAP3 PUSH4 0xCCF4467 PUSH1 0xE0 SHL DUP3 MSTORE DUP13 PUSH1 0x4 DUP4 ADD MSTORE GAS STATICCALL SWAP7 DUP8 ISZERO PUSH2 0x426 JUMPI PUSH1 0x0 SWAP8 PUSH2 0xE82 JUMPI JUMPDEST POP PUSH1 0x1 DUP6 ADD DUP8 DUP2 SSTORE SWAP7 DUP1 ISZERO PUSH2 0xE79 JUMPI PUSH2 0xD6F SWAP2 PUSH2 0x32CA JUMP JUMPDEST PUSH1 0x3 DUP6 ADD SSTORE PUSH1 0x4 DUP5 ADD DUP1 SLOAD DUP3 GT PUSH2 0xE71 JUMPI JUMPDEST POP POP DUP2 PUSH1 0x0 MSTORE PUSH1 0x5 DUP5 MSTORE PUSH1 0x40 PUSH1 0x0 KECCAK256 DUP1 SLOAD SWAP1 DUP2 ISZERO SWAP2 DUP3 ISZERO PUSH2 0xE1A JUMPI JUMPDEST POP POP SWAP2 PUSH1 0x0 DUP1 MLOAD PUSH1 0x20 PUSH2 0x3708 DUP4 CODECOPY DUP2 MLOAD SWAP2 MSTORE PUSH1 0x40 PUSH1 0x0 DUP1 MLOAD PUSH1 0x20 PUSH2 0x3748 DUP4 CODECOPY DUP2 MLOAD SWAP2 MSTORE SWAP8 SWAP6 SWAP4 DUP2 SWAP8 SWAP6 PUSH2 0xE00 JUMPI JUMPDEST DUP4 PUSH1 0x0 MSTORE PUSH1 0x6 DUP7 MSTORE PUSH2 0xDE0 DUP11 DUP4 PUSH1 0x0 KECCAK256 PUSH2 0x32F7 JUMP JUMPDEST PUSH1 0x3 DUP2 SLOAD SWAP2 ADD SLOAD DUP3 MLOAD SWAP2 DUP3 MSTORE DUP7 DUP3 ADD MSTORE LOG2 SLOAD SWAP2 SLOAD SWAP1 DUP4 MLOAD SWAP3 DUP4 MSTORE DUP3 ADD MSTORE LOG2 STOP JUMPDEST DUP4 PUSH1 0x0 MSTORE PUSH1 0x5 DUP7 MSTORE PUSH2 0xE15 DUP11 DUP4 PUSH1 0x0 KECCAK256 PUSH2 0x32F7 JUMP JUMPDEST PUSH2 0xDCB JUMP JUMPDEST SWAP1 SWAP7 SWAP5 SWAP3 SWAP6 SWAP4 SWAP2 POP PUSH1 0x0 NOT DUP2 ADD SWAP1 DUP2 GT PUSH2 0x792 JUMPI PUSH1 0x40 DUP1 SWAP7 DUP10 PUSH2 0xE5B PUSH1 0x0 DUP1 MLOAD PUSH1 0x20 PUSH2 0x3708 DUP4 CODECOPY DUP2 MLOAD SWAP2 MSTORE SWAP5 PUSH1 0x0 DUP1 MLOAD PUSH1 0x20 PUSH2 0x3748 DUP4 CODECOPY DUP2 MLOAD SWAP2 MSTORE SWAP12 PUSH2 0x30A8 JUMP JUMPDEST SWAP1 SLOAD SWAP1 PUSH1 0x3 SHL SHR EQ ISZERO SWAP4 SWAP6 SWAP8 POP SWAP4 SWAP6 SWAP8 POP PUSH2 0xD9D JUMP JUMPDEST SSTORE DUP7 DUP1 PUSH2 0xD81 JUMP JUMPDEST POP POP PUSH1 0x0 PUSH2 0xD6F JUMP JUMPDEST SWAP1 SWAP7 POP DUP6 DUP2 DUP2 RETURNDATASIZE DUP4 GT PUSH2 0xEAA JUMPI JUMPDEST PUSH2 0xE9A DUP2 DUP4 PUSH2 0x32A7 JUMP JUMPDEST DUP2 ADD SUB SLT PUSH2 0x26A JUMPI MLOAD SWAP6 DUP9 PUSH2 0xD57 JUMP JUMPDEST POP RETURNDATASIZE PUSH2 0xE90 JUMP JUMPDEST SSTORE DUP8 DUP1 PUSH2 0xD0B JUMP JUMPDEST CALLVALUE PUSH2 0x26A JUMPI PUSH1 0x40 CALLDATASIZE PUSH1 0x3 NOT ADD SLT PUSH2 0x26A JUMPI PUSH2 0xED2 PUSH2 0x303C JUMP JUMPDEST PUSH1 0x1 PUSH1 0x1 PUSH1 0xA0 SHL SUB AND PUSH1 0x0 SWAP1 DUP2 MSTORE PUSH1 0x6 PUSH1 0x20 MSTORE PUSH1 0x40 SWAP1 KECCAK256 DUP1 SLOAD PUSH1 0x24 CALLDATALOAD SWAP2 SWAP1 DUP3 LT ISZERO PUSH2 0x26A JUMPI PUSH1 0x20 SWAP2 PUSH2 0x9BE SWAP2 PUSH2 0x30A8 JUMP JUMPDEST CALLVALUE PUSH2 0x26A JUMPI PUSH1 0x80 CALLDATASIZE PUSH1 0x3 NOT ADD SLT PUSH2 0x26A JUMPI PUSH1 0x4 CALLDATALOAD PUSH2 0xF1F PUSH2 0x3052 JUMP JUMPDEST PUSH1 0x44 CALLDATALOAD SWAP2 PUSH1 0x1 PUSH1 0x1 PUSH1 0xA0 SHL SUB SWAP2 SWAP1 PUSH1 0x64 CALLDATALOAD DUP4 DUP2 AND SWAP2 SWAP1 DUP3 SWAP1 SUB PUSH2 0x26A JUMPI PUSH2 0xF4B DUP5 PUSH1 0x1 SLOAD AND CALLER EQ PUSH2 0x31AA JUMP JUMPDEST DUP5 ISZERO PUSH2 0x1104 JUMPI DUP2 ISZERO SWAP2 DUP5 PUSH1 0x2 SLOAD AND DUP1 ISZERO ISZERO SWAP2 DUP3 PUSH2 0x10FA JUMPI JUMPDEST POP POP DUP3 SWAP1 DUP4 ISZERO PUSH2 0x10F2 JUMPI JUMPDEST POP ISZERO PUSH2 0x10A1 JUMPI DUP4 PUSH1 0x24 SWAP4 AND SWAP5 DUP6 PUSH1 0x0 MSTORE PUSH1 0x3 PUSH1 0x20 MSTORE PUSH1 0x40 PUSH1 0x0 KECCAK256 SWAP2 PUSH1 0x1 DUP4 ADD PUSH2 0xF97 DUP2 SLOAD PUSH2 0x3206 JUMP JUMPDEST SWAP1 SSTORE TIMESTAMP PUSH1 0xA DUP5 ADD SSTORE DUP4 ISZERO PUSH2 0x107B JUMPI PUSH1 0xB DUP4 ADD PUSH2 0xFB3 DUP2 SLOAD PUSH2 0x3206 JUMP JUMPDEST SWAP1 SSTORE PUSH1 0xD DUP4 ADD PUSH2 0xFC4 DUP4 DUP3 SLOAD PUSH2 0x3215 JUMP JUMPDEST SWAP1 SSTORE JUMPDEST PUSH1 0x0 DUP7 PUSH1 0x1 SLOAD AND PUSH1 0x40 MLOAD SWAP7 DUP8 DUP1 SWAP3 PUSH4 0xEB44FDD3 PUSH1 0xE0 SHL DUP3 MSTORE DUP6 PUSH1 0x4 DUP4 ADD MSTORE GAS STATICCALL SWAP5 DUP6 ISZERO PUSH2 0x426 JUMPI PUSH1 0x0 DUP1 MLOAD PUSH1 0x20 PUSH2 0x3708 DUP4 CODECOPY DUP2 MLOAD SWAP2 MSTORE SWAP7 PUSH1 0x40 SWAP7 DUP10 SWAP3 PUSH1 0x0 SWAP2 PUSH2 0x1060 JUMPI JUMPDEST POP MLOAD AND EQ PUSH2 0x1039 JUMPI JUMPDEST POP POP DUP1 SLOAD SWAP2 ISZERO PUSH2 0x1030 JUMPI PUSH1 0xD ADD SLOAD JUMPDEST DUP3 MLOAD SWAP2 DUP3 MSTORE PUSH1 0x20 DUP3 ADD MSTORE LOG2 STOP JUMPDEST PUSH1 0xE ADD SLOAD PUSH2 0x1023 JUMP JUMPDEST PUSH1 0x7 DUP4 ADD PUSH2 0x1047 DUP2 SLOAD PUSH2 0x3206 JUMP JUMPDEST SWAP1 SSTORE PUSH1 0x0 MSTORE PUSH1 0x4 PUSH1 0x20 MSTORE PUSH1 0x8 DUP5 PUSH1 0x0 KECCAK256 ADD SSTORE DUP6 DUP1 PUSH2 0x1014 JUMP JUMPDEST PUSH2 0x1075 SWAP2 POP RETURNDATASIZE DUP1 PUSH1 0x0 DUP4 RETURNDATACOPY PUSH2 0x418 DUP2 DUP4 PUSH2 0x32A7 JUMP JUMPDEST DUP11 PUSH2 0x100B JUMP JUMPDEST PUSH1 0xC DUP4 ADD PUSH2 0x1089 DUP2 SLOAD PUSH2 0x3206 JUMP JUMPDEST SWAP1 SSTORE PUSH1 0xE DUP4 ADD PUSH2 0x109A DUP4 DUP3 SLOAD PUSH2 0x3215 JUMP JUMPDEST SWAP1 SSTORE PUSH2 0xFC7 JUMP JUMPDEST PUSH1 0x40 MLOAD PUSH3 0x461BCD PUSH1 0xE5 SHL DUP2 MSTORE PUSH1 0x20 PUSH1 0x4 DUP3 ADD MSTORE PUSH1 0x24 DUP1 DUP3 ADD MSTORE PUSH32 0x416E616C79746963733A207061796D656E7420746F6B656E206E6F7420747261 PUSH1 0x44 DUP3 ADD MSTORE PUSH4 0x18DAD959 PUSH1 0xE2 SHL PUSH1 0x64 DUP3 ADD MSTORE PUSH1 0x84 SWAP1 REVERT JUMPDEST SWAP1 POP DUP7 PUSH2 0xF6E JUMP JUMPDEST EQ SWAP1 POP DUP7 DUP1 PUSH2 0xF63 JUMP JUMPDEST PUSH1 0x40 MLOAD PUSH3 0x461BCD PUSH1 0xE5 SHL DUP2 MSTORE PUSH1 0x20 PUSH1 0x4 DUP3 ADD MSTORE PUSH1 0x18 PUSH1 0x24 DUP3 ADD MSTORE PUSH24 0x416E616C79746963733A207A65726F2077696E6E696E6773 PUSH1 0x40 SHL PUSH1 0x44 DUP3 ADD MSTORE PUSH1 0x64 SWAP1 REVERT JUMPDEST CALLVALUE PUSH2 0x26A JUMPI PUSH1 0x20 DUP1 PUSH1 0x3 NOT CALLDATASIZE ADD SLT PUSH2 0x26A JUMPI PUSH1 0x1 DUP1 SLOAD PUSH1 0x40 MLOAD PUSH4 0x1FCA74DD PUSH1 0xE3 SHL DUP2 MSTORE PUSH1 0x1 PUSH1 0x1 PUSH1 0xA0 SHL SUB SWAP1 SWAP2 AND SWAP2 SWAP1 DUP4 DUP2 PUSH1 0x4 DUP2 DUP7 GAS STATICCALL SWAP1 DUP2 ISZERO PUSH2 0x426 JUMPI PUSH1 0x0 SWAP2 PUSH2 0x1472 JUMPI JUMPDEST POP PUSH1 0x40 MLOAD PUSH2 0x1198 DUP2 PUSH2 0x328C JUMP JUMPDEST PUSH1 0x0 DUP2 MSTORE SWAP4 PUSH1 0x40 MLOAD PUSH2 0x11A9 DUP2 PUSH2 0x328C JUMP JUMPDEST PUSH1 0x0 DUP2 MSTORE SWAP4 DUP4 JUMPDEST DUP4 DUP2 LT PUSH2 0x12BF JUMPI POP POP POP POP DUP1 PUSH1 0x0 SWAP1 JUMPDEST PUSH2 0x122B JUMPI JUMPDEST POP POP PUSH1 0x4 CALLDATALOAD DUP1 ISZERO ISZERO DUP1 PUSH2 0x1221 JUMPI JUMPDEST ISZERO PUSH2 0x1219 JUMPI JUMPDEST PUSH2 0x11E2 DUP2 PUSH2 0x3620 JUMP JUMPDEST SWAP2 PUSH2 0x11EC DUP3 PUSH2 0x3620 JUMP JUMPDEST SWAP4 PUSH1 0x0 JUMPDEST DUP4 DUP2 LT PUSH2 0x1206 JUMPI PUSH1 0x40 MLOAD DUP1 PUSH2 0x2E6 DUP9 DUP9 DUP4 PUSH2 0x3014 JUMP JUMPDEST DUP1 PUSH2 0x66C PUSH2 0x1214 SWAP3 DUP5 PUSH2 0x3652 JUMP JUMPDEST PUSH2 0x11F0 JUMP JUMPDEST POP DUP2 MLOAD PUSH2 0x11D9 JUMP JUMPDEST POP DUP3 MLOAD DUP2 LT PUSH2 0x11D3 JUMP JUMPDEST DUP4 MLOAD PUSH1 0x0 NOT SWAP1 DUP2 DUP2 ADD SWAP1 DUP2 GT PUSH2 0x792 JUMPI DUP3 LT ISZERO PUSH2 0x12B9 JUMPI PUSH1 0x0 SWAP1 DUP4 JUMPDEST PUSH2 0x125E JUMPI JUMPDEST POP POP PUSH2 0x1258 DUP3 SWAP2 PUSH2 0x3206 JUMP JUMPDEST SWAP1 PUSH2 0x11C0 JUMP JUMPDEST PUSH2 0x126E DUP4 DUP8 SWAP5 SWAP7 SWAP4 SWAP6 SWAP8 MLOAD PUSH2 0x32EA JUMP JUMPDEST DUP2 DUP2 ADD SWAP1 DUP2 GT PUSH2 0x792 JUMPI DUP5 LT ISZERO PUSH2 0x12AE JUMPI PUSH2 0x1289 DUP5 DUP4 PUSH2 0x3652 JUMP JUMPDEST MLOAD DUP7 DUP6 ADD SWAP5 DUP6 DUP2 GT PUSH2 0x792 JUMPI DUP6 PUSH2 0x12A5 SWAP3 PUSH2 0x71E DUP11 SWAP9 DUP8 PUSH2 0x3652 JUMP JUMPDEST SWAP2 SWAP5 SWAP3 SWAP6 PUSH2 0x1247 JUMP JUMPDEST DUP2 SWAP5 SWAP3 SWAP6 SWAP4 POP PUSH2 0x124C JUMP JUMPDEST POP PUSH2 0x11C5 JUMP JUMPDEST PUSH1 0x40 MLOAD PUSH4 0xEB44FDD3 PUSH1 0xE0 SHL DUP2 MSTORE PUSH1 0x4 DUP2 ADD DUP3 SWAP1 MSTORE PUSH1 0x24 SWAP1 PUSH1 0x0 DUP2 DUP4 DUP2 DUP8 GAS STATICCALL DUP1 ISZERO PUSH2 0x426 JUMPI PUSH2 0x180 SWAP2 PUSH1 0x0 SWAP2 PUSH2 0x1457 JUMPI JUMPDEST POP ADD MLOAD PUSH1 0x5 DUP2 LT ISZERO PUSH2 0x3EE JUMPI ISZERO PUSH2 0x1311 JUMPI JUMPDEST POP PUSH2 0x130C SWAP1 PUSH2 0x3206 JUMP JUMPDEST PUSH2 0x11B0 JUMP JUMPDEST SWAP1 SWAP6 PUSH1 0x40 MLOAD PUSH4 0xCCF4467 PUSH1 0xE0 SHL DUP2 MSTORE DUP8 PUSH1 0x4 DUP3 ADD MSTORE DUP5 DUP2 DUP5 DUP2 DUP8 GAS STATICCALL SWAP1 DUP2 ISZERO PUSH2 0x426 JUMPI PUSH1 0x0 SWAP2 PUSH2 0x142A JUMPI JUMPDEST POP PUSH1 0x40 MLOAD PUSH4 0x28C28245 PUSH1 0xE2 SHL DUP2 MSTORE PUSH1 0x4 DUP2 ADD DUP10 SWAP1 MSTORE SWAP1 DUP6 DUP3 DUP6 DUP2 DUP9 GAS STATICCALL SWAP1 DUP2 ISZERO PUSH2 0x426 JUMPI PUSH1 0x0 SWAP2 PUSH2 0x13F9 JUMPI JUMPDEST PUSH2 0x1372 SWAP3 POP PUSH2 0x3215 JUMP JUMPDEST SWAP1 DUP9 MLOAD DUP8 DUP2 ADD DUP1 SWAP2 GT PUSH2 0x8E8 JUMPI PUSH2 0x1388 SWAP1 PUSH2 0x3620 JUMP JUMPDEST SWAP3 DUP2 MLOAD SWAP1 DUP9 DUP3 ADD DUP1 SWAP3 GT PUSH2 0x3C3 JUMPI POP PUSH2 0x13A1 DUP10 SWAP2 PUSH2 0x3620 JUMP JUMPDEST SWAP10 DUP9 PUSH1 0x0 DUP2 JUMPDEST PUSH2 0x13CC JUMPI JUMPDEST POP POP SWAP2 PUSH2 0x13C3 SWAP2 PUSH2 0x888 PUSH2 0x130C SWAP7 SWAP6 SWAP5 MLOAD DUP7 PUSH2 0x3652 JUMP JUMPDEST MSTORE SWAP7 SWAP6 SWAP1 PUSH2 0x1302 JUMP JUMPDEST SWAP1 SWAP2 SWAP3 DUP4 MLOAD DUP3 LT ISZERO PUSH2 0x13F1 JUMPI POP DUP1 PUSH2 0x8B4 PUSH2 0x13E7 SWAP3 DUP6 PUSH2 0x3652 JUMP JUMPDEST SWAP1 DUP11 SWAP3 SWAP2 DUP2 PUSH2 0x13A7 JUMP JUMPDEST SWAP3 SWAP2 SWAP1 PUSH2 0x13AC JUMP JUMPDEST SWAP1 POP DUP6 DUP3 DUP2 RETURNDATASIZE DUP4 GT PUSH2 0x1423 JUMPI JUMPDEST PUSH2 0x1410 DUP2 DUP4 PUSH2 0x32A7 JUMP JUMPDEST DUP2 ADD SUB SLT PUSH2 0x26A JUMPI PUSH2 0x1372 SWAP2 MLOAD SWAP1 PUSH2 0x1368 JUMP JUMPDEST POP RETURNDATASIZE PUSH2 0x1406 JUMP JUMPDEST SWAP1 POP DUP5 DUP2 DUP2 RETURNDATASIZE DUP4 GT PUSH2 0x1450 JUMPI JUMPDEST PUSH2 0x1441 DUP2 DUP4 PUSH2 0x32A7 JUMP JUMPDEST DUP2 ADD SUB SLT PUSH2 0x26A JUMPI MLOAD DUP10 PUSH2 0x133C JUMP JUMPDEST POP RETURNDATASIZE PUSH2 0x1437 JUMP JUMPDEST PUSH2 0x146C SWAP2 POP RETURNDATASIZE DUP1 PUSH1 0x0 DUP4 RETURNDATACOPY PUSH2 0x418 DUP2 DUP4 PUSH2 0x32A7 JUMP JUMPDEST DUP11 PUSH2 0x12F0 JUMP JUMPDEST SWAP1 POP DUP4 DUP2 DUP2 RETURNDATASIZE DUP4 GT PUSH2 0x1498 JUMPI JUMPDEST PUSH2 0x1489 DUP2 DUP4 PUSH2 0x32A7 JUMP JUMPDEST DUP2 ADD SUB SLT PUSH2 0x26A JUMPI MLOAD DUP5 PUSH2 0x118B JUMP JUMPDEST POP RETURNDATASIZE PUSH2 0x147F JUMP JUMPDEST CALLVALUE PUSH2 0x26A JUMPI PUSH1 0x20 DUP1 PUSH1 0x3 NOT CALLDATASIZE ADD SLT PUSH2 0x26A JUMPI PUSH1 0x4 CALLDATALOAD SWAP1 PUSH1 0x5 DUP1 DUP4 LT ISZERO SWAP1 DUP2 PUSH2 0x26A JUMPI PUSH1 0x40 MLOAD PUSH2 0x14CD DUP2 PUSH2 0x328C JUMP JUMPDEST PUSH1 0x0 DUP2 MSTORE PUSH1 0x1 DUP1 SLOAD PUSH1 0x40 MLOAD PUSH4 0x1FCA74DD PUSH1 0xE3 SHL DUP2 MSTORE SWAP3 SWAP7 SWAP3 SWAP5 SWAP2 SWAP4 SWAP2 SWAP1 PUSH1 0x1 PUSH1 0x1 PUSH1 0xA0 SHL SUB AND DUP7 DUP7 PUSH1 0x4 DUP2 DUP5 GAS STATICCALL SWAP6 DUP7 ISZERO PUSH2 0x426 JUMPI PUSH1 0x0 SWAP7 PUSH2 0x1609 JUMPI JUMPDEST POP DUP5 JUMPDEST DUP7 DUP2 LT PUSH2 0x1527 JUMPI PUSH1 0x40 MLOAD DUP9 DUP2 MSTORE DUP1 PUSH2 0x2E6 DUP2 DUP12 ADD DUP13 PUSH2 0x2FE0 JUMP JUMPDEST PUSH1 0x40 MLOAD PUSH4 0xEB44FDD3 PUSH1 0xE0 SHL DUP2 MSTORE PUSH1 0x4 DUP2 ADD DUP3 SWAP1 MSTORE PUSH1 0x24 SWAP1 PUSH1 0x0 DUP2 DUP4 DUP2 DUP8 GAS STATICCALL DUP1 ISZERO PUSH2 0x426 JUMPI PUSH2 0x180 SWAP2 PUSH1 0x0 SWAP2 PUSH2 0x15EE JUMPI JUMPDEST POP ADD MLOAD DUP6 DUP2 LT ISZERO PUSH2 0x3EE JUMPI DUP5 PUSH2 0x3EE JUMPI DUP7 EQ PUSH2 0x157E JUMPI JUMPDEST POP PUSH2 0x1579 SWAP1 PUSH2 0x3206 JUMP JUMPDEST PUSH2 0x150D JUMP JUMPDEST DUP10 SWAP2 SWAP10 MLOAD SWAP1 DUP8 DUP3 ADD DUP1 SWAP3 GT PUSH2 0x3C3 JUMPI POP SWAP1 DUP10 PUSH2 0x159A DUP9 SWAP4 PUSH2 0x3620 JUMP JUMPDEST SWAP2 DUP4 PUSH1 0x0 SWAP5 JUMPDEST PUSH2 0x15BE JUMPI JUMPDEST POP PUSH2 0x1579 SWAP4 POP PUSH2 0x15B6 SWAP1 MLOAD DUP4 PUSH2 0x3652 JUMP JUMPDEST MSTORE SWAP9 SWAP1 PUSH2 0x156F JUMP JUMPDEST SWAP2 DUP2 SWAP4 SWAP5 SWAP2 MLOAD DUP3 LT ISZERO PUSH2 0x15E4 JUMPI POP DUP1 PUSH2 0x39E PUSH2 0x15DA SWAP3 DUP6 PUSH2 0x3652 JUMP JUMPDEST SWAP3 SWAP2 DUP2 DUP13 SWAP3 PUSH2 0x15A0 JUMP JUMPDEST SWAP2 DUP5 SWAP4 SWAP2 POP PUSH2 0x15A5 JUMP JUMPDEST PUSH2 0x1603 SWAP2 POP RETURNDATASIZE DUP1 PUSH1 0x0 DUP4 RETURNDATACOPY PUSH2 0x418 DUP2 DUP4 PUSH2 0x32A7 JUMP JUMPDEST DUP13 PUSH2 0x1558 JUMP JUMPDEST SWAP1 SWAP6 POP DUP7 DUP2 DUP2 RETURNDATASIZE DUP4 GT PUSH2 0x1631 JUMPI JUMPDEST PUSH2 0x1621 DUP2 DUP4 PUSH2 0x32A7 JUMP JUMPDEST DUP2 ADD SUB SLT PUSH2 0x26A JUMPI MLOAD SWAP5 DUP9 PUSH2 0x150A JUMP JUMPDEST POP RETURNDATASIZE PUSH2 0x1617 JUMP JUMPDEST CALLVALUE PUSH2 0x26A JUMPI PUSH2 0x1646 CALLDATASIZE PUSH2 0x3068 JUMP JUMPDEST PUSH1 0x1 SLOAD PUSH1 0x1 PUSH1 0x1 PUSH1 0xA0 SHL SUB SWAP4 SWAP3 DUP5 SWAP2 PUSH2 0x1662 SWAP1 DUP4 AND CALLER EQ PUSH2 0x31AA JUMP JUMPDEST AND SWAP3 DUP4 PUSH1 0x0 MSTORE PUSH1 0x24 PUSH1 0x20 SWAP2 PUSH1 0x3 DUP4 MSTORE PUSH1 0x40 PUSH1 0x0 KECCAK256 SWAP4 PUSH2 0x1686 PUSH1 0x5 DUP7 ADD SWAP2 DUP3 SLOAD PUSH2 0x3215 JUMP JUMPDEST SWAP1 SSTORE TIMESTAMP PUSH1 0xA DUP6 ADD SSTORE DUP5 PUSH1 0x0 MSTORE PUSH1 0x4 DUP4 MSTORE DUP3 PUSH1 0x40 PUSH1 0x0 KECCAK256 SWAP2 PUSH1 0x1 SLOAD AND PUSH1 0x40 MLOAD SWAP4 DUP5 DUP1 SWAP3 PUSH4 0x28C28245 PUSH1 0xE2 SHL DUP3 MSTORE DUP10 PUSH1 0x4 DUP4 ADD MSTORE GAS STATICCALL SWAP2 DUP3 ISZERO PUSH2 0x426 JUMPI PUSH1 0x0 SWAP3 PUSH2 0x170B JUMPI JUMPDEST POP PUSH1 0x0 DUP1 MLOAD PUSH1 0x20 PUSH2 0x3708 DUP4 CODECOPY DUP2 MLOAD SWAP2 MSTORE SWAP5 PUSH1 0x40 SWAP5 SWAP4 SWAP3 PUSH1 0x2 PUSH2 0x16F8 SWAP4 ADD SSTORE DUP7 PUSH1 0x0 MSTORE PUSH1 0x7 DUP4 MSTORE DUP5 PUSH1 0x0 KECCAK256 PUSH2 0x32F7 JUMP JUMPDEST PUSH1 0x3 DUP3 SLOAD SWAP3 ADD SLOAD SWAP1 DUP4 MLOAD SWAP3 DUP4 MSTORE DUP3 ADD MSTORE LOG2 STOP JUMPDEST SWAP1 SWAP4 SWAP3 DUP1 SWAP3 POP DUP2 DUP2 RETURNDATASIZE DUP4 GT PUSH2 0x1747 JUMPI JUMPDEST PUSH2 0x1725 DUP2 DUP4 PUSH2 0x32A7 JUMP JUMPDEST DUP2 ADD SUB SLT PUSH2 0x26A JUMPI MLOAD SWAP2 SWAP3 SWAP1 SWAP2 SWAP1 PUSH1 0x0 DUP1 MLOAD PUSH1 0x20 PUSH2 0x3708 DUP4 CODECOPY DUP2 MLOAD SWAP2 MSTORE PUSH2 0x16C9 JUMP JUMPDEST POP RETURNDATASIZE PUSH2 0x171B JUMP JUMPDEST CALLVALUE PUSH2 0x26A JUMPI PUSH1 0x0 CALLDATASIZE PUSH1 0x3 NOT ADD SLT PUSH2 0x26A JUMPI PUSH1 0x0 SLOAD PUSH1 0x40 MLOAD PUSH1 0x1 PUSH1 0x1 PUSH1 0xA0 SHL SUB SWAP1 SWAP2 AND DUP2 MSTORE PUSH1 0x20 SWAP1 RETURN JUMPDEST CALLVALUE PUSH2 0x26A JUMPI PUSH1 0x20 CALLDATASIZE PUSH1 0x3 NOT ADD SLT PUSH2 0x26A JUMPI PUSH1 0x1 PUSH1 0x1 PUSH1 0xA0 SHL SUB PUSH2 0x1798 PUSH2 0x303C JUMP JUMPDEST AND PUSH1 0x0 MSTORE PUSH1 0x3 PUSH1 0x20 MSTORE PUSH1 0x40 PUSH1 0x0 KECCAK256 DUP1 SLOAD PUSH1 0x1 DUP3 ADD SLOAD SWAP2 PUSH1 0x2 DUP2 ADD SLOAD PUSH1 0x3 DUP3 ADD SLOAD PUSH1 0x4 DUP4 ADD SLOAD PUSH1 0x5 DUP5 ADD SLOAD PUSH1 0x6 DUP6 ADD SLOAD PUSH1 0x7 DUP7 ADD SLOAD PUSH1 0x8 DUP8 ADD SLOAD SWAP2 PUSH1 0x9 DUP9 ADD SLOAD SWAP4 PUSH1 0xA DUP10 ADD SLOAD SWAP6 PUSH1 0xB DUP11 ADD SLOAD SWAP8 PUSH1 0xC DUP12 ADD SLOAD SWAP10 PUSH1 0xD DUP13 ADD SLOAD SWAP12 PUSH1 0xE ADD SLOAD SWAP13 PUSH1 0x40 MLOAD SWAP15 DUP16 SWAP2 DUP3 MSTORE PUSH1 0x20 DUP3 ADD MSTORE PUSH1 0x40 ADD MSTORE PUSH1 0x60 DUP14 ADD MSTORE PUSH1 0x80 DUP13 ADD MSTORE PUSH1 0xA0 DUP12 ADD MSTORE PUSH1 0xC0 DUP11 ADD MSTORE PUSH1 0xE0 DUP10 ADD MSTORE PUSH2 0x100 DUP9 ADD MSTORE PUSH2 0x120 DUP8 ADD MSTORE PUSH2 0x140 DUP7 ADD MSTORE PUSH2 0x160 DUP6 ADD MSTORE PUSH2 0x180 DUP5 ADD MSTORE PUSH2 0x1A0 DUP4 ADD MSTORE PUSH2 0x1C0 DUP3 ADD MSTORE PUSH2 0x1E0 SWAP1 RETURN JUMPDEST CALLVALUE PUSH2 0x26A JUMPI PUSH1 0x20 DUP1 PUSH1 0x3 NOT CALLDATASIZE ADD SLT PUSH2 0x26A JUMPI PUSH1 0x1 PUSH1 0x1 PUSH1 0xA0 SHL SUB PUSH2 0x1871 PUSH2 0x303C JUMP JUMPDEST AND PUSH1 0x0 MSTORE PUSH1 0x6 DUP2 MSTORE PUSH1 0x40 PUSH1 0x0 KECCAK256 SWAP1 PUSH1 0x40 MLOAD DUP1 DUP4 DUP4 DUP3 SWAP6 SLOAD SWAP4 DUP5 DUP2 MSTORE ADD SWAP1 PUSH1 0x0 MSTORE DUP4 PUSH1 0x0 KECCAK256 SWAP3 PUSH1 0x0 JUMPDEST DUP6 DUP3 DUP3 LT PUSH2 0x18C4 JUMPI POP POP POP PUSH2 0x18B0 SWAP3 POP SUB DUP4 PUSH2 0x32A7 JUMP JUMPDEST PUSH2 0x2E6 PUSH1 0x40 MLOAD SWAP3 DUP3 DUP5 SWAP4 DUP5 MSTORE DUP4 ADD SWAP1 PUSH2 0x2FE0 JUMP JUMPDEST DUP6 SLOAD DUP5 MSTORE PUSH1 0x1 SWAP6 DUP7 ADD SWAP6 DUP9 SWAP6 POP SWAP4 ADD SWAP3 ADD PUSH2 0x1899 JUMP JUMPDEST CALLVALUE PUSH2 0x26A JUMPI PUSH1 0xE0 CALLDATASIZE PUSH1 0x3 NOT ADD SLT PUSH2 0x26A JUMPI PUSH2 0x18F3 PUSH2 0x303C JUMP JUMPDEST PUSH2 0x18FB PUSH2 0x3052 JUMP JUMPDEST PUSH1 0x5 PUSH1 0x84 CALLDATALOAD LT ISZERO SWAP2 DUP3 PUSH2 0x26A JUMPI PUSH1 0x40 MLOAD PUSH2 0x1914 DUP2 PUSH2 0x328C JUMP JUMPDEST PUSH1 0x0 DUP2 MSTORE PUSH1 0x1 SLOAD PUSH1 0x40 MLOAD PUSH4 0x1FCA74DD PUSH1 0xE3 SHL DUP2 MSTORE SWAP2 SWAP5 SWAP2 SWAP4 SWAP1 PUSH1 0x1 PUSH1 0x1 PUSH1 0xA0 SHL SUB AND PUSH1 0x20 DUP6 PUSH1 0x4 DUP2 DUP5 GAS STATICCALL SWAP5 DUP6 ISZERO PUSH2 0x426 JUMPI PUSH1 0x0 SWAP6 PUSH2 0x1C1F JUMPI JUMPDEST POP PUSH1 0x1 JUMPDEST DUP6 DUP2 LT PUSH2 0x196F JUMPI PUSH1 0x40 MLOAD PUSH1 0x20 DUP1 DUP3 MSTORE DUP2 SWAP1 PUSH2 0x2E6 SWAP1 DUP3 ADD DUP11 PUSH2 0x2FE0 JUMP JUMPDEST PUSH1 0x40 MLOAD PUSH4 0xEB44FDD3 PUSH1 0xE0 SHL DUP2 MSTORE PUSH1 0x4 DUP2 ADD DUP3 SWAP1 MSTORE PUSH1 0x0 DUP2 PUSH1 0x24 DUP2 DUP7 GAS STATICCALL SWAP1 DUP2 ISZERO PUSH2 0x426 JUMPI PUSH1 0x0 SWAP2 PUSH2 0x1C04 JUMPI JUMPDEST POP DUP2 PUSH1 0x0 MSTORE PUSH1 0x4 PUSH1 0x20 MSTORE PUSH1 0x40 PUSH1 0x0 KECCAK256 SWAP1 PUSH1 0x40 MLOAD PUSH2 0x19B7 DUP2 PUSH2 0x3254 JUMP JUMPDEST DUP3 SLOAD DUP1 DUP3 MSTORE PUSH1 0x1 DUP1 DUP6 ADD SLOAD PUSH1 0x20 DUP5 ADD MSTORE PUSH1 0x2 DUP6 ADD SLOAD PUSH1 0x40 DUP5 ADD MSTORE PUSH1 0x3 DUP6 ADD SLOAD PUSH1 0x60 DUP5 ADD MSTORE PUSH1 0x4 DUP6 ADD SLOAD PUSH1 0x80 DUP5 ADD MSTORE PUSH1 0x5 DUP6 ADD SLOAD PUSH1 0xA0 DUP5 ADD MSTORE PUSH1 0x6 DUP6 ADD SLOAD PUSH1 0xC0 DUP5 ADD MSTORE PUSH1 0x7 DUP6 ADD SLOAD PUSH1 0xFF AND ISZERO ISZERO PUSH1 0xE0 DUP5 ADD MSTORE PUSH1 0x8 SWAP1 SWAP5 ADD SLOAD PUSH2 0x100 SWAP1 SWAP3 ADD SWAP2 SWAP1 SWAP2 MSTORE DUP7 SWAP1 PUSH1 0x1 PUSH1 0x1 PUSH1 0xA0 SHL SUB DUP10 AND DUP1 ISZERO ISZERO SWAP1 PUSH2 0x1BED JUMPI JUMPDEST PUSH2 0x1BE4 JUMPI JUMPDEST PUSH1 0x1 PUSH1 0x1 PUSH1 0xA0 SHL SUB DUP8 AND DUP1 ISZERO ISZERO SWAP1 PUSH2 0x1BCA JUMPI JUMPDEST PUSH2 0x1BC1 JUMPI JUMPDEST PUSH1 0x44 CALLDATALOAD ISZERO ISZERO PUSH1 0x44 CALLDATALOAD PUSH2 0x1BB6 JUMPI JUMPDEST PUSH2 0x1BAD JUMPI JUMPDEST PUSH1 0x64 CALLDATALOAD ISZERO ISZERO SWAP1 PUSH1 0x64 CALLDATALOAD PUSH2 0x1BA1 JUMPI JUMPDEST POP PUSH2 0x1B98 JUMPI JUMPDEST PUSH2 0x1B82 JUMPI PUSH1 0x84 CALLDATALOAD ISZERO ISZERO PUSH1 0x84 CALLDATALOAD PUSH2 0x1B63 JUMPI JUMPDEST PUSH2 0x1B5A JUMPI JUMPDEST PUSH1 0xA4 CALLDATALOAD ISZERO ISZERO PUSH1 0xA4 CALLDATALOAD PUSH2 0x1B4A JUMPI JUMPDEST PUSH2 0x1B41 JUMPI JUMPDEST PUSH1 0xC4 CALLDATALOAD ISZERO ISZERO SWAP1 PUSH1 0xC4 CALLDATALOAD PUSH2 0x1B2F JUMPI JUMPDEST POP PUSH2 0x1B27 JUMPI JUMPDEST PUSH2 0x1ABF JUMPI JUMPDEST PUSH2 0x1ABA SWAP1 PUSH2 0x3206 JUMP JUMPDEST PUSH2 0x1952 JUMP JUMPDEST SWAP5 SWAP2 SWAP4 SWAP1 SWAP3 DUP7 MLOAD PUSH1 0x1 DUP2 ADD DUP2 GT PUSH2 0x792 JUMPI PUSH1 0x1 PUSH2 0x1ADC SWAP2 ADD PUSH2 0x3620 JUMP JUMPDEST SWAP5 PUSH1 0x0 JUMPDEST DUP9 MLOAD DUP2 LT ISZERO PUSH2 0x1B07 JUMPI DUP1 PUSH2 0x1AF7 PUSH2 0x1B02 SWAP3 DUP12 PUSH2 0x3652 JUMP JUMPDEST MLOAD PUSH2 0x3A9 DUP3 DUP11 PUSH2 0x3652 JUMP JUMPDEST PUSH2 0x1AE0 JUMP JUMPDEST POP SWAP3 SWAP6 SWAP7 SWAP5 DUP8 PUSH2 0x1B1E PUSH2 0x1ABA SWAP4 SWAP7 SWAP5 SWAP8 MLOAD DUP4 PUSH2 0x3652 JUMP JUMPDEST MSTORE SWAP7 SWAP1 POP PUSH2 0x1AB1 JUMP JUMPDEST POP PUSH1 0x0 PUSH2 0x1AAC JUMP JUMPDEST SWAP1 POP PUSH2 0x100 PUSH1 0xC4 CALLDATALOAD SWAP2 ADD MLOAD GT DUP10 PUSH2 0x1AA6 JUMP JUMPDEST PUSH1 0x0 SWAP2 POP PUSH2 0x1A98 JUMP JUMPDEST POP PUSH1 0xA4 CALLDATALOAD PUSH2 0x100 DUP3 ADD MLOAD LT PUSH2 0x1A93 JUMP JUMPDEST PUSH1 0x0 SWAP2 POP PUSH2 0x1A86 JUMP JUMPDEST POP PUSH2 0x180 DUP2 ADD MLOAD SWAP6 POP PUSH1 0x5 DUP7 LT ISZERO PUSH2 0x1B82 JUMPI PUSH1 0x0 SWAP6 PUSH1 0x84 CALLDATALOAD EQ ISZERO PUSH2 0x1A81 JUMP JUMPDEST PUSH4 0x4E487B71 PUSH1 0xE0 SHL PUSH1 0x0 MSTORE PUSH1 0x21 PUSH1 0x4 MSTORE PUSH1 0x24 PUSH1 0x0 REVERT JUMPDEST PUSH1 0x0 SWAP3 POP PUSH2 0x1A70 JUMP JUMPDEST SWAP1 POP PUSH1 0x64 CALLDATALOAD LT DUP12 PUSH2 0x1A6A JUMP JUMPDEST PUSH1 0x0 SWAP4 POP PUSH2 0x1A5C JUMP JUMPDEST POP PUSH1 0x44 CALLDATALOAD DUP2 LT PUSH2 0x1A57 JUMP JUMPDEST PUSH1 0x0 SWAP4 POP PUSH2 0x1A4A JUMP JUMPDEST POP PUSH1 0x80 DUP4 ADD MLOAD PUSH1 0x1 PUSH1 0x1 PUSH1 0xA0 SHL SUB DUP9 DUP2 AND SWAP2 AND EQ ISZERO PUSH2 0x1A45 JUMP JUMPDEST PUSH1 0x0 SWAP4 POP PUSH2 0x1A32 JUMP JUMPDEST POP DUP3 MLOAD PUSH1 0x1 PUSH1 0x1 PUSH1 0xA0 SHL SUB DUP11 DUP2 AND SWAP2 AND EQ ISZERO PUSH2 0x1A2D JUMP JUMPDEST PUSH2 0x1C19 SWAP2 POP RETURNDATASIZE DUP1 PUSH1 0x0 DUP4 RETURNDATACOPY PUSH2 0x418 DUP2 DUP4 PUSH2 0x32A7 JUMP JUMPDEST DUP9 PUSH2 0x199B JUMP JUMPDEST SWAP1 SWAP5 POP PUSH1 0x20 DUP2 RETURNDATASIZE PUSH1 0x20 GT PUSH2 0x1C4B JUMPI JUMPDEST DUP2 PUSH2 0x1C3B PUSH1 0x20 SWAP4 DUP4 PUSH2 0x32A7 JUMP JUMPDEST DUP2 ADD SUB SLT PUSH2 0x26A JUMPI MLOAD SWAP4 DUP7 PUSH2 0x194E JUMP JUMPDEST RETURNDATASIZE SWAP2 POP PUSH2 0x1C2E JUMP JUMPDEST CALLVALUE PUSH2 0x26A JUMPI PUSH1 0x40 CALLDATASIZE PUSH1 0x3 NOT ADD SLT PUSH2 0x26A JUMPI PUSH2 0x1C6C PUSH2 0x303C JUMP JUMPDEST PUSH1 0x24 DUP1 CALLDATALOAD PUSH1 0x5 SWAP3 DUP4 DUP3 LT ISZERO SWAP1 DUP2 PUSH2 0x26A JUMPI DUP4 DUP4 DUP7 SWAP3 PUSH1 0x1 DUP1 PUSH1 0xA0 SHL SUB DUP1 SWAP2 AND PUSH1 0x0 MSTORE PUSH1 0x20 SWAP3 DUP5 DUP5 MSTORE PUSH1 0x40 PUSH1 0x0 KECCAK256 SWAP3 PUSH1 0x40 MLOAD SWAP4 DUP5 DUP7 DUP3 SLOAD SWAP2 DUP3 DUP2 MSTORE ADD SWAP2 PUSH1 0x0 MSTORE DUP7 PUSH1 0x0 KECCAK256 SWAP1 PUSH1 0x0 JUMPDEST DUP2 DUP2 LT PUSH2 0x1E2A JUMPI POP POP POP DUP5 PUSH2 0x1CC9 SWAP2 SUB DUP6 PUSH2 0x32A7 JUMP JUMPDEST PUSH1 0x40 MLOAD PUSH2 0x1CD5 DUP2 PUSH2 0x328C JUMP JUMPDEST PUSH1 0x0 DUP2 MSTORE SWAP6 PUSH1 0x0 SWAP8 PUSH1 0x1 SWAP9 DUP10 SWAP6 DUP7 SLOAD AND SWAP10 JUMPDEST PUSH2 0x1CFF JUMPI JUMPDEST PUSH1 0x40 MLOAD DUP9 DUP2 MSTORE DUP1 PUSH2 0x2E6 DUP2 DUP12 ADD DUP13 PUSH2 0x2FE0 JUMP JUMPDEST DUP7 MLOAD DUP2 LT ISZERO PUSH2 0x1E25 JUMPI DUP10 PUSH1 0x0 PUSH2 0x1D15 DUP4 DUP11 PUSH2 0x3652 JUMP JUMPDEST MLOAD DUP8 PUSH1 0x40 MLOAD DUP1 SWAP5 DUP2 SWAP4 PUSH4 0xEB44FDD3 PUSH1 0xE0 SHL DUP4 MSTORE PUSH1 0x4 DUP4 ADD MSTORE GAS STATICCALL DUP1 ISZERO PUSH2 0x426 JUMPI PUSH2 0x180 SWAP2 PUSH1 0x0 SWAP2 PUSH2 0x1E0A JUMPI JUMPDEST POP ADD MLOAD DUP4 DUP2 LT ISZERO PUSH2 0x1DF5 JUMPI DUP3 PUSH2 0x1DF5 JUMPI DUP5 EQ PUSH2 0x1D70 JUMPI JUMPDEST SWAP9 PUSH2 0x1D66 DUP7 SWAP8 SWAP9 SWAP10 SWAP11 PUSH2 0x3206 JUMP JUMPDEST SWAP1 SWAP10 SWAP9 SWAP8 SWAP7 PUSH2 0x1CE7 JUMP JUMPDEST SWAP8 DUP1 MLOAD DUP7 DUP2 ADD DUP1 SWAP2 GT PUSH2 0x1DE0 JUMPI PUSH2 0x1D86 SWAP1 PUSH2 0x3620 JUMP JUMPDEST SWAP1 PUSH1 0x0 DUP8 JUMPDEST PUSH2 0x1DBD JUMPI JUMPDEST POP DUP10 SWAP11 SWAP2 PUSH2 0x1D66 SWAP2 PUSH2 0x1DB1 PUSH2 0x1DA8 DUP12 SWAP13 SWAP14 DUP12 SWAP13 PUSH2 0x3652 JUMP JUMPDEST MLOAD SWAP2 MLOAD DUP4 PUSH2 0x3652 JUMP JUMPDEST MSTORE SWAP10 SWAP9 SWAP8 POP POP SWAP9 PUSH2 0x1D58 JUMP JUMPDEST DUP2 MLOAD DUP2 LT ISZERO PUSH2 0x1DDB JUMPI PUSH2 0x1DD5 DUP2 PUSH2 0x39E DUP11 SWAP4 DUP6 PUSH2 0x3652 JUMP JUMPDEST SWAP1 PUSH2 0x1D8B JUMP JUMPDEST PUSH2 0x1D90 JUMP JUMPDEST DUP6 PUSH4 0x4E487B71 PUSH1 0xE0 SHL PUSH1 0x0 MSTORE PUSH1 0x11 PUSH1 0x4 MSTORE PUSH1 0x0 REVERT JUMPDEST DUP6 PUSH4 0x4E487B71 PUSH1 0xE0 SHL PUSH1 0x0 MSTORE PUSH1 0x21 PUSH1 0x4 MSTORE PUSH1 0x0 REVERT JUMPDEST PUSH2 0x1E1F SWAP2 POP RETURNDATASIZE DUP1 PUSH1 0x0 DUP4 RETURNDATACOPY PUSH2 0x418 DUP2 DUP4 PUSH2 0x32A7 JUMP JUMPDEST DUP13 PUSH2 0x1D41 JUMP JUMPDEST PUSH2 0x1CEC JUMP JUMPDEST DUP3 SLOAD DUP5 MSTORE SWAP3 DUP9 ADD SWAP3 PUSH1 0x1 SWAP3 DUP4 ADD SWAP3 ADD PUSH2 0x1CB3 JUMP JUMPDEST CALLVALUE PUSH2 0x26A JUMPI PUSH1 0x0 CALLDATASIZE PUSH1 0x3 NOT ADD SLT PUSH2 0x26A JUMPI PUSH2 0x1E57 PUSH2 0x314D JUMP JUMPDEST PUSH1 0x0 DUP1 SLOAD PUSH1 0x1 PUSH1 0x1 PUSH1 0xA0 SHL SUB NOT DUP2 AND DUP3 SSTORE PUSH1 0x1 PUSH1 0x1 PUSH1 0xA0 SHL SUB AND PUSH1 0x0 DUP1 MLOAD PUSH1 0x20 PUSH2 0x3728 DUP4 CODECOPY DUP2 MLOAD SWAP2 MSTORE DUP3 DUP1 LOG3 STOP JUMPDEST CALLVALUE PUSH2 0x26A JUMPI PUSH1 0x20 CALLDATASIZE PUSH1 0x3 NOT ADD SLT PUSH2 0x26A JUMPI PUSH2 0x1E9E PUSH2 0x303C JUMP JUMPDEST PUSH2 0x1EA6 PUSH2 0x314D JUMP JUMPDEST PUSH1 0x2 DUP1 SLOAD PUSH1 0x1 PUSH1 0x1 PUSH1 0xA0 SHL SUB NOT AND PUSH1 0x1 PUSH1 0x1 PUSH1 0xA0 SHL SUB SWAP3 SWAP1 SWAP3 AND SWAP2 SWAP1 SWAP2 OR SWAP1 SSTORE STOP JUMPDEST CALLVALUE PUSH2 0x26A JUMPI PUSH1 0x0 CALLDATASIZE PUSH1 0x3 NOT ADD SLT PUSH2 0x26A JUMPI PUSH1 0x0 PUSH1 0xE0 PUSH1 0x40 MLOAD PUSH2 0x1EE9 DUP2 PUSH2 0x3270 JUMP JUMPDEST DUP3 DUP2 MSTORE DUP3 PUSH1 0x20 DUP3 ADD MSTORE DUP3 PUSH1 0x40 DUP3 ADD MSTORE DUP3 PUSH1 0x60 DUP3 ADD MSTORE DUP3 PUSH1 0x80 DUP3 ADD MSTORE DUP3 PUSH1 0xA0 DUP3 ADD MSTORE DUP3 PUSH1 0xC0 DUP3 ADD MSTORE ADD MSTORE PUSH1 0x4 PUSH1 0x20 PUSH1 0x1 DUP1 PUSH1 0xA0 SHL SUB PUSH1 0x1 SLOAD AND PUSH1 0x40 MLOAD SWAP3 DUP4 DUP1 SWAP3 PUSH4 0x1FCA74DD PUSH1 0xE3 SHL DUP3 MSTORE GAS STATICCALL SWAP1 DUP2 ISZERO PUSH2 0x426 JUMPI PUSH1 0x0 SWAP2 PUSH2 0x20B8 JUMPI JUMPDEST POP DUP1 PUSH1 0x0 NOT DUP2 ADD GT PUSH2 0x792 JUMPI PUSH1 0x0 SWAP1 DUP2 DUP1 PUSH1 0x1 JUMPDEST PUSH1 0x0 NOT DUP5 ADD DUP2 GT ISZERO PUSH2 0x200A JUMPI POP PUSH2 0x100 SWAP4 PUSH1 0x0 NOT DUP5 ADD ISZERO PUSH2 0x2002 JUMPI PUSH2 0x1F80 PUSH1 0x0 NOT DUP6 ADD DUP5 PUSH2 0x32CA JUMP JUMPDEST SWAP1 JUMPDEST PUSH1 0x40 MLOAD SWAP3 PUSH2 0x1F8F DUP5 PUSH2 0x3270 JUMP JUMPDEST PUSH1 0x0 NOT DUP7 ADD DUP5 MSTORE PUSH1 0x20 DUP5 ADD SWAP5 DUP6 MSTORE PUSH1 0x40 DUP5 ADD SWAP2 DUP3 MSTORE PUSH1 0x60 DUP5 ADD SWAP1 DUP2 MSTORE PUSH1 0x80 DUP5 ADD SWAP2 PUSH1 0x0 DUP4 MSTORE PUSH1 0xA0 DUP6 ADD SWAP4 DUP5 MSTORE PUSH1 0xE0 PUSH1 0xC0 DUP7 ADD SWAP6 PUSH1 0x0 DUP8 MSTORE ADD SWAP6 PUSH1 0x0 DUP8 MSTORE PUSH1 0x40 MLOAD SWAP8 PUSH1 0x0 NOT ADD DUP9 MSTORE MLOAD PUSH1 0x20 DUP9 ADD MSTORE MLOAD PUSH1 0x40 DUP8 ADD MSTORE MLOAD PUSH1 0x60 DUP7 ADD MSTORE MLOAD PUSH1 0x80 DUP6 ADD MSTORE MLOAD PUSH1 0xA0 DUP5 ADD MSTORE MLOAD PUSH1 0xC0 DUP4 ADD MSTORE MLOAD PUSH1 0xE0 DUP3 ADD MSTORE RETURN JUMPDEST PUSH1 0x0 SWAP1 PUSH2 0x1F82 JUMP JUMPDEST SWAP1 PUSH2 0x20AD PUSH2 0x20B3 SWAP2 PUSH2 0x20A5 PUSH1 0x2 SWAP6 SWAP8 DUP6 PUSH1 0x0 MSTORE PUSH1 0x4 PUSH1 0x20 MSTORE PUSH1 0x20 PUSH2 0x209C PUSH1 0x40 PUSH1 0x0 KECCAK256 DUP1 SWAP12 PUSH1 0x8 PUSH1 0x40 MLOAD SWAP12 DUP13 SWAP4 PUSH2 0x203F DUP6 PUSH2 0x3254 JUMP JUMPDEST DUP1 SLOAD SWAP5 DUP6 SWAP1 MSTORE PUSH1 0x1 DUP2 ADD SLOAD DUP8 DUP16 ADD MSTORE ADD SLOAD PUSH1 0x40 DUP14 ADD SWAP1 DUP2 MSTORE PUSH1 0x3 DUP16 ADD SLOAD PUSH1 0x60 DUP15 ADD MSTORE PUSH1 0x4 DUP16 ADD SLOAD PUSH1 0x80 DUP15 ADD MSTORE PUSH1 0x5 DUP16 ADD SLOAD PUSH1 0xA0 DUP15 ADD MSTORE PUSH1 0x6 DUP16 ADD SLOAD PUSH1 0xC0 DUP15 ADD MSTORE PUSH1 0x7 DUP16 ADD SLOAD PUSH1 0xFF AND ISZERO ISZERO PUSH1 0xE0 DUP15 ADD MSTORE SWAP14 ADD SLOAD PUSH2 0x100 DUP13 ADD MSTORE PUSH2 0x3215 JUMP JUMPDEST SWAP8 ADD MLOAD SWAP1 PUSH2 0x3215 JUMP JUMPDEST SWAP7 MLOAD SWAP1 PUSH2 0x3215 JUMP JUMPDEST SWAP2 PUSH2 0x3206 JUMP JUMPDEST PUSH2 0x1F57 JUMP JUMPDEST SWAP1 POP PUSH1 0x20 DUP2 RETURNDATASIZE PUSH1 0x20 GT PUSH2 0x20E2 JUMPI JUMPDEST DUP2 PUSH2 0x20D3 PUSH1 0x20 SWAP4 DUP4 PUSH2 0x32A7 JUMP JUMPDEST DUP2 ADD SUB SLT PUSH2 0x26A JUMPI MLOAD DUP2 PUSH2 0x1F43 JUMP JUMPDEST RETURNDATASIZE SWAP2 POP PUSH2 0x20C6 JUMP JUMPDEST CALLVALUE PUSH2 0x26A JUMPI PUSH1 0x40 CALLDATASIZE PUSH1 0x3 NOT ADD SLT PUSH2 0x26A JUMPI PUSH2 0x2103 PUSH2 0x303C JUMP JUMPDEST PUSH1 0x1 PUSH1 0x1 PUSH1 0xA0 SHL SUB AND PUSH1 0x0 SWAP1 DUP2 MSTORE PUSH1 0x7 PUSH1 0x20 MSTORE PUSH1 0x40 SWAP1 KECCAK256 DUP1 SLOAD PUSH1 0x24 CALLDATALOAD SWAP2 SWAP1 DUP3 LT ISZERO PUSH2 0x26A JUMPI PUSH1 0x20 SWAP2 PUSH2 0x9BE SWAP2 PUSH2 0x30A8 JUMP JUMPDEST CALLVALUE PUSH2 0x26A JUMPI PUSH1 0x20 CALLDATASIZE PUSH1 0x3 NOT ADD SLT PUSH2 0x26A JUMPI PUSH2 0x120 PUSH1 0x40 MLOAD PUSH2 0x2154 DUP2 PUSH2 0x3254 JUMP JUMPDEST PUSH1 0x0 DUP2 MSTORE PUSH1 0x0 PUSH1 0x20 DUP3 ADD MSTORE PUSH1 0x0 PUSH1 0x40 DUP3 ADD MSTORE PUSH1 0x0 PUSH1 0x60 DUP3 ADD MSTORE PUSH1 0x0 PUSH1 0x80 DUP3 ADD MSTORE PUSH1 0x0 PUSH1 0xA0 DUP3 ADD MSTORE PUSH1 0x0 PUSH1 0xC0 DUP3 ADD MSTORE PUSH1 0x0 PUSH1 0xE0 DUP3 ADD MSTORE PUSH1 0x0 PUSH2 0x100 DUP1 SWAP3 ADD MSTORE PUSH1 0x4 CALLDATALOAD PUSH1 0x0 MSTORE PUSH1 0x4 PUSH1 0x20 MSTORE PUSH1 0x40 PUSH1 0x0 KECCAK256 SWAP1 PUSH1 0x40 MLOAD PUSH2 0x21AF DUP2 PUSH2 0x3254 JUMP JUMPDEST DUP3 SLOAD SWAP3 DUP4 DUP3 MSTORE PUSH1 0x1 DUP2 ADD SLOAD PUSH1 0x20 DUP4 ADD SWAP1 DUP2 MSTORE PUSH1 0x2 DUP3 ADD SLOAD PUSH1 0x40 DUP5 ADD SWAP1 DUP2 MSTORE PUSH1 0x3 DUP4 ADD SLOAD PUSH1 0x60 DUP6 ADD SWAP1 DUP2 MSTORE PUSH1 0x4 DUP5 ADD SLOAD SWAP1 PUSH1 0x80 DUP7 ADD SWAP2 DUP3 MSTORE PUSH1 0x5 DUP6 ADD SLOAD SWAP3 PUSH1 0xA0 DUP8 ADD SWAP4 DUP5 MSTORE PUSH1 0x6 DUP7 ADD SLOAD SWAP5 PUSH1 0xC0 DUP9 ADD SWAP6 DUP7 MSTORE DUP9 PUSH1 0x8 PUSH1 0xFF PUSH1 0x7 DUP11 ADD SLOAD AND SWAP9 PUSH1 0xE0 DUP12 ADD SWAP10 ISZERO ISZERO DUP11 MSTORE ADD SLOAD SWAP9 ADD SWAP8 DUP9 MSTORE PUSH1 0x40 MLOAD SWAP10 DUP11 MSTORE MLOAD PUSH1 0x20 DUP11 ADD MSTORE MLOAD PUSH1 0x40 DUP10 ADD MSTORE MLOAD PUSH1 0x60 DUP9 ADD MSTORE MLOAD PUSH1 0x80 DUP8 ADD MSTORE MLOAD PUSH1 0xA0 DUP7 ADD MSTORE MLOAD PUSH1 0xC0 DUP6 ADD MSTORE MLOAD ISZERO ISZERO PUSH1 0xE0 DUP5 ADD MSTORE MLOAD SWAP1 DUP3 ADD MSTORE RETURN JUMPDEST CALLVALUE PUSH2 0x26A JUMPI PUSH2 0x2263 CALLDATASIZE PUSH2 0x3092 JUMP JUMPDEST SWAP1 PUSH1 0x40 MLOAD PUSH2 0x2270 DUP2 PUSH2 0x328C JUMP JUMPDEST PUSH1 0x0 DUP2 MSTORE PUSH1 0x1 DUP1 SLOAD PUSH1 0x40 MLOAD PUSH4 0x1FCA74DD PUSH1 0xE3 SHL DUP2 MSTORE SWAP3 SWAP5 PUSH1 0x20 SWAP5 SWAP2 PUSH1 0x1 PUSH1 0x1 PUSH1 0xA0 SHL SUB AND DUP6 DUP6 PUSH1 0x4 DUP2 DUP5 GAS STATICCALL SWAP5 DUP6 ISZERO PUSH2 0x426 JUMPI PUSH1 0x0 SWAP6 PUSH2 0x23B4 JUMPI JUMPDEST POP DUP4 JUMPDEST DUP6 DUP2 LT PUSH2 0x22C8 JUMPI PUSH1 0x40 MLOAD DUP8 DUP2 MSTORE DUP1 PUSH2 0x2E6 DUP2 DUP11 ADD DUP12 PUSH2 0x2FE0 JUMP JUMPDEST PUSH1 0x40 MLOAD PUSH4 0xEB44FDD3 PUSH1 0xE0 SHL DUP2 MSTORE PUSH1 0x4 DUP2 ADD DUP3 SWAP1 MSTORE PUSH1 0x24 SWAP1 PUSH1 0x0 DUP2 DUP4 DUP2 DUP8 GAS STATICCALL DUP1 ISZERO PUSH2 0x426 JUMPI PUSH2 0x100 SWAP2 PUSH1 0x0 SWAP2 PUSH2 0x2399 JUMPI JUMPDEST POP ADD MLOAD DUP5 DUP7 DUP3 LT ISZERO SWAP2 DUP3 PUSH2 0x238E JUMPI JUMPDEST POP POP PUSH2 0x231E JUMPI JUMPDEST POP PUSH2 0x2319 SWAP1 PUSH2 0x3206 JUMP JUMPDEST PUSH2 0x22AE JUMP JUMPDEST DUP9 SWAP2 SWAP9 MLOAD SWAP1 DUP7 DUP3 ADD DUP1 SWAP3 GT PUSH2 0x3C3 JUMPI POP SWAP1 DUP9 PUSH2 0x233A DUP8 SWAP4 PUSH2 0x3620 JUMP JUMPDEST SWAP2 DUP4 PUSH1 0x0 SWAP5 JUMPDEST PUSH2 0x235E JUMPI JUMPDEST POP PUSH2 0x2319 SWAP4 POP PUSH2 0x2356 SWAP1 MLOAD DUP4 PUSH2 0x3652 JUMP JUMPDEST MSTORE SWAP8 SWAP1 PUSH2 0x230F JUMP JUMPDEST SWAP2 DUP2 SWAP4 SWAP5 SWAP2 MLOAD DUP3 LT ISZERO PUSH2 0x2384 JUMPI POP DUP1 PUSH2 0x39E PUSH2 0x237A SWAP3 DUP6 PUSH2 0x3652 JUMP JUMPDEST SWAP3 SWAP2 DUP2 DUP12 SWAP3 PUSH2 0x2340 JUMP JUMPDEST SWAP2 DUP5 SWAP4 SWAP2 POP PUSH2 0x2345 JUMP JUMPDEST GT ISZERO SWAP1 POP DUP5 DUP12 PUSH2 0x2308 JUMP JUMPDEST PUSH2 0x23AE SWAP2 POP RETURNDATASIZE DUP1 PUSH1 0x0 DUP4 RETURNDATACOPY PUSH2 0x418 DUP2 DUP4 PUSH2 0x32A7 JUMP JUMPDEST DUP12 PUSH2 0x22F9 JUMP JUMPDEST SWAP1 SWAP5 POP DUP6 DUP2 DUP2 RETURNDATASIZE DUP4 GT PUSH2 0x23DC JUMPI JUMPDEST PUSH2 0x23CC DUP2 DUP4 PUSH2 0x32A7 JUMP JUMPDEST DUP2 ADD SUB SLT PUSH2 0x26A JUMPI MLOAD SWAP4 DUP8 PUSH2 0x22AB JUMP JUMPDEST POP RETURNDATASIZE PUSH2 0x23C2 JUMP JUMPDEST CALLVALUE PUSH2 0x26A JUMPI PUSH1 0x40 CALLDATASIZE PUSH1 0x3 NOT ADD SLT PUSH2 0x26A JUMPI PUSH1 0x1 PUSH1 0x1 PUSH1 0xA0 SHL SUB PUSH2 0x2404 PUSH2 0x303C JUMP JUMPDEST AND PUSH1 0x0 MSTORE PUSH1 0x8 PUSH1 0x20 MSTORE PUSH1 0x40 PUSH1 0x0 KECCAK256 PUSH1 0x24 CALLDATALOAD PUSH1 0x0 MSTORE PUSH1 0x20 MSTORE PUSH1 0x20 PUSH1 0x40 PUSH1 0x0 KECCAK256 SLOAD PUSH1 0x40 MLOAD SWAP1 DUP2 MSTORE RETURN JUMPDEST CALLVALUE PUSH2 0x26A JUMPI PUSH1 0x20 DUP1 PUSH1 0x3 NOT CALLDATASIZE ADD SLT PUSH2 0x26A JUMPI PUSH1 0x4 CALLDATALOAD PUSH1 0x1 SWAP1 PUSH1 0x1 DUP1 PUSH1 0xA0 SHL SUB DUP3 SLOAD AND SWAP2 PUSH1 0x40 MLOAD PUSH4 0x1FCA74DD PUSH1 0xE3 SHL DUP2 MSTORE DUP5 DUP2 PUSH1 0x4 DUP2 DUP8 GAS STATICCALL SWAP1 DUP2 ISZERO PUSH2 0x426 JUMPI PUSH1 0x0 SWAP2 PUSH2 0x2739 JUMPI JUMPDEST POP PUSH1 0x40 MLOAD PUSH2 0x247F DUP2 PUSH2 0x328C JUMP JUMPDEST PUSH1 0x0 DUP2 MSTORE SWAP5 PUSH1 0x40 MLOAD PUSH2 0x2490 DUP2 PUSH2 0x328C JUMP JUMPDEST PUSH1 0x0 DUP2 MSTORE SWAP5 DUP4 JUMPDEST DUP4 DUP2 LT PUSH2 0x2607 JUMPI POP POP POP POP DUP1 PUSH1 0x0 SWAP1 JUMPDEST PUSH2 0x250F JUMPI JUMPDEST POP POP DUP1 ISZERO ISZERO DUP1 PUSH2 0x2505 JUMPI JUMPDEST ISZERO PUSH2 0x24FD JUMPI JUMPDEST PUSH2 0x24C6 DUP2 PUSH2 0x3620 JUMP JUMPDEST SWAP2 PUSH2 0x24D0 DUP3 PUSH2 0x3620 JUMP JUMPDEST SWAP4 PUSH1 0x0 JUMPDEST DUP4 DUP2 LT PUSH2 0x24EA JUMPI PUSH1 0x40 MLOAD DUP1 PUSH2 0x2E6 DUP9 DUP9 DUP4 PUSH2 0x3014 JUMP JUMPDEST DUP1 PUSH2 0x66C PUSH2 0x24F8 SWAP3 DUP5 PUSH2 0x3652 JUMP JUMPDEST PUSH2 0x24D4 JUMP JUMPDEST POP DUP2 MLOAD PUSH2 0x24BD JUMP JUMPDEST POP DUP3 MLOAD DUP2 LT PUSH2 0x24B7 JUMP JUMPDEST DUP5 MLOAD PUSH1 0x0 NOT SWAP1 DUP2 DUP2 ADD SWAP1 DUP2 GT PUSH2 0x792 JUMPI DUP3 LT ISZERO PUSH2 0x2601 JUMPI SWAP1 DUP3 DUP1 SWAP3 PUSH1 0x0 SWAP2 JUMPDEST PUSH2 0x2544 JUMPI JUMPDEST POP POP PUSH2 0x253E SWAP1 PUSH2 0x3206 JUMP JUMPDEST SWAP1 PUSH2 0x24A7 JUMP JUMPDEST SWAP1 SWAP2 SWAP3 POP PUSH2 0x2553 DUP4 DUP9 MLOAD PUSH2 0x32EA JUMP JUMPDEST DUP2 DUP2 ADD SWAP1 DUP2 GT PUSH2 0x792 JUMPI DUP5 SWAP1 DUP4 LT ISZERO PUSH2 0x25FA JUMPI POP PUSH2 0x2571 DUP3 DUP8 PUSH2 0x3652 JUMP JUMPDEST MLOAD DUP5 DUP4 ADD SWAP3 DUP4 DUP2 GT PUSH2 0x792 JUMPI DUP4 PUSH2 0x2599 SWAP3 PUSH2 0x258D DUP9 SWAP7 DUP12 PUSH2 0x3652 JUMP JUMPDEST MLOAD GT PUSH2 0x25A2 JUMPI POP PUSH2 0x3206 JUMP JUMPDEST SWAP1 DUP3 SWAP4 SWAP3 PUSH2 0x252E JUMP JUMPDEST PUSH2 0x25AC DUP3 DUP11 PUSH2 0x3652 JUMP JUMPDEST MLOAD PUSH2 0x25B7 DUP3 DUP12 PUSH2 0x3652 JUMP JUMPDEST MLOAD PUSH2 0x25C2 DUP5 DUP13 PUSH2 0x3652 JUMP JUMPDEST MSTORE PUSH2 0x25CD DUP3 DUP12 PUSH2 0x3652 JUMP JUMPDEST MSTORE PUSH2 0x25F3 PUSH2 0x25DB DUP4 DUP13 PUSH2 0x3652 JUMP JUMPDEST MLOAD SWAP2 DUP12 PUSH2 0x25EC DUP6 PUSH2 0x8CF DUP5 DUP5 PUSH2 0x3652 JUMP JUMPDEST MSTORE DUP12 PUSH2 0x3652 JUMP JUMPDEST MSTORE DUP10 PUSH2 0x725 JUMP JUMPDEST SWAP3 SWAP2 PUSH2 0x2533 JUMP JUMPDEST POP PUSH2 0x24AC JUMP JUMPDEST PUSH1 0x40 MLOAD PUSH4 0xEB44FDD3 PUSH1 0xE0 SHL DUP2 MSTORE PUSH1 0x4 DUP2 ADD DUP3 SWAP1 MSTORE PUSH1 0x24 SWAP1 PUSH1 0x0 DUP2 DUP4 DUP2 DUP8 GAS STATICCALL DUP1 ISZERO PUSH2 0x426 JUMPI PUSH2 0x180 SWAP2 PUSH1 0x0 SWAP2 PUSH2 0x271E JUMPI JUMPDEST POP ADD MLOAD PUSH1 0x5 DUP2 LT ISZERO PUSH2 0x3EE JUMPI ISZERO PUSH2 0x2659 JUMPI JUMPDEST POP PUSH2 0x2654 SWAP1 PUSH2 0x3206 JUMP JUMPDEST PUSH2 0x2497 JUMP JUMPDEST SWAP1 SWAP7 DUP9 MLOAD DUP7 DUP2 ADD DUP1 SWAP2 GT PUSH2 0x2709 JUMPI PUSH2 0x2670 SWAP1 PUSH2 0x3620 JUMP JUMPDEST SWAP2 DUP2 MLOAD SWAP1 DUP8 DUP3 ADD DUP1 SWAP3 GT PUSH2 0x3C3 JUMPI POP SWAP1 DUP9 PUSH2 0x268C DUP9 SWAP5 SWAP4 PUSH2 0x3620 JUMP JUMPDEST SWAP11 DUP5 PUSH1 0x0 SWAP6 JUMPDEST PUSH2 0x26CB JUMPI JUMPDEST POP PUSH2 0x2654 SWAP5 POP PUSH2 0x26A8 SWAP1 MLOAD DUP5 PUSH2 0x3652 JUMP JUMPDEST MSTORE DUP9 PUSH1 0x0 MSTORE PUSH1 0x4 DUP6 MSTORE PUSH2 0x26C2 PUSH1 0x40 PUSH1 0x0 KECCAK256 SLOAD SWAP2 MLOAD DUP12 PUSH2 0x3652 JUMP JUMPDEST MSTORE SWAP8 SWAP7 SWAP1 PUSH2 0x264A JUMP JUMPDEST SWAP2 DUP2 SWAP4 SWAP5 SWAP6 SWAP2 MLOAD DUP3 LT ISZERO PUSH2 0x26FE JUMPI POP DUP1 PUSH2 0x26E8 PUSH2 0x26F3 SWAP3 DUP6 PUSH2 0x3652 JUMP JUMPDEST MLOAD PUSH2 0x8BF DUP3 DUP9 PUSH2 0x3652 JUMP JUMPDEST SWAP4 SWAP3 SWAP2 DUP2 DUP12 SWAP3 PUSH2 0x2692 JUMP JUMPDEST SWAP2 DUP6 SWAP5 SWAP4 SWAP2 POP PUSH2 0x2697 JUMP JUMPDEST DUP3 PUSH4 0x4E487B71 PUSH1 0xE0 SHL PUSH1 0x0 MSTORE PUSH1 0x11 PUSH1 0x4 MSTORE PUSH1 0x0 REVERT JUMPDEST PUSH2 0x2733 SWAP2 POP RETURNDATASIZE DUP1 PUSH1 0x0 DUP4 RETURNDATACOPY PUSH2 0x418 DUP2 DUP4 PUSH2 0x32A7 JUMP JUMPDEST DUP12 PUSH2 0x2638 JUMP JUMPDEST SWAP1 POP DUP5 DUP2 DUP2 RETURNDATASIZE DUP4 GT PUSH2 0x275F JUMPI JUMPDEST PUSH2 0x2750 DUP2 DUP4 PUSH2 0x32A7 JUMP JUMPDEST DUP2 ADD SUB SLT PUSH2 0x26A JUMPI MLOAD DUP6 PUSH2 0x2472 JUMP JUMPDEST POP RETURNDATASIZE PUSH2 0x2746 JUMP JUMPDEST CALLVALUE PUSH2 0x26A JUMPI PUSH1 0x20 CALLDATASIZE PUSH1 0x3 NOT ADD SLT PUSH2 0x26A JUMPI PUSH2 0x277F PUSH2 0x303C JUMP JUMPDEST PUSH1 0x0 PUSH2 0x1C0 PUSH1 0x40 MLOAD PUSH2 0x2790 DUP2 PUSH2 0x3222 JUMP JUMPDEST DUP3 DUP2 MSTORE DUP3 PUSH1 0x20 DUP3 ADD MSTORE DUP3 PUSH1 0x40 DUP3 ADD MSTORE DUP3 PUSH1 0x60 DUP3 ADD MSTORE DUP3 PUSH1 0x80 DUP3 ADD MSTORE DUP3 PUSH1 0xA0 DUP3 ADD MSTORE DUP3 PUSH1 0xC0 DUP3 ADD MSTORE DUP3 PUSH1 0xE0 DUP3 ADD MSTORE DUP3 PUSH2 0x100 DUP3 ADD MSTORE DUP3 PUSH2 0x120 DUP3 ADD MSTORE DUP3 PUSH2 0x140 DUP3 ADD MSTORE DUP3 PUSH2 0x160 DUP3 ADD MSTORE DUP3 PUSH2 0x180 DUP3 ADD MSTORE DUP3 PUSH2 0x1A0 DUP3 ADD MSTORE ADD MSTORE PUSH1 0x1 DUP1 PUSH1 0xA0 SHL SUB AND PUSH1 0x0 MSTORE PUSH1 0x3 PUSH1 0x20 MSTORE PUSH2 0x1E0 PUSH1 0x40 PUSH1 0x0 KECCAK256 PUSH2 0x1C0 PUSH1 0x40 MLOAD PUSH2 0x2810 DUP2 PUSH2 0x3222 JUMP JUMPDEST PUSH1 0xE DUP4 SLOAD SWAP4 DUP5 DUP4 MSTORE PUSH1 0x1 DUP2 ADD SLOAD PUSH1 0x20 DUP5 ADD MSTORE PUSH1 0x2 DUP2 ADD SLOAD PUSH1 0x40 DUP5 ADD MSTORE PUSH1 0x3 DUP2 ADD SLOAD PUSH1 0x60 DUP5 ADD MSTORE PUSH1 0x4 DUP2 ADD SLOAD PUSH1 0x80 DUP5 ADD MSTORE PUSH1 0x5 DUP2 ADD SLOAD PUSH1 0xA0 DUP5 ADD MSTORE PUSH1 0x6 DUP2 ADD SLOAD PUSH1 0xC0 DUP5 ADD MSTORE PUSH1 0x7 DUP2 ADD SLOAD PUSH1 0xE0 DUP5 ADD MSTORE PUSH1 0x8 DUP2 ADD SLOAD PUSH2 0x100 DUP5 ADD MSTORE PUSH1 0x9 DUP2 ADD SLOAD PUSH2 0x120 DUP5 ADD MSTORE PUSH1 0xA DUP2 ADD SLOAD PUSH2 0x140 DUP5 ADD MSTORE PUSH1 0xB DUP2 ADD SLOAD PUSH2 0x160 DUP5 ADD MSTORE PUSH1 0xC DUP2 ADD SLOAD PUSH2 0x180 DUP5 ADD MSTORE PUSH1 0xD DUP2 ADD SLOAD PUSH2 0x1A0 DUP5 ADD MSTORE ADD SLOAD DUP3 DUP3 ADD MSTORE PUSH1 0x40 MLOAD SWAP3 DUP4 MSTORE PUSH1 0x20 DUP2 ADD MLOAD PUSH1 0x20 DUP5 ADD MSTORE PUSH1 0x40 DUP2 ADD MLOAD PUSH1 0x40 DUP5 ADD MSTORE PUSH1 0x60 DUP2 ADD MLOAD PUSH1 0x60 DUP5 ADD MSTORE PUSH1 0x80 DUP2 ADD MLOAD PUSH1 0x80 DUP5 ADD MSTORE PUSH1 0xA0 DUP2 ADD MLOAD PUSH1 0xA0 DUP5 ADD MSTORE PUSH1 0xC0 DUP2 ADD MLOAD PUSH1 0xC0 DUP5 ADD MSTORE PUSH1 0xE0 DUP2 ADD MLOAD PUSH1 0xE0 DUP5 ADD MSTORE PUSH2 0x100 DUP2 ADD MLOAD PUSH2 0x100 DUP5 ADD MSTORE PUSH2 0x120 DUP2 ADD MLOAD PUSH2 0x120 DUP5 ADD MSTORE PUSH2 0x140 DUP2 ADD MLOAD PUSH2 0x140 DUP5 ADD MSTORE PUSH2 0x160 DUP2 ADD MLOAD PUSH2 0x160 DUP5 ADD MSTORE PUSH2 0x180 DUP2 ADD MLOAD PUSH2 0x180 DUP5 ADD MSTORE PUSH2 0x1A0 DUP2 ADD MLOAD PUSH2 0x1A0 DUP5 ADD MSTORE ADD MLOAD PUSH2 0x1C0 DUP3 ADD MSTORE RETURN JUMPDEST CALLVALUE PUSH2 0x26A JUMPI PUSH1 0x20 CALLDATASIZE PUSH1 0x3 NOT ADD SLT PUSH2 0x26A JUMPI PUSH1 0x4 CALLDATALOAD PUSH1 0x0 MSTORE PUSH1 0x4 PUSH1 0x20 MSTORE PUSH2 0x120 PUSH1 0x40 PUSH1 0x0 KECCAK256 DUP1 SLOAD SWAP1 PUSH1 0x1 DUP2 ADD SLOAD SWAP1 PUSH1 0x2 DUP2 ADD SLOAD PUSH1 0x3 DUP3 ADD SLOAD PUSH1 0x4 DUP4 ADD SLOAD PUSH1 0x5 DUP5 ADD SLOAD SWAP2 PUSH1 0x6 DUP6 ADD SLOAD SWAP4 PUSH1 0x8 PUSH1 0xFF PUSH1 0x7 DUP9 ADD SLOAD AND SWAP7 ADD SLOAD SWAP7 PUSH1 0x40 MLOAD SWAP9 DUP10 MSTORE PUSH1 0x20 DUP10 ADD MSTORE PUSH1 0x40 DUP9 ADD MSTORE PUSH1 0x60 DUP8 ADD MSTORE PUSH1 0x80 DUP7 ADD MSTORE PUSH1 0xA0 DUP6 ADD MSTORE PUSH1 0xC0 DUP5 ADD MSTORE ISZERO ISZERO PUSH1 0xE0 DUP4 ADD MSTORE PUSH2 0x100 DUP3 ADD MSTORE RETURN JUMPDEST CALLVALUE PUSH2 0x26A JUMPI PUSH1 0x0 CALLDATASIZE PUSH1 0x3 NOT ADD SLT PUSH2 0x26A JUMPI PUSH1 0x1 SLOAD PUSH1 0x40 MLOAD PUSH1 0x1 PUSH1 0x1 PUSH1 0xA0 SHL SUB SWAP1 SWAP2 AND DUP2 MSTORE PUSH1 0x20 SWAP1 RETURN JUMPDEST CALLVALUE PUSH2 0x26A JUMPI PUSH1 0x20 CALLDATASIZE PUSH1 0x3 NOT ADD SLT PUSH2 0x26A JUMPI PUSH1 0x40 MLOAD PUSH4 0x3D80D00B PUSH1 0xE0 SHL DUP2 MSTORE PUSH1 0x7 PUSH1 0x4 DUP3 ADD MSTORE PUSH1 0x4 CALLDATALOAD PUSH1 0x24 DUP3 ADD MSTORE PUSH1 0x0 DUP2 PUSH1 0x44 DUP2 ADDRESS GAS STATICCALL SWAP1 DUP2 ISZERO PUSH2 0x426 JUMPI PUSH1 0x0 SWAP1 PUSH1 0x0 SWAP3 PUSH2 0x2A4E JUMPI JUMPDEST POP PUSH2 0x2E6 PUSH1 0x40 MLOAD SWAP3 DUP4 SWAP3 DUP4 PUSH2 0x3014 JUMP JUMPDEST SWAP1 POP PUSH2 0x2A6D SWAP2 POP RETURNDATASIZE DUP1 PUSH1 0x0 DUP4 RETURNDATACOPY PUSH2 0x2A65 DUP2 DUP4 PUSH2 0x32A7 JUMP JUMPDEST DUP2 ADD SWAP1 PUSH2 0x36C4 JUMP JUMPDEST SWAP1 DUP3 PUSH2 0x2A3E JUMP JUMPDEST CALLVALUE PUSH2 0x26A JUMPI PUSH2 0x2A82 CALLDATASIZE PUSH2 0x3092 JUMP JUMPDEST PUSH1 0x1 SLOAD PUSH1 0x40 MLOAD PUSH4 0x1FCA74DD PUSH1 0xE3 SHL DUP2 MSTORE PUSH1 0x1 PUSH1 0x1 PUSH1 0xA0 SHL SUB SWAP1 SWAP2 AND SWAP1 PUSH1 0x20 DUP2 PUSH1 0x4 DUP2 DUP6 GAS STATICCALL SWAP1 DUP2 ISZERO PUSH2 0x426 JUMPI PUSH1 0x0 SWAP2 PUSH2 0x2D71 JUMPI JUMPDEST POP PUSH1 0x40 MLOAD PUSH2 0x2AC3 DUP2 PUSH2 0x328C JUMP JUMPDEST PUSH1 0x0 DUP2 MSTORE SWAP2 PUSH1 0x40 MLOAD PUSH2 0x2AD4 DUP2 PUSH2 0x328C JUMP JUMPDEST PUSH1 0x0 DUP2 MSTORE SWAP5 PUSH3 0x15180 SWAP1 DUP2 DUP2 MUL SWAP2 DUP2 DUP4 DIV EQ SWAP1 ISZERO OR ISZERO PUSH2 0x792 JUMPI PUSH2 0x2AF8 SWAP1 TIMESTAMP PUSH2 0x32EA JUMP JUMPDEST PUSH1 0x1 JUMPDEST DUP4 DUP2 LT PUSH2 0x2C2B JUMPI POP POP POP POP PUSH1 0x0 JUMPDEST DUP2 MLOAD PUSH1 0x0 NOT SWAP4 SWAP1 DUP5 DUP2 ADD SWAP1 DUP2 GT PUSH2 0x792 JUMPI DUP3 LT ISZERO PUSH2 0x2BC7 JUMPI PUSH1 0x0 JUMPDEST PUSH2 0x2B2F DUP4 DUP6 MLOAD PUSH2 0x32EA JUMP JUMPDEST DUP6 DUP2 ADD SWAP1 DUP2 GT PUSH2 0x792 JUMPI DUP2 LT ISZERO PUSH2 0x2BB6 JUMPI PUSH2 0x2B4A DUP2 DUP8 PUSH2 0x3652 JUMP JUMPDEST MLOAD SWAP1 PUSH1 0x1 DUP2 ADD DUP1 DUP3 GT PUSH2 0x792 JUMPI PUSH2 0x2B71 SWAP3 PUSH2 0x2B65 DUP3 DUP11 PUSH2 0x3652 JUMP JUMPDEST MLOAD GT PUSH2 0x2B76 JUMPI POP PUSH2 0x3206 JUMP JUMPDEST PUSH2 0x2B24 JUMP JUMPDEST PUSH2 0x2B80 DUP3 DUP10 PUSH2 0x3652 JUMP JUMPDEST MLOAD PUSH2 0x2B8B DUP3 DUP11 PUSH2 0x3652 JUMP JUMPDEST MLOAD PUSH2 0x2B96 DUP5 DUP12 PUSH2 0x3652 JUMP JUMPDEST MSTORE PUSH2 0x2BA1 DUP3 DUP11 PUSH2 0x3652 JUMP JUMPDEST MSTORE PUSH2 0x2BAF PUSH2 0x76D DUP4 DUP9 PUSH2 0x3652 JUMP JUMPDEST MSTORE DUP8 PUSH2 0x725 JUMP JUMPDEST POP SWAP3 POP PUSH2 0x2BC2 SWAP1 PUSH2 0x3206 JUMP JUMPDEST PUSH2 0x2B09 JUMP JUMPDEST DUP5 SWAP2 POP DUP1 ISZERO ISZERO DUP1 PUSH2 0x2C21 JUMPI JUMPDEST ISZERO PUSH2 0x2C19 JUMPI JUMPDEST PUSH2 0x2BE2 DUP2 PUSH2 0x3620 JUMP JUMPDEST SWAP2 PUSH2 0x2BEC DUP3 PUSH2 0x3620 JUMP JUMPDEST SWAP4 PUSH1 0x0 JUMPDEST DUP4 DUP2 LT PUSH2 0x2C06 JUMPI PUSH1 0x40 MLOAD DUP1 PUSH2 0x2E6 DUP9 DUP9 DUP4 PUSH2 0x3014 JUMP JUMPDEST DUP1 PUSH2 0x66C PUSH2 0x2C14 SWAP3 DUP5 PUSH2 0x3652 JUMP JUMPDEST PUSH2 0x2BF0 JUMP JUMPDEST POP DUP2 MLOAD PUSH2 0x2BD9 JUMP JUMPDEST POP DUP3 MLOAD DUP2 LT PUSH2 0x2BD3 JUMP JUMPDEST PUSH1 0x40 MLOAD PUSH4 0xEB44FDD3 PUSH1 0xE0 SHL DUP2 MSTORE PUSH1 0x4 DUP2 ADD DUP3 SWAP1 MSTORE PUSH1 0x24 PUSH1 0x0 DUP3 DUP3 DUP2 DUP9 GAS STATICCALL SWAP2 DUP3 ISZERO PUSH2 0x426 JUMPI PUSH1 0x0 SWAP3 PUSH2 0x2D54 JUMPI JUMPDEST POP PUSH2 0x180 DUP3 ADD MLOAD PUSH1 0x5 DUP2 LT ISZERO PUSH2 0x3EE JUMPI ISZERO DUP1 PUSH2 0x2D45 JUMPI JUMPDEST PUSH2 0x2C84 JUMPI JUMPDEST POP POP PUSH2 0x2C7F SWAP1 PUSH2 0x3206 JUMP JUMPDEST PUSH2 0x2AFB JUMP JUMPDEST SWAP5 DUP7 SWAP5 SWAP7 SWAP8 SWAP2 SWAP8 SWAP4 SWAP3 SWAP4 MLOAD PUSH1 0x1 DUP2 ADD DUP1 SWAP2 GT PUSH2 0x2D30 JUMPI PUSH2 0x2CA3 SWAP1 PUSH2 0x3620 JUMP JUMPDEST SWAP6 DUP10 MLOAD SWAP1 PUSH1 0x1 DUP3 ADD DUP1 SWAP3 GT PUSH2 0x3C3 JUMPI POP PUSH2 0x2CBC SWAP1 PUSH2 0x3620 JUMP JUMPDEST SWAP7 PUSH1 0x0 JUMPDEST DUP7 MLOAD DUP2 LT ISZERO PUSH2 0x2CFD JUMPI DUP1 PUSH2 0x2CD7 PUSH2 0x2CF8 SWAP3 DUP10 PUSH2 0x3652 JUMP JUMPDEST MLOAD PUSH2 0x2CE2 DUP3 DUP12 PUSH2 0x3652 JUMP JUMPDEST MSTORE PUSH2 0x2CED DUP2 DUP14 PUSH2 0x3652 JUMP JUMPDEST MLOAD PUSH2 0x3A9 DUP3 DUP13 PUSH2 0x3652 JUMP JUMPDEST PUSH2 0x2CC0 JUMP JUMPDEST POP SWAP5 PUSH2 0x100 DUP6 SWAP11 SWAP3 SWAP8 SWAP4 SWAP10 PUSH2 0x2C7F SWAP6 SWAP7 PUSH2 0x2D1B PUSH2 0x2D26 SWAP5 MLOAD DUP8 PUSH2 0x3652 JUMP JUMPDEST MSTORE ADD MLOAD SWAP2 MLOAD DUP9 PUSH2 0x3652 JUMP JUMPDEST MSTORE SWAP5 SWAP7 SWAP1 DUP9 PUSH2 0x2C74 JUMP JUMPDEST DUP7 PUSH4 0x4E487B71 PUSH1 0xE0 SHL PUSH1 0x0 MSTORE PUSH1 0x11 PUSH1 0x4 MSTORE PUSH1 0x0 REVERT JUMPDEST POP DUP4 PUSH2 0x100 DUP4 ADD MLOAD LT ISZERO PUSH2 0x2C6F JUMP JUMPDEST PUSH2 0x2D6A SWAP2 SWAP3 POP RETURNDATASIZE DUP1 PUSH1 0x0 DUP4 RETURNDATACOPY PUSH2 0x418 DUP2 DUP4 PUSH2 0x32A7 JUMP JUMPDEST SWAP1 DUP10 PUSH2 0x2C58 JUMP JUMPDEST SWAP1 POP PUSH1 0x20 DUP2 RETURNDATASIZE DUP3 GT PUSH2 0x2D9A JUMPI JUMPDEST DUP2 PUSH2 0x2D8B PUSH1 0x20 SWAP4 DUP4 PUSH2 0x32A7 JUMP JUMPDEST DUP2 ADD SUB SLT PUSH2 0x26A JUMPI MLOAD DUP5 PUSH2 0x2AB6 JUMP JUMPDEST RETURNDATASIZE SWAP2 POP PUSH2 0x2D7E JUMP JUMPDEST CALLVALUE PUSH2 0x26A JUMPI PUSH1 0x20 CALLDATASIZE PUSH1 0x3 NOT ADD SLT PUSH2 0x26A JUMPI PUSH1 0x20 PUSH2 0x2DC5 PUSH2 0x2DC0 PUSH2 0x303C JUMP JUMPDEST PUSH2 0x3524 JUMP JUMPDEST PUSH1 0x40 MLOAD SWAP1 DUP2 MSTORE RETURN JUMPDEST CALLVALUE PUSH2 0x26A JUMPI PUSH2 0x2DDB CALLDATASIZE PUSH2 0x3068 JUMP JUMPDEST POP PUSH1 0x1 SLOAD PUSH1 0x1 PUSH1 0x1 PUSH1 0xA0 SHL SUB SWAP2 DUP3 SWAP2 PUSH2 0x2DF7 SWAP1 DUP4 AND CALLER EQ PUSH2 0x31AA JUMP JUMPDEST AND SWAP2 DUP3 PUSH1 0x0 MSTORE PUSH1 0x3 PUSH1 0x20 MSTORE PUSH1 0x40 PUSH1 0x0 KECCAK256 PUSH1 0x2 DUP2 ADD PUSH2 0x2E15 DUP2 SLOAD PUSH2 0x3206 JUMP JUMPDEST SWAP1 SSTORE TIMESTAMP PUSH1 0xA DUP3 ADD SSTORE PUSH1 0x0 DUP4 PUSH1 0x1 SLOAD AND SWAP3 PUSH1 0x24 PUSH1 0x40 MLOAD DUP1 SWAP6 DUP2 SWAP4 PUSH4 0xEB44FDD3 PUSH1 0xE0 SHL DUP4 MSTORE PUSH1 0x4 DUP4 ADD MSTORE GAS STATICCALL SWAP2 DUP3 ISZERO PUSH2 0x426 JUMPI PUSH1 0x0 DUP1 MLOAD PUSH1 0x20 PUSH2 0x3708 DUP4 CODECOPY DUP2 MLOAD SWAP2 MSTORE SWAP4 PUSH1 0x40 SWAP4 DUP7 SWAP3 PUSH1 0x0 SWAP2 PUSH2 0x2E94 JUMPI JUMPDEST POP MLOAD AND EQ PUSH2 0x2E7F JUMPI PUSH1 0x3 DUP2 SLOAD SWAP2 ADD SLOAD DUP3 MLOAD SWAP2 DUP3 MSTORE PUSH1 0x20 DUP3 ADD MSTORE LOG2 STOP JUMPDEST PUSH1 0x8 DUP2 ADD PUSH2 0x2E8D DUP2 SLOAD PUSH2 0x3206 JUMP JUMPDEST SWAP1 SSTORE PUSH2 0x555 JUMP JUMPDEST PUSH2 0x2EA9 SWAP2 POP RETURNDATASIZE DUP1 PUSH1 0x0 DUP4 RETURNDATACOPY PUSH2 0x418 DUP2 DUP4 PUSH2 0x32A7 JUMP JUMPDEST DUP8 PUSH2 0x2E63 JUMP JUMPDEST CALLVALUE PUSH2 0x26A JUMPI PUSH1 0x20 DUP1 PUSH1 0x3 NOT CALLDATASIZE ADD SLT PUSH2 0x26A JUMPI PUSH1 0x1 PUSH1 0x1 PUSH1 0xA0 SHL SUB PUSH2 0x2ED1 PUSH2 0x303C JUMP JUMPDEST AND PUSH1 0x0 MSTORE PUSH1 0x7 DUP2 MSTORE PUSH1 0x40 PUSH1 0x0 KECCAK256 SWAP1 PUSH1 0x40 MLOAD DUP1 DUP4 DUP4 DUP3 SWAP6 SLOAD SWAP4 DUP5 DUP2 MSTORE ADD SWAP1 PUSH1 0x0 MSTORE DUP4 PUSH1 0x0 KECCAK256 SWAP3 PUSH1 0x0 JUMPDEST DUP6 DUP3 DUP3 LT PUSH2 0x2F10 JUMPI POP POP POP PUSH2 0x18B0 SWAP3 POP SUB DUP4 PUSH2 0x32A7 JUMP JUMPDEST DUP6 SLOAD DUP5 MSTORE PUSH1 0x1 SWAP6 DUP7 ADD SWAP6 DUP9 SWAP6 POP SWAP4 ADD SWAP3 ADD PUSH2 0x2EF9 JUMP JUMPDEST CALLVALUE PUSH2 0x26A JUMPI PUSH1 0x20 CALLDATASIZE PUSH1 0x3 NOT ADD SLT PUSH2 0x26A JUMPI PUSH1 0x1 PUSH1 0x1 PUSH1 0xA0 SHL SUB PUSH2 0x2F47 PUSH2 0x303C JUMP JUMPDEST AND PUSH1 0x0 MSTORE PUSH1 0x3 PUSH1 0x20 MSTORE PUSH1 0x20 PUSH1 0x9 PUSH1 0x40 PUSH1 0x0 KECCAK256 ADD SLOAD PUSH1 0x40 MLOAD SWAP1 DUP2 MSTORE RETURN JUMPDEST CALLVALUE PUSH2 0x26A JUMPI PUSH1 0x0 CALLDATASIZE PUSH1 0x3 NOT ADD SLT PUSH2 0x26A JUMPI PUSH1 0x2 SLOAD PUSH1 0x40 MLOAD PUSH1 0x1 PUSH1 0x1 PUSH1 0xA0 SHL SUB SWAP1 SWAP2 AND DUP2 MSTORE PUSH1 0x20 SWAP1 RETURN JUMPDEST CALLVALUE PUSH2 0x26A JUMPI PUSH1 0x20 CALLDATASIZE PUSH1 0x3 NOT ADD SLT PUSH2 0x26A JUMPI PUSH4 0x3D80D00B PUSH1 0xE0 SHL DUP2 MSTORE PUSH1 0x1 PUSH1 0x4 DUP3 ADD MSTORE PUSH1 0x4 CALLDATALOAD PUSH1 0x24 DUP3 ADD MSTORE PUSH1 0x0 DUP2 PUSH1 0x44 DUP2 ADDRESS GAS STATICCALL SWAP1 DUP2 ISZERO PUSH2 0x426 JUMPI PUSH1 0x0 SWAP1 PUSH1 0x0 SWAP3 PUSH2 0x2A4E JUMPI POP PUSH2 0x2E6 PUSH1 0x40 MLOAD SWAP3 DUP4 SWAP3 DUP4 PUSH2 0x3014 JUMP JUMPDEST SWAP1 DUP2 MLOAD DUP1 DUP3 MSTORE PUSH1 0x20 DUP1 DUP1 SWAP4 ADD SWAP4 ADD SWAP2 PUSH1 0x0 JUMPDEST DUP3 DUP2 LT PUSH2 0x3000 JUMPI POP POP POP POP SWAP1 JUMP JUMPDEST DUP4 MLOAD DUP6 MSTORE SWAP4 DUP2 ADD SWAP4 SWAP3 DUP2 ADD SWAP3 PUSH1 0x1 ADD PUSH2 0x2FF2 JUMP JUMPDEST SWAP1 SWAP2 PUSH2 0x302B PUSH2 0x3039 SWAP4 PUSH1 0x40 DUP5 MSTORE PUSH1 0x40 DUP5 ADD SWAP1 PUSH2 0x2FE0 JUMP JUMPDEST SWAP2 PUSH1 0x20 DUP2 DUP5 SUB SWAP2 ADD MSTORE PUSH2 0x2FE0 JUMP JUMPDEST SWAP1 JUMP JUMPDEST PUSH1 0x4 CALLDATALOAD SWAP1 PUSH1 0x1 PUSH1 0x1 PUSH1 0xA0 SHL SUB DUP3 AND DUP3 SUB PUSH2 0x26A JUMPI JUMP JUMPDEST PUSH1 0x24 CALLDATALOAD SWAP1 PUSH1 0x1 PUSH1 0x1 PUSH1 0xA0 SHL SUB DUP3 AND DUP3 SUB PUSH2 0x26A JUMPI JUMP JUMPDEST PUSH1 0x60 SWAP1 PUSH1 0x3 NOT ADD SLT PUSH2 0x26A JUMPI PUSH1 0x4 CALLDATALOAD SWAP1 PUSH1 0x24 CALLDATALOAD PUSH1 0x1 PUSH1 0x1 PUSH1 0xA0 SHL SUB DUP2 AND DUP2 SUB PUSH2 0x26A JUMPI SWAP1 PUSH1 0x44 CALLDATALOAD SWAP1 JUMP JUMPDEST PUSH1 0x40 SWAP1 PUSH1 0x3 NOT ADD SLT PUSH2 0x26A JUMPI PUSH1 0x4 CALLDATALOAD SWAP1 PUSH1 0x24 CALLDATALOAD SWAP1 JUMP JUMPDEST DUP1 SLOAD DUP3 LT ISZERO PUSH2 0x30C0 JUMPI PUSH1 0x0 MSTORE PUSH1 0x20 PUSH1 0x0 KECCAK256 ADD SWAP1 PUSH1 0x0 SWAP1 JUMP JUMPDEST PUSH4 0x4E487B71 PUSH1 0xE0 SHL PUSH1 0x0 MSTORE PUSH1 0x32 PUSH1 0x4 MSTORE PUSH1 0x24 PUSH1 0x0 REVERT JUMPDEST CALLVALUE PUSH2 0x26A JUMPI PUSH1 0x20 DUP1 PUSH1 0x3 NOT CALLDATASIZE ADD SLT PUSH2 0x26A JUMPI PUSH1 0x1 PUSH1 0x1 PUSH1 0xA0 SHL SUB PUSH2 0x30F8 PUSH2 0x303C JUMP JUMPDEST AND PUSH1 0x0 MSTORE PUSH1 0x5 DUP2 MSTORE PUSH1 0x40 PUSH1 0x0 KECCAK256 SWAP1 PUSH1 0x40 MLOAD DUP1 DUP4 DUP4 DUP3 SWAP6 SLOAD SWAP4 DUP5 DUP2 MSTORE ADD SWAP1 PUSH1 0x0 MSTORE DUP4 PUSH1 0x0 KECCAK256 SWAP3 PUSH1 0x0 JUMPDEST DUP6 DUP3 DUP3 LT PUSH2 0x3137 JUMPI POP POP POP PUSH2 0x18B0 SWAP3 POP SUB DUP4 PUSH2 0x32A7 JUMP JUMPDEST DUP6 SLOAD DUP5 MSTORE PUSH1 0x1 SWAP6 DUP7 ADD SWAP6 DUP9 SWAP6 POP SWAP4 ADD SWAP3 ADD PUSH2 0x3120 JUMP JUMPDEST PUSH1 0x0 SLOAD PUSH1 0x1 PUSH1 0x1 PUSH1 0xA0 SHL SUB AND CALLER SUB PUSH2 0x3161 JUMPI JUMP JUMPDEST PUSH1 0x40 MLOAD PUSH4 0x118CDAA7 PUSH1 0xE0 SHL DUP2 MSTORE CALLER PUSH1 0x4 DUP3 ADD MSTORE PUSH1 0x24 SWAP1 REVERT JUMPDEST PUSH1 0x1 PUSH1 0x1 PUSH1 0xA0 SHL SUB SWAP1 DUP2 AND SWAP1 DUP2 ISZERO PUSH2 0x31A3 JUMPI PUSH1 0x2 SLOAD AND DUP1 ISZERO ISZERO SWAP2 DUP3 PUSH2 0x319D JUMPI POP POP SWAP1 JUMP JUMPDEST EQ SWAP2 SWAP1 POP JUMP JUMPDEST POP POP PUSH1 0x1 SWAP1 JUMP JUMPDEST ISZERO PUSH2 0x31B1 JUMPI JUMP JUMPDEST PUSH1 0x40 MLOAD PUSH3 0x461BCD PUSH1 0xE5 SHL DUP2 MSTORE PUSH1 0x20 PUSH1 0x4 DUP3 ADD MSTORE PUSH1 0x27 PUSH1 0x24 DUP3 ADD MSTORE PUSH32 0x416E616C79746963733A204F6E6C79204D61726B65744D616E61676572206361 PUSH1 0x44 DUP3 ADD MSTORE PUSH7 0x6E20747261636B PUSH1 0xC8 SHL PUSH1 0x64 DUP3 ADD MSTORE PUSH1 0x84 SWAP1 REVERT JUMPDEST PUSH1 0x0 NOT DUP2 EQ PUSH2 0x792 JUMPI PUSH1 0x1 ADD SWAP1 JUMP JUMPDEST SWAP2 SWAP1 DUP3 ADD DUP1 SWAP3 GT PUSH2 0x792 JUMPI JUMP JUMPDEST PUSH2 0x1E0 DUP2 ADD SWAP1 DUP2 LT PUSH1 0x1 PUSH1 0x1 PUSH1 0x40 SHL SUB DUP3 GT OR PUSH2 0x323E JUMPI PUSH1 0x40 MSTORE JUMP JUMPDEST PUSH4 0x4E487B71 PUSH1 0xE0 SHL PUSH1 0x0 MSTORE PUSH1 0x41 PUSH1 0x4 MSTORE PUSH1 0x24 PUSH1 0x0 REVERT JUMPDEST PUSH2 0x120 DUP2 ADD SWAP1 DUP2 LT PUSH1 0x1 PUSH1 0x1 PUSH1 0x40 SHL SUB DUP3 GT OR PUSH2 0x323E JUMPI PUSH1 0x40 MSTORE JUMP JUMPDEST PUSH2 0x100 DUP2 ADD SWAP1 DUP2 LT PUSH1 0x1 PUSH1 0x1 PUSH1 0x40 SHL SUB DUP3 GT OR PUSH2 0x323E JUMPI PUSH1 0x40 MSTORE JUMP JUMPDEST PUSH1 0x20 DUP2 ADD SWAP1 DUP2 LT PUSH1 0x1 PUSH1 0x1 PUSH1 0x40 SHL SUB DUP3 GT OR PUSH2 0x323E JUMPI PUSH1 0x40 MSTORE JUMP JUMPDEST PUSH1 0x1F SWAP1 SWAP2 ADD PUSH1 0x1F NOT AND DUP2 ADD SWAP1 PUSH1 0x1 PUSH1 0x1 PUSH1 0x40 SHL SUB DUP3 GT SWAP1 DUP3 LT OR PUSH2 0x323E JUMPI PUSH1 0x40 MSTORE JUMP JUMPDEST DUP2 ISZERO PUSH2 0x32D4 JUMPI DIV SWAP1 JUMP JUMPDEST PUSH4 0x4E487B71 PUSH1 0xE0 SHL PUSH1 0x0 MSTORE PUSH1 0x12 PUSH1 0x4 MSTORE PUSH1 0x24 PUSH1 0x0 REVERT JUMPDEST SWAP2 SWAP1 DUP3 SUB SWAP2 DUP3 GT PUSH2 0x792 JUMPI JUMP JUMPDEST DUP1 SLOAD PUSH1 0x1 PUSH1 0x40 SHL DUP2 LT ISZERO PUSH2 0x323E JUMPI PUSH2 0x3314 SWAP2 PUSH1 0x1 DUP3 ADD DUP2 SSTORE PUSH2 0x30A8 JUMP JUMPDEST DUP2 SWAP3 SWAP2 SLOAD SWAP1 PUSH1 0x3 SHL SWAP2 DUP3 SHL SWAP2 PUSH1 0x0 NOT SWAP1 SHL NOT AND OR SWAP1 SSTORE JUMP JUMPDEST MLOAD SWAP1 PUSH1 0x1 PUSH1 0x1 PUSH1 0xA0 SHL SUB DUP3 AND DUP3 SUB PUSH2 0x26A JUMPI JUMP JUMPDEST MLOAD SWAP1 DUP2 ISZERO ISZERO DUP3 SUB PUSH2 0x26A JUMPI JUMP JUMPDEST SWAP1 PUSH1 0x20 SWAP1 DUP2 DUP4 DUP3 SUB SLT PUSH2 0x26A JUMPI DUP3 MLOAD PUSH1 0x1 PUSH1 0x1 PUSH1 0x40 SHL SUB SWAP4 DUP5 DUP3 GT PUSH2 0x26A JUMPI ADD SWAP2 PUSH2 0x2E0 SWAP4 DUP5 DUP5 DUP5 SUB SLT PUSH2 0x26A JUMPI PUSH1 0x40 MLOAD SWAP5 DUP6 ADD DUP6 DUP2 LT DUP3 DUP3 GT OR PUSH2 0x323E JUMPI PUSH1 0x40 MSTORE PUSH2 0x3398 DUP5 PUSH2 0x332C JUMP JUMPDEST DUP6 MSTORE DUP2 DUP5 ADD MLOAD DUP2 DUP2 GT PUSH2 0x26A JUMPI DUP5 ADD DUP4 PUSH1 0x1F DUP3 ADD SLT ISZERO PUSH2 0x26A JUMPI DUP1 MLOAD SWAP2 DUP3 GT PUSH2 0x323E JUMPI PUSH1 0x40 MLOAD SWAP4 PUSH2 0x33D2 PUSH1 0x1F DUP5 ADD PUSH1 0x1F NOT AND DUP6 ADD DUP7 PUSH2 0x32A7 JUMP JUMPDEST DUP3 DUP6 MSTORE DUP4 DUP4 DUP4 ADD ADD GT PUSH2 0x26A JUMPI DUP3 SWAP1 PUSH1 0x0 JUMPDEST DUP4 DUP2 LT PUSH2 0x3510 JUMPI POP POP PUSH1 0x0 SWAP2 DUP5 ADD ADD MSTORE DUP4 ADD MSTORE PUSH2 0x3403 PUSH1 0x40 DUP3 ADD PUSH2 0x3340 JUMP JUMPDEST PUSH1 0x40 DUP4 ADD MSTORE PUSH1 0x60 DUP2 ADD MLOAD PUSH1 0x60 DUP4 ADD MSTORE PUSH2 0x341E PUSH1 0x80 DUP3 ADD PUSH2 0x332C JUMP JUMPDEST PUSH1 0x80 DUP4 ADD MSTORE PUSH1 0xA0 DUP2 ADD MLOAD PUSH1 0xA0 DUP4 ADD MSTORE PUSH1 0xC0 DUP2 ADD MLOAD PUSH1 0xC0 DUP4 ADD MSTORE PUSH1 0xE0 DUP2 ADD MLOAD PUSH1 0xE0 DUP4 ADD MSTORE PUSH2 0x100 DUP1 DUP3 ADD MLOAD SWAP1 DUP4 ADD MSTORE PUSH2 0x120 DUP1 DUP3 ADD MLOAD SWAP1 DUP4 ADD MSTORE PUSH2 0x140 DUP1 DUP3 ADD MLOAD SWAP1 DUP4 ADD MSTORE PUSH2 0x160 DUP1 DUP3 ADD MLOAD SWAP1 DUP4 ADD MSTORE PUSH2 0x180 DUP1 DUP3 ADD MLOAD SWAP1 PUSH1 0x5 DUP3 LT ISZERO PUSH2 0x26A JUMPI DUP4 ADD MSTORE PUSH2 0x1A0 DUP1 DUP3 ADD MLOAD SWAP1 DUP4 ADD MSTORE PUSH2 0x1C0 PUSH2 0x349A DUP2 DUP4 ADD PUSH2 0x3340 JUMP JUMPDEST SWAP1 DUP4 ADD MSTORE PUSH2 0x1E0 DUP1 DUP3 ADD MLOAD SWAP1 DUP4 ADD MSTORE PUSH2 0x200 DUP1 DUP3 ADD MLOAD SWAP1 DUP4 ADD MSTORE PUSH2 0x220 DUP1 DUP3 ADD MLOAD SWAP1 PUSH1 0x2 DUP3 LT ISZERO PUSH2 0x26A JUMPI DUP4 ADD MSTORE PUSH2 0x240 PUSH2 0x34D6 DUP2 DUP4 ADD PUSH2 0x332C JUMP JUMPDEST SWAP1 DUP4 ADD MSTORE PUSH2 0x260 DUP1 DUP3 ADD MLOAD SWAP1 DUP4 ADD MSTORE PUSH2 0x280 DUP1 DUP3 ADD MLOAD SWAP1 DUP4 ADD MSTORE PUSH2 0x2A0 PUSH2 0x34FE DUP2 DUP4 ADD PUSH2 0x3340 JUMP JUMPDEST SWAP1 DUP4 ADD MSTORE PUSH2 0x2C0 DUP1 SWAP2 ADD MLOAD SWAP1 DUP3 ADD MSTORE SWAP1 JUMP JUMPDEST DUP2 DUP2 ADD DUP4 ADD MLOAD DUP7 DUP3 ADD DUP5 ADD MSTORE DUP5 SWAP3 ADD PUSH2 0x33E4 JUMP JUMPDEST PUSH1 0x1 DUP1 PUSH1 0xA0 SHL SUB AND PUSH1 0x0 MSTORE PUSH1 0x3 PUSH1 0x20 MSTORE PUSH1 0x40 PUSH1 0x0 KECCAK256 PUSH1 0x40 MLOAD SWAP1 PUSH2 0x3546 DUP3 PUSH2 0x3222 JUMP JUMPDEST DUP1 SLOAD DUP1 DUP4 MSTORE PUSH1 0xE PUSH1 0x1 DUP4 ADD SLOAD SWAP3 DUP4 PUSH1 0x20 DUP7 ADD MSTORE PUSH1 0x2 DUP2 ADD SLOAD PUSH1 0x40 DUP7 ADD MSTORE PUSH1 0x3 DUP2 ADD SLOAD PUSH1 0x60 DUP7 ADD MSTORE PUSH1 0x4 DUP2 ADD SLOAD PUSH1 0x80 DUP7 ADD MSTORE PUSH1 0x5 DUP2 ADD SLOAD PUSH1 0xA0 DUP7 ADD MSTORE PUSH1 0x6 DUP2 ADD SLOAD PUSH1 0xC0 DUP7 ADD MSTORE PUSH1 0x7 DUP2 ADD SLOAD PUSH1 0xE0 DUP7 ADD MSTORE PUSH1 0x8 DUP2 ADD SLOAD PUSH2 0x100 DUP7 ADD MSTORE PUSH1 0x9 DUP2 ADD SLOAD PUSH2 0x120 DUP7 ADD MSTORE PUSH1 0xA DUP2 ADD SLOAD PUSH2 0x140 DUP7 ADD MSTORE PUSH1 0xB DUP2 ADD SLOAD PUSH2 0x160 DUP7 ADD MSTORE PUSH1 0xC DUP2 ADD SLOAD PUSH2 0x180 DUP7 ADD MSTORE PUSH1 0xD DUP2 ADD SLOAD PUSH2 0x1A0 DUP7 ADD MSTORE ADD SLOAD PUSH2 0x1C0 DUP5 ADD MSTORE ISZERO PUSH2 0x3602 JUMPI PUSH1 0x64 DUP2 MUL SWAP1 DUP1 DUP3 DIV PUSH1 0x64 EQ SWAP1 ISZERO OR ISZERO PUSH2 0x792 JUMPI PUSH2 0x3039 SWAP2 MLOAD SWAP1 PUSH2 0x32CA JUMP JUMPDEST POP POP PUSH1 0x0 SWAP1 JUMP JUMPDEST PUSH1 0x1 PUSH1 0x1 PUSH1 0x40 SHL SUB DUP2 GT PUSH2 0x323E JUMPI PUSH1 0x5 SHL PUSH1 0x20 ADD SWAP1 JUMP JUMPDEST SWAP1 PUSH2 0x362A DUP3 PUSH2 0x3609 JUMP JUMPDEST PUSH2 0x3637 PUSH1 0x40 MLOAD SWAP2 DUP3 PUSH2 0x32A7 JUMP JUMPDEST DUP3 DUP2 MSTORE DUP1 SWAP3 PUSH2 0x3648 PUSH1 0x1F NOT SWAP2 PUSH2 0x3609 JUMP JUMPDEST ADD SWAP1 PUSH1 0x20 CALLDATASIZE SWAP2 ADD CALLDATACOPY JUMP JUMPDEST DUP1 MLOAD DUP3 LT ISZERO PUSH2 0x30C0 JUMPI PUSH1 0x20 SWAP2 PUSH1 0x5 SHL ADD ADD SWAP1 JUMP JUMPDEST DUP2 PUSH1 0x1F DUP3 ADD SLT ISZERO PUSH2 0x26A JUMPI DUP1 MLOAD SWAP2 PUSH2 0x367D DUP4 PUSH2 0x3609 JUMP JUMPDEST SWAP3 PUSH2 0x368B PUSH1 0x40 MLOAD SWAP5 DUP6 PUSH2 0x32A7 JUMP JUMPDEST DUP1 DUP5 MSTORE PUSH1 0x20 SWAP3 DUP4 DUP1 DUP7 ADD SWAP3 PUSH1 0x5 SHL DUP3 ADD ADD SWAP3 DUP4 GT PUSH2 0x26A JUMPI DUP4 ADD SWAP1 JUMPDEST DUP3 DUP3 LT PUSH2 0x36B5 JUMPI POP POP POP POP SWAP1 JUMP JUMPDEST DUP2 MLOAD DUP2 MSTORE SWAP1 DUP4 ADD SWAP1 DUP4 ADD PUSH2 0x36A7 JUMP JUMPDEST SWAP2 SWAP1 SWAP2 PUSH1 0x40 DUP2 DUP5 SUB SLT PUSH2 0x26A JUMPI DUP1 MLOAD PUSH1 0x1 PUSH1 0x1 PUSH1 0x40 SHL SUB SWAP4 SWAP1 DUP5 DUP2 GT PUSH2 0x26A JUMPI DUP2 PUSH2 0x36F0 SWAP2 DUP5 ADD PUSH2 0x3666 JUMP JUMPDEST SWAP4 PUSH1 0x20 DUP4 ADD MLOAD SWAP1 DUP2 GT PUSH2 0x26A JUMPI PUSH2 0x3039 SWAP3 ADD PUSH2 0x3666 JUMP INVALID 0x4B PUSH13 0x7ABACB75992CC13AD43FFE4479 0xDA 0xC5 0xF7 0xBE SWAP2 KECCAK256 0x2F PUSH0 0xBB LT DUP15 0xB1 0xAF DUP14 JUMP 0xED PUSH3 0x8BE007 SWAP13 MSTORE8 AND MSIZE EQ SGT PREVRANDAO 0xCD 0x1F 0xD0 LOG4 CALLCODE DUP5 NOT 0x49 PUSH32 0x9722A3DAAFE3B4186F6B6457E057AEC02922D876EC3D68C70DDF1563D34F09D2 SWAP1 ORIGIN 0xF7 PUSH29 0xCB3357D31CFFE7E733A164736F6C6343000814000A0000000000000000 "},"methodIdentifiers":{"getActiveMarketsByMinVolume(uint256)":"fbe15159","getActiveMarketsByParticipants(uint256)":"a119515a","getActiveMarketsByStakerCount(uint256)":"e893a76f","getActiveMarketsByVolume(uint256)":"50ad34a1","getGlobalStats()":"6b4169c3","getMarketStats(uint256)":"58057fe5","getMarketsByCreator(address)":"e99c80bd","getMarketsByDateRange(uint256,uint256)":"57f978ad","getMarketsByState(uint8)":"9b7bcd24","getMarketsByToken(address)":"cd94a775","getMarketsFiltered(address,address,uint256,uint256,uint8,uint256,uint256)":"837cd235","getRecentActiveMarkets(uint256,uint256)":"3d80d00b","getThisWeekActiveMarkets(uint256)":"3f89efda","getTodayActiveMarkets(uint256)":"0649e0c0","getTopStakers(uint256)":"c80ca39a","getUserFavoriteOption(address)":"110d05e5","getUserMarkets(address)":"da4473d8","getUserMarketsByState(address,uint8)":"80aa0d8c","getUserStakes(address)":"842e2981","getUserStats(address)":"4e43603a","getUserSupports(address)":"1c6e04db","getUserWinRate(address)":"25ec5ef1","isTrackedPaymentToken(address)":"ec886361","marketManager()":"41ed2c12","marketStats(uint256)":"4b669c09","owner()":"8da5cb5b","p2pErc20Token()":"0a75a434","renounceOwnership()":"715018a6","setMarketManager(address)":"d82aff11","setP2PErc20Token(address)":"6cfcb21e","trackLoss(uint256,address,uint256)":"2053114d","trackMarketCreation(uint256,address)":"f054f00a","trackMarketResolution(uint256,uint256)":"ff4a7300","trackStake(uint256,address,uint256,uint256)":"c228038d","trackSupport(uint256,address,uint256)":"8f46a5a1","trackWinnings(uint256,address,uint256,address)":"a2daa087","transferOwnership(address)":"f2fde38b","userMarkets(address,uint256)":"db0f871d","userOptionStats(address,uint256)":"54488a5a","userStakes(address,uint256)":"b5d5b5fa","userStats(address)":"8a65d874","userSupports(address,uint256)":"6b3b7ea7"}}}}}