{"contracts/P2PMarketManager.sol":{"EventPool":{"abi":[{"inputs":[{"internalType":"address","name":"initialOwner","type":"address"},{"internalType":"address payable","name":"_treasury","type":"address"},{"internalType":"address","name":"_verification","type":"address"},{"internalType":"address","name":"_analytics","type":"address"},{"internalType":"uint256","name":"_marketCreationFee","type":"uint256"}],"stateMutability":"nonpayable","type":"constructor"},{"inputs":[{"internalType":"address","name":"owner","type":"address"}],"name":"OwnableInvalidOwner","type":"error"},{"inputs":[{"internalType":"address","name":"account","type":"address"}],"name":"OwnableUnauthorizedAccount","type":"error"},{"inputs":[{"internalType":"address","name":"token","type":"address"}],"name":"SafeERC20FailedOperation","type":"error"},{"anonymous":false,"inputs":[{"indexed":true,"internalType":"uint256","name":"marketId","type":"uint256"},{"indexed":true,"internalType":"address","name":"user","type":"address"},{"indexed":false,"internalType":"uint256","name":"option","type":"uint256"},{"indexed":false,"internalType":"uint256","name":"amount","type":"uint256"}],"name":"BetPlaced","type":"event"},{"anonymous":false,"inputs":[{"indexed":true,"internalType":"uint256","name":"marketId","type":"uint256"},{"indexed":false,"internalType":"string","name":"reason","type":"string"}],"name":"MarketCancelled","type":"event"},{"anonymous":false,"inputs":[{"indexed":true,"internalType":"uint256","name":"marketId","type":"uint256"},{"indexed":true,"internalType":"address","name":"creator","type":"address"},{"indexed":false,"internalType":"string","name":"ipfsHash","type":"string"},{"indexed":false,"internalType":"bool","name":"isMultiOption","type":"bool"},{"indexed":false,"internalType":"uint256","name":"maxOptions","type":"uint256"},{"indexed":false,"internalType":"address","name":"paymentToken","type":"address"},{"indexed":false,"internalType":"uint256","name":"minStake","type":"uint256"}],"name":"MarketCreated","type":"event"},{"anonymous":false,"inputs":[{"indexed":true,"internalType":"uint256","name":"marketId","type":"uint256"},{"indexed":false,"internalType":"uint256","name":"endTime","type":"uint256"}],"name":"MarketEnded","type":"event"},{"anonymous":false,"inputs":[{"indexed":true,"internalType":"uint256","name":"marketId","type":"uint256"},{"indexed":false,"internalType":"uint256","name":"winningOption","type":"uint256"}],"name":"MarketResolved","type":"event"},{"anonymous":false,"inputs":[{"indexed":true,"internalType":"uint256","name":"marketId","type":"uint256"},{"indexed":true,"internalType":"address","name":"supporter","type":"address"},{"indexed":false,"internalType":"uint256","name":"amount","type":"uint256"}],"name":"MarketSupported","type":"event"},{"anonymous":false,"inputs":[{"indexed":true,"internalType":"address","name":"previousOwner","type":"address"},{"indexed":true,"internalType":"address","name":"newOwner","type":"address"}],"name":"OwnershipTransferred","type":"event"},{"anonymous":false,"inputs":[{"indexed":true,"internalType":"uint256","name":"marketId","type":"uint256"},{"indexed":true,"internalType":"address","name":"user","type":"address"},{"indexed":false,"internalType":"uint256","name":"amount","type":"uint256"}],"name":"RefundClaimed","type":"event"},{"anonymous":false,"inputs":[{"indexed":true,"internalType":"uint256","name":"marketId","type":"uint256"},{"indexed":true,"internalType":"address","name":"supporter","type":"address"},{"indexed":false,"internalType":"uint256","name":"amount","type":"uint256"}],"name":"SupportRewardClaimed","type":"event"},{"anonymous":false,"inputs":[{"indexed":true,"internalType":"uint256","name":"marketId","type":"uint256"},{"indexed":true,"internalType":"address","name":"supporter","type":"address"},{"indexed":false,"internalType":"uint256","name":"amount","type":"uint256"}],"name":"SupportWithdrawn","type":"event"},{"anonymous":false,"inputs":[{"indexed":true,"internalType":"uint256","name":"marketId","type":"uint256"},{"indexed":true,"internalType":"address","name":"user","type":"address"},{"indexed":false,"internalType":"uint256","name":"amount","type":"uint256"}],"name":"WinningsClaimed","type":"event"},{"inputs":[{"internalType":"uint256","name":"","type":"uint256"}],"name":"activeMarkets","outputs":[{"internalType":"uint256","name":"","type":"uint256"}],"stateMutability":"view","type":"function"},{"inputs":[{"internalType":"address","name":"token","type":"address"},{"internalType":"string","name":"symbol","type":"string"}],"name":"addSupportedToken","outputs":[],"stateMutability":"nonpayable","type":"function"},{"inputs":[],"name":"analytics","outputs":[{"internalType":"address","name":"","type":"address"}],"stateMutability":"view","type":"function"},{"inputs":[{"internalType":"uint256","name":"marketId","type":"uint256"}],"name":"autoResolve","outputs":[],"stateMutability":"nonpayable","type":"function"},{"inputs":[],"name":"bettingRestrictionEnabled","outputs":[{"internalType":"bool","name":"","type":"bool"}],"stateMutability":"view","type":"function"},{"inputs":[],"name":"bettingRestrictionMinutes","outputs":[{"internalType":"uint256","name":"","type":"uint256"}],"stateMutability":"view","type":"function"},{"inputs":[{"internalType":"address","name":"","type":"address"}],"name":"blacklistedWallets","outputs":[{"internalType":"bool","name":"","type":"bool"}],"stateMutability":"view","type":"function"},{"inputs":[{"internalType":"uint256","name":"marketId","type":"uint256"}],"name":"cancelMarket","outputs":[],"stateMutability":"nonpayable","type":"function"},{"inputs":[{"internalType":"uint256","name":"marketId","type":"uint256"}],"name":"claimRefund","outputs":[],"stateMutability":"nonpayable","type":"function"},{"inputs":[{"internalType":"uint256","name":"marketId","type":"uint256"}],"name":"claimWinnings","outputs":[],"stateMutability":"nonpayable","type":"function"},{"inputs":[{"internalType":"string","name":"ipfsHash","type":"string"},{"internalType":"bool","name":"isMultiOption","type":"bool"},{"internalType":"uint256","name":"maxOptions","type":"uint256"},{"internalType":"address","name":"paymentToken","type":"address"},{"internalType":"uint256","name":"minStake","type":"uint256"},{"internalType":"uint256","name":"creatorDeposit","type":"uint256"},{"internalType":"uint256","name":"creatorOutcome","type":"uint256"},{"internalType":"uint256","name":"durationMinutes","type":"uint256"}],"name":"createMarket","outputs":[{"internalType":"uint256","name":"","type":"uint256"}],"stateMutability":"payable","type":"function"},{"inputs":[{"internalType":"uint256","name":"marketId","type":"uint256"}],"name":"creatorCancelMarket","outputs":[],"stateMutability":"nonpayable","type":"function"},{"inputs":[{"internalType":"uint256","name":"marketId","type":"uint256"},{"internalType":"string","name":"reason","type":"string"}],"name":"deleteMarket","outputs":[],"stateMutability":"nonpayable","type":"function"},{"inputs":[{"internalType":"uint256","name":"","type":"uint256"}],"name":"deletedMarkets","outputs":[{"internalType":"uint256","name":"","type":"uint256"}],"stateMutability":"view","type":"function"},{"inputs":[{"internalType":"uint256","name":"","type":"uint256"}],"name":"deletionTimestamp","outputs":[{"internalType":"uint256","name":"","type":"uint256"}],"stateMutability":"view","type":"function"},{"inputs":[{"internalType":"uint256","name":"marketId","type":"uint256"}],"name":"endMarket","outputs":[],"stateMutability":"nonpayable","type":"function"},{"inputs":[],"name":"getActiveMarketCount","outputs":[{"internalType":"uint256","name":"","type":"uint256"}],"stateMutability":"view","type":"function"},{"inputs":[],"name":"getActiveMarkets","outputs":[{"internalType":"uint256[]","name":"","type":"uint256[]"}],"stateMutability":"view","type":"function"},{"inputs":[],"name":"getAllMarketIds","outputs":[{"internalType":"uint256[]","name":"","type":"uint256[]"}],"stateMutability":"view","type":"function"},{"inputs":[{"internalType":"uint256","name":"marketId","type":"uint256"}],"name":"getBettorCount","outputs":[{"internalType":"uint256","name":"","type":"uint256"}],"stateMutability":"view","type":"function"},{"inputs":[],"name":"getDeletedMarkets","outputs":[{"internalType":"uint256[]","name":"","type":"uint256[]"}],"stateMutability":"view","type":"function"},{"inputs":[{"internalType":"uint256","name":"marketId","type":"uint256"}],"name":"getMarket","outputs":[{"components":[{"internalType":"address","name":"creator","type":"address"},{"internalType":"string","name":"ipfsHash","type":"string"},{"internalType":"bool","name":"isMultiOption","type":"bool"},{"internalType":"uint256","name":"maxOptions","type":"uint256"},{"internalType":"address","name":"paymentToken","type":"address"},{"internalType":"uint256","name":"minStake","type":"uint256"},{"internalType":"uint256","name":"creatorDeposit","type":"uint256"},{"internalType":"uint256","name":"creatorOutcome","type":"uint256"},{"internalType":"uint256","name":"startTime","type":"uint256"},{"internalType":"uint256","name":"endTime","type":"uint256"},{"internalType":"uint256","name":"resolutionEndTime","type":"uint256"},{"internalType":"enum EventPool.MarketState","name":"state","type":"uint8"},{"internalType":"uint256","name":"winningOption","type":"uint256"},{"internalType":"bool","name":"isResolved","type":"bool"}],"internalType":"struct EventPool.Market","name":"","type":"tuple"}],"stateMutability":"view","type":"function"},{"inputs":[{"internalType":"uint256","name":"marketId","type":"uint256"}],"name":"getMarketBettors","outputs":[{"internalType":"address[]","name":"","type":"address[]"}],"stateMutability":"view","type":"function"},{"inputs":[{"internalType":"uint256","name":"marketId","type":"uint256"}],"name":"getMarketInfo","outputs":[{"components":[{"internalType":"address","name":"creator","type":"address"},{"internalType":"string","name":"ipfsHash","type":"string"},{"internalType":"bool","name":"isMultiOption","type":"bool"},{"internalType":"uint256","name":"maxOptions","type":"uint256"},{"internalType":"address","name":"paymentToken","type":"address"},{"internalType":"uint256","name":"minStake","type":"uint256"},{"internalType":"uint256","name":"creatorDeposit","type":"uint256"},{"internalType":"uint256","name":"creatorOutcome","type":"uint256"},{"internalType":"uint256","name":"startTime","type":"uint256"},{"internalType":"uint256","name":"endTime","type":"uint256"},{"internalType":"uint256","name":"resolutionEndTime","type":"uint256"},{"internalType":"enum EventPool.MarketState","name":"state","type":"uint8"},{"internalType":"uint256","name":"winningOption","type":"uint256"},{"internalType":"bool","name":"isResolved","type":"bool"}],"internalType":"struct EventPool.Market","name":"market","type":"tuple"},{"internalType":"uint256","name":"totalPool","type":"uint256"},{"internalType":"uint256","name":"supportPool","type":"uint256"},{"internalType":"uint256","name":"bettorCount","type":"uint256"},{"internalType":"uint256","name":"supporterCount","type":"uint256"},{"internalType":"address[]","name":"bettors","type":"address[]"},{"internalType":"address[]","name":"supporters","type":"address[]"},{"internalType":"string","name":"tokenSymbol","type":"string"}],"stateMutability":"view","type":"function"},{"inputs":[{"internalType":"uint256","name":"marketId","type":"uint256"}],"name":"getMarketSupporters","outputs":[{"internalType":"address[]","name":"","type":"address[]"}],"stateMutability":"view","type":"function"},{"inputs":[],"name":"getMarketsReadyForRemoval","outputs":[{"internalType":"uint256[]","name":"","type":"uint256[]"}],"stateMutability":"view","type":"function"},{"inputs":[],"name":"getNextMarketId","outputs":[{"internalType":"uint256","name":"","type":"uint256"}],"stateMutability":"view","type":"function"},{"inputs":[{"internalType":"uint256","name":"marketId","type":"uint256"},{"internalType":"uint256","name":"option","type":"uint256"},{"internalType":"address","name":"token","type":"address"}],"name":"getOptionPool","outputs":[{"internalType":"uint256","name":"","type":"uint256"}],"stateMutability":"view","type":"function"},{"inputs":[],"name":"getPermanentlyRemovedMarkets","outputs":[{"internalType":"uint256[]","name":"","type":"uint256[]"}],"stateMutability":"view","type":"function"},{"inputs":[{"internalType":"uint256","name":"marketId","type":"uint256"},{"internalType":"address","name":"token","type":"address"}],"name":"getSupportPool","outputs":[{"internalType":"uint256","name":"","type":"uint256"}],"stateMutability":"view","type":"function"},{"inputs":[],"name":"getSupportedTokenCount","outputs":[{"internalType":"uint256","name":"","type":"uint256"}],"stateMutability":"view","type":"function"},{"inputs":[],"name":"getSupportedTokens","outputs":[{"internalType":"address[]","name":"tokens","type":"address[]"},{"internalType":"string[]","name":"symbols","type":"string[]"}],"stateMutability":"view","type":"function"},{"inputs":[{"internalType":"uint256","name":"marketId","type":"uint256"}],"name":"getSupporterCount","outputs":[{"internalType":"uint256","name":"","type":"uint256"}],"stateMutability":"view","type":"function"},{"inputs":[{"internalType":"uint256","name":"marketId","type":"uint256"},{"internalType":"address","name":"token","type":"address"}],"name":"getTotalPool","outputs":[{"internalType":"uint256","name":"","type":"uint256"}],"stateMutability":"view","type":"function"},{"inputs":[{"internalType":"uint256","name":"marketId","type":"uint256"},{"internalType":"address","name":"user","type":"address"},{"internalType":"address","name":"token","type":"address"}],"name":"getUserBet","outputs":[{"internalType":"uint256","name":"","type":"uint256"}],"stateMutability":"view","type":"function"},{"inputs":[{"internalType":"address","name":"user","type":"address"}],"name":"getUserMarketHistory","outputs":[{"internalType":"uint256[]","name":"","type":"uint256[]"}],"stateMutability":"view","type":"function"},{"inputs":[{"internalType":"uint256","name":"marketId","type":"uint256"},{"internalType":"address","name":"user","type":"address"},{"internalType":"address","name":"token","type":"address"}],"name":"getUserSupport","outputs":[{"internalType":"uint256","name":"","type":"uint256"}],"stateMutability":"view","type":"function"},{"inputs":[{"internalType":"uint256","name":"","type":"uint256"}],"name":"isActiveMarket","outputs":[{"internalType":"bool","name":"","type":"bool"}],"stateMutability":"view","type":"function"},{"inputs":[{"internalType":"uint256","name":"marketId","type":"uint256"}],"name":"isMarketActive","outputs":[{"internalType":"bool","name":"","type":"bool"}],"stateMutability":"view","type":"function"},{"inputs":[{"internalType":"uint256","name":"","type":"uint256"},{"internalType":"uint256","name":"","type":"uint256"}],"name":"marketBettors","outputs":[{"internalType":"address","name":"","type":"address"}],"stateMutability":"view","type":"function"},{"inputs":[],"name":"marketCreationFee","outputs":[{"internalType":"uint256","name":"","type":"uint256"}],"stateMutability":"view","type":"function"},{"inputs":[{"internalType":"uint256","name":"","type":"uint256"},{"internalType":"uint256","name":"","type":"uint256"}],"name":"marketSupporters","outputs":[{"internalType":"address","name":"","type":"address"}],"stateMutability":"view","type":"function"},{"inputs":[{"internalType":"uint256","name":"","type":"uint256"}],"name":"markets","outputs":[{"internalType":"address","name":"creator","type":"address"},{"internalType":"string","name":"ipfsHash","type":"string"},{"internalType":"bool","name":"isMultiOption","type":"bool"},{"internalType":"uint256","name":"maxOptions","type":"uint256"},{"internalType":"address","name":"paymentToken","type":"address"},{"internalType":"uint256","name":"minStake","type":"uint256"},{"internalType":"uint256","name":"creatorDeposit","type":"uint256"},{"internalType":"uint256","name":"creatorOutcome","type":"uint256"},{"internalType":"uint256","name":"startTime","type":"uint256"},{"internalType":"uint256","name":"endTime","type":"uint256"},{"internalType":"uint256","name":"resolutionEndTime","type":"uint256"},{"internalType":"enum EventPool.MarketState","name":"state","type":"uint8"},{"internalType":"uint256","name":"winningOption","type":"uint256"},{"internalType":"bool","name":"isResolved","type":"bool"}],"stateMutability":"view","type":"function"},{"inputs":[],"name":"minMarketDurationMinutes","outputs":[{"internalType":"uint256","name":"","type":"uint256"}],"stateMutability":"view","type":"function"},{"inputs":[],"name":"nextMarketId","outputs":[{"internalType":"uint256","name":"","type":"uint256"}],"stateMutability":"view","type":"function"},{"inputs":[],"name":"owner","outputs":[{"internalType":"address","name":"","type":"address"}],"stateMutability":"view","type":"function"},{"inputs":[{"internalType":"uint256","name":"marketId","type":"uint256"}],"name":"permanentlyRemoveMarket","outputs":[],"stateMutability":"nonpayable","type":"function"},{"inputs":[{"internalType":"uint256","name":"","type":"uint256"}],"name":"permanentlyRemovedMarkets","outputs":[{"internalType":"uint256","name":"","type":"uint256"}],"stateMutability":"view","type":"function"},{"inputs":[{"internalType":"uint256","name":"marketId","type":"uint256"},{"internalType":"uint256","name":"option","type":"uint256"}],"name":"placeBet","outputs":[],"stateMutability":"payable","type":"function"},{"inputs":[{"internalType":"uint256","name":"marketId","type":"uint256"},{"internalType":"uint256","name":"option","type":"uint256"},{"internalType":"uint256","name":"amount","type":"uint256"}],"name":"placeBetWithToken","outputs":[],"stateMutability":"nonpayable","type":"function"},{"inputs":[{"internalType":"address","name":"token","type":"address"}],"name":"removeSupportedToken","outputs":[],"stateMutability":"nonpayable","type":"function"},{"inputs":[],"name":"renounceOwnership","outputs":[],"stateMutability":"nonpayable","type":"function"},{"inputs":[{"internalType":"uint256","name":"marketId","type":"uint256"},{"internalType":"uint256","name":"_winningOption","type":"uint256"}],"name":"resolveMarket","outputs":[],"stateMutability":"nonpayable","type":"function"},{"inputs":[{"internalType":"address","name":"_analytics","type":"address"}],"name":"setAnalytics","outputs":[],"stateMutability":"nonpayable","type":"function"},{"inputs":[{"internalType":"bool","name":"_enabled","type":"bool"},{"internalType":"uint256","name":"_restrictionMinutes","type":"uint256"}],"name":"setBettingRestriction","outputs":[],"stateMutability":"nonpayable","type":"function"},{"inputs":[{"internalType":"uint256","name":"_marketCreationFee","type":"uint256"}],"name":"setMarketCreationFee","outputs":[],"stateMutability":"nonpayable","type":"function"},{"inputs":[{"internalType":"uint256","name":"_minMarketDurationMinutes","type":"uint256"}],"name":"setMinMarketDuration","outputs":[],"stateMutability":"nonpayable","type":"function"},{"inputs":[{"internalType":"address","name":"_verification","type":"address"}],"name":"setVerification","outputs":[],"stateMutability":"nonpayable","type":"function"},{"inputs":[{"internalType":"address","name":"wallet","type":"address"},{"internalType":"bool","name":"blacklisted","type":"bool"}],"name":"setWalletBlacklist","outputs":[],"stateMutability":"nonpayable","type":"function"},{"inputs":[{"internalType":"uint256","name":"marketId","type":"uint256"},{"internalType":"uint256","name":"amount","type":"uint256"}],"name":"supportMarket","outputs":[],"stateMutability":"nonpayable","type":"function"},{"inputs":[{"internalType":"uint256","name":"","type":"uint256"}],"name":"supportedTokenList","outputs":[{"internalType":"address","name":"","type":"address"}],"stateMutability":"view","type":"function"},{"inputs":[{"internalType":"address","name":"","type":"address"}],"name":"supportedTokens","outputs":[{"internalType":"bool","name":"","type":"bool"}],"stateMutability":"view","type":"function"},{"inputs":[{"internalType":"address","name":"","type":"address"}],"name":"tokenSymbols","outputs":[{"internalType":"string","name":"","type":"string"}],"stateMutability":"view","type":"function"},{"inputs":[{"internalType":"address","name":"newOwner","type":"address"}],"name":"transferOwnership","outputs":[],"stateMutability":"nonpayable","type":"function"},{"inputs":[],"name":"treasury","outputs":[{"internalType":"address payable","name":"","type":"address"}],"stateMutability":"view","type":"function"},{"inputs":[{"internalType":"uint256","name":"","type":"uint256"},{"internalType":"address","name":"","type":"address"}],"name":"userBetOptions","outputs":[{"internalType":"uint256","name":"","type":"uint256"}],"stateMutability":"view","type":"function"},{"inputs":[{"internalType":"uint256","name":"","type":"uint256"},{"internalType":"address","name":"","type":"address"}],"name":"userHasBet","outputs":[{"internalType":"bool","name":"","type":"bool"}],"stateMutability":"view","type":"function"},{"inputs":[{"internalType":"uint256","name":"","type":"uint256"},{"internalType":"address","name":"","type":"address"}],"name":"userHasSupported","outputs":[{"internalType":"bool","name":"","type":"bool"}],"stateMutability":"view","type":"function"},{"inputs":[{"internalType":"address","name":"","type":"address"},{"internalType":"uint256","name":"","type":"uint256"}],"name":"userMarketHistory","outputs":[{"internalType":"uint256","name":"","type":"uint256"}],"stateMutability":"view","type":"function"},{"inputs":[],"name":"verification","outputs":[{"internalType":"address","name":"","type":"address"}],"stateMutability":"view","type":"function"},{"inputs":[{"internalType":"uint256","name":"marketId","type":"uint256"}],"name":"withdrawSupport","outputs":[],"stateMutability":"nonpayable","type":"function"},{"stateMutability":"payable","type":"receive"}],"evm":{"bytecode":{"linkReferences":{},"object":"6080346200023457601f62005e5138819003918201601f1916830191906001600160401b0383118484101762000239578160a09285926040958652833981010312620002345762000050826200024f565b6020838101519192916001600160a01b03908181169081900362000234576200007b8487016200024f565b938260806200008d60608a016200024f565b98015196169586156200021c57600080546001600160a01b03198082168a17835584519a9099929692909183167f8be0079c531659141344cd1fd0a4f28419497f9722a3daafe3b4186f6b6457e08880a38160019889600e55600560105560ff1996876011541660115560056012558b600b541617600b551689600c541617600c551687600d541617600d55600f558280526008845280832080548681811c9116801562000211575b86821014620001fd579081601f88949311620001d1575b506008635045505560e01b01905583805260078552832080549092161790556009549268010000000000000000841015620001bd57830180600955831015620001a957600981522001908154169055615bec9081620002658239f35b634e487b7160e01b81526032600452602490fd5b634e487b7160e01b82526041600452602482fd5b818652601f878720910160051c8101905b818110620001f157506200014d565b868155889401620001e2565b634e487b7160e01b85526022600452602485fd5b90607f169062000136565b8151631e4fbdf760e01b815260006004820152602490fd5b600080fd5b634e487b7160e01b600052604160045260246000fd5b51906001600160a01b0382168203620002345756fe6080604052600436101561001b575b361561001957600080fd5b005b6000803560e01c806307adc1911461468d5780630b501ab81461461f5780630d64cdbd146145f0578063157bdcce1461451857806317916e01146144fa578063256ba74114614451578063287f57b5146144085780632b5ba3b9146143c95780632b60c8221461439e5780632ef1bdfa1461438057806333d6b46e1461430d5780633adfe6d0146142e25780633e32a76c1461401b5780633ec7919314613cf4578063406ef2ef14613cd65780634584369514613c585780634986597f14613c115780634afe62b5146138e05780634f44289d146138865780634ffe2a8b1461385d57806351049969146136e457806353514044146136ba578063553b7cbb146136625780635b7baf64146132985780635da3247a1461327a578063605573331461326257806361d027b31461323957806365ebce55146131c3578063677bd9ff14612b2057806368c4ac2614612ae15780636d82222014612a6b5780636ed2151a146127d1578063715018a614612777578063720138e8146124bd57806374c350eb1461247d57806376319190146122ec5780637c16cd9e1461222857806380d5ac8a146121ff57806381b17d29146121ad5780638704bec01461216157806387fea110146120df578063881df9e1146120b457806388d3cc48146120915780638da5cb5b1461206a578063971f8bb11461202a57806398a1767114611fd45780639f37022a14611fb1578063a30a091414611f87578063a5e973c314611f05578063ad8e42ff14611edb578063b1138b5014611d04578063b1283e7714611c08578063b85ed63614611b7e578063baa9c4ac14611b60578063c22c62c314611b2e578063c3436e0c146119de578063c8a843b7146118bf578063ce67be26146118a1578063d3c7c2c71461172c578063db62c6de1461167b578063dc4ce34914611613578063e053bcec146115c8578063e78d011714611521578063eb44fdd314611424578063efb2b69014610895578063f00fe321146107dc578063f204072f146104a5578063f2fde38b1461041a578063f849f69e146103a7578063fb0b2b36146103545763fe53a6e814610334575061000e565b346103515780600319360112610351576020600e54604051908152f35b80fd5b5034610351576020366003190112610351576103a39061038f906040906001600160a01b0361038161490b565b168152600860205220614c9f565b604051918291602083526020830190614a64565b0390f35b5034610351576020366003190112610351576004358152601460205260ff604082205416806103de575b6020906040519015158152f35b50600160205260ff600b604083200154169060058210156104065750600460209114156103d1565b634e487b7160e01b81526021600452602490fd5b50346103515760203660031901126103515761043461490b565b61043c614d54565b6001600160a01b0390811690811561048c57600054826001600160601b0360a01b821617600055167f8be0079c531659141344cd1fd0a4f28419497f9722a3daafe3b4186f6b6457e0600080a380f35b604051631e4fbdf760e01b815260048101849052602490fd5b5034610351576104b436614b7d565b908083526020600181526040842060ff600b8201541660058110156107c8576104dd9015614fca565b600981015442101561077757600490338652600a835261050460ff60408820541615614d80565b0180546001600160a01b0391908216801561070c5785156106aa57906105348684938995600b5416903390614f1f565b848352600384526040832033600052845260ff6040600020541615610691575b84835260038452604083203360005284526040600020600160ff198254161790558180600b541691541690803b1561065f5760405163c15d980760e01b8152600481018790523360248201526001600160a01b039290921660448301526064820187905283908290608490829084905af1908115610686578391610672575b5050600d54168061060f575b50507fc02bbaff19bde22745e7227aeb31741efd4bf98ebb8b48ac49dd40833fac6756906040519384523393a380f35b803b1561066e57818091606460405180948193638f46a5a160e01b83528960048401523360248401528a60448401525af1801561066357156105df5761065490614b93565b61065f5783386105df565b8380fd5b6040513d84823e3d90fd5b5080fd5b61067b90614b93565b61066e5781386105d3565b6040513d85823e3d90fd5b848352600684526106a5336040852061514b565b610554565b60405162461bcd60e51b815260048101859052603460248201527f4d61726b65744d616e616765723a20537570706f727420616d6f756e74206d75604482015273073742062652067726561746572207468616e20360641b6064820152608490fd5b60405162461bcd60e51b815260048101859052603760248201527f4d61726b65744d616e616765723a20537570706f7274206f6e6c79206176616960448201527f6c61626c6520666f7220746f6b656e206d61726b6574730000000000000000006064820152608490fd5b60405162461bcd60e51b815260048101839052602360248201527f4d61726b65744d616e616765723a20537570706f727420706572696f6420656e60448201526219195960ea1b6064820152608490fd5b634e487b7160e01b86526021600452602486fd5b5034610351576040366003190112610351576108369060206107fc6148f5565b600b54604051633d1e7ba160e11b815260048035908201526001600160a01b03928316602482015294859290911690829081906044820190565b03915afa9081156108895790610852575b602090604051908152f35b506020813d8211610881575b8161086b60209383614be0565b8101031261087c5760209051610847565b600080fd5b3d915061085e565b604051903d90823e3d90fd5b506101003660031901126103515760043567ffffffffffffffff811161066e576108c3903690600401614c1e565b906108cc614d45565b6064356001600160a01b038116900361087c57338252600a6020526108f860ff60408420541615614d80565b8251156113e05760026044351015806113d3575b15611383576084351561133f5760a435156112eb5760c4351515806112dd575b156112895760105460e435106112365780156111fc576064356001600160a01b031615611199576064356001600160a01b031682526007602052604082205460ff1615611138575b600f5434106110e257603c60e4350260e4358104603c1460e4351517156110ce5761099f9042614e2d565b916202a300830183116110ba57600e54926109b984614e3a565b600e556202a300604051916109cd83614ba7565b3383528660208401528415156040840152604435606084015260018060a01b0360643516608084015260843560a084015260a43560c084015260c43560e08401524261010084015280610120840152016101408201528161016082015281610180820152816101a08201528382526001602052604082209060018060a01b038151166001600160601b0360a01b835416178255602081015180519067ffffffffffffffff82116110a6578190610a866001860154614c65565b601f8111611068575b50602090601f8311600114610ff9578692610fee575b50508160011b916000199060031b1c19161760018301555b610adc60408201511515600284019060ff801983541691151516179055565b606081015160038301556004820160018060a01b036080830151166001600160601b0360a01b82541617905560a0810151600583015560c0810151600683015560e0810151600783015561010081015160088301556101208101516009830155610140810151600a830155600b82016101608201516005811015610fda57610b949392600d926101a09260ff80198354169116179055610180810151600c8501550151151591019060ff801983541691151516179055565b601354600160401b811015610fc45783610bb7826001610bd094016013556149a3565b90919082549060031b91821b91600019901b1916179055565b828152601460205260408120805460ff191660011790556064356001600160a01b0316610f1857600f54610c0660a43582614e2d565b3410610ed45781808080610c2e9460018060a01b038254165af1610c28614e8f565b50614ebf565b8080808060a43560018060a01b03600b54165af1610c4a614e8f565b5015610e69575b828152600260205260408120336000526020526040600020600160ff198254161790558281526004602052604081203360005260205260c4356040600020553381526015602052610ca58360408320614e6c565b600b546001600160a01b0316803b1561066e57604051633805180760e21b815260048101859052336024820152606480356001600160a01b0316604483015260a480359183019190915260c4356084830152909183918391829084905af1801561066357908291610e55575b5050600d546001600160a01b031680610d98575b5050817fe47f69e204f188e4f9df6adc50c9cf0bd76c1cd85f34a8a3e8284064afb4fb82602094610d616040519160a0835260a0830190614a64565b9315158187015260443560408201526064356001600160a01b031660608201526084356080820152339381900390a3604051908152f35b803b1561066e5760405163782a780560e11b8152600481018590523360248201529082908290604490829084905af1801561066357908291610e41575b5050600d546001600160a01b0316803b1561066e57604051635374b47b60e01b81526004810185905233602482015260c435604482015260a43560648201529082908290608490829084905af180156106635715610d2557610e378291614b93565b6103515780610d25565b610e4a90614b93565b610351578038610dd5565b610e5e90614b93565b610351578038610d11565b60405162461bcd60e51b815260206004820152603a60248201527f4d61726b65744d616e616765723a2043726561746f72206465706f736974207460448201527f72616e7366657220746f205472656173757279206661696c65640000000000006064820152608490fd5b606460405162461bcd60e51b815260206004820152602060248201527f4d61726b65744d616e616765723a20496e73756666696369656e7420504550556044820152fd5b600f54803410610f655781808080610f3e9460018060a01b038254165af1610c28614e8f565b600b54610f609060a435906001600160a01b0390811690339060643516614f1f565b610c51565b60405162461bcd60e51b815260206004820152603160248201527f4d61726b65744d616e616765723a20496e73756666696369656e74205045505560448201527020666f72206372656174696f6e2066656560781b6064820152608490fd5b634e487b7160e01b600052604160045260246000fd5b634e487b7160e01b85526021600452602485fd5b015190503880610aa5565b9250600185018652602086209086935b601f198416851061104d576001945083601f19811610611034575b505050811b016001830155610abd565b015160001960f88460031b161c19169055388080611024565b81810151835560209485019460019093019290910190611009565b6110969060018701885260208820601f850160051c8101916020861061109c575b601f0160051c0190614e55565b38610a8f565b9091508190611089565b634e487b7160e01b85526041600452602485fd5b634e487b7160e01b81526011600452602490fd5b634e487b7160e01b83526011600452602483fd5b60405162461bcd60e51b815260206004820152602860248201527f4d61726b65744d616e616765723a20496e73756666696369656e74206372656160448201526774696f6e2066656560c01b6064820152608490fd5b60405162461bcd60e51b815260206004820152603360248201527f4d61726b65744d616e616765723a20546f6b656e206e6f7420737570706f727460448201527232b2103337b91036bab63a3496b7b83a34b7b760691b6064820152608490fd5b60405162461bcd60e51b815260206004820152603560248201527f4d61726b65744d616e616765723a204d756c74692d6f7074696f6e206d61726b60448201527432ba39903932b8bab4b93290281928103a37b5b2b760591b6064820152608490fd5b6064356001600160a01b031615610974576064356001600160a01b03168252600760205260408220546112319060ff16614dd6565b610974565b60405162461bcd60e51b815260206004820152602560248201527f4d61726b65744d616e616765723a2042656c6f77206d696e696d756d2064757260448201526430ba34b7b760d91b6064820152608490fd5b60405162461bcd60e51b815260206004820152602660248201527f4d61726b65744d616e616765723a20496e76616c69642063726561746f72206f6044820152657574636f6d6560d01b6064820152608490fd5b5060443560c435111561092c565b60405162461bcd60e51b815260206004820152602660248201527f4d61726b65744d616e616765723a20496e76616c69642063726561746f722064604482015265195c1bdcda5d60d21b6064820152608490fd5b606460405162461bcd60e51b815260206004820152602060248201527f4d61726b65744d616e616765723a20496e76616c6964206d696e207374616b656044820152fd5b60405162461bcd60e51b815260206004820152602260248201527f4d61726b65744d616e616765723a20496e76616c6964206d6178206f7074696f6044820152616e7360f01b6064820152608490fd5b50600a604435111561090c565b606460405162461bcd60e51b815260206004820152602060248201527f4d61726b65744d616e616765723a20496e76616c6964204950465320686173686044820152fd5b50346103515760203660031901126103515760406103a391611444615b1b565b50600435815260016020522060ff600d6040519261146184614ba7565b80546001600160a01b03908116855261147c60018301614c9f565b60208601528360028301541615156040860152600382015460608601526004820154166080850152600581015460a0850152600681015460c0850152600781015460e085015260088101546101008501526009810154610120850152600a8101546101408501526114f783600b830154166101608601614e49565b600c81015461018085015201541615156101a0820152604051918291602083526020830190614ac7565b5034610351576040366003190112610351576004358015159081810361087c576024359161154d614d54565b60ff801960115416911617601155611563575080f35b801561156f5760125580f35b60405162461bcd60e51b815260206004820152602b60248201527f4d61726b65744d616e616765723a20496e76616c69642072657374726963746960448201526a37b710323ab930ba34b7b760a91b6064820152608490fd5b5034610351576115d736614b7d565b919081526005602052604081209081548310156103515760206115fa8484614a11565b905460405160039290921b1c6001600160a01b03168152f35b503461035157606036600319011261035157604435906001600160a01b03808316830361087c57600b5460405163dc4ce34960e01b8152600480359082015260248035908201526001600160a01b039094166044850152602091849116818060648101610836565b50346103515760403660031901126103515761169561490b565b61169d614d45565b906116a6614d54565b6001600160a01b03169081156116d9576116d6918352600a602052604083209060ff801983541691151516179055565b80f35b60405162461bcd60e51b815260206004820152602560248201527f4d61726b65744d616e616765723a20496e76616c69642077616c6c6574206164604482015264647265737360d81b6064820152608490fd5b503461035157806003193601126103515760095461174981615992565b906117576040519283614be0565b808252601f19928361176883615992565b0193602094368686013761177b83615992565b926117896040519485614be0565b8084528161179682615992565b01835b818110611892575050825b81811061181d5750506117c2604051946040865260408601906148b8565b94848603818601528351918287528187019082808560051b8a0101960194975b8489106117ef5787870388f35b909192939495848061180b838686600196030188528a51614a64565b980194019801979190949392946117e2565b8061182e6118899298949598614956565b90546001600160a01b039160039190821b1c821661184c848b6159aa565b5261185683614956565b9054911b1c1688526008845261186e60408920614c9f565b61187882886159aa565b5261188381876159aa565b50614e3a565b959291956117a4565b60608682018901528701611799565b50346103515780600319360112610351576020600954604051908152f35b50346103515780600319360112610351576016546118dc81615b84565b8291835b81811061192d5750506118f282615b84565b925b82811061190957604051806103a38682614a29565b8061191761192892846159aa565b5161192282876159aa565b52614e3a565b6118f4565b611936816149da565b90549060031b1c80865260206001815260ff600b6040892001541660058110156119ca576004149081611993575b50611979575b5061197490614e3a565b6118e0565b8461198c916119226119749497876159aa565b939061196a565b6017915082885252604086205462278d0081018091116119b65742101538611964565b634e487b7160e01b87526011600452602487fd5b634e487b7160e01b88526021600452602488fd5b50346103515760203660031901126103515760043580825260016020526040822080546001600160a01b03163303611ada5760ff600b820154166005811015611ac65790611a2e60099215614fca565b015461a8bf1981019081116110ce57421015611a77576040516116d691611a5482614bc4565b601182527010dc99585d1bdc8818d85b98d95b1b1959607a1b60208301526155c3565b60405162461bcd60e51b815260206004820152602160248201527f4d61726b65744d616e616765723a20546f6f206c61746520746f2063616e63656044820152601b60fa1b6064820152608490fd5b634e487b7160e01b84526021600452602484fd5b60405162461bcd60e51b815260206004820152602660248201527f4d61726b65744d616e616765723a204f6e6c792063726561746f722063616e2060448201526518d85b98d95b60d21b6064820152608490fd5b503461035157611b3d36614b7d565b919081526006602052604081209081548310156103515760206115fa8484614a11565b50346103515780600319360112610351576020601254604051908152f35b5034610351578060031936011261035157600e5460001990818101818111611bf457611ba990615b84565b9160015b828110611bc257604051806103a38682614a29565b818101818111611be0579080611922611bdb93876159aa565b611bad565b634e487b7160e01b86526011600452602486fd5b634e487b7160e01b84526011600452602484fd5b503461035157602036600319011261035157600435815260016020819052604090912080546001600160a01b03929083169190611c46908201614c9f565b92600282015460ff1691600381015491600482015416600582015460068301546007840154600885015490600986015492600a87015494600b88015460ff1696600c89015498600d015460ff1699604051809e819e82526101c08060208401528201611cb191614a64565b9c1515906040015260608d015260808c015260a08b015260c08a015260e08901526101008801526101208701526101408601526101608501611cf291614aa4565b61018084015215156101a08301520390f35b5034610351576020366003190112610351576004359081815260016020526040812091600b830192835460ff8116946005861015610fda57611d4c60016024959697146151c8565b600d8301928354611d6060ff821615615225565b600c5460408051633313865560e21b8152600481018a9052976001600160a01b039692899190829089165afa968715611ed05789908a98611e9c575b5015611e4b57889587600c6002950155600160ff1980941617905516179055611dc48461561e565b600d541680611dfe575b505060207f6dfc24f0f2fb42e49fb4fa3ffa8abb148cab908a1fb8335b3f128a08b2594af191604051908152a280f35b803b1561066e5781809160446040518094819362ff4a7360e81b83528960048401528860248401525af180156106635715611dce57611e3c90614b93565b611e47578238611dce565b8280fd5b60405162461bcd60e51b8152602060048201526024808201527f4d61726b65744d616e616765723a204e6f207265736f6c7574696f6e2072656160448201526318da195960e21b6064820152608490fd5b9050611ec191975060403d604011611ec9575b611eb98183614be0565b8101906152b7565b969038611d9c565b503d611eaf565b6040513d8b823e3d90fd5b50346103515760203660031901126103515760406020916004358152601783522054604051908152f35b5034610351578060031936011261035157604051601380548083529083526020808301937f66de8ffda797e3de9c05e8fc57b3bf0ec28a930d40b0d285d93c06501cf6a09092915b828210611f70576103a385611f6481890382614be0565b60405191829182614a29565b835486529485019460019384019390910190611f4d565b50346103515760203660031901126103515760406020916004358152600683522054604051908152f35b503461035157602036600319011261035157611fcb614d54565b600435600f5580f35b503461035157604036600319011261035157611fee61490b565b6001600160a01b031681526015602052604081208054602435929083101561035157602061201c8484614a11565b90546040519160031b1c8152f35b50346103515760203660031901126103515761204461490b565b61204c614d54565b60018060a01b03166001600160601b0360a01b600c541617600c5580f35b5034610351578060031936011261035157546040516001600160a01b039091168152602090f35b5034610351578060031936011261035157602060ff601154166040519015158152f35b5034610351576020366003190112610351576004359060165482101561035157602061201c836149da565b50346103515760208060031936011261066e576004358252600681526040822091604051809384918482549182815201918452848420935b858282106121425750505061212e92500383614be0565b6103a36040519282849384528301906148b8565b85546001600160a01b0316845260019586019588955093019201612117565b503461035157604036600319011261035157604061217d6148f5565b9160043581526002602052209060018060a01b0316600052602052602060ff604060002054166040519015158152f35b50346103515760203660031901126103515760043560185481101561066e5760209060186000527fb13d2d76d1f4b7be834882e410b3e3a8afaf69f83600ae24db354391d2378d2e0154604051908152f35b5034610351578060031936011261035157600d546040516001600160a01b039091168152602090f35b5034610351576020366003190112610351576004358082526001602052604082209060ff600b830154166005811015611ac657600161226791146151c8565b600a82015442106122945761228660ff600d6116d69401541615615225565b61228e615271565b906155c3565b60405162461bcd60e51b815260206004820152602a60248201527f4d61726b65744d616e616765723a205265736f6c7574696f6e20706572696f64604482015269081b9bdd08195b99195960b21b6064820152608490fd5b50346103515760203660031901126103515761230661490b565b61230e614d54565b6001600160a01b0390811690811561242657818352600760205261233860ff604085205416614dd6565b81835260076020526040832060ff198154169055600860205261235d60408420615949565b825b60098054908183101561241e5783918561237885614956565b949054600395861b1c16146123985750505061239390614e3a565b61235f565b9194509291600019918281019081116119b657906123c9846123bc6123e894614956565b905490891b1c1691614956565b90919082549060031b9160018060a01b03809116831b921b1916179055565b8254801561240a5701926123fb84614956565b81939154921b1b191690555580f35b634e487b7160e01b86526031600452602486fd5b505050505080f35b60405162461bcd60e51b815260206004820152602960248201527f4d61726b65744d616e616765723a2043616e6e6f742072656d6f7665206e617460448201526834bb32903a37b5b2b760b91b6064820152608490fd5b50346103515760203660031901126103515761249761490b565b61249f614d54565b60018060a01b03166001600160601b0360a01b600d541617600d5580f35b5034610351576040366003190112610351576124d761490b565b602467ffffffffffffffff8135818111612773576124f9903690600401614c1e565b612501614d54565b6001600160a01b038416918215612722578151156126d2578286526020926007845260ff60408820541661267f5786526007835260408620926001938460ff19825416179055600881526040872092805192831161266c579082916125668554614c65565b601f811161263e575b5081601f84116001146125db575088926125d0575b5050600019600383901b1c191690831b1790555b60095491600160401b8310156125bc5750816123c9916116d6949301600955614956565b634e487b7160e01b60009081526041600452fd5b015190503880612584565b9190869450601f198416868b52838b20938b905b828210612625575050841161260c575b505050811b019055612598565b015160001960f88460031b161c191690553880806125ff565b84840151865589979095019493840193908101906125ef565b61266690868b52838b20601f860160051c81019185871061109c57601f0160051c0190614e55565b3861256f565b634e487b7160e01b885260416004528588fd5b60405162461bcd60e51b8152600481018590526026818701527f4d61726b65744d616e616765723a20546f6b656e20616c7265616479207375706044820152651c1bdc9d195960d21b6064820152608490fd5b60405162461bcd60e51b8152602060048201526023818601527f4d61726b65744d616e616765723a20496e76616c696420746f6b656e2073796d604482015262189bdb60ea1b6064820152608490fd5b60405162461bcd60e51b8152602060048201528085018590527f4d61726b65744d616e616765723a20496e76616c696420746f6b656e206164646044820152637265737360e01b6064820152608490fd5b8480fd5b5034610351578060031936011261035157612790614d54565b600080546001600160a01b0319811682556001600160a01b03167f8be0079c531659141344cd1fd0a4f28419497f9722a3daafe3b4186f6b6457e08280a380f35b503461035157606036600319011261035157600435602435906044358184526020600181526040852060ff600b820154166005811015612a57576128159015614fca565b60ff60115416612a0e575b84151580612a00575b612832906150a8565b60048101805490916001600160a01b039182169081156129a057858994939261286460056128719401548310156150f4565b83600b5416903390614f1f565b858352600284526040832033600052845260ff6040600020541615612973575b85835260028452604083203360005284526040600020600160ff1982541617905585835260048452604083203360005284528660406000205580600b541691541690803b15611e4757604051633805180760e21b8152600481018790523360248201526001600160a01b0392909216604483015260648201859052608482018790528290829060a490829084905af180156106635761295f575b50506040519384528301527f1b8a9031cb9351278d70a994f81536e9e08c91162e64f92b2fe4766fb7a891b460403393a380f35b61296890614b93565b61277357843861292b565b85835260058452612987336040852061514b565b3383526015845261299b8660408520614e6c565b612891565b60405162461bcd60e51b815260048101869052603260248201527f4d61726b65744d616e616765723a2054686973206d61726b6574207573657320604482015271141154154b081d5cd9481c1b1858d950995d60721b6064820152608490fd5b506003810154851115612829565b600981015460125490603c820291808304603c1490151715612a4357612a3e91612a3791615015565b4210615022565b612820565b634e487b7160e01b88526011600452602488fd5b634e487b7160e01b87526021600452602487fd5b5034610351578060031936011261035157604051601880548083529083526020808301937fb13d2d76d1f4b7be834882e410b3e3a8afaf69f83600ae24db354391d2378d2e92915b828210612aca576103a385611f6481890382614be0565b835486529485019460019384019390910190612ab3565b50346103515760203660031901126103515760209060ff906040906001600160a01b03612b0c61490b565b168152600784522054166040519015158152f35b50346103515760208060031936011261066e5760043580835260018252604083209160ff600b840154166005811015610fda576002612b5f911461556c565b600c830154801561318057828552600282526040852033600052825260ff604060002054161561313b57828552600482526040852033600052825280604060002054036130f857600b546040516307c7a72d60e01b8152600481018590523360248201526001600160a01b0391821695919084816044818a5afa908115612e485788916130bf575b5061307a5760048281015460405163553b7cbb60e01b815291820187905233602483015282166001600160a01b0381166044830152939085816064818b5afa8015611ed05787918a91613049575b5060405163dc4ce34960e01b8082526004820193909352602481018490526001600160a01b03871660448201529287846064818d5afa93841561303e578b9461300f575b5060038601548b9390916001858b8b8f8f5b88861115612f6357505050509350505050508215600014612e53575050604051633d1e7ba160e11b8152600481018790526001600160a01b038516602482015292905084836044818a5afa928315612e48578893612e19575b506101f492838102938185041490151715612a435754163314600014612da25790612710869204945b803b15611e4757604051632f0041ed60e11b8152600481018690523360248201526001600160a01b039290921660448301526064820186905282908290608490829084905af1801561066357612d8e575b50507f5380cf6fe903b40c6d5a9e0dfbca2f3a423f0a21520b4d5947ed5169bdba946d906040519384523393a380f35b612d9790614b93565b61065f578338612d5e565b60a4836040519062461bcd60e51b82526004820152604460248201527f4d61726b65744d616e616765723a204e6f206f6e6520626574206f6e2077696e60448201527f6e696e67206f7074696f6e202d206f6e6c792063726561746f722063616e20636064820152636c61696d60e01b6084820152fd5b9092508481813d8311612e41575b612e318183614be0565b8101031261087c57519138612ce4565b503d612e27565b6040513d8a823e3d90fd5b6123289893919295949892838102938185041490151715612f4f5761271080930490818102918183041481151715612f39578a96612e92920490614e2d565b9754163314612ea2575b50612d0d565b604051633d1e7ba160e11b8152600481018790526001600160a01b038416602482015291969293509084816044818a5afa908115612e48578891612f0c575b506101f490818102918183041490151715612a435791612f05918894930490614e2d565b9438612e9c565b90508481813d8311612f32575b612f238183614be0565b8101031261087c575138612ee1565b503d612f19565b634e487b7160e01b600052601160045260246000fd5b634e487b7160e01b8a52601160045260248afd5b868603612f83575b5050505050612f7990614e3a565b8d8b8b8f8f612c8b565b6040518881526004810191909152602481018690526001600160a01b03929092166044830152939893909190829060649082905afa9182156108895791612fe0575b50612fd390612f7992614e2d565b9590508d8b8b8f8f612f6b565b90508b81813d8311613008575b612ff78183614be0565b8101031261087c5751612f79612fc5565b503d612fed565b9093508781813d8311613037575b6130278183614be0565b8101031261087c57519238612c79565b503d61301d565b6040513d8d823e3d90fd5b809250878092503d8311613073575b6130628183614be0565b8101031261087c5786905138612c35565b503d613058565b60405162461bcd60e51b815260048101859052601e60248201527f4d61726b65744d616e616765723a20416c726561647920636c61696d656400006044820152606490fd5b90508481813d83116130f1575b6130d68183614be0565b810103126130ed576130e7906152aa565b38612be7565b8780fd5b503d6130cc565b6064826040519062461bcd60e51b825280600483015260248201527f4d61726b65744d616e616765723a204e6f7420612077696e6e696e67206265746044820152fd5b60405162461bcd60e51b815260048101839052601c60248201527f4d61726b65744d616e616765723a204e6f2062657420706c61636564000000006044820152606490fd5b6064826040519062461bcd60e51b825280600483015260248201527f4d61726b65744d616e616765723a204e6f2077696e6e696e67206f7074696f6e6044820152fd5b5034610351578060031936011261035157604051601680548083529083526020808301937fd833147d7dc355ba459fc788f669e58cfaf9dc25ddcd0702e87d69c7b512428992915b828210613222576103a385611f6481890382614be0565b83548652948501946001938401939091019061320b565b5034610351578060031936011261035157600b546040516001600160a01b039091168152602090f35b5034610351576116d661327436614b7d565b906152d4565b50346103515780600319360112610351576020601354604051908152f35b50346103515760208060031936011261066e5760043580835260018252604083209160ff600b840154166005811015610fda5760030361361257818452600281526040842033600052815260ff6040600020541680156135f2575b156135a4578392828552600282526040852033600052825260ff604060002054166134f7575b828552600382526040852033600052825260ff6040600020541661343b575b83156133eb57600b5460049091015485916001600160a01b039182169116803b15611e475760405163164fcd7d60e21b8152600481018690523360248201526001600160a01b039290921660448301526064820186905282908290608490829084905af18015610663576133d7575b50507ff3f402280ef0a7905e124aa621b65eaeb2725c343e8b36d398ed78c29daf285c906040519384523393a380f35b6133e090614b93565b61065f5783386133a7565b60405162461bcd60e51b815260048101839052602260248201527f4d61726b65744d616e616765723a204e6f20726566756e6420617661696c61626044820152616c6560f01b6064820152608490fd5b600b5460048281015460405163256ba74160e01b81529182018690523360248301526001600160a01b039081166044830152929590929091849184916064918391165afa9081156134ec5786916134bb575b6134979250614e2d565b928285526003825260408520336000528252604060002060ff198154169055613338565b90508282813d83116134e5575b6134d28183614be0565b8101031261087c5761349791519061348d565b503d6134c8565b6040513d88823e3d90fd5b600b5460048281015460405163553b7cbb60e01b81529182018690523360248301526001600160a01b03908116604483015292955091839183916064918391165afa90811561359957859161356c575b50928285526002825260408520336000528252604060002060ff198154169055613319565b90508181813d8311613592575b6135838183614be0565b8101031261087c575138613547565b503d613579565b6040513d87823e3d90fd5b6084906040519062461bcd60e51b82526004820152602160248201527f4d61726b65744d616e616765723a204e6f207374616b6520746f20726566756e6044820152601960fa1b6064820152fd5b50818452600381526040842033600052815260ff604060002054166132f3565b6084906040519062461bcd60e51b82526004820152602360248201527f4d61726b65744d616e616765723a204d61726b6574206e6f742063616e63656c6044820152621b195960ea1b6064820152fd5b50346103515761083690602061367736614921565b600b5460405163553b7cbb60e01b815260048101949094526001600160a01b03928316602485015290821660448401529194859290911690829081906064820190565b50346103515760203660031901126103515760406020916004358152600583522054604051908152f35b50346103515760403660031901126103515760043560243567ffffffffffffffff8111611e4757613719903690600401614c1e565b613721614d54565b61372e600e5483106159be565b8183526020906001825261374f60018060a01b036040862054161515615a09565b8284526001825260ff600b604086200154166005811015610fda576004146138185782845260018252600b6040852001600460ff198254161790558284526017825242604085205560165491600160401b831015610fc4576137dc84610bb78560017f4c4561c5b0048424071c1115e9f1e325486e21c21333d968f21097b7b72d12ad97016016556149da565b8385526014815260ff60408620541661380a575b613804604051928284938452830190614a64565b0390a280f35b61381384615a61565b6137f0565b60405162461bcd60e51b815260048101839052601e60248201527f4d61726b65744d616e616765723a20416c72656164792064656c6574656400006044820152606490fd5b5034610351578060031936011261035157600c546040516001600160a01b039091168152602090f35b5034610351576040366003190112610351576108369060206138a66148f5565b600b54604051634f44289d60e01b815260048035908201526001600160a01b03928316602482015294859290911690829081906044820190565b506138ea36614b7d565b908083526020600181526040842060ff600b8201541660058110156107c8576139139015614fca565b60ff60115416613be3575b83151580613bd5575b613930906150a8565b6004810180546001600160a01b0392908316613b6a5760056139569101543410156150f4565b858080803486600b54165af161396a614e8f565b5015613b0e57908591848352600284526040832033600052845260ff6040600020541615613ae1575b84835260028452604083203360005284526040600020600160ff198254161790558483526004845260408320336000528452856040600020558180600b541691541690803b1561065f57604051633805180760e21b8152600481018790523360248201526001600160a01b03929092166044830152346064830152608482018790528390829060a490829084905af1908115610686578391613acd575b5050600d541680613a72575b505060405192835234908301527f1b8a9031cb9351278d70a994f81536e9e08c91162e64f92b2fe4766fb7a891b460403393a380f35b803b1561066e57604051635374b47b60e01b815260048101859052336024820152604481018690523460648201529082908290608490829084905af180156106635715613a3c57613ac290614b93565b61065f578338613a3c565b613ad690614b93565b61066e578138613a30565b84835260058452613af5336040852061514b565b33835260158452613b098560408520614e6c565b613993565b60405162461bcd60e51b815260048101849052602e60248201527f4d61726b65744d616e616765723a20455448207472616e7366657220746f205460448201526d1c99585cdd5c9e4819985a5b195960921b6064820152608490fd5b60405162461bcd60e51b815260048101859052603d60248201527f4d61726b65744d616e616765723a2054686973206d61726b657420757365732060448201527f746f6b656e732c2075736520706c61636542657457697468546f6b656e0000006064820152608490fd5b506003810154841115613927565b600981015460125490603c820291808304603c14901517156119b657613c0c91612a3791615015565b61391e565b5034610351576040366003190112610351576040613c2d6148f5565b9160043581526004602052209060018060a01b03166000526020526020604060002054604051908152f35b503461035157602036600319011261035157600435613c75614d54565b8015613c815760105580f35b60405162461bcd60e51b815260206004820152602760248201527f4d61726b65744d616e616765723a20496e76616c6964206d696e696d756d20646044820152663ab930ba34b7b760c91b6064820152608490fd5b50346103515780600319360112610351576020600e54604051908152f35b50346103515760208060031936011261066e57613e2560043591613d16615b1b565b50828452600190818152604085209360405195613d3287614ba7565b85546001600160a01b039081168852613d4c858801614c9f565b8489015260ff6002880154161515604089015260038701546060890152806004880154169160808901928352600588015460a08a0152600688015460c08a0152600788015460e08a015260ff600d60088a0154996101009a8b8d015260098101546101208d0152600a8101546101408d0152613dd38c61016085600b850154169101614e49565b600c8101546101808d015201541615156101a08a0152600b548351604051633d1e7ba160e11b8152600481018790529084166001600160a01b0316602482015297908316908690899081906044820190565b0381845afa978815610663578298613fea575b508351604051634f44289d60e01b8152600481018790529084166001600160a01b0316602482015291908690839081806044810103915afa918215613fdd578192613fae575b5084815260058652604081205492600687526040822054946005885260408320968960405180998a918c825491828152019188528c8089209489915b838310613f955750505050613ed192500389614be0565b83526006885260408320604051809a8a835492838152019286528a862091865b818110613f8057505050506040613f649794613f729a97948c9a9794613f206103a39f9e613f2e96038d614be0565b511681526008885220614c9f565b98613f446040519d8d8f9e8f9081520190614ac7565b958c015260408b015260608a0152608089015287820360a08901526148b8565b9085820360c08701526148b8565b9083820360e0850152614a64565b835487168552938c0193928201928201613ef1565b86548a168552958101958e955090930192018e8e613eba565b9091508581813d8311613fd6575b613fc68183614be0565b8101031261087c57519038613e7e565b503d613fbc565b50604051903d90823e3d90fd5b919097508582813d8311614014575b6140038183614be0565b8101031261087c5790519685613e38565b503d613ff9565b50346103515760208060031936011261066e576004358083526001825260408320916003815260408420338552815261405a60ff60408620541661516e565b60ff600b840154166005811015610fda57806142635750600983015461a8bf19810190811161424f574210156141e5575b600b5460049384015460405163256ba74160e01b81529485018490523360248601526001600160a01b039081166044860181905291169085908386606481865afa9586156106635782966141b6575b506140e686151561516e565b823b1561066e576040516317be0b2f60e11b8152600481018690523360248201526001600160a01b0391909116604482015260648101869052918290608490829084905af1801561359957614183575b507ffb349e367fa58e764f8867e52d91c7e0b9e6904700091667054ce1fdb56c496d908285526003815260408520336000528152604060002060ff1981541690556040519384523393a380f35b936141af7ffb349e367fa58e764f8867e52d91c7e0b9e6904700091667054ce1fdb56c496d9295614b93565b9390614136565b9095508381813d83116141de575b6141ce8183614be0565b8101031261066e575194386140da565b503d6141c4565b6084906040519062461bcd60e51b82526004820152603c60248201527f4d61726b65744d616e616765723a2043616e6e6f74207769746864726177207760448201527f697468696e20313220686f757273206f66206d61726b657420656e64000000006064820152fd5b634e487b7160e01b85526011600452602485fd5b600481149081156142d7575b5061408b576084906040519062461bcd60e51b82526004820152603660248201527f4d61726b65744d616e616765723a2043616e6e6f7420776974686472617720696044820152756e2063757272656e74206d61726b657420737461746560501b6064820152fd5b60039150143861426f565b5034610351576020366003190112610351576004359060135482101561035157602061201c836149a3565b50346103515760208060031936011261066e576001600160a01b0361433061490b565b1682526015815260408220916040518092808554928381520194835280832092905b828210614369576103a385611f6481890382614be0565b835486529485019460019384019390910190614352565b50346103515780600319360112610351576020600f54604051908152f35b503461035157602036600319011261035157600435906009548210156103515760206115fa83614956565b50346103515760203660031901126103515760209060ff906040906001600160a01b036143f461490b565b168152600a84522054166040519015158152f35b50346103515760403660031901126103515760ff60406020926144296148f5565b6004358252600385528282206001600160a01b03909116825284522054604051911615158152f35b5034610351576144a8602061446536614921565b600b5460405163256ba74160e01b815260048101949094526001600160a01b03928316602485015290821660448401529193849290911690829081906064820190565b03915afa9081156106635782916144c5575b602082604051908152f35b90506020813d82116144f2575b816144df60209383614be0565b8101031261066e576020915051386144ba565b3d91506144d2565b50346103515780600319360112610351576020601054604051908152f35b503461035157602036600319011261035157600435808252600160205260408220600b81019081549060ff821660058110156107c8579061455b60099215614fca565b015480421061459b577e0b6feae4bec70344a7d0e99f4c0237adaaeee2fbb258266be400bd8612a33292600160209360ff1916179055604051908152a280f35b60405162461bcd60e51b815260206004820152602760248201527f4d61726b65744d616e616765723a2042657474696e6720706572696f64206e6f6044820152661d08195b99195960ca1b6064820152608490fd5b50346103515760203660031901126103515760ff60406020926004358152601484522054166040519015158152f35b50346103515760208060031936011261066e576004358252600581526040822091604051809384918482549182815201918452848420935b8582821061466e5750505061212e92500383614be0565b85546001600160a01b0316845260019586019588955093019201614657565b50346103515760208060031936011261066e57600435906146ac614d54565b6146b9600e5483106159be565b818352600180825260408420546146da906001600160a01b03161515615a09565b82845280825260ff600b604086200154166005811015610fda576002614700911461556c565b828452808252600a60408520015462278d00810180911161424f5742106148655782845280825283600d6040822082815561473c848201615949565b82600282015582600382015582600482015582600582015582600682015582600782015582600882015582600982015582600a82015582600b82015582600c82015501558284526014825260ff604085205416614857575b60185490600160401b8210156110a657810180601855811015614843577f4c4561c5b0048424071c1115e9f1e325486e21c21333d968f21097b7b72d12ad9183608092601887527fb13d2d76d1f4b7be834882e410b3e3a8afaf69f83600ae24db354391d2378d2e01556026604051918083528201527f5065726d616e656e746c792072656d6f76656420616674657220636c61696d206040820152651c195c9a5bd960d21b6060820152a280f35b634e487b7160e01b84526032600452602484fd5b61486083615a61565b614794565b60405162461bcd60e51b815260048101839052602560248201527f4d61726b65744d616e616765723a20436c61696d20706572696f64206e6f7420604482015264195b99195960da1b6064820152608490fd5b90815180825260208080930193019160005b8281106148d8575050505090565b83516001600160a01b0316855293810193928101926001016148ca565b602435906001600160a01b038216820361087c57565b600435906001600160a01b038216820361087c57565b606090600319011261087c57600435906001600160a01b0390602435828116810361087c5791604435908116810361087c5790565b60095481101561498d5760096000527f6e1540171b6c0c960b71a7020d9f60077f6af931a8bbf590da0223dacf75c7af0190600090565b634e487b7160e01b600052603260045260246000fd5b60135481101561498d5760136000527f66de8ffda797e3de9c05e8fc57b3bf0ec28a930d40b0d285d93c06501cf6a0900190600090565b60165481101561498d5760166000527fd833147d7dc355ba459fc788f669e58cfaf9dc25ddcd0702e87d69c7b51242890190600090565b805482101561498d5760005260206000200190600090565b6020908160408183019282815285518094520193019160005b828110614a50575050505090565b835185529381019392810192600101614a42565b919082519283825260005b848110614a90575050826000602080949584010152601f8019910116010190565b602081830181015184830182015201614a6f565b906005821015614ab15752565b634e487b7160e01b600052602160045260246000fd5b9060018060a01b0391828151168252614aef60208201516101c0806020860152840190614a64565b9260408201511515604084015260608201516060840152608082015116608083015260a081015160a083015260c081015160c083015260e081015160e0830152610100808201519083015261012080820151908301526101408082015190830152614b636101608083015190840190614aa4565b61018080820151908301526101a080910151151591015290565b604090600319011261087c576004359060243590565b67ffffffffffffffff8111610fc457604052565b6101c0810190811067ffffffffffffffff821117610fc457604052565b6040810190811067ffffffffffffffff821117610fc457604052565b90601f8019910116810190811067ffffffffffffffff821117610fc457604052565b67ffffffffffffffff8111610fc457601f01601f191660200190565b81601f8201121561087c57803590614c3582614c02565b92614c436040519485614be0565b8284526020838301011161087c57816000926020809301838601378301015290565b90600182811c92168015614c95575b6020831014614c7f57565b634e487b7160e01b600052602260045260246000fd5b91607f1691614c74565b9060405191826000825492614cb384614c65565b908184526001948581169081600014614d225750600114614cdf575b5050614cdd92500383614be0565b565b9093915060005260209081600020936000915b818310614d0a575050614cdd93508201013880614ccf565b85548884018501529485019487945091830191614cf2565b915050614cdd94506020925060ff191682840152151560051b8201013880614ccf565b60243590811515820361087c57565b6000546001600160a01b03163303614d6857565b60405163118cdaa760e01b8152336004820152602490fd5b15614d8757565b60405162461bcd60e51b815260206004820152602160248201527f4d61726b65744d616e616765723a2057616c6c657420626c61636b6c697374656044820152601960fa1b6064820152608490fd5b15614ddd57565b60405162461bcd60e51b815260206004820152602260248201527f4d61726b65744d616e616765723a20546f6b656e206e6f7420737570706f7274604482015261195960f21b6064820152608490fd5b91908201809211612f3957565b6000198114612f395760010190565b6005821015614ab15752565b818110614e60575050565b60008155600101614e55565b90815491600160401b831015610fc45782610bb7916001614cdd95018155614a11565b3d15614eba573d90614ea082614c02565b91614eae6040519384614be0565b82523d6000602084013e565b606090565b15614ec657565b60405162461bcd60e51b815260206004820152602b60248201527f4d61726b65744d616e616765723a20466565207472616e7366657220746f206f60448201526a1ddb995c8819985a5b195960aa1b6064820152608490fd5b6040516323b872dd60e01b602082019081526001600160a01b039384166024830152938316604482015260648082019590955293845292909160a082019067ffffffffffffffff821183831017610fc457602092600092604052519082865af115614fbe576000513d614fb557508082163b155b614f9b575050565b604051635274afe760e01b81529116600482015260249150fd5b60011415614f93565b6040513d6000823e3d90fd5b15614fd157565b606460405162461bcd60e51b815260206004820152602060248201527f4d61726b65744d616e616765723a204d61726b6574206e6f74206163746976656044820152fd5b91908203918211612f3957565b1561502957565b60405162461bcd60e51b815260206004820152604b60248201527f4d61726b65744d616e616765723a2042657474696e6720706572696f6420656e60448201527f646564202d206e6f206265747320616c6c6f77656420696e207265737472696360648201526a1d1a5bdb881c195c9a5bd960aa1b608482015260a490fd5b156150af57565b60405162461bcd60e51b815260206004820152601d60248201527f4d61726b65744d616e616765723a20496e76616c6964206f7074696f6e0000006044820152606490fd5b156150fb57565b60405162461bcd60e51b815260206004820152602260248201527f4d61726b65744d616e616765723a2042656c6f77206d696e696d756d207374616044820152616b6560f01b6064820152608490fd5b90815491600160401b831015610fc457826123c9916001614cdd95018155614a11565b1561517557565b60405162461bcd60e51b815260206004820152602560248201527f4d61726b65744d616e616765723a204e6f20737570706f727420746f20776974604482015264686472617760d81b6064820152608490fd5b156151cf57565b60405162461bcd60e51b815260206004820152602860248201527f4d61726b65744d616e616765723a204d61726b6574206e6f7420696e20656e64604482015267656420737461746560c01b6064820152608490fd5b1561522c57565b60405162461bcd60e51b815260206004820152601f60248201527f4d61726b65744d616e616765723a20416c7265616479207265736f6c766564006044820152606490fd5b6040519061527e82614bc4565b601982527f5265736f6c7574696f6e20706572696f642065787069726564000000000000006020830152565b5190811515820361087c57565b919082604091031261087c5760206152ce836152aa565b92015190565b9060008281526001602052604090818120600b810160ff8154166005811015611ac657600161530391146151c8565b8415158061555e575b1561550c57600d820161532360ff82541615615225565b600a8301544210156154fa57600c548551633313865560e21b8152600481018990526001600160a01b03949187908290602490829089165afa80156154f0578890879288916154cd575b50826154c3575b50501561545957600c01869055805460ff1990811660011790915581541660021790556153a08561561e565b600d5416806153d8575b50507f6dfc24f0f2fb42e49fb4fa3ffa8abb148cab908a1fb8335b3f128a08b2594af19160209151908152a2565b803b1561066e57818091604485518095819362ff4a7360e81b83528a60048401528960248401525af190811561544e5750917f6dfc24f0f2fb42e49fb4fa3ffa8abb148cab908a1fb8335b3f128a08b2594af1939160209361543f575b50918193506153aa565b61544890614b93565b38615435565b8351903d90823e3d90fd5b855162461bcd60e51b815260206004820152603a60248201527f4d61726b65744d616e616765723a20496e73756666696369656e74207665726960448201527f6669657220766f74657320666f722074686973206f7074696f6e0000000000006064820152608490fd5b1490508738615374565b90506154e7919250883d8a11611ec957611eb98183614be0565b9190913861536d565b87513d88823e3d90fd5b505050505050614cdd9061228e615271565b835162461bcd60e51b815260206004820152602560248201527f4d61726b65744d616e616765723a20496e76616c69642077696e6e696e67206f604482015264383a34b7b760d91b6064820152608490fd5b50600382015485111561530c565b1561557357565b60405162461bcd60e51b815260206004820152602260248201527f4d61726b65744d616e616765723a204d61726b6574206e6f74207265736f6c76604482015261195960f21b6064820152608490fd5b906156197f4c4561c5b0048424071c1115e9f1e325486e21c21333d968f21097b7b72d12ad91836000526001602052600b604060002001600360ff19825416179055604051918291602083526020830190614a64565b0390a2565b90600091808352602090600182526040918285209185916001926003850154600c860154945b8181111561588f575050600b5460049586018054885163dc4ce34960e01b815280890187905260248101979097526001600160a01b03908116604488018190529196909392841692908581606481875afa908115615885578c91615854575b506157e4575050600b5494548751633d1e7ba160e11b81528781019586529083166001600160a01b038116602087015292909516949193839150829081906040010381875afa9182156157da5788926157ac575b505061251c908181029181830414901517156157995761271090049283615722575b50505050509050565b823b1561579557845163f0824f3360e01b81526001600160a01b039092169082019081526020810193909352939491829185918290849082906040015b03925af191821561578b57505061577c575b808080808594615719565b61578590614b93565b38615771565b51903d90823e3d90fd5b8680fd5b634e487b7160e01b875260118452602487fd5b90809250813d83116157d3575b6157c38183614be0565b81010312615795575138806156f7565b503d6157b9565b86513d8a823e3d90fd5b935093509350506101f49081810291818304149015171561579957612710900492836158135750505050509050565b823b156157955784516348fef59560e01b81526001600160a01b0390921690820190815260208101939093529394918291859182908490829060400161575f565b90508581813d831161587e575b61586b8183614be0565b8101031261587a5751386156a3565b8b80fd5b503d615861565b8a513d8e823e3d90fd5b8581036158a5575b6158a090614e3a565b615644565b600b546004888101548a5163dc4ce34960e01b8152918201889052602482018490526001600160a01b0390811660448301529294929091869183916064918391165afa90811561593f578b9161590c575b50615904906158a092614e2d565b929050615897565b90508481813d8311615938575b6159238183614be0565b8101031261593457516158a06158f6565b8a80fd5b503d615919565b89513d8d823e3d90fd5b6159538154614c65565b908161595d575050565b81601f6000931160011461596f575055565b90808391825261598e601f60208420940160051c840160018501614e55565b5555565b67ffffffffffffffff8111610fc45760051b60200190565b805182101561498d5760209160051b010190565b156159c557565b606460405162461bcd60e51b815260206004820152602060248201527f4d61726b65744d616e616765723a20496e76616c6964206d61726b65742049446044820152fd5b15615a1057565b60405162461bcd60e51b8152602060048201526024808201527f4d61726b65744d616e616765723a204d61726b657420646f6573206e6f7420656044820152631e1a5cdd60e21b6064820152608490fd5b60005b60139081549182821015615b15578392615a7d836149a3565b949054600395861b1c14615a9c575050615a979150614e3a565b615a64565b90916000199180830191908211612f3957610bb7615abc615ac8936149a3565b905490871b1c916149a3565b81548015615aff57810192615adc846149a3565b81939154921b1b19169055556000526014602052604060002060ff198154169055565b634e487b7160e01b600052603160045260246000fd5b50505050565b60405190615b2882614ba7565b816101a0600091828152606060208201528260408201528260608201528260808201528260a08201528260c08201528260e082015282610100820152826101208201528261014082015282610160820152826101808201520152565b90615b8e82615992565b615b9b6040519182614be0565b8281528092615bac601f1991615992565b019060203691013756fea2646970667358221220a778bb642aab9cf290bb8c83fd6eeb48f3f44dfa9affac7031bbac7216987b0f64736f6c63430008140033","opcodes":"PUSH1 0x80 CALLVALUE PUSH3 0x234 JUMPI PUSH1 0x1F PUSH3 0x5E51 CODESIZE DUP2 SWAP1 SUB SWAP2 DUP3 ADD PUSH1 0x1F NOT AND DUP4 ADD SWAP2 SWAP1 PUSH1 0x1 PUSH1 0x1 PUSH1 0x40 SHL SUB DUP4 GT DUP5 DUP5 LT OR PUSH3 0x239 JUMPI DUP2 PUSH1 0xA0 SWAP3 DUP6 SWAP3 PUSH1 0x40 SWAP6 DUP7 MSTORE DUP4 CODECOPY DUP2 ADD SUB SLT PUSH3 0x234 JUMPI PUSH3 0x50 DUP3 PUSH3 0x24F JUMP JUMPDEST PUSH1 0x20 DUP4 DUP2 ADD MLOAD SWAP2 SWAP3 SWAP2 PUSH1 0x1 PUSH1 0x1 PUSH1 0xA0 SHL SUB SWAP1 DUP2 DUP2 AND SWAP1 DUP2 SWAP1 SUB PUSH3 0x234 JUMPI PUSH3 0x7B DUP5 DUP8 ADD PUSH3 0x24F JUMP JUMPDEST SWAP4 DUP3 PUSH1 0x80 PUSH3 0x8D PUSH1 0x60 DUP11 ADD PUSH3 0x24F JUMP JUMPDEST SWAP9 ADD MLOAD SWAP7 AND SWAP6 DUP7 ISZERO PUSH3 0x21C JUMPI PUSH1 0x0 DUP1 SLOAD PUSH1 0x1 PUSH1 0x1 PUSH1 0xA0 SHL SUB NOT DUP1 DUP3 AND DUP11 OR DUP4 SSTORE DUP5 MLOAD SWAP11 SWAP1 SWAP10 SWAP3 SWAP7 SWAP3 SWAP1 SWAP2 DUP4 AND PUSH32 0x8BE0079C531659141344CD1FD0A4F28419497F9722A3DAAFE3B4186F6B6457E0 DUP9 DUP1 LOG3 DUP2 PUSH1 0x1 SWAP9 DUP10 PUSH1 0xE SSTORE PUSH1 0x5 PUSH1 0x10 SSTORE PUSH1 0xFF NOT SWAP7 DUP8 PUSH1 0x11 SLOAD AND PUSH1 0x11 SSTORE PUSH1 0x5 PUSH1 0x12 SSTORE DUP12 PUSH1 0xB SLOAD AND OR PUSH1 0xB SSTORE AND DUP10 PUSH1 0xC SLOAD AND OR PUSH1 0xC SSTORE AND DUP8 PUSH1 0xD SLOAD AND OR PUSH1 0xD SSTORE PUSH1 0xF SSTORE DUP3 DUP1 MSTORE PUSH1 0x8 DUP5 MSTORE DUP1 DUP4 KECCAK256 DUP1 SLOAD DUP7 DUP2 DUP2 SHR SWAP2 AND DUP1 ISZERO PUSH3 0x211 JUMPI JUMPDEST DUP7 DUP3 LT EQ PUSH3 0x1FD JUMPI SWAP1 DUP2 PUSH1 0x1F DUP9 SWAP5 SWAP4 GT PUSH3 0x1D1 JUMPI JUMPDEST POP PUSH1 0x8 PUSH4 0x50455055 PUSH1 0xE0 SHL ADD SWAP1 SSTORE DUP4 DUP1 MSTORE PUSH1 0x7 DUP6 MSTORE DUP4 KECCAK256 DUP1 SLOAD SWAP1 SWAP3 AND OR SWAP1 SSTORE PUSH1 0x9 SLOAD SWAP3 PUSH9 0x10000000000000000 DUP5 LT ISZERO PUSH3 0x1BD JUMPI DUP4 ADD DUP1 PUSH1 0x9 SSTORE DUP4 LT ISZERO PUSH3 0x1A9 JUMPI PUSH1 0x9 DUP2 MSTORE KECCAK256 ADD SWAP1 DUP2 SLOAD AND SWAP1 SSTORE PUSH2 0x5BEC SWAP1 DUP2 PUSH3 0x265 DUP3 CODECOPY RETURN JUMPDEST PUSH4 0x4E487B71 PUSH1 0xE0 SHL DUP2 MSTORE PUSH1 0x32 PUSH1 0x4 MSTORE PUSH1 0x24 SWAP1 REVERT JUMPDEST PUSH4 0x4E487B71 PUSH1 0xE0 SHL DUP3 MSTORE PUSH1 0x41 PUSH1 0x4 MSTORE PUSH1 0x24 DUP3 REVERT JUMPDEST DUP2 DUP7 MSTORE PUSH1 0x1F DUP8 DUP8 KECCAK256 SWAP2 ADD PUSH1 0x5 SHR DUP2 ADD SWAP1 JUMPDEST DUP2 DUP2 LT PUSH3 0x1F1 JUMPI POP PUSH3 0x14D JUMP JUMPDEST DUP7 DUP2 SSTORE DUP9 SWAP5 ADD PUSH3 0x1E2 JUMP JUMPDEST PUSH4 0x4E487B71 PUSH1 0xE0 SHL DUP6 MSTORE PUSH1 0x22 PUSH1 0x4 MSTORE PUSH1 0x24 DUP6 REVERT JUMPDEST SWAP1 PUSH1 0x7F AND SWAP1 PUSH3 0x136 JUMP JUMPDEST DUP2 MLOAD PUSH4 0x1E4FBDF7 PUSH1 0xE0 SHL DUP2 MSTORE PUSH1 0x0 PUSH1 0x4 DUP3 ADD MSTORE PUSH1 0x24 SWAP1 REVERT JUMPDEST PUSH1 0x0 DUP1 REVERT JUMPDEST PUSH4 0x4E487B71 PUSH1 0xE0 SHL PUSH1 0x0 MSTORE PUSH1 0x41 PUSH1 0x4 MSTORE PUSH1 0x24 PUSH1 0x0 REVERT JUMPDEST MLOAD SWAP1 PUSH1 0x1 PUSH1 0x1 PUSH1 0xA0 SHL SUB DUP3 AND DUP3 SUB PUSH3 0x234 JUMPI JUMP INVALID PUSH1 0x80 PUSH1 0x40 MSTORE PUSH1 0x4 CALLDATASIZE LT ISZERO PUSH2 0x1B JUMPI JUMPDEST CALLDATASIZE ISZERO PUSH2 0x19 JUMPI PUSH1 0x0 DUP1 REVERT JUMPDEST STOP JUMPDEST PUSH1 0x0 DUP1 CALLDATALOAD PUSH1 0xE0 SHR DUP1 PUSH4 0x7ADC191 EQ PUSH2 0x468D JUMPI DUP1 PUSH4 0xB501AB8 EQ PUSH2 0x461F JUMPI DUP1 PUSH4 0xD64CDBD EQ PUSH2 0x45F0 JUMPI DUP1 PUSH4 0x157BDCCE EQ PUSH2 0x4518 JUMPI DUP1 PUSH4 0x17916E01 EQ PUSH2 0x44FA JUMPI DUP1 PUSH4 0x256BA741 EQ PUSH2 0x4451 JUMPI DUP1 PUSH4 0x287F57B5 EQ PUSH2 0x4408 JUMPI DUP1 PUSH4 0x2B5BA3B9 EQ PUSH2 0x43C9 JUMPI DUP1 PUSH4 0x2B60C822 EQ PUSH2 0x439E JUMPI DUP1 PUSH4 0x2EF1BDFA EQ PUSH2 0x4380 JUMPI DUP1 PUSH4 0x33D6B46E EQ PUSH2 0x430D JUMPI DUP1 PUSH4 0x3ADFE6D0 EQ PUSH2 0x42E2 JUMPI DUP1 PUSH4 0x3E32A76C EQ PUSH2 0x401B JUMPI DUP1 PUSH4 0x3EC79193 EQ PUSH2 0x3CF4 JUMPI DUP1 PUSH4 0x406EF2EF EQ PUSH2 0x3CD6 JUMPI DUP1 PUSH4 0x45843695 EQ PUSH2 0x3C58 JUMPI DUP1 PUSH4 0x4986597F EQ PUSH2 0x3C11 JUMPI DUP1 PUSH4 0x4AFE62B5 EQ PUSH2 0x38E0 JUMPI DUP1 PUSH4 0x4F44289D EQ PUSH2 0x3886 JUMPI DUP1 PUSH4 0x4FFE2A8B EQ PUSH2 0x385D JUMPI DUP1 PUSH4 0x51049969 EQ PUSH2 0x36E4 JUMPI DUP1 PUSH4 0x53514044 EQ PUSH2 0x36BA JUMPI DUP1 PUSH4 0x553B7CBB EQ PUSH2 0x3662 JUMPI DUP1 PUSH4 0x5B7BAF64 EQ PUSH2 0x3298 JUMPI DUP1 PUSH4 0x5DA3247A EQ PUSH2 0x327A JUMPI DUP1 PUSH4 0x60557333 EQ PUSH2 0x3262 JUMPI DUP1 PUSH4 0x61D027B3 EQ PUSH2 0x3239 JUMPI DUP1 PUSH4 0x65EBCE55 EQ PUSH2 0x31C3 JUMPI DUP1 PUSH4 0x677BD9FF EQ PUSH2 0x2B20 JUMPI DUP1 PUSH4 0x68C4AC26 EQ PUSH2 0x2AE1 JUMPI DUP1 PUSH4 0x6D822220 EQ PUSH2 0x2A6B JUMPI DUP1 PUSH4 0x6ED2151A EQ PUSH2 0x27D1 JUMPI DUP1 PUSH4 0x715018A6 EQ PUSH2 0x2777 JUMPI DUP1 PUSH4 0x720138E8 EQ PUSH2 0x24BD JUMPI DUP1 PUSH4 0x74C350EB EQ PUSH2 0x247D JUMPI DUP1 PUSH4 0x76319190 EQ PUSH2 0x22EC JUMPI DUP1 PUSH4 0x7C16CD9E EQ PUSH2 0x2228 JUMPI DUP1 PUSH4 0x80D5AC8A EQ PUSH2 0x21FF JUMPI DUP1 PUSH4 0x81B17D29 EQ PUSH2 0x21AD JUMPI DUP1 PUSH4 0x8704BEC0 EQ PUSH2 0x2161 JUMPI DUP1 PUSH4 0x87FEA110 EQ PUSH2 0x20DF JUMPI DUP1 PUSH4 0x881DF9E1 EQ PUSH2 0x20B4 JUMPI DUP1 PUSH4 0x88D3CC48 EQ PUSH2 0x2091 JUMPI DUP1 PUSH4 0x8DA5CB5B EQ PUSH2 0x206A JUMPI DUP1 PUSH4 0x971F8BB1 EQ PUSH2 0x202A JUMPI DUP1 PUSH4 0x98A17671 EQ PUSH2 0x1FD4 JUMPI DUP1 PUSH4 0x9F37022A EQ PUSH2 0x1FB1 JUMPI DUP1 PUSH4 0xA30A0914 EQ PUSH2 0x1F87 JUMPI DUP1 PUSH4 0xA5E973C3 EQ PUSH2 0x1F05 JUMPI DUP1 PUSH4 0xAD8E42FF EQ PUSH2 0x1EDB JUMPI DUP1 PUSH4 0xB1138B50 EQ PUSH2 0x1D04 JUMPI DUP1 PUSH4 0xB1283E77 EQ PUSH2 0x1C08 JUMPI DUP1 PUSH4 0xB85ED636 EQ PUSH2 0x1B7E JUMPI DUP1 PUSH4 0xBAA9C4AC EQ PUSH2 0x1B60 JUMPI DUP1 PUSH4 0xC22C62C3 EQ PUSH2 0x1B2E JUMPI DUP1 PUSH4 0xC3436E0C EQ PUSH2 0x19DE JUMPI DUP1 PUSH4 0xC8A843B7 EQ PUSH2 0x18BF JUMPI DUP1 PUSH4 0xCE67BE26 EQ PUSH2 0x18A1 JUMPI DUP1 PUSH4 0xD3C7C2C7 EQ PUSH2 0x172C JUMPI DUP1 PUSH4 0xDB62C6DE EQ PUSH2 0x167B JUMPI DUP1 PUSH4 0xDC4CE349 EQ PUSH2 0x1613 JUMPI DUP1 PUSH4 0xE053BCEC EQ PUSH2 0x15C8 JUMPI DUP1 PUSH4 0xE78D0117 EQ PUSH2 0x1521 JUMPI DUP1 PUSH4 0xEB44FDD3 EQ PUSH2 0x1424 JUMPI DUP1 PUSH4 0xEFB2B690 EQ PUSH2 0x895 JUMPI DUP1 PUSH4 0xF00FE321 EQ PUSH2 0x7DC JUMPI DUP1 PUSH4 0xF204072F EQ PUSH2 0x4A5 JUMPI DUP1 PUSH4 0xF2FDE38B EQ PUSH2 0x41A JUMPI DUP1 PUSH4 0xF849F69E EQ PUSH2 0x3A7 JUMPI DUP1 PUSH4 0xFB0B2B36 EQ PUSH2 0x354 JUMPI PUSH4 0xFE53A6E8 EQ PUSH2 0x334 JUMPI POP PUSH2 0xE JUMP JUMPDEST CALLVALUE PUSH2 0x351 JUMPI DUP1 PUSH1 0x3 NOT CALLDATASIZE ADD SLT PUSH2 0x351 JUMPI PUSH1 0x20 PUSH1 0xE SLOAD PUSH1 0x40 MLOAD SWAP1 DUP2 MSTORE RETURN JUMPDEST DUP1 REVERT JUMPDEST POP CALLVALUE PUSH2 0x351 JUMPI PUSH1 0x20 CALLDATASIZE PUSH1 0x3 NOT ADD SLT PUSH2 0x351 JUMPI PUSH2 0x3A3 SWAP1 PUSH2 0x38F SWAP1 PUSH1 0x40 SWAP1 PUSH1 0x1 PUSH1 0x1 PUSH1 0xA0 SHL SUB PUSH2 0x381 PUSH2 0x490B JUMP JUMPDEST AND DUP2 MSTORE PUSH1 0x8 PUSH1 0x20 MSTORE KECCAK256 PUSH2 0x4C9F JUMP JUMPDEST PUSH1 0x40 MLOAD SWAP2 DUP3 SWAP2 PUSH1 0x20 DUP4 MSTORE PUSH1 0x20 DUP4 ADD SWAP1 PUSH2 0x4A64 JUMP JUMPDEST SUB SWAP1 RETURN JUMPDEST POP CALLVALUE PUSH2 0x351 JUMPI PUSH1 0x20 CALLDATASIZE PUSH1 0x3 NOT ADD SLT PUSH2 0x351 JUMPI PUSH1 0x4 CALLDATALOAD DUP2 MSTORE PUSH1 0x14 PUSH1 0x20 MSTORE PUSH1 0xFF PUSH1 0x40 DUP3 KECCAK256 SLOAD AND DUP1 PUSH2 0x3DE JUMPI JUMPDEST PUSH1 0x20 SWAP1 PUSH1 0x40 MLOAD SWAP1 ISZERO ISZERO DUP2 MSTORE RETURN JUMPDEST POP PUSH1 0x1 PUSH1 0x20 MSTORE PUSH1 0xFF PUSH1 0xB PUSH1 0x40 DUP4 KECCAK256 ADD SLOAD AND SWAP1 PUSH1 0x5 DUP3 LT ISZERO PUSH2 0x406 JUMPI POP PUSH1 0x4 PUSH1 0x20 SWAP2 EQ ISZERO PUSH2 0x3D1 JUMP JUMPDEST PUSH4 0x4E487B71 PUSH1 0xE0 SHL DUP2 MSTORE PUSH1 0x21 PUSH1 0x4 MSTORE PUSH1 0x24 SWAP1 REVERT JUMPDEST POP CALLVALUE PUSH2 0x351 JUMPI PUSH1 0x20 CALLDATASIZE PUSH1 0x3 NOT ADD SLT PUSH2 0x351 JUMPI PUSH2 0x434 PUSH2 0x490B JUMP JUMPDEST PUSH2 0x43C PUSH2 0x4D54 JUMP JUMPDEST PUSH1 0x1 PUSH1 0x1 PUSH1 0xA0 SHL SUB SWAP1 DUP2 AND SWAP1 DUP2 ISZERO PUSH2 0x48C JUMPI PUSH1 0x0 SLOAD DUP3 PUSH1 0x1 PUSH1 0x1 PUSH1 0x60 SHL SUB PUSH1 0xA0 SHL DUP3 AND OR PUSH1 0x0 SSTORE AND PUSH32 0x8BE0079C531659141344CD1FD0A4F28419497F9722A3DAAFE3B4186F6B6457E0 PUSH1 0x0 DUP1 LOG3 DUP1 RETURN JUMPDEST PUSH1 0x40 MLOAD PUSH4 0x1E4FBDF7 PUSH1 0xE0 SHL DUP2 MSTORE PUSH1 0x4 DUP2 ADD DUP5 SWAP1 MSTORE PUSH1 0x24 SWAP1 REVERT JUMPDEST POP CALLVALUE PUSH2 0x351 JUMPI PUSH2 0x4B4 CALLDATASIZE PUSH2 0x4B7D JUMP JUMPDEST SWAP1 DUP1 DUP4 MSTORE PUSH1 0x20 PUSH1 0x1 DUP2 MSTORE PUSH1 0x40 DUP5 KECCAK256 PUSH1 0xFF PUSH1 0xB DUP3 ADD SLOAD AND PUSH1 0x5 DUP2 LT ISZERO PUSH2 0x7C8 JUMPI PUSH2 0x4DD SWAP1 ISZERO PUSH2 0x4FCA JUMP JUMPDEST PUSH1 0x9 DUP2 ADD SLOAD TIMESTAMP LT ISZERO PUSH2 0x777 JUMPI PUSH1 0x4 SWAP1 CALLER DUP7 MSTORE PUSH1 0xA DUP4 MSTORE PUSH2 0x504 PUSH1 0xFF PUSH1 0x40 DUP9 KECCAK256 SLOAD AND ISZERO PUSH2 0x4D80 JUMP JUMPDEST ADD DUP1 SLOAD PUSH1 0x1 PUSH1 0x1 PUSH1 0xA0 SHL SUB SWAP2 SWAP1 DUP3 AND DUP1 ISZERO PUSH2 0x70C JUMPI DUP6 ISZERO PUSH2 0x6AA JUMPI SWAP1 PUSH2 0x534 DUP7 DUP5 SWAP4 DUP10 SWAP6 PUSH1 0xB SLOAD AND SWAP1 CALLER SWAP1 PUSH2 0x4F1F JUMP JUMPDEST DUP5 DUP4 MSTORE PUSH1 0x3 DUP5 MSTORE PUSH1 0x40 DUP4 KECCAK256 CALLER PUSH1 0x0 MSTORE DUP5 MSTORE PUSH1 0xFF PUSH1 0x40 PUSH1 0x0 KECCAK256 SLOAD AND ISZERO PUSH2 0x691 JUMPI JUMPDEST DUP5 DUP4 MSTORE PUSH1 0x3 DUP5 MSTORE PUSH1 0x40 DUP4 KECCAK256 CALLER PUSH1 0x0 MSTORE DUP5 MSTORE PUSH1 0x40 PUSH1 0x0 KECCAK256 PUSH1 0x1 PUSH1 0xFF NOT DUP3 SLOAD AND OR SWAP1 SSTORE DUP2 DUP1 PUSH1 0xB SLOAD AND SWAP2 SLOAD AND SWAP1 DUP1 EXTCODESIZE ISZERO PUSH2 0x65F JUMPI PUSH1 0x40 MLOAD PUSH4 0xC15D9807 PUSH1 0xE0 SHL DUP2 MSTORE PUSH1 0x4 DUP2 ADD DUP8 SWAP1 MSTORE CALLER PUSH1 0x24 DUP3 ADD MSTORE PUSH1 0x1 PUSH1 0x1 PUSH1 0xA0 SHL SUB SWAP3 SWAP1 SWAP3 AND PUSH1 0x44 DUP4 ADD MSTORE PUSH1 0x64 DUP3 ADD DUP8 SWAP1 MSTORE DUP4 SWAP1 DUP3 SWAP1 PUSH1 0x84 SWAP1 DUP3 SWAP1 DUP5 SWAP1 GAS CALL SWAP1 DUP2 ISZERO PUSH2 0x686 JUMPI DUP4 SWAP2 PUSH2 0x672 JUMPI JUMPDEST POP POP PUSH1 0xD SLOAD AND DUP1 PUSH2 0x60F JUMPI JUMPDEST POP POP PUSH32 0xC02BBAFF19BDE22745E7227AEB31741EFD4BF98EBB8B48AC49DD40833FAC6756 SWAP1 PUSH1 0x40 MLOAD SWAP4 DUP5 MSTORE CALLER SWAP4 LOG3 DUP1 RETURN JUMPDEST DUP1 EXTCODESIZE ISZERO PUSH2 0x66E JUMPI DUP2 DUP1 SWAP2 PUSH1 0x64 PUSH1 0x40 MLOAD DUP1 SWAP5 DUP2 SWAP4 PUSH4 0x8F46A5A1 PUSH1 0xE0 SHL DUP4 MSTORE DUP10 PUSH1 0x4 DUP5 ADD MSTORE CALLER PUSH1 0x24 DUP5 ADD MSTORE DUP11 PUSH1 0x44 DUP5 ADD MSTORE GAS CALL DUP1 ISZERO PUSH2 0x663 JUMPI ISZERO PUSH2 0x5DF JUMPI PUSH2 0x654 SWAP1 PUSH2 0x4B93 JUMP JUMPDEST PUSH2 0x65F JUMPI DUP4 CODESIZE PUSH2 0x5DF JUMP JUMPDEST DUP4 DUP1 REVERT JUMPDEST PUSH1 0x40 MLOAD RETURNDATASIZE DUP5 DUP3 RETURNDATACOPY RETURNDATASIZE SWAP1 REVERT JUMPDEST POP DUP1 REVERT JUMPDEST PUSH2 0x67B SWAP1 PUSH2 0x4B93 JUMP JUMPDEST PUSH2 0x66E JUMPI DUP2 CODESIZE PUSH2 0x5D3 JUMP JUMPDEST PUSH1 0x40 MLOAD RETURNDATASIZE DUP6 DUP3 RETURNDATACOPY RETURNDATASIZE SWAP1 REVERT JUMPDEST DUP5 DUP4 MSTORE PUSH1 0x6 DUP5 MSTORE PUSH2 0x6A5 CALLER PUSH1 0x40 DUP6 KECCAK256 PUSH2 0x514B JUMP JUMPDEST PUSH2 0x554 JUMP JUMPDEST PUSH1 0x40 MLOAD PUSH3 0x461BCD PUSH1 0xE5 SHL DUP2 MSTORE PUSH1 0x4 DUP2 ADD DUP6 SWAP1 MSTORE PUSH1 0x34 PUSH1 0x24 DUP3 ADD MSTORE PUSH32 0x4D61726B65744D616E616765723A20537570706F727420616D6F756E74206D75 PUSH1 0x44 DUP3 ADD MSTORE PUSH20 0x73742062652067726561746572207468616E203 PUSH1 0x64 SHL PUSH1 0x64 DUP3 ADD MSTORE PUSH1 0x84 SWAP1 REVERT JUMPDEST PUSH1 0x40 MLOAD PUSH3 0x461BCD PUSH1 0xE5 SHL DUP2 MSTORE PUSH1 0x4 DUP2 ADD DUP6 SWAP1 MSTORE PUSH1 0x37 PUSH1 0x24 DUP3 ADD MSTORE PUSH32 0x4D61726B65744D616E616765723A20537570706F7274206F6E6C792061766169 PUSH1 0x44 DUP3 ADD MSTORE PUSH32 0x6C61626C6520666F7220746F6B656E206D61726B657473000000000000000000 PUSH1 0x64 DUP3 ADD MSTORE PUSH1 0x84 SWAP1 REVERT JUMPDEST PUSH1 0x40 MLOAD PUSH3 0x461BCD PUSH1 0xE5 SHL DUP2 MSTORE PUSH1 0x4 DUP2 ADD DUP4 SWAP1 MSTORE PUSH1 0x23 PUSH1 0x24 DUP3 ADD MSTORE PUSH32 0x4D61726B65744D616E616765723A20537570706F727420706572696F6420656E PUSH1 0x44 DUP3 ADD MSTORE PUSH3 0x191959 PUSH1 0xEA SHL PUSH1 0x64 DUP3 ADD MSTORE PUSH1 0x84 SWAP1 REVERT JUMPDEST PUSH4 0x4E487B71 PUSH1 0xE0 SHL DUP7 MSTORE PUSH1 0x21 PUSH1 0x4 MSTORE PUSH1 0x24 DUP7 REVERT JUMPDEST POP CALLVALUE PUSH2 0x351 JUMPI PUSH1 0x40 CALLDATASIZE PUSH1 0x3 NOT ADD SLT PUSH2 0x351 JUMPI PUSH2 0x836 SWAP1 PUSH1 0x20 PUSH2 0x7FC PUSH2 0x48F5 JUMP JUMPDEST PUSH1 0xB SLOAD PUSH1 0x40 MLOAD PUSH4 0x3D1E7BA1 PUSH1 0xE1 SHL DUP2 MSTORE PUSH1 0x4 DUP1 CALLDATALOAD SWAP1 DUP3 ADD MSTORE PUSH1 0x1 PUSH1 0x1 PUSH1 0xA0 SHL SUB SWAP3 DUP4 AND PUSH1 0x24 DUP3 ADD MSTORE SWAP5 DUP6 SWAP3 SWAP1 SWAP2 AND SWAP1 DUP3 SWAP1 DUP2 SWAP1 PUSH1 0x44 DUP3 ADD SWAP1 JUMP JUMPDEST SUB SWAP2 GAS STATICCALL SWAP1 DUP2 ISZERO PUSH2 0x889 JUMPI SWAP1 PUSH2 0x852 JUMPI JUMPDEST PUSH1 0x20 SWAP1 PUSH1 0x40 MLOAD SWAP1 DUP2 MSTORE RETURN JUMPDEST POP PUSH1 0x20 DUP2 RETURNDATASIZE DUP3 GT PUSH2 0x881 JUMPI JUMPDEST DUP2 PUSH2 0x86B PUSH1 0x20 SWAP4 DUP4 PUSH2 0x4BE0 JUMP JUMPDEST DUP2 ADD SUB SLT PUSH2 0x87C JUMPI PUSH1 0x20 SWAP1 MLOAD PUSH2 0x847 JUMP JUMPDEST PUSH1 0x0 DUP1 REVERT JUMPDEST RETURNDATASIZE SWAP2 POP PUSH2 0x85E JUMP JUMPDEST PUSH1 0x40 MLOAD SWAP1 RETURNDATASIZE SWAP1 DUP3 RETURNDATACOPY RETURNDATASIZE SWAP1 REVERT JUMPDEST POP PUSH2 0x100 CALLDATASIZE PUSH1 0x3 NOT ADD SLT PUSH2 0x351 JUMPI PUSH1 0x4 CALLDATALOAD PUSH8 0xFFFFFFFFFFFFFFFF DUP2 GT PUSH2 0x66E JUMPI PUSH2 0x8C3 SWAP1 CALLDATASIZE SWAP1 PUSH1 0x4 ADD PUSH2 0x4C1E JUMP JUMPDEST SWAP1 PUSH2 0x8CC PUSH2 0x4D45 JUMP JUMPDEST PUSH1 0x64 CALLDATALOAD PUSH1 0x1 PUSH1 0x1 PUSH1 0xA0 SHL SUB DUP2 AND SWAP1 SUB PUSH2 0x87C JUMPI CALLER DUP3 MSTORE PUSH1 0xA PUSH1 0x20 MSTORE PUSH2 0x8F8 PUSH1 0xFF PUSH1 0x40 DUP5 KECCAK256 SLOAD AND ISZERO PUSH2 0x4D80 JUMP JUMPDEST DUP3 MLOAD ISZERO PUSH2 0x13E0 JUMPI PUSH1 0x2 PUSH1 0x44 CALLDATALOAD LT ISZERO DUP1 PUSH2 0x13D3 JUMPI JUMPDEST ISZERO PUSH2 0x1383 JUMPI PUSH1 0x84 CALLDATALOAD ISZERO PUSH2 0x133F JUMPI PUSH1 0xA4 CALLDATALOAD ISZERO PUSH2 0x12EB JUMPI PUSH1 0xC4 CALLDATALOAD ISZERO ISZERO DUP1 PUSH2 0x12DD JUMPI JUMPDEST ISZERO PUSH2 0x1289 JUMPI PUSH1 0x10 SLOAD PUSH1 0xE4 CALLDATALOAD LT PUSH2 0x1236 JUMPI DUP1 ISZERO PUSH2 0x11FC JUMPI PUSH1 0x64 CALLDATALOAD PUSH1 0x1 PUSH1 0x1 PUSH1 0xA0 SHL SUB AND ISZERO PUSH2 0x1199 JUMPI PUSH1 0x64 CALLDATALOAD PUSH1 0x1 PUSH1 0x1 PUSH1 0xA0 SHL SUB AND DUP3 MSTORE PUSH1 0x7 PUSH1 0x20 MSTORE PUSH1 0x40 DUP3 KECCAK256 SLOAD PUSH1 0xFF AND ISZERO PUSH2 0x1138 JUMPI JUMPDEST PUSH1 0xF SLOAD CALLVALUE LT PUSH2 0x10E2 JUMPI PUSH1 0x3C PUSH1 0xE4 CALLDATALOAD MUL PUSH1 0xE4 CALLDATALOAD DUP2 DIV PUSH1 0x3C EQ PUSH1 0xE4 CALLDATALOAD ISZERO OR ISZERO PUSH2 0x10CE JUMPI PUSH2 0x99F SWAP1 TIMESTAMP PUSH2 0x4E2D JUMP JUMPDEST SWAP2 PUSH3 0x2A300 DUP4 ADD DUP4 GT PUSH2 0x10BA JUMPI PUSH1 0xE SLOAD SWAP3 PUSH2 0x9B9 DUP5 PUSH2 0x4E3A JUMP JUMPDEST PUSH1 0xE SSTORE PUSH3 0x2A300 PUSH1 0x40 MLOAD SWAP2 PUSH2 0x9CD DUP4 PUSH2 0x4BA7 JUMP JUMPDEST CALLER DUP4 MSTORE DUP7 PUSH1 0x20 DUP5 ADD MSTORE DUP5 ISZERO ISZERO PUSH1 0x40 DUP5 ADD MSTORE PUSH1 0x44 CALLDATALOAD PUSH1 0x60 DUP5 ADD MSTORE PUSH1 0x1 DUP1 PUSH1 0xA0 SHL SUB PUSH1 0x64 CALLDATALOAD AND PUSH1 0x80 DUP5 ADD MSTORE PUSH1 0x84 CALLDATALOAD PUSH1 0xA0 DUP5 ADD MSTORE PUSH1 0xA4 CALLDATALOAD PUSH1 0xC0 DUP5 ADD MSTORE PUSH1 0xC4 CALLDATALOAD PUSH1 0xE0 DUP5 ADD MSTORE TIMESTAMP PUSH2 0x100 DUP5 ADD MSTORE DUP1 PUSH2 0x120 DUP5 ADD MSTORE ADD PUSH2 0x140 DUP3 ADD MSTORE DUP2 PUSH2 0x160 DUP3 ADD MSTORE DUP2 PUSH2 0x180 DUP3 ADD MSTORE DUP2 PUSH2 0x1A0 DUP3 ADD MSTORE DUP4 DUP3 MSTORE PUSH1 0x1 PUSH1 0x20 MSTORE PUSH1 0x40 DUP3 KECCAK256 SWAP1 PUSH1 0x1 DUP1 PUSH1 0xA0 SHL SUB DUP2 MLOAD AND PUSH1 0x1 PUSH1 0x1 PUSH1 0x60 SHL SUB PUSH1 0xA0 SHL DUP4 SLOAD AND OR DUP3 SSTORE PUSH1 0x20 DUP2 ADD MLOAD DUP1 MLOAD SWAP1 PUSH8 0xFFFFFFFFFFFFFFFF DUP3 GT PUSH2 0x10A6 JUMPI DUP2 SWAP1 PUSH2 0xA86 PUSH1 0x1 DUP7 ADD SLOAD PUSH2 0x4C65 JUMP JUMPDEST PUSH1 0x1F DUP2 GT PUSH2 0x1068 JUMPI JUMPDEST POP PUSH1 0x20 SWAP1 PUSH1 0x1F DUP4 GT PUSH1 0x1 EQ PUSH2 0xFF9 JUMPI DUP7 SWAP3 PUSH2 0xFEE JUMPI JUMPDEST POP POP DUP2 PUSH1 0x1 SHL SWAP2 PUSH1 0x0 NOT SWAP1 PUSH1 0x3 SHL SHR NOT AND OR PUSH1 0x1 DUP4 ADD SSTORE JUMPDEST PUSH2 0xADC PUSH1 0x40 DUP3 ADD MLOAD ISZERO ISZERO PUSH1 0x2 DUP5 ADD SWAP1 PUSH1 0xFF DUP1 NOT DUP4 SLOAD AND SWAP2 ISZERO ISZERO AND OR SWAP1 SSTORE JUMP JUMPDEST PUSH1 0x60 DUP2 ADD MLOAD PUSH1 0x3 DUP4 ADD SSTORE PUSH1 0x4 DUP3 ADD PUSH1 0x1 DUP1 PUSH1 0xA0 SHL SUB PUSH1 0x80 DUP4 ADD MLOAD AND PUSH1 0x1 PUSH1 0x1 PUSH1 0x60 SHL SUB PUSH1 0xA0 SHL DUP3 SLOAD AND OR SWAP1 SSTORE PUSH1 0xA0 DUP2 ADD MLOAD PUSH1 0x5 DUP4 ADD SSTORE PUSH1 0xC0 DUP2 ADD MLOAD PUSH1 0x6 DUP4 ADD SSTORE PUSH1 0xE0 DUP2 ADD MLOAD PUSH1 0x7 DUP4 ADD SSTORE PUSH2 0x100 DUP2 ADD MLOAD PUSH1 0x8 DUP4 ADD SSTORE PUSH2 0x120 DUP2 ADD MLOAD PUSH1 0x9 DUP4 ADD SSTORE PUSH2 0x140 DUP2 ADD MLOAD PUSH1 0xA DUP4 ADD SSTORE PUSH1 0xB DUP3 ADD PUSH2 0x160 DUP3 ADD MLOAD PUSH1 0x5 DUP2 LT ISZERO PUSH2 0xFDA JUMPI PUSH2 0xB94 SWAP4 SWAP3 PUSH1 0xD SWAP3 PUSH2 0x1A0 SWAP3 PUSH1 0xFF DUP1 NOT DUP4 SLOAD AND SWAP2 AND OR SWAP1 SSTORE PUSH2 0x180 DUP2 ADD MLOAD PUSH1 0xC DUP6 ADD SSTORE ADD MLOAD ISZERO ISZERO SWAP2 ADD SWAP1 PUSH1 0xFF DUP1 NOT DUP4 SLOAD AND SWAP2 ISZERO ISZERO AND OR SWAP1 SSTORE JUMP JUMPDEST PUSH1 0x13 SLOAD PUSH1 0x1 PUSH1 0x40 SHL DUP2 LT ISZERO PUSH2 0xFC4 JUMPI DUP4 PUSH2 0xBB7 DUP3 PUSH1 0x1 PUSH2 0xBD0 SWAP5 ADD PUSH1 0x13 SSTORE PUSH2 0x49A3 JUMP JUMPDEST SWAP1 SWAP2 SWAP1 DUP3 SLOAD SWAP1 PUSH1 0x3 SHL SWAP2 DUP3 SHL SWAP2 PUSH1 0x0 NOT SWAP1 SHL NOT AND OR SWAP1 SSTORE JUMP JUMPDEST DUP3 DUP2 MSTORE PUSH1 0x14 PUSH1 0x20 MSTORE PUSH1 0x40 DUP2 KECCAK256 DUP1 SLOAD PUSH1 0xFF NOT AND PUSH1 0x1 OR SWAP1 SSTORE PUSH1 0x64 CALLDATALOAD PUSH1 0x1 PUSH1 0x1 PUSH1 0xA0 SHL SUB AND PUSH2 0xF18 JUMPI PUSH1 0xF SLOAD PUSH2 0xC06 PUSH1 0xA4 CALLDATALOAD DUP3 PUSH2 0x4E2D JUMP JUMPDEST CALLVALUE LT PUSH2 0xED4 JUMPI DUP2 DUP1 DUP1 DUP1 PUSH2 0xC2E SWAP5 PUSH1 0x1 DUP1 PUSH1 0xA0 SHL SUB DUP3 SLOAD AND GAS CALL PUSH2 0xC28 PUSH2 0x4E8F JUMP JUMPDEST POP PUSH2 0x4EBF JUMP JUMPDEST DUP1 DUP1 DUP1 DUP1 PUSH1 0xA4 CALLDATALOAD PUSH1 0x1 DUP1 PUSH1 0xA0 SHL SUB PUSH1 0xB SLOAD AND GAS CALL PUSH2 0xC4A PUSH2 0x4E8F JUMP JUMPDEST POP ISZERO PUSH2 0xE69 JUMPI JUMPDEST DUP3 DUP2 MSTORE PUSH1 0x2 PUSH1 0x20 MSTORE PUSH1 0x40 DUP2 KECCAK256 CALLER PUSH1 0x0 MSTORE PUSH1 0x20 MSTORE PUSH1 0x40 PUSH1 0x0 KECCAK256 PUSH1 0x1 PUSH1 0xFF NOT DUP3 SLOAD AND OR SWAP1 SSTORE DUP3 DUP2 MSTORE PUSH1 0x4 PUSH1 0x20 MSTORE PUSH1 0x40 DUP2 KECCAK256 CALLER PUSH1 0x0 MSTORE PUSH1 0x20 MSTORE PUSH1 0xC4 CALLDATALOAD PUSH1 0x40 PUSH1 0x0 KECCAK256 SSTORE CALLER DUP2 MSTORE PUSH1 0x15 PUSH1 0x20 MSTORE PUSH2 0xCA5 DUP4 PUSH1 0x40 DUP4 KECCAK256 PUSH2 0x4E6C JUMP JUMPDEST PUSH1 0xB SLOAD PUSH1 0x1 PUSH1 0x1 PUSH1 0xA0 SHL SUB AND DUP1 EXTCODESIZE ISZERO PUSH2 0x66E JUMPI PUSH1 0x40 MLOAD PUSH4 0x38051807 PUSH1 0xE2 SHL DUP2 MSTORE PUSH1 0x4 DUP2 ADD DUP6 SWAP1 MSTORE CALLER PUSH1 0x24 DUP3 ADD MSTORE PUSH1 0x64 DUP1 CALLDATALOAD PUSH1 0x1 PUSH1 0x1 PUSH1 0xA0 SHL SUB AND PUSH1 0x44 DUP4 ADD MSTORE PUSH1 0xA4 DUP1 CALLDATALOAD SWAP2 DUP4 ADD SWAP2 SWAP1 SWAP2 MSTORE PUSH1 0xC4 CALLDATALOAD PUSH1 0x84 DUP4 ADD MSTORE SWAP1 SWAP2 DUP4 SWAP2 DUP4 SWAP2 DUP3 SWAP1 DUP5 SWAP1 GAS CALL DUP1 ISZERO PUSH2 0x663 JUMPI SWAP1 DUP3 SWAP2 PUSH2 0xE55 JUMPI JUMPDEST POP POP PUSH1 0xD SLOAD PUSH1 0x1 PUSH1 0x1 PUSH1 0xA0 SHL SUB AND DUP1 PUSH2 0xD98 JUMPI JUMPDEST POP POP DUP2 PUSH32 0xE47F69E204F188E4F9DF6ADC50C9CF0BD76C1CD85F34A8A3E8284064AFB4FB82 PUSH1 0x20 SWAP5 PUSH2 0xD61 PUSH1 0x40 MLOAD SWAP2 PUSH1 0xA0 DUP4 MSTORE PUSH1 0xA0 DUP4 ADD SWAP1 PUSH2 0x4A64 JUMP JUMPDEST SWAP4 ISZERO ISZERO DUP2 DUP8 ADD MSTORE PUSH1 0x44 CALLDATALOAD PUSH1 0x40 DUP3 ADD MSTORE PUSH1 0x64 CALLDATALOAD PUSH1 0x1 PUSH1 0x1 PUSH1 0xA0 SHL SUB AND PUSH1 0x60 DUP3 ADD MSTORE PUSH1 0x84 CALLDATALOAD PUSH1 0x80 DUP3 ADD MSTORE CALLER SWAP4 DUP2 SWAP1 SUB SWAP1 LOG3 PUSH1 0x40 MLOAD SWAP1 DUP2 MSTORE RETURN JUMPDEST DUP1 EXTCODESIZE ISZERO PUSH2 0x66E JUMPI PUSH1 0x40 MLOAD PUSH4 0x782A7805 PUSH1 0xE1 SHL DUP2 MSTORE PUSH1 0x4 DUP2 ADD DUP6 SWAP1 MSTORE CALLER PUSH1 0x24 DUP3 ADD MSTORE SWAP1 DUP3 SWAP1 DUP3 SWAP1 PUSH1 0x44 SWAP1 DUP3 SWAP1 DUP5 SWAP1 GAS CALL DUP1 ISZERO PUSH2 0x663 JUMPI SWAP1 DUP3 SWAP2 PUSH2 0xE41 JUMPI JUMPDEST POP POP PUSH1 0xD SLOAD PUSH1 0x1 PUSH1 0x1 PUSH1 0xA0 SHL SUB AND DUP1 EXTCODESIZE ISZERO PUSH2 0x66E JUMPI PUSH1 0x40 MLOAD PUSH4 0x5374B47B PUSH1 0xE0 SHL DUP2 MSTORE PUSH1 0x4 DUP2 ADD DUP6 SWAP1 MSTORE CALLER PUSH1 0x24 DUP3 ADD MSTORE PUSH1 0xC4 CALLDATALOAD PUSH1 0x44 DUP3 ADD MSTORE PUSH1 0xA4 CALLDATALOAD PUSH1 0x64 DUP3 ADD MSTORE SWAP1 DUP3 SWAP1 DUP3 SWAP1 PUSH1 0x84 SWAP1 DUP3 SWAP1 DUP5 SWAP1 GAS CALL DUP1 ISZERO PUSH2 0x663 JUMPI ISZERO PUSH2 0xD25 JUMPI PUSH2 0xE37 DUP3 SWAP2 PUSH2 0x4B93 JUMP JUMPDEST PUSH2 0x351 JUMPI DUP1 PUSH2 0xD25 JUMP JUMPDEST PUSH2 0xE4A SWAP1 PUSH2 0x4B93 JUMP JUMPDEST PUSH2 0x351 JUMPI DUP1 CODESIZE PUSH2 0xDD5 JUMP JUMPDEST PUSH2 0xE5E SWAP1 PUSH2 0x4B93 JUMP JUMPDEST PUSH2 0x351 JUMPI DUP1 CODESIZE PUSH2 0xD11 JUMP JUMPDEST PUSH1 0x40 MLOAD PUSH3 0x461BCD PUSH1 0xE5 SHL DUP2 MSTORE PUSH1 0x20 PUSH1 0x4 DUP3 ADD MSTORE PUSH1 0x3A PUSH1 0x24 DUP3 ADD MSTORE PUSH32 0x4D61726B65744D616E616765723A2043726561746F72206465706F7369742074 PUSH1 0x44 DUP3 ADD MSTORE PUSH32 0x72616E7366657220746F205472656173757279206661696C6564000000000000 PUSH1 0x64 DUP3 ADD MSTORE PUSH1 0x84 SWAP1 REVERT JUMPDEST PUSH1 0x64 PUSH1 0x40 MLOAD PUSH3 0x461BCD PUSH1 0xE5 SHL DUP2 MSTORE PUSH1 0x20 PUSH1 0x4 DUP3 ADD MSTORE PUSH1 0x20 PUSH1 0x24 DUP3 ADD MSTORE PUSH32 0x4D61726B65744D616E616765723A20496E73756666696369656E742050455055 PUSH1 0x44 DUP3 ADD MSTORE REVERT JUMPDEST PUSH1 0xF SLOAD DUP1 CALLVALUE LT PUSH2 0xF65 JUMPI DUP2 DUP1 DUP1 DUP1 PUSH2 0xF3E SWAP5 PUSH1 0x1 DUP1 PUSH1 0xA0 SHL SUB DUP3 SLOAD AND GAS CALL PUSH2 0xC28 PUSH2 0x4E8F JUMP JUMPDEST PUSH1 0xB SLOAD PUSH2 0xF60 SWAP1 PUSH1 0xA4 CALLDATALOAD SWAP1 PUSH1 0x1 PUSH1 0x1 PUSH1 0xA0 SHL SUB SWAP1 DUP2 AND SWAP1 CALLER SWAP1 PUSH1 0x64 CALLDATALOAD AND PUSH2 0x4F1F JUMP JUMPDEST PUSH2 0xC51 JUMP JUMPDEST PUSH1 0x40 MLOAD PUSH3 0x461BCD PUSH1 0xE5 SHL DUP2 MSTORE PUSH1 0x20 PUSH1 0x4 DUP3 ADD MSTORE PUSH1 0x31 PUSH1 0x24 DUP3 ADD MSTORE PUSH32 0x4D61726B65744D616E616765723A20496E73756666696369656E742050455055 PUSH1 0x44 DUP3 ADD MSTORE PUSH17 0x20666F72206372656174696F6E20666565 PUSH1 0x78 SHL PUSH1 0x64 DUP3 ADD MSTORE PUSH1 0x84 SWAP1 REVERT JUMPDEST PUSH4 0x4E487B71 PUSH1 0xE0 SHL PUSH1 0x0 MSTORE PUSH1 0x41 PUSH1 0x4 MSTORE PUSH1 0x24 PUSH1 0x0 REVERT JUMPDEST PUSH4 0x4E487B71 PUSH1 0xE0 SHL DUP6 MSTORE PUSH1 0x21 PUSH1 0x4 MSTORE PUSH1 0x24 DUP6 REVERT JUMPDEST ADD MLOAD SWAP1 POP CODESIZE DUP1 PUSH2 0xAA5 JUMP JUMPDEST SWAP3 POP PUSH1 0x1 DUP6 ADD DUP7 MSTORE PUSH1 0x20 DUP7 KECCAK256 SWAP1 DUP7 SWAP4 JUMPDEST PUSH1 0x1F NOT DUP5 AND DUP6 LT PUSH2 0x104D JUMPI PUSH1 0x1 SWAP5 POP DUP4 PUSH1 0x1F NOT DUP2 AND LT PUSH2 0x1034 JUMPI JUMPDEST POP POP POP DUP2 SHL ADD PUSH1 0x1 DUP4 ADD SSTORE PUSH2 0xABD JUMP JUMPDEST ADD MLOAD PUSH1 0x0 NOT PUSH1 0xF8 DUP5 PUSH1 0x3 SHL AND SHR NOT AND SWAP1 SSTORE CODESIZE DUP1 DUP1 PUSH2 0x1024 JUMP JUMPDEST DUP2 DUP2 ADD MLOAD DUP4 SSTORE PUSH1 0x20 SWAP5 DUP6 ADD SWAP5 PUSH1 0x1 SWAP1 SWAP4 ADD SWAP3 SWAP1 SWAP2 ADD SWAP1 PUSH2 0x1009 JUMP JUMPDEST PUSH2 0x1096 SWAP1 PUSH1 0x1 DUP8 ADD DUP9 MSTORE PUSH1 0x20 DUP9 KECCAK256 PUSH1 0x1F DUP6 ADD PUSH1 0x5 SHR DUP2 ADD SWAP2 PUSH1 0x20 DUP7 LT PUSH2 0x109C JUMPI JUMPDEST PUSH1 0x1F ADD PUSH1 0x5 SHR ADD SWAP1 PUSH2 0x4E55 JUMP JUMPDEST CODESIZE PUSH2 0xA8F JUMP JUMPDEST SWAP1 SWAP2 POP DUP2 SWAP1 PUSH2 0x1089 JUMP JUMPDEST PUSH4 0x4E487B71 PUSH1 0xE0 SHL DUP6 MSTORE PUSH1 0x41 PUSH1 0x4 MSTORE PUSH1 0x24 DUP6 REVERT JUMPDEST PUSH4 0x4E487B71 PUSH1 0xE0 SHL DUP2 MSTORE PUSH1 0x11 PUSH1 0x4 MSTORE PUSH1 0x24 SWAP1 REVERT JUMPDEST PUSH4 0x4E487B71 PUSH1 0xE0 SHL DUP4 MSTORE PUSH1 0x11 PUSH1 0x4 MSTORE PUSH1 0x24 DUP4 REVERT JUMPDEST PUSH1 0x40 MLOAD PUSH3 0x461BCD PUSH1 0xE5 SHL DUP2 MSTORE PUSH1 0x20 PUSH1 0x4 DUP3 ADD MSTORE PUSH1 0x28 PUSH1 0x24 DUP3 ADD MSTORE PUSH32 0x4D61726B65744D616E616765723A20496E73756666696369656E742063726561 PUSH1 0x44 DUP3 ADD MSTORE PUSH8 0x74696F6E20666565 PUSH1 0xC0 SHL PUSH1 0x64 DUP3 ADD MSTORE PUSH1 0x84 SWAP1 REVERT JUMPDEST PUSH1 0x40 MLOAD PUSH3 0x461BCD PUSH1 0xE5 SHL DUP2 MSTORE PUSH1 0x20 PUSH1 0x4 DUP3 ADD MSTORE PUSH1 0x33 PUSH1 0x24 DUP3 ADD MSTORE PUSH32 0x4D61726B65744D616E616765723A20546F6B656E206E6F7420737570706F7274 PUSH1 0x44 DUP3 ADD MSTORE PUSH19 0x32B2103337B91036BAB63A3496B7B83A34B7B7 PUSH1 0x69 SHL PUSH1 0x64 DUP3 ADD MSTORE PUSH1 0x84 SWAP1 REVERT JUMPDEST PUSH1 0x40 MLOAD PUSH3 0x461BCD PUSH1 0xE5 SHL DUP2 MSTORE PUSH1 0x20 PUSH1 0x4 DUP3 ADD MSTORE PUSH1 0x35 PUSH1 0x24 DUP3 ADD MSTORE PUSH32 0x4D61726B65744D616E616765723A204D756C74692D6F7074696F6E206D61726B PUSH1 0x44 DUP3 ADD MSTORE PUSH21 0x32BA39903932B8BAB4B93290281928103A37B5B2B7 PUSH1 0x59 SHL PUSH1 0x64 DUP3 ADD MSTORE PUSH1 0x84 SWAP1 REVERT JUMPDEST PUSH1 0x64 CALLDATALOAD PUSH1 0x1 PUSH1 0x1 PUSH1 0xA0 SHL SUB AND ISZERO PUSH2 0x974 JUMPI PUSH1 0x64 CALLDATALOAD PUSH1 0x1 PUSH1 0x1 PUSH1 0xA0 SHL SUB AND DUP3 MSTORE PUSH1 0x7 PUSH1 0x20 MSTORE PUSH1 0x40 DUP3 KECCAK256 SLOAD PUSH2 0x1231 SWAP1 PUSH1 0xFF AND PUSH2 0x4DD6 JUMP JUMPDEST PUSH2 0x974 JUMP JUMPDEST PUSH1 0x40 MLOAD PUSH3 0x461BCD PUSH1 0xE5 SHL DUP2 MSTORE PUSH1 0x20 PUSH1 0x4 DUP3 ADD MSTORE PUSH1 0x25 PUSH1 0x24 DUP3 ADD MSTORE PUSH32 0x4D61726B65744D616E616765723A2042656C6F77206D696E696D756D20647572 PUSH1 0x44 DUP3 ADD MSTORE PUSH5 0x30BA34B7B7 PUSH1 0xD9 SHL PUSH1 0x64 DUP3 ADD MSTORE PUSH1 0x84 SWAP1 REVERT JUMPDEST PUSH1 0x40 MLOAD PUSH3 0x461BCD PUSH1 0xE5 SHL DUP2 MSTORE PUSH1 0x20 PUSH1 0x4 DUP3 ADD MSTORE PUSH1 0x26 PUSH1 0x24 DUP3 ADD MSTORE PUSH32 0x4D61726B65744D616E616765723A20496E76616C69642063726561746F72206F PUSH1 0x44 DUP3 ADD MSTORE PUSH6 0x7574636F6D65 PUSH1 0xD0 SHL PUSH1 0x64 DUP3 ADD MSTORE PUSH1 0x84 SWAP1 REVERT JUMPDEST POP PUSH1 0x44 CALLDATALOAD PUSH1 0xC4 CALLDATALOAD GT ISZERO PUSH2 0x92C JUMP JUMPDEST PUSH1 0x40 MLOAD PUSH3 0x461BCD PUSH1 0xE5 SHL DUP2 MSTORE PUSH1 0x20 PUSH1 0x4 DUP3 ADD MSTORE PUSH1 0x26 PUSH1 0x24 DUP3 ADD MSTORE PUSH32 0x4D61726B65744D616E616765723A20496E76616C69642063726561746F722064 PUSH1 0x44 DUP3 ADD MSTORE PUSH6 0x195C1BDCDA5D PUSH1 0xD2 SHL PUSH1 0x64 DUP3 ADD MSTORE PUSH1 0x84 SWAP1 REVERT JUMPDEST PUSH1 0x64 PUSH1 0x40 MLOAD PUSH3 0x461BCD PUSH1 0xE5 SHL DUP2 MSTORE PUSH1 0x20 PUSH1 0x4 DUP3 ADD MSTORE PUSH1 0x20 PUSH1 0x24 DUP3 ADD MSTORE PUSH32 0x4D61726B65744D616E616765723A20496E76616C6964206D696E207374616B65 PUSH1 0x44 DUP3 ADD MSTORE REVERT JUMPDEST PUSH1 0x40 MLOAD PUSH3 0x461BCD PUSH1 0xE5 SHL DUP2 MSTORE PUSH1 0x20 PUSH1 0x4 DUP3 ADD MSTORE PUSH1 0x22 PUSH1 0x24 DUP3 ADD MSTORE PUSH32 0x4D61726B65744D616E616765723A20496E76616C6964206D6178206F7074696F PUSH1 0x44 DUP3 ADD MSTORE PUSH2 0x6E73 PUSH1 0xF0 SHL PUSH1 0x64 DUP3 ADD MSTORE PUSH1 0x84 SWAP1 REVERT JUMPDEST POP PUSH1 0xA PUSH1 0x44 CALLDATALOAD GT ISZERO PUSH2 0x90C JUMP JUMPDEST PUSH1 0x64 PUSH1 0x40 MLOAD PUSH3 0x461BCD PUSH1 0xE5 SHL DUP2 MSTORE PUSH1 0x20 PUSH1 0x4 DUP3 ADD MSTORE PUSH1 0x20 PUSH1 0x24 DUP3 ADD MSTORE PUSH32 0x4D61726B65744D616E616765723A20496E76616C696420495046532068617368 PUSH1 0x44 DUP3 ADD MSTORE REVERT JUMPDEST POP CALLVALUE PUSH2 0x351 JUMPI PUSH1 0x20 CALLDATASIZE PUSH1 0x3 NOT ADD SLT PUSH2 0x351 JUMPI PUSH1 0x40 PUSH2 0x3A3 SWAP2 PUSH2 0x1444 PUSH2 0x5B1B JUMP JUMPDEST POP PUSH1 0x4 CALLDATALOAD DUP2 MSTORE PUSH1 0x1 PUSH1 0x20 MSTORE KECCAK256 PUSH1 0xFF PUSH1 0xD PUSH1 0x40 MLOAD SWAP3 PUSH2 0x1461 DUP5 PUSH2 0x4BA7 JUMP JUMPDEST DUP1 SLOAD PUSH1 0x1 PUSH1 0x1 PUSH1 0xA0 SHL SUB SWAP1 DUP2 AND DUP6 MSTORE PUSH2 0x147C PUSH1 0x1 DUP4 ADD PUSH2 0x4C9F JUMP JUMPDEST PUSH1 0x20 DUP7 ADD MSTORE DUP4 PUSH1 0x2 DUP4 ADD SLOAD AND ISZERO ISZERO PUSH1 0x40 DUP7 ADD MSTORE PUSH1 0x3 DUP3 ADD SLOAD PUSH1 0x60 DUP7 ADD MSTORE PUSH1 0x4 DUP3 ADD SLOAD AND PUSH1 0x80 DUP6 ADD MSTORE PUSH1 0x5 DUP2 ADD SLOAD PUSH1 0xA0 DUP6 ADD MSTORE PUSH1 0x6 DUP2 ADD SLOAD PUSH1 0xC0 DUP6 ADD MSTORE PUSH1 0x7 DUP2 ADD SLOAD PUSH1 0xE0 DUP6 ADD MSTORE PUSH1 0x8 DUP2 ADD SLOAD PUSH2 0x100 DUP6 ADD MSTORE PUSH1 0x9 DUP2 ADD SLOAD PUSH2 0x120 DUP6 ADD MSTORE PUSH1 0xA DUP2 ADD SLOAD PUSH2 0x140 DUP6 ADD MSTORE PUSH2 0x14F7 DUP4 PUSH1 0xB DUP4 ADD SLOAD AND PUSH2 0x160 DUP7 ADD PUSH2 0x4E49 JUMP JUMPDEST PUSH1 0xC DUP2 ADD SLOAD PUSH2 0x180 DUP6 ADD MSTORE ADD SLOAD AND ISZERO ISZERO PUSH2 0x1A0 DUP3 ADD MSTORE PUSH1 0x40 MLOAD SWAP2 DUP3 SWAP2 PUSH1 0x20 DUP4 MSTORE PUSH1 0x20 DUP4 ADD SWAP1 PUSH2 0x4AC7 JUMP JUMPDEST POP CALLVALUE PUSH2 0x351 JUMPI PUSH1 0x40 CALLDATASIZE PUSH1 0x3 NOT ADD SLT PUSH2 0x351 JUMPI PUSH1 0x4 CALLDATALOAD DUP1 ISZERO ISZERO SWAP1 DUP2 DUP2 SUB PUSH2 0x87C JUMPI PUSH1 0x24 CALLDATALOAD SWAP2 PUSH2 0x154D PUSH2 0x4D54 JUMP JUMPDEST PUSH1 0xFF DUP1 NOT PUSH1 0x11 SLOAD AND SWAP2 AND OR PUSH1 0x11 SSTORE PUSH2 0x1563 JUMPI POP DUP1 RETURN JUMPDEST DUP1 ISZERO PUSH2 0x156F JUMPI PUSH1 0x12 SSTORE DUP1 RETURN JUMPDEST PUSH1 0x40 MLOAD PUSH3 0x461BCD PUSH1 0xE5 SHL DUP2 MSTORE PUSH1 0x20 PUSH1 0x4 DUP3 ADD MSTORE PUSH1 0x2B PUSH1 0x24 DUP3 ADD MSTORE PUSH32 0x4D61726B65744D616E616765723A20496E76616C696420726573747269637469 PUSH1 0x44 DUP3 ADD MSTORE PUSH11 0x37B710323AB930BA34B7B7 PUSH1 0xA9 SHL PUSH1 0x64 DUP3 ADD MSTORE PUSH1 0x84 SWAP1 REVERT JUMPDEST POP CALLVALUE PUSH2 0x351 JUMPI PUSH2 0x15D7 CALLDATASIZE PUSH2 0x4B7D JUMP JUMPDEST SWAP2 SWAP1 DUP2 MSTORE PUSH1 0x5 PUSH1 0x20 MSTORE PUSH1 0x40 DUP2 KECCAK256 SWAP1 DUP2 SLOAD DUP4 LT ISZERO PUSH2 0x351 JUMPI PUSH1 0x20 PUSH2 0x15FA DUP5 DUP5 PUSH2 0x4A11 JUMP JUMPDEST SWAP1 SLOAD PUSH1 0x40 MLOAD PUSH1 0x3 SWAP3 SWAP1 SWAP3 SHL SHR PUSH1 0x1 PUSH1 0x1 PUSH1 0xA0 SHL SUB AND DUP2 MSTORE RETURN JUMPDEST POP CALLVALUE PUSH2 0x351 JUMPI PUSH1 0x60 CALLDATASIZE PUSH1 0x3 NOT ADD SLT PUSH2 0x351 JUMPI PUSH1 0x44 CALLDATALOAD SWAP1 PUSH1 0x1 PUSH1 0x1 PUSH1 0xA0 SHL SUB DUP1 DUP4 AND DUP4 SUB PUSH2 0x87C JUMPI PUSH1 0xB SLOAD PUSH1 0x40 MLOAD PUSH4 0xDC4CE349 PUSH1 0xE0 SHL DUP2 MSTORE PUSH1 0x4 DUP1 CALLDATALOAD SWAP1 DUP3 ADD MSTORE PUSH1 0x24 DUP1 CALLDATALOAD SWAP1 DUP3 ADD MSTORE PUSH1 0x1 PUSH1 0x1 PUSH1 0xA0 SHL SUB SWAP1 SWAP5 AND PUSH1 0x44 DUP6 ADD MSTORE PUSH1 0x20 SWAP2 DUP5 SWAP2 AND DUP2 DUP1 PUSH1 0x64 DUP2 ADD PUSH2 0x836 JUMP JUMPDEST POP CALLVALUE PUSH2 0x351 JUMPI PUSH1 0x40 CALLDATASIZE PUSH1 0x3 NOT ADD SLT PUSH2 0x351 JUMPI PUSH2 0x1695 PUSH2 0x490B JUMP JUMPDEST PUSH2 0x169D PUSH2 0x4D45 JUMP JUMPDEST SWAP1 PUSH2 0x16A6 PUSH2 0x4D54 JUMP JUMPDEST PUSH1 0x1 PUSH1 0x1 PUSH1 0xA0 SHL SUB AND SWAP1 DUP2 ISZERO PUSH2 0x16D9 JUMPI PUSH2 0x16D6 SWAP2 DUP4 MSTORE PUSH1 0xA PUSH1 0x20 MSTORE PUSH1 0x40 DUP4 KECCAK256 SWAP1 PUSH1 0xFF DUP1 NOT DUP4 SLOAD AND SWAP2 ISZERO ISZERO AND OR SWAP1 SSTORE JUMP JUMPDEST DUP1 RETURN JUMPDEST PUSH1 0x40 MLOAD PUSH3 0x461BCD PUSH1 0xE5 SHL DUP2 MSTORE PUSH1 0x20 PUSH1 0x4 DUP3 ADD MSTORE PUSH1 0x25 PUSH1 0x24 DUP3 ADD MSTORE PUSH32 0x4D61726B65744D616E616765723A20496E76616C69642077616C6C6574206164 PUSH1 0x44 DUP3 ADD MSTORE PUSH5 0x6472657373 PUSH1 0xD8 SHL PUSH1 0x64 DUP3 ADD MSTORE PUSH1 0x84 SWAP1 REVERT JUMPDEST POP CALLVALUE PUSH2 0x351 JUMPI DUP1 PUSH1 0x3 NOT CALLDATASIZE ADD SLT PUSH2 0x351 JUMPI PUSH1 0x9 SLOAD PUSH2 0x1749 DUP2 PUSH2 0x5992 JUMP JUMPDEST SWAP1 PUSH2 0x1757 PUSH1 0x40 MLOAD SWAP3 DUP4 PUSH2 0x4BE0 JUMP JUMPDEST DUP1 DUP3 MSTORE PUSH1 0x1F NOT SWAP3 DUP4 PUSH2 0x1768 DUP4 PUSH2 0x5992 JUMP JUMPDEST ADD SWAP4 PUSH1 0x20 SWAP5 CALLDATASIZE DUP7 DUP7 ADD CALLDATACOPY PUSH2 0x177B DUP4 PUSH2 0x5992 JUMP JUMPDEST SWAP3 PUSH2 0x1789 PUSH1 0x40 MLOAD SWAP5 DUP6 PUSH2 0x4BE0 JUMP JUMPDEST DUP1 DUP5 MSTORE DUP2 PUSH2 0x1796 DUP3 PUSH2 0x5992 JUMP JUMPDEST ADD DUP4 JUMPDEST DUP2 DUP2 LT PUSH2 0x1892 JUMPI POP POP DUP3 JUMPDEST DUP2 DUP2 LT PUSH2 0x181D JUMPI POP POP PUSH2 0x17C2 PUSH1 0x40 MLOAD SWAP5 PUSH1 0x40 DUP7 MSTORE PUSH1 0x40 DUP7 ADD SWAP1 PUSH2 0x48B8 JUMP JUMPDEST SWAP5 DUP5 DUP7 SUB DUP2 DUP7 ADD MSTORE DUP4 MLOAD SWAP2 DUP3 DUP8 MSTORE DUP2 DUP8 ADD SWAP1 DUP3 DUP1 DUP6 PUSH1 0x5 SHL DUP11 ADD ADD SWAP7 ADD SWAP5 SWAP8 JUMPDEST DUP5 DUP10 LT PUSH2 0x17EF JUMPI DUP8 DUP8 SUB DUP9 RETURN JUMPDEST SWAP1 SWAP2 SWAP3 SWAP4 SWAP5 SWAP6 DUP5 DUP1 PUSH2 0x180B DUP4 DUP7 DUP7 PUSH1 0x1 SWAP7 SUB ADD DUP9 MSTORE DUP11 MLOAD PUSH2 0x4A64 JUMP JUMPDEST SWAP9 ADD SWAP5 ADD SWAP9 ADD SWAP8 SWAP2 SWAP1 SWAP5 SWAP4 SWAP3 SWAP5 PUSH2 0x17E2 JUMP JUMPDEST DUP1 PUSH2 0x182E PUSH2 0x1889 SWAP3 SWAP9 SWAP5 SWAP6 SWAP9 PUSH2 0x4956 JUMP JUMPDEST SWAP1 SLOAD PUSH1 0x1 PUSH1 0x1 PUSH1 0xA0 SHL SUB SWAP2 PUSH1 0x3 SWAP2 SWAP1 DUP3 SHL SHR DUP3 AND PUSH2 0x184C DUP5 DUP12 PUSH2 0x59AA JUMP JUMPDEST MSTORE PUSH2 0x1856 DUP4 PUSH2 0x4956 JUMP JUMPDEST SWAP1 SLOAD SWAP2 SHL SHR AND DUP9 MSTORE PUSH1 0x8 DUP5 MSTORE PUSH2 0x186E PUSH1 0x40 DUP10 KECCAK256 PUSH2 0x4C9F JUMP JUMPDEST PUSH2 0x1878 DUP3 DUP9 PUSH2 0x59AA JUMP JUMPDEST MSTORE PUSH2 0x1883 DUP2 DUP8 PUSH2 0x59AA JUMP JUMPDEST POP PUSH2 0x4E3A JUMP JUMPDEST SWAP6 SWAP3 SWAP2 SWAP6 PUSH2 0x17A4 JUMP JUMPDEST PUSH1 0x60 DUP7 DUP3 ADD DUP10 ADD MSTORE DUP8 ADD PUSH2 0x1799 JUMP JUMPDEST POP CALLVALUE PUSH2 0x351 JUMPI DUP1 PUSH1 0x3 NOT CALLDATASIZE ADD SLT PUSH2 0x351 JUMPI PUSH1 0x20 PUSH1 0x9 SLOAD PUSH1 0x40 MLOAD SWAP1 DUP2 MSTORE RETURN JUMPDEST POP CALLVALUE PUSH2 0x351 JUMPI DUP1 PUSH1 0x3 NOT CALLDATASIZE ADD SLT PUSH2 0x351 JUMPI PUSH1 0x16 SLOAD PUSH2 0x18DC DUP2 PUSH2 0x5B84 JUMP JUMPDEST DUP3 SWAP2 DUP4 JUMPDEST DUP2 DUP2 LT PUSH2 0x192D JUMPI POP POP PUSH2 0x18F2 DUP3 PUSH2 0x5B84 JUMP JUMPDEST SWAP3 JUMPDEST DUP3 DUP2 LT PUSH2 0x1909 JUMPI PUSH1 0x40 MLOAD DUP1 PUSH2 0x3A3 DUP7 DUP3 PUSH2 0x4A29 JUMP JUMPDEST DUP1 PUSH2 0x1917 PUSH2 0x1928 SWAP3 DUP5 PUSH2 0x59AA JUMP JUMPDEST MLOAD PUSH2 0x1922 DUP3 DUP8 PUSH2 0x59AA JUMP JUMPDEST MSTORE PUSH2 0x4E3A JUMP JUMPDEST PUSH2 0x18F4 JUMP JUMPDEST PUSH2 0x1936 DUP2 PUSH2 0x49DA JUMP JUMPDEST SWAP1 SLOAD SWAP1 PUSH1 0x3 SHL SHR DUP1 DUP7 MSTORE PUSH1 0x20 PUSH1 0x1 DUP2 MSTORE PUSH1 0xFF PUSH1 0xB PUSH1 0x40 DUP10 KECCAK256 ADD SLOAD AND PUSH1 0x5 DUP2 LT ISZERO PUSH2 0x19CA JUMPI PUSH1 0x4 EQ SWAP1 DUP2 PUSH2 0x1993 JUMPI JUMPDEST POP PUSH2 0x1979 JUMPI JUMPDEST POP PUSH2 0x1974 SWAP1 PUSH2 0x4E3A JUMP JUMPDEST PUSH2 0x18E0 JUMP JUMPDEST DUP5 PUSH2 0x198C SWAP2 PUSH2 0x1922 PUSH2 0x1974 SWAP5 SWAP8 DUP8 PUSH2 0x59AA JUMP JUMPDEST SWAP4 SWAP1 PUSH2 0x196A JUMP JUMPDEST PUSH1 0x17 SWAP2 POP DUP3 DUP9 MSTORE MSTORE PUSH1 0x40 DUP7 KECCAK256 SLOAD PUSH3 0x278D00 DUP2 ADD DUP1 SWAP2 GT PUSH2 0x19B6 JUMPI TIMESTAMP LT ISZERO CODESIZE PUSH2 0x1964 JUMP JUMPDEST PUSH4 0x4E487B71 PUSH1 0xE0 SHL DUP8 MSTORE PUSH1 0x11 PUSH1 0x4 MSTORE PUSH1 0x24 DUP8 REVERT JUMPDEST PUSH4 0x4E487B71 PUSH1 0xE0 SHL DUP9 MSTORE PUSH1 0x21 PUSH1 0x4 MSTORE PUSH1 0x24 DUP9 REVERT JUMPDEST POP CALLVALUE PUSH2 0x351 JUMPI PUSH1 0x20 CALLDATASIZE PUSH1 0x3 NOT ADD SLT PUSH2 0x351 JUMPI PUSH1 0x4 CALLDATALOAD DUP1 DUP3 MSTORE PUSH1 0x1 PUSH1 0x20 MSTORE PUSH1 0x40 DUP3 KECCAK256 DUP1 SLOAD PUSH1 0x1 PUSH1 0x1 PUSH1 0xA0 SHL SUB AND CALLER SUB PUSH2 0x1ADA JUMPI PUSH1 0xFF PUSH1 0xB DUP3 ADD SLOAD AND PUSH1 0x5 DUP2 LT ISZERO PUSH2 0x1AC6 JUMPI SWAP1 PUSH2 0x1A2E PUSH1 0x9 SWAP3 ISZERO PUSH2 0x4FCA JUMP JUMPDEST ADD SLOAD PUSH2 0xA8BF NOT DUP2 ADD SWAP1 DUP2 GT PUSH2 0x10CE JUMPI TIMESTAMP LT ISZERO PUSH2 0x1A77 JUMPI PUSH1 0x40 MLOAD PUSH2 0x16D6 SWAP2 PUSH2 0x1A54 DUP3 PUSH2 0x4BC4 JUMP JUMPDEST PUSH1 0x11 DUP3 MSTORE PUSH17 0x10DC99585D1BDC8818D85B98D95B1B1959 PUSH1 0x7A SHL PUSH1 0x20 DUP4 ADD MSTORE PUSH2 0x55C3 JUMP JUMPDEST PUSH1 0x40 MLOAD PUSH3 0x461BCD PUSH1 0xE5 SHL DUP2 MSTORE PUSH1 0x20 PUSH1 0x4 DUP3 ADD MSTORE PUSH1 0x21 PUSH1 0x24 DUP3 ADD MSTORE PUSH32 0x4D61726B65744D616E616765723A20546F6F206C61746520746F2063616E6365 PUSH1 0x44 DUP3 ADD MSTORE PUSH1 0x1B PUSH1 0xFA SHL PUSH1 0x64 DUP3 ADD MSTORE PUSH1 0x84 SWAP1 REVERT JUMPDEST PUSH4 0x4E487B71 PUSH1 0xE0 SHL DUP5 MSTORE PUSH1 0x21 PUSH1 0x4 MSTORE PUSH1 0x24 DUP5 REVERT JUMPDEST PUSH1 0x40 MLOAD PUSH3 0x461BCD PUSH1 0xE5 SHL DUP2 MSTORE PUSH1 0x20 PUSH1 0x4 DUP3 ADD MSTORE PUSH1 0x26 PUSH1 0x24 DUP3 ADD MSTORE PUSH32 0x4D61726B65744D616E616765723A204F6E6C792063726561746F722063616E20 PUSH1 0x44 DUP3 ADD MSTORE PUSH6 0x18D85B98D95B PUSH1 0xD2 SHL PUSH1 0x64 DUP3 ADD MSTORE PUSH1 0x84 SWAP1 REVERT JUMPDEST POP CALLVALUE PUSH2 0x351 JUMPI PUSH2 0x1B3D CALLDATASIZE PUSH2 0x4B7D JUMP JUMPDEST SWAP2 SWAP1 DUP2 MSTORE PUSH1 0x6 PUSH1 0x20 MSTORE PUSH1 0x40 DUP2 KECCAK256 SWAP1 DUP2 SLOAD DUP4 LT ISZERO PUSH2 0x351 JUMPI PUSH1 0x20 PUSH2 0x15FA DUP5 DUP5 PUSH2 0x4A11 JUMP JUMPDEST POP CALLVALUE PUSH2 0x351 JUMPI DUP1 PUSH1 0x3 NOT CALLDATASIZE ADD SLT PUSH2 0x351 JUMPI PUSH1 0x20 PUSH1 0x12 SLOAD PUSH1 0x40 MLOAD SWAP1 DUP2 MSTORE RETURN JUMPDEST POP CALLVALUE PUSH2 0x351 JUMPI DUP1 PUSH1 0x3 NOT CALLDATASIZE ADD SLT PUSH2 0x351 JUMPI PUSH1 0xE SLOAD PUSH1 0x0 NOT SWAP1 DUP2 DUP2 ADD DUP2 DUP2 GT PUSH2 0x1BF4 JUMPI PUSH2 0x1BA9 SWAP1 PUSH2 0x5B84 JUMP JUMPDEST SWAP2 PUSH1 0x1 JUMPDEST DUP3 DUP2 LT PUSH2 0x1BC2 JUMPI PUSH1 0x40 MLOAD DUP1 PUSH2 0x3A3 DUP7 DUP3 PUSH2 0x4A29 JUMP JUMPDEST DUP2 DUP2 ADD DUP2 DUP2 GT PUSH2 0x1BE0 JUMPI SWAP1 DUP1 PUSH2 0x1922 PUSH2 0x1BDB SWAP4 DUP8 PUSH2 0x59AA JUMP JUMPDEST PUSH2 0x1BAD JUMP JUMPDEST PUSH4 0x4E487B71 PUSH1 0xE0 SHL DUP7 MSTORE PUSH1 0x11 PUSH1 0x4 MSTORE PUSH1 0x24 DUP7 REVERT JUMPDEST PUSH4 0x4E487B71 PUSH1 0xE0 SHL DUP5 MSTORE PUSH1 0x11 PUSH1 0x4 MSTORE PUSH1 0x24 DUP5 REVERT JUMPDEST POP CALLVALUE PUSH2 0x351 JUMPI PUSH1 0x20 CALLDATASIZE PUSH1 0x3 NOT ADD SLT PUSH2 0x351 JUMPI PUSH1 0x4 CALLDATALOAD DUP2 MSTORE PUSH1 0x1 PUSH1 0x20 DUP2 SWAP1 MSTORE PUSH1 0x40 SWAP1 SWAP2 KECCAK256 DUP1 SLOAD PUSH1 0x1 PUSH1 0x1 PUSH1 0xA0 SHL SUB SWAP3 SWAP1 DUP4 AND SWAP2 SWAP1 PUSH2 0x1C46 SWAP1 DUP3 ADD PUSH2 0x4C9F JUMP JUMPDEST SWAP3 PUSH1 0x2 DUP3 ADD SLOAD PUSH1 0xFF AND SWAP2 PUSH1 0x3 DUP2 ADD SLOAD SWAP2 PUSH1 0x4 DUP3 ADD SLOAD AND PUSH1 0x5 DUP3 ADD SLOAD PUSH1 0x6 DUP4 ADD SLOAD PUSH1 0x7 DUP5 ADD SLOAD PUSH1 0x8 DUP6 ADD SLOAD SWAP1 PUSH1 0x9 DUP7 ADD SLOAD SWAP3 PUSH1 0xA DUP8 ADD SLOAD SWAP5 PUSH1 0xB DUP9 ADD SLOAD PUSH1 0xFF AND SWAP7 PUSH1 0xC DUP10 ADD SLOAD SWAP9 PUSH1 0xD ADD SLOAD PUSH1 0xFF AND SWAP10 PUSH1 0x40 MLOAD DUP1 SWAP15 DUP2 SWAP15 DUP3 MSTORE PUSH2 0x1C0 DUP1 PUSH1 0x20 DUP5 ADD MSTORE DUP3 ADD PUSH2 0x1CB1 SWAP2 PUSH2 0x4A64 JUMP JUMPDEST SWAP13 ISZERO ISZERO SWAP1 PUSH1 0x40 ADD MSTORE PUSH1 0x60 DUP14 ADD MSTORE PUSH1 0x80 DUP13 ADD MSTORE PUSH1 0xA0 DUP12 ADD MSTORE PUSH1 0xC0 DUP11 ADD MSTORE PUSH1 0xE0 DUP10 ADD MSTORE PUSH2 0x100 DUP9 ADD MSTORE PUSH2 0x120 DUP8 ADD MSTORE PUSH2 0x140 DUP7 ADD MSTORE PUSH2 0x160 DUP6 ADD PUSH2 0x1CF2 SWAP2 PUSH2 0x4AA4 JUMP JUMPDEST PUSH2 0x180 DUP5 ADD MSTORE ISZERO ISZERO PUSH2 0x1A0 DUP4 ADD MSTORE SUB SWAP1 RETURN JUMPDEST POP CALLVALUE PUSH2 0x351 JUMPI PUSH1 0x20 CALLDATASIZE PUSH1 0x3 NOT ADD SLT PUSH2 0x351 JUMPI PUSH1 0x4 CALLDATALOAD SWAP1 DUP2 DUP2 MSTORE PUSH1 0x1 PUSH1 0x20 MSTORE PUSH1 0x40 DUP2 KECCAK256 SWAP2 PUSH1 0xB DUP4 ADD SWAP3 DUP4 SLOAD PUSH1 0xFF DUP2 AND SWAP5 PUSH1 0x5 DUP7 LT ISZERO PUSH2 0xFDA JUMPI PUSH2 0x1D4C PUSH1 0x1 PUSH1 0x24 SWAP6 SWAP7 SWAP8 EQ PUSH2 0x51C8 JUMP JUMPDEST PUSH1 0xD DUP4 ADD SWAP3 DUP4 SLOAD PUSH2 0x1D60 PUSH1 0xFF DUP3 AND ISZERO PUSH2 0x5225 JUMP JUMPDEST PUSH1 0xC SLOAD PUSH1 0x40 DUP1 MLOAD PUSH4 0x33138655 PUSH1 0xE2 SHL DUP2 MSTORE PUSH1 0x4 DUP2 ADD DUP11 SWAP1 MSTORE SWAP8 PUSH1 0x1 PUSH1 0x1 PUSH1 0xA0 SHL SUB SWAP7 SWAP3 DUP10 SWAP2 SWAP1 DUP3 SWAP1 DUP10 AND GAS STATICCALL SWAP7 DUP8 ISZERO PUSH2 0x1ED0 JUMPI DUP10 SWAP1 DUP11 SWAP9 PUSH2 0x1E9C JUMPI JUMPDEST POP ISZERO PUSH2 0x1E4B JUMPI DUP9 SWAP6 DUP8 PUSH1 0xC PUSH1 0x2 SWAP6 ADD SSTORE PUSH1 0x1 PUSH1 0xFF NOT DUP1 SWAP5 AND OR SWAP1 SSTORE AND OR SWAP1 SSTORE PUSH2 0x1DC4 DUP5 PUSH2 0x561E JUMP JUMPDEST PUSH1 0xD SLOAD AND DUP1 PUSH2 0x1DFE JUMPI JUMPDEST POP POP PUSH1 0x20 PUSH32 0x6DFC24F0F2FB42E49FB4FA3FFA8ABB148CAB908A1FB8335B3F128A08B2594AF1 SWAP2 PUSH1 0x40 MLOAD SWAP1 DUP2 MSTORE LOG2 DUP1 RETURN JUMPDEST DUP1 EXTCODESIZE ISZERO PUSH2 0x66E JUMPI DUP2 DUP1 SWAP2 PUSH1 0x44 PUSH1 0x40 MLOAD DUP1 SWAP5 DUP2 SWAP4 PUSH3 0xFF4A73 PUSH1 0xE8 SHL DUP4 MSTORE DUP10 PUSH1 0x4 DUP5 ADD MSTORE DUP9 PUSH1 0x24 DUP5 ADD MSTORE GAS CALL DUP1 ISZERO PUSH2 0x663 JUMPI ISZERO PUSH2 0x1DCE JUMPI PUSH2 0x1E3C SWAP1 PUSH2 0x4B93 JUMP JUMPDEST PUSH2 0x1E47 JUMPI DUP3 CODESIZE PUSH2 0x1DCE JUMP JUMPDEST DUP3 DUP1 REVERT JUMPDEST PUSH1 0x40 MLOAD PUSH3 0x461BCD PUSH1 0xE5 SHL DUP2 MSTORE PUSH1 0x20 PUSH1 0x4 DUP3 ADD MSTORE PUSH1 0x24 DUP1 DUP3 ADD MSTORE PUSH32 0x4D61726B65744D616E616765723A204E6F207265736F6C7574696F6E20726561 PUSH1 0x44 DUP3 ADD MSTORE PUSH4 0x18DA1959 PUSH1 0xE2 SHL PUSH1 0x64 DUP3 ADD MSTORE PUSH1 0x84 SWAP1 REVERT JUMPDEST SWAP1 POP PUSH2 0x1EC1 SWAP2 SWAP8 POP PUSH1 0x40 RETURNDATASIZE PUSH1 0x40 GT PUSH2 0x1EC9 JUMPI JUMPDEST PUSH2 0x1EB9 DUP2 DUP4 PUSH2 0x4BE0 JUMP JUMPDEST DUP2 ADD SWAP1 PUSH2 0x52B7 JUMP JUMPDEST SWAP7 SWAP1 CODESIZE PUSH2 0x1D9C JUMP JUMPDEST POP RETURNDATASIZE PUSH2 0x1EAF JUMP JUMPDEST PUSH1 0x40 MLOAD RETURNDATASIZE DUP12 DUP3 RETURNDATACOPY RETURNDATASIZE SWAP1 REVERT JUMPDEST POP CALLVALUE PUSH2 0x351 JUMPI PUSH1 0x20 CALLDATASIZE PUSH1 0x3 NOT ADD SLT PUSH2 0x351 JUMPI PUSH1 0x40 PUSH1 0x20 SWAP2 PUSH1 0x4 CALLDATALOAD DUP2 MSTORE PUSH1 0x17 DUP4 MSTORE KECCAK256 SLOAD PUSH1 0x40 MLOAD SWAP1 DUP2 MSTORE RETURN JUMPDEST POP CALLVALUE PUSH2 0x351 JUMPI DUP1 PUSH1 0x3 NOT CALLDATASIZE ADD SLT PUSH2 0x351 JUMPI PUSH1 0x40 MLOAD PUSH1 0x13 DUP1 SLOAD DUP1 DUP4 MSTORE SWAP1 DUP4 MSTORE PUSH1 0x20 DUP1 DUP4 ADD SWAP4 PUSH32 0x66DE8FFDA797E3DE9C05E8FC57B3BF0EC28A930D40B0D285D93C06501CF6A090 SWAP3 SWAP2 JUMPDEST DUP3 DUP3 LT PUSH2 0x1F70 JUMPI PUSH2 0x3A3 DUP6 PUSH2 0x1F64 DUP2 DUP10 SUB DUP3 PUSH2 0x4BE0 JUMP JUMPDEST PUSH1 0x40 MLOAD SWAP2 DUP3 SWAP2 DUP3 PUSH2 0x4A29 JUMP JUMPDEST DUP4 SLOAD DUP7 MSTORE SWAP5 DUP6 ADD SWAP5 PUSH1 0x1 SWAP4 DUP5 ADD SWAP4 SWAP1 SWAP2 ADD SWAP1 PUSH2 0x1F4D JUMP JUMPDEST POP CALLVALUE PUSH2 0x351 JUMPI PUSH1 0x20 CALLDATASIZE PUSH1 0x3 NOT ADD SLT PUSH2 0x351 JUMPI PUSH1 0x40 PUSH1 0x20 SWAP2 PUSH1 0x4 CALLDATALOAD DUP2 MSTORE PUSH1 0x6 DUP4 MSTORE KECCAK256 SLOAD PUSH1 0x40 MLOAD SWAP1 DUP2 MSTORE RETURN JUMPDEST POP CALLVALUE PUSH2 0x351 JUMPI PUSH1 0x20 CALLDATASIZE PUSH1 0x3 NOT ADD SLT PUSH2 0x351 JUMPI PUSH2 0x1FCB PUSH2 0x4D54 JUMP JUMPDEST PUSH1 0x4 CALLDATALOAD PUSH1 0xF SSTORE DUP1 RETURN JUMPDEST POP CALLVALUE PUSH2 0x351 JUMPI PUSH1 0x40 CALLDATASIZE PUSH1 0x3 NOT ADD SLT PUSH2 0x351 JUMPI PUSH2 0x1FEE PUSH2 0x490B JUMP JUMPDEST PUSH1 0x1 PUSH1 0x1 PUSH1 0xA0 SHL SUB AND DUP2 MSTORE PUSH1 0x15 PUSH1 0x20 MSTORE PUSH1 0x40 DUP2 KECCAK256 DUP1 SLOAD PUSH1 0x24 CALLDATALOAD SWAP3 SWAP1 DUP4 LT ISZERO PUSH2 0x351 JUMPI PUSH1 0x20 PUSH2 0x201C DUP5 DUP5 PUSH2 0x4A11 JUMP JUMPDEST SWAP1 SLOAD PUSH1 0x40 MLOAD SWAP2 PUSH1 0x3 SHL SHR DUP2 MSTORE RETURN JUMPDEST POP CALLVALUE PUSH2 0x351 JUMPI PUSH1 0x20 CALLDATASIZE PUSH1 0x3 NOT ADD SLT PUSH2 0x351 JUMPI PUSH2 0x2044 PUSH2 0x490B JUMP JUMPDEST PUSH2 0x204C PUSH2 0x4D54 JUMP JUMPDEST PUSH1 0x1 DUP1 PUSH1 0xA0 SHL SUB AND PUSH1 0x1 PUSH1 0x1 PUSH1 0x60 SHL SUB PUSH1 0xA0 SHL PUSH1 0xC SLOAD AND OR PUSH1 0xC SSTORE DUP1 RETURN JUMPDEST POP CALLVALUE PUSH2 0x351 JUMPI DUP1 PUSH1 0x3 NOT CALLDATASIZE ADD SLT PUSH2 0x351 JUMPI SLOAD PUSH1 0x40 MLOAD PUSH1 0x1 PUSH1 0x1 PUSH1 0xA0 SHL SUB SWAP1 SWAP2 AND DUP2 MSTORE PUSH1 0x20 SWAP1 RETURN JUMPDEST POP CALLVALUE PUSH2 0x351 JUMPI DUP1 PUSH1 0x3 NOT CALLDATASIZE ADD SLT PUSH2 0x351 JUMPI PUSH1 0x20 PUSH1 0xFF PUSH1 0x11 SLOAD AND PUSH1 0x40 MLOAD SWAP1 ISZERO ISZERO DUP2 MSTORE RETURN JUMPDEST POP CALLVALUE PUSH2 0x351 JUMPI PUSH1 0x20 CALLDATASIZE PUSH1 0x3 NOT ADD SLT PUSH2 0x351 JUMPI PUSH1 0x4 CALLDATALOAD SWAP1 PUSH1 0x16 SLOAD DUP3 LT ISZERO PUSH2 0x351 JUMPI PUSH1 0x20 PUSH2 0x201C DUP4 PUSH2 0x49DA JUMP JUMPDEST POP CALLVALUE PUSH2 0x351 JUMPI PUSH1 0x20 DUP1 PUSH1 0x3 NOT CALLDATASIZE ADD SLT PUSH2 0x66E JUMPI PUSH1 0x4 CALLDATALOAD DUP3 MSTORE PUSH1 0x6 DUP2 MSTORE PUSH1 0x40 DUP3 KECCAK256 SWAP2 PUSH1 0x40 MLOAD DUP1 SWAP4 DUP5 SWAP2 DUP5 DUP3 SLOAD SWAP2 DUP3 DUP2 MSTORE ADD SWAP2 DUP5 MSTORE DUP5 DUP5 KECCAK256 SWAP4 JUMPDEST DUP6 DUP3 DUP3 LT PUSH2 0x2142 JUMPI POP POP POP PUSH2 0x212E SWAP3 POP SUB DUP4 PUSH2 0x4BE0 JUMP JUMPDEST PUSH2 0x3A3 PUSH1 0x40 MLOAD SWAP3 DUP3 DUP5 SWAP4 DUP5 MSTORE DUP4 ADD SWAP1 PUSH2 0x48B8 JUMP JUMPDEST DUP6 SLOAD PUSH1 0x1 PUSH1 0x1 PUSH1 0xA0 SHL SUB AND DUP5 MSTORE PUSH1 0x1 SWAP6 DUP7 ADD SWAP6 DUP9 SWAP6 POP SWAP4 ADD SWAP3 ADD PUSH2 0x2117 JUMP JUMPDEST POP CALLVALUE PUSH2 0x351 JUMPI PUSH1 0x40 CALLDATASIZE PUSH1 0x3 NOT ADD SLT PUSH2 0x351 JUMPI PUSH1 0x40 PUSH2 0x217D PUSH2 0x48F5 JUMP JUMPDEST SWAP2 PUSH1 0x4 CALLDATALOAD DUP2 MSTORE PUSH1 0x2 PUSH1 0x20 MSTORE KECCAK256 SWAP1 PUSH1 0x1 DUP1 PUSH1 0xA0 SHL SUB AND PUSH1 0x0 MSTORE PUSH1 0x20 MSTORE PUSH1 0x20 PUSH1 0xFF PUSH1 0x40 PUSH1 0x0 KECCAK256 SLOAD AND PUSH1 0x40 MLOAD SWAP1 ISZERO ISZERO DUP2 MSTORE RETURN JUMPDEST POP CALLVALUE PUSH2 0x351 JUMPI PUSH1 0x20 CALLDATASIZE PUSH1 0x3 NOT ADD SLT PUSH2 0x351 JUMPI PUSH1 0x4 CALLDATALOAD PUSH1 0x18 SLOAD DUP2 LT ISZERO PUSH2 0x66E JUMPI PUSH1 0x20 SWAP1 PUSH1 0x18 PUSH1 0x0 MSTORE PUSH32 0xB13D2D76D1F4B7BE834882E410B3E3A8AFAF69F83600AE24DB354391D2378D2E ADD SLOAD PUSH1 0x40 MLOAD SWAP1 DUP2 MSTORE RETURN JUMPDEST POP CALLVALUE PUSH2 0x351 JUMPI DUP1 PUSH1 0x3 NOT CALLDATASIZE ADD SLT PUSH2 0x351 JUMPI PUSH1 0xD SLOAD PUSH1 0x40 MLOAD PUSH1 0x1 PUSH1 0x1 PUSH1 0xA0 SHL SUB SWAP1 SWAP2 AND DUP2 MSTORE PUSH1 0x20 SWAP1 RETURN JUMPDEST POP CALLVALUE PUSH2 0x351 JUMPI PUSH1 0x20 CALLDATASIZE PUSH1 0x3 NOT ADD SLT PUSH2 0x351 JUMPI PUSH1 0x4 CALLDATALOAD DUP1 DUP3 MSTORE PUSH1 0x1 PUSH1 0x20 MSTORE PUSH1 0x40 DUP3 KECCAK256 SWAP1 PUSH1 0xFF PUSH1 0xB DUP4 ADD SLOAD AND PUSH1 0x5 DUP2 LT ISZERO PUSH2 0x1AC6 JUMPI PUSH1 0x1 PUSH2 0x2267 SWAP2 EQ PUSH2 0x51C8 JUMP JUMPDEST PUSH1 0xA DUP3 ADD SLOAD TIMESTAMP LT PUSH2 0x2294 JUMPI PUSH2 0x2286 PUSH1 0xFF PUSH1 0xD PUSH2 0x16D6 SWAP5 ADD SLOAD AND ISZERO PUSH2 0x5225 JUMP JUMPDEST PUSH2 0x228E PUSH2 0x5271 JUMP JUMPDEST SWAP1 PUSH2 0x55C3 JUMP JUMPDEST PUSH1 0x40 MLOAD PUSH3 0x461BCD PUSH1 0xE5 SHL DUP2 MSTORE PUSH1 0x20 PUSH1 0x4 DUP3 ADD MSTORE PUSH1 0x2A PUSH1 0x24 DUP3 ADD MSTORE PUSH32 0x4D61726B65744D616E616765723A205265736F6C7574696F6E20706572696F64 PUSH1 0x44 DUP3 ADD MSTORE PUSH10 0x81B9BDD08195B991959 PUSH1 0xB2 SHL PUSH1 0x64 DUP3 ADD MSTORE PUSH1 0x84 SWAP1 REVERT JUMPDEST POP CALLVALUE PUSH2 0x351 JUMPI PUSH1 0x20 CALLDATASIZE PUSH1 0x3 NOT ADD SLT PUSH2 0x351 JUMPI PUSH2 0x2306 PUSH2 0x490B JUMP JUMPDEST PUSH2 0x230E PUSH2 0x4D54 JUMP JUMPDEST PUSH1 0x1 PUSH1 0x1 PUSH1 0xA0 SHL SUB SWAP1 DUP2 AND SWAP1 DUP2 ISZERO PUSH2 0x2426 JUMPI DUP2 DUP4 MSTORE PUSH1 0x7 PUSH1 0x20 MSTORE PUSH2 0x2338 PUSH1 0xFF PUSH1 0x40 DUP6 KECCAK256 SLOAD AND PUSH2 0x4DD6 JUMP JUMPDEST DUP2 DUP4 MSTORE PUSH1 0x7 PUSH1 0x20 MSTORE PUSH1 0x40 DUP4 KECCAK256 PUSH1 0xFF NOT DUP2 SLOAD AND SWAP1 SSTORE PUSH1 0x8 PUSH1 0x20 MSTORE PUSH2 0x235D PUSH1 0x40 DUP5 KECCAK256 PUSH2 0x5949 JUMP JUMPDEST DUP3 JUMPDEST PUSH1 0x9 DUP1 SLOAD SWAP1 DUP2 DUP4 LT ISZERO PUSH2 0x241E JUMPI DUP4 SWAP2 DUP6 PUSH2 0x2378 DUP6 PUSH2 0x4956 JUMP JUMPDEST SWAP5 SWAP1 SLOAD PUSH1 0x3 SWAP6 DUP7 SHL SHR AND EQ PUSH2 0x2398 JUMPI POP POP POP PUSH2 0x2393 SWAP1 PUSH2 0x4E3A JUMP JUMPDEST PUSH2 0x235F JUMP JUMPDEST SWAP2 SWAP5 POP SWAP3 SWAP2 PUSH1 0x0 NOT SWAP2 DUP3 DUP2 ADD SWAP1 DUP2 GT PUSH2 0x19B6 JUMPI SWAP1 PUSH2 0x23C9 DUP5 PUSH2 0x23BC PUSH2 0x23E8 SWAP5 PUSH2 0x4956 JUMP JUMPDEST SWAP1 SLOAD SWAP1 DUP10 SHL SHR AND SWAP2 PUSH2 0x4956 JUMP JUMPDEST SWAP1 SWAP2 SWAP1 DUP3 SLOAD SWAP1 PUSH1 0x3 SHL SWAP2 PUSH1 0x1 DUP1 PUSH1 0xA0 SHL SUB DUP1 SWAP2 AND DUP4 SHL SWAP3 SHL NOT AND OR SWAP1 SSTORE JUMP JUMPDEST DUP3 SLOAD DUP1 ISZERO PUSH2 0x240A JUMPI ADD SWAP3 PUSH2 0x23FB DUP5 PUSH2 0x4956 JUMP JUMPDEST DUP2 SWAP4 SWAP2 SLOAD SWAP3 SHL SHL NOT AND SWAP1 SSTORE SSTORE DUP1 RETURN JUMPDEST PUSH4 0x4E487B71 PUSH1 0xE0 SHL DUP7 MSTORE PUSH1 0x31 PUSH1 0x4 MSTORE PUSH1 0x24 DUP7 REVERT JUMPDEST POP POP POP POP POP DUP1 RETURN JUMPDEST PUSH1 0x40 MLOAD PUSH3 0x461BCD PUSH1 0xE5 SHL DUP2 MSTORE PUSH1 0x20 PUSH1 0x4 DUP3 ADD MSTORE PUSH1 0x29 PUSH1 0x24 DUP3 ADD MSTORE PUSH32 0x4D61726B65744D616E616765723A2043616E6E6F742072656D6F7665206E6174 PUSH1 0x44 DUP3 ADD MSTORE PUSH9 0x34BB32903A37B5B2B7 PUSH1 0xB9 SHL PUSH1 0x64 DUP3 ADD MSTORE PUSH1 0x84 SWAP1 REVERT JUMPDEST POP CALLVALUE PUSH2 0x351 JUMPI PUSH1 0x20 CALLDATASIZE PUSH1 0x3 NOT ADD SLT PUSH2 0x351 JUMPI PUSH2 0x2497 PUSH2 0x490B JUMP JUMPDEST PUSH2 0x249F PUSH2 0x4D54 JUMP JUMPDEST PUSH1 0x1 DUP1 PUSH1 0xA0 SHL SUB AND PUSH1 0x1 PUSH1 0x1 PUSH1 0x60 SHL SUB PUSH1 0xA0 SHL PUSH1 0xD SLOAD AND OR PUSH1 0xD SSTORE DUP1 RETURN JUMPDEST POP CALLVALUE PUSH2 0x351 JUMPI PUSH1 0x40 CALLDATASIZE PUSH1 0x3 NOT ADD SLT PUSH2 0x351 JUMPI PUSH2 0x24D7 PUSH2 0x490B JUMP JUMPDEST PUSH1 0x24 PUSH8 0xFFFFFFFFFFFFFFFF DUP2 CALLDATALOAD DUP2 DUP2 GT PUSH2 0x2773 JUMPI PUSH2 0x24F9 SWAP1 CALLDATASIZE SWAP1 PUSH1 0x4 ADD PUSH2 0x4C1E JUMP JUMPDEST PUSH2 0x2501 PUSH2 0x4D54 JUMP JUMPDEST PUSH1 0x1 PUSH1 0x1 PUSH1 0xA0 SHL SUB DUP5 AND SWAP2 DUP3 ISZERO PUSH2 0x2722 JUMPI DUP2 MLOAD ISZERO PUSH2 0x26D2 JUMPI DUP3 DUP7 MSTORE PUSH1 0x20 SWAP3 PUSH1 0x7 DUP5 MSTORE PUSH1 0xFF PUSH1 0x40 DUP9 KECCAK256 SLOAD AND PUSH2 0x267F JUMPI DUP7 MSTORE PUSH1 0x7 DUP4 MSTORE PUSH1 0x40 DUP7 KECCAK256 SWAP3 PUSH1 0x1 SWAP4 DUP5 PUSH1 0xFF NOT DUP3 SLOAD AND OR SWAP1 SSTORE PUSH1 0x8 DUP2 MSTORE PUSH1 0x40 DUP8 KECCAK256 SWAP3 DUP1 MLOAD SWAP3 DUP4 GT PUSH2 0x266C JUMPI SWAP1 DUP3 SWAP2 PUSH2 0x2566 DUP6 SLOAD PUSH2 0x4C65 JUMP JUMPDEST PUSH1 0x1F DUP2 GT PUSH2 0x263E JUMPI JUMPDEST POP DUP2 PUSH1 0x1F DUP5 GT PUSH1 0x1 EQ PUSH2 0x25DB JUMPI POP DUP9 SWAP3 PUSH2 0x25D0 JUMPI JUMPDEST POP POP PUSH1 0x0 NOT PUSH1 0x3 DUP4 SWAP1 SHL SHR NOT AND SWAP1 DUP4 SHL OR SWAP1 SSTORE JUMPDEST PUSH1 0x9 SLOAD SWAP2 PUSH1 0x1 PUSH1 0x40 SHL DUP4 LT ISZERO PUSH2 0x25BC JUMPI POP DUP2 PUSH2 0x23C9 SWAP2 PUSH2 0x16D6 SWAP5 SWAP4 ADD PUSH1 0x9 SSTORE PUSH2 0x4956 JUMP JUMPDEST PUSH4 0x4E487B71 PUSH1 0xE0 SHL PUSH1 0x0 SWAP1 DUP2 MSTORE PUSH1 0x41 PUSH1 0x4 MSTORE REVERT JUMPDEST ADD MLOAD SWAP1 POP CODESIZE DUP1 PUSH2 0x2584 JUMP JUMPDEST SWAP2 SWAP1 DUP7 SWAP5 POP PUSH1 0x1F NOT DUP5 AND DUP7 DUP12 MSTORE DUP4 DUP12 KECCAK256 SWAP4 DUP12 SWAP1 JUMPDEST DUP3 DUP3 LT PUSH2 0x2625 JUMPI POP POP DUP5 GT PUSH2 0x260C JUMPI JUMPDEST POP POP POP DUP2 SHL ADD SWAP1 SSTORE PUSH2 0x2598 JUMP JUMPDEST ADD MLOAD PUSH1 0x0 NOT PUSH1 0xF8 DUP5 PUSH1 0x3 SHL AND SHR NOT AND SWAP1 SSTORE CODESIZE DUP1 DUP1 PUSH2 0x25FF JUMP JUMPDEST DUP5 DUP5 ADD MLOAD DUP7 SSTORE DUP10 SWAP8 SWAP1 SWAP6 ADD SWAP5 SWAP4 DUP5 ADD SWAP4 SWAP1 DUP2 ADD SWAP1 PUSH2 0x25EF JUMP JUMPDEST PUSH2 0x2666 SWAP1 DUP7 DUP12 MSTORE DUP4 DUP12 KECCAK256 PUSH1 0x1F DUP7 ADD PUSH1 0x5 SHR DUP2 ADD SWAP2 DUP6 DUP8 LT PUSH2 0x109C JUMPI PUSH1 0x1F ADD PUSH1 0x5 SHR ADD SWAP1 PUSH2 0x4E55 JUMP JUMPDEST CODESIZE PUSH2 0x256F JUMP JUMPDEST PUSH4 0x4E487B71 PUSH1 0xE0 SHL DUP9 MSTORE PUSH1 0x41 PUSH1 0x4 MSTORE DUP6 DUP9 REVERT JUMPDEST PUSH1 0x40 MLOAD PUSH3 0x461BCD PUSH1 0xE5 SHL DUP2 MSTORE PUSH1 0x4 DUP2 ADD DUP6 SWAP1 MSTORE PUSH1 0x26 DUP2 DUP8 ADD MSTORE PUSH32 0x4D61726B65744D616E616765723A20546F6B656E20616C726561647920737570 PUSH1 0x44 DUP3 ADD MSTORE PUSH6 0x1C1BDC9D1959 PUSH1 0xD2 SHL PUSH1 0x64 DUP3 ADD MSTORE PUSH1 0x84 SWAP1 REVERT JUMPDEST PUSH1 0x40 MLOAD PUSH3 0x461BCD PUSH1 0xE5 SHL DUP2 MSTORE PUSH1 0x20 PUSH1 0x4 DUP3 ADD MSTORE PUSH1 0x23 DUP2 DUP7 ADD MSTORE PUSH32 0x4D61726B65744D616E616765723A20496E76616C696420746F6B656E2073796D PUSH1 0x44 DUP3 ADD MSTORE PUSH3 0x189BDB PUSH1 0xEA SHL PUSH1 0x64 DUP3 ADD MSTORE PUSH1 0x84 SWAP1 REVERT JUMPDEST PUSH1 0x40 MLOAD PUSH3 0x461BCD PUSH1 0xE5 SHL DUP2 MSTORE PUSH1 0x20 PUSH1 0x4 DUP3 ADD MSTORE DUP1 DUP6 ADD DUP6 SWAP1 MSTORE PUSH32 0x4D61726B65744D616E616765723A20496E76616C696420746F6B656E20616464 PUSH1 0x44 DUP3 ADD MSTORE PUSH4 0x72657373 PUSH1 0xE0 SHL PUSH1 0x64 DUP3 ADD MSTORE PUSH1 0x84 SWAP1 REVERT JUMPDEST DUP5 DUP1 REVERT JUMPDEST POP CALLVALUE PUSH2 0x351 JUMPI DUP1 PUSH1 0x3 NOT CALLDATASIZE ADD SLT PUSH2 0x351 JUMPI PUSH2 0x2790 PUSH2 0x4D54 JUMP JUMPDEST PUSH1 0x0 DUP1 SLOAD PUSH1 0x1 PUSH1 0x1 PUSH1 0xA0 SHL SUB NOT DUP2 AND DUP3 SSTORE PUSH1 0x1 PUSH1 0x1 PUSH1 0xA0 SHL SUB AND PUSH32 0x8BE0079C531659141344CD1FD0A4F28419497F9722A3DAAFE3B4186F6B6457E0 DUP3 DUP1 LOG3 DUP1 RETURN JUMPDEST POP CALLVALUE PUSH2 0x351 JUMPI PUSH1 0x60 CALLDATASIZE PUSH1 0x3 NOT ADD SLT PUSH2 0x351 JUMPI PUSH1 0x4 CALLDATALOAD PUSH1 0x24 CALLDATALOAD SWAP1 PUSH1 0x44 CALLDATALOAD DUP2 DUP5 MSTORE PUSH1 0x20 PUSH1 0x1 DUP2 MSTORE PUSH1 0x40 DUP6 KECCAK256 PUSH1 0xFF PUSH1 0xB DUP3 ADD SLOAD AND PUSH1 0x5 DUP2 LT ISZERO PUSH2 0x2A57 JUMPI PUSH2 0x2815 SWAP1 ISZERO PUSH2 0x4FCA JUMP JUMPDEST PUSH1 0xFF PUSH1 0x11 SLOAD AND PUSH2 0x2A0E JUMPI JUMPDEST DUP5 ISZERO ISZERO DUP1 PUSH2 0x2A00 JUMPI JUMPDEST PUSH2 0x2832 SWAP1 PUSH2 0x50A8 JUMP JUMPDEST PUSH1 0x4 DUP2 ADD DUP1 SLOAD SWAP1 SWAP2 PUSH1 0x1 PUSH1 0x1 PUSH1 0xA0 SHL SUB SWAP2 DUP3 AND SWAP1 DUP2 ISZERO PUSH2 0x29A0 JUMPI DUP6 DUP10 SWAP5 SWAP4 SWAP3 PUSH2 0x2864 PUSH1 0x5 PUSH2 0x2871 SWAP5 ADD SLOAD DUP4 LT ISZERO PUSH2 0x50F4 JUMP JUMPDEST DUP4 PUSH1 0xB SLOAD AND SWAP1 CALLER SWAP1 PUSH2 0x4F1F JUMP JUMPDEST DUP6 DUP4 MSTORE PUSH1 0x2 DUP5 MSTORE PUSH1 0x40 DUP4 KECCAK256 CALLER PUSH1 0x0 MSTORE DUP5 MSTORE PUSH1 0xFF PUSH1 0x40 PUSH1 0x0 KECCAK256 SLOAD AND ISZERO PUSH2 0x2973 JUMPI JUMPDEST DUP6 DUP4 MSTORE PUSH1 0x2 DUP5 MSTORE PUSH1 0x40 DUP4 KECCAK256 CALLER PUSH1 0x0 MSTORE DUP5 MSTORE PUSH1 0x40 PUSH1 0x0 KECCAK256 PUSH1 0x1 PUSH1 0xFF NOT DUP3 SLOAD AND OR SWAP1 SSTORE DUP6 DUP4 MSTORE PUSH1 0x4 DUP5 MSTORE PUSH1 0x40 DUP4 KECCAK256 CALLER PUSH1 0x0 MSTORE DUP5 MSTORE DUP7 PUSH1 0x40 PUSH1 0x0 KECCAK256 SSTORE DUP1 PUSH1 0xB SLOAD AND SWAP2 SLOAD AND SWAP1 DUP1 EXTCODESIZE ISZERO PUSH2 0x1E47 JUMPI PUSH1 0x40 MLOAD PUSH4 0x38051807 PUSH1 0xE2 SHL DUP2 MSTORE PUSH1 0x4 DUP2 ADD DUP8 SWAP1 MSTORE CALLER PUSH1 0x24 DUP3 ADD MSTORE PUSH1 0x1 PUSH1 0x1 PUSH1 0xA0 SHL SUB SWAP3 SWAP1 SWAP3 AND PUSH1 0x44 DUP4 ADD MSTORE PUSH1 0x64 DUP3 ADD DUP6 SWAP1 MSTORE PUSH1 0x84 DUP3 ADD DUP8 SWAP1 MSTORE DUP3 SWAP1 DUP3 SWAP1 PUSH1 0xA4 SWAP1 DUP3 SWAP1 DUP5 SWAP1 GAS CALL DUP1 ISZERO PUSH2 0x663 JUMPI PUSH2 0x295F JUMPI JUMPDEST POP POP PUSH1 0x40 MLOAD SWAP4 DUP5 MSTORE DUP4 ADD MSTORE PUSH32 0x1B8A9031CB9351278D70A994F81536E9E08C91162E64F92B2FE4766FB7A891B4 PUSH1 0x40 CALLER SWAP4 LOG3 DUP1 RETURN JUMPDEST PUSH2 0x2968 SWAP1 PUSH2 0x4B93 JUMP JUMPDEST PUSH2 0x2773 JUMPI DUP5 CODESIZE PUSH2 0x292B JUMP JUMPDEST DUP6 DUP4 MSTORE PUSH1 0x5 DUP5 MSTORE PUSH2 0x2987 CALLER PUSH1 0x40 DUP6 KECCAK256 PUSH2 0x514B JUMP JUMPDEST CALLER DUP4 MSTORE PUSH1 0x15 DUP5 MSTORE PUSH2 0x299B DUP7 PUSH1 0x40 DUP6 KECCAK256 PUSH2 0x4E6C JUMP JUMPDEST PUSH2 0x2891 JUMP JUMPDEST PUSH1 0x40 MLOAD PUSH3 0x461BCD PUSH1 0xE5 SHL DUP2 MSTORE PUSH1 0x4 DUP2 ADD DUP7 SWAP1 MSTORE PUSH1 0x32 PUSH1 0x24 DUP3 ADD MSTORE PUSH32 0x4D61726B65744D616E616765723A2054686973206D61726B6574207573657320 PUSH1 0x44 DUP3 ADD MSTORE PUSH18 0x141154154B081D5CD9481C1B1858D950995D PUSH1 0x72 SHL PUSH1 0x64 DUP3 ADD MSTORE PUSH1 0x84 SWAP1 REVERT JUMPDEST POP PUSH1 0x3 DUP2 ADD SLOAD DUP6 GT ISZERO PUSH2 0x2829 JUMP JUMPDEST PUSH1 0x9 DUP2 ADD SLOAD PUSH1 0x12 SLOAD SWAP1 PUSH1 0x3C DUP3 MUL SWAP2 DUP1 DUP4 DIV PUSH1 0x3C EQ SWAP1 ISZERO OR ISZERO PUSH2 0x2A43 JUMPI PUSH2 0x2A3E SWAP2 PUSH2 0x2A37 SWAP2 PUSH2 0x5015 JUMP JUMPDEST TIMESTAMP LT PUSH2 0x5022 JUMP JUMPDEST PUSH2 0x2820 JUMP JUMPDEST PUSH4 0x4E487B71 PUSH1 0xE0 SHL DUP9 MSTORE PUSH1 0x11 PUSH1 0x4 MSTORE PUSH1 0x24 DUP9 REVERT JUMPDEST PUSH4 0x4E487B71 PUSH1 0xE0 SHL DUP8 MSTORE PUSH1 0x21 PUSH1 0x4 MSTORE PUSH1 0x24 DUP8 REVERT JUMPDEST POP CALLVALUE PUSH2 0x351 JUMPI DUP1 PUSH1 0x3 NOT CALLDATASIZE ADD SLT PUSH2 0x351 JUMPI PUSH1 0x40 MLOAD PUSH1 0x18 DUP1 SLOAD DUP1 DUP4 MSTORE SWAP1 DUP4 MSTORE PUSH1 0x20 DUP1 DUP4 ADD SWAP4 PUSH32 0xB13D2D76D1F4B7BE834882E410B3E3A8AFAF69F83600AE24DB354391D2378D2E SWAP3 SWAP2 JUMPDEST DUP3 DUP3 LT PUSH2 0x2ACA JUMPI PUSH2 0x3A3 DUP6 PUSH2 0x1F64 DUP2 DUP10 SUB DUP3 PUSH2 0x4BE0 JUMP JUMPDEST DUP4 SLOAD DUP7 MSTORE SWAP5 DUP6 ADD SWAP5 PUSH1 0x1 SWAP4 DUP5 ADD SWAP4 SWAP1 SWAP2 ADD SWAP1 PUSH2 0x2AB3 JUMP JUMPDEST POP CALLVALUE PUSH2 0x351 JUMPI PUSH1 0x20 CALLDATASIZE PUSH1 0x3 NOT ADD SLT PUSH2 0x351 JUMPI PUSH1 0x20 SWAP1 PUSH1 0xFF SWAP1 PUSH1 0x40 SWAP1 PUSH1 0x1 PUSH1 0x1 PUSH1 0xA0 SHL SUB PUSH2 0x2B0C PUSH2 0x490B JUMP JUMPDEST AND DUP2 MSTORE PUSH1 0x7 DUP5 MSTORE KECCAK256 SLOAD AND PUSH1 0x40 MLOAD SWAP1 ISZERO ISZERO DUP2 MSTORE RETURN JUMPDEST POP CALLVALUE PUSH2 0x351 JUMPI PUSH1 0x20 DUP1 PUSH1 0x3 NOT CALLDATASIZE ADD SLT PUSH2 0x66E JUMPI PUSH1 0x4 CALLDATALOAD DUP1 DUP4 MSTORE PUSH1 0x1 DUP3 MSTORE PUSH1 0x40 DUP4 KECCAK256 SWAP2 PUSH1 0xFF PUSH1 0xB DUP5 ADD SLOAD AND PUSH1 0x5 DUP2 LT ISZERO PUSH2 0xFDA JUMPI PUSH1 0x2 PUSH2 0x2B5F SWAP2 EQ PUSH2 0x556C JUMP JUMPDEST PUSH1 0xC DUP4 ADD SLOAD DUP1 ISZERO PUSH2 0x3180 JUMPI DUP3 DUP6 MSTORE PUSH1 0x2 DUP3 MSTORE PUSH1 0x40 DUP6 KECCAK256 CALLER PUSH1 0x0 MSTORE DUP3 MSTORE PUSH1 0xFF PUSH1 0x40 PUSH1 0x0 KECCAK256 SLOAD AND ISZERO PUSH2 0x313B JUMPI DUP3 DUP6 MSTORE PUSH1 0x4 DUP3 MSTORE PUSH1 0x40 DUP6 KECCAK256 CALLER PUSH1 0x0 MSTORE DUP3 MSTORE DUP1 PUSH1 0x40 PUSH1 0x0 KECCAK256 SLOAD SUB PUSH2 0x30F8 JUMPI PUSH1 0xB SLOAD PUSH1 0x40 MLOAD PUSH4 0x7C7A72D PUSH1 0xE0 SHL DUP2 MSTORE PUSH1 0x4 DUP2 ADD DUP6 SWAP1 MSTORE CALLER PUSH1 0x24 DUP3 ADD MSTORE PUSH1 0x1 PUSH1 0x1 PUSH1 0xA0 SHL SUB SWAP2 DUP3 AND SWAP6 SWAP2 SWAP1 DUP5 DUP2 PUSH1 0x44 DUP2 DUP11 GAS STATICCALL SWAP1 DUP2 ISZERO PUSH2 0x2E48 JUMPI DUP9 SWAP2 PUSH2 0x30BF JUMPI JUMPDEST POP PUSH2 0x307A JUMPI PUSH1 0x4 DUP3 DUP2 ADD SLOAD PUSH1 0x40 MLOAD PUSH4 0x553B7CBB PUSH1 0xE0 SHL DUP2 MSTORE SWAP2 DUP3 ADD DUP8 SWAP1 MSTORE CALLER PUSH1 0x24 DUP4 ADD MSTORE DUP3 AND PUSH1 0x1 PUSH1 0x1 PUSH1 0xA0 SHL SUB DUP2 AND PUSH1 0x44 DUP4 ADD MSTORE SWAP4 SWAP1 DUP6 DUP2 PUSH1 0x64 DUP2 DUP12 GAS STATICCALL DUP1 ISZERO PUSH2 0x1ED0 JUMPI DUP8 SWAP2 DUP11 SWAP2 PUSH2 0x3049 JUMPI JUMPDEST POP PUSH1 0x40 MLOAD PUSH4 0xDC4CE349 PUSH1 0xE0 SHL DUP1 DUP3 MSTORE PUSH1 0x4 DUP3 ADD SWAP4 SWAP1 SWAP4 MSTORE PUSH1 0x24 DUP2 ADD DUP5 SWAP1 MSTORE PUSH1 0x1 PUSH1 0x1 PUSH1 0xA0 SHL SUB DUP8 AND PUSH1 0x44 DUP3 ADD MSTORE SWAP3 DUP8 DUP5 PUSH1 0x64 DUP2 DUP14 GAS STATICCALL SWAP4 DUP5 ISZERO PUSH2 0x303E JUMPI DUP12 SWAP5 PUSH2 0x300F JUMPI JUMPDEST POP PUSH1 0x3 DUP7 ADD SLOAD DUP12 SWAP4 SWAP1 SWAP2 PUSH1 0x1 DUP6 DUP12 DUP12 DUP16 DUP16 JUMPDEST DUP9 DUP7 GT ISZERO PUSH2 0x2F63 JUMPI POP POP POP POP SWAP4 POP POP POP POP POP DUP3 ISZERO PUSH1 0x0 EQ PUSH2 0x2E53 JUMPI POP POP PUSH1 0x40 MLOAD PUSH4 0x3D1E7BA1 PUSH1 0xE1 SHL DUP2 MSTORE PUSH1 0x4 DUP2 ADD DUP8 SWAP1 MSTORE PUSH1 0x1 PUSH1 0x1 PUSH1 0xA0 SHL SUB DUP6 AND PUSH1 0x24 DUP3 ADD MSTORE SWAP3 SWAP1 POP DUP5 DUP4 PUSH1 0x44 DUP2 DUP11 GAS STATICCALL SWAP3 DUP4 ISZERO PUSH2 0x2E48 JUMPI DUP9 SWAP4 PUSH2 0x2E19 JUMPI JUMPDEST POP PUSH2 0x1F4 SWAP3 DUP4 DUP2 MUL SWAP4 DUP2 DUP6 DIV EQ SWAP1 ISZERO OR ISZERO PUSH2 0x2A43 JUMPI SLOAD AND CALLER EQ PUSH1 0x0 EQ PUSH2 0x2DA2 JUMPI SWAP1 PUSH2 0x2710 DUP7 SWAP3 DIV SWAP5 JUMPDEST DUP1 EXTCODESIZE ISZERO PUSH2 0x1E47 JUMPI PUSH1 0x40 MLOAD PUSH4 0x2F0041ED PUSH1 0xE1 SHL DUP2 MSTORE PUSH1 0x4 DUP2 ADD DUP7 SWAP1 MSTORE CALLER PUSH1 0x24 DUP3 ADD MSTORE PUSH1 0x1 PUSH1 0x1 PUSH1 0xA0 SHL SUB SWAP3 SWAP1 SWAP3 AND PUSH1 0x44 DUP4 ADD MSTORE PUSH1 0x64 DUP3 ADD DUP7 SWAP1 MSTORE DUP3 SWAP1 DUP3 SWAP1 PUSH1 0x84 SWAP1 DUP3 SWAP1 DUP5 SWAP1 GAS CALL DUP1 ISZERO PUSH2 0x663 JUMPI PUSH2 0x2D8E JUMPI JUMPDEST POP POP PUSH32 0x5380CF6FE903B40C6D5A9E0DFBCA2F3A423F0A21520B4D5947ED5169BDBA946D SWAP1 PUSH1 0x40 MLOAD SWAP4 DUP5 MSTORE CALLER SWAP4 LOG3 DUP1 RETURN JUMPDEST PUSH2 0x2D97 SWAP1 PUSH2 0x4B93 JUMP JUMPDEST PUSH2 0x65F JUMPI DUP4 CODESIZE PUSH2 0x2D5E JUMP JUMPDEST PUSH1 0xA4 DUP4 PUSH1 0x40 MLOAD SWAP1 PUSH3 0x461BCD PUSH1 0xE5 SHL DUP3 MSTORE PUSH1 0x4 DUP3 ADD MSTORE PUSH1 0x44 PUSH1 0x24 DUP3 ADD MSTORE PUSH32 0x4D61726B65744D616E616765723A204E6F206F6E6520626574206F6E2077696E PUSH1 0x44 DUP3 ADD MSTORE PUSH32 0x6E696E67206F7074696F6E202D206F6E6C792063726561746F722063616E2063 PUSH1 0x64 DUP3 ADD MSTORE PUSH4 0x6C61696D PUSH1 0xE0 SHL PUSH1 0x84 DUP3 ADD MSTORE REVERT JUMPDEST SWAP1 SWAP3 POP DUP5 DUP2 DUP2 RETURNDATASIZE DUP4 GT PUSH2 0x2E41 JUMPI JUMPDEST PUSH2 0x2E31 DUP2 DUP4 PUSH2 0x4BE0 JUMP JUMPDEST DUP2 ADD SUB SLT PUSH2 0x87C JUMPI MLOAD SWAP2 CODESIZE PUSH2 0x2CE4 JUMP JUMPDEST POP RETURNDATASIZE PUSH2 0x2E27 JUMP JUMPDEST PUSH1 0x40 MLOAD RETURNDATASIZE DUP11 DUP3 RETURNDATACOPY RETURNDATASIZE SWAP1 REVERT JUMPDEST PUSH2 0x2328 SWAP9 SWAP4 SWAP2 SWAP3 SWAP6 SWAP5 SWAP9 SWAP3 DUP4 DUP2 MUL SWAP4 DUP2 DUP6 DIV EQ SWAP1 ISZERO OR ISZERO PUSH2 0x2F4F JUMPI PUSH2 0x2710 DUP1 SWAP4 DIV SWAP1 DUP2 DUP2 MUL SWAP2 DUP2 DUP4 DIV EQ DUP2 ISZERO OR ISZERO PUSH2 0x2F39 JUMPI DUP11 SWAP7 PUSH2 0x2E92 SWAP3 DIV SWAP1 PUSH2 0x4E2D JUMP JUMPDEST SWAP8 SLOAD AND CALLER EQ PUSH2 0x2EA2 JUMPI JUMPDEST POP PUSH2 0x2D0D JUMP JUMPDEST PUSH1 0x40 MLOAD PUSH4 0x3D1E7BA1 PUSH1 0xE1 SHL DUP2 MSTORE PUSH1 0x4 DUP2 ADD DUP8 SWAP1 MSTORE PUSH1 0x1 PUSH1 0x1 PUSH1 0xA0 SHL SUB DUP5 AND PUSH1 0x24 DUP3 ADD MSTORE SWAP2 SWAP7 SWAP3 SWAP4 POP SWAP1 DUP5 DUP2 PUSH1 0x44 DUP2 DUP11 GAS STATICCALL SWAP1 DUP2 ISZERO PUSH2 0x2E48 JUMPI DUP9 SWAP2 PUSH2 0x2F0C JUMPI JUMPDEST POP PUSH2 0x1F4 SWAP1 DUP2 DUP2 MUL SWAP2 DUP2 DUP4 DIV EQ SWAP1 ISZERO OR ISZERO PUSH2 0x2A43 JUMPI SWAP2 PUSH2 0x2F05 SWAP2 DUP9 SWAP5 SWAP4 DIV SWAP1 PUSH2 0x4E2D JUMP JUMPDEST SWAP5 CODESIZE PUSH2 0x2E9C JUMP JUMPDEST SWAP1 POP DUP5 DUP2 DUP2 RETURNDATASIZE DUP4 GT PUSH2 0x2F32 JUMPI JUMPDEST PUSH2 0x2F23 DUP2 DUP4 PUSH2 0x4BE0 JUMP JUMPDEST DUP2 ADD SUB SLT PUSH2 0x87C JUMPI MLOAD CODESIZE PUSH2 0x2EE1 JUMP JUMPDEST POP RETURNDATASIZE PUSH2 0x2F19 JUMP JUMPDEST PUSH4 0x4E487B71 PUSH1 0xE0 SHL PUSH1 0x0 MSTORE PUSH1 0x11 PUSH1 0x4 MSTORE PUSH1 0x24 PUSH1 0x0 REVERT JUMPDEST PUSH4 0x4E487B71 PUSH1 0xE0 SHL DUP11 MSTORE PUSH1 0x11 PUSH1 0x4 MSTORE PUSH1 0x24 DUP11 REVERT JUMPDEST DUP7 DUP7 SUB PUSH2 0x2F83 JUMPI JUMPDEST POP POP POP POP POP PUSH2 0x2F79 SWAP1 PUSH2 0x4E3A JUMP JUMPDEST DUP14 DUP12 DUP12 DUP16 DUP16 PUSH2 0x2C8B JUMP JUMPDEST PUSH1 0x40 MLOAD DUP9 DUP2 MSTORE PUSH1 0x4 DUP2 ADD SWAP2 SWAP1 SWAP2 MSTORE PUSH1 0x24 DUP2 ADD DUP7 SWAP1 MSTORE PUSH1 0x1 PUSH1 0x1 PUSH1 0xA0 SHL SUB SWAP3 SWAP1 SWAP3 AND PUSH1 0x44 DUP4 ADD MSTORE SWAP4 SWAP9 SWAP4 SWAP1 SWAP2 SWAP1 DUP3 SWAP1 PUSH1 0x64 SWAP1 DUP3 SWAP1 GAS STATICCALL SWAP2 DUP3 ISZERO PUSH2 0x889 JUMPI SWAP2 PUSH2 0x2FE0 JUMPI JUMPDEST POP PUSH2 0x2FD3 SWAP1 PUSH2 0x2F79 SWAP3 PUSH2 0x4E2D JUMP JUMPDEST SWAP6 SWAP1 POP DUP14 DUP12 DUP12 DUP16 DUP16 PUSH2 0x2F6B JUMP JUMPDEST SWAP1 POP DUP12 DUP2 DUP2 RETURNDATASIZE DUP4 GT PUSH2 0x3008 JUMPI JUMPDEST PUSH2 0x2FF7 DUP2 DUP4 PUSH2 0x4BE0 JUMP JUMPDEST DUP2 ADD SUB SLT PUSH2 0x87C JUMPI MLOAD PUSH2 0x2F79 PUSH2 0x2FC5 JUMP JUMPDEST POP RETURNDATASIZE PUSH2 0x2FED JUMP JUMPDEST SWAP1 SWAP4 POP DUP8 DUP2 DUP2 RETURNDATASIZE DUP4 GT PUSH2 0x3037 JUMPI JUMPDEST PUSH2 0x3027 DUP2 DUP4 PUSH2 0x4BE0 JUMP JUMPDEST DUP2 ADD SUB SLT PUSH2 0x87C JUMPI MLOAD SWAP3 CODESIZE PUSH2 0x2C79 JUMP JUMPDEST POP RETURNDATASIZE PUSH2 0x301D JUMP JUMPDEST PUSH1 0x40 MLOAD RETURNDATASIZE DUP14 DUP3 RETURNDATACOPY RETURNDATASIZE SWAP1 REVERT JUMPDEST DUP1 SWAP3 POP DUP8 DUP1 SWAP3 POP RETURNDATASIZE DUP4 GT PUSH2 0x3073 JUMPI JUMPDEST PUSH2 0x3062 DUP2 DUP4 PUSH2 0x4BE0 JUMP JUMPDEST DUP2 ADD SUB SLT PUSH2 0x87C JUMPI DUP7 SWAP1 MLOAD CODESIZE PUSH2 0x2C35 JUMP JUMPDEST POP RETURNDATASIZE PUSH2 0x3058 JUMP JUMPDEST PUSH1 0x40 MLOAD PUSH3 0x461BCD PUSH1 0xE5 SHL DUP2 MSTORE PUSH1 0x4 DUP2 ADD DUP6 SWAP1 MSTORE PUSH1 0x1E PUSH1 0x24 DUP3 ADD MSTORE PUSH32 0x4D61726B65744D616E616765723A20416C726561647920636C61696D65640000 PUSH1 0x44 DUP3 ADD MSTORE PUSH1 0x64 SWAP1 REVERT JUMPDEST SWAP1 POP DUP5 DUP2 DUP2 RETURNDATASIZE DUP4 GT PUSH2 0x30F1 JUMPI JUMPDEST PUSH2 0x30D6 DUP2 DUP4 PUSH2 0x4BE0 JUMP JUMPDEST DUP2 ADD SUB SLT PUSH2 0x30ED JUMPI PUSH2 0x30E7 SWAP1 PUSH2 0x52AA JUMP JUMPDEST CODESIZE PUSH2 0x2BE7 JUMP JUMPDEST DUP8 DUP1 REVERT JUMPDEST POP RETURNDATASIZE PUSH2 0x30CC JUMP JUMPDEST PUSH1 0x64 DUP3 PUSH1 0x40 MLOAD SWAP1 PUSH3 0x461BCD PUSH1 0xE5 SHL DUP3 MSTORE DUP1 PUSH1 0x4 DUP4 ADD MSTORE PUSH1 0x24 DUP3 ADD MSTORE PUSH32 0x4D61726B65744D616E616765723A204E6F7420612077696E6E696E6720626574 PUSH1 0x44 DUP3 ADD MSTORE REVERT JUMPDEST PUSH1 0x40 MLOAD PUSH3 0x461BCD PUSH1 0xE5 SHL DUP2 MSTORE PUSH1 0x4 DUP2 ADD DUP4 SWAP1 MSTORE PUSH1 0x1C PUSH1 0x24 DUP3 ADD MSTORE PUSH32 0x4D61726B65744D616E616765723A204E6F2062657420706C6163656400000000 PUSH1 0x44 DUP3 ADD MSTORE PUSH1 0x64 SWAP1 REVERT JUMPDEST PUSH1 0x64 DUP3 PUSH1 0x40 MLOAD SWAP1 PUSH3 0x461BCD PUSH1 0xE5 SHL DUP3 MSTORE DUP1 PUSH1 0x4 DUP4 ADD MSTORE PUSH1 0x24 DUP3 ADD MSTORE PUSH32 0x4D61726B65744D616E616765723A204E6F2077696E6E696E67206F7074696F6E PUSH1 0x44 DUP3 ADD MSTORE REVERT JUMPDEST POP CALLVALUE PUSH2 0x351 JUMPI DUP1 PUSH1 0x3 NOT CALLDATASIZE ADD SLT PUSH2 0x351 JUMPI PUSH1 0x40 MLOAD PUSH1 0x16 DUP1 SLOAD DUP1 DUP4 MSTORE SWAP1 DUP4 MSTORE PUSH1 0x20 DUP1 DUP4 ADD SWAP4 PUSH32 0xD833147D7DC355BA459FC788F669E58CFAF9DC25DDCD0702E87D69C7B5124289 SWAP3 SWAP2 JUMPDEST DUP3 DUP3 LT PUSH2 0x3222 JUMPI PUSH2 0x3A3 DUP6 PUSH2 0x1F64 DUP2 DUP10 SUB DUP3 PUSH2 0x4BE0 JUMP JUMPDEST DUP4 SLOAD DUP7 MSTORE SWAP5 DUP6 ADD SWAP5 PUSH1 0x1 SWAP4 DUP5 ADD SWAP4 SWAP1 SWAP2 ADD SWAP1 PUSH2 0x320B JUMP JUMPDEST POP CALLVALUE PUSH2 0x351 JUMPI DUP1 PUSH1 0x3 NOT CALLDATASIZE ADD SLT PUSH2 0x351 JUMPI PUSH1 0xB SLOAD PUSH1 0x40 MLOAD PUSH1 0x1 PUSH1 0x1 PUSH1 0xA0 SHL SUB SWAP1 SWAP2 AND DUP2 MSTORE PUSH1 0x20 SWAP1 RETURN JUMPDEST POP CALLVALUE PUSH2 0x351 JUMPI PUSH2 0x16D6 PUSH2 0x3274 CALLDATASIZE PUSH2 0x4B7D JUMP JUMPDEST SWAP1 PUSH2 0x52D4 JUMP JUMPDEST POP CALLVALUE PUSH2 0x351 JUMPI DUP1 PUSH1 0x3 NOT CALLDATASIZE ADD SLT PUSH2 0x351 JUMPI PUSH1 0x20 PUSH1 0x13 SLOAD PUSH1 0x40 MLOAD SWAP1 DUP2 MSTORE RETURN JUMPDEST POP CALLVALUE PUSH2 0x351 JUMPI PUSH1 0x20 DUP1 PUSH1 0x3 NOT CALLDATASIZE ADD SLT PUSH2 0x66E JUMPI PUSH1 0x4 CALLDATALOAD DUP1 DUP4 MSTORE PUSH1 0x1 DUP3 MSTORE PUSH1 0x40 DUP4 KECCAK256 SWAP2 PUSH1 0xFF PUSH1 0xB DUP5 ADD SLOAD AND PUSH1 0x5 DUP2 LT ISZERO PUSH2 0xFDA JUMPI PUSH1 0x3 SUB PUSH2 0x3612 JUMPI DUP2 DUP5 MSTORE PUSH1 0x2 DUP2 MSTORE PUSH1 0x40 DUP5 KECCAK256 CALLER PUSH1 0x0 MSTORE DUP2 MSTORE PUSH1 0xFF PUSH1 0x40 PUSH1 0x0 KECCAK256 SLOAD AND DUP1 ISZERO PUSH2 0x35F2 JUMPI JUMPDEST ISZERO PUSH2 0x35A4 JUMPI DUP4 SWAP3 DUP3 DUP6 MSTORE PUSH1 0x2 DUP3 MSTORE PUSH1 0x40 DUP6 KECCAK256 CALLER PUSH1 0x0 MSTORE DUP3 MSTORE PUSH1 0xFF PUSH1 0x40 PUSH1 0x0 KECCAK256 SLOAD AND PUSH2 0x34F7 JUMPI JUMPDEST DUP3 DUP6 MSTORE PUSH1 0x3 DUP3 MSTORE PUSH1 0x40 DUP6 KECCAK256 CALLER PUSH1 0x0 MSTORE DUP3 MSTORE PUSH1 0xFF PUSH1 0x40 PUSH1 0x0 KECCAK256 SLOAD AND PUSH2 0x343B JUMPI JUMPDEST DUP4 ISZERO PUSH2 0x33EB JUMPI PUSH1 0xB SLOAD PUSH1 0x4 SWAP1 SWAP2 ADD SLOAD DUP6 SWAP2 PUSH1 0x1 PUSH1 0x1 PUSH1 0xA0 SHL SUB SWAP2 DUP3 AND SWAP2 AND DUP1 EXTCODESIZE ISZERO PUSH2 0x1E47 JUMPI PUSH1 0x40 MLOAD PUSH4 0x164FCD7D PUSH1 0xE2 SHL DUP2 MSTORE PUSH1 0x4 DUP2 ADD DUP7 SWAP1 MSTORE CALLER PUSH1 0x24 DUP3 ADD MSTORE PUSH1 0x1 PUSH1 0x1 PUSH1 0xA0 SHL SUB SWAP3 SWAP1 SWAP3 AND PUSH1 0x44 DUP4 ADD MSTORE PUSH1 0x64 DUP3 ADD DUP7 SWAP1 MSTORE DUP3 SWAP1 DUP3 SWAP1 PUSH1 0x84 SWAP1 DUP3 SWAP1 DUP5 SWAP1 GAS CALL DUP1 ISZERO PUSH2 0x663 JUMPI PUSH2 0x33D7 JUMPI JUMPDEST POP POP PUSH32 0xF3F402280EF0A7905E124AA621B65EAEB2725C343E8B36D398ED78C29DAF285C SWAP1 PUSH1 0x40 MLOAD SWAP4 DUP5 MSTORE CALLER SWAP4 LOG3 DUP1 RETURN JUMPDEST PUSH2 0x33E0 SWAP1 PUSH2 0x4B93 JUMP JUMPDEST PUSH2 0x65F JUMPI DUP4 CODESIZE PUSH2 0x33A7 JUMP JUMPDEST PUSH1 0x40 MLOAD PUSH3 0x461BCD PUSH1 0xE5 SHL DUP2 MSTORE PUSH1 0x4 DUP2 ADD DUP4 SWAP1 MSTORE PUSH1 0x22 PUSH1 0x24 DUP3 ADD MSTORE PUSH32 0x4D61726B65744D616E616765723A204E6F20726566756E6420617661696C6162 PUSH1 0x44 DUP3 ADD MSTORE PUSH2 0x6C65 PUSH1 0xF0 SHL PUSH1 0x64 DUP3 ADD MSTORE PUSH1 0x84 SWAP1 REVERT JUMPDEST PUSH1 0xB SLOAD PUSH1 0x4 DUP3 DUP2 ADD SLOAD PUSH1 0x40 MLOAD PUSH4 0x256BA741 PUSH1 0xE0 SHL DUP2 MSTORE SWAP2 DUP3 ADD DUP7 SWAP1 MSTORE CALLER PUSH1 0x24 DUP4 ADD MSTORE PUSH1 0x1 PUSH1 0x1 PUSH1 0xA0 SHL SUB SWAP1 DUP2 AND PUSH1 0x44 DUP4 ADD MSTORE SWAP3 SWAP6 SWAP1 SWAP3 SWAP1 SWAP2 DUP5 SWAP2 DUP5 SWAP2 PUSH1 0x64 SWAP2 DUP4 SWAP2 AND GAS STATICCALL SWAP1 DUP2 ISZERO PUSH2 0x34EC JUMPI DUP7 SWAP2 PUSH2 0x34BB JUMPI JUMPDEST PUSH2 0x3497 SWAP3 POP PUSH2 0x4E2D JUMP JUMPDEST SWAP3 DUP3 DUP6 MSTORE PUSH1 0x3 DUP3 MSTORE PUSH1 0x40 DUP6 KECCAK256 CALLER PUSH1 0x0 MSTORE DUP3 MSTORE PUSH1 0x40 PUSH1 0x0 KECCAK256 PUSH1 0xFF NOT DUP2 SLOAD AND SWAP1 SSTORE PUSH2 0x3338 JUMP JUMPDEST SWAP1 POP DUP3 DUP3 DUP2 RETURNDATASIZE DUP4 GT PUSH2 0x34E5 JUMPI JUMPDEST PUSH2 0x34D2 DUP2 DUP4 PUSH2 0x4BE0 JUMP JUMPDEST DUP2 ADD SUB SLT PUSH2 0x87C JUMPI PUSH2 0x3497 SWAP2 MLOAD SWAP1 PUSH2 0x348D JUMP JUMPDEST POP RETURNDATASIZE PUSH2 0x34C8 JUMP JUMPDEST PUSH1 0x40 MLOAD RETURNDATASIZE DUP9 DUP3 RETURNDATACOPY RETURNDATASIZE SWAP1 REVERT JUMPDEST PUSH1 0xB SLOAD PUSH1 0x4 DUP3 DUP2 ADD SLOAD PUSH1 0x40 MLOAD PUSH4 0x553B7CBB PUSH1 0xE0 SHL DUP2 MSTORE SWAP2 DUP3 ADD DUP7 SWAP1 MSTORE CALLER PUSH1 0x24 DUP4 ADD MSTORE PUSH1 0x1 PUSH1 0x1 PUSH1 0xA0 SHL SUB SWAP1 DUP2 AND PUSH1 0x44 DUP4 ADD MSTORE SWAP3 SWAP6 POP SWAP2 DUP4 SWAP2 DUP4 SWAP2 PUSH1 0x64 SWAP2 DUP4 SWAP2 AND GAS STATICCALL SWAP1 DUP2 ISZERO PUSH2 0x3599 JUMPI DUP6 SWAP2 PUSH2 0x356C JUMPI JUMPDEST POP SWAP3 DUP3 DUP6 MSTORE PUSH1 0x2 DUP3 MSTORE PUSH1 0x40 DUP6 KECCAK256 CALLER PUSH1 0x0 MSTORE DUP3 MSTORE PUSH1 0x40 PUSH1 0x0 KECCAK256 PUSH1 0xFF NOT DUP2 SLOAD AND SWAP1 SSTORE PUSH2 0x3319 JUMP JUMPDEST SWAP1 POP DUP2 DUP2 DUP2 RETURNDATASIZE DUP4 GT PUSH2 0x3592 JUMPI JUMPDEST PUSH2 0x3583 DUP2 DUP4 PUSH2 0x4BE0 JUMP JUMPDEST DUP2 ADD SUB SLT PUSH2 0x87C JUMPI MLOAD CODESIZE PUSH2 0x3547 JUMP JUMPDEST POP RETURNDATASIZE PUSH2 0x3579 JUMP JUMPDEST PUSH1 0x40 MLOAD RETURNDATASIZE DUP8 DUP3 RETURNDATACOPY RETURNDATASIZE SWAP1 REVERT JUMPDEST PUSH1 0x84 SWAP1 PUSH1 0x40 MLOAD SWAP1 PUSH3 0x461BCD PUSH1 0xE5 SHL DUP3 MSTORE PUSH1 0x4 DUP3 ADD MSTORE PUSH1 0x21 PUSH1 0x24 DUP3 ADD MSTORE PUSH32 0x4D61726B65744D616E616765723A204E6F207374616B6520746F20726566756E PUSH1 0x44 DUP3 ADD MSTORE PUSH1 0x19 PUSH1 0xFA SHL PUSH1 0x64 DUP3 ADD MSTORE REVERT JUMPDEST POP DUP2 DUP5 MSTORE PUSH1 0x3 DUP2 MSTORE PUSH1 0x40 DUP5 KECCAK256 CALLER PUSH1 0x0 MSTORE DUP2 MSTORE PUSH1 0xFF PUSH1 0x40 PUSH1 0x0 KECCAK256 SLOAD AND PUSH2 0x32F3 JUMP JUMPDEST PUSH1 0x84 SWAP1 PUSH1 0x40 MLOAD SWAP1 PUSH3 0x461BCD PUSH1 0xE5 SHL DUP3 MSTORE PUSH1 0x4 DUP3 ADD MSTORE PUSH1 0x23 PUSH1 0x24 DUP3 ADD MSTORE PUSH32 0x4D61726B65744D616E616765723A204D61726B6574206E6F742063616E63656C PUSH1 0x44 DUP3 ADD MSTORE PUSH3 0x1B1959 PUSH1 0xEA SHL PUSH1 0x64 DUP3 ADD MSTORE REVERT JUMPDEST POP CALLVALUE PUSH2 0x351 JUMPI PUSH2 0x836 SWAP1 PUSH1 0x20 PUSH2 0x3677 CALLDATASIZE PUSH2 0x4921 JUMP JUMPDEST PUSH1 0xB SLOAD PUSH1 0x40 MLOAD PUSH4 0x553B7CBB PUSH1 0xE0 SHL DUP2 MSTORE PUSH1 0x4 DUP2 ADD SWAP5 SWAP1 SWAP5 MSTORE PUSH1 0x1 PUSH1 0x1 PUSH1 0xA0 SHL SUB SWAP3 DUP4 AND PUSH1 0x24 DUP6 ADD MSTORE SWAP1 DUP3 AND PUSH1 0x44 DUP5 ADD MSTORE SWAP2 SWAP5 DUP6 SWAP3 SWAP1 SWAP2 AND SWAP1 DUP3 SWAP1 DUP2 SWAP1 PUSH1 0x64 DUP3 ADD SWAP1 JUMP JUMPDEST POP CALLVALUE PUSH2 0x351 JUMPI PUSH1 0x20 CALLDATASIZE PUSH1 0x3 NOT ADD SLT PUSH2 0x351 JUMPI PUSH1 0x40 PUSH1 0x20 SWAP2 PUSH1 0x4 CALLDATALOAD DUP2 MSTORE PUSH1 0x5 DUP4 MSTORE KECCAK256 SLOAD PUSH1 0x40 MLOAD SWAP1 DUP2 MSTORE RETURN JUMPDEST POP CALLVALUE PUSH2 0x351 JUMPI PUSH1 0x40 CALLDATASIZE PUSH1 0x3 NOT ADD SLT PUSH2 0x351 JUMPI PUSH1 0x4 CALLDATALOAD PUSH1 0x24 CALLDATALOAD PUSH8 0xFFFFFFFFFFFFFFFF DUP2 GT PUSH2 0x1E47 JUMPI PUSH2 0x3719 SWAP1 CALLDATASIZE SWAP1 PUSH1 0x4 ADD PUSH2 0x4C1E JUMP JUMPDEST PUSH2 0x3721 PUSH2 0x4D54 JUMP JUMPDEST PUSH2 0x372E PUSH1 0xE SLOAD DUP4 LT PUSH2 0x59BE JUMP JUMPDEST DUP2 DUP4 MSTORE PUSH1 0x20 SWAP1 PUSH1 0x1 DUP3 MSTORE PUSH2 0x374F PUSH1 0x1 DUP1 PUSH1 0xA0 SHL SUB PUSH1 0x40 DUP7 KECCAK256 SLOAD AND ISZERO ISZERO PUSH2 0x5A09 JUMP JUMPDEST DUP3 DUP5 MSTORE PUSH1 0x1 DUP3 MSTORE PUSH1 0xFF PUSH1 0xB PUSH1 0x40 DUP7 KECCAK256 ADD SLOAD AND PUSH1 0x5 DUP2 LT ISZERO PUSH2 0xFDA JUMPI PUSH1 0x4 EQ PUSH2 0x3818 JUMPI DUP3 DUP5 MSTORE PUSH1 0x1 DUP3 MSTORE PUSH1 0xB PUSH1 0x40 DUP6 KECCAK256 ADD PUSH1 0x4 PUSH1 0xFF NOT DUP3 SLOAD AND OR SWAP1 SSTORE DUP3 DUP5 MSTORE PUSH1 0x17 DUP3 MSTORE TIMESTAMP PUSH1 0x40 DUP6 KECCAK256 SSTORE PUSH1 0x16 SLOAD SWAP2 PUSH1 0x1 PUSH1 0x40 SHL DUP4 LT ISZERO PUSH2 0xFC4 JUMPI PUSH2 0x37DC DUP5 PUSH2 0xBB7 DUP6 PUSH1 0x1 PUSH32 0x4C4561C5B0048424071C1115E9F1E325486E21C21333D968F21097B7B72D12AD SWAP8 ADD PUSH1 0x16 SSTORE PUSH2 0x49DA JUMP JUMPDEST DUP4 DUP6 MSTORE PUSH1 0x14 DUP2 MSTORE PUSH1 0xFF PUSH1 0x40 DUP7 KECCAK256 SLOAD AND PUSH2 0x380A JUMPI JUMPDEST PUSH2 0x3804 PUSH1 0x40 MLOAD SWAP3 DUP3 DUP5 SWAP4 DUP5 MSTORE DUP4 ADD SWAP1 PUSH2 0x4A64 JUMP JUMPDEST SUB SWAP1 LOG2 DUP1 RETURN JUMPDEST PUSH2 0x3813 DUP5 PUSH2 0x5A61 JUMP JUMPDEST PUSH2 0x37F0 JUMP JUMPDEST PUSH1 0x40 MLOAD PUSH3 0x461BCD PUSH1 0xE5 SHL DUP2 MSTORE PUSH1 0x4 DUP2 ADD DUP4 SWAP1 MSTORE PUSH1 0x1E PUSH1 0x24 DUP3 ADD MSTORE PUSH32 0x4D61726B65744D616E616765723A20416C72656164792064656C657465640000 PUSH1 0x44 DUP3 ADD MSTORE PUSH1 0x64 SWAP1 REVERT JUMPDEST POP CALLVALUE PUSH2 0x351 JUMPI DUP1 PUSH1 0x3 NOT CALLDATASIZE ADD SLT PUSH2 0x351 JUMPI PUSH1 0xC SLOAD PUSH1 0x40 MLOAD PUSH1 0x1 PUSH1 0x1 PUSH1 0xA0 SHL SUB SWAP1 SWAP2 AND DUP2 MSTORE PUSH1 0x20 SWAP1 RETURN JUMPDEST POP CALLVALUE PUSH2 0x351 JUMPI PUSH1 0x40 CALLDATASIZE PUSH1 0x3 NOT ADD SLT PUSH2 0x351 JUMPI PUSH2 0x836 SWAP1 PUSH1 0x20 PUSH2 0x38A6 PUSH2 0x48F5 JUMP JUMPDEST PUSH1 0xB SLOAD PUSH1 0x40 MLOAD PUSH4 0x4F44289D PUSH1 0xE0 SHL DUP2 MSTORE PUSH1 0x4 DUP1 CALLDATALOAD SWAP1 DUP3 ADD MSTORE PUSH1 0x1 PUSH1 0x1 PUSH1 0xA0 SHL SUB SWAP3 DUP4 AND PUSH1 0x24 DUP3 ADD MSTORE SWAP5 DUP6 SWAP3 SWAP1 SWAP2 AND SWAP1 DUP3 SWAP1 DUP2 SWAP1 PUSH1 0x44 DUP3 ADD SWAP1 JUMP JUMPDEST POP PUSH2 0x38EA CALLDATASIZE PUSH2 0x4B7D JUMP JUMPDEST SWAP1 DUP1 DUP4 MSTORE PUSH1 0x20 PUSH1 0x1 DUP2 MSTORE PUSH1 0x40 DUP5 KECCAK256 PUSH1 0xFF PUSH1 0xB DUP3 ADD SLOAD AND PUSH1 0x5 DUP2 LT ISZERO PUSH2 0x7C8 JUMPI PUSH2 0x3913 SWAP1 ISZERO PUSH2 0x4FCA JUMP JUMPDEST PUSH1 0xFF PUSH1 0x11 SLOAD AND PUSH2 0x3BE3 JUMPI JUMPDEST DUP4 ISZERO ISZERO DUP1 PUSH2 0x3BD5 JUMPI JUMPDEST PUSH2 0x3930 SWAP1 PUSH2 0x50A8 JUMP JUMPDEST PUSH1 0x4 DUP2 ADD DUP1 SLOAD PUSH1 0x1 PUSH1 0x1 PUSH1 0xA0 SHL SUB SWAP3 SWAP1 DUP4 AND PUSH2 0x3B6A JUMPI PUSH1 0x5 PUSH2 0x3956 SWAP2 ADD SLOAD CALLVALUE LT ISZERO PUSH2 0x50F4 JUMP JUMPDEST DUP6 DUP1 DUP1 DUP1 CALLVALUE DUP7 PUSH1 0xB SLOAD AND GAS CALL PUSH2 0x396A PUSH2 0x4E8F JUMP JUMPDEST POP ISZERO PUSH2 0x3B0E JUMPI SWAP1 DUP6 SWAP2 DUP5 DUP4 MSTORE PUSH1 0x2 DUP5 MSTORE PUSH1 0x40 DUP4 KECCAK256 CALLER PUSH1 0x0 MSTORE DUP5 MSTORE PUSH1 0xFF PUSH1 0x40 PUSH1 0x0 KECCAK256 SLOAD AND ISZERO PUSH2 0x3AE1 JUMPI JUMPDEST DUP5 DUP4 MSTORE PUSH1 0x2 DUP5 MSTORE PUSH1 0x40 DUP4 KECCAK256 CALLER PUSH1 0x0 MSTORE DUP5 MSTORE PUSH1 0x40 PUSH1 0x0 KECCAK256 PUSH1 0x1 PUSH1 0xFF NOT DUP3 SLOAD AND OR SWAP1 SSTORE DUP5 DUP4 MSTORE PUSH1 0x4 DUP5 MSTORE PUSH1 0x40 DUP4 KECCAK256 CALLER PUSH1 0x0 MSTORE DUP5 MSTORE DUP6 PUSH1 0x40 PUSH1 0x0 KECCAK256 SSTORE DUP2 DUP1 PUSH1 0xB SLOAD AND SWAP2 SLOAD AND SWAP1 DUP1 EXTCODESIZE ISZERO PUSH2 0x65F JUMPI PUSH1 0x40 MLOAD PUSH4 0x38051807 PUSH1 0xE2 SHL DUP2 MSTORE PUSH1 0x4 DUP2 ADD DUP8 SWAP1 MSTORE CALLER PUSH1 0x24 DUP3 ADD MSTORE PUSH1 0x1 PUSH1 0x1 PUSH1 0xA0 SHL SUB SWAP3 SWAP1 SWAP3 AND PUSH1 0x44 DUP4 ADD MSTORE CALLVALUE PUSH1 0x64 DUP4 ADD MSTORE PUSH1 0x84 DUP3 ADD DUP8 SWAP1 MSTORE DUP4 SWAP1 DUP3 SWAP1 PUSH1 0xA4 SWAP1 DUP3 SWAP1 DUP5 SWAP1 GAS CALL SWAP1 DUP2 ISZERO PUSH2 0x686 JUMPI DUP4 SWAP2 PUSH2 0x3ACD JUMPI JUMPDEST POP POP PUSH1 0xD SLOAD AND DUP1 PUSH2 0x3A72 JUMPI JUMPDEST POP POP PUSH1 0x40 MLOAD SWAP3 DUP4 MSTORE CALLVALUE SWAP1 DUP4 ADD MSTORE PUSH32 0x1B8A9031CB9351278D70A994F81536E9E08C91162E64F92B2FE4766FB7A891B4 PUSH1 0x40 CALLER SWAP4 LOG3 DUP1 RETURN JUMPDEST DUP1 EXTCODESIZE ISZERO PUSH2 0x66E JUMPI PUSH1 0x40 MLOAD PUSH4 0x5374B47B PUSH1 0xE0 SHL DUP2 MSTORE PUSH1 0x4 DUP2 ADD DUP6 SWAP1 MSTORE CALLER PUSH1 0x24 DUP3 ADD MSTORE PUSH1 0x44 DUP2 ADD DUP7 SWAP1 MSTORE CALLVALUE PUSH1 0x64 DUP3 ADD MSTORE SWAP1 DUP3 SWAP1 DUP3 SWAP1 PUSH1 0x84 SWAP1 DUP3 SWAP1 DUP5 SWAP1 GAS CALL DUP1 ISZERO PUSH2 0x663 JUMPI ISZERO PUSH2 0x3A3C JUMPI PUSH2 0x3AC2 SWAP1 PUSH2 0x4B93 JUMP JUMPDEST PUSH2 0x65F JUMPI DUP4 CODESIZE PUSH2 0x3A3C JUMP JUMPDEST PUSH2 0x3AD6 SWAP1 PUSH2 0x4B93 JUMP JUMPDEST PUSH2 0x66E JUMPI DUP2 CODESIZE PUSH2 0x3A30 JUMP JUMPDEST DUP5 DUP4 MSTORE PUSH1 0x5 DUP5 MSTORE PUSH2 0x3AF5 CALLER PUSH1 0x40 DUP6 KECCAK256 PUSH2 0x514B JUMP JUMPDEST CALLER DUP4 MSTORE PUSH1 0x15 DUP5 MSTORE PUSH2 0x3B09 DUP6 PUSH1 0x40 DUP6 KECCAK256 PUSH2 0x4E6C JUMP JUMPDEST PUSH2 0x3993 JUMP JUMPDEST PUSH1 0x40 MLOAD PUSH3 0x461BCD PUSH1 0xE5 SHL DUP2 MSTORE PUSH1 0x4 DUP2 ADD DUP5 SWAP1 MSTORE PUSH1 0x2E PUSH1 0x24 DUP3 ADD MSTORE PUSH32 0x4D61726B65744D616E616765723A20455448207472616E7366657220746F2054 PUSH1 0x44 DUP3 ADD MSTORE PUSH14 0x1C99585CDD5C9E4819985A5B1959 PUSH1 0x92 SHL PUSH1 0x64 DUP3 ADD MSTORE PUSH1 0x84 SWAP1 REVERT JUMPDEST PUSH1 0x40 MLOAD PUSH3 0x461BCD PUSH1 0xE5 SHL DUP2 MSTORE PUSH1 0x4 DUP2 ADD DUP6 SWAP1 MSTORE PUSH1 0x3D PUSH1 0x24 DUP3 ADD MSTORE PUSH32 0x4D61726B65744D616E616765723A2054686973206D61726B6574207573657320 PUSH1 0x44 DUP3 ADD MSTORE PUSH32 0x746F6B656E732C2075736520706C61636542657457697468546F6B656E000000 PUSH1 0x64 DUP3 ADD MSTORE PUSH1 0x84 SWAP1 REVERT JUMPDEST POP PUSH1 0x3 DUP2 ADD SLOAD DUP5 GT ISZERO PUSH2 0x3927 JUMP JUMPDEST PUSH1 0x9 DUP2 ADD SLOAD PUSH1 0x12 SLOAD SWAP1 PUSH1 0x3C DUP3 MUL SWAP2 DUP1 DUP4 DIV PUSH1 0x3C EQ SWAP1 ISZERO OR ISZERO PUSH2 0x19B6 JUMPI PUSH2 0x3C0C SWAP2 PUSH2 0x2A37 SWAP2 PUSH2 0x5015 JUMP JUMPDEST PUSH2 0x391E JUMP JUMPDEST POP CALLVALUE PUSH2 0x351 JUMPI PUSH1 0x40 CALLDATASIZE PUSH1 0x3 NOT ADD SLT PUSH2 0x351 JUMPI PUSH1 0x40 PUSH2 0x3C2D PUSH2 0x48F5 JUMP JUMPDEST SWAP2 PUSH1 0x4 CALLDATALOAD DUP2 MSTORE PUSH1 0x4 PUSH1 0x20 MSTORE KECCAK256 SWAP1 PUSH1 0x1 DUP1 PUSH1 0xA0 SHL SUB AND PUSH1 0x0 MSTORE PUSH1 0x20 MSTORE PUSH1 0x20 PUSH1 0x40 PUSH1 0x0 KECCAK256 SLOAD PUSH1 0x40 MLOAD SWAP1 DUP2 MSTORE RETURN JUMPDEST POP CALLVALUE PUSH2 0x351 JUMPI PUSH1 0x20 CALLDATASIZE PUSH1 0x3 NOT ADD SLT PUSH2 0x351 JUMPI PUSH1 0x4 CALLDATALOAD PUSH2 0x3C75 PUSH2 0x4D54 JUMP JUMPDEST DUP1 ISZERO PUSH2 0x3C81 JUMPI PUSH1 0x10 SSTORE DUP1 RETURN JUMPDEST PUSH1 0x40 MLOAD PUSH3 0x461BCD PUSH1 0xE5 SHL DUP2 MSTORE PUSH1 0x20 PUSH1 0x4 DUP3 ADD MSTORE PUSH1 0x27 PUSH1 0x24 DUP3 ADD MSTORE PUSH32 0x4D61726B65744D616E616765723A20496E76616C6964206D696E696D756D2064 PUSH1 0x44 DUP3 ADD MSTORE PUSH7 0x3AB930BA34B7B7 PUSH1 0xC9 SHL PUSH1 0x64 DUP3 ADD MSTORE PUSH1 0x84 SWAP1 REVERT JUMPDEST POP CALLVALUE PUSH2 0x351 JUMPI DUP1 PUSH1 0x3 NOT CALLDATASIZE ADD SLT PUSH2 0x351 JUMPI PUSH1 0x20 PUSH1 0xE SLOAD PUSH1 0x40 MLOAD SWAP1 DUP2 MSTORE RETURN JUMPDEST POP CALLVALUE PUSH2 0x351 JUMPI PUSH1 0x20 DUP1 PUSH1 0x3 NOT CALLDATASIZE ADD SLT PUSH2 0x66E JUMPI PUSH2 0x3E25 PUSH1 0x4 CALLDATALOAD SWAP2 PUSH2 0x3D16 PUSH2 0x5B1B JUMP JUMPDEST POP DUP3 DUP5 MSTORE PUSH1 0x1 SWAP1 DUP2 DUP2 MSTORE PUSH1 0x40 DUP6 KECCAK256 SWAP4 PUSH1 0x40 MLOAD SWAP6 PUSH2 0x3D32 DUP8 PUSH2 0x4BA7 JUMP JUMPDEST DUP6 SLOAD PUSH1 0x1 PUSH1 0x1 PUSH1 0xA0 SHL SUB SWAP1 DUP2 AND DUP9 MSTORE PUSH2 0x3D4C DUP6 DUP9 ADD PUSH2 0x4C9F JUMP JUMPDEST DUP5 DUP10 ADD MSTORE PUSH1 0xFF PUSH1 0x2 DUP9 ADD SLOAD AND ISZERO ISZERO PUSH1 0x40 DUP10 ADD MSTORE PUSH1 0x3 DUP8 ADD SLOAD PUSH1 0x60 DUP10 ADD MSTORE DUP1 PUSH1 0x4 DUP9 ADD SLOAD AND SWAP2 PUSH1 0x80 DUP10 ADD SWAP3 DUP4 MSTORE PUSH1 0x5 DUP9 ADD SLOAD PUSH1 0xA0 DUP11 ADD MSTORE PUSH1 0x6 DUP9 ADD SLOAD PUSH1 0xC0 DUP11 ADD MSTORE PUSH1 0x7 DUP9 ADD SLOAD PUSH1 0xE0 DUP11 ADD MSTORE PUSH1 0xFF PUSH1 0xD PUSH1 0x8 DUP11 ADD SLOAD SWAP10 PUSH2 0x100 SWAP11 DUP12 DUP14 ADD MSTORE PUSH1 0x9 DUP2 ADD SLOAD PUSH2 0x120 DUP14 ADD MSTORE PUSH1 0xA DUP2 ADD SLOAD PUSH2 0x140 DUP14 ADD MSTORE PUSH2 0x3DD3 DUP13 PUSH2 0x160 DUP6 PUSH1 0xB DUP6 ADD SLOAD AND SWAP2 ADD PUSH2 0x4E49 JUMP JUMPDEST PUSH1 0xC DUP2 ADD SLOAD PUSH2 0x180 DUP14 ADD MSTORE ADD SLOAD AND ISZERO ISZERO PUSH2 0x1A0 DUP11 ADD MSTORE PUSH1 0xB SLOAD DUP4 MLOAD PUSH1 0x40 MLOAD PUSH4 0x3D1E7BA1 PUSH1 0xE1 SHL DUP2 MSTORE PUSH1 0x4 DUP2 ADD DUP8 SWAP1 MSTORE SWAP1 DUP5 AND PUSH1 0x1 PUSH1 0x1 PUSH1 0xA0 SHL SUB AND PUSH1 0x24 DUP3 ADD MSTORE SWAP8 SWAP1 DUP4 AND SWAP1 DUP7 SWAP1 DUP10 SWAP1 DUP2 SWAP1 PUSH1 0x44 DUP3 ADD SWAP1 JUMP JUMPDEST SUB DUP2 DUP5 GAS STATICCALL SWAP8 DUP9 ISZERO PUSH2 0x663 JUMPI DUP3 SWAP9 PUSH2 0x3FEA JUMPI JUMPDEST POP DUP4 MLOAD PUSH1 0x40 MLOAD PUSH4 0x4F44289D PUSH1 0xE0 SHL DUP2 MSTORE PUSH1 0x4 DUP2 ADD DUP8 SWAP1 MSTORE SWAP1 DUP5 AND PUSH1 0x1 PUSH1 0x1 PUSH1 0xA0 SHL SUB AND PUSH1 0x24 DUP3 ADD MSTORE SWAP2 SWAP1 DUP7 SWAP1 DUP4 SWAP1 DUP2 DUP1 PUSH1 0x44 DUP2 ADD SUB SWAP2 GAS STATICCALL SWAP2 DUP3 ISZERO PUSH2 0x3FDD JUMPI DUP2 SWAP3 PUSH2 0x3FAE JUMPI JUMPDEST POP DUP5 DUP2 MSTORE PUSH1 0x5 DUP7 MSTORE PUSH1 0x40 DUP2 KECCAK256 SLOAD SWAP3 PUSH1 0x6 DUP8 MSTORE PUSH1 0x40 DUP3 KECCAK256 SLOAD SWAP5 PUSH1 0x5 DUP9 MSTORE PUSH1 0x40 DUP4 KECCAK256 SWAP7 DUP10 PUSH1 0x40 MLOAD DUP1 SWAP10 DUP11 SWAP2 DUP13 DUP3 SLOAD SWAP2 DUP3 DUP2 MSTORE ADD SWAP2 DUP9 MSTORE DUP13 DUP1 DUP10 KECCAK256 SWAP5 DUP10 SWAP2 JUMPDEST DUP4 DUP4 LT PUSH2 0x3F95 JUMPI POP POP POP POP PUSH2 0x3ED1 SWAP3 POP SUB DUP10 PUSH2 0x4BE0 JUMP JUMPDEST DUP4 MSTORE PUSH1 0x6 DUP9 MSTORE PUSH1 0x40 DUP4 KECCAK256 PUSH1 0x40 MLOAD DUP1 SWAP11 DUP11 DUP4 SLOAD SWAP3 DUP4 DUP2 MSTORE ADD SWAP3 DUP7 MSTORE DUP11 DUP7 KECCAK256 SWAP2 DUP7 JUMPDEST DUP2 DUP2 LT PUSH2 0x3F80 JUMPI POP POP POP POP PUSH1 0x40 PUSH2 0x3F64 SWAP8 SWAP5 PUSH2 0x3F72 SWAP11 SWAP8 SWAP5 DUP13 SWAP11 SWAP8 SWAP5 PUSH2 0x3F20 PUSH2 0x3A3 SWAP16 SWAP15 PUSH2 0x3F2E SWAP7 SUB DUP14 PUSH2 0x4BE0 JUMP JUMPDEST MLOAD AND DUP2 MSTORE PUSH1 0x8 DUP9 MSTORE KECCAK256 PUSH2 0x4C9F JUMP JUMPDEST SWAP9 PUSH2 0x3F44 PUSH1 0x40 MLOAD SWAP14 DUP14 DUP16 SWAP15 DUP16 SWAP1 DUP2 MSTORE ADD SWAP1 PUSH2 0x4AC7 JUMP JUMPDEST SWAP6 DUP13 ADD MSTORE PUSH1 0x40 DUP12 ADD MSTORE PUSH1 0x60 DUP11 ADD MSTORE PUSH1 0x80 DUP10 ADD MSTORE DUP8 DUP3 SUB PUSH1 0xA0 DUP10 ADD MSTORE PUSH2 0x48B8 JUMP JUMPDEST SWAP1 DUP6 DUP3 SUB PUSH1 0xC0 DUP8 ADD MSTORE PUSH2 0x48B8 JUMP JUMPDEST SWAP1 DUP4 DUP3 SUB PUSH1 0xE0 DUP6 ADD MSTORE PUSH2 0x4A64 JUMP JUMPDEST DUP4 SLOAD DUP8 AND DUP6 MSTORE SWAP4 DUP13 ADD SWAP4 SWAP3 DUP3 ADD SWAP3 DUP3 ADD PUSH2 0x3EF1 JUMP JUMPDEST DUP7 SLOAD DUP11 AND DUP6 MSTORE SWAP6 DUP2 ADD SWAP6 DUP15 SWAP6 POP SWAP1 SWAP4 ADD SWAP3 ADD DUP15 DUP15 PUSH2 0x3EBA JUMP JUMPDEST SWAP1 SWAP2 POP DUP6 DUP2 DUP2 RETURNDATASIZE DUP4 GT PUSH2 0x3FD6 JUMPI JUMPDEST PUSH2 0x3FC6 DUP2 DUP4 PUSH2 0x4BE0 JUMP JUMPDEST DUP2 ADD SUB SLT PUSH2 0x87C JUMPI MLOAD SWAP1 CODESIZE PUSH2 0x3E7E JUMP JUMPDEST POP RETURNDATASIZE PUSH2 0x3FBC JUMP JUMPDEST POP PUSH1 0x40 MLOAD SWAP1 RETURNDATASIZE SWAP1 DUP3 RETURNDATACOPY RETURNDATASIZE SWAP1 REVERT JUMPDEST SWAP2 SWAP1 SWAP8 POP DUP6 DUP3 DUP2 RETURNDATASIZE DUP4 GT PUSH2 0x4014 JUMPI JUMPDEST PUSH2 0x4003 DUP2 DUP4 PUSH2 0x4BE0 JUMP JUMPDEST DUP2 ADD SUB SLT PUSH2 0x87C JUMPI SWAP1 MLOAD SWAP7 DUP6 PUSH2 0x3E38 JUMP JUMPDEST POP RETURNDATASIZE PUSH2 0x3FF9 JUMP JUMPDEST POP CALLVALUE PUSH2 0x351 JUMPI PUSH1 0x20 DUP1 PUSH1 0x3 NOT CALLDATASIZE ADD SLT PUSH2 0x66E JUMPI PUSH1 0x4 CALLDATALOAD DUP1 DUP4 MSTORE PUSH1 0x1 DUP3 MSTORE PUSH1 0x40 DUP4 KECCAK256 SWAP2 PUSH1 0x3 DUP2 MSTORE PUSH1 0x40 DUP5 KECCAK256 CALLER DUP6 MSTORE DUP2 MSTORE PUSH2 0x405A PUSH1 0xFF PUSH1 0x40 DUP7 KECCAK256 SLOAD AND PUSH2 0x516E JUMP JUMPDEST PUSH1 0xFF PUSH1 0xB DUP5 ADD SLOAD AND PUSH1 0x5 DUP2 LT ISZERO PUSH2 0xFDA JUMPI DUP1 PUSH2 0x4263 JUMPI POP PUSH1 0x9 DUP4 ADD SLOAD PUSH2 0xA8BF NOT DUP2 ADD SWAP1 DUP2 GT PUSH2 0x424F JUMPI TIMESTAMP LT ISZERO PUSH2 0x41E5 JUMPI JUMPDEST PUSH1 0xB SLOAD PUSH1 0x4 SWAP4 DUP5 ADD SLOAD PUSH1 0x40 MLOAD PUSH4 0x256BA741 PUSH1 0xE0 SHL DUP2 MSTORE SWAP5 DUP6 ADD DUP5 SWAP1 MSTORE CALLER PUSH1 0x24 DUP7 ADD MSTORE PUSH1 0x1 PUSH1 0x1 PUSH1 0xA0 SHL SUB SWAP1 DUP2 AND PUSH1 0x44 DUP7 ADD DUP2 SWAP1 MSTORE SWAP2 AND SWAP1 DUP6 SWAP1 DUP4 DUP7 PUSH1 0x64 DUP2 DUP7 GAS STATICCALL SWAP6 DUP7 ISZERO PUSH2 0x663 JUMPI DUP3 SWAP7 PUSH2 0x41B6 JUMPI JUMPDEST POP PUSH2 0x40E6 DUP7 ISZERO ISZERO PUSH2 0x516E JUMP JUMPDEST DUP3 EXTCODESIZE ISZERO PUSH2 0x66E JUMPI PUSH1 0x40 MLOAD PUSH4 0x17BE0B2F PUSH1 0xE1 SHL DUP2 MSTORE PUSH1 0x4 DUP2 ADD DUP7 SWAP1 MSTORE CALLER PUSH1 0x24 DUP3 ADD MSTORE PUSH1 0x1 PUSH1 0x1 PUSH1 0xA0 SHL SUB SWAP2 SWAP1 SWAP2 AND PUSH1 0x44 DUP3 ADD MSTORE PUSH1 0x64 DUP2 ADD DUP7 SWAP1 MSTORE SWAP2 DUP3 SWAP1 PUSH1 0x84 SWAP1 DUP3 SWAP1 DUP5 SWAP1 GAS CALL DUP1 ISZERO PUSH2 0x3599 JUMPI PUSH2 0x4183 JUMPI JUMPDEST POP PUSH32 0xFB349E367FA58E764F8867E52D91C7E0B9E6904700091667054CE1FDB56C496D SWAP1 DUP3 DUP6 MSTORE PUSH1 0x3 DUP2 MSTORE PUSH1 0x40 DUP6 KECCAK256 CALLER PUSH1 0x0 MSTORE DUP2 MSTORE PUSH1 0x40 PUSH1 0x0 KECCAK256 PUSH1 0xFF NOT DUP2 SLOAD AND SWAP1 SSTORE PUSH1 0x40 MLOAD SWAP4 DUP5 MSTORE CALLER SWAP4 LOG3 DUP1 RETURN JUMPDEST SWAP4 PUSH2 0x41AF PUSH32 0xFB349E367FA58E764F8867E52D91C7E0B9E6904700091667054CE1FDB56C496D SWAP3 SWAP6 PUSH2 0x4B93 JUMP JUMPDEST SWAP4 SWAP1 PUSH2 0x4136 JUMP JUMPDEST SWAP1 SWAP6 POP DUP4 DUP2 DUP2 RETURNDATASIZE DUP4 GT PUSH2 0x41DE JUMPI JUMPDEST PUSH2 0x41CE DUP2 DUP4 PUSH2 0x4BE0 JUMP JUMPDEST DUP2 ADD SUB SLT PUSH2 0x66E JUMPI MLOAD SWAP5 CODESIZE PUSH2 0x40DA JUMP JUMPDEST POP RETURNDATASIZE PUSH2 0x41C4 JUMP JUMPDEST PUSH1 0x84 SWAP1 PUSH1 0x40 MLOAD SWAP1 PUSH3 0x461BCD PUSH1 0xE5 SHL DUP3 MSTORE PUSH1 0x4 DUP3 ADD MSTORE PUSH1 0x3C PUSH1 0x24 DUP3 ADD MSTORE PUSH32 0x4D61726B65744D616E616765723A2043616E6E6F742077697468647261772077 PUSH1 0x44 DUP3 ADD MSTORE PUSH32 0x697468696E20313220686F757273206F66206D61726B657420656E6400000000 PUSH1 0x64 DUP3 ADD MSTORE REVERT JUMPDEST PUSH4 0x4E487B71 PUSH1 0xE0 SHL DUP6 MSTORE PUSH1 0x11 PUSH1 0x4 MSTORE PUSH1 0x24 DUP6 REVERT JUMPDEST PUSH1 0x4 DUP2 EQ SWAP1 DUP2 ISZERO PUSH2 0x42D7 JUMPI JUMPDEST POP PUSH2 0x408B JUMPI PUSH1 0x84 SWAP1 PUSH1 0x40 MLOAD SWAP1 PUSH3 0x461BCD PUSH1 0xE5 SHL DUP3 MSTORE PUSH1 0x4 DUP3 ADD MSTORE PUSH1 0x36 PUSH1 0x24 DUP3 ADD MSTORE PUSH32 0x4D61726B65744D616E616765723A2043616E6E6F742077697468647261772069 PUSH1 0x44 DUP3 ADD MSTORE PUSH22 0x6E2063757272656E74206D61726B6574207374617465 PUSH1 0x50 SHL PUSH1 0x64 DUP3 ADD MSTORE REVERT JUMPDEST PUSH1 0x3 SWAP2 POP EQ CODESIZE PUSH2 0x426F JUMP JUMPDEST POP CALLVALUE PUSH2 0x351 JUMPI PUSH1 0x20 CALLDATASIZE PUSH1 0x3 NOT ADD SLT PUSH2 0x351 JUMPI PUSH1 0x4 CALLDATALOAD SWAP1 PUSH1 0x13 SLOAD DUP3 LT ISZERO PUSH2 0x351 JUMPI PUSH1 0x20 PUSH2 0x201C DUP4 PUSH2 0x49A3 JUMP JUMPDEST POP CALLVALUE PUSH2 0x351 JUMPI PUSH1 0x20 DUP1 PUSH1 0x3 NOT CALLDATASIZE ADD SLT PUSH2 0x66E JUMPI PUSH1 0x1 PUSH1 0x1 PUSH1 0xA0 SHL SUB PUSH2 0x4330 PUSH2 0x490B JUMP JUMPDEST AND DUP3 MSTORE PUSH1 0x15 DUP2 MSTORE PUSH1 0x40 DUP3 KECCAK256 SWAP2 PUSH1 0x40 MLOAD DUP1 SWAP3 DUP1 DUP6 SLOAD SWAP3 DUP4 DUP2 MSTORE ADD SWAP5 DUP4 MSTORE DUP1 DUP4 KECCAK256 SWAP3 SWAP1 JUMPDEST DUP3 DUP3 LT PUSH2 0x4369 JUMPI PUSH2 0x3A3 DUP6 PUSH2 0x1F64 DUP2 DUP10 SUB DUP3 PUSH2 0x4BE0 JUMP JUMPDEST DUP4 SLOAD DUP7 MSTORE SWAP5 DUP6 ADD SWAP5 PUSH1 0x1 SWAP4 DUP5 ADD SWAP4 SWAP1 SWAP2 ADD SWAP1 PUSH2 0x4352 JUMP JUMPDEST POP CALLVALUE PUSH2 0x351 JUMPI DUP1 PUSH1 0x3 NOT CALLDATASIZE ADD SLT PUSH2 0x351 JUMPI PUSH1 0x20 PUSH1 0xF SLOAD PUSH1 0x40 MLOAD SWAP1 DUP2 MSTORE RETURN JUMPDEST POP CALLVALUE PUSH2 0x351 JUMPI PUSH1 0x20 CALLDATASIZE PUSH1 0x3 NOT ADD SLT PUSH2 0x351 JUMPI PUSH1 0x4 CALLDATALOAD SWAP1 PUSH1 0x9 SLOAD DUP3 LT ISZERO PUSH2 0x351 JUMPI PUSH1 0x20 PUSH2 0x15FA DUP4 PUSH2 0x4956 JUMP JUMPDEST POP CALLVALUE PUSH2 0x351 JUMPI PUSH1 0x20 CALLDATASIZE PUSH1 0x3 NOT ADD SLT PUSH2 0x351 JUMPI PUSH1 0x20 SWAP1 PUSH1 0xFF SWAP1 PUSH1 0x40 SWAP1 PUSH1 0x1 PUSH1 0x1 PUSH1 0xA0 SHL SUB PUSH2 0x43F4 PUSH2 0x490B JUMP JUMPDEST AND DUP2 MSTORE PUSH1 0xA DUP5 MSTORE KECCAK256 SLOAD AND PUSH1 0x40 MLOAD SWAP1 ISZERO ISZERO DUP2 MSTORE RETURN JUMPDEST POP CALLVALUE PUSH2 0x351 JUMPI PUSH1 0x40 CALLDATASIZE PUSH1 0x3 NOT ADD SLT PUSH2 0x351 JUMPI PUSH1 0xFF PUSH1 0x40 PUSH1 0x20 SWAP3 PUSH2 0x4429 PUSH2 0x48F5 JUMP JUMPDEST PUSH1 0x4 CALLDATALOAD DUP3 MSTORE PUSH1 0x3 DUP6 MSTORE DUP3 DUP3 KECCAK256 PUSH1 0x1 PUSH1 0x1 PUSH1 0xA0 SHL SUB SWAP1 SWAP2 AND DUP3 MSTORE DUP5 MSTORE KECCAK256 SLOAD PUSH1 0x40 MLOAD SWAP2 AND ISZERO ISZERO DUP2 MSTORE RETURN JUMPDEST POP CALLVALUE PUSH2 0x351 JUMPI PUSH2 0x44A8 PUSH1 0x20 PUSH2 0x4465 CALLDATASIZE PUSH2 0x4921 JUMP JUMPDEST PUSH1 0xB SLOAD PUSH1 0x40 MLOAD PUSH4 0x256BA741 PUSH1 0xE0 SHL DUP2 MSTORE PUSH1 0x4 DUP2 ADD SWAP5 SWAP1 SWAP5 MSTORE PUSH1 0x1 PUSH1 0x1 PUSH1 0xA0 SHL SUB SWAP3 DUP4 AND PUSH1 0x24 DUP6 ADD MSTORE SWAP1 DUP3 AND PUSH1 0x44 DUP5 ADD MSTORE SWAP2 SWAP4 DUP5 SWAP3 SWAP1 SWAP2 AND SWAP1 DUP3 SWAP1 DUP2 SWAP1 PUSH1 0x64 DUP3 ADD SWAP1 JUMP JUMPDEST SUB SWAP2 GAS STATICCALL SWAP1 DUP2 ISZERO PUSH2 0x663 JUMPI DUP3 SWAP2 PUSH2 0x44C5 JUMPI JUMPDEST PUSH1 0x20 DUP3 PUSH1 0x40 MLOAD SWAP1 DUP2 MSTORE RETURN JUMPDEST SWAP1 POP PUSH1 0x20 DUP2 RETURNDATASIZE DUP3 GT PUSH2 0x44F2 JUMPI JUMPDEST DUP2 PUSH2 0x44DF PUSH1 0x20 SWAP4 DUP4 PUSH2 0x4BE0 JUMP JUMPDEST DUP2 ADD SUB SLT PUSH2 0x66E JUMPI PUSH1 0x20 SWAP2 POP MLOAD CODESIZE PUSH2 0x44BA JUMP JUMPDEST RETURNDATASIZE SWAP2 POP PUSH2 0x44D2 JUMP JUMPDEST POP CALLVALUE PUSH2 0x351 JUMPI DUP1 PUSH1 0x3 NOT CALLDATASIZE ADD SLT PUSH2 0x351 JUMPI PUSH1 0x20 PUSH1 0x10 SLOAD PUSH1 0x40 MLOAD SWAP1 DUP2 MSTORE RETURN JUMPDEST POP CALLVALUE PUSH2 0x351 JUMPI PUSH1 0x20 CALLDATASIZE PUSH1 0x3 NOT ADD SLT PUSH2 0x351 JUMPI PUSH1 0x4 CALLDATALOAD DUP1 DUP3 MSTORE PUSH1 0x1 PUSH1 0x20 MSTORE PUSH1 0x40 DUP3 KECCAK256 PUSH1 0xB DUP2 ADD SWAP1 DUP2 SLOAD SWAP1 PUSH1 0xFF DUP3 AND PUSH1 0x5 DUP2 LT ISZERO PUSH2 0x7C8 JUMPI SWAP1 PUSH2 0x455B PUSH1 0x9 SWAP3 ISZERO PUSH2 0x4FCA JUMP JUMPDEST ADD SLOAD DUP1 TIMESTAMP LT PUSH2 0x459B JUMPI PUSH31 0xB6FEAE4BEC70344A7D0E99F4C0237ADAAEEE2FBB258266BE400BD8612A332 SWAP3 PUSH1 0x1 PUSH1 0x20 SWAP4 PUSH1 0xFF NOT AND OR SWAP1 SSTORE PUSH1 0x40 MLOAD SWAP1 DUP2 MSTORE LOG2 DUP1 RETURN JUMPDEST PUSH1 0x40 MLOAD PUSH3 0x461BCD PUSH1 0xE5 SHL DUP2 MSTORE PUSH1 0x20 PUSH1 0x4 DUP3 ADD MSTORE PUSH1 0x27 PUSH1 0x24 DUP3 ADD MSTORE PUSH32 0x4D61726B65744D616E616765723A2042657474696E6720706572696F64206E6F PUSH1 0x44 DUP3 ADD MSTORE PUSH7 0x1D08195B991959 PUSH1 0xCA SHL PUSH1 0x64 DUP3 ADD MSTORE PUSH1 0x84 SWAP1 REVERT JUMPDEST POP CALLVALUE PUSH2 0x351 JUMPI PUSH1 0x20 CALLDATASIZE PUSH1 0x3 NOT ADD SLT PUSH2 0x351 JUMPI PUSH1 0xFF PUSH1 0x40 PUSH1 0x20 SWAP3 PUSH1 0x4 CALLDATALOAD DUP2 MSTORE PUSH1 0x14 DUP5 MSTORE KECCAK256 SLOAD AND PUSH1 0x40 MLOAD SWAP1 ISZERO ISZERO DUP2 MSTORE RETURN JUMPDEST POP CALLVALUE PUSH2 0x351 JUMPI PUSH1 0x20 DUP1 PUSH1 0x3 NOT CALLDATASIZE ADD SLT PUSH2 0x66E JUMPI PUSH1 0x4 CALLDATALOAD DUP3 MSTORE PUSH1 0x5 DUP2 MSTORE PUSH1 0x40 DUP3 KECCAK256 SWAP2 PUSH1 0x40 MLOAD DUP1 SWAP4 DUP5 SWAP2 DUP5 DUP3 SLOAD SWAP2 DUP3 DUP2 MSTORE ADD SWAP2 DUP5 MSTORE DUP5 DUP5 KECCAK256 SWAP4 JUMPDEST DUP6 DUP3 DUP3 LT PUSH2 0x466E JUMPI POP POP POP PUSH2 0x212E SWAP3 POP SUB DUP4 PUSH2 0x4BE0 JUMP JUMPDEST DUP6 SLOAD PUSH1 0x1 PUSH1 0x1 PUSH1 0xA0 SHL SUB AND DUP5 MSTORE PUSH1 0x1 SWAP6 DUP7 ADD SWAP6 DUP9 SWAP6 POP SWAP4 ADD SWAP3 ADD PUSH2 0x4657 JUMP JUMPDEST POP CALLVALUE PUSH2 0x351 JUMPI PUSH1 0x20 DUP1 PUSH1 0x3 NOT CALLDATASIZE ADD SLT PUSH2 0x66E JUMPI PUSH1 0x4 CALLDATALOAD SWAP1 PUSH2 0x46AC PUSH2 0x4D54 JUMP JUMPDEST PUSH2 0x46B9 PUSH1 0xE SLOAD DUP4 LT PUSH2 0x59BE JUMP JUMPDEST DUP2 DUP4 MSTORE PUSH1 0x1 DUP1 DUP3 MSTORE PUSH1 0x40 DUP5 KECCAK256 SLOAD PUSH2 0x46DA SWAP1 PUSH1 0x1 PUSH1 0x1 PUSH1 0xA0 SHL SUB AND ISZERO ISZERO PUSH2 0x5A09 JUMP JUMPDEST DUP3 DUP5 MSTORE DUP1 DUP3 MSTORE PUSH1 0xFF PUSH1 0xB PUSH1 0x40 DUP7 KECCAK256 ADD SLOAD AND PUSH1 0x5 DUP2 LT ISZERO PUSH2 0xFDA JUMPI PUSH1 0x2 PUSH2 0x4700 SWAP2 EQ PUSH2 0x556C JUMP JUMPDEST DUP3 DUP5 MSTORE DUP1 DUP3 MSTORE PUSH1 0xA PUSH1 0x40 DUP6 KECCAK256 ADD SLOAD PUSH3 0x278D00 DUP2 ADD DUP1 SWAP2 GT PUSH2 0x424F JUMPI TIMESTAMP LT PUSH2 0x4865 JUMPI DUP3 DUP5 MSTORE DUP1 DUP3 MSTORE DUP4 PUSH1 0xD PUSH1 0x40 DUP3 KECCAK256 DUP3 DUP2 SSTORE PUSH2 0x473C DUP5 DUP3 ADD PUSH2 0x5949 JUMP JUMPDEST DUP3 PUSH1 0x2 DUP3 ADD SSTORE DUP3 PUSH1 0x3 DUP3 ADD SSTORE DUP3 PUSH1 0x4 DUP3 ADD SSTORE DUP3 PUSH1 0x5 DUP3 ADD SSTORE DUP3 PUSH1 0x6 DUP3 ADD SSTORE DUP3 PUSH1 0x7 DUP3 ADD SSTORE DUP3 PUSH1 0x8 DUP3 ADD SSTORE DUP3 PUSH1 0x9 DUP3 ADD SSTORE DUP3 PUSH1 0xA DUP3 ADD SSTORE DUP3 PUSH1 0xB DUP3 ADD SSTORE DUP3 PUSH1 0xC DUP3 ADD SSTORE ADD SSTORE DUP3 DUP5 MSTORE PUSH1 0x14 DUP3 MSTORE PUSH1 0xFF PUSH1 0x40 DUP6 KECCAK256 SLOAD AND PUSH2 0x4857 JUMPI JUMPDEST PUSH1 0x18 SLOAD SWAP1 PUSH1 0x1 PUSH1 0x40 SHL DUP3 LT ISZERO PUSH2 0x10A6 JUMPI DUP2 ADD DUP1 PUSH1 0x18 SSTORE DUP2 LT ISZERO PUSH2 0x4843 JUMPI PUSH32 0x4C4561C5B0048424071C1115E9F1E325486E21C21333D968F21097B7B72D12AD SWAP2 DUP4 PUSH1 0x80 SWAP3 PUSH1 0x18 DUP8 MSTORE PUSH32 0xB13D2D76D1F4B7BE834882E410B3E3A8AFAF69F83600AE24DB354391D2378D2E ADD SSTORE PUSH1 0x26 PUSH1 0x40 MLOAD SWAP2 DUP1 DUP4 MSTORE DUP3 ADD MSTORE PUSH32 0x5065726D616E656E746C792072656D6F76656420616674657220636C61696D20 PUSH1 0x40 DUP3 ADD MSTORE PUSH6 0x1C195C9A5BD9 PUSH1 0xD2 SHL PUSH1 0x60 DUP3 ADD MSTORE LOG2 DUP1 RETURN JUMPDEST PUSH4 0x4E487B71 PUSH1 0xE0 SHL DUP5 MSTORE PUSH1 0x32 PUSH1 0x4 MSTORE PUSH1 0x24 DUP5 REVERT JUMPDEST PUSH2 0x4860 DUP4 PUSH2 0x5A61 JUMP JUMPDEST PUSH2 0x4794 JUMP JUMPDEST PUSH1 0x40 MLOAD PUSH3 0x461BCD PUSH1 0xE5 SHL DUP2 MSTORE PUSH1 0x4 DUP2 ADD DUP4 SWAP1 MSTORE PUSH1 0x25 PUSH1 0x24 DUP3 ADD MSTORE PUSH32 0x4D61726B65744D616E616765723A20436C61696D20706572696F64206E6F7420 PUSH1 0x44 DUP3 ADD MSTORE PUSH5 0x195B991959 PUSH1 0xDA SHL PUSH1 0x64 DUP3 ADD MSTORE PUSH1 0x84 SWAP1 REVERT JUMPDEST SWAP1 DUP2 MLOAD DUP1 DUP3 MSTORE PUSH1 0x20 DUP1 DUP1 SWAP4 ADD SWAP4 ADD SWAP2 PUSH1 0x0 JUMPDEST DUP3 DUP2 LT PUSH2 0x48D8 JUMPI POP POP POP POP SWAP1 JUMP JUMPDEST DUP4 MLOAD PUSH1 0x1 PUSH1 0x1 PUSH1 0xA0 SHL SUB AND DUP6 MSTORE SWAP4 DUP2 ADD SWAP4 SWAP3 DUP2 ADD SWAP3 PUSH1 0x1 ADD PUSH2 0x48CA JUMP JUMPDEST PUSH1 0x24 CALLDATALOAD SWAP1 PUSH1 0x1 PUSH1 0x1 PUSH1 0xA0 SHL SUB DUP3 AND DUP3 SUB PUSH2 0x87C JUMPI JUMP JUMPDEST PUSH1 0x4 CALLDATALOAD SWAP1 PUSH1 0x1 PUSH1 0x1 PUSH1 0xA0 SHL SUB DUP3 AND DUP3 SUB PUSH2 0x87C JUMPI JUMP JUMPDEST PUSH1 0x60 SWAP1 PUSH1 0x3 NOT ADD SLT PUSH2 0x87C JUMPI PUSH1 0x4 CALLDATALOAD SWAP1 PUSH1 0x1 PUSH1 0x1 PUSH1 0xA0 SHL SUB SWAP1 PUSH1 0x24 CALLDATALOAD DUP3 DUP2 AND DUP2 SUB PUSH2 0x87C JUMPI SWAP2 PUSH1 0x44 CALLDATALOAD SWAP1 DUP2 AND DUP2 SUB PUSH2 0x87C JUMPI SWAP1 JUMP JUMPDEST PUSH1 0x9 SLOAD DUP2 LT ISZERO PUSH2 0x498D JUMPI PUSH1 0x9 PUSH1 0x0 MSTORE PUSH32 0x6E1540171B6C0C960B71A7020D9F60077F6AF931A8BBF590DA0223DACF75C7AF ADD SWAP1 PUSH1 0x0 SWAP1 JUMP JUMPDEST PUSH4 0x4E487B71 PUSH1 0xE0 SHL PUSH1 0x0 MSTORE PUSH1 0x32 PUSH1 0x4 MSTORE PUSH1 0x24 PUSH1 0x0 REVERT JUMPDEST PUSH1 0x13 SLOAD DUP2 LT ISZERO PUSH2 0x498D JUMPI PUSH1 0x13 PUSH1 0x0 MSTORE PUSH32 0x66DE8FFDA797E3DE9C05E8FC57B3BF0EC28A930D40B0D285D93C06501CF6A090 ADD SWAP1 PUSH1 0x0 SWAP1 JUMP JUMPDEST PUSH1 0x16 SLOAD DUP2 LT ISZERO PUSH2 0x498D JUMPI PUSH1 0x16 PUSH1 0x0 MSTORE PUSH32 0xD833147D7DC355BA459FC788F669E58CFAF9DC25DDCD0702E87D69C7B5124289 ADD SWAP1 PUSH1 0x0 SWAP1 JUMP JUMPDEST DUP1 SLOAD DUP3 LT ISZERO PUSH2 0x498D JUMPI PUSH1 0x0 MSTORE PUSH1 0x20 PUSH1 0x0 KECCAK256 ADD SWAP1 PUSH1 0x0 SWAP1 JUMP JUMPDEST PUSH1 0x20 SWAP1 DUP2 PUSH1 0x40 DUP2 DUP4 ADD SWAP3 DUP3 DUP2 MSTORE DUP6 MLOAD DUP1 SWAP5 MSTORE ADD SWAP4 ADD SWAP2 PUSH1 0x0 JUMPDEST DUP3 DUP2 LT PUSH2 0x4A50 JUMPI POP POP POP POP SWAP1 JUMP JUMPDEST DUP4 MLOAD DUP6 MSTORE SWAP4 DUP2 ADD SWAP4 SWAP3 DUP2 ADD SWAP3 PUSH1 0x1 ADD PUSH2 0x4A42 JUMP JUMPDEST SWAP2 SWAP1 DUP3 MLOAD SWAP3 DUP4 DUP3 MSTORE PUSH1 0x0 JUMPDEST DUP5 DUP2 LT PUSH2 0x4A90 JUMPI POP POP DUP3 PUSH1 0x0 PUSH1 0x20 DUP1 SWAP5 SWAP6 DUP5 ADD ADD MSTORE PUSH1 0x1F DUP1 NOT SWAP2 ADD AND ADD ADD SWAP1 JUMP JUMPDEST PUSH1 0x20 DUP2 DUP4 ADD DUP2 ADD MLOAD DUP5 DUP4 ADD DUP3 ADD MSTORE ADD PUSH2 0x4A6F JUMP JUMPDEST SWAP1 PUSH1 0x5 DUP3 LT ISZERO PUSH2 0x4AB1 JUMPI MSTORE JUMP JUMPDEST PUSH4 0x4E487B71 PUSH1 0xE0 SHL PUSH1 0x0 MSTORE PUSH1 0x21 PUSH1 0x4 MSTORE PUSH1 0x24 PUSH1 0x0 REVERT JUMPDEST SWAP1 PUSH1 0x1 DUP1 PUSH1 0xA0 SHL SUB SWAP2 DUP3 DUP2 MLOAD AND DUP3 MSTORE PUSH2 0x4AEF PUSH1 0x20 DUP3 ADD MLOAD PUSH2 0x1C0 DUP1 PUSH1 0x20 DUP7 ADD MSTORE DUP5 ADD SWAP1 PUSH2 0x4A64 JUMP JUMPDEST SWAP3 PUSH1 0x40 DUP3 ADD MLOAD ISZERO ISZERO PUSH1 0x40 DUP5 ADD MSTORE PUSH1 0x60 DUP3 ADD MLOAD PUSH1 0x60 DUP5 ADD MSTORE PUSH1 0x80 DUP3 ADD MLOAD AND PUSH1 0x80 DUP4 ADD MSTORE PUSH1 0xA0 DUP2 ADD MLOAD PUSH1 0xA0 DUP4 ADD MSTORE PUSH1 0xC0 DUP2 ADD MLOAD PUSH1 0xC0 DUP4 ADD MSTORE PUSH1 0xE0 DUP2 ADD MLOAD PUSH1 0xE0 DUP4 ADD MSTORE PUSH2 0x100 DUP1 DUP3 ADD MLOAD SWAP1 DUP4 ADD MSTORE PUSH2 0x120 DUP1 DUP3 ADD MLOAD SWAP1 DUP4 ADD MSTORE PUSH2 0x140 DUP1 DUP3 ADD MLOAD SWAP1 DUP4 ADD MSTORE PUSH2 0x4B63 PUSH2 0x160 DUP1 DUP4 ADD MLOAD SWAP1 DUP5 ADD SWAP1 PUSH2 0x4AA4 JUMP JUMPDEST PUSH2 0x180 DUP1 DUP3 ADD MLOAD SWAP1 DUP4 ADD MSTORE PUSH2 0x1A0 DUP1 SWAP2 ADD MLOAD ISZERO ISZERO SWAP2 ADD MSTORE SWAP1 JUMP JUMPDEST PUSH1 0x40 SWAP1 PUSH1 0x3 NOT ADD SLT PUSH2 0x87C JUMPI PUSH1 0x4 CALLDATALOAD SWAP1 PUSH1 0x24 CALLDATALOAD SWAP1 JUMP JUMPDEST PUSH8 0xFFFFFFFFFFFFFFFF DUP2 GT PUSH2 0xFC4 JUMPI PUSH1 0x40 MSTORE JUMP JUMPDEST PUSH2 0x1C0 DUP2 ADD SWAP1 DUP2 LT PUSH8 0xFFFFFFFFFFFFFFFF DUP3 GT OR PUSH2 0xFC4 JUMPI PUSH1 0x40 MSTORE JUMP JUMPDEST PUSH1 0x40 DUP2 ADD SWAP1 DUP2 LT PUSH8 0xFFFFFFFFFFFFFFFF DUP3 GT OR PUSH2 0xFC4 JUMPI PUSH1 0x40 MSTORE JUMP JUMPDEST SWAP1 PUSH1 0x1F DUP1 NOT SWAP2 ADD AND DUP2 ADD SWAP1 DUP2 LT PUSH8 0xFFFFFFFFFFFFFFFF DUP3 GT OR PUSH2 0xFC4 JUMPI PUSH1 0x40 MSTORE JUMP JUMPDEST PUSH8 0xFFFFFFFFFFFFFFFF DUP2 GT PUSH2 0xFC4 JUMPI PUSH1 0x1F ADD PUSH1 0x1F NOT AND PUSH1 0x20 ADD SWAP1 JUMP JUMPDEST DUP2 PUSH1 0x1F DUP3 ADD SLT ISZERO PUSH2 0x87C JUMPI DUP1 CALLDATALOAD SWAP1 PUSH2 0x4C35 DUP3 PUSH2 0x4C02 JUMP JUMPDEST SWAP3 PUSH2 0x4C43 PUSH1 0x40 MLOAD SWAP5 DUP6 PUSH2 0x4BE0 JUMP JUMPDEST DUP3 DUP5 MSTORE PUSH1 0x20 DUP4 DUP4 ADD ADD GT PUSH2 0x87C JUMPI DUP2 PUSH1 0x0 SWAP3 PUSH1 0x20 DUP1 SWAP4 ADD DUP4 DUP7 ADD CALLDATACOPY DUP4 ADD ADD MSTORE SWAP1 JUMP JUMPDEST SWAP1 PUSH1 0x1 DUP3 DUP2 SHR SWAP3 AND DUP1 ISZERO PUSH2 0x4C95 JUMPI JUMPDEST PUSH1 0x20 DUP4 LT EQ PUSH2 0x4C7F JUMPI JUMP JUMPDEST PUSH4 0x4E487B71 PUSH1 0xE0 SHL PUSH1 0x0 MSTORE PUSH1 0x22 PUSH1 0x4 MSTORE PUSH1 0x24 PUSH1 0x0 REVERT JUMPDEST SWAP2 PUSH1 0x7F AND SWAP2 PUSH2 0x4C74 JUMP JUMPDEST SWAP1 PUSH1 0x40 MLOAD SWAP2 DUP3 PUSH1 0x0 DUP3 SLOAD SWAP3 PUSH2 0x4CB3 DUP5 PUSH2 0x4C65 JUMP JUMPDEST SWAP1 DUP2 DUP5 MSTORE PUSH1 0x1 SWAP5 DUP6 DUP2 AND SWAP1 DUP2 PUSH1 0x0 EQ PUSH2 0x4D22 JUMPI POP PUSH1 0x1 EQ PUSH2 0x4CDF JUMPI JUMPDEST POP POP PUSH2 0x4CDD SWAP3 POP SUB DUP4 PUSH2 0x4BE0 JUMP JUMPDEST JUMP JUMPDEST SWAP1 SWAP4 SWAP2 POP PUSH1 0x0 MSTORE PUSH1 0x20 SWAP1 DUP2 PUSH1 0x0 KECCAK256 SWAP4 PUSH1 0x0 SWAP2 JUMPDEST DUP2 DUP4 LT PUSH2 0x4D0A JUMPI POP POP PUSH2 0x4CDD SWAP4 POP DUP3 ADD ADD CODESIZE DUP1 PUSH2 0x4CCF JUMP JUMPDEST DUP6 SLOAD DUP9 DUP5 ADD DUP6 ADD MSTORE SWAP5 DUP6 ADD SWAP5 DUP8 SWAP5 POP SWAP2 DUP4 ADD SWAP2 PUSH2 0x4CF2 JUMP JUMPDEST SWAP2 POP POP PUSH2 0x4CDD SWAP5 POP PUSH1 0x20 SWAP3 POP PUSH1 0xFF NOT AND DUP3 DUP5 ADD MSTORE ISZERO ISZERO PUSH1 0x5 SHL DUP3 ADD ADD CODESIZE DUP1 PUSH2 0x4CCF JUMP JUMPDEST PUSH1 0x24 CALLDATALOAD SWAP1 DUP2 ISZERO ISZERO DUP3 SUB PUSH2 0x87C JUMPI JUMP JUMPDEST PUSH1 0x0 SLOAD PUSH1 0x1 PUSH1 0x1 PUSH1 0xA0 SHL SUB AND CALLER SUB PUSH2 0x4D68 JUMPI JUMP JUMPDEST PUSH1 0x40 MLOAD PUSH4 0x118CDAA7 PUSH1 0xE0 SHL DUP2 MSTORE CALLER PUSH1 0x4 DUP3 ADD MSTORE PUSH1 0x24 SWAP1 REVERT JUMPDEST ISZERO PUSH2 0x4D87 JUMPI JUMP JUMPDEST PUSH1 0x40 MLOAD PUSH3 0x461BCD PUSH1 0xE5 SHL DUP2 MSTORE PUSH1 0x20 PUSH1 0x4 DUP3 ADD MSTORE PUSH1 0x21 PUSH1 0x24 DUP3 ADD MSTORE PUSH32 0x4D61726B65744D616E616765723A2057616C6C657420626C61636B6C69737465 PUSH1 0x44 DUP3 ADD MSTORE PUSH1 0x19 PUSH1 0xFA SHL PUSH1 0x64 DUP3 ADD MSTORE PUSH1 0x84 SWAP1 REVERT JUMPDEST ISZERO PUSH2 0x4DDD JUMPI JUMP JUMPDEST PUSH1 0x40 MLOAD PUSH3 0x461BCD PUSH1 0xE5 SHL DUP2 MSTORE PUSH1 0x20 PUSH1 0x4 DUP3 ADD MSTORE PUSH1 0x22 PUSH1 0x24 DUP3 ADD MSTORE PUSH32 0x4D61726B65744D616E616765723A20546F6B656E206E6F7420737570706F7274 PUSH1 0x44 DUP3 ADD MSTORE PUSH2 0x1959 PUSH1 0xF2 SHL PUSH1 0x64 DUP3 ADD MSTORE PUSH1 0x84 SWAP1 REVERT JUMPDEST SWAP2 SWAP1 DUP3 ADD DUP1 SWAP3 GT PUSH2 0x2F39 JUMPI JUMP JUMPDEST PUSH1 0x0 NOT DUP2 EQ PUSH2 0x2F39 JUMPI PUSH1 0x1 ADD SWAP1 JUMP JUMPDEST PUSH1 0x5 DUP3 LT ISZERO PUSH2 0x4AB1 JUMPI MSTORE JUMP JUMPDEST DUP2 DUP2 LT PUSH2 0x4E60 JUMPI POP POP JUMP JUMPDEST PUSH1 0x0 DUP2 SSTORE PUSH1 0x1 ADD PUSH2 0x4E55 JUMP JUMPDEST SWAP1 DUP2 SLOAD SWAP2 PUSH1 0x1 PUSH1 0x40 SHL DUP4 LT ISZERO PUSH2 0xFC4 JUMPI DUP3 PUSH2 0xBB7 SWAP2 PUSH1 0x1 PUSH2 0x4CDD SWAP6 ADD DUP2 SSTORE PUSH2 0x4A11 JUMP JUMPDEST RETURNDATASIZE ISZERO PUSH2 0x4EBA JUMPI RETURNDATASIZE SWAP1 PUSH2 0x4EA0 DUP3 PUSH2 0x4C02 JUMP JUMPDEST SWAP2 PUSH2 0x4EAE PUSH1 0x40 MLOAD SWAP4 DUP5 PUSH2 0x4BE0 JUMP JUMPDEST DUP3 MSTORE RETURNDATASIZE PUSH1 0x0 PUSH1 0x20 DUP5 ADD RETURNDATACOPY JUMP JUMPDEST PUSH1 0x60 SWAP1 JUMP JUMPDEST ISZERO PUSH2 0x4EC6 JUMPI JUMP JUMPDEST PUSH1 0x40 MLOAD PUSH3 0x461BCD PUSH1 0xE5 SHL DUP2 MSTORE PUSH1 0x20 PUSH1 0x4 DUP3 ADD MSTORE PUSH1 0x2B PUSH1 0x24 DUP3 ADD MSTORE PUSH32 0x4D61726B65744D616E616765723A20466565207472616E7366657220746F206F PUSH1 0x44 DUP3 ADD MSTORE PUSH11 0x1DDB995C8819985A5B1959 PUSH1 0xAA SHL PUSH1 0x64 DUP3 ADD MSTORE PUSH1 0x84 SWAP1 REVERT JUMPDEST PUSH1 0x40 MLOAD PUSH4 0x23B872DD PUSH1 0xE0 SHL PUSH1 0x20 DUP3 ADD SWAP1 DUP2 MSTORE PUSH1 0x1 PUSH1 0x1 PUSH1 0xA0 SHL SUB SWAP4 DUP5 AND PUSH1 0x24 DUP4 ADD MSTORE SWAP4 DUP4 AND PUSH1 0x44 DUP3 ADD MSTORE PUSH1 0x64 DUP1 DUP3 ADD SWAP6 SWAP1 SWAP6 MSTORE SWAP4 DUP5 MSTORE SWAP3 SWAP1 SWAP2 PUSH1 0xA0 DUP3 ADD SWAP1 PUSH8 0xFFFFFFFFFFFFFFFF DUP3 GT DUP4 DUP4 LT OR PUSH2 0xFC4 JUMPI PUSH1 0x20 SWAP3 PUSH1 0x0 SWAP3 PUSH1 0x40 MSTORE MLOAD SWAP1 DUP3 DUP7 GAS CALL ISZERO PUSH2 0x4FBE JUMPI PUSH1 0x0 MLOAD RETURNDATASIZE PUSH2 0x4FB5 JUMPI POP DUP1 DUP3 AND EXTCODESIZE ISZERO JUMPDEST PUSH2 0x4F9B JUMPI POP POP JUMP JUMPDEST PUSH1 0x40 MLOAD PUSH4 0x5274AFE7 PUSH1 0xE0 SHL DUP2 MSTORE SWAP2 AND PUSH1 0x4 DUP3 ADD MSTORE PUSH1 0x24 SWAP2 POP REVERT JUMPDEST PUSH1 0x1 EQ ISZERO PUSH2 0x4F93 JUMP JUMPDEST PUSH1 0x40 MLOAD RETURNDATASIZE PUSH1 0x0 DUP3 RETURNDATACOPY RETURNDATASIZE SWAP1 REVERT JUMPDEST ISZERO PUSH2 0x4FD1 JUMPI JUMP JUMPDEST PUSH1 0x64 PUSH1 0x40 MLOAD PUSH3 0x461BCD PUSH1 0xE5 SHL DUP2 MSTORE PUSH1 0x20 PUSH1 0x4 DUP3 ADD MSTORE PUSH1 0x20 PUSH1 0x24 DUP3 ADD MSTORE PUSH32 0x4D61726B65744D616E616765723A204D61726B6574206E6F7420616374697665 PUSH1 0x44 DUP3 ADD MSTORE REVERT JUMPDEST SWAP2 SWAP1 DUP3 SUB SWAP2 DUP3 GT PUSH2 0x2F39 JUMPI JUMP JUMPDEST ISZERO PUSH2 0x5029 JUMPI JUMP JUMPDEST PUSH1 0x40 MLOAD PUSH3 0x461BCD PUSH1 0xE5 SHL DUP2 MSTORE PUSH1 0x20 PUSH1 0x4 DUP3 ADD MSTORE PUSH1 0x4B PUSH1 0x24 DUP3 ADD MSTORE PUSH32 0x4D61726B65744D616E616765723A2042657474696E6720706572696F6420656E PUSH1 0x44 DUP3 ADD MSTORE PUSH32 0x646564202D206E6F206265747320616C6C6F77656420696E2072657374726963 PUSH1 0x64 DUP3 ADD MSTORE PUSH11 0x1D1A5BDB881C195C9A5BD9 PUSH1 0xAA SHL PUSH1 0x84 DUP3 ADD MSTORE PUSH1 0xA4 SWAP1 REVERT JUMPDEST ISZERO PUSH2 0x50AF JUMPI JUMP JUMPDEST PUSH1 0x40 MLOAD PUSH3 0x461BCD PUSH1 0xE5 SHL DUP2 MSTORE PUSH1 0x20 PUSH1 0x4 DUP3 ADD MSTORE PUSH1 0x1D PUSH1 0x24 DUP3 ADD MSTORE PUSH32 0x4D61726B65744D616E616765723A20496E76616C6964206F7074696F6E000000 PUSH1 0x44 DUP3 ADD MSTORE PUSH1 0x64 SWAP1 REVERT JUMPDEST ISZERO PUSH2 0x50FB JUMPI JUMP JUMPDEST PUSH1 0x40 MLOAD PUSH3 0x461BCD PUSH1 0xE5 SHL DUP2 MSTORE PUSH1 0x20 PUSH1 0x4 DUP3 ADD MSTORE PUSH1 0x22 PUSH1 0x24 DUP3 ADD MSTORE PUSH32 0x4D61726B65744D616E616765723A2042656C6F77206D696E696D756D20737461 PUSH1 0x44 DUP3 ADD MSTORE PUSH2 0x6B65 PUSH1 0xF0 SHL PUSH1 0x64 DUP3 ADD MSTORE PUSH1 0x84 SWAP1 REVERT JUMPDEST SWAP1 DUP2 SLOAD SWAP2 PUSH1 0x1 PUSH1 0x40 SHL DUP4 LT ISZERO PUSH2 0xFC4 JUMPI DUP3 PUSH2 0x23C9 SWAP2 PUSH1 0x1 PUSH2 0x4CDD SWAP6 ADD DUP2 SSTORE PUSH2 0x4A11 JUMP JUMPDEST ISZERO PUSH2 0x5175 JUMPI JUMP JUMPDEST PUSH1 0x40 MLOAD PUSH3 0x461BCD PUSH1 0xE5 SHL DUP2 MSTORE PUSH1 0x20 PUSH1 0x4 DUP3 ADD MSTORE PUSH1 0x25 PUSH1 0x24 DUP3 ADD MSTORE PUSH32 0x4D61726B65744D616E616765723A204E6F20737570706F727420746F20776974 PUSH1 0x44 DUP3 ADD MSTORE PUSH5 0x6864726177 PUSH1 0xD8 SHL PUSH1 0x64 DUP3 ADD MSTORE PUSH1 0x84 SWAP1 REVERT JUMPDEST ISZERO PUSH2 0x51CF JUMPI JUMP JUMPDEST PUSH1 0x40 MLOAD PUSH3 0x461BCD PUSH1 0xE5 SHL DUP2 MSTORE PUSH1 0x20 PUSH1 0x4 DUP3 ADD MSTORE PUSH1 0x28 PUSH1 0x24 DUP3 ADD MSTORE PUSH32 0x4D61726B65744D616E616765723A204D61726B6574206E6F7420696E20656E64 PUSH1 0x44 DUP3 ADD MSTORE PUSH8 0x6564207374617465 PUSH1 0xC0 SHL PUSH1 0x64 DUP3 ADD MSTORE PUSH1 0x84 SWAP1 REVERT JUMPDEST ISZERO PUSH2 0x522C JUMPI JUMP JUMPDEST PUSH1 0x40 MLOAD PUSH3 0x461BCD PUSH1 0xE5 SHL DUP2 MSTORE PUSH1 0x20 PUSH1 0x4 DUP3 ADD MSTORE PUSH1 0x1F PUSH1 0x24 DUP3 ADD MSTORE PUSH32 0x4D61726B65744D616E616765723A20416C7265616479207265736F6C76656400 PUSH1 0x44 DUP3 ADD MSTORE PUSH1 0x64 SWAP1 REVERT JUMPDEST PUSH1 0x40 MLOAD SWAP1 PUSH2 0x527E DUP3 PUSH2 0x4BC4 JUMP JUMPDEST PUSH1 0x19 DUP3 MSTORE PUSH32 0x5265736F6C7574696F6E20706572696F64206578706972656400000000000000 PUSH1 0x20 DUP4 ADD MSTORE JUMP JUMPDEST MLOAD SWAP1 DUP2 ISZERO ISZERO DUP3 SUB PUSH2 0x87C JUMPI JUMP JUMPDEST SWAP2 SWAP1 DUP3 PUSH1 0x40 SWAP2 SUB SLT PUSH2 0x87C JUMPI PUSH1 0x20 PUSH2 0x52CE DUP4 PUSH2 0x52AA JUMP JUMPDEST SWAP3 ADD MLOAD SWAP1 JUMP JUMPDEST SWAP1 PUSH1 0x0 DUP3 DUP2 MSTORE PUSH1 0x1 PUSH1 0x20 MSTORE PUSH1 0x40 SWAP1 DUP2 DUP2 KECCAK256 PUSH1 0xB DUP2 ADD PUSH1 0xFF DUP2 SLOAD AND PUSH1 0x5 DUP2 LT ISZERO PUSH2 0x1AC6 JUMPI PUSH1 0x1 PUSH2 0x5303 SWAP2 EQ PUSH2 0x51C8 JUMP JUMPDEST DUP5 ISZERO ISZERO DUP1 PUSH2 0x555E JUMPI JUMPDEST ISZERO PUSH2 0x550C JUMPI PUSH1 0xD DUP3 ADD PUSH2 0x5323 PUSH1 0xFF DUP3 SLOAD AND ISZERO PUSH2 0x5225 JUMP JUMPDEST PUSH1 0xA DUP4 ADD SLOAD TIMESTAMP LT ISZERO PUSH2 0x54FA JUMPI PUSH1 0xC SLOAD DUP6 MLOAD PUSH4 0x33138655 PUSH1 0xE2 SHL DUP2 MSTORE PUSH1 0x4 DUP2 ADD DUP10 SWAP1 MSTORE PUSH1 0x1 PUSH1 0x1 PUSH1 0xA0 SHL SUB SWAP5 SWAP2 DUP8 SWAP1 DUP3 SWAP1 PUSH1 0x24 SWAP1 DUP3 SWAP1 DUP10 AND GAS STATICCALL DUP1 ISZERO PUSH2 0x54F0 JUMPI DUP9 SWAP1 DUP8 SWAP3 DUP9 SWAP2 PUSH2 0x54CD JUMPI JUMPDEST POP DUP3 PUSH2 0x54C3 JUMPI JUMPDEST POP POP ISZERO PUSH2 0x5459 JUMPI PUSH1 0xC ADD DUP7 SWAP1 SSTORE DUP1 SLOAD PUSH1 0xFF NOT SWAP1 DUP2 AND PUSH1 0x1 OR SWAP1 SWAP2 SSTORE DUP2 SLOAD AND PUSH1 0x2 OR SWAP1 SSTORE PUSH2 0x53A0 DUP6 PUSH2 0x561E JUMP JUMPDEST PUSH1 0xD SLOAD AND DUP1 PUSH2 0x53D8 JUMPI JUMPDEST POP POP PUSH32 0x6DFC24F0F2FB42E49FB4FA3FFA8ABB148CAB908A1FB8335B3F128A08B2594AF1 SWAP2 PUSH1 0x20 SWAP2 MLOAD SWAP1 DUP2 MSTORE LOG2 JUMP JUMPDEST DUP1 EXTCODESIZE ISZERO PUSH2 0x66E JUMPI DUP2 DUP1 SWAP2 PUSH1 0x44 DUP6 MLOAD DUP1 SWAP6 DUP2 SWAP4 PUSH3 0xFF4A73 PUSH1 0xE8 SHL DUP4 MSTORE DUP11 PUSH1 0x4 DUP5 ADD MSTORE DUP10 PUSH1 0x24 DUP5 ADD MSTORE GAS CALL SWAP1 DUP2 ISZERO PUSH2 0x544E JUMPI POP SWAP2 PUSH32 0x6DFC24F0F2FB42E49FB4FA3FFA8ABB148CAB908A1FB8335B3F128A08B2594AF1 SWAP4 SWAP2 PUSH1 0x20 SWAP4 PUSH2 0x543F JUMPI JUMPDEST POP SWAP2 DUP2 SWAP4 POP PUSH2 0x53AA JUMP JUMPDEST PUSH2 0x5448 SWAP1 PUSH2 0x4B93 JUMP JUMPDEST CODESIZE PUSH2 0x5435 JUMP JUMPDEST DUP4 MLOAD SWAP1 RETURNDATASIZE SWAP1 DUP3 RETURNDATACOPY RETURNDATASIZE SWAP1 REVERT JUMPDEST DUP6 MLOAD PUSH3 0x461BCD PUSH1 0xE5 SHL DUP2 MSTORE PUSH1 0x20 PUSH1 0x4 DUP3 ADD MSTORE PUSH1 0x3A PUSH1 0x24 DUP3 ADD MSTORE PUSH32 0x4D61726B65744D616E616765723A20496E73756666696369656E742076657269 PUSH1 0x44 DUP3 ADD MSTORE PUSH32 0x6669657220766F74657320666F722074686973206F7074696F6E000000000000 PUSH1 0x64 DUP3 ADD MSTORE PUSH1 0x84 SWAP1 REVERT JUMPDEST EQ SWAP1 POP DUP8 CODESIZE PUSH2 0x5374 JUMP JUMPDEST SWAP1 POP PUSH2 0x54E7 SWAP2 SWAP3 POP DUP9 RETURNDATASIZE DUP11 GT PUSH2 0x1EC9 JUMPI PUSH2 0x1EB9 DUP2 DUP4 PUSH2 0x4BE0 JUMP JUMPDEST SWAP2 SWAP1 SWAP2 CODESIZE PUSH2 0x536D JUMP JUMPDEST DUP8 MLOAD RETURNDATASIZE DUP9 DUP3 RETURNDATACOPY RETURNDATASIZE SWAP1 REVERT JUMPDEST POP POP POP POP POP POP PUSH2 0x4CDD SWAP1 PUSH2 0x228E PUSH2 0x5271 JUMP JUMPDEST DUP4 MLOAD PUSH3 0x461BCD PUSH1 0xE5 SHL DUP2 MSTORE PUSH1 0x20 PUSH1 0x4 DUP3 ADD MSTORE PUSH1 0x25 PUSH1 0x24 DUP3 ADD MSTORE PUSH32 0x4D61726B65744D616E616765723A20496E76616C69642077696E6E696E67206F PUSH1 0x44 DUP3 ADD MSTORE PUSH5 0x383A34B7B7 PUSH1 0xD9 SHL PUSH1 0x64 DUP3 ADD MSTORE PUSH1 0x84 SWAP1 REVERT JUMPDEST POP PUSH1 0x3 DUP3 ADD SLOAD DUP6 GT ISZERO PUSH2 0x530C JUMP JUMPDEST ISZERO PUSH2 0x5573 JUMPI JUMP JUMPDEST PUSH1 0x40 MLOAD PUSH3 0x461BCD PUSH1 0xE5 SHL DUP2 MSTORE PUSH1 0x20 PUSH1 0x4 DUP3 ADD MSTORE PUSH1 0x22 PUSH1 0x24 DUP3 ADD MSTORE PUSH32 0x4D61726B65744D616E616765723A204D61726B6574206E6F74207265736F6C76 PUSH1 0x44 DUP3 ADD MSTORE PUSH2 0x1959 PUSH1 0xF2 SHL PUSH1 0x64 DUP3 ADD MSTORE PUSH1 0x84 SWAP1 REVERT JUMPDEST SWAP1 PUSH2 0x5619 PUSH32 0x4C4561C5B0048424071C1115E9F1E325486E21C21333D968F21097B7B72D12AD SWAP2 DUP4 PUSH1 0x0 MSTORE PUSH1 0x1 PUSH1 0x20 MSTORE PUSH1 0xB PUSH1 0x40 PUSH1 0x0 KECCAK256 ADD PUSH1 0x3 PUSH1 0xFF NOT DUP3 SLOAD AND OR SWAP1 SSTORE PUSH1 0x40 MLOAD SWAP2 DUP3 SWAP2 PUSH1 0x20 DUP4 MSTORE PUSH1 0x20 DUP4 ADD SWAP1 PUSH2 0x4A64 JUMP JUMPDEST SUB SWAP1 LOG2 JUMP JUMPDEST SWAP1 PUSH1 0x0 SWAP2 DUP1 DUP4 MSTORE PUSH1 0x20 SWAP1 PUSH1 0x1 DUP3 MSTORE PUSH1 0x40 SWAP2 DUP3 DUP6 KECCAK256 SWAP2 DUP6 SWAP2 PUSH1 0x1 SWAP3 PUSH1 0x3 DUP6 ADD SLOAD PUSH1 0xC DUP7 ADD SLOAD SWAP5 JUMPDEST DUP2 DUP2 GT ISZERO PUSH2 0x588F JUMPI POP POP PUSH1 0xB SLOAD PUSH1 0x4 SWAP6 DUP7 ADD DUP1 SLOAD DUP9 MLOAD PUSH4 0xDC4CE349 PUSH1 0xE0 SHL DUP2 MSTORE DUP1 DUP10 ADD DUP8 SWAP1 MSTORE PUSH1 0x24 DUP2 ADD SWAP8 SWAP1 SWAP8 MSTORE PUSH1 0x1 PUSH1 0x1 PUSH1 0xA0 SHL SUB SWAP1 DUP2 AND PUSH1 0x44 DUP9 ADD DUP2 SWAP1 MSTORE SWAP2 SWAP7 SWAP1 SWAP4 SWAP3 DUP5 AND SWAP3 SWAP1 DUP6 DUP2 PUSH1 0x64 DUP2 DUP8 GAS STATICCALL SWAP1 DUP2 ISZERO PUSH2 0x5885 JUMPI DUP13 SWAP2 PUSH2 0x5854 JUMPI JUMPDEST POP PUSH2 0x57E4 JUMPI POP POP PUSH1 0xB SLOAD SWAP5 SLOAD DUP8 MLOAD PUSH4 0x3D1E7BA1 PUSH1 0xE1 SHL DUP2 MSTORE DUP8 DUP2 ADD SWAP6 DUP7 MSTORE SWAP1 DUP4 AND PUSH1 0x1 PUSH1 0x1 PUSH1 0xA0 SHL SUB DUP2 AND PUSH1 0x20 DUP8 ADD MSTORE SWAP3 SWAP1 SWAP6 AND SWAP5 SWAP2 SWAP4 DUP4 SWAP2 POP DUP3 SWAP1 DUP2 SWAP1 PUSH1 0x40 ADD SUB DUP2 DUP8 GAS STATICCALL SWAP2 DUP3 ISZERO PUSH2 0x57DA JUMPI DUP9 SWAP3 PUSH2 0x57AC JUMPI JUMPDEST POP POP PUSH2 0x251C SWAP1 DUP2 DUP2 MUL SWAP2 DUP2 DUP4 DIV EQ SWAP1 ISZERO OR ISZERO PUSH2 0x5799 JUMPI PUSH2 0x2710 SWAP1 DIV SWAP3 DUP4 PUSH2 0x5722 JUMPI JUMPDEST POP POP POP POP POP SWAP1 POP JUMP JUMPDEST DUP3 EXTCODESIZE ISZERO PUSH2 0x5795 JUMPI DUP5 MLOAD PUSH4 0xF0824F33 PUSH1 0xE0 SHL DUP2 MSTORE PUSH1 0x1 PUSH1 0x1 PUSH1 0xA0 SHL SUB SWAP1 SWAP3 AND SWAP1 DUP3 ADD SWAP1 DUP2 MSTORE PUSH1 0x20 DUP2 ADD SWAP4 SWAP1 SWAP4 MSTORE SWAP4 SWAP5 SWAP2 DUP3 SWAP2 DUP6 SWAP2 DUP3 SWAP1 DUP5 SWAP1 DUP3 SWAP1 PUSH1 0x40 ADD JUMPDEST SUB SWAP3 GAS CALL SWAP2 DUP3 ISZERO PUSH2 0x578B JUMPI POP POP PUSH2 0x577C JUMPI JUMPDEST DUP1 DUP1 DUP1 DUP1 DUP6 SWAP5 PUSH2 0x5719 JUMP JUMPDEST PUSH2 0x5785 SWAP1 PUSH2 0x4B93 JUMP JUMPDEST CODESIZE PUSH2 0x5771 JUMP JUMPDEST MLOAD SWAP1 RETURNDATASIZE SWAP1 DUP3 RETURNDATACOPY RETURNDATASIZE SWAP1 REVERT JUMPDEST DUP7 DUP1 REVERT JUMPDEST PUSH4 0x4E487B71 PUSH1 0xE0 SHL DUP8 MSTORE PUSH1 0x11 DUP5 MSTORE PUSH1 0x24 DUP8 REVERT JUMPDEST SWAP1 DUP1 SWAP3 POP DUP2 RETURNDATASIZE DUP4 GT PUSH2 0x57D3 JUMPI JUMPDEST PUSH2 0x57C3 DUP2 DUP4 PUSH2 0x4BE0 JUMP JUMPDEST DUP2 ADD SUB SLT PUSH2 0x5795 JUMPI MLOAD CODESIZE DUP1 PUSH2 0x56F7 JUMP JUMPDEST POP RETURNDATASIZE PUSH2 0x57B9 JUMP JUMPDEST DUP7 MLOAD RETURNDATASIZE DUP11 DUP3 RETURNDATACOPY RETURNDATASIZE SWAP1 REVERT JUMPDEST SWAP4 POP SWAP4 POP SWAP4 POP POP PUSH2 0x1F4 SWAP1 DUP2 DUP2 MUL SWAP2 DUP2 DUP4 DIV EQ SWAP1 ISZERO OR ISZERO PUSH2 0x5799 JUMPI PUSH2 0x2710 SWAP1 DIV SWAP3 DUP4 PUSH2 0x5813 JUMPI POP POP POP POP POP SWAP1 POP JUMP JUMPDEST DUP3 EXTCODESIZE ISZERO PUSH2 0x5795 JUMPI DUP5 MLOAD PUSH4 0x48FEF595 PUSH1 0xE0 SHL DUP2 MSTORE PUSH1 0x1 PUSH1 0x1 PUSH1 0xA0 SHL SUB SWAP1 SWAP3 AND SWAP1 DUP3 ADD SWAP1 DUP2 MSTORE PUSH1 0x20 DUP2 ADD SWAP4 SWAP1 SWAP4 MSTORE SWAP4 SWAP5 SWAP2 DUP3 SWAP2 DUP6 SWAP2 DUP3 SWAP1 DUP5 SWAP1 DUP3 SWAP1 PUSH1 0x40 ADD PUSH2 0x575F JUMP JUMPDEST SWAP1 POP DUP6 DUP2 DUP2 RETURNDATASIZE DUP4 GT PUSH2 0x587E JUMPI JUMPDEST PUSH2 0x586B DUP2 DUP4 PUSH2 0x4BE0 JUMP JUMPDEST DUP2 ADD SUB SLT PUSH2 0x587A JUMPI MLOAD CODESIZE PUSH2 0x56A3 JUMP JUMPDEST DUP12 DUP1 REVERT JUMPDEST POP RETURNDATASIZE PUSH2 0x5861 JUMP JUMPDEST DUP11 MLOAD RETURNDATASIZE DUP15 DUP3 RETURNDATACOPY RETURNDATASIZE SWAP1 REVERT JUMPDEST DUP6 DUP2 SUB PUSH2 0x58A5 JUMPI JUMPDEST PUSH2 0x58A0 SWAP1 PUSH2 0x4E3A JUMP JUMPDEST PUSH2 0x5644 JUMP JUMPDEST PUSH1 0xB SLOAD PUSH1 0x4 DUP9 DUP2 ADD SLOAD DUP11 MLOAD PUSH4 0xDC4CE349 PUSH1 0xE0 SHL DUP2 MSTORE SWAP2 DUP3 ADD DUP9 SWAP1 MSTORE PUSH1 0x24 DUP3 ADD DUP5 SWAP1 MSTORE PUSH1 0x1 PUSH1 0x1 PUSH1 0xA0 SHL SUB SWAP1 DUP2 AND PUSH1 0x44 DUP4 ADD MSTORE SWAP3 SWAP5 SWAP3 SWAP1 SWAP2 DUP7 SWAP2 DUP4 SWAP2 PUSH1 0x64 SWAP2 DUP4 SWAP2 AND GAS STATICCALL SWAP1 DUP2 ISZERO PUSH2 0x593F JUMPI DUP12 SWAP2 PUSH2 0x590C JUMPI JUMPDEST POP PUSH2 0x5904 SWAP1 PUSH2 0x58A0 SWAP3 PUSH2 0x4E2D JUMP JUMPDEST SWAP3 SWAP1 POP PUSH2 0x5897 JUMP JUMPDEST SWAP1 POP DUP5 DUP2 DUP2 RETURNDATASIZE DUP4 GT PUSH2 0x5938 JUMPI JUMPDEST PUSH2 0x5923 DUP2 DUP4 PUSH2 0x4BE0 JUMP JUMPDEST DUP2 ADD SUB SLT PUSH2 0x5934 JUMPI MLOAD PUSH2 0x58A0 PUSH2 0x58F6 JUMP JUMPDEST DUP11 DUP1 REVERT JUMPDEST POP RETURNDATASIZE PUSH2 0x5919 JUMP JUMPDEST DUP10 MLOAD RETURNDATASIZE DUP14 DUP3 RETURNDATACOPY RETURNDATASIZE SWAP1 REVERT JUMPDEST PUSH2 0x5953 DUP2 SLOAD PUSH2 0x4C65 JUMP JUMPDEST SWAP1 DUP2 PUSH2 0x595D JUMPI POP POP JUMP JUMPDEST DUP2 PUSH1 0x1F PUSH1 0x0 SWAP4 GT PUSH1 0x1 EQ PUSH2 0x596F JUMPI POP SSTORE JUMP JUMPDEST SWAP1 DUP1 DUP4 SWAP2 DUP3 MSTORE PUSH2 0x598E PUSH1 0x1F PUSH1 0x20 DUP5 KECCAK256 SWAP5 ADD PUSH1 0x5 SHR DUP5 ADD PUSH1 0x1 DUP6 ADD PUSH2 0x4E55 JUMP JUMPDEST SSTORE SSTORE JUMP JUMPDEST PUSH8 0xFFFFFFFFFFFFFFFF DUP2 GT PUSH2 0xFC4 JUMPI PUSH1 0x5 SHL PUSH1 0x20 ADD SWAP1 JUMP JUMPDEST DUP1 MLOAD DUP3 LT ISZERO PUSH2 0x498D JUMPI PUSH1 0x20 SWAP2 PUSH1 0x5 SHL ADD ADD SWAP1 JUMP JUMPDEST ISZERO PUSH2 0x59C5 JUMPI JUMP JUMPDEST PUSH1 0x64 PUSH1 0x40 MLOAD PUSH3 0x461BCD PUSH1 0xE5 SHL DUP2 MSTORE PUSH1 0x20 PUSH1 0x4 DUP3 ADD MSTORE PUSH1 0x20 PUSH1 0x24 DUP3 ADD MSTORE PUSH32 0x4D61726B65744D616E616765723A20496E76616C6964206D61726B6574204944 PUSH1 0x44 DUP3 ADD MSTORE REVERT JUMPDEST ISZERO PUSH2 0x5A10 JUMPI JUMP JUMPDEST PUSH1 0x40 MLOAD PUSH3 0x461BCD PUSH1 0xE5 SHL DUP2 MSTORE PUSH1 0x20 PUSH1 0x4 DUP3 ADD MSTORE PUSH1 0x24 DUP1 DUP3 ADD MSTORE PUSH32 0x4D61726B65744D616E616765723A204D61726B657420646F6573206E6F742065 PUSH1 0x44 DUP3 ADD MSTORE PUSH4 0x1E1A5CDD PUSH1 0xE2 SHL PUSH1 0x64 DUP3 ADD MSTORE PUSH1 0x84 SWAP1 REVERT JUMPDEST PUSH1 0x0 JUMPDEST PUSH1 0x13 SWAP1 DUP2 SLOAD SWAP2 DUP3 DUP3 LT ISZERO PUSH2 0x5B15 JUMPI DUP4 SWAP3 PUSH2 0x5A7D DUP4 PUSH2 0x49A3 JUMP JUMPDEST SWAP5 SWAP1 SLOAD PUSH1 0x3 SWAP6 DUP7 SHL SHR EQ PUSH2 0x5A9C JUMPI POP POP PUSH2 0x5A97 SWAP2 POP PUSH2 0x4E3A JUMP JUMPDEST PUSH2 0x5A64 JUMP JUMPDEST SWAP1 SWAP2 PUSH1 0x0 NOT SWAP2 DUP1 DUP4 ADD SWAP2 SWAP1 DUP3 GT PUSH2 0x2F39 JUMPI PUSH2 0xBB7 PUSH2 0x5ABC PUSH2 0x5AC8 SWAP4 PUSH2 0x49A3 JUMP JUMPDEST SWAP1 SLOAD SWAP1 DUP8 SHL SHR SWAP2 PUSH2 0x49A3 JUMP JUMPDEST DUP2 SLOAD DUP1 ISZERO PUSH2 0x5AFF JUMPI DUP2 ADD SWAP3 PUSH2 0x5ADC DUP5 PUSH2 0x49A3 JUMP JUMPDEST DUP2 SWAP4 SWAP2 SLOAD SWAP3 SHL SHL NOT AND SWAP1 SSTORE SSTORE PUSH1 0x0 MSTORE PUSH1 0x14 PUSH1 0x20 MSTORE PUSH1 0x40 PUSH1 0x0 KECCAK256 PUSH1 0xFF NOT DUP2 SLOAD AND SWAP1 SSTORE JUMP JUMPDEST PUSH4 0x4E487B71 PUSH1 0xE0 SHL PUSH1 0x0 MSTORE PUSH1 0x31 PUSH1 0x4 MSTORE PUSH1 0x24 PUSH1 0x0 REVERT JUMPDEST POP POP POP POP JUMP JUMPDEST PUSH1 0x40 MLOAD SWAP1 PUSH2 0x5B28 DUP3 PUSH2 0x4BA7 JUMP JUMPDEST DUP2 PUSH2 0x1A0 PUSH1 0x0 SWAP2 DUP3 DUP2 MSTORE PUSH1 0x60 PUSH1 0x20 DUP3 ADD MSTORE DUP3 PUSH1 0x40 DUP3 ADD MSTORE DUP3 PUSH1 0x60 DUP3 ADD MSTORE DUP3 PUSH1 0x80 DUP3 ADD MSTORE DUP3 PUSH1 0xA0 DUP3 ADD MSTORE DUP3 PUSH1 0xC0 DUP3 ADD MSTORE DUP3 PUSH1 0xE0 DUP3 ADD MSTORE DUP3 PUSH2 0x100 DUP3 ADD MSTORE DUP3 PUSH2 0x120 DUP3 ADD MSTORE DUP3 PUSH2 0x140 DUP3 ADD MSTORE DUP3 PUSH2 0x160 DUP3 ADD MSTORE DUP3 PUSH2 0x180 DUP3 ADD MSTORE ADD MSTORE JUMP JUMPDEST SWAP1 PUSH2 0x5B8E DUP3 PUSH2 0x5992 JUMP JUMPDEST PUSH2 0x5B9B PUSH1 0x40 MLOAD SWAP2 DUP3 PUSH2 0x4BE0 JUMP JUMPDEST DUP3 DUP2 MSTORE DUP1 SWAP3 PUSH2 0x5BAC PUSH1 0x1F NOT SWAP2 PUSH2 0x5992 JUMP JUMPDEST ADD SWAP1 PUSH1 0x20 CALLDATASIZE SWAP2 ADD CALLDATACOPY JUMP INVALID LOG2 PUSH5 0x6970667358 0x22 SLT KECCAK256 0xA7 PUSH25 0xBB642AAB9CF290BB8C83FD6EEB48F3F44DFA9AFFAC7031BBAC PUSH19 0x16987B0F64736F6C6343000814003300000000 "},"methodIdentifiers":{"activeMarkets(uint256)":"3adfe6d0","addSupportedToken(address,string)":"720138e8","analytics()":"80d5ac8a","autoResolve(uint256)":"b1138b50","bettingRestrictionEnabled()":"88d3cc48","bettingRestrictionMinutes()":"baa9c4ac","blacklistedWallets(address)":"2b5ba3b9","cancelMarket(uint256)":"7c16cd9e","claimRefund(uint256)":"5b7baf64","claimWinnings(uint256)":"677bd9ff","createMarket(string,bool,uint256,address,uint256,uint256,uint256,uint256)":"efb2b690","creatorCancelMarket(uint256)":"c3436e0c","deleteMarket(uint256,string)":"51049969","deletedMarkets(uint256)":"881df9e1","deletionTimestamp(uint256)":"ad8e42ff","endMarket(uint256)":"157bdcce","getActiveMarketCount()":"5da3247a","getActiveMarkets()":"a5e973c3","getAllMarketIds()":"b85ed636","getBettorCount(uint256)":"53514044","getDeletedMarkets()":"65ebce55","getMarket(uint256)":"eb44fdd3","getMarketBettors(uint256)":"0b501ab8","getMarketInfo(uint256)":"3ec79193","getMarketSupporters(uint256)":"87fea110","getMarketsReadyForRemoval()":"c8a843b7","getNextMarketId()":"fe53a6e8","getOptionPool(uint256,uint256,address)":"dc4ce349","getPermanentlyRemovedMarkets()":"6d822220","getSupportPool(uint256,address)":"4f44289d","getSupportedTokenCount()":"ce67be26","getSupportedTokens()":"d3c7c2c7","getSupporterCount(uint256)":"a30a0914","getTotalPool(uint256,address)":"f00fe321","getUserBet(uint256,address,address)":"553b7cbb","getUserMarketHistory(address)":"33d6b46e","getUserSupport(uint256,address,address)":"256ba741","isActiveMarket(uint256)":"0d64cdbd","isMarketActive(uint256)":"f849f69e","marketBettors(uint256,uint256)":"e053bcec","marketCreationFee()":"2ef1bdfa","marketSupporters(uint256,uint256)":"c22c62c3","markets(uint256)":"b1283e77","minMarketDurationMinutes()":"17916e01","nextMarketId()":"406ef2ef","owner()":"8da5cb5b","permanentlyRemoveMarket(uint256)":"07adc191","permanentlyRemovedMarkets(uint256)":"81b17d29","placeBet(uint256,uint256)":"4afe62b5","placeBetWithToken(uint256,uint256,uint256)":"6ed2151a","removeSupportedToken(address)":"76319190","renounceOwnership()":"715018a6","resolveMarket(uint256,uint256)":"60557333","setAnalytics(address)":"74c350eb","setBettingRestriction(bool,uint256)":"e78d0117","setMarketCreationFee(uint256)":"9f37022a","setMinMarketDuration(uint256)":"45843695","setVerification(address)":"971f8bb1","setWalletBlacklist(address,bool)":"db62c6de","supportMarket(uint256,uint256)":"f204072f","supportedTokenList(uint256)":"2b60c822","supportedTokens(address)":"68c4ac26","tokenSymbols(address)":"fb0b2b36","transferOwnership(address)":"f2fde38b","treasury()":"61d027b3","userBetOptions(uint256,address)":"4986597f","userHasBet(uint256,address)":"8704bec0","userHasSupported(uint256,address)":"287f57b5","userMarketHistory(address,uint256)":"98a17671","verification()":"4ffe2a8b","withdrawSupport(uint256)":"3e32a76c"}}}}}