{"contracts/P2PTreasury.sol":{"PoolVault":{"abi":[{"inputs":[{"internalType":"address","name":"initialOwner","type":"address"},{"internalType":"address","name":"_partner","type":"address"}],"stateMutability":"nonpayable","type":"constructor"},{"inputs":[{"internalType":"address","name":"owner","type":"address"}],"name":"OwnableInvalidOwner","type":"error"},{"inputs":[{"internalType":"address","name":"account","type":"address"}],"name":"OwnableUnauthorizedAccount","type":"error"},{"inputs":[{"internalType":"address","name":"token","type":"address"}],"name":"SafeERC20FailedOperation","type":"error"},{"anonymous":false,"inputs":[{"indexed":true,"internalType":"address","name":"contractAddr","type":"address"}],"name":"ContractAuthorized","type":"event"},{"anonymous":false,"inputs":[{"indexed":true,"internalType":"address","name":"contractAddr","type":"address"}],"name":"ContractDeauthorized","type":"event"},{"anonymous":false,"inputs":[{"indexed":true,"internalType":"address","name":"token","type":"address"},{"indexed":false,"internalType":"uint256","name":"platformAmount","type":"uint256"},{"indexed":false,"internalType":"uint256","name":"partnerAmount","type":"uint256"}],"name":"FeesDistributed","type":"event"},{"anonymous":false,"inputs":[{"indexed":true,"internalType":"address","name":"token","type":"address"},{"indexed":false,"internalType":"uint256","name":"amount","type":"uint256"},{"indexed":true,"internalType":"address","name":"to","type":"address"}],"name":"FundsWithdrawn","type":"event"},{"anonymous":false,"inputs":[{"indexed":true,"internalType":"address","name":"oldManager","type":"address"},{"indexed":true,"internalType":"address","name":"newManager","type":"address"}],"name":"MarketManagerUpdated","type":"event"},{"anonymous":false,"inputs":[{"indexed":true,"internalType":"address","name":"previousOwner","type":"address"},{"indexed":true,"internalType":"address","name":"newOwner","type":"address"}],"name":"OwnershipTransferred","type":"event"},{"anonymous":false,"inputs":[{"indexed":true,"internalType":"address","name":"oldPartner","type":"address"},{"indexed":true,"internalType":"address","name":"newPartner","type":"address"}],"name":"PartnerUpdated","type":"event"},{"anonymous":false,"inputs":[{"indexed":true,"internalType":"address","name":"token","type":"address"},{"indexed":false,"internalType":"uint256","name":"amount","type":"uint256"},{"indexed":true,"internalType":"address","name":"to","type":"address"}],"name":"PlatformFundsWithdrawn","type":"event"},{"anonymous":false,"inputs":[{"indexed":true,"internalType":"address","name":"token","type":"address"},{"indexed":false,"internalType":"uint256","name":"amount","type":"uint256"},{"indexed":false,"internalType":"string","name":"reason","type":"string"}],"name":"PlatformPoolUpdated","type":"event"},{"inputs":[],"name":"PARTNER_FEE_BPS","outputs":[{"internalType":"uint256","name":"","type":"uint256"}],"stateMutability":"view","type":"function"},{"inputs":[],"name":"PLATFORM_FEE_BPS","outputs":[{"internalType":"uint256","name":"","type":"uint256"}],"stateMutability":"view","type":"function"},{"inputs":[{"internalType":"address","name":"token","type":"address"},{"internalType":"uint256","name":"amount","type":"uint256"}],"name":"addToPlatformPool","outputs":[],"stateMutability":"nonpayable","type":"function"},{"inputs":[{"internalType":"address","name":"contractAddr","type":"address"}],"name":"authorizeContract","outputs":[],"stateMutability":"nonpayable","type":"function"},{"inputs":[{"internalType":"address","name":"","type":"address"}],"name":"authorizedContracts","outputs":[{"internalType":"bool","name":"","type":"bool"}],"stateMutability":"view","type":"function"},{"inputs":[{"internalType":"uint256","name":"totalAmount","type":"uint256"}],"name":"calculateFees","outputs":[{"internalType":"uint256","name":"platformFee","type":"uint256"},{"internalType":"uint256","name":"partnerFee","type":"uint256"}],"stateMutability":"pure","type":"function"},{"inputs":[{"internalType":"uint256","name":"marketId","type":"uint256"},{"internalType":"address","name":"user","type":"address"},{"internalType":"address","name":"token","type":"address"},{"internalType":"uint256","name":"amount","type":"uint256"}],"name":"claimRefund","outputs":[],"stateMutability":"nonpayable","type":"function"},{"inputs":[{"internalType":"uint256","name":"marketId","type":"uint256"},{"internalType":"address","name":"user","type":"address"},{"internalType":"address","name":"token","type":"address"},{"internalType":"uint256","name":"amount","type":"uint256"}],"name":"claimWinnings","outputs":[],"stateMutability":"nonpayable","type":"function"},{"inputs":[{"internalType":"address","name":"contractAddr","type":"address"}],"name":"deauthorizeContract","outputs":[],"stateMutability":"nonpayable","type":"function"},{"inputs":[{"internalType":"address","name":"token","type":"address"},{"internalType":"uint256","name":"totalAmount","type":"uint256"}],"name":"distributeFees","outputs":[],"stateMutability":"nonpayable","type":"function"},{"inputs":[{"internalType":"address[]","name":"tokens","type":"address[]"}],"name":"getAllPlatformPools","outputs":[{"internalType":"uint256[]","name":"balances","type":"uint256[]"}],"stateMutability":"view","type":"function"},{"inputs":[{"internalType":"address","name":"token","type":"address"}],"name":"getBalanceInfo","outputs":[{"internalType":"uint256","name":"contractBalance","type":"uint256"},{"internalType":"uint256","name":"platformPoolBalance","type":"uint256"}],"stateMutability":"view","type":"function"},{"inputs":[{"internalType":"uint256","name":"marketId","type":"uint256"},{"internalType":"address","name":"token","type":"address"}],"name":"getMarketPool","outputs":[{"internalType":"uint256","name":"","type":"uint256"}],"stateMutability":"view","type":"function"},{"inputs":[{"internalType":"uint256","name":"marketId","type":"uint256"},{"internalType":"uint256","name":"option","type":"uint256"},{"internalType":"address","name":"token","type":"address"}],"name":"getOptionPool","outputs":[{"internalType":"uint256","name":"","type":"uint256"}],"stateMutability":"view","type":"function"},{"inputs":[{"internalType":"address","name":"token","type":"address"}],"name":"getPlatformPool","outputs":[{"internalType":"uint256","name":"","type":"uint256"}],"stateMutability":"view","type":"function"},{"inputs":[{"internalType":"uint256","name":"marketId","type":"uint256"},{"internalType":"address","name":"token","type":"address"}],"name":"getSupportPool","outputs":[{"internalType":"uint256","name":"","type":"uint256"}],"stateMutability":"view","type":"function"},{"inputs":[{"internalType":"uint256","name":"marketId","type":"uint256"},{"internalType":"address","name":"user","type":"address"},{"internalType":"address","name":"token","type":"address"}],"name":"getUserBet","outputs":[{"internalType":"uint256","name":"","type":"uint256"}],"stateMutability":"view","type":"function"},{"inputs":[{"internalType":"uint256","name":"marketId","type":"uint256"},{"internalType":"address","name":"user","type":"address"},{"internalType":"address","name":"token","type":"address"}],"name":"getUserSupport","outputs":[{"internalType":"uint256","name":"","type":"uint256"}],"stateMutability":"view","type":"function"},{"inputs":[{"internalType":"uint256","name":"marketId","type":"uint256"},{"internalType":"address","name":"user","type":"address"}],"name":"hasUserClaimed","outputs":[{"internalType":"bool","name":"","type":"bool"}],"stateMutability":"view","type":"function"},{"inputs":[{"internalType":"uint256","name":"marketId","type":"uint256"},{"internalType":"address","name":"user","type":"address"}],"name":"hasUserSupportClaimed","outputs":[{"internalType":"bool","name":"","type":"bool"}],"stateMutability":"view","type":"function"},{"inputs":[],"name":"marketManager","outputs":[{"internalType":"address","name":"","type":"address"}],"stateMutability":"view","type":"function"},{"inputs":[{"internalType":"uint256","name":"","type":"uint256"},{"internalType":"address","name":"","type":"address"}],"name":"marketPools","outputs":[{"internalType":"uint256","name":"","type":"uint256"}],"stateMutability":"view","type":"function"},{"inputs":[{"internalType":"uint256","name":"","type":"uint256"},{"internalType":"uint256","name":"","type":"uint256"},{"internalType":"address","name":"","type":"address"}],"name":"optionPools","outputs":[{"internalType":"uint256","name":"","type":"uint256"}],"stateMutability":"view","type":"function"},{"inputs":[],"name":"owner","outputs":[{"internalType":"address","name":"","type":"address"}],"stateMutability":"view","type":"function"},{"inputs":[],"name":"partner","outputs":[{"internalType":"address","name":"","type":"address"}],"stateMutability":"view","type":"function"},{"inputs":[{"internalType":"uint256","name":"marketId","type":"uint256"},{"internalType":"address","name":"user","type":"address"},{"internalType":"address","name":"token","type":"address"},{"internalType":"uint256","name":"amount","type":"uint256"},{"internalType":"uint256","name":"option","type":"uint256"}],"name":"placeBet","outputs":[],"stateMutability":"nonpayable","type":"function"},{"inputs":[{"internalType":"address","name":"","type":"address"}],"name":"platformPools","outputs":[{"internalType":"uint256","name":"","type":"uint256"}],"stateMutability":"view","type":"function"},{"inputs":[],"name":"renounceOwnership","outputs":[],"stateMutability":"nonpayable","type":"function"},{"inputs":[{"internalType":"address","name":"_marketManager","type":"address"}],"name":"setMarketManager","outputs":[],"stateMutability":"nonpayable","type":"function"},{"inputs":[{"internalType":"address","name":"_partner","type":"address"}],"name":"setPartner","outputs":[],"stateMutability":"nonpayable","type":"function"},{"inputs":[{"internalType":"uint256","name":"marketId","type":"uint256"},{"internalType":"address","name":"user","type":"address"},{"internalType":"address","name":"token","type":"address"},{"internalType":"uint256","name":"amount","type":"uint256"}],"name":"supportMarket","outputs":[],"stateMutability":"nonpayable","type":"function"},{"inputs":[{"internalType":"uint256","name":"","type":"uint256"},{"internalType":"address","name":"","type":"address"}],"name":"supportPools","outputs":[{"internalType":"uint256","name":"","type":"uint256"}],"stateMutability":"view","type":"function"},{"inputs":[{"internalType":"address","name":"newOwner","type":"address"}],"name":"transferOwnership","outputs":[],"stateMutability":"nonpayable","type":"function"},{"inputs":[{"internalType":"uint256","name":"","type":"uint256"},{"internalType":"address","name":"","type":"address"},{"internalType":"uint256","name":"","type":"uint256"}],"name":"userBetOptions","outputs":[{"internalType":"uint256","name":"","type":"uint256"}],"stateMutability":"view","type":"function"},{"inputs":[{"internalType":"uint256","name":"","type":"uint256"},{"internalType":"address","name":"","type":"address"},{"internalType":"address","name":"","type":"address"}],"name":"userBets","outputs":[{"internalType":"uint256","name":"","type":"uint256"}],"stateMutability":"view","type":"function"},{"inputs":[{"internalType":"uint256","name":"","type":"uint256"},{"internalType":"address","name":"","type":"address"}],"name":"userClaimed","outputs":[{"internalType":"bool","name":"","type":"bool"}],"stateMutability":"view","type":"function"},{"inputs":[{"internalType":"uint256","name":"","type":"uint256"},{"internalType":"address","name":"","type":"address"}],"name":"userSupportClaimed","outputs":[{"internalType":"bool","name":"","type":"bool"}],"stateMutability":"view","type":"function"},{"inputs":[{"internalType":"uint256","name":"","type":"uint256"},{"internalType":"address","name":"","type":"address"},{"internalType":"address","name":"","type":"address"}],"name":"userSupports","outputs":[{"internalType":"uint256","name":"","type":"uint256"}],"stateMutability":"view","type":"function"},{"inputs":[{"internalType":"address","name":"token","type":"address"},{"internalType":"uint256","name":"amount","type":"uint256"},{"internalType":"address","name":"to","type":"address"}],"name":"withdraw","outputs":[],"stateMutability":"nonpayable","type":"function"},{"inputs":[{"internalType":"address","name":"token","type":"address"},{"internalType":"uint256","name":"amount","type":"uint256"},{"internalType":"address","name":"to","type":"address"}],"name":"withdrawPlatformFunds","outputs":[],"stateMutability":"nonpayable","type":"function"},{"inputs":[{"internalType":"uint256","name":"marketId","type":"uint256"},{"internalType":"address","name":"user","type":"address"},{"internalType":"address","name":"token","type":"address"},{"internalType":"uint256","name":"amount","type":"uint256"}],"name":"withdrawSupport","outputs":[],"stateMutability":"nonpayable","type":"function"},{"stateMutability":"payable","type":"receive"}],"evm":{"bytecode":{"linkReferences":{},"object":"608034620000de57601f6200206838819003918201601f19168301916001600160401b03831184841017620000e3578084926040948552833981010312620000de576200005a60206200005283620000f9565b9201620000f9565b906001600160a01b03908116908115620000c5576000549260018060a01b03199280848616176000558260405195167f8be0079c531659141344cd1fd0a4f28419497f9722a3daafe3b4186f6b6457e0600080a316906001541617600155611f5990816200010f8239f35b604051631e4fbdf760e01b815260006004820152602490fd5b600080fd5b634e487b7160e01b600052604160045260246000fd5b51906001600160a01b0382168203620000de5756fe60806040818152600480361015610021575b505050361561001f57600080fd5b005b600092833560e01c908163055c796b146119b25750806307c7a72d146116d75780631abf870514610ad5578063256ba741146117d15780632f7c165e146118105780632ff44b6f1461130357806334eba166146117d157806339adac4d1461171d5780633beb9842146116d757806341ed2c12146116ae57806341ee37d11461169257806348fef5951461145c5780634f44289d14610a9457806352238fdd14611432578063539aa77f14611415578063553b7cbb1461091b578063593f35f4146113495780635d1c5820146113035780635e0083da146111ab578063674d20cb14610f5f57806367561d9314610ea257806369328dec14610d565780636c1b5c8a14610d215780636e861c0e14610cbb5780636ee02a9b14610b73578063715018a614610b165780637a3cf74214610ad55780637de4263414610a945780638da5cb5b14610a6c578063a16d5960146109a6578063a24693ed1461095a578063b90f9cb31461091b578063be10862b146108f2578063c15d9807146107d6578063d5b9221b14610798578063d82aff111461068e578063dc4ce34914610276578063e014601c14610505578063f0824f33146102b8578063f133a04f146102765763f2fde38b036100115734610272576020366003190112610272576102066119e6565b9061020f611ae3565b6001600160a01b0391821692831561025c57505082546001600160a01b0319811683178455167f8be0079c531659141344cd1fd0a4f28419497f9722a3daafe3b4186f6b6457e08380a380f35b51631e4fbdf760e01b8152908101849052602490fd5b8280fd5b5050346102b4578060209261028a36611ab9565b9183526006865283832090835285528282206001600160a01b039091168252845220549051908152f35b5080fd5b509190346102b457806003193601126102b4576102d36119e6565b906024359133845260206002815260ff8386205416156104af5783156102f98115611b57565b6107d0908186029186830414171561049c5785939291612710889204916103208388611c33565b6001600160a01b0394851697909490886103ea57968491610352600080516020611ec483398151915299471015611c4d565b826103c6575b5050505b868852815283872061036f848254611c40565b905585600080516020611ee4833981519152608086518681528785820152601d888201527f44697265637420706c6174666f726d20706f6f6c206164646974696f6e0000006060820152a28351928352820152a280f35b81806103e2948193600154165af16103dc611ca4565b50611ce4565b82888a610358565b86516370a0823160e01b8152308482015290975083816024818c5afa908115610492578a91610453575b50600080516020611ec483398151915297610430911015611bdb565b838061043e575b505061035c565b61044c916001541689611d41565b8883610437565b90508381813d831161048b575b61046a8183611ba3565b810103126104875751600080516020611ec4833981519152610414565b8980fd5b503d610460565b87513d8c823e3d90fd5b634e487b7160e01b865260118752602486fd5b8560849184519162461bcd60e51b8352820152603c6024820152600080516020611f0483398151915260448201527f6374732063616e2061646420746f20706c6174666f726d20706f6f6c000000006064820152fd5b509190346102b45760a03660031901126102b457823590610524611a01565b6001600160a01b0394604435868116929083900361068a5760643594608435913388526020936002855260ff878a2054161561063e5787156105fb57508798826105f698995260088552868a20911690818a528452858920858a52845285892061058f898254611c40565b9055818952600a8452858920908952835284882082895283528488206105b6888254611c40565b90558088526005835284882084895283528488206105d5888254611c40565b90558752600682528387209087528152828620918652528320918254611c40565b905580f35b865162461bcd60e51b8152908101859052601c60248201527f54726561737572793a20496e76616c69642062657420616d6f756e74000000006044820152606490fd5b865162461bcd60e51b815290810185905260326024820152600080516020611f048339815191526044820152716374732063616e20706c616365206265747360701b6064820152608490fd5b8580fd5b508290346102b45760203660031901126102b4576106aa6119e6565b6106b2611ae3565b6001600160a01b03908116918215610744575081929360035490836bffffffffffffffffffffffff60a01b83161760035583865260026020528520600160ff19825416179055167f6d5236c24f887cea37fd19d8fffc6c47b564af445baf220a6c7f9a58bb6ae04e8480a37f8983a1f3c3cb45c24c8226b5b805e3b6eb49686530b808534b2a920129eff6518280a280f35b608490602086519162461bcd60e51b8352820152602860248201527f54726561737572793a20496e76616c6964206d61726b6574206d616e61676572604482015267206164647265737360c01b6064820152fd5b5050346102b45760203660031901126102b45760209160ff9082906001600160a01b036107c36119e6565b1681526002855220541690519015158152f35b509190346102b4576107e736611a4c565b9392959091953386526020916002835260ff85882054161561089b57851561085a57508596816105f69697526009835284882060018060a01b03809216895283528488209316928388528252838720610841878254611c40565b9055865260078152828620918652528320918254611c40565b606490838087519262461bcd60e51b845283015260248201527f54726561737572793a20496e76616c696420737570706f727420616d6f756e746044820152fd5b845162461bcd60e51b815290810183905260376024820152600080516020611f0483398151915260448201527f6374732063616e20737570706f7274206d61726b6574730000000000000000006064820152608490fd5b5050346102b457816003193601126102b45760015490516001600160a01b039091168152602090f35b5050346102b4578060209261092f36611a17565b918352600886528383206001600160a01b039182168452865283832091168252845220549051908152f35b5034610272576060366003190112610272576020928291610979611a01565b90358252600a85528282206001600160a01b03909116825284528181206044358252845220549051908152f35b5034610272576020366003190112610272576109c06119e6565b906109c9611ae3565b6001600160a01b03918216928315610a1f575050600154826bffffffffffffffffffffffff60a01b821617600155167fc853be2b3168a7fe00e46da23214c5345a752dc61cd3300d7f255f8ae55345878380a380f35b906020608492519162461bcd60e51b8352820152602160248201527f54726561737572793a20496e76616c696420706172746e6572206164647265736044820152607360f81b6064820152fd5b5050346102b457816003193601126102b457905490516001600160a01b039091168152602090f35b50346102725781600319360112610272576020928291610ab2611a01565b90358252600785528282206001600160a01b039091168252845220549051908152f35b50346102725781600319360112610272576020928291610af3611a01565b90358252600585528282206001600160a01b039091168252845220549051908152f35b8334610b705780600319360112610b7057610b2f611ae3565b80546001600160a01b03198116825581906001600160a01b03167f8be0079c531659141344cd1fd0a4f28419497f9722a3daafe3b4186f6b6457e08280a380f35b80fd5b508234610b70576020806003193601126102b45782359167ffffffffffffffff8084116102b457366023850112156102b457838501359081116102b457602490600595368383891b88010111610cb757610bd282989796949598611eab565b93610bdf88519586611ba3565b828552610beb83611eab565b858a019790601f1901368937865b848110610c415750505050505083519485948186019282875251809352850193925b828110610c2a57505050500390f35b835185528695509381019392810192600101610c1b565b80829b9897999a9b1b86818501013560018060a01b038116809103610cb35788528489528b882054908a51831015610ca1578a018901526000198114610c8f57600101999897959699610bf9565b634e487b7160e01b8752601184528587fd5b634e487b7160e01b8952603286528789fd5b8880fd5b8380fd5b5050346102b45760203660031901126102b457610cd66119e6565b610cde611ae3565b6001600160a01b03168083526002602052908220805460ff191690557f54142b7cb3ceaa9e564243ce4cc2303723c842a1144192de6b3c594f68b16a9a8280a280f35b50346102725760203660031901126102725760209282916001600160a01b03610d486119e6565b168252845220549051908152f35b503461027257610d6536611a85565b9193610d6f611ae3565b6001600160a01b0383811695879190610d89881515611de3565b610d94851515611b57565b169485610dee575090610de68280808695867fe9171aeff46c37ab955b8aff908e14ae9732bd06634fa131226cfe5c25bfd2fb99610dd660209a471015611c4d565b5af1610de0611ca4565b50611e2f565b51908152a380f35b90508151906370a0823160e01b82523090820152602081602481885afa908115610e98578791610e5b575b5090610e56837fe9171aeff46c37ab955b8aff908e14ae9732bd06634fa131226cfe5c25bfd2fb95610e5082602097961015611bdb565b87611d41565b610de6565b929190506020833d8211610e90575b81610e7760209383611ba3565b81010312610e8c579151909190610e56610e19565b8680fd5b3d9150610e6a565b82513d89823e3d90fd5b50903461027257602036600319011261027257610ebd6119e6565b610ec5611ae3565b6001600160a01b0316918215610f12575081835260026020528220805460ff191660011790557f8983a1f3c3cb45c24c8226b5b805e3b6eb49686530b808534b2a920129eff6518280a280f35b6020608492519162461bcd60e51b8352820152602260248201527f54726561737572793a20496e76616c696420636f6e7472616374206164647265604482015261737360f01b6064820152fd5b503461027257610f6e36611a85565b91939092610f7a611ae3565b6001600160a01b0383811695610f91871515611de3565b610f9c861515611b57565b169485875260209382855285848920541061115357878791828252848752858220610fc8898254611c33565b90558261106557917f0d40d374fecc4dca2567cc5ab864d037f0cd1f1e9bda38c23aff691cd74629e0878961101f85808060809d9c9a98600080516020611ee48339815191529f60199d9b610dd682471015611c4d565b8651908152a3868852835280808820549381519485528401528201527f506c6174666f726d2066756e6473207769746864726177616c000000000000006060820152a280f35b91505083516370a0823160e01b8152308482015285816024818b5afa90811561114957908892918a916110eb575b50917f0d40d374fecc4dca2567cc5ab864d037f0cd1f1e9bda38c23aff691cd74629e087896110e68160809b9a98966110e0600080516020611ee48339815191529e60199c9a1015611bdb565b86611d41565b61101f565b8095935087809795939892503d8311611142575b6111098183611ba3565b81010312610cb35792519394919390929187917f0d40d374fecc4dca2567cc5ab864d037f0cd1f1e9bda38c23aff691cd74629e0611093565b503d6110ff565b85513d8b823e3d90fd5b835162461bcd60e51b8152808401869052602c60248201527f54726561737572793a20496e73756666696369656e7420706c6174666f726d2060448201526b706f6f6c2062616c616e636560a01b6064820152608490fd5b508290346102b4576111bc36611a4c565b9295909333865260206002815260ff8388205416156112b657841561126c57878752600b81528287206001600160a01b0385168089529082528388205490929060ff1661122b575086976112289752600b8152828820918852528520600160ff19825416179055611e7b565b80f35b60649184519162461bcd60e51b8352820152601960248201527f54726561737572793a20416c726561647920636c61696d6564000000000000006044820152fd5b608492519162461bcd60e51b8352820152602160248201527f54726561737572793a20496e76616c69642077696e6e696e677320616d6f756e6044820152601d60fa1b6064820152fd5b608492519162461bcd60e51b835282015260366024820152600080516020611f048339815191526044820152756374732063616e20636c61696d2077696e6e696e677360501b6064820152fd5b50346102725781600319360112610272578160209360ff92611323611a01565b90358252600c86528282206001600160a01b039091168252855220549151911615158152f35b508290346102b45761135a36611a4c565b925092338552600260205260ff8686205416156113c65782156113835750611228939450611e7b565b606490602087519162461bcd60e51b8352820152601f60248201527f54726561737572793a20496e76616c696420726566756e6420616d6f756e74006044820152fd5b608490602087519162461bcd60e51b835282015260356024820152600080516020611f048339815191526044820152746374732063616e20636c61696d20726566756e647360581b6064820152fd5b5050346102b457816003193601126102b457602090516101f48152f35b508234610b70576020366003190112610b7057506114509035611b0f565b82519182526020820152f35b509190346102b457806003193601126102b4576114776119e6565b90602435913384526020946002865260ff83862054161561163b5784956114a18596951515611b57565b6114aa86611b0f565b6001600160a01b0394851697919490939188611593579684916114de600080516020611ec483398151915299471015611c4d565b82611575575b50506114f09085611c33565b908789528252611504858920918254611c40565b905585600080516020611ee48339815191526115666115238587611c33565b875191829182608091815260406020820152601860408201527f526567756c61722066656520646973747269627574696f6e000000000000000060608201520190565b0390a28351928352820152a280f35b818061158b948193600154165af16103dc611ca4565b8288386114e4565b86516370a0823160e01b8152308482015290975083816024818c5afa908115610492578a91611600575b50600080516020611ec4833981519152976115d9911015611bdb565b83806115eb575b6114f0915085611c33565b6115f9916001541689611d41565b38836115e0565b90508381813d8311611634575b6116178183611ba3565b810103126104875751600080516020611ec48339815191526115bd565b503d61160d565b825162461bcd60e51b815290810186905260376024820152600080516020611f0483398151915260448201527f6374732063616e206469737472696275746520666565730000000000000000006064820152608490fd5b5050346102b457816003193601126102b4576020905160648152f35b5050346102b457816003193601126102b45760035490516001600160a01b039091168152602090f35b50346102725781600319360112610272578160209360ff926116f7611a01565b90358252600b86528282206001600160a01b039091168252855220549151911615158152f35b508290346102b45760209182600319360112610b705761173b6119e6565b6001600160a01b03168082528284528482205492849082611767575050505047915b8351928352820152f35b60248751809481936370a0823160e01b835230908301525afa9182156117c6578092611796575b50509161175d565b9091508382813d83116117bf575b6117ae8183611ba3565b81010312610b70575051848061178e565b503d6117a4565b8551903d90823e3d90fd5b5050346102b457806020926117e536611a17565b918352600986528383206001600160a01b039182168452865283832091168252845220549051908152f35b508290346102b45761182136611a4c565b9295909333865260206002815260ff83882054161561195e57841561191257878752600981528287209760018060a01b0392838616998a8a52835284892093881693848a52835286858a2054106118c05750879881611228995260098352848a20908a528252838920838a52825283892061189d878254611c33565b90558852600781528288209188525285206118b9838254611c33565b9055611e7b565b845162461bcd60e51b8152908101839052602660248201527f54726561737572793a20496e73756666696369656e7420737570706f72742062604482015265616c616e636560d01b6064820152608490fd5b608492519162461bcd60e51b8352820152602360248201527f54726561737572793a20496e76616c6964207769746864726177616c20616d6f6044820152621d5b9d60ea1b6064820152fd5b608492519162461bcd60e51b835282015260386024820152600080516020611f0483398151915260448201527f6374732063616e20776974686472617720737570706f727400000000000000006064820152fd5b9291905034610cb7576020366003190112610cb757602093906001600160a01b036119db6119e6565b168252845220548152f35b600435906001600160a01b03821682036119fc57565b600080fd5b602435906001600160a01b03821682036119fc57565b60609060031901126119fc57600435906001600160a01b039060243582811681036119fc579160443590811681036119fc5790565b60809060031901126119fc57600435906001600160a01b039060243582811681036119fc579160443590811681036119fc579060643590565b60609060031901126119fc576001600160a01b0360043581811681036119fc57916024359160443590811681036119fc5790565b60609060031901126119fc5760043590602435906044356001600160a01b03811681036119fc5790565b6000546001600160a01b03163303611af757565b60405163118cdaa760e01b8152336004820152602490fd5b906101f491828102928184041490151715611b4157612710809204916064830283810460641484151715611b41570490565b634e487b7160e01b600052601160045260246000fd5b15611b5e57565b60405162461bcd60e51b815260206004820152601860248201527f54726561737572793a20496e76616c696420616d6f756e7400000000000000006044820152606490fd5b90601f8019910116810190811067ffffffffffffffff821117611bc557604052565b634e487b7160e01b600052604160045260246000fd5b15611be257565b60405162461bcd60e51b8152602060048201526024808201527f54726561737572793a20496e73756666696369656e7420746f6b656e2062616c604482015263616e636560e01b6064820152608490fd5b91908203918211611b4157565b91908201809211611b4157565b15611c5457565b60405162461bcd60e51b815260206004820152602260248201527f54726561737572793a20496e73756666696369656e74204554482062616c616e604482015261636560f01b6064820152608490fd5b3d15611cdf573d9067ffffffffffffffff8211611bc55760405191611cd3601f8201601f191660200184611ba3565b82523d6000602084013e565b606090565b15611ceb57565b60405162461bcd60e51b815260206004820152602860248201527f54726561737572793a20455448207472616e7366657220746f20706172746e656044820152671c8819985a5b195960c21b6064820152608490fd5b60405163a9059cbb60e01b602082019081526001600160a01b0393841660248301526044808301959095529381529092608082019067ffffffffffffffff821183831017611bc557602092600092604052519082865af115611dd7576000513d611dce57508082163b155b611db4575050565b604051635274afe760e01b81529116600482015260249150fd5b60011415611dac565b6040513d6000823e3d90fd5b15611dea57565b60405162461bcd60e51b815260206004820152601b60248201527f54726561737572793a20496e76616c696420726563697069656e7400000000006044820152606490fd5b15611e3657565b60405162461bcd60e51b815260206004820152601d60248201527f54726561737572793a20455448207472616e73666572206661696c65640000006044820152606490fd5b916001600160a01b031680611ea15750600080808093611e9f955af1610de0611ca4565b565b91611e9f92611d41565b67ffffffffffffffff8111611bc55760051b6020019056fe85da6ab72d2b48932522aea80adb8ca4fab6cdeb87bc2e7f6c03fd78d3b2100e1118cdec69d543750c0863ccd71a7d9183543cd6696b187370ce3b76a9003bf854726561737572793a204f6e6c7920617574686f72697a656420636f6e747261a2646970667358221220d5c088d3d3cbc5ca73128ef50c88b1277144265c55775ef61f0bb76f7bb8880064736f6c63430008140033","opcodes":"PUSH1 0x80 CALLVALUE PUSH3 0xDE JUMPI PUSH1 0x1F PUSH3 0x2068 CODESIZE DUP2 SWAP1 SUB SWAP2 DUP3 ADD PUSH1 0x1F NOT AND DUP4 ADD SWAP2 PUSH1 0x1 PUSH1 0x1 PUSH1 0x40 SHL SUB DUP4 GT DUP5 DUP5 LT OR PUSH3 0xE3 JUMPI DUP1 DUP5 SWAP3 PUSH1 0x40 SWAP5 DUP6 MSTORE DUP4 CODECOPY DUP2 ADD SUB SLT PUSH3 0xDE JUMPI PUSH3 0x5A PUSH1 0x20 PUSH3 0x52 DUP4 PUSH3 0xF9 JUMP JUMPDEST SWAP3 ADD PUSH3 0xF9 JUMP JUMPDEST SWAP1 PUSH1 0x1 PUSH1 0x1 PUSH1 0xA0 SHL SUB SWAP1 DUP2 AND SWAP1 DUP2 ISZERO PUSH3 0xC5 JUMPI PUSH1 0x0 SLOAD SWAP3 PUSH1 0x1 DUP1 PUSH1 0xA0 SHL SUB NOT SWAP3 DUP1 DUP5 DUP7 AND OR PUSH1 0x0 SSTORE DUP3 PUSH1 0x40 MLOAD SWAP6 AND PUSH32 0x8BE0079C531659141344CD1FD0A4F28419497F9722A3DAAFE3B4186F6B6457E0 PUSH1 0x0 DUP1 LOG3 AND SWAP1 PUSH1 0x1 SLOAD AND OR PUSH1 0x1 SSTORE PUSH2 0x1F59 SWAP1 DUP2 PUSH3 0x10F DUP3 CODECOPY RETURN JUMPDEST PUSH1 0x40 MLOAD PUSH4 0x1E4FBDF7 PUSH1 0xE0 SHL DUP2 MSTORE PUSH1 0x0 PUSH1 0x4 DUP3 ADD MSTORE PUSH1 0x24 SWAP1 REVERT JUMPDEST PUSH1 0x0 DUP1 REVERT JUMPDEST PUSH4 0x4E487B71 PUSH1 0xE0 SHL PUSH1 0x0 MSTORE PUSH1 0x41 PUSH1 0x4 MSTORE PUSH1 0x24 PUSH1 0x0 REVERT JUMPDEST MLOAD SWAP1 PUSH1 0x1 PUSH1 0x1 PUSH1 0xA0 SHL SUB DUP3 AND DUP3 SUB PUSH3 0xDE JUMPI JUMP INVALID PUSH1 0x80 PUSH1 0x40 DUP2 DUP2 MSTORE PUSH1 0x4 DUP1 CALLDATASIZE LT ISZERO PUSH2 0x21 JUMPI JUMPDEST POP POP POP CALLDATASIZE ISZERO PUSH2 0x1F JUMPI PUSH1 0x0 DUP1 REVERT JUMPDEST STOP JUMPDEST PUSH1 0x0 SWAP3 DUP4 CALLDATALOAD PUSH1 0xE0 SHR SWAP1 DUP2 PUSH4 0x55C796B EQ PUSH2 0x19B2 JUMPI POP DUP1 PUSH4 0x7C7A72D EQ PUSH2 0x16D7 JUMPI DUP1 PUSH4 0x1ABF8705 EQ PUSH2 0xAD5 JUMPI DUP1 PUSH4 0x256BA741 EQ PUSH2 0x17D1 JUMPI DUP1 PUSH4 0x2F7C165E EQ PUSH2 0x1810 JUMPI DUP1 PUSH4 0x2FF44B6F EQ PUSH2 0x1303 JUMPI DUP1 PUSH4 0x34EBA166 EQ PUSH2 0x17D1 JUMPI DUP1 PUSH4 0x39ADAC4D EQ PUSH2 0x171D JUMPI DUP1 PUSH4 0x3BEB9842 EQ PUSH2 0x16D7 JUMPI DUP1 PUSH4 0x41ED2C12 EQ PUSH2 0x16AE JUMPI DUP1 PUSH4 0x41EE37D1 EQ PUSH2 0x1692 JUMPI DUP1 PUSH4 0x48FEF595 EQ PUSH2 0x145C JUMPI DUP1 PUSH4 0x4F44289D EQ PUSH2 0xA94 JUMPI DUP1 PUSH4 0x52238FDD EQ PUSH2 0x1432 JUMPI DUP1 PUSH4 0x539AA77F EQ PUSH2 0x1415 JUMPI DUP1 PUSH4 0x553B7CBB EQ PUSH2 0x91B JUMPI DUP1 PUSH4 0x593F35F4 EQ PUSH2 0x1349 JUMPI DUP1 PUSH4 0x5D1C5820 EQ PUSH2 0x1303 JUMPI DUP1 PUSH4 0x5E0083DA EQ PUSH2 0x11AB JUMPI DUP1 PUSH4 0x674D20CB EQ PUSH2 0xF5F JUMPI DUP1 PUSH4 0x67561D93 EQ PUSH2 0xEA2 JUMPI DUP1 PUSH4 0x69328DEC EQ PUSH2 0xD56 JUMPI DUP1 PUSH4 0x6C1B5C8A EQ PUSH2 0xD21 JUMPI DUP1 PUSH4 0x6E861C0E EQ PUSH2 0xCBB JUMPI DUP1 PUSH4 0x6EE02A9B EQ PUSH2 0xB73 JUMPI DUP1 PUSH4 0x715018A6 EQ PUSH2 0xB16 JUMPI DUP1 PUSH4 0x7A3CF742 EQ PUSH2 0xAD5 JUMPI DUP1 PUSH4 0x7DE42634 EQ PUSH2 0xA94 JUMPI DUP1 PUSH4 0x8DA5CB5B EQ PUSH2 0xA6C JUMPI DUP1 PUSH4 0xA16D5960 EQ PUSH2 0x9A6 JUMPI DUP1 PUSH4 0xA24693ED EQ PUSH2 0x95A JUMPI DUP1 PUSH4 0xB90F9CB3 EQ PUSH2 0x91B JUMPI DUP1 PUSH4 0xBE10862B EQ PUSH2 0x8F2 JUMPI DUP1 PUSH4 0xC15D9807 EQ PUSH2 0x7D6 JUMPI DUP1 PUSH4 0xD5B9221B EQ PUSH2 0x798 JUMPI DUP1 PUSH4 0xD82AFF11 EQ PUSH2 0x68E JUMPI DUP1 PUSH4 0xDC4CE349 EQ PUSH2 0x276 JUMPI DUP1 PUSH4 0xE014601C EQ PUSH2 0x505 JUMPI DUP1 PUSH4 0xF0824F33 EQ PUSH2 0x2B8 JUMPI DUP1 PUSH4 0xF133A04F EQ PUSH2 0x276 JUMPI PUSH4 0xF2FDE38B SUB PUSH2 0x11 JUMPI CALLVALUE PUSH2 0x272 JUMPI PUSH1 0x20 CALLDATASIZE PUSH1 0x3 NOT ADD SLT PUSH2 0x272 JUMPI PUSH2 0x206 PUSH2 0x19E6 JUMP JUMPDEST SWAP1 PUSH2 0x20F PUSH2 0x1AE3 JUMP JUMPDEST PUSH1 0x1 PUSH1 0x1 PUSH1 0xA0 SHL SUB SWAP2 DUP3 AND SWAP3 DUP4 ISZERO PUSH2 0x25C JUMPI POP POP DUP3 SLOAD PUSH1 0x1 PUSH1 0x1 PUSH1 0xA0 SHL SUB NOT DUP2 AND DUP4 OR DUP5 SSTORE AND PUSH32 0x8BE0079C531659141344CD1FD0A4F28419497F9722A3DAAFE3B4186F6B6457E0 DUP4 DUP1 LOG3 DUP1 RETURN JUMPDEST MLOAD PUSH4 0x1E4FBDF7 PUSH1 0xE0 SHL DUP2 MSTORE SWAP1 DUP2 ADD DUP5 SWAP1 MSTORE PUSH1 0x24 SWAP1 REVERT JUMPDEST DUP3 DUP1 REVERT JUMPDEST POP POP CALLVALUE PUSH2 0x2B4 JUMPI DUP1 PUSH1 0x20 SWAP3 PUSH2 0x28A CALLDATASIZE PUSH2 0x1AB9 JUMP JUMPDEST SWAP2 DUP4 MSTORE PUSH1 0x6 DUP7 MSTORE DUP4 DUP4 KECCAK256 SWAP1 DUP4 MSTORE DUP6 MSTORE DUP3 DUP3 KECCAK256 PUSH1 0x1 PUSH1 0x1 PUSH1 0xA0 SHL SUB SWAP1 SWAP2 AND DUP3 MSTORE DUP5 MSTORE KECCAK256 SLOAD SWAP1 MLOAD SWAP1 DUP2 MSTORE RETURN JUMPDEST POP DUP1 REVERT JUMPDEST POP SWAP2 SWAP1 CALLVALUE PUSH2 0x2B4 JUMPI DUP1 PUSH1 0x3 NOT CALLDATASIZE ADD SLT PUSH2 0x2B4 JUMPI PUSH2 0x2D3 PUSH2 0x19E6 JUMP JUMPDEST SWAP1 PUSH1 0x24 CALLDATALOAD SWAP2 CALLER DUP5 MSTORE PUSH1 0x20 PUSH1 0x2 DUP2 MSTORE PUSH1 0xFF DUP4 DUP7 KECCAK256 SLOAD AND ISZERO PUSH2 0x4AF JUMPI DUP4 ISZERO PUSH2 0x2F9 DUP2 ISZERO PUSH2 0x1B57 JUMP JUMPDEST PUSH2 0x7D0 SWAP1 DUP2 DUP7 MUL SWAP2 DUP7 DUP4 DIV EQ OR ISZERO PUSH2 0x49C JUMPI DUP6 SWAP4 SWAP3 SWAP2 PUSH2 0x2710 DUP9 SWAP3 DIV SWAP2 PUSH2 0x320 DUP4 DUP9 PUSH2 0x1C33 JUMP JUMPDEST PUSH1 0x1 PUSH1 0x1 PUSH1 0xA0 SHL SUB SWAP5 DUP6 AND SWAP8 SWAP1 SWAP5 SWAP1 DUP9 PUSH2 0x3EA JUMPI SWAP7 DUP5 SWAP2 PUSH2 0x352 PUSH1 0x0 DUP1 MLOAD PUSH1 0x20 PUSH2 0x1EC4 DUP4 CODECOPY DUP2 MLOAD SWAP2 MSTORE SWAP10 SELFBALANCE LT ISZERO PUSH2 0x1C4D JUMP JUMPDEST DUP3 PUSH2 0x3C6 JUMPI JUMPDEST POP POP POP JUMPDEST DUP7 DUP9 MSTORE DUP2 MSTORE DUP4 DUP8 KECCAK256 PUSH2 0x36F DUP5 DUP3 SLOAD PUSH2 0x1C40 JUMP JUMPDEST SWAP1 SSTORE DUP6 PUSH1 0x0 DUP1 MLOAD PUSH1 0x20 PUSH2 0x1EE4 DUP4 CODECOPY DUP2 MLOAD SWAP2 MSTORE PUSH1 0x80 DUP7 MLOAD DUP7 DUP2 MSTORE DUP8 DUP6 DUP3 ADD MSTORE PUSH1 0x1D DUP9 DUP3 ADD MSTORE PUSH32 0x44697265637420706C6174666F726D20706F6F6C206164646974696F6E000000 PUSH1 0x60 DUP3 ADD MSTORE LOG2 DUP4 MLOAD SWAP3 DUP4 MSTORE DUP3 ADD MSTORE LOG2 DUP1 RETURN JUMPDEST DUP2 DUP1 PUSH2 0x3E2 SWAP5 DUP2 SWAP4 PUSH1 0x1 SLOAD AND GAS CALL PUSH2 0x3DC PUSH2 0x1CA4 JUMP JUMPDEST POP PUSH2 0x1CE4 JUMP JUMPDEST DUP3 DUP9 DUP11 PUSH2 0x358 JUMP JUMPDEST DUP7 MLOAD PUSH4 0x70A08231 PUSH1 0xE0 SHL DUP2 MSTORE ADDRESS DUP5 DUP3 ADD MSTORE SWAP1 SWAP8 POP DUP4 DUP2 PUSH1 0x24 DUP2 DUP13 GAS STATICCALL SWAP1 DUP2 ISZERO PUSH2 0x492 JUMPI DUP11 SWAP2 PUSH2 0x453 JUMPI JUMPDEST POP PUSH1 0x0 DUP1 MLOAD PUSH1 0x20 PUSH2 0x1EC4 DUP4 CODECOPY DUP2 MLOAD SWAP2 MSTORE SWAP8 PUSH2 0x430 SWAP2 LT ISZERO PUSH2 0x1BDB JUMP JUMPDEST DUP4 DUP1 PUSH2 0x43E JUMPI JUMPDEST POP POP PUSH2 0x35C JUMP JUMPDEST PUSH2 0x44C SWAP2 PUSH1 0x1 SLOAD AND DUP10 PUSH2 0x1D41 JUMP JUMPDEST DUP9 DUP4 PUSH2 0x437 JUMP JUMPDEST SWAP1 POP DUP4 DUP2 DUP2 RETURNDATASIZE DUP4 GT PUSH2 0x48B JUMPI JUMPDEST PUSH2 0x46A DUP2 DUP4 PUSH2 0x1BA3 JUMP JUMPDEST DUP2 ADD SUB SLT PUSH2 0x487 JUMPI MLOAD PUSH1 0x0 DUP1 MLOAD PUSH1 0x20 PUSH2 0x1EC4 DUP4 CODECOPY DUP2 MLOAD SWAP2 MSTORE PUSH2 0x414 JUMP JUMPDEST DUP10 DUP1 REVERT JUMPDEST POP RETURNDATASIZE PUSH2 0x460 JUMP JUMPDEST DUP8 MLOAD RETURNDATASIZE DUP13 DUP3 RETURNDATACOPY RETURNDATASIZE SWAP1 REVERT JUMPDEST PUSH4 0x4E487B71 PUSH1 0xE0 SHL DUP7 MSTORE PUSH1 0x11 DUP8 MSTORE PUSH1 0x24 DUP7 REVERT JUMPDEST DUP6 PUSH1 0x84 SWAP2 DUP5 MLOAD SWAP2 PUSH3 0x461BCD PUSH1 0xE5 SHL DUP4 MSTORE DUP3 ADD MSTORE PUSH1 0x3C PUSH1 0x24 DUP3 ADD MSTORE PUSH1 0x0 DUP1 MLOAD PUSH1 0x20 PUSH2 0x1F04 DUP4 CODECOPY DUP2 MLOAD SWAP2 MSTORE PUSH1 0x44 DUP3 ADD MSTORE PUSH32 0x6374732063616E2061646420746F20706C6174666F726D20706F6F6C00000000 PUSH1 0x64 DUP3 ADD MSTORE REVERT JUMPDEST POP SWAP2 SWAP1 CALLVALUE PUSH2 0x2B4 JUMPI PUSH1 0xA0 CALLDATASIZE PUSH1 0x3 NOT ADD SLT PUSH2 0x2B4 JUMPI DUP3 CALLDATALOAD SWAP1 PUSH2 0x524 PUSH2 0x1A01 JUMP JUMPDEST PUSH1 0x1 PUSH1 0x1 PUSH1 0xA0 SHL SUB SWAP5 PUSH1 0x44 CALLDATALOAD DUP7 DUP2 AND SWAP3 SWAP1 DUP4 SWAP1 SUB PUSH2 0x68A JUMPI PUSH1 0x64 CALLDATALOAD SWAP5 PUSH1 0x84 CALLDATALOAD SWAP2 CALLER DUP9 MSTORE PUSH1 0x20 SWAP4 PUSH1 0x2 DUP6 MSTORE PUSH1 0xFF DUP8 DUP11 KECCAK256 SLOAD AND ISZERO PUSH2 0x63E JUMPI DUP8 ISZERO PUSH2 0x5FB JUMPI POP DUP8 SWAP9 DUP3 PUSH2 0x5F6 SWAP9 SWAP10 MSTORE PUSH1 0x8 DUP6 MSTORE DUP7 DUP11 KECCAK256 SWAP2 AND SWAP1 DUP2 DUP11 MSTORE DUP5 MSTORE DUP6 DUP10 KECCAK256 DUP6 DUP11 MSTORE DUP5 MSTORE DUP6 DUP10 KECCAK256 PUSH2 0x58F DUP10 DUP3 SLOAD PUSH2 0x1C40 JUMP JUMPDEST SWAP1 SSTORE DUP2 DUP10 MSTORE PUSH1 0xA DUP5 MSTORE DUP6 DUP10 KECCAK256 SWAP1 DUP10 MSTORE DUP4 MSTORE DUP5 DUP9 KECCAK256 DUP3 DUP10 MSTORE DUP4 MSTORE DUP5 DUP9 KECCAK256 PUSH2 0x5B6 DUP9 DUP3 SLOAD PUSH2 0x1C40 JUMP JUMPDEST SWAP1 SSTORE DUP1 DUP9 MSTORE PUSH1 0x5 DUP4 MSTORE DUP5 DUP9 KECCAK256 DUP5 DUP10 MSTORE DUP4 MSTORE DUP5 DUP9 KECCAK256 PUSH2 0x5D5 DUP9 DUP3 SLOAD PUSH2 0x1C40 JUMP JUMPDEST SWAP1 SSTORE DUP8 MSTORE PUSH1 0x6 DUP3 MSTORE DUP4 DUP8 KECCAK256 SWAP1 DUP8 MSTORE DUP2 MSTORE DUP3 DUP7 KECCAK256 SWAP2 DUP7 MSTORE MSTORE DUP4 KECCAK256 SWAP2 DUP3 SLOAD PUSH2 0x1C40 JUMP JUMPDEST SWAP1 SSTORE DUP1 RETURN JUMPDEST DUP7 MLOAD PUSH3 0x461BCD PUSH1 0xE5 SHL DUP2 MSTORE SWAP1 DUP2 ADD DUP6 SWAP1 MSTORE PUSH1 0x1C PUSH1 0x24 DUP3 ADD MSTORE PUSH32 0x54726561737572793A20496E76616C69642062657420616D6F756E7400000000 PUSH1 0x44 DUP3 ADD MSTORE PUSH1 0x64 SWAP1 REVERT JUMPDEST DUP7 MLOAD PUSH3 0x461BCD PUSH1 0xE5 SHL DUP2 MSTORE SWAP1 DUP2 ADD DUP6 SWAP1 MSTORE PUSH1 0x32 PUSH1 0x24 DUP3 ADD MSTORE PUSH1 0x0 DUP1 MLOAD PUSH1 0x20 PUSH2 0x1F04 DUP4 CODECOPY DUP2 MLOAD SWAP2 MSTORE PUSH1 0x44 DUP3 ADD MSTORE PUSH18 0x6374732063616E20706C6163652062657473 PUSH1 0x70 SHL PUSH1 0x64 DUP3 ADD MSTORE PUSH1 0x84 SWAP1 REVERT JUMPDEST DUP6 DUP1 REVERT JUMPDEST POP DUP3 SWAP1 CALLVALUE PUSH2 0x2B4 JUMPI PUSH1 0x20 CALLDATASIZE PUSH1 0x3 NOT ADD SLT PUSH2 0x2B4 JUMPI PUSH2 0x6AA PUSH2 0x19E6 JUMP JUMPDEST PUSH2 0x6B2 PUSH2 0x1AE3 JUMP JUMPDEST PUSH1 0x1 PUSH1 0x1 PUSH1 0xA0 SHL SUB SWAP1 DUP2 AND SWAP2 DUP3 ISZERO PUSH2 0x744 JUMPI POP DUP2 SWAP3 SWAP4 PUSH1 0x3 SLOAD SWAP1 DUP4 PUSH12 0xFFFFFFFFFFFFFFFFFFFFFFFF PUSH1 0xA0 SHL DUP4 AND OR PUSH1 0x3 SSTORE DUP4 DUP7 MSTORE PUSH1 0x2 PUSH1 0x20 MSTORE DUP6 KECCAK256 PUSH1 0x1 PUSH1 0xFF NOT DUP3 SLOAD AND OR SWAP1 SSTORE AND PUSH32 0x6D5236C24F887CEA37FD19D8FFFC6C47B564AF445BAF220A6C7F9A58BB6AE04E DUP5 DUP1 LOG3 PUSH32 0x8983A1F3C3CB45C24C8226B5B805E3B6EB49686530B808534B2A920129EFF651 DUP3 DUP1 LOG2 DUP1 RETURN JUMPDEST PUSH1 0x84 SWAP1 PUSH1 0x20 DUP7 MLOAD SWAP2 PUSH3 0x461BCD PUSH1 0xE5 SHL DUP4 MSTORE DUP3 ADD MSTORE PUSH1 0x28 PUSH1 0x24 DUP3 ADD MSTORE PUSH32 0x54726561737572793A20496E76616C6964206D61726B6574206D616E61676572 PUSH1 0x44 DUP3 ADD MSTORE PUSH8 0x2061646472657373 PUSH1 0xC0 SHL PUSH1 0x64 DUP3 ADD MSTORE REVERT JUMPDEST POP POP CALLVALUE PUSH2 0x2B4 JUMPI PUSH1 0x20 CALLDATASIZE PUSH1 0x3 NOT ADD SLT PUSH2 0x2B4 JUMPI PUSH1 0x20 SWAP2 PUSH1 0xFF SWAP1 DUP3 SWAP1 PUSH1 0x1 PUSH1 0x1 PUSH1 0xA0 SHL SUB PUSH2 0x7C3 PUSH2 0x19E6 JUMP JUMPDEST AND DUP2 MSTORE PUSH1 0x2 DUP6 MSTORE KECCAK256 SLOAD AND SWAP1 MLOAD SWAP1 ISZERO ISZERO DUP2 MSTORE RETURN JUMPDEST POP SWAP2 SWAP1 CALLVALUE PUSH2 0x2B4 JUMPI PUSH2 0x7E7 CALLDATASIZE PUSH2 0x1A4C JUMP JUMPDEST SWAP4 SWAP3 SWAP6 SWAP1 SWAP2 SWAP6 CALLER DUP7 MSTORE PUSH1 0x20 SWAP2 PUSH1 0x2 DUP4 MSTORE PUSH1 0xFF DUP6 DUP9 KECCAK256 SLOAD AND ISZERO PUSH2 0x89B JUMPI DUP6 ISZERO PUSH2 0x85A JUMPI POP DUP6 SWAP7 DUP2 PUSH2 0x5F6 SWAP7 SWAP8 MSTORE PUSH1 0x9 DUP4 MSTORE DUP5 DUP9 KECCAK256 PUSH1 0x1 DUP1 PUSH1 0xA0 SHL SUB DUP1 SWAP3 AND DUP10 MSTORE DUP4 MSTORE DUP5 DUP9 KECCAK256 SWAP4 AND SWAP3 DUP4 DUP9 MSTORE DUP3 MSTORE DUP4 DUP8 KECCAK256 PUSH2 0x841 DUP8 DUP3 SLOAD PUSH2 0x1C40 JUMP JUMPDEST SWAP1 SSTORE DUP7 MSTORE PUSH1 0x7 DUP2 MSTORE DUP3 DUP7 KECCAK256 SWAP2 DUP7 MSTORE MSTORE DUP4 KECCAK256 SWAP2 DUP3 SLOAD PUSH2 0x1C40 JUMP JUMPDEST PUSH1 0x64 SWAP1 DUP4 DUP1 DUP8 MLOAD SWAP3 PUSH3 0x461BCD PUSH1 0xE5 SHL DUP5 MSTORE DUP4 ADD MSTORE PUSH1 0x24 DUP3 ADD MSTORE PUSH32 0x54726561737572793A20496E76616C696420737570706F727420616D6F756E74 PUSH1 0x44 DUP3 ADD MSTORE REVERT JUMPDEST DUP5 MLOAD PUSH3 0x461BCD PUSH1 0xE5 SHL DUP2 MSTORE SWAP1 DUP2 ADD DUP4 SWAP1 MSTORE PUSH1 0x37 PUSH1 0x24 DUP3 ADD MSTORE PUSH1 0x0 DUP1 MLOAD PUSH1 0x20 PUSH2 0x1F04 DUP4 CODECOPY DUP2 MLOAD SWAP2 MSTORE PUSH1 0x44 DUP3 ADD MSTORE PUSH32 0x6374732063616E20737570706F7274206D61726B657473000000000000000000 PUSH1 0x64 DUP3 ADD MSTORE PUSH1 0x84 SWAP1 REVERT JUMPDEST POP POP CALLVALUE PUSH2 0x2B4 JUMPI DUP2 PUSH1 0x3 NOT CALLDATASIZE ADD SLT PUSH2 0x2B4 JUMPI PUSH1 0x1 SLOAD SWAP1 MLOAD PUSH1 0x1 PUSH1 0x1 PUSH1 0xA0 SHL SUB SWAP1 SWAP2 AND DUP2 MSTORE PUSH1 0x20 SWAP1 RETURN JUMPDEST POP POP CALLVALUE PUSH2 0x2B4 JUMPI DUP1 PUSH1 0x20 SWAP3 PUSH2 0x92F CALLDATASIZE PUSH2 0x1A17 JUMP JUMPDEST SWAP2 DUP4 MSTORE PUSH1 0x8 DUP7 MSTORE DUP4 DUP4 KECCAK256 PUSH1 0x1 PUSH1 0x1 PUSH1 0xA0 SHL SUB SWAP2 DUP3 AND DUP5 MSTORE DUP7 MSTORE DUP4 DUP4 KECCAK256 SWAP2 AND DUP3 MSTORE DUP5 MSTORE KECCAK256 SLOAD SWAP1 MLOAD SWAP1 DUP2 MSTORE RETURN JUMPDEST POP CALLVALUE PUSH2 0x272 JUMPI PUSH1 0x60 CALLDATASIZE PUSH1 0x3 NOT ADD SLT PUSH2 0x272 JUMPI PUSH1 0x20 SWAP3 DUP3 SWAP2 PUSH2 0x979 PUSH2 0x1A01 JUMP JUMPDEST SWAP1 CALLDATALOAD DUP3 MSTORE PUSH1 0xA DUP6 MSTORE DUP3 DUP3 KECCAK256 PUSH1 0x1 PUSH1 0x1 PUSH1 0xA0 SHL SUB SWAP1 SWAP2 AND DUP3 MSTORE DUP5 MSTORE DUP2 DUP2 KECCAK256 PUSH1 0x44 CALLDATALOAD DUP3 MSTORE DUP5 MSTORE KECCAK256 SLOAD SWAP1 MLOAD SWAP1 DUP2 MSTORE RETURN JUMPDEST POP CALLVALUE PUSH2 0x272 JUMPI PUSH1 0x20 CALLDATASIZE PUSH1 0x3 NOT ADD SLT PUSH2 0x272 JUMPI PUSH2 0x9C0 PUSH2 0x19E6 JUMP JUMPDEST SWAP1 PUSH2 0x9C9 PUSH2 0x1AE3 JUMP JUMPDEST PUSH1 0x1 PUSH1 0x1 PUSH1 0xA0 SHL SUB SWAP2 DUP3 AND SWAP3 DUP4 ISZERO PUSH2 0xA1F JUMPI POP POP PUSH1 0x1 SLOAD DUP3 PUSH12 0xFFFFFFFFFFFFFFFFFFFFFFFF PUSH1 0xA0 SHL DUP3 AND OR PUSH1 0x1 SSTORE AND PUSH32 0xC853BE2B3168A7FE00E46DA23214C5345A752DC61CD3300D7F255F8AE5534587 DUP4 DUP1 LOG3 DUP1 RETURN JUMPDEST SWAP1 PUSH1 0x20 PUSH1 0x84 SWAP3 MLOAD SWAP2 PUSH3 0x461BCD PUSH1 0xE5 SHL DUP4 MSTORE DUP3 ADD MSTORE PUSH1 0x21 PUSH1 0x24 DUP3 ADD MSTORE PUSH32 0x54726561737572793A20496E76616C696420706172746E657220616464726573 PUSH1 0x44 DUP3 ADD MSTORE PUSH1 0x73 PUSH1 0xF8 SHL PUSH1 0x64 DUP3 ADD MSTORE REVERT JUMPDEST POP POP CALLVALUE PUSH2 0x2B4 JUMPI DUP2 PUSH1 0x3 NOT CALLDATASIZE ADD SLT PUSH2 0x2B4 JUMPI SWAP1 SLOAD SWAP1 MLOAD PUSH1 0x1 PUSH1 0x1 PUSH1 0xA0 SHL SUB SWAP1 SWAP2 AND DUP2 MSTORE PUSH1 0x20 SWAP1 RETURN JUMPDEST POP CALLVALUE PUSH2 0x272 JUMPI DUP2 PUSH1 0x3 NOT CALLDATASIZE ADD SLT PUSH2 0x272 JUMPI PUSH1 0x20 SWAP3 DUP3 SWAP2 PUSH2 0xAB2 PUSH2 0x1A01 JUMP JUMPDEST SWAP1 CALLDATALOAD DUP3 MSTORE PUSH1 0x7 DUP6 MSTORE DUP3 DUP3 KECCAK256 PUSH1 0x1 PUSH1 0x1 PUSH1 0xA0 SHL SUB SWAP1 SWAP2 AND DUP3 MSTORE DUP5 MSTORE KECCAK256 SLOAD SWAP1 MLOAD SWAP1 DUP2 MSTORE RETURN JUMPDEST POP CALLVALUE PUSH2 0x272 JUMPI DUP2 PUSH1 0x3 NOT CALLDATASIZE ADD SLT PUSH2 0x272 JUMPI PUSH1 0x20 SWAP3 DUP3 SWAP2 PUSH2 0xAF3 PUSH2 0x1A01 JUMP JUMPDEST SWAP1 CALLDATALOAD DUP3 MSTORE PUSH1 0x5 DUP6 MSTORE DUP3 DUP3 KECCAK256 PUSH1 0x1 PUSH1 0x1 PUSH1 0xA0 SHL SUB SWAP1 SWAP2 AND DUP3 MSTORE DUP5 MSTORE KECCAK256 SLOAD SWAP1 MLOAD SWAP1 DUP2 MSTORE RETURN JUMPDEST DUP4 CALLVALUE PUSH2 0xB70 JUMPI DUP1 PUSH1 0x3 NOT CALLDATASIZE ADD SLT PUSH2 0xB70 JUMPI PUSH2 0xB2F PUSH2 0x1AE3 JUMP JUMPDEST DUP1 SLOAD PUSH1 0x1 PUSH1 0x1 PUSH1 0xA0 SHL SUB NOT DUP2 AND DUP3 SSTORE DUP2 SWAP1 PUSH1 0x1 PUSH1 0x1 PUSH1 0xA0 SHL SUB AND PUSH32 0x8BE0079C531659141344CD1FD0A4F28419497F9722A3DAAFE3B4186F6B6457E0 DUP3 DUP1 LOG3 DUP1 RETURN JUMPDEST DUP1 REVERT JUMPDEST POP DUP3 CALLVALUE PUSH2 0xB70 JUMPI PUSH1 0x20 DUP1 PUSH1 0x3 NOT CALLDATASIZE ADD SLT PUSH2 0x2B4 JUMPI DUP3 CALLDATALOAD SWAP2 PUSH8 0xFFFFFFFFFFFFFFFF DUP1 DUP5 GT PUSH2 0x2B4 JUMPI CALLDATASIZE PUSH1 0x23 DUP6 ADD SLT ISZERO PUSH2 0x2B4 JUMPI DUP4 DUP6 ADD CALLDATALOAD SWAP1 DUP2 GT PUSH2 0x2B4 JUMPI PUSH1 0x24 SWAP1 PUSH1 0x5 SWAP6 CALLDATASIZE DUP4 DUP4 DUP10 SHL DUP9 ADD ADD GT PUSH2 0xCB7 JUMPI PUSH2 0xBD2 DUP3 SWAP9 SWAP8 SWAP7 SWAP5 SWAP6 SWAP9 PUSH2 0x1EAB JUMP JUMPDEST SWAP4 PUSH2 0xBDF DUP9 MLOAD SWAP6 DUP7 PUSH2 0x1BA3 JUMP JUMPDEST DUP3 DUP6 MSTORE PUSH2 0xBEB DUP4 PUSH2 0x1EAB JUMP JUMPDEST DUP6 DUP11 ADD SWAP8 SWAP1 PUSH1 0x1F NOT ADD CALLDATASIZE DUP10 CALLDATACOPY DUP7 JUMPDEST DUP5 DUP2 LT PUSH2 0xC41 JUMPI POP POP POP POP POP POP DUP4 MLOAD SWAP5 DUP6 SWAP5 DUP2 DUP7 ADD SWAP3 DUP3 DUP8 MSTORE MLOAD DUP1 SWAP4 MSTORE DUP6 ADD SWAP4 SWAP3 JUMPDEST DUP3 DUP2 LT PUSH2 0xC2A JUMPI POP POP POP POP SUB SWAP1 RETURN JUMPDEST DUP4 MLOAD DUP6 MSTORE DUP7 SWAP6 POP SWAP4 DUP2 ADD SWAP4 SWAP3 DUP2 ADD SWAP3 PUSH1 0x1 ADD PUSH2 0xC1B JUMP JUMPDEST DUP1 DUP3 SWAP12 SWAP9 SWAP8 SWAP10 SWAP11 SWAP12 SHL DUP7 DUP2 DUP6 ADD ADD CALLDATALOAD PUSH1 0x1 DUP1 PUSH1 0xA0 SHL SUB DUP2 AND DUP1 SWAP2 SUB PUSH2 0xCB3 JUMPI DUP9 MSTORE DUP5 DUP10 MSTORE DUP12 DUP9 KECCAK256 SLOAD SWAP1 DUP11 MLOAD DUP4 LT ISZERO PUSH2 0xCA1 JUMPI DUP11 ADD DUP10 ADD MSTORE PUSH1 0x0 NOT DUP2 EQ PUSH2 0xC8F JUMPI PUSH1 0x1 ADD SWAP10 SWAP9 SWAP8 SWAP6 SWAP7 SWAP10 PUSH2 0xBF9 JUMP JUMPDEST PUSH4 0x4E487B71 PUSH1 0xE0 SHL DUP8 MSTORE PUSH1 0x11 DUP5 MSTORE DUP6 DUP8 REVERT JUMPDEST PUSH4 0x4E487B71 PUSH1 0xE0 SHL DUP10 MSTORE PUSH1 0x32 DUP7 MSTORE DUP8 DUP10 REVERT JUMPDEST DUP9 DUP1 REVERT JUMPDEST DUP4 DUP1 REVERT JUMPDEST POP POP CALLVALUE PUSH2 0x2B4 JUMPI PUSH1 0x20 CALLDATASIZE PUSH1 0x3 NOT ADD SLT PUSH2 0x2B4 JUMPI PUSH2 0xCD6 PUSH2 0x19E6 JUMP JUMPDEST PUSH2 0xCDE PUSH2 0x1AE3 JUMP JUMPDEST PUSH1 0x1 PUSH1 0x1 PUSH1 0xA0 SHL SUB AND DUP1 DUP4 MSTORE PUSH1 0x2 PUSH1 0x20 MSTORE SWAP1 DUP3 KECCAK256 DUP1 SLOAD PUSH1 0xFF NOT AND SWAP1 SSTORE PUSH32 0x54142B7CB3CEAA9E564243CE4CC2303723C842A1144192DE6B3C594F68B16A9A DUP3 DUP1 LOG2 DUP1 RETURN JUMPDEST POP CALLVALUE PUSH2 0x272 JUMPI PUSH1 0x20 CALLDATASIZE PUSH1 0x3 NOT ADD SLT PUSH2 0x272 JUMPI PUSH1 0x20 SWAP3 DUP3 SWAP2 PUSH1 0x1 PUSH1 0x1 PUSH1 0xA0 SHL SUB PUSH2 0xD48 PUSH2 0x19E6 JUMP JUMPDEST AND DUP3 MSTORE DUP5 MSTORE KECCAK256 SLOAD SWAP1 MLOAD SWAP1 DUP2 MSTORE RETURN JUMPDEST POP CALLVALUE PUSH2 0x272 JUMPI PUSH2 0xD65 CALLDATASIZE PUSH2 0x1A85 JUMP JUMPDEST SWAP2 SWAP4 PUSH2 0xD6F PUSH2 0x1AE3 JUMP JUMPDEST PUSH1 0x1 PUSH1 0x1 PUSH1 0xA0 SHL SUB DUP4 DUP2 AND SWAP6 DUP8 SWAP2 SWAP1 PUSH2 0xD89 DUP9 ISZERO ISZERO PUSH2 0x1DE3 JUMP JUMPDEST PUSH2 0xD94 DUP6 ISZERO ISZERO PUSH2 0x1B57 JUMP JUMPDEST AND SWAP5 DUP6 PUSH2 0xDEE JUMPI POP SWAP1 PUSH2 0xDE6 DUP3 DUP1 DUP1 DUP7 SWAP6 DUP7 PUSH32 0xE9171AEFF46C37AB955B8AFF908E14AE9732BD06634FA131226CFE5C25BFD2FB SWAP10 PUSH2 0xDD6 PUSH1 0x20 SWAP11 SELFBALANCE LT ISZERO PUSH2 0x1C4D JUMP JUMPDEST GAS CALL PUSH2 0xDE0 PUSH2 0x1CA4 JUMP JUMPDEST POP PUSH2 0x1E2F JUMP JUMPDEST MLOAD SWAP1 DUP2 MSTORE LOG3 DUP1 RETURN JUMPDEST SWAP1 POP DUP2 MLOAD SWAP1 PUSH4 0x70A08231 PUSH1 0xE0 SHL DUP3 MSTORE ADDRESS SWAP1 DUP3 ADD MSTORE PUSH1 0x20 DUP2 PUSH1 0x24 DUP2 DUP9 GAS STATICCALL SWAP1 DUP2 ISZERO PUSH2 0xE98 JUMPI DUP8 SWAP2 PUSH2 0xE5B JUMPI JUMPDEST POP SWAP1 PUSH2 0xE56 DUP4 PUSH32 0xE9171AEFF46C37AB955B8AFF908E14AE9732BD06634FA131226CFE5C25BFD2FB SWAP6 PUSH2 0xE50 DUP3 PUSH1 0x20 SWAP8 SWAP7 LT ISZERO PUSH2 0x1BDB JUMP JUMPDEST DUP8 PUSH2 0x1D41 JUMP JUMPDEST PUSH2 0xDE6 JUMP JUMPDEST SWAP3 SWAP2 SWAP1 POP PUSH1 0x20 DUP4 RETURNDATASIZE DUP3 GT PUSH2 0xE90 JUMPI JUMPDEST DUP2 PUSH2 0xE77 PUSH1 0x20 SWAP4 DUP4 PUSH2 0x1BA3 JUMP JUMPDEST DUP2 ADD SUB SLT PUSH2 0xE8C JUMPI SWAP2 MLOAD SWAP1 SWAP2 SWAP1 PUSH2 0xE56 PUSH2 0xE19 JUMP JUMPDEST DUP7 DUP1 REVERT JUMPDEST RETURNDATASIZE SWAP2 POP PUSH2 0xE6A JUMP JUMPDEST DUP3 MLOAD RETURNDATASIZE DUP10 DUP3 RETURNDATACOPY RETURNDATASIZE SWAP1 REVERT JUMPDEST POP SWAP1 CALLVALUE PUSH2 0x272 JUMPI PUSH1 0x20 CALLDATASIZE PUSH1 0x3 NOT ADD SLT PUSH2 0x272 JUMPI PUSH2 0xEBD PUSH2 0x19E6 JUMP JUMPDEST PUSH2 0xEC5 PUSH2 0x1AE3 JUMP JUMPDEST PUSH1 0x1 PUSH1 0x1 PUSH1 0xA0 SHL SUB AND SWAP2 DUP3 ISZERO PUSH2 0xF12 JUMPI POP DUP2 DUP4 MSTORE PUSH1 0x2 PUSH1 0x20 MSTORE DUP3 KECCAK256 DUP1 SLOAD PUSH1 0xFF NOT AND PUSH1 0x1 OR SWAP1 SSTORE PUSH32 0x8983A1F3C3CB45C24C8226B5B805E3B6EB49686530B808534B2A920129EFF651 DUP3 DUP1 LOG2 DUP1 RETURN JUMPDEST PUSH1 0x20 PUSH1 0x84 SWAP3 MLOAD SWAP2 PUSH3 0x461BCD PUSH1 0xE5 SHL DUP4 MSTORE DUP3 ADD MSTORE PUSH1 0x22 PUSH1 0x24 DUP3 ADD MSTORE PUSH32 0x54726561737572793A20496E76616C696420636F6E7472616374206164647265 PUSH1 0x44 DUP3 ADD MSTORE PUSH2 0x7373 PUSH1 0xF0 SHL PUSH1 0x64 DUP3 ADD MSTORE REVERT JUMPDEST POP CALLVALUE PUSH2 0x272 JUMPI PUSH2 0xF6E CALLDATASIZE PUSH2 0x1A85 JUMP JUMPDEST SWAP2 SWAP4 SWAP1 SWAP3 PUSH2 0xF7A PUSH2 0x1AE3 JUMP JUMPDEST PUSH1 0x1 PUSH1 0x1 PUSH1 0xA0 SHL SUB DUP4 DUP2 AND SWAP6 PUSH2 0xF91 DUP8 ISZERO ISZERO PUSH2 0x1DE3 JUMP JUMPDEST PUSH2 0xF9C DUP7 ISZERO ISZERO PUSH2 0x1B57 JUMP JUMPDEST AND SWAP5 DUP6 DUP8 MSTORE PUSH1 0x20 SWAP4 DUP3 DUP6 MSTORE DUP6 DUP5 DUP10 KECCAK256 SLOAD LT PUSH2 0x1153 JUMPI DUP8 DUP8 SWAP2 DUP3 DUP3 MSTORE DUP5 DUP8 MSTORE DUP6 DUP3 KECCAK256 PUSH2 0xFC8 DUP10 DUP3 SLOAD PUSH2 0x1C33 JUMP JUMPDEST SWAP1 SSTORE DUP3 PUSH2 0x1065 JUMPI SWAP2 PUSH32 0xD40D374FECC4DCA2567CC5AB864D037F0CD1F1E9BDA38C23AFF691CD74629E0 DUP8 DUP10 PUSH2 0x101F DUP6 DUP1 DUP1 PUSH1 0x80 SWAP14 SWAP13 SWAP11 SWAP9 PUSH1 0x0 DUP1 MLOAD PUSH1 0x20 PUSH2 0x1EE4 DUP4 CODECOPY DUP2 MLOAD SWAP2 MSTORE SWAP16 PUSH1 0x19 SWAP14 SWAP12 PUSH2 0xDD6 DUP3 SELFBALANCE LT ISZERO PUSH2 0x1C4D JUMP JUMPDEST DUP7 MLOAD SWAP1 DUP2 MSTORE LOG3 DUP7 DUP9 MSTORE DUP4 MSTORE DUP1 DUP1 DUP9 KECCAK256 SLOAD SWAP4 DUP2 MLOAD SWAP5 DUP6 MSTORE DUP5 ADD MSTORE DUP3 ADD MSTORE PUSH32 0x506C6174666F726D2066756E6473207769746864726177616C00000000000000 PUSH1 0x60 DUP3 ADD MSTORE LOG2 DUP1 RETURN JUMPDEST SWAP2 POP POP DUP4 MLOAD PUSH4 0x70A08231 PUSH1 0xE0 SHL DUP2 MSTORE ADDRESS DUP5 DUP3 ADD MSTORE DUP6 DUP2 PUSH1 0x24 DUP2 DUP12 GAS STATICCALL SWAP1 DUP2 ISZERO PUSH2 0x1149 JUMPI SWAP1 DUP9 SWAP3 SWAP2 DUP11 SWAP2 PUSH2 0x10EB JUMPI JUMPDEST POP SWAP2 PUSH32 0xD40D374FECC4DCA2567CC5AB864D037F0CD1F1E9BDA38C23AFF691CD74629E0 DUP8 DUP10 PUSH2 0x10E6 DUP2 PUSH1 0x80 SWAP12 SWAP11 SWAP9 SWAP7 PUSH2 0x10E0 PUSH1 0x0 DUP1 MLOAD PUSH1 0x20 PUSH2 0x1EE4 DUP4 CODECOPY DUP2 MLOAD SWAP2 MSTORE SWAP15 PUSH1 0x19 SWAP13 SWAP11 LT ISZERO PUSH2 0x1BDB JUMP JUMPDEST DUP7 PUSH2 0x1D41 JUMP JUMPDEST PUSH2 0x101F JUMP JUMPDEST DUP1 SWAP6 SWAP4 POP DUP8 DUP1 SWAP8 SWAP6 SWAP4 SWAP9 SWAP3 POP RETURNDATASIZE DUP4 GT PUSH2 0x1142 JUMPI JUMPDEST PUSH2 0x1109 DUP2 DUP4 PUSH2 0x1BA3 JUMP JUMPDEST DUP2 ADD SUB SLT PUSH2 0xCB3 JUMPI SWAP3 MLOAD SWAP4 SWAP5 SWAP2 SWAP4 SWAP1 SWAP3 SWAP2 DUP8 SWAP2 PUSH32 0xD40D374FECC4DCA2567CC5AB864D037F0CD1F1E9BDA38C23AFF691CD74629E0 PUSH2 0x1093 JUMP JUMPDEST POP RETURNDATASIZE PUSH2 0x10FF JUMP JUMPDEST DUP6 MLOAD RETURNDATASIZE DUP12 DUP3 RETURNDATACOPY RETURNDATASIZE SWAP1 REVERT JUMPDEST DUP4 MLOAD PUSH3 0x461BCD PUSH1 0xE5 SHL DUP2 MSTORE DUP1 DUP5 ADD DUP7 SWAP1 MSTORE PUSH1 0x2C PUSH1 0x24 DUP3 ADD MSTORE PUSH32 0x54726561737572793A20496E73756666696369656E7420706C6174666F726D20 PUSH1 0x44 DUP3 ADD MSTORE PUSH12 0x706F6F6C2062616C616E6365 PUSH1 0xA0 SHL PUSH1 0x64 DUP3 ADD MSTORE PUSH1 0x84 SWAP1 REVERT JUMPDEST POP DUP3 SWAP1 CALLVALUE PUSH2 0x2B4 JUMPI PUSH2 0x11BC CALLDATASIZE PUSH2 0x1A4C JUMP JUMPDEST SWAP3 SWAP6 SWAP1 SWAP4 CALLER DUP7 MSTORE PUSH1 0x20 PUSH1 0x2 DUP2 MSTORE PUSH1 0xFF DUP4 DUP9 KECCAK256 SLOAD AND ISZERO PUSH2 0x12B6 JUMPI DUP5 ISZERO PUSH2 0x126C JUMPI DUP8 DUP8 MSTORE PUSH1 0xB DUP2 MSTORE DUP3 DUP8 KECCAK256 PUSH1 0x1 PUSH1 0x1 PUSH1 0xA0 SHL SUB DUP6 AND DUP1 DUP10 MSTORE SWAP1 DUP3 MSTORE DUP4 DUP9 KECCAK256 SLOAD SWAP1 SWAP3 SWAP1 PUSH1 0xFF AND PUSH2 0x122B JUMPI POP DUP7 SWAP8 PUSH2 0x1228 SWAP8 MSTORE PUSH1 0xB DUP2 MSTORE DUP3 DUP9 KECCAK256 SWAP2 DUP9 MSTORE MSTORE DUP6 KECCAK256 PUSH1 0x1 PUSH1 0xFF NOT DUP3 SLOAD AND OR SWAP1 SSTORE PUSH2 0x1E7B JUMP JUMPDEST DUP1 RETURN JUMPDEST PUSH1 0x64 SWAP2 DUP5 MLOAD SWAP2 PUSH3 0x461BCD PUSH1 0xE5 SHL DUP4 MSTORE DUP3 ADD MSTORE PUSH1 0x19 PUSH1 0x24 DUP3 ADD MSTORE PUSH32 0x54726561737572793A20416C726561647920636C61696D656400000000000000 PUSH1 0x44 DUP3 ADD MSTORE REVERT JUMPDEST PUSH1 0x84 SWAP3 MLOAD SWAP2 PUSH3 0x461BCD PUSH1 0xE5 SHL DUP4 MSTORE DUP3 ADD MSTORE PUSH1 0x21 PUSH1 0x24 DUP3 ADD MSTORE PUSH32 0x54726561737572793A20496E76616C69642077696E6E696E677320616D6F756E PUSH1 0x44 DUP3 ADD MSTORE PUSH1 0x1D PUSH1 0xFA SHL PUSH1 0x64 DUP3 ADD MSTORE REVERT JUMPDEST PUSH1 0x84 SWAP3 MLOAD SWAP2 PUSH3 0x461BCD PUSH1 0xE5 SHL DUP4 MSTORE DUP3 ADD MSTORE PUSH1 0x36 PUSH1 0x24 DUP3 ADD MSTORE PUSH1 0x0 DUP1 MLOAD PUSH1 0x20 PUSH2 0x1F04 DUP4 CODECOPY DUP2 MLOAD SWAP2 MSTORE PUSH1 0x44 DUP3 ADD MSTORE PUSH22 0x6374732063616E20636C61696D2077696E6E696E6773 PUSH1 0x50 SHL PUSH1 0x64 DUP3 ADD MSTORE REVERT JUMPDEST POP CALLVALUE PUSH2 0x272 JUMPI DUP2 PUSH1 0x3 NOT CALLDATASIZE ADD SLT PUSH2 0x272 JUMPI DUP2 PUSH1 0x20 SWAP4 PUSH1 0xFF SWAP3 PUSH2 0x1323 PUSH2 0x1A01 JUMP JUMPDEST SWAP1 CALLDATALOAD DUP3 MSTORE PUSH1 0xC DUP7 MSTORE DUP3 DUP3 KECCAK256 PUSH1 0x1 PUSH1 0x1 PUSH1 0xA0 SHL SUB SWAP1 SWAP2 AND DUP3 MSTORE DUP6 MSTORE KECCAK256 SLOAD SWAP2 MLOAD SWAP2 AND ISZERO ISZERO DUP2 MSTORE RETURN JUMPDEST POP DUP3 SWAP1 CALLVALUE PUSH2 0x2B4 JUMPI PUSH2 0x135A CALLDATASIZE PUSH2 0x1A4C JUMP JUMPDEST SWAP3 POP SWAP3 CALLER DUP6 MSTORE PUSH1 0x2 PUSH1 0x20 MSTORE PUSH1 0xFF DUP7 DUP7 KECCAK256 SLOAD AND ISZERO PUSH2 0x13C6 JUMPI DUP3 ISZERO PUSH2 0x1383 JUMPI POP PUSH2 0x1228 SWAP4 SWAP5 POP PUSH2 0x1E7B JUMP JUMPDEST PUSH1 0x64 SWAP1 PUSH1 0x20 DUP8 MLOAD SWAP2 PUSH3 0x461BCD PUSH1 0xE5 SHL DUP4 MSTORE DUP3 ADD MSTORE PUSH1 0x1F PUSH1 0x24 DUP3 ADD MSTORE PUSH32 0x54726561737572793A20496E76616C696420726566756E6420616D6F756E7400 PUSH1 0x44 DUP3 ADD MSTORE REVERT JUMPDEST PUSH1 0x84 SWAP1 PUSH1 0x20 DUP8 MLOAD SWAP2 PUSH3 0x461BCD PUSH1 0xE5 SHL DUP4 MSTORE DUP3 ADD MSTORE PUSH1 0x35 PUSH1 0x24 DUP3 ADD MSTORE PUSH1 0x0 DUP1 MLOAD PUSH1 0x20 PUSH2 0x1F04 DUP4 CODECOPY DUP2 MLOAD SWAP2 MSTORE PUSH1 0x44 DUP3 ADD MSTORE PUSH21 0x6374732063616E20636C61696D20726566756E6473 PUSH1 0x58 SHL PUSH1 0x64 DUP3 ADD MSTORE REVERT JUMPDEST POP POP CALLVALUE PUSH2 0x2B4 JUMPI DUP2 PUSH1 0x3 NOT CALLDATASIZE ADD SLT PUSH2 0x2B4 JUMPI PUSH1 0x20 SWAP1 MLOAD PUSH2 0x1F4 DUP2 MSTORE RETURN JUMPDEST POP DUP3 CALLVALUE PUSH2 0xB70 JUMPI PUSH1 0x20 CALLDATASIZE PUSH1 0x3 NOT ADD SLT PUSH2 0xB70 JUMPI POP PUSH2 0x1450 SWAP1 CALLDATALOAD PUSH2 0x1B0F JUMP JUMPDEST DUP3 MLOAD SWAP2 DUP3 MSTORE PUSH1 0x20 DUP3 ADD MSTORE RETURN JUMPDEST POP SWAP2 SWAP1 CALLVALUE PUSH2 0x2B4 JUMPI DUP1 PUSH1 0x3 NOT CALLDATASIZE ADD SLT PUSH2 0x2B4 JUMPI PUSH2 0x1477 PUSH2 0x19E6 JUMP JUMPDEST SWAP1 PUSH1 0x24 CALLDATALOAD SWAP2 CALLER DUP5 MSTORE PUSH1 0x20 SWAP5 PUSH1 0x2 DUP7 MSTORE PUSH1 0xFF DUP4 DUP7 KECCAK256 SLOAD AND ISZERO PUSH2 0x163B JUMPI DUP5 SWAP6 PUSH2 0x14A1 DUP6 SWAP7 SWAP6 ISZERO ISZERO PUSH2 0x1B57 JUMP JUMPDEST PUSH2 0x14AA DUP7 PUSH2 0x1B0F JUMP JUMPDEST PUSH1 0x1 PUSH1 0x1 PUSH1 0xA0 SHL SUB SWAP5 DUP6 AND SWAP8 SWAP2 SWAP5 SWAP1 SWAP4 SWAP2 DUP9 PUSH2 0x1593 JUMPI SWAP7 DUP5 SWAP2 PUSH2 0x14DE PUSH1 0x0 DUP1 MLOAD PUSH1 0x20 PUSH2 0x1EC4 DUP4 CODECOPY DUP2 MLOAD SWAP2 MSTORE SWAP10 SELFBALANCE LT ISZERO PUSH2 0x1C4D JUMP JUMPDEST DUP3 PUSH2 0x1575 JUMPI JUMPDEST POP POP PUSH2 0x14F0 SWAP1 DUP6 PUSH2 0x1C33 JUMP JUMPDEST SWAP1 DUP8 DUP10 MSTORE DUP3 MSTORE PUSH2 0x1504 DUP6 DUP10 KECCAK256 SWAP2 DUP3 SLOAD PUSH2 0x1C40 JUMP JUMPDEST SWAP1 SSTORE DUP6 PUSH1 0x0 DUP1 MLOAD PUSH1 0x20 PUSH2 0x1EE4 DUP4 CODECOPY DUP2 MLOAD SWAP2 MSTORE PUSH2 0x1566 PUSH2 0x1523 DUP6 DUP8 PUSH2 0x1C33 JUMP JUMPDEST DUP8 MLOAD SWAP2 DUP3 SWAP2 DUP3 PUSH1 0x80 SWAP2 DUP2 MSTORE PUSH1 0x40 PUSH1 0x20 DUP3 ADD MSTORE PUSH1 0x18 PUSH1 0x40 DUP3 ADD MSTORE PUSH32 0x526567756C61722066656520646973747269627574696F6E0000000000000000 PUSH1 0x60 DUP3 ADD MSTORE ADD SWAP1 JUMP JUMPDEST SUB SWAP1 LOG2 DUP4 MLOAD SWAP3 DUP4 MSTORE DUP3 ADD MSTORE LOG2 DUP1 RETURN JUMPDEST DUP2 DUP1 PUSH2 0x158B SWAP5 DUP2 SWAP4 PUSH1 0x1 SLOAD AND GAS CALL PUSH2 0x3DC PUSH2 0x1CA4 JUMP JUMPDEST DUP3 DUP9 CODESIZE PUSH2 0x14E4 JUMP JUMPDEST DUP7 MLOAD PUSH4 0x70A08231 PUSH1 0xE0 SHL DUP2 MSTORE ADDRESS DUP5 DUP3 ADD MSTORE SWAP1 SWAP8 POP DUP4 DUP2 PUSH1 0x24 DUP2 DUP13 GAS STATICCALL SWAP1 DUP2 ISZERO PUSH2 0x492 JUMPI DUP11 SWAP2 PUSH2 0x1600 JUMPI JUMPDEST POP PUSH1 0x0 DUP1 MLOAD PUSH1 0x20 PUSH2 0x1EC4 DUP4 CODECOPY DUP2 MLOAD SWAP2 MSTORE SWAP8 PUSH2 0x15D9 SWAP2 LT ISZERO PUSH2 0x1BDB JUMP JUMPDEST DUP4 DUP1 PUSH2 0x15EB JUMPI JUMPDEST PUSH2 0x14F0 SWAP2 POP DUP6 PUSH2 0x1C33 JUMP JUMPDEST PUSH2 0x15F9 SWAP2 PUSH1 0x1 SLOAD AND DUP10 PUSH2 0x1D41 JUMP JUMPDEST CODESIZE DUP4 PUSH2 0x15E0 JUMP JUMPDEST SWAP1 POP DUP4 DUP2 DUP2 RETURNDATASIZE DUP4 GT PUSH2 0x1634 JUMPI JUMPDEST PUSH2 0x1617 DUP2 DUP4 PUSH2 0x1BA3 JUMP JUMPDEST DUP2 ADD SUB SLT PUSH2 0x487 JUMPI MLOAD PUSH1 0x0 DUP1 MLOAD PUSH1 0x20 PUSH2 0x1EC4 DUP4 CODECOPY DUP2 MLOAD SWAP2 MSTORE PUSH2 0x15BD JUMP JUMPDEST POP RETURNDATASIZE PUSH2 0x160D JUMP JUMPDEST DUP3 MLOAD PUSH3 0x461BCD PUSH1 0xE5 SHL DUP2 MSTORE SWAP1 DUP2 ADD DUP7 SWAP1 MSTORE PUSH1 0x37 PUSH1 0x24 DUP3 ADD MSTORE PUSH1 0x0 DUP1 MLOAD PUSH1 0x20 PUSH2 0x1F04 DUP4 CODECOPY DUP2 MLOAD SWAP2 MSTORE PUSH1 0x44 DUP3 ADD MSTORE PUSH32 0x6374732063616E20646973747269627574652066656573000000000000000000 PUSH1 0x64 DUP3 ADD MSTORE PUSH1 0x84 SWAP1 REVERT JUMPDEST POP POP CALLVALUE PUSH2 0x2B4 JUMPI DUP2 PUSH1 0x3 NOT CALLDATASIZE ADD SLT PUSH2 0x2B4 JUMPI PUSH1 0x20 SWAP1 MLOAD PUSH1 0x64 DUP2 MSTORE RETURN JUMPDEST POP POP CALLVALUE PUSH2 0x2B4 JUMPI DUP2 PUSH1 0x3 NOT CALLDATASIZE ADD SLT PUSH2 0x2B4 JUMPI PUSH1 0x3 SLOAD SWAP1 MLOAD PUSH1 0x1 PUSH1 0x1 PUSH1 0xA0 SHL SUB SWAP1 SWAP2 AND DUP2 MSTORE PUSH1 0x20 SWAP1 RETURN JUMPDEST POP CALLVALUE PUSH2 0x272 JUMPI DUP2 PUSH1 0x3 NOT CALLDATASIZE ADD SLT PUSH2 0x272 JUMPI DUP2 PUSH1 0x20 SWAP4 PUSH1 0xFF SWAP3 PUSH2 0x16F7 PUSH2 0x1A01 JUMP JUMPDEST SWAP1 CALLDATALOAD DUP3 MSTORE PUSH1 0xB DUP7 MSTORE DUP3 DUP3 KECCAK256 PUSH1 0x1 PUSH1 0x1 PUSH1 0xA0 SHL SUB SWAP1 SWAP2 AND DUP3 MSTORE DUP6 MSTORE KECCAK256 SLOAD SWAP2 MLOAD SWAP2 AND ISZERO ISZERO DUP2 MSTORE RETURN JUMPDEST POP DUP3 SWAP1 CALLVALUE PUSH2 0x2B4 JUMPI PUSH1 0x20 SWAP2 DUP3 PUSH1 0x3 NOT CALLDATASIZE ADD SLT PUSH2 0xB70 JUMPI PUSH2 0x173B PUSH2 0x19E6 JUMP JUMPDEST PUSH1 0x1 PUSH1 0x1 PUSH1 0xA0 SHL SUB AND DUP1 DUP3 MSTORE DUP3 DUP5 MSTORE DUP5 DUP3 KECCAK256 SLOAD SWAP3 DUP5 SWAP1 DUP3 PUSH2 0x1767 JUMPI POP POP POP POP SELFBALANCE SWAP2 JUMPDEST DUP4 MLOAD SWAP3 DUP4 MSTORE DUP3 ADD MSTORE RETURN JUMPDEST PUSH1 0x24 DUP8 MLOAD DUP1 SWAP5 DUP2 SWAP4 PUSH4 0x70A08231 PUSH1 0xE0 SHL DUP4 MSTORE ADDRESS SWAP1 DUP4 ADD MSTORE GAS STATICCALL SWAP2 DUP3 ISZERO PUSH2 0x17C6 JUMPI DUP1 SWAP3 PUSH2 0x1796 JUMPI JUMPDEST POP POP SWAP2 PUSH2 0x175D JUMP JUMPDEST SWAP1 SWAP2 POP DUP4 DUP3 DUP2 RETURNDATASIZE DUP4 GT PUSH2 0x17BF JUMPI JUMPDEST PUSH2 0x17AE DUP2 DUP4 PUSH2 0x1BA3 JUMP JUMPDEST DUP2 ADD SUB SLT PUSH2 0xB70 JUMPI POP MLOAD DUP5 DUP1 PUSH2 0x178E JUMP JUMPDEST POP RETURNDATASIZE PUSH2 0x17A4 JUMP JUMPDEST DUP6 MLOAD SWAP1 RETURNDATASIZE SWAP1 DUP3 RETURNDATACOPY RETURNDATASIZE SWAP1 REVERT JUMPDEST POP POP CALLVALUE PUSH2 0x2B4 JUMPI DUP1 PUSH1 0x20 SWAP3 PUSH2 0x17E5 CALLDATASIZE PUSH2 0x1A17 JUMP JUMPDEST SWAP2 DUP4 MSTORE PUSH1 0x9 DUP7 MSTORE DUP4 DUP4 KECCAK256 PUSH1 0x1 PUSH1 0x1 PUSH1 0xA0 SHL SUB SWAP2 DUP3 AND DUP5 MSTORE DUP7 MSTORE DUP4 DUP4 KECCAK256 SWAP2 AND DUP3 MSTORE DUP5 MSTORE KECCAK256 SLOAD SWAP1 MLOAD SWAP1 DUP2 MSTORE RETURN JUMPDEST POP DUP3 SWAP1 CALLVALUE PUSH2 0x2B4 JUMPI PUSH2 0x1821 CALLDATASIZE PUSH2 0x1A4C JUMP JUMPDEST SWAP3 SWAP6 SWAP1 SWAP4 CALLER DUP7 MSTORE PUSH1 0x20 PUSH1 0x2 DUP2 MSTORE PUSH1 0xFF DUP4 DUP9 KECCAK256 SLOAD AND ISZERO PUSH2 0x195E JUMPI DUP5 ISZERO PUSH2 0x1912 JUMPI DUP8 DUP8 MSTORE PUSH1 0x9 DUP2 MSTORE DUP3 DUP8 KECCAK256 SWAP8 PUSH1 0x1 DUP1 PUSH1 0xA0 SHL SUB SWAP3 DUP4 DUP7 AND SWAP10 DUP11 DUP11 MSTORE DUP4 MSTORE DUP5 DUP10 KECCAK256 SWAP4 DUP9 AND SWAP4 DUP5 DUP11 MSTORE DUP4 MSTORE DUP7 DUP6 DUP11 KECCAK256 SLOAD LT PUSH2 0x18C0 JUMPI POP DUP8 SWAP9 DUP2 PUSH2 0x1228 SWAP10 MSTORE PUSH1 0x9 DUP4 MSTORE DUP5 DUP11 KECCAK256 SWAP1 DUP11 MSTORE DUP3 MSTORE DUP4 DUP10 KECCAK256 DUP4 DUP11 MSTORE DUP3 MSTORE DUP4 DUP10 KECCAK256 PUSH2 0x189D DUP8 DUP3 SLOAD PUSH2 0x1C33 JUMP JUMPDEST SWAP1 SSTORE DUP9 MSTORE PUSH1 0x7 DUP2 MSTORE DUP3 DUP9 KECCAK256 SWAP2 DUP9 MSTORE MSTORE DUP6 KECCAK256 PUSH2 0x18B9 DUP4 DUP3 SLOAD PUSH2 0x1C33 JUMP JUMPDEST SWAP1 SSTORE PUSH2 0x1E7B JUMP JUMPDEST DUP5 MLOAD PUSH3 0x461BCD PUSH1 0xE5 SHL DUP2 MSTORE SWAP1 DUP2 ADD DUP4 SWAP1 MSTORE PUSH1 0x26 PUSH1 0x24 DUP3 ADD MSTORE PUSH32 0x54726561737572793A20496E73756666696369656E7420737570706F72742062 PUSH1 0x44 DUP3 ADD MSTORE PUSH6 0x616C616E6365 PUSH1 0xD0 SHL PUSH1 0x64 DUP3 ADD MSTORE PUSH1 0x84 SWAP1 REVERT JUMPDEST PUSH1 0x84 SWAP3 MLOAD SWAP2 PUSH3 0x461BCD PUSH1 0xE5 SHL DUP4 MSTORE DUP3 ADD MSTORE PUSH1 0x23 PUSH1 0x24 DUP3 ADD MSTORE PUSH32 0x54726561737572793A20496E76616C6964207769746864726177616C20616D6F PUSH1 0x44 DUP3 ADD MSTORE PUSH3 0x1D5B9D PUSH1 0xEA SHL PUSH1 0x64 DUP3 ADD MSTORE REVERT JUMPDEST PUSH1 0x84 SWAP3 MLOAD SWAP2 PUSH3 0x461BCD PUSH1 0xE5 SHL DUP4 MSTORE DUP3 ADD MSTORE PUSH1 0x38 PUSH1 0x24 DUP3 ADD MSTORE PUSH1 0x0 DUP1 MLOAD PUSH1 0x20 PUSH2 0x1F04 DUP4 CODECOPY DUP2 MLOAD SWAP2 MSTORE PUSH1 0x44 DUP3 ADD MSTORE PUSH32 0x6374732063616E20776974686472617720737570706F72740000000000000000 PUSH1 0x64 DUP3 ADD MSTORE REVERT JUMPDEST SWAP3 SWAP2 SWAP1 POP CALLVALUE PUSH2 0xCB7 JUMPI PUSH1 0x20 CALLDATASIZE PUSH1 0x3 NOT ADD SLT PUSH2 0xCB7 JUMPI PUSH1 0x20 SWAP4 SWAP1 PUSH1 0x1 PUSH1 0x1 PUSH1 0xA0 SHL SUB PUSH2 0x19DB PUSH2 0x19E6 JUMP JUMPDEST AND DUP3 MSTORE DUP5 MSTORE KECCAK256 SLOAD DUP2 MSTORE RETURN JUMPDEST PUSH1 0x4 CALLDATALOAD SWAP1 PUSH1 0x1 PUSH1 0x1 PUSH1 0xA0 SHL SUB DUP3 AND DUP3 SUB PUSH2 0x19FC JUMPI JUMP JUMPDEST PUSH1 0x0 DUP1 REVERT JUMPDEST PUSH1 0x24 CALLDATALOAD SWAP1 PUSH1 0x1 PUSH1 0x1 PUSH1 0xA0 SHL SUB DUP3 AND DUP3 SUB PUSH2 0x19FC JUMPI JUMP JUMPDEST PUSH1 0x60 SWAP1 PUSH1 0x3 NOT ADD SLT PUSH2 0x19FC JUMPI PUSH1 0x4 CALLDATALOAD SWAP1 PUSH1 0x1 PUSH1 0x1 PUSH1 0xA0 SHL SUB SWAP1 PUSH1 0x24 CALLDATALOAD DUP3 DUP2 AND DUP2 SUB PUSH2 0x19FC JUMPI SWAP2 PUSH1 0x44 CALLDATALOAD SWAP1 DUP2 AND DUP2 SUB PUSH2 0x19FC JUMPI SWAP1 JUMP JUMPDEST PUSH1 0x80 SWAP1 PUSH1 0x3 NOT ADD SLT PUSH2 0x19FC JUMPI PUSH1 0x4 CALLDATALOAD SWAP1 PUSH1 0x1 PUSH1 0x1 PUSH1 0xA0 SHL SUB SWAP1 PUSH1 0x24 CALLDATALOAD DUP3 DUP2 AND DUP2 SUB PUSH2 0x19FC JUMPI SWAP2 PUSH1 0x44 CALLDATALOAD SWAP1 DUP2 AND DUP2 SUB PUSH2 0x19FC JUMPI SWAP1 PUSH1 0x64 CALLDATALOAD SWAP1 JUMP JUMPDEST PUSH1 0x60 SWAP1 PUSH1 0x3 NOT ADD SLT PUSH2 0x19FC JUMPI PUSH1 0x1 PUSH1 0x1 PUSH1 0xA0 SHL SUB PUSH1 0x4 CALLDATALOAD DUP2 DUP2 AND DUP2 SUB PUSH2 0x19FC JUMPI SWAP2 PUSH1 0x24 CALLDATALOAD SWAP2 PUSH1 0x44 CALLDATALOAD SWAP1 DUP2 AND DUP2 SUB PUSH2 0x19FC JUMPI SWAP1 JUMP JUMPDEST PUSH1 0x60 SWAP1 PUSH1 0x3 NOT ADD SLT PUSH2 0x19FC JUMPI PUSH1 0x4 CALLDATALOAD SWAP1 PUSH1 0x24 CALLDATALOAD SWAP1 PUSH1 0x44 CALLDATALOAD PUSH1 0x1 PUSH1 0x1 PUSH1 0xA0 SHL SUB DUP2 AND DUP2 SUB PUSH2 0x19FC JUMPI SWAP1 JUMP JUMPDEST PUSH1 0x0 SLOAD PUSH1 0x1 PUSH1 0x1 PUSH1 0xA0 SHL SUB AND CALLER SUB PUSH2 0x1AF7 JUMPI JUMP JUMPDEST PUSH1 0x40 MLOAD PUSH4 0x118CDAA7 PUSH1 0xE0 SHL DUP2 MSTORE CALLER PUSH1 0x4 DUP3 ADD MSTORE PUSH1 0x24 SWAP1 REVERT JUMPDEST SWAP1 PUSH2 0x1F4 SWAP2 DUP3 DUP2 MUL SWAP3 DUP2 DUP5 DIV EQ SWAP1 ISZERO OR ISZERO PUSH2 0x1B41 JUMPI PUSH2 0x2710 DUP1 SWAP3 DIV SWAP2 PUSH1 0x64 DUP4 MUL DUP4 DUP2 DIV PUSH1 0x64 EQ DUP5 ISZERO OR ISZERO PUSH2 0x1B41 JUMPI DIV SWAP1 JUMP JUMPDEST PUSH4 0x4E487B71 PUSH1 0xE0 SHL PUSH1 0x0 MSTORE PUSH1 0x11 PUSH1 0x4 MSTORE PUSH1 0x24 PUSH1 0x0 REVERT JUMPDEST ISZERO PUSH2 0x1B5E JUMPI JUMP JUMPDEST PUSH1 0x40 MLOAD PUSH3 0x461BCD PUSH1 0xE5 SHL DUP2 MSTORE PUSH1 0x20 PUSH1 0x4 DUP3 ADD MSTORE PUSH1 0x18 PUSH1 0x24 DUP3 ADD MSTORE PUSH32 0x54726561737572793A20496E76616C696420616D6F756E740000000000000000 PUSH1 0x44 DUP3 ADD MSTORE PUSH1 0x64 SWAP1 REVERT JUMPDEST SWAP1 PUSH1 0x1F DUP1 NOT SWAP2 ADD AND DUP2 ADD SWAP1 DUP2 LT PUSH8 0xFFFFFFFFFFFFFFFF DUP3 GT OR PUSH2 0x1BC5 JUMPI PUSH1 0x40 MSTORE JUMP JUMPDEST PUSH4 0x4E487B71 PUSH1 0xE0 SHL PUSH1 0x0 MSTORE PUSH1 0x41 PUSH1 0x4 MSTORE PUSH1 0x24 PUSH1 0x0 REVERT JUMPDEST ISZERO PUSH2 0x1BE2 JUMPI JUMP JUMPDEST PUSH1 0x40 MLOAD PUSH3 0x461BCD PUSH1 0xE5 SHL DUP2 MSTORE PUSH1 0x20 PUSH1 0x4 DUP3 ADD MSTORE PUSH1 0x24 DUP1 DUP3 ADD MSTORE PUSH32 0x54726561737572793A20496E73756666696369656E7420746F6B656E2062616C PUSH1 0x44 DUP3 ADD MSTORE PUSH4 0x616E6365 PUSH1 0xE0 SHL PUSH1 0x64 DUP3 ADD MSTORE PUSH1 0x84 SWAP1 REVERT JUMPDEST SWAP2 SWAP1 DUP3 SUB SWAP2 DUP3 GT PUSH2 0x1B41 JUMPI JUMP JUMPDEST SWAP2 SWAP1 DUP3 ADD DUP1 SWAP3 GT PUSH2 0x1B41 JUMPI JUMP JUMPDEST ISZERO PUSH2 0x1C54 JUMPI JUMP JUMPDEST PUSH1 0x40 MLOAD PUSH3 0x461BCD PUSH1 0xE5 SHL DUP2 MSTORE PUSH1 0x20 PUSH1 0x4 DUP3 ADD MSTORE PUSH1 0x22 PUSH1 0x24 DUP3 ADD MSTORE PUSH32 0x54726561737572793A20496E73756666696369656E74204554482062616C616E PUSH1 0x44 DUP3 ADD MSTORE PUSH2 0x6365 PUSH1 0xF0 SHL PUSH1 0x64 DUP3 ADD MSTORE PUSH1 0x84 SWAP1 REVERT JUMPDEST RETURNDATASIZE ISZERO PUSH2 0x1CDF JUMPI RETURNDATASIZE SWAP1 PUSH8 0xFFFFFFFFFFFFFFFF DUP3 GT PUSH2 0x1BC5 JUMPI PUSH1 0x40 MLOAD SWAP2 PUSH2 0x1CD3 PUSH1 0x1F DUP3 ADD PUSH1 0x1F NOT AND PUSH1 0x20 ADD DUP5 PUSH2 0x1BA3 JUMP JUMPDEST DUP3 MSTORE RETURNDATASIZE PUSH1 0x0 PUSH1 0x20 DUP5 ADD RETURNDATACOPY JUMP JUMPDEST PUSH1 0x60 SWAP1 JUMP JUMPDEST ISZERO PUSH2 0x1CEB JUMPI JUMP JUMPDEST PUSH1 0x40 MLOAD PUSH3 0x461BCD PUSH1 0xE5 SHL DUP2 MSTORE PUSH1 0x20 PUSH1 0x4 DUP3 ADD MSTORE PUSH1 0x28 PUSH1 0x24 DUP3 ADD MSTORE PUSH32 0x54726561737572793A20455448207472616E7366657220746F20706172746E65 PUSH1 0x44 DUP3 ADD MSTORE PUSH8 0x1C8819985A5B1959 PUSH1 0xC2 SHL PUSH1 0x64 DUP3 ADD MSTORE PUSH1 0x84 SWAP1 REVERT JUMPDEST PUSH1 0x40 MLOAD PUSH4 0xA9059CBB PUSH1 0xE0 SHL PUSH1 0x20 DUP3 ADD SWAP1 DUP2 MSTORE PUSH1 0x1 PUSH1 0x1 PUSH1 0xA0 SHL SUB SWAP4 DUP5 AND PUSH1 0x24 DUP4 ADD MSTORE PUSH1 0x44 DUP1 DUP4 ADD SWAP6 SWAP1 SWAP6 MSTORE SWAP4 DUP2 MSTORE SWAP1 SWAP3 PUSH1 0x80 DUP3 ADD SWAP1 PUSH8 0xFFFFFFFFFFFFFFFF DUP3 GT DUP4 DUP4 LT OR PUSH2 0x1BC5 JUMPI PUSH1 0x20 SWAP3 PUSH1 0x0 SWAP3 PUSH1 0x40 MSTORE MLOAD SWAP1 DUP3 DUP7 GAS CALL ISZERO PUSH2 0x1DD7 JUMPI PUSH1 0x0 MLOAD RETURNDATASIZE PUSH2 0x1DCE JUMPI POP DUP1 DUP3 AND EXTCODESIZE ISZERO JUMPDEST PUSH2 0x1DB4 JUMPI POP POP JUMP JUMPDEST PUSH1 0x40 MLOAD PUSH4 0x5274AFE7 PUSH1 0xE0 SHL DUP2 MSTORE SWAP2 AND PUSH1 0x4 DUP3 ADD MSTORE PUSH1 0x24 SWAP2 POP REVERT JUMPDEST PUSH1 0x1 EQ ISZERO PUSH2 0x1DAC JUMP JUMPDEST PUSH1 0x40 MLOAD RETURNDATASIZE PUSH1 0x0 DUP3 RETURNDATACOPY RETURNDATASIZE SWAP1 REVERT JUMPDEST ISZERO PUSH2 0x1DEA JUMPI JUMP JUMPDEST PUSH1 0x40 MLOAD PUSH3 0x461BCD PUSH1 0xE5 SHL DUP2 MSTORE PUSH1 0x20 PUSH1 0x4 DUP3 ADD MSTORE PUSH1 0x1B PUSH1 0x24 DUP3 ADD MSTORE PUSH32 0x54726561737572793A20496E76616C696420726563697069656E740000000000 PUSH1 0x44 DUP3 ADD MSTORE PUSH1 0x64 SWAP1 REVERT JUMPDEST ISZERO PUSH2 0x1E36 JUMPI JUMP JUMPDEST PUSH1 0x40 MLOAD PUSH3 0x461BCD PUSH1 0xE5 SHL DUP2 MSTORE PUSH1 0x20 PUSH1 0x4 DUP3 ADD MSTORE PUSH1 0x1D PUSH1 0x24 DUP3 ADD MSTORE PUSH32 0x54726561737572793A20455448207472616E73666572206661696C6564000000 PUSH1 0x44 DUP3 ADD MSTORE PUSH1 0x64 SWAP1 REVERT JUMPDEST SWAP2 PUSH1 0x1 PUSH1 0x1 PUSH1 0xA0 SHL SUB AND DUP1 PUSH2 0x1EA1 JUMPI POP PUSH1 0x0 DUP1 DUP1 DUP1 SWAP4 PUSH2 0x1E9F SWAP6 GAS CALL PUSH2 0xDE0 PUSH2 0x1CA4 JUMP JUMPDEST JUMP JUMPDEST SWAP2 PUSH2 0x1E9F SWAP3 PUSH2 0x1D41 JUMP JUMPDEST PUSH8 0xFFFFFFFFFFFFFFFF DUP2 GT PUSH2 0x1BC5 JUMPI PUSH1 0x5 SHL PUSH1 0x20 ADD SWAP1 JUMP INVALID DUP6 0xDA PUSH11 0xB72D2B48932522AEA80ADB DUP13 LOG4 STATICCALL 0xB6 0xCD 0xEB DUP8 0xBC 0x2E PUSH32 0x6C03FD78D3B2100E1118CDEC69D543750C0863CCD71A7D9183543CD6696B1873 PUSH17 0xCE3B76A9003BF854726561737572793A20 0x4F PUSH15 0x6C7920617574686F72697A65642063 PUSH16 0x6E747261A2646970667358221220D5C0 DUP9 0xD3 0xD3 0xCB 0xC5 0xCA PUSH20 0x128EF50C88B1277144265C55775EF61F0BB76F7B 0xB8 DUP9 STOP PUSH5 0x736F6C6343 STOP ADDMOD EQ STOP CALLER "},"methodIdentifiers":{"PARTNER_FEE_BPS()":"41ee37d1","PLATFORM_FEE_BPS()":"539aa77f","addToPlatformPool(address,uint256)":"f0824f33","authorizeContract(address)":"67561d93","authorizedContracts(address)":"d5b9221b","calculateFees(uint256)":"52238fdd","claimRefund(uint256,address,address,uint256)":"593f35f4","claimWinnings(uint256,address,address,uint256)":"5e0083da","deauthorizeContract(address)":"6e861c0e","distributeFees(address,uint256)":"48fef595","getAllPlatformPools(address[])":"6ee02a9b","getBalanceInfo(address)":"39adac4d","getMarketPool(uint256,address)":"7a3cf742","getOptionPool(uint256,uint256,address)":"dc4ce349","getPlatformPool(address)":"055c796b","getSupportPool(uint256,address)":"4f44289d","getUserBet(uint256,address,address)":"553b7cbb","getUserSupport(uint256,address,address)":"256ba741","hasUserClaimed(uint256,address)":"07c7a72d","hasUserSupportClaimed(uint256,address)":"5d1c5820","marketManager()":"41ed2c12","marketPools(uint256,address)":"1abf8705","optionPools(uint256,uint256,address)":"f133a04f","owner()":"8da5cb5b","partner()":"be10862b","placeBet(uint256,address,address,uint256,uint256)":"e014601c","platformPools(address)":"6c1b5c8a","renounceOwnership()":"715018a6","setMarketManager(address)":"d82aff11","setPartner(address)":"a16d5960","supportMarket(uint256,address,address,uint256)":"c15d9807","supportPools(uint256,address)":"7de42634","transferOwnership(address)":"f2fde38b","userBetOptions(uint256,address,uint256)":"a24693ed","userBets(uint256,address,address)":"b90f9cb3","userClaimed(uint256,address)":"3beb9842","userSupportClaimed(uint256,address)":"2ff44b6f","userSupports(uint256,address,address)":"34eba166","withdraw(address,uint256,address)":"69328dec","withdrawPlatformFunds(address,uint256,address)":"674d20cb","withdrawSupport(uint256,address,address,uint256)":"2f7c165e"}}}}}