{"contracts/P2PTreasury.sol":{"PoolVault":{"abi":[{"inputs":[{"internalType":"address","name":"initialOwner","type":"address"},{"internalType":"address","name":"_partner","type":"address"}],"stateMutability":"nonpayable","type":"constructor"},{"inputs":[{"internalType":"address","name":"owner","type":"address"}],"name":"OwnableInvalidOwner","type":"error"},{"inputs":[{"internalType":"address","name":"account","type":"address"}],"name":"OwnableUnauthorizedAccount","type":"error"},{"inputs":[{"internalType":"address","name":"token","type":"address"}],"name":"SafeERC20FailedOperation","type":"error"},{"anonymous":false,"inputs":[{"indexed":true,"internalType":"address","name":"contractAddr","type":"address"}],"name":"ContractAuthorized","type":"event"},{"anonymous":false,"inputs":[{"indexed":true,"internalType":"address","name":"contractAddr","type":"address"}],"name":"ContractDeauthorized","type":"event"},{"anonymous":false,"inputs":[{"indexed":true,"internalType":"address","name":"token","type":"address"},{"indexed":false,"internalType":"uint256","name":"platformAmount","type":"uint256"},{"indexed":false,"internalType":"uint256","name":"partnerAmount","type":"uint256"}],"name":"FeesDistributed","type":"event"},{"anonymous":false,"inputs":[{"indexed":true,"internalType":"address","name":"token","type":"address"},{"indexed":false,"internalType":"uint256","name":"amount","type":"uint256"},{"indexed":true,"internalType":"address","name":"to","type":"address"}],"name":"FundsWithdrawn","type":"event"},{"anonymous":false,"inputs":[{"indexed":true,"internalType":"address","name":"oldManager","type":"address"},{"indexed":true,"internalType":"address","name":"newManager","type":"address"}],"name":"MarketManagerUpdated","type":"event"},{"anonymous":false,"inputs":[{"indexed":true,"internalType":"address","name":"previousOwner","type":"address"},{"indexed":true,"internalType":"address","name":"newOwner","type":"address"}],"name":"OwnershipTransferred","type":"event"},{"anonymous":false,"inputs":[{"indexed":true,"internalType":"address","name":"oldPartner","type":"address"},{"indexed":true,"internalType":"address","name":"newPartner","type":"address"}],"name":"PartnerUpdated","type":"event"},{"inputs":[],"name":"PARTNER_FEE_BPS","outputs":[{"internalType":"uint256","name":"","type":"uint256"}],"stateMutability":"view","type":"function"},{"inputs":[],"name":"PLATFORM_FEE_BPS","outputs":[{"internalType":"uint256","name":"","type":"uint256"}],"stateMutability":"view","type":"function"},{"inputs":[{"internalType":"address","name":"contractAddr","type":"address"}],"name":"authorizeContract","outputs":[],"stateMutability":"nonpayable","type":"function"},{"inputs":[{"internalType":"address","name":"","type":"address"}],"name":"authorizedContracts","outputs":[{"internalType":"bool","name":"","type":"bool"}],"stateMutability":"view","type":"function"},{"inputs":[{"internalType":"uint256","name":"totalAmount","type":"uint256"}],"name":"calculateFees","outputs":[{"internalType":"uint256","name":"platformFee","type":"uint256"},{"internalType":"uint256","name":"partnerFee","type":"uint256"}],"stateMutability":"pure","type":"function"},{"inputs":[{"internalType":"uint256","name":"marketId","type":"uint256"},{"internalType":"address","name":"user","type":"address"},{"internalType":"address","name":"token","type":"address"},{"internalType":"uint256","name":"amount","type":"uint256"}],"name":"claimWinnings","outputs":[],"stateMutability":"nonpayable","type":"function"},{"inputs":[{"internalType":"address","name":"contractAddr","type":"address"}],"name":"deauthorizeContract","outputs":[],"stateMutability":"nonpayable","type":"function"},{"inputs":[{"internalType":"address","name":"token","type":"address"},{"internalType":"uint256","name":"totalAmount","type":"uint256"}],"name":"distributeFees","outputs":[],"stateMutability":"nonpayable","type":"function"},{"inputs":[{"internalType":"uint256","name":"marketId","type":"uint256"},{"internalType":"address","name":"token","type":"address"}],"name":"getMarketPool","outputs":[{"internalType":"uint256","name":"","type":"uint256"}],"stateMutability":"view","type":"function"},{"inputs":[{"internalType":"uint256","name":"marketId","type":"uint256"},{"internalType":"uint256","name":"option","type":"uint256"},{"internalType":"address","name":"token","type":"address"}],"name":"getOptionPool","outputs":[{"internalType":"uint256","name":"","type":"uint256"}],"stateMutability":"view","type":"function"},{"inputs":[{"internalType":"uint256","name":"marketId","type":"uint256"},{"internalType":"address","name":"token","type":"address"}],"name":"getSupportPool","outputs":[{"internalType":"uint256","name":"","type":"uint256"}],"stateMutability":"view","type":"function"},{"inputs":[{"internalType":"uint256","name":"marketId","type":"uint256"},{"internalType":"address","name":"user","type":"address"},{"internalType":"address","name":"token","type":"address"}],"name":"getUserBet","outputs":[{"internalType":"uint256","name":"","type":"uint256"}],"stateMutability":"view","type":"function"},{"inputs":[{"internalType":"uint256","name":"marketId","type":"uint256"},{"internalType":"address","name":"user","type":"address"},{"internalType":"address","name":"token","type":"address"}],"name":"getUserSupport","outputs":[{"internalType":"uint256","name":"","type":"uint256"}],"stateMutability":"view","type":"function"},{"inputs":[{"internalType":"uint256","name":"marketId","type":"uint256"},{"internalType":"address","name":"user","type":"address"}],"name":"hasUserClaimed","outputs":[{"internalType":"bool","name":"","type":"bool"}],"stateMutability":"view","type":"function"},{"inputs":[{"internalType":"uint256","name":"marketId","type":"uint256"},{"internalType":"address","name":"user","type":"address"}],"name":"hasUserSupportClaimed","outputs":[{"internalType":"bool","name":"","type":"bool"}],"stateMutability":"view","type":"function"},{"inputs":[],"name":"marketManager","outputs":[{"internalType":"address","name":"","type":"address"}],"stateMutability":"view","type":"function"},{"inputs":[{"internalType":"uint256","name":"","type":"uint256"},{"internalType":"address","name":"","type":"address"}],"name":"marketPools","outputs":[{"internalType":"uint256","name":"","type":"uint256"}],"stateMutability":"view","type":"function"},{"inputs":[{"internalType":"uint256","name":"","type":"uint256"},{"internalType":"uint256","name":"","type":"uint256"},{"internalType":"address","name":"","type":"address"}],"name":"optionPools","outputs":[{"internalType":"uint256","name":"","type":"uint256"}],"stateMutability":"view","type":"function"},{"inputs":[],"name":"owner","outputs":[{"internalType":"address","name":"","type":"address"}],"stateMutability":"view","type":"function"},{"inputs":[],"name":"partner","outputs":[{"internalType":"address","name":"","type":"address"}],"stateMutability":"view","type":"function"},{"inputs":[{"internalType":"uint256","name":"marketId","type":"uint256"},{"internalType":"address","name":"user","type":"address"},{"internalType":"address","name":"token","type":"address"},{"internalType":"uint256","name":"amount","type":"uint256"},{"internalType":"uint256","name":"option","type":"uint256"}],"name":"placeBet","outputs":[],"stateMutability":"nonpayable","type":"function"},{"inputs":[],"name":"renounceOwnership","outputs":[],"stateMutability":"nonpayable","type":"function"},{"inputs":[{"internalType":"address","name":"_marketManager","type":"address"}],"name":"setMarketManager","outputs":[],"stateMutability":"nonpayable","type":"function"},{"inputs":[{"internalType":"address","name":"_partner","type":"address"}],"name":"setPartner","outputs":[],"stateMutability":"nonpayable","type":"function"},{"inputs":[{"internalType":"uint256","name":"marketId","type":"uint256"},{"internalType":"address","name":"user","type":"address"},{"internalType":"address","name":"token","type":"address"},{"internalType":"uint256","name":"amount","type":"uint256"}],"name":"supportMarket","outputs":[],"stateMutability":"nonpayable","type":"function"},{"inputs":[{"internalType":"uint256","name":"","type":"uint256"},{"internalType":"address","name":"","type":"address"}],"name":"supportPools","outputs":[{"internalType":"uint256","name":"","type":"uint256"}],"stateMutability":"view","type":"function"},{"inputs":[{"internalType":"address","name":"newOwner","type":"address"}],"name":"transferOwnership","outputs":[],"stateMutability":"nonpayable","type":"function"},{"inputs":[{"internalType":"uint256","name":"","type":"uint256"},{"internalType":"address","name":"","type":"address"},{"internalType":"uint256","name":"","type":"uint256"}],"name":"userBetOptions","outputs":[{"internalType":"uint256","name":"","type":"uint256"}],"stateMutability":"view","type":"function"},{"inputs":[{"internalType":"uint256","name":"","type":"uint256"},{"internalType":"address","name":"","type":"address"},{"internalType":"address","name":"","type":"address"}],"name":"userBets","outputs":[{"internalType":"uint256","name":"","type":"uint256"}],"stateMutability":"view","type":"function"},{"inputs":[{"internalType":"uint256","name":"","type":"uint256"},{"internalType":"address","name":"","type":"address"}],"name":"userClaimed","outputs":[{"internalType":"bool","name":"","type":"bool"}],"stateMutability":"view","type":"function"},{"inputs":[{"internalType":"uint256","name":"","type":"uint256"},{"internalType":"address","name":"","type":"address"}],"name":"userSupportClaimed","outputs":[{"internalType":"bool","name":"","type":"bool"}],"stateMutability":"view","type":"function"},{"inputs":[{"internalType":"uint256","name":"","type":"uint256"},{"internalType":"address","name":"","type":"address"},{"internalType":"address","name":"","type":"address"}],"name":"userSupports","outputs":[{"internalType":"uint256","name":"","type":"uint256"}],"stateMutability":"view","type":"function"},{"inputs":[{"internalType":"address","name":"token","type":"address"},{"internalType":"uint256","name":"amount","type":"uint256"},{"internalType":"address","name":"to","type":"address"}],"name":"withdraw","outputs":[],"stateMutability":"nonpayable","type":"function"},{"inputs":[{"internalType":"uint256","name":"marketId","type":"uint256"},{"internalType":"address","name":"user","type":"address"},{"internalType":"address","name":"token","type":"address"},{"internalType":"uint256","name":"amount","type":"uint256"}],"name":"withdrawSupport","outputs":[],"stateMutability":"nonpayable","type":"function"},{"stateMutability":"payable","type":"receive"}],"evm":{"bytecode":{"linkReferences":{},"object":"6080346100d457601f6117d338819003918201601f19168301916001600160401b038311848410176100d95780849260409485528339810103126100d457610052602061004b836100ef565b92016100ef565b906001600160a01b039081169081156100bb576000549260018060a01b03199280848616176000558260405195167f8be0079c531659141344cd1fd0a4f28419497f9722a3daafe3b4186f6b6457e0600080a3169060015416176001556116cf90816101048239f35b604051631e4fbdf760e01b815260006004820152602490fd5b600080fd5b634e487b7160e01b600052604160045260246000fd5b51906001600160a01b03821682036100d45756fe60806040818152600480361015610021575b505050361561001f57600080fd5b005b600092833560e01c90816307c7a72d14611231575080631abf870514610832578063256ba741146110505780632f7c165e1461108f5780632ff44b6f14610cea57806334eba166146110505780633beb98421461100a57806341ed2c1214610fe157806341ee37d114610fc557806348fef59514610d775780634f44289d146107f157806352238fdd14610d4d578063539aa77f14610d30578063553b7cbb146106785780635d1c582014610cea5780635e0083da14610b9257806367561d9314610ad557806369328dec146109355780636e861c0e146108cf578063715018a6146108725780637a3cf742146108325780637de42634146107f15780638da5cb5b146107c9578063a16d596014610703578063a24693ed146106b7578063b90f9cb314610678578063be10862b1461064f578063c15d980714610533578063d5b9221b146104f5578063d82aff11146103eb578063dc4ce34914610229578063e014601c1461026b578063f133a04f146102295763f2fde38b036100115734610225576020366003190112610225576101b9611296565b906101c261135a565b6001600160a01b0391821692831561020f57505082546001600160a01b0319811683178455167f8be0079c531659141344cd1fd0a4f28419497f9722a3daafe3b4186f6b6457e08380a380f35b51631e4fbdf760e01b8152908101849052602490fd5b8280fd5b505034610267578060209261023d36611330565b9183526005865283832090835285528282206001600160a01b039091168252845220549051908152f35b5080fd5b509190346102675760a03660031901126102675782359061028a61127b565b936102936112ac565b9060643593608435903387526020926002845260ff86892054161561039f57861561035c5787988261035798995260078552868a209060018060a01b0380911691828c528652878b20961695868b528552868a206102f28a825461162f565b9055828a5260098552868a20908a528452858920838a52845285892061031989825461162f565b90558189528352848820848952835284882061033688825461162f565b9055875260058252838720908752815282862091865252832091825461162f565b905580f35b855162461bcd60e51b8152908101849052601c60248201527f54726561737572793a20496e76616c69642062657420616d6f756e74000000006044820152606490fd5b855162461bcd60e51b81529081018490526032602482015260008051602061167a8339815191526044820152716374732063616e20706c616365206265747360701b6064820152608490fd5b5082903461026757602036600319011261026757610407611296565b61040f61135a565b6001600160a01b039081169182156104a1575081929360035490836bffffffffffffffffffffffff60a01b83161760035583865260026020528520600160ff19825416179055167f6d5236c24f887cea37fd19d8fffc6c47b564af445baf220a6c7f9a58bb6ae04e8480a37f8983a1f3c3cb45c24c8226b5b805e3b6eb49686530b808534b2a920129eff6518280a280f35b608490602086519162461bcd60e51b8352820152602860248201527f54726561737572793a20496e76616c6964206d61726b6574206d616e61676572604482015267206164647265737360c01b6064820152fd5b5050346102675760203660031901126102675760209160ff9082906001600160a01b03610520611296565b1681526002855220541690519015158152f35b5091903461026757610544366112f7565b9392959091953386526020916002835260ff8588205416156105f85785156105b757508596816103579697526008835284882060018060a01b0380921689528352848820931692838852825283872061059e87825461162f565b905586526006815282862091865252832091825461162f565b606490838087519262461bcd60e51b845283015260248201527f54726561737572793a20496e76616c696420737570706f727420616d6f756e746044820152fd5b845162461bcd60e51b81529081018390526037602482015260008051602061167a83398151915260448201527f6374732063616e20737570706f7274206d61726b6574730000000000000000006064820152608490fd5b50503461026757816003193601126102675760015490516001600160a01b039091168152602090f35b505034610267578060209261068c366112c2565b918352600786528383206001600160a01b039182168452865283832091168252845220549051908152f35b50346102255760603660031901126102255760209282916106d661127b565b90358252600985528282206001600160a01b03909116825284528181206044358252845220549051908152f35b50346102255760203660031901126102255761071d611296565b9061072661135a565b6001600160a01b0391821692831561077c575050600154826bffffffffffffffffffffffff60a01b821617600155167fc853be2b3168a7fe00e46da23214c5345a752dc61cd3300d7f255f8ae55345878380a380f35b906020608492519162461bcd60e51b8352820152602160248201527f54726561737572793a20496e76616c696420706172746e6572206164647265736044820152607360f81b6064820152fd5b505034610267578160031936011261026757905490516001600160a01b039091168152602090f35b5034610225578160031936011261022557602092829161080f61127b565b90358252600685528282206001600160a01b039091168252845220549051908152f35b5034610225578160031936011261022557602092829161085061127b565b813583529085528282206001600160a01b039091168252845220549051908152f35b83346108cc57806003193601126108cc5761088b61135a565b80546001600160a01b03198116825581906001600160a01b03167f8be0079c531659141344cd1fd0a4f28419497f9722a3daafe3b4186f6b6457e08280a380f35b80fd5b505034610267576020366003190112610267576108ea611296565b6108f261135a565b6001600160a01b03168083526002602052908220805460ff191690557f54142b7cb3ceaa9e564243ce4cc2303723c842a1144192de6b3c594f68b16a9a8280a280f35b50346102255760603660031901126102255761094f611296565b9160243561095b6112ac565b9161096461135a565b6001600160a01b03838116958615610a92579087916109848515156113ce565b1694856109de5750906109d68280808695867fe9171aeff46c37ab955b8aff908e14ae9732bd06634fa131226cfe5c25bfd2fb996109c660209a4710156114aa565b5af16109d0611501565b506115e3565b51908152a380f35b90508151906370a0823160e01b82523090820152602081602481885afa908115610a88578791610a4b575b5090610a46837fe9171aeff46c37ab955b8aff908e14ae9732bd06634fa131226cfe5c25bfd2fb95610a4082602097961015611452565b87611541565b6109d6565b929190506020833d8211610a80575b81610a676020938361141a565b81010312610a7c579151909190610a46610a09565b8680fd5b3d9150610a5a565b82513d89823e3d90fd5b825162461bcd60e51b8152602081880152601b60248201527f54726561737572793a20496e76616c696420726563697069656e7400000000006044820152606490fd5b50903461022557602036600319011261022557610af0611296565b610af861135a565b6001600160a01b0316918215610b45575081835260026020528220805460ff191660011790557f8983a1f3c3cb45c24c8226b5b805e3b6eb49686530b808534b2a920129eff6518280a280f35b6020608492519162461bcd60e51b8352820152602260248201527f54726561737572793a20496e76616c696420636f6e7472616374206164647265604482015261737360f01b6064820152fd5b5082903461026757610ba3366112f7565b9295909333865260206002815260ff838820541615610c9d578415610c5357878752600a81528287206001600160a01b0385168089529082528388205490929060ff16610c1257508697610c0f9752600a8152828820918852528520600160ff19825416179055611649565b80f35b60649184519162461bcd60e51b8352820152601960248201527f54726561737572793a20416c726561647920636c61696d6564000000000000006044820152fd5b608492519162461bcd60e51b8352820152602160248201527f54726561737572793a20496e76616c69642077696e6e696e677320616d6f756e6044820152601d60fa1b6064820152fd5b608492519162461bcd60e51b83528201526036602482015260008051602061167a8339815191526044820152756374732063616e20636c61696d2077696e6e696e677360501b6064820152fd5b50346102255781600319360112610225578160209360ff92610d0a61127b565b90358252600b86528282206001600160a01b039091168252855220549151911615158152f35b505034610267578160031936011261026757602090516101f48152f35b5082346108cc5760203660031901126108cc5750610d6b9035611386565b82519182526020820152f35b50919034610267578060031936011261026757610d92611296565b90602435913384526020946002865260ff838620541615610f6e57610db88415156113ce565b610dc184611386565b6001600160a01b0393841695919390929186610e8f57610de3904710156114aa565b82610e1b575b50507f85da6ab72d2b48932522aea80adb8ca4fab6cdeb87bc2e7f6c03fd78d3b2100e9394958351928352820152a280f35b868080858194600154165af1610e2f611501565b5015610e3b5780610de9565b835162461bcd60e51b8152908101879052602860248201527f54726561737572793a20455448207472616e7366657220746f20706172746e656044820152671c8819985a5b195960c21b6064820152608490fd5b959697918551906370a0823160e01b8252309082015282816024818b5afa908115610f64578991610f13575b507f85da6ab72d2b48932522aea80adb8ca4fab6cdeb87bc2e7f6c03fd78d3b2100e96610ee9911015611452565b8280610efe575b50508351928352820152a280f35b610f0c916001541688611541565b3882610ef0565b90508281813d8311610f5d575b610f2a818361141a565b81010312610f5957517f85da6ab72d2b48932522aea80adb8ca4fab6cdeb87bc2e7f6c03fd78d3b2100e610ebb565b8880fd5b503d610f20565b86513d8b823e3d90fd5b825162461bcd60e51b81529081018690526037602482015260008051602061167a83398151915260448201527f6374732063616e206469737472696275746520666565730000000000000000006064820152608490fd5b5050346102675781600319360112610267576020905160648152f35b50503461026757816003193601126102675760035490516001600160a01b039091168152602090f35b50346102255781600319360112610225578160209360ff9261102a61127b565b90358252600a86528282206001600160a01b039091168252855220549151911615158152f35b5050346102675780602092611064366112c2565b918352600886528383206001600160a01b039182168452865283832091168252845220549051908152f35b50829034610267576110a0366112f7565b9295909333865260206002815260ff8388205416156111dd57841561119157878752600881528287209760018060a01b0392838616998a8a52835284892093881693848a52835286858a20541061113f5750879881610c0f995260088352848a20908a528252838920838a52825283892061111c87825461163c565b905588526006815282882091885252852061113883825461163c565b9055611649565b845162461bcd60e51b8152908101839052602660248201527f54726561737572793a20496e73756666696369656e7420737570706f72742062604482015265616c616e636560d01b6064820152608490fd5b608492519162461bcd60e51b8352820152602360248201527f54726561737572793a20496e76616c6964207769746864726177616c20616d6f6044820152621d5b9d60ea1b6064820152fd5b608492519162461bcd60e51b83528201526038602482015260008051602061167a83398151915260448201527f6374732063616e20776974686472617720737570706f727400000000000000006064820152fd5b92919050346112775781600319360112611277579060209360ff9261125461127b565b90358252600a86528282206001600160a01b039091168252855220541615158152f35b8380fd5b602435906001600160a01b038216820361129157565b600080fd5b600435906001600160a01b038216820361129157565b604435906001600160a01b038216820361129157565b606090600319011261129157600435906001600160a01b03906024358281168103611291579160443590811681036112915790565b608090600319011261129157600435906001600160a01b0390602435828116810361129157916044359081168103611291579060643590565b60609060031901126112915760043590602435906044356001600160a01b03811681036112915790565b6000546001600160a01b0316330361136e57565b60405163118cdaa760e01b8152336004820152602490fd5b906101f4918281029281840414901517156113b8576127108092049160648302838104606414841517156113b8570490565b634e487b7160e01b600052601160045260246000fd5b156113d557565b60405162461bcd60e51b815260206004820152601860248201527f54726561737572793a20496e76616c696420616d6f756e7400000000000000006044820152606490fd5b90601f8019910116810190811067ffffffffffffffff82111761143c57604052565b634e487b7160e01b600052604160045260246000fd5b1561145957565b60405162461bcd60e51b8152602060048201526024808201527f54726561737572793a20496e73756666696369656e7420746f6b656e2062616c604482015263616e636560e01b6064820152608490fd5b156114b157565b60405162461bcd60e51b815260206004820152602260248201527f54726561737572793a20496e73756666696369656e74204554482062616c616e604482015261636560f01b6064820152608490fd5b3d1561153c573d9067ffffffffffffffff821161143c5760405191611530601f8201601f19166020018461141a565b82523d6000602084013e565b606090565b60405163a9059cbb60e01b602082019081526001600160a01b0393841660248301526044808301959095529381529092608082019067ffffffffffffffff82118383101761143c57602092600092604052519082865af1156115d7576000513d6115ce57508082163b155b6115b4575050565b604051635274afe760e01b81529116600482015260249150fd5b600114156115ac565b6040513d6000823e3d90fd5b156115ea57565b60405162461bcd60e51b815260206004820152601d60248201527f54726561737572793a20455448207472616e73666572206661696c65640000006044820152606490fd5b919082018092116113b857565b919082039182116113b857565b916001600160a01b03168061166f575060008080809361166d955af16109d0611501565b565b9161166d9261154156fe54726561737572793a204f6e6c7920617574686f72697a656420636f6e747261a2646970667358221220610caa07504e37eb141db2a491388b7a05080ff3b236725dcc344a1df05f49ee64736f6c63430008140033","opcodes":"PUSH1 0x80 CALLVALUE PUSH2 0xD4 JUMPI PUSH1 0x1F PUSH2 0x17D3 CODESIZE DUP2 SWAP1 SUB SWAP2 DUP3 ADD PUSH1 0x1F NOT AND DUP4 ADD SWAP2 PUSH1 0x1 PUSH1 0x1 PUSH1 0x40 SHL SUB DUP4 GT DUP5 DUP5 LT OR PUSH2 0xD9 JUMPI DUP1 DUP5 SWAP3 PUSH1 0x40 SWAP5 DUP6 MSTORE DUP4 CODECOPY DUP2 ADD SUB SLT PUSH2 0xD4 JUMPI PUSH2 0x52 PUSH1 0x20 PUSH2 0x4B DUP4 PUSH2 0xEF JUMP JUMPDEST SWAP3 ADD PUSH2 0xEF JUMP JUMPDEST SWAP1 PUSH1 0x1 PUSH1 0x1 PUSH1 0xA0 SHL SUB SWAP1 DUP2 AND SWAP1 DUP2 ISZERO PUSH2 0xBB JUMPI PUSH1 0x0 SLOAD SWAP3 PUSH1 0x1 DUP1 PUSH1 0xA0 SHL SUB NOT SWAP3 DUP1 DUP5 DUP7 AND OR PUSH1 0x0 SSTORE DUP3 PUSH1 0x40 MLOAD SWAP6 AND PUSH32 0x8BE0079C531659141344CD1FD0A4F28419497F9722A3DAAFE3B4186F6B6457E0 PUSH1 0x0 DUP1 LOG3 AND SWAP1 PUSH1 0x1 SLOAD AND OR PUSH1 0x1 SSTORE PUSH2 0x16CF SWAP1 DUP2 PUSH2 0x104 DUP3 CODECOPY RETURN JUMPDEST PUSH1 0x40 MLOAD PUSH4 0x1E4FBDF7 PUSH1 0xE0 SHL DUP2 MSTORE PUSH1 0x0 PUSH1 0x4 DUP3 ADD MSTORE PUSH1 0x24 SWAP1 REVERT JUMPDEST PUSH1 0x0 DUP1 REVERT JUMPDEST PUSH4 0x4E487B71 PUSH1 0xE0 SHL PUSH1 0x0 MSTORE PUSH1 0x41 PUSH1 0x4 MSTORE PUSH1 0x24 PUSH1 0x0 REVERT JUMPDEST MLOAD SWAP1 PUSH1 0x1 PUSH1 0x1 PUSH1 0xA0 SHL SUB DUP3 AND DUP3 SUB PUSH2 0xD4 JUMPI JUMP INVALID PUSH1 0x80 PUSH1 0x40 DUP2 DUP2 MSTORE PUSH1 0x4 DUP1 CALLDATASIZE LT ISZERO PUSH2 0x21 JUMPI JUMPDEST POP POP POP CALLDATASIZE ISZERO PUSH2 0x1F JUMPI PUSH1 0x0 DUP1 REVERT JUMPDEST STOP JUMPDEST PUSH1 0x0 SWAP3 DUP4 CALLDATALOAD PUSH1 0xE0 SHR SWAP1 DUP2 PUSH4 0x7C7A72D EQ PUSH2 0x1231 JUMPI POP DUP1 PUSH4 0x1ABF8705 EQ PUSH2 0x832 JUMPI DUP1 PUSH4 0x256BA741 EQ PUSH2 0x1050 JUMPI DUP1 PUSH4 0x2F7C165E EQ PUSH2 0x108F JUMPI DUP1 PUSH4 0x2FF44B6F EQ PUSH2 0xCEA JUMPI DUP1 PUSH4 0x34EBA166 EQ PUSH2 0x1050 JUMPI DUP1 PUSH4 0x3BEB9842 EQ PUSH2 0x100A JUMPI DUP1 PUSH4 0x41ED2C12 EQ PUSH2 0xFE1 JUMPI DUP1 PUSH4 0x41EE37D1 EQ PUSH2 0xFC5 JUMPI DUP1 PUSH4 0x48FEF595 EQ PUSH2 0xD77 JUMPI DUP1 PUSH4 0x4F44289D EQ PUSH2 0x7F1 JUMPI DUP1 PUSH4 0x52238FDD EQ PUSH2 0xD4D JUMPI DUP1 PUSH4 0x539AA77F EQ PUSH2 0xD30 JUMPI DUP1 PUSH4 0x553B7CBB EQ PUSH2 0x678 JUMPI DUP1 PUSH4 0x5D1C5820 EQ PUSH2 0xCEA JUMPI DUP1 PUSH4 0x5E0083DA EQ PUSH2 0xB92 JUMPI DUP1 PUSH4 0x67561D93 EQ PUSH2 0xAD5 JUMPI DUP1 PUSH4 0x69328DEC EQ PUSH2 0x935 JUMPI DUP1 PUSH4 0x6E861C0E EQ PUSH2 0x8CF JUMPI DUP1 PUSH4 0x715018A6 EQ PUSH2 0x872 JUMPI DUP1 PUSH4 0x7A3CF742 EQ PUSH2 0x832 JUMPI DUP1 PUSH4 0x7DE42634 EQ PUSH2 0x7F1 JUMPI DUP1 PUSH4 0x8DA5CB5B EQ PUSH2 0x7C9 JUMPI DUP1 PUSH4 0xA16D5960 EQ PUSH2 0x703 JUMPI DUP1 PUSH4 0xA24693ED EQ PUSH2 0x6B7 JUMPI DUP1 PUSH4 0xB90F9CB3 EQ PUSH2 0x678 JUMPI DUP1 PUSH4 0xBE10862B EQ PUSH2 0x64F JUMPI DUP1 PUSH4 0xC15D9807 EQ PUSH2 0x533 JUMPI DUP1 PUSH4 0xD5B9221B EQ PUSH2 0x4F5 JUMPI DUP1 PUSH4 0xD82AFF11 EQ PUSH2 0x3EB JUMPI DUP1 PUSH4 0xDC4CE349 EQ PUSH2 0x229 JUMPI DUP1 PUSH4 0xE014601C EQ PUSH2 0x26B JUMPI DUP1 PUSH4 0xF133A04F EQ PUSH2 0x229 JUMPI PUSH4 0xF2FDE38B SUB PUSH2 0x11 JUMPI CALLVALUE PUSH2 0x225 JUMPI PUSH1 0x20 CALLDATASIZE PUSH1 0x3 NOT ADD SLT PUSH2 0x225 JUMPI PUSH2 0x1B9 PUSH2 0x1296 JUMP JUMPDEST SWAP1 PUSH2 0x1C2 PUSH2 0x135A JUMP JUMPDEST PUSH1 0x1 PUSH1 0x1 PUSH1 0xA0 SHL SUB SWAP2 DUP3 AND SWAP3 DUP4 ISZERO PUSH2 0x20F JUMPI POP POP DUP3 SLOAD PUSH1 0x1 PUSH1 0x1 PUSH1 0xA0 SHL SUB NOT DUP2 AND DUP4 OR DUP5 SSTORE AND PUSH32 0x8BE0079C531659141344CD1FD0A4F28419497F9722A3DAAFE3B4186F6B6457E0 DUP4 DUP1 LOG3 DUP1 RETURN JUMPDEST MLOAD PUSH4 0x1E4FBDF7 PUSH1 0xE0 SHL DUP2 MSTORE SWAP1 DUP2 ADD DUP5 SWAP1 MSTORE PUSH1 0x24 SWAP1 REVERT JUMPDEST DUP3 DUP1 REVERT JUMPDEST POP POP CALLVALUE PUSH2 0x267 JUMPI DUP1 PUSH1 0x20 SWAP3 PUSH2 0x23D CALLDATASIZE PUSH2 0x1330 JUMP JUMPDEST SWAP2 DUP4 MSTORE PUSH1 0x5 DUP7 MSTORE DUP4 DUP4 KECCAK256 SWAP1 DUP4 MSTORE DUP6 MSTORE DUP3 DUP3 KECCAK256 PUSH1 0x1 PUSH1 0x1 PUSH1 0xA0 SHL SUB SWAP1 SWAP2 AND DUP3 MSTORE DUP5 MSTORE KECCAK256 SLOAD SWAP1 MLOAD SWAP1 DUP2 MSTORE RETURN JUMPDEST POP DUP1 REVERT JUMPDEST POP SWAP2 SWAP1 CALLVALUE PUSH2 0x267 JUMPI PUSH1 0xA0 CALLDATASIZE PUSH1 0x3 NOT ADD SLT PUSH2 0x267 JUMPI DUP3 CALLDATALOAD SWAP1 PUSH2 0x28A PUSH2 0x127B JUMP JUMPDEST SWAP4 PUSH2 0x293 PUSH2 0x12AC JUMP JUMPDEST SWAP1 PUSH1 0x64 CALLDATALOAD SWAP4 PUSH1 0x84 CALLDATALOAD SWAP1 CALLER DUP8 MSTORE PUSH1 0x20 SWAP3 PUSH1 0x2 DUP5 MSTORE PUSH1 0xFF DUP7 DUP10 KECCAK256 SLOAD AND ISZERO PUSH2 0x39F JUMPI DUP7 ISZERO PUSH2 0x35C JUMPI DUP8 SWAP9 DUP3 PUSH2 0x357 SWAP9 SWAP10 MSTORE PUSH1 0x7 DUP6 MSTORE DUP7 DUP11 KECCAK256 SWAP1 PUSH1 0x1 DUP1 PUSH1 0xA0 SHL SUB DUP1 SWAP2 AND SWAP2 DUP3 DUP13 MSTORE DUP7 MSTORE DUP8 DUP12 KECCAK256 SWAP7 AND SWAP6 DUP7 DUP12 MSTORE DUP6 MSTORE DUP7 DUP11 KECCAK256 PUSH2 0x2F2 DUP11 DUP3 SLOAD PUSH2 0x162F JUMP JUMPDEST SWAP1 SSTORE DUP3 DUP11 MSTORE PUSH1 0x9 DUP6 MSTORE DUP7 DUP11 KECCAK256 SWAP1 DUP11 MSTORE DUP5 MSTORE DUP6 DUP10 KECCAK256 DUP4 DUP11 MSTORE DUP5 MSTORE DUP6 DUP10 KECCAK256 PUSH2 0x319 DUP10 DUP3 SLOAD PUSH2 0x162F JUMP JUMPDEST SWAP1 SSTORE DUP2 DUP10 MSTORE DUP4 MSTORE DUP5 DUP9 KECCAK256 DUP5 DUP10 MSTORE DUP4 MSTORE DUP5 DUP9 KECCAK256 PUSH2 0x336 DUP9 DUP3 SLOAD PUSH2 0x162F JUMP JUMPDEST SWAP1 SSTORE DUP8 MSTORE PUSH1 0x5 DUP3 MSTORE DUP4 DUP8 KECCAK256 SWAP1 DUP8 MSTORE DUP2 MSTORE DUP3 DUP7 KECCAK256 SWAP2 DUP7 MSTORE MSTORE DUP4 KECCAK256 SWAP2 DUP3 SLOAD PUSH2 0x162F JUMP JUMPDEST SWAP1 SSTORE DUP1 RETURN JUMPDEST DUP6 MLOAD PUSH3 0x461BCD PUSH1 0xE5 SHL DUP2 MSTORE SWAP1 DUP2 ADD DUP5 SWAP1 MSTORE PUSH1 0x1C PUSH1 0x24 DUP3 ADD MSTORE PUSH32 0x54726561737572793A20496E76616C69642062657420616D6F756E7400000000 PUSH1 0x44 DUP3 ADD MSTORE PUSH1 0x64 SWAP1 REVERT JUMPDEST DUP6 MLOAD PUSH3 0x461BCD PUSH1 0xE5 SHL DUP2 MSTORE SWAP1 DUP2 ADD DUP5 SWAP1 MSTORE PUSH1 0x32 PUSH1 0x24 DUP3 ADD MSTORE PUSH1 0x0 DUP1 MLOAD PUSH1 0x20 PUSH2 0x167A DUP4 CODECOPY DUP2 MLOAD SWAP2 MSTORE PUSH1 0x44 DUP3 ADD MSTORE PUSH18 0x6374732063616E20706C6163652062657473 PUSH1 0x70 SHL PUSH1 0x64 DUP3 ADD MSTORE PUSH1 0x84 SWAP1 REVERT JUMPDEST POP DUP3 SWAP1 CALLVALUE PUSH2 0x267 JUMPI PUSH1 0x20 CALLDATASIZE PUSH1 0x3 NOT ADD SLT PUSH2 0x267 JUMPI PUSH2 0x407 PUSH2 0x1296 JUMP JUMPDEST PUSH2 0x40F PUSH2 0x135A JUMP JUMPDEST PUSH1 0x1 PUSH1 0x1 PUSH1 0xA0 SHL SUB SWAP1 DUP2 AND SWAP2 DUP3 ISZERO PUSH2 0x4A1 JUMPI POP DUP2 SWAP3 SWAP4 PUSH1 0x3 SLOAD SWAP1 DUP4 PUSH12 0xFFFFFFFFFFFFFFFFFFFFFFFF PUSH1 0xA0 SHL DUP4 AND OR PUSH1 0x3 SSTORE DUP4 DUP7 MSTORE PUSH1 0x2 PUSH1 0x20 MSTORE DUP6 KECCAK256 PUSH1 0x1 PUSH1 0xFF NOT DUP3 SLOAD AND OR SWAP1 SSTORE AND PUSH32 0x6D5236C24F887CEA37FD19D8FFFC6C47B564AF445BAF220A6C7F9A58BB6AE04E DUP5 DUP1 LOG3 PUSH32 0x8983A1F3C3CB45C24C8226B5B805E3B6EB49686530B808534B2A920129EFF651 DUP3 DUP1 LOG2 DUP1 RETURN JUMPDEST PUSH1 0x84 SWAP1 PUSH1 0x20 DUP7 MLOAD SWAP2 PUSH3 0x461BCD PUSH1 0xE5 SHL DUP4 MSTORE DUP3 ADD MSTORE PUSH1 0x28 PUSH1 0x24 DUP3 ADD MSTORE PUSH32 0x54726561737572793A20496E76616C6964206D61726B6574206D616E61676572 PUSH1 0x44 DUP3 ADD MSTORE PUSH8 0x2061646472657373 PUSH1 0xC0 SHL PUSH1 0x64 DUP3 ADD MSTORE REVERT JUMPDEST POP POP CALLVALUE PUSH2 0x267 JUMPI PUSH1 0x20 CALLDATASIZE PUSH1 0x3 NOT ADD SLT PUSH2 0x267 JUMPI PUSH1 0x20 SWAP2 PUSH1 0xFF SWAP1 DUP3 SWAP1 PUSH1 0x1 PUSH1 0x1 PUSH1 0xA0 SHL SUB PUSH2 0x520 PUSH2 0x1296 JUMP JUMPDEST AND DUP2 MSTORE PUSH1 0x2 DUP6 MSTORE KECCAK256 SLOAD AND SWAP1 MLOAD SWAP1 ISZERO ISZERO DUP2 MSTORE RETURN JUMPDEST POP SWAP2 SWAP1 CALLVALUE PUSH2 0x267 JUMPI PUSH2 0x544 CALLDATASIZE PUSH2 0x12F7 JUMP JUMPDEST SWAP4 SWAP3 SWAP6 SWAP1 SWAP2 SWAP6 CALLER DUP7 MSTORE PUSH1 0x20 SWAP2 PUSH1 0x2 DUP4 MSTORE PUSH1 0xFF DUP6 DUP9 KECCAK256 SLOAD AND ISZERO PUSH2 0x5F8 JUMPI DUP6 ISZERO PUSH2 0x5B7 JUMPI POP DUP6 SWAP7 DUP2 PUSH2 0x357 SWAP7 SWAP8 MSTORE PUSH1 0x8 DUP4 MSTORE DUP5 DUP9 KECCAK256 PUSH1 0x1 DUP1 PUSH1 0xA0 SHL SUB DUP1 SWAP3 AND DUP10 MSTORE DUP4 MSTORE DUP5 DUP9 KECCAK256 SWAP4 AND SWAP3 DUP4 DUP9 MSTORE DUP3 MSTORE DUP4 DUP8 KECCAK256 PUSH2 0x59E DUP8 DUP3 SLOAD PUSH2 0x162F JUMP JUMPDEST SWAP1 SSTORE DUP7 MSTORE PUSH1 0x6 DUP2 MSTORE DUP3 DUP7 KECCAK256 SWAP2 DUP7 MSTORE MSTORE DUP4 KECCAK256 SWAP2 DUP3 SLOAD PUSH2 0x162F JUMP JUMPDEST PUSH1 0x64 SWAP1 DUP4 DUP1 DUP8 MLOAD SWAP3 PUSH3 0x461BCD PUSH1 0xE5 SHL DUP5 MSTORE DUP4 ADD MSTORE PUSH1 0x24 DUP3 ADD MSTORE PUSH32 0x54726561737572793A20496E76616C696420737570706F727420616D6F756E74 PUSH1 0x44 DUP3 ADD MSTORE REVERT JUMPDEST DUP5 MLOAD PUSH3 0x461BCD PUSH1 0xE5 SHL DUP2 MSTORE SWAP1 DUP2 ADD DUP4 SWAP1 MSTORE PUSH1 0x37 PUSH1 0x24 DUP3 ADD MSTORE PUSH1 0x0 DUP1 MLOAD PUSH1 0x20 PUSH2 0x167A DUP4 CODECOPY DUP2 MLOAD SWAP2 MSTORE PUSH1 0x44 DUP3 ADD MSTORE PUSH32 0x6374732063616E20737570706F7274206D61726B657473000000000000000000 PUSH1 0x64 DUP3 ADD MSTORE PUSH1 0x84 SWAP1 REVERT JUMPDEST POP POP CALLVALUE PUSH2 0x267 JUMPI DUP2 PUSH1 0x3 NOT CALLDATASIZE ADD SLT PUSH2 0x267 JUMPI PUSH1 0x1 SLOAD SWAP1 MLOAD PUSH1 0x1 PUSH1 0x1 PUSH1 0xA0 SHL SUB SWAP1 SWAP2 AND DUP2 MSTORE PUSH1 0x20 SWAP1 RETURN JUMPDEST POP POP CALLVALUE PUSH2 0x267 JUMPI DUP1 PUSH1 0x20 SWAP3 PUSH2 0x68C CALLDATASIZE PUSH2 0x12C2 JUMP JUMPDEST SWAP2 DUP4 MSTORE PUSH1 0x7 DUP7 MSTORE DUP4 DUP4 KECCAK256 PUSH1 0x1 PUSH1 0x1 PUSH1 0xA0 SHL SUB SWAP2 DUP3 AND DUP5 MSTORE DUP7 MSTORE DUP4 DUP4 KECCAK256 SWAP2 AND DUP3 MSTORE DUP5 MSTORE KECCAK256 SLOAD SWAP1 MLOAD SWAP1 DUP2 MSTORE RETURN JUMPDEST POP CALLVALUE PUSH2 0x225 JUMPI PUSH1 0x60 CALLDATASIZE PUSH1 0x3 NOT ADD SLT PUSH2 0x225 JUMPI PUSH1 0x20 SWAP3 DUP3 SWAP2 PUSH2 0x6D6 PUSH2 0x127B JUMP JUMPDEST SWAP1 CALLDATALOAD DUP3 MSTORE PUSH1 0x9 DUP6 MSTORE DUP3 DUP3 KECCAK256 PUSH1 0x1 PUSH1 0x1 PUSH1 0xA0 SHL SUB SWAP1 SWAP2 AND DUP3 MSTORE DUP5 MSTORE DUP2 DUP2 KECCAK256 PUSH1 0x44 CALLDATALOAD DUP3 MSTORE DUP5 MSTORE KECCAK256 SLOAD SWAP1 MLOAD SWAP1 DUP2 MSTORE RETURN JUMPDEST POP CALLVALUE PUSH2 0x225 JUMPI PUSH1 0x20 CALLDATASIZE PUSH1 0x3 NOT ADD SLT PUSH2 0x225 JUMPI PUSH2 0x71D PUSH2 0x1296 JUMP JUMPDEST SWAP1 PUSH2 0x726 PUSH2 0x135A JUMP JUMPDEST PUSH1 0x1 PUSH1 0x1 PUSH1 0xA0 SHL SUB SWAP2 DUP3 AND SWAP3 DUP4 ISZERO PUSH2 0x77C JUMPI POP POP PUSH1 0x1 SLOAD DUP3 PUSH12 0xFFFFFFFFFFFFFFFFFFFFFFFF PUSH1 0xA0 SHL DUP3 AND OR PUSH1 0x1 SSTORE AND PUSH32 0xC853BE2B3168A7FE00E46DA23214C5345A752DC61CD3300D7F255F8AE5534587 DUP4 DUP1 LOG3 DUP1 RETURN JUMPDEST SWAP1 PUSH1 0x20 PUSH1 0x84 SWAP3 MLOAD SWAP2 PUSH3 0x461BCD PUSH1 0xE5 SHL DUP4 MSTORE DUP3 ADD MSTORE PUSH1 0x21 PUSH1 0x24 DUP3 ADD MSTORE PUSH32 0x54726561737572793A20496E76616C696420706172746E657220616464726573 PUSH1 0x44 DUP3 ADD MSTORE PUSH1 0x73 PUSH1 0xF8 SHL PUSH1 0x64 DUP3 ADD MSTORE REVERT JUMPDEST POP POP CALLVALUE PUSH2 0x267 JUMPI DUP2 PUSH1 0x3 NOT CALLDATASIZE ADD SLT PUSH2 0x267 JUMPI SWAP1 SLOAD SWAP1 MLOAD PUSH1 0x1 PUSH1 0x1 PUSH1 0xA0 SHL SUB SWAP1 SWAP2 AND DUP2 MSTORE PUSH1 0x20 SWAP1 RETURN JUMPDEST POP CALLVALUE PUSH2 0x225 JUMPI DUP2 PUSH1 0x3 NOT CALLDATASIZE ADD SLT PUSH2 0x225 JUMPI PUSH1 0x20 SWAP3 DUP3 SWAP2 PUSH2 0x80F PUSH2 0x127B JUMP JUMPDEST SWAP1 CALLDATALOAD DUP3 MSTORE PUSH1 0x6 DUP6 MSTORE DUP3 DUP3 KECCAK256 PUSH1 0x1 PUSH1 0x1 PUSH1 0xA0 SHL SUB SWAP1 SWAP2 AND DUP3 MSTORE DUP5 MSTORE KECCAK256 SLOAD SWAP1 MLOAD SWAP1 DUP2 MSTORE RETURN JUMPDEST POP CALLVALUE PUSH2 0x225 JUMPI DUP2 PUSH1 0x3 NOT CALLDATASIZE ADD SLT PUSH2 0x225 JUMPI PUSH1 0x20 SWAP3 DUP3 SWAP2 PUSH2 0x850 PUSH2 0x127B JUMP JUMPDEST DUP2 CALLDATALOAD DUP4 MSTORE SWAP1 DUP6 MSTORE DUP3 DUP3 KECCAK256 PUSH1 0x1 PUSH1 0x1 PUSH1 0xA0 SHL SUB SWAP1 SWAP2 AND DUP3 MSTORE DUP5 MSTORE KECCAK256 SLOAD SWAP1 MLOAD SWAP1 DUP2 MSTORE RETURN JUMPDEST DUP4 CALLVALUE PUSH2 0x8CC JUMPI DUP1 PUSH1 0x3 NOT CALLDATASIZE ADD SLT PUSH2 0x8CC JUMPI PUSH2 0x88B PUSH2 0x135A JUMP JUMPDEST DUP1 SLOAD PUSH1 0x1 PUSH1 0x1 PUSH1 0xA0 SHL SUB NOT DUP2 AND DUP3 SSTORE DUP2 SWAP1 PUSH1 0x1 PUSH1 0x1 PUSH1 0xA0 SHL SUB AND PUSH32 0x8BE0079C531659141344CD1FD0A4F28419497F9722A3DAAFE3B4186F6B6457E0 DUP3 DUP1 LOG3 DUP1 RETURN JUMPDEST DUP1 REVERT JUMPDEST POP POP CALLVALUE PUSH2 0x267 JUMPI PUSH1 0x20 CALLDATASIZE PUSH1 0x3 NOT ADD SLT PUSH2 0x267 JUMPI PUSH2 0x8EA PUSH2 0x1296 JUMP JUMPDEST PUSH2 0x8F2 PUSH2 0x135A JUMP JUMPDEST PUSH1 0x1 PUSH1 0x1 PUSH1 0xA0 SHL SUB AND DUP1 DUP4 MSTORE PUSH1 0x2 PUSH1 0x20 MSTORE SWAP1 DUP3 KECCAK256 DUP1 SLOAD PUSH1 0xFF NOT AND SWAP1 SSTORE PUSH32 0x54142B7CB3CEAA9E564243CE4CC2303723C842A1144192DE6B3C594F68B16A9A DUP3 DUP1 LOG2 DUP1 RETURN JUMPDEST POP CALLVALUE PUSH2 0x225 JUMPI PUSH1 0x60 CALLDATASIZE PUSH1 0x3 NOT ADD SLT PUSH2 0x225 JUMPI PUSH2 0x94F PUSH2 0x1296 JUMP JUMPDEST SWAP2 PUSH1 0x24 CALLDATALOAD PUSH2 0x95B PUSH2 0x12AC JUMP JUMPDEST SWAP2 PUSH2 0x964 PUSH2 0x135A JUMP JUMPDEST PUSH1 0x1 PUSH1 0x1 PUSH1 0xA0 SHL SUB DUP4 DUP2 AND SWAP6 DUP7 ISZERO PUSH2 0xA92 JUMPI SWAP1 DUP8 SWAP2 PUSH2 0x984 DUP6 ISZERO ISZERO PUSH2 0x13CE JUMP JUMPDEST AND SWAP5 DUP6 PUSH2 0x9DE JUMPI POP SWAP1 PUSH2 0x9D6 DUP3 DUP1 DUP1 DUP7 SWAP6 DUP7 PUSH32 0xE9171AEFF46C37AB955B8AFF908E14AE9732BD06634FA131226CFE5C25BFD2FB SWAP10 PUSH2 0x9C6 PUSH1 0x20 SWAP11 SELFBALANCE LT ISZERO PUSH2 0x14AA JUMP JUMPDEST GAS CALL PUSH2 0x9D0 PUSH2 0x1501 JUMP JUMPDEST POP PUSH2 0x15E3 JUMP JUMPDEST MLOAD SWAP1 DUP2 MSTORE LOG3 DUP1 RETURN JUMPDEST SWAP1 POP DUP2 MLOAD SWAP1 PUSH4 0x70A08231 PUSH1 0xE0 SHL DUP3 MSTORE ADDRESS SWAP1 DUP3 ADD MSTORE PUSH1 0x20 DUP2 PUSH1 0x24 DUP2 DUP9 GAS STATICCALL SWAP1 DUP2 ISZERO PUSH2 0xA88 JUMPI DUP8 SWAP2 PUSH2 0xA4B JUMPI JUMPDEST POP SWAP1 PUSH2 0xA46 DUP4 PUSH32 0xE9171AEFF46C37AB955B8AFF908E14AE9732BD06634FA131226CFE5C25BFD2FB SWAP6 PUSH2 0xA40 DUP3 PUSH1 0x20 SWAP8 SWAP7 LT ISZERO PUSH2 0x1452 JUMP JUMPDEST DUP8 PUSH2 0x1541 JUMP JUMPDEST PUSH2 0x9D6 JUMP JUMPDEST SWAP3 SWAP2 SWAP1 POP PUSH1 0x20 DUP4 RETURNDATASIZE DUP3 GT PUSH2 0xA80 JUMPI JUMPDEST DUP2 PUSH2 0xA67 PUSH1 0x20 SWAP4 DUP4 PUSH2 0x141A JUMP JUMPDEST DUP2 ADD SUB SLT PUSH2 0xA7C JUMPI SWAP2 MLOAD SWAP1 SWAP2 SWAP1 PUSH2 0xA46 PUSH2 0xA09 JUMP JUMPDEST DUP7 DUP1 REVERT JUMPDEST RETURNDATASIZE SWAP2 POP PUSH2 0xA5A JUMP JUMPDEST DUP3 MLOAD RETURNDATASIZE DUP10 DUP3 RETURNDATACOPY RETURNDATASIZE SWAP1 REVERT JUMPDEST DUP3 MLOAD PUSH3 0x461BCD PUSH1 0xE5 SHL DUP2 MSTORE PUSH1 0x20 DUP2 DUP9 ADD MSTORE PUSH1 0x1B PUSH1 0x24 DUP3 ADD MSTORE PUSH32 0x54726561737572793A20496E76616C696420726563697069656E740000000000 PUSH1 0x44 DUP3 ADD MSTORE PUSH1 0x64 SWAP1 REVERT JUMPDEST POP SWAP1 CALLVALUE PUSH2 0x225 JUMPI PUSH1 0x20 CALLDATASIZE PUSH1 0x3 NOT ADD SLT PUSH2 0x225 JUMPI PUSH2 0xAF0 PUSH2 0x1296 JUMP JUMPDEST PUSH2 0xAF8 PUSH2 0x135A JUMP JUMPDEST PUSH1 0x1 PUSH1 0x1 PUSH1 0xA0 SHL SUB AND SWAP2 DUP3 ISZERO PUSH2 0xB45 JUMPI POP DUP2 DUP4 MSTORE PUSH1 0x2 PUSH1 0x20 MSTORE DUP3 KECCAK256 DUP1 SLOAD PUSH1 0xFF NOT AND PUSH1 0x1 OR SWAP1 SSTORE PUSH32 0x8983A1F3C3CB45C24C8226B5B805E3B6EB49686530B808534B2A920129EFF651 DUP3 DUP1 LOG2 DUP1 RETURN JUMPDEST PUSH1 0x20 PUSH1 0x84 SWAP3 MLOAD SWAP2 PUSH3 0x461BCD PUSH1 0xE5 SHL DUP4 MSTORE DUP3 ADD MSTORE PUSH1 0x22 PUSH1 0x24 DUP3 ADD MSTORE PUSH32 0x54726561737572793A20496E76616C696420636F6E7472616374206164647265 PUSH1 0x44 DUP3 ADD MSTORE PUSH2 0x7373 PUSH1 0xF0 SHL PUSH1 0x64 DUP3 ADD MSTORE REVERT JUMPDEST POP DUP3 SWAP1 CALLVALUE PUSH2 0x267 JUMPI PUSH2 0xBA3 CALLDATASIZE PUSH2 0x12F7 JUMP JUMPDEST SWAP3 SWAP6 SWAP1 SWAP4 CALLER DUP7 MSTORE PUSH1 0x20 PUSH1 0x2 DUP2 MSTORE PUSH1 0xFF DUP4 DUP9 KECCAK256 SLOAD AND ISZERO PUSH2 0xC9D JUMPI DUP5 ISZERO PUSH2 0xC53 JUMPI DUP8 DUP8 MSTORE PUSH1 0xA DUP2 MSTORE DUP3 DUP8 KECCAK256 PUSH1 0x1 PUSH1 0x1 PUSH1 0xA0 SHL SUB DUP6 AND DUP1 DUP10 MSTORE SWAP1 DUP3 MSTORE DUP4 DUP9 KECCAK256 SLOAD SWAP1 SWAP3 SWAP1 PUSH1 0xFF AND PUSH2 0xC12 JUMPI POP DUP7 SWAP8 PUSH2 0xC0F SWAP8 MSTORE PUSH1 0xA DUP2 MSTORE DUP3 DUP9 KECCAK256 SWAP2 DUP9 MSTORE MSTORE DUP6 KECCAK256 PUSH1 0x1 PUSH1 0xFF NOT DUP3 SLOAD AND OR SWAP1 SSTORE PUSH2 0x1649 JUMP JUMPDEST DUP1 RETURN JUMPDEST PUSH1 0x64 SWAP2 DUP5 MLOAD SWAP2 PUSH3 0x461BCD PUSH1 0xE5 SHL DUP4 MSTORE DUP3 ADD MSTORE PUSH1 0x19 PUSH1 0x24 DUP3 ADD MSTORE PUSH32 0x54726561737572793A20416C726561647920636C61696D656400000000000000 PUSH1 0x44 DUP3 ADD MSTORE REVERT JUMPDEST PUSH1 0x84 SWAP3 MLOAD SWAP2 PUSH3 0x461BCD PUSH1 0xE5 SHL DUP4 MSTORE DUP3 ADD MSTORE PUSH1 0x21 PUSH1 0x24 DUP3 ADD MSTORE PUSH32 0x54726561737572793A20496E76616C69642077696E6E696E677320616D6F756E PUSH1 0x44 DUP3 ADD MSTORE PUSH1 0x1D PUSH1 0xFA SHL PUSH1 0x64 DUP3 ADD MSTORE REVERT JUMPDEST PUSH1 0x84 SWAP3 MLOAD SWAP2 PUSH3 0x461BCD PUSH1 0xE5 SHL DUP4 MSTORE DUP3 ADD MSTORE PUSH1 0x36 PUSH1 0x24 DUP3 ADD MSTORE PUSH1 0x0 DUP1 MLOAD PUSH1 0x20 PUSH2 0x167A DUP4 CODECOPY DUP2 MLOAD SWAP2 MSTORE PUSH1 0x44 DUP3 ADD MSTORE PUSH22 0x6374732063616E20636C61696D2077696E6E696E6773 PUSH1 0x50 SHL PUSH1 0x64 DUP3 ADD MSTORE REVERT JUMPDEST POP CALLVALUE PUSH2 0x225 JUMPI DUP2 PUSH1 0x3 NOT CALLDATASIZE ADD SLT PUSH2 0x225 JUMPI DUP2 PUSH1 0x20 SWAP4 PUSH1 0xFF SWAP3 PUSH2 0xD0A PUSH2 0x127B JUMP JUMPDEST SWAP1 CALLDATALOAD DUP3 MSTORE PUSH1 0xB DUP7 MSTORE DUP3 DUP3 KECCAK256 PUSH1 0x1 PUSH1 0x1 PUSH1 0xA0 SHL SUB SWAP1 SWAP2 AND DUP3 MSTORE DUP6 MSTORE KECCAK256 SLOAD SWAP2 MLOAD SWAP2 AND ISZERO ISZERO DUP2 MSTORE RETURN JUMPDEST POP POP CALLVALUE PUSH2 0x267 JUMPI DUP2 PUSH1 0x3 NOT CALLDATASIZE ADD SLT PUSH2 0x267 JUMPI PUSH1 0x20 SWAP1 MLOAD PUSH2 0x1F4 DUP2 MSTORE RETURN JUMPDEST POP DUP3 CALLVALUE PUSH2 0x8CC JUMPI PUSH1 0x20 CALLDATASIZE PUSH1 0x3 NOT ADD SLT PUSH2 0x8CC JUMPI POP PUSH2 0xD6B SWAP1 CALLDATALOAD PUSH2 0x1386 JUMP JUMPDEST DUP3 MLOAD SWAP2 DUP3 MSTORE PUSH1 0x20 DUP3 ADD MSTORE RETURN JUMPDEST POP SWAP2 SWAP1 CALLVALUE PUSH2 0x267 JUMPI DUP1 PUSH1 0x3 NOT CALLDATASIZE ADD SLT PUSH2 0x267 JUMPI PUSH2 0xD92 PUSH2 0x1296 JUMP JUMPDEST SWAP1 PUSH1 0x24 CALLDATALOAD SWAP2 CALLER DUP5 MSTORE PUSH1 0x20 SWAP5 PUSH1 0x2 DUP7 MSTORE PUSH1 0xFF DUP4 DUP7 KECCAK256 SLOAD AND ISZERO PUSH2 0xF6E JUMPI PUSH2 0xDB8 DUP5 ISZERO ISZERO PUSH2 0x13CE JUMP JUMPDEST PUSH2 0xDC1 DUP5 PUSH2 0x1386 JUMP JUMPDEST PUSH1 0x1 PUSH1 0x1 PUSH1 0xA0 SHL SUB SWAP4 DUP5 AND SWAP6 SWAP2 SWAP4 SWAP1 SWAP3 SWAP2 DUP7 PUSH2 0xE8F JUMPI PUSH2 0xDE3 SWAP1 SELFBALANCE LT ISZERO PUSH2 0x14AA JUMP JUMPDEST DUP3 PUSH2 0xE1B JUMPI JUMPDEST POP POP PUSH32 0x85DA6AB72D2B48932522AEA80ADB8CA4FAB6CDEB87BC2E7F6C03FD78D3B2100E SWAP4 SWAP5 SWAP6 DUP4 MLOAD SWAP3 DUP4 MSTORE DUP3 ADD MSTORE LOG2 DUP1 RETURN JUMPDEST DUP7 DUP1 DUP1 DUP6 DUP2 SWAP5 PUSH1 0x1 SLOAD AND GAS CALL PUSH2 0xE2F PUSH2 0x1501 JUMP JUMPDEST POP ISZERO PUSH2 0xE3B JUMPI DUP1 PUSH2 0xDE9 JUMP JUMPDEST DUP4 MLOAD PUSH3 0x461BCD PUSH1 0xE5 SHL DUP2 MSTORE SWAP1 DUP2 ADD DUP8 SWAP1 MSTORE PUSH1 0x28 PUSH1 0x24 DUP3 ADD MSTORE PUSH32 0x54726561737572793A20455448207472616E7366657220746F20706172746E65 PUSH1 0x44 DUP3 ADD MSTORE PUSH8 0x1C8819985A5B1959 PUSH1 0xC2 SHL PUSH1 0x64 DUP3 ADD MSTORE PUSH1 0x84 SWAP1 REVERT JUMPDEST SWAP6 SWAP7 SWAP8 SWAP2 DUP6 MLOAD SWAP1 PUSH4 0x70A08231 PUSH1 0xE0 SHL DUP3 MSTORE ADDRESS SWAP1 DUP3 ADD MSTORE DUP3 DUP2 PUSH1 0x24 DUP2 DUP12 GAS STATICCALL SWAP1 DUP2 ISZERO PUSH2 0xF64 JUMPI DUP10 SWAP2 PUSH2 0xF13 JUMPI JUMPDEST POP PUSH32 0x85DA6AB72D2B48932522AEA80ADB8CA4FAB6CDEB87BC2E7F6C03FD78D3B2100E SWAP7 PUSH2 0xEE9 SWAP2 LT ISZERO PUSH2 0x1452 JUMP JUMPDEST DUP3 DUP1 PUSH2 0xEFE JUMPI JUMPDEST POP POP DUP4 MLOAD SWAP3 DUP4 MSTORE DUP3 ADD MSTORE LOG2 DUP1 RETURN JUMPDEST PUSH2 0xF0C SWAP2 PUSH1 0x1 SLOAD AND DUP9 PUSH2 0x1541 JUMP JUMPDEST CODESIZE DUP3 PUSH2 0xEF0 JUMP JUMPDEST SWAP1 POP DUP3 DUP2 DUP2 RETURNDATASIZE DUP4 GT PUSH2 0xF5D JUMPI JUMPDEST PUSH2 0xF2A DUP2 DUP4 PUSH2 0x141A JUMP JUMPDEST DUP2 ADD SUB SLT PUSH2 0xF59 JUMPI MLOAD PUSH32 0x85DA6AB72D2B48932522AEA80ADB8CA4FAB6CDEB87BC2E7F6C03FD78D3B2100E PUSH2 0xEBB JUMP JUMPDEST DUP9 DUP1 REVERT JUMPDEST POP RETURNDATASIZE PUSH2 0xF20 JUMP JUMPDEST DUP7 MLOAD RETURNDATASIZE DUP12 DUP3 RETURNDATACOPY RETURNDATASIZE SWAP1 REVERT JUMPDEST DUP3 MLOAD PUSH3 0x461BCD PUSH1 0xE5 SHL DUP2 MSTORE SWAP1 DUP2 ADD DUP7 SWAP1 MSTORE PUSH1 0x37 PUSH1 0x24 DUP3 ADD MSTORE PUSH1 0x0 DUP1 MLOAD PUSH1 0x20 PUSH2 0x167A DUP4 CODECOPY DUP2 MLOAD SWAP2 MSTORE PUSH1 0x44 DUP3 ADD MSTORE PUSH32 0x6374732063616E20646973747269627574652066656573000000000000000000 PUSH1 0x64 DUP3 ADD MSTORE PUSH1 0x84 SWAP1 REVERT JUMPDEST POP POP CALLVALUE PUSH2 0x267 JUMPI DUP2 PUSH1 0x3 NOT CALLDATASIZE ADD SLT PUSH2 0x267 JUMPI PUSH1 0x20 SWAP1 MLOAD PUSH1 0x64 DUP2 MSTORE RETURN JUMPDEST POP POP CALLVALUE PUSH2 0x267 JUMPI DUP2 PUSH1 0x3 NOT CALLDATASIZE ADD SLT PUSH2 0x267 JUMPI PUSH1 0x3 SLOAD SWAP1 MLOAD PUSH1 0x1 PUSH1 0x1 PUSH1 0xA0 SHL SUB SWAP1 SWAP2 AND DUP2 MSTORE PUSH1 0x20 SWAP1 RETURN JUMPDEST POP CALLVALUE PUSH2 0x225 JUMPI DUP2 PUSH1 0x3 NOT CALLDATASIZE ADD SLT PUSH2 0x225 JUMPI DUP2 PUSH1 0x20 SWAP4 PUSH1 0xFF SWAP3 PUSH2 0x102A PUSH2 0x127B JUMP JUMPDEST SWAP1 CALLDATALOAD DUP3 MSTORE PUSH1 0xA DUP7 MSTORE DUP3 DUP3 KECCAK256 PUSH1 0x1 PUSH1 0x1 PUSH1 0xA0 SHL SUB SWAP1 SWAP2 AND DUP3 MSTORE DUP6 MSTORE KECCAK256 SLOAD SWAP2 MLOAD SWAP2 AND ISZERO ISZERO DUP2 MSTORE RETURN JUMPDEST POP POP CALLVALUE PUSH2 0x267 JUMPI DUP1 PUSH1 0x20 SWAP3 PUSH2 0x1064 CALLDATASIZE PUSH2 0x12C2 JUMP JUMPDEST SWAP2 DUP4 MSTORE PUSH1 0x8 DUP7 MSTORE DUP4 DUP4 KECCAK256 PUSH1 0x1 PUSH1 0x1 PUSH1 0xA0 SHL SUB SWAP2 DUP3 AND DUP5 MSTORE DUP7 MSTORE DUP4 DUP4 KECCAK256 SWAP2 AND DUP3 MSTORE DUP5 MSTORE KECCAK256 SLOAD SWAP1 MLOAD SWAP1 DUP2 MSTORE RETURN JUMPDEST POP DUP3 SWAP1 CALLVALUE PUSH2 0x267 JUMPI PUSH2 0x10A0 CALLDATASIZE PUSH2 0x12F7 JUMP JUMPDEST SWAP3 SWAP6 SWAP1 SWAP4 CALLER DUP7 MSTORE PUSH1 0x20 PUSH1 0x2 DUP2 MSTORE PUSH1 0xFF DUP4 DUP9 KECCAK256 SLOAD AND ISZERO PUSH2 0x11DD JUMPI DUP5 ISZERO PUSH2 0x1191 JUMPI DUP8 DUP8 MSTORE PUSH1 0x8 DUP2 MSTORE DUP3 DUP8 KECCAK256 SWAP8 PUSH1 0x1 DUP1 PUSH1 0xA0 SHL SUB SWAP3 DUP4 DUP7 AND SWAP10 DUP11 DUP11 MSTORE DUP4 MSTORE DUP5 DUP10 KECCAK256 SWAP4 DUP9 AND SWAP4 DUP5 DUP11 MSTORE DUP4 MSTORE DUP7 DUP6 DUP11 KECCAK256 SLOAD LT PUSH2 0x113F JUMPI POP DUP8 SWAP9 DUP2 PUSH2 0xC0F SWAP10 MSTORE PUSH1 0x8 DUP4 MSTORE DUP5 DUP11 KECCAK256 SWAP1 DUP11 MSTORE DUP3 MSTORE DUP4 DUP10 KECCAK256 DUP4 DUP11 MSTORE DUP3 MSTORE DUP4 DUP10 KECCAK256 PUSH2 0x111C DUP8 DUP3 SLOAD PUSH2 0x163C JUMP JUMPDEST SWAP1 SSTORE DUP9 MSTORE PUSH1 0x6 DUP2 MSTORE DUP3 DUP9 KECCAK256 SWAP2 DUP9 MSTORE MSTORE DUP6 KECCAK256 PUSH2 0x1138 DUP4 DUP3 SLOAD PUSH2 0x163C JUMP JUMPDEST SWAP1 SSTORE PUSH2 0x1649 JUMP JUMPDEST DUP5 MLOAD PUSH3 0x461BCD PUSH1 0xE5 SHL DUP2 MSTORE SWAP1 DUP2 ADD DUP4 SWAP1 MSTORE PUSH1 0x26 PUSH1 0x24 DUP3 ADD MSTORE PUSH32 0x54726561737572793A20496E73756666696369656E7420737570706F72742062 PUSH1 0x44 DUP3 ADD MSTORE PUSH6 0x616C616E6365 PUSH1 0xD0 SHL PUSH1 0x64 DUP3 ADD MSTORE PUSH1 0x84 SWAP1 REVERT JUMPDEST PUSH1 0x84 SWAP3 MLOAD SWAP2 PUSH3 0x461BCD PUSH1 0xE5 SHL DUP4 MSTORE DUP3 ADD MSTORE PUSH1 0x23 PUSH1 0x24 DUP3 ADD MSTORE PUSH32 0x54726561737572793A20496E76616C6964207769746864726177616C20616D6F PUSH1 0x44 DUP3 ADD MSTORE PUSH3 0x1D5B9D PUSH1 0xEA SHL PUSH1 0x64 DUP3 ADD MSTORE REVERT JUMPDEST PUSH1 0x84 SWAP3 MLOAD SWAP2 PUSH3 0x461BCD PUSH1 0xE5 SHL DUP4 MSTORE DUP3 ADD MSTORE PUSH1 0x38 PUSH1 0x24 DUP3 ADD MSTORE PUSH1 0x0 DUP1 MLOAD PUSH1 0x20 PUSH2 0x167A DUP4 CODECOPY DUP2 MLOAD SWAP2 MSTORE PUSH1 0x44 DUP3 ADD MSTORE PUSH32 0x6374732063616E20776974686472617720737570706F72740000000000000000 PUSH1 0x64 DUP3 ADD MSTORE REVERT JUMPDEST SWAP3 SWAP2 SWAP1 POP CALLVALUE PUSH2 0x1277 JUMPI DUP2 PUSH1 0x3 NOT CALLDATASIZE ADD SLT PUSH2 0x1277 JUMPI SWAP1 PUSH1 0x20 SWAP4 PUSH1 0xFF SWAP3 PUSH2 0x1254 PUSH2 0x127B JUMP JUMPDEST SWAP1 CALLDATALOAD DUP3 MSTORE PUSH1 0xA DUP7 MSTORE DUP3 DUP3 KECCAK256 PUSH1 0x1 PUSH1 0x1 PUSH1 0xA0 SHL SUB SWAP1 SWAP2 AND DUP3 MSTORE DUP6 MSTORE KECCAK256 SLOAD AND ISZERO ISZERO DUP2 MSTORE RETURN JUMPDEST DUP4 DUP1 REVERT JUMPDEST PUSH1 0x24 CALLDATALOAD SWAP1 PUSH1 0x1 PUSH1 0x1 PUSH1 0xA0 SHL SUB DUP3 AND DUP3 SUB PUSH2 0x1291 JUMPI JUMP JUMPDEST PUSH1 0x0 DUP1 REVERT JUMPDEST PUSH1 0x4 CALLDATALOAD SWAP1 PUSH1 0x1 PUSH1 0x1 PUSH1 0xA0 SHL SUB DUP3 AND DUP3 SUB PUSH2 0x1291 JUMPI JUMP JUMPDEST PUSH1 0x44 CALLDATALOAD SWAP1 PUSH1 0x1 PUSH1 0x1 PUSH1 0xA0 SHL SUB DUP3 AND DUP3 SUB PUSH2 0x1291 JUMPI JUMP JUMPDEST PUSH1 0x60 SWAP1 PUSH1 0x3 NOT ADD SLT PUSH2 0x1291 JUMPI PUSH1 0x4 CALLDATALOAD SWAP1 PUSH1 0x1 PUSH1 0x1 PUSH1 0xA0 SHL SUB SWAP1 PUSH1 0x24 CALLDATALOAD DUP3 DUP2 AND DUP2 SUB PUSH2 0x1291 JUMPI SWAP2 PUSH1 0x44 CALLDATALOAD SWAP1 DUP2 AND DUP2 SUB PUSH2 0x1291 JUMPI SWAP1 JUMP JUMPDEST PUSH1 0x80 SWAP1 PUSH1 0x3 NOT ADD SLT PUSH2 0x1291 JUMPI PUSH1 0x4 CALLDATALOAD SWAP1 PUSH1 0x1 PUSH1 0x1 PUSH1 0xA0 SHL SUB SWAP1 PUSH1 0x24 CALLDATALOAD DUP3 DUP2 AND DUP2 SUB PUSH2 0x1291 JUMPI SWAP2 PUSH1 0x44 CALLDATALOAD SWAP1 DUP2 AND DUP2 SUB PUSH2 0x1291 JUMPI SWAP1 PUSH1 0x64 CALLDATALOAD SWAP1 JUMP JUMPDEST PUSH1 0x60 SWAP1 PUSH1 0x3 NOT ADD SLT PUSH2 0x1291 JUMPI PUSH1 0x4 CALLDATALOAD SWAP1 PUSH1 0x24 CALLDATALOAD SWAP1 PUSH1 0x44 CALLDATALOAD PUSH1 0x1 PUSH1 0x1 PUSH1 0xA0 SHL SUB DUP2 AND DUP2 SUB PUSH2 0x1291 JUMPI SWAP1 JUMP JUMPDEST PUSH1 0x0 SLOAD PUSH1 0x1 PUSH1 0x1 PUSH1 0xA0 SHL SUB AND CALLER SUB PUSH2 0x136E JUMPI JUMP JUMPDEST PUSH1 0x40 MLOAD PUSH4 0x118CDAA7 PUSH1 0xE0 SHL DUP2 MSTORE CALLER PUSH1 0x4 DUP3 ADD MSTORE PUSH1 0x24 SWAP1 REVERT JUMPDEST SWAP1 PUSH2 0x1F4 SWAP2 DUP3 DUP2 MUL SWAP3 DUP2 DUP5 DIV EQ SWAP1 ISZERO OR ISZERO PUSH2 0x13B8 JUMPI PUSH2 0x2710 DUP1 SWAP3 DIV SWAP2 PUSH1 0x64 DUP4 MUL DUP4 DUP2 DIV PUSH1 0x64 EQ DUP5 ISZERO OR ISZERO PUSH2 0x13B8 JUMPI DIV SWAP1 JUMP JUMPDEST PUSH4 0x4E487B71 PUSH1 0xE0 SHL PUSH1 0x0 MSTORE PUSH1 0x11 PUSH1 0x4 MSTORE PUSH1 0x24 PUSH1 0x0 REVERT JUMPDEST ISZERO PUSH2 0x13D5 JUMPI JUMP JUMPDEST PUSH1 0x40 MLOAD PUSH3 0x461BCD PUSH1 0xE5 SHL DUP2 MSTORE PUSH1 0x20 PUSH1 0x4 DUP3 ADD MSTORE PUSH1 0x18 PUSH1 0x24 DUP3 ADD MSTORE PUSH32 0x54726561737572793A20496E76616C696420616D6F756E740000000000000000 PUSH1 0x44 DUP3 ADD MSTORE PUSH1 0x64 SWAP1 REVERT JUMPDEST SWAP1 PUSH1 0x1F DUP1 NOT SWAP2 ADD AND DUP2 ADD SWAP1 DUP2 LT PUSH8 0xFFFFFFFFFFFFFFFF DUP3 GT OR PUSH2 0x143C JUMPI PUSH1 0x40 MSTORE JUMP JUMPDEST PUSH4 0x4E487B71 PUSH1 0xE0 SHL PUSH1 0x0 MSTORE PUSH1 0x41 PUSH1 0x4 MSTORE PUSH1 0x24 PUSH1 0x0 REVERT JUMPDEST ISZERO PUSH2 0x1459 JUMPI JUMP JUMPDEST PUSH1 0x40 MLOAD PUSH3 0x461BCD PUSH1 0xE5 SHL DUP2 MSTORE PUSH1 0x20 PUSH1 0x4 DUP3 ADD MSTORE PUSH1 0x24 DUP1 DUP3 ADD MSTORE PUSH32 0x54726561737572793A20496E73756666696369656E7420746F6B656E2062616C PUSH1 0x44 DUP3 ADD MSTORE PUSH4 0x616E6365 PUSH1 0xE0 SHL PUSH1 0x64 DUP3 ADD MSTORE PUSH1 0x84 SWAP1 REVERT JUMPDEST ISZERO PUSH2 0x14B1 JUMPI JUMP JUMPDEST PUSH1 0x40 MLOAD PUSH3 0x461BCD PUSH1 0xE5 SHL DUP2 MSTORE PUSH1 0x20 PUSH1 0x4 DUP3 ADD MSTORE PUSH1 0x22 PUSH1 0x24 DUP3 ADD MSTORE PUSH32 0x54726561737572793A20496E73756666696369656E74204554482062616C616E PUSH1 0x44 DUP3 ADD MSTORE PUSH2 0x6365 PUSH1 0xF0 SHL PUSH1 0x64 DUP3 ADD MSTORE PUSH1 0x84 SWAP1 REVERT JUMPDEST RETURNDATASIZE ISZERO PUSH2 0x153C JUMPI RETURNDATASIZE SWAP1 PUSH8 0xFFFFFFFFFFFFFFFF DUP3 GT PUSH2 0x143C JUMPI PUSH1 0x40 MLOAD SWAP2 PUSH2 0x1530 PUSH1 0x1F DUP3 ADD PUSH1 0x1F NOT AND PUSH1 0x20 ADD DUP5 PUSH2 0x141A JUMP JUMPDEST DUP3 MSTORE RETURNDATASIZE PUSH1 0x0 PUSH1 0x20 DUP5 ADD RETURNDATACOPY JUMP JUMPDEST PUSH1 0x60 SWAP1 JUMP JUMPDEST PUSH1 0x40 MLOAD PUSH4 0xA9059CBB PUSH1 0xE0 SHL PUSH1 0x20 DUP3 ADD SWAP1 DUP2 MSTORE PUSH1 0x1 PUSH1 0x1 PUSH1 0xA0 SHL SUB SWAP4 DUP5 AND PUSH1 0x24 DUP4 ADD MSTORE PUSH1 0x44 DUP1 DUP4 ADD SWAP6 SWAP1 SWAP6 MSTORE SWAP4 DUP2 MSTORE SWAP1 SWAP3 PUSH1 0x80 DUP3 ADD SWAP1 PUSH8 0xFFFFFFFFFFFFFFFF DUP3 GT DUP4 DUP4 LT OR PUSH2 0x143C JUMPI PUSH1 0x20 SWAP3 PUSH1 0x0 SWAP3 PUSH1 0x40 MSTORE MLOAD SWAP1 DUP3 DUP7 GAS CALL ISZERO PUSH2 0x15D7 JUMPI PUSH1 0x0 MLOAD RETURNDATASIZE PUSH2 0x15CE JUMPI POP DUP1 DUP3 AND EXTCODESIZE ISZERO JUMPDEST PUSH2 0x15B4 JUMPI POP POP JUMP JUMPDEST PUSH1 0x40 MLOAD PUSH4 0x5274AFE7 PUSH1 0xE0 SHL DUP2 MSTORE SWAP2 AND PUSH1 0x4 DUP3 ADD MSTORE PUSH1 0x24 SWAP2 POP REVERT JUMPDEST PUSH1 0x1 EQ ISZERO PUSH2 0x15AC JUMP JUMPDEST PUSH1 0x40 MLOAD RETURNDATASIZE PUSH1 0x0 DUP3 RETURNDATACOPY RETURNDATASIZE SWAP1 REVERT JUMPDEST ISZERO PUSH2 0x15EA JUMPI JUMP JUMPDEST PUSH1 0x40 MLOAD PUSH3 0x461BCD PUSH1 0xE5 SHL DUP2 MSTORE PUSH1 0x20 PUSH1 0x4 DUP3 ADD MSTORE PUSH1 0x1D PUSH1 0x24 DUP3 ADD MSTORE PUSH32 0x54726561737572793A20455448207472616E73666572206661696C6564000000 PUSH1 0x44 DUP3 ADD MSTORE PUSH1 0x64 SWAP1 REVERT JUMPDEST SWAP2 SWAP1 DUP3 ADD DUP1 SWAP3 GT PUSH2 0x13B8 JUMPI JUMP JUMPDEST SWAP2 SWAP1 DUP3 SUB SWAP2 DUP3 GT PUSH2 0x13B8 JUMPI JUMP JUMPDEST SWAP2 PUSH1 0x1 PUSH1 0x1 PUSH1 0xA0 SHL SUB AND DUP1 PUSH2 0x166F JUMPI POP PUSH1 0x0 DUP1 DUP1 DUP1 SWAP4 PUSH2 0x166D SWAP6 GAS CALL PUSH2 0x9D0 PUSH2 0x1501 JUMP JUMPDEST JUMP JUMPDEST SWAP2 PUSH2 0x166D SWAP3 PUSH2 0x1541 JUMP INVALID SLOAD PUSH19 0x6561737572793A204F6E6C7920617574686F72 PUSH10 0x7A656420636F6E747261 LOG2 PUSH5 0x6970667358 0x22 SLT KECCAK256 PUSH2 0xCAA SMOD POP 0x4E CALLDATACOPY 0xEB EQ SAR 0xB2 LOG4 SWAP2 CODESIZE DUP12 PUSH27 0x5080FF3B236725DCC344A1DF05F49EE64736F6C63430008140033 "},"methodIdentifiers":{"PARTNER_FEE_BPS()":"41ee37d1","PLATFORM_FEE_BPS()":"539aa77f","authorizeContract(address)":"67561d93","authorizedContracts(address)":"d5b9221b","calculateFees(uint256)":"52238fdd","claimWinnings(uint256,address,address,uint256)":"5e0083da","deauthorizeContract(address)":"6e861c0e","distributeFees(address,uint256)":"48fef595","getMarketPool(uint256,address)":"7a3cf742","getOptionPool(uint256,uint256,address)":"dc4ce349","getSupportPool(uint256,address)":"4f44289d","getUserBet(uint256,address,address)":"553b7cbb","getUserSupport(uint256,address,address)":"256ba741","hasUserClaimed(uint256,address)":"07c7a72d","hasUserSupportClaimed(uint256,address)":"5d1c5820","marketManager()":"41ed2c12","marketPools(uint256,address)":"1abf8705","optionPools(uint256,uint256,address)":"f133a04f","owner()":"8da5cb5b","partner()":"be10862b","placeBet(uint256,address,address,uint256,uint256)":"e014601c","renounceOwnership()":"715018a6","setMarketManager(address)":"d82aff11","setPartner(address)":"a16d5960","supportMarket(uint256,address,address,uint256)":"c15d9807","supportPools(uint256,address)":"7de42634","transferOwnership(address)":"f2fde38b","userBetOptions(uint256,address,uint256)":"a24693ed","userBets(uint256,address,address)":"b90f9cb3","userClaimed(uint256,address)":"3beb9842","userSupportClaimed(uint256,address)":"2ff44b6f","userSupports(uint256,address,address)":"34eba166","withdraw(address,uint256,address)":"69328dec","withdrawSupport(uint256,address,address,uint256)":"2f7c165e"}}}}}