{"contracts/P2PTreasury.sol":{"PoolVault":{"abi":[{"inputs":[{"internalType":"address","name":"initialOwner","type":"address"},{"internalType":"address","name":"_partner","type":"address"}],"stateMutability":"nonpayable","type":"constructor"},{"inputs":[{"internalType":"address","name":"owner","type":"address"}],"name":"OwnableInvalidOwner","type":"error"},{"inputs":[{"internalType":"address","name":"account","type":"address"}],"name":"OwnableUnauthorizedAccount","type":"error"},{"inputs":[{"internalType":"address","name":"token","type":"address"}],"name":"SafeERC20FailedOperation","type":"error"},{"anonymous":false,"inputs":[{"indexed":true,"internalType":"address","name":"contractAddr","type":"address"}],"name":"ContractAuthorized","type":"event"},{"anonymous":false,"inputs":[{"indexed":true,"internalType":"address","name":"contractAddr","type":"address"}],"name":"ContractDeauthorized","type":"event"},{"anonymous":false,"inputs":[{"indexed":true,"internalType":"address","name":"token","type":"address"},{"indexed":false,"internalType":"uint256","name":"platformAmount","type":"uint256"},{"indexed":false,"internalType":"uint256","name":"partnerAmount","type":"uint256"}],"name":"FeesDistributed","type":"event"},{"anonymous":false,"inputs":[{"indexed":true,"internalType":"address","name":"token","type":"address"},{"indexed":false,"internalType":"uint256","name":"amount","type":"uint256"},{"indexed":true,"internalType":"address","name":"to","type":"address"}],"name":"FundsWithdrawn","type":"event"},{"anonymous":false,"inputs":[{"indexed":true,"internalType":"address","name":"oldManager","type":"address"},{"indexed":true,"internalType":"address","name":"newManager","type":"address"}],"name":"MarketManagerUpdated","type":"event"},{"anonymous":false,"inputs":[{"indexed":true,"internalType":"address","name":"previousOwner","type":"address"},{"indexed":true,"internalType":"address","name":"newOwner","type":"address"}],"name":"OwnershipTransferred","type":"event"},{"anonymous":false,"inputs":[{"indexed":true,"internalType":"address","name":"oldPartner","type":"address"},{"indexed":true,"internalType":"address","name":"newPartner","type":"address"}],"name":"PartnerUpdated","type":"event"},{"anonymous":false,"inputs":[{"indexed":true,"internalType":"address","name":"token","type":"address"},{"indexed":false,"internalType":"uint256","name":"amount","type":"uint256"},{"indexed":true,"internalType":"address","name":"to","type":"address"}],"name":"PlatformFundsWithdrawn","type":"event"},{"anonymous":false,"inputs":[{"indexed":true,"internalType":"address","name":"token","type":"address"},{"indexed":false,"internalType":"uint256","name":"amount","type":"uint256"},{"indexed":false,"internalType":"string","name":"reason","type":"string"}],"name":"PlatformPoolUpdated","type":"event"},{"inputs":[],"name":"PARTNER_FEE_BPS","outputs":[{"internalType":"uint256","name":"","type":"uint256"}],"stateMutability":"view","type":"function"},{"inputs":[],"name":"PLATFORM_FEE_BPS","outputs":[{"internalType":"uint256","name":"","type":"uint256"}],"stateMutability":"view","type":"function"},{"inputs":[{"internalType":"address","name":"token","type":"address"},{"internalType":"uint256","name":"amount","type":"uint256"}],"name":"addToPlatformPool","outputs":[],"stateMutability":"nonpayable","type":"function"},{"inputs":[{"internalType":"address","name":"contractAddr","type":"address"}],"name":"authorizeContract","outputs":[],"stateMutability":"nonpayable","type":"function"},{"inputs":[{"internalType":"address","name":"","type":"address"}],"name":"authorizedContracts","outputs":[{"internalType":"bool","name":"","type":"bool"}],"stateMutability":"view","type":"function"},{"inputs":[{"internalType":"uint256","name":"totalAmount","type":"uint256"}],"name":"calculateFees","outputs":[{"internalType":"uint256","name":"platformFee","type":"uint256"},{"internalType":"uint256","name":"partnerFee","type":"uint256"}],"stateMutability":"pure","type":"function"},{"inputs":[{"internalType":"uint256","name":"marketId","type":"uint256"},{"internalType":"address","name":"user","type":"address"},{"internalType":"address","name":"token","type":"address"},{"internalType":"uint256","name":"amount","type":"uint256"}],"name":"claimRefund","outputs":[],"stateMutability":"nonpayable","type":"function"},{"inputs":[{"internalType":"uint256","name":"marketId","type":"uint256"},{"internalType":"address","name":"user","type":"address"},{"internalType":"address","name":"token","type":"address"},{"internalType":"uint256","name":"amount","type":"uint256"}],"name":"claimWinnings","outputs":[],"stateMutability":"nonpayable","type":"function"},{"inputs":[{"internalType":"address","name":"contractAddr","type":"address"}],"name":"deauthorizeContract","outputs":[],"stateMutability":"nonpayable","type":"function"},{"inputs":[{"internalType":"address","name":"token","type":"address"},{"internalType":"uint256","name":"totalAmount","type":"uint256"}],"name":"distributeFees","outputs":[],"stateMutability":"nonpayable","type":"function"},{"inputs":[{"internalType":"uint256","name":"marketId","type":"uint256"},{"internalType":"address","name":"token","type":"address"},{"internalType":"uint256","name":"totalAmount","type":"uint256"}],"name":"distributeVerifierRewards","outputs":[],"stateMutability":"nonpayable","type":"function"},{"inputs":[{"internalType":"address[]","name":"tokens","type":"address[]"}],"name":"getAllPlatformPools","outputs":[{"internalType":"uint256[]","name":"balances","type":"uint256[]"}],"stateMutability":"view","type":"function"},{"inputs":[{"internalType":"address","name":"token","type":"address"}],"name":"getBalanceInfo","outputs":[{"internalType":"uint256","name":"contractBalance","type":"uint256"},{"internalType":"uint256","name":"platformPoolBalance","type":"uint256"}],"stateMutability":"view","type":"function"},{"inputs":[{"internalType":"uint256","name":"marketId","type":"uint256"},{"internalType":"address","name":"token","type":"address"}],"name":"getMarketPool","outputs":[{"internalType":"uint256","name":"","type":"uint256"}],"stateMutability":"view","type":"function"},{"inputs":[{"internalType":"uint256","name":"marketId","type":"uint256"},{"internalType":"uint256","name":"option","type":"uint256"},{"internalType":"address","name":"token","type":"address"}],"name":"getOptionPool","outputs":[{"internalType":"uint256","name":"","type":"uint256"}],"stateMutability":"view","type":"function"},{"inputs":[{"internalType":"address","name":"token","type":"address"}],"name":"getPlatformPool","outputs":[{"internalType":"uint256","name":"","type":"uint256"}],"stateMutability":"view","type":"function"},{"inputs":[{"internalType":"uint256","name":"marketId","type":"uint256"},{"internalType":"address","name":"token","type":"address"}],"name":"getSupportPool","outputs":[{"internalType":"uint256","name":"","type":"uint256"}],"stateMutability":"view","type":"function"},{"inputs":[{"internalType":"uint256","name":"marketId","type":"uint256"},{"internalType":"address","name":"user","type":"address"},{"internalType":"address","name":"token","type":"address"}],"name":"getUserStake","outputs":[{"internalType":"uint256","name":"","type":"uint256"}],"stateMutability":"view","type":"function"},{"inputs":[{"internalType":"uint256","name":"marketId","type":"uint256"},{"internalType":"address","name":"user","type":"address"},{"internalType":"address","name":"token","type":"address"}],"name":"getUserSupport","outputs":[{"internalType":"uint256","name":"","type":"uint256"}],"stateMutability":"view","type":"function"},{"inputs":[{"internalType":"uint256","name":"marketId","type":"uint256"},{"internalType":"address","name":"user","type":"address"}],"name":"hasUserClaimed","outputs":[{"internalType":"bool","name":"","type":"bool"}],"stateMutability":"view","type":"function"},{"inputs":[{"internalType":"uint256","name":"marketId","type":"uint256"},{"internalType":"address","name":"user","type":"address"}],"name":"hasUserSupportClaimed","outputs":[{"internalType":"bool","name":"","type":"bool"}],"stateMutability":"view","type":"function"},{"inputs":[],"name":"marketManager","outputs":[{"internalType":"address","name":"","type":"address"}],"stateMutability":"view","type":"function"},{"inputs":[{"internalType":"uint256","name":"","type":"uint256"},{"internalType":"address","name":"","type":"address"}],"name":"marketPools","outputs":[{"internalType":"uint256","name":"","type":"uint256"}],"stateMutability":"view","type":"function"},{"inputs":[{"internalType":"uint256","name":"","type":"uint256"},{"internalType":"uint256","name":"","type":"uint256"},{"internalType":"address","name":"","type":"address"}],"name":"optionPools","outputs":[{"internalType":"uint256","name":"","type":"uint256"}],"stateMutability":"view","type":"function"},{"inputs":[],"name":"owner","outputs":[{"internalType":"address","name":"","type":"address"}],"stateMutability":"view","type":"function"},{"inputs":[],"name":"partner","outputs":[{"internalType":"address","name":"","type":"address"}],"stateMutability":"view","type":"function"},{"inputs":[{"internalType":"uint256","name":"marketId","type":"uint256"},{"internalType":"address","name":"user","type":"address"},{"internalType":"address","name":"token","type":"address"},{"internalType":"uint256","name":"amount","type":"uint256"},{"internalType":"uint256","name":"option","type":"uint256"}],"name":"placeStake","outputs":[],"stateMutability":"nonpayable","type":"function"},{"inputs":[{"internalType":"address","name":"","type":"address"}],"name":"platformPools","outputs":[{"internalType":"uint256","name":"","type":"uint256"}],"stateMutability":"view","type":"function"},{"inputs":[],"name":"renounceOwnership","outputs":[],"stateMutability":"nonpayable","type":"function"},{"inputs":[{"internalType":"address","name":"_marketManager","type":"address"}],"name":"setMarketManager","outputs":[],"stateMutability":"nonpayable","type":"function"},{"inputs":[{"internalType":"address","name":"_partner","type":"address"}],"name":"setPartner","outputs":[],"stateMutability":"nonpayable","type":"function"},{"inputs":[{"internalType":"uint256","name":"marketId","type":"uint256"},{"internalType":"address","name":"user","type":"address"},{"internalType":"address","name":"token","type":"address"},{"internalType":"uint256","name":"amount","type":"uint256"}],"name":"supportMarket","outputs":[],"stateMutability":"nonpayable","type":"function"},{"inputs":[{"internalType":"uint256","name":"","type":"uint256"},{"internalType":"address","name":"","type":"address"}],"name":"supportPools","outputs":[{"internalType":"uint256","name":"","type":"uint256"}],"stateMutability":"view","type":"function"},{"inputs":[{"internalType":"address","name":"newOwner","type":"address"}],"name":"transferOwnership","outputs":[],"stateMutability":"nonpayable","type":"function"},{"inputs":[{"internalType":"address","name":"creator","type":"address"},{"internalType":"address","name":"token","type":"address"},{"internalType":"uint256","name":"amount","type":"uint256"}],"name":"transferToCreator","outputs":[],"stateMutability":"nonpayable","type":"function"},{"inputs":[{"internalType":"uint256","name":"","type":"uint256"},{"internalType":"address","name":"","type":"address"},{"internalType":"uint256","name":"","type":"uint256"}],"name":"userBetOptions","outputs":[{"internalType":"uint256","name":"","type":"uint256"}],"stateMutability":"view","type":"function"},{"inputs":[{"internalType":"uint256","name":"","type":"uint256"},{"internalType":"address","name":"","type":"address"}],"name":"userClaimed","outputs":[{"internalType":"bool","name":"","type":"bool"}],"stateMutability":"view","type":"function"},{"inputs":[{"internalType":"uint256","name":"","type":"uint256"},{"internalType":"address","name":"","type":"address"},{"internalType":"address","name":"","type":"address"}],"name":"userStakes","outputs":[{"internalType":"uint256","name":"","type":"uint256"}],"stateMutability":"view","type":"function"},{"inputs":[{"internalType":"uint256","name":"","type":"uint256"},{"internalType":"address","name":"","type":"address"}],"name":"userSupportClaimed","outputs":[{"internalType":"bool","name":"","type":"bool"}],"stateMutability":"view","type":"function"},{"inputs":[{"internalType":"uint256","name":"","type":"uint256"},{"internalType":"address","name":"","type":"address"},{"internalType":"address","name":"","type":"address"}],"name":"userSupports","outputs":[{"internalType":"uint256","name":"","type":"uint256"}],"stateMutability":"view","type":"function"},{"inputs":[{"internalType":"address","name":"token","type":"address"},{"internalType":"uint256","name":"amount","type":"uint256"},{"internalType":"address","name":"to","type":"address"}],"name":"withdraw","outputs":[],"stateMutability":"nonpayable","type":"function"},{"inputs":[{"internalType":"address","name":"token","type":"address"},{"internalType":"uint256","name":"amount","type":"uint256"},{"internalType":"address","name":"to","type":"address"}],"name":"withdrawPlatformFunds","outputs":[],"stateMutability":"nonpayable","type":"function"},{"inputs":[{"internalType":"uint256","name":"marketId","type":"uint256"},{"internalType":"address","name":"user","type":"address"},{"internalType":"address","name":"token","type":"address"},{"internalType":"uint256","name":"amount","type":"uint256"}],"name":"withdrawSupport","outputs":[],"stateMutability":"nonpayable","type":"function"},{"stateMutability":"payable","type":"receive"}],"evm":{"bytecode":{"linkReferences":{},"object":"608034620000de57601f620025f238819003918201601f19168301916001600160401b03831184841017620000e3578084926040948552833981010312620000de576200005a60206200005283620000f9565b9201620000f9565b906001600160a01b03908116908115620000c5576000549260018060a01b03199280848616176000558260405195167f8be0079c531659141344cd1fd0a4f28419497f9722a3daafe3b4186f6b6457e0600080a3169060015416176001556124e390816200010f8239f35b604051631e4fbdf760e01b815260006004820152602490fd5b600080fd5b634e487b7160e01b600052604160045260246000fd5b51906001600160a01b0382168203620000de5756fe60806040818152600480361015610021575b505050361561001f57600080fd5b005b600092833560e01c908163055c796b14611e625750806307c7a72d14611934578063112cd22314611c4b5780631abf870514611c0a578063256ba74114611a2e5780632f2e594e14610a2b5780632f7c165e14611a6d5780632ff44b6f1461156b57806334eba16614611a2e57806339adac4d1461197a5780633beb98421461193457806341ed2c121461190b57806341ee37d1146118ef57806348fef595146116c45780634f44289d14610a6a57806352238fdd1461169a578063539aa77f1461167d578063593f35f4146115b15780635d1c58201461156b5780635e0083da14611417578063674d20cb1461120557806367561d931461115a57806369328dec146110365780636c1b5c8a146110015780636e861c0e14610f9b5780636ee02a9b14610e84578063715018a614610e3957806375f63e7e14610b0b5780637a3cf74214610aab5780637de4263414610a6a578063847cf78214610a2b5780638da5cb5b14610a0357806395f410951461087d578063a16d5960146107bd578063a24693ed1461077f578063be10862b14610756578063c15d98071461063b578063d5b9221b146105fd578063d82aff1114610508578063dc4ce3491461027a578063f0824f33146102bc578063f133a04f1461027a5763f2fde38b0361001157346102765760203660031901126102765761021c611e96565b90610225611fbd565b6001600160a01b0391821692831561026057505082546001600160a01b03198116831784551660008051602061244e8339815191528380a380f35b51631e4fbdf760e01b8152908101849052602490fd5b8280fd5b5050346102b8578060209261028e36611f93565b9183526006865283832090835285528282206001600160a01b039091168252845220549051908152f35b5080fd5b509190346102b857806003193601126102b8576102d7611e96565b906024359133845260206002815260ff8386205416156104b35783156102fd8115612031565b6107d090818602918683041417156104a05785939291612710889204916103248388612109565b6001600160a01b0394851697909490886103ee579684916103566000805160206123ee83398151915299471015612123565b826103ca575b5050505b8688528152838720610373848254612116565b90558560008051602061242e833981519152608086518681528785820152601d888201527f44697265637420706c6174666f726d20706f6f6c206164646974696f6e0000006060820152a28351928352820152a280f35b81806103e6948193600154165af16103e061217a565b506121b9565b82888a61035c565b86516370a0823160e01b8152308482015290975083816024818c5afa908115610496578a91610457575b506000805160206123ee833981519152976104349110156120b1565b8380610442575b5050610360565b610450916001541689612216565b888361043b565b90508381813d831161048f575b61046e8183612078565b8101031261048b57516000805160206123ee833981519152610418565b8980fd5b503d610464565b87513d8c823e3d90fd5b634e487b7160e01b865260118752602486fd5b8560849184519162461bcd60e51b8352820152603c602482015260008051602061246e83398151915260448201527b18dd1cc818d85b88185919081d1bc81c1b185d199bdc9b481c1bdbdb60221b6064820152fd5b508290346102b85760203660031901126102b857610524611e96565b61052c611fbd565b6001600160a01b039081169182156105a95750600380546001600160a01b0319811684179091558284526002602052938320805460ff19166001179055919290918291167f6d5236c24f887cea37fd19d8fffc6c47b564af445baf220a6c7f9a58bb6ae04e8480a360008051602061240e8339815191528280a280f35b608490602086519162461bcd60e51b8352820152602860248201527f54726561737572793a20496e76616c6964206d61726b6574206d616e61676572604482015267206164647265737360c01b6064820152fd5b5050346102b85760203660031901126102b85760209160ff9082906001600160a01b03610628611e96565b1681526002855220541690519015158152f35b509190346102b85761064c36611efc565b9392959091953386526020916002835260ff8588205416156107055785156106c457508596816106bf9697526009835284882060018060a01b038092168952835284882093169283885282528387206106a6878254612116565b9055865260078152828620918652528320918254612116565b905580f35b606490838087519262461bcd60e51b845283015260248201527f54726561737572793a20496e76616c696420737570706f727420616d6f756e746044820152fd5b845162461bcd60e51b81529081018390526037602482015260008051602061246e8339815191526044820152766374732063616e20737570706f7274206d61726b65747360481b6064820152608490fd5b5050346102b857816003193601126102b85760015490516001600160a01b039091168152602090f35b5050346102b8578060209261079336611f69565b918352600a86528383206001600160a01b0390911683528552828220908252845220549051908152f35b5034610276576020366003190112610276576107d7611e96565b906107e0611fbd565b6001600160a01b03918216928315610830575050600180546001600160a01b031981168417909155167fc853be2b3168a7fe00e46da23214c5345a752dc61cd3300d7f255f8ae55345878380a380f35b906020608492519162461bcd60e51b8352820152602160248201527f54726561737572793a20496e76616c696420706172746e6572206164647265736044820152607360f81b6064820152fd5b509190346102b85760a03660031901126102b85782359061089c611eb1565b6001600160a01b039460443586811692908390036109ff5760643594608435913388526020936002855260ff878a205416156109b157871561096e57508798826106bf98995260088552868a20911690818a528452858920858a528452858920610907898254612116565b9055818952600a84528589209089528352848820828952835284882061092e888254612116565b905580885260058352848820848952835284882061094d888254612116565b90558752600682528387209087528152828620918652528320918254612116565b865162461bcd60e51b8152908101859052601e60248201527f54726561737572793a20496e76616c6964207374616b6520616d6f756e7400006044820152606490fd5b865162461bcd60e51b81529081018590526034602482015260008051602061246e8339815191526044820152736374732063616e20706c616365207374616b657360601b6064820152608490fd5b8580fd5b5050346102b857816003193601126102b857905490516001600160a01b039091168152602090f35b5050346102b85780602092610a3f36611ec7565b918352600886528383206001600160a01b039182168452865283832091168252845220549051908152f35b50346102765781600319360112610276576020928291610a88611eb1565b90358252600785528282206001600160a01b039091168252845220549051908152f35b503461027657816003193601126102765760209282610b04923591610ace611eb1565b838252600587528282206001600160a01b0390911680835290875282822054938252600787528282209082528652205490612116565b9051908152f35b509190346102b857610b1c36611f69565b9091923385526020946002865260ff828220541615610dd6578215610d9357815194632408c57b60e21b8652878601528085602481335afa948515610d87578195610cde575b50845115610c8c5784518015610c795783969296049281928415978815945b8851811015610bc057610b989086610b9d57612394565b610b81565b610bbb89896001600160a01b03610bb4858f6123a3565b511661234d565b612394565b5093509493909591968251808302928304141715610c6657610be29086612109565b9081610c13575b8251868152879081906001600160a01b0387169060008051602061248e833981519152908990a380f35b805115610c5357840151959650869560008051602061248e83398151915294939291610c4a918491906001600160a01b031661234d565b90919238610be9565b634e487b7160e01b875260328852602487fd5b634e487b7160e01b875260118852602487fd5b634e487b7160e01b825260128852602482fd5b815162461bcd60e51b8152808801879052602660248201527f54726561737572793a204e6f207265736f6c76696e672076657269666965727360448201526508199bdd5b9960d21b6064820152608490fd5b9094503d8086833e610cf08183612078565b81019086818303126109ff578051906001600160401b038211610d8357019080601f830112156109ff578151610d258161237d565b92610d3285519485612078565b818452888085019260051b820101928311610d7f578801905b828210610d5c575050509338610b62565b81516001600160a01b0381168103610d7b578152908801908801610d4b565b8880fd5b8780fd5b8680fd5b509051903d90823e3d90fd5b815162461bcd60e51b8152808801879052601f60248201527f54726561737572793a20496e76616c69642072657761726420616d6f756e74006044820152606490fd5b815162461bcd60e51b81528088018790526043602482015260008051602061246e83398151915260448201527f6374732063616e2064697374726962757465207665726966696572207265776160648201526272647360e81b608482015260a490fd5b8334610e815780600319360112610e8157610e52611fbd565b80546001600160a01b03198116825581906001600160a01b031660008051602061244e8339815191528280a380f35b80fd5b508234610e81576020806003193601126102b8578235916001600160401b038084116102b857366023850112156102b857838501359081116102b85760059460243683881b8701820111610f9757610ee18398979694959861237d565b93610eee88519586612078565b838552610efa8461237d565b858a019790601f1901368937865b858110610f505750505050505083519485948186019282875251809352850193925b828110610f3957505050500390f35b835185528695509381019392810192600101610f2a565b8381839c99989a9b9c1b8401013560018060a01b038116809103610d7f5790610f8c9188528589528b882054610f86828c6123a3565b52612394565b999897959699610f08565b8380fd5b5050346102b85760203660031901126102b857610fb6611e96565b610fbe611fbd565b6001600160a01b03168083526002602052908220805460ff191690557f54142b7cb3ceaa9e564243ce4cc2303723c842a1144192de6b3c594f68b16a9a8280a280f35b50346102765760203660031901126102765760209282916001600160a01b03611028611e96565b168252845220549051908152f35b50346102765761104536611f35565b919361104f611fbd565b6001600160a01b03838116958791906110698815156122b7565b611074851515612031565b1694856110bc5750906110b482808086958660008051602061248e833981519152996110a460209a471015612123565b5af16110ae61217a565b50612301565b51908152a380f35b90508151906370a0823160e01b82523090820152602081602481885afa908115611150578791611117575b50906111128360008051602061248e8339815191529561110c826020979610156120b1565b87612216565b6110b4565b929190506020833d8211611148575b8161113360209383612078565b81010312610d835791519091906111126110e7565b3d9150611126565b82513d89823e3d90fd5b50903461027657602036600319011261027657611175611e96565b61117d611fbd565b6001600160a01b03169182156111b8575081835260026020528220805460ff1916600117905560008051602061240e8339815191528280a280f35b6020608492519162461bcd60e51b8352820152602260248201527f54726561737572793a20496e76616c696420636f6e7472616374206164647265604482015261737360f01b6064820152fd5b50346102765761121436611f35565b91939092611220611fbd565b6001600160a01b03838116956112378715156122b7565b611242861515612031565b16948587526020938285528584892054106113bf5787879182825284875285822061126e898254612109565b9055826112f557916000805160206123ce83398151915287896112b385808060809d9c9a9860008051602061242e8339815191529f60199d9b6110a482471015612123565b8651908152a38688528352808088205493815194855284015282015278141b185d199bdc9b48199d5b991cc81dda5d1a191c985dd85b603a1b6060820152a280f35b91505083516370a0823160e01b8152308482015285816024818b5afa9081156113b557908892918a91611369575b50916000805160206123ce83398151915287896113648160809b9a989661135e60008051602061242e8339815191529e60199c9a10156120b1565b86612216565b6112b3565b8095935087809795939892503d83116113ae575b6113878183612078565b81010312610d7b5792519394919390929187916000805160206123ce833981519152611323565b503d61137d565b85513d8b823e3d90fd5b835162461bcd60e51b8152808401869052602c60248201527f54726561737572793a20496e73756666696369656e7420706c6174666f726d2060448201526b706f6f6c2062616c616e636560a01b6064820152608490fd5b508290346102b85761142836611efc565b9295909333865260206002815260ff83882054161561151e5784156114d457878752600b81528287206001600160a01b0385168089529082528388205490929060ff16611497575086976114949752600b8152828820918852528520600160ff1982541617905561234d565b80f35b60649184519162461bcd60e51b83528201526019602482015278151c99585cdd5c9e4e88105b1c9958591e4818db185a5b5959603a1b6044820152fd5b608492519162461bcd60e51b8352820152602160248201527f54726561737572793a20496e76616c69642077696e6e696e677320616d6f756e6044820152601d60fa1b6064820152fd5b608492519162461bcd60e51b83528201526036602482015260008051602061246e8339815191526044820152756374732063616e20636c61696d2077696e6e696e677360501b6064820152fd5b50346102765781600319360112610276578160209360ff9261158b611eb1565b90358252600c86528282206001600160a01b039091168252855220549151911615158152f35b508290346102b8576115c236611efc565b925092338552600260205260ff86862054161561162e5782156115eb575061149493945061234d565b606490602087519162461bcd60e51b8352820152601f60248201527f54726561737572793a20496e76616c696420726566756e6420616d6f756e74006044820152fd5b608490602087519162461bcd60e51b83528201526035602482015260008051602061246e8339815191526044820152746374732063616e20636c61696d20726566756e647360581b6064820152fd5b5050346102b857816003193601126102b857602090516101f48152f35b508234610e81576020366003190112610e8157506116b89035611fe9565b82519182526020820152f35b509190346102b857806003193601126102b8576116df611e96565b90602435913384526020946002865260ff83862054161561189e5784956117098596951515612031565b61171286611fe9565b6001600160a01b03948516979194909391886117f6579684916117466000805160206123ee83398151915299471015612123565b826117d8575b50506117589085612109565b90878952825261176c858920918254612116565b90558560008051602061242e8339815191526117c961178b8587612109565b87519182918260809181526040602082015260186040820152772932b3bab630b9103332b2903234b9ba3934b13aba34b7b760411b60608201520190565b0390a28351928352820152a280f35b81806117ee948193600154165af16103e061217a565b82883861174c565b86516370a0823160e01b8152308482015290975083816024818c5afa908115610496578a91611863575b506000805160206123ee8339815191529761183c9110156120b1565b838061184e575b611758915085612109565b61185c916001541689612216565b3883611843565b90508381813d8311611897575b61187a8183612078565b8101031261048b57516000805160206123ee833981519152611820565b503d611870565b825162461bcd60e51b81529081018690526037602482015260008051602061246e8339815191526044820152766374732063616e2064697374726962757465206665657360481b6064820152608490fd5b5050346102b857816003193601126102b8576020905160648152f35b5050346102b857816003193601126102b85760035490516001600160a01b039091168152602090f35b50346102765781600319360112610276578160209360ff92611954611eb1565b90358252600b86528282206001600160a01b039091168252855220549151911615158152f35b508290346102b85760209182600319360112610e8157611998611e96565b6001600160a01b031680825282845284822054928490826119c4575050505047915b8351928352820152f35b60248751809481936370a0823160e01b835230908301525afa918215611a235780926119f3575b5050916119ba565b9091508382813d8311611a1c575b611a0b8183612078565b81010312610e8157505184806119eb565b503d611a01565b8551903d90823e3d90fd5b5050346102b85780602092611a4236611ec7565b918352600986528383206001600160a01b039182168452865283832091168252845220549051908152f35b508290346102b857611a7e36611efc565b9295909333865260206002815260ff838820541615611bbb578415611b6f57878752600981528287209760018060a01b0392838616998a8a52835284892093881693848a52835286858a205410611b1d5750879881611494995260098352848a20908a528252838920838a528252838920611afa878254612109565b9055885260078152828820918852528520611b16838254612109565b905561234d565b845162461bcd60e51b8152908101839052602660248201527f54726561737572793a20496e73756666696369656e7420737570706f72742062604482015265616c616e636560d01b6064820152608490fd5b608492519162461bcd60e51b8352820152602360248201527f54726561737572793a20496e76616c6964207769746864726177616c20616d6f6044820152621d5b9d60ea1b6064820152fd5b608492519162461bcd60e51b83528201526038602482015260008051602061246e83398151915260448201527718dd1cc818d85b881dda5d1a191c985dc81cdd5c1c1bdc9d60421b6064820152fd5b50346102765781600319360112610276576020928291611c28611eb1565b90358252600585528282206001600160a01b039091168252845220549051908152f35b503461027657606036600319011261027657611c65611e96565b611c6d611eb1565b926044353386526020916002835260ff818820541615611e0e57611c92821515612031565b6001600160a01b03848116968715611dc15716948786611d3d57808085809798611cc183969798471015612123565b5af1611ccb61217a565b5015611ceb57505190815260008051602061248e8339815191529190a380f35b83608492519162461bcd60e51b8352820152602860248201527f54726561737572793a20455448207472616e7366657220746f2063726561746f6044820152671c8819985a5b195960c21b6064820152fd5b50938151946370a0823160e01b865230908601528385602481895afa948515611db7578895611d88575b50826111129161110c8260008051602061248e8339815191529810156120b1565b94508385813d8311611db0575b611d9f8183612078565b81010312610d7f5793519382611d67565b503d611d95565b82513d8a823e3d90fd5b825162461bcd60e51b8152808801869052602160248201527f54726561737572793a20496e76616c69642063726561746f72206164647265736044820152607360f81b6064820152608490fd5b5162461bcd60e51b8152808501839052603b602482015260008051602061246e83398151915260448201527a31ba399031b0b7103a3930b739b332b9103a379031b932b0ba37b960291b6064820152608490fd5b9291905034610f97576020366003190112610f9757602093906001600160a01b03611e8b611e96565b168252845220548152f35b600435906001600160a01b0382168203611eac57565b600080fd5b602435906001600160a01b0382168203611eac57565b6060906003190112611eac57600435906001600160a01b03906024358281168103611eac57916044359081168103611eac5790565b6080906003190112611eac57600435906001600160a01b03906024358281168103611eac57916044359081168103611eac579060643590565b6060906003190112611eac576001600160a01b036004358181168103611eac5791602435916044359081168103611eac5790565b6060906003190112611eac57600435906024356001600160a01b0381168103611eac579060443590565b6060906003190112611eac5760043590602435906044356001600160a01b0381168103611eac5790565b6000546001600160a01b03163303611fd157565b60405163118cdaa760e01b8152336004820152602490fd5b906101f49182810292818404149015171561201b5761271080920491606483028381046064148415171561201b570490565b634e487b7160e01b600052601160045260246000fd5b1561203857565b60405162461bcd60e51b8152602060048201526018602482015277151c99585cdd5c9e4e88125b9d985b1a5908185b5bdd5b9d60421b6044820152606490fd5b601f909101601f19168101906001600160401b0382119082101761209b57604052565b634e487b7160e01b600052604160045260246000fd5b156120b857565b60405162461bcd60e51b8152602060048201526024808201527f54726561737572793a20496e73756666696369656e7420746f6b656e2062616c604482015263616e636560e01b6064820152608490fd5b9190820391821161201b57565b9190820180921161201b57565b1561212a57565b60405162461bcd60e51b815260206004820152602260248201527f54726561737572793a20496e73756666696369656e74204554482062616c616e604482015261636560f01b6064820152608490fd5b3d156121b4573d906001600160401b03821161209b57604051916121a8601f8201601f191660200184612078565b82523d6000602084013e565b606090565b156121c057565b60405162461bcd60e51b815260206004820152602860248201527f54726561737572793a20455448207472616e7366657220746f20706172746e656044820152671c8819985a5b195960c21b6064820152608490fd5b60405163a9059cbb60e01b602082019081526001600160a01b039384166024830152604480830195909552938152909260808201906001600160401b0382118383101761209b57602092600092604052519082865af1156122ab576000513d6122a257508082163b155b612288575050565b604051635274afe760e01b81529116600482015260249150fd5b60011415612280565b6040513d6000823e3d90fd5b156122be57565b60405162461bcd60e51b815260206004820152601b60248201527a151c99585cdd5c9e4e88125b9d985b1a59081c9958da5c1a595b9d602a1b6044820152606490fd5b1561230857565b60405162461bcd60e51b815260206004820152601d60248201527f54726561737572793a20455448207472616e73666572206661696c65640000006044820152606490fd5b916001600160a01b0316806123735750600080808093612371955af16110ae61217a565b565b9161237192612216565b6001600160401b03811161209b5760051b60200190565b600019811461201b5760010190565b80518210156123b75760209160051b010190565b634e487b7160e01b600052603260045260246000fdfe0d40d374fecc4dca2567cc5ab864d037f0cd1f1e9bda38c23aff691cd74629e085da6ab72d2b48932522aea80adb8ca4fab6cdeb87bc2e7f6c03fd78d3b2100e8983a1f3c3cb45c24c8226b5b805e3b6eb49686530b808534b2a920129eff6511118cdec69d543750c0863ccd71a7d9183543cd6696b187370ce3b76a9003bf88be0079c531659141344cd1fd0a4f28419497f9722a3daafe3b4186f6b6457e054726561737572793a204f6e6c7920617574686f72697a656420636f6e747261e9171aeff46c37ab955b8aff908e14ae9732bd06634fa131226cfe5c25bfd2fba264697066735822122071927f84279a380f70bc34bcd93fada2a5fa81c08f1e3111faee734a320d587664736f6c63430008140033","opcodes":"PUSH1 0x80 CALLVALUE PUSH3 0xDE JUMPI PUSH1 0x1F PUSH3 0x25F2 CODESIZE DUP2 SWAP1 SUB SWAP2 DUP3 ADD PUSH1 0x1F NOT AND DUP4 ADD SWAP2 PUSH1 0x1 PUSH1 0x1 PUSH1 0x40 SHL SUB DUP4 GT DUP5 DUP5 LT OR PUSH3 0xE3 JUMPI DUP1 DUP5 SWAP3 PUSH1 0x40 SWAP5 DUP6 MSTORE DUP4 CODECOPY DUP2 ADD SUB SLT PUSH3 0xDE JUMPI PUSH3 0x5A PUSH1 0x20 PUSH3 0x52 DUP4 PUSH3 0xF9 JUMP JUMPDEST SWAP3 ADD PUSH3 0xF9 JUMP JUMPDEST SWAP1 PUSH1 0x1 PUSH1 0x1 PUSH1 0xA0 SHL SUB SWAP1 DUP2 AND SWAP1 DUP2 ISZERO PUSH3 0xC5 JUMPI PUSH1 0x0 SLOAD SWAP3 PUSH1 0x1 DUP1 PUSH1 0xA0 SHL SUB NOT SWAP3 DUP1 DUP5 DUP7 AND OR PUSH1 0x0 SSTORE DUP3 PUSH1 0x40 MLOAD SWAP6 AND PUSH32 0x8BE0079C531659141344CD1FD0A4F28419497F9722A3DAAFE3B4186F6B6457E0 PUSH1 0x0 DUP1 LOG3 AND SWAP1 PUSH1 0x1 SLOAD AND OR PUSH1 0x1 SSTORE PUSH2 0x24E3 SWAP1 DUP2 PUSH3 0x10F DUP3 CODECOPY RETURN JUMPDEST PUSH1 0x40 MLOAD PUSH4 0x1E4FBDF7 PUSH1 0xE0 SHL DUP2 MSTORE PUSH1 0x0 PUSH1 0x4 DUP3 ADD MSTORE PUSH1 0x24 SWAP1 REVERT JUMPDEST PUSH1 0x0 DUP1 REVERT JUMPDEST PUSH4 0x4E487B71 PUSH1 0xE0 SHL PUSH1 0x0 MSTORE PUSH1 0x41 PUSH1 0x4 MSTORE PUSH1 0x24 PUSH1 0x0 REVERT JUMPDEST MLOAD SWAP1 PUSH1 0x1 PUSH1 0x1 PUSH1 0xA0 SHL SUB DUP3 AND DUP3 SUB PUSH3 0xDE JUMPI JUMP INVALID PUSH1 0x80 PUSH1 0x40 DUP2 DUP2 MSTORE PUSH1 0x4 DUP1 CALLDATASIZE LT ISZERO PUSH2 0x21 JUMPI JUMPDEST POP POP POP CALLDATASIZE ISZERO PUSH2 0x1F JUMPI PUSH1 0x0 DUP1 REVERT JUMPDEST STOP JUMPDEST PUSH1 0x0 SWAP3 DUP4 CALLDATALOAD PUSH1 0xE0 SHR SWAP1 DUP2 PUSH4 0x55C796B EQ PUSH2 0x1E62 JUMPI POP DUP1 PUSH4 0x7C7A72D EQ PUSH2 0x1934 JUMPI DUP1 PUSH4 0x112CD223 EQ PUSH2 0x1C4B JUMPI DUP1 PUSH4 0x1ABF8705 EQ PUSH2 0x1C0A JUMPI DUP1 PUSH4 0x256BA741 EQ PUSH2 0x1A2E JUMPI DUP1 PUSH4 0x2F2E594E EQ PUSH2 0xA2B JUMPI DUP1 PUSH4 0x2F7C165E EQ PUSH2 0x1A6D JUMPI DUP1 PUSH4 0x2FF44B6F EQ PUSH2 0x156B JUMPI DUP1 PUSH4 0x34EBA166 EQ PUSH2 0x1A2E JUMPI DUP1 PUSH4 0x39ADAC4D EQ PUSH2 0x197A JUMPI DUP1 PUSH4 0x3BEB9842 EQ PUSH2 0x1934 JUMPI DUP1 PUSH4 0x41ED2C12 EQ PUSH2 0x190B JUMPI DUP1 PUSH4 0x41EE37D1 EQ PUSH2 0x18EF JUMPI DUP1 PUSH4 0x48FEF595 EQ PUSH2 0x16C4 JUMPI DUP1 PUSH4 0x4F44289D EQ PUSH2 0xA6A JUMPI DUP1 PUSH4 0x52238FDD EQ PUSH2 0x169A JUMPI DUP1 PUSH4 0x539AA77F EQ PUSH2 0x167D JUMPI DUP1 PUSH4 0x593F35F4 EQ PUSH2 0x15B1 JUMPI DUP1 PUSH4 0x5D1C5820 EQ PUSH2 0x156B JUMPI DUP1 PUSH4 0x5E0083DA EQ PUSH2 0x1417 JUMPI DUP1 PUSH4 0x674D20CB EQ PUSH2 0x1205 JUMPI DUP1 PUSH4 0x67561D93 EQ PUSH2 0x115A JUMPI DUP1 PUSH4 0x69328DEC EQ PUSH2 0x1036 JUMPI DUP1 PUSH4 0x6C1B5C8A EQ PUSH2 0x1001 JUMPI DUP1 PUSH4 0x6E861C0E EQ PUSH2 0xF9B JUMPI DUP1 PUSH4 0x6EE02A9B EQ PUSH2 0xE84 JUMPI DUP1 PUSH4 0x715018A6 EQ PUSH2 0xE39 JUMPI DUP1 PUSH4 0x75F63E7E EQ PUSH2 0xB0B JUMPI DUP1 PUSH4 0x7A3CF742 EQ PUSH2 0xAAB JUMPI DUP1 PUSH4 0x7DE42634 EQ PUSH2 0xA6A JUMPI DUP1 PUSH4 0x847CF782 EQ PUSH2 0xA2B JUMPI DUP1 PUSH4 0x8DA5CB5B EQ PUSH2 0xA03 JUMPI DUP1 PUSH4 0x95F41095 EQ PUSH2 0x87D JUMPI DUP1 PUSH4 0xA16D5960 EQ PUSH2 0x7BD JUMPI DUP1 PUSH4 0xA24693ED EQ PUSH2 0x77F JUMPI DUP1 PUSH4 0xBE10862B EQ PUSH2 0x756 JUMPI DUP1 PUSH4 0xC15D9807 EQ PUSH2 0x63B JUMPI DUP1 PUSH4 0xD5B9221B EQ PUSH2 0x5FD JUMPI DUP1 PUSH4 0xD82AFF11 EQ PUSH2 0x508 JUMPI DUP1 PUSH4 0xDC4CE349 EQ PUSH2 0x27A JUMPI DUP1 PUSH4 0xF0824F33 EQ PUSH2 0x2BC JUMPI DUP1 PUSH4 0xF133A04F EQ PUSH2 0x27A JUMPI PUSH4 0xF2FDE38B SUB PUSH2 0x11 JUMPI CALLVALUE PUSH2 0x276 JUMPI PUSH1 0x20 CALLDATASIZE PUSH1 0x3 NOT ADD SLT PUSH2 0x276 JUMPI PUSH2 0x21C PUSH2 0x1E96 JUMP JUMPDEST SWAP1 PUSH2 0x225 PUSH2 0x1FBD JUMP JUMPDEST PUSH1 0x1 PUSH1 0x1 PUSH1 0xA0 SHL SUB SWAP2 DUP3 AND SWAP3 DUP4 ISZERO PUSH2 0x260 JUMPI POP POP DUP3 SLOAD PUSH1 0x1 PUSH1 0x1 PUSH1 0xA0 SHL SUB NOT DUP2 AND DUP4 OR DUP5 SSTORE AND PUSH1 0x0 DUP1 MLOAD PUSH1 0x20 PUSH2 0x244E DUP4 CODECOPY DUP2 MLOAD SWAP2 MSTORE DUP4 DUP1 LOG3 DUP1 RETURN JUMPDEST MLOAD PUSH4 0x1E4FBDF7 PUSH1 0xE0 SHL DUP2 MSTORE SWAP1 DUP2 ADD DUP5 SWAP1 MSTORE PUSH1 0x24 SWAP1 REVERT JUMPDEST DUP3 DUP1 REVERT JUMPDEST POP POP CALLVALUE PUSH2 0x2B8 JUMPI DUP1 PUSH1 0x20 SWAP3 PUSH2 0x28E CALLDATASIZE PUSH2 0x1F93 JUMP JUMPDEST SWAP2 DUP4 MSTORE PUSH1 0x6 DUP7 MSTORE DUP4 DUP4 KECCAK256 SWAP1 DUP4 MSTORE DUP6 MSTORE DUP3 DUP3 KECCAK256 PUSH1 0x1 PUSH1 0x1 PUSH1 0xA0 SHL SUB SWAP1 SWAP2 AND DUP3 MSTORE DUP5 MSTORE KECCAK256 SLOAD SWAP1 MLOAD SWAP1 DUP2 MSTORE RETURN JUMPDEST POP DUP1 REVERT JUMPDEST POP SWAP2 SWAP1 CALLVALUE PUSH2 0x2B8 JUMPI DUP1 PUSH1 0x3 NOT CALLDATASIZE ADD SLT PUSH2 0x2B8 JUMPI PUSH2 0x2D7 PUSH2 0x1E96 JUMP JUMPDEST SWAP1 PUSH1 0x24 CALLDATALOAD SWAP2 CALLER DUP5 MSTORE PUSH1 0x20 PUSH1 0x2 DUP2 MSTORE PUSH1 0xFF DUP4 DUP7 KECCAK256 SLOAD AND ISZERO PUSH2 0x4B3 JUMPI DUP4 ISZERO PUSH2 0x2FD DUP2 ISZERO PUSH2 0x2031 JUMP JUMPDEST PUSH2 0x7D0 SWAP1 DUP2 DUP7 MUL SWAP2 DUP7 DUP4 DIV EQ OR ISZERO PUSH2 0x4A0 JUMPI DUP6 SWAP4 SWAP3 SWAP2 PUSH2 0x2710 DUP9 SWAP3 DIV SWAP2 PUSH2 0x324 DUP4 DUP9 PUSH2 0x2109 JUMP JUMPDEST PUSH1 0x1 PUSH1 0x1 PUSH1 0xA0 SHL SUB SWAP5 DUP6 AND SWAP8 SWAP1 SWAP5 SWAP1 DUP9 PUSH2 0x3EE JUMPI SWAP7 DUP5 SWAP2 PUSH2 0x356 PUSH1 0x0 DUP1 MLOAD PUSH1 0x20 PUSH2 0x23EE DUP4 CODECOPY DUP2 MLOAD SWAP2 MSTORE SWAP10 SELFBALANCE LT ISZERO PUSH2 0x2123 JUMP JUMPDEST DUP3 PUSH2 0x3CA JUMPI JUMPDEST POP POP POP JUMPDEST DUP7 DUP9 MSTORE DUP2 MSTORE DUP4 DUP8 KECCAK256 PUSH2 0x373 DUP5 DUP3 SLOAD PUSH2 0x2116 JUMP JUMPDEST SWAP1 SSTORE DUP6 PUSH1 0x0 DUP1 MLOAD PUSH1 0x20 PUSH2 0x242E DUP4 CODECOPY DUP2 MLOAD SWAP2 MSTORE PUSH1 0x80 DUP7 MLOAD DUP7 DUP2 MSTORE DUP8 DUP6 DUP3 ADD MSTORE PUSH1 0x1D DUP9 DUP3 ADD MSTORE PUSH32 0x44697265637420706C6174666F726D20706F6F6C206164646974696F6E000000 PUSH1 0x60 DUP3 ADD MSTORE LOG2 DUP4 MLOAD SWAP3 DUP4 MSTORE DUP3 ADD MSTORE LOG2 DUP1 RETURN JUMPDEST DUP2 DUP1 PUSH2 0x3E6 SWAP5 DUP2 SWAP4 PUSH1 0x1 SLOAD AND GAS CALL PUSH2 0x3E0 PUSH2 0x217A JUMP JUMPDEST POP PUSH2 0x21B9 JUMP JUMPDEST DUP3 DUP9 DUP11 PUSH2 0x35C JUMP JUMPDEST DUP7 MLOAD PUSH4 0x70A08231 PUSH1 0xE0 SHL DUP2 MSTORE ADDRESS DUP5 DUP3 ADD MSTORE SWAP1 SWAP8 POP DUP4 DUP2 PUSH1 0x24 DUP2 DUP13 GAS STATICCALL SWAP1 DUP2 ISZERO PUSH2 0x496 JUMPI DUP11 SWAP2 PUSH2 0x457 JUMPI JUMPDEST POP PUSH1 0x0 DUP1 MLOAD PUSH1 0x20 PUSH2 0x23EE DUP4 CODECOPY DUP2 MLOAD SWAP2 MSTORE SWAP8 PUSH2 0x434 SWAP2 LT ISZERO PUSH2 0x20B1 JUMP JUMPDEST DUP4 DUP1 PUSH2 0x442 JUMPI JUMPDEST POP POP PUSH2 0x360 JUMP JUMPDEST PUSH2 0x450 SWAP2 PUSH1 0x1 SLOAD AND DUP10 PUSH2 0x2216 JUMP JUMPDEST DUP9 DUP4 PUSH2 0x43B JUMP JUMPDEST SWAP1 POP DUP4 DUP2 DUP2 RETURNDATASIZE DUP4 GT PUSH2 0x48F JUMPI JUMPDEST PUSH2 0x46E DUP2 DUP4 PUSH2 0x2078 JUMP JUMPDEST DUP2 ADD SUB SLT PUSH2 0x48B JUMPI MLOAD PUSH1 0x0 DUP1 MLOAD PUSH1 0x20 PUSH2 0x23EE DUP4 CODECOPY DUP2 MLOAD SWAP2 MSTORE PUSH2 0x418 JUMP JUMPDEST DUP10 DUP1 REVERT JUMPDEST POP RETURNDATASIZE PUSH2 0x464 JUMP JUMPDEST DUP8 MLOAD RETURNDATASIZE DUP13 DUP3 RETURNDATACOPY RETURNDATASIZE SWAP1 REVERT JUMPDEST PUSH4 0x4E487B71 PUSH1 0xE0 SHL DUP7 MSTORE PUSH1 0x11 DUP8 MSTORE PUSH1 0x24 DUP7 REVERT JUMPDEST DUP6 PUSH1 0x84 SWAP2 DUP5 MLOAD SWAP2 PUSH3 0x461BCD PUSH1 0xE5 SHL DUP4 MSTORE DUP3 ADD MSTORE PUSH1 0x3C PUSH1 0x24 DUP3 ADD MSTORE PUSH1 0x0 DUP1 MLOAD PUSH1 0x20 PUSH2 0x246E DUP4 CODECOPY DUP2 MLOAD SWAP2 MSTORE PUSH1 0x44 DUP3 ADD MSTORE PUSH28 0x18DD1CC818D85B88185919081D1BC81C1B185D199BDC9B481C1BDBDB PUSH1 0x22 SHL PUSH1 0x64 DUP3 ADD MSTORE REVERT JUMPDEST POP DUP3 SWAP1 CALLVALUE PUSH2 0x2B8 JUMPI PUSH1 0x20 CALLDATASIZE PUSH1 0x3 NOT ADD SLT PUSH2 0x2B8 JUMPI PUSH2 0x524 PUSH2 0x1E96 JUMP JUMPDEST PUSH2 0x52C PUSH2 0x1FBD JUMP JUMPDEST PUSH1 0x1 PUSH1 0x1 PUSH1 0xA0 SHL SUB SWAP1 DUP2 AND SWAP2 DUP3 ISZERO PUSH2 0x5A9 JUMPI POP PUSH1 0x3 DUP1 SLOAD PUSH1 0x1 PUSH1 0x1 PUSH1 0xA0 SHL SUB NOT DUP2 AND DUP5 OR SWAP1 SWAP2 SSTORE DUP3 DUP5 MSTORE PUSH1 0x2 PUSH1 0x20 MSTORE SWAP4 DUP4 KECCAK256 DUP1 SLOAD PUSH1 0xFF NOT AND PUSH1 0x1 OR SWAP1 SSTORE SWAP2 SWAP3 SWAP1 SWAP2 DUP3 SWAP2 AND PUSH32 0x6D5236C24F887CEA37FD19D8FFFC6C47B564AF445BAF220A6C7F9A58BB6AE04E DUP5 DUP1 LOG3 PUSH1 0x0 DUP1 MLOAD PUSH1 0x20 PUSH2 0x240E DUP4 CODECOPY DUP2 MLOAD SWAP2 MSTORE DUP3 DUP1 LOG2 DUP1 RETURN JUMPDEST PUSH1 0x84 SWAP1 PUSH1 0x20 DUP7 MLOAD SWAP2 PUSH3 0x461BCD PUSH1 0xE5 SHL DUP4 MSTORE DUP3 ADD MSTORE PUSH1 0x28 PUSH1 0x24 DUP3 ADD MSTORE PUSH32 0x54726561737572793A20496E76616C6964206D61726B6574206D616E61676572 PUSH1 0x44 DUP3 ADD MSTORE PUSH8 0x2061646472657373 PUSH1 0xC0 SHL PUSH1 0x64 DUP3 ADD MSTORE REVERT JUMPDEST POP POP CALLVALUE PUSH2 0x2B8 JUMPI PUSH1 0x20 CALLDATASIZE PUSH1 0x3 NOT ADD SLT PUSH2 0x2B8 JUMPI PUSH1 0x20 SWAP2 PUSH1 0xFF SWAP1 DUP3 SWAP1 PUSH1 0x1 PUSH1 0x1 PUSH1 0xA0 SHL SUB PUSH2 0x628 PUSH2 0x1E96 JUMP JUMPDEST AND DUP2 MSTORE PUSH1 0x2 DUP6 MSTORE KECCAK256 SLOAD AND SWAP1 MLOAD SWAP1 ISZERO ISZERO DUP2 MSTORE RETURN JUMPDEST POP SWAP2 SWAP1 CALLVALUE PUSH2 0x2B8 JUMPI PUSH2 0x64C CALLDATASIZE PUSH2 0x1EFC JUMP JUMPDEST SWAP4 SWAP3 SWAP6 SWAP1 SWAP2 SWAP6 CALLER DUP7 MSTORE PUSH1 0x20 SWAP2 PUSH1 0x2 DUP4 MSTORE PUSH1 0xFF DUP6 DUP9 KECCAK256 SLOAD AND ISZERO PUSH2 0x705 JUMPI DUP6 ISZERO PUSH2 0x6C4 JUMPI POP DUP6 SWAP7 DUP2 PUSH2 0x6BF SWAP7 SWAP8 MSTORE PUSH1 0x9 DUP4 MSTORE DUP5 DUP9 KECCAK256 PUSH1 0x1 DUP1 PUSH1 0xA0 SHL SUB DUP1 SWAP3 AND DUP10 MSTORE DUP4 MSTORE DUP5 DUP9 KECCAK256 SWAP4 AND SWAP3 DUP4 DUP9 MSTORE DUP3 MSTORE DUP4 DUP8 KECCAK256 PUSH2 0x6A6 DUP8 DUP3 SLOAD PUSH2 0x2116 JUMP JUMPDEST SWAP1 SSTORE DUP7 MSTORE PUSH1 0x7 DUP2 MSTORE DUP3 DUP7 KECCAK256 SWAP2 DUP7 MSTORE MSTORE DUP4 KECCAK256 SWAP2 DUP3 SLOAD PUSH2 0x2116 JUMP JUMPDEST SWAP1 SSTORE DUP1 RETURN JUMPDEST PUSH1 0x64 SWAP1 DUP4 DUP1 DUP8 MLOAD SWAP3 PUSH3 0x461BCD PUSH1 0xE5 SHL DUP5 MSTORE DUP4 ADD MSTORE PUSH1 0x24 DUP3 ADD MSTORE PUSH32 0x54726561737572793A20496E76616C696420737570706F727420616D6F756E74 PUSH1 0x44 DUP3 ADD MSTORE REVERT JUMPDEST DUP5 MLOAD PUSH3 0x461BCD PUSH1 0xE5 SHL DUP2 MSTORE SWAP1 DUP2 ADD DUP4 SWAP1 MSTORE PUSH1 0x37 PUSH1 0x24 DUP3 ADD MSTORE PUSH1 0x0 DUP1 MLOAD PUSH1 0x20 PUSH2 0x246E DUP4 CODECOPY DUP2 MLOAD SWAP2 MSTORE PUSH1 0x44 DUP3 ADD MSTORE PUSH23 0x6374732063616E20737570706F7274206D61726B657473 PUSH1 0x48 SHL PUSH1 0x64 DUP3 ADD MSTORE PUSH1 0x84 SWAP1 REVERT JUMPDEST POP POP CALLVALUE PUSH2 0x2B8 JUMPI DUP2 PUSH1 0x3 NOT CALLDATASIZE ADD SLT PUSH2 0x2B8 JUMPI PUSH1 0x1 SLOAD SWAP1 MLOAD PUSH1 0x1 PUSH1 0x1 PUSH1 0xA0 SHL SUB SWAP1 SWAP2 AND DUP2 MSTORE PUSH1 0x20 SWAP1 RETURN JUMPDEST POP POP CALLVALUE PUSH2 0x2B8 JUMPI DUP1 PUSH1 0x20 SWAP3 PUSH2 0x793 CALLDATASIZE PUSH2 0x1F69 JUMP JUMPDEST SWAP2 DUP4 MSTORE PUSH1 0xA DUP7 MSTORE DUP4 DUP4 KECCAK256 PUSH1 0x1 PUSH1 0x1 PUSH1 0xA0 SHL SUB SWAP1 SWAP2 AND DUP4 MSTORE DUP6 MSTORE DUP3 DUP3 KECCAK256 SWAP1 DUP3 MSTORE DUP5 MSTORE KECCAK256 SLOAD SWAP1 MLOAD SWAP1 DUP2 MSTORE RETURN JUMPDEST POP CALLVALUE PUSH2 0x276 JUMPI PUSH1 0x20 CALLDATASIZE PUSH1 0x3 NOT ADD SLT PUSH2 0x276 JUMPI PUSH2 0x7D7 PUSH2 0x1E96 JUMP JUMPDEST SWAP1 PUSH2 0x7E0 PUSH2 0x1FBD JUMP JUMPDEST PUSH1 0x1 PUSH1 0x1 PUSH1 0xA0 SHL SUB SWAP2 DUP3 AND SWAP3 DUP4 ISZERO PUSH2 0x830 JUMPI POP POP PUSH1 0x1 DUP1 SLOAD PUSH1 0x1 PUSH1 0x1 PUSH1 0xA0 SHL SUB NOT DUP2 AND DUP5 OR SWAP1 SWAP2 SSTORE AND PUSH32 0xC853BE2B3168A7FE00E46DA23214C5345A752DC61CD3300D7F255F8AE5534587 DUP4 DUP1 LOG3 DUP1 RETURN JUMPDEST SWAP1 PUSH1 0x20 PUSH1 0x84 SWAP3 MLOAD SWAP2 PUSH3 0x461BCD PUSH1 0xE5 SHL DUP4 MSTORE DUP3 ADD MSTORE PUSH1 0x21 PUSH1 0x24 DUP3 ADD MSTORE PUSH32 0x54726561737572793A20496E76616C696420706172746E657220616464726573 PUSH1 0x44 DUP3 ADD MSTORE PUSH1 0x73 PUSH1 0xF8 SHL PUSH1 0x64 DUP3 ADD MSTORE REVERT JUMPDEST POP SWAP2 SWAP1 CALLVALUE PUSH2 0x2B8 JUMPI PUSH1 0xA0 CALLDATASIZE PUSH1 0x3 NOT ADD SLT PUSH2 0x2B8 JUMPI DUP3 CALLDATALOAD SWAP1 PUSH2 0x89C PUSH2 0x1EB1 JUMP JUMPDEST PUSH1 0x1 PUSH1 0x1 PUSH1 0xA0 SHL SUB SWAP5 PUSH1 0x44 CALLDATALOAD DUP7 DUP2 AND SWAP3 SWAP1 DUP4 SWAP1 SUB PUSH2 0x9FF JUMPI PUSH1 0x64 CALLDATALOAD SWAP5 PUSH1 0x84 CALLDATALOAD SWAP2 CALLER DUP9 MSTORE PUSH1 0x20 SWAP4 PUSH1 0x2 DUP6 MSTORE PUSH1 0xFF DUP8 DUP11 KECCAK256 SLOAD AND ISZERO PUSH2 0x9B1 JUMPI DUP8 ISZERO PUSH2 0x96E JUMPI POP DUP8 SWAP9 DUP3 PUSH2 0x6BF SWAP9 SWAP10 MSTORE PUSH1 0x8 DUP6 MSTORE DUP7 DUP11 KECCAK256 SWAP2 AND SWAP1 DUP2 DUP11 MSTORE DUP5 MSTORE DUP6 DUP10 KECCAK256 DUP6 DUP11 MSTORE DUP5 MSTORE DUP6 DUP10 KECCAK256 PUSH2 0x907 DUP10 DUP3 SLOAD PUSH2 0x2116 JUMP JUMPDEST SWAP1 SSTORE DUP2 DUP10 MSTORE PUSH1 0xA DUP5 MSTORE DUP6 DUP10 KECCAK256 SWAP1 DUP10 MSTORE DUP4 MSTORE DUP5 DUP9 KECCAK256 DUP3 DUP10 MSTORE DUP4 MSTORE DUP5 DUP9 KECCAK256 PUSH2 0x92E DUP9 DUP3 SLOAD PUSH2 0x2116 JUMP JUMPDEST SWAP1 SSTORE DUP1 DUP9 MSTORE PUSH1 0x5 DUP4 MSTORE DUP5 DUP9 KECCAK256 DUP5 DUP10 MSTORE DUP4 MSTORE DUP5 DUP9 KECCAK256 PUSH2 0x94D DUP9 DUP3 SLOAD PUSH2 0x2116 JUMP JUMPDEST SWAP1 SSTORE DUP8 MSTORE PUSH1 0x6 DUP3 MSTORE DUP4 DUP8 KECCAK256 SWAP1 DUP8 MSTORE DUP2 MSTORE DUP3 DUP7 KECCAK256 SWAP2 DUP7 MSTORE MSTORE DUP4 KECCAK256 SWAP2 DUP3 SLOAD PUSH2 0x2116 JUMP JUMPDEST DUP7 MLOAD PUSH3 0x461BCD PUSH1 0xE5 SHL DUP2 MSTORE SWAP1 DUP2 ADD DUP6 SWAP1 MSTORE PUSH1 0x1E PUSH1 0x24 DUP3 ADD MSTORE PUSH32 0x54726561737572793A20496E76616C6964207374616B6520616D6F756E740000 PUSH1 0x44 DUP3 ADD MSTORE PUSH1 0x64 SWAP1 REVERT JUMPDEST DUP7 MLOAD PUSH3 0x461BCD PUSH1 0xE5 SHL DUP2 MSTORE SWAP1 DUP2 ADD DUP6 SWAP1 MSTORE PUSH1 0x34 PUSH1 0x24 DUP3 ADD MSTORE PUSH1 0x0 DUP1 MLOAD PUSH1 0x20 PUSH2 0x246E DUP4 CODECOPY DUP2 MLOAD SWAP2 MSTORE PUSH1 0x44 DUP3 ADD MSTORE PUSH20 0x6374732063616E20706C616365207374616B6573 PUSH1 0x60 SHL PUSH1 0x64 DUP3 ADD MSTORE PUSH1 0x84 SWAP1 REVERT JUMPDEST DUP6 DUP1 REVERT JUMPDEST POP POP CALLVALUE PUSH2 0x2B8 JUMPI DUP2 PUSH1 0x3 NOT CALLDATASIZE ADD SLT PUSH2 0x2B8 JUMPI SWAP1 SLOAD SWAP1 MLOAD PUSH1 0x1 PUSH1 0x1 PUSH1 0xA0 SHL SUB SWAP1 SWAP2 AND DUP2 MSTORE PUSH1 0x20 SWAP1 RETURN JUMPDEST POP POP CALLVALUE PUSH2 0x2B8 JUMPI DUP1 PUSH1 0x20 SWAP3 PUSH2 0xA3F CALLDATASIZE PUSH2 0x1EC7 JUMP JUMPDEST SWAP2 DUP4 MSTORE PUSH1 0x8 DUP7 MSTORE DUP4 DUP4 KECCAK256 PUSH1 0x1 PUSH1 0x1 PUSH1 0xA0 SHL SUB SWAP2 DUP3 AND DUP5 MSTORE DUP7 MSTORE DUP4 DUP4 KECCAK256 SWAP2 AND DUP3 MSTORE DUP5 MSTORE KECCAK256 SLOAD SWAP1 MLOAD SWAP1 DUP2 MSTORE RETURN JUMPDEST POP CALLVALUE PUSH2 0x276 JUMPI DUP2 PUSH1 0x3 NOT CALLDATASIZE ADD SLT PUSH2 0x276 JUMPI PUSH1 0x20 SWAP3 DUP3 SWAP2 PUSH2 0xA88 PUSH2 0x1EB1 JUMP JUMPDEST SWAP1 CALLDATALOAD DUP3 MSTORE PUSH1 0x7 DUP6 MSTORE DUP3 DUP3 KECCAK256 PUSH1 0x1 PUSH1 0x1 PUSH1 0xA0 SHL SUB SWAP1 SWAP2 AND DUP3 MSTORE DUP5 MSTORE KECCAK256 SLOAD SWAP1 MLOAD SWAP1 DUP2 MSTORE RETURN JUMPDEST POP CALLVALUE PUSH2 0x276 JUMPI DUP2 PUSH1 0x3 NOT CALLDATASIZE ADD SLT PUSH2 0x276 JUMPI PUSH1 0x20 SWAP3 DUP3 PUSH2 0xB04 SWAP3 CALLDATALOAD SWAP2 PUSH2 0xACE PUSH2 0x1EB1 JUMP JUMPDEST DUP4 DUP3 MSTORE PUSH1 0x5 DUP8 MSTORE DUP3 DUP3 KECCAK256 PUSH1 0x1 PUSH1 0x1 PUSH1 0xA0 SHL SUB SWAP1 SWAP2 AND DUP1 DUP4 MSTORE SWAP1 DUP8 MSTORE DUP3 DUP3 KECCAK256 SLOAD SWAP4 DUP3 MSTORE PUSH1 0x7 DUP8 MSTORE DUP3 DUP3 KECCAK256 SWAP1 DUP3 MSTORE DUP7 MSTORE KECCAK256 SLOAD SWAP1 PUSH2 0x2116 JUMP JUMPDEST SWAP1 MLOAD SWAP1 DUP2 MSTORE RETURN JUMPDEST POP SWAP2 SWAP1 CALLVALUE PUSH2 0x2B8 JUMPI PUSH2 0xB1C CALLDATASIZE PUSH2 0x1F69 JUMP JUMPDEST SWAP1 SWAP2 SWAP3 CALLER DUP6 MSTORE PUSH1 0x20 SWAP5 PUSH1 0x2 DUP7 MSTORE PUSH1 0xFF DUP3 DUP3 KECCAK256 SLOAD AND ISZERO PUSH2 0xDD6 JUMPI DUP3 ISZERO PUSH2 0xD93 JUMPI DUP2 MLOAD SWAP5 PUSH4 0x2408C57B PUSH1 0xE2 SHL DUP7 MSTORE DUP8 DUP7 ADD MSTORE DUP1 DUP6 PUSH1 0x24 DUP2 CALLER GAS STATICCALL SWAP5 DUP6 ISZERO PUSH2 0xD87 JUMPI DUP2 SWAP6 PUSH2 0xCDE JUMPI JUMPDEST POP DUP5 MLOAD ISZERO PUSH2 0xC8C JUMPI DUP5 MLOAD DUP1 ISZERO PUSH2 0xC79 JUMPI DUP4 SWAP7 SWAP3 SWAP7 DIV SWAP3 DUP2 SWAP3 DUP5 ISZERO SWAP8 DUP9 ISZERO SWAP5 JUMPDEST DUP9 MLOAD DUP2 LT ISZERO PUSH2 0xBC0 JUMPI PUSH2 0xB98 SWAP1 DUP7 PUSH2 0xB9D JUMPI PUSH2 0x2394 JUMP JUMPDEST PUSH2 0xB81 JUMP JUMPDEST PUSH2 0xBBB DUP10 DUP10 PUSH1 0x1 PUSH1 0x1 PUSH1 0xA0 SHL SUB PUSH2 0xBB4 DUP6 DUP16 PUSH2 0x23A3 JUMP JUMPDEST MLOAD AND PUSH2 0x234D JUMP JUMPDEST PUSH2 0x2394 JUMP JUMPDEST POP SWAP4 POP SWAP5 SWAP4 SWAP1 SWAP6 SWAP2 SWAP7 DUP3 MLOAD DUP1 DUP4 MUL SWAP3 DUP4 DIV EQ OR ISZERO PUSH2 0xC66 JUMPI PUSH2 0xBE2 SWAP1 DUP7 PUSH2 0x2109 JUMP JUMPDEST SWAP1 DUP2 PUSH2 0xC13 JUMPI JUMPDEST DUP3 MLOAD DUP7 DUP2 MSTORE DUP8 SWAP1 DUP2 SWAP1 PUSH1 0x1 PUSH1 0x1 PUSH1 0xA0 SHL SUB DUP8 AND SWAP1 PUSH1 0x0 DUP1 MLOAD PUSH1 0x20 PUSH2 0x248E DUP4 CODECOPY DUP2 MLOAD SWAP2 MSTORE SWAP1 DUP10 SWAP1 LOG3 DUP1 RETURN JUMPDEST DUP1 MLOAD ISZERO PUSH2 0xC53 JUMPI DUP5 ADD MLOAD SWAP6 SWAP7 POP DUP7 SWAP6 PUSH1 0x0 DUP1 MLOAD PUSH1 0x20 PUSH2 0x248E DUP4 CODECOPY DUP2 MLOAD SWAP2 MSTORE SWAP5 SWAP4 SWAP3 SWAP2 PUSH2 0xC4A SWAP2 DUP5 SWAP2 SWAP1 PUSH1 0x1 PUSH1 0x1 PUSH1 0xA0 SHL SUB AND PUSH2 0x234D JUMP JUMPDEST SWAP1 SWAP2 SWAP3 CODESIZE PUSH2 0xBE9 JUMP JUMPDEST PUSH4 0x4E487B71 PUSH1 0xE0 SHL DUP8 MSTORE PUSH1 0x32 DUP9 MSTORE PUSH1 0x24 DUP8 REVERT JUMPDEST PUSH4 0x4E487B71 PUSH1 0xE0 SHL DUP8 MSTORE PUSH1 0x11 DUP9 MSTORE PUSH1 0x24 DUP8 REVERT JUMPDEST PUSH4 0x4E487B71 PUSH1 0xE0 SHL DUP3 MSTORE PUSH1 0x12 DUP9 MSTORE PUSH1 0x24 DUP3 REVERT JUMPDEST DUP2 MLOAD PUSH3 0x461BCD PUSH1 0xE5 SHL DUP2 MSTORE DUP1 DUP9 ADD DUP8 SWAP1 MSTORE PUSH1 0x26 PUSH1 0x24 DUP3 ADD MSTORE PUSH32 0x54726561737572793A204E6F207265736F6C76696E6720766572696669657273 PUSH1 0x44 DUP3 ADD MSTORE PUSH6 0x8199BDD5B99 PUSH1 0xD2 SHL PUSH1 0x64 DUP3 ADD MSTORE PUSH1 0x84 SWAP1 REVERT JUMPDEST SWAP1 SWAP5 POP RETURNDATASIZE DUP1 DUP7 DUP4 RETURNDATACOPY PUSH2 0xCF0 DUP2 DUP4 PUSH2 0x2078 JUMP JUMPDEST DUP2 ADD SWAP1 DUP7 DUP2 DUP4 SUB SLT PUSH2 0x9FF JUMPI DUP1 MLOAD SWAP1 PUSH1 0x1 PUSH1 0x1 PUSH1 0x40 SHL SUB DUP3 GT PUSH2 0xD83 JUMPI ADD SWAP1 DUP1 PUSH1 0x1F DUP4 ADD SLT ISZERO PUSH2 0x9FF JUMPI DUP2 MLOAD PUSH2 0xD25 DUP2 PUSH2 0x237D JUMP JUMPDEST SWAP3 PUSH2 0xD32 DUP6 MLOAD SWAP5 DUP6 PUSH2 0x2078 JUMP JUMPDEST DUP2 DUP5 MSTORE DUP9 DUP1 DUP6 ADD SWAP3 PUSH1 0x5 SHL DUP3 ADD ADD SWAP3 DUP4 GT PUSH2 0xD7F JUMPI DUP9 ADD SWAP1 JUMPDEST DUP3 DUP3 LT PUSH2 0xD5C JUMPI POP POP POP SWAP4 CODESIZE PUSH2 0xB62 JUMP JUMPDEST DUP2 MLOAD PUSH1 0x1 PUSH1 0x1 PUSH1 0xA0 SHL SUB DUP2 AND DUP2 SUB PUSH2 0xD7B JUMPI DUP2 MSTORE SWAP1 DUP9 ADD SWAP1 DUP9 ADD PUSH2 0xD4B JUMP JUMPDEST DUP9 DUP1 REVERT JUMPDEST DUP8 DUP1 REVERT JUMPDEST DUP7 DUP1 REVERT JUMPDEST POP SWAP1 MLOAD SWAP1 RETURNDATASIZE SWAP1 DUP3 RETURNDATACOPY RETURNDATASIZE SWAP1 REVERT JUMPDEST DUP2 MLOAD PUSH3 0x461BCD PUSH1 0xE5 SHL DUP2 MSTORE DUP1 DUP9 ADD DUP8 SWAP1 MSTORE PUSH1 0x1F PUSH1 0x24 DUP3 ADD MSTORE PUSH32 0x54726561737572793A20496E76616C69642072657761726420616D6F756E7400 PUSH1 0x44 DUP3 ADD MSTORE PUSH1 0x64 SWAP1 REVERT JUMPDEST DUP2 MLOAD PUSH3 0x461BCD PUSH1 0xE5 SHL DUP2 MSTORE DUP1 DUP9 ADD DUP8 SWAP1 MSTORE PUSH1 0x43 PUSH1 0x24 DUP3 ADD MSTORE PUSH1 0x0 DUP1 MLOAD PUSH1 0x20 PUSH2 0x246E DUP4 CODECOPY DUP2 MLOAD SWAP2 MSTORE PUSH1 0x44 DUP3 ADD MSTORE PUSH32 0x6374732063616E20646973747269627574652076657269666965722072657761 PUSH1 0x64 DUP3 ADD MSTORE PUSH3 0x726473 PUSH1 0xE8 SHL PUSH1 0x84 DUP3 ADD MSTORE PUSH1 0xA4 SWAP1 REVERT JUMPDEST DUP4 CALLVALUE PUSH2 0xE81 JUMPI DUP1 PUSH1 0x3 NOT CALLDATASIZE ADD SLT PUSH2 0xE81 JUMPI PUSH2 0xE52 PUSH2 0x1FBD JUMP JUMPDEST DUP1 SLOAD PUSH1 0x1 PUSH1 0x1 PUSH1 0xA0 SHL SUB NOT DUP2 AND DUP3 SSTORE DUP2 SWAP1 PUSH1 0x1 PUSH1 0x1 PUSH1 0xA0 SHL SUB AND PUSH1 0x0 DUP1 MLOAD PUSH1 0x20 PUSH2 0x244E DUP4 CODECOPY DUP2 MLOAD SWAP2 MSTORE DUP3 DUP1 LOG3 DUP1 RETURN JUMPDEST DUP1 REVERT JUMPDEST POP DUP3 CALLVALUE PUSH2 0xE81 JUMPI PUSH1 0x20 DUP1 PUSH1 0x3 NOT CALLDATASIZE ADD SLT PUSH2 0x2B8 JUMPI DUP3 CALLDATALOAD SWAP2 PUSH1 0x1 PUSH1 0x1 PUSH1 0x40 SHL SUB DUP1 DUP5 GT PUSH2 0x2B8 JUMPI CALLDATASIZE PUSH1 0x23 DUP6 ADD SLT ISZERO PUSH2 0x2B8 JUMPI DUP4 DUP6 ADD CALLDATALOAD SWAP1 DUP2 GT PUSH2 0x2B8 JUMPI PUSH1 0x5 SWAP5 PUSH1 0x24 CALLDATASIZE DUP4 DUP9 SHL DUP8 ADD DUP3 ADD GT PUSH2 0xF97 JUMPI PUSH2 0xEE1 DUP4 SWAP9 SWAP8 SWAP7 SWAP5 SWAP6 SWAP9 PUSH2 0x237D JUMP JUMPDEST SWAP4 PUSH2 0xEEE DUP9 MLOAD SWAP6 DUP7 PUSH2 0x2078 JUMP JUMPDEST DUP4 DUP6 MSTORE PUSH2 0xEFA DUP5 PUSH2 0x237D JUMP JUMPDEST DUP6 DUP11 ADD SWAP8 SWAP1 PUSH1 0x1F NOT ADD CALLDATASIZE DUP10 CALLDATACOPY DUP7 JUMPDEST DUP6 DUP2 LT PUSH2 0xF50 JUMPI POP POP POP POP POP POP DUP4 MLOAD SWAP5 DUP6 SWAP5 DUP2 DUP7 ADD SWAP3 DUP3 DUP8 MSTORE MLOAD DUP1 SWAP4 MSTORE DUP6 ADD SWAP4 SWAP3 JUMPDEST DUP3 DUP2 LT PUSH2 0xF39 JUMPI POP POP POP POP SUB SWAP1 RETURN JUMPDEST DUP4 MLOAD DUP6 MSTORE DUP7 SWAP6 POP SWAP4 DUP2 ADD SWAP4 SWAP3 DUP2 ADD SWAP3 PUSH1 0x1 ADD PUSH2 0xF2A JUMP JUMPDEST DUP4 DUP2 DUP4 SWAP13 SWAP10 SWAP9 SWAP11 SWAP12 SWAP13 SHL DUP5 ADD ADD CALLDATALOAD PUSH1 0x1 DUP1 PUSH1 0xA0 SHL SUB DUP2 AND DUP1 SWAP2 SUB PUSH2 0xD7F JUMPI SWAP1 PUSH2 0xF8C SWAP2 DUP9 MSTORE DUP6 DUP10 MSTORE DUP12 DUP9 KECCAK256 SLOAD PUSH2 0xF86 DUP3 DUP13 PUSH2 0x23A3 JUMP JUMPDEST MSTORE PUSH2 0x2394 JUMP JUMPDEST SWAP10 SWAP9 SWAP8 SWAP6 SWAP7 SWAP10 PUSH2 0xF08 JUMP JUMPDEST DUP4 DUP1 REVERT JUMPDEST POP POP CALLVALUE PUSH2 0x2B8 JUMPI PUSH1 0x20 CALLDATASIZE PUSH1 0x3 NOT ADD SLT PUSH2 0x2B8 JUMPI PUSH2 0xFB6 PUSH2 0x1E96 JUMP JUMPDEST PUSH2 0xFBE PUSH2 0x1FBD JUMP JUMPDEST PUSH1 0x1 PUSH1 0x1 PUSH1 0xA0 SHL SUB AND DUP1 DUP4 MSTORE PUSH1 0x2 PUSH1 0x20 MSTORE SWAP1 DUP3 KECCAK256 DUP1 SLOAD PUSH1 0xFF NOT AND SWAP1 SSTORE PUSH32 0x54142B7CB3CEAA9E564243CE4CC2303723C842A1144192DE6B3C594F68B16A9A DUP3 DUP1 LOG2 DUP1 RETURN JUMPDEST POP CALLVALUE PUSH2 0x276 JUMPI PUSH1 0x20 CALLDATASIZE PUSH1 0x3 NOT ADD SLT PUSH2 0x276 JUMPI PUSH1 0x20 SWAP3 DUP3 SWAP2 PUSH1 0x1 PUSH1 0x1 PUSH1 0xA0 SHL SUB PUSH2 0x1028 PUSH2 0x1E96 JUMP JUMPDEST AND DUP3 MSTORE DUP5 MSTORE KECCAK256 SLOAD SWAP1 MLOAD SWAP1 DUP2 MSTORE RETURN JUMPDEST POP CALLVALUE PUSH2 0x276 JUMPI PUSH2 0x1045 CALLDATASIZE PUSH2 0x1F35 JUMP JUMPDEST SWAP2 SWAP4 PUSH2 0x104F PUSH2 0x1FBD JUMP JUMPDEST PUSH1 0x1 PUSH1 0x1 PUSH1 0xA0 SHL SUB DUP4 DUP2 AND SWAP6 DUP8 SWAP2 SWAP1 PUSH2 0x1069 DUP9 ISZERO ISZERO PUSH2 0x22B7 JUMP JUMPDEST PUSH2 0x1074 DUP6 ISZERO ISZERO PUSH2 0x2031 JUMP JUMPDEST AND SWAP5 DUP6 PUSH2 0x10BC JUMPI POP SWAP1 PUSH2 0x10B4 DUP3 DUP1 DUP1 DUP7 SWAP6 DUP7 PUSH1 0x0 DUP1 MLOAD PUSH1 0x20 PUSH2 0x248E DUP4 CODECOPY DUP2 MLOAD SWAP2 MSTORE SWAP10 PUSH2 0x10A4 PUSH1 0x20 SWAP11 SELFBALANCE LT ISZERO PUSH2 0x2123 JUMP JUMPDEST GAS CALL PUSH2 0x10AE PUSH2 0x217A JUMP JUMPDEST POP PUSH2 0x2301 JUMP JUMPDEST MLOAD SWAP1 DUP2 MSTORE LOG3 DUP1 RETURN JUMPDEST SWAP1 POP DUP2 MLOAD SWAP1 PUSH4 0x70A08231 PUSH1 0xE0 SHL DUP3 MSTORE ADDRESS SWAP1 DUP3 ADD MSTORE PUSH1 0x20 DUP2 PUSH1 0x24 DUP2 DUP9 GAS STATICCALL SWAP1 DUP2 ISZERO PUSH2 0x1150 JUMPI DUP8 SWAP2 PUSH2 0x1117 JUMPI JUMPDEST POP SWAP1 PUSH2 0x1112 DUP4 PUSH1 0x0 DUP1 MLOAD PUSH1 0x20 PUSH2 0x248E DUP4 CODECOPY DUP2 MLOAD SWAP2 MSTORE SWAP6 PUSH2 0x110C DUP3 PUSH1 0x20 SWAP8 SWAP7 LT ISZERO PUSH2 0x20B1 JUMP JUMPDEST DUP8 PUSH2 0x2216 JUMP JUMPDEST PUSH2 0x10B4 JUMP JUMPDEST SWAP3 SWAP2 SWAP1 POP PUSH1 0x20 DUP4 RETURNDATASIZE DUP3 GT PUSH2 0x1148 JUMPI JUMPDEST DUP2 PUSH2 0x1133 PUSH1 0x20 SWAP4 DUP4 PUSH2 0x2078 JUMP JUMPDEST DUP2 ADD SUB SLT PUSH2 0xD83 JUMPI SWAP2 MLOAD SWAP1 SWAP2 SWAP1 PUSH2 0x1112 PUSH2 0x10E7 JUMP JUMPDEST RETURNDATASIZE SWAP2 POP PUSH2 0x1126 JUMP JUMPDEST DUP3 MLOAD RETURNDATASIZE DUP10 DUP3 RETURNDATACOPY RETURNDATASIZE SWAP1 REVERT JUMPDEST POP SWAP1 CALLVALUE PUSH2 0x276 JUMPI PUSH1 0x20 CALLDATASIZE PUSH1 0x3 NOT ADD SLT PUSH2 0x276 JUMPI PUSH2 0x1175 PUSH2 0x1E96 JUMP JUMPDEST PUSH2 0x117D PUSH2 0x1FBD JUMP JUMPDEST PUSH1 0x1 PUSH1 0x1 PUSH1 0xA0 SHL SUB AND SWAP2 DUP3 ISZERO PUSH2 0x11B8 JUMPI POP DUP2 DUP4 MSTORE PUSH1 0x2 PUSH1 0x20 MSTORE DUP3 KECCAK256 DUP1 SLOAD PUSH1 0xFF NOT AND PUSH1 0x1 OR SWAP1 SSTORE PUSH1 0x0 DUP1 MLOAD PUSH1 0x20 PUSH2 0x240E DUP4 CODECOPY DUP2 MLOAD SWAP2 MSTORE DUP3 DUP1 LOG2 DUP1 RETURN JUMPDEST PUSH1 0x20 PUSH1 0x84 SWAP3 MLOAD SWAP2 PUSH3 0x461BCD PUSH1 0xE5 SHL DUP4 MSTORE DUP3 ADD MSTORE PUSH1 0x22 PUSH1 0x24 DUP3 ADD MSTORE PUSH32 0x54726561737572793A20496E76616C696420636F6E7472616374206164647265 PUSH1 0x44 DUP3 ADD MSTORE PUSH2 0x7373 PUSH1 0xF0 SHL PUSH1 0x64 DUP3 ADD MSTORE REVERT JUMPDEST POP CALLVALUE PUSH2 0x276 JUMPI PUSH2 0x1214 CALLDATASIZE PUSH2 0x1F35 JUMP JUMPDEST SWAP2 SWAP4 SWAP1 SWAP3 PUSH2 0x1220 PUSH2 0x1FBD JUMP JUMPDEST PUSH1 0x1 PUSH1 0x1 PUSH1 0xA0 SHL SUB DUP4 DUP2 AND SWAP6 PUSH2 0x1237 DUP8 ISZERO ISZERO PUSH2 0x22B7 JUMP JUMPDEST PUSH2 0x1242 DUP7 ISZERO ISZERO PUSH2 0x2031 JUMP JUMPDEST AND SWAP5 DUP6 DUP8 MSTORE PUSH1 0x20 SWAP4 DUP3 DUP6 MSTORE DUP6 DUP5 DUP10 KECCAK256 SLOAD LT PUSH2 0x13BF JUMPI DUP8 DUP8 SWAP2 DUP3 DUP3 MSTORE DUP5 DUP8 MSTORE DUP6 DUP3 KECCAK256 PUSH2 0x126E DUP10 DUP3 SLOAD PUSH2 0x2109 JUMP JUMPDEST SWAP1 SSTORE DUP3 PUSH2 0x12F5 JUMPI SWAP2 PUSH1 0x0 DUP1 MLOAD PUSH1 0x20 PUSH2 0x23CE DUP4 CODECOPY DUP2 MLOAD SWAP2 MSTORE DUP8 DUP10 PUSH2 0x12B3 DUP6 DUP1 DUP1 PUSH1 0x80 SWAP14 SWAP13 SWAP11 SWAP9 PUSH1 0x0 DUP1 MLOAD PUSH1 0x20 PUSH2 0x242E DUP4 CODECOPY DUP2 MLOAD SWAP2 MSTORE SWAP16 PUSH1 0x19 SWAP14 SWAP12 PUSH2 0x10A4 DUP3 SELFBALANCE LT ISZERO PUSH2 0x2123 JUMP JUMPDEST DUP7 MLOAD SWAP1 DUP2 MSTORE LOG3 DUP7 DUP9 MSTORE DUP4 MSTORE DUP1 DUP1 DUP9 KECCAK256 SLOAD SWAP4 DUP2 MLOAD SWAP5 DUP6 MSTORE DUP5 ADD MSTORE DUP3 ADD MSTORE PUSH25 0x141B185D199BDC9B48199D5B991CC81DDA5D1A191C985DD85B PUSH1 0x3A SHL PUSH1 0x60 DUP3 ADD MSTORE LOG2 DUP1 RETURN JUMPDEST SWAP2 POP POP DUP4 MLOAD PUSH4 0x70A08231 PUSH1 0xE0 SHL DUP2 MSTORE ADDRESS DUP5 DUP3 ADD MSTORE DUP6 DUP2 PUSH1 0x24 DUP2 DUP12 GAS STATICCALL SWAP1 DUP2 ISZERO PUSH2 0x13B5 JUMPI SWAP1 DUP9 SWAP3 SWAP2 DUP11 SWAP2 PUSH2 0x1369 JUMPI JUMPDEST POP SWAP2 PUSH1 0x0 DUP1 MLOAD PUSH1 0x20 PUSH2 0x23CE DUP4 CODECOPY DUP2 MLOAD SWAP2 MSTORE DUP8 DUP10 PUSH2 0x1364 DUP2 PUSH1 0x80 SWAP12 SWAP11 SWAP9 SWAP7 PUSH2 0x135E PUSH1 0x0 DUP1 MLOAD PUSH1 0x20 PUSH2 0x242E DUP4 CODECOPY DUP2 MLOAD SWAP2 MSTORE SWAP15 PUSH1 0x19 SWAP13 SWAP11 LT ISZERO PUSH2 0x20B1 JUMP JUMPDEST DUP7 PUSH2 0x2216 JUMP JUMPDEST PUSH2 0x12B3 JUMP JUMPDEST DUP1 SWAP6 SWAP4 POP DUP8 DUP1 SWAP8 SWAP6 SWAP4 SWAP9 SWAP3 POP RETURNDATASIZE DUP4 GT PUSH2 0x13AE JUMPI JUMPDEST PUSH2 0x1387 DUP2 DUP4 PUSH2 0x2078 JUMP JUMPDEST DUP2 ADD SUB SLT PUSH2 0xD7B JUMPI SWAP3 MLOAD SWAP4 SWAP5 SWAP2 SWAP4 SWAP1 SWAP3 SWAP2 DUP8 SWAP2 PUSH1 0x0 DUP1 MLOAD PUSH1 0x20 PUSH2 0x23CE DUP4 CODECOPY DUP2 MLOAD SWAP2 MSTORE PUSH2 0x1323 JUMP JUMPDEST POP RETURNDATASIZE PUSH2 0x137D JUMP JUMPDEST DUP6 MLOAD RETURNDATASIZE DUP12 DUP3 RETURNDATACOPY RETURNDATASIZE SWAP1 REVERT JUMPDEST DUP4 MLOAD PUSH3 0x461BCD PUSH1 0xE5 SHL DUP2 MSTORE DUP1 DUP5 ADD DUP7 SWAP1 MSTORE PUSH1 0x2C PUSH1 0x24 DUP3 ADD MSTORE PUSH32 0x54726561737572793A20496E73756666696369656E7420706C6174666F726D20 PUSH1 0x44 DUP3 ADD MSTORE PUSH12 0x706F6F6C2062616C616E6365 PUSH1 0xA0 SHL PUSH1 0x64 DUP3 ADD MSTORE PUSH1 0x84 SWAP1 REVERT JUMPDEST POP DUP3 SWAP1 CALLVALUE PUSH2 0x2B8 JUMPI PUSH2 0x1428 CALLDATASIZE PUSH2 0x1EFC JUMP JUMPDEST SWAP3 SWAP6 SWAP1 SWAP4 CALLER DUP7 MSTORE PUSH1 0x20 PUSH1 0x2 DUP2 MSTORE PUSH1 0xFF DUP4 DUP9 KECCAK256 SLOAD AND ISZERO PUSH2 0x151E JUMPI DUP5 ISZERO PUSH2 0x14D4 JUMPI DUP8 DUP8 MSTORE PUSH1 0xB DUP2 MSTORE DUP3 DUP8 KECCAK256 PUSH1 0x1 PUSH1 0x1 PUSH1 0xA0 SHL SUB DUP6 AND DUP1 DUP10 MSTORE SWAP1 DUP3 MSTORE DUP4 DUP9 KECCAK256 SLOAD SWAP1 SWAP3 SWAP1 PUSH1 0xFF AND PUSH2 0x1497 JUMPI POP DUP7 SWAP8 PUSH2 0x1494 SWAP8 MSTORE PUSH1 0xB DUP2 MSTORE DUP3 DUP9 KECCAK256 SWAP2 DUP9 MSTORE MSTORE DUP6 KECCAK256 PUSH1 0x1 PUSH1 0xFF NOT DUP3 SLOAD AND OR SWAP1 SSTORE PUSH2 0x234D JUMP JUMPDEST DUP1 RETURN JUMPDEST PUSH1 0x64 SWAP2 DUP5 MLOAD SWAP2 PUSH3 0x461BCD PUSH1 0xE5 SHL DUP4 MSTORE DUP3 ADD MSTORE PUSH1 0x19 PUSH1 0x24 DUP3 ADD MSTORE PUSH25 0x151C99585CDD5C9E4E88105B1C9958591E4818DB185A5B5959 PUSH1 0x3A SHL PUSH1 0x44 DUP3 ADD MSTORE REVERT JUMPDEST PUSH1 0x84 SWAP3 MLOAD SWAP2 PUSH3 0x461BCD PUSH1 0xE5 SHL DUP4 MSTORE DUP3 ADD MSTORE PUSH1 0x21 PUSH1 0x24 DUP3 ADD MSTORE PUSH32 0x54726561737572793A20496E76616C69642077696E6E696E677320616D6F756E PUSH1 0x44 DUP3 ADD MSTORE PUSH1 0x1D PUSH1 0xFA SHL PUSH1 0x64 DUP3 ADD MSTORE REVERT JUMPDEST PUSH1 0x84 SWAP3 MLOAD SWAP2 PUSH3 0x461BCD PUSH1 0xE5 SHL DUP4 MSTORE DUP3 ADD MSTORE PUSH1 0x36 PUSH1 0x24 DUP3 ADD MSTORE PUSH1 0x0 DUP1 MLOAD PUSH1 0x20 PUSH2 0x246E DUP4 CODECOPY DUP2 MLOAD SWAP2 MSTORE PUSH1 0x44 DUP3 ADD MSTORE PUSH22 0x6374732063616E20636C61696D2077696E6E696E6773 PUSH1 0x50 SHL PUSH1 0x64 DUP3 ADD MSTORE REVERT JUMPDEST POP CALLVALUE PUSH2 0x276 JUMPI DUP2 PUSH1 0x3 NOT CALLDATASIZE ADD SLT PUSH2 0x276 JUMPI DUP2 PUSH1 0x20 SWAP4 PUSH1 0xFF SWAP3 PUSH2 0x158B PUSH2 0x1EB1 JUMP JUMPDEST SWAP1 CALLDATALOAD DUP3 MSTORE PUSH1 0xC DUP7 MSTORE DUP3 DUP3 KECCAK256 PUSH1 0x1 PUSH1 0x1 PUSH1 0xA0 SHL SUB SWAP1 SWAP2 AND DUP3 MSTORE DUP6 MSTORE KECCAK256 SLOAD SWAP2 MLOAD SWAP2 AND ISZERO ISZERO DUP2 MSTORE RETURN JUMPDEST POP DUP3 SWAP1 CALLVALUE PUSH2 0x2B8 JUMPI PUSH2 0x15C2 CALLDATASIZE PUSH2 0x1EFC JUMP JUMPDEST SWAP3 POP SWAP3 CALLER DUP6 MSTORE PUSH1 0x2 PUSH1 0x20 MSTORE PUSH1 0xFF DUP7 DUP7 KECCAK256 SLOAD AND ISZERO PUSH2 0x162E JUMPI DUP3 ISZERO PUSH2 0x15EB JUMPI POP PUSH2 0x1494 SWAP4 SWAP5 POP PUSH2 0x234D JUMP JUMPDEST PUSH1 0x64 SWAP1 PUSH1 0x20 DUP8 MLOAD SWAP2 PUSH3 0x461BCD PUSH1 0xE5 SHL DUP4 MSTORE DUP3 ADD MSTORE PUSH1 0x1F PUSH1 0x24 DUP3 ADD MSTORE PUSH32 0x54726561737572793A20496E76616C696420726566756E6420616D6F756E7400 PUSH1 0x44 DUP3 ADD MSTORE REVERT JUMPDEST PUSH1 0x84 SWAP1 PUSH1 0x20 DUP8 MLOAD SWAP2 PUSH3 0x461BCD PUSH1 0xE5 SHL DUP4 MSTORE DUP3 ADD MSTORE PUSH1 0x35 PUSH1 0x24 DUP3 ADD MSTORE PUSH1 0x0 DUP1 MLOAD PUSH1 0x20 PUSH2 0x246E DUP4 CODECOPY DUP2 MLOAD SWAP2 MSTORE PUSH1 0x44 DUP3 ADD MSTORE PUSH21 0x6374732063616E20636C61696D20726566756E6473 PUSH1 0x58 SHL PUSH1 0x64 DUP3 ADD MSTORE REVERT JUMPDEST POP POP CALLVALUE PUSH2 0x2B8 JUMPI DUP2 PUSH1 0x3 NOT CALLDATASIZE ADD SLT PUSH2 0x2B8 JUMPI PUSH1 0x20 SWAP1 MLOAD PUSH2 0x1F4 DUP2 MSTORE RETURN JUMPDEST POP DUP3 CALLVALUE PUSH2 0xE81 JUMPI PUSH1 0x20 CALLDATASIZE PUSH1 0x3 NOT ADD SLT PUSH2 0xE81 JUMPI POP PUSH2 0x16B8 SWAP1 CALLDATALOAD PUSH2 0x1FE9 JUMP JUMPDEST DUP3 MLOAD SWAP2 DUP3 MSTORE PUSH1 0x20 DUP3 ADD MSTORE RETURN JUMPDEST POP SWAP2 SWAP1 CALLVALUE PUSH2 0x2B8 JUMPI DUP1 PUSH1 0x3 NOT CALLDATASIZE ADD SLT PUSH2 0x2B8 JUMPI PUSH2 0x16DF PUSH2 0x1E96 JUMP JUMPDEST SWAP1 PUSH1 0x24 CALLDATALOAD SWAP2 CALLER DUP5 MSTORE PUSH1 0x20 SWAP5 PUSH1 0x2 DUP7 MSTORE PUSH1 0xFF DUP4 DUP7 KECCAK256 SLOAD AND ISZERO PUSH2 0x189E JUMPI DUP5 SWAP6 PUSH2 0x1709 DUP6 SWAP7 SWAP6 ISZERO ISZERO PUSH2 0x2031 JUMP JUMPDEST PUSH2 0x1712 DUP7 PUSH2 0x1FE9 JUMP JUMPDEST PUSH1 0x1 PUSH1 0x1 PUSH1 0xA0 SHL SUB SWAP5 DUP6 AND SWAP8 SWAP2 SWAP5 SWAP1 SWAP4 SWAP2 DUP9 PUSH2 0x17F6 JUMPI SWAP7 DUP5 SWAP2 PUSH2 0x1746 PUSH1 0x0 DUP1 MLOAD PUSH1 0x20 PUSH2 0x23EE DUP4 CODECOPY DUP2 MLOAD SWAP2 MSTORE SWAP10 SELFBALANCE LT ISZERO PUSH2 0x2123 JUMP JUMPDEST DUP3 PUSH2 0x17D8 JUMPI JUMPDEST POP POP PUSH2 0x1758 SWAP1 DUP6 PUSH2 0x2109 JUMP JUMPDEST SWAP1 DUP8 DUP10 MSTORE DUP3 MSTORE PUSH2 0x176C DUP6 DUP10 KECCAK256 SWAP2 DUP3 SLOAD PUSH2 0x2116 JUMP JUMPDEST SWAP1 SSTORE DUP6 PUSH1 0x0 DUP1 MLOAD PUSH1 0x20 PUSH2 0x242E DUP4 CODECOPY DUP2 MLOAD SWAP2 MSTORE PUSH2 0x17C9 PUSH2 0x178B DUP6 DUP8 PUSH2 0x2109 JUMP JUMPDEST DUP8 MLOAD SWAP2 DUP3 SWAP2 DUP3 PUSH1 0x80 SWAP2 DUP2 MSTORE PUSH1 0x40 PUSH1 0x20 DUP3 ADD MSTORE PUSH1 0x18 PUSH1 0x40 DUP3 ADD MSTORE PUSH24 0x2932B3BAB630B9103332B2903234B9BA3934B13ABA34B7B7 PUSH1 0x41 SHL PUSH1 0x60 DUP3 ADD MSTORE ADD SWAP1 JUMP JUMPDEST SUB SWAP1 LOG2 DUP4 MLOAD SWAP3 DUP4 MSTORE DUP3 ADD MSTORE LOG2 DUP1 RETURN JUMPDEST DUP2 DUP1 PUSH2 0x17EE SWAP5 DUP2 SWAP4 PUSH1 0x1 SLOAD AND GAS CALL PUSH2 0x3E0 PUSH2 0x217A JUMP JUMPDEST DUP3 DUP9 CODESIZE PUSH2 0x174C JUMP JUMPDEST DUP7 MLOAD PUSH4 0x70A08231 PUSH1 0xE0 SHL DUP2 MSTORE ADDRESS DUP5 DUP3 ADD MSTORE SWAP1 SWAP8 POP DUP4 DUP2 PUSH1 0x24 DUP2 DUP13 GAS STATICCALL SWAP1 DUP2 ISZERO PUSH2 0x496 JUMPI DUP11 SWAP2 PUSH2 0x1863 JUMPI JUMPDEST POP PUSH1 0x0 DUP1 MLOAD PUSH1 0x20 PUSH2 0x23EE DUP4 CODECOPY DUP2 MLOAD SWAP2 MSTORE SWAP8 PUSH2 0x183C SWAP2 LT ISZERO PUSH2 0x20B1 JUMP JUMPDEST DUP4 DUP1 PUSH2 0x184E JUMPI JUMPDEST PUSH2 0x1758 SWAP2 POP DUP6 PUSH2 0x2109 JUMP JUMPDEST PUSH2 0x185C SWAP2 PUSH1 0x1 SLOAD AND DUP10 PUSH2 0x2216 JUMP JUMPDEST CODESIZE DUP4 PUSH2 0x1843 JUMP JUMPDEST SWAP1 POP DUP4 DUP2 DUP2 RETURNDATASIZE DUP4 GT PUSH2 0x1897 JUMPI JUMPDEST PUSH2 0x187A DUP2 DUP4 PUSH2 0x2078 JUMP JUMPDEST DUP2 ADD SUB SLT PUSH2 0x48B JUMPI MLOAD PUSH1 0x0 DUP1 MLOAD PUSH1 0x20 PUSH2 0x23EE DUP4 CODECOPY DUP2 MLOAD SWAP2 MSTORE PUSH2 0x1820 JUMP JUMPDEST POP RETURNDATASIZE PUSH2 0x1870 JUMP JUMPDEST DUP3 MLOAD PUSH3 0x461BCD PUSH1 0xE5 SHL DUP2 MSTORE SWAP1 DUP2 ADD DUP7 SWAP1 MSTORE PUSH1 0x37 PUSH1 0x24 DUP3 ADD MSTORE PUSH1 0x0 DUP1 MLOAD PUSH1 0x20 PUSH2 0x246E DUP4 CODECOPY DUP2 MLOAD SWAP2 MSTORE PUSH1 0x44 DUP3 ADD MSTORE PUSH23 0x6374732063616E20646973747269627574652066656573 PUSH1 0x48 SHL PUSH1 0x64 DUP3 ADD MSTORE PUSH1 0x84 SWAP1 REVERT JUMPDEST POP POP CALLVALUE PUSH2 0x2B8 JUMPI DUP2 PUSH1 0x3 NOT CALLDATASIZE ADD SLT PUSH2 0x2B8 JUMPI PUSH1 0x20 SWAP1 MLOAD PUSH1 0x64 DUP2 MSTORE RETURN JUMPDEST POP POP CALLVALUE PUSH2 0x2B8 JUMPI DUP2 PUSH1 0x3 NOT CALLDATASIZE ADD SLT PUSH2 0x2B8 JUMPI PUSH1 0x3 SLOAD SWAP1 MLOAD PUSH1 0x1 PUSH1 0x1 PUSH1 0xA0 SHL SUB SWAP1 SWAP2 AND DUP2 MSTORE PUSH1 0x20 SWAP1 RETURN JUMPDEST POP CALLVALUE PUSH2 0x276 JUMPI DUP2 PUSH1 0x3 NOT CALLDATASIZE ADD SLT PUSH2 0x276 JUMPI DUP2 PUSH1 0x20 SWAP4 PUSH1 0xFF SWAP3 PUSH2 0x1954 PUSH2 0x1EB1 JUMP JUMPDEST SWAP1 CALLDATALOAD DUP3 MSTORE PUSH1 0xB DUP7 MSTORE DUP3 DUP3 KECCAK256 PUSH1 0x1 PUSH1 0x1 PUSH1 0xA0 SHL SUB SWAP1 SWAP2 AND DUP3 MSTORE DUP6 MSTORE KECCAK256 SLOAD SWAP2 MLOAD SWAP2 AND ISZERO ISZERO DUP2 MSTORE RETURN JUMPDEST POP DUP3 SWAP1 CALLVALUE PUSH2 0x2B8 JUMPI PUSH1 0x20 SWAP2 DUP3 PUSH1 0x3 NOT CALLDATASIZE ADD SLT PUSH2 0xE81 JUMPI PUSH2 0x1998 PUSH2 0x1E96 JUMP JUMPDEST PUSH1 0x1 PUSH1 0x1 PUSH1 0xA0 SHL SUB AND DUP1 DUP3 MSTORE DUP3 DUP5 MSTORE DUP5 DUP3 KECCAK256 SLOAD SWAP3 DUP5 SWAP1 DUP3 PUSH2 0x19C4 JUMPI POP POP POP POP SELFBALANCE SWAP2 JUMPDEST DUP4 MLOAD SWAP3 DUP4 MSTORE DUP3 ADD MSTORE RETURN JUMPDEST PUSH1 0x24 DUP8 MLOAD DUP1 SWAP5 DUP2 SWAP4 PUSH4 0x70A08231 PUSH1 0xE0 SHL DUP4 MSTORE ADDRESS SWAP1 DUP4 ADD MSTORE GAS STATICCALL SWAP2 DUP3 ISZERO PUSH2 0x1A23 JUMPI DUP1 SWAP3 PUSH2 0x19F3 JUMPI JUMPDEST POP POP SWAP2 PUSH2 0x19BA JUMP JUMPDEST SWAP1 SWAP2 POP DUP4 DUP3 DUP2 RETURNDATASIZE DUP4 GT PUSH2 0x1A1C JUMPI JUMPDEST PUSH2 0x1A0B DUP2 DUP4 PUSH2 0x2078 JUMP JUMPDEST DUP2 ADD SUB SLT PUSH2 0xE81 JUMPI POP MLOAD DUP5 DUP1 PUSH2 0x19EB JUMP JUMPDEST POP RETURNDATASIZE PUSH2 0x1A01 JUMP JUMPDEST DUP6 MLOAD SWAP1 RETURNDATASIZE SWAP1 DUP3 RETURNDATACOPY RETURNDATASIZE SWAP1 REVERT JUMPDEST POP POP CALLVALUE PUSH2 0x2B8 JUMPI DUP1 PUSH1 0x20 SWAP3 PUSH2 0x1A42 CALLDATASIZE PUSH2 0x1EC7 JUMP JUMPDEST SWAP2 DUP4 MSTORE PUSH1 0x9 DUP7 MSTORE DUP4 DUP4 KECCAK256 PUSH1 0x1 PUSH1 0x1 PUSH1 0xA0 SHL SUB SWAP2 DUP3 AND DUP5 MSTORE DUP7 MSTORE DUP4 DUP4 KECCAK256 SWAP2 AND DUP3 MSTORE DUP5 MSTORE KECCAK256 SLOAD SWAP1 MLOAD SWAP1 DUP2 MSTORE RETURN JUMPDEST POP DUP3 SWAP1 CALLVALUE PUSH2 0x2B8 JUMPI PUSH2 0x1A7E CALLDATASIZE PUSH2 0x1EFC JUMP JUMPDEST SWAP3 SWAP6 SWAP1 SWAP4 CALLER DUP7 MSTORE PUSH1 0x20 PUSH1 0x2 DUP2 MSTORE PUSH1 0xFF DUP4 DUP9 KECCAK256 SLOAD AND ISZERO PUSH2 0x1BBB JUMPI DUP5 ISZERO PUSH2 0x1B6F JUMPI DUP8 DUP8 MSTORE PUSH1 0x9 DUP2 MSTORE DUP3 DUP8 KECCAK256 SWAP8 PUSH1 0x1 DUP1 PUSH1 0xA0 SHL SUB SWAP3 DUP4 DUP7 AND SWAP10 DUP11 DUP11 MSTORE DUP4 MSTORE DUP5 DUP10 KECCAK256 SWAP4 DUP9 AND SWAP4 DUP5 DUP11 MSTORE DUP4 MSTORE DUP7 DUP6 DUP11 KECCAK256 SLOAD LT PUSH2 0x1B1D JUMPI POP DUP8 SWAP9 DUP2 PUSH2 0x1494 SWAP10 MSTORE PUSH1 0x9 DUP4 MSTORE DUP5 DUP11 KECCAK256 SWAP1 DUP11 MSTORE DUP3 MSTORE DUP4 DUP10 KECCAK256 DUP4 DUP11 MSTORE DUP3 MSTORE DUP4 DUP10 KECCAK256 PUSH2 0x1AFA DUP8 DUP3 SLOAD PUSH2 0x2109 JUMP JUMPDEST SWAP1 SSTORE DUP9 MSTORE PUSH1 0x7 DUP2 MSTORE DUP3 DUP9 KECCAK256 SWAP2 DUP9 MSTORE MSTORE DUP6 KECCAK256 PUSH2 0x1B16 DUP4 DUP3 SLOAD PUSH2 0x2109 JUMP JUMPDEST SWAP1 SSTORE PUSH2 0x234D JUMP JUMPDEST DUP5 MLOAD PUSH3 0x461BCD PUSH1 0xE5 SHL DUP2 MSTORE SWAP1 DUP2 ADD DUP4 SWAP1 MSTORE PUSH1 0x26 PUSH1 0x24 DUP3 ADD MSTORE PUSH32 0x54726561737572793A20496E73756666696369656E7420737570706F72742062 PUSH1 0x44 DUP3 ADD MSTORE PUSH6 0x616C616E6365 PUSH1 0xD0 SHL PUSH1 0x64 DUP3 ADD MSTORE PUSH1 0x84 SWAP1 REVERT JUMPDEST PUSH1 0x84 SWAP3 MLOAD SWAP2 PUSH3 0x461BCD PUSH1 0xE5 SHL DUP4 MSTORE DUP3 ADD MSTORE PUSH1 0x23 PUSH1 0x24 DUP3 ADD MSTORE PUSH32 0x54726561737572793A20496E76616C6964207769746864726177616C20616D6F PUSH1 0x44 DUP3 ADD MSTORE PUSH3 0x1D5B9D PUSH1 0xEA SHL PUSH1 0x64 DUP3 ADD MSTORE REVERT JUMPDEST PUSH1 0x84 SWAP3 MLOAD SWAP2 PUSH3 0x461BCD PUSH1 0xE5 SHL DUP4 MSTORE DUP3 ADD MSTORE PUSH1 0x38 PUSH1 0x24 DUP3 ADD MSTORE PUSH1 0x0 DUP1 MLOAD PUSH1 0x20 PUSH2 0x246E DUP4 CODECOPY DUP2 MLOAD SWAP2 MSTORE PUSH1 0x44 DUP3 ADD MSTORE PUSH24 0x18DD1CC818D85B881DDA5D1A191C985DC81CDD5C1C1BDC9D PUSH1 0x42 SHL PUSH1 0x64 DUP3 ADD MSTORE REVERT JUMPDEST POP CALLVALUE PUSH2 0x276 JUMPI DUP2 PUSH1 0x3 NOT CALLDATASIZE ADD SLT PUSH2 0x276 JUMPI PUSH1 0x20 SWAP3 DUP3 SWAP2 PUSH2 0x1C28 PUSH2 0x1EB1 JUMP JUMPDEST SWAP1 CALLDATALOAD DUP3 MSTORE PUSH1 0x5 DUP6 MSTORE DUP3 DUP3 KECCAK256 PUSH1 0x1 PUSH1 0x1 PUSH1 0xA0 SHL SUB SWAP1 SWAP2 AND DUP3 MSTORE DUP5 MSTORE KECCAK256 SLOAD SWAP1 MLOAD SWAP1 DUP2 MSTORE RETURN JUMPDEST POP CALLVALUE PUSH2 0x276 JUMPI PUSH1 0x60 CALLDATASIZE PUSH1 0x3 NOT ADD SLT PUSH2 0x276 JUMPI PUSH2 0x1C65 PUSH2 0x1E96 JUMP JUMPDEST PUSH2 0x1C6D PUSH2 0x1EB1 JUMP JUMPDEST SWAP3 PUSH1 0x44 CALLDATALOAD CALLER DUP7 MSTORE PUSH1 0x20 SWAP2 PUSH1 0x2 DUP4 MSTORE PUSH1 0xFF DUP2 DUP9 KECCAK256 SLOAD AND ISZERO PUSH2 0x1E0E JUMPI PUSH2 0x1C92 DUP3 ISZERO ISZERO PUSH2 0x2031 JUMP JUMPDEST PUSH1 0x1 PUSH1 0x1 PUSH1 0xA0 SHL SUB DUP5 DUP2 AND SWAP7 DUP8 ISZERO PUSH2 0x1DC1 JUMPI AND SWAP5 DUP8 DUP7 PUSH2 0x1D3D JUMPI DUP1 DUP1 DUP6 DUP1 SWAP8 SWAP9 PUSH2 0x1CC1 DUP4 SWAP7 SWAP8 SWAP9 SELFBALANCE LT ISZERO PUSH2 0x2123 JUMP JUMPDEST GAS CALL PUSH2 0x1CCB PUSH2 0x217A JUMP JUMPDEST POP ISZERO PUSH2 0x1CEB JUMPI POP MLOAD SWAP1 DUP2 MSTORE PUSH1 0x0 DUP1 MLOAD PUSH1 0x20 PUSH2 0x248E DUP4 CODECOPY DUP2 MLOAD SWAP2 MSTORE SWAP2 SWAP1 LOG3 DUP1 RETURN JUMPDEST DUP4 PUSH1 0x84 SWAP3 MLOAD SWAP2 PUSH3 0x461BCD PUSH1 0xE5 SHL DUP4 MSTORE DUP3 ADD MSTORE PUSH1 0x28 PUSH1 0x24 DUP3 ADD MSTORE PUSH32 0x54726561737572793A20455448207472616E7366657220746F2063726561746F PUSH1 0x44 DUP3 ADD MSTORE PUSH8 0x1C8819985A5B1959 PUSH1 0xC2 SHL PUSH1 0x64 DUP3 ADD MSTORE REVERT JUMPDEST POP SWAP4 DUP2 MLOAD SWAP5 PUSH4 0x70A08231 PUSH1 0xE0 SHL DUP7 MSTORE ADDRESS SWAP1 DUP7 ADD MSTORE DUP4 DUP6 PUSH1 0x24 DUP2 DUP10 GAS STATICCALL SWAP5 DUP6 ISZERO PUSH2 0x1DB7 JUMPI DUP9 SWAP6 PUSH2 0x1D88 JUMPI JUMPDEST POP DUP3 PUSH2 0x1112 SWAP2 PUSH2 0x110C DUP3 PUSH1 0x0 DUP1 MLOAD PUSH1 0x20 PUSH2 0x248E DUP4 CODECOPY DUP2 MLOAD SWAP2 MSTORE SWAP9 LT ISZERO PUSH2 0x20B1 JUMP JUMPDEST SWAP5 POP DUP4 DUP6 DUP2 RETURNDATASIZE DUP4 GT PUSH2 0x1DB0 JUMPI JUMPDEST PUSH2 0x1D9F DUP2 DUP4 PUSH2 0x2078 JUMP JUMPDEST DUP2 ADD SUB SLT PUSH2 0xD7F JUMPI SWAP4 MLOAD SWAP4 DUP3 PUSH2 0x1D67 JUMP JUMPDEST POP RETURNDATASIZE PUSH2 0x1D95 JUMP JUMPDEST DUP3 MLOAD RETURNDATASIZE DUP11 DUP3 RETURNDATACOPY RETURNDATASIZE SWAP1 REVERT JUMPDEST DUP3 MLOAD PUSH3 0x461BCD PUSH1 0xE5 SHL DUP2 MSTORE DUP1 DUP9 ADD DUP7 SWAP1 MSTORE PUSH1 0x21 PUSH1 0x24 DUP3 ADD MSTORE PUSH32 0x54726561737572793A20496E76616C69642063726561746F7220616464726573 PUSH1 0x44 DUP3 ADD MSTORE PUSH1 0x73 PUSH1 0xF8 SHL PUSH1 0x64 DUP3 ADD MSTORE PUSH1 0x84 SWAP1 REVERT JUMPDEST MLOAD PUSH3 0x461BCD PUSH1 0xE5 SHL DUP2 MSTORE DUP1 DUP6 ADD DUP4 SWAP1 MSTORE PUSH1 0x3B PUSH1 0x24 DUP3 ADD MSTORE PUSH1 0x0 DUP1 MLOAD PUSH1 0x20 PUSH2 0x246E DUP4 CODECOPY DUP2 MLOAD SWAP2 MSTORE PUSH1 0x44 DUP3 ADD MSTORE PUSH27 0x31BA399031B0B7103A3930B739B332B9103A379031B932B0BA37B9 PUSH1 0x29 SHL PUSH1 0x64 DUP3 ADD MSTORE PUSH1 0x84 SWAP1 REVERT JUMPDEST SWAP3 SWAP2 SWAP1 POP CALLVALUE PUSH2 0xF97 JUMPI PUSH1 0x20 CALLDATASIZE PUSH1 0x3 NOT ADD SLT PUSH2 0xF97 JUMPI PUSH1 0x20 SWAP4 SWAP1 PUSH1 0x1 PUSH1 0x1 PUSH1 0xA0 SHL SUB PUSH2 0x1E8B PUSH2 0x1E96 JUMP JUMPDEST AND DUP3 MSTORE DUP5 MSTORE KECCAK256 SLOAD DUP2 MSTORE RETURN JUMPDEST PUSH1 0x4 CALLDATALOAD SWAP1 PUSH1 0x1 PUSH1 0x1 PUSH1 0xA0 SHL SUB DUP3 AND DUP3 SUB PUSH2 0x1EAC JUMPI JUMP JUMPDEST PUSH1 0x0 DUP1 REVERT JUMPDEST PUSH1 0x24 CALLDATALOAD SWAP1 PUSH1 0x1 PUSH1 0x1 PUSH1 0xA0 SHL SUB DUP3 AND DUP3 SUB PUSH2 0x1EAC JUMPI JUMP JUMPDEST PUSH1 0x60 SWAP1 PUSH1 0x3 NOT ADD SLT PUSH2 0x1EAC JUMPI PUSH1 0x4 CALLDATALOAD SWAP1 PUSH1 0x1 PUSH1 0x1 PUSH1 0xA0 SHL SUB SWAP1 PUSH1 0x24 CALLDATALOAD DUP3 DUP2 AND DUP2 SUB PUSH2 0x1EAC JUMPI SWAP2 PUSH1 0x44 CALLDATALOAD SWAP1 DUP2 AND DUP2 SUB PUSH2 0x1EAC JUMPI SWAP1 JUMP JUMPDEST PUSH1 0x80 SWAP1 PUSH1 0x3 NOT ADD SLT PUSH2 0x1EAC JUMPI PUSH1 0x4 CALLDATALOAD SWAP1 PUSH1 0x1 PUSH1 0x1 PUSH1 0xA0 SHL SUB SWAP1 PUSH1 0x24 CALLDATALOAD DUP3 DUP2 AND DUP2 SUB PUSH2 0x1EAC JUMPI SWAP2 PUSH1 0x44 CALLDATALOAD SWAP1 DUP2 AND DUP2 SUB PUSH2 0x1EAC JUMPI SWAP1 PUSH1 0x64 CALLDATALOAD SWAP1 JUMP JUMPDEST PUSH1 0x60 SWAP1 PUSH1 0x3 NOT ADD SLT PUSH2 0x1EAC JUMPI PUSH1 0x1 PUSH1 0x1 PUSH1 0xA0 SHL SUB PUSH1 0x4 CALLDATALOAD DUP2 DUP2 AND DUP2 SUB PUSH2 0x1EAC JUMPI SWAP2 PUSH1 0x24 CALLDATALOAD SWAP2 PUSH1 0x44 CALLDATALOAD SWAP1 DUP2 AND DUP2 SUB PUSH2 0x1EAC JUMPI SWAP1 JUMP JUMPDEST PUSH1 0x60 SWAP1 PUSH1 0x3 NOT ADD SLT PUSH2 0x1EAC JUMPI PUSH1 0x4 CALLDATALOAD SWAP1 PUSH1 0x24 CALLDATALOAD PUSH1 0x1 PUSH1 0x1 PUSH1 0xA0 SHL SUB DUP2 AND DUP2 SUB PUSH2 0x1EAC JUMPI SWAP1 PUSH1 0x44 CALLDATALOAD SWAP1 JUMP JUMPDEST PUSH1 0x60 SWAP1 PUSH1 0x3 NOT ADD SLT PUSH2 0x1EAC JUMPI PUSH1 0x4 CALLDATALOAD SWAP1 PUSH1 0x24 CALLDATALOAD SWAP1 PUSH1 0x44 CALLDATALOAD PUSH1 0x1 PUSH1 0x1 PUSH1 0xA0 SHL SUB DUP2 AND DUP2 SUB PUSH2 0x1EAC JUMPI SWAP1 JUMP JUMPDEST PUSH1 0x0 SLOAD PUSH1 0x1 PUSH1 0x1 PUSH1 0xA0 SHL SUB AND CALLER SUB PUSH2 0x1FD1 JUMPI JUMP JUMPDEST PUSH1 0x40 MLOAD PUSH4 0x118CDAA7 PUSH1 0xE0 SHL DUP2 MSTORE CALLER PUSH1 0x4 DUP3 ADD MSTORE PUSH1 0x24 SWAP1 REVERT JUMPDEST SWAP1 PUSH2 0x1F4 SWAP2 DUP3 DUP2 MUL SWAP3 DUP2 DUP5 DIV EQ SWAP1 ISZERO OR ISZERO PUSH2 0x201B JUMPI PUSH2 0x2710 DUP1 SWAP3 DIV SWAP2 PUSH1 0x64 DUP4 MUL DUP4 DUP2 DIV PUSH1 0x64 EQ DUP5 ISZERO OR ISZERO PUSH2 0x201B JUMPI DIV SWAP1 JUMP JUMPDEST PUSH4 0x4E487B71 PUSH1 0xE0 SHL PUSH1 0x0 MSTORE PUSH1 0x11 PUSH1 0x4 MSTORE PUSH1 0x24 PUSH1 0x0 REVERT JUMPDEST ISZERO PUSH2 0x2038 JUMPI JUMP JUMPDEST PUSH1 0x40 MLOAD PUSH3 0x461BCD PUSH1 0xE5 SHL DUP2 MSTORE PUSH1 0x20 PUSH1 0x4 DUP3 ADD MSTORE PUSH1 0x18 PUSH1 0x24 DUP3 ADD MSTORE PUSH24 0x151C99585CDD5C9E4E88125B9D985B1A5908185B5BDD5B9D PUSH1 0x42 SHL PUSH1 0x44 DUP3 ADD MSTORE PUSH1 0x64 SWAP1 REVERT JUMPDEST PUSH1 0x1F SWAP1 SWAP2 ADD PUSH1 0x1F NOT AND DUP2 ADD SWAP1 PUSH1 0x1 PUSH1 0x1 PUSH1 0x40 SHL SUB DUP3 GT SWAP1 DUP3 LT OR PUSH2 0x209B JUMPI PUSH1 0x40 MSTORE JUMP JUMPDEST PUSH4 0x4E487B71 PUSH1 0xE0 SHL PUSH1 0x0 MSTORE PUSH1 0x41 PUSH1 0x4 MSTORE PUSH1 0x24 PUSH1 0x0 REVERT JUMPDEST ISZERO PUSH2 0x20B8 JUMPI JUMP JUMPDEST PUSH1 0x40 MLOAD PUSH3 0x461BCD PUSH1 0xE5 SHL DUP2 MSTORE PUSH1 0x20 PUSH1 0x4 DUP3 ADD MSTORE PUSH1 0x24 DUP1 DUP3 ADD MSTORE PUSH32 0x54726561737572793A20496E73756666696369656E7420746F6B656E2062616C PUSH1 0x44 DUP3 ADD MSTORE PUSH4 0x616E6365 PUSH1 0xE0 SHL PUSH1 0x64 DUP3 ADD MSTORE PUSH1 0x84 SWAP1 REVERT JUMPDEST SWAP2 SWAP1 DUP3 SUB SWAP2 DUP3 GT PUSH2 0x201B JUMPI JUMP JUMPDEST SWAP2 SWAP1 DUP3 ADD DUP1 SWAP3 GT PUSH2 0x201B JUMPI JUMP JUMPDEST ISZERO PUSH2 0x212A JUMPI JUMP JUMPDEST PUSH1 0x40 MLOAD PUSH3 0x461BCD PUSH1 0xE5 SHL DUP2 MSTORE PUSH1 0x20 PUSH1 0x4 DUP3 ADD MSTORE PUSH1 0x22 PUSH1 0x24 DUP3 ADD MSTORE PUSH32 0x54726561737572793A20496E73756666696369656E74204554482062616C616E PUSH1 0x44 DUP3 ADD MSTORE PUSH2 0x6365 PUSH1 0xF0 SHL PUSH1 0x64 DUP3 ADD MSTORE PUSH1 0x84 SWAP1 REVERT JUMPDEST RETURNDATASIZE ISZERO PUSH2 0x21B4 JUMPI RETURNDATASIZE SWAP1 PUSH1 0x1 PUSH1 0x1 PUSH1 0x40 SHL SUB DUP3 GT PUSH2 0x209B JUMPI PUSH1 0x40 MLOAD SWAP2 PUSH2 0x21A8 PUSH1 0x1F DUP3 ADD PUSH1 0x1F NOT AND PUSH1 0x20 ADD DUP5 PUSH2 0x2078 JUMP JUMPDEST DUP3 MSTORE RETURNDATASIZE PUSH1 0x0 PUSH1 0x20 DUP5 ADD RETURNDATACOPY JUMP JUMPDEST PUSH1 0x60 SWAP1 JUMP JUMPDEST ISZERO PUSH2 0x21C0 JUMPI JUMP JUMPDEST PUSH1 0x40 MLOAD PUSH3 0x461BCD PUSH1 0xE5 SHL DUP2 MSTORE PUSH1 0x20 PUSH1 0x4 DUP3 ADD MSTORE PUSH1 0x28 PUSH1 0x24 DUP3 ADD MSTORE PUSH32 0x54726561737572793A20455448207472616E7366657220746F20706172746E65 PUSH1 0x44 DUP3 ADD MSTORE PUSH8 0x1C8819985A5B1959 PUSH1 0xC2 SHL PUSH1 0x64 DUP3 ADD MSTORE PUSH1 0x84 SWAP1 REVERT JUMPDEST PUSH1 0x40 MLOAD PUSH4 0xA9059CBB PUSH1 0xE0 SHL PUSH1 0x20 DUP3 ADD SWAP1 DUP2 MSTORE PUSH1 0x1 PUSH1 0x1 PUSH1 0xA0 SHL SUB SWAP4 DUP5 AND PUSH1 0x24 DUP4 ADD MSTORE PUSH1 0x44 DUP1 DUP4 ADD SWAP6 SWAP1 SWAP6 MSTORE SWAP4 DUP2 MSTORE SWAP1 SWAP3 PUSH1 0x80 DUP3 ADD SWAP1 PUSH1 0x1 PUSH1 0x1 PUSH1 0x40 SHL SUB DUP3 GT DUP4 DUP4 LT OR PUSH2 0x209B JUMPI PUSH1 0x20 SWAP3 PUSH1 0x0 SWAP3 PUSH1 0x40 MSTORE MLOAD SWAP1 DUP3 DUP7 GAS CALL ISZERO PUSH2 0x22AB JUMPI PUSH1 0x0 MLOAD RETURNDATASIZE PUSH2 0x22A2 JUMPI POP DUP1 DUP3 AND EXTCODESIZE ISZERO JUMPDEST PUSH2 0x2288 JUMPI POP POP JUMP JUMPDEST PUSH1 0x40 MLOAD PUSH4 0x5274AFE7 PUSH1 0xE0 SHL DUP2 MSTORE SWAP2 AND PUSH1 0x4 DUP3 ADD MSTORE PUSH1 0x24 SWAP2 POP REVERT JUMPDEST PUSH1 0x1 EQ ISZERO PUSH2 0x2280 JUMP JUMPDEST PUSH1 0x40 MLOAD RETURNDATASIZE PUSH1 0x0 DUP3 RETURNDATACOPY RETURNDATASIZE SWAP1 REVERT JUMPDEST ISZERO PUSH2 0x22BE JUMPI JUMP JUMPDEST PUSH1 0x40 MLOAD PUSH3 0x461BCD PUSH1 0xE5 SHL DUP2 MSTORE PUSH1 0x20 PUSH1 0x4 DUP3 ADD MSTORE PUSH1 0x1B PUSH1 0x24 DUP3 ADD MSTORE PUSH27 0x151C99585CDD5C9E4E88125B9D985B1A59081C9958DA5C1A595B9D PUSH1 0x2A SHL PUSH1 0x44 DUP3 ADD MSTORE PUSH1 0x64 SWAP1 REVERT JUMPDEST ISZERO PUSH2 0x2308 JUMPI JUMP JUMPDEST PUSH1 0x40 MLOAD PUSH3 0x461BCD PUSH1 0xE5 SHL DUP2 MSTORE PUSH1 0x20 PUSH1 0x4 DUP3 ADD MSTORE PUSH1 0x1D PUSH1 0x24 DUP3 ADD MSTORE PUSH32 0x54726561737572793A20455448207472616E73666572206661696C6564000000 PUSH1 0x44 DUP3 ADD MSTORE PUSH1 0x64 SWAP1 REVERT JUMPDEST SWAP2 PUSH1 0x1 PUSH1 0x1 PUSH1 0xA0 SHL SUB AND DUP1 PUSH2 0x2373 JUMPI POP PUSH1 0x0 DUP1 DUP1 DUP1 SWAP4 PUSH2 0x2371 SWAP6 GAS CALL PUSH2 0x10AE PUSH2 0x217A JUMP JUMPDEST JUMP JUMPDEST SWAP2 PUSH2 0x2371 SWAP3 PUSH2 0x2216 JUMP JUMPDEST PUSH1 0x1 PUSH1 0x1 PUSH1 0x40 SHL SUB DUP2 GT PUSH2 0x209B JUMPI PUSH1 0x5 SHL PUSH1 0x20 ADD SWAP1 JUMP JUMPDEST PUSH1 0x0 NOT DUP2 EQ PUSH2 0x201B JUMPI PUSH1 0x1 ADD SWAP1 JUMP JUMPDEST DUP1 MLOAD DUP3 LT ISZERO PUSH2 0x23B7 JUMPI PUSH1 0x20 SWAP2 PUSH1 0x5 SHL ADD ADD SWAP1 JUMP JUMPDEST PUSH4 0x4E487B71 PUSH1 0xE0 SHL PUSH1 0x0 MSTORE PUSH1 0x32 PUSH1 0x4 MSTORE PUSH1 0x24 PUSH1 0x0 REVERT INVALID 0xD BLOCKHASH 0xD3 PUSH21 0xFECC4DCA2567CC5AB864D037F0CD1F1E9BDA38C23A SELFDESTRUCT PUSH10 0x1CD74629E085DA6AB72D 0x2B BASEFEE SWAP4 0x25 0x22 0xAE 0xA8 EXP 0xDB DUP13 LOG4 STATICCALL 0xB6 0xCD 0xEB DUP8 0xBC 0x2E PUSH32 0x6C03FD78D3B2100E8983A1F3C3CB45C24C8226B5B805E3B6EB49686530B80853 0x4B 0x2A SWAP3 ADD 0x29 0xEF 0xF6 MLOAD GT XOR 0xCD 0xEC PUSH10 0xD543750C0863CCD71A7D SWAP2 DUP4 SLOAD EXTCODECOPY 0xD6 PUSH10 0x6B187370CE3B76A9003B 0xF8 DUP12 0xE0 SMOD SWAP13 MSTORE8 AND MSIZE EQ SGT PREVRANDAO 0xCD 0x1F 0xD0 LOG4 CALLCODE DUP5 NOT 0x49 PUSH32 0x9722A3DAAFE3B4186F6B6457E054726561737572793A204F6E6C792061757468 PUSH16 0x72697A656420636F6E747261E9171AEF DELEGATECALL PUSH13 0x37AB955B8AFF908E14AE9732BD MOD PUSH4 0x4FA13122 PUSH13 0xFE5C25BFD2FBA2646970667358 0x22 SLT KECCAK256 PUSH18 0x927F84279A380F70BC34BCD93FADA2A5FA81 0xC0 DUP16 0x1E BALANCE GT STATICCALL 0xEE PUSH20 0x4A320D587664736F6C6343000814003300000000 "},"methodIdentifiers":{"PARTNER_FEE_BPS()":"41ee37d1","PLATFORM_FEE_BPS()":"539aa77f","addToPlatformPool(address,uint256)":"f0824f33","authorizeContract(address)":"67561d93","authorizedContracts(address)":"d5b9221b","calculateFees(uint256)":"52238fdd","claimRefund(uint256,address,address,uint256)":"593f35f4","claimWinnings(uint256,address,address,uint256)":"5e0083da","deauthorizeContract(address)":"6e861c0e","distributeFees(address,uint256)":"48fef595","distributeVerifierRewards(uint256,address,uint256)":"75f63e7e","getAllPlatformPools(address[])":"6ee02a9b","getBalanceInfo(address)":"39adac4d","getMarketPool(uint256,address)":"7a3cf742","getOptionPool(uint256,uint256,address)":"dc4ce349","getPlatformPool(address)":"055c796b","getSupportPool(uint256,address)":"4f44289d","getUserStake(uint256,address,address)":"847cf782","getUserSupport(uint256,address,address)":"256ba741","hasUserClaimed(uint256,address)":"07c7a72d","hasUserSupportClaimed(uint256,address)":"5d1c5820","marketManager()":"41ed2c12","marketPools(uint256,address)":"1abf8705","optionPools(uint256,uint256,address)":"f133a04f","owner()":"8da5cb5b","partner()":"be10862b","placeStake(uint256,address,address,uint256,uint256)":"95f41095","platformPools(address)":"6c1b5c8a","renounceOwnership()":"715018a6","setMarketManager(address)":"d82aff11","setPartner(address)":"a16d5960","supportMarket(uint256,address,address,uint256)":"c15d9807","supportPools(uint256,address)":"7de42634","transferOwnership(address)":"f2fde38b","transferToCreator(address,address,uint256)":"112cd223","userBetOptions(uint256,address,uint256)":"a24693ed","userClaimed(uint256,address)":"3beb9842","userStakes(uint256,address,address)":"2f2e594e","userSupportClaimed(uint256,address)":"2ff44b6f","userSupports(uint256,address,address)":"34eba166","withdraw(address,uint256,address)":"69328dec","withdrawPlatformFunds(address,uint256,address)":"674d20cb","withdrawSupport(uint256,address,address,uint256)":"2f7c165e"}}}}}