{"contracts/AdminManger.sol":{"AdminManager":{"abi":[{"inputs":[{"internalType":"address","name":"initialOwner","type":"address"}],"stateMutability":"nonpayable","type":"constructor"},{"inputs":[{"internalType":"address","name":"owner","type":"address"}],"name":"OwnableInvalidOwner","type":"error"},{"inputs":[{"internalType":"address","name":"account","type":"address"}],"name":"OwnableUnauthorizedAccount","type":"error"},{"anonymous":false,"inputs":[{"indexed":true,"internalType":"address","name":"analytics","type":"address"}],"name":"AnalyticsSet","type":"event"},{"anonymous":false,"inputs":[{"indexed":true,"internalType":"address","name":"eventPool","type":"address"}],"name":"EventPoolSet","type":"event"},{"anonymous":false,"inputs":[{"indexed":true,"internalType":"uint256","name":"marketId","type":"uint256"},{"indexed":false,"internalType":"string","name":"reason","type":"string"}],"name":"MarketDeleted","type":"event"},{"anonymous":false,"inputs":[{"indexed":true,"internalType":"uint256","name":"marketId","type":"uint256"}],"name":"MarketPermanentlyRemoved","type":"event"},{"anonymous":false,"inputs":[{"indexed":false,"internalType":"uint256","name":"duration","type":"uint256"}],"name":"MinMarketDurationSet","type":"event"},{"anonymous":false,"inputs":[{"indexed":true,"internalType":"address","name":"previousOwner","type":"address"},{"indexed":true,"internalType":"address","name":"newOwner","type":"address"}],"name":"OwnershipTransferred","type":"event"},{"anonymous":false,"inputs":[{"indexed":false,"internalType":"bool","name":"enabled","type":"bool"},{"indexed":false,"internalType":"uint256","name":"restrictionMinutes","type":"uint256"}],"name":"StakingRestrictionSet","type":"event"},{"anonymous":false,"inputs":[{"indexed":true,"internalType":"address","name":"token","type":"address"},{"indexed":false,"internalType":"string","name":"symbol","type":"string"}],"name":"TokenAdded","type":"event"},{"anonymous":false,"inputs":[{"indexed":true,"internalType":"address","name":"token","type":"address"}],"name":"TokenRemoved","type":"event"},{"anonymous":false,"inputs":[{"indexed":true,"internalType":"address","name":"verification","type":"address"}],"name":"VerificationSet","type":"event"},{"anonymous":false,"inputs":[{"indexed":true,"internalType":"address","name":"wallet","type":"address"},{"indexed":false,"internalType":"bool","name":"blacklisted","type":"bool"}],"name":"WalletBlacklisted","type":"event"},{"inputs":[{"internalType":"address","name":"token","type":"address"},{"internalType":"string","name":"symbol","type":"string"}],"name":"addSupportedToken","outputs":[],"stateMutability":"nonpayable","type":"function"},{"inputs":[],"name":"analytics","outputs":[{"internalType":"address","name":"","type":"address"}],"stateMutability":"view","type":"function"},{"inputs":[],"name":"bettingRestrictionEnabled","outputs":[{"internalType":"bool","name":"","type":"bool"}],"stateMutability":"view","type":"function"},{"inputs":[],"name":"bettingRestrictionMinutes","outputs":[{"internalType":"uint256","name":"","type":"uint256"}],"stateMutability":"view","type":"function"},{"inputs":[{"internalType":"uint256","name":"","type":"uint256"}],"name":"blacklistedAddresses","outputs":[{"internalType":"address","name":"","type":"address"}],"stateMutability":"view","type":"function"},{"inputs":[{"internalType":"address","name":"","type":"address"}],"name":"blacklistedWallets","outputs":[{"internalType":"bool","name":"","type":"bool"}],"stateMutability":"view","type":"function"},{"inputs":[{"internalType":"uint256","name":"marketId","type":"uint256"},{"internalType":"string","name":"reason","type":"string"}],"name":"deleteMarket","outputs":[],"stateMutability":"nonpayable","type":"function"},{"inputs":[{"internalType":"uint256","name":"","type":"uint256"}],"name":"deletedMarkets","outputs":[{"internalType":"uint256","name":"","type":"uint256"}],"stateMutability":"view","type":"function"},{"inputs":[{"internalType":"uint256","name":"","type":"uint256"}],"name":"deletionTimestamp","outputs":[{"internalType":"uint256","name":"","type":"uint256"}],"stateMutability":"view","type":"function"},{"inputs":[],"name":"eventPool","outputs":[{"internalType":"address","name":"","type":"address"}],"stateMutability":"view","type":"function"},{"inputs":[],"name":"getBlacklistedAddresses","outputs":[{"internalType":"address[]","name":"","type":"address[]"}],"stateMutability":"view","type":"function"},{"inputs":[],"name":"getDeletedMarkets","outputs":[{"internalType":"uint256[]","name":"","type":"uint256[]"}],"stateMutability":"view","type":"function"},{"inputs":[],"name":"getMarketsReadyForRemoval","outputs":[{"internalType":"uint256[]","name":"","type":"uint256[]"}],"stateMutability":"view","type":"function"},{"inputs":[],"name":"getPermanentlyRemovedMarkets","outputs":[{"internalType":"uint256[]","name":"","type":"uint256[]"}],"stateMutability":"view","type":"function"},{"inputs":[],"name":"getSupportedTokens","outputs":[{"internalType":"address[]","name":"tokens","type":"address[]"},{"internalType":"string[]","name":"symbols","type":"string[]"}],"stateMutability":"view","type":"function"},{"inputs":[{"internalType":"address","name":"token","type":"address"}],"name":"getTokenSymbol","outputs":[{"internalType":"string","name":"","type":"string"}],"stateMutability":"view","type":"function"},{"inputs":[{"internalType":"uint256","name":"","type":"uint256"}],"name":"isMarketDeleted","outputs":[{"internalType":"bool","name":"","type":"bool"}],"stateMutability":"view","type":"function"},{"inputs":[{"internalType":"address","name":"token","type":"address"}],"name":"isTokenSupported","outputs":[{"internalType":"bool","name":"","type":"bool"}],"stateMutability":"view","type":"function"},{"inputs":[{"internalType":"address","name":"wallet","type":"address"}],"name":"isWalletBlacklisted","outputs":[{"internalType":"bool","name":"","type":"bool"}],"stateMutability":"view","type":"function"},{"inputs":[],"name":"minMarketDurationMinutes","outputs":[{"internalType":"uint256","name":"","type":"uint256"}],"stateMutability":"view","type":"function"},{"inputs":[],"name":"owner","outputs":[{"internalType":"address","name":"","type":"address"}],"stateMutability":"view","type":"function"},{"inputs":[{"internalType":"uint256","name":"marketId","type":"uint256"}],"name":"permanentlyRemoveMarket","outputs":[],"stateMutability":"nonpayable","type":"function"},{"inputs":[{"internalType":"uint256","name":"","type":"uint256"}],"name":"permanentlyRemovedMarkets","outputs":[{"internalType":"uint256","name":"","type":"uint256"}],"stateMutability":"view","type":"function"},{"inputs":[{"internalType":"address","name":"token","type":"address"}],"name":"removeSupportedToken","outputs":[],"stateMutability":"nonpayable","type":"function"},{"inputs":[],"name":"renounceOwnership","outputs":[],"stateMutability":"nonpayable","type":"function"},{"inputs":[{"internalType":"address","name":"_analytics","type":"address"}],"name":"setAnalytics","outputs":[],"stateMutability":"nonpayable","type":"function"},{"inputs":[{"internalType":"address","name":"_eventPool","type":"address"}],"name":"setEventPool","outputs":[],"stateMutability":"nonpayable","type":"function"},{"inputs":[{"internalType":"uint256","name":"_minMarketDurationMinutes","type":"uint256"}],"name":"setMinMarketDuration","outputs":[],"stateMutability":"nonpayable","type":"function"},{"inputs":[{"internalType":"bool","name":"_enabled","type":"bool"},{"internalType":"uint256","name":"_restrictionMinutes","type":"uint256"}],"name":"setStakingRestriction","outputs":[],"stateMutability":"nonpayable","type":"function"},{"inputs":[{"internalType":"address","name":"_verification","type":"address"}],"name":"setVerification","outputs":[],"stateMutability":"nonpayable","type":"function"},{"inputs":[{"internalType":"address","name":"wallet","type":"address"},{"internalType":"bool","name":"blacklisted","type":"bool"}],"name":"setWalletBlacklist","outputs":[],"stateMutability":"nonpayable","type":"function"},{"inputs":[{"internalType":"uint256","name":"","type":"uint256"}],"name":"supportedTokenList","outputs":[{"internalType":"address","name":"","type":"address"}],"stateMutability":"view","type":"function"},{"inputs":[{"internalType":"address","name":"","type":"address"}],"name":"supportedTokens","outputs":[{"internalType":"bool","name":"","type":"bool"}],"stateMutability":"view","type":"function"},{"inputs":[{"internalType":"address","name":"","type":"address"}],"name":"tokenSymbols","outputs":[{"internalType":"string","name":"","type":"string"}],"stateMutability":"view","type":"function"},{"inputs":[{"internalType":"address","name":"newOwner","type":"address"}],"name":"transferOwnership","outputs":[],"stateMutability":"nonpayable","type":"function"},{"inputs":[],"name":"verification","outputs":[{"internalType":"address","name":"","type":"address"}],"stateMutability":"view","type":"function"}],"evm":{"bytecode":{"linkReferences":{},"object":"608034620001db5762001d4b38819003601f8101601f191683016001600160401b03811184821017620001e057839282916040528339602092839181010312620001db57516001600160a01b03808216929091839003620001db578215620001c257600080546001600160a01b0319808216861783556040519590949293929091167f8be0079c531659141344cd1fd0a4f28419497f9722a3daafe3b4186f6b6457e08480a36005600b5560ff199182600c5416600c556005600d558080526003825260408120928354936001948581811c91168015620001b7575b85821014620001a357601f811162000175575b506008635045505560e01b0190558180526002835260408220805490911684179055600454926801000000000000000084101562000161578301806004558310156200014d57600481522001908154169055611b549081620001f78239f35b634e487b7160e01b81526032600452602490fd5b634e487b7160e01b82526041600452602482fd5b81845285601f868620920160051c8201915b82811062000197575050620000ee565b85815501869062000187565b634e487b7160e01b84526022600452602484fd5b90607f1690620000db565b604051631e4fbdf760e01b815260006004820152602490fd5b600080fd5b634e487b7160e01b600052604160045260246000fdfe6040608081526004908136101561001557600080fd5b600091823560e01c9081626918001461164757816307adc191146114dd5781631356af021461138157816317916e01146114be5781631cf64fa41461149557816328beef04146113bf5781632b5ba3b9146113815781632b60c822146113575781633bbab179146112e057816345843695146112385781634ffe2a8b1461120f578163510499691461108c57816365ebce551461101357816368c4ac2614610bbb5781636d82222014610f90578163715018a614610f48578163720138e814610c6157816374c350eb14610bf957816375151b6314610bbb578163763191901461098d57816380d5ac8a1461096457816381a73ad51461093757816381b17d2914610907578163881df9e1146108ce57816388d3cc48146108aa5781638da5cb5b14610882578163971f8bb11461081a5781639b36846a146107ed578163a7a8c359146107a9578163ad8e42ff14610781578163baa9c4ac14610762578163c8a843b71461066a578163d3c7c2c7146104fe578163db62c6de1461027b578163f2fde38b14610202575063fb0b2b36146101ae57600080fd5b346101fe5760203660031901126101fe576101fa916101e79082906001600160a01b036101d9611750565b168152600360205220611953565b90519182916020835260208301906118d9565b0390f35b5080fd5b9050346102775760203660031901126102775761021d611750565b906102266119f9565b6001600160a01b0391821692831561026157505082546001600160a01b031981168317845516600080516020611aff8339815191528380a380f35b51631e4fbdf760e01b8152908101849052602490fd5b8280fd5b91905034610277578060031936011261027757610296611750565b906024918235938415938415948587036104fa576102b26119f9565b6001600160a01b038481169790919088156104ab57888a526005602052868a209081549160ff83169260ff8b169060ff1916179055806104a3575b15610367575050600654929050600160401b8310156103565750509161034e600080516020611adf833981519152949261032f856001602097016006556117b7565b90919082549060031b9160018060a01b03809116831b921b1916179055565b51908152a280f35b634e487b7160e01b88526041905286fd5b908092939498979695509161049b575b5061039a575b5050600080516020611adf8339815191529293509060209161034e565b865b600680548083101561047b5783886103b3856117b7565b929054600393841b1c16146103d3575050506103ce90611a3c565b61039c565b6000999491959392969798991995868101908111610469579161032f916103fd61040995946117b7565b9054911b1c16916117b7565b83549182156104585750509160209391600080516020611adf8339815191529593019061044d610438836117b7565b81549060018060a01b039060031b1b19169055565b555b9091849361037d565b634e487b7160e01b89526031905287fd5b634e487b7160e01b8c5260118652848cfd5b5050505050600080516020611adf8339815191529293509060209161044f565b905038610377565b5080156102ed565b865162461bcd60e51b81526020818701528085018590527f41646d696e4d616e616765723a20496e76616c69642077616c6c6574206164646044820152637265737360e01b6064820152608490fd5b8780fd5b9050346102775782600319360112610277575461051a81611a61565b926105278351948561180f565b818452601f198061053784611a61565b0194602095368783013761054a84611a61565b936105578651958661180f565b8085528261056482611a61565b01845b81811061065b575050835b8181106105e857505061058d908551958087528601906117d2565b94848603818601528351918287528187019082808560051b8a0101960194975b8489106105ba5787870388f35b90919293949584806105d6838686600196030188528a516118d9565b980194019801979190949392946105ad565b806105f9610652929995969961176b565b90546003916001600160a01b039190831b1c81166106178488611a78565b526106218361176b565b905490831b1c168a528552610637888a20611953565b6106418289611a78565b5261064c8188611a78565b50611a3c565b96939296610572565b60608782018a01528801610567565b8383346101fe57816003193601126101fe5760075461068881611a8c565b938391845b8181106106da575050506106a081611a8c565b925b8181106106b6578251806101fa868261189e565b806106c46106d59287611a78565b516106cf8287611a78565b52611a3c565b6106a2565b6106e38161179c565b90549060031b1c8087526020600a815260ff87892054169081610730575b50610716575b5061071190611a3c565b61068d565b84610729916106cf61071194978b611a78565b9390610707565b60089150528587205462278d00810180911161074f5742101589610701565b634e487b7160e01b885260118552602488fd5b5050346101fe57816003193601126101fe57602090600d549051908152f35b9050346102775760203660031901126102775760209282913581526008845220549051908152f35b9050346102775760203660031901126102775735916006548310156107ea57506107d46020926117b7565b905491519160018060a01b039160031b1c168152f35b80fd5b905034610277576020366003190112610277578160209360ff92358152600a855220541690519015158152f35b83346107ea5760203660031901126107ea57610834611750565b61083c6119f9565b600f80546001600160a01b0319166001600160a01b039290921691821790557fb7351a1f90ddfe06d9f857527a29df899449446032b91e5d0cc56895e7b856d88280a280f35b5050346101fe57816003193601126101fe57905490516001600160a01b039091168152602090f35b5050346101fe57816003193601126101fe5760209060ff600c541690519015158152f35b9050346102775760203660031901126102775735916007548310156107ea57506108f960209261179c565b91905490519160031b1c8152f35b90503461027757602036600319011261027757356009548110156102775760208360098295522001549051908152f35b5050346101fe5760203660031901126101fe576101fa916101e79082906001600160a01b036101d9611750565b5050346101fe57816003193601126101fe57600e5490516001600160a01b039091168152602090f35b9050346102775760209081600319360112610bb7576109aa611750565b926109b36119f9565b6001600160a01b03938416928315610b65578386526002815260ff828720541615610b1a5785908482526002815282822060ff1981541690556003928382528220906109ff8254611919565b9081610adb575b5050505b825480821015610ad0578486610a1f8461176b565b905490861b1c1614610a3a5750610a3590611a3c565b610a0a565b929394909160001993848101908111610abd579161032f91610a5f610a6b959461176b565b9054911b1c169161176b565b81548015610aaa570190610a816104388361176b565b555b7f4c910b69fe65a61f7531b9c5042b2329ca7179c77290aa7e2eb3afa3c8511fd38280a280f35b634e487b7160e01b855260318352602485fd5b634e487b7160e01b885260118652602488fd5b505050509050610a83565b8390601f8311600114610af657505050555b84388080610a06565b8382528120929091610b1390601f0160051c840160018501611a25565b5555610aed565b905162461bcd60e51b815291820152602160248201527f41646d696e4d616e616765723a20546f6b656e206e6f7420737570706f7274656044820152601960fa1b6064820152608490fd5b905162461bcd60e51b815291820152602860248201527f41646d696e4d616e616765723a2043616e6e6f742072656d6f7665206e6174696044820152673b32903a37b5b2b760c11b6064820152608490fd5b8380fd5b5050346101fe5760203660031901126101fe5760209160ff9082906001600160a01b03610be6611750565b1681526002855220541690519015158152f35b83346107ea5760203660031901126107ea57610c13611750565b610c1b6119f9565b600e80546001600160a01b0319166001600160a01b039290921691821790557f50e996e83fb672147763934032cc359242f03e89a60c666f72ce4270d23ed4fd8280a280f35b839150346101fe57826003193601126101fe57610c7c611750565b6024906001600160401b03908235828111610f4457610c9e9036908601611848565b92610ca76119f9565b6001600160a01b038216948515610ef757845115610eab578587526020936002855260ff8989205416610e5c5786885260028552888820906001918260ff1982541617905560038652898920908751908111610e4a57610d078254611919565b601f8111610e11575b508087601f8211600114610db3578b91610da8575b50600019600383901b1c191690831b1790555b815492600160401b841015610d9757509261032f83610d8293610d91967f7afee0f1b802cc0f66c67890e26b4566251859cf2cd8de79b86aed7251d9756a9a9b9c9601905561176b565b519282849384528301906118d9565b0390a280f35b634e487b7160e01b89526041835288fd5b90508801518c610d25565b838c52888c2085935090601f1983168d5b8b8d838310610dfc575050508311610de3575b5050811b019055610d38565b8a015160001960f88460031b161c191690558c80610dd7565b84015185558896909401939283019201610dc4565b610e3a90838c52888c20601f840160051c8101918a8510610e40575b601f0160051c0190611a25565b8b610d10565b9091508190610e2d565b634e487b7160e01b8a5260418452848afd5b506025608492858a519362461bcd60e51b85528401528201527f41646d696e4d616e616765723a20546f6b656e20616c726561647920737570706044820152641bdc9d195960da1b6064820152fd5b602260849260208a519362461bcd60e51b85528401528201527f41646d696e4d616e616765723a20496e76616c696420746f6b656e2073796d626044820152611bdb60f21b6064820152fd5b602360849260208a519362461bcd60e51b85528401528201527f41646d696e4d616e616765723a20496e76616c696420746f6b656e206164647260448201526265737360e81b6064820152fd5b8580fd5b83346107ea57806003193601126107ea57610f616119f9565b80546001600160a01b03198116825581906001600160a01b0316600080516020611aff8339815191528280a380f35b8284346107ea57806003193601126107ea5781516009805480835290835260208083019492937f6e1540171b6c0c960b71a7020d9f60077f6af931a8bbf590da0223dacf75c7af92915b828210610ffc576101fa8686610ff2828b038361180f565b519182918261189e565b835487529586019560019384019390910190610fda565b8284346107ea57806003193601126107ea5781516007805480835290835260208083019492937fa66cc928b5edb82af9bd49922954155ab7b0942694bea4ce44661d9a8736c68892915b828210611075576101fa8686610ff2828b038361180f565b83548752958601956001938401939091019061105d565b8383346101fe57806003193601126101fe578235906024356001600160401b038111610bb7576110bf9036908601611848565b906110c86119f9565b6001546001600160a01b0316156111cd57828452602090600a825260ff818620541661118a57838552600a8252808520805460ff1916600117905560088252808520429055600754600160401b811015611177577f23684a7f94f98a36f3d1d0bcf07b3cbc7c4fd1a4f06996ff8155975b6885b56e939291611153826001610d91940160075561179c565b81549060031b9088821b91600019901b1916179055519282849384528301906118d9565b634e487b7160e01b865260418752602486fd5b5162461bcd60e51b815280860191909152601d60248201527f41646d696e4d616e616765723a20416c72656164792064656c657465640000006044820152606490fd5b5162461bcd60e51b8152602081860152601f60248201527f41646d696e4d616e616765723a204576656e74506f6f6c206e6f7420736574006044820152606490fd5b5050346101fe57816003193601126101fe57600f5490516001600160a01b039091168152602090f35b91905034610277576020366003190112610277578135916112576119f9565b821561128f5750816020917f336366e6b0ce658e9a9b8eb1bda9d88fe2ff3c01d3e2dd258e0e338daf1b2a4193600b5551908152a180f35b6020608492519162461bcd60e51b8352820152602660248201527f41646d696e4d616e616765723a20496e76616c6964206d696e696d756d2064756044820152653930ba34b7b760d11b6064820152fd5b5050346101fe57816003193601126101fe578051908180936006549081855260208095019160068252858220915b868282106113375785906101fa886113288489038561180f565b519282849384528301906117d2565b83546001600160a01b03168552889550909301926001928301920161130e565b8284346107ea5760203660031901126107ea57823592548310156107ea57506107d460209261176b565b5050346101fe5760203660031901126101fe5760209160ff9082906001600160a01b036113ac611750565b1681526005855220541690519015158152f35b8383346101fe57806003193601126101fe5782359283151590818503610bb757602435946113eb6119f9565b60ff19600c541660ff841617600c5561141f575b50600080516020611abf833981519152929382519182526020820152a180f35b841561143f5750600d849055600080516020611abf8339815191526113ff565b608490602084519162461bcd60e51b8352820152602a60248201527f41646d696e4d616e616765723a20496e76616c6964207265737472696374696f6044820152693710323ab930ba34b7b760b11b6064820152fd5b5050346101fe57816003193601126101fe5760015490516001600160a01b039091168152602090f35b5050346101fe57816003193601126101fe57602090600b549051908152f35b8383346101fe57602080600319360112610277578335916114fc6119f9565b828452600a825260ff81852054161561160657828452600882528084205462278d0081018091116115f35742106115a4575060095490600160401b82101561159157600182018060095582101561157e57600984528320018190557fb8410e595f043215bc63ac3731daf093f87e30c0c938b0171e93c45be1a676ff8280a280f35b634e487b7160e01b845260328552602484fd5b634e487b7160e01b845260418552602484fd5b5162461bcd60e51b8152808501919091526024808201527f41646d696e4d616e616765723a20436c61696d20706572696f64206e6f7420656044820152631b99195960e21b6064820152608490fd5b634e487b7160e01b855260118652602485fd5b816064928692519262461bcd60e51b845283015260248201527f41646d696e4d616e616765723a204d61726b6574206e6f742064656c657465646044820152fd5b839150346101fe5760203660031901126101fe57611663611750565b61166b6119f9565b6001600160a01b0390811691821561170d576001549182166116be57506001600160a01b03191681176001557f1ea36f5011fe2ea7103e332112f0f0c8dfc2bab1a4f45613d501ba054da583638280a280f35b608490602086519162461bcd60e51b8352820152602360248201527f41646d696e4d616e616765723a204576656e74506f6f6c20616c7265616479206044820152621cd95d60ea1b6064820152fd5b606490602086519162461bcd60e51b8352820152601d60248201527f41646d696e4d616e616765723a20496e76616c696420616464726573730000006044820152fd5b600435906001600160a01b038216820361176657565b600080fd5b60045481101561178657600460005260206000200190600090565b634e487b7160e01b600052603260045260246000fd5b60075481101561178657600760005260206000200190600090565b60065481101561178657600660005260206000200190600090565b90815180825260208080930193019160005b8281106117f2575050505090565b83516001600160a01b0316855293810193928101926001016117e4565b601f909101601f19168101906001600160401b0382119082101761183257604052565b634e487b7160e01b600052604160045260246000fd5b81601f82011215611766578035906001600160401b038211611832576040519261187c601f8401601f19166020018561180f565b8284526020838301011161176657816000926020809301838601378301015290565b6020908160408183019282815285518094520193019160005b8281106118c5575050505090565b8351855293810193928101926001016118b7565b919082519283825260005b848110611905575050826000602080949584010152601f8019910116010190565b6020818301810151848301820152016118e4565b90600182811c92168015611949575b602083101461193357565b634e487b7160e01b600052602260045260246000fd5b91607f1691611928565b906040519182600082549261196784611919565b9081845260019485811690816000146119d65750600114611993575b50506119919250038361180f565b565b9093915060005260209081600020936000915b8183106119be57505061199193508201013880611983565b855488840185015294850194879450918301916119a6565b91505061199194506020925060ff191682840152151560051b8201013880611983565b6000546001600160a01b03163303611a0d57565b60405163118cdaa760e01b8152336004820152602490fd5b818110611a30575050565b60008155600101611a25565b6000198114611a4b5760010190565b634e487b7160e01b600052601160045260246000fd5b6001600160401b0381116118325760051b60200190565b80518210156117865760209160051b010190565b90611a9682611a61565b611aa3604051918261180f565b8281528092611ab4601f1991611a61565b019060203691013756fe45e313a07af6646445b3ef2a00f8521d05eab3279381dbf73ea90fd5f9003e0e6e5e68466043e631629f40501adefa55dc080619353e9256cecbb1cc4997c1858be0079c531659141344cd1fd0a4f28419497f9722a3daafe3b4186f6b6457e0a26469706673582212206eaf199d56b956dbec79833d63b5a507ee2f42124c73af1d7dce68f885a346c764736f6c63430008140033","opcodes":"PUSH1 0x80 CALLVALUE PUSH3 0x1DB JUMPI PUSH3 0x1D4B CODESIZE DUP2 SWAP1 SUB PUSH1 0x1F DUP2 ADD PUSH1 0x1F NOT AND DUP4 ADD PUSH1 0x1 PUSH1 0x1 PUSH1 0x40 SHL SUB DUP2 GT DUP5 DUP3 LT OR PUSH3 0x1E0 JUMPI DUP4 SWAP3 DUP3 SWAP2 PUSH1 0x40 MSTORE DUP4 CODECOPY PUSH1 0x20 SWAP3 DUP4 SWAP2 DUP2 ADD SUB SLT PUSH3 0x1DB JUMPI MLOAD PUSH1 0x1 PUSH1 0x1 PUSH1 0xA0 SHL SUB DUP1 DUP3 AND SWAP3 SWAP1 SWAP2 DUP4 SWAP1 SUB PUSH3 0x1DB JUMPI DUP3 ISZERO PUSH3 0x1C2 JUMPI PUSH1 0x0 DUP1 SLOAD PUSH1 0x1 PUSH1 0x1 PUSH1 0xA0 SHL SUB NOT DUP1 DUP3 AND DUP7 OR DUP4 SSTORE PUSH1 0x40 MLOAD SWAP6 SWAP1 SWAP5 SWAP3 SWAP4 SWAP3 SWAP1 SWAP2 AND PUSH32 0x8BE0079C531659141344CD1FD0A4F28419497F9722A3DAAFE3B4186F6B6457E0 DUP5 DUP1 LOG3 PUSH1 0x5 PUSH1 0xB SSTORE PUSH1 0xFF NOT SWAP2 DUP3 PUSH1 0xC SLOAD AND PUSH1 0xC SSTORE PUSH1 0x5 PUSH1 0xD SSTORE DUP1 DUP1 MSTORE PUSH1 0x3 DUP3 MSTORE PUSH1 0x40 DUP2 KECCAK256 SWAP3 DUP4 SLOAD SWAP4 PUSH1 0x1 SWAP5 DUP6 DUP2 DUP2 SHR SWAP2 AND DUP1 ISZERO PUSH3 0x1B7 JUMPI JUMPDEST DUP6 DUP3 LT EQ PUSH3 0x1A3 JUMPI PUSH1 0x1F DUP2 GT PUSH3 0x175 JUMPI JUMPDEST POP PUSH1 0x8 PUSH4 0x50455055 PUSH1 0xE0 SHL ADD SWAP1 SSTORE DUP2 DUP1 MSTORE PUSH1 0x2 DUP4 MSTORE PUSH1 0x40 DUP3 KECCAK256 DUP1 SLOAD SWAP1 SWAP2 AND DUP5 OR SWAP1 SSTORE PUSH1 0x4 SLOAD SWAP3 PUSH9 0x10000000000000000 DUP5 LT ISZERO PUSH3 0x161 JUMPI DUP4 ADD DUP1 PUSH1 0x4 SSTORE DUP4 LT ISZERO PUSH3 0x14D JUMPI PUSH1 0x4 DUP2 MSTORE KECCAK256 ADD SWAP1 DUP2 SLOAD AND SWAP1 SSTORE PUSH2 0x1B54 SWAP1 DUP2 PUSH3 0x1F7 DUP3 CODECOPY RETURN JUMPDEST PUSH4 0x4E487B71 PUSH1 0xE0 SHL DUP2 MSTORE PUSH1 0x32 PUSH1 0x4 MSTORE PUSH1 0x24 SWAP1 REVERT JUMPDEST PUSH4 0x4E487B71 PUSH1 0xE0 SHL DUP3 MSTORE PUSH1 0x41 PUSH1 0x4 MSTORE PUSH1 0x24 DUP3 REVERT JUMPDEST DUP2 DUP5 MSTORE DUP6 PUSH1 0x1F DUP7 DUP7 KECCAK256 SWAP3 ADD PUSH1 0x5 SHR DUP3 ADD SWAP2 JUMPDEST DUP3 DUP2 LT PUSH3 0x197 JUMPI POP POP PUSH3 0xEE JUMP JUMPDEST DUP6 DUP2 SSTORE ADD DUP7 SWAP1 PUSH3 0x187 JUMP JUMPDEST PUSH4 0x4E487B71 PUSH1 0xE0 SHL DUP5 MSTORE PUSH1 0x22 PUSH1 0x4 MSTORE PUSH1 0x24 DUP5 REVERT JUMPDEST SWAP1 PUSH1 0x7F AND SWAP1 PUSH3 0xDB JUMP JUMPDEST PUSH1 0x40 MLOAD PUSH4 0x1E4FBDF7 PUSH1 0xE0 SHL DUP2 MSTORE PUSH1 0x0 PUSH1 0x4 DUP3 ADD MSTORE PUSH1 0x24 SWAP1 REVERT JUMPDEST PUSH1 0x0 DUP1 REVERT JUMPDEST PUSH4 0x4E487B71 PUSH1 0xE0 SHL PUSH1 0x0 MSTORE PUSH1 0x41 PUSH1 0x4 MSTORE PUSH1 0x24 PUSH1 0x0 REVERT INVALID PUSH1 0x40 PUSH1 0x80 DUP2 MSTORE PUSH1 0x4 SWAP1 DUP2 CALLDATASIZE LT ISZERO PUSH2 0x15 JUMPI PUSH1 0x0 DUP1 REVERT JUMPDEST PUSH1 0x0 SWAP2 DUP3 CALLDATALOAD PUSH1 0xE0 SHR SWAP1 DUP2 PUSH3 0x691800 EQ PUSH2 0x1647 JUMPI DUP2 PUSH4 0x7ADC191 EQ PUSH2 0x14DD JUMPI DUP2 PUSH4 0x1356AF02 EQ PUSH2 0x1381 JUMPI DUP2 PUSH4 0x17916E01 EQ PUSH2 0x14BE JUMPI DUP2 PUSH4 0x1CF64FA4 EQ PUSH2 0x1495 JUMPI DUP2 PUSH4 0x28BEEF04 EQ PUSH2 0x13BF JUMPI DUP2 PUSH4 0x2B5BA3B9 EQ PUSH2 0x1381 JUMPI DUP2 PUSH4 0x2B60C822 EQ PUSH2 0x1357 JUMPI DUP2 PUSH4 0x3BBAB179 EQ PUSH2 0x12E0 JUMPI DUP2 PUSH4 0x45843695 EQ PUSH2 0x1238 JUMPI DUP2 PUSH4 0x4FFE2A8B EQ PUSH2 0x120F JUMPI DUP2 PUSH4 0x51049969 EQ PUSH2 0x108C JUMPI DUP2 PUSH4 0x65EBCE55 EQ PUSH2 0x1013 JUMPI DUP2 PUSH4 0x68C4AC26 EQ PUSH2 0xBBB JUMPI DUP2 PUSH4 0x6D822220 EQ PUSH2 0xF90 JUMPI DUP2 PUSH4 0x715018A6 EQ PUSH2 0xF48 JUMPI DUP2 PUSH4 0x720138E8 EQ PUSH2 0xC61 JUMPI DUP2 PUSH4 0x74C350EB EQ PUSH2 0xBF9 JUMPI DUP2 PUSH4 0x75151B63 EQ PUSH2 0xBBB JUMPI DUP2 PUSH4 0x76319190 EQ PUSH2 0x98D JUMPI DUP2 PUSH4 0x80D5AC8A EQ PUSH2 0x964 JUMPI DUP2 PUSH4 0x81A73AD5 EQ PUSH2 0x937 JUMPI DUP2 PUSH4 0x81B17D29 EQ PUSH2 0x907 JUMPI DUP2 PUSH4 0x881DF9E1 EQ PUSH2 0x8CE JUMPI DUP2 PUSH4 0x88D3CC48 EQ PUSH2 0x8AA JUMPI DUP2 PUSH4 0x8DA5CB5B EQ PUSH2 0x882 JUMPI DUP2 PUSH4 0x971F8BB1 EQ PUSH2 0x81A JUMPI DUP2 PUSH4 0x9B36846A EQ PUSH2 0x7ED JUMPI DUP2 PUSH4 0xA7A8C359 EQ PUSH2 0x7A9 JUMPI DUP2 PUSH4 0xAD8E42FF EQ PUSH2 0x781 JUMPI DUP2 PUSH4 0xBAA9C4AC EQ PUSH2 0x762 JUMPI DUP2 PUSH4 0xC8A843B7 EQ PUSH2 0x66A JUMPI DUP2 PUSH4 0xD3C7C2C7 EQ PUSH2 0x4FE JUMPI DUP2 PUSH4 0xDB62C6DE EQ PUSH2 0x27B JUMPI DUP2 PUSH4 0xF2FDE38B EQ PUSH2 0x202 JUMPI POP PUSH4 0xFB0B2B36 EQ PUSH2 0x1AE JUMPI PUSH1 0x0 DUP1 REVERT JUMPDEST CALLVALUE PUSH2 0x1FE JUMPI PUSH1 0x20 CALLDATASIZE PUSH1 0x3 NOT ADD SLT PUSH2 0x1FE JUMPI PUSH2 0x1FA SWAP2 PUSH2 0x1E7 SWAP1 DUP3 SWAP1 PUSH1 0x1 PUSH1 0x1 PUSH1 0xA0 SHL SUB PUSH2 0x1D9 PUSH2 0x1750 JUMP JUMPDEST AND DUP2 MSTORE PUSH1 0x3 PUSH1 0x20 MSTORE KECCAK256 PUSH2 0x1953 JUMP JUMPDEST SWAP1 MLOAD SWAP2 DUP3 SWAP2 PUSH1 0x20 DUP4 MSTORE PUSH1 0x20 DUP4 ADD SWAP1 PUSH2 0x18D9 JUMP JUMPDEST SUB SWAP1 RETURN JUMPDEST POP DUP1 REVERT JUMPDEST SWAP1 POP CALLVALUE PUSH2 0x277 JUMPI PUSH1 0x20 CALLDATASIZE PUSH1 0x3 NOT ADD SLT PUSH2 0x277 JUMPI PUSH2 0x21D PUSH2 0x1750 JUMP JUMPDEST SWAP1 PUSH2 0x226 PUSH2 0x19F9 JUMP JUMPDEST PUSH1 0x1 PUSH1 0x1 PUSH1 0xA0 SHL SUB SWAP2 DUP3 AND SWAP3 DUP4 ISZERO PUSH2 0x261 JUMPI POP POP DUP3 SLOAD PUSH1 0x1 PUSH1 0x1 PUSH1 0xA0 SHL SUB NOT DUP2 AND DUP4 OR DUP5 SSTORE AND PUSH1 0x0 DUP1 MLOAD PUSH1 0x20 PUSH2 0x1AFF DUP4 CODECOPY DUP2 MLOAD SWAP2 MSTORE DUP4 DUP1 LOG3 DUP1 RETURN JUMPDEST MLOAD PUSH4 0x1E4FBDF7 PUSH1 0xE0 SHL DUP2 MSTORE SWAP1 DUP2 ADD DUP5 SWAP1 MSTORE PUSH1 0x24 SWAP1 REVERT JUMPDEST DUP3 DUP1 REVERT JUMPDEST SWAP2 SWAP1 POP CALLVALUE PUSH2 0x277 JUMPI DUP1 PUSH1 0x3 NOT CALLDATASIZE ADD SLT PUSH2 0x277 JUMPI PUSH2 0x296 PUSH2 0x1750 JUMP JUMPDEST SWAP1 PUSH1 0x24 SWAP2 DUP3 CALLDATALOAD SWAP4 DUP5 ISZERO SWAP4 DUP5 ISZERO SWAP5 DUP6 DUP8 SUB PUSH2 0x4FA JUMPI PUSH2 0x2B2 PUSH2 0x19F9 JUMP JUMPDEST PUSH1 0x1 PUSH1 0x1 PUSH1 0xA0 SHL SUB DUP5 DUP2 AND SWAP8 SWAP1 SWAP2 SWAP1 DUP9 ISZERO PUSH2 0x4AB JUMPI DUP9 DUP11 MSTORE PUSH1 0x5 PUSH1 0x20 MSTORE DUP7 DUP11 KECCAK256 SWAP1 DUP2 SLOAD SWAP2 PUSH1 0xFF DUP4 AND SWAP3 PUSH1 0xFF DUP12 AND SWAP1 PUSH1 0xFF NOT AND OR SWAP1 SSTORE DUP1 PUSH2 0x4A3 JUMPI JUMPDEST ISZERO PUSH2 0x367 JUMPI POP POP PUSH1 0x6 SLOAD SWAP3 SWAP1 POP PUSH1 0x1 PUSH1 0x40 SHL DUP4 LT ISZERO PUSH2 0x356 JUMPI POP POP SWAP2 PUSH2 0x34E PUSH1 0x0 DUP1 MLOAD PUSH1 0x20 PUSH2 0x1ADF DUP4 CODECOPY DUP2 MLOAD SWAP2 MSTORE SWAP5 SWAP3 PUSH2 0x32F DUP6 PUSH1 0x1 PUSH1 0x20 SWAP8 ADD PUSH1 0x6 SSTORE PUSH2 0x17B7 JUMP JUMPDEST SWAP1 SWAP2 SWAP1 DUP3 SLOAD SWAP1 PUSH1 0x3 SHL SWAP2 PUSH1 0x1 DUP1 PUSH1 0xA0 SHL SUB DUP1 SWAP2 AND DUP4 SHL SWAP3 SHL NOT AND OR SWAP1 SSTORE JUMP JUMPDEST MLOAD SWAP1 DUP2 MSTORE LOG2 DUP1 RETURN JUMPDEST PUSH4 0x4E487B71 PUSH1 0xE0 SHL DUP9 MSTORE PUSH1 0x41 SWAP1 MSTORE DUP7 REVERT JUMPDEST SWAP1 DUP1 SWAP3 SWAP4 SWAP5 SWAP9 SWAP8 SWAP7 SWAP6 POP SWAP2 PUSH2 0x49B JUMPI JUMPDEST POP PUSH2 0x39A JUMPI JUMPDEST POP POP PUSH1 0x0 DUP1 MLOAD PUSH1 0x20 PUSH2 0x1ADF DUP4 CODECOPY DUP2 MLOAD SWAP2 MSTORE SWAP3 SWAP4 POP SWAP1 PUSH1 0x20 SWAP2 PUSH2 0x34E JUMP JUMPDEST DUP7 JUMPDEST PUSH1 0x6 DUP1 SLOAD DUP1 DUP4 LT ISZERO PUSH2 0x47B JUMPI DUP4 DUP9 PUSH2 0x3B3 DUP6 PUSH2 0x17B7 JUMP JUMPDEST SWAP3 SWAP1 SLOAD PUSH1 0x3 SWAP4 DUP5 SHL SHR AND EQ PUSH2 0x3D3 JUMPI POP POP POP PUSH2 0x3CE SWAP1 PUSH2 0x1A3C JUMP JUMPDEST PUSH2 0x39C JUMP JUMPDEST PUSH1 0x0 SWAP10 SWAP5 SWAP2 SWAP6 SWAP4 SWAP3 SWAP7 SWAP8 SWAP9 SWAP10 NOT SWAP6 DUP7 DUP2 ADD SWAP1 DUP2 GT PUSH2 0x469 JUMPI SWAP2 PUSH2 0x32F SWAP2 PUSH2 0x3FD PUSH2 0x409 SWAP6 SWAP5 PUSH2 0x17B7 JUMP JUMPDEST SWAP1 SLOAD SWAP2 SHL SHR AND SWAP2 PUSH2 0x17B7 JUMP JUMPDEST DUP4 SLOAD SWAP2 DUP3 ISZERO PUSH2 0x458 JUMPI POP POP SWAP2 PUSH1 0x20 SWAP4 SWAP2 PUSH1 0x0 DUP1 MLOAD PUSH1 0x20 PUSH2 0x1ADF DUP4 CODECOPY DUP2 MLOAD SWAP2 MSTORE SWAP6 SWAP4 ADD SWAP1 PUSH2 0x44D PUSH2 0x438 DUP4 PUSH2 0x17B7 JUMP JUMPDEST DUP2 SLOAD SWAP1 PUSH1 0x1 DUP1 PUSH1 0xA0 SHL SUB SWAP1 PUSH1 0x3 SHL SHL NOT AND SWAP1 SSTORE JUMP JUMPDEST SSTORE JUMPDEST SWAP1 SWAP2 DUP5 SWAP4 PUSH2 0x37D JUMP JUMPDEST PUSH4 0x4E487B71 PUSH1 0xE0 SHL DUP10 MSTORE PUSH1 0x31 SWAP1 MSTORE DUP8 REVERT JUMPDEST PUSH4 0x4E487B71 PUSH1 0xE0 SHL DUP13 MSTORE PUSH1 0x11 DUP7 MSTORE DUP5 DUP13 REVERT JUMPDEST POP POP POP POP POP PUSH1 0x0 DUP1 MLOAD PUSH1 0x20 PUSH2 0x1ADF DUP4 CODECOPY DUP2 MLOAD SWAP2 MSTORE SWAP3 SWAP4 POP SWAP1 PUSH1 0x20 SWAP2 PUSH2 0x44F JUMP JUMPDEST SWAP1 POP CODESIZE PUSH2 0x377 JUMP JUMPDEST POP DUP1 ISZERO PUSH2 0x2ED JUMP JUMPDEST DUP7 MLOAD PUSH3 0x461BCD PUSH1 0xE5 SHL DUP2 MSTORE PUSH1 0x20 DUP2 DUP8 ADD MSTORE DUP1 DUP6 ADD DUP6 SWAP1 MSTORE PUSH32 0x41646D696E4D616E616765723A20496E76616C69642077616C6C657420616464 PUSH1 0x44 DUP3 ADD MSTORE PUSH4 0x72657373 PUSH1 0xE0 SHL PUSH1 0x64 DUP3 ADD MSTORE PUSH1 0x84 SWAP1 REVERT JUMPDEST DUP8 DUP1 REVERT JUMPDEST SWAP1 POP CALLVALUE PUSH2 0x277 JUMPI DUP3 PUSH1 0x3 NOT CALLDATASIZE ADD SLT PUSH2 0x277 JUMPI SLOAD PUSH2 0x51A DUP2 PUSH2 0x1A61 JUMP JUMPDEST SWAP3 PUSH2 0x527 DUP4 MLOAD SWAP5 DUP6 PUSH2 0x180F JUMP JUMPDEST DUP2 DUP5 MSTORE PUSH1 0x1F NOT DUP1 PUSH2 0x537 DUP5 PUSH2 0x1A61 JUMP JUMPDEST ADD SWAP5 PUSH1 0x20 SWAP6 CALLDATASIZE DUP8 DUP4 ADD CALLDATACOPY PUSH2 0x54A DUP5 PUSH2 0x1A61 JUMP JUMPDEST SWAP4 PUSH2 0x557 DUP7 MLOAD SWAP6 DUP7 PUSH2 0x180F JUMP JUMPDEST DUP1 DUP6 MSTORE DUP3 PUSH2 0x564 DUP3 PUSH2 0x1A61 JUMP JUMPDEST ADD DUP5 JUMPDEST DUP2 DUP2 LT PUSH2 0x65B JUMPI POP POP DUP4 JUMPDEST DUP2 DUP2 LT PUSH2 0x5E8 JUMPI POP POP PUSH2 0x58D SWAP1 DUP6 MLOAD SWAP6 DUP1 DUP8 MSTORE DUP7 ADD SWAP1 PUSH2 0x17D2 JUMP JUMPDEST SWAP5 DUP5 DUP7 SUB DUP2 DUP7 ADD MSTORE DUP4 MLOAD SWAP2 DUP3 DUP8 MSTORE DUP2 DUP8 ADD SWAP1 DUP3 DUP1 DUP6 PUSH1 0x5 SHL DUP11 ADD ADD SWAP7 ADD SWAP5 SWAP8 JUMPDEST DUP5 DUP10 LT PUSH2 0x5BA JUMPI DUP8 DUP8 SUB DUP9 RETURN JUMPDEST SWAP1 SWAP2 SWAP3 SWAP4 SWAP5 SWAP6 DUP5 DUP1 PUSH2 0x5D6 DUP4 DUP7 DUP7 PUSH1 0x1 SWAP7 SUB ADD DUP9 MSTORE DUP11 MLOAD PUSH2 0x18D9 JUMP JUMPDEST SWAP9 ADD SWAP5 ADD SWAP9 ADD SWAP8 SWAP2 SWAP1 SWAP5 SWAP4 SWAP3 SWAP5 PUSH2 0x5AD JUMP JUMPDEST DUP1 PUSH2 0x5F9 PUSH2 0x652 SWAP3 SWAP10 SWAP6 SWAP7 SWAP10 PUSH2 0x176B JUMP JUMPDEST SWAP1 SLOAD PUSH1 0x3 SWAP2 PUSH1 0x1 PUSH1 0x1 PUSH1 0xA0 SHL SUB SWAP2 SWAP1 DUP4 SHL SHR DUP2 AND PUSH2 0x617 DUP5 DUP9 PUSH2 0x1A78 JUMP JUMPDEST MSTORE PUSH2 0x621 DUP4 PUSH2 0x176B JUMP JUMPDEST SWAP1 SLOAD SWAP1 DUP4 SHL SHR AND DUP11 MSTORE DUP6 MSTORE PUSH2 0x637 DUP9 DUP11 KECCAK256 PUSH2 0x1953 JUMP JUMPDEST PUSH2 0x641 DUP3 DUP10 PUSH2 0x1A78 JUMP JUMPDEST MSTORE PUSH2 0x64C DUP2 DUP9 PUSH2 0x1A78 JUMP JUMPDEST POP PUSH2 0x1A3C JUMP JUMPDEST SWAP7 SWAP4 SWAP3 SWAP7 PUSH2 0x572 JUMP JUMPDEST PUSH1 0x60 DUP8 DUP3 ADD DUP11 ADD MSTORE DUP9 ADD PUSH2 0x567 JUMP JUMPDEST DUP4 DUP4 CALLVALUE PUSH2 0x1FE JUMPI DUP2 PUSH1 0x3 NOT CALLDATASIZE ADD SLT PUSH2 0x1FE JUMPI PUSH1 0x7 SLOAD PUSH2 0x688 DUP2 PUSH2 0x1A8C JUMP JUMPDEST SWAP4 DUP4 SWAP2 DUP5 JUMPDEST DUP2 DUP2 LT PUSH2 0x6DA JUMPI POP POP POP PUSH2 0x6A0 DUP2 PUSH2 0x1A8C JUMP JUMPDEST SWAP3 JUMPDEST DUP2 DUP2 LT PUSH2 0x6B6 JUMPI DUP3 MLOAD DUP1 PUSH2 0x1FA DUP7 DUP3 PUSH2 0x189E JUMP JUMPDEST DUP1 PUSH2 0x6C4 PUSH2 0x6D5 SWAP3 DUP8 PUSH2 0x1A78 JUMP JUMPDEST MLOAD PUSH2 0x6CF DUP3 DUP8 PUSH2 0x1A78 JUMP JUMPDEST MSTORE PUSH2 0x1A3C JUMP JUMPDEST PUSH2 0x6A2 JUMP JUMPDEST PUSH2 0x6E3 DUP2 PUSH2 0x179C JUMP JUMPDEST SWAP1 SLOAD SWAP1 PUSH1 0x3 SHL SHR DUP1 DUP8 MSTORE PUSH1 0x20 PUSH1 0xA DUP2 MSTORE PUSH1 0xFF DUP8 DUP10 KECCAK256 SLOAD AND SWAP1 DUP2 PUSH2 0x730 JUMPI JUMPDEST POP PUSH2 0x716 JUMPI JUMPDEST POP PUSH2 0x711 SWAP1 PUSH2 0x1A3C JUMP JUMPDEST PUSH2 0x68D JUMP JUMPDEST DUP5 PUSH2 0x729 SWAP2 PUSH2 0x6CF PUSH2 0x711 SWAP5 SWAP8 DUP12 PUSH2 0x1A78 JUMP JUMPDEST SWAP4 SWAP1 PUSH2 0x707 JUMP JUMPDEST PUSH1 0x8 SWAP2 POP MSTORE DUP6 DUP8 KECCAK256 SLOAD PUSH3 0x278D00 DUP2 ADD DUP1 SWAP2 GT PUSH2 0x74F JUMPI TIMESTAMP LT ISZERO DUP10 PUSH2 0x701 JUMP JUMPDEST PUSH4 0x4E487B71 PUSH1 0xE0 SHL DUP9 MSTORE PUSH1 0x11 DUP6 MSTORE PUSH1 0x24 DUP9 REVERT JUMPDEST POP POP CALLVALUE PUSH2 0x1FE JUMPI DUP2 PUSH1 0x3 NOT CALLDATASIZE ADD SLT PUSH2 0x1FE JUMPI PUSH1 0x20 SWAP1 PUSH1 0xD SLOAD SWAP1 MLOAD SWAP1 DUP2 MSTORE RETURN JUMPDEST SWAP1 POP CALLVALUE PUSH2 0x277 JUMPI PUSH1 0x20 CALLDATASIZE PUSH1 0x3 NOT ADD SLT PUSH2 0x277 JUMPI PUSH1 0x20 SWAP3 DUP3 SWAP2 CALLDATALOAD DUP2 MSTORE PUSH1 0x8 DUP5 MSTORE KECCAK256 SLOAD SWAP1 MLOAD SWAP1 DUP2 MSTORE RETURN JUMPDEST SWAP1 POP CALLVALUE PUSH2 0x277 JUMPI PUSH1 0x20 CALLDATASIZE PUSH1 0x3 NOT ADD SLT PUSH2 0x277 JUMPI CALLDATALOAD SWAP2 PUSH1 0x6 SLOAD DUP4 LT ISZERO PUSH2 0x7EA JUMPI POP PUSH2 0x7D4 PUSH1 0x20 SWAP3 PUSH2 0x17B7 JUMP JUMPDEST SWAP1 SLOAD SWAP2 MLOAD SWAP2 PUSH1 0x1 DUP1 PUSH1 0xA0 SHL SUB SWAP2 PUSH1 0x3 SHL SHR AND DUP2 MSTORE RETURN JUMPDEST DUP1 REVERT JUMPDEST SWAP1 POP CALLVALUE PUSH2 0x277 JUMPI PUSH1 0x20 CALLDATASIZE PUSH1 0x3 NOT ADD SLT PUSH2 0x277 JUMPI DUP2 PUSH1 0x20 SWAP4 PUSH1 0xFF SWAP3 CALLDATALOAD DUP2 MSTORE PUSH1 0xA DUP6 MSTORE KECCAK256 SLOAD AND SWAP1 MLOAD SWAP1 ISZERO ISZERO DUP2 MSTORE RETURN JUMPDEST DUP4 CALLVALUE PUSH2 0x7EA JUMPI PUSH1 0x20 CALLDATASIZE PUSH1 0x3 NOT ADD SLT PUSH2 0x7EA JUMPI PUSH2 0x834 PUSH2 0x1750 JUMP JUMPDEST PUSH2 0x83C PUSH2 0x19F9 JUMP JUMPDEST PUSH1 0xF DUP1 SLOAD PUSH1 0x1 PUSH1 0x1 PUSH1 0xA0 SHL SUB NOT AND PUSH1 0x1 PUSH1 0x1 PUSH1 0xA0 SHL SUB SWAP3 SWAP1 SWAP3 AND SWAP2 DUP3 OR SWAP1 SSTORE PUSH32 0xB7351A1F90DDFE06D9F857527A29DF899449446032B91E5D0CC56895E7B856D8 DUP3 DUP1 LOG2 DUP1 RETURN JUMPDEST POP POP CALLVALUE PUSH2 0x1FE JUMPI DUP2 PUSH1 0x3 NOT CALLDATASIZE ADD SLT PUSH2 0x1FE JUMPI SWAP1 SLOAD SWAP1 MLOAD PUSH1 0x1 PUSH1 0x1 PUSH1 0xA0 SHL SUB SWAP1 SWAP2 AND DUP2 MSTORE PUSH1 0x20 SWAP1 RETURN JUMPDEST POP POP CALLVALUE PUSH2 0x1FE JUMPI DUP2 PUSH1 0x3 NOT CALLDATASIZE ADD SLT PUSH2 0x1FE JUMPI PUSH1 0x20 SWAP1 PUSH1 0xFF PUSH1 0xC SLOAD AND SWAP1 MLOAD SWAP1 ISZERO ISZERO DUP2 MSTORE RETURN JUMPDEST SWAP1 POP CALLVALUE PUSH2 0x277 JUMPI PUSH1 0x20 CALLDATASIZE PUSH1 0x3 NOT ADD SLT PUSH2 0x277 JUMPI CALLDATALOAD SWAP2 PUSH1 0x7 SLOAD DUP4 LT ISZERO PUSH2 0x7EA JUMPI POP PUSH2 0x8F9 PUSH1 0x20 SWAP3 PUSH2 0x179C JUMP JUMPDEST SWAP2 SWAP1 SLOAD SWAP1 MLOAD SWAP2 PUSH1 0x3 SHL SHR DUP2 MSTORE RETURN JUMPDEST SWAP1 POP CALLVALUE PUSH2 0x277 JUMPI PUSH1 0x20 CALLDATASIZE PUSH1 0x3 NOT ADD SLT PUSH2 0x277 JUMPI CALLDATALOAD PUSH1 0x9 SLOAD DUP2 LT ISZERO PUSH2 0x277 JUMPI PUSH1 0x20 DUP4 PUSH1 0x9 DUP3 SWAP6 MSTORE KECCAK256 ADD SLOAD SWAP1 MLOAD SWAP1 DUP2 MSTORE RETURN JUMPDEST POP POP CALLVALUE PUSH2 0x1FE JUMPI PUSH1 0x20 CALLDATASIZE PUSH1 0x3 NOT ADD SLT PUSH2 0x1FE JUMPI PUSH2 0x1FA SWAP2 PUSH2 0x1E7 SWAP1 DUP3 SWAP1 PUSH1 0x1 PUSH1 0x1 PUSH1 0xA0 SHL SUB PUSH2 0x1D9 PUSH2 0x1750 JUMP JUMPDEST POP POP CALLVALUE PUSH2 0x1FE JUMPI DUP2 PUSH1 0x3 NOT CALLDATASIZE ADD SLT PUSH2 0x1FE JUMPI PUSH1 0xE SLOAD SWAP1 MLOAD PUSH1 0x1 PUSH1 0x1 PUSH1 0xA0 SHL SUB SWAP1 SWAP2 AND DUP2 MSTORE PUSH1 0x20 SWAP1 RETURN JUMPDEST SWAP1 POP CALLVALUE PUSH2 0x277 JUMPI PUSH1 0x20 SWAP1 DUP2 PUSH1 0x3 NOT CALLDATASIZE ADD SLT PUSH2 0xBB7 JUMPI PUSH2 0x9AA PUSH2 0x1750 JUMP JUMPDEST SWAP3 PUSH2 0x9B3 PUSH2 0x19F9 JUMP JUMPDEST PUSH1 0x1 PUSH1 0x1 PUSH1 0xA0 SHL SUB SWAP4 DUP5 AND SWAP3 DUP4 ISZERO PUSH2 0xB65 JUMPI DUP4 DUP7 MSTORE PUSH1 0x2 DUP2 MSTORE PUSH1 0xFF DUP3 DUP8 KECCAK256 SLOAD AND ISZERO PUSH2 0xB1A JUMPI DUP6 SWAP1 DUP5 DUP3 MSTORE PUSH1 0x2 DUP2 MSTORE DUP3 DUP3 KECCAK256 PUSH1 0xFF NOT DUP2 SLOAD AND SWAP1 SSTORE PUSH1 0x3 SWAP3 DUP4 DUP3 MSTORE DUP3 KECCAK256 SWAP1 PUSH2 0x9FF DUP3 SLOAD PUSH2 0x1919 JUMP JUMPDEST SWAP1 DUP2 PUSH2 0xADB JUMPI JUMPDEST POP POP POP JUMPDEST DUP3 SLOAD DUP1 DUP3 LT ISZERO PUSH2 0xAD0 JUMPI DUP5 DUP7 PUSH2 0xA1F DUP5 PUSH2 0x176B JUMP JUMPDEST SWAP1 SLOAD SWAP1 DUP7 SHL SHR AND EQ PUSH2 0xA3A JUMPI POP PUSH2 0xA35 SWAP1 PUSH2 0x1A3C JUMP JUMPDEST PUSH2 0xA0A JUMP JUMPDEST SWAP3 SWAP4 SWAP5 SWAP1 SWAP2 PUSH1 0x0 NOT SWAP4 DUP5 DUP2 ADD SWAP1 DUP2 GT PUSH2 0xABD JUMPI SWAP2 PUSH2 0x32F SWAP2 PUSH2 0xA5F PUSH2 0xA6B SWAP6 SWAP5 PUSH2 0x176B JUMP JUMPDEST SWAP1 SLOAD SWAP2 SHL SHR AND SWAP2 PUSH2 0x176B JUMP JUMPDEST DUP2 SLOAD DUP1 ISZERO PUSH2 0xAAA JUMPI ADD SWAP1 PUSH2 0xA81 PUSH2 0x438 DUP4 PUSH2 0x176B JUMP JUMPDEST SSTORE JUMPDEST PUSH32 0x4C910B69FE65A61F7531B9C5042B2329CA7179C77290AA7E2EB3AFA3C8511FD3 DUP3 DUP1 LOG2 DUP1 RETURN JUMPDEST PUSH4 0x4E487B71 PUSH1 0xE0 SHL DUP6 MSTORE PUSH1 0x31 DUP4 MSTORE PUSH1 0x24 DUP6 REVERT JUMPDEST PUSH4 0x4E487B71 PUSH1 0xE0 SHL DUP9 MSTORE PUSH1 0x11 DUP7 MSTORE PUSH1 0x24 DUP9 REVERT JUMPDEST POP POP POP POP SWAP1 POP PUSH2 0xA83 JUMP JUMPDEST DUP4 SWAP1 PUSH1 0x1F DUP4 GT PUSH1 0x1 EQ PUSH2 0xAF6 JUMPI POP POP POP SSTORE JUMPDEST DUP5 CODESIZE DUP1 DUP1 PUSH2 0xA06 JUMP JUMPDEST DUP4 DUP3 MSTORE DUP2 KECCAK256 SWAP3 SWAP1 SWAP2 PUSH2 0xB13 SWAP1 PUSH1 0x1F ADD PUSH1 0x5 SHR DUP5 ADD PUSH1 0x1 DUP6 ADD PUSH2 0x1A25 JUMP JUMPDEST SSTORE SSTORE PUSH2 0xAED JUMP JUMPDEST SWAP1 MLOAD PUSH3 0x461BCD PUSH1 0xE5 SHL DUP2 MSTORE SWAP2 DUP3 ADD MSTORE PUSH1 0x21 PUSH1 0x24 DUP3 ADD MSTORE PUSH32 0x41646D696E4D616E616765723A20546F6B656E206E6F7420737570706F727465 PUSH1 0x44 DUP3 ADD MSTORE PUSH1 0x19 PUSH1 0xFA SHL PUSH1 0x64 DUP3 ADD MSTORE PUSH1 0x84 SWAP1 REVERT JUMPDEST SWAP1 MLOAD PUSH3 0x461BCD PUSH1 0xE5 SHL DUP2 MSTORE SWAP2 DUP3 ADD MSTORE PUSH1 0x28 PUSH1 0x24 DUP3 ADD MSTORE PUSH32 0x41646D696E4D616E616765723A2043616E6E6F742072656D6F7665206E617469 PUSH1 0x44 DUP3 ADD MSTORE PUSH8 0x3B32903A37B5B2B7 PUSH1 0xC1 SHL PUSH1 0x64 DUP3 ADD MSTORE PUSH1 0x84 SWAP1 REVERT JUMPDEST DUP4 DUP1 REVERT JUMPDEST POP POP CALLVALUE PUSH2 0x1FE JUMPI PUSH1 0x20 CALLDATASIZE PUSH1 0x3 NOT ADD SLT PUSH2 0x1FE JUMPI PUSH1 0x20 SWAP2 PUSH1 0xFF SWAP1 DUP3 SWAP1 PUSH1 0x1 PUSH1 0x1 PUSH1 0xA0 SHL SUB PUSH2 0xBE6 PUSH2 0x1750 JUMP JUMPDEST AND DUP2 MSTORE PUSH1 0x2 DUP6 MSTORE KECCAK256 SLOAD AND SWAP1 MLOAD SWAP1 ISZERO ISZERO DUP2 MSTORE RETURN JUMPDEST DUP4 CALLVALUE PUSH2 0x7EA JUMPI PUSH1 0x20 CALLDATASIZE PUSH1 0x3 NOT ADD SLT PUSH2 0x7EA JUMPI PUSH2 0xC13 PUSH2 0x1750 JUMP JUMPDEST PUSH2 0xC1B PUSH2 0x19F9 JUMP JUMPDEST PUSH1 0xE DUP1 SLOAD PUSH1 0x1 PUSH1 0x1 PUSH1 0xA0 SHL SUB NOT AND PUSH1 0x1 PUSH1 0x1 PUSH1 0xA0 SHL SUB SWAP3 SWAP1 SWAP3 AND SWAP2 DUP3 OR SWAP1 SSTORE PUSH32 0x50E996E83FB672147763934032CC359242F03E89A60C666F72CE4270D23ED4FD DUP3 DUP1 LOG2 DUP1 RETURN JUMPDEST DUP4 SWAP2 POP CALLVALUE PUSH2 0x1FE JUMPI DUP3 PUSH1 0x3 NOT CALLDATASIZE ADD SLT PUSH2 0x1FE JUMPI PUSH2 0xC7C PUSH2 0x1750 JUMP JUMPDEST PUSH1 0x24 SWAP1 PUSH1 0x1 PUSH1 0x1 PUSH1 0x40 SHL SUB SWAP1 DUP3 CALLDATALOAD DUP3 DUP2 GT PUSH2 0xF44 JUMPI PUSH2 0xC9E SWAP1 CALLDATASIZE SWAP1 DUP7 ADD PUSH2 0x1848 JUMP JUMPDEST SWAP3 PUSH2 0xCA7 PUSH2 0x19F9 JUMP JUMPDEST PUSH1 0x1 PUSH1 0x1 PUSH1 0xA0 SHL SUB DUP3 AND SWAP5 DUP6 ISZERO PUSH2 0xEF7 JUMPI DUP5 MLOAD ISZERO PUSH2 0xEAB JUMPI DUP6 DUP8 MSTORE PUSH1 0x20 SWAP4 PUSH1 0x2 DUP6 MSTORE PUSH1 0xFF DUP10 DUP10 KECCAK256 SLOAD AND PUSH2 0xE5C JUMPI DUP7 DUP9 MSTORE PUSH1 0x2 DUP6 MSTORE DUP9 DUP9 KECCAK256 SWAP1 PUSH1 0x1 SWAP2 DUP3 PUSH1 0xFF NOT DUP3 SLOAD AND OR SWAP1 SSTORE PUSH1 0x3 DUP7 MSTORE DUP10 DUP10 KECCAK256 SWAP1 DUP8 MLOAD SWAP1 DUP2 GT PUSH2 0xE4A JUMPI PUSH2 0xD07 DUP3 SLOAD PUSH2 0x1919 JUMP JUMPDEST PUSH1 0x1F DUP2 GT PUSH2 0xE11 JUMPI JUMPDEST POP DUP1 DUP8 PUSH1 0x1F DUP3 GT PUSH1 0x1 EQ PUSH2 0xDB3 JUMPI DUP12 SWAP2 PUSH2 0xDA8 JUMPI JUMPDEST POP PUSH1 0x0 NOT PUSH1 0x3 DUP4 SWAP1 SHL SHR NOT AND SWAP1 DUP4 SHL OR SWAP1 SSTORE JUMPDEST DUP2 SLOAD SWAP3 PUSH1 0x1 PUSH1 0x40 SHL DUP5 LT ISZERO PUSH2 0xD97 JUMPI POP SWAP3 PUSH2 0x32F DUP4 PUSH2 0xD82 SWAP4 PUSH2 0xD91 SWAP7 PUSH32 0x7AFEE0F1B802CC0F66C67890E26B4566251859CF2CD8DE79B86AED7251D9756A SWAP11 SWAP12 SWAP13 SWAP7 ADD SWAP1 SSTORE PUSH2 0x176B JUMP JUMPDEST MLOAD SWAP3 DUP3 DUP5 SWAP4 DUP5 MSTORE DUP4 ADD SWAP1 PUSH2 0x18D9 JUMP JUMPDEST SUB SWAP1 LOG2 DUP1 RETURN JUMPDEST PUSH4 0x4E487B71 PUSH1 0xE0 SHL DUP10 MSTORE PUSH1 0x41 DUP4 MSTORE DUP9 REVERT JUMPDEST SWAP1 POP DUP9 ADD MLOAD DUP13 PUSH2 0xD25 JUMP JUMPDEST DUP4 DUP13 MSTORE DUP9 DUP13 KECCAK256 DUP6 SWAP4 POP SWAP1 PUSH1 0x1F NOT DUP4 AND DUP14 JUMPDEST DUP12 DUP14 DUP4 DUP4 LT PUSH2 0xDFC JUMPI POP POP POP DUP4 GT PUSH2 0xDE3 JUMPI JUMPDEST POP POP DUP2 SHL ADD SWAP1 SSTORE PUSH2 0xD38 JUMP JUMPDEST DUP11 ADD MLOAD PUSH1 0x0 NOT PUSH1 0xF8 DUP5 PUSH1 0x3 SHL AND SHR NOT AND SWAP1 SSTORE DUP13 DUP1 PUSH2 0xDD7 JUMP JUMPDEST DUP5 ADD MLOAD DUP6 SSTORE DUP9 SWAP7 SWAP1 SWAP5 ADD SWAP4 SWAP3 DUP4 ADD SWAP3 ADD PUSH2 0xDC4 JUMP JUMPDEST PUSH2 0xE3A SWAP1 DUP4 DUP13 MSTORE DUP9 DUP13 KECCAK256 PUSH1 0x1F DUP5 ADD PUSH1 0x5 SHR DUP2 ADD SWAP2 DUP11 DUP6 LT PUSH2 0xE40 JUMPI JUMPDEST PUSH1 0x1F ADD PUSH1 0x5 SHR ADD SWAP1 PUSH2 0x1A25 JUMP JUMPDEST DUP12 PUSH2 0xD10 JUMP JUMPDEST SWAP1 SWAP2 POP DUP2 SWAP1 PUSH2 0xE2D JUMP JUMPDEST PUSH4 0x4E487B71 PUSH1 0xE0 SHL DUP11 MSTORE PUSH1 0x41 DUP5 MSTORE DUP5 DUP11 REVERT JUMPDEST POP PUSH1 0x25 PUSH1 0x84 SWAP3 DUP6 DUP11 MLOAD SWAP4 PUSH3 0x461BCD PUSH1 0xE5 SHL DUP6 MSTORE DUP5 ADD MSTORE DUP3 ADD MSTORE PUSH32 0x41646D696E4D616E616765723A20546F6B656E20616C72656164792073757070 PUSH1 0x44 DUP3 ADD MSTORE PUSH5 0x1BDC9D1959 PUSH1 0xDA SHL PUSH1 0x64 DUP3 ADD MSTORE REVERT JUMPDEST PUSH1 0x22 PUSH1 0x84 SWAP3 PUSH1 0x20 DUP11 MLOAD SWAP4 PUSH3 0x461BCD PUSH1 0xE5 SHL DUP6 MSTORE DUP5 ADD MSTORE DUP3 ADD MSTORE PUSH32 0x41646D696E4D616E616765723A20496E76616C696420746F6B656E2073796D62 PUSH1 0x44 DUP3 ADD MSTORE PUSH2 0x1BDB PUSH1 0xF2 SHL PUSH1 0x64 DUP3 ADD MSTORE REVERT JUMPDEST PUSH1 0x23 PUSH1 0x84 SWAP3 PUSH1 0x20 DUP11 MLOAD SWAP4 PUSH3 0x461BCD PUSH1 0xE5 SHL DUP6 MSTORE DUP5 ADD MSTORE DUP3 ADD MSTORE PUSH32 0x41646D696E4D616E616765723A20496E76616C696420746F6B656E2061646472 PUSH1 0x44 DUP3 ADD MSTORE PUSH3 0x657373 PUSH1 0xE8 SHL PUSH1 0x64 DUP3 ADD MSTORE REVERT JUMPDEST DUP6 DUP1 REVERT JUMPDEST DUP4 CALLVALUE PUSH2 0x7EA JUMPI DUP1 PUSH1 0x3 NOT CALLDATASIZE ADD SLT PUSH2 0x7EA JUMPI PUSH2 0xF61 PUSH2 0x19F9 JUMP JUMPDEST DUP1 SLOAD PUSH1 0x1 PUSH1 0x1 PUSH1 0xA0 SHL SUB NOT DUP2 AND DUP3 SSTORE DUP2 SWAP1 PUSH1 0x1 PUSH1 0x1 PUSH1 0xA0 SHL SUB AND PUSH1 0x0 DUP1 MLOAD PUSH1 0x20 PUSH2 0x1AFF DUP4 CODECOPY DUP2 MLOAD SWAP2 MSTORE DUP3 DUP1 LOG3 DUP1 RETURN JUMPDEST DUP3 DUP5 CALLVALUE PUSH2 0x7EA JUMPI DUP1 PUSH1 0x3 NOT CALLDATASIZE ADD SLT PUSH2 0x7EA JUMPI DUP2 MLOAD PUSH1 0x9 DUP1 SLOAD DUP1 DUP4 MSTORE SWAP1 DUP4 MSTORE PUSH1 0x20 DUP1 DUP4 ADD SWAP5 SWAP3 SWAP4 PUSH32 0x6E1540171B6C0C960B71A7020D9F60077F6AF931A8BBF590DA0223DACF75C7AF SWAP3 SWAP2 JUMPDEST DUP3 DUP3 LT PUSH2 0xFFC JUMPI PUSH2 0x1FA DUP7 DUP7 PUSH2 0xFF2 DUP3 DUP12 SUB DUP4 PUSH2 0x180F JUMP JUMPDEST MLOAD SWAP2 DUP3 SWAP2 DUP3 PUSH2 0x189E JUMP JUMPDEST DUP4 SLOAD DUP8 MSTORE SWAP6 DUP7 ADD SWAP6 PUSH1 0x1 SWAP4 DUP5 ADD SWAP4 SWAP1 SWAP2 ADD SWAP1 PUSH2 0xFDA JUMP JUMPDEST DUP3 DUP5 CALLVALUE PUSH2 0x7EA JUMPI DUP1 PUSH1 0x3 NOT CALLDATASIZE ADD SLT PUSH2 0x7EA JUMPI DUP2 MLOAD PUSH1 0x7 DUP1 SLOAD DUP1 DUP4 MSTORE SWAP1 DUP4 MSTORE PUSH1 0x20 DUP1 DUP4 ADD SWAP5 SWAP3 SWAP4 PUSH32 0xA66CC928B5EDB82AF9BD49922954155AB7B0942694BEA4CE44661D9A8736C688 SWAP3 SWAP2 JUMPDEST DUP3 DUP3 LT PUSH2 0x1075 JUMPI PUSH2 0x1FA DUP7 DUP7 PUSH2 0xFF2 DUP3 DUP12 SUB DUP4 PUSH2 0x180F JUMP JUMPDEST DUP4 SLOAD DUP8 MSTORE SWAP6 DUP7 ADD SWAP6 PUSH1 0x1 SWAP4 DUP5 ADD SWAP4 SWAP1 SWAP2 ADD SWAP1 PUSH2 0x105D JUMP JUMPDEST DUP4 DUP4 CALLVALUE PUSH2 0x1FE JUMPI DUP1 PUSH1 0x3 NOT CALLDATASIZE ADD SLT PUSH2 0x1FE JUMPI DUP3 CALLDATALOAD SWAP1 PUSH1 0x24 CALLDATALOAD PUSH1 0x1 PUSH1 0x1 PUSH1 0x40 SHL SUB DUP2 GT PUSH2 0xBB7 JUMPI PUSH2 0x10BF SWAP1 CALLDATASIZE SWAP1 DUP7 ADD PUSH2 0x1848 JUMP JUMPDEST SWAP1 PUSH2 0x10C8 PUSH2 0x19F9 JUMP JUMPDEST PUSH1 0x1 SLOAD PUSH1 0x1 PUSH1 0x1 PUSH1 0xA0 SHL SUB AND ISZERO PUSH2 0x11CD JUMPI DUP3 DUP5 MSTORE PUSH1 0x20 SWAP1 PUSH1 0xA DUP3 MSTORE PUSH1 0xFF DUP2 DUP7 KECCAK256 SLOAD AND PUSH2 0x118A JUMPI DUP4 DUP6 MSTORE PUSH1 0xA DUP3 MSTORE DUP1 DUP6 KECCAK256 DUP1 SLOAD PUSH1 0xFF NOT AND PUSH1 0x1 OR SWAP1 SSTORE PUSH1 0x8 DUP3 MSTORE DUP1 DUP6 KECCAK256 TIMESTAMP SWAP1 SSTORE PUSH1 0x7 SLOAD PUSH1 0x1 PUSH1 0x40 SHL DUP2 LT ISZERO PUSH2 0x1177 JUMPI PUSH32 0x23684A7F94F98A36F3D1D0BCF07B3CBC7C4FD1A4F06996FF8155975B6885B56E SWAP4 SWAP3 SWAP2 PUSH2 0x1153 DUP3 PUSH1 0x1 PUSH2 0xD91 SWAP5 ADD PUSH1 0x7 SSTORE PUSH2 0x179C JUMP JUMPDEST DUP2 SLOAD SWAP1 PUSH1 0x3 SHL SWAP1 DUP9 DUP3 SHL SWAP2 PUSH1 0x0 NOT SWAP1 SHL NOT AND OR SWAP1 SSTORE MLOAD SWAP3 DUP3 DUP5 SWAP4 DUP5 MSTORE DUP4 ADD SWAP1 PUSH2 0x18D9 JUMP JUMPDEST PUSH4 0x4E487B71 PUSH1 0xE0 SHL DUP7 MSTORE PUSH1 0x41 DUP8 MSTORE PUSH1 0x24 DUP7 REVERT JUMPDEST MLOAD PUSH3 0x461BCD PUSH1 0xE5 SHL DUP2 MSTORE DUP1 DUP7 ADD SWAP2 SWAP1 SWAP2 MSTORE PUSH1 0x1D PUSH1 0x24 DUP3 ADD MSTORE PUSH32 0x41646D696E4D616E616765723A20416C72656164792064656C65746564000000 PUSH1 0x44 DUP3 ADD MSTORE PUSH1 0x64 SWAP1 REVERT JUMPDEST MLOAD PUSH3 0x461BCD PUSH1 0xE5 SHL DUP2 MSTORE PUSH1 0x20 DUP2 DUP7 ADD MSTORE PUSH1 0x1F PUSH1 0x24 DUP3 ADD MSTORE PUSH32 0x41646D696E4D616E616765723A204576656E74506F6F6C206E6F742073657400 PUSH1 0x44 DUP3 ADD MSTORE PUSH1 0x64 SWAP1 REVERT JUMPDEST POP POP CALLVALUE PUSH2 0x1FE JUMPI DUP2 PUSH1 0x3 NOT CALLDATASIZE ADD SLT PUSH2 0x1FE JUMPI PUSH1 0xF SLOAD SWAP1 MLOAD PUSH1 0x1 PUSH1 0x1 PUSH1 0xA0 SHL SUB SWAP1 SWAP2 AND DUP2 MSTORE PUSH1 0x20 SWAP1 RETURN JUMPDEST SWAP2 SWAP1 POP CALLVALUE PUSH2 0x277 JUMPI PUSH1 0x20 CALLDATASIZE PUSH1 0x3 NOT ADD SLT PUSH2 0x277 JUMPI DUP2 CALLDATALOAD SWAP2 PUSH2 0x1257 PUSH2 0x19F9 JUMP JUMPDEST DUP3 ISZERO PUSH2 0x128F JUMPI POP DUP2 PUSH1 0x20 SWAP2 PUSH32 0x336366E6B0CE658E9A9B8EB1BDA9D88FE2FF3C01D3E2DD258E0E338DAF1B2A41 SWAP4 PUSH1 0xB SSTORE MLOAD SWAP1 DUP2 MSTORE LOG1 DUP1 RETURN JUMPDEST PUSH1 0x20 PUSH1 0x84 SWAP3 MLOAD SWAP2 PUSH3 0x461BCD PUSH1 0xE5 SHL DUP4 MSTORE DUP3 ADD MSTORE PUSH1 0x26 PUSH1 0x24 DUP3 ADD MSTORE PUSH32 0x41646D696E4D616E616765723A20496E76616C6964206D696E696D756D206475 PUSH1 0x44 DUP3 ADD MSTORE PUSH6 0x3930BA34B7B7 PUSH1 0xD1 SHL PUSH1 0x64 DUP3 ADD MSTORE REVERT JUMPDEST POP POP CALLVALUE PUSH2 0x1FE JUMPI DUP2 PUSH1 0x3 NOT CALLDATASIZE ADD SLT PUSH2 0x1FE JUMPI DUP1 MLOAD SWAP1 DUP2 DUP1 SWAP4 PUSH1 0x6 SLOAD SWAP1 DUP2 DUP6 MSTORE PUSH1 0x20 DUP1 SWAP6 ADD SWAP2 PUSH1 0x6 DUP3 MSTORE DUP6 DUP3 KECCAK256 SWAP2 JUMPDEST DUP7 DUP3 DUP3 LT PUSH2 0x1337 JUMPI DUP6 SWAP1 PUSH2 0x1FA DUP9 PUSH2 0x1328 DUP5 DUP10 SUB DUP6 PUSH2 0x180F JUMP JUMPDEST MLOAD SWAP3 DUP3 DUP5 SWAP4 DUP5 MSTORE DUP4 ADD SWAP1 PUSH2 0x17D2 JUMP JUMPDEST DUP4 SLOAD PUSH1 0x1 PUSH1 0x1 PUSH1 0xA0 SHL SUB AND DUP6 MSTORE DUP9 SWAP6 POP SWAP1 SWAP4 ADD SWAP3 PUSH1 0x1 SWAP3 DUP4 ADD SWAP3 ADD PUSH2 0x130E JUMP JUMPDEST DUP3 DUP5 CALLVALUE PUSH2 0x7EA JUMPI PUSH1 0x20 CALLDATASIZE PUSH1 0x3 NOT ADD SLT PUSH2 0x7EA JUMPI DUP3 CALLDATALOAD SWAP3 SLOAD DUP4 LT ISZERO PUSH2 0x7EA JUMPI POP PUSH2 0x7D4 PUSH1 0x20 SWAP3 PUSH2 0x176B JUMP JUMPDEST POP POP CALLVALUE PUSH2 0x1FE JUMPI PUSH1 0x20 CALLDATASIZE PUSH1 0x3 NOT ADD SLT PUSH2 0x1FE JUMPI PUSH1 0x20 SWAP2 PUSH1 0xFF SWAP1 DUP3 SWAP1 PUSH1 0x1 PUSH1 0x1 PUSH1 0xA0 SHL SUB PUSH2 0x13AC PUSH2 0x1750 JUMP JUMPDEST AND DUP2 MSTORE PUSH1 0x5 DUP6 MSTORE KECCAK256 SLOAD AND SWAP1 MLOAD SWAP1 ISZERO ISZERO DUP2 MSTORE RETURN JUMPDEST DUP4 DUP4 CALLVALUE PUSH2 0x1FE JUMPI DUP1 PUSH1 0x3 NOT CALLDATASIZE ADD SLT PUSH2 0x1FE JUMPI DUP3 CALLDATALOAD SWAP3 DUP4 ISZERO ISZERO SWAP1 DUP2 DUP6 SUB PUSH2 0xBB7 JUMPI PUSH1 0x24 CALLDATALOAD SWAP5 PUSH2 0x13EB PUSH2 0x19F9 JUMP JUMPDEST PUSH1 0xFF NOT PUSH1 0xC SLOAD AND PUSH1 0xFF DUP5 AND OR PUSH1 0xC SSTORE PUSH2 0x141F JUMPI JUMPDEST POP PUSH1 0x0 DUP1 MLOAD PUSH1 0x20 PUSH2 0x1ABF DUP4 CODECOPY DUP2 MLOAD SWAP2 MSTORE SWAP3 SWAP4 DUP3 MLOAD SWAP2 DUP3 MSTORE PUSH1 0x20 DUP3 ADD MSTORE LOG1 DUP1 RETURN JUMPDEST DUP5 ISZERO PUSH2 0x143F JUMPI POP PUSH1 0xD DUP5 SWAP1 SSTORE PUSH1 0x0 DUP1 MLOAD PUSH1 0x20 PUSH2 0x1ABF DUP4 CODECOPY DUP2 MLOAD SWAP2 MSTORE PUSH2 0x13FF JUMP JUMPDEST PUSH1 0x84 SWAP1 PUSH1 0x20 DUP5 MLOAD SWAP2 PUSH3 0x461BCD PUSH1 0xE5 SHL DUP4 MSTORE DUP3 ADD MSTORE PUSH1 0x2A PUSH1 0x24 DUP3 ADD MSTORE PUSH32 0x41646D696E4D616E616765723A20496E76616C6964207265737472696374696F PUSH1 0x44 DUP3 ADD MSTORE PUSH10 0x3710323AB930BA34B7B7 PUSH1 0xB1 SHL PUSH1 0x64 DUP3 ADD MSTORE REVERT JUMPDEST POP POP CALLVALUE PUSH2 0x1FE JUMPI DUP2 PUSH1 0x3 NOT CALLDATASIZE ADD SLT PUSH2 0x1FE JUMPI PUSH1 0x1 SLOAD SWAP1 MLOAD PUSH1 0x1 PUSH1 0x1 PUSH1 0xA0 SHL SUB SWAP1 SWAP2 AND DUP2 MSTORE PUSH1 0x20 SWAP1 RETURN JUMPDEST POP POP CALLVALUE PUSH2 0x1FE JUMPI DUP2 PUSH1 0x3 NOT CALLDATASIZE ADD SLT PUSH2 0x1FE JUMPI PUSH1 0x20 SWAP1 PUSH1 0xB SLOAD SWAP1 MLOAD SWAP1 DUP2 MSTORE RETURN JUMPDEST DUP4 DUP4 CALLVALUE PUSH2 0x1FE JUMPI PUSH1 0x20 DUP1 PUSH1 0x3 NOT CALLDATASIZE ADD SLT PUSH2 0x277 JUMPI DUP4 CALLDATALOAD SWAP2 PUSH2 0x14FC PUSH2 0x19F9 JUMP JUMPDEST DUP3 DUP5 MSTORE PUSH1 0xA DUP3 MSTORE PUSH1 0xFF DUP2 DUP6 KECCAK256 SLOAD AND ISZERO PUSH2 0x1606 JUMPI DUP3 DUP5 MSTORE PUSH1 0x8 DUP3 MSTORE DUP1 DUP5 KECCAK256 SLOAD PUSH3 0x278D00 DUP2 ADD DUP1 SWAP2 GT PUSH2 0x15F3 JUMPI TIMESTAMP LT PUSH2 0x15A4 JUMPI POP PUSH1 0x9 SLOAD SWAP1 PUSH1 0x1 PUSH1 0x40 SHL DUP3 LT ISZERO PUSH2 0x1591 JUMPI PUSH1 0x1 DUP3 ADD DUP1 PUSH1 0x9 SSTORE DUP3 LT ISZERO PUSH2 0x157E JUMPI PUSH1 0x9 DUP5 MSTORE DUP4 KECCAK256 ADD DUP2 SWAP1 SSTORE PUSH32 0xB8410E595F043215BC63AC3731DAF093F87E30C0C938B0171E93C45BE1A676FF DUP3 DUP1 LOG2 DUP1 RETURN JUMPDEST PUSH4 0x4E487B71 PUSH1 0xE0 SHL DUP5 MSTORE PUSH1 0x32 DUP6 MSTORE PUSH1 0x24 DUP5 REVERT JUMPDEST PUSH4 0x4E487B71 PUSH1 0xE0 SHL DUP5 MSTORE PUSH1 0x41 DUP6 MSTORE PUSH1 0x24 DUP5 REVERT JUMPDEST MLOAD PUSH3 0x461BCD PUSH1 0xE5 SHL DUP2 MSTORE DUP1 DUP6 ADD SWAP2 SWAP1 SWAP2 MSTORE PUSH1 0x24 DUP1 DUP3 ADD MSTORE PUSH32 0x41646D696E4D616E616765723A20436C61696D20706572696F64206E6F742065 PUSH1 0x44 DUP3 ADD MSTORE PUSH4 0x1B991959 PUSH1 0xE2 SHL PUSH1 0x64 DUP3 ADD MSTORE PUSH1 0x84 SWAP1 REVERT JUMPDEST PUSH4 0x4E487B71 PUSH1 0xE0 SHL DUP6 MSTORE PUSH1 0x11 DUP7 MSTORE PUSH1 0x24 DUP6 REVERT JUMPDEST DUP2 PUSH1 0x64 SWAP3 DUP7 SWAP3 MLOAD SWAP3 PUSH3 0x461BCD PUSH1 0xE5 SHL DUP5 MSTORE DUP4 ADD MSTORE PUSH1 0x24 DUP3 ADD MSTORE PUSH32 0x41646D696E4D616E616765723A204D61726B6574206E6F742064656C65746564 PUSH1 0x44 DUP3 ADD MSTORE REVERT JUMPDEST DUP4 SWAP2 POP CALLVALUE PUSH2 0x1FE JUMPI PUSH1 0x20 CALLDATASIZE PUSH1 0x3 NOT ADD SLT PUSH2 0x1FE JUMPI PUSH2 0x1663 PUSH2 0x1750 JUMP JUMPDEST PUSH2 0x166B PUSH2 0x19F9 JUMP JUMPDEST PUSH1 0x1 PUSH1 0x1 PUSH1 0xA0 SHL SUB SWAP1 DUP2 AND SWAP2 DUP3 ISZERO PUSH2 0x170D JUMPI PUSH1 0x1 SLOAD SWAP2 DUP3 AND PUSH2 0x16BE JUMPI POP PUSH1 0x1 PUSH1 0x1 PUSH1 0xA0 SHL SUB NOT AND DUP2 OR PUSH1 0x1 SSTORE PUSH32 0x1EA36F5011FE2EA7103E332112F0F0C8DFC2BAB1A4F45613D501BA054DA58363 DUP3 DUP1 LOG2 DUP1 RETURN JUMPDEST PUSH1 0x84 SWAP1 PUSH1 0x20 DUP7 MLOAD SWAP2 PUSH3 0x461BCD PUSH1 0xE5 SHL DUP4 MSTORE DUP3 ADD MSTORE PUSH1 0x23 PUSH1 0x24 DUP3 ADD MSTORE PUSH32 0x41646D696E4D616E616765723A204576656E74506F6F6C20616C726561647920 PUSH1 0x44 DUP3 ADD MSTORE PUSH3 0x1CD95D PUSH1 0xEA SHL PUSH1 0x64 DUP3 ADD MSTORE REVERT JUMPDEST PUSH1 0x64 SWAP1 PUSH1 0x20 DUP7 MLOAD SWAP2 PUSH3 0x461BCD PUSH1 0xE5 SHL DUP4 MSTORE DUP3 ADD MSTORE PUSH1 0x1D PUSH1 0x24 DUP3 ADD MSTORE PUSH32 0x41646D696E4D616E616765723A20496E76616C69642061646472657373000000 PUSH1 0x44 DUP3 ADD MSTORE REVERT JUMPDEST PUSH1 0x4 CALLDATALOAD SWAP1 PUSH1 0x1 PUSH1 0x1 PUSH1 0xA0 SHL SUB DUP3 AND DUP3 SUB PUSH2 0x1766 JUMPI JUMP JUMPDEST PUSH1 0x0 DUP1 REVERT JUMPDEST PUSH1 0x4 SLOAD DUP2 LT ISZERO PUSH2 0x1786 JUMPI PUSH1 0x4 PUSH1 0x0 MSTORE PUSH1 0x20 PUSH1 0x0 KECCAK256 ADD SWAP1 PUSH1 0x0 SWAP1 JUMP JUMPDEST PUSH4 0x4E487B71 PUSH1 0xE0 SHL PUSH1 0x0 MSTORE PUSH1 0x32 PUSH1 0x4 MSTORE PUSH1 0x24 PUSH1 0x0 REVERT JUMPDEST PUSH1 0x7 SLOAD DUP2 LT ISZERO PUSH2 0x1786 JUMPI PUSH1 0x7 PUSH1 0x0 MSTORE PUSH1 0x20 PUSH1 0x0 KECCAK256 ADD SWAP1 PUSH1 0x0 SWAP1 JUMP JUMPDEST PUSH1 0x6 SLOAD DUP2 LT ISZERO PUSH2 0x1786 JUMPI PUSH1 0x6 PUSH1 0x0 MSTORE PUSH1 0x20 PUSH1 0x0 KECCAK256 ADD SWAP1 PUSH1 0x0 SWAP1 JUMP JUMPDEST SWAP1 DUP2 MLOAD DUP1 DUP3 MSTORE PUSH1 0x20 DUP1 DUP1 SWAP4 ADD SWAP4 ADD SWAP2 PUSH1 0x0 JUMPDEST DUP3 DUP2 LT PUSH2 0x17F2 JUMPI POP POP POP POP SWAP1 JUMP JUMPDEST DUP4 MLOAD PUSH1 0x1 PUSH1 0x1 PUSH1 0xA0 SHL SUB AND DUP6 MSTORE SWAP4 DUP2 ADD SWAP4 SWAP3 DUP2 ADD SWAP3 PUSH1 0x1 ADD PUSH2 0x17E4 JUMP JUMPDEST PUSH1 0x1F SWAP1 SWAP2 ADD PUSH1 0x1F NOT AND DUP2 ADD SWAP1 PUSH1 0x1 PUSH1 0x1 PUSH1 0x40 SHL SUB DUP3 GT SWAP1 DUP3 LT OR PUSH2 0x1832 JUMPI PUSH1 0x40 MSTORE JUMP JUMPDEST PUSH4 0x4E487B71 PUSH1 0xE0 SHL PUSH1 0x0 MSTORE PUSH1 0x41 PUSH1 0x4 MSTORE PUSH1 0x24 PUSH1 0x0 REVERT JUMPDEST DUP2 PUSH1 0x1F DUP3 ADD SLT ISZERO PUSH2 0x1766 JUMPI DUP1 CALLDATALOAD SWAP1 PUSH1 0x1 PUSH1 0x1 PUSH1 0x40 SHL SUB DUP3 GT PUSH2 0x1832 JUMPI PUSH1 0x40 MLOAD SWAP3 PUSH2 0x187C PUSH1 0x1F DUP5 ADD PUSH1 0x1F NOT AND PUSH1 0x20 ADD DUP6 PUSH2 0x180F JUMP JUMPDEST DUP3 DUP5 MSTORE PUSH1 0x20 DUP4 DUP4 ADD ADD GT PUSH2 0x1766 JUMPI DUP2 PUSH1 0x0 SWAP3 PUSH1 0x20 DUP1 SWAP4 ADD DUP4 DUP7 ADD CALLDATACOPY DUP4 ADD ADD MSTORE SWAP1 JUMP JUMPDEST PUSH1 0x20 SWAP1 DUP2 PUSH1 0x40 DUP2 DUP4 ADD SWAP3 DUP3 DUP2 MSTORE DUP6 MLOAD DUP1 SWAP5 MSTORE ADD SWAP4 ADD SWAP2 PUSH1 0x0 JUMPDEST DUP3 DUP2 LT PUSH2 0x18C5 JUMPI POP POP POP POP SWAP1 JUMP JUMPDEST DUP4 MLOAD DUP6 MSTORE SWAP4 DUP2 ADD SWAP4 SWAP3 DUP2 ADD SWAP3 PUSH1 0x1 ADD PUSH2 0x18B7 JUMP JUMPDEST SWAP2 SWAP1 DUP3 MLOAD SWAP3 DUP4 DUP3 MSTORE PUSH1 0x0 JUMPDEST DUP5 DUP2 LT PUSH2 0x1905 JUMPI POP POP DUP3 PUSH1 0x0 PUSH1 0x20 DUP1 SWAP5 SWAP6 DUP5 ADD ADD MSTORE PUSH1 0x1F DUP1 NOT SWAP2 ADD AND ADD ADD SWAP1 JUMP JUMPDEST PUSH1 0x20 DUP2 DUP4 ADD DUP2 ADD MLOAD DUP5 DUP4 ADD DUP3 ADD MSTORE ADD PUSH2 0x18E4 JUMP JUMPDEST SWAP1 PUSH1 0x1 DUP3 DUP2 SHR SWAP3 AND DUP1 ISZERO PUSH2 0x1949 JUMPI JUMPDEST PUSH1 0x20 DUP4 LT EQ PUSH2 0x1933 JUMPI JUMP JUMPDEST PUSH4 0x4E487B71 PUSH1 0xE0 SHL PUSH1 0x0 MSTORE PUSH1 0x22 PUSH1 0x4 MSTORE PUSH1 0x24 PUSH1 0x0 REVERT JUMPDEST SWAP2 PUSH1 0x7F AND SWAP2 PUSH2 0x1928 JUMP JUMPDEST SWAP1 PUSH1 0x40 MLOAD SWAP2 DUP3 PUSH1 0x0 DUP3 SLOAD SWAP3 PUSH2 0x1967 DUP5 PUSH2 0x1919 JUMP JUMPDEST SWAP1 DUP2 DUP5 MSTORE PUSH1 0x1 SWAP5 DUP6 DUP2 AND SWAP1 DUP2 PUSH1 0x0 EQ PUSH2 0x19D6 JUMPI POP PUSH1 0x1 EQ PUSH2 0x1993 JUMPI JUMPDEST POP POP PUSH2 0x1991 SWAP3 POP SUB DUP4 PUSH2 0x180F JUMP JUMPDEST JUMP JUMPDEST SWAP1 SWAP4 SWAP2 POP PUSH1 0x0 MSTORE PUSH1 0x20 SWAP1 DUP2 PUSH1 0x0 KECCAK256 SWAP4 PUSH1 0x0 SWAP2 JUMPDEST DUP2 DUP4 LT PUSH2 0x19BE JUMPI POP POP PUSH2 0x1991 SWAP4 POP DUP3 ADD ADD CODESIZE DUP1 PUSH2 0x1983 JUMP JUMPDEST DUP6 SLOAD DUP9 DUP5 ADD DUP6 ADD MSTORE SWAP5 DUP6 ADD SWAP5 DUP8 SWAP5 POP SWAP2 DUP4 ADD SWAP2 PUSH2 0x19A6 JUMP JUMPDEST SWAP2 POP POP PUSH2 0x1991 SWAP5 POP PUSH1 0x20 SWAP3 POP PUSH1 0xFF NOT AND DUP3 DUP5 ADD MSTORE ISZERO ISZERO PUSH1 0x5 SHL DUP3 ADD ADD CODESIZE DUP1 PUSH2 0x1983 JUMP JUMPDEST PUSH1 0x0 SLOAD PUSH1 0x1 PUSH1 0x1 PUSH1 0xA0 SHL SUB AND CALLER SUB PUSH2 0x1A0D JUMPI JUMP JUMPDEST PUSH1 0x40 MLOAD PUSH4 0x118CDAA7 PUSH1 0xE0 SHL DUP2 MSTORE CALLER PUSH1 0x4 DUP3 ADD MSTORE PUSH1 0x24 SWAP1 REVERT JUMPDEST DUP2 DUP2 LT PUSH2 0x1A30 JUMPI POP POP JUMP JUMPDEST PUSH1 0x0 DUP2 SSTORE PUSH1 0x1 ADD PUSH2 0x1A25 JUMP JUMPDEST PUSH1 0x0 NOT DUP2 EQ PUSH2 0x1A4B JUMPI PUSH1 0x1 ADD SWAP1 JUMP JUMPDEST PUSH4 0x4E487B71 PUSH1 0xE0 SHL PUSH1 0x0 MSTORE PUSH1 0x11 PUSH1 0x4 MSTORE PUSH1 0x24 PUSH1 0x0 REVERT JUMPDEST PUSH1 0x1 PUSH1 0x1 PUSH1 0x40 SHL SUB DUP2 GT PUSH2 0x1832 JUMPI PUSH1 0x5 SHL PUSH1 0x20 ADD SWAP1 JUMP JUMPDEST DUP1 MLOAD DUP3 LT ISZERO PUSH2 0x1786 JUMPI PUSH1 0x20 SWAP2 PUSH1 0x5 SHL ADD ADD SWAP1 JUMP JUMPDEST SWAP1 PUSH2 0x1A96 DUP3 PUSH2 0x1A61 JUMP JUMPDEST PUSH2 0x1AA3 PUSH1 0x40 MLOAD SWAP2 DUP3 PUSH2 0x180F JUMP JUMPDEST DUP3 DUP2 MSTORE DUP1 SWAP3 PUSH2 0x1AB4 PUSH1 0x1F NOT SWAP2 PUSH2 0x1A61 JUMP JUMPDEST ADD SWAP1 PUSH1 0x20 CALLDATASIZE SWAP2 ADD CALLDATACOPY JUMP INVALID GASLIMIT 0xE3 SGT LOG0 PUSH27 0xF6646445B3EF2A00F8521D05EAB3279381DBF73EA90FD5F9003E0E PUSH15 0x5E68466043E631629F40501ADEFA55 0xDC ADDMOD MOD NOT CALLDATALOAD RETURNDATACOPY SWAP3 JUMP 0xCE 0xCB 0xB1 0xCC 0x49 SWAP8 0xC1 DUP6 DUP12 0xE0 SMOD SWAP13 MSTORE8 AND MSIZE EQ SGT PREVRANDAO 0xCD 0x1F 0xD0 LOG4 CALLCODE DUP5 NOT 0x49 PUSH32 0x9722A3DAAFE3B4186F6B6457E0A26469706673582212206EAF199D56B956DBEC PUSH26 0x833D63B5A507EE2F42124C73AF1D7DCE68F885A346C764736F6C PUSH4 0x43000814 STOP CALLER "},"methodIdentifiers":{"addSupportedToken(address,string)":"720138e8","analytics()":"80d5ac8a","bettingRestrictionEnabled()":"88d3cc48","bettingRestrictionMinutes()":"baa9c4ac","blacklistedAddresses(uint256)":"a7a8c359","blacklistedWallets(address)":"2b5ba3b9","deleteMarket(uint256,string)":"51049969","deletedMarkets(uint256)":"881df9e1","deletionTimestamp(uint256)":"ad8e42ff","eventPool()":"1cf64fa4","getBlacklistedAddresses()":"3bbab179","getDeletedMarkets()":"65ebce55","getMarketsReadyForRemoval()":"c8a843b7","getPermanentlyRemovedMarkets()":"6d822220","getSupportedTokens()":"d3c7c2c7","getTokenSymbol(address)":"81a73ad5","isMarketDeleted(uint256)":"9b36846a","isTokenSupported(address)":"75151b63","isWalletBlacklisted(address)":"1356af02","minMarketDurationMinutes()":"17916e01","owner()":"8da5cb5b","permanentlyRemoveMarket(uint256)":"07adc191","permanentlyRemovedMarkets(uint256)":"81b17d29","removeSupportedToken(address)":"76319190","renounceOwnership()":"715018a6","setAnalytics(address)":"74c350eb","setEventPool(address)":"00691800","setMinMarketDuration(uint256)":"45843695","setStakingRestriction(bool,uint256)":"28beef04","setVerification(address)":"971f8bb1","setWalletBlacklist(address,bool)":"db62c6de","supportedTokenList(uint256)":"2b60c822","supportedTokens(address)":"68c4ac26","tokenSymbols(address)":"fb0b2b36","transferOwnership(address)":"f2fde38b","verification()":"4ffe2a8b"}}}}}