{"contracts/P2PMarketManager.sol":{"EventPool":{"abi":[{"inputs":[{"internalType":"address","name":"initialOwner","type":"address"},{"internalType":"address payable","name":"_treasury","type":"address"},{"internalType":"address","name":"_adminManager","type":"address"}],"stateMutability":"nonpayable","type":"constructor"},{"inputs":[{"internalType":"address","name":"owner","type":"address"}],"name":"OwnableInvalidOwner","type":"error"},{"inputs":[{"internalType":"address","name":"account","type":"address"}],"name":"OwnableUnauthorizedAccount","type":"error"},{"inputs":[{"internalType":"address","name":"token","type":"address"}],"name":"SafeERC20FailedOperation","type":"error"},{"anonymous":false,"inputs":[{"indexed":true,"internalType":"uint256","name":"marketId","type":"uint256"},{"indexed":false,"internalType":"string","name":"reason","type":"string"}],"name":"MarketCancelled","type":"event"},{"anonymous":false,"inputs":[{"indexed":true,"internalType":"uint256","name":"marketId","type":"uint256"},{"indexed":true,"internalType":"address","name":"creator","type":"address"},{"indexed":false,"internalType":"string","name":"ipfsHash","type":"string"},{"indexed":false,"internalType":"bool","name":"isMultiOption","type":"bool"},{"indexed":false,"internalType":"uint256","name":"maxOptions","type":"uint256"},{"indexed":false,"internalType":"address","name":"paymentToken","type":"address"},{"indexed":false,"internalType":"uint256","name":"minStake","type":"uint256"},{"indexed":false,"internalType":"uint256","name":"startTime","type":"uint256"},{"indexed":false,"internalType":"uint256","name":"stakeEndTime","type":"uint256"},{"indexed":false,"internalType":"uint256","name":"endTime","type":"uint256"},{"indexed":false,"internalType":"uint256","name":"resolutionEndTime","type":"uint256"}],"name":"MarketCreated","type":"event"},{"anonymous":false,"inputs":[{"indexed":true,"internalType":"uint256","name":"marketId","type":"uint256"},{"indexed":false,"internalType":"uint256","name":"winningOption","type":"uint256"}],"name":"MarketResolved","type":"event"},{"anonymous":false,"inputs":[{"indexed":true,"internalType":"uint256","name":"marketId","type":"uint256"},{"indexed":true,"internalType":"bytes32","name":"assertionId","type":"bytes32"},{"indexed":true,"internalType":"address","name":"disputer","type":"address"}],"name":"OracleDisputed","type":"event"},{"anonymous":false,"inputs":[{"indexed":true,"internalType":"uint256","name":"marketId","type":"uint256"},{"indexed":true,"internalType":"bytes32","name":"assertionId","type":"bytes32"}],"name":"OracleSettled","type":"event"},{"anonymous":false,"inputs":[{"indexed":true,"internalType":"address","name":"previousOwner","type":"address"},{"indexed":true,"internalType":"address","name":"newOwner","type":"address"}],"name":"OwnershipTransferred","type":"event"},{"anonymous":false,"inputs":[{"indexed":true,"internalType":"uint256","name":"marketId","type":"uint256"},{"indexed":true,"internalType":"address","name":"user","type":"address"},{"indexed":false,"internalType":"uint256","name":"amount","type":"uint256"}],"name":"RefundClaimed","type":"event"},{"anonymous":false,"inputs":[{"indexed":true,"internalType":"uint256","name":"marketId","type":"uint256"},{"indexed":true,"internalType":"bytes32","name":"assertionId","type":"bytes32"}],"name":"ResolutionRequested","type":"event"},{"anonymous":false,"inputs":[{"indexed":true,"internalType":"uint256","name":"marketId","type":"uint256"},{"indexed":true,"internalType":"address","name":"user","type":"address"},{"indexed":false,"internalType":"uint256","name":"option","type":"uint256"},{"indexed":false,"internalType":"uint256","name":"amount","type":"uint256"}],"name":"StakePlaced","type":"event"},{"anonymous":false,"inputs":[{"indexed":true,"internalType":"uint256","name":"marketId","type":"uint256"},{"indexed":true,"internalType":"bytes32","name":"assertionId","type":"bytes32"},{"indexed":false,"internalType":"bool","name":"outcome","type":"bool"}],"name":"UMAResolutionSettled","type":"event"},{"anonymous":false,"inputs":[{"indexed":true,"internalType":"uint256","name":"marketId","type":"uint256"},{"indexed":true,"internalType":"address","name":"user","type":"address"},{"indexed":false,"internalType":"uint256","name":"amount","type":"uint256"}],"name":"WinningsClaimed","type":"event"},{"inputs":[],"name":"CREATOR_FEE_BPS","outputs":[{"internalType":"uint256","name":"","type":"uint256"}],"stateMutability":"view","type":"function"},{"inputs":[],"name":"PLATFORM_FEE_BPS","outputs":[{"internalType":"uint256","name":"","type":"uint256"}],"stateMutability":"view","type":"function"},{"inputs":[{"internalType":"uint256","name":"","type":"uint256"}],"name":"activeMarkets","outputs":[{"internalType":"uint256","name":"","type":"uint256"}],"stateMutability":"view","type":"function"},{"inputs":[],"name":"adminManager","outputs":[{"internalType":"address","name":"","type":"address"}],"stateMutability":"view","type":"function"},{"inputs":[{"internalType":"uint256","name":"marketId","type":"uint256"},{"internalType":"address","name":"user","type":"address"}],"name":"calculateWinnings","outputs":[{"internalType":"uint256","name":"","type":"uint256"}],"stateMutability":"view","type":"function"},{"inputs":[{"internalType":"uint256","name":"marketId","type":"uint256"}],"name":"cancelMarket","outputs":[],"stateMutability":"nonpayable","type":"function"},{"inputs":[{"internalType":"uint256","name":"marketId","type":"uint256"}],"name":"claimRefund","outputs":[],"stateMutability":"nonpayable","type":"function"},{"inputs":[{"internalType":"uint256","name":"marketId","type":"uint256"}],"name":"claimWinnings","outputs":[],"stateMutability":"nonpayable","type":"function"},{"inputs":[{"internalType":"string","name":"ipfsHash","type":"string"},{"internalType":"bool","name":"isMultiOption","type":"bool"},{"internalType":"uint256","name":"maxOptions","type":"uint256"},{"internalType":"address","name":"paymentToken","type":"address"},{"internalType":"uint256","name":"minStake","type":"uint256"},{"internalType":"uint256","name":"creatorDeposit","type":"uint256"},{"internalType":"uint256","name":"creatorOutcome","type":"uint256"},{"internalType":"uint256","name":"stakeDurationMinutes","type":"uint256"},{"internalType":"uint256","name":"resolutionDurationMinutes","type":"uint256"},{"internalType":"enum EventPool.MarketType","name":"marketType","type":"uint8"},{"internalType":"address","name":"priceFeed","type":"address"},{"internalType":"uint256","name":"priceThreshold","type":"uint256"}],"name":"createMarket","outputs":[{"internalType":"uint256","name":"","type":"uint256"}],"stateMutability":"payable","type":"function"},{"inputs":[{"internalType":"uint256","name":"marketId","type":"uint256"}],"name":"creatorCancelMarket","outputs":[],"stateMutability":"nonpayable","type":"function"},{"inputs":[],"name":"defaultBondCurrency","outputs":[{"internalType":"address","name":"","type":"address"}],"stateMutability":"view","type":"function"},{"inputs":[{"internalType":"uint256","name":"marketId","type":"uint256"}],"name":"disputeOracle","outputs":[],"stateMutability":"nonpayable","type":"function"},{"inputs":[{"internalType":"uint256","name":"marketId","type":"uint256"}],"name":"endMarket","outputs":[],"stateMutability":"nonpayable","type":"function"},{"inputs":[{"internalType":"uint256","name":"marketId","type":"uint256"}],"name":"getMarket","outputs":[{"components":[{"internalType":"address","name":"creator","type":"address"},{"internalType":"string","name":"ipfsHash","type":"string"},{"internalType":"bool","name":"isMultiOption","type":"bool"},{"internalType":"uint256","name":"maxOptions","type":"uint256"},{"internalType":"address","name":"paymentToken","type":"address"},{"internalType":"uint256","name":"minStake","type":"uint256"},{"internalType":"uint256","name":"creatorDeposit","type":"uint256"},{"internalType":"uint256","name":"creatorOutcome","type":"uint256"},{"internalType":"uint256","name":"startTime","type":"uint256"},{"internalType":"uint256","name":"stakeEndTime","type":"uint256"},{"internalType":"uint256","name":"endTime","type":"uint256"},{"internalType":"uint256","name":"resolutionEndTime","type":"uint256"},{"internalType":"enum EventPool.MarketState","name":"state","type":"uint8"},{"internalType":"uint256","name":"winningOption","type":"uint256"},{"internalType":"bool","name":"isResolved","type":"bool"},{"internalType":"enum EventPool.MarketType","name":"marketType","type":"uint8"},{"internalType":"address","name":"priceFeed","type":"address"},{"internalType":"uint256","name":"priceThreshold","type":"uint256"},{"internalType":"bytes32","name":"p2pAssertionId","type":"bytes32"},{"internalType":"bool","name":"p2pAssertionMade","type":"bool"}],"internalType":"struct EventPool.Market","name":"","type":"tuple"}],"stateMutability":"view","type":"function"},{"inputs":[{"internalType":"uint256","name":"marketId","type":"uint256"}],"name":"getMarketInfo","outputs":[{"components":[{"internalType":"address","name":"creator","type":"address"},{"internalType":"string","name":"ipfsHash","type":"string"},{"internalType":"bool","name":"isMultiOption","type":"bool"},{"internalType":"uint256","name":"maxOptions","type":"uint256"},{"internalType":"address","name":"paymentToken","type":"address"},{"internalType":"uint256","name":"minStake","type":"uint256"},{"internalType":"uint256","name":"creatorDeposit","type":"uint256"},{"internalType":"uint256","name":"creatorOutcome","type":"uint256"},{"internalType":"uint256","name":"startTime","type":"uint256"},{"internalType":"uint256","name":"stakeEndTime","type":"uint256"},{"internalType":"uint256","name":"endTime","type":"uint256"},{"internalType":"uint256","name":"resolutionEndTime","type":"uint256"},{"internalType":"enum EventPool.MarketState","name":"state","type":"uint8"},{"internalType":"uint256","name":"winningOption","type":"uint256"},{"internalType":"bool","name":"isResolved","type":"bool"},{"internalType":"enum EventPool.MarketType","name":"marketType","type":"uint8"},{"internalType":"address","name":"priceFeed","type":"address"},{"internalType":"uint256","name":"priceThreshold","type":"uint256"},{"internalType":"bytes32","name":"p2pAssertionId","type":"bytes32"},{"internalType":"bool","name":"p2pAssertionMade","type":"bool"}],"internalType":"struct EventPool.Market","name":"market","type":"tuple"},{"internalType":"uint256","name":"totalPool","type":"uint256"},{"internalType":"uint256","name":"supportPool","type":"uint256"},{"internalType":"uint256","name":"stakerCount","type":"uint256"},{"internalType":"uint256","name":"supporterCount","type":"uint256"},{"internalType":"address[]","name":"stakers","type":"address[]"},{"internalType":"address[]","name":"supporters","type":"address[]"},{"internalType":"string","name":"tokenSymbol","type":"string"}],"stateMutability":"view","type":"function"},{"inputs":[{"internalType":"uint256","name":"marketId","type":"uint256"}],"name":"getMarketStakers","outputs":[{"internalType":"address[]","name":"","type":"address[]"}],"stateMutability":"view","type":"function"},{"inputs":[],"name":"getNextMarketId","outputs":[{"internalType":"uint256","name":"","type":"uint256"}],"stateMutability":"view","type":"function"},{"inputs":[{"internalType":"uint256","name":"marketId","type":"uint256"},{"internalType":"uint256","name":"option","type":"uint256"},{"internalType":"address","name":"token","type":"address"}],"name":"getOptionPool","outputs":[{"internalType":"uint256","name":"","type":"uint256"}],"stateMutability":"view","type":"function"},{"inputs":[{"internalType":"uint256","name":"marketId","type":"uint256"}],"name":"getStakerCount","outputs":[{"internalType":"uint256","name":"","type":"uint256"}],"stateMutability":"view","type":"function"},{"inputs":[{"internalType":"uint256","name":"marketId","type":"uint256"},{"internalType":"address","name":"token","type":"address"}],"name":"getSupportPool","outputs":[{"internalType":"uint256","name":"","type":"uint256"}],"stateMutability":"view","type":"function"},{"inputs":[{"internalType":"uint256","name":"marketId","type":"uint256"}],"name":"getSupporterCount","outputs":[{"internalType":"uint256","name":"","type":"uint256"}],"stateMutability":"view","type":"function"},{"inputs":[{"internalType":"uint256","name":"marketId","type":"uint256"},{"internalType":"address","name":"token","type":"address"}],"name":"getTotalPool","outputs":[{"internalType":"uint256","name":"","type":"uint256"}],"stateMutability":"view","type":"function"},{"inputs":[{"internalType":"uint256","name":"marketId","type":"uint256"},{"internalType":"address","name":"user","type":"address"},{"internalType":"address","name":"token","type":"address"}],"name":"getUserStake","outputs":[{"internalType":"uint256","name":"","type":"uint256"}],"stateMutability":"view","type":"function"},{"inputs":[{"internalType":"uint256","name":"marketId","type":"uint256"},{"internalType":"address","name":"user","type":"address"},{"internalType":"address","name":"token","type":"address"}],"name":"getUserSupport","outputs":[{"internalType":"uint256","name":"","type":"uint256"}],"stateMutability":"view","type":"function"},{"inputs":[{"internalType":"uint256","name":"","type":"uint256"}],"name":"isActiveMarket","outputs":[{"internalType":"bool","name":"","type":"bool"}],"stateMutability":"view","type":"function"},{"inputs":[{"internalType":"uint256","name":"marketId","type":"uint256"}],"name":"markMarketDeleted","outputs":[],"stateMutability":"nonpayable","type":"function"},{"inputs":[{"internalType":"uint256","name":"marketId","type":"uint256"}],"name":"markMarketPermanentlyRemoved","outputs":[],"stateMutability":"nonpayable","type":"function"},{"inputs":[],"name":"marketCreationFee","outputs":[{"internalType":"uint256","name":"","type":"uint256"}],"stateMutability":"view","type":"function"},{"inputs":[{"internalType":"uint256","name":"","type":"uint256"},{"internalType":"uint256","name":"","type":"uint256"}],"name":"marketStakers","outputs":[{"internalType":"address","name":"","type":"address"}],"stateMutability":"view","type":"function"},{"inputs":[{"internalType":"uint256","name":"","type":"uint256"},{"internalType":"uint256","name":"","type":"uint256"}],"name":"marketSupporters","outputs":[{"internalType":"address","name":"","type":"address"}],"stateMutability":"view","type":"function"},{"inputs":[{"internalType":"uint256","name":"","type":"uint256"}],"name":"markets","outputs":[{"internalType":"address","name":"creator","type":"address"},{"internalType":"string","name":"ipfsHash","type":"string"},{"internalType":"bool","name":"isMultiOption","type":"bool"},{"internalType":"uint256","name":"maxOptions","type":"uint256"},{"internalType":"address","name":"paymentToken","type":"address"},{"internalType":"uint256","name":"minStake","type":"uint256"},{"internalType":"uint256","name":"creatorDeposit","type":"uint256"},{"internalType":"uint256","name":"creatorOutcome","type":"uint256"},{"internalType":"uint256","name":"startTime","type":"uint256"},{"internalType":"uint256","name":"stakeEndTime","type":"uint256"},{"internalType":"uint256","name":"endTime","type":"uint256"},{"internalType":"uint256","name":"resolutionEndTime","type":"uint256"},{"internalType":"enum EventPool.MarketState","name":"state","type":"uint8"},{"internalType":"uint256","name":"winningOption","type":"uint256"},{"internalType":"bool","name":"isResolved","type":"bool"},{"internalType":"enum EventPool.MarketType","name":"marketType","type":"uint8"},{"internalType":"address","name":"priceFeed","type":"address"},{"internalType":"uint256","name":"priceThreshold","type":"uint256"},{"internalType":"bytes32","name":"p2pAssertionId","type":"bytes32"},{"internalType":"bool","name":"p2pAssertionMade","type":"bool"}],"stateMutability":"view","type":"function"},{"inputs":[],"name":"nextMarketId","outputs":[{"internalType":"uint256","name":"","type":"uint256"}],"stateMutability":"view","type":"function"},{"inputs":[],"name":"optimisticOracle","outputs":[{"internalType":"address","name":"","type":"address"}],"stateMutability":"view","type":"function"},{"inputs":[],"name":"owner","outputs":[{"internalType":"address","name":"","type":"address"}],"stateMutability":"view","type":"function"},{"inputs":[{"internalType":"uint256","name":"marketId","type":"uint256"},{"internalType":"uint256","name":"option","type":"uint256"}],"name":"placeStake","outputs":[],"stateMutability":"payable","type":"function"},{"inputs":[{"internalType":"uint256","name":"marketId","type":"uint256"},{"internalType":"uint256","name":"option","type":"uint256"},{"internalType":"uint256","name":"amount","type":"uint256"}],"name":"placeStakeWithToken","outputs":[],"stateMutability":"nonpayable","type":"function"},{"inputs":[],"name":"renounceOwnership","outputs":[],"stateMutability":"nonpayable","type":"function"},{"inputs":[{"internalType":"uint256","name":"marketId","type":"uint256"},{"internalType":"bytes","name":"claim","type":"bytes"}],"name":"requestP2PResolution","outputs":[],"stateMutability":"nonpayable","type":"function"},{"inputs":[{"internalType":"uint256","name":"marketId","type":"uint256"},{"internalType":"uint256","name":"winningOption","type":"uint256"}],"name":"resolveP2PMarket","outputs":[],"stateMutability":"nonpayable","type":"function"},{"inputs":[{"internalType":"uint256","name":"marketId","type":"uint256"}],"name":"resolvePriceFeedMarket","outputs":[],"stateMutability":"nonpayable","type":"function"},{"inputs":[{"internalType":"address","name":"_adminManager","type":"address"}],"name":"setAdminManager","outputs":[],"stateMutability":"nonpayable","type":"function"},{"inputs":[{"internalType":"address","name":"_currency","type":"address"}],"name":"setDefaultBondCurrency","outputs":[],"stateMutability":"nonpayable","type":"function"},{"inputs":[{"internalType":"address","name":"_oo","type":"address"}],"name":"setOptimisticOracle","outputs":[],"stateMutability":"nonpayable","type":"function"},{"inputs":[{"internalType":"uint256","name":"marketId","type":"uint256"}],"name":"settleOracle","outputs":[],"stateMutability":"nonpayable","type":"function"},{"inputs":[{"internalType":"uint256","name":"marketId","type":"uint256"},{"internalType":"uint256","name":"amount","type":"uint256"}],"name":"supportMarket","outputs":[],"stateMutability":"payable","type":"function"},{"inputs":[{"internalType":"address","name":"newOwner","type":"address"}],"name":"transferOwnership","outputs":[],"stateMutability":"nonpayable","type":"function"},{"inputs":[],"name":"treasury","outputs":[{"internalType":"address payable","name":"","type":"address"}],"stateMutability":"view","type":"function"},{"inputs":[{"internalType":"uint256","name":"","type":"uint256"},{"internalType":"address","name":"","type":"address"}],"name":"userHasStaked","outputs":[{"internalType":"bool","name":"","type":"bool"}],"stateMutability":"view","type":"function"},{"inputs":[{"internalType":"uint256","name":"","type":"uint256"},{"internalType":"address","name":"","type":"address"}],"name":"userHasSupported","outputs":[{"internalType":"bool","name":"","type":"bool"}],"stateMutability":"view","type":"function"},{"inputs":[{"internalType":"address","name":"","type":"address"},{"internalType":"uint256","name":"","type":"uint256"}],"name":"userMarketHistory","outputs":[{"internalType":"uint256","name":"","type":"uint256"}],"stateMutability":"view","type":"function"},{"inputs":[{"internalType":"uint256","name":"","type":"uint256"},{"internalType":"address","name":"","type":"address"}],"name":"userStakeOptions","outputs":[{"internalType":"uint256","name":"","type":"uint256"}],"stateMutability":"view","type":"function"},{"inputs":[{"internalType":"uint256","name":"marketId","type":"uint256"}],"name":"withdrawSupport","outputs":[],"stateMutability":"nonpayable","type":"function"},{"stateMutability":"payable","type":"receive"}],"evm":{"bytecode":{"linkReferences":{},"object":"608034620000ff57601f62005f2238819003918201601f19168301916001600160401b038311848410176200010457808492606094604052833981010312620000ff576200004d816200011a565b60208201516001600160a01b03808216939091849003620000ff576200007760408392016200011a565b9216918215620000e6576000549360018060a01b03199380858716176000558360405196167f8be0079c531659141344cd1fd0a4f28419497f9722a3daafe3b4186f6b6457e0600080a3600160095583600754161760075516906008541617600855615df29081620001308239f35b604051631e4fbdf760e01b815260006004820152602490fd5b600080fd5b634e487b7160e01b600052604160045260246000fd5b51906001600160a01b0382168203620000ff5756fe61012080604052600436101561001e575b50361561001c57600080fd5b005b600090813560e01c9081630ccf446714614a30575080630d64cdbd14614a01578063157bdcce14614933578063209c1c941461490a57806322302922146148e1578063256ba7411461484c578063287f57b5146148035780632ef1bdfa146147e0578063304bf1f1146147975780633adfe6d01461476c5780633e32a76c146145255780633ec79193146140c3578063406ef2ef146140a5578063422cc3ae14613e3c5780634f44289d14613df35780634fc4d31c14613b20578063539aa77f14613b03578063569946c514613a235780635b7baf64146136bc5780635cb305a61461358957806361d027b31461356057806366cf7ed4146127f0578063677bd9ff146123a65780636f59359e14612324578063715018a6146122dc5780637c16cd9e14612201578063847cf782146121bd5780638da5cb5b1461219657806398a17671146121405780639a3a40d614611eba578063a210b6a414611e91578063a30a091414611e67578063a550725d14611dde578063b1283e7714611c3b578063bc16075814611bbf578063bf5c325214611b26578063c22c62c314611af4578063c3436e0c146119c3578063cc3cbd2a146119a6578063d5f827071461195b578063d8c5dd6714611914578063dc4ce349146118c1578063e0bd4acc146116ea578063eb44fdd31461159a578063f00fe321146114f7578063f15cc406146110b0578063f1b7dde314610cde578063f204072f146108d3578063f2fde38b1461085d578063f4867591146103c5578063fb87f2c3146102835763fe53a6e80361001057346102805780600319360112610280576020600954604051908152f35b80fd5b5034610280576020806003193601126103c157600435906102d460018060a01b036102b381600854163314615c19565b6102c06009548510615c5d565b838552600183526040852054161515615c96565b8183526001815260ff600c6040852001541660058110156103ad57600414610373576060600080516020615d668339815191529183855260018152600c6040862001600460ff19825416179055838552600b815260ff604086205416610365575b6017604051918083528201527626b0b935b2ba103232b632ba32b210313c9030b236b4b760491b6040820152a280f35b61036e84615b5e565b610335565b6064906040519062461bcd60e51b82526004820152601360248201527211540e88105b1c9958591e4819195b195d1959606a1b6044820152fd5b634e487b7160e01b84526021600452602484fd5b5080fd5b506103cf36614d7a565b600854604051634d9b423560e11b8152600481018490529192916020916001600160a01b0391908216908381602481855afa80156107e957610419918891610840575b50156151ab565b83865260018352604086209060ff600c83015416600581101561082c5761044090156151ec565b60405163111a798960e31b81528481600481855afa801561082157859189916107f4575b5061074a575b50508415158061073c575b61047e9061527d565b6004810190828254166106dc57600561049b9101543410156152ba565b858080803486600754165af16104af614fea565b501561068b57908591848352600284526040832033600052845260ff604060002054161561065e575b84835260028452604083203360005284526040600020600160ff1982541617905584835260048452604083203360005284528560406000205581806007541691541690803b15610603576040516395f4109560e01b8152918491839182908490829061054d908d903490338f60048701615065565b03925af190811561063f57839161064a575b505060048382600854166040519283809263406ad64560e11b82525afa90811561063f578391610612575b5016806105b6575b50506040519283523490830152600080516020615dc683398151915260403393a380f35b803b156103c15781604051809263c228038d60e01b82528183816105e0348c338d600486016150cd565b03925af180156106075715610592576105f890614cbb565b610603578338610592565b8380fd5b6040513d84823e3d90fd5b6106329150843d8611610638575b61062a8183614d05565b810190615095565b3861058a565b503d610620565b6040513d85823e3d90fd5b61065390614cbb565b6103c157813861055f565b8483526005845261067233604085206152f6565b338352600c84526106868560408520614fc4565b6104d8565b60405162461bcd60e51b815260048101849052602360248201527f45503a20455448207472616e7366657220746f205472656173757279206661696044820152621b195960ea1b6064820152608490fd5b60405162461bcd60e51b815260048101859052603260248201527f45503a2054686973206d61726b6574207573657320746f6b656e732c2075736560448201527110383630b1b2a132ba2bb4ba342a37b5b2b760711b6064820152608490fd5b506003810154851115610475565b604051632eaa712b60e21b815291829060049082905afa9081156107e95787916107b7575b506009820154603c820291808304603c14901517156107a35761079c9161079591615229565b4210615236565b388361046a565b634e487b7160e01b88526011600452602488fd5b90508381813d83116107e2575b6107ce8183614d05565b810103126107dd57513861076f565b600080fd5b503d6107c4565b6040513d89823e3d90fd5b6108149150823d841161081a575b61080c8183614d05565b810190614e9c565b38610464565b503d610802565b6040513d8a823e3d90fd5b634e487b7160e01b88526021600452602488fd5b6108579150853d871161081a5761080c8183614d05565b38610412565b503461028057602036600319011261028057610877614a6d565b61087f614e70565b6001600160a01b039081169081156108ba576000548260018060a01b031982161760005516600080516020615d86833981519152600080a380f35b604051631e4fbdf760e01b815260048101849052602490fd5b506108dd36614d7a565b600854604051632b5ba3b960e01b815233600482015260209493916024916001600160a01b039182169087818581855afa9081156107e9579161092b899286948a91610cc1575b5015614eb4565b60405192838092634d9b423560e11b82528860048301525afa908115610cb6579061095d918791610c9f5750156151ab565b828552600186526040852060ff600c820154166005811015610c8c5761098390156151ec565b6009810154421015610c4d5760049061099d861515615331565b0195818754168015600014610bd75750843403610b99576109bf341515615331565b858080803486600754165af16109d3614fea565b5015610b4a5785965b848752600382526040872033600052825260ff6040600020541615610b31575b84875260038252604087203360005282526040600020600160ff1982541617905582806007541691541690803b15610b2d57868891610a55938360405180968195829463c15d980760e01b84528d33906004860161538f565b03925af19081156107e9578791610b15575b505060048183600854166040519283809263406ad64560e11b82525afa9182156107e9578792610af8575b50501680610a9e578480f35b803b15610af4578492836064926040519687958694638f46a5a160e01b86526004860152339085015260448401525af1801561060757610ae0575b8080808480f35b610ae990614cbb565b610280578038610ad9565b8480fd5b610b0e9250803d106106385761062a8183614d05565b3880610a92565b610b1e90614cbb565b610b29578538610a67565b8580fd5b8780fd5b84875260068252610b4533604089206152f6565b6109fc565b6084906023846040519262461bcd60e51b845260048401528201527f45503a20455448207472616e7366657220746f207472656173757279206661696044820152621b195960ea1b6064820152fd5b6064906018846040519262461bcd60e51b845260048401528201527711540e88125b98dbdc9c9958dd0811551208185b5bdd5b9d60421b6044820152fd5b9634610bf557610bf08688998560075416903390615113565b6109dc565b60405162461bcd60e51b815260048101839052602b818601527f45503a204e6f204554482073686f756c642062652073656e7420666f7220746f60448201526a1ad95b881cdd5c1c1bdc9d60aa1b6064820152608490fd5b60405162461bcd60e51b8152600481018890526018818501527711540e8814dd5c1c1bdc9d081c195c9a5bd908195b99195960421b6044820152606490fd5b634e487b7160e01b875260216004528387fd5b6108579150883d8a1161081a5761080c8183614d05565b6040513d88823e3d90fd5b610cd89150843d861161081a5761080c8183614d05565b38610924565b5034610280576060366003190112610280576004356024359060443560018060a01b0380600854169060405191634d9b423560e11b83528460048401526020928381602481855afa801561082157610d3d9189916108405750156151ab565b84875260018352604087209060ff600c83015416600581101561109c57610d6490156151ec565b60405163111a798960e31b81528481600481855afa80156110915785918a91611074575b50610fe1575b505085151580610fd3575b610da29061527d565b600481019082825416908115610f7e578589949392610dca6005610dd79401548310156152ba565b8460075416903390615113565b858352600284526040832033600052845260ff6040600020541615610f51575b85835260028452604083203360005284526040600020600160ff1982541617905585835260048452604083203360005284528660406000205581806007541691541690803b15610603578584918993838a610e6a604051978896879586946395f4109560e01b8652339060048701615065565b03925af190811561063f578391610f3d575b505060048382600854166040519283809263406ad64560e11b82525afa90811561063f578391610f20575b501680610ed1575b5050604051938452830152600080516020615dc683398151915260403393a380f35b803b156103c15760405163c228038d60e01b81529082908290818381610efd8a8d338e600486016150cd565b03925af180156106075715610eaf57610f1590614cbb565b610af4578438610eaf565b610f379150843d86116106385761062a8183614d05565b38610ea7565b610f4690614cbb565b6103c1578138610e7c565b85835260058452610f6533604085206152f6565b338352600c8452610f798660408520614fc4565b610df7565b60405162461bcd60e51b815260048101869052602760248201527f45503a2054686973206d61726b6574207573657320504550552c2075736520706044820152661b1858d950995d60ca1b6064820152608490fd5b506003810154861115610d99565b604051632eaa712b60e21b815291829060049082905afa908115610821578891611047575b506009820154603c820291808304603c14901517156110335761102c9161079591615229565b3883610d8e565b634e487b7160e01b89526011600452602489fd5b90508381813d831161106d575b61105e8183614d05565b810103126107dd575138611006565b503d611054565b61108b9150823d841161081a5761080c8183614d05565b38610d88565b6040513d8b823e3d90fd5b634e487b7160e01b89526021600452602489fd5b5034610280576040366003190112610280576110ca614a57565b90600435815260016020526040812060ff600c8201541660058110156114e35760026110f69114615575565b600d8101546111068115156155b4565b60043583526002602052604083209360018060a01b039485821660005260205260ff60406000205416156114a85784600754166040516307c7a72d60e01b81526020818061115a86600435600484016150b4565b0381855afa908115610cb6578691611489575b5061144e5785600485015416936040519463423e7bc160e11b86526020868061119d848860043560048501615400565b0381865afa9586156107e957879661141a575b5060405163dc4ce34960e01b815292602084806111d4858a600480359085016155f0565b0381845afa9384156108215788946113e6575b50879260036001910154905b8181111561134557505061122392916020916040518080968194634f44289d60e01b8352600435600484016150b4565b03915afa9081156107e957879161130f575b61123f9250614f68565b81611256575050505050602091505b604051908152f35b9394938061129357505060209460043584526004865260408420911660005284526040600020541460001461128c57505b61124e565b905061124e565b939291909495600435845260046020526040842091166000526020526040600020541460001461130357612328808302928304036112ef5750916112e9611287926112e46127106020960484614f3f565b615611565b90614f68565b634e487b7160e01b81526011600452602490fd5b9150506020915061124e565b90506020823d60201161133d575b8161132a60209383614d05565b810103126107dd5761123f915190611235565b3d915061131d565b87810361135b575b61135690614f75565b6111f3565b9360405163dc4ce34960e01b81526020818061137e888a600435600485016155f0565b0381875afa9081156113db578b916113a7575b5061139f9061135692614f68565b94905061134d565b90506020813d6020116113d3575b816113c260209383614d05565b810103126107dd5751611356611391565b3d91506113b5565b6040513d8d823e3d90fd5b9093506020813d602011611412575b8161140260209383614d05565b810103126107dd575192386111e7565b3d91506113f5565b9095506020813d602011611446575b8161143660209383614d05565b810103126107dd575194386111b0565b3d9150611429565b60405162461bcd60e51b815260206004820152601360248201527211540e88105b1c9958591e4818db185a5b5959606a1b6044820152606490fd5b6114a2915060203d60201161081a5761080c8183614d05565b3861116d565b60405162461bcd60e51b815260206004820152601360248201527211540e88139bc81cdd185ad9481c1b1858d959606a1b6044820152606490fd5b634e487b7160e01b83526021600452602483fd5b503461028057604036600319011261028057611540906020611517614a57565b60018060a01b03600754166040518080968194633d1e7ba160e11b8352600435600484016150b4565b03915afa90811561158e579061155c575b602090604051908152f35b506020813d8211611586575b8161157560209383614d05565b810103126107dd5760209051611551565b3d9150611568565b604051903d90823e3d90fd5b50346102805760203660031901126102805760406116e6916115ba615cd2565b50600435815260016020522060ff6011604051926115d784614cce565b80546001600160a01b0390811685526115f260018301614dca565b6020860152836002830154161515604086015260038201546060860152806004830154166080860152600582015460a0860152600682015460c0860152600782015460e086015260088201546101008601526009820154610120860152600a820154610140860152600b82015461016086015261167984600c840154166101808701614f84565b600d8201546101a0860152600e82015484811615156101c08701526116a7858260081c166101e08801614f90565b60101c16610200850152600f81015461022085015260108101546102408501520154161515610260820152604051918291602083526020830190614b79565b0390f35b5034610280576020806003193601126103c1576004359061171a60018060a01b036102b381600854163314615c19565b8183526001815260ff600c6040852001541660058110156103ad57600203611883576080600080516020615d66833981519152918385526001815284601160408220828155826001820161176e8154614d90565b80611843575b505060028201556000600382015582600482015560006005820155600060068201556000600782015560006008820155600060098201556000600a8201556000600b82015582600c8201556000600d82015582600e8201556000600f820155600060108201550155838552600b815260ff604086205416611835575b6026604051918083528201527f5065726d616e656e746c792072656d6f76656420616674657220636c61696d206040820152651c195c9a5bd960d21b6060820152a280f35b61183e84615b5e565b6117f0565b601f811160011461185d575060009150555b823880611774565b9080600091845261187c601f898620940160051c840160018501614f9c565b5555611855565b6064906040519062461bcd60e51b82526004820152601760248201527611540e8813585c9ad95d081b9bdd081c995cdbdb1d9959604a1b6044820152fd5b503461028057606036600319011261028057604435906001600160a01b0380831683036107dd576115409260209160075416604051808096819463dc4ce34960e01b8352602435600435600485016155f0565b5034610280576040366003190112610280576040611930614a57565b9160043581526004602052209060018060a01b03166000526020526020604060002054604051908152f35b50346102805761196a36614d7a565b9190815260056020526040812090815483101561028057602061198d8484614ae9565b905460405160039290921b1c6001600160a01b03168152f35b5034610280578060031936011261028057602060405161015e8152f35b50346102805760203660031901126102805760043580825260016020526040822080546001600160a01b03163303611ab15760ff600c8201541660058110156103ad5790611a13600992156151ec565b015461a8bf198101908111611a9d57421015611a5f57604051611a5c91611a3982614cea565b601182527010dc99585d1bdc8818d85b98d95b1b1959607a1b6020830152615631565b80f35b60405162461bcd60e51b815260206004820152601660248201527511540e88151bdbc81b185d19481d1bc818d85b98d95b60521b6044820152606490fd5b634e487b7160e01b83526011600452602483fd5b60405162461bcd60e51b815260206004820152601b60248201527a11540e8813db9b1e4818dc99585d1bdc8818d85b8818d85b98d95b602a1b6044820152606490fd5b503461028057611b0336614d7a565b9190815260066020526040812090815483101561028057602061198d8484614ae9565b503461028057602036600319011261028057611b40614a6d565b611b48614e70565b6001600160a01b03168015611b6e57600d80546001600160a01b03191691909117905580f35b60405162461bcd60e51b8152602060048201526024808201527f45503a20496e76616c6964204f7074696d69737469634f7261636c65206164646044820152637265737360e01b6064820152608490fd5b503461028057602036600319011261028057611bd9614a6d565b611be1614e70565b6001600160a01b03168015611c0757600880546001600160a01b03191691909117905580f35b60405162461bcd60e51b815260206004820152600c60248201526b22a81d102130b21030b2323960a11b6044820152606490fd5b503461028057602036600319011261028057600435815260016020819052604090912080546001600160a01b031691611c75908201614dca565b60a052600281015460ff1660e0526003810154608052600160a01b600190036004820154169160058201546006830154600784015460088501546009860154600a87015490600b88015492600c89015460ff1694600d8a015496600e8b015498600f8c01549a60108d01549c6011015460ff16610100526040518060c052526102808060c0516020015260c0510160a05190611d1091614b24565b9c60e051151560c0516040015260805160c0516060015260c0516080015260c05160a0015260c05160c0015260c05160e0015260c051610100015260c051610120015260c051610140015260c051610160015260c05161018001611d7391614b49565b60c0516101a0015260ff8116151560c0516101c0015260c0516101e0018160081c60ff1690611da191614b6c565b600160a01b600190039060101c1660c051610200015260c051610220015260c051610240015261010051151560c051610260015260c05180910390f35b503461028057602036600319011261028057611df8614a6d565b611e00614e70565b6001600160a01b03168015611e2657600e80546001600160a01b03191691909117905580f35b60405162461bcd60e51b815260206004820152601960248201527845503a20496e76616c696420626f6e642063757272656e637960381b6044820152606490fd5b50346102805760203660031901126102805760406020916004358152600683522054604051908152f35b50346102805780600319360112610280576008546040516001600160a01b039091168152602090f35b5034610280576020806003193601126103c15760043590818352600181526040832090600e8201805460ff8160081c16600281101561212c576120f257600c84019081549060ff8216600581101561109c576001611f189114615420565b611f2560ff82161561545c565b600b86015442106120b257604051633fabe5a360e21b815288946001600160a01b0394939192919060a084600481601087901c8a165afa80156107e9578790612062575b600f8a015460029550116120575760ff600d60019a5b0199168955600160ff1980941617905516179055611f9c85615695565b60048382600854166040519283809263406ad64560e11b82525afa90811561063f57839161203a575b501680611fea575b5050600080516020615da68339815191529154604051908152a280f35b8354813b1561203657829160448392604051948593849262ff4a7360e81b84528b600485015260248401525af180156106075715611fcd5761202b90614cbb565b610603578338611fcd565b8280fd5b6120519150843d86116106385761062a8183614d05565b38611fc5565b60ff600d859a611f7f565b5060a0843d82116120aa575b8161207b60a09383614d05565b810103126120a6578361208f600295615497565b506120a060808a8301519201615497565b50611f69565b8680fd5b3d915061206e565b60405162461bcd60e51b815260048101869052601860248201527745503a20546f6f206561726c7920746f207265736f6c766560401b6044820152606490fd5b60405162461bcd60e51b815260048101849052601260248201527111540e88139bdd081c1c9a58d9481999595960721b6044820152606490fd5b634e487b7160e01b87526021600452602487fd5b50346102805760403660031901126102805761215a614a6d565b6001600160a01b03168152600c60205260408120805460243592908310156102805760206121888484614ae9565b90546040519160031b1c8152f35b5034610280578060031936011261028057546040516001600160a01b039091168152602090f35b5034610280576115409060206121d236614a83565b60075460405163423e7bc160e11b81529687946001600160a01b03909216938593849390919060048501615400565b5034610280576020366003190112610280576004358082526001602052604082209060ff600c8301541660058110156103ad5760016122409114615420565b600b82015442106122975761225f60ff600e611a5c940154161561545c565b6040519061226c82614cea565b601982527814995cdbdb1d5d1a5bdb881c195c9a5bd908195e1c1a5c9959603a1b6020830152615631565b60405162461bcd60e51b815260206004820152601f60248201527f45503a205265736f6c7574696f6e20706572696f64206e6f7420656e646564006044820152606490fd5b50346102805780600319360112610280576122f5614e70565b600080546001600160a01b0319811682556001600160a01b0316600080516020615d868339815191528280a380f35b5034610280576020806003193601126103c1576004358252600581526040822091604051809384918482549182815201918452848420935b858282106123875750505061237392500383614d05565b6116e6604051928284938452830190614c7e565b85546001600160a01b031684526001958601958895509301920161235c565b50346102805760209081600319360112610280576004359182825260018152604082209260ff600c8501541660058110156103ad5760026123e79114615575565b600d840154916123f88315156155b4565b818452600281526040842033600052815260ff60406000205416156127bd576007546040516307c7a72d60e01b81526001600160a01b039182169491908381806124463389600484016150b4565b0381895afa9081156107e95787916127a0575b5061276d57600487015416906040519063423e7bc160e11b825283828061248586338a60048501615400565b0381895afa9182156107e957879261273e575b5060405163dc4ce34960e01b808252988582806124ba88878c600485016155f0565b03818b5afa91821561109157899261270f575b50889960036001920154915b82811115612678575050604051634f44289d60e01b8152899594939291508a878280612509898d600484016150b4565b03818d5afa9182156107e9578792612644575b509061252791614f68565b816125b3575050505081945b803b15612036578583916125609383604051809681958294632f0041ed60e11b8452338d6004860161538f565b03925af180156106075761259f575b50507f5380cf6fe903b40c6d5a9e0dfbca2f3a423f0a21520b4d5947ed5169bdba946d906040519384523393a380f35b6125a890614cbb565b61060357838561256f565b806125e75750508584526004855260408420336000528552604060002054146000146125df5794612533565b508194612533565b91878692949596526004875260408220336000528752604060002054146000146126385750612328808202918204036107a357916112e9612632926112e46127108b97960484614f3f565b94612533565b93925050508194612533565b88809298508193503d8311612671575b61265e8183614d05565b810103126107dd5751899561252761251c565b503d612654565b84810361268e575b61268990614f75565b6124d9565b9a6126ad88888c8f8d604051958694859384938b8552600485016155f0565b03915afa908115612704578c916126d5575b506126cd9061268992614f68565b9b9050612680565b90508881813d83116126fd575b6126ec8183614d05565b810103126107dd57516126896126bf565b503d6126e2565b6040513d8e823e3d90fd5b9091508581813d8311612737575b6127278183614d05565b810103126107dd575190386124cd565b503d61271d565b9091508381813d8311612766575b6127568183614d05565b810103126107dd57519038612498565b503d61274c565b60405162461bcd60e51b815260048101849052600b60248201526a11540e8810db185a5b595960aa1b6044820152606490fd5b6127b79150843d861161081a5761080c8183614d05565b38612459565b6064906040519062461bcd60e51b82526004820152600c60248201526b45503a204e6f207374616b6560a01b6044820152fd5b50610180366003190112610280576004356001600160401b0381116103c157366023820112156103c15761282e903690602481600401359101614d43565b90602435151560243503610280576064356001600160a01b03811690036107dd5760026101243510156102805761014435906001600160a01b03821682036107dd57600854604051632b5ba3b960e01b81523360048201526001600160a01b0390911690602081602481855afa90811561063f57906128b4918491613547575015614eb4565b83511561350f576002604435101580613502575b156134c7576084351561348e5760a435156134535760c435151580613445575b1561340a576101243515613370575b6040516317916e0160e01b8152602081600481855afa90811561063f57839161333e575b5060e435106133065760e43561010435106132c45760243515613264576064356001600160a01b03161561322057604051633462561360e11b81526064356001600160a01b0316600482015290602090829060249082905afa908115610607579061298d918391613201575b50614ef9565b670de0b6b3a764000034106131c557603c60e4350260e4358104603c1460e43515171561305a576129be9042614f68565b9061010435603c610104350204603c14610104351517156112ef576129e9603c610104350242614f68565b610124356131af5780915b60095494612a0186614f75565b60095560405190612a1182614cce565b33825287602083015260243515156040830152604435606083015260018060a01b0360643516608083015260843560a083015260a43560c083015260c43560e08301524261010083015285610120830152836101408301528461016083015282610180830152826101a0830152826101c0830152612a96610124356101e08401614f90565b6001600160a01b0390811661020083015261016435610220830152610240820183905261026082018390528683526001602090815260408420835181546001600160a01b03191693169290921782558201518051919291906001600160401b03821161319b578190612b0b6001860154614d90565b601f811161315d575b50602090601f83116001146130ee5786926130e3575b50508160011b916000199060031b1c19161760018301555b612b556040820151151560028401614fb3565b606081015160038301556004820160018060a01b0360808301511660018060a01b031982541617905560a0810151600583015560c0810151600683015560e0810151600783015561010081015160088301556101208101516009830155610140810151600a830155610160810151600b830155600c820161018082015160058110156130cf5760ff801983541691161790556101a0810151600d830155600e8201612c076101c0830151151582614fb3565b6101e082015160028110156130cf578154610200840151610100600160b01b031990911660089290921b61ff001691909117601091821b62010000600160b01b031617909155610220820151600f840155610240820151908301556102600151612c779190151590601101614fb3565b600a54600160401b8110156130b957612cb1612c9a826001899401600a55614ab8565b819391549060031b91821b91600019901b19161790565b9055848152600b60205260408120805460ff191660011790556064356001600160a01b031661306e5760a435670de0b6b3a76400000180670de0b6b3a76400001161305a57341061301d57612d2681808080670de0b6b3a764000060018060a01b038254165af1612d20614fea565b5061501a565b8080808060a43560018060a01b03600754165af1612d42614fea565b5015612fc0575b848152600260205260408120336000526020526040600020600160ff198254161790558481526004602052604081203360005260205260c435604060002055338152600c602052612d9d8560408320614fc4565b6007546001600160a01b0316803b156103c1578160405180926395f4109560e01b8252818381612ddd60c4358d60a4359060643590339060048701615065565b03925af1801561060757908291612fac575b505060085460405163406ad64560e11b815290602090829060049082906001600160a01b03165afa908115610607578291612f8d575b506001600160a01b038116612ec7575b505060209484927f5d0726a1bb5ec8c87527e69ba86d988202e885fad8f2b4aacd618793d6f297b292612e75604051936101208552610120850190614b24565b6024351515848a015260443560408501526064356001600160a01b0316606085015260843560808501524260a085015260c084019690965260e0830152610100820152339381900390a3604051908152f35b6001600160a01b0381163b156103c15760405163782a780560e11b8152828180612ef5338b600484016150b4565b0381836001600160a01b0387165af1801561063f57908391612f79575b50506001600160a01b0381163b156103c15760405163c228038d60e01b81529082908290818381612f4d60a43560c435338f600486016150cd565b03926001600160a01b03165af180156106075715612e3557612f6f8291614cbb565b6102805780612e35565b612f8290614cbb565b6103c1578138612f12565b612fa6915060203d6020116106385761062a8183614d05565b38612e25565b612fb590614cbb565b610280578038612def565b60405162461bcd60e51b815260206004820152602f60248201527f45503a2043726561746f72206465706f736974207472616e7366657220746f2060448201526e151c99585cdd5c9e4819985a5b1959608a1b6064820152608490fd5b60405162461bcd60e51b815260206004820152601560248201527445503a20496e73756666696369656e74205045505560581b6044820152606490fd5b634e487b7160e01b82526011600452602482fd5b61309281808080670de0b6b3a764000060018060a01b038254165af1612d20614fea565b6007546130b49060a435906001600160a01b0390811690339060643516615113565b612d49565b634e487b7160e01b600052604160045260246000fd5b634e487b7160e01b85526021600452602485fd5b015190503880612b2a565b9250600185018652602086209086935b601f1984168510613142576001945083601f19811610613129575b505050811b016001830155612b42565b015160001960f88460031b161c19169055388080613119565b818101518355602094850194600190930192909101906130fe565b61318b9060018701885260208820601f850160051c81019160208610613191575b601f0160051c0190614f9c565b38612b14565b909150819061317e565b634e487b7160e01b85526041600452602485fd5b61c4e08101811161305a5761c4e08101916129f4565b60405162461bcd60e51b815260206004820152601460248201527345503a20496e73756666696369656e742066656560601b6044820152606490fd5b61321a915060203d60201161081a5761080c8183614d05565b38612987565b606460405162461bcd60e51b815260206004820152602060248201527f45503a204d756c74692d6f7074696f6e206e656564732050325020746f6b656e6044820152fd5b6064356001600160a01b031661327b575b5061298d565b604051633462561360e11b81526064356001600160a01b0316600482015290602090829060249082905afa90811561060757906132be9183916132015750614ef9565b38613275565b60405162461bcd60e51b815260206004820152601a60248201527945503a205265736f6c7574696f6e206166746572207374616b6560301b6044820152606490fd5b60405162461bcd60e51b815260206004820152601060248201526f22a81d1026b4b710323ab930ba34b7b760811b6044820152606490fd5b90506020813d602011613368575b8161335960209383614d05565b810103126107dd57513861291b565b3d915061334c565b6001600160a01b038316156133cb57610164356128f75760405162461bcd60e51b815260206004820152601c60248201527b11540e88141c9a58d9481d1a1c995cda1bdb19081c995c5d5a5c995960221b6044820152606490fd5b60405162461bcd60e51b815260206004820152601760248201527611540e88141c9a58d94819995959081c995c5d5a5c9959604a1b6044820152606490fd5b60405162461bcd60e51b815260206004820152601360248201527245503a20496e76616c6964206f7574636f6d6560681b6044820152606490fd5b5060443560c43511156128e8565b60405162461bcd60e51b815260206004820152601360248201527211540e88125b9d985b1a590819195c1bdcda5d606a1b6044820152606490fd5b60405162461bcd60e51b815260206004820152601160248201527045503a20496e76616c6964207374616b6560781b6044820152606490fd5b60405162461bcd60e51b815260206004820152601360248201527245503a20496e76616c6964206f7074696f6e7360681b6044820152606490fd5b50600a60443511156128c8565b60405162461bcd60e51b815260206004820152601060248201526f08aa0744092dcecc2d8d2c840d0c2e6d60831b6044820152606490fd5b610cd8915060203d60201161081a5761080c8183614d05565b50346102805780600319360112610280576007546040516001600160a01b039091168152602090f35b50346102805760203660031901126102805760043580825260016020526040822090600e8201549160ff8360081c1660028110156130cf57906135d06001601093146154ab565b6135e060ff6011830154166154ef565b019160ff8354916135f2831515615533565b1661368057600d5484916001600160a01b0390911690813b1561203657829160448392604051948593849263a6a22b4360e01b845260048401523360248401525af180156106075761366c575b5050339154907f8764c70ba5e4ae969c50093a5cb46e29238fb82e4b7eb17d22a8102996b01c8a8480a480f35b61367590614cbb565b61203657823861363f565b60405162461bcd60e51b815260206004820152601460248201527311540e88105b1c9958591e481c995cdbdb1d995960621b6044820152606490fd5b5034610280576020806003193601126103c15760043580835260018252604083209160ff600c8401541660058110156130cf576003036139e457818452600281526040842033600052815260ff6040600020541680156139c4575b15613987578392828552600282526040852033600052825260ff604060002054166138e1575b828552600382526040852033600052825260ff60406000205416613839575b83156137fa5760075460049091015485916001600160a01b039182169116803b15612036578583916137a7938360405180968195829463164fcd7d60e21b8452338d6004860161538f565b03925af18015610607576137e6575b50507ff3f402280ef0a7905e124aa621b65eaeb2725c343e8b36d398ed78c29daf285c906040519384523393a380f35b6137ef90614cbb565b6106035783386137b6565b60405162461bcd60e51b815260048101839052601760248201527645503a204e6f20726566756e6420617661696c61626c6560481b6044820152606490fd5b92613870908260018060a01b0380600754169060048801541690604051808096819463256ba74160e01b8352338b60048501615400565b03915afa908115610cb65786916138b0575b61388c9250614f68565b928285526003825260408520336000528252604060002060ff19815416905561375c565b90508282813d83116138da575b6138c78183614d05565b810103126107dd5761388c915190613882565b503d6138bd565b92506139188160018060a01b0380600754169060048701541690604051808095819463423e7bc160e11b8352338a60048501615400565b03915afa90811561397c57859161394f575b50928285526002825260408520336000528252604060002060ff19815416905561373d565b90508181813d8311613975575b6139668183614d05565b810103126107dd57513861392a565b503d61395c565b6040513d87823e3d90fd5b6064906040519062461bcd60e51b82526004820152601660248201527511540e88139bc81cdd185ad9481d1bc81c99599d5b9960521b6044820152fd5b50818452600381526040842033600052815260ff60406000205416613717565b6064906040519062461bcd60e51b82526004820152601860248201527711540e8813585c9ad95d081b9bdd0818d85b98d95b1b195960421b6044820152fd5b50346102805760203660031901126102805760043580825260016020526040822060ff600e82015460081c1660028110156103ad5790613a676001601093146154ab565b613a7760ff6011830154166154ef565b01828154613a86811515615533565b600d546001600160a01b031690813b15612036578291602483926040519485938492634124beef60e01b845260048401525af1801561060757613aef575b505054907f049c1c3eca1ffdb1b59f7205ce06f2461ace420050f9ad1b4b6b55f4a0f2e5268380a380f35b613af890614cbb565b612036578238613ac4565b503461028057806003193601126102805760206040516101f48152f35b503461028057613b2f36614d7a565b908083526020600181526040842090600e820193845460ff8160081c16600281101561082c57613b7d91613b67600160ff93146154ab565b613b76826011880154166154ef565b161561545c565b601083019086825496613b91881515615533565b600d5460405163e39dfd7f60e01b815260048101999099526001600160a01b03939086908a90602490829088165afa98891561063f578399613dd4575b50600387015460028103613d215750509160049288600014613d185760ff60015b16600d8801555b60ff19906001828254161790556002600c880191825416179055613c1987615695565b8481600854166040519485809263406ad64560e11b82525afa80156106075787938391613cfb575b501680613c96575b5050600080516020615da683398151915283600d7f32736e1fe22a85082b71b7eb923b176a17df522ea8342ff5e24ce4b7e2019bbf960154604051908152a254936040519015158152a380f35b909150600d850154813b1561203657829160448392604051958693849262ff4a7360e81b84528c600485015260248401525af1918215613cee57869215613c4957613ce2919250614cbb565b610b2957838638613c49565b50604051903d90823e3d90fd5b613d129150863d88116106385761062a8183614d05565b38613c41565b60ff6002613bef565b909192508815613d8f578115159081613d84575b5015613d4a57600d8601556004918891613bf6565b60405162461bcd60e51b815260048101869052601260248201527122a81d1024b73b30b634b21037b83a34b7b760711b6044820152606490fd5b905081111538613d35565b60405162461bcd60e51b815260048101879052601d60248201527f45503a204f7261636c6520617373657274696f6e2072656a65637465640000006044820152606490fd5b613dec919950863d881161081a5761080c8183614d05565b9738613bce565b503461028057604036600319011261028057611540906020613e13614a57565b60018060a01b03600754166040518080968194634f44289d60e01b8352600435600484016150b4565b503461028057604036600319011261028057602460043581356001600160401b038111610603573660238201121561060357613e819036908481600401359101614d43565b818452602092600184526040852090600e82015460ff8160081c166002811015614092576001613eb191146154ab565b60ff600c84015416600581101561409257613ed491613b76600160ff9314615420565b600a820154421061405f57601182019260ff84541661402657600d546001600160a01b0390811691908215613ff157600e541615613fba578691613f379189604051809681958294630dac4ebd60e21b8452604060048501526044840190614b24565b90339083015203925af1948515610cb6578695613f89575b5050601001839055805460ff191660011790557fc92f993487c6d961b60ff2a81386dff5cc620cd4aed9cddabe26500391655e828380a380f35b90809550813d8311613fb3575b613fa08183614d05565b81010312610af457601093519338613f4f565b503d613f96565b60405162461bcd60e51b8152600481018890526010818501526f11540e88109bdb99081b9bdd081cd95d60821b6044820152606490fd5b60405162461bcd60e51b815260048101899052600e818601526d11540e8813d3c81b9bdd081cd95d60921b6044820152606490fd5b60405162461bcd60e51b8152600481018790526012818401527145503a20417373657274696f6e206d61646560701b6044820152606490fd5b84600d6064926040519262461bcd60e51b845260048401528201526c45503a20546f6f206561726c7960981b6044820152fd5b634e487b7160e01b885260216004528288fd5b50346102805780600319360112610280576020600954604051908152f35b5034610280576020366003190112610280576140dd615cd2565b50600435815260016020526040812060ff6011604051926140fd84614cce565b80546001600160a01b0316845261411660018201614dca565b602085015260028101548316151560408501526003810154606085015260048101546001600160a01b03166080850152600581015460a0850152600681015460c0850152600781015460e085015260088101546101008501526009810154610120850152600a810154610140850152600b810154610160850152600c8101546141a59084166101808601614f84565b600d8101546101a0850152600e81015483811615156101c08601526141d3848260081c166101e08701614f90565b6001600160a01b03601091821c8116610200870152600f830154610220870152908201546102408601529101549190911615156102608301526007546080830151604051633d1e7ba160e11b815292918216916020918491829161423e9116600480359084016150b4565b0381845afa9182156144e55784926144f0575b506080830151604051634f44289d60e01b8152929160209184919082908190614289906001600160a01b0316600480359084016150b4565b03915afa9182156144e55784926144b1575b506004358452600560205260408420546006602052604085205460056020526040862091604051808460208296549384815201908a5260208a20928a5b81811061448f5750506142ed92500384614d05565b600435875260066020526040872094604051808760208299549384815201908b5260208b20928b5b81811061446d57505061432a92500387614d05565b6008546080880151604051637d85959b60e11b81526001600160a01b039182166004820152918a9183916024918391165afa98891561158e5780996143d2575b614394896116e68c6143c48c6143b68d8d8d8d8d6040519b8c9b6101008d526101008d0190614b79565b9460208c015260408b015260608a0152608089015287820360a0890152614c7e565b9085820360c0870152614c7e565b9083820360e0850152614b24565b909198503d8082843e6143e58184614d05565b8201916020818403126103c1578051906001600160401b038211612036570182601f820112156103c15780519161441b83614d28565b936144296040519586614d05565b838552602084840101116102805750936143b6938361445c6143c498946116e69b9860206143949f9c9881019101614b01565b9a509350939681955095919561436a565b84546001600160a01b031683526001948501948b945060209093019201614315565b84546001600160a01b03168352600194850194889450602090930192016142d8565b9091506020813d6020116144dd575b816144cd60209383614d05565b810103126107dd5751903861429b565b3d91506144c0565b6040513d86823e3d90fd5b91506020823d60201161451d575b8161450b60209383614d05565b810103126107dd579051906020614251565b3d91506144fe565b5034610280576020806003193601126103c15760043580835260018252604083206003835260408420338552835261456360ff6040862054166153b7565b60ff600c8201541660058110156130cf57806146f75750600981015461a8bf1981019081116146e357421015614683575b8360018060a01b036004816007541693015416916040519063256ba74160e01b82528582806145c887338a60048501615400565b0381845afa91821561063f578392614654575b506145e78215156153b7565b803b156120365761461193836040518096819582946317be0b2f60e11b8452338b6004860161538f565b03925af180156144e557614641575b5082526003815260408220903360005252604060002060ff19815416905580f35b61464d90939193614cbb565b9138614620565b9091508581813d831161467c575b61466c8183614d05565b81010312612036575190386145db565b503d614662565b60405162461bcd60e51b815260048101849052603260248201527f45503a2043616e6e6f742077697468647261772077697468696e20313220686f6044820152711d5c9cc81bd9881cdd185ada5b99c8195b9960721b6064820152608490fd5b634e487b7160e01b85526011600452602485fd5b60048114908115614761575b506145945760405162461bcd60e51b815260048101849052602b60248201527f45503a2043616e6e6f7420776974686472617720696e2063757272656e74206d60448201526a61726b657420737461746560a81b6064820152608490fd5b600391501438614703565b50346102805760203660031901126102805760043590600a5482101561028057602061218883614ab8565b50346102805760403660031901126102805760ff60406020926147b8614a57565b6004358252600285528282206001600160a01b03909116825284522054604051911615158152f35b50346102805780600319360112610280576020604051670de0b6b3a76400008152f35b50346102805760403660031901126102805760ff6040602092614824614a57565b6004358252600385528282206001600160a01b03909116825284522054604051911615158152f35b50346102805761488f602061486036614a83565b60075460405163256ba74160e01b81529586946001600160a01b03909216938593849390919060048501615400565b03915afa9081156106075782916148ac575b602082604051908152f35b90506020813d82116148d9575b816148c660209383614d05565b810103126103c1576020915051386148a1565b3d91506148b9565b5034610280578060031936011261028057600d546040516001600160a01b039091168152602090f35b5034610280578060031936011261028057600e546040516001600160a01b039091168152602090f35b503461028057602036600319011261028057600435808252600160205260408220600c81019081549060ff821660058110156149ed5790614976600a92156151ec565b015442106149a85760ff19166001179055808252600b602052604082205460ff1661499f575080f35b611a5c90615b5e565b60405162461bcd60e51b815260206004820152601f60248201527f45503a205265736f6c7574696f6e2074696d65206e6f742072656163686564006044820152606490fd5b634e487b7160e01b86526021600452602486fd5b50346102805760203660031901126102805760ff60406020926004358152600b84522054166040519015158152f35b9050346103c15760203660031901126103c157604060209260043581526005845220548152f35b602435906001600160a01b03821682036107dd57565b600435906001600160a01b03821682036107dd57565b60609060031901126107dd57600435906001600160a01b039060243582811681036107dd579160443590811681036107dd5790565b600a54811015614ad357600a60005260206000200190600090565b634e487b7160e01b600052603260045260246000fd5b8054821015614ad35760005260206000200190600090565b60005b838110614b145750506000910152565b8181015183820152602001614b04565b90602091614b3d81518092818552858086019101614b01565b601f01601f1916010190565b906005821015614b565752565b634e487b7160e01b600052602160045260246000fd5b906002821015614b565752565b9060018060a01b0391828151168252614ba16020820151610280806020860152840190614b24565b926040820151151560408401526060820151606084015280608083015116608084015260a082015160a084015260c082015160c084015260e082015160e08401526101008083015190840152610120808301519084015261014080830151908401526101608083015190840152614c216101808084015190850190614b49565b6101a080830151908401526101c080830151151590840152614c4c6101e08084015190850190614b6c565b610200908183015116908301526102208082015190830152610240808201519083015261026080910151151591015290565b90815180825260208080930193019160005b828110614c9e575050505090565b83516001600160a01b031685529381019392810192600101614c90565b6001600160401b0381116130b957604052565b61028081019081106001600160401b038211176130b957604052565b604081019081106001600160401b038211176130b957604052565b601f909101601f19168101906001600160401b038211908210176130b957604052565b6001600160401b0381116130b957601f01601f191660200190565b929192614d4f82614d28565b91614d5d6040519384614d05565b8294818452818301116107dd578281602093846000960137010152565b60409060031901126107dd576004359060243590565b90600182811c92168015614dc0575b6020831014614daa57565b634e487b7160e01b600052602260045260246000fd5b91607f1691614d9f565b9060405191826000825492614dde84614d90565b908184526001948581169081600014614e4d5750600114614e0a575b5050614e0892500383614d05565b565b9093915060005260209081600020936000915b818310614e35575050614e0893508201013880614dfa565b85548884018501529485019487945091830191614e1d565b915050614e0894506020925060ff191682840152151560051b8201013880614dfa565b6000546001600160a01b03163303614e8457565b60405163118cdaa760e01b8152336004820152602490fd5b908160209103126107dd575180151581036107dd5790565b15614ebb57565b60405162461bcd60e51b815260206004820152601660248201527511540e8815d85b1b195d08189b1858dadb1a5cdd195960521b6044820152606490fd5b15614f0057565b60405162461bcd60e51b815260206004820152601760248201527611540e88151bdad95b881b9bdd081cdd5c1c1bdc9d1959604a1b6044820152606490fd5b81810292918115918404141715614f5257565b634e487b7160e01b600052601160045260246000fd5b91908201809211614f5257565b6000198114614f525760010190565b6005821015614b565752565b6002821015614b565752565b818110614fa7575050565b60008155600101614f9c565b9060ff801983541691151516179055565b805490600160401b8210156130b95781612c9a916001614fe694018155614ae9565b9055565b3d15615015573d90614ffb82614d28565b916150096040519384614d05565b82523d6000602084013e565b606090565b1561502157565b606460405162461bcd60e51b815260206004820152602060248201527f45503a20466565207472616e7366657220746f206f776e6572206661696c65646044820152fd5b9081526001600160a01b039182166020820152911660408201526060810191909152608081019190915260a00190565b908160209103126107dd57516001600160a01b03811681036107dd5790565b9081526001600160a01b03909116602082015260400190565b909493926060926080830196835260018060a01b0316602083015260408201520152565b6001600160a01b03918216815291166020820152604081019190915260600190565b929060009161514c60209461513e604051938492888401966323b872dd60e01b8852602485016150f1565b03601f198101835282614d05565b519082855af11561519f576000513d61519657506001600160a01b0381163b155b6151745750565b604051635274afe760e01b81526001600160a01b039091166004820152602490fd5b6001141561516d565b6040513d6000823e3d90fd5b156151b257565b60405162461bcd60e51b815260206004820152601260248201527111540e8813585c9ad95d0819195b195d195960721b6044820152606490fd5b156151f357565b60405162461bcd60e51b815260206004820152600e60248201526d45503a204e6f742061637469766560901b6044820152606490fd5b91908203918211614f5257565b1561523d57565b60405162461bcd60e51b815260206004820152601860248201527711540e8814dd185ada5b99c81c195c9a5bd908195b99195960421b6044820152606490fd5b1561528457565b60405162461bcd60e51b815260206004820152600e60248201526d22a81d102130b21037b83a34b7b760911b6044820152606490fd5b156152c157565b60405162461bcd60e51b815260206004820152600d60248201526c22a81d102132b637bb9036b4b760991b6044820152606490fd5b8054600160401b8110156130b95761531391600182018155614ae9565b819291549060031b9160018060a01b03809116831b921b1916179055565b1561533857565b60405162461bcd60e51b815260206004820152602960248201527f45503a20537570706f727420616d6f756e74206d75737420626520677265617460448201526806572207468616e20360bc1b6064820152608490fd5b9081526001600160a01b03918216602082015291166040820152606081019190915260800190565b156153be57565b60405162461bcd60e51b815260206004820152601a60248201527945503a204e6f20737570706f727420746f20776974686472617760301b6044820152606490fd5b9081526001600160a01b0391821660208201529116604082015260600190565b1561542757565b60405162461bcd60e51b815260206004820152600d60248201526c11540e88139bdd08195b991959609a1b6044820152606490fd5b1561546357565b60405162461bcd60e51b815260206004820152600c60248201526b11540e8814995cdbdb1d995960a21b6044820152606490fd5b51906001600160501b03821682036107dd57565b156154b257565b60405162461bcd60e51b815260206004820152601560248201527445503a204e6f74205032504f5054494d495354494360581b6044820152606490fd5b156154f657565b60405162461bcd60e51b815260206004820152601560248201527445503a204e6f20617373657274696f6e206d61646560581b6044820152606490fd5b1561553a57565b60405162461bcd60e51b815260206004820152601360248201527211540e88139bc8185cdcd95c9d1a5bdb881251606a1b6044820152606490fd5b1561557c57565b60405162461bcd60e51b815260206004820152601060248201526f11540e88139bdd081c995cdbdb1d995960821b6044820152606490fd5b156155bb57565b60405162461bcd60e51b815260206004820152600d60248201526c22a81d102737903bb4b73732b960991b6044820152606490fd5b90815260208101919091526001600160a01b03909116604082015260600190565b811561561b570490565b634e487b7160e01b600052601260045260246000fd5b90615675600080516020615d6683398151915291836000526001602052600c604060002001600360ff19825416179055604051918291602083526020830190614b24565b0390a2565b6001600160a01b039091168152602081019190915260400190565b60009080825260206001815260409182842090849160016003820154600d830154915b81811115615ab0575050600754600483810180548951634f44289d60e01b81526001600160a01b03999298939792948a1693918a1692918582806156ff8787838f016150b4565b0381885afa918215615aa6579189918d97969594938f92615a63575b50916157458561572d86948a96614f68565b995163dc4ce34960e01b81529a8b94859485016155f0565b0381865afa958615615a26578c96615a30575b508382615778928d519384928392633d1e7ba160e11b84528d84016150b4565b0381865afa938415615a26578c946159f6575b505061015e93848402841595858204148617156159e357612710809104956101f490818702918783041417156159d05704956158d2575050506157d8906157d28484614f68565b90615229565b9281615865575b5050906157eb91614f68565b92836157fa575b505050505050565b806007541692541690823b15610b29579184939186809461582e97519788958694859363f0824f3360e01b8552840161567a565b03925af190811561585c5750615848575b808080806157f2565b6158528291614cbb565b610280578061583f565b513d84823e3d90fd5b8680600754169154168787541690823b156158ce579161589e93918b80948c519687958694859363112cd22360e01b85528d85016150f1565b03925af180156158c457908891156157df576158b990614cbb565b6120a65786386157df565b87513d8a823e3d90fd5b8a80fd5b9092509794909293976158ec575b50505050505050505050565b84908461596a575b505050505083615908575b808080806158e0565b806007541692541690823b15610b29579184939186809461593c9751978895869485936348fef59560e01b8552840161567a565b03925af190811561585c5750615956575b808080806158ff565b6159608291614cbb565b610280578061594d565b5416823b156159cc579161599793918a80948b519687958694859363112cd22360e01b85528c85016150f1565b03925af180156159c2576159af575b808083816158f4565b6159bb90969196614cbb565b94386159a6565b86513d89823e3d90fd5b8980fd5b634e487b7160e01b8e5260118a5260248efd5b634e487b7160e01b8d526011895260248dfd5b9080929450813d8311615a1f575b615a0e8183614d05565b810103126158ce575191388061578b565b503d615a04565b8b513d8e823e3d90fd5b9095508381813d8311615a5c575b615a488183614d05565b81010312615a5857519483615758565b8b80fd5b503d615a3e565b9250929394959650508581813d8311615a9f575b615a818183614d05565b81010312615a9b57518b959493929189919061574561571b565b8c80fd5b503d615a77565b8c513d8f823e3d90fd5b828103615ac6575b615ac190614f75565b6156b8565b9487878760018060a01b0388816007541691615afd600491828c01541696519687958694859463dc4ce34960e01b865285016155f0565b03915afa908115615b54578a91615b25575b50615b1d90615ac192614f68565b959050615ab8565b90508781813d8311615b4d575b615b3c8183614d05565b810103126159cc5751615ac1615b0f565b503d615b32565b89513d8c823e3d90fd5b60005b600a9081549182821015615c13578392615b7a83614ab8565b949054600395861b1c14615b99575050615b949150614f75565b615b61565b909160001991828101908111614f5257612c9a615bb8615bc492614ab8565b905490871b1c92614ab8565b905581548015615bfd57810192615bda84614ab8565b81939154921b1b1916905555600052600b602052604060002060ff198154169055565b634e487b7160e01b600052603160045260246000fd5b50505050565b15615c2057565b60405162461bcd60e51b815260206004820152601560248201527422a81d1027b7363c9020b236b4b726b0b730b3b2b960591b6044820152606490fd5b15615c6457565b60405162461bcd60e51b815260206004820152600a60248201526911540e8810985908125160b21b6044820152606490fd5b15615c9d57565b60405162461bcd60e51b815260206004820152600d60248201526c11540e88139bc81b585c9ad95d609a1b6044820152606490fd5b60405190615cdf82614cce565b81610260600091828152606060208201528260408201528260608201528260808201528260a08201528260c08201528260e08201528261010082015282610120820152826101408201528261016082015282610180820152826101a0820152826101c0820152826101e0820152826102008201528261022082015282610240820152015256fe4c4561c5b0048424071c1115e9f1e325486e21c21333d968f21097b7b72d12ad8be0079c531659141344cd1fd0a4f28419497f9722a3daafe3b4186f6b6457e06dfc24f0f2fb42e49fb4fa3ffa8abb148cab908a1fb8335b3f128a08b2594af1e10fdde2c5cd9b92e449ee25df01febda2cbebc5553e38f2250ffe7f2d5143bca164736f6c6343000814000a","opcodes":"PUSH1 0x80 CALLVALUE PUSH3 0xFF JUMPI PUSH1 0x1F PUSH3 0x5F22 CODESIZE DUP2 SWAP1 SUB SWAP2 DUP3 ADD PUSH1 0x1F NOT AND DUP4 ADD SWAP2 PUSH1 0x1 PUSH1 0x1 PUSH1 0x40 SHL SUB DUP4 GT DUP5 DUP5 LT OR PUSH3 0x104 JUMPI DUP1 DUP5 SWAP3 PUSH1 0x60 SWAP5 PUSH1 0x40 MSTORE DUP4 CODECOPY DUP2 ADD SUB SLT PUSH3 0xFF JUMPI PUSH3 0x4D DUP2 PUSH3 0x11A JUMP JUMPDEST PUSH1 0x20 DUP3 ADD MLOAD PUSH1 0x1 PUSH1 0x1 PUSH1 0xA0 SHL SUB DUP1 DUP3 AND SWAP4 SWAP1 SWAP2 DUP5 SWAP1 SUB PUSH3 0xFF JUMPI PUSH3 0x77 PUSH1 0x40 DUP4 SWAP3 ADD PUSH3 0x11A JUMP JUMPDEST SWAP3 AND SWAP2 DUP3 ISZERO PUSH3 0xE6 JUMPI PUSH1 0x0 SLOAD SWAP4 PUSH1 0x1 DUP1 PUSH1 0xA0 SHL SUB NOT SWAP4 DUP1 DUP6 DUP8 AND OR PUSH1 0x0 SSTORE DUP4 PUSH1 0x40 MLOAD SWAP7 AND PUSH32 0x8BE0079C531659141344CD1FD0A4F28419497F9722A3DAAFE3B4186F6B6457E0 PUSH1 0x0 DUP1 LOG3 PUSH1 0x1 PUSH1 0x9 SSTORE DUP4 PUSH1 0x7 SLOAD AND OR PUSH1 0x7 SSTORE AND SWAP1 PUSH1 0x8 SLOAD AND OR PUSH1 0x8 SSTORE PUSH2 0x5DF2 SWAP1 DUP2 PUSH3 0x130 DUP3 CODECOPY RETURN JUMPDEST PUSH1 0x40 MLOAD PUSH4 0x1E4FBDF7 PUSH1 0xE0 SHL DUP2 MSTORE PUSH1 0x0 PUSH1 0x4 DUP3 ADD MSTORE PUSH1 0x24 SWAP1 REVERT JUMPDEST PUSH1 0x0 DUP1 REVERT JUMPDEST PUSH4 0x4E487B71 PUSH1 0xE0 SHL PUSH1 0x0 MSTORE PUSH1 0x41 PUSH1 0x4 MSTORE PUSH1 0x24 PUSH1 0x0 REVERT JUMPDEST MLOAD SWAP1 PUSH1 0x1 PUSH1 0x1 PUSH1 0xA0 SHL SUB DUP3 AND DUP3 SUB PUSH3 0xFF JUMPI JUMP INVALID PUSH2 0x120 DUP1 PUSH1 0x40 MSTORE PUSH1 0x4 CALLDATASIZE LT ISZERO PUSH2 0x1E JUMPI JUMPDEST POP CALLDATASIZE ISZERO PUSH2 0x1C JUMPI PUSH1 0x0 DUP1 REVERT JUMPDEST STOP JUMPDEST PUSH1 0x0 SWAP1 DUP2 CALLDATALOAD PUSH1 0xE0 SHR SWAP1 DUP2 PUSH4 0xCCF4467 EQ PUSH2 0x4A30 JUMPI POP DUP1 PUSH4 0xD64CDBD EQ PUSH2 0x4A01 JUMPI DUP1 PUSH4 0x157BDCCE EQ PUSH2 0x4933 JUMPI DUP1 PUSH4 0x209C1C94 EQ PUSH2 0x490A JUMPI DUP1 PUSH4 0x22302922 EQ PUSH2 0x48E1 JUMPI DUP1 PUSH4 0x256BA741 EQ PUSH2 0x484C JUMPI DUP1 PUSH4 0x287F57B5 EQ PUSH2 0x4803 JUMPI DUP1 PUSH4 0x2EF1BDFA EQ PUSH2 0x47E0 JUMPI DUP1 PUSH4 0x304BF1F1 EQ PUSH2 0x4797 JUMPI DUP1 PUSH4 0x3ADFE6D0 EQ PUSH2 0x476C JUMPI DUP1 PUSH4 0x3E32A76C EQ PUSH2 0x4525 JUMPI DUP1 PUSH4 0x3EC79193 EQ PUSH2 0x40C3 JUMPI DUP1 PUSH4 0x406EF2EF EQ PUSH2 0x40A5 JUMPI DUP1 PUSH4 0x422CC3AE EQ PUSH2 0x3E3C JUMPI DUP1 PUSH4 0x4F44289D EQ PUSH2 0x3DF3 JUMPI DUP1 PUSH4 0x4FC4D31C EQ PUSH2 0x3B20 JUMPI DUP1 PUSH4 0x539AA77F EQ PUSH2 0x3B03 JUMPI DUP1 PUSH4 0x569946C5 EQ PUSH2 0x3A23 JUMPI DUP1 PUSH4 0x5B7BAF64 EQ PUSH2 0x36BC JUMPI DUP1 PUSH4 0x5CB305A6 EQ PUSH2 0x3589 JUMPI DUP1 PUSH4 0x61D027B3 EQ PUSH2 0x3560 JUMPI DUP1 PUSH4 0x66CF7ED4 EQ PUSH2 0x27F0 JUMPI DUP1 PUSH4 0x677BD9FF EQ PUSH2 0x23A6 JUMPI DUP1 PUSH4 0x6F59359E EQ PUSH2 0x2324 JUMPI DUP1 PUSH4 0x715018A6 EQ PUSH2 0x22DC JUMPI DUP1 PUSH4 0x7C16CD9E EQ PUSH2 0x2201 JUMPI DUP1 PUSH4 0x847CF782 EQ PUSH2 0x21BD JUMPI DUP1 PUSH4 0x8DA5CB5B EQ PUSH2 0x2196 JUMPI DUP1 PUSH4 0x98A17671 EQ PUSH2 0x2140 JUMPI DUP1 PUSH4 0x9A3A40D6 EQ PUSH2 0x1EBA JUMPI DUP1 PUSH4 0xA210B6A4 EQ PUSH2 0x1E91 JUMPI DUP1 PUSH4 0xA30A0914 EQ PUSH2 0x1E67 JUMPI DUP1 PUSH4 0xA550725D EQ PUSH2 0x1DDE JUMPI DUP1 PUSH4 0xB1283E77 EQ PUSH2 0x1C3B JUMPI DUP1 PUSH4 0xBC160758 EQ PUSH2 0x1BBF JUMPI DUP1 PUSH4 0xBF5C3252 EQ PUSH2 0x1B26 JUMPI DUP1 PUSH4 0xC22C62C3 EQ PUSH2 0x1AF4 JUMPI DUP1 PUSH4 0xC3436E0C EQ PUSH2 0x19C3 JUMPI DUP1 PUSH4 0xCC3CBD2A EQ PUSH2 0x19A6 JUMPI DUP1 PUSH4 0xD5F82707 EQ PUSH2 0x195B JUMPI DUP1 PUSH4 0xD8C5DD67 EQ PUSH2 0x1914 JUMPI DUP1 PUSH4 0xDC4CE349 EQ PUSH2 0x18C1 JUMPI DUP1 PUSH4 0xE0BD4ACC EQ PUSH2 0x16EA JUMPI DUP1 PUSH4 0xEB44FDD3 EQ PUSH2 0x159A JUMPI DUP1 PUSH4 0xF00FE321 EQ PUSH2 0x14F7 JUMPI DUP1 PUSH4 0xF15CC406 EQ PUSH2 0x10B0 JUMPI DUP1 PUSH4 0xF1B7DDE3 EQ PUSH2 0xCDE JUMPI DUP1 PUSH4 0xF204072F EQ PUSH2 0x8D3 JUMPI DUP1 PUSH4 0xF2FDE38B EQ PUSH2 0x85D JUMPI DUP1 PUSH4 0xF4867591 EQ PUSH2 0x3C5 JUMPI DUP1 PUSH4 0xFB87F2C3 EQ PUSH2 0x283 JUMPI PUSH4 0xFE53A6E8 SUB PUSH2 0x10 JUMPI CALLVALUE PUSH2 0x280 JUMPI DUP1 PUSH1 0x3 NOT CALLDATASIZE ADD SLT PUSH2 0x280 JUMPI PUSH1 0x20 PUSH1 0x9 SLOAD PUSH1 0x40 MLOAD SWAP1 DUP2 MSTORE RETURN JUMPDEST DUP1 REVERT JUMPDEST POP CALLVALUE PUSH2 0x280 JUMPI PUSH1 0x20 DUP1 PUSH1 0x3 NOT CALLDATASIZE ADD SLT PUSH2 0x3C1 JUMPI PUSH1 0x4 CALLDATALOAD SWAP1 PUSH2 0x2D4 PUSH1 0x1 DUP1 PUSH1 0xA0 SHL SUB PUSH2 0x2B3 DUP2 PUSH1 0x8 SLOAD AND CALLER EQ PUSH2 0x5C19 JUMP JUMPDEST PUSH2 0x2C0 PUSH1 0x9 SLOAD DUP6 LT PUSH2 0x5C5D JUMP JUMPDEST DUP4 DUP6 MSTORE PUSH1 0x1 DUP4 MSTORE PUSH1 0x40 DUP6 KECCAK256 SLOAD AND ISZERO ISZERO PUSH2 0x5C96 JUMP JUMPDEST DUP2 DUP4 MSTORE PUSH1 0x1 DUP2 MSTORE PUSH1 0xFF PUSH1 0xC PUSH1 0x40 DUP6 KECCAK256 ADD SLOAD AND PUSH1 0x5 DUP2 LT ISZERO PUSH2 0x3AD JUMPI PUSH1 0x4 EQ PUSH2 0x373 JUMPI PUSH1 0x60 PUSH1 0x0 DUP1 MLOAD PUSH1 0x20 PUSH2 0x5D66 DUP4 CODECOPY DUP2 MLOAD SWAP2 MSTORE SWAP2 DUP4 DUP6 MSTORE PUSH1 0x1 DUP2 MSTORE PUSH1 0xC PUSH1 0x40 DUP7 KECCAK256 ADD PUSH1 0x4 PUSH1 0xFF NOT DUP3 SLOAD AND OR SWAP1 SSTORE DUP4 DUP6 MSTORE PUSH1 0xB DUP2 MSTORE PUSH1 0xFF PUSH1 0x40 DUP7 KECCAK256 SLOAD AND PUSH2 0x365 JUMPI JUMPDEST PUSH1 0x17 PUSH1 0x40 MLOAD SWAP2 DUP1 DUP4 MSTORE DUP3 ADD MSTORE PUSH23 0x26B0B935B2BA103232B632BA32B210313C9030B236B4B7 PUSH1 0x49 SHL PUSH1 0x40 DUP3 ADD MSTORE LOG2 DUP1 RETURN JUMPDEST PUSH2 0x36E DUP5 PUSH2 0x5B5E JUMP JUMPDEST PUSH2 0x335 JUMP JUMPDEST PUSH1 0x64 SWAP1 PUSH1 0x40 MLOAD SWAP1 PUSH3 0x461BCD PUSH1 0xE5 SHL DUP3 MSTORE PUSH1 0x4 DUP3 ADD MSTORE PUSH1 0x13 PUSH1 0x24 DUP3 ADD MSTORE PUSH19 0x11540E88105B1C9958591E4819195B195D1959 PUSH1 0x6A SHL PUSH1 0x44 DUP3 ADD MSTORE REVERT JUMPDEST PUSH4 0x4E487B71 PUSH1 0xE0 SHL DUP5 MSTORE PUSH1 0x21 PUSH1 0x4 MSTORE PUSH1 0x24 DUP5 REVERT JUMPDEST POP DUP1 REVERT JUMPDEST POP PUSH2 0x3CF CALLDATASIZE PUSH2 0x4D7A JUMP JUMPDEST PUSH1 0x8 SLOAD PUSH1 0x40 MLOAD PUSH4 0x4D9B4235 PUSH1 0xE1 SHL DUP2 MSTORE PUSH1 0x4 DUP2 ADD DUP5 SWAP1 MSTORE SWAP2 SWAP3 SWAP2 PUSH1 0x20 SWAP2 PUSH1 0x1 PUSH1 0x1 PUSH1 0xA0 SHL SUB SWAP2 SWAP1 DUP3 AND SWAP1 DUP4 DUP2 PUSH1 0x24 DUP2 DUP6 GAS STATICCALL DUP1 ISZERO PUSH2 0x7E9 JUMPI PUSH2 0x419 SWAP2 DUP9 SWAP2 PUSH2 0x840 JUMPI JUMPDEST POP ISZERO PUSH2 0x51AB JUMP JUMPDEST DUP4 DUP7 MSTORE PUSH1 0x1 DUP4 MSTORE PUSH1 0x40 DUP7 KECCAK256 SWAP1 PUSH1 0xFF PUSH1 0xC DUP4 ADD SLOAD AND PUSH1 0x5 DUP2 LT ISZERO PUSH2 0x82C JUMPI PUSH2 0x440 SWAP1 ISZERO PUSH2 0x51EC JUMP JUMPDEST PUSH1 0x40 MLOAD PUSH4 0x111A7989 PUSH1 0xE3 SHL DUP2 MSTORE DUP5 DUP2 PUSH1 0x4 DUP2 DUP6 GAS STATICCALL DUP1 ISZERO PUSH2 0x821 JUMPI DUP6 SWAP2 DUP10 SWAP2 PUSH2 0x7F4 JUMPI JUMPDEST POP PUSH2 0x74A JUMPI JUMPDEST POP POP DUP5 ISZERO ISZERO DUP1 PUSH2 0x73C JUMPI JUMPDEST PUSH2 0x47E SWAP1 PUSH2 0x527D JUMP JUMPDEST PUSH1 0x4 DUP2 ADD SWAP1 DUP3 DUP3 SLOAD AND PUSH2 0x6DC JUMPI PUSH1 0x5 PUSH2 0x49B SWAP2 ADD SLOAD CALLVALUE LT ISZERO PUSH2 0x52BA JUMP JUMPDEST DUP6 DUP1 DUP1 DUP1 CALLVALUE DUP7 PUSH1 0x7 SLOAD AND GAS CALL PUSH2 0x4AF PUSH2 0x4FEA JUMP JUMPDEST POP ISZERO PUSH2 0x68B JUMPI SWAP1 DUP6 SWAP2 DUP5 DUP4 MSTORE PUSH1 0x2 DUP5 MSTORE PUSH1 0x40 DUP4 KECCAK256 CALLER PUSH1 0x0 MSTORE DUP5 MSTORE PUSH1 0xFF PUSH1 0x40 PUSH1 0x0 KECCAK256 SLOAD AND ISZERO PUSH2 0x65E JUMPI JUMPDEST DUP5 DUP4 MSTORE PUSH1 0x2 DUP5 MSTORE PUSH1 0x40 DUP4 KECCAK256 CALLER PUSH1 0x0 MSTORE DUP5 MSTORE PUSH1 0x40 PUSH1 0x0 KECCAK256 PUSH1 0x1 PUSH1 0xFF NOT DUP3 SLOAD AND OR SWAP1 SSTORE DUP5 DUP4 MSTORE PUSH1 0x4 DUP5 MSTORE PUSH1 0x40 DUP4 KECCAK256 CALLER PUSH1 0x0 MSTORE DUP5 MSTORE DUP6 PUSH1 0x40 PUSH1 0x0 KECCAK256 SSTORE DUP2 DUP1 PUSH1 0x7 SLOAD AND SWAP2 SLOAD AND SWAP1 DUP1 EXTCODESIZE ISZERO PUSH2 0x603 JUMPI PUSH1 0x40 MLOAD PUSH4 0x95F41095 PUSH1 0xE0 SHL DUP2 MSTORE SWAP2 DUP5 SWAP2 DUP4 SWAP2 DUP3 SWAP1 DUP5 SWAP1 DUP3 SWAP1 PUSH2 0x54D SWAP1 DUP14 SWAP1 CALLVALUE SWAP1 CALLER DUP16 PUSH1 0x4 DUP8 ADD PUSH2 0x5065 JUMP JUMPDEST SUB SWAP3 GAS CALL SWAP1 DUP2 ISZERO PUSH2 0x63F JUMPI DUP4 SWAP2 PUSH2 0x64A JUMPI JUMPDEST POP POP PUSH1 0x4 DUP4 DUP3 PUSH1 0x8 SLOAD AND PUSH1 0x40 MLOAD SWAP3 DUP4 DUP1 SWAP3 PUSH4 0x406AD645 PUSH1 0xE1 SHL DUP3 MSTORE GAS STATICCALL SWAP1 DUP2 ISZERO PUSH2 0x63F JUMPI DUP4 SWAP2 PUSH2 0x612 JUMPI JUMPDEST POP AND DUP1 PUSH2 0x5B6 JUMPI JUMPDEST POP POP PUSH1 0x40 MLOAD SWAP3 DUP4 MSTORE CALLVALUE SWAP1 DUP4 ADD MSTORE PUSH1 0x0 DUP1 MLOAD PUSH1 0x20 PUSH2 0x5DC6 DUP4 CODECOPY DUP2 MLOAD SWAP2 MSTORE PUSH1 0x40 CALLER SWAP4 LOG3 DUP1 RETURN JUMPDEST DUP1 EXTCODESIZE ISZERO PUSH2 0x3C1 JUMPI DUP2 PUSH1 0x40 MLOAD DUP1 SWAP3 PUSH4 0xC228038D PUSH1 0xE0 SHL DUP3 MSTORE DUP2 DUP4 DUP2 PUSH2 0x5E0 CALLVALUE DUP13 CALLER DUP14 PUSH1 0x4 DUP7 ADD PUSH2 0x50CD JUMP JUMPDEST SUB SWAP3 GAS CALL DUP1 ISZERO PUSH2 0x607 JUMPI ISZERO PUSH2 0x592 JUMPI PUSH2 0x5F8 SWAP1 PUSH2 0x4CBB JUMP JUMPDEST PUSH2 0x603 JUMPI DUP4 CODESIZE PUSH2 0x592 JUMP JUMPDEST DUP4 DUP1 REVERT JUMPDEST PUSH1 0x40 MLOAD RETURNDATASIZE DUP5 DUP3 RETURNDATACOPY RETURNDATASIZE SWAP1 REVERT JUMPDEST PUSH2 0x632 SWAP2 POP DUP5 RETURNDATASIZE DUP7 GT PUSH2 0x638 JUMPI JUMPDEST PUSH2 0x62A DUP2 DUP4 PUSH2 0x4D05 JUMP JUMPDEST DUP2 ADD SWAP1 PUSH2 0x5095 JUMP JUMPDEST CODESIZE PUSH2 0x58A JUMP JUMPDEST POP RETURNDATASIZE PUSH2 0x620 JUMP JUMPDEST PUSH1 0x40 MLOAD RETURNDATASIZE DUP6 DUP3 RETURNDATACOPY RETURNDATASIZE SWAP1 REVERT JUMPDEST PUSH2 0x653 SWAP1 PUSH2 0x4CBB JUMP JUMPDEST PUSH2 0x3C1 JUMPI DUP2 CODESIZE PUSH2 0x55F JUMP JUMPDEST DUP5 DUP4 MSTORE PUSH1 0x5 DUP5 MSTORE PUSH2 0x672 CALLER PUSH1 0x40 DUP6 KECCAK256 PUSH2 0x52F6 JUMP JUMPDEST CALLER DUP4 MSTORE PUSH1 0xC DUP5 MSTORE PUSH2 0x686 DUP6 PUSH1 0x40 DUP6 KECCAK256 PUSH2 0x4FC4 JUMP JUMPDEST PUSH2 0x4D8 JUMP JUMPDEST PUSH1 0x40 MLOAD PUSH3 0x461BCD PUSH1 0xE5 SHL DUP2 MSTORE PUSH1 0x4 DUP2 ADD DUP5 SWAP1 MSTORE PUSH1 0x23 PUSH1 0x24 DUP3 ADD MSTORE PUSH32 0x45503A20455448207472616E7366657220746F20547265617375727920666169 PUSH1 0x44 DUP3 ADD MSTORE PUSH3 0x1B1959 PUSH1 0xEA SHL PUSH1 0x64 DUP3 ADD MSTORE PUSH1 0x84 SWAP1 REVERT JUMPDEST PUSH1 0x40 MLOAD PUSH3 0x461BCD PUSH1 0xE5 SHL DUP2 MSTORE PUSH1 0x4 DUP2 ADD DUP6 SWAP1 MSTORE PUSH1 0x32 PUSH1 0x24 DUP3 ADD MSTORE PUSH32 0x45503A2054686973206D61726B6574207573657320746F6B656E732C20757365 PUSH1 0x44 DUP3 ADD MSTORE PUSH18 0x10383630B1B2A132BA2BB4BA342A37B5B2B7 PUSH1 0x71 SHL PUSH1 0x64 DUP3 ADD MSTORE PUSH1 0x84 SWAP1 REVERT JUMPDEST POP PUSH1 0x3 DUP2 ADD SLOAD DUP6 GT ISZERO PUSH2 0x475 JUMP JUMPDEST PUSH1 0x40 MLOAD PUSH4 0x2EAA712B PUSH1 0xE2 SHL DUP2 MSTORE SWAP2 DUP3 SWAP1 PUSH1 0x4 SWAP1 DUP3 SWAP1 GAS STATICCALL SWAP1 DUP2 ISZERO PUSH2 0x7E9 JUMPI DUP8 SWAP2 PUSH2 0x7B7 JUMPI JUMPDEST POP PUSH1 0x9 DUP3 ADD SLOAD PUSH1 0x3C DUP3 MUL SWAP2 DUP1 DUP4 DIV PUSH1 0x3C EQ SWAP1 ISZERO OR ISZERO PUSH2 0x7A3 JUMPI PUSH2 0x79C SWAP2 PUSH2 0x795 SWAP2 PUSH2 0x5229 JUMP JUMPDEST TIMESTAMP LT PUSH2 0x5236 JUMP JUMPDEST CODESIZE DUP4 PUSH2 0x46A JUMP JUMPDEST PUSH4 0x4E487B71 PUSH1 0xE0 SHL DUP9 MSTORE PUSH1 0x11 PUSH1 0x4 MSTORE PUSH1 0x24 DUP9 REVERT JUMPDEST SWAP1 POP DUP4 DUP2 DUP2 RETURNDATASIZE DUP4 GT PUSH2 0x7E2 JUMPI JUMPDEST PUSH2 0x7CE DUP2 DUP4 PUSH2 0x4D05 JUMP JUMPDEST DUP2 ADD SUB SLT PUSH2 0x7DD JUMPI MLOAD CODESIZE PUSH2 0x76F JUMP JUMPDEST PUSH1 0x0 DUP1 REVERT JUMPDEST POP RETURNDATASIZE PUSH2 0x7C4 JUMP JUMPDEST PUSH1 0x40 MLOAD RETURNDATASIZE DUP10 DUP3 RETURNDATACOPY RETURNDATASIZE SWAP1 REVERT JUMPDEST PUSH2 0x814 SWAP2 POP DUP3 RETURNDATASIZE DUP5 GT PUSH2 0x81A JUMPI JUMPDEST PUSH2 0x80C DUP2 DUP4 PUSH2 0x4D05 JUMP JUMPDEST DUP2 ADD SWAP1 PUSH2 0x4E9C JUMP JUMPDEST CODESIZE PUSH2 0x464 JUMP JUMPDEST POP RETURNDATASIZE PUSH2 0x802 JUMP JUMPDEST PUSH1 0x40 MLOAD RETURNDATASIZE DUP11 DUP3 RETURNDATACOPY RETURNDATASIZE SWAP1 REVERT JUMPDEST PUSH4 0x4E487B71 PUSH1 0xE0 SHL DUP9 MSTORE PUSH1 0x21 PUSH1 0x4 MSTORE PUSH1 0x24 DUP9 REVERT JUMPDEST PUSH2 0x857 SWAP2 POP DUP6 RETURNDATASIZE DUP8 GT PUSH2 0x81A JUMPI PUSH2 0x80C DUP2 DUP4 PUSH2 0x4D05 JUMP JUMPDEST CODESIZE PUSH2 0x412 JUMP JUMPDEST POP CALLVALUE PUSH2 0x280 JUMPI PUSH1 0x20 CALLDATASIZE PUSH1 0x3 NOT ADD SLT PUSH2 0x280 JUMPI PUSH2 0x877 PUSH2 0x4A6D JUMP JUMPDEST PUSH2 0x87F PUSH2 0x4E70 JUMP JUMPDEST PUSH1 0x1 PUSH1 0x1 PUSH1 0xA0 SHL SUB SWAP1 DUP2 AND SWAP1 DUP2 ISZERO PUSH2 0x8BA JUMPI PUSH1 0x0 SLOAD DUP3 PUSH1 0x1 DUP1 PUSH1 0xA0 SHL SUB NOT DUP3 AND OR PUSH1 0x0 SSTORE AND PUSH1 0x0 DUP1 MLOAD PUSH1 0x20 PUSH2 0x5D86 DUP4 CODECOPY DUP2 MLOAD SWAP2 MSTORE PUSH1 0x0 DUP1 LOG3 DUP1 RETURN JUMPDEST PUSH1 0x40 MLOAD PUSH4 0x1E4FBDF7 PUSH1 0xE0 SHL DUP2 MSTORE PUSH1 0x4 DUP2 ADD DUP5 SWAP1 MSTORE PUSH1 0x24 SWAP1 REVERT JUMPDEST POP PUSH2 0x8DD CALLDATASIZE PUSH2 0x4D7A JUMP JUMPDEST PUSH1 0x8 SLOAD PUSH1 0x40 MLOAD PUSH4 0x2B5BA3B9 PUSH1 0xE0 SHL DUP2 MSTORE CALLER PUSH1 0x4 DUP3 ADD MSTORE PUSH1 0x20 SWAP5 SWAP4 SWAP2 PUSH1 0x24 SWAP2 PUSH1 0x1 PUSH1 0x1 PUSH1 0xA0 SHL SUB SWAP2 DUP3 AND SWAP1 DUP8 DUP2 DUP6 DUP2 DUP6 GAS STATICCALL SWAP1 DUP2 ISZERO PUSH2 0x7E9 JUMPI SWAP2 PUSH2 0x92B DUP10 SWAP3 DUP7 SWAP5 DUP11 SWAP2 PUSH2 0xCC1 JUMPI JUMPDEST POP ISZERO PUSH2 0x4EB4 JUMP JUMPDEST PUSH1 0x40 MLOAD SWAP3 DUP4 DUP1 SWAP3 PUSH4 0x4D9B4235 PUSH1 0xE1 SHL DUP3 MSTORE DUP9 PUSH1 0x4 DUP4 ADD MSTORE GAS STATICCALL SWAP1 DUP2 ISZERO PUSH2 0xCB6 JUMPI SWAP1 PUSH2 0x95D SWAP2 DUP8 SWAP2 PUSH2 0xC9F JUMPI POP ISZERO PUSH2 0x51AB JUMP JUMPDEST DUP3 DUP6 MSTORE PUSH1 0x1 DUP7 MSTORE PUSH1 0x40 DUP6 KECCAK256 PUSH1 0xFF PUSH1 0xC DUP3 ADD SLOAD AND PUSH1 0x5 DUP2 LT ISZERO PUSH2 0xC8C JUMPI PUSH2 0x983 SWAP1 ISZERO PUSH2 0x51EC JUMP JUMPDEST PUSH1 0x9 DUP2 ADD SLOAD TIMESTAMP LT ISZERO PUSH2 0xC4D JUMPI PUSH1 0x4 SWAP1 PUSH2 0x99D DUP7 ISZERO ISZERO PUSH2 0x5331 JUMP JUMPDEST ADD SWAP6 DUP2 DUP8 SLOAD AND DUP1 ISZERO PUSH1 0x0 EQ PUSH2 0xBD7 JUMPI POP DUP5 CALLVALUE SUB PUSH2 0xB99 JUMPI PUSH2 0x9BF CALLVALUE ISZERO ISZERO PUSH2 0x5331 JUMP JUMPDEST DUP6 DUP1 DUP1 DUP1 CALLVALUE DUP7 PUSH1 0x7 SLOAD AND GAS CALL PUSH2 0x9D3 PUSH2 0x4FEA JUMP JUMPDEST POP ISZERO PUSH2 0xB4A JUMPI DUP6 SWAP7 JUMPDEST DUP5 DUP8 MSTORE PUSH1 0x3 DUP3 MSTORE PUSH1 0x40 DUP8 KECCAK256 CALLER PUSH1 0x0 MSTORE DUP3 MSTORE PUSH1 0xFF PUSH1 0x40 PUSH1 0x0 KECCAK256 SLOAD AND ISZERO PUSH2 0xB31 JUMPI JUMPDEST DUP5 DUP8 MSTORE PUSH1 0x3 DUP3 MSTORE PUSH1 0x40 DUP8 KECCAK256 CALLER PUSH1 0x0 MSTORE DUP3 MSTORE PUSH1 0x40 PUSH1 0x0 KECCAK256 PUSH1 0x1 PUSH1 0xFF NOT DUP3 SLOAD AND OR SWAP1 SSTORE DUP3 DUP1 PUSH1 0x7 SLOAD AND SWAP2 SLOAD AND SWAP1 DUP1 EXTCODESIZE ISZERO PUSH2 0xB2D JUMPI DUP7 DUP9 SWAP2 PUSH2 0xA55 SWAP4 DUP4 PUSH1 0x40 MLOAD DUP1 SWAP7 DUP2 SWAP6 DUP3 SWAP5 PUSH4 0xC15D9807 PUSH1 0xE0 SHL DUP5 MSTORE DUP14 CALLER SWAP1 PUSH1 0x4 DUP7 ADD PUSH2 0x538F JUMP JUMPDEST SUB SWAP3 GAS CALL SWAP1 DUP2 ISZERO PUSH2 0x7E9 JUMPI DUP8 SWAP2 PUSH2 0xB15 JUMPI JUMPDEST POP POP PUSH1 0x4 DUP2 DUP4 PUSH1 0x8 SLOAD AND PUSH1 0x40 MLOAD SWAP3 DUP4 DUP1 SWAP3 PUSH4 0x406AD645 PUSH1 0xE1 SHL DUP3 MSTORE GAS STATICCALL SWAP2 DUP3 ISZERO PUSH2 0x7E9 JUMPI DUP8 SWAP3 PUSH2 0xAF8 JUMPI JUMPDEST POP POP AND DUP1 PUSH2 0xA9E JUMPI DUP5 DUP1 RETURN JUMPDEST DUP1 EXTCODESIZE ISZERO PUSH2 0xAF4 JUMPI DUP5 SWAP3 DUP4 PUSH1 0x64 SWAP3 PUSH1 0x40 MLOAD SWAP7 DUP8 SWAP6 DUP7 SWAP5 PUSH4 0x8F46A5A1 PUSH1 0xE0 SHL DUP7 MSTORE PUSH1 0x4 DUP7 ADD MSTORE CALLER SWAP1 DUP6 ADD MSTORE PUSH1 0x44 DUP5 ADD MSTORE GAS CALL DUP1 ISZERO PUSH2 0x607 JUMPI PUSH2 0xAE0 JUMPI JUMPDEST DUP1 DUP1 DUP1 DUP5 DUP1 RETURN JUMPDEST PUSH2 0xAE9 SWAP1 PUSH2 0x4CBB JUMP JUMPDEST PUSH2 0x280 JUMPI DUP1 CODESIZE PUSH2 0xAD9 JUMP JUMPDEST DUP5 DUP1 REVERT JUMPDEST PUSH2 0xB0E SWAP3 POP DUP1 RETURNDATASIZE LT PUSH2 0x638 JUMPI PUSH2 0x62A DUP2 DUP4 PUSH2 0x4D05 JUMP JUMPDEST CODESIZE DUP1 PUSH2 0xA92 JUMP JUMPDEST PUSH2 0xB1E SWAP1 PUSH2 0x4CBB JUMP JUMPDEST PUSH2 0xB29 JUMPI DUP6 CODESIZE PUSH2 0xA67 JUMP JUMPDEST DUP6 DUP1 REVERT JUMPDEST DUP8 DUP1 REVERT JUMPDEST DUP5 DUP8 MSTORE PUSH1 0x6 DUP3 MSTORE PUSH2 0xB45 CALLER PUSH1 0x40 DUP10 KECCAK256 PUSH2 0x52F6 JUMP JUMPDEST PUSH2 0x9FC JUMP JUMPDEST PUSH1 0x84 SWAP1 PUSH1 0x23 DUP5 PUSH1 0x40 MLOAD SWAP3 PUSH3 0x461BCD PUSH1 0xE5 SHL DUP5 MSTORE PUSH1 0x4 DUP5 ADD MSTORE DUP3 ADD MSTORE PUSH32 0x45503A20455448207472616E7366657220746F20747265617375727920666169 PUSH1 0x44 DUP3 ADD MSTORE PUSH3 0x1B1959 PUSH1 0xEA SHL PUSH1 0x64 DUP3 ADD MSTORE REVERT JUMPDEST PUSH1 0x64 SWAP1 PUSH1 0x18 DUP5 PUSH1 0x40 MLOAD SWAP3 PUSH3 0x461BCD PUSH1 0xE5 SHL DUP5 MSTORE PUSH1 0x4 DUP5 ADD MSTORE DUP3 ADD MSTORE PUSH24 0x11540E88125B98DBDC9C9958DD0811551208185B5BDD5B9D PUSH1 0x42 SHL PUSH1 0x44 DUP3 ADD MSTORE REVERT JUMPDEST SWAP7 CALLVALUE PUSH2 0xBF5 JUMPI PUSH2 0xBF0 DUP7 DUP9 SWAP10 DUP6 PUSH1 0x7 SLOAD AND SWAP1 CALLER SWAP1 PUSH2 0x5113 JUMP JUMPDEST PUSH2 0x9DC JUMP JUMPDEST PUSH1 0x40 MLOAD PUSH3 0x461BCD PUSH1 0xE5 SHL DUP2 MSTORE PUSH1 0x4 DUP2 ADD DUP4 SWAP1 MSTORE PUSH1 0x2B DUP2 DUP7 ADD MSTORE PUSH32 0x45503A204E6F204554482073686F756C642062652073656E7420666F7220746F PUSH1 0x44 DUP3 ADD MSTORE PUSH11 0x1AD95B881CDD5C1C1BDC9D PUSH1 0xAA SHL PUSH1 0x64 DUP3 ADD MSTORE PUSH1 0x84 SWAP1 REVERT JUMPDEST PUSH1 0x40 MLOAD PUSH3 0x461BCD PUSH1 0xE5 SHL DUP2 MSTORE PUSH1 0x4 DUP2 ADD DUP9 SWAP1 MSTORE PUSH1 0x18 DUP2 DUP6 ADD MSTORE PUSH24 0x11540E8814DD5C1C1BDC9D081C195C9A5BD908195B991959 PUSH1 0x42 SHL PUSH1 0x44 DUP3 ADD MSTORE PUSH1 0x64 SWAP1 REVERT JUMPDEST PUSH4 0x4E487B71 PUSH1 0xE0 SHL DUP8 MSTORE PUSH1 0x21 PUSH1 0x4 MSTORE DUP4 DUP8 REVERT JUMPDEST PUSH2 0x857 SWAP2 POP DUP9 RETURNDATASIZE DUP11 GT PUSH2 0x81A JUMPI PUSH2 0x80C DUP2 DUP4 PUSH2 0x4D05 JUMP JUMPDEST PUSH1 0x40 MLOAD RETURNDATASIZE DUP9 DUP3 RETURNDATACOPY RETURNDATASIZE SWAP1 REVERT JUMPDEST PUSH2 0xCD8 SWAP2 POP DUP5 RETURNDATASIZE DUP7 GT PUSH2 0x81A JUMPI PUSH2 0x80C DUP2 DUP4 PUSH2 0x4D05 JUMP JUMPDEST CODESIZE PUSH2 0x924 JUMP JUMPDEST POP CALLVALUE PUSH2 0x280 JUMPI PUSH1 0x60 CALLDATASIZE PUSH1 0x3 NOT ADD SLT PUSH2 0x280 JUMPI PUSH1 0x4 CALLDATALOAD PUSH1 0x24 CALLDATALOAD SWAP1 PUSH1 0x44 CALLDATALOAD PUSH1 0x1 DUP1 PUSH1 0xA0 SHL SUB DUP1 PUSH1 0x8 SLOAD AND SWAP1 PUSH1 0x40 MLOAD SWAP2 PUSH4 0x4D9B4235 PUSH1 0xE1 SHL DUP4 MSTORE DUP5 PUSH1 0x4 DUP5 ADD MSTORE PUSH1 0x20 SWAP3 DUP4 DUP2 PUSH1 0x24 DUP2 DUP6 GAS STATICCALL DUP1 ISZERO PUSH2 0x821 JUMPI PUSH2 0xD3D SWAP2 DUP10 SWAP2 PUSH2 0x840 JUMPI POP ISZERO PUSH2 0x51AB JUMP JUMPDEST DUP5 DUP8 MSTORE PUSH1 0x1 DUP4 MSTORE PUSH1 0x40 DUP8 KECCAK256 SWAP1 PUSH1 0xFF PUSH1 0xC DUP4 ADD SLOAD AND PUSH1 0x5 DUP2 LT ISZERO PUSH2 0x109C JUMPI PUSH2 0xD64 SWAP1 ISZERO PUSH2 0x51EC JUMP JUMPDEST PUSH1 0x40 MLOAD PUSH4 0x111A7989 PUSH1 0xE3 SHL DUP2 MSTORE DUP5 DUP2 PUSH1 0x4 DUP2 DUP6 GAS STATICCALL DUP1 ISZERO PUSH2 0x1091 JUMPI DUP6 SWAP2 DUP11 SWAP2 PUSH2 0x1074 JUMPI JUMPDEST POP PUSH2 0xFE1 JUMPI JUMPDEST POP POP DUP6 ISZERO ISZERO DUP1 PUSH2 0xFD3 JUMPI JUMPDEST PUSH2 0xDA2 SWAP1 PUSH2 0x527D JUMP JUMPDEST PUSH1 0x4 DUP2 ADD SWAP1 DUP3 DUP3 SLOAD AND SWAP1 DUP2 ISZERO PUSH2 0xF7E JUMPI DUP6 DUP10 SWAP5 SWAP4 SWAP3 PUSH2 0xDCA PUSH1 0x5 PUSH2 0xDD7 SWAP5 ADD SLOAD DUP4 LT ISZERO PUSH2 0x52BA JUMP JUMPDEST DUP5 PUSH1 0x7 SLOAD AND SWAP1 CALLER SWAP1 PUSH2 0x5113 JUMP JUMPDEST DUP6 DUP4 MSTORE PUSH1 0x2 DUP5 MSTORE PUSH1 0x40 DUP4 KECCAK256 CALLER PUSH1 0x0 MSTORE DUP5 MSTORE PUSH1 0xFF PUSH1 0x40 PUSH1 0x0 KECCAK256 SLOAD AND ISZERO PUSH2 0xF51 JUMPI JUMPDEST DUP6 DUP4 MSTORE PUSH1 0x2 DUP5 MSTORE PUSH1 0x40 DUP4 KECCAK256 CALLER PUSH1 0x0 MSTORE DUP5 MSTORE PUSH1 0x40 PUSH1 0x0 KECCAK256 PUSH1 0x1 PUSH1 0xFF NOT DUP3 SLOAD AND OR SWAP1 SSTORE DUP6 DUP4 MSTORE PUSH1 0x4 DUP5 MSTORE PUSH1 0x40 DUP4 KECCAK256 CALLER PUSH1 0x0 MSTORE DUP5 MSTORE DUP7 PUSH1 0x40 PUSH1 0x0 KECCAK256 SSTORE DUP2 DUP1 PUSH1 0x7 SLOAD AND SWAP2 SLOAD AND SWAP1 DUP1 EXTCODESIZE ISZERO PUSH2 0x603 JUMPI DUP6 DUP5 SWAP2 DUP10 SWAP4 DUP4 DUP11 PUSH2 0xE6A PUSH1 0x40 MLOAD SWAP8 DUP9 SWAP7 DUP8 SWAP6 DUP7 SWAP5 PUSH4 0x95F41095 PUSH1 0xE0 SHL DUP7 MSTORE CALLER SWAP1 PUSH1 0x4 DUP8 ADD PUSH2 0x5065 JUMP JUMPDEST SUB SWAP3 GAS CALL SWAP1 DUP2 ISZERO PUSH2 0x63F JUMPI DUP4 SWAP2 PUSH2 0xF3D JUMPI JUMPDEST POP POP PUSH1 0x4 DUP4 DUP3 PUSH1 0x8 SLOAD AND PUSH1 0x40 MLOAD SWAP3 DUP4 DUP1 SWAP3 PUSH4 0x406AD645 PUSH1 0xE1 SHL DUP3 MSTORE GAS STATICCALL SWAP1 DUP2 ISZERO PUSH2 0x63F JUMPI DUP4 SWAP2 PUSH2 0xF20 JUMPI JUMPDEST POP AND DUP1 PUSH2 0xED1 JUMPI JUMPDEST POP POP PUSH1 0x40 MLOAD SWAP4 DUP5 MSTORE DUP4 ADD MSTORE PUSH1 0x0 DUP1 MLOAD PUSH1 0x20 PUSH2 0x5DC6 DUP4 CODECOPY DUP2 MLOAD SWAP2 MSTORE PUSH1 0x40 CALLER SWAP4 LOG3 DUP1 RETURN JUMPDEST DUP1 EXTCODESIZE ISZERO PUSH2 0x3C1 JUMPI PUSH1 0x40 MLOAD PUSH4 0xC228038D PUSH1 0xE0 SHL DUP2 MSTORE SWAP1 DUP3 SWAP1 DUP3 SWAP1 DUP2 DUP4 DUP2 PUSH2 0xEFD DUP11 DUP14 CALLER DUP15 PUSH1 0x4 DUP7 ADD PUSH2 0x50CD JUMP JUMPDEST SUB SWAP3 GAS CALL DUP1 ISZERO PUSH2 0x607 JUMPI ISZERO PUSH2 0xEAF JUMPI PUSH2 0xF15 SWAP1 PUSH2 0x4CBB JUMP JUMPDEST PUSH2 0xAF4 JUMPI DUP5 CODESIZE PUSH2 0xEAF JUMP JUMPDEST PUSH2 0xF37 SWAP2 POP DUP5 RETURNDATASIZE DUP7 GT PUSH2 0x638 JUMPI PUSH2 0x62A DUP2 DUP4 PUSH2 0x4D05 JUMP JUMPDEST CODESIZE PUSH2 0xEA7 JUMP JUMPDEST PUSH2 0xF46 SWAP1 PUSH2 0x4CBB JUMP JUMPDEST PUSH2 0x3C1 JUMPI DUP2 CODESIZE PUSH2 0xE7C JUMP JUMPDEST DUP6 DUP4 MSTORE PUSH1 0x5 DUP5 MSTORE PUSH2 0xF65 CALLER PUSH1 0x40 DUP6 KECCAK256 PUSH2 0x52F6 JUMP JUMPDEST CALLER DUP4 MSTORE PUSH1 0xC DUP5 MSTORE PUSH2 0xF79 DUP7 PUSH1 0x40 DUP6 KECCAK256 PUSH2 0x4FC4 JUMP JUMPDEST PUSH2 0xDF7 JUMP JUMPDEST PUSH1 0x40 MLOAD PUSH3 0x461BCD PUSH1 0xE5 SHL DUP2 MSTORE PUSH1 0x4 DUP2 ADD DUP7 SWAP1 MSTORE PUSH1 0x27 PUSH1 0x24 DUP3 ADD MSTORE PUSH32 0x45503A2054686973206D61726B6574207573657320504550552C207573652070 PUSH1 0x44 DUP3 ADD MSTORE PUSH7 0x1B1858D950995D PUSH1 0xCA SHL PUSH1 0x64 DUP3 ADD MSTORE PUSH1 0x84 SWAP1 REVERT JUMPDEST POP PUSH1 0x3 DUP2 ADD SLOAD DUP7 GT ISZERO PUSH2 0xD99 JUMP JUMPDEST PUSH1 0x40 MLOAD PUSH4 0x2EAA712B PUSH1 0xE2 SHL DUP2 MSTORE SWAP2 DUP3 SWAP1 PUSH1 0x4 SWAP1 DUP3 SWAP1 GAS STATICCALL SWAP1 DUP2 ISZERO PUSH2 0x821 JUMPI DUP9 SWAP2 PUSH2 0x1047 JUMPI JUMPDEST POP PUSH1 0x9 DUP3 ADD SLOAD PUSH1 0x3C DUP3 MUL SWAP2 DUP1 DUP4 DIV PUSH1 0x3C EQ SWAP1 ISZERO OR ISZERO PUSH2 0x1033 JUMPI PUSH2 0x102C SWAP2 PUSH2 0x795 SWAP2 PUSH2 0x5229 JUMP JUMPDEST CODESIZE DUP4 PUSH2 0xD8E JUMP JUMPDEST PUSH4 0x4E487B71 PUSH1 0xE0 SHL DUP10 MSTORE PUSH1 0x11 PUSH1 0x4 MSTORE PUSH1 0x24 DUP10 REVERT JUMPDEST SWAP1 POP DUP4 DUP2 DUP2 RETURNDATASIZE DUP4 GT PUSH2 0x106D JUMPI JUMPDEST PUSH2 0x105E DUP2 DUP4 PUSH2 0x4D05 JUMP JUMPDEST DUP2 ADD SUB SLT PUSH2 0x7DD JUMPI MLOAD CODESIZE PUSH2 0x1006 JUMP JUMPDEST POP RETURNDATASIZE PUSH2 0x1054 JUMP JUMPDEST PUSH2 0x108B SWAP2 POP DUP3 RETURNDATASIZE DUP5 GT PUSH2 0x81A JUMPI PUSH2 0x80C DUP2 DUP4 PUSH2 0x4D05 JUMP JUMPDEST CODESIZE PUSH2 0xD88 JUMP JUMPDEST PUSH1 0x40 MLOAD RETURNDATASIZE DUP12 DUP3 RETURNDATACOPY RETURNDATASIZE SWAP1 REVERT JUMPDEST PUSH4 0x4E487B71 PUSH1 0xE0 SHL DUP10 MSTORE PUSH1 0x21 PUSH1 0x4 MSTORE PUSH1 0x24 DUP10 REVERT JUMPDEST POP CALLVALUE PUSH2 0x280 JUMPI PUSH1 0x40 CALLDATASIZE PUSH1 0x3 NOT ADD SLT PUSH2 0x280 JUMPI PUSH2 0x10CA PUSH2 0x4A57 JUMP JUMPDEST SWAP1 PUSH1 0x4 CALLDATALOAD DUP2 MSTORE PUSH1 0x1 PUSH1 0x20 MSTORE PUSH1 0x40 DUP2 KECCAK256 PUSH1 0xFF PUSH1 0xC DUP3 ADD SLOAD AND PUSH1 0x5 DUP2 LT ISZERO PUSH2 0x14E3 JUMPI PUSH1 0x2 PUSH2 0x10F6 SWAP2 EQ PUSH2 0x5575 JUMP JUMPDEST PUSH1 0xD DUP2 ADD SLOAD PUSH2 0x1106 DUP2 ISZERO ISZERO PUSH2 0x55B4 JUMP JUMPDEST PUSH1 0x4 CALLDATALOAD DUP4 MSTORE PUSH1 0x2 PUSH1 0x20 MSTORE PUSH1 0x40 DUP4 KECCAK256 SWAP4 PUSH1 0x1 DUP1 PUSH1 0xA0 SHL SUB SWAP5 DUP6 DUP3 AND PUSH1 0x0 MSTORE PUSH1 0x20 MSTORE PUSH1 0xFF PUSH1 0x40 PUSH1 0x0 KECCAK256 SLOAD AND ISZERO PUSH2 0x14A8 JUMPI DUP5 PUSH1 0x7 SLOAD AND PUSH1 0x40 MLOAD PUSH4 0x7C7A72D PUSH1 0xE0 SHL DUP2 MSTORE PUSH1 0x20 DUP2 DUP1 PUSH2 0x115A DUP7 PUSH1 0x4 CALLDATALOAD PUSH1 0x4 DUP5 ADD PUSH2 0x50B4 JUMP JUMPDEST SUB DUP2 DUP6 GAS STATICCALL SWAP1 DUP2 ISZERO PUSH2 0xCB6 JUMPI DUP7 SWAP2 PUSH2 0x1489 JUMPI JUMPDEST POP PUSH2 0x144E JUMPI DUP6 PUSH1 0x4 DUP6 ADD SLOAD AND SWAP4 PUSH1 0x40 MLOAD SWAP5 PUSH4 0x423E7BC1 PUSH1 0xE1 SHL DUP7 MSTORE PUSH1 0x20 DUP7 DUP1 PUSH2 0x119D DUP5 DUP9 PUSH1 0x4 CALLDATALOAD PUSH1 0x4 DUP6 ADD PUSH2 0x5400 JUMP JUMPDEST SUB DUP2 DUP7 GAS STATICCALL SWAP6 DUP7 ISZERO PUSH2 0x7E9 JUMPI DUP8 SWAP7 PUSH2 0x141A JUMPI JUMPDEST POP PUSH1 0x40 MLOAD PUSH4 0xDC4CE349 PUSH1 0xE0 SHL DUP2 MSTORE SWAP3 PUSH1 0x20 DUP5 DUP1 PUSH2 0x11D4 DUP6 DUP11 PUSH1 0x4 DUP1 CALLDATALOAD SWAP1 DUP6 ADD PUSH2 0x55F0 JUMP JUMPDEST SUB DUP2 DUP5 GAS STATICCALL SWAP4 DUP5 ISZERO PUSH2 0x821 JUMPI DUP9 SWAP5 PUSH2 0x13E6 JUMPI JUMPDEST POP DUP8 SWAP3 PUSH1 0x3 PUSH1 0x1 SWAP2 ADD SLOAD SWAP1 JUMPDEST DUP2 DUP2 GT ISZERO PUSH2 0x1345 JUMPI POP POP PUSH2 0x1223 SWAP3 SWAP2 PUSH1 0x20 SWAP2 PUSH1 0x40 MLOAD DUP1 DUP1 SWAP7 DUP2 SWAP5 PUSH4 0x4F44289D PUSH1 0xE0 SHL DUP4 MSTORE PUSH1 0x4 CALLDATALOAD PUSH1 0x4 DUP5 ADD PUSH2 0x50B4 JUMP JUMPDEST SUB SWAP2 GAS STATICCALL SWAP1 DUP2 ISZERO PUSH2 0x7E9 JUMPI DUP8 SWAP2 PUSH2 0x130F JUMPI JUMPDEST PUSH2 0x123F SWAP3 POP PUSH2 0x4F68 JUMP JUMPDEST DUP2 PUSH2 0x1256 JUMPI POP POP POP POP POP PUSH1 0x20 SWAP2 POP JUMPDEST PUSH1 0x40 MLOAD SWAP1 DUP2 MSTORE RETURN JUMPDEST SWAP4 SWAP5 SWAP4 DUP1 PUSH2 0x1293 JUMPI POP POP PUSH1 0x20 SWAP5 PUSH1 0x4 CALLDATALOAD DUP5 MSTORE PUSH1 0x4 DUP7 MSTORE PUSH1 0x40 DUP5 KECCAK256 SWAP2 AND PUSH1 0x0 MSTORE DUP5 MSTORE PUSH1 0x40 PUSH1 0x0 KECCAK256 SLOAD EQ PUSH1 0x0 EQ PUSH2 0x128C JUMPI POP JUMPDEST PUSH2 0x124E JUMP JUMPDEST SWAP1 POP PUSH2 0x124E JUMP JUMPDEST SWAP4 SWAP3 SWAP2 SWAP1 SWAP5 SWAP6 PUSH1 0x4 CALLDATALOAD DUP5 MSTORE PUSH1 0x4 PUSH1 0x20 MSTORE PUSH1 0x40 DUP5 KECCAK256 SWAP2 AND PUSH1 0x0 MSTORE PUSH1 0x20 MSTORE PUSH1 0x40 PUSH1 0x0 KECCAK256 SLOAD EQ PUSH1 0x0 EQ PUSH2 0x1303 JUMPI PUSH2 0x2328 DUP1 DUP4 MUL SWAP3 DUP4 DIV SUB PUSH2 0x12EF JUMPI POP SWAP2 PUSH2 0x12E9 PUSH2 0x1287 SWAP3 PUSH2 0x12E4 PUSH2 0x2710 PUSH1 0x20 SWAP7 DIV DUP5 PUSH2 0x4F3F JUMP JUMPDEST PUSH2 0x5611 JUMP JUMPDEST SWAP1 PUSH2 0x4F68 JUMP JUMPDEST PUSH4 0x4E487B71 PUSH1 0xE0 SHL DUP2 MSTORE PUSH1 0x11 PUSH1 0x4 MSTORE PUSH1 0x24 SWAP1 REVERT JUMPDEST SWAP2 POP POP PUSH1 0x20 SWAP2 POP PUSH2 0x124E JUMP JUMPDEST SWAP1 POP PUSH1 0x20 DUP3 RETURNDATASIZE PUSH1 0x20 GT PUSH2 0x133D JUMPI JUMPDEST DUP2 PUSH2 0x132A PUSH1 0x20 SWAP4 DUP4 PUSH2 0x4D05 JUMP JUMPDEST DUP2 ADD SUB SLT PUSH2 0x7DD JUMPI PUSH2 0x123F SWAP2 MLOAD SWAP1 PUSH2 0x1235 JUMP JUMPDEST RETURNDATASIZE SWAP2 POP PUSH2 0x131D JUMP JUMPDEST DUP8 DUP2 SUB PUSH2 0x135B JUMPI JUMPDEST PUSH2 0x1356 SWAP1 PUSH2 0x4F75 JUMP JUMPDEST PUSH2 0x11F3 JUMP JUMPDEST SWAP4 PUSH1 0x40 MLOAD PUSH4 0xDC4CE349 PUSH1 0xE0 SHL DUP2 MSTORE PUSH1 0x20 DUP2 DUP1 PUSH2 0x137E DUP9 DUP11 PUSH1 0x4 CALLDATALOAD PUSH1 0x4 DUP6 ADD PUSH2 0x55F0 JUMP JUMPDEST SUB DUP2 DUP8 GAS STATICCALL SWAP1 DUP2 ISZERO PUSH2 0x13DB JUMPI DUP12 SWAP2 PUSH2 0x13A7 JUMPI JUMPDEST POP PUSH2 0x139F SWAP1 PUSH2 0x1356 SWAP3 PUSH2 0x4F68 JUMP JUMPDEST SWAP5 SWAP1 POP PUSH2 0x134D JUMP JUMPDEST SWAP1 POP PUSH1 0x20 DUP2 RETURNDATASIZE PUSH1 0x20 GT PUSH2 0x13D3 JUMPI JUMPDEST DUP2 PUSH2 0x13C2 PUSH1 0x20 SWAP4 DUP4 PUSH2 0x4D05 JUMP JUMPDEST DUP2 ADD SUB SLT PUSH2 0x7DD JUMPI MLOAD PUSH2 0x1356 PUSH2 0x1391 JUMP JUMPDEST RETURNDATASIZE SWAP2 POP PUSH2 0x13B5 JUMP JUMPDEST PUSH1 0x40 MLOAD RETURNDATASIZE DUP14 DUP3 RETURNDATACOPY RETURNDATASIZE SWAP1 REVERT JUMPDEST SWAP1 SWAP4 POP PUSH1 0x20 DUP2 RETURNDATASIZE PUSH1 0x20 GT PUSH2 0x1412 JUMPI JUMPDEST DUP2 PUSH2 0x1402 PUSH1 0x20 SWAP4 DUP4 PUSH2 0x4D05 JUMP JUMPDEST DUP2 ADD SUB SLT PUSH2 0x7DD JUMPI MLOAD SWAP3 CODESIZE PUSH2 0x11E7 JUMP JUMPDEST RETURNDATASIZE SWAP2 POP PUSH2 0x13F5 JUMP JUMPDEST SWAP1 SWAP6 POP PUSH1 0x20 DUP2 RETURNDATASIZE PUSH1 0x20 GT PUSH2 0x1446 JUMPI JUMPDEST DUP2 PUSH2 0x1436 PUSH1 0x20 SWAP4 DUP4 PUSH2 0x4D05 JUMP JUMPDEST DUP2 ADD SUB SLT PUSH2 0x7DD JUMPI MLOAD SWAP5 CODESIZE PUSH2 0x11B0 JUMP JUMPDEST RETURNDATASIZE SWAP2 POP PUSH2 0x1429 JUMP JUMPDEST PUSH1 0x40 MLOAD PUSH3 0x461BCD PUSH1 0xE5 SHL DUP2 MSTORE PUSH1 0x20 PUSH1 0x4 DUP3 ADD MSTORE PUSH1 0x13 PUSH1 0x24 DUP3 ADD MSTORE PUSH19 0x11540E88105B1C9958591E4818DB185A5B5959 PUSH1 0x6A SHL PUSH1 0x44 DUP3 ADD MSTORE PUSH1 0x64 SWAP1 REVERT JUMPDEST PUSH2 0x14A2 SWAP2 POP PUSH1 0x20 RETURNDATASIZE PUSH1 0x20 GT PUSH2 0x81A JUMPI PUSH2 0x80C DUP2 DUP4 PUSH2 0x4D05 JUMP JUMPDEST CODESIZE PUSH2 0x116D JUMP JUMPDEST PUSH1 0x40 MLOAD PUSH3 0x461BCD PUSH1 0xE5 SHL DUP2 MSTORE PUSH1 0x20 PUSH1 0x4 DUP3 ADD MSTORE PUSH1 0x13 PUSH1 0x24 DUP3 ADD MSTORE PUSH19 0x11540E88139BC81CDD185AD9481C1B1858D959 PUSH1 0x6A SHL PUSH1 0x44 DUP3 ADD MSTORE PUSH1 0x64 SWAP1 REVERT JUMPDEST PUSH4 0x4E487B71 PUSH1 0xE0 SHL DUP4 MSTORE PUSH1 0x21 PUSH1 0x4 MSTORE PUSH1 0x24 DUP4 REVERT JUMPDEST POP CALLVALUE PUSH2 0x280 JUMPI PUSH1 0x40 CALLDATASIZE PUSH1 0x3 NOT ADD SLT PUSH2 0x280 JUMPI PUSH2 0x1540 SWAP1 PUSH1 0x20 PUSH2 0x1517 PUSH2 0x4A57 JUMP JUMPDEST PUSH1 0x1 DUP1 PUSH1 0xA0 SHL SUB PUSH1 0x7 SLOAD AND PUSH1 0x40 MLOAD DUP1 DUP1 SWAP7 DUP2 SWAP5 PUSH4 0x3D1E7BA1 PUSH1 0xE1 SHL DUP4 MSTORE PUSH1 0x4 CALLDATALOAD PUSH1 0x4 DUP5 ADD PUSH2 0x50B4 JUMP JUMPDEST SUB SWAP2 GAS STATICCALL SWAP1 DUP2 ISZERO PUSH2 0x158E JUMPI SWAP1 PUSH2 0x155C JUMPI JUMPDEST PUSH1 0x20 SWAP1 PUSH1 0x40 MLOAD SWAP1 DUP2 MSTORE RETURN JUMPDEST POP PUSH1 0x20 DUP2 RETURNDATASIZE DUP3 GT PUSH2 0x1586 JUMPI JUMPDEST DUP2 PUSH2 0x1575 PUSH1 0x20 SWAP4 DUP4 PUSH2 0x4D05 JUMP JUMPDEST DUP2 ADD SUB SLT PUSH2 0x7DD JUMPI PUSH1 0x20 SWAP1 MLOAD PUSH2 0x1551 JUMP JUMPDEST RETURNDATASIZE SWAP2 POP PUSH2 0x1568 JUMP JUMPDEST PUSH1 0x40 MLOAD SWAP1 RETURNDATASIZE SWAP1 DUP3 RETURNDATACOPY RETURNDATASIZE SWAP1 REVERT JUMPDEST POP CALLVALUE PUSH2 0x280 JUMPI PUSH1 0x20 CALLDATASIZE PUSH1 0x3 NOT ADD SLT PUSH2 0x280 JUMPI PUSH1 0x40 PUSH2 0x16E6 SWAP2 PUSH2 0x15BA PUSH2 0x5CD2 JUMP JUMPDEST POP PUSH1 0x4 CALLDATALOAD DUP2 MSTORE PUSH1 0x1 PUSH1 0x20 MSTORE KECCAK256 PUSH1 0xFF PUSH1 0x11 PUSH1 0x40 MLOAD SWAP3 PUSH2 0x15D7 DUP5 PUSH2 0x4CCE JUMP JUMPDEST DUP1 SLOAD PUSH1 0x1 PUSH1 0x1 PUSH1 0xA0 SHL SUB SWAP1 DUP2 AND DUP6 MSTORE PUSH2 0x15F2 PUSH1 0x1 DUP4 ADD PUSH2 0x4DCA JUMP JUMPDEST PUSH1 0x20 DUP7 ADD MSTORE DUP4 PUSH1 0x2 DUP4 ADD SLOAD AND ISZERO ISZERO PUSH1 0x40 DUP7 ADD MSTORE PUSH1 0x3 DUP3 ADD SLOAD PUSH1 0x60 DUP7 ADD MSTORE DUP1 PUSH1 0x4 DUP4 ADD SLOAD AND PUSH1 0x80 DUP7 ADD MSTORE PUSH1 0x5 DUP3 ADD SLOAD PUSH1 0xA0 DUP7 ADD MSTORE PUSH1 0x6 DUP3 ADD SLOAD PUSH1 0xC0 DUP7 ADD MSTORE PUSH1 0x7 DUP3 ADD SLOAD PUSH1 0xE0 DUP7 ADD MSTORE PUSH1 0x8 DUP3 ADD SLOAD PUSH2 0x100 DUP7 ADD MSTORE PUSH1 0x9 DUP3 ADD SLOAD PUSH2 0x120 DUP7 ADD MSTORE PUSH1 0xA DUP3 ADD SLOAD PUSH2 0x140 DUP7 ADD MSTORE PUSH1 0xB DUP3 ADD SLOAD PUSH2 0x160 DUP7 ADD MSTORE PUSH2 0x1679 DUP5 PUSH1 0xC DUP5 ADD SLOAD AND PUSH2 0x180 DUP8 ADD PUSH2 0x4F84 JUMP JUMPDEST PUSH1 0xD DUP3 ADD SLOAD PUSH2 0x1A0 DUP7 ADD MSTORE PUSH1 0xE DUP3 ADD SLOAD DUP5 DUP2 AND ISZERO ISZERO PUSH2 0x1C0 DUP8 ADD MSTORE PUSH2 0x16A7 DUP6 DUP3 PUSH1 0x8 SHR AND PUSH2 0x1E0 DUP9 ADD PUSH2 0x4F90 JUMP JUMPDEST PUSH1 0x10 SHR AND PUSH2 0x200 DUP6 ADD MSTORE PUSH1 0xF DUP2 ADD SLOAD PUSH2 0x220 DUP6 ADD MSTORE PUSH1 0x10 DUP2 ADD SLOAD PUSH2 0x240 DUP6 ADD MSTORE ADD SLOAD AND ISZERO ISZERO PUSH2 0x260 DUP3 ADD MSTORE PUSH1 0x40 MLOAD SWAP2 DUP3 SWAP2 PUSH1 0x20 DUP4 MSTORE PUSH1 0x20 DUP4 ADD SWAP1 PUSH2 0x4B79 JUMP JUMPDEST SUB SWAP1 RETURN JUMPDEST POP CALLVALUE PUSH2 0x280 JUMPI PUSH1 0x20 DUP1 PUSH1 0x3 NOT CALLDATASIZE ADD SLT PUSH2 0x3C1 JUMPI PUSH1 0x4 CALLDATALOAD SWAP1 PUSH2 0x171A PUSH1 0x1 DUP1 PUSH1 0xA0 SHL SUB PUSH2 0x2B3 DUP2 PUSH1 0x8 SLOAD AND CALLER EQ PUSH2 0x5C19 JUMP JUMPDEST DUP2 DUP4 MSTORE PUSH1 0x1 DUP2 MSTORE PUSH1 0xFF PUSH1 0xC PUSH1 0x40 DUP6 KECCAK256 ADD SLOAD AND PUSH1 0x5 DUP2 LT ISZERO PUSH2 0x3AD JUMPI PUSH1 0x2 SUB PUSH2 0x1883 JUMPI PUSH1 0x80 PUSH1 0x0 DUP1 MLOAD PUSH1 0x20 PUSH2 0x5D66 DUP4 CODECOPY DUP2 MLOAD SWAP2 MSTORE SWAP2 DUP4 DUP6 MSTORE PUSH1 0x1 DUP2 MSTORE DUP5 PUSH1 0x11 PUSH1 0x40 DUP3 KECCAK256 DUP3 DUP2 SSTORE DUP3 PUSH1 0x1 DUP3 ADD PUSH2 0x176E DUP2 SLOAD PUSH2 0x4D90 JUMP JUMPDEST DUP1 PUSH2 0x1843 JUMPI JUMPDEST POP POP PUSH1 0x2 DUP3 ADD SSTORE PUSH1 0x0 PUSH1 0x3 DUP3 ADD SSTORE DUP3 PUSH1 0x4 DUP3 ADD SSTORE PUSH1 0x0 PUSH1 0x5 DUP3 ADD SSTORE PUSH1 0x0 PUSH1 0x6 DUP3 ADD SSTORE PUSH1 0x0 PUSH1 0x7 DUP3 ADD SSTORE PUSH1 0x0 PUSH1 0x8 DUP3 ADD SSTORE PUSH1 0x0 PUSH1 0x9 DUP3 ADD SSTORE PUSH1 0x0 PUSH1 0xA DUP3 ADD SSTORE PUSH1 0x0 PUSH1 0xB DUP3 ADD SSTORE DUP3 PUSH1 0xC DUP3 ADD SSTORE PUSH1 0x0 PUSH1 0xD DUP3 ADD SSTORE DUP3 PUSH1 0xE DUP3 ADD SSTORE PUSH1 0x0 PUSH1 0xF DUP3 ADD SSTORE PUSH1 0x0 PUSH1 0x10 DUP3 ADD SSTORE ADD SSTORE DUP4 DUP6 MSTORE PUSH1 0xB DUP2 MSTORE PUSH1 0xFF PUSH1 0x40 DUP7 KECCAK256 SLOAD AND PUSH2 0x1835 JUMPI JUMPDEST PUSH1 0x26 PUSH1 0x40 MLOAD SWAP2 DUP1 DUP4 MSTORE DUP3 ADD MSTORE PUSH32 0x5065726D616E656E746C792072656D6F76656420616674657220636C61696D20 PUSH1 0x40 DUP3 ADD MSTORE PUSH6 0x1C195C9A5BD9 PUSH1 0xD2 SHL PUSH1 0x60 DUP3 ADD MSTORE LOG2 DUP1 RETURN JUMPDEST PUSH2 0x183E DUP5 PUSH2 0x5B5E JUMP JUMPDEST PUSH2 0x17F0 JUMP JUMPDEST PUSH1 0x1F DUP2 GT PUSH1 0x1 EQ PUSH2 0x185D JUMPI POP PUSH1 0x0 SWAP2 POP SSTORE JUMPDEST DUP3 CODESIZE DUP1 PUSH2 0x1774 JUMP JUMPDEST SWAP1 DUP1 PUSH1 0x0 SWAP2 DUP5 MSTORE PUSH2 0x187C PUSH1 0x1F DUP10 DUP7 KECCAK256 SWAP5 ADD PUSH1 0x5 SHR DUP5 ADD PUSH1 0x1 DUP6 ADD PUSH2 0x4F9C JUMP JUMPDEST SSTORE SSTORE PUSH2 0x1855 JUMP JUMPDEST PUSH1 0x64 SWAP1 PUSH1 0x40 MLOAD SWAP1 PUSH3 0x461BCD PUSH1 0xE5 SHL DUP3 MSTORE PUSH1 0x4 DUP3 ADD MSTORE PUSH1 0x17 PUSH1 0x24 DUP3 ADD MSTORE PUSH23 0x11540E8813585C9AD95D081B9BDD081C995CDBDB1D9959 PUSH1 0x4A SHL PUSH1 0x44 DUP3 ADD MSTORE REVERT JUMPDEST POP CALLVALUE PUSH2 0x280 JUMPI PUSH1 0x60 CALLDATASIZE PUSH1 0x3 NOT ADD SLT PUSH2 0x280 JUMPI PUSH1 0x44 CALLDATALOAD SWAP1 PUSH1 0x1 PUSH1 0x1 PUSH1 0xA0 SHL SUB DUP1 DUP4 AND DUP4 SUB PUSH2 0x7DD JUMPI PUSH2 0x1540 SWAP3 PUSH1 0x20 SWAP2 PUSH1 0x7 SLOAD AND PUSH1 0x40 MLOAD DUP1 DUP1 SWAP7 DUP2 SWAP5 PUSH4 0xDC4CE349 PUSH1 0xE0 SHL DUP4 MSTORE PUSH1 0x24 CALLDATALOAD PUSH1 0x4 CALLDATALOAD PUSH1 0x4 DUP6 ADD PUSH2 0x55F0 JUMP JUMPDEST POP CALLVALUE PUSH2 0x280 JUMPI PUSH1 0x40 CALLDATASIZE PUSH1 0x3 NOT ADD SLT PUSH2 0x280 JUMPI PUSH1 0x40 PUSH2 0x1930 PUSH2 0x4A57 JUMP JUMPDEST SWAP2 PUSH1 0x4 CALLDATALOAD DUP2 MSTORE PUSH1 0x4 PUSH1 0x20 MSTORE KECCAK256 SWAP1 PUSH1 0x1 DUP1 PUSH1 0xA0 SHL SUB AND PUSH1 0x0 MSTORE PUSH1 0x20 MSTORE PUSH1 0x20 PUSH1 0x40 PUSH1 0x0 KECCAK256 SLOAD PUSH1 0x40 MLOAD SWAP1 DUP2 MSTORE RETURN JUMPDEST POP CALLVALUE PUSH2 0x280 JUMPI PUSH2 0x196A CALLDATASIZE PUSH2 0x4D7A JUMP JUMPDEST SWAP2 SWAP1 DUP2 MSTORE PUSH1 0x5 PUSH1 0x20 MSTORE PUSH1 0x40 DUP2 KECCAK256 SWAP1 DUP2 SLOAD DUP4 LT ISZERO PUSH2 0x280 JUMPI PUSH1 0x20 PUSH2 0x198D DUP5 DUP5 PUSH2 0x4AE9 JUMP JUMPDEST SWAP1 SLOAD PUSH1 0x40 MLOAD PUSH1 0x3 SWAP3 SWAP1 SWAP3 SHL SHR PUSH1 0x1 PUSH1 0x1 PUSH1 0xA0 SHL SUB AND DUP2 MSTORE RETURN JUMPDEST POP CALLVALUE PUSH2 0x280 JUMPI DUP1 PUSH1 0x3 NOT CALLDATASIZE ADD SLT PUSH2 0x280 JUMPI PUSH1 0x20 PUSH1 0x40 MLOAD PUSH2 0x15E DUP2 MSTORE RETURN JUMPDEST POP CALLVALUE PUSH2 0x280 JUMPI PUSH1 0x20 CALLDATASIZE PUSH1 0x3 NOT ADD SLT PUSH2 0x280 JUMPI PUSH1 0x4 CALLDATALOAD DUP1 DUP3 MSTORE PUSH1 0x1 PUSH1 0x20 MSTORE PUSH1 0x40 DUP3 KECCAK256 DUP1 SLOAD PUSH1 0x1 PUSH1 0x1 PUSH1 0xA0 SHL SUB AND CALLER SUB PUSH2 0x1AB1 JUMPI PUSH1 0xFF PUSH1 0xC DUP3 ADD SLOAD AND PUSH1 0x5 DUP2 LT ISZERO PUSH2 0x3AD JUMPI SWAP1 PUSH2 0x1A13 PUSH1 0x9 SWAP3 ISZERO PUSH2 0x51EC JUMP JUMPDEST ADD SLOAD PUSH2 0xA8BF NOT DUP2 ADD SWAP1 DUP2 GT PUSH2 0x1A9D JUMPI TIMESTAMP LT ISZERO PUSH2 0x1A5F JUMPI PUSH1 0x40 MLOAD PUSH2 0x1A5C SWAP2 PUSH2 0x1A39 DUP3 PUSH2 0x4CEA JUMP JUMPDEST PUSH1 0x11 DUP3 MSTORE PUSH17 0x10DC99585D1BDC8818D85B98D95B1B1959 PUSH1 0x7A SHL PUSH1 0x20 DUP4 ADD MSTORE PUSH2 0x5631 JUMP JUMPDEST DUP1 RETURN JUMPDEST PUSH1 0x40 MLOAD PUSH3 0x461BCD PUSH1 0xE5 SHL DUP2 MSTORE PUSH1 0x20 PUSH1 0x4 DUP3 ADD MSTORE PUSH1 0x16 PUSH1 0x24 DUP3 ADD MSTORE PUSH22 0x11540E88151BDBC81B185D19481D1BC818D85B98D95B PUSH1 0x52 SHL PUSH1 0x44 DUP3 ADD MSTORE PUSH1 0x64 SWAP1 REVERT JUMPDEST PUSH4 0x4E487B71 PUSH1 0xE0 SHL DUP4 MSTORE PUSH1 0x11 PUSH1 0x4 MSTORE PUSH1 0x24 DUP4 REVERT JUMPDEST PUSH1 0x40 MLOAD PUSH3 0x461BCD PUSH1 0xE5 SHL DUP2 MSTORE PUSH1 0x20 PUSH1 0x4 DUP3 ADD MSTORE PUSH1 0x1B PUSH1 0x24 DUP3 ADD MSTORE PUSH27 0x11540E8813DB9B1E4818DC99585D1BDC8818D85B8818D85B98D95B PUSH1 0x2A SHL PUSH1 0x44 DUP3 ADD MSTORE PUSH1 0x64 SWAP1 REVERT JUMPDEST POP CALLVALUE PUSH2 0x280 JUMPI PUSH2 0x1B03 CALLDATASIZE PUSH2 0x4D7A JUMP JUMPDEST SWAP2 SWAP1 DUP2 MSTORE PUSH1 0x6 PUSH1 0x20 MSTORE PUSH1 0x40 DUP2 KECCAK256 SWAP1 DUP2 SLOAD DUP4 LT ISZERO PUSH2 0x280 JUMPI PUSH1 0x20 PUSH2 0x198D DUP5 DUP5 PUSH2 0x4AE9 JUMP JUMPDEST POP CALLVALUE PUSH2 0x280 JUMPI PUSH1 0x20 CALLDATASIZE PUSH1 0x3 NOT ADD SLT PUSH2 0x280 JUMPI PUSH2 0x1B40 PUSH2 0x4A6D JUMP JUMPDEST PUSH2 0x1B48 PUSH2 0x4E70 JUMP JUMPDEST PUSH1 0x1 PUSH1 0x1 PUSH1 0xA0 SHL SUB AND DUP1 ISZERO PUSH2 0x1B6E JUMPI PUSH1 0xD DUP1 SLOAD PUSH1 0x1 PUSH1 0x1 PUSH1 0xA0 SHL SUB NOT AND SWAP2 SWAP1 SWAP2 OR SWAP1 SSTORE DUP1 RETURN JUMPDEST PUSH1 0x40 MLOAD PUSH3 0x461BCD PUSH1 0xE5 SHL DUP2 MSTORE PUSH1 0x20 PUSH1 0x4 DUP3 ADD MSTORE PUSH1 0x24 DUP1 DUP3 ADD MSTORE PUSH32 0x45503A20496E76616C6964204F7074696D69737469634F7261636C6520616464 PUSH1 0x44 DUP3 ADD MSTORE PUSH4 0x72657373 PUSH1 0xE0 SHL PUSH1 0x64 DUP3 ADD MSTORE PUSH1 0x84 SWAP1 REVERT JUMPDEST POP CALLVALUE PUSH2 0x280 JUMPI PUSH1 0x20 CALLDATASIZE PUSH1 0x3 NOT ADD SLT PUSH2 0x280 JUMPI PUSH2 0x1BD9 PUSH2 0x4A6D JUMP JUMPDEST PUSH2 0x1BE1 PUSH2 0x4E70 JUMP JUMPDEST PUSH1 0x1 PUSH1 0x1 PUSH1 0xA0 SHL SUB AND DUP1 ISZERO PUSH2 0x1C07 JUMPI PUSH1 0x8 DUP1 SLOAD PUSH1 0x1 PUSH1 0x1 PUSH1 0xA0 SHL SUB NOT AND SWAP2 SWAP1 SWAP2 OR SWAP1 SSTORE DUP1 RETURN JUMPDEST PUSH1 0x40 MLOAD PUSH3 0x461BCD PUSH1 0xE5 SHL DUP2 MSTORE PUSH1 0x20 PUSH1 0x4 DUP3 ADD MSTORE PUSH1 0xC PUSH1 0x24 DUP3 ADD MSTORE PUSH12 0x22A81D102130B21030B23239 PUSH1 0xA1 SHL PUSH1 0x44 DUP3 ADD MSTORE PUSH1 0x64 SWAP1 REVERT JUMPDEST POP CALLVALUE PUSH2 0x280 JUMPI PUSH1 0x20 CALLDATASIZE PUSH1 0x3 NOT ADD SLT PUSH2 0x280 JUMPI PUSH1 0x4 CALLDATALOAD DUP2 MSTORE PUSH1 0x1 PUSH1 0x20 DUP2 SWAP1 MSTORE PUSH1 0x40 SWAP1 SWAP2 KECCAK256 DUP1 SLOAD PUSH1 0x1 PUSH1 0x1 PUSH1 0xA0 SHL SUB AND SWAP2 PUSH2 0x1C75 SWAP1 DUP3 ADD PUSH2 0x4DCA JUMP JUMPDEST PUSH1 0xA0 MSTORE PUSH1 0x2 DUP2 ADD SLOAD PUSH1 0xFF AND PUSH1 0xE0 MSTORE PUSH1 0x3 DUP2 ADD SLOAD PUSH1 0x80 MSTORE PUSH1 0x1 PUSH1 0xA0 SHL PUSH1 0x1 SWAP1 SUB PUSH1 0x4 DUP3 ADD SLOAD AND SWAP2 PUSH1 0x5 DUP3 ADD SLOAD PUSH1 0x6 DUP4 ADD SLOAD PUSH1 0x7 DUP5 ADD SLOAD PUSH1 0x8 DUP6 ADD SLOAD PUSH1 0x9 DUP7 ADD SLOAD PUSH1 0xA DUP8 ADD SLOAD SWAP1 PUSH1 0xB DUP9 ADD SLOAD SWAP3 PUSH1 0xC DUP10 ADD SLOAD PUSH1 0xFF AND SWAP5 PUSH1 0xD DUP11 ADD SLOAD SWAP7 PUSH1 0xE DUP12 ADD SLOAD SWAP9 PUSH1 0xF DUP13 ADD SLOAD SWAP11 PUSH1 0x10 DUP14 ADD SLOAD SWAP13 PUSH1 0x11 ADD SLOAD PUSH1 0xFF AND PUSH2 0x100 MSTORE PUSH1 0x40 MLOAD DUP1 PUSH1 0xC0 MSTORE MSTORE PUSH2 0x280 DUP1 PUSH1 0xC0 MLOAD PUSH1 0x20 ADD MSTORE PUSH1 0xC0 MLOAD ADD PUSH1 0xA0 MLOAD SWAP1 PUSH2 0x1D10 SWAP2 PUSH2 0x4B24 JUMP JUMPDEST SWAP13 PUSH1 0xE0 MLOAD ISZERO ISZERO PUSH1 0xC0 MLOAD PUSH1 0x40 ADD MSTORE PUSH1 0x80 MLOAD PUSH1 0xC0 MLOAD PUSH1 0x60 ADD MSTORE PUSH1 0xC0 MLOAD PUSH1 0x80 ADD MSTORE PUSH1 0xC0 MLOAD PUSH1 0xA0 ADD MSTORE PUSH1 0xC0 MLOAD PUSH1 0xC0 ADD MSTORE PUSH1 0xC0 MLOAD PUSH1 0xE0 ADD MSTORE PUSH1 0xC0 MLOAD PUSH2 0x100 ADD MSTORE PUSH1 0xC0 MLOAD PUSH2 0x120 ADD MSTORE PUSH1 0xC0 MLOAD PUSH2 0x140 ADD MSTORE PUSH1 0xC0 MLOAD PUSH2 0x160 ADD MSTORE PUSH1 0xC0 MLOAD PUSH2 0x180 ADD PUSH2 0x1D73 SWAP2 PUSH2 0x4B49 JUMP JUMPDEST PUSH1 0xC0 MLOAD PUSH2 0x1A0 ADD MSTORE PUSH1 0xFF DUP2 AND ISZERO ISZERO PUSH1 0xC0 MLOAD PUSH2 0x1C0 ADD MSTORE PUSH1 0xC0 MLOAD PUSH2 0x1E0 ADD DUP2 PUSH1 0x8 SHR PUSH1 0xFF AND SWAP1 PUSH2 0x1DA1 SWAP2 PUSH2 0x4B6C JUMP JUMPDEST PUSH1 0x1 PUSH1 0xA0 SHL PUSH1 0x1 SWAP1 SUB SWAP1 PUSH1 0x10 SHR AND PUSH1 0xC0 MLOAD PUSH2 0x200 ADD MSTORE PUSH1 0xC0 MLOAD PUSH2 0x220 ADD MSTORE PUSH1 0xC0 MLOAD PUSH2 0x240 ADD MSTORE PUSH2 0x100 MLOAD ISZERO ISZERO PUSH1 0xC0 MLOAD PUSH2 0x260 ADD MSTORE PUSH1 0xC0 MLOAD DUP1 SWAP2 SUB SWAP1 RETURN JUMPDEST POP CALLVALUE PUSH2 0x280 JUMPI PUSH1 0x20 CALLDATASIZE PUSH1 0x3 NOT ADD SLT PUSH2 0x280 JUMPI PUSH2 0x1DF8 PUSH2 0x4A6D JUMP JUMPDEST PUSH2 0x1E00 PUSH2 0x4E70 JUMP JUMPDEST PUSH1 0x1 PUSH1 0x1 PUSH1 0xA0 SHL SUB AND DUP1 ISZERO PUSH2 0x1E26 JUMPI PUSH1 0xE DUP1 SLOAD PUSH1 0x1 PUSH1 0x1 PUSH1 0xA0 SHL SUB NOT AND SWAP2 SWAP1 SWAP2 OR SWAP1 SSTORE DUP1 RETURN JUMPDEST PUSH1 0x40 MLOAD PUSH3 0x461BCD PUSH1 0xE5 SHL DUP2 MSTORE PUSH1 0x20 PUSH1 0x4 DUP3 ADD MSTORE PUSH1 0x19 PUSH1 0x24 DUP3 ADD MSTORE PUSH25 0x45503A20496E76616C696420626F6E642063757272656E6379 PUSH1 0x38 SHL PUSH1 0x44 DUP3 ADD MSTORE PUSH1 0x64 SWAP1 REVERT JUMPDEST POP CALLVALUE PUSH2 0x280 JUMPI PUSH1 0x20 CALLDATASIZE PUSH1 0x3 NOT ADD SLT PUSH2 0x280 JUMPI PUSH1 0x40 PUSH1 0x20 SWAP2 PUSH1 0x4 CALLDATALOAD DUP2 MSTORE PUSH1 0x6 DUP4 MSTORE KECCAK256 SLOAD PUSH1 0x40 MLOAD SWAP1 DUP2 MSTORE RETURN JUMPDEST POP CALLVALUE PUSH2 0x280 JUMPI DUP1 PUSH1 0x3 NOT CALLDATASIZE ADD SLT PUSH2 0x280 JUMPI PUSH1 0x8 SLOAD PUSH1 0x40 MLOAD PUSH1 0x1 PUSH1 0x1 PUSH1 0xA0 SHL SUB SWAP1 SWAP2 AND DUP2 MSTORE PUSH1 0x20 SWAP1 RETURN JUMPDEST POP CALLVALUE PUSH2 0x280 JUMPI PUSH1 0x20 DUP1 PUSH1 0x3 NOT CALLDATASIZE ADD SLT PUSH2 0x3C1 JUMPI PUSH1 0x4 CALLDATALOAD SWAP1 DUP2 DUP4 MSTORE PUSH1 0x1 DUP2 MSTORE PUSH1 0x40 DUP4 KECCAK256 SWAP1 PUSH1 0xE DUP3 ADD DUP1 SLOAD PUSH1 0xFF DUP2 PUSH1 0x8 SHR AND PUSH1 0x2 DUP2 LT ISZERO PUSH2 0x212C JUMPI PUSH2 0x20F2 JUMPI PUSH1 0xC DUP5 ADD SWAP1 DUP2 SLOAD SWAP1 PUSH1 0xFF DUP3 AND PUSH1 0x5 DUP2 LT ISZERO PUSH2 0x109C JUMPI PUSH1 0x1 PUSH2 0x1F18 SWAP2 EQ PUSH2 0x5420 JUMP JUMPDEST PUSH2 0x1F25 PUSH1 0xFF DUP3 AND ISZERO PUSH2 0x545C JUMP JUMPDEST PUSH1 0xB DUP7 ADD SLOAD TIMESTAMP LT PUSH2 0x20B2 JUMPI PUSH1 0x40 MLOAD PUSH4 0x3FABE5A3 PUSH1 0xE2 SHL DUP2 MSTORE DUP9 SWAP5 PUSH1 0x1 PUSH1 0x1 PUSH1 0xA0 SHL SUB SWAP5 SWAP4 SWAP2 SWAP3 SWAP2 SWAP1 PUSH1 0xA0 DUP5 PUSH1 0x4 DUP2 PUSH1 0x10 DUP8 SWAP1 SHR DUP11 AND GAS STATICCALL DUP1 ISZERO PUSH2 0x7E9 JUMPI DUP8 SWAP1 PUSH2 0x2062 JUMPI JUMPDEST PUSH1 0xF DUP11 ADD SLOAD PUSH1 0x2 SWAP6 POP GT PUSH2 0x2057 JUMPI PUSH1 0xFF PUSH1 0xD PUSH1 0x1 SWAP11 JUMPDEST ADD SWAP10 AND DUP10 SSTORE PUSH1 0x1 PUSH1 0xFF NOT DUP1 SWAP5 AND OR SWAP1 SSTORE AND OR SWAP1 SSTORE PUSH2 0x1F9C DUP6 PUSH2 0x5695 JUMP JUMPDEST PUSH1 0x4 DUP4 DUP3 PUSH1 0x8 SLOAD AND PUSH1 0x40 MLOAD SWAP3 DUP4 DUP1 SWAP3 PUSH4 0x406AD645 PUSH1 0xE1 SHL DUP3 MSTORE GAS STATICCALL SWAP1 DUP2 ISZERO PUSH2 0x63F JUMPI DUP4 SWAP2 PUSH2 0x203A JUMPI JUMPDEST POP AND DUP1 PUSH2 0x1FEA JUMPI JUMPDEST POP POP PUSH1 0x0 DUP1 MLOAD PUSH1 0x20 PUSH2 0x5DA6 DUP4 CODECOPY DUP2 MLOAD SWAP2 MSTORE SWAP2 SLOAD PUSH1 0x40 MLOAD SWAP1 DUP2 MSTORE LOG2 DUP1 RETURN JUMPDEST DUP4 SLOAD DUP2 EXTCODESIZE ISZERO PUSH2 0x2036 JUMPI DUP3 SWAP2 PUSH1 0x44 DUP4 SWAP3 PUSH1 0x40 MLOAD SWAP5 DUP6 SWAP4 DUP5 SWAP3 PUSH3 0xFF4A73 PUSH1 0xE8 SHL DUP5 MSTORE DUP12 PUSH1 0x4 DUP6 ADD MSTORE PUSH1 0x24 DUP5 ADD MSTORE GAS CALL DUP1 ISZERO PUSH2 0x607 JUMPI ISZERO PUSH2 0x1FCD JUMPI PUSH2 0x202B SWAP1 PUSH2 0x4CBB JUMP JUMPDEST PUSH2 0x603 JUMPI DUP4 CODESIZE PUSH2 0x1FCD JUMP JUMPDEST DUP3 DUP1 REVERT JUMPDEST PUSH2 0x2051 SWAP2 POP DUP5 RETURNDATASIZE DUP7 GT PUSH2 0x638 JUMPI PUSH2 0x62A DUP2 DUP4 PUSH2 0x4D05 JUMP JUMPDEST CODESIZE PUSH2 0x1FC5 JUMP JUMPDEST PUSH1 0xFF PUSH1 0xD DUP6 SWAP11 PUSH2 0x1F7F JUMP JUMPDEST POP PUSH1 0xA0 DUP5 RETURNDATASIZE DUP3 GT PUSH2 0x20AA JUMPI JUMPDEST DUP2 PUSH2 0x207B PUSH1 0xA0 SWAP4 DUP4 PUSH2 0x4D05 JUMP JUMPDEST DUP2 ADD SUB SLT PUSH2 0x20A6 JUMPI DUP4 PUSH2 0x208F PUSH1 0x2 SWAP6 PUSH2 0x5497 JUMP JUMPDEST POP PUSH2 0x20A0 PUSH1 0x80 DUP11 DUP4 ADD MLOAD SWAP3 ADD PUSH2 0x5497 JUMP JUMPDEST POP PUSH2 0x1F69 JUMP JUMPDEST DUP7 DUP1 REVERT JUMPDEST RETURNDATASIZE SWAP2 POP PUSH2 0x206E JUMP JUMPDEST PUSH1 0x40 MLOAD PUSH3 0x461BCD PUSH1 0xE5 SHL DUP2 MSTORE PUSH1 0x4 DUP2 ADD DUP7 SWAP1 MSTORE PUSH1 0x18 PUSH1 0x24 DUP3 ADD MSTORE PUSH24 0x45503A20546F6F206561726C7920746F207265736F6C7665 PUSH1 0x40 SHL PUSH1 0x44 DUP3 ADD MSTORE PUSH1 0x64 SWAP1 REVERT JUMPDEST PUSH1 0x40 MLOAD PUSH3 0x461BCD PUSH1 0xE5 SHL DUP2 MSTORE PUSH1 0x4 DUP2 ADD DUP5 SWAP1 MSTORE PUSH1 0x12 PUSH1 0x24 DUP3 ADD MSTORE PUSH18 0x11540E88139BDD081C1C9A58D94819995959 PUSH1 0x72 SHL PUSH1 0x44 DUP3 ADD MSTORE PUSH1 0x64 SWAP1 REVERT JUMPDEST PUSH4 0x4E487B71 PUSH1 0xE0 SHL DUP8 MSTORE PUSH1 0x21 PUSH1 0x4 MSTORE PUSH1 0x24 DUP8 REVERT JUMPDEST POP CALLVALUE PUSH2 0x280 JUMPI PUSH1 0x40 CALLDATASIZE PUSH1 0x3 NOT ADD SLT PUSH2 0x280 JUMPI PUSH2 0x215A PUSH2 0x4A6D JUMP JUMPDEST PUSH1 0x1 PUSH1 0x1 PUSH1 0xA0 SHL SUB AND DUP2 MSTORE PUSH1 0xC PUSH1 0x20 MSTORE PUSH1 0x40 DUP2 KECCAK256 DUP1 SLOAD PUSH1 0x24 CALLDATALOAD SWAP3 SWAP1 DUP4 LT ISZERO PUSH2 0x280 JUMPI PUSH1 0x20 PUSH2 0x2188 DUP5 DUP5 PUSH2 0x4AE9 JUMP JUMPDEST SWAP1 SLOAD PUSH1 0x40 MLOAD SWAP2 PUSH1 0x3 SHL SHR DUP2 MSTORE RETURN JUMPDEST POP CALLVALUE PUSH2 0x280 JUMPI DUP1 PUSH1 0x3 NOT CALLDATASIZE ADD SLT PUSH2 0x280 JUMPI SLOAD PUSH1 0x40 MLOAD PUSH1 0x1 PUSH1 0x1 PUSH1 0xA0 SHL SUB SWAP1 SWAP2 AND DUP2 MSTORE PUSH1 0x20 SWAP1 RETURN JUMPDEST POP CALLVALUE PUSH2 0x280 JUMPI PUSH2 0x1540 SWAP1 PUSH1 0x20 PUSH2 0x21D2 CALLDATASIZE PUSH2 0x4A83 JUMP JUMPDEST PUSH1 0x7 SLOAD PUSH1 0x40 MLOAD PUSH4 0x423E7BC1 PUSH1 0xE1 SHL DUP2 MSTORE SWAP7 DUP8 SWAP5 PUSH1 0x1 PUSH1 0x1 PUSH1 0xA0 SHL SUB SWAP1 SWAP3 AND SWAP4 DUP6 SWAP4 DUP5 SWAP4 SWAP1 SWAP2 SWAP1 PUSH1 0x4 DUP6 ADD PUSH2 0x5400 JUMP JUMPDEST POP CALLVALUE PUSH2 0x280 JUMPI PUSH1 0x20 CALLDATASIZE PUSH1 0x3 NOT ADD SLT PUSH2 0x280 JUMPI PUSH1 0x4 CALLDATALOAD DUP1 DUP3 MSTORE PUSH1 0x1 PUSH1 0x20 MSTORE PUSH1 0x40 DUP3 KECCAK256 SWAP1 PUSH1 0xFF PUSH1 0xC DUP4 ADD SLOAD AND PUSH1 0x5 DUP2 LT ISZERO PUSH2 0x3AD JUMPI PUSH1 0x1 PUSH2 0x2240 SWAP2 EQ PUSH2 0x5420 JUMP JUMPDEST PUSH1 0xB DUP3 ADD SLOAD TIMESTAMP LT PUSH2 0x2297 JUMPI PUSH2 0x225F PUSH1 0xFF PUSH1 0xE PUSH2 0x1A5C SWAP5 ADD SLOAD AND ISZERO PUSH2 0x545C JUMP JUMPDEST PUSH1 0x40 MLOAD SWAP1 PUSH2 0x226C DUP3 PUSH2 0x4CEA JUMP JUMPDEST PUSH1 0x19 DUP3 MSTORE PUSH25 0x14995CDBDB1D5D1A5BDB881C195C9A5BD908195E1C1A5C9959 PUSH1 0x3A SHL PUSH1 0x20 DUP4 ADD MSTORE PUSH2 0x5631 JUMP JUMPDEST PUSH1 0x40 MLOAD PUSH3 0x461BCD PUSH1 0xE5 SHL DUP2 MSTORE PUSH1 0x20 PUSH1 0x4 DUP3 ADD MSTORE PUSH1 0x1F PUSH1 0x24 DUP3 ADD MSTORE PUSH32 0x45503A205265736F6C7574696F6E20706572696F64206E6F7420656E64656400 PUSH1 0x44 DUP3 ADD MSTORE PUSH1 0x64 SWAP1 REVERT JUMPDEST POP CALLVALUE PUSH2 0x280 JUMPI DUP1 PUSH1 0x3 NOT CALLDATASIZE ADD SLT PUSH2 0x280 JUMPI PUSH2 0x22F5 PUSH2 0x4E70 JUMP JUMPDEST PUSH1 0x0 DUP1 SLOAD PUSH1 0x1 PUSH1 0x1 PUSH1 0xA0 SHL SUB NOT DUP2 AND DUP3 SSTORE PUSH1 0x1 PUSH1 0x1 PUSH1 0xA0 SHL SUB AND PUSH1 0x0 DUP1 MLOAD PUSH1 0x20 PUSH2 0x5D86 DUP4 CODECOPY DUP2 MLOAD SWAP2 MSTORE DUP3 DUP1 LOG3 DUP1 RETURN JUMPDEST POP CALLVALUE PUSH2 0x280 JUMPI PUSH1 0x20 DUP1 PUSH1 0x3 NOT CALLDATASIZE ADD SLT PUSH2 0x3C1 JUMPI PUSH1 0x4 CALLDATALOAD DUP3 MSTORE PUSH1 0x5 DUP2 MSTORE PUSH1 0x40 DUP3 KECCAK256 SWAP2 PUSH1 0x40 MLOAD DUP1 SWAP4 DUP5 SWAP2 DUP5 DUP3 SLOAD SWAP2 DUP3 DUP2 MSTORE ADD SWAP2 DUP5 MSTORE DUP5 DUP5 KECCAK256 SWAP4 JUMPDEST DUP6 DUP3 DUP3 LT PUSH2 0x2387 JUMPI POP POP POP PUSH2 0x2373 SWAP3 POP SUB DUP4 PUSH2 0x4D05 JUMP JUMPDEST PUSH2 0x16E6 PUSH1 0x40 MLOAD SWAP3 DUP3 DUP5 SWAP4 DUP5 MSTORE DUP4 ADD SWAP1 PUSH2 0x4C7E JUMP JUMPDEST DUP6 SLOAD PUSH1 0x1 PUSH1 0x1 PUSH1 0xA0 SHL SUB AND DUP5 MSTORE PUSH1 0x1 SWAP6 DUP7 ADD SWAP6 DUP9 SWAP6 POP SWAP4 ADD SWAP3 ADD PUSH2 0x235C JUMP JUMPDEST POP CALLVALUE PUSH2 0x280 JUMPI PUSH1 0x20 SWAP1 DUP2 PUSH1 0x3 NOT CALLDATASIZE ADD SLT PUSH2 0x280 JUMPI PUSH1 0x4 CALLDATALOAD SWAP2 DUP3 DUP3 MSTORE PUSH1 0x1 DUP2 MSTORE PUSH1 0x40 DUP3 KECCAK256 SWAP3 PUSH1 0xFF PUSH1 0xC DUP6 ADD SLOAD AND PUSH1 0x5 DUP2 LT ISZERO PUSH2 0x3AD JUMPI PUSH1 0x2 PUSH2 0x23E7 SWAP2 EQ PUSH2 0x5575 JUMP JUMPDEST PUSH1 0xD DUP5 ADD SLOAD SWAP2 PUSH2 0x23F8 DUP4 ISZERO ISZERO PUSH2 0x55B4 JUMP JUMPDEST DUP2 DUP5 MSTORE PUSH1 0x2 DUP2 MSTORE PUSH1 0x40 DUP5 KECCAK256 CALLER PUSH1 0x0 MSTORE DUP2 MSTORE PUSH1 0xFF PUSH1 0x40 PUSH1 0x0 KECCAK256 SLOAD AND ISZERO PUSH2 0x27BD JUMPI PUSH1 0x7 SLOAD PUSH1 0x40 MLOAD PUSH4 0x7C7A72D PUSH1 0xE0 SHL DUP2 MSTORE PUSH1 0x1 PUSH1 0x1 PUSH1 0xA0 SHL SUB SWAP2 DUP3 AND SWAP5 SWAP2 SWAP1 DUP4 DUP2 DUP1 PUSH2 0x2446 CALLER DUP10 PUSH1 0x4 DUP5 ADD PUSH2 0x50B4 JUMP JUMPDEST SUB DUP2 DUP10 GAS STATICCALL SWAP1 DUP2 ISZERO PUSH2 0x7E9 JUMPI DUP8 SWAP2 PUSH2 0x27A0 JUMPI JUMPDEST POP PUSH2 0x276D JUMPI PUSH1 0x4 DUP8 ADD SLOAD AND SWAP1 PUSH1 0x40 MLOAD SWAP1 PUSH4 0x423E7BC1 PUSH1 0xE1 SHL DUP3 MSTORE DUP4 DUP3 DUP1 PUSH2 0x2485 DUP7 CALLER DUP11 PUSH1 0x4 DUP6 ADD PUSH2 0x5400 JUMP JUMPDEST SUB DUP2 DUP10 GAS STATICCALL SWAP2 DUP3 ISZERO PUSH2 0x7E9 JUMPI DUP8 SWAP3 PUSH2 0x273E JUMPI JUMPDEST POP PUSH1 0x40 MLOAD PUSH4 0xDC4CE349 PUSH1 0xE0 SHL DUP1 DUP3 MSTORE SWAP9 DUP6 DUP3 DUP1 PUSH2 0x24BA DUP9 DUP8 DUP13 PUSH1 0x4 DUP6 ADD PUSH2 0x55F0 JUMP JUMPDEST SUB DUP2 DUP12 GAS STATICCALL SWAP2 DUP3 ISZERO PUSH2 0x1091 JUMPI DUP10 SWAP3 PUSH2 0x270F JUMPI JUMPDEST POP DUP9 SWAP10 PUSH1 0x3 PUSH1 0x1 SWAP3 ADD SLOAD SWAP2 JUMPDEST DUP3 DUP2 GT ISZERO PUSH2 0x2678 JUMPI POP POP PUSH1 0x40 MLOAD PUSH4 0x4F44289D PUSH1 0xE0 SHL DUP2 MSTORE DUP10 SWAP6 SWAP5 SWAP4 SWAP3 SWAP2 POP DUP11 DUP8 DUP3 DUP1 PUSH2 0x2509 DUP10 DUP14 PUSH1 0x4 DUP5 ADD PUSH2 0x50B4 JUMP JUMPDEST SUB DUP2 DUP14 GAS STATICCALL SWAP2 DUP3 ISZERO PUSH2 0x7E9 JUMPI DUP8 SWAP3 PUSH2 0x2644 JUMPI JUMPDEST POP SWAP1 PUSH2 0x2527 SWAP2 PUSH2 0x4F68 JUMP JUMPDEST DUP2 PUSH2 0x25B3 JUMPI POP POP POP POP DUP2 SWAP5 JUMPDEST DUP1 EXTCODESIZE ISZERO PUSH2 0x2036 JUMPI DUP6 DUP4 SWAP2 PUSH2 0x2560 SWAP4 DUP4 PUSH1 0x40 MLOAD DUP1 SWAP7 DUP2 SWAP6 DUP3 SWAP5 PUSH4 0x2F0041ED PUSH1 0xE1 SHL DUP5 MSTORE CALLER DUP14 PUSH1 0x4 DUP7 ADD PUSH2 0x538F JUMP JUMPDEST SUB SWAP3 GAS CALL DUP1 ISZERO PUSH2 0x607 JUMPI PUSH2 0x259F JUMPI JUMPDEST POP POP PUSH32 0x5380CF6FE903B40C6D5A9E0DFBCA2F3A423F0A21520B4D5947ED5169BDBA946D SWAP1 PUSH1 0x40 MLOAD SWAP4 DUP5 MSTORE CALLER SWAP4 LOG3 DUP1 RETURN JUMPDEST PUSH2 0x25A8 SWAP1 PUSH2 0x4CBB JUMP JUMPDEST PUSH2 0x603 JUMPI DUP4 DUP6 PUSH2 0x256F JUMP JUMPDEST DUP1 PUSH2 0x25E7 JUMPI POP POP DUP6 DUP5 MSTORE PUSH1 0x4 DUP6 MSTORE PUSH1 0x40 DUP5 KECCAK256 CALLER PUSH1 0x0 MSTORE DUP6 MSTORE PUSH1 0x40 PUSH1 0x0 KECCAK256 SLOAD EQ PUSH1 0x0 EQ PUSH2 0x25DF JUMPI SWAP5 PUSH2 0x2533 JUMP JUMPDEST POP DUP2 SWAP5 PUSH2 0x2533 JUMP JUMPDEST SWAP2 DUP8 DUP7 SWAP3 SWAP5 SWAP6 SWAP7 MSTORE PUSH1 0x4 DUP8 MSTORE PUSH1 0x40 DUP3 KECCAK256 CALLER PUSH1 0x0 MSTORE DUP8 MSTORE PUSH1 0x40 PUSH1 0x0 KECCAK256 SLOAD EQ PUSH1 0x0 EQ PUSH2 0x2638 JUMPI POP PUSH2 0x2328 DUP1 DUP3 MUL SWAP2 DUP3 DIV SUB PUSH2 0x7A3 JUMPI SWAP2 PUSH2 0x12E9 PUSH2 0x2632 SWAP3 PUSH2 0x12E4 PUSH2 0x2710 DUP12 SWAP8 SWAP7 DIV DUP5 PUSH2 0x4F3F JUMP JUMPDEST SWAP5 PUSH2 0x2533 JUMP JUMPDEST SWAP4 SWAP3 POP POP POP DUP2 SWAP5 PUSH2 0x2533 JUMP JUMPDEST DUP9 DUP1 SWAP3 SWAP9 POP DUP2 SWAP4 POP RETURNDATASIZE DUP4 GT PUSH2 0x2671 JUMPI JUMPDEST PUSH2 0x265E DUP2 DUP4 PUSH2 0x4D05 JUMP JUMPDEST DUP2 ADD SUB SLT PUSH2 0x7DD JUMPI MLOAD DUP10 SWAP6 PUSH2 0x2527 PUSH2 0x251C JUMP JUMPDEST POP RETURNDATASIZE PUSH2 0x2654 JUMP JUMPDEST DUP5 DUP2 SUB PUSH2 0x268E JUMPI JUMPDEST PUSH2 0x2689 SWAP1 PUSH2 0x4F75 JUMP JUMPDEST PUSH2 0x24D9 JUMP JUMPDEST SWAP11 PUSH2 0x26AD DUP9 DUP9 DUP13 DUP16 DUP14 PUSH1 0x40 MLOAD SWAP6 DUP7 SWAP5 DUP6 SWAP4 DUP5 SWAP4 DUP12 DUP6 MSTORE PUSH1 0x4 DUP6 ADD PUSH2 0x55F0 JUMP JUMPDEST SUB SWAP2 GAS STATICCALL SWAP1 DUP2 ISZERO PUSH2 0x2704 JUMPI DUP13 SWAP2 PUSH2 0x26D5 JUMPI JUMPDEST POP PUSH2 0x26CD SWAP1 PUSH2 0x2689 SWAP3 PUSH2 0x4F68 JUMP JUMPDEST SWAP12 SWAP1 POP PUSH2 0x2680 JUMP JUMPDEST SWAP1 POP DUP9 DUP2 DUP2 RETURNDATASIZE DUP4 GT PUSH2 0x26FD JUMPI JUMPDEST PUSH2 0x26EC DUP2 DUP4 PUSH2 0x4D05 JUMP JUMPDEST DUP2 ADD SUB SLT PUSH2 0x7DD JUMPI MLOAD PUSH2 0x2689 PUSH2 0x26BF JUMP JUMPDEST POP RETURNDATASIZE PUSH2 0x26E2 JUMP JUMPDEST PUSH1 0x40 MLOAD RETURNDATASIZE DUP15 DUP3 RETURNDATACOPY RETURNDATASIZE SWAP1 REVERT JUMPDEST SWAP1 SWAP2 POP DUP6 DUP2 DUP2 RETURNDATASIZE DUP4 GT PUSH2 0x2737 JUMPI JUMPDEST PUSH2 0x2727 DUP2 DUP4 PUSH2 0x4D05 JUMP JUMPDEST DUP2 ADD SUB SLT PUSH2 0x7DD JUMPI MLOAD SWAP1 CODESIZE PUSH2 0x24CD JUMP JUMPDEST POP RETURNDATASIZE PUSH2 0x271D JUMP JUMPDEST SWAP1 SWAP2 POP DUP4 DUP2 DUP2 RETURNDATASIZE DUP4 GT PUSH2 0x2766 JUMPI JUMPDEST PUSH2 0x2756 DUP2 DUP4 PUSH2 0x4D05 JUMP JUMPDEST DUP2 ADD SUB SLT PUSH2 0x7DD JUMPI MLOAD SWAP1 CODESIZE PUSH2 0x2498 JUMP JUMPDEST POP RETURNDATASIZE PUSH2 0x274C JUMP JUMPDEST PUSH1 0x40 MLOAD PUSH3 0x461BCD PUSH1 0xE5 SHL DUP2 MSTORE PUSH1 0x4 DUP2 ADD DUP5 SWAP1 MSTORE PUSH1 0xB PUSH1 0x24 DUP3 ADD MSTORE PUSH11 0x11540E8810DB185A5B5959 PUSH1 0xAA SHL PUSH1 0x44 DUP3 ADD MSTORE PUSH1 0x64 SWAP1 REVERT JUMPDEST PUSH2 0x27B7 SWAP2 POP DUP5 RETURNDATASIZE DUP7 GT PUSH2 0x81A JUMPI PUSH2 0x80C DUP2 DUP4 PUSH2 0x4D05 JUMP JUMPDEST CODESIZE PUSH2 0x2459 JUMP JUMPDEST PUSH1 0x64 SWAP1 PUSH1 0x40 MLOAD SWAP1 PUSH3 0x461BCD PUSH1 0xE5 SHL DUP3 MSTORE PUSH1 0x4 DUP3 ADD MSTORE PUSH1 0xC PUSH1 0x24 DUP3 ADD MSTORE PUSH12 0x45503A204E6F207374616B65 PUSH1 0xA0 SHL PUSH1 0x44 DUP3 ADD MSTORE REVERT JUMPDEST POP PUSH2 0x180 CALLDATASIZE PUSH1 0x3 NOT ADD SLT PUSH2 0x280 JUMPI PUSH1 0x4 CALLDATALOAD PUSH1 0x1 PUSH1 0x1 PUSH1 0x40 SHL SUB DUP2 GT PUSH2 0x3C1 JUMPI CALLDATASIZE PUSH1 0x23 DUP3 ADD SLT ISZERO PUSH2 0x3C1 JUMPI PUSH2 0x282E SWAP1 CALLDATASIZE SWAP1 PUSH1 0x24 DUP2 PUSH1 0x4 ADD CALLDATALOAD SWAP2 ADD PUSH2 0x4D43 JUMP JUMPDEST SWAP1 PUSH1 0x24 CALLDATALOAD ISZERO ISZERO PUSH1 0x24 CALLDATALOAD SUB PUSH2 0x280 JUMPI PUSH1 0x64 CALLDATALOAD PUSH1 0x1 PUSH1 0x1 PUSH1 0xA0 SHL SUB DUP2 AND SWAP1 SUB PUSH2 0x7DD JUMPI PUSH1 0x2 PUSH2 0x124 CALLDATALOAD LT ISZERO PUSH2 0x280 JUMPI PUSH2 0x144 CALLDATALOAD SWAP1 PUSH1 0x1 PUSH1 0x1 PUSH1 0xA0 SHL SUB DUP3 AND DUP3 SUB PUSH2 0x7DD JUMPI PUSH1 0x8 SLOAD PUSH1 0x40 MLOAD PUSH4 0x2B5BA3B9 PUSH1 0xE0 SHL DUP2 MSTORE CALLER PUSH1 0x4 DUP3 ADD MSTORE PUSH1 0x1 PUSH1 0x1 PUSH1 0xA0 SHL SUB SWAP1 SWAP2 AND SWAP1 PUSH1 0x20 DUP2 PUSH1 0x24 DUP2 DUP6 GAS STATICCALL SWAP1 DUP2 ISZERO PUSH2 0x63F JUMPI SWAP1 PUSH2 0x28B4 SWAP2 DUP5 SWAP2 PUSH2 0x3547 JUMPI POP ISZERO PUSH2 0x4EB4 JUMP JUMPDEST DUP4 MLOAD ISZERO PUSH2 0x350F JUMPI PUSH1 0x2 PUSH1 0x44 CALLDATALOAD LT ISZERO DUP1 PUSH2 0x3502 JUMPI JUMPDEST ISZERO PUSH2 0x34C7 JUMPI PUSH1 0x84 CALLDATALOAD ISZERO PUSH2 0x348E JUMPI PUSH1 0xA4 CALLDATALOAD ISZERO PUSH2 0x3453 JUMPI PUSH1 0xC4 CALLDATALOAD ISZERO ISZERO DUP1 PUSH2 0x3445 JUMPI JUMPDEST ISZERO PUSH2 0x340A JUMPI PUSH2 0x124 CALLDATALOAD ISZERO PUSH2 0x3370 JUMPI JUMPDEST PUSH1 0x40 MLOAD PUSH4 0x17916E01 PUSH1 0xE0 SHL DUP2 MSTORE PUSH1 0x20 DUP2 PUSH1 0x4 DUP2 DUP6 GAS STATICCALL SWAP1 DUP2 ISZERO PUSH2 0x63F JUMPI DUP4 SWAP2 PUSH2 0x333E JUMPI JUMPDEST POP PUSH1 0xE4 CALLDATALOAD LT PUSH2 0x3306 JUMPI PUSH1 0xE4 CALLDATALOAD PUSH2 0x104 CALLDATALOAD LT PUSH2 0x32C4 JUMPI PUSH1 0x24 CALLDATALOAD ISZERO PUSH2 0x3264 JUMPI PUSH1 0x64 CALLDATALOAD PUSH1 0x1 PUSH1 0x1 PUSH1 0xA0 SHL SUB AND ISZERO PUSH2 0x3220 JUMPI PUSH1 0x40 MLOAD PUSH4 0x34625613 PUSH1 0xE1 SHL DUP2 MSTORE PUSH1 0x64 CALLDATALOAD PUSH1 0x1 PUSH1 0x1 PUSH1 0xA0 SHL SUB AND PUSH1 0x4 DUP3 ADD MSTORE SWAP1 PUSH1 0x20 SWAP1 DUP3 SWAP1 PUSH1 0x24 SWAP1 DUP3 SWAP1 GAS STATICCALL SWAP1 DUP2 ISZERO PUSH2 0x607 JUMPI SWAP1 PUSH2 0x298D SWAP2 DUP4 SWAP2 PUSH2 0x3201 JUMPI JUMPDEST POP PUSH2 0x4EF9 JUMP JUMPDEST PUSH8 0xDE0B6B3A7640000 CALLVALUE LT PUSH2 0x31C5 JUMPI PUSH1 0x3C PUSH1 0xE4 CALLDATALOAD MUL PUSH1 0xE4 CALLDATALOAD DUP2 DIV PUSH1 0x3C EQ PUSH1 0xE4 CALLDATALOAD ISZERO OR ISZERO PUSH2 0x305A JUMPI PUSH2 0x29BE SWAP1 TIMESTAMP PUSH2 0x4F68 JUMP JUMPDEST SWAP1 PUSH2 0x104 CALLDATALOAD PUSH1 0x3C PUSH2 0x104 CALLDATALOAD MUL DIV PUSH1 0x3C EQ PUSH2 0x104 CALLDATALOAD ISZERO OR ISZERO PUSH2 0x12EF JUMPI PUSH2 0x29E9 PUSH1 0x3C PUSH2 0x104 CALLDATALOAD MUL TIMESTAMP PUSH2 0x4F68 JUMP JUMPDEST PUSH2 0x124 CALLDATALOAD PUSH2 0x31AF JUMPI DUP1 SWAP2 JUMPDEST PUSH1 0x9 SLOAD SWAP5 PUSH2 0x2A01 DUP7 PUSH2 0x4F75 JUMP JUMPDEST PUSH1 0x9 SSTORE PUSH1 0x40 MLOAD SWAP1 PUSH2 0x2A11 DUP3 PUSH2 0x4CCE JUMP JUMPDEST CALLER DUP3 MSTORE DUP8 PUSH1 0x20 DUP4 ADD MSTORE PUSH1 0x24 CALLDATALOAD ISZERO ISZERO PUSH1 0x40 DUP4 ADD MSTORE PUSH1 0x44 CALLDATALOAD PUSH1 0x60 DUP4 ADD MSTORE PUSH1 0x1 DUP1 PUSH1 0xA0 SHL SUB PUSH1 0x64 CALLDATALOAD AND PUSH1 0x80 DUP4 ADD MSTORE PUSH1 0x84 CALLDATALOAD PUSH1 0xA0 DUP4 ADD MSTORE PUSH1 0xA4 CALLDATALOAD PUSH1 0xC0 DUP4 ADD MSTORE PUSH1 0xC4 CALLDATALOAD PUSH1 0xE0 DUP4 ADD MSTORE TIMESTAMP PUSH2 0x100 DUP4 ADD MSTORE DUP6 PUSH2 0x120 DUP4 ADD MSTORE DUP4 PUSH2 0x140 DUP4 ADD MSTORE DUP5 PUSH2 0x160 DUP4 ADD MSTORE DUP3 PUSH2 0x180 DUP4 ADD MSTORE DUP3 PUSH2 0x1A0 DUP4 ADD MSTORE DUP3 PUSH2 0x1C0 DUP4 ADD MSTORE PUSH2 0x2A96 PUSH2 0x124 CALLDATALOAD PUSH2 0x1E0 DUP5 ADD PUSH2 0x4F90 JUMP JUMPDEST PUSH1 0x1 PUSH1 0x1 PUSH1 0xA0 SHL SUB SWAP1 DUP2 AND PUSH2 0x200 DUP4 ADD MSTORE PUSH2 0x164 CALLDATALOAD PUSH2 0x220 DUP4 ADD MSTORE PUSH2 0x240 DUP3 ADD DUP4 SWAP1 MSTORE PUSH2 0x260 DUP3 ADD DUP4 SWAP1 MSTORE DUP7 DUP4 MSTORE PUSH1 0x1 PUSH1 0x20 SWAP1 DUP2 MSTORE PUSH1 0x40 DUP5 KECCAK256 DUP4 MLOAD DUP2 SLOAD PUSH1 0x1 PUSH1 0x1 PUSH1 0xA0 SHL SUB NOT AND SWAP4 AND SWAP3 SWAP1 SWAP3 OR DUP3 SSTORE DUP3 ADD MLOAD DUP1 MLOAD SWAP2 SWAP3 SWAP2 SWAP1 PUSH1 0x1 PUSH1 0x1 PUSH1 0x40 SHL SUB DUP3 GT PUSH2 0x319B JUMPI DUP2 SWAP1 PUSH2 0x2B0B PUSH1 0x1 DUP7 ADD SLOAD PUSH2 0x4D90 JUMP JUMPDEST PUSH1 0x1F DUP2 GT PUSH2 0x315D JUMPI JUMPDEST POP PUSH1 0x20 SWAP1 PUSH1 0x1F DUP4 GT PUSH1 0x1 EQ PUSH2 0x30EE JUMPI DUP7 SWAP3 PUSH2 0x30E3 JUMPI JUMPDEST POP POP DUP2 PUSH1 0x1 SHL SWAP2 PUSH1 0x0 NOT SWAP1 PUSH1 0x3 SHL SHR NOT AND OR PUSH1 0x1 DUP4 ADD SSTORE JUMPDEST PUSH2 0x2B55 PUSH1 0x40 DUP3 ADD MLOAD ISZERO ISZERO PUSH1 0x2 DUP5 ADD PUSH2 0x4FB3 JUMP JUMPDEST PUSH1 0x60 DUP2 ADD MLOAD PUSH1 0x3 DUP4 ADD SSTORE PUSH1 0x4 DUP3 ADD PUSH1 0x1 DUP1 PUSH1 0xA0 SHL SUB PUSH1 0x80 DUP4 ADD MLOAD AND PUSH1 0x1 DUP1 PUSH1 0xA0 SHL SUB NOT DUP3 SLOAD AND OR SWAP1 SSTORE PUSH1 0xA0 DUP2 ADD MLOAD PUSH1 0x5 DUP4 ADD SSTORE PUSH1 0xC0 DUP2 ADD MLOAD PUSH1 0x6 DUP4 ADD SSTORE PUSH1 0xE0 DUP2 ADD MLOAD PUSH1 0x7 DUP4 ADD SSTORE PUSH2 0x100 DUP2 ADD MLOAD PUSH1 0x8 DUP4 ADD SSTORE PUSH2 0x120 DUP2 ADD MLOAD PUSH1 0x9 DUP4 ADD SSTORE PUSH2 0x140 DUP2 ADD MLOAD PUSH1 0xA DUP4 ADD SSTORE PUSH2 0x160 DUP2 ADD MLOAD PUSH1 0xB DUP4 ADD SSTORE PUSH1 0xC DUP3 ADD PUSH2 0x180 DUP3 ADD MLOAD PUSH1 0x5 DUP2 LT ISZERO PUSH2 0x30CF JUMPI PUSH1 0xFF DUP1 NOT DUP4 SLOAD AND SWAP2 AND OR SWAP1 SSTORE PUSH2 0x1A0 DUP2 ADD MLOAD PUSH1 0xD DUP4 ADD SSTORE PUSH1 0xE DUP3 ADD PUSH2 0x2C07 PUSH2 0x1C0 DUP4 ADD MLOAD ISZERO ISZERO DUP3 PUSH2 0x4FB3 JUMP JUMPDEST PUSH2 0x1E0 DUP3 ADD MLOAD PUSH1 0x2 DUP2 LT ISZERO PUSH2 0x30CF JUMPI DUP2 SLOAD PUSH2 0x200 DUP5 ADD MLOAD PUSH2 0x100 PUSH1 0x1 PUSH1 0xB0 SHL SUB NOT SWAP1 SWAP2 AND PUSH1 0x8 SWAP3 SWAP1 SWAP3 SHL PUSH2 0xFF00 AND SWAP2 SWAP1 SWAP2 OR PUSH1 0x10 SWAP2 DUP3 SHL PUSH3 0x10000 PUSH1 0x1 PUSH1 0xB0 SHL SUB AND OR SWAP1 SWAP2 SSTORE PUSH2 0x220 DUP3 ADD MLOAD PUSH1 0xF DUP5 ADD SSTORE PUSH2 0x240 DUP3 ADD MLOAD SWAP1 DUP4 ADD SSTORE PUSH2 0x260 ADD MLOAD PUSH2 0x2C77 SWAP2 SWAP1 ISZERO ISZERO SWAP1 PUSH1 0x11 ADD PUSH2 0x4FB3 JUMP JUMPDEST PUSH1 0xA SLOAD PUSH1 0x1 PUSH1 0x40 SHL DUP2 LT ISZERO PUSH2 0x30B9 JUMPI PUSH2 0x2CB1 PUSH2 0x2C9A DUP3 PUSH1 0x1 DUP10 SWAP5 ADD PUSH1 0xA SSTORE PUSH2 0x4AB8 JUMP JUMPDEST DUP2 SWAP4 SWAP2 SLOAD SWAP1 PUSH1 0x3 SHL SWAP2 DUP3 SHL SWAP2 PUSH1 0x0 NOT SWAP1 SHL NOT AND OR SWAP1 JUMP JUMPDEST SWAP1 SSTORE DUP5 DUP2 MSTORE PUSH1 0xB PUSH1 0x20 MSTORE PUSH1 0x40 DUP2 KECCAK256 DUP1 SLOAD PUSH1 0xFF NOT AND PUSH1 0x1 OR SWAP1 SSTORE PUSH1 0x64 CALLDATALOAD PUSH1 0x1 PUSH1 0x1 PUSH1 0xA0 SHL SUB AND PUSH2 0x306E JUMPI PUSH1 0xA4 CALLDATALOAD PUSH8 0xDE0B6B3A7640000 ADD DUP1 PUSH8 0xDE0B6B3A7640000 GT PUSH2 0x305A JUMPI CALLVALUE LT PUSH2 0x301D JUMPI PUSH2 0x2D26 DUP2 DUP1 DUP1 DUP1 PUSH8 0xDE0B6B3A7640000 PUSH1 0x1 DUP1 PUSH1 0xA0 SHL SUB DUP3 SLOAD AND GAS CALL PUSH2 0x2D20 PUSH2 0x4FEA JUMP JUMPDEST POP PUSH2 0x501A JUMP JUMPDEST DUP1 DUP1 DUP1 DUP1 PUSH1 0xA4 CALLDATALOAD PUSH1 0x1 DUP1 PUSH1 0xA0 SHL SUB PUSH1 0x7 SLOAD AND GAS CALL PUSH2 0x2D42 PUSH2 0x4FEA JUMP JUMPDEST POP ISZERO PUSH2 0x2FC0 JUMPI JUMPDEST DUP5 DUP2 MSTORE PUSH1 0x2 PUSH1 0x20 MSTORE PUSH1 0x40 DUP2 KECCAK256 CALLER PUSH1 0x0 MSTORE PUSH1 0x20 MSTORE PUSH1 0x40 PUSH1 0x0 KECCAK256 PUSH1 0x1 PUSH1 0xFF NOT DUP3 SLOAD AND OR SWAP1 SSTORE DUP5 DUP2 MSTORE PUSH1 0x4 PUSH1 0x20 MSTORE PUSH1 0x40 DUP2 KECCAK256 CALLER PUSH1 0x0 MSTORE PUSH1 0x20 MSTORE PUSH1 0xC4 CALLDATALOAD PUSH1 0x40 PUSH1 0x0 KECCAK256 SSTORE CALLER DUP2 MSTORE PUSH1 0xC PUSH1 0x20 MSTORE PUSH2 0x2D9D DUP6 PUSH1 0x40 DUP4 KECCAK256 PUSH2 0x4FC4 JUMP JUMPDEST PUSH1 0x7 SLOAD PUSH1 0x1 PUSH1 0x1 PUSH1 0xA0 SHL SUB AND DUP1 EXTCODESIZE ISZERO PUSH2 0x3C1 JUMPI DUP2 PUSH1 0x40 MLOAD DUP1 SWAP3 PUSH4 0x95F41095 PUSH1 0xE0 SHL DUP3 MSTORE DUP2 DUP4 DUP2 PUSH2 0x2DDD PUSH1 0xC4 CALLDATALOAD DUP14 PUSH1 0xA4 CALLDATALOAD SWAP1 PUSH1 0x64 CALLDATALOAD SWAP1 CALLER SWAP1 PUSH1 0x4 DUP8 ADD PUSH2 0x5065 JUMP JUMPDEST SUB SWAP3 GAS CALL DUP1 ISZERO PUSH2 0x607 JUMPI SWAP1 DUP3 SWAP2 PUSH2 0x2FAC JUMPI JUMPDEST POP POP PUSH1 0x8 SLOAD PUSH1 0x40 MLOAD PUSH4 0x406AD645 PUSH1 0xE1 SHL DUP2 MSTORE SWAP1 PUSH1 0x20 SWAP1 DUP3 SWAP1 PUSH1 0x4 SWAP1 DUP3 SWAP1 PUSH1 0x1 PUSH1 0x1 PUSH1 0xA0 SHL SUB AND GAS STATICCALL SWAP1 DUP2 ISZERO PUSH2 0x607 JUMPI DUP3 SWAP2 PUSH2 0x2F8D JUMPI JUMPDEST POP PUSH1 0x1 PUSH1 0x1 PUSH1 0xA0 SHL SUB DUP2 AND PUSH2 0x2EC7 JUMPI JUMPDEST POP POP PUSH1 0x20 SWAP5 DUP5 SWAP3 PUSH32 0x5D0726A1BB5EC8C87527E69BA86D988202E885FAD8F2B4AACD618793D6F297B2 SWAP3 PUSH2 0x2E75 PUSH1 0x40 MLOAD SWAP4 PUSH2 0x120 DUP6 MSTORE PUSH2 0x120 DUP6 ADD SWAP1 PUSH2 0x4B24 JUMP JUMPDEST PUSH1 0x24 CALLDATALOAD ISZERO ISZERO DUP5 DUP11 ADD MSTORE PUSH1 0x44 CALLDATALOAD PUSH1 0x40 DUP6 ADD MSTORE PUSH1 0x64 CALLDATALOAD PUSH1 0x1 PUSH1 0x1 PUSH1 0xA0 SHL SUB AND PUSH1 0x60 DUP6 ADD MSTORE PUSH1 0x84 CALLDATALOAD PUSH1 0x80 DUP6 ADD MSTORE TIMESTAMP PUSH1 0xA0 DUP6 ADD MSTORE PUSH1 0xC0 DUP5 ADD SWAP7 SWAP1 SWAP7 MSTORE PUSH1 0xE0 DUP4 ADD MSTORE PUSH2 0x100 DUP3 ADD MSTORE CALLER SWAP4 DUP2 SWAP1 SUB SWAP1 LOG3 PUSH1 0x40 MLOAD SWAP1 DUP2 MSTORE RETURN JUMPDEST PUSH1 0x1 PUSH1 0x1 PUSH1 0xA0 SHL SUB DUP2 AND EXTCODESIZE ISZERO PUSH2 0x3C1 JUMPI PUSH1 0x40 MLOAD PUSH4 0x782A7805 PUSH1 0xE1 SHL DUP2 MSTORE DUP3 DUP2 DUP1 PUSH2 0x2EF5 CALLER DUP12 PUSH1 0x4 DUP5 ADD PUSH2 0x50B4 JUMP JUMPDEST SUB DUP2 DUP4 PUSH1 0x1 PUSH1 0x1 PUSH1 0xA0 SHL SUB DUP8 AND GAS CALL DUP1 ISZERO PUSH2 0x63F JUMPI SWAP1 DUP4 SWAP2 PUSH2 0x2F79 JUMPI JUMPDEST POP POP PUSH1 0x1 PUSH1 0x1 PUSH1 0xA0 SHL SUB DUP2 AND EXTCODESIZE ISZERO PUSH2 0x3C1 JUMPI PUSH1 0x40 MLOAD PUSH4 0xC228038D PUSH1 0xE0 SHL DUP2 MSTORE SWAP1 DUP3 SWAP1 DUP3 SWAP1 DUP2 DUP4 DUP2 PUSH2 0x2F4D PUSH1 0xA4 CALLDATALOAD PUSH1 0xC4 CALLDATALOAD CALLER DUP16 PUSH1 0x4 DUP7 ADD PUSH2 0x50CD JUMP JUMPDEST SUB SWAP3 PUSH1 0x1 PUSH1 0x1 PUSH1 0xA0 SHL SUB AND GAS CALL DUP1 ISZERO PUSH2 0x607 JUMPI ISZERO PUSH2 0x2E35 JUMPI PUSH2 0x2F6F DUP3 SWAP2 PUSH2 0x4CBB JUMP JUMPDEST PUSH2 0x280 JUMPI DUP1 PUSH2 0x2E35 JUMP JUMPDEST PUSH2 0x2F82 SWAP1 PUSH2 0x4CBB JUMP JUMPDEST PUSH2 0x3C1 JUMPI DUP2 CODESIZE PUSH2 0x2F12 JUMP JUMPDEST PUSH2 0x2FA6 SWAP2 POP PUSH1 0x20 RETURNDATASIZE PUSH1 0x20 GT PUSH2 0x638 JUMPI PUSH2 0x62A DUP2 DUP4 PUSH2 0x4D05 JUMP JUMPDEST CODESIZE PUSH2 0x2E25 JUMP JUMPDEST PUSH2 0x2FB5 SWAP1 PUSH2 0x4CBB JUMP JUMPDEST PUSH2 0x280 JUMPI DUP1 CODESIZE PUSH2 0x2DEF JUMP JUMPDEST PUSH1 0x40 MLOAD PUSH3 0x461BCD PUSH1 0xE5 SHL DUP2 MSTORE PUSH1 0x20 PUSH1 0x4 DUP3 ADD MSTORE PUSH1 0x2F PUSH1 0x24 DUP3 ADD MSTORE PUSH32 0x45503A2043726561746F72206465706F736974207472616E7366657220746F20 PUSH1 0x44 DUP3 ADD MSTORE PUSH15 0x151C99585CDD5C9E4819985A5B1959 PUSH1 0x8A SHL PUSH1 0x64 DUP3 ADD MSTORE PUSH1 0x84 SWAP1 REVERT JUMPDEST PUSH1 0x40 MLOAD PUSH3 0x461BCD PUSH1 0xE5 SHL DUP2 MSTORE PUSH1 0x20 PUSH1 0x4 DUP3 ADD MSTORE PUSH1 0x15 PUSH1 0x24 DUP3 ADD MSTORE PUSH21 0x45503A20496E73756666696369656E742050455055 PUSH1 0x58 SHL PUSH1 0x44 DUP3 ADD MSTORE PUSH1 0x64 SWAP1 REVERT JUMPDEST PUSH4 0x4E487B71 PUSH1 0xE0 SHL DUP3 MSTORE PUSH1 0x11 PUSH1 0x4 MSTORE PUSH1 0x24 DUP3 REVERT JUMPDEST PUSH2 0x3092 DUP2 DUP1 DUP1 DUP1 PUSH8 0xDE0B6B3A7640000 PUSH1 0x1 DUP1 PUSH1 0xA0 SHL SUB DUP3 SLOAD AND GAS CALL PUSH2 0x2D20 PUSH2 0x4FEA JUMP JUMPDEST PUSH1 0x7 SLOAD PUSH2 0x30B4 SWAP1 PUSH1 0xA4 CALLDATALOAD SWAP1 PUSH1 0x1 PUSH1 0x1 PUSH1 0xA0 SHL SUB SWAP1 DUP2 AND SWAP1 CALLER SWAP1 PUSH1 0x64 CALLDATALOAD AND PUSH2 0x5113 JUMP JUMPDEST PUSH2 0x2D49 JUMP JUMPDEST PUSH4 0x4E487B71 PUSH1 0xE0 SHL PUSH1 0x0 MSTORE PUSH1 0x41 PUSH1 0x4 MSTORE PUSH1 0x24 PUSH1 0x0 REVERT JUMPDEST PUSH4 0x4E487B71 PUSH1 0xE0 SHL DUP6 MSTORE PUSH1 0x21 PUSH1 0x4 MSTORE PUSH1 0x24 DUP6 REVERT JUMPDEST ADD MLOAD SWAP1 POP CODESIZE DUP1 PUSH2 0x2B2A JUMP JUMPDEST SWAP3 POP PUSH1 0x1 DUP6 ADD DUP7 MSTORE PUSH1 0x20 DUP7 KECCAK256 SWAP1 DUP7 SWAP4 JUMPDEST PUSH1 0x1F NOT DUP5 AND DUP6 LT PUSH2 0x3142 JUMPI PUSH1 0x1 SWAP5 POP DUP4 PUSH1 0x1F NOT DUP2 AND LT PUSH2 0x3129 JUMPI JUMPDEST POP POP POP DUP2 SHL ADD PUSH1 0x1 DUP4 ADD SSTORE PUSH2 0x2B42 JUMP JUMPDEST ADD MLOAD PUSH1 0x0 NOT PUSH1 0xF8 DUP5 PUSH1 0x3 SHL AND SHR NOT AND SWAP1 SSTORE CODESIZE DUP1 DUP1 PUSH2 0x3119 JUMP JUMPDEST DUP2 DUP2 ADD MLOAD DUP4 SSTORE PUSH1 0x20 SWAP5 DUP6 ADD SWAP5 PUSH1 0x1 SWAP1 SWAP4 ADD SWAP3 SWAP1 SWAP2 ADD SWAP1 PUSH2 0x30FE JUMP JUMPDEST PUSH2 0x318B SWAP1 PUSH1 0x1 DUP8 ADD DUP9 MSTORE PUSH1 0x20 DUP9 KECCAK256 PUSH1 0x1F DUP6 ADD PUSH1 0x5 SHR DUP2 ADD SWAP2 PUSH1 0x20 DUP7 LT PUSH2 0x3191 JUMPI JUMPDEST PUSH1 0x1F ADD PUSH1 0x5 SHR ADD SWAP1 PUSH2 0x4F9C JUMP JUMPDEST CODESIZE PUSH2 0x2B14 JUMP JUMPDEST SWAP1 SWAP2 POP DUP2 SWAP1 PUSH2 0x317E JUMP JUMPDEST PUSH4 0x4E487B71 PUSH1 0xE0 SHL DUP6 MSTORE PUSH1 0x41 PUSH1 0x4 MSTORE PUSH1 0x24 DUP6 REVERT JUMPDEST PUSH2 0xC4E0 DUP2 ADD DUP2 GT PUSH2 0x305A JUMPI PUSH2 0xC4E0 DUP2 ADD SWAP2 PUSH2 0x29F4 JUMP JUMPDEST PUSH1 0x40 MLOAD PUSH3 0x461BCD PUSH1 0xE5 SHL DUP2 MSTORE PUSH1 0x20 PUSH1 0x4 DUP3 ADD MSTORE PUSH1 0x14 PUSH1 0x24 DUP3 ADD MSTORE PUSH20 0x45503A20496E73756666696369656E7420666565 PUSH1 0x60 SHL PUSH1 0x44 DUP3 ADD MSTORE PUSH1 0x64 SWAP1 REVERT JUMPDEST PUSH2 0x321A SWAP2 POP PUSH1 0x20 RETURNDATASIZE PUSH1 0x20 GT PUSH2 0x81A JUMPI PUSH2 0x80C DUP2 DUP4 PUSH2 0x4D05 JUMP JUMPDEST CODESIZE PUSH2 0x2987 JUMP JUMPDEST PUSH1 0x64 PUSH1 0x40 MLOAD PUSH3 0x461BCD PUSH1 0xE5 SHL DUP2 MSTORE PUSH1 0x20 PUSH1 0x4 DUP3 ADD MSTORE PUSH1 0x20 PUSH1 0x24 DUP3 ADD MSTORE PUSH32 0x45503A204D756C74692D6F7074696F6E206E656564732050325020746F6B656E PUSH1 0x44 DUP3 ADD MSTORE REVERT JUMPDEST PUSH1 0x64 CALLDATALOAD PUSH1 0x1 PUSH1 0x1 PUSH1 0xA0 SHL SUB AND PUSH2 0x327B JUMPI JUMPDEST POP PUSH2 0x298D JUMP JUMPDEST PUSH1 0x40 MLOAD PUSH4 0x34625613 PUSH1 0xE1 SHL DUP2 MSTORE PUSH1 0x64 CALLDATALOAD PUSH1 0x1 PUSH1 0x1 PUSH1 0xA0 SHL SUB AND PUSH1 0x4 DUP3 ADD MSTORE SWAP1 PUSH1 0x20 SWAP1 DUP3 SWAP1 PUSH1 0x24 SWAP1 DUP3 SWAP1 GAS STATICCALL SWAP1 DUP2 ISZERO PUSH2 0x607 JUMPI SWAP1 PUSH2 0x32BE SWAP2 DUP4 SWAP2 PUSH2 0x3201 JUMPI POP PUSH2 0x4EF9 JUMP JUMPDEST CODESIZE PUSH2 0x3275 JUMP JUMPDEST PUSH1 0x40 MLOAD PUSH3 0x461BCD PUSH1 0xE5 SHL DUP2 MSTORE PUSH1 0x20 PUSH1 0x4 DUP3 ADD MSTORE PUSH1 0x1A PUSH1 0x24 DUP3 ADD MSTORE PUSH26 0x45503A205265736F6C7574696F6E206166746572207374616B65 PUSH1 0x30 SHL PUSH1 0x44 DUP3 ADD MSTORE PUSH1 0x64 SWAP1 REVERT JUMPDEST PUSH1 0x40 MLOAD PUSH3 0x461BCD PUSH1 0xE5 SHL DUP2 MSTORE PUSH1 0x20 PUSH1 0x4 DUP3 ADD MSTORE PUSH1 0x10 PUSH1 0x24 DUP3 ADD MSTORE PUSH16 0x22A81D1026B4B710323AB930BA34B7B7 PUSH1 0x81 SHL PUSH1 0x44 DUP3 ADD MSTORE PUSH1 0x64 SWAP1 REVERT JUMPDEST SWAP1 POP PUSH1 0x20 DUP2 RETURNDATASIZE PUSH1 0x20 GT PUSH2 0x3368 JUMPI JUMPDEST DUP2 PUSH2 0x3359 PUSH1 0x20 SWAP4 DUP4 PUSH2 0x4D05 JUMP JUMPDEST DUP2 ADD SUB SLT PUSH2 0x7DD JUMPI MLOAD CODESIZE PUSH2 0x291B JUMP JUMPDEST RETURNDATASIZE SWAP2 POP PUSH2 0x334C JUMP JUMPDEST PUSH1 0x1 PUSH1 0x1 PUSH1 0xA0 SHL SUB DUP4 AND ISZERO PUSH2 0x33CB JUMPI PUSH2 0x164 CALLDATALOAD PUSH2 0x28F7 JUMPI PUSH1 0x40 MLOAD PUSH3 0x461BCD PUSH1 0xE5 SHL DUP2 MSTORE PUSH1 0x20 PUSH1 0x4 DUP3 ADD MSTORE PUSH1 0x1C PUSH1 0x24 DUP3 ADD MSTORE PUSH28 0x11540E88141C9A58D9481D1A1C995CDA1BDB19081C995C5D5A5C9959 PUSH1 0x22 SHL PUSH1 0x44 DUP3 ADD MSTORE PUSH1 0x64 SWAP1 REVERT JUMPDEST PUSH1 0x40 MLOAD PUSH3 0x461BCD PUSH1 0xE5 SHL DUP2 MSTORE PUSH1 0x20 PUSH1 0x4 DUP3 ADD MSTORE PUSH1 0x17 PUSH1 0x24 DUP3 ADD MSTORE PUSH23 0x11540E88141C9A58D94819995959081C995C5D5A5C9959 PUSH1 0x4A SHL PUSH1 0x44 DUP3 ADD MSTORE PUSH1 0x64 SWAP1 REVERT JUMPDEST PUSH1 0x40 MLOAD PUSH3 0x461BCD PUSH1 0xE5 SHL DUP2 MSTORE PUSH1 0x20 PUSH1 0x4 DUP3 ADD MSTORE PUSH1 0x13 PUSH1 0x24 DUP3 ADD MSTORE PUSH19 0x45503A20496E76616C6964206F7574636F6D65 PUSH1 0x68 SHL PUSH1 0x44 DUP3 ADD MSTORE PUSH1 0x64 SWAP1 REVERT JUMPDEST POP PUSH1 0x44 CALLDATALOAD PUSH1 0xC4 CALLDATALOAD GT ISZERO PUSH2 0x28E8 JUMP JUMPDEST PUSH1 0x40 MLOAD PUSH3 0x461BCD PUSH1 0xE5 SHL DUP2 MSTORE PUSH1 0x20 PUSH1 0x4 DUP3 ADD MSTORE PUSH1 0x13 PUSH1 0x24 DUP3 ADD MSTORE PUSH19 0x11540E88125B9D985B1A590819195C1BDCDA5D PUSH1 0x6A SHL PUSH1 0x44 DUP3 ADD MSTORE PUSH1 0x64 SWAP1 REVERT JUMPDEST PUSH1 0x40 MLOAD PUSH3 0x461BCD PUSH1 0xE5 SHL DUP2 MSTORE PUSH1 0x20 PUSH1 0x4 DUP3 ADD MSTORE PUSH1 0x11 PUSH1 0x24 DUP3 ADD MSTORE PUSH17 0x45503A20496E76616C6964207374616B65 PUSH1 0x78 SHL PUSH1 0x44 DUP3 ADD MSTORE PUSH1 0x64 SWAP1 REVERT JUMPDEST PUSH1 0x40 MLOAD PUSH3 0x461BCD PUSH1 0xE5 SHL DUP2 MSTORE PUSH1 0x20 PUSH1 0x4 DUP3 ADD MSTORE PUSH1 0x13 PUSH1 0x24 DUP3 ADD MSTORE PUSH19 0x45503A20496E76616C6964206F7074696F6E73 PUSH1 0x68 SHL PUSH1 0x44 DUP3 ADD MSTORE PUSH1 0x64 SWAP1 REVERT JUMPDEST POP PUSH1 0xA PUSH1 0x44 CALLDATALOAD GT ISZERO PUSH2 0x28C8 JUMP JUMPDEST PUSH1 0x40 MLOAD PUSH3 0x461BCD PUSH1 0xE5 SHL DUP2 MSTORE PUSH1 0x20 PUSH1 0x4 DUP3 ADD MSTORE PUSH1 0x10 PUSH1 0x24 DUP3 ADD MSTORE PUSH16 0x8AA0744092DCECC2D8D2C840D0C2E6D PUSH1 0x83 SHL PUSH1 0x44 DUP3 ADD MSTORE PUSH1 0x64 SWAP1 REVERT JUMPDEST PUSH2 0xCD8 SWAP2 POP PUSH1 0x20 RETURNDATASIZE PUSH1 0x20 GT PUSH2 0x81A JUMPI PUSH2 0x80C DUP2 DUP4 PUSH2 0x4D05 JUMP JUMPDEST POP CALLVALUE PUSH2 0x280 JUMPI DUP1 PUSH1 0x3 NOT CALLDATASIZE ADD SLT PUSH2 0x280 JUMPI PUSH1 0x7 SLOAD PUSH1 0x40 MLOAD PUSH1 0x1 PUSH1 0x1 PUSH1 0xA0 SHL SUB SWAP1 SWAP2 AND DUP2 MSTORE PUSH1 0x20 SWAP1 RETURN JUMPDEST POP CALLVALUE PUSH2 0x280 JUMPI PUSH1 0x20 CALLDATASIZE PUSH1 0x3 NOT ADD SLT PUSH2 0x280 JUMPI PUSH1 0x4 CALLDATALOAD DUP1 DUP3 MSTORE PUSH1 0x1 PUSH1 0x20 MSTORE PUSH1 0x40 DUP3 KECCAK256 SWAP1 PUSH1 0xE DUP3 ADD SLOAD SWAP2 PUSH1 0xFF DUP4 PUSH1 0x8 SHR AND PUSH1 0x2 DUP2 LT ISZERO PUSH2 0x30CF JUMPI SWAP1 PUSH2 0x35D0 PUSH1 0x1 PUSH1 0x10 SWAP4 EQ PUSH2 0x54AB JUMP JUMPDEST PUSH2 0x35E0 PUSH1 0xFF PUSH1 0x11 DUP4 ADD SLOAD AND PUSH2 0x54EF JUMP JUMPDEST ADD SWAP2 PUSH1 0xFF DUP4 SLOAD SWAP2 PUSH2 0x35F2 DUP4 ISZERO ISZERO PUSH2 0x5533 JUMP JUMPDEST AND PUSH2 0x3680 JUMPI PUSH1 0xD SLOAD DUP5 SWAP2 PUSH1 0x1 PUSH1 0x1 PUSH1 0xA0 SHL SUB SWAP1 SWAP2 AND SWAP1 DUP2 EXTCODESIZE ISZERO PUSH2 0x2036 JUMPI DUP3 SWAP2 PUSH1 0x44 DUP4 SWAP3 PUSH1 0x40 MLOAD SWAP5 DUP6 SWAP4 DUP5 SWAP3 PUSH4 0xA6A22B43 PUSH1 0xE0 SHL DUP5 MSTORE PUSH1 0x4 DUP5 ADD MSTORE CALLER PUSH1 0x24 DUP5 ADD MSTORE GAS CALL DUP1 ISZERO PUSH2 0x607 JUMPI PUSH2 0x366C JUMPI JUMPDEST POP POP CALLER SWAP2 SLOAD SWAP1 PUSH32 0x8764C70BA5E4AE969C50093A5CB46E29238FB82E4B7EB17D22A8102996B01C8A DUP5 DUP1 LOG4 DUP1 RETURN JUMPDEST PUSH2 0x3675 SWAP1 PUSH2 0x4CBB JUMP JUMPDEST PUSH2 0x2036 JUMPI DUP3 CODESIZE PUSH2 0x363F JUMP JUMPDEST PUSH1 0x40 MLOAD PUSH3 0x461BCD PUSH1 0xE5 SHL DUP2 MSTORE PUSH1 0x20 PUSH1 0x4 DUP3 ADD MSTORE PUSH1 0x14 PUSH1 0x24 DUP3 ADD MSTORE PUSH20 0x11540E88105B1C9958591E481C995CDBDB1D9959 PUSH1 0x62 SHL PUSH1 0x44 DUP3 ADD MSTORE PUSH1 0x64 SWAP1 REVERT JUMPDEST POP CALLVALUE PUSH2 0x280 JUMPI PUSH1 0x20 DUP1 PUSH1 0x3 NOT CALLDATASIZE ADD SLT PUSH2 0x3C1 JUMPI PUSH1 0x4 CALLDATALOAD DUP1 DUP4 MSTORE PUSH1 0x1 DUP3 MSTORE PUSH1 0x40 DUP4 KECCAK256 SWAP2 PUSH1 0xFF PUSH1 0xC DUP5 ADD SLOAD AND PUSH1 0x5 DUP2 LT ISZERO PUSH2 0x30CF JUMPI PUSH1 0x3 SUB PUSH2 0x39E4 JUMPI DUP2 DUP5 MSTORE PUSH1 0x2 DUP2 MSTORE PUSH1 0x40 DUP5 KECCAK256 CALLER PUSH1 0x0 MSTORE DUP2 MSTORE PUSH1 0xFF PUSH1 0x40 PUSH1 0x0 KECCAK256 SLOAD AND DUP1 ISZERO PUSH2 0x39C4 JUMPI JUMPDEST ISZERO PUSH2 0x3987 JUMPI DUP4 SWAP3 DUP3 DUP6 MSTORE PUSH1 0x2 DUP3 MSTORE PUSH1 0x40 DUP6 KECCAK256 CALLER PUSH1 0x0 MSTORE DUP3 MSTORE PUSH1 0xFF PUSH1 0x40 PUSH1 0x0 KECCAK256 SLOAD AND PUSH2 0x38E1 JUMPI JUMPDEST DUP3 DUP6 MSTORE PUSH1 0x3 DUP3 MSTORE PUSH1 0x40 DUP6 KECCAK256 CALLER PUSH1 0x0 MSTORE DUP3 MSTORE PUSH1 0xFF PUSH1 0x40 PUSH1 0x0 KECCAK256 SLOAD AND PUSH2 0x3839 JUMPI JUMPDEST DUP4 ISZERO PUSH2 0x37FA JUMPI PUSH1 0x7 SLOAD PUSH1 0x4 SWAP1 SWAP2 ADD SLOAD DUP6 SWAP2 PUSH1 0x1 PUSH1 0x1 PUSH1 0xA0 SHL SUB SWAP2 DUP3 AND SWAP2 AND DUP1 EXTCODESIZE ISZERO PUSH2 0x2036 JUMPI DUP6 DUP4 SWAP2 PUSH2 0x37A7 SWAP4 DUP4 PUSH1 0x40 MLOAD DUP1 SWAP7 DUP2 SWAP6 DUP3 SWAP5 PUSH4 0x164FCD7D PUSH1 0xE2 SHL DUP5 MSTORE CALLER DUP14 PUSH1 0x4 DUP7 ADD PUSH2 0x538F JUMP JUMPDEST SUB SWAP3 GAS CALL DUP1 ISZERO PUSH2 0x607 JUMPI PUSH2 0x37E6 JUMPI JUMPDEST POP POP PUSH32 0xF3F402280EF0A7905E124AA621B65EAEB2725C343E8B36D398ED78C29DAF285C SWAP1 PUSH1 0x40 MLOAD SWAP4 DUP5 MSTORE CALLER SWAP4 LOG3 DUP1 RETURN JUMPDEST PUSH2 0x37EF SWAP1 PUSH2 0x4CBB JUMP JUMPDEST PUSH2 0x603 JUMPI DUP4 CODESIZE PUSH2 0x37B6 JUMP JUMPDEST PUSH1 0x40 MLOAD PUSH3 0x461BCD PUSH1 0xE5 SHL DUP2 MSTORE PUSH1 0x4 DUP2 ADD DUP4 SWAP1 MSTORE PUSH1 0x17 PUSH1 0x24 DUP3 ADD MSTORE PUSH23 0x45503A204E6F20726566756E6420617661696C61626C65 PUSH1 0x48 SHL PUSH1 0x44 DUP3 ADD MSTORE PUSH1 0x64 SWAP1 REVERT JUMPDEST SWAP3 PUSH2 0x3870 SWAP1 DUP3 PUSH1 0x1 DUP1 PUSH1 0xA0 SHL SUB DUP1 PUSH1 0x7 SLOAD AND SWAP1 PUSH1 0x4 DUP9 ADD SLOAD AND SWAP1 PUSH1 0x40 MLOAD DUP1 DUP1 SWAP7 DUP2 SWAP5 PUSH4 0x256BA741 PUSH1 0xE0 SHL DUP4 MSTORE CALLER DUP12 PUSH1 0x4 DUP6 ADD PUSH2 0x5400 JUMP JUMPDEST SUB SWAP2 GAS STATICCALL SWAP1 DUP2 ISZERO PUSH2 0xCB6 JUMPI DUP7 SWAP2 PUSH2 0x38B0 JUMPI JUMPDEST PUSH2 0x388C SWAP3 POP PUSH2 0x4F68 JUMP JUMPDEST SWAP3 DUP3 DUP6 MSTORE PUSH1 0x3 DUP3 MSTORE PUSH1 0x40 DUP6 KECCAK256 CALLER PUSH1 0x0 MSTORE DUP3 MSTORE PUSH1 0x40 PUSH1 0x0 KECCAK256 PUSH1 0xFF NOT DUP2 SLOAD AND SWAP1 SSTORE PUSH2 0x375C JUMP JUMPDEST SWAP1 POP DUP3 DUP3 DUP2 RETURNDATASIZE DUP4 GT PUSH2 0x38DA JUMPI JUMPDEST PUSH2 0x38C7 DUP2 DUP4 PUSH2 0x4D05 JUMP JUMPDEST DUP2 ADD SUB SLT PUSH2 0x7DD JUMPI PUSH2 0x388C SWAP2 MLOAD SWAP1 PUSH2 0x3882 JUMP JUMPDEST POP RETURNDATASIZE PUSH2 0x38BD JUMP JUMPDEST SWAP3 POP PUSH2 0x3918 DUP2 PUSH1 0x1 DUP1 PUSH1 0xA0 SHL SUB DUP1 PUSH1 0x7 SLOAD AND SWAP1 PUSH1 0x4 DUP8 ADD SLOAD AND SWAP1 PUSH1 0x40 MLOAD DUP1 DUP1 SWAP6 DUP2 SWAP5 PUSH4 0x423E7BC1 PUSH1 0xE1 SHL DUP4 MSTORE CALLER DUP11 PUSH1 0x4 DUP6 ADD PUSH2 0x5400 JUMP JUMPDEST SUB SWAP2 GAS STATICCALL SWAP1 DUP2 ISZERO PUSH2 0x397C JUMPI DUP6 SWAP2 PUSH2 0x394F JUMPI JUMPDEST POP SWAP3 DUP3 DUP6 MSTORE PUSH1 0x2 DUP3 MSTORE PUSH1 0x40 DUP6 KECCAK256 CALLER PUSH1 0x0 MSTORE DUP3 MSTORE PUSH1 0x40 PUSH1 0x0 KECCAK256 PUSH1 0xFF NOT DUP2 SLOAD AND SWAP1 SSTORE PUSH2 0x373D JUMP JUMPDEST SWAP1 POP DUP2 DUP2 DUP2 RETURNDATASIZE DUP4 GT PUSH2 0x3975 JUMPI JUMPDEST PUSH2 0x3966 DUP2 DUP4 PUSH2 0x4D05 JUMP JUMPDEST DUP2 ADD SUB SLT PUSH2 0x7DD JUMPI MLOAD CODESIZE PUSH2 0x392A JUMP JUMPDEST POP RETURNDATASIZE PUSH2 0x395C JUMP JUMPDEST PUSH1 0x40 MLOAD RETURNDATASIZE DUP8 DUP3 RETURNDATACOPY RETURNDATASIZE SWAP1 REVERT JUMPDEST PUSH1 0x64 SWAP1 PUSH1 0x40 MLOAD SWAP1 PUSH3 0x461BCD PUSH1 0xE5 SHL DUP3 MSTORE PUSH1 0x4 DUP3 ADD MSTORE PUSH1 0x16 PUSH1 0x24 DUP3 ADD MSTORE PUSH22 0x11540E88139BC81CDD185AD9481D1BC81C99599D5B99 PUSH1 0x52 SHL PUSH1 0x44 DUP3 ADD MSTORE REVERT JUMPDEST POP DUP2 DUP5 MSTORE PUSH1 0x3 DUP2 MSTORE PUSH1 0x40 DUP5 KECCAK256 CALLER PUSH1 0x0 MSTORE DUP2 MSTORE PUSH1 0xFF PUSH1 0x40 PUSH1 0x0 KECCAK256 SLOAD AND PUSH2 0x3717 JUMP JUMPDEST PUSH1 0x64 SWAP1 PUSH1 0x40 MLOAD SWAP1 PUSH3 0x461BCD PUSH1 0xE5 SHL DUP3 MSTORE PUSH1 0x4 DUP3 ADD MSTORE PUSH1 0x18 PUSH1 0x24 DUP3 ADD MSTORE PUSH24 0x11540E8813585C9AD95D081B9BDD0818D85B98D95B1B1959 PUSH1 0x42 SHL PUSH1 0x44 DUP3 ADD MSTORE REVERT JUMPDEST POP CALLVALUE PUSH2 0x280 JUMPI PUSH1 0x20 CALLDATASIZE PUSH1 0x3 NOT ADD SLT PUSH2 0x280 JUMPI PUSH1 0x4 CALLDATALOAD DUP1 DUP3 MSTORE PUSH1 0x1 PUSH1 0x20 MSTORE PUSH1 0x40 DUP3 KECCAK256 PUSH1 0xFF PUSH1 0xE DUP3 ADD SLOAD PUSH1 0x8 SHR AND PUSH1 0x2 DUP2 LT ISZERO PUSH2 0x3AD JUMPI SWAP1 PUSH2 0x3A67 PUSH1 0x1 PUSH1 0x10 SWAP4 EQ PUSH2 0x54AB JUMP JUMPDEST PUSH2 0x3A77 PUSH1 0xFF PUSH1 0x11 DUP4 ADD SLOAD AND PUSH2 0x54EF JUMP JUMPDEST ADD DUP3 DUP2 SLOAD PUSH2 0x3A86 DUP2 ISZERO ISZERO PUSH2 0x5533 JUMP JUMPDEST PUSH1 0xD SLOAD PUSH1 0x1 PUSH1 0x1 PUSH1 0xA0 SHL SUB AND SWAP1 DUP2 EXTCODESIZE ISZERO PUSH2 0x2036 JUMPI DUP3 SWAP2 PUSH1 0x24 DUP4 SWAP3 PUSH1 0x40 MLOAD SWAP5 DUP6 SWAP4 DUP5 SWAP3 PUSH4 0x4124BEEF PUSH1 0xE0 SHL DUP5 MSTORE PUSH1 0x4 DUP5 ADD MSTORE GAS CALL DUP1 ISZERO PUSH2 0x607 JUMPI PUSH2 0x3AEF JUMPI JUMPDEST POP POP SLOAD SWAP1 PUSH32 0x49C1C3ECA1FFDB1B59F7205CE06F2461ACE420050F9AD1B4B6B55F4A0F2E526 DUP4 DUP1 LOG3 DUP1 RETURN JUMPDEST PUSH2 0x3AF8 SWAP1 PUSH2 0x4CBB JUMP JUMPDEST PUSH2 0x2036 JUMPI DUP3 CODESIZE PUSH2 0x3AC4 JUMP JUMPDEST POP CALLVALUE PUSH2 0x280 JUMPI DUP1 PUSH1 0x3 NOT CALLDATASIZE ADD SLT PUSH2 0x280 JUMPI PUSH1 0x20 PUSH1 0x40 MLOAD PUSH2 0x1F4 DUP2 MSTORE RETURN JUMPDEST POP CALLVALUE PUSH2 0x280 JUMPI PUSH2 0x3B2F CALLDATASIZE PUSH2 0x4D7A JUMP JUMPDEST SWAP1 DUP1 DUP4 MSTORE PUSH1 0x20 PUSH1 0x1 DUP2 MSTORE PUSH1 0x40 DUP5 KECCAK256 SWAP1 PUSH1 0xE DUP3 ADD SWAP4 DUP5 SLOAD PUSH1 0xFF DUP2 PUSH1 0x8 SHR AND PUSH1 0x2 DUP2 LT ISZERO PUSH2 0x82C JUMPI PUSH2 0x3B7D SWAP2 PUSH2 0x3B67 PUSH1 0x1 PUSH1 0xFF SWAP4 EQ PUSH2 0x54AB JUMP JUMPDEST PUSH2 0x3B76 DUP3 PUSH1 0x11 DUP9 ADD SLOAD AND PUSH2 0x54EF JUMP JUMPDEST AND ISZERO PUSH2 0x545C JUMP JUMPDEST PUSH1 0x10 DUP4 ADD SWAP1 DUP7 DUP3 SLOAD SWAP7 PUSH2 0x3B91 DUP9 ISZERO ISZERO PUSH2 0x5533 JUMP JUMPDEST PUSH1 0xD SLOAD PUSH1 0x40 MLOAD PUSH4 0xE39DFD7F PUSH1 0xE0 SHL DUP2 MSTORE PUSH1 0x4 DUP2 ADD SWAP10 SWAP1 SWAP10 MSTORE PUSH1 0x1 PUSH1 0x1 PUSH1 0xA0 SHL SUB SWAP4 SWAP1 DUP7 SWAP1 DUP11 SWAP1 PUSH1 0x24 SWAP1 DUP3 SWAP1 DUP9 AND GAS STATICCALL SWAP9 DUP10 ISZERO PUSH2 0x63F JUMPI DUP4 SWAP10 PUSH2 0x3DD4 JUMPI JUMPDEST POP PUSH1 0x3 DUP8 ADD SLOAD PUSH1 0x2 DUP2 SUB PUSH2 0x3D21 JUMPI POP POP SWAP2 PUSH1 0x4 SWAP3 DUP9 PUSH1 0x0 EQ PUSH2 0x3D18 JUMPI PUSH1 0xFF PUSH1 0x1 JUMPDEST AND PUSH1 0xD DUP9 ADD SSTORE JUMPDEST PUSH1 0xFF NOT SWAP1 PUSH1 0x1 DUP3 DUP3 SLOAD AND OR SWAP1 SSTORE PUSH1 0x2 PUSH1 0xC DUP9 ADD SWAP2 DUP3 SLOAD AND OR SWAP1 SSTORE PUSH2 0x3C19 DUP8 PUSH2 0x5695 JUMP JUMPDEST DUP5 DUP2 PUSH1 0x8 SLOAD AND PUSH1 0x40 MLOAD SWAP5 DUP6 DUP1 SWAP3 PUSH4 0x406AD645 PUSH1 0xE1 SHL DUP3 MSTORE GAS STATICCALL DUP1 ISZERO PUSH2 0x607 JUMPI DUP8 SWAP4 DUP4 SWAP2 PUSH2 0x3CFB JUMPI JUMPDEST POP AND DUP1 PUSH2 0x3C96 JUMPI JUMPDEST POP POP PUSH1 0x0 DUP1 MLOAD PUSH1 0x20 PUSH2 0x5DA6 DUP4 CODECOPY DUP2 MLOAD SWAP2 MSTORE DUP4 PUSH1 0xD PUSH32 0x32736E1FE22A85082B71B7EB923B176A17DF522EA8342FF5E24CE4B7E2019BBF SWAP7 ADD SLOAD PUSH1 0x40 MLOAD SWAP1 DUP2 MSTORE LOG2 SLOAD SWAP4 PUSH1 0x40 MLOAD SWAP1 ISZERO ISZERO DUP2 MSTORE LOG3 DUP1 RETURN JUMPDEST SWAP1 SWAP2 POP PUSH1 0xD DUP6 ADD SLOAD DUP2 EXTCODESIZE ISZERO PUSH2 0x2036 JUMPI DUP3 SWAP2 PUSH1 0x44 DUP4 SWAP3 PUSH1 0x40 MLOAD SWAP6 DUP7 SWAP4 DUP5 SWAP3 PUSH3 0xFF4A73 PUSH1 0xE8 SHL DUP5 MSTORE DUP13 PUSH1 0x4 DUP6 ADD MSTORE PUSH1 0x24 DUP5 ADD MSTORE GAS CALL SWAP2 DUP3 ISZERO PUSH2 0x3CEE JUMPI DUP7 SWAP3 ISZERO PUSH2 0x3C49 JUMPI PUSH2 0x3CE2 SWAP2 SWAP3 POP PUSH2 0x4CBB JUMP JUMPDEST PUSH2 0xB29 JUMPI DUP4 DUP7 CODESIZE PUSH2 0x3C49 JUMP JUMPDEST POP PUSH1 0x40 MLOAD SWAP1 RETURNDATASIZE SWAP1 DUP3 RETURNDATACOPY RETURNDATASIZE SWAP1 REVERT JUMPDEST PUSH2 0x3D12 SWAP2 POP DUP7 RETURNDATASIZE DUP9 GT PUSH2 0x638 JUMPI PUSH2 0x62A DUP2 DUP4 PUSH2 0x4D05 JUMP JUMPDEST CODESIZE PUSH2 0x3C41 JUMP JUMPDEST PUSH1 0xFF PUSH1 0x2 PUSH2 0x3BEF JUMP JUMPDEST SWAP1 SWAP2 SWAP3 POP DUP9 ISZERO PUSH2 0x3D8F JUMPI DUP2 ISZERO ISZERO SWAP1 DUP2 PUSH2 0x3D84 JUMPI JUMPDEST POP ISZERO PUSH2 0x3D4A JUMPI PUSH1 0xD DUP7 ADD SSTORE PUSH1 0x4 SWAP2 DUP9 SWAP2 PUSH2 0x3BF6 JUMP JUMPDEST PUSH1 0x40 MLOAD PUSH3 0x461BCD PUSH1 0xE5 SHL DUP2 MSTORE PUSH1 0x4 DUP2 ADD DUP7 SWAP1 MSTORE PUSH1 0x12 PUSH1 0x24 DUP3 ADD MSTORE PUSH18 0x22A81D1024B73B30B634B21037B83A34B7B7 PUSH1 0x71 SHL PUSH1 0x44 DUP3 ADD MSTORE PUSH1 0x64 SWAP1 REVERT JUMPDEST SWAP1 POP DUP2 GT ISZERO CODESIZE PUSH2 0x3D35 JUMP JUMPDEST PUSH1 0x40 MLOAD PUSH3 0x461BCD PUSH1 0xE5 SHL DUP2 MSTORE PUSH1 0x4 DUP2 ADD DUP8 SWAP1 MSTORE PUSH1 0x1D PUSH1 0x24 DUP3 ADD MSTORE PUSH32 0x45503A204F7261636C6520617373657274696F6E2072656A6563746564000000 PUSH1 0x44 DUP3 ADD MSTORE PUSH1 0x64 SWAP1 REVERT JUMPDEST PUSH2 0x3DEC SWAP2 SWAP10 POP DUP7 RETURNDATASIZE DUP9 GT PUSH2 0x81A JUMPI PUSH2 0x80C DUP2 DUP4 PUSH2 0x4D05 JUMP JUMPDEST SWAP8 CODESIZE PUSH2 0x3BCE JUMP JUMPDEST POP CALLVALUE PUSH2 0x280 JUMPI PUSH1 0x40 CALLDATASIZE PUSH1 0x3 NOT ADD SLT PUSH2 0x280 JUMPI PUSH2 0x1540 SWAP1 PUSH1 0x20 PUSH2 0x3E13 PUSH2 0x4A57 JUMP JUMPDEST PUSH1 0x1 DUP1 PUSH1 0xA0 SHL SUB PUSH1 0x7 SLOAD AND PUSH1 0x40 MLOAD DUP1 DUP1 SWAP7 DUP2 SWAP5 PUSH4 0x4F44289D PUSH1 0xE0 SHL DUP4 MSTORE PUSH1 0x4 CALLDATALOAD PUSH1 0x4 DUP5 ADD PUSH2 0x50B4 JUMP JUMPDEST POP CALLVALUE PUSH2 0x280 JUMPI PUSH1 0x40 CALLDATASIZE PUSH1 0x3 NOT ADD SLT PUSH2 0x280 JUMPI PUSH1 0x24 PUSH1 0x4 CALLDATALOAD DUP2 CALLDATALOAD PUSH1 0x1 PUSH1 0x1 PUSH1 0x40 SHL SUB DUP2 GT PUSH2 0x603 JUMPI CALLDATASIZE PUSH1 0x23 DUP3 ADD SLT ISZERO PUSH2 0x603 JUMPI PUSH2 0x3E81 SWAP1 CALLDATASIZE SWAP1 DUP5 DUP2 PUSH1 0x4 ADD CALLDATALOAD SWAP2 ADD PUSH2 0x4D43 JUMP JUMPDEST DUP2 DUP5 MSTORE PUSH1 0x20 SWAP3 PUSH1 0x1 DUP5 MSTORE PUSH1 0x40 DUP6 KECCAK256 SWAP1 PUSH1 0xE DUP3 ADD SLOAD PUSH1 0xFF DUP2 PUSH1 0x8 SHR AND PUSH1 0x2 DUP2 LT ISZERO PUSH2 0x4092 JUMPI PUSH1 0x1 PUSH2 0x3EB1 SWAP2 EQ PUSH2 0x54AB JUMP JUMPDEST PUSH1 0xFF PUSH1 0xC DUP5 ADD SLOAD AND PUSH1 0x5 DUP2 LT ISZERO PUSH2 0x4092 JUMPI PUSH2 0x3ED4 SWAP2 PUSH2 0x3B76 PUSH1 0x1 PUSH1 0xFF SWAP4 EQ PUSH2 0x5420 JUMP JUMPDEST PUSH1 0xA DUP3 ADD SLOAD TIMESTAMP LT PUSH2 0x405F JUMPI PUSH1 0x11 DUP3 ADD SWAP3 PUSH1 0xFF DUP5 SLOAD AND PUSH2 0x4026 JUMPI PUSH1 0xD SLOAD PUSH1 0x1 PUSH1 0x1 PUSH1 0xA0 SHL SUB SWAP1 DUP2 AND SWAP2 SWAP1 DUP3 ISZERO PUSH2 0x3FF1 JUMPI PUSH1 0xE SLOAD AND ISZERO PUSH2 0x3FBA JUMPI DUP7 SWAP2 PUSH2 0x3F37 SWAP2 DUP10 PUSH1 0x40 MLOAD DUP1 SWAP7 DUP2 SWAP6 DUP3 SWAP5 PUSH4 0xDAC4EBD PUSH1 0xE2 SHL DUP5 MSTORE PUSH1 0x40 PUSH1 0x4 DUP6 ADD MSTORE PUSH1 0x44 DUP5 ADD SWAP1 PUSH2 0x4B24 JUMP JUMPDEST SWAP1 CALLER SWAP1 DUP4 ADD MSTORE SUB SWAP3 GAS CALL SWAP5 DUP6 ISZERO PUSH2 0xCB6 JUMPI DUP7 SWAP6 PUSH2 0x3F89 JUMPI JUMPDEST POP POP PUSH1 0x10 ADD DUP4 SWAP1 SSTORE DUP1 SLOAD PUSH1 0xFF NOT AND PUSH1 0x1 OR SWAP1 SSTORE PUSH32 0xC92F993487C6D961B60FF2A81386DFF5CC620CD4AED9CDDABE26500391655E82 DUP4 DUP1 LOG3 DUP1 RETURN JUMPDEST SWAP1 DUP1 SWAP6 POP DUP2 RETURNDATASIZE DUP4 GT PUSH2 0x3FB3 JUMPI JUMPDEST PUSH2 0x3FA0 DUP2 DUP4 PUSH2 0x4D05 JUMP JUMPDEST DUP2 ADD SUB SLT PUSH2 0xAF4 JUMPI PUSH1 0x10 SWAP4 MLOAD SWAP4 CODESIZE PUSH2 0x3F4F JUMP JUMPDEST POP RETURNDATASIZE PUSH2 0x3F96 JUMP JUMPDEST PUSH1 0x40 MLOAD PUSH3 0x461BCD PUSH1 0xE5 SHL DUP2 MSTORE PUSH1 0x4 DUP2 ADD DUP9 SWAP1 MSTORE PUSH1 0x10 DUP2 DUP6 ADD MSTORE PUSH16 0x11540E88109BDB99081B9BDD081CD95D PUSH1 0x82 SHL PUSH1 0x44 DUP3 ADD MSTORE PUSH1 0x64 SWAP1 REVERT JUMPDEST PUSH1 0x40 MLOAD PUSH3 0x461BCD PUSH1 0xE5 SHL DUP2 MSTORE PUSH1 0x4 DUP2 ADD DUP10 SWAP1 MSTORE PUSH1 0xE DUP2 DUP7 ADD MSTORE PUSH14 0x11540E8813D3C81B9BDD081CD95D PUSH1 0x92 SHL PUSH1 0x44 DUP3 ADD MSTORE PUSH1 0x64 SWAP1 REVERT JUMPDEST PUSH1 0x40 MLOAD PUSH3 0x461BCD PUSH1 0xE5 SHL DUP2 MSTORE PUSH1 0x4 DUP2 ADD DUP8 SWAP1 MSTORE PUSH1 0x12 DUP2 DUP5 ADD MSTORE PUSH18 0x45503A20417373657274696F6E206D616465 PUSH1 0x70 SHL PUSH1 0x44 DUP3 ADD MSTORE PUSH1 0x64 SWAP1 REVERT JUMPDEST DUP5 PUSH1 0xD PUSH1 0x64 SWAP3 PUSH1 0x40 MLOAD SWAP3 PUSH3 0x461BCD PUSH1 0xE5 SHL DUP5 MSTORE PUSH1 0x4 DUP5 ADD MSTORE DUP3 ADD MSTORE PUSH13 0x45503A20546F6F206561726C79 PUSH1 0x98 SHL PUSH1 0x44 DUP3 ADD MSTORE REVERT JUMPDEST PUSH4 0x4E487B71 PUSH1 0xE0 SHL DUP9 MSTORE PUSH1 0x21 PUSH1 0x4 MSTORE DUP3 DUP9 REVERT JUMPDEST POP CALLVALUE PUSH2 0x280 JUMPI DUP1 PUSH1 0x3 NOT CALLDATASIZE ADD SLT PUSH2 0x280 JUMPI PUSH1 0x20 PUSH1 0x9 SLOAD PUSH1 0x40 MLOAD SWAP1 DUP2 MSTORE RETURN JUMPDEST POP CALLVALUE PUSH2 0x280 JUMPI PUSH1 0x20 CALLDATASIZE PUSH1 0x3 NOT ADD SLT PUSH2 0x280 JUMPI PUSH2 0x40DD PUSH2 0x5CD2 JUMP JUMPDEST POP PUSH1 0x4 CALLDATALOAD DUP2 MSTORE PUSH1 0x1 PUSH1 0x20 MSTORE PUSH1 0x40 DUP2 KECCAK256 PUSH1 0xFF PUSH1 0x11 PUSH1 0x40 MLOAD SWAP3 PUSH2 0x40FD DUP5 PUSH2 0x4CCE JUMP JUMPDEST DUP1 SLOAD PUSH1 0x1 PUSH1 0x1 PUSH1 0xA0 SHL SUB AND DUP5 MSTORE PUSH2 0x4116 PUSH1 0x1 DUP3 ADD PUSH2 0x4DCA JUMP JUMPDEST PUSH1 0x20 DUP6 ADD MSTORE PUSH1 0x2 DUP2 ADD SLOAD DUP4 AND ISZERO ISZERO PUSH1 0x40 DUP6 ADD MSTORE PUSH1 0x3 DUP2 ADD SLOAD PUSH1 0x60 DUP6 ADD MSTORE PUSH1 0x4 DUP2 ADD SLOAD PUSH1 0x1 PUSH1 0x1 PUSH1 0xA0 SHL SUB AND PUSH1 0x80 DUP6 ADD MSTORE PUSH1 0x5 DUP2 ADD SLOAD PUSH1 0xA0 DUP6 ADD MSTORE PUSH1 0x6 DUP2 ADD SLOAD PUSH1 0xC0 DUP6 ADD MSTORE PUSH1 0x7 DUP2 ADD SLOAD PUSH1 0xE0 DUP6 ADD MSTORE PUSH1 0x8 DUP2 ADD SLOAD PUSH2 0x100 DUP6 ADD MSTORE PUSH1 0x9 DUP2 ADD SLOAD PUSH2 0x120 DUP6 ADD MSTORE PUSH1 0xA DUP2 ADD SLOAD PUSH2 0x140 DUP6 ADD MSTORE PUSH1 0xB DUP2 ADD SLOAD PUSH2 0x160 DUP6 ADD MSTORE PUSH1 0xC DUP2 ADD SLOAD PUSH2 0x41A5 SWAP1 DUP5 AND PUSH2 0x180 DUP7 ADD PUSH2 0x4F84 JUMP JUMPDEST PUSH1 0xD DUP2 ADD SLOAD PUSH2 0x1A0 DUP6 ADD MSTORE PUSH1 0xE DUP2 ADD SLOAD DUP4 DUP2 AND ISZERO ISZERO PUSH2 0x1C0 DUP7 ADD MSTORE PUSH2 0x41D3 DUP5 DUP3 PUSH1 0x8 SHR AND PUSH2 0x1E0 DUP8 ADD PUSH2 0x4F90 JUMP JUMPDEST PUSH1 0x1 PUSH1 0x1 PUSH1 0xA0 SHL SUB PUSH1 0x10 SWAP2 DUP3 SHR DUP2 AND PUSH2 0x200 DUP8 ADD MSTORE PUSH1 0xF DUP4 ADD SLOAD PUSH2 0x220 DUP8 ADD MSTORE SWAP1 DUP3 ADD SLOAD PUSH2 0x240 DUP7 ADD MSTORE SWAP2 ADD SLOAD SWAP2 SWAP1 SWAP2 AND ISZERO ISZERO PUSH2 0x260 DUP4 ADD MSTORE PUSH1 0x7 SLOAD PUSH1 0x80 DUP4 ADD MLOAD PUSH1 0x40 MLOAD PUSH4 0x3D1E7BA1 PUSH1 0xE1 SHL DUP2 MSTORE SWAP3 SWAP2 DUP3 AND SWAP2 PUSH1 0x20 SWAP2 DUP5 SWAP2 DUP3 SWAP2 PUSH2 0x423E SWAP2 AND PUSH1 0x4 DUP1 CALLDATALOAD SWAP1 DUP5 ADD PUSH2 0x50B4 JUMP JUMPDEST SUB DUP2 DUP5 GAS STATICCALL SWAP2 DUP3 ISZERO PUSH2 0x44E5 JUMPI DUP5 SWAP3 PUSH2 0x44F0 JUMPI JUMPDEST POP PUSH1 0x80 DUP4 ADD MLOAD PUSH1 0x40 MLOAD PUSH4 0x4F44289D PUSH1 0xE0 SHL DUP2 MSTORE SWAP3 SWAP2 PUSH1 0x20 SWAP2 DUP5 SWAP2 SWAP1 DUP3 SWAP1 DUP2 SWAP1 PUSH2 0x4289 SWAP1 PUSH1 0x1 PUSH1 0x1 PUSH1 0xA0 SHL SUB AND PUSH1 0x4 DUP1 CALLDATALOAD SWAP1 DUP5 ADD PUSH2 0x50B4 JUMP JUMPDEST SUB SWAP2 GAS STATICCALL SWAP2 DUP3 ISZERO PUSH2 0x44E5 JUMPI DUP5 SWAP3 PUSH2 0x44B1 JUMPI JUMPDEST POP PUSH1 0x4 CALLDATALOAD DUP5 MSTORE PUSH1 0x5 PUSH1 0x20 MSTORE PUSH1 0x40 DUP5 KECCAK256 SLOAD PUSH1 0x6 PUSH1 0x20 MSTORE PUSH1 0x40 DUP6 KECCAK256 SLOAD PUSH1 0x5 PUSH1 0x20 MSTORE PUSH1 0x40 DUP7 KECCAK256 SWAP2 PUSH1 0x40 MLOAD DUP1 DUP5 PUSH1 0x20 DUP3 SWAP7 SLOAD SWAP4 DUP5 DUP2 MSTORE ADD SWAP1 DUP11 MSTORE PUSH1 0x20 DUP11 KECCAK256 SWAP3 DUP11 JUMPDEST DUP2 DUP2 LT PUSH2 0x448F JUMPI POP POP PUSH2 0x42ED SWAP3 POP SUB DUP5 PUSH2 0x4D05 JUMP JUMPDEST PUSH1 0x4 CALLDATALOAD DUP8 MSTORE PUSH1 0x6 PUSH1 0x20 MSTORE PUSH1 0x40 DUP8 KECCAK256 SWAP5 PUSH1 0x40 MLOAD DUP1 DUP8 PUSH1 0x20 DUP3 SWAP10 SLOAD SWAP4 DUP5 DUP2 MSTORE ADD SWAP1 DUP12 MSTORE PUSH1 0x20 DUP12 KECCAK256 SWAP3 DUP12 JUMPDEST DUP2 DUP2 LT PUSH2 0x446D JUMPI POP POP PUSH2 0x432A SWAP3 POP SUB DUP8 PUSH2 0x4D05 JUMP JUMPDEST PUSH1 0x8 SLOAD PUSH1 0x80 DUP9 ADD MLOAD PUSH1 0x40 MLOAD PUSH4 0x7D85959B PUSH1 0xE1 SHL DUP2 MSTORE PUSH1 0x1 PUSH1 0x1 PUSH1 0xA0 SHL SUB SWAP2 DUP3 AND PUSH1 0x4 DUP3 ADD MSTORE SWAP2 DUP11 SWAP2 DUP4 SWAP2 PUSH1 0x24 SWAP2 DUP4 SWAP2 AND GAS STATICCALL SWAP9 DUP10 ISZERO PUSH2 0x158E JUMPI DUP1 SWAP10 PUSH2 0x43D2 JUMPI JUMPDEST PUSH2 0x4394 DUP10 PUSH2 0x16E6 DUP13 PUSH2 0x43C4 DUP13 PUSH2 0x43B6 DUP14 DUP14 DUP14 DUP14 DUP14 PUSH1 0x40 MLOAD SWAP12 DUP13 SWAP12 PUSH2 0x100 DUP14 MSTORE PUSH2 0x100 DUP14 ADD SWAP1 PUSH2 0x4B79 JUMP JUMPDEST SWAP5 PUSH1 0x20 DUP13 ADD MSTORE PUSH1 0x40 DUP12 ADD MSTORE PUSH1 0x60 DUP11 ADD MSTORE PUSH1 0x80 DUP10 ADD MSTORE DUP8 DUP3 SUB PUSH1 0xA0 DUP10 ADD MSTORE PUSH2 0x4C7E JUMP JUMPDEST SWAP1 DUP6 DUP3 SUB PUSH1 0xC0 DUP8 ADD MSTORE PUSH2 0x4C7E JUMP JUMPDEST SWAP1 DUP4 DUP3 SUB PUSH1 0xE0 DUP6 ADD MSTORE PUSH2 0x4B24 JUMP JUMPDEST SWAP1 SWAP2 SWAP9 POP RETURNDATASIZE DUP1 DUP3 DUP5 RETURNDATACOPY PUSH2 0x43E5 DUP2 DUP5 PUSH2 0x4D05 JUMP JUMPDEST DUP3 ADD SWAP2 PUSH1 0x20 DUP2 DUP5 SUB SLT PUSH2 0x3C1 JUMPI DUP1 MLOAD SWAP1 PUSH1 0x1 PUSH1 0x1 PUSH1 0x40 SHL SUB DUP3 GT PUSH2 0x2036 JUMPI ADD DUP3 PUSH1 0x1F DUP3 ADD SLT ISZERO PUSH2 0x3C1 JUMPI DUP1 MLOAD SWAP2 PUSH2 0x441B DUP4 PUSH2 0x4D28 JUMP JUMPDEST SWAP4 PUSH2 0x4429 PUSH1 0x40 MLOAD SWAP6 DUP7 PUSH2 0x4D05 JUMP JUMPDEST DUP4 DUP6 MSTORE PUSH1 0x20 DUP5 DUP5 ADD ADD GT PUSH2 0x280 JUMPI POP SWAP4 PUSH2 0x43B6 SWAP4 DUP4 PUSH2 0x445C PUSH2 0x43C4 SWAP9 SWAP5 PUSH2 0x16E6 SWAP12 SWAP9 PUSH1 0x20 PUSH2 0x4394 SWAP16 SWAP13 SWAP9 DUP2 ADD SWAP2 ADD PUSH2 0x4B01 JUMP JUMPDEST SWAP11 POP SWAP4 POP SWAP4 SWAP7 DUP2 SWAP6 POP SWAP6 SWAP2 SWAP6 PUSH2 0x436A JUMP JUMPDEST DUP5 SLOAD PUSH1 0x1 PUSH1 0x1 PUSH1 0xA0 SHL SUB AND DUP4 MSTORE PUSH1 0x1 SWAP5 DUP6 ADD SWAP5 DUP12 SWAP5 POP PUSH1 0x20 SWAP1 SWAP4 ADD SWAP3 ADD PUSH2 0x4315 JUMP JUMPDEST DUP5 SLOAD PUSH1 0x1 PUSH1 0x1 PUSH1 0xA0 SHL SUB AND DUP4 MSTORE PUSH1 0x1 SWAP5 DUP6 ADD SWAP5 DUP9 SWAP5 POP PUSH1 0x20 SWAP1 SWAP4 ADD SWAP3 ADD PUSH2 0x42D8 JUMP JUMPDEST SWAP1 SWAP2 POP PUSH1 0x20 DUP2 RETURNDATASIZE PUSH1 0x20 GT PUSH2 0x44DD JUMPI JUMPDEST DUP2 PUSH2 0x44CD PUSH1 0x20 SWAP4 DUP4 PUSH2 0x4D05 JUMP JUMPDEST DUP2 ADD SUB SLT PUSH2 0x7DD JUMPI MLOAD SWAP1 CODESIZE PUSH2 0x429B JUMP JUMPDEST RETURNDATASIZE SWAP2 POP PUSH2 0x44C0 JUMP JUMPDEST PUSH1 0x40 MLOAD RETURNDATASIZE DUP7 DUP3 RETURNDATACOPY RETURNDATASIZE SWAP1 REVERT JUMPDEST SWAP2 POP PUSH1 0x20 DUP3 RETURNDATASIZE PUSH1 0x20 GT PUSH2 0x451D JUMPI JUMPDEST DUP2 PUSH2 0x450B PUSH1 0x20 SWAP4 DUP4 PUSH2 0x4D05 JUMP JUMPDEST DUP2 ADD SUB SLT PUSH2 0x7DD JUMPI SWAP1 MLOAD SWAP1 PUSH1 0x20 PUSH2 0x4251 JUMP JUMPDEST RETURNDATASIZE SWAP2 POP PUSH2 0x44FE JUMP JUMPDEST POP CALLVALUE PUSH2 0x280 JUMPI PUSH1 0x20 DUP1 PUSH1 0x3 NOT CALLDATASIZE ADD SLT PUSH2 0x3C1 JUMPI PUSH1 0x4 CALLDATALOAD DUP1 DUP4 MSTORE PUSH1 0x1 DUP3 MSTORE PUSH1 0x40 DUP4 KECCAK256 PUSH1 0x3 DUP4 MSTORE PUSH1 0x40 DUP5 KECCAK256 CALLER DUP6 MSTORE DUP4 MSTORE PUSH2 0x4563 PUSH1 0xFF PUSH1 0x40 DUP7 KECCAK256 SLOAD AND PUSH2 0x53B7 JUMP JUMPDEST PUSH1 0xFF PUSH1 0xC DUP3 ADD SLOAD AND PUSH1 0x5 DUP2 LT ISZERO PUSH2 0x30CF JUMPI DUP1 PUSH2 0x46F7 JUMPI POP PUSH1 0x9 DUP2 ADD SLOAD PUSH2 0xA8BF NOT DUP2 ADD SWAP1 DUP2 GT PUSH2 0x46E3 JUMPI TIMESTAMP LT ISZERO PUSH2 0x4683 JUMPI JUMPDEST DUP4 PUSH1 0x1 DUP1 PUSH1 0xA0 SHL SUB PUSH1 0x4 DUP2 PUSH1 0x7 SLOAD AND SWAP4 ADD SLOAD AND SWAP2 PUSH1 0x40 MLOAD SWAP1 PUSH4 0x256BA741 PUSH1 0xE0 SHL DUP3 MSTORE DUP6 DUP3 DUP1 PUSH2 0x45C8 DUP8 CALLER DUP11 PUSH1 0x4 DUP6 ADD PUSH2 0x5400 JUMP JUMPDEST SUB DUP2 DUP5 GAS STATICCALL SWAP2 DUP3 ISZERO PUSH2 0x63F JUMPI DUP4 SWAP3 PUSH2 0x4654 JUMPI JUMPDEST POP PUSH2 0x45E7 DUP3 ISZERO ISZERO PUSH2 0x53B7 JUMP JUMPDEST DUP1 EXTCODESIZE ISZERO PUSH2 0x2036 JUMPI PUSH2 0x4611 SWAP4 DUP4 PUSH1 0x40 MLOAD DUP1 SWAP7 DUP2 SWAP6 DUP3 SWAP5 PUSH4 0x17BE0B2F PUSH1 0xE1 SHL DUP5 MSTORE CALLER DUP12 PUSH1 0x4 DUP7 ADD PUSH2 0x538F JUMP JUMPDEST SUB SWAP3 GAS CALL DUP1 ISZERO PUSH2 0x44E5 JUMPI PUSH2 0x4641 JUMPI JUMPDEST POP DUP3 MSTORE PUSH1 0x3 DUP2 MSTORE PUSH1 0x40 DUP3 KECCAK256 SWAP1 CALLER PUSH1 0x0 MSTORE MSTORE PUSH1 0x40 PUSH1 0x0 KECCAK256 PUSH1 0xFF NOT DUP2 SLOAD AND SWAP1 SSTORE DUP1 RETURN JUMPDEST PUSH2 0x464D SWAP1 SWAP4 SWAP2 SWAP4 PUSH2 0x4CBB JUMP JUMPDEST SWAP2 CODESIZE PUSH2 0x4620 JUMP JUMPDEST SWAP1 SWAP2 POP DUP6 DUP2 DUP2 RETURNDATASIZE DUP4 GT PUSH2 0x467C JUMPI JUMPDEST PUSH2 0x466C DUP2 DUP4 PUSH2 0x4D05 JUMP JUMPDEST DUP2 ADD SUB SLT PUSH2 0x2036 JUMPI MLOAD SWAP1 CODESIZE PUSH2 0x45DB JUMP JUMPDEST POP RETURNDATASIZE PUSH2 0x4662 JUMP JUMPDEST PUSH1 0x40 MLOAD PUSH3 0x461BCD PUSH1 0xE5 SHL DUP2 MSTORE PUSH1 0x4 DUP2 ADD DUP5 SWAP1 MSTORE PUSH1 0x32 PUSH1 0x24 DUP3 ADD MSTORE PUSH32 0x45503A2043616E6E6F742077697468647261772077697468696E20313220686F PUSH1 0x44 DUP3 ADD MSTORE PUSH18 0x1D5C9CC81BD9881CDD185ADA5B99C8195B99 PUSH1 0x72 SHL PUSH1 0x64 DUP3 ADD MSTORE PUSH1 0x84 SWAP1 REVERT JUMPDEST PUSH4 0x4E487B71 PUSH1 0xE0 SHL DUP6 MSTORE PUSH1 0x11 PUSH1 0x4 MSTORE PUSH1 0x24 DUP6 REVERT JUMPDEST PUSH1 0x4 DUP2 EQ SWAP1 DUP2 ISZERO PUSH2 0x4761 JUMPI JUMPDEST POP PUSH2 0x4594 JUMPI PUSH1 0x40 MLOAD PUSH3 0x461BCD PUSH1 0xE5 SHL DUP2 MSTORE PUSH1 0x4 DUP2 ADD DUP5 SWAP1 MSTORE PUSH1 0x2B PUSH1 0x24 DUP3 ADD MSTORE PUSH32 0x45503A2043616E6E6F7420776974686472617720696E2063757272656E74206D PUSH1 0x44 DUP3 ADD MSTORE PUSH11 0x61726B6574207374617465 PUSH1 0xA8 SHL PUSH1 0x64 DUP3 ADD MSTORE PUSH1 0x84 SWAP1 REVERT JUMPDEST PUSH1 0x3 SWAP2 POP EQ CODESIZE PUSH2 0x4703 JUMP JUMPDEST POP CALLVALUE PUSH2 0x280 JUMPI PUSH1 0x20 CALLDATASIZE PUSH1 0x3 NOT ADD SLT PUSH2 0x280 JUMPI PUSH1 0x4 CALLDATALOAD SWAP1 PUSH1 0xA SLOAD DUP3 LT ISZERO PUSH2 0x280 JUMPI PUSH1 0x20 PUSH2 0x2188 DUP4 PUSH2 0x4AB8 JUMP JUMPDEST POP CALLVALUE PUSH2 0x280 JUMPI PUSH1 0x40 CALLDATASIZE PUSH1 0x3 NOT ADD SLT PUSH2 0x280 JUMPI PUSH1 0xFF PUSH1 0x40 PUSH1 0x20 SWAP3 PUSH2 0x47B8 PUSH2 0x4A57 JUMP JUMPDEST PUSH1 0x4 CALLDATALOAD DUP3 MSTORE PUSH1 0x2 DUP6 MSTORE DUP3 DUP3 KECCAK256 PUSH1 0x1 PUSH1 0x1 PUSH1 0xA0 SHL SUB SWAP1 SWAP2 AND DUP3 MSTORE DUP5 MSTORE KECCAK256 SLOAD PUSH1 0x40 MLOAD SWAP2 AND ISZERO ISZERO DUP2 MSTORE RETURN JUMPDEST POP CALLVALUE PUSH2 0x280 JUMPI DUP1 PUSH1 0x3 NOT CALLDATASIZE ADD SLT PUSH2 0x280 JUMPI PUSH1 0x20 PUSH1 0x40 MLOAD PUSH8 0xDE0B6B3A7640000 DUP2 MSTORE RETURN JUMPDEST POP CALLVALUE PUSH2 0x280 JUMPI PUSH1 0x40 CALLDATASIZE PUSH1 0x3 NOT ADD SLT PUSH2 0x280 JUMPI PUSH1 0xFF PUSH1 0x40 PUSH1 0x20 SWAP3 PUSH2 0x4824 PUSH2 0x4A57 JUMP JUMPDEST PUSH1 0x4 CALLDATALOAD DUP3 MSTORE PUSH1 0x3 DUP6 MSTORE DUP3 DUP3 KECCAK256 PUSH1 0x1 PUSH1 0x1 PUSH1 0xA0 SHL SUB SWAP1 SWAP2 AND DUP3 MSTORE DUP5 MSTORE KECCAK256 SLOAD PUSH1 0x40 MLOAD SWAP2 AND ISZERO ISZERO DUP2 MSTORE RETURN JUMPDEST POP CALLVALUE PUSH2 0x280 JUMPI PUSH2 0x488F PUSH1 0x20 PUSH2 0x4860 CALLDATASIZE PUSH2 0x4A83 JUMP JUMPDEST PUSH1 0x7 SLOAD PUSH1 0x40 MLOAD PUSH4 0x256BA741 PUSH1 0xE0 SHL DUP2 MSTORE SWAP6 DUP7 SWAP5 PUSH1 0x1 PUSH1 0x1 PUSH1 0xA0 SHL SUB SWAP1 SWAP3 AND SWAP4 DUP6 SWAP4 DUP5 SWAP4 SWAP1 SWAP2 SWAP1 PUSH1 0x4 DUP6 ADD PUSH2 0x5400 JUMP JUMPDEST SUB SWAP2 GAS STATICCALL SWAP1 DUP2 ISZERO PUSH2 0x607 JUMPI DUP3 SWAP2 PUSH2 0x48AC JUMPI JUMPDEST PUSH1 0x20 DUP3 PUSH1 0x40 MLOAD SWAP1 DUP2 MSTORE RETURN JUMPDEST SWAP1 POP PUSH1 0x20 DUP2 RETURNDATASIZE DUP3 GT PUSH2 0x48D9 JUMPI JUMPDEST DUP2 PUSH2 0x48C6 PUSH1 0x20 SWAP4 DUP4 PUSH2 0x4D05 JUMP JUMPDEST DUP2 ADD SUB SLT PUSH2 0x3C1 JUMPI PUSH1 0x20 SWAP2 POP MLOAD CODESIZE PUSH2 0x48A1 JUMP JUMPDEST RETURNDATASIZE SWAP2 POP PUSH2 0x48B9 JUMP JUMPDEST POP CALLVALUE PUSH2 0x280 JUMPI DUP1 PUSH1 0x3 NOT CALLDATASIZE ADD SLT PUSH2 0x280 JUMPI PUSH1 0xD SLOAD PUSH1 0x40 MLOAD PUSH1 0x1 PUSH1 0x1 PUSH1 0xA0 SHL SUB SWAP1 SWAP2 AND DUP2 MSTORE PUSH1 0x20 SWAP1 RETURN JUMPDEST POP CALLVALUE PUSH2 0x280 JUMPI DUP1 PUSH1 0x3 NOT CALLDATASIZE ADD SLT PUSH2 0x280 JUMPI PUSH1 0xE SLOAD PUSH1 0x40 MLOAD PUSH1 0x1 PUSH1 0x1 PUSH1 0xA0 SHL SUB SWAP1 SWAP2 AND DUP2 MSTORE PUSH1 0x20 SWAP1 RETURN JUMPDEST POP CALLVALUE PUSH2 0x280 JUMPI PUSH1 0x20 CALLDATASIZE PUSH1 0x3 NOT ADD SLT PUSH2 0x280 JUMPI PUSH1 0x4 CALLDATALOAD DUP1 DUP3 MSTORE PUSH1 0x1 PUSH1 0x20 MSTORE PUSH1 0x40 DUP3 KECCAK256 PUSH1 0xC DUP2 ADD SWAP1 DUP2 SLOAD SWAP1 PUSH1 0xFF DUP3 AND PUSH1 0x5 DUP2 LT ISZERO PUSH2 0x49ED JUMPI SWAP1 PUSH2 0x4976 PUSH1 0xA SWAP3 ISZERO PUSH2 0x51EC JUMP JUMPDEST ADD SLOAD TIMESTAMP LT PUSH2 0x49A8 JUMPI PUSH1 0xFF NOT AND PUSH1 0x1 OR SWAP1 SSTORE DUP1 DUP3 MSTORE PUSH1 0xB PUSH1 0x20 MSTORE PUSH1 0x40 DUP3 KECCAK256 SLOAD PUSH1 0xFF AND PUSH2 0x499F JUMPI POP DUP1 RETURN JUMPDEST PUSH2 0x1A5C SWAP1 PUSH2 0x5B5E JUMP JUMPDEST PUSH1 0x40 MLOAD PUSH3 0x461BCD PUSH1 0xE5 SHL DUP2 MSTORE PUSH1 0x20 PUSH1 0x4 DUP3 ADD MSTORE PUSH1 0x1F PUSH1 0x24 DUP3 ADD MSTORE PUSH32 0x45503A205265736F6C7574696F6E2074696D65206E6F74207265616368656400 PUSH1 0x44 DUP3 ADD MSTORE PUSH1 0x64 SWAP1 REVERT JUMPDEST PUSH4 0x4E487B71 PUSH1 0xE0 SHL DUP7 MSTORE PUSH1 0x21 PUSH1 0x4 MSTORE PUSH1 0x24 DUP7 REVERT JUMPDEST POP CALLVALUE PUSH2 0x280 JUMPI PUSH1 0x20 CALLDATASIZE PUSH1 0x3 NOT ADD SLT PUSH2 0x280 JUMPI PUSH1 0xFF PUSH1 0x40 PUSH1 0x20 SWAP3 PUSH1 0x4 CALLDATALOAD DUP2 MSTORE PUSH1 0xB DUP5 MSTORE KECCAK256 SLOAD AND PUSH1 0x40 MLOAD SWAP1 ISZERO ISZERO DUP2 MSTORE RETURN JUMPDEST SWAP1 POP CALLVALUE PUSH2 0x3C1 JUMPI PUSH1 0x20 CALLDATASIZE PUSH1 0x3 NOT ADD SLT PUSH2 0x3C1 JUMPI PUSH1 0x40 PUSH1 0x20 SWAP3 PUSH1 0x4 CALLDATALOAD DUP2 MSTORE PUSH1 0x5 DUP5 MSTORE KECCAK256 SLOAD DUP2 MSTORE RETURN JUMPDEST PUSH1 0x24 CALLDATALOAD SWAP1 PUSH1 0x1 PUSH1 0x1 PUSH1 0xA0 SHL SUB DUP3 AND DUP3 SUB PUSH2 0x7DD JUMPI JUMP JUMPDEST PUSH1 0x4 CALLDATALOAD SWAP1 PUSH1 0x1 PUSH1 0x1 PUSH1 0xA0 SHL SUB DUP3 AND DUP3 SUB PUSH2 0x7DD JUMPI JUMP JUMPDEST PUSH1 0x60 SWAP1 PUSH1 0x3 NOT ADD SLT PUSH2 0x7DD JUMPI PUSH1 0x4 CALLDATALOAD SWAP1 PUSH1 0x1 PUSH1 0x1 PUSH1 0xA0 SHL SUB SWAP1 PUSH1 0x24 CALLDATALOAD DUP3 DUP2 AND DUP2 SUB PUSH2 0x7DD JUMPI SWAP2 PUSH1 0x44 CALLDATALOAD SWAP1 DUP2 AND DUP2 SUB PUSH2 0x7DD JUMPI SWAP1 JUMP JUMPDEST PUSH1 0xA SLOAD DUP2 LT ISZERO PUSH2 0x4AD3 JUMPI PUSH1 0xA PUSH1 0x0 MSTORE PUSH1 0x20 PUSH1 0x0 KECCAK256 ADD SWAP1 PUSH1 0x0 SWAP1 JUMP JUMPDEST PUSH4 0x4E487B71 PUSH1 0xE0 SHL PUSH1 0x0 MSTORE PUSH1 0x32 PUSH1 0x4 MSTORE PUSH1 0x24 PUSH1 0x0 REVERT JUMPDEST DUP1 SLOAD DUP3 LT ISZERO PUSH2 0x4AD3 JUMPI PUSH1 0x0 MSTORE PUSH1 0x20 PUSH1 0x0 KECCAK256 ADD SWAP1 PUSH1 0x0 SWAP1 JUMP JUMPDEST PUSH1 0x0 JUMPDEST DUP4 DUP2 LT PUSH2 0x4B14 JUMPI POP POP PUSH1 0x0 SWAP2 ADD MSTORE JUMP JUMPDEST DUP2 DUP2 ADD MLOAD DUP4 DUP3 ADD MSTORE PUSH1 0x20 ADD PUSH2 0x4B04 JUMP JUMPDEST SWAP1 PUSH1 0x20 SWAP2 PUSH2 0x4B3D DUP2 MLOAD DUP1 SWAP3 DUP2 DUP6 MSTORE DUP6 DUP1 DUP7 ADD SWAP2 ADD PUSH2 0x4B01 JUMP JUMPDEST PUSH1 0x1F ADD PUSH1 0x1F NOT AND ADD ADD SWAP1 JUMP JUMPDEST SWAP1 PUSH1 0x5 DUP3 LT ISZERO PUSH2 0x4B56 JUMPI MSTORE JUMP JUMPDEST PUSH4 0x4E487B71 PUSH1 0xE0 SHL PUSH1 0x0 MSTORE PUSH1 0x21 PUSH1 0x4 MSTORE PUSH1 0x24 PUSH1 0x0 REVERT JUMPDEST SWAP1 PUSH1 0x2 DUP3 LT ISZERO PUSH2 0x4B56 JUMPI MSTORE JUMP JUMPDEST SWAP1 PUSH1 0x1 DUP1 PUSH1 0xA0 SHL SUB SWAP2 DUP3 DUP2 MLOAD AND DUP3 MSTORE PUSH2 0x4BA1 PUSH1 0x20 DUP3 ADD MLOAD PUSH2 0x280 DUP1 PUSH1 0x20 DUP7 ADD MSTORE DUP5 ADD SWAP1 PUSH2 0x4B24 JUMP JUMPDEST SWAP3 PUSH1 0x40 DUP3 ADD MLOAD ISZERO ISZERO PUSH1 0x40 DUP5 ADD MSTORE PUSH1 0x60 DUP3 ADD MLOAD PUSH1 0x60 DUP5 ADD MSTORE DUP1 PUSH1 0x80 DUP4 ADD MLOAD AND PUSH1 0x80 DUP5 ADD MSTORE PUSH1 0xA0 DUP3 ADD MLOAD PUSH1 0xA0 DUP5 ADD MSTORE PUSH1 0xC0 DUP3 ADD MLOAD PUSH1 0xC0 DUP5 ADD MSTORE PUSH1 0xE0 DUP3 ADD MLOAD PUSH1 0xE0 DUP5 ADD MSTORE PUSH2 0x100 DUP1 DUP4 ADD MLOAD SWAP1 DUP5 ADD MSTORE PUSH2 0x120 DUP1 DUP4 ADD MLOAD SWAP1 DUP5 ADD MSTORE PUSH2 0x140 DUP1 DUP4 ADD MLOAD SWAP1 DUP5 ADD MSTORE PUSH2 0x160 DUP1 DUP4 ADD MLOAD SWAP1 DUP5 ADD MSTORE PUSH2 0x4C21 PUSH2 0x180 DUP1 DUP5 ADD MLOAD SWAP1 DUP6 ADD SWAP1 PUSH2 0x4B49 JUMP JUMPDEST PUSH2 0x1A0 DUP1 DUP4 ADD MLOAD SWAP1 DUP5 ADD MSTORE PUSH2 0x1C0 DUP1 DUP4 ADD MLOAD ISZERO ISZERO SWAP1 DUP5 ADD MSTORE PUSH2 0x4C4C PUSH2 0x1E0 DUP1 DUP5 ADD MLOAD SWAP1 DUP6 ADD SWAP1 PUSH2 0x4B6C JUMP JUMPDEST PUSH2 0x200 SWAP1 DUP2 DUP4 ADD MLOAD AND SWAP1 DUP4 ADD MSTORE PUSH2 0x220 DUP1 DUP3 ADD MLOAD SWAP1 DUP4 ADD MSTORE PUSH2 0x240 DUP1 DUP3 ADD MLOAD SWAP1 DUP4 ADD MSTORE PUSH2 0x260 DUP1 SWAP2 ADD MLOAD ISZERO ISZERO SWAP2 ADD MSTORE SWAP1 JUMP JUMPDEST SWAP1 DUP2 MLOAD DUP1 DUP3 MSTORE PUSH1 0x20 DUP1 DUP1 SWAP4 ADD SWAP4 ADD SWAP2 PUSH1 0x0 JUMPDEST DUP3 DUP2 LT PUSH2 0x4C9E JUMPI POP POP POP POP SWAP1 JUMP JUMPDEST DUP4 MLOAD PUSH1 0x1 PUSH1 0x1 PUSH1 0xA0 SHL SUB AND DUP6 MSTORE SWAP4 DUP2 ADD SWAP4 SWAP3 DUP2 ADD SWAP3 PUSH1 0x1 ADD PUSH2 0x4C90 JUMP JUMPDEST PUSH1 0x1 PUSH1 0x1 PUSH1 0x40 SHL SUB DUP2 GT PUSH2 0x30B9 JUMPI PUSH1 0x40 MSTORE JUMP JUMPDEST PUSH2 0x280 DUP2 ADD SWAP1 DUP2 LT PUSH1 0x1 PUSH1 0x1 PUSH1 0x40 SHL SUB DUP3 GT OR PUSH2 0x30B9 JUMPI PUSH1 0x40 MSTORE JUMP JUMPDEST PUSH1 0x40 DUP2 ADD SWAP1 DUP2 LT PUSH1 0x1 PUSH1 0x1 PUSH1 0x40 SHL SUB DUP3 GT OR PUSH2 0x30B9 JUMPI PUSH1 0x40 MSTORE JUMP JUMPDEST PUSH1 0x1F SWAP1 SWAP2 ADD PUSH1 0x1F NOT AND DUP2 ADD SWAP1 PUSH1 0x1 PUSH1 0x1 PUSH1 0x40 SHL SUB DUP3 GT SWAP1 DUP3 LT OR PUSH2 0x30B9 JUMPI PUSH1 0x40 MSTORE JUMP JUMPDEST PUSH1 0x1 PUSH1 0x1 PUSH1 0x40 SHL SUB DUP2 GT PUSH2 0x30B9 JUMPI PUSH1 0x1F ADD PUSH1 0x1F NOT AND PUSH1 0x20 ADD SWAP1 JUMP JUMPDEST SWAP3 SWAP2 SWAP3 PUSH2 0x4D4F DUP3 PUSH2 0x4D28 JUMP JUMPDEST SWAP2 PUSH2 0x4D5D PUSH1 0x40 MLOAD SWAP4 DUP5 PUSH2 0x4D05 JUMP JUMPDEST DUP3 SWAP5 DUP2 DUP5 MSTORE DUP2 DUP4 ADD GT PUSH2 0x7DD JUMPI DUP3 DUP2 PUSH1 0x20 SWAP4 DUP5 PUSH1 0x0 SWAP7 ADD CALLDATACOPY ADD ADD MSTORE JUMP JUMPDEST PUSH1 0x40 SWAP1 PUSH1 0x3 NOT ADD SLT PUSH2 0x7DD JUMPI PUSH1 0x4 CALLDATALOAD SWAP1 PUSH1 0x24 CALLDATALOAD SWAP1 JUMP JUMPDEST SWAP1 PUSH1 0x1 DUP3 DUP2 SHR SWAP3 AND DUP1 ISZERO PUSH2 0x4DC0 JUMPI JUMPDEST PUSH1 0x20 DUP4 LT EQ PUSH2 0x4DAA JUMPI JUMP JUMPDEST PUSH4 0x4E487B71 PUSH1 0xE0 SHL PUSH1 0x0 MSTORE PUSH1 0x22 PUSH1 0x4 MSTORE PUSH1 0x24 PUSH1 0x0 REVERT JUMPDEST SWAP2 PUSH1 0x7F AND SWAP2 PUSH2 0x4D9F JUMP JUMPDEST SWAP1 PUSH1 0x40 MLOAD SWAP2 DUP3 PUSH1 0x0 DUP3 SLOAD SWAP3 PUSH2 0x4DDE DUP5 PUSH2 0x4D90 JUMP JUMPDEST SWAP1 DUP2 DUP5 MSTORE PUSH1 0x1 SWAP5 DUP6 DUP2 AND SWAP1 DUP2 PUSH1 0x0 EQ PUSH2 0x4E4D JUMPI POP PUSH1 0x1 EQ PUSH2 0x4E0A JUMPI JUMPDEST POP POP PUSH2 0x4E08 SWAP3 POP SUB DUP4 PUSH2 0x4D05 JUMP JUMPDEST JUMP JUMPDEST SWAP1 SWAP4 SWAP2 POP PUSH1 0x0 MSTORE PUSH1 0x20 SWAP1 DUP2 PUSH1 0x0 KECCAK256 SWAP4 PUSH1 0x0 SWAP2 JUMPDEST DUP2 DUP4 LT PUSH2 0x4E35 JUMPI POP POP PUSH2 0x4E08 SWAP4 POP DUP3 ADD ADD CODESIZE DUP1 PUSH2 0x4DFA JUMP JUMPDEST DUP6 SLOAD DUP9 DUP5 ADD DUP6 ADD MSTORE SWAP5 DUP6 ADD SWAP5 DUP8 SWAP5 POP SWAP2 DUP4 ADD SWAP2 PUSH2 0x4E1D JUMP JUMPDEST SWAP2 POP POP PUSH2 0x4E08 SWAP5 POP PUSH1 0x20 SWAP3 POP PUSH1 0xFF NOT AND DUP3 DUP5 ADD MSTORE ISZERO ISZERO PUSH1 0x5 SHL DUP3 ADD ADD CODESIZE DUP1 PUSH2 0x4DFA JUMP JUMPDEST PUSH1 0x0 SLOAD PUSH1 0x1 PUSH1 0x1 PUSH1 0xA0 SHL SUB AND CALLER SUB PUSH2 0x4E84 JUMPI JUMP JUMPDEST PUSH1 0x40 MLOAD PUSH4 0x118CDAA7 PUSH1 0xE0 SHL DUP2 MSTORE CALLER PUSH1 0x4 DUP3 ADD MSTORE PUSH1 0x24 SWAP1 REVERT JUMPDEST SWAP1 DUP2 PUSH1 0x20 SWAP2 SUB SLT PUSH2 0x7DD JUMPI MLOAD DUP1 ISZERO ISZERO DUP2 SUB PUSH2 0x7DD JUMPI SWAP1 JUMP JUMPDEST ISZERO PUSH2 0x4EBB JUMPI JUMP JUMPDEST PUSH1 0x40 MLOAD PUSH3 0x461BCD PUSH1 0xE5 SHL DUP2 MSTORE PUSH1 0x20 PUSH1 0x4 DUP3 ADD MSTORE PUSH1 0x16 PUSH1 0x24 DUP3 ADD MSTORE PUSH22 0x11540E8815D85B1B195D08189B1858DADB1A5CDD1959 PUSH1 0x52 SHL PUSH1 0x44 DUP3 ADD MSTORE PUSH1 0x64 SWAP1 REVERT JUMPDEST ISZERO PUSH2 0x4F00 JUMPI JUMP JUMPDEST PUSH1 0x40 MLOAD PUSH3 0x461BCD PUSH1 0xE5 SHL DUP2 MSTORE PUSH1 0x20 PUSH1 0x4 DUP3 ADD MSTORE PUSH1 0x17 PUSH1 0x24 DUP3 ADD MSTORE PUSH23 0x11540E88151BDAD95B881B9BDD081CDD5C1C1BDC9D1959 PUSH1 0x4A SHL PUSH1 0x44 DUP3 ADD MSTORE PUSH1 0x64 SWAP1 REVERT JUMPDEST DUP2 DUP2 MUL SWAP3 SWAP2 DUP2 ISZERO SWAP2 DUP5 DIV EQ OR ISZERO PUSH2 0x4F52 JUMPI JUMP JUMPDEST PUSH4 0x4E487B71 PUSH1 0xE0 SHL PUSH1 0x0 MSTORE PUSH1 0x11 PUSH1 0x4 MSTORE PUSH1 0x24 PUSH1 0x0 REVERT JUMPDEST SWAP2 SWAP1 DUP3 ADD DUP1 SWAP3 GT PUSH2 0x4F52 JUMPI JUMP JUMPDEST PUSH1 0x0 NOT DUP2 EQ PUSH2 0x4F52 JUMPI PUSH1 0x1 ADD SWAP1 JUMP JUMPDEST PUSH1 0x5 DUP3 LT ISZERO PUSH2 0x4B56 JUMPI MSTORE JUMP JUMPDEST PUSH1 0x2 DUP3 LT ISZERO PUSH2 0x4B56 JUMPI MSTORE JUMP JUMPDEST DUP2 DUP2 LT PUSH2 0x4FA7 JUMPI POP POP JUMP JUMPDEST PUSH1 0x0 DUP2 SSTORE PUSH1 0x1 ADD PUSH2 0x4F9C JUMP JUMPDEST SWAP1 PUSH1 0xFF DUP1 NOT DUP4 SLOAD AND SWAP2 ISZERO ISZERO AND OR SWAP1 SSTORE JUMP JUMPDEST DUP1 SLOAD SWAP1 PUSH1 0x1 PUSH1 0x40 SHL DUP3 LT ISZERO PUSH2 0x30B9 JUMPI DUP2 PUSH2 0x2C9A SWAP2 PUSH1 0x1 PUSH2 0x4FE6 SWAP5 ADD DUP2 SSTORE PUSH2 0x4AE9 JUMP JUMPDEST SWAP1 SSTORE JUMP JUMPDEST RETURNDATASIZE ISZERO PUSH2 0x5015 JUMPI RETURNDATASIZE SWAP1 PUSH2 0x4FFB DUP3 PUSH2 0x4D28 JUMP JUMPDEST SWAP2 PUSH2 0x5009 PUSH1 0x40 MLOAD SWAP4 DUP5 PUSH2 0x4D05 JUMP JUMPDEST DUP3 MSTORE RETURNDATASIZE PUSH1 0x0 PUSH1 0x20 DUP5 ADD RETURNDATACOPY JUMP JUMPDEST PUSH1 0x60 SWAP1 JUMP JUMPDEST ISZERO PUSH2 0x5021 JUMPI JUMP JUMPDEST PUSH1 0x64 PUSH1 0x40 MLOAD PUSH3 0x461BCD PUSH1 0xE5 SHL DUP2 MSTORE PUSH1 0x20 PUSH1 0x4 DUP3 ADD MSTORE PUSH1 0x20 PUSH1 0x24 DUP3 ADD MSTORE PUSH32 0x45503A20466565207472616E7366657220746F206F776E6572206661696C6564 PUSH1 0x44 DUP3 ADD MSTORE REVERT JUMPDEST SWAP1 DUP2 MSTORE PUSH1 0x1 PUSH1 0x1 PUSH1 0xA0 SHL SUB SWAP2 DUP3 AND PUSH1 0x20 DUP3 ADD MSTORE SWAP2 AND PUSH1 0x40 DUP3 ADD MSTORE PUSH1 0x60 DUP2 ADD SWAP2 SWAP1 SWAP2 MSTORE PUSH1 0x80 DUP2 ADD SWAP2 SWAP1 SWAP2 MSTORE PUSH1 0xA0 ADD SWAP1 JUMP JUMPDEST SWAP1 DUP2 PUSH1 0x20 SWAP2 SUB SLT PUSH2 0x7DD JUMPI MLOAD PUSH1 0x1 PUSH1 0x1 PUSH1 0xA0 SHL SUB DUP2 AND DUP2 SUB PUSH2 0x7DD JUMPI SWAP1 JUMP JUMPDEST SWAP1 DUP2 MSTORE PUSH1 0x1 PUSH1 0x1 PUSH1 0xA0 SHL SUB SWAP1 SWAP2 AND PUSH1 0x20 DUP3 ADD MSTORE PUSH1 0x40 ADD SWAP1 JUMP JUMPDEST SWAP1 SWAP5 SWAP4 SWAP3 PUSH1 0x60 SWAP3 PUSH1 0x80 DUP4 ADD SWAP7 DUP4 MSTORE PUSH1 0x1 DUP1 PUSH1 0xA0 SHL SUB AND PUSH1 0x20 DUP4 ADD MSTORE PUSH1 0x40 DUP3 ADD MSTORE ADD MSTORE JUMP JUMPDEST PUSH1 0x1 PUSH1 0x1 PUSH1 0xA0 SHL SUB SWAP2 DUP3 AND DUP2 MSTORE SWAP2 AND PUSH1 0x20 DUP3 ADD MSTORE PUSH1 0x40 DUP2 ADD SWAP2 SWAP1 SWAP2 MSTORE PUSH1 0x60 ADD SWAP1 JUMP JUMPDEST SWAP3 SWAP1 PUSH1 0x0 SWAP2 PUSH2 0x514C PUSH1 0x20 SWAP5 PUSH2 0x513E PUSH1 0x40 MLOAD SWAP4 DUP5 SWAP3 DUP9 DUP5 ADD SWAP7 PUSH4 0x23B872DD PUSH1 0xE0 SHL DUP9 MSTORE PUSH1 0x24 DUP6 ADD PUSH2 0x50F1 JUMP JUMPDEST SUB PUSH1 0x1F NOT DUP2 ADD DUP4 MSTORE DUP3 PUSH2 0x4D05 JUMP JUMPDEST MLOAD SWAP1 DUP3 DUP6 GAS CALL ISZERO PUSH2 0x519F JUMPI PUSH1 0x0 MLOAD RETURNDATASIZE PUSH2 0x5196 JUMPI POP PUSH1 0x1 PUSH1 0x1 PUSH1 0xA0 SHL SUB DUP2 AND EXTCODESIZE ISZERO JUMPDEST PUSH2 0x5174 JUMPI POP JUMP JUMPDEST PUSH1 0x40 MLOAD PUSH4 0x5274AFE7 PUSH1 0xE0 SHL DUP2 MSTORE PUSH1 0x1 PUSH1 0x1 PUSH1 0xA0 SHL SUB SWAP1 SWAP2 AND PUSH1 0x4 DUP3 ADD MSTORE PUSH1 0x24 SWAP1 REVERT JUMPDEST PUSH1 0x1 EQ ISZERO PUSH2 0x516D JUMP JUMPDEST PUSH1 0x40 MLOAD RETURNDATASIZE PUSH1 0x0 DUP3 RETURNDATACOPY RETURNDATASIZE SWAP1 REVERT JUMPDEST ISZERO PUSH2 0x51B2 JUMPI JUMP JUMPDEST PUSH1 0x40 MLOAD PUSH3 0x461BCD PUSH1 0xE5 SHL DUP2 MSTORE PUSH1 0x20 PUSH1 0x4 DUP3 ADD MSTORE PUSH1 0x12 PUSH1 0x24 DUP3 ADD MSTORE PUSH18 0x11540E8813585C9AD95D0819195B195D1959 PUSH1 0x72 SHL PUSH1 0x44 DUP3 ADD MSTORE PUSH1 0x64 SWAP1 REVERT JUMPDEST ISZERO PUSH2 0x51F3 JUMPI JUMP JUMPDEST PUSH1 0x40 MLOAD PUSH3 0x461BCD PUSH1 0xE5 SHL DUP2 MSTORE PUSH1 0x20 PUSH1 0x4 DUP3 ADD MSTORE PUSH1 0xE PUSH1 0x24 DUP3 ADD MSTORE PUSH14 0x45503A204E6F7420616374697665 PUSH1 0x90 SHL PUSH1 0x44 DUP3 ADD MSTORE PUSH1 0x64 SWAP1 REVERT JUMPDEST SWAP2 SWAP1 DUP3 SUB SWAP2 DUP3 GT PUSH2 0x4F52 JUMPI JUMP JUMPDEST ISZERO PUSH2 0x523D JUMPI JUMP JUMPDEST PUSH1 0x40 MLOAD PUSH3 0x461BCD PUSH1 0xE5 SHL DUP2 MSTORE PUSH1 0x20 PUSH1 0x4 DUP3 ADD MSTORE PUSH1 0x18 PUSH1 0x24 DUP3 ADD MSTORE PUSH24 0x11540E8814DD185ADA5B99C81C195C9A5BD908195B991959 PUSH1 0x42 SHL PUSH1 0x44 DUP3 ADD MSTORE PUSH1 0x64 SWAP1 REVERT JUMPDEST ISZERO PUSH2 0x5284 JUMPI JUMP JUMPDEST PUSH1 0x40 MLOAD PUSH3 0x461BCD PUSH1 0xE5 SHL DUP2 MSTORE PUSH1 0x20 PUSH1 0x4 DUP3 ADD MSTORE PUSH1 0xE PUSH1 0x24 DUP3 ADD MSTORE PUSH14 0x22A81D102130B21037B83A34B7B7 PUSH1 0x91 SHL PUSH1 0x44 DUP3 ADD MSTORE PUSH1 0x64 SWAP1 REVERT JUMPDEST ISZERO PUSH2 0x52C1 JUMPI JUMP JUMPDEST PUSH1 0x40 MLOAD PUSH3 0x461BCD PUSH1 0xE5 SHL DUP2 MSTORE PUSH1 0x20 PUSH1 0x4 DUP3 ADD MSTORE PUSH1 0xD PUSH1 0x24 DUP3 ADD MSTORE PUSH13 0x22A81D102132B637BB9036B4B7 PUSH1 0x99 SHL PUSH1 0x44 DUP3 ADD MSTORE PUSH1 0x64 SWAP1 REVERT JUMPDEST DUP1 SLOAD PUSH1 0x1 PUSH1 0x40 SHL DUP2 LT ISZERO PUSH2 0x30B9 JUMPI PUSH2 0x5313 SWAP2 PUSH1 0x1 DUP3 ADD DUP2 SSTORE PUSH2 0x4AE9 JUMP JUMPDEST DUP2 SWAP3 SWAP2 SLOAD SWAP1 PUSH1 0x3 SHL SWAP2 PUSH1 0x1 DUP1 PUSH1 0xA0 SHL SUB DUP1 SWAP2 AND DUP4 SHL SWAP3 SHL NOT AND OR SWAP1 SSTORE JUMP JUMPDEST ISZERO PUSH2 0x5338 JUMPI JUMP JUMPDEST PUSH1 0x40 MLOAD PUSH3 0x461BCD PUSH1 0xE5 SHL DUP2 MSTORE PUSH1 0x20 PUSH1 0x4 DUP3 ADD MSTORE PUSH1 0x29 PUSH1 0x24 DUP3 ADD MSTORE PUSH32 0x45503A20537570706F727420616D6F756E74206D757374206265206772656174 PUSH1 0x44 DUP3 ADD MSTORE PUSH9 0x6572207468616E203 PUSH1 0xBC SHL PUSH1 0x64 DUP3 ADD MSTORE PUSH1 0x84 SWAP1 REVERT JUMPDEST SWAP1 DUP2 MSTORE PUSH1 0x1 PUSH1 0x1 PUSH1 0xA0 SHL SUB SWAP2 DUP3 AND PUSH1 0x20 DUP3 ADD MSTORE SWAP2 AND PUSH1 0x40 DUP3 ADD MSTORE PUSH1 0x60 DUP2 ADD SWAP2 SWAP1 SWAP2 MSTORE PUSH1 0x80 ADD SWAP1 JUMP JUMPDEST ISZERO PUSH2 0x53BE JUMPI JUMP JUMPDEST PUSH1 0x40 MLOAD PUSH3 0x461BCD PUSH1 0xE5 SHL DUP2 MSTORE PUSH1 0x20 PUSH1 0x4 DUP3 ADD MSTORE PUSH1 0x1A PUSH1 0x24 DUP3 ADD MSTORE PUSH26 0x45503A204E6F20737570706F727420746F207769746864726177 PUSH1 0x30 SHL PUSH1 0x44 DUP3 ADD MSTORE PUSH1 0x64 SWAP1 REVERT JUMPDEST SWAP1 DUP2 MSTORE PUSH1 0x1 PUSH1 0x1 PUSH1 0xA0 SHL SUB SWAP2 DUP3 AND PUSH1 0x20 DUP3 ADD MSTORE SWAP2 AND PUSH1 0x40 DUP3 ADD MSTORE PUSH1 0x60 ADD SWAP1 JUMP JUMPDEST ISZERO PUSH2 0x5427 JUMPI JUMP JUMPDEST PUSH1 0x40 MLOAD PUSH3 0x461BCD PUSH1 0xE5 SHL DUP2 MSTORE PUSH1 0x20 PUSH1 0x4 DUP3 ADD MSTORE PUSH1 0xD PUSH1 0x24 DUP3 ADD MSTORE PUSH13 0x11540E88139BDD08195B991959 PUSH1 0x9A SHL PUSH1 0x44 DUP3 ADD MSTORE PUSH1 0x64 SWAP1 REVERT JUMPDEST ISZERO PUSH2 0x5463 JUMPI JUMP JUMPDEST PUSH1 0x40 MLOAD PUSH3 0x461BCD PUSH1 0xE5 SHL DUP2 MSTORE PUSH1 0x20 PUSH1 0x4 DUP3 ADD MSTORE PUSH1 0xC PUSH1 0x24 DUP3 ADD MSTORE PUSH12 0x11540E8814995CDBDB1D9959 PUSH1 0xA2 SHL PUSH1 0x44 DUP3 ADD MSTORE PUSH1 0x64 SWAP1 REVERT JUMPDEST MLOAD SWAP1 PUSH1 0x1 PUSH1 0x1 PUSH1 0x50 SHL SUB DUP3 AND DUP3 SUB PUSH2 0x7DD JUMPI JUMP JUMPDEST ISZERO PUSH2 0x54B2 JUMPI JUMP JUMPDEST PUSH1 0x40 MLOAD PUSH3 0x461BCD PUSH1 0xE5 SHL DUP2 MSTORE PUSH1 0x20 PUSH1 0x4 DUP3 ADD MSTORE PUSH1 0x15 PUSH1 0x24 DUP3 ADD MSTORE PUSH21 0x45503A204E6F74205032504F5054494D4953544943 PUSH1 0x58 SHL PUSH1 0x44 DUP3 ADD MSTORE PUSH1 0x64 SWAP1 REVERT JUMPDEST ISZERO PUSH2 0x54F6 JUMPI JUMP JUMPDEST PUSH1 0x40 MLOAD PUSH3 0x461BCD PUSH1 0xE5 SHL DUP2 MSTORE PUSH1 0x20 PUSH1 0x4 DUP3 ADD MSTORE PUSH1 0x15 PUSH1 0x24 DUP3 ADD MSTORE PUSH21 0x45503A204E6F20617373657274696F6E206D616465 PUSH1 0x58 SHL PUSH1 0x44 DUP3 ADD MSTORE PUSH1 0x64 SWAP1 REVERT JUMPDEST ISZERO PUSH2 0x553A JUMPI JUMP JUMPDEST PUSH1 0x40 MLOAD PUSH3 0x461BCD PUSH1 0xE5 SHL DUP2 MSTORE PUSH1 0x20 PUSH1 0x4 DUP3 ADD MSTORE PUSH1 0x13 PUSH1 0x24 DUP3 ADD MSTORE PUSH19 0x11540E88139BC8185CDCD95C9D1A5BDB881251 PUSH1 0x6A SHL PUSH1 0x44 DUP3 ADD MSTORE PUSH1 0x64 SWAP1 REVERT JUMPDEST ISZERO PUSH2 0x557C JUMPI JUMP JUMPDEST PUSH1 0x40 MLOAD PUSH3 0x461BCD PUSH1 0xE5 SHL DUP2 MSTORE PUSH1 0x20 PUSH1 0x4 DUP3 ADD MSTORE PUSH1 0x10 PUSH1 0x24 DUP3 ADD MSTORE PUSH16 0x11540E88139BDD081C995CDBDB1D9959 PUSH1 0x82 SHL PUSH1 0x44 DUP3 ADD MSTORE PUSH1 0x64 SWAP1 REVERT JUMPDEST ISZERO PUSH2 0x55BB JUMPI JUMP JUMPDEST PUSH1 0x40 MLOAD PUSH3 0x461BCD PUSH1 0xE5 SHL DUP2 MSTORE PUSH1 0x20 PUSH1 0x4 DUP3 ADD MSTORE PUSH1 0xD PUSH1 0x24 DUP3 ADD MSTORE PUSH13 0x22A81D102737903BB4B73732B9 PUSH1 0x99 SHL PUSH1 0x44 DUP3 ADD MSTORE PUSH1 0x64 SWAP1 REVERT JUMPDEST SWAP1 DUP2 MSTORE PUSH1 0x20 DUP2 ADD SWAP2 SWAP1 SWAP2 MSTORE PUSH1 0x1 PUSH1 0x1 PUSH1 0xA0 SHL SUB SWAP1 SWAP2 AND PUSH1 0x40 DUP3 ADD MSTORE PUSH1 0x60 ADD SWAP1 JUMP JUMPDEST DUP2 ISZERO PUSH2 0x561B JUMPI DIV SWAP1 JUMP JUMPDEST PUSH4 0x4E487B71 PUSH1 0xE0 SHL PUSH1 0x0 MSTORE PUSH1 0x12 PUSH1 0x4 MSTORE PUSH1 0x24 PUSH1 0x0 REVERT JUMPDEST SWAP1 PUSH2 0x5675 PUSH1 0x0 DUP1 MLOAD PUSH1 0x20 PUSH2 0x5D66 DUP4 CODECOPY DUP2 MLOAD SWAP2 MSTORE SWAP2 DUP4 PUSH1 0x0 MSTORE PUSH1 0x1 PUSH1 0x20 MSTORE PUSH1 0xC PUSH1 0x40 PUSH1 0x0 KECCAK256 ADD PUSH1 0x3 PUSH1 0xFF NOT DUP3 SLOAD AND OR SWAP1 SSTORE PUSH1 0x40 MLOAD SWAP2 DUP3 SWAP2 PUSH1 0x20 DUP4 MSTORE PUSH1 0x20 DUP4 ADD SWAP1 PUSH2 0x4B24 JUMP JUMPDEST SUB SWAP1 LOG2 JUMP JUMPDEST PUSH1 0x1 PUSH1 0x1 PUSH1 0xA0 SHL SUB SWAP1 SWAP2 AND DUP2 MSTORE PUSH1 0x20 DUP2 ADD SWAP2 SWAP1 SWAP2 MSTORE PUSH1 0x40 ADD SWAP1 JUMP JUMPDEST PUSH1 0x0 SWAP1 DUP1 DUP3 MSTORE PUSH1 0x20 PUSH1 0x1 DUP2 MSTORE PUSH1 0x40 SWAP2 DUP3 DUP5 KECCAK256 SWAP1 DUP5 SWAP2 PUSH1 0x1 PUSH1 0x3 DUP3 ADD SLOAD PUSH1 0xD DUP4 ADD SLOAD SWAP2 JUMPDEST DUP2 DUP2 GT ISZERO PUSH2 0x5AB0 JUMPI POP POP PUSH1 0x7 SLOAD PUSH1 0x4 DUP4 DUP2 ADD DUP1 SLOAD DUP10 MLOAD PUSH4 0x4F44289D PUSH1 0xE0 SHL DUP2 MSTORE PUSH1 0x1 PUSH1 0x1 PUSH1 0xA0 SHL SUB SWAP10 SWAP3 SWAP9 SWAP4 SWAP8 SWAP3 SWAP5 DUP11 AND SWAP4 SWAP2 DUP11 AND SWAP3 SWAP2 DUP6 DUP3 DUP1 PUSH2 0x56FF DUP8 DUP8 DUP4 DUP16 ADD PUSH2 0x50B4 JUMP JUMPDEST SUB DUP2 DUP9 GAS STATICCALL SWAP2 DUP3 ISZERO PUSH2 0x5AA6 JUMPI SWAP2 DUP10 SWAP2 DUP14 SWAP8 SWAP7 SWAP6 SWAP5 SWAP4 DUP16 SWAP3 PUSH2 0x5A63 JUMPI JUMPDEST POP SWAP2 PUSH2 0x5745 DUP6 PUSH2 0x572D DUP7 SWAP5 DUP11 SWAP7 PUSH2 0x4F68 JUMP JUMPDEST SWAP10 MLOAD PUSH4 0xDC4CE349 PUSH1 0xE0 SHL DUP2 MSTORE SWAP11 DUP12 SWAP5 DUP6 SWAP5 DUP6 ADD PUSH2 0x55F0 JUMP JUMPDEST SUB DUP2 DUP7 GAS STATICCALL SWAP6 DUP7 ISZERO PUSH2 0x5A26 JUMPI DUP13 SWAP7 PUSH2 0x5A30 JUMPI JUMPDEST POP DUP4 DUP3 PUSH2 0x5778 SWAP3 DUP14 MLOAD SWAP4 DUP5 SWAP3 DUP4 SWAP3 PUSH4 0x3D1E7BA1 PUSH1 0xE1 SHL DUP5 MSTORE DUP14 DUP5 ADD PUSH2 0x50B4 JUMP JUMPDEST SUB DUP2 DUP7 GAS STATICCALL SWAP4 DUP5 ISZERO PUSH2 0x5A26 JUMPI DUP13 SWAP5 PUSH2 0x59F6 JUMPI JUMPDEST POP POP PUSH2 0x15E SWAP4 DUP5 DUP5 MUL DUP5 ISZERO SWAP6 DUP6 DUP3 DIV EQ DUP7 OR ISZERO PUSH2 0x59E3 JUMPI PUSH2 0x2710 DUP1 SWAP2 DIV SWAP6 PUSH2 0x1F4 SWAP1 DUP2 DUP8 MUL SWAP2 DUP8 DUP4 DIV EQ OR ISZERO PUSH2 0x59D0 JUMPI DIV SWAP6 PUSH2 0x58D2 JUMPI POP POP POP PUSH2 0x57D8 SWAP1 PUSH2 0x57D2 DUP5 DUP5 PUSH2 0x4F68 JUMP JUMPDEST SWAP1 PUSH2 0x5229 JUMP JUMPDEST SWAP3 DUP2 PUSH2 0x5865 JUMPI JUMPDEST POP POP SWAP1 PUSH2 0x57EB SWAP2 PUSH2 0x4F68 JUMP JUMPDEST SWAP3 DUP4 PUSH2 0x57FA JUMPI JUMPDEST POP POP POP POP POP POP JUMP JUMPDEST DUP1 PUSH1 0x7 SLOAD AND SWAP3 SLOAD AND SWAP1 DUP3 EXTCODESIZE ISZERO PUSH2 0xB29 JUMPI SWAP2 DUP5 SWAP4 SWAP2 DUP7 DUP1 SWAP5 PUSH2 0x582E SWAP8 MLOAD SWAP8 DUP9 SWAP6 DUP7 SWAP5 DUP6 SWAP4 PUSH4 0xF0824F33 PUSH1 0xE0 SHL DUP6 MSTORE DUP5 ADD PUSH2 0x567A JUMP JUMPDEST SUB SWAP3 GAS CALL SWAP1 DUP2 ISZERO PUSH2 0x585C JUMPI POP PUSH2 0x5848 JUMPI JUMPDEST DUP1 DUP1 DUP1 DUP1 PUSH2 0x57F2 JUMP JUMPDEST PUSH2 0x5852 DUP3 SWAP2 PUSH2 0x4CBB JUMP JUMPDEST PUSH2 0x280 JUMPI DUP1 PUSH2 0x583F JUMP JUMPDEST MLOAD RETURNDATASIZE DUP5 DUP3 RETURNDATACOPY RETURNDATASIZE SWAP1 REVERT JUMPDEST DUP7 DUP1 PUSH1 0x7 SLOAD AND SWAP2 SLOAD AND DUP8 DUP8 SLOAD AND SWAP1 DUP3 EXTCODESIZE ISZERO PUSH2 0x58CE JUMPI SWAP2 PUSH2 0x589E SWAP4 SWAP2 DUP12 DUP1 SWAP5 DUP13 MLOAD SWAP7 DUP8 SWAP6 DUP7 SWAP5 DUP6 SWAP4 PUSH4 0x112CD223 PUSH1 0xE0 SHL DUP6 MSTORE DUP14 DUP6 ADD PUSH2 0x50F1 JUMP JUMPDEST SUB SWAP3 GAS CALL DUP1 ISZERO PUSH2 0x58C4 JUMPI SWAP1 DUP9 SWAP2 ISZERO PUSH2 0x57DF JUMPI PUSH2 0x58B9 SWAP1 PUSH2 0x4CBB JUMP JUMPDEST PUSH2 0x20A6 JUMPI DUP7 CODESIZE PUSH2 0x57DF JUMP JUMPDEST DUP8 MLOAD RETURNDATASIZE DUP11 DUP3 RETURNDATACOPY RETURNDATASIZE SWAP1 REVERT JUMPDEST DUP11 DUP1 REVERT JUMPDEST SWAP1 SWAP3 POP SWAP8 SWAP5 SWAP1 SWAP3 SWAP4 SWAP8 PUSH2 0x58EC JUMPI JUMPDEST POP POP POP POP POP POP POP POP POP POP JUMP JUMPDEST DUP5 SWAP1 DUP5 PUSH2 0x596A JUMPI JUMPDEST POP POP POP POP POP DUP4 PUSH2 0x5908 JUMPI JUMPDEST DUP1 DUP1 DUP1 DUP1 PUSH2 0x58E0 JUMP JUMPDEST DUP1 PUSH1 0x7 SLOAD AND SWAP3 SLOAD AND SWAP1 DUP3 EXTCODESIZE ISZERO PUSH2 0xB29 JUMPI SWAP2 DUP5 SWAP4 SWAP2 DUP7 DUP1 SWAP5 PUSH2 0x593C SWAP8 MLOAD SWAP8 DUP9 SWAP6 DUP7 SWAP5 DUP6 SWAP4 PUSH4 0x48FEF595 PUSH1 0xE0 SHL DUP6 MSTORE DUP5 ADD PUSH2 0x567A JUMP JUMPDEST SUB SWAP3 GAS CALL SWAP1 DUP2 ISZERO PUSH2 0x585C JUMPI POP PUSH2 0x5956 JUMPI JUMPDEST DUP1 DUP1 DUP1 DUP1 PUSH2 0x58FF JUMP JUMPDEST PUSH2 0x5960 DUP3 SWAP2 PUSH2 0x4CBB JUMP JUMPDEST PUSH2 0x280 JUMPI DUP1 PUSH2 0x594D JUMP JUMPDEST SLOAD AND DUP3 EXTCODESIZE ISZERO PUSH2 0x59CC JUMPI SWAP2 PUSH2 0x5997 SWAP4 SWAP2 DUP11 DUP1 SWAP5 DUP12 MLOAD SWAP7 DUP8 SWAP6 DUP7 SWAP5 DUP6 SWAP4 PUSH4 0x112CD223 PUSH1 0xE0 SHL DUP6 MSTORE DUP13 DUP6 ADD PUSH2 0x50F1 JUMP JUMPDEST SUB SWAP3 GAS CALL DUP1 ISZERO PUSH2 0x59C2 JUMPI PUSH2 0x59AF JUMPI JUMPDEST DUP1 DUP1 DUP4 DUP2 PUSH2 0x58F4 JUMP JUMPDEST PUSH2 0x59BB SWAP1 SWAP7 SWAP2 SWAP7 PUSH2 0x4CBB JUMP JUMPDEST SWAP5 CODESIZE PUSH2 0x59A6 JUMP JUMPDEST DUP7 MLOAD RETURNDATASIZE DUP10 DUP3 RETURNDATACOPY RETURNDATASIZE SWAP1 REVERT JUMPDEST DUP10 DUP1 REVERT JUMPDEST PUSH4 0x4E487B71 PUSH1 0xE0 SHL DUP15 MSTORE PUSH1 0x11 DUP11 MSTORE PUSH1 0x24 DUP15 REVERT JUMPDEST PUSH4 0x4E487B71 PUSH1 0xE0 SHL DUP14 MSTORE PUSH1 0x11 DUP10 MSTORE PUSH1 0x24 DUP14 REVERT JUMPDEST SWAP1 DUP1 SWAP3 SWAP5 POP DUP2 RETURNDATASIZE DUP4 GT PUSH2 0x5A1F JUMPI JUMPDEST PUSH2 0x5A0E DUP2 DUP4 PUSH2 0x4D05 JUMP JUMPDEST DUP2 ADD SUB SLT PUSH2 0x58CE JUMPI MLOAD SWAP2 CODESIZE DUP1 PUSH2 0x578B JUMP JUMPDEST POP RETURNDATASIZE PUSH2 0x5A04 JUMP JUMPDEST DUP12 MLOAD RETURNDATASIZE DUP15 DUP3 RETURNDATACOPY RETURNDATASIZE SWAP1 REVERT JUMPDEST SWAP1 SWAP6 POP DUP4 DUP2 DUP2 RETURNDATASIZE DUP4 GT PUSH2 0x5A5C JUMPI JUMPDEST PUSH2 0x5A48 DUP2 DUP4 PUSH2 0x4D05 JUMP JUMPDEST DUP2 ADD SUB SLT PUSH2 0x5A58 JUMPI MLOAD SWAP5 DUP4 PUSH2 0x5758 JUMP JUMPDEST DUP12 DUP1 REVERT JUMPDEST POP RETURNDATASIZE PUSH2 0x5A3E JUMP JUMPDEST SWAP3 POP SWAP3 SWAP4 SWAP5 SWAP6 SWAP7 POP POP DUP6 DUP2 DUP2 RETURNDATASIZE DUP4 GT PUSH2 0x5A9F JUMPI JUMPDEST PUSH2 0x5A81 DUP2 DUP4 PUSH2 0x4D05 JUMP JUMPDEST DUP2 ADD SUB SLT PUSH2 0x5A9B JUMPI MLOAD DUP12 SWAP6 SWAP5 SWAP4 SWAP3 SWAP2 DUP10 SWAP2 SWAP1 PUSH2 0x5745 PUSH2 0x571B JUMP JUMPDEST DUP13 DUP1 REVERT JUMPDEST POP RETURNDATASIZE PUSH2 0x5A77 JUMP JUMPDEST DUP13 MLOAD RETURNDATASIZE DUP16 DUP3 RETURNDATACOPY RETURNDATASIZE SWAP1 REVERT JUMPDEST DUP3 DUP2 SUB PUSH2 0x5AC6 JUMPI JUMPDEST PUSH2 0x5AC1 SWAP1 PUSH2 0x4F75 JUMP JUMPDEST PUSH2 0x56B8 JUMP JUMPDEST SWAP5 DUP8 DUP8 DUP8 PUSH1 0x1 DUP1 PUSH1 0xA0 SHL SUB DUP9 DUP2 PUSH1 0x7 SLOAD AND SWAP2 PUSH2 0x5AFD PUSH1 0x4 SWAP2 DUP3 DUP13 ADD SLOAD AND SWAP7 MLOAD SWAP7 DUP8 SWAP6 DUP7 SWAP5 DUP6 SWAP5 PUSH4 0xDC4CE349 PUSH1 0xE0 SHL DUP7 MSTORE DUP6 ADD PUSH2 0x55F0 JUMP JUMPDEST SUB SWAP2 GAS STATICCALL SWAP1 DUP2 ISZERO PUSH2 0x5B54 JUMPI DUP11 SWAP2 PUSH2 0x5B25 JUMPI JUMPDEST POP PUSH2 0x5B1D SWAP1 PUSH2 0x5AC1 SWAP3 PUSH2 0x4F68 JUMP JUMPDEST SWAP6 SWAP1 POP PUSH2 0x5AB8 JUMP JUMPDEST SWAP1 POP DUP8 DUP2 DUP2 RETURNDATASIZE DUP4 GT PUSH2 0x5B4D JUMPI JUMPDEST PUSH2 0x5B3C DUP2 DUP4 PUSH2 0x4D05 JUMP JUMPDEST DUP2 ADD SUB SLT PUSH2 0x59CC JUMPI MLOAD PUSH2 0x5AC1 PUSH2 0x5B0F JUMP JUMPDEST POP RETURNDATASIZE PUSH2 0x5B32 JUMP JUMPDEST DUP10 MLOAD RETURNDATASIZE DUP13 DUP3 RETURNDATACOPY RETURNDATASIZE SWAP1 REVERT JUMPDEST PUSH1 0x0 JUMPDEST PUSH1 0xA SWAP1 DUP2 SLOAD SWAP2 DUP3 DUP3 LT ISZERO PUSH2 0x5C13 JUMPI DUP4 SWAP3 PUSH2 0x5B7A DUP4 PUSH2 0x4AB8 JUMP JUMPDEST SWAP5 SWAP1 SLOAD PUSH1 0x3 SWAP6 DUP7 SHL SHR EQ PUSH2 0x5B99 JUMPI POP POP PUSH2 0x5B94 SWAP2 POP PUSH2 0x4F75 JUMP JUMPDEST PUSH2 0x5B61 JUMP JUMPDEST SWAP1 SWAP2 PUSH1 0x0 NOT SWAP2 DUP3 DUP2 ADD SWAP1 DUP2 GT PUSH2 0x4F52 JUMPI PUSH2 0x2C9A PUSH2 0x5BB8 PUSH2 0x5BC4 SWAP3 PUSH2 0x4AB8 JUMP JUMPDEST SWAP1 SLOAD SWAP1 DUP8 SHL SHR SWAP3 PUSH2 0x4AB8 JUMP JUMPDEST SWAP1 SSTORE DUP2 SLOAD DUP1 ISZERO PUSH2 0x5BFD JUMPI DUP2 ADD SWAP3 PUSH2 0x5BDA DUP5 PUSH2 0x4AB8 JUMP JUMPDEST DUP2 SWAP4 SWAP2 SLOAD SWAP3 SHL SHL NOT AND SWAP1 SSTORE SSTORE PUSH1 0x0 MSTORE PUSH1 0xB PUSH1 0x20 MSTORE PUSH1 0x40 PUSH1 0x0 KECCAK256 PUSH1 0xFF NOT DUP2 SLOAD AND SWAP1 SSTORE JUMP JUMPDEST PUSH4 0x4E487B71 PUSH1 0xE0 SHL PUSH1 0x0 MSTORE PUSH1 0x31 PUSH1 0x4 MSTORE PUSH1 0x24 PUSH1 0x0 REVERT JUMPDEST POP POP POP POP JUMP JUMPDEST ISZERO PUSH2 0x5C20 JUMPI JUMP JUMPDEST PUSH1 0x40 MLOAD PUSH3 0x461BCD PUSH1 0xE5 SHL DUP2 MSTORE PUSH1 0x20 PUSH1 0x4 DUP3 ADD MSTORE PUSH1 0x15 PUSH1 0x24 DUP3 ADD MSTORE PUSH21 0x22A81D1027B7363C9020B236B4B726B0B730B3B2B9 PUSH1 0x59 SHL PUSH1 0x44 DUP3 ADD MSTORE PUSH1 0x64 SWAP1 REVERT JUMPDEST ISZERO PUSH2 0x5C64 JUMPI JUMP JUMPDEST PUSH1 0x40 MLOAD PUSH3 0x461BCD PUSH1 0xE5 SHL DUP2 MSTORE PUSH1 0x20 PUSH1 0x4 DUP3 ADD MSTORE PUSH1 0xA PUSH1 0x24 DUP3 ADD MSTORE PUSH10 0x11540E88109859081251 PUSH1 0xB2 SHL PUSH1 0x44 DUP3 ADD MSTORE PUSH1 0x64 SWAP1 REVERT JUMPDEST ISZERO PUSH2 0x5C9D JUMPI JUMP JUMPDEST PUSH1 0x40 MLOAD PUSH3 0x461BCD PUSH1 0xE5 SHL DUP2 MSTORE PUSH1 0x20 PUSH1 0x4 DUP3 ADD MSTORE PUSH1 0xD PUSH1 0x24 DUP3 ADD MSTORE PUSH13 0x11540E88139BC81B585C9AD95D PUSH1 0x9A SHL PUSH1 0x44 DUP3 ADD MSTORE PUSH1 0x64 SWAP1 REVERT JUMPDEST PUSH1 0x40 MLOAD SWAP1 PUSH2 0x5CDF DUP3 PUSH2 0x4CCE JUMP JUMPDEST DUP2 PUSH2 0x260 PUSH1 0x0 SWAP2 DUP3 DUP2 MSTORE PUSH1 0x60 PUSH1 0x20 DUP3 ADD MSTORE DUP3 PUSH1 0x40 DUP3 ADD MSTORE DUP3 PUSH1 0x60 DUP3 ADD MSTORE DUP3 PUSH1 0x80 DUP3 ADD MSTORE DUP3 PUSH1 0xA0 DUP3 ADD MSTORE DUP3 PUSH1 0xC0 DUP3 ADD MSTORE DUP3 PUSH1 0xE0 DUP3 ADD MSTORE DUP3 PUSH2 0x100 DUP3 ADD MSTORE DUP3 PUSH2 0x120 DUP3 ADD MSTORE DUP3 PUSH2 0x140 DUP3 ADD MSTORE DUP3 PUSH2 0x160 DUP3 ADD MSTORE DUP3 PUSH2 0x180 DUP3 ADD MSTORE DUP3 PUSH2 0x1A0 DUP3 ADD MSTORE DUP3 PUSH2 0x1C0 DUP3 ADD MSTORE DUP3 PUSH2 0x1E0 DUP3 ADD MSTORE DUP3 PUSH2 0x200 DUP3 ADD MSTORE DUP3 PUSH2 0x220 DUP3 ADD MSTORE DUP3 PUSH2 0x240 DUP3 ADD MSTORE ADD MSTORE JUMP INVALID 0x4C GASLIMIT PUSH2 0xC5B0 DIV DUP5 0x24 SMOD SHR GT ISZERO 0xE9 CALL 0xE3 0x25 BASEFEE PUSH15 0x21C21333D968F21097B7B72D12AD8B 0xE0 SMOD SWAP13 MSTORE8 AND MSIZE EQ SGT PREVRANDAO 0xCD 0x1F 0xD0 LOG4 CALLCODE DUP5 NOT 0x49 PUSH32 0x9722A3DAAFE3B4186F6B6457E06DFC24F0F2FB42E49FB4FA3FFA8ABB148CAB90 DUP11 0x1F 0xB8 CALLER JUMPDEST EXTCODEHASH SLT DUP11 ADDMOD 0xB2 MSIZE 0x4A CALL 0xE1 0xF 0xDD 0xE2 0xC5 0xCD SWAP12 SWAP3 0xE4 0x49 0xEE 0x25 0xDF ADD INVALID 0xBD LOG2 0xCB 0xEB 0xC5 SSTORE RETURNDATACOPY CODESIZE CALLCODE 0x25 0xF INVALID PUSH32 0x2D5143BCA164736F6C6343000814000A00000000000000000000000000000000 "},"methodIdentifiers":{"CREATOR_FEE_BPS()":"cc3cbd2a","PLATFORM_FEE_BPS()":"539aa77f","activeMarkets(uint256)":"3adfe6d0","adminManager()":"a210b6a4","calculateWinnings(uint256,address)":"f15cc406","cancelMarket(uint256)":"7c16cd9e","claimRefund(uint256)":"5b7baf64","claimWinnings(uint256)":"677bd9ff","createMarket(string,bool,uint256,address,uint256,uint256,uint256,uint256,uint256,uint8,address,uint256)":"66cf7ed4","creatorCancelMarket(uint256)":"c3436e0c","defaultBondCurrency()":"209c1c94","disputeOracle(uint256)":"5cb305a6","endMarket(uint256)":"157bdcce","getMarket(uint256)":"eb44fdd3","getMarketInfo(uint256)":"3ec79193","getMarketStakers(uint256)":"6f59359e","getNextMarketId()":"fe53a6e8","getOptionPool(uint256,uint256,address)":"dc4ce349","getStakerCount(uint256)":"0ccf4467","getSupportPool(uint256,address)":"4f44289d","getSupporterCount(uint256)":"a30a0914","getTotalPool(uint256,address)":"f00fe321","getUserStake(uint256,address,address)":"847cf782","getUserSupport(uint256,address,address)":"256ba741","isActiveMarket(uint256)":"0d64cdbd","markMarketDeleted(uint256)":"fb87f2c3","markMarketPermanentlyRemoved(uint256)":"e0bd4acc","marketCreationFee()":"2ef1bdfa","marketStakers(uint256,uint256)":"d5f82707","marketSupporters(uint256,uint256)":"c22c62c3","markets(uint256)":"b1283e77","nextMarketId()":"406ef2ef","optimisticOracle()":"22302922","owner()":"8da5cb5b","placeStake(uint256,uint256)":"f4867591","placeStakeWithToken(uint256,uint256,uint256)":"f1b7dde3","renounceOwnership()":"715018a6","requestP2PResolution(uint256,bytes)":"422cc3ae","resolveP2PMarket(uint256,uint256)":"4fc4d31c","resolvePriceFeedMarket(uint256)":"9a3a40d6","setAdminManager(address)":"bc160758","setDefaultBondCurrency(address)":"a550725d","setOptimisticOracle(address)":"bf5c3252","settleOracle(uint256)":"569946c5","supportMarket(uint256,uint256)":"f204072f","transferOwnership(address)":"f2fde38b","treasury()":"61d027b3","userHasStaked(uint256,address)":"304bf1f1","userHasSupported(uint256,address)":"287f57b5","userMarketHistory(address,uint256)":"98a17671","userStakeOptions(uint256,address)":"d8c5dd67","withdrawSupport(uint256)":"3e32a76c"}}}}}