{"contracts/P2PVerification.sol":{"ValidationCore":{"abi":[{"inputs":[{"internalType":"address","name":"initialOwner","type":"address"}],"stateMutability":"nonpayable","type":"constructor"},{"inputs":[{"internalType":"address","name":"owner","type":"address"}],"name":"OwnableInvalidOwner","type":"error"},{"inputs":[{"internalType":"address","name":"account","type":"address"}],"name":"OwnableUnauthorizedAccount","type":"error"},{"anonymous":false,"inputs":[{"indexed":true,"internalType":"uint256","name":"marketId","type":"uint256"},{"indexed":false,"internalType":"uint256","name":"winningOption","type":"uint256"}],"name":"AutoResolutionTriggered","type":"event"},{"anonymous":false,"inputs":[{"indexed":true,"internalType":"address","name":"oldManager","type":"address"},{"indexed":true,"internalType":"address","name":"newManager","type":"address"}],"name":"MarketManagerUpdated","type":"event"},{"anonymous":false,"inputs":[{"indexed":true,"internalType":"address","name":"previousOwner","type":"address"},{"indexed":true,"internalType":"address","name":"newOwner","type":"address"}],"name":"OwnershipTransferred","type":"event"},{"anonymous":false,"inputs":[{"indexed":true,"internalType":"address","name":"market","type":"address"},{"indexed":false,"internalType":"uint256","name":"winningOption","type":"uint256"}],"name":"ResolutionReached","type":"event"},{"anonymous":false,"inputs":[{"indexed":true,"internalType":"address","name":"verifier","type":"address"}],"name":"VerifierAdded","type":"event"},{"anonymous":false,"inputs":[{"indexed":true,"internalType":"address","name":"verifier","type":"address"}],"name":"VerifierRemoved","type":"event"},{"anonymous":false,"inputs":[{"indexed":true,"internalType":"address","name":"market","type":"address"},{"indexed":false,"internalType":"uint256","name":"option","type":"uint256"},{"indexed":true,"internalType":"address","name":"verifier","type":"address"}],"name":"VoteCast","type":"event"},{"inputs":[],"name":"MAX_VERIFIERS","outputs":[{"internalType":"uint256","name":"","type":"uint256"}],"stateMutability":"view","type":"function"},{"inputs":[],"name":"REQUIRED_QUORUM","outputs":[{"internalType":"uint256","name":"","type":"uint256"}],"stateMutability":"view","type":"function"},{"inputs":[{"internalType":"address","name":"verifier","type":"address"}],"name":"addVerifier","outputs":[],"stateMutability":"nonpayable","type":"function"},{"inputs":[{"internalType":"uint256","name":"marketId","type":"uint256"},{"internalType":"uint256","name":"option","type":"uint256"}],"name":"castVote","outputs":[],"stateMutability":"nonpayable","type":"function"},{"inputs":[],"name":"getVerifierCount","outputs":[{"internalType":"uint256","name":"","type":"uint256"}],"stateMutability":"view","type":"function"},{"inputs":[],"name":"getVerifiers","outputs":[{"internalType":"address[]","name":"","type":"address[]"}],"stateMutability":"view","type":"function"},{"inputs":[{"internalType":"uint256","name":"marketId","type":"uint256"},{"internalType":"uint256","name":"option","type":"uint256"}],"name":"getVoteCount","outputs":[{"internalType":"uint256","name":"","type":"uint256"}],"stateMutability":"view","type":"function"},{"inputs":[{"internalType":"uint256","name":"marketId","type":"uint256"},{"internalType":"uint256","name":"option","type":"uint256"},{"internalType":"address","name":"verifier","type":"address"}],"name":"hasVerifierVoted","outputs":[{"internalType":"bool","name":"","type":"bool"}],"stateMutability":"view","type":"function"},{"inputs":[{"internalType":"uint256","name":"","type":"uint256"},{"internalType":"uint256","name":"","type":"uint256"}],"name":"hasVoted","outputs":[{"internalType":"bool","name":"","type":"bool"}],"stateMutability":"view","type":"function"},{"inputs":[{"internalType":"uint256","name":"marketId","type":"uint256"}],"name":"isResolved","outputs":[{"internalType":"bool","name":"","type":"bool"},{"internalType":"uint256","name":"","type":"uint256"}],"stateMutability":"view","type":"function"},{"inputs":[{"internalType":"address","name":"","type":"address"}],"name":"isVerifier","outputs":[{"internalType":"bool","name":"","type":"bool"}],"stateMutability":"view","type":"function"},{"inputs":[],"name":"marketManager","outputs":[{"internalType":"address","name":"","type":"address"}],"stateMutability":"view","type":"function"},{"inputs":[],"name":"owner","outputs":[{"internalType":"address","name":"","type":"address"}],"stateMutability":"view","type":"function"},{"inputs":[{"internalType":"address","name":"verifier","type":"address"}],"name":"removeVerifier","outputs":[],"stateMutability":"nonpayable","type":"function"},{"inputs":[],"name":"renounceOwnership","outputs":[],"stateMutability":"nonpayable","type":"function"},{"inputs":[{"internalType":"uint256","name":"marketId","type":"uint256"}],"name":"resetMarketVotes","outputs":[],"stateMutability":"nonpayable","type":"function"},{"inputs":[{"internalType":"address","name":"_marketManager","type":"address"}],"name":"setMarketManager","outputs":[],"stateMutability":"nonpayable","type":"function"},{"inputs":[{"internalType":"address","name":"newOwner","type":"address"}],"name":"transferOwnership","outputs":[],"stateMutability":"nonpayable","type":"function"},{"inputs":[{"internalType":"uint256","name":"","type":"uint256"},{"internalType":"uint256","name":"","type":"uint256"},{"internalType":"address","name":"","type":"address"}],"name":"verifierVoted","outputs":[{"internalType":"bool","name":"","type":"bool"}],"stateMutability":"view","type":"function"},{"inputs":[{"internalType":"uint256","name":"","type":"uint256"}],"name":"verifiers","outputs":[{"internalType":"address","name":"","type":"address"}],"stateMutability":"view","type":"function"},{"inputs":[{"internalType":"uint256","name":"","type":"uint256"},{"internalType":"uint256","name":"","type":"uint256"}],"name":"voteCount","outputs":[{"internalType":"uint256","name":"","type":"uint256"}],"stateMutability":"view","type":"function"}],"evm":{"bytecode":{"linkReferences":{},"object":"6080346100bb57601f610e0638819003918201601f19168301916001600160401b038311848410176100c0578084926020946040528339810103126100bb57516001600160a01b0390818116908190036100bb5780156100a257600080546001600160a01b03198116831782556040519316907f8be0079c531659141344cd1fd0a4f28419497f9722a3daafe3b4186f6b6457e09080a3610d2f90816100d78239f35b604051631e4fbdf760e01b815260006004820152602490fd5b600080fd5b634e487b7160e01b600052604160045260246000fdfe6040608081526004908136101561001557600080fd5b600091823560e01c80632c0a3f891461093757806333105218146108f957806341ed2c12146108d0578063518229d1146107dc57806352b22424146108b457806364390ff11461088457806366b1749514610868578063715018a61461082057806387726d64146107dc5780638da5cb5b146107b45780639000b3d61461060b5780639255525c1461053f578063a935e7661461046e578063ac1eff681461042e578063b9c688a71461040f578063ba32941414610181578063ca2dfd0a146102ab578063cc4e19541461027c578063d82aff11146101b1578063de2e19a0146101815763f2fde38b1461010857600080fd5b3461017d57602036600319011261017d57610121610ba6565b9061012a610c17565b6001600160a01b039182169283156101675750506000548260018060a01b031982161760005516600080516020610d03833981519152600080a380f35b51631e4fbdf760e01b8152908101849052602490fd5b8280fd5b5050346101ad578060209261019536610b8b565b90825260058552828220908252845220549051908152f35b5080fd5b503461017d57602036600319011261017d576101cb610ba6565b906101d4610c17565b6001600160a01b03918216928315610224575050600380546001600160a01b031981168417909155167f6d5236c24f887cea37fd19d8fffc6c47b564af445baf220a6c7f9a58bb6ae04e8380a380f35b906020608492519162461bcd60e51b8352820152602c60248201527f566572696669636174696f6e3a20496e76616c6964206d61726b6574206d616e60448201526b61676572206164647265737360a01b6064820152fd5b5082346102a85760203660031901126102a8575061029a9035610cb3565b825191151582526020820152f35b80fd5b50903461017d57602036600319011261017d576102c6610ba6565b906102cf610c17565b6001600160a01b039182168085526002602052818520549092906102f59060ff16610c43565b845b6001805480831015610403579083918661031085610be6565b949054600395861b1c16146103305750505061032b90610c8e565b6102f7565b91949596909392600019928381019081116103f057906103638561035661038294610be6565b9054908a1b1c1691610be6565b90919082549060031b9160018060a01b03809116831b921b1916179055565b83549081156103dd5750019261039784610be6565b81939154921b1b19169055555b81835260026020528220805460ff191690557f44a3cd4eb5cc5748f6169df057b1cb2ae4c383e87cd94663c430e095d4cba4248280a280f35b634e487b7160e01b895260319052602488fd5b634e487b7160e01b8a526011835260248afd5b505050509091506103a4565b5050346101ad57816003193601126101ad576020906001549051908152f35b503461017d57602036600319011261017d5735916001548310156102a85750610458602092610be6565b905491519160018060a01b039160031b1c168152f35b50903461017d578260031936011261017d578051806001948554938483526020808094018096898552828520908a865b8281106105215750505050859003601f01601f191685019690506001600160401b0387118588101761050c575092869284878096528186019282875251809352850195925b8281106104f05785870386f35b83516001600160a01b03168752958101959281019284016104e3565b604190634e487b7160e01b6000525260246000fd5b83546001600160a01b0316855288959094019392810192810161049e565b503461017d576020908160031936011261060757359161055d610c17565b600191825b600a81111561056f578580f35b84865260058252828620818752825285838120558386905b61059b575b5061059690610c8e565b610562565b84959196929394548110156105fb576105ef86918385526006865286852089865286528685206105ca82610be6565b60018060a01b0391549060031b1c1660005286528660002060ff198154169055610c8e565b90949392969195610587565b9590949392919561058c565b8380fd5b50903461017d5760208060031936011261060757610627610ba6565b61062f610c17565b6001600160a01b038116938415610762578486526002835260ff8487205416610721576001549060058210156106ce57600160401b8210156106bb5750600292916103638260016106839401600155610be6565b838552528220805460ff191660011790557f6d05492139c5ea989514a5d2150c028041e5c087e2a39967f67dc7d2655adb818280a280f35b634e487b7160e01b875260419052602486fd5b845162461bcd60e51b8152908101849052602760248201527f566572696669636174696f6e3a204d6178696d756d20766572696669657273206044820152661c995858da195960ca1b6064820152608490fd5b606490838086519262461bcd60e51b845283015260248201527f566572696669636174696f6e3a20416c726561647920612076657269666965726044820152fd5b835162461bcd60e51b8152908101839052602660248201527f566572696669636174696f6e3a20496e76616c6964207665726966696572206160448201526564647265737360d01b6064820152608490fd5b5050346101ad57816003193601126101ad57905490516001600160a01b039091168152602090f35b5050346101ad57602091816107f036610bbc565b93918252600686528282209082528552209060018060a01b0316600052825260ff81600020541690519015158152f35b83346102a857806003193601126102a857610839610c17565b600080546001600160a01b0319811682556001600160a01b0316600080516020610d038339815191528280a380f35b5050346101ad57816003193601126101ad576020905160058152f35b503461017d578160209360ff9261089a36610b8b565b919083528652828220908252855220541690519015158152f35b5050346101ad57816003193601126101ad576020905160038152f35b5050346101ad57816003193601126101ad5760035490516001600160a01b039091168152602090f35b5050346101ad5760203660031901126101ad5760209160ff9082906001600160a01b03610924610ba6565b1681526002855220541690519015158152f35b50903461017d5761094736610b8b565b9290923385526020916002835261096360ff8588205416610c43565b8115610b4957848652600683528386208287528352838620338752835260ff8487205416610af2578486526006835283862082875283528386203387528352838620600160ff198254161790558486526005835283862082875283528386206109cc8154610c8e565b90558351828152867f75b35ca960bbb2cc550471a4098b1a96255dd657fe926e331754cd7c2e4489b3853393a38486526005835283862082875283526003848720541015610a18578580f35b857f8ee32db9836ee2aa676f07605b110a2a96d8e4837accb25f7ab76596fd01783e848651858152a260035486906001600160a01b031680610a5b575b50508580f35b803b156101ad5781906024875180948193630b1138b560e41b83528b888401525af19182610ac3575b5050610a93575b808581610a55565b7f169548b63c3166c09f183127f736aeb0d64c06f632f0642859800938b9dcea499251908152a238808080610a8b565b9196916001600160401b038211610adf57508452943880610a84565b634e487b7160e01b835260419052602482fd5b835162461bcd60e51b8152908101839052602b60248201527f566572696669636174696f6e3a20416c726561647920766f74656420666f722060448201526a3a3434b99037b83a34b7b760a91b6064820152608490fd5b835162461bcd60e51b8152908101839052601c60248201527b2b32b934b334b1b0ba34b7b71d1024b73b30b634b21037b83a34b7b760211b6044820152606490fd5b6040906003190112610ba1576004359060243590565b600080fd5b600435906001600160a01b0382168203610ba157565b6060906003190112610ba15760043590602435906044356001600160a01b0381168103610ba15790565b600154811015610c0157600160005260206000200190600090565b634e487b7160e01b600052603260045260246000fd5b6000546001600160a01b03163303610c2b57565b60405163118cdaa760e01b8152336004820152602490fd5b15610c4a57565b60405162461bcd60e51b815260206004820152601c60248201527b2b32b934b334b1b0ba34b7b71d102737ba1030903b32b934b334b2b960211b6044820152606490fd5b6000198114610c9d5760010190565b634e487b7160e01b600052601160045260246000fd5b906001805b600a811115610ccd5750509050600090600090565b6003600085815260209060058252604091828220908583525220541015610cfc57610cf790610c8e565b610cb8565b9250919056fe8be0079c531659141344cd1fd0a4f28419497f9722a3daafe3b4186f6b6457e0a164736f6c6343000814000a","opcodes":"PUSH1 0x80 CALLVALUE PUSH2 0xBB JUMPI PUSH1 0x1F PUSH2 0xE06 CODESIZE DUP2 SWAP1 SUB SWAP2 DUP3 ADD PUSH1 0x1F NOT AND DUP4 ADD SWAP2 PUSH1 0x1 PUSH1 0x1 PUSH1 0x40 SHL SUB DUP4 GT DUP5 DUP5 LT OR PUSH2 0xC0 JUMPI DUP1 DUP5 SWAP3 PUSH1 0x20 SWAP5 PUSH1 0x40 MSTORE DUP4 CODECOPY DUP2 ADD SUB SLT PUSH2 0xBB JUMPI MLOAD PUSH1 0x1 PUSH1 0x1 PUSH1 0xA0 SHL SUB SWAP1 DUP2 DUP2 AND SWAP1 DUP2 SWAP1 SUB PUSH2 0xBB JUMPI DUP1 ISZERO PUSH2 0xA2 JUMPI PUSH1 0x0 DUP1 SLOAD PUSH1 0x1 PUSH1 0x1 PUSH1 0xA0 SHL SUB NOT DUP2 AND DUP4 OR DUP3 SSTORE PUSH1 0x40 MLOAD SWAP4 AND SWAP1 PUSH32 0x8BE0079C531659141344CD1FD0A4F28419497F9722A3DAAFE3B4186F6B6457E0 SWAP1 DUP1 LOG3 PUSH2 0xD2F SWAP1 DUP2 PUSH2 0xD7 DUP3 CODECOPY RETURN JUMPDEST PUSH1 0x40 MLOAD PUSH4 0x1E4FBDF7 PUSH1 0xE0 SHL DUP2 MSTORE PUSH1 0x0 PUSH1 0x4 DUP3 ADD MSTORE PUSH1 0x24 SWAP1 REVERT JUMPDEST PUSH1 0x0 DUP1 REVERT JUMPDEST PUSH4 0x4E487B71 PUSH1 0xE0 SHL PUSH1 0x0 MSTORE PUSH1 0x41 PUSH1 0x4 MSTORE PUSH1 0x24 PUSH1 0x0 REVERT INVALID PUSH1 0x40 PUSH1 0x80 DUP2 MSTORE PUSH1 0x4 SWAP1 DUP2 CALLDATASIZE LT ISZERO PUSH2 0x15 JUMPI PUSH1 0x0 DUP1 REVERT JUMPDEST PUSH1 0x0 SWAP2 DUP3 CALLDATALOAD PUSH1 0xE0 SHR DUP1 PUSH4 0x2C0A3F89 EQ PUSH2 0x937 JUMPI DUP1 PUSH4 0x33105218 EQ PUSH2 0x8F9 JUMPI DUP1 PUSH4 0x41ED2C12 EQ PUSH2 0x8D0 JUMPI DUP1 PUSH4 0x518229D1 EQ PUSH2 0x7DC JUMPI DUP1 PUSH4 0x52B22424 EQ PUSH2 0x8B4 JUMPI DUP1 PUSH4 0x64390FF1 EQ PUSH2 0x884 JUMPI DUP1 PUSH4 0x66B17495 EQ PUSH2 0x868 JUMPI DUP1 PUSH4 0x715018A6 EQ PUSH2 0x820 JUMPI DUP1 PUSH4 0x87726D64 EQ PUSH2 0x7DC JUMPI DUP1 PUSH4 0x8DA5CB5B EQ PUSH2 0x7B4 JUMPI DUP1 PUSH4 0x9000B3D6 EQ PUSH2 0x60B JUMPI DUP1 PUSH4 0x9255525C EQ PUSH2 0x53F JUMPI DUP1 PUSH4 0xA935E766 EQ PUSH2 0x46E JUMPI DUP1 PUSH4 0xAC1EFF68 EQ PUSH2 0x42E JUMPI DUP1 PUSH4 0xB9C688A7 EQ PUSH2 0x40F JUMPI DUP1 PUSH4 0xBA329414 EQ PUSH2 0x181 JUMPI DUP1 PUSH4 0xCA2DFD0A EQ PUSH2 0x2AB JUMPI DUP1 PUSH4 0xCC4E1954 EQ PUSH2 0x27C JUMPI DUP1 PUSH4 0xD82AFF11 EQ PUSH2 0x1B1 JUMPI DUP1 PUSH4 0xDE2E19A0 EQ PUSH2 0x181 JUMPI PUSH4 0xF2FDE38B EQ PUSH2 0x108 JUMPI PUSH1 0x0 DUP1 REVERT JUMPDEST CALLVALUE PUSH2 0x17D JUMPI PUSH1 0x20 CALLDATASIZE PUSH1 0x3 NOT ADD SLT PUSH2 0x17D JUMPI PUSH2 0x121 PUSH2 0xBA6 JUMP JUMPDEST SWAP1 PUSH2 0x12A PUSH2 0xC17 JUMP JUMPDEST PUSH1 0x1 PUSH1 0x1 PUSH1 0xA0 SHL SUB SWAP2 DUP3 AND SWAP3 DUP4 ISZERO PUSH2 0x167 JUMPI POP POP PUSH1 0x0 SLOAD DUP3 PUSH1 0x1 DUP1 PUSH1 0xA0 SHL SUB NOT DUP3 AND OR PUSH1 0x0 SSTORE AND PUSH1 0x0 DUP1 MLOAD PUSH1 0x20 PUSH2 0xD03 DUP4 CODECOPY DUP2 MLOAD SWAP2 MSTORE PUSH1 0x0 DUP1 LOG3 DUP1 RETURN JUMPDEST MLOAD PUSH4 0x1E4FBDF7 PUSH1 0xE0 SHL DUP2 MSTORE SWAP1 DUP2 ADD DUP5 SWAP1 MSTORE PUSH1 0x24 SWAP1 REVERT JUMPDEST DUP3 DUP1 REVERT JUMPDEST POP POP CALLVALUE PUSH2 0x1AD JUMPI DUP1 PUSH1 0x20 SWAP3 PUSH2 0x195 CALLDATASIZE PUSH2 0xB8B JUMP JUMPDEST SWAP1 DUP3 MSTORE PUSH1 0x5 DUP6 MSTORE DUP3 DUP3 KECCAK256 SWAP1 DUP3 MSTORE DUP5 MSTORE KECCAK256 SLOAD SWAP1 MLOAD SWAP1 DUP2 MSTORE RETURN JUMPDEST POP DUP1 REVERT JUMPDEST POP CALLVALUE PUSH2 0x17D JUMPI PUSH1 0x20 CALLDATASIZE PUSH1 0x3 NOT ADD SLT PUSH2 0x17D JUMPI PUSH2 0x1CB PUSH2 0xBA6 JUMP JUMPDEST SWAP1 PUSH2 0x1D4 PUSH2 0xC17 JUMP JUMPDEST PUSH1 0x1 PUSH1 0x1 PUSH1 0xA0 SHL SUB SWAP2 DUP3 AND SWAP3 DUP4 ISZERO PUSH2 0x224 JUMPI POP POP PUSH1 0x3 DUP1 SLOAD PUSH1 0x1 PUSH1 0x1 PUSH1 0xA0 SHL SUB NOT DUP2 AND DUP5 OR SWAP1 SWAP2 SSTORE AND PUSH32 0x6D5236C24F887CEA37FD19D8FFFC6C47B564AF445BAF220A6C7F9A58BB6AE04E DUP4 DUP1 LOG3 DUP1 RETURN JUMPDEST SWAP1 PUSH1 0x20 PUSH1 0x84 SWAP3 MLOAD SWAP2 PUSH3 0x461BCD PUSH1 0xE5 SHL DUP4 MSTORE DUP3 ADD MSTORE PUSH1 0x2C PUSH1 0x24 DUP3 ADD MSTORE PUSH32 0x566572696669636174696F6E3A20496E76616C6964206D61726B6574206D616E PUSH1 0x44 DUP3 ADD MSTORE PUSH12 0x616765722061646472657373 PUSH1 0xA0 SHL PUSH1 0x64 DUP3 ADD MSTORE REVERT JUMPDEST POP DUP3 CALLVALUE PUSH2 0x2A8 JUMPI PUSH1 0x20 CALLDATASIZE PUSH1 0x3 NOT ADD SLT PUSH2 0x2A8 JUMPI POP PUSH2 0x29A SWAP1 CALLDATALOAD PUSH2 0xCB3 JUMP JUMPDEST DUP3 MLOAD SWAP2 ISZERO ISZERO DUP3 MSTORE PUSH1 0x20 DUP3 ADD MSTORE RETURN JUMPDEST DUP1 REVERT JUMPDEST POP SWAP1 CALLVALUE PUSH2 0x17D JUMPI PUSH1 0x20 CALLDATASIZE PUSH1 0x3 NOT ADD SLT PUSH2 0x17D JUMPI PUSH2 0x2C6 PUSH2 0xBA6 JUMP JUMPDEST SWAP1 PUSH2 0x2CF PUSH2 0xC17 JUMP JUMPDEST PUSH1 0x1 PUSH1 0x1 PUSH1 0xA0 SHL SUB SWAP2 DUP3 AND DUP1 DUP6 MSTORE PUSH1 0x2 PUSH1 0x20 MSTORE DUP2 DUP6 KECCAK256 SLOAD SWAP1 SWAP3 SWAP1 PUSH2 0x2F5 SWAP1 PUSH1 0xFF AND PUSH2 0xC43 JUMP JUMPDEST DUP5 JUMPDEST PUSH1 0x1 DUP1 SLOAD DUP1 DUP4 LT ISZERO PUSH2 0x403 JUMPI SWAP1 DUP4 SWAP2 DUP7 PUSH2 0x310 DUP6 PUSH2 0xBE6 JUMP JUMPDEST SWAP5 SWAP1 SLOAD PUSH1 0x3 SWAP6 DUP7 SHL SHR AND EQ PUSH2 0x330 JUMPI POP POP POP PUSH2 0x32B SWAP1 PUSH2 0xC8E JUMP JUMPDEST PUSH2 0x2F7 JUMP JUMPDEST SWAP2 SWAP5 SWAP6 SWAP7 SWAP1 SWAP4 SWAP3 PUSH1 0x0 NOT SWAP3 DUP4 DUP2 ADD SWAP1 DUP2 GT PUSH2 0x3F0 JUMPI SWAP1 PUSH2 0x363 DUP6 PUSH2 0x356 PUSH2 0x382 SWAP5 PUSH2 0xBE6 JUMP JUMPDEST SWAP1 SLOAD SWAP1 DUP11 SHL SHR AND SWAP2 PUSH2 0xBE6 JUMP JUMPDEST SWAP1 SWAP2 SWAP1 DUP3 SLOAD SWAP1 PUSH1 0x3 SHL SWAP2 PUSH1 0x1 DUP1 PUSH1 0xA0 SHL SUB DUP1 SWAP2 AND DUP4 SHL SWAP3 SHL NOT AND OR SWAP1 SSTORE JUMP JUMPDEST DUP4 SLOAD SWAP1 DUP2 ISZERO PUSH2 0x3DD JUMPI POP ADD SWAP3 PUSH2 0x397 DUP5 PUSH2 0xBE6 JUMP JUMPDEST DUP2 SWAP4 SWAP2 SLOAD SWAP3 SHL SHL NOT AND SWAP1 SSTORE SSTORE JUMPDEST DUP2 DUP4 MSTORE PUSH1 0x2 PUSH1 0x20 MSTORE DUP3 KECCAK256 DUP1 SLOAD PUSH1 0xFF NOT AND SWAP1 SSTORE PUSH32 0x44A3CD4EB5CC5748F6169DF057B1CB2AE4C383E87CD94663C430E095D4CBA424 DUP3 DUP1 LOG2 DUP1 RETURN JUMPDEST PUSH4 0x4E487B71 PUSH1 0xE0 SHL DUP10 MSTORE PUSH1 0x31 SWAP1 MSTORE PUSH1 0x24 DUP9 REVERT JUMPDEST PUSH4 0x4E487B71 PUSH1 0xE0 SHL DUP11 MSTORE PUSH1 0x11 DUP4 MSTORE PUSH1 0x24 DUP11 REVERT JUMPDEST POP POP POP POP SWAP1 SWAP2 POP PUSH2 0x3A4 JUMP JUMPDEST POP POP CALLVALUE PUSH2 0x1AD JUMPI DUP2 PUSH1 0x3 NOT CALLDATASIZE ADD SLT PUSH2 0x1AD JUMPI PUSH1 0x20 SWAP1 PUSH1 0x1 SLOAD SWAP1 MLOAD SWAP1 DUP2 MSTORE RETURN JUMPDEST POP CALLVALUE PUSH2 0x17D JUMPI PUSH1 0x20 CALLDATASIZE PUSH1 0x3 NOT ADD SLT PUSH2 0x17D JUMPI CALLDATALOAD SWAP2 PUSH1 0x1 SLOAD DUP4 LT ISZERO PUSH2 0x2A8 JUMPI POP PUSH2 0x458 PUSH1 0x20 SWAP3 PUSH2 0xBE6 JUMP JUMPDEST SWAP1 SLOAD SWAP2 MLOAD SWAP2 PUSH1 0x1 DUP1 PUSH1 0xA0 SHL SUB SWAP2 PUSH1 0x3 SHL SHR AND DUP2 MSTORE RETURN JUMPDEST POP SWAP1 CALLVALUE PUSH2 0x17D JUMPI DUP3 PUSH1 0x3 NOT CALLDATASIZE ADD SLT PUSH2 0x17D JUMPI DUP1 MLOAD DUP1 PUSH1 0x1 SWAP5 DUP6 SLOAD SWAP4 DUP5 DUP4 MSTORE PUSH1 0x20 DUP1 DUP1 SWAP5 ADD DUP1 SWAP7 DUP10 DUP6 MSTORE DUP3 DUP6 KECCAK256 SWAP1 DUP11 DUP7 JUMPDEST DUP3 DUP2 LT PUSH2 0x521 JUMPI POP POP POP POP DUP6 SWAP1 SUB PUSH1 0x1F ADD PUSH1 0x1F NOT AND DUP6 ADD SWAP7 SWAP1 POP PUSH1 0x1 PUSH1 0x1 PUSH1 0x40 SHL SUB DUP8 GT DUP6 DUP9 LT OR PUSH2 0x50C JUMPI POP SWAP3 DUP7 SWAP3 DUP5 DUP8 DUP1 SWAP7 MSTORE DUP2 DUP7 ADD SWAP3 DUP3 DUP8 MSTORE MLOAD DUP1 SWAP4 MSTORE DUP6 ADD SWAP6 SWAP3 JUMPDEST DUP3 DUP2 LT PUSH2 0x4F0 JUMPI DUP6 DUP8 SUB DUP7 RETURN JUMPDEST DUP4 MLOAD PUSH1 0x1 PUSH1 0x1 PUSH1 0xA0 SHL SUB AND DUP8 MSTORE SWAP6 DUP2 ADD SWAP6 SWAP3 DUP2 ADD SWAP3 DUP5 ADD PUSH2 0x4E3 JUMP JUMPDEST PUSH1 0x41 SWAP1 PUSH4 0x4E487B71 PUSH1 0xE0 SHL PUSH1 0x0 MSTORE MSTORE PUSH1 0x24 PUSH1 0x0 REVERT JUMPDEST DUP4 SLOAD PUSH1 0x1 PUSH1 0x1 PUSH1 0xA0 SHL SUB AND DUP6 MSTORE DUP9 SWAP6 SWAP1 SWAP5 ADD SWAP4 SWAP3 DUP2 ADD SWAP3 DUP2 ADD PUSH2 0x49E JUMP JUMPDEST POP CALLVALUE PUSH2 0x17D JUMPI PUSH1 0x20 SWAP1 DUP2 PUSH1 0x3 NOT CALLDATASIZE ADD SLT PUSH2 0x607 JUMPI CALLDATALOAD SWAP2 PUSH2 0x55D PUSH2 0xC17 JUMP JUMPDEST PUSH1 0x1 SWAP2 DUP3 JUMPDEST PUSH1 0xA DUP2 GT ISZERO PUSH2 0x56F JUMPI DUP6 DUP1 RETURN JUMPDEST DUP5 DUP7 MSTORE PUSH1 0x5 DUP3 MSTORE DUP3 DUP7 KECCAK256 DUP2 DUP8 MSTORE DUP3 MSTORE DUP6 DUP4 DUP2 KECCAK256 SSTORE DUP4 DUP7 SWAP1 JUMPDEST PUSH2 0x59B JUMPI JUMPDEST POP PUSH2 0x596 SWAP1 PUSH2 0xC8E JUMP JUMPDEST PUSH2 0x562 JUMP JUMPDEST DUP5 SWAP6 SWAP2 SWAP7 SWAP3 SWAP4 SWAP5 SLOAD DUP2 LT ISZERO PUSH2 0x5FB JUMPI PUSH2 0x5EF DUP7 SWAP2 DUP4 DUP6 MSTORE PUSH1 0x6 DUP7 MSTORE DUP7 DUP6 KECCAK256 DUP10 DUP7 MSTORE DUP7 MSTORE DUP7 DUP6 KECCAK256 PUSH2 0x5CA DUP3 PUSH2 0xBE6 JUMP JUMPDEST PUSH1 0x1 DUP1 PUSH1 0xA0 SHL SUB SWAP2 SLOAD SWAP1 PUSH1 0x3 SHL SHR AND PUSH1 0x0 MSTORE DUP7 MSTORE DUP7 PUSH1 0x0 KECCAK256 PUSH1 0xFF NOT DUP2 SLOAD AND SWAP1 SSTORE PUSH2 0xC8E JUMP JUMPDEST SWAP1 SWAP5 SWAP4 SWAP3 SWAP7 SWAP2 SWAP6 PUSH2 0x587 JUMP JUMPDEST SWAP6 SWAP1 SWAP5 SWAP4 SWAP3 SWAP2 SWAP6 PUSH2 0x58C JUMP JUMPDEST DUP4 DUP1 REVERT JUMPDEST POP SWAP1 CALLVALUE PUSH2 0x17D JUMPI PUSH1 0x20 DUP1 PUSH1 0x3 NOT CALLDATASIZE ADD SLT PUSH2 0x607 JUMPI PUSH2 0x627 PUSH2 0xBA6 JUMP JUMPDEST PUSH2 0x62F PUSH2 0xC17 JUMP JUMPDEST PUSH1 0x1 PUSH1 0x1 PUSH1 0xA0 SHL SUB DUP2 AND SWAP4 DUP5 ISZERO PUSH2 0x762 JUMPI DUP5 DUP7 MSTORE PUSH1 0x2 DUP4 MSTORE PUSH1 0xFF DUP5 DUP8 KECCAK256 SLOAD AND PUSH2 0x721 JUMPI PUSH1 0x1 SLOAD SWAP1 PUSH1 0x5 DUP3 LT ISZERO PUSH2 0x6CE JUMPI PUSH1 0x1 PUSH1 0x40 SHL DUP3 LT ISZERO PUSH2 0x6BB JUMPI POP PUSH1 0x2 SWAP3 SWAP2 PUSH2 0x363 DUP3 PUSH1 0x1 PUSH2 0x683 SWAP5 ADD PUSH1 0x1 SSTORE PUSH2 0xBE6 JUMP JUMPDEST DUP4 DUP6 MSTORE MSTORE DUP3 KECCAK256 DUP1 SLOAD PUSH1 0xFF NOT AND PUSH1 0x1 OR SWAP1 SSTORE PUSH32 0x6D05492139C5EA989514A5D2150C028041E5C087E2A39967F67DC7D2655ADB81 DUP3 DUP1 LOG2 DUP1 RETURN JUMPDEST PUSH4 0x4E487B71 PUSH1 0xE0 SHL DUP8 MSTORE PUSH1 0x41 SWAP1 MSTORE PUSH1 0x24 DUP7 REVERT JUMPDEST DUP5 MLOAD PUSH3 0x461BCD PUSH1 0xE5 SHL DUP2 MSTORE SWAP1 DUP2 ADD DUP5 SWAP1 MSTORE PUSH1 0x27 PUSH1 0x24 DUP3 ADD MSTORE PUSH32 0x566572696669636174696F6E3A204D6178696D756D2076657269666965727320 PUSH1 0x44 DUP3 ADD MSTORE PUSH7 0x1C995858DA1959 PUSH1 0xCA SHL PUSH1 0x64 DUP3 ADD MSTORE PUSH1 0x84 SWAP1 REVERT JUMPDEST PUSH1 0x64 SWAP1 DUP4 DUP1 DUP7 MLOAD SWAP3 PUSH3 0x461BCD PUSH1 0xE5 SHL DUP5 MSTORE DUP4 ADD MSTORE PUSH1 0x24 DUP3 ADD MSTORE PUSH32 0x566572696669636174696F6E3A20416C72656164792061207665726966696572 PUSH1 0x44 DUP3 ADD MSTORE REVERT JUMPDEST DUP4 MLOAD PUSH3 0x461BCD PUSH1 0xE5 SHL DUP2 MSTORE SWAP1 DUP2 ADD DUP4 SWAP1 MSTORE PUSH1 0x26 PUSH1 0x24 DUP3 ADD MSTORE PUSH32 0x566572696669636174696F6E3A20496E76616C69642076657269666965722061 PUSH1 0x44 DUP3 ADD MSTORE PUSH6 0x646472657373 PUSH1 0xD0 SHL PUSH1 0x64 DUP3 ADD MSTORE PUSH1 0x84 SWAP1 REVERT JUMPDEST POP POP CALLVALUE PUSH2 0x1AD JUMPI DUP2 PUSH1 0x3 NOT CALLDATASIZE ADD SLT PUSH2 0x1AD JUMPI SWAP1 SLOAD SWAP1 MLOAD PUSH1 0x1 PUSH1 0x1 PUSH1 0xA0 SHL SUB SWAP1 SWAP2 AND DUP2 MSTORE PUSH1 0x20 SWAP1 RETURN JUMPDEST POP POP CALLVALUE PUSH2 0x1AD JUMPI PUSH1 0x20 SWAP2 DUP2 PUSH2 0x7F0 CALLDATASIZE PUSH2 0xBBC JUMP JUMPDEST SWAP4 SWAP2 DUP3 MSTORE PUSH1 0x6 DUP7 MSTORE DUP3 DUP3 KECCAK256 SWAP1 DUP3 MSTORE DUP6 MSTORE KECCAK256 SWAP1 PUSH1 0x1 DUP1 PUSH1 0xA0 SHL SUB AND PUSH1 0x0 MSTORE DUP3 MSTORE PUSH1 0xFF DUP2 PUSH1 0x0 KECCAK256 SLOAD AND SWAP1 MLOAD SWAP1 ISZERO ISZERO DUP2 MSTORE RETURN JUMPDEST DUP4 CALLVALUE PUSH2 0x2A8 JUMPI DUP1 PUSH1 0x3 NOT CALLDATASIZE ADD SLT PUSH2 0x2A8 JUMPI PUSH2 0x839 PUSH2 0xC17 JUMP JUMPDEST PUSH1 0x0 DUP1 SLOAD PUSH1 0x1 PUSH1 0x1 PUSH1 0xA0 SHL SUB NOT DUP2 AND DUP3 SSTORE PUSH1 0x1 PUSH1 0x1 PUSH1 0xA0 SHL SUB AND PUSH1 0x0 DUP1 MLOAD PUSH1 0x20 PUSH2 0xD03 DUP4 CODECOPY DUP2 MLOAD SWAP2 MSTORE DUP3 DUP1 LOG3 DUP1 RETURN JUMPDEST POP POP CALLVALUE PUSH2 0x1AD JUMPI DUP2 PUSH1 0x3 NOT CALLDATASIZE ADD SLT PUSH2 0x1AD JUMPI PUSH1 0x20 SWAP1 MLOAD PUSH1 0x5 DUP2 MSTORE RETURN JUMPDEST POP CALLVALUE PUSH2 0x17D JUMPI DUP2 PUSH1 0x20 SWAP4 PUSH1 0xFF SWAP3 PUSH2 0x89A CALLDATASIZE PUSH2 0xB8B JUMP JUMPDEST SWAP2 SWAP1 DUP4 MSTORE DUP7 MSTORE DUP3 DUP3 KECCAK256 SWAP1 DUP3 MSTORE DUP6 MSTORE KECCAK256 SLOAD AND SWAP1 MLOAD SWAP1 ISZERO ISZERO DUP2 MSTORE RETURN JUMPDEST POP POP CALLVALUE PUSH2 0x1AD JUMPI DUP2 PUSH1 0x3 NOT CALLDATASIZE ADD SLT PUSH2 0x1AD JUMPI PUSH1 0x20 SWAP1 MLOAD PUSH1 0x3 DUP2 MSTORE RETURN JUMPDEST POP POP CALLVALUE PUSH2 0x1AD JUMPI DUP2 PUSH1 0x3 NOT CALLDATASIZE ADD SLT PUSH2 0x1AD JUMPI PUSH1 0x3 SLOAD SWAP1 MLOAD PUSH1 0x1 PUSH1 0x1 PUSH1 0xA0 SHL SUB SWAP1 SWAP2 AND DUP2 MSTORE PUSH1 0x20 SWAP1 RETURN JUMPDEST POP POP CALLVALUE PUSH2 0x1AD JUMPI PUSH1 0x20 CALLDATASIZE PUSH1 0x3 NOT ADD SLT PUSH2 0x1AD JUMPI PUSH1 0x20 SWAP2 PUSH1 0xFF SWAP1 DUP3 SWAP1 PUSH1 0x1 PUSH1 0x1 PUSH1 0xA0 SHL SUB PUSH2 0x924 PUSH2 0xBA6 JUMP JUMPDEST AND DUP2 MSTORE PUSH1 0x2 DUP6 MSTORE KECCAK256 SLOAD AND SWAP1 MLOAD SWAP1 ISZERO ISZERO DUP2 MSTORE RETURN JUMPDEST POP SWAP1 CALLVALUE PUSH2 0x17D JUMPI PUSH2 0x947 CALLDATASIZE PUSH2 0xB8B JUMP JUMPDEST SWAP3 SWAP1 SWAP3 CALLER DUP6 MSTORE PUSH1 0x20 SWAP2 PUSH1 0x2 DUP4 MSTORE PUSH2 0x963 PUSH1 0xFF DUP6 DUP9 KECCAK256 SLOAD AND PUSH2 0xC43 JUMP JUMPDEST DUP2 ISZERO PUSH2 0xB49 JUMPI DUP5 DUP7 MSTORE PUSH1 0x6 DUP4 MSTORE DUP4 DUP7 KECCAK256 DUP3 DUP8 MSTORE DUP4 MSTORE DUP4 DUP7 KECCAK256 CALLER DUP8 MSTORE DUP4 MSTORE PUSH1 0xFF DUP5 DUP8 KECCAK256 SLOAD AND PUSH2 0xAF2 JUMPI DUP5 DUP7 MSTORE PUSH1 0x6 DUP4 MSTORE DUP4 DUP7 KECCAK256 DUP3 DUP8 MSTORE DUP4 MSTORE DUP4 DUP7 KECCAK256 CALLER DUP8 MSTORE DUP4 MSTORE DUP4 DUP7 KECCAK256 PUSH1 0x1 PUSH1 0xFF NOT DUP3 SLOAD AND OR SWAP1 SSTORE DUP5 DUP7 MSTORE PUSH1 0x5 DUP4 MSTORE DUP4 DUP7 KECCAK256 DUP3 DUP8 MSTORE DUP4 MSTORE DUP4 DUP7 KECCAK256 PUSH2 0x9CC DUP2 SLOAD PUSH2 0xC8E JUMP JUMPDEST SWAP1 SSTORE DUP4 MLOAD DUP3 DUP2 MSTORE DUP7 PUSH32 0x75B35CA960BBB2CC550471A4098B1A96255DD657FE926E331754CD7C2E4489B3 DUP6 CALLER SWAP4 LOG3 DUP5 DUP7 MSTORE PUSH1 0x5 DUP4 MSTORE DUP4 DUP7 KECCAK256 DUP3 DUP8 MSTORE DUP4 MSTORE PUSH1 0x3 DUP5 DUP8 KECCAK256 SLOAD LT ISZERO PUSH2 0xA18 JUMPI DUP6 DUP1 RETURN JUMPDEST DUP6 PUSH32 0x8EE32DB9836EE2AA676F07605B110A2A96D8E4837ACCB25F7AB76596FD01783E DUP5 DUP7 MLOAD DUP6 DUP2 MSTORE LOG2 PUSH1 0x3 SLOAD DUP7 SWAP1 PUSH1 0x1 PUSH1 0x1 PUSH1 0xA0 SHL SUB AND DUP1 PUSH2 0xA5B JUMPI JUMPDEST POP POP DUP6 DUP1 RETURN JUMPDEST DUP1 EXTCODESIZE ISZERO PUSH2 0x1AD JUMPI DUP2 SWAP1 PUSH1 0x24 DUP8 MLOAD DUP1 SWAP5 DUP2 SWAP4 PUSH4 0xB1138B5 PUSH1 0xE4 SHL DUP4 MSTORE DUP12 DUP9 DUP5 ADD MSTORE GAS CALL SWAP2 DUP3 PUSH2 0xAC3 JUMPI JUMPDEST POP POP PUSH2 0xA93 JUMPI JUMPDEST DUP1 DUP6 DUP2 PUSH2 0xA55 JUMP JUMPDEST PUSH32 0x169548B63C3166C09F183127F736AEB0D64C06F632F0642859800938B9DCEA49 SWAP3 MLOAD SWAP1 DUP2 MSTORE LOG2 CODESIZE DUP1 DUP1 DUP1 PUSH2 0xA8B JUMP JUMPDEST SWAP2 SWAP7 SWAP2 PUSH1 0x1 PUSH1 0x1 PUSH1 0x40 SHL SUB DUP3 GT PUSH2 0xADF JUMPI POP DUP5 MSTORE SWAP5 CODESIZE DUP1 PUSH2 0xA84 JUMP JUMPDEST PUSH4 0x4E487B71 PUSH1 0xE0 SHL DUP4 MSTORE PUSH1 0x41 SWAP1 MSTORE PUSH1 0x24 DUP3 REVERT JUMPDEST DUP4 MLOAD PUSH3 0x461BCD PUSH1 0xE5 SHL DUP2 MSTORE SWAP1 DUP2 ADD DUP4 SWAP1 MSTORE PUSH1 0x2B PUSH1 0x24 DUP3 ADD MSTORE PUSH32 0x566572696669636174696F6E3A20416C726561647920766F74656420666F7220 PUSH1 0x44 DUP3 ADD MSTORE PUSH11 0x3A3434B99037B83A34B7B7 PUSH1 0xA9 SHL PUSH1 0x64 DUP3 ADD MSTORE PUSH1 0x84 SWAP1 REVERT JUMPDEST DUP4 MLOAD PUSH3 0x461BCD PUSH1 0xE5 SHL DUP2 MSTORE SWAP1 DUP2 ADD DUP4 SWAP1 MSTORE PUSH1 0x1C PUSH1 0x24 DUP3 ADD MSTORE PUSH28 0x2B32B934B334B1B0BA34B7B71D1024B73B30B634B21037B83A34B7B7 PUSH1 0x21 SHL PUSH1 0x44 DUP3 ADD MSTORE PUSH1 0x64 SWAP1 REVERT JUMPDEST PUSH1 0x40 SWAP1 PUSH1 0x3 NOT ADD SLT PUSH2 0xBA1 JUMPI PUSH1 0x4 CALLDATALOAD SWAP1 PUSH1 0x24 CALLDATALOAD SWAP1 JUMP JUMPDEST PUSH1 0x0 DUP1 REVERT JUMPDEST PUSH1 0x4 CALLDATALOAD SWAP1 PUSH1 0x1 PUSH1 0x1 PUSH1 0xA0 SHL SUB DUP3 AND DUP3 SUB PUSH2 0xBA1 JUMPI JUMP JUMPDEST PUSH1 0x60 SWAP1 PUSH1 0x3 NOT ADD SLT PUSH2 0xBA1 JUMPI PUSH1 0x4 CALLDATALOAD SWAP1 PUSH1 0x24 CALLDATALOAD SWAP1 PUSH1 0x44 CALLDATALOAD PUSH1 0x1 PUSH1 0x1 PUSH1 0xA0 SHL SUB DUP2 AND DUP2 SUB PUSH2 0xBA1 JUMPI SWAP1 JUMP JUMPDEST PUSH1 0x1 SLOAD DUP2 LT ISZERO PUSH2 0xC01 JUMPI PUSH1 0x1 PUSH1 0x0 MSTORE PUSH1 0x20 PUSH1 0x0 KECCAK256 ADD SWAP1 PUSH1 0x0 SWAP1 JUMP JUMPDEST PUSH4 0x4E487B71 PUSH1 0xE0 SHL PUSH1 0x0 MSTORE PUSH1 0x32 PUSH1 0x4 MSTORE PUSH1 0x24 PUSH1 0x0 REVERT JUMPDEST PUSH1 0x0 SLOAD PUSH1 0x1 PUSH1 0x1 PUSH1 0xA0 SHL SUB AND CALLER SUB PUSH2 0xC2B JUMPI JUMP JUMPDEST PUSH1 0x40 MLOAD PUSH4 0x118CDAA7 PUSH1 0xE0 SHL DUP2 MSTORE CALLER PUSH1 0x4 DUP3 ADD MSTORE PUSH1 0x24 SWAP1 REVERT JUMPDEST ISZERO PUSH2 0xC4A JUMPI JUMP JUMPDEST PUSH1 0x40 MLOAD PUSH3 0x461BCD PUSH1 0xE5 SHL DUP2 MSTORE PUSH1 0x20 PUSH1 0x4 DUP3 ADD MSTORE PUSH1 0x1C PUSH1 0x24 DUP3 ADD MSTORE PUSH28 0x2B32B934B334B1B0BA34B7B71D102737BA1030903B32B934B334B2B9 PUSH1 0x21 SHL PUSH1 0x44 DUP3 ADD MSTORE PUSH1 0x64 SWAP1 REVERT JUMPDEST PUSH1 0x0 NOT DUP2 EQ PUSH2 0xC9D JUMPI PUSH1 0x1 ADD SWAP1 JUMP JUMPDEST PUSH4 0x4E487B71 PUSH1 0xE0 SHL PUSH1 0x0 MSTORE PUSH1 0x11 PUSH1 0x4 MSTORE PUSH1 0x24 PUSH1 0x0 REVERT JUMPDEST SWAP1 PUSH1 0x1 DUP1 JUMPDEST PUSH1 0xA DUP2 GT ISZERO PUSH2 0xCCD JUMPI POP POP SWAP1 POP PUSH1 0x0 SWAP1 PUSH1 0x0 SWAP1 JUMP JUMPDEST PUSH1 0x3 PUSH1 0x0 DUP6 DUP2 MSTORE PUSH1 0x20 SWAP1 PUSH1 0x5 DUP3 MSTORE PUSH1 0x40 SWAP2 DUP3 DUP3 KECCAK256 SWAP1 DUP6 DUP4 MSTORE MSTORE KECCAK256 SLOAD LT ISZERO PUSH2 0xCFC JUMPI PUSH2 0xCF7 SWAP1 PUSH2 0xC8E JUMP JUMPDEST PUSH2 0xCB8 JUMP JUMPDEST SWAP3 POP SWAP2 SWAP1 JUMP INVALID DUP12 0xE0 SMOD SWAP13 MSTORE8 AND MSIZE EQ SGT PREVRANDAO 0xCD 0x1F 0xD0 LOG4 CALLCODE DUP5 NOT 0x49 PUSH32 0x9722A3DAAFE3B4186F6B6457E0A164736F6C6343000814000A00000000000000 "},"methodIdentifiers":{"MAX_VERIFIERS()":"66b17495","REQUIRED_QUORUM()":"52b22424","addVerifier(address)":"9000b3d6","castVote(uint256,uint256)":"2c0a3f89","getVerifierCount()":"b9c688a7","getVerifiers()":"a935e766","getVoteCount(uint256,uint256)":"de2e19a0","hasVerifierVoted(uint256,uint256,address)":"87726d64","hasVoted(uint256,uint256)":"64390ff1","isResolved(uint256)":"cc4e1954","isVerifier(address)":"33105218","marketManager()":"41ed2c12","owner()":"8da5cb5b","removeVerifier(address)":"ca2dfd0a","renounceOwnership()":"715018a6","resetMarketVotes(uint256)":"9255525c","setMarketManager(address)":"d82aff11","transferOwnership(address)":"f2fde38b","verifierVoted(uint256,uint256,address)":"518229d1","verifiers(uint256)":"ac1eff68","voteCount(uint256,uint256)":"ba329414"}}}}}