{"contracts/P2PMarketManager.sol":{"EventPool":{"abi":[{"inputs":[{"internalType":"address","name":"initialOwner","type":"address"},{"internalType":"address payable","name":"_treasury","type":"address"},{"internalType":"address","name":"_verification","type":"address"},{"internalType":"address","name":"_analytics","type":"address"},{"internalType":"uint256","name":"_marketCreationFee","type":"uint256"}],"stateMutability":"nonpayable","type":"constructor"},{"inputs":[{"internalType":"address","name":"owner","type":"address"}],"name":"OwnableInvalidOwner","type":"error"},{"inputs":[{"internalType":"address","name":"account","type":"address"}],"name":"OwnableUnauthorizedAccount","type":"error"},{"inputs":[{"internalType":"address","name":"token","type":"address"}],"name":"SafeERC20FailedOperation","type":"error"},{"anonymous":false,"inputs":[{"indexed":true,"internalType":"uint256","name":"marketId","type":"uint256"},{"indexed":false,"internalType":"string","name":"reason","type":"string"}],"name":"MarketCancelled","type":"event"},{"anonymous":false,"inputs":[{"indexed":true,"internalType":"uint256","name":"marketId","type":"uint256"},{"indexed":true,"internalType":"address","name":"creator","type":"address"},{"indexed":false,"internalType":"string","name":"ipfsHash","type":"string"},{"indexed":false,"internalType":"bool","name":"isMultiOption","type":"bool"},{"indexed":false,"internalType":"uint256","name":"maxOptions","type":"uint256"},{"indexed":false,"internalType":"address","name":"paymentToken","type":"address"},{"indexed":false,"internalType":"uint256","name":"minStake","type":"uint256"},{"indexed":false,"internalType":"uint256","name":"startTime","type":"uint256"},{"indexed":false,"internalType":"uint256","name":"stakeEndTime","type":"uint256"},{"indexed":false,"internalType":"uint256","name":"endTime","type":"uint256"},{"indexed":false,"internalType":"uint256","name":"resolutionEndTime","type":"uint256"}],"name":"MarketCreated","type":"event"},{"anonymous":false,"inputs":[{"indexed":true,"internalType":"uint256","name":"marketId","type":"uint256"},{"indexed":false,"internalType":"uint256","name":"winningOption","type":"uint256"}],"name":"MarketResolved","type":"event"},{"anonymous":false,"inputs":[{"indexed":true,"internalType":"address","name":"previousOwner","type":"address"},{"indexed":true,"internalType":"address","name":"newOwner","type":"address"}],"name":"OwnershipTransferred","type":"event"},{"anonymous":false,"inputs":[{"indexed":true,"internalType":"uint256","name":"marketId","type":"uint256"},{"indexed":true,"internalType":"address","name":"user","type":"address"},{"indexed":false,"internalType":"uint256","name":"amount","type":"uint256"}],"name":"RefundClaimed","type":"event"},{"anonymous":false,"inputs":[{"indexed":true,"internalType":"uint256","name":"marketId","type":"uint256"},{"indexed":true,"internalType":"address","name":"user","type":"address"},{"indexed":false,"internalType":"uint256","name":"option","type":"uint256"},{"indexed":false,"internalType":"uint256","name":"amount","type":"uint256"}],"name":"StakePlaced","type":"event"},{"anonymous":false,"inputs":[{"indexed":true,"internalType":"uint256","name":"marketId","type":"uint256"},{"indexed":true,"internalType":"address","name":"user","type":"address"},{"indexed":false,"internalType":"uint256","name":"amount","type":"uint256"}],"name":"WinningsClaimed","type":"event"},{"inputs":[],"name":"CREATOR_FEE_BPS","outputs":[{"internalType":"uint256","name":"","type":"uint256"}],"stateMutability":"view","type":"function"},{"inputs":[],"name":"PLATFORM_FEE_BPS","outputs":[{"internalType":"uint256","name":"","type":"uint256"}],"stateMutability":"view","type":"function"},{"inputs":[],"name":"VERIFIER_FEE_BPS","outputs":[{"internalType":"uint256","name":"","type":"uint256"}],"stateMutability":"view","type":"function"},{"inputs":[{"internalType":"uint256","name":"","type":"uint256"}],"name":"activeMarkets","outputs":[{"internalType":"uint256","name":"","type":"uint256"}],"stateMutability":"view","type":"function"},{"inputs":[{"internalType":"address","name":"token","type":"address"},{"internalType":"string","name":"symbol","type":"string"}],"name":"addSupportedToken","outputs":[],"stateMutability":"nonpayable","type":"function"},{"inputs":[],"name":"analytics","outputs":[{"internalType":"address","name":"","type":"address"}],"stateMutability":"view","type":"function"},{"inputs":[{"internalType":"uint256","name":"marketId","type":"uint256"}],"name":"autoResolve","outputs":[],"stateMutability":"nonpayable","type":"function"},{"inputs":[],"name":"bettingRestrictionEnabled","outputs":[{"internalType":"bool","name":"","type":"bool"}],"stateMutability":"view","type":"function"},{"inputs":[],"name":"bettingRestrictionMinutes","outputs":[{"internalType":"uint256","name":"","type":"uint256"}],"stateMutability":"view","type":"function"},{"inputs":[{"internalType":"uint256","name":"","type":"uint256"}],"name":"blacklistedAddresses","outputs":[{"internalType":"address","name":"","type":"address"}],"stateMutability":"view","type":"function"},{"inputs":[{"internalType":"address","name":"","type":"address"}],"name":"blacklistedWallets","outputs":[{"internalType":"bool","name":"","type":"bool"}],"stateMutability":"view","type":"function"},{"inputs":[{"internalType":"uint256","name":"marketId","type":"uint256"},{"internalType":"address","name":"user","type":"address"}],"name":"calculateWinnings","outputs":[{"internalType":"uint256","name":"","type":"uint256"}],"stateMutability":"view","type":"function"},{"inputs":[{"internalType":"uint256","name":"marketId","type":"uint256"}],"name":"cancelMarket","outputs":[],"stateMutability":"nonpayable","type":"function"},{"inputs":[{"internalType":"uint256","name":"marketId","type":"uint256"}],"name":"claimRefund","outputs":[],"stateMutability":"nonpayable","type":"function"},{"inputs":[{"internalType":"uint256","name":"marketId","type":"uint256"}],"name":"claimWinnings","outputs":[],"stateMutability":"nonpayable","type":"function"},{"inputs":[{"internalType":"string","name":"ipfsHash","type":"string"},{"internalType":"bool","name":"isMultiOption","type":"bool"},{"internalType":"uint256","name":"maxOptions","type":"uint256"},{"internalType":"address","name":"paymentToken","type":"address"},{"internalType":"uint256","name":"minStake","type":"uint256"},{"internalType":"uint256","name":"creatorDeposit","type":"uint256"},{"internalType":"uint256","name":"creatorOutcome","type":"uint256"},{"internalType":"uint256","name":"stakeDurationMinutes","type":"uint256"},{"internalType":"uint256","name":"resolutionDurationMinutes","type":"uint256"}],"name":"createMarket","outputs":[{"internalType":"uint256","name":"","type":"uint256"}],"stateMutability":"payable","type":"function"},{"inputs":[{"internalType":"uint256","name":"marketId","type":"uint256"}],"name":"creatorCancelMarket","outputs":[],"stateMutability":"nonpayable","type":"function"},{"inputs":[{"internalType":"uint256","name":"marketId","type":"uint256"},{"internalType":"string","name":"reason","type":"string"}],"name":"deleteMarket","outputs":[],"stateMutability":"nonpayable","type":"function"},{"inputs":[{"internalType":"uint256","name":"","type":"uint256"}],"name":"deletedMarkets","outputs":[{"internalType":"uint256","name":"","type":"uint256"}],"stateMutability":"view","type":"function"},{"inputs":[{"internalType":"uint256","name":"","type":"uint256"}],"name":"deletionTimestamp","outputs":[{"internalType":"uint256","name":"","type":"uint256"}],"stateMutability":"view","type":"function"},{"inputs":[{"internalType":"uint256","name":"marketId","type":"uint256"}],"name":"endMarket","outputs":[],"stateMutability":"nonpayable","type":"function"},{"inputs":[],"name":"getActiveMarketCount","outputs":[{"internalType":"uint256","name":"","type":"uint256"}],"stateMutability":"view","type":"function"},{"inputs":[],"name":"getActiveMarkets","outputs":[{"internalType":"uint256[]","name":"","type":"uint256[]"}],"stateMutability":"view","type":"function"},{"inputs":[],"name":"getAllMarketIds","outputs":[{"internalType":"uint256[]","name":"","type":"uint256[]"}],"stateMutability":"view","type":"function"},{"inputs":[],"name":"getBlacklistedAddresses","outputs":[{"internalType":"address[]","name":"","type":"address[]"}],"stateMutability":"view","type":"function"},{"inputs":[],"name":"getDeletedMarkets","outputs":[{"internalType":"uint256[]","name":"","type":"uint256[]"}],"stateMutability":"view","type":"function"},{"inputs":[{"internalType":"uint256","name":"marketId","type":"uint256"}],"name":"getMarket","outputs":[{"components":[{"internalType":"address","name":"creator","type":"address"},{"internalType":"string","name":"ipfsHash","type":"string"},{"internalType":"bool","name":"isMultiOption","type":"bool"},{"internalType":"uint256","name":"maxOptions","type":"uint256"},{"internalType":"address","name":"paymentToken","type":"address"},{"internalType":"uint256","name":"minStake","type":"uint256"},{"internalType":"uint256","name":"creatorDeposit","type":"uint256"},{"internalType":"uint256","name":"creatorOutcome","type":"uint256"},{"internalType":"uint256","name":"startTime","type":"uint256"},{"internalType":"uint256","name":"stakeEndTime","type":"uint256"},{"internalType":"uint256","name":"endTime","type":"uint256"},{"internalType":"uint256","name":"resolutionEndTime","type":"uint256"},{"internalType":"enum EventPool.MarketState","name":"state","type":"uint8"},{"internalType":"uint256","name":"winningOption","type":"uint256"},{"internalType":"bool","name":"isResolved","type":"bool"}],"internalType":"struct EventPool.Market","name":"","type":"tuple"}],"stateMutability":"view","type":"function"},{"inputs":[{"internalType":"uint256","name":"marketId","type":"uint256"}],"name":"getMarketInfo","outputs":[{"components":[{"internalType":"address","name":"creator","type":"address"},{"internalType":"string","name":"ipfsHash","type":"string"},{"internalType":"bool","name":"isMultiOption","type":"bool"},{"internalType":"uint256","name":"maxOptions","type":"uint256"},{"internalType":"address","name":"paymentToken","type":"address"},{"internalType":"uint256","name":"minStake","type":"uint256"},{"internalType":"uint256","name":"creatorDeposit","type":"uint256"},{"internalType":"uint256","name":"creatorOutcome","type":"uint256"},{"internalType":"uint256","name":"startTime","type":"uint256"},{"internalType":"uint256","name":"stakeEndTime","type":"uint256"},{"internalType":"uint256","name":"endTime","type":"uint256"},{"internalType":"uint256","name":"resolutionEndTime","type":"uint256"},{"internalType":"enum EventPool.MarketState","name":"state","type":"uint8"},{"internalType":"uint256","name":"winningOption","type":"uint256"},{"internalType":"bool","name":"isResolved","type":"bool"}],"internalType":"struct EventPool.Market","name":"market","type":"tuple"},{"internalType":"uint256","name":"totalPool","type":"uint256"},{"internalType":"uint256","name":"supportPool","type":"uint256"},{"internalType":"uint256","name":"stakerCount","type":"uint256"},{"internalType":"uint256","name":"supporterCount","type":"uint256"},{"internalType":"address[]","name":"stakers","type":"address[]"},{"internalType":"address[]","name":"supporters","type":"address[]"},{"internalType":"string","name":"tokenSymbol","type":"string"}],"stateMutability":"view","type":"function"},{"inputs":[{"internalType":"uint256","name":"marketId","type":"uint256"}],"name":"getMarketResolvingVerifiers","outputs":[{"internalType":"address[]","name":"","type":"address[]"}],"stateMutability":"view","type":"function"},{"inputs":[{"internalType":"uint256","name":"marketId","type":"uint256"}],"name":"getMarketStakers","outputs":[{"internalType":"address[]","name":"","type":"address[]"}],"stateMutability":"view","type":"function"},{"inputs":[],"name":"getMarketsReadyForRemoval","outputs":[{"internalType":"uint256[]","name":"","type":"uint256[]"}],"stateMutability":"view","type":"function"},{"inputs":[],"name":"getNextMarketId","outputs":[{"internalType":"uint256","name":"","type":"uint256"}],"stateMutability":"view","type":"function"},{"inputs":[{"internalType":"uint256","name":"marketId","type":"uint256"},{"internalType":"uint256","name":"option","type":"uint256"},{"internalType":"address","name":"token","type":"address"}],"name":"getOptionPool","outputs":[{"internalType":"uint256","name":"","type":"uint256"}],"stateMutability":"view","type":"function"},{"inputs":[],"name":"getPermanentlyRemovedMarkets","outputs":[{"internalType":"uint256[]","name":"","type":"uint256[]"}],"stateMutability":"view","type":"function"},{"inputs":[{"internalType":"uint256","name":"marketId","type":"uint256"}],"name":"getStakerCount","outputs":[{"internalType":"uint256","name":"","type":"uint256"}],"stateMutability":"view","type":"function"},{"inputs":[{"internalType":"uint256","name":"marketId","type":"uint256"},{"internalType":"address","name":"token","type":"address"}],"name":"getSupportPool","outputs":[{"internalType":"uint256","name":"","type":"uint256"}],"stateMutability":"view","type":"function"},{"inputs":[],"name":"getSupportedTokens","outputs":[{"internalType":"address[]","name":"tokens","type":"address[]"},{"internalType":"string[]","name":"symbols","type":"string[]"}],"stateMutability":"view","type":"function"},{"inputs":[{"internalType":"uint256","name":"marketId","type":"uint256"}],"name":"getSupporterCount","outputs":[{"internalType":"uint256","name":"","type":"uint256"}],"stateMutability":"view","type":"function"},{"inputs":[{"internalType":"uint256","name":"marketId","type":"uint256"},{"internalType":"address","name":"token","type":"address"}],"name":"getTotalPool","outputs":[{"internalType":"uint256","name":"","type":"uint256"}],"stateMutability":"view","type":"function"},{"inputs":[{"internalType":"address","name":"user","type":"address"}],"name":"getUserMarketHistory","outputs":[{"internalType":"uint256[]","name":"","type":"uint256[]"}],"stateMutability":"view","type":"function"},{"inputs":[{"internalType":"uint256","name":"marketId","type":"uint256"},{"internalType":"address","name":"user","type":"address"},{"internalType":"address","name":"token","type":"address"}],"name":"getUserStake","outputs":[{"internalType":"uint256","name":"","type":"uint256"}],"stateMutability":"view","type":"function"},{"inputs":[{"internalType":"uint256","name":"marketId","type":"uint256"},{"internalType":"address","name":"user","type":"address"},{"internalType":"address","name":"token","type":"address"}],"name":"getUserSupport","outputs":[{"internalType":"uint256","name":"","type":"uint256"}],"stateMutability":"view","type":"function"},{"inputs":[{"internalType":"uint256","name":"","type":"uint256"}],"name":"isActiveMarket","outputs":[{"internalType":"bool","name":"","type":"bool"}],"stateMutability":"view","type":"function"},{"inputs":[{"internalType":"uint256","name":"marketId","type":"uint256"}],"name":"isMarketActive","outputs":[{"internalType":"bool","name":"","type":"bool"}],"stateMutability":"view","type":"function"},{"inputs":[{"internalType":"address","name":"wallet","type":"address"}],"name":"isWalletBlacklisted","outputs":[{"internalType":"bool","name":"","type":"bool"}],"stateMutability":"view","type":"function"},{"inputs":[],"name":"marketCreationFee","outputs":[{"internalType":"uint256","name":"","type":"uint256"}],"stateMutability":"view","type":"function"},{"inputs":[{"internalType":"uint256","name":"","type":"uint256"},{"internalType":"uint256","name":"","type":"uint256"}],"name":"marketResolvingVerifiers","outputs":[{"internalType":"address","name":"","type":"address"}],"stateMutability":"view","type":"function"},{"inputs":[{"internalType":"uint256","name":"","type":"uint256"},{"internalType":"uint256","name":"","type":"uint256"}],"name":"marketStakers","outputs":[{"internalType":"address","name":"","type":"address"}],"stateMutability":"view","type":"function"},{"inputs":[{"internalType":"uint256","name":"","type":"uint256"},{"internalType":"uint256","name":"","type":"uint256"}],"name":"marketSupporters","outputs":[{"internalType":"address","name":"","type":"address"}],"stateMutability":"view","type":"function"},{"inputs":[{"internalType":"uint256","name":"","type":"uint256"}],"name":"markets","outputs":[{"internalType":"address","name":"creator","type":"address"},{"internalType":"string","name":"ipfsHash","type":"string"},{"internalType":"bool","name":"isMultiOption","type":"bool"},{"internalType":"uint256","name":"maxOptions","type":"uint256"},{"internalType":"address","name":"paymentToken","type":"address"},{"internalType":"uint256","name":"minStake","type":"uint256"},{"internalType":"uint256","name":"creatorDeposit","type":"uint256"},{"internalType":"uint256","name":"creatorOutcome","type":"uint256"},{"internalType":"uint256","name":"startTime","type":"uint256"},{"internalType":"uint256","name":"stakeEndTime","type":"uint256"},{"internalType":"uint256","name":"endTime","type":"uint256"},{"internalType":"uint256","name":"resolutionEndTime","type":"uint256"},{"internalType":"enum EventPool.MarketState","name":"state","type":"uint8"},{"internalType":"uint256","name":"winningOption","type":"uint256"},{"internalType":"bool","name":"isResolved","type":"bool"}],"stateMutability":"view","type":"function"},{"inputs":[],"name":"minMarketDurationMinutes","outputs":[{"internalType":"uint256","name":"","type":"uint256"}],"stateMutability":"view","type":"function"},{"inputs":[],"name":"nextMarketId","outputs":[{"internalType":"uint256","name":"","type":"uint256"}],"stateMutability":"view","type":"function"},{"inputs":[],"name":"owner","outputs":[{"internalType":"address","name":"","type":"address"}],"stateMutability":"view","type":"function"},{"inputs":[{"internalType":"uint256","name":"marketId","type":"uint256"}],"name":"permanentlyRemoveMarket","outputs":[],"stateMutability":"nonpayable","type":"function"},{"inputs":[{"internalType":"uint256","name":"","type":"uint256"}],"name":"permanentlyRemovedMarkets","outputs":[{"internalType":"uint256","name":"","type":"uint256"}],"stateMutability":"view","type":"function"},{"inputs":[{"internalType":"uint256","name":"marketId","type":"uint256"},{"internalType":"uint256","name":"option","type":"uint256"}],"name":"placeStake","outputs":[],"stateMutability":"payable","type":"function"},{"inputs":[{"internalType":"uint256","name":"marketId","type":"uint256"},{"internalType":"uint256","name":"option","type":"uint256"},{"internalType":"uint256","name":"amount","type":"uint256"}],"name":"placeStakeWithToken","outputs":[],"stateMutability":"nonpayable","type":"function"},{"inputs":[{"internalType":"address","name":"token","type":"address"}],"name":"removeSupportedToken","outputs":[],"stateMutability":"nonpayable","type":"function"},{"inputs":[],"name":"renounceOwnership","outputs":[],"stateMutability":"nonpayable","type":"function"},{"inputs":[{"internalType":"uint256","name":"marketId","type":"uint256"},{"internalType":"uint256","name":"_winningOption","type":"uint256"}],"name":"resolveMarket","outputs":[],"stateMutability":"nonpayable","type":"function"},{"inputs":[{"internalType":"address","name":"_analytics","type":"address"}],"name":"setAnalytics","outputs":[],"stateMutability":"nonpayable","type":"function"},{"inputs":[{"internalType":"bool","name":"_enabled","type":"bool"},{"internalType":"uint256","name":"_restrictionMinutes","type":"uint256"}],"name":"setBettingRestriction","outputs":[],"stateMutability":"nonpayable","type":"function"},{"inputs":[{"internalType":"uint256","name":"_marketCreationFee","type":"uint256"}],"name":"setMarketCreationFee","outputs":[],"stateMutability":"nonpayable","type":"function"},{"inputs":[{"internalType":"uint256","name":"_minMarketDurationMinutes","type":"uint256"}],"name":"setMinMarketDuration","outputs":[],"stateMutability":"nonpayable","type":"function"},{"inputs":[{"internalType":"address","name":"_verification","type":"address"}],"name":"setVerification","outputs":[],"stateMutability":"nonpayable","type":"function"},{"inputs":[{"internalType":"address","name":"wallet","type":"address"},{"internalType":"bool","name":"blacklisted","type":"bool"}],"name":"setWalletBlacklist","outputs":[],"stateMutability":"nonpayable","type":"function"},{"inputs":[{"internalType":"uint256","name":"marketId","type":"uint256"},{"internalType":"uint256","name":"amount","type":"uint256"}],"name":"supportMarket","outputs":[],"stateMutability":"payable","type":"function"},{"inputs":[{"internalType":"uint256","name":"","type":"uint256"}],"name":"supportedTokenList","outputs":[{"internalType":"address","name":"","type":"address"}],"stateMutability":"view","type":"function"},{"inputs":[{"internalType":"address","name":"","type":"address"}],"name":"supportedTokens","outputs":[{"internalType":"bool","name":"","type":"bool"}],"stateMutability":"view","type":"function"},{"inputs":[{"internalType":"address","name":"","type":"address"}],"name":"tokenSymbols","outputs":[{"internalType":"string","name":"","type":"string"}],"stateMutability":"view","type":"function"},{"inputs":[{"internalType":"address","name":"newOwner","type":"address"}],"name":"transferOwnership","outputs":[],"stateMutability":"nonpayable","type":"function"},{"inputs":[],"name":"treasury","outputs":[{"internalType":"address payable","name":"","type":"address"}],"stateMutability":"view","type":"function"},{"inputs":[{"internalType":"uint256","name":"","type":"uint256"},{"internalType":"address","name":"","type":"address"}],"name":"userHasStaked","outputs":[{"internalType":"bool","name":"","type":"bool"}],"stateMutability":"view","type":"function"},{"inputs":[{"internalType":"uint256","name":"","type":"uint256"},{"internalType":"address","name":"","type":"address"}],"name":"userHasSupported","outputs":[{"internalType":"bool","name":"","type":"bool"}],"stateMutability":"view","type":"function"},{"inputs":[{"internalType":"address","name":"","type":"address"},{"internalType":"uint256","name":"","type":"uint256"}],"name":"userMarketHistory","outputs":[{"internalType":"uint256","name":"","type":"uint256"}],"stateMutability":"view","type":"function"},{"inputs":[{"internalType":"uint256","name":"","type":"uint256"},{"internalType":"address","name":"","type":"address"}],"name":"userStakeOptions","outputs":[{"internalType":"uint256","name":"","type":"uint256"}],"stateMutability":"view","type":"function"},{"inputs":[],"name":"verification","outputs":[{"internalType":"address","name":"","type":"address"}],"stateMutability":"view","type":"function"},{"inputs":[{"internalType":"uint256","name":"marketId","type":"uint256"}],"name":"withdrawSupport","outputs":[],"stateMutability":"nonpayable","type":"function"},{"stateMutability":"payable","type":"receive"}],"evm":{"bytecode":{"linkReferences":{},"object":"6080346200023457601f6200687538819003918201601f1916830191906001600160401b0383118484101762000239578160a09285926040958652833981010312620002345762000050826200024f565b6020838101519192916001600160a01b03908181169081900362000234576200007b8487016200024f565b938260806200008d60608a016200024f565b98015196169586156200021c57600080546001600160a01b03198082168a17835584519a9099929692909183167f8be0079c531659141344cd1fd0a4f28419497f9722a3daafe3b4186f6b6457e08880a38160019889600f55600560115560ff1996876012541660125560056013558b600c541617600c551689600d541617600d551687600e541617600e556010558280526008845280832080548681811c9116801562000211575b86821014620001fd579081601f88949311620001d1575b506008635045505560e01b01905583805260078552832080549092161790556009549268010000000000000000841015620001bd57830180600955831015620001a9576009815220019081541690556166109081620002658239f35b634e487b7160e01b81526032600452602490fd5b634e487b7160e01b82526041600452602482fd5b818652601f878720910160051c8101905b818110620001f157506200014d565b868155889401620001e2565b634e487b7160e01b85526022600452602485fd5b90607f169062000136565b8151631e4fbdf760e01b815260006004820152602490fd5b600080fd5b634e487b7160e01b600052604160045260246000fd5b51906001600160a01b0382168203620002345756fe6080604052600436101561001b575b361561001957600080fd5b005b6000803560e01c806307adc1911461491e5780630ccf4467146148f45780630d64cdbd146148c55780631356af02146146bd578063157bdcce146147f857806317916e01146147da578063256ba74114614745578063287f57b5146146fc5780632b5ba3b9146146bd5780632b60c822146146925780632bdbb884146146605780632ee4018f146146445780632ef1bdfa14614626578063304bf1f1146145dd57806333d6b46e1461456a5780633adfe6d01461453f5780633bbab179146144dd5780633e32a76c146142755780633ec7919314613f66578063406ef2ef14613f485780634584369514613eca5780634f44289d14613e815780634ffe2a8b14613e585780635104996914613cf2578063539aa77f14613cd55780635b7baf64146139465780635da3247a14613928578063605573331461391057806361d027b3146138e7578063638b022c14612d7457806365ebce5514612cfe578063677bd9ff146128f557806368c4ac26146128b65780636d822220146128525780636f59359e146127e4578063715018a61461279c578063720138e8146124dc57806374c350eb14612497578063763191901461234f5780637c16cd9e1461228b57806380d5ac8a1461226257806381b17d2914612222578063847cf782146121de578063881df9e1146121b357806388d3cc48146121905780638da5cb5b14612169578063902315ec146120e7578063971f8bb1146120a257806398a176711461204c5780639f37022a14612029578063a30a091414611fff578063a5e973c314611f7d578063a7a8c35914611f52578063ad8e42ff14611f28578063b1138b5014611d59578063b1283e7714611c55578063b85ed63614611bcb578063baa9c4ac14611bad578063c22c62c314611b7b578063c3436e0c14611a17578063c8a843b71461190c578063cc3cbd2a146118ef578063d3c7c2c71461177a578063d5f827071461172f578063d8c5dd67146116e8578063db62c6de146114f3578063dc4ce349146114a0578063e78d0117146113f9578063eb44fdd3146112f1578063f00fe3211461124e578063f15cc40614610e33578063f1b7dde314610b7b578063f204072f14610813578063f2fde38b1461079d578063f486759114610467578063f849f69e146103f4578063fb0b2b36146103a15763fe53a6e814610381575061000e565b3461039e578060031936011261039e576020600f54604051908152f35b80fd5b503461039e57602036600319011261039e576103f0906103dc906040906001600160a01b036103ce614b1f565b168152600860205220614ee4565b604051918291602083526020830190614ca8565b0390f35b503461039e57602036600319011261039e576004358152601560205260ff6040822054168061042b575b6020906040519015158152f35b50600160205260ff600c6040832001541690600582101561045357506004602091141561041e565b634e487b7160e01b81526021600452602490fd5b5061047136614c1a565b908083526020600181526040842060ff600c8201541660058110156107895761049a90156152a4565b60ff60125416610740575b83151580610732575b6104b790615384565b6004810180546001600160a01b03929083166106d95760056104dd9101543410156153d0565b858080803486600c54165af16104f16150ed565b501561067d57908591848352600284526040832033600052845260ff6040600020541615610650575b84835260028452604083203360005284526040600020600160ff198254161790558483526004845260408320336000528452856040600020558180600c541691541690803b1561061e576040516395f4109560e01b8152918491839182908490829061058f908d903490338f6004870161517d565b03925af1908115610645578391610631575b5050600e5416806105d1575b505060405192835234908301526000805160206165bb83398151915260403393a380f35b803b1561062d5781604051809263c228038d60e01b82528183816105fb348c338d600486016151c6565b03925af1801561062257156105ad5761061390614dcc565b61061e5783386105ad565b8380fd5b6040513d84823e3d90fd5b5080fd5b61063a90614dcc565b61062d5781386105a1565b6040513d85823e3d90fd5b848352600584526106643360408520615415565b3383526016845261067885604085206150ca565b61051a565b60405162461bcd60e51b815260048101849052602e60248201527f4d61726b65744d616e616765723a20455448207472616e7366657220746f205460448201526d1c99585cdd5c9e4819985a5b195960921b6064820152608490fd5b60405162461bcd60e51b815260048101859052603d60248201526000805160206164db83398151915260448201527f746f6b656e732c2075736520706c61636542657457697468546f6b656e0000006064820152608490fd5b5060038101548411156104ae565b600981015460135490603c820291808304603c14901517156107755761077091610769916152ef565b42106152fc565b6104a5565b634e487b7160e01b87526011600452602487fd5b634e487b7160e01b86526021600452602486fd5b503461039e57602036600319011261039e576107b7614b1f565b6107bf614f8a565b6001600160a01b039081169081156107fa576000548260018060a01b03198216176000551660008051602061655b833981519152600080a380f35b604051631e4fbdf760e01b815260048101849052602490fd5b5061081d36614c1a565b8183929352602092600184526040832060ff600c820154166005811015610b675761084890156152a4565b6009810154421015610b1657600490338552600a865261086f60ff60408720541615614fb6565b61087a841515615438565b0180546001600160a01b039190821680610a945750833403610a43576108a1341515615438565b848080803486600c54165af16108b56150ed565b50156109e75784955b838652600381526040862033600052815260ff60406000205416156109ce575b83865260038152604086209033600052526040600020600160ff198254161790558180600c541691541690803b156109ca57848691610936938360405180968195829463c15d980760e01b8452338c600486016154a1565b03925af19081156109bf5785916109ab575b5050600e5416918261095957505050f35b823b156109a65761098592849283604051809681958294638f46a5a160e01b84523390600485016154c9565b03925af18015610622576109965750f35b61099f90614dcc565b61039e5780f35b505050fd5b6109b490614dcc565b6109a6578338610948565b6040513d87823e3d90fd5b8580fd5b838652600681526109e23360408820615415565b6108de565b60405162461bcd60e51b815260048101879052602e60248201527f4d61726b65744d616e616765723a20455448207472616e7366657220746f207460448201526d1c99585cdd5c9e4819985a5b195960921b6064820152608490fd5b60405162461bcd60e51b815260048101879052602360248201527f4d61726b65744d616e616765723a20496e636f72726563742045544820616d6f6044820152621d5b9d60ea1b6064820152608490fd5b34610ab25795610aad85879885600c541690339061520c565b6108be565b60405162461bcd60e51b815260048101889052603660248201527f4d61726b65744d616e616765723a204e6f204554482073686f756c64206265206044820152751cd95b9d08199bdc881d1bdad95b881cdd5c1c1bdc9d60521b6064820152608490fd5b60405162461bcd60e51b815260048101869052602360248201527f4d61726b65744d616e616765723a20537570706f727420706572696f6420656e60448201526219195960ea1b6064820152608490fd5b634e487b7160e01b85526021600452602485fd5b503461039e57606036600319011261039e57600435602435906044358184526020600181526040852060ff600c820154166005811015610e1f57610bbf90156152a4565b60ff60125416610ddd575b84151580610dcf575b610bdc90615384565b6004810180546001600160a01b0392908316908115610d81578589949392610c0d6005610c1a9401548310156153d0565b84600c541690339061520c565b858352600284526040832033600052845260ff6040600020541615610d54575b85835260028452604083203360005284526040600020600160ff198254161790558583526004845260408320336000528452866040600020558180600c541691541690803b1561061e578584918993838a610cad604051978896879586946395f4109560e01b865233906004870161517d565b03925af1908115610645578391610d40575b5050600e541680610ced575b50506040519384528301526000805160206165bb83398151915260403393a380f35b803b1561062d5760405163c228038d60e01b81529082908290818381610d198a8d338e600486016151c6565b03925af180156106225715610ccb57610d3190614dcc565b610d3c578438610ccb565b8480fd5b610d4990614dcc565b61062d578138610cbf565b85835260058452610d683360408520615415565b33835260168452610d7c86604085206150ca565b610c3a565b60405162461bcd60e51b815260048101869052603260248201526000805160206164db833981519152604482015271141154154b081d5cd9481c1b1858d950995d60721b6064820152608490fd5b506003810154851115610bd3565b600981015460135490603c820291808304603c1490151715610e0b57610e0691610769916152ef565b610bca565b634e487b7160e01b88526011600452602488fd5b634e487b7160e01b87526021600452602487fd5b503461039e57604036600319011261039e57610e4d614b35565b90600435815260016020526040812060ff600c82015416600581101561123a576002610e7991146158e7565b600d810154610e8981151561593e565b60043583526002602052604083209360018060a01b0394858216600052602052610eba60ff60406000205416615989565b84600c54166040516307c7a72d60e01b815260208180610ee086600435600484016151ad565b0381855afa801561122f5786906111f4575b610efd9150156159d5565b85600485015416936040519463423e7bc160e11b865260208680610f28848860043560048501615544565b0381865afa9586156110d55787966111c0575b5060405163dc4ce34960e01b81529260208480610f5f858a60048035908501615a21565b0381845afa9384156111b5578894611181575b50879260036001910154905b818111156110e0575050610fae92916020916040518080968194634f44289d60e01b8352600435600484016151ad565b03915afa9081156110d557879161109a575b610fca925061507a565b81610fe1575050505050602091505b604051908152f35b9394938061101e57505060209460043584526004865260408420911660005284526040600020541460001461101757505b610fd9565b9050610fd9565b939291909495600435845260046020526040842091166000526020526040600020541460001461108e576123288083029283040361107a5750916110746110129261106f6127106020960484615051565b615a42565b9061507a565b634e487b7160e01b81526011600452602490fd5b91505060209150610fd9565b90506020823d6020116110cd575b816110b560209383614e16565b810103126110c857610fca915190610fc0565b600080fd5b3d91506110a8565b6040513d89823e3d90fd5b8781036110f6575b6110f190615087565b610f7e565b9360405163dc4ce34960e01b815260208180611119888a60043560048501615a21565b0381875afa908115611176578b91611142575b5061113a906110f19261507a565b9490506110e8565b90506020813d60201161116e575b8161115d60209383614e16565b810103126110c857516110f161112c565b3d9150611150565b6040513d8d823e3d90fd5b9093506020813d6020116111ad575b8161119d60209383614e16565b810103126110c857519238610f72565b3d9150611190565b6040513d8a823e3d90fd5b9095506020813d6020116111ec575b816111dc60209383614e16565b810103126110c857519438610f3b565b3d91506111cf565b506020813d602011611227575b8161120e60209383614e16565b810103126109ca57611222610efd91615642565b610ef2565b3d9150611201565b6040513d88823e3d90fd5b634e487b7160e01b83526021600452602483fd5b503461039e57604036600319011261039e5761129790602061126e614b35565b60018060a01b03600c54166040518080968194633d1e7ba160e11b8352600435600484016151ad565b03915afa9081156112e557906112b3575b602090604051908152f35b506020813d82116112dd575b816112cc60209383614e16565b810103126110c857602090516112a8565b3d91506112bf565b604051903d90823e3d90fd5b503461039e57602036600319011261039e5760406103f091611311616418565b50600435815260016020522060ff600e6040519261132e84614ddf565b80546001600160a01b03908116855261134960018301614ee4565b60208601528360028301541615156040860152600382015460608601526004820154166080850152600581015460a0850152600681015460c0850152600781015460e085015260088101546101008501526009810154610120850152600a810154610140850152600b8101546101608501526113cf83600c830154166101808601615096565b600d8101546101a085015201541615156101c0820152604051918291602083526020830190614d0b565b503461039e57604036600319011261039e57600435801515908181036110c85760243591611425614f8a565b60ff80196012541691161760125561143b575080f35b80156114475760135580f35b60405162461bcd60e51b815260206004820152602b60248201527f4d61726b65744d616e616765723a20496e76616c69642072657374726963746960448201526a37b710323ab930ba34b7b760a91b6064820152608490fd5b503461039e57606036600319011261039e57604435906001600160a01b0380831683036110c85761129792602091600c5416604051808096819463dc4ce34960e01b835260243560043560048501615a21565b503461039e57604036600319011261039e5761150d614b1f565b611515614e9b565b61151d614f8a565b6001600160a01b0382811691821561169557828552600a602052604085209061154b8160ff845416936150b9565b808061168d575b156115b7575050600b5492915050600160401b8210156115a15761157f82600161159e9401600b55614be7565b90919082549060031b9160018060a01b03809116831b921b1916179055565b80f35b634e487b7160e01b600052604160045260246000fd5b9091929350159081611685575b506115ce57505080f35b825b600b80548083101561167d5783856115e785614be7565b929054600393841b1c16146116075750505061160290615087565b6115d0565b919450600019939190848101908111610775579161157f9161162c6116389594614be7565b9054911b1c1691614be7565b8154801561166757019061166361164e83614be7565b81549060018060a01b039060031b1b19169055565b5580f35b634e487b7160e01b600052603160045260246000fd5b505050505080f35b9050386115c4565b508115611552565b60405162461bcd60e51b815260206004820152602560248201527f4d61726b65744d616e616765723a20496e76616c69642077616c6c6574206164604482015264647265737360d81b6064820152608490fd5b503461039e57604036600319011261039e576040611704614b35565b9160043581526004602052209060018060a01b03166000526020526020604060002054604051908152f35b503461039e5761173e36614c1a565b9190815260056020526040812090815483101561039e5760206117618484614c02565b905460405160039290921b1c6001600160a01b03168152f35b503461039e578060031936011261039e5760095461179781615aab565b906117a56040519283614e16565b808252601f1992836117b683615aab565b019360209436868601376117c983615aab565b926117d76040519485614e16565b808452816117e482615aab565b01835b8181106118e0575050825b81811061186b57505061181060405194604086526040860190614c6b565b94848603818601528351918287528187019082808560051b8a0101960194975b84891061183d5787870388f35b9091929394958480611859838686600196030188528a51614ca8565b98019401980197919094939294611830565b8061187c6118d79298949598614b80565b90546001600160a01b039160039190821b1c821661189a848b615ac2565b526118a483614b80565b9054911b1c168852600884526118bc60408920614ee4565b6118c68288615ac2565b526118d18187615ac2565b50615087565b959291956117f2565b606086820189015287016117e7565b503461039e578060031936011261039e57602060405161015e8152f35b503461039e578060031936011261039e5760185461192981616488565b8291835b81811061197a57505061193f82616488565b925b82811061195657604051806103f08682614c30565b806119646119759284615ac2565b5161196f8287615ac2565b52615087565b611941565b61198381614bcc565b90549060031b1c80865260206001815260ff600c604089200154166005811015611a035760041490816119e0575b506119c6575b506119c190615087565b61192d565b846119d99161196f6119c1949787615ac2565b93906119b7565b6019915082885252604086205462278d00810180911161077557421015386119b1565b634e487b7160e01b88526021600452602488fd5b503461039e57602036600319011261039e5760043580825260016020526040822080546001600160a01b03163303611b275760ff600c820154166005811015611b135790611a67600992156152a4565b015461a8bf198101908111611aff57421015611ab05760405161159e91611a8d82614dfb565b601182527010dc99585d1bdc8818d85b98d95b1b1959607a1b6020830152615a62565b60405162461bcd60e51b815260206004820152602160248201527f4d61726b65744d616e616765723a20546f6f206c61746520746f2063616e63656044820152601b60fa1b6064820152608490fd5b634e487b7160e01b83526011600452602483fd5b634e487b7160e01b84526021600452602484fd5b60405162461bcd60e51b815260206004820152602660248201527f4d61726b65744d616e616765723a204f6e6c792063726561746f722063616e2060448201526518d85b98d95b60d21b6064820152608490fd5b503461039e57611b8a36614c1a565b9190815260066020526040812090815483101561039e5760206117618484614c02565b503461039e578060031936011261039e576020601354604051908152f35b503461039e578060031936011261039e57600f5460001990818101818111611c4157611bf690616488565b9160015b828110611c0f57604051806103f08682614c30565b818101818111611c2d57908061196f611c289387615ac2565b611bfa565b634e487b7160e01b86526011600452602486fd5b634e487b7160e01b84526011600452602484fd5b503461039e57602036600319011261039e576004358152600160205260409020600160a01b60019003808254169160018101611c9090614ee4565b91600282015460ff16916003810154916004820154166005820154600683015460078401546008850154600986015491600a87015493600b88015495600c89015460ff1697600d8a015499600e015460ff169a6040519e8f9e8f9182526101e08060208401528201611d0191614ca8565b9d151560408201526060015260808d015260a08c015260c08b015260e08a01526101008901526101208801526101408701526101608601526101808501611d4791614ce8565b6101a084015215156101c08301520390f35b503461039e57602036600319011261039e576004359081815260016020526040812091600c830192835460ff8116946005861015610b6757611da16001602495969714615564565b600e8301928354611db560ff8216156155c1565b600d5460408051633313865560e21b8152600481018a9052976001600160a01b039692899190829089165afa968715611f1d5789908a98611ee9575b5015611e9857889587600d6002950155600160ff1980941617905516179055611e1a8385615ad6565b611e2384615cbe565b600e541680611e4b575b5050602060008051602061657b83398151915291604051908152a280f35b803b1561062d5781809160446040518094819362ff4a7360e81b83528960048401528860248401525af180156106225715611e2d57611e8990614dcc565b611e94578238611e2d565b8280fd5b60405162461bcd60e51b8152602060048201526024808201527f4d61726b65744d616e616765723a204e6f207265736f6c7574696f6e2072656160448201526318da195960e21b6064820152608490fd5b9050611f0e91975060403d604011611f16575b611f068183614e16565b81019061564f565b969038611df1565b503d611efc565b6040513d8b823e3d90fd5b503461039e57602036600319011261039e5760406020916004358152601983522054604051908152f35b503461039e57602036600319011261039e5760043590600b5482101561039e57602061176183614be7565b503461039e578060031936011261039e57604051601480548083529083526020808301937fce6d7b5282bd9a3661ae061feed1dbda4e52ab073b1f9285be6e155d9c38d4ec92915b828210611fe8576103f085611fdc81890382614e16565b60405191829182614c30565b835486529485019460019384019390910190611fc5565b503461039e57602036600319011261039e5760406020916004358152600683522054604051908152f35b503461039e57602036600319011261039e57612043614f8a565b60043560105580f35b503461039e57604036600319011261039e57612066614b1f565b6001600160a01b031681526016602052604081208054602435929083101561039e5760206120948484614c02565b90546040519160031b1c8152f35b503461039e57602036600319011261039e576120bc614b1f565b6120c4614f8a565b600d80546001600160a01b0319166001600160a01b039290921691909117905580f35b503461039e5760208060031936011261062d576004358252601781526040822091604051809384918482549182815201918452848420935b8582821061214a5750505061213692500383614e16565b6103f0604051928284938452830190614c6b565b85546001600160a01b031684526001958601958895509301920161211f565b503461039e578060031936011261039e57546040516001600160a01b039091168152602090f35b503461039e578060031936011261039e57602060ff601254166040519015158152f35b503461039e57602036600319011261039e576004359060185482101561039e57602061209483614bcc565b503461039e576112979060206121f336614b4b565b600c5460405163423e7bc160e11b81529687946001600160a01b03909216938593849390919060048501615544565b503461039e57602036600319011261039e57600435601a5481101561062d57601a60005260008051602061653b8339815191520154604051908152602090f35b503461039e578060031936011261039e57600e546040516001600160a01b039091168152602090f35b503461039e57602036600319011261039e576004358082526001602052604082209060ff600c830154166005811015611b135760016122ca9114615564565b600b82015442106122f7576122e960ff600e61159e94015416156155c1565b6122f161560d565b90615a62565b60405162461bcd60e51b815260206004820152602a60248201527f4d61726b65744d616e616765723a205265736f6c7574696f6e20706572696f64604482015269081b9bdd08195b99195960b21b6064820152608490fd5b503461039e57602036600319011261039e57612369614b1f565b612371614f8a565b6001600160a01b0390811690811561244057818352600760205261239b60ff60408520541661500c565b81835260076020526040832060ff19815416905560086020526123c060408420616288565b825b600980548083101561167d5783856123d985614b80565b929054600393841b1c16146123f9575050506123f490615087565b6123c2565b919450600019939190848101908111610775579161157f9161241e61242a9594614b80565b9054911b1c1691614b80565b8154801561166757019061166361164e83614b80565b60405162461bcd60e51b815260206004820152602960248201527f4d61726b65744d616e616765723a2043616e6e6f742072656d6f7665206e617460448201526834bb32903a37b5b2b760b91b6064820152608490fd5b503461039e57602036600319011261039e576124b1614b1f565b6124b9614f8a565b600e80546001600160a01b0319166001600160a01b039290921691909117905580f35b503461039e57604036600319011261039e576124f6614b1f565b60246001600160401b038135818111610d3c57612517903690600401614e54565b61251f614f8a565b6001600160a01b03841691821561274b578151156126fb578286526020926007845260ff6040882054166126a85786526007835260408620926001938460ff198254161790556008815260408720928051928311612695579082916125848554614eaa565b601f811161265c575b5081601f84116001146125f9575088926125ee575b5050600019600383901b1c191690831b1790555b60095491600160401b8310156125da57508161157f9161159e949301600955614b80565b634e487b7160e01b60009081526041600452fd5b0151905038806125a2565b9190869450601f198416868b52838b20938b905b828210612643575050841161262a575b505050811b0190556125b6565b015160001960f88460031b161c1916905538808061261d565b848401518655899790950194938401939081019061260d565b61268590868b52838b20601f860160051c81019185871061268b575b601f0160051c01906150a2565b3861258d565b9091508190612678565b634e487b7160e01b885260416004528588fd5b60405162461bcd60e51b8152600481018590526026818701527f4d61726b65744d616e616765723a20546f6b656e20616c7265616479207375706044820152651c1bdc9d195960d21b6064820152608490fd5b60405162461bcd60e51b8152602060048201526023818601527f4d61726b65744d616e616765723a20496e76616c696420746f6b656e2073796d604482015262189bdb60ea1b6064820152608490fd5b60405162461bcd60e51b8152602060048201528085018590527f4d61726b65744d616e616765723a20496e76616c696420746f6b656e206164646044820152637265737360e01b6064820152608490fd5b503461039e578060031936011261039e576127b5614f8a565b600080546001600160a01b0319811682556001600160a01b031660008051602061655b8339815191528280a380f35b503461039e5760208060031936011261062d576004358252600581526040822091604051809384918482549182815201918452848420935b858282106128335750505061213692500383614e16565b85546001600160a01b031684526001958601958895509301920161281c565b503461039e578060031936011261039e57604051601a805480835290835260208083019360008051602061653b83398151915292915b82821061289f576103f085611fdc81890382614e16565b835486529485019460019384019390910190612888565b503461039e57602036600319011261039e5760209060ff906040906001600160a01b036128e1614b1f565b168152600784522054166040519015158152f35b503461039e576020908160031936011261039e576004359182825260018152604082209260ff600c850154166005811015611b1357600261293691146158e7565b600d8401549161294783151561593e565b818452600281526040842033600052815261296960ff60406000205416615989565b600c546040516307c7a72d60e01b81526001600160a01b039182169491908381806129983389600484016151ad565b0381895afa80156110d5578790612cc4575b6129b59150156159d5565b600487015416906040519063423e7bc160e11b82528382806129dc86338a60048501615544565b0381895afa9182156110d5578792612c95575b5060405163dc4ce34960e01b80825298858280612a1188878c60048501615a21565b03818b5afa918215611f1d578992612c66575b50889960036001920154915b82811115612bcf575050604051634f44289d60e01b8152899594939291508a878280612a60898d600484016151ad565b03818d5afa9182156110d5578792612b9b575b5090612a7e9161507a565b81612b0a575050505081945b803b15611e9457858391612ab79383604051809681958294632f0041ed60e11b8452338d600486016154a1565b03925af1801561062257612af6575b50507f5380cf6fe903b40c6d5a9e0dfbca2f3a423f0a21520b4d5947ed5169bdba946d906040519384523393a380f35b612aff90614dcc565b61061e578385612ac6565b80612b3e575050858452600485526040842033600052855260406000205414600014612b365794612a8a565b508194612a8a565b9187869294959652600487526040822033600052875260406000205414600014612b8f575061232880820291820403610e0b5791611074612b899261106f6127108b97960484615051565b94612a8a565b93925050508194612a8a565b88809298508193503d8311612bc8575b612bb58183614e16565b810103126110c857518995612a7e612a73565b503d612bab565b848103612be5575b612be090615087565b612a30565b9a612c0488888c8f8d604051958694859384938b855260048501615a21565b03915afa908115612c5b578c91612c2c575b50612c2490612be09261507a565b9b9050612bd7565b90508881813d8311612c54575b612c438183614e16565b810103126110c85751612be0612c16565b503d612c39565b6040513d8e823e3d90fd5b9091508581813d8311612c8e575b612c7e8183614e16565b810103126110c857519038612a24565b503d612c74565b9091508381813d8311612cbd575b612cad8183614e16565b810103126110c8575190386129ef565b503d612ca3565b508381813d8311612cf7575b612cda8183614e16565b81010312612cf357612cee6129b591615642565b6129aa565b8680fd5b503d612cd0565b503461039e578060031936011261039e57604051601880548083529083526020808301937fb13d2d76d1f4b7be834882e410b3e3a8afaf69f83600ae24db354391d2378d2e92915b828210612d5d576103f085611fdc81890382614e16565b835486529485019460019384019390910190612d46565b5061012036600319011261039e576004356001600160401b03811161062d57612da1903690600401614e54565b90612daa614e9b565b6064356001600160a01b03811690036110c857338252600a602052612dd660ff60408420541615614fb6565b8251156138a3576002604435101580613896575b1561384657608435156138025760a435156137ae5760c4351515806137a0575b1561374c5760115460e435106137055760e43561010435106136a3578015613669576064356001600160a01b031615613606576064356001600160a01b031682526007602052604082205460ff16156135b7575b601054341061356157603c60e4350260e4358104603c1460e435151715611aff57612e89904261507a565b603c6101043502610104358104603c1461010435151715611c4157612eae904261507a565b906202a30082018211611c4157600f5493612ec885615087565b600f55604051612ed781614ddf565b338152602080820188815286151560408085019190915260443560608501526064356001600160a01b03908116608086015260843560a086015260a43560c086015260c43560e086015242610100860152610120850187905261014085018890526202a300880161016086015261018085018690526101a085018690526101c0850186905289865260019093528420835181546001600160a01b0319169316929092178255518051919291906001600160401b03821161354d578190612fa06001860154614eaa565b601f811161351a575b50602090601f83116001146134ab5786926134a0575b50508160011b916000199060031b1c19161760018301555b612fea60408201511515600284016150b9565b606081015160038301556004820160018060a01b0360808301511660018060a01b031982541617905560a0810151600583015560c0810151600683015560e0810151600783015561010081015160088301556101208101516009830155610140810151600a830155610160810151600b830155600c82016101808201516005811015610b675761309e9392600e926101c09260ff801983541691161790556101a0810151600d8501550151151591016150b9565b601454600160401b8110156115a157856130c18260016130da9401601455614bb1565b90919082549060031b91821b91600019901b1916179055565b848152601560205260408120805460ff191660011790556064356001600160a01b03166134065760105461311060a4358261507a565b34106133d457818080806131389460018060a01b038254165af16131326150ed565b5061511d565b8080808060a43560018060a01b03600c54165af16131546150ed565b501561336c575b848152600260205260408120336000526020526040600020600160ff198254161790558481526004602052604081203360005260205260c43560406000205533815260166020526131af85604083206150ca565b600c546001600160a01b0316803b1561062d578160405180926395f4109560e01b82528183816131ef60c4358d60a435906064359033906004870161517d565b03925af1801561062257908291613358575b5050600e546001600160a01b0316806132a9575b50506020946202a30085937f5d0726a1bb5ec8c87527e69ba86d988202e885fad8f2b4aacd618793d6f297b293613259604051946101208652610120860190614ca8565b961515848a015260443560408501526064356001600160a01b0316606085015260843560808501524260a085015260c084015260e0830181905201610100820152339381900390a3604051908152f35b803b1561062d5781604051809263782a780560e11b82528183816132d1338d600484016151ad565b03925af1801561062257908291613344575b5050600e546001600160a01b0316803b1561062d5760405163c228038d60e01b8152908290829081838161332160a43560c435338f600486016151c6565b03925af1801561062257156132155761333a8291614dcc565b61039e5780613215565b61334d90614dcc565b61039e5780386132e3565b61336190614dcc565b61039e578038613201565b60405162461bcd60e51b815260206004820152603a60248201527f4d61726b65744d616e616765723a2043726561746f72206465706f73697420746044820152791c985b9cd9995c881d1bc8151c99585cdd5c9e4819985a5b195960321b6064820152608490fd5b606460405162461bcd60e51b8152602060048201526020602482015260008051602061659b8339815191526044820152fd5b601054803410613453578180808061342c9460018060a01b038254165af16131326150ed565b600c5461344e9060a435906001600160a01b039081169033906064351661520c565b61315b565b60405162461bcd60e51b8152602060048201526031602482015260008051602061659b83398151915260448201527020666f72206372656174696f6e2066656560781b6064820152608490fd5b015190503880612fbf565b9250600185018652602086209086935b601f19841685106134ff576001945083601f198116106134e6575b505050811b016001830155612fd7565b015160001960f88460031b161c191690553880806134d6565b818101518355602094850194600190930192909101906134bb565b6135479060018701885260208820601f850160051c8101916020861061268b57601f0160051c01906150a2565b38612fa9565b634e487b7160e01b85526041600452602485fd5b60405162461bcd60e51b815260206004820152602860248201527f4d61726b65744d616e616765723a20496e73756666696369656e74206372656160448201526774696f6e2066656560c01b6064820152608490fd5b60405162461bcd60e51b815260206004820152603360248201526000805160206164fb83398151915260448201527232b2103337b91036bab63a3496b7b83a34b7b760691b6064820152608490fd5b60405162461bcd60e51b815260206004820152603560248201527f4d61726b65744d616e616765723a204d756c74692d6f7074696f6e206d61726b60448201527432ba39903932b8bab4b93290281928103a37b5b2b760591b6064820152608490fd5b6064356001600160a01b031615612e5e576064356001600160a01b031682526007602052604082205461369e9060ff1661500c565b612e5e565b60405162461bcd60e51b815260206004820152603460248201527f4d61726b65744d616e616765723a205265736f6c7574696f6e206d7573742062604482015273194818599d195c881cdd185ad9481c195c9a5bd960621b6064820152608490fd5b60405162461bcd60e51b815260206004820152602b602482015260008051602061651b83398151915260448201526a35b290323ab930ba34b7b760a91b6064820152608490fd5b60405162461bcd60e51b815260206004820152602660248201527f4d61726b65744d616e616765723a20496e76616c69642063726561746f72206f6044820152657574636f6d6560d01b6064820152608490fd5b5060443560c4351115612e0a565b60405162461bcd60e51b815260206004820152602660248201527f4d61726b65744d616e616765723a20496e76616c69642063726561746f722064604482015265195c1bdcda5d60d21b6064820152608490fd5b606460405162461bcd60e51b815260206004820152602060248201527f4d61726b65744d616e616765723a20496e76616c6964206d696e207374616b656044820152fd5b60405162461bcd60e51b815260206004820152602260248201527f4d61726b65744d616e616765723a20496e76616c6964206d6178206f7074696f6044820152616e7360f01b6064820152608490fd5b50600a6044351115612dea565b606460405162461bcd60e51b815260206004820152602060248201527f4d61726b65744d616e616765723a20496e76616c6964204950465320686173686044820152fd5b503461039e578060031936011261039e57600c546040516001600160a01b039091168152602090f35b503461039e5761159e61392236614c1a565b9061566c565b503461039e578060031936011261039e576020601454604051908152f35b503461039e5760208060031936011261062d5760043580835260018252604083209160ff600c840154166005811015610b6757600303613c8557818452600281526040842033600052815260ff604060002054168015613c65575b15613c17578392828552600282526040852033600052825260ff60406000205416613b7c575b828552600382526040852033600052825260ff60406000205416613ad4575b8315613a8457600c5460049091015485916001600160a01b039182169116803b15611e9457858391613a31938360405180968195829463164fcd7d60e21b8452338d600486016154a1565b03925af1801561062257613a70575b50507ff3f402280ef0a7905e124aa621b65eaeb2725c343e8b36d398ed78c29daf285c906040519384523393a380f35b613a7990614dcc565b61061e578338613a40565b60405162461bcd60e51b815260048101839052602260248201527f4d61726b65744d616e616765723a204e6f20726566756e6420617661696c61626044820152616c6560f01b6064820152608490fd5b92613b0b908260018060a01b0380600c54169060048801541690604051808096819463256ba74160e01b8352338b60048501615544565b03915afa90811561122f578691613b4b575b613b27925061507a565b928285526003825260408520336000528252604060002060ff1981541690556139e6565b90508282813d8311613b75575b613b628183614e16565b810103126110c857613b27915190613b1d565b503d613b58565b9250613bb38160018060a01b0380600c54169060048701541690604051808095819463423e7bc160e11b8352338a60048501615544565b03915afa9081156109bf578591613bea575b50928285526002825260408520336000528252604060002060ff1981541690556139c7565b90508181813d8311613c10575b613c018183614e16565b810103126110c8575138613bc5565b503d613bf7565b6084906040519062461bcd60e51b82526004820152602160248201527f4d61726b65744d616e616765723a204e6f207374616b6520746f20726566756e6044820152601960fa1b6064820152fd5b50818452600381526040842033600052815260ff604060002054166139a1565b6084906040519062461bcd60e51b82526004820152602360248201527f4d61726b65744d616e616765723a204d61726b6574206e6f742063616e63656c6044820152621b195960ea1b6064820152fd5b503461039e578060031936011261039e5760206040516101f48152f35b503461039e57604036600319011261039e576004356024356001600160401b038111611e9457613d26903690600401614e54565b613d2e614f8a565b613d3b600f5483106162d1565b81835260209060018252613d5c60018060a01b03604086205416151561631c565b8284526001825260ff600c604086200154166005811015610b6757600414613e1357828452600182526040808520600c01805460ff1916600417905583855260198352842042905560185491600160401b8310156115a157613dd7846130c18560016000805160206164bb8339815191529701601855614bcc565b8385526015815260ff604086205416613e05575b613dff604051928284938452830190614ca8565b0390a280f35b613e0e84616374565b613deb565b60405162461bcd60e51b815260048101839052601e60248201527f4d61726b65744d616e616765723a20416c72656164792064656c6574656400006044820152606490fd5b503461039e578060031936011261039e57600d546040516001600160a01b039091168152602090f35b503461039e57604036600319011261039e57611297906020613ea1614b35565b60018060a01b03600c54166040518080968194634f44289d60e01b8352600435600484016151ad565b503461039e57602036600319011261039e57600435613ee7614f8a565b8015613ef35760115580f35b60405162461bcd60e51b815260206004820152602760248201527f4d61726b65744d616e616765723a20496e76616c6964206d696e696d756d20646044820152663ab930ba34b7b760c91b6064820152608490fd5b503461039e578060031936011261039e576020600f54604051908152f35b503461039e5760208060031936011261062d5761408b60043591613f88616418565b50828452600190818152604085209360405195613fa487614ddf565b85546001600160a01b039081168852613fbe858801614ee4565b8489015260ff6002880154161515604089015260038701546060890152806004880154169160808901928352600588015460a08a0152600688015460c08a0152600788015460e08a015260ff600e60088a0154996101009a8b8d015260098101546101208d0152600a8101546101408d0152600b8101546101608d01526140508c61018085600c850154169101615096565b600d8101546101a08d015201541615156101c08a015281600c54168583855116604051809a8192633d1e7ba160e11b835289600484016151ad565b0381845afa978815610622578298614244575b5090856140c69284865116906040518080968194634f44289d60e01b83528b600484016151ad565b03915afa918215614237578192614208575b5084815260058652604081205492600687526040822054946005885260408320968960405180998a918c825491828152019188528c8089209489915b8383106141ef575050505061412b92500389614e16565b83526006885260408320604051809a8a835492838152019286528a862091865b8181106141da575050505060406141be97946141cc9a97948c9a979461417a6103f09f9e61418896038d614e16565b511681526008885220614ee4565b9861419e6040519d8d8f9e8f9081520190614d0b565b958c015260408b015260608a0152608089015287820360a0890152614c6b565b9085820360c0870152614c6b565b9083820360e0850152614ca8565b835487168552938c019392820192820161414b565b86548a168552958101958e955090930192018e8e614114565b9091508581813d8311614230575b6142208183614e16565b810103126110c8575190386140d8565b503d614216565b50604051903d90823e3d90fd5b919097508582813d831161426e575b61425d8183614e16565b810103126110c8579051968561409e565b503d614253565b503461039e5760208060031936011261062d576004358083526001825260408320600383526040842033855283526142b360ff6040862054166154ea565b60ff600c820154166005811015610b67578061445d5750600981015461a8bf198101908111614449574210156143de575b8360018060a01b03600481600c541693015416916040519063256ba74160e01b825285828061431887338a60048501615544565b0381845afa9182156106455783926143af575b506143378215156154ea565b803b15611e945761436193836040518096819582946317be0b2f60e11b8452338b600486016154a1565b03925af180156143a457614391575b5082526003815260408220903360005252604060002060ff19815416905580f35b61439d90939193614dcc565b9138614370565b6040513d86823e3d90fd5b9091508581813d83116143d7575b6143c78183614e16565b81010312611e945751903861432b565b503d6143bd565b60405162461bcd60e51b815260048101849052603d60248201527f4d61726b65744d616e616765723a2043616e6e6f74207769746864726177207760448201527f697468696e20313220686f757273206f66207374616b696e6720656e640000006064820152608490fd5b634e487b7160e01b85526011600452602485fd5b600481149081156144d2575b506142e45760405162461bcd60e51b815260048101849052603660248201527f4d61726b65744d616e616765723a2043616e6e6f7420776974686472617720696044820152756e2063757272656e74206d61726b657420737461746560501b6064820152608490fd5b600391501438614469565b503461039e578060031936011261039e57604051809182600b54808452602080940190600b8452848420935b858282106145205750505061213692500383614e16565b85546001600160a01b0316845260019586019588955093019201614509565b503461039e57602036600319011261039e576004359060145482101561039e57602061209483614bb1565b503461039e5760208060031936011261062d576001600160a01b0361458d614b1f565b1682526016815260408220916040518092808554928381520194835280832092905b8282106145c6576103f085611fdc81890382614e16565b8354865294850194600193840193909101906145af565b503461039e57604036600319011261039e5760ff60406020926145fe614b35565b6004358252600285528282206001600160a01b03909116825284522054604051911615158152f35b503461039e578060031936011261039e576020601054604051908152f35b503461039e578060031936011261039e57602060405160968152f35b503461039e5761466f36614c1a565b9190815260176020526040812090815483101561039e5760206117618484614c02565b503461039e57602036600319011261039e576004359060095482101561039e57602061176183614b80565b503461039e57602036600319011261039e5760209060ff906040906001600160a01b036146e8614b1f565b168152600a84522054166040519015158152f35b503461039e57604036600319011261039e5760ff604060209261471d614b35565b6004358252600385528282206001600160a01b03909116825284522054604051911615158152f35b503461039e57614788602061475936614b4b565b600c5460405163256ba74160e01b81529586946001600160a01b03909216938593849390919060048501615544565b03915afa9081156106225782916147a5575b602082604051908152f35b90506020813d82116147d2575b816147bf60209383614e16565b8101031261062d5760209150513861479a565b3d91506147b2565b503461039e578060031936011261039e576020601154604051908152f35b503461039e57602036600319011261039e57600435808252600160205260408220600c81019081549060ff82166005811015610789579061483b600a92156152a4565b0154421061486d5760ff191660011790558082526015602052604082205460ff16614864575080f35b61159e90616374565b60405162461bcd60e51b815260206004820152602a60248201527f4d61726b65744d616e616765723a205265736f6c7574696f6e2074696d65206e6044820152691bdd081c995858da195960b21b6064820152608490fd5b503461039e57602036600319011261039e5760ff60406020926004358152601584522054166040519015158152f35b503461039e57602036600319011261039e5760406020916004358152600583522054604051908152f35b503461039e5760208060031936011261062d576004359061493d614f8a565b61494a600f5483106162d1565b8183526001808252604084205461496b906001600160a01b0316151561631c565b82845280825260ff600c604086200154166005811015610b6757600261499191146158e7565b828452808252600b60408520015462278d008101809111614449574210614acc5782845280825283600e604082208281556149cd848201616288565b82600282015582600382015582600482015582600582015582600682015582600782015582600882015582600982015582600a82015582600b82015582600c82015582600d82015501558284526015825260ff604085205416614abe575b601a5490600160401b82101561354d57810180601a55811015614aaa576000805160206164bb8339815191529183608092601a875282872001556026604051918083528201527f5065726d616e656e746c792072656d6f76656420616674657220636c61696d206040820152651c195c9a5bd960d21b6060820152a280f35b634e487b7160e01b84526032600452602484fd5b614ac783616374565b614a2b565b60405162461bcd60e51b815260048101839052602560248201527f4d61726b65744d616e616765723a20436c61696d20706572696f64206e6f7420604482015264195b99195960da1b6064820152608490fd5b600435906001600160a01b03821682036110c857565b602435906001600160a01b03821682036110c857565b60609060031901126110c857600435906001600160a01b039060243582811681036110c8579160443590811681036110c85790565b600954811015614b9b57600960005260206000200190600090565b634e487b7160e01b600052603260045260246000fd5b601454811015614b9b57601460005260206000200190600090565b601854811015614b9b57601860005260206000200190600090565b600b54811015614b9b57600b60005260206000200190600090565b8054821015614b9b5760005260206000200190600090565b60409060031901126110c8576004359060243590565b6020908160408183019282815285518094520193019160005b828110614c57575050505090565b835185529381019392810192600101614c49565b90815180825260208080930193019160005b828110614c8b575050505090565b83516001600160a01b031685529381019392810192600101614c7d565b919082519283825260005b848110614cd4575050826000602080949584010152601f8019910116010190565b602081830181015184830182015201614cb3565b906005821015614cf55752565b634e487b7160e01b600052602160045260246000fd5b9060018060a01b0391828151168252614d3360208201516101e0806020860152840190614ca8565b9260408201511515604084015260608201516060840152608082015116608083015260a081015160a083015260c081015160c083015260e081015160e08301526101008082015190830152610120808201519083015261014080820151908301526101608082015190830152614db26101808083015190840190614ce8565b6101a080820151908301526101c080910151151591015290565b6001600160401b0381116115a157604052565b6101e081019081106001600160401b038211176115a157604052565b604081019081106001600160401b038211176115a157604052565b601f909101601f19168101906001600160401b038211908210176115a157604052565b6001600160401b0381116115a157601f01601f191660200190565b81601f820112156110c857803590614e6b82614e39565b92614e796040519485614e16565b828452602083830101116110c857816000926020809301838601378301015290565b6024359081151582036110c857565b90600182811c92168015614eda575b6020831014614ec457565b634e487b7160e01b600052602260045260246000fd5b91607f1691614eb9565b9060405191826000825492614ef884614eaa565b908184526001948581169081600014614f675750600114614f24575b5050614f2292500383614e16565b565b9093915060005260209081600020936000915b818310614f4f575050614f2293508201013880614f14565b85548884018501529485019487945091830191614f37565b915050614f2294506020925060ff191682840152151560051b8201013880614f14565b6000546001600160a01b03163303614f9e57565b60405163118cdaa760e01b8152336004820152602490fd5b15614fbd57565b60405162461bcd60e51b815260206004820152602160248201527f4d61726b65744d616e616765723a2057616c6c657420626c61636b6c697374656044820152601960fa1b6064820152608490fd5b1561501357565b60405162461bcd60e51b815260206004820152602260248201526000805160206164fb833981519152604482015261195960f21b6064820152608490fd5b8181029291811591840414171561506457565b634e487b7160e01b600052601160045260246000fd5b9190820180921161506457565b60001981146150645760010190565b6005821015614cf55752565b8181106150ad575050565b600081556001016150a2565b9060ff801983541691151516179055565b80549190600160401b8310156115a157826130c1916001614f2295018155614c02565b3d15615118573d906150fe82614e39565b9161510c6040519384614e16565b82523d6000602084013e565b606090565b1561512457565b60405162461bcd60e51b815260206004820152602b60248201527f4d61726b65744d616e616765723a20466565207472616e7366657220746f206f60448201526a1ddb995c8819985a5b195960aa1b6064820152608490fd5b9081526001600160a01b039182166020820152911660408201526060810191909152608081019190915260a00190565b9081526001600160a01b03909116602082015260400190565b909493926060926080830196835260018060a01b0316602083015260408201520152565b6001600160a01b03918216815291166020820152604081019190915260600190565b9290600091615245602094615237604051938492888401966323b872dd60e01b8852602485016151ea565b03601f198101835282614e16565b519082855af115615298576000513d61528f57506001600160a01b0381163b155b61526d5750565b604051635274afe760e01b81526001600160a01b039091166004820152602490fd5b60011415615266565b6040513d6000823e3d90fd5b156152ab57565b606460405162461bcd60e51b815260206004820152602060248201527f4d61726b65744d616e616765723a204d61726b6574206e6f74206163746976656044820152fd5b9190820391821161506457565b1561530357565b60405162461bcd60e51b815260206004820152604d60248201527f4d61726b65744d616e616765723a205374616b696e6720706572696f6420656e60448201527f646564202d206e6f207374616b657320616c6c6f77656420696e20726573747260648201526c1a58dd1a5bdb881c195c9a5bd9609a1b608482015260a490fd5b1561538b57565b60405162461bcd60e51b815260206004820152601d60248201527f4d61726b65744d616e616765723a20496e76616c6964206f7074696f6e0000006044820152606490fd5b156153d757565b60405162461bcd60e51b8152602060048201526022602482015260008051602061651b8339815191526044820152616b6560f01b6064820152608490fd5b80549190600160401b8310156115a1578261157f916001614f2295018155614c02565b1561543f57565b60405162461bcd60e51b815260206004820152603460248201527f4d61726b65744d616e616765723a20537570706f727420616d6f756e74206d75604482015273073742062652067726561746572207468616e20360641b6064820152608490fd5b9081526001600160a01b03918216602082015291166040820152606081019190915260800190565b9081526001600160a01b039091166020820152604081019190915260600190565b156154f157565b60405162461bcd60e51b815260206004820152602560248201527f4d61726b65744d616e616765723a204e6f20737570706f727420746f20776974604482015264686472617760d81b6064820152608490fd5b9081526001600160a01b0391821660208201529116604082015260600190565b1561556b57565b60405162461bcd60e51b815260206004820152602860248201527f4d61726b65744d616e616765723a204d61726b6574206e6f7420696e20656e64604482015267656420737461746560c01b6064820152608490fd5b156155c857565b60405162461bcd60e51b815260206004820152601f60248201527f4d61726b65744d616e616765723a20416c7265616479207265736f6c766564006044820152606490fd5b6040519061561a82614dfb565b601982527814995cdbdb1d5d1a5bdb881c195c9a5bd908195e1c1a5c9959603a1b6020830152565b519081151582036110c857565b91908260409103126110c857602061566683615642565b92015190565b9060008281526001602052604090818120600c810160ff8154166005811015611b1357600161569b9114615564565b841515806158d9575b1561588757600e82016156bb60ff825416156155c1565b600b83015442101561587557600d548551633313865560e21b8152600481018990526001600160a01b03949187908290602490829089165afa801561586b57889087928891615848575b508261583e575b5050156157d757600d01869055805460ff1990811660011790915581541660021790556157398486615ad6565b61574285615cbe565b600e541680615768575b505060008051602061657b8339815191529160209151908152a2565b803b1561062d57818091604485518095819362ff4a7360e81b83528a60048401528960248401525af19081156157cc57509160008051602061657b83398151915293916020936157bd575b509181935061574c565b6157c690614dcc565b386157b3565b8351903d90823e3d90fd5b855162461bcd60e51b815260206004820152603a60248201527f4d61726b65744d616e616765723a20496e73756666696369656e7420766572696044820152793334b2b9103b37ba32b9903337b9103a3434b99037b83a34b7b760311b6064820152608490fd5b149050873861570c565b9050615862919250883d8a11611f1657611f068183614e16565b91909138615705565b87513d88823e3d90fd5b505050505050614f22906122f161560d565b835162461bcd60e51b815260206004820152602560248201527f4d61726b65744d616e616765723a20496e76616c69642077696e6e696e67206f604482015264383a34b7b760d91b6064820152608490fd5b5060038201548511156156a4565b156158ee57565b60405162461bcd60e51b815260206004820152602260248201527f4d61726b65744d616e616765723a204d61726b6574206e6f74207265736f6c76604482015261195960f21b6064820152608490fd5b1561594557565b606460405162461bcd60e51b815260206004820152602060248201527f4d61726b65744d616e616765723a204e6f2077696e6e696e67206f7074696f6e6044820152fd5b1561599057565b60405162461bcd60e51b815260206004820152601e60248201527f4d61726b65744d616e616765723a204e6f207374616b6520706c6163656400006044820152606490fd5b156159dc57565b60405162461bcd60e51b815260206004820152601e60248201527f4d61726b65744d616e616765723a20416c726561647920636c61696d656400006044820152606490fd5b90815260208101919091526001600160a01b03909116604082015260600190565b8115615a4c570490565b634e487b7160e01b600052601260045260246000fd5b90615aa66000805160206164bb83398151915291836000526001602052600c604060002001600360ff19825416179055604051918291602083526020830190614ca8565b0390a2565b6001600160401b0381116115a15760051b60200190565b8051821015614b9b5760209160051b010190565b600d80546040805163549af3b360e11b81526000969590936001600160a01b03936004929190899087908590829089165afa958615615c99578996615bf3575b50885b8651811015615be757615b589088858885541689615b37858d615ac2565b511690895180809781946321dc9b5960e21b83528b60209889988501615a21565b03915afa8015615bdd578c90615ba3575b615b789350615b7d5750615087565b615b19565b6017908a8d5252615b9d868c2088615b95848c615ac2565b511690615415565b386118d1565b508083813d8311615bd6575b615bb98183614e16565b81010312615bd257615bcd615b7893615642565b615b69565b8b80fd5b503d615baf565b87513d8e823e3d90fd5b50505050505050509050565b9095503d808a833e615c058183614e16565b8101906020908181840312615c95578051906001600160401b038211615bd257019180601f84011215615c95578251615c3d81615aab565b93615c4a88519586614e16565b818552838086019260051b820101928311615c91578301905b828210615c7557505050509438615b16565b81518981168103615c8d578152908301908301615c63565b8d80fd5b8c80fd5b8a80fd5b84513d8b823e3d90fd5b6001600160a01b039091168152602081019190915260400190565b600090808252602090600182526040918284209084906001926003810154600d820154945b818111156161e457505060018060a01b03938492600c968488541691615d2a8a60049883858b808b019d8e5416958695519586938493634f44289d60e01b855284016151ad565b0381895afa918215616154578d9493928f928c928894926161a7575b5084615d5887959493615d709361507a565b975163dc4ce34960e01b81529a8b9485948501615a21565b0381885afa95861561619d578c8a918f98616160575b50858392615da68693519485938493633d1e7ba160e11b855284016151ad565b0381895afa928315616154578e93616124575b505061015e9485830293831596848604148717156161115761271080950494609685028581046096148917156160fc57819004976101f490818702918783041417156160fc570497615f8f57505050615e2590615e1f86615e1a878661507a565b61507a565b906152ef565b9481615f22575b505081615ebb575b505090615e409161507a565b9384615e50575b50505050505050565b8190541692541690823b156109ca5791849391868094615e8397519788958694859363f0824f3360e01b85528401615ca3565b03925af1908115615eb25750615e9e575b8080808080615e47565b615ea88291614dcc565b61039e5780615e94565b513d84823e3d90fd5b848854168588541691813b15615bd257908b92918389615eee8e5197889687958694633afb1f3f60e11b865285016154c9565b03925af18015615f185790899115615e3457615f0990614dcc565b615f14578738615e34565b8780fd5b88513d8b823e3d90fd5b86808b541691541690878a541691813b15615c8d57908d9291838b8f615f5b90519788968795869463112cd22360e01b865285016151ea565b03925af18015615f8557908b9115615e2c57615f7690614dcc565b615f81578938615e2c565b8980fd5b8a513d8d823e3d90fd5b9092509a9690929394959a615fae575b50505050505050505050505050565b87908461609b575b505050505081616036575b505084615fd4575b808080808080615f9f565b8190541692541690823b156109ca57918493918680946160079751978895869485936348fef59560e01b85528401615ca3565b03925af1908115615eb25750616022575b8080808080615fc9565b61602c8291614dcc565b61039e5780616018565b83835416908487541690823b15615c95579161606b93918b80948c5196879586948593633afb1f3f60e11b85528d85016154c9565b03925af180156160915790889115615fc15761608690614dcc565b612cf3578638615fc1565b87513d8a823e3d90fd5b5416813b15615c9157908c9291838a6160c78f519788968795869463112cd22360e01b865285016151ea565b03925af180156160f2576160df575b80808681615fb6565b6160eb90999199614dcc565b97386160d6565b89513d8c823e3d90fd5b5050634e487b7160e01b8f5260118b5260248ffd5b634e487b7160e01b8f5260118b5260248ffd5b9080929350813d831161614d575b61613c8183614e16565b81010312615c915751903880615db9565b503d616132565b8e8e51903d90823e3d90fd5b92938095969798508092508391503d8311616196575b6161808183614e16565b81010312615c9157519493929190888c85615d86565b503d616176565b8c513d8f823e3d90fd5b935093948096508092508391503d83116161dd575b6161c68183614e16565b81010312615c8d57518c93929185918b9184615d46565b503d6161bc565b8581036161fa575b6161f590615087565b615ce3565b9387848660018060a01b038a81600c541691616231600491828b01541696519687958694859463dc4ce34960e01b86528501615a21565b03915afa9081156160f2578a91616259575b50616251906161f59261507a565b9490506161ec565b90508481813d8311616281575b6162708183614e16565b81010312615f8157516161f5616243565b503d616266565b6162928154614eaa565b908161629c575050565b81601f600093116001146162ae575055565b9080839182526162cd601f60208420940160051c8401600185016150a2565b5555565b156162d857565b606460405162461bcd60e51b815260206004820152602060248201527f4d61726b65744d616e616765723a20496e76616c6964206d61726b65742049446044820152fd5b1561632357565b60405162461bcd60e51b8152602060048201526024808201527f4d61726b65744d616e616765723a204d61726b657420646f6573206e6f7420656044820152631e1a5cdd60e21b6064820152608490fd5b60005b6014908154918282101561641257839261639083614bb1565b949054600395861b1c146163af5750506163aa9150615087565b616377565b90916000199180830191908211615064576130c16163cf6163db93614bb1565b905490871b1c91614bb1565b81548015611667578101926163ef84614bb1565b81939154921b1b19169055556000526015602052604060002060ff198154169055565b50505050565b6040519061642582614ddf565b816101c0600091828152606060208201528260408201528260608201528260808201528260a08201528260c08201528260e08201528261010082015282610120820152826101408201528261016082015282610180820152826101a08201520152565b9061649282615aab565b61649f6040519182614e16565b82815280926164b0601f1991615aab565b019060203691013756fe4c4561c5b0048424071c1115e9f1e325486e21c21333d968f21097b7b72d12ad4d61726b65744d616e616765723a2054686973206d61726b65742075736573204d61726b65744d616e616765723a20546f6b656e206e6f7420737570706f72744d61726b65744d616e616765723a2042656c6f77206d696e696d756d20737461057c384a7d1c54f3a1b2e5e67b2617b8224fdfd1ea7234eea573a6ff665ff63e8be0079c531659141344cd1fd0a4f28419497f9722a3daafe3b4186f6b6457e06dfc24f0f2fb42e49fb4fa3ffa8abb148cab908a1fb8335b3f128a08b2594af14d61726b65744d616e616765723a20496e73756666696369656e742050455055e10fdde2c5cd9b92e449ee25df01febda2cbebc5553e38f2250ffe7f2d5143bca26469706673582212200ffc7333c3f75e85ced4766b81e7a332cad7580f96d92069b58b5634e84328ae64736f6c63430008140033","opcodes":"PUSH1 0x80 CALLVALUE PUSH3 0x234 JUMPI PUSH1 0x1F PUSH3 0x6875 CODESIZE DUP2 SWAP1 SUB SWAP2 DUP3 ADD PUSH1 0x1F NOT AND DUP4 ADD SWAP2 SWAP1 PUSH1 0x1 PUSH1 0x1 PUSH1 0x40 SHL SUB DUP4 GT DUP5 DUP5 LT OR PUSH3 0x239 JUMPI DUP2 PUSH1 0xA0 SWAP3 DUP6 SWAP3 PUSH1 0x40 SWAP6 DUP7 MSTORE DUP4 CODECOPY DUP2 ADD SUB SLT PUSH3 0x234 JUMPI PUSH3 0x50 DUP3 PUSH3 0x24F JUMP JUMPDEST PUSH1 0x20 DUP4 DUP2 ADD MLOAD SWAP2 SWAP3 SWAP2 PUSH1 0x1 PUSH1 0x1 PUSH1 0xA0 SHL SUB SWAP1 DUP2 DUP2 AND SWAP1 DUP2 SWAP1 SUB PUSH3 0x234 JUMPI PUSH3 0x7B DUP5 DUP8 ADD PUSH3 0x24F JUMP JUMPDEST SWAP4 DUP3 PUSH1 0x80 PUSH3 0x8D PUSH1 0x60 DUP11 ADD PUSH3 0x24F JUMP JUMPDEST SWAP9 ADD MLOAD SWAP7 AND SWAP6 DUP7 ISZERO PUSH3 0x21C JUMPI PUSH1 0x0 DUP1 SLOAD PUSH1 0x1 PUSH1 0x1 PUSH1 0xA0 SHL SUB NOT DUP1 DUP3 AND DUP11 OR DUP4 SSTORE DUP5 MLOAD SWAP11 SWAP1 SWAP10 SWAP3 SWAP7 SWAP3 SWAP1 SWAP2 DUP4 AND PUSH32 0x8BE0079C531659141344CD1FD0A4F28419497F9722A3DAAFE3B4186F6B6457E0 DUP9 DUP1 LOG3 DUP2 PUSH1 0x1 SWAP9 DUP10 PUSH1 0xF SSTORE PUSH1 0x5 PUSH1 0x11 SSTORE PUSH1 0xFF NOT SWAP7 DUP8 PUSH1 0x12 SLOAD AND PUSH1 0x12 SSTORE PUSH1 0x5 PUSH1 0x13 SSTORE DUP12 PUSH1 0xC SLOAD AND OR PUSH1 0xC SSTORE AND DUP10 PUSH1 0xD SLOAD AND OR PUSH1 0xD SSTORE AND DUP8 PUSH1 0xE SLOAD AND OR PUSH1 0xE SSTORE PUSH1 0x10 SSTORE DUP3 DUP1 MSTORE PUSH1 0x8 DUP5 MSTORE DUP1 DUP4 KECCAK256 DUP1 SLOAD DUP7 DUP2 DUP2 SHR SWAP2 AND DUP1 ISZERO PUSH3 0x211 JUMPI JUMPDEST DUP7 DUP3 LT EQ PUSH3 0x1FD JUMPI SWAP1 DUP2 PUSH1 0x1F DUP9 SWAP5 SWAP4 GT PUSH3 0x1D1 JUMPI JUMPDEST POP PUSH1 0x8 PUSH4 0x50455055 PUSH1 0xE0 SHL ADD SWAP1 SSTORE DUP4 DUP1 MSTORE PUSH1 0x7 DUP6 MSTORE DUP4 KECCAK256 DUP1 SLOAD SWAP1 SWAP3 AND OR SWAP1 SSTORE PUSH1 0x9 SLOAD SWAP3 PUSH9 0x10000000000000000 DUP5 LT ISZERO PUSH3 0x1BD JUMPI DUP4 ADD DUP1 PUSH1 0x9 SSTORE DUP4 LT ISZERO PUSH3 0x1A9 JUMPI PUSH1 0x9 DUP2 MSTORE KECCAK256 ADD SWAP1 DUP2 SLOAD AND SWAP1 SSTORE PUSH2 0x6610 SWAP1 DUP2 PUSH3 0x265 DUP3 CODECOPY RETURN JUMPDEST PUSH4 0x4E487B71 PUSH1 0xE0 SHL DUP2 MSTORE PUSH1 0x32 PUSH1 0x4 MSTORE PUSH1 0x24 SWAP1 REVERT JUMPDEST PUSH4 0x4E487B71 PUSH1 0xE0 SHL DUP3 MSTORE PUSH1 0x41 PUSH1 0x4 MSTORE PUSH1 0x24 DUP3 REVERT JUMPDEST DUP2 DUP7 MSTORE PUSH1 0x1F DUP8 DUP8 KECCAK256 SWAP2 ADD PUSH1 0x5 SHR DUP2 ADD SWAP1 JUMPDEST DUP2 DUP2 LT PUSH3 0x1F1 JUMPI POP PUSH3 0x14D JUMP JUMPDEST DUP7 DUP2 SSTORE DUP9 SWAP5 ADD PUSH3 0x1E2 JUMP JUMPDEST PUSH4 0x4E487B71 PUSH1 0xE0 SHL DUP6 MSTORE PUSH1 0x22 PUSH1 0x4 MSTORE PUSH1 0x24 DUP6 REVERT JUMPDEST SWAP1 PUSH1 0x7F AND SWAP1 PUSH3 0x136 JUMP JUMPDEST DUP2 MLOAD PUSH4 0x1E4FBDF7 PUSH1 0xE0 SHL DUP2 MSTORE PUSH1 0x0 PUSH1 0x4 DUP3 ADD MSTORE PUSH1 0x24 SWAP1 REVERT JUMPDEST PUSH1 0x0 DUP1 REVERT JUMPDEST PUSH4 0x4E487B71 PUSH1 0xE0 SHL PUSH1 0x0 MSTORE PUSH1 0x41 PUSH1 0x4 MSTORE PUSH1 0x24 PUSH1 0x0 REVERT JUMPDEST MLOAD SWAP1 PUSH1 0x1 PUSH1 0x1 PUSH1 0xA0 SHL SUB DUP3 AND DUP3 SUB PUSH3 0x234 JUMPI JUMP INVALID PUSH1 0x80 PUSH1 0x40 MSTORE PUSH1 0x4 CALLDATASIZE LT ISZERO PUSH2 0x1B JUMPI JUMPDEST CALLDATASIZE ISZERO PUSH2 0x19 JUMPI PUSH1 0x0 DUP1 REVERT JUMPDEST STOP JUMPDEST PUSH1 0x0 DUP1 CALLDATALOAD PUSH1 0xE0 SHR DUP1 PUSH4 0x7ADC191 EQ PUSH2 0x491E JUMPI DUP1 PUSH4 0xCCF4467 EQ PUSH2 0x48F4 JUMPI DUP1 PUSH4 0xD64CDBD EQ PUSH2 0x48C5 JUMPI DUP1 PUSH4 0x1356AF02 EQ PUSH2 0x46BD JUMPI DUP1 PUSH4 0x157BDCCE EQ PUSH2 0x47F8 JUMPI DUP1 PUSH4 0x17916E01 EQ PUSH2 0x47DA JUMPI DUP1 PUSH4 0x256BA741 EQ PUSH2 0x4745 JUMPI DUP1 PUSH4 0x287F57B5 EQ PUSH2 0x46FC JUMPI DUP1 PUSH4 0x2B5BA3B9 EQ PUSH2 0x46BD JUMPI DUP1 PUSH4 0x2B60C822 EQ PUSH2 0x4692 JUMPI DUP1 PUSH4 0x2BDBB884 EQ PUSH2 0x4660 JUMPI DUP1 PUSH4 0x2EE4018F EQ PUSH2 0x4644 JUMPI DUP1 PUSH4 0x2EF1BDFA EQ PUSH2 0x4626 JUMPI DUP1 PUSH4 0x304BF1F1 EQ PUSH2 0x45DD JUMPI DUP1 PUSH4 0x33D6B46E EQ PUSH2 0x456A JUMPI DUP1 PUSH4 0x3ADFE6D0 EQ PUSH2 0x453F JUMPI DUP1 PUSH4 0x3BBAB179 EQ PUSH2 0x44DD JUMPI DUP1 PUSH4 0x3E32A76C EQ PUSH2 0x4275 JUMPI DUP1 PUSH4 0x3EC79193 EQ PUSH2 0x3F66 JUMPI DUP1 PUSH4 0x406EF2EF EQ PUSH2 0x3F48 JUMPI DUP1 PUSH4 0x45843695 EQ PUSH2 0x3ECA JUMPI DUP1 PUSH4 0x4F44289D EQ PUSH2 0x3E81 JUMPI DUP1 PUSH4 0x4FFE2A8B EQ PUSH2 0x3E58 JUMPI DUP1 PUSH4 0x51049969 EQ PUSH2 0x3CF2 JUMPI DUP1 PUSH4 0x539AA77F EQ PUSH2 0x3CD5 JUMPI DUP1 PUSH4 0x5B7BAF64 EQ PUSH2 0x3946 JUMPI DUP1 PUSH4 0x5DA3247A EQ PUSH2 0x3928 JUMPI DUP1 PUSH4 0x60557333 EQ PUSH2 0x3910 JUMPI DUP1 PUSH4 0x61D027B3 EQ PUSH2 0x38E7 JUMPI DUP1 PUSH4 0x638B022C EQ PUSH2 0x2D74 JUMPI DUP1 PUSH4 0x65EBCE55 EQ PUSH2 0x2CFE JUMPI DUP1 PUSH4 0x677BD9FF EQ PUSH2 0x28F5 JUMPI DUP1 PUSH4 0x68C4AC26 EQ PUSH2 0x28B6 JUMPI DUP1 PUSH4 0x6D822220 EQ PUSH2 0x2852 JUMPI DUP1 PUSH4 0x6F59359E EQ PUSH2 0x27E4 JUMPI DUP1 PUSH4 0x715018A6 EQ PUSH2 0x279C JUMPI DUP1 PUSH4 0x720138E8 EQ PUSH2 0x24DC JUMPI DUP1 PUSH4 0x74C350EB EQ PUSH2 0x2497 JUMPI DUP1 PUSH4 0x76319190 EQ PUSH2 0x234F JUMPI DUP1 PUSH4 0x7C16CD9E EQ PUSH2 0x228B JUMPI DUP1 PUSH4 0x80D5AC8A EQ PUSH2 0x2262 JUMPI DUP1 PUSH4 0x81B17D29 EQ PUSH2 0x2222 JUMPI DUP1 PUSH4 0x847CF782 EQ PUSH2 0x21DE JUMPI DUP1 PUSH4 0x881DF9E1 EQ PUSH2 0x21B3 JUMPI DUP1 PUSH4 0x88D3CC48 EQ PUSH2 0x2190 JUMPI DUP1 PUSH4 0x8DA5CB5B EQ PUSH2 0x2169 JUMPI DUP1 PUSH4 0x902315EC EQ PUSH2 0x20E7 JUMPI DUP1 PUSH4 0x971F8BB1 EQ PUSH2 0x20A2 JUMPI DUP1 PUSH4 0x98A17671 EQ PUSH2 0x204C JUMPI DUP1 PUSH4 0x9F37022A EQ PUSH2 0x2029 JUMPI DUP1 PUSH4 0xA30A0914 EQ PUSH2 0x1FFF JUMPI DUP1 PUSH4 0xA5E973C3 EQ PUSH2 0x1F7D JUMPI DUP1 PUSH4 0xA7A8C359 EQ PUSH2 0x1F52 JUMPI DUP1 PUSH4 0xAD8E42FF EQ PUSH2 0x1F28 JUMPI DUP1 PUSH4 0xB1138B50 EQ PUSH2 0x1D59 JUMPI DUP1 PUSH4 0xB1283E77 EQ PUSH2 0x1C55 JUMPI DUP1 PUSH4 0xB85ED636 EQ PUSH2 0x1BCB JUMPI DUP1 PUSH4 0xBAA9C4AC EQ PUSH2 0x1BAD JUMPI DUP1 PUSH4 0xC22C62C3 EQ PUSH2 0x1B7B JUMPI DUP1 PUSH4 0xC3436E0C EQ PUSH2 0x1A17 JUMPI DUP1 PUSH4 0xC8A843B7 EQ PUSH2 0x190C JUMPI DUP1 PUSH4 0xCC3CBD2A EQ PUSH2 0x18EF JUMPI DUP1 PUSH4 0xD3C7C2C7 EQ PUSH2 0x177A JUMPI DUP1 PUSH4 0xD5F82707 EQ PUSH2 0x172F JUMPI DUP1 PUSH4 0xD8C5DD67 EQ PUSH2 0x16E8 JUMPI DUP1 PUSH4 0xDB62C6DE EQ PUSH2 0x14F3 JUMPI DUP1 PUSH4 0xDC4CE349 EQ PUSH2 0x14A0 JUMPI DUP1 PUSH4 0xE78D0117 EQ PUSH2 0x13F9 JUMPI DUP1 PUSH4 0xEB44FDD3 EQ PUSH2 0x12F1 JUMPI DUP1 PUSH4 0xF00FE321 EQ PUSH2 0x124E JUMPI DUP1 PUSH4 0xF15CC406 EQ PUSH2 0xE33 JUMPI DUP1 PUSH4 0xF1B7DDE3 EQ PUSH2 0xB7B JUMPI DUP1 PUSH4 0xF204072F EQ PUSH2 0x813 JUMPI DUP1 PUSH4 0xF2FDE38B EQ PUSH2 0x79D JUMPI DUP1 PUSH4 0xF4867591 EQ PUSH2 0x467 JUMPI DUP1 PUSH4 0xF849F69E EQ PUSH2 0x3F4 JUMPI DUP1 PUSH4 0xFB0B2B36 EQ PUSH2 0x3A1 JUMPI PUSH4 0xFE53A6E8 EQ PUSH2 0x381 JUMPI POP PUSH2 0xE JUMP JUMPDEST CALLVALUE PUSH2 0x39E JUMPI DUP1 PUSH1 0x3 NOT CALLDATASIZE ADD SLT PUSH2 0x39E JUMPI PUSH1 0x20 PUSH1 0xF SLOAD PUSH1 0x40 MLOAD SWAP1 DUP2 MSTORE RETURN JUMPDEST DUP1 REVERT JUMPDEST POP CALLVALUE PUSH2 0x39E JUMPI PUSH1 0x20 CALLDATASIZE PUSH1 0x3 NOT ADD SLT PUSH2 0x39E JUMPI PUSH2 0x3F0 SWAP1 PUSH2 0x3DC SWAP1 PUSH1 0x40 SWAP1 PUSH1 0x1 PUSH1 0x1 PUSH1 0xA0 SHL SUB PUSH2 0x3CE PUSH2 0x4B1F JUMP JUMPDEST AND DUP2 MSTORE PUSH1 0x8 PUSH1 0x20 MSTORE KECCAK256 PUSH2 0x4EE4 JUMP JUMPDEST PUSH1 0x40 MLOAD SWAP2 DUP3 SWAP2 PUSH1 0x20 DUP4 MSTORE PUSH1 0x20 DUP4 ADD SWAP1 PUSH2 0x4CA8 JUMP JUMPDEST SUB SWAP1 RETURN JUMPDEST POP CALLVALUE PUSH2 0x39E JUMPI PUSH1 0x20 CALLDATASIZE PUSH1 0x3 NOT ADD SLT PUSH2 0x39E JUMPI PUSH1 0x4 CALLDATALOAD DUP2 MSTORE PUSH1 0x15 PUSH1 0x20 MSTORE PUSH1 0xFF PUSH1 0x40 DUP3 KECCAK256 SLOAD AND DUP1 PUSH2 0x42B JUMPI JUMPDEST PUSH1 0x20 SWAP1 PUSH1 0x40 MLOAD SWAP1 ISZERO ISZERO DUP2 MSTORE RETURN JUMPDEST POP PUSH1 0x1 PUSH1 0x20 MSTORE PUSH1 0xFF PUSH1 0xC PUSH1 0x40 DUP4 KECCAK256 ADD SLOAD AND SWAP1 PUSH1 0x5 DUP3 LT ISZERO PUSH2 0x453 JUMPI POP PUSH1 0x4 PUSH1 0x20 SWAP2 EQ ISZERO PUSH2 0x41E JUMP JUMPDEST PUSH4 0x4E487B71 PUSH1 0xE0 SHL DUP2 MSTORE PUSH1 0x21 PUSH1 0x4 MSTORE PUSH1 0x24 SWAP1 REVERT JUMPDEST POP PUSH2 0x471 CALLDATASIZE PUSH2 0x4C1A JUMP JUMPDEST SWAP1 DUP1 DUP4 MSTORE PUSH1 0x20 PUSH1 0x1 DUP2 MSTORE PUSH1 0x40 DUP5 KECCAK256 PUSH1 0xFF PUSH1 0xC DUP3 ADD SLOAD AND PUSH1 0x5 DUP2 LT ISZERO PUSH2 0x789 JUMPI PUSH2 0x49A SWAP1 ISZERO PUSH2 0x52A4 JUMP JUMPDEST PUSH1 0xFF PUSH1 0x12 SLOAD AND PUSH2 0x740 JUMPI JUMPDEST DUP4 ISZERO ISZERO DUP1 PUSH2 0x732 JUMPI JUMPDEST PUSH2 0x4B7 SWAP1 PUSH2 0x5384 JUMP JUMPDEST PUSH1 0x4 DUP2 ADD DUP1 SLOAD PUSH1 0x1 PUSH1 0x1 PUSH1 0xA0 SHL SUB SWAP3 SWAP1 DUP4 AND PUSH2 0x6D9 JUMPI PUSH1 0x5 PUSH2 0x4DD SWAP2 ADD SLOAD CALLVALUE LT ISZERO PUSH2 0x53D0 JUMP JUMPDEST DUP6 DUP1 DUP1 DUP1 CALLVALUE DUP7 PUSH1 0xC SLOAD AND GAS CALL PUSH2 0x4F1 PUSH2 0x50ED JUMP JUMPDEST POP ISZERO PUSH2 0x67D JUMPI SWAP1 DUP6 SWAP2 DUP5 DUP4 MSTORE PUSH1 0x2 DUP5 MSTORE PUSH1 0x40 DUP4 KECCAK256 CALLER PUSH1 0x0 MSTORE DUP5 MSTORE PUSH1 0xFF PUSH1 0x40 PUSH1 0x0 KECCAK256 SLOAD AND ISZERO PUSH2 0x650 JUMPI JUMPDEST DUP5 DUP4 MSTORE PUSH1 0x2 DUP5 MSTORE PUSH1 0x40 DUP4 KECCAK256 CALLER PUSH1 0x0 MSTORE DUP5 MSTORE PUSH1 0x40 PUSH1 0x0 KECCAK256 PUSH1 0x1 PUSH1 0xFF NOT DUP3 SLOAD AND OR SWAP1 SSTORE DUP5 DUP4 MSTORE PUSH1 0x4 DUP5 MSTORE PUSH1 0x40 DUP4 KECCAK256 CALLER PUSH1 0x0 MSTORE DUP5 MSTORE DUP6 PUSH1 0x40 PUSH1 0x0 KECCAK256 SSTORE DUP2 DUP1 PUSH1 0xC SLOAD AND SWAP2 SLOAD AND SWAP1 DUP1 EXTCODESIZE ISZERO PUSH2 0x61E JUMPI PUSH1 0x40 MLOAD PUSH4 0x95F41095 PUSH1 0xE0 SHL DUP2 MSTORE SWAP2 DUP5 SWAP2 DUP4 SWAP2 DUP3 SWAP1 DUP5 SWAP1 DUP3 SWAP1 PUSH2 0x58F SWAP1 DUP14 SWAP1 CALLVALUE SWAP1 CALLER DUP16 PUSH1 0x4 DUP8 ADD PUSH2 0x517D JUMP JUMPDEST SUB SWAP3 GAS CALL SWAP1 DUP2 ISZERO PUSH2 0x645 JUMPI DUP4 SWAP2 PUSH2 0x631 JUMPI JUMPDEST POP POP PUSH1 0xE SLOAD AND DUP1 PUSH2 0x5D1 JUMPI JUMPDEST POP POP PUSH1 0x40 MLOAD SWAP3 DUP4 MSTORE CALLVALUE SWAP1 DUP4 ADD MSTORE PUSH1 0x0 DUP1 MLOAD PUSH1 0x20 PUSH2 0x65BB DUP4 CODECOPY DUP2 MLOAD SWAP2 MSTORE PUSH1 0x40 CALLER SWAP4 LOG3 DUP1 RETURN JUMPDEST DUP1 EXTCODESIZE ISZERO PUSH2 0x62D JUMPI DUP2 PUSH1 0x40 MLOAD DUP1 SWAP3 PUSH4 0xC228038D PUSH1 0xE0 SHL DUP3 MSTORE DUP2 DUP4 DUP2 PUSH2 0x5FB CALLVALUE DUP13 CALLER DUP14 PUSH1 0x4 DUP7 ADD PUSH2 0x51C6 JUMP JUMPDEST SUB SWAP3 GAS CALL DUP1 ISZERO PUSH2 0x622 JUMPI ISZERO PUSH2 0x5AD JUMPI PUSH2 0x613 SWAP1 PUSH2 0x4DCC JUMP JUMPDEST PUSH2 0x61E JUMPI DUP4 CODESIZE PUSH2 0x5AD JUMP JUMPDEST DUP4 DUP1 REVERT JUMPDEST PUSH1 0x40 MLOAD RETURNDATASIZE DUP5 DUP3 RETURNDATACOPY RETURNDATASIZE SWAP1 REVERT JUMPDEST POP DUP1 REVERT JUMPDEST PUSH2 0x63A SWAP1 PUSH2 0x4DCC JUMP JUMPDEST PUSH2 0x62D JUMPI DUP2 CODESIZE PUSH2 0x5A1 JUMP JUMPDEST PUSH1 0x40 MLOAD RETURNDATASIZE DUP6 DUP3 RETURNDATACOPY RETURNDATASIZE SWAP1 REVERT JUMPDEST DUP5 DUP4 MSTORE PUSH1 0x5 DUP5 MSTORE PUSH2 0x664 CALLER PUSH1 0x40 DUP6 KECCAK256 PUSH2 0x5415 JUMP JUMPDEST CALLER DUP4 MSTORE PUSH1 0x16 DUP5 MSTORE PUSH2 0x678 DUP6 PUSH1 0x40 DUP6 KECCAK256 PUSH2 0x50CA JUMP JUMPDEST PUSH2 0x51A JUMP JUMPDEST PUSH1 0x40 MLOAD PUSH3 0x461BCD PUSH1 0xE5 SHL DUP2 MSTORE PUSH1 0x4 DUP2 ADD DUP5 SWAP1 MSTORE PUSH1 0x2E PUSH1 0x24 DUP3 ADD MSTORE PUSH32 0x4D61726B65744D616E616765723A20455448207472616E7366657220746F2054 PUSH1 0x44 DUP3 ADD MSTORE PUSH14 0x1C99585CDD5C9E4819985A5B1959 PUSH1 0x92 SHL PUSH1 0x64 DUP3 ADD MSTORE PUSH1 0x84 SWAP1 REVERT JUMPDEST PUSH1 0x40 MLOAD PUSH3 0x461BCD PUSH1 0xE5 SHL DUP2 MSTORE PUSH1 0x4 DUP2 ADD DUP6 SWAP1 MSTORE PUSH1 0x3D PUSH1 0x24 DUP3 ADD MSTORE PUSH1 0x0 DUP1 MLOAD PUSH1 0x20 PUSH2 0x64DB DUP4 CODECOPY DUP2 MLOAD SWAP2 MSTORE PUSH1 0x44 DUP3 ADD MSTORE PUSH32 0x746F6B656E732C2075736520706C61636542657457697468546F6B656E000000 PUSH1 0x64 DUP3 ADD MSTORE PUSH1 0x84 SWAP1 REVERT JUMPDEST POP PUSH1 0x3 DUP2 ADD SLOAD DUP5 GT ISZERO PUSH2 0x4AE JUMP JUMPDEST PUSH1 0x9 DUP2 ADD SLOAD PUSH1 0x13 SLOAD SWAP1 PUSH1 0x3C DUP3 MUL SWAP2 DUP1 DUP4 DIV PUSH1 0x3C EQ SWAP1 ISZERO OR ISZERO PUSH2 0x775 JUMPI PUSH2 0x770 SWAP2 PUSH2 0x769 SWAP2 PUSH2 0x52EF JUMP JUMPDEST TIMESTAMP LT PUSH2 0x52FC JUMP JUMPDEST PUSH2 0x4A5 JUMP JUMPDEST PUSH4 0x4E487B71 PUSH1 0xE0 SHL DUP8 MSTORE PUSH1 0x11 PUSH1 0x4 MSTORE PUSH1 0x24 DUP8 REVERT JUMPDEST PUSH4 0x4E487B71 PUSH1 0xE0 SHL DUP7 MSTORE PUSH1 0x21 PUSH1 0x4 MSTORE PUSH1 0x24 DUP7 REVERT JUMPDEST POP CALLVALUE PUSH2 0x39E JUMPI PUSH1 0x20 CALLDATASIZE PUSH1 0x3 NOT ADD SLT PUSH2 0x39E JUMPI PUSH2 0x7B7 PUSH2 0x4B1F JUMP JUMPDEST PUSH2 0x7BF PUSH2 0x4F8A JUMP JUMPDEST PUSH1 0x1 PUSH1 0x1 PUSH1 0xA0 SHL SUB SWAP1 DUP2 AND SWAP1 DUP2 ISZERO PUSH2 0x7FA JUMPI PUSH1 0x0 SLOAD DUP3 PUSH1 0x1 DUP1 PUSH1 0xA0 SHL SUB NOT DUP3 AND OR PUSH1 0x0 SSTORE AND PUSH1 0x0 DUP1 MLOAD PUSH1 0x20 PUSH2 0x655B DUP4 CODECOPY DUP2 MLOAD SWAP2 MSTORE PUSH1 0x0 DUP1 LOG3 DUP1 RETURN JUMPDEST PUSH1 0x40 MLOAD PUSH4 0x1E4FBDF7 PUSH1 0xE0 SHL DUP2 MSTORE PUSH1 0x4 DUP2 ADD DUP5 SWAP1 MSTORE PUSH1 0x24 SWAP1 REVERT JUMPDEST POP PUSH2 0x81D CALLDATASIZE PUSH2 0x4C1A JUMP JUMPDEST DUP2 DUP4 SWAP3 SWAP4 MSTORE PUSH1 0x20 SWAP3 PUSH1 0x1 DUP5 MSTORE PUSH1 0x40 DUP4 KECCAK256 PUSH1 0xFF PUSH1 0xC DUP3 ADD SLOAD AND PUSH1 0x5 DUP2 LT ISZERO PUSH2 0xB67 JUMPI PUSH2 0x848 SWAP1 ISZERO PUSH2 0x52A4 JUMP JUMPDEST PUSH1 0x9 DUP2 ADD SLOAD TIMESTAMP LT ISZERO PUSH2 0xB16 JUMPI PUSH1 0x4 SWAP1 CALLER DUP6 MSTORE PUSH1 0xA DUP7 MSTORE PUSH2 0x86F PUSH1 0xFF PUSH1 0x40 DUP8 KECCAK256 SLOAD AND ISZERO PUSH2 0x4FB6 JUMP JUMPDEST PUSH2 0x87A DUP5 ISZERO ISZERO PUSH2 0x5438 JUMP JUMPDEST ADD DUP1 SLOAD PUSH1 0x1 PUSH1 0x1 PUSH1 0xA0 SHL SUB SWAP2 SWAP1 DUP3 AND DUP1 PUSH2 0xA94 JUMPI POP DUP4 CALLVALUE SUB PUSH2 0xA43 JUMPI PUSH2 0x8A1 CALLVALUE ISZERO ISZERO PUSH2 0x5438 JUMP JUMPDEST DUP5 DUP1 DUP1 DUP1 CALLVALUE DUP7 PUSH1 0xC SLOAD AND GAS CALL PUSH2 0x8B5 PUSH2 0x50ED JUMP JUMPDEST POP ISZERO PUSH2 0x9E7 JUMPI DUP5 SWAP6 JUMPDEST DUP4 DUP7 MSTORE PUSH1 0x3 DUP2 MSTORE PUSH1 0x40 DUP7 KECCAK256 CALLER PUSH1 0x0 MSTORE DUP2 MSTORE PUSH1 0xFF PUSH1 0x40 PUSH1 0x0 KECCAK256 SLOAD AND ISZERO PUSH2 0x9CE JUMPI JUMPDEST DUP4 DUP7 MSTORE PUSH1 0x3 DUP2 MSTORE PUSH1 0x40 DUP7 KECCAK256 SWAP1 CALLER PUSH1 0x0 MSTORE MSTORE PUSH1 0x40 PUSH1 0x0 KECCAK256 PUSH1 0x1 PUSH1 0xFF NOT DUP3 SLOAD AND OR SWAP1 SSTORE DUP2 DUP1 PUSH1 0xC SLOAD AND SWAP2 SLOAD AND SWAP1 DUP1 EXTCODESIZE ISZERO PUSH2 0x9CA JUMPI DUP5 DUP7 SWAP2 PUSH2 0x936 SWAP4 DUP4 PUSH1 0x40 MLOAD DUP1 SWAP7 DUP2 SWAP6 DUP3 SWAP5 PUSH4 0xC15D9807 PUSH1 0xE0 SHL DUP5 MSTORE CALLER DUP13 PUSH1 0x4 DUP7 ADD PUSH2 0x54A1 JUMP JUMPDEST SUB SWAP3 GAS CALL SWAP1 DUP2 ISZERO PUSH2 0x9BF JUMPI DUP6 SWAP2 PUSH2 0x9AB JUMPI JUMPDEST POP POP PUSH1 0xE SLOAD AND SWAP2 DUP3 PUSH2 0x959 JUMPI POP POP POP RETURN JUMPDEST DUP3 EXTCODESIZE ISZERO PUSH2 0x9A6 JUMPI PUSH2 0x985 SWAP3 DUP5 SWAP3 DUP4 PUSH1 0x40 MLOAD DUP1 SWAP7 DUP2 SWAP6 DUP3 SWAP5 PUSH4 0x8F46A5A1 PUSH1 0xE0 SHL DUP5 MSTORE CALLER SWAP1 PUSH1 0x4 DUP6 ADD PUSH2 0x54C9 JUMP JUMPDEST SUB SWAP3 GAS CALL DUP1 ISZERO PUSH2 0x622 JUMPI PUSH2 0x996 JUMPI POP RETURN JUMPDEST PUSH2 0x99F SWAP1 PUSH2 0x4DCC JUMP JUMPDEST PUSH2 0x39E JUMPI DUP1 RETURN JUMPDEST POP POP POP REVERT JUMPDEST PUSH2 0x9B4 SWAP1 PUSH2 0x4DCC JUMP JUMPDEST PUSH2 0x9A6 JUMPI DUP4 CODESIZE PUSH2 0x948 JUMP JUMPDEST PUSH1 0x40 MLOAD RETURNDATASIZE DUP8 DUP3 RETURNDATACOPY RETURNDATASIZE SWAP1 REVERT JUMPDEST DUP6 DUP1 REVERT JUMPDEST DUP4 DUP7 MSTORE PUSH1 0x6 DUP2 MSTORE PUSH2 0x9E2 CALLER PUSH1 0x40 DUP9 KECCAK256 PUSH2 0x5415 JUMP JUMPDEST PUSH2 0x8DE JUMP JUMPDEST PUSH1 0x40 MLOAD PUSH3 0x461BCD PUSH1 0xE5 SHL DUP2 MSTORE PUSH1 0x4 DUP2 ADD DUP8 SWAP1 MSTORE PUSH1 0x2E PUSH1 0x24 DUP3 ADD MSTORE PUSH32 0x4D61726B65744D616E616765723A20455448207472616E7366657220746F2074 PUSH1 0x44 DUP3 ADD MSTORE PUSH14 0x1C99585CDD5C9E4819985A5B1959 PUSH1 0x92 SHL PUSH1 0x64 DUP3 ADD MSTORE PUSH1 0x84 SWAP1 REVERT JUMPDEST PUSH1 0x40 MLOAD PUSH3 0x461BCD PUSH1 0xE5 SHL DUP2 MSTORE PUSH1 0x4 DUP2 ADD DUP8 SWAP1 MSTORE PUSH1 0x23 PUSH1 0x24 DUP3 ADD MSTORE PUSH32 0x4D61726B65744D616E616765723A20496E636F72726563742045544820616D6F PUSH1 0x44 DUP3 ADD MSTORE PUSH3 0x1D5B9D PUSH1 0xEA SHL PUSH1 0x64 DUP3 ADD MSTORE PUSH1 0x84 SWAP1 REVERT JUMPDEST CALLVALUE PUSH2 0xAB2 JUMPI SWAP6 PUSH2 0xAAD DUP6 DUP8 SWAP9 DUP6 PUSH1 0xC SLOAD AND SWAP1 CALLER SWAP1 PUSH2 0x520C JUMP JUMPDEST PUSH2 0x8BE JUMP JUMPDEST PUSH1 0x40 MLOAD PUSH3 0x461BCD PUSH1 0xE5 SHL DUP2 MSTORE PUSH1 0x4 DUP2 ADD DUP9 SWAP1 MSTORE PUSH1 0x36 PUSH1 0x24 DUP3 ADD MSTORE PUSH32 0x4D61726B65744D616E616765723A204E6F204554482073686F756C6420626520 PUSH1 0x44 DUP3 ADD MSTORE PUSH22 0x1CD95B9D08199BDC881D1BDAD95B881CDD5C1C1BDC9D PUSH1 0x52 SHL PUSH1 0x64 DUP3 ADD MSTORE PUSH1 0x84 SWAP1 REVERT JUMPDEST PUSH1 0x40 MLOAD PUSH3 0x461BCD PUSH1 0xE5 SHL DUP2 MSTORE PUSH1 0x4 DUP2 ADD DUP7 SWAP1 MSTORE PUSH1 0x23 PUSH1 0x24 DUP3 ADD MSTORE PUSH32 0x4D61726B65744D616E616765723A20537570706F727420706572696F6420656E PUSH1 0x44 DUP3 ADD MSTORE PUSH3 0x191959 PUSH1 0xEA SHL PUSH1 0x64 DUP3 ADD MSTORE PUSH1 0x84 SWAP1 REVERT JUMPDEST PUSH4 0x4E487B71 PUSH1 0xE0 SHL DUP6 MSTORE PUSH1 0x21 PUSH1 0x4 MSTORE PUSH1 0x24 DUP6 REVERT JUMPDEST POP CALLVALUE PUSH2 0x39E JUMPI PUSH1 0x60 CALLDATASIZE PUSH1 0x3 NOT ADD SLT PUSH2 0x39E JUMPI PUSH1 0x4 CALLDATALOAD PUSH1 0x24 CALLDATALOAD SWAP1 PUSH1 0x44 CALLDATALOAD DUP2 DUP5 MSTORE PUSH1 0x20 PUSH1 0x1 DUP2 MSTORE PUSH1 0x40 DUP6 KECCAK256 PUSH1 0xFF PUSH1 0xC DUP3 ADD SLOAD AND PUSH1 0x5 DUP2 LT ISZERO PUSH2 0xE1F JUMPI PUSH2 0xBBF SWAP1 ISZERO PUSH2 0x52A4 JUMP JUMPDEST PUSH1 0xFF PUSH1 0x12 SLOAD AND PUSH2 0xDDD JUMPI JUMPDEST DUP5 ISZERO ISZERO DUP1 PUSH2 0xDCF JUMPI JUMPDEST PUSH2 0xBDC SWAP1 PUSH2 0x5384 JUMP JUMPDEST PUSH1 0x4 DUP2 ADD DUP1 SLOAD PUSH1 0x1 PUSH1 0x1 PUSH1 0xA0 SHL SUB SWAP3 SWAP1 DUP4 AND SWAP1 DUP2 ISZERO PUSH2 0xD81 JUMPI DUP6 DUP10 SWAP5 SWAP4 SWAP3 PUSH2 0xC0D PUSH1 0x5 PUSH2 0xC1A SWAP5 ADD SLOAD DUP4 LT ISZERO PUSH2 0x53D0 JUMP JUMPDEST DUP5 PUSH1 0xC SLOAD AND SWAP1 CALLER SWAP1 PUSH2 0x520C JUMP JUMPDEST DUP6 DUP4 MSTORE PUSH1 0x2 DUP5 MSTORE PUSH1 0x40 DUP4 KECCAK256 CALLER PUSH1 0x0 MSTORE DUP5 MSTORE PUSH1 0xFF PUSH1 0x40 PUSH1 0x0 KECCAK256 SLOAD AND ISZERO PUSH2 0xD54 JUMPI JUMPDEST DUP6 DUP4 MSTORE PUSH1 0x2 DUP5 MSTORE PUSH1 0x40 DUP4 KECCAK256 CALLER PUSH1 0x0 MSTORE DUP5 MSTORE PUSH1 0x40 PUSH1 0x0 KECCAK256 PUSH1 0x1 PUSH1 0xFF NOT DUP3 SLOAD AND OR SWAP1 SSTORE DUP6 DUP4 MSTORE PUSH1 0x4 DUP5 MSTORE PUSH1 0x40 DUP4 KECCAK256 CALLER PUSH1 0x0 MSTORE DUP5 MSTORE DUP7 PUSH1 0x40 PUSH1 0x0 KECCAK256 SSTORE DUP2 DUP1 PUSH1 0xC SLOAD AND SWAP2 SLOAD AND SWAP1 DUP1 EXTCODESIZE ISZERO PUSH2 0x61E JUMPI DUP6 DUP5 SWAP2 DUP10 SWAP4 DUP4 DUP11 PUSH2 0xCAD PUSH1 0x40 MLOAD SWAP8 DUP9 SWAP7 DUP8 SWAP6 DUP7 SWAP5 PUSH4 0x95F41095 PUSH1 0xE0 SHL DUP7 MSTORE CALLER SWAP1 PUSH1 0x4 DUP8 ADD PUSH2 0x517D JUMP JUMPDEST SUB SWAP3 GAS CALL SWAP1 DUP2 ISZERO PUSH2 0x645 JUMPI DUP4 SWAP2 PUSH2 0xD40 JUMPI JUMPDEST POP POP PUSH1 0xE SLOAD AND DUP1 PUSH2 0xCED JUMPI JUMPDEST POP POP PUSH1 0x40 MLOAD SWAP4 DUP5 MSTORE DUP4 ADD MSTORE PUSH1 0x0 DUP1 MLOAD PUSH1 0x20 PUSH2 0x65BB DUP4 CODECOPY DUP2 MLOAD SWAP2 MSTORE PUSH1 0x40 CALLER SWAP4 LOG3 DUP1 RETURN JUMPDEST DUP1 EXTCODESIZE ISZERO PUSH2 0x62D JUMPI PUSH1 0x40 MLOAD PUSH4 0xC228038D PUSH1 0xE0 SHL DUP2 MSTORE SWAP1 DUP3 SWAP1 DUP3 SWAP1 DUP2 DUP4 DUP2 PUSH2 0xD19 DUP11 DUP14 CALLER DUP15 PUSH1 0x4 DUP7 ADD PUSH2 0x51C6 JUMP JUMPDEST SUB SWAP3 GAS CALL DUP1 ISZERO PUSH2 0x622 JUMPI ISZERO PUSH2 0xCCB JUMPI PUSH2 0xD31 SWAP1 PUSH2 0x4DCC JUMP JUMPDEST PUSH2 0xD3C JUMPI DUP5 CODESIZE PUSH2 0xCCB JUMP JUMPDEST DUP5 DUP1 REVERT JUMPDEST PUSH2 0xD49 SWAP1 PUSH2 0x4DCC JUMP JUMPDEST PUSH2 0x62D JUMPI DUP2 CODESIZE PUSH2 0xCBF JUMP JUMPDEST DUP6 DUP4 MSTORE PUSH1 0x5 DUP5 MSTORE PUSH2 0xD68 CALLER PUSH1 0x40 DUP6 KECCAK256 PUSH2 0x5415 JUMP JUMPDEST CALLER DUP4 MSTORE PUSH1 0x16 DUP5 MSTORE PUSH2 0xD7C DUP7 PUSH1 0x40 DUP6 KECCAK256 PUSH2 0x50CA JUMP JUMPDEST PUSH2 0xC3A JUMP JUMPDEST PUSH1 0x40 MLOAD PUSH3 0x461BCD PUSH1 0xE5 SHL DUP2 MSTORE PUSH1 0x4 DUP2 ADD DUP7 SWAP1 MSTORE PUSH1 0x32 PUSH1 0x24 DUP3 ADD MSTORE PUSH1 0x0 DUP1 MLOAD PUSH1 0x20 PUSH2 0x64DB DUP4 CODECOPY DUP2 MLOAD SWAP2 MSTORE PUSH1 0x44 DUP3 ADD MSTORE PUSH18 0x141154154B081D5CD9481C1B1858D950995D PUSH1 0x72 SHL PUSH1 0x64 DUP3 ADD MSTORE PUSH1 0x84 SWAP1 REVERT JUMPDEST POP PUSH1 0x3 DUP2 ADD SLOAD DUP6 GT ISZERO PUSH2 0xBD3 JUMP JUMPDEST PUSH1 0x9 DUP2 ADD SLOAD PUSH1 0x13 SLOAD SWAP1 PUSH1 0x3C DUP3 MUL SWAP2 DUP1 DUP4 DIV PUSH1 0x3C EQ SWAP1 ISZERO OR ISZERO PUSH2 0xE0B JUMPI PUSH2 0xE06 SWAP2 PUSH2 0x769 SWAP2 PUSH2 0x52EF JUMP JUMPDEST PUSH2 0xBCA JUMP JUMPDEST PUSH4 0x4E487B71 PUSH1 0xE0 SHL DUP9 MSTORE PUSH1 0x11 PUSH1 0x4 MSTORE PUSH1 0x24 DUP9 REVERT JUMPDEST PUSH4 0x4E487B71 PUSH1 0xE0 SHL DUP8 MSTORE PUSH1 0x21 PUSH1 0x4 MSTORE PUSH1 0x24 DUP8 REVERT JUMPDEST POP CALLVALUE PUSH2 0x39E JUMPI PUSH1 0x40 CALLDATASIZE PUSH1 0x3 NOT ADD SLT PUSH2 0x39E JUMPI PUSH2 0xE4D PUSH2 0x4B35 JUMP JUMPDEST SWAP1 PUSH1 0x4 CALLDATALOAD DUP2 MSTORE PUSH1 0x1 PUSH1 0x20 MSTORE PUSH1 0x40 DUP2 KECCAK256 PUSH1 0xFF PUSH1 0xC DUP3 ADD SLOAD AND PUSH1 0x5 DUP2 LT ISZERO PUSH2 0x123A JUMPI PUSH1 0x2 PUSH2 0xE79 SWAP2 EQ PUSH2 0x58E7 JUMP JUMPDEST PUSH1 0xD DUP2 ADD SLOAD PUSH2 0xE89 DUP2 ISZERO ISZERO PUSH2 0x593E JUMP JUMPDEST PUSH1 0x4 CALLDATALOAD DUP4 MSTORE PUSH1 0x2 PUSH1 0x20 MSTORE PUSH1 0x40 DUP4 KECCAK256 SWAP4 PUSH1 0x1 DUP1 PUSH1 0xA0 SHL SUB SWAP5 DUP6 DUP3 AND PUSH1 0x0 MSTORE PUSH1 0x20 MSTORE PUSH2 0xEBA PUSH1 0xFF PUSH1 0x40 PUSH1 0x0 KECCAK256 SLOAD AND PUSH2 0x5989 JUMP JUMPDEST DUP5 PUSH1 0xC SLOAD AND PUSH1 0x40 MLOAD PUSH4 0x7C7A72D PUSH1 0xE0 SHL DUP2 MSTORE PUSH1 0x20 DUP2 DUP1 PUSH2 0xEE0 DUP7 PUSH1 0x4 CALLDATALOAD PUSH1 0x4 DUP5 ADD PUSH2 0x51AD JUMP JUMPDEST SUB DUP2 DUP6 GAS STATICCALL DUP1 ISZERO PUSH2 0x122F JUMPI DUP7 SWAP1 PUSH2 0x11F4 JUMPI JUMPDEST PUSH2 0xEFD SWAP2 POP ISZERO PUSH2 0x59D5 JUMP JUMPDEST DUP6 PUSH1 0x4 DUP6 ADD SLOAD AND SWAP4 PUSH1 0x40 MLOAD SWAP5 PUSH4 0x423E7BC1 PUSH1 0xE1 SHL DUP7 MSTORE PUSH1 0x20 DUP7 DUP1 PUSH2 0xF28 DUP5 DUP9 PUSH1 0x4 CALLDATALOAD PUSH1 0x4 DUP6 ADD PUSH2 0x5544 JUMP JUMPDEST SUB DUP2 DUP7 GAS STATICCALL SWAP6 DUP7 ISZERO PUSH2 0x10D5 JUMPI DUP8 SWAP7 PUSH2 0x11C0 JUMPI JUMPDEST POP PUSH1 0x40 MLOAD PUSH4 0xDC4CE349 PUSH1 0xE0 SHL DUP2 MSTORE SWAP3 PUSH1 0x20 DUP5 DUP1 PUSH2 0xF5F DUP6 DUP11 PUSH1 0x4 DUP1 CALLDATALOAD SWAP1 DUP6 ADD PUSH2 0x5A21 JUMP JUMPDEST SUB DUP2 DUP5 GAS STATICCALL SWAP4 DUP5 ISZERO PUSH2 0x11B5 JUMPI DUP9 SWAP5 PUSH2 0x1181 JUMPI JUMPDEST POP DUP8 SWAP3 PUSH1 0x3 PUSH1 0x1 SWAP2 ADD SLOAD SWAP1 JUMPDEST DUP2 DUP2 GT ISZERO PUSH2 0x10E0 JUMPI POP POP PUSH2 0xFAE SWAP3 SWAP2 PUSH1 0x20 SWAP2 PUSH1 0x40 MLOAD DUP1 DUP1 SWAP7 DUP2 SWAP5 PUSH4 0x4F44289D PUSH1 0xE0 SHL DUP4 MSTORE PUSH1 0x4 CALLDATALOAD PUSH1 0x4 DUP5 ADD PUSH2 0x51AD JUMP JUMPDEST SUB SWAP2 GAS STATICCALL SWAP1 DUP2 ISZERO PUSH2 0x10D5 JUMPI DUP8 SWAP2 PUSH2 0x109A JUMPI JUMPDEST PUSH2 0xFCA SWAP3 POP PUSH2 0x507A JUMP JUMPDEST DUP2 PUSH2 0xFE1 JUMPI POP POP POP POP POP PUSH1 0x20 SWAP2 POP JUMPDEST PUSH1 0x40 MLOAD SWAP1 DUP2 MSTORE RETURN JUMPDEST SWAP4 SWAP5 SWAP4 DUP1 PUSH2 0x101E JUMPI POP POP PUSH1 0x20 SWAP5 PUSH1 0x4 CALLDATALOAD DUP5 MSTORE PUSH1 0x4 DUP7 MSTORE PUSH1 0x40 DUP5 KECCAK256 SWAP2 AND PUSH1 0x0 MSTORE DUP5 MSTORE PUSH1 0x40 PUSH1 0x0 KECCAK256 SLOAD EQ PUSH1 0x0 EQ PUSH2 0x1017 JUMPI POP JUMPDEST PUSH2 0xFD9 JUMP JUMPDEST SWAP1 POP PUSH2 0xFD9 JUMP JUMPDEST SWAP4 SWAP3 SWAP2 SWAP1 SWAP5 SWAP6 PUSH1 0x4 CALLDATALOAD DUP5 MSTORE PUSH1 0x4 PUSH1 0x20 MSTORE PUSH1 0x40 DUP5 KECCAK256 SWAP2 AND PUSH1 0x0 MSTORE PUSH1 0x20 MSTORE PUSH1 0x40 PUSH1 0x0 KECCAK256 SLOAD EQ PUSH1 0x0 EQ PUSH2 0x108E JUMPI PUSH2 0x2328 DUP1 DUP4 MUL SWAP3 DUP4 DIV SUB PUSH2 0x107A JUMPI POP SWAP2 PUSH2 0x1074 PUSH2 0x1012 SWAP3 PUSH2 0x106F PUSH2 0x2710 PUSH1 0x20 SWAP7 DIV DUP5 PUSH2 0x5051 JUMP JUMPDEST PUSH2 0x5A42 JUMP JUMPDEST SWAP1 PUSH2 0x507A JUMP JUMPDEST PUSH4 0x4E487B71 PUSH1 0xE0 SHL DUP2 MSTORE PUSH1 0x11 PUSH1 0x4 MSTORE PUSH1 0x24 SWAP1 REVERT JUMPDEST SWAP2 POP POP PUSH1 0x20 SWAP2 POP PUSH2 0xFD9 JUMP JUMPDEST SWAP1 POP PUSH1 0x20 DUP3 RETURNDATASIZE PUSH1 0x20 GT PUSH2 0x10CD JUMPI JUMPDEST DUP2 PUSH2 0x10B5 PUSH1 0x20 SWAP4 DUP4 PUSH2 0x4E16 JUMP JUMPDEST DUP2 ADD SUB SLT PUSH2 0x10C8 JUMPI PUSH2 0xFCA SWAP2 MLOAD SWAP1 PUSH2 0xFC0 JUMP JUMPDEST PUSH1 0x0 DUP1 REVERT JUMPDEST RETURNDATASIZE SWAP2 POP PUSH2 0x10A8 JUMP JUMPDEST PUSH1 0x40 MLOAD RETURNDATASIZE DUP10 DUP3 RETURNDATACOPY RETURNDATASIZE SWAP1 REVERT JUMPDEST DUP8 DUP2 SUB PUSH2 0x10F6 JUMPI JUMPDEST PUSH2 0x10F1 SWAP1 PUSH2 0x5087 JUMP JUMPDEST PUSH2 0xF7E JUMP JUMPDEST SWAP4 PUSH1 0x40 MLOAD PUSH4 0xDC4CE349 PUSH1 0xE0 SHL DUP2 MSTORE PUSH1 0x20 DUP2 DUP1 PUSH2 0x1119 DUP9 DUP11 PUSH1 0x4 CALLDATALOAD PUSH1 0x4 DUP6 ADD PUSH2 0x5A21 JUMP JUMPDEST SUB DUP2 DUP8 GAS STATICCALL SWAP1 DUP2 ISZERO PUSH2 0x1176 JUMPI DUP12 SWAP2 PUSH2 0x1142 JUMPI JUMPDEST POP PUSH2 0x113A SWAP1 PUSH2 0x10F1 SWAP3 PUSH2 0x507A JUMP JUMPDEST SWAP5 SWAP1 POP PUSH2 0x10E8 JUMP JUMPDEST SWAP1 POP PUSH1 0x20 DUP2 RETURNDATASIZE PUSH1 0x20 GT PUSH2 0x116E JUMPI JUMPDEST DUP2 PUSH2 0x115D PUSH1 0x20 SWAP4 DUP4 PUSH2 0x4E16 JUMP JUMPDEST DUP2 ADD SUB SLT PUSH2 0x10C8 JUMPI MLOAD PUSH2 0x10F1 PUSH2 0x112C JUMP JUMPDEST RETURNDATASIZE SWAP2 POP PUSH2 0x1150 JUMP JUMPDEST PUSH1 0x40 MLOAD RETURNDATASIZE DUP14 DUP3 RETURNDATACOPY RETURNDATASIZE SWAP1 REVERT JUMPDEST SWAP1 SWAP4 POP PUSH1 0x20 DUP2 RETURNDATASIZE PUSH1 0x20 GT PUSH2 0x11AD JUMPI JUMPDEST DUP2 PUSH2 0x119D PUSH1 0x20 SWAP4 DUP4 PUSH2 0x4E16 JUMP JUMPDEST DUP2 ADD SUB SLT PUSH2 0x10C8 JUMPI MLOAD SWAP3 CODESIZE PUSH2 0xF72 JUMP JUMPDEST RETURNDATASIZE SWAP2 POP PUSH2 0x1190 JUMP JUMPDEST PUSH1 0x40 MLOAD RETURNDATASIZE DUP11 DUP3 RETURNDATACOPY RETURNDATASIZE SWAP1 REVERT JUMPDEST SWAP1 SWAP6 POP PUSH1 0x20 DUP2 RETURNDATASIZE PUSH1 0x20 GT PUSH2 0x11EC JUMPI JUMPDEST DUP2 PUSH2 0x11DC PUSH1 0x20 SWAP4 DUP4 PUSH2 0x4E16 JUMP JUMPDEST DUP2 ADD SUB SLT PUSH2 0x10C8 JUMPI MLOAD SWAP5 CODESIZE PUSH2 0xF3B JUMP JUMPDEST RETURNDATASIZE SWAP2 POP PUSH2 0x11CF JUMP JUMPDEST POP PUSH1 0x20 DUP2 RETURNDATASIZE PUSH1 0x20 GT PUSH2 0x1227 JUMPI JUMPDEST DUP2 PUSH2 0x120E PUSH1 0x20 SWAP4 DUP4 PUSH2 0x4E16 JUMP JUMPDEST DUP2 ADD SUB SLT PUSH2 0x9CA JUMPI PUSH2 0x1222 PUSH2 0xEFD SWAP2 PUSH2 0x5642 JUMP JUMPDEST PUSH2 0xEF2 JUMP JUMPDEST RETURNDATASIZE SWAP2 POP PUSH2 0x1201 JUMP JUMPDEST PUSH1 0x40 MLOAD RETURNDATASIZE DUP9 DUP3 RETURNDATACOPY RETURNDATASIZE SWAP1 REVERT JUMPDEST PUSH4 0x4E487B71 PUSH1 0xE0 SHL DUP4 MSTORE PUSH1 0x21 PUSH1 0x4 MSTORE PUSH1 0x24 DUP4 REVERT JUMPDEST POP CALLVALUE PUSH2 0x39E JUMPI PUSH1 0x40 CALLDATASIZE PUSH1 0x3 NOT ADD SLT PUSH2 0x39E JUMPI PUSH2 0x1297 SWAP1 PUSH1 0x20 PUSH2 0x126E PUSH2 0x4B35 JUMP JUMPDEST PUSH1 0x1 DUP1 PUSH1 0xA0 SHL SUB PUSH1 0xC SLOAD AND PUSH1 0x40 MLOAD DUP1 DUP1 SWAP7 DUP2 SWAP5 PUSH4 0x3D1E7BA1 PUSH1 0xE1 SHL DUP4 MSTORE PUSH1 0x4 CALLDATALOAD PUSH1 0x4 DUP5 ADD PUSH2 0x51AD JUMP JUMPDEST SUB SWAP2 GAS STATICCALL SWAP1 DUP2 ISZERO PUSH2 0x12E5 JUMPI SWAP1 PUSH2 0x12B3 JUMPI JUMPDEST PUSH1 0x20 SWAP1 PUSH1 0x40 MLOAD SWAP1 DUP2 MSTORE RETURN JUMPDEST POP PUSH1 0x20 DUP2 RETURNDATASIZE DUP3 GT PUSH2 0x12DD JUMPI JUMPDEST DUP2 PUSH2 0x12CC PUSH1 0x20 SWAP4 DUP4 PUSH2 0x4E16 JUMP JUMPDEST DUP2 ADD SUB SLT PUSH2 0x10C8 JUMPI PUSH1 0x20 SWAP1 MLOAD PUSH2 0x12A8 JUMP JUMPDEST RETURNDATASIZE SWAP2 POP PUSH2 0x12BF JUMP JUMPDEST PUSH1 0x40 MLOAD SWAP1 RETURNDATASIZE SWAP1 DUP3 RETURNDATACOPY RETURNDATASIZE SWAP1 REVERT JUMPDEST POP CALLVALUE PUSH2 0x39E JUMPI PUSH1 0x20 CALLDATASIZE PUSH1 0x3 NOT ADD SLT PUSH2 0x39E JUMPI PUSH1 0x40 PUSH2 0x3F0 SWAP2 PUSH2 0x1311 PUSH2 0x6418 JUMP JUMPDEST POP PUSH1 0x4 CALLDATALOAD DUP2 MSTORE PUSH1 0x1 PUSH1 0x20 MSTORE KECCAK256 PUSH1 0xFF PUSH1 0xE PUSH1 0x40 MLOAD SWAP3 PUSH2 0x132E DUP5 PUSH2 0x4DDF JUMP JUMPDEST DUP1 SLOAD PUSH1 0x1 PUSH1 0x1 PUSH1 0xA0 SHL SUB SWAP1 DUP2 AND DUP6 MSTORE PUSH2 0x1349 PUSH1 0x1 DUP4 ADD PUSH2 0x4EE4 JUMP JUMPDEST PUSH1 0x20 DUP7 ADD MSTORE DUP4 PUSH1 0x2 DUP4 ADD SLOAD AND ISZERO ISZERO PUSH1 0x40 DUP7 ADD MSTORE PUSH1 0x3 DUP3 ADD SLOAD PUSH1 0x60 DUP7 ADD MSTORE PUSH1 0x4 DUP3 ADD SLOAD AND PUSH1 0x80 DUP6 ADD MSTORE PUSH1 0x5 DUP2 ADD SLOAD PUSH1 0xA0 DUP6 ADD MSTORE PUSH1 0x6 DUP2 ADD SLOAD PUSH1 0xC0 DUP6 ADD MSTORE PUSH1 0x7 DUP2 ADD SLOAD PUSH1 0xE0 DUP6 ADD MSTORE PUSH1 0x8 DUP2 ADD SLOAD PUSH2 0x100 DUP6 ADD MSTORE PUSH1 0x9 DUP2 ADD SLOAD PUSH2 0x120 DUP6 ADD MSTORE PUSH1 0xA DUP2 ADD SLOAD PUSH2 0x140 DUP6 ADD MSTORE PUSH1 0xB DUP2 ADD SLOAD PUSH2 0x160 DUP6 ADD MSTORE PUSH2 0x13CF DUP4 PUSH1 0xC DUP4 ADD SLOAD AND PUSH2 0x180 DUP7 ADD PUSH2 0x5096 JUMP JUMPDEST PUSH1 0xD DUP2 ADD SLOAD PUSH2 0x1A0 DUP6 ADD MSTORE ADD SLOAD AND ISZERO ISZERO PUSH2 0x1C0 DUP3 ADD MSTORE PUSH1 0x40 MLOAD SWAP2 DUP3 SWAP2 PUSH1 0x20 DUP4 MSTORE PUSH1 0x20 DUP4 ADD SWAP1 PUSH2 0x4D0B JUMP JUMPDEST POP CALLVALUE PUSH2 0x39E JUMPI PUSH1 0x40 CALLDATASIZE PUSH1 0x3 NOT ADD SLT PUSH2 0x39E JUMPI PUSH1 0x4 CALLDATALOAD DUP1 ISZERO ISZERO SWAP1 DUP2 DUP2 SUB PUSH2 0x10C8 JUMPI PUSH1 0x24 CALLDATALOAD SWAP2 PUSH2 0x1425 PUSH2 0x4F8A JUMP JUMPDEST PUSH1 0xFF DUP1 NOT PUSH1 0x12 SLOAD AND SWAP2 AND OR PUSH1 0x12 SSTORE PUSH2 0x143B JUMPI POP DUP1 RETURN JUMPDEST DUP1 ISZERO PUSH2 0x1447 JUMPI PUSH1 0x13 SSTORE DUP1 RETURN JUMPDEST PUSH1 0x40 MLOAD PUSH3 0x461BCD PUSH1 0xE5 SHL DUP2 MSTORE PUSH1 0x20 PUSH1 0x4 DUP3 ADD MSTORE PUSH1 0x2B PUSH1 0x24 DUP3 ADD MSTORE PUSH32 0x4D61726B65744D616E616765723A20496E76616C696420726573747269637469 PUSH1 0x44 DUP3 ADD MSTORE PUSH11 0x37B710323AB930BA34B7B7 PUSH1 0xA9 SHL PUSH1 0x64 DUP3 ADD MSTORE PUSH1 0x84 SWAP1 REVERT JUMPDEST POP CALLVALUE PUSH2 0x39E JUMPI PUSH1 0x60 CALLDATASIZE PUSH1 0x3 NOT ADD SLT PUSH2 0x39E JUMPI PUSH1 0x44 CALLDATALOAD SWAP1 PUSH1 0x1 PUSH1 0x1 PUSH1 0xA0 SHL SUB DUP1 DUP4 AND DUP4 SUB PUSH2 0x10C8 JUMPI PUSH2 0x1297 SWAP3 PUSH1 0x20 SWAP2 PUSH1 0xC SLOAD AND PUSH1 0x40 MLOAD DUP1 DUP1 SWAP7 DUP2 SWAP5 PUSH4 0xDC4CE349 PUSH1 0xE0 SHL DUP4 MSTORE PUSH1 0x24 CALLDATALOAD PUSH1 0x4 CALLDATALOAD PUSH1 0x4 DUP6 ADD PUSH2 0x5A21 JUMP JUMPDEST POP CALLVALUE PUSH2 0x39E JUMPI PUSH1 0x40 CALLDATASIZE PUSH1 0x3 NOT ADD SLT PUSH2 0x39E JUMPI PUSH2 0x150D PUSH2 0x4B1F JUMP JUMPDEST PUSH2 0x1515 PUSH2 0x4E9B JUMP JUMPDEST PUSH2 0x151D PUSH2 0x4F8A JUMP JUMPDEST PUSH1 0x1 PUSH1 0x1 PUSH1 0xA0 SHL SUB DUP3 DUP2 AND SWAP2 DUP3 ISZERO PUSH2 0x1695 JUMPI DUP3 DUP6 MSTORE PUSH1 0xA PUSH1 0x20 MSTORE PUSH1 0x40 DUP6 KECCAK256 SWAP1 PUSH2 0x154B DUP2 PUSH1 0xFF DUP5 SLOAD AND SWAP4 PUSH2 0x50B9 JUMP JUMPDEST DUP1 DUP1 PUSH2 0x168D JUMPI JUMPDEST ISZERO PUSH2 0x15B7 JUMPI POP POP PUSH1 0xB SLOAD SWAP3 SWAP2 POP POP PUSH1 0x1 PUSH1 0x40 SHL DUP3 LT ISZERO PUSH2 0x15A1 JUMPI PUSH2 0x157F DUP3 PUSH1 0x1 PUSH2 0x159E SWAP5 ADD PUSH1 0xB SSTORE PUSH2 0x4BE7 JUMP JUMPDEST SWAP1 SWAP2 SWAP1 DUP3 SLOAD SWAP1 PUSH1 0x3 SHL SWAP2 PUSH1 0x1 DUP1 PUSH1 0xA0 SHL SUB DUP1 SWAP2 AND DUP4 SHL SWAP3 SHL NOT AND OR SWAP1 SSTORE JUMP JUMPDEST DUP1 RETURN JUMPDEST PUSH4 0x4E487B71 PUSH1 0xE0 SHL PUSH1 0x0 MSTORE PUSH1 0x41 PUSH1 0x4 MSTORE PUSH1 0x24 PUSH1 0x0 REVERT JUMPDEST SWAP1 SWAP2 SWAP3 SWAP4 POP ISZERO SWAP1 DUP2 PUSH2 0x1685 JUMPI JUMPDEST POP PUSH2 0x15CE JUMPI POP POP DUP1 RETURN JUMPDEST DUP3 JUMPDEST PUSH1 0xB DUP1 SLOAD DUP1 DUP4 LT ISZERO PUSH2 0x167D JUMPI DUP4 DUP6 PUSH2 0x15E7 DUP6 PUSH2 0x4BE7 JUMP JUMPDEST SWAP3 SWAP1 SLOAD PUSH1 0x3 SWAP4 DUP5 SHL SHR AND EQ PUSH2 0x1607 JUMPI POP POP POP PUSH2 0x1602 SWAP1 PUSH2 0x5087 JUMP JUMPDEST PUSH2 0x15D0 JUMP JUMPDEST SWAP2 SWAP5 POP PUSH1 0x0 NOT SWAP4 SWAP2 SWAP1 DUP5 DUP2 ADD SWAP1 DUP2 GT PUSH2 0x775 JUMPI SWAP2 PUSH2 0x157F SWAP2 PUSH2 0x162C PUSH2 0x1638 SWAP6 SWAP5 PUSH2 0x4BE7 JUMP JUMPDEST SWAP1 SLOAD SWAP2 SHL SHR AND SWAP2 PUSH2 0x4BE7 JUMP JUMPDEST DUP2 SLOAD DUP1 ISZERO PUSH2 0x1667 JUMPI ADD SWAP1 PUSH2 0x1663 PUSH2 0x164E DUP4 PUSH2 0x4BE7 JUMP JUMPDEST DUP2 SLOAD SWAP1 PUSH1 0x1 DUP1 PUSH1 0xA0 SHL SUB SWAP1 PUSH1 0x3 SHL SHL NOT AND SWAP1 SSTORE JUMP JUMPDEST SSTORE DUP1 RETURN JUMPDEST PUSH4 0x4E487B71 PUSH1 0xE0 SHL PUSH1 0x0 MSTORE PUSH1 0x31 PUSH1 0x4 MSTORE PUSH1 0x24 PUSH1 0x0 REVERT JUMPDEST POP POP POP POP POP DUP1 RETURN JUMPDEST SWAP1 POP CODESIZE PUSH2 0x15C4 JUMP JUMPDEST POP DUP2 ISZERO PUSH2 0x1552 JUMP JUMPDEST PUSH1 0x40 MLOAD PUSH3 0x461BCD PUSH1 0xE5 SHL DUP2 MSTORE PUSH1 0x20 PUSH1 0x4 DUP3 ADD MSTORE PUSH1 0x25 PUSH1 0x24 DUP3 ADD MSTORE PUSH32 0x4D61726B65744D616E616765723A20496E76616C69642077616C6C6574206164 PUSH1 0x44 DUP3 ADD MSTORE PUSH5 0x6472657373 PUSH1 0xD8 SHL PUSH1 0x64 DUP3 ADD MSTORE PUSH1 0x84 SWAP1 REVERT JUMPDEST POP CALLVALUE PUSH2 0x39E JUMPI PUSH1 0x40 CALLDATASIZE PUSH1 0x3 NOT ADD SLT PUSH2 0x39E JUMPI PUSH1 0x40 PUSH2 0x1704 PUSH2 0x4B35 JUMP JUMPDEST SWAP2 PUSH1 0x4 CALLDATALOAD DUP2 MSTORE PUSH1 0x4 PUSH1 0x20 MSTORE KECCAK256 SWAP1 PUSH1 0x1 DUP1 PUSH1 0xA0 SHL SUB AND PUSH1 0x0 MSTORE PUSH1 0x20 MSTORE PUSH1 0x20 PUSH1 0x40 PUSH1 0x0 KECCAK256 SLOAD PUSH1 0x40 MLOAD SWAP1 DUP2 MSTORE RETURN JUMPDEST POP CALLVALUE PUSH2 0x39E JUMPI PUSH2 0x173E CALLDATASIZE PUSH2 0x4C1A JUMP JUMPDEST SWAP2 SWAP1 DUP2 MSTORE PUSH1 0x5 PUSH1 0x20 MSTORE PUSH1 0x40 DUP2 KECCAK256 SWAP1 DUP2 SLOAD DUP4 LT ISZERO PUSH2 0x39E JUMPI PUSH1 0x20 PUSH2 0x1761 DUP5 DUP5 PUSH2 0x4C02 JUMP JUMPDEST SWAP1 SLOAD PUSH1 0x40 MLOAD PUSH1 0x3 SWAP3 SWAP1 SWAP3 SHL SHR PUSH1 0x1 PUSH1 0x1 PUSH1 0xA0 SHL SUB AND DUP2 MSTORE RETURN JUMPDEST POP CALLVALUE PUSH2 0x39E JUMPI DUP1 PUSH1 0x3 NOT CALLDATASIZE ADD SLT PUSH2 0x39E JUMPI PUSH1 0x9 SLOAD PUSH2 0x1797 DUP2 PUSH2 0x5AAB JUMP JUMPDEST SWAP1 PUSH2 0x17A5 PUSH1 0x40 MLOAD SWAP3 DUP4 PUSH2 0x4E16 JUMP JUMPDEST DUP1 DUP3 MSTORE PUSH1 0x1F NOT SWAP3 DUP4 PUSH2 0x17B6 DUP4 PUSH2 0x5AAB JUMP JUMPDEST ADD SWAP4 PUSH1 0x20 SWAP5 CALLDATASIZE DUP7 DUP7 ADD CALLDATACOPY PUSH2 0x17C9 DUP4 PUSH2 0x5AAB JUMP JUMPDEST SWAP3 PUSH2 0x17D7 PUSH1 0x40 MLOAD SWAP5 DUP6 PUSH2 0x4E16 JUMP JUMPDEST DUP1 DUP5 MSTORE DUP2 PUSH2 0x17E4 DUP3 PUSH2 0x5AAB JUMP JUMPDEST ADD DUP4 JUMPDEST DUP2 DUP2 LT PUSH2 0x18E0 JUMPI POP POP DUP3 JUMPDEST DUP2 DUP2 LT PUSH2 0x186B JUMPI POP POP PUSH2 0x1810 PUSH1 0x40 MLOAD SWAP5 PUSH1 0x40 DUP7 MSTORE PUSH1 0x40 DUP7 ADD SWAP1 PUSH2 0x4C6B JUMP JUMPDEST SWAP5 DUP5 DUP7 SUB DUP2 DUP7 ADD MSTORE DUP4 MLOAD SWAP2 DUP3 DUP8 MSTORE DUP2 DUP8 ADD SWAP1 DUP3 DUP1 DUP6 PUSH1 0x5 SHL DUP11 ADD ADD SWAP7 ADD SWAP5 SWAP8 JUMPDEST DUP5 DUP10 LT PUSH2 0x183D JUMPI DUP8 DUP8 SUB DUP9 RETURN JUMPDEST SWAP1 SWAP2 SWAP3 SWAP4 SWAP5 SWAP6 DUP5 DUP1 PUSH2 0x1859 DUP4 DUP7 DUP7 PUSH1 0x1 SWAP7 SUB ADD DUP9 MSTORE DUP11 MLOAD PUSH2 0x4CA8 JUMP JUMPDEST SWAP9 ADD SWAP5 ADD SWAP9 ADD SWAP8 SWAP2 SWAP1 SWAP5 SWAP4 SWAP3 SWAP5 PUSH2 0x1830 JUMP JUMPDEST DUP1 PUSH2 0x187C PUSH2 0x18D7 SWAP3 SWAP9 SWAP5 SWAP6 SWAP9 PUSH2 0x4B80 JUMP JUMPDEST SWAP1 SLOAD PUSH1 0x1 PUSH1 0x1 PUSH1 0xA0 SHL SUB SWAP2 PUSH1 0x3 SWAP2 SWAP1 DUP3 SHL SHR DUP3 AND PUSH2 0x189A DUP5 DUP12 PUSH2 0x5AC2 JUMP JUMPDEST MSTORE PUSH2 0x18A4 DUP4 PUSH2 0x4B80 JUMP JUMPDEST SWAP1 SLOAD SWAP2 SHL SHR AND DUP9 MSTORE PUSH1 0x8 DUP5 MSTORE PUSH2 0x18BC PUSH1 0x40 DUP10 KECCAK256 PUSH2 0x4EE4 JUMP JUMPDEST PUSH2 0x18C6 DUP3 DUP9 PUSH2 0x5AC2 JUMP JUMPDEST MSTORE PUSH2 0x18D1 DUP2 DUP8 PUSH2 0x5AC2 JUMP JUMPDEST POP PUSH2 0x5087 JUMP JUMPDEST SWAP6 SWAP3 SWAP2 SWAP6 PUSH2 0x17F2 JUMP JUMPDEST PUSH1 0x60 DUP7 DUP3 ADD DUP10 ADD MSTORE DUP8 ADD PUSH2 0x17E7 JUMP JUMPDEST POP CALLVALUE PUSH2 0x39E JUMPI DUP1 PUSH1 0x3 NOT CALLDATASIZE ADD SLT PUSH2 0x39E JUMPI PUSH1 0x20 PUSH1 0x40 MLOAD PUSH2 0x15E DUP2 MSTORE RETURN JUMPDEST POP CALLVALUE PUSH2 0x39E JUMPI DUP1 PUSH1 0x3 NOT CALLDATASIZE ADD SLT PUSH2 0x39E JUMPI PUSH1 0x18 SLOAD PUSH2 0x1929 DUP2 PUSH2 0x6488 JUMP JUMPDEST DUP3 SWAP2 DUP4 JUMPDEST DUP2 DUP2 LT PUSH2 0x197A JUMPI POP POP PUSH2 0x193F DUP3 PUSH2 0x6488 JUMP JUMPDEST SWAP3 JUMPDEST DUP3 DUP2 LT PUSH2 0x1956 JUMPI PUSH1 0x40 MLOAD DUP1 PUSH2 0x3F0 DUP7 DUP3 PUSH2 0x4C30 JUMP JUMPDEST DUP1 PUSH2 0x1964 PUSH2 0x1975 SWAP3 DUP5 PUSH2 0x5AC2 JUMP JUMPDEST MLOAD PUSH2 0x196F DUP3 DUP8 PUSH2 0x5AC2 JUMP JUMPDEST MSTORE PUSH2 0x5087 JUMP JUMPDEST PUSH2 0x1941 JUMP JUMPDEST PUSH2 0x1983 DUP2 PUSH2 0x4BCC JUMP JUMPDEST SWAP1 SLOAD SWAP1 PUSH1 0x3 SHL SHR DUP1 DUP7 MSTORE PUSH1 0x20 PUSH1 0x1 DUP2 MSTORE PUSH1 0xFF PUSH1 0xC PUSH1 0x40 DUP10 KECCAK256 ADD SLOAD AND PUSH1 0x5 DUP2 LT ISZERO PUSH2 0x1A03 JUMPI PUSH1 0x4 EQ SWAP1 DUP2 PUSH2 0x19E0 JUMPI JUMPDEST POP PUSH2 0x19C6 JUMPI JUMPDEST POP PUSH2 0x19C1 SWAP1 PUSH2 0x5087 JUMP JUMPDEST PUSH2 0x192D JUMP JUMPDEST DUP5 PUSH2 0x19D9 SWAP2 PUSH2 0x196F PUSH2 0x19C1 SWAP5 SWAP8 DUP8 PUSH2 0x5AC2 JUMP JUMPDEST SWAP4 SWAP1 PUSH2 0x19B7 JUMP JUMPDEST PUSH1 0x19 SWAP2 POP DUP3 DUP9 MSTORE MSTORE PUSH1 0x40 DUP7 KECCAK256 SLOAD PUSH3 0x278D00 DUP2 ADD DUP1 SWAP2 GT PUSH2 0x775 JUMPI TIMESTAMP LT ISZERO CODESIZE PUSH2 0x19B1 JUMP JUMPDEST PUSH4 0x4E487B71 PUSH1 0xE0 SHL DUP9 MSTORE PUSH1 0x21 PUSH1 0x4 MSTORE PUSH1 0x24 DUP9 REVERT JUMPDEST POP CALLVALUE PUSH2 0x39E JUMPI PUSH1 0x20 CALLDATASIZE PUSH1 0x3 NOT ADD SLT PUSH2 0x39E JUMPI PUSH1 0x4 CALLDATALOAD DUP1 DUP3 MSTORE PUSH1 0x1 PUSH1 0x20 MSTORE PUSH1 0x40 DUP3 KECCAK256 DUP1 SLOAD PUSH1 0x1 PUSH1 0x1 PUSH1 0xA0 SHL SUB AND CALLER SUB PUSH2 0x1B27 JUMPI PUSH1 0xFF PUSH1 0xC DUP3 ADD SLOAD AND PUSH1 0x5 DUP2 LT ISZERO PUSH2 0x1B13 JUMPI SWAP1 PUSH2 0x1A67 PUSH1 0x9 SWAP3 ISZERO PUSH2 0x52A4 JUMP JUMPDEST ADD SLOAD PUSH2 0xA8BF NOT DUP2 ADD SWAP1 DUP2 GT PUSH2 0x1AFF JUMPI TIMESTAMP LT ISZERO PUSH2 0x1AB0 JUMPI PUSH1 0x40 MLOAD PUSH2 0x159E SWAP2 PUSH2 0x1A8D DUP3 PUSH2 0x4DFB JUMP JUMPDEST PUSH1 0x11 DUP3 MSTORE PUSH17 0x10DC99585D1BDC8818D85B98D95B1B1959 PUSH1 0x7A SHL PUSH1 0x20 DUP4 ADD MSTORE PUSH2 0x5A62 JUMP JUMPDEST PUSH1 0x40 MLOAD PUSH3 0x461BCD PUSH1 0xE5 SHL DUP2 MSTORE PUSH1 0x20 PUSH1 0x4 DUP3 ADD MSTORE PUSH1 0x21 PUSH1 0x24 DUP3 ADD MSTORE PUSH32 0x4D61726B65744D616E616765723A20546F6F206C61746520746F2063616E6365 PUSH1 0x44 DUP3 ADD MSTORE PUSH1 0x1B PUSH1 0xFA SHL PUSH1 0x64 DUP3 ADD MSTORE PUSH1 0x84 SWAP1 REVERT JUMPDEST PUSH4 0x4E487B71 PUSH1 0xE0 SHL DUP4 MSTORE PUSH1 0x11 PUSH1 0x4 MSTORE PUSH1 0x24 DUP4 REVERT JUMPDEST PUSH4 0x4E487B71 PUSH1 0xE0 SHL DUP5 MSTORE PUSH1 0x21 PUSH1 0x4 MSTORE PUSH1 0x24 DUP5 REVERT JUMPDEST PUSH1 0x40 MLOAD PUSH3 0x461BCD PUSH1 0xE5 SHL DUP2 MSTORE PUSH1 0x20 PUSH1 0x4 DUP3 ADD MSTORE PUSH1 0x26 PUSH1 0x24 DUP3 ADD MSTORE PUSH32 0x4D61726B65744D616E616765723A204F6E6C792063726561746F722063616E20 PUSH1 0x44 DUP3 ADD MSTORE PUSH6 0x18D85B98D95B PUSH1 0xD2 SHL PUSH1 0x64 DUP3 ADD MSTORE PUSH1 0x84 SWAP1 REVERT JUMPDEST POP CALLVALUE PUSH2 0x39E JUMPI PUSH2 0x1B8A CALLDATASIZE PUSH2 0x4C1A JUMP JUMPDEST SWAP2 SWAP1 DUP2 MSTORE PUSH1 0x6 PUSH1 0x20 MSTORE PUSH1 0x40 DUP2 KECCAK256 SWAP1 DUP2 SLOAD DUP4 LT ISZERO PUSH2 0x39E JUMPI PUSH1 0x20 PUSH2 0x1761 DUP5 DUP5 PUSH2 0x4C02 JUMP JUMPDEST POP CALLVALUE PUSH2 0x39E JUMPI DUP1 PUSH1 0x3 NOT CALLDATASIZE ADD SLT PUSH2 0x39E JUMPI PUSH1 0x20 PUSH1 0x13 SLOAD PUSH1 0x40 MLOAD SWAP1 DUP2 MSTORE RETURN JUMPDEST POP CALLVALUE PUSH2 0x39E JUMPI DUP1 PUSH1 0x3 NOT CALLDATASIZE ADD SLT PUSH2 0x39E JUMPI PUSH1 0xF SLOAD PUSH1 0x0 NOT SWAP1 DUP2 DUP2 ADD DUP2 DUP2 GT PUSH2 0x1C41 JUMPI PUSH2 0x1BF6 SWAP1 PUSH2 0x6488 JUMP JUMPDEST SWAP2 PUSH1 0x1 JUMPDEST DUP3 DUP2 LT PUSH2 0x1C0F JUMPI PUSH1 0x40 MLOAD DUP1 PUSH2 0x3F0 DUP7 DUP3 PUSH2 0x4C30 JUMP JUMPDEST DUP2 DUP2 ADD DUP2 DUP2 GT PUSH2 0x1C2D JUMPI SWAP1 DUP1 PUSH2 0x196F PUSH2 0x1C28 SWAP4 DUP8 PUSH2 0x5AC2 JUMP JUMPDEST PUSH2 0x1BFA JUMP JUMPDEST PUSH4 0x4E487B71 PUSH1 0xE0 SHL DUP7 MSTORE PUSH1 0x11 PUSH1 0x4 MSTORE PUSH1 0x24 DUP7 REVERT JUMPDEST PUSH4 0x4E487B71 PUSH1 0xE0 SHL DUP5 MSTORE PUSH1 0x11 PUSH1 0x4 MSTORE PUSH1 0x24 DUP5 REVERT JUMPDEST POP CALLVALUE PUSH2 0x39E JUMPI PUSH1 0x20 CALLDATASIZE PUSH1 0x3 NOT ADD SLT PUSH2 0x39E JUMPI PUSH1 0x4 CALLDATALOAD DUP2 MSTORE PUSH1 0x1 PUSH1 0x20 MSTORE PUSH1 0x40 SWAP1 KECCAK256 PUSH1 0x1 PUSH1 0xA0 SHL PUSH1 0x1 SWAP1 SUB DUP1 DUP3 SLOAD AND SWAP2 PUSH1 0x1 DUP2 ADD PUSH2 0x1C90 SWAP1 PUSH2 0x4EE4 JUMP JUMPDEST SWAP2 PUSH1 0x2 DUP3 ADD SLOAD PUSH1 0xFF AND SWAP2 PUSH1 0x3 DUP2 ADD SLOAD SWAP2 PUSH1 0x4 DUP3 ADD SLOAD AND PUSH1 0x5 DUP3 ADD SLOAD PUSH1 0x6 DUP4 ADD SLOAD PUSH1 0x7 DUP5 ADD SLOAD PUSH1 0x8 DUP6 ADD SLOAD PUSH1 0x9 DUP7 ADD SLOAD SWAP2 PUSH1 0xA DUP8 ADD SLOAD SWAP4 PUSH1 0xB DUP9 ADD SLOAD SWAP6 PUSH1 0xC DUP10 ADD SLOAD PUSH1 0xFF AND SWAP8 PUSH1 0xD DUP11 ADD SLOAD SWAP10 PUSH1 0xE ADD SLOAD PUSH1 0xFF AND SWAP11 PUSH1 0x40 MLOAD SWAP15 DUP16 SWAP15 DUP16 SWAP2 DUP3 MSTORE PUSH2 0x1E0 DUP1 PUSH1 0x20 DUP5 ADD MSTORE DUP3 ADD PUSH2 0x1D01 SWAP2 PUSH2 0x4CA8 JUMP JUMPDEST SWAP14 ISZERO ISZERO PUSH1 0x40 DUP3 ADD MSTORE PUSH1 0x60 ADD MSTORE PUSH1 0x80 DUP14 ADD MSTORE PUSH1 0xA0 DUP13 ADD MSTORE PUSH1 0xC0 DUP12 ADD MSTORE PUSH1 0xE0 DUP11 ADD MSTORE PUSH2 0x100 DUP10 ADD MSTORE PUSH2 0x120 DUP9 ADD MSTORE PUSH2 0x140 DUP8 ADD MSTORE PUSH2 0x160 DUP7 ADD MSTORE PUSH2 0x180 DUP6 ADD PUSH2 0x1D47 SWAP2 PUSH2 0x4CE8 JUMP JUMPDEST PUSH2 0x1A0 DUP5 ADD MSTORE ISZERO ISZERO PUSH2 0x1C0 DUP4 ADD MSTORE SUB SWAP1 RETURN JUMPDEST POP CALLVALUE PUSH2 0x39E JUMPI PUSH1 0x20 CALLDATASIZE PUSH1 0x3 NOT ADD SLT PUSH2 0x39E JUMPI PUSH1 0x4 CALLDATALOAD SWAP1 DUP2 DUP2 MSTORE PUSH1 0x1 PUSH1 0x20 MSTORE PUSH1 0x40 DUP2 KECCAK256 SWAP2 PUSH1 0xC DUP4 ADD SWAP3 DUP4 SLOAD PUSH1 0xFF DUP2 AND SWAP5 PUSH1 0x5 DUP7 LT ISZERO PUSH2 0xB67 JUMPI PUSH2 0x1DA1 PUSH1 0x1 PUSH1 0x24 SWAP6 SWAP7 SWAP8 EQ PUSH2 0x5564 JUMP JUMPDEST PUSH1 0xE DUP4 ADD SWAP3 DUP4 SLOAD PUSH2 0x1DB5 PUSH1 0xFF DUP3 AND ISZERO PUSH2 0x55C1 JUMP JUMPDEST PUSH1 0xD SLOAD PUSH1 0x40 DUP1 MLOAD PUSH4 0x33138655 PUSH1 0xE2 SHL DUP2 MSTORE PUSH1 0x4 DUP2 ADD DUP11 SWAP1 MSTORE SWAP8 PUSH1 0x1 PUSH1 0x1 PUSH1 0xA0 SHL SUB SWAP7 SWAP3 DUP10 SWAP2 SWAP1 DUP3 SWAP1 DUP10 AND GAS STATICCALL SWAP7 DUP8 ISZERO PUSH2 0x1F1D JUMPI DUP10 SWAP1 DUP11 SWAP9 PUSH2 0x1EE9 JUMPI JUMPDEST POP ISZERO PUSH2 0x1E98 JUMPI DUP9 SWAP6 DUP8 PUSH1 0xD PUSH1 0x2 SWAP6 ADD SSTORE PUSH1 0x1 PUSH1 0xFF NOT DUP1 SWAP5 AND OR SWAP1 SSTORE AND OR SWAP1 SSTORE PUSH2 0x1E1A DUP4 DUP6 PUSH2 0x5AD6 JUMP JUMPDEST PUSH2 0x1E23 DUP5 PUSH2 0x5CBE JUMP JUMPDEST PUSH1 0xE SLOAD AND DUP1 PUSH2 0x1E4B JUMPI JUMPDEST POP POP PUSH1 0x20 PUSH1 0x0 DUP1 MLOAD PUSH1 0x20 PUSH2 0x657B DUP4 CODECOPY DUP2 MLOAD SWAP2 MSTORE SWAP2 PUSH1 0x40 MLOAD SWAP1 DUP2 MSTORE LOG2 DUP1 RETURN JUMPDEST DUP1 EXTCODESIZE ISZERO PUSH2 0x62D JUMPI DUP2 DUP1 SWAP2 PUSH1 0x44 PUSH1 0x40 MLOAD DUP1 SWAP5 DUP2 SWAP4 PUSH3 0xFF4A73 PUSH1 0xE8 SHL DUP4 MSTORE DUP10 PUSH1 0x4 DUP5 ADD MSTORE DUP9 PUSH1 0x24 DUP5 ADD MSTORE GAS CALL DUP1 ISZERO PUSH2 0x622 JUMPI ISZERO PUSH2 0x1E2D JUMPI PUSH2 0x1E89 SWAP1 PUSH2 0x4DCC JUMP JUMPDEST PUSH2 0x1E94 JUMPI DUP3 CODESIZE PUSH2 0x1E2D JUMP JUMPDEST DUP3 DUP1 REVERT JUMPDEST PUSH1 0x40 MLOAD PUSH3 0x461BCD PUSH1 0xE5 SHL DUP2 MSTORE PUSH1 0x20 PUSH1 0x4 DUP3 ADD MSTORE PUSH1 0x24 DUP1 DUP3 ADD MSTORE PUSH32 0x4D61726B65744D616E616765723A204E6F207265736F6C7574696F6E20726561 PUSH1 0x44 DUP3 ADD MSTORE PUSH4 0x18DA1959 PUSH1 0xE2 SHL PUSH1 0x64 DUP3 ADD MSTORE PUSH1 0x84 SWAP1 REVERT JUMPDEST SWAP1 POP PUSH2 0x1F0E SWAP2 SWAP8 POP PUSH1 0x40 RETURNDATASIZE PUSH1 0x40 GT PUSH2 0x1F16 JUMPI JUMPDEST PUSH2 0x1F06 DUP2 DUP4 PUSH2 0x4E16 JUMP JUMPDEST DUP2 ADD SWAP1 PUSH2 0x564F JUMP JUMPDEST SWAP7 SWAP1 CODESIZE PUSH2 0x1DF1 JUMP JUMPDEST POP RETURNDATASIZE PUSH2 0x1EFC JUMP JUMPDEST PUSH1 0x40 MLOAD RETURNDATASIZE DUP12 DUP3 RETURNDATACOPY RETURNDATASIZE SWAP1 REVERT JUMPDEST POP CALLVALUE PUSH2 0x39E JUMPI PUSH1 0x20 CALLDATASIZE PUSH1 0x3 NOT ADD SLT PUSH2 0x39E JUMPI PUSH1 0x40 PUSH1 0x20 SWAP2 PUSH1 0x4 CALLDATALOAD DUP2 MSTORE PUSH1 0x19 DUP4 MSTORE KECCAK256 SLOAD PUSH1 0x40 MLOAD SWAP1 DUP2 MSTORE RETURN JUMPDEST POP CALLVALUE PUSH2 0x39E JUMPI PUSH1 0x20 CALLDATASIZE PUSH1 0x3 NOT ADD SLT PUSH2 0x39E JUMPI PUSH1 0x4 CALLDATALOAD SWAP1 PUSH1 0xB SLOAD DUP3 LT ISZERO PUSH2 0x39E JUMPI PUSH1 0x20 PUSH2 0x1761 DUP4 PUSH2 0x4BE7 JUMP JUMPDEST POP CALLVALUE PUSH2 0x39E JUMPI DUP1 PUSH1 0x3 NOT CALLDATASIZE ADD SLT PUSH2 0x39E JUMPI PUSH1 0x40 MLOAD PUSH1 0x14 DUP1 SLOAD DUP1 DUP4 MSTORE SWAP1 DUP4 MSTORE PUSH1 0x20 DUP1 DUP4 ADD SWAP4 PUSH32 0xCE6D7B5282BD9A3661AE061FEED1DBDA4E52AB073B1F9285BE6E155D9C38D4EC SWAP3 SWAP2 JUMPDEST DUP3 DUP3 LT PUSH2 0x1FE8 JUMPI PUSH2 0x3F0 DUP6 PUSH2 0x1FDC DUP2 DUP10 SUB DUP3 PUSH2 0x4E16 JUMP JUMPDEST PUSH1 0x40 MLOAD SWAP2 DUP3 SWAP2 DUP3 PUSH2 0x4C30 JUMP JUMPDEST DUP4 SLOAD DUP7 MSTORE SWAP5 DUP6 ADD SWAP5 PUSH1 0x1 SWAP4 DUP5 ADD SWAP4 SWAP1 SWAP2 ADD SWAP1 PUSH2 0x1FC5 JUMP JUMPDEST POP CALLVALUE PUSH2 0x39E JUMPI PUSH1 0x20 CALLDATASIZE PUSH1 0x3 NOT ADD SLT PUSH2 0x39E JUMPI PUSH1 0x40 PUSH1 0x20 SWAP2 PUSH1 0x4 CALLDATALOAD DUP2 MSTORE PUSH1 0x6 DUP4 MSTORE KECCAK256 SLOAD PUSH1 0x40 MLOAD SWAP1 DUP2 MSTORE RETURN JUMPDEST POP CALLVALUE PUSH2 0x39E JUMPI PUSH1 0x20 CALLDATASIZE PUSH1 0x3 NOT ADD SLT PUSH2 0x39E JUMPI PUSH2 0x2043 PUSH2 0x4F8A JUMP JUMPDEST PUSH1 0x4 CALLDATALOAD PUSH1 0x10 SSTORE DUP1 RETURN JUMPDEST POP CALLVALUE PUSH2 0x39E JUMPI PUSH1 0x40 CALLDATASIZE PUSH1 0x3 NOT ADD SLT PUSH2 0x39E JUMPI PUSH2 0x2066 PUSH2 0x4B1F JUMP JUMPDEST PUSH1 0x1 PUSH1 0x1 PUSH1 0xA0 SHL SUB AND DUP2 MSTORE PUSH1 0x16 PUSH1 0x20 MSTORE PUSH1 0x40 DUP2 KECCAK256 DUP1 SLOAD PUSH1 0x24 CALLDATALOAD SWAP3 SWAP1 DUP4 LT ISZERO PUSH2 0x39E JUMPI PUSH1 0x20 PUSH2 0x2094 DUP5 DUP5 PUSH2 0x4C02 JUMP JUMPDEST SWAP1 SLOAD PUSH1 0x40 MLOAD SWAP2 PUSH1 0x3 SHL SHR DUP2 MSTORE RETURN JUMPDEST POP CALLVALUE PUSH2 0x39E JUMPI PUSH1 0x20 CALLDATASIZE PUSH1 0x3 NOT ADD SLT PUSH2 0x39E JUMPI PUSH2 0x20BC PUSH2 0x4B1F JUMP JUMPDEST PUSH2 0x20C4 PUSH2 0x4F8A JUMP JUMPDEST PUSH1 0xD DUP1 SLOAD PUSH1 0x1 PUSH1 0x1 PUSH1 0xA0 SHL SUB NOT AND PUSH1 0x1 PUSH1 0x1 PUSH1 0xA0 SHL SUB SWAP3 SWAP1 SWAP3 AND SWAP2 SWAP1 SWAP2 OR SWAP1 SSTORE DUP1 RETURN JUMPDEST POP CALLVALUE PUSH2 0x39E JUMPI PUSH1 0x20 DUP1 PUSH1 0x3 NOT CALLDATASIZE ADD SLT PUSH2 0x62D JUMPI PUSH1 0x4 CALLDATALOAD DUP3 MSTORE PUSH1 0x17 DUP2 MSTORE PUSH1 0x40 DUP3 KECCAK256 SWAP2 PUSH1 0x40 MLOAD DUP1 SWAP4 DUP5 SWAP2 DUP5 DUP3 SLOAD SWAP2 DUP3 DUP2 MSTORE ADD SWAP2 DUP5 MSTORE DUP5 DUP5 KECCAK256 SWAP4 JUMPDEST DUP6 DUP3 DUP3 LT PUSH2 0x214A JUMPI POP POP POP PUSH2 0x2136 SWAP3 POP SUB DUP4 PUSH2 0x4E16 JUMP JUMPDEST PUSH2 0x3F0 PUSH1 0x40 MLOAD SWAP3 DUP3 DUP5 SWAP4 DUP5 MSTORE DUP4 ADD SWAP1 PUSH2 0x4C6B JUMP JUMPDEST DUP6 SLOAD PUSH1 0x1 PUSH1 0x1 PUSH1 0xA0 SHL SUB AND DUP5 MSTORE PUSH1 0x1 SWAP6 DUP7 ADD SWAP6 DUP9 SWAP6 POP SWAP4 ADD SWAP3 ADD PUSH2 0x211F JUMP JUMPDEST POP CALLVALUE PUSH2 0x39E JUMPI DUP1 PUSH1 0x3 NOT CALLDATASIZE ADD SLT PUSH2 0x39E JUMPI SLOAD PUSH1 0x40 MLOAD PUSH1 0x1 PUSH1 0x1 PUSH1 0xA0 SHL SUB SWAP1 SWAP2 AND DUP2 MSTORE PUSH1 0x20 SWAP1 RETURN JUMPDEST POP CALLVALUE PUSH2 0x39E JUMPI DUP1 PUSH1 0x3 NOT CALLDATASIZE ADD SLT PUSH2 0x39E JUMPI PUSH1 0x20 PUSH1 0xFF PUSH1 0x12 SLOAD AND PUSH1 0x40 MLOAD SWAP1 ISZERO ISZERO DUP2 MSTORE RETURN JUMPDEST POP CALLVALUE PUSH2 0x39E JUMPI PUSH1 0x20 CALLDATASIZE PUSH1 0x3 NOT ADD SLT PUSH2 0x39E JUMPI PUSH1 0x4 CALLDATALOAD SWAP1 PUSH1 0x18 SLOAD DUP3 LT ISZERO PUSH2 0x39E JUMPI PUSH1 0x20 PUSH2 0x2094 DUP4 PUSH2 0x4BCC JUMP JUMPDEST POP CALLVALUE PUSH2 0x39E JUMPI PUSH2 0x1297 SWAP1 PUSH1 0x20 PUSH2 0x21F3 CALLDATASIZE PUSH2 0x4B4B JUMP JUMPDEST PUSH1 0xC SLOAD PUSH1 0x40 MLOAD PUSH4 0x423E7BC1 PUSH1 0xE1 SHL DUP2 MSTORE SWAP7 DUP8 SWAP5 PUSH1 0x1 PUSH1 0x1 PUSH1 0xA0 SHL SUB SWAP1 SWAP3 AND SWAP4 DUP6 SWAP4 DUP5 SWAP4 SWAP1 SWAP2 SWAP1 PUSH1 0x4 DUP6 ADD PUSH2 0x5544 JUMP JUMPDEST POP CALLVALUE PUSH2 0x39E JUMPI PUSH1 0x20 CALLDATASIZE PUSH1 0x3 NOT ADD SLT PUSH2 0x39E JUMPI PUSH1 0x4 CALLDATALOAD PUSH1 0x1A SLOAD DUP2 LT ISZERO PUSH2 0x62D JUMPI PUSH1 0x1A PUSH1 0x0 MSTORE PUSH1 0x0 DUP1 MLOAD PUSH1 0x20 PUSH2 0x653B DUP4 CODECOPY DUP2 MLOAD SWAP2 MSTORE ADD SLOAD PUSH1 0x40 MLOAD SWAP1 DUP2 MSTORE PUSH1 0x20 SWAP1 RETURN JUMPDEST POP CALLVALUE PUSH2 0x39E JUMPI DUP1 PUSH1 0x3 NOT CALLDATASIZE ADD SLT PUSH2 0x39E JUMPI PUSH1 0xE SLOAD PUSH1 0x40 MLOAD PUSH1 0x1 PUSH1 0x1 PUSH1 0xA0 SHL SUB SWAP1 SWAP2 AND DUP2 MSTORE PUSH1 0x20 SWAP1 RETURN JUMPDEST POP CALLVALUE PUSH2 0x39E JUMPI PUSH1 0x20 CALLDATASIZE PUSH1 0x3 NOT ADD SLT PUSH2 0x39E JUMPI PUSH1 0x4 CALLDATALOAD DUP1 DUP3 MSTORE PUSH1 0x1 PUSH1 0x20 MSTORE PUSH1 0x40 DUP3 KECCAK256 SWAP1 PUSH1 0xFF PUSH1 0xC DUP4 ADD SLOAD AND PUSH1 0x5 DUP2 LT ISZERO PUSH2 0x1B13 JUMPI PUSH1 0x1 PUSH2 0x22CA SWAP2 EQ PUSH2 0x5564 JUMP JUMPDEST PUSH1 0xB DUP3 ADD SLOAD TIMESTAMP LT PUSH2 0x22F7 JUMPI PUSH2 0x22E9 PUSH1 0xFF PUSH1 0xE PUSH2 0x159E SWAP5 ADD SLOAD AND ISZERO PUSH2 0x55C1 JUMP JUMPDEST PUSH2 0x22F1 PUSH2 0x560D JUMP JUMPDEST SWAP1 PUSH2 0x5A62 JUMP JUMPDEST PUSH1 0x40 MLOAD PUSH3 0x461BCD PUSH1 0xE5 SHL DUP2 MSTORE PUSH1 0x20 PUSH1 0x4 DUP3 ADD MSTORE PUSH1 0x2A PUSH1 0x24 DUP3 ADD MSTORE PUSH32 0x4D61726B65744D616E616765723A205265736F6C7574696F6E20706572696F64 PUSH1 0x44 DUP3 ADD MSTORE PUSH10 0x81B9BDD08195B991959 PUSH1 0xB2 SHL PUSH1 0x64 DUP3 ADD MSTORE PUSH1 0x84 SWAP1 REVERT JUMPDEST POP CALLVALUE PUSH2 0x39E JUMPI PUSH1 0x20 CALLDATASIZE PUSH1 0x3 NOT ADD SLT PUSH2 0x39E JUMPI PUSH2 0x2369 PUSH2 0x4B1F JUMP JUMPDEST PUSH2 0x2371 PUSH2 0x4F8A JUMP JUMPDEST PUSH1 0x1 PUSH1 0x1 PUSH1 0xA0 SHL SUB SWAP1 DUP2 AND SWAP1 DUP2 ISZERO PUSH2 0x2440 JUMPI DUP2 DUP4 MSTORE PUSH1 0x7 PUSH1 0x20 MSTORE PUSH2 0x239B PUSH1 0xFF PUSH1 0x40 DUP6 KECCAK256 SLOAD AND PUSH2 0x500C JUMP JUMPDEST DUP2 DUP4 MSTORE PUSH1 0x7 PUSH1 0x20 MSTORE PUSH1 0x40 DUP4 KECCAK256 PUSH1 0xFF NOT DUP2 SLOAD AND SWAP1 SSTORE PUSH1 0x8 PUSH1 0x20 MSTORE PUSH2 0x23C0 PUSH1 0x40 DUP5 KECCAK256 PUSH2 0x6288 JUMP JUMPDEST DUP3 JUMPDEST PUSH1 0x9 DUP1 SLOAD DUP1 DUP4 LT ISZERO PUSH2 0x167D JUMPI DUP4 DUP6 PUSH2 0x23D9 DUP6 PUSH2 0x4B80 JUMP JUMPDEST SWAP3 SWAP1 SLOAD PUSH1 0x3 SWAP4 DUP5 SHL SHR AND EQ PUSH2 0x23F9 JUMPI POP POP POP PUSH2 0x23F4 SWAP1 PUSH2 0x5087 JUMP JUMPDEST PUSH2 0x23C2 JUMP JUMPDEST SWAP2 SWAP5 POP PUSH1 0x0 NOT SWAP4 SWAP2 SWAP1 DUP5 DUP2 ADD SWAP1 DUP2 GT PUSH2 0x775 JUMPI SWAP2 PUSH2 0x157F SWAP2 PUSH2 0x241E PUSH2 0x242A SWAP6 SWAP5 PUSH2 0x4B80 JUMP JUMPDEST SWAP1 SLOAD SWAP2 SHL SHR AND SWAP2 PUSH2 0x4B80 JUMP JUMPDEST DUP2 SLOAD DUP1 ISZERO PUSH2 0x1667 JUMPI ADD SWAP1 PUSH2 0x1663 PUSH2 0x164E DUP4 PUSH2 0x4B80 JUMP JUMPDEST PUSH1 0x40 MLOAD PUSH3 0x461BCD PUSH1 0xE5 SHL DUP2 MSTORE PUSH1 0x20 PUSH1 0x4 DUP3 ADD MSTORE PUSH1 0x29 PUSH1 0x24 DUP3 ADD MSTORE PUSH32 0x4D61726B65744D616E616765723A2043616E6E6F742072656D6F7665206E6174 PUSH1 0x44 DUP3 ADD MSTORE PUSH9 0x34BB32903A37B5B2B7 PUSH1 0xB9 SHL PUSH1 0x64 DUP3 ADD MSTORE PUSH1 0x84 SWAP1 REVERT JUMPDEST POP CALLVALUE PUSH2 0x39E JUMPI PUSH1 0x20 CALLDATASIZE PUSH1 0x3 NOT ADD SLT PUSH2 0x39E JUMPI PUSH2 0x24B1 PUSH2 0x4B1F JUMP JUMPDEST PUSH2 0x24B9 PUSH2 0x4F8A JUMP JUMPDEST PUSH1 0xE DUP1 SLOAD PUSH1 0x1 PUSH1 0x1 PUSH1 0xA0 SHL SUB NOT AND PUSH1 0x1 PUSH1 0x1 PUSH1 0xA0 SHL SUB SWAP3 SWAP1 SWAP3 AND SWAP2 SWAP1 SWAP2 OR SWAP1 SSTORE DUP1 RETURN JUMPDEST POP CALLVALUE PUSH2 0x39E JUMPI PUSH1 0x40 CALLDATASIZE PUSH1 0x3 NOT ADD SLT PUSH2 0x39E JUMPI PUSH2 0x24F6 PUSH2 0x4B1F JUMP JUMPDEST PUSH1 0x24 PUSH1 0x1 PUSH1 0x1 PUSH1 0x40 SHL SUB DUP2 CALLDATALOAD DUP2 DUP2 GT PUSH2 0xD3C JUMPI PUSH2 0x2517 SWAP1 CALLDATASIZE SWAP1 PUSH1 0x4 ADD PUSH2 0x4E54 JUMP JUMPDEST PUSH2 0x251F PUSH2 0x4F8A JUMP JUMPDEST PUSH1 0x1 PUSH1 0x1 PUSH1 0xA0 SHL SUB DUP5 AND SWAP2 DUP3 ISZERO PUSH2 0x274B JUMPI DUP2 MLOAD ISZERO PUSH2 0x26FB JUMPI DUP3 DUP7 MSTORE PUSH1 0x20 SWAP3 PUSH1 0x7 DUP5 MSTORE PUSH1 0xFF PUSH1 0x40 DUP9 KECCAK256 SLOAD AND PUSH2 0x26A8 JUMPI DUP7 MSTORE PUSH1 0x7 DUP4 MSTORE PUSH1 0x40 DUP7 KECCAK256 SWAP3 PUSH1 0x1 SWAP4 DUP5 PUSH1 0xFF NOT DUP3 SLOAD AND OR SWAP1 SSTORE PUSH1 0x8 DUP2 MSTORE PUSH1 0x40 DUP8 KECCAK256 SWAP3 DUP1 MLOAD SWAP3 DUP4 GT PUSH2 0x2695 JUMPI SWAP1 DUP3 SWAP2 PUSH2 0x2584 DUP6 SLOAD PUSH2 0x4EAA JUMP JUMPDEST PUSH1 0x1F DUP2 GT PUSH2 0x265C JUMPI JUMPDEST POP DUP2 PUSH1 0x1F DUP5 GT PUSH1 0x1 EQ PUSH2 0x25F9 JUMPI POP DUP9 SWAP3 PUSH2 0x25EE JUMPI JUMPDEST POP POP PUSH1 0x0 NOT PUSH1 0x3 DUP4 SWAP1 SHL SHR NOT AND SWAP1 DUP4 SHL OR SWAP1 SSTORE JUMPDEST PUSH1 0x9 SLOAD SWAP2 PUSH1 0x1 PUSH1 0x40 SHL DUP4 LT ISZERO PUSH2 0x25DA JUMPI POP DUP2 PUSH2 0x157F SWAP2 PUSH2 0x159E SWAP5 SWAP4 ADD PUSH1 0x9 SSTORE PUSH2 0x4B80 JUMP JUMPDEST PUSH4 0x4E487B71 PUSH1 0xE0 SHL PUSH1 0x0 SWAP1 DUP2 MSTORE PUSH1 0x41 PUSH1 0x4 MSTORE REVERT JUMPDEST ADD MLOAD SWAP1 POP CODESIZE DUP1 PUSH2 0x25A2 JUMP JUMPDEST SWAP2 SWAP1 DUP7 SWAP5 POP PUSH1 0x1F NOT DUP5 AND DUP7 DUP12 MSTORE DUP4 DUP12 KECCAK256 SWAP4 DUP12 SWAP1 JUMPDEST DUP3 DUP3 LT PUSH2 0x2643 JUMPI POP POP DUP5 GT PUSH2 0x262A JUMPI JUMPDEST POP POP POP DUP2 SHL ADD SWAP1 SSTORE PUSH2 0x25B6 JUMP JUMPDEST ADD MLOAD PUSH1 0x0 NOT PUSH1 0xF8 DUP5 PUSH1 0x3 SHL AND SHR NOT AND SWAP1 SSTORE CODESIZE DUP1 DUP1 PUSH2 0x261D JUMP JUMPDEST DUP5 DUP5 ADD MLOAD DUP7 SSTORE DUP10 SWAP8 SWAP1 SWAP6 ADD SWAP5 SWAP4 DUP5 ADD SWAP4 SWAP1 DUP2 ADD SWAP1 PUSH2 0x260D JUMP JUMPDEST PUSH2 0x2685 SWAP1 DUP7 DUP12 MSTORE DUP4 DUP12 KECCAK256 PUSH1 0x1F DUP7 ADD PUSH1 0x5 SHR DUP2 ADD SWAP2 DUP6 DUP8 LT PUSH2 0x268B JUMPI JUMPDEST PUSH1 0x1F ADD PUSH1 0x5 SHR ADD SWAP1 PUSH2 0x50A2 JUMP JUMPDEST CODESIZE PUSH2 0x258D JUMP JUMPDEST SWAP1 SWAP2 POP DUP2 SWAP1 PUSH2 0x2678 JUMP JUMPDEST PUSH4 0x4E487B71 PUSH1 0xE0 SHL DUP9 MSTORE PUSH1 0x41 PUSH1 0x4 MSTORE DUP6 DUP9 REVERT JUMPDEST PUSH1 0x40 MLOAD PUSH3 0x461BCD PUSH1 0xE5 SHL DUP2 MSTORE PUSH1 0x4 DUP2 ADD DUP6 SWAP1 MSTORE PUSH1 0x26 DUP2 DUP8 ADD MSTORE PUSH32 0x4D61726B65744D616E616765723A20546F6B656E20616C726561647920737570 PUSH1 0x44 DUP3 ADD MSTORE PUSH6 0x1C1BDC9D1959 PUSH1 0xD2 SHL PUSH1 0x64 DUP3 ADD MSTORE PUSH1 0x84 SWAP1 REVERT JUMPDEST PUSH1 0x40 MLOAD PUSH3 0x461BCD PUSH1 0xE5 SHL DUP2 MSTORE PUSH1 0x20 PUSH1 0x4 DUP3 ADD MSTORE PUSH1 0x23 DUP2 DUP7 ADD MSTORE PUSH32 0x4D61726B65744D616E616765723A20496E76616C696420746F6B656E2073796D PUSH1 0x44 DUP3 ADD MSTORE PUSH3 0x189BDB PUSH1 0xEA SHL PUSH1 0x64 DUP3 ADD MSTORE PUSH1 0x84 SWAP1 REVERT JUMPDEST PUSH1 0x40 MLOAD PUSH3 0x461BCD PUSH1 0xE5 SHL DUP2 MSTORE PUSH1 0x20 PUSH1 0x4 DUP3 ADD MSTORE DUP1 DUP6 ADD DUP6 SWAP1 MSTORE PUSH32 0x4D61726B65744D616E616765723A20496E76616C696420746F6B656E20616464 PUSH1 0x44 DUP3 ADD MSTORE PUSH4 0x72657373 PUSH1 0xE0 SHL PUSH1 0x64 DUP3 ADD MSTORE PUSH1 0x84 SWAP1 REVERT JUMPDEST POP CALLVALUE PUSH2 0x39E JUMPI DUP1 PUSH1 0x3 NOT CALLDATASIZE ADD SLT PUSH2 0x39E JUMPI PUSH2 0x27B5 PUSH2 0x4F8A JUMP JUMPDEST PUSH1 0x0 DUP1 SLOAD PUSH1 0x1 PUSH1 0x1 PUSH1 0xA0 SHL SUB NOT DUP2 AND DUP3 SSTORE PUSH1 0x1 PUSH1 0x1 PUSH1 0xA0 SHL SUB AND PUSH1 0x0 DUP1 MLOAD PUSH1 0x20 PUSH2 0x655B DUP4 CODECOPY DUP2 MLOAD SWAP2 MSTORE DUP3 DUP1 LOG3 DUP1 RETURN JUMPDEST POP CALLVALUE PUSH2 0x39E JUMPI PUSH1 0x20 DUP1 PUSH1 0x3 NOT CALLDATASIZE ADD SLT PUSH2 0x62D JUMPI PUSH1 0x4 CALLDATALOAD DUP3 MSTORE PUSH1 0x5 DUP2 MSTORE PUSH1 0x40 DUP3 KECCAK256 SWAP2 PUSH1 0x40 MLOAD DUP1 SWAP4 DUP5 SWAP2 DUP5 DUP3 SLOAD SWAP2 DUP3 DUP2 MSTORE ADD SWAP2 DUP5 MSTORE DUP5 DUP5 KECCAK256 SWAP4 JUMPDEST DUP6 DUP3 DUP3 LT PUSH2 0x2833 JUMPI POP POP POP PUSH2 0x2136 SWAP3 POP SUB DUP4 PUSH2 0x4E16 JUMP JUMPDEST DUP6 SLOAD PUSH1 0x1 PUSH1 0x1 PUSH1 0xA0 SHL SUB AND DUP5 MSTORE PUSH1 0x1 SWAP6 DUP7 ADD SWAP6 DUP9 SWAP6 POP SWAP4 ADD SWAP3 ADD PUSH2 0x281C JUMP JUMPDEST POP CALLVALUE PUSH2 0x39E JUMPI DUP1 PUSH1 0x3 NOT CALLDATASIZE ADD SLT PUSH2 0x39E JUMPI PUSH1 0x40 MLOAD PUSH1 0x1A DUP1 SLOAD DUP1 DUP4 MSTORE SWAP1 DUP4 MSTORE PUSH1 0x20 DUP1 DUP4 ADD SWAP4 PUSH1 0x0 DUP1 MLOAD PUSH1 0x20 PUSH2 0x653B DUP4 CODECOPY DUP2 MLOAD SWAP2 MSTORE SWAP3 SWAP2 JUMPDEST DUP3 DUP3 LT PUSH2 0x289F JUMPI PUSH2 0x3F0 DUP6 PUSH2 0x1FDC DUP2 DUP10 SUB DUP3 PUSH2 0x4E16 JUMP JUMPDEST DUP4 SLOAD DUP7 MSTORE SWAP5 DUP6 ADD SWAP5 PUSH1 0x1 SWAP4 DUP5 ADD SWAP4 SWAP1 SWAP2 ADD SWAP1 PUSH2 0x2888 JUMP JUMPDEST POP CALLVALUE PUSH2 0x39E JUMPI PUSH1 0x20 CALLDATASIZE PUSH1 0x3 NOT ADD SLT PUSH2 0x39E JUMPI PUSH1 0x20 SWAP1 PUSH1 0xFF SWAP1 PUSH1 0x40 SWAP1 PUSH1 0x1 PUSH1 0x1 PUSH1 0xA0 SHL SUB PUSH2 0x28E1 PUSH2 0x4B1F JUMP JUMPDEST AND DUP2 MSTORE PUSH1 0x7 DUP5 MSTORE KECCAK256 SLOAD AND PUSH1 0x40 MLOAD SWAP1 ISZERO ISZERO DUP2 MSTORE RETURN JUMPDEST POP CALLVALUE PUSH2 0x39E JUMPI PUSH1 0x20 SWAP1 DUP2 PUSH1 0x3 NOT CALLDATASIZE ADD SLT PUSH2 0x39E JUMPI PUSH1 0x4 CALLDATALOAD SWAP2 DUP3 DUP3 MSTORE PUSH1 0x1 DUP2 MSTORE PUSH1 0x40 DUP3 KECCAK256 SWAP3 PUSH1 0xFF PUSH1 0xC DUP6 ADD SLOAD AND PUSH1 0x5 DUP2 LT ISZERO PUSH2 0x1B13 JUMPI PUSH1 0x2 PUSH2 0x2936 SWAP2 EQ PUSH2 0x58E7 JUMP JUMPDEST PUSH1 0xD DUP5 ADD SLOAD SWAP2 PUSH2 0x2947 DUP4 ISZERO ISZERO PUSH2 0x593E JUMP JUMPDEST DUP2 DUP5 MSTORE PUSH1 0x2 DUP2 MSTORE PUSH1 0x40 DUP5 KECCAK256 CALLER PUSH1 0x0 MSTORE DUP2 MSTORE PUSH2 0x2969 PUSH1 0xFF PUSH1 0x40 PUSH1 0x0 KECCAK256 SLOAD AND PUSH2 0x5989 JUMP JUMPDEST PUSH1 0xC SLOAD PUSH1 0x40 MLOAD PUSH4 0x7C7A72D PUSH1 0xE0 SHL DUP2 MSTORE PUSH1 0x1 PUSH1 0x1 PUSH1 0xA0 SHL SUB SWAP2 DUP3 AND SWAP5 SWAP2 SWAP1 DUP4 DUP2 DUP1 PUSH2 0x2998 CALLER DUP10 PUSH1 0x4 DUP5 ADD PUSH2 0x51AD JUMP JUMPDEST SUB DUP2 DUP10 GAS STATICCALL DUP1 ISZERO PUSH2 0x10D5 JUMPI DUP8 SWAP1 PUSH2 0x2CC4 JUMPI JUMPDEST PUSH2 0x29B5 SWAP2 POP ISZERO PUSH2 0x59D5 JUMP JUMPDEST PUSH1 0x4 DUP8 ADD SLOAD AND SWAP1 PUSH1 0x40 MLOAD SWAP1 PUSH4 0x423E7BC1 PUSH1 0xE1 SHL DUP3 MSTORE DUP4 DUP3 DUP1 PUSH2 0x29DC DUP7 CALLER DUP11 PUSH1 0x4 DUP6 ADD PUSH2 0x5544 JUMP JUMPDEST SUB DUP2 DUP10 GAS STATICCALL SWAP2 DUP3 ISZERO PUSH2 0x10D5 JUMPI DUP8 SWAP3 PUSH2 0x2C95 JUMPI JUMPDEST POP PUSH1 0x40 MLOAD PUSH4 0xDC4CE349 PUSH1 0xE0 SHL DUP1 DUP3 MSTORE SWAP9 DUP6 DUP3 DUP1 PUSH2 0x2A11 DUP9 DUP8 DUP13 PUSH1 0x4 DUP6 ADD PUSH2 0x5A21 JUMP JUMPDEST SUB DUP2 DUP12 GAS STATICCALL SWAP2 DUP3 ISZERO PUSH2 0x1F1D JUMPI DUP10 SWAP3 PUSH2 0x2C66 JUMPI JUMPDEST POP DUP9 SWAP10 PUSH1 0x3 PUSH1 0x1 SWAP3 ADD SLOAD SWAP2 JUMPDEST DUP3 DUP2 GT ISZERO PUSH2 0x2BCF JUMPI POP POP PUSH1 0x40 MLOAD PUSH4 0x4F44289D PUSH1 0xE0 SHL DUP2 MSTORE DUP10 SWAP6 SWAP5 SWAP4 SWAP3 SWAP2 POP DUP11 DUP8 DUP3 DUP1 PUSH2 0x2A60 DUP10 DUP14 PUSH1 0x4 DUP5 ADD PUSH2 0x51AD JUMP JUMPDEST SUB DUP2 DUP14 GAS STATICCALL SWAP2 DUP3 ISZERO PUSH2 0x10D5 JUMPI DUP8 SWAP3 PUSH2 0x2B9B JUMPI JUMPDEST POP SWAP1 PUSH2 0x2A7E SWAP2 PUSH2 0x507A JUMP JUMPDEST DUP2 PUSH2 0x2B0A JUMPI POP POP POP POP DUP2 SWAP5 JUMPDEST DUP1 EXTCODESIZE ISZERO PUSH2 0x1E94 JUMPI DUP6 DUP4 SWAP2 PUSH2 0x2AB7 SWAP4 DUP4 PUSH1 0x40 MLOAD DUP1 SWAP7 DUP2 SWAP6 DUP3 SWAP5 PUSH4 0x2F0041ED PUSH1 0xE1 SHL DUP5 MSTORE CALLER DUP14 PUSH1 0x4 DUP7 ADD PUSH2 0x54A1 JUMP JUMPDEST SUB SWAP3 GAS CALL DUP1 ISZERO PUSH2 0x622 JUMPI PUSH2 0x2AF6 JUMPI JUMPDEST POP POP PUSH32 0x5380CF6FE903B40C6D5A9E0DFBCA2F3A423F0A21520B4D5947ED5169BDBA946D SWAP1 PUSH1 0x40 MLOAD SWAP4 DUP5 MSTORE CALLER SWAP4 LOG3 DUP1 RETURN JUMPDEST PUSH2 0x2AFF SWAP1 PUSH2 0x4DCC JUMP JUMPDEST PUSH2 0x61E JUMPI DUP4 DUP6 PUSH2 0x2AC6 JUMP JUMPDEST DUP1 PUSH2 0x2B3E JUMPI POP POP DUP6 DUP5 MSTORE PUSH1 0x4 DUP6 MSTORE PUSH1 0x40 DUP5 KECCAK256 CALLER PUSH1 0x0 MSTORE DUP6 MSTORE PUSH1 0x40 PUSH1 0x0 KECCAK256 SLOAD EQ PUSH1 0x0 EQ PUSH2 0x2B36 JUMPI SWAP5 PUSH2 0x2A8A JUMP JUMPDEST POP DUP2 SWAP5 PUSH2 0x2A8A JUMP JUMPDEST SWAP2 DUP8 DUP7 SWAP3 SWAP5 SWAP6 SWAP7 MSTORE PUSH1 0x4 DUP8 MSTORE PUSH1 0x40 DUP3 KECCAK256 CALLER PUSH1 0x0 MSTORE DUP8 MSTORE PUSH1 0x40 PUSH1 0x0 KECCAK256 SLOAD EQ PUSH1 0x0 EQ PUSH2 0x2B8F JUMPI POP PUSH2 0x2328 DUP1 DUP3 MUL SWAP2 DUP3 DIV SUB PUSH2 0xE0B JUMPI SWAP2 PUSH2 0x1074 PUSH2 0x2B89 SWAP3 PUSH2 0x106F PUSH2 0x2710 DUP12 SWAP8 SWAP7 DIV DUP5 PUSH2 0x5051 JUMP JUMPDEST SWAP5 PUSH2 0x2A8A JUMP JUMPDEST SWAP4 SWAP3 POP POP POP DUP2 SWAP5 PUSH2 0x2A8A JUMP JUMPDEST DUP9 DUP1 SWAP3 SWAP9 POP DUP2 SWAP4 POP RETURNDATASIZE DUP4 GT PUSH2 0x2BC8 JUMPI JUMPDEST PUSH2 0x2BB5 DUP2 DUP4 PUSH2 0x4E16 JUMP JUMPDEST DUP2 ADD SUB SLT PUSH2 0x10C8 JUMPI MLOAD DUP10 SWAP6 PUSH2 0x2A7E PUSH2 0x2A73 JUMP JUMPDEST POP RETURNDATASIZE PUSH2 0x2BAB JUMP JUMPDEST DUP5 DUP2 SUB PUSH2 0x2BE5 JUMPI JUMPDEST PUSH2 0x2BE0 SWAP1 PUSH2 0x5087 JUMP JUMPDEST PUSH2 0x2A30 JUMP JUMPDEST SWAP11 PUSH2 0x2C04 DUP9 DUP9 DUP13 DUP16 DUP14 PUSH1 0x40 MLOAD SWAP6 DUP7 SWAP5 DUP6 SWAP4 DUP5 SWAP4 DUP12 DUP6 MSTORE PUSH1 0x4 DUP6 ADD PUSH2 0x5A21 JUMP JUMPDEST SUB SWAP2 GAS STATICCALL SWAP1 DUP2 ISZERO PUSH2 0x2C5B JUMPI DUP13 SWAP2 PUSH2 0x2C2C JUMPI JUMPDEST POP PUSH2 0x2C24 SWAP1 PUSH2 0x2BE0 SWAP3 PUSH2 0x507A JUMP JUMPDEST SWAP12 SWAP1 POP PUSH2 0x2BD7 JUMP JUMPDEST SWAP1 POP DUP9 DUP2 DUP2 RETURNDATASIZE DUP4 GT PUSH2 0x2C54 JUMPI JUMPDEST PUSH2 0x2C43 DUP2 DUP4 PUSH2 0x4E16 JUMP JUMPDEST DUP2 ADD SUB SLT PUSH2 0x10C8 JUMPI MLOAD PUSH2 0x2BE0 PUSH2 0x2C16 JUMP JUMPDEST POP RETURNDATASIZE PUSH2 0x2C39 JUMP JUMPDEST PUSH1 0x40 MLOAD RETURNDATASIZE DUP15 DUP3 RETURNDATACOPY RETURNDATASIZE SWAP1 REVERT JUMPDEST SWAP1 SWAP2 POP DUP6 DUP2 DUP2 RETURNDATASIZE DUP4 GT PUSH2 0x2C8E JUMPI JUMPDEST PUSH2 0x2C7E DUP2 DUP4 PUSH2 0x4E16 JUMP JUMPDEST DUP2 ADD SUB SLT PUSH2 0x10C8 JUMPI MLOAD SWAP1 CODESIZE PUSH2 0x2A24 JUMP JUMPDEST POP RETURNDATASIZE PUSH2 0x2C74 JUMP JUMPDEST SWAP1 SWAP2 POP DUP4 DUP2 DUP2 RETURNDATASIZE DUP4 GT PUSH2 0x2CBD JUMPI JUMPDEST PUSH2 0x2CAD DUP2 DUP4 PUSH2 0x4E16 JUMP JUMPDEST DUP2 ADD SUB SLT PUSH2 0x10C8 JUMPI MLOAD SWAP1 CODESIZE PUSH2 0x29EF JUMP JUMPDEST POP RETURNDATASIZE PUSH2 0x2CA3 JUMP JUMPDEST POP DUP4 DUP2 DUP2 RETURNDATASIZE DUP4 GT PUSH2 0x2CF7 JUMPI JUMPDEST PUSH2 0x2CDA DUP2 DUP4 PUSH2 0x4E16 JUMP JUMPDEST DUP2 ADD SUB SLT PUSH2 0x2CF3 JUMPI PUSH2 0x2CEE PUSH2 0x29B5 SWAP2 PUSH2 0x5642 JUMP JUMPDEST PUSH2 0x29AA JUMP JUMPDEST DUP7 DUP1 REVERT JUMPDEST POP RETURNDATASIZE PUSH2 0x2CD0 JUMP JUMPDEST POP CALLVALUE PUSH2 0x39E JUMPI DUP1 PUSH1 0x3 NOT CALLDATASIZE ADD SLT PUSH2 0x39E JUMPI PUSH1 0x40 MLOAD PUSH1 0x18 DUP1 SLOAD DUP1 DUP4 MSTORE SWAP1 DUP4 MSTORE PUSH1 0x20 DUP1 DUP4 ADD SWAP4 PUSH32 0xB13D2D76D1F4B7BE834882E410B3E3A8AFAF69F83600AE24DB354391D2378D2E SWAP3 SWAP2 JUMPDEST DUP3 DUP3 LT PUSH2 0x2D5D JUMPI PUSH2 0x3F0 DUP6 PUSH2 0x1FDC DUP2 DUP10 SUB DUP3 PUSH2 0x4E16 JUMP JUMPDEST DUP4 SLOAD DUP7 MSTORE SWAP5 DUP6 ADD SWAP5 PUSH1 0x1 SWAP4 DUP5 ADD SWAP4 SWAP1 SWAP2 ADD SWAP1 PUSH2 0x2D46 JUMP JUMPDEST POP PUSH2 0x120 CALLDATASIZE PUSH1 0x3 NOT ADD SLT PUSH2 0x39E JUMPI PUSH1 0x4 CALLDATALOAD PUSH1 0x1 PUSH1 0x1 PUSH1 0x40 SHL SUB DUP2 GT PUSH2 0x62D JUMPI PUSH2 0x2DA1 SWAP1 CALLDATASIZE SWAP1 PUSH1 0x4 ADD PUSH2 0x4E54 JUMP JUMPDEST SWAP1 PUSH2 0x2DAA PUSH2 0x4E9B JUMP JUMPDEST PUSH1 0x64 CALLDATALOAD PUSH1 0x1 PUSH1 0x1 PUSH1 0xA0 SHL SUB DUP2 AND SWAP1 SUB PUSH2 0x10C8 JUMPI CALLER DUP3 MSTORE PUSH1 0xA PUSH1 0x20 MSTORE PUSH2 0x2DD6 PUSH1 0xFF PUSH1 0x40 DUP5 KECCAK256 SLOAD AND ISZERO PUSH2 0x4FB6 JUMP JUMPDEST DUP3 MLOAD ISZERO PUSH2 0x38A3 JUMPI PUSH1 0x2 PUSH1 0x44 CALLDATALOAD LT ISZERO DUP1 PUSH2 0x3896 JUMPI JUMPDEST ISZERO PUSH2 0x3846 JUMPI PUSH1 0x84 CALLDATALOAD ISZERO PUSH2 0x3802 JUMPI PUSH1 0xA4 CALLDATALOAD ISZERO PUSH2 0x37AE JUMPI PUSH1 0xC4 CALLDATALOAD ISZERO ISZERO DUP1 PUSH2 0x37A0 JUMPI JUMPDEST ISZERO PUSH2 0x374C JUMPI PUSH1 0x11 SLOAD PUSH1 0xE4 CALLDATALOAD LT PUSH2 0x3705 JUMPI PUSH1 0xE4 CALLDATALOAD PUSH2 0x104 CALLDATALOAD LT PUSH2 0x36A3 JUMPI DUP1 ISZERO PUSH2 0x3669 JUMPI PUSH1 0x64 CALLDATALOAD PUSH1 0x1 PUSH1 0x1 PUSH1 0xA0 SHL SUB AND ISZERO PUSH2 0x3606 JUMPI PUSH1 0x64 CALLDATALOAD PUSH1 0x1 PUSH1 0x1 PUSH1 0xA0 SHL SUB AND DUP3 MSTORE PUSH1 0x7 PUSH1 0x20 MSTORE PUSH1 0x40 DUP3 KECCAK256 SLOAD PUSH1 0xFF AND ISZERO PUSH2 0x35B7 JUMPI JUMPDEST PUSH1 0x10 SLOAD CALLVALUE LT PUSH2 0x3561 JUMPI PUSH1 0x3C PUSH1 0xE4 CALLDATALOAD MUL PUSH1 0xE4 CALLDATALOAD DUP2 DIV PUSH1 0x3C EQ PUSH1 0xE4 CALLDATALOAD ISZERO OR ISZERO PUSH2 0x1AFF JUMPI PUSH2 0x2E89 SWAP1 TIMESTAMP PUSH2 0x507A JUMP JUMPDEST PUSH1 0x3C PUSH2 0x104 CALLDATALOAD MUL PUSH2 0x104 CALLDATALOAD DUP2 DIV PUSH1 0x3C EQ PUSH2 0x104 CALLDATALOAD ISZERO OR ISZERO PUSH2 0x1C41 JUMPI PUSH2 0x2EAE SWAP1 TIMESTAMP PUSH2 0x507A JUMP JUMPDEST SWAP1 PUSH3 0x2A300 DUP3 ADD DUP3 GT PUSH2 0x1C41 JUMPI PUSH1 0xF SLOAD SWAP4 PUSH2 0x2EC8 DUP6 PUSH2 0x5087 JUMP JUMPDEST PUSH1 0xF SSTORE PUSH1 0x40 MLOAD PUSH2 0x2ED7 DUP2 PUSH2 0x4DDF JUMP JUMPDEST CALLER DUP2 MSTORE PUSH1 0x20 DUP1 DUP3 ADD DUP9 DUP2 MSTORE DUP7 ISZERO ISZERO PUSH1 0x40 DUP1 DUP6 ADD SWAP2 SWAP1 SWAP2 MSTORE PUSH1 0x44 CALLDATALOAD PUSH1 0x60 DUP6 ADD MSTORE PUSH1 0x64 CALLDATALOAD PUSH1 0x1 PUSH1 0x1 PUSH1 0xA0 SHL SUB SWAP1 DUP2 AND PUSH1 0x80 DUP7 ADD MSTORE PUSH1 0x84 CALLDATALOAD PUSH1 0xA0 DUP7 ADD MSTORE PUSH1 0xA4 CALLDATALOAD PUSH1 0xC0 DUP7 ADD MSTORE PUSH1 0xC4 CALLDATALOAD PUSH1 0xE0 DUP7 ADD MSTORE TIMESTAMP PUSH2 0x100 DUP7 ADD MSTORE PUSH2 0x120 DUP6 ADD DUP8 SWAP1 MSTORE PUSH2 0x140 DUP6 ADD DUP9 SWAP1 MSTORE PUSH3 0x2A300 DUP9 ADD PUSH2 0x160 DUP7 ADD MSTORE PUSH2 0x180 DUP6 ADD DUP7 SWAP1 MSTORE PUSH2 0x1A0 DUP6 ADD DUP7 SWAP1 MSTORE PUSH2 0x1C0 DUP6 ADD DUP7 SWAP1 MSTORE DUP10 DUP7 MSTORE PUSH1 0x1 SWAP1 SWAP4 MSTORE DUP5 KECCAK256 DUP4 MLOAD DUP2 SLOAD PUSH1 0x1 PUSH1 0x1 PUSH1 0xA0 SHL SUB NOT AND SWAP4 AND SWAP3 SWAP1 SWAP3 OR DUP3 SSTORE MLOAD DUP1 MLOAD SWAP2 SWAP3 SWAP2 SWAP1 PUSH1 0x1 PUSH1 0x1 PUSH1 0x40 SHL SUB DUP3 GT PUSH2 0x354D JUMPI DUP2 SWAP1 PUSH2 0x2FA0 PUSH1 0x1 DUP7 ADD SLOAD PUSH2 0x4EAA JUMP JUMPDEST PUSH1 0x1F DUP2 GT PUSH2 0x351A JUMPI JUMPDEST POP PUSH1 0x20 SWAP1 PUSH1 0x1F DUP4 GT PUSH1 0x1 EQ PUSH2 0x34AB JUMPI DUP7 SWAP3 PUSH2 0x34A0 JUMPI JUMPDEST POP POP DUP2 PUSH1 0x1 SHL SWAP2 PUSH1 0x0 NOT SWAP1 PUSH1 0x3 SHL SHR NOT AND OR PUSH1 0x1 DUP4 ADD SSTORE JUMPDEST PUSH2 0x2FEA PUSH1 0x40 DUP3 ADD MLOAD ISZERO ISZERO PUSH1 0x2 DUP5 ADD PUSH2 0x50B9 JUMP JUMPDEST PUSH1 0x60 DUP2 ADD MLOAD PUSH1 0x3 DUP4 ADD SSTORE PUSH1 0x4 DUP3 ADD PUSH1 0x1 DUP1 PUSH1 0xA0 SHL SUB PUSH1 0x80 DUP4 ADD MLOAD AND PUSH1 0x1 DUP1 PUSH1 0xA0 SHL SUB NOT DUP3 SLOAD AND OR SWAP1 SSTORE PUSH1 0xA0 DUP2 ADD MLOAD PUSH1 0x5 DUP4 ADD SSTORE PUSH1 0xC0 DUP2 ADD MLOAD PUSH1 0x6 DUP4 ADD SSTORE PUSH1 0xE0 DUP2 ADD MLOAD PUSH1 0x7 DUP4 ADD SSTORE PUSH2 0x100 DUP2 ADD MLOAD PUSH1 0x8 DUP4 ADD SSTORE PUSH2 0x120 DUP2 ADD MLOAD PUSH1 0x9 DUP4 ADD SSTORE PUSH2 0x140 DUP2 ADD MLOAD PUSH1 0xA DUP4 ADD SSTORE PUSH2 0x160 DUP2 ADD MLOAD PUSH1 0xB DUP4 ADD SSTORE PUSH1 0xC DUP3 ADD PUSH2 0x180 DUP3 ADD MLOAD PUSH1 0x5 DUP2 LT ISZERO PUSH2 0xB67 JUMPI PUSH2 0x309E SWAP4 SWAP3 PUSH1 0xE SWAP3 PUSH2 0x1C0 SWAP3 PUSH1 0xFF DUP1 NOT DUP4 SLOAD AND SWAP2 AND OR SWAP1 SSTORE PUSH2 0x1A0 DUP2 ADD MLOAD PUSH1 0xD DUP6 ADD SSTORE ADD MLOAD ISZERO ISZERO SWAP2 ADD PUSH2 0x50B9 JUMP JUMPDEST PUSH1 0x14 SLOAD PUSH1 0x1 PUSH1 0x40 SHL DUP2 LT ISZERO PUSH2 0x15A1 JUMPI DUP6 PUSH2 0x30C1 DUP3 PUSH1 0x1 PUSH2 0x30DA SWAP5 ADD PUSH1 0x14 SSTORE PUSH2 0x4BB1 JUMP JUMPDEST SWAP1 SWAP2 SWAP1 DUP3 SLOAD SWAP1 PUSH1 0x3 SHL SWAP2 DUP3 SHL SWAP2 PUSH1 0x0 NOT SWAP1 SHL NOT AND OR SWAP1 SSTORE JUMP JUMPDEST DUP5 DUP2 MSTORE PUSH1 0x15 PUSH1 0x20 MSTORE PUSH1 0x40 DUP2 KECCAK256 DUP1 SLOAD PUSH1 0xFF NOT AND PUSH1 0x1 OR SWAP1 SSTORE PUSH1 0x64 CALLDATALOAD PUSH1 0x1 PUSH1 0x1 PUSH1 0xA0 SHL SUB AND PUSH2 0x3406 JUMPI PUSH1 0x10 SLOAD PUSH2 0x3110 PUSH1 0xA4 CALLDATALOAD DUP3 PUSH2 0x507A JUMP JUMPDEST CALLVALUE LT PUSH2 0x33D4 JUMPI DUP2 DUP1 DUP1 DUP1 PUSH2 0x3138 SWAP5 PUSH1 0x1 DUP1 PUSH1 0xA0 SHL SUB DUP3 SLOAD AND GAS CALL PUSH2 0x3132 PUSH2 0x50ED JUMP JUMPDEST POP PUSH2 0x511D JUMP JUMPDEST DUP1 DUP1 DUP1 DUP1 PUSH1 0xA4 CALLDATALOAD PUSH1 0x1 DUP1 PUSH1 0xA0 SHL SUB PUSH1 0xC SLOAD AND GAS CALL PUSH2 0x3154 PUSH2 0x50ED JUMP JUMPDEST POP ISZERO PUSH2 0x336C JUMPI JUMPDEST DUP5 DUP2 MSTORE PUSH1 0x2 PUSH1 0x20 MSTORE PUSH1 0x40 DUP2 KECCAK256 CALLER PUSH1 0x0 MSTORE PUSH1 0x20 MSTORE PUSH1 0x40 PUSH1 0x0 KECCAK256 PUSH1 0x1 PUSH1 0xFF NOT DUP3 SLOAD AND OR SWAP1 SSTORE DUP5 DUP2 MSTORE PUSH1 0x4 PUSH1 0x20 MSTORE PUSH1 0x40 DUP2 KECCAK256 CALLER PUSH1 0x0 MSTORE PUSH1 0x20 MSTORE PUSH1 0xC4 CALLDATALOAD PUSH1 0x40 PUSH1 0x0 KECCAK256 SSTORE CALLER DUP2 MSTORE PUSH1 0x16 PUSH1 0x20 MSTORE PUSH2 0x31AF DUP6 PUSH1 0x40 DUP4 KECCAK256 PUSH2 0x50CA JUMP JUMPDEST PUSH1 0xC SLOAD PUSH1 0x1 PUSH1 0x1 PUSH1 0xA0 SHL SUB AND DUP1 EXTCODESIZE ISZERO PUSH2 0x62D JUMPI DUP2 PUSH1 0x40 MLOAD DUP1 SWAP3 PUSH4 0x95F41095 PUSH1 0xE0 SHL DUP3 MSTORE DUP2 DUP4 DUP2 PUSH2 0x31EF PUSH1 0xC4 CALLDATALOAD DUP14 PUSH1 0xA4 CALLDATALOAD SWAP1 PUSH1 0x64 CALLDATALOAD SWAP1 CALLER SWAP1 PUSH1 0x4 DUP8 ADD PUSH2 0x517D JUMP JUMPDEST SUB SWAP3 GAS CALL DUP1 ISZERO PUSH2 0x622 JUMPI SWAP1 DUP3 SWAP2 PUSH2 0x3358 JUMPI JUMPDEST POP POP PUSH1 0xE SLOAD PUSH1 0x1 PUSH1 0x1 PUSH1 0xA0 SHL SUB AND DUP1 PUSH2 0x32A9 JUMPI JUMPDEST POP POP PUSH1 0x20 SWAP5 PUSH3 0x2A300 DUP6 SWAP4 PUSH32 0x5D0726A1BB5EC8C87527E69BA86D988202E885FAD8F2B4AACD618793D6F297B2 SWAP4 PUSH2 0x3259 PUSH1 0x40 MLOAD SWAP5 PUSH2 0x120 DUP7 MSTORE PUSH2 0x120 DUP7 ADD SWAP1 PUSH2 0x4CA8 JUMP JUMPDEST SWAP7 ISZERO ISZERO DUP5 DUP11 ADD MSTORE PUSH1 0x44 CALLDATALOAD PUSH1 0x40 DUP6 ADD MSTORE PUSH1 0x64 CALLDATALOAD PUSH1 0x1 PUSH1 0x1 PUSH1 0xA0 SHL SUB AND PUSH1 0x60 DUP6 ADD MSTORE PUSH1 0x84 CALLDATALOAD PUSH1 0x80 DUP6 ADD MSTORE TIMESTAMP PUSH1 0xA0 DUP6 ADD MSTORE PUSH1 0xC0 DUP5 ADD MSTORE PUSH1 0xE0 DUP4 ADD DUP2 SWAP1 MSTORE ADD PUSH2 0x100 DUP3 ADD MSTORE CALLER SWAP4 DUP2 SWAP1 SUB SWAP1 LOG3 PUSH1 0x40 MLOAD SWAP1 DUP2 MSTORE RETURN JUMPDEST DUP1 EXTCODESIZE ISZERO PUSH2 0x62D JUMPI DUP2 PUSH1 0x40 MLOAD DUP1 SWAP3 PUSH4 0x782A7805 PUSH1 0xE1 SHL DUP3 MSTORE DUP2 DUP4 DUP2 PUSH2 0x32D1 CALLER DUP14 PUSH1 0x4 DUP5 ADD PUSH2 0x51AD JUMP JUMPDEST SUB SWAP3 GAS CALL DUP1 ISZERO PUSH2 0x622 JUMPI SWAP1 DUP3 SWAP2 PUSH2 0x3344 JUMPI JUMPDEST POP POP PUSH1 0xE SLOAD PUSH1 0x1 PUSH1 0x1 PUSH1 0xA0 SHL SUB AND DUP1 EXTCODESIZE ISZERO PUSH2 0x62D JUMPI PUSH1 0x40 MLOAD PUSH4 0xC228038D PUSH1 0xE0 SHL DUP2 MSTORE SWAP1 DUP3 SWAP1 DUP3 SWAP1 DUP2 DUP4 DUP2 PUSH2 0x3321 PUSH1 0xA4 CALLDATALOAD PUSH1 0xC4 CALLDATALOAD CALLER DUP16 PUSH1 0x4 DUP7 ADD PUSH2 0x51C6 JUMP JUMPDEST SUB SWAP3 GAS CALL DUP1 ISZERO PUSH2 0x622 JUMPI ISZERO PUSH2 0x3215 JUMPI PUSH2 0x333A DUP3 SWAP2 PUSH2 0x4DCC JUMP JUMPDEST PUSH2 0x39E JUMPI DUP1 PUSH2 0x3215 JUMP JUMPDEST PUSH2 0x334D SWAP1 PUSH2 0x4DCC JUMP JUMPDEST PUSH2 0x39E JUMPI DUP1 CODESIZE PUSH2 0x32E3 JUMP JUMPDEST PUSH2 0x3361 SWAP1 PUSH2 0x4DCC JUMP JUMPDEST PUSH2 0x39E JUMPI DUP1 CODESIZE PUSH2 0x3201 JUMP JUMPDEST PUSH1 0x40 MLOAD PUSH3 0x461BCD PUSH1 0xE5 SHL DUP2 MSTORE PUSH1 0x20 PUSH1 0x4 DUP3 ADD MSTORE PUSH1 0x3A PUSH1 0x24 DUP3 ADD MSTORE PUSH32 0x4D61726B65744D616E616765723A2043726561746F72206465706F7369742074 PUSH1 0x44 DUP3 ADD MSTORE PUSH26 0x1C985B9CD9995C881D1BC8151C99585CDD5C9E4819985A5B1959 PUSH1 0x32 SHL PUSH1 0x64 DUP3 ADD MSTORE PUSH1 0x84 SWAP1 REVERT JUMPDEST PUSH1 0x64 PUSH1 0x40 MLOAD PUSH3 0x461BCD PUSH1 0xE5 SHL DUP2 MSTORE PUSH1 0x20 PUSH1 0x4 DUP3 ADD MSTORE PUSH1 0x20 PUSH1 0x24 DUP3 ADD MSTORE PUSH1 0x0 DUP1 MLOAD PUSH1 0x20 PUSH2 0x659B DUP4 CODECOPY DUP2 MLOAD SWAP2 MSTORE PUSH1 0x44 DUP3 ADD MSTORE REVERT JUMPDEST PUSH1 0x10 SLOAD DUP1 CALLVALUE LT PUSH2 0x3453 JUMPI DUP2 DUP1 DUP1 DUP1 PUSH2 0x342C SWAP5 PUSH1 0x1 DUP1 PUSH1 0xA0 SHL SUB DUP3 SLOAD AND GAS CALL PUSH2 0x3132 PUSH2 0x50ED JUMP JUMPDEST PUSH1 0xC SLOAD PUSH2 0x344E SWAP1 PUSH1 0xA4 CALLDATALOAD SWAP1 PUSH1 0x1 PUSH1 0x1 PUSH1 0xA0 SHL SUB SWAP1 DUP2 AND SWAP1 CALLER SWAP1 PUSH1 0x64 CALLDATALOAD AND PUSH2 0x520C JUMP JUMPDEST PUSH2 0x315B JUMP JUMPDEST PUSH1 0x40 MLOAD PUSH3 0x461BCD PUSH1 0xE5 SHL DUP2 MSTORE PUSH1 0x20 PUSH1 0x4 DUP3 ADD MSTORE PUSH1 0x31 PUSH1 0x24 DUP3 ADD MSTORE PUSH1 0x0 DUP1 MLOAD PUSH1 0x20 PUSH2 0x659B DUP4 CODECOPY DUP2 MLOAD SWAP2 MSTORE PUSH1 0x44 DUP3 ADD MSTORE PUSH17 0x20666F72206372656174696F6E20666565 PUSH1 0x78 SHL PUSH1 0x64 DUP3 ADD MSTORE PUSH1 0x84 SWAP1 REVERT JUMPDEST ADD MLOAD SWAP1 POP CODESIZE DUP1 PUSH2 0x2FBF JUMP JUMPDEST SWAP3 POP PUSH1 0x1 DUP6 ADD DUP7 MSTORE PUSH1 0x20 DUP7 KECCAK256 SWAP1 DUP7 SWAP4 JUMPDEST PUSH1 0x1F NOT DUP5 AND DUP6 LT PUSH2 0x34FF JUMPI PUSH1 0x1 SWAP5 POP DUP4 PUSH1 0x1F NOT DUP2 AND LT PUSH2 0x34E6 JUMPI JUMPDEST POP POP POP DUP2 SHL ADD PUSH1 0x1 DUP4 ADD SSTORE PUSH2 0x2FD7 JUMP JUMPDEST ADD MLOAD PUSH1 0x0 NOT PUSH1 0xF8 DUP5 PUSH1 0x3 SHL AND SHR NOT AND SWAP1 SSTORE CODESIZE DUP1 DUP1 PUSH2 0x34D6 JUMP JUMPDEST DUP2 DUP2 ADD MLOAD DUP4 SSTORE PUSH1 0x20 SWAP5 DUP6 ADD SWAP5 PUSH1 0x1 SWAP1 SWAP4 ADD SWAP3 SWAP1 SWAP2 ADD SWAP1 PUSH2 0x34BB JUMP JUMPDEST PUSH2 0x3547 SWAP1 PUSH1 0x1 DUP8 ADD DUP9 MSTORE PUSH1 0x20 DUP9 KECCAK256 PUSH1 0x1F DUP6 ADD PUSH1 0x5 SHR DUP2 ADD SWAP2 PUSH1 0x20 DUP7 LT PUSH2 0x268B JUMPI PUSH1 0x1F ADD PUSH1 0x5 SHR ADD SWAP1 PUSH2 0x50A2 JUMP JUMPDEST CODESIZE PUSH2 0x2FA9 JUMP JUMPDEST PUSH4 0x4E487B71 PUSH1 0xE0 SHL DUP6 MSTORE PUSH1 0x41 PUSH1 0x4 MSTORE PUSH1 0x24 DUP6 REVERT JUMPDEST PUSH1 0x40 MLOAD PUSH3 0x461BCD PUSH1 0xE5 SHL DUP2 MSTORE PUSH1 0x20 PUSH1 0x4 DUP3 ADD MSTORE PUSH1 0x28 PUSH1 0x24 DUP3 ADD MSTORE PUSH32 0x4D61726B65744D616E616765723A20496E73756666696369656E742063726561 PUSH1 0x44 DUP3 ADD MSTORE PUSH8 0x74696F6E20666565 PUSH1 0xC0 SHL PUSH1 0x64 DUP3 ADD MSTORE PUSH1 0x84 SWAP1 REVERT JUMPDEST PUSH1 0x40 MLOAD PUSH3 0x461BCD PUSH1 0xE5 SHL DUP2 MSTORE PUSH1 0x20 PUSH1 0x4 DUP3 ADD MSTORE PUSH1 0x33 PUSH1 0x24 DUP3 ADD MSTORE PUSH1 0x0 DUP1 MLOAD PUSH1 0x20 PUSH2 0x64FB DUP4 CODECOPY DUP2 MLOAD SWAP2 MSTORE PUSH1 0x44 DUP3 ADD MSTORE PUSH19 0x32B2103337B91036BAB63A3496B7B83A34B7B7 PUSH1 0x69 SHL PUSH1 0x64 DUP3 ADD MSTORE PUSH1 0x84 SWAP1 REVERT JUMPDEST PUSH1 0x40 MLOAD PUSH3 0x461BCD PUSH1 0xE5 SHL DUP2 MSTORE PUSH1 0x20 PUSH1 0x4 DUP3 ADD MSTORE PUSH1 0x35 PUSH1 0x24 DUP3 ADD MSTORE PUSH32 0x4D61726B65744D616E616765723A204D756C74692D6F7074696F6E206D61726B PUSH1 0x44 DUP3 ADD MSTORE PUSH21 0x32BA39903932B8BAB4B93290281928103A37B5B2B7 PUSH1 0x59 SHL PUSH1 0x64 DUP3 ADD MSTORE PUSH1 0x84 SWAP1 REVERT JUMPDEST PUSH1 0x64 CALLDATALOAD PUSH1 0x1 PUSH1 0x1 PUSH1 0xA0 SHL SUB AND ISZERO PUSH2 0x2E5E JUMPI PUSH1 0x64 CALLDATALOAD PUSH1 0x1 PUSH1 0x1 PUSH1 0xA0 SHL SUB AND DUP3 MSTORE PUSH1 0x7 PUSH1 0x20 MSTORE PUSH1 0x40 DUP3 KECCAK256 SLOAD PUSH2 0x369E SWAP1 PUSH1 0xFF AND PUSH2 0x500C JUMP JUMPDEST PUSH2 0x2E5E JUMP JUMPDEST PUSH1 0x40 MLOAD PUSH3 0x461BCD PUSH1 0xE5 SHL DUP2 MSTORE PUSH1 0x20 PUSH1 0x4 DUP3 ADD MSTORE PUSH1 0x34 PUSH1 0x24 DUP3 ADD MSTORE PUSH32 0x4D61726B65744D616E616765723A205265736F6C7574696F6E206D7573742062 PUSH1 0x44 DUP3 ADD MSTORE PUSH20 0x194818599D195C881CDD185AD9481C195C9A5BD9 PUSH1 0x62 SHL PUSH1 0x64 DUP3 ADD MSTORE PUSH1 0x84 SWAP1 REVERT JUMPDEST PUSH1 0x40 MLOAD PUSH3 0x461BCD PUSH1 0xE5 SHL DUP2 MSTORE PUSH1 0x20 PUSH1 0x4 DUP3 ADD MSTORE PUSH1 0x2B PUSH1 0x24 DUP3 ADD MSTORE PUSH1 0x0 DUP1 MLOAD PUSH1 0x20 PUSH2 0x651B DUP4 CODECOPY DUP2 MLOAD SWAP2 MSTORE PUSH1 0x44 DUP3 ADD MSTORE PUSH11 0x35B290323AB930BA34B7B7 PUSH1 0xA9 SHL PUSH1 0x64 DUP3 ADD MSTORE PUSH1 0x84 SWAP1 REVERT JUMPDEST PUSH1 0x40 MLOAD PUSH3 0x461BCD PUSH1 0xE5 SHL DUP2 MSTORE PUSH1 0x20 PUSH1 0x4 DUP3 ADD MSTORE PUSH1 0x26 PUSH1 0x24 DUP3 ADD MSTORE PUSH32 0x4D61726B65744D616E616765723A20496E76616C69642063726561746F72206F PUSH1 0x44 DUP3 ADD MSTORE PUSH6 0x7574636F6D65 PUSH1 0xD0 SHL PUSH1 0x64 DUP3 ADD MSTORE PUSH1 0x84 SWAP1 REVERT JUMPDEST POP PUSH1 0x44 CALLDATALOAD PUSH1 0xC4 CALLDATALOAD GT ISZERO PUSH2 0x2E0A JUMP JUMPDEST PUSH1 0x40 MLOAD PUSH3 0x461BCD PUSH1 0xE5 SHL DUP2 MSTORE PUSH1 0x20 PUSH1 0x4 DUP3 ADD MSTORE PUSH1 0x26 PUSH1 0x24 DUP3 ADD MSTORE PUSH32 0x4D61726B65744D616E616765723A20496E76616C69642063726561746F722064 PUSH1 0x44 DUP3 ADD MSTORE PUSH6 0x195C1BDCDA5D PUSH1 0xD2 SHL PUSH1 0x64 DUP3 ADD MSTORE PUSH1 0x84 SWAP1 REVERT JUMPDEST PUSH1 0x64 PUSH1 0x40 MLOAD PUSH3 0x461BCD PUSH1 0xE5 SHL DUP2 MSTORE PUSH1 0x20 PUSH1 0x4 DUP3 ADD MSTORE PUSH1 0x20 PUSH1 0x24 DUP3 ADD MSTORE PUSH32 0x4D61726B65744D616E616765723A20496E76616C6964206D696E207374616B65 PUSH1 0x44 DUP3 ADD MSTORE REVERT JUMPDEST PUSH1 0x40 MLOAD PUSH3 0x461BCD PUSH1 0xE5 SHL DUP2 MSTORE PUSH1 0x20 PUSH1 0x4 DUP3 ADD MSTORE PUSH1 0x22 PUSH1 0x24 DUP3 ADD MSTORE PUSH32 0x4D61726B65744D616E616765723A20496E76616C6964206D6178206F7074696F PUSH1 0x44 DUP3 ADD MSTORE PUSH2 0x6E73 PUSH1 0xF0 SHL PUSH1 0x64 DUP3 ADD MSTORE PUSH1 0x84 SWAP1 REVERT JUMPDEST POP PUSH1 0xA PUSH1 0x44 CALLDATALOAD GT ISZERO PUSH2 0x2DEA JUMP JUMPDEST PUSH1 0x64 PUSH1 0x40 MLOAD PUSH3 0x461BCD PUSH1 0xE5 SHL DUP2 MSTORE PUSH1 0x20 PUSH1 0x4 DUP3 ADD MSTORE PUSH1 0x20 PUSH1 0x24 DUP3 ADD MSTORE PUSH32 0x4D61726B65744D616E616765723A20496E76616C696420495046532068617368 PUSH1 0x44 DUP3 ADD MSTORE REVERT JUMPDEST POP CALLVALUE PUSH2 0x39E JUMPI DUP1 PUSH1 0x3 NOT CALLDATASIZE ADD SLT PUSH2 0x39E JUMPI PUSH1 0xC SLOAD PUSH1 0x40 MLOAD PUSH1 0x1 PUSH1 0x1 PUSH1 0xA0 SHL SUB SWAP1 SWAP2 AND DUP2 MSTORE PUSH1 0x20 SWAP1 RETURN JUMPDEST POP CALLVALUE PUSH2 0x39E JUMPI PUSH2 0x159E PUSH2 0x3922 CALLDATASIZE PUSH2 0x4C1A JUMP JUMPDEST SWAP1 PUSH2 0x566C JUMP JUMPDEST POP CALLVALUE PUSH2 0x39E JUMPI DUP1 PUSH1 0x3 NOT CALLDATASIZE ADD SLT PUSH2 0x39E JUMPI PUSH1 0x20 PUSH1 0x14 SLOAD PUSH1 0x40 MLOAD SWAP1 DUP2 MSTORE RETURN JUMPDEST POP CALLVALUE PUSH2 0x39E JUMPI PUSH1 0x20 DUP1 PUSH1 0x3 NOT CALLDATASIZE ADD SLT PUSH2 0x62D JUMPI PUSH1 0x4 CALLDATALOAD DUP1 DUP4 MSTORE PUSH1 0x1 DUP3 MSTORE PUSH1 0x40 DUP4 KECCAK256 SWAP2 PUSH1 0xFF PUSH1 0xC DUP5 ADD SLOAD AND PUSH1 0x5 DUP2 LT ISZERO PUSH2 0xB67 JUMPI PUSH1 0x3 SUB PUSH2 0x3C85 JUMPI DUP2 DUP5 MSTORE PUSH1 0x2 DUP2 MSTORE PUSH1 0x40 DUP5 KECCAK256 CALLER PUSH1 0x0 MSTORE DUP2 MSTORE PUSH1 0xFF PUSH1 0x40 PUSH1 0x0 KECCAK256 SLOAD AND DUP1 ISZERO PUSH2 0x3C65 JUMPI JUMPDEST ISZERO PUSH2 0x3C17 JUMPI DUP4 SWAP3 DUP3 DUP6 MSTORE PUSH1 0x2 DUP3 MSTORE PUSH1 0x40 DUP6 KECCAK256 CALLER PUSH1 0x0 MSTORE DUP3 MSTORE PUSH1 0xFF PUSH1 0x40 PUSH1 0x0 KECCAK256 SLOAD AND PUSH2 0x3B7C JUMPI JUMPDEST DUP3 DUP6 MSTORE PUSH1 0x3 DUP3 MSTORE PUSH1 0x40 DUP6 KECCAK256 CALLER PUSH1 0x0 MSTORE DUP3 MSTORE PUSH1 0xFF PUSH1 0x40 PUSH1 0x0 KECCAK256 SLOAD AND PUSH2 0x3AD4 JUMPI JUMPDEST DUP4 ISZERO PUSH2 0x3A84 JUMPI PUSH1 0xC SLOAD PUSH1 0x4 SWAP1 SWAP2 ADD SLOAD DUP6 SWAP2 PUSH1 0x1 PUSH1 0x1 PUSH1 0xA0 SHL SUB SWAP2 DUP3 AND SWAP2 AND DUP1 EXTCODESIZE ISZERO PUSH2 0x1E94 JUMPI DUP6 DUP4 SWAP2 PUSH2 0x3A31 SWAP4 DUP4 PUSH1 0x40 MLOAD DUP1 SWAP7 DUP2 SWAP6 DUP3 SWAP5 PUSH4 0x164FCD7D PUSH1 0xE2 SHL DUP5 MSTORE CALLER DUP14 PUSH1 0x4 DUP7 ADD PUSH2 0x54A1 JUMP JUMPDEST SUB SWAP3 GAS CALL DUP1 ISZERO PUSH2 0x622 JUMPI PUSH2 0x3A70 JUMPI JUMPDEST POP POP PUSH32 0xF3F402280EF0A7905E124AA621B65EAEB2725C343E8B36D398ED78C29DAF285C SWAP1 PUSH1 0x40 MLOAD SWAP4 DUP5 MSTORE CALLER SWAP4 LOG3 DUP1 RETURN JUMPDEST PUSH2 0x3A79 SWAP1 PUSH2 0x4DCC JUMP JUMPDEST PUSH2 0x61E JUMPI DUP4 CODESIZE PUSH2 0x3A40 JUMP JUMPDEST PUSH1 0x40 MLOAD PUSH3 0x461BCD PUSH1 0xE5 SHL DUP2 MSTORE PUSH1 0x4 DUP2 ADD DUP4 SWAP1 MSTORE PUSH1 0x22 PUSH1 0x24 DUP3 ADD MSTORE PUSH32 0x4D61726B65744D616E616765723A204E6F20726566756E6420617661696C6162 PUSH1 0x44 DUP3 ADD MSTORE PUSH2 0x6C65 PUSH1 0xF0 SHL PUSH1 0x64 DUP3 ADD MSTORE PUSH1 0x84 SWAP1 REVERT JUMPDEST SWAP3 PUSH2 0x3B0B SWAP1 DUP3 PUSH1 0x1 DUP1 PUSH1 0xA0 SHL SUB DUP1 PUSH1 0xC SLOAD AND SWAP1 PUSH1 0x4 DUP9 ADD SLOAD AND SWAP1 PUSH1 0x40 MLOAD DUP1 DUP1 SWAP7 DUP2 SWAP5 PUSH4 0x256BA741 PUSH1 0xE0 SHL DUP4 MSTORE CALLER DUP12 PUSH1 0x4 DUP6 ADD PUSH2 0x5544 JUMP JUMPDEST SUB SWAP2 GAS STATICCALL SWAP1 DUP2 ISZERO PUSH2 0x122F JUMPI DUP7 SWAP2 PUSH2 0x3B4B JUMPI JUMPDEST PUSH2 0x3B27 SWAP3 POP PUSH2 0x507A JUMP JUMPDEST SWAP3 DUP3 DUP6 MSTORE PUSH1 0x3 DUP3 MSTORE PUSH1 0x40 DUP6 KECCAK256 CALLER PUSH1 0x0 MSTORE DUP3 MSTORE PUSH1 0x40 PUSH1 0x0 KECCAK256 PUSH1 0xFF NOT DUP2 SLOAD AND SWAP1 SSTORE PUSH2 0x39E6 JUMP JUMPDEST SWAP1 POP DUP3 DUP3 DUP2 RETURNDATASIZE DUP4 GT PUSH2 0x3B75 JUMPI JUMPDEST PUSH2 0x3B62 DUP2 DUP4 PUSH2 0x4E16 JUMP JUMPDEST DUP2 ADD SUB SLT PUSH2 0x10C8 JUMPI PUSH2 0x3B27 SWAP2 MLOAD SWAP1 PUSH2 0x3B1D JUMP JUMPDEST POP RETURNDATASIZE PUSH2 0x3B58 JUMP JUMPDEST SWAP3 POP PUSH2 0x3BB3 DUP2 PUSH1 0x1 DUP1 PUSH1 0xA0 SHL SUB DUP1 PUSH1 0xC SLOAD AND SWAP1 PUSH1 0x4 DUP8 ADD SLOAD AND SWAP1 PUSH1 0x40 MLOAD DUP1 DUP1 SWAP6 DUP2 SWAP5 PUSH4 0x423E7BC1 PUSH1 0xE1 SHL DUP4 MSTORE CALLER DUP11 PUSH1 0x4 DUP6 ADD PUSH2 0x5544 JUMP JUMPDEST SUB SWAP2 GAS STATICCALL SWAP1 DUP2 ISZERO PUSH2 0x9BF JUMPI DUP6 SWAP2 PUSH2 0x3BEA JUMPI JUMPDEST POP SWAP3 DUP3 DUP6 MSTORE PUSH1 0x2 DUP3 MSTORE PUSH1 0x40 DUP6 KECCAK256 CALLER PUSH1 0x0 MSTORE DUP3 MSTORE PUSH1 0x40 PUSH1 0x0 KECCAK256 PUSH1 0xFF NOT DUP2 SLOAD AND SWAP1 SSTORE PUSH2 0x39C7 JUMP JUMPDEST SWAP1 POP DUP2 DUP2 DUP2 RETURNDATASIZE DUP4 GT PUSH2 0x3C10 JUMPI JUMPDEST PUSH2 0x3C01 DUP2 DUP4 PUSH2 0x4E16 JUMP JUMPDEST DUP2 ADD SUB SLT PUSH2 0x10C8 JUMPI MLOAD CODESIZE PUSH2 0x3BC5 JUMP JUMPDEST POP RETURNDATASIZE PUSH2 0x3BF7 JUMP JUMPDEST PUSH1 0x84 SWAP1 PUSH1 0x40 MLOAD SWAP1 PUSH3 0x461BCD PUSH1 0xE5 SHL DUP3 MSTORE PUSH1 0x4 DUP3 ADD MSTORE PUSH1 0x21 PUSH1 0x24 DUP3 ADD MSTORE PUSH32 0x4D61726B65744D616E616765723A204E6F207374616B6520746F20726566756E PUSH1 0x44 DUP3 ADD MSTORE PUSH1 0x19 PUSH1 0xFA SHL PUSH1 0x64 DUP3 ADD MSTORE REVERT JUMPDEST POP DUP2 DUP5 MSTORE PUSH1 0x3 DUP2 MSTORE PUSH1 0x40 DUP5 KECCAK256 CALLER PUSH1 0x0 MSTORE DUP2 MSTORE PUSH1 0xFF PUSH1 0x40 PUSH1 0x0 KECCAK256 SLOAD AND PUSH2 0x39A1 JUMP JUMPDEST PUSH1 0x84 SWAP1 PUSH1 0x40 MLOAD SWAP1 PUSH3 0x461BCD PUSH1 0xE5 SHL DUP3 MSTORE PUSH1 0x4 DUP3 ADD MSTORE PUSH1 0x23 PUSH1 0x24 DUP3 ADD MSTORE PUSH32 0x4D61726B65744D616E616765723A204D61726B6574206E6F742063616E63656C PUSH1 0x44 DUP3 ADD MSTORE PUSH3 0x1B1959 PUSH1 0xEA SHL PUSH1 0x64 DUP3 ADD MSTORE REVERT JUMPDEST POP CALLVALUE PUSH2 0x39E JUMPI DUP1 PUSH1 0x3 NOT CALLDATASIZE ADD SLT PUSH2 0x39E JUMPI PUSH1 0x20 PUSH1 0x40 MLOAD PUSH2 0x1F4 DUP2 MSTORE RETURN JUMPDEST POP CALLVALUE PUSH2 0x39E JUMPI PUSH1 0x40 CALLDATASIZE PUSH1 0x3 NOT ADD SLT PUSH2 0x39E JUMPI PUSH1 0x4 CALLDATALOAD PUSH1 0x24 CALLDATALOAD PUSH1 0x1 PUSH1 0x1 PUSH1 0x40 SHL SUB DUP2 GT PUSH2 0x1E94 JUMPI PUSH2 0x3D26 SWAP1 CALLDATASIZE SWAP1 PUSH1 0x4 ADD PUSH2 0x4E54 JUMP JUMPDEST PUSH2 0x3D2E PUSH2 0x4F8A JUMP JUMPDEST PUSH2 0x3D3B PUSH1 0xF SLOAD DUP4 LT PUSH2 0x62D1 JUMP JUMPDEST DUP2 DUP4 MSTORE PUSH1 0x20 SWAP1 PUSH1 0x1 DUP3 MSTORE PUSH2 0x3D5C PUSH1 0x1 DUP1 PUSH1 0xA0 SHL SUB PUSH1 0x40 DUP7 KECCAK256 SLOAD AND ISZERO ISZERO PUSH2 0x631C JUMP JUMPDEST DUP3 DUP5 MSTORE PUSH1 0x1 DUP3 MSTORE PUSH1 0xFF PUSH1 0xC PUSH1 0x40 DUP7 KECCAK256 ADD SLOAD AND PUSH1 0x5 DUP2 LT ISZERO PUSH2 0xB67 JUMPI PUSH1 0x4 EQ PUSH2 0x3E13 JUMPI DUP3 DUP5 MSTORE PUSH1 0x1 DUP3 MSTORE PUSH1 0x40 DUP1 DUP6 KECCAK256 PUSH1 0xC ADD DUP1 SLOAD PUSH1 0xFF NOT AND PUSH1 0x4 OR SWAP1 SSTORE DUP4 DUP6 MSTORE PUSH1 0x19 DUP4 MSTORE DUP5 KECCAK256 TIMESTAMP SWAP1 SSTORE PUSH1 0x18 SLOAD SWAP2 PUSH1 0x1 PUSH1 0x40 SHL DUP4 LT ISZERO PUSH2 0x15A1 JUMPI PUSH2 0x3DD7 DUP5 PUSH2 0x30C1 DUP6 PUSH1 0x1 PUSH1 0x0 DUP1 MLOAD PUSH1 0x20 PUSH2 0x64BB DUP4 CODECOPY DUP2 MLOAD SWAP2 MSTORE SWAP8 ADD PUSH1 0x18 SSTORE PUSH2 0x4BCC JUMP JUMPDEST DUP4 DUP6 MSTORE PUSH1 0x15 DUP2 MSTORE PUSH1 0xFF PUSH1 0x40 DUP7 KECCAK256 SLOAD AND PUSH2 0x3E05 JUMPI JUMPDEST PUSH2 0x3DFF PUSH1 0x40 MLOAD SWAP3 DUP3 DUP5 SWAP4 DUP5 MSTORE DUP4 ADD SWAP1 PUSH2 0x4CA8 JUMP JUMPDEST SUB SWAP1 LOG2 DUP1 RETURN JUMPDEST PUSH2 0x3E0E DUP5 PUSH2 0x6374 JUMP JUMPDEST PUSH2 0x3DEB JUMP JUMPDEST PUSH1 0x40 MLOAD PUSH3 0x461BCD PUSH1 0xE5 SHL DUP2 MSTORE PUSH1 0x4 DUP2 ADD DUP4 SWAP1 MSTORE PUSH1 0x1E PUSH1 0x24 DUP3 ADD MSTORE PUSH32 0x4D61726B65744D616E616765723A20416C72656164792064656C657465640000 PUSH1 0x44 DUP3 ADD MSTORE PUSH1 0x64 SWAP1 REVERT JUMPDEST POP CALLVALUE PUSH2 0x39E JUMPI DUP1 PUSH1 0x3 NOT CALLDATASIZE ADD SLT PUSH2 0x39E JUMPI PUSH1 0xD SLOAD PUSH1 0x40 MLOAD PUSH1 0x1 PUSH1 0x1 PUSH1 0xA0 SHL SUB SWAP1 SWAP2 AND DUP2 MSTORE PUSH1 0x20 SWAP1 RETURN JUMPDEST POP CALLVALUE PUSH2 0x39E JUMPI PUSH1 0x40 CALLDATASIZE PUSH1 0x3 NOT ADD SLT PUSH2 0x39E JUMPI PUSH2 0x1297 SWAP1 PUSH1 0x20 PUSH2 0x3EA1 PUSH2 0x4B35 JUMP JUMPDEST PUSH1 0x1 DUP1 PUSH1 0xA0 SHL SUB PUSH1 0xC SLOAD AND PUSH1 0x40 MLOAD DUP1 DUP1 SWAP7 DUP2 SWAP5 PUSH4 0x4F44289D PUSH1 0xE0 SHL DUP4 MSTORE PUSH1 0x4 CALLDATALOAD PUSH1 0x4 DUP5 ADD PUSH2 0x51AD JUMP JUMPDEST POP CALLVALUE PUSH2 0x39E JUMPI PUSH1 0x20 CALLDATASIZE PUSH1 0x3 NOT ADD SLT PUSH2 0x39E JUMPI PUSH1 0x4 CALLDATALOAD PUSH2 0x3EE7 PUSH2 0x4F8A JUMP JUMPDEST DUP1 ISZERO PUSH2 0x3EF3 JUMPI PUSH1 0x11 SSTORE DUP1 RETURN JUMPDEST PUSH1 0x40 MLOAD PUSH3 0x461BCD PUSH1 0xE5 SHL DUP2 MSTORE PUSH1 0x20 PUSH1 0x4 DUP3 ADD MSTORE PUSH1 0x27 PUSH1 0x24 DUP3 ADD MSTORE PUSH32 0x4D61726B65744D616E616765723A20496E76616C6964206D696E696D756D2064 PUSH1 0x44 DUP3 ADD MSTORE PUSH7 0x3AB930BA34B7B7 PUSH1 0xC9 SHL PUSH1 0x64 DUP3 ADD MSTORE PUSH1 0x84 SWAP1 REVERT JUMPDEST POP CALLVALUE PUSH2 0x39E JUMPI DUP1 PUSH1 0x3 NOT CALLDATASIZE ADD SLT PUSH2 0x39E JUMPI PUSH1 0x20 PUSH1 0xF SLOAD PUSH1 0x40 MLOAD SWAP1 DUP2 MSTORE RETURN JUMPDEST POP CALLVALUE PUSH2 0x39E JUMPI PUSH1 0x20 DUP1 PUSH1 0x3 NOT CALLDATASIZE ADD SLT PUSH2 0x62D JUMPI PUSH2 0x408B PUSH1 0x4 CALLDATALOAD SWAP2 PUSH2 0x3F88 PUSH2 0x6418 JUMP JUMPDEST POP DUP3 DUP5 MSTORE PUSH1 0x1 SWAP1 DUP2 DUP2 MSTORE PUSH1 0x40 DUP6 KECCAK256 SWAP4 PUSH1 0x40 MLOAD SWAP6 PUSH2 0x3FA4 DUP8 PUSH2 0x4DDF JUMP JUMPDEST DUP6 SLOAD PUSH1 0x1 PUSH1 0x1 PUSH1 0xA0 SHL SUB SWAP1 DUP2 AND DUP9 MSTORE PUSH2 0x3FBE DUP6 DUP9 ADD PUSH2 0x4EE4 JUMP JUMPDEST DUP5 DUP10 ADD MSTORE PUSH1 0xFF PUSH1 0x2 DUP9 ADD SLOAD AND ISZERO ISZERO PUSH1 0x40 DUP10 ADD MSTORE PUSH1 0x3 DUP8 ADD SLOAD PUSH1 0x60 DUP10 ADD MSTORE DUP1 PUSH1 0x4 DUP9 ADD SLOAD AND SWAP2 PUSH1 0x80 DUP10 ADD SWAP3 DUP4 MSTORE PUSH1 0x5 DUP9 ADD SLOAD PUSH1 0xA0 DUP11 ADD MSTORE PUSH1 0x6 DUP9 ADD SLOAD PUSH1 0xC0 DUP11 ADD MSTORE PUSH1 0x7 DUP9 ADD SLOAD PUSH1 0xE0 DUP11 ADD MSTORE PUSH1 0xFF PUSH1 0xE PUSH1 0x8 DUP11 ADD SLOAD SWAP10 PUSH2 0x100 SWAP11 DUP12 DUP14 ADD MSTORE PUSH1 0x9 DUP2 ADD SLOAD PUSH2 0x120 DUP14 ADD MSTORE PUSH1 0xA DUP2 ADD SLOAD PUSH2 0x140 DUP14 ADD MSTORE PUSH1 0xB DUP2 ADD SLOAD PUSH2 0x160 DUP14 ADD MSTORE PUSH2 0x4050 DUP13 PUSH2 0x180 DUP6 PUSH1 0xC DUP6 ADD SLOAD AND SWAP2 ADD PUSH2 0x5096 JUMP JUMPDEST PUSH1 0xD DUP2 ADD SLOAD PUSH2 0x1A0 DUP14 ADD MSTORE ADD SLOAD AND ISZERO ISZERO PUSH2 0x1C0 DUP11 ADD MSTORE DUP2 PUSH1 0xC SLOAD AND DUP6 DUP4 DUP6 MLOAD AND PUSH1 0x40 MLOAD DUP1 SWAP11 DUP2 SWAP3 PUSH4 0x3D1E7BA1 PUSH1 0xE1 SHL DUP4 MSTORE DUP10 PUSH1 0x4 DUP5 ADD PUSH2 0x51AD JUMP JUMPDEST SUB DUP2 DUP5 GAS STATICCALL SWAP8 DUP9 ISZERO PUSH2 0x622 JUMPI DUP3 SWAP9 PUSH2 0x4244 JUMPI JUMPDEST POP SWAP1 DUP6 PUSH2 0x40C6 SWAP3 DUP5 DUP7 MLOAD AND SWAP1 PUSH1 0x40 MLOAD DUP1 DUP1 SWAP7 DUP2 SWAP5 PUSH4 0x4F44289D PUSH1 0xE0 SHL DUP4 MSTORE DUP12 PUSH1 0x4 DUP5 ADD PUSH2 0x51AD JUMP JUMPDEST SUB SWAP2 GAS STATICCALL SWAP2 DUP3 ISZERO PUSH2 0x4237 JUMPI DUP2 SWAP3 PUSH2 0x4208 JUMPI JUMPDEST POP DUP5 DUP2 MSTORE PUSH1 0x5 DUP7 MSTORE PUSH1 0x40 DUP2 KECCAK256 SLOAD SWAP3 PUSH1 0x6 DUP8 MSTORE PUSH1 0x40 DUP3 KECCAK256 SLOAD SWAP5 PUSH1 0x5 DUP9 MSTORE PUSH1 0x40 DUP4 KECCAK256 SWAP7 DUP10 PUSH1 0x40 MLOAD DUP1 SWAP10 DUP11 SWAP2 DUP13 DUP3 SLOAD SWAP2 DUP3 DUP2 MSTORE ADD SWAP2 DUP9 MSTORE DUP13 DUP1 DUP10 KECCAK256 SWAP5 DUP10 SWAP2 JUMPDEST DUP4 DUP4 LT PUSH2 0x41EF JUMPI POP POP POP POP PUSH2 0x412B SWAP3 POP SUB DUP10 PUSH2 0x4E16 JUMP JUMPDEST DUP4 MSTORE PUSH1 0x6 DUP9 MSTORE PUSH1 0x40 DUP4 KECCAK256 PUSH1 0x40 MLOAD DUP1 SWAP11 DUP11 DUP4 SLOAD SWAP3 DUP4 DUP2 MSTORE ADD SWAP3 DUP7 MSTORE DUP11 DUP7 KECCAK256 SWAP2 DUP7 JUMPDEST DUP2 DUP2 LT PUSH2 0x41DA JUMPI POP POP POP POP PUSH1 0x40 PUSH2 0x41BE SWAP8 SWAP5 PUSH2 0x41CC SWAP11 SWAP8 SWAP5 DUP13 SWAP11 SWAP8 SWAP5 PUSH2 0x417A PUSH2 0x3F0 SWAP16 SWAP15 PUSH2 0x4188 SWAP7 SUB DUP14 PUSH2 0x4E16 JUMP JUMPDEST MLOAD AND DUP2 MSTORE PUSH1 0x8 DUP9 MSTORE KECCAK256 PUSH2 0x4EE4 JUMP JUMPDEST SWAP9 PUSH2 0x419E PUSH1 0x40 MLOAD SWAP14 DUP14 DUP16 SWAP15 DUP16 SWAP1 DUP2 MSTORE ADD SWAP1 PUSH2 0x4D0B JUMP JUMPDEST SWAP6 DUP13 ADD MSTORE PUSH1 0x40 DUP12 ADD MSTORE PUSH1 0x60 DUP11 ADD MSTORE PUSH1 0x80 DUP10 ADD MSTORE DUP8 DUP3 SUB PUSH1 0xA0 DUP10 ADD MSTORE PUSH2 0x4C6B JUMP JUMPDEST SWAP1 DUP6 DUP3 SUB PUSH1 0xC0 DUP8 ADD MSTORE PUSH2 0x4C6B JUMP JUMPDEST SWAP1 DUP4 DUP3 SUB PUSH1 0xE0 DUP6 ADD MSTORE PUSH2 0x4CA8 JUMP JUMPDEST DUP4 SLOAD DUP8 AND DUP6 MSTORE SWAP4 DUP13 ADD SWAP4 SWAP3 DUP3 ADD SWAP3 DUP3 ADD PUSH2 0x414B JUMP JUMPDEST DUP7 SLOAD DUP11 AND DUP6 MSTORE SWAP6 DUP2 ADD SWAP6 DUP15 SWAP6 POP SWAP1 SWAP4 ADD SWAP3 ADD DUP15 DUP15 PUSH2 0x4114 JUMP JUMPDEST SWAP1 SWAP2 POP DUP6 DUP2 DUP2 RETURNDATASIZE DUP4 GT PUSH2 0x4230 JUMPI JUMPDEST PUSH2 0x4220 DUP2 DUP4 PUSH2 0x4E16 JUMP JUMPDEST DUP2 ADD SUB SLT PUSH2 0x10C8 JUMPI MLOAD SWAP1 CODESIZE PUSH2 0x40D8 JUMP JUMPDEST POP RETURNDATASIZE PUSH2 0x4216 JUMP JUMPDEST POP PUSH1 0x40 MLOAD SWAP1 RETURNDATASIZE SWAP1 DUP3 RETURNDATACOPY RETURNDATASIZE SWAP1 REVERT JUMPDEST SWAP2 SWAP1 SWAP8 POP DUP6 DUP3 DUP2 RETURNDATASIZE DUP4 GT PUSH2 0x426E JUMPI JUMPDEST PUSH2 0x425D DUP2 DUP4 PUSH2 0x4E16 JUMP JUMPDEST DUP2 ADD SUB SLT PUSH2 0x10C8 JUMPI SWAP1 MLOAD SWAP7 DUP6 PUSH2 0x409E JUMP JUMPDEST POP RETURNDATASIZE PUSH2 0x4253 JUMP JUMPDEST POP CALLVALUE PUSH2 0x39E JUMPI PUSH1 0x20 DUP1 PUSH1 0x3 NOT CALLDATASIZE ADD SLT PUSH2 0x62D JUMPI PUSH1 0x4 CALLDATALOAD DUP1 DUP4 MSTORE PUSH1 0x1 DUP3 MSTORE PUSH1 0x40 DUP4 KECCAK256 PUSH1 0x3 DUP4 MSTORE PUSH1 0x40 DUP5 KECCAK256 CALLER DUP6 MSTORE DUP4 MSTORE PUSH2 0x42B3 PUSH1 0xFF PUSH1 0x40 DUP7 KECCAK256 SLOAD AND PUSH2 0x54EA JUMP JUMPDEST PUSH1 0xFF PUSH1 0xC DUP3 ADD SLOAD AND PUSH1 0x5 DUP2 LT ISZERO PUSH2 0xB67 JUMPI DUP1 PUSH2 0x445D JUMPI POP PUSH1 0x9 DUP2 ADD SLOAD PUSH2 0xA8BF NOT DUP2 ADD SWAP1 DUP2 GT PUSH2 0x4449 JUMPI TIMESTAMP LT ISZERO PUSH2 0x43DE JUMPI JUMPDEST DUP4 PUSH1 0x1 DUP1 PUSH1 0xA0 SHL SUB PUSH1 0x4 DUP2 PUSH1 0xC SLOAD AND SWAP4 ADD SLOAD AND SWAP2 PUSH1 0x40 MLOAD SWAP1 PUSH4 0x256BA741 PUSH1 0xE0 SHL DUP3 MSTORE DUP6 DUP3 DUP1 PUSH2 0x4318 DUP8 CALLER DUP11 PUSH1 0x4 DUP6 ADD PUSH2 0x5544 JUMP JUMPDEST SUB DUP2 DUP5 GAS STATICCALL SWAP2 DUP3 ISZERO PUSH2 0x645 JUMPI DUP4 SWAP3 PUSH2 0x43AF JUMPI JUMPDEST POP PUSH2 0x4337 DUP3 ISZERO ISZERO PUSH2 0x54EA JUMP JUMPDEST DUP1 EXTCODESIZE ISZERO PUSH2 0x1E94 JUMPI PUSH2 0x4361 SWAP4 DUP4 PUSH1 0x40 MLOAD DUP1 SWAP7 DUP2 SWAP6 DUP3 SWAP5 PUSH4 0x17BE0B2F PUSH1 0xE1 SHL DUP5 MSTORE CALLER DUP12 PUSH1 0x4 DUP7 ADD PUSH2 0x54A1 JUMP JUMPDEST SUB SWAP3 GAS CALL DUP1 ISZERO PUSH2 0x43A4 JUMPI PUSH2 0x4391 JUMPI JUMPDEST POP DUP3 MSTORE PUSH1 0x3 DUP2 MSTORE PUSH1 0x40 DUP3 KECCAK256 SWAP1 CALLER PUSH1 0x0 MSTORE MSTORE PUSH1 0x40 PUSH1 0x0 KECCAK256 PUSH1 0xFF NOT DUP2 SLOAD AND SWAP1 SSTORE DUP1 RETURN JUMPDEST PUSH2 0x439D SWAP1 SWAP4 SWAP2 SWAP4 PUSH2 0x4DCC JUMP JUMPDEST SWAP2 CODESIZE PUSH2 0x4370 JUMP JUMPDEST PUSH1 0x40 MLOAD RETURNDATASIZE DUP7 DUP3 RETURNDATACOPY RETURNDATASIZE SWAP1 REVERT JUMPDEST SWAP1 SWAP2 POP DUP6 DUP2 DUP2 RETURNDATASIZE DUP4 GT PUSH2 0x43D7 JUMPI JUMPDEST PUSH2 0x43C7 DUP2 DUP4 PUSH2 0x4E16 JUMP JUMPDEST DUP2 ADD SUB SLT PUSH2 0x1E94 JUMPI MLOAD SWAP1 CODESIZE PUSH2 0x432B JUMP JUMPDEST POP RETURNDATASIZE PUSH2 0x43BD JUMP JUMPDEST PUSH1 0x40 MLOAD PUSH3 0x461BCD PUSH1 0xE5 SHL DUP2 MSTORE PUSH1 0x4 DUP2 ADD DUP5 SWAP1 MSTORE PUSH1 0x3D PUSH1 0x24 DUP3 ADD MSTORE PUSH32 0x4D61726B65744D616E616765723A2043616E6E6F742077697468647261772077 PUSH1 0x44 DUP3 ADD MSTORE PUSH32 0x697468696E20313220686F757273206F66207374616B696E6720656E64000000 PUSH1 0x64 DUP3 ADD MSTORE PUSH1 0x84 SWAP1 REVERT JUMPDEST PUSH4 0x4E487B71 PUSH1 0xE0 SHL DUP6 MSTORE PUSH1 0x11 PUSH1 0x4 MSTORE PUSH1 0x24 DUP6 REVERT JUMPDEST PUSH1 0x4 DUP2 EQ SWAP1 DUP2 ISZERO PUSH2 0x44D2 JUMPI JUMPDEST POP PUSH2 0x42E4 JUMPI PUSH1 0x40 MLOAD PUSH3 0x461BCD PUSH1 0xE5 SHL DUP2 MSTORE PUSH1 0x4 DUP2 ADD DUP5 SWAP1 MSTORE PUSH1 0x36 PUSH1 0x24 DUP3 ADD MSTORE PUSH32 0x4D61726B65744D616E616765723A2043616E6E6F742077697468647261772069 PUSH1 0x44 DUP3 ADD MSTORE PUSH22 0x6E2063757272656E74206D61726B6574207374617465 PUSH1 0x50 SHL PUSH1 0x64 DUP3 ADD MSTORE PUSH1 0x84 SWAP1 REVERT JUMPDEST PUSH1 0x3 SWAP2 POP EQ CODESIZE PUSH2 0x4469 JUMP JUMPDEST POP CALLVALUE PUSH2 0x39E JUMPI DUP1 PUSH1 0x3 NOT CALLDATASIZE ADD SLT PUSH2 0x39E JUMPI PUSH1 0x40 MLOAD DUP1 SWAP2 DUP3 PUSH1 0xB SLOAD DUP1 DUP5 MSTORE PUSH1 0x20 DUP1 SWAP5 ADD SWAP1 PUSH1 0xB DUP5 MSTORE DUP5 DUP5 KECCAK256 SWAP4 JUMPDEST DUP6 DUP3 DUP3 LT PUSH2 0x4520 JUMPI POP POP POP PUSH2 0x2136 SWAP3 POP SUB DUP4 PUSH2 0x4E16 JUMP JUMPDEST DUP6 SLOAD PUSH1 0x1 PUSH1 0x1 PUSH1 0xA0 SHL SUB AND DUP5 MSTORE PUSH1 0x1 SWAP6 DUP7 ADD SWAP6 DUP9 SWAP6 POP SWAP4 ADD SWAP3 ADD PUSH2 0x4509 JUMP JUMPDEST POP CALLVALUE PUSH2 0x39E JUMPI PUSH1 0x20 CALLDATASIZE PUSH1 0x3 NOT ADD SLT PUSH2 0x39E JUMPI PUSH1 0x4 CALLDATALOAD SWAP1 PUSH1 0x14 SLOAD DUP3 LT ISZERO PUSH2 0x39E JUMPI PUSH1 0x20 PUSH2 0x2094 DUP4 PUSH2 0x4BB1 JUMP JUMPDEST POP CALLVALUE PUSH2 0x39E JUMPI PUSH1 0x20 DUP1 PUSH1 0x3 NOT CALLDATASIZE ADD SLT PUSH2 0x62D JUMPI PUSH1 0x1 PUSH1 0x1 PUSH1 0xA0 SHL SUB PUSH2 0x458D PUSH2 0x4B1F JUMP JUMPDEST AND DUP3 MSTORE PUSH1 0x16 DUP2 MSTORE PUSH1 0x40 DUP3 KECCAK256 SWAP2 PUSH1 0x40 MLOAD DUP1 SWAP3 DUP1 DUP6 SLOAD SWAP3 DUP4 DUP2 MSTORE ADD SWAP5 DUP4 MSTORE DUP1 DUP4 KECCAK256 SWAP3 SWAP1 JUMPDEST DUP3 DUP3 LT PUSH2 0x45C6 JUMPI PUSH2 0x3F0 DUP6 PUSH2 0x1FDC DUP2 DUP10 SUB DUP3 PUSH2 0x4E16 JUMP JUMPDEST DUP4 SLOAD DUP7 MSTORE SWAP5 DUP6 ADD SWAP5 PUSH1 0x1 SWAP4 DUP5 ADD SWAP4 SWAP1 SWAP2 ADD SWAP1 PUSH2 0x45AF JUMP JUMPDEST POP CALLVALUE PUSH2 0x39E JUMPI PUSH1 0x40 CALLDATASIZE PUSH1 0x3 NOT ADD SLT PUSH2 0x39E JUMPI PUSH1 0xFF PUSH1 0x40 PUSH1 0x20 SWAP3 PUSH2 0x45FE PUSH2 0x4B35 JUMP JUMPDEST PUSH1 0x4 CALLDATALOAD DUP3 MSTORE PUSH1 0x2 DUP6 MSTORE DUP3 DUP3 KECCAK256 PUSH1 0x1 PUSH1 0x1 PUSH1 0xA0 SHL SUB SWAP1 SWAP2 AND DUP3 MSTORE DUP5 MSTORE KECCAK256 SLOAD PUSH1 0x40 MLOAD SWAP2 AND ISZERO ISZERO DUP2 MSTORE RETURN JUMPDEST POP CALLVALUE PUSH2 0x39E JUMPI DUP1 PUSH1 0x3 NOT CALLDATASIZE ADD SLT PUSH2 0x39E JUMPI PUSH1 0x20 PUSH1 0x10 SLOAD PUSH1 0x40 MLOAD SWAP1 DUP2 MSTORE RETURN JUMPDEST POP CALLVALUE PUSH2 0x39E JUMPI DUP1 PUSH1 0x3 NOT CALLDATASIZE ADD SLT PUSH2 0x39E JUMPI PUSH1 0x20 PUSH1 0x40 MLOAD PUSH1 0x96 DUP2 MSTORE RETURN JUMPDEST POP CALLVALUE PUSH2 0x39E JUMPI PUSH2 0x466F CALLDATASIZE PUSH2 0x4C1A JUMP JUMPDEST SWAP2 SWAP1 DUP2 MSTORE PUSH1 0x17 PUSH1 0x20 MSTORE PUSH1 0x40 DUP2 KECCAK256 SWAP1 DUP2 SLOAD DUP4 LT ISZERO PUSH2 0x39E JUMPI PUSH1 0x20 PUSH2 0x1761 DUP5 DUP5 PUSH2 0x4C02 JUMP JUMPDEST POP CALLVALUE PUSH2 0x39E JUMPI PUSH1 0x20 CALLDATASIZE PUSH1 0x3 NOT ADD SLT PUSH2 0x39E JUMPI PUSH1 0x4 CALLDATALOAD SWAP1 PUSH1 0x9 SLOAD DUP3 LT ISZERO PUSH2 0x39E JUMPI PUSH1 0x20 PUSH2 0x1761 DUP4 PUSH2 0x4B80 JUMP JUMPDEST POP CALLVALUE PUSH2 0x39E JUMPI PUSH1 0x20 CALLDATASIZE PUSH1 0x3 NOT ADD SLT PUSH2 0x39E JUMPI PUSH1 0x20 SWAP1 PUSH1 0xFF SWAP1 PUSH1 0x40 SWAP1 PUSH1 0x1 PUSH1 0x1 PUSH1 0xA0 SHL SUB PUSH2 0x46E8 PUSH2 0x4B1F JUMP JUMPDEST AND DUP2 MSTORE PUSH1 0xA DUP5 MSTORE KECCAK256 SLOAD AND PUSH1 0x40 MLOAD SWAP1 ISZERO ISZERO DUP2 MSTORE RETURN JUMPDEST POP CALLVALUE PUSH2 0x39E JUMPI PUSH1 0x40 CALLDATASIZE PUSH1 0x3 NOT ADD SLT PUSH2 0x39E JUMPI PUSH1 0xFF PUSH1 0x40 PUSH1 0x20 SWAP3 PUSH2 0x471D PUSH2 0x4B35 JUMP JUMPDEST PUSH1 0x4 CALLDATALOAD DUP3 MSTORE PUSH1 0x3 DUP6 MSTORE DUP3 DUP3 KECCAK256 PUSH1 0x1 PUSH1 0x1 PUSH1 0xA0 SHL SUB SWAP1 SWAP2 AND DUP3 MSTORE DUP5 MSTORE KECCAK256 SLOAD PUSH1 0x40 MLOAD SWAP2 AND ISZERO ISZERO DUP2 MSTORE RETURN JUMPDEST POP CALLVALUE PUSH2 0x39E JUMPI PUSH2 0x4788 PUSH1 0x20 PUSH2 0x4759 CALLDATASIZE PUSH2 0x4B4B JUMP JUMPDEST PUSH1 0xC SLOAD PUSH1 0x40 MLOAD PUSH4 0x256BA741 PUSH1 0xE0 SHL DUP2 MSTORE SWAP6 DUP7 SWAP5 PUSH1 0x1 PUSH1 0x1 PUSH1 0xA0 SHL SUB SWAP1 SWAP3 AND SWAP4 DUP6 SWAP4 DUP5 SWAP4 SWAP1 SWAP2 SWAP1 PUSH1 0x4 DUP6 ADD PUSH2 0x5544 JUMP JUMPDEST SUB SWAP2 GAS STATICCALL SWAP1 DUP2 ISZERO PUSH2 0x622 JUMPI DUP3 SWAP2 PUSH2 0x47A5 JUMPI JUMPDEST PUSH1 0x20 DUP3 PUSH1 0x40 MLOAD SWAP1 DUP2 MSTORE RETURN JUMPDEST SWAP1 POP PUSH1 0x20 DUP2 RETURNDATASIZE DUP3 GT PUSH2 0x47D2 JUMPI JUMPDEST DUP2 PUSH2 0x47BF PUSH1 0x20 SWAP4 DUP4 PUSH2 0x4E16 JUMP JUMPDEST DUP2 ADD SUB SLT PUSH2 0x62D JUMPI PUSH1 0x20 SWAP2 POP MLOAD CODESIZE PUSH2 0x479A JUMP JUMPDEST RETURNDATASIZE SWAP2 POP PUSH2 0x47B2 JUMP JUMPDEST POP CALLVALUE PUSH2 0x39E JUMPI DUP1 PUSH1 0x3 NOT CALLDATASIZE ADD SLT PUSH2 0x39E JUMPI PUSH1 0x20 PUSH1 0x11 SLOAD PUSH1 0x40 MLOAD SWAP1 DUP2 MSTORE RETURN JUMPDEST POP CALLVALUE PUSH2 0x39E JUMPI PUSH1 0x20 CALLDATASIZE PUSH1 0x3 NOT ADD SLT PUSH2 0x39E JUMPI PUSH1 0x4 CALLDATALOAD DUP1 DUP3 MSTORE PUSH1 0x1 PUSH1 0x20 MSTORE PUSH1 0x40 DUP3 KECCAK256 PUSH1 0xC DUP2 ADD SWAP1 DUP2 SLOAD SWAP1 PUSH1 0xFF DUP3 AND PUSH1 0x5 DUP2 LT ISZERO PUSH2 0x789 JUMPI SWAP1 PUSH2 0x483B PUSH1 0xA SWAP3 ISZERO PUSH2 0x52A4 JUMP JUMPDEST ADD SLOAD TIMESTAMP LT PUSH2 0x486D JUMPI PUSH1 0xFF NOT AND PUSH1 0x1 OR SWAP1 SSTORE DUP1 DUP3 MSTORE PUSH1 0x15 PUSH1 0x20 MSTORE PUSH1 0x40 DUP3 KECCAK256 SLOAD PUSH1 0xFF AND PUSH2 0x4864 JUMPI POP DUP1 RETURN JUMPDEST PUSH2 0x159E SWAP1 PUSH2 0x6374 JUMP JUMPDEST PUSH1 0x40 MLOAD PUSH3 0x461BCD PUSH1 0xE5 SHL DUP2 MSTORE PUSH1 0x20 PUSH1 0x4 DUP3 ADD MSTORE PUSH1 0x2A PUSH1 0x24 DUP3 ADD MSTORE PUSH32 0x4D61726B65744D616E616765723A205265736F6C7574696F6E2074696D65206E PUSH1 0x44 DUP3 ADD MSTORE PUSH10 0x1BDD081C995858DA1959 PUSH1 0xB2 SHL PUSH1 0x64 DUP3 ADD MSTORE PUSH1 0x84 SWAP1 REVERT JUMPDEST POP CALLVALUE PUSH2 0x39E JUMPI PUSH1 0x20 CALLDATASIZE PUSH1 0x3 NOT ADD SLT PUSH2 0x39E JUMPI PUSH1 0xFF PUSH1 0x40 PUSH1 0x20 SWAP3 PUSH1 0x4 CALLDATALOAD DUP2 MSTORE PUSH1 0x15 DUP5 MSTORE KECCAK256 SLOAD AND PUSH1 0x40 MLOAD SWAP1 ISZERO ISZERO DUP2 MSTORE RETURN JUMPDEST POP CALLVALUE PUSH2 0x39E JUMPI PUSH1 0x20 CALLDATASIZE PUSH1 0x3 NOT ADD SLT PUSH2 0x39E JUMPI PUSH1 0x40 PUSH1 0x20 SWAP2 PUSH1 0x4 CALLDATALOAD DUP2 MSTORE PUSH1 0x5 DUP4 MSTORE KECCAK256 SLOAD PUSH1 0x40 MLOAD SWAP1 DUP2 MSTORE RETURN JUMPDEST POP CALLVALUE PUSH2 0x39E JUMPI PUSH1 0x20 DUP1 PUSH1 0x3 NOT CALLDATASIZE ADD SLT PUSH2 0x62D JUMPI PUSH1 0x4 CALLDATALOAD SWAP1 PUSH2 0x493D PUSH2 0x4F8A JUMP JUMPDEST PUSH2 0x494A PUSH1 0xF SLOAD DUP4 LT PUSH2 0x62D1 JUMP JUMPDEST DUP2 DUP4 MSTORE PUSH1 0x1 DUP1 DUP3 MSTORE PUSH1 0x40 DUP5 KECCAK256 SLOAD PUSH2 0x496B SWAP1 PUSH1 0x1 PUSH1 0x1 PUSH1 0xA0 SHL SUB AND ISZERO ISZERO PUSH2 0x631C JUMP JUMPDEST DUP3 DUP5 MSTORE DUP1 DUP3 MSTORE PUSH1 0xFF PUSH1 0xC PUSH1 0x40 DUP7 KECCAK256 ADD SLOAD AND PUSH1 0x5 DUP2 LT ISZERO PUSH2 0xB67 JUMPI PUSH1 0x2 PUSH2 0x4991 SWAP2 EQ PUSH2 0x58E7 JUMP JUMPDEST DUP3 DUP5 MSTORE DUP1 DUP3 MSTORE PUSH1 0xB PUSH1 0x40 DUP6 KECCAK256 ADD SLOAD PUSH3 0x278D00 DUP2 ADD DUP1 SWAP2 GT PUSH2 0x4449 JUMPI TIMESTAMP LT PUSH2 0x4ACC JUMPI DUP3 DUP5 MSTORE DUP1 DUP3 MSTORE DUP4 PUSH1 0xE PUSH1 0x40 DUP3 KECCAK256 DUP3 DUP2 SSTORE PUSH2 0x49CD DUP5 DUP3 ADD PUSH2 0x6288 JUMP JUMPDEST DUP3 PUSH1 0x2 DUP3 ADD SSTORE DUP3 PUSH1 0x3 DUP3 ADD SSTORE DUP3 PUSH1 0x4 DUP3 ADD SSTORE DUP3 PUSH1 0x5 DUP3 ADD SSTORE DUP3 PUSH1 0x6 DUP3 ADD SSTORE DUP3 PUSH1 0x7 DUP3 ADD SSTORE DUP3 PUSH1 0x8 DUP3 ADD SSTORE DUP3 PUSH1 0x9 DUP3 ADD SSTORE DUP3 PUSH1 0xA DUP3 ADD SSTORE DUP3 PUSH1 0xB DUP3 ADD SSTORE DUP3 PUSH1 0xC DUP3 ADD SSTORE DUP3 PUSH1 0xD DUP3 ADD SSTORE ADD SSTORE DUP3 DUP5 MSTORE PUSH1 0x15 DUP3 MSTORE PUSH1 0xFF PUSH1 0x40 DUP6 KECCAK256 SLOAD AND PUSH2 0x4ABE JUMPI JUMPDEST PUSH1 0x1A SLOAD SWAP1 PUSH1 0x1 PUSH1 0x40 SHL DUP3 LT ISZERO PUSH2 0x354D JUMPI DUP2 ADD DUP1 PUSH1 0x1A SSTORE DUP2 LT ISZERO PUSH2 0x4AAA JUMPI PUSH1 0x0 DUP1 MLOAD PUSH1 0x20 PUSH2 0x64BB DUP4 CODECOPY DUP2 MLOAD SWAP2 MSTORE SWAP2 DUP4 PUSH1 0x80 SWAP3 PUSH1 0x1A DUP8 MSTORE DUP3 DUP8 KECCAK256 ADD SSTORE PUSH1 0x26 PUSH1 0x40 MLOAD SWAP2 DUP1 DUP4 MSTORE DUP3 ADD MSTORE PUSH32 0x5065726D616E656E746C792072656D6F76656420616674657220636C61696D20 PUSH1 0x40 DUP3 ADD MSTORE PUSH6 0x1C195C9A5BD9 PUSH1 0xD2 SHL PUSH1 0x60 DUP3 ADD MSTORE LOG2 DUP1 RETURN JUMPDEST PUSH4 0x4E487B71 PUSH1 0xE0 SHL DUP5 MSTORE PUSH1 0x32 PUSH1 0x4 MSTORE PUSH1 0x24 DUP5 REVERT JUMPDEST PUSH2 0x4AC7 DUP4 PUSH2 0x6374 JUMP JUMPDEST PUSH2 0x4A2B JUMP JUMPDEST PUSH1 0x40 MLOAD PUSH3 0x461BCD PUSH1 0xE5 SHL DUP2 MSTORE PUSH1 0x4 DUP2 ADD DUP4 SWAP1 MSTORE PUSH1 0x25 PUSH1 0x24 DUP3 ADD MSTORE PUSH32 0x4D61726B65744D616E616765723A20436C61696D20706572696F64206E6F7420 PUSH1 0x44 DUP3 ADD MSTORE PUSH5 0x195B991959 PUSH1 0xDA SHL PUSH1 0x64 DUP3 ADD MSTORE PUSH1 0x84 SWAP1 REVERT JUMPDEST PUSH1 0x4 CALLDATALOAD SWAP1 PUSH1 0x1 PUSH1 0x1 PUSH1 0xA0 SHL SUB DUP3 AND DUP3 SUB PUSH2 0x10C8 JUMPI JUMP JUMPDEST PUSH1 0x24 CALLDATALOAD SWAP1 PUSH1 0x1 PUSH1 0x1 PUSH1 0xA0 SHL SUB DUP3 AND DUP3 SUB PUSH2 0x10C8 JUMPI JUMP JUMPDEST PUSH1 0x60 SWAP1 PUSH1 0x3 NOT ADD SLT PUSH2 0x10C8 JUMPI PUSH1 0x4 CALLDATALOAD SWAP1 PUSH1 0x1 PUSH1 0x1 PUSH1 0xA0 SHL SUB SWAP1 PUSH1 0x24 CALLDATALOAD DUP3 DUP2 AND DUP2 SUB PUSH2 0x10C8 JUMPI SWAP2 PUSH1 0x44 CALLDATALOAD SWAP1 DUP2 AND DUP2 SUB PUSH2 0x10C8 JUMPI SWAP1 JUMP JUMPDEST PUSH1 0x9 SLOAD DUP2 LT ISZERO PUSH2 0x4B9B JUMPI PUSH1 0x9 PUSH1 0x0 MSTORE PUSH1 0x20 PUSH1 0x0 KECCAK256 ADD SWAP1 PUSH1 0x0 SWAP1 JUMP JUMPDEST PUSH4 0x4E487B71 PUSH1 0xE0 SHL PUSH1 0x0 MSTORE PUSH1 0x32 PUSH1 0x4 MSTORE PUSH1 0x24 PUSH1 0x0 REVERT JUMPDEST PUSH1 0x14 SLOAD DUP2 LT ISZERO PUSH2 0x4B9B JUMPI PUSH1 0x14 PUSH1 0x0 MSTORE PUSH1 0x20 PUSH1 0x0 KECCAK256 ADD SWAP1 PUSH1 0x0 SWAP1 JUMP JUMPDEST PUSH1 0x18 SLOAD DUP2 LT ISZERO PUSH2 0x4B9B JUMPI PUSH1 0x18 PUSH1 0x0 MSTORE PUSH1 0x20 PUSH1 0x0 KECCAK256 ADD SWAP1 PUSH1 0x0 SWAP1 JUMP JUMPDEST PUSH1 0xB SLOAD DUP2 LT ISZERO PUSH2 0x4B9B JUMPI PUSH1 0xB PUSH1 0x0 MSTORE PUSH1 0x20 PUSH1 0x0 KECCAK256 ADD SWAP1 PUSH1 0x0 SWAP1 JUMP JUMPDEST DUP1 SLOAD DUP3 LT ISZERO PUSH2 0x4B9B JUMPI PUSH1 0x0 MSTORE PUSH1 0x20 PUSH1 0x0 KECCAK256 ADD SWAP1 PUSH1 0x0 SWAP1 JUMP JUMPDEST PUSH1 0x40 SWAP1 PUSH1 0x3 NOT ADD SLT PUSH2 0x10C8 JUMPI PUSH1 0x4 CALLDATALOAD SWAP1 PUSH1 0x24 CALLDATALOAD SWAP1 JUMP JUMPDEST PUSH1 0x20 SWAP1 DUP2 PUSH1 0x40 DUP2 DUP4 ADD SWAP3 DUP3 DUP2 MSTORE DUP6 MLOAD DUP1 SWAP5 MSTORE ADD SWAP4 ADD SWAP2 PUSH1 0x0 JUMPDEST DUP3 DUP2 LT PUSH2 0x4C57 JUMPI POP POP POP POP SWAP1 JUMP JUMPDEST DUP4 MLOAD DUP6 MSTORE SWAP4 DUP2 ADD SWAP4 SWAP3 DUP2 ADD SWAP3 PUSH1 0x1 ADD PUSH2 0x4C49 JUMP JUMPDEST SWAP1 DUP2 MLOAD DUP1 DUP3 MSTORE PUSH1 0x20 DUP1 DUP1 SWAP4 ADD SWAP4 ADD SWAP2 PUSH1 0x0 JUMPDEST DUP3 DUP2 LT PUSH2 0x4C8B JUMPI POP POP POP POP SWAP1 JUMP JUMPDEST DUP4 MLOAD PUSH1 0x1 PUSH1 0x1 PUSH1 0xA0 SHL SUB AND DUP6 MSTORE SWAP4 DUP2 ADD SWAP4 SWAP3 DUP2 ADD SWAP3 PUSH1 0x1 ADD PUSH2 0x4C7D JUMP JUMPDEST SWAP2 SWAP1 DUP3 MLOAD SWAP3 DUP4 DUP3 MSTORE PUSH1 0x0 JUMPDEST DUP5 DUP2 LT PUSH2 0x4CD4 JUMPI POP POP DUP3 PUSH1 0x0 PUSH1 0x20 DUP1 SWAP5 SWAP6 DUP5 ADD ADD MSTORE PUSH1 0x1F DUP1 NOT SWAP2 ADD AND ADD ADD SWAP1 JUMP JUMPDEST PUSH1 0x20 DUP2 DUP4 ADD DUP2 ADD MLOAD DUP5 DUP4 ADD DUP3 ADD MSTORE ADD PUSH2 0x4CB3 JUMP JUMPDEST SWAP1 PUSH1 0x5 DUP3 LT ISZERO PUSH2 0x4CF5 JUMPI MSTORE JUMP JUMPDEST PUSH4 0x4E487B71 PUSH1 0xE0 SHL PUSH1 0x0 MSTORE PUSH1 0x21 PUSH1 0x4 MSTORE PUSH1 0x24 PUSH1 0x0 REVERT JUMPDEST SWAP1 PUSH1 0x1 DUP1 PUSH1 0xA0 SHL SUB SWAP2 DUP3 DUP2 MLOAD AND DUP3 MSTORE PUSH2 0x4D33 PUSH1 0x20 DUP3 ADD MLOAD PUSH2 0x1E0 DUP1 PUSH1 0x20 DUP7 ADD MSTORE DUP5 ADD SWAP1 PUSH2 0x4CA8 JUMP JUMPDEST SWAP3 PUSH1 0x40 DUP3 ADD MLOAD ISZERO ISZERO PUSH1 0x40 DUP5 ADD MSTORE PUSH1 0x60 DUP3 ADD MLOAD PUSH1 0x60 DUP5 ADD MSTORE PUSH1 0x80 DUP3 ADD MLOAD AND PUSH1 0x80 DUP4 ADD MSTORE PUSH1 0xA0 DUP2 ADD MLOAD PUSH1 0xA0 DUP4 ADD MSTORE PUSH1 0xC0 DUP2 ADD MLOAD PUSH1 0xC0 DUP4 ADD MSTORE PUSH1 0xE0 DUP2 ADD MLOAD PUSH1 0xE0 DUP4 ADD MSTORE PUSH2 0x100 DUP1 DUP3 ADD MLOAD SWAP1 DUP4 ADD MSTORE PUSH2 0x120 DUP1 DUP3 ADD MLOAD SWAP1 DUP4 ADD MSTORE PUSH2 0x140 DUP1 DUP3 ADD MLOAD SWAP1 DUP4 ADD MSTORE PUSH2 0x160 DUP1 DUP3 ADD MLOAD SWAP1 DUP4 ADD MSTORE PUSH2 0x4DB2 PUSH2 0x180 DUP1 DUP4 ADD MLOAD SWAP1 DUP5 ADD SWAP1 PUSH2 0x4CE8 JUMP JUMPDEST PUSH2 0x1A0 DUP1 DUP3 ADD MLOAD SWAP1 DUP4 ADD MSTORE PUSH2 0x1C0 DUP1 SWAP2 ADD MLOAD ISZERO ISZERO SWAP2 ADD MSTORE SWAP1 JUMP JUMPDEST PUSH1 0x1 PUSH1 0x1 PUSH1 0x40 SHL SUB DUP2 GT PUSH2 0x15A1 JUMPI PUSH1 0x40 MSTORE JUMP JUMPDEST PUSH2 0x1E0 DUP2 ADD SWAP1 DUP2 LT PUSH1 0x1 PUSH1 0x1 PUSH1 0x40 SHL SUB DUP3 GT OR PUSH2 0x15A1 JUMPI PUSH1 0x40 MSTORE JUMP JUMPDEST PUSH1 0x40 DUP2 ADD SWAP1 DUP2 LT PUSH1 0x1 PUSH1 0x1 PUSH1 0x40 SHL SUB DUP3 GT OR PUSH2 0x15A1 JUMPI PUSH1 0x40 MSTORE JUMP JUMPDEST PUSH1 0x1F SWAP1 SWAP2 ADD PUSH1 0x1F NOT AND DUP2 ADD SWAP1 PUSH1 0x1 PUSH1 0x1 PUSH1 0x40 SHL SUB DUP3 GT SWAP1 DUP3 LT OR PUSH2 0x15A1 JUMPI PUSH1 0x40 MSTORE JUMP JUMPDEST PUSH1 0x1 PUSH1 0x1 PUSH1 0x40 SHL SUB DUP2 GT PUSH2 0x15A1 JUMPI PUSH1 0x1F ADD PUSH1 0x1F NOT AND PUSH1 0x20 ADD SWAP1 JUMP JUMPDEST DUP2 PUSH1 0x1F DUP3 ADD SLT ISZERO PUSH2 0x10C8 JUMPI DUP1 CALLDATALOAD SWAP1 PUSH2 0x4E6B DUP3 PUSH2 0x4E39 JUMP JUMPDEST SWAP3 PUSH2 0x4E79 PUSH1 0x40 MLOAD SWAP5 DUP6 PUSH2 0x4E16 JUMP JUMPDEST DUP3 DUP5 MSTORE PUSH1 0x20 DUP4 DUP4 ADD ADD GT PUSH2 0x10C8 JUMPI DUP2 PUSH1 0x0 SWAP3 PUSH1 0x20 DUP1 SWAP4 ADD DUP4 DUP7 ADD CALLDATACOPY DUP4 ADD ADD MSTORE SWAP1 JUMP JUMPDEST PUSH1 0x24 CALLDATALOAD SWAP1 DUP2 ISZERO ISZERO DUP3 SUB PUSH2 0x10C8 JUMPI JUMP JUMPDEST SWAP1 PUSH1 0x1 DUP3 DUP2 SHR SWAP3 AND DUP1 ISZERO PUSH2 0x4EDA JUMPI JUMPDEST PUSH1 0x20 DUP4 LT EQ PUSH2 0x4EC4 JUMPI JUMP JUMPDEST PUSH4 0x4E487B71 PUSH1 0xE0 SHL PUSH1 0x0 MSTORE PUSH1 0x22 PUSH1 0x4 MSTORE PUSH1 0x24 PUSH1 0x0 REVERT JUMPDEST SWAP2 PUSH1 0x7F AND SWAP2 PUSH2 0x4EB9 JUMP JUMPDEST SWAP1 PUSH1 0x40 MLOAD SWAP2 DUP3 PUSH1 0x0 DUP3 SLOAD SWAP3 PUSH2 0x4EF8 DUP5 PUSH2 0x4EAA JUMP JUMPDEST SWAP1 DUP2 DUP5 MSTORE PUSH1 0x1 SWAP5 DUP6 DUP2 AND SWAP1 DUP2 PUSH1 0x0 EQ PUSH2 0x4F67 JUMPI POP PUSH1 0x1 EQ PUSH2 0x4F24 JUMPI JUMPDEST POP POP PUSH2 0x4F22 SWAP3 POP SUB DUP4 PUSH2 0x4E16 JUMP JUMPDEST JUMP JUMPDEST SWAP1 SWAP4 SWAP2 POP PUSH1 0x0 MSTORE PUSH1 0x20 SWAP1 DUP2 PUSH1 0x0 KECCAK256 SWAP4 PUSH1 0x0 SWAP2 JUMPDEST DUP2 DUP4 LT PUSH2 0x4F4F JUMPI POP POP PUSH2 0x4F22 SWAP4 POP DUP3 ADD ADD CODESIZE DUP1 PUSH2 0x4F14 JUMP JUMPDEST DUP6 SLOAD DUP9 DUP5 ADD DUP6 ADD MSTORE SWAP5 DUP6 ADD SWAP5 DUP8 SWAP5 POP SWAP2 DUP4 ADD SWAP2 PUSH2 0x4F37 JUMP JUMPDEST SWAP2 POP POP PUSH2 0x4F22 SWAP5 POP PUSH1 0x20 SWAP3 POP PUSH1 0xFF NOT AND DUP3 DUP5 ADD MSTORE ISZERO ISZERO PUSH1 0x5 SHL DUP3 ADD ADD CODESIZE DUP1 PUSH2 0x4F14 JUMP JUMPDEST PUSH1 0x0 SLOAD PUSH1 0x1 PUSH1 0x1 PUSH1 0xA0 SHL SUB AND CALLER SUB PUSH2 0x4F9E JUMPI JUMP JUMPDEST PUSH1 0x40 MLOAD PUSH4 0x118CDAA7 PUSH1 0xE0 SHL DUP2 MSTORE CALLER PUSH1 0x4 DUP3 ADD MSTORE PUSH1 0x24 SWAP1 REVERT JUMPDEST ISZERO PUSH2 0x4FBD JUMPI JUMP JUMPDEST PUSH1 0x40 MLOAD PUSH3 0x461BCD PUSH1 0xE5 SHL DUP2 MSTORE PUSH1 0x20 PUSH1 0x4 DUP3 ADD MSTORE PUSH1 0x21 PUSH1 0x24 DUP3 ADD MSTORE PUSH32 0x4D61726B65744D616E616765723A2057616C6C657420626C61636B6C69737465 PUSH1 0x44 DUP3 ADD MSTORE PUSH1 0x19 PUSH1 0xFA SHL PUSH1 0x64 DUP3 ADD MSTORE PUSH1 0x84 SWAP1 REVERT JUMPDEST ISZERO PUSH2 0x5013 JUMPI JUMP JUMPDEST PUSH1 0x40 MLOAD PUSH3 0x461BCD PUSH1 0xE5 SHL DUP2 MSTORE PUSH1 0x20 PUSH1 0x4 DUP3 ADD MSTORE PUSH1 0x22 PUSH1 0x24 DUP3 ADD MSTORE PUSH1 0x0 DUP1 MLOAD PUSH1 0x20 PUSH2 0x64FB DUP4 CODECOPY DUP2 MLOAD SWAP2 MSTORE PUSH1 0x44 DUP3 ADD MSTORE PUSH2 0x1959 PUSH1 0xF2 SHL PUSH1 0x64 DUP3 ADD MSTORE PUSH1 0x84 SWAP1 REVERT JUMPDEST DUP2 DUP2 MUL SWAP3 SWAP2 DUP2 ISZERO SWAP2 DUP5 DIV EQ OR ISZERO PUSH2 0x5064 JUMPI JUMP JUMPDEST PUSH4 0x4E487B71 PUSH1 0xE0 SHL PUSH1 0x0 MSTORE PUSH1 0x11 PUSH1 0x4 MSTORE PUSH1 0x24 PUSH1 0x0 REVERT JUMPDEST SWAP2 SWAP1 DUP3 ADD DUP1 SWAP3 GT PUSH2 0x5064 JUMPI JUMP JUMPDEST PUSH1 0x0 NOT DUP2 EQ PUSH2 0x5064 JUMPI PUSH1 0x1 ADD SWAP1 JUMP JUMPDEST PUSH1 0x5 DUP3 LT ISZERO PUSH2 0x4CF5 JUMPI MSTORE JUMP JUMPDEST DUP2 DUP2 LT PUSH2 0x50AD JUMPI POP POP JUMP JUMPDEST PUSH1 0x0 DUP2 SSTORE PUSH1 0x1 ADD PUSH2 0x50A2 JUMP JUMPDEST SWAP1 PUSH1 0xFF DUP1 NOT DUP4 SLOAD AND SWAP2 ISZERO ISZERO AND OR SWAP1 SSTORE JUMP JUMPDEST DUP1 SLOAD SWAP2 SWAP1 PUSH1 0x1 PUSH1 0x40 SHL DUP4 LT ISZERO PUSH2 0x15A1 JUMPI DUP3 PUSH2 0x30C1 SWAP2 PUSH1 0x1 PUSH2 0x4F22 SWAP6 ADD DUP2 SSTORE PUSH2 0x4C02 JUMP JUMPDEST RETURNDATASIZE ISZERO PUSH2 0x5118 JUMPI RETURNDATASIZE SWAP1 PUSH2 0x50FE DUP3 PUSH2 0x4E39 JUMP JUMPDEST SWAP2 PUSH2 0x510C PUSH1 0x40 MLOAD SWAP4 DUP5 PUSH2 0x4E16 JUMP JUMPDEST DUP3 MSTORE RETURNDATASIZE PUSH1 0x0 PUSH1 0x20 DUP5 ADD RETURNDATACOPY JUMP JUMPDEST PUSH1 0x60 SWAP1 JUMP JUMPDEST ISZERO PUSH2 0x5124 JUMPI JUMP JUMPDEST PUSH1 0x40 MLOAD PUSH3 0x461BCD PUSH1 0xE5 SHL DUP2 MSTORE PUSH1 0x20 PUSH1 0x4 DUP3 ADD MSTORE PUSH1 0x2B PUSH1 0x24 DUP3 ADD MSTORE PUSH32 0x4D61726B65744D616E616765723A20466565207472616E7366657220746F206F PUSH1 0x44 DUP3 ADD MSTORE PUSH11 0x1DDB995C8819985A5B1959 PUSH1 0xAA SHL PUSH1 0x64 DUP3 ADD MSTORE PUSH1 0x84 SWAP1 REVERT JUMPDEST SWAP1 DUP2 MSTORE PUSH1 0x1 PUSH1 0x1 PUSH1 0xA0 SHL SUB SWAP2 DUP3 AND PUSH1 0x20 DUP3 ADD MSTORE SWAP2 AND PUSH1 0x40 DUP3 ADD MSTORE PUSH1 0x60 DUP2 ADD SWAP2 SWAP1 SWAP2 MSTORE PUSH1 0x80 DUP2 ADD SWAP2 SWAP1 SWAP2 MSTORE PUSH1 0xA0 ADD SWAP1 JUMP JUMPDEST SWAP1 DUP2 MSTORE PUSH1 0x1 PUSH1 0x1 PUSH1 0xA0 SHL SUB SWAP1 SWAP2 AND PUSH1 0x20 DUP3 ADD MSTORE PUSH1 0x40 ADD SWAP1 JUMP JUMPDEST SWAP1 SWAP5 SWAP4 SWAP3 PUSH1 0x60 SWAP3 PUSH1 0x80 DUP4 ADD SWAP7 DUP4 MSTORE PUSH1 0x1 DUP1 PUSH1 0xA0 SHL SUB AND PUSH1 0x20 DUP4 ADD MSTORE PUSH1 0x40 DUP3 ADD MSTORE ADD MSTORE JUMP JUMPDEST PUSH1 0x1 PUSH1 0x1 PUSH1 0xA0 SHL SUB SWAP2 DUP3 AND DUP2 MSTORE SWAP2 AND PUSH1 0x20 DUP3 ADD MSTORE PUSH1 0x40 DUP2 ADD SWAP2 SWAP1 SWAP2 MSTORE PUSH1 0x60 ADD SWAP1 JUMP JUMPDEST SWAP3 SWAP1 PUSH1 0x0 SWAP2 PUSH2 0x5245 PUSH1 0x20 SWAP5 PUSH2 0x5237 PUSH1 0x40 MLOAD SWAP4 DUP5 SWAP3 DUP9 DUP5 ADD SWAP7 PUSH4 0x23B872DD PUSH1 0xE0 SHL DUP9 MSTORE PUSH1 0x24 DUP6 ADD PUSH2 0x51EA JUMP JUMPDEST SUB PUSH1 0x1F NOT DUP2 ADD DUP4 MSTORE DUP3 PUSH2 0x4E16 JUMP JUMPDEST MLOAD SWAP1 DUP3 DUP6 GAS CALL ISZERO PUSH2 0x5298 JUMPI PUSH1 0x0 MLOAD RETURNDATASIZE PUSH2 0x528F JUMPI POP PUSH1 0x1 PUSH1 0x1 PUSH1 0xA0 SHL SUB DUP2 AND EXTCODESIZE ISZERO JUMPDEST PUSH2 0x526D JUMPI POP JUMP JUMPDEST PUSH1 0x40 MLOAD PUSH4 0x5274AFE7 PUSH1 0xE0 SHL DUP2 MSTORE PUSH1 0x1 PUSH1 0x1 PUSH1 0xA0 SHL SUB SWAP1 SWAP2 AND PUSH1 0x4 DUP3 ADD MSTORE PUSH1 0x24 SWAP1 REVERT JUMPDEST PUSH1 0x1 EQ ISZERO PUSH2 0x5266 JUMP JUMPDEST PUSH1 0x40 MLOAD RETURNDATASIZE PUSH1 0x0 DUP3 RETURNDATACOPY RETURNDATASIZE SWAP1 REVERT JUMPDEST ISZERO PUSH2 0x52AB JUMPI JUMP JUMPDEST PUSH1 0x64 PUSH1 0x40 MLOAD PUSH3 0x461BCD PUSH1 0xE5 SHL DUP2 MSTORE PUSH1 0x20 PUSH1 0x4 DUP3 ADD MSTORE PUSH1 0x20 PUSH1 0x24 DUP3 ADD MSTORE PUSH32 0x4D61726B65744D616E616765723A204D61726B6574206E6F7420616374697665 PUSH1 0x44 DUP3 ADD MSTORE REVERT JUMPDEST SWAP2 SWAP1 DUP3 SUB SWAP2 DUP3 GT PUSH2 0x5064 JUMPI JUMP JUMPDEST ISZERO PUSH2 0x5303 JUMPI JUMP JUMPDEST PUSH1 0x40 MLOAD PUSH3 0x461BCD PUSH1 0xE5 SHL DUP2 MSTORE PUSH1 0x20 PUSH1 0x4 DUP3 ADD MSTORE PUSH1 0x4D PUSH1 0x24 DUP3 ADD MSTORE PUSH32 0x4D61726B65744D616E616765723A205374616B696E6720706572696F6420656E PUSH1 0x44 DUP3 ADD MSTORE PUSH32 0x646564202D206E6F207374616B657320616C6C6F77656420696E207265737472 PUSH1 0x64 DUP3 ADD MSTORE PUSH13 0x1A58DD1A5BDB881C195C9A5BD9 PUSH1 0x9A SHL PUSH1 0x84 DUP3 ADD MSTORE PUSH1 0xA4 SWAP1 REVERT JUMPDEST ISZERO PUSH2 0x538B JUMPI JUMP JUMPDEST PUSH1 0x40 MLOAD PUSH3 0x461BCD PUSH1 0xE5 SHL DUP2 MSTORE PUSH1 0x20 PUSH1 0x4 DUP3 ADD MSTORE PUSH1 0x1D PUSH1 0x24 DUP3 ADD MSTORE PUSH32 0x4D61726B65744D616E616765723A20496E76616C6964206F7074696F6E000000 PUSH1 0x44 DUP3 ADD MSTORE PUSH1 0x64 SWAP1 REVERT JUMPDEST ISZERO PUSH2 0x53D7 JUMPI JUMP JUMPDEST PUSH1 0x40 MLOAD PUSH3 0x461BCD PUSH1 0xE5 SHL DUP2 MSTORE PUSH1 0x20 PUSH1 0x4 DUP3 ADD MSTORE PUSH1 0x22 PUSH1 0x24 DUP3 ADD MSTORE PUSH1 0x0 DUP1 MLOAD PUSH1 0x20 PUSH2 0x651B DUP4 CODECOPY DUP2 MLOAD SWAP2 MSTORE PUSH1 0x44 DUP3 ADD MSTORE PUSH2 0x6B65 PUSH1 0xF0 SHL PUSH1 0x64 DUP3 ADD MSTORE PUSH1 0x84 SWAP1 REVERT JUMPDEST DUP1 SLOAD SWAP2 SWAP1 PUSH1 0x1 PUSH1 0x40 SHL DUP4 LT ISZERO PUSH2 0x15A1 JUMPI DUP3 PUSH2 0x157F SWAP2 PUSH1 0x1 PUSH2 0x4F22 SWAP6 ADD DUP2 SSTORE PUSH2 0x4C02 JUMP JUMPDEST ISZERO PUSH2 0x543F JUMPI JUMP JUMPDEST PUSH1 0x40 MLOAD PUSH3 0x461BCD PUSH1 0xE5 SHL DUP2 MSTORE PUSH1 0x20 PUSH1 0x4 DUP3 ADD MSTORE PUSH1 0x34 PUSH1 0x24 DUP3 ADD MSTORE PUSH32 0x4D61726B65744D616E616765723A20537570706F727420616D6F756E74206D75 PUSH1 0x44 DUP3 ADD MSTORE PUSH20 0x73742062652067726561746572207468616E203 PUSH1 0x64 SHL PUSH1 0x64 DUP3 ADD MSTORE PUSH1 0x84 SWAP1 REVERT JUMPDEST SWAP1 DUP2 MSTORE PUSH1 0x1 PUSH1 0x1 PUSH1 0xA0 SHL SUB SWAP2 DUP3 AND PUSH1 0x20 DUP3 ADD MSTORE SWAP2 AND PUSH1 0x40 DUP3 ADD MSTORE PUSH1 0x60 DUP2 ADD SWAP2 SWAP1 SWAP2 MSTORE PUSH1 0x80 ADD SWAP1 JUMP JUMPDEST SWAP1 DUP2 MSTORE PUSH1 0x1 PUSH1 0x1 PUSH1 0xA0 SHL SUB SWAP1 SWAP2 AND PUSH1 0x20 DUP3 ADD MSTORE PUSH1 0x40 DUP2 ADD SWAP2 SWAP1 SWAP2 MSTORE PUSH1 0x60 ADD SWAP1 JUMP JUMPDEST ISZERO PUSH2 0x54F1 JUMPI JUMP JUMPDEST PUSH1 0x40 MLOAD PUSH3 0x461BCD PUSH1 0xE5 SHL DUP2 MSTORE PUSH1 0x20 PUSH1 0x4 DUP3 ADD MSTORE PUSH1 0x25 PUSH1 0x24 DUP3 ADD MSTORE PUSH32 0x4D61726B65744D616E616765723A204E6F20737570706F727420746F20776974 PUSH1 0x44 DUP3 ADD MSTORE PUSH5 0x6864726177 PUSH1 0xD8 SHL PUSH1 0x64 DUP3 ADD MSTORE PUSH1 0x84 SWAP1 REVERT JUMPDEST SWAP1 DUP2 MSTORE PUSH1 0x1 PUSH1 0x1 PUSH1 0xA0 SHL SUB SWAP2 DUP3 AND PUSH1 0x20 DUP3 ADD MSTORE SWAP2 AND PUSH1 0x40 DUP3 ADD MSTORE PUSH1 0x60 ADD SWAP1 JUMP JUMPDEST ISZERO PUSH2 0x556B JUMPI JUMP JUMPDEST PUSH1 0x40 MLOAD PUSH3 0x461BCD PUSH1 0xE5 SHL DUP2 MSTORE PUSH1 0x20 PUSH1 0x4 DUP3 ADD MSTORE PUSH1 0x28 PUSH1 0x24 DUP3 ADD MSTORE PUSH32 0x4D61726B65744D616E616765723A204D61726B6574206E6F7420696E20656E64 PUSH1 0x44 DUP3 ADD MSTORE PUSH8 0x6564207374617465 PUSH1 0xC0 SHL PUSH1 0x64 DUP3 ADD MSTORE PUSH1 0x84 SWAP1 REVERT JUMPDEST ISZERO PUSH2 0x55C8 JUMPI JUMP JUMPDEST PUSH1 0x40 MLOAD PUSH3 0x461BCD PUSH1 0xE5 SHL DUP2 MSTORE PUSH1 0x20 PUSH1 0x4 DUP3 ADD MSTORE PUSH1 0x1F PUSH1 0x24 DUP3 ADD MSTORE PUSH32 0x4D61726B65744D616E616765723A20416C7265616479207265736F6C76656400 PUSH1 0x44 DUP3 ADD MSTORE PUSH1 0x64 SWAP1 REVERT JUMPDEST PUSH1 0x40 MLOAD SWAP1 PUSH2 0x561A DUP3 PUSH2 0x4DFB JUMP JUMPDEST PUSH1 0x19 DUP3 MSTORE PUSH25 0x14995CDBDB1D5D1A5BDB881C195C9A5BD908195E1C1A5C9959 PUSH1 0x3A SHL PUSH1 0x20 DUP4 ADD MSTORE JUMP JUMPDEST MLOAD SWAP1 DUP2 ISZERO ISZERO DUP3 SUB PUSH2 0x10C8 JUMPI JUMP JUMPDEST SWAP2 SWAP1 DUP3 PUSH1 0x40 SWAP2 SUB SLT PUSH2 0x10C8 JUMPI PUSH1 0x20 PUSH2 0x5666 DUP4 PUSH2 0x5642 JUMP JUMPDEST SWAP3 ADD MLOAD SWAP1 JUMP JUMPDEST SWAP1 PUSH1 0x0 DUP3 DUP2 MSTORE PUSH1 0x1 PUSH1 0x20 MSTORE PUSH1 0x40 SWAP1 DUP2 DUP2 KECCAK256 PUSH1 0xC DUP2 ADD PUSH1 0xFF DUP2 SLOAD AND PUSH1 0x5 DUP2 LT ISZERO PUSH2 0x1B13 JUMPI PUSH1 0x1 PUSH2 0x569B SWAP2 EQ PUSH2 0x5564 JUMP JUMPDEST DUP5 ISZERO ISZERO DUP1 PUSH2 0x58D9 JUMPI JUMPDEST ISZERO PUSH2 0x5887 JUMPI PUSH1 0xE DUP3 ADD PUSH2 0x56BB PUSH1 0xFF DUP3 SLOAD AND ISZERO PUSH2 0x55C1 JUMP JUMPDEST PUSH1 0xB DUP4 ADD SLOAD TIMESTAMP LT ISZERO PUSH2 0x5875 JUMPI PUSH1 0xD SLOAD DUP6 MLOAD PUSH4 0x33138655 PUSH1 0xE2 SHL DUP2 MSTORE PUSH1 0x4 DUP2 ADD DUP10 SWAP1 MSTORE PUSH1 0x1 PUSH1 0x1 PUSH1 0xA0 SHL SUB SWAP5 SWAP2 DUP8 SWAP1 DUP3 SWAP1 PUSH1 0x24 SWAP1 DUP3 SWAP1 DUP10 AND GAS STATICCALL DUP1 ISZERO PUSH2 0x586B JUMPI DUP9 SWAP1 DUP8 SWAP3 DUP9 SWAP2 PUSH2 0x5848 JUMPI JUMPDEST POP DUP3 PUSH2 0x583E JUMPI JUMPDEST POP POP ISZERO PUSH2 0x57D7 JUMPI PUSH1 0xD ADD DUP7 SWAP1 SSTORE DUP1 SLOAD PUSH1 0xFF NOT SWAP1 DUP2 AND PUSH1 0x1 OR SWAP1 SWAP2 SSTORE DUP2 SLOAD AND PUSH1 0x2 OR SWAP1 SSTORE PUSH2 0x5739 DUP5 DUP7 PUSH2 0x5AD6 JUMP JUMPDEST PUSH2 0x5742 DUP6 PUSH2 0x5CBE JUMP JUMPDEST PUSH1 0xE SLOAD AND DUP1 PUSH2 0x5768 JUMPI JUMPDEST POP POP PUSH1 0x0 DUP1 MLOAD PUSH1 0x20 PUSH2 0x657B DUP4 CODECOPY DUP2 MLOAD SWAP2 MSTORE SWAP2 PUSH1 0x20 SWAP2 MLOAD SWAP1 DUP2 MSTORE LOG2 JUMP JUMPDEST DUP1 EXTCODESIZE ISZERO PUSH2 0x62D JUMPI DUP2 DUP1 SWAP2 PUSH1 0x44 DUP6 MLOAD DUP1 SWAP6 DUP2 SWAP4 PUSH3 0xFF4A73 PUSH1 0xE8 SHL DUP4 MSTORE DUP11 PUSH1 0x4 DUP5 ADD MSTORE DUP10 PUSH1 0x24 DUP5 ADD MSTORE GAS CALL SWAP1 DUP2 ISZERO PUSH2 0x57CC JUMPI POP SWAP2 PUSH1 0x0 DUP1 MLOAD PUSH1 0x20 PUSH2 0x657B DUP4 CODECOPY DUP2 MLOAD SWAP2 MSTORE SWAP4 SWAP2 PUSH1 0x20 SWAP4 PUSH2 0x57BD JUMPI JUMPDEST POP SWAP2 DUP2 SWAP4 POP PUSH2 0x574C JUMP JUMPDEST PUSH2 0x57C6 SWAP1 PUSH2 0x4DCC JUMP JUMPDEST CODESIZE PUSH2 0x57B3 JUMP JUMPDEST DUP4 MLOAD SWAP1 RETURNDATASIZE SWAP1 DUP3 RETURNDATACOPY RETURNDATASIZE SWAP1 REVERT JUMPDEST DUP6 MLOAD PUSH3 0x461BCD PUSH1 0xE5 SHL DUP2 MSTORE PUSH1 0x20 PUSH1 0x4 DUP3 ADD MSTORE PUSH1 0x3A PUSH1 0x24 DUP3 ADD MSTORE PUSH32 0x4D61726B65744D616E616765723A20496E73756666696369656E742076657269 PUSH1 0x44 DUP3 ADD MSTORE PUSH26 0x3334B2B9103B37BA32B9903337B9103A3434B99037B83A34B7B7 PUSH1 0x31 SHL PUSH1 0x64 DUP3 ADD MSTORE PUSH1 0x84 SWAP1 REVERT JUMPDEST EQ SWAP1 POP DUP8 CODESIZE PUSH2 0x570C JUMP JUMPDEST SWAP1 POP PUSH2 0x5862 SWAP2 SWAP3 POP DUP9 RETURNDATASIZE DUP11 GT PUSH2 0x1F16 JUMPI PUSH2 0x1F06 DUP2 DUP4 PUSH2 0x4E16 JUMP JUMPDEST SWAP2 SWAP1 SWAP2 CODESIZE PUSH2 0x5705 JUMP JUMPDEST DUP8 MLOAD RETURNDATASIZE DUP9 DUP3 RETURNDATACOPY RETURNDATASIZE SWAP1 REVERT JUMPDEST POP POP POP POP POP POP PUSH2 0x4F22 SWAP1 PUSH2 0x22F1 PUSH2 0x560D JUMP JUMPDEST DUP4 MLOAD PUSH3 0x461BCD PUSH1 0xE5 SHL DUP2 MSTORE PUSH1 0x20 PUSH1 0x4 DUP3 ADD MSTORE PUSH1 0x25 PUSH1 0x24 DUP3 ADD MSTORE PUSH32 0x4D61726B65744D616E616765723A20496E76616C69642077696E6E696E67206F PUSH1 0x44 DUP3 ADD MSTORE PUSH5 0x383A34B7B7 PUSH1 0xD9 SHL PUSH1 0x64 DUP3 ADD MSTORE PUSH1 0x84 SWAP1 REVERT JUMPDEST POP PUSH1 0x3 DUP3 ADD SLOAD DUP6 GT ISZERO PUSH2 0x56A4 JUMP JUMPDEST ISZERO PUSH2 0x58EE JUMPI JUMP JUMPDEST PUSH1 0x40 MLOAD PUSH3 0x461BCD PUSH1 0xE5 SHL DUP2 MSTORE PUSH1 0x20 PUSH1 0x4 DUP3 ADD MSTORE PUSH1 0x22 PUSH1 0x24 DUP3 ADD MSTORE PUSH32 0x4D61726B65744D616E616765723A204D61726B6574206E6F74207265736F6C76 PUSH1 0x44 DUP3 ADD MSTORE PUSH2 0x1959 PUSH1 0xF2 SHL PUSH1 0x64 DUP3 ADD MSTORE PUSH1 0x84 SWAP1 REVERT JUMPDEST ISZERO PUSH2 0x5945 JUMPI JUMP JUMPDEST PUSH1 0x64 PUSH1 0x40 MLOAD PUSH3 0x461BCD PUSH1 0xE5 SHL DUP2 MSTORE PUSH1 0x20 PUSH1 0x4 DUP3 ADD MSTORE PUSH1 0x20 PUSH1 0x24 DUP3 ADD MSTORE PUSH32 0x4D61726B65744D616E616765723A204E6F2077696E6E696E67206F7074696F6E PUSH1 0x44 DUP3 ADD MSTORE REVERT JUMPDEST ISZERO PUSH2 0x5990 JUMPI JUMP JUMPDEST PUSH1 0x40 MLOAD PUSH3 0x461BCD PUSH1 0xE5 SHL DUP2 MSTORE PUSH1 0x20 PUSH1 0x4 DUP3 ADD MSTORE PUSH1 0x1E PUSH1 0x24 DUP3 ADD MSTORE PUSH32 0x4D61726B65744D616E616765723A204E6F207374616B6520706C616365640000 PUSH1 0x44 DUP3 ADD MSTORE PUSH1 0x64 SWAP1 REVERT JUMPDEST ISZERO PUSH2 0x59DC JUMPI JUMP JUMPDEST PUSH1 0x40 MLOAD PUSH3 0x461BCD PUSH1 0xE5 SHL DUP2 MSTORE PUSH1 0x20 PUSH1 0x4 DUP3 ADD MSTORE PUSH1 0x1E PUSH1 0x24 DUP3 ADD MSTORE PUSH32 0x4D61726B65744D616E616765723A20416C726561647920636C61696D65640000 PUSH1 0x44 DUP3 ADD MSTORE PUSH1 0x64 SWAP1 REVERT JUMPDEST SWAP1 DUP2 MSTORE PUSH1 0x20 DUP2 ADD SWAP2 SWAP1 SWAP2 MSTORE PUSH1 0x1 PUSH1 0x1 PUSH1 0xA0 SHL SUB SWAP1 SWAP2 AND PUSH1 0x40 DUP3 ADD MSTORE PUSH1 0x60 ADD SWAP1 JUMP JUMPDEST DUP2 ISZERO PUSH2 0x5A4C JUMPI DIV SWAP1 JUMP JUMPDEST PUSH4 0x4E487B71 PUSH1 0xE0 SHL PUSH1 0x0 MSTORE PUSH1 0x12 PUSH1 0x4 MSTORE PUSH1 0x24 PUSH1 0x0 REVERT JUMPDEST SWAP1 PUSH2 0x5AA6 PUSH1 0x0 DUP1 MLOAD PUSH1 0x20 PUSH2 0x64BB DUP4 CODECOPY DUP2 MLOAD SWAP2 MSTORE SWAP2 DUP4 PUSH1 0x0 MSTORE PUSH1 0x1 PUSH1 0x20 MSTORE PUSH1 0xC PUSH1 0x40 PUSH1 0x0 KECCAK256 ADD PUSH1 0x3 PUSH1 0xFF NOT DUP3 SLOAD AND OR SWAP1 SSTORE PUSH1 0x40 MLOAD SWAP2 DUP3 SWAP2 PUSH1 0x20 DUP4 MSTORE PUSH1 0x20 DUP4 ADD SWAP1 PUSH2 0x4CA8 JUMP JUMPDEST SUB SWAP1 LOG2 JUMP JUMPDEST PUSH1 0x1 PUSH1 0x1 PUSH1 0x40 SHL SUB DUP2 GT PUSH2 0x15A1 JUMPI PUSH1 0x5 SHL PUSH1 0x20 ADD SWAP1 JUMP JUMPDEST DUP1 MLOAD DUP3 LT ISZERO PUSH2 0x4B9B JUMPI PUSH1 0x20 SWAP2 PUSH1 0x5 SHL ADD ADD SWAP1 JUMP JUMPDEST PUSH1 0xD DUP1 SLOAD PUSH1 0x40 DUP1 MLOAD PUSH4 0x549AF3B3 PUSH1 0xE1 SHL DUP2 MSTORE PUSH1 0x0 SWAP7 SWAP6 SWAP1 SWAP4 PUSH1 0x1 PUSH1 0x1 PUSH1 0xA0 SHL SUB SWAP4 PUSH1 0x4 SWAP3 SWAP2 SWAP1 DUP10 SWAP1 DUP8 SWAP1 DUP6 SWAP1 DUP3 SWAP1 DUP10 AND GAS STATICCALL SWAP6 DUP7 ISZERO PUSH2 0x5C99 JUMPI DUP10 SWAP7 PUSH2 0x5BF3 JUMPI JUMPDEST POP DUP9 JUMPDEST DUP7 MLOAD DUP2 LT ISZERO PUSH2 0x5BE7 JUMPI PUSH2 0x5B58 SWAP1 DUP9 DUP6 DUP9 DUP6 SLOAD AND DUP10 PUSH2 0x5B37 DUP6 DUP14 PUSH2 0x5AC2 JUMP JUMPDEST MLOAD AND SWAP1 DUP10 MLOAD DUP1 DUP1 SWAP8 DUP2 SWAP5 PUSH4 0x21DC9B59 PUSH1 0xE2 SHL DUP4 MSTORE DUP12 PUSH1 0x20 SWAP9 DUP10 SWAP9 DUP6 ADD PUSH2 0x5A21 JUMP JUMPDEST SUB SWAP2 GAS STATICCALL DUP1 ISZERO PUSH2 0x5BDD JUMPI DUP13 SWAP1 PUSH2 0x5BA3 JUMPI JUMPDEST PUSH2 0x5B78 SWAP4 POP PUSH2 0x5B7D JUMPI POP PUSH2 0x5087 JUMP JUMPDEST PUSH2 0x5B19 JUMP JUMPDEST PUSH1 0x17 SWAP1 DUP11 DUP14 MSTORE MSTORE PUSH2 0x5B9D DUP7 DUP13 KECCAK256 DUP9 PUSH2 0x5B95 DUP5 DUP13 PUSH2 0x5AC2 JUMP JUMPDEST MLOAD AND SWAP1 PUSH2 0x5415 JUMP JUMPDEST CODESIZE PUSH2 0x18D1 JUMP JUMPDEST POP DUP1 DUP4 DUP2 RETURNDATASIZE DUP4 GT PUSH2 0x5BD6 JUMPI JUMPDEST PUSH2 0x5BB9 DUP2 DUP4 PUSH2 0x4E16 JUMP JUMPDEST DUP2 ADD SUB SLT PUSH2 0x5BD2 JUMPI PUSH2 0x5BCD PUSH2 0x5B78 SWAP4 PUSH2 0x5642 JUMP JUMPDEST PUSH2 0x5B69 JUMP JUMPDEST DUP12 DUP1 REVERT JUMPDEST POP RETURNDATASIZE PUSH2 0x5BAF JUMP JUMPDEST DUP8 MLOAD RETURNDATASIZE DUP15 DUP3 RETURNDATACOPY RETURNDATASIZE SWAP1 REVERT JUMPDEST POP POP POP POP POP POP POP POP SWAP1 POP JUMP JUMPDEST SWAP1 SWAP6 POP RETURNDATASIZE DUP1 DUP11 DUP4 RETURNDATACOPY PUSH2 0x5C05 DUP2 DUP4 PUSH2 0x4E16 JUMP JUMPDEST DUP2 ADD SWAP1 PUSH1 0x20 SWAP1 DUP2 DUP2 DUP5 SUB SLT PUSH2 0x5C95 JUMPI DUP1 MLOAD SWAP1 PUSH1 0x1 PUSH1 0x1 PUSH1 0x40 SHL SUB DUP3 GT PUSH2 0x5BD2 JUMPI ADD SWAP2 DUP1 PUSH1 0x1F DUP5 ADD SLT ISZERO PUSH2 0x5C95 JUMPI DUP3 MLOAD PUSH2 0x5C3D DUP2 PUSH2 0x5AAB JUMP JUMPDEST SWAP4 PUSH2 0x5C4A DUP9 MLOAD SWAP6 DUP7 PUSH2 0x4E16 JUMP JUMPDEST DUP2 DUP6 MSTORE DUP4 DUP1 DUP7 ADD SWAP3 PUSH1 0x5 SHL DUP3 ADD ADD SWAP3 DUP4 GT PUSH2 0x5C91 JUMPI DUP4 ADD SWAP1 JUMPDEST DUP3 DUP3 LT PUSH2 0x5C75 JUMPI POP POP POP POP SWAP5 CODESIZE PUSH2 0x5B16 JUMP JUMPDEST DUP2 MLOAD DUP10 DUP2 AND DUP2 SUB PUSH2 0x5C8D JUMPI DUP2 MSTORE SWAP1 DUP4 ADD SWAP1 DUP4 ADD PUSH2 0x5C63 JUMP JUMPDEST DUP14 DUP1 REVERT JUMPDEST DUP13 DUP1 REVERT JUMPDEST DUP11 DUP1 REVERT JUMPDEST DUP5 MLOAD RETURNDATASIZE DUP12 DUP3 RETURNDATACOPY RETURNDATASIZE SWAP1 REVERT JUMPDEST PUSH1 0x1 PUSH1 0x1 PUSH1 0xA0 SHL SUB SWAP1 SWAP2 AND DUP2 MSTORE PUSH1 0x20 DUP2 ADD SWAP2 SWAP1 SWAP2 MSTORE PUSH1 0x40 ADD SWAP1 JUMP JUMPDEST PUSH1 0x0 SWAP1 DUP1 DUP3 MSTORE PUSH1 0x20 SWAP1 PUSH1 0x1 DUP3 MSTORE PUSH1 0x40 SWAP2 DUP3 DUP5 KECCAK256 SWAP1 DUP5 SWAP1 PUSH1 0x1 SWAP3 PUSH1 0x3 DUP2 ADD SLOAD PUSH1 0xD DUP3 ADD SLOAD SWAP5 JUMPDEST DUP2 DUP2 GT ISZERO PUSH2 0x61E4 JUMPI POP POP PUSH1 0x1 DUP1 PUSH1 0xA0 SHL SUB SWAP4 DUP5 SWAP3 PUSH1 0xC SWAP7 DUP5 DUP9 SLOAD AND SWAP2 PUSH2 0x5D2A DUP11 PUSH1 0x4 SWAP9 DUP4 DUP6 DUP12 DUP1 DUP12 ADD SWAP14 DUP15 SLOAD AND SWAP6 DUP7 SWAP6 MLOAD SWAP6 DUP7 SWAP4 DUP5 SWAP4 PUSH4 0x4F44289D PUSH1 0xE0 SHL DUP6 MSTORE DUP5 ADD PUSH2 0x51AD JUMP JUMPDEST SUB DUP2 DUP10 GAS STATICCALL SWAP2 DUP3 ISZERO PUSH2 0x6154 JUMPI DUP14 SWAP5 SWAP4 SWAP3 DUP16 SWAP3 DUP13 SWAP3 DUP9 SWAP5 SWAP3 PUSH2 0x61A7 JUMPI JUMPDEST POP DUP5 PUSH2 0x5D58 DUP8 SWAP6 SWAP5 SWAP4 PUSH2 0x5D70 SWAP4 PUSH2 0x507A JUMP JUMPDEST SWAP8 MLOAD PUSH4 0xDC4CE349 PUSH1 0xE0 SHL DUP2 MSTORE SWAP11 DUP12 SWAP5 DUP6 SWAP5 DUP6 ADD PUSH2 0x5A21 JUMP JUMPDEST SUB DUP2 DUP9 GAS STATICCALL SWAP6 DUP7 ISZERO PUSH2 0x619D JUMPI DUP13 DUP11 SWAP2 DUP16 SWAP9 PUSH2 0x6160 JUMPI JUMPDEST POP DUP6 DUP4 SWAP3 PUSH2 0x5DA6 DUP7 SWAP4 MLOAD SWAP5 DUP6 SWAP4 DUP5 SWAP4 PUSH4 0x3D1E7BA1 PUSH1 0xE1 SHL DUP6 MSTORE DUP5 ADD PUSH2 0x51AD JUMP JUMPDEST SUB DUP2 DUP10 GAS STATICCALL SWAP3 DUP4 ISZERO PUSH2 0x6154 JUMPI DUP15 SWAP4 PUSH2 0x6124 JUMPI JUMPDEST POP POP PUSH2 0x15E SWAP5 DUP6 DUP4 MUL SWAP4 DUP4 ISZERO SWAP7 DUP5 DUP7 DIV EQ DUP8 OR ISZERO PUSH2 0x6111 JUMPI PUSH2 0x2710 DUP1 SWAP6 DIV SWAP5 PUSH1 0x96 DUP6 MUL DUP6 DUP2 DIV PUSH1 0x96 EQ DUP10 OR ISZERO PUSH2 0x60FC JUMPI DUP2 SWAP1 DIV SWAP8 PUSH2 0x1F4 SWAP1 DUP2 DUP8 MUL SWAP2 DUP8 DUP4 DIV EQ OR ISZERO PUSH2 0x60FC JUMPI DIV SWAP8 PUSH2 0x5F8F JUMPI POP POP POP PUSH2 0x5E25 SWAP1 PUSH2 0x5E1F DUP7 PUSH2 0x5E1A DUP8 DUP7 PUSH2 0x507A JUMP JUMPDEST PUSH2 0x507A JUMP JUMPDEST SWAP1 PUSH2 0x52EF JUMP JUMPDEST SWAP5 DUP2 PUSH2 0x5F22 JUMPI JUMPDEST POP POP DUP2 PUSH2 0x5EBB JUMPI JUMPDEST POP POP SWAP1 PUSH2 0x5E40 SWAP2 PUSH2 0x507A JUMP JUMPDEST SWAP4 DUP5 PUSH2 0x5E50 JUMPI JUMPDEST POP POP POP POP POP POP POP JUMP JUMPDEST DUP2 SWAP1 SLOAD AND SWAP3 SLOAD AND SWAP1 DUP3 EXTCODESIZE ISZERO PUSH2 0x9CA JUMPI SWAP2 DUP5 SWAP4 SWAP2 DUP7 DUP1 SWAP5 PUSH2 0x5E83 SWAP8 MLOAD SWAP8 DUP9 SWAP6 DUP7 SWAP5 DUP6 SWAP4 PUSH4 0xF0824F33 PUSH1 0xE0 SHL DUP6 MSTORE DUP5 ADD PUSH2 0x5CA3 JUMP JUMPDEST SUB SWAP3 GAS CALL SWAP1 DUP2 ISZERO PUSH2 0x5EB2 JUMPI POP PUSH2 0x5E9E JUMPI JUMPDEST DUP1 DUP1 DUP1 DUP1 DUP1 PUSH2 0x5E47 JUMP JUMPDEST PUSH2 0x5EA8 DUP3 SWAP2 PUSH2 0x4DCC JUMP JUMPDEST PUSH2 0x39E JUMPI DUP1 PUSH2 0x5E94 JUMP JUMPDEST MLOAD RETURNDATASIZE DUP5 DUP3 RETURNDATACOPY RETURNDATASIZE SWAP1 REVERT JUMPDEST DUP5 DUP9 SLOAD AND DUP6 DUP9 SLOAD AND SWAP2 DUP2 EXTCODESIZE ISZERO PUSH2 0x5BD2 JUMPI SWAP1 DUP12 SWAP3 SWAP2 DUP4 DUP10 PUSH2 0x5EEE DUP15 MLOAD SWAP8 DUP9 SWAP7 DUP8 SWAP6 DUP7 SWAP5 PUSH4 0x3AFB1F3F PUSH1 0xE1 SHL DUP7 MSTORE DUP6 ADD PUSH2 0x54C9 JUMP JUMPDEST SUB SWAP3 GAS CALL DUP1 ISZERO PUSH2 0x5F18 JUMPI SWAP1 DUP10 SWAP2 ISZERO PUSH2 0x5E34 JUMPI PUSH2 0x5F09 SWAP1 PUSH2 0x4DCC JUMP JUMPDEST PUSH2 0x5F14 JUMPI DUP8 CODESIZE PUSH2 0x5E34 JUMP JUMPDEST DUP8 DUP1 REVERT JUMPDEST DUP9 MLOAD RETURNDATASIZE DUP12 DUP3 RETURNDATACOPY RETURNDATASIZE SWAP1 REVERT JUMPDEST DUP7 DUP1 DUP12 SLOAD AND SWAP2 SLOAD AND SWAP1 DUP8 DUP11 SLOAD AND SWAP2 DUP2 EXTCODESIZE ISZERO PUSH2 0x5C8D JUMPI SWAP1 DUP14 SWAP3 SWAP2 DUP4 DUP12 DUP16 PUSH2 0x5F5B SWAP1 MLOAD SWAP8 DUP9 SWAP7 DUP8 SWAP6 DUP7 SWAP5 PUSH4 0x112CD223 PUSH1 0xE0 SHL DUP7 MSTORE DUP6 ADD PUSH2 0x51EA JUMP JUMPDEST SUB SWAP3 GAS CALL DUP1 ISZERO PUSH2 0x5F85 JUMPI SWAP1 DUP12 SWAP2 ISZERO PUSH2 0x5E2C JUMPI PUSH2 0x5F76 SWAP1 PUSH2 0x4DCC JUMP JUMPDEST PUSH2 0x5F81 JUMPI DUP10 CODESIZE PUSH2 0x5E2C JUMP JUMPDEST DUP10 DUP1 REVERT JUMPDEST DUP11 MLOAD RETURNDATASIZE DUP14 DUP3 RETURNDATACOPY RETURNDATASIZE SWAP1 REVERT JUMPDEST SWAP1 SWAP3 POP SWAP11 SWAP7 SWAP1 SWAP3 SWAP4 SWAP5 SWAP6 SWAP11 PUSH2 0x5FAE JUMPI JUMPDEST POP POP POP POP POP POP POP POP POP POP POP POP POP JUMP JUMPDEST DUP8 SWAP1 DUP5 PUSH2 0x609B JUMPI JUMPDEST POP POP POP POP POP DUP2 PUSH2 0x6036 JUMPI JUMPDEST POP POP DUP5 PUSH2 0x5FD4 JUMPI JUMPDEST DUP1 DUP1 DUP1 DUP1 DUP1 DUP1 PUSH2 0x5F9F JUMP JUMPDEST DUP2 SWAP1 SLOAD AND SWAP3 SLOAD AND SWAP1 DUP3 EXTCODESIZE ISZERO PUSH2 0x9CA JUMPI SWAP2 DUP5 SWAP4 SWAP2 DUP7 DUP1 SWAP5 PUSH2 0x6007 SWAP8 MLOAD SWAP8 DUP9 SWAP6 DUP7 SWAP5 DUP6 SWAP4 PUSH4 0x48FEF595 PUSH1 0xE0 SHL DUP6 MSTORE DUP5 ADD PUSH2 0x5CA3 JUMP JUMPDEST SUB SWAP3 GAS CALL SWAP1 DUP2 ISZERO PUSH2 0x5EB2 JUMPI POP PUSH2 0x6022 JUMPI JUMPDEST DUP1 DUP1 DUP1 DUP1 DUP1 PUSH2 0x5FC9 JUMP JUMPDEST PUSH2 0x602C DUP3 SWAP2 PUSH2 0x4DCC JUMP JUMPDEST PUSH2 0x39E JUMPI DUP1 PUSH2 0x6018 JUMP JUMPDEST DUP4 DUP4 SLOAD AND SWAP1 DUP5 DUP8 SLOAD AND SWAP1 DUP3 EXTCODESIZE ISZERO PUSH2 0x5C95 JUMPI SWAP2 PUSH2 0x606B SWAP4 SWAP2 DUP12 DUP1 SWAP5 DUP13 MLOAD SWAP7 DUP8 SWAP6 DUP7 SWAP5 DUP6 SWAP4 PUSH4 0x3AFB1F3F PUSH1 0xE1 SHL DUP6 MSTORE DUP14 DUP6 ADD PUSH2 0x54C9 JUMP JUMPDEST SUB SWAP3 GAS CALL DUP1 ISZERO PUSH2 0x6091 JUMPI SWAP1 DUP9 SWAP2 ISZERO PUSH2 0x5FC1 JUMPI PUSH2 0x6086 SWAP1 PUSH2 0x4DCC JUMP JUMPDEST PUSH2 0x2CF3 JUMPI DUP7 CODESIZE PUSH2 0x5FC1 JUMP JUMPDEST DUP8 MLOAD RETURNDATASIZE DUP11 DUP3 RETURNDATACOPY RETURNDATASIZE SWAP1 REVERT JUMPDEST SLOAD AND DUP2 EXTCODESIZE ISZERO PUSH2 0x5C91 JUMPI SWAP1 DUP13 SWAP3 SWAP2 DUP4 DUP11 PUSH2 0x60C7 DUP16 MLOAD SWAP8 DUP9 SWAP7 DUP8 SWAP6 DUP7 SWAP5 PUSH4 0x112CD223 PUSH1 0xE0 SHL DUP7 MSTORE DUP6 ADD PUSH2 0x51EA JUMP JUMPDEST SUB SWAP3 GAS CALL DUP1 ISZERO PUSH2 0x60F2 JUMPI PUSH2 0x60DF JUMPI JUMPDEST DUP1 DUP1 DUP7 DUP2 PUSH2 0x5FB6 JUMP JUMPDEST PUSH2 0x60EB SWAP1 SWAP10 SWAP2 SWAP10 PUSH2 0x4DCC JUMP JUMPDEST SWAP8 CODESIZE PUSH2 0x60D6 JUMP JUMPDEST DUP10 MLOAD RETURNDATASIZE DUP13 DUP3 RETURNDATACOPY RETURNDATASIZE SWAP1 REVERT JUMPDEST POP POP PUSH4 0x4E487B71 PUSH1 0xE0 SHL DUP16 MSTORE PUSH1 0x11 DUP12 MSTORE PUSH1 0x24 DUP16 REVERT JUMPDEST PUSH4 0x4E487B71 PUSH1 0xE0 SHL DUP16 MSTORE PUSH1 0x11 DUP12 MSTORE PUSH1 0x24 DUP16 REVERT JUMPDEST SWAP1 DUP1 SWAP3 SWAP4 POP DUP2 RETURNDATASIZE DUP4 GT PUSH2 0x614D JUMPI JUMPDEST PUSH2 0x613C DUP2 DUP4 PUSH2 0x4E16 JUMP JUMPDEST DUP2 ADD SUB SLT PUSH2 0x5C91 JUMPI MLOAD SWAP1 CODESIZE DUP1 PUSH2 0x5DB9 JUMP JUMPDEST POP RETURNDATASIZE PUSH2 0x6132 JUMP JUMPDEST DUP15 DUP15 MLOAD SWAP1 RETURNDATASIZE SWAP1 DUP3 RETURNDATACOPY RETURNDATASIZE SWAP1 REVERT JUMPDEST SWAP3 SWAP4 DUP1 SWAP6 SWAP7 SWAP8 SWAP9 POP DUP1 SWAP3 POP DUP4 SWAP2 POP RETURNDATASIZE DUP4 GT PUSH2 0x6196 JUMPI JUMPDEST PUSH2 0x6180 DUP2 DUP4 PUSH2 0x4E16 JUMP JUMPDEST DUP2 ADD SUB SLT PUSH2 0x5C91 JUMPI MLOAD SWAP5 SWAP4 SWAP3 SWAP2 SWAP1 DUP9 DUP13 DUP6 PUSH2 0x5D86 JUMP JUMPDEST POP RETURNDATASIZE PUSH2 0x6176 JUMP JUMPDEST DUP13 MLOAD RETURNDATASIZE DUP16 DUP3 RETURNDATACOPY RETURNDATASIZE SWAP1 REVERT JUMPDEST SWAP4 POP SWAP4 SWAP5 DUP1 SWAP7 POP DUP1 SWAP3 POP DUP4 SWAP2 POP RETURNDATASIZE DUP4 GT PUSH2 0x61DD JUMPI JUMPDEST PUSH2 0x61C6 DUP2 DUP4 PUSH2 0x4E16 JUMP JUMPDEST DUP2 ADD SUB SLT PUSH2 0x5C8D JUMPI MLOAD DUP13 SWAP4 SWAP3 SWAP2 DUP6 SWAP2 DUP12 SWAP2 DUP5 PUSH2 0x5D46 JUMP JUMPDEST POP RETURNDATASIZE PUSH2 0x61BC JUMP JUMPDEST DUP6 DUP2 SUB PUSH2 0x61FA JUMPI JUMPDEST PUSH2 0x61F5 SWAP1 PUSH2 0x5087 JUMP JUMPDEST PUSH2 0x5CE3 JUMP JUMPDEST SWAP4 DUP8 DUP5 DUP7 PUSH1 0x1 DUP1 PUSH1 0xA0 SHL SUB DUP11 DUP2 PUSH1 0xC SLOAD AND SWAP2 PUSH2 0x6231 PUSH1 0x4 SWAP2 DUP3 DUP12 ADD SLOAD AND SWAP7 MLOAD SWAP7 DUP8 SWAP6 DUP7 SWAP5 DUP6 SWAP5 PUSH4 0xDC4CE349 PUSH1 0xE0 SHL DUP7 MSTORE DUP6 ADD PUSH2 0x5A21 JUMP JUMPDEST SUB SWAP2 GAS STATICCALL SWAP1 DUP2 ISZERO PUSH2 0x60F2 JUMPI DUP11 SWAP2 PUSH2 0x6259 JUMPI JUMPDEST POP PUSH2 0x6251 SWAP1 PUSH2 0x61F5 SWAP3 PUSH2 0x507A JUMP JUMPDEST SWAP5 SWAP1 POP PUSH2 0x61EC JUMP JUMPDEST SWAP1 POP DUP5 DUP2 DUP2 RETURNDATASIZE DUP4 GT PUSH2 0x6281 JUMPI JUMPDEST PUSH2 0x6270 DUP2 DUP4 PUSH2 0x4E16 JUMP JUMPDEST DUP2 ADD SUB SLT PUSH2 0x5F81 JUMPI MLOAD PUSH2 0x61F5 PUSH2 0x6243 JUMP JUMPDEST POP RETURNDATASIZE PUSH2 0x6266 JUMP JUMPDEST PUSH2 0x6292 DUP2 SLOAD PUSH2 0x4EAA JUMP JUMPDEST SWAP1 DUP2 PUSH2 0x629C JUMPI POP POP JUMP JUMPDEST DUP2 PUSH1 0x1F PUSH1 0x0 SWAP4 GT PUSH1 0x1 EQ PUSH2 0x62AE JUMPI POP SSTORE JUMP JUMPDEST SWAP1 DUP1 DUP4 SWAP2 DUP3 MSTORE PUSH2 0x62CD PUSH1 0x1F PUSH1 0x20 DUP5 KECCAK256 SWAP5 ADD PUSH1 0x5 SHR DUP5 ADD PUSH1 0x1 DUP6 ADD PUSH2 0x50A2 JUMP JUMPDEST SSTORE SSTORE JUMP JUMPDEST ISZERO PUSH2 0x62D8 JUMPI JUMP JUMPDEST PUSH1 0x64 PUSH1 0x40 MLOAD PUSH3 0x461BCD PUSH1 0xE5 SHL DUP2 MSTORE PUSH1 0x20 PUSH1 0x4 DUP3 ADD MSTORE PUSH1 0x20 PUSH1 0x24 DUP3 ADD MSTORE PUSH32 0x4D61726B65744D616E616765723A20496E76616C6964206D61726B6574204944 PUSH1 0x44 DUP3 ADD MSTORE REVERT JUMPDEST ISZERO PUSH2 0x6323 JUMPI JUMP JUMPDEST PUSH1 0x40 MLOAD PUSH3 0x461BCD PUSH1 0xE5 SHL DUP2 MSTORE PUSH1 0x20 PUSH1 0x4 DUP3 ADD MSTORE PUSH1 0x24 DUP1 DUP3 ADD MSTORE PUSH32 0x4D61726B65744D616E616765723A204D61726B657420646F6573206E6F742065 PUSH1 0x44 DUP3 ADD MSTORE PUSH4 0x1E1A5CDD PUSH1 0xE2 SHL PUSH1 0x64 DUP3 ADD MSTORE PUSH1 0x84 SWAP1 REVERT JUMPDEST PUSH1 0x0 JUMPDEST PUSH1 0x14 SWAP1 DUP2 SLOAD SWAP2 DUP3 DUP3 LT ISZERO PUSH2 0x6412 JUMPI DUP4 SWAP3 PUSH2 0x6390 DUP4 PUSH2 0x4BB1 JUMP JUMPDEST SWAP5 SWAP1 SLOAD PUSH1 0x3 SWAP6 DUP7 SHL SHR EQ PUSH2 0x63AF JUMPI POP POP PUSH2 0x63AA SWAP2 POP PUSH2 0x5087 JUMP JUMPDEST PUSH2 0x6377 JUMP JUMPDEST SWAP1 SWAP2 PUSH1 0x0 NOT SWAP2 DUP1 DUP4 ADD SWAP2 SWAP1 DUP3 GT PUSH2 0x5064 JUMPI PUSH2 0x30C1 PUSH2 0x63CF PUSH2 0x63DB SWAP4 PUSH2 0x4BB1 JUMP JUMPDEST SWAP1 SLOAD SWAP1 DUP8 SHL SHR SWAP2 PUSH2 0x4BB1 JUMP JUMPDEST DUP2 SLOAD DUP1 ISZERO PUSH2 0x1667 JUMPI DUP2 ADD SWAP3 PUSH2 0x63EF DUP5 PUSH2 0x4BB1 JUMP JUMPDEST DUP2 SWAP4 SWAP2 SLOAD SWAP3 SHL SHL NOT AND SWAP1 SSTORE SSTORE PUSH1 0x0 MSTORE PUSH1 0x15 PUSH1 0x20 MSTORE PUSH1 0x40 PUSH1 0x0 KECCAK256 PUSH1 0xFF NOT DUP2 SLOAD AND SWAP1 SSTORE JUMP JUMPDEST POP POP POP POP JUMP JUMPDEST PUSH1 0x40 MLOAD SWAP1 PUSH2 0x6425 DUP3 PUSH2 0x4DDF JUMP JUMPDEST DUP2 PUSH2 0x1C0 PUSH1 0x0 SWAP2 DUP3 DUP2 MSTORE PUSH1 0x60 PUSH1 0x20 DUP3 ADD MSTORE DUP3 PUSH1 0x40 DUP3 ADD MSTORE DUP3 PUSH1 0x60 DUP3 ADD MSTORE DUP3 PUSH1 0x80 DUP3 ADD MSTORE DUP3 PUSH1 0xA0 DUP3 ADD MSTORE DUP3 PUSH1 0xC0 DUP3 ADD MSTORE DUP3 PUSH1 0xE0 DUP3 ADD MSTORE DUP3 PUSH2 0x100 DUP3 ADD MSTORE DUP3 PUSH2 0x120 DUP3 ADD MSTORE DUP3 PUSH2 0x140 DUP3 ADD MSTORE DUP3 PUSH2 0x160 DUP3 ADD MSTORE DUP3 PUSH2 0x180 DUP3 ADD MSTORE DUP3 PUSH2 0x1A0 DUP3 ADD MSTORE ADD MSTORE JUMP JUMPDEST SWAP1 PUSH2 0x6492 DUP3 PUSH2 0x5AAB JUMP JUMPDEST PUSH2 0x649F PUSH1 0x40 MLOAD SWAP2 DUP3 PUSH2 0x4E16 JUMP JUMPDEST DUP3 DUP2 MSTORE DUP1 SWAP3 PUSH2 0x64B0 PUSH1 0x1F NOT SWAP2 PUSH2 0x5AAB JUMP JUMPDEST ADD SWAP1 PUSH1 0x20 CALLDATASIZE SWAP2 ADD CALLDATACOPY JUMP INVALID 0x4C GASLIMIT PUSH2 0xC5B0 DIV DUP5 0x24 SMOD SHR GT ISZERO 0xE9 CALL 0xE3 0x25 BASEFEE PUSH15 0x21C21333D968F21097B7B72D12AD4D PUSH2 0x726B PUSH6 0x744D616E6167 PUSH6 0x723A20546869 PUSH20 0x206D61726B65742075736573204D61726B65744D PUSH2 0x6E61 PUSH8 0x65723A20546F6B65 PUSH15 0x206E6F7420737570706F72744D6172 PUSH12 0x65744D616E616765723A2042 PUSH6 0x6C6F77206D69 PUSH15 0x696D756D20737461057C384A7D1C54 RETURN LOG1 0xB2 0xE5 0xE6 PUSH28 0x2617B8224FDFD1EA7234EEA573A6FF665FF63E8BE0079C5316591413 PREVRANDAO 0xCD 0x1F 0xD0 LOG4 CALLCODE DUP5 NOT 0x49 PUSH32 0x9722A3DAAFE3B4186F6B6457E06DFC24F0F2FB42E49FB4FA3FFA8ABB148CAB90 DUP11 0x1F 0xB8 CALLER JUMPDEST EXTCODEHASH SLT DUP11 ADDMOD 0xB2 MSIZE 0x4A CALL 0x4D PUSH2 0x726B PUSH6 0x744D616E6167 PUSH6 0x723A20496E73 PUSH22 0x6666696369656E742050455055E10FDDE2C5CD9B92E4 0x49 0xEE 0x25 0xDF ADD INVALID 0xBD LOG2 0xCB 0xEB 0xC5 SSTORE RETURNDATACOPY CODESIZE CALLCODE 0x25 0xF INVALID PUSH32 0x2D5143BCA26469706673582212200FFC7333C3F75E85CED4766B81E7A332CAD7 PC 0xF SWAP7 0xD9 KECCAK256 PUSH10 0xB58B5634E84328AE6473 PUSH16 0x6C634300081400330000000000000000 "},"methodIdentifiers":{"CREATOR_FEE_BPS()":"cc3cbd2a","PLATFORM_FEE_BPS()":"539aa77f","VERIFIER_FEE_BPS()":"2ee4018f","activeMarkets(uint256)":"3adfe6d0","addSupportedToken(address,string)":"720138e8","analytics()":"80d5ac8a","autoResolve(uint256)":"b1138b50","bettingRestrictionEnabled()":"88d3cc48","bettingRestrictionMinutes()":"baa9c4ac","blacklistedAddresses(uint256)":"a7a8c359","blacklistedWallets(address)":"2b5ba3b9","calculateWinnings(uint256,address)":"f15cc406","cancelMarket(uint256)":"7c16cd9e","claimRefund(uint256)":"5b7baf64","claimWinnings(uint256)":"677bd9ff","createMarket(string,bool,uint256,address,uint256,uint256,uint256,uint256,uint256)":"638b022c","creatorCancelMarket(uint256)":"c3436e0c","deleteMarket(uint256,string)":"51049969","deletedMarkets(uint256)":"881df9e1","deletionTimestamp(uint256)":"ad8e42ff","endMarket(uint256)":"157bdcce","getActiveMarketCount()":"5da3247a","getActiveMarkets()":"a5e973c3","getAllMarketIds()":"b85ed636","getBlacklistedAddresses()":"3bbab179","getDeletedMarkets()":"65ebce55","getMarket(uint256)":"eb44fdd3","getMarketInfo(uint256)":"3ec79193","getMarketResolvingVerifiers(uint256)":"902315ec","getMarketStakers(uint256)":"6f59359e","getMarketsReadyForRemoval()":"c8a843b7","getNextMarketId()":"fe53a6e8","getOptionPool(uint256,uint256,address)":"dc4ce349","getPermanentlyRemovedMarkets()":"6d822220","getStakerCount(uint256)":"0ccf4467","getSupportPool(uint256,address)":"4f44289d","getSupportedTokens()":"d3c7c2c7","getSupporterCount(uint256)":"a30a0914","getTotalPool(uint256,address)":"f00fe321","getUserMarketHistory(address)":"33d6b46e","getUserStake(uint256,address,address)":"847cf782","getUserSupport(uint256,address,address)":"256ba741","isActiveMarket(uint256)":"0d64cdbd","isMarketActive(uint256)":"f849f69e","isWalletBlacklisted(address)":"1356af02","marketCreationFee()":"2ef1bdfa","marketResolvingVerifiers(uint256,uint256)":"2bdbb884","marketStakers(uint256,uint256)":"d5f82707","marketSupporters(uint256,uint256)":"c22c62c3","markets(uint256)":"b1283e77","minMarketDurationMinutes()":"17916e01","nextMarketId()":"406ef2ef","owner()":"8da5cb5b","permanentlyRemoveMarket(uint256)":"07adc191","permanentlyRemovedMarkets(uint256)":"81b17d29","placeStake(uint256,uint256)":"f4867591","placeStakeWithToken(uint256,uint256,uint256)":"f1b7dde3","removeSupportedToken(address)":"76319190","renounceOwnership()":"715018a6","resolveMarket(uint256,uint256)":"60557333","setAnalytics(address)":"74c350eb","setBettingRestriction(bool,uint256)":"e78d0117","setMarketCreationFee(uint256)":"9f37022a","setMinMarketDuration(uint256)":"45843695","setVerification(address)":"971f8bb1","setWalletBlacklist(address,bool)":"db62c6de","supportMarket(uint256,uint256)":"f204072f","supportedTokenList(uint256)":"2b60c822","supportedTokens(address)":"68c4ac26","tokenSymbols(address)":"fb0b2b36","transferOwnership(address)":"f2fde38b","treasury()":"61d027b3","userHasStaked(uint256,address)":"304bf1f1","userHasSupported(uint256,address)":"287f57b5","userMarketHistory(address,uint256)":"98a17671","userStakeOptions(uint256,address)":"d8c5dd67","verification()":"4ffe2a8b","withdrawSupport(uint256)":"3e32a76c"}}}}}