{"contracts/Treasury.sol":{"Treasury":{"abi":[{"inputs":[{"internalType":"address","name":"initialOwner","type":"address"},{"internalType":"address","name":"_partner","type":"address"}],"stateMutability":"nonpayable","type":"constructor"},{"inputs":[{"internalType":"address","name":"owner","type":"address"}],"name":"OwnableInvalidOwner","type":"error"},{"inputs":[{"internalType":"address","name":"account","type":"address"}],"name":"OwnableUnauthorizedAccount","type":"error"},{"inputs":[{"internalType":"address","name":"token","type":"address"}],"name":"SafeERC20FailedOperation","type":"error"},{"anonymous":false,"inputs":[{"indexed":true,"internalType":"address","name":"contractAddr","type":"address"}],"name":"ContractAuthorized","type":"event"},{"anonymous":false,"inputs":[{"indexed":true,"internalType":"address","name":"contractAddr","type":"address"}],"name":"ContractDeauthorized","type":"event"},{"anonymous":false,"inputs":[{"indexed":true,"internalType":"address","name":"token","type":"address"},{"indexed":false,"internalType":"uint256","name":"platformAmount","type":"uint256"},{"indexed":false,"internalType":"uint256","name":"partnerAmount","type":"uint256"}],"name":"FeesDistributed","type":"event"},{"anonymous":false,"inputs":[{"indexed":true,"internalType":"address","name":"token","type":"address"},{"indexed":false,"internalType":"uint256","name":"amount","type":"uint256"},{"indexed":true,"internalType":"address","name":"to","type":"address"}],"name":"FundsWithdrawn","type":"event"},{"anonymous":false,"inputs":[{"indexed":true,"internalType":"address","name":"oldManager","type":"address"},{"indexed":true,"internalType":"address","name":"newManager","type":"address"}],"name":"MarketManagerUpdated","type":"event"},{"anonymous":false,"inputs":[{"indexed":true,"internalType":"address","name":"previousOwner","type":"address"},{"indexed":true,"internalType":"address","name":"newOwner","type":"address"}],"name":"OwnershipTransferred","type":"event"},{"anonymous":false,"inputs":[{"indexed":true,"internalType":"address","name":"oldPartner","type":"address"},{"indexed":true,"internalType":"address","name":"newPartner","type":"address"}],"name":"PartnerUpdated","type":"event"},{"inputs":[],"name":"PARTNER_FEE_BPS","outputs":[{"internalType":"uint256","name":"","type":"uint256"}],"stateMutability":"view","type":"function"},{"inputs":[],"name":"PLATFORM_FEE_BPS","outputs":[{"internalType":"uint256","name":"","type":"uint256"}],"stateMutability":"view","type":"function"},{"inputs":[{"internalType":"address","name":"contractAddr","type":"address"}],"name":"authorizeContract","outputs":[],"stateMutability":"nonpayable","type":"function"},{"inputs":[{"internalType":"address","name":"","type":"address"}],"name":"authorizedContracts","outputs":[{"internalType":"bool","name":"","type":"bool"}],"stateMutability":"view","type":"function"},{"inputs":[{"internalType":"uint256","name":"totalAmount","type":"uint256"}],"name":"calculateFees","outputs":[{"internalType":"uint256","name":"platformFee","type":"uint256"},{"internalType":"uint256","name":"partnerFee","type":"uint256"}],"stateMutability":"pure","type":"function"},{"inputs":[{"internalType":"address","name":"contractAddr","type":"address"}],"name":"deauthorizeContract","outputs":[],"stateMutability":"nonpayable","type":"function"},{"inputs":[{"internalType":"address","name":"token","type":"address"},{"internalType":"uint256","name":"totalAmount","type":"uint256"}],"name":"distributeFees","outputs":[],"stateMutability":"nonpayable","type":"function"},{"inputs":[],"name":"marketManager","outputs":[{"internalType":"address","name":"","type":"address"}],"stateMutability":"view","type":"function"},{"inputs":[],"name":"owner","outputs":[{"internalType":"address","name":"","type":"address"}],"stateMutability":"view","type":"function"},{"inputs":[],"name":"partner","outputs":[{"internalType":"address","name":"","type":"address"}],"stateMutability":"view","type":"function"},{"inputs":[],"name":"renounceOwnership","outputs":[],"stateMutability":"nonpayable","type":"function"},{"inputs":[{"internalType":"address","name":"_marketManager","type":"address"}],"name":"setMarketManager","outputs":[],"stateMutability":"nonpayable","type":"function"},{"inputs":[{"internalType":"address","name":"_partner","type":"address"}],"name":"setPartner","outputs":[],"stateMutability":"nonpayable","type":"function"},{"inputs":[{"internalType":"address","name":"newOwner","type":"address"}],"name":"transferOwnership","outputs":[],"stateMutability":"nonpayable","type":"function"},{"inputs":[{"internalType":"address","name":"token","type":"address"},{"internalType":"uint256","name":"amount","type":"uint256"},{"internalType":"address","name":"to","type":"address"}],"name":"withdraw","outputs":[],"stateMutability":"nonpayable","type":"function"},{"stateMutability":"payable","type":"receive"}],"evm":{"bytecode":{"linkReferences":{},"object":"6080346100d457601f610de838819003918201601f19168301916001600160401b038311848410176100d95780849260409485528339810103126100d457610052602061004b836100ef565b92016100ef565b906001600160a01b039081169081156100bb576000549260018060a01b03199280848616176000558260405195167f8be0079c531659141344cd1fd0a4f28419497f9722a3daafe3b4186f6b6457e0600080a316906001541617600155610ce490816101048239f35b604051631e4fbdf760e01b815260006004820152602490fd5b600080fd5b634e487b7160e01b600052604160045260246000fd5b51906001600160a01b03821682036100d45756fe60806040818152600480361015610021575b505050361561001f57600080fd5b005b600092833560e01c90816341ed2c12146109e55750806341ee37d1146109c957806348fef5951461076957806352238fdd1461073f578063539aa77f1461072257806367561d931461066557806369328dec1461047e5780636e861c0e14610418578063715018a6146103bb5780638da5cb5b14610393578063a16d5960146102cd578063be10862b146102a4578063d5b9221b14610266578063d82aff11146101585763f2fde38b036100115734610154576020366003190112610154576100e8610a0a565b906100f1610a25565b6001600160a01b0391821692831561013e57505082546001600160a01b0319811683178455167f8be0079c531659141344cd1fd0a4f28419497f9722a3daafe3b4186f6b6457e08380a380f35b51631e4fbdf760e01b8152908101849052602490fd5b8280fd5b5082903461026257602036600319011261026257610174610a0a565b61017c610a25565b6001600160a01b0390811691821561020e575081929360035490836bffffffffffffffffffffffff60a01b83161760035583865260026020528520600160ff19825416179055167f6d5236c24f887cea37fd19d8fffc6c47b564af445baf220a6c7f9a58bb6ae04e8480a37f8983a1f3c3cb45c24c8226b5b805e3b6eb49686530b808534b2a920129eff6518280a280f35b608490602086519162461bcd60e51b8352820152602860248201527f54726561737572793a20496e76616c6964206d61726b6574206d616e61676572604482015267206164647265737360c01b6064820152fd5b5080fd5b5050346102625760203660031901126102625760209160ff9082906001600160a01b03610291610a0a565b1681526002855220541690519015158152f35b50503461026257816003193601126102625760015490516001600160a01b039091168152602090f35b5034610154576020366003190112610154576102e7610a0a565b906102f0610a25565b6001600160a01b03918216928315610346575050600154826bffffffffffffffffffffffff60a01b821617600155167fc853be2b3168a7fe00e46da23214c5345a752dc61cd3300d7f255f8ae55345878380a380f35b906020608492519162461bcd60e51b8352820152602160248201527f54726561737572793a20496e76616c696420706172746e6572206164647265736044820152607360f81b6064820152fd5b505034610262578160031936011261026257905490516001600160a01b039091168152602090f35b83346104155780600319360112610415576103d4610a25565b80546001600160a01b03198116825581906001600160a01b03167f8be0079c531659141344cd1fd0a4f28419497f9722a3daafe3b4186f6b6457e08280a380f35b80fd5b50503461026257602036600319011261026257610433610a0a565b61043b610a25565b6001600160a01b03168083526002602052908220805460ff191690557f54142b7cb3ceaa9e564243ce4cc2303723c842a1144192de6b3c594f68b16a9a8280a280f35b503461015457606036600319011261015457610498610a0a565b6001600160a01b036044358181169490926024359290868503610661576104bd610a25565b861561061e576104ce841515610a99565b1693868561056b5780808580976104ea83969798471015610b75565b5af16104f4610bcc565b501561052957507fe9171aeff46c37ab955b8aff908e14ae9732bd06634fa131226cfe5c25bfd2fb916020915b51908152a380f35b6020606492519162461bcd60e51b8352820152601d60248201527f54726561737572793a20455448207472616e73666572206661696c65640000006044820152fd5b508151906370a0823160e01b82523090820152602081602481885afa9081156106145787916105d7575b50906105d2837fe9171aeff46c37ab955b8aff908e14ae9732bd06634fa131226cfe5c25bfd2fb956105cc82602097961015610b1d565b87610c0c565b610521565b929190506020833d821161060c575b816105f360209383610ae5565b810103126106085791519091906105d2610595565b8680fd5b3d91506105e6565b82513d89823e3d90fd5b825162461bcd60e51b8152602081880152601b60248201527f54726561737572793a20496e76616c696420726563697069656e7400000000006044820152606490fd5b8780fd5b50903461015457602036600319011261015457610680610a0a565b610688610a25565b6001600160a01b03169182156106d5575081835260026020528220805460ff191660011790557f8983a1f3c3cb45c24c8226b5b805e3b6eb49686530b808534b2a920129eff6518280a280f35b6020608492519162461bcd60e51b8352820152602260248201527f54726561737572793a20496e76616c696420636f6e7472616374206164647265604482015261737360f01b6064820152fd5b505034610262578160031936011261026257602090516101f48152f35b508234610415576020366003190112610415575061075d9035610a51565b82519182526020820152f35b50919034610262578060031936011261026257610784610a0a565b90602435913384526020946002865260ff838620541615610960576107aa841515610a99565b6107b384610a51565b6001600160a01b0393841695919390929186610881576107d590471015610b75565b8261080d575b50507f85da6ab72d2b48932522aea80adb8ca4fab6cdeb87bc2e7f6c03fd78d3b2100e9394958351928352820152a280f35b868080858194600154165af1610821610bcc565b501561082d57806107db565b835162461bcd60e51b8152908101879052602860248201527f54726561737572793a20455448207472616e7366657220746f20706172746e656044820152671c8819985a5b195960c21b6064820152608490fd5b959697918551906370a0823160e01b8252309082015282816024818b5afa908115610956578991610905575b507f85da6ab72d2b48932522aea80adb8ca4fab6cdeb87bc2e7f6c03fd78d3b2100e966108db911015610b1d565b82806108f0575b50508351928352820152a280f35b6108fe916001541688610c0c565b38826108e2565b90508281813d831161094f575b61091c8183610ae5565b8101031261094b57517f85da6ab72d2b48932522aea80adb8ca4fab6cdeb87bc2e7f6c03fd78d3b2100e6108ad565b8880fd5b503d610912565b86513d8b823e3d90fd5b825162461bcd60e51b8152908101869052603760248201527f54726561737572793a204f6e6c7920617574686f72697a656420636f6e74726160448201527f6374732063616e206469737472696275746520666565730000000000000000006064820152608490fd5b5050346102625781600319360112610262576020905160648152f35b8490346102625781600319360112610262576003546001600160a01b03168152602090f35b600435906001600160a01b0382168203610a2057565b600080fd5b6000546001600160a01b03163303610a3957565b60405163118cdaa760e01b8152336004820152602490fd5b906101f491828102928184041490151715610a8357612710809204916064830283810460641484151715610a83570490565b634e487b7160e01b600052601160045260246000fd5b15610aa057565b60405162461bcd60e51b815260206004820152601860248201527f54726561737572793a20496e76616c696420616d6f756e7400000000000000006044820152606490fd5b90601f8019910116810190811067ffffffffffffffff821117610b0757604052565b634e487b7160e01b600052604160045260246000fd5b15610b2457565b60405162461bcd60e51b8152602060048201526024808201527f54726561737572793a20496e73756666696369656e7420746f6b656e2062616c604482015263616e636560e01b6064820152608490fd5b15610b7c57565b60405162461bcd60e51b815260206004820152602260248201527f54726561737572793a20496e73756666696369656e74204554482062616c616e604482015261636560f01b6064820152608490fd5b3d15610c07573d9067ffffffffffffffff8211610b075760405191610bfb601f8201601f191660200184610ae5565b82523d6000602084013e565b606090565b60405163a9059cbb60e01b602082019081526001600160a01b0393841660248301526044808301959095529381529092608082019067ffffffffffffffff821183831017610b0757602092600092604052519082865af115610ca2576000513d610c9957508082163b155b610c7f575050565b604051635274afe760e01b81529116600482015260249150fd5b60011415610c77565b6040513d6000823e3d90fdfea264697066735822122050887e0095b4e6c6d555fe88c893be1e81da66e9461dd1b432900a1db77c100d64736f6c63430008140033","opcodes":"PUSH1 0x80 CALLVALUE PUSH2 0xD4 JUMPI PUSH1 0x1F PUSH2 0xDE8 CODESIZE DUP2 SWAP1 SUB SWAP2 DUP3 ADD PUSH1 0x1F NOT AND DUP4 ADD SWAP2 PUSH1 0x1 PUSH1 0x1 PUSH1 0x40 SHL SUB DUP4 GT DUP5 DUP5 LT OR PUSH2 0xD9 JUMPI DUP1 DUP5 SWAP3 PUSH1 0x40 SWAP5 DUP6 MSTORE DUP4 CODECOPY DUP2 ADD SUB SLT PUSH2 0xD4 JUMPI PUSH2 0x52 PUSH1 0x20 PUSH2 0x4B DUP4 PUSH2 0xEF JUMP JUMPDEST SWAP3 ADD PUSH2 0xEF JUMP JUMPDEST SWAP1 PUSH1 0x1 PUSH1 0x1 PUSH1 0xA0 SHL SUB SWAP1 DUP2 AND SWAP1 DUP2 ISZERO PUSH2 0xBB JUMPI PUSH1 0x0 SLOAD SWAP3 PUSH1 0x1 DUP1 PUSH1 0xA0 SHL SUB NOT SWAP3 DUP1 DUP5 DUP7 AND OR PUSH1 0x0 SSTORE DUP3 PUSH1 0x40 MLOAD SWAP6 AND PUSH32 0x8BE0079C531659141344CD1FD0A4F28419497F9722A3DAAFE3B4186F6B6457E0 PUSH1 0x0 DUP1 LOG3 AND SWAP1 PUSH1 0x1 SLOAD AND OR PUSH1 0x1 SSTORE PUSH2 0xCE4 SWAP1 DUP2 PUSH2 0x104 DUP3 CODECOPY RETURN JUMPDEST PUSH1 0x40 MLOAD PUSH4 0x1E4FBDF7 PUSH1 0xE0 SHL DUP2 MSTORE PUSH1 0x0 PUSH1 0x4 DUP3 ADD MSTORE PUSH1 0x24 SWAP1 REVERT JUMPDEST PUSH1 0x0 DUP1 REVERT JUMPDEST PUSH4 0x4E487B71 PUSH1 0xE0 SHL PUSH1 0x0 MSTORE PUSH1 0x41 PUSH1 0x4 MSTORE PUSH1 0x24 PUSH1 0x0 REVERT JUMPDEST MLOAD SWAP1 PUSH1 0x1 PUSH1 0x1 PUSH1 0xA0 SHL SUB DUP3 AND DUP3 SUB PUSH2 0xD4 JUMPI JUMP INVALID PUSH1 0x80 PUSH1 0x40 DUP2 DUP2 MSTORE PUSH1 0x4 DUP1 CALLDATASIZE LT ISZERO PUSH2 0x21 JUMPI JUMPDEST POP POP POP CALLDATASIZE ISZERO PUSH2 0x1F JUMPI PUSH1 0x0 DUP1 REVERT JUMPDEST STOP JUMPDEST PUSH1 0x0 SWAP3 DUP4 CALLDATALOAD PUSH1 0xE0 SHR SWAP1 DUP2 PUSH4 0x41ED2C12 EQ PUSH2 0x9E5 JUMPI POP DUP1 PUSH4 0x41EE37D1 EQ PUSH2 0x9C9 JUMPI DUP1 PUSH4 0x48FEF595 EQ PUSH2 0x769 JUMPI DUP1 PUSH4 0x52238FDD EQ PUSH2 0x73F JUMPI DUP1 PUSH4 0x539AA77F EQ PUSH2 0x722 JUMPI DUP1 PUSH4 0x67561D93 EQ PUSH2 0x665 JUMPI DUP1 PUSH4 0x69328DEC EQ PUSH2 0x47E JUMPI DUP1 PUSH4 0x6E861C0E EQ PUSH2 0x418 JUMPI DUP1 PUSH4 0x715018A6 EQ PUSH2 0x3BB JUMPI DUP1 PUSH4 0x8DA5CB5B EQ PUSH2 0x393 JUMPI DUP1 PUSH4 0xA16D5960 EQ PUSH2 0x2CD JUMPI DUP1 PUSH4 0xBE10862B EQ PUSH2 0x2A4 JUMPI DUP1 PUSH4 0xD5B9221B EQ PUSH2 0x266 JUMPI DUP1 PUSH4 0xD82AFF11 EQ PUSH2 0x158 JUMPI PUSH4 0xF2FDE38B SUB PUSH2 0x11 JUMPI CALLVALUE PUSH2 0x154 JUMPI PUSH1 0x20 CALLDATASIZE PUSH1 0x3 NOT ADD SLT PUSH2 0x154 JUMPI PUSH2 0xE8 PUSH2 0xA0A JUMP JUMPDEST SWAP1 PUSH2 0xF1 PUSH2 0xA25 JUMP JUMPDEST PUSH1 0x1 PUSH1 0x1 PUSH1 0xA0 SHL SUB SWAP2 DUP3 AND SWAP3 DUP4 ISZERO PUSH2 0x13E JUMPI POP POP DUP3 SLOAD PUSH1 0x1 PUSH1 0x1 PUSH1 0xA0 SHL SUB NOT DUP2 AND DUP4 OR DUP5 SSTORE AND PUSH32 0x8BE0079C531659141344CD1FD0A4F28419497F9722A3DAAFE3B4186F6B6457E0 DUP4 DUP1 LOG3 DUP1 RETURN JUMPDEST MLOAD PUSH4 0x1E4FBDF7 PUSH1 0xE0 SHL DUP2 MSTORE SWAP1 DUP2 ADD DUP5 SWAP1 MSTORE PUSH1 0x24 SWAP1 REVERT JUMPDEST DUP3 DUP1 REVERT JUMPDEST POP DUP3 SWAP1 CALLVALUE PUSH2 0x262 JUMPI PUSH1 0x20 CALLDATASIZE PUSH1 0x3 NOT ADD SLT PUSH2 0x262 JUMPI PUSH2 0x174 PUSH2 0xA0A JUMP JUMPDEST PUSH2 0x17C PUSH2 0xA25 JUMP JUMPDEST PUSH1 0x1 PUSH1 0x1 PUSH1 0xA0 SHL SUB SWAP1 DUP2 AND SWAP2 DUP3 ISZERO PUSH2 0x20E JUMPI POP DUP2 SWAP3 SWAP4 PUSH1 0x3 SLOAD SWAP1 DUP4 PUSH12 0xFFFFFFFFFFFFFFFFFFFFFFFF PUSH1 0xA0 SHL DUP4 AND OR PUSH1 0x3 SSTORE DUP4 DUP7 MSTORE PUSH1 0x2 PUSH1 0x20 MSTORE DUP6 KECCAK256 PUSH1 0x1 PUSH1 0xFF NOT DUP3 SLOAD AND OR SWAP1 SSTORE AND PUSH32 0x6D5236C24F887CEA37FD19D8FFFC6C47B564AF445BAF220A6C7F9A58BB6AE04E DUP5 DUP1 LOG3 PUSH32 0x8983A1F3C3CB45C24C8226B5B805E3B6EB49686530B808534B2A920129EFF651 DUP3 DUP1 LOG2 DUP1 RETURN JUMPDEST PUSH1 0x84 SWAP1 PUSH1 0x20 DUP7 MLOAD SWAP2 PUSH3 0x461BCD PUSH1 0xE5 SHL DUP4 MSTORE DUP3 ADD MSTORE PUSH1 0x28 PUSH1 0x24 DUP3 ADD MSTORE PUSH32 0x54726561737572793A20496E76616C6964206D61726B6574206D616E61676572 PUSH1 0x44 DUP3 ADD MSTORE PUSH8 0x2061646472657373 PUSH1 0xC0 SHL PUSH1 0x64 DUP3 ADD MSTORE REVERT JUMPDEST POP DUP1 REVERT JUMPDEST POP POP CALLVALUE PUSH2 0x262 JUMPI PUSH1 0x20 CALLDATASIZE PUSH1 0x3 NOT ADD SLT PUSH2 0x262 JUMPI PUSH1 0x20 SWAP2 PUSH1 0xFF SWAP1 DUP3 SWAP1 PUSH1 0x1 PUSH1 0x1 PUSH1 0xA0 SHL SUB PUSH2 0x291 PUSH2 0xA0A JUMP JUMPDEST AND DUP2 MSTORE PUSH1 0x2 DUP6 MSTORE KECCAK256 SLOAD AND SWAP1 MLOAD SWAP1 ISZERO ISZERO DUP2 MSTORE RETURN JUMPDEST POP POP CALLVALUE PUSH2 0x262 JUMPI DUP2 PUSH1 0x3 NOT CALLDATASIZE ADD SLT PUSH2 0x262 JUMPI PUSH1 0x1 SLOAD SWAP1 MLOAD PUSH1 0x1 PUSH1 0x1 PUSH1 0xA0 SHL SUB SWAP1 SWAP2 AND DUP2 MSTORE PUSH1 0x20 SWAP1 RETURN JUMPDEST POP CALLVALUE PUSH2 0x154 JUMPI PUSH1 0x20 CALLDATASIZE PUSH1 0x3 NOT ADD SLT PUSH2 0x154 JUMPI PUSH2 0x2E7 PUSH2 0xA0A JUMP JUMPDEST SWAP1 PUSH2 0x2F0 PUSH2 0xA25 JUMP JUMPDEST PUSH1 0x1 PUSH1 0x1 PUSH1 0xA0 SHL SUB SWAP2 DUP3 AND SWAP3 DUP4 ISZERO PUSH2 0x346 JUMPI POP POP PUSH1 0x1 SLOAD DUP3 PUSH12 0xFFFFFFFFFFFFFFFFFFFFFFFF PUSH1 0xA0 SHL DUP3 AND OR PUSH1 0x1 SSTORE AND PUSH32 0xC853BE2B3168A7FE00E46DA23214C5345A752DC61CD3300D7F255F8AE5534587 DUP4 DUP1 LOG3 DUP1 RETURN JUMPDEST SWAP1 PUSH1 0x20 PUSH1 0x84 SWAP3 MLOAD SWAP2 PUSH3 0x461BCD PUSH1 0xE5 SHL DUP4 MSTORE DUP3 ADD MSTORE PUSH1 0x21 PUSH1 0x24 DUP3 ADD MSTORE PUSH32 0x54726561737572793A20496E76616C696420706172746E657220616464726573 PUSH1 0x44 DUP3 ADD MSTORE PUSH1 0x73 PUSH1 0xF8 SHL PUSH1 0x64 DUP3 ADD MSTORE REVERT JUMPDEST POP POP CALLVALUE PUSH2 0x262 JUMPI DUP2 PUSH1 0x3 NOT CALLDATASIZE ADD SLT PUSH2 0x262 JUMPI SWAP1 SLOAD SWAP1 MLOAD PUSH1 0x1 PUSH1 0x1 PUSH1 0xA0 SHL SUB SWAP1 SWAP2 AND DUP2 MSTORE PUSH1 0x20 SWAP1 RETURN JUMPDEST DUP4 CALLVALUE PUSH2 0x415 JUMPI DUP1 PUSH1 0x3 NOT CALLDATASIZE ADD SLT PUSH2 0x415 JUMPI PUSH2 0x3D4 PUSH2 0xA25 JUMP JUMPDEST DUP1 SLOAD PUSH1 0x1 PUSH1 0x1 PUSH1 0xA0 SHL SUB NOT DUP2 AND DUP3 SSTORE DUP2 SWAP1 PUSH1 0x1 PUSH1 0x1 PUSH1 0xA0 SHL SUB AND PUSH32 0x8BE0079C531659141344CD1FD0A4F28419497F9722A3DAAFE3B4186F6B6457E0 DUP3 DUP1 LOG3 DUP1 RETURN JUMPDEST DUP1 REVERT JUMPDEST POP POP CALLVALUE PUSH2 0x262 JUMPI PUSH1 0x20 CALLDATASIZE PUSH1 0x3 NOT ADD SLT PUSH2 0x262 JUMPI PUSH2 0x433 PUSH2 0xA0A JUMP JUMPDEST PUSH2 0x43B PUSH2 0xA25 JUMP JUMPDEST PUSH1 0x1 PUSH1 0x1 PUSH1 0xA0 SHL SUB AND DUP1 DUP4 MSTORE PUSH1 0x2 PUSH1 0x20 MSTORE SWAP1 DUP3 KECCAK256 DUP1 SLOAD PUSH1 0xFF NOT AND SWAP1 SSTORE PUSH32 0x54142B7CB3CEAA9E564243CE4CC2303723C842A1144192DE6B3C594F68B16A9A DUP3 DUP1 LOG2 DUP1 RETURN JUMPDEST POP CALLVALUE PUSH2 0x154 JUMPI PUSH1 0x60 CALLDATASIZE PUSH1 0x3 NOT ADD SLT PUSH2 0x154 JUMPI PUSH2 0x498 PUSH2 0xA0A JUMP JUMPDEST PUSH1 0x1 PUSH1 0x1 PUSH1 0xA0 SHL SUB PUSH1 0x44 CALLDATALOAD DUP2 DUP2 AND SWAP5 SWAP1 SWAP3 PUSH1 0x24 CALLDATALOAD SWAP3 SWAP1 DUP7 DUP6 SUB PUSH2 0x661 JUMPI PUSH2 0x4BD PUSH2 0xA25 JUMP JUMPDEST DUP7 ISZERO PUSH2 0x61E JUMPI PUSH2 0x4CE DUP5 ISZERO ISZERO PUSH2 0xA99 JUMP JUMPDEST AND SWAP4 DUP7 DUP6 PUSH2 0x56B JUMPI DUP1 DUP1 DUP6 DUP1 SWAP8 PUSH2 0x4EA DUP4 SWAP7 SWAP8 SWAP9 SELFBALANCE LT ISZERO PUSH2 0xB75 JUMP JUMPDEST GAS CALL PUSH2 0x4F4 PUSH2 0xBCC JUMP JUMPDEST POP ISZERO PUSH2 0x529 JUMPI POP PUSH32 0xE9171AEFF46C37AB955B8AFF908E14AE9732BD06634FA131226CFE5C25BFD2FB SWAP2 PUSH1 0x20 SWAP2 JUMPDEST MLOAD SWAP1 DUP2 MSTORE LOG3 DUP1 RETURN JUMPDEST PUSH1 0x20 PUSH1 0x64 SWAP3 MLOAD SWAP2 PUSH3 0x461BCD PUSH1 0xE5 SHL DUP4 MSTORE DUP3 ADD MSTORE PUSH1 0x1D PUSH1 0x24 DUP3 ADD MSTORE PUSH32 0x54726561737572793A20455448207472616E73666572206661696C6564000000 PUSH1 0x44 DUP3 ADD MSTORE REVERT JUMPDEST POP DUP2 MLOAD SWAP1 PUSH4 0x70A08231 PUSH1 0xE0 SHL DUP3 MSTORE ADDRESS SWAP1 DUP3 ADD MSTORE PUSH1 0x20 DUP2 PUSH1 0x24 DUP2 DUP9 GAS STATICCALL SWAP1 DUP2 ISZERO PUSH2 0x614 JUMPI DUP8 SWAP2 PUSH2 0x5D7 JUMPI JUMPDEST POP SWAP1 PUSH2 0x5D2 DUP4 PUSH32 0xE9171AEFF46C37AB955B8AFF908E14AE9732BD06634FA131226CFE5C25BFD2FB SWAP6 PUSH2 0x5CC DUP3 PUSH1 0x20 SWAP8 SWAP7 LT ISZERO PUSH2 0xB1D JUMP JUMPDEST DUP8 PUSH2 0xC0C JUMP JUMPDEST PUSH2 0x521 JUMP JUMPDEST SWAP3 SWAP2 SWAP1 POP PUSH1 0x20 DUP4 RETURNDATASIZE DUP3 GT PUSH2 0x60C JUMPI JUMPDEST DUP2 PUSH2 0x5F3 PUSH1 0x20 SWAP4 DUP4 PUSH2 0xAE5 JUMP JUMPDEST DUP2 ADD SUB SLT PUSH2 0x608 JUMPI SWAP2 MLOAD SWAP1 SWAP2 SWAP1 PUSH2 0x5D2 PUSH2 0x595 JUMP JUMPDEST DUP7 DUP1 REVERT JUMPDEST RETURNDATASIZE SWAP2 POP PUSH2 0x5E6 JUMP JUMPDEST DUP3 MLOAD RETURNDATASIZE DUP10 DUP3 RETURNDATACOPY RETURNDATASIZE SWAP1 REVERT JUMPDEST DUP3 MLOAD PUSH3 0x461BCD PUSH1 0xE5 SHL DUP2 MSTORE PUSH1 0x20 DUP2 DUP9 ADD MSTORE PUSH1 0x1B PUSH1 0x24 DUP3 ADD MSTORE PUSH32 0x54726561737572793A20496E76616C696420726563697069656E740000000000 PUSH1 0x44 DUP3 ADD MSTORE PUSH1 0x64 SWAP1 REVERT JUMPDEST DUP8 DUP1 REVERT JUMPDEST POP SWAP1 CALLVALUE PUSH2 0x154 JUMPI PUSH1 0x20 CALLDATASIZE PUSH1 0x3 NOT ADD SLT PUSH2 0x154 JUMPI PUSH2 0x680 PUSH2 0xA0A JUMP JUMPDEST PUSH2 0x688 PUSH2 0xA25 JUMP JUMPDEST PUSH1 0x1 PUSH1 0x1 PUSH1 0xA0 SHL SUB AND SWAP2 DUP3 ISZERO PUSH2 0x6D5 JUMPI POP DUP2 DUP4 MSTORE PUSH1 0x2 PUSH1 0x20 MSTORE DUP3 KECCAK256 DUP1 SLOAD PUSH1 0xFF NOT AND PUSH1 0x1 OR SWAP1 SSTORE PUSH32 0x8983A1F3C3CB45C24C8226B5B805E3B6EB49686530B808534B2A920129EFF651 DUP3 DUP1 LOG2 DUP1 RETURN JUMPDEST PUSH1 0x20 PUSH1 0x84 SWAP3 MLOAD SWAP2 PUSH3 0x461BCD PUSH1 0xE5 SHL DUP4 MSTORE DUP3 ADD MSTORE PUSH1 0x22 PUSH1 0x24 DUP3 ADD MSTORE PUSH32 0x54726561737572793A20496E76616C696420636F6E7472616374206164647265 PUSH1 0x44 DUP3 ADD MSTORE PUSH2 0x7373 PUSH1 0xF0 SHL PUSH1 0x64 DUP3 ADD MSTORE REVERT JUMPDEST POP POP CALLVALUE PUSH2 0x262 JUMPI DUP2 PUSH1 0x3 NOT CALLDATASIZE ADD SLT PUSH2 0x262 JUMPI PUSH1 0x20 SWAP1 MLOAD PUSH2 0x1F4 DUP2 MSTORE RETURN JUMPDEST POP DUP3 CALLVALUE PUSH2 0x415 JUMPI PUSH1 0x20 CALLDATASIZE PUSH1 0x3 NOT ADD SLT PUSH2 0x415 JUMPI POP PUSH2 0x75D SWAP1 CALLDATALOAD PUSH2 0xA51 JUMP JUMPDEST DUP3 MLOAD SWAP2 DUP3 MSTORE PUSH1 0x20 DUP3 ADD MSTORE RETURN JUMPDEST POP SWAP2 SWAP1 CALLVALUE PUSH2 0x262 JUMPI DUP1 PUSH1 0x3 NOT CALLDATASIZE ADD SLT PUSH2 0x262 JUMPI PUSH2 0x784 PUSH2 0xA0A JUMP JUMPDEST SWAP1 PUSH1 0x24 CALLDATALOAD SWAP2 CALLER DUP5 MSTORE PUSH1 0x20 SWAP5 PUSH1 0x2 DUP7 MSTORE PUSH1 0xFF DUP4 DUP7 KECCAK256 SLOAD AND ISZERO PUSH2 0x960 JUMPI PUSH2 0x7AA DUP5 ISZERO ISZERO PUSH2 0xA99 JUMP JUMPDEST PUSH2 0x7B3 DUP5 PUSH2 0xA51 JUMP JUMPDEST PUSH1 0x1 PUSH1 0x1 PUSH1 0xA0 SHL SUB SWAP4 DUP5 AND SWAP6 SWAP2 SWAP4 SWAP1 SWAP3 SWAP2 DUP7 PUSH2 0x881 JUMPI PUSH2 0x7D5 SWAP1 SELFBALANCE LT ISZERO PUSH2 0xB75 JUMP JUMPDEST DUP3 PUSH2 0x80D JUMPI JUMPDEST POP POP PUSH32 0x85DA6AB72D2B48932522AEA80ADB8CA4FAB6CDEB87BC2E7F6C03FD78D3B2100E SWAP4 SWAP5 SWAP6 DUP4 MLOAD SWAP3 DUP4 MSTORE DUP3 ADD MSTORE LOG2 DUP1 RETURN JUMPDEST DUP7 DUP1 DUP1 DUP6 DUP2 SWAP5 PUSH1 0x1 SLOAD AND GAS CALL PUSH2 0x821 PUSH2 0xBCC JUMP JUMPDEST POP ISZERO PUSH2 0x82D JUMPI DUP1 PUSH2 0x7DB JUMP JUMPDEST DUP4 MLOAD PUSH3 0x461BCD PUSH1 0xE5 SHL DUP2 MSTORE SWAP1 DUP2 ADD DUP8 SWAP1 MSTORE PUSH1 0x28 PUSH1 0x24 DUP3 ADD MSTORE PUSH32 0x54726561737572793A20455448207472616E7366657220746F20706172746E65 PUSH1 0x44 DUP3 ADD MSTORE PUSH8 0x1C8819985A5B1959 PUSH1 0xC2 SHL PUSH1 0x64 DUP3 ADD MSTORE PUSH1 0x84 SWAP1 REVERT JUMPDEST SWAP6 SWAP7 SWAP8 SWAP2 DUP6 MLOAD SWAP1 PUSH4 0x70A08231 PUSH1 0xE0 SHL DUP3 MSTORE ADDRESS SWAP1 DUP3 ADD MSTORE DUP3 DUP2 PUSH1 0x24 DUP2 DUP12 GAS STATICCALL SWAP1 DUP2 ISZERO PUSH2 0x956 JUMPI DUP10 SWAP2 PUSH2 0x905 JUMPI JUMPDEST POP PUSH32 0x85DA6AB72D2B48932522AEA80ADB8CA4FAB6CDEB87BC2E7F6C03FD78D3B2100E SWAP7 PUSH2 0x8DB SWAP2 LT ISZERO PUSH2 0xB1D JUMP JUMPDEST DUP3 DUP1 PUSH2 0x8F0 JUMPI JUMPDEST POP POP DUP4 MLOAD SWAP3 DUP4 MSTORE DUP3 ADD MSTORE LOG2 DUP1 RETURN JUMPDEST PUSH2 0x8FE SWAP2 PUSH1 0x1 SLOAD AND DUP9 PUSH2 0xC0C JUMP JUMPDEST CODESIZE DUP3 PUSH2 0x8E2 JUMP JUMPDEST SWAP1 POP DUP3 DUP2 DUP2 RETURNDATASIZE DUP4 GT PUSH2 0x94F JUMPI JUMPDEST PUSH2 0x91C DUP2 DUP4 PUSH2 0xAE5 JUMP JUMPDEST DUP2 ADD SUB SLT PUSH2 0x94B JUMPI MLOAD PUSH32 0x85DA6AB72D2B48932522AEA80ADB8CA4FAB6CDEB87BC2E7F6C03FD78D3B2100E PUSH2 0x8AD JUMP JUMPDEST DUP9 DUP1 REVERT JUMPDEST POP RETURNDATASIZE PUSH2 0x912 JUMP JUMPDEST DUP7 MLOAD RETURNDATASIZE DUP12 DUP3 RETURNDATACOPY RETURNDATASIZE SWAP1 REVERT JUMPDEST DUP3 MLOAD PUSH3 0x461BCD PUSH1 0xE5 SHL DUP2 MSTORE SWAP1 DUP2 ADD DUP7 SWAP1 MSTORE PUSH1 0x37 PUSH1 0x24 DUP3 ADD MSTORE PUSH32 0x54726561737572793A204F6E6C7920617574686F72697A656420636F6E747261 PUSH1 0x44 DUP3 ADD MSTORE PUSH32 0x6374732063616E20646973747269627574652066656573000000000000000000 PUSH1 0x64 DUP3 ADD MSTORE PUSH1 0x84 SWAP1 REVERT JUMPDEST POP POP CALLVALUE PUSH2 0x262 JUMPI DUP2 PUSH1 0x3 NOT CALLDATASIZE ADD SLT PUSH2 0x262 JUMPI PUSH1 0x20 SWAP1 MLOAD PUSH1 0x64 DUP2 MSTORE RETURN JUMPDEST DUP5 SWAP1 CALLVALUE PUSH2 0x262 JUMPI DUP2 PUSH1 0x3 NOT CALLDATASIZE ADD SLT PUSH2 0x262 JUMPI PUSH1 0x3 SLOAD PUSH1 0x1 PUSH1 0x1 PUSH1 0xA0 SHL SUB AND DUP2 MSTORE PUSH1 0x20 SWAP1 RETURN JUMPDEST PUSH1 0x4 CALLDATALOAD SWAP1 PUSH1 0x1 PUSH1 0x1 PUSH1 0xA0 SHL SUB DUP3 AND DUP3 SUB PUSH2 0xA20 JUMPI JUMP JUMPDEST PUSH1 0x0 DUP1 REVERT JUMPDEST PUSH1 0x0 SLOAD PUSH1 0x1 PUSH1 0x1 PUSH1 0xA0 SHL SUB AND CALLER SUB PUSH2 0xA39 JUMPI JUMP JUMPDEST PUSH1 0x40 MLOAD PUSH4 0x118CDAA7 PUSH1 0xE0 SHL DUP2 MSTORE CALLER PUSH1 0x4 DUP3 ADD MSTORE PUSH1 0x24 SWAP1 REVERT JUMPDEST SWAP1 PUSH2 0x1F4 SWAP2 DUP3 DUP2 MUL SWAP3 DUP2 DUP5 DIV EQ SWAP1 ISZERO OR ISZERO PUSH2 0xA83 JUMPI PUSH2 0x2710 DUP1 SWAP3 DIV SWAP2 PUSH1 0x64 DUP4 MUL DUP4 DUP2 DIV PUSH1 0x64 EQ DUP5 ISZERO OR ISZERO PUSH2 0xA83 JUMPI DIV SWAP1 JUMP JUMPDEST PUSH4 0x4E487B71 PUSH1 0xE0 SHL PUSH1 0x0 MSTORE PUSH1 0x11 PUSH1 0x4 MSTORE PUSH1 0x24 PUSH1 0x0 REVERT JUMPDEST ISZERO PUSH2 0xAA0 JUMPI JUMP JUMPDEST PUSH1 0x40 MLOAD PUSH3 0x461BCD PUSH1 0xE5 SHL DUP2 MSTORE PUSH1 0x20 PUSH1 0x4 DUP3 ADD MSTORE PUSH1 0x18 PUSH1 0x24 DUP3 ADD MSTORE PUSH32 0x54726561737572793A20496E76616C696420616D6F756E740000000000000000 PUSH1 0x44 DUP3 ADD MSTORE PUSH1 0x64 SWAP1 REVERT JUMPDEST SWAP1 PUSH1 0x1F DUP1 NOT SWAP2 ADD AND DUP2 ADD SWAP1 DUP2 LT PUSH8 0xFFFFFFFFFFFFFFFF DUP3 GT OR PUSH2 0xB07 JUMPI PUSH1 0x40 MSTORE JUMP JUMPDEST PUSH4 0x4E487B71 PUSH1 0xE0 SHL PUSH1 0x0 MSTORE PUSH1 0x41 PUSH1 0x4 MSTORE PUSH1 0x24 PUSH1 0x0 REVERT JUMPDEST ISZERO PUSH2 0xB24 JUMPI JUMP JUMPDEST PUSH1 0x40 MLOAD PUSH3 0x461BCD PUSH1 0xE5 SHL DUP2 MSTORE PUSH1 0x20 PUSH1 0x4 DUP3 ADD MSTORE PUSH1 0x24 DUP1 DUP3 ADD MSTORE PUSH32 0x54726561737572793A20496E73756666696369656E7420746F6B656E2062616C PUSH1 0x44 DUP3 ADD MSTORE PUSH4 0x616E6365 PUSH1 0xE0 SHL PUSH1 0x64 DUP3 ADD MSTORE PUSH1 0x84 SWAP1 REVERT JUMPDEST ISZERO PUSH2 0xB7C JUMPI JUMP JUMPDEST PUSH1 0x40 MLOAD PUSH3 0x461BCD PUSH1 0xE5 SHL DUP2 MSTORE PUSH1 0x20 PUSH1 0x4 DUP3 ADD MSTORE PUSH1 0x22 PUSH1 0x24 DUP3 ADD MSTORE PUSH32 0x54726561737572793A20496E73756666696369656E74204554482062616C616E PUSH1 0x44 DUP3 ADD MSTORE PUSH2 0x6365 PUSH1 0xF0 SHL PUSH1 0x64 DUP3 ADD MSTORE PUSH1 0x84 SWAP1 REVERT JUMPDEST RETURNDATASIZE ISZERO PUSH2 0xC07 JUMPI RETURNDATASIZE SWAP1 PUSH8 0xFFFFFFFFFFFFFFFF DUP3 GT PUSH2 0xB07 JUMPI PUSH1 0x40 MLOAD SWAP2 PUSH2 0xBFB PUSH1 0x1F DUP3 ADD PUSH1 0x1F NOT AND PUSH1 0x20 ADD DUP5 PUSH2 0xAE5 JUMP JUMPDEST DUP3 MSTORE RETURNDATASIZE PUSH1 0x0 PUSH1 0x20 DUP5 ADD RETURNDATACOPY JUMP JUMPDEST PUSH1 0x60 SWAP1 JUMP JUMPDEST PUSH1 0x40 MLOAD PUSH4 0xA9059CBB PUSH1 0xE0 SHL PUSH1 0x20 DUP3 ADD SWAP1 DUP2 MSTORE PUSH1 0x1 PUSH1 0x1 PUSH1 0xA0 SHL SUB SWAP4 DUP5 AND PUSH1 0x24 DUP4 ADD MSTORE PUSH1 0x44 DUP1 DUP4 ADD SWAP6 SWAP1 SWAP6 MSTORE SWAP4 DUP2 MSTORE SWAP1 SWAP3 PUSH1 0x80 DUP3 ADD SWAP1 PUSH8 0xFFFFFFFFFFFFFFFF DUP3 GT DUP4 DUP4 LT OR PUSH2 0xB07 JUMPI PUSH1 0x20 SWAP3 PUSH1 0x0 SWAP3 PUSH1 0x40 MSTORE MLOAD SWAP1 DUP3 DUP7 GAS CALL ISZERO PUSH2 0xCA2 JUMPI PUSH1 0x0 MLOAD RETURNDATASIZE PUSH2 0xC99 JUMPI POP DUP1 DUP3 AND EXTCODESIZE ISZERO JUMPDEST PUSH2 0xC7F JUMPI POP POP JUMP JUMPDEST PUSH1 0x40 MLOAD PUSH4 0x5274AFE7 PUSH1 0xE0 SHL DUP2 MSTORE SWAP2 AND PUSH1 0x4 DUP3 ADD MSTORE PUSH1 0x24 SWAP2 POP REVERT JUMPDEST PUSH1 0x1 EQ ISZERO PUSH2 0xC77 JUMP JUMPDEST PUSH1 0x40 MLOAD RETURNDATASIZE PUSH1 0x0 DUP3 RETURNDATACOPY RETURNDATASIZE SWAP1 REVERT INVALID LOG2 PUSH5 0x6970667358 0x22 SLT KECCAK256 POP DUP9 PUSH31 0x95B4E6C6D555FE88C893BE1E81DA66E9461DD1B432900A1DB77C100D6473 PUSH16 0x6C634300081400330000000000000000 "},"methodIdentifiers":{"PARTNER_FEE_BPS()":"41ee37d1","PLATFORM_FEE_BPS()":"539aa77f","authorizeContract(address)":"67561d93","authorizedContracts(address)":"d5b9221b","calculateFees(uint256)":"52238fdd","deauthorizeContract(address)":"6e861c0e","distributeFees(address,uint256)":"48fef595","marketManager()":"41ed2c12","owner()":"8da5cb5b","partner()":"be10862b","renounceOwnership()":"715018a6","setMarketManager(address)":"d82aff11","setPartner(address)":"a16d5960","transferOwnership(address)":"f2fde38b","withdraw(address,uint256,address)":"69328dec"}}}}}