{"contracts/MarketManager.sol":{"MarketManager":{"abi":[{"inputs":[{"internalType":"address","name":"initialOwner","type":"address"},{"internalType":"address payable","name":"_treasury","type":"address"},{"internalType":"address","name":"_verification","type":"address"},{"internalType":"uint256","name":"_marketCreationFee","type":"uint256"}],"stateMutability":"nonpayable","type":"constructor"},{"inputs":[{"internalType":"address","name":"owner","type":"address"}],"name":"OwnableInvalidOwner","type":"error"},{"inputs":[{"internalType":"address","name":"account","type":"address"}],"name":"OwnableUnauthorizedAccount","type":"error"},{"inputs":[{"internalType":"address","name":"token","type":"address"}],"name":"SafeERC20FailedOperation","type":"error"},{"anonymous":false,"inputs":[{"indexed":true,"internalType":"uint256","name":"marketId","type":"uint256"},{"indexed":true,"internalType":"address","name":"user","type":"address"},{"indexed":false,"internalType":"uint256","name":"option","type":"uint256"},{"indexed":false,"internalType":"uint256","name":"amount","type":"uint256"}],"name":"BetPlaced","type":"event"},{"anonymous":false,"inputs":[{"indexed":true,"internalType":"uint256","name":"marketId","type":"uint256"},{"indexed":false,"internalType":"string","name":"reason","type":"string"}],"name":"MarketCancelled","type":"event"},{"anonymous":false,"inputs":[{"indexed":true,"internalType":"uint256","name":"marketId","type":"uint256"},{"indexed":true,"internalType":"address","name":"creator","type":"address"},{"indexed":false,"internalType":"string","name":"ipfsHash","type":"string"},{"indexed":false,"internalType":"bool","name":"isMultiOption","type":"bool"},{"indexed":false,"internalType":"uint256","name":"maxOptions","type":"uint256"},{"indexed":false,"internalType":"address","name":"paymentToken","type":"address"},{"indexed":false,"internalType":"uint256","name":"minStake","type":"uint256"}],"name":"MarketCreated","type":"event"},{"anonymous":false,"inputs":[{"indexed":true,"internalType":"uint256","name":"marketId","type":"uint256"},{"indexed":false,"internalType":"uint256","name":"endTime","type":"uint256"}],"name":"MarketEnded","type":"event"},{"anonymous":false,"inputs":[{"indexed":true,"internalType":"uint256","name":"marketId","type":"uint256"},{"indexed":false,"internalType":"uint256","name":"winningOption","type":"uint256"}],"name":"MarketResolved","type":"event"},{"anonymous":false,"inputs":[{"indexed":true,"internalType":"address","name":"previousOwner","type":"address"},{"indexed":true,"internalType":"address","name":"newOwner","type":"address"}],"name":"OwnershipTransferred","type":"event"},{"anonymous":false,"inputs":[{"indexed":true,"internalType":"uint256","name":"marketId","type":"uint256"},{"indexed":true,"internalType":"address","name":"user","type":"address"},{"indexed":false,"internalType":"uint256","name":"amount","type":"uint256"}],"name":"RefundClaimed","type":"event"},{"anonymous":false,"inputs":[{"indexed":true,"internalType":"uint256","name":"marketId","type":"uint256"},{"indexed":true,"internalType":"address","name":"user","type":"address"},{"indexed":false,"internalType":"uint256","name":"amount","type":"uint256"}],"name":"WinningsClaimed","type":"event"},{"inputs":[{"internalType":"uint256","name":"","type":"uint256"}],"name":"activeMarkets","outputs":[{"internalType":"uint256","name":"","type":"uint256"}],"stateMutability":"view","type":"function"},{"inputs":[{"internalType":"address","name":"token","type":"address"}],"name":"addSupportedToken","outputs":[],"stateMutability":"nonpayable","type":"function"},{"inputs":[{"internalType":"uint256","name":"marketId","type":"uint256"}],"name":"autoResolve","outputs":[],"stateMutability":"nonpayable","type":"function"},{"inputs":[{"internalType":"address","name":"","type":"address"}],"name":"blacklistedWallets","outputs":[{"internalType":"bool","name":"","type":"bool"}],"stateMutability":"view","type":"function"},{"inputs":[{"internalType":"uint256","name":"marketId","type":"uint256"}],"name":"cancelMarket","outputs":[],"stateMutability":"nonpayable","type":"function"},{"inputs":[{"internalType":"uint256","name":"marketId","type":"uint256"}],"name":"claimRefund","outputs":[],"stateMutability":"nonpayable","type":"function"},{"inputs":[{"internalType":"uint256","name":"marketId","type":"uint256"}],"name":"claimWinnings","outputs":[],"stateMutability":"nonpayable","type":"function"},{"inputs":[{"internalType":"string","name":"ipfsHash","type":"string"},{"internalType":"bool","name":"isMultiOption","type":"bool"},{"internalType":"uint256","name":"maxOptions","type":"uint256"},{"internalType":"address","name":"paymentToken","type":"address"},{"internalType":"uint256","name":"minStake","type":"uint256"},{"internalType":"uint256","name":"creatorDeposit","type":"uint256"},{"internalType":"uint256","name":"creatorOutcome","type":"uint256"},{"internalType":"uint256","name":"durationHours","type":"uint256"}],"name":"createMarket","outputs":[{"internalType":"uint256","name":"","type":"uint256"}],"stateMutability":"payable","type":"function"},{"inputs":[{"internalType":"uint256","name":"marketId","type":"uint256"}],"name":"creatorCancelMarket","outputs":[],"stateMutability":"nonpayable","type":"function"},{"inputs":[{"internalType":"uint256","name":"marketId","type":"uint256"},{"internalType":"string","name":"reason","type":"string"}],"name":"deleteMarket","outputs":[],"stateMutability":"nonpayable","type":"function"},{"inputs":[{"internalType":"uint256","name":"","type":"uint256"}],"name":"deletedMarkets","outputs":[{"internalType":"uint256","name":"","type":"uint256"}],"stateMutability":"view","type":"function"},{"inputs":[{"internalType":"uint256","name":"","type":"uint256"}],"name":"deletionTimestamp","outputs":[{"internalType":"uint256","name":"","type":"uint256"}],"stateMutability":"view","type":"function"},{"inputs":[{"internalType":"uint256","name":"marketId","type":"uint256"}],"name":"endMarket","outputs":[],"stateMutability":"nonpayable","type":"function"},{"inputs":[],"name":"getActiveMarketCount","outputs":[{"internalType":"uint256","name":"","type":"uint256"}],"stateMutability":"view","type":"function"},{"inputs":[],"name":"getActiveMarkets","outputs":[{"internalType":"uint256[]","name":"","type":"uint256[]"}],"stateMutability":"view","type":"function"},{"inputs":[],"name":"getAllMarketIds","outputs":[{"internalType":"uint256[]","name":"","type":"uint256[]"}],"stateMutability":"view","type":"function"},{"inputs":[],"name":"getDeletedMarkets","outputs":[{"internalType":"uint256[]","name":"","type":"uint256[]"}],"stateMutability":"view","type":"function"},{"inputs":[{"internalType":"uint256","name":"marketId","type":"uint256"}],"name":"getMarket","outputs":[{"components":[{"internalType":"address","name":"creator","type":"address"},{"internalType":"string","name":"ipfsHash","type":"string"},{"internalType":"bool","name":"isMultiOption","type":"bool"},{"internalType":"uint256","name":"maxOptions","type":"uint256"},{"internalType":"address","name":"paymentToken","type":"address"},{"internalType":"uint256","name":"minStake","type":"uint256"},{"internalType":"uint256","name":"creatorDeposit","type":"uint256"},{"internalType":"uint256","name":"creatorOutcome","type":"uint256"},{"internalType":"uint256","name":"startTime","type":"uint256"},{"internalType":"uint256","name":"endTime","type":"uint256"},{"internalType":"uint256","name":"resolutionEndTime","type":"uint256"},{"internalType":"enum MarketManager.MarketState","name":"state","type":"uint8"},{"internalType":"uint256","name":"winningOption","type":"uint256"},{"internalType":"bool","name":"isResolved","type":"bool"}],"internalType":"struct MarketManager.Market","name":"","type":"tuple"}],"stateMutability":"view","type":"function"},{"inputs":[],"name":"getMarketsReadyForRemoval","outputs":[{"internalType":"uint256[]","name":"","type":"uint256[]"}],"stateMutability":"view","type":"function"},{"inputs":[],"name":"getNextMarketId","outputs":[{"internalType":"uint256","name":"","type":"uint256"}],"stateMutability":"view","type":"function"},{"inputs":[{"internalType":"uint256","name":"marketId","type":"uint256"},{"internalType":"uint256","name":"option","type":"uint256"}],"name":"getOptionPool","outputs":[{"internalType":"uint256","name":"","type":"uint256"}],"stateMutability":"view","type":"function"},{"inputs":[],"name":"getPermanentlyRemovedMarkets","outputs":[{"internalType":"uint256[]","name":"","type":"uint256[]"}],"stateMutability":"view","type":"function"},{"inputs":[{"internalType":"uint256","name":"marketId","type":"uint256"}],"name":"getTotalPool","outputs":[{"internalType":"uint256","name":"","type":"uint256"}],"stateMutability":"view","type":"function"},{"inputs":[{"internalType":"uint256","name":"marketId","type":"uint256"},{"internalType":"address","name":"user","type":"address"},{"internalType":"uint256","name":"option","type":"uint256"}],"name":"getUserBet","outputs":[{"components":[{"internalType":"uint256","name":"amount","type":"uint256"},{"internalType":"uint256","name":"option","type":"uint256"},{"internalType":"bool","name":"claimed","type":"bool"}],"internalType":"struct MarketManager.UserBet","name":"","type":"tuple"}],"stateMutability":"view","type":"function"},{"inputs":[{"internalType":"address","name":"user","type":"address"}],"name":"getUserMarketHistory","outputs":[{"internalType":"uint256[]","name":"","type":"uint256[]"}],"stateMutability":"view","type":"function"},{"inputs":[{"internalType":"uint256","name":"","type":"uint256"}],"name":"isActiveMarket","outputs":[{"internalType":"bool","name":"","type":"bool"}],"stateMutability":"view","type":"function"},{"inputs":[{"internalType":"uint256","name":"marketId","type":"uint256"}],"name":"isMarketActive","outputs":[{"internalType":"bool","name":"","type":"bool"}],"stateMutability":"view","type":"function"},{"inputs":[],"name":"marketCreationFee","outputs":[{"internalType":"uint256","name":"","type":"uint256"}],"stateMutability":"view","type":"function"},{"inputs":[{"internalType":"uint256","name":"","type":"uint256"}],"name":"markets","outputs":[{"internalType":"address","name":"creator","type":"address"},{"internalType":"string","name":"ipfsHash","type":"string"},{"internalType":"bool","name":"isMultiOption","type":"bool"},{"internalType":"uint256","name":"maxOptions","type":"uint256"},{"internalType":"address","name":"paymentToken","type":"address"},{"internalType":"uint256","name":"minStake","type":"uint256"},{"internalType":"uint256","name":"creatorDeposit","type":"uint256"},{"internalType":"uint256","name":"creatorOutcome","type":"uint256"},{"internalType":"uint256","name":"startTime","type":"uint256"},{"internalType":"uint256","name":"endTime","type":"uint256"},{"internalType":"uint256","name":"resolutionEndTime","type":"uint256"},{"internalType":"enum MarketManager.MarketState","name":"state","type":"uint8"},{"internalType":"uint256","name":"winningOption","type":"uint256"},{"internalType":"bool","name":"isResolved","type":"bool"}],"stateMutability":"view","type":"function"},{"inputs":[],"name":"nextMarketId","outputs":[{"internalType":"uint256","name":"","type":"uint256"}],"stateMutability":"view","type":"function"},{"inputs":[{"internalType":"uint256","name":"","type":"uint256"},{"internalType":"uint256","name":"","type":"uint256"}],"name":"optionPools","outputs":[{"internalType":"uint256","name":"","type":"uint256"}],"stateMutability":"view","type":"function"},{"inputs":[],"name":"owner","outputs":[{"internalType":"address","name":"","type":"address"}],"stateMutability":"view","type":"function"},{"inputs":[{"internalType":"uint256","name":"marketId","type":"uint256"}],"name":"permanentlyRemoveMarket","outputs":[],"stateMutability":"nonpayable","type":"function"},{"inputs":[{"internalType":"uint256","name":"","type":"uint256"}],"name":"permanentlyRemovedMarkets","outputs":[{"internalType":"uint256","name":"","type":"uint256"}],"stateMutability":"view","type":"function"},{"inputs":[{"internalType":"uint256","name":"marketId","type":"uint256"},{"internalType":"uint256","name":"option","type":"uint256"}],"name":"placeBet","outputs":[],"stateMutability":"payable","type":"function"},{"inputs":[{"internalType":"address","name":"token","type":"address"}],"name":"removeSupportedToken","outputs":[],"stateMutability":"nonpayable","type":"function"},{"inputs":[],"name":"renounceOwnership","outputs":[],"stateMutability":"nonpayable","type":"function"},{"inputs":[{"internalType":"uint256","name":"marketId","type":"uint256"},{"internalType":"uint256","name":"_winningOption","type":"uint256"}],"name":"resolveMarket","outputs":[],"stateMutability":"nonpayable","type":"function"},{"inputs":[{"internalType":"uint256","name":"_marketCreationFee","type":"uint256"}],"name":"setMarketCreationFee","outputs":[],"stateMutability":"nonpayable","type":"function"},{"inputs":[{"internalType":"address","name":"wallet","type":"address"},{"internalType":"bool","name":"blacklisted","type":"bool"}],"name":"setWalletBlacklist","outputs":[],"stateMutability":"nonpayable","type":"function"},{"inputs":[{"internalType":"address","name":"","type":"address"}],"name":"supportedTokens","outputs":[{"internalType":"bool","name":"","type":"bool"}],"stateMutability":"view","type":"function"},{"inputs":[{"internalType":"uint256","name":"","type":"uint256"},{"internalType":"address","name":"","type":"address"}],"name":"totalUserStake","outputs":[{"internalType":"uint256","name":"","type":"uint256"}],"stateMutability":"view","type":"function"},{"inputs":[{"internalType":"address","name":"newOwner","type":"address"}],"name":"transferOwnership","outputs":[],"stateMutability":"nonpayable","type":"function"},{"inputs":[],"name":"treasury","outputs":[{"internalType":"address payable","name":"","type":"address"}],"stateMutability":"view","type":"function"},{"inputs":[{"internalType":"uint256","name":"","type":"uint256"},{"internalType":"address","name":"","type":"address"},{"internalType":"uint256","name":"","type":"uint256"}],"name":"userBets","outputs":[{"internalType":"uint256","name":"amount","type":"uint256"},{"internalType":"uint256","name":"option","type":"uint256"},{"internalType":"bool","name":"claimed","type":"bool"}],"stateMutability":"view","type":"function"},{"inputs":[{"internalType":"address","name":"","type":"address"},{"internalType":"uint256","name":"","type":"uint256"}],"name":"userMarketHistory","outputs":[{"internalType":"uint256","name":"","type":"uint256"}],"stateMutability":"view","type":"function"},{"inputs":[],"name":"verification","outputs":[{"internalType":"address","name":"","type":"address"}],"stateMutability":"view","type":"function"},{"stateMutability":"payable","type":"receive"}],"evm":{"bytecode":{"linkReferences":{},"object":"6080346200010657601f620036d138819003918201601f19168301916001600160401b038311848410176200010b5780849260809460405283398101031262000106576200004d8162000121565b60208201516001600160a01b0380821693918490036200010657806060620000786040850162000121565b9301519316918215620000ed576000549460018060a01b03199380858816176000558360405197167f8be0079c531659141344cd1fd0a4f28419497f9722a3daafe3b4186f6b6457e0600080a3600160095583600754161760075516906008541617600855600a5561359a9081620001378239f35b604051631e4fbdf760e01b815260006004820152602490fd5b600080fd5b634e487b7160e01b600052604160045260246000fd5b51906001600160a01b0382168203620001065756fe6080604052600436101561001b575b361561001957600080fd5b005b60003560e01c806307adc191146126b35780630d64cdbd14612682578063157bdcce146125aa5780631c469d301461250b5780632b5ba3b9146124cc5780632ef1bdfa146124ae57806333d6b46e146124365780633a35b9bd146123bf5780633adfe6d014612396578063406ef2ef146102265780634afe62b5146120fa5780634ffe2a8b146120d15780635104996914611f545780635b7baf6414611d555780635da3247a14611d375780636055733314611d2057806361c4cc1514611cbd57806361d027b314611c9457806365ebce5514611c19578063677bd9ff146119c257806368c4ac26146119835780636d69fcaf146118e75780636d8222201461186c578063715018a61461181357806376319190146117d15780637c16cd9e1461170c57806381b17d29146116bb578063881df9e1146116925780638da5cb5b1461166957806398a17671146116115780639f37022a146115f0578063a5e973c314611569578063ad8e42ff1461153d578063b021c44c146110f4578063b1138b50146113c1578063b1283e77146112c6578063b85ed63614611264578063c3436e0c14611127578063c6f3fbcc146110f4578063c8a843b714610ff0578063d6b7a33314610fa3578063db62c6de14610ef4578063eb44fdd314610cd9578063efb2b69014610344578063f2fde38b146102bb578063f849f69e146102495763fe53a6e80361000e575b34610244576000366003190112610244576020600954604051908152f35b600080fd5b3461024457602036600319011261024457600435600052600c60205260ff6040600020541680610281575b6020906040519015158152f35b50600160205260ff600b604060002001541660058110156102a55760041415610274565b634e487b7160e01b600052602160045260246000fd5b34610244576020366003190112610244576102d4612965565b6102dc612c92565b6001600160a01b0390811690811561032b57600054826001600160601b0360a01b821617600055167f8be0079c531659141344cd1fd0a4f28419497f9722a3daafe3b4186f6b6457e0600080a3005b604051631e4fbdf760e01b815260006004820152602490fd5b6101003660031901126102445760043567ffffffffffffffff811161024457610371903690600401612b0f565b610379612c83565b60643591906001600160a01b03831683036102445733600052600660205260ff60406000205416610c8a57815115610c46576002604435101580610c39575b15610be95760843515610ba55760a43515610b515760c435151580610b43575b15610aef57601860e43510610a99578015610a1a576001600160a01b038316156109b7576001600160a01b03831660009081526005602052604090205460ff1615610956575b600a54341061090057610e108060e435029060e43582041460e4351517156108ea5761044a9042612cbe565b916202a300830183116108ea576009549261046484612ccb565b6009556202a3006040519161047883612a98565b3383528360208401528415156040840152604435606084015260018060a01b038716608084015260843560a084015260a43560c084015260c43560e08401524261010084015280610120840152016101408201526000610160820152600061018082015260006101a0820152836000526001602052604060002060018060a01b038251166001600160601b0360a01b825416178155602082015180519067ffffffffffffffff82116108175781906105336001850154612b56565b601f81116108aa575b50602090601f83116001146108385760009261082d575b50508160011b916000199060031b1c19161760018201555b61058a60408301511515600283019060ff801983541691151516179055565b606082015160038201556004810160018060a01b036080840151166001600160601b0360a01b82541617905560a0820151600582015560c0820151600682015560e0820151600782015561010082015160088201556101208201516009820155610140820151600a820155600b810161016083015160058110156102a55761064193600d926101a09260ff80198354169116179055610180810151600c8501550151151591019060ff801983541691151516179055565b600b54600160401b811015610817578361066482600161067d9401600b556129e0565b90919082549060031b91821b91600019901b1916179055565b6000838152600c60205260409020805460ff191660011790556001600160a01b03841661076d576106b260a435600a54612cbe565b3410610728577fe47f69e204f188e4f9df6adc50c9cf0bd76c1cd85f34a8a3e8284064afb4fb8283916020955b6106f46040519260a0845260a0840190612c36565b9415158288015260443560408301526001600160a01b031660608201526084356080820152339381900390a3604051908152f35b60405162461bcd60e51b815260206004820152601f60248201527f4d61726b65744d616e616765723a20496e73756666696369656e7420455448006044820152606490fd5b600a5434106107b95760209383917fe47f69e204f188e4f9df6adc50c9cf0bd76c1cd85f34a8a3e8284064afb4fb82916107b460a43530336001600160a01b038516612cf1565b6106df565b60405162461bcd60e51b815260206004820152603060248201527f4d61726b65744d616e616765723a20496e73756666696369656e74204554482060448201526f666f72206372656174696f6e2066656560801b6064820152608490fd5b634e487b7160e01b600052604160045260246000fd5b015190508880610553565b9250600184016000526020600020906000935b601f198416851061088f576001945083601f19811610610876575b505050811b01600182015561056b565b015160001960f88460031b161c19169055888080610866565b8181015183556020948501946001909301929091019061084b565b6108da90600186016000526020600020601f850160051c810191602086106108e0575b601f0160051c0190612cda565b8961053c565b90915081906108cd565b634e487b7160e01b600052601160045260246000fd5b60405162461bcd60e51b815260206004820152602860248201527f4d61726b65744d616e616765723a20496e73756666696369656e74206372656160448201526774696f6e2066656560c01b6064820152608490fd5b60405162461bcd60e51b815260206004820152603360248201527f4d61726b65744d616e616765723a20546f6b656e206e6f7420737570706f727460448201527232b2103337b91036bab63a3496b7b83a34b7b760691b6064820152608490fd5b60405162461bcd60e51b815260206004820152603560248201527f4d61726b65744d616e616765723a204d756c74692d6f7074696f6e206d61726b60448201527432ba39903932b8bab4b93290281928103a37b5b2b760591b6064820152608490fd5b6001600160a01b0383161561041e576001600160a01b03831660009081526005602052604090205460ff1661041e5760405162461bcd60e51b815260206004820152602260248201527f4d61726b65744d616e616765723a20546f6b656e206e6f7420737570706f7274604482015261195960f21b6064820152608490fd5b60405162461bcd60e51b815260206004820152602860248201527f4d61726b65744d616e616765723a204d696e696d756d20323420686f757273206044820152671c995c5d5a5c995960c21b6064820152608490fd5b60405162461bcd60e51b815260206004820152602660248201527f4d61726b65744d616e616765723a20496e76616c69642063726561746f72206f6044820152657574636f6d6560d01b6064820152608490fd5b5060443560c43511156103d8565b60405162461bcd60e51b815260206004820152602660248201527f4d61726b65744d616e616765723a20496e76616c69642063726561746f722064604482015265195c1bdcda5d60d21b6064820152608490fd5b606460405162461bcd60e51b815260206004820152602060248201527f4d61726b65744d616e616765723a20496e76616c6964206d696e207374616b656044820152fd5b60405162461bcd60e51b815260206004820152602260248201527f4d61726b65744d616e616765723a20496e76616c6964206d6178206f7074696f6044820152616e7360f01b6064820152608490fd5b50600a60443511156103b8565b606460405162461bcd60e51b815260206004820152602060248201527f4d61726b65744d616e616765723a20496e76616c6964204950465320686173686044820152fd5b60405162461bcd60e51b815260206004820152602160248201527f4d61726b65744d616e616765723a2057616c6c657420626c61636b6c697374656044820152601960fa1b6064820152608490fd5b346102445760203660031901126102445760006101a0604051610cfb81612a98565b828152606060208201528260408201528260608201528260808201528260a08201528260c08201528260e0820152826101008201528261012082015282610140820152826101608201528261018082015201526004356000526001602052604060002060405190610d6b82612a98565b80546001600160a01b03168252610d8460018201612b90565b602083015260ff600282015416151560408301526003810154606083015260018060a01b036004820154166080830152600581015460a0830152600681015460c0830152600781015460e083015260088101546101008301526009810154610120830152600a81015461014083015260ff600b8201541660058110156102a55760ff91600d91610160850152600c81015461018085015201541615156101a082015260405180916020825260018060a01b0381511660208301526101a0610e5c60208301516101c060408601526101e0850190612c36565b916040810151151560608501526060810151608085015260018060a01b0360808201511660a085015260a081015160c085015260c081015160e085015260e0810151610100850152610100810151610120850152610120810151610140850152610140810151610160850152610edc610160820151610180860190612c76565b61018081015182850152015115156101c08301520390f35b3461024457604036600319011261024457610f0d612965565b610f15612c83565b90610f1e612c92565b6001600160a01b0316908115610f505761001991600052600660205260406000209060ff801983541691151516179055565b60405162461bcd60e51b815260206004820152602560248201527f4d61726b65744d616e616765723a20496e76616c69642077616c6c6574206164604482015264647265737360d81b6064820152608490fd5b34610244576040366003190112610244576024356001600160a01b038116908190036102445760043560005260046020526040600020906000526020526020604060002054604051908152f35b3461024457600036600319011261024457600e5461100d8161351e565b9060009060005b8181106110675750506110268161351e565b9160005b828110611043576040518061103f86826129a5565b0390f35b806110516110629284613550565b5161105c8287613550565b52612ccb565b61102a565b61107081612a17565b90549060031b1c8060005260206001815260ff600b604060002001541660058110156102a55760041490816110cf575b506110b5575b506110b090612ccb565b611014565b836110c89161105c6110b0949688613550565b92906110a6565b600f9150826000525260406000205462278d0081018091116108ea57421015866110a0565b346102445761110236612a66565b9060005260026020526040600020906000526020526020604060002054604051908152f35b3461024457602036600319011261024457600435600081815260016020526040902080546001600160a01b031633036112105760ff600b820154169060058210156102a55761117860099215612da2565b015461a8bf1981019081116108ea574210156111c1576040516100199161119e82612ab5565b601182527010dc99585d1bdc8818d85b98d95b1b1959607a1b6020830152613166565b60405162461bcd60e51b815260206004820152602160248201527f4d61726b65744d616e616765723a20546f6f206c61746520746f2063616e63656044820152601b60fa1b6064820152608490fd5b60405162461bcd60e51b815260206004820152602660248201527f4d61726b65744d616e616765723a204f6e6c792063726561746f722063616e2060448201526518d85b98d95b60d21b6064820152608490fd5b3461024457600036600319011261024457600954600019908181018181116108ea5761128f9061351e565b9160015b8281106112a8576040518061103f86826129a5565b818101908082116108ea578061105c6112c19387613550565b611293565b346102445760203660031901126102445760043560005260016020526040600020600160a01b600190039081815416906001810161130390612b90565b92600282015460ff1691600381015491600482015416600582015460068301546007840154600885015490600986015492600a87015494600b88015460ff1696600c89015498600d015460ff1699604051809e819e82526101c0806020840152820161136e91612c36565b9c1515906040015260608d015260808c015260a08b015260c08a015260e089015261010088015261012087015261014086015261016085016113af91612c76565b61018084015215156101a08301520390f35b34610244576020366003190112610244576004358060005260016020526040600020600b81019081549160ff83169060058210156102a557611407600160249314612ded565b600d830192835461141b60ff821615612e4a565b60085460408051633313865560e21b8152600481018a905295909186919082906001600160a01b03165afa938415611531576000906000956114fd575b50156114ac577f6dfc24f0f2fb42e49fb4fa3ffa8abb148cab908a1fb8335b3f128a08b2594af19560209585600c6002950155600160ff19809416179055161790556114a3846131c1565b604051908152a2005b60405162461bcd60e51b8152602060048201526024808201527f4d61726b65744d616e616765723a204e6f207265736f6c7574696f6e2072656160448201526318da195960e21b6064820152608490fd5b905061152291945060403d60401161152a575b61151a8183612ad1565b810190612ecf565b939088611458565b503d611510565b6040513d6000823e3d90fd5b3461024457602036600319011261024457600435600052600f6020526020604060002054604051908152f35b346102445760003660031901126102445760405180600b5491828152602080910192600b6000527f0175b7a638427703f0dbe7bb9bbf987a2551717b34e79f33b5b1008d1fa01db9916000905b8282106115d95761103f856115cd81890382612ad1565b604051918291826129a5565b8354865294850194600193840193909101906115b6565b3461024457602036600319011261024457611609612c92565b600435600a55005b346102445760403660031901126102445761162a612965565b6001600160a01b03166000908152600d60205260409020805460243591908210156102445760209161165b91612a4e565b90546040519160031b1c8152f35b34610244576000366003190112610244576000546040516001600160a01b039091168152602090f35b3461024457602036600319011261024457600435600e548110156102445761165b602091612a17565b34610244576020366003190112610244576004356010548110156102445760209060106000527f1b6847dc741a1b0cd08d278845f9d819d87b734759afb55fe2de5cb82a9ae6720154604051908152f35b346102445760203660031901126102445760043580600052600160205260406000209060ff600b8301541660058110156102a557600161174c9114612ded565b600a82015442106117795761176b60ff600d6100199401541615612e4a565b611773612e96565b90613166565b60405162461bcd60e51b815260206004820152602a60248201527f4d61726b65744d616e616765723a205265736f6c7574696f6e20706572696f64604482015269081b9bdd08195b99195960b21b6064820152608490fd5b34610244576020366003190112610244576117ea612965565b6117f2612c92565b6001600160a01b03166000908152600560205260409020805460ff19169055005b346102445760003660031901126102445761182c612c92565b600080546001600160a01b0319811682556001600160a01b03167f8be0079c531659141344cd1fd0a4f28419497f9722a3daafe3b4186f6b6457e08280a3005b3461024457600036600319011261024457604051806010549182815260208091019260106000527f1b6847dc741a1b0cd08d278845f9d819d87b734759afb55fe2de5cb82a9ae672916000905b8282106118d05761103f856115cd81890382612ad1565b8354865294850194600193840193909101906118b9565b3461024457602036600319011261024457611900612965565b611908612c92565b6001600160a01b03168015611932576000908152600560205260409020805460ff19166001179055005b60405162461bcd60e51b8152602060048201526024808201527f4d61726b65744d616e616765723a20496e76616c696420746f6b656e206164646044820152637265737360e01b6064820152608490fd5b34610244576020366003190112610244576001600160a01b036119a4612965565b166000526005602052602060ff604060002054166040519015158152f35b346102445760208060031936011261024457600435806000526001825260406000209160ff600b8401541660058110156102a5576002611a02911461310f565b600c83019081548015611bd65783600052600382526040600020336000528252604060002081600052825260406000205415611b915783600052600382526040600020336000528252604060002081600052825260ff60026040600020015416611b4c578360005260038252604060002033600052825260406000209060005281526002604060002001600160ff198254161790558260005260028152604060002091549182600052815260406000205491836000526003825260406000203360005282526040600020906000528152604060002054828102908082048414901517156108ea578215611b36577f5380cf6fe903b40c6d5a9e0dfbca2f3a423f0a21520b4d5947ed5169bdba946d92611b2b910494600460018060a01b039101541685336132c9565b6040519384523393a3005b634e487b7160e01b600052601260045260246000fd5b60405162461bcd60e51b815260048101839052601e60248201527f4d61726b65744d616e616765723a20416c726561647920636c61696d656400006044820152606490fd5b60405162461bcd60e51b815260048101839052601d60248201527f4d61726b65744d616e616765723a204e6f2077696e6e696e67206265740000006044820152606490fd5b6064826040519062461bcd60e51b825280600483015260248201527f4d61726b65744d616e616765723a204e6f2077696e6e696e67206f7074696f6e6044820152fd5b346102445760003660031901126102445760405180600e5491828152602080910192600e6000527fbb7b4a454dc3493923482f07822329ed19e8244eff582cc204f8554c3620c3fd916000905b828210611c7d5761103f856115cd81890382612ad1565b835486529485019460019384019390910190611c66565b34610244576000366003190112610244576007546040516001600160a01b039091168152602090f35b3461024457611ccb3661297b565b91600052600360205260406000209060018060a01b03166000526020526040600020906000526020526060604060002080549060ff600260018301549201541690604051928352602083015215156040820152f35b3461024457610019611d3136612a66565b90612eef565b34610244576000366003190112610244576020600b54604051908152f35b34610244576020806003193601126102445760043580600052600191828152604060002060ff600b8201541660058110156102a5576003809103611f03578360005260048352604060002033600052835260406000205415611eb45793836000526004835260406000203360005283526040600020549484600052600484526040600020336000528452600060408120558180828501915b611e2e575b87877ff3f402280ef0a7905e124aa621b65eaeb2725c343e8b36d398ed78c29daf285c88611b2b89600460018060a01b039101541685336132c9565b81548111611eaf5790611ea7849392611ea2604051611e4c81612a7c565b6000815260028a82016000815260408301908982528d600052888d526040600020336000528d526040600020866000528d52604060002093518455518984015551151591019060ff801983541691151516179055565b612ccb565b909192611ded565b611df2565b60405162461bcd60e51b815260048101849052602160248201527f4d61726b65744d616e616765723a204e6f207374616b6520746f20726566756e6044820152601960fa1b6064820152608490fd5b60405162461bcd60e51b815260048101849052602360248201527f4d61726b65744d616e616765723a204d61726b6574206e6f742063616e63656c6044820152621b195960ea1b6064820152608490fd5b346102445760403660031901126102445760043560243567ffffffffffffffff811161024457611f88903690600401612b0f565b611f90612c92565b611f9d60095483106133a9565b8160005260209060018252611fc060018060a01b036040600020541615156133f4565b826000526001825260ff600b604060002001541660058110156102a55760041461208c578260005260018252600b604060002001600460ff19825416179055600f825242604060002055600e5491600160401b8310156108175761204f846106648560017f4c4561c5b0048424071c1115e9f1e325486e21c21333d968f21097b7b72d12ad9701600e55612a17565b83600052600c815260ff6040600020541661207e575b612079604051928284938452830190612c36565b0390a2005b6120878461344c565b612065565b60405162461bcd60e51b815260048101839052601e60248201527f4d61726b65744d616e616765723a20416c72656164792064656c6574656400006044820152606490fd5b34610244576000366003190112610244576008546040516001600160a01b039091168152602090f35b61210336612a66565b908060005260206001815260406000209060ff600b8301541660058110156102a55761212f9015612da2565b60098201544210156123465783151580612338575b156122f45760048201546001600160a01b0316806122dc5750600534925b0154821061228d578260005260038152604060002033600052815260406000208460005281526040600020612198838254612cbe565b9055826000526003815260406000203360005281526040600020846000528152836001604060002001558260005260048152604060002033600052815260406000206121e5838254612cbe565b905582600052600481526040600020336000528152816040600020541461225d575b82600052600281526040600020846000528152604060002061222a838254612cbe565b90556040519384528301527f1b8a9031cb9351278d70a994f81536e9e08c91162e64f92b2fe4766fb7a891b460403393a3005b600d815260406000208054600160401b81101561081757610664816122889360018894018155612a4e565b612207565b6084906040519062461bcd60e51b82526004820152602260248201527f4d61726b65744d616e616765723a2042656c6f77206d696e696d756d207374616044820152616b6560f01b6064820152fd5b916005906122ef34809530903390612cf1565b612162565b6064906040519062461bcd60e51b82526004820152601d60248201527f4d61726b65744d616e616765723a20496e76616c6964206f7074696f6e0000006044820152fd5b506003820154841115612144565b6084906040519062461bcd60e51b82526004820152602360248201527f4d61726b65744d616e616765723a2042657474696e6720706572696f6420656e60448201526219195960ea1b6064820152fd5b3461024457602036600319011261024457600435600b548110156102445761165b6020916129e0565b3461024457602080600319360112610244576004358060005260018252604060002060009160036001920154905b8183111561240057505050604051908152f35b90919261242961242f918360005260028752604060002086600052875260406000205490612cbe565b93612ccb565b91906123ed565b3461024457602080600319360112610244576001600160a01b03612458612965565b16600052600d8152604060002090604051908181845491828152019360005281600020916000905b8282106124975761103f856115cd81890382612ad1565b835486529485019460019384019390910190612480565b34610244576000366003190112610244576020600a54604051908152f35b34610244576020366003190112610244576001600160a01b036124ed612965565b166000526006602052602060ff604060002054166040519015158152f35b3461024457606061251b3661297b565b906040519261252984612a7c565b6000845260006040602095828782015201526000526003835260406000209060018060a01b0316600052825260406000209060005281526040600020906040519061257382612a7c565b825492838352604060ff60026001840154938587019485520154169301921515835260405193845251908301525115156040820152f35b34610244576020366003190112610244576004358060005260016020526040600020600b81019081549060ff82169060058210156102a5576125ee60099215612da2565b015480421061262d577e0b6feae4bec70344a7d0e99f4c0237adaaeee2fbb258266be400bd8612a33292600160209360ff1916179055604051908152a2005b60405162461bcd60e51b815260206004820152602760248201527f4d61726b65744d616e616765723a2042657474696e6720706572696f64206e6f6044820152661d08195b99195960ca1b6064820152608490fd5b3461024457602036600319011261024457600435600052600c602052602060ff604060002054166040519015158152f35b346102445760208060031936011261024457600435906126d1612c92565b6126de60095483106133a9565b60008281526001808352604090912054612702906001600160a01b031615156133f4565b8260005280825260ff600b604060002001541660058110156102a55761272b600280921461310f565b83600052818352600a90816040600020015462278d0081018091116108ea57421061291257846000528284526000600d6040822082815585810161276f8154612b56565b90816128d7575b50508284820155826003820155826004820155826005820155826006820155826007820155826008820155826009820155828582015582600b82015582600c8201550155825b828111156128b05750505082600052600c825260ff604060002054166128a2575b60105490600160401b8210156108175781018060105581101561288c577f4c4561c5b0048424071c1115e9f1e325486e21c21333d968f21097b7b72d12ad918360809260106000527f1b6847dc741a1b0cd08d278845f9d819d87b734759afb55fe2de5cb82a9ae67201556026604051918083528201527f5065726d616e656e746c792072656d6f76656420616674657220636c61696d206040820152651c195c9a5bd960d21b6060820152a2005b634e487b7160e01b600052603260045260246000fd5b6128ab8361344c565b6127dd565b6128d29086600052828652604060002081600052865260006040812055612ccb565b6127bc565b81601f8693116001146128ee5750555b8880612776565b90808391825261290b601f8c8420940160051c84018b8501612cda565b55556128e7565b60405162461bcd60e51b815260048101859052602560248201527f4d61726b65744d616e616765723a20436c61696d20706572696f64206e6f7420604482015264195b99195960da1b6064820152608490fd5b600435906001600160a01b038216820361024457565b606090600319011261024457600435906024356001600160a01b0381168103610244579060443590565b6020908160408183019282815285518094520193019160005b8281106129cc575050505090565b8351855293810193928101926001016129be565b600b5481101561288c57600b6000527f0175b7a638427703f0dbe7bb9bbf987a2551717b34e79f33b5b1008d1fa01db90190600090565b600e5481101561288c57600e6000527fbb7b4a454dc3493923482f07822329ed19e8244eff582cc204f8554c3620c3fd0190600090565b805482101561288c5760005260206000200190600090565b6040906003190112610244576004359060243590565b6060810190811067ffffffffffffffff82111761081757604052565b6101c0810190811067ffffffffffffffff82111761081757604052565b6040810190811067ffffffffffffffff82111761081757604052565b90601f8019910116810190811067ffffffffffffffff82111761081757604052565b67ffffffffffffffff811161081757601f01601f191660200190565b81601f8201121561024457803590612b2682612af3565b92612b346040519485612ad1565b8284526020838301011161024457816000926020809301838601378301015290565b90600182811c92168015612b86575b6020831014612b7057565b634e487b7160e01b600052602260045260246000fd5b91607f1691612b65565b9060405191826000825492612ba484612b56565b908184526001948581169081600014612c135750600114612bd0575b5050612bce92500383612ad1565b565b9093915060005260209081600020936000915b818310612bfb575050612bce93508201013880612bc0565b85548884018501529485019487945091830191612be3565b915050612bce94506020925060ff191682840152151560051b8201013880612bc0565b919082519283825260005b848110612c62575050826000602080949584010152601f8019910116010190565b602081830181015184830182015201612c41565b9060058210156102a55752565b60243590811515820361024457565b6000546001600160a01b03163303612ca657565b60405163118cdaa760e01b8152336004820152602490fd5b919082018092116108ea57565b60001981146108ea5760010190565b818110612ce5575050565b60008155600101612cda565b6040516323b872dd60e01b60208201526001600160a01b03928316602482015292909116604483015260648083019390935291815260a081019181831067ffffffffffffffff84111761081757612bce926040525b906000602091828151910182855af115611531576000513d612d9957506001600160a01b0381163b155b612d775750565b604051635274afe760e01b81526001600160a01b039091166004820152602490fd5b60011415612d70565b15612da957565b606460405162461bcd60e51b815260206004820152602060248201527f4d61726b65744d616e616765723a204d61726b6574206e6f74206163746976656044820152fd5b15612df457565b60405162461bcd60e51b815260206004820152602860248201527f4d61726b65744d616e616765723a204d61726b6574206e6f7420696e20656e64604482015267656420737461746560c01b6064820152608490fd5b15612e5157565b60405162461bcd60e51b815260206004820152601f60248201527f4d61726b65744d616e616765723a20416c7265616479207265736f6c766564006044820152606490fd5b60405190612ea382612ab5565b601982527f5265736f6c7574696f6e20706572696f642065787069726564000000000000006020830152565b919082604091031261024457815180151581036102445760209092015190565b906000828152600160205260409081812090600b82019160ff83541660058110156130fb576001612f209114612ded565b841515806130ed575b1561309b57600d810191612f4160ff84541615612e4a565b600a820154421015613089576008548551633313865560e21b815260048101899052908690829060249082906001600160a01b03165afa90811561307f57908791839161305c575b5082613052575b505015612fe857600c01849055805460ff1990811660011790915581541660021790557f6dfc24f0f2fb42e49fb4fa3ffa8abb148cab908a1fb8335b3f128a08b2594af191602091612fe1856131c1565b51908152a2565b835162461bcd60e51b815260206004820152603a60248201527f4d61726b65744d616e616765723a20496e73756666696369656e74207665726960448201527f6669657220766f74657320666f722074686973206f7074696f6e0000000000006064820152608490fd5b1490508538612f90565b9050613076919250863d881161152a5761151a8183612ad1565b91909138612f89565b86513d84823e3d90fd5b505050505050612bce90611773612e96565b835162461bcd60e51b815260206004820152602560248201527f4d61726b65744d616e616765723a20496e76616c69642077696e6e696e67206f604482015264383a34b7b760d91b6064820152608490fd5b506003810154851115612f29565b634e487b7160e01b83526021600452602483fd5b1561311657565b60405162461bcd60e51b815260206004820152602260248201527f4d61726b65744d616e616765723a204d61726b6574206e6f74207265736f6c76604482015261195960f21b6064820152608490fd5b906131bc7f4c4561c5b0048424071c1115e9f1e325486e21c21333d968f21097b7b72d12ad91836000526001602052600b604060002001600360ff19825416179055604051918291602083526020830190612c36565b0390a2565b906000828152602090600182526040918282209082956001916003840154915b828411156132975750505050846131fa575b5050509050565b60018060a01b036004816007541692015416813b156132935783516348fef59560e01b81526001600160a01b03919091166004820152602481019590955292939281908490604490829084905af180156132875761325a575b83926131f3565b67ffffffffffffffff8311613273575052388080613253565b634e487b7160e01b81526041600452602490fd5b509051903d90823e3d90fd5b8280fd5b909192976132bb6132c191838852600285528888208b895285528888205490612cbe565b98612ccb565b9291906131e1565b90916001600160a01b0316806133685750600080809381935af13d15613363573d6132f381612af3565b906133016040519283612ad1565b8152600060203d92013e5b1561331357565b60405162461bcd60e51b815260206004820152602260248201527f4d61726b65744d616e616765723a20455448207472616e73666572206661696c604482015261195960f21b6064820152608490fd5b61330c565b60405163a9059cbb60e01b60208201526001600160a01b03929092166024830152604480830193909352918152612bce916133a4606483612ad1565b612d46565b156133b057565b606460405162461bcd60e51b815260206004820152602060248201527f4d61726b65744d616e616765723a20496e76616c6964206d61726b65742049446044820152fd5b156133fb57565b60405162461bcd60e51b8152602060048201526024808201527f4d61726b65744d616e616765723a204d61726b657420646f6573206e6f7420656044820152631e1a5cdd60e21b6064820152608490fd5b60005b600b9081549182821015613500578392613468836129e0565b949054600395861b1c146134875750506134829150612ccb565b61344f565b909160001991808301919082116108ea576106646134a76134b3936129e0565b905490871b1c916129e0565b815480156134ea578101926134c7846129e0565b81939154921b1b1916905555600052600c602052604060002060ff198154169055565b634e487b7160e01b600052603160045260246000fd5b50505050565b67ffffffffffffffff81116108175760051b60200190565b9061352882613506565b6135356040519182612ad1565b8281528092613546601f1991613506565b0190602036910137565b805182101561288c5760209160051b01019056fea2646970667358221220da70fb754f7546fa2340a36f3e15205c57e4dab75c1db8bbdcd0ac2b98a03b3164736f6c63430008140033","opcodes":"PUSH1 0x80 CALLVALUE PUSH3 0x106 JUMPI PUSH1 0x1F PUSH3 0x36D1 CODESIZE DUP2 SWAP1 SUB SWAP2 DUP3 ADD PUSH1 0x1F NOT AND DUP4 ADD SWAP2 PUSH1 0x1 PUSH1 0x1 PUSH1 0x40 SHL SUB DUP4 GT DUP5 DUP5 LT OR PUSH3 0x10B JUMPI DUP1 DUP5 SWAP3 PUSH1 0x80 SWAP5 PUSH1 0x40 MSTORE DUP4 CODECOPY DUP2 ADD SUB SLT PUSH3 0x106 JUMPI PUSH3 0x4D DUP2 PUSH3 0x121 JUMP JUMPDEST PUSH1 0x20 DUP3 ADD MLOAD PUSH1 0x1 PUSH1 0x1 PUSH1 0xA0 SHL SUB DUP1 DUP3 AND SWAP4 SWAP2 DUP5 SWAP1 SUB PUSH3 0x106 JUMPI DUP1 PUSH1 0x60 PUSH3 0x78 PUSH1 0x40 DUP6 ADD PUSH3 0x121 JUMP JUMPDEST SWAP4 ADD MLOAD SWAP4 AND SWAP2 DUP3 ISZERO PUSH3 0xED JUMPI PUSH1 0x0 SLOAD SWAP5 PUSH1 0x1 DUP1 PUSH1 0xA0 SHL SUB NOT SWAP4 DUP1 DUP6 DUP9 AND OR PUSH1 0x0 SSTORE DUP4 PUSH1 0x40 MLOAD SWAP8 AND PUSH32 0x8BE0079C531659141344CD1FD0A4F28419497F9722A3DAAFE3B4186F6B6457E0 PUSH1 0x0 DUP1 LOG3 PUSH1 0x1 PUSH1 0x9 SSTORE DUP4 PUSH1 0x7 SLOAD AND OR PUSH1 0x7 SSTORE AND SWAP1 PUSH1 0x8 SLOAD AND OR PUSH1 0x8 SSTORE PUSH1 0xA SSTORE PUSH2 0x359A SWAP1 DUP2 PUSH3 0x137 DUP3 CODECOPY RETURN JUMPDEST PUSH1 0x40 MLOAD PUSH4 0x1E4FBDF7 PUSH1 0xE0 SHL DUP2 MSTORE PUSH1 0x0 PUSH1 0x4 DUP3 ADD MSTORE PUSH1 0x24 SWAP1 REVERT JUMPDEST PUSH1 0x0 DUP1 REVERT JUMPDEST PUSH4 0x4E487B71 PUSH1 0xE0 SHL PUSH1 0x0 MSTORE PUSH1 0x41 PUSH1 0x4 MSTORE PUSH1 0x24 PUSH1 0x0 REVERT JUMPDEST MLOAD SWAP1 PUSH1 0x1 PUSH1 0x1 PUSH1 0xA0 SHL SUB DUP3 AND DUP3 SUB PUSH3 0x106 JUMPI JUMP INVALID PUSH1 0x80 PUSH1 0x40 MSTORE PUSH1 0x4 CALLDATASIZE LT ISZERO PUSH2 0x1B JUMPI JUMPDEST CALLDATASIZE ISZERO PUSH2 0x19 JUMPI PUSH1 0x0 DUP1 REVERT JUMPDEST STOP JUMPDEST PUSH1 0x0 CALLDATALOAD PUSH1 0xE0 SHR DUP1 PUSH4 0x7ADC191 EQ PUSH2 0x26B3 JUMPI DUP1 PUSH4 0xD64CDBD EQ PUSH2 0x2682 JUMPI DUP1 PUSH4 0x157BDCCE EQ PUSH2 0x25AA JUMPI DUP1 PUSH4 0x1C469D30 EQ PUSH2 0x250B JUMPI DUP1 PUSH4 0x2B5BA3B9 EQ PUSH2 0x24CC JUMPI DUP1 PUSH4 0x2EF1BDFA EQ PUSH2 0x24AE JUMPI DUP1 PUSH4 0x33D6B46E EQ PUSH2 0x2436 JUMPI DUP1 PUSH4 0x3A35B9BD EQ PUSH2 0x23BF JUMPI DUP1 PUSH4 0x3ADFE6D0 EQ PUSH2 0x2396 JUMPI DUP1 PUSH4 0x406EF2EF EQ PUSH2 0x226 JUMPI DUP1 PUSH4 0x4AFE62B5 EQ PUSH2 0x20FA JUMPI DUP1 PUSH4 0x4FFE2A8B EQ PUSH2 0x20D1 JUMPI DUP1 PUSH4 0x51049969 EQ PUSH2 0x1F54 JUMPI DUP1 PUSH4 0x5B7BAF64 EQ PUSH2 0x1D55 JUMPI DUP1 PUSH4 0x5DA3247A EQ PUSH2 0x1D37 JUMPI DUP1 PUSH4 0x60557333 EQ PUSH2 0x1D20 JUMPI DUP1 PUSH4 0x61C4CC15 EQ PUSH2 0x1CBD JUMPI DUP1 PUSH4 0x61D027B3 EQ PUSH2 0x1C94 JUMPI DUP1 PUSH4 0x65EBCE55 EQ PUSH2 0x1C19 JUMPI DUP1 PUSH4 0x677BD9FF EQ PUSH2 0x19C2 JUMPI DUP1 PUSH4 0x68C4AC26 EQ PUSH2 0x1983 JUMPI DUP1 PUSH4 0x6D69FCAF EQ PUSH2 0x18E7 JUMPI DUP1 PUSH4 0x6D822220 EQ PUSH2 0x186C JUMPI DUP1 PUSH4 0x715018A6 EQ PUSH2 0x1813 JUMPI DUP1 PUSH4 0x76319190 EQ PUSH2 0x17D1 JUMPI DUP1 PUSH4 0x7C16CD9E EQ PUSH2 0x170C JUMPI DUP1 PUSH4 0x81B17D29 EQ PUSH2 0x16BB JUMPI DUP1 PUSH4 0x881DF9E1 EQ PUSH2 0x1692 JUMPI DUP1 PUSH4 0x8DA5CB5B EQ PUSH2 0x1669 JUMPI DUP1 PUSH4 0x98A17671 EQ PUSH2 0x1611 JUMPI DUP1 PUSH4 0x9F37022A EQ PUSH2 0x15F0 JUMPI DUP1 PUSH4 0xA5E973C3 EQ PUSH2 0x1569 JUMPI DUP1 PUSH4 0xAD8E42FF EQ PUSH2 0x153D JUMPI DUP1 PUSH4 0xB021C44C EQ PUSH2 0x10F4 JUMPI DUP1 PUSH4 0xB1138B50 EQ PUSH2 0x13C1 JUMPI DUP1 PUSH4 0xB1283E77 EQ PUSH2 0x12C6 JUMPI DUP1 PUSH4 0xB85ED636 EQ PUSH2 0x1264 JUMPI DUP1 PUSH4 0xC3436E0C EQ PUSH2 0x1127 JUMPI DUP1 PUSH4 0xC6F3FBCC EQ PUSH2 0x10F4 JUMPI DUP1 PUSH4 0xC8A843B7 EQ PUSH2 0xFF0 JUMPI DUP1 PUSH4 0xD6B7A333 EQ PUSH2 0xFA3 JUMPI DUP1 PUSH4 0xDB62C6DE EQ PUSH2 0xEF4 JUMPI DUP1 PUSH4 0xEB44FDD3 EQ PUSH2 0xCD9 JUMPI DUP1 PUSH4 0xEFB2B690 EQ PUSH2 0x344 JUMPI DUP1 PUSH4 0xF2FDE38B EQ PUSH2 0x2BB JUMPI DUP1 PUSH4 0xF849F69E EQ PUSH2 0x249 JUMPI PUSH4 0xFE53A6E8 SUB PUSH2 0xE JUMPI JUMPDEST CALLVALUE PUSH2 0x244 JUMPI PUSH1 0x0 CALLDATASIZE PUSH1 0x3 NOT ADD SLT PUSH2 0x244 JUMPI PUSH1 0x20 PUSH1 0x9 SLOAD PUSH1 0x40 MLOAD SWAP1 DUP2 MSTORE RETURN JUMPDEST PUSH1 0x0 DUP1 REVERT JUMPDEST CALLVALUE PUSH2 0x244 JUMPI PUSH1 0x20 CALLDATASIZE PUSH1 0x3 NOT ADD SLT PUSH2 0x244 JUMPI PUSH1 0x4 CALLDATALOAD PUSH1 0x0 MSTORE PUSH1 0xC PUSH1 0x20 MSTORE PUSH1 0xFF PUSH1 0x40 PUSH1 0x0 KECCAK256 SLOAD AND DUP1 PUSH2 0x281 JUMPI JUMPDEST PUSH1 0x20 SWAP1 PUSH1 0x40 MLOAD SWAP1 ISZERO ISZERO DUP2 MSTORE RETURN JUMPDEST POP PUSH1 0x1 PUSH1 0x20 MSTORE PUSH1 0xFF PUSH1 0xB PUSH1 0x40 PUSH1 0x0 KECCAK256 ADD SLOAD AND PUSH1 0x5 DUP2 LT ISZERO PUSH2 0x2A5 JUMPI PUSH1 0x4 EQ ISZERO PUSH2 0x274 JUMP JUMPDEST PUSH4 0x4E487B71 PUSH1 0xE0 SHL PUSH1 0x0 MSTORE PUSH1 0x21 PUSH1 0x4 MSTORE PUSH1 0x24 PUSH1 0x0 REVERT JUMPDEST CALLVALUE PUSH2 0x244 JUMPI PUSH1 0x20 CALLDATASIZE PUSH1 0x3 NOT ADD SLT PUSH2 0x244 JUMPI PUSH2 0x2D4 PUSH2 0x2965 JUMP JUMPDEST PUSH2 0x2DC PUSH2 0x2C92 JUMP JUMPDEST PUSH1 0x1 PUSH1 0x1 PUSH1 0xA0 SHL SUB SWAP1 DUP2 AND SWAP1 DUP2 ISZERO PUSH2 0x32B JUMPI PUSH1 0x0 SLOAD DUP3 PUSH1 0x1 PUSH1 0x1 PUSH1 0x60 SHL SUB PUSH1 0xA0 SHL DUP3 AND OR PUSH1 0x0 SSTORE AND PUSH32 0x8BE0079C531659141344CD1FD0A4F28419497F9722A3DAAFE3B4186F6B6457E0 PUSH1 0x0 DUP1 LOG3 STOP JUMPDEST PUSH1 0x40 MLOAD PUSH4 0x1E4FBDF7 PUSH1 0xE0 SHL DUP2 MSTORE PUSH1 0x0 PUSH1 0x4 DUP3 ADD MSTORE PUSH1 0x24 SWAP1 REVERT JUMPDEST PUSH2 0x100 CALLDATASIZE PUSH1 0x3 NOT ADD SLT PUSH2 0x244 JUMPI PUSH1 0x4 CALLDATALOAD PUSH8 0xFFFFFFFFFFFFFFFF DUP2 GT PUSH2 0x244 JUMPI PUSH2 0x371 SWAP1 CALLDATASIZE SWAP1 PUSH1 0x4 ADD PUSH2 0x2B0F JUMP JUMPDEST PUSH2 0x379 PUSH2 0x2C83 JUMP JUMPDEST PUSH1 0x64 CALLDATALOAD SWAP2 SWAP1 PUSH1 0x1 PUSH1 0x1 PUSH1 0xA0 SHL SUB DUP4 AND DUP4 SUB PUSH2 0x244 JUMPI CALLER PUSH1 0x0 MSTORE PUSH1 0x6 PUSH1 0x20 MSTORE PUSH1 0xFF PUSH1 0x40 PUSH1 0x0 KECCAK256 SLOAD AND PUSH2 0xC8A JUMPI DUP2 MLOAD ISZERO PUSH2 0xC46 JUMPI PUSH1 0x2 PUSH1 0x44 CALLDATALOAD LT ISZERO DUP1 PUSH2 0xC39 JUMPI JUMPDEST ISZERO PUSH2 0xBE9 JUMPI PUSH1 0x84 CALLDATALOAD ISZERO PUSH2 0xBA5 JUMPI PUSH1 0xA4 CALLDATALOAD ISZERO PUSH2 0xB51 JUMPI PUSH1 0xC4 CALLDATALOAD ISZERO ISZERO DUP1 PUSH2 0xB43 JUMPI JUMPDEST ISZERO PUSH2 0xAEF JUMPI PUSH1 0x18 PUSH1 0xE4 CALLDATALOAD LT PUSH2 0xA99 JUMPI DUP1 ISZERO PUSH2 0xA1A JUMPI PUSH1 0x1 PUSH1 0x1 PUSH1 0xA0 SHL SUB DUP4 AND ISZERO PUSH2 0x9B7 JUMPI PUSH1 0x1 PUSH1 0x1 PUSH1 0xA0 SHL SUB DUP4 AND PUSH1 0x0 SWAP1 DUP2 MSTORE PUSH1 0x5 PUSH1 0x20 MSTORE PUSH1 0x40 SWAP1 KECCAK256 SLOAD PUSH1 0xFF AND ISZERO PUSH2 0x956 JUMPI JUMPDEST PUSH1 0xA SLOAD CALLVALUE LT PUSH2 0x900 JUMPI PUSH2 0xE10 DUP1 PUSH1 0xE4 CALLDATALOAD MUL SWAP1 PUSH1 0xE4 CALLDATALOAD DUP3 DIV EQ PUSH1 0xE4 CALLDATALOAD ISZERO OR ISZERO PUSH2 0x8EA JUMPI PUSH2 0x44A SWAP1 TIMESTAMP PUSH2 0x2CBE JUMP JUMPDEST SWAP2 PUSH3 0x2A300 DUP4 ADD DUP4 GT PUSH2 0x8EA JUMPI PUSH1 0x9 SLOAD SWAP3 PUSH2 0x464 DUP5 PUSH2 0x2CCB JUMP JUMPDEST PUSH1 0x9 SSTORE PUSH3 0x2A300 PUSH1 0x40 MLOAD SWAP2 PUSH2 0x478 DUP4 PUSH2 0x2A98 JUMP JUMPDEST CALLER DUP4 MSTORE DUP4 PUSH1 0x20 DUP5 ADD MSTORE DUP5 ISZERO ISZERO PUSH1 0x40 DUP5 ADD MSTORE PUSH1 0x44 CALLDATALOAD PUSH1 0x60 DUP5 ADD MSTORE PUSH1 0x1 DUP1 PUSH1 0xA0 SHL SUB DUP8 AND PUSH1 0x80 DUP5 ADD MSTORE PUSH1 0x84 CALLDATALOAD PUSH1 0xA0 DUP5 ADD MSTORE PUSH1 0xA4 CALLDATALOAD PUSH1 0xC0 DUP5 ADD MSTORE PUSH1 0xC4 CALLDATALOAD PUSH1 0xE0 DUP5 ADD MSTORE TIMESTAMP PUSH2 0x100 DUP5 ADD MSTORE DUP1 PUSH2 0x120 DUP5 ADD MSTORE ADD PUSH2 0x140 DUP3 ADD MSTORE PUSH1 0x0 PUSH2 0x160 DUP3 ADD MSTORE PUSH1 0x0 PUSH2 0x180 DUP3 ADD MSTORE PUSH1 0x0 PUSH2 0x1A0 DUP3 ADD MSTORE DUP4 PUSH1 0x0 MSTORE PUSH1 0x1 PUSH1 0x20 MSTORE PUSH1 0x40 PUSH1 0x0 KECCAK256 PUSH1 0x1 DUP1 PUSH1 0xA0 SHL SUB DUP3 MLOAD AND PUSH1 0x1 PUSH1 0x1 PUSH1 0x60 SHL SUB PUSH1 0xA0 SHL DUP3 SLOAD AND OR DUP2 SSTORE PUSH1 0x20 DUP3 ADD MLOAD DUP1 MLOAD SWAP1 PUSH8 0xFFFFFFFFFFFFFFFF DUP3 GT PUSH2 0x817 JUMPI DUP2 SWAP1 PUSH2 0x533 PUSH1 0x1 DUP6 ADD SLOAD PUSH2 0x2B56 JUMP JUMPDEST PUSH1 0x1F DUP2 GT PUSH2 0x8AA JUMPI JUMPDEST POP PUSH1 0x20 SWAP1 PUSH1 0x1F DUP4 GT PUSH1 0x1 EQ PUSH2 0x838 JUMPI PUSH1 0x0 SWAP3 PUSH2 0x82D JUMPI JUMPDEST POP POP DUP2 PUSH1 0x1 SHL SWAP2 PUSH1 0x0 NOT SWAP1 PUSH1 0x3 SHL SHR NOT AND OR PUSH1 0x1 DUP3 ADD SSTORE JUMPDEST PUSH2 0x58A PUSH1 0x40 DUP4 ADD MLOAD ISZERO ISZERO PUSH1 0x2 DUP4 ADD SWAP1 PUSH1 0xFF DUP1 NOT DUP4 SLOAD AND SWAP2 ISZERO ISZERO AND OR SWAP1 SSTORE JUMP JUMPDEST PUSH1 0x60 DUP3 ADD MLOAD PUSH1 0x3 DUP3 ADD SSTORE PUSH1 0x4 DUP2 ADD PUSH1 0x1 DUP1 PUSH1 0xA0 SHL SUB PUSH1 0x80 DUP5 ADD MLOAD AND PUSH1 0x1 PUSH1 0x1 PUSH1 0x60 SHL SUB PUSH1 0xA0 SHL DUP3 SLOAD AND OR SWAP1 SSTORE PUSH1 0xA0 DUP3 ADD MLOAD PUSH1 0x5 DUP3 ADD SSTORE PUSH1 0xC0 DUP3 ADD MLOAD PUSH1 0x6 DUP3 ADD SSTORE PUSH1 0xE0 DUP3 ADD MLOAD PUSH1 0x7 DUP3 ADD SSTORE PUSH2 0x100 DUP3 ADD MLOAD PUSH1 0x8 DUP3 ADD SSTORE PUSH2 0x120 DUP3 ADD MLOAD PUSH1 0x9 DUP3 ADD SSTORE PUSH2 0x140 DUP3 ADD MLOAD PUSH1 0xA DUP3 ADD SSTORE PUSH1 0xB DUP2 ADD PUSH2 0x160 DUP4 ADD MLOAD PUSH1 0x5 DUP2 LT ISZERO PUSH2 0x2A5 JUMPI PUSH2 0x641 SWAP4 PUSH1 0xD SWAP3 PUSH2 0x1A0 SWAP3 PUSH1 0xFF DUP1 NOT DUP4 SLOAD AND SWAP2 AND OR SWAP1 SSTORE PUSH2 0x180 DUP2 ADD MLOAD PUSH1 0xC DUP6 ADD SSTORE ADD MLOAD ISZERO ISZERO SWAP2 ADD SWAP1 PUSH1 0xFF DUP1 NOT DUP4 SLOAD AND SWAP2 ISZERO ISZERO AND OR SWAP1 SSTORE JUMP JUMPDEST PUSH1 0xB SLOAD PUSH1 0x1 PUSH1 0x40 SHL DUP2 LT ISZERO PUSH2 0x817 JUMPI DUP4 PUSH2 0x664 DUP3 PUSH1 0x1 PUSH2 0x67D SWAP5 ADD PUSH1 0xB SSTORE PUSH2 0x29E0 JUMP JUMPDEST SWAP1 SWAP2 SWAP1 DUP3 SLOAD SWAP1 PUSH1 0x3 SHL SWAP2 DUP3 SHL SWAP2 PUSH1 0x0 NOT SWAP1 SHL NOT AND OR SWAP1 SSTORE JUMP JUMPDEST PUSH1 0x0 DUP4 DUP2 MSTORE PUSH1 0xC PUSH1 0x20 MSTORE PUSH1 0x40 SWAP1 KECCAK256 DUP1 SLOAD PUSH1 0xFF NOT AND PUSH1 0x1 OR SWAP1 SSTORE PUSH1 0x1 PUSH1 0x1 PUSH1 0xA0 SHL SUB DUP5 AND PUSH2 0x76D JUMPI PUSH2 0x6B2 PUSH1 0xA4 CALLDATALOAD PUSH1 0xA SLOAD PUSH2 0x2CBE JUMP JUMPDEST CALLVALUE LT PUSH2 0x728 JUMPI PUSH32 0xE47F69E204F188E4F9DF6ADC50C9CF0BD76C1CD85F34A8A3E8284064AFB4FB82 DUP4 SWAP2 PUSH1 0x20 SWAP6 JUMPDEST PUSH2 0x6F4 PUSH1 0x40 MLOAD SWAP3 PUSH1 0xA0 DUP5 MSTORE PUSH1 0xA0 DUP5 ADD SWAP1 PUSH2 0x2C36 JUMP JUMPDEST SWAP5 ISZERO ISZERO DUP3 DUP9 ADD MSTORE PUSH1 0x44 CALLDATALOAD PUSH1 0x40 DUP4 ADD MSTORE PUSH1 0x1 PUSH1 0x1 PUSH1 0xA0 SHL SUB AND PUSH1 0x60 DUP3 ADD MSTORE PUSH1 0x84 CALLDATALOAD PUSH1 0x80 DUP3 ADD MSTORE CALLER SWAP4 DUP2 SWAP1 SUB SWAP1 LOG3 PUSH1 0x40 MLOAD SWAP1 DUP2 MSTORE RETURN JUMPDEST PUSH1 0x40 MLOAD PUSH3 0x461BCD PUSH1 0xE5 SHL DUP2 MSTORE PUSH1 0x20 PUSH1 0x4 DUP3 ADD MSTORE PUSH1 0x1F PUSH1 0x24 DUP3 ADD MSTORE PUSH32 0x4D61726B65744D616E616765723A20496E73756666696369656E742045544800 PUSH1 0x44 DUP3 ADD MSTORE PUSH1 0x64 SWAP1 REVERT JUMPDEST PUSH1 0xA SLOAD CALLVALUE LT PUSH2 0x7B9 JUMPI PUSH1 0x20 SWAP4 DUP4 SWAP2 PUSH32 0xE47F69E204F188E4F9DF6ADC50C9CF0BD76C1CD85F34A8A3E8284064AFB4FB82 SWAP2 PUSH2 0x7B4 PUSH1 0xA4 CALLDATALOAD ADDRESS CALLER PUSH1 0x1 PUSH1 0x1 PUSH1 0xA0 SHL SUB DUP6 AND PUSH2 0x2CF1 JUMP JUMPDEST PUSH2 0x6DF JUMP JUMPDEST PUSH1 0x40 MLOAD PUSH3 0x461BCD PUSH1 0xE5 SHL DUP2 MSTORE PUSH1 0x20 PUSH1 0x4 DUP3 ADD MSTORE PUSH1 0x30 PUSH1 0x24 DUP3 ADD MSTORE PUSH32 0x4D61726B65744D616E616765723A20496E73756666696369656E742045544820 PUSH1 0x44 DUP3 ADD MSTORE PUSH16 0x666F72206372656174696F6E20666565 PUSH1 0x80 SHL PUSH1 0x64 DUP3 ADD MSTORE PUSH1 0x84 SWAP1 REVERT JUMPDEST PUSH4 0x4E487B71 PUSH1 0xE0 SHL PUSH1 0x0 MSTORE PUSH1 0x41 PUSH1 0x4 MSTORE PUSH1 0x24 PUSH1 0x0 REVERT JUMPDEST ADD MLOAD SWAP1 POP DUP9 DUP1 PUSH2 0x553 JUMP JUMPDEST SWAP3 POP PUSH1 0x1 DUP5 ADD PUSH1 0x0 MSTORE PUSH1 0x20 PUSH1 0x0 KECCAK256 SWAP1 PUSH1 0x0 SWAP4 JUMPDEST PUSH1 0x1F NOT DUP5 AND DUP6 LT PUSH2 0x88F JUMPI PUSH1 0x1 SWAP5 POP DUP4 PUSH1 0x1F NOT DUP2 AND LT PUSH2 0x876 JUMPI JUMPDEST POP POP POP DUP2 SHL ADD PUSH1 0x1 DUP3 ADD SSTORE PUSH2 0x56B JUMP JUMPDEST ADD MLOAD PUSH1 0x0 NOT PUSH1 0xF8 DUP5 PUSH1 0x3 SHL AND SHR NOT AND SWAP1 SSTORE DUP9 DUP1 DUP1 PUSH2 0x866 JUMP JUMPDEST DUP2 DUP2 ADD MLOAD DUP4 SSTORE PUSH1 0x20 SWAP5 DUP6 ADD SWAP5 PUSH1 0x1 SWAP1 SWAP4 ADD SWAP3 SWAP1 SWAP2 ADD SWAP1 PUSH2 0x84B JUMP JUMPDEST PUSH2 0x8DA SWAP1 PUSH1 0x1 DUP7 ADD PUSH1 0x0 MSTORE PUSH1 0x20 PUSH1 0x0 KECCAK256 PUSH1 0x1F DUP6 ADD PUSH1 0x5 SHR DUP2 ADD SWAP2 PUSH1 0x20 DUP7 LT PUSH2 0x8E0 JUMPI JUMPDEST PUSH1 0x1F ADD PUSH1 0x5 SHR ADD SWAP1 PUSH2 0x2CDA JUMP JUMPDEST DUP10 PUSH2 0x53C JUMP JUMPDEST SWAP1 SWAP2 POP DUP2 SWAP1 PUSH2 0x8CD JUMP JUMPDEST PUSH4 0x4E487B71 PUSH1 0xE0 SHL PUSH1 0x0 MSTORE PUSH1 0x11 PUSH1 0x4 MSTORE PUSH1 0x24 PUSH1 0x0 REVERT JUMPDEST PUSH1 0x40 MLOAD PUSH3 0x461BCD PUSH1 0xE5 SHL DUP2 MSTORE PUSH1 0x20 PUSH1 0x4 DUP3 ADD MSTORE PUSH1 0x28 PUSH1 0x24 DUP3 ADD MSTORE PUSH32 0x4D61726B65744D616E616765723A20496E73756666696369656E742063726561 PUSH1 0x44 DUP3 ADD MSTORE PUSH8 0x74696F6E20666565 PUSH1 0xC0 SHL PUSH1 0x64 DUP3 ADD MSTORE PUSH1 0x84 SWAP1 REVERT JUMPDEST PUSH1 0x40 MLOAD PUSH3 0x461BCD PUSH1 0xE5 SHL DUP2 MSTORE PUSH1 0x20 PUSH1 0x4 DUP3 ADD MSTORE PUSH1 0x33 PUSH1 0x24 DUP3 ADD MSTORE PUSH32 0x4D61726B65744D616E616765723A20546F6B656E206E6F7420737570706F7274 PUSH1 0x44 DUP3 ADD MSTORE PUSH19 0x32B2103337B91036BAB63A3496B7B83A34B7B7 PUSH1 0x69 SHL PUSH1 0x64 DUP3 ADD MSTORE PUSH1 0x84 SWAP1 REVERT JUMPDEST PUSH1 0x40 MLOAD PUSH3 0x461BCD PUSH1 0xE5 SHL DUP2 MSTORE PUSH1 0x20 PUSH1 0x4 DUP3 ADD MSTORE PUSH1 0x35 PUSH1 0x24 DUP3 ADD MSTORE PUSH32 0x4D61726B65744D616E616765723A204D756C74692D6F7074696F6E206D61726B PUSH1 0x44 DUP3 ADD MSTORE PUSH21 0x32BA39903932B8BAB4B93290281928103A37B5B2B7 PUSH1 0x59 SHL PUSH1 0x64 DUP3 ADD MSTORE PUSH1 0x84 SWAP1 REVERT JUMPDEST PUSH1 0x1 PUSH1 0x1 PUSH1 0xA0 SHL SUB DUP4 AND ISZERO PUSH2 0x41E JUMPI PUSH1 0x1 PUSH1 0x1 PUSH1 0xA0 SHL SUB DUP4 AND PUSH1 0x0 SWAP1 DUP2 MSTORE PUSH1 0x5 PUSH1 0x20 MSTORE PUSH1 0x40 SWAP1 KECCAK256 SLOAD PUSH1 0xFF AND PUSH2 0x41E JUMPI PUSH1 0x40 MLOAD PUSH3 0x461BCD PUSH1 0xE5 SHL DUP2 MSTORE PUSH1 0x20 PUSH1 0x4 DUP3 ADD MSTORE PUSH1 0x22 PUSH1 0x24 DUP3 ADD MSTORE PUSH32 0x4D61726B65744D616E616765723A20546F6B656E206E6F7420737570706F7274 PUSH1 0x44 DUP3 ADD MSTORE PUSH2 0x1959 PUSH1 0xF2 SHL PUSH1 0x64 DUP3 ADD MSTORE PUSH1 0x84 SWAP1 REVERT JUMPDEST PUSH1 0x40 MLOAD PUSH3 0x461BCD PUSH1 0xE5 SHL DUP2 MSTORE PUSH1 0x20 PUSH1 0x4 DUP3 ADD MSTORE PUSH1 0x28 PUSH1 0x24 DUP3 ADD MSTORE PUSH32 0x4D61726B65744D616E616765723A204D696E696D756D20323420686F75727320 PUSH1 0x44 DUP3 ADD MSTORE PUSH8 0x1C995C5D5A5C9959 PUSH1 0xC2 SHL PUSH1 0x64 DUP3 ADD MSTORE PUSH1 0x84 SWAP1 REVERT JUMPDEST PUSH1 0x40 MLOAD PUSH3 0x461BCD PUSH1 0xE5 SHL DUP2 MSTORE PUSH1 0x20 PUSH1 0x4 DUP3 ADD MSTORE PUSH1 0x26 PUSH1 0x24 DUP3 ADD MSTORE PUSH32 0x4D61726B65744D616E616765723A20496E76616C69642063726561746F72206F PUSH1 0x44 DUP3 ADD MSTORE PUSH6 0x7574636F6D65 PUSH1 0xD0 SHL PUSH1 0x64 DUP3 ADD MSTORE PUSH1 0x84 SWAP1 REVERT JUMPDEST POP PUSH1 0x44 CALLDATALOAD PUSH1 0xC4 CALLDATALOAD GT ISZERO PUSH2 0x3D8 JUMP JUMPDEST PUSH1 0x40 MLOAD PUSH3 0x461BCD PUSH1 0xE5 SHL DUP2 MSTORE PUSH1 0x20 PUSH1 0x4 DUP3 ADD MSTORE PUSH1 0x26 PUSH1 0x24 DUP3 ADD MSTORE PUSH32 0x4D61726B65744D616E616765723A20496E76616C69642063726561746F722064 PUSH1 0x44 DUP3 ADD MSTORE PUSH6 0x195C1BDCDA5D PUSH1 0xD2 SHL PUSH1 0x64 DUP3 ADD MSTORE PUSH1 0x84 SWAP1 REVERT JUMPDEST PUSH1 0x64 PUSH1 0x40 MLOAD PUSH3 0x461BCD PUSH1 0xE5 SHL DUP2 MSTORE PUSH1 0x20 PUSH1 0x4 DUP3 ADD MSTORE PUSH1 0x20 PUSH1 0x24 DUP3 ADD MSTORE PUSH32 0x4D61726B65744D616E616765723A20496E76616C6964206D696E207374616B65 PUSH1 0x44 DUP3 ADD MSTORE REVERT JUMPDEST PUSH1 0x40 MLOAD PUSH3 0x461BCD PUSH1 0xE5 SHL DUP2 MSTORE PUSH1 0x20 PUSH1 0x4 DUP3 ADD MSTORE PUSH1 0x22 PUSH1 0x24 DUP3 ADD MSTORE PUSH32 0x4D61726B65744D616E616765723A20496E76616C6964206D6178206F7074696F PUSH1 0x44 DUP3 ADD MSTORE PUSH2 0x6E73 PUSH1 0xF0 SHL PUSH1 0x64 DUP3 ADD MSTORE PUSH1 0x84 SWAP1 REVERT JUMPDEST POP PUSH1 0xA PUSH1 0x44 CALLDATALOAD GT ISZERO PUSH2 0x3B8 JUMP JUMPDEST PUSH1 0x64 PUSH1 0x40 MLOAD PUSH3 0x461BCD PUSH1 0xE5 SHL DUP2 MSTORE PUSH1 0x20 PUSH1 0x4 DUP3 ADD MSTORE PUSH1 0x20 PUSH1 0x24 DUP3 ADD MSTORE PUSH32 0x4D61726B65744D616E616765723A20496E76616C696420495046532068617368 PUSH1 0x44 DUP3 ADD MSTORE REVERT JUMPDEST PUSH1 0x40 MLOAD PUSH3 0x461BCD PUSH1 0xE5 SHL DUP2 MSTORE PUSH1 0x20 PUSH1 0x4 DUP3 ADD MSTORE PUSH1 0x21 PUSH1 0x24 DUP3 ADD MSTORE PUSH32 0x4D61726B65744D616E616765723A2057616C6C657420626C61636B6C69737465 PUSH1 0x44 DUP3 ADD MSTORE PUSH1 0x19 PUSH1 0xFA SHL PUSH1 0x64 DUP3 ADD MSTORE PUSH1 0x84 SWAP1 REVERT JUMPDEST CALLVALUE PUSH2 0x244 JUMPI PUSH1 0x20 CALLDATASIZE PUSH1 0x3 NOT ADD SLT PUSH2 0x244 JUMPI PUSH1 0x0 PUSH2 0x1A0 PUSH1 0x40 MLOAD PUSH2 0xCFB DUP2 PUSH2 0x2A98 JUMP JUMPDEST DUP3 DUP2 MSTORE PUSH1 0x60 PUSH1 0x20 DUP3 ADD MSTORE DUP3 PUSH1 0x40 DUP3 ADD MSTORE DUP3 PUSH1 0x60 DUP3 ADD MSTORE DUP3 PUSH1 0x80 DUP3 ADD MSTORE DUP3 PUSH1 0xA0 DUP3 ADD MSTORE DUP3 PUSH1 0xC0 DUP3 ADD MSTORE DUP3 PUSH1 0xE0 DUP3 ADD MSTORE DUP3 PUSH2 0x100 DUP3 ADD MSTORE DUP3 PUSH2 0x120 DUP3 ADD MSTORE DUP3 PUSH2 0x140 DUP3 ADD MSTORE DUP3 PUSH2 0x160 DUP3 ADD MSTORE DUP3 PUSH2 0x180 DUP3 ADD MSTORE ADD MSTORE PUSH1 0x4 CALLDATALOAD PUSH1 0x0 MSTORE PUSH1 0x1 PUSH1 0x20 MSTORE PUSH1 0x40 PUSH1 0x0 KECCAK256 PUSH1 0x40 MLOAD SWAP1 PUSH2 0xD6B DUP3 PUSH2 0x2A98 JUMP JUMPDEST DUP1 SLOAD PUSH1 0x1 PUSH1 0x1 PUSH1 0xA0 SHL SUB AND DUP3 MSTORE PUSH2 0xD84 PUSH1 0x1 DUP3 ADD PUSH2 0x2B90 JUMP JUMPDEST PUSH1 0x20 DUP4 ADD MSTORE PUSH1 0xFF PUSH1 0x2 DUP3 ADD SLOAD AND ISZERO ISZERO PUSH1 0x40 DUP4 ADD MSTORE PUSH1 0x3 DUP2 ADD SLOAD PUSH1 0x60 DUP4 ADD MSTORE PUSH1 0x1 DUP1 PUSH1 0xA0 SHL SUB PUSH1 0x4 DUP3 ADD SLOAD AND PUSH1 0x80 DUP4 ADD MSTORE PUSH1 0x5 DUP2 ADD SLOAD PUSH1 0xA0 DUP4 ADD MSTORE PUSH1 0x6 DUP2 ADD SLOAD PUSH1 0xC0 DUP4 ADD MSTORE PUSH1 0x7 DUP2 ADD SLOAD PUSH1 0xE0 DUP4 ADD MSTORE PUSH1 0x8 DUP2 ADD SLOAD PUSH2 0x100 DUP4 ADD MSTORE PUSH1 0x9 DUP2 ADD SLOAD PUSH2 0x120 DUP4 ADD MSTORE PUSH1 0xA DUP2 ADD SLOAD PUSH2 0x140 DUP4 ADD MSTORE PUSH1 0xFF PUSH1 0xB DUP3 ADD SLOAD AND PUSH1 0x5 DUP2 LT ISZERO PUSH2 0x2A5 JUMPI PUSH1 0xFF SWAP2 PUSH1 0xD SWAP2 PUSH2 0x160 DUP6 ADD MSTORE PUSH1 0xC DUP2 ADD SLOAD PUSH2 0x180 DUP6 ADD MSTORE ADD SLOAD AND ISZERO ISZERO PUSH2 0x1A0 DUP3 ADD MSTORE PUSH1 0x40 MLOAD DUP1 SWAP2 PUSH1 0x20 DUP3 MSTORE PUSH1 0x1 DUP1 PUSH1 0xA0 SHL SUB DUP2 MLOAD AND PUSH1 0x20 DUP4 ADD MSTORE PUSH2 0x1A0 PUSH2 0xE5C PUSH1 0x20 DUP4 ADD MLOAD PUSH2 0x1C0 PUSH1 0x40 DUP7 ADD MSTORE PUSH2 0x1E0 DUP6 ADD SWAP1 PUSH2 0x2C36 JUMP JUMPDEST SWAP2 PUSH1 0x40 DUP2 ADD MLOAD ISZERO ISZERO PUSH1 0x60 DUP6 ADD MSTORE PUSH1 0x60 DUP2 ADD MLOAD PUSH1 0x80 DUP6 ADD MSTORE PUSH1 0x1 DUP1 PUSH1 0xA0 SHL SUB PUSH1 0x80 DUP3 ADD MLOAD AND PUSH1 0xA0 DUP6 ADD MSTORE PUSH1 0xA0 DUP2 ADD MLOAD PUSH1 0xC0 DUP6 ADD MSTORE PUSH1 0xC0 DUP2 ADD MLOAD PUSH1 0xE0 DUP6 ADD MSTORE PUSH1 0xE0 DUP2 ADD MLOAD PUSH2 0x100 DUP6 ADD MSTORE PUSH2 0x100 DUP2 ADD MLOAD PUSH2 0x120 DUP6 ADD MSTORE PUSH2 0x120 DUP2 ADD MLOAD PUSH2 0x140 DUP6 ADD MSTORE PUSH2 0x140 DUP2 ADD MLOAD PUSH2 0x160 DUP6 ADD MSTORE PUSH2 0xEDC PUSH2 0x160 DUP3 ADD MLOAD PUSH2 0x180 DUP7 ADD SWAP1 PUSH2 0x2C76 JUMP JUMPDEST PUSH2 0x180 DUP2 ADD MLOAD DUP3 DUP6 ADD MSTORE ADD MLOAD ISZERO ISZERO PUSH2 0x1C0 DUP4 ADD MSTORE SUB SWAP1 RETURN JUMPDEST CALLVALUE PUSH2 0x244 JUMPI PUSH1 0x40 CALLDATASIZE PUSH1 0x3 NOT ADD SLT PUSH2 0x244 JUMPI PUSH2 0xF0D PUSH2 0x2965 JUMP JUMPDEST PUSH2 0xF15 PUSH2 0x2C83 JUMP JUMPDEST SWAP1 PUSH2 0xF1E PUSH2 0x2C92 JUMP JUMPDEST PUSH1 0x1 PUSH1 0x1 PUSH1 0xA0 SHL SUB AND SWAP1 DUP2 ISZERO PUSH2 0xF50 JUMPI PUSH2 0x19 SWAP2 PUSH1 0x0 MSTORE PUSH1 0x6 PUSH1 0x20 MSTORE PUSH1 0x40 PUSH1 0x0 KECCAK256 SWAP1 PUSH1 0xFF DUP1 NOT DUP4 SLOAD AND SWAP2 ISZERO ISZERO AND OR SWAP1 SSTORE JUMP JUMPDEST PUSH1 0x40 MLOAD PUSH3 0x461BCD PUSH1 0xE5 SHL DUP2 MSTORE PUSH1 0x20 PUSH1 0x4 DUP3 ADD MSTORE PUSH1 0x25 PUSH1 0x24 DUP3 ADD MSTORE PUSH32 0x4D61726B65744D616E616765723A20496E76616C69642077616C6C6574206164 PUSH1 0x44 DUP3 ADD MSTORE PUSH5 0x6472657373 PUSH1 0xD8 SHL PUSH1 0x64 DUP3 ADD MSTORE PUSH1 0x84 SWAP1 REVERT JUMPDEST CALLVALUE PUSH2 0x244 JUMPI PUSH1 0x40 CALLDATASIZE PUSH1 0x3 NOT ADD SLT PUSH2 0x244 JUMPI PUSH1 0x24 CALLDATALOAD PUSH1 0x1 PUSH1 0x1 PUSH1 0xA0 SHL SUB DUP2 AND SWAP1 DUP2 SWAP1 SUB PUSH2 0x244 JUMPI PUSH1 0x4 CALLDATALOAD PUSH1 0x0 MSTORE PUSH1 0x4 PUSH1 0x20 MSTORE PUSH1 0x40 PUSH1 0x0 KECCAK256 SWAP1 PUSH1 0x0 MSTORE PUSH1 0x20 MSTORE PUSH1 0x20 PUSH1 0x40 PUSH1 0x0 KECCAK256 SLOAD PUSH1 0x40 MLOAD SWAP1 DUP2 MSTORE RETURN JUMPDEST CALLVALUE PUSH2 0x244 JUMPI PUSH1 0x0 CALLDATASIZE PUSH1 0x3 NOT ADD SLT PUSH2 0x244 JUMPI PUSH1 0xE SLOAD PUSH2 0x100D DUP2 PUSH2 0x351E JUMP JUMPDEST SWAP1 PUSH1 0x0 SWAP1 PUSH1 0x0 JUMPDEST DUP2 DUP2 LT PUSH2 0x1067 JUMPI POP POP PUSH2 0x1026 DUP2 PUSH2 0x351E JUMP JUMPDEST SWAP2 PUSH1 0x0 JUMPDEST DUP3 DUP2 LT PUSH2 0x1043 JUMPI PUSH1 0x40 MLOAD DUP1 PUSH2 0x103F DUP7 DUP3 PUSH2 0x29A5 JUMP JUMPDEST SUB SWAP1 RETURN JUMPDEST DUP1 PUSH2 0x1051 PUSH2 0x1062 SWAP3 DUP5 PUSH2 0x3550 JUMP JUMPDEST MLOAD PUSH2 0x105C DUP3 DUP8 PUSH2 0x3550 JUMP JUMPDEST MSTORE PUSH2 0x2CCB JUMP JUMPDEST PUSH2 0x102A JUMP JUMPDEST PUSH2 0x1070 DUP2 PUSH2 0x2A17 JUMP JUMPDEST SWAP1 SLOAD SWAP1 PUSH1 0x3 SHL SHR DUP1 PUSH1 0x0 MSTORE PUSH1 0x20 PUSH1 0x1 DUP2 MSTORE PUSH1 0xFF PUSH1 0xB PUSH1 0x40 PUSH1 0x0 KECCAK256 ADD SLOAD AND PUSH1 0x5 DUP2 LT ISZERO PUSH2 0x2A5 JUMPI PUSH1 0x4 EQ SWAP1 DUP2 PUSH2 0x10CF JUMPI JUMPDEST POP PUSH2 0x10B5 JUMPI JUMPDEST POP PUSH2 0x10B0 SWAP1 PUSH2 0x2CCB JUMP JUMPDEST PUSH2 0x1014 JUMP JUMPDEST DUP4 PUSH2 0x10C8 SWAP2 PUSH2 0x105C PUSH2 0x10B0 SWAP5 SWAP7 DUP9 PUSH2 0x3550 JUMP JUMPDEST SWAP3 SWAP1 PUSH2 0x10A6 JUMP JUMPDEST PUSH1 0xF SWAP2 POP DUP3 PUSH1 0x0 MSTORE MSTORE PUSH1 0x40 PUSH1 0x0 KECCAK256 SLOAD PUSH3 0x278D00 DUP2 ADD DUP1 SWAP2 GT PUSH2 0x8EA JUMPI TIMESTAMP LT ISZERO DUP7 PUSH2 0x10A0 JUMP JUMPDEST CALLVALUE PUSH2 0x244 JUMPI PUSH2 0x1102 CALLDATASIZE PUSH2 0x2A66 JUMP JUMPDEST SWAP1 PUSH1 0x0 MSTORE PUSH1 0x2 PUSH1 0x20 MSTORE PUSH1 0x40 PUSH1 0x0 KECCAK256 SWAP1 PUSH1 0x0 MSTORE PUSH1 0x20 MSTORE PUSH1 0x20 PUSH1 0x40 PUSH1 0x0 KECCAK256 SLOAD PUSH1 0x40 MLOAD SWAP1 DUP2 MSTORE RETURN JUMPDEST CALLVALUE PUSH2 0x244 JUMPI PUSH1 0x20 CALLDATASIZE PUSH1 0x3 NOT ADD SLT PUSH2 0x244 JUMPI PUSH1 0x4 CALLDATALOAD PUSH1 0x0 DUP2 DUP2 MSTORE PUSH1 0x1 PUSH1 0x20 MSTORE PUSH1 0x40 SWAP1 KECCAK256 DUP1 SLOAD PUSH1 0x1 PUSH1 0x1 PUSH1 0xA0 SHL SUB AND CALLER SUB PUSH2 0x1210 JUMPI PUSH1 0xFF PUSH1 0xB DUP3 ADD SLOAD AND SWAP1 PUSH1 0x5 DUP3 LT ISZERO PUSH2 0x2A5 JUMPI PUSH2 0x1178 PUSH1 0x9 SWAP3 ISZERO PUSH2 0x2DA2 JUMP JUMPDEST ADD SLOAD PUSH2 0xA8BF NOT DUP2 ADD SWAP1 DUP2 GT PUSH2 0x8EA JUMPI TIMESTAMP LT ISZERO PUSH2 0x11C1 JUMPI PUSH1 0x40 MLOAD PUSH2 0x19 SWAP2 PUSH2 0x119E DUP3 PUSH2 0x2AB5 JUMP JUMPDEST PUSH1 0x11 DUP3 MSTORE PUSH17 0x10DC99585D1BDC8818D85B98D95B1B1959 PUSH1 0x7A SHL PUSH1 0x20 DUP4 ADD MSTORE PUSH2 0x3166 JUMP JUMPDEST PUSH1 0x40 MLOAD PUSH3 0x461BCD PUSH1 0xE5 SHL DUP2 MSTORE PUSH1 0x20 PUSH1 0x4 DUP3 ADD MSTORE PUSH1 0x21 PUSH1 0x24 DUP3 ADD MSTORE PUSH32 0x4D61726B65744D616E616765723A20546F6F206C61746520746F2063616E6365 PUSH1 0x44 DUP3 ADD MSTORE PUSH1 0x1B PUSH1 0xFA SHL PUSH1 0x64 DUP3 ADD MSTORE PUSH1 0x84 SWAP1 REVERT JUMPDEST PUSH1 0x40 MLOAD PUSH3 0x461BCD PUSH1 0xE5 SHL DUP2 MSTORE PUSH1 0x20 PUSH1 0x4 DUP3 ADD MSTORE PUSH1 0x26 PUSH1 0x24 DUP3 ADD MSTORE PUSH32 0x4D61726B65744D616E616765723A204F6E6C792063726561746F722063616E20 PUSH1 0x44 DUP3 ADD MSTORE PUSH6 0x18D85B98D95B PUSH1 0xD2 SHL PUSH1 0x64 DUP3 ADD MSTORE PUSH1 0x84 SWAP1 REVERT JUMPDEST CALLVALUE PUSH2 0x244 JUMPI PUSH1 0x0 CALLDATASIZE PUSH1 0x3 NOT ADD SLT PUSH2 0x244 JUMPI PUSH1 0x9 SLOAD PUSH1 0x0 NOT SWAP1 DUP2 DUP2 ADD DUP2 DUP2 GT PUSH2 0x8EA JUMPI PUSH2 0x128F SWAP1 PUSH2 0x351E JUMP JUMPDEST SWAP2 PUSH1 0x1 JUMPDEST DUP3 DUP2 LT PUSH2 0x12A8 JUMPI PUSH1 0x40 MLOAD DUP1 PUSH2 0x103F DUP7 DUP3 PUSH2 0x29A5 JUMP JUMPDEST DUP2 DUP2 ADD SWAP1 DUP1 DUP3 GT PUSH2 0x8EA JUMPI DUP1 PUSH2 0x105C PUSH2 0x12C1 SWAP4 DUP8 PUSH2 0x3550 JUMP JUMPDEST PUSH2 0x1293 JUMP JUMPDEST CALLVALUE PUSH2 0x244 JUMPI PUSH1 0x20 CALLDATASIZE PUSH1 0x3 NOT ADD SLT PUSH2 0x244 JUMPI PUSH1 0x4 CALLDATALOAD PUSH1 0x0 MSTORE PUSH1 0x1 PUSH1 0x20 MSTORE PUSH1 0x40 PUSH1 0x0 KECCAK256 PUSH1 0x1 PUSH1 0xA0 SHL PUSH1 0x1 SWAP1 SUB SWAP1 DUP2 DUP2 SLOAD AND SWAP1 PUSH1 0x1 DUP2 ADD PUSH2 0x1303 SWAP1 PUSH2 0x2B90 JUMP JUMPDEST SWAP3 PUSH1 0x2 DUP3 ADD SLOAD PUSH1 0xFF AND SWAP2 PUSH1 0x3 DUP2 ADD SLOAD SWAP2 PUSH1 0x4 DUP3 ADD SLOAD AND PUSH1 0x5 DUP3 ADD SLOAD PUSH1 0x6 DUP4 ADD SLOAD PUSH1 0x7 DUP5 ADD SLOAD PUSH1 0x8 DUP6 ADD SLOAD SWAP1 PUSH1 0x9 DUP7 ADD SLOAD SWAP3 PUSH1 0xA DUP8 ADD SLOAD SWAP5 PUSH1 0xB DUP9 ADD SLOAD PUSH1 0xFF AND SWAP7 PUSH1 0xC DUP10 ADD SLOAD SWAP9 PUSH1 0xD ADD SLOAD PUSH1 0xFF AND SWAP10 PUSH1 0x40 MLOAD DUP1 SWAP15 DUP2 SWAP15 DUP3 MSTORE PUSH2 0x1C0 DUP1 PUSH1 0x20 DUP5 ADD MSTORE DUP3 ADD PUSH2 0x136E SWAP2 PUSH2 0x2C36 JUMP JUMPDEST SWAP13 ISZERO ISZERO SWAP1 PUSH1 0x40 ADD MSTORE PUSH1 0x60 DUP14 ADD MSTORE PUSH1 0x80 DUP13 ADD MSTORE PUSH1 0xA0 DUP12 ADD MSTORE PUSH1 0xC0 DUP11 ADD MSTORE PUSH1 0xE0 DUP10 ADD MSTORE PUSH2 0x100 DUP9 ADD MSTORE PUSH2 0x120 DUP8 ADD MSTORE PUSH2 0x140 DUP7 ADD MSTORE PUSH2 0x160 DUP6 ADD PUSH2 0x13AF SWAP2 PUSH2 0x2C76 JUMP JUMPDEST PUSH2 0x180 DUP5 ADD MSTORE ISZERO ISZERO PUSH2 0x1A0 DUP4 ADD MSTORE SUB SWAP1 RETURN JUMPDEST CALLVALUE PUSH2 0x244 JUMPI PUSH1 0x20 CALLDATASIZE PUSH1 0x3 NOT ADD SLT PUSH2 0x244 JUMPI PUSH1 0x4 CALLDATALOAD DUP1 PUSH1 0x0 MSTORE PUSH1 0x1 PUSH1 0x20 MSTORE PUSH1 0x40 PUSH1 0x0 KECCAK256 PUSH1 0xB DUP2 ADD SWAP1 DUP2 SLOAD SWAP2 PUSH1 0xFF DUP4 AND SWAP1 PUSH1 0x5 DUP3 LT ISZERO PUSH2 0x2A5 JUMPI PUSH2 0x1407 PUSH1 0x1 PUSH1 0x24 SWAP4 EQ PUSH2 0x2DED JUMP JUMPDEST PUSH1 0xD DUP4 ADD SWAP3 DUP4 SLOAD PUSH2 0x141B PUSH1 0xFF DUP3 AND ISZERO PUSH2 0x2E4A JUMP JUMPDEST PUSH1 0x8 SLOAD PUSH1 0x40 DUP1 MLOAD PUSH4 0x33138655 PUSH1 0xE2 SHL DUP2 MSTORE PUSH1 0x4 DUP2 ADD DUP11 SWAP1 MSTORE SWAP6 SWAP1 SWAP2 DUP7 SWAP2 SWAP1 DUP3 SWAP1 PUSH1 0x1 PUSH1 0x1 PUSH1 0xA0 SHL SUB AND GAS STATICCALL SWAP4 DUP5 ISZERO PUSH2 0x1531 JUMPI PUSH1 0x0 SWAP1 PUSH1 0x0 SWAP6 PUSH2 0x14FD JUMPI JUMPDEST POP ISZERO PUSH2 0x14AC JUMPI PUSH32 0x6DFC24F0F2FB42E49FB4FA3FFA8ABB148CAB908A1FB8335B3F128A08B2594AF1 SWAP6 PUSH1 0x20 SWAP6 DUP6 PUSH1 0xC PUSH1 0x2 SWAP6 ADD SSTORE PUSH1 0x1 PUSH1 0xFF NOT DUP1 SWAP5 AND OR SWAP1 SSTORE AND OR SWAP1 SSTORE PUSH2 0x14A3 DUP5 PUSH2 0x31C1 JUMP JUMPDEST PUSH1 0x40 MLOAD SWAP1 DUP2 MSTORE LOG2 STOP JUMPDEST PUSH1 0x40 MLOAD PUSH3 0x461BCD PUSH1 0xE5 SHL DUP2 MSTORE PUSH1 0x20 PUSH1 0x4 DUP3 ADD MSTORE PUSH1 0x24 DUP1 DUP3 ADD MSTORE PUSH32 0x4D61726B65744D616E616765723A204E6F207265736F6C7574696F6E20726561 PUSH1 0x44 DUP3 ADD MSTORE PUSH4 0x18DA1959 PUSH1 0xE2 SHL PUSH1 0x64 DUP3 ADD MSTORE PUSH1 0x84 SWAP1 REVERT JUMPDEST SWAP1 POP PUSH2 0x1522 SWAP2 SWAP5 POP PUSH1 0x40 RETURNDATASIZE PUSH1 0x40 GT PUSH2 0x152A JUMPI JUMPDEST PUSH2 0x151A DUP2 DUP4 PUSH2 0x2AD1 JUMP JUMPDEST DUP2 ADD SWAP1 PUSH2 0x2ECF JUMP JUMPDEST SWAP4 SWAP1 DUP9 PUSH2 0x1458 JUMP JUMPDEST POP RETURNDATASIZE PUSH2 0x1510 JUMP JUMPDEST PUSH1 0x40 MLOAD RETURNDATASIZE PUSH1 0x0 DUP3 RETURNDATACOPY RETURNDATASIZE SWAP1 REVERT JUMPDEST CALLVALUE PUSH2 0x244 JUMPI PUSH1 0x20 CALLDATASIZE PUSH1 0x3 NOT ADD SLT PUSH2 0x244 JUMPI PUSH1 0x4 CALLDATALOAD PUSH1 0x0 MSTORE PUSH1 0xF PUSH1 0x20 MSTORE PUSH1 0x20 PUSH1 0x40 PUSH1 0x0 KECCAK256 SLOAD PUSH1 0x40 MLOAD SWAP1 DUP2 MSTORE RETURN JUMPDEST CALLVALUE PUSH2 0x244 JUMPI PUSH1 0x0 CALLDATASIZE PUSH1 0x3 NOT ADD SLT PUSH2 0x244 JUMPI PUSH1 0x40 MLOAD DUP1 PUSH1 0xB SLOAD SWAP2 DUP3 DUP2 MSTORE PUSH1 0x20 DUP1 SWAP2 ADD SWAP3 PUSH1 0xB PUSH1 0x0 MSTORE PUSH32 0x175B7A638427703F0DBE7BB9BBF987A2551717B34E79F33B5B1008D1FA01DB9 SWAP2 PUSH1 0x0 SWAP1 JUMPDEST DUP3 DUP3 LT PUSH2 0x15D9 JUMPI PUSH2 0x103F DUP6 PUSH2 0x15CD DUP2 DUP10 SUB DUP3 PUSH2 0x2AD1 JUMP JUMPDEST PUSH1 0x40 MLOAD SWAP2 DUP3 SWAP2 DUP3 PUSH2 0x29A5 JUMP JUMPDEST DUP4 SLOAD DUP7 MSTORE SWAP5 DUP6 ADD SWAP5 PUSH1 0x1 SWAP4 DUP5 ADD SWAP4 SWAP1 SWAP2 ADD SWAP1 PUSH2 0x15B6 JUMP JUMPDEST CALLVALUE PUSH2 0x244 JUMPI PUSH1 0x20 CALLDATASIZE PUSH1 0x3 NOT ADD SLT PUSH2 0x244 JUMPI PUSH2 0x1609 PUSH2 0x2C92 JUMP JUMPDEST PUSH1 0x4 CALLDATALOAD PUSH1 0xA SSTORE STOP JUMPDEST CALLVALUE PUSH2 0x244 JUMPI PUSH1 0x40 CALLDATASIZE PUSH1 0x3 NOT ADD SLT PUSH2 0x244 JUMPI PUSH2 0x162A PUSH2 0x2965 JUMP JUMPDEST PUSH1 0x1 PUSH1 0x1 PUSH1 0xA0 SHL SUB AND PUSH1 0x0 SWAP1 DUP2 MSTORE PUSH1 0xD PUSH1 0x20 MSTORE PUSH1 0x40 SWAP1 KECCAK256 DUP1 SLOAD PUSH1 0x24 CALLDATALOAD SWAP2 SWAP1 DUP3 LT ISZERO PUSH2 0x244 JUMPI PUSH1 0x20 SWAP2 PUSH2 0x165B SWAP2 PUSH2 0x2A4E JUMP JUMPDEST SWAP1 SLOAD PUSH1 0x40 MLOAD SWAP2 PUSH1 0x3 SHL SHR DUP2 MSTORE RETURN JUMPDEST CALLVALUE PUSH2 0x244 JUMPI PUSH1 0x0 CALLDATASIZE PUSH1 0x3 NOT ADD SLT PUSH2 0x244 JUMPI PUSH1 0x0 SLOAD PUSH1 0x40 MLOAD PUSH1 0x1 PUSH1 0x1 PUSH1 0xA0 SHL SUB SWAP1 SWAP2 AND DUP2 MSTORE PUSH1 0x20 SWAP1 RETURN JUMPDEST CALLVALUE PUSH2 0x244 JUMPI PUSH1 0x20 CALLDATASIZE PUSH1 0x3 NOT ADD SLT PUSH2 0x244 JUMPI PUSH1 0x4 CALLDATALOAD PUSH1 0xE SLOAD DUP2 LT ISZERO PUSH2 0x244 JUMPI PUSH2 0x165B PUSH1 0x20 SWAP2 PUSH2 0x2A17 JUMP JUMPDEST CALLVALUE PUSH2 0x244 JUMPI PUSH1 0x20 CALLDATASIZE PUSH1 0x3 NOT ADD SLT PUSH2 0x244 JUMPI PUSH1 0x4 CALLDATALOAD PUSH1 0x10 SLOAD DUP2 LT ISZERO PUSH2 0x244 JUMPI PUSH1 0x20 SWAP1 PUSH1 0x10 PUSH1 0x0 MSTORE PUSH32 0x1B6847DC741A1B0CD08D278845F9D819D87B734759AFB55FE2DE5CB82A9AE672 ADD SLOAD PUSH1 0x40 MLOAD SWAP1 DUP2 MSTORE RETURN JUMPDEST CALLVALUE PUSH2 0x244 JUMPI PUSH1 0x20 CALLDATASIZE PUSH1 0x3 NOT ADD SLT PUSH2 0x244 JUMPI PUSH1 0x4 CALLDATALOAD DUP1 PUSH1 0x0 MSTORE PUSH1 0x1 PUSH1 0x20 MSTORE PUSH1 0x40 PUSH1 0x0 KECCAK256 SWAP1 PUSH1 0xFF PUSH1 0xB DUP4 ADD SLOAD AND PUSH1 0x5 DUP2 LT ISZERO PUSH2 0x2A5 JUMPI PUSH1 0x1 PUSH2 0x174C SWAP2 EQ PUSH2 0x2DED JUMP JUMPDEST PUSH1 0xA DUP3 ADD SLOAD TIMESTAMP LT PUSH2 0x1779 JUMPI PUSH2 0x176B PUSH1 0xFF PUSH1 0xD PUSH2 0x19 SWAP5 ADD SLOAD AND ISZERO PUSH2 0x2E4A JUMP JUMPDEST PUSH2 0x1773 PUSH2 0x2E96 JUMP JUMPDEST SWAP1 PUSH2 0x3166 JUMP JUMPDEST PUSH1 0x40 MLOAD PUSH3 0x461BCD PUSH1 0xE5 SHL DUP2 MSTORE PUSH1 0x20 PUSH1 0x4 DUP3 ADD MSTORE PUSH1 0x2A PUSH1 0x24 DUP3 ADD MSTORE PUSH32 0x4D61726B65744D616E616765723A205265736F6C7574696F6E20706572696F64 PUSH1 0x44 DUP3 ADD MSTORE PUSH10 0x81B9BDD08195B991959 PUSH1 0xB2 SHL PUSH1 0x64 DUP3 ADD MSTORE PUSH1 0x84 SWAP1 REVERT JUMPDEST CALLVALUE PUSH2 0x244 JUMPI PUSH1 0x20 CALLDATASIZE PUSH1 0x3 NOT ADD SLT PUSH2 0x244 JUMPI PUSH2 0x17EA PUSH2 0x2965 JUMP JUMPDEST PUSH2 0x17F2 PUSH2 0x2C92 JUMP JUMPDEST PUSH1 0x1 PUSH1 0x1 PUSH1 0xA0 SHL SUB AND PUSH1 0x0 SWAP1 DUP2 MSTORE PUSH1 0x5 PUSH1 0x20 MSTORE PUSH1 0x40 SWAP1 KECCAK256 DUP1 SLOAD PUSH1 0xFF NOT AND SWAP1 SSTORE STOP JUMPDEST CALLVALUE PUSH2 0x244 JUMPI PUSH1 0x0 CALLDATASIZE PUSH1 0x3 NOT ADD SLT PUSH2 0x244 JUMPI PUSH2 0x182C PUSH2 0x2C92 JUMP JUMPDEST PUSH1 0x0 DUP1 SLOAD PUSH1 0x1 PUSH1 0x1 PUSH1 0xA0 SHL SUB NOT DUP2 AND DUP3 SSTORE PUSH1 0x1 PUSH1 0x1 PUSH1 0xA0 SHL SUB AND PUSH32 0x8BE0079C531659141344CD1FD0A4F28419497F9722A3DAAFE3B4186F6B6457E0 DUP3 DUP1 LOG3 STOP JUMPDEST CALLVALUE PUSH2 0x244 JUMPI PUSH1 0x0 CALLDATASIZE PUSH1 0x3 NOT ADD SLT PUSH2 0x244 JUMPI PUSH1 0x40 MLOAD DUP1 PUSH1 0x10 SLOAD SWAP2 DUP3 DUP2 MSTORE PUSH1 0x20 DUP1 SWAP2 ADD SWAP3 PUSH1 0x10 PUSH1 0x0 MSTORE PUSH32 0x1B6847DC741A1B0CD08D278845F9D819D87B734759AFB55FE2DE5CB82A9AE672 SWAP2 PUSH1 0x0 SWAP1 JUMPDEST DUP3 DUP3 LT PUSH2 0x18D0 JUMPI PUSH2 0x103F DUP6 PUSH2 0x15CD DUP2 DUP10 SUB DUP3 PUSH2 0x2AD1 JUMP JUMPDEST DUP4 SLOAD DUP7 MSTORE SWAP5 DUP6 ADD SWAP5 PUSH1 0x1 SWAP4 DUP5 ADD SWAP4 SWAP1 SWAP2 ADD SWAP1 PUSH2 0x18B9 JUMP JUMPDEST CALLVALUE PUSH2 0x244 JUMPI PUSH1 0x20 CALLDATASIZE PUSH1 0x3 NOT ADD SLT PUSH2 0x244 JUMPI PUSH2 0x1900 PUSH2 0x2965 JUMP JUMPDEST PUSH2 0x1908 PUSH2 0x2C92 JUMP JUMPDEST PUSH1 0x1 PUSH1 0x1 PUSH1 0xA0 SHL SUB AND DUP1 ISZERO PUSH2 0x1932 JUMPI PUSH1 0x0 SWAP1 DUP2 MSTORE PUSH1 0x5 PUSH1 0x20 MSTORE PUSH1 0x40 SWAP1 KECCAK256 DUP1 SLOAD PUSH1 0xFF NOT AND PUSH1 0x1 OR SWAP1 SSTORE STOP JUMPDEST PUSH1 0x40 MLOAD PUSH3 0x461BCD PUSH1 0xE5 SHL DUP2 MSTORE PUSH1 0x20 PUSH1 0x4 DUP3 ADD MSTORE PUSH1 0x24 DUP1 DUP3 ADD MSTORE PUSH32 0x4D61726B65744D616E616765723A20496E76616C696420746F6B656E20616464 PUSH1 0x44 DUP3 ADD MSTORE PUSH4 0x72657373 PUSH1 0xE0 SHL PUSH1 0x64 DUP3 ADD MSTORE PUSH1 0x84 SWAP1 REVERT JUMPDEST CALLVALUE PUSH2 0x244 JUMPI PUSH1 0x20 CALLDATASIZE PUSH1 0x3 NOT ADD SLT PUSH2 0x244 JUMPI PUSH1 0x1 PUSH1 0x1 PUSH1 0xA0 SHL SUB PUSH2 0x19A4 PUSH2 0x2965 JUMP JUMPDEST AND PUSH1 0x0 MSTORE PUSH1 0x5 PUSH1 0x20 MSTORE PUSH1 0x20 PUSH1 0xFF PUSH1 0x40 PUSH1 0x0 KECCAK256 SLOAD AND PUSH1 0x40 MLOAD SWAP1 ISZERO ISZERO DUP2 MSTORE RETURN JUMPDEST CALLVALUE PUSH2 0x244 JUMPI PUSH1 0x20 DUP1 PUSH1 0x3 NOT CALLDATASIZE ADD SLT PUSH2 0x244 JUMPI PUSH1 0x4 CALLDATALOAD DUP1 PUSH1 0x0 MSTORE PUSH1 0x1 DUP3 MSTORE PUSH1 0x40 PUSH1 0x0 KECCAK256 SWAP2 PUSH1 0xFF PUSH1 0xB DUP5 ADD SLOAD AND PUSH1 0x5 DUP2 LT ISZERO PUSH2 0x2A5 JUMPI PUSH1 0x2 PUSH2 0x1A02 SWAP2 EQ PUSH2 0x310F JUMP JUMPDEST PUSH1 0xC DUP4 ADD SWAP1 DUP2 SLOAD DUP1 ISZERO PUSH2 0x1BD6 JUMPI DUP4 PUSH1 0x0 MSTORE PUSH1 0x3 DUP3 MSTORE PUSH1 0x40 PUSH1 0x0 KECCAK256 CALLER PUSH1 0x0 MSTORE DUP3 MSTORE PUSH1 0x40 PUSH1 0x0 KECCAK256 DUP2 PUSH1 0x0 MSTORE DUP3 MSTORE PUSH1 0x40 PUSH1 0x0 KECCAK256 SLOAD ISZERO PUSH2 0x1B91 JUMPI DUP4 PUSH1 0x0 MSTORE PUSH1 0x3 DUP3 MSTORE PUSH1 0x40 PUSH1 0x0 KECCAK256 CALLER PUSH1 0x0 MSTORE DUP3 MSTORE PUSH1 0x40 PUSH1 0x0 KECCAK256 DUP2 PUSH1 0x0 MSTORE DUP3 MSTORE PUSH1 0xFF PUSH1 0x2 PUSH1 0x40 PUSH1 0x0 KECCAK256 ADD SLOAD AND PUSH2 0x1B4C JUMPI DUP4 PUSH1 0x0 MSTORE PUSH1 0x3 DUP3 MSTORE PUSH1 0x40 PUSH1 0x0 KECCAK256 CALLER PUSH1 0x0 MSTORE DUP3 MSTORE PUSH1 0x40 PUSH1 0x0 KECCAK256 SWAP1 PUSH1 0x0 MSTORE DUP2 MSTORE PUSH1 0x2 PUSH1 0x40 PUSH1 0x0 KECCAK256 ADD PUSH1 0x1 PUSH1 0xFF NOT DUP3 SLOAD AND OR SWAP1 SSTORE DUP3 PUSH1 0x0 MSTORE PUSH1 0x2 DUP2 MSTORE PUSH1 0x40 PUSH1 0x0 KECCAK256 SWAP2 SLOAD SWAP2 DUP3 PUSH1 0x0 MSTORE DUP2 MSTORE PUSH1 0x40 PUSH1 0x0 KECCAK256 SLOAD SWAP2 DUP4 PUSH1 0x0 MSTORE PUSH1 0x3 DUP3 MSTORE PUSH1 0x40 PUSH1 0x0 KECCAK256 CALLER PUSH1 0x0 MSTORE DUP3 MSTORE PUSH1 0x40 PUSH1 0x0 KECCAK256 SWAP1 PUSH1 0x0 MSTORE DUP2 MSTORE PUSH1 0x40 PUSH1 0x0 KECCAK256 SLOAD DUP3 DUP2 MUL SWAP1 DUP1 DUP3 DIV DUP5 EQ SWAP1 ISZERO OR ISZERO PUSH2 0x8EA JUMPI DUP3 ISZERO PUSH2 0x1B36 JUMPI PUSH32 0x5380CF6FE903B40C6D5A9E0DFBCA2F3A423F0A21520B4D5947ED5169BDBA946D SWAP3 PUSH2 0x1B2B SWAP2 DIV SWAP5 PUSH1 0x4 PUSH1 0x1 DUP1 PUSH1 0xA0 SHL SUB SWAP2 ADD SLOAD AND DUP6 CALLER PUSH2 0x32C9 JUMP JUMPDEST PUSH1 0x40 MLOAD SWAP4 DUP5 MSTORE CALLER SWAP4 LOG3 STOP JUMPDEST PUSH4 0x4E487B71 PUSH1 0xE0 SHL PUSH1 0x0 MSTORE PUSH1 0x12 PUSH1 0x4 MSTORE PUSH1 0x24 PUSH1 0x0 REVERT JUMPDEST PUSH1 0x40 MLOAD PUSH3 0x461BCD PUSH1 0xE5 SHL DUP2 MSTORE PUSH1 0x4 DUP2 ADD DUP4 SWAP1 MSTORE PUSH1 0x1E PUSH1 0x24 DUP3 ADD MSTORE PUSH32 0x4D61726B65744D616E616765723A20416C726561647920636C61696D65640000 PUSH1 0x44 DUP3 ADD MSTORE PUSH1 0x64 SWAP1 REVERT JUMPDEST PUSH1 0x40 MLOAD PUSH3 0x461BCD PUSH1 0xE5 SHL DUP2 MSTORE PUSH1 0x4 DUP2 ADD DUP4 SWAP1 MSTORE PUSH1 0x1D PUSH1 0x24 DUP3 ADD MSTORE PUSH32 0x4D61726B65744D616E616765723A204E6F2077696E6E696E6720626574000000 PUSH1 0x44 DUP3 ADD MSTORE PUSH1 0x64 SWAP1 REVERT JUMPDEST PUSH1 0x64 DUP3 PUSH1 0x40 MLOAD SWAP1 PUSH3 0x461BCD PUSH1 0xE5 SHL DUP3 MSTORE DUP1 PUSH1 0x4 DUP4 ADD MSTORE PUSH1 0x24 DUP3 ADD MSTORE PUSH32 0x4D61726B65744D616E616765723A204E6F2077696E6E696E67206F7074696F6E PUSH1 0x44 DUP3 ADD MSTORE REVERT JUMPDEST CALLVALUE PUSH2 0x244 JUMPI PUSH1 0x0 CALLDATASIZE PUSH1 0x3 NOT ADD SLT PUSH2 0x244 JUMPI PUSH1 0x40 MLOAD DUP1 PUSH1 0xE SLOAD SWAP2 DUP3 DUP2 MSTORE PUSH1 0x20 DUP1 SWAP2 ADD SWAP3 PUSH1 0xE PUSH1 0x0 MSTORE PUSH32 0xBB7B4A454DC3493923482F07822329ED19E8244EFF582CC204F8554C3620C3FD SWAP2 PUSH1 0x0 SWAP1 JUMPDEST DUP3 DUP3 LT PUSH2 0x1C7D JUMPI PUSH2 0x103F DUP6 PUSH2 0x15CD DUP2 DUP10 SUB DUP3 PUSH2 0x2AD1 JUMP JUMPDEST DUP4 SLOAD DUP7 MSTORE SWAP5 DUP6 ADD SWAP5 PUSH1 0x1 SWAP4 DUP5 ADD SWAP4 SWAP1 SWAP2 ADD SWAP1 PUSH2 0x1C66 JUMP JUMPDEST CALLVALUE PUSH2 0x244 JUMPI PUSH1 0x0 CALLDATASIZE PUSH1 0x3 NOT ADD SLT PUSH2 0x244 JUMPI PUSH1 0x7 SLOAD PUSH1 0x40 MLOAD PUSH1 0x1 PUSH1 0x1 PUSH1 0xA0 SHL SUB SWAP1 SWAP2 AND DUP2 MSTORE PUSH1 0x20 SWAP1 RETURN JUMPDEST CALLVALUE PUSH2 0x244 JUMPI PUSH2 0x1CCB CALLDATASIZE PUSH2 0x297B JUMP JUMPDEST SWAP2 PUSH1 0x0 MSTORE PUSH1 0x3 PUSH1 0x20 MSTORE PUSH1 0x40 PUSH1 0x0 KECCAK256 SWAP1 PUSH1 0x1 DUP1 PUSH1 0xA0 SHL SUB AND PUSH1 0x0 MSTORE PUSH1 0x20 MSTORE PUSH1 0x40 PUSH1 0x0 KECCAK256 SWAP1 PUSH1 0x0 MSTORE PUSH1 0x20 MSTORE PUSH1 0x60 PUSH1 0x40 PUSH1 0x0 KECCAK256 DUP1 SLOAD SWAP1 PUSH1 0xFF PUSH1 0x2 PUSH1 0x1 DUP4 ADD SLOAD SWAP3 ADD SLOAD AND SWAP1 PUSH1 0x40 MLOAD SWAP3 DUP4 MSTORE PUSH1 0x20 DUP4 ADD MSTORE ISZERO ISZERO PUSH1 0x40 DUP3 ADD MSTORE RETURN JUMPDEST CALLVALUE PUSH2 0x244 JUMPI PUSH2 0x19 PUSH2 0x1D31 CALLDATASIZE PUSH2 0x2A66 JUMP JUMPDEST SWAP1 PUSH2 0x2EEF JUMP JUMPDEST CALLVALUE PUSH2 0x244 JUMPI PUSH1 0x0 CALLDATASIZE PUSH1 0x3 NOT ADD SLT PUSH2 0x244 JUMPI PUSH1 0x20 PUSH1 0xB SLOAD PUSH1 0x40 MLOAD SWAP1 DUP2 MSTORE RETURN JUMPDEST CALLVALUE PUSH2 0x244 JUMPI PUSH1 0x20 DUP1 PUSH1 0x3 NOT CALLDATASIZE ADD SLT PUSH2 0x244 JUMPI PUSH1 0x4 CALLDATALOAD DUP1 PUSH1 0x0 MSTORE PUSH1 0x1 SWAP2 DUP3 DUP2 MSTORE PUSH1 0x40 PUSH1 0x0 KECCAK256 PUSH1 0xFF PUSH1 0xB DUP3 ADD SLOAD AND PUSH1 0x5 DUP2 LT ISZERO PUSH2 0x2A5 JUMPI PUSH1 0x3 DUP1 SWAP2 SUB PUSH2 0x1F03 JUMPI DUP4 PUSH1 0x0 MSTORE PUSH1 0x4 DUP4 MSTORE PUSH1 0x40 PUSH1 0x0 KECCAK256 CALLER PUSH1 0x0 MSTORE DUP4 MSTORE PUSH1 0x40 PUSH1 0x0 KECCAK256 SLOAD ISZERO PUSH2 0x1EB4 JUMPI SWAP4 DUP4 PUSH1 0x0 MSTORE PUSH1 0x4 DUP4 MSTORE PUSH1 0x40 PUSH1 0x0 KECCAK256 CALLER PUSH1 0x0 MSTORE DUP4 MSTORE PUSH1 0x40 PUSH1 0x0 KECCAK256 SLOAD SWAP5 DUP5 PUSH1 0x0 MSTORE PUSH1 0x4 DUP5 MSTORE PUSH1 0x40 PUSH1 0x0 KECCAK256 CALLER PUSH1 0x0 MSTORE DUP5 MSTORE PUSH1 0x0 PUSH1 0x40 DUP2 KECCAK256 SSTORE DUP2 DUP1 DUP3 DUP6 ADD SWAP2 JUMPDEST PUSH2 0x1E2E JUMPI JUMPDEST DUP8 DUP8 PUSH32 0xF3F402280EF0A7905E124AA621B65EAEB2725C343E8B36D398ED78C29DAF285C DUP9 PUSH2 0x1B2B DUP10 PUSH1 0x4 PUSH1 0x1 DUP1 PUSH1 0xA0 SHL SUB SWAP2 ADD SLOAD AND DUP6 CALLER PUSH2 0x32C9 JUMP JUMPDEST DUP2 SLOAD DUP2 GT PUSH2 0x1EAF JUMPI SWAP1 PUSH2 0x1EA7 DUP5 SWAP4 SWAP3 PUSH2 0x1EA2 PUSH1 0x40 MLOAD PUSH2 0x1E4C DUP2 PUSH2 0x2A7C JUMP JUMPDEST PUSH1 0x0 DUP2 MSTORE PUSH1 0x2 DUP11 DUP3 ADD PUSH1 0x0 DUP2 MSTORE PUSH1 0x40 DUP4 ADD SWAP1 DUP10 DUP3 MSTORE DUP14 PUSH1 0x0 MSTORE DUP9 DUP14 MSTORE PUSH1 0x40 PUSH1 0x0 KECCAK256 CALLER PUSH1 0x0 MSTORE DUP14 MSTORE PUSH1 0x40 PUSH1 0x0 KECCAK256 DUP7 PUSH1 0x0 MSTORE DUP14 MSTORE PUSH1 0x40 PUSH1 0x0 KECCAK256 SWAP4 MLOAD DUP5 SSTORE MLOAD DUP10 DUP5 ADD SSTORE MLOAD ISZERO ISZERO SWAP2 ADD SWAP1 PUSH1 0xFF DUP1 NOT DUP4 SLOAD AND SWAP2 ISZERO ISZERO AND OR SWAP1 SSTORE JUMP JUMPDEST PUSH2 0x2CCB JUMP JUMPDEST SWAP1 SWAP2 SWAP3 PUSH2 0x1DED JUMP JUMPDEST PUSH2 0x1DF2 JUMP JUMPDEST PUSH1 0x40 MLOAD PUSH3 0x461BCD PUSH1 0xE5 SHL DUP2 MSTORE PUSH1 0x4 DUP2 ADD DUP5 SWAP1 MSTORE PUSH1 0x21 PUSH1 0x24 DUP3 ADD MSTORE PUSH32 0x4D61726B65744D616E616765723A204E6F207374616B6520746F20726566756E PUSH1 0x44 DUP3 ADD MSTORE PUSH1 0x19 PUSH1 0xFA SHL PUSH1 0x64 DUP3 ADD MSTORE PUSH1 0x84 SWAP1 REVERT JUMPDEST PUSH1 0x40 MLOAD PUSH3 0x461BCD PUSH1 0xE5 SHL DUP2 MSTORE PUSH1 0x4 DUP2 ADD DUP5 SWAP1 MSTORE PUSH1 0x23 PUSH1 0x24 DUP3 ADD MSTORE PUSH32 0x4D61726B65744D616E616765723A204D61726B6574206E6F742063616E63656C PUSH1 0x44 DUP3 ADD MSTORE PUSH3 0x1B1959 PUSH1 0xEA SHL PUSH1 0x64 DUP3 ADD MSTORE PUSH1 0x84 SWAP1 REVERT JUMPDEST CALLVALUE PUSH2 0x244 JUMPI PUSH1 0x40 CALLDATASIZE PUSH1 0x3 NOT ADD SLT PUSH2 0x244 JUMPI PUSH1 0x4 CALLDATALOAD PUSH1 0x24 CALLDATALOAD PUSH8 0xFFFFFFFFFFFFFFFF DUP2 GT PUSH2 0x244 JUMPI PUSH2 0x1F88 SWAP1 CALLDATASIZE SWAP1 PUSH1 0x4 ADD PUSH2 0x2B0F JUMP JUMPDEST PUSH2 0x1F90 PUSH2 0x2C92 JUMP JUMPDEST PUSH2 0x1F9D PUSH1 0x9 SLOAD DUP4 LT PUSH2 0x33A9 JUMP JUMPDEST DUP2 PUSH1 0x0 MSTORE PUSH1 0x20 SWAP1 PUSH1 0x1 DUP3 MSTORE PUSH2 0x1FC0 PUSH1 0x1 DUP1 PUSH1 0xA0 SHL SUB PUSH1 0x40 PUSH1 0x0 KECCAK256 SLOAD AND ISZERO ISZERO PUSH2 0x33F4 JUMP JUMPDEST DUP3 PUSH1 0x0 MSTORE PUSH1 0x1 DUP3 MSTORE PUSH1 0xFF PUSH1 0xB PUSH1 0x40 PUSH1 0x0 KECCAK256 ADD SLOAD AND PUSH1 0x5 DUP2 LT ISZERO PUSH2 0x2A5 JUMPI PUSH1 0x4 EQ PUSH2 0x208C JUMPI DUP3 PUSH1 0x0 MSTORE PUSH1 0x1 DUP3 MSTORE PUSH1 0xB PUSH1 0x40 PUSH1 0x0 KECCAK256 ADD PUSH1 0x4 PUSH1 0xFF NOT DUP3 SLOAD AND OR SWAP1 SSTORE PUSH1 0xF DUP3 MSTORE TIMESTAMP PUSH1 0x40 PUSH1 0x0 KECCAK256 SSTORE PUSH1 0xE SLOAD SWAP2 PUSH1 0x1 PUSH1 0x40 SHL DUP4 LT ISZERO PUSH2 0x817 JUMPI PUSH2 0x204F DUP5 PUSH2 0x664 DUP6 PUSH1 0x1 PUSH32 0x4C4561C5B0048424071C1115E9F1E325486E21C21333D968F21097B7B72D12AD SWAP8 ADD PUSH1 0xE SSTORE PUSH2 0x2A17 JUMP JUMPDEST DUP4 PUSH1 0x0 MSTORE PUSH1 0xC DUP2 MSTORE PUSH1 0xFF PUSH1 0x40 PUSH1 0x0 KECCAK256 SLOAD AND PUSH2 0x207E JUMPI JUMPDEST PUSH2 0x2079 PUSH1 0x40 MLOAD SWAP3 DUP3 DUP5 SWAP4 DUP5 MSTORE DUP4 ADD SWAP1 PUSH2 0x2C36 JUMP JUMPDEST SUB SWAP1 LOG2 STOP JUMPDEST PUSH2 0x2087 DUP5 PUSH2 0x344C JUMP JUMPDEST PUSH2 0x2065 JUMP JUMPDEST PUSH1 0x40 MLOAD PUSH3 0x461BCD PUSH1 0xE5 SHL DUP2 MSTORE PUSH1 0x4 DUP2 ADD DUP4 SWAP1 MSTORE PUSH1 0x1E PUSH1 0x24 DUP3 ADD MSTORE PUSH32 0x4D61726B65744D616E616765723A20416C72656164792064656C657465640000 PUSH1 0x44 DUP3 ADD MSTORE PUSH1 0x64 SWAP1 REVERT JUMPDEST CALLVALUE PUSH2 0x244 JUMPI PUSH1 0x0 CALLDATASIZE PUSH1 0x3 NOT ADD SLT PUSH2 0x244 JUMPI PUSH1 0x8 SLOAD PUSH1 0x40 MLOAD PUSH1 0x1 PUSH1 0x1 PUSH1 0xA0 SHL SUB SWAP1 SWAP2 AND DUP2 MSTORE PUSH1 0x20 SWAP1 RETURN JUMPDEST PUSH2 0x2103 CALLDATASIZE PUSH2 0x2A66 JUMP JUMPDEST SWAP1 DUP1 PUSH1 0x0 MSTORE PUSH1 0x20 PUSH1 0x1 DUP2 MSTORE PUSH1 0x40 PUSH1 0x0 KECCAK256 SWAP1 PUSH1 0xFF PUSH1 0xB DUP4 ADD SLOAD AND PUSH1 0x5 DUP2 LT ISZERO PUSH2 0x2A5 JUMPI PUSH2 0x212F SWAP1 ISZERO PUSH2 0x2DA2 JUMP JUMPDEST PUSH1 0x9 DUP3 ADD SLOAD TIMESTAMP LT ISZERO PUSH2 0x2346 JUMPI DUP4 ISZERO ISZERO DUP1 PUSH2 0x2338 JUMPI JUMPDEST ISZERO PUSH2 0x22F4 JUMPI PUSH1 0x4 DUP3 ADD SLOAD PUSH1 0x1 PUSH1 0x1 PUSH1 0xA0 SHL SUB AND DUP1 PUSH2 0x22DC JUMPI POP PUSH1 0x5 CALLVALUE SWAP3 JUMPDEST ADD SLOAD DUP3 LT PUSH2 0x228D JUMPI DUP3 PUSH1 0x0 MSTORE PUSH1 0x3 DUP2 MSTORE PUSH1 0x40 PUSH1 0x0 KECCAK256 CALLER PUSH1 0x0 MSTORE DUP2 MSTORE PUSH1 0x40 PUSH1 0x0 KECCAK256 DUP5 PUSH1 0x0 MSTORE DUP2 MSTORE PUSH1 0x40 PUSH1 0x0 KECCAK256 PUSH2 0x2198 DUP4 DUP3 SLOAD PUSH2 0x2CBE JUMP JUMPDEST SWAP1 SSTORE DUP3 PUSH1 0x0 MSTORE PUSH1 0x3 DUP2 MSTORE PUSH1 0x40 PUSH1 0x0 KECCAK256 CALLER PUSH1 0x0 MSTORE DUP2 MSTORE PUSH1 0x40 PUSH1 0x0 KECCAK256 DUP5 PUSH1 0x0 MSTORE DUP2 MSTORE DUP4 PUSH1 0x1 PUSH1 0x40 PUSH1 0x0 KECCAK256 ADD SSTORE DUP3 PUSH1 0x0 MSTORE PUSH1 0x4 DUP2 MSTORE PUSH1 0x40 PUSH1 0x0 KECCAK256 CALLER PUSH1 0x0 MSTORE DUP2 MSTORE PUSH1 0x40 PUSH1 0x0 KECCAK256 PUSH2 0x21E5 DUP4 DUP3 SLOAD PUSH2 0x2CBE JUMP JUMPDEST SWAP1 SSTORE DUP3 PUSH1 0x0 MSTORE PUSH1 0x4 DUP2 MSTORE PUSH1 0x40 PUSH1 0x0 KECCAK256 CALLER PUSH1 0x0 MSTORE DUP2 MSTORE DUP2 PUSH1 0x40 PUSH1 0x0 KECCAK256 SLOAD EQ PUSH2 0x225D JUMPI JUMPDEST DUP3 PUSH1 0x0 MSTORE PUSH1 0x2 DUP2 MSTORE PUSH1 0x40 PUSH1 0x0 KECCAK256 DUP5 PUSH1 0x0 MSTORE DUP2 MSTORE PUSH1 0x40 PUSH1 0x0 KECCAK256 PUSH2 0x222A DUP4 DUP3 SLOAD PUSH2 0x2CBE JUMP JUMPDEST SWAP1 SSTORE PUSH1 0x40 MLOAD SWAP4 DUP5 MSTORE DUP4 ADD MSTORE PUSH32 0x1B8A9031CB9351278D70A994F81536E9E08C91162E64F92B2FE4766FB7A891B4 PUSH1 0x40 CALLER SWAP4 LOG3 STOP JUMPDEST PUSH1 0xD DUP2 MSTORE PUSH1 0x40 PUSH1 0x0 KECCAK256 DUP1 SLOAD PUSH1 0x1 PUSH1 0x40 SHL DUP2 LT ISZERO PUSH2 0x817 JUMPI PUSH2 0x664 DUP2 PUSH2 0x2288 SWAP4 PUSH1 0x1 DUP9 SWAP5 ADD DUP2 SSTORE PUSH2 0x2A4E JUMP JUMPDEST PUSH2 0x2207 JUMP JUMPDEST PUSH1 0x84 SWAP1 PUSH1 0x40 MLOAD SWAP1 PUSH3 0x461BCD PUSH1 0xE5 SHL DUP3 MSTORE PUSH1 0x4 DUP3 ADD MSTORE PUSH1 0x22 PUSH1 0x24 DUP3 ADD MSTORE PUSH32 0x4D61726B65744D616E616765723A2042656C6F77206D696E696D756D20737461 PUSH1 0x44 DUP3 ADD MSTORE PUSH2 0x6B65 PUSH1 0xF0 SHL PUSH1 0x64 DUP3 ADD MSTORE REVERT JUMPDEST SWAP2 PUSH1 0x5 SWAP1 PUSH2 0x22EF CALLVALUE DUP1 SWAP6 ADDRESS SWAP1 CALLER SWAP1 PUSH2 0x2CF1 JUMP JUMPDEST PUSH2 0x2162 JUMP JUMPDEST PUSH1 0x64 SWAP1 PUSH1 0x40 MLOAD SWAP1 PUSH3 0x461BCD PUSH1 0xE5 SHL DUP3 MSTORE PUSH1 0x4 DUP3 ADD MSTORE PUSH1 0x1D PUSH1 0x24 DUP3 ADD MSTORE PUSH32 0x4D61726B65744D616E616765723A20496E76616C6964206F7074696F6E000000 PUSH1 0x44 DUP3 ADD MSTORE REVERT JUMPDEST POP PUSH1 0x3 DUP3 ADD SLOAD DUP5 GT ISZERO PUSH2 0x2144 JUMP JUMPDEST PUSH1 0x84 SWAP1 PUSH1 0x40 MLOAD SWAP1 PUSH3 0x461BCD PUSH1 0xE5 SHL DUP3 MSTORE PUSH1 0x4 DUP3 ADD MSTORE PUSH1 0x23 PUSH1 0x24 DUP3 ADD MSTORE PUSH32 0x4D61726B65744D616E616765723A2042657474696E6720706572696F6420656E PUSH1 0x44 DUP3 ADD MSTORE PUSH3 0x191959 PUSH1 0xEA SHL PUSH1 0x64 DUP3 ADD MSTORE REVERT JUMPDEST CALLVALUE PUSH2 0x244 JUMPI PUSH1 0x20 CALLDATASIZE PUSH1 0x3 NOT ADD SLT PUSH2 0x244 JUMPI PUSH1 0x4 CALLDATALOAD PUSH1 0xB SLOAD DUP2 LT ISZERO PUSH2 0x244 JUMPI PUSH2 0x165B PUSH1 0x20 SWAP2 PUSH2 0x29E0 JUMP JUMPDEST CALLVALUE PUSH2 0x244 JUMPI PUSH1 0x20 DUP1 PUSH1 0x3 NOT CALLDATASIZE ADD SLT PUSH2 0x244 JUMPI PUSH1 0x4 CALLDATALOAD DUP1 PUSH1 0x0 MSTORE PUSH1 0x1 DUP3 MSTORE PUSH1 0x40 PUSH1 0x0 KECCAK256 PUSH1 0x0 SWAP2 PUSH1 0x3 PUSH1 0x1 SWAP3 ADD SLOAD SWAP1 JUMPDEST DUP2 DUP4 GT ISZERO PUSH2 0x2400 JUMPI POP POP POP PUSH1 0x40 MLOAD SWAP1 DUP2 MSTORE RETURN JUMPDEST SWAP1 SWAP2 SWAP3 PUSH2 0x2429 PUSH2 0x242F SWAP2 DUP4 PUSH1 0x0 MSTORE PUSH1 0x2 DUP8 MSTORE PUSH1 0x40 PUSH1 0x0 KECCAK256 DUP7 PUSH1 0x0 MSTORE DUP8 MSTORE PUSH1 0x40 PUSH1 0x0 KECCAK256 SLOAD SWAP1 PUSH2 0x2CBE JUMP JUMPDEST SWAP4 PUSH2 0x2CCB JUMP JUMPDEST SWAP2 SWAP1 PUSH2 0x23ED JUMP JUMPDEST CALLVALUE PUSH2 0x244 JUMPI PUSH1 0x20 DUP1 PUSH1 0x3 NOT CALLDATASIZE ADD SLT PUSH2 0x244 JUMPI PUSH1 0x1 PUSH1 0x1 PUSH1 0xA0 SHL SUB PUSH2 0x2458 PUSH2 0x2965 JUMP JUMPDEST AND PUSH1 0x0 MSTORE PUSH1 0xD DUP2 MSTORE PUSH1 0x40 PUSH1 0x0 KECCAK256 SWAP1 PUSH1 0x40 MLOAD SWAP1 DUP2 DUP2 DUP5 SLOAD SWAP2 DUP3 DUP2 MSTORE ADD SWAP4 PUSH1 0x0 MSTORE DUP2 PUSH1 0x0 KECCAK256 SWAP2 PUSH1 0x0 SWAP1 JUMPDEST DUP3 DUP3 LT PUSH2 0x2497 JUMPI PUSH2 0x103F DUP6 PUSH2 0x15CD DUP2 DUP10 SUB DUP3 PUSH2 0x2AD1 JUMP JUMPDEST DUP4 SLOAD DUP7 MSTORE SWAP5 DUP6 ADD SWAP5 PUSH1 0x1 SWAP4 DUP5 ADD SWAP4 SWAP1 SWAP2 ADD SWAP1 PUSH2 0x2480 JUMP JUMPDEST CALLVALUE PUSH2 0x244 JUMPI PUSH1 0x0 CALLDATASIZE PUSH1 0x3 NOT ADD SLT PUSH2 0x244 JUMPI PUSH1 0x20 PUSH1 0xA SLOAD PUSH1 0x40 MLOAD SWAP1 DUP2 MSTORE RETURN JUMPDEST CALLVALUE PUSH2 0x244 JUMPI PUSH1 0x20 CALLDATASIZE PUSH1 0x3 NOT ADD SLT PUSH2 0x244 JUMPI PUSH1 0x1 PUSH1 0x1 PUSH1 0xA0 SHL SUB PUSH2 0x24ED PUSH2 0x2965 JUMP JUMPDEST AND PUSH1 0x0 MSTORE PUSH1 0x6 PUSH1 0x20 MSTORE PUSH1 0x20 PUSH1 0xFF PUSH1 0x40 PUSH1 0x0 KECCAK256 SLOAD AND PUSH1 0x40 MLOAD SWAP1 ISZERO ISZERO DUP2 MSTORE RETURN JUMPDEST CALLVALUE PUSH2 0x244 JUMPI PUSH1 0x60 PUSH2 0x251B CALLDATASIZE PUSH2 0x297B JUMP JUMPDEST SWAP1 PUSH1 0x40 MLOAD SWAP3 PUSH2 0x2529 DUP5 PUSH2 0x2A7C JUMP JUMPDEST PUSH1 0x0 DUP5 MSTORE PUSH1 0x0 PUSH1 0x40 PUSH1 0x20 SWAP6 DUP3 DUP8 DUP3 ADD MSTORE ADD MSTORE PUSH1 0x0 MSTORE PUSH1 0x3 DUP4 MSTORE PUSH1 0x40 PUSH1 0x0 KECCAK256 SWAP1 PUSH1 0x1 DUP1 PUSH1 0xA0 SHL SUB AND PUSH1 0x0 MSTORE DUP3 MSTORE PUSH1 0x40 PUSH1 0x0 KECCAK256 SWAP1 PUSH1 0x0 MSTORE DUP2 MSTORE PUSH1 0x40 PUSH1 0x0 KECCAK256 SWAP1 PUSH1 0x40 MLOAD SWAP1 PUSH2 0x2573 DUP3 PUSH2 0x2A7C JUMP JUMPDEST DUP3 SLOAD SWAP3 DUP4 DUP4 MSTORE PUSH1 0x40 PUSH1 0xFF PUSH1 0x2 PUSH1 0x1 DUP5 ADD SLOAD SWAP4 DUP6 DUP8 ADD SWAP5 DUP6 MSTORE ADD SLOAD AND SWAP4 ADD SWAP3 ISZERO ISZERO DUP4 MSTORE PUSH1 0x40 MLOAD SWAP4 DUP5 MSTORE MLOAD SWAP1 DUP4 ADD MSTORE MLOAD ISZERO ISZERO PUSH1 0x40 DUP3 ADD MSTORE RETURN JUMPDEST CALLVALUE PUSH2 0x244 JUMPI PUSH1 0x20 CALLDATASIZE PUSH1 0x3 NOT ADD SLT PUSH2 0x244 JUMPI PUSH1 0x4 CALLDATALOAD DUP1 PUSH1 0x0 MSTORE PUSH1 0x1 PUSH1 0x20 MSTORE PUSH1 0x40 PUSH1 0x0 KECCAK256 PUSH1 0xB DUP2 ADD SWAP1 DUP2 SLOAD SWAP1 PUSH1 0xFF DUP3 AND SWAP1 PUSH1 0x5 DUP3 LT ISZERO PUSH2 0x2A5 JUMPI PUSH2 0x25EE PUSH1 0x9 SWAP3 ISZERO PUSH2 0x2DA2 JUMP JUMPDEST ADD SLOAD DUP1 TIMESTAMP LT PUSH2 0x262D JUMPI PUSH31 0xB6FEAE4BEC70344A7D0E99F4C0237ADAAEEE2FBB258266BE400BD8612A332 SWAP3 PUSH1 0x1 PUSH1 0x20 SWAP4 PUSH1 0xFF NOT AND OR SWAP1 SSTORE PUSH1 0x40 MLOAD SWAP1 DUP2 MSTORE LOG2 STOP JUMPDEST PUSH1 0x40 MLOAD PUSH3 0x461BCD PUSH1 0xE5 SHL DUP2 MSTORE PUSH1 0x20 PUSH1 0x4 DUP3 ADD MSTORE PUSH1 0x27 PUSH1 0x24 DUP3 ADD MSTORE PUSH32 0x4D61726B65744D616E616765723A2042657474696E6720706572696F64206E6F PUSH1 0x44 DUP3 ADD MSTORE PUSH7 0x1D08195B991959 PUSH1 0xCA SHL PUSH1 0x64 DUP3 ADD MSTORE PUSH1 0x84 SWAP1 REVERT JUMPDEST CALLVALUE PUSH2 0x244 JUMPI PUSH1 0x20 CALLDATASIZE PUSH1 0x3 NOT ADD SLT PUSH2 0x244 JUMPI PUSH1 0x4 CALLDATALOAD PUSH1 0x0 MSTORE PUSH1 0xC PUSH1 0x20 MSTORE PUSH1 0x20 PUSH1 0xFF PUSH1 0x40 PUSH1 0x0 KECCAK256 SLOAD AND PUSH1 0x40 MLOAD SWAP1 ISZERO ISZERO DUP2 MSTORE RETURN JUMPDEST CALLVALUE PUSH2 0x244 JUMPI PUSH1 0x20 DUP1 PUSH1 0x3 NOT CALLDATASIZE ADD SLT PUSH2 0x244 JUMPI PUSH1 0x4 CALLDATALOAD SWAP1 PUSH2 0x26D1 PUSH2 0x2C92 JUMP JUMPDEST PUSH2 0x26DE PUSH1 0x9 SLOAD DUP4 LT PUSH2 0x33A9 JUMP JUMPDEST PUSH1 0x0 DUP3 DUP2 MSTORE PUSH1 0x1 DUP1 DUP4 MSTORE PUSH1 0x40 SWAP1 SWAP2 KECCAK256 SLOAD PUSH2 0x2702 SWAP1 PUSH1 0x1 PUSH1 0x1 PUSH1 0xA0 SHL SUB AND ISZERO ISZERO PUSH2 0x33F4 JUMP JUMPDEST DUP3 PUSH1 0x0 MSTORE DUP1 DUP3 MSTORE PUSH1 0xFF PUSH1 0xB PUSH1 0x40 PUSH1 0x0 KECCAK256 ADD SLOAD AND PUSH1 0x5 DUP2 LT ISZERO PUSH2 0x2A5 JUMPI PUSH2 0x272B PUSH1 0x2 DUP1 SWAP3 EQ PUSH2 0x310F JUMP JUMPDEST DUP4 PUSH1 0x0 MSTORE DUP2 DUP4 MSTORE PUSH1 0xA SWAP1 DUP2 PUSH1 0x40 PUSH1 0x0 KECCAK256 ADD SLOAD PUSH3 0x278D00 DUP2 ADD DUP1 SWAP2 GT PUSH2 0x8EA JUMPI TIMESTAMP LT PUSH2 0x2912 JUMPI DUP5 PUSH1 0x0 MSTORE DUP3 DUP5 MSTORE PUSH1 0x0 PUSH1 0xD PUSH1 0x40 DUP3 KECCAK256 DUP3 DUP2 SSTORE DUP6 DUP2 ADD PUSH2 0x276F DUP2 SLOAD PUSH2 0x2B56 JUMP JUMPDEST SWAP1 DUP2 PUSH2 0x28D7 JUMPI JUMPDEST POP POP DUP3 DUP5 DUP3 ADD SSTORE DUP3 PUSH1 0x3 DUP3 ADD SSTORE DUP3 PUSH1 0x4 DUP3 ADD SSTORE DUP3 PUSH1 0x5 DUP3 ADD SSTORE DUP3 PUSH1 0x6 DUP3 ADD SSTORE DUP3 PUSH1 0x7 DUP3 ADD SSTORE DUP3 PUSH1 0x8 DUP3 ADD SSTORE DUP3 PUSH1 0x9 DUP3 ADD SSTORE DUP3 DUP6 DUP3 ADD SSTORE DUP3 PUSH1 0xB DUP3 ADD SSTORE DUP3 PUSH1 0xC DUP3 ADD SSTORE ADD SSTORE DUP3 JUMPDEST DUP3 DUP2 GT ISZERO PUSH2 0x28B0 JUMPI POP POP POP DUP3 PUSH1 0x0 MSTORE PUSH1 0xC DUP3 MSTORE PUSH1 0xFF PUSH1 0x40 PUSH1 0x0 KECCAK256 SLOAD AND PUSH2 0x28A2 JUMPI JUMPDEST PUSH1 0x10 SLOAD SWAP1 PUSH1 0x1 PUSH1 0x40 SHL DUP3 LT ISZERO PUSH2 0x817 JUMPI DUP2 ADD DUP1 PUSH1 0x10 SSTORE DUP2 LT ISZERO PUSH2 0x288C JUMPI PUSH32 0x4C4561C5B0048424071C1115E9F1E325486E21C21333D968F21097B7B72D12AD SWAP2 DUP4 PUSH1 0x80 SWAP3 PUSH1 0x10 PUSH1 0x0 MSTORE PUSH32 0x1B6847DC741A1B0CD08D278845F9D819D87B734759AFB55FE2DE5CB82A9AE672 ADD SSTORE PUSH1 0x26 PUSH1 0x40 MLOAD SWAP2 DUP1 DUP4 MSTORE DUP3 ADD MSTORE PUSH32 0x5065726D616E656E746C792072656D6F76656420616674657220636C61696D20 PUSH1 0x40 DUP3 ADD MSTORE PUSH6 0x1C195C9A5BD9 PUSH1 0xD2 SHL PUSH1 0x60 DUP3 ADD MSTORE LOG2 STOP JUMPDEST PUSH4 0x4E487B71 PUSH1 0xE0 SHL PUSH1 0x0 MSTORE PUSH1 0x32 PUSH1 0x4 MSTORE PUSH1 0x24 PUSH1 0x0 REVERT JUMPDEST PUSH2 0x28AB DUP4 PUSH2 0x344C JUMP JUMPDEST PUSH2 0x27DD JUMP JUMPDEST PUSH2 0x28D2 SWAP1 DUP7 PUSH1 0x0 MSTORE DUP3 DUP7 MSTORE PUSH1 0x40 PUSH1 0x0 KECCAK256 DUP2 PUSH1 0x0 MSTORE DUP7 MSTORE PUSH1 0x0 PUSH1 0x40 DUP2 KECCAK256 SSTORE PUSH2 0x2CCB JUMP JUMPDEST PUSH2 0x27BC JUMP JUMPDEST DUP2 PUSH1 0x1F DUP7 SWAP4 GT PUSH1 0x1 EQ PUSH2 0x28EE JUMPI POP SSTORE JUMPDEST DUP9 DUP1 PUSH2 0x2776 JUMP JUMPDEST SWAP1 DUP1 DUP4 SWAP2 DUP3 MSTORE PUSH2 0x290B PUSH1 0x1F DUP13 DUP5 KECCAK256 SWAP5 ADD PUSH1 0x5 SHR DUP5 ADD DUP12 DUP6 ADD PUSH2 0x2CDA JUMP JUMPDEST SSTORE SSTORE PUSH2 0x28E7 JUMP JUMPDEST PUSH1 0x40 MLOAD PUSH3 0x461BCD PUSH1 0xE5 SHL DUP2 MSTORE PUSH1 0x4 DUP2 ADD DUP6 SWAP1 MSTORE PUSH1 0x25 PUSH1 0x24 DUP3 ADD MSTORE PUSH32 0x4D61726B65744D616E616765723A20436C61696D20706572696F64206E6F7420 PUSH1 0x44 DUP3 ADD MSTORE PUSH5 0x195B991959 PUSH1 0xDA SHL PUSH1 0x64 DUP3 ADD MSTORE PUSH1 0x84 SWAP1 REVERT JUMPDEST PUSH1 0x4 CALLDATALOAD SWAP1 PUSH1 0x1 PUSH1 0x1 PUSH1 0xA0 SHL SUB DUP3 AND DUP3 SUB PUSH2 0x244 JUMPI JUMP JUMPDEST PUSH1 0x60 SWAP1 PUSH1 0x3 NOT ADD SLT PUSH2 0x244 JUMPI PUSH1 0x4 CALLDATALOAD SWAP1 PUSH1 0x24 CALLDATALOAD PUSH1 0x1 PUSH1 0x1 PUSH1 0xA0 SHL SUB DUP2 AND DUP2 SUB PUSH2 0x244 JUMPI SWAP1 PUSH1 0x44 CALLDATALOAD SWAP1 JUMP JUMPDEST PUSH1 0x20 SWAP1 DUP2 PUSH1 0x40 DUP2 DUP4 ADD SWAP3 DUP3 DUP2 MSTORE DUP6 MLOAD DUP1 SWAP5 MSTORE ADD SWAP4 ADD SWAP2 PUSH1 0x0 JUMPDEST DUP3 DUP2 LT PUSH2 0x29CC JUMPI POP POP POP POP SWAP1 JUMP JUMPDEST DUP4 MLOAD DUP6 MSTORE SWAP4 DUP2 ADD SWAP4 SWAP3 DUP2 ADD SWAP3 PUSH1 0x1 ADD PUSH2 0x29BE JUMP JUMPDEST PUSH1 0xB SLOAD DUP2 LT ISZERO PUSH2 0x288C JUMPI PUSH1 0xB PUSH1 0x0 MSTORE PUSH32 0x175B7A638427703F0DBE7BB9BBF987A2551717B34E79F33B5B1008D1FA01DB9 ADD SWAP1 PUSH1 0x0 SWAP1 JUMP JUMPDEST PUSH1 0xE SLOAD DUP2 LT ISZERO PUSH2 0x288C JUMPI PUSH1 0xE PUSH1 0x0 MSTORE PUSH32 0xBB7B4A454DC3493923482F07822329ED19E8244EFF582CC204F8554C3620C3FD ADD SWAP1 PUSH1 0x0 SWAP1 JUMP JUMPDEST DUP1 SLOAD DUP3 LT ISZERO PUSH2 0x288C JUMPI PUSH1 0x0 MSTORE PUSH1 0x20 PUSH1 0x0 KECCAK256 ADD SWAP1 PUSH1 0x0 SWAP1 JUMP JUMPDEST PUSH1 0x40 SWAP1 PUSH1 0x3 NOT ADD SLT PUSH2 0x244 JUMPI PUSH1 0x4 CALLDATALOAD SWAP1 PUSH1 0x24 CALLDATALOAD SWAP1 JUMP JUMPDEST PUSH1 0x60 DUP2 ADD SWAP1 DUP2 LT PUSH8 0xFFFFFFFFFFFFFFFF DUP3 GT OR PUSH2 0x817 JUMPI PUSH1 0x40 MSTORE JUMP JUMPDEST PUSH2 0x1C0 DUP2 ADD SWAP1 DUP2 LT PUSH8 0xFFFFFFFFFFFFFFFF DUP3 GT OR PUSH2 0x817 JUMPI PUSH1 0x40 MSTORE JUMP JUMPDEST PUSH1 0x40 DUP2 ADD SWAP1 DUP2 LT PUSH8 0xFFFFFFFFFFFFFFFF DUP3 GT OR PUSH2 0x817 JUMPI PUSH1 0x40 MSTORE JUMP JUMPDEST SWAP1 PUSH1 0x1F DUP1 NOT SWAP2 ADD AND DUP2 ADD SWAP1 DUP2 LT PUSH8 0xFFFFFFFFFFFFFFFF DUP3 GT OR PUSH2 0x817 JUMPI PUSH1 0x40 MSTORE JUMP JUMPDEST PUSH8 0xFFFFFFFFFFFFFFFF DUP2 GT PUSH2 0x817 JUMPI PUSH1 0x1F ADD PUSH1 0x1F NOT AND PUSH1 0x20 ADD SWAP1 JUMP JUMPDEST DUP2 PUSH1 0x1F DUP3 ADD SLT ISZERO PUSH2 0x244 JUMPI DUP1 CALLDATALOAD SWAP1 PUSH2 0x2B26 DUP3 PUSH2 0x2AF3 JUMP JUMPDEST SWAP3 PUSH2 0x2B34 PUSH1 0x40 MLOAD SWAP5 DUP6 PUSH2 0x2AD1 JUMP JUMPDEST DUP3 DUP5 MSTORE PUSH1 0x20 DUP4 DUP4 ADD ADD GT PUSH2 0x244 JUMPI DUP2 PUSH1 0x0 SWAP3 PUSH1 0x20 DUP1 SWAP4 ADD DUP4 DUP7 ADD CALLDATACOPY DUP4 ADD ADD MSTORE SWAP1 JUMP JUMPDEST SWAP1 PUSH1 0x1 DUP3 DUP2 SHR SWAP3 AND DUP1 ISZERO PUSH2 0x2B86 JUMPI JUMPDEST PUSH1 0x20 DUP4 LT EQ PUSH2 0x2B70 JUMPI JUMP JUMPDEST PUSH4 0x4E487B71 PUSH1 0xE0 SHL PUSH1 0x0 MSTORE PUSH1 0x22 PUSH1 0x4 MSTORE PUSH1 0x24 PUSH1 0x0 REVERT JUMPDEST SWAP2 PUSH1 0x7F AND SWAP2 PUSH2 0x2B65 JUMP JUMPDEST SWAP1 PUSH1 0x40 MLOAD SWAP2 DUP3 PUSH1 0x0 DUP3 SLOAD SWAP3 PUSH2 0x2BA4 DUP5 PUSH2 0x2B56 JUMP JUMPDEST SWAP1 DUP2 DUP5 MSTORE PUSH1 0x1 SWAP5 DUP6 DUP2 AND SWAP1 DUP2 PUSH1 0x0 EQ PUSH2 0x2C13 JUMPI POP PUSH1 0x1 EQ PUSH2 0x2BD0 JUMPI JUMPDEST POP POP PUSH2 0x2BCE SWAP3 POP SUB DUP4 PUSH2 0x2AD1 JUMP JUMPDEST JUMP JUMPDEST SWAP1 SWAP4 SWAP2 POP PUSH1 0x0 MSTORE PUSH1 0x20 SWAP1 DUP2 PUSH1 0x0 KECCAK256 SWAP4 PUSH1 0x0 SWAP2 JUMPDEST DUP2 DUP4 LT PUSH2 0x2BFB JUMPI POP POP PUSH2 0x2BCE SWAP4 POP DUP3 ADD ADD CODESIZE DUP1 PUSH2 0x2BC0 JUMP JUMPDEST DUP6 SLOAD DUP9 DUP5 ADD DUP6 ADD MSTORE SWAP5 DUP6 ADD SWAP5 DUP8 SWAP5 POP SWAP2 DUP4 ADD SWAP2 PUSH2 0x2BE3 JUMP JUMPDEST SWAP2 POP POP PUSH2 0x2BCE SWAP5 POP PUSH1 0x20 SWAP3 POP PUSH1 0xFF NOT AND DUP3 DUP5 ADD MSTORE ISZERO ISZERO PUSH1 0x5 SHL DUP3 ADD ADD CODESIZE DUP1 PUSH2 0x2BC0 JUMP JUMPDEST SWAP2 SWAP1 DUP3 MLOAD SWAP3 DUP4 DUP3 MSTORE PUSH1 0x0 JUMPDEST DUP5 DUP2 LT PUSH2 0x2C62 JUMPI POP POP DUP3 PUSH1 0x0 PUSH1 0x20 DUP1 SWAP5 SWAP6 DUP5 ADD ADD MSTORE PUSH1 0x1F DUP1 NOT SWAP2 ADD AND ADD ADD SWAP1 JUMP JUMPDEST PUSH1 0x20 DUP2 DUP4 ADD DUP2 ADD MLOAD DUP5 DUP4 ADD DUP3 ADD MSTORE ADD PUSH2 0x2C41 JUMP JUMPDEST SWAP1 PUSH1 0x5 DUP3 LT ISZERO PUSH2 0x2A5 JUMPI MSTORE JUMP JUMPDEST PUSH1 0x24 CALLDATALOAD SWAP1 DUP2 ISZERO ISZERO DUP3 SUB PUSH2 0x244 JUMPI JUMP JUMPDEST PUSH1 0x0 SLOAD PUSH1 0x1 PUSH1 0x1 PUSH1 0xA0 SHL SUB AND CALLER SUB PUSH2 0x2CA6 JUMPI JUMP JUMPDEST PUSH1 0x40 MLOAD PUSH4 0x118CDAA7 PUSH1 0xE0 SHL DUP2 MSTORE CALLER PUSH1 0x4 DUP3 ADD MSTORE PUSH1 0x24 SWAP1 REVERT JUMPDEST SWAP2 SWAP1 DUP3 ADD DUP1 SWAP3 GT PUSH2 0x8EA JUMPI JUMP JUMPDEST PUSH1 0x0 NOT DUP2 EQ PUSH2 0x8EA JUMPI PUSH1 0x1 ADD SWAP1 JUMP JUMPDEST DUP2 DUP2 LT PUSH2 0x2CE5 JUMPI POP POP JUMP JUMPDEST PUSH1 0x0 DUP2 SSTORE PUSH1 0x1 ADD PUSH2 0x2CDA JUMP JUMPDEST PUSH1 0x40 MLOAD PUSH4 0x23B872DD PUSH1 0xE0 SHL PUSH1 0x20 DUP3 ADD MSTORE PUSH1 0x1 PUSH1 0x1 PUSH1 0xA0 SHL SUB SWAP3 DUP4 AND PUSH1 0x24 DUP3 ADD MSTORE SWAP3 SWAP1 SWAP2 AND PUSH1 0x44 DUP4 ADD MSTORE PUSH1 0x64 DUP1 DUP4 ADD SWAP4 SWAP1 SWAP4 MSTORE SWAP2 DUP2 MSTORE PUSH1 0xA0 DUP2 ADD SWAP2 DUP2 DUP4 LT PUSH8 0xFFFFFFFFFFFFFFFF DUP5 GT OR PUSH2 0x817 JUMPI PUSH2 0x2BCE SWAP3 PUSH1 0x40 MSTORE JUMPDEST SWAP1 PUSH1 0x0 PUSH1 0x20 SWAP2 DUP3 DUP2 MLOAD SWAP2 ADD DUP3 DUP6 GAS CALL ISZERO PUSH2 0x1531 JUMPI PUSH1 0x0 MLOAD RETURNDATASIZE PUSH2 0x2D99 JUMPI POP PUSH1 0x1 PUSH1 0x1 PUSH1 0xA0 SHL SUB DUP2 AND EXTCODESIZE ISZERO JUMPDEST PUSH2 0x2D77 JUMPI POP JUMP JUMPDEST PUSH1 0x40 MLOAD PUSH4 0x5274AFE7 PUSH1 0xE0 SHL DUP2 MSTORE PUSH1 0x1 PUSH1 0x1 PUSH1 0xA0 SHL SUB SWAP1 SWAP2 AND PUSH1 0x4 DUP3 ADD MSTORE PUSH1 0x24 SWAP1 REVERT JUMPDEST PUSH1 0x1 EQ ISZERO PUSH2 0x2D70 JUMP JUMPDEST ISZERO PUSH2 0x2DA9 JUMPI JUMP JUMPDEST PUSH1 0x64 PUSH1 0x40 MLOAD PUSH3 0x461BCD PUSH1 0xE5 SHL DUP2 MSTORE PUSH1 0x20 PUSH1 0x4 DUP3 ADD MSTORE PUSH1 0x20 PUSH1 0x24 DUP3 ADD MSTORE PUSH32 0x4D61726B65744D616E616765723A204D61726B6574206E6F7420616374697665 PUSH1 0x44 DUP3 ADD MSTORE REVERT JUMPDEST ISZERO PUSH2 0x2DF4 JUMPI JUMP JUMPDEST PUSH1 0x40 MLOAD PUSH3 0x461BCD PUSH1 0xE5 SHL DUP2 MSTORE PUSH1 0x20 PUSH1 0x4 DUP3 ADD MSTORE PUSH1 0x28 PUSH1 0x24 DUP3 ADD MSTORE PUSH32 0x4D61726B65744D616E616765723A204D61726B6574206E6F7420696E20656E64 PUSH1 0x44 DUP3 ADD MSTORE PUSH8 0x6564207374617465 PUSH1 0xC0 SHL PUSH1 0x64 DUP3 ADD MSTORE PUSH1 0x84 SWAP1 REVERT JUMPDEST ISZERO PUSH2 0x2E51 JUMPI JUMP JUMPDEST PUSH1 0x40 MLOAD PUSH3 0x461BCD PUSH1 0xE5 SHL DUP2 MSTORE PUSH1 0x20 PUSH1 0x4 DUP3 ADD MSTORE PUSH1 0x1F PUSH1 0x24 DUP3 ADD MSTORE PUSH32 0x4D61726B65744D616E616765723A20416C7265616479207265736F6C76656400 PUSH1 0x44 DUP3 ADD MSTORE PUSH1 0x64 SWAP1 REVERT JUMPDEST PUSH1 0x40 MLOAD SWAP1 PUSH2 0x2EA3 DUP3 PUSH2 0x2AB5 JUMP JUMPDEST PUSH1 0x19 DUP3 MSTORE PUSH32 0x5265736F6C7574696F6E20706572696F64206578706972656400000000000000 PUSH1 0x20 DUP4 ADD MSTORE JUMP JUMPDEST SWAP2 SWAP1 DUP3 PUSH1 0x40 SWAP2 SUB SLT PUSH2 0x244 JUMPI DUP2 MLOAD DUP1 ISZERO ISZERO DUP2 SUB PUSH2 0x244 JUMPI PUSH1 0x20 SWAP1 SWAP3 ADD MLOAD SWAP1 JUMP JUMPDEST SWAP1 PUSH1 0x0 DUP3 DUP2 MSTORE PUSH1 0x1 PUSH1 0x20 MSTORE PUSH1 0x40 SWAP1 DUP2 DUP2 KECCAK256 SWAP1 PUSH1 0xB DUP3 ADD SWAP2 PUSH1 0xFF DUP4 SLOAD AND PUSH1 0x5 DUP2 LT ISZERO PUSH2 0x30FB JUMPI PUSH1 0x1 PUSH2 0x2F20 SWAP2 EQ PUSH2 0x2DED JUMP JUMPDEST DUP5 ISZERO ISZERO DUP1 PUSH2 0x30ED JUMPI JUMPDEST ISZERO PUSH2 0x309B JUMPI PUSH1 0xD DUP2 ADD SWAP2 PUSH2 0x2F41 PUSH1 0xFF DUP5 SLOAD AND ISZERO PUSH2 0x2E4A JUMP JUMPDEST PUSH1 0xA DUP3 ADD SLOAD TIMESTAMP LT ISZERO PUSH2 0x3089 JUMPI PUSH1 0x8 SLOAD DUP6 MLOAD PUSH4 0x33138655 PUSH1 0xE2 SHL DUP2 MSTORE PUSH1 0x4 DUP2 ADD DUP10 SWAP1 MSTORE SWAP1 DUP7 SWAP1 DUP3 SWAP1 PUSH1 0x24 SWAP1 DUP3 SWAP1 PUSH1 0x1 PUSH1 0x1 PUSH1 0xA0 SHL SUB AND GAS STATICCALL SWAP1 DUP2 ISZERO PUSH2 0x307F JUMPI SWAP1 DUP8 SWAP2 DUP4 SWAP2 PUSH2 0x305C JUMPI JUMPDEST POP DUP3 PUSH2 0x3052 JUMPI JUMPDEST POP POP ISZERO PUSH2 0x2FE8 JUMPI PUSH1 0xC ADD DUP5 SWAP1 SSTORE DUP1 SLOAD PUSH1 0xFF NOT SWAP1 DUP2 AND PUSH1 0x1 OR SWAP1 SWAP2 SSTORE DUP2 SLOAD AND PUSH1 0x2 OR SWAP1 SSTORE PUSH32 0x6DFC24F0F2FB42E49FB4FA3FFA8ABB148CAB908A1FB8335B3F128A08B2594AF1 SWAP2 PUSH1 0x20 SWAP2 PUSH2 0x2FE1 DUP6 PUSH2 0x31C1 JUMP JUMPDEST MLOAD SWAP1 DUP2 MSTORE LOG2 JUMP JUMPDEST DUP4 MLOAD PUSH3 0x461BCD PUSH1 0xE5 SHL DUP2 MSTORE PUSH1 0x20 PUSH1 0x4 DUP3 ADD MSTORE PUSH1 0x3A PUSH1 0x24 DUP3 ADD MSTORE PUSH32 0x4D61726B65744D616E616765723A20496E73756666696369656E742076657269 PUSH1 0x44 DUP3 ADD MSTORE PUSH32 0x6669657220766F74657320666F722074686973206F7074696F6E000000000000 PUSH1 0x64 DUP3 ADD MSTORE PUSH1 0x84 SWAP1 REVERT JUMPDEST EQ SWAP1 POP DUP6 CODESIZE PUSH2 0x2F90 JUMP JUMPDEST SWAP1 POP PUSH2 0x3076 SWAP2 SWAP3 POP DUP7 RETURNDATASIZE DUP9 GT PUSH2 0x152A JUMPI PUSH2 0x151A DUP2 DUP4 PUSH2 0x2AD1 JUMP JUMPDEST SWAP2 SWAP1 SWAP2 CODESIZE PUSH2 0x2F89 JUMP JUMPDEST DUP7 MLOAD RETURNDATASIZE DUP5 DUP3 RETURNDATACOPY RETURNDATASIZE SWAP1 REVERT JUMPDEST POP POP POP POP POP POP PUSH2 0x2BCE SWAP1 PUSH2 0x1773 PUSH2 0x2E96 JUMP JUMPDEST DUP4 MLOAD PUSH3 0x461BCD PUSH1 0xE5 SHL DUP2 MSTORE PUSH1 0x20 PUSH1 0x4 DUP3 ADD MSTORE PUSH1 0x25 PUSH1 0x24 DUP3 ADD MSTORE PUSH32 0x4D61726B65744D616E616765723A20496E76616C69642077696E6E696E67206F PUSH1 0x44 DUP3 ADD MSTORE PUSH5 0x383A34B7B7 PUSH1 0xD9 SHL PUSH1 0x64 DUP3 ADD MSTORE PUSH1 0x84 SWAP1 REVERT JUMPDEST POP PUSH1 0x3 DUP2 ADD SLOAD DUP6 GT ISZERO PUSH2 0x2F29 JUMP JUMPDEST PUSH4 0x4E487B71 PUSH1 0xE0 SHL DUP4 MSTORE PUSH1 0x21 PUSH1 0x4 MSTORE PUSH1 0x24 DUP4 REVERT JUMPDEST ISZERO PUSH2 0x3116 JUMPI JUMP JUMPDEST PUSH1 0x40 MLOAD PUSH3 0x461BCD PUSH1 0xE5 SHL DUP2 MSTORE PUSH1 0x20 PUSH1 0x4 DUP3 ADD MSTORE PUSH1 0x22 PUSH1 0x24 DUP3 ADD MSTORE PUSH32 0x4D61726B65744D616E616765723A204D61726B6574206E6F74207265736F6C76 PUSH1 0x44 DUP3 ADD MSTORE PUSH2 0x1959 PUSH1 0xF2 SHL PUSH1 0x64 DUP3 ADD MSTORE PUSH1 0x84 SWAP1 REVERT JUMPDEST SWAP1 PUSH2 0x31BC PUSH32 0x4C4561C5B0048424071C1115E9F1E325486E21C21333D968F21097B7B72D12AD SWAP2 DUP4 PUSH1 0x0 MSTORE PUSH1 0x1 PUSH1 0x20 MSTORE PUSH1 0xB PUSH1 0x40 PUSH1 0x0 KECCAK256 ADD PUSH1 0x3 PUSH1 0xFF NOT DUP3 SLOAD AND OR SWAP1 SSTORE PUSH1 0x40 MLOAD SWAP2 DUP3 SWAP2 PUSH1 0x20 DUP4 MSTORE PUSH1 0x20 DUP4 ADD SWAP1 PUSH2 0x2C36 JUMP JUMPDEST SUB SWAP1 LOG2 JUMP JUMPDEST SWAP1 PUSH1 0x0 DUP3 DUP2 MSTORE PUSH1 0x20 SWAP1 PUSH1 0x1 DUP3 MSTORE PUSH1 0x40 SWAP2 DUP3 DUP3 KECCAK256 SWAP1 DUP3 SWAP6 PUSH1 0x1 SWAP2 PUSH1 0x3 DUP5 ADD SLOAD SWAP2 JUMPDEST DUP3 DUP5 GT ISZERO PUSH2 0x3297 JUMPI POP POP POP POP DUP5 PUSH2 0x31FA JUMPI JUMPDEST POP POP POP SWAP1 POP JUMP JUMPDEST PUSH1 0x1 DUP1 PUSH1 0xA0 SHL SUB PUSH1 0x4 DUP2 PUSH1 0x7 SLOAD AND SWAP3 ADD SLOAD AND DUP2 EXTCODESIZE ISZERO PUSH2 0x3293 JUMPI DUP4 MLOAD PUSH4 0x48FEF595 PUSH1 0xE0 SHL DUP2 MSTORE PUSH1 0x1 PUSH1 0x1 PUSH1 0xA0 SHL SUB SWAP2 SWAP1 SWAP2 AND PUSH1 0x4 DUP3 ADD MSTORE PUSH1 0x24 DUP2 ADD SWAP6 SWAP1 SWAP6 MSTORE SWAP3 SWAP4 SWAP3 DUP2 SWAP1 DUP5 SWAP1 PUSH1 0x44 SWAP1 DUP3 SWAP1 DUP5 SWAP1 GAS CALL DUP1 ISZERO PUSH2 0x3287 JUMPI PUSH2 0x325A JUMPI JUMPDEST DUP4 SWAP3 PUSH2 0x31F3 JUMP JUMPDEST PUSH8 0xFFFFFFFFFFFFFFFF DUP4 GT PUSH2 0x3273 JUMPI POP MSTORE CODESIZE DUP1 DUP1 PUSH2 0x3253 JUMP JUMPDEST PUSH4 0x4E487B71 PUSH1 0xE0 SHL DUP2 MSTORE PUSH1 0x41 PUSH1 0x4 MSTORE PUSH1 0x24 SWAP1 REVERT JUMPDEST POP SWAP1 MLOAD SWAP1 RETURNDATASIZE SWAP1 DUP3 RETURNDATACOPY RETURNDATASIZE SWAP1 REVERT JUMPDEST DUP3 DUP1 REVERT JUMPDEST SWAP1 SWAP2 SWAP3 SWAP8 PUSH2 0x32BB PUSH2 0x32C1 SWAP2 DUP4 DUP9 MSTORE PUSH1 0x2 DUP6 MSTORE DUP9 DUP9 KECCAK256 DUP12 DUP10 MSTORE DUP6 MSTORE DUP9 DUP9 KECCAK256 SLOAD SWAP1 PUSH2 0x2CBE JUMP JUMPDEST SWAP9 PUSH2 0x2CCB JUMP JUMPDEST SWAP3 SWAP2 SWAP1 PUSH2 0x31E1 JUMP JUMPDEST SWAP1 SWAP2 PUSH1 0x1 PUSH1 0x1 PUSH1 0xA0 SHL SUB AND DUP1 PUSH2 0x3368 JUMPI POP PUSH1 0x0 DUP1 DUP1 SWAP4 DUP2 SWAP4 GAS CALL RETURNDATASIZE ISZERO PUSH2 0x3363 JUMPI RETURNDATASIZE PUSH2 0x32F3 DUP2 PUSH2 0x2AF3 JUMP JUMPDEST SWAP1 PUSH2 0x3301 PUSH1 0x40 MLOAD SWAP3 DUP4 PUSH2 0x2AD1 JUMP JUMPDEST DUP2 MSTORE PUSH1 0x0 PUSH1 0x20 RETURNDATASIZE SWAP3 ADD RETURNDATACOPY JUMPDEST ISZERO PUSH2 0x3313 JUMPI JUMP JUMPDEST PUSH1 0x40 MLOAD PUSH3 0x461BCD PUSH1 0xE5 SHL DUP2 MSTORE PUSH1 0x20 PUSH1 0x4 DUP3 ADD MSTORE PUSH1 0x22 PUSH1 0x24 DUP3 ADD MSTORE PUSH32 0x4D61726B65744D616E616765723A20455448207472616E73666572206661696C PUSH1 0x44 DUP3 ADD MSTORE PUSH2 0x1959 PUSH1 0xF2 SHL PUSH1 0x64 DUP3 ADD MSTORE PUSH1 0x84 SWAP1 REVERT JUMPDEST PUSH2 0x330C JUMP JUMPDEST PUSH1 0x40 MLOAD PUSH4 0xA9059CBB PUSH1 0xE0 SHL PUSH1 0x20 DUP3 ADD MSTORE PUSH1 0x1 PUSH1 0x1 PUSH1 0xA0 SHL SUB SWAP3 SWAP1 SWAP3 AND PUSH1 0x24 DUP4 ADD MSTORE PUSH1 0x44 DUP1 DUP4 ADD SWAP4 SWAP1 SWAP4 MSTORE SWAP2 DUP2 MSTORE PUSH2 0x2BCE SWAP2 PUSH2 0x33A4 PUSH1 0x64 DUP4 PUSH2 0x2AD1 JUMP JUMPDEST PUSH2 0x2D46 JUMP JUMPDEST ISZERO PUSH2 0x33B0 JUMPI JUMP JUMPDEST PUSH1 0x64 PUSH1 0x40 MLOAD PUSH3 0x461BCD PUSH1 0xE5 SHL DUP2 MSTORE PUSH1 0x20 PUSH1 0x4 DUP3 ADD MSTORE PUSH1 0x20 PUSH1 0x24 DUP3 ADD MSTORE PUSH32 0x4D61726B65744D616E616765723A20496E76616C6964206D61726B6574204944 PUSH1 0x44 DUP3 ADD MSTORE REVERT JUMPDEST ISZERO PUSH2 0x33FB JUMPI JUMP JUMPDEST PUSH1 0x40 MLOAD PUSH3 0x461BCD PUSH1 0xE5 SHL DUP2 MSTORE PUSH1 0x20 PUSH1 0x4 DUP3 ADD MSTORE PUSH1 0x24 DUP1 DUP3 ADD MSTORE PUSH32 0x4D61726B65744D616E616765723A204D61726B657420646F6573206E6F742065 PUSH1 0x44 DUP3 ADD MSTORE PUSH4 0x1E1A5CDD PUSH1 0xE2 SHL PUSH1 0x64 DUP3 ADD MSTORE PUSH1 0x84 SWAP1 REVERT JUMPDEST PUSH1 0x0 JUMPDEST PUSH1 0xB SWAP1 DUP2 SLOAD SWAP2 DUP3 DUP3 LT ISZERO PUSH2 0x3500 JUMPI DUP4 SWAP3 PUSH2 0x3468 DUP4 PUSH2 0x29E0 JUMP JUMPDEST SWAP5 SWAP1 SLOAD PUSH1 0x3 SWAP6 DUP7 SHL SHR EQ PUSH2 0x3487 JUMPI POP POP PUSH2 0x3482 SWAP2 POP PUSH2 0x2CCB JUMP JUMPDEST PUSH2 0x344F JUMP JUMPDEST SWAP1 SWAP2 PUSH1 0x0 NOT SWAP2 DUP1 DUP4 ADD SWAP2 SWAP1 DUP3 GT PUSH2 0x8EA JUMPI PUSH2 0x664 PUSH2 0x34A7 PUSH2 0x34B3 SWAP4 PUSH2 0x29E0 JUMP JUMPDEST SWAP1 SLOAD SWAP1 DUP8 SHL SHR SWAP2 PUSH2 0x29E0 JUMP JUMPDEST DUP2 SLOAD DUP1 ISZERO PUSH2 0x34EA JUMPI DUP2 ADD SWAP3 PUSH2 0x34C7 DUP5 PUSH2 0x29E0 JUMP JUMPDEST DUP2 SWAP4 SWAP2 SLOAD SWAP3 SHL SHL NOT AND SWAP1 SSTORE SSTORE PUSH1 0x0 MSTORE PUSH1 0xC PUSH1 0x20 MSTORE PUSH1 0x40 PUSH1 0x0 KECCAK256 PUSH1 0xFF NOT DUP2 SLOAD AND SWAP1 SSTORE JUMP JUMPDEST PUSH4 0x4E487B71 PUSH1 0xE0 SHL PUSH1 0x0 MSTORE PUSH1 0x31 PUSH1 0x4 MSTORE PUSH1 0x24 PUSH1 0x0 REVERT JUMPDEST POP POP POP POP JUMP JUMPDEST PUSH8 0xFFFFFFFFFFFFFFFF DUP2 GT PUSH2 0x817 JUMPI PUSH1 0x5 SHL PUSH1 0x20 ADD SWAP1 JUMP JUMPDEST SWAP1 PUSH2 0x3528 DUP3 PUSH2 0x3506 JUMP JUMPDEST PUSH2 0x3535 PUSH1 0x40 MLOAD SWAP2 DUP3 PUSH2 0x2AD1 JUMP JUMPDEST DUP3 DUP2 MSTORE DUP1 SWAP3 PUSH2 0x3546 PUSH1 0x1F NOT SWAP2 PUSH2 0x3506 JUMP JUMPDEST ADD SWAP1 PUSH1 0x20 CALLDATASIZE SWAP2 ADD CALLDATACOPY JUMP JUMPDEST DUP1 MLOAD DUP3 LT ISZERO PUSH2 0x288C JUMPI PUSH1 0x20 SWAP2 PUSH1 0x5 SHL ADD ADD SWAP1 JUMP INVALID LOG2 PUSH5 0x6970667358 0x22 SLT KECCAK256 0xDA PUSH17 0xFB754F7546FA2340A36F3E15205C57E4DA 0xB7 0x5C SAR 0xB8 0xBB 0xDC 0xD0 0xAC 0x2B SWAP9 LOG0 EXTCODESIZE BALANCE PUSH5 0x736F6C6343 STOP ADDMOD EQ STOP CALLER "},"methodIdentifiers":{"activeMarkets(uint256)":"3adfe6d0","addSupportedToken(address)":"6d69fcaf","autoResolve(uint256)":"b1138b50","blacklistedWallets(address)":"2b5ba3b9","cancelMarket(uint256)":"7c16cd9e","claimRefund(uint256)":"5b7baf64","claimWinnings(uint256)":"677bd9ff","createMarket(string,bool,uint256,address,uint256,uint256,uint256,uint256)":"efb2b690","creatorCancelMarket(uint256)":"c3436e0c","deleteMarket(uint256,string)":"51049969","deletedMarkets(uint256)":"881df9e1","deletionTimestamp(uint256)":"ad8e42ff","endMarket(uint256)":"157bdcce","getActiveMarketCount()":"5da3247a","getActiveMarkets()":"a5e973c3","getAllMarketIds()":"b85ed636","getDeletedMarkets()":"65ebce55","getMarket(uint256)":"eb44fdd3","getMarketsReadyForRemoval()":"c8a843b7","getNextMarketId()":"fe53a6e8","getOptionPool(uint256,uint256)":"b021c44c","getPermanentlyRemovedMarkets()":"6d822220","getTotalPool(uint256)":"3a35b9bd","getUserBet(uint256,address,uint256)":"1c469d30","getUserMarketHistory(address)":"33d6b46e","isActiveMarket(uint256)":"0d64cdbd","isMarketActive(uint256)":"f849f69e","marketCreationFee()":"2ef1bdfa","markets(uint256)":"b1283e77","nextMarketId()":"406ef2ef","optionPools(uint256,uint256)":"c6f3fbcc","owner()":"8da5cb5b","permanentlyRemoveMarket(uint256)":"07adc191","permanentlyRemovedMarkets(uint256)":"81b17d29","placeBet(uint256,uint256)":"4afe62b5","removeSupportedToken(address)":"76319190","renounceOwnership()":"715018a6","resolveMarket(uint256,uint256)":"60557333","setMarketCreationFee(uint256)":"9f37022a","setWalletBlacklist(address,bool)":"db62c6de","supportedTokens(address)":"68c4ac26","totalUserStake(uint256,address)":"d6b7a333","transferOwnership(address)":"f2fde38b","treasury()":"61d027b3","userBets(uint256,address,uint256)":"61c4cc15","userMarketHistory(address,uint256)":"98a17671","verification()":"4ffe2a8b"}}}}}