{"contracts/P2PMarketManager.sol":{"EventPool":{"abi":[{"inputs":[{"internalType":"address","name":"initialOwner","type":"address"},{"internalType":"address payable","name":"_treasury","type":"address"},{"internalType":"address","name":"_adminManager","type":"address"}],"stateMutability":"nonpayable","type":"constructor"},{"inputs":[{"internalType":"address","name":"owner","type":"address"}],"name":"OwnableInvalidOwner","type":"error"},{"inputs":[{"internalType":"address","name":"account","type":"address"}],"name":"OwnableUnauthorizedAccount","type":"error"},{"inputs":[{"internalType":"address","name":"token","type":"address"}],"name":"SafeERC20FailedOperation","type":"error"},{"anonymous":false,"inputs":[{"indexed":true,"internalType":"uint256","name":"marketId","type":"uint256"},{"indexed":false,"internalType":"string","name":"reason","type":"string"}],"name":"MarketCancelled","type":"event"},{"anonymous":false,"inputs":[{"indexed":true,"internalType":"uint256","name":"marketId","type":"uint256"},{"indexed":true,"internalType":"address","name":"creator","type":"address"},{"indexed":false,"internalType":"string","name":"ipfsHash","type":"string"},{"indexed":false,"internalType":"bool","name":"isMultiOption","type":"bool"},{"indexed":false,"internalType":"uint256","name":"maxOptions","type":"uint256"},{"indexed":false,"internalType":"address","name":"paymentToken","type":"address"},{"indexed":false,"internalType":"uint256","name":"minStake","type":"uint256"},{"indexed":false,"internalType":"uint256","name":"startTime","type":"uint256"},{"indexed":false,"internalType":"uint256","name":"stakeEndTime","type":"uint256"},{"indexed":false,"internalType":"uint256","name":"endTime","type":"uint256"},{"indexed":false,"internalType":"uint256","name":"resolutionEndTime","type":"uint256"}],"name":"MarketCreated","type":"event"},{"anonymous":false,"inputs":[{"indexed":true,"internalType":"uint256","name":"marketId","type":"uint256"},{"indexed":false,"internalType":"uint256","name":"winningOption","type":"uint256"}],"name":"MarketResolved","type":"event"},{"anonymous":false,"inputs":[{"indexed":true,"internalType":"address","name":"previousOwner","type":"address"},{"indexed":true,"internalType":"address","name":"newOwner","type":"address"}],"name":"OwnershipTransferred","type":"event"},{"anonymous":false,"inputs":[{"indexed":true,"internalType":"uint256","name":"marketId","type":"uint256"},{"indexed":true,"internalType":"address","name":"user","type":"address"},{"indexed":false,"internalType":"uint256","name":"amount","type":"uint256"}],"name":"RefundClaimed","type":"event"},{"anonymous":false,"inputs":[{"indexed":true,"internalType":"uint256","name":"marketId","type":"uint256"},{"indexed":true,"internalType":"bytes32","name":"assertionId","type":"bytes32"}],"name":"ResolutionRequested","type":"event"},{"anonymous":false,"inputs":[{"indexed":true,"internalType":"uint256","name":"marketId","type":"uint256"},{"indexed":true,"internalType":"address","name":"user","type":"address"},{"indexed":false,"internalType":"uint256","name":"option","type":"uint256"},{"indexed":false,"internalType":"uint256","name":"amount","type":"uint256"}],"name":"StakePlaced","type":"event"},{"anonymous":false,"inputs":[{"indexed":true,"internalType":"uint256","name":"marketId","type":"uint256"},{"indexed":true,"internalType":"bytes32","name":"assertionId","type":"bytes32"},{"indexed":false,"internalType":"bool","name":"outcome","type":"bool"}],"name":"UMAResolutionSettled","type":"event"},{"anonymous":false,"inputs":[{"indexed":true,"internalType":"uint256","name":"marketId","type":"uint256"},{"indexed":true,"internalType":"address","name":"user","type":"address"},{"indexed":false,"internalType":"uint256","name":"amount","type":"uint256"}],"name":"WinningsClaimed","type":"event"},{"inputs":[],"name":"CREATOR_FEE_BPS","outputs":[{"internalType":"uint256","name":"","type":"uint256"}],"stateMutability":"view","type":"function"},{"inputs":[],"name":"PLATFORM_FEE_BPS","outputs":[{"internalType":"uint256","name":"","type":"uint256"}],"stateMutability":"view","type":"function"},{"inputs":[{"internalType":"uint256","name":"","type":"uint256"}],"name":"activeMarkets","outputs":[{"internalType":"uint256","name":"","type":"uint256"}],"stateMutability":"view","type":"function"},{"inputs":[],"name":"adminManager","outputs":[{"internalType":"address","name":"","type":"address"}],"stateMutability":"view","type":"function"},{"inputs":[{"internalType":"uint256","name":"marketId","type":"uint256"},{"internalType":"address","name":"user","type":"address"}],"name":"calculateWinnings","outputs":[{"internalType":"uint256","name":"","type":"uint256"}],"stateMutability":"view","type":"function"},{"inputs":[{"internalType":"uint256","name":"marketId","type":"uint256"}],"name":"cancelMarket","outputs":[],"stateMutability":"nonpayable","type":"function"},{"inputs":[{"internalType":"uint256","name":"marketId","type":"uint256"}],"name":"claimRefund","outputs":[],"stateMutability":"nonpayable","type":"function"},{"inputs":[{"internalType":"uint256","name":"marketId","type":"uint256"}],"name":"claimWinnings","outputs":[],"stateMutability":"nonpayable","type":"function"},{"inputs":[{"internalType":"string","name":"ipfsHash","type":"string"},{"internalType":"bool","name":"isMultiOption","type":"bool"},{"internalType":"uint256","name":"maxOptions","type":"uint256"},{"internalType":"address","name":"paymentToken","type":"address"},{"internalType":"uint256","name":"minStake","type":"uint256"},{"internalType":"uint256","name":"creatorDeposit","type":"uint256"},{"internalType":"uint256","name":"creatorOutcome","type":"uint256"},{"internalType":"uint256","name":"stakeDurationMinutes","type":"uint256"},{"internalType":"uint256","name":"resolutionDurationMinutes","type":"uint256"},{"internalType":"enum EventPool.MarketType","name":"marketType","type":"uint8"},{"internalType":"address","name":"priceFeed","type":"address"},{"internalType":"uint256","name":"priceThreshold","type":"uint256"}],"name":"createMarket","outputs":[{"internalType":"uint256","name":"","type":"uint256"}],"stateMutability":"payable","type":"function"},{"inputs":[{"internalType":"uint256","name":"marketId","type":"uint256"}],"name":"creatorCancelMarket","outputs":[],"stateMutability":"nonpayable","type":"function"},{"inputs":[],"name":"defaultBond","outputs":[{"internalType":"uint256","name":"","type":"uint256"}],"stateMutability":"view","type":"function"},{"inputs":[],"name":"defaultBondCurrency","outputs":[{"internalType":"address","name":"","type":"address"}],"stateMutability":"view","type":"function"},{"inputs":[],"name":"defaultIdentifier","outputs":[{"internalType":"bytes32","name":"","type":"bytes32"}],"stateMutability":"view","type":"function"},{"inputs":[],"name":"defaultLiveness","outputs":[{"internalType":"uint64","name":"","type":"uint64"}],"stateMutability":"view","type":"function"},{"inputs":[{"internalType":"uint256","name":"marketId","type":"uint256"}],"name":"endMarket","outputs":[],"stateMutability":"nonpayable","type":"function"},{"inputs":[],"name":"finder","outputs":[{"internalType":"address","name":"","type":"address"}],"stateMutability":"view","type":"function"},{"inputs":[{"internalType":"uint256","name":"marketId","type":"uint256"}],"name":"getMarket","outputs":[{"components":[{"internalType":"address","name":"creator","type":"address"},{"internalType":"string","name":"ipfsHash","type":"string"},{"internalType":"bool","name":"isMultiOption","type":"bool"},{"internalType":"uint256","name":"maxOptions","type":"uint256"},{"internalType":"address","name":"paymentToken","type":"address"},{"internalType":"uint256","name":"minStake","type":"uint256"},{"internalType":"uint256","name":"creatorDeposit","type":"uint256"},{"internalType":"uint256","name":"creatorOutcome","type":"uint256"},{"internalType":"uint256","name":"startTime","type":"uint256"},{"internalType":"uint256","name":"stakeEndTime","type":"uint256"},{"internalType":"uint256","name":"endTime","type":"uint256"},{"internalType":"uint256","name":"resolutionEndTime","type":"uint256"},{"internalType":"enum EventPool.MarketState","name":"state","type":"uint8"},{"internalType":"uint256","name":"winningOption","type":"uint256"},{"internalType":"bool","name":"isResolved","type":"bool"},{"internalType":"enum EventPool.MarketType","name":"marketType","type":"uint8"},{"internalType":"address","name":"priceFeed","type":"address"},{"internalType":"uint256","name":"priceThreshold","type":"uint256"},{"internalType":"bytes32","name":"umaAssertionId","type":"bytes32"},{"internalType":"bool","name":"umaAssertionMade","type":"bool"}],"internalType":"struct EventPool.Market","name":"","type":"tuple"}],"stateMutability":"view","type":"function"},{"inputs":[{"internalType":"uint256","name":"marketId","type":"uint256"}],"name":"getMarketInfo","outputs":[{"components":[{"internalType":"address","name":"creator","type":"address"},{"internalType":"string","name":"ipfsHash","type":"string"},{"internalType":"bool","name":"isMultiOption","type":"bool"},{"internalType":"uint256","name":"maxOptions","type":"uint256"},{"internalType":"address","name":"paymentToken","type":"address"},{"internalType":"uint256","name":"minStake","type":"uint256"},{"internalType":"uint256","name":"creatorDeposit","type":"uint256"},{"internalType":"uint256","name":"creatorOutcome","type":"uint256"},{"internalType":"uint256","name":"startTime","type":"uint256"},{"internalType":"uint256","name":"stakeEndTime","type":"uint256"},{"internalType":"uint256","name":"endTime","type":"uint256"},{"internalType":"uint256","name":"resolutionEndTime","type":"uint256"},{"internalType":"enum EventPool.MarketState","name":"state","type":"uint8"},{"internalType":"uint256","name":"winningOption","type":"uint256"},{"internalType":"bool","name":"isResolved","type":"bool"},{"internalType":"enum EventPool.MarketType","name":"marketType","type":"uint8"},{"internalType":"address","name":"priceFeed","type":"address"},{"internalType":"uint256","name":"priceThreshold","type":"uint256"},{"internalType":"bytes32","name":"umaAssertionId","type":"bytes32"},{"internalType":"bool","name":"umaAssertionMade","type":"bool"}],"internalType":"struct EventPool.Market","name":"market","type":"tuple"},{"internalType":"uint256","name":"totalPool","type":"uint256"},{"internalType":"uint256","name":"supportPool","type":"uint256"},{"internalType":"uint256","name":"stakerCount","type":"uint256"},{"internalType":"uint256","name":"supporterCount","type":"uint256"},{"internalType":"address[]","name":"stakers","type":"address[]"},{"internalType":"address[]","name":"supporters","type":"address[]"},{"internalType":"string","name":"tokenSymbol","type":"string"}],"stateMutability":"view","type":"function"},{"inputs":[{"internalType":"uint256","name":"marketId","type":"uint256"}],"name":"getMarketStakers","outputs":[{"internalType":"address[]","name":"","type":"address[]"}],"stateMutability":"view","type":"function"},{"inputs":[],"name":"getNextMarketId","outputs":[{"internalType":"uint256","name":"","type":"uint256"}],"stateMutability":"view","type":"function"},{"inputs":[{"internalType":"uint256","name":"marketId","type":"uint256"},{"internalType":"uint256","name":"option","type":"uint256"},{"internalType":"address","name":"token","type":"address"}],"name":"getOptionPool","outputs":[{"internalType":"uint256","name":"","type":"uint256"}],"stateMutability":"view","type":"function"},{"inputs":[{"internalType":"uint256","name":"marketId","type":"uint256"}],"name":"getStakerCount","outputs":[{"internalType":"uint256","name":"","type":"uint256"}],"stateMutability":"view","type":"function"},{"inputs":[{"internalType":"uint256","name":"marketId","type":"uint256"},{"internalType":"address","name":"token","type":"address"}],"name":"getSupportPool","outputs":[{"internalType":"uint256","name":"","type":"uint256"}],"stateMutability":"view","type":"function"},{"inputs":[{"internalType":"uint256","name":"marketId","type":"uint256"}],"name":"getSupporterCount","outputs":[{"internalType":"uint256","name":"","type":"uint256"}],"stateMutability":"view","type":"function"},{"inputs":[{"internalType":"uint256","name":"marketId","type":"uint256"},{"internalType":"address","name":"token","type":"address"}],"name":"getTotalPool","outputs":[{"internalType":"uint256","name":"","type":"uint256"}],"stateMutability":"view","type":"function"},{"inputs":[{"internalType":"uint256","name":"marketId","type":"uint256"},{"internalType":"address","name":"user","type":"address"},{"internalType":"address","name":"token","type":"address"}],"name":"getUserStake","outputs":[{"internalType":"uint256","name":"","type":"uint256"}],"stateMutability":"view","type":"function"},{"inputs":[{"internalType":"uint256","name":"marketId","type":"uint256"},{"internalType":"address","name":"user","type":"address"},{"internalType":"address","name":"token","type":"address"}],"name":"getUserSupport","outputs":[{"internalType":"uint256","name":"","type":"uint256"}],"stateMutability":"view","type":"function"},{"inputs":[{"internalType":"uint256","name":"","type":"uint256"}],"name":"isActiveMarket","outputs":[{"internalType":"bool","name":"","type":"bool"}],"stateMutability":"view","type":"function"},{"inputs":[{"internalType":"uint256","name":"marketId","type":"uint256"}],"name":"markMarketDeleted","outputs":[],"stateMutability":"nonpayable","type":"function"},{"inputs":[{"internalType":"uint256","name":"marketId","type":"uint256"}],"name":"markMarketPermanentlyRemoved","outputs":[],"stateMutability":"nonpayable","type":"function"},{"inputs":[],"name":"marketCreationFee","outputs":[{"internalType":"uint256","name":"","type":"uint256"}],"stateMutability":"view","type":"function"},{"inputs":[{"internalType":"uint256","name":"","type":"uint256"},{"internalType":"uint256","name":"","type":"uint256"}],"name":"marketStakers","outputs":[{"internalType":"address","name":"","type":"address"}],"stateMutability":"view","type":"function"},{"inputs":[{"internalType":"uint256","name":"","type":"uint256"},{"internalType":"uint256","name":"","type":"uint256"}],"name":"marketSupporters","outputs":[{"internalType":"address","name":"","type":"address"}],"stateMutability":"view","type":"function"},{"inputs":[{"internalType":"uint256","name":"","type":"uint256"}],"name":"markets","outputs":[{"internalType":"address","name":"creator","type":"address"},{"internalType":"string","name":"ipfsHash","type":"string"},{"internalType":"bool","name":"isMultiOption","type":"bool"},{"internalType":"uint256","name":"maxOptions","type":"uint256"},{"internalType":"address","name":"paymentToken","type":"address"},{"internalType":"uint256","name":"minStake","type":"uint256"},{"internalType":"uint256","name":"creatorDeposit","type":"uint256"},{"internalType":"uint256","name":"creatorOutcome","type":"uint256"},{"internalType":"uint256","name":"startTime","type":"uint256"},{"internalType":"uint256","name":"stakeEndTime","type":"uint256"},{"internalType":"uint256","name":"endTime","type":"uint256"},{"internalType":"uint256","name":"resolutionEndTime","type":"uint256"},{"internalType":"enum EventPool.MarketState","name":"state","type":"uint8"},{"internalType":"uint256","name":"winningOption","type":"uint256"},{"internalType":"bool","name":"isResolved","type":"bool"},{"internalType":"enum EventPool.MarketType","name":"marketType","type":"uint8"},{"internalType":"address","name":"priceFeed","type":"address"},{"internalType":"uint256","name":"priceThreshold","type":"uint256"},{"internalType":"bytes32","name":"umaAssertionId","type":"bytes32"},{"internalType":"bool","name":"umaAssertionMade","type":"bool"}],"stateMutability":"view","type":"function"},{"inputs":[],"name":"nextMarketId","outputs":[{"internalType":"uint256","name":"","type":"uint256"}],"stateMutability":"view","type":"function"},{"inputs":[],"name":"optimisticOracle","outputs":[{"internalType":"address","name":"","type":"address"}],"stateMutability":"view","type":"function"},{"inputs":[],"name":"owner","outputs":[{"internalType":"address","name":"","type":"address"}],"stateMutability":"view","type":"function"},{"inputs":[{"internalType":"uint256","name":"marketId","type":"uint256"},{"internalType":"uint256","name":"option","type":"uint256"}],"name":"placeStake","outputs":[],"stateMutability":"payable","type":"function"},{"inputs":[{"internalType":"uint256","name":"marketId","type":"uint256"},{"internalType":"uint256","name":"option","type":"uint256"},{"internalType":"uint256","name":"amount","type":"uint256"}],"name":"placeStakeWithToken","outputs":[],"stateMutability":"nonpayable","type":"function"},{"inputs":[],"name":"renounceOwnership","outputs":[],"stateMutability":"nonpayable","type":"function"},{"inputs":[{"internalType":"uint256","name":"marketId","type":"uint256"},{"internalType":"bytes","name":"claim","type":"bytes"}],"name":"requestUMAResolution","outputs":[],"stateMutability":"nonpayable","type":"function"},{"inputs":[{"internalType":"uint256","name":"marketId","type":"uint256"}],"name":"resolvePriceFeedMarket","outputs":[],"stateMutability":"nonpayable","type":"function"},{"inputs":[{"internalType":"address","name":"_adminManager","type":"address"}],"name":"setAdminManager","outputs":[],"stateMutability":"nonpayable","type":"function"},{"inputs":[{"internalType":"address","name":"_currency","type":"address"},{"internalType":"uint256","name":"_amount","type":"uint256"}],"name":"setDefaultBond","outputs":[],"stateMutability":"nonpayable","type":"function"},{"inputs":[{"internalType":"bytes32","name":"_identifier","type":"bytes32"}],"name":"setDefaultIdentifier","outputs":[],"stateMutability":"nonpayable","type":"function"},{"inputs":[{"internalType":"uint64","name":"_liveness","type":"uint64"}],"name":"setDefaultLiveness","outputs":[],"stateMutability":"nonpayable","type":"function"},{"inputs":[{"internalType":"address","name":"_finder","type":"address"}],"name":"setFinder","outputs":[],"stateMutability":"nonpayable","type":"function"},{"inputs":[{"internalType":"address","name":"_finder","type":"address"}],"name":"setFinderOnly","outputs":[],"stateMutability":"nonpayable","type":"function"},{"inputs":[{"internalType":"address","name":"_oo","type":"address"}],"name":"setOptimisticOracle","outputs":[],"stateMutability":"nonpayable","type":"function"},{"inputs":[{"internalType":"uint256","name":"marketId","type":"uint256"},{"internalType":"uint256","name":"winningOption","type":"uint256"}],"name":"settleUMAMarket","outputs":[],"stateMutability":"nonpayable","type":"function"},{"inputs":[{"internalType":"uint256","name":"marketId","type":"uint256"},{"internalType":"uint256","name":"amount","type":"uint256"}],"name":"supportMarket","outputs":[],"stateMutability":"payable","type":"function"},{"inputs":[{"internalType":"address","name":"newOwner","type":"address"}],"name":"transferOwnership","outputs":[],"stateMutability":"nonpayable","type":"function"},{"inputs":[],"name":"treasury","outputs":[{"internalType":"address payable","name":"","type":"address"}],"stateMutability":"view","type":"function"},{"inputs":[{"internalType":"uint256","name":"","type":"uint256"},{"internalType":"address","name":"","type":"address"}],"name":"userHasStaked","outputs":[{"internalType":"bool","name":"","type":"bool"}],"stateMutability":"view","type":"function"},{"inputs":[{"internalType":"uint256","name":"","type":"uint256"},{"internalType":"address","name":"","type":"address"}],"name":"userHasSupported","outputs":[{"internalType":"bool","name":"","type":"bool"}],"stateMutability":"view","type":"function"},{"inputs":[{"internalType":"address","name":"","type":"address"},{"internalType":"uint256","name":"","type":"uint256"}],"name":"userMarketHistory","outputs":[{"internalType":"uint256","name":"","type":"uint256"}],"stateMutability":"view","type":"function"},{"inputs":[{"internalType":"uint256","name":"","type":"uint256"},{"internalType":"address","name":"","type":"address"}],"name":"userStakeOptions","outputs":[{"internalType":"uint256","name":"","type":"uint256"}],"stateMutability":"view","type":"function"},{"inputs":[{"internalType":"uint256","name":"marketId","type":"uint256"}],"name":"withdrawSupport","outputs":[],"stateMutability":"nonpayable","type":"function"},{"stateMutability":"payable","type":"receive"}],"evm":{"bytecode":{"linkReferences":{},"object":"608034620000ff57601f6200603638819003918201601f19168301916001600160401b038311848410176200010457808492606094604052833981010312620000ff576200004d816200011a565b60208201516001600160a01b03808216939091849003620000ff576200007760408392016200011a565b9216918215620000e6576000549360018060a01b03199380858716176000558360405196167f8be0079c531659141344cd1fd0a4f28419497f9722a3daafe3b4186f6b6457e0600080a3600160095583600754161760075516906008541617600855615f069081620001308239f35b604051631e4fbdf760e01b815260006004820152602490fd5b600080fd5b634e487b7160e01b600052604160045260246000fd5b51906001600160a01b0382168203620000ff5756fe61012080604052600436101561001e575b50361561001c57600080fd5b005b600090813560e01c9081630ccf446714614b8b575080630d64cdbd14614b5c578063157bdcce14614a8e578063209c1c9414614a655780632230292214614a3c578063256ba741146149a7578063287f57b51461495e5780632ef1bdfa1461493b578063304bf1f1146148f25780633adfe6d0146148c75780633e32a76c146146805780633ec791931461421e578063406ef2ef1461420057806342e5bd25146141b35780634f44289d1461416a578063539aa77f1461414d5780635b7baf6414613de65780635e9a34e814613b1e57806361d027b314613af557806366cf7ed414612d99578063677bd9ff1461294f5780636f59359e146128cd578063715018a614612885578063785052661461258f5780637c16cd9e146124b45780637e644a5f1461242c5780638053ec7b146122fa5780638333cb06146122dc578063847cf782146122985780638da5cb5b146122715780639300b5c21461224e57806398a17671146121f85780639a3a40d614611f72578063a210b6a414611f49578063a30a091414611f1f578063b1283e7714611d7c578063b9a3c84c14611d53578063bc16075814611cd7578063bf5c325214611c3e578063c22c62c314611c0c578063c3436e0c14611adb578063cc3cbd2a14611abe578063d509b01714611aa0578063d5f8270714611a55578063d70e9910146119c6578063d8c5dd671461197f578063dc4ce3491461192c578063e0bd4acc14611755578063eb44fdd314611605578063f00fe32114611562578063f15cc4061461111b578063f1b7dde314610d49578063f204072f1461093e578063f2fde38b146108c8578063f486759114610430578063fb87f2c3146102ee578063fe4e1983146102c55763fe53a6e80361001057346102c257806003193601126102c2576020600954604051908152f35b80fd5b50346102c257806003193601126102c2576011546040516001600160401b039091168152602090f35b50346102c25760208060031936011261042c576004359061033f60018060a01b0361031e81600854163314615ce4565b61032b6009548510615d28565b838552600183526040852054161515615d61565b8183526001815260ff600c604085200154166005811015610418576004146103de576060600080516020615e7a8339815191529183855260018152600c6040862001600460ff19825416179055838552600b815260ff6040862054166103d0575b6017604051918083528201527626b0b935b2ba103232b632ba32b210313c9030b236b4b760491b6040820152a280f35b6103d984615c29565b6103a0565b6064906040519062461bcd60e51b82526004820152601360248201527211540e88105b1c9958591e4819195b195d1959606a1b6044820152fd5b634e487b7160e01b84526021600452602484fd5b5080fd5b5061043a36614ed5565b600854604051634d9b423560e11b8152600481018490529192916020916001600160a01b0391908216908381602481855afa8015610854576104849188916108ab575b5015615306565b83865260018352604086209060ff600c830154166005811015610897576104ab9015615347565b60405163111a798960e31b81528481600481855afa801561088c578591899161085f575b506107b5575b5050841515806107a7575b6104e9906153d8565b600481019082825416610747576005610506910154341015615415565b858080803486600754165af161051a615145565b50156106f657908591848352600284526040832033600052845260ff60406000205416156106c9575b84835260028452604083203360005284526040600020600160ff1982541617905584835260048452604083203360005284528560406000205581806007541691541690803b1561066e576040516395f4109560e01b815291849183918290849082906105b8908d903490338f600487016151c0565b03925af19081156106aa5783916106b5575b505060048382600854166040519283809263406ad64560e11b82525afa9081156106aa57839161067d575b501680610621575b50506040519283523490830152600080516020615eda83398151915260403393a380f35b803b1561042c5781604051809263c228038d60e01b825281838161064b348c338d60048601615228565b03925af1801561067257156105fd5761066390614e16565b61066e5783386105fd565b8380fd5b6040513d84823e3d90fd5b61069d9150843d86116106a3575b6106958183614e60565b8101906151f0565b386105f5565b503d61068b565b6040513d85823e3d90fd5b6106be90614e16565b61042c5781386105ca565b848352600584526106dd3360408520615451565b338352600c84526106f1856040852061511f565b610543565b60405162461bcd60e51b815260048101849052602360248201527f45503a20455448207472616e7366657220746f205472656173757279206661696044820152621b195960ea1b6064820152608490fd5b60405162461bcd60e51b815260048101859052603260248201527f45503a2054686973206d61726b6574207573657320746f6b656e732c2075736560448201527110383630b1b2a132ba2bb4ba342a37b5b2b760711b6064820152608490fd5b5060038101548511156104e0565b604051632eaa712b60e21b815291829060049082905afa908115610854578791610822575b506009820154603c820291808304603c149015171561080e576108079161080091615384565b4210615391565b38836104d5565b634e487b7160e01b88526011600452602488fd5b90508381813d831161084d575b6108398183614e60565b810103126108485751386107da565b600080fd5b503d61082f565b6040513d89823e3d90fd5b61087f9150823d8411610885575b6108778183614e60565b810190614ff7565b386104cf565b503d61086d565b6040513d8a823e3d90fd5b634e487b7160e01b88526021600452602488fd5b6108c29150853d8711610885576108778183614e60565b3861047d565b50346102c25760203660031901126102c2576108e2614bc8565b6108ea614fcb565b6001600160a01b03908116908115610925576000548260018060a01b031982161760005516600080516020615e9a833981519152600080a380f35b604051631e4fbdf760e01b815260048101849052602490fd5b5061094836614ed5565b600854604051632b5ba3b960e01b815233600482015260209493916024916001600160a01b039182169087818581855afa9081156108545791610996899286948a91610d2c575b501561500f565b60405192838092634d9b423560e11b82528860048301525afa908115610d2157906109c8918791610d0a575015615306565b828552600186526040852060ff600c820154166005811015610cf7576109ee9015615347565b6009810154421015610cb857600490610a0886151561548c565b0195818754168015600014610c425750843403610c0457610a2a34151561548c565b858080803486600754165af1610a3e615145565b5015610bb55785965b848752600382526040872033600052825260ff6040600020541615610b9c575b84875260038252604087203360005282526040600020600160ff1982541617905582806007541691541690803b15610b9857868891610ac0938360405180968195829463c15d980760e01b84528d3390600486016154ea565b03925af1908115610854578791610b80575b505060048183600854166040519283809263406ad64560e11b82525afa918215610854578792610b63575b50501680610b09578480f35b803b15610b5f578492836064926040519687958694638f46a5a160e01b86526004860152339085015260448401525af1801561067257610b4b575b8080808480f35b610b5490614e16565b6102c2578038610b44565b8480fd5b610b799250803d106106a3576106958183614e60565b3880610afd565b610b8990614e16565b610b94578538610ad2565b8580fd5b8780fd5b84875260068252610bb03360408920615451565b610a67565b6084906023846040519262461bcd60e51b845260048401528201527f45503a20455448207472616e7366657220746f207472656173757279206661696044820152621b195960ea1b6064820152fd5b6064906018846040519262461bcd60e51b845260048401528201527711540e88125b98dbdc9c9958dd0811551208185b5bdd5b9d60421b6044820152fd5b9634610c6057610c5b868899856007541690339061526e565b610a47565b60405162461bcd60e51b815260048101839052602b818601527f45503a204e6f204554482073686f756c642062652073656e7420666f7220746f60448201526a1ad95b881cdd5c1c1bdc9d60aa1b6064820152608490fd5b60405162461bcd60e51b8152600481018890526018818501527711540e8814dd5c1c1bdc9d081c195c9a5bd908195b99195960421b6044820152606490fd5b634e487b7160e01b875260216004528387fd5b6108c29150883d8a11610885576108778183614e60565b6040513d88823e3d90fd5b610d439150843d8611610885576108778183614e60565b3861098f565b50346102c25760603660031901126102c2576004356024359060443560018060a01b0380600854169060405191634d9b423560e11b83528460048401526020928381602481855afa801561088c57610da89189916108ab575015615306565b84875260018352604087209060ff600c83015416600581101561110757610dcf9015615347565b60405163111a798960e31b81528481600481855afa80156110fc5785918a916110df575b5061104c575b50508515158061103e575b610e0d906153d8565b600481019082825416908115610fe9578589949392610e356005610e42940154831015615415565b846007541690339061526e565b858352600284526040832033600052845260ff6040600020541615610fbc575b85835260028452604083203360005284526040600020600160ff1982541617905585835260048452604083203360005284528660406000205581806007541691541690803b1561066e578584918993838a610ed5604051978896879586946395f4109560e01b86523390600487016151c0565b03925af19081156106aa578391610fa8575b505060048382600854166040519283809263406ad64560e11b82525afa9081156106aa578391610f8b575b501680610f3c575b5050604051938452830152600080516020615eda83398151915260403393a380f35b803b1561042c5760405163c228038d60e01b81529082908290818381610f688a8d338e60048601615228565b03925af180156106725715610f1a57610f8090614e16565b610b5f578438610f1a565b610fa29150843d86116106a3576106958183614e60565b38610f12565b610fb190614e16565b61042c578138610ee7565b85835260058452610fd03360408520615451565b338352600c8452610fe4866040852061511f565b610e62565b60405162461bcd60e51b815260048101869052602760248201527f45503a2054686973206d61726b6574207573657320504550552c2075736520706044820152661b1858d950995d60ca1b6064820152608490fd5b506003810154861115610e04565b604051632eaa712b60e21b815291829060049082905afa90811561088c5788916110b2575b506009820154603c820291808304603c149015171561109e576110979161080091615384565b3883610df9565b634e487b7160e01b89526011600452602489fd5b90508381813d83116110d8575b6110c98183614e60565b81010312610848575138611071565b503d6110bf565b6110f69150823d8411610885576108778183614e60565b38610df3565b6040513d8b823e3d90fd5b634e487b7160e01b89526021600452602489fd5b50346102c25760403660031901126102c257611135614bb2565b90600435815260016020526040812060ff600c82015416600581101561154e5760026111619114615640565b600d81015461117181151561567f565b60043583526002602052604083209360018060a01b039485821660005260205260ff60406000205416156115135784600754166040516307c7a72d60e01b8152602081806111c5866004356004840161520f565b0381855afa908115610d215786916114f4575b506114b95785600485015416936040519463423e7bc160e11b86526020868061120884886004356004850161555b565b0381865afa958615610854578796611485575b5060405163dc4ce34960e01b8152926020848061123f858a600480359085016156bb565b0381845afa93841561088c578894611451575b50879260036001910154905b818111156113b057505061128e92916020916040518080968194634f44289d60e01b83526004356004840161520f565b03915afa90811561085457879161137a575b6112aa92506150c3565b816112c1575050505050602091505b604051908152f35b939493806112fe5750506020946004358452600486526040842091166000528452604060002054146000146112f757505b6112b9565b90506112b9565b939291909495600435845260046020526040842091166000526020526040600020541460001461136e576123288083029283040361135a5750916113546112f29261134f612710602096048461509a565b6156dc565b906150c3565b634e487b7160e01b81526011600452602490fd5b915050602091506112b9565b90506020823d6020116113a8575b8161139560209383614e60565b81010312610848576112aa9151906112a0565b3d9150611388565b8781036113c6575b6113c1906150d0565b61125e565b9360405163dc4ce34960e01b8152602081806113e9888a600435600485016156bb565b0381875afa908115611446578b91611412575b5061140a906113c1926150c3565b9490506113b8565b90506020813d60201161143e575b8161142d60209383614e60565b8101031261084857516113c16113fc565b3d9150611420565b6040513d8d823e3d90fd5b9093506020813d60201161147d575b8161146d60209383614e60565b8101031261084857519238611252565b3d9150611460565b9095506020813d6020116114b1575b816114a160209383614e60565b810103126108485751943861121b565b3d9150611494565b60405162461bcd60e51b815260206004820152601360248201527211540e88105b1c9958591e4818db185a5b5959606a1b6044820152606490fd5b61150d915060203d602011610885576108778183614e60565b386111d8565b60405162461bcd60e51b815260206004820152601360248201527211540e88139bc81cdd185ad9481c1b1858d959606a1b6044820152606490fd5b634e487b7160e01b83526021600452602483fd5b50346102c25760403660031901126102c2576115ab906020611582614bb2565b60018060a01b03600754166040518080968194633d1e7ba160e11b83526004356004840161520f565b03915afa9081156115f957906115c7575b602090604051908152f35b506020813d82116115f1575b816115e060209383614e60565b8101031261084857602090516115bc565b3d91506115d3565b604051903d90823e3d90fd5b50346102c25760203660031901126102c257604061175191611625615de6565b50600435815260016020522060ff60116040519261164284614e29565b80546001600160a01b03908116855261165d60018301614f25565b6020860152836002830154161515604086015260038201546060860152806004830154166080860152600582015460a0860152600682015460c0860152600782015460e086015260088201546101008601526009820154610120860152600a820154610140860152600b8201546101608601526116e484600c8401541661018087016150df565b600d8201546101a0860152600e82015484811615156101c0870152611712858260081c166101e088016150eb565b60101c16610200850152600f81015461022085015260108101546102408501520154161515610260820152604051918291602083526020830190614cd4565b0390f35b50346102c25760208060031936011261042c576004359061178560018060a01b0361031e81600854163314615ce4565b8183526001815260ff600c604085200154166005811015610418576002036118ee576080600080516020615e7a83398151915291838552600181528460116040822082815582600182016117d98154614eeb565b806118ae575b505060028201556000600382015582600482015560006005820155600060068201556000600782015560006008820155600060098201556000600a8201556000600b82015582600c8201556000600d82015582600e8201556000600f820155600060108201550155838552600b815260ff6040862054166118a0575b6026604051918083528201527f5065726d616e656e746c792072656d6f76656420616674657220636c61696d206040820152651c195c9a5bd960d21b6060820152a280f35b6118a984615c29565b61185b565b601f81116001146118c8575060009150555b8238806117df565b908060009184526118e7601f898620940160051c8401600185016150f7565b55556118c0565b6064906040519062461bcd60e51b82526004820152601760248201527611540e8813585c9ad95d081b9bdd081c995cdbdb1d9959604a1b6044820152fd5b50346102c25760603660031901126102c257604435906001600160a01b038083168303610848576115ab9260209160075416604051808096819463dc4ce34960e01b8352602435600435600485016156bb565b50346102c25760403660031901126102c257604061199b614bb2565b9160043581526004602052209060018060a01b03166000526020526020604060002054604051908152f35b50346102c25760403660031901126102c2576119e0614bc8565b6119e8614fcb565b6001600160a01b03168015611a1457600f80546001600160a01b03191691909117905560243560105580f35b60405162461bcd60e51b815260206004820152601960248201527845503a20496e76616c696420626f6e642063757272656e637960381b6044820152606490fd5b50346102c257611a6436614ed5565b919081526005602052604081209081548310156102c2576020611a878484614c44565b905460405160039290921b1c6001600160a01b03168152f35b50346102c257806003193601126102c2576020601254604051908152f35b50346102c257806003193601126102c257602060405161015e8152f35b50346102c25760203660031901126102c25760043580825260016020526040822080546001600160a01b03163303611bc95760ff600c8201541660058110156104185790611b2b60099215615347565b015461a8bf198101908111611bb557421015611b7757604051611b7491611b5182614e45565b601182527010dc99585d1bdc8818d85b98d95b1b1959607a1b60208301526156fc565b80f35b60405162461bcd60e51b815260206004820152601660248201527511540e88151bdbc81b185d19481d1bc818d85b98d95b60521b6044820152606490fd5b634e487b7160e01b83526011600452602483fd5b60405162461bcd60e51b815260206004820152601b60248201527a11540e8813db9b1e4818dc99585d1bdc8818d85b8818d85b98d95b602a1b6044820152606490fd5b50346102c257611c1b36614ed5565b919081526006602052604081209081548310156102c2576020611a878484614c44565b50346102c25760203660031901126102c257611c58614bc8565b611c60614fcb565b6001600160a01b03168015611c8657600d80546001600160a01b03191691909117905580f35b60405162461bcd60e51b8152602060048201526024808201527f45503a20496e76616c6964204f7074696d69737469634f7261636c65206164646044820152637265737360e01b6064820152608490fd5b50346102c25760203660031901126102c257611cf1614bc8565b611cf9614fcb565b6001600160a01b03168015611d1f57600880546001600160a01b03191691909117905580f35b60405162461bcd60e51b815260206004820152600c60248201526b22a81d102130b21030b2323960a11b6044820152606490fd5b50346102c257806003193601126102c257600e546040516001600160a01b039091168152602090f35b50346102c25760203660031901126102c257600435815260016020819052604090912080546001600160a01b031691611db6908201614f25565b60e052600281015460ff1660c0526003810154608052600160a01b600190036004820154169160058201546006830154600784015460088501546009860154600a87015490600b88015492600c89015460ff1694600d8a015496600e8b015498600f8c01549a60108d01549c6011015460ff16610100526040518060a052526102808060a0516020015260a0510160e05190611e5191614c7f565b9c60c051151560a0516040015260805160a0516060015260a0516080015260a05160a0015260a05160c0015260a05160e0015260a051610100015260a051610120015260a051610140015260a051610160015260a05161018001611eb491614ca4565b60a0516101a0015260ff8116151560a0516101c0015260a0516101e0018160081c60ff1690611ee291614cc7565b600160a01b600190039060101c1660a051610200015260a051610220015260a051610240015261010051151560a051610260015260a05180910390f35b50346102c25760203660031901126102c25760406020916004358152600683522054604051908152f35b50346102c257806003193601126102c2576008546040516001600160a01b039091168152602090f35b50346102c25760208060031936011261042c5760043590818352600181526040832090600e8201805460ff8160081c1660028110156121e4576121aa57600c84019081549060ff82166005811015611107576001611fd0911461557b565b611fdd60ff8216156155b7565b600b860154421061216a57604051633fabe5a360e21b815288946001600160a01b0394939192919060a084600481601087901c8a165afa801561085457879061211a575b600f8a0154600295501161210f5760ff600d60019a5b0199168955600160ff198094161790551617905561205485615760565b60048382600854166040519283809263406ad64560e11b82525afa9081156106aa5783916120f2575b5016806120a2575b5050600080516020615eba8339815191529154604051908152a280f35b8354813b156120ee57829160448392604051948593849262ff4a7360e81b84528b600485015260248401525af180156106725715612085576120e390614e16565b61066e578338612085565b8280fd5b6121099150843d86116106a3576106958183614e60565b3861207d565b60ff600d859a612037565b5060a0843d8211612162575b8161213360a09383614e60565b8101031261215e57836121476002956155f2565b5061215860808a83015192016155f2565b50612021565b8680fd5b3d9150612126565b60405162461bcd60e51b815260048101869052601860248201527745503a20546f6f206561726c7920746f207265736f6c766560401b6044820152606490fd5b60405162461bcd60e51b815260048101849052601260248201527111540e88139bdd081c1c9a58d9481999595960721b6044820152606490fd5b634e487b7160e01b87526021600452602487fd5b50346102c25760403660031901126102c257612212614bc8565b6001600160a01b03168152600c60205260408120805460243592908310156102c25760206122408484614c44565b90546040519160031b1c8152f35b50346102c25760203660031901126102c257612268614fcb565b60043560125580f35b50346102c257806003193601126102c257546040516001600160a01b039091168152602090f35b50346102c2576115ab9060206122ad36614bde565b60075460405163423e7bc160e11b81529687946001600160a01b0390921693859384939091906004850161555b565b50346102c257806003193601126102c2576020601054604051908152f35b50346102c25760208060031936011261042c57612315614bc8565b61231d614fcb565b6001600160a01b03908116908390612336831515615d9d565b60018060a01b0319928084600e541617600e558460405181810190714f7074696d69737469634f7261636c65563360701b82526012815261237681614e45565b5190206024604051809481936302abf57960e61b835260048301525afa9081156106aa57839161240f575b50169182600d5491821617600d551617156123ba575080f35b6084906040519062461bcd60e51b82526004820152602860248201527f45503a204f7074696d69737469634f7261636c65206e6f7420666f756e64206960448201526737102334b73232b960c11b6064820152fd5b6124269150853d87116106a3576106958183614e60565b386123a1565b50346102c25760203660031901126102c2576004356001600160401b0381169081900361042c5761245b614fcb565b801561247857601180546001600160401b03191691909117905580f35b60405162461bcd60e51b815260206004820152601460248201527345503a20496e76616c6964206c6976656e65737360601b6044820152606490fd5b50346102c25760203660031901126102c2576004358082526001602052604082209060ff600c8301541660058110156104185760016124f3911461557b565b600b820154421061254a5761251260ff600e611b7494015416156155b7565b6040519061251f82614e45565b601982527814995cdbdb1d5d1a5bdb881c195c9a5bd908195e1c1a5c9959603a1b60208301526156fc565b60405162461bcd60e51b815260206004820152601f60248201527f45503a205265736f6c7574696f6e20706572696f64206e6f7420656e646564006044820152606490fd5b50346102c25761259e36614ed5565b91908082526020600181526040832090600e8201805460ff8160081c1660028110156121e45760016125d09114615606565b60ff601185015416156128485760ff6125ea9116156155b7565b8515158061283a575b156128005784958560018060a01b0380600d541693856010880195602487546040519c8d938492638ea2f2ab60e01b845260048401525af19889156106aa5783996127e1575b5060038701546002036127875760049350881561277e5760ff60015b16600d8801555b60ff19906001828254161790556002600c88019182541617905561267f87615760565b8481600854166040519485809263406ad64560e11b82525afa80156106725787938391612761575b5016806126fc575b5050600080516020615eba83398151915283600d7f32736e1fe22a85082b71b7eb923b176a17df522ea8342ff5e24ce4b7e2019bbf960154604051908152a254936040519015158152a380f35b909150600d850154813b156120ee57829160448392604051958693849262ff4a7360e81b84528c600485015260248401525af1918215612754578692156126af57612748919250614e16565b610b94578386386126af565b50604051903d90823e3d90fd5b6127789150863d88116106a3576106958183614e60565b386126a7565b60ff6002612655565b915091871561279f57600d860155600491889161265c565b60405162461bcd60e51b815260048101869052601a60248201527911540e8815535048185cdcd95c9d1a5bdb881c995a9958dd195960321b6044820152606490fd5b6127f9919950863d8811610885576108778183614e60565b9738612639565b60405162461bcd60e51b815260048101839052601260248201527122a81d1024b73b30b634b21037b83a34b7b760711b6044820152606490fd5b5060038301548611156125f3565b60405162461bcd60e51b815260048101849052601560248201527445503a204e6f20617373657274696f6e206d61646560581b6044820152606490fd5b50346102c257806003193601126102c25761289e614fcb565b600080546001600160a01b0319811682556001600160a01b0316600080516020615e9a8339815191528280a380f35b50346102c25760208060031936011261042c576004358252600581526040822091604051809384918482549182815201918452848420935b858282106129305750505061291c92500383614e60565b611751604051928284938452830190614dd9565b85546001600160a01b0316845260019586019588955093019201612905565b50346102c257602090816003193601126102c2576004359182825260018152604082209260ff600c8501541660058110156104185760026129909114615640565b600d840154916129a183151561567f565b818452600281526040842033600052815260ff6040600020541615612d66576007546040516307c7a72d60e01b81526001600160a01b039182169491908381806129ef33896004840161520f565b0381895afa908115610854578791612d49575b50612d1657600487015416906040519063423e7bc160e11b8252838280612a2e86338a6004850161555b565b0381895afa918215610854578792612ce7575b5060405163dc4ce34960e01b80825298858280612a6388878c600485016156bb565b03818b5afa9182156110fc578992612cb8575b50889960036001920154915b82811115612c21575050604051634f44289d60e01b8152899594939291508a878280612ab2898d6004840161520f565b03818d5afa918215610854578792612bed575b5090612ad0916150c3565b81612b5c575050505081945b803b156120ee57858391612b099383604051809681958294632f0041ed60e11b8452338d600486016154ea565b03925af1801561067257612b48575b50507f5380cf6fe903b40c6d5a9e0dfbca2f3a423f0a21520b4d5947ed5169bdba946d906040519384523393a380f35b612b5190614e16565b61066e578385612b18565b80612b90575050858452600485526040842033600052855260406000205414600014612b885794612adc565b508194612adc565b9187869294959652600487526040822033600052875260406000205414600014612be157506123288082029182040361080e5791611354612bdb9261134f6127108b9796048461509a565b94612adc565b93925050508194612adc565b88809298508193503d8311612c1a575b612c078183614e60565b8101031261084857518995612ad0612ac5565b503d612bfd565b848103612c37575b612c32906150d0565b612a82565b9a612c5688888c8f8d604051958694859384938b8552600485016156bb565b03915afa908115612cad578c91612c7e575b50612c7690612c32926150c3565b9b9050612c29565b90508881813d8311612ca6575b612c958183614e60565b810103126108485751612c32612c68565b503d612c8b565b6040513d8e823e3d90fd5b9091508581813d8311612ce0575b612cd08183614e60565b8101031261084857519038612a76565b503d612cc6565b9091508381813d8311612d0f575b612cff8183614e60565b8101031261084857519038612a41565b503d612cf5565b60405162461bcd60e51b815260048101849052600b60248201526a11540e8810db185a5b595960aa1b6044820152606490fd5b612d609150843d8611610885576108778183614e60565b38612a02565b6064906040519062461bcd60e51b82526004820152600c60248201526b45503a204e6f207374616b6560a01b6044820152fd5b506101803660031901126102c2576004356001600160401b03811161042c573660238201121561042c57612dd7903690602481600401359101614e9e565b906024351515602435036102c2576064356001600160a01b03811690036108485760026101243510156102c25761014435906001600160a01b038216820361084857600854604051632b5ba3b960e01b81523360048201526001600160a01b0390911690602081602481855afa9081156106aa5790612e5d918491613adc57501561500f565b835115613aa4576002604435101580613a97575b15613a5c5760843515613a235760a435156139e85760c4351515806139da575b1561399f576101243515613905575b6040516317916e0160e01b8152602081600481855afa9081156106aa5783916138d3575b5060e4351061389b5760e435610104351061385957602435156137f9576064356001600160a01b0316156137b557604051633462561360e11b81526064356001600160a01b0316600482015290602090829060249082905afa9081156106725790612f36918391613796575b50615054565b670de0b6b3a7640000341061375a57603c60e4350260e4358104603c1460e43515171561360557612f6790426150c3565b90603c6101043502610104358104603c146101043515171561360557612f8d90426150c3565b906202a3008201821161135a5760095493612fa7856150d0565b60095560405190612fb782614e29565b33825286602083015260243515156040830152604435606083015260018060a01b0360643516608083015260843560a083015260a43560c083015260c43560e08301524261010083015284610120830152836101408301526202a300840161016083015282610180830152826101a0830152826101c0830152613041610124356101e084016150eb565b6001600160a01b0390811661020083015261016435610220830152610240820183905261026082018390528583526001602090815260408420835181546001600160a01b03191693169290921782558201518051919291906001600160401b0382116137465781906130b66001860154614eeb565b601f8111613708575b50602090601f831160011461369957869261368e575b50508160011b916000199060031b1c19161760018301555b613100604082015115156002840161510e565b606081015160038301556004820160018060a01b0360808301511660018060a01b031982541617905560a0810151600583015560c0810151600683015560e0810151600783015561010081015160088301556101208101516009830155610140810151600a830155610160810151600b830155600c8201610180820151600581101561367a5760ff801983541691161790556101a0810151600d830155600e82016131b26101c083015115158261510e565b6101e0820151600281101561367a578154610200840151610100600160b01b031990911660089290921b61ff001691909117601091821b62010000600160b01b031617909155610220820151600f840155610240820151908301556102600151613222919015159060110161510e565b600a54600160401b8110156136645761325c613245826001889401600a55614c13565b819391549060031b91821b91600019901b19161790565b9055838152600b60205260408120805460ff191660011790556064356001600160a01b03166136195760a435670de0b6b3a76400000180670de0b6b3a7640000116136055734106135c8576132d181808080670de0b6b3a764000060018060a01b038254165af16132cb615145565b50615175565b8080808060a43560018060a01b03600754165af16132ed615145565b501561356b575b838152600260205260408120336000526020526040600020600160ff198254161790558381526004602052604081203360005260205260c435604060002055338152600c602052613348846040832061511f565b6007546001600160a01b0316803b1561042c576040516395f4109560e01b8152908290829081838161338760c43560a435606435338f600487016151c0565b03925af1801561067257908291613557575b505060085460405163406ad64560e11b815290602090829060049082906001600160a01b03165afa908115610672578291613538575b506001600160a01b038116613472575b50507f5d0726a1bb5ec8c87527e69ba86d988202e885fad8f2b4aacd618793d6f297b26020946202a3008593613422604051936101208552610120850190614c7f565b95602435151589850152604435604085015260018060a01b0360643516606085015260843560808501524260a085015260c08401528060e0840152016101008201528033940390a3604051908152f35b6001600160a01b0381163b1561042c5760405163782a780560e11b81528281806134a0338a6004840161520f565b0381836001600160a01b0387165af180156106aa57908391613524575b50506001600160a01b0381163b1561042c5760405163c228038d60e01b815290829082908183816134f860a43560c435338e60048601615228565b03926001600160a01b03165af1801561067257156133df5761351a8291614e16565b6102c257806133df565b61352d90614e16565b61042c5781386134bd565b613551915060203d6020116106a3576106958183614e60565b386133cf565b61356090614e16565b6102c2578038613399565b60405162461bcd60e51b815260206004820152602f60248201527f45503a2043726561746f72206465706f736974207472616e7366657220746f2060448201526e151c99585cdd5c9e4819985a5b1959608a1b6064820152608490fd5b60405162461bcd60e51b815260206004820152601560248201527445503a20496e73756666696369656e74205045505560581b6044820152606490fd5b634e487b7160e01b82526011600452602482fd5b61363d81808080670de0b6b3a764000060018060a01b038254165af16132cb615145565b60075461365f9060a435906001600160a01b039081169033906064351661526e565b6132f4565b634e487b7160e01b600052604160045260246000fd5b634e487b7160e01b85526021600452602485fd5b0151905038806130d5565b9250600185018652602086209086935b601f19841685106136ed576001945083601f198116106136d4575b505050811b0160018301556130ed565b015160001960f88460031b161c191690553880806136c4565b818101518355602094850194600190930192909101906136a9565b6137369060018701885260208820601f850160051c8101916020861061373c575b601f0160051c01906150f7565b386130bf565b9091508190613729565b634e487b7160e01b85526041600452602485fd5b60405162461bcd60e51b815260206004820152601460248201527345503a20496e73756666696369656e742066656560601b6044820152606490fd5b6137af915060203d602011610885576108778183614e60565b38612f30565b606460405162461bcd60e51b815260206004820152602060248201527f45503a204d756c74692d6f7074696f6e206e656564732050325020746f6b656e6044820152fd5b6064356001600160a01b0316613810575b50612f36565b604051633462561360e11b81526064356001600160a01b0316600482015290602090829060249082905afa90811561067257906138539183916137965750615054565b3861380a565b60405162461bcd60e51b815260206004820152601a60248201527945503a205265736f6c7574696f6e206166746572207374616b6560301b6044820152606490fd5b60405162461bcd60e51b815260206004820152601060248201526f22a81d1026b4b710323ab930ba34b7b760811b6044820152606490fd5b90506020813d6020116138fd575b816138ee60209383614e60565b81010312610848575138612ec4565b3d91506138e1565b6001600160a01b038316156139605761016435612ea05760405162461bcd60e51b815260206004820152601c60248201527b11540e88141c9a58d9481d1a1c995cda1bdb19081c995c5d5a5c995960221b6044820152606490fd5b60405162461bcd60e51b815260206004820152601760248201527611540e88141c9a58d94819995959081c995c5d5a5c9959604a1b6044820152606490fd5b60405162461bcd60e51b815260206004820152601360248201527245503a20496e76616c6964206f7574636f6d6560681b6044820152606490fd5b5060443560c4351115612e91565b60405162461bcd60e51b815260206004820152601360248201527211540e88125b9d985b1a590819195c1bdcda5d606a1b6044820152606490fd5b60405162461bcd60e51b815260206004820152601160248201527045503a20496e76616c6964207374616b6560781b6044820152606490fd5b60405162461bcd60e51b815260206004820152601360248201527245503a20496e76616c6964206f7074696f6e7360681b6044820152606490fd5b50600a6044351115612e71565b60405162461bcd60e51b815260206004820152601060248201526f08aa0744092dcecc2d8d2c840d0c2e6d60831b6044820152606490fd5b610d43915060203d602011610885576108778183614e60565b50346102c257806003193601126102c2576007546040516001600160a01b039091168152602090f35b50346102c25760031960403682011261042c576004356001600160401b0360248035828111610b945736602382011215610b9457613b659036908381600401359101614e9e565b91838652602094600186526040872092600e84015460ff8160081c166002811015613dd3576001613b969114615606565b60ff600c860154166005811015613dd357613bc091613bb9600160ff931461557b565b16156155b7565b600b8401544210613da057601184019460ff865416613d6757600d546001600160a01b0390811692908315613d3257600f5416938415613cfb5789949392613c7e613c50938b8e946010549a601254906011541690604051938c8501528b8452613c2984614e45565b604051638a8218bb60e01b815261010060048201529c8d9b8c9a8b996101048b0190614c7f565b9633908a01523060448a01526064890152608488015260a487015260c48601528483030160e4850152614c7f565b03925af1948515610d21578695613cca575b5050601001839055805460ff191660011790557fc92f993487c6d961b60ff2a81386dff5cc620cd4aed9cddabe26500391655e828380a380f35b90809550813d8311613cf4575b613ce18183614e60565b81010312610b5f57601093519338613c90565b503d613cd7565b60405162461bcd60e51b8152600481018b90526010818401526f11540e88109bdb99081b9bdd081cd95d60821b6044820152606490fd5b60405162461bcd60e51b8152600481018b9052600e818401526d11540e8813d3c81b9bdd081cd95d60921b6044820152606490fd5b60405162461bcd60e51b8152600481018990526012818401527145503a20417373657274696f6e206d61646560701b6044820152606490fd5b86600d6064926040519262461bcd60e51b845260048401528201526c45503a20546f6f206561726c7960981b6044820152fd5b634e487b7160e01b8a526021600452828afd5b50346102c25760208060031936011261042c5760043580835260018252604083209160ff600c84015416600581101561367a5760030361410e57818452600281526040842033600052815260ff6040600020541680156140ee575b156140b1578392828552600282526040852033600052825260ff6040600020541661400b575b828552600382526040852033600052825260ff60406000205416613f63575b8315613f245760075460049091015485916001600160a01b039182169116803b156120ee57858391613ed1938360405180968195829463164fcd7d60e21b8452338d600486016154ea565b03925af1801561067257613f10575b50507ff3f402280ef0a7905e124aa621b65eaeb2725c343e8b36d398ed78c29daf285c906040519384523393a380f35b613f1990614e16565b61066e578338613ee0565b60405162461bcd60e51b815260048101839052601760248201527645503a204e6f20726566756e6420617661696c61626c6560481b6044820152606490fd5b92613f9a908260018060a01b0380600754169060048801541690604051808096819463256ba74160e01b8352338b6004850161555b565b03915afa908115610d21578691613fda575b613fb692506150c3565b928285526003825260408520336000528252604060002060ff198154169055613e86565b90508282813d8311614004575b613ff18183614e60565b8101031261084857613fb6915190613fac565b503d613fe7565b92506140428160018060a01b0380600754169060048701541690604051808095819463423e7bc160e11b8352338a6004850161555b565b03915afa9081156140a6578591614079575b50928285526002825260408520336000528252604060002060ff198154169055613e67565b90508181813d831161409f575b6140908183614e60565b81010312610848575138614054565b503d614086565b6040513d87823e3d90fd5b6064906040519062461bcd60e51b82526004820152601660248201527511540e88139bc81cdd185ad9481d1bc81c99599d5b9960521b6044820152fd5b50818452600381526040842033600052815260ff60406000205416613e41565b6064906040519062461bcd60e51b82526004820152601860248201527711540e8813585c9ad95d081b9bdd0818d85b98d95b1b195960421b6044820152fd5b50346102c257806003193601126102c25760206040516101f48152f35b50346102c25760403660031901126102c2576115ab90602061418a614bb2565b60018060a01b03600754166040518080968194634f44289d60e01b83526004356004840161520f565b50346102c25760203660031901126102c2576141cd614bc8565b6141d5614fcb565b6001600160a01b03166141e9811515615d9d565b600e80546001600160a01b03191691909117905580f35b50346102c257806003193601126102c2576020600954604051908152f35b50346102c25760203660031901126102c257614238615de6565b50600435815260016020526040812060ff60116040519261425884614e29565b80546001600160a01b0316845261427160018201614f25565b602085015260028101548316151560408501526003810154606085015260048101546001600160a01b03166080850152600581015460a0850152600681015460c0850152600781015460e085015260088101546101008501526009810154610120850152600a810154610140850152600b810154610160850152600c81015461430090841661018086016150df565b600d8101546101a0850152600e81015483811615156101c086015261432e848260081c166101e087016150eb565b6001600160a01b03601091821c8116610200870152600f830154610220870152908201546102408601529101549190911615156102608301526007546080830151604051633d1e7ba160e11b815292918216916020918491829161439991166004803590840161520f565b0381845afa91821561464057849261464b575b506080830151604051634f44289d60e01b81529291602091849190829081906143e4906001600160a01b03166004803590840161520f565b03915afa91821561464057849261460c575b506004358452600560205260408420546006602052604085205460056020526040862091604051808460208296549384815201908a5260208a20928a5b8181106145ea57505061444892500384614e60565b600435875260066020526040872094604051808760208299549384815201908b5260208b20928b5b8181106145c857505061448592500387614e60565b6008546080880151604051637d85959b60e11b81526001600160a01b039182166004820152918a9183916024918391165afa9889156115f957809961452d575b6144ef896117518c61451f8c6145118d8d8d8d8d6040519b8c9b6101008d526101008d0190614cd4565b9460208c015260408b015260608a0152608089015287820360a0890152614dd9565b9085820360c0870152614dd9565b9083820360e0850152614c7f565b909198503d8082843e6145408184614e60565b82019160208184031261042c578051906001600160401b0382116120ee570182601f8201121561042c5780519161457683614e83565b936145846040519586614e60565b838552602084840101116102c257509361451193836145b761451f98946117519b9860206144ef9f9c9881019101614c5c565b9a50935093968195509591956144c5565b84546001600160a01b031683526001948501948b945060209093019201614470565b84546001600160a01b0316835260019485019488945060209093019201614433565b9091506020813d602011614638575b8161462860209383614e60565b81010312610848575190386143f6565b3d915061461b565b6040513d86823e3d90fd5b91506020823d602011614678575b8161466660209383614e60565b810103126108485790519060206143ac565b3d9150614659565b50346102c25760208060031936011261042c576004358083526001825260408320600383526040842033855283526146be60ff604086205416615512565b60ff600c82015416600581101561367a57806148525750600981015461a8bf19810190811161483e574210156147de575b8360018060a01b036004816007541693015416916040519063256ba74160e01b825285828061472387338a6004850161555b565b0381845afa9182156106aa5783926147af575b50614742821515615512565b803b156120ee5761476c93836040518096819582946317be0b2f60e11b8452338b600486016154ea565b03925af180156146405761479c575b5082526003815260408220903360005252604060002060ff19815416905580f35b6147a890939193614e16565b913861477b565b9091508581813d83116147d7575b6147c78183614e60565b810103126120ee57519038614736565b503d6147bd565b60405162461bcd60e51b815260048101849052603260248201527f45503a2043616e6e6f742077697468647261772077697468696e20313220686f6044820152711d5c9cc81bd9881cdd185ada5b99c8195b9960721b6064820152608490fd5b634e487b7160e01b85526011600452602485fd5b600481149081156148bc575b506146ef5760405162461bcd60e51b815260048101849052602b60248201527f45503a2043616e6e6f7420776974686472617720696e2063757272656e74206d60448201526a61726b657420737461746560a81b6064820152608490fd5b60039150143861485e565b50346102c25760203660031901126102c25760043590600a548210156102c257602061224083614c13565b50346102c25760403660031901126102c25760ff6040602092614913614bb2565b6004358252600285528282206001600160a01b03909116825284522054604051911615158152f35b50346102c257806003193601126102c2576020604051670de0b6b3a76400008152f35b50346102c25760403660031901126102c25760ff604060209261497f614bb2565b6004358252600385528282206001600160a01b03909116825284522054604051911615158152f35b50346102c2576149ea60206149bb36614bde565b60075460405163256ba74160e01b81529586946001600160a01b0390921693859384939091906004850161555b565b03915afa908115610672578291614a07575b602082604051908152f35b90506020813d8211614a34575b81614a2160209383614e60565b8101031261042c576020915051386149fc565b3d9150614a14565b50346102c257806003193601126102c257600d546040516001600160a01b039091168152602090f35b50346102c257806003193601126102c257600f546040516001600160a01b039091168152602090f35b50346102c25760203660031901126102c257600435808252600160205260408220600c81019081549060ff82166005811015614b485790614ad1600a9215615347565b01544210614b035760ff19166001179055808252600b602052604082205460ff16614afa575080f35b611b7490615c29565b60405162461bcd60e51b815260206004820152601f60248201527f45503a205265736f6c7574696f6e2074696d65206e6f742072656163686564006044820152606490fd5b634e487b7160e01b86526021600452602486fd5b50346102c25760203660031901126102c25760ff60406020926004358152600b84522054166040519015158152f35b90503461042c57602036600319011261042c57604060209260043581526005845220548152f35b602435906001600160a01b038216820361084857565b600435906001600160a01b038216820361084857565b606090600319011261084857600435906001600160a01b03906024358281168103610848579160443590811681036108485790565b600a54811015614c2e57600a60005260206000200190600090565b634e487b7160e01b600052603260045260246000fd5b8054821015614c2e5760005260206000200190600090565b60005b838110614c6f5750506000910152565b8181015183820152602001614c5f565b90602091614c9881518092818552858086019101614c5c565b601f01601f1916010190565b906005821015614cb15752565b634e487b7160e01b600052602160045260246000fd5b906002821015614cb15752565b9060018060a01b0391828151168252614cfc6020820151610280806020860152840190614c7f565b926040820151151560408401526060820151606084015280608083015116608084015260a082015160a084015260c082015160c084015260e082015160e08401526101008083015190840152610120808301519084015261014080830151908401526101608083015190840152614d7c6101808084015190850190614ca4565b6101a080830151908401526101c080830151151590840152614da76101e08084015190850190614cc7565b610200908183015116908301526102208082015190830152610240808201519083015261026080910151151591015290565b90815180825260208080930193019160005b828110614df9575050505090565b83516001600160a01b031685529381019392810192600101614deb565b6001600160401b03811161366457604052565b61028081019081106001600160401b0382111761366457604052565b604081019081106001600160401b0382111761366457604052565b601f909101601f19168101906001600160401b0382119082101761366457604052565b6001600160401b03811161366457601f01601f191660200190565b929192614eaa82614e83565b91614eb86040519384614e60565b829481845281830111610848578281602093846000960137010152565b6040906003190112610848576004359060243590565b90600182811c92168015614f1b575b6020831014614f0557565b634e487b7160e01b600052602260045260246000fd5b91607f1691614efa565b9060405191826000825492614f3984614eeb565b908184526001948581169081600014614fa85750600114614f65575b5050614f6392500383614e60565b565b9093915060005260209081600020936000915b818310614f90575050614f6393508201013880614f55565b85548884018501529485019487945091830191614f78565b915050614f6394506020925060ff191682840152151560051b8201013880614f55565b6000546001600160a01b03163303614fdf57565b60405163118cdaa760e01b8152336004820152602490fd5b90816020910312610848575180151581036108485790565b1561501657565b60405162461bcd60e51b815260206004820152601660248201527511540e8815d85b1b195d08189b1858dadb1a5cdd195960521b6044820152606490fd5b1561505b57565b60405162461bcd60e51b815260206004820152601760248201527611540e88151bdad95b881b9bdd081cdd5c1c1bdc9d1959604a1b6044820152606490fd5b818102929181159184041417156150ad57565b634e487b7160e01b600052601160045260246000fd5b919082018092116150ad57565b60001981146150ad5760010190565b6005821015614cb15752565b6002821015614cb15752565b818110615102575050565b600081556001016150f7565b9060ff801983541691151516179055565b805490600160401b821015613664578161324591600161514194018155614c44565b9055565b3d15615170573d9061515682614e83565b916151646040519384614e60565b82523d6000602084013e565b606090565b1561517c57565b606460405162461bcd60e51b815260206004820152602060248201527f45503a20466565207472616e7366657220746f206f776e6572206661696c65646044820152fd5b9081526001600160a01b039182166020820152911660408201526060810191909152608081019190915260a00190565b9081602091031261084857516001600160a01b03811681036108485790565b9081526001600160a01b03909116602082015260400190565b909493926060926080830196835260018060a01b0316602083015260408201520152565b6001600160a01b03918216815291166020820152604081019190915260600190565b92906000916152a7602094615299604051938492888401966323b872dd60e01b88526024850161524c565b03601f198101835282614e60565b519082855af1156152fa576000513d6152f157506001600160a01b0381163b155b6152cf5750565b604051635274afe760e01b81526001600160a01b039091166004820152602490fd5b600114156152c8565b6040513d6000823e3d90fd5b1561530d57565b60405162461bcd60e51b815260206004820152601260248201527111540e8813585c9ad95d0819195b195d195960721b6044820152606490fd5b1561534e57565b60405162461bcd60e51b815260206004820152600e60248201526d45503a204e6f742061637469766560901b6044820152606490fd5b919082039182116150ad57565b1561539857565b60405162461bcd60e51b815260206004820152601860248201527711540e8814dd185ada5b99c81c195c9a5bd908195b99195960421b6044820152606490fd5b156153df57565b60405162461bcd60e51b815260206004820152600e60248201526d22a81d102130b21037b83a34b7b760911b6044820152606490fd5b1561541c57565b60405162461bcd60e51b815260206004820152600d60248201526c22a81d102132b637bb9036b4b760991b6044820152606490fd5b8054600160401b8110156136645761546e91600182018155614c44565b819291549060031b9160018060a01b03809116831b921b1916179055565b1561549357565b60405162461bcd60e51b815260206004820152602960248201527f45503a20537570706f727420616d6f756e74206d75737420626520677265617460448201526806572207468616e20360bc1b6064820152608490fd5b9081526001600160a01b03918216602082015291166040820152606081019190915260800190565b1561551957565b60405162461bcd60e51b815260206004820152601a60248201527945503a204e6f20737570706f727420746f20776974686472617760301b6044820152606490fd5b9081526001600160a01b0391821660208201529116604082015260600190565b1561558257565b60405162461bcd60e51b815260206004820152600d60248201526c11540e88139bdd08195b991959609a1b6044820152606490fd5b156155be57565b60405162461bcd60e51b815260206004820152600c60248201526b11540e8814995cdbdb1d995960a21b6044820152606490fd5b51906001600160501b038216820361084857565b1561560d57565b60405162461bcd60e51b815260206004820152600b60248201526a45503a204e6f7420554d4160a81b6044820152606490fd5b1561564757565b60405162461bcd60e51b815260206004820152601060248201526f11540e88139bdd081c995cdbdb1d995960821b6044820152606490fd5b1561568657565b60405162461bcd60e51b815260206004820152600d60248201526c22a81d102737903bb4b73732b960991b6044820152606490fd5b90815260208101919091526001600160a01b03909116604082015260600190565b81156156e6570490565b634e487b7160e01b600052601260045260246000fd5b90615740600080516020615e7a83398151915291836000526001602052600c604060002001600360ff19825416179055604051918291602083526020830190614c7f565b0390a2565b6001600160a01b039091168152602081019190915260400190565b60009080825260206001815260409182842090849160016003820154600d830154915b81811115615b7b575050600754600483810180548951634f44289d60e01b81526001600160a01b03999298939792948a1693918a1692918582806157ca8787838f0161520f565b0381885afa918215615b71579189918d97969594938f92615b2e575b5091615810856157f886948a966150c3565b995163dc4ce34960e01b81529a8b94859485016156bb565b0381865afa958615615af1578c96615afb575b508382615843928d519384928392633d1e7ba160e11b84528d840161520f565b0381865afa938415615af1578c94615ac1575b505061015e9384840284159585820414861715615aae57612710809104956101f49081870291878304141715615a9b57049561599d575050506158a39061589d84846150c3565b90615384565b9281615930575b5050906158b6916150c3565b92836158c5575b505050505050565b806007541692541690823b15610b9457918493918680946158f997519788958694859363f0824f3360e01b85528401615745565b03925af19081156159275750615913575b808080806158bd565b61591d8291614e16565b6102c2578061590a565b513d84823e3d90fd5b8680600754169154168787541690823b15615999579161596993918b80948c519687958694859363112cd22360e01b85528d850161524c565b03925af1801561598f57908891156158aa5761598490614e16565b61215e5786386158aa565b87513d8a823e3d90fd5b8a80fd5b9092509794909293976159b7575b50505050505050505050565b849084615a35575b5050505050836159d3575b808080806159ab565b806007541692541690823b15610b945791849391868094615a079751978895869485936348fef59560e01b85528401615745565b03925af19081156159275750615a21575b808080806159ca565b615a2b8291614e16565b6102c25780615a18565b5416823b15615a975791615a6293918a80948b519687958694859363112cd22360e01b85528c850161524c565b03925af18015615a8d57615a7a575b808083816159bf565b615a8690969196614e16565b9438615a71565b86513d89823e3d90fd5b8980fd5b634e487b7160e01b8e5260118a5260248efd5b634e487b7160e01b8d526011895260248dfd5b9080929450813d8311615aea575b615ad98183614e60565b810103126159995751913880615856565b503d615acf565b8b513d8e823e3d90fd5b9095508381813d8311615b27575b615b138183614e60565b81010312615b2357519483615823565b8b80fd5b503d615b09565b9250929394959650508581813d8311615b6a575b615b4c8183614e60565b81010312615b6657518b95949392918991906158106157e6565b8c80fd5b503d615b42565b8c513d8f823e3d90fd5b828103615b91575b615b8c906150d0565b615783565b9487878760018060a01b0388816007541691615bc8600491828c01541696519687958694859463dc4ce34960e01b865285016156bb565b03915afa908115615c1f578a91615bf0575b50615be890615b8c926150c3565b959050615b83565b90508781813d8311615c18575b615c078183614e60565b81010312615a975751615b8c615bda565b503d615bfd565b89513d8c823e3d90fd5b60005b600a9081549182821015615cde578392615c4583614c13565b949054600395861b1c14615c64575050615c5f91506150d0565b615c2c565b9091600019918281019081116150ad57613245615c83615c8f92614c13565b905490871b1c92614c13565b905581548015615cc857810192615ca584614c13565b81939154921b1b1916905555600052600b602052604060002060ff198154169055565b634e487b7160e01b600052603160045260246000fd5b50505050565b15615ceb57565b60405162461bcd60e51b815260206004820152601560248201527422a81d1027b7363c9020b236b4b726b0b730b3b2b960591b6044820152606490fd5b15615d2f57565b60405162461bcd60e51b815260206004820152600a60248201526911540e8810985908125160b21b6044820152606490fd5b15615d6857565b60405162461bcd60e51b815260206004820152600d60248201526c11540e88139bc81b585c9ad95d609a1b6044820152606490fd5b15615da457565b60405162461bcd60e51b815260206004820152601a60248201527945503a20496e76616c69642046696e646572206164647265737360301b6044820152606490fd5b60405190615df382614e29565b81610260600091828152606060208201528260408201528260608201528260808201528260a08201528260c08201528260e08201528261010082015282610120820152826101408201528261016082015282610180820152826101a0820152826101c0820152826101e0820152826102008201528261022082015282610240820152015256fe4c4561c5b0048424071c1115e9f1e325486e21c21333d968f21097b7b72d12ad8be0079c531659141344cd1fd0a4f28419497f9722a3daafe3b4186f6b6457e06dfc24f0f2fb42e49fb4fa3ffa8abb148cab908a1fb8335b3f128a08b2594af1e10fdde2c5cd9b92e449ee25df01febda2cbebc5553e38f2250ffe7f2d5143bca164736f6c6343000814000a","opcodes":"PUSH1 0x80 CALLVALUE PUSH3 0xFF JUMPI PUSH1 0x1F PUSH3 0x6036 CODESIZE DUP2 SWAP1 SUB SWAP2 DUP3 ADD PUSH1 0x1F NOT AND DUP4 ADD SWAP2 PUSH1 0x1 PUSH1 0x1 PUSH1 0x40 SHL SUB DUP4 GT DUP5 DUP5 LT OR PUSH3 0x104 JUMPI DUP1 DUP5 SWAP3 PUSH1 0x60 SWAP5 PUSH1 0x40 MSTORE DUP4 CODECOPY DUP2 ADD SUB SLT PUSH3 0xFF JUMPI PUSH3 0x4D DUP2 PUSH3 0x11A JUMP JUMPDEST PUSH1 0x20 DUP3 ADD MLOAD PUSH1 0x1 PUSH1 0x1 PUSH1 0xA0 SHL SUB DUP1 DUP3 AND SWAP4 SWAP1 SWAP2 DUP5 SWAP1 SUB PUSH3 0xFF JUMPI PUSH3 0x77 PUSH1 0x40 DUP4 SWAP3 ADD PUSH3 0x11A JUMP JUMPDEST SWAP3 AND SWAP2 DUP3 ISZERO PUSH3 0xE6 JUMPI PUSH1 0x0 SLOAD SWAP4 PUSH1 0x1 DUP1 PUSH1 0xA0 SHL SUB NOT SWAP4 DUP1 DUP6 DUP8 AND OR PUSH1 0x0 SSTORE DUP4 PUSH1 0x40 MLOAD SWAP7 AND PUSH32 0x8BE0079C531659141344CD1FD0A4F28419497F9722A3DAAFE3B4186F6B6457E0 PUSH1 0x0 DUP1 LOG3 PUSH1 0x1 PUSH1 0x9 SSTORE DUP4 PUSH1 0x7 SLOAD AND OR PUSH1 0x7 SSTORE AND SWAP1 PUSH1 0x8 SLOAD AND OR PUSH1 0x8 SSTORE PUSH2 0x5F06 SWAP1 DUP2 PUSH3 0x130 DUP3 CODECOPY RETURN JUMPDEST PUSH1 0x40 MLOAD PUSH4 0x1E4FBDF7 PUSH1 0xE0 SHL DUP2 MSTORE PUSH1 0x0 PUSH1 0x4 DUP3 ADD MSTORE PUSH1 0x24 SWAP1 REVERT JUMPDEST PUSH1 0x0 DUP1 REVERT JUMPDEST PUSH4 0x4E487B71 PUSH1 0xE0 SHL PUSH1 0x0 MSTORE PUSH1 0x41 PUSH1 0x4 MSTORE PUSH1 0x24 PUSH1 0x0 REVERT JUMPDEST MLOAD SWAP1 PUSH1 0x1 PUSH1 0x1 PUSH1 0xA0 SHL SUB DUP3 AND DUP3 SUB PUSH3 0xFF JUMPI JUMP INVALID PUSH2 0x120 DUP1 PUSH1 0x40 MSTORE PUSH1 0x4 CALLDATASIZE LT ISZERO PUSH2 0x1E JUMPI JUMPDEST POP CALLDATASIZE ISZERO PUSH2 0x1C JUMPI PUSH1 0x0 DUP1 REVERT JUMPDEST STOP JUMPDEST PUSH1 0x0 SWAP1 DUP2 CALLDATALOAD PUSH1 0xE0 SHR SWAP1 DUP2 PUSH4 0xCCF4467 EQ PUSH2 0x4B8B JUMPI POP DUP1 PUSH4 0xD64CDBD EQ PUSH2 0x4B5C JUMPI DUP1 PUSH4 0x157BDCCE EQ PUSH2 0x4A8E JUMPI DUP1 PUSH4 0x209C1C94 EQ PUSH2 0x4A65 JUMPI DUP1 PUSH4 0x22302922 EQ PUSH2 0x4A3C JUMPI DUP1 PUSH4 0x256BA741 EQ PUSH2 0x49A7 JUMPI DUP1 PUSH4 0x287F57B5 EQ PUSH2 0x495E JUMPI DUP1 PUSH4 0x2EF1BDFA EQ PUSH2 0x493B JUMPI DUP1 PUSH4 0x304BF1F1 EQ PUSH2 0x48F2 JUMPI DUP1 PUSH4 0x3ADFE6D0 EQ PUSH2 0x48C7 JUMPI DUP1 PUSH4 0x3E32A76C EQ PUSH2 0x4680 JUMPI DUP1 PUSH4 0x3EC79193 EQ PUSH2 0x421E JUMPI DUP1 PUSH4 0x406EF2EF EQ PUSH2 0x4200 JUMPI DUP1 PUSH4 0x42E5BD25 EQ PUSH2 0x41B3 JUMPI DUP1 PUSH4 0x4F44289D EQ PUSH2 0x416A JUMPI DUP1 PUSH4 0x539AA77F EQ PUSH2 0x414D JUMPI DUP1 PUSH4 0x5B7BAF64 EQ PUSH2 0x3DE6 JUMPI DUP1 PUSH4 0x5E9A34E8 EQ PUSH2 0x3B1E JUMPI DUP1 PUSH4 0x61D027B3 EQ PUSH2 0x3AF5 JUMPI DUP1 PUSH4 0x66CF7ED4 EQ PUSH2 0x2D99 JUMPI DUP1 PUSH4 0x677BD9FF EQ PUSH2 0x294F JUMPI DUP1 PUSH4 0x6F59359E EQ PUSH2 0x28CD JUMPI DUP1 PUSH4 0x715018A6 EQ PUSH2 0x2885 JUMPI DUP1 PUSH4 0x78505266 EQ PUSH2 0x258F JUMPI DUP1 PUSH4 0x7C16CD9E EQ PUSH2 0x24B4 JUMPI DUP1 PUSH4 0x7E644A5F EQ PUSH2 0x242C JUMPI DUP1 PUSH4 0x8053EC7B EQ PUSH2 0x22FA JUMPI DUP1 PUSH4 0x8333CB06 EQ PUSH2 0x22DC JUMPI DUP1 PUSH4 0x847CF782 EQ PUSH2 0x2298 JUMPI DUP1 PUSH4 0x8DA5CB5B EQ PUSH2 0x2271 JUMPI DUP1 PUSH4 0x9300B5C2 EQ PUSH2 0x224E JUMPI DUP1 PUSH4 0x98A17671 EQ PUSH2 0x21F8 JUMPI DUP1 PUSH4 0x9A3A40D6 EQ PUSH2 0x1F72 JUMPI DUP1 PUSH4 0xA210B6A4 EQ PUSH2 0x1F49 JUMPI DUP1 PUSH4 0xA30A0914 EQ PUSH2 0x1F1F JUMPI DUP1 PUSH4 0xB1283E77 EQ PUSH2 0x1D7C JUMPI DUP1 PUSH4 0xB9A3C84C EQ PUSH2 0x1D53 JUMPI DUP1 PUSH4 0xBC160758 EQ PUSH2 0x1CD7 JUMPI DUP1 PUSH4 0xBF5C3252 EQ PUSH2 0x1C3E JUMPI DUP1 PUSH4 0xC22C62C3 EQ PUSH2 0x1C0C JUMPI DUP1 PUSH4 0xC3436E0C EQ PUSH2 0x1ADB JUMPI DUP1 PUSH4 0xCC3CBD2A EQ PUSH2 0x1ABE JUMPI DUP1 PUSH4 0xD509B017 EQ PUSH2 0x1AA0 JUMPI DUP1 PUSH4 0xD5F82707 EQ PUSH2 0x1A55 JUMPI DUP1 PUSH4 0xD70E9910 EQ PUSH2 0x19C6 JUMPI DUP1 PUSH4 0xD8C5DD67 EQ PUSH2 0x197F JUMPI DUP1 PUSH4 0xDC4CE349 EQ PUSH2 0x192C JUMPI DUP1 PUSH4 0xE0BD4ACC EQ PUSH2 0x1755 JUMPI DUP1 PUSH4 0xEB44FDD3 EQ PUSH2 0x1605 JUMPI DUP1 PUSH4 0xF00FE321 EQ PUSH2 0x1562 JUMPI DUP1 PUSH4 0xF15CC406 EQ PUSH2 0x111B JUMPI DUP1 PUSH4 0xF1B7DDE3 EQ PUSH2 0xD49 JUMPI DUP1 PUSH4 0xF204072F EQ PUSH2 0x93E JUMPI DUP1 PUSH4 0xF2FDE38B EQ PUSH2 0x8C8 JUMPI DUP1 PUSH4 0xF4867591 EQ PUSH2 0x430 JUMPI DUP1 PUSH4 0xFB87F2C3 EQ PUSH2 0x2EE JUMPI DUP1 PUSH4 0xFE4E1983 EQ PUSH2 0x2C5 JUMPI PUSH4 0xFE53A6E8 SUB PUSH2 0x10 JUMPI CALLVALUE PUSH2 0x2C2 JUMPI DUP1 PUSH1 0x3 NOT CALLDATASIZE ADD SLT PUSH2 0x2C2 JUMPI PUSH1 0x20 PUSH1 0x9 SLOAD PUSH1 0x40 MLOAD SWAP1 DUP2 MSTORE RETURN JUMPDEST DUP1 REVERT JUMPDEST POP CALLVALUE PUSH2 0x2C2 JUMPI DUP1 PUSH1 0x3 NOT CALLDATASIZE ADD SLT PUSH2 0x2C2 JUMPI PUSH1 0x11 SLOAD PUSH1 0x40 MLOAD PUSH1 0x1 PUSH1 0x1 PUSH1 0x40 SHL SUB SWAP1 SWAP2 AND DUP2 MSTORE PUSH1 0x20 SWAP1 RETURN JUMPDEST POP CALLVALUE PUSH2 0x2C2 JUMPI PUSH1 0x20 DUP1 PUSH1 0x3 NOT CALLDATASIZE ADD SLT PUSH2 0x42C JUMPI PUSH1 0x4 CALLDATALOAD SWAP1 PUSH2 0x33F PUSH1 0x1 DUP1 PUSH1 0xA0 SHL SUB PUSH2 0x31E DUP2 PUSH1 0x8 SLOAD AND CALLER EQ PUSH2 0x5CE4 JUMP JUMPDEST PUSH2 0x32B PUSH1 0x9 SLOAD DUP6 LT PUSH2 0x5D28 JUMP JUMPDEST DUP4 DUP6 MSTORE PUSH1 0x1 DUP4 MSTORE PUSH1 0x40 DUP6 KECCAK256 SLOAD AND ISZERO ISZERO PUSH2 0x5D61 JUMP JUMPDEST DUP2 DUP4 MSTORE PUSH1 0x1 DUP2 MSTORE PUSH1 0xFF PUSH1 0xC PUSH1 0x40 DUP6 KECCAK256 ADD SLOAD AND PUSH1 0x5 DUP2 LT ISZERO PUSH2 0x418 JUMPI PUSH1 0x4 EQ PUSH2 0x3DE JUMPI PUSH1 0x60 PUSH1 0x0 DUP1 MLOAD PUSH1 0x20 PUSH2 0x5E7A DUP4 CODECOPY DUP2 MLOAD SWAP2 MSTORE SWAP2 DUP4 DUP6 MSTORE PUSH1 0x1 DUP2 MSTORE PUSH1 0xC PUSH1 0x40 DUP7 KECCAK256 ADD PUSH1 0x4 PUSH1 0xFF NOT DUP3 SLOAD AND OR SWAP1 SSTORE DUP4 DUP6 MSTORE PUSH1 0xB DUP2 MSTORE PUSH1 0xFF PUSH1 0x40 DUP7 KECCAK256 SLOAD AND PUSH2 0x3D0 JUMPI JUMPDEST PUSH1 0x17 PUSH1 0x40 MLOAD SWAP2 DUP1 DUP4 MSTORE DUP3 ADD MSTORE PUSH23 0x26B0B935B2BA103232B632BA32B210313C9030B236B4B7 PUSH1 0x49 SHL PUSH1 0x40 DUP3 ADD MSTORE LOG2 DUP1 RETURN JUMPDEST PUSH2 0x3D9 DUP5 PUSH2 0x5C29 JUMP JUMPDEST PUSH2 0x3A0 JUMP JUMPDEST PUSH1 0x64 SWAP1 PUSH1 0x40 MLOAD SWAP1 PUSH3 0x461BCD PUSH1 0xE5 SHL DUP3 MSTORE PUSH1 0x4 DUP3 ADD MSTORE PUSH1 0x13 PUSH1 0x24 DUP3 ADD MSTORE PUSH19 0x11540E88105B1C9958591E4819195B195D1959 PUSH1 0x6A SHL PUSH1 0x44 DUP3 ADD MSTORE REVERT JUMPDEST PUSH4 0x4E487B71 PUSH1 0xE0 SHL DUP5 MSTORE PUSH1 0x21 PUSH1 0x4 MSTORE PUSH1 0x24 DUP5 REVERT JUMPDEST POP DUP1 REVERT JUMPDEST POP PUSH2 0x43A CALLDATASIZE PUSH2 0x4ED5 JUMP JUMPDEST PUSH1 0x8 SLOAD PUSH1 0x40 MLOAD PUSH4 0x4D9B4235 PUSH1 0xE1 SHL DUP2 MSTORE PUSH1 0x4 DUP2 ADD DUP5 SWAP1 MSTORE SWAP2 SWAP3 SWAP2 PUSH1 0x20 SWAP2 PUSH1 0x1 PUSH1 0x1 PUSH1 0xA0 SHL SUB SWAP2 SWAP1 DUP3 AND SWAP1 DUP4 DUP2 PUSH1 0x24 DUP2 DUP6 GAS STATICCALL DUP1 ISZERO PUSH2 0x854 JUMPI PUSH2 0x484 SWAP2 DUP9 SWAP2 PUSH2 0x8AB JUMPI JUMPDEST POP ISZERO PUSH2 0x5306 JUMP JUMPDEST DUP4 DUP7 MSTORE PUSH1 0x1 DUP4 MSTORE PUSH1 0x40 DUP7 KECCAK256 SWAP1 PUSH1 0xFF PUSH1 0xC DUP4 ADD SLOAD AND PUSH1 0x5 DUP2 LT ISZERO PUSH2 0x897 JUMPI PUSH2 0x4AB SWAP1 ISZERO PUSH2 0x5347 JUMP JUMPDEST PUSH1 0x40 MLOAD PUSH4 0x111A7989 PUSH1 0xE3 SHL DUP2 MSTORE DUP5 DUP2 PUSH1 0x4 DUP2 DUP6 GAS STATICCALL DUP1 ISZERO PUSH2 0x88C JUMPI DUP6 SWAP2 DUP10 SWAP2 PUSH2 0x85F JUMPI JUMPDEST POP PUSH2 0x7B5 JUMPI JUMPDEST POP POP DUP5 ISZERO ISZERO DUP1 PUSH2 0x7A7 JUMPI JUMPDEST PUSH2 0x4E9 SWAP1 PUSH2 0x53D8 JUMP JUMPDEST PUSH1 0x4 DUP2 ADD SWAP1 DUP3 DUP3 SLOAD AND PUSH2 0x747 JUMPI PUSH1 0x5 PUSH2 0x506 SWAP2 ADD SLOAD CALLVALUE LT ISZERO PUSH2 0x5415 JUMP JUMPDEST DUP6 DUP1 DUP1 DUP1 CALLVALUE DUP7 PUSH1 0x7 SLOAD AND GAS CALL PUSH2 0x51A PUSH2 0x5145 JUMP JUMPDEST POP ISZERO PUSH2 0x6F6 JUMPI SWAP1 DUP6 SWAP2 DUP5 DUP4 MSTORE PUSH1 0x2 DUP5 MSTORE PUSH1 0x40 DUP4 KECCAK256 CALLER PUSH1 0x0 MSTORE DUP5 MSTORE PUSH1 0xFF PUSH1 0x40 PUSH1 0x0 KECCAK256 SLOAD AND ISZERO PUSH2 0x6C9 JUMPI JUMPDEST DUP5 DUP4 MSTORE PUSH1 0x2 DUP5 MSTORE PUSH1 0x40 DUP4 KECCAK256 CALLER PUSH1 0x0 MSTORE DUP5 MSTORE PUSH1 0x40 PUSH1 0x0 KECCAK256 PUSH1 0x1 PUSH1 0xFF NOT DUP3 SLOAD AND OR SWAP1 SSTORE DUP5 DUP4 MSTORE PUSH1 0x4 DUP5 MSTORE PUSH1 0x40 DUP4 KECCAK256 CALLER PUSH1 0x0 MSTORE DUP5 MSTORE DUP6 PUSH1 0x40 PUSH1 0x0 KECCAK256 SSTORE DUP2 DUP1 PUSH1 0x7 SLOAD AND SWAP2 SLOAD AND SWAP1 DUP1 EXTCODESIZE ISZERO PUSH2 0x66E JUMPI PUSH1 0x40 MLOAD PUSH4 0x95F41095 PUSH1 0xE0 SHL DUP2 MSTORE SWAP2 DUP5 SWAP2 DUP4 SWAP2 DUP3 SWAP1 DUP5 SWAP1 DUP3 SWAP1 PUSH2 0x5B8 SWAP1 DUP14 SWAP1 CALLVALUE SWAP1 CALLER DUP16 PUSH1 0x4 DUP8 ADD PUSH2 0x51C0 JUMP JUMPDEST SUB SWAP3 GAS CALL SWAP1 DUP2 ISZERO PUSH2 0x6AA JUMPI DUP4 SWAP2 PUSH2 0x6B5 JUMPI JUMPDEST POP POP PUSH1 0x4 DUP4 DUP3 PUSH1 0x8 SLOAD AND PUSH1 0x40 MLOAD SWAP3 DUP4 DUP1 SWAP3 PUSH4 0x406AD645 PUSH1 0xE1 SHL DUP3 MSTORE GAS STATICCALL SWAP1 DUP2 ISZERO PUSH2 0x6AA JUMPI DUP4 SWAP2 PUSH2 0x67D JUMPI JUMPDEST POP AND DUP1 PUSH2 0x621 JUMPI JUMPDEST POP POP PUSH1 0x40 MLOAD SWAP3 DUP4 MSTORE CALLVALUE SWAP1 DUP4 ADD MSTORE PUSH1 0x0 DUP1 MLOAD PUSH1 0x20 PUSH2 0x5EDA DUP4 CODECOPY DUP2 MLOAD SWAP2 MSTORE PUSH1 0x40 CALLER SWAP4 LOG3 DUP1 RETURN JUMPDEST DUP1 EXTCODESIZE ISZERO PUSH2 0x42C JUMPI DUP2 PUSH1 0x40 MLOAD DUP1 SWAP3 PUSH4 0xC228038D PUSH1 0xE0 SHL DUP3 MSTORE DUP2 DUP4 DUP2 PUSH2 0x64B CALLVALUE DUP13 CALLER DUP14 PUSH1 0x4 DUP7 ADD PUSH2 0x5228 JUMP JUMPDEST SUB SWAP3 GAS CALL DUP1 ISZERO PUSH2 0x672 JUMPI ISZERO PUSH2 0x5FD JUMPI PUSH2 0x663 SWAP1 PUSH2 0x4E16 JUMP JUMPDEST PUSH2 0x66E JUMPI DUP4 CODESIZE PUSH2 0x5FD JUMP JUMPDEST DUP4 DUP1 REVERT JUMPDEST PUSH1 0x40 MLOAD RETURNDATASIZE DUP5 DUP3 RETURNDATACOPY RETURNDATASIZE SWAP1 REVERT JUMPDEST PUSH2 0x69D SWAP2 POP DUP5 RETURNDATASIZE DUP7 GT PUSH2 0x6A3 JUMPI JUMPDEST PUSH2 0x695 DUP2 DUP4 PUSH2 0x4E60 JUMP JUMPDEST DUP2 ADD SWAP1 PUSH2 0x51F0 JUMP JUMPDEST CODESIZE PUSH2 0x5F5 JUMP JUMPDEST POP RETURNDATASIZE PUSH2 0x68B JUMP JUMPDEST PUSH1 0x40 MLOAD RETURNDATASIZE DUP6 DUP3 RETURNDATACOPY RETURNDATASIZE SWAP1 REVERT JUMPDEST PUSH2 0x6BE SWAP1 PUSH2 0x4E16 JUMP JUMPDEST PUSH2 0x42C JUMPI DUP2 CODESIZE PUSH2 0x5CA JUMP JUMPDEST DUP5 DUP4 MSTORE PUSH1 0x5 DUP5 MSTORE PUSH2 0x6DD CALLER PUSH1 0x40 DUP6 KECCAK256 PUSH2 0x5451 JUMP JUMPDEST CALLER DUP4 MSTORE PUSH1 0xC DUP5 MSTORE PUSH2 0x6F1 DUP6 PUSH1 0x40 DUP6 KECCAK256 PUSH2 0x511F JUMP JUMPDEST PUSH2 0x543 JUMP JUMPDEST PUSH1 0x40 MLOAD PUSH3 0x461BCD PUSH1 0xE5 SHL DUP2 MSTORE PUSH1 0x4 DUP2 ADD DUP5 SWAP1 MSTORE PUSH1 0x23 PUSH1 0x24 DUP3 ADD MSTORE PUSH32 0x45503A20455448207472616E7366657220746F20547265617375727920666169 PUSH1 0x44 DUP3 ADD MSTORE PUSH3 0x1B1959 PUSH1 0xEA SHL PUSH1 0x64 DUP3 ADD MSTORE PUSH1 0x84 SWAP1 REVERT JUMPDEST PUSH1 0x40 MLOAD PUSH3 0x461BCD PUSH1 0xE5 SHL DUP2 MSTORE PUSH1 0x4 DUP2 ADD DUP6 SWAP1 MSTORE PUSH1 0x32 PUSH1 0x24 DUP3 ADD MSTORE PUSH32 0x45503A2054686973206D61726B6574207573657320746F6B656E732C20757365 PUSH1 0x44 DUP3 ADD MSTORE PUSH18 0x10383630B1B2A132BA2BB4BA342A37B5B2B7 PUSH1 0x71 SHL PUSH1 0x64 DUP3 ADD MSTORE PUSH1 0x84 SWAP1 REVERT JUMPDEST POP PUSH1 0x3 DUP2 ADD SLOAD DUP6 GT ISZERO PUSH2 0x4E0 JUMP JUMPDEST PUSH1 0x40 MLOAD PUSH4 0x2EAA712B PUSH1 0xE2 SHL DUP2 MSTORE SWAP2 DUP3 SWAP1 PUSH1 0x4 SWAP1 DUP3 SWAP1 GAS STATICCALL SWAP1 DUP2 ISZERO PUSH2 0x854 JUMPI DUP8 SWAP2 PUSH2 0x822 JUMPI JUMPDEST POP PUSH1 0x9 DUP3 ADD SLOAD PUSH1 0x3C DUP3 MUL SWAP2 DUP1 DUP4 DIV PUSH1 0x3C EQ SWAP1 ISZERO OR ISZERO PUSH2 0x80E JUMPI PUSH2 0x807 SWAP2 PUSH2 0x800 SWAP2 PUSH2 0x5384 JUMP JUMPDEST TIMESTAMP LT PUSH2 0x5391 JUMP JUMPDEST CODESIZE DUP4 PUSH2 0x4D5 JUMP JUMPDEST PUSH4 0x4E487B71 PUSH1 0xE0 SHL DUP9 MSTORE PUSH1 0x11 PUSH1 0x4 MSTORE PUSH1 0x24 DUP9 REVERT JUMPDEST SWAP1 POP DUP4 DUP2 DUP2 RETURNDATASIZE DUP4 GT PUSH2 0x84D JUMPI JUMPDEST PUSH2 0x839 DUP2 DUP4 PUSH2 0x4E60 JUMP JUMPDEST DUP2 ADD SUB SLT PUSH2 0x848 JUMPI MLOAD CODESIZE PUSH2 0x7DA JUMP JUMPDEST PUSH1 0x0 DUP1 REVERT JUMPDEST POP RETURNDATASIZE PUSH2 0x82F JUMP JUMPDEST PUSH1 0x40 MLOAD RETURNDATASIZE DUP10 DUP3 RETURNDATACOPY RETURNDATASIZE SWAP1 REVERT JUMPDEST PUSH2 0x87F SWAP2 POP DUP3 RETURNDATASIZE DUP5 GT PUSH2 0x885 JUMPI JUMPDEST PUSH2 0x877 DUP2 DUP4 PUSH2 0x4E60 JUMP JUMPDEST DUP2 ADD SWAP1 PUSH2 0x4FF7 JUMP JUMPDEST CODESIZE PUSH2 0x4CF JUMP JUMPDEST POP RETURNDATASIZE PUSH2 0x86D JUMP JUMPDEST PUSH1 0x40 MLOAD RETURNDATASIZE DUP11 DUP3 RETURNDATACOPY RETURNDATASIZE SWAP1 REVERT JUMPDEST PUSH4 0x4E487B71 PUSH1 0xE0 SHL DUP9 MSTORE PUSH1 0x21 PUSH1 0x4 MSTORE PUSH1 0x24 DUP9 REVERT JUMPDEST PUSH2 0x8C2 SWAP2 POP DUP6 RETURNDATASIZE DUP8 GT PUSH2 0x885 JUMPI PUSH2 0x877 DUP2 DUP4 PUSH2 0x4E60 JUMP JUMPDEST CODESIZE PUSH2 0x47D JUMP JUMPDEST POP CALLVALUE PUSH2 0x2C2 JUMPI PUSH1 0x20 CALLDATASIZE PUSH1 0x3 NOT ADD SLT PUSH2 0x2C2 JUMPI PUSH2 0x8E2 PUSH2 0x4BC8 JUMP JUMPDEST PUSH2 0x8EA PUSH2 0x4FCB JUMP JUMPDEST PUSH1 0x1 PUSH1 0x1 PUSH1 0xA0 SHL SUB SWAP1 DUP2 AND SWAP1 DUP2 ISZERO PUSH2 0x925 JUMPI PUSH1 0x0 SLOAD DUP3 PUSH1 0x1 DUP1 PUSH1 0xA0 SHL SUB NOT DUP3 AND OR PUSH1 0x0 SSTORE AND PUSH1 0x0 DUP1 MLOAD PUSH1 0x20 PUSH2 0x5E9A DUP4 CODECOPY DUP2 MLOAD SWAP2 MSTORE PUSH1 0x0 DUP1 LOG3 DUP1 RETURN JUMPDEST PUSH1 0x40 MLOAD PUSH4 0x1E4FBDF7 PUSH1 0xE0 SHL DUP2 MSTORE PUSH1 0x4 DUP2 ADD DUP5 SWAP1 MSTORE PUSH1 0x24 SWAP1 REVERT JUMPDEST POP PUSH2 0x948 CALLDATASIZE PUSH2 0x4ED5 JUMP JUMPDEST PUSH1 0x8 SLOAD PUSH1 0x40 MLOAD PUSH4 0x2B5BA3B9 PUSH1 0xE0 SHL DUP2 MSTORE CALLER PUSH1 0x4 DUP3 ADD MSTORE PUSH1 0x20 SWAP5 SWAP4 SWAP2 PUSH1 0x24 SWAP2 PUSH1 0x1 PUSH1 0x1 PUSH1 0xA0 SHL SUB SWAP2 DUP3 AND SWAP1 DUP8 DUP2 DUP6 DUP2 DUP6 GAS STATICCALL SWAP1 DUP2 ISZERO PUSH2 0x854 JUMPI SWAP2 PUSH2 0x996 DUP10 SWAP3 DUP7 SWAP5 DUP11 SWAP2 PUSH2 0xD2C JUMPI JUMPDEST POP ISZERO PUSH2 0x500F JUMP JUMPDEST PUSH1 0x40 MLOAD SWAP3 DUP4 DUP1 SWAP3 PUSH4 0x4D9B4235 PUSH1 0xE1 SHL DUP3 MSTORE DUP9 PUSH1 0x4 DUP4 ADD MSTORE GAS STATICCALL SWAP1 DUP2 ISZERO PUSH2 0xD21 JUMPI SWAP1 PUSH2 0x9C8 SWAP2 DUP8 SWAP2 PUSH2 0xD0A JUMPI POP ISZERO PUSH2 0x5306 JUMP JUMPDEST DUP3 DUP6 MSTORE PUSH1 0x1 DUP7 MSTORE PUSH1 0x40 DUP6 KECCAK256 PUSH1 0xFF PUSH1 0xC DUP3 ADD SLOAD AND PUSH1 0x5 DUP2 LT ISZERO PUSH2 0xCF7 JUMPI PUSH2 0x9EE SWAP1 ISZERO PUSH2 0x5347 JUMP JUMPDEST PUSH1 0x9 DUP2 ADD SLOAD TIMESTAMP LT ISZERO PUSH2 0xCB8 JUMPI PUSH1 0x4 SWAP1 PUSH2 0xA08 DUP7 ISZERO ISZERO PUSH2 0x548C JUMP JUMPDEST ADD SWAP6 DUP2 DUP8 SLOAD AND DUP1 ISZERO PUSH1 0x0 EQ PUSH2 0xC42 JUMPI POP DUP5 CALLVALUE SUB PUSH2 0xC04 JUMPI PUSH2 0xA2A CALLVALUE ISZERO ISZERO PUSH2 0x548C JUMP JUMPDEST DUP6 DUP1 DUP1 DUP1 CALLVALUE DUP7 PUSH1 0x7 SLOAD AND GAS CALL PUSH2 0xA3E PUSH2 0x5145 JUMP JUMPDEST POP ISZERO PUSH2 0xBB5 JUMPI DUP6 SWAP7 JUMPDEST DUP5 DUP8 MSTORE PUSH1 0x3 DUP3 MSTORE PUSH1 0x40 DUP8 KECCAK256 CALLER PUSH1 0x0 MSTORE DUP3 MSTORE PUSH1 0xFF PUSH1 0x40 PUSH1 0x0 KECCAK256 SLOAD AND ISZERO PUSH2 0xB9C JUMPI JUMPDEST DUP5 DUP8 MSTORE PUSH1 0x3 DUP3 MSTORE PUSH1 0x40 DUP8 KECCAK256 CALLER PUSH1 0x0 MSTORE DUP3 MSTORE PUSH1 0x40 PUSH1 0x0 KECCAK256 PUSH1 0x1 PUSH1 0xFF NOT DUP3 SLOAD AND OR SWAP1 SSTORE DUP3 DUP1 PUSH1 0x7 SLOAD AND SWAP2 SLOAD AND SWAP1 DUP1 EXTCODESIZE ISZERO PUSH2 0xB98 JUMPI DUP7 DUP9 SWAP2 PUSH2 0xAC0 SWAP4 DUP4 PUSH1 0x40 MLOAD DUP1 SWAP7 DUP2 SWAP6 DUP3 SWAP5 PUSH4 0xC15D9807 PUSH1 0xE0 SHL DUP5 MSTORE DUP14 CALLER SWAP1 PUSH1 0x4 DUP7 ADD PUSH2 0x54EA JUMP JUMPDEST SUB SWAP3 GAS CALL SWAP1 DUP2 ISZERO PUSH2 0x854 JUMPI DUP8 SWAP2 PUSH2 0xB80 JUMPI JUMPDEST POP POP PUSH1 0x4 DUP2 DUP4 PUSH1 0x8 SLOAD AND PUSH1 0x40 MLOAD SWAP3 DUP4 DUP1 SWAP3 PUSH4 0x406AD645 PUSH1 0xE1 SHL DUP3 MSTORE GAS STATICCALL SWAP2 DUP3 ISZERO PUSH2 0x854 JUMPI DUP8 SWAP3 PUSH2 0xB63 JUMPI JUMPDEST POP POP AND DUP1 PUSH2 0xB09 JUMPI DUP5 DUP1 RETURN JUMPDEST DUP1 EXTCODESIZE ISZERO PUSH2 0xB5F JUMPI DUP5 SWAP3 DUP4 PUSH1 0x64 SWAP3 PUSH1 0x40 MLOAD SWAP7 DUP8 SWAP6 DUP7 SWAP5 PUSH4 0x8F46A5A1 PUSH1 0xE0 SHL DUP7 MSTORE PUSH1 0x4 DUP7 ADD MSTORE CALLER SWAP1 DUP6 ADD MSTORE PUSH1 0x44 DUP5 ADD MSTORE GAS CALL DUP1 ISZERO PUSH2 0x672 JUMPI PUSH2 0xB4B JUMPI JUMPDEST DUP1 DUP1 DUP1 DUP5 DUP1 RETURN JUMPDEST PUSH2 0xB54 SWAP1 PUSH2 0x4E16 JUMP JUMPDEST PUSH2 0x2C2 JUMPI DUP1 CODESIZE PUSH2 0xB44 JUMP JUMPDEST DUP5 DUP1 REVERT JUMPDEST PUSH2 0xB79 SWAP3 POP DUP1 RETURNDATASIZE LT PUSH2 0x6A3 JUMPI PUSH2 0x695 DUP2 DUP4 PUSH2 0x4E60 JUMP JUMPDEST CODESIZE DUP1 PUSH2 0xAFD JUMP JUMPDEST PUSH2 0xB89 SWAP1 PUSH2 0x4E16 JUMP JUMPDEST PUSH2 0xB94 JUMPI DUP6 CODESIZE PUSH2 0xAD2 JUMP JUMPDEST DUP6 DUP1 REVERT JUMPDEST DUP8 DUP1 REVERT JUMPDEST DUP5 DUP8 MSTORE PUSH1 0x6 DUP3 MSTORE PUSH2 0xBB0 CALLER PUSH1 0x40 DUP10 KECCAK256 PUSH2 0x5451 JUMP JUMPDEST PUSH2 0xA67 JUMP JUMPDEST PUSH1 0x84 SWAP1 PUSH1 0x23 DUP5 PUSH1 0x40 MLOAD SWAP3 PUSH3 0x461BCD PUSH1 0xE5 SHL DUP5 MSTORE PUSH1 0x4 DUP5 ADD MSTORE DUP3 ADD MSTORE PUSH32 0x45503A20455448207472616E7366657220746F20747265617375727920666169 PUSH1 0x44 DUP3 ADD MSTORE PUSH3 0x1B1959 PUSH1 0xEA SHL PUSH1 0x64 DUP3 ADD MSTORE REVERT JUMPDEST PUSH1 0x64 SWAP1 PUSH1 0x18 DUP5 PUSH1 0x40 MLOAD SWAP3 PUSH3 0x461BCD PUSH1 0xE5 SHL DUP5 MSTORE PUSH1 0x4 DUP5 ADD MSTORE DUP3 ADD MSTORE PUSH24 0x11540E88125B98DBDC9C9958DD0811551208185B5BDD5B9D PUSH1 0x42 SHL PUSH1 0x44 DUP3 ADD MSTORE REVERT JUMPDEST SWAP7 CALLVALUE PUSH2 0xC60 JUMPI PUSH2 0xC5B DUP7 DUP9 SWAP10 DUP6 PUSH1 0x7 SLOAD AND SWAP1 CALLER SWAP1 PUSH2 0x526E JUMP JUMPDEST PUSH2 0xA47 JUMP JUMPDEST PUSH1 0x40 MLOAD PUSH3 0x461BCD PUSH1 0xE5 SHL DUP2 MSTORE PUSH1 0x4 DUP2 ADD DUP4 SWAP1 MSTORE PUSH1 0x2B DUP2 DUP7 ADD MSTORE PUSH32 0x45503A204E6F204554482073686F756C642062652073656E7420666F7220746F PUSH1 0x44 DUP3 ADD MSTORE PUSH11 0x1AD95B881CDD5C1C1BDC9D PUSH1 0xAA SHL PUSH1 0x64 DUP3 ADD MSTORE PUSH1 0x84 SWAP1 REVERT JUMPDEST PUSH1 0x40 MLOAD PUSH3 0x461BCD PUSH1 0xE5 SHL DUP2 MSTORE PUSH1 0x4 DUP2 ADD DUP9 SWAP1 MSTORE PUSH1 0x18 DUP2 DUP6 ADD MSTORE PUSH24 0x11540E8814DD5C1C1BDC9D081C195C9A5BD908195B991959 PUSH1 0x42 SHL PUSH1 0x44 DUP3 ADD MSTORE PUSH1 0x64 SWAP1 REVERT JUMPDEST PUSH4 0x4E487B71 PUSH1 0xE0 SHL DUP8 MSTORE PUSH1 0x21 PUSH1 0x4 MSTORE DUP4 DUP8 REVERT JUMPDEST PUSH2 0x8C2 SWAP2 POP DUP9 RETURNDATASIZE DUP11 GT PUSH2 0x885 JUMPI PUSH2 0x877 DUP2 DUP4 PUSH2 0x4E60 JUMP JUMPDEST PUSH1 0x40 MLOAD RETURNDATASIZE DUP9 DUP3 RETURNDATACOPY RETURNDATASIZE SWAP1 REVERT JUMPDEST PUSH2 0xD43 SWAP2 POP DUP5 RETURNDATASIZE DUP7 GT PUSH2 0x885 JUMPI PUSH2 0x877 DUP2 DUP4 PUSH2 0x4E60 JUMP JUMPDEST CODESIZE PUSH2 0x98F JUMP JUMPDEST POP CALLVALUE PUSH2 0x2C2 JUMPI PUSH1 0x60 CALLDATASIZE PUSH1 0x3 NOT ADD SLT PUSH2 0x2C2 JUMPI PUSH1 0x4 CALLDATALOAD PUSH1 0x24 CALLDATALOAD SWAP1 PUSH1 0x44 CALLDATALOAD PUSH1 0x1 DUP1 PUSH1 0xA0 SHL SUB DUP1 PUSH1 0x8 SLOAD AND SWAP1 PUSH1 0x40 MLOAD SWAP2 PUSH4 0x4D9B4235 PUSH1 0xE1 SHL DUP4 MSTORE DUP5 PUSH1 0x4 DUP5 ADD MSTORE PUSH1 0x20 SWAP3 DUP4 DUP2 PUSH1 0x24 DUP2 DUP6 GAS STATICCALL DUP1 ISZERO PUSH2 0x88C JUMPI PUSH2 0xDA8 SWAP2 DUP10 SWAP2 PUSH2 0x8AB JUMPI POP ISZERO PUSH2 0x5306 JUMP JUMPDEST DUP5 DUP8 MSTORE PUSH1 0x1 DUP4 MSTORE PUSH1 0x40 DUP8 KECCAK256 SWAP1 PUSH1 0xFF PUSH1 0xC DUP4 ADD SLOAD AND PUSH1 0x5 DUP2 LT ISZERO PUSH2 0x1107 JUMPI PUSH2 0xDCF SWAP1 ISZERO PUSH2 0x5347 JUMP JUMPDEST PUSH1 0x40 MLOAD PUSH4 0x111A7989 PUSH1 0xE3 SHL DUP2 MSTORE DUP5 DUP2 PUSH1 0x4 DUP2 DUP6 GAS STATICCALL DUP1 ISZERO PUSH2 0x10FC JUMPI DUP6 SWAP2 DUP11 SWAP2 PUSH2 0x10DF JUMPI JUMPDEST POP PUSH2 0x104C JUMPI JUMPDEST POP POP DUP6 ISZERO ISZERO DUP1 PUSH2 0x103E JUMPI JUMPDEST PUSH2 0xE0D SWAP1 PUSH2 0x53D8 JUMP JUMPDEST PUSH1 0x4 DUP2 ADD SWAP1 DUP3 DUP3 SLOAD AND SWAP1 DUP2 ISZERO PUSH2 0xFE9 JUMPI DUP6 DUP10 SWAP5 SWAP4 SWAP3 PUSH2 0xE35 PUSH1 0x5 PUSH2 0xE42 SWAP5 ADD SLOAD DUP4 LT ISZERO PUSH2 0x5415 JUMP JUMPDEST DUP5 PUSH1 0x7 SLOAD AND SWAP1 CALLER SWAP1 PUSH2 0x526E JUMP JUMPDEST DUP6 DUP4 MSTORE PUSH1 0x2 DUP5 MSTORE PUSH1 0x40 DUP4 KECCAK256 CALLER PUSH1 0x0 MSTORE DUP5 MSTORE PUSH1 0xFF PUSH1 0x40 PUSH1 0x0 KECCAK256 SLOAD AND ISZERO PUSH2 0xFBC JUMPI JUMPDEST DUP6 DUP4 MSTORE PUSH1 0x2 DUP5 MSTORE PUSH1 0x40 DUP4 KECCAK256 CALLER PUSH1 0x0 MSTORE DUP5 MSTORE PUSH1 0x40 PUSH1 0x0 KECCAK256 PUSH1 0x1 PUSH1 0xFF NOT DUP3 SLOAD AND OR SWAP1 SSTORE DUP6 DUP4 MSTORE PUSH1 0x4 DUP5 MSTORE PUSH1 0x40 DUP4 KECCAK256 CALLER PUSH1 0x0 MSTORE DUP5 MSTORE DUP7 PUSH1 0x40 PUSH1 0x0 KECCAK256 SSTORE DUP2 DUP1 PUSH1 0x7 SLOAD AND SWAP2 SLOAD AND SWAP1 DUP1 EXTCODESIZE ISZERO PUSH2 0x66E JUMPI DUP6 DUP5 SWAP2 DUP10 SWAP4 DUP4 DUP11 PUSH2 0xED5 PUSH1 0x40 MLOAD SWAP8 DUP9 SWAP7 DUP8 SWAP6 DUP7 SWAP5 PUSH4 0x95F41095 PUSH1 0xE0 SHL DUP7 MSTORE CALLER SWAP1 PUSH1 0x4 DUP8 ADD PUSH2 0x51C0 JUMP JUMPDEST SUB SWAP3 GAS CALL SWAP1 DUP2 ISZERO PUSH2 0x6AA JUMPI DUP4 SWAP2 PUSH2 0xFA8 JUMPI JUMPDEST POP POP PUSH1 0x4 DUP4 DUP3 PUSH1 0x8 SLOAD AND PUSH1 0x40 MLOAD SWAP3 DUP4 DUP1 SWAP3 PUSH4 0x406AD645 PUSH1 0xE1 SHL DUP3 MSTORE GAS STATICCALL SWAP1 DUP2 ISZERO PUSH2 0x6AA JUMPI DUP4 SWAP2 PUSH2 0xF8B JUMPI JUMPDEST POP AND DUP1 PUSH2 0xF3C JUMPI JUMPDEST POP POP PUSH1 0x40 MLOAD SWAP4 DUP5 MSTORE DUP4 ADD MSTORE PUSH1 0x0 DUP1 MLOAD PUSH1 0x20 PUSH2 0x5EDA DUP4 CODECOPY DUP2 MLOAD SWAP2 MSTORE PUSH1 0x40 CALLER SWAP4 LOG3 DUP1 RETURN JUMPDEST DUP1 EXTCODESIZE ISZERO PUSH2 0x42C JUMPI PUSH1 0x40 MLOAD PUSH4 0xC228038D PUSH1 0xE0 SHL DUP2 MSTORE SWAP1 DUP3 SWAP1 DUP3 SWAP1 DUP2 DUP4 DUP2 PUSH2 0xF68 DUP11 DUP14 CALLER DUP15 PUSH1 0x4 DUP7 ADD PUSH2 0x5228 JUMP JUMPDEST SUB SWAP3 GAS CALL DUP1 ISZERO PUSH2 0x672 JUMPI ISZERO PUSH2 0xF1A JUMPI PUSH2 0xF80 SWAP1 PUSH2 0x4E16 JUMP JUMPDEST PUSH2 0xB5F JUMPI DUP5 CODESIZE PUSH2 0xF1A JUMP JUMPDEST PUSH2 0xFA2 SWAP2 POP DUP5 RETURNDATASIZE DUP7 GT PUSH2 0x6A3 JUMPI PUSH2 0x695 DUP2 DUP4 PUSH2 0x4E60 JUMP JUMPDEST CODESIZE PUSH2 0xF12 JUMP JUMPDEST PUSH2 0xFB1 SWAP1 PUSH2 0x4E16 JUMP JUMPDEST PUSH2 0x42C JUMPI DUP2 CODESIZE PUSH2 0xEE7 JUMP JUMPDEST DUP6 DUP4 MSTORE PUSH1 0x5 DUP5 MSTORE PUSH2 0xFD0 CALLER PUSH1 0x40 DUP6 KECCAK256 PUSH2 0x5451 JUMP JUMPDEST CALLER DUP4 MSTORE PUSH1 0xC DUP5 MSTORE PUSH2 0xFE4 DUP7 PUSH1 0x40 DUP6 KECCAK256 PUSH2 0x511F JUMP JUMPDEST PUSH2 0xE62 JUMP JUMPDEST PUSH1 0x40 MLOAD PUSH3 0x461BCD PUSH1 0xE5 SHL DUP2 MSTORE PUSH1 0x4 DUP2 ADD DUP7 SWAP1 MSTORE PUSH1 0x27 PUSH1 0x24 DUP3 ADD MSTORE PUSH32 0x45503A2054686973206D61726B6574207573657320504550552C207573652070 PUSH1 0x44 DUP3 ADD MSTORE PUSH7 0x1B1858D950995D PUSH1 0xCA SHL PUSH1 0x64 DUP3 ADD MSTORE PUSH1 0x84 SWAP1 REVERT JUMPDEST POP PUSH1 0x3 DUP2 ADD SLOAD DUP7 GT ISZERO PUSH2 0xE04 JUMP JUMPDEST PUSH1 0x40 MLOAD PUSH4 0x2EAA712B PUSH1 0xE2 SHL DUP2 MSTORE SWAP2 DUP3 SWAP1 PUSH1 0x4 SWAP1 DUP3 SWAP1 GAS STATICCALL SWAP1 DUP2 ISZERO PUSH2 0x88C JUMPI DUP9 SWAP2 PUSH2 0x10B2 JUMPI JUMPDEST POP PUSH1 0x9 DUP3 ADD SLOAD PUSH1 0x3C DUP3 MUL SWAP2 DUP1 DUP4 DIV PUSH1 0x3C EQ SWAP1 ISZERO OR ISZERO PUSH2 0x109E JUMPI PUSH2 0x1097 SWAP2 PUSH2 0x800 SWAP2 PUSH2 0x5384 JUMP JUMPDEST CODESIZE DUP4 PUSH2 0xDF9 JUMP JUMPDEST PUSH4 0x4E487B71 PUSH1 0xE0 SHL DUP10 MSTORE PUSH1 0x11 PUSH1 0x4 MSTORE PUSH1 0x24 DUP10 REVERT JUMPDEST SWAP1 POP DUP4 DUP2 DUP2 RETURNDATASIZE DUP4 GT PUSH2 0x10D8 JUMPI JUMPDEST PUSH2 0x10C9 DUP2 DUP4 PUSH2 0x4E60 JUMP JUMPDEST DUP2 ADD SUB SLT PUSH2 0x848 JUMPI MLOAD CODESIZE PUSH2 0x1071 JUMP JUMPDEST POP RETURNDATASIZE PUSH2 0x10BF JUMP JUMPDEST PUSH2 0x10F6 SWAP2 POP DUP3 RETURNDATASIZE DUP5 GT PUSH2 0x885 JUMPI PUSH2 0x877 DUP2 DUP4 PUSH2 0x4E60 JUMP JUMPDEST CODESIZE PUSH2 0xDF3 JUMP JUMPDEST PUSH1 0x40 MLOAD RETURNDATASIZE DUP12 DUP3 RETURNDATACOPY RETURNDATASIZE SWAP1 REVERT JUMPDEST PUSH4 0x4E487B71 PUSH1 0xE0 SHL DUP10 MSTORE PUSH1 0x21 PUSH1 0x4 MSTORE PUSH1 0x24 DUP10 REVERT JUMPDEST POP CALLVALUE PUSH2 0x2C2 JUMPI PUSH1 0x40 CALLDATASIZE PUSH1 0x3 NOT ADD SLT PUSH2 0x2C2 JUMPI PUSH2 0x1135 PUSH2 0x4BB2 JUMP JUMPDEST SWAP1 PUSH1 0x4 CALLDATALOAD DUP2 MSTORE PUSH1 0x1 PUSH1 0x20 MSTORE PUSH1 0x40 DUP2 KECCAK256 PUSH1 0xFF PUSH1 0xC DUP3 ADD SLOAD AND PUSH1 0x5 DUP2 LT ISZERO PUSH2 0x154E JUMPI PUSH1 0x2 PUSH2 0x1161 SWAP2 EQ PUSH2 0x5640 JUMP JUMPDEST PUSH1 0xD DUP2 ADD SLOAD PUSH2 0x1171 DUP2 ISZERO ISZERO PUSH2 0x567F JUMP JUMPDEST PUSH1 0x4 CALLDATALOAD DUP4 MSTORE PUSH1 0x2 PUSH1 0x20 MSTORE PUSH1 0x40 DUP4 KECCAK256 SWAP4 PUSH1 0x1 DUP1 PUSH1 0xA0 SHL SUB SWAP5 DUP6 DUP3 AND PUSH1 0x0 MSTORE PUSH1 0x20 MSTORE PUSH1 0xFF PUSH1 0x40 PUSH1 0x0 KECCAK256 SLOAD AND ISZERO PUSH2 0x1513 JUMPI DUP5 PUSH1 0x7 SLOAD AND PUSH1 0x40 MLOAD PUSH4 0x7C7A72D PUSH1 0xE0 SHL DUP2 MSTORE PUSH1 0x20 DUP2 DUP1 PUSH2 0x11C5 DUP7 PUSH1 0x4 CALLDATALOAD PUSH1 0x4 DUP5 ADD PUSH2 0x520F JUMP JUMPDEST SUB DUP2 DUP6 GAS STATICCALL SWAP1 DUP2 ISZERO PUSH2 0xD21 JUMPI DUP7 SWAP2 PUSH2 0x14F4 JUMPI JUMPDEST POP PUSH2 0x14B9 JUMPI DUP6 PUSH1 0x4 DUP6 ADD SLOAD AND SWAP4 PUSH1 0x40 MLOAD SWAP5 PUSH4 0x423E7BC1 PUSH1 0xE1 SHL DUP7 MSTORE PUSH1 0x20 DUP7 DUP1 PUSH2 0x1208 DUP5 DUP9 PUSH1 0x4 CALLDATALOAD PUSH1 0x4 DUP6 ADD PUSH2 0x555B JUMP JUMPDEST SUB DUP2 DUP7 GAS STATICCALL SWAP6 DUP7 ISZERO PUSH2 0x854 JUMPI DUP8 SWAP7 PUSH2 0x1485 JUMPI JUMPDEST POP PUSH1 0x40 MLOAD PUSH4 0xDC4CE349 PUSH1 0xE0 SHL DUP2 MSTORE SWAP3 PUSH1 0x20 DUP5 DUP1 PUSH2 0x123F DUP6 DUP11 PUSH1 0x4 DUP1 CALLDATALOAD SWAP1 DUP6 ADD PUSH2 0x56BB JUMP JUMPDEST SUB DUP2 DUP5 GAS STATICCALL SWAP4 DUP5 ISZERO PUSH2 0x88C JUMPI DUP9 SWAP5 PUSH2 0x1451 JUMPI JUMPDEST POP DUP8 SWAP3 PUSH1 0x3 PUSH1 0x1 SWAP2 ADD SLOAD SWAP1 JUMPDEST DUP2 DUP2 GT ISZERO PUSH2 0x13B0 JUMPI POP POP PUSH2 0x128E SWAP3 SWAP2 PUSH1 0x20 SWAP2 PUSH1 0x40 MLOAD DUP1 DUP1 SWAP7 DUP2 SWAP5 PUSH4 0x4F44289D PUSH1 0xE0 SHL DUP4 MSTORE PUSH1 0x4 CALLDATALOAD PUSH1 0x4 DUP5 ADD PUSH2 0x520F JUMP JUMPDEST SUB SWAP2 GAS STATICCALL SWAP1 DUP2 ISZERO PUSH2 0x854 JUMPI DUP8 SWAP2 PUSH2 0x137A JUMPI JUMPDEST PUSH2 0x12AA SWAP3 POP PUSH2 0x50C3 JUMP JUMPDEST DUP2 PUSH2 0x12C1 JUMPI POP POP POP POP POP PUSH1 0x20 SWAP2 POP JUMPDEST PUSH1 0x40 MLOAD SWAP1 DUP2 MSTORE RETURN JUMPDEST SWAP4 SWAP5 SWAP4 DUP1 PUSH2 0x12FE JUMPI POP POP PUSH1 0x20 SWAP5 PUSH1 0x4 CALLDATALOAD DUP5 MSTORE PUSH1 0x4 DUP7 MSTORE PUSH1 0x40 DUP5 KECCAK256 SWAP2 AND PUSH1 0x0 MSTORE DUP5 MSTORE PUSH1 0x40 PUSH1 0x0 KECCAK256 SLOAD EQ PUSH1 0x0 EQ PUSH2 0x12F7 JUMPI POP JUMPDEST PUSH2 0x12B9 JUMP JUMPDEST SWAP1 POP PUSH2 0x12B9 JUMP JUMPDEST SWAP4 SWAP3 SWAP2 SWAP1 SWAP5 SWAP6 PUSH1 0x4 CALLDATALOAD DUP5 MSTORE PUSH1 0x4 PUSH1 0x20 MSTORE PUSH1 0x40 DUP5 KECCAK256 SWAP2 AND PUSH1 0x0 MSTORE PUSH1 0x20 MSTORE PUSH1 0x40 PUSH1 0x0 KECCAK256 SLOAD EQ PUSH1 0x0 EQ PUSH2 0x136E JUMPI PUSH2 0x2328 DUP1 DUP4 MUL SWAP3 DUP4 DIV SUB PUSH2 0x135A JUMPI POP SWAP2 PUSH2 0x1354 PUSH2 0x12F2 SWAP3 PUSH2 0x134F PUSH2 0x2710 PUSH1 0x20 SWAP7 DIV DUP5 PUSH2 0x509A JUMP JUMPDEST PUSH2 0x56DC JUMP JUMPDEST SWAP1 PUSH2 0x50C3 JUMP JUMPDEST PUSH4 0x4E487B71 PUSH1 0xE0 SHL DUP2 MSTORE PUSH1 0x11 PUSH1 0x4 MSTORE PUSH1 0x24 SWAP1 REVERT JUMPDEST SWAP2 POP POP PUSH1 0x20 SWAP2 POP PUSH2 0x12B9 JUMP JUMPDEST SWAP1 POP PUSH1 0x20 DUP3 RETURNDATASIZE PUSH1 0x20 GT PUSH2 0x13A8 JUMPI JUMPDEST DUP2 PUSH2 0x1395 PUSH1 0x20 SWAP4 DUP4 PUSH2 0x4E60 JUMP JUMPDEST DUP2 ADD SUB SLT PUSH2 0x848 JUMPI PUSH2 0x12AA SWAP2 MLOAD SWAP1 PUSH2 0x12A0 JUMP JUMPDEST RETURNDATASIZE SWAP2 POP PUSH2 0x1388 JUMP JUMPDEST DUP8 DUP2 SUB PUSH2 0x13C6 JUMPI JUMPDEST PUSH2 0x13C1 SWAP1 PUSH2 0x50D0 JUMP JUMPDEST PUSH2 0x125E JUMP JUMPDEST SWAP4 PUSH1 0x40 MLOAD PUSH4 0xDC4CE349 PUSH1 0xE0 SHL DUP2 MSTORE PUSH1 0x20 DUP2 DUP1 PUSH2 0x13E9 DUP9 DUP11 PUSH1 0x4 CALLDATALOAD PUSH1 0x4 DUP6 ADD PUSH2 0x56BB JUMP JUMPDEST SUB DUP2 DUP8 GAS STATICCALL SWAP1 DUP2 ISZERO PUSH2 0x1446 JUMPI DUP12 SWAP2 PUSH2 0x1412 JUMPI JUMPDEST POP PUSH2 0x140A SWAP1 PUSH2 0x13C1 SWAP3 PUSH2 0x50C3 JUMP JUMPDEST SWAP5 SWAP1 POP PUSH2 0x13B8 JUMP JUMPDEST SWAP1 POP PUSH1 0x20 DUP2 RETURNDATASIZE PUSH1 0x20 GT PUSH2 0x143E JUMPI JUMPDEST DUP2 PUSH2 0x142D PUSH1 0x20 SWAP4 DUP4 PUSH2 0x4E60 JUMP JUMPDEST DUP2 ADD SUB SLT PUSH2 0x848 JUMPI MLOAD PUSH2 0x13C1 PUSH2 0x13FC JUMP JUMPDEST RETURNDATASIZE SWAP2 POP PUSH2 0x1420 JUMP JUMPDEST PUSH1 0x40 MLOAD RETURNDATASIZE DUP14 DUP3 RETURNDATACOPY RETURNDATASIZE SWAP1 REVERT JUMPDEST SWAP1 SWAP4 POP PUSH1 0x20 DUP2 RETURNDATASIZE PUSH1 0x20 GT PUSH2 0x147D JUMPI JUMPDEST DUP2 PUSH2 0x146D PUSH1 0x20 SWAP4 DUP4 PUSH2 0x4E60 JUMP JUMPDEST DUP2 ADD SUB SLT PUSH2 0x848 JUMPI MLOAD SWAP3 CODESIZE PUSH2 0x1252 JUMP JUMPDEST RETURNDATASIZE SWAP2 POP PUSH2 0x1460 JUMP JUMPDEST SWAP1 SWAP6 POP PUSH1 0x20 DUP2 RETURNDATASIZE PUSH1 0x20 GT PUSH2 0x14B1 JUMPI JUMPDEST DUP2 PUSH2 0x14A1 PUSH1 0x20 SWAP4 DUP4 PUSH2 0x4E60 JUMP JUMPDEST DUP2 ADD SUB SLT PUSH2 0x848 JUMPI MLOAD SWAP5 CODESIZE PUSH2 0x121B JUMP JUMPDEST RETURNDATASIZE SWAP2 POP PUSH2 0x1494 JUMP JUMPDEST PUSH1 0x40 MLOAD PUSH3 0x461BCD PUSH1 0xE5 SHL DUP2 MSTORE PUSH1 0x20 PUSH1 0x4 DUP3 ADD MSTORE PUSH1 0x13 PUSH1 0x24 DUP3 ADD MSTORE PUSH19 0x11540E88105B1C9958591E4818DB185A5B5959 PUSH1 0x6A SHL PUSH1 0x44 DUP3 ADD MSTORE PUSH1 0x64 SWAP1 REVERT JUMPDEST PUSH2 0x150D SWAP2 POP PUSH1 0x20 RETURNDATASIZE PUSH1 0x20 GT PUSH2 0x885 JUMPI PUSH2 0x877 DUP2 DUP4 PUSH2 0x4E60 JUMP JUMPDEST CODESIZE PUSH2 0x11D8 JUMP JUMPDEST PUSH1 0x40 MLOAD PUSH3 0x461BCD PUSH1 0xE5 SHL DUP2 MSTORE PUSH1 0x20 PUSH1 0x4 DUP3 ADD MSTORE PUSH1 0x13 PUSH1 0x24 DUP3 ADD MSTORE PUSH19 0x11540E88139BC81CDD185AD9481C1B1858D959 PUSH1 0x6A SHL PUSH1 0x44 DUP3 ADD MSTORE PUSH1 0x64 SWAP1 REVERT JUMPDEST PUSH4 0x4E487B71 PUSH1 0xE0 SHL DUP4 MSTORE PUSH1 0x21 PUSH1 0x4 MSTORE PUSH1 0x24 DUP4 REVERT JUMPDEST POP CALLVALUE PUSH2 0x2C2 JUMPI PUSH1 0x40 CALLDATASIZE PUSH1 0x3 NOT ADD SLT PUSH2 0x2C2 JUMPI PUSH2 0x15AB SWAP1 PUSH1 0x20 PUSH2 0x1582 PUSH2 0x4BB2 JUMP JUMPDEST PUSH1 0x1 DUP1 PUSH1 0xA0 SHL SUB PUSH1 0x7 SLOAD AND PUSH1 0x40 MLOAD DUP1 DUP1 SWAP7 DUP2 SWAP5 PUSH4 0x3D1E7BA1 PUSH1 0xE1 SHL DUP4 MSTORE PUSH1 0x4 CALLDATALOAD PUSH1 0x4 DUP5 ADD PUSH2 0x520F JUMP JUMPDEST SUB SWAP2 GAS STATICCALL SWAP1 DUP2 ISZERO PUSH2 0x15F9 JUMPI SWAP1 PUSH2 0x15C7 JUMPI JUMPDEST PUSH1 0x20 SWAP1 PUSH1 0x40 MLOAD SWAP1 DUP2 MSTORE RETURN JUMPDEST POP PUSH1 0x20 DUP2 RETURNDATASIZE DUP3 GT PUSH2 0x15F1 JUMPI JUMPDEST DUP2 PUSH2 0x15E0 PUSH1 0x20 SWAP4 DUP4 PUSH2 0x4E60 JUMP JUMPDEST DUP2 ADD SUB SLT PUSH2 0x848 JUMPI PUSH1 0x20 SWAP1 MLOAD PUSH2 0x15BC JUMP JUMPDEST RETURNDATASIZE SWAP2 POP PUSH2 0x15D3 JUMP JUMPDEST PUSH1 0x40 MLOAD SWAP1 RETURNDATASIZE SWAP1 DUP3 RETURNDATACOPY RETURNDATASIZE SWAP1 REVERT JUMPDEST POP CALLVALUE PUSH2 0x2C2 JUMPI PUSH1 0x20 CALLDATASIZE PUSH1 0x3 NOT ADD SLT PUSH2 0x2C2 JUMPI PUSH1 0x40 PUSH2 0x1751 SWAP2 PUSH2 0x1625 PUSH2 0x5DE6 JUMP JUMPDEST POP PUSH1 0x4 CALLDATALOAD DUP2 MSTORE PUSH1 0x1 PUSH1 0x20 MSTORE KECCAK256 PUSH1 0xFF PUSH1 0x11 PUSH1 0x40 MLOAD SWAP3 PUSH2 0x1642 DUP5 PUSH2 0x4E29 JUMP JUMPDEST DUP1 SLOAD PUSH1 0x1 PUSH1 0x1 PUSH1 0xA0 SHL SUB SWAP1 DUP2 AND DUP6 MSTORE PUSH2 0x165D PUSH1 0x1 DUP4 ADD PUSH2 0x4F25 JUMP JUMPDEST PUSH1 0x20 DUP7 ADD MSTORE DUP4 PUSH1 0x2 DUP4 ADD SLOAD AND ISZERO ISZERO PUSH1 0x40 DUP7 ADD MSTORE PUSH1 0x3 DUP3 ADD SLOAD PUSH1 0x60 DUP7 ADD MSTORE DUP1 PUSH1 0x4 DUP4 ADD SLOAD AND PUSH1 0x80 DUP7 ADD MSTORE PUSH1 0x5 DUP3 ADD SLOAD PUSH1 0xA0 DUP7 ADD MSTORE PUSH1 0x6 DUP3 ADD SLOAD PUSH1 0xC0 DUP7 ADD MSTORE PUSH1 0x7 DUP3 ADD SLOAD PUSH1 0xE0 DUP7 ADD MSTORE PUSH1 0x8 DUP3 ADD SLOAD PUSH2 0x100 DUP7 ADD MSTORE PUSH1 0x9 DUP3 ADD SLOAD PUSH2 0x120 DUP7 ADD MSTORE PUSH1 0xA DUP3 ADD SLOAD PUSH2 0x140 DUP7 ADD MSTORE PUSH1 0xB DUP3 ADD SLOAD PUSH2 0x160 DUP7 ADD MSTORE PUSH2 0x16E4 DUP5 PUSH1 0xC DUP5 ADD SLOAD AND PUSH2 0x180 DUP8 ADD PUSH2 0x50DF JUMP JUMPDEST PUSH1 0xD DUP3 ADD SLOAD PUSH2 0x1A0 DUP7 ADD MSTORE PUSH1 0xE DUP3 ADD SLOAD DUP5 DUP2 AND ISZERO ISZERO PUSH2 0x1C0 DUP8 ADD MSTORE PUSH2 0x1712 DUP6 DUP3 PUSH1 0x8 SHR AND PUSH2 0x1E0 DUP9 ADD PUSH2 0x50EB JUMP JUMPDEST PUSH1 0x10 SHR AND PUSH2 0x200 DUP6 ADD MSTORE PUSH1 0xF DUP2 ADD SLOAD PUSH2 0x220 DUP6 ADD MSTORE PUSH1 0x10 DUP2 ADD SLOAD PUSH2 0x240 DUP6 ADD MSTORE ADD SLOAD AND ISZERO ISZERO PUSH2 0x260 DUP3 ADD MSTORE PUSH1 0x40 MLOAD SWAP2 DUP3 SWAP2 PUSH1 0x20 DUP4 MSTORE PUSH1 0x20 DUP4 ADD SWAP1 PUSH2 0x4CD4 JUMP JUMPDEST SUB SWAP1 RETURN JUMPDEST POP CALLVALUE PUSH2 0x2C2 JUMPI PUSH1 0x20 DUP1 PUSH1 0x3 NOT CALLDATASIZE ADD SLT PUSH2 0x42C JUMPI PUSH1 0x4 CALLDATALOAD SWAP1 PUSH2 0x1785 PUSH1 0x1 DUP1 PUSH1 0xA0 SHL SUB PUSH2 0x31E DUP2 PUSH1 0x8 SLOAD AND CALLER EQ PUSH2 0x5CE4 JUMP JUMPDEST DUP2 DUP4 MSTORE PUSH1 0x1 DUP2 MSTORE PUSH1 0xFF PUSH1 0xC PUSH1 0x40 DUP6 KECCAK256 ADD SLOAD AND PUSH1 0x5 DUP2 LT ISZERO PUSH2 0x418 JUMPI PUSH1 0x2 SUB PUSH2 0x18EE JUMPI PUSH1 0x80 PUSH1 0x0 DUP1 MLOAD PUSH1 0x20 PUSH2 0x5E7A DUP4 CODECOPY DUP2 MLOAD SWAP2 MSTORE SWAP2 DUP4 DUP6 MSTORE PUSH1 0x1 DUP2 MSTORE DUP5 PUSH1 0x11 PUSH1 0x40 DUP3 KECCAK256 DUP3 DUP2 SSTORE DUP3 PUSH1 0x1 DUP3 ADD PUSH2 0x17D9 DUP2 SLOAD PUSH2 0x4EEB JUMP JUMPDEST DUP1 PUSH2 0x18AE JUMPI JUMPDEST POP POP PUSH1 0x2 DUP3 ADD SSTORE PUSH1 0x0 PUSH1 0x3 DUP3 ADD SSTORE DUP3 PUSH1 0x4 DUP3 ADD SSTORE PUSH1 0x0 PUSH1 0x5 DUP3 ADD SSTORE PUSH1 0x0 PUSH1 0x6 DUP3 ADD SSTORE PUSH1 0x0 PUSH1 0x7 DUP3 ADD SSTORE PUSH1 0x0 PUSH1 0x8 DUP3 ADD SSTORE PUSH1 0x0 PUSH1 0x9 DUP3 ADD SSTORE PUSH1 0x0 PUSH1 0xA DUP3 ADD SSTORE PUSH1 0x0 PUSH1 0xB DUP3 ADD SSTORE DUP3 PUSH1 0xC DUP3 ADD SSTORE PUSH1 0x0 PUSH1 0xD DUP3 ADD SSTORE DUP3 PUSH1 0xE DUP3 ADD SSTORE PUSH1 0x0 PUSH1 0xF DUP3 ADD SSTORE PUSH1 0x0 PUSH1 0x10 DUP3 ADD SSTORE ADD SSTORE DUP4 DUP6 MSTORE PUSH1 0xB DUP2 MSTORE PUSH1 0xFF PUSH1 0x40 DUP7 KECCAK256 SLOAD AND PUSH2 0x18A0 JUMPI JUMPDEST PUSH1 0x26 PUSH1 0x40 MLOAD SWAP2 DUP1 DUP4 MSTORE DUP3 ADD MSTORE PUSH32 0x5065726D616E656E746C792072656D6F76656420616674657220636C61696D20 PUSH1 0x40 DUP3 ADD MSTORE PUSH6 0x1C195C9A5BD9 PUSH1 0xD2 SHL PUSH1 0x60 DUP3 ADD MSTORE LOG2 DUP1 RETURN JUMPDEST PUSH2 0x18A9 DUP5 PUSH2 0x5C29 JUMP JUMPDEST PUSH2 0x185B JUMP JUMPDEST PUSH1 0x1F DUP2 GT PUSH1 0x1 EQ PUSH2 0x18C8 JUMPI POP PUSH1 0x0 SWAP2 POP SSTORE JUMPDEST DUP3 CODESIZE DUP1 PUSH2 0x17DF JUMP JUMPDEST SWAP1 DUP1 PUSH1 0x0 SWAP2 DUP5 MSTORE PUSH2 0x18E7 PUSH1 0x1F DUP10 DUP7 KECCAK256 SWAP5 ADD PUSH1 0x5 SHR DUP5 ADD PUSH1 0x1 DUP6 ADD PUSH2 0x50F7 JUMP JUMPDEST SSTORE SSTORE PUSH2 0x18C0 JUMP JUMPDEST PUSH1 0x64 SWAP1 PUSH1 0x40 MLOAD SWAP1 PUSH3 0x461BCD PUSH1 0xE5 SHL DUP3 MSTORE PUSH1 0x4 DUP3 ADD MSTORE PUSH1 0x17 PUSH1 0x24 DUP3 ADD MSTORE PUSH23 0x11540E8813585C9AD95D081B9BDD081C995CDBDB1D9959 PUSH1 0x4A SHL PUSH1 0x44 DUP3 ADD MSTORE REVERT JUMPDEST POP CALLVALUE PUSH2 0x2C2 JUMPI PUSH1 0x60 CALLDATASIZE PUSH1 0x3 NOT ADD SLT PUSH2 0x2C2 JUMPI PUSH1 0x44 CALLDATALOAD SWAP1 PUSH1 0x1 PUSH1 0x1 PUSH1 0xA0 SHL SUB DUP1 DUP4 AND DUP4 SUB PUSH2 0x848 JUMPI PUSH2 0x15AB SWAP3 PUSH1 0x20 SWAP2 PUSH1 0x7 SLOAD AND PUSH1 0x40 MLOAD DUP1 DUP1 SWAP7 DUP2 SWAP5 PUSH4 0xDC4CE349 PUSH1 0xE0 SHL DUP4 MSTORE PUSH1 0x24 CALLDATALOAD PUSH1 0x4 CALLDATALOAD PUSH1 0x4 DUP6 ADD PUSH2 0x56BB JUMP JUMPDEST POP CALLVALUE PUSH2 0x2C2 JUMPI PUSH1 0x40 CALLDATASIZE PUSH1 0x3 NOT ADD SLT PUSH2 0x2C2 JUMPI PUSH1 0x40 PUSH2 0x199B PUSH2 0x4BB2 JUMP JUMPDEST SWAP2 PUSH1 0x4 CALLDATALOAD DUP2 MSTORE PUSH1 0x4 PUSH1 0x20 MSTORE KECCAK256 SWAP1 PUSH1 0x1 DUP1 PUSH1 0xA0 SHL SUB AND PUSH1 0x0 MSTORE PUSH1 0x20 MSTORE PUSH1 0x20 PUSH1 0x40 PUSH1 0x0 KECCAK256 SLOAD PUSH1 0x40 MLOAD SWAP1 DUP2 MSTORE RETURN JUMPDEST POP CALLVALUE PUSH2 0x2C2 JUMPI PUSH1 0x40 CALLDATASIZE PUSH1 0x3 NOT ADD SLT PUSH2 0x2C2 JUMPI PUSH2 0x19E0 PUSH2 0x4BC8 JUMP JUMPDEST PUSH2 0x19E8 PUSH2 0x4FCB JUMP JUMPDEST PUSH1 0x1 PUSH1 0x1 PUSH1 0xA0 SHL SUB AND DUP1 ISZERO PUSH2 0x1A14 JUMPI PUSH1 0xF DUP1 SLOAD PUSH1 0x1 PUSH1 0x1 PUSH1 0xA0 SHL SUB NOT AND SWAP2 SWAP1 SWAP2 OR SWAP1 SSTORE PUSH1 0x24 CALLDATALOAD PUSH1 0x10 SSTORE DUP1 RETURN JUMPDEST PUSH1 0x40 MLOAD PUSH3 0x461BCD PUSH1 0xE5 SHL DUP2 MSTORE PUSH1 0x20 PUSH1 0x4 DUP3 ADD MSTORE PUSH1 0x19 PUSH1 0x24 DUP3 ADD MSTORE PUSH25 0x45503A20496E76616C696420626F6E642063757272656E6379 PUSH1 0x38 SHL PUSH1 0x44 DUP3 ADD MSTORE PUSH1 0x64 SWAP1 REVERT JUMPDEST POP CALLVALUE PUSH2 0x2C2 JUMPI PUSH2 0x1A64 CALLDATASIZE PUSH2 0x4ED5 JUMP JUMPDEST SWAP2 SWAP1 DUP2 MSTORE PUSH1 0x5 PUSH1 0x20 MSTORE PUSH1 0x40 DUP2 KECCAK256 SWAP1 DUP2 SLOAD DUP4 LT ISZERO PUSH2 0x2C2 JUMPI PUSH1 0x20 PUSH2 0x1A87 DUP5 DUP5 PUSH2 0x4C44 JUMP JUMPDEST SWAP1 SLOAD PUSH1 0x40 MLOAD PUSH1 0x3 SWAP3 SWAP1 SWAP3 SHL SHR PUSH1 0x1 PUSH1 0x1 PUSH1 0xA0 SHL SUB AND DUP2 MSTORE RETURN JUMPDEST POP CALLVALUE PUSH2 0x2C2 JUMPI DUP1 PUSH1 0x3 NOT CALLDATASIZE ADD SLT PUSH2 0x2C2 JUMPI PUSH1 0x20 PUSH1 0x12 SLOAD PUSH1 0x40 MLOAD SWAP1 DUP2 MSTORE RETURN JUMPDEST POP CALLVALUE PUSH2 0x2C2 JUMPI DUP1 PUSH1 0x3 NOT CALLDATASIZE ADD SLT PUSH2 0x2C2 JUMPI PUSH1 0x20 PUSH1 0x40 MLOAD PUSH2 0x15E DUP2 MSTORE RETURN JUMPDEST POP CALLVALUE PUSH2 0x2C2 JUMPI PUSH1 0x20 CALLDATASIZE PUSH1 0x3 NOT ADD SLT PUSH2 0x2C2 JUMPI PUSH1 0x4 CALLDATALOAD DUP1 DUP3 MSTORE PUSH1 0x1 PUSH1 0x20 MSTORE PUSH1 0x40 DUP3 KECCAK256 DUP1 SLOAD PUSH1 0x1 PUSH1 0x1 PUSH1 0xA0 SHL SUB AND CALLER SUB PUSH2 0x1BC9 JUMPI PUSH1 0xFF PUSH1 0xC DUP3 ADD SLOAD AND PUSH1 0x5 DUP2 LT ISZERO PUSH2 0x418 JUMPI SWAP1 PUSH2 0x1B2B PUSH1 0x9 SWAP3 ISZERO PUSH2 0x5347 JUMP JUMPDEST ADD SLOAD PUSH2 0xA8BF NOT DUP2 ADD SWAP1 DUP2 GT PUSH2 0x1BB5 JUMPI TIMESTAMP LT ISZERO PUSH2 0x1B77 JUMPI PUSH1 0x40 MLOAD PUSH2 0x1B74 SWAP2 PUSH2 0x1B51 DUP3 PUSH2 0x4E45 JUMP JUMPDEST PUSH1 0x11 DUP3 MSTORE PUSH17 0x10DC99585D1BDC8818D85B98D95B1B1959 PUSH1 0x7A SHL PUSH1 0x20 DUP4 ADD MSTORE PUSH2 0x56FC JUMP JUMPDEST DUP1 RETURN JUMPDEST PUSH1 0x40 MLOAD PUSH3 0x461BCD PUSH1 0xE5 SHL DUP2 MSTORE PUSH1 0x20 PUSH1 0x4 DUP3 ADD MSTORE PUSH1 0x16 PUSH1 0x24 DUP3 ADD MSTORE PUSH22 0x11540E88151BDBC81B185D19481D1BC818D85B98D95B PUSH1 0x52 SHL PUSH1 0x44 DUP3 ADD MSTORE PUSH1 0x64 SWAP1 REVERT JUMPDEST PUSH4 0x4E487B71 PUSH1 0xE0 SHL DUP4 MSTORE PUSH1 0x11 PUSH1 0x4 MSTORE PUSH1 0x24 DUP4 REVERT JUMPDEST PUSH1 0x40 MLOAD PUSH3 0x461BCD PUSH1 0xE5 SHL DUP2 MSTORE PUSH1 0x20 PUSH1 0x4 DUP3 ADD MSTORE PUSH1 0x1B PUSH1 0x24 DUP3 ADD MSTORE PUSH27 0x11540E8813DB9B1E4818DC99585D1BDC8818D85B8818D85B98D95B PUSH1 0x2A SHL PUSH1 0x44 DUP3 ADD MSTORE PUSH1 0x64 SWAP1 REVERT JUMPDEST POP CALLVALUE PUSH2 0x2C2 JUMPI PUSH2 0x1C1B CALLDATASIZE PUSH2 0x4ED5 JUMP JUMPDEST SWAP2 SWAP1 DUP2 MSTORE PUSH1 0x6 PUSH1 0x20 MSTORE PUSH1 0x40 DUP2 KECCAK256 SWAP1 DUP2 SLOAD DUP4 LT ISZERO PUSH2 0x2C2 JUMPI PUSH1 0x20 PUSH2 0x1A87 DUP5 DUP5 PUSH2 0x4C44 JUMP JUMPDEST POP CALLVALUE PUSH2 0x2C2 JUMPI PUSH1 0x20 CALLDATASIZE PUSH1 0x3 NOT ADD SLT PUSH2 0x2C2 JUMPI PUSH2 0x1C58 PUSH2 0x4BC8 JUMP JUMPDEST PUSH2 0x1C60 PUSH2 0x4FCB JUMP JUMPDEST PUSH1 0x1 PUSH1 0x1 PUSH1 0xA0 SHL SUB AND DUP1 ISZERO PUSH2 0x1C86 JUMPI PUSH1 0xD DUP1 SLOAD PUSH1 0x1 PUSH1 0x1 PUSH1 0xA0 SHL SUB NOT AND SWAP2 SWAP1 SWAP2 OR SWAP1 SSTORE DUP1 RETURN JUMPDEST PUSH1 0x40 MLOAD PUSH3 0x461BCD PUSH1 0xE5 SHL DUP2 MSTORE PUSH1 0x20 PUSH1 0x4 DUP3 ADD MSTORE PUSH1 0x24 DUP1 DUP3 ADD MSTORE PUSH32 0x45503A20496E76616C6964204F7074696D69737469634F7261636C6520616464 PUSH1 0x44 DUP3 ADD MSTORE PUSH4 0x72657373 PUSH1 0xE0 SHL PUSH1 0x64 DUP3 ADD MSTORE PUSH1 0x84 SWAP1 REVERT JUMPDEST POP CALLVALUE PUSH2 0x2C2 JUMPI PUSH1 0x20 CALLDATASIZE PUSH1 0x3 NOT ADD SLT PUSH2 0x2C2 JUMPI PUSH2 0x1CF1 PUSH2 0x4BC8 JUMP JUMPDEST PUSH2 0x1CF9 PUSH2 0x4FCB JUMP JUMPDEST PUSH1 0x1 PUSH1 0x1 PUSH1 0xA0 SHL SUB AND DUP1 ISZERO PUSH2 0x1D1F JUMPI PUSH1 0x8 DUP1 SLOAD PUSH1 0x1 PUSH1 0x1 PUSH1 0xA0 SHL SUB NOT AND SWAP2 SWAP1 SWAP2 OR SWAP1 SSTORE DUP1 RETURN JUMPDEST PUSH1 0x40 MLOAD PUSH3 0x461BCD PUSH1 0xE5 SHL DUP2 MSTORE PUSH1 0x20 PUSH1 0x4 DUP3 ADD MSTORE PUSH1 0xC PUSH1 0x24 DUP3 ADD MSTORE PUSH12 0x22A81D102130B21030B23239 PUSH1 0xA1 SHL PUSH1 0x44 DUP3 ADD MSTORE PUSH1 0x64 SWAP1 REVERT JUMPDEST POP CALLVALUE PUSH2 0x2C2 JUMPI DUP1 PUSH1 0x3 NOT CALLDATASIZE ADD SLT PUSH2 0x2C2 JUMPI PUSH1 0xE SLOAD PUSH1 0x40 MLOAD PUSH1 0x1 PUSH1 0x1 PUSH1 0xA0 SHL SUB SWAP1 SWAP2 AND DUP2 MSTORE PUSH1 0x20 SWAP1 RETURN JUMPDEST POP CALLVALUE PUSH2 0x2C2 JUMPI PUSH1 0x20 CALLDATASIZE PUSH1 0x3 NOT ADD SLT PUSH2 0x2C2 JUMPI PUSH1 0x4 CALLDATALOAD DUP2 MSTORE PUSH1 0x1 PUSH1 0x20 DUP2 SWAP1 MSTORE PUSH1 0x40 SWAP1 SWAP2 KECCAK256 DUP1 SLOAD PUSH1 0x1 PUSH1 0x1 PUSH1 0xA0 SHL SUB AND SWAP2 PUSH2 0x1DB6 SWAP1 DUP3 ADD PUSH2 0x4F25 JUMP JUMPDEST PUSH1 0xE0 MSTORE PUSH1 0x2 DUP2 ADD SLOAD PUSH1 0xFF AND PUSH1 0xC0 MSTORE PUSH1 0x3 DUP2 ADD SLOAD PUSH1 0x80 MSTORE PUSH1 0x1 PUSH1 0xA0 SHL PUSH1 0x1 SWAP1 SUB PUSH1 0x4 DUP3 ADD SLOAD AND SWAP2 PUSH1 0x5 DUP3 ADD SLOAD PUSH1 0x6 DUP4 ADD SLOAD PUSH1 0x7 DUP5 ADD SLOAD PUSH1 0x8 DUP6 ADD SLOAD PUSH1 0x9 DUP7 ADD SLOAD PUSH1 0xA DUP8 ADD SLOAD SWAP1 PUSH1 0xB DUP9 ADD SLOAD SWAP3 PUSH1 0xC DUP10 ADD SLOAD PUSH1 0xFF AND SWAP5 PUSH1 0xD DUP11 ADD SLOAD SWAP7 PUSH1 0xE DUP12 ADD SLOAD SWAP9 PUSH1 0xF DUP13 ADD SLOAD SWAP11 PUSH1 0x10 DUP14 ADD SLOAD SWAP13 PUSH1 0x11 ADD SLOAD PUSH1 0xFF AND PUSH2 0x100 MSTORE PUSH1 0x40 MLOAD DUP1 PUSH1 0xA0 MSTORE MSTORE PUSH2 0x280 DUP1 PUSH1 0xA0 MLOAD PUSH1 0x20 ADD MSTORE PUSH1 0xA0 MLOAD ADD PUSH1 0xE0 MLOAD SWAP1 PUSH2 0x1E51 SWAP2 PUSH2 0x4C7F JUMP JUMPDEST SWAP13 PUSH1 0xC0 MLOAD ISZERO ISZERO PUSH1 0xA0 MLOAD PUSH1 0x40 ADD MSTORE PUSH1 0x80 MLOAD PUSH1 0xA0 MLOAD PUSH1 0x60 ADD MSTORE PUSH1 0xA0 MLOAD PUSH1 0x80 ADD MSTORE PUSH1 0xA0 MLOAD PUSH1 0xA0 ADD MSTORE PUSH1 0xA0 MLOAD PUSH1 0xC0 ADD MSTORE PUSH1 0xA0 MLOAD PUSH1 0xE0 ADD MSTORE PUSH1 0xA0 MLOAD PUSH2 0x100 ADD MSTORE PUSH1 0xA0 MLOAD PUSH2 0x120 ADD MSTORE PUSH1 0xA0 MLOAD PUSH2 0x140 ADD MSTORE PUSH1 0xA0 MLOAD PUSH2 0x160 ADD MSTORE PUSH1 0xA0 MLOAD PUSH2 0x180 ADD PUSH2 0x1EB4 SWAP2 PUSH2 0x4CA4 JUMP JUMPDEST PUSH1 0xA0 MLOAD PUSH2 0x1A0 ADD MSTORE PUSH1 0xFF DUP2 AND ISZERO ISZERO PUSH1 0xA0 MLOAD PUSH2 0x1C0 ADD MSTORE PUSH1 0xA0 MLOAD PUSH2 0x1E0 ADD DUP2 PUSH1 0x8 SHR PUSH1 0xFF AND SWAP1 PUSH2 0x1EE2 SWAP2 PUSH2 0x4CC7 JUMP JUMPDEST PUSH1 0x1 PUSH1 0xA0 SHL PUSH1 0x1 SWAP1 SUB SWAP1 PUSH1 0x10 SHR AND PUSH1 0xA0 MLOAD PUSH2 0x200 ADD MSTORE PUSH1 0xA0 MLOAD PUSH2 0x220 ADD MSTORE PUSH1 0xA0 MLOAD PUSH2 0x240 ADD MSTORE PUSH2 0x100 MLOAD ISZERO ISZERO PUSH1 0xA0 MLOAD PUSH2 0x260 ADD MSTORE PUSH1 0xA0 MLOAD DUP1 SWAP2 SUB SWAP1 RETURN JUMPDEST POP CALLVALUE PUSH2 0x2C2 JUMPI PUSH1 0x20 CALLDATASIZE PUSH1 0x3 NOT ADD SLT PUSH2 0x2C2 JUMPI PUSH1 0x40 PUSH1 0x20 SWAP2 PUSH1 0x4 CALLDATALOAD DUP2 MSTORE PUSH1 0x6 DUP4 MSTORE KECCAK256 SLOAD PUSH1 0x40 MLOAD SWAP1 DUP2 MSTORE RETURN JUMPDEST POP CALLVALUE PUSH2 0x2C2 JUMPI DUP1 PUSH1 0x3 NOT CALLDATASIZE ADD SLT PUSH2 0x2C2 JUMPI PUSH1 0x8 SLOAD PUSH1 0x40 MLOAD PUSH1 0x1 PUSH1 0x1 PUSH1 0xA0 SHL SUB SWAP1 SWAP2 AND DUP2 MSTORE PUSH1 0x20 SWAP1 RETURN JUMPDEST POP CALLVALUE PUSH2 0x2C2 JUMPI PUSH1 0x20 DUP1 PUSH1 0x3 NOT CALLDATASIZE ADD SLT PUSH2 0x42C JUMPI PUSH1 0x4 CALLDATALOAD SWAP1 DUP2 DUP4 MSTORE PUSH1 0x1 DUP2 MSTORE PUSH1 0x40 DUP4 KECCAK256 SWAP1 PUSH1 0xE DUP3 ADD DUP1 SLOAD PUSH1 0xFF DUP2 PUSH1 0x8 SHR AND PUSH1 0x2 DUP2 LT ISZERO PUSH2 0x21E4 JUMPI PUSH2 0x21AA JUMPI PUSH1 0xC DUP5 ADD SWAP1 DUP2 SLOAD SWAP1 PUSH1 0xFF DUP3 AND PUSH1 0x5 DUP2 LT ISZERO PUSH2 0x1107 JUMPI PUSH1 0x1 PUSH2 0x1FD0 SWAP2 EQ PUSH2 0x557B JUMP JUMPDEST PUSH2 0x1FDD PUSH1 0xFF DUP3 AND ISZERO PUSH2 0x55B7 JUMP JUMPDEST PUSH1 0xB DUP7 ADD SLOAD TIMESTAMP LT PUSH2 0x216A JUMPI PUSH1 0x40 MLOAD PUSH4 0x3FABE5A3 PUSH1 0xE2 SHL DUP2 MSTORE DUP9 SWAP5 PUSH1 0x1 PUSH1 0x1 PUSH1 0xA0 SHL SUB SWAP5 SWAP4 SWAP2 SWAP3 SWAP2 SWAP1 PUSH1 0xA0 DUP5 PUSH1 0x4 DUP2 PUSH1 0x10 DUP8 SWAP1 SHR DUP11 AND GAS STATICCALL DUP1 ISZERO PUSH2 0x854 JUMPI DUP8 SWAP1 PUSH2 0x211A JUMPI JUMPDEST PUSH1 0xF DUP11 ADD SLOAD PUSH1 0x2 SWAP6 POP GT PUSH2 0x210F JUMPI PUSH1 0xFF PUSH1 0xD PUSH1 0x1 SWAP11 JUMPDEST ADD SWAP10 AND DUP10 SSTORE PUSH1 0x1 PUSH1 0xFF NOT DUP1 SWAP5 AND OR SWAP1 SSTORE AND OR SWAP1 SSTORE PUSH2 0x2054 DUP6 PUSH2 0x5760 JUMP JUMPDEST PUSH1 0x4 DUP4 DUP3 PUSH1 0x8 SLOAD AND PUSH1 0x40 MLOAD SWAP3 DUP4 DUP1 SWAP3 PUSH4 0x406AD645 PUSH1 0xE1 SHL DUP3 MSTORE GAS STATICCALL SWAP1 DUP2 ISZERO PUSH2 0x6AA JUMPI DUP4 SWAP2 PUSH2 0x20F2 JUMPI JUMPDEST POP AND DUP1 PUSH2 0x20A2 JUMPI JUMPDEST POP POP PUSH1 0x0 DUP1 MLOAD PUSH1 0x20 PUSH2 0x5EBA DUP4 CODECOPY DUP2 MLOAD SWAP2 MSTORE SWAP2 SLOAD PUSH1 0x40 MLOAD SWAP1 DUP2 MSTORE LOG2 DUP1 RETURN JUMPDEST DUP4 SLOAD DUP2 EXTCODESIZE ISZERO PUSH2 0x20EE JUMPI DUP3 SWAP2 PUSH1 0x44 DUP4 SWAP3 PUSH1 0x40 MLOAD SWAP5 DUP6 SWAP4 DUP5 SWAP3 PUSH3 0xFF4A73 PUSH1 0xE8 SHL DUP5 MSTORE DUP12 PUSH1 0x4 DUP6 ADD MSTORE PUSH1 0x24 DUP5 ADD MSTORE GAS CALL DUP1 ISZERO PUSH2 0x672 JUMPI ISZERO PUSH2 0x2085 JUMPI PUSH2 0x20E3 SWAP1 PUSH2 0x4E16 JUMP JUMPDEST PUSH2 0x66E JUMPI DUP4 CODESIZE PUSH2 0x2085 JUMP JUMPDEST DUP3 DUP1 REVERT JUMPDEST PUSH2 0x2109 SWAP2 POP DUP5 RETURNDATASIZE DUP7 GT PUSH2 0x6A3 JUMPI PUSH2 0x695 DUP2 DUP4 PUSH2 0x4E60 JUMP JUMPDEST CODESIZE PUSH2 0x207D JUMP JUMPDEST PUSH1 0xFF PUSH1 0xD DUP6 SWAP11 PUSH2 0x2037 JUMP JUMPDEST POP PUSH1 0xA0 DUP5 RETURNDATASIZE DUP3 GT PUSH2 0x2162 JUMPI JUMPDEST DUP2 PUSH2 0x2133 PUSH1 0xA0 SWAP4 DUP4 PUSH2 0x4E60 JUMP JUMPDEST DUP2 ADD SUB SLT PUSH2 0x215E JUMPI DUP4 PUSH2 0x2147 PUSH1 0x2 SWAP6 PUSH2 0x55F2 JUMP JUMPDEST POP PUSH2 0x2158 PUSH1 0x80 DUP11 DUP4 ADD MLOAD SWAP3 ADD PUSH2 0x55F2 JUMP JUMPDEST POP PUSH2 0x2021 JUMP JUMPDEST DUP7 DUP1 REVERT JUMPDEST RETURNDATASIZE SWAP2 POP PUSH2 0x2126 JUMP JUMPDEST PUSH1 0x40 MLOAD PUSH3 0x461BCD PUSH1 0xE5 SHL DUP2 MSTORE PUSH1 0x4 DUP2 ADD DUP7 SWAP1 MSTORE PUSH1 0x18 PUSH1 0x24 DUP3 ADD MSTORE PUSH24 0x45503A20546F6F206561726C7920746F207265736F6C7665 PUSH1 0x40 SHL PUSH1 0x44 DUP3 ADD MSTORE PUSH1 0x64 SWAP1 REVERT JUMPDEST PUSH1 0x40 MLOAD PUSH3 0x461BCD PUSH1 0xE5 SHL DUP2 MSTORE PUSH1 0x4 DUP2 ADD DUP5 SWAP1 MSTORE PUSH1 0x12 PUSH1 0x24 DUP3 ADD MSTORE PUSH18 0x11540E88139BDD081C1C9A58D94819995959 PUSH1 0x72 SHL PUSH1 0x44 DUP3 ADD MSTORE PUSH1 0x64 SWAP1 REVERT JUMPDEST PUSH4 0x4E487B71 PUSH1 0xE0 SHL DUP8 MSTORE PUSH1 0x21 PUSH1 0x4 MSTORE PUSH1 0x24 DUP8 REVERT JUMPDEST POP CALLVALUE PUSH2 0x2C2 JUMPI PUSH1 0x40 CALLDATASIZE PUSH1 0x3 NOT ADD SLT PUSH2 0x2C2 JUMPI PUSH2 0x2212 PUSH2 0x4BC8 JUMP JUMPDEST PUSH1 0x1 PUSH1 0x1 PUSH1 0xA0 SHL SUB AND DUP2 MSTORE PUSH1 0xC PUSH1 0x20 MSTORE PUSH1 0x40 DUP2 KECCAK256 DUP1 SLOAD PUSH1 0x24 CALLDATALOAD SWAP3 SWAP1 DUP4 LT ISZERO PUSH2 0x2C2 JUMPI PUSH1 0x20 PUSH2 0x2240 DUP5 DUP5 PUSH2 0x4C44 JUMP JUMPDEST SWAP1 SLOAD PUSH1 0x40 MLOAD SWAP2 PUSH1 0x3 SHL SHR DUP2 MSTORE RETURN JUMPDEST POP CALLVALUE PUSH2 0x2C2 JUMPI PUSH1 0x20 CALLDATASIZE PUSH1 0x3 NOT ADD SLT PUSH2 0x2C2 JUMPI PUSH2 0x2268 PUSH2 0x4FCB JUMP JUMPDEST PUSH1 0x4 CALLDATALOAD PUSH1 0x12 SSTORE DUP1 RETURN JUMPDEST POP CALLVALUE PUSH2 0x2C2 JUMPI DUP1 PUSH1 0x3 NOT CALLDATASIZE ADD SLT PUSH2 0x2C2 JUMPI SLOAD PUSH1 0x40 MLOAD PUSH1 0x1 PUSH1 0x1 PUSH1 0xA0 SHL SUB SWAP1 SWAP2 AND DUP2 MSTORE PUSH1 0x20 SWAP1 RETURN JUMPDEST POP CALLVALUE PUSH2 0x2C2 JUMPI PUSH2 0x15AB SWAP1 PUSH1 0x20 PUSH2 0x22AD CALLDATASIZE PUSH2 0x4BDE JUMP JUMPDEST PUSH1 0x7 SLOAD PUSH1 0x40 MLOAD PUSH4 0x423E7BC1 PUSH1 0xE1 SHL DUP2 MSTORE SWAP7 DUP8 SWAP5 PUSH1 0x1 PUSH1 0x1 PUSH1 0xA0 SHL SUB SWAP1 SWAP3 AND SWAP4 DUP6 SWAP4 DUP5 SWAP4 SWAP1 SWAP2 SWAP1 PUSH1 0x4 DUP6 ADD PUSH2 0x555B JUMP JUMPDEST POP CALLVALUE PUSH2 0x2C2 JUMPI DUP1 PUSH1 0x3 NOT CALLDATASIZE ADD SLT PUSH2 0x2C2 JUMPI PUSH1 0x20 PUSH1 0x10 SLOAD PUSH1 0x40 MLOAD SWAP1 DUP2 MSTORE RETURN JUMPDEST POP CALLVALUE PUSH2 0x2C2 JUMPI PUSH1 0x20 DUP1 PUSH1 0x3 NOT CALLDATASIZE ADD SLT PUSH2 0x42C JUMPI PUSH2 0x2315 PUSH2 0x4BC8 JUMP JUMPDEST PUSH2 0x231D PUSH2 0x4FCB JUMP JUMPDEST PUSH1 0x1 PUSH1 0x1 PUSH1 0xA0 SHL SUB SWAP1 DUP2 AND SWAP1 DUP4 SWAP1 PUSH2 0x2336 DUP4 ISZERO ISZERO PUSH2 0x5D9D JUMP JUMPDEST PUSH1 0x1 DUP1 PUSH1 0xA0 SHL SUB NOT SWAP3 DUP1 DUP5 PUSH1 0xE SLOAD AND OR PUSH1 0xE SSTORE DUP5 PUSH1 0x40 MLOAD DUP2 DUP2 ADD SWAP1 PUSH18 0x4F7074696D69737469634F7261636C655633 PUSH1 0x70 SHL DUP3 MSTORE PUSH1 0x12 DUP2 MSTORE PUSH2 0x2376 DUP2 PUSH2 0x4E45 JUMP JUMPDEST MLOAD SWAP1 KECCAK256 PUSH1 0x24 PUSH1 0x40 MLOAD DUP1 SWAP5 DUP2 SWAP4 PUSH4 0x2ABF579 PUSH1 0xE6 SHL DUP4 MSTORE PUSH1 0x4 DUP4 ADD MSTORE GAS STATICCALL SWAP1 DUP2 ISZERO PUSH2 0x6AA JUMPI DUP4 SWAP2 PUSH2 0x240F JUMPI JUMPDEST POP AND SWAP2 DUP3 PUSH1 0xD SLOAD SWAP2 DUP3 AND OR PUSH1 0xD SSTORE AND OR ISZERO PUSH2 0x23BA JUMPI POP DUP1 RETURN JUMPDEST PUSH1 0x84 SWAP1 PUSH1 0x40 MLOAD SWAP1 PUSH3 0x461BCD PUSH1 0xE5 SHL DUP3 MSTORE PUSH1 0x4 DUP3 ADD MSTORE PUSH1 0x28 PUSH1 0x24 DUP3 ADD MSTORE PUSH32 0x45503A204F7074696D69737469634F7261636C65206E6F7420666F756E642069 PUSH1 0x44 DUP3 ADD MSTORE PUSH8 0x37102334B73232B9 PUSH1 0xC1 SHL PUSH1 0x64 DUP3 ADD MSTORE REVERT JUMPDEST PUSH2 0x2426 SWAP2 POP DUP6 RETURNDATASIZE DUP8 GT PUSH2 0x6A3 JUMPI PUSH2 0x695 DUP2 DUP4 PUSH2 0x4E60 JUMP JUMPDEST CODESIZE PUSH2 0x23A1 JUMP JUMPDEST POP CALLVALUE PUSH2 0x2C2 JUMPI PUSH1 0x20 CALLDATASIZE PUSH1 0x3 NOT ADD SLT PUSH2 0x2C2 JUMPI PUSH1 0x4 CALLDATALOAD PUSH1 0x1 PUSH1 0x1 PUSH1 0x40 SHL SUB DUP2 AND SWAP1 DUP2 SWAP1 SUB PUSH2 0x42C JUMPI PUSH2 0x245B PUSH2 0x4FCB JUMP JUMPDEST DUP1 ISZERO PUSH2 0x2478 JUMPI PUSH1 0x11 DUP1 SLOAD PUSH1 0x1 PUSH1 0x1 PUSH1 0x40 SHL SUB NOT AND SWAP2 SWAP1 SWAP2 OR SWAP1 SSTORE DUP1 RETURN JUMPDEST PUSH1 0x40 MLOAD PUSH3 0x461BCD PUSH1 0xE5 SHL DUP2 MSTORE PUSH1 0x20 PUSH1 0x4 DUP3 ADD MSTORE PUSH1 0x14 PUSH1 0x24 DUP3 ADD MSTORE PUSH20 0x45503A20496E76616C6964206C6976656E657373 PUSH1 0x60 SHL PUSH1 0x44 DUP3 ADD MSTORE PUSH1 0x64 SWAP1 REVERT JUMPDEST POP CALLVALUE PUSH2 0x2C2 JUMPI PUSH1 0x20 CALLDATASIZE PUSH1 0x3 NOT ADD SLT PUSH2 0x2C2 JUMPI PUSH1 0x4 CALLDATALOAD DUP1 DUP3 MSTORE PUSH1 0x1 PUSH1 0x20 MSTORE PUSH1 0x40 DUP3 KECCAK256 SWAP1 PUSH1 0xFF PUSH1 0xC DUP4 ADD SLOAD AND PUSH1 0x5 DUP2 LT ISZERO PUSH2 0x418 JUMPI PUSH1 0x1 PUSH2 0x24F3 SWAP2 EQ PUSH2 0x557B JUMP JUMPDEST PUSH1 0xB DUP3 ADD SLOAD TIMESTAMP LT PUSH2 0x254A JUMPI PUSH2 0x2512 PUSH1 0xFF PUSH1 0xE PUSH2 0x1B74 SWAP5 ADD SLOAD AND ISZERO PUSH2 0x55B7 JUMP JUMPDEST PUSH1 0x40 MLOAD SWAP1 PUSH2 0x251F DUP3 PUSH2 0x4E45 JUMP JUMPDEST PUSH1 0x19 DUP3 MSTORE PUSH25 0x14995CDBDB1D5D1A5BDB881C195C9A5BD908195E1C1A5C9959 PUSH1 0x3A SHL PUSH1 0x20 DUP4 ADD MSTORE PUSH2 0x56FC JUMP JUMPDEST PUSH1 0x40 MLOAD PUSH3 0x461BCD PUSH1 0xE5 SHL DUP2 MSTORE PUSH1 0x20 PUSH1 0x4 DUP3 ADD MSTORE PUSH1 0x1F PUSH1 0x24 DUP3 ADD MSTORE PUSH32 0x45503A205265736F6C7574696F6E20706572696F64206E6F7420656E64656400 PUSH1 0x44 DUP3 ADD MSTORE PUSH1 0x64 SWAP1 REVERT JUMPDEST POP CALLVALUE PUSH2 0x2C2 JUMPI PUSH2 0x259E CALLDATASIZE PUSH2 0x4ED5 JUMP JUMPDEST SWAP2 SWAP1 DUP1 DUP3 MSTORE PUSH1 0x20 PUSH1 0x1 DUP2 MSTORE PUSH1 0x40 DUP4 KECCAK256 SWAP1 PUSH1 0xE DUP3 ADD DUP1 SLOAD PUSH1 0xFF DUP2 PUSH1 0x8 SHR AND PUSH1 0x2 DUP2 LT ISZERO PUSH2 0x21E4 JUMPI PUSH1 0x1 PUSH2 0x25D0 SWAP2 EQ PUSH2 0x5606 JUMP JUMPDEST PUSH1 0xFF PUSH1 0x11 DUP6 ADD SLOAD AND ISZERO PUSH2 0x2848 JUMPI PUSH1 0xFF PUSH2 0x25EA SWAP2 AND ISZERO PUSH2 0x55B7 JUMP JUMPDEST DUP6 ISZERO ISZERO DUP1 PUSH2 0x283A JUMPI JUMPDEST ISZERO PUSH2 0x2800 JUMPI DUP5 SWAP6 DUP6 PUSH1 0x1 DUP1 PUSH1 0xA0 SHL SUB DUP1 PUSH1 0xD SLOAD AND SWAP4 DUP6 PUSH1 0x10 DUP9 ADD SWAP6 PUSH1 0x24 DUP8 SLOAD PUSH1 0x40 MLOAD SWAP13 DUP14 SWAP4 DUP5 SWAP3 PUSH4 0x8EA2F2AB PUSH1 0xE0 SHL DUP5 MSTORE PUSH1 0x4 DUP5 ADD MSTORE GAS CALL SWAP9 DUP10 ISZERO PUSH2 0x6AA JUMPI DUP4 SWAP10 PUSH2 0x27E1 JUMPI JUMPDEST POP PUSH1 0x3 DUP8 ADD SLOAD PUSH1 0x2 SUB PUSH2 0x2787 JUMPI PUSH1 0x4 SWAP4 POP DUP9 ISZERO PUSH2 0x277E JUMPI PUSH1 0xFF PUSH1 0x1 JUMPDEST AND PUSH1 0xD DUP9 ADD SSTORE JUMPDEST PUSH1 0xFF NOT SWAP1 PUSH1 0x1 DUP3 DUP3 SLOAD AND OR SWAP1 SSTORE PUSH1 0x2 PUSH1 0xC DUP9 ADD SWAP2 DUP3 SLOAD AND OR SWAP1 SSTORE PUSH2 0x267F DUP8 PUSH2 0x5760 JUMP JUMPDEST DUP5 DUP2 PUSH1 0x8 SLOAD AND PUSH1 0x40 MLOAD SWAP5 DUP6 DUP1 SWAP3 PUSH4 0x406AD645 PUSH1 0xE1 SHL DUP3 MSTORE GAS STATICCALL DUP1 ISZERO PUSH2 0x672 JUMPI DUP8 SWAP4 DUP4 SWAP2 PUSH2 0x2761 JUMPI JUMPDEST POP AND DUP1 PUSH2 0x26FC JUMPI JUMPDEST POP POP PUSH1 0x0 DUP1 MLOAD PUSH1 0x20 PUSH2 0x5EBA DUP4 CODECOPY DUP2 MLOAD SWAP2 MSTORE DUP4 PUSH1 0xD PUSH32 0x32736E1FE22A85082B71B7EB923B176A17DF522EA8342FF5E24CE4B7E2019BBF SWAP7 ADD SLOAD PUSH1 0x40 MLOAD SWAP1 DUP2 MSTORE LOG2 SLOAD SWAP4 PUSH1 0x40 MLOAD SWAP1 ISZERO ISZERO DUP2 MSTORE LOG3 DUP1 RETURN JUMPDEST SWAP1 SWAP2 POP PUSH1 0xD DUP6 ADD SLOAD DUP2 EXTCODESIZE ISZERO PUSH2 0x20EE JUMPI DUP3 SWAP2 PUSH1 0x44 DUP4 SWAP3 PUSH1 0x40 MLOAD SWAP6 DUP7 SWAP4 DUP5 SWAP3 PUSH3 0xFF4A73 PUSH1 0xE8 SHL DUP5 MSTORE DUP13 PUSH1 0x4 DUP6 ADD MSTORE PUSH1 0x24 DUP5 ADD MSTORE GAS CALL SWAP2 DUP3 ISZERO PUSH2 0x2754 JUMPI DUP7 SWAP3 ISZERO PUSH2 0x26AF JUMPI PUSH2 0x2748 SWAP2 SWAP3 POP PUSH2 0x4E16 JUMP JUMPDEST PUSH2 0xB94 JUMPI DUP4 DUP7 CODESIZE PUSH2 0x26AF JUMP JUMPDEST POP PUSH1 0x40 MLOAD SWAP1 RETURNDATASIZE SWAP1 DUP3 RETURNDATACOPY RETURNDATASIZE SWAP1 REVERT JUMPDEST PUSH2 0x2778 SWAP2 POP DUP7 RETURNDATASIZE DUP9 GT PUSH2 0x6A3 JUMPI PUSH2 0x695 DUP2 DUP4 PUSH2 0x4E60 JUMP JUMPDEST CODESIZE PUSH2 0x26A7 JUMP JUMPDEST PUSH1 0xFF PUSH1 0x2 PUSH2 0x2655 JUMP JUMPDEST SWAP2 POP SWAP2 DUP8 ISZERO PUSH2 0x279F JUMPI PUSH1 0xD DUP7 ADD SSTORE PUSH1 0x4 SWAP2 DUP9 SWAP2 PUSH2 0x265C JUMP JUMPDEST PUSH1 0x40 MLOAD PUSH3 0x461BCD PUSH1 0xE5 SHL DUP2 MSTORE PUSH1 0x4 DUP2 ADD DUP7 SWAP1 MSTORE PUSH1 0x1A PUSH1 0x24 DUP3 ADD MSTORE PUSH26 0x11540E8815535048185CDCD95C9D1A5BDB881C995A9958DD1959 PUSH1 0x32 SHL PUSH1 0x44 DUP3 ADD MSTORE PUSH1 0x64 SWAP1 REVERT JUMPDEST PUSH2 0x27F9 SWAP2 SWAP10 POP DUP7 RETURNDATASIZE DUP9 GT PUSH2 0x885 JUMPI PUSH2 0x877 DUP2 DUP4 PUSH2 0x4E60 JUMP JUMPDEST SWAP8 CODESIZE PUSH2 0x2639 JUMP JUMPDEST PUSH1 0x40 MLOAD PUSH3 0x461BCD PUSH1 0xE5 SHL DUP2 MSTORE PUSH1 0x4 DUP2 ADD DUP4 SWAP1 MSTORE PUSH1 0x12 PUSH1 0x24 DUP3 ADD MSTORE PUSH18 0x22A81D1024B73B30B634B21037B83A34B7B7 PUSH1 0x71 SHL PUSH1 0x44 DUP3 ADD MSTORE PUSH1 0x64 SWAP1 REVERT JUMPDEST POP PUSH1 0x3 DUP4 ADD SLOAD DUP7 GT ISZERO PUSH2 0x25F3 JUMP JUMPDEST PUSH1 0x40 MLOAD PUSH3 0x461BCD PUSH1 0xE5 SHL DUP2 MSTORE PUSH1 0x4 DUP2 ADD DUP5 SWAP1 MSTORE PUSH1 0x15 PUSH1 0x24 DUP3 ADD MSTORE PUSH21 0x45503A204E6F20617373657274696F6E206D616465 PUSH1 0x58 SHL PUSH1 0x44 DUP3 ADD MSTORE PUSH1 0x64 SWAP1 REVERT JUMPDEST POP CALLVALUE PUSH2 0x2C2 JUMPI DUP1 PUSH1 0x3 NOT CALLDATASIZE ADD SLT PUSH2 0x2C2 JUMPI PUSH2 0x289E PUSH2 0x4FCB JUMP JUMPDEST PUSH1 0x0 DUP1 SLOAD PUSH1 0x1 PUSH1 0x1 PUSH1 0xA0 SHL SUB NOT DUP2 AND DUP3 SSTORE PUSH1 0x1 PUSH1 0x1 PUSH1 0xA0 SHL SUB AND PUSH1 0x0 DUP1 MLOAD PUSH1 0x20 PUSH2 0x5E9A DUP4 CODECOPY DUP2 MLOAD SWAP2 MSTORE DUP3 DUP1 LOG3 DUP1 RETURN JUMPDEST POP CALLVALUE PUSH2 0x2C2 JUMPI PUSH1 0x20 DUP1 PUSH1 0x3 NOT CALLDATASIZE ADD SLT PUSH2 0x42C JUMPI PUSH1 0x4 CALLDATALOAD DUP3 MSTORE PUSH1 0x5 DUP2 MSTORE PUSH1 0x40 DUP3 KECCAK256 SWAP2 PUSH1 0x40 MLOAD DUP1 SWAP4 DUP5 SWAP2 DUP5 DUP3 SLOAD SWAP2 DUP3 DUP2 MSTORE ADD SWAP2 DUP5 MSTORE DUP5 DUP5 KECCAK256 SWAP4 JUMPDEST DUP6 DUP3 DUP3 LT PUSH2 0x2930 JUMPI POP POP POP PUSH2 0x291C SWAP3 POP SUB DUP4 PUSH2 0x4E60 JUMP JUMPDEST PUSH2 0x1751 PUSH1 0x40 MLOAD SWAP3 DUP3 DUP5 SWAP4 DUP5 MSTORE DUP4 ADD SWAP1 PUSH2 0x4DD9 JUMP JUMPDEST DUP6 SLOAD PUSH1 0x1 PUSH1 0x1 PUSH1 0xA0 SHL SUB AND DUP5 MSTORE PUSH1 0x1 SWAP6 DUP7 ADD SWAP6 DUP9 SWAP6 POP SWAP4 ADD SWAP3 ADD PUSH2 0x2905 JUMP JUMPDEST POP CALLVALUE PUSH2 0x2C2 JUMPI PUSH1 0x20 SWAP1 DUP2 PUSH1 0x3 NOT CALLDATASIZE ADD SLT PUSH2 0x2C2 JUMPI PUSH1 0x4 CALLDATALOAD SWAP2 DUP3 DUP3 MSTORE PUSH1 0x1 DUP2 MSTORE PUSH1 0x40 DUP3 KECCAK256 SWAP3 PUSH1 0xFF PUSH1 0xC DUP6 ADD SLOAD AND PUSH1 0x5 DUP2 LT ISZERO PUSH2 0x418 JUMPI PUSH1 0x2 PUSH2 0x2990 SWAP2 EQ PUSH2 0x5640 JUMP JUMPDEST PUSH1 0xD DUP5 ADD SLOAD SWAP2 PUSH2 0x29A1 DUP4 ISZERO ISZERO PUSH2 0x567F JUMP JUMPDEST DUP2 DUP5 MSTORE PUSH1 0x2 DUP2 MSTORE PUSH1 0x40 DUP5 KECCAK256 CALLER PUSH1 0x0 MSTORE DUP2 MSTORE PUSH1 0xFF PUSH1 0x40 PUSH1 0x0 KECCAK256 SLOAD AND ISZERO PUSH2 0x2D66 JUMPI PUSH1 0x7 SLOAD PUSH1 0x40 MLOAD PUSH4 0x7C7A72D PUSH1 0xE0 SHL DUP2 MSTORE PUSH1 0x1 PUSH1 0x1 PUSH1 0xA0 SHL SUB SWAP2 DUP3 AND SWAP5 SWAP2 SWAP1 DUP4 DUP2 DUP1 PUSH2 0x29EF CALLER DUP10 PUSH1 0x4 DUP5 ADD PUSH2 0x520F JUMP JUMPDEST SUB DUP2 DUP10 GAS STATICCALL SWAP1 DUP2 ISZERO PUSH2 0x854 JUMPI DUP8 SWAP2 PUSH2 0x2D49 JUMPI JUMPDEST POP PUSH2 0x2D16 JUMPI PUSH1 0x4 DUP8 ADD SLOAD AND SWAP1 PUSH1 0x40 MLOAD SWAP1 PUSH4 0x423E7BC1 PUSH1 0xE1 SHL DUP3 MSTORE DUP4 DUP3 DUP1 PUSH2 0x2A2E DUP7 CALLER DUP11 PUSH1 0x4 DUP6 ADD PUSH2 0x555B JUMP JUMPDEST SUB DUP2 DUP10 GAS STATICCALL SWAP2 DUP3 ISZERO PUSH2 0x854 JUMPI DUP8 SWAP3 PUSH2 0x2CE7 JUMPI JUMPDEST POP PUSH1 0x40 MLOAD PUSH4 0xDC4CE349 PUSH1 0xE0 SHL DUP1 DUP3 MSTORE SWAP9 DUP6 DUP3 DUP1 PUSH2 0x2A63 DUP9 DUP8 DUP13 PUSH1 0x4 DUP6 ADD PUSH2 0x56BB JUMP JUMPDEST SUB DUP2 DUP12 GAS STATICCALL SWAP2 DUP3 ISZERO PUSH2 0x10FC JUMPI DUP10 SWAP3 PUSH2 0x2CB8 JUMPI JUMPDEST POP DUP9 SWAP10 PUSH1 0x3 PUSH1 0x1 SWAP3 ADD SLOAD SWAP2 JUMPDEST DUP3 DUP2 GT ISZERO PUSH2 0x2C21 JUMPI POP POP PUSH1 0x40 MLOAD PUSH4 0x4F44289D PUSH1 0xE0 SHL DUP2 MSTORE DUP10 SWAP6 SWAP5 SWAP4 SWAP3 SWAP2 POP DUP11 DUP8 DUP3 DUP1 PUSH2 0x2AB2 DUP10 DUP14 PUSH1 0x4 DUP5 ADD PUSH2 0x520F JUMP JUMPDEST SUB DUP2 DUP14 GAS STATICCALL SWAP2 DUP3 ISZERO PUSH2 0x854 JUMPI DUP8 SWAP3 PUSH2 0x2BED JUMPI JUMPDEST POP SWAP1 PUSH2 0x2AD0 SWAP2 PUSH2 0x50C3 JUMP JUMPDEST DUP2 PUSH2 0x2B5C JUMPI POP POP POP POP DUP2 SWAP5 JUMPDEST DUP1 EXTCODESIZE ISZERO PUSH2 0x20EE JUMPI DUP6 DUP4 SWAP2 PUSH2 0x2B09 SWAP4 DUP4 PUSH1 0x40 MLOAD DUP1 SWAP7 DUP2 SWAP6 DUP3 SWAP5 PUSH4 0x2F0041ED PUSH1 0xE1 SHL DUP5 MSTORE CALLER DUP14 PUSH1 0x4 DUP7 ADD PUSH2 0x54EA JUMP JUMPDEST SUB SWAP3 GAS CALL DUP1 ISZERO PUSH2 0x672 JUMPI PUSH2 0x2B48 JUMPI JUMPDEST POP POP PUSH32 0x5380CF6FE903B40C6D5A9E0DFBCA2F3A423F0A21520B4D5947ED5169BDBA946D SWAP1 PUSH1 0x40 MLOAD SWAP4 DUP5 MSTORE CALLER SWAP4 LOG3 DUP1 RETURN JUMPDEST PUSH2 0x2B51 SWAP1 PUSH2 0x4E16 JUMP JUMPDEST PUSH2 0x66E JUMPI DUP4 DUP6 PUSH2 0x2B18 JUMP JUMPDEST DUP1 PUSH2 0x2B90 JUMPI POP POP DUP6 DUP5 MSTORE PUSH1 0x4 DUP6 MSTORE PUSH1 0x40 DUP5 KECCAK256 CALLER PUSH1 0x0 MSTORE DUP6 MSTORE PUSH1 0x40 PUSH1 0x0 KECCAK256 SLOAD EQ PUSH1 0x0 EQ PUSH2 0x2B88 JUMPI SWAP5 PUSH2 0x2ADC JUMP JUMPDEST POP DUP2 SWAP5 PUSH2 0x2ADC JUMP JUMPDEST SWAP2 DUP8 DUP7 SWAP3 SWAP5 SWAP6 SWAP7 MSTORE PUSH1 0x4 DUP8 MSTORE PUSH1 0x40 DUP3 KECCAK256 CALLER PUSH1 0x0 MSTORE DUP8 MSTORE PUSH1 0x40 PUSH1 0x0 KECCAK256 SLOAD EQ PUSH1 0x0 EQ PUSH2 0x2BE1 JUMPI POP PUSH2 0x2328 DUP1 DUP3 MUL SWAP2 DUP3 DIV SUB PUSH2 0x80E JUMPI SWAP2 PUSH2 0x1354 PUSH2 0x2BDB SWAP3 PUSH2 0x134F PUSH2 0x2710 DUP12 SWAP8 SWAP7 DIV DUP5 PUSH2 0x509A JUMP JUMPDEST SWAP5 PUSH2 0x2ADC JUMP JUMPDEST SWAP4 SWAP3 POP POP POP DUP2 SWAP5 PUSH2 0x2ADC JUMP JUMPDEST DUP9 DUP1 SWAP3 SWAP9 POP DUP2 SWAP4 POP RETURNDATASIZE DUP4 GT PUSH2 0x2C1A JUMPI JUMPDEST PUSH2 0x2C07 DUP2 DUP4 PUSH2 0x4E60 JUMP JUMPDEST DUP2 ADD SUB SLT PUSH2 0x848 JUMPI MLOAD DUP10 SWAP6 PUSH2 0x2AD0 PUSH2 0x2AC5 JUMP JUMPDEST POP RETURNDATASIZE PUSH2 0x2BFD JUMP JUMPDEST DUP5 DUP2 SUB PUSH2 0x2C37 JUMPI JUMPDEST PUSH2 0x2C32 SWAP1 PUSH2 0x50D0 JUMP JUMPDEST PUSH2 0x2A82 JUMP JUMPDEST SWAP11 PUSH2 0x2C56 DUP9 DUP9 DUP13 DUP16 DUP14 PUSH1 0x40 MLOAD SWAP6 DUP7 SWAP5 DUP6 SWAP4 DUP5 SWAP4 DUP12 DUP6 MSTORE PUSH1 0x4 DUP6 ADD PUSH2 0x56BB JUMP JUMPDEST SUB SWAP2 GAS STATICCALL SWAP1 DUP2 ISZERO PUSH2 0x2CAD JUMPI DUP13 SWAP2 PUSH2 0x2C7E JUMPI JUMPDEST POP PUSH2 0x2C76 SWAP1 PUSH2 0x2C32 SWAP3 PUSH2 0x50C3 JUMP JUMPDEST SWAP12 SWAP1 POP PUSH2 0x2C29 JUMP JUMPDEST SWAP1 POP DUP9 DUP2 DUP2 RETURNDATASIZE DUP4 GT PUSH2 0x2CA6 JUMPI JUMPDEST PUSH2 0x2C95 DUP2 DUP4 PUSH2 0x4E60 JUMP JUMPDEST DUP2 ADD SUB SLT PUSH2 0x848 JUMPI MLOAD PUSH2 0x2C32 PUSH2 0x2C68 JUMP JUMPDEST POP RETURNDATASIZE PUSH2 0x2C8B JUMP JUMPDEST PUSH1 0x40 MLOAD RETURNDATASIZE DUP15 DUP3 RETURNDATACOPY RETURNDATASIZE SWAP1 REVERT JUMPDEST SWAP1 SWAP2 POP DUP6 DUP2 DUP2 RETURNDATASIZE DUP4 GT PUSH2 0x2CE0 JUMPI JUMPDEST PUSH2 0x2CD0 DUP2 DUP4 PUSH2 0x4E60 JUMP JUMPDEST DUP2 ADD SUB SLT PUSH2 0x848 JUMPI MLOAD SWAP1 CODESIZE PUSH2 0x2A76 JUMP JUMPDEST POP RETURNDATASIZE PUSH2 0x2CC6 JUMP JUMPDEST SWAP1 SWAP2 POP DUP4 DUP2 DUP2 RETURNDATASIZE DUP4 GT PUSH2 0x2D0F JUMPI JUMPDEST PUSH2 0x2CFF DUP2 DUP4 PUSH2 0x4E60 JUMP JUMPDEST DUP2 ADD SUB SLT PUSH2 0x848 JUMPI MLOAD SWAP1 CODESIZE PUSH2 0x2A41 JUMP JUMPDEST POP RETURNDATASIZE PUSH2 0x2CF5 JUMP JUMPDEST PUSH1 0x40 MLOAD PUSH3 0x461BCD PUSH1 0xE5 SHL DUP2 MSTORE PUSH1 0x4 DUP2 ADD DUP5 SWAP1 MSTORE PUSH1 0xB PUSH1 0x24 DUP3 ADD MSTORE PUSH11 0x11540E8810DB185A5B5959 PUSH1 0xAA SHL PUSH1 0x44 DUP3 ADD MSTORE PUSH1 0x64 SWAP1 REVERT JUMPDEST PUSH2 0x2D60 SWAP2 POP DUP5 RETURNDATASIZE DUP7 GT PUSH2 0x885 JUMPI PUSH2 0x877 DUP2 DUP4 PUSH2 0x4E60 JUMP JUMPDEST CODESIZE PUSH2 0x2A02 JUMP JUMPDEST PUSH1 0x64 SWAP1 PUSH1 0x40 MLOAD SWAP1 PUSH3 0x461BCD PUSH1 0xE5 SHL DUP3 MSTORE PUSH1 0x4 DUP3 ADD MSTORE PUSH1 0xC PUSH1 0x24 DUP3 ADD MSTORE PUSH12 0x45503A204E6F207374616B65 PUSH1 0xA0 SHL PUSH1 0x44 DUP3 ADD MSTORE REVERT JUMPDEST POP PUSH2 0x180 CALLDATASIZE PUSH1 0x3 NOT ADD SLT PUSH2 0x2C2 JUMPI PUSH1 0x4 CALLDATALOAD PUSH1 0x1 PUSH1 0x1 PUSH1 0x40 SHL SUB DUP2 GT PUSH2 0x42C JUMPI CALLDATASIZE PUSH1 0x23 DUP3 ADD SLT ISZERO PUSH2 0x42C JUMPI PUSH2 0x2DD7 SWAP1 CALLDATASIZE SWAP1 PUSH1 0x24 DUP2 PUSH1 0x4 ADD CALLDATALOAD SWAP2 ADD PUSH2 0x4E9E JUMP JUMPDEST SWAP1 PUSH1 0x24 CALLDATALOAD ISZERO ISZERO PUSH1 0x24 CALLDATALOAD SUB PUSH2 0x2C2 JUMPI PUSH1 0x64 CALLDATALOAD PUSH1 0x1 PUSH1 0x1 PUSH1 0xA0 SHL SUB DUP2 AND SWAP1 SUB PUSH2 0x848 JUMPI PUSH1 0x2 PUSH2 0x124 CALLDATALOAD LT ISZERO PUSH2 0x2C2 JUMPI PUSH2 0x144 CALLDATALOAD SWAP1 PUSH1 0x1 PUSH1 0x1 PUSH1 0xA0 SHL SUB DUP3 AND DUP3 SUB PUSH2 0x848 JUMPI PUSH1 0x8 SLOAD PUSH1 0x40 MLOAD PUSH4 0x2B5BA3B9 PUSH1 0xE0 SHL DUP2 MSTORE CALLER PUSH1 0x4 DUP3 ADD MSTORE PUSH1 0x1 PUSH1 0x1 PUSH1 0xA0 SHL SUB SWAP1 SWAP2 AND SWAP1 PUSH1 0x20 DUP2 PUSH1 0x24 DUP2 DUP6 GAS STATICCALL SWAP1 DUP2 ISZERO PUSH2 0x6AA JUMPI SWAP1 PUSH2 0x2E5D SWAP2 DUP5 SWAP2 PUSH2 0x3ADC JUMPI POP ISZERO PUSH2 0x500F JUMP JUMPDEST DUP4 MLOAD ISZERO PUSH2 0x3AA4 JUMPI PUSH1 0x2 PUSH1 0x44 CALLDATALOAD LT ISZERO DUP1 PUSH2 0x3A97 JUMPI JUMPDEST ISZERO PUSH2 0x3A5C JUMPI PUSH1 0x84 CALLDATALOAD ISZERO PUSH2 0x3A23 JUMPI PUSH1 0xA4 CALLDATALOAD ISZERO PUSH2 0x39E8 JUMPI PUSH1 0xC4 CALLDATALOAD ISZERO ISZERO DUP1 PUSH2 0x39DA JUMPI JUMPDEST ISZERO PUSH2 0x399F JUMPI PUSH2 0x124 CALLDATALOAD ISZERO PUSH2 0x3905 JUMPI JUMPDEST PUSH1 0x40 MLOAD PUSH4 0x17916E01 PUSH1 0xE0 SHL DUP2 MSTORE PUSH1 0x20 DUP2 PUSH1 0x4 DUP2 DUP6 GAS STATICCALL SWAP1 DUP2 ISZERO PUSH2 0x6AA JUMPI DUP4 SWAP2 PUSH2 0x38D3 JUMPI JUMPDEST POP PUSH1 0xE4 CALLDATALOAD LT PUSH2 0x389B JUMPI PUSH1 0xE4 CALLDATALOAD PUSH2 0x104 CALLDATALOAD LT PUSH2 0x3859 JUMPI PUSH1 0x24 CALLDATALOAD ISZERO PUSH2 0x37F9 JUMPI PUSH1 0x64 CALLDATALOAD PUSH1 0x1 PUSH1 0x1 PUSH1 0xA0 SHL SUB AND ISZERO PUSH2 0x37B5 JUMPI PUSH1 0x40 MLOAD PUSH4 0x34625613 PUSH1 0xE1 SHL DUP2 MSTORE PUSH1 0x64 CALLDATALOAD PUSH1 0x1 PUSH1 0x1 PUSH1 0xA0 SHL SUB AND PUSH1 0x4 DUP3 ADD MSTORE SWAP1 PUSH1 0x20 SWAP1 DUP3 SWAP1 PUSH1 0x24 SWAP1 DUP3 SWAP1 GAS STATICCALL SWAP1 DUP2 ISZERO PUSH2 0x672 JUMPI SWAP1 PUSH2 0x2F36 SWAP2 DUP4 SWAP2 PUSH2 0x3796 JUMPI JUMPDEST POP PUSH2 0x5054 JUMP JUMPDEST PUSH8 0xDE0B6B3A7640000 CALLVALUE LT PUSH2 0x375A JUMPI PUSH1 0x3C PUSH1 0xE4 CALLDATALOAD MUL PUSH1 0xE4 CALLDATALOAD DUP2 DIV PUSH1 0x3C EQ PUSH1 0xE4 CALLDATALOAD ISZERO OR ISZERO PUSH2 0x3605 JUMPI PUSH2 0x2F67 SWAP1 TIMESTAMP PUSH2 0x50C3 JUMP JUMPDEST SWAP1 PUSH1 0x3C PUSH2 0x104 CALLDATALOAD MUL PUSH2 0x104 CALLDATALOAD DUP2 DIV PUSH1 0x3C EQ PUSH2 0x104 CALLDATALOAD ISZERO OR ISZERO PUSH2 0x3605 JUMPI PUSH2 0x2F8D SWAP1 TIMESTAMP PUSH2 0x50C3 JUMP JUMPDEST SWAP1 PUSH3 0x2A300 DUP3 ADD DUP3 GT PUSH2 0x135A JUMPI PUSH1 0x9 SLOAD SWAP4 PUSH2 0x2FA7 DUP6 PUSH2 0x50D0 JUMP JUMPDEST PUSH1 0x9 SSTORE PUSH1 0x40 MLOAD SWAP1 PUSH2 0x2FB7 DUP3 PUSH2 0x4E29 JUMP JUMPDEST CALLER DUP3 MSTORE DUP7 PUSH1 0x20 DUP4 ADD MSTORE PUSH1 0x24 CALLDATALOAD ISZERO ISZERO PUSH1 0x40 DUP4 ADD MSTORE PUSH1 0x44 CALLDATALOAD PUSH1 0x60 DUP4 ADD MSTORE PUSH1 0x1 DUP1 PUSH1 0xA0 SHL SUB PUSH1 0x64 CALLDATALOAD AND PUSH1 0x80 DUP4 ADD MSTORE PUSH1 0x84 CALLDATALOAD PUSH1 0xA0 DUP4 ADD MSTORE PUSH1 0xA4 CALLDATALOAD PUSH1 0xC0 DUP4 ADD MSTORE PUSH1 0xC4 CALLDATALOAD PUSH1 0xE0 DUP4 ADD MSTORE TIMESTAMP PUSH2 0x100 DUP4 ADD MSTORE DUP5 PUSH2 0x120 DUP4 ADD MSTORE DUP4 PUSH2 0x140 DUP4 ADD MSTORE PUSH3 0x2A300 DUP5 ADD PUSH2 0x160 DUP4 ADD MSTORE DUP3 PUSH2 0x180 DUP4 ADD MSTORE DUP3 PUSH2 0x1A0 DUP4 ADD MSTORE DUP3 PUSH2 0x1C0 DUP4 ADD MSTORE PUSH2 0x3041 PUSH2 0x124 CALLDATALOAD PUSH2 0x1E0 DUP5 ADD PUSH2 0x50EB JUMP JUMPDEST PUSH1 0x1 PUSH1 0x1 PUSH1 0xA0 SHL SUB SWAP1 DUP2 AND PUSH2 0x200 DUP4 ADD MSTORE PUSH2 0x164 CALLDATALOAD PUSH2 0x220 DUP4 ADD MSTORE PUSH2 0x240 DUP3 ADD DUP4 SWAP1 MSTORE PUSH2 0x260 DUP3 ADD DUP4 SWAP1 MSTORE DUP6 DUP4 MSTORE PUSH1 0x1 PUSH1 0x20 SWAP1 DUP2 MSTORE PUSH1 0x40 DUP5 KECCAK256 DUP4 MLOAD DUP2 SLOAD PUSH1 0x1 PUSH1 0x1 PUSH1 0xA0 SHL SUB NOT AND SWAP4 AND SWAP3 SWAP1 SWAP3 OR DUP3 SSTORE DUP3 ADD MLOAD DUP1 MLOAD SWAP2 SWAP3 SWAP2 SWAP1 PUSH1 0x1 PUSH1 0x1 PUSH1 0x40 SHL SUB DUP3 GT PUSH2 0x3746 JUMPI DUP2 SWAP1 PUSH2 0x30B6 PUSH1 0x1 DUP7 ADD SLOAD PUSH2 0x4EEB JUMP JUMPDEST PUSH1 0x1F DUP2 GT PUSH2 0x3708 JUMPI JUMPDEST POP PUSH1 0x20 SWAP1 PUSH1 0x1F DUP4 GT PUSH1 0x1 EQ PUSH2 0x3699 JUMPI DUP7 SWAP3 PUSH2 0x368E JUMPI JUMPDEST POP POP DUP2 PUSH1 0x1 SHL SWAP2 PUSH1 0x0 NOT SWAP1 PUSH1 0x3 SHL SHR NOT AND OR PUSH1 0x1 DUP4 ADD SSTORE JUMPDEST PUSH2 0x3100 PUSH1 0x40 DUP3 ADD MLOAD ISZERO ISZERO PUSH1 0x2 DUP5 ADD PUSH2 0x510E JUMP JUMPDEST PUSH1 0x60 DUP2 ADD MLOAD PUSH1 0x3 DUP4 ADD SSTORE PUSH1 0x4 DUP3 ADD PUSH1 0x1 DUP1 PUSH1 0xA0 SHL SUB PUSH1 0x80 DUP4 ADD MLOAD AND PUSH1 0x1 DUP1 PUSH1 0xA0 SHL SUB NOT DUP3 SLOAD AND OR SWAP1 SSTORE PUSH1 0xA0 DUP2 ADD MLOAD PUSH1 0x5 DUP4 ADD SSTORE PUSH1 0xC0 DUP2 ADD MLOAD PUSH1 0x6 DUP4 ADD SSTORE PUSH1 0xE0 DUP2 ADD MLOAD PUSH1 0x7 DUP4 ADD SSTORE PUSH2 0x100 DUP2 ADD MLOAD PUSH1 0x8 DUP4 ADD SSTORE PUSH2 0x120 DUP2 ADD MLOAD PUSH1 0x9 DUP4 ADD SSTORE PUSH2 0x140 DUP2 ADD MLOAD PUSH1 0xA DUP4 ADD SSTORE PUSH2 0x160 DUP2 ADD MLOAD PUSH1 0xB DUP4 ADD SSTORE PUSH1 0xC DUP3 ADD PUSH2 0x180 DUP3 ADD MLOAD PUSH1 0x5 DUP2 LT ISZERO PUSH2 0x367A JUMPI PUSH1 0xFF DUP1 NOT DUP4 SLOAD AND SWAP2 AND OR SWAP1 SSTORE PUSH2 0x1A0 DUP2 ADD MLOAD PUSH1 0xD DUP4 ADD SSTORE PUSH1 0xE DUP3 ADD PUSH2 0x31B2 PUSH2 0x1C0 DUP4 ADD MLOAD ISZERO ISZERO DUP3 PUSH2 0x510E JUMP JUMPDEST PUSH2 0x1E0 DUP3 ADD MLOAD PUSH1 0x2 DUP2 LT ISZERO PUSH2 0x367A JUMPI DUP2 SLOAD PUSH2 0x200 DUP5 ADD MLOAD PUSH2 0x100 PUSH1 0x1 PUSH1 0xB0 SHL SUB NOT SWAP1 SWAP2 AND PUSH1 0x8 SWAP3 SWAP1 SWAP3 SHL PUSH2 0xFF00 AND SWAP2 SWAP1 SWAP2 OR PUSH1 0x10 SWAP2 DUP3 SHL PUSH3 0x10000 PUSH1 0x1 PUSH1 0xB0 SHL SUB AND OR SWAP1 SWAP2 SSTORE PUSH2 0x220 DUP3 ADD MLOAD PUSH1 0xF DUP5 ADD SSTORE PUSH2 0x240 DUP3 ADD MLOAD SWAP1 DUP4 ADD SSTORE PUSH2 0x260 ADD MLOAD PUSH2 0x3222 SWAP2 SWAP1 ISZERO ISZERO SWAP1 PUSH1 0x11 ADD PUSH2 0x510E JUMP JUMPDEST PUSH1 0xA SLOAD PUSH1 0x1 PUSH1 0x40 SHL DUP2 LT ISZERO PUSH2 0x3664 JUMPI PUSH2 0x325C PUSH2 0x3245 DUP3 PUSH1 0x1 DUP9 SWAP5 ADD PUSH1 0xA SSTORE PUSH2 0x4C13 JUMP JUMPDEST DUP2 SWAP4 SWAP2 SLOAD SWAP1 PUSH1 0x3 SHL SWAP2 DUP3 SHL SWAP2 PUSH1 0x0 NOT SWAP1 SHL NOT AND OR SWAP1 JUMP JUMPDEST SWAP1 SSTORE DUP4 DUP2 MSTORE PUSH1 0xB PUSH1 0x20 MSTORE PUSH1 0x40 DUP2 KECCAK256 DUP1 SLOAD PUSH1 0xFF NOT AND PUSH1 0x1 OR SWAP1 SSTORE PUSH1 0x64 CALLDATALOAD PUSH1 0x1 PUSH1 0x1 PUSH1 0xA0 SHL SUB AND PUSH2 0x3619 JUMPI PUSH1 0xA4 CALLDATALOAD PUSH8 0xDE0B6B3A7640000 ADD DUP1 PUSH8 0xDE0B6B3A7640000 GT PUSH2 0x3605 JUMPI CALLVALUE LT PUSH2 0x35C8 JUMPI PUSH2 0x32D1 DUP2 DUP1 DUP1 DUP1 PUSH8 0xDE0B6B3A7640000 PUSH1 0x1 DUP1 PUSH1 0xA0 SHL SUB DUP3 SLOAD AND GAS CALL PUSH2 0x32CB PUSH2 0x5145 JUMP JUMPDEST POP PUSH2 0x5175 JUMP JUMPDEST DUP1 DUP1 DUP1 DUP1 PUSH1 0xA4 CALLDATALOAD PUSH1 0x1 DUP1 PUSH1 0xA0 SHL SUB PUSH1 0x7 SLOAD AND GAS CALL PUSH2 0x32ED PUSH2 0x5145 JUMP JUMPDEST POP ISZERO PUSH2 0x356B JUMPI JUMPDEST DUP4 DUP2 MSTORE PUSH1 0x2 PUSH1 0x20 MSTORE PUSH1 0x40 DUP2 KECCAK256 CALLER PUSH1 0x0 MSTORE PUSH1 0x20 MSTORE PUSH1 0x40 PUSH1 0x0 KECCAK256 PUSH1 0x1 PUSH1 0xFF NOT DUP3 SLOAD AND OR SWAP1 SSTORE DUP4 DUP2 MSTORE PUSH1 0x4 PUSH1 0x20 MSTORE PUSH1 0x40 DUP2 KECCAK256 CALLER PUSH1 0x0 MSTORE PUSH1 0x20 MSTORE PUSH1 0xC4 CALLDATALOAD PUSH1 0x40 PUSH1 0x0 KECCAK256 SSTORE CALLER DUP2 MSTORE PUSH1 0xC PUSH1 0x20 MSTORE PUSH2 0x3348 DUP5 PUSH1 0x40 DUP4 KECCAK256 PUSH2 0x511F JUMP JUMPDEST PUSH1 0x7 SLOAD PUSH1 0x1 PUSH1 0x1 PUSH1 0xA0 SHL SUB AND DUP1 EXTCODESIZE ISZERO PUSH2 0x42C JUMPI PUSH1 0x40 MLOAD PUSH4 0x95F41095 PUSH1 0xE0 SHL DUP2 MSTORE SWAP1 DUP3 SWAP1 DUP3 SWAP1 DUP2 DUP4 DUP2 PUSH2 0x3387 PUSH1 0xC4 CALLDATALOAD PUSH1 0xA4 CALLDATALOAD PUSH1 0x64 CALLDATALOAD CALLER DUP16 PUSH1 0x4 DUP8 ADD PUSH2 0x51C0 JUMP JUMPDEST SUB SWAP3 GAS CALL DUP1 ISZERO PUSH2 0x672 JUMPI SWAP1 DUP3 SWAP2 PUSH2 0x3557 JUMPI JUMPDEST POP POP PUSH1 0x8 SLOAD PUSH1 0x40 MLOAD PUSH4 0x406AD645 PUSH1 0xE1 SHL DUP2 MSTORE SWAP1 PUSH1 0x20 SWAP1 DUP3 SWAP1 PUSH1 0x4 SWAP1 DUP3 SWAP1 PUSH1 0x1 PUSH1 0x1 PUSH1 0xA0 SHL SUB AND GAS STATICCALL SWAP1 DUP2 ISZERO PUSH2 0x672 JUMPI DUP3 SWAP2 PUSH2 0x3538 JUMPI JUMPDEST POP PUSH1 0x1 PUSH1 0x1 PUSH1 0xA0 SHL SUB DUP2 AND PUSH2 0x3472 JUMPI JUMPDEST POP POP PUSH32 0x5D0726A1BB5EC8C87527E69BA86D988202E885FAD8F2B4AACD618793D6F297B2 PUSH1 0x20 SWAP5 PUSH3 0x2A300 DUP6 SWAP4 PUSH2 0x3422 PUSH1 0x40 MLOAD SWAP4 PUSH2 0x120 DUP6 MSTORE PUSH2 0x120 DUP6 ADD SWAP1 PUSH2 0x4C7F JUMP JUMPDEST SWAP6 PUSH1 0x24 CALLDATALOAD ISZERO ISZERO DUP10 DUP6 ADD MSTORE PUSH1 0x44 CALLDATALOAD PUSH1 0x40 DUP6 ADD MSTORE PUSH1 0x1 DUP1 PUSH1 0xA0 SHL SUB PUSH1 0x64 CALLDATALOAD AND PUSH1 0x60 DUP6 ADD MSTORE PUSH1 0x84 CALLDATALOAD PUSH1 0x80 DUP6 ADD MSTORE TIMESTAMP PUSH1 0xA0 DUP6 ADD MSTORE PUSH1 0xC0 DUP5 ADD MSTORE DUP1 PUSH1 0xE0 DUP5 ADD MSTORE ADD PUSH2 0x100 DUP3 ADD MSTORE DUP1 CALLER SWAP5 SUB SWAP1 LOG3 PUSH1 0x40 MLOAD SWAP1 DUP2 MSTORE RETURN JUMPDEST PUSH1 0x1 PUSH1 0x1 PUSH1 0xA0 SHL SUB DUP2 AND EXTCODESIZE ISZERO PUSH2 0x42C JUMPI PUSH1 0x40 MLOAD PUSH4 0x782A7805 PUSH1 0xE1 SHL DUP2 MSTORE DUP3 DUP2 DUP1 PUSH2 0x34A0 CALLER DUP11 PUSH1 0x4 DUP5 ADD PUSH2 0x520F JUMP JUMPDEST SUB DUP2 DUP4 PUSH1 0x1 PUSH1 0x1 PUSH1 0xA0 SHL SUB DUP8 AND GAS CALL DUP1 ISZERO PUSH2 0x6AA JUMPI SWAP1 DUP4 SWAP2 PUSH2 0x3524 JUMPI JUMPDEST POP POP PUSH1 0x1 PUSH1 0x1 PUSH1 0xA0 SHL SUB DUP2 AND EXTCODESIZE ISZERO PUSH2 0x42C JUMPI PUSH1 0x40 MLOAD PUSH4 0xC228038D PUSH1 0xE0 SHL DUP2 MSTORE SWAP1 DUP3 SWAP1 DUP3 SWAP1 DUP2 DUP4 DUP2 PUSH2 0x34F8 PUSH1 0xA4 CALLDATALOAD PUSH1 0xC4 CALLDATALOAD CALLER DUP15 PUSH1 0x4 DUP7 ADD PUSH2 0x5228 JUMP JUMPDEST SUB SWAP3 PUSH1 0x1 PUSH1 0x1 PUSH1 0xA0 SHL SUB AND GAS CALL DUP1 ISZERO PUSH2 0x672 JUMPI ISZERO PUSH2 0x33DF JUMPI PUSH2 0x351A DUP3 SWAP2 PUSH2 0x4E16 JUMP JUMPDEST PUSH2 0x2C2 JUMPI DUP1 PUSH2 0x33DF JUMP JUMPDEST PUSH2 0x352D SWAP1 PUSH2 0x4E16 JUMP JUMPDEST PUSH2 0x42C JUMPI DUP2 CODESIZE PUSH2 0x34BD JUMP JUMPDEST PUSH2 0x3551 SWAP2 POP PUSH1 0x20 RETURNDATASIZE PUSH1 0x20 GT PUSH2 0x6A3 JUMPI PUSH2 0x695 DUP2 DUP4 PUSH2 0x4E60 JUMP JUMPDEST CODESIZE PUSH2 0x33CF JUMP JUMPDEST PUSH2 0x3560 SWAP1 PUSH2 0x4E16 JUMP JUMPDEST PUSH2 0x2C2 JUMPI DUP1 CODESIZE PUSH2 0x3399 JUMP JUMPDEST PUSH1 0x40 MLOAD PUSH3 0x461BCD PUSH1 0xE5 SHL DUP2 MSTORE PUSH1 0x20 PUSH1 0x4 DUP3 ADD MSTORE PUSH1 0x2F PUSH1 0x24 DUP3 ADD MSTORE PUSH32 0x45503A2043726561746F72206465706F736974207472616E7366657220746F20 PUSH1 0x44 DUP3 ADD MSTORE PUSH15 0x151C99585CDD5C9E4819985A5B1959 PUSH1 0x8A SHL PUSH1 0x64 DUP3 ADD MSTORE PUSH1 0x84 SWAP1 REVERT JUMPDEST PUSH1 0x40 MLOAD PUSH3 0x461BCD PUSH1 0xE5 SHL DUP2 MSTORE PUSH1 0x20 PUSH1 0x4 DUP3 ADD MSTORE PUSH1 0x15 PUSH1 0x24 DUP3 ADD MSTORE PUSH21 0x45503A20496E73756666696369656E742050455055 PUSH1 0x58 SHL PUSH1 0x44 DUP3 ADD MSTORE PUSH1 0x64 SWAP1 REVERT JUMPDEST PUSH4 0x4E487B71 PUSH1 0xE0 SHL DUP3 MSTORE PUSH1 0x11 PUSH1 0x4 MSTORE PUSH1 0x24 DUP3 REVERT JUMPDEST PUSH2 0x363D DUP2 DUP1 DUP1 DUP1 PUSH8 0xDE0B6B3A7640000 PUSH1 0x1 DUP1 PUSH1 0xA0 SHL SUB DUP3 SLOAD AND GAS CALL PUSH2 0x32CB PUSH2 0x5145 JUMP JUMPDEST PUSH1 0x7 SLOAD PUSH2 0x365F SWAP1 PUSH1 0xA4 CALLDATALOAD SWAP1 PUSH1 0x1 PUSH1 0x1 PUSH1 0xA0 SHL SUB SWAP1 DUP2 AND SWAP1 CALLER SWAP1 PUSH1 0x64 CALLDATALOAD AND PUSH2 0x526E JUMP JUMPDEST PUSH2 0x32F4 JUMP JUMPDEST PUSH4 0x4E487B71 PUSH1 0xE0 SHL PUSH1 0x0 MSTORE PUSH1 0x41 PUSH1 0x4 MSTORE PUSH1 0x24 PUSH1 0x0 REVERT JUMPDEST PUSH4 0x4E487B71 PUSH1 0xE0 SHL DUP6 MSTORE PUSH1 0x21 PUSH1 0x4 MSTORE PUSH1 0x24 DUP6 REVERT JUMPDEST ADD MLOAD SWAP1 POP CODESIZE DUP1 PUSH2 0x30D5 JUMP JUMPDEST SWAP3 POP PUSH1 0x1 DUP6 ADD DUP7 MSTORE PUSH1 0x20 DUP7 KECCAK256 SWAP1 DUP7 SWAP4 JUMPDEST PUSH1 0x1F NOT DUP5 AND DUP6 LT PUSH2 0x36ED JUMPI PUSH1 0x1 SWAP5 POP DUP4 PUSH1 0x1F NOT DUP2 AND LT PUSH2 0x36D4 JUMPI JUMPDEST POP POP POP DUP2 SHL ADD PUSH1 0x1 DUP4 ADD SSTORE PUSH2 0x30ED JUMP JUMPDEST ADD MLOAD PUSH1 0x0 NOT PUSH1 0xF8 DUP5 PUSH1 0x3 SHL AND SHR NOT AND SWAP1 SSTORE CODESIZE DUP1 DUP1 PUSH2 0x36C4 JUMP JUMPDEST DUP2 DUP2 ADD MLOAD DUP4 SSTORE PUSH1 0x20 SWAP5 DUP6 ADD SWAP5 PUSH1 0x1 SWAP1 SWAP4 ADD SWAP3 SWAP1 SWAP2 ADD SWAP1 PUSH2 0x36A9 JUMP JUMPDEST PUSH2 0x3736 SWAP1 PUSH1 0x1 DUP8 ADD DUP9 MSTORE PUSH1 0x20 DUP9 KECCAK256 PUSH1 0x1F DUP6 ADD PUSH1 0x5 SHR DUP2 ADD SWAP2 PUSH1 0x20 DUP7 LT PUSH2 0x373C JUMPI JUMPDEST PUSH1 0x1F ADD PUSH1 0x5 SHR ADD SWAP1 PUSH2 0x50F7 JUMP JUMPDEST CODESIZE PUSH2 0x30BF JUMP JUMPDEST SWAP1 SWAP2 POP DUP2 SWAP1 PUSH2 0x3729 JUMP JUMPDEST PUSH4 0x4E487B71 PUSH1 0xE0 SHL DUP6 MSTORE PUSH1 0x41 PUSH1 0x4 MSTORE PUSH1 0x24 DUP6 REVERT JUMPDEST PUSH1 0x40 MLOAD PUSH3 0x461BCD PUSH1 0xE5 SHL DUP2 MSTORE PUSH1 0x20 PUSH1 0x4 DUP3 ADD MSTORE PUSH1 0x14 PUSH1 0x24 DUP3 ADD MSTORE PUSH20 0x45503A20496E73756666696369656E7420666565 PUSH1 0x60 SHL PUSH1 0x44 DUP3 ADD MSTORE PUSH1 0x64 SWAP1 REVERT JUMPDEST PUSH2 0x37AF SWAP2 POP PUSH1 0x20 RETURNDATASIZE PUSH1 0x20 GT PUSH2 0x885 JUMPI PUSH2 0x877 DUP2 DUP4 PUSH2 0x4E60 JUMP JUMPDEST CODESIZE PUSH2 0x2F30 JUMP JUMPDEST PUSH1 0x64 PUSH1 0x40 MLOAD PUSH3 0x461BCD PUSH1 0xE5 SHL DUP2 MSTORE PUSH1 0x20 PUSH1 0x4 DUP3 ADD MSTORE PUSH1 0x20 PUSH1 0x24 DUP3 ADD MSTORE PUSH32 0x45503A204D756C74692D6F7074696F6E206E656564732050325020746F6B656E PUSH1 0x44 DUP3 ADD MSTORE REVERT JUMPDEST PUSH1 0x64 CALLDATALOAD PUSH1 0x1 PUSH1 0x1 PUSH1 0xA0 SHL SUB AND PUSH2 0x3810 JUMPI JUMPDEST POP PUSH2 0x2F36 JUMP JUMPDEST PUSH1 0x40 MLOAD PUSH4 0x34625613 PUSH1 0xE1 SHL DUP2 MSTORE PUSH1 0x64 CALLDATALOAD PUSH1 0x1 PUSH1 0x1 PUSH1 0xA0 SHL SUB AND PUSH1 0x4 DUP3 ADD MSTORE SWAP1 PUSH1 0x20 SWAP1 DUP3 SWAP1 PUSH1 0x24 SWAP1 DUP3 SWAP1 GAS STATICCALL SWAP1 DUP2 ISZERO PUSH2 0x672 JUMPI SWAP1 PUSH2 0x3853 SWAP2 DUP4 SWAP2 PUSH2 0x3796 JUMPI POP PUSH2 0x5054 JUMP JUMPDEST CODESIZE PUSH2 0x380A JUMP JUMPDEST PUSH1 0x40 MLOAD PUSH3 0x461BCD PUSH1 0xE5 SHL DUP2 MSTORE PUSH1 0x20 PUSH1 0x4 DUP3 ADD MSTORE PUSH1 0x1A PUSH1 0x24 DUP3 ADD MSTORE PUSH26 0x45503A205265736F6C7574696F6E206166746572207374616B65 PUSH1 0x30 SHL PUSH1 0x44 DUP3 ADD MSTORE PUSH1 0x64 SWAP1 REVERT JUMPDEST PUSH1 0x40 MLOAD PUSH3 0x461BCD PUSH1 0xE5 SHL DUP2 MSTORE PUSH1 0x20 PUSH1 0x4 DUP3 ADD MSTORE PUSH1 0x10 PUSH1 0x24 DUP3 ADD MSTORE PUSH16 0x22A81D1026B4B710323AB930BA34B7B7 PUSH1 0x81 SHL PUSH1 0x44 DUP3 ADD MSTORE PUSH1 0x64 SWAP1 REVERT JUMPDEST SWAP1 POP PUSH1 0x20 DUP2 RETURNDATASIZE PUSH1 0x20 GT PUSH2 0x38FD JUMPI JUMPDEST DUP2 PUSH2 0x38EE PUSH1 0x20 SWAP4 DUP4 PUSH2 0x4E60 JUMP JUMPDEST DUP2 ADD SUB SLT PUSH2 0x848 JUMPI MLOAD CODESIZE PUSH2 0x2EC4 JUMP JUMPDEST RETURNDATASIZE SWAP2 POP PUSH2 0x38E1 JUMP JUMPDEST PUSH1 0x1 PUSH1 0x1 PUSH1 0xA0 SHL SUB DUP4 AND ISZERO PUSH2 0x3960 JUMPI PUSH2 0x164 CALLDATALOAD PUSH2 0x2EA0 JUMPI PUSH1 0x40 MLOAD PUSH3 0x461BCD PUSH1 0xE5 SHL DUP2 MSTORE PUSH1 0x20 PUSH1 0x4 DUP3 ADD MSTORE PUSH1 0x1C PUSH1 0x24 DUP3 ADD MSTORE PUSH28 0x11540E88141C9A58D9481D1A1C995CDA1BDB19081C995C5D5A5C9959 PUSH1 0x22 SHL PUSH1 0x44 DUP3 ADD MSTORE PUSH1 0x64 SWAP1 REVERT JUMPDEST PUSH1 0x40 MLOAD PUSH3 0x461BCD PUSH1 0xE5 SHL DUP2 MSTORE PUSH1 0x20 PUSH1 0x4 DUP3 ADD MSTORE PUSH1 0x17 PUSH1 0x24 DUP3 ADD MSTORE PUSH23 0x11540E88141C9A58D94819995959081C995C5D5A5C9959 PUSH1 0x4A SHL PUSH1 0x44 DUP3 ADD MSTORE PUSH1 0x64 SWAP1 REVERT JUMPDEST PUSH1 0x40 MLOAD PUSH3 0x461BCD PUSH1 0xE5 SHL DUP2 MSTORE PUSH1 0x20 PUSH1 0x4 DUP3 ADD MSTORE PUSH1 0x13 PUSH1 0x24 DUP3 ADD MSTORE PUSH19 0x45503A20496E76616C6964206F7574636F6D65 PUSH1 0x68 SHL PUSH1 0x44 DUP3 ADD MSTORE PUSH1 0x64 SWAP1 REVERT JUMPDEST POP PUSH1 0x44 CALLDATALOAD PUSH1 0xC4 CALLDATALOAD GT ISZERO PUSH2 0x2E91 JUMP JUMPDEST PUSH1 0x40 MLOAD PUSH3 0x461BCD PUSH1 0xE5 SHL DUP2 MSTORE PUSH1 0x20 PUSH1 0x4 DUP3 ADD MSTORE PUSH1 0x13 PUSH1 0x24 DUP3 ADD MSTORE PUSH19 0x11540E88125B9D985B1A590819195C1BDCDA5D PUSH1 0x6A SHL PUSH1 0x44 DUP3 ADD MSTORE PUSH1 0x64 SWAP1 REVERT JUMPDEST PUSH1 0x40 MLOAD PUSH3 0x461BCD PUSH1 0xE5 SHL DUP2 MSTORE PUSH1 0x20 PUSH1 0x4 DUP3 ADD MSTORE PUSH1 0x11 PUSH1 0x24 DUP3 ADD MSTORE PUSH17 0x45503A20496E76616C6964207374616B65 PUSH1 0x78 SHL PUSH1 0x44 DUP3 ADD MSTORE PUSH1 0x64 SWAP1 REVERT JUMPDEST PUSH1 0x40 MLOAD PUSH3 0x461BCD PUSH1 0xE5 SHL DUP2 MSTORE PUSH1 0x20 PUSH1 0x4 DUP3 ADD MSTORE PUSH1 0x13 PUSH1 0x24 DUP3 ADD MSTORE PUSH19 0x45503A20496E76616C6964206F7074696F6E73 PUSH1 0x68 SHL PUSH1 0x44 DUP3 ADD MSTORE PUSH1 0x64 SWAP1 REVERT JUMPDEST POP PUSH1 0xA PUSH1 0x44 CALLDATALOAD GT ISZERO PUSH2 0x2E71 JUMP JUMPDEST PUSH1 0x40 MLOAD PUSH3 0x461BCD PUSH1 0xE5 SHL DUP2 MSTORE PUSH1 0x20 PUSH1 0x4 DUP3 ADD MSTORE PUSH1 0x10 PUSH1 0x24 DUP3 ADD MSTORE PUSH16 0x8AA0744092DCECC2D8D2C840D0C2E6D PUSH1 0x83 SHL PUSH1 0x44 DUP3 ADD MSTORE PUSH1 0x64 SWAP1 REVERT JUMPDEST PUSH2 0xD43 SWAP2 POP PUSH1 0x20 RETURNDATASIZE PUSH1 0x20 GT PUSH2 0x885 JUMPI PUSH2 0x877 DUP2 DUP4 PUSH2 0x4E60 JUMP JUMPDEST POP CALLVALUE PUSH2 0x2C2 JUMPI DUP1 PUSH1 0x3 NOT CALLDATASIZE ADD SLT PUSH2 0x2C2 JUMPI PUSH1 0x7 SLOAD PUSH1 0x40 MLOAD PUSH1 0x1 PUSH1 0x1 PUSH1 0xA0 SHL SUB SWAP1 SWAP2 AND DUP2 MSTORE PUSH1 0x20 SWAP1 RETURN JUMPDEST POP CALLVALUE PUSH2 0x2C2 JUMPI PUSH1 0x3 NOT PUSH1 0x40 CALLDATASIZE DUP3 ADD SLT PUSH2 0x42C JUMPI PUSH1 0x4 CALLDATALOAD PUSH1 0x1 PUSH1 0x1 PUSH1 0x40 SHL SUB PUSH1 0x24 DUP1 CALLDATALOAD DUP3 DUP2 GT PUSH2 0xB94 JUMPI CALLDATASIZE PUSH1 0x23 DUP3 ADD SLT ISZERO PUSH2 0xB94 JUMPI PUSH2 0x3B65 SWAP1 CALLDATASIZE SWAP1 DUP4 DUP2 PUSH1 0x4 ADD CALLDATALOAD SWAP2 ADD PUSH2 0x4E9E JUMP JUMPDEST SWAP2 DUP4 DUP7 MSTORE PUSH1 0x20 SWAP5 PUSH1 0x1 DUP7 MSTORE PUSH1 0x40 DUP8 KECCAK256 SWAP3 PUSH1 0xE DUP5 ADD SLOAD PUSH1 0xFF DUP2 PUSH1 0x8 SHR AND PUSH1 0x2 DUP2 LT ISZERO PUSH2 0x3DD3 JUMPI PUSH1 0x1 PUSH2 0x3B96 SWAP2 EQ PUSH2 0x5606 JUMP JUMPDEST PUSH1 0xFF PUSH1 0xC DUP7 ADD SLOAD AND PUSH1 0x5 DUP2 LT ISZERO PUSH2 0x3DD3 JUMPI PUSH2 0x3BC0 SWAP2 PUSH2 0x3BB9 PUSH1 0x1 PUSH1 0xFF SWAP4 EQ PUSH2 0x557B JUMP JUMPDEST AND ISZERO PUSH2 0x55B7 JUMP JUMPDEST PUSH1 0xB DUP5 ADD SLOAD TIMESTAMP LT PUSH2 0x3DA0 JUMPI PUSH1 0x11 DUP5 ADD SWAP5 PUSH1 0xFF DUP7 SLOAD AND PUSH2 0x3D67 JUMPI PUSH1 0xD SLOAD PUSH1 0x1 PUSH1 0x1 PUSH1 0xA0 SHL SUB SWAP1 DUP2 AND SWAP3 SWAP1 DUP4 ISZERO PUSH2 0x3D32 JUMPI PUSH1 0xF SLOAD AND SWAP4 DUP5 ISZERO PUSH2 0x3CFB JUMPI DUP10 SWAP5 SWAP4 SWAP3 PUSH2 0x3C7E PUSH2 0x3C50 SWAP4 DUP12 DUP15 SWAP5 PUSH1 0x10 SLOAD SWAP11 PUSH1 0x12 SLOAD SWAP1 PUSH1 0x11 SLOAD AND SWAP1 PUSH1 0x40 MLOAD SWAP4 DUP13 DUP6 ADD MSTORE DUP12 DUP5 MSTORE PUSH2 0x3C29 DUP5 PUSH2 0x4E45 JUMP JUMPDEST PUSH1 0x40 MLOAD PUSH4 0x8A8218BB PUSH1 0xE0 SHL DUP2 MSTORE PUSH2 0x100 PUSH1 0x4 DUP3 ADD MSTORE SWAP13 DUP14 SWAP12 DUP13 SWAP11 DUP12 SWAP10 PUSH2 0x104 DUP12 ADD SWAP1 PUSH2 0x4C7F JUMP JUMPDEST SWAP7 CALLER SWAP1 DUP11 ADD MSTORE ADDRESS PUSH1 0x44 DUP11 ADD MSTORE PUSH1 0x64 DUP10 ADD MSTORE PUSH1 0x84 DUP9 ADD MSTORE PUSH1 0xA4 DUP8 ADD MSTORE PUSH1 0xC4 DUP7 ADD MSTORE DUP5 DUP4 SUB ADD PUSH1 0xE4 DUP6 ADD MSTORE PUSH2 0x4C7F JUMP JUMPDEST SUB SWAP3 GAS CALL SWAP5 DUP6 ISZERO PUSH2 0xD21 JUMPI DUP7 SWAP6 PUSH2 0x3CCA JUMPI JUMPDEST POP POP PUSH1 0x10 ADD DUP4 SWAP1 SSTORE DUP1 SLOAD PUSH1 0xFF NOT AND PUSH1 0x1 OR SWAP1 SSTORE PUSH32 0xC92F993487C6D961B60FF2A81386DFF5CC620CD4AED9CDDABE26500391655E82 DUP4 DUP1 LOG3 DUP1 RETURN JUMPDEST SWAP1 DUP1 SWAP6 POP DUP2 RETURNDATASIZE DUP4 GT PUSH2 0x3CF4 JUMPI JUMPDEST PUSH2 0x3CE1 DUP2 DUP4 PUSH2 0x4E60 JUMP JUMPDEST DUP2 ADD SUB SLT PUSH2 0xB5F JUMPI PUSH1 0x10 SWAP4 MLOAD SWAP4 CODESIZE PUSH2 0x3C90 JUMP JUMPDEST POP RETURNDATASIZE PUSH2 0x3CD7 JUMP JUMPDEST PUSH1 0x40 MLOAD PUSH3 0x461BCD PUSH1 0xE5 SHL DUP2 MSTORE PUSH1 0x4 DUP2 ADD DUP12 SWAP1 MSTORE PUSH1 0x10 DUP2 DUP5 ADD MSTORE PUSH16 0x11540E88109BDB99081B9BDD081CD95D PUSH1 0x82 SHL PUSH1 0x44 DUP3 ADD MSTORE PUSH1 0x64 SWAP1 REVERT JUMPDEST PUSH1 0x40 MLOAD PUSH3 0x461BCD PUSH1 0xE5 SHL DUP2 MSTORE PUSH1 0x4 DUP2 ADD DUP12 SWAP1 MSTORE PUSH1 0xE DUP2 DUP5 ADD MSTORE PUSH14 0x11540E8813D3C81B9BDD081CD95D PUSH1 0x92 SHL PUSH1 0x44 DUP3 ADD MSTORE PUSH1 0x64 SWAP1 REVERT JUMPDEST PUSH1 0x40 MLOAD PUSH3 0x461BCD PUSH1 0xE5 SHL DUP2 MSTORE PUSH1 0x4 DUP2 ADD DUP10 SWAP1 MSTORE PUSH1 0x12 DUP2 DUP5 ADD MSTORE PUSH18 0x45503A20417373657274696F6E206D616465 PUSH1 0x70 SHL PUSH1 0x44 DUP3 ADD MSTORE PUSH1 0x64 SWAP1 REVERT JUMPDEST DUP7 PUSH1 0xD PUSH1 0x64 SWAP3 PUSH1 0x40 MLOAD SWAP3 PUSH3 0x461BCD PUSH1 0xE5 SHL DUP5 MSTORE PUSH1 0x4 DUP5 ADD MSTORE DUP3 ADD MSTORE PUSH13 0x45503A20546F6F206561726C79 PUSH1 0x98 SHL PUSH1 0x44 DUP3 ADD MSTORE REVERT JUMPDEST PUSH4 0x4E487B71 PUSH1 0xE0 SHL DUP11 MSTORE PUSH1 0x21 PUSH1 0x4 MSTORE DUP3 DUP11 REVERT JUMPDEST POP CALLVALUE PUSH2 0x2C2 JUMPI PUSH1 0x20 DUP1 PUSH1 0x3 NOT CALLDATASIZE ADD SLT PUSH2 0x42C JUMPI PUSH1 0x4 CALLDATALOAD DUP1 DUP4 MSTORE PUSH1 0x1 DUP3 MSTORE PUSH1 0x40 DUP4 KECCAK256 SWAP2 PUSH1 0xFF PUSH1 0xC DUP5 ADD SLOAD AND PUSH1 0x5 DUP2 LT ISZERO PUSH2 0x367A JUMPI PUSH1 0x3 SUB PUSH2 0x410E JUMPI DUP2 DUP5 MSTORE PUSH1 0x2 DUP2 MSTORE PUSH1 0x40 DUP5 KECCAK256 CALLER PUSH1 0x0 MSTORE DUP2 MSTORE PUSH1 0xFF PUSH1 0x40 PUSH1 0x0 KECCAK256 SLOAD AND DUP1 ISZERO PUSH2 0x40EE JUMPI JUMPDEST ISZERO PUSH2 0x40B1 JUMPI DUP4 SWAP3 DUP3 DUP6 MSTORE PUSH1 0x2 DUP3 MSTORE PUSH1 0x40 DUP6 KECCAK256 CALLER PUSH1 0x0 MSTORE DUP3 MSTORE PUSH1 0xFF PUSH1 0x40 PUSH1 0x0 KECCAK256 SLOAD AND PUSH2 0x400B JUMPI JUMPDEST DUP3 DUP6 MSTORE PUSH1 0x3 DUP3 MSTORE PUSH1 0x40 DUP6 KECCAK256 CALLER PUSH1 0x0 MSTORE DUP3 MSTORE PUSH1 0xFF PUSH1 0x40 PUSH1 0x0 KECCAK256 SLOAD AND PUSH2 0x3F63 JUMPI JUMPDEST DUP4 ISZERO PUSH2 0x3F24 JUMPI PUSH1 0x7 SLOAD PUSH1 0x4 SWAP1 SWAP2 ADD SLOAD DUP6 SWAP2 PUSH1 0x1 PUSH1 0x1 PUSH1 0xA0 SHL SUB SWAP2 DUP3 AND SWAP2 AND DUP1 EXTCODESIZE ISZERO PUSH2 0x20EE JUMPI DUP6 DUP4 SWAP2 PUSH2 0x3ED1 SWAP4 DUP4 PUSH1 0x40 MLOAD DUP1 SWAP7 DUP2 SWAP6 DUP3 SWAP5 PUSH4 0x164FCD7D PUSH1 0xE2 SHL DUP5 MSTORE CALLER DUP14 PUSH1 0x4 DUP7 ADD PUSH2 0x54EA JUMP JUMPDEST SUB SWAP3 GAS CALL DUP1 ISZERO PUSH2 0x672 JUMPI PUSH2 0x3F10 JUMPI JUMPDEST POP POP PUSH32 0xF3F402280EF0A7905E124AA621B65EAEB2725C343E8B36D398ED78C29DAF285C SWAP1 PUSH1 0x40 MLOAD SWAP4 DUP5 MSTORE CALLER SWAP4 LOG3 DUP1 RETURN JUMPDEST PUSH2 0x3F19 SWAP1 PUSH2 0x4E16 JUMP JUMPDEST PUSH2 0x66E JUMPI DUP4 CODESIZE PUSH2 0x3EE0 JUMP JUMPDEST PUSH1 0x40 MLOAD PUSH3 0x461BCD PUSH1 0xE5 SHL DUP2 MSTORE PUSH1 0x4 DUP2 ADD DUP4 SWAP1 MSTORE PUSH1 0x17 PUSH1 0x24 DUP3 ADD MSTORE PUSH23 0x45503A204E6F20726566756E6420617661696C61626C65 PUSH1 0x48 SHL PUSH1 0x44 DUP3 ADD MSTORE PUSH1 0x64 SWAP1 REVERT JUMPDEST SWAP3 PUSH2 0x3F9A SWAP1 DUP3 PUSH1 0x1 DUP1 PUSH1 0xA0 SHL SUB DUP1 PUSH1 0x7 SLOAD AND SWAP1 PUSH1 0x4 DUP9 ADD SLOAD AND SWAP1 PUSH1 0x40 MLOAD DUP1 DUP1 SWAP7 DUP2 SWAP5 PUSH4 0x256BA741 PUSH1 0xE0 SHL DUP4 MSTORE CALLER DUP12 PUSH1 0x4 DUP6 ADD PUSH2 0x555B JUMP JUMPDEST SUB SWAP2 GAS STATICCALL SWAP1 DUP2 ISZERO PUSH2 0xD21 JUMPI DUP7 SWAP2 PUSH2 0x3FDA JUMPI JUMPDEST PUSH2 0x3FB6 SWAP3 POP PUSH2 0x50C3 JUMP JUMPDEST SWAP3 DUP3 DUP6 MSTORE PUSH1 0x3 DUP3 MSTORE PUSH1 0x40 DUP6 KECCAK256 CALLER PUSH1 0x0 MSTORE DUP3 MSTORE PUSH1 0x40 PUSH1 0x0 KECCAK256 PUSH1 0xFF NOT DUP2 SLOAD AND SWAP1 SSTORE PUSH2 0x3E86 JUMP JUMPDEST SWAP1 POP DUP3 DUP3 DUP2 RETURNDATASIZE DUP4 GT PUSH2 0x4004 JUMPI JUMPDEST PUSH2 0x3FF1 DUP2 DUP4 PUSH2 0x4E60 JUMP JUMPDEST DUP2 ADD SUB SLT PUSH2 0x848 JUMPI PUSH2 0x3FB6 SWAP2 MLOAD SWAP1 PUSH2 0x3FAC JUMP JUMPDEST POP RETURNDATASIZE PUSH2 0x3FE7 JUMP JUMPDEST SWAP3 POP PUSH2 0x4042 DUP2 PUSH1 0x1 DUP1 PUSH1 0xA0 SHL SUB DUP1 PUSH1 0x7 SLOAD AND SWAP1 PUSH1 0x4 DUP8 ADD SLOAD AND SWAP1 PUSH1 0x40 MLOAD DUP1 DUP1 SWAP6 DUP2 SWAP5 PUSH4 0x423E7BC1 PUSH1 0xE1 SHL DUP4 MSTORE CALLER DUP11 PUSH1 0x4 DUP6 ADD PUSH2 0x555B JUMP JUMPDEST SUB SWAP2 GAS STATICCALL SWAP1 DUP2 ISZERO PUSH2 0x40A6 JUMPI DUP6 SWAP2 PUSH2 0x4079 JUMPI JUMPDEST POP SWAP3 DUP3 DUP6 MSTORE PUSH1 0x2 DUP3 MSTORE PUSH1 0x40 DUP6 KECCAK256 CALLER PUSH1 0x0 MSTORE DUP3 MSTORE PUSH1 0x40 PUSH1 0x0 KECCAK256 PUSH1 0xFF NOT DUP2 SLOAD AND SWAP1 SSTORE PUSH2 0x3E67 JUMP JUMPDEST SWAP1 POP DUP2 DUP2 DUP2 RETURNDATASIZE DUP4 GT PUSH2 0x409F JUMPI JUMPDEST PUSH2 0x4090 DUP2 DUP4 PUSH2 0x4E60 JUMP JUMPDEST DUP2 ADD SUB SLT PUSH2 0x848 JUMPI MLOAD CODESIZE PUSH2 0x4054 JUMP JUMPDEST POP RETURNDATASIZE PUSH2 0x4086 JUMP JUMPDEST PUSH1 0x40 MLOAD RETURNDATASIZE DUP8 DUP3 RETURNDATACOPY RETURNDATASIZE SWAP1 REVERT JUMPDEST PUSH1 0x64 SWAP1 PUSH1 0x40 MLOAD SWAP1 PUSH3 0x461BCD PUSH1 0xE5 SHL DUP3 MSTORE PUSH1 0x4 DUP3 ADD MSTORE PUSH1 0x16 PUSH1 0x24 DUP3 ADD MSTORE PUSH22 0x11540E88139BC81CDD185AD9481D1BC81C99599D5B99 PUSH1 0x52 SHL PUSH1 0x44 DUP3 ADD MSTORE REVERT JUMPDEST POP DUP2 DUP5 MSTORE PUSH1 0x3 DUP2 MSTORE PUSH1 0x40 DUP5 KECCAK256 CALLER PUSH1 0x0 MSTORE DUP2 MSTORE PUSH1 0xFF PUSH1 0x40 PUSH1 0x0 KECCAK256 SLOAD AND PUSH2 0x3E41 JUMP JUMPDEST PUSH1 0x64 SWAP1 PUSH1 0x40 MLOAD SWAP1 PUSH3 0x461BCD PUSH1 0xE5 SHL DUP3 MSTORE PUSH1 0x4 DUP3 ADD MSTORE PUSH1 0x18 PUSH1 0x24 DUP3 ADD MSTORE PUSH24 0x11540E8813585C9AD95D081B9BDD0818D85B98D95B1B1959 PUSH1 0x42 SHL PUSH1 0x44 DUP3 ADD MSTORE REVERT JUMPDEST POP CALLVALUE PUSH2 0x2C2 JUMPI DUP1 PUSH1 0x3 NOT CALLDATASIZE ADD SLT PUSH2 0x2C2 JUMPI PUSH1 0x20 PUSH1 0x40 MLOAD PUSH2 0x1F4 DUP2 MSTORE RETURN JUMPDEST POP CALLVALUE PUSH2 0x2C2 JUMPI PUSH1 0x40 CALLDATASIZE PUSH1 0x3 NOT ADD SLT PUSH2 0x2C2 JUMPI PUSH2 0x15AB SWAP1 PUSH1 0x20 PUSH2 0x418A PUSH2 0x4BB2 JUMP JUMPDEST PUSH1 0x1 DUP1 PUSH1 0xA0 SHL SUB PUSH1 0x7 SLOAD AND PUSH1 0x40 MLOAD DUP1 DUP1 SWAP7 DUP2 SWAP5 PUSH4 0x4F44289D PUSH1 0xE0 SHL DUP4 MSTORE PUSH1 0x4 CALLDATALOAD PUSH1 0x4 DUP5 ADD PUSH2 0x520F JUMP JUMPDEST POP CALLVALUE PUSH2 0x2C2 JUMPI PUSH1 0x20 CALLDATASIZE PUSH1 0x3 NOT ADD SLT PUSH2 0x2C2 JUMPI PUSH2 0x41CD PUSH2 0x4BC8 JUMP JUMPDEST PUSH2 0x41D5 PUSH2 0x4FCB JUMP JUMPDEST PUSH1 0x1 PUSH1 0x1 PUSH1 0xA0 SHL SUB AND PUSH2 0x41E9 DUP2 ISZERO ISZERO PUSH2 0x5D9D JUMP JUMPDEST PUSH1 0xE DUP1 SLOAD PUSH1 0x1 PUSH1 0x1 PUSH1 0xA0 SHL SUB NOT AND SWAP2 SWAP1 SWAP2 OR SWAP1 SSTORE DUP1 RETURN JUMPDEST POP CALLVALUE PUSH2 0x2C2 JUMPI DUP1 PUSH1 0x3 NOT CALLDATASIZE ADD SLT PUSH2 0x2C2 JUMPI PUSH1 0x20 PUSH1 0x9 SLOAD PUSH1 0x40 MLOAD SWAP1 DUP2 MSTORE RETURN JUMPDEST POP CALLVALUE PUSH2 0x2C2 JUMPI PUSH1 0x20 CALLDATASIZE PUSH1 0x3 NOT ADD SLT PUSH2 0x2C2 JUMPI PUSH2 0x4238 PUSH2 0x5DE6 JUMP JUMPDEST POP PUSH1 0x4 CALLDATALOAD DUP2 MSTORE PUSH1 0x1 PUSH1 0x20 MSTORE PUSH1 0x40 DUP2 KECCAK256 PUSH1 0xFF PUSH1 0x11 PUSH1 0x40 MLOAD SWAP3 PUSH2 0x4258 DUP5 PUSH2 0x4E29 JUMP JUMPDEST DUP1 SLOAD PUSH1 0x1 PUSH1 0x1 PUSH1 0xA0 SHL SUB AND DUP5 MSTORE PUSH2 0x4271 PUSH1 0x1 DUP3 ADD PUSH2 0x4F25 JUMP JUMPDEST PUSH1 0x20 DUP6 ADD MSTORE PUSH1 0x2 DUP2 ADD SLOAD DUP4 AND ISZERO ISZERO PUSH1 0x40 DUP6 ADD MSTORE PUSH1 0x3 DUP2 ADD SLOAD PUSH1 0x60 DUP6 ADD MSTORE PUSH1 0x4 DUP2 ADD SLOAD PUSH1 0x1 PUSH1 0x1 PUSH1 0xA0 SHL SUB AND PUSH1 0x80 DUP6 ADD MSTORE PUSH1 0x5 DUP2 ADD SLOAD PUSH1 0xA0 DUP6 ADD MSTORE PUSH1 0x6 DUP2 ADD SLOAD PUSH1 0xC0 DUP6 ADD MSTORE PUSH1 0x7 DUP2 ADD SLOAD PUSH1 0xE0 DUP6 ADD MSTORE PUSH1 0x8 DUP2 ADD SLOAD PUSH2 0x100 DUP6 ADD MSTORE PUSH1 0x9 DUP2 ADD SLOAD PUSH2 0x120 DUP6 ADD MSTORE PUSH1 0xA DUP2 ADD SLOAD PUSH2 0x140 DUP6 ADD MSTORE PUSH1 0xB DUP2 ADD SLOAD PUSH2 0x160 DUP6 ADD MSTORE PUSH1 0xC DUP2 ADD SLOAD PUSH2 0x4300 SWAP1 DUP5 AND PUSH2 0x180 DUP7 ADD PUSH2 0x50DF JUMP JUMPDEST PUSH1 0xD DUP2 ADD SLOAD PUSH2 0x1A0 DUP6 ADD MSTORE PUSH1 0xE DUP2 ADD SLOAD DUP4 DUP2 AND ISZERO ISZERO PUSH2 0x1C0 DUP7 ADD MSTORE PUSH2 0x432E DUP5 DUP3 PUSH1 0x8 SHR AND PUSH2 0x1E0 DUP8 ADD PUSH2 0x50EB JUMP JUMPDEST PUSH1 0x1 PUSH1 0x1 PUSH1 0xA0 SHL SUB PUSH1 0x10 SWAP2 DUP3 SHR DUP2 AND PUSH2 0x200 DUP8 ADD MSTORE PUSH1 0xF DUP4 ADD SLOAD PUSH2 0x220 DUP8 ADD MSTORE SWAP1 DUP3 ADD SLOAD PUSH2 0x240 DUP7 ADD MSTORE SWAP2 ADD SLOAD SWAP2 SWAP1 SWAP2 AND ISZERO ISZERO PUSH2 0x260 DUP4 ADD MSTORE PUSH1 0x7 SLOAD PUSH1 0x80 DUP4 ADD MLOAD PUSH1 0x40 MLOAD PUSH4 0x3D1E7BA1 PUSH1 0xE1 SHL DUP2 MSTORE SWAP3 SWAP2 DUP3 AND SWAP2 PUSH1 0x20 SWAP2 DUP5 SWAP2 DUP3 SWAP2 PUSH2 0x4399 SWAP2 AND PUSH1 0x4 DUP1 CALLDATALOAD SWAP1 DUP5 ADD PUSH2 0x520F JUMP JUMPDEST SUB DUP2 DUP5 GAS STATICCALL SWAP2 DUP3 ISZERO PUSH2 0x4640 JUMPI DUP5 SWAP3 PUSH2 0x464B JUMPI JUMPDEST POP PUSH1 0x80 DUP4 ADD MLOAD PUSH1 0x40 MLOAD PUSH4 0x4F44289D PUSH1 0xE0 SHL DUP2 MSTORE SWAP3 SWAP2 PUSH1 0x20 SWAP2 DUP5 SWAP2 SWAP1 DUP3 SWAP1 DUP2 SWAP1 PUSH2 0x43E4 SWAP1 PUSH1 0x1 PUSH1 0x1 PUSH1 0xA0 SHL SUB AND PUSH1 0x4 DUP1 CALLDATALOAD SWAP1 DUP5 ADD PUSH2 0x520F JUMP JUMPDEST SUB SWAP2 GAS STATICCALL SWAP2 DUP3 ISZERO PUSH2 0x4640 JUMPI DUP5 SWAP3 PUSH2 0x460C JUMPI JUMPDEST POP PUSH1 0x4 CALLDATALOAD DUP5 MSTORE PUSH1 0x5 PUSH1 0x20 MSTORE PUSH1 0x40 DUP5 KECCAK256 SLOAD PUSH1 0x6 PUSH1 0x20 MSTORE PUSH1 0x40 DUP6 KECCAK256 SLOAD PUSH1 0x5 PUSH1 0x20 MSTORE PUSH1 0x40 DUP7 KECCAK256 SWAP2 PUSH1 0x40 MLOAD DUP1 DUP5 PUSH1 0x20 DUP3 SWAP7 SLOAD SWAP4 DUP5 DUP2 MSTORE ADD SWAP1 DUP11 MSTORE PUSH1 0x20 DUP11 KECCAK256 SWAP3 DUP11 JUMPDEST DUP2 DUP2 LT PUSH2 0x45EA JUMPI POP POP PUSH2 0x4448 SWAP3 POP SUB DUP5 PUSH2 0x4E60 JUMP JUMPDEST PUSH1 0x4 CALLDATALOAD DUP8 MSTORE PUSH1 0x6 PUSH1 0x20 MSTORE PUSH1 0x40 DUP8 KECCAK256 SWAP5 PUSH1 0x40 MLOAD DUP1 DUP8 PUSH1 0x20 DUP3 SWAP10 SLOAD SWAP4 DUP5 DUP2 MSTORE ADD SWAP1 DUP12 MSTORE PUSH1 0x20 DUP12 KECCAK256 SWAP3 DUP12 JUMPDEST DUP2 DUP2 LT PUSH2 0x45C8 JUMPI POP POP PUSH2 0x4485 SWAP3 POP SUB DUP8 PUSH2 0x4E60 JUMP JUMPDEST PUSH1 0x8 SLOAD PUSH1 0x80 DUP9 ADD MLOAD PUSH1 0x40 MLOAD PUSH4 0x7D85959B PUSH1 0xE1 SHL DUP2 MSTORE PUSH1 0x1 PUSH1 0x1 PUSH1 0xA0 SHL SUB SWAP2 DUP3 AND PUSH1 0x4 DUP3 ADD MSTORE SWAP2 DUP11 SWAP2 DUP4 SWAP2 PUSH1 0x24 SWAP2 DUP4 SWAP2 AND GAS STATICCALL SWAP9 DUP10 ISZERO PUSH2 0x15F9 JUMPI DUP1 SWAP10 PUSH2 0x452D JUMPI JUMPDEST PUSH2 0x44EF DUP10 PUSH2 0x1751 DUP13 PUSH2 0x451F DUP13 PUSH2 0x4511 DUP14 DUP14 DUP14 DUP14 DUP14 PUSH1 0x40 MLOAD SWAP12 DUP13 SWAP12 PUSH2 0x100 DUP14 MSTORE PUSH2 0x100 DUP14 ADD SWAP1 PUSH2 0x4CD4 JUMP JUMPDEST SWAP5 PUSH1 0x20 DUP13 ADD MSTORE PUSH1 0x40 DUP12 ADD MSTORE PUSH1 0x60 DUP11 ADD MSTORE PUSH1 0x80 DUP10 ADD MSTORE DUP8 DUP3 SUB PUSH1 0xA0 DUP10 ADD MSTORE PUSH2 0x4DD9 JUMP JUMPDEST SWAP1 DUP6 DUP3 SUB PUSH1 0xC0 DUP8 ADD MSTORE PUSH2 0x4DD9 JUMP JUMPDEST SWAP1 DUP4 DUP3 SUB PUSH1 0xE0 DUP6 ADD MSTORE PUSH2 0x4C7F JUMP JUMPDEST SWAP1 SWAP2 SWAP9 POP RETURNDATASIZE DUP1 DUP3 DUP5 RETURNDATACOPY PUSH2 0x4540 DUP2 DUP5 PUSH2 0x4E60 JUMP JUMPDEST DUP3 ADD SWAP2 PUSH1 0x20 DUP2 DUP5 SUB SLT PUSH2 0x42C JUMPI DUP1 MLOAD SWAP1 PUSH1 0x1 PUSH1 0x1 PUSH1 0x40 SHL SUB DUP3 GT PUSH2 0x20EE JUMPI ADD DUP3 PUSH1 0x1F DUP3 ADD SLT ISZERO PUSH2 0x42C JUMPI DUP1 MLOAD SWAP2 PUSH2 0x4576 DUP4 PUSH2 0x4E83 JUMP JUMPDEST SWAP4 PUSH2 0x4584 PUSH1 0x40 MLOAD SWAP6 DUP7 PUSH2 0x4E60 JUMP JUMPDEST DUP4 DUP6 MSTORE PUSH1 0x20 DUP5 DUP5 ADD ADD GT PUSH2 0x2C2 JUMPI POP SWAP4 PUSH2 0x4511 SWAP4 DUP4 PUSH2 0x45B7 PUSH2 0x451F SWAP9 SWAP5 PUSH2 0x1751 SWAP12 SWAP9 PUSH1 0x20 PUSH2 0x44EF SWAP16 SWAP13 SWAP9 DUP2 ADD SWAP2 ADD PUSH2 0x4C5C JUMP JUMPDEST SWAP11 POP SWAP4 POP SWAP4 SWAP7 DUP2 SWAP6 POP SWAP6 SWAP2 SWAP6 PUSH2 0x44C5 JUMP JUMPDEST DUP5 SLOAD PUSH1 0x1 PUSH1 0x1 PUSH1 0xA0 SHL SUB AND DUP4 MSTORE PUSH1 0x1 SWAP5 DUP6 ADD SWAP5 DUP12 SWAP5 POP PUSH1 0x20 SWAP1 SWAP4 ADD SWAP3 ADD PUSH2 0x4470 JUMP JUMPDEST DUP5 SLOAD PUSH1 0x1 PUSH1 0x1 PUSH1 0xA0 SHL SUB AND DUP4 MSTORE PUSH1 0x1 SWAP5 DUP6 ADD SWAP5 DUP9 SWAP5 POP PUSH1 0x20 SWAP1 SWAP4 ADD SWAP3 ADD PUSH2 0x4433 JUMP JUMPDEST SWAP1 SWAP2 POP PUSH1 0x20 DUP2 RETURNDATASIZE PUSH1 0x20 GT PUSH2 0x4638 JUMPI JUMPDEST DUP2 PUSH2 0x4628 PUSH1 0x20 SWAP4 DUP4 PUSH2 0x4E60 JUMP JUMPDEST DUP2 ADD SUB SLT PUSH2 0x848 JUMPI MLOAD SWAP1 CODESIZE PUSH2 0x43F6 JUMP JUMPDEST RETURNDATASIZE SWAP2 POP PUSH2 0x461B JUMP JUMPDEST PUSH1 0x40 MLOAD RETURNDATASIZE DUP7 DUP3 RETURNDATACOPY RETURNDATASIZE SWAP1 REVERT JUMPDEST SWAP2 POP PUSH1 0x20 DUP3 RETURNDATASIZE PUSH1 0x20 GT PUSH2 0x4678 JUMPI JUMPDEST DUP2 PUSH2 0x4666 PUSH1 0x20 SWAP4 DUP4 PUSH2 0x4E60 JUMP JUMPDEST DUP2 ADD SUB SLT PUSH2 0x848 JUMPI SWAP1 MLOAD SWAP1 PUSH1 0x20 PUSH2 0x43AC JUMP JUMPDEST RETURNDATASIZE SWAP2 POP PUSH2 0x4659 JUMP JUMPDEST POP CALLVALUE PUSH2 0x2C2 JUMPI PUSH1 0x20 DUP1 PUSH1 0x3 NOT CALLDATASIZE ADD SLT PUSH2 0x42C JUMPI PUSH1 0x4 CALLDATALOAD DUP1 DUP4 MSTORE PUSH1 0x1 DUP3 MSTORE PUSH1 0x40 DUP4 KECCAK256 PUSH1 0x3 DUP4 MSTORE PUSH1 0x40 DUP5 KECCAK256 CALLER DUP6 MSTORE DUP4 MSTORE PUSH2 0x46BE PUSH1 0xFF PUSH1 0x40 DUP7 KECCAK256 SLOAD AND PUSH2 0x5512 JUMP JUMPDEST PUSH1 0xFF PUSH1 0xC DUP3 ADD SLOAD AND PUSH1 0x5 DUP2 LT ISZERO PUSH2 0x367A JUMPI DUP1 PUSH2 0x4852 JUMPI POP PUSH1 0x9 DUP2 ADD SLOAD PUSH2 0xA8BF NOT DUP2 ADD SWAP1 DUP2 GT PUSH2 0x483E JUMPI TIMESTAMP LT ISZERO PUSH2 0x47DE JUMPI JUMPDEST DUP4 PUSH1 0x1 DUP1 PUSH1 0xA0 SHL SUB PUSH1 0x4 DUP2 PUSH1 0x7 SLOAD AND SWAP4 ADD SLOAD AND SWAP2 PUSH1 0x40 MLOAD SWAP1 PUSH4 0x256BA741 PUSH1 0xE0 SHL DUP3 MSTORE DUP6 DUP3 DUP1 PUSH2 0x4723 DUP8 CALLER DUP11 PUSH1 0x4 DUP6 ADD PUSH2 0x555B JUMP JUMPDEST SUB DUP2 DUP5 GAS STATICCALL SWAP2 DUP3 ISZERO PUSH2 0x6AA JUMPI DUP4 SWAP3 PUSH2 0x47AF JUMPI JUMPDEST POP PUSH2 0x4742 DUP3 ISZERO ISZERO PUSH2 0x5512 JUMP JUMPDEST DUP1 EXTCODESIZE ISZERO PUSH2 0x20EE JUMPI PUSH2 0x476C SWAP4 DUP4 PUSH1 0x40 MLOAD DUP1 SWAP7 DUP2 SWAP6 DUP3 SWAP5 PUSH4 0x17BE0B2F PUSH1 0xE1 SHL DUP5 MSTORE CALLER DUP12 PUSH1 0x4 DUP7 ADD PUSH2 0x54EA JUMP JUMPDEST SUB SWAP3 GAS CALL DUP1 ISZERO PUSH2 0x4640 JUMPI PUSH2 0x479C JUMPI JUMPDEST POP DUP3 MSTORE PUSH1 0x3 DUP2 MSTORE PUSH1 0x40 DUP3 KECCAK256 SWAP1 CALLER PUSH1 0x0 MSTORE MSTORE PUSH1 0x40 PUSH1 0x0 KECCAK256 PUSH1 0xFF NOT DUP2 SLOAD AND SWAP1 SSTORE DUP1 RETURN JUMPDEST PUSH2 0x47A8 SWAP1 SWAP4 SWAP2 SWAP4 PUSH2 0x4E16 JUMP JUMPDEST SWAP2 CODESIZE PUSH2 0x477B JUMP JUMPDEST SWAP1 SWAP2 POP DUP6 DUP2 DUP2 RETURNDATASIZE DUP4 GT PUSH2 0x47D7 JUMPI JUMPDEST PUSH2 0x47C7 DUP2 DUP4 PUSH2 0x4E60 JUMP JUMPDEST DUP2 ADD SUB SLT PUSH2 0x20EE JUMPI MLOAD SWAP1 CODESIZE PUSH2 0x4736 JUMP JUMPDEST POP RETURNDATASIZE PUSH2 0x47BD JUMP JUMPDEST PUSH1 0x40 MLOAD PUSH3 0x461BCD PUSH1 0xE5 SHL DUP2 MSTORE PUSH1 0x4 DUP2 ADD DUP5 SWAP1 MSTORE PUSH1 0x32 PUSH1 0x24 DUP3 ADD MSTORE PUSH32 0x45503A2043616E6E6F742077697468647261772077697468696E20313220686F PUSH1 0x44 DUP3 ADD MSTORE PUSH18 0x1D5C9CC81BD9881CDD185ADA5B99C8195B99 PUSH1 0x72 SHL PUSH1 0x64 DUP3 ADD MSTORE PUSH1 0x84 SWAP1 REVERT JUMPDEST PUSH4 0x4E487B71 PUSH1 0xE0 SHL DUP6 MSTORE PUSH1 0x11 PUSH1 0x4 MSTORE PUSH1 0x24 DUP6 REVERT JUMPDEST PUSH1 0x4 DUP2 EQ SWAP1 DUP2 ISZERO PUSH2 0x48BC JUMPI JUMPDEST POP PUSH2 0x46EF JUMPI PUSH1 0x40 MLOAD PUSH3 0x461BCD PUSH1 0xE5 SHL DUP2 MSTORE PUSH1 0x4 DUP2 ADD DUP5 SWAP1 MSTORE PUSH1 0x2B PUSH1 0x24 DUP3 ADD MSTORE PUSH32 0x45503A2043616E6E6F7420776974686472617720696E2063757272656E74206D PUSH1 0x44 DUP3 ADD MSTORE PUSH11 0x61726B6574207374617465 PUSH1 0xA8 SHL PUSH1 0x64 DUP3 ADD MSTORE PUSH1 0x84 SWAP1 REVERT JUMPDEST PUSH1 0x3 SWAP2 POP EQ CODESIZE PUSH2 0x485E JUMP JUMPDEST POP CALLVALUE PUSH2 0x2C2 JUMPI PUSH1 0x20 CALLDATASIZE PUSH1 0x3 NOT ADD SLT PUSH2 0x2C2 JUMPI PUSH1 0x4 CALLDATALOAD SWAP1 PUSH1 0xA SLOAD DUP3 LT ISZERO PUSH2 0x2C2 JUMPI PUSH1 0x20 PUSH2 0x2240 DUP4 PUSH2 0x4C13 JUMP JUMPDEST POP CALLVALUE PUSH2 0x2C2 JUMPI PUSH1 0x40 CALLDATASIZE PUSH1 0x3 NOT ADD SLT PUSH2 0x2C2 JUMPI PUSH1 0xFF PUSH1 0x40 PUSH1 0x20 SWAP3 PUSH2 0x4913 PUSH2 0x4BB2 JUMP JUMPDEST PUSH1 0x4 CALLDATALOAD DUP3 MSTORE PUSH1 0x2 DUP6 MSTORE DUP3 DUP3 KECCAK256 PUSH1 0x1 PUSH1 0x1 PUSH1 0xA0 SHL SUB SWAP1 SWAP2 AND DUP3 MSTORE DUP5 MSTORE KECCAK256 SLOAD PUSH1 0x40 MLOAD SWAP2 AND ISZERO ISZERO DUP2 MSTORE RETURN JUMPDEST POP CALLVALUE PUSH2 0x2C2 JUMPI DUP1 PUSH1 0x3 NOT CALLDATASIZE ADD SLT PUSH2 0x2C2 JUMPI PUSH1 0x20 PUSH1 0x40 MLOAD PUSH8 0xDE0B6B3A7640000 DUP2 MSTORE RETURN JUMPDEST POP CALLVALUE PUSH2 0x2C2 JUMPI PUSH1 0x40 CALLDATASIZE PUSH1 0x3 NOT ADD SLT PUSH2 0x2C2 JUMPI PUSH1 0xFF PUSH1 0x40 PUSH1 0x20 SWAP3 PUSH2 0x497F PUSH2 0x4BB2 JUMP JUMPDEST PUSH1 0x4 CALLDATALOAD DUP3 MSTORE PUSH1 0x3 DUP6 MSTORE DUP3 DUP3 KECCAK256 PUSH1 0x1 PUSH1 0x1 PUSH1 0xA0 SHL SUB SWAP1 SWAP2 AND DUP3 MSTORE DUP5 MSTORE KECCAK256 SLOAD PUSH1 0x40 MLOAD SWAP2 AND ISZERO ISZERO DUP2 MSTORE RETURN JUMPDEST POP CALLVALUE PUSH2 0x2C2 JUMPI PUSH2 0x49EA PUSH1 0x20 PUSH2 0x49BB CALLDATASIZE PUSH2 0x4BDE JUMP JUMPDEST PUSH1 0x7 SLOAD PUSH1 0x40 MLOAD PUSH4 0x256BA741 PUSH1 0xE0 SHL DUP2 MSTORE SWAP6 DUP7 SWAP5 PUSH1 0x1 PUSH1 0x1 PUSH1 0xA0 SHL SUB SWAP1 SWAP3 AND SWAP4 DUP6 SWAP4 DUP5 SWAP4 SWAP1 SWAP2 SWAP1 PUSH1 0x4 DUP6 ADD PUSH2 0x555B JUMP JUMPDEST SUB SWAP2 GAS STATICCALL SWAP1 DUP2 ISZERO PUSH2 0x672 JUMPI DUP3 SWAP2 PUSH2 0x4A07 JUMPI JUMPDEST PUSH1 0x20 DUP3 PUSH1 0x40 MLOAD SWAP1 DUP2 MSTORE RETURN JUMPDEST SWAP1 POP PUSH1 0x20 DUP2 RETURNDATASIZE DUP3 GT PUSH2 0x4A34 JUMPI JUMPDEST DUP2 PUSH2 0x4A21 PUSH1 0x20 SWAP4 DUP4 PUSH2 0x4E60 JUMP JUMPDEST DUP2 ADD SUB SLT PUSH2 0x42C JUMPI PUSH1 0x20 SWAP2 POP MLOAD CODESIZE PUSH2 0x49FC JUMP JUMPDEST RETURNDATASIZE SWAP2 POP PUSH2 0x4A14 JUMP JUMPDEST POP CALLVALUE PUSH2 0x2C2 JUMPI DUP1 PUSH1 0x3 NOT CALLDATASIZE ADD SLT PUSH2 0x2C2 JUMPI PUSH1 0xD SLOAD PUSH1 0x40 MLOAD PUSH1 0x1 PUSH1 0x1 PUSH1 0xA0 SHL SUB SWAP1 SWAP2 AND DUP2 MSTORE PUSH1 0x20 SWAP1 RETURN JUMPDEST POP CALLVALUE PUSH2 0x2C2 JUMPI DUP1 PUSH1 0x3 NOT CALLDATASIZE ADD SLT PUSH2 0x2C2 JUMPI PUSH1 0xF SLOAD PUSH1 0x40 MLOAD PUSH1 0x1 PUSH1 0x1 PUSH1 0xA0 SHL SUB SWAP1 SWAP2 AND DUP2 MSTORE PUSH1 0x20 SWAP1 RETURN JUMPDEST POP CALLVALUE PUSH2 0x2C2 JUMPI PUSH1 0x20 CALLDATASIZE PUSH1 0x3 NOT ADD SLT PUSH2 0x2C2 JUMPI PUSH1 0x4 CALLDATALOAD DUP1 DUP3 MSTORE PUSH1 0x1 PUSH1 0x20 MSTORE PUSH1 0x40 DUP3 KECCAK256 PUSH1 0xC DUP2 ADD SWAP1 DUP2 SLOAD SWAP1 PUSH1 0xFF DUP3 AND PUSH1 0x5 DUP2 LT ISZERO PUSH2 0x4B48 JUMPI SWAP1 PUSH2 0x4AD1 PUSH1 0xA SWAP3 ISZERO PUSH2 0x5347 JUMP JUMPDEST ADD SLOAD TIMESTAMP LT PUSH2 0x4B03 JUMPI PUSH1 0xFF NOT AND PUSH1 0x1 OR SWAP1 SSTORE DUP1 DUP3 MSTORE PUSH1 0xB PUSH1 0x20 MSTORE PUSH1 0x40 DUP3 KECCAK256 SLOAD PUSH1 0xFF AND PUSH2 0x4AFA JUMPI POP DUP1 RETURN JUMPDEST PUSH2 0x1B74 SWAP1 PUSH2 0x5C29 JUMP JUMPDEST PUSH1 0x40 MLOAD PUSH3 0x461BCD PUSH1 0xE5 SHL DUP2 MSTORE PUSH1 0x20 PUSH1 0x4 DUP3 ADD MSTORE PUSH1 0x1F PUSH1 0x24 DUP3 ADD MSTORE PUSH32 0x45503A205265736F6C7574696F6E2074696D65206E6F74207265616368656400 PUSH1 0x44 DUP3 ADD MSTORE PUSH1 0x64 SWAP1 REVERT JUMPDEST PUSH4 0x4E487B71 PUSH1 0xE0 SHL DUP7 MSTORE PUSH1 0x21 PUSH1 0x4 MSTORE PUSH1 0x24 DUP7 REVERT JUMPDEST POP CALLVALUE PUSH2 0x2C2 JUMPI PUSH1 0x20 CALLDATASIZE PUSH1 0x3 NOT ADD SLT PUSH2 0x2C2 JUMPI PUSH1 0xFF PUSH1 0x40 PUSH1 0x20 SWAP3 PUSH1 0x4 CALLDATALOAD DUP2 MSTORE PUSH1 0xB DUP5 MSTORE KECCAK256 SLOAD AND PUSH1 0x40 MLOAD SWAP1 ISZERO ISZERO DUP2 MSTORE RETURN JUMPDEST SWAP1 POP CALLVALUE PUSH2 0x42C JUMPI PUSH1 0x20 CALLDATASIZE PUSH1 0x3 NOT ADD SLT PUSH2 0x42C JUMPI PUSH1 0x40 PUSH1 0x20 SWAP3 PUSH1 0x4 CALLDATALOAD DUP2 MSTORE PUSH1 0x5 DUP5 MSTORE KECCAK256 SLOAD DUP2 MSTORE RETURN JUMPDEST PUSH1 0x24 CALLDATALOAD SWAP1 PUSH1 0x1 PUSH1 0x1 PUSH1 0xA0 SHL SUB DUP3 AND DUP3 SUB PUSH2 0x848 JUMPI JUMP JUMPDEST PUSH1 0x4 CALLDATALOAD SWAP1 PUSH1 0x1 PUSH1 0x1 PUSH1 0xA0 SHL SUB DUP3 AND DUP3 SUB PUSH2 0x848 JUMPI JUMP JUMPDEST PUSH1 0x60 SWAP1 PUSH1 0x3 NOT ADD SLT PUSH2 0x848 JUMPI PUSH1 0x4 CALLDATALOAD SWAP1 PUSH1 0x1 PUSH1 0x1 PUSH1 0xA0 SHL SUB SWAP1 PUSH1 0x24 CALLDATALOAD DUP3 DUP2 AND DUP2 SUB PUSH2 0x848 JUMPI SWAP2 PUSH1 0x44 CALLDATALOAD SWAP1 DUP2 AND DUP2 SUB PUSH2 0x848 JUMPI SWAP1 JUMP JUMPDEST PUSH1 0xA SLOAD DUP2 LT ISZERO PUSH2 0x4C2E JUMPI PUSH1 0xA PUSH1 0x0 MSTORE PUSH1 0x20 PUSH1 0x0 KECCAK256 ADD SWAP1 PUSH1 0x0 SWAP1 JUMP JUMPDEST PUSH4 0x4E487B71 PUSH1 0xE0 SHL PUSH1 0x0 MSTORE PUSH1 0x32 PUSH1 0x4 MSTORE PUSH1 0x24 PUSH1 0x0 REVERT JUMPDEST DUP1 SLOAD DUP3 LT ISZERO PUSH2 0x4C2E JUMPI PUSH1 0x0 MSTORE PUSH1 0x20 PUSH1 0x0 KECCAK256 ADD SWAP1 PUSH1 0x0 SWAP1 JUMP JUMPDEST PUSH1 0x0 JUMPDEST DUP4 DUP2 LT PUSH2 0x4C6F JUMPI POP POP PUSH1 0x0 SWAP2 ADD MSTORE JUMP JUMPDEST DUP2 DUP2 ADD MLOAD DUP4 DUP3 ADD MSTORE PUSH1 0x20 ADD PUSH2 0x4C5F JUMP JUMPDEST SWAP1 PUSH1 0x20 SWAP2 PUSH2 0x4C98 DUP2 MLOAD DUP1 SWAP3 DUP2 DUP6 MSTORE DUP6 DUP1 DUP7 ADD SWAP2 ADD PUSH2 0x4C5C JUMP JUMPDEST PUSH1 0x1F ADD PUSH1 0x1F NOT AND ADD ADD SWAP1 JUMP JUMPDEST SWAP1 PUSH1 0x5 DUP3 LT ISZERO PUSH2 0x4CB1 JUMPI MSTORE JUMP JUMPDEST PUSH4 0x4E487B71 PUSH1 0xE0 SHL PUSH1 0x0 MSTORE PUSH1 0x21 PUSH1 0x4 MSTORE PUSH1 0x24 PUSH1 0x0 REVERT JUMPDEST SWAP1 PUSH1 0x2 DUP3 LT ISZERO PUSH2 0x4CB1 JUMPI MSTORE JUMP JUMPDEST SWAP1 PUSH1 0x1 DUP1 PUSH1 0xA0 SHL SUB SWAP2 DUP3 DUP2 MLOAD AND DUP3 MSTORE PUSH2 0x4CFC PUSH1 0x20 DUP3 ADD MLOAD PUSH2 0x280 DUP1 PUSH1 0x20 DUP7 ADD MSTORE DUP5 ADD SWAP1 PUSH2 0x4C7F JUMP JUMPDEST SWAP3 PUSH1 0x40 DUP3 ADD MLOAD ISZERO ISZERO PUSH1 0x40 DUP5 ADD MSTORE PUSH1 0x60 DUP3 ADD MLOAD PUSH1 0x60 DUP5 ADD MSTORE DUP1 PUSH1 0x80 DUP4 ADD MLOAD AND PUSH1 0x80 DUP5 ADD MSTORE PUSH1 0xA0 DUP3 ADD MLOAD PUSH1 0xA0 DUP5 ADD MSTORE PUSH1 0xC0 DUP3 ADD MLOAD PUSH1 0xC0 DUP5 ADD MSTORE PUSH1 0xE0 DUP3 ADD MLOAD PUSH1 0xE0 DUP5 ADD MSTORE PUSH2 0x100 DUP1 DUP4 ADD MLOAD SWAP1 DUP5 ADD MSTORE PUSH2 0x120 DUP1 DUP4 ADD MLOAD SWAP1 DUP5 ADD MSTORE PUSH2 0x140 DUP1 DUP4 ADD MLOAD SWAP1 DUP5 ADD MSTORE PUSH2 0x160 DUP1 DUP4 ADD MLOAD SWAP1 DUP5 ADD MSTORE PUSH2 0x4D7C PUSH2 0x180 DUP1 DUP5 ADD MLOAD SWAP1 DUP6 ADD SWAP1 PUSH2 0x4CA4 JUMP JUMPDEST PUSH2 0x1A0 DUP1 DUP4 ADD MLOAD SWAP1 DUP5 ADD MSTORE PUSH2 0x1C0 DUP1 DUP4 ADD MLOAD ISZERO ISZERO SWAP1 DUP5 ADD MSTORE PUSH2 0x4DA7 PUSH2 0x1E0 DUP1 DUP5 ADD MLOAD SWAP1 DUP6 ADD SWAP1 PUSH2 0x4CC7 JUMP JUMPDEST PUSH2 0x200 SWAP1 DUP2 DUP4 ADD MLOAD AND SWAP1 DUP4 ADD MSTORE PUSH2 0x220 DUP1 DUP3 ADD MLOAD SWAP1 DUP4 ADD MSTORE PUSH2 0x240 DUP1 DUP3 ADD MLOAD SWAP1 DUP4 ADD MSTORE PUSH2 0x260 DUP1 SWAP2 ADD MLOAD ISZERO ISZERO SWAP2 ADD MSTORE SWAP1 JUMP JUMPDEST SWAP1 DUP2 MLOAD DUP1 DUP3 MSTORE PUSH1 0x20 DUP1 DUP1 SWAP4 ADD SWAP4 ADD SWAP2 PUSH1 0x0 JUMPDEST DUP3 DUP2 LT PUSH2 0x4DF9 JUMPI POP POP POP POP SWAP1 JUMP JUMPDEST DUP4 MLOAD PUSH1 0x1 PUSH1 0x1 PUSH1 0xA0 SHL SUB AND DUP6 MSTORE SWAP4 DUP2 ADD SWAP4 SWAP3 DUP2 ADD SWAP3 PUSH1 0x1 ADD PUSH2 0x4DEB JUMP JUMPDEST PUSH1 0x1 PUSH1 0x1 PUSH1 0x40 SHL SUB DUP2 GT PUSH2 0x3664 JUMPI PUSH1 0x40 MSTORE JUMP JUMPDEST PUSH2 0x280 DUP2 ADD SWAP1 DUP2 LT PUSH1 0x1 PUSH1 0x1 PUSH1 0x40 SHL SUB DUP3 GT OR PUSH2 0x3664 JUMPI PUSH1 0x40 MSTORE JUMP JUMPDEST PUSH1 0x40 DUP2 ADD SWAP1 DUP2 LT PUSH1 0x1 PUSH1 0x1 PUSH1 0x40 SHL SUB DUP3 GT OR PUSH2 0x3664 JUMPI PUSH1 0x40 MSTORE JUMP JUMPDEST PUSH1 0x1F SWAP1 SWAP2 ADD PUSH1 0x1F NOT AND DUP2 ADD SWAP1 PUSH1 0x1 PUSH1 0x1 PUSH1 0x40 SHL SUB DUP3 GT SWAP1 DUP3 LT OR PUSH2 0x3664 JUMPI PUSH1 0x40 MSTORE JUMP JUMPDEST PUSH1 0x1 PUSH1 0x1 PUSH1 0x40 SHL SUB DUP2 GT PUSH2 0x3664 JUMPI PUSH1 0x1F ADD PUSH1 0x1F NOT AND PUSH1 0x20 ADD SWAP1 JUMP JUMPDEST SWAP3 SWAP2 SWAP3 PUSH2 0x4EAA DUP3 PUSH2 0x4E83 JUMP JUMPDEST SWAP2 PUSH2 0x4EB8 PUSH1 0x40 MLOAD SWAP4 DUP5 PUSH2 0x4E60 JUMP JUMPDEST DUP3 SWAP5 DUP2 DUP5 MSTORE DUP2 DUP4 ADD GT PUSH2 0x848 JUMPI DUP3 DUP2 PUSH1 0x20 SWAP4 DUP5 PUSH1 0x0 SWAP7 ADD CALLDATACOPY ADD ADD MSTORE JUMP JUMPDEST PUSH1 0x40 SWAP1 PUSH1 0x3 NOT ADD SLT PUSH2 0x848 JUMPI PUSH1 0x4 CALLDATALOAD SWAP1 PUSH1 0x24 CALLDATALOAD SWAP1 JUMP JUMPDEST SWAP1 PUSH1 0x1 DUP3 DUP2 SHR SWAP3 AND DUP1 ISZERO PUSH2 0x4F1B JUMPI JUMPDEST PUSH1 0x20 DUP4 LT EQ PUSH2 0x4F05 JUMPI JUMP JUMPDEST PUSH4 0x4E487B71 PUSH1 0xE0 SHL PUSH1 0x0 MSTORE PUSH1 0x22 PUSH1 0x4 MSTORE PUSH1 0x24 PUSH1 0x0 REVERT JUMPDEST SWAP2 PUSH1 0x7F AND SWAP2 PUSH2 0x4EFA JUMP JUMPDEST SWAP1 PUSH1 0x40 MLOAD SWAP2 DUP3 PUSH1 0x0 DUP3 SLOAD SWAP3 PUSH2 0x4F39 DUP5 PUSH2 0x4EEB JUMP JUMPDEST SWAP1 DUP2 DUP5 MSTORE PUSH1 0x1 SWAP5 DUP6 DUP2 AND SWAP1 DUP2 PUSH1 0x0 EQ PUSH2 0x4FA8 JUMPI POP PUSH1 0x1 EQ PUSH2 0x4F65 JUMPI JUMPDEST POP POP PUSH2 0x4F63 SWAP3 POP SUB DUP4 PUSH2 0x4E60 JUMP JUMPDEST JUMP JUMPDEST SWAP1 SWAP4 SWAP2 POP PUSH1 0x0 MSTORE PUSH1 0x20 SWAP1 DUP2 PUSH1 0x0 KECCAK256 SWAP4 PUSH1 0x0 SWAP2 JUMPDEST DUP2 DUP4 LT PUSH2 0x4F90 JUMPI POP POP PUSH2 0x4F63 SWAP4 POP DUP3 ADD ADD CODESIZE DUP1 PUSH2 0x4F55 JUMP JUMPDEST DUP6 SLOAD DUP9 DUP5 ADD DUP6 ADD MSTORE SWAP5 DUP6 ADD SWAP5 DUP8 SWAP5 POP SWAP2 DUP4 ADD SWAP2 PUSH2 0x4F78 JUMP JUMPDEST SWAP2 POP POP PUSH2 0x4F63 SWAP5 POP PUSH1 0x20 SWAP3 POP PUSH1 0xFF NOT AND DUP3 DUP5 ADD MSTORE ISZERO ISZERO PUSH1 0x5 SHL DUP3 ADD ADD CODESIZE DUP1 PUSH2 0x4F55 JUMP JUMPDEST PUSH1 0x0 SLOAD PUSH1 0x1 PUSH1 0x1 PUSH1 0xA0 SHL SUB AND CALLER SUB PUSH2 0x4FDF JUMPI JUMP JUMPDEST PUSH1 0x40 MLOAD PUSH4 0x118CDAA7 PUSH1 0xE0 SHL DUP2 MSTORE CALLER PUSH1 0x4 DUP3 ADD MSTORE PUSH1 0x24 SWAP1 REVERT JUMPDEST SWAP1 DUP2 PUSH1 0x20 SWAP2 SUB SLT PUSH2 0x848 JUMPI MLOAD DUP1 ISZERO ISZERO DUP2 SUB PUSH2 0x848 JUMPI SWAP1 JUMP JUMPDEST ISZERO PUSH2 0x5016 JUMPI JUMP JUMPDEST PUSH1 0x40 MLOAD PUSH3 0x461BCD PUSH1 0xE5 SHL DUP2 MSTORE PUSH1 0x20 PUSH1 0x4 DUP3 ADD MSTORE PUSH1 0x16 PUSH1 0x24 DUP3 ADD MSTORE PUSH22 0x11540E8815D85B1B195D08189B1858DADB1A5CDD1959 PUSH1 0x52 SHL PUSH1 0x44 DUP3 ADD MSTORE PUSH1 0x64 SWAP1 REVERT JUMPDEST ISZERO PUSH2 0x505B JUMPI JUMP JUMPDEST PUSH1 0x40 MLOAD PUSH3 0x461BCD PUSH1 0xE5 SHL DUP2 MSTORE PUSH1 0x20 PUSH1 0x4 DUP3 ADD MSTORE PUSH1 0x17 PUSH1 0x24 DUP3 ADD MSTORE PUSH23 0x11540E88151BDAD95B881B9BDD081CDD5C1C1BDC9D1959 PUSH1 0x4A SHL PUSH1 0x44 DUP3 ADD MSTORE PUSH1 0x64 SWAP1 REVERT JUMPDEST DUP2 DUP2 MUL SWAP3 SWAP2 DUP2 ISZERO SWAP2 DUP5 DIV EQ OR ISZERO PUSH2 0x50AD JUMPI JUMP JUMPDEST PUSH4 0x4E487B71 PUSH1 0xE0 SHL PUSH1 0x0 MSTORE PUSH1 0x11 PUSH1 0x4 MSTORE PUSH1 0x24 PUSH1 0x0 REVERT JUMPDEST SWAP2 SWAP1 DUP3 ADD DUP1 SWAP3 GT PUSH2 0x50AD JUMPI JUMP JUMPDEST PUSH1 0x0 NOT DUP2 EQ PUSH2 0x50AD JUMPI PUSH1 0x1 ADD SWAP1 JUMP JUMPDEST PUSH1 0x5 DUP3 LT ISZERO PUSH2 0x4CB1 JUMPI MSTORE JUMP JUMPDEST PUSH1 0x2 DUP3 LT ISZERO PUSH2 0x4CB1 JUMPI MSTORE JUMP JUMPDEST DUP2 DUP2 LT PUSH2 0x5102 JUMPI POP POP JUMP JUMPDEST PUSH1 0x0 DUP2 SSTORE PUSH1 0x1 ADD PUSH2 0x50F7 JUMP JUMPDEST SWAP1 PUSH1 0xFF DUP1 NOT DUP4 SLOAD AND SWAP2 ISZERO ISZERO AND OR SWAP1 SSTORE JUMP JUMPDEST DUP1 SLOAD SWAP1 PUSH1 0x1 PUSH1 0x40 SHL DUP3 LT ISZERO PUSH2 0x3664 JUMPI DUP2 PUSH2 0x3245 SWAP2 PUSH1 0x1 PUSH2 0x5141 SWAP5 ADD DUP2 SSTORE PUSH2 0x4C44 JUMP JUMPDEST SWAP1 SSTORE JUMP JUMPDEST RETURNDATASIZE ISZERO PUSH2 0x5170 JUMPI RETURNDATASIZE SWAP1 PUSH2 0x5156 DUP3 PUSH2 0x4E83 JUMP JUMPDEST SWAP2 PUSH2 0x5164 PUSH1 0x40 MLOAD SWAP4 DUP5 PUSH2 0x4E60 JUMP JUMPDEST DUP3 MSTORE RETURNDATASIZE PUSH1 0x0 PUSH1 0x20 DUP5 ADD RETURNDATACOPY JUMP JUMPDEST PUSH1 0x60 SWAP1 JUMP JUMPDEST ISZERO PUSH2 0x517C JUMPI JUMP JUMPDEST PUSH1 0x64 PUSH1 0x40 MLOAD PUSH3 0x461BCD PUSH1 0xE5 SHL DUP2 MSTORE PUSH1 0x20 PUSH1 0x4 DUP3 ADD MSTORE PUSH1 0x20 PUSH1 0x24 DUP3 ADD MSTORE PUSH32 0x45503A20466565207472616E7366657220746F206F776E6572206661696C6564 PUSH1 0x44 DUP3 ADD MSTORE REVERT JUMPDEST SWAP1 DUP2 MSTORE PUSH1 0x1 PUSH1 0x1 PUSH1 0xA0 SHL SUB SWAP2 DUP3 AND PUSH1 0x20 DUP3 ADD MSTORE SWAP2 AND PUSH1 0x40 DUP3 ADD MSTORE PUSH1 0x60 DUP2 ADD SWAP2 SWAP1 SWAP2 MSTORE PUSH1 0x80 DUP2 ADD SWAP2 SWAP1 SWAP2 MSTORE PUSH1 0xA0 ADD SWAP1 JUMP JUMPDEST SWAP1 DUP2 PUSH1 0x20 SWAP2 SUB SLT PUSH2 0x848 JUMPI MLOAD PUSH1 0x1 PUSH1 0x1 PUSH1 0xA0 SHL SUB DUP2 AND DUP2 SUB PUSH2 0x848 JUMPI SWAP1 JUMP JUMPDEST SWAP1 DUP2 MSTORE PUSH1 0x1 PUSH1 0x1 PUSH1 0xA0 SHL SUB SWAP1 SWAP2 AND PUSH1 0x20 DUP3 ADD MSTORE PUSH1 0x40 ADD SWAP1 JUMP JUMPDEST SWAP1 SWAP5 SWAP4 SWAP3 PUSH1 0x60 SWAP3 PUSH1 0x80 DUP4 ADD SWAP7 DUP4 MSTORE PUSH1 0x1 DUP1 PUSH1 0xA0 SHL SUB AND PUSH1 0x20 DUP4 ADD MSTORE PUSH1 0x40 DUP3 ADD MSTORE ADD MSTORE JUMP JUMPDEST PUSH1 0x1 PUSH1 0x1 PUSH1 0xA0 SHL SUB SWAP2 DUP3 AND DUP2 MSTORE SWAP2 AND PUSH1 0x20 DUP3 ADD MSTORE PUSH1 0x40 DUP2 ADD SWAP2 SWAP1 SWAP2 MSTORE PUSH1 0x60 ADD SWAP1 JUMP JUMPDEST SWAP3 SWAP1 PUSH1 0x0 SWAP2 PUSH2 0x52A7 PUSH1 0x20 SWAP5 PUSH2 0x5299 PUSH1 0x40 MLOAD SWAP4 DUP5 SWAP3 DUP9 DUP5 ADD SWAP7 PUSH4 0x23B872DD PUSH1 0xE0 SHL DUP9 MSTORE PUSH1 0x24 DUP6 ADD PUSH2 0x524C JUMP JUMPDEST SUB PUSH1 0x1F NOT DUP2 ADD DUP4 MSTORE DUP3 PUSH2 0x4E60 JUMP JUMPDEST MLOAD SWAP1 DUP3 DUP6 GAS CALL ISZERO PUSH2 0x52FA JUMPI PUSH1 0x0 MLOAD RETURNDATASIZE PUSH2 0x52F1 JUMPI POP PUSH1 0x1 PUSH1 0x1 PUSH1 0xA0 SHL SUB DUP2 AND EXTCODESIZE ISZERO JUMPDEST PUSH2 0x52CF JUMPI POP JUMP JUMPDEST PUSH1 0x40 MLOAD PUSH4 0x5274AFE7 PUSH1 0xE0 SHL DUP2 MSTORE PUSH1 0x1 PUSH1 0x1 PUSH1 0xA0 SHL SUB SWAP1 SWAP2 AND PUSH1 0x4 DUP3 ADD MSTORE PUSH1 0x24 SWAP1 REVERT JUMPDEST PUSH1 0x1 EQ ISZERO PUSH2 0x52C8 JUMP JUMPDEST PUSH1 0x40 MLOAD RETURNDATASIZE PUSH1 0x0 DUP3 RETURNDATACOPY RETURNDATASIZE SWAP1 REVERT JUMPDEST ISZERO PUSH2 0x530D JUMPI JUMP JUMPDEST PUSH1 0x40 MLOAD PUSH3 0x461BCD PUSH1 0xE5 SHL DUP2 MSTORE PUSH1 0x20 PUSH1 0x4 DUP3 ADD MSTORE PUSH1 0x12 PUSH1 0x24 DUP3 ADD MSTORE PUSH18 0x11540E8813585C9AD95D0819195B195D1959 PUSH1 0x72 SHL PUSH1 0x44 DUP3 ADD MSTORE PUSH1 0x64 SWAP1 REVERT JUMPDEST ISZERO PUSH2 0x534E JUMPI JUMP JUMPDEST PUSH1 0x40 MLOAD PUSH3 0x461BCD PUSH1 0xE5 SHL DUP2 MSTORE PUSH1 0x20 PUSH1 0x4 DUP3 ADD MSTORE PUSH1 0xE PUSH1 0x24 DUP3 ADD MSTORE PUSH14 0x45503A204E6F7420616374697665 PUSH1 0x90 SHL PUSH1 0x44 DUP3 ADD MSTORE PUSH1 0x64 SWAP1 REVERT JUMPDEST SWAP2 SWAP1 DUP3 SUB SWAP2 DUP3 GT PUSH2 0x50AD JUMPI JUMP JUMPDEST ISZERO PUSH2 0x5398 JUMPI JUMP JUMPDEST PUSH1 0x40 MLOAD PUSH3 0x461BCD PUSH1 0xE5 SHL DUP2 MSTORE PUSH1 0x20 PUSH1 0x4 DUP3 ADD MSTORE PUSH1 0x18 PUSH1 0x24 DUP3 ADD MSTORE PUSH24 0x11540E8814DD185ADA5B99C81C195C9A5BD908195B991959 PUSH1 0x42 SHL PUSH1 0x44 DUP3 ADD MSTORE PUSH1 0x64 SWAP1 REVERT JUMPDEST ISZERO PUSH2 0x53DF JUMPI JUMP JUMPDEST PUSH1 0x40 MLOAD PUSH3 0x461BCD PUSH1 0xE5 SHL DUP2 MSTORE PUSH1 0x20 PUSH1 0x4 DUP3 ADD MSTORE PUSH1 0xE PUSH1 0x24 DUP3 ADD MSTORE PUSH14 0x22A81D102130B21037B83A34B7B7 PUSH1 0x91 SHL PUSH1 0x44 DUP3 ADD MSTORE PUSH1 0x64 SWAP1 REVERT JUMPDEST ISZERO PUSH2 0x541C JUMPI JUMP JUMPDEST PUSH1 0x40 MLOAD PUSH3 0x461BCD PUSH1 0xE5 SHL DUP2 MSTORE PUSH1 0x20 PUSH1 0x4 DUP3 ADD MSTORE PUSH1 0xD PUSH1 0x24 DUP3 ADD MSTORE PUSH13 0x22A81D102132B637BB9036B4B7 PUSH1 0x99 SHL PUSH1 0x44 DUP3 ADD MSTORE PUSH1 0x64 SWAP1 REVERT JUMPDEST DUP1 SLOAD PUSH1 0x1 PUSH1 0x40 SHL DUP2 LT ISZERO PUSH2 0x3664 JUMPI PUSH2 0x546E SWAP2 PUSH1 0x1 DUP3 ADD DUP2 SSTORE PUSH2 0x4C44 JUMP JUMPDEST DUP2 SWAP3 SWAP2 SLOAD SWAP1 PUSH1 0x3 SHL SWAP2 PUSH1 0x1 DUP1 PUSH1 0xA0 SHL SUB DUP1 SWAP2 AND DUP4 SHL SWAP3 SHL NOT AND OR SWAP1 SSTORE JUMP JUMPDEST ISZERO PUSH2 0x5493 JUMPI JUMP JUMPDEST PUSH1 0x40 MLOAD PUSH3 0x461BCD PUSH1 0xE5 SHL DUP2 MSTORE PUSH1 0x20 PUSH1 0x4 DUP3 ADD MSTORE PUSH1 0x29 PUSH1 0x24 DUP3 ADD MSTORE PUSH32 0x45503A20537570706F727420616D6F756E74206D757374206265206772656174 PUSH1 0x44 DUP3 ADD MSTORE PUSH9 0x6572207468616E203 PUSH1 0xBC SHL PUSH1 0x64 DUP3 ADD MSTORE PUSH1 0x84 SWAP1 REVERT JUMPDEST SWAP1 DUP2 MSTORE PUSH1 0x1 PUSH1 0x1 PUSH1 0xA0 SHL SUB SWAP2 DUP3 AND PUSH1 0x20 DUP3 ADD MSTORE SWAP2 AND PUSH1 0x40 DUP3 ADD MSTORE PUSH1 0x60 DUP2 ADD SWAP2 SWAP1 SWAP2 MSTORE PUSH1 0x80 ADD SWAP1 JUMP JUMPDEST ISZERO PUSH2 0x5519 JUMPI JUMP JUMPDEST PUSH1 0x40 MLOAD PUSH3 0x461BCD PUSH1 0xE5 SHL DUP2 MSTORE PUSH1 0x20 PUSH1 0x4 DUP3 ADD MSTORE PUSH1 0x1A PUSH1 0x24 DUP3 ADD MSTORE PUSH26 0x45503A204E6F20737570706F727420746F207769746864726177 PUSH1 0x30 SHL PUSH1 0x44 DUP3 ADD MSTORE PUSH1 0x64 SWAP1 REVERT JUMPDEST SWAP1 DUP2 MSTORE PUSH1 0x1 PUSH1 0x1 PUSH1 0xA0 SHL SUB SWAP2 DUP3 AND PUSH1 0x20 DUP3 ADD MSTORE SWAP2 AND PUSH1 0x40 DUP3 ADD MSTORE PUSH1 0x60 ADD SWAP1 JUMP JUMPDEST ISZERO PUSH2 0x5582 JUMPI JUMP JUMPDEST PUSH1 0x40 MLOAD PUSH3 0x461BCD PUSH1 0xE5 SHL DUP2 MSTORE PUSH1 0x20 PUSH1 0x4 DUP3 ADD MSTORE PUSH1 0xD PUSH1 0x24 DUP3 ADD MSTORE PUSH13 0x11540E88139BDD08195B991959 PUSH1 0x9A SHL PUSH1 0x44 DUP3 ADD MSTORE PUSH1 0x64 SWAP1 REVERT JUMPDEST ISZERO PUSH2 0x55BE JUMPI JUMP JUMPDEST PUSH1 0x40 MLOAD PUSH3 0x461BCD PUSH1 0xE5 SHL DUP2 MSTORE PUSH1 0x20 PUSH1 0x4 DUP3 ADD MSTORE PUSH1 0xC PUSH1 0x24 DUP3 ADD MSTORE PUSH12 0x11540E8814995CDBDB1D9959 PUSH1 0xA2 SHL PUSH1 0x44 DUP3 ADD MSTORE PUSH1 0x64 SWAP1 REVERT JUMPDEST MLOAD SWAP1 PUSH1 0x1 PUSH1 0x1 PUSH1 0x50 SHL SUB DUP3 AND DUP3 SUB PUSH2 0x848 JUMPI JUMP JUMPDEST ISZERO PUSH2 0x560D JUMPI JUMP JUMPDEST PUSH1 0x40 MLOAD PUSH3 0x461BCD PUSH1 0xE5 SHL DUP2 MSTORE PUSH1 0x20 PUSH1 0x4 DUP3 ADD MSTORE PUSH1 0xB PUSH1 0x24 DUP3 ADD MSTORE PUSH11 0x45503A204E6F7420554D41 PUSH1 0xA8 SHL PUSH1 0x44 DUP3 ADD MSTORE PUSH1 0x64 SWAP1 REVERT JUMPDEST ISZERO PUSH2 0x5647 JUMPI JUMP JUMPDEST PUSH1 0x40 MLOAD PUSH3 0x461BCD PUSH1 0xE5 SHL DUP2 MSTORE PUSH1 0x20 PUSH1 0x4 DUP3 ADD MSTORE PUSH1 0x10 PUSH1 0x24 DUP3 ADD MSTORE PUSH16 0x11540E88139BDD081C995CDBDB1D9959 PUSH1 0x82 SHL PUSH1 0x44 DUP3 ADD MSTORE PUSH1 0x64 SWAP1 REVERT JUMPDEST ISZERO PUSH2 0x5686 JUMPI JUMP JUMPDEST PUSH1 0x40 MLOAD PUSH3 0x461BCD PUSH1 0xE5 SHL DUP2 MSTORE PUSH1 0x20 PUSH1 0x4 DUP3 ADD MSTORE PUSH1 0xD PUSH1 0x24 DUP3 ADD MSTORE PUSH13 0x22A81D102737903BB4B73732B9 PUSH1 0x99 SHL PUSH1 0x44 DUP3 ADD MSTORE PUSH1 0x64 SWAP1 REVERT JUMPDEST SWAP1 DUP2 MSTORE PUSH1 0x20 DUP2 ADD SWAP2 SWAP1 SWAP2 MSTORE PUSH1 0x1 PUSH1 0x1 PUSH1 0xA0 SHL SUB SWAP1 SWAP2 AND PUSH1 0x40 DUP3 ADD MSTORE PUSH1 0x60 ADD SWAP1 JUMP JUMPDEST DUP2 ISZERO PUSH2 0x56E6 JUMPI DIV SWAP1 JUMP JUMPDEST PUSH4 0x4E487B71 PUSH1 0xE0 SHL PUSH1 0x0 MSTORE PUSH1 0x12 PUSH1 0x4 MSTORE PUSH1 0x24 PUSH1 0x0 REVERT JUMPDEST SWAP1 PUSH2 0x5740 PUSH1 0x0 DUP1 MLOAD PUSH1 0x20 PUSH2 0x5E7A DUP4 CODECOPY DUP2 MLOAD SWAP2 MSTORE SWAP2 DUP4 PUSH1 0x0 MSTORE PUSH1 0x1 PUSH1 0x20 MSTORE PUSH1 0xC PUSH1 0x40 PUSH1 0x0 KECCAK256 ADD PUSH1 0x3 PUSH1 0xFF NOT DUP3 SLOAD AND OR SWAP1 SSTORE PUSH1 0x40 MLOAD SWAP2 DUP3 SWAP2 PUSH1 0x20 DUP4 MSTORE PUSH1 0x20 DUP4 ADD SWAP1 PUSH2 0x4C7F JUMP JUMPDEST SUB SWAP1 LOG2 JUMP JUMPDEST PUSH1 0x1 PUSH1 0x1 PUSH1 0xA0 SHL SUB SWAP1 SWAP2 AND DUP2 MSTORE PUSH1 0x20 DUP2 ADD SWAP2 SWAP1 SWAP2 MSTORE PUSH1 0x40 ADD SWAP1 JUMP JUMPDEST PUSH1 0x0 SWAP1 DUP1 DUP3 MSTORE PUSH1 0x20 PUSH1 0x1 DUP2 MSTORE PUSH1 0x40 SWAP2 DUP3 DUP5 KECCAK256 SWAP1 DUP5 SWAP2 PUSH1 0x1 PUSH1 0x3 DUP3 ADD SLOAD PUSH1 0xD DUP4 ADD SLOAD SWAP2 JUMPDEST DUP2 DUP2 GT ISZERO PUSH2 0x5B7B JUMPI POP POP PUSH1 0x7 SLOAD PUSH1 0x4 DUP4 DUP2 ADD DUP1 SLOAD DUP10 MLOAD PUSH4 0x4F44289D PUSH1 0xE0 SHL DUP2 MSTORE PUSH1 0x1 PUSH1 0x1 PUSH1 0xA0 SHL SUB SWAP10 SWAP3 SWAP9 SWAP4 SWAP8 SWAP3 SWAP5 DUP11 AND SWAP4 SWAP2 DUP11 AND SWAP3 SWAP2 DUP6 DUP3 DUP1 PUSH2 0x57CA DUP8 DUP8 DUP4 DUP16 ADD PUSH2 0x520F JUMP JUMPDEST SUB DUP2 DUP9 GAS STATICCALL SWAP2 DUP3 ISZERO PUSH2 0x5B71 JUMPI SWAP2 DUP10 SWAP2 DUP14 SWAP8 SWAP7 SWAP6 SWAP5 SWAP4 DUP16 SWAP3 PUSH2 0x5B2E JUMPI JUMPDEST POP SWAP2 PUSH2 0x5810 DUP6 PUSH2 0x57F8 DUP7 SWAP5 DUP11 SWAP7 PUSH2 0x50C3 JUMP JUMPDEST SWAP10 MLOAD PUSH4 0xDC4CE349 PUSH1 0xE0 SHL DUP2 MSTORE SWAP11 DUP12 SWAP5 DUP6 SWAP5 DUP6 ADD PUSH2 0x56BB JUMP JUMPDEST SUB DUP2 DUP7 GAS STATICCALL SWAP6 DUP7 ISZERO PUSH2 0x5AF1 JUMPI DUP13 SWAP7 PUSH2 0x5AFB JUMPI JUMPDEST POP DUP4 DUP3 PUSH2 0x5843 SWAP3 DUP14 MLOAD SWAP4 DUP5 SWAP3 DUP4 SWAP3 PUSH4 0x3D1E7BA1 PUSH1 0xE1 SHL DUP5 MSTORE DUP14 DUP5 ADD PUSH2 0x520F JUMP JUMPDEST SUB DUP2 DUP7 GAS STATICCALL SWAP4 DUP5 ISZERO PUSH2 0x5AF1 JUMPI DUP13 SWAP5 PUSH2 0x5AC1 JUMPI JUMPDEST POP POP PUSH2 0x15E SWAP4 DUP5 DUP5 MUL DUP5 ISZERO SWAP6 DUP6 DUP3 DIV EQ DUP7 OR ISZERO PUSH2 0x5AAE JUMPI PUSH2 0x2710 DUP1 SWAP2 DIV SWAP6 PUSH2 0x1F4 SWAP1 DUP2 DUP8 MUL SWAP2 DUP8 DUP4 DIV EQ OR ISZERO PUSH2 0x5A9B JUMPI DIV SWAP6 PUSH2 0x599D JUMPI POP POP POP PUSH2 0x58A3 SWAP1 PUSH2 0x589D DUP5 DUP5 PUSH2 0x50C3 JUMP JUMPDEST SWAP1 PUSH2 0x5384 JUMP JUMPDEST SWAP3 DUP2 PUSH2 0x5930 JUMPI JUMPDEST POP POP SWAP1 PUSH2 0x58B6 SWAP2 PUSH2 0x50C3 JUMP JUMPDEST SWAP3 DUP4 PUSH2 0x58C5 JUMPI JUMPDEST POP POP POP POP POP POP JUMP JUMPDEST DUP1 PUSH1 0x7 SLOAD AND SWAP3 SLOAD AND SWAP1 DUP3 EXTCODESIZE ISZERO PUSH2 0xB94 JUMPI SWAP2 DUP5 SWAP4 SWAP2 DUP7 DUP1 SWAP5 PUSH2 0x58F9 SWAP8 MLOAD SWAP8 DUP9 SWAP6 DUP7 SWAP5 DUP6 SWAP4 PUSH4 0xF0824F33 PUSH1 0xE0 SHL DUP6 MSTORE DUP5 ADD PUSH2 0x5745 JUMP JUMPDEST SUB SWAP3 GAS CALL SWAP1 DUP2 ISZERO PUSH2 0x5927 JUMPI POP PUSH2 0x5913 JUMPI JUMPDEST DUP1 DUP1 DUP1 DUP1 PUSH2 0x58BD JUMP JUMPDEST PUSH2 0x591D DUP3 SWAP2 PUSH2 0x4E16 JUMP JUMPDEST PUSH2 0x2C2 JUMPI DUP1 PUSH2 0x590A JUMP JUMPDEST MLOAD RETURNDATASIZE DUP5 DUP3 RETURNDATACOPY RETURNDATASIZE SWAP1 REVERT JUMPDEST DUP7 DUP1 PUSH1 0x7 SLOAD AND SWAP2 SLOAD AND DUP8 DUP8 SLOAD AND SWAP1 DUP3 EXTCODESIZE ISZERO PUSH2 0x5999 JUMPI SWAP2 PUSH2 0x5969 SWAP4 SWAP2 DUP12 DUP1 SWAP5 DUP13 MLOAD SWAP7 DUP8 SWAP6 DUP7 SWAP5 DUP6 SWAP4 PUSH4 0x112CD223 PUSH1 0xE0 SHL DUP6 MSTORE DUP14 DUP6 ADD PUSH2 0x524C JUMP JUMPDEST SUB SWAP3 GAS CALL DUP1 ISZERO PUSH2 0x598F JUMPI SWAP1 DUP9 SWAP2 ISZERO PUSH2 0x58AA JUMPI PUSH2 0x5984 SWAP1 PUSH2 0x4E16 JUMP JUMPDEST PUSH2 0x215E JUMPI DUP7 CODESIZE PUSH2 0x58AA JUMP JUMPDEST DUP8 MLOAD RETURNDATASIZE DUP11 DUP3 RETURNDATACOPY RETURNDATASIZE SWAP1 REVERT JUMPDEST DUP11 DUP1 REVERT JUMPDEST SWAP1 SWAP3 POP SWAP8 SWAP5 SWAP1 SWAP3 SWAP4 SWAP8 PUSH2 0x59B7 JUMPI JUMPDEST POP POP POP POP POP POP POP POP POP POP JUMP JUMPDEST DUP5 SWAP1 DUP5 PUSH2 0x5A35 JUMPI JUMPDEST POP POP POP POP POP DUP4 PUSH2 0x59D3 JUMPI JUMPDEST DUP1 DUP1 DUP1 DUP1 PUSH2 0x59AB JUMP JUMPDEST DUP1 PUSH1 0x7 SLOAD AND SWAP3 SLOAD AND SWAP1 DUP3 EXTCODESIZE ISZERO PUSH2 0xB94 JUMPI SWAP2 DUP5 SWAP4 SWAP2 DUP7 DUP1 SWAP5 PUSH2 0x5A07 SWAP8 MLOAD SWAP8 DUP9 SWAP6 DUP7 SWAP5 DUP6 SWAP4 PUSH4 0x48FEF595 PUSH1 0xE0 SHL DUP6 MSTORE DUP5 ADD PUSH2 0x5745 JUMP JUMPDEST SUB SWAP3 GAS CALL SWAP1 DUP2 ISZERO PUSH2 0x5927 JUMPI POP PUSH2 0x5A21 JUMPI JUMPDEST DUP1 DUP1 DUP1 DUP1 PUSH2 0x59CA JUMP JUMPDEST PUSH2 0x5A2B DUP3 SWAP2 PUSH2 0x4E16 JUMP JUMPDEST PUSH2 0x2C2 JUMPI DUP1 PUSH2 0x5A18 JUMP JUMPDEST SLOAD AND DUP3 EXTCODESIZE ISZERO PUSH2 0x5A97 JUMPI SWAP2 PUSH2 0x5A62 SWAP4 SWAP2 DUP11 DUP1 SWAP5 DUP12 MLOAD SWAP7 DUP8 SWAP6 DUP7 SWAP5 DUP6 SWAP4 PUSH4 0x112CD223 PUSH1 0xE0 SHL DUP6 MSTORE DUP13 DUP6 ADD PUSH2 0x524C JUMP JUMPDEST SUB SWAP3 GAS CALL DUP1 ISZERO PUSH2 0x5A8D JUMPI PUSH2 0x5A7A JUMPI JUMPDEST DUP1 DUP1 DUP4 DUP2 PUSH2 0x59BF JUMP JUMPDEST PUSH2 0x5A86 SWAP1 SWAP7 SWAP2 SWAP7 PUSH2 0x4E16 JUMP JUMPDEST SWAP5 CODESIZE PUSH2 0x5A71 JUMP JUMPDEST DUP7 MLOAD RETURNDATASIZE DUP10 DUP3 RETURNDATACOPY RETURNDATASIZE SWAP1 REVERT JUMPDEST DUP10 DUP1 REVERT JUMPDEST PUSH4 0x4E487B71 PUSH1 0xE0 SHL DUP15 MSTORE PUSH1 0x11 DUP11 MSTORE PUSH1 0x24 DUP15 REVERT JUMPDEST PUSH4 0x4E487B71 PUSH1 0xE0 SHL DUP14 MSTORE PUSH1 0x11 DUP10 MSTORE PUSH1 0x24 DUP14 REVERT JUMPDEST SWAP1 DUP1 SWAP3 SWAP5 POP DUP2 RETURNDATASIZE DUP4 GT PUSH2 0x5AEA JUMPI JUMPDEST PUSH2 0x5AD9 DUP2 DUP4 PUSH2 0x4E60 JUMP JUMPDEST DUP2 ADD SUB SLT PUSH2 0x5999 JUMPI MLOAD SWAP2 CODESIZE DUP1 PUSH2 0x5856 JUMP JUMPDEST POP RETURNDATASIZE PUSH2 0x5ACF JUMP JUMPDEST DUP12 MLOAD RETURNDATASIZE DUP15 DUP3 RETURNDATACOPY RETURNDATASIZE SWAP1 REVERT JUMPDEST SWAP1 SWAP6 POP DUP4 DUP2 DUP2 RETURNDATASIZE DUP4 GT PUSH2 0x5B27 JUMPI JUMPDEST PUSH2 0x5B13 DUP2 DUP4 PUSH2 0x4E60 JUMP JUMPDEST DUP2 ADD SUB SLT PUSH2 0x5B23 JUMPI MLOAD SWAP5 DUP4 PUSH2 0x5823 JUMP JUMPDEST DUP12 DUP1 REVERT JUMPDEST POP RETURNDATASIZE PUSH2 0x5B09 JUMP JUMPDEST SWAP3 POP SWAP3 SWAP4 SWAP5 SWAP6 SWAP7 POP POP DUP6 DUP2 DUP2 RETURNDATASIZE DUP4 GT PUSH2 0x5B6A JUMPI JUMPDEST PUSH2 0x5B4C DUP2 DUP4 PUSH2 0x4E60 JUMP JUMPDEST DUP2 ADD SUB SLT PUSH2 0x5B66 JUMPI MLOAD DUP12 SWAP6 SWAP5 SWAP4 SWAP3 SWAP2 DUP10 SWAP2 SWAP1 PUSH2 0x5810 PUSH2 0x57E6 JUMP JUMPDEST DUP13 DUP1 REVERT JUMPDEST POP RETURNDATASIZE PUSH2 0x5B42 JUMP JUMPDEST DUP13 MLOAD RETURNDATASIZE DUP16 DUP3 RETURNDATACOPY RETURNDATASIZE SWAP1 REVERT JUMPDEST DUP3 DUP2 SUB PUSH2 0x5B91 JUMPI JUMPDEST PUSH2 0x5B8C SWAP1 PUSH2 0x50D0 JUMP JUMPDEST PUSH2 0x5783 JUMP JUMPDEST SWAP5 DUP8 DUP8 DUP8 PUSH1 0x1 DUP1 PUSH1 0xA0 SHL SUB DUP9 DUP2 PUSH1 0x7 SLOAD AND SWAP2 PUSH2 0x5BC8 PUSH1 0x4 SWAP2 DUP3 DUP13 ADD SLOAD AND SWAP7 MLOAD SWAP7 DUP8 SWAP6 DUP7 SWAP5 DUP6 SWAP5 PUSH4 0xDC4CE349 PUSH1 0xE0 SHL DUP7 MSTORE DUP6 ADD PUSH2 0x56BB JUMP JUMPDEST SUB SWAP2 GAS STATICCALL SWAP1 DUP2 ISZERO PUSH2 0x5C1F JUMPI DUP11 SWAP2 PUSH2 0x5BF0 JUMPI JUMPDEST POP PUSH2 0x5BE8 SWAP1 PUSH2 0x5B8C SWAP3 PUSH2 0x50C3 JUMP JUMPDEST SWAP6 SWAP1 POP PUSH2 0x5B83 JUMP JUMPDEST SWAP1 POP DUP8 DUP2 DUP2 RETURNDATASIZE DUP4 GT PUSH2 0x5C18 JUMPI JUMPDEST PUSH2 0x5C07 DUP2 DUP4 PUSH2 0x4E60 JUMP JUMPDEST DUP2 ADD SUB SLT PUSH2 0x5A97 JUMPI MLOAD PUSH2 0x5B8C PUSH2 0x5BDA JUMP JUMPDEST POP RETURNDATASIZE PUSH2 0x5BFD JUMP JUMPDEST DUP10 MLOAD RETURNDATASIZE DUP13 DUP3 RETURNDATACOPY RETURNDATASIZE SWAP1 REVERT JUMPDEST PUSH1 0x0 JUMPDEST PUSH1 0xA SWAP1 DUP2 SLOAD SWAP2 DUP3 DUP3 LT ISZERO PUSH2 0x5CDE JUMPI DUP4 SWAP3 PUSH2 0x5C45 DUP4 PUSH2 0x4C13 JUMP JUMPDEST SWAP5 SWAP1 SLOAD PUSH1 0x3 SWAP6 DUP7 SHL SHR EQ PUSH2 0x5C64 JUMPI POP POP PUSH2 0x5C5F SWAP2 POP PUSH2 0x50D0 JUMP JUMPDEST PUSH2 0x5C2C JUMP JUMPDEST SWAP1 SWAP2 PUSH1 0x0 NOT SWAP2 DUP3 DUP2 ADD SWAP1 DUP2 GT PUSH2 0x50AD JUMPI PUSH2 0x3245 PUSH2 0x5C83 PUSH2 0x5C8F SWAP3 PUSH2 0x4C13 JUMP JUMPDEST SWAP1 SLOAD SWAP1 DUP8 SHL SHR SWAP3 PUSH2 0x4C13 JUMP JUMPDEST SWAP1 SSTORE DUP2 SLOAD DUP1 ISZERO PUSH2 0x5CC8 JUMPI DUP2 ADD SWAP3 PUSH2 0x5CA5 DUP5 PUSH2 0x4C13 JUMP JUMPDEST DUP2 SWAP4 SWAP2 SLOAD SWAP3 SHL SHL NOT AND SWAP1 SSTORE SSTORE PUSH1 0x0 MSTORE PUSH1 0xB PUSH1 0x20 MSTORE PUSH1 0x40 PUSH1 0x0 KECCAK256 PUSH1 0xFF NOT DUP2 SLOAD AND SWAP1 SSTORE JUMP JUMPDEST PUSH4 0x4E487B71 PUSH1 0xE0 SHL PUSH1 0x0 MSTORE PUSH1 0x31 PUSH1 0x4 MSTORE PUSH1 0x24 PUSH1 0x0 REVERT JUMPDEST POP POP POP POP JUMP JUMPDEST ISZERO PUSH2 0x5CEB JUMPI JUMP JUMPDEST PUSH1 0x40 MLOAD PUSH3 0x461BCD PUSH1 0xE5 SHL DUP2 MSTORE PUSH1 0x20 PUSH1 0x4 DUP3 ADD MSTORE PUSH1 0x15 PUSH1 0x24 DUP3 ADD MSTORE PUSH21 0x22A81D1027B7363C9020B236B4B726B0B730B3B2B9 PUSH1 0x59 SHL PUSH1 0x44 DUP3 ADD MSTORE PUSH1 0x64 SWAP1 REVERT JUMPDEST ISZERO PUSH2 0x5D2F JUMPI JUMP JUMPDEST PUSH1 0x40 MLOAD PUSH3 0x461BCD PUSH1 0xE5 SHL DUP2 MSTORE PUSH1 0x20 PUSH1 0x4 DUP3 ADD MSTORE PUSH1 0xA PUSH1 0x24 DUP3 ADD MSTORE PUSH10 0x11540E88109859081251 PUSH1 0xB2 SHL PUSH1 0x44 DUP3 ADD MSTORE PUSH1 0x64 SWAP1 REVERT JUMPDEST ISZERO PUSH2 0x5D68 JUMPI JUMP JUMPDEST PUSH1 0x40 MLOAD PUSH3 0x461BCD PUSH1 0xE5 SHL DUP2 MSTORE PUSH1 0x20 PUSH1 0x4 DUP3 ADD MSTORE PUSH1 0xD PUSH1 0x24 DUP3 ADD MSTORE PUSH13 0x11540E88139BC81B585C9AD95D PUSH1 0x9A SHL PUSH1 0x44 DUP3 ADD MSTORE PUSH1 0x64 SWAP1 REVERT JUMPDEST ISZERO PUSH2 0x5DA4 JUMPI JUMP JUMPDEST PUSH1 0x40 MLOAD PUSH3 0x461BCD PUSH1 0xE5 SHL DUP2 MSTORE PUSH1 0x20 PUSH1 0x4 DUP3 ADD MSTORE PUSH1 0x1A PUSH1 0x24 DUP3 ADD MSTORE PUSH26 0x45503A20496E76616C69642046696E6465722061646472657373 PUSH1 0x30 SHL PUSH1 0x44 DUP3 ADD MSTORE PUSH1 0x64 SWAP1 REVERT JUMPDEST PUSH1 0x40 MLOAD SWAP1 PUSH2 0x5DF3 DUP3 PUSH2 0x4E29 JUMP JUMPDEST DUP2 PUSH2 0x260 PUSH1 0x0 SWAP2 DUP3 DUP2 MSTORE PUSH1 0x60 PUSH1 0x20 DUP3 ADD MSTORE DUP3 PUSH1 0x40 DUP3 ADD MSTORE DUP3 PUSH1 0x60 DUP3 ADD MSTORE DUP3 PUSH1 0x80 DUP3 ADD MSTORE DUP3 PUSH1 0xA0 DUP3 ADD MSTORE DUP3 PUSH1 0xC0 DUP3 ADD MSTORE DUP3 PUSH1 0xE0 DUP3 ADD MSTORE DUP3 PUSH2 0x100 DUP3 ADD MSTORE DUP3 PUSH2 0x120 DUP3 ADD MSTORE DUP3 PUSH2 0x140 DUP3 ADD MSTORE DUP3 PUSH2 0x160 DUP3 ADD MSTORE DUP3 PUSH2 0x180 DUP3 ADD MSTORE DUP3 PUSH2 0x1A0 DUP3 ADD MSTORE DUP3 PUSH2 0x1C0 DUP3 ADD MSTORE DUP3 PUSH2 0x1E0 DUP3 ADD MSTORE DUP3 PUSH2 0x200 DUP3 ADD MSTORE DUP3 PUSH2 0x220 DUP3 ADD MSTORE DUP3 PUSH2 0x240 DUP3 ADD MSTORE ADD MSTORE JUMP INVALID 0x4C GASLIMIT PUSH2 0xC5B0 DIV DUP5 0x24 SMOD SHR GT ISZERO 0xE9 CALL 0xE3 0x25 BASEFEE PUSH15 0x21C21333D968F21097B7B72D12AD8B 0xE0 SMOD SWAP13 MSTORE8 AND MSIZE EQ SGT PREVRANDAO 0xCD 0x1F 0xD0 LOG4 CALLCODE DUP5 NOT 0x49 PUSH32 0x9722A3DAAFE3B4186F6B6457E06DFC24F0F2FB42E49FB4FA3FFA8ABB148CAB90 DUP11 0x1F 0xB8 CALLER JUMPDEST EXTCODEHASH SLT DUP11 ADDMOD 0xB2 MSIZE 0x4A CALL 0xE1 0xF 0xDD 0xE2 0xC5 0xCD SWAP12 SWAP3 0xE4 0x49 0xEE 0x25 0xDF ADD INVALID 0xBD LOG2 0xCB 0xEB 0xC5 SSTORE RETURNDATACOPY CODESIZE CALLCODE 0x25 0xF INVALID PUSH32 0x2D5143BCA164736F6C6343000814000A00000000000000000000000000000000 "},"methodIdentifiers":{"CREATOR_FEE_BPS()":"cc3cbd2a","PLATFORM_FEE_BPS()":"539aa77f","activeMarkets(uint256)":"3adfe6d0","adminManager()":"a210b6a4","calculateWinnings(uint256,address)":"f15cc406","cancelMarket(uint256)":"7c16cd9e","claimRefund(uint256)":"5b7baf64","claimWinnings(uint256)":"677bd9ff","createMarket(string,bool,uint256,address,uint256,uint256,uint256,uint256,uint256,uint8,address,uint256)":"66cf7ed4","creatorCancelMarket(uint256)":"c3436e0c","defaultBond()":"8333cb06","defaultBondCurrency()":"209c1c94","defaultIdentifier()":"d509b017","defaultLiveness()":"fe4e1983","endMarket(uint256)":"157bdcce","finder()":"b9a3c84c","getMarket(uint256)":"eb44fdd3","getMarketInfo(uint256)":"3ec79193","getMarketStakers(uint256)":"6f59359e","getNextMarketId()":"fe53a6e8","getOptionPool(uint256,uint256,address)":"dc4ce349","getStakerCount(uint256)":"0ccf4467","getSupportPool(uint256,address)":"4f44289d","getSupporterCount(uint256)":"a30a0914","getTotalPool(uint256,address)":"f00fe321","getUserStake(uint256,address,address)":"847cf782","getUserSupport(uint256,address,address)":"256ba741","isActiveMarket(uint256)":"0d64cdbd","markMarketDeleted(uint256)":"fb87f2c3","markMarketPermanentlyRemoved(uint256)":"e0bd4acc","marketCreationFee()":"2ef1bdfa","marketStakers(uint256,uint256)":"d5f82707","marketSupporters(uint256,uint256)":"c22c62c3","markets(uint256)":"b1283e77","nextMarketId()":"406ef2ef","optimisticOracle()":"22302922","owner()":"8da5cb5b","placeStake(uint256,uint256)":"f4867591","placeStakeWithToken(uint256,uint256,uint256)":"f1b7dde3","renounceOwnership()":"715018a6","requestUMAResolution(uint256,bytes)":"5e9a34e8","resolvePriceFeedMarket(uint256)":"9a3a40d6","setAdminManager(address)":"bc160758","setDefaultBond(address,uint256)":"d70e9910","setDefaultIdentifier(bytes32)":"9300b5c2","setDefaultLiveness(uint64)":"7e644a5f","setFinder(address)":"8053ec7b","setFinderOnly(address)":"42e5bd25","setOptimisticOracle(address)":"bf5c3252","settleUMAMarket(uint256,uint256)":"78505266","supportMarket(uint256,uint256)":"f204072f","transferOwnership(address)":"f2fde38b","treasury()":"61d027b3","userHasStaked(uint256,address)":"304bf1f1","userHasSupported(uint256,address)":"287f57b5","userMarketHistory(address,uint256)":"98a17671","userStakeOptions(uint256,address)":"d8c5dd67","withdrawSupport(uint256)":"3e32a76c"}}}}}