{
  "_format": "hh-sol-artifact-1",
  "contractName": "PoolVault",
  "sourceName": "contracts/P2PTreasury.sol",
  "abi": [
    {
      "inputs": [
        {
          "internalType": "address",
          "name": "initialOwner",
          "type": "address"
        },
        {
          "internalType": "address",
          "name": "_partner",
          "type": "address"
        }
      ],
      "stateMutability": "nonpayable",
      "type": "constructor"
    },
    {
      "inputs": [
        {
          "internalType": "address",
          "name": "owner",
          "type": "address"
        }
      ],
      "name": "OwnableInvalidOwner",
      "type": "error"
    },
    {
      "inputs": [
        {
          "internalType": "address",
          "name": "account",
          "type": "address"
        }
      ],
      "name": "OwnableUnauthorizedAccount",
      "type": "error"
    },
    {
      "inputs": [
        {
          "internalType": "address",
          "name": "token",
          "type": "address"
        }
      ],
      "name": "SafeERC20FailedOperation",
      "type": "error"
    },
    {
      "anonymous": false,
      "inputs": [
        {
          "indexed": true,
          "internalType": "address",
          "name": "contractAddr",
          "type": "address"
        }
      ],
      "name": "ContractAuthorized",
      "type": "event"
    },
    {
      "anonymous": false,
      "inputs": [
        {
          "indexed": true,
          "internalType": "address",
          "name": "contractAddr",
          "type": "address"
        }
      ],
      "name": "ContractDeauthorized",
      "type": "event"
    },
    {
      "anonymous": false,
      "inputs": [
        {
          "indexed": true,
          "internalType": "address",
          "name": "token",
          "type": "address"
        },
        {
          "indexed": false,
          "internalType": "uint256",
          "name": "platformAmount",
          "type": "uint256"
        },
        {
          "indexed": false,
          "internalType": "uint256",
          "name": "partnerAmount",
          "type": "uint256"
        }
      ],
      "name": "FeesDistributed",
      "type": "event"
    },
    {
      "anonymous": false,
      "inputs": [
        {
          "indexed": true,
          "internalType": "address",
          "name": "token",
          "type": "address"
        },
        {
          "indexed": false,
          "internalType": "uint256",
          "name": "amount",
          "type": "uint256"
        },
        {
          "indexed": true,
          "internalType": "address",
          "name": "to",
          "type": "address"
        }
      ],
      "name": "FundsWithdrawn",
      "type": "event"
    },
    {
      "anonymous": false,
      "inputs": [
        {
          "indexed": true,
          "internalType": "address",
          "name": "oldManager",
          "type": "address"
        },
        {
          "indexed": true,
          "internalType": "address",
          "name": "newManager",
          "type": "address"
        }
      ],
      "name": "MarketManagerUpdated",
      "type": "event"
    },
    {
      "anonymous": false,
      "inputs": [
        {
          "indexed": true,
          "internalType": "address",
          "name": "previousOwner",
          "type": "address"
        },
        {
          "indexed": true,
          "internalType": "address",
          "name": "newOwner",
          "type": "address"
        }
      ],
      "name": "OwnershipTransferred",
      "type": "event"
    },
    {
      "anonymous": false,
      "inputs": [
        {
          "indexed": true,
          "internalType": "address",
          "name": "oldPartner",
          "type": "address"
        },
        {
          "indexed": true,
          "internalType": "address",
          "name": "newPartner",
          "type": "address"
        }
      ],
      "name": "PartnerUpdated",
      "type": "event"
    },
    {
      "inputs": [],
      "name": "PARTNER_FEE_BPS",
      "outputs": [
        {
          "internalType": "uint256",
          "name": "",
          "type": "uint256"
        }
      ],
      "stateMutability": "view",
      "type": "function"
    },
    {
      "inputs": [],
      "name": "PLATFORM_FEE_BPS",
      "outputs": [
        {
          "internalType": "uint256",
          "name": "",
          "type": "uint256"
        }
      ],
      "stateMutability": "view",
      "type": "function"
    },
    {
      "inputs": [
        {
          "internalType": "address",
          "name": "contractAddr",
          "type": "address"
        }
      ],
      "name": "authorizeContract",
      "outputs": [],
      "stateMutability": "nonpayable",
      "type": "function"
    },
    {
      "inputs": [
        {
          "internalType": "address",
          "name": "",
          "type": "address"
        }
      ],
      "name": "authorizedContracts",
      "outputs": [
        {
          "internalType": "bool",
          "name": "",
          "type": "bool"
        }
      ],
      "stateMutability": "view",
      "type": "function"
    },
    {
      "inputs": [
        {
          "internalType": "uint256",
          "name": "totalAmount",
          "type": "uint256"
        }
      ],
      "name": "calculateFees",
      "outputs": [
        {
          "internalType": "uint256",
          "name": "platformFee",
          "type": "uint256"
        },
        {
          "internalType": "uint256",
          "name": "partnerFee",
          "type": "uint256"
        }
      ],
      "stateMutability": "pure",
      "type": "function"
    },
    {
      "inputs": [
        {
          "internalType": "uint256",
          "name": "marketId",
          "type": "uint256"
        },
        {
          "internalType": "address",
          "name": "user",
          "type": "address"
        },
        {
          "internalType": "address",
          "name": "token",
          "type": "address"
        },
        {
          "internalType": "uint256",
          "name": "amount",
          "type": "uint256"
        }
      ],
      "name": "claimWinnings",
      "outputs": [],
      "stateMutability": "nonpayable",
      "type": "function"
    },
    {
      "inputs": [
        {
          "internalType": "address",
          "name": "contractAddr",
          "type": "address"
        }
      ],
      "name": "deauthorizeContract",
      "outputs": [],
      "stateMutability": "nonpayable",
      "type": "function"
    },
    {
      "inputs": [
        {
          "internalType": "address",
          "name": "token",
          "type": "address"
        },
        {
          "internalType": "uint256",
          "name": "totalAmount",
          "type": "uint256"
        }
      ],
      "name": "distributeFees",
      "outputs": [],
      "stateMutability": "nonpayable",
      "type": "function"
    },
    {
      "inputs": [
        {
          "internalType": "uint256",
          "name": "marketId",
          "type": "uint256"
        },
        {
          "internalType": "address",
          "name": "token",
          "type": "address"
        }
      ],
      "name": "getMarketPool",
      "outputs": [
        {
          "internalType": "uint256",
          "name": "",
          "type": "uint256"
        }
      ],
      "stateMutability": "view",
      "type": "function"
    },
    {
      "inputs": [
        {
          "internalType": "uint256",
          "name": "marketId",
          "type": "uint256"
        },
        {
          "internalType": "uint256",
          "name": "option",
          "type": "uint256"
        },
        {
          "internalType": "address",
          "name": "token",
          "type": "address"
        }
      ],
      "name": "getOptionPool",
      "outputs": [
        {
          "internalType": "uint256",
          "name": "",
          "type": "uint256"
        }
      ],
      "stateMutability": "view",
      "type": "function"
    },
    {
      "inputs": [
        {
          "internalType": "uint256",
          "name": "marketId",
          "type": "uint256"
        },
        {
          "internalType": "address",
          "name": "token",
          "type": "address"
        }
      ],
      "name": "getSupportPool",
      "outputs": [
        {
          "internalType": "uint256",
          "name": "",
          "type": "uint256"
        }
      ],
      "stateMutability": "view",
      "type": "function"
    },
    {
      "inputs": [
        {
          "internalType": "uint256",
          "name": "marketId",
          "type": "uint256"
        },
        {
          "internalType": "address",
          "name": "user",
          "type": "address"
        },
        {
          "internalType": "address",
          "name": "token",
          "type": "address"
        }
      ],
      "name": "getUserBet",
      "outputs": [
        {
          "internalType": "uint256",
          "name": "",
          "type": "uint256"
        }
      ],
      "stateMutability": "view",
      "type": "function"
    },
    {
      "inputs": [
        {
          "internalType": "uint256",
          "name": "marketId",
          "type": "uint256"
        },
        {
          "internalType": "address",
          "name": "user",
          "type": "address"
        },
        {
          "internalType": "address",
          "name": "token",
          "type": "address"
        }
      ],
      "name": "getUserSupport",
      "outputs": [
        {
          "internalType": "uint256",
          "name": "",
          "type": "uint256"
        }
      ],
      "stateMutability": "view",
      "type": "function"
    },
    {
      "inputs": [
        {
          "internalType": "uint256",
          "name": "marketId",
          "type": "uint256"
        },
        {
          "internalType": "address",
          "name": "user",
          "type": "address"
        }
      ],
      "name": "hasUserClaimed",
      "outputs": [
        {
          "internalType": "bool",
          "name": "",
          "type": "bool"
        }
      ],
      "stateMutability": "view",
      "type": "function"
    },
    {
      "inputs": [
        {
          "internalType": "uint256",
          "name": "marketId",
          "type": "uint256"
        },
        {
          "internalType": "address",
          "name": "user",
          "type": "address"
        }
      ],
      "name": "hasUserSupportClaimed",
      "outputs": [
        {
          "internalType": "bool",
          "name": "",
          "type": "bool"
        }
      ],
      "stateMutability": "view",
      "type": "function"
    },
    {
      "inputs": [],
      "name": "marketManager",
      "outputs": [
        {
          "internalType": "address",
          "name": "",
          "type": "address"
        }
      ],
      "stateMutability": "view",
      "type": "function"
    },
    {
      "inputs": [
        {
          "internalType": "uint256",
          "name": "",
          "type": "uint256"
        },
        {
          "internalType": "address",
          "name": "",
          "type": "address"
        }
      ],
      "name": "marketPools",
      "outputs": [
        {
          "internalType": "uint256",
          "name": "",
          "type": "uint256"
        }
      ],
      "stateMutability": "view",
      "type": "function"
    },
    {
      "inputs": [
        {
          "internalType": "uint256",
          "name": "",
          "type": "uint256"
        },
        {
          "internalType": "uint256",
          "name": "",
          "type": "uint256"
        },
        {
          "internalType": "address",
          "name": "",
          "type": "address"
        }
      ],
      "name": "optionPools",
      "outputs": [
        {
          "internalType": "uint256",
          "name": "",
          "type": "uint256"
        }
      ],
      "stateMutability": "view",
      "type": "function"
    },
    {
      "inputs": [],
      "name": "owner",
      "outputs": [
        {
          "internalType": "address",
          "name": "",
          "type": "address"
        }
      ],
      "stateMutability": "view",
      "type": "function"
    },
    {
      "inputs": [],
      "name": "partner",
      "outputs": [
        {
          "internalType": "address",
          "name": "",
          "type": "address"
        }
      ],
      "stateMutability": "view",
      "type": "function"
    },
    {
      "inputs": [
        {
          "internalType": "uint256",
          "name": "marketId",
          "type": "uint256"
        },
        {
          "internalType": "address",
          "name": "user",
          "type": "address"
        },
        {
          "internalType": "address",
          "name": "token",
          "type": "address"
        },
        {
          "internalType": "uint256",
          "name": "amount",
          "type": "uint256"
        },
        {
          "internalType": "uint256",
          "name": "option",
          "type": "uint256"
        }
      ],
      "name": "placeBet",
      "outputs": [],
      "stateMutability": "nonpayable",
      "type": "function"
    },
    {
      "inputs": [],
      "name": "renounceOwnership",
      "outputs": [],
      "stateMutability": "nonpayable",
      "type": "function"
    },
    {
      "inputs": [
        {
          "internalType": "address",
          "name": "_marketManager",
          "type": "address"
        }
      ],
      "name": "setMarketManager",
      "outputs": [],
      "stateMutability": "nonpayable",
      "type": "function"
    },
    {
      "inputs": [
        {
          "internalType": "address",
          "name": "_partner",
          "type": "address"
        }
      ],
      "name": "setPartner",
      "outputs": [],
      "stateMutability": "nonpayable",
      "type": "function"
    },
    {
      "inputs": [
        {
          "internalType": "uint256",
          "name": "marketId",
          "type": "uint256"
        },
        {
          "internalType": "address",
          "name": "user",
          "type": "address"
        },
        {
          "internalType": "address",
          "name": "token",
          "type": "address"
        },
        {
          "internalType": "uint256",
          "name": "amount",
          "type": "uint256"
        }
      ],
      "name": "supportMarket",
      "outputs": [],
      "stateMutability": "nonpayable",
      "type": "function"
    },
    {
      "inputs": [
        {
          "internalType": "uint256",
          "name": "",
          "type": "uint256"
        },
        {
          "internalType": "address",
          "name": "",
          "type": "address"
        }
      ],
      "name": "supportPools",
      "outputs": [
        {
          "internalType": "uint256",
          "name": "",
          "type": "uint256"
        }
      ],
      "stateMutability": "view",
      "type": "function"
    },
    {
      "inputs": [
        {
          "internalType": "address",
          "name": "newOwner",
          "type": "address"
        }
      ],
      "name": "transferOwnership",
      "outputs": [],
      "stateMutability": "nonpayable",
      "type": "function"
    },
    {
      "inputs": [
        {
          "internalType": "uint256",
          "name": "",
          "type": "uint256"
        },
        {
          "internalType": "address",
          "name": "",
          "type": "address"
        },
        {
          "internalType": "uint256",
          "name": "",
          "type": "uint256"
        }
      ],
      "name": "userBetOptions",
      "outputs": [
        {
          "internalType": "uint256",
          "name": "",
          "type": "uint256"
        }
      ],
      "stateMutability": "view",
      "type": "function"
    },
    {
      "inputs": [
        {
          "internalType": "uint256",
          "name": "",
          "type": "uint256"
        },
        {
          "internalType": "address",
          "name": "",
          "type": "address"
        },
        {
          "internalType": "address",
          "name": "",
          "type": "address"
        }
      ],
      "name": "userBets",
      "outputs": [
        {
          "internalType": "uint256",
          "name": "",
          "type": "uint256"
        }
      ],
      "stateMutability": "view",
      "type": "function"
    },
    {
      "inputs": [
        {
          "internalType": "uint256",
          "name": "",
          "type": "uint256"
        },
        {
          "internalType": "address",
          "name": "",
          "type": "address"
        }
      ],
      "name": "userClaimed",
      "outputs": [
        {
          "internalType": "bool",
          "name": "",
          "type": "bool"
        }
      ],
      "stateMutability": "view",
      "type": "function"
    },
    {
      "inputs": [
        {
          "internalType": "uint256",
          "name": "",
          "type": "uint256"
        },
        {
          "internalType": "address",
          "name": "",
          "type": "address"
        }
      ],
      "name": "userSupportClaimed",
      "outputs": [
        {
          "internalType": "bool",
          "name": "",
          "type": "bool"
        }
      ],
      "stateMutability": "view",
      "type": "function"
    },
    {
      "inputs": [
        {
          "internalType": "uint256",
          "name": "",
          "type": "uint256"
        },
        {
          "internalType": "address",
          "name": "",
          "type": "address"
        },
        {
          "internalType": "address",
          "name": "",
          "type": "address"
        }
      ],
      "name": "userSupports",
      "outputs": [
        {
          "internalType": "uint256",
          "name": "",
          "type": "uint256"
        }
      ],
      "stateMutability": "view",
      "type": "function"
    },
    {
      "inputs": [
        {
          "internalType": "address",
          "name": "token",
          "type": "address"
        },
        {
          "internalType": "uint256",
          "name": "amount",
          "type": "uint256"
        },
        {
          "internalType": "address",
          "name": "to",
          "type": "address"
        }
      ],
      "name": "withdraw",
      "outputs": [],
      "stateMutability": "nonpayable",
      "type": "function"
    },
    {
      "inputs": [
        {
          "internalType": "uint256",
          "name": "marketId",
          "type": "uint256"
        },
        {
          "internalType": "address",
          "name": "user",
          "type": "address"
        },
        {
          "internalType": "address",
          "name": "token",
          "type": "address"
        },
        {
          "internalType": "uint256",
          "name": "amount",
          "type": "uint256"
        }
      ],
      "name": "withdrawSupport",
      "outputs": [],
      "stateMutability": "nonpayable",
      "type": "function"
    },
    {
      "stateMutability": "payable",
      "type": "receive"
    }
  ],
  "bytecode": "0x6080346100d457601f6117d338819003918201601f19168301916001600160401b038311848410176100d95780849260409485528339810103126100d457610052602061004b836100ef565b92016100ef565b906001600160a01b039081169081156100bb576000549260018060a01b03199280848616176000558260405195167f8be0079c531659141344cd1fd0a4f28419497f9722a3daafe3b4186f6b6457e0600080a3169060015416176001556116cf90816101048239f35b604051631e4fbdf760e01b815260006004820152602490fd5b600080fd5b634e487b7160e01b600052604160045260246000fd5b51906001600160a01b03821682036100d45756fe60806040818152600480361015610021575b505050361561001f57600080fd5b005b600092833560e01c90816307c7a72d14611231575080631abf870514610832578063256ba741146110505780632f7c165e1461108f5780632ff44b6f14610cea57806334eba166146110505780633beb98421461100a57806341ed2c1214610fe157806341ee37d114610fc557806348fef59514610d775780634f44289d146107f157806352238fdd14610d4d578063539aa77f14610d30578063553b7cbb146106785780635d1c582014610cea5780635e0083da14610b9257806367561d9314610ad557806369328dec146109355780636e861c0e146108cf578063715018a6146108725780637a3cf742146108325780637de42634146107f15780638da5cb5b146107c9578063a16d596014610703578063a24693ed146106b7578063b90f9cb314610678578063be10862b1461064f578063c15d980714610533578063d5b9221b146104f5578063d82aff11146103eb578063dc4ce34914610229578063e014601c1461026b578063f133a04f146102295763f2fde38b036100115734610225576020366003190112610225576101b9611296565b906101c261135a565b6001600160a01b0391821692831561020f57505082546001600160a01b0319811683178455167f8be0079c531659141344cd1fd0a4f28419497f9722a3daafe3b4186f6b6457e08380a380f35b51631e4fbdf760e01b8152908101849052602490fd5b8280fd5b505034610267578060209261023d36611330565b9183526005865283832090835285528282206001600160a01b039091168252845220549051908152f35b5080fd5b509190346102675760a03660031901126102675782359061028a61127b565b936102936112ac565b9060643593608435903387526020926002845260ff86892054161561039f57861561035c5787988261035798995260078552868a209060018060a01b0380911691828c528652878b20961695868b528552868a206102f28a825461162f565b9055828a5260098552868a20908a528452858920838a52845285892061031989825461162f565b90558189528352848820848952835284882061033688825461162f565b9055875260058252838720908752815282862091865252832091825461162f565b905580f35b855162461bcd60e51b8152908101849052601c60248201527f54726561737572793a20496e76616c69642062657420616d6f756e74000000006044820152606490fd5b855162461bcd60e51b81529081018490526032602482015260008051602061167a8339815191526044820152716374732063616e20706c616365206265747360701b6064820152608490fd5b5082903461026757602036600319011261026757610407611296565b61040f61135a565b6001600160a01b039081169182156104a1575081929360035490836bffffffffffffffffffffffff60a01b83161760035583865260026020528520600160ff19825416179055167f6d5236c24f887cea37fd19d8fffc6c47b564af445baf220a6c7f9a58bb6ae04e8480a37f8983a1f3c3cb45c24c8226b5b805e3b6eb49686530b808534b2a920129eff6518280a280f35b608490602086519162461bcd60e51b8352820152602860248201527f54726561737572793a20496e76616c6964206d61726b6574206d616e61676572604482015267206164647265737360c01b6064820152fd5b5050346102675760203660031901126102675760209160ff9082906001600160a01b03610520611296565b1681526002855220541690519015158152f35b5091903461026757610544366112f7565b9392959091953386526020916002835260ff8588205416156105f85785156105b757508596816103579697526008835284882060018060a01b0380921689528352848820931692838852825283872061059e87825461162f565b905586526006815282862091865252832091825461162f565b606490838087519262461bcd60e51b845283015260248201527f54726561737572793a20496e76616c696420737570706f727420616d6f756e746044820152fd5b845162461bcd60e51b81529081018390526037602482015260008051602061167a83398151915260448201527f6374732063616e20737570706f7274206d61726b6574730000000000000000006064820152608490fd5b50503461026757816003193601126102675760015490516001600160a01b039091168152602090f35b505034610267578060209261068c366112c2565b918352600786528383206001600160a01b039182168452865283832091168252845220549051908152f35b50346102255760603660031901126102255760209282916106d661127b565b90358252600985528282206001600160a01b03909116825284528181206044358252845220549051908152f35b50346102255760203660031901126102255761071d611296565b9061072661135a565b6001600160a01b0391821692831561077c575050600154826bffffffffffffffffffffffff60a01b821617600155167fc853be2b3168a7fe00e46da23214c5345a752dc61cd3300d7f255f8ae55345878380a380f35b906020608492519162461bcd60e51b8352820152602160248201527f54726561737572793a20496e76616c696420706172746e6572206164647265736044820152607360f81b6064820152fd5b505034610267578160031936011261026757905490516001600160a01b039091168152602090f35b5034610225578160031936011261022557602092829161080f61127b565b90358252600685528282206001600160a01b039091168252845220549051908152f35b5034610225578160031936011261022557602092829161085061127b565b813583529085528282206001600160a01b039091168252845220549051908152f35b83346108cc57806003193601126108cc5761088b61135a565b80546001600160a01b03198116825581906001600160a01b03167f8be0079c531659141344cd1fd0a4f28419497f9722a3daafe3b4186f6b6457e08280a380f35b80fd5b505034610267576020366003190112610267576108ea611296565b6108f261135a565b6001600160a01b03168083526002602052908220805460ff191690557f54142b7cb3ceaa9e564243ce4cc2303723c842a1144192de6b3c594f68b16a9a8280a280f35b50346102255760603660031901126102255761094f611296565b9160243561095b6112ac565b9161096461135a565b6001600160a01b03838116958615610a92579087916109848515156113ce565b1694856109de5750906109d68280808695867fe9171aeff46c37ab955b8aff908e14ae9732bd06634fa131226cfe5c25bfd2fb996109c660209a4710156114aa565b5af16109d0611501565b506115e3565b51908152a380f35b90508151906370a0823160e01b82523090820152602081602481885afa908115610a88578791610a4b575b5090610a46837fe9171aeff46c37ab955b8aff908e14ae9732bd06634fa131226cfe5c25bfd2fb95610a4082602097961015611452565b87611541565b6109d6565b929190506020833d8211610a80575b81610a676020938361141a565b81010312610a7c579151909190610a46610a09565b8680fd5b3d9150610a5a565b82513d89823e3d90fd5b825162461bcd60e51b8152602081880152601b60248201527f54726561737572793a20496e76616c696420726563697069656e7400000000006044820152606490fd5b50903461022557602036600319011261022557610af0611296565b610af861135a565b6001600160a01b0316918215610b45575081835260026020528220805460ff191660011790557f8983a1f3c3cb45c24c8226b5b805e3b6eb49686530b808534b2a920129eff6518280a280f35b6020608492519162461bcd60e51b8352820152602260248201527f54726561737572793a20496e76616c696420636f6e7472616374206164647265604482015261737360f01b6064820152fd5b5082903461026757610ba3366112f7565b9295909333865260206002815260ff838820541615610c9d578415610c5357878752600a81528287206001600160a01b0385168089529082528388205490929060ff16610c1257508697610c0f9752600a8152828820918852528520600160ff19825416179055611649565b80f35b60649184519162461bcd60e51b8352820152601960248201527f54726561737572793a20416c726561647920636c61696d6564000000000000006044820152fd5b608492519162461bcd60e51b8352820152602160248201527f54726561737572793a20496e76616c69642077696e6e696e677320616d6f756e6044820152601d60fa1b6064820152fd5b608492519162461bcd60e51b83528201526036602482015260008051602061167a8339815191526044820152756374732063616e20636c61696d2077696e6e696e677360501b6064820152fd5b50346102255781600319360112610225578160209360ff92610d0a61127b565b90358252600b86528282206001600160a01b039091168252855220549151911615158152f35b505034610267578160031936011261026757602090516101f48152f35b5082346108cc5760203660031901126108cc5750610d6b9035611386565b82519182526020820152f35b50919034610267578060031936011261026757610d92611296565b90602435913384526020946002865260ff838620541615610f6e57610db88415156113ce565b610dc184611386565b6001600160a01b0393841695919390929186610e8f57610de3904710156114aa565b82610e1b575b50507f85da6ab72d2b48932522aea80adb8ca4fab6cdeb87bc2e7f6c03fd78d3b2100e9394958351928352820152a280f35b868080858194600154165af1610e2f611501565b5015610e3b5780610de9565b835162461bcd60e51b8152908101879052602860248201527f54726561737572793a20455448207472616e7366657220746f20706172746e656044820152671c8819985a5b195960c21b6064820152608490fd5b959697918551906370a0823160e01b8252309082015282816024818b5afa908115610f64578991610f13575b507f85da6ab72d2b48932522aea80adb8ca4fab6cdeb87bc2e7f6c03fd78d3b2100e96610ee9911015611452565b8280610efe575b50508351928352820152a280f35b610f0c916001541688611541565b3882610ef0565b90508281813d8311610f5d575b610f2a818361141a565b81010312610f5957517f85da6ab72d2b48932522aea80adb8ca4fab6cdeb87bc2e7f6c03fd78d3b2100e610ebb565b8880fd5b503d610f20565b86513d8b823e3d90fd5b825162461bcd60e51b81529081018690526037602482015260008051602061167a83398151915260448201527f6374732063616e206469737472696275746520666565730000000000000000006064820152608490fd5b5050346102675781600319360112610267576020905160648152f35b50503461026757816003193601126102675760035490516001600160a01b039091168152602090f35b50346102255781600319360112610225578160209360ff9261102a61127b565b90358252600a86528282206001600160a01b039091168252855220549151911615158152f35b5050346102675780602092611064366112c2565b918352600886528383206001600160a01b039182168452865283832091168252845220549051908152f35b50829034610267576110a0366112f7565b9295909333865260206002815260ff8388205416156111dd57841561119157878752600881528287209760018060a01b0392838616998a8a52835284892093881693848a52835286858a20541061113f5750879881610c0f995260088352848a20908a528252838920838a52825283892061111c87825461163c565b905588526006815282882091885252852061113883825461163c565b9055611649565b845162461bcd60e51b8152908101839052602660248201527f54726561737572793a20496e73756666696369656e7420737570706f72742062604482015265616c616e636560d01b6064820152608490fd5b608492519162461bcd60e51b8352820152602360248201527f54726561737572793a20496e76616c6964207769746864726177616c20616d6f6044820152621d5b9d60ea1b6064820152fd5b608492519162461bcd60e51b83528201526038602482015260008051602061167a83398151915260448201527f6374732063616e20776974686472617720737570706f727400000000000000006064820152fd5b92919050346112775781600319360112611277579060209360ff9261125461127b565b90358252600a86528282206001600160a01b039091168252855220541615158152f35b8380fd5b602435906001600160a01b038216820361129157565b600080fd5b600435906001600160a01b038216820361129157565b604435906001600160a01b038216820361129157565b606090600319011261129157600435906001600160a01b03906024358281168103611291579160443590811681036112915790565b608090600319011261129157600435906001600160a01b0390602435828116810361129157916044359081168103611291579060643590565b60609060031901126112915760043590602435906044356001600160a01b03811681036112915790565b6000546001600160a01b0316330361136e57565b60405163118cdaa760e01b8152336004820152602490fd5b906101f4918281029281840414901517156113b8576127108092049160648302838104606414841517156113b8570490565b634e487b7160e01b600052601160045260246000fd5b156113d557565b60405162461bcd60e51b815260206004820152601860248201527f54726561737572793a20496e76616c696420616d6f756e7400000000000000006044820152606490fd5b90601f8019910116810190811067ffffffffffffffff82111761143c57604052565b634e487b7160e01b600052604160045260246000fd5b1561145957565b60405162461bcd60e51b8152602060048201526024808201527f54726561737572793a20496e73756666696369656e7420746f6b656e2062616c604482015263616e636560e01b6064820152608490fd5b156114b157565b60405162461bcd60e51b815260206004820152602260248201527f54726561737572793a20496e73756666696369656e74204554482062616c616e604482015261636560f01b6064820152608490fd5b3d1561153c573d9067ffffffffffffffff821161143c5760405191611530601f8201601f19166020018461141a565b82523d6000602084013e565b606090565b60405163a9059cbb60e01b602082019081526001600160a01b0393841660248301526044808301959095529381529092608082019067ffffffffffffffff82118383101761143c57602092600092604052519082865af1156115d7576000513d6115ce57508082163b155b6115b4575050565b604051635274afe760e01b81529116600482015260249150fd5b600114156115ac565b6040513d6000823e3d90fd5b156115ea57565b60405162461bcd60e51b815260206004820152601d60248201527f54726561737572793a20455448207472616e73666572206661696c65640000006044820152606490fd5b919082018092116113b857565b919082039182116113b857565b916001600160a01b03168061166f575060008080809361166d955af16109d0611501565b565b9161166d9261154156fe54726561737572793a204f6e6c7920617574686f72697a656420636f6e747261a2646970667358221220610caa07504e37eb141db2a491388b7a05080ff3b236725dcc344a1df05f49ee64736f6c63430008140033",
  "linkReferences": {},
  "deployedLinkReferences": {}
}