{
  "_format": "hh-sol-artifact-1",
  "contractName": "PoolVault",
  "sourceName": "contracts/P2PTreasury.sol",
  "abi": [
    {
      "inputs": [
        {
          "internalType": "address",
          "name": "initialOwner",
          "type": "address"
        },
        {
          "internalType": "address",
          "name": "_partner",
          "type": "address"
        }
      ],
      "stateMutability": "nonpayable",
      "type": "constructor"
    },
    {
      "inputs": [
        {
          "internalType": "address",
          "name": "owner",
          "type": "address"
        }
      ],
      "name": "OwnableInvalidOwner",
      "type": "error"
    },
    {
      "inputs": [
        {
          "internalType": "address",
          "name": "account",
          "type": "address"
        }
      ],
      "name": "OwnableUnauthorizedAccount",
      "type": "error"
    },
    {
      "inputs": [
        {
          "internalType": "address",
          "name": "token",
          "type": "address"
        }
      ],
      "name": "SafeERC20FailedOperation",
      "type": "error"
    },
    {
      "anonymous": false,
      "inputs": [
        {
          "indexed": true,
          "internalType": "address",
          "name": "contractAddr",
          "type": "address"
        }
      ],
      "name": "ContractAuthorized",
      "type": "event"
    },
    {
      "anonymous": false,
      "inputs": [
        {
          "indexed": true,
          "internalType": "address",
          "name": "contractAddr",
          "type": "address"
        }
      ],
      "name": "ContractDeauthorized",
      "type": "event"
    },
    {
      "anonymous": false,
      "inputs": [
        {
          "indexed": true,
          "internalType": "address",
          "name": "token",
          "type": "address"
        },
        {
          "indexed": false,
          "internalType": "uint256",
          "name": "platformAmount",
          "type": "uint256"
        },
        {
          "indexed": false,
          "internalType": "uint256",
          "name": "partnerAmount",
          "type": "uint256"
        }
      ],
      "name": "FeesDistributed",
      "type": "event"
    },
    {
      "anonymous": false,
      "inputs": [
        {
          "indexed": true,
          "internalType": "address",
          "name": "token",
          "type": "address"
        },
        {
          "indexed": false,
          "internalType": "uint256",
          "name": "amount",
          "type": "uint256"
        },
        {
          "indexed": true,
          "internalType": "address",
          "name": "to",
          "type": "address"
        }
      ],
      "name": "FundsWithdrawn",
      "type": "event"
    },
    {
      "anonymous": false,
      "inputs": [
        {
          "indexed": true,
          "internalType": "address",
          "name": "oldManager",
          "type": "address"
        },
        {
          "indexed": true,
          "internalType": "address",
          "name": "newManager",
          "type": "address"
        }
      ],
      "name": "MarketManagerUpdated",
      "type": "event"
    },
    {
      "anonymous": false,
      "inputs": [
        {
          "indexed": true,
          "internalType": "address",
          "name": "previousOwner",
          "type": "address"
        },
        {
          "indexed": true,
          "internalType": "address",
          "name": "newOwner",
          "type": "address"
        }
      ],
      "name": "OwnershipTransferred",
      "type": "event"
    },
    {
      "anonymous": false,
      "inputs": [
        {
          "indexed": true,
          "internalType": "address",
          "name": "oldPartner",
          "type": "address"
        },
        {
          "indexed": true,
          "internalType": "address",
          "name": "newPartner",
          "type": "address"
        }
      ],
      "name": "PartnerUpdated",
      "type": "event"
    },
    {
      "anonymous": false,
      "inputs": [
        {
          "indexed": true,
          "internalType": "address",
          "name": "token",
          "type": "address"
        },
        {
          "indexed": false,
          "internalType": "uint256",
          "name": "amount",
          "type": "uint256"
        },
        {
          "indexed": true,
          "internalType": "address",
          "name": "to",
          "type": "address"
        }
      ],
      "name": "PlatformFundsWithdrawn",
      "type": "event"
    },
    {
      "anonymous": false,
      "inputs": [
        {
          "indexed": true,
          "internalType": "address",
          "name": "token",
          "type": "address"
        },
        {
          "indexed": false,
          "internalType": "uint256",
          "name": "amount",
          "type": "uint256"
        },
        {
          "indexed": false,
          "internalType": "string",
          "name": "reason",
          "type": "string"
        }
      ],
      "name": "PlatformPoolUpdated",
      "type": "event"
    },
    {
      "inputs": [],
      "name": "PARTNER_FEE_BPS",
      "outputs": [
        {
          "internalType": "uint256",
          "name": "",
          "type": "uint256"
        }
      ],
      "stateMutability": "view",
      "type": "function"
    },
    {
      "inputs": [],
      "name": "PLATFORM_FEE_BPS",
      "outputs": [
        {
          "internalType": "uint256",
          "name": "",
          "type": "uint256"
        }
      ],
      "stateMutability": "view",
      "type": "function"
    },
    {
      "inputs": [
        {
          "internalType": "address",
          "name": "token",
          "type": "address"
        },
        {
          "internalType": "uint256",
          "name": "amount",
          "type": "uint256"
        }
      ],
      "name": "addToPlatformPool",
      "outputs": [],
      "stateMutability": "nonpayable",
      "type": "function"
    },
    {
      "inputs": [
        {
          "internalType": "address",
          "name": "contractAddr",
          "type": "address"
        }
      ],
      "name": "authorizeContract",
      "outputs": [],
      "stateMutability": "nonpayable",
      "type": "function"
    },
    {
      "inputs": [
        {
          "internalType": "address",
          "name": "",
          "type": "address"
        }
      ],
      "name": "authorizedContracts",
      "outputs": [
        {
          "internalType": "bool",
          "name": "",
          "type": "bool"
        }
      ],
      "stateMutability": "view",
      "type": "function"
    },
    {
      "inputs": [
        {
          "internalType": "uint256",
          "name": "totalAmount",
          "type": "uint256"
        }
      ],
      "name": "calculateFees",
      "outputs": [
        {
          "internalType": "uint256",
          "name": "platformFee",
          "type": "uint256"
        },
        {
          "internalType": "uint256",
          "name": "partnerFee",
          "type": "uint256"
        }
      ],
      "stateMutability": "pure",
      "type": "function"
    },
    {
      "inputs": [
        {
          "internalType": "uint256",
          "name": "marketId",
          "type": "uint256"
        },
        {
          "internalType": "address",
          "name": "user",
          "type": "address"
        },
        {
          "internalType": "address",
          "name": "token",
          "type": "address"
        },
        {
          "internalType": "uint256",
          "name": "amount",
          "type": "uint256"
        }
      ],
      "name": "claimRefund",
      "outputs": [],
      "stateMutability": "nonpayable",
      "type": "function"
    },
    {
      "inputs": [
        {
          "internalType": "uint256",
          "name": "marketId",
          "type": "uint256"
        },
        {
          "internalType": "address",
          "name": "user",
          "type": "address"
        },
        {
          "internalType": "address",
          "name": "token",
          "type": "address"
        },
        {
          "internalType": "uint256",
          "name": "amount",
          "type": "uint256"
        }
      ],
      "name": "claimWinnings",
      "outputs": [],
      "stateMutability": "nonpayable",
      "type": "function"
    },
    {
      "inputs": [
        {
          "internalType": "address",
          "name": "contractAddr",
          "type": "address"
        }
      ],
      "name": "deauthorizeContract",
      "outputs": [],
      "stateMutability": "nonpayable",
      "type": "function"
    },
    {
      "inputs": [
        {
          "internalType": "address",
          "name": "token",
          "type": "address"
        },
        {
          "internalType": "uint256",
          "name": "totalAmount",
          "type": "uint256"
        }
      ],
      "name": "distributeFees",
      "outputs": [],
      "stateMutability": "nonpayable",
      "type": "function"
    },
    {
      "inputs": [
        {
          "internalType": "uint256",
          "name": "marketId",
          "type": "uint256"
        },
        {
          "internalType": "address",
          "name": "token",
          "type": "address"
        },
        {
          "internalType": "uint256",
          "name": "totalAmount",
          "type": "uint256"
        }
      ],
      "name": "distributeVerifierRewards",
      "outputs": [],
      "stateMutability": "nonpayable",
      "type": "function"
    },
    {
      "inputs": [
        {
          "internalType": "address[]",
          "name": "tokens",
          "type": "address[]"
        }
      ],
      "name": "getAllPlatformPools",
      "outputs": [
        {
          "internalType": "uint256[]",
          "name": "balances",
          "type": "uint256[]"
        }
      ],
      "stateMutability": "view",
      "type": "function"
    },
    {
      "inputs": [
        {
          "internalType": "address",
          "name": "token",
          "type": "address"
        }
      ],
      "name": "getBalanceInfo",
      "outputs": [
        {
          "internalType": "uint256",
          "name": "contractBalance",
          "type": "uint256"
        },
        {
          "internalType": "uint256",
          "name": "platformPoolBalance",
          "type": "uint256"
        }
      ],
      "stateMutability": "view",
      "type": "function"
    },
    {
      "inputs": [
        {
          "internalType": "uint256",
          "name": "marketId",
          "type": "uint256"
        },
        {
          "internalType": "address",
          "name": "token",
          "type": "address"
        }
      ],
      "name": "getMarketPool",
      "outputs": [
        {
          "internalType": "uint256",
          "name": "",
          "type": "uint256"
        }
      ],
      "stateMutability": "view",
      "type": "function"
    },
    {
      "inputs": [
        {
          "internalType": "uint256",
          "name": "marketId",
          "type": "uint256"
        },
        {
          "internalType": "uint256",
          "name": "option",
          "type": "uint256"
        },
        {
          "internalType": "address",
          "name": "token",
          "type": "address"
        }
      ],
      "name": "getOptionPool",
      "outputs": [
        {
          "internalType": "uint256",
          "name": "",
          "type": "uint256"
        }
      ],
      "stateMutability": "view",
      "type": "function"
    },
    {
      "inputs": [
        {
          "internalType": "address",
          "name": "token",
          "type": "address"
        }
      ],
      "name": "getPlatformPool",
      "outputs": [
        {
          "internalType": "uint256",
          "name": "",
          "type": "uint256"
        }
      ],
      "stateMutability": "view",
      "type": "function"
    },
    {
      "inputs": [
        {
          "internalType": "uint256",
          "name": "marketId",
          "type": "uint256"
        },
        {
          "internalType": "address",
          "name": "token",
          "type": "address"
        }
      ],
      "name": "getSupportPool",
      "outputs": [
        {
          "internalType": "uint256",
          "name": "",
          "type": "uint256"
        }
      ],
      "stateMutability": "view",
      "type": "function"
    },
    {
      "inputs": [
        {
          "internalType": "uint256",
          "name": "marketId",
          "type": "uint256"
        },
        {
          "internalType": "address",
          "name": "user",
          "type": "address"
        },
        {
          "internalType": "address",
          "name": "token",
          "type": "address"
        }
      ],
      "name": "getUserStake",
      "outputs": [
        {
          "internalType": "uint256",
          "name": "",
          "type": "uint256"
        }
      ],
      "stateMutability": "view",
      "type": "function"
    },
    {
      "inputs": [
        {
          "internalType": "uint256",
          "name": "marketId",
          "type": "uint256"
        },
        {
          "internalType": "address",
          "name": "user",
          "type": "address"
        },
        {
          "internalType": "address",
          "name": "token",
          "type": "address"
        }
      ],
      "name": "getUserSupport",
      "outputs": [
        {
          "internalType": "uint256",
          "name": "",
          "type": "uint256"
        }
      ],
      "stateMutability": "view",
      "type": "function"
    },
    {
      "inputs": [
        {
          "internalType": "uint256",
          "name": "marketId",
          "type": "uint256"
        },
        {
          "internalType": "address",
          "name": "user",
          "type": "address"
        }
      ],
      "name": "hasUserClaimed",
      "outputs": [
        {
          "internalType": "bool",
          "name": "",
          "type": "bool"
        }
      ],
      "stateMutability": "view",
      "type": "function"
    },
    {
      "inputs": [
        {
          "internalType": "uint256",
          "name": "marketId",
          "type": "uint256"
        },
        {
          "internalType": "address",
          "name": "user",
          "type": "address"
        }
      ],
      "name": "hasUserSupportClaimed",
      "outputs": [
        {
          "internalType": "bool",
          "name": "",
          "type": "bool"
        }
      ],
      "stateMutability": "view",
      "type": "function"
    },
    {
      "inputs": [],
      "name": "marketManager",
      "outputs": [
        {
          "internalType": "address",
          "name": "",
          "type": "address"
        }
      ],
      "stateMutability": "view",
      "type": "function"
    },
    {
      "inputs": [
        {
          "internalType": "uint256",
          "name": "",
          "type": "uint256"
        },
        {
          "internalType": "address",
          "name": "",
          "type": "address"
        }
      ],
      "name": "marketPools",
      "outputs": [
        {
          "internalType": "uint256",
          "name": "",
          "type": "uint256"
        }
      ],
      "stateMutability": "view",
      "type": "function"
    },
    {
      "inputs": [
        {
          "internalType": "uint256",
          "name": "",
          "type": "uint256"
        },
        {
          "internalType": "uint256",
          "name": "",
          "type": "uint256"
        },
        {
          "internalType": "address",
          "name": "",
          "type": "address"
        }
      ],
      "name": "optionPools",
      "outputs": [
        {
          "internalType": "uint256",
          "name": "",
          "type": "uint256"
        }
      ],
      "stateMutability": "view",
      "type": "function"
    },
    {
      "inputs": [],
      "name": "owner",
      "outputs": [
        {
          "internalType": "address",
          "name": "",
          "type": "address"
        }
      ],
      "stateMutability": "view",
      "type": "function"
    },
    {
      "inputs": [],
      "name": "partner",
      "outputs": [
        {
          "internalType": "address",
          "name": "",
          "type": "address"
        }
      ],
      "stateMutability": "view",
      "type": "function"
    },
    {
      "inputs": [
        {
          "internalType": "uint256",
          "name": "marketId",
          "type": "uint256"
        },
        {
          "internalType": "address",
          "name": "user",
          "type": "address"
        },
        {
          "internalType": "address",
          "name": "token",
          "type": "address"
        },
        {
          "internalType": "uint256",
          "name": "amount",
          "type": "uint256"
        },
        {
          "internalType": "uint256",
          "name": "option",
          "type": "uint256"
        }
      ],
      "name": "placeStake",
      "outputs": [],
      "stateMutability": "nonpayable",
      "type": "function"
    },
    {
      "inputs": [
        {
          "internalType": "address",
          "name": "",
          "type": "address"
        }
      ],
      "name": "platformPools",
      "outputs": [
        {
          "internalType": "uint256",
          "name": "",
          "type": "uint256"
        }
      ],
      "stateMutability": "view",
      "type": "function"
    },
    {
      "inputs": [],
      "name": "renounceOwnership",
      "outputs": [],
      "stateMutability": "nonpayable",
      "type": "function"
    },
    {
      "inputs": [
        {
          "internalType": "address",
          "name": "_marketManager",
          "type": "address"
        }
      ],
      "name": "setMarketManager",
      "outputs": [],
      "stateMutability": "nonpayable",
      "type": "function"
    },
    {
      "inputs": [
        {
          "internalType": "address",
          "name": "_partner",
          "type": "address"
        }
      ],
      "name": "setPartner",
      "outputs": [],
      "stateMutability": "nonpayable",
      "type": "function"
    },
    {
      "inputs": [
        {
          "internalType": "uint256",
          "name": "marketId",
          "type": "uint256"
        },
        {
          "internalType": "address",
          "name": "user",
          "type": "address"
        },
        {
          "internalType": "address",
          "name": "token",
          "type": "address"
        },
        {
          "internalType": "uint256",
          "name": "amount",
          "type": "uint256"
        }
      ],
      "name": "supportMarket",
      "outputs": [],
      "stateMutability": "nonpayable",
      "type": "function"
    },
    {
      "inputs": [
        {
          "internalType": "uint256",
          "name": "",
          "type": "uint256"
        },
        {
          "internalType": "address",
          "name": "",
          "type": "address"
        }
      ],
      "name": "supportPools",
      "outputs": [
        {
          "internalType": "uint256",
          "name": "",
          "type": "uint256"
        }
      ],
      "stateMutability": "view",
      "type": "function"
    },
    {
      "inputs": [
        {
          "internalType": "address",
          "name": "newOwner",
          "type": "address"
        }
      ],
      "name": "transferOwnership",
      "outputs": [],
      "stateMutability": "nonpayable",
      "type": "function"
    },
    {
      "inputs": [
        {
          "internalType": "address",
          "name": "creator",
          "type": "address"
        },
        {
          "internalType": "address",
          "name": "token",
          "type": "address"
        },
        {
          "internalType": "uint256",
          "name": "amount",
          "type": "uint256"
        }
      ],
      "name": "transferToCreator",
      "outputs": [],
      "stateMutability": "nonpayable",
      "type": "function"
    },
    {
      "inputs": [
        {
          "internalType": "uint256",
          "name": "",
          "type": "uint256"
        },
        {
          "internalType": "address",
          "name": "",
          "type": "address"
        },
        {
          "internalType": "uint256",
          "name": "",
          "type": "uint256"
        }
      ],
      "name": "userBetOptions",
      "outputs": [
        {
          "internalType": "uint256",
          "name": "",
          "type": "uint256"
        }
      ],
      "stateMutability": "view",
      "type": "function"
    },
    {
      "inputs": [
        {
          "internalType": "uint256",
          "name": "",
          "type": "uint256"
        },
        {
          "internalType": "address",
          "name": "",
          "type": "address"
        }
      ],
      "name": "userClaimed",
      "outputs": [
        {
          "internalType": "bool",
          "name": "",
          "type": "bool"
        }
      ],
      "stateMutability": "view",
      "type": "function"
    },
    {
      "inputs": [
        {
          "internalType": "uint256",
          "name": "",
          "type": "uint256"
        },
        {
          "internalType": "address",
          "name": "",
          "type": "address"
        },
        {
          "internalType": "address",
          "name": "",
          "type": "address"
        }
      ],
      "name": "userStakes",
      "outputs": [
        {
          "internalType": "uint256",
          "name": "",
          "type": "uint256"
        }
      ],
      "stateMutability": "view",
      "type": "function"
    },
    {
      "inputs": [
        {
          "internalType": "uint256",
          "name": "",
          "type": "uint256"
        },
        {
          "internalType": "address",
          "name": "",
          "type": "address"
        }
      ],
      "name": "userSupportClaimed",
      "outputs": [
        {
          "internalType": "bool",
          "name": "",
          "type": "bool"
        }
      ],
      "stateMutability": "view",
      "type": "function"
    },
    {
      "inputs": [
        {
          "internalType": "uint256",
          "name": "",
          "type": "uint256"
        },
        {
          "internalType": "address",
          "name": "",
          "type": "address"
        },
        {
          "internalType": "address",
          "name": "",
          "type": "address"
        }
      ],
      "name": "userSupports",
      "outputs": [
        {
          "internalType": "uint256",
          "name": "",
          "type": "uint256"
        }
      ],
      "stateMutability": "view",
      "type": "function"
    },
    {
      "inputs": [
        {
          "internalType": "address",
          "name": "token",
          "type": "address"
        },
        {
          "internalType": "uint256",
          "name": "amount",
          "type": "uint256"
        },
        {
          "internalType": "address",
          "name": "to",
          "type": "address"
        }
      ],
      "name": "withdraw",
      "outputs": [],
      "stateMutability": "nonpayable",
      "type": "function"
    },
    {
      "inputs": [
        {
          "internalType": "address",
          "name": "token",
          "type": "address"
        },
        {
          "internalType": "uint256",
          "name": "amount",
          "type": "uint256"
        },
        {
          "internalType": "address",
          "name": "to",
          "type": "address"
        }
      ],
      "name": "withdrawPlatformFunds",
      "outputs": [],
      "stateMutability": "nonpayable",
      "type": "function"
    },
    {
      "inputs": [
        {
          "internalType": "uint256",
          "name": "marketId",
          "type": "uint256"
        },
        {
          "internalType": "address",
          "name": "user",
          "type": "address"
        },
        {
          "internalType": "address",
          "name": "token",
          "type": "address"
        },
        {
          "internalType": "uint256",
          "name": "amount",
          "type": "uint256"
        }
      ],
      "name": "withdrawSupport",
      "outputs": [],
      "stateMutability": "nonpayable",
      "type": "function"
    },
    {
      "stateMutability": "payable",
      "type": "receive"
    }
  ],
  "bytecode": "0x608034620000de57601f620025c938819003918201601f19168301916001600160401b03831184841017620000e3578084926040948552833981010312620000de576200005a60206200005283620000f9565b9201620000f9565b906001600160a01b03908116908115620000c5576000549260018060a01b03199280848616176000558260405195167f8be0079c531659141344cd1fd0a4f28419497f9722a3daafe3b4186f6b6457e0600080a3169060015416176001556124ba90816200010f8239f35b604051631e4fbdf760e01b815260006004820152602490fd5b600080fd5b634e487b7160e01b600052604160045260246000fd5b51906001600160a01b0382168203620000de5756fe60806040818152600480361015610021575b505050361561001f57600080fd5b005b600092833560e01c908163055c796b14611e625750806307c7a72d14611934578063112cd22314611c4b5780631abf870514611c0a578063256ba74114611a2e5780632f2e594e14610a2b5780632f7c165e14611a6d5780632ff44b6f1461156b57806334eba16614611a2e57806339adac4d1461197a5780633beb98421461193457806341ed2c121461190b57806341ee37d1146118ef57806348fef595146116c45780634f44289d14610a6a57806352238fdd1461169a578063539aa77f1461167d578063593f35f4146115b15780635d1c58201461156b5780635e0083da14611417578063674d20cb1461120557806367561d931461115a57806369328dec146110365780636c1b5c8a146110015780636e861c0e14610f9b5780636ee02a9b14610e84578063715018a614610e3957806375f63e7e14610b0b5780637a3cf74214610aab5780637de4263414610a6a578063847cf78214610a2b5780638da5cb5b14610a0357806395f410951461087d578063a16d5960146107bd578063a24693ed1461077f578063be10862b14610756578063c15d98071461063b578063d5b9221b146105fd578063d82aff1114610508578063dc4ce3491461027a578063f0824f33146102bc578063f133a04f1461027a5763f2fde38b0361001157346102765760203660031901126102765761021c611e96565b90610225611fbd565b6001600160a01b0391821692831561026057505082546001600160a01b03198116831784551660008051602061244e8339815191528380a380f35b51631e4fbdf760e01b8152908101849052602490fd5b8280fd5b5050346102b8578060209261028e36611f93565b9183526006865283832090835285528282206001600160a01b039091168252845220549051908152f35b5080fd5b509190346102b857806003193601126102b8576102d7611e96565b906024359133845260206002815260ff8386205416156104b35783156102fd8115612031565b6107d090818602918683041417156104a05785939291612710889204916103248388612109565b6001600160a01b0394851697909490886103ee579684916103566000805160206123ee83398151915299471015612123565b826103ca575b5050505b8688528152838720610373848254612116565b90558560008051602061242e833981519152608086518681528785820152601d888201527f44697265637420706c6174666f726d20706f6f6c206164646974696f6e0000006060820152a28351928352820152a280f35b81806103e6948193600154165af16103e061217a565b506121b9565b82888a61035c565b86516370a0823160e01b8152308482015290975083816024818c5afa908115610496578a91610457575b506000805160206123ee833981519152976104349110156120b1565b8380610442575b5050610360565b610450916001541689612216565b888361043b565b90508381813d831161048f575b61046e8183612078565b8101031261048b57516000805160206123ee833981519152610418565b8980fd5b503d610464565b87513d8c823e3d90fd5b634e487b7160e01b865260118752602486fd5b8560849184519162461bcd60e51b8352820152603c602482015260008051602061246e83398151915260448201527b18dd1cc818d85b88185919081d1bc81c1b185d199bdc9b481c1bdbdb60221b6064820152fd5b508290346102b85760203660031901126102b857610524611e96565b61052c611fbd565b6001600160a01b039081169182156105a95750600380546001600160a01b0319811684179091558284526002602052938320805460ff19166001179055919290918291167f6d5236c24f887cea37fd19d8fffc6c47b564af445baf220a6c7f9a58bb6ae04e8480a360008051602061240e8339815191528280a280f35b608490602086519162461bcd60e51b8352820152602860248201527f54726561737572793a20496e76616c6964206d61726b6574206d616e61676572604482015267206164647265737360c01b6064820152fd5b5050346102b85760203660031901126102b85760209160ff9082906001600160a01b03610628611e96565b1681526002855220541690519015158152f35b509190346102b85761064c36611efc565b9392959091953386526020916002835260ff8588205416156107055785156106c457508596816106bf9697526009835284882060018060a01b038092168952835284882093169283885282528387206106a6878254612116565b9055865260078152828620918652528320918254612116565b905580f35b606490838087519262461bcd60e51b845283015260248201527f54726561737572793a20496e76616c696420737570706f727420616d6f756e746044820152fd5b845162461bcd60e51b81529081018390526037602482015260008051602061246e8339815191526044820152766374732063616e20737570706f7274206d61726b65747360481b6064820152608490fd5b5050346102b857816003193601126102b85760015490516001600160a01b039091168152602090f35b5050346102b8578060209261079336611f69565b918352600a86528383206001600160a01b0390911683528552828220908252845220549051908152f35b5034610276576020366003190112610276576107d7611e96565b906107e0611fbd565b6001600160a01b03918216928315610830575050600180546001600160a01b031981168417909155167fc853be2b3168a7fe00e46da23214c5345a752dc61cd3300d7f255f8ae55345878380a380f35b906020608492519162461bcd60e51b8352820152602160248201527f54726561737572793a20496e76616c696420706172746e6572206164647265736044820152607360f81b6064820152fd5b509190346102b85760a03660031901126102b85782359061089c611eb1565b6001600160a01b039460443586811692908390036109ff5760643594608435913388526020936002855260ff878a205416156109b157871561096e57508798826106bf98995260088552868a20911690818a528452858920858a528452858920610907898254612116565b9055818952600a84528589209089528352848820828952835284882061092e888254612116565b905580885260058352848820848952835284882061094d888254612116565b90558752600682528387209087528152828620918652528320918254612116565b865162461bcd60e51b8152908101859052601e60248201527f54726561737572793a20496e76616c6964207374616b6520616d6f756e7400006044820152606490fd5b865162461bcd60e51b81529081018590526034602482015260008051602061246e8339815191526044820152736374732063616e20706c616365207374616b657360601b6064820152608490fd5b8580fd5b5050346102b857816003193601126102b857905490516001600160a01b039091168152602090f35b5050346102b85780602092610a3f36611ec7565b918352600886528383206001600160a01b039182168452865283832091168252845220549051908152f35b50346102765781600319360112610276576020928291610a88611eb1565b90358252600785528282206001600160a01b039091168252845220549051908152f35b503461027657816003193601126102765760209282610b04923591610ace611eb1565b838252600587528282206001600160a01b0390911680835290875282822054938252600787528282209082528652205490612116565b9051908152f35b509190346102b857610b1c36611f69565b9091923385526020946002865260ff828220541615610dd6578215610d9357815194632408c57b60e21b8652878601528085602481335afa948515610d87578195610cde575b50845115610c8c5784518015610c795783969296049281928415978815945b8851811015610bc057610b989086610b9d57612394565b610b81565b610bbb89896001600160a01b03610bb4858f6123a3565b511661234d565b612394565b5093509493909591968251808302928304141715610c6657610be29086612109565b9081610c13575b8251868152879081906001600160a01b0387169060008051602061248e833981519152908990a380f35b805115610c5357840151959650869560008051602061248e83398151915294939291610c4a918491906001600160a01b031661234d565b90919238610be9565b634e487b7160e01b875260328852602487fd5b634e487b7160e01b875260118852602487fd5b634e487b7160e01b825260128852602482fd5b815162461bcd60e51b8152808801879052602660248201527f54726561737572793a204e6f207265736f6c76696e672076657269666965727360448201526508199bdd5b9960d21b6064820152608490fd5b9094503d8086833e610cf08183612078565b81019086818303126109ff578051906001600160401b038211610d8357019080601f830112156109ff578151610d258161237d565b92610d3285519485612078565b818452888085019260051b820101928311610d7f578801905b828210610d5c575050509338610b62565b81516001600160a01b0381168103610d7b578152908801908801610d4b565b8880fd5b8780fd5b8680fd5b509051903d90823e3d90fd5b815162461bcd60e51b8152808801879052601f60248201527f54726561737572793a20496e76616c69642072657761726420616d6f756e74006044820152606490fd5b815162461bcd60e51b81528088018790526043602482015260008051602061246e83398151915260448201527f6374732063616e2064697374726962757465207665726966696572207265776160648201526272647360e81b608482015260a490fd5b8334610e815780600319360112610e8157610e52611fbd565b80546001600160a01b03198116825581906001600160a01b031660008051602061244e8339815191528280a380f35b80fd5b508234610e81576020806003193601126102b8578235916001600160401b038084116102b857366023850112156102b857838501359081116102b85760059460243683881b8701820111610f9757610ee18398979694959861237d565b93610eee88519586612078565b838552610efa8461237d565b858a019790601f1901368937865b858110610f505750505050505083519485948186019282875251809352850193925b828110610f3957505050500390f35b835185528695509381019392810192600101610f2a565b8381839c99989a9b9c1b8401013560018060a01b038116809103610d7f5790610f8c9188528589528b882054610f86828c6123a3565b52612394565b999897959699610f08565b8380fd5b5050346102b85760203660031901126102b857610fb6611e96565b610fbe611fbd565b6001600160a01b03168083526002602052908220805460ff191690557f54142b7cb3ceaa9e564243ce4cc2303723c842a1144192de6b3c594f68b16a9a8280a280f35b50346102765760203660031901126102765760209282916001600160a01b03611028611e96565b168252845220549051908152f35b50346102765761104536611f35565b919361104f611fbd565b6001600160a01b03838116958791906110698815156122b7565b611074851515612031565b1694856110bc5750906110b482808086958660008051602061248e833981519152996110a460209a471015612123565b5af16110ae61217a565b50612301565b51908152a380f35b90508151906370a0823160e01b82523090820152602081602481885afa908115611150578791611117575b50906111128360008051602061248e8339815191529561110c826020979610156120b1565b87612216565b6110b4565b929190506020833d8211611148575b8161113360209383612078565b81010312610d835791519091906111126110e7565b3d9150611126565b82513d89823e3d90fd5b50903461027657602036600319011261027657611175611e96565b61117d611fbd565b6001600160a01b03169182156111b8575081835260026020528220805460ff1916600117905560008051602061240e8339815191528280a280f35b6020608492519162461bcd60e51b8352820152602260248201527f54726561737572793a20496e76616c696420636f6e7472616374206164647265604482015261737360f01b6064820152fd5b50346102765761121436611f35565b91939092611220611fbd565b6001600160a01b03838116956112378715156122b7565b611242861515612031565b16948587526020938285528584892054106113bf5787879182825284875285822061126e898254612109565b9055826112f557916000805160206123ce83398151915287896112b385808060809d9c9a9860008051602061242e8339815191529f60199d9b6110a482471015612123565b8651908152a38688528352808088205493815194855284015282015278141b185d199bdc9b48199d5b991cc81dda5d1a191c985dd85b603a1b6060820152a280f35b91505083516370a0823160e01b8152308482015285816024818b5afa9081156113b557908892918a91611369575b50916000805160206123ce83398151915287896113648160809b9a989661135e60008051602061242e8339815191529e60199c9a10156120b1565b86612216565b6112b3565b8095935087809795939892503d83116113ae575b6113878183612078565b81010312610d7b5792519394919390929187916000805160206123ce833981519152611323565b503d61137d565b85513d8b823e3d90fd5b835162461bcd60e51b8152808401869052602c60248201527f54726561737572793a20496e73756666696369656e7420706c6174666f726d2060448201526b706f6f6c2062616c616e636560a01b6064820152608490fd5b508290346102b85761142836611efc565b9295909333865260206002815260ff83882054161561151e5784156114d457878752600b81528287206001600160a01b0385168089529082528388205490929060ff16611497575086976114949752600b8152828820918852528520600160ff1982541617905561234d565b80f35b60649184519162461bcd60e51b83528201526019602482015278151c99585cdd5c9e4e88105b1c9958591e4818db185a5b5959603a1b6044820152fd5b608492519162461bcd60e51b8352820152602160248201527f54726561737572793a20496e76616c69642077696e6e696e677320616d6f756e6044820152601d60fa1b6064820152fd5b608492519162461bcd60e51b83528201526036602482015260008051602061246e8339815191526044820152756374732063616e20636c61696d2077696e6e696e677360501b6064820152fd5b50346102765781600319360112610276578160209360ff9261158b611eb1565b90358252600c86528282206001600160a01b039091168252855220549151911615158152f35b508290346102b8576115c236611efc565b925092338552600260205260ff86862054161561162e5782156115eb575061149493945061234d565b606490602087519162461bcd60e51b8352820152601f60248201527f54726561737572793a20496e76616c696420726566756e6420616d6f756e74006044820152fd5b608490602087519162461bcd60e51b83528201526035602482015260008051602061246e8339815191526044820152746374732063616e20636c61696d20726566756e647360581b6064820152fd5b5050346102b857816003193601126102b857602090516101f48152f35b508234610e81576020366003190112610e8157506116b89035611fe9565b82519182526020820152f35b509190346102b857806003193601126102b8576116df611e96565b90602435913384526020946002865260ff83862054161561189e5784956117098596951515612031565b61171286611fe9565b6001600160a01b03948516979194909391886117f6579684916117466000805160206123ee83398151915299471015612123565b826117d8575b50506117589085612109565b90878952825261176c858920918254612116565b90558560008051602061242e8339815191526117c961178b8587612109565b87519182918260809181526040602082015260186040820152772932b3bab630b9103332b2903234b9ba3934b13aba34b7b760411b60608201520190565b0390a28351928352820152a280f35b81806117ee948193600154165af16103e061217a565b82883861174c565b86516370a0823160e01b8152308482015290975083816024818c5afa908115610496578a91611863575b506000805160206123ee8339815191529761183c9110156120b1565b838061184e575b611758915085612109565b61185c916001541689612216565b3883611843565b90508381813d8311611897575b61187a8183612078565b8101031261048b57516000805160206123ee833981519152611820565b503d611870565b825162461bcd60e51b81529081018690526037602482015260008051602061246e8339815191526044820152766374732063616e2064697374726962757465206665657360481b6064820152608490fd5b5050346102b857816003193601126102b8576020905160648152f35b5050346102b857816003193601126102b85760035490516001600160a01b039091168152602090f35b50346102765781600319360112610276578160209360ff92611954611eb1565b90358252600b86528282206001600160a01b039091168252855220549151911615158152f35b508290346102b85760209182600319360112610e8157611998611e96565b6001600160a01b031680825282845284822054928490826119c4575050505047915b8351928352820152f35b60248751809481936370a0823160e01b835230908301525afa918215611a235780926119f3575b5050916119ba565b9091508382813d8311611a1c575b611a0b8183612078565b81010312610e8157505184806119eb565b503d611a01565b8551903d90823e3d90fd5b5050346102b85780602092611a4236611ec7565b918352600986528383206001600160a01b039182168452865283832091168252845220549051908152f35b508290346102b857611a7e36611efc565b9295909333865260206002815260ff838820541615611bbb578415611b6f57878752600981528287209760018060a01b0392838616998a8a52835284892093881693848a52835286858a205410611b1d5750879881611494995260098352848a20908a528252838920838a528252838920611afa878254612109565b9055885260078152828820918852528520611b16838254612109565b905561234d565b845162461bcd60e51b8152908101839052602660248201527f54726561737572793a20496e73756666696369656e7420737570706f72742062604482015265616c616e636560d01b6064820152608490fd5b608492519162461bcd60e51b8352820152602360248201527f54726561737572793a20496e76616c6964207769746864726177616c20616d6f6044820152621d5b9d60ea1b6064820152fd5b608492519162461bcd60e51b83528201526038602482015260008051602061246e83398151915260448201527718dd1cc818d85b881dda5d1a191c985dc81cdd5c1c1bdc9d60421b6064820152fd5b50346102765781600319360112610276576020928291611c28611eb1565b90358252600585528282206001600160a01b039091168252845220549051908152f35b503461027657606036600319011261027657611c65611e96565b611c6d611eb1565b926044353386526020916002835260ff818820541615611e0e57611c92821515612031565b6001600160a01b03848116968715611dc15716948786611d3d57808085809798611cc183969798471015612123565b5af1611ccb61217a565b5015611ceb57505190815260008051602061248e8339815191529190a380f35b83608492519162461bcd60e51b8352820152602860248201527f54726561737572793a20455448207472616e7366657220746f2063726561746f6044820152671c8819985a5b195960c21b6064820152fd5b50938151946370a0823160e01b865230908601528385602481895afa948515611db7578895611d88575b50826111129161110c8260008051602061248e8339815191529810156120b1565b94508385813d8311611db0575b611d9f8183612078565b81010312610d7f5793519382611d67565b503d611d95565b82513d8a823e3d90fd5b825162461bcd60e51b8152808801869052602160248201527f54726561737572793a20496e76616c69642063726561746f72206164647265736044820152607360f81b6064820152608490fd5b5162461bcd60e51b8152808501839052603b602482015260008051602061246e83398151915260448201527a31ba399031b0b7103a3930b739b332b9103a379031b932b0ba37b960291b6064820152608490fd5b9291905034610f97576020366003190112610f9757602093906001600160a01b03611e8b611e96565b168252845220548152f35b600435906001600160a01b0382168203611eac57565b600080fd5b602435906001600160a01b0382168203611eac57565b6060906003190112611eac57600435906001600160a01b03906024358281168103611eac57916044359081168103611eac5790565b6080906003190112611eac57600435906001600160a01b03906024358281168103611eac57916044359081168103611eac579060643590565b6060906003190112611eac576001600160a01b036004358181168103611eac5791602435916044359081168103611eac5790565b6060906003190112611eac57600435906024356001600160a01b0381168103611eac579060443590565b6060906003190112611eac5760043590602435906044356001600160a01b0381168103611eac5790565b6000546001600160a01b03163303611fd157565b60405163118cdaa760e01b8152336004820152602490fd5b906101f49182810292818404149015171561201b5761271080920491606483028381046064148415171561201b570490565b634e487b7160e01b600052601160045260246000fd5b1561203857565b60405162461bcd60e51b8152602060048201526018602482015277151c99585cdd5c9e4e88125b9d985b1a5908185b5bdd5b9d60421b6044820152606490fd5b601f909101601f19168101906001600160401b0382119082101761209b57604052565b634e487b7160e01b600052604160045260246000fd5b156120b857565b60405162461bcd60e51b8152602060048201526024808201527f54726561737572793a20496e73756666696369656e7420746f6b656e2062616c604482015263616e636560e01b6064820152608490fd5b9190820391821161201b57565b9190820180921161201b57565b1561212a57565b60405162461bcd60e51b815260206004820152602260248201527f54726561737572793a20496e73756666696369656e74204554482062616c616e604482015261636560f01b6064820152608490fd5b3d156121b4573d906001600160401b03821161209b57604051916121a8601f8201601f191660200184612078565b82523d6000602084013e565b606090565b156121c057565b60405162461bcd60e51b815260206004820152602860248201527f54726561737572793a20455448207472616e7366657220746f20706172746e656044820152671c8819985a5b195960c21b6064820152608490fd5b60405163a9059cbb60e01b602082019081526001600160a01b039384166024830152604480830195909552938152909260808201906001600160401b0382118383101761209b57602092600092604052519082865af1156122ab576000513d6122a257508082163b155b612288575050565b604051635274afe760e01b81529116600482015260249150fd5b60011415612280565b6040513d6000823e3d90fd5b156122be57565b60405162461bcd60e51b815260206004820152601b60248201527a151c99585cdd5c9e4e88125b9d985b1a59081c9958da5c1a595b9d602a1b6044820152606490fd5b1561230857565b60405162461bcd60e51b815260206004820152601d60248201527f54726561737572793a20455448207472616e73666572206661696c65640000006044820152606490fd5b916001600160a01b0316806123735750600080808093612371955af16110ae61217a565b565b9161237192612216565b6001600160401b03811161209b5760051b60200190565b600019811461201b5760010190565b80518210156123b75760209160051b010190565b634e487b7160e01b600052603260045260246000fdfe0d40d374fecc4dca2567cc5ab864d037f0cd1f1e9bda38c23aff691cd74629e085da6ab72d2b48932522aea80adb8ca4fab6cdeb87bc2e7f6c03fd78d3b2100e8983a1f3c3cb45c24c8226b5b805e3b6eb49686530b808534b2a920129eff6511118cdec69d543750c0863ccd71a7d9183543cd6696b187370ce3b76a9003bf88be0079c531659141344cd1fd0a4f28419497f9722a3daafe3b4186f6b6457e054726561737572793a204f6e6c7920617574686f72697a656420636f6e747261e9171aeff46c37ab955b8aff908e14ae9732bd06634fa131226cfe5c25bfd2fba164736f6c6343000814000a",
  "linkReferences": {},
  "deployedLinkReferences": {}
}