{
  "_format": "hh-sol-artifact-1",
  "contractName": "PoolVault",
  "sourceName": "contracts/P2PTreasury.sol",
  "abi": [
    {
      "inputs": [
        {
          "internalType": "address",
          "name": "initialOwner",
          "type": "address"
        },
        {
          "internalType": "address",
          "name": "_partner",
          "type": "address"
        }
      ],
      "stateMutability": "nonpayable",
      "type": "constructor"
    },
    {
      "inputs": [
        {
          "internalType": "address",
          "name": "owner",
          "type": "address"
        }
      ],
      "name": "OwnableInvalidOwner",
      "type": "error"
    },
    {
      "inputs": [
        {
          "internalType": "address",
          "name": "account",
          "type": "address"
        }
      ],
      "name": "OwnableUnauthorizedAccount",
      "type": "error"
    },
    {
      "inputs": [
        {
          "internalType": "address",
          "name": "token",
          "type": "address"
        }
      ],
      "name": "SafeERC20FailedOperation",
      "type": "error"
    },
    {
      "anonymous": false,
      "inputs": [
        {
          "indexed": true,
          "internalType": "address",
          "name": "contractAddr",
          "type": "address"
        }
      ],
      "name": "ContractAuthorized",
      "type": "event"
    },
    {
      "anonymous": false,
      "inputs": [
        {
          "indexed": true,
          "internalType": "address",
          "name": "contractAddr",
          "type": "address"
        }
      ],
      "name": "ContractDeauthorized",
      "type": "event"
    },
    {
      "anonymous": false,
      "inputs": [
        {
          "indexed": true,
          "internalType": "address",
          "name": "token",
          "type": "address"
        },
        {
          "indexed": false,
          "internalType": "uint256",
          "name": "platformAmount",
          "type": "uint256"
        },
        {
          "indexed": false,
          "internalType": "uint256",
          "name": "partnerAmount",
          "type": "uint256"
        }
      ],
      "name": "FeesDistributed",
      "type": "event"
    },
    {
      "anonymous": false,
      "inputs": [
        {
          "indexed": true,
          "internalType": "address",
          "name": "token",
          "type": "address"
        },
        {
          "indexed": false,
          "internalType": "uint256",
          "name": "amount",
          "type": "uint256"
        },
        {
          "indexed": true,
          "internalType": "address",
          "name": "to",
          "type": "address"
        }
      ],
      "name": "FundsWithdrawn",
      "type": "event"
    },
    {
      "anonymous": false,
      "inputs": [
        {
          "indexed": true,
          "internalType": "address",
          "name": "oldManager",
          "type": "address"
        },
        {
          "indexed": true,
          "internalType": "address",
          "name": "newManager",
          "type": "address"
        }
      ],
      "name": "MarketManagerUpdated",
      "type": "event"
    },
    {
      "anonymous": false,
      "inputs": [
        {
          "indexed": true,
          "internalType": "address",
          "name": "previousOwner",
          "type": "address"
        },
        {
          "indexed": true,
          "internalType": "address",
          "name": "newOwner",
          "type": "address"
        }
      ],
      "name": "OwnershipTransferred",
      "type": "event"
    },
    {
      "anonymous": false,
      "inputs": [
        {
          "indexed": true,
          "internalType": "address",
          "name": "oldPartner",
          "type": "address"
        },
        {
          "indexed": true,
          "internalType": "address",
          "name": "newPartner",
          "type": "address"
        }
      ],
      "name": "PartnerUpdated",
      "type": "event"
    },
    {
      "anonymous": false,
      "inputs": [
        {
          "indexed": true,
          "internalType": "address",
          "name": "token",
          "type": "address"
        },
        {
          "indexed": false,
          "internalType": "uint256",
          "name": "amount",
          "type": "uint256"
        },
        {
          "indexed": true,
          "internalType": "address",
          "name": "to",
          "type": "address"
        }
      ],
      "name": "PlatformFundsWithdrawn",
      "type": "event"
    },
    {
      "anonymous": false,
      "inputs": [
        {
          "indexed": true,
          "internalType": "address",
          "name": "token",
          "type": "address"
        },
        {
          "indexed": false,
          "internalType": "uint256",
          "name": "amount",
          "type": "uint256"
        },
        {
          "indexed": false,
          "internalType": "string",
          "name": "reason",
          "type": "string"
        }
      ],
      "name": "PlatformPoolUpdated",
      "type": "event"
    },
    {
      "inputs": [],
      "name": "PARTNER_FEE_BPS",
      "outputs": [
        {
          "internalType": "uint256",
          "name": "",
          "type": "uint256"
        }
      ],
      "stateMutability": "view",
      "type": "function"
    },
    {
      "inputs": [],
      "name": "PLATFORM_FEE_BPS",
      "outputs": [
        {
          "internalType": "uint256",
          "name": "",
          "type": "uint256"
        }
      ],
      "stateMutability": "view",
      "type": "function"
    },
    {
      "inputs": [
        {
          "internalType": "address",
          "name": "token",
          "type": "address"
        },
        {
          "internalType": "uint256",
          "name": "amount",
          "type": "uint256"
        }
      ],
      "name": "addToPlatformPool",
      "outputs": [],
      "stateMutability": "nonpayable",
      "type": "function"
    },
    {
      "inputs": [
        {
          "internalType": "address",
          "name": "contractAddr",
          "type": "address"
        }
      ],
      "name": "authorizeContract",
      "outputs": [],
      "stateMutability": "nonpayable",
      "type": "function"
    },
    {
      "inputs": [
        {
          "internalType": "address",
          "name": "",
          "type": "address"
        }
      ],
      "name": "authorizedContracts",
      "outputs": [
        {
          "internalType": "bool",
          "name": "",
          "type": "bool"
        }
      ],
      "stateMutability": "view",
      "type": "function"
    },
    {
      "inputs": [
        {
          "internalType": "uint256",
          "name": "totalAmount",
          "type": "uint256"
        }
      ],
      "name": "calculateFees",
      "outputs": [
        {
          "internalType": "uint256",
          "name": "platformFee",
          "type": "uint256"
        },
        {
          "internalType": "uint256",
          "name": "partnerFee",
          "type": "uint256"
        }
      ],
      "stateMutability": "pure",
      "type": "function"
    },
    {
      "inputs": [
        {
          "internalType": "uint256",
          "name": "marketId",
          "type": "uint256"
        },
        {
          "internalType": "address",
          "name": "user",
          "type": "address"
        },
        {
          "internalType": "address",
          "name": "token",
          "type": "address"
        },
        {
          "internalType": "uint256",
          "name": "amount",
          "type": "uint256"
        }
      ],
      "name": "claimRefund",
      "outputs": [],
      "stateMutability": "nonpayable",
      "type": "function"
    },
    {
      "inputs": [
        {
          "internalType": "uint256",
          "name": "marketId",
          "type": "uint256"
        },
        {
          "internalType": "address",
          "name": "user",
          "type": "address"
        },
        {
          "internalType": "address",
          "name": "token",
          "type": "address"
        },
        {
          "internalType": "uint256",
          "name": "amount",
          "type": "uint256"
        }
      ],
      "name": "claimWinnings",
      "outputs": [],
      "stateMutability": "nonpayable",
      "type": "function"
    },
    {
      "inputs": [
        {
          "internalType": "address",
          "name": "contractAddr",
          "type": "address"
        }
      ],
      "name": "deauthorizeContract",
      "outputs": [],
      "stateMutability": "nonpayable",
      "type": "function"
    },
    {
      "inputs": [
        {
          "internalType": "address",
          "name": "token",
          "type": "address"
        },
        {
          "internalType": "uint256",
          "name": "totalAmount",
          "type": "uint256"
        }
      ],
      "name": "distributeFees",
      "outputs": [],
      "stateMutability": "nonpayable",
      "type": "function"
    },
    {
      "inputs": [
        {
          "internalType": "address[]",
          "name": "tokens",
          "type": "address[]"
        }
      ],
      "name": "getAllPlatformPools",
      "outputs": [
        {
          "internalType": "uint256[]",
          "name": "balances",
          "type": "uint256[]"
        }
      ],
      "stateMutability": "view",
      "type": "function"
    },
    {
      "inputs": [
        {
          "internalType": "address",
          "name": "token",
          "type": "address"
        }
      ],
      "name": "getBalanceInfo",
      "outputs": [
        {
          "internalType": "uint256",
          "name": "contractBalance",
          "type": "uint256"
        },
        {
          "internalType": "uint256",
          "name": "platformPoolBalance",
          "type": "uint256"
        }
      ],
      "stateMutability": "view",
      "type": "function"
    },
    {
      "inputs": [
        {
          "internalType": "uint256",
          "name": "marketId",
          "type": "uint256"
        },
        {
          "internalType": "address",
          "name": "token",
          "type": "address"
        }
      ],
      "name": "getMarketPool",
      "outputs": [
        {
          "internalType": "uint256",
          "name": "",
          "type": "uint256"
        }
      ],
      "stateMutability": "view",
      "type": "function"
    },
    {
      "inputs": [
        {
          "internalType": "uint256",
          "name": "marketId",
          "type": "uint256"
        },
        {
          "internalType": "uint256",
          "name": "option",
          "type": "uint256"
        },
        {
          "internalType": "address",
          "name": "token",
          "type": "address"
        }
      ],
      "name": "getOptionPool",
      "outputs": [
        {
          "internalType": "uint256",
          "name": "",
          "type": "uint256"
        }
      ],
      "stateMutability": "view",
      "type": "function"
    },
    {
      "inputs": [
        {
          "internalType": "address",
          "name": "token",
          "type": "address"
        }
      ],
      "name": "getPlatformPool",
      "outputs": [
        {
          "internalType": "uint256",
          "name": "",
          "type": "uint256"
        }
      ],
      "stateMutability": "view",
      "type": "function"
    },
    {
      "inputs": [
        {
          "internalType": "uint256",
          "name": "marketId",
          "type": "uint256"
        },
        {
          "internalType": "address",
          "name": "token",
          "type": "address"
        }
      ],
      "name": "getSupportPool",
      "outputs": [
        {
          "internalType": "uint256",
          "name": "",
          "type": "uint256"
        }
      ],
      "stateMutability": "view",
      "type": "function"
    },
    {
      "inputs": [
        {
          "internalType": "uint256",
          "name": "marketId",
          "type": "uint256"
        },
        {
          "internalType": "address",
          "name": "user",
          "type": "address"
        },
        {
          "internalType": "address",
          "name": "token",
          "type": "address"
        }
      ],
      "name": "getUserStake",
      "outputs": [
        {
          "internalType": "uint256",
          "name": "",
          "type": "uint256"
        }
      ],
      "stateMutability": "view",
      "type": "function"
    },
    {
      "inputs": [
        {
          "internalType": "uint256",
          "name": "marketId",
          "type": "uint256"
        },
        {
          "internalType": "address",
          "name": "user",
          "type": "address"
        },
        {
          "internalType": "address",
          "name": "token",
          "type": "address"
        }
      ],
      "name": "getUserSupport",
      "outputs": [
        {
          "internalType": "uint256",
          "name": "",
          "type": "uint256"
        }
      ],
      "stateMutability": "view",
      "type": "function"
    },
    {
      "inputs": [
        {
          "internalType": "uint256",
          "name": "marketId",
          "type": "uint256"
        },
        {
          "internalType": "address",
          "name": "user",
          "type": "address"
        }
      ],
      "name": "hasUserClaimed",
      "outputs": [
        {
          "internalType": "bool",
          "name": "",
          "type": "bool"
        }
      ],
      "stateMutability": "view",
      "type": "function"
    },
    {
      "inputs": [
        {
          "internalType": "uint256",
          "name": "marketId",
          "type": "uint256"
        },
        {
          "internalType": "address",
          "name": "user",
          "type": "address"
        }
      ],
      "name": "hasUserSupportClaimed",
      "outputs": [
        {
          "internalType": "bool",
          "name": "",
          "type": "bool"
        }
      ],
      "stateMutability": "view",
      "type": "function"
    },
    {
      "inputs": [],
      "name": "marketManager",
      "outputs": [
        {
          "internalType": "address",
          "name": "",
          "type": "address"
        }
      ],
      "stateMutability": "view",
      "type": "function"
    },
    {
      "inputs": [
        {
          "internalType": "uint256",
          "name": "",
          "type": "uint256"
        },
        {
          "internalType": "address",
          "name": "",
          "type": "address"
        }
      ],
      "name": "marketPools",
      "outputs": [
        {
          "internalType": "uint256",
          "name": "",
          "type": "uint256"
        }
      ],
      "stateMutability": "view",
      "type": "function"
    },
    {
      "inputs": [
        {
          "internalType": "uint256",
          "name": "",
          "type": "uint256"
        },
        {
          "internalType": "uint256",
          "name": "",
          "type": "uint256"
        },
        {
          "internalType": "address",
          "name": "",
          "type": "address"
        }
      ],
      "name": "optionPools",
      "outputs": [
        {
          "internalType": "uint256",
          "name": "",
          "type": "uint256"
        }
      ],
      "stateMutability": "view",
      "type": "function"
    },
    {
      "inputs": [],
      "name": "owner",
      "outputs": [
        {
          "internalType": "address",
          "name": "",
          "type": "address"
        }
      ],
      "stateMutability": "view",
      "type": "function"
    },
    {
      "inputs": [],
      "name": "partner",
      "outputs": [
        {
          "internalType": "address",
          "name": "",
          "type": "address"
        }
      ],
      "stateMutability": "view",
      "type": "function"
    },
    {
      "inputs": [
        {
          "internalType": "uint256",
          "name": "marketId",
          "type": "uint256"
        },
        {
          "internalType": "address",
          "name": "user",
          "type": "address"
        },
        {
          "internalType": "address",
          "name": "token",
          "type": "address"
        },
        {
          "internalType": "uint256",
          "name": "amount",
          "type": "uint256"
        },
        {
          "internalType": "uint256",
          "name": "option",
          "type": "uint256"
        }
      ],
      "name": "placeStake",
      "outputs": [],
      "stateMutability": "nonpayable",
      "type": "function"
    },
    {
      "inputs": [
        {
          "internalType": "address",
          "name": "",
          "type": "address"
        }
      ],
      "name": "platformPools",
      "outputs": [
        {
          "internalType": "uint256",
          "name": "",
          "type": "uint256"
        }
      ],
      "stateMutability": "view",
      "type": "function"
    },
    {
      "inputs": [],
      "name": "renounceOwnership",
      "outputs": [],
      "stateMutability": "nonpayable",
      "type": "function"
    },
    {
      "inputs": [
        {
          "internalType": "address",
          "name": "_marketManager",
          "type": "address"
        }
      ],
      "name": "setMarketManager",
      "outputs": [],
      "stateMutability": "nonpayable",
      "type": "function"
    },
    {
      "inputs": [
        {
          "internalType": "address",
          "name": "_partner",
          "type": "address"
        }
      ],
      "name": "setPartner",
      "outputs": [],
      "stateMutability": "nonpayable",
      "type": "function"
    },
    {
      "inputs": [
        {
          "internalType": "uint256",
          "name": "marketId",
          "type": "uint256"
        },
        {
          "internalType": "address",
          "name": "user",
          "type": "address"
        },
        {
          "internalType": "address",
          "name": "token",
          "type": "address"
        },
        {
          "internalType": "uint256",
          "name": "amount",
          "type": "uint256"
        }
      ],
      "name": "supportMarket",
      "outputs": [],
      "stateMutability": "nonpayable",
      "type": "function"
    },
    {
      "inputs": [
        {
          "internalType": "uint256",
          "name": "",
          "type": "uint256"
        },
        {
          "internalType": "address",
          "name": "",
          "type": "address"
        }
      ],
      "name": "supportPools",
      "outputs": [
        {
          "internalType": "uint256",
          "name": "",
          "type": "uint256"
        }
      ],
      "stateMutability": "view",
      "type": "function"
    },
    {
      "inputs": [
        {
          "internalType": "address",
          "name": "newOwner",
          "type": "address"
        }
      ],
      "name": "transferOwnership",
      "outputs": [],
      "stateMutability": "nonpayable",
      "type": "function"
    },
    {
      "inputs": [
        {
          "internalType": "address",
          "name": "creator",
          "type": "address"
        },
        {
          "internalType": "address",
          "name": "token",
          "type": "address"
        },
        {
          "internalType": "uint256",
          "name": "amount",
          "type": "uint256"
        }
      ],
      "name": "transferToCreator",
      "outputs": [],
      "stateMutability": "nonpayable",
      "type": "function"
    },
    {
      "inputs": [
        {
          "internalType": "uint256",
          "name": "",
          "type": "uint256"
        },
        {
          "internalType": "address",
          "name": "",
          "type": "address"
        },
        {
          "internalType": "uint256",
          "name": "",
          "type": "uint256"
        }
      ],
      "name": "userBetOptions",
      "outputs": [
        {
          "internalType": "uint256",
          "name": "",
          "type": "uint256"
        }
      ],
      "stateMutability": "view",
      "type": "function"
    },
    {
      "inputs": [
        {
          "internalType": "uint256",
          "name": "",
          "type": "uint256"
        },
        {
          "internalType": "address",
          "name": "",
          "type": "address"
        }
      ],
      "name": "userClaimed",
      "outputs": [
        {
          "internalType": "bool",
          "name": "",
          "type": "bool"
        }
      ],
      "stateMutability": "view",
      "type": "function"
    },
    {
      "inputs": [
        {
          "internalType": "uint256",
          "name": "",
          "type": "uint256"
        },
        {
          "internalType": "address",
          "name": "",
          "type": "address"
        },
        {
          "internalType": "address",
          "name": "",
          "type": "address"
        }
      ],
      "name": "userStakes",
      "outputs": [
        {
          "internalType": "uint256",
          "name": "",
          "type": "uint256"
        }
      ],
      "stateMutability": "view",
      "type": "function"
    },
    {
      "inputs": [
        {
          "internalType": "uint256",
          "name": "",
          "type": "uint256"
        },
        {
          "internalType": "address",
          "name": "",
          "type": "address"
        }
      ],
      "name": "userSupportClaimed",
      "outputs": [
        {
          "internalType": "bool",
          "name": "",
          "type": "bool"
        }
      ],
      "stateMutability": "view",
      "type": "function"
    },
    {
      "inputs": [
        {
          "internalType": "uint256",
          "name": "",
          "type": "uint256"
        },
        {
          "internalType": "address",
          "name": "",
          "type": "address"
        },
        {
          "internalType": "address",
          "name": "",
          "type": "address"
        }
      ],
      "name": "userSupports",
      "outputs": [
        {
          "internalType": "uint256",
          "name": "",
          "type": "uint256"
        }
      ],
      "stateMutability": "view",
      "type": "function"
    },
    {
      "inputs": [
        {
          "internalType": "address",
          "name": "token",
          "type": "address"
        },
        {
          "internalType": "uint256",
          "name": "amount",
          "type": "uint256"
        },
        {
          "internalType": "address",
          "name": "to",
          "type": "address"
        }
      ],
      "name": "withdraw",
      "outputs": [],
      "stateMutability": "nonpayable",
      "type": "function"
    },
    {
      "inputs": [
        {
          "internalType": "address",
          "name": "token",
          "type": "address"
        },
        {
          "internalType": "uint256",
          "name": "amount",
          "type": "uint256"
        },
        {
          "internalType": "address",
          "name": "to",
          "type": "address"
        }
      ],
      "name": "withdrawPlatformFunds",
      "outputs": [],
      "stateMutability": "nonpayable",
      "type": "function"
    },
    {
      "inputs": [
        {
          "internalType": "uint256",
          "name": "marketId",
          "type": "uint256"
        },
        {
          "internalType": "address",
          "name": "user",
          "type": "address"
        },
        {
          "internalType": "address",
          "name": "token",
          "type": "address"
        },
        {
          "internalType": "uint256",
          "name": "amount",
          "type": "uint256"
        }
      ],
      "name": "withdrawSupport",
      "outputs": [],
      "stateMutability": "nonpayable",
      "type": "function"
    },
    {
      "stateMutability": "payable",
      "type": "receive"
    }
  ],
  "bytecode": "0x608034620000de57601f6200227338819003918201601f19168301916001600160401b03831184841017620000e3578084926040948552833981010312620000de576200005a60206200005283620000f9565b9201620000f9565b906001600160a01b03908116908115620000c5576000549260018060a01b03199280848616176000558260405195167f8be0079c531659141344cd1fd0a4f28419497f9722a3daafe3b4186f6b6457e0600080a31690600154161760015561216490816200010f8239f35b604051631e4fbdf760e01b815260006004820152602490fd5b600080fd5b634e487b7160e01b600052604160045260246000fd5b51906001600160a01b0382168203620000de5756fe60806040818152600480361015610021575b505050361561001f57600080fd5b005b600092833560e01c908163055c796b14611b6f5750806307c7a72d1461163d578063112cd223146119545780631abf870514611913578063256ba741146117375780632f2e594e14610a2e5780632f7c165e146117765780632ff44b6f1461127457806334eba1661461173757806339adac4d146116835780633beb98421461163d57806341ed2c121461161457806341ee37d1146115f857806348fef595146113cd5780634f44289d14610a6d57806352238fdd146113a3578063539aa77f14611386578063593f35f4146112ba5780635d1c5820146112745780635e0083da14611120578063674d20cb14610f0e57806367561d9314610e6357806369328dec14610d3b5780636c1b5c8a14610d065780636e861c0e14610ca05780636ee02a9b14610b59578063715018a614610b0e5780637a3cf74214610aae5780637de4263414610a6d578063847cf78214610a2e5780638da5cb5b14610a0657806395f4109514610880578063a16d5960146107c0578063a24693ed14610774578063be10862b1461074b578063c15d980714610630578063d5b9221b146105f2578063d82aff11146104fd578063dc4ce3491461026f578063f0824f33146102b1578063f133a04f1461026f5763f2fde38b03610011573461026b57602036600319011261026b57610211611ba3565b9061021a611ca0565b6001600160a01b0391821692831561025557505082546001600160a01b0319811683178455166000805160206120f88339815191528380a380f35b51631e4fbdf760e01b8152908101849052602490fd5b8280fd5b5050346102ad578060209261028336611c76565b9183526006865283832090835285528282206001600160a01b039091168252845220549051908152f35b5080fd5b509190346102ad57806003193601126102ad576102cc611ba3565b906024359133845260206002815260ff8386205416156104a85783156102f28115611d14565b6107d090818602918683041417156104955785939291612710889204916103198388611dec565b6001600160a01b0394851697909490886103e35796849161034b60008051602061209883398151915299471015611e06565b826103bf575b5050505b8688528152838720610368848254611df9565b9055856000805160206120d8833981519152608086518681528785820152601d888201527f44697265637420706c6174666f726d20706f6f6c206164646974696f6e0000006060820152a28351928352820152a280f35b81806103db948193600154165af16103d5611e5d565b50611e9c565b82888a610351565b86516370a0823160e01b8152308482015290975083816024818c5afa90811561048b578a9161044c575b5060008051602061209883398151915297610429911015611d94565b8380610437575b5050610355565b610445916001541689611ef9565b8883610430565b90508381813d8311610484575b6104638183611d5b565b81010312610480575160008051602061209883398151915261040d565b8980fd5b503d610459565b87513d8c823e3d90fd5b634e487b7160e01b865260118752602486fd5b8560849184519162461bcd60e51b8352820152603c602482015260008051602061211883398151915260448201527b18dd1cc818d85b88185919081d1bc81c1b185d199bdc9b481c1bdbdb60221b6064820152fd5b508290346102ad5760203660031901126102ad57610519611ba3565b610521611ca0565b6001600160a01b0390811691821561059e5750600380546001600160a01b0319811684179091558284526002602052938320805460ff19166001179055919290918291167f6d5236c24f887cea37fd19d8fffc6c47b564af445baf220a6c7f9a58bb6ae04e8480a36000805160206120b88339815191528280a280f35b608490602086519162461bcd60e51b8352820152602860248201527f54726561737572793a20496e76616c6964206d61726b6574206d616e61676572604482015267206164647265737360c01b6064820152fd5b5050346102ad5760203660031901126102ad5760209160ff9082906001600160a01b0361061d611ba3565b1681526002855220541690519015158152f35b509190346102ad5761064136611c09565b9392959091953386526020916002835260ff8588205416156106fa5785156106b957508596816106b49697526009835284882060018060a01b0380921689528352848820931692838852825283872061069b878254611df9565b9055865260078152828620918652528320918254611df9565b905580f35b606490838087519262461bcd60e51b845283015260248201527f54726561737572793a20496e76616c696420737570706f727420616d6f756e746044820152fd5b845162461bcd60e51b8152908101839052603760248201526000805160206121188339815191526044820152766374732063616e20737570706f7274206d61726b65747360481b6064820152608490fd5b5050346102ad57816003193601126102ad5760015490516001600160a01b039091168152602090f35b503461026b57606036600319011261026b576020928291610793611bbe565b90358252600a85528282206001600160a01b03909116825284528181206044358252845220549051908152f35b503461026b57602036600319011261026b576107da611ba3565b906107e3611ca0565b6001600160a01b03918216928315610833575050600180546001600160a01b031981168417909155167fc853be2b3168a7fe00e46da23214c5345a752dc61cd3300d7f255f8ae55345878380a380f35b906020608492519162461bcd60e51b8352820152602160248201527f54726561737572793a20496e76616c696420706172746e6572206164647265736044820152607360f81b6064820152fd5b509190346102ad5760a03660031901126102ad5782359061089f611bbe565b6001600160a01b03946044358681169290839003610a025760643594608435913388526020936002855260ff878a205416156109b457871561097157508798826106b498995260088552868a20911690818a528452858920858a52845285892061090a898254611df9565b9055818952600a845285892090895283528488208289528352848820610931888254611df9565b9055808852600583528488208489528352848820610950888254611df9565b90558752600682528387209087528152828620918652528320918254611df9565b865162461bcd60e51b8152908101859052601e60248201527f54726561737572793a20496e76616c6964207374616b6520616d6f756e7400006044820152606490fd5b865162461bcd60e51b8152908101859052603460248201526000805160206121188339815191526044820152736374732063616e20706c616365207374616b657360601b6064820152608490fd5b8580fd5b5050346102ad57816003193601126102ad57905490516001600160a01b039091168152602090f35b5050346102ad5780602092610a4236611bd4565b918352600886528383206001600160a01b039182168452865283832091168252845220549051908152f35b503461026b578160031936011261026b576020928291610a8b611bbe565b90358252600785528282206001600160a01b039091168252845220549051908152f35b503461026b578160031936011261026b5760209282610b07923591610ad1611bbe565b838252600587528282206001600160a01b0390911680835290875282822054938252600787528282209082528652205490611df9565b9051908152f35b8334610b565780600319360112610b5657610b27611ca0565b80546001600160a01b03198116825581906001600160a01b03166000805160206120f88339815191528280a380f35b80fd5b508234610b56576020806003193601126102ad578235916001600160401b038084116102ad57366023850112156102ad57838501359081116102ad57602490600595368383891b88010111610c9c57610bb782989796949598612060565b93610bc488519586611d5b565b828552610bd083612060565b858a019790601f1901368937865b848110610c265750505050505083519485948186019282875251809352850193925b828110610c0f57505050500390f35b835185528695509381019392810192600101610c00565b80829b9897999a9b1b86818501013560018060a01b038116809103610c985788528489528b882054908a51831015610c86578a018901526000198114610c7457600101999897959699610bde565b634e487b7160e01b8752601184528587fd5b634e487b7160e01b8952603286528789fd5b8880fd5b8380fd5b5050346102ad5760203660031901126102ad57610cbb611ba3565b610cc3611ca0565b6001600160a01b03168083526002602052908220805460ff191690557f54142b7cb3ceaa9e564243ce4cc2303723c842a1144192de6b3c594f68b16a9a8280a280f35b503461026b57602036600319011261026b5760209282916001600160a01b03610d2d611ba3565b168252845220549051908152f35b503461026b57610d4a36611c42565b9193610d54611ca0565b6001600160a01b0383811695879190610d6e881515611f9a565b610d79851515611d14565b169485610dc1575090610db982808086958660008051602061213883398151915299610da960209a471015611e06565b5af1610db3611e5d565b50611fe4565b51908152a380f35b90508151906370a0823160e01b82523090820152602081602481885afa908115610e59578791610e1c575b5090610e178360008051602061213883398151915295610e1182602097961015611d94565b87611ef9565b610db9565b929190506020833d8211610e51575b81610e3860209383611d5b565b81010312610e4d579151909190610e17610dec565b8680fd5b3d9150610e2b565b82513d89823e3d90fd5b50903461026b57602036600319011261026b57610e7e611ba3565b610e86611ca0565b6001600160a01b0316918215610ec1575081835260026020528220805460ff191660011790556000805160206120b88339815191528280a280f35b6020608492519162461bcd60e51b8352820152602260248201527f54726561737572793a20496e76616c696420636f6e7472616374206164647265604482015261737360f01b6064820152fd5b503461026b57610f1d36611c42565b91939092610f29611ca0565b6001600160a01b0383811695610f40871515611f9a565b610f4b861515611d14565b16948587526020938285528584892054106110c857878791828252848752858220610f77898254611dec565b905582610ffe57916000805160206120788339815191528789610fbc85808060809d9c9a986000805160206120d88339815191529f60199d9b610da982471015611e06565b8651908152a38688528352808088205493815194855284015282015278141b185d199bdc9b48199d5b991cc81dda5d1a191c985dd85b603a1b6060820152a280f35b91505083516370a0823160e01b8152308482015285816024818b5afa9081156110be57908892918a91611072575b5091600080516020612078833981519152878961106d8160809b9a98966110676000805160206120d88339815191529e60199c9a1015611d94565b86611ef9565b610fbc565b8095935087809795939892503d83116110b7575b6110908183611d5b565b81010312610c9857925193949193909291879160008051602061207883398151915261102c565b503d611086565b85513d8b823e3d90fd5b835162461bcd60e51b8152808401869052602c60248201527f54726561737572793a20496e73756666696369656e7420706c6174666f726d2060448201526b706f6f6c2062616c616e636560a01b6064820152608490fd5b508290346102ad5761113136611c09565b9295909333865260206002815260ff8388205416156112275784156111dd57878752600b81528287206001600160a01b0385168089529082528388205490929060ff166111a05750869761119d9752600b8152828820918852528520600160ff19825416179055612030565b80f35b60649184519162461bcd60e51b83528201526019602482015278151c99585cdd5c9e4e88105b1c9958591e4818db185a5b5959603a1b6044820152fd5b608492519162461bcd60e51b8352820152602160248201527f54726561737572793a20496e76616c69642077696e6e696e677320616d6f756e6044820152601d60fa1b6064820152fd5b608492519162461bcd60e51b8352820152603660248201526000805160206121188339815191526044820152756374732063616e20636c61696d2077696e6e696e677360501b6064820152fd5b503461026b578160031936011261026b578160209360ff92611294611bbe565b90358252600c86528282206001600160a01b039091168252855220549151911615158152f35b508290346102ad576112cb36611c09565b925092338552600260205260ff8686205416156113375782156112f4575061119d939450612030565b606490602087519162461bcd60e51b8352820152601f60248201527f54726561737572793a20496e76616c696420726566756e6420616d6f756e74006044820152fd5b608490602087519162461bcd60e51b8352820152603560248201526000805160206121188339815191526044820152746374732063616e20636c61696d20726566756e647360581b6064820152fd5b5050346102ad57816003193601126102ad57602090516101f48152f35b508234610b56576020366003190112610b5657506113c19035611ccc565b82519182526020820152f35b509190346102ad57806003193601126102ad576113e8611ba3565b90602435913384526020946002865260ff8386205416156115a75784956114128596951515611d14565b61141b86611ccc565b6001600160a01b03948516979194909391886114ff5796849161144f60008051602061209883398151915299471015611e06565b826114e1575b50506114619085611dec565b908789528252611475858920918254611df9565b9055856000805160206120d88339815191526114d26114948587611dec565b87519182918260809181526040602082015260186040820152772932b3bab630b9103332b2903234b9ba3934b13aba34b7b760411b60608201520190565b0390a28351928352820152a280f35b81806114f7948193600154165af16103d5611e5d565b828838611455565b86516370a0823160e01b8152308482015290975083816024818c5afa90811561048b578a9161156c575b5060008051602061209883398151915297611545911015611d94565b8380611557575b611461915085611dec565b611565916001541689611ef9565b388361154c565b90508381813d83116115a0575b6115838183611d5b565b810103126104805751600080516020612098833981519152611529565b503d611579565b825162461bcd60e51b8152908101869052603760248201526000805160206121188339815191526044820152766374732063616e2064697374726962757465206665657360481b6064820152608490fd5b5050346102ad57816003193601126102ad576020905160648152f35b5050346102ad57816003193601126102ad5760035490516001600160a01b039091168152602090f35b503461026b578160031936011261026b578160209360ff9261165d611bbe565b90358252600b86528282206001600160a01b039091168252855220549151911615158152f35b508290346102ad5760209182600319360112610b56576116a1611ba3565b6001600160a01b031680825282845284822054928490826116cd575050505047915b8351928352820152f35b60248751809481936370a0823160e01b835230908301525afa91821561172c5780926116fc575b5050916116c3565b9091508382813d8311611725575b6117148183611d5b565b81010312610b5657505184806116f4565b503d61170a565b8551903d90823e3d90fd5b5050346102ad578060209261174b36611bd4565b918352600986528383206001600160a01b039182168452865283832091168252845220549051908152f35b508290346102ad5761178736611c09565b9295909333865260206002815260ff8388205416156118c457841561187857878752600981528287209760018060a01b0392838616998a8a52835284892093881693848a52835286858a205410611826575087988161119d995260098352848a20908a528252838920838a528252838920611803878254611dec565b905588526007815282882091885252852061181f838254611dec565b9055612030565b845162461bcd60e51b8152908101839052602660248201527f54726561737572793a20496e73756666696369656e7420737570706f72742062604482015265616c616e636560d01b6064820152608490fd5b608492519162461bcd60e51b8352820152602360248201527f54726561737572793a20496e76616c6964207769746864726177616c20616d6f6044820152621d5b9d60ea1b6064820152fd5b608492519162461bcd60e51b83528201526038602482015260008051602061211883398151915260448201527718dd1cc818d85b881dda5d1a191c985dc81cdd5c1c1bdc9d60421b6064820152fd5b503461026b578160031936011261026b576020928291611931611bbe565b90358252600585528282206001600160a01b039091168252845220549051908152f35b503461026b57606036600319011261026b5761196e611ba3565b611976611bbe565b926044353386526020916002835260ff818820541615611b1b5761199b821515611d14565b6001600160a01b03848116968715611ace5716948786611a46578080858097986119ca83969798471015611e06565b5af16119d4611e5d565b50156119f45750519081526000805160206121388339815191529190a380f35b83608492519162461bcd60e51b8352820152602860248201527f54726561737572793a20455448207472616e7366657220746f2063726561746f6044820152671c8819985a5b195960c21b6064820152fd5b50938151946370a0823160e01b865230908601528385602481895afa948515611ac4578895611a91575b5082610e1791610e1182600080516020612138833981519152981015611d94565b94508385813d8311611abd575b611aa88183611d5b565b81010312611ab95793519382611a70565b8780fd5b503d611a9e565b82513d8a823e3d90fd5b825162461bcd60e51b8152808801869052602160248201527f54726561737572793a20496e76616c69642063726561746f72206164647265736044820152607360f81b6064820152608490fd5b5162461bcd60e51b8152808501839052603b602482015260008051602061211883398151915260448201527a31ba399031b0b7103a3930b739b332b9103a379031b932b0ba37b960291b6064820152608490fd5b9291905034610c9c576020366003190112610c9c57602093906001600160a01b03611b98611ba3565b168252845220548152f35b600435906001600160a01b0382168203611bb957565b600080fd5b602435906001600160a01b0382168203611bb957565b6060906003190112611bb957600435906001600160a01b03906024358281168103611bb957916044359081168103611bb95790565b6080906003190112611bb957600435906001600160a01b03906024358281168103611bb957916044359081168103611bb9579060643590565b6060906003190112611bb9576001600160a01b036004358181168103611bb95791602435916044359081168103611bb95790565b6060906003190112611bb95760043590602435906044356001600160a01b0381168103611bb95790565b6000546001600160a01b03163303611cb457565b60405163118cdaa760e01b8152336004820152602490fd5b906101f491828102928184041490151715611cfe57612710809204916064830283810460641484151715611cfe570490565b634e487b7160e01b600052601160045260246000fd5b15611d1b57565b60405162461bcd60e51b8152602060048201526018602482015277151c99585cdd5c9e4e88125b9d985b1a5908185b5bdd5b9d60421b6044820152606490fd5b601f909101601f19168101906001600160401b03821190821017611d7e57604052565b634e487b7160e01b600052604160045260246000fd5b15611d9b57565b60405162461bcd60e51b8152602060048201526024808201527f54726561737572793a20496e73756666696369656e7420746f6b656e2062616c604482015263616e636560e01b6064820152608490fd5b91908203918211611cfe57565b91908201809211611cfe57565b15611e0d57565b60405162461bcd60e51b815260206004820152602260248201527f54726561737572793a20496e73756666696369656e74204554482062616c616e604482015261636560f01b6064820152608490fd5b3d15611e97573d906001600160401b038211611d7e5760405191611e8b601f8201601f191660200184611d5b565b82523d6000602084013e565b606090565b15611ea357565b60405162461bcd60e51b815260206004820152602860248201527f54726561737572793a20455448207472616e7366657220746f20706172746e656044820152671c8819985a5b195960c21b6064820152608490fd5b60405163a9059cbb60e01b602082019081526001600160a01b039384166024830152604480830195909552938152909260808201906001600160401b03821183831017611d7e57602092600092604052519082865af115611f8e576000513d611f8557508082163b155b611f6b575050565b604051635274afe760e01b81529116600482015260249150fd5b60011415611f63565b6040513d6000823e3d90fd5b15611fa157565b60405162461bcd60e51b815260206004820152601b60248201527a151c99585cdd5c9e4e88125b9d985b1a59081c9958da5c1a595b9d602a1b6044820152606490fd5b15611feb57565b60405162461bcd60e51b815260206004820152601d60248201527f54726561737572793a20455448207472616e73666572206661696c65640000006044820152606490fd5b916001600160a01b0316806120565750600080808093612054955af1610db3611e5d565b565b9161205492611ef9565b6001600160401b038111611d7e5760051b6020019056fe0d40d374fecc4dca2567cc5ab864d037f0cd1f1e9bda38c23aff691cd74629e085da6ab72d2b48932522aea80adb8ca4fab6cdeb87bc2e7f6c03fd78d3b2100e8983a1f3c3cb45c24c8226b5b805e3b6eb49686530b808534b2a920129eff6511118cdec69d543750c0863ccd71a7d9183543cd6696b187370ce3b76a9003bf88be0079c531659141344cd1fd0a4f28419497f9722a3daafe3b4186f6b6457e054726561737572793a204f6e6c7920617574686f72697a656420636f6e747261e9171aeff46c37ab955b8aff908e14ae9732bd06634fa131226cfe5c25bfd2fba164736f6c6343000814000a",
  "linkReferences": {},
  "deployedLinkReferences": {}
}