{
  "_format": "hh-sol-artifact-1",
  "contractName": "PoolVault",
  "sourceName": "contracts/P2PTreasury.sol",
  "abi": [
    {
      "inputs": [
        {
          "internalType": "address",
          "name": "initialOwner",
          "type": "address"
        },
        {
          "internalType": "address",
          "name": "_partner",
          "type": "address"
        }
      ],
      "stateMutability": "nonpayable",
      "type": "constructor"
    },
    {
      "inputs": [
        {
          "internalType": "address",
          "name": "owner",
          "type": "address"
        }
      ],
      "name": "OwnableInvalidOwner",
      "type": "error"
    },
    {
      "inputs": [
        {
          "internalType": "address",
          "name": "account",
          "type": "address"
        }
      ],
      "name": "OwnableUnauthorizedAccount",
      "type": "error"
    },
    {
      "inputs": [
        {
          "internalType": "address",
          "name": "token",
          "type": "address"
        }
      ],
      "name": "SafeERC20FailedOperation",
      "type": "error"
    },
    {
      "anonymous": false,
      "inputs": [
        {
          "indexed": true,
          "internalType": "address",
          "name": "contractAddr",
          "type": "address"
        }
      ],
      "name": "ContractAuthorized",
      "type": "event"
    },
    {
      "anonymous": false,
      "inputs": [
        {
          "indexed": true,
          "internalType": "address",
          "name": "contractAddr",
          "type": "address"
        }
      ],
      "name": "ContractDeauthorized",
      "type": "event"
    },
    {
      "anonymous": false,
      "inputs": [
        {
          "indexed": true,
          "internalType": "address",
          "name": "token",
          "type": "address"
        },
        {
          "indexed": false,
          "internalType": "uint256",
          "name": "platformAmount",
          "type": "uint256"
        },
        {
          "indexed": false,
          "internalType": "uint256",
          "name": "partnerAmount",
          "type": "uint256"
        }
      ],
      "name": "FeesDistributed",
      "type": "event"
    },
    {
      "anonymous": false,
      "inputs": [
        {
          "indexed": true,
          "internalType": "address",
          "name": "token",
          "type": "address"
        },
        {
          "indexed": false,
          "internalType": "uint256",
          "name": "amount",
          "type": "uint256"
        },
        {
          "indexed": true,
          "internalType": "address",
          "name": "to",
          "type": "address"
        }
      ],
      "name": "FundsWithdrawn",
      "type": "event"
    },
    {
      "anonymous": false,
      "inputs": [
        {
          "indexed": true,
          "internalType": "address",
          "name": "oldManager",
          "type": "address"
        },
        {
          "indexed": true,
          "internalType": "address",
          "name": "newManager",
          "type": "address"
        }
      ],
      "name": "MarketManagerUpdated",
      "type": "event"
    },
    {
      "anonymous": false,
      "inputs": [
        {
          "indexed": true,
          "internalType": "address",
          "name": "previousOwner",
          "type": "address"
        },
        {
          "indexed": true,
          "internalType": "address",
          "name": "newOwner",
          "type": "address"
        }
      ],
      "name": "OwnershipTransferred",
      "type": "event"
    },
    {
      "anonymous": false,
      "inputs": [
        {
          "indexed": true,
          "internalType": "address",
          "name": "oldPartner",
          "type": "address"
        },
        {
          "indexed": true,
          "internalType": "address",
          "name": "newPartner",
          "type": "address"
        }
      ],
      "name": "PartnerUpdated",
      "type": "event"
    },
    {
      "anonymous": false,
      "inputs": [
        {
          "indexed": true,
          "internalType": "address",
          "name": "token",
          "type": "address"
        },
        {
          "indexed": false,
          "internalType": "uint256",
          "name": "amount",
          "type": "uint256"
        },
        {
          "indexed": true,
          "internalType": "address",
          "name": "to",
          "type": "address"
        }
      ],
      "name": "PlatformFundsWithdrawn",
      "type": "event"
    },
    {
      "anonymous": false,
      "inputs": [
        {
          "indexed": true,
          "internalType": "address",
          "name": "token",
          "type": "address"
        },
        {
          "indexed": false,
          "internalType": "uint256",
          "name": "amount",
          "type": "uint256"
        },
        {
          "indexed": false,
          "internalType": "string",
          "name": "reason",
          "type": "string"
        }
      ],
      "name": "PlatformPoolUpdated",
      "type": "event"
    },
    {
      "inputs": [],
      "name": "PARTNER_FEE_BPS",
      "outputs": [
        {
          "internalType": "uint256",
          "name": "",
          "type": "uint256"
        }
      ],
      "stateMutability": "view",
      "type": "function"
    },
    {
      "inputs": [],
      "name": "PLATFORM_FEE_BPS",
      "outputs": [
        {
          "internalType": "uint256",
          "name": "",
          "type": "uint256"
        }
      ],
      "stateMutability": "view",
      "type": "function"
    },
    {
      "inputs": [
        {
          "internalType": "address",
          "name": "token",
          "type": "address"
        },
        {
          "internalType": "uint256",
          "name": "amount",
          "type": "uint256"
        }
      ],
      "name": "addToPlatformPool",
      "outputs": [],
      "stateMutability": "nonpayable",
      "type": "function"
    },
    {
      "inputs": [
        {
          "internalType": "address",
          "name": "contractAddr",
          "type": "address"
        }
      ],
      "name": "authorizeContract",
      "outputs": [],
      "stateMutability": "nonpayable",
      "type": "function"
    },
    {
      "inputs": [
        {
          "internalType": "address",
          "name": "",
          "type": "address"
        }
      ],
      "name": "authorizedContracts",
      "outputs": [
        {
          "internalType": "bool",
          "name": "",
          "type": "bool"
        }
      ],
      "stateMutability": "view",
      "type": "function"
    },
    {
      "inputs": [
        {
          "internalType": "uint256",
          "name": "totalAmount",
          "type": "uint256"
        }
      ],
      "name": "calculateFees",
      "outputs": [
        {
          "internalType": "uint256",
          "name": "platformFee",
          "type": "uint256"
        },
        {
          "internalType": "uint256",
          "name": "partnerFee",
          "type": "uint256"
        }
      ],
      "stateMutability": "pure",
      "type": "function"
    },
    {
      "inputs": [
        {
          "internalType": "uint256",
          "name": "marketId",
          "type": "uint256"
        },
        {
          "internalType": "address",
          "name": "user",
          "type": "address"
        },
        {
          "internalType": "address",
          "name": "token",
          "type": "address"
        },
        {
          "internalType": "uint256",
          "name": "amount",
          "type": "uint256"
        }
      ],
      "name": "claimRefund",
      "outputs": [],
      "stateMutability": "nonpayable",
      "type": "function"
    },
    {
      "inputs": [
        {
          "internalType": "uint256",
          "name": "marketId",
          "type": "uint256"
        },
        {
          "internalType": "address",
          "name": "user",
          "type": "address"
        },
        {
          "internalType": "address",
          "name": "token",
          "type": "address"
        },
        {
          "internalType": "uint256",
          "name": "amount",
          "type": "uint256"
        }
      ],
      "name": "claimWinnings",
      "outputs": [],
      "stateMutability": "nonpayable",
      "type": "function"
    },
    {
      "inputs": [
        {
          "internalType": "address",
          "name": "contractAddr",
          "type": "address"
        }
      ],
      "name": "deauthorizeContract",
      "outputs": [],
      "stateMutability": "nonpayable",
      "type": "function"
    },
    {
      "inputs": [
        {
          "internalType": "address",
          "name": "token",
          "type": "address"
        },
        {
          "internalType": "uint256",
          "name": "totalAmount",
          "type": "uint256"
        }
      ],
      "name": "distributeFees",
      "outputs": [],
      "stateMutability": "nonpayable",
      "type": "function"
    },
    {
      "inputs": [
        {
          "internalType": "address[]",
          "name": "tokens",
          "type": "address[]"
        }
      ],
      "name": "getAllPlatformPools",
      "outputs": [
        {
          "internalType": "uint256[]",
          "name": "balances",
          "type": "uint256[]"
        }
      ],
      "stateMutability": "view",
      "type": "function"
    },
    {
      "inputs": [
        {
          "internalType": "address",
          "name": "token",
          "type": "address"
        }
      ],
      "name": "getBalanceInfo",
      "outputs": [
        {
          "internalType": "uint256",
          "name": "contractBalance",
          "type": "uint256"
        },
        {
          "internalType": "uint256",
          "name": "platformPoolBalance",
          "type": "uint256"
        }
      ],
      "stateMutability": "view",
      "type": "function"
    },
    {
      "inputs": [
        {
          "internalType": "uint256",
          "name": "marketId",
          "type": "uint256"
        },
        {
          "internalType": "address",
          "name": "token",
          "type": "address"
        }
      ],
      "name": "getMarketPool",
      "outputs": [
        {
          "internalType": "uint256",
          "name": "",
          "type": "uint256"
        }
      ],
      "stateMutability": "view",
      "type": "function"
    },
    {
      "inputs": [
        {
          "internalType": "uint256",
          "name": "marketId",
          "type": "uint256"
        },
        {
          "internalType": "uint256",
          "name": "option",
          "type": "uint256"
        },
        {
          "internalType": "address",
          "name": "token",
          "type": "address"
        }
      ],
      "name": "getOptionPool",
      "outputs": [
        {
          "internalType": "uint256",
          "name": "",
          "type": "uint256"
        }
      ],
      "stateMutability": "view",
      "type": "function"
    },
    {
      "inputs": [
        {
          "internalType": "address",
          "name": "token",
          "type": "address"
        }
      ],
      "name": "getPlatformPool",
      "outputs": [
        {
          "internalType": "uint256",
          "name": "",
          "type": "uint256"
        }
      ],
      "stateMutability": "view",
      "type": "function"
    },
    {
      "inputs": [
        {
          "internalType": "uint256",
          "name": "marketId",
          "type": "uint256"
        },
        {
          "internalType": "address",
          "name": "token",
          "type": "address"
        }
      ],
      "name": "getSupportPool",
      "outputs": [
        {
          "internalType": "uint256",
          "name": "",
          "type": "uint256"
        }
      ],
      "stateMutability": "view",
      "type": "function"
    },
    {
      "inputs": [
        {
          "internalType": "uint256",
          "name": "marketId",
          "type": "uint256"
        },
        {
          "internalType": "address",
          "name": "user",
          "type": "address"
        },
        {
          "internalType": "address",
          "name": "token",
          "type": "address"
        }
      ],
      "name": "getUserBet",
      "outputs": [
        {
          "internalType": "uint256",
          "name": "",
          "type": "uint256"
        }
      ],
      "stateMutability": "view",
      "type": "function"
    },
    {
      "inputs": [
        {
          "internalType": "uint256",
          "name": "marketId",
          "type": "uint256"
        },
        {
          "internalType": "address",
          "name": "user",
          "type": "address"
        },
        {
          "internalType": "address",
          "name": "token",
          "type": "address"
        }
      ],
      "name": "getUserSupport",
      "outputs": [
        {
          "internalType": "uint256",
          "name": "",
          "type": "uint256"
        }
      ],
      "stateMutability": "view",
      "type": "function"
    },
    {
      "inputs": [
        {
          "internalType": "uint256",
          "name": "marketId",
          "type": "uint256"
        },
        {
          "internalType": "address",
          "name": "user",
          "type": "address"
        }
      ],
      "name": "hasUserClaimed",
      "outputs": [
        {
          "internalType": "bool",
          "name": "",
          "type": "bool"
        }
      ],
      "stateMutability": "view",
      "type": "function"
    },
    {
      "inputs": [
        {
          "internalType": "uint256",
          "name": "marketId",
          "type": "uint256"
        },
        {
          "internalType": "address",
          "name": "user",
          "type": "address"
        }
      ],
      "name": "hasUserSupportClaimed",
      "outputs": [
        {
          "internalType": "bool",
          "name": "",
          "type": "bool"
        }
      ],
      "stateMutability": "view",
      "type": "function"
    },
    {
      "inputs": [],
      "name": "marketManager",
      "outputs": [
        {
          "internalType": "address",
          "name": "",
          "type": "address"
        }
      ],
      "stateMutability": "view",
      "type": "function"
    },
    {
      "inputs": [
        {
          "internalType": "uint256",
          "name": "",
          "type": "uint256"
        },
        {
          "internalType": "address",
          "name": "",
          "type": "address"
        }
      ],
      "name": "marketPools",
      "outputs": [
        {
          "internalType": "uint256",
          "name": "",
          "type": "uint256"
        }
      ],
      "stateMutability": "view",
      "type": "function"
    },
    {
      "inputs": [
        {
          "internalType": "uint256",
          "name": "",
          "type": "uint256"
        },
        {
          "internalType": "uint256",
          "name": "",
          "type": "uint256"
        },
        {
          "internalType": "address",
          "name": "",
          "type": "address"
        }
      ],
      "name": "optionPools",
      "outputs": [
        {
          "internalType": "uint256",
          "name": "",
          "type": "uint256"
        }
      ],
      "stateMutability": "view",
      "type": "function"
    },
    {
      "inputs": [],
      "name": "owner",
      "outputs": [
        {
          "internalType": "address",
          "name": "",
          "type": "address"
        }
      ],
      "stateMutability": "view",
      "type": "function"
    },
    {
      "inputs": [],
      "name": "partner",
      "outputs": [
        {
          "internalType": "address",
          "name": "",
          "type": "address"
        }
      ],
      "stateMutability": "view",
      "type": "function"
    },
    {
      "inputs": [
        {
          "internalType": "uint256",
          "name": "marketId",
          "type": "uint256"
        },
        {
          "internalType": "address",
          "name": "user",
          "type": "address"
        },
        {
          "internalType": "address",
          "name": "token",
          "type": "address"
        },
        {
          "internalType": "uint256",
          "name": "amount",
          "type": "uint256"
        },
        {
          "internalType": "uint256",
          "name": "option",
          "type": "uint256"
        }
      ],
      "name": "placeBet",
      "outputs": [],
      "stateMutability": "nonpayable",
      "type": "function"
    },
    {
      "inputs": [
        {
          "internalType": "address",
          "name": "",
          "type": "address"
        }
      ],
      "name": "platformPools",
      "outputs": [
        {
          "internalType": "uint256",
          "name": "",
          "type": "uint256"
        }
      ],
      "stateMutability": "view",
      "type": "function"
    },
    {
      "inputs": [],
      "name": "renounceOwnership",
      "outputs": [],
      "stateMutability": "nonpayable",
      "type": "function"
    },
    {
      "inputs": [
        {
          "internalType": "address",
          "name": "_marketManager",
          "type": "address"
        }
      ],
      "name": "setMarketManager",
      "outputs": [],
      "stateMutability": "nonpayable",
      "type": "function"
    },
    {
      "inputs": [
        {
          "internalType": "address",
          "name": "_partner",
          "type": "address"
        }
      ],
      "name": "setPartner",
      "outputs": [],
      "stateMutability": "nonpayable",
      "type": "function"
    },
    {
      "inputs": [
        {
          "internalType": "uint256",
          "name": "marketId",
          "type": "uint256"
        },
        {
          "internalType": "address",
          "name": "user",
          "type": "address"
        },
        {
          "internalType": "address",
          "name": "token",
          "type": "address"
        },
        {
          "internalType": "uint256",
          "name": "amount",
          "type": "uint256"
        }
      ],
      "name": "supportMarket",
      "outputs": [],
      "stateMutability": "nonpayable",
      "type": "function"
    },
    {
      "inputs": [
        {
          "internalType": "uint256",
          "name": "",
          "type": "uint256"
        },
        {
          "internalType": "address",
          "name": "",
          "type": "address"
        }
      ],
      "name": "supportPools",
      "outputs": [
        {
          "internalType": "uint256",
          "name": "",
          "type": "uint256"
        }
      ],
      "stateMutability": "view",
      "type": "function"
    },
    {
      "inputs": [
        {
          "internalType": "address",
          "name": "newOwner",
          "type": "address"
        }
      ],
      "name": "transferOwnership",
      "outputs": [],
      "stateMutability": "nonpayable",
      "type": "function"
    },
    {
      "inputs": [
        {
          "internalType": "uint256",
          "name": "",
          "type": "uint256"
        },
        {
          "internalType": "address",
          "name": "",
          "type": "address"
        },
        {
          "internalType": "uint256",
          "name": "",
          "type": "uint256"
        }
      ],
      "name": "userBetOptions",
      "outputs": [
        {
          "internalType": "uint256",
          "name": "",
          "type": "uint256"
        }
      ],
      "stateMutability": "view",
      "type": "function"
    },
    {
      "inputs": [
        {
          "internalType": "uint256",
          "name": "",
          "type": "uint256"
        },
        {
          "internalType": "address",
          "name": "",
          "type": "address"
        },
        {
          "internalType": "address",
          "name": "",
          "type": "address"
        }
      ],
      "name": "userBets",
      "outputs": [
        {
          "internalType": "uint256",
          "name": "",
          "type": "uint256"
        }
      ],
      "stateMutability": "view",
      "type": "function"
    },
    {
      "inputs": [
        {
          "internalType": "uint256",
          "name": "",
          "type": "uint256"
        },
        {
          "internalType": "address",
          "name": "",
          "type": "address"
        }
      ],
      "name": "userClaimed",
      "outputs": [
        {
          "internalType": "bool",
          "name": "",
          "type": "bool"
        }
      ],
      "stateMutability": "view",
      "type": "function"
    },
    {
      "inputs": [
        {
          "internalType": "uint256",
          "name": "",
          "type": "uint256"
        },
        {
          "internalType": "address",
          "name": "",
          "type": "address"
        }
      ],
      "name": "userSupportClaimed",
      "outputs": [
        {
          "internalType": "bool",
          "name": "",
          "type": "bool"
        }
      ],
      "stateMutability": "view",
      "type": "function"
    },
    {
      "inputs": [
        {
          "internalType": "uint256",
          "name": "",
          "type": "uint256"
        },
        {
          "internalType": "address",
          "name": "",
          "type": "address"
        },
        {
          "internalType": "address",
          "name": "",
          "type": "address"
        }
      ],
      "name": "userSupports",
      "outputs": [
        {
          "internalType": "uint256",
          "name": "",
          "type": "uint256"
        }
      ],
      "stateMutability": "view",
      "type": "function"
    },
    {
      "inputs": [
        {
          "internalType": "address",
          "name": "token",
          "type": "address"
        },
        {
          "internalType": "uint256",
          "name": "amount",
          "type": "uint256"
        },
        {
          "internalType": "address",
          "name": "to",
          "type": "address"
        }
      ],
      "name": "withdraw",
      "outputs": [],
      "stateMutability": "nonpayable",
      "type": "function"
    },
    {
      "inputs": [
        {
          "internalType": "address",
          "name": "token",
          "type": "address"
        },
        {
          "internalType": "uint256",
          "name": "amount",
          "type": "uint256"
        },
        {
          "internalType": "address",
          "name": "to",
          "type": "address"
        }
      ],
      "name": "withdrawPlatformFunds",
      "outputs": [],
      "stateMutability": "nonpayable",
      "type": "function"
    },
    {
      "inputs": [
        {
          "internalType": "uint256",
          "name": "marketId",
          "type": "uint256"
        },
        {
          "internalType": "address",
          "name": "user",
          "type": "address"
        },
        {
          "internalType": "address",
          "name": "token",
          "type": "address"
        },
        {
          "internalType": "uint256",
          "name": "amount",
          "type": "uint256"
        }
      ],
      "name": "withdrawSupport",
      "outputs": [],
      "stateMutability": "nonpayable",
      "type": "function"
    },
    {
      "stateMutability": "payable",
      "type": "receive"
    }
  ],
  "bytecode": "0x608034620000de57601f6200206838819003918201601f19168301916001600160401b03831184841017620000e3578084926040948552833981010312620000de576200005a60206200005283620000f9565b9201620000f9565b906001600160a01b03908116908115620000c5576000549260018060a01b03199280848616176000558260405195167f8be0079c531659141344cd1fd0a4f28419497f9722a3daafe3b4186f6b6457e0600080a316906001541617600155611f5990816200010f8239f35b604051631e4fbdf760e01b815260006004820152602490fd5b600080fd5b634e487b7160e01b600052604160045260246000fd5b51906001600160a01b0382168203620000de5756fe60806040818152600480361015610021575b505050361561001f57600080fd5b005b600092833560e01c908163055c796b146119b25750806307c7a72d146116d75780631abf870514610ad5578063256ba741146117d15780632f7c165e146118105780632ff44b6f1461130357806334eba166146117d157806339adac4d1461171d5780633beb9842146116d757806341ed2c12146116ae57806341ee37d11461169257806348fef5951461145c5780634f44289d14610a9457806352238fdd14611432578063539aa77f14611415578063553b7cbb1461091b578063593f35f4146113495780635d1c5820146113035780635e0083da146111ab578063674d20cb14610f5f57806367561d9314610ea257806369328dec14610d565780636c1b5c8a14610d215780636e861c0e14610cbb5780636ee02a9b14610b73578063715018a614610b165780637a3cf74214610ad55780637de4263414610a945780638da5cb5b14610a6c578063a16d5960146109a6578063a24693ed1461095a578063b90f9cb31461091b578063be10862b146108f2578063c15d9807146107d6578063d5b9221b14610798578063d82aff111461068e578063dc4ce34914610276578063e014601c14610505578063f0824f33146102b8578063f133a04f146102765763f2fde38b036100115734610272576020366003190112610272576102066119e6565b9061020f611ae3565b6001600160a01b0391821692831561025c57505082546001600160a01b0319811683178455167f8be0079c531659141344cd1fd0a4f28419497f9722a3daafe3b4186f6b6457e08380a380f35b51631e4fbdf760e01b8152908101849052602490fd5b8280fd5b5050346102b4578060209261028a36611ab9565b9183526006865283832090835285528282206001600160a01b039091168252845220549051908152f35b5080fd5b509190346102b457806003193601126102b4576102d36119e6565b906024359133845260206002815260ff8386205416156104af5783156102f98115611b57565b6107d0908186029186830414171561049c5785939291612710889204916103208388611c33565b6001600160a01b0394851697909490886103ea57968491610352600080516020611ec483398151915299471015611c4d565b826103c6575b5050505b868852815283872061036f848254611c40565b905585600080516020611ee4833981519152608086518681528785820152601d888201527f44697265637420706c6174666f726d20706f6f6c206164646974696f6e0000006060820152a28351928352820152a280f35b81806103e2948193600154165af16103dc611ca4565b50611ce4565b82888a610358565b86516370a0823160e01b8152308482015290975083816024818c5afa908115610492578a91610453575b50600080516020611ec483398151915297610430911015611bdb565b838061043e575b505061035c565b61044c916001541689611d41565b8883610437565b90508381813d831161048b575b61046a8183611ba3565b810103126104875751600080516020611ec4833981519152610414565b8980fd5b503d610460565b87513d8c823e3d90fd5b634e487b7160e01b865260118752602486fd5b8560849184519162461bcd60e51b8352820152603c6024820152600080516020611f0483398151915260448201527f6374732063616e2061646420746f20706c6174666f726d20706f6f6c000000006064820152fd5b509190346102b45760a03660031901126102b457823590610524611a01565b6001600160a01b0394604435868116929083900361068a5760643594608435913388526020936002855260ff878a2054161561063e5787156105fb57508798826105f698995260088552868a20911690818a528452858920858a52845285892061058f898254611c40565b9055818952600a8452858920908952835284882082895283528488206105b6888254611c40565b90558088526005835284882084895283528488206105d5888254611c40565b90558752600682528387209087528152828620918652528320918254611c40565b905580f35b865162461bcd60e51b8152908101859052601c60248201527f54726561737572793a20496e76616c69642062657420616d6f756e74000000006044820152606490fd5b865162461bcd60e51b815290810185905260326024820152600080516020611f048339815191526044820152716374732063616e20706c616365206265747360701b6064820152608490fd5b8580fd5b508290346102b45760203660031901126102b4576106aa6119e6565b6106b2611ae3565b6001600160a01b03908116918215610744575081929360035490836bffffffffffffffffffffffff60a01b83161760035583865260026020528520600160ff19825416179055167f6d5236c24f887cea37fd19d8fffc6c47b564af445baf220a6c7f9a58bb6ae04e8480a37f8983a1f3c3cb45c24c8226b5b805e3b6eb49686530b808534b2a920129eff6518280a280f35b608490602086519162461bcd60e51b8352820152602860248201527f54726561737572793a20496e76616c6964206d61726b6574206d616e61676572604482015267206164647265737360c01b6064820152fd5b5050346102b45760203660031901126102b45760209160ff9082906001600160a01b036107c36119e6565b1681526002855220541690519015158152f35b509190346102b4576107e736611a4c565b9392959091953386526020916002835260ff85882054161561089b57851561085a57508596816105f69697526009835284882060018060a01b03809216895283528488209316928388528252838720610841878254611c40565b9055865260078152828620918652528320918254611c40565b606490838087519262461bcd60e51b845283015260248201527f54726561737572793a20496e76616c696420737570706f727420616d6f756e746044820152fd5b845162461bcd60e51b815290810183905260376024820152600080516020611f0483398151915260448201527f6374732063616e20737570706f7274206d61726b6574730000000000000000006064820152608490fd5b5050346102b457816003193601126102b45760015490516001600160a01b039091168152602090f35b5050346102b4578060209261092f36611a17565b918352600886528383206001600160a01b039182168452865283832091168252845220549051908152f35b5034610272576060366003190112610272576020928291610979611a01565b90358252600a85528282206001600160a01b03909116825284528181206044358252845220549051908152f35b5034610272576020366003190112610272576109c06119e6565b906109c9611ae3565b6001600160a01b03918216928315610a1f575050600154826bffffffffffffffffffffffff60a01b821617600155167fc853be2b3168a7fe00e46da23214c5345a752dc61cd3300d7f255f8ae55345878380a380f35b906020608492519162461bcd60e51b8352820152602160248201527f54726561737572793a20496e76616c696420706172746e6572206164647265736044820152607360f81b6064820152fd5b5050346102b457816003193601126102b457905490516001600160a01b039091168152602090f35b50346102725781600319360112610272576020928291610ab2611a01565b90358252600785528282206001600160a01b039091168252845220549051908152f35b50346102725781600319360112610272576020928291610af3611a01565b90358252600585528282206001600160a01b039091168252845220549051908152f35b8334610b705780600319360112610b7057610b2f611ae3565b80546001600160a01b03198116825581906001600160a01b03167f8be0079c531659141344cd1fd0a4f28419497f9722a3daafe3b4186f6b6457e08280a380f35b80fd5b508234610b70576020806003193601126102b45782359167ffffffffffffffff8084116102b457366023850112156102b457838501359081116102b457602490600595368383891b88010111610cb757610bd282989796949598611eab565b93610bdf88519586611ba3565b828552610beb83611eab565b858a019790601f1901368937865b848110610c415750505050505083519485948186019282875251809352850193925b828110610c2a57505050500390f35b835185528695509381019392810192600101610c1b565b80829b9897999a9b1b86818501013560018060a01b038116809103610cb35788528489528b882054908a51831015610ca1578a018901526000198114610c8f57600101999897959699610bf9565b634e487b7160e01b8752601184528587fd5b634e487b7160e01b8952603286528789fd5b8880fd5b8380fd5b5050346102b45760203660031901126102b457610cd66119e6565b610cde611ae3565b6001600160a01b03168083526002602052908220805460ff191690557f54142b7cb3ceaa9e564243ce4cc2303723c842a1144192de6b3c594f68b16a9a8280a280f35b50346102725760203660031901126102725760209282916001600160a01b03610d486119e6565b168252845220549051908152f35b503461027257610d6536611a85565b9193610d6f611ae3565b6001600160a01b0383811695879190610d89881515611de3565b610d94851515611b57565b169485610dee575090610de68280808695867fe9171aeff46c37ab955b8aff908e14ae9732bd06634fa131226cfe5c25bfd2fb99610dd660209a471015611c4d565b5af1610de0611ca4565b50611e2f565b51908152a380f35b90508151906370a0823160e01b82523090820152602081602481885afa908115610e98578791610e5b575b5090610e56837fe9171aeff46c37ab955b8aff908e14ae9732bd06634fa131226cfe5c25bfd2fb95610e5082602097961015611bdb565b87611d41565b610de6565b929190506020833d8211610e90575b81610e7760209383611ba3565b81010312610e8c579151909190610e56610e19565b8680fd5b3d9150610e6a565b82513d89823e3d90fd5b50903461027257602036600319011261027257610ebd6119e6565b610ec5611ae3565b6001600160a01b0316918215610f12575081835260026020528220805460ff191660011790557f8983a1f3c3cb45c24c8226b5b805e3b6eb49686530b808534b2a920129eff6518280a280f35b6020608492519162461bcd60e51b8352820152602260248201527f54726561737572793a20496e76616c696420636f6e7472616374206164647265604482015261737360f01b6064820152fd5b503461027257610f6e36611a85565b91939092610f7a611ae3565b6001600160a01b0383811695610f91871515611de3565b610f9c861515611b57565b169485875260209382855285848920541061115357878791828252848752858220610fc8898254611c33565b90558261106557917f0d40d374fecc4dca2567cc5ab864d037f0cd1f1e9bda38c23aff691cd74629e0878961101f85808060809d9c9a98600080516020611ee48339815191529f60199d9b610dd682471015611c4d565b8651908152a3868852835280808820549381519485528401528201527f506c6174666f726d2066756e6473207769746864726177616c000000000000006060820152a280f35b91505083516370a0823160e01b8152308482015285816024818b5afa90811561114957908892918a916110eb575b50917f0d40d374fecc4dca2567cc5ab864d037f0cd1f1e9bda38c23aff691cd74629e087896110e68160809b9a98966110e0600080516020611ee48339815191529e60199c9a1015611bdb565b86611d41565b61101f565b8095935087809795939892503d8311611142575b6111098183611ba3565b81010312610cb35792519394919390929187917f0d40d374fecc4dca2567cc5ab864d037f0cd1f1e9bda38c23aff691cd74629e0611093565b503d6110ff565b85513d8b823e3d90fd5b835162461bcd60e51b8152808401869052602c60248201527f54726561737572793a20496e73756666696369656e7420706c6174666f726d2060448201526b706f6f6c2062616c616e636560a01b6064820152608490fd5b508290346102b4576111bc36611a4c565b9295909333865260206002815260ff8388205416156112b657841561126c57878752600b81528287206001600160a01b0385168089529082528388205490929060ff1661122b575086976112289752600b8152828820918852528520600160ff19825416179055611e7b565b80f35b60649184519162461bcd60e51b8352820152601960248201527f54726561737572793a20416c726561647920636c61696d6564000000000000006044820152fd5b608492519162461bcd60e51b8352820152602160248201527f54726561737572793a20496e76616c69642077696e6e696e677320616d6f756e6044820152601d60fa1b6064820152fd5b608492519162461bcd60e51b835282015260366024820152600080516020611f048339815191526044820152756374732063616e20636c61696d2077696e6e696e677360501b6064820152fd5b50346102725781600319360112610272578160209360ff92611323611a01565b90358252600c86528282206001600160a01b039091168252855220549151911615158152f35b508290346102b45761135a36611a4c565b925092338552600260205260ff8686205416156113c65782156113835750611228939450611e7b565b606490602087519162461bcd60e51b8352820152601f60248201527f54726561737572793a20496e76616c696420726566756e6420616d6f756e74006044820152fd5b608490602087519162461bcd60e51b835282015260356024820152600080516020611f048339815191526044820152746374732063616e20636c61696d20726566756e647360581b6064820152fd5b5050346102b457816003193601126102b457602090516101f48152f35b508234610b70576020366003190112610b7057506114509035611b0f565b82519182526020820152f35b509190346102b457806003193601126102b4576114776119e6565b90602435913384526020946002865260ff83862054161561163b5784956114a18596951515611b57565b6114aa86611b0f565b6001600160a01b0394851697919490939188611593579684916114de600080516020611ec483398151915299471015611c4d565b82611575575b50506114f09085611c33565b908789528252611504858920918254611c40565b905585600080516020611ee48339815191526115666115238587611c33565b875191829182608091815260406020820152601860408201527f526567756c61722066656520646973747269627574696f6e000000000000000060608201520190565b0390a28351928352820152a280f35b818061158b948193600154165af16103dc611ca4565b8288386114e4565b86516370a0823160e01b8152308482015290975083816024818c5afa908115610492578a91611600575b50600080516020611ec4833981519152976115d9911015611bdb565b83806115eb575b6114f0915085611c33565b6115f9916001541689611d41565b38836115e0565b90508381813d8311611634575b6116178183611ba3565b810103126104875751600080516020611ec48339815191526115bd565b503d61160d565b825162461bcd60e51b815290810186905260376024820152600080516020611f0483398151915260448201527f6374732063616e206469737472696275746520666565730000000000000000006064820152608490fd5b5050346102b457816003193601126102b4576020905160648152f35b5050346102b457816003193601126102b45760035490516001600160a01b039091168152602090f35b50346102725781600319360112610272578160209360ff926116f7611a01565b90358252600b86528282206001600160a01b039091168252855220549151911615158152f35b508290346102b45760209182600319360112610b705761173b6119e6565b6001600160a01b03168082528284528482205492849082611767575050505047915b8351928352820152f35b60248751809481936370a0823160e01b835230908301525afa9182156117c6578092611796575b50509161175d565b9091508382813d83116117bf575b6117ae8183611ba3565b81010312610b70575051848061178e565b503d6117a4565b8551903d90823e3d90fd5b5050346102b457806020926117e536611a17565b918352600986528383206001600160a01b039182168452865283832091168252845220549051908152f35b508290346102b45761182136611a4c565b9295909333865260206002815260ff83882054161561195e57841561191257878752600981528287209760018060a01b0392838616998a8a52835284892093881693848a52835286858a2054106118c05750879881611228995260098352848a20908a528252838920838a52825283892061189d878254611c33565b90558852600781528288209188525285206118b9838254611c33565b9055611e7b565b845162461bcd60e51b8152908101839052602660248201527f54726561737572793a20496e73756666696369656e7420737570706f72742062604482015265616c616e636560d01b6064820152608490fd5b608492519162461bcd60e51b8352820152602360248201527f54726561737572793a20496e76616c6964207769746864726177616c20616d6f6044820152621d5b9d60ea1b6064820152fd5b608492519162461bcd60e51b835282015260386024820152600080516020611f0483398151915260448201527f6374732063616e20776974686472617720737570706f727400000000000000006064820152fd5b9291905034610cb7576020366003190112610cb757602093906001600160a01b036119db6119e6565b168252845220548152f35b600435906001600160a01b03821682036119fc57565b600080fd5b602435906001600160a01b03821682036119fc57565b60609060031901126119fc57600435906001600160a01b039060243582811681036119fc579160443590811681036119fc5790565b60809060031901126119fc57600435906001600160a01b039060243582811681036119fc579160443590811681036119fc579060643590565b60609060031901126119fc576001600160a01b0360043581811681036119fc57916024359160443590811681036119fc5790565b60609060031901126119fc5760043590602435906044356001600160a01b03811681036119fc5790565b6000546001600160a01b03163303611af757565b60405163118cdaa760e01b8152336004820152602490fd5b906101f491828102928184041490151715611b4157612710809204916064830283810460641484151715611b41570490565b634e487b7160e01b600052601160045260246000fd5b15611b5e57565b60405162461bcd60e51b815260206004820152601860248201527f54726561737572793a20496e76616c696420616d6f756e7400000000000000006044820152606490fd5b90601f8019910116810190811067ffffffffffffffff821117611bc557604052565b634e487b7160e01b600052604160045260246000fd5b15611be257565b60405162461bcd60e51b8152602060048201526024808201527f54726561737572793a20496e73756666696369656e7420746f6b656e2062616c604482015263616e636560e01b6064820152608490fd5b91908203918211611b4157565b91908201809211611b4157565b15611c5457565b60405162461bcd60e51b815260206004820152602260248201527f54726561737572793a20496e73756666696369656e74204554482062616c616e604482015261636560f01b6064820152608490fd5b3d15611cdf573d9067ffffffffffffffff8211611bc55760405191611cd3601f8201601f191660200184611ba3565b82523d6000602084013e565b606090565b15611ceb57565b60405162461bcd60e51b815260206004820152602860248201527f54726561737572793a20455448207472616e7366657220746f20706172746e656044820152671c8819985a5b195960c21b6064820152608490fd5b60405163a9059cbb60e01b602082019081526001600160a01b0393841660248301526044808301959095529381529092608082019067ffffffffffffffff821183831017611bc557602092600092604052519082865af115611dd7576000513d611dce57508082163b155b611db4575050565b604051635274afe760e01b81529116600482015260249150fd5b60011415611dac565b6040513d6000823e3d90fd5b15611dea57565b60405162461bcd60e51b815260206004820152601b60248201527f54726561737572793a20496e76616c696420726563697069656e7400000000006044820152606490fd5b15611e3657565b60405162461bcd60e51b815260206004820152601d60248201527f54726561737572793a20455448207472616e73666572206661696c65640000006044820152606490fd5b916001600160a01b031680611ea15750600080808093611e9f955af1610de0611ca4565b565b91611e9f92611d41565b67ffffffffffffffff8111611bc55760051b6020019056fe85da6ab72d2b48932522aea80adb8ca4fab6cdeb87bc2e7f6c03fd78d3b2100e1118cdec69d543750c0863ccd71a7d9183543cd6696b187370ce3b76a9003bf854726561737572793a204f6e6c7920617574686f72697a656420636f6e747261a2646970667358221220d5c088d3d3cbc5ca73128ef50c88b1277144265c55775ef61f0bb76f7bb8880064736f6c63430008140033",
  "linkReferences": {},
  "deployedLinkReferences": {}
}