{
  "_format": "hh-sol-artifact-1",
  "contractName": "AdminManager",
  "sourceName": "contracts/AdminManger.sol",
  "abi": [
    {
      "inputs": [
        {
          "internalType": "address",
          "name": "initialOwner",
          "type": "address"
        }
      ],
      "stateMutability": "nonpayable",
      "type": "constructor"
    },
    {
      "inputs": [
        {
          "internalType": "address",
          "name": "owner",
          "type": "address"
        }
      ],
      "name": "OwnableInvalidOwner",
      "type": "error"
    },
    {
      "inputs": [
        {
          "internalType": "address",
          "name": "account",
          "type": "address"
        }
      ],
      "name": "OwnableUnauthorizedAccount",
      "type": "error"
    },
    {
      "anonymous": false,
      "inputs": [
        {
          "indexed": true,
          "internalType": "address",
          "name": "analytics",
          "type": "address"
        }
      ],
      "name": "AnalyticsSet",
      "type": "event"
    },
    {
      "anonymous": false,
      "inputs": [
        {
          "indexed": true,
          "internalType": "address",
          "name": "eventPool",
          "type": "address"
        }
      ],
      "name": "EventPoolSet",
      "type": "event"
    },
    {
      "anonymous": false,
      "inputs": [
        {
          "indexed": true,
          "internalType": "uint256",
          "name": "marketId",
          "type": "uint256"
        },
        {
          "indexed": false,
          "internalType": "string",
          "name": "reason",
          "type": "string"
        }
      ],
      "name": "MarketDeleted",
      "type": "event"
    },
    {
      "anonymous": false,
      "inputs": [
        {
          "indexed": true,
          "internalType": "uint256",
          "name": "marketId",
          "type": "uint256"
        }
      ],
      "name": "MarketPermanentlyRemoved",
      "type": "event"
    },
    {
      "anonymous": false,
      "inputs": [
        {
          "indexed": false,
          "internalType": "uint256",
          "name": "duration",
          "type": "uint256"
        }
      ],
      "name": "MinMarketDurationSet",
      "type": "event"
    },
    {
      "anonymous": false,
      "inputs": [
        {
          "indexed": true,
          "internalType": "address",
          "name": "previousOwner",
          "type": "address"
        },
        {
          "indexed": true,
          "internalType": "address",
          "name": "newOwner",
          "type": "address"
        }
      ],
      "name": "OwnershipTransferred",
      "type": "event"
    },
    {
      "anonymous": false,
      "inputs": [
        {
          "indexed": false,
          "internalType": "bool",
          "name": "enabled",
          "type": "bool"
        },
        {
          "indexed": false,
          "internalType": "uint256",
          "name": "restrictionMinutes",
          "type": "uint256"
        }
      ],
      "name": "StakingRestrictionSet",
      "type": "event"
    },
    {
      "anonymous": false,
      "inputs": [
        {
          "indexed": true,
          "internalType": "address",
          "name": "token",
          "type": "address"
        },
        {
          "indexed": false,
          "internalType": "string",
          "name": "symbol",
          "type": "string"
        }
      ],
      "name": "TokenAdded",
      "type": "event"
    },
    {
      "anonymous": false,
      "inputs": [
        {
          "indexed": true,
          "internalType": "address",
          "name": "token",
          "type": "address"
        }
      ],
      "name": "TokenRemoved",
      "type": "event"
    },
    {
      "anonymous": false,
      "inputs": [
        {
          "indexed": true,
          "internalType": "address",
          "name": "verification",
          "type": "address"
        }
      ],
      "name": "VerificationSet",
      "type": "event"
    },
    {
      "anonymous": false,
      "inputs": [
        {
          "indexed": true,
          "internalType": "address",
          "name": "wallet",
          "type": "address"
        },
        {
          "indexed": false,
          "internalType": "bool",
          "name": "blacklisted",
          "type": "bool"
        }
      ],
      "name": "WalletBlacklisted",
      "type": "event"
    },
    {
      "inputs": [
        {
          "internalType": "address",
          "name": "token",
          "type": "address"
        },
        {
          "internalType": "string",
          "name": "symbol",
          "type": "string"
        }
      ],
      "name": "addSupportedToken",
      "outputs": [],
      "stateMutability": "nonpayable",
      "type": "function"
    },
    {
      "inputs": [],
      "name": "analytics",
      "outputs": [
        {
          "internalType": "address",
          "name": "",
          "type": "address"
        }
      ],
      "stateMutability": "view",
      "type": "function"
    },
    {
      "inputs": [],
      "name": "bettingRestrictionEnabled",
      "outputs": [
        {
          "internalType": "bool",
          "name": "",
          "type": "bool"
        }
      ],
      "stateMutability": "view",
      "type": "function"
    },
    {
      "inputs": [],
      "name": "bettingRestrictionMinutes",
      "outputs": [
        {
          "internalType": "uint256",
          "name": "",
          "type": "uint256"
        }
      ],
      "stateMutability": "view",
      "type": "function"
    },
    {
      "inputs": [
        {
          "internalType": "uint256",
          "name": "",
          "type": "uint256"
        }
      ],
      "name": "blacklistedAddresses",
      "outputs": [
        {
          "internalType": "address",
          "name": "",
          "type": "address"
        }
      ],
      "stateMutability": "view",
      "type": "function"
    },
    {
      "inputs": [
        {
          "internalType": "address",
          "name": "",
          "type": "address"
        }
      ],
      "name": "blacklistedWallets",
      "outputs": [
        {
          "internalType": "bool",
          "name": "",
          "type": "bool"
        }
      ],
      "stateMutability": "view",
      "type": "function"
    },
    {
      "inputs": [
        {
          "internalType": "uint256",
          "name": "marketId",
          "type": "uint256"
        },
        {
          "internalType": "string",
          "name": "reason",
          "type": "string"
        }
      ],
      "name": "deleteMarket",
      "outputs": [],
      "stateMutability": "nonpayable",
      "type": "function"
    },
    {
      "inputs": [
        {
          "internalType": "uint256",
          "name": "",
          "type": "uint256"
        }
      ],
      "name": "deletedMarkets",
      "outputs": [
        {
          "internalType": "uint256",
          "name": "",
          "type": "uint256"
        }
      ],
      "stateMutability": "view",
      "type": "function"
    },
    {
      "inputs": [
        {
          "internalType": "uint256",
          "name": "",
          "type": "uint256"
        }
      ],
      "name": "deletionTimestamp",
      "outputs": [
        {
          "internalType": "uint256",
          "name": "",
          "type": "uint256"
        }
      ],
      "stateMutability": "view",
      "type": "function"
    },
    {
      "inputs": [],
      "name": "eventPool",
      "outputs": [
        {
          "internalType": "address",
          "name": "",
          "type": "address"
        }
      ],
      "stateMutability": "view",
      "type": "function"
    },
    {
      "inputs": [],
      "name": "getBlacklistedAddresses",
      "outputs": [
        {
          "internalType": "address[]",
          "name": "",
          "type": "address[]"
        }
      ],
      "stateMutability": "view",
      "type": "function"
    },
    {
      "inputs": [],
      "name": "getDeletedMarkets",
      "outputs": [
        {
          "internalType": "uint256[]",
          "name": "",
          "type": "uint256[]"
        }
      ],
      "stateMutability": "view",
      "type": "function"
    },
    {
      "inputs": [],
      "name": "getMarketsReadyForRemoval",
      "outputs": [
        {
          "internalType": "uint256[]",
          "name": "",
          "type": "uint256[]"
        }
      ],
      "stateMutability": "view",
      "type": "function"
    },
    {
      "inputs": [],
      "name": "getPermanentlyRemovedMarkets",
      "outputs": [
        {
          "internalType": "uint256[]",
          "name": "",
          "type": "uint256[]"
        }
      ],
      "stateMutability": "view",
      "type": "function"
    },
    {
      "inputs": [],
      "name": "getSupportedTokens",
      "outputs": [
        {
          "internalType": "address[]",
          "name": "tokens",
          "type": "address[]"
        },
        {
          "internalType": "string[]",
          "name": "symbols",
          "type": "string[]"
        }
      ],
      "stateMutability": "view",
      "type": "function"
    },
    {
      "inputs": [
        {
          "internalType": "address",
          "name": "token",
          "type": "address"
        }
      ],
      "name": "getTokenSymbol",
      "outputs": [
        {
          "internalType": "string",
          "name": "",
          "type": "string"
        }
      ],
      "stateMutability": "view",
      "type": "function"
    },
    {
      "inputs": [
        {
          "internalType": "uint256",
          "name": "",
          "type": "uint256"
        }
      ],
      "name": "isMarketDeleted",
      "outputs": [
        {
          "internalType": "bool",
          "name": "",
          "type": "bool"
        }
      ],
      "stateMutability": "view",
      "type": "function"
    },
    {
      "inputs": [
        {
          "internalType": "address",
          "name": "token",
          "type": "address"
        }
      ],
      "name": "isTokenSupported",
      "outputs": [
        {
          "internalType": "bool",
          "name": "",
          "type": "bool"
        }
      ],
      "stateMutability": "view",
      "type": "function"
    },
    {
      "inputs": [
        {
          "internalType": "address",
          "name": "wallet",
          "type": "address"
        }
      ],
      "name": "isWalletBlacklisted",
      "outputs": [
        {
          "internalType": "bool",
          "name": "",
          "type": "bool"
        }
      ],
      "stateMutability": "view",
      "type": "function"
    },
    {
      "inputs": [],
      "name": "minMarketDurationMinutes",
      "outputs": [
        {
          "internalType": "uint256",
          "name": "",
          "type": "uint256"
        }
      ],
      "stateMutability": "view",
      "type": "function"
    },
    {
      "inputs": [],
      "name": "owner",
      "outputs": [
        {
          "internalType": "address",
          "name": "",
          "type": "address"
        }
      ],
      "stateMutability": "view",
      "type": "function"
    },
    {
      "inputs": [
        {
          "internalType": "uint256",
          "name": "marketId",
          "type": "uint256"
        }
      ],
      "name": "permanentlyRemoveMarket",
      "outputs": [],
      "stateMutability": "nonpayable",
      "type": "function"
    },
    {
      "inputs": [
        {
          "internalType": "uint256",
          "name": "",
          "type": "uint256"
        }
      ],
      "name": "permanentlyRemovedMarkets",
      "outputs": [
        {
          "internalType": "uint256",
          "name": "",
          "type": "uint256"
        }
      ],
      "stateMutability": "view",
      "type": "function"
    },
    {
      "inputs": [
        {
          "internalType": "address",
          "name": "token",
          "type": "address"
        }
      ],
      "name": "removeSupportedToken",
      "outputs": [],
      "stateMutability": "nonpayable",
      "type": "function"
    },
    {
      "inputs": [],
      "name": "renounceOwnership",
      "outputs": [],
      "stateMutability": "nonpayable",
      "type": "function"
    },
    {
      "inputs": [
        {
          "internalType": "address",
          "name": "_analytics",
          "type": "address"
        }
      ],
      "name": "setAnalytics",
      "outputs": [],
      "stateMutability": "nonpayable",
      "type": "function"
    },
    {
      "inputs": [
        {
          "internalType": "address",
          "name": "_eventPool",
          "type": "address"
        }
      ],
      "name": "setEventPool",
      "outputs": [],
      "stateMutability": "nonpayable",
      "type": "function"
    },
    {
      "inputs": [
        {
          "internalType": "uint256",
          "name": "_minMarketDurationMinutes",
          "type": "uint256"
        }
      ],
      "name": "setMinMarketDuration",
      "outputs": [],
      "stateMutability": "nonpayable",
      "type": "function"
    },
    {
      "inputs": [
        {
          "internalType": "bool",
          "name": "_enabled",
          "type": "bool"
        },
        {
          "internalType": "uint256",
          "name": "_restrictionMinutes",
          "type": "uint256"
        }
      ],
      "name": "setStakingRestriction",
      "outputs": [],
      "stateMutability": "nonpayable",
      "type": "function"
    },
    {
      "inputs": [
        {
          "internalType": "address",
          "name": "_verification",
          "type": "address"
        }
      ],
      "name": "setVerification",
      "outputs": [],
      "stateMutability": "nonpayable",
      "type": "function"
    },
    {
      "inputs": [
        {
          "internalType": "address",
          "name": "wallet",
          "type": "address"
        },
        {
          "internalType": "bool",
          "name": "blacklisted",
          "type": "bool"
        }
      ],
      "name": "setWalletBlacklist",
      "outputs": [],
      "stateMutability": "nonpayable",
      "type": "function"
    },
    {
      "inputs": [
        {
          "internalType": "uint256",
          "name": "",
          "type": "uint256"
        }
      ],
      "name": "supportedTokenList",
      "outputs": [
        {
          "internalType": "address",
          "name": "",
          "type": "address"
        }
      ],
      "stateMutability": "view",
      "type": "function"
    },
    {
      "inputs": [
        {
          "internalType": "address",
          "name": "",
          "type": "address"
        }
      ],
      "name": "supportedTokens",
      "outputs": [
        {
          "internalType": "bool",
          "name": "",
          "type": "bool"
        }
      ],
      "stateMutability": "view",
      "type": "function"
    },
    {
      "inputs": [
        {
          "internalType": "address",
          "name": "",
          "type": "address"
        }
      ],
      "name": "tokenSymbols",
      "outputs": [
        {
          "internalType": "string",
          "name": "",
          "type": "string"
        }
      ],
      "stateMutability": "view",
      "type": "function"
    },
    {
      "inputs": [
        {
          "internalType": "address",
          "name": "newOwner",
          "type": "address"
        }
      ],
      "name": "transferOwnership",
      "outputs": [],
      "stateMutability": "nonpayable",
      "type": "function"
    },
    {
      "inputs": [],
      "name": "verification",
      "outputs": [
        {
          "internalType": "address",
          "name": "",
          "type": "address"
        }
      ],
      "stateMutability": "view",
      "type": "function"
    }
  ],
  "bytecode": "0x608034620001db5762001d2238819003601f8101601f191683016001600160401b03811184821017620001e057839282916040528339602092839181010312620001db57516001600160a01b03808216929091839003620001db578215620001c257600080546001600160a01b0319808216861783556040519590949293929091167f8be0079c531659141344cd1fd0a4f28419497f9722a3daafe3b4186f6b6457e08480a36005600b5560ff199182600c5416600c556005600d558080526003825260408120928354936001948581811c91168015620001b7575b85821014620001a357601f811162000175575b506008635045505560e01b0190558180526002835260408220805490911684179055600454926801000000000000000084101562000161578301806004558310156200014d57600481522001908154169055611b2b9081620001f78239f35b634e487b7160e01b81526032600452602490fd5b634e487b7160e01b82526041600452602482fd5b81845285601f868620920160051c8201915b82811062000197575050620000ee565b85815501869062000187565b634e487b7160e01b84526022600452602484fd5b90607f1690620000db565b604051631e4fbdf760e01b815260006004820152602490fd5b600080fd5b634e487b7160e01b600052604160045260246000fdfe6040608081526004908136101561001557600080fd5b600091823560e01c9081626918001461164757816307adc191146114dd5781631356af021461138157816317916e01146114be5781631cf64fa41461149557816328beef04146113bf5781632b5ba3b9146113815781632b60c822146113575781633bbab179146112e057816345843695146112385781634ffe2a8b1461120f578163510499691461108c57816365ebce551461101357816368c4ac2614610bbb5781636d82222014610f90578163715018a614610f48578163720138e814610c6157816374c350eb14610bf957816375151b6314610bbb578163763191901461098d57816380d5ac8a1461096457816381a73ad51461093757816381b17d2914610907578163881df9e1146108ce57816388d3cc48146108aa5781638da5cb5b14610882578163971f8bb11461081a5781639b36846a146107ed578163a7a8c359146107a9578163ad8e42ff14610781578163baa9c4ac14610762578163c8a843b71461066a578163d3c7c2c7146104fe578163db62c6de1461027b578163f2fde38b14610202575063fb0b2b36146101ae57600080fd5b346101fe5760203660031901126101fe576101fa916101e79082906001600160a01b036101d9611750565b168152600360205220611953565b90519182916020835260208301906118d9565b0390f35b5080fd5b9050346102775760203660031901126102775761021d611750565b906102266119f9565b6001600160a01b0391821692831561026157505082546001600160a01b031981168317845516600080516020611aff8339815191528380a380f35b51631e4fbdf760e01b8152908101849052602490fd5b8280fd5b91905034610277578060031936011261027757610296611750565b906024918235938415938415948587036104fa576102b26119f9565b6001600160a01b038481169790919088156104ab57888a526005602052868a209081549160ff83169260ff8b169060ff1916179055806104a3575b15610367575050600654929050600160401b8310156103565750509161034e600080516020611adf833981519152949261032f856001602097016006556117b7565b90919082549060031b9160018060a01b03809116831b921b1916179055565b51908152a280f35b634e487b7160e01b88526041905286fd5b908092939498979695509161049b575b5061039a575b5050600080516020611adf8339815191529293509060209161034e565b865b600680548083101561047b5783886103b3856117b7565b929054600393841b1c16146103d3575050506103ce90611a3c565b61039c565b6000999491959392969798991995868101908111610469579161032f916103fd61040995946117b7565b9054911b1c16916117b7565b83549182156104585750509160209391600080516020611adf8339815191529593019061044d610438836117b7565b81549060018060a01b039060031b1b19169055565b555b9091849361037d565b634e487b7160e01b89526031905287fd5b634e487b7160e01b8c5260118652848cfd5b5050505050600080516020611adf8339815191529293509060209161044f565b905038610377565b5080156102ed565b865162461bcd60e51b81526020818701528085018590527f41646d696e4d616e616765723a20496e76616c69642077616c6c6574206164646044820152637265737360e01b6064820152608490fd5b8780fd5b9050346102775782600319360112610277575461051a81611a61565b926105278351948561180f565b818452601f198061053784611a61565b0194602095368783013761054a84611a61565b936105578651958661180f565b8085528261056482611a61565b01845b81811061065b575050835b8181106105e857505061058d908551958087528601906117d2565b94848603818601528351918287528187019082808560051b8a0101960194975b8489106105ba5787870388f35b90919293949584806105d6838686600196030188528a516118d9565b980194019801979190949392946105ad565b806105f9610652929995969961176b565b90546003916001600160a01b039190831b1c81166106178488611a78565b526106218361176b565b905490831b1c168a528552610637888a20611953565b6106418289611a78565b5261064c8188611a78565b50611a3c565b96939296610572565b60608782018a01528801610567565b8383346101fe57816003193601126101fe5760075461068881611a8c565b938391845b8181106106da575050506106a081611a8c565b925b8181106106b6578251806101fa868261189e565b806106c46106d59287611a78565b516106cf8287611a78565b52611a3c565b6106a2565b6106e38161179c565b90549060031b1c8087526020600a815260ff87892054169081610730575b50610716575b5061071190611a3c565b61068d565b84610729916106cf61071194978b611a78565b9390610707565b60089150528587205462278d00810180911161074f5742101589610701565b634e487b7160e01b885260118552602488fd5b5050346101fe57816003193601126101fe57602090600d549051908152f35b9050346102775760203660031901126102775760209282913581526008845220549051908152f35b9050346102775760203660031901126102775735916006548310156107ea57506107d46020926117b7565b905491519160018060a01b039160031b1c168152f35b80fd5b905034610277576020366003190112610277578160209360ff92358152600a855220541690519015158152f35b83346107ea5760203660031901126107ea57610834611750565b61083c6119f9565b600f80546001600160a01b0319166001600160a01b039290921691821790557fb7351a1f90ddfe06d9f857527a29df899449446032b91e5d0cc56895e7b856d88280a280f35b5050346101fe57816003193601126101fe57905490516001600160a01b039091168152602090f35b5050346101fe57816003193601126101fe5760209060ff600c541690519015158152f35b9050346102775760203660031901126102775735916007548310156107ea57506108f960209261179c565b91905490519160031b1c8152f35b90503461027757602036600319011261027757356009548110156102775760208360098295522001549051908152f35b5050346101fe5760203660031901126101fe576101fa916101e79082906001600160a01b036101d9611750565b5050346101fe57816003193601126101fe57600e5490516001600160a01b039091168152602090f35b9050346102775760209081600319360112610bb7576109aa611750565b926109b36119f9565b6001600160a01b03938416928315610b65578386526002815260ff828720541615610b1a5785908482526002815282822060ff1981541690556003928382528220906109ff8254611919565b9081610adb575b5050505b825480821015610ad0578486610a1f8461176b565b905490861b1c1614610a3a5750610a3590611a3c565b610a0a565b929394909160001993848101908111610abd579161032f91610a5f610a6b959461176b565b9054911b1c169161176b565b81548015610aaa570190610a816104388361176b565b555b7f4c910b69fe65a61f7531b9c5042b2329ca7179c77290aa7e2eb3afa3c8511fd38280a280f35b634e487b7160e01b855260318352602485fd5b634e487b7160e01b885260118652602488fd5b505050509050610a83565b8390601f8311600114610af657505050555b84388080610a06565b8382528120929091610b1390601f0160051c840160018501611a25565b5555610aed565b905162461bcd60e51b815291820152602160248201527f41646d696e4d616e616765723a20546f6b656e206e6f7420737570706f7274656044820152601960fa1b6064820152608490fd5b905162461bcd60e51b815291820152602860248201527f41646d696e4d616e616765723a2043616e6e6f742072656d6f7665206e6174696044820152673b32903a37b5b2b760c11b6064820152608490fd5b8380fd5b5050346101fe5760203660031901126101fe5760209160ff9082906001600160a01b03610be6611750565b1681526002855220541690519015158152f35b83346107ea5760203660031901126107ea57610c13611750565b610c1b6119f9565b600e80546001600160a01b0319166001600160a01b039290921691821790557f50e996e83fb672147763934032cc359242f03e89a60c666f72ce4270d23ed4fd8280a280f35b839150346101fe57826003193601126101fe57610c7c611750565b6024906001600160401b03908235828111610f4457610c9e9036908601611848565b92610ca76119f9565b6001600160a01b038216948515610ef757845115610eab578587526020936002855260ff8989205416610e5c5786885260028552888820906001918260ff1982541617905560038652898920908751908111610e4a57610d078254611919565b601f8111610e11575b508087601f8211600114610db3578b91610da8575b50600019600383901b1c191690831b1790555b815492600160401b841015610d9757509261032f83610d8293610d91967f7afee0f1b802cc0f66c67890e26b4566251859cf2cd8de79b86aed7251d9756a9a9b9c9601905561176b565b519282849384528301906118d9565b0390a280f35b634e487b7160e01b89526041835288fd5b90508801518c610d25565b838c52888c2085935090601f1983168d5b8b8d838310610dfc575050508311610de3575b5050811b019055610d38565b8a015160001960f88460031b161c191690558c80610dd7565b84015185558896909401939283019201610dc4565b610e3a90838c52888c20601f840160051c8101918a8510610e40575b601f0160051c0190611a25565b8b610d10565b9091508190610e2d565b634e487b7160e01b8a5260418452848afd5b506025608492858a519362461bcd60e51b85528401528201527f41646d696e4d616e616765723a20546f6b656e20616c726561647920737570706044820152641bdc9d195960da1b6064820152fd5b602260849260208a519362461bcd60e51b85528401528201527f41646d696e4d616e616765723a20496e76616c696420746f6b656e2073796d626044820152611bdb60f21b6064820152fd5b602360849260208a519362461bcd60e51b85528401528201527f41646d696e4d616e616765723a20496e76616c696420746f6b656e206164647260448201526265737360e81b6064820152fd5b8580fd5b83346107ea57806003193601126107ea57610f616119f9565b80546001600160a01b03198116825581906001600160a01b0316600080516020611aff8339815191528280a380f35b8284346107ea57806003193601126107ea5781516009805480835290835260208083019492937f6e1540171b6c0c960b71a7020d9f60077f6af931a8bbf590da0223dacf75c7af92915b828210610ffc576101fa8686610ff2828b038361180f565b519182918261189e565b835487529586019560019384019390910190610fda565b8284346107ea57806003193601126107ea5781516007805480835290835260208083019492937fa66cc928b5edb82af9bd49922954155ab7b0942694bea4ce44661d9a8736c68892915b828210611075576101fa8686610ff2828b038361180f565b83548752958601956001938401939091019061105d565b8383346101fe57806003193601126101fe578235906024356001600160401b038111610bb7576110bf9036908601611848565b906110c86119f9565b6001546001600160a01b0316156111cd57828452602090600a825260ff818620541661118a57838552600a8252808520805460ff1916600117905560088252808520429055600754600160401b811015611177577f23684a7f94f98a36f3d1d0bcf07b3cbc7c4fd1a4f06996ff8155975b6885b56e939291611153826001610d91940160075561179c565b81549060031b9088821b91600019901b1916179055519282849384528301906118d9565b634e487b7160e01b865260418752602486fd5b5162461bcd60e51b815280860191909152601d60248201527f41646d696e4d616e616765723a20416c72656164792064656c657465640000006044820152606490fd5b5162461bcd60e51b8152602081860152601f60248201527f41646d696e4d616e616765723a204576656e74506f6f6c206e6f7420736574006044820152606490fd5b5050346101fe57816003193601126101fe57600f5490516001600160a01b039091168152602090f35b91905034610277576020366003190112610277578135916112576119f9565b821561128f5750816020917f336366e6b0ce658e9a9b8eb1bda9d88fe2ff3c01d3e2dd258e0e338daf1b2a4193600b5551908152a180f35b6020608492519162461bcd60e51b8352820152602660248201527f41646d696e4d616e616765723a20496e76616c6964206d696e696d756d2064756044820152653930ba34b7b760d11b6064820152fd5b5050346101fe57816003193601126101fe578051908180936006549081855260208095019160068252858220915b868282106113375785906101fa886113288489038561180f565b519282849384528301906117d2565b83546001600160a01b03168552889550909301926001928301920161130e565b8284346107ea5760203660031901126107ea57823592548310156107ea57506107d460209261176b565b5050346101fe5760203660031901126101fe5760209160ff9082906001600160a01b036113ac611750565b1681526005855220541690519015158152f35b8383346101fe57806003193601126101fe5782359283151590818503610bb757602435946113eb6119f9565b60ff19600c541660ff841617600c5561141f575b50600080516020611abf833981519152929382519182526020820152a180f35b841561143f5750600d849055600080516020611abf8339815191526113ff565b608490602084519162461bcd60e51b8352820152602a60248201527f41646d696e4d616e616765723a20496e76616c6964207265737472696374696f6044820152693710323ab930ba34b7b760b11b6064820152fd5b5050346101fe57816003193601126101fe5760015490516001600160a01b039091168152602090f35b5050346101fe57816003193601126101fe57602090600b549051908152f35b8383346101fe57602080600319360112610277578335916114fc6119f9565b828452600a825260ff81852054161561160657828452600882528084205462278d0081018091116115f35742106115a4575060095490600160401b82101561159157600182018060095582101561157e57600984528320018190557fb8410e595f043215bc63ac3731daf093f87e30c0c938b0171e93c45be1a676ff8280a280f35b634e487b7160e01b845260328552602484fd5b634e487b7160e01b845260418552602484fd5b5162461bcd60e51b8152808501919091526024808201527f41646d696e4d616e616765723a20436c61696d20706572696f64206e6f7420656044820152631b99195960e21b6064820152608490fd5b634e487b7160e01b855260118652602485fd5b816064928692519262461bcd60e51b845283015260248201527f41646d696e4d616e616765723a204d61726b6574206e6f742064656c657465646044820152fd5b839150346101fe5760203660031901126101fe57611663611750565b61166b6119f9565b6001600160a01b0390811691821561170d576001549182166116be57506001600160a01b03191681176001557f1ea36f5011fe2ea7103e332112f0f0c8dfc2bab1a4f45613d501ba054da583638280a280f35b608490602086519162461bcd60e51b8352820152602360248201527f41646d696e4d616e616765723a204576656e74506f6f6c20616c7265616479206044820152621cd95d60ea1b6064820152fd5b606490602086519162461bcd60e51b8352820152601d60248201527f41646d696e4d616e616765723a20496e76616c696420616464726573730000006044820152fd5b600435906001600160a01b038216820361176657565b600080fd5b60045481101561178657600460005260206000200190600090565b634e487b7160e01b600052603260045260246000fd5b60075481101561178657600760005260206000200190600090565b60065481101561178657600660005260206000200190600090565b90815180825260208080930193019160005b8281106117f2575050505090565b83516001600160a01b0316855293810193928101926001016117e4565b601f909101601f19168101906001600160401b0382119082101761183257604052565b634e487b7160e01b600052604160045260246000fd5b81601f82011215611766578035906001600160401b038211611832576040519261187c601f8401601f19166020018561180f565b8284526020838301011161176657816000926020809301838601378301015290565b6020908160408183019282815285518094520193019160005b8281106118c5575050505090565b8351855293810193928101926001016118b7565b919082519283825260005b848110611905575050826000602080949584010152601f8019910116010190565b6020818301810151848301820152016118e4565b90600182811c92168015611949575b602083101461193357565b634e487b7160e01b600052602260045260246000fd5b91607f1691611928565b906040519182600082549261196784611919565b9081845260019485811690816000146119d65750600114611993575b50506119919250038361180f565b565b9093915060005260209081600020936000915b8183106119be57505061199193508201013880611983565b855488840185015294850194879450918301916119a6565b91505061199194506020925060ff191682840152151560051b8201013880611983565b6000546001600160a01b03163303611a0d57565b60405163118cdaa760e01b8152336004820152602490fd5b818110611a30575050565b60008155600101611a25565b6000198114611a4b5760010190565b634e487b7160e01b600052601160045260246000fd5b6001600160401b0381116118325760051b60200190565b80518210156117865760209160051b010190565b90611a9682611a61565b611aa3604051918261180f565b8281528092611ab4601f1991611a61565b019060203691013756fe45e313a07af6646445b3ef2a00f8521d05eab3279381dbf73ea90fd5f9003e0e6e5e68466043e631629f40501adefa55dc080619353e9256cecbb1cc4997c1858be0079c531659141344cd1fd0a4f28419497f9722a3daafe3b4186f6b6457e0a164736f6c6343000814000a",
  "linkReferences": {},
  "deployedLinkReferences": {}
}