{
  "_format": "hh-sol-artifact-1",
  "contractName": "MetricsHub",
  "sourceName": "contracts/P2PAnalytics.sol",
  "abi": [
    {
      "inputs": [
        {
          "internalType": "address",
          "name": "initialOwner",
          "type": "address"
        },
        {
          "internalType": "address",
          "name": "_marketManager",
          "type": "address"
        }
      ],
      "stateMutability": "nonpayable",
      "type": "constructor"
    },
    {
      "inputs": [
        {
          "internalType": "address",
          "name": "owner",
          "type": "address"
        }
      ],
      "name": "OwnableInvalidOwner",
      "type": "error"
    },
    {
      "inputs": [
        {
          "internalType": "address",
          "name": "account",
          "type": "address"
        }
      ],
      "name": "OwnableUnauthorizedAccount",
      "type": "error"
    },
    {
      "anonymous": false,
      "inputs": [
        {
          "indexed": false,
          "internalType": "uint256",
          "name": "totalMarkets",
          "type": "uint256"
        },
        {
          "indexed": false,
          "internalType": "uint256",
          "name": "totalVolume",
          "type": "uint256"
        }
      ],
      "name": "GlobalStatsUpdated",
      "type": "event"
    },
    {
      "anonymous": false,
      "inputs": [
        {
          "indexed": true,
          "internalType": "uint256",
          "name": "marketId",
          "type": "uint256"
        },
        {
          "indexed": false,
          "internalType": "uint256",
          "name": "volume",
          "type": "uint256"
        },
        {
          "indexed": false,
          "internalType": "uint256",
          "name": "bettors",
          "type": "uint256"
        }
      ],
      "name": "MarketStatsUpdated",
      "type": "event"
    },
    {
      "anonymous": false,
      "inputs": [
        {
          "indexed": true,
          "internalType": "address",
          "name": "previousOwner",
          "type": "address"
        },
        {
          "indexed": true,
          "internalType": "address",
          "name": "newOwner",
          "type": "address"
        }
      ],
      "name": "OwnershipTransferred",
      "type": "event"
    },
    {
      "anonymous": false,
      "inputs": [
        {
          "indexed": true,
          "internalType": "address",
          "name": "user",
          "type": "address"
        },
        {
          "indexed": false,
          "internalType": "uint256",
          "name": "totalBets",
          "type": "uint256"
        },
        {
          "indexed": false,
          "internalType": "uint256",
          "name": "winnings",
          "type": "uint256"
        }
      ],
      "name": "UserStatsUpdated",
      "type": "event"
    },
    {
      "inputs": [
        {
          "internalType": "uint256",
          "name": "limit",
          "type": "uint256"
        }
      ],
      "name": "getActiveMarketsByBettorCount",
      "outputs": [
        {
          "internalType": "uint256[]",
          "name": "",
          "type": "uint256[]"
        },
        {
          "internalType": "uint256[]",
          "name": "",
          "type": "uint256[]"
        }
      ],
      "stateMutability": "view",
      "type": "function"
    },
    {
      "inputs": [
        {
          "internalType": "uint256",
          "name": "minVolume",
          "type": "uint256"
        }
      ],
      "name": "getActiveMarketsByMinVolume",
      "outputs": [
        {
          "internalType": "uint256[]",
          "name": "",
          "type": "uint256[]"
        }
      ],
      "stateMutability": "view",
      "type": "function"
    },
    {
      "inputs": [
        {
          "internalType": "uint256",
          "name": "limit",
          "type": "uint256"
        }
      ],
      "name": "getActiveMarketsByParticipants",
      "outputs": [
        {
          "internalType": "uint256[]",
          "name": "",
          "type": "uint256[]"
        },
        {
          "internalType": "uint256[]",
          "name": "",
          "type": "uint256[]"
        }
      ],
      "stateMutability": "view",
      "type": "function"
    },
    {
      "inputs": [
        {
          "internalType": "uint256",
          "name": "limit",
          "type": "uint256"
        }
      ],
      "name": "getActiveMarketsByVolume",
      "outputs": [
        {
          "internalType": "uint256[]",
          "name": "",
          "type": "uint256[]"
        },
        {
          "internalType": "uint256[]",
          "name": "",
          "type": "uint256[]"
        }
      ],
      "stateMutability": "view",
      "type": "function"
    },
    {
      "inputs": [],
      "name": "getGlobalStats",
      "outputs": [
        {
          "components": [
            {
              "internalType": "uint256",
              "name": "totalMarkets",
              "type": "uint256"
            },
            {
              "internalType": "uint256",
              "name": "totalVolume",
              "type": "uint256"
            },
            {
              "internalType": "uint256",
              "name": "totalStakers",
              "type": "uint256"
            },
            {
              "internalType": "uint256",
              "name": "totalSupporters",
              "type": "uint256"
            },
            {
              "internalType": "uint256",
              "name": "totalWinnings",
              "type": "uint256"
            },
            {
              "internalType": "uint256",
              "name": "averageMarketSize",
              "type": "uint256"
            },
            {
              "internalType": "uint256",
              "name": "mostActiveToken",
              "type": "uint256"
            },
            {
              "internalType": "uint256",
              "name": "averageResolutionTime",
              "type": "uint256"
            }
          ],
          "internalType": "struct MetricsHub.GlobalStats",
          "name": "",
          "type": "tuple"
        }
      ],
      "stateMutability": "view",
      "type": "function"
    },
    {
      "inputs": [
        {
          "internalType": "uint256",
          "name": "marketId",
          "type": "uint256"
        }
      ],
      "name": "getMarketStats",
      "outputs": [
        {
          "components": [
            {
              "internalType": "uint256",
              "name": "totalVolume",
              "type": "uint256"
            },
            {
              "internalType": "uint256",
              "name": "totalStakers",
              "type": "uint256"
            },
            {
              "internalType": "uint256",
              "name": "totalSupporters",
              "type": "uint256"
            },
            {
              "internalType": "uint256",
              "name": "averageBetSize",
              "type": "uint256"
            },
            {
              "internalType": "uint256",
              "name": "largestBet",
              "type": "uint256"
            },
            {
              "internalType": "uint256",
              "name": "mostPopularOption",
              "type": "uint256"
            },
            {
              "internalType": "uint256",
              "name": "resolutionTime",
              "type": "uint256"
            },
            {
              "internalType": "bool",
              "name": "wasResolved",
              "type": "bool"
            },
            {
              "internalType": "uint256",
              "name": "creatorWinnings",
              "type": "uint256"
            }
          ],
          "internalType": "struct MetricsHub.MarketStats",
          "name": "",
          "type": "tuple"
        }
      ],
      "stateMutability": "view",
      "type": "function"
    },
    {
      "inputs": [
        {
          "internalType": "address",
          "name": "creator",
          "type": "address"
        }
      ],
      "name": "getMarketsByCreator",
      "outputs": [
        {
          "internalType": "uint256[]",
          "name": "",
          "type": "uint256[]"
        }
      ],
      "stateMutability": "view",
      "type": "function"
    },
    {
      "inputs": [
        {
          "internalType": "uint256",
          "name": "startTime",
          "type": "uint256"
        },
        {
          "internalType": "uint256",
          "name": "endTime",
          "type": "uint256"
        }
      ],
      "name": "getMarketsByDateRange",
      "outputs": [
        {
          "internalType": "uint256[]",
          "name": "",
          "type": "uint256[]"
        }
      ],
      "stateMutability": "view",
      "type": "function"
    },
    {
      "inputs": [
        {
          "internalType": "enum EventPool.MarketState",
          "name": "state",
          "type": "uint8"
        }
      ],
      "name": "getMarketsByState",
      "outputs": [
        {
          "internalType": "uint256[]",
          "name": "",
          "type": "uint256[]"
        }
      ],
      "stateMutability": "view",
      "type": "function"
    },
    {
      "inputs": [
        {
          "internalType": "address",
          "name": "token",
          "type": "address"
        }
      ],
      "name": "getMarketsByToken",
      "outputs": [
        {
          "internalType": "uint256[]",
          "name": "",
          "type": "uint256[]"
        }
      ],
      "stateMutability": "view",
      "type": "function"
    },
    {
      "inputs": [
        {
          "internalType": "address",
          "name": "creator",
          "type": "address"
        },
        {
          "internalType": "address",
          "name": "token",
          "type": "address"
        },
        {
          "internalType": "uint256",
          "name": "minVolume",
          "type": "uint256"
        },
        {
          "internalType": "uint256",
          "name": "maxVolume",
          "type": "uint256"
        },
        {
          "internalType": "enum EventPool.MarketState",
          "name": "state",
          "type": "uint8"
        },
        {
          "internalType": "uint256",
          "name": "startTime",
          "type": "uint256"
        },
        {
          "internalType": "uint256",
          "name": "endTime",
          "type": "uint256"
        }
      ],
      "name": "getMarketsFiltered",
      "outputs": [
        {
          "internalType": "uint256[]",
          "name": "",
          "type": "uint256[]"
        }
      ],
      "stateMutability": "view",
      "type": "function"
    },
    {
      "inputs": [
        {
          "internalType": "uint256",
          "name": "daysBack",
          "type": "uint256"
        },
        {
          "internalType": "uint256",
          "name": "limit",
          "type": "uint256"
        }
      ],
      "name": "getRecentActiveMarkets",
      "outputs": [
        {
          "internalType": "uint256[]",
          "name": "",
          "type": "uint256[]"
        },
        {
          "internalType": "uint256[]",
          "name": "",
          "type": "uint256[]"
        }
      ],
      "stateMutability": "view",
      "type": "function"
    },
    {
      "inputs": [
        {
          "internalType": "uint256",
          "name": "limit",
          "type": "uint256"
        }
      ],
      "name": "getThisWeekActiveMarkets",
      "outputs": [
        {
          "internalType": "uint256[]",
          "name": "",
          "type": "uint256[]"
        },
        {
          "internalType": "uint256[]",
          "name": "",
          "type": "uint256[]"
        }
      ],
      "stateMutability": "view",
      "type": "function"
    },
    {
      "inputs": [
        {
          "internalType": "uint256",
          "name": "limit",
          "type": "uint256"
        }
      ],
      "name": "getTodayActiveMarkets",
      "outputs": [
        {
          "internalType": "uint256[]",
          "name": "",
          "type": "uint256[]"
        },
        {
          "internalType": "uint256[]",
          "name": "",
          "type": "uint256[]"
        }
      ],
      "stateMutability": "view",
      "type": "function"
    },
    {
      "inputs": [
        {
          "internalType": "uint256",
          "name": "limit",
          "type": "uint256"
        }
      ],
      "name": "getTopBettors",
      "outputs": [
        {
          "internalType": "address[]",
          "name": "",
          "type": "address[]"
        },
        {
          "internalType": "uint256[]",
          "name": "",
          "type": "uint256[]"
        }
      ],
      "stateMutability": "view",
      "type": "function"
    },
    {
      "inputs": [
        {
          "internalType": "address",
          "name": "user",
          "type": "address"
        }
      ],
      "name": "getUserBets",
      "outputs": [
        {
          "internalType": "uint256[]",
          "name": "",
          "type": "uint256[]"
        }
      ],
      "stateMutability": "view",
      "type": "function"
    },
    {
      "inputs": [
        {
          "internalType": "address",
          "name": "user",
          "type": "address"
        }
      ],
      "name": "getUserFavoriteOption",
      "outputs": [
        {
          "internalType": "uint256",
          "name": "",
          "type": "uint256"
        }
      ],
      "stateMutability": "view",
      "type": "function"
    },
    {
      "inputs": [
        {
          "internalType": "address",
          "name": "user",
          "type": "address"
        }
      ],
      "name": "getUserMarkets",
      "outputs": [
        {
          "internalType": "uint256[]",
          "name": "",
          "type": "uint256[]"
        }
      ],
      "stateMutability": "view",
      "type": "function"
    },
    {
      "inputs": [
        {
          "internalType": "address",
          "name": "user",
          "type": "address"
        },
        {
          "internalType": "enum EventPool.MarketState",
          "name": "state",
          "type": "uint8"
        }
      ],
      "name": "getUserMarketsByState",
      "outputs": [
        {
          "internalType": "uint256[]",
          "name": "",
          "type": "uint256[]"
        }
      ],
      "stateMutability": "view",
      "type": "function"
    },
    {
      "inputs": [
        {
          "internalType": "address",
          "name": "user",
          "type": "address"
        }
      ],
      "name": "getUserStats",
      "outputs": [
        {
          "components": [
            {
              "internalType": "uint256",
              "name": "totalBetsPlaced",
              "type": "uint256"
            },
            {
              "internalType": "uint256",
              "name": "totalBetsWon",
              "type": "uint256"
            },
            {
              "internalType": "uint256",
              "name": "totalBetsLost",
              "type": "uint256"
            },
            {
              "internalType": "uint256",
              "name": "totalWinnings",
              "type": "uint256"
            },
            {
              "internalType": "uint256",
              "name": "totalLosses",
              "type": "uint256"
            },
            {
              "internalType": "uint256",
              "name": "totalSupportDonated",
              "type": "uint256"
            },
            {
              "internalType": "uint256",
              "name": "marketsCreated",
              "type": "uint256"
            },
            {
              "internalType": "uint256",
              "name": "marketsWon",
              "type": "uint256"
            },
            {
              "internalType": "uint256",
              "name": "marketsLost",
              "type": "uint256"
            },
            {
              "internalType": "uint256",
              "name": "favoriteOption",
              "type": "uint256"
            },
            {
              "internalType": "uint256",
              "name": "lastActivity",
              "type": "uint256"
            }
          ],
          "internalType": "struct MetricsHub.UserStats",
          "name": "",
          "type": "tuple"
        }
      ],
      "stateMutability": "view",
      "type": "function"
    },
    {
      "inputs": [
        {
          "internalType": "address",
          "name": "user",
          "type": "address"
        }
      ],
      "name": "getUserSupports",
      "outputs": [
        {
          "internalType": "uint256[]",
          "name": "",
          "type": "uint256[]"
        }
      ],
      "stateMutability": "view",
      "type": "function"
    },
    {
      "inputs": [
        {
          "internalType": "address",
          "name": "user",
          "type": "address"
        }
      ],
      "name": "getUserWinRate",
      "outputs": [
        {
          "internalType": "uint256",
          "name": "",
          "type": "uint256"
        }
      ],
      "stateMutability": "view",
      "type": "function"
    },
    {
      "inputs": [],
      "name": "marketManager",
      "outputs": [
        {
          "internalType": "address payable",
          "name": "",
          "type": "address"
        }
      ],
      "stateMutability": "view",
      "type": "function"
    },
    {
      "inputs": [
        {
          "internalType": "uint256",
          "name": "",
          "type": "uint256"
        }
      ],
      "name": "marketStats",
      "outputs": [
        {
          "internalType": "uint256",
          "name": "totalVolume",
          "type": "uint256"
        },
        {
          "internalType": "uint256",
          "name": "totalStakers",
          "type": "uint256"
        },
        {
          "internalType": "uint256",
          "name": "totalSupporters",
          "type": "uint256"
        },
        {
          "internalType": "uint256",
          "name": "averageBetSize",
          "type": "uint256"
        },
        {
          "internalType": "uint256",
          "name": "largestBet",
          "type": "uint256"
        },
        {
          "internalType": "uint256",
          "name": "mostPopularOption",
          "type": "uint256"
        },
        {
          "internalType": "uint256",
          "name": "resolutionTime",
          "type": "uint256"
        },
        {
          "internalType": "bool",
          "name": "wasResolved",
          "type": "bool"
        },
        {
          "internalType": "uint256",
          "name": "creatorWinnings",
          "type": "uint256"
        }
      ],
      "stateMutability": "view",
      "type": "function"
    },
    {
      "inputs": [],
      "name": "owner",
      "outputs": [
        {
          "internalType": "address",
          "name": "",
          "type": "address"
        }
      ],
      "stateMutability": "view",
      "type": "function"
    },
    {
      "inputs": [],
      "name": "renounceOwnership",
      "outputs": [],
      "stateMutability": "nonpayable",
      "type": "function"
    },
    {
      "inputs": [
        {
          "internalType": "address",
          "name": "_marketManager",
          "type": "address"
        }
      ],
      "name": "setMarketManager",
      "outputs": [],
      "stateMutability": "nonpayable",
      "type": "function"
    },
    {
      "inputs": [
        {
          "internalType": "uint256",
          "name": "marketId",
          "type": "uint256"
        },
        {
          "internalType": "address",
          "name": "user",
          "type": "address"
        },
        {
          "internalType": "uint256",
          "name": "loss",
          "type": "uint256"
        }
      ],
      "name": "trackLoss",
      "outputs": [],
      "stateMutability": "nonpayable",
      "type": "function"
    },
    {
      "inputs": [
        {
          "internalType": "uint256",
          "name": "marketId",
          "type": "uint256"
        },
        {
          "internalType": "address",
          "name": "creator",
          "type": "address"
        }
      ],
      "name": "trackMarketCreation",
      "outputs": [],
      "stateMutability": "nonpayable",
      "type": "function"
    },
    {
      "inputs": [
        {
          "internalType": "uint256",
          "name": "marketId",
          "type": "uint256"
        },
        {
          "internalType": "uint256",
          "name": "winningOption",
          "type": "uint256"
        }
      ],
      "name": "trackMarketResolution",
      "outputs": [],
      "stateMutability": "nonpayable",
      "type": "function"
    },
    {
      "inputs": [
        {
          "internalType": "uint256",
          "name": "marketId",
          "type": "uint256"
        },
        {
          "internalType": "address",
          "name": "user",
          "type": "address"
        },
        {
          "internalType": "uint256",
          "name": "option",
          "type": "uint256"
        },
        {
          "internalType": "uint256",
          "name": "amount",
          "type": "uint256"
        }
      ],
      "name": "trackStake",
      "outputs": [],
      "stateMutability": "nonpayable",
      "type": "function"
    },
    {
      "inputs": [
        {
          "internalType": "uint256",
          "name": "marketId",
          "type": "uint256"
        },
        {
          "internalType": "address",
          "name": "user",
          "type": "address"
        },
        {
          "internalType": "uint256",
          "name": "amount",
          "type": "uint256"
        }
      ],
      "name": "trackSupport",
      "outputs": [],
      "stateMutability": "nonpayable",
      "type": "function"
    },
    {
      "inputs": [
        {
          "internalType": "uint256",
          "name": "marketId",
          "type": "uint256"
        },
        {
          "internalType": "address",
          "name": "user",
          "type": "address"
        },
        {
          "internalType": "uint256",
          "name": "winnings",
          "type": "uint256"
        }
      ],
      "name": "trackWinnings",
      "outputs": [],
      "stateMutability": "nonpayable",
      "type": "function"
    },
    {
      "inputs": [
        {
          "internalType": "address",
          "name": "newOwner",
          "type": "address"
        }
      ],
      "name": "transferOwnership",
      "outputs": [],
      "stateMutability": "nonpayable",
      "type": "function"
    },
    {
      "inputs": [
        {
          "internalType": "address",
          "name": "",
          "type": "address"
        },
        {
          "internalType": "uint256",
          "name": "",
          "type": "uint256"
        }
      ],
      "name": "userBets",
      "outputs": [
        {
          "internalType": "uint256",
          "name": "",
          "type": "uint256"
        }
      ],
      "stateMutability": "view",
      "type": "function"
    },
    {
      "inputs": [
        {
          "internalType": "address",
          "name": "",
          "type": "address"
        },
        {
          "internalType": "uint256",
          "name": "",
          "type": "uint256"
        }
      ],
      "name": "userMarkets",
      "outputs": [
        {
          "internalType": "uint256",
          "name": "",
          "type": "uint256"
        }
      ],
      "stateMutability": "view",
      "type": "function"
    },
    {
      "inputs": [
        {
          "internalType": "address",
          "name": "",
          "type": "address"
        },
        {
          "internalType": "uint256",
          "name": "",
          "type": "uint256"
        }
      ],
      "name": "userOptionStats",
      "outputs": [
        {
          "internalType": "uint256",
          "name": "",
          "type": "uint256"
        }
      ],
      "stateMutability": "view",
      "type": "function"
    },
    {
      "inputs": [
        {
          "internalType": "address",
          "name": "",
          "type": "address"
        }
      ],
      "name": "userStats",
      "outputs": [
        {
          "internalType": "uint256",
          "name": "totalBetsPlaced",
          "type": "uint256"
        },
        {
          "internalType": "uint256",
          "name": "totalBetsWon",
          "type": "uint256"
        },
        {
          "internalType": "uint256",
          "name": "totalBetsLost",
          "type": "uint256"
        },
        {
          "internalType": "uint256",
          "name": "totalWinnings",
          "type": "uint256"
        },
        {
          "internalType": "uint256",
          "name": "totalLosses",
          "type": "uint256"
        },
        {
          "internalType": "uint256",
          "name": "totalSupportDonated",
          "type": "uint256"
        },
        {
          "internalType": "uint256",
          "name": "marketsCreated",
          "type": "uint256"
        },
        {
          "internalType": "uint256",
          "name": "marketsWon",
          "type": "uint256"
        },
        {
          "internalType": "uint256",
          "name": "marketsLost",
          "type": "uint256"
        },
        {
          "internalType": "uint256",
          "name": "favoriteOption",
          "type": "uint256"
        },
        {
          "internalType": "uint256",
          "name": "lastActivity",
          "type": "uint256"
        }
      ],
      "stateMutability": "view",
      "type": "function"
    },
    {
      "inputs": [
        {
          "internalType": "address",
          "name": "",
          "type": "address"
        },
        {
          "internalType": "uint256",
          "name": "",
          "type": "uint256"
        }
      ],
      "name": "userSupports",
      "outputs": [
        {
          "internalType": "uint256",
          "name": "",
          "type": "uint256"
        }
      ],
      "stateMutability": "view",
      "type": "function"
    }
  ],
  "bytecode": "0x608034620000de57601f6200353f38819003918201601f19168301916001600160401b03831184841017620000e3578084926040948552833981010312620000de576200005a60206200005283620000f9565b9201620000f9565b906001600160a01b03908116908115620000c5576000549260018060a01b03199280848616176000558260405195167f8be0079c531659141344cd1fd0a4f28419497f9722a3daafe3b4186f6b6457e0600080a31690600154161760015561343090816200010f8239f35b604051631e4fbdf760e01b815260006004820152602490fd5b600080fd5b634e487b7160e01b600052604160045260246000fd5b51906001600160a01b0382168203620000de5756fe608080604052600436101561001357600080fd5b60003560e01c9081630649e0c014612ceb57508063110d05e514612cae5780631c6e04db14612c375780632053114d14612b5557806325ec5ef114612b2a5780632d56657d14612a9f5780633d80d00b146127275780633f89efda146126a957806341ed2c12146126805780634b669c09146125f75780634e43603a1461248f57806350ad34a1146121a557806354488a5a1461215d57806357f978ad14611fcf57806358057fe514611eae5780635be0a34b14611e1657806361d442c214611d115780636b3b7ea714611cc75780636b4169c314611aa5578063715018a614611a5e5780638068aa6814611a1457806380aa0d8c14611828578063837cd235146114af5780638a65d874146114065780638da5cb5b146113dd5780638f46a5a1146112c75780639b7bcd241461112e578063a119515a14610dd3578063b2e1ae8b14610a10578063c228038d14610772578063cd94a775146105e8578063d82aff11146105a5578063da4473d814610548578063db0f871d1461054d578063e99c80bd14610548578063f054f00a146104b4578063f2fde38b14610440578063fbe151591461024e5763ff4a7300146101cc57600080fd5b34610249576101da36612df1565b906101f060018060a01b03600154163314612ed8565b60005260036020526005604060002060078101600160ff1982541617905542600682015501557f17d726ad382ea92487e2c4d01469c94fa17bef35e71d3f4b5414159695c038d2604080516000815260006020820152a1005b600080fd5b3461024957602080600319360112610249576004359060405161027081612fba565b6000815260018054604051631fca74dd60e31b81529294906001600160a01b03168484600481845afa93841561040557600094610411575b50825b8481106102c957604051868152806102c58189018a612d3f565b0390f35b60405163eb44fdd360e01b8152600481018290526024906000818381875afa801561040557610180916000916103e2575b50015160058110156103cd5715806103b6575b610321575b5061031c90612f34565b6102ab565b87919751908582018092116103a25750908761033d86936132b3565b91836000945b610361575b5061031c93506103599051836132e5565b529690610312565b91819394915182101561039857508061037d61038e92856132e5565b5161038882876132e5565b52612f34565b9291818a92610343565b9184939150610348565b634e487b7160e01b60009081526011600452fd5b50816000526003875283604060002054101561030d565b50634e487b7160e01b60009081526021600452fd5b6103ff91503d806000833e6103f78183612fd5565b81019061307b565b8a6102fa565b6040513d6000823e3d90fd5b9093508481813d8311610439575b6104298183612fd5565b81010312610249575192866102a8565b503d61041f565b3461024957602036600319011261024957610459612d9b565b610461612eac565b6001600160a01b0390811690811561049b576000548260018060a01b0319821617600055166000805160206133bb833981519152600080a3005b604051631e4fbdf760e01b815260006004820152602490fd5b34610249576040366003190112610249576104cd612db1565b6001546001600160a01b0391906104e79083163314612ed8565b1680600052600260205260008051602061339b833981519152604080600020600681016105148154612f34565b905542600a82015583600052600460205261053460043583600020613025565b6003815491015482519182526020820152a2005b612e35565b3461024957604036600319011261024957610566612d9b565b6001600160a01b03166000908152600460205260409020805460243591908210156102495760209161059791612e07565b90546040519160031b1c8152f35b34610249576020366003190112610249576105be612d9b565b6105c6612eac565b600180546001600160a01b0319166001600160a01b0392909216919091179055005b346102495760208060031936011261024957610602612d9b565b9060405161060f81612fba565b6000815260018054604051631fca74dd60e31b8152929492906001600160a01b039081168583600481845afa92831561040557600093610743575b509193811691835b85811061066c57604051878152806102c5818a018b612d3f565b60405163eb44fdd360e01b8152600481018290526024906000818381875afa801561040557608086918893600091610728575b50015116146106b8575b506106b390612f34565b610652565b88919851908682018092116103a2575090886106d487936132b3565b91836000945b6106f8575b506106b393506106f09051836132e5565b5297906106a9565b91819394915182101561071e57508061037d61071492856132e5565b9291818b926106da565b91849391506106df565b61073d91503d806000833e6103f78183612fd5565b8d61069f565b9092508581813d831161076b575b61075b8183612fd5565b810103126102495751918761064a565b503d610751565b34610249576080366003190112610249576004356024610790612db1565b600154606435916001600160a01b03916044359183916107b39083163314612ed8565b169081600052602093600285526040600020916107d08354612f34565b8355600483016107e1838254612f43565b905542600a84015583600052600786526040600020816000528652604060002061080b8154612f34565b905583600052600786526040600020816000528652604060002054846000526007875260406000209060098501918254600052885260406000205410610a08575b5050866000526003855260406000209385610868838754612f43565b918287556001541660405198898092630ccf446760e01b82528c60048301525afa968715610405576000976109d9575b50600185018781559680156109d0576108b091612ff8565b600385015560048401805482116109c8575b505081600052600484526040600020805490811591821561095b575b50509160008051602061339b83398151915260406000805160206133db833981519152979593819795610941575b83600052600586526109218a83600020613025565b60038154910154825191825286820152a2549154908351928352820152a2005b83600052600486526109568a83600020613025565b61090c565b909694929593915060001981019081116109b257604080968961099c60008051602061339b833981519152946000805160206133db8339815191529b612e07565b90549060031b1c141593959750939597506108de565b634e487b7160e01b600052601160045260246000fd5b5586806108c2565b505060006108b0565b9096508581813d8311610a01575b6109f18183612fd5565b8101031261024957519588610898565b503d6109e7565b55878061084c565b34610249576020806003193601126102495760018054604051631fca74dd60e31b81526001600160a01b039091169291908281600481875afa90811561040557600091610da6575b50604051610a6581612fba565b6000815293604051610a7681612fba565b6000815293835b838110610c185750505050806000905b610b19575b505060043580151580610b0f575b15610b07575b610aaf816132b3565b91610ab9826132b3565b9360005b838110610ad357604051806102c5888883612d73565b80610ae1610b0292846132e5565b51610aec82886132e5565b52610af781856132e5565b5161038882896132e5565b610abd565b508151610aa6565b5082518110610aa0565b8351600019908181019081116109b257821015610c1257600090835b610b4c575b5050610b468291612f34565b90610a8d565b610b5c8387949693959751613018565b8181019081116109b257841015610c0757610b7784836132e5565b51868501948581116109b25785610ba092610b938a98876132e5565b5111610ba9575b50612f34565b91949295610b35565b610bb382866132e5565b51610bbe82876132e5565b51610bc984886132e5565b52610bd482876132e5565b52610c00610be283886132e5565b5191610bee81896132e5565b51610bf9858a6132e5565b52876132e5565b5288610b9a565b819492959350610b3a565b50610a92565b60405163eb44fdd360e01b8152600481018290526024906000818381885afa80156104055761018091600091610d8b575b50015160058110156103cd5715610c6a575b50610c6590612f34565b610a7d565b909560405190630ccf446760e01b825287600483015283828481885afa91821561040557600092610d5c575b508851878101809111610d4757610cac906132b3565b928151908882018092116103a25750610cc589916132b3565b99886000815b610cf8575b505091610cef91610ce7610c6596959451866132e5565b52518a6132e5565b52969590610c5b565b9091928351821015610d3f575080610d13610d3592856132e5565b51610d1e82896132e5565b528c61038882610d2e81896132e5565b51926132e5565b908a929181610ccb565b929190610cd0565b83634e487b7160e01b60005260116004526000fd5b9091508381813d8311610d84575b610d748183612fd5565b8101031261024957519089610c96565b503d610d6a565b610da091503d806000833e6103f78183612fd5565b8a610c49565b90508281813d8311610dcc575b610dbd8183612fd5565b81010312610249575184610a58565b503d610db3565b34610249576020806003193601126102495760018054604051631fca74dd60e31b81526001600160a01b0390911691908381600481865afa90811561040557600091611101575b50604051610e2781612fba565b6000815293604051610e3881612fba565b6000815293835b838110610f4e5750505050806000905b610eba575b505060043580151580610eb0575b15610ea8575b610e71816132b3565b91610e7b826132b3565b9360005b838110610e9557604051806102c5888883612d73565b80610ae1610ea392846132e5565b610e7f565b508151610e68565b5082518110610e62565b8351600019908181019081116109b257821015610f4857600090835b610eed575b5050610ee78291612f34565b90610e4f565b610efd8387949693959751613018565b8181019081116109b257841015610f3d57610f1884836132e5565b51868501948581116109b25785610f3492610b938a98876132e5565b91949295610ed6565b819492959350610edb565b50610e54565b60405163eb44fdd360e01b8152600481018290526024906000818381875afa801561040557610180916000916110e6575b50015160058110156103cd5715610fa0575b50610f9b90612f34565b610e3f565b9095604051630ccf446760e01b815287600482015284818481875afa908115610405576000916110b9575b506040516328c2824560e21b8152600481018990529085828581885afa90811561040557600091611088575b6110019250612f43565b908851878101809111610d4757611017906132b3565b928151908882018092116103a2575061103089916132b3565b99886000815b61105b575b50509161105291610ce7610f9b96959451866132e5565b52969590610f91565b9091928351821015611080575080610d1361107692856132e5565b908a929181611036565b92919061103b565b90508582813d83116110b2575b61109f8183612fd5565b8101031261024957611001915190610ff7565b503d611095565b90508481813d83116110df575b6110d08183612fd5565b81010312610249575189610fcb565b503d6110c6565b6110fb91503d806000833e6103f78183612fd5565b8a610f7f565b90508381813d8311611127575b6111188183612fd5565b81010312610249575184610e1a565b503d61110e565b3461024957602080600319360112610249576004359060058083101590816102495760405161115c81612fba565b6000815260018054604051631fca74dd60e31b815292969294919391906001600160a01b03168686600481845afa95861561040557600096611298575b50845b8681106111b657604051888152806102c5818b018c612d3f565b60405163eb44fdd360e01b8152600481018290526024906000818381875afa8015610405576101809160009161127d575b500151858110156103cd57846103cd57861461120d575b5061120890612f34565b61119c565b89919951908782018092116103a25750908961122988936132b3565b91836000945b61124d575b5061120893506112459051836132e5565b5298906111fe565b91819394915182101561127357508061037d61126992856132e5565b9291818c9261122f565b9184939150611234565b61129291503d806000833e6103f78183612fd5565b8c6111e7565b9095508681813d83116112c0575b6112b08183612fd5565b8101031261024957519488611199565b503d6112a6565b34610249576112d536612dc7565b6001546001600160a01b03939284916112f19083163314612ed8565b16928360005260246020916002835260406000209361131560058601918254612f43565b905542600a85015584600052600383528260406000209160015416604051938480926328c2824560e21b82528960048301525afa9182156104055760009261139a575b5060008051602061339b8339815191529460409493926002611387930155866000526006835284600020613025565b60038254920154908351928352820152a2005b90939280925081813d83116113d6575b6113b48183612fd5565b810103126102495751919290919060008051602061339b833981519152611358565b503d6113aa565b34610249576000366003190112610249576000546040516001600160a01b039091168152602090f35b34610249576020366003190112610249576001600160a01b03611427612d9b565b16600052600260205261016060406000208054906001810154906002810154600382015460048301546005840154600685015491600786015493600887015495600a6009890154980154986040519a8b5260208b015260408a01526060890152608088015260a087015260c086015260e0850152610100840152610120830152610140820152f35b346102495760e0366003190112610249576114c8612d9b565b6114d0612db1565b600560843510159182610249576040516114e981612fba565b60008152600154604051631fca74dd60e31b815291949193906001600160a01b0316602085600481845afa948515610405576000956117f4575b5060015b85811061154457604051602080825281906102c59082018a612d3f565b60405163eb44fdd360e01b815260048101829052600081602481865afa908115610405576000916117d9575b5081600052600360205260406000209060405161158c81612f82565b82548082526001808501546020840152600285015460408401526003850154606084015260048501546080840152600585015460a0840152600685015460c0840152600785015460ff16151560e08401526008909401546101009092019190915286906001600160a01b038916801515906117c2575b6117b9575b6001600160a01b0387168015159061179f575b611796575b604435151560443561178b575b611782575b606435151590606435611776575b5061176d575b611757576084351515608435611738575b61172f575b60a435151560a43561171f575b611716575b60c43515159060c435611704575b506116fc575b611694575b61168f90612f34565b611527565b949193909286516001810181116109b25760016116b191016132b3565b9460005b88518110156116dc57806116cc6116d7928b6132e5565b51610388828a6132e5565b6116b5565b5092959694876116f361168f9396949751836132e5565b52969050611686565b506000611681565b905061010060c435910151118961167b565b6000915061166d565b5060a43561010082015110611668565b6000915061165b565b5061018081015195506005861015611757576000956084351415611656565b634e487b7160e01b600052602160045260246000fd5b60009250611645565b9050606435108b61163f565b60009350611631565b50604435811061162c565b6000935061161f565b5060808301516001600160a01b038881169116141561161a565b60009350611607565b5082516001600160a01b038a811691161415611602565b6117ee91503d806000833e6103f78183612fd5565b88611570565b9094506020813d602011611820575b8161181060209383612fd5565b8101031261024957519386611523565b3d9150611803565b3461024957604036600319011261024957611841612d9b565b60248035600592838210159081610249578383869260018060a01b03809116600052602092600484526040600020926040519384868254918281520191600052866000209060005b818110611a00575050508461189f910385612fd5565b6040516118ab81612fba565b60008152956000976001988995865416995b6118d5575b604051888152806102c5818b018c612d3f565b86518110156119fb578960006118eb838a6132e5565b51876040518094819363eb44fdd360e01b835260048301525afa801561040557610180916000916119e0575b500151838110156119cb57826119cb578414611946575b9861193c869798999a612f34565b90999897966118bd565b9780518681018091116119b65761195c906132b3565b906000875b611993575b50899a9161193c9161198761197e8b9c9d8b9c6132e5565b519151836132e5565b5299989750509861192e565b81518110156119b1576119ab8161037d8a93856132e5565b90611961565b611966565b85634e487b7160e01b60005260116004526000fd5b85634e487b7160e01b60005260216004526000fd5b6119f591503d806000833e6103f78183612fd5565b8c611917565b6118c2565b825484529288019260019283019201611889565b3461024957604036600319011261024957611a2d612d9b565b6001600160a01b03166000908152600560205260409020805460243591908210156102495760209161059791612e07565b3461024957600036600319011261024957611a77612eac565b600080546001600160a01b0319811682556001600160a01b03166000805160206133bb8339815191528280a3005b3461024957600036600319011261024957600060e0604051611ac681612f9e565b8281528260208201528260408201528260608201528260808201528260a08201528260c082015201526004602060018060a01b036001541660405192838092631fca74dd60e31b82525afa90811561040557600091611c95575b50806000198101116109b257600090818060015b6000198401811115611be7575061010093600019840115611bdf57611b5d600019850184612ff8565b905b60405192611b6c84612f9e565b6000198601845260208401948552604084019182526060840190815260808401916000835260a0850193845260e060c086019560008752019560008752604051976000190188525160208801525160408701525160608601525160808501525160a08401525160c08301525160e0820152f35b600090611b5f565b90611c8a611c9091611c82600295978560005260036020526020611c796040600020809b60086040519b8c93611c1c85612f82565b8054948590526001810154878f0152015460408d0190815260038f015460608e015260048f015460808e015260058f015460a08e015260068f015460c08e015260078f015460ff16151560e08e01529d01546101008c0152612f43565b97015190612f43565b965190612f43565b91612f34565b611b34565b90506020813d602011611cbf575b81611cb060209383612fd5565b81010312610249575181611b20565b3d9150611ca3565b3461024957604036600319011261024957611ce0612d9b565b6001600160a01b03166000908152600660205260409020805460243591908210156102495760209161059791612e07565b34610249576024611d2136612dc7565b92909160018060a01b038093611d3c82600154163314612ed8565b169384600052600260205260406000209060018201611d5b8154612f34565b90556003820192611d6d828554612f43565b845542600a840155600086600154166040519687809263eb44fdd360e01b82528560048301525afa9485156104055760008051602061339b833981519152966040968992600091611dfb575b50511614611dd4575b505054905482519182526020820152a2005b60078301611de28154612f34565b9055600052600360205260088460002001558580611dc2565b611e1091503d806000833e6103f78183612fd5565b8a611db9565b3461024957602080600319360112610249576040518091604082019060408352606051809252606083019160809060005b818110611e8e57505050828203818401528060605192838152019160809160005b828110611e7757505050500390f35b835185528695509381019392810192600101611e68565b82516001600160a01b031685528695509383019391830191600101611e47565b3461024957602036600319011261024957610120604051611ece81612f82565b6000815260006020820152600060408201526000606082015260006080820152600060a0820152600060c0820152600060e08201526000610100809201526004356000526003602052604060002090604051611f2981612f82565b8254928382526001810154602083019081526002820154604084019081526003830154606085019081526004840154906080860191825260058501549260a0870193845260068601549460c0880195865288600860ff60078a0154169860e08b019915158a5201549801978852604051998a525160208a01525160408901525160608801525160808701525160a08601525160c085015251151560e08401525190820152f35b3461024957611fdd36612df1565b90604051611fea81612fba565b6000815260018054604051631fca74dd60e31b81529294602094916001600160a01b03168585600481845afa9485156104055760009561212e575b50835b85811061204257604051878152806102c5818a018b612d3f565b60405163eb44fdd360e01b8152600481018290526024906000818381875afa80156104055761010091600091612113575b50015184868210159182612108575b5050612098575b5061209390612f34565b612028565b88919851908682018092116103a2575090886120b487936132b3565b91836000945b6120d8575b5061209393506120d09051836132e5565b529790612089565b9181939491518210156120fe57508061037d6120f492856132e5565b9291818b926120ba565b91849391506120bf565b11159050848b612082565b61212891503d806000833e6103f78183612fd5565b8b612073565b9094508581813d8311612156575b6121468183612fd5565b8101031261024957519387612025565b503d61213c565b34610249576040366003190112610249576001600160a01b0361217e612d9b565b16600052600760205260406000206024356000526020526020604060002054604051908152f35b34610249576020806003193601126102495760018054604051631fca74dd60e31b81526001600160a01b0390911691908381600481865afa90811561040557600091612462575b506040516121f981612fba565b600081529360405161220a81612fba565b6000815293835b8381106123205750505050806000905b61228c575b505060043580151580612282575b1561227a575b612243816132b3565b9161224d826132b3565b9360005b83811061226757604051806102c5888883612d73565b80610ae161227592846132e5565b612251565b50815161223a565b5082518110612234565b8351600019908181019081116109b25782101561231a57600090835b6122bf575b50506122b98291612f34565b90612221565b6122cf8387949693959751613018565b8181019081116109b25784101561230f576122ea84836132e5565b51868501948581116109b2578561230692610b938a98876132e5565b919492956122a8565b8194929593506122ad565b50612226565b60405163eb44fdd360e01b8152600481018290526024906000818381875afa80156104055761018091600091612447575b50015160058110156103cd5715612372575b5061236d90612f34565b612211565b9095875186810180911161243257612389906132b3565b918151908782018092116103a2575090876123a58894936132b3565b99846000955b6123e4575b5061236d94506123c19051846132e5565b5287600052600385526123db60406000205491518a6132e5565b52969590612363565b9181939495915182101561242757508061240161241c92856132e5565b5161240c82886132e5565b528b61038882610d2e81896132e5565b939291818a926123ab565b9185949391506123b0565b82634e487b7160e01b60005260116004526000fd5b61245c91503d806000833e6103f78183612fd5565b8a612351565b90508381813d8311612488575b6124798183612fd5565b810103126102495751846121ec565b503d61246f565b34610249576020366003190112610249576101606124ab612d9b565b610140604051916124bb83612f50565b6000835260006020840152600060408401526000606084015260006080840152600060a0840152600060c0840152600060e084015261010090600082850152600083610120958287820152015260018060a01b031660005260026020526040600020926040519161252b83612f50565b600a85549586855260018101546020860152600281015460408601526003810154606086015260048101546080860152600581015460a0860152600681015460c0860152600781015460e08601526008810154838601526009810154848601520154848401526040519485526020830151602086015260408301516040860152606083015160608601526080830151608086015260a083015160a086015260c083015160c086015260e083015160e0860152808301519085015280820151908401520151610140820152f35b346102495760203660031901126102495760043560005260036020526101206040600020805490600181015490600281015460038201546004830154600584015491600685015493600860ff60078801541696015496604051988952602089015260408801526060870152608086015260a085015260c0840152151560e0830152610100820152f35b34610249576000366003190112610249576001546040516001600160a01b039091168152602090f35b3461024957602036600319011261024957604051633d80d00b60e01b8152600760048201526004356024820152600081604481305afa90811561040557600090600092612701575b506102c560405192839283612d73565b905061272091503d806000833e6127188183612fd5565b810190613357565b90826126f1565b346102495761273536612df1565b60018054604051631fca74dd60e31b81526001600160a01b0390911693929190602081600481885afa90811561040557600091612a6e575b5060405161277a81612fba565b600081529460405161278b81612fba565b600081529462015180908181029181830414901517156109b2576127af9042613018565b835b8381106129215750505050806000905b612829575b50508015158061281f575b15612817575b6127e0816132b3565b916127ea826132b3565b9360005b83811061280457604051806102c5888883612d73565b80610ae161281292846132e5565b6127ee565b5081516127d7565b50825181106127d1565b8451600019908181019081116109b25782101561291b57908280926000915b61285e575b505061285890612f34565b906127c1565b9091925061286d838851613018565b8181019081116109b2578490831015612914575061288b82876132e5565b51848301928381116109b257836128b3926128a788968b6132e5565b51116128bc5750612f34565b90829392612848565b6128c6828a6132e5565b516128d1828b6132e5565b516128dc848c6132e5565b526128e7828b6132e5565b5261290d6128f5838c6132e5565b51918b61290685610d2e84846132e5565b528b6132e5565b5289610b9a565b929161284d565b506127c6565b60405163eb44fdd360e01b8152600481018290526024906000818381885afa90811561040557600091612a53575b506101808101516005811015612a3e571580612a2f575b61297b575b505061297690612f34565b6127b1565b899891929851878101809111610d4757612994906132b3565b928251908882018092116103a257506129ad8a916132b3565b9a886000815b6129e7575b50506129769493926129dd926129d26101009351876132e5565b52015191518b6132e5565b529796908961296b565b9091928351821015612a27575080612a02612a1d92856132e5565b51612a0d82896132e5565b528d61038882610d2e818a6132e5565b908b9291816129b3565b9291906129b8565b50836101008201511015612966565b82634e487b7160e01b60005260216004526000fd5b612a6891503d806000833e6103f78183612fd5565b8a61294f565b90506020813d8211612a97575b81612a8860209383612fd5565b8101031261024957518561276d565b3d9150612a7b565b3461024957602080600319360112610249576001600160a01b03612ac1612d9b565b1660005260058152604060002090604051808383829554938481520190600052836000209260005b85828210612b1457505050612b0092500383612fd5565b6102c5604051928284938452830190612d3f565b8554845260019586019588955093019201612ae9565b34610249576020366003190112610249576020612b4d612b48612d9b565b6131e3565b604051908152f35b3461024957612b6336612dc7565b506001546001600160a01b03918291612b7f9083163314612ed8565b1691826000526002602052604060002060028101612b9d8154612f34565b905542600a820155600083600154169260246040518095819363eb44fdd360e01b835260048301525afa9182156104055760008051602061339b833981519152936040938692600091612c1c575b50511614612c07576003815491015482519182526020820152a2005b60088101612c158154612f34565b9055610534565b612c3191503d806000833e6103f78183612fd5565b87612beb565b3461024957602080600319360112610249576001600160a01b03612c59612d9b565b1660005260068152604060002090604051808383829554938481520190600052836000209260005b85828210612c9857505050612b0092500383612fd5565b8554845260019586019588955093019201612c81565b34610249576020366003190112610249576001600160a01b03612ccf612d9b565b1660005260026020526020600960406000200154604051908152f35b3461024957602036600319011261024957633d80d00b60e01b8152600160048201526004356024820152600081604481305afa9081156104055760009060009261270157506102c560405192839283612d73565b90815180825260208080930193019160005b828110612d5f575050505090565b835185529381019392810192600101612d51565b9091612d8a612d9893604084526040840190612d3f565b916020818403910152612d3f565b90565b600435906001600160a01b038216820361024957565b602435906001600160a01b038216820361024957565b606090600319011261024957600435906024356001600160a01b0381168103610249579060443590565b6040906003190112610249576004359060243590565b8054821015612e1f5760005260206000200190600090565b634e487b7160e01b600052603260045260246000fd5b3461024957602080600319360112610249576001600160a01b03612e57612d9b565b1660005260048152604060002090604051808383829554938481520190600052836000209260005b85828210612e9657505050612b0092500383612fd5565b8554845260019586019588955093019201612e7f565b6000546001600160a01b03163303612ec057565b60405163118cdaa760e01b8152336004820152602490fd5b15612edf57565b60405162461bcd60e51b815260206004820152602760248201527f416e616c79746963733a204f6e6c79204d61726b65744d616e616765722063616044820152666e20747261636b60c81b6064820152608490fd5b60001981146109b25760010190565b919082018092116109b257565b61016081019081106001600160401b03821117612f6c57604052565b634e487b7160e01b600052604160045260246000fd5b61012081019081106001600160401b03821117612f6c57604052565b61010081019081106001600160401b03821117612f6c57604052565b602081019081106001600160401b03821117612f6c57604052565b601f909101601f19168101906001600160401b03821190821017612f6c57604052565b8115613002570490565b634e487b7160e01b600052601260045260246000fd5b919082039182116109b257565b8054600160401b811015612f6c5761304291600182018155612e07565b819291549060031b91821b91600019901b1916179055565b51906001600160a01b038216820361024957565b5190811515820361024957565b9060209081838203126102495782516001600160401b03938482116102495701916101e09384848403126102495760405194850185811082821117612f6c576040526130c68461305a565b85528184015181811161024957840183601f82011215610249578051918211612f6c5760405193613100601f8401601f1916850186612fd5565b82855283838301011161024957829060005b8381106131cf575050600091840101528301526131316040820161306e565b60408301526060810151606083015261314c6080820161305a565b608083015260a081015160a083015260c081015160c083015260e081015160e0830152610100808201519083015261012080820151908301526101408082015190830152610160808201519083015261018080820151906005821015610249578301526101a080820151908301526131c86101c080920161306e565b9082015290565b818101830151868201840152849201613112565b60018060a01b0316600052600260205260406000206040519061320582612f50565b8054808352600a600183015492836020860152600281015460408601526003810154606086015260048101546080860152600581015460a0860152600681015460c0860152600781015460e086015260088101546101008601526009810154610120860152015461014084015215613295576064810290808204606414901517156109b257612d98915190612ff8565b5050600090565b6001600160401b038111612f6c5760051b60200190565b906132bd8261329c565b6132ca6040519182612fd5565b82815280926132db601f199161329c565b0190602036910137565b8051821015612e1f5760209160051b010190565b81601f82011215610249578051916133108361329c565b9261331e6040519485612fd5565b808452602092838086019260051b820101928311610249578301905b828210613348575050505090565b8151815290830190830161333a565b9190916040818403126102495780516001600160401b03939084811161024957816133839184016132f9565b93602083015190811161024957612d9892016132f956fe4b6c7abacb75992cc13ad43ffe4479dac5f7be91202f5fbb108eb1af8d56ed628be0079c531659141344cd1fd0a4f28419497f9722a3daafe3b4186f6b6457e057aec02922d876ec3d68c70ddf1563d34f09d29032f77ccb3357d31cffe7e733a26469706673582212207afa0f4da9146c421562fe5ea0001d9483b5ba7d350c1cb069c0b738d2d9a38e64736f6c63430008140033",
  "linkReferences": {},
  "deployedLinkReferences": {}
}