{
  "_format": "hh-sol-artifact-1",
  "contractName": "MetricsHub",
  "sourceName": "contracts/P2PAnalytics.sol",
  "abi": [
    {
      "inputs": [
        {
          "internalType": "address",
          "name": "initialOwner",
          "type": "address"
        },
        {
          "internalType": "address",
          "name": "_marketManager",
          "type": "address"
        }
      ],
      "stateMutability": "nonpayable",
      "type": "constructor"
    },
    {
      "inputs": [
        {
          "internalType": "address",
          "name": "owner",
          "type": "address"
        }
      ],
      "name": "OwnableInvalidOwner",
      "type": "error"
    },
    {
      "inputs": [
        {
          "internalType": "address",
          "name": "account",
          "type": "address"
        }
      ],
      "name": "OwnableUnauthorizedAccount",
      "type": "error"
    },
    {
      "anonymous": false,
      "inputs": [
        {
          "indexed": false,
          "internalType": "uint256",
          "name": "totalMarkets",
          "type": "uint256"
        },
        {
          "indexed": false,
          "internalType": "uint256",
          "name": "totalVolume",
          "type": "uint256"
        }
      ],
      "name": "GlobalStatsUpdated",
      "type": "event"
    },
    {
      "anonymous": false,
      "inputs": [
        {
          "indexed": true,
          "internalType": "uint256",
          "name": "marketId",
          "type": "uint256"
        },
        {
          "indexed": false,
          "internalType": "uint256",
          "name": "volume",
          "type": "uint256"
        },
        {
          "indexed": false,
          "internalType": "uint256",
          "name": "bettors",
          "type": "uint256"
        }
      ],
      "name": "MarketStatsUpdated",
      "type": "event"
    },
    {
      "anonymous": false,
      "inputs": [
        {
          "indexed": true,
          "internalType": "address",
          "name": "previousOwner",
          "type": "address"
        },
        {
          "indexed": true,
          "internalType": "address",
          "name": "newOwner",
          "type": "address"
        }
      ],
      "name": "OwnershipTransferred",
      "type": "event"
    },
    {
      "anonymous": false,
      "inputs": [
        {
          "indexed": true,
          "internalType": "address",
          "name": "user",
          "type": "address"
        },
        {
          "indexed": false,
          "internalType": "uint256",
          "name": "totalBets",
          "type": "uint256"
        },
        {
          "indexed": false,
          "internalType": "uint256",
          "name": "winnings",
          "type": "uint256"
        }
      ],
      "name": "UserStatsUpdated",
      "type": "event"
    },
    {
      "inputs": [
        {
          "internalType": "uint256",
          "name": "limit",
          "type": "uint256"
        }
      ],
      "name": "getActiveMarketsByBettorCount",
      "outputs": [
        {
          "internalType": "uint256[]",
          "name": "",
          "type": "uint256[]"
        },
        {
          "internalType": "uint256[]",
          "name": "",
          "type": "uint256[]"
        }
      ],
      "stateMutability": "view",
      "type": "function"
    },
    {
      "inputs": [
        {
          "internalType": "uint256",
          "name": "minVolume",
          "type": "uint256"
        }
      ],
      "name": "getActiveMarketsByMinVolume",
      "outputs": [
        {
          "internalType": "uint256[]",
          "name": "",
          "type": "uint256[]"
        }
      ],
      "stateMutability": "view",
      "type": "function"
    },
    {
      "inputs": [
        {
          "internalType": "uint256",
          "name": "limit",
          "type": "uint256"
        }
      ],
      "name": "getActiveMarketsByParticipants",
      "outputs": [
        {
          "internalType": "uint256[]",
          "name": "",
          "type": "uint256[]"
        },
        {
          "internalType": "uint256[]",
          "name": "",
          "type": "uint256[]"
        }
      ],
      "stateMutability": "view",
      "type": "function"
    },
    {
      "inputs": [
        {
          "internalType": "uint256",
          "name": "limit",
          "type": "uint256"
        }
      ],
      "name": "getActiveMarketsByVolume",
      "outputs": [
        {
          "internalType": "uint256[]",
          "name": "",
          "type": "uint256[]"
        },
        {
          "internalType": "uint256[]",
          "name": "",
          "type": "uint256[]"
        }
      ],
      "stateMutability": "view",
      "type": "function"
    },
    {
      "inputs": [],
      "name": "getGlobalStats",
      "outputs": [
        {
          "components": [
            {
              "internalType": "uint256",
              "name": "totalMarkets",
              "type": "uint256"
            },
            {
              "internalType": "uint256",
              "name": "totalVolume",
              "type": "uint256"
            },
            {
              "internalType": "uint256",
              "name": "totalBettors",
              "type": "uint256"
            },
            {
              "internalType": "uint256",
              "name": "totalSupporters",
              "type": "uint256"
            },
            {
              "internalType": "uint256",
              "name": "totalWinnings",
              "type": "uint256"
            },
            {
              "internalType": "uint256",
              "name": "averageMarketSize",
              "type": "uint256"
            },
            {
              "internalType": "uint256",
              "name": "mostActiveToken",
              "type": "uint256"
            },
            {
              "internalType": "uint256",
              "name": "averageResolutionTime",
              "type": "uint256"
            }
          ],
          "internalType": "struct MetricsHub.GlobalStats",
          "name": "",
          "type": "tuple"
        }
      ],
      "stateMutability": "view",
      "type": "function"
    },
    {
      "inputs": [
        {
          "internalType": "uint256",
          "name": "marketId",
          "type": "uint256"
        }
      ],
      "name": "getMarketStats",
      "outputs": [
        {
          "components": [
            {
              "internalType": "uint256",
              "name": "totalVolume",
              "type": "uint256"
            },
            {
              "internalType": "uint256",
              "name": "totalBettors",
              "type": "uint256"
            },
            {
              "internalType": "uint256",
              "name": "totalSupporters",
              "type": "uint256"
            },
            {
              "internalType": "uint256",
              "name": "averageBetSize",
              "type": "uint256"
            },
            {
              "internalType": "uint256",
              "name": "largestBet",
              "type": "uint256"
            },
            {
              "internalType": "uint256",
              "name": "mostPopularOption",
              "type": "uint256"
            },
            {
              "internalType": "uint256",
              "name": "resolutionTime",
              "type": "uint256"
            },
            {
              "internalType": "bool",
              "name": "wasResolved",
              "type": "bool"
            },
            {
              "internalType": "uint256",
              "name": "creatorWinnings",
              "type": "uint256"
            }
          ],
          "internalType": "struct MetricsHub.MarketStats",
          "name": "",
          "type": "tuple"
        }
      ],
      "stateMutability": "view",
      "type": "function"
    },
    {
      "inputs": [
        {
          "internalType": "address",
          "name": "creator",
          "type": "address"
        }
      ],
      "name": "getMarketsByCreator",
      "outputs": [
        {
          "internalType": "uint256[]",
          "name": "",
          "type": "uint256[]"
        }
      ],
      "stateMutability": "view",
      "type": "function"
    },
    {
      "inputs": [
        {
          "internalType": "uint256",
          "name": "startTime",
          "type": "uint256"
        },
        {
          "internalType": "uint256",
          "name": "endTime",
          "type": "uint256"
        }
      ],
      "name": "getMarketsByDateRange",
      "outputs": [
        {
          "internalType": "uint256[]",
          "name": "",
          "type": "uint256[]"
        }
      ],
      "stateMutability": "view",
      "type": "function"
    },
    {
      "inputs": [
        {
          "internalType": "enum EventPool.MarketState",
          "name": "state",
          "type": "uint8"
        }
      ],
      "name": "getMarketsByState",
      "outputs": [
        {
          "internalType": "uint256[]",
          "name": "",
          "type": "uint256[]"
        }
      ],
      "stateMutability": "view",
      "type": "function"
    },
    {
      "inputs": [
        {
          "internalType": "address",
          "name": "token",
          "type": "address"
        }
      ],
      "name": "getMarketsByToken",
      "outputs": [
        {
          "internalType": "uint256[]",
          "name": "",
          "type": "uint256[]"
        }
      ],
      "stateMutability": "view",
      "type": "function"
    },
    {
      "inputs": [
        {
          "internalType": "address",
          "name": "creator",
          "type": "address"
        },
        {
          "internalType": "address",
          "name": "token",
          "type": "address"
        },
        {
          "internalType": "uint256",
          "name": "minVolume",
          "type": "uint256"
        },
        {
          "internalType": "uint256",
          "name": "maxVolume",
          "type": "uint256"
        },
        {
          "internalType": "enum EventPool.MarketState",
          "name": "state",
          "type": "uint8"
        },
        {
          "internalType": "uint256",
          "name": "startTime",
          "type": "uint256"
        },
        {
          "internalType": "uint256",
          "name": "endTime",
          "type": "uint256"
        }
      ],
      "name": "getMarketsFiltered",
      "outputs": [
        {
          "internalType": "uint256[]",
          "name": "",
          "type": "uint256[]"
        }
      ],
      "stateMutability": "view",
      "type": "function"
    },
    {
      "inputs": [
        {
          "internalType": "uint256",
          "name": "daysBack",
          "type": "uint256"
        },
        {
          "internalType": "uint256",
          "name": "limit",
          "type": "uint256"
        }
      ],
      "name": "getRecentActiveMarkets",
      "outputs": [
        {
          "internalType": "uint256[]",
          "name": "",
          "type": "uint256[]"
        },
        {
          "internalType": "uint256[]",
          "name": "",
          "type": "uint256[]"
        }
      ],
      "stateMutability": "view",
      "type": "function"
    },
    {
      "inputs": [
        {
          "internalType": "uint256",
          "name": "limit",
          "type": "uint256"
        }
      ],
      "name": "getThisWeekActiveMarkets",
      "outputs": [
        {
          "internalType": "uint256[]",
          "name": "",
          "type": "uint256[]"
        },
        {
          "internalType": "uint256[]",
          "name": "",
          "type": "uint256[]"
        }
      ],
      "stateMutability": "view",
      "type": "function"
    },
    {
      "inputs": [
        {
          "internalType": "uint256",
          "name": "limit",
          "type": "uint256"
        }
      ],
      "name": "getTodayActiveMarkets",
      "outputs": [
        {
          "internalType": "uint256[]",
          "name": "",
          "type": "uint256[]"
        },
        {
          "internalType": "uint256[]",
          "name": "",
          "type": "uint256[]"
        }
      ],
      "stateMutability": "view",
      "type": "function"
    },
    {
      "inputs": [
        {
          "internalType": "uint256",
          "name": "limit",
          "type": "uint256"
        }
      ],
      "name": "getTopBettors",
      "outputs": [
        {
          "internalType": "address[]",
          "name": "",
          "type": "address[]"
        },
        {
          "internalType": "uint256[]",
          "name": "",
          "type": "uint256[]"
        }
      ],
      "stateMutability": "view",
      "type": "function"
    },
    {
      "inputs": [
        {
          "internalType": "address",
          "name": "user",
          "type": "address"
        }
      ],
      "name": "getUserBets",
      "outputs": [
        {
          "internalType": "uint256[]",
          "name": "",
          "type": "uint256[]"
        }
      ],
      "stateMutability": "view",
      "type": "function"
    },
    {
      "inputs": [
        {
          "internalType": "address",
          "name": "user",
          "type": "address"
        }
      ],
      "name": "getUserFavoriteOption",
      "outputs": [
        {
          "internalType": "uint256",
          "name": "",
          "type": "uint256"
        }
      ],
      "stateMutability": "view",
      "type": "function"
    },
    {
      "inputs": [
        {
          "internalType": "address",
          "name": "user",
          "type": "address"
        }
      ],
      "name": "getUserMarkets",
      "outputs": [
        {
          "internalType": "uint256[]",
          "name": "",
          "type": "uint256[]"
        }
      ],
      "stateMutability": "view",
      "type": "function"
    },
    {
      "inputs": [
        {
          "internalType": "address",
          "name": "user",
          "type": "address"
        },
        {
          "internalType": "enum EventPool.MarketState",
          "name": "state",
          "type": "uint8"
        }
      ],
      "name": "getUserMarketsByState",
      "outputs": [
        {
          "internalType": "uint256[]",
          "name": "",
          "type": "uint256[]"
        }
      ],
      "stateMutability": "view",
      "type": "function"
    },
    {
      "inputs": [
        {
          "internalType": "address",
          "name": "user",
          "type": "address"
        }
      ],
      "name": "getUserStats",
      "outputs": [
        {
          "components": [
            {
              "internalType": "uint256",
              "name": "totalBetsPlaced",
              "type": "uint256"
            },
            {
              "internalType": "uint256",
              "name": "totalBetsWon",
              "type": "uint256"
            },
            {
              "internalType": "uint256",
              "name": "totalBetsLost",
              "type": "uint256"
            },
            {
              "internalType": "uint256",
              "name": "totalWinnings",
              "type": "uint256"
            },
            {
              "internalType": "uint256",
              "name": "totalLosses",
              "type": "uint256"
            },
            {
              "internalType": "uint256",
              "name": "totalSupportDonated",
              "type": "uint256"
            },
            {
              "internalType": "uint256",
              "name": "marketsCreated",
              "type": "uint256"
            },
            {
              "internalType": "uint256",
              "name": "marketsWon",
              "type": "uint256"
            },
            {
              "internalType": "uint256",
              "name": "marketsLost",
              "type": "uint256"
            },
            {
              "internalType": "uint256",
              "name": "favoriteOption",
              "type": "uint256"
            },
            {
              "internalType": "uint256",
              "name": "lastActivity",
              "type": "uint256"
            }
          ],
          "internalType": "struct MetricsHub.UserStats",
          "name": "",
          "type": "tuple"
        }
      ],
      "stateMutability": "view",
      "type": "function"
    },
    {
      "inputs": [
        {
          "internalType": "address",
          "name": "user",
          "type": "address"
        }
      ],
      "name": "getUserSupports",
      "outputs": [
        {
          "internalType": "uint256[]",
          "name": "",
          "type": "uint256[]"
        }
      ],
      "stateMutability": "view",
      "type": "function"
    },
    {
      "inputs": [
        {
          "internalType": "address",
          "name": "user",
          "type": "address"
        }
      ],
      "name": "getUserWinRate",
      "outputs": [
        {
          "internalType": "uint256",
          "name": "",
          "type": "uint256"
        }
      ],
      "stateMutability": "view",
      "type": "function"
    },
    {
      "inputs": [],
      "name": "marketManager",
      "outputs": [
        {
          "internalType": "address payable",
          "name": "",
          "type": "address"
        }
      ],
      "stateMutability": "view",
      "type": "function"
    },
    {
      "inputs": [
        {
          "internalType": "uint256",
          "name": "",
          "type": "uint256"
        }
      ],
      "name": "marketStats",
      "outputs": [
        {
          "internalType": "uint256",
          "name": "totalVolume",
          "type": "uint256"
        },
        {
          "internalType": "uint256",
          "name": "totalBettors",
          "type": "uint256"
        },
        {
          "internalType": "uint256",
          "name": "totalSupporters",
          "type": "uint256"
        },
        {
          "internalType": "uint256",
          "name": "averageBetSize",
          "type": "uint256"
        },
        {
          "internalType": "uint256",
          "name": "largestBet",
          "type": "uint256"
        },
        {
          "internalType": "uint256",
          "name": "mostPopularOption",
          "type": "uint256"
        },
        {
          "internalType": "uint256",
          "name": "resolutionTime",
          "type": "uint256"
        },
        {
          "internalType": "bool",
          "name": "wasResolved",
          "type": "bool"
        },
        {
          "internalType": "uint256",
          "name": "creatorWinnings",
          "type": "uint256"
        }
      ],
      "stateMutability": "view",
      "type": "function"
    },
    {
      "inputs": [],
      "name": "owner",
      "outputs": [
        {
          "internalType": "address",
          "name": "",
          "type": "address"
        }
      ],
      "stateMutability": "view",
      "type": "function"
    },
    {
      "inputs": [],
      "name": "renounceOwnership",
      "outputs": [],
      "stateMutability": "nonpayable",
      "type": "function"
    },
    {
      "inputs": [
        {
          "internalType": "address",
          "name": "_marketManager",
          "type": "address"
        }
      ],
      "name": "setMarketManager",
      "outputs": [],
      "stateMutability": "nonpayable",
      "type": "function"
    },
    {
      "inputs": [
        {
          "internalType": "uint256",
          "name": "marketId",
          "type": "uint256"
        },
        {
          "internalType": "address",
          "name": "user",
          "type": "address"
        },
        {
          "internalType": "uint256",
          "name": "option",
          "type": "uint256"
        },
        {
          "internalType": "uint256",
          "name": "amount",
          "type": "uint256"
        }
      ],
      "name": "trackBet",
      "outputs": [],
      "stateMutability": "nonpayable",
      "type": "function"
    },
    {
      "inputs": [
        {
          "internalType": "uint256",
          "name": "marketId",
          "type": "uint256"
        },
        {
          "internalType": "address",
          "name": "user",
          "type": "address"
        },
        {
          "internalType": "uint256",
          "name": "loss",
          "type": "uint256"
        }
      ],
      "name": "trackLoss",
      "outputs": [],
      "stateMutability": "nonpayable",
      "type": "function"
    },
    {
      "inputs": [
        {
          "internalType": "uint256",
          "name": "marketId",
          "type": "uint256"
        },
        {
          "internalType": "address",
          "name": "creator",
          "type": "address"
        }
      ],
      "name": "trackMarketCreation",
      "outputs": [],
      "stateMutability": "nonpayable",
      "type": "function"
    },
    {
      "inputs": [
        {
          "internalType": "uint256",
          "name": "marketId",
          "type": "uint256"
        },
        {
          "internalType": "uint256",
          "name": "winningOption",
          "type": "uint256"
        }
      ],
      "name": "trackMarketResolution",
      "outputs": [],
      "stateMutability": "nonpayable",
      "type": "function"
    },
    {
      "inputs": [
        {
          "internalType": "uint256",
          "name": "marketId",
          "type": "uint256"
        },
        {
          "internalType": "address",
          "name": "user",
          "type": "address"
        },
        {
          "internalType": "uint256",
          "name": "amount",
          "type": "uint256"
        }
      ],
      "name": "trackSupport",
      "outputs": [],
      "stateMutability": "nonpayable",
      "type": "function"
    },
    {
      "inputs": [
        {
          "internalType": "uint256",
          "name": "marketId",
          "type": "uint256"
        },
        {
          "internalType": "address",
          "name": "user",
          "type": "address"
        },
        {
          "internalType": "uint256",
          "name": "winnings",
          "type": "uint256"
        }
      ],
      "name": "trackWinnings",
      "outputs": [],
      "stateMutability": "nonpayable",
      "type": "function"
    },
    {
      "inputs": [
        {
          "internalType": "address",
          "name": "newOwner",
          "type": "address"
        }
      ],
      "name": "transferOwnership",
      "outputs": [],
      "stateMutability": "nonpayable",
      "type": "function"
    },
    {
      "inputs": [
        {
          "internalType": "address",
          "name": "",
          "type": "address"
        },
        {
          "internalType": "uint256",
          "name": "",
          "type": "uint256"
        }
      ],
      "name": "userBets",
      "outputs": [
        {
          "internalType": "uint256",
          "name": "",
          "type": "uint256"
        }
      ],
      "stateMutability": "view",
      "type": "function"
    },
    {
      "inputs": [
        {
          "internalType": "address",
          "name": "",
          "type": "address"
        },
        {
          "internalType": "uint256",
          "name": "",
          "type": "uint256"
        }
      ],
      "name": "userMarkets",
      "outputs": [
        {
          "internalType": "uint256",
          "name": "",
          "type": "uint256"
        }
      ],
      "stateMutability": "view",
      "type": "function"
    },
    {
      "inputs": [
        {
          "internalType": "address",
          "name": "",
          "type": "address"
        },
        {
          "internalType": "uint256",
          "name": "",
          "type": "uint256"
        }
      ],
      "name": "userOptionStats",
      "outputs": [
        {
          "internalType": "uint256",
          "name": "",
          "type": "uint256"
        }
      ],
      "stateMutability": "view",
      "type": "function"
    },
    {
      "inputs": [
        {
          "internalType": "address",
          "name": "",
          "type": "address"
        }
      ],
      "name": "userStats",
      "outputs": [
        {
          "internalType": "uint256",
          "name": "totalBetsPlaced",
          "type": "uint256"
        },
        {
          "internalType": "uint256",
          "name": "totalBetsWon",
          "type": "uint256"
        },
        {
          "internalType": "uint256",
          "name": "totalBetsLost",
          "type": "uint256"
        },
        {
          "internalType": "uint256",
          "name": "totalWinnings",
          "type": "uint256"
        },
        {
          "internalType": "uint256",
          "name": "totalLosses",
          "type": "uint256"
        },
        {
          "internalType": "uint256",
          "name": "totalSupportDonated",
          "type": "uint256"
        },
        {
          "internalType": "uint256",
          "name": "marketsCreated",
          "type": "uint256"
        },
        {
          "internalType": "uint256",
          "name": "marketsWon",
          "type": "uint256"
        },
        {
          "internalType": "uint256",
          "name": "marketsLost",
          "type": "uint256"
        },
        {
          "internalType": "uint256",
          "name": "favoriteOption",
          "type": "uint256"
        },
        {
          "internalType": "uint256",
          "name": "lastActivity",
          "type": "uint256"
        }
      ],
      "stateMutability": "view",
      "type": "function"
    },
    {
      "inputs": [
        {
          "internalType": "address",
          "name": "",
          "type": "address"
        },
        {
          "internalType": "uint256",
          "name": "",
          "type": "uint256"
        }
      ],
      "name": "userSupports",
      "outputs": [
        {
          "internalType": "uint256",
          "name": "",
          "type": "uint256"
        }
      ],
      "stateMutability": "view",
      "type": "function"
    }
  ],
  "bytecode": "0x608034620000de57601f6200354f38819003918201601f19168301916001600160401b03831184841017620000e3578084926040948552833981010312620000de576200005a60206200005283620000f9565b9201620000f9565b906001600160a01b03908116908115620000c5576000549260018060a01b03199280848616176000558260405195167f8be0079c531659141344cd1fd0a4f28419497f9722a3daafe3b4186f6b6457e0600080a31690600154161760015561344090816200010f8239f35b604051631e4fbdf760e01b815260006004820152602490fd5b600080fd5b634e487b7160e01b600052604160045260246000fd5b51906001600160a01b0382168203620000de5756fe608080604052600436101561001357600080fd5b60003560e01c9081630649e0c014612d3b57508063110d05e514612cfe5780631c6e04db14612c875780632053114d14612ba557806325ec5ef114612b7a5780632d56657d14612aef5780633d80d00b146127775780633f89efda146126f957806341ed2c12146126d05780634b669c09146126475780634e43603a146124df57806350ad34a1146121f55780635374b47b14611f4957806354488a5a14611f0157806357f978ad14611d7357806358057fe514611c525780635be0a34b14611bba57806361d442c214611ab55780636b3b7ea714611a6b5780636b4169c314611849578063715018a6146117f05780638068aa68146117a657806380aa0d8c146115ba578063837cd235146112415780638a65d874146111985780638da5cb5b1461116f5780638f46a5a1146110595780639b7bcd2414610ec0578063a119515a14610b65578063b2e1ae8b1461078c578063cd94a77514610602578063d82aff11146105bf578063da4473d814610562578063db0f871d14610567578063e99c80bd14610562578063f054f00a146104ce578063f2fde38b14610440578063fbe151591461024e5763ff4a7300146101cc57600080fd5b34610249576101da36612e41565b906101f060018060a01b03600154163314612f28565b60005260036020526005604060002060078101600160ff1982541617905542600682015501557f17d726ad382ea92487e2c4d01469c94fa17bef35e71d3f4b5414159695c038d2604080516000815260006020820152a1005b600080fd5b346102495760208060031936011261024957600435906040516102708161300d565b6000815260018054604051631fca74dd60e31b81529294906001600160a01b03168484600481845afa93841561040557600094610411575b50825b8481106102c957604051868152806102c58189018a612d8f565b0390f35b60405163eb44fdd360e01b8152600481018290526024906000818381875afa801561040557610160916000916103e2575b50015160058110156103cd5715806103b6575b610321575b5061031c90612f84565b6102ab565b87919751908582018092116103a25750908761033d8693613302565b91836000945b610361575b5061031c9350610359905183613334565b529690610312565b91819394915182101561039857508061037d61038e9285613334565b516103888287613334565b52612f84565b9291818a92610343565b9184939150610348565b634e487b7160e01b60009081526011600452fd5b50816000526003875283604060002054101561030d565b50634e487b7160e01b60009081526021600452fd5b6103ff91503d806000833e6103f78183613029565b8101906130d3565b8a6102fa565b6040513d6000823e3d90fd5b9093508481813d8311610439575b6104298183613029565b81010312610249575192866102a8565b503d61041f565b3461024957602036600319011261024957610459612deb565b610461612efc565b6001600160a01b039081169081156104b557600054826bffffffffffffffffffffffff60a01b821617600055167f8be0079c531659141344cd1fd0a4f28419497f9722a3daafe3b4186f6b6457e0600080a3005b604051631e4fbdf760e01b815260006004820152602490fd5b34610249576040366003190112610249576104e7612e01565b6001546001600160a01b0391906105019083163314612f28565b168060005260026020526000805160206133eb8339815191526040806000206006810161052e8154612f84565b905542600a82015583600052600460205261054e60043583600020613078565b6003815491015482519182526020820152a2005b612e85565b3461024957604036600319011261024957610580612deb565b6001600160a01b0316600090815260046020526040902080546024359190821015610249576020916105b191612e57565b90546040519160031b1c8152f35b34610249576020366003190112610249576105d8612deb565b6105e0612efc565b600180546001600160a01b0319166001600160a01b0392909216919091179055005b34610249576020806003193601126102495761061c612deb565b906040516106298161300d565b6000815260018054604051631fca74dd60e31b8152929492906001600160a01b039081168583600481845afa9283156104055760009361075d575b509193811691835b85811061068657604051878152806102c5818a018b612d8f565b60405163eb44fdd360e01b8152600481018290526024906000818381875afa801561040557608086918893600091610742575b50015116146106d2575b506106cd90612f84565b61066c565b88919851908682018092116103a2575090886106ee8793613302565b91836000945b610712575b506106cd935061070a905183613334565b5297906106c3565b91819394915182101561073857508061037d61072e9285613334565b9291818b926106f4565b91849391506106f9565b61075791503d806000833e6103f78183613029565b8d6106b9565b9092508581813d8311610785575b6107758183613029565b8101031261024957519187610664565b503d61076b565b34610249576020806003193601126102495760018054604051631fca74dd60e31b81526001600160a01b039091169291908281600481875afa90811561040557600091610b38575b506040516107e18161300d565b60008152936040516107f28161300d565b6000815293835b8381106109aa5750505050806000905b610895575b50506004358015158061088b575b15610883575b61082b81613302565b9161083582613302565b9360005b83811061084f57604051806102c5888883612dc3565b8061085d61087e9284613334565b516108688288613334565b526108738185613334565b516103888289613334565b610839565b508151610822565b508251811061081c565b835160001990818101908111610983578210156109a457600090835b6108c8575b50506108c28291612f84565b90610809565b6108d8838794969395975161306b565b81810190811161098357841015610999576108f38483613334565b5186850194858111610983578561091c9261090f8a9887613334565b5111610925575b50612f84565b919492956108b1565b61092f8286613334565b5161093a8287613334565b516109458488613334565b526109508287613334565b5261097c61095e8388613334565b519161096a8189613334565b51610975858a613334565b5287613334565b5288610916565b634e487b7160e01b600052601160045260246000fd5b8194929593506108b6565b5061080e565b60405163eb44fdd360e01b8152600481018290526024906000818381885afa80156104055761016091600091610b1d575b50015160058110156103cd57156109fc575b506109f790612f84565b6107f9565b9095604051906314d4501160e21b825287600483015283828481885afa91821561040557600092610aee575b508851878101809111610ad957610a3e90613302565b928151908882018092116103a25750610a578991613302565b99886000815b610a8a575b505091610a8191610a796109f79695945186613334565b52518a613334565b529695906109ed565b9091928351821015610ad1575080610aa5610ac79285613334565b51610ab08289613334565b528c61038882610ac08189613334565b5192613334565b908a929181610a5d565b929190610a62565b83634e487b7160e01b60005260116004526000fd5b9091508381813d8311610b16575b610b068183613029565b8101031261024957519089610a28565b503d610afc565b610b3291503d806000833e6103f78183613029565b8a6109db565b90508281813d8311610b5e575b610b4f8183613029565b810103126102495751846107d4565b503d610b45565b34610249576020806003193601126102495760018054604051631fca74dd60e31b81526001600160a01b0390911691908381600481865afa90811561040557600091610e93575b50604051610bb98161300d565b6000815293604051610bca8161300d565b6000815293835b838110610ce05750505050806000905b610c4c575b505060043580151580610c42575b15610c3a575b610c0381613302565b91610c0d82613302565b9360005b838110610c2757604051806102c5888883612dc3565b8061085d610c359284613334565b610c11565b508151610bfa565b5082518110610bf4565b83516000199081810190811161098357821015610cda57600090835b610c7f575b5050610c798291612f84565b90610be1565b610c8f838794969395975161306b565b81810190811161098357841015610ccf57610caa8483613334565b51868501948581116109835785610cc69261090f8a9887613334565b91949295610c68565b819492959350610c6d565b50610be6565b60405163eb44fdd360e01b8152600481018290526024906000818381875afa80156104055761016091600091610e78575b50015160058110156103cd5715610d32575b50610d2d90612f84565b610bd1565b90956040516314d4501160e21b815287600482015284818481875afa90811561040557600091610e4b575b506040516328c2824560e21b8152600481018990529085828581885afa90811561040557600091610e1a575b610d939250612f93565b908851878101809111610ad957610da990613302565b928151908882018092116103a25750610dc28991613302565b99886000815b610ded575b505091610de491610a79610d2d9695945186613334565b52969590610d23565b9091928351821015610e12575080610aa5610e089285613334565b908a929181610dc8565b929190610dcd565b90508582813d8311610e44575b610e318183613029565b8101031261024957610d93915190610d89565b503d610e27565b90508481813d8311610e71575b610e628183613029565b81010312610249575189610d5d565b503d610e58565b610e8d91503d806000833e6103f78183613029565b8a610d11565b90508381813d8311610eb9575b610eaa8183613029565b81010312610249575184610bac565b503d610ea0565b34610249576020806003193601126102495760043590600580831015908161024957604051610eee8161300d565b6000815260018054604051631fca74dd60e31b815292969294919391906001600160a01b03168686600481845afa9586156104055760009661102a575b50845b868110610f4857604051888152806102c5818b018c612d8f565b60405163eb44fdd360e01b8152600481018290526024906000818381875afa8015610405576101609160009161100f575b500151858110156103cd57846103cd578614610f9f575b50610f9a90612f84565b610f2e565b89919951908782018092116103a257509089610fbb8893613302565b91836000945b610fdf575b50610f9a9350610fd7905183613334565b529890610f90565b91819394915182101561100557508061037d610ffb9285613334565b9291818c92610fc1565b9184939150610fc6565b61102491503d806000833e6103f78183613029565b8c610f79565b9095508681813d8311611052575b6110428183613029565b8101031261024957519488610f2b565b503d611038565b346102495761106736612e17565b6001546001600160a01b03939284916110839083163314612f28565b1692836000526024602091600283526040600020936110a760058601918254612f93565b905542600a85015584600052600383528260406000209160015416604051938480926328c2824560e21b82528960048301525afa9182156104055760009261112c575b506000805160206133eb8339815191529460409493926002611119930155866000526006835284600020613078565b60038254920154908351928352820152a2005b90939280925081813d8311611168575b6111468183613029565b81010312610249575191929091906000805160206133eb8339815191526110ea565b503d61113c565b34610249576000366003190112610249576000546040516001600160a01b039091168152602090f35b34610249576020366003190112610249576001600160a01b036111b9612deb565b16600052600260205261016060406000208054906001810154906002810154600382015460048301546005840154600685015491600786015493600887015495600a6009890154980154986040519a8b5260208b015260408a01526060890152608088015260a087015260c086015260e0850152610100840152610120830152610140820152f35b346102495760e03660031901126102495761125a612deb565b611262612e01565b6005608435101591826102495760405161127b8161300d565b60008152600154604051631fca74dd60e31b815291949193906001600160a01b0316602085600481845afa94851561040557600095611586575b5060015b8581106112d657604051602080825281906102c59082018a612d8f565b60405163eb44fdd360e01b815260048101829052600081602481865afa9081156104055760009161156b575b5081600052600360205260406000209060405161131e81612fd3565b82548082526001808501546020840152600285015460408401526003850154606084015260048501546080840152600585015460a0840152600685015460c0840152600785015460ff16151560e08401526008909401546101009092019190915286906001600160a01b03891680151590611554575b61154b575b6001600160a01b03871680151590611531575b611528575b604435151560443561151d575b611514575b606435151590606435611508575b506114ff575b6114e95760843515156084356114ca575b6114c1575b60a435151560a4356114b1575b6114a8575b60c43515159060c435611496575b5061148e575b611426575b61142190612f84565b6112b9565b949193909286516001810181116109835760016114439101613302565b9460005b885181101561146e578061145e611469928b613334565b51610388828a613334565b611447565b509295969487611485611421939694975183613334565b52969050611418565b506000611413565b905061010060c435910151118961140d565b600091506113ff565b5060a435610100820151106113fa565b600091506113ed565b50610160810151955060058610156114e95760009560843514156113e8565b634e487b7160e01b600052602160045260246000fd5b600092506113d7565b9050606435108b6113d1565b600093506113c3565b5060443581106113be565b600093506113b1565b5060808301516001600160a01b03888116911614156113ac565b60009350611399565b5082516001600160a01b038a811691161415611394565b61158091503d806000833e6103f78183613029565b88611302565b9094506020813d6020116115b2575b816115a260209383613029565b81010312610249575193866112b5565b3d9150611595565b34610249576040366003190112610249576115d3612deb565b60248035600592838210159081610249578383869260018060a01b03809116600052602092600484526040600020926040519384868254918281520191600052866000209060005b8181106117925750505084611631910385613029565b60405161163d8161300d565b60008152956000976001988995865416995b611667575b604051888152806102c5818b018c612d8f565b865181101561178d5789600061167d838a613334565b51876040518094819363eb44fdd360e01b835260048301525afa80156104055761016091600091611772575b5001518381101561175d578261175d5784146116d8575b986116ce869798999a612f84565b909998979661164f565b978051868101809111611748576116ee90613302565b906000875b611725575b50899a916116ce916117196117108b9c9d8b9c613334565b51915183613334565b529998975050986116c0565b81518110156117435761173d8161037d8a9385613334565b906116f3565b6116f8565b85634e487b7160e01b60005260116004526000fd5b85634e487b7160e01b60005260216004526000fd5b61178791503d806000833e6103f78183613029565b8c6116a9565b611654565b82548452928801926001928301920161161b565b34610249576040366003190112610249576117bf612deb565b6001600160a01b0316600090815260056020526040902080546024359190821015610249576020916105b191612e57565b3461024957600036600319011261024957611809612efc565b600080546001600160a01b0319811682556001600160a01b03167f8be0079c531659141344cd1fd0a4f28419497f9722a3daafe3b4186f6b6457e08280a3005b3461024957600036600319011261024957600060e060405161186a81612ff0565b8281528260208201528260408201528260608201528260808201528260a08201528260c082015201526004602060018060a01b036001541660405192838092631fca74dd60e31b82525afa90811561040557600091611a39575b508060001981011161098357600090818060015b600019840181111561198b5750610100936000198401156119835761190160001985018461304b565b905b6040519261191084612ff0565b6000198601845260208401948552604084019182526060840190815260808401916000835260a0850193845260e060c086019560008752019560008752604051976000190188525160208801525160408701525160608601525160808501525160a08401525160c08301525160e0820152f35b600090611903565b90611a2e611a3491611a26600295978560005260036020526020611a1d6040600020809b60086040519b8c936119c085612fd3565b8054948590526001810154878f0152015460408d0190815260038f015460608e015260048f015460808e015260058f015460a08e015260068f015460c08e015260078f015460ff16151560e08e01529d01546101008c0152612f93565b97015190612f93565b965190612f93565b91612f84565b6118d8565b90506020813d602011611a63575b81611a5460209383613029565b810103126102495751816118c4565b3d9150611a47565b3461024957604036600319011261024957611a84612deb565b6001600160a01b0316600090815260066020526040902080546024359190821015610249576020916105b191612e57565b34610249576024611ac536612e17565b92909160018060a01b038093611ae082600154163314612f28565b169384600052600260205260406000209060018201611aff8154612f84565b90556003820192611b11828554612f93565b845542600a840155600086600154166040519687809263eb44fdd360e01b82528560048301525afa948515610405576000805160206133eb833981519152966040968992600091611b9f575b50511614611b78575b505054905482519182526020820152a2005b60078301611b868154612f84565b9055600052600360205260088460002001558580611b66565b611bb491503d806000833e6103f78183613029565b8a611b5d565b3461024957602080600319360112610249576040518091604082019060408352606051809252606083019160809060005b818110611c3257505050828203818401528060605192838152019160809160005b828110611c1b57505050500390f35b835185528695509381019392810192600101611c0c565b82516001600160a01b031685528695509383019391830191600101611beb565b3461024957602036600319011261024957610120604051611c7281612fd3565b6000815260006020820152600060408201526000606082015260006080820152600060a0820152600060c0820152600060e08201526000610100809201526004356000526003602052604060002090604051611ccd81612fd3565b8254928382526001810154602083019081526002820154604084019081526003830154606085019081526004840154906080860191825260058501549260a0870193845260068601549460c0880195865288600860ff60078a0154169860e08b019915158a5201549801978852604051998a525160208a01525160408901525160608801525160808701525160a08601525160c085015251151560e08401525190820152f35b3461024957611d8136612e41565b90604051611d8e8161300d565b6000815260018054604051631fca74dd60e31b81529294602094916001600160a01b03168585600481845afa94851561040557600095611ed2575b50835b858110611de657604051878152806102c5818a018b612d8f565b60405163eb44fdd360e01b8152600481018290526024906000818381875afa80156104055761010091600091611eb7575b50015184868210159182611eac575b5050611e3c575b50611e3790612f84565b611dcc565b88919851908682018092116103a257509088611e588793613302565b91836000945b611e7c575b50611e379350611e74905183613334565b529790611e2d565b918193949151821015611ea257508061037d611e989285613334565b9291818b92611e5e565b9184939150611e63565b11159050848b611e26565b611ecc91503d806000833e6103f78183613029565b8b611e17565b9094508581813d8311611efa575b611eea8183613029565b8101031261024957519387611dc9565b503d611ee0565b34610249576040366003190112610249576001600160a01b03611f22612deb565b16600052600760205260406000206024356000526020526020604060002054604051908152f35b34610249576080366003190112610249576004356024611f67612e01565b600154606435916001600160a01b0391604435918391611f8a9083163314612f28565b16908160005260209360028552604060002091611fa78354612f84565b835560048301611fb8838254612f93565b905542600a840155836000526007865260406000208160005286526040600020611fe28154612f84565b9055836000526007865260406000208160005286526040600020548460005260078752604060002090600985019182546000528852604060002054106121ed575b505086600052600385526040600020938561203f838754612f93565b9182875560015416604051988980926314d4501160e21b82528c60048301525afa968715610405576000976121be575b50600185018781559680156121b5576120879161304b565b600385015560048401805482116121ad575b5050816000526004845260406000208054908115918215612144575b5050916000805160206133eb83398151915260407f57aec02922d876ec3d68c70ddf1563d34f09d29032f77ccb3357d31cffe7e73397959381979561212a575b836000526005865261210a8a83600020613078565b60038154910154825191825286820152a2549154908351928352820152a2005b836000526004865261213f8a83600020613078565b6120f5565b909694929593915060001981019081116109835760408096896121976000805160206133eb833981519152947f57aec02922d876ec3d68c70ddf1563d34f09d29032f77ccb3357d31cffe7e7339b612e57565b90549060031b1c141593959750939597506120b5565b558680612099565b50506000612087565b9096508581813d83116121e6575b6121d68183613029565b810103126102495751958861206f565b503d6121cc565b558780612023565b34610249576020806003193601126102495760018054604051631fca74dd60e31b81526001600160a01b0390911691908381600481865afa908115610405576000916124b2575b506040516122498161300d565b600081529360405161225a8161300d565b6000815293835b8381106123705750505050806000905b6122dc575b5050600435801515806122d2575b156122ca575b61229381613302565b9161229d82613302565b9360005b8381106122b757604051806102c5888883612dc3565b8061085d6122c59284613334565b6122a1565b50815161228a565b5082518110612284565b8351600019908181019081116109835782101561236a57600090835b61230f575b50506123098291612f84565b90612271565b61231f838794969395975161306b565b8181019081116109835784101561235f5761233a8483613334565b518685019485811161098357856123569261090f8a9887613334565b919492956122f8565b8194929593506122fd565b50612276565b60405163eb44fdd360e01b8152600481018290526024906000818381875afa80156104055761016091600091612497575b50015160058110156103cd57156123c2575b506123bd90612f84565b612261565b90958751868101809111612482576123d990613302565b918151908782018092116103a2575090876123f5889493613302565b99846000955b612434575b506123bd9450612411905184613334565b52876000526003855261242b60406000205491518a613334565b529695906123b3565b9181939495915182101561247757508061245161246c9285613334565b5161245c8288613334565b528b61038882610ac08189613334565b939291818a926123fb565b918594939150612400565b82634e487b7160e01b60005260116004526000fd5b6124ac91503d806000833e6103f78183613029565b8a6123a1565b90508381813d83116124d8575b6124c98183613029565b8101031261024957518461223c565b503d6124bf565b34610249576020366003190112610249576101606124fb612deb565b6101406040519161250b83612fa0565b6000835260006020840152600060408401526000606084015260006080840152600060a0840152600060c0840152600060e084015261010090600082850152600083610120958287820152015260018060a01b031660005260026020526040600020926040519161257b83612fa0565b600a85549586855260018101546020860152600281015460408601526003810154606086015260048101546080860152600581015460a0860152600681015460c0860152600781015460e08601526008810154838601526009810154848601520154848401526040519485526020830151602086015260408301516040860152606083015160608601526080830151608086015260a083015160a086015260c083015160c086015260e083015160e0860152808301519085015280820151908401520151610140820152f35b346102495760203660031901126102495760043560005260036020526101206040600020805490600181015490600281015460038201546004830154600584015491600685015493600860ff60078801541696015496604051988952602089015260408801526060870152608086015260a085015260c0840152151560e0830152610100820152f35b34610249576000366003190112610249576001546040516001600160a01b039091168152602090f35b3461024957602036600319011261024957604051633d80d00b60e01b8152600760048201526004356024820152600081604481305afa90811561040557600090600092612751575b506102c560405192839283612dc3565b905061277091503d806000833e6127688183613029565b8101906133a6565b9082612741565b346102495761278536612e41565b60018054604051631fca74dd60e31b81526001600160a01b0390911693929190602081600481885afa90811561040557600091612abe575b506040516127ca8161300d565b60008152946040516127db8161300d565b60008152946201518090818102918183041490151715610983576127ff904261306b565b835b8381106129715750505050806000905b612879575b50508015158061286f575b15612867575b61283081613302565b9161283a82613302565b9360005b83811061285457604051806102c5888883612dc3565b8061085d6128629284613334565b61283e565b508151612827565b5082518110612821565b8451600019908181019081116109835782101561296b57908280926000915b6128ae575b50506128a890612f84565b90612811565b909192506128bd83885161306b565b81810190811161098357849083101561296457506128db8287613334565b51848301928381116109835783612903926128f788968b613334565b511161290c5750612f84565b90829392612898565b612916828a613334565b51612921828b613334565b5161292c848c613334565b52612937828b613334565b5261295d612945838c613334565b51918b61295685610ac08484613334565b528b613334565b5289610916565b929161289d565b50612816565b60405163eb44fdd360e01b8152600481018290526024906000818381885afa90811561040557600091612aa3575b506101608101516005811015612a8e571580612a7f575b6129cb575b50506129c690612f84565b612801565b899891929851878101809111610ad9576129e490613302565b928251908882018092116103a257506129fd8a91613302565b9a886000815b612a37575b50506129c6949392612a2d92612a22610100935187613334565b52015191518b613334565b52979690896129bb565b9091928351821015612a77575080612a52612a6d9285613334565b51612a5d8289613334565b528d61038882610ac0818a613334565b908b929181612a03565b929190612a08565b508361010082015110156129b6565b82634e487b7160e01b60005260216004526000fd5b612ab891503d806000833e6103f78183613029565b8a61299f565b90506020813d8211612ae7575b81612ad860209383613029565b810103126102495751856127bd565b3d9150612acb565b3461024957602080600319360112610249576001600160a01b03612b11612deb565b1660005260058152604060002090604051808383829554938481520190600052836000209260005b85828210612b6457505050612b5092500383613029565b6102c5604051928284938452830190612d8f565b8554845260019586019588955093019201612b39565b34610249576020366003190112610249576020612b9d612b98612deb565b613231565b604051908152f35b3461024957612bb336612e17565b506001546001600160a01b03918291612bcf9083163314612f28565b1691826000526002602052604060002060028101612bed8154612f84565b905542600a820155600083600154169260246040518095819363eb44fdd360e01b835260048301525afa918215610405576000805160206133eb833981519152936040938692600091612c6c575b50511614612c57576003815491015482519182526020820152a2005b60088101612c658154612f84565b905561054e565b612c8191503d806000833e6103f78183613029565b87612c3b565b3461024957602080600319360112610249576001600160a01b03612ca9612deb565b1660005260068152604060002090604051808383829554938481520190600052836000209260005b85828210612ce857505050612b5092500383613029565b8554845260019586019588955093019201612cd1565b34610249576020366003190112610249576001600160a01b03612d1f612deb565b1660005260026020526020600960406000200154604051908152f35b3461024957602036600319011261024957633d80d00b60e01b8152600160048201526004356024820152600081604481305afa9081156104055760009060009261275157506102c560405192839283612dc3565b90815180825260208080930193019160005b828110612daf575050505090565b835185529381019392810192600101612da1565b9091612dda612de893604084526040840190612d8f565b916020818403910152612d8f565b90565b600435906001600160a01b038216820361024957565b602435906001600160a01b038216820361024957565b606090600319011261024957600435906024356001600160a01b0381168103610249579060443590565b6040906003190112610249576004359060243590565b8054821015612e6f5760005260206000200190600090565b634e487b7160e01b600052603260045260246000fd5b3461024957602080600319360112610249576001600160a01b03612ea7612deb565b1660005260048152604060002090604051808383829554938481520190600052836000209260005b85828210612ee657505050612b5092500383613029565b8554845260019586019588955093019201612ecf565b6000546001600160a01b03163303612f1057565b60405163118cdaa760e01b8152336004820152602490fd5b15612f2f57565b60405162461bcd60e51b815260206004820152602760248201527f416e616c79746963733a204f6e6c79204d61726b65744d616e616765722063616044820152666e20747261636b60c81b6064820152608490fd5b60001981146109835760010190565b9190820180921161098357565b610160810190811067ffffffffffffffff821117612fbd57604052565b634e487b7160e01b600052604160045260246000fd5b610120810190811067ffffffffffffffff821117612fbd57604052565b610100810190811067ffffffffffffffff821117612fbd57604052565b6020810190811067ffffffffffffffff821117612fbd57604052565b90601f8019910116810190811067ffffffffffffffff821117612fbd57604052565b8115613055570490565b634e487b7160e01b600052601260045260246000fd5b9190820391821161098357565b805468010000000000000000811015612fbd5761309a91600182018155612e57565b819291549060031b91821b91600019901b1916179055565b51906001600160a01b038216820361024957565b5190811515820361024957565b90602090818382031261024957825167ffffffffffffffff938482116102495701916101c09384848403126102495760405194850185811082821117612fbd5760405261311f846130b2565b85528184015181811161024957840183601f82011215610249578051918211612fbd5760405193613159601f8401601f1916850186613029565b82855283838301011161024957829060005b83811061321d5750506000918401015283015261318a604082016130c6565b6040830152606081015160608301526131a5608082016130b2565b608083015260a081015160a083015260c081015160c083015260e081015160e0830152610100808201519083015261012080820151908301526101408082015190830152610160808201519060058210156102495783015261018080820151908301526132166101a08092016130c6565b9082015290565b81810183015186820184015284920161316b565b60018060a01b0316600052600260205260406000206040519061325382612fa0565b8054808352600a600183015492836020860152600281015460408601526003810154606086015260048101546080860152600581015460a0860152600681015460c0860152600781015460e0860152600881015461010086015260098101546101208601520154610140840152156132e35760648102908082046064149015171561098357612de891519061304b565b5050600090565b67ffffffffffffffff8111612fbd5760051b60200190565b9061330c826132ea565b6133196040519182613029565b828152809261332a601f19916132ea565b0190602036910137565b8051821015612e6f5760209160051b010190565b81601f820112156102495780519161335f836132ea565b9261336d6040519485613029565b808452602092838086019260051b820101928311610249578301905b828210613397575050505090565b81518152908301908301613389565b9190916040818403126102495780519267ffffffffffffffff9384811161024957816133d3918401613348565b93602083015190811161024957612de8920161334856fe4b6c7abacb75992cc13ad43ffe4479dac5f7be91202f5fbb108eb1af8d56ed62a2646970667358221220abbf35abb54dbe9c5fa5a011f513c43e1ed5604270eccdd58b82da70b9df78ff64736f6c63430008140033",
  "linkReferences": {},
  "deployedLinkReferences": {}
}