{
  "_format": "hh-sol-artifact-1",
  "contractName": "MetricsHub",
  "sourceName": "contracts/P2PAnalytics.sol",
  "abi": [
    {
      "inputs": [
        {
          "internalType": "address",
          "name": "initialOwner",
          "type": "address"
        },
        {
          "internalType": "address",
          "name": "_marketManager",
          "type": "address"
        }
      ],
      "stateMutability": "nonpayable",
      "type": "constructor"
    },
    {
      "inputs": [
        {
          "internalType": "address",
          "name": "owner",
          "type": "address"
        }
      ],
      "name": "OwnableInvalidOwner",
      "type": "error"
    },
    {
      "inputs": [
        {
          "internalType": "address",
          "name": "account",
          "type": "address"
        }
      ],
      "name": "OwnableUnauthorizedAccount",
      "type": "error"
    },
    {
      "anonymous": false,
      "inputs": [
        {
          "indexed": false,
          "internalType": "uint256",
          "name": "totalMarkets",
          "type": "uint256"
        },
        {
          "indexed": false,
          "internalType": "uint256",
          "name": "totalVolume",
          "type": "uint256"
        }
      ],
      "name": "GlobalStatsUpdated",
      "type": "event"
    },
    {
      "anonymous": false,
      "inputs": [
        {
          "indexed": true,
          "internalType": "uint256",
          "name": "marketId",
          "type": "uint256"
        },
        {
          "indexed": false,
          "internalType": "uint256",
          "name": "volume",
          "type": "uint256"
        },
        {
          "indexed": false,
          "internalType": "uint256",
          "name": "stakers",
          "type": "uint256"
        }
      ],
      "name": "MarketStatsUpdated",
      "type": "event"
    },
    {
      "anonymous": false,
      "inputs": [
        {
          "indexed": true,
          "internalType": "address",
          "name": "previousOwner",
          "type": "address"
        },
        {
          "indexed": true,
          "internalType": "address",
          "name": "newOwner",
          "type": "address"
        }
      ],
      "name": "OwnershipTransferred",
      "type": "event"
    },
    {
      "anonymous": false,
      "inputs": [
        {
          "indexed": true,
          "internalType": "address",
          "name": "user",
          "type": "address"
        },
        {
          "indexed": false,
          "internalType": "uint256",
          "name": "totalStakes",
          "type": "uint256"
        },
        {
          "indexed": false,
          "internalType": "uint256",
          "name": "winnings",
          "type": "uint256"
        }
      ],
      "name": "UserStatsUpdated",
      "type": "event"
    },
    {
      "inputs": [
        {
          "internalType": "uint256",
          "name": "minVolume",
          "type": "uint256"
        }
      ],
      "name": "getActiveMarketsByMinVolume",
      "outputs": [
        {
          "internalType": "uint256[]",
          "name": "",
          "type": "uint256[]"
        }
      ],
      "stateMutability": "view",
      "type": "function"
    },
    {
      "inputs": [
        {
          "internalType": "uint256",
          "name": "limit",
          "type": "uint256"
        }
      ],
      "name": "getActiveMarketsByParticipants",
      "outputs": [
        {
          "internalType": "uint256[]",
          "name": "",
          "type": "uint256[]"
        },
        {
          "internalType": "uint256[]",
          "name": "",
          "type": "uint256[]"
        }
      ],
      "stateMutability": "view",
      "type": "function"
    },
    {
      "inputs": [
        {
          "internalType": "uint256",
          "name": "limit",
          "type": "uint256"
        }
      ],
      "name": "getActiveMarketsByStakerCount",
      "outputs": [
        {
          "internalType": "uint256[]",
          "name": "",
          "type": "uint256[]"
        },
        {
          "internalType": "uint256[]",
          "name": "",
          "type": "uint256[]"
        }
      ],
      "stateMutability": "view",
      "type": "function"
    },
    {
      "inputs": [
        {
          "internalType": "uint256",
          "name": "limit",
          "type": "uint256"
        }
      ],
      "name": "getActiveMarketsByVolume",
      "outputs": [
        {
          "internalType": "uint256[]",
          "name": "",
          "type": "uint256[]"
        },
        {
          "internalType": "uint256[]",
          "name": "",
          "type": "uint256[]"
        }
      ],
      "stateMutability": "view",
      "type": "function"
    },
    {
      "inputs": [],
      "name": "getGlobalStats",
      "outputs": [
        {
          "components": [
            {
              "internalType": "uint256",
              "name": "totalMarkets",
              "type": "uint256"
            },
            {
              "internalType": "uint256",
              "name": "totalVolume",
              "type": "uint256"
            },
            {
              "internalType": "uint256",
              "name": "totalStakers",
              "type": "uint256"
            },
            {
              "internalType": "uint256",
              "name": "totalSupporters",
              "type": "uint256"
            },
            {
              "internalType": "uint256",
              "name": "totalWinnings",
              "type": "uint256"
            },
            {
              "internalType": "uint256",
              "name": "averageMarketSize",
              "type": "uint256"
            },
            {
              "internalType": "uint256",
              "name": "mostActiveToken",
              "type": "uint256"
            },
            {
              "internalType": "uint256",
              "name": "averageResolutionTime",
              "type": "uint256"
            }
          ],
          "internalType": "struct MetricsHub.GlobalStats",
          "name": "",
          "type": "tuple"
        }
      ],
      "stateMutability": "view",
      "type": "function"
    },
    {
      "inputs": [
        {
          "internalType": "uint256",
          "name": "marketId",
          "type": "uint256"
        }
      ],
      "name": "getMarketStats",
      "outputs": [
        {
          "components": [
            {
              "internalType": "uint256",
              "name": "totalVolume",
              "type": "uint256"
            },
            {
              "internalType": "uint256",
              "name": "totalStakers",
              "type": "uint256"
            },
            {
              "internalType": "uint256",
              "name": "totalSupporters",
              "type": "uint256"
            },
            {
              "internalType": "uint256",
              "name": "averageStakeSize",
              "type": "uint256"
            },
            {
              "internalType": "uint256",
              "name": "largestStake",
              "type": "uint256"
            },
            {
              "internalType": "uint256",
              "name": "mostPopularOption",
              "type": "uint256"
            },
            {
              "internalType": "uint256",
              "name": "resolutionTime",
              "type": "uint256"
            },
            {
              "internalType": "bool",
              "name": "wasResolved",
              "type": "bool"
            },
            {
              "internalType": "uint256",
              "name": "creatorWinnings",
              "type": "uint256"
            }
          ],
          "internalType": "struct MetricsHub.MarketStats",
          "name": "",
          "type": "tuple"
        }
      ],
      "stateMutability": "view",
      "type": "function"
    },
    {
      "inputs": [
        {
          "internalType": "address",
          "name": "creator",
          "type": "address"
        }
      ],
      "name": "getMarketsByCreator",
      "outputs": [
        {
          "internalType": "uint256[]",
          "name": "",
          "type": "uint256[]"
        }
      ],
      "stateMutability": "view",
      "type": "function"
    },
    {
      "inputs": [
        {
          "internalType": "uint256",
          "name": "startTime",
          "type": "uint256"
        },
        {
          "internalType": "uint256",
          "name": "endTime",
          "type": "uint256"
        }
      ],
      "name": "getMarketsByDateRange",
      "outputs": [
        {
          "internalType": "uint256[]",
          "name": "",
          "type": "uint256[]"
        }
      ],
      "stateMutability": "view",
      "type": "function"
    },
    {
      "inputs": [
        {
          "internalType": "enum EventPool.MarketState",
          "name": "state",
          "type": "uint8"
        }
      ],
      "name": "getMarketsByState",
      "outputs": [
        {
          "internalType": "uint256[]",
          "name": "",
          "type": "uint256[]"
        }
      ],
      "stateMutability": "view",
      "type": "function"
    },
    {
      "inputs": [
        {
          "internalType": "address",
          "name": "token",
          "type": "address"
        }
      ],
      "name": "getMarketsByToken",
      "outputs": [
        {
          "internalType": "uint256[]",
          "name": "",
          "type": "uint256[]"
        }
      ],
      "stateMutability": "view",
      "type": "function"
    },
    {
      "inputs": [
        {
          "internalType": "address",
          "name": "creator",
          "type": "address"
        },
        {
          "internalType": "address",
          "name": "token",
          "type": "address"
        },
        {
          "internalType": "uint256",
          "name": "minVolume",
          "type": "uint256"
        },
        {
          "internalType": "uint256",
          "name": "maxVolume",
          "type": "uint256"
        },
        {
          "internalType": "enum EventPool.MarketState",
          "name": "state",
          "type": "uint8"
        },
        {
          "internalType": "uint256",
          "name": "startTime",
          "type": "uint256"
        },
        {
          "internalType": "uint256",
          "name": "endTime",
          "type": "uint256"
        }
      ],
      "name": "getMarketsFiltered",
      "outputs": [
        {
          "internalType": "uint256[]",
          "name": "",
          "type": "uint256[]"
        }
      ],
      "stateMutability": "view",
      "type": "function"
    },
    {
      "inputs": [
        {
          "internalType": "uint256",
          "name": "daysBack",
          "type": "uint256"
        },
        {
          "internalType": "uint256",
          "name": "limit",
          "type": "uint256"
        }
      ],
      "name": "getRecentActiveMarkets",
      "outputs": [
        {
          "internalType": "uint256[]",
          "name": "",
          "type": "uint256[]"
        },
        {
          "internalType": "uint256[]",
          "name": "",
          "type": "uint256[]"
        }
      ],
      "stateMutability": "view",
      "type": "function"
    },
    {
      "inputs": [
        {
          "internalType": "uint256",
          "name": "limit",
          "type": "uint256"
        }
      ],
      "name": "getThisWeekActiveMarkets",
      "outputs": [
        {
          "internalType": "uint256[]",
          "name": "",
          "type": "uint256[]"
        },
        {
          "internalType": "uint256[]",
          "name": "",
          "type": "uint256[]"
        }
      ],
      "stateMutability": "view",
      "type": "function"
    },
    {
      "inputs": [
        {
          "internalType": "uint256",
          "name": "limit",
          "type": "uint256"
        }
      ],
      "name": "getTodayActiveMarkets",
      "outputs": [
        {
          "internalType": "uint256[]",
          "name": "",
          "type": "uint256[]"
        },
        {
          "internalType": "uint256[]",
          "name": "",
          "type": "uint256[]"
        }
      ],
      "stateMutability": "view",
      "type": "function"
    },
    {
      "inputs": [
        {
          "internalType": "uint256",
          "name": "limit",
          "type": "uint256"
        }
      ],
      "name": "getTopStakers",
      "outputs": [
        {
          "internalType": "address[]",
          "name": "",
          "type": "address[]"
        },
        {
          "internalType": "uint256[]",
          "name": "",
          "type": "uint256[]"
        }
      ],
      "stateMutability": "view",
      "type": "function"
    },
    {
      "inputs": [
        {
          "internalType": "address",
          "name": "user",
          "type": "address"
        }
      ],
      "name": "getUserFavoriteOption",
      "outputs": [
        {
          "internalType": "uint256",
          "name": "",
          "type": "uint256"
        }
      ],
      "stateMutability": "view",
      "type": "function"
    },
    {
      "inputs": [
        {
          "internalType": "address",
          "name": "user",
          "type": "address"
        }
      ],
      "name": "getUserMarkets",
      "outputs": [
        {
          "internalType": "uint256[]",
          "name": "",
          "type": "uint256[]"
        }
      ],
      "stateMutability": "view",
      "type": "function"
    },
    {
      "inputs": [
        {
          "internalType": "address",
          "name": "user",
          "type": "address"
        },
        {
          "internalType": "enum EventPool.MarketState",
          "name": "state",
          "type": "uint8"
        }
      ],
      "name": "getUserMarketsByState",
      "outputs": [
        {
          "internalType": "uint256[]",
          "name": "",
          "type": "uint256[]"
        }
      ],
      "stateMutability": "view",
      "type": "function"
    },
    {
      "inputs": [
        {
          "internalType": "address",
          "name": "user",
          "type": "address"
        }
      ],
      "name": "getUserStakes",
      "outputs": [
        {
          "internalType": "uint256[]",
          "name": "",
          "type": "uint256[]"
        }
      ],
      "stateMutability": "view",
      "type": "function"
    },
    {
      "inputs": [
        {
          "internalType": "address",
          "name": "user",
          "type": "address"
        }
      ],
      "name": "getUserStats",
      "outputs": [
        {
          "components": [
            {
              "internalType": "uint256",
              "name": "totalStakesPlaced",
              "type": "uint256"
            },
            {
              "internalType": "uint256",
              "name": "totalStakesWon",
              "type": "uint256"
            },
            {
              "internalType": "uint256",
              "name": "totalStakesLost",
              "type": "uint256"
            },
            {
              "internalType": "uint256",
              "name": "totalWinnings",
              "type": "uint256"
            },
            {
              "internalType": "uint256",
              "name": "totalLosses",
              "type": "uint256"
            },
            {
              "internalType": "uint256",
              "name": "totalSupportDonated",
              "type": "uint256"
            },
            {
              "internalType": "uint256",
              "name": "marketsCreated",
              "type": "uint256"
            },
            {
              "internalType": "uint256",
              "name": "marketsWon",
              "type": "uint256"
            },
            {
              "internalType": "uint256",
              "name": "marketsLost",
              "type": "uint256"
            },
            {
              "internalType": "uint256",
              "name": "favoriteOption",
              "type": "uint256"
            },
            {
              "internalType": "uint256",
              "name": "lastActivity",
              "type": "uint256"
            }
          ],
          "internalType": "struct MetricsHub.UserStats",
          "name": "",
          "type": "tuple"
        }
      ],
      "stateMutability": "view",
      "type": "function"
    },
    {
      "inputs": [
        {
          "internalType": "address",
          "name": "user",
          "type": "address"
        }
      ],
      "name": "getUserSupports",
      "outputs": [
        {
          "internalType": "uint256[]",
          "name": "",
          "type": "uint256[]"
        }
      ],
      "stateMutability": "view",
      "type": "function"
    },
    {
      "inputs": [
        {
          "internalType": "address",
          "name": "user",
          "type": "address"
        }
      ],
      "name": "getUserWinRate",
      "outputs": [
        {
          "internalType": "uint256",
          "name": "",
          "type": "uint256"
        }
      ],
      "stateMutability": "view",
      "type": "function"
    },
    {
      "inputs": [],
      "name": "marketManager",
      "outputs": [
        {
          "internalType": "address payable",
          "name": "",
          "type": "address"
        }
      ],
      "stateMutability": "view",
      "type": "function"
    },
    {
      "inputs": [
        {
          "internalType": "uint256",
          "name": "",
          "type": "uint256"
        }
      ],
      "name": "marketStats",
      "outputs": [
        {
          "internalType": "uint256",
          "name": "totalVolume",
          "type": "uint256"
        },
        {
          "internalType": "uint256",
          "name": "totalStakers",
          "type": "uint256"
        },
        {
          "internalType": "uint256",
          "name": "totalSupporters",
          "type": "uint256"
        },
        {
          "internalType": "uint256",
          "name": "averageStakeSize",
          "type": "uint256"
        },
        {
          "internalType": "uint256",
          "name": "largestStake",
          "type": "uint256"
        },
        {
          "internalType": "uint256",
          "name": "mostPopularOption",
          "type": "uint256"
        },
        {
          "internalType": "uint256",
          "name": "resolutionTime",
          "type": "uint256"
        },
        {
          "internalType": "bool",
          "name": "wasResolved",
          "type": "bool"
        },
        {
          "internalType": "uint256",
          "name": "creatorWinnings",
          "type": "uint256"
        }
      ],
      "stateMutability": "view",
      "type": "function"
    },
    {
      "inputs": [],
      "name": "owner",
      "outputs": [
        {
          "internalType": "address",
          "name": "",
          "type": "address"
        }
      ],
      "stateMutability": "view",
      "type": "function"
    },
    {
      "inputs": [],
      "name": "renounceOwnership",
      "outputs": [],
      "stateMutability": "nonpayable",
      "type": "function"
    },
    {
      "inputs": [
        {
          "internalType": "address",
          "name": "_marketManager",
          "type": "address"
        }
      ],
      "name": "setMarketManager",
      "outputs": [],
      "stateMutability": "nonpayable",
      "type": "function"
    },
    {
      "inputs": [
        {
          "internalType": "uint256",
          "name": "marketId",
          "type": "uint256"
        },
        {
          "internalType": "address",
          "name": "user",
          "type": "address"
        },
        {
          "internalType": "uint256",
          "name": "loss",
          "type": "uint256"
        }
      ],
      "name": "trackLoss",
      "outputs": [],
      "stateMutability": "nonpayable",
      "type": "function"
    },
    {
      "inputs": [
        {
          "internalType": "uint256",
          "name": "marketId",
          "type": "uint256"
        },
        {
          "internalType": "address",
          "name": "creator",
          "type": "address"
        }
      ],
      "name": "trackMarketCreation",
      "outputs": [],
      "stateMutability": "nonpayable",
      "type": "function"
    },
    {
      "inputs": [
        {
          "internalType": "uint256",
          "name": "marketId",
          "type": "uint256"
        },
        {
          "internalType": "uint256",
          "name": "winningOption",
          "type": "uint256"
        }
      ],
      "name": "trackMarketResolution",
      "outputs": [],
      "stateMutability": "nonpayable",
      "type": "function"
    },
    {
      "inputs": [
        {
          "internalType": "uint256",
          "name": "marketId",
          "type": "uint256"
        },
        {
          "internalType": "address",
          "name": "user",
          "type": "address"
        },
        {
          "internalType": "uint256",
          "name": "option",
          "type": "uint256"
        },
        {
          "internalType": "uint256",
          "name": "amount",
          "type": "uint256"
        }
      ],
      "name": "trackStake",
      "outputs": [],
      "stateMutability": "nonpayable",
      "type": "function"
    },
    {
      "inputs": [
        {
          "internalType": "uint256",
          "name": "marketId",
          "type": "uint256"
        },
        {
          "internalType": "address",
          "name": "user",
          "type": "address"
        },
        {
          "internalType": "uint256",
          "name": "amount",
          "type": "uint256"
        }
      ],
      "name": "trackSupport",
      "outputs": [],
      "stateMutability": "nonpayable",
      "type": "function"
    },
    {
      "inputs": [
        {
          "internalType": "uint256",
          "name": "marketId",
          "type": "uint256"
        },
        {
          "internalType": "address",
          "name": "user",
          "type": "address"
        },
        {
          "internalType": "uint256",
          "name": "winnings",
          "type": "uint256"
        }
      ],
      "name": "trackWinnings",
      "outputs": [],
      "stateMutability": "nonpayable",
      "type": "function"
    },
    {
      "inputs": [
        {
          "internalType": "address",
          "name": "newOwner",
          "type": "address"
        }
      ],
      "name": "transferOwnership",
      "outputs": [],
      "stateMutability": "nonpayable",
      "type": "function"
    },
    {
      "inputs": [
        {
          "internalType": "address",
          "name": "",
          "type": "address"
        },
        {
          "internalType": "uint256",
          "name": "",
          "type": "uint256"
        }
      ],
      "name": "userMarkets",
      "outputs": [
        {
          "internalType": "uint256",
          "name": "",
          "type": "uint256"
        }
      ],
      "stateMutability": "view",
      "type": "function"
    },
    {
      "inputs": [
        {
          "internalType": "address",
          "name": "",
          "type": "address"
        },
        {
          "internalType": "uint256",
          "name": "",
          "type": "uint256"
        }
      ],
      "name": "userOptionStats",
      "outputs": [
        {
          "internalType": "uint256",
          "name": "",
          "type": "uint256"
        }
      ],
      "stateMutability": "view",
      "type": "function"
    },
    {
      "inputs": [
        {
          "internalType": "address",
          "name": "",
          "type": "address"
        },
        {
          "internalType": "uint256",
          "name": "",
          "type": "uint256"
        }
      ],
      "name": "userStakes",
      "outputs": [
        {
          "internalType": "uint256",
          "name": "",
          "type": "uint256"
        }
      ],
      "stateMutability": "view",
      "type": "function"
    },
    {
      "inputs": [
        {
          "internalType": "address",
          "name": "",
          "type": "address"
        }
      ],
      "name": "userStats",
      "outputs": [
        {
          "internalType": "uint256",
          "name": "totalStakesPlaced",
          "type": "uint256"
        },
        {
          "internalType": "uint256",
          "name": "totalStakesWon",
          "type": "uint256"
        },
        {
          "internalType": "uint256",
          "name": "totalStakesLost",
          "type": "uint256"
        },
        {
          "internalType": "uint256",
          "name": "totalWinnings",
          "type": "uint256"
        },
        {
          "internalType": "uint256",
          "name": "totalLosses",
          "type": "uint256"
        },
        {
          "internalType": "uint256",
          "name": "totalSupportDonated",
          "type": "uint256"
        },
        {
          "internalType": "uint256",
          "name": "marketsCreated",
          "type": "uint256"
        },
        {
          "internalType": "uint256",
          "name": "marketsWon",
          "type": "uint256"
        },
        {
          "internalType": "uint256",
          "name": "marketsLost",
          "type": "uint256"
        },
        {
          "internalType": "uint256",
          "name": "favoriteOption",
          "type": "uint256"
        },
        {
          "internalType": "uint256",
          "name": "lastActivity",
          "type": "uint256"
        }
      ],
      "stateMutability": "view",
      "type": "function"
    },
    {
      "inputs": [
        {
          "internalType": "address",
          "name": "",
          "type": "address"
        },
        {
          "internalType": "uint256",
          "name": "",
          "type": "uint256"
        }
      ],
      "name": "userSupports",
      "outputs": [
        {
          "internalType": "uint256",
          "name": "",
          "type": "uint256"
        }
      ],
      "stateMutability": "view",
      "type": "function"
    }
  ],
  "bytecode": "0x608034620000de57601f6200353f38819003918201601f19168301916001600160401b03831184841017620000e3578084926040948552833981010312620000de576200005a60206200005283620000f9565b9201620000f9565b906001600160a01b03908116908115620000c5576000549260018060a01b03199280848616176000558260405195167f8be0079c531659141344cd1fd0a4f28419497f9722a3daafe3b4186f6b6457e0600080a31690600154161760015561343090816200010f8239f35b604051631e4fbdf760e01b815260006004820152602490fd5b600080fd5b634e487b7160e01b600052604160045260246000fd5b51906001600160a01b0382168203620000de5756fe608080604052600436101561001357600080fd5b60003560e01c9081630649e0c014612ceb57508063110d05e514612cae5780631c6e04db14612c375780632053114d14612b5557806325ec5ef114612b2a5780633d80d00b146127b25780633f89efda1461273457806341ed2c121461270b5780634b669c09146126825780634e43603a1461251a57806350ad34a11461223057806354488a5a146121e857806357f978ad1461205a57806358057fe514611f3957806361d442c214611e345780636b3b7ea714611dea5780636b4169c314611bc8578063715018a614611b8157806380aa0d8c14611995578063837cd2351461161c578063842e2981146115915780638a65d874146114e85780638da5cb5b146114bf5780638f46a5a1146113a95780639b7bcd2414611210578063a119515a14610eb5578063b5d5b5fa14610e6b578063c228038d14610be3578063c80ca39a14610b4b578063cd94a775146109c1578063d82aff111461097e578063da4473d814610548578063db0f871d14610926578063e893a76f1461054d578063e99c80bd14610548578063f054f00a146104b4578063f2fde38b14610440578063fbe151591461024e5763ff4a7300146101cc57600080fd5b34610249576101da36612df1565b906101f060018060a01b03600154163314612ed8565b60005260036020526005604060002060078101600160ff1982541617905542600682015501557f17d726ad382ea92487e2c4d01469c94fa17bef35e71d3f4b5414159695c038d2604080516000815260006020820152a1005b600080fd5b3461024957602080600319360112610249576004359060405161027081612fba565b6000815260018054604051631fca74dd60e31b81529294906001600160a01b03168484600481845afa93841561040557600094610411575b50825b8481106102c957604051868152806102c58189018a612d3f565b0390f35b60405163eb44fdd360e01b8152600481018290526024906000818381875afa801561040557610180916000916103e2575b50015160058110156103cd5715806103b6575b610321575b5061031c90612f34565b6102ab565b87919751908582018092116103a25750908761033d86936132b3565b91836000945b610361575b5061031c93506103599051836132e5565b529690610312565b91819394915182101561039857508061037d61038e92856132e5565b5161038882876132e5565b52612f34565b9291818a92610343565b9184939150610348565b634e487b7160e01b60009081526011600452fd5b50816000526003875283604060002054101561030d565b50634e487b7160e01b60009081526021600452fd5b6103ff91503d806000833e6103f78183612fd5565b81019061307b565b8a6102fa565b6040513d6000823e3d90fd5b9093508481813d8311610439575b6104298183612fd5565b81010312610249575192866102a8565b503d61041f565b3461024957602036600319011261024957610459612d9b565b610461612eac565b6001600160a01b0390811690811561049b576000548260018060a01b0319821617600055166000805160206133bb833981519152600080a3005b604051631e4fbdf760e01b815260006004820152602490fd5b34610249576040366003190112610249576104cd612db1565b6001546001600160a01b0391906104e79083163314612ed8565b1680600052600260205260008051602061339b833981519152604080600020600681016105148154612f34565b905542600a82015583600052600460205261053460043583600020613025565b6003815491015482519182526020820152a2005b612e35565b34610249576020806003193601126102495760018054604051631fca74dd60e31b81526001600160a01b039091169291908281600481875afa908115610405576000916108f9575b506040516105a281612fba565b60008152936040516105b381612fba565b6000815293835b83811061076b5750505050806000905b610656575b50506004358015158061064c575b15610644575b6105ec816132b3565b916105f6826132b3565b9360005b83811061061057604051806102c5888883612d73565b8061061e61063f92846132e5565b5161062982886132e5565b5261063481856132e5565b5161038882896132e5565b6105fa565b5081516105e3565b50825181106105dd565b8351600019908181019081116107445782101561076557600090835b610689575b50506106838291612f34565b906105ca565b6106998387949693959751613018565b8181019081116107445784101561075a576106b484836132e5565b518685019485811161074457856106dd926106d08a98876132e5565b51116106e6575b50612f34565b91949295610672565b6106f082866132e5565b516106fb82876132e5565b5161070684886132e5565b5261071182876132e5565b5261073d61071f83886132e5565b519161072b81896132e5565b51610736858a6132e5565b52876132e5565b52886106d7565b634e487b7160e01b600052601160045260246000fd5b819492959350610677565b506105cf565b60405163eb44fdd360e01b8152600481018290526024906000818381885afa801561040557610180916000916108de575b50015160058110156103cd57156107bd575b506107b890612f34565b6105ba565b909560405190630ccf446760e01b825287600483015283828481885afa918215610405576000926108af575b50885187810180911161089a576107ff906132b3565b928151908882018092116103a2575061081889916132b3565b99886000815b61084b575b5050916108429161083a6107b896959451866132e5565b52518a6132e5565b529695906107ae565b909192835182101561089257508061086661088892856132e5565b5161087182896132e5565b528c6103888261088181896132e5565b51926132e5565b908a92918161081e565b929190610823565b83634e487b7160e01b60005260116004526000fd5b9091508381813d83116108d7575b6108c78183612fd5565b81010312610249575190896107e9565b503d6108bd565b6108f391503d806000833e6103f78183612fd5565b8a61079c565b90508281813d831161091f575b6109108183612fd5565b81010312610249575184610595565b503d610906565b346102495760403660031901126102495761093f612d9b565b6001600160a01b03166000908152600460205260409020805460243591908210156102495760209161097091612e07565b90546040519160031b1c8152f35b3461024957602036600319011261024957610997612d9b565b61099f612eac565b600180546001600160a01b0319166001600160a01b0392909216919091179055005b3461024957602080600319360112610249576109db612d9b565b906040516109e881612fba565b6000815260018054604051631fca74dd60e31b8152929492906001600160a01b039081168583600481845afa92831561040557600093610b1c575b509193811691835b858110610a4557604051878152806102c5818a018b612d3f565b60405163eb44fdd360e01b8152600481018290526024906000818381875afa801561040557608086918893600091610b01575b5001511614610a91575b50610a8c90612f34565b610a2b565b88919851908682018092116103a257509088610aad87936132b3565b91836000945b610ad1575b50610a8c9350610ac99051836132e5565b529790610a82565b918193949151821015610af757508061037d610aed92856132e5565b9291818b92610ab3565b9184939150610ab8565b610b1691503d806000833e6103f78183612fd5565b8d610a78565b9092508581813d8311610b44575b610b348183612fd5565b8101031261024957519187610a23565b503d610b2a565b3461024957602080600319360112610249576040518091604082019060408352606051809252606083019160809060005b818110610bc357505050828203818401528060605192838152019160809160005b828110610bac57505050500390f35b835185528695509381019392810192600101610b9d565b82516001600160a01b031685528695509383019391830191600101610b7c565b34610249576080366003190112610249576004356024610c01612db1565b600154606435916001600160a01b0391604435918391610c249083163314612ed8565b16908160005260209360028552604060002091610c418354612f34565b835560048301610c52838254612f43565b905542600a840155836000526007865260406000208160005286526040600020610c7c8154612f34565b905583600052600786526040600020816000528652604060002054846000526007875260406000209060098501918254600052885260406000205410610e63575b5050866000526003855260406000209385610cd9838754612f43565b918287556001541660405198898092630ccf446760e01b82528c60048301525afa96871561040557600097610e34575b5060018501878155968015610e2b57610d2191612ff8565b60038501556004840180548211610e23575b5050816000526004845260406000208054908115918215610dcc575b50509160008051602061339b83398151915260406000805160206133db833981519152979593819795610db2575b8360005260058652610d928a83600020613025565b60038154910154825191825286820152a2549154908351928352820152a2005b8360005260048652610dc78a83600020613025565b610d7d565b90969492959391506000198101908111610744576040809689610e0d60008051602061339b833981519152946000805160206133db8339815191529b612e07565b90549060031b1c14159395975093959750610d4f565b558680610d33565b50506000610d21565b9096508581813d8311610e5c575b610e4c8183612fd5565b8101031261024957519588610d09565b503d610e42565b558780610cbd565b3461024957604036600319011261024957610e84612d9b565b6001600160a01b03166000908152600560205260409020805460243591908210156102495760209161097091612e07565b34610249576020806003193601126102495760018054604051631fca74dd60e31b81526001600160a01b0390911691908381600481865afa908115610405576000916111e3575b50604051610f0981612fba565b6000815293604051610f1a81612fba565b6000815293835b8381106110305750505050806000905b610f9c575b505060043580151580610f92575b15610f8a575b610f53816132b3565b91610f5d826132b3565b9360005b838110610f7757604051806102c5888883612d73565b8061061e610f8592846132e5565b610f61565b508151610f4a565b5082518110610f44565b8351600019908181019081116107445782101561102a57600090835b610fcf575b5050610fc98291612f34565b90610f31565b610fdf8387949693959751613018565b8181019081116107445784101561101f57610ffa84836132e5565b51868501948581116107445785611016926106d08a98876132e5565b91949295610fb8565b819492959350610fbd565b50610f36565b60405163eb44fdd360e01b8152600481018290526024906000818381875afa801561040557610180916000916111c8575b50015160058110156103cd5715611082575b5061107d90612f34565b610f21565b9095604051630ccf446760e01b815287600482015284818481875afa9081156104055760009161119b575b506040516328c2824560e21b8152600481018990529085828581885afa9081156104055760009161116a575b6110e39250612f43565b90885187810180911161089a576110f9906132b3565b928151908882018092116103a2575061111289916132b3565b99886000815b61113d575b5050916111349161083a61107d96959451866132e5565b52969590611073565b909192835182101561116257508061086661115892856132e5565b908a929181611118565b92919061111d565b90508582813d8311611194575b6111818183612fd5565b81010312610249576110e39151906110d9565b503d611177565b90508481813d83116111c1575b6111b28183612fd5565b810103126102495751896110ad565b503d6111a8565b6111dd91503d806000833e6103f78183612fd5565b8a611061565b90508381813d8311611209575b6111fa8183612fd5565b81010312610249575184610efc565b503d6111f0565b3461024957602080600319360112610249576004359060058083101590816102495760405161123e81612fba565b6000815260018054604051631fca74dd60e31b815292969294919391906001600160a01b03168686600481845afa9586156104055760009661137a575b50845b86811061129857604051888152806102c5818b018c612d3f565b60405163eb44fdd360e01b8152600481018290526024906000818381875afa8015610405576101809160009161135f575b500151858110156103cd57846103cd5786146112ef575b506112ea90612f34565b61127e565b89919951908782018092116103a25750908961130b88936132b3565b91836000945b61132f575b506112ea93506113279051836132e5565b5298906112e0565b91819394915182101561135557508061037d61134b92856132e5565b9291818c92611311565b9184939150611316565b61137491503d806000833e6103f78183612fd5565b8c6112c9565b9095508681813d83116113a2575b6113928183612fd5565b810103126102495751948861127b565b503d611388565b34610249576113b736612dc7565b6001546001600160a01b03939284916113d39083163314612ed8565b1692836000526024602091600283526040600020936113f760058601918254612f43565b905542600a85015584600052600383528260406000209160015416604051938480926328c2824560e21b82528960048301525afa9182156104055760009261147c575b5060008051602061339b8339815191529460409493926002611469930155866000526006835284600020613025565b60038254920154908351928352820152a2005b90939280925081813d83116114b8575b6114968183612fd5565b810103126102495751919290919060008051602061339b83398151915261143a565b503d61148c565b34610249576000366003190112610249576000546040516001600160a01b039091168152602090f35b34610249576020366003190112610249576001600160a01b03611509612d9b565b16600052600260205261016060406000208054906001810154906002810154600382015460048301546005840154600685015491600786015493600887015495600a6009890154980154986040519a8b5260208b015260408a01526060890152608088015260a087015260c086015260e0850152610100840152610120830152610140820152f35b3461024957602080600319360112610249576001600160a01b036115b3612d9b565b1660005260058152604060002090604051808383829554938481520190600052836000209260005b85828210611606575050506115f292500383612fd5565b6102c5604051928284938452830190612d3f565b85548452600195860195889550930192016115db565b346102495760e036600319011261024957611635612d9b565b61163d612db1565b6005608435101591826102495760405161165681612fba565b60008152600154604051631fca74dd60e31b815291949193906001600160a01b0316602085600481845afa94851561040557600095611961575b5060015b8581106116b157604051602080825281906102c59082018a612d3f565b60405163eb44fdd360e01b815260048101829052600081602481865afa90811561040557600091611946575b508160005260036020526040600020906040516116f981612f82565b82548082526001808501546020840152600285015460408401526003850154606084015260048501546080840152600585015460a0840152600685015460c0840152600785015460ff16151560e08401526008909401546101009092019190915286906001600160a01b0389168015159061192f575b611926575b6001600160a01b0387168015159061190c575b611903575b60443515156044356118f8575b6118ef575b6064351515906064356118e3575b506118da575b6118c45760843515156084356118a5575b61189c575b60a435151560a43561188c575b611883575b60c43515159060c435611871575b50611869575b611801575b6117fc90612f34565b611694565b9491939092865160018101811161074457600161181e91016132b3565b9460005b88518110156118495780611839611844928b6132e5565b51610388828a6132e5565b611822565b5092959694876118606117fc9396949751836132e5565b529690506117f3565b5060006117ee565b905061010060c43591015111896117e8565b600091506117da565b5060a435610100820151106117d5565b600091506117c8565b50610180810151955060058610156118c45760009560843514156117c3565b634e487b7160e01b600052602160045260246000fd5b600092506117b2565b9050606435108b6117ac565b6000935061179e565b506044358110611799565b6000935061178c565b5060808301516001600160a01b0388811691161415611787565b60009350611774565b5082516001600160a01b038a81169116141561176f565b61195b91503d806000833e6103f78183612fd5565b886116dd565b9094506020813d60201161198d575b8161197d60209383612fd5565b8101031261024957519386611690565b3d9150611970565b34610249576040366003190112610249576119ae612d9b565b60248035600592838210159081610249578383869260018060a01b03809116600052602092600484526040600020926040519384868254918281520191600052866000209060005b818110611b6d5750505084611a0c910385612fd5565b604051611a1881612fba565b60008152956000976001988995865416995b611a42575b604051888152806102c5818b018c612d3f565b8651811015611b6857896000611a58838a6132e5565b51876040518094819363eb44fdd360e01b835260048301525afa80156104055761018091600091611b4d575b50015183811015611b385782611b38578414611ab3575b98611aa9869798999a612f34565b9099989796611a2a565b978051868101809111611b2357611ac9906132b3565b906000875b611b00575b50899a91611aa991611af4611aeb8b9c9d8b9c6132e5565b519151836132e5565b52999897505098611a9b565b8151811015611b1e57611b188161037d8a93856132e5565b90611ace565b611ad3565b85634e487b7160e01b60005260116004526000fd5b85634e487b7160e01b60005260216004526000fd5b611b6291503d806000833e6103f78183612fd5565b8c611a84565b611a2f565b8254845292880192600192830192016119f6565b3461024957600036600319011261024957611b9a612eac565b600080546001600160a01b0319811682556001600160a01b03166000805160206133bb8339815191528280a3005b3461024957600036600319011261024957600060e0604051611be981612f9e565b8281528260208201528260408201528260608201528260808201528260a08201528260c082015201526004602060018060a01b036001541660405192838092631fca74dd60e31b82525afa90811561040557600091611db8575b508060001981011161074457600090818060015b6000198401811115611d0a575061010093600019840115611d0257611c80600019850184612ff8565b905b60405192611c8f84612f9e565b6000198601845260208401948552604084019182526060840190815260808401916000835260a0850193845260e060c086019560008752019560008752604051976000190188525160208801525160408701525160608601525160808501525160a08401525160c08301525160e0820152f35b600090611c82565b90611dad611db391611da5600295978560005260036020526020611d9c6040600020809b60086040519b8c93611d3f85612f82565b8054948590526001810154878f0152015460408d0190815260038f015460608e015260048f015460808e015260058f015460a08e015260068f015460c08e015260078f015460ff16151560e08e01529d01546101008c0152612f43565b97015190612f43565b965190612f43565b91612f34565b611c57565b90506020813d602011611de2575b81611dd360209383612fd5565b81010312610249575181611c43565b3d9150611dc6565b3461024957604036600319011261024957611e03612d9b565b6001600160a01b03166000908152600660205260409020805460243591908210156102495760209161097091612e07565b34610249576024611e4436612dc7565b92909160018060a01b038093611e5f82600154163314612ed8565b169384600052600260205260406000209060018201611e7e8154612f34565b90556003820192611e90828554612f43565b845542600a840155600086600154166040519687809263eb44fdd360e01b82528560048301525afa9485156104055760008051602061339b833981519152966040968992600091611f1e575b50511614611ef7575b505054905482519182526020820152a2005b60078301611f058154612f34565b9055600052600360205260088460002001558580611ee5565b611f3391503d806000833e6103f78183612fd5565b8a611edc565b3461024957602036600319011261024957610120604051611f5981612f82565b6000815260006020820152600060408201526000606082015260006080820152600060a0820152600060c0820152600060e08201526000610100809201526004356000526003602052604060002090604051611fb481612f82565b8254928382526001810154602083019081526002820154604084019081526003830154606085019081526004840154906080860191825260058501549260a0870193845260068601549460c0880195865288600860ff60078a0154169860e08b019915158a5201549801978852604051998a525160208a01525160408901525160608801525160808701525160a08601525160c085015251151560e08401525190820152f35b346102495761206836612df1565b9060405161207581612fba565b6000815260018054604051631fca74dd60e31b81529294602094916001600160a01b03168585600481845afa948515610405576000956121b9575b50835b8581106120cd57604051878152806102c5818a018b612d3f565b60405163eb44fdd360e01b8152600481018290526024906000818381875afa8015610405576101009160009161219e575b50015184868210159182612193575b5050612123575b5061211e90612f34565b6120b3565b88919851908682018092116103a25750908861213f87936132b3565b91836000945b612163575b5061211e935061215b9051836132e5565b529790612114565b91819394915182101561218957508061037d61217f92856132e5565b9291818b92612145565b918493915061214a565b11159050848b61210d565b6121b391503d806000833e6103f78183612fd5565b8b6120fe565b9094508581813d83116121e1575b6121d18183612fd5565b81010312610249575193876120b0565b503d6121c7565b34610249576040366003190112610249576001600160a01b03612209612d9b565b16600052600760205260406000206024356000526020526020604060002054604051908152f35b34610249576020806003193601126102495760018054604051631fca74dd60e31b81526001600160a01b0390911691908381600481865afa908115610405576000916124ed575b5060405161228481612fba565b600081529360405161229581612fba565b6000815293835b8381106123ab5750505050806000905b612317575b50506004358015158061230d575b15612305575b6122ce816132b3565b916122d8826132b3565b9360005b8381106122f257604051806102c5888883612d73565b8061061e61230092846132e5565b6122dc565b5081516122c5565b50825181106122bf565b835160001990818101908111610744578210156123a557600090835b61234a575b50506123448291612f34565b906122ac565b61235a8387949693959751613018565b8181019081116107445784101561239a5761237584836132e5565b51868501948581116107445785612391926106d08a98876132e5565b91949295612333565b819492959350612338565b506122b1565b60405163eb44fdd360e01b8152600481018290526024906000818381875afa801561040557610180916000916124d2575b50015160058110156103cd57156123fd575b506123f890612f34565b61229c565b909587518681018091116124bd57612414906132b3565b918151908782018092116103a2575090876124308894936132b3565b99846000955b61246f575b506123f8945061244c9051846132e5565b52876000526003855261246660406000205491518a6132e5565b529695906123ee565b918193949591518210156124b257508061248c6124a792856132e5565b5161249782886132e5565b528b6103888261088181896132e5565b939291818a92612436565b91859493915061243b565b82634e487b7160e01b60005260116004526000fd5b6124e791503d806000833e6103f78183612fd5565b8a6123dc565b90508381813d8311612513575b6125048183612fd5565b81010312610249575184612277565b503d6124fa565b3461024957602036600319011261024957610160612536612d9b565b6101406040519161254683612f50565b6000835260006020840152600060408401526000606084015260006080840152600060a0840152600060c0840152600060e084015261010090600082850152600083610120958287820152015260018060a01b03166000526002602052604060002092604051916125b683612f50565b600a85549586855260018101546020860152600281015460408601526003810154606086015260048101546080860152600581015460a0860152600681015460c0860152600781015460e08601526008810154838601526009810154848601520154848401526040519485526020830151602086015260408301516040860152606083015160608601526080830151608086015260a083015160a086015260c083015160c086015260e083015160e0860152808301519085015280820151908401520151610140820152f35b346102495760203660031901126102495760043560005260036020526101206040600020805490600181015490600281015460038201546004830154600584015491600685015493600860ff60078801541696015496604051988952602089015260408801526060870152608086015260a085015260c0840152151560e0830152610100820152f35b34610249576000366003190112610249576001546040516001600160a01b039091168152602090f35b3461024957602036600319011261024957604051633d80d00b60e01b8152600760048201526004356024820152600081604481305afa9081156104055760009060009261278c575b506102c560405192839283612d73565b90506127ab91503d806000833e6127a38183612fd5565b810190613357565b908261277c565b34610249576127c036612df1565b60018054604051631fca74dd60e31b81526001600160a01b0390911693929190602081600481885afa90811561040557600091612af9575b5060405161280581612fba565b600081529460405161281681612fba565b600081529462015180908181029181830414901517156107445761283a9042613018565b835b8381106129ac5750505050806000905b6128b4575b5050801515806128aa575b156128a2575b61286b816132b3565b91612875826132b3565b9360005b83811061288f57604051806102c5888883612d73565b8061061e61289d92846132e5565b612879565b508151612862565b508251811061285c565b845160001990818101908111610744578210156129a657908280926000915b6128e9575b50506128e390612f34565b9061284c565b909192506128f8838851613018565b81810190811161074457849083101561299f575061291682876132e5565b5184830192838111610744578361293e9261293288968b6132e5565b51116129475750612f34565b908293926128d3565b612951828a6132e5565b5161295c828b6132e5565b51612967848c6132e5565b52612972828b6132e5565b52612998612980838c6132e5565b51918b6129918561088184846132e5565b528b6132e5565b52896106d7565b92916128d8565b50612851565b60405163eb44fdd360e01b8152600481018290526024906000818381885afa90811561040557600091612ade575b506101808101516005811015612ac9571580612aba575b612a06575b5050612a0190612f34565b61283c565b89989192985187810180911161089a57612a1f906132b3565b928251908882018092116103a25750612a388a916132b3565b9a886000815b612a72575b5050612a01949392612a6892612a5d6101009351876132e5565b52015191518b6132e5565b52979690896129f6565b9091928351821015612ab2575080612a8d612aa892856132e5565b51612a9882896132e5565b528d61038882610881818a6132e5565b908b929181612a3e565b929190612a43565b508361010082015110156129f1565b82634e487b7160e01b60005260216004526000fd5b612af391503d806000833e6103f78183612fd5565b8a6129da565b90506020813d8211612b22575b81612b1360209383612fd5565b810103126102495751856127f8565b3d9150612b06565b34610249576020366003190112610249576020612b4d612b48612d9b565b6131e3565b604051908152f35b3461024957612b6336612dc7565b506001546001600160a01b03918291612b7f9083163314612ed8565b1691826000526002602052604060002060028101612b9d8154612f34565b905542600a820155600083600154169260246040518095819363eb44fdd360e01b835260048301525afa9182156104055760008051602061339b833981519152936040938692600091612c1c575b50511614612c07576003815491015482519182526020820152a2005b60088101612c158154612f34565b9055610534565b612c3191503d806000833e6103f78183612fd5565b87612beb565b3461024957602080600319360112610249576001600160a01b03612c59612d9b565b1660005260068152604060002090604051808383829554938481520190600052836000209260005b85828210612c98575050506115f292500383612fd5565b8554845260019586019588955093019201612c81565b34610249576020366003190112610249576001600160a01b03612ccf612d9b565b1660005260026020526020600960406000200154604051908152f35b3461024957602036600319011261024957633d80d00b60e01b8152600160048201526004356024820152600081604481305afa9081156104055760009060009261278c57506102c560405192839283612d73565b90815180825260208080930193019160005b828110612d5f575050505090565b835185529381019392810192600101612d51565b9091612d8a612d9893604084526040840190612d3f565b916020818403910152612d3f565b90565b600435906001600160a01b038216820361024957565b602435906001600160a01b038216820361024957565b606090600319011261024957600435906024356001600160a01b0381168103610249579060443590565b6040906003190112610249576004359060243590565b8054821015612e1f5760005260206000200190600090565b634e487b7160e01b600052603260045260246000fd5b3461024957602080600319360112610249576001600160a01b03612e57612d9b565b1660005260048152604060002090604051808383829554938481520190600052836000209260005b85828210612e96575050506115f292500383612fd5565b8554845260019586019588955093019201612e7f565b6000546001600160a01b03163303612ec057565b60405163118cdaa760e01b8152336004820152602490fd5b15612edf57565b60405162461bcd60e51b815260206004820152602760248201527f416e616c79746963733a204f6e6c79204d61726b65744d616e616765722063616044820152666e20747261636b60c81b6064820152608490fd5b60001981146107445760010190565b9190820180921161074457565b61016081019081106001600160401b03821117612f6c57604052565b634e487b7160e01b600052604160045260246000fd5b61012081019081106001600160401b03821117612f6c57604052565b61010081019081106001600160401b03821117612f6c57604052565b602081019081106001600160401b03821117612f6c57604052565b601f909101601f19168101906001600160401b03821190821017612f6c57604052565b8115613002570490565b634e487b7160e01b600052601260045260246000fd5b9190820391821161074457565b8054600160401b811015612f6c5761304291600182018155612e07565b819291549060031b91821b91600019901b1916179055565b51906001600160a01b038216820361024957565b5190811515820361024957565b9060209081838203126102495782516001600160401b03938482116102495701916101e09384848403126102495760405194850185811082821117612f6c576040526130c68461305a565b85528184015181811161024957840183601f82011215610249578051918211612f6c5760405193613100601f8401601f1916850186612fd5565b82855283838301011161024957829060005b8381106131cf575050600091840101528301526131316040820161306e565b60408301526060810151606083015261314c6080820161305a565b608083015260a081015160a083015260c081015160c083015260e081015160e0830152610100808201519083015261012080820151908301526101408082015190830152610160808201519083015261018080820151906005821015610249578301526101a080820151908301526131c86101c080920161306e565b9082015290565b818101830151868201840152849201613112565b60018060a01b0316600052600260205260406000206040519061320582612f50565b8054808352600a600183015492836020860152600281015460408601526003810154606086015260048101546080860152600581015460a0860152600681015460c0860152600781015460e0860152600881015461010086015260098101546101208601520154610140840152156132955760648102908082046064149015171561074457612d98915190612ff8565b5050600090565b6001600160401b038111612f6c5760051b60200190565b906132bd8261329c565b6132ca6040519182612fd5565b82815280926132db601f199161329c565b0190602036910137565b8051821015612e1f5760209160051b010190565b81601f82011215610249578051916133108361329c565b9261331e6040519485612fd5565b808452602092838086019260051b820101928311610249578301905b828210613348575050505090565b8151815290830190830161333a565b9190916040818403126102495780516001600160401b03939084811161024957816133839184016132f9565b93602083015190811161024957612d9892016132f956fe4b6c7abacb75992cc13ad43ffe4479dac5f7be91202f5fbb108eb1af8d56ed628be0079c531659141344cd1fd0a4f28419497f9722a3daafe3b4186f6b6457e057aec02922d876ec3d68c70ddf1563d34f09d29032f77ccb3357d31cffe7e733a264697066735822122062769f3c0730f0ebfdab0709549f9e29870ea3e68db0d64cb9cbfcbe5ed26ed564736f6c63430008140033",
  "linkReferences": {},
  "deployedLinkReferences": {}
}