{
  "_format": "hh-sol-artifact-1",
  "contractName": "PENKToken",
  "sourceName": "contracts/PENKToken.sol",
  "abi": [
    {
      "inputs": [
        {
          "internalType": "address",
          "name": "initialOwner",
          "type": "address"
        },
        {
          "internalType": "uint256",
          "name": "initialSupply",
          "type": "uint256"
        }
      ],
      "stateMutability": "nonpayable",
      "type": "constructor"
    },
    {
      "inputs": [
        {
          "internalType": "address",
          "name": "spender",
          "type": "address"
        },
        {
          "internalType": "uint256",
          "name": "allowance",
          "type": "uint256"
        },
        {
          "internalType": "uint256",
          "name": "needed",
          "type": "uint256"
        }
      ],
      "name": "ERC20InsufficientAllowance",
      "type": "error"
    },
    {
      "inputs": [
        {
          "internalType": "address",
          "name": "sender",
          "type": "address"
        },
        {
          "internalType": "uint256",
          "name": "balance",
          "type": "uint256"
        },
        {
          "internalType": "uint256",
          "name": "needed",
          "type": "uint256"
        }
      ],
      "name": "ERC20InsufficientBalance",
      "type": "error"
    },
    {
      "inputs": [
        {
          "internalType": "address",
          "name": "approver",
          "type": "address"
        }
      ],
      "name": "ERC20InvalidApprover",
      "type": "error"
    },
    {
      "inputs": [
        {
          "internalType": "address",
          "name": "receiver",
          "type": "address"
        }
      ],
      "name": "ERC20InvalidReceiver",
      "type": "error"
    },
    {
      "inputs": [
        {
          "internalType": "address",
          "name": "sender",
          "type": "address"
        }
      ],
      "name": "ERC20InvalidSender",
      "type": "error"
    },
    {
      "inputs": [
        {
          "internalType": "address",
          "name": "spender",
          "type": "address"
        }
      ],
      "name": "ERC20InvalidSpender",
      "type": "error"
    },
    {
      "inputs": [
        {
          "internalType": "address",
          "name": "owner",
          "type": "address"
        }
      ],
      "name": "OwnableInvalidOwner",
      "type": "error"
    },
    {
      "inputs": [
        {
          "internalType": "address",
          "name": "account",
          "type": "address"
        }
      ],
      "name": "OwnableUnauthorizedAccount",
      "type": "error"
    },
    {
      "anonymous": false,
      "inputs": [
        {
          "indexed": true,
          "internalType": "address",
          "name": "owner",
          "type": "address"
        },
        {
          "indexed": true,
          "internalType": "address",
          "name": "spender",
          "type": "address"
        },
        {
          "indexed": false,
          "internalType": "uint256",
          "name": "value",
          "type": "uint256"
        }
      ],
      "name": "Approval",
      "type": "event"
    },
    {
      "anonymous": false,
      "inputs": [
        {
          "indexed": true,
          "internalType": "address",
          "name": "previousOwner",
          "type": "address"
        },
        {
          "indexed": true,
          "internalType": "address",
          "name": "newOwner",
          "type": "address"
        }
      ],
      "name": "OwnershipTransferred",
      "type": "event"
    },
    {
      "anonymous": false,
      "inputs": [
        {
          "indexed": true,
          "internalType": "address",
          "name": "from",
          "type": "address"
        },
        {
          "indexed": true,
          "internalType": "address",
          "name": "to",
          "type": "address"
        },
        {
          "indexed": false,
          "internalType": "uint256",
          "name": "value",
          "type": "uint256"
        }
      ],
      "name": "Transfer",
      "type": "event"
    },
    {
      "inputs": [
        {
          "internalType": "address",
          "name": "owner",
          "type": "address"
        },
        {
          "internalType": "address",
          "name": "spender",
          "type": "address"
        }
      ],
      "name": "allowance",
      "outputs": [
        {
          "internalType": "uint256",
          "name": "",
          "type": "uint256"
        }
      ],
      "stateMutability": "view",
      "type": "function"
    },
    {
      "inputs": [
        {
          "internalType": "address",
          "name": "spender",
          "type": "address"
        },
        {
          "internalType": "uint256",
          "name": "value",
          "type": "uint256"
        }
      ],
      "name": "approve",
      "outputs": [
        {
          "internalType": "bool",
          "name": "",
          "type": "bool"
        }
      ],
      "stateMutability": "nonpayable",
      "type": "function"
    },
    {
      "inputs": [
        {
          "internalType": "address",
          "name": "account",
          "type": "address"
        }
      ],
      "name": "balanceOf",
      "outputs": [
        {
          "internalType": "uint256",
          "name": "",
          "type": "uint256"
        }
      ],
      "stateMutability": "view",
      "type": "function"
    },
    {
      "inputs": [
        {
          "internalType": "uint256",
          "name": "amount",
          "type": "uint256"
        }
      ],
      "name": "burn",
      "outputs": [],
      "stateMutability": "nonpayable",
      "type": "function"
    },
    {
      "inputs": [],
      "name": "decimals",
      "outputs": [
        {
          "internalType": "uint8",
          "name": "",
          "type": "uint8"
        }
      ],
      "stateMutability": "view",
      "type": "function"
    },
    {
      "inputs": [
        {
          "internalType": "address",
          "name": "to",
          "type": "address"
        },
        {
          "internalType": "uint256",
          "name": "amount",
          "type": "uint256"
        }
      ],
      "name": "mint",
      "outputs": [],
      "stateMutability": "nonpayable",
      "type": "function"
    },
    {
      "inputs": [],
      "name": "name",
      "outputs": [
        {
          "internalType": "string",
          "name": "",
          "type": "string"
        }
      ],
      "stateMutability": "view",
      "type": "function"
    },
    {
      "inputs": [],
      "name": "owner",
      "outputs": [
        {
          "internalType": "address",
          "name": "",
          "type": "address"
        }
      ],
      "stateMutability": "view",
      "type": "function"
    },
    {
      "inputs": [],
      "name": "renounceOwnership",
      "outputs": [],
      "stateMutability": "nonpayable",
      "type": "function"
    },
    {
      "inputs": [],
      "name": "symbol",
      "outputs": [
        {
          "internalType": "string",
          "name": "",
          "type": "string"
        }
      ],
      "stateMutability": "view",
      "type": "function"
    },
    {
      "inputs": [],
      "name": "totalSupply",
      "outputs": [
        {
          "internalType": "uint256",
          "name": "",
          "type": "uint256"
        }
      ],
      "stateMutability": "view",
      "type": "function"
    },
    {
      "inputs": [
        {
          "internalType": "address",
          "name": "to",
          "type": "address"
        },
        {
          "internalType": "uint256",
          "name": "value",
          "type": "uint256"
        }
      ],
      "name": "transfer",
      "outputs": [
        {
          "internalType": "bool",
          "name": "",
          "type": "bool"
        }
      ],
      "stateMutability": "nonpayable",
      "type": "function"
    },
    {
      "inputs": [
        {
          "internalType": "address",
          "name": "from",
          "type": "address"
        },
        {
          "internalType": "address",
          "name": "to",
          "type": "address"
        },
        {
          "internalType": "uint256",
          "name": "value",
          "type": "uint256"
        }
      ],
      "name": "transferFrom",
      "outputs": [
        {
          "internalType": "bool",
          "name": "",
          "type": "bool"
        }
      ],
      "stateMutability": "nonpayable",
      "type": "function"
    },
    {
      "inputs": [
        {
          "internalType": "address",
          "name": "newOwner",
          "type": "address"
        }
      ],
      "name": "transferOwnership",
      "outputs": [],
      "stateMutability": "nonpayable",
      "type": "function"
    }
  ],
  "bytecode": "0x6080346200042c5762000d6c90601f19906001600160401b03601f388590038181018516840190838211858310176200043157808591604098899485528339810103126200042c5782516001600160a01b038082169590918690036200042c57602080950151936200007062000447565b600a8152692822a725902a37b5b2b760b11b878201526200009062000447565b906004958683526350454e4b60e01b8984015281519284841162000323576003938454936001948581811c9116801562000421575b8d8210146200040c57908c8286859411620003b3575b50508c90858311600114620003445760009262000338575b505060001982871b1c191690841b1784555b8051948511620003235787548381811c9116801562000318575b8b8210146200030357828111620002b8575b50899185116001146200024f578495509084929160009562000243575b50501b92600019911b1c19161782555b84156200022c57600580546001600160a01b0319811687179091558591167f8be0079c531659141344cd1fd0a4f28419497f9722a3daafe3b4186f6b6457e0600080a3670de0b6b3a76400009182810292818404149015171562000217576002549082820180921162000217575060025560008381528083528481208054830190558451918252917fddf252ad1be2c89b69c2b068fc378daa952ba7f163c4a11628f55a4df523b3ef91a3516109049081620004688239f35b601190634e487b7160e01b6000525260246000fd5b8551631e4fbdf760e01b8152600081840152602490fd5b0151935038806200014e565b92919484169287600052848a6000209460005b8c89838310620002a0575050501062000285575b50505050811b0182556200015e565b01519060f884600019921b161c191690553880808062000276565b86860151895590970196948501948893500162000262565b886000528a6000208380880160051c8201928d8910620002f9575b0160051c019084905b828110620002ec57505062000131565b60008155018490620002dc565b92508192620002d3565b602289634e487b7160e01b6000525260246000fd5b90607f16906200011f565b604188634e487b7160e01b6000525260246000fd5b015190503880620000f3565b908d918a8895168960005283600020936000905b82821062000391575050841162000378575b505050811b01845562000105565b015160001983891b60f8161c191690553880806200036a565b91929395968291958786015181550195019301908f9189969594939262000358565b909192508760005285826000209181860160051c830193861062000402575b918891869594930160051c01915b828110620003f257508e9150620000db565b60008155859450889101620003e0565b92508192620003d2565b60228b634e487b7160e01b6000525260246000fd5b90607f1690620000c5565b600080fd5b634e487b7160e01b600052604160045260246000fd5b60408051919082016001600160401b03811183821017620004315760405256fe6080604081815260048036101561001557600080fd5b600092833560e01c90816306fdde031461066557508063095ea7b3146105bc57806318160ddd1461059d57806323b872dd146104b8578063313ce5671461049c57806340c10f19146103ff57806342966c681461036557806370a082311461032e578063715018a6146102e05780638da5cb5b146102b757806395d89b41146101b5578063a9059cbb14610184578063dd62ed3e146101375763f2fde38b146100bd57600080fd5b34610133576020366003190112610133576100d6610785565b906100df6107b6565b6001600160a01b0391821692831561011d575050600580546001600160a01b031981168417909155166000805160206108b88339815191528380a380f35b51631e4fbdf760e01b8152908101849052602490fd5b8280fd5b50503461018057806003193601126101805780602092610155610785565b61015d6107a0565b6001600160a01b0391821683526001865283832091168252845220549051908152f35b5080fd5b5050346101805780600319360112610180576020906101ae6101a4610785565b60243590336107e2565b5160018152f35b50919034610180578160031936011261018057805190828454600181811c908083169283156102ad575b602093848410811461029a5783885290811561027e5750600114610246575b505050829003601f01601f19168201926001600160401b03841183851017610233575082918261022f92528261073c565b0390f35b634e487b7160e01b815260418552602490fd5b919250868652828620918387935b83851061026a57505050508301013880806101fe565b805488860183015293019284908201610254565b60ff1916878501525050151560051b84010190503880806101fe565b634e487b7160e01b895260228a52602489fd5b91607f16916101df565b50503461018057816003193601126101805760055490516001600160a01b039091168152602090f35b833461032b578060031936011261032b576102f96107b6565b600580546001600160a01b0319811690915581906001600160a01b03166000805160206108b88339815191528280a380f35b80fd5b5050346101805760203660031901126101805760209181906001600160a01b03610356610785565b16815280845220549051908152f35b509190346101805760203660031901126101805782359033156103e9573383528260205280832054938285106103c857508183943385528460205203818420558160025403600255519081526000805160206108d883398151915260203392a380f35b6103e58386935193849363391434e360e21b855233908501610899565b0390fd5b51634b637e8f60e11b8152808401839052602490fd5b509034610133578060031936011261013357610419610785565b90602435916104266107b6565b6001600160a01b03169283156104875760025490838201809211610474575084926000805160206108d88339815191529260209260025585855284835280852082815401905551908152a380f35b634e487b7160e01b865260119052602485fd5b84602492519163ec442f0560e01b8352820152fd5b5050346101805781600319360112610180576020905160128152f35b50823461032b57606036600319011261032b576104d3610785565b6104db6107a0565b916044359360018060a01b038316808352600160205286832033845260205286832054916000198310610517575b6020886101ae8989896107e2565b86831061057f578115610568573315610551575082526001602090815286832033845281529186902090859003905582906101ae87610509565b8751634a1406b160e11b8152908101849052602490fd5b875163e602df0560e01b8152908101849052602490fd5b90506103e5868851938493637dc7a0d960e11b855233908501610899565b5050346101805781600319360112610180576020906002549051908152f35b50346101335781600319360112610133576105d5610785565b60243590331561064e576001600160a01b031691821561063757508083602095338152600187528181208582528752205582519081527f8c5be1e5ebec7d5bd14f71427d1e84f3dd0314c0f7b2291e5b200ac8c7c3b925843392a35160018152f35b8351634a1406b160e11b8152908101859052602490fd5b835163e602df0560e01b8152808401869052602490fd5b849150833461013357826003193601126101335782600354600181811c90808316928315610732575b602093848410811461029a5783885290811561071657506001146106dd57505050829003601f01601f19168201926001600160401b03841183851017610233575082918261022f92528261073c565b91925060038652828620918387935b83851061070257505050508301018580806101fe565b8054888601830152930192849082016106ec565b60ff1916878501525050151560051b84010190508580806101fe565b91607f169161068e565b6020808252825181830181905290939260005b82811061077157505060409293506000838284010152601f8019910116010190565b81810186015184820160400152850161074f565b600435906001600160a01b038216820361079b57565b600080fd5b602435906001600160a01b038216820361079b57565b6005546001600160a01b031633036107ca57565b60405163118cdaa760e01b8152336004820152602490fd5b916001600160a01b038084169283156108805716928315610867576000908382528160205260408220549083821061084a575091604082826000805160206108d8833981519152958760209652828652038282205586815220818154019055604051908152a3565b6103e58460405193849363391434e360e21b855260048501610899565b60405163ec442f0560e01b815260006004820152602490fd5b604051634b637e8f60e11b815260006004820152602490fd5b604091949392606082019560018060a01b031682526020820152015256fe8be0079c531659141344cd1fd0a4f28419497f9722a3daafe3b4186f6b6457e0ddf252ad1be2c89b69c2b068fc378daa952ba7f163c4a11628f55a4df523b3efa164736f6c6343000814000a",
  "linkReferences": {},
  "deployedLinkReferences": {}
}