{
  "_format": "hh-sol-artifact-1",
  "contractName": "ValidationCore",
  "sourceName": "contracts/P2PVerification.sol",
  "abi": [
    {
      "inputs": [
        {
          "internalType": "address",
          "name": "initialOwner",
          "type": "address"
        }
      ],
      "stateMutability": "nonpayable",
      "type": "constructor"
    },
    {
      "inputs": [
        {
          "internalType": "address",
          "name": "owner",
          "type": "address"
        }
      ],
      "name": "OwnableInvalidOwner",
      "type": "error"
    },
    {
      "inputs": [
        {
          "internalType": "address",
          "name": "account",
          "type": "address"
        }
      ],
      "name": "OwnableUnauthorizedAccount",
      "type": "error"
    },
    {
      "anonymous": false,
      "inputs": [
        {
          "indexed": true,
          "internalType": "uint256",
          "name": "marketId",
          "type": "uint256"
        },
        {
          "indexed": false,
          "internalType": "uint256",
          "name": "winningOption",
          "type": "uint256"
        }
      ],
      "name": "AutoResolutionTriggered",
      "type": "event"
    },
    {
      "anonymous": false,
      "inputs": [
        {
          "indexed": true,
          "internalType": "address",
          "name": "oldManager",
          "type": "address"
        },
        {
          "indexed": true,
          "internalType": "address",
          "name": "newManager",
          "type": "address"
        }
      ],
      "name": "MarketManagerUpdated",
      "type": "event"
    },
    {
      "anonymous": false,
      "inputs": [
        {
          "indexed": true,
          "internalType": "address",
          "name": "previousOwner",
          "type": "address"
        },
        {
          "indexed": true,
          "internalType": "address",
          "name": "newOwner",
          "type": "address"
        }
      ],
      "name": "OwnershipTransferred",
      "type": "event"
    },
    {
      "anonymous": false,
      "inputs": [
        {
          "indexed": true,
          "internalType": "address",
          "name": "market",
          "type": "address"
        },
        {
          "indexed": false,
          "internalType": "uint256",
          "name": "winningOption",
          "type": "uint256"
        }
      ],
      "name": "ResolutionReached",
      "type": "event"
    },
    {
      "anonymous": false,
      "inputs": [
        {
          "indexed": true,
          "internalType": "address",
          "name": "verifier",
          "type": "address"
        }
      ],
      "name": "VerifierAdded",
      "type": "event"
    },
    {
      "anonymous": false,
      "inputs": [
        {
          "indexed": true,
          "internalType": "address",
          "name": "verifier",
          "type": "address"
        }
      ],
      "name": "VerifierRemoved",
      "type": "event"
    },
    {
      "anonymous": false,
      "inputs": [
        {
          "indexed": true,
          "internalType": "address",
          "name": "market",
          "type": "address"
        },
        {
          "indexed": false,
          "internalType": "uint256",
          "name": "option",
          "type": "uint256"
        },
        {
          "indexed": true,
          "internalType": "address",
          "name": "verifier",
          "type": "address"
        }
      ],
      "name": "VoteCast",
      "type": "event"
    },
    {
      "inputs": [],
      "name": "MAX_VERIFIERS",
      "outputs": [
        {
          "internalType": "uint256",
          "name": "",
          "type": "uint256"
        }
      ],
      "stateMutability": "view",
      "type": "function"
    },
    {
      "inputs": [],
      "name": "REQUIRED_QUORUM",
      "outputs": [
        {
          "internalType": "uint256",
          "name": "",
          "type": "uint256"
        }
      ],
      "stateMutability": "view",
      "type": "function"
    },
    {
      "inputs": [
        {
          "internalType": "address",
          "name": "verifier",
          "type": "address"
        }
      ],
      "name": "addVerifier",
      "outputs": [],
      "stateMutability": "nonpayable",
      "type": "function"
    },
    {
      "inputs": [
        {
          "internalType": "uint256",
          "name": "marketId",
          "type": "uint256"
        },
        {
          "internalType": "uint256",
          "name": "option",
          "type": "uint256"
        }
      ],
      "name": "castVote",
      "outputs": [],
      "stateMutability": "nonpayable",
      "type": "function"
    },
    {
      "inputs": [],
      "name": "getVerifierCount",
      "outputs": [
        {
          "internalType": "uint256",
          "name": "",
          "type": "uint256"
        }
      ],
      "stateMutability": "view",
      "type": "function"
    },
    {
      "inputs": [],
      "name": "getVerifiers",
      "outputs": [
        {
          "internalType": "address[]",
          "name": "",
          "type": "address[]"
        }
      ],
      "stateMutability": "view",
      "type": "function"
    },
    {
      "inputs": [
        {
          "internalType": "uint256",
          "name": "marketId",
          "type": "uint256"
        },
        {
          "internalType": "uint256",
          "name": "option",
          "type": "uint256"
        }
      ],
      "name": "getVoteCount",
      "outputs": [
        {
          "internalType": "uint256",
          "name": "",
          "type": "uint256"
        }
      ],
      "stateMutability": "view",
      "type": "function"
    },
    {
      "inputs": [
        {
          "internalType": "uint256",
          "name": "marketId",
          "type": "uint256"
        },
        {
          "internalType": "uint256",
          "name": "option",
          "type": "uint256"
        },
        {
          "internalType": "address",
          "name": "verifier",
          "type": "address"
        }
      ],
      "name": "hasVerifierVoted",
      "outputs": [
        {
          "internalType": "bool",
          "name": "",
          "type": "bool"
        }
      ],
      "stateMutability": "view",
      "type": "function"
    },
    {
      "inputs": [
        {
          "internalType": "uint256",
          "name": "",
          "type": "uint256"
        },
        {
          "internalType": "uint256",
          "name": "",
          "type": "uint256"
        }
      ],
      "name": "hasVoted",
      "outputs": [
        {
          "internalType": "bool",
          "name": "",
          "type": "bool"
        }
      ],
      "stateMutability": "view",
      "type": "function"
    },
    {
      "inputs": [
        {
          "internalType": "uint256",
          "name": "marketId",
          "type": "uint256"
        }
      ],
      "name": "isResolved",
      "outputs": [
        {
          "internalType": "bool",
          "name": "",
          "type": "bool"
        },
        {
          "internalType": "uint256",
          "name": "",
          "type": "uint256"
        }
      ],
      "stateMutability": "view",
      "type": "function"
    },
    {
      "inputs": [
        {
          "internalType": "address",
          "name": "",
          "type": "address"
        }
      ],
      "name": "isVerifier",
      "outputs": [
        {
          "internalType": "bool",
          "name": "",
          "type": "bool"
        }
      ],
      "stateMutability": "view",
      "type": "function"
    },
    {
      "inputs": [],
      "name": "marketManager",
      "outputs": [
        {
          "internalType": "address",
          "name": "",
          "type": "address"
        }
      ],
      "stateMutability": "view",
      "type": "function"
    },
    {
      "inputs": [],
      "name": "owner",
      "outputs": [
        {
          "internalType": "address",
          "name": "",
          "type": "address"
        }
      ],
      "stateMutability": "view",
      "type": "function"
    },
    {
      "inputs": [
        {
          "internalType": "address",
          "name": "verifier",
          "type": "address"
        }
      ],
      "name": "removeVerifier",
      "outputs": [],
      "stateMutability": "nonpayable",
      "type": "function"
    },
    {
      "inputs": [],
      "name": "renounceOwnership",
      "outputs": [],
      "stateMutability": "nonpayable",
      "type": "function"
    },
    {
      "inputs": [
        {
          "internalType": "uint256",
          "name": "marketId",
          "type": "uint256"
        }
      ],
      "name": "resetMarketVotes",
      "outputs": [],
      "stateMutability": "nonpayable",
      "type": "function"
    },
    {
      "inputs": [
        {
          "internalType": "address",
          "name": "_marketManager",
          "type": "address"
        }
      ],
      "name": "setMarketManager",
      "outputs": [],
      "stateMutability": "nonpayable",
      "type": "function"
    },
    {
      "inputs": [
        {
          "internalType": "address",
          "name": "newOwner",
          "type": "address"
        }
      ],
      "name": "transferOwnership",
      "outputs": [],
      "stateMutability": "nonpayable",
      "type": "function"
    },
    {
      "inputs": [
        {
          "internalType": "uint256",
          "name": "",
          "type": "uint256"
        },
        {
          "internalType": "uint256",
          "name": "",
          "type": "uint256"
        },
        {
          "internalType": "address",
          "name": "",
          "type": "address"
        }
      ],
      "name": "verifierVoted",
      "outputs": [
        {
          "internalType": "bool",
          "name": "",
          "type": "bool"
        }
      ],
      "stateMutability": "view",
      "type": "function"
    },
    {
      "inputs": [
        {
          "internalType": "uint256",
          "name": "",
          "type": "uint256"
        }
      ],
      "name": "verifiers",
      "outputs": [
        {
          "internalType": "address",
          "name": "",
          "type": "address"
        }
      ],
      "stateMutability": "view",
      "type": "function"
    },
    {
      "inputs": [
        {
          "internalType": "uint256",
          "name": "",
          "type": "uint256"
        },
        {
          "internalType": "uint256",
          "name": "",
          "type": "uint256"
        }
      ],
      "name": "voteCount",
      "outputs": [
        {
          "internalType": "uint256",
          "name": "",
          "type": "uint256"
        }
      ],
      "stateMutability": "view",
      "type": "function"
    }
  ],
  "bytecode": "0x6080346100bb57601f610e0638819003918201601f19168301916001600160401b038311848410176100c0578084926020946040528339810103126100bb57516001600160a01b0390818116908190036100bb5780156100a257600080546001600160a01b03198116831782556040519316907f8be0079c531659141344cd1fd0a4f28419497f9722a3daafe3b4186f6b6457e09080a3610d2f90816100d78239f35b604051631e4fbdf760e01b815260006004820152602490fd5b600080fd5b634e487b7160e01b600052604160045260246000fdfe6040608081526004908136101561001557600080fd5b600091823560e01c80632c0a3f891461093757806333105218146108f957806341ed2c12146108d0578063518229d1146107dc57806352b22424146108b457806364390ff11461088457806366b1749514610868578063715018a61461082057806387726d64146107dc5780638da5cb5b146107b45780639000b3d61461060b5780639255525c1461053f578063a935e7661461046e578063ac1eff681461042e578063b9c688a71461040f578063ba32941414610181578063ca2dfd0a146102ab578063cc4e19541461027c578063d82aff11146101b1578063de2e19a0146101815763f2fde38b1461010857600080fd5b3461017d57602036600319011261017d57610121610ba6565b9061012a610c17565b6001600160a01b039182169283156101675750506000548260018060a01b031982161760005516600080516020610d03833981519152600080a380f35b51631e4fbdf760e01b8152908101849052602490fd5b8280fd5b5050346101ad578060209261019536610b8b565b90825260058552828220908252845220549051908152f35b5080fd5b503461017d57602036600319011261017d576101cb610ba6565b906101d4610c17565b6001600160a01b03918216928315610224575050600380546001600160a01b031981168417909155167f6d5236c24f887cea37fd19d8fffc6c47b564af445baf220a6c7f9a58bb6ae04e8380a380f35b906020608492519162461bcd60e51b8352820152602c60248201527f566572696669636174696f6e3a20496e76616c6964206d61726b6574206d616e60448201526b61676572206164647265737360a01b6064820152fd5b5082346102a85760203660031901126102a8575061029a9035610cb3565b825191151582526020820152f35b80fd5b50903461017d57602036600319011261017d576102c6610ba6565b906102cf610c17565b6001600160a01b039182168085526002602052818520549092906102f59060ff16610c43565b845b6001805480831015610403579083918661031085610be6565b949054600395861b1c16146103305750505061032b90610c8e565b6102f7565b91949596909392600019928381019081116103f057906103638561035661038294610be6565b9054908a1b1c1691610be6565b90919082549060031b9160018060a01b03809116831b921b1916179055565b83549081156103dd5750019261039784610be6565b81939154921b1b19169055555b81835260026020528220805460ff191690557f44a3cd4eb5cc5748f6169df057b1cb2ae4c383e87cd94663c430e095d4cba4248280a280f35b634e487b7160e01b895260319052602488fd5b634e487b7160e01b8a526011835260248afd5b505050509091506103a4565b5050346101ad57816003193601126101ad576020906001549051908152f35b503461017d57602036600319011261017d5735916001548310156102a85750610458602092610be6565b905491519160018060a01b039160031b1c168152f35b50903461017d578260031936011261017d578051806001948554938483526020808094018096898552828520908a865b8281106105215750505050859003601f01601f191685019690506001600160401b0387118588101761050c575092869284878096528186019282875251809352850195925b8281106104f05785870386f35b83516001600160a01b03168752958101959281019284016104e3565b604190634e487b7160e01b6000525260246000fd5b83546001600160a01b0316855288959094019392810192810161049e565b503461017d576020908160031936011261060757359161055d610c17565b600191825b600a81111561056f578580f35b84865260058252828620818752825285838120558386905b61059b575b5061059690610c8e565b610562565b84959196929394548110156105fb576105ef86918385526006865286852089865286528685206105ca82610be6565b60018060a01b0391549060031b1c1660005286528660002060ff198154169055610c8e565b90949392969195610587565b9590949392919561058c565b8380fd5b50903461017d5760208060031936011261060757610627610ba6565b61062f610c17565b6001600160a01b038116938415610762578486526002835260ff8487205416610721576001549060058210156106ce57600160401b8210156106bb5750600292916103638260016106839401600155610be6565b838552528220805460ff191660011790557f6d05492139c5ea989514a5d2150c028041e5c087e2a39967f67dc7d2655adb818280a280f35b634e487b7160e01b875260419052602486fd5b845162461bcd60e51b8152908101849052602760248201527f566572696669636174696f6e3a204d6178696d756d20766572696669657273206044820152661c995858da195960ca1b6064820152608490fd5b606490838086519262461bcd60e51b845283015260248201527f566572696669636174696f6e3a20416c726561647920612076657269666965726044820152fd5b835162461bcd60e51b8152908101839052602660248201527f566572696669636174696f6e3a20496e76616c6964207665726966696572206160448201526564647265737360d01b6064820152608490fd5b5050346101ad57816003193601126101ad57905490516001600160a01b039091168152602090f35b5050346101ad57602091816107f036610bbc565b93918252600686528282209082528552209060018060a01b0316600052825260ff81600020541690519015158152f35b83346102a857806003193601126102a857610839610c17565b600080546001600160a01b0319811682556001600160a01b0316600080516020610d038339815191528280a380f35b5050346101ad57816003193601126101ad576020905160058152f35b503461017d578160209360ff9261089a36610b8b565b919083528652828220908252855220541690519015158152f35b5050346101ad57816003193601126101ad576020905160038152f35b5050346101ad57816003193601126101ad5760035490516001600160a01b039091168152602090f35b5050346101ad5760203660031901126101ad5760209160ff9082906001600160a01b03610924610ba6565b1681526002855220541690519015158152f35b50903461017d5761094736610b8b565b9290923385526020916002835261096360ff8588205416610c43565b8115610b4957848652600683528386208287528352838620338752835260ff8487205416610af2578486526006835283862082875283528386203387528352838620600160ff198254161790558486526005835283862082875283528386206109cc8154610c8e565b90558351828152867f75b35ca960bbb2cc550471a4098b1a96255dd657fe926e331754cd7c2e4489b3853393a38486526005835283862082875283526003848720541015610a18578580f35b857f8ee32db9836ee2aa676f07605b110a2a96d8e4837accb25f7ab76596fd01783e848651858152a260035486906001600160a01b031680610a5b575b50508580f35b803b156101ad5781906024875180948193630b1138b560e41b83528b888401525af19182610ac3575b5050610a93575b808581610a55565b7f169548b63c3166c09f183127f736aeb0d64c06f632f0642859800938b9dcea499251908152a238808080610a8b565b9196916001600160401b038211610adf57508452943880610a84565b634e487b7160e01b835260419052602482fd5b835162461bcd60e51b8152908101839052602b60248201527f566572696669636174696f6e3a20416c726561647920766f74656420666f722060448201526a3a3434b99037b83a34b7b760a91b6064820152608490fd5b835162461bcd60e51b8152908101839052601c60248201527b2b32b934b334b1b0ba34b7b71d1024b73b30b634b21037b83a34b7b760211b6044820152606490fd5b6040906003190112610ba1576004359060243590565b600080fd5b600435906001600160a01b0382168203610ba157565b6060906003190112610ba15760043590602435906044356001600160a01b0381168103610ba15790565b600154811015610c0157600160005260206000200190600090565b634e487b7160e01b600052603260045260246000fd5b6000546001600160a01b03163303610c2b57565b60405163118cdaa760e01b8152336004820152602490fd5b15610c4a57565b60405162461bcd60e51b815260206004820152601c60248201527b2b32b934b334b1b0ba34b7b71d102737ba1030903b32b934b334b2b960211b6044820152606490fd5b6000198114610c9d5760010190565b634e487b7160e01b600052601160045260246000fd5b906001805b600a811115610ccd5750509050600090600090565b6003600085815260209060058252604091828220908583525220541015610cfc57610cf790610c8e565b610cb8565b9250919056fe8be0079c531659141344cd1fd0a4f28419497f9722a3daafe3b4186f6b6457e0a164736f6c6343000814000a",
  "linkReferences": {},
  "deployedLinkReferences": {}
}