{
  "_format": "hh-sol-artifact-1",
  "contractName": "WebSocketTest",
  "sourceName": "contracts/WebSocketTest.sol",
  "abi": [
    {
      "anonymous": false,
      "inputs": [
        {
          "indexed": true,
          "internalType": "uint256",
          "name": "counter",
          "type": "uint256"
        },
        {
          "indexed": false,
          "internalType": "string",
          "name": "message",
          "type": "string"
        },
        {
          "indexed": false,
          "internalType": "uint256",
          "name": "timestamp",
          "type": "uint256"
        },
        {
          "indexed": true,
          "internalType": "address",
          "name": "caller",
          "type": "address"
        }
      ],
      "name": "TestEvent",
      "type": "event"
    },
    {
      "inputs": [],
      "name": "counter",
      "outputs": [
        {
          "internalType": "uint256",
          "name": "",
          "type": "uint256"
        }
      ],
      "stateMutability": "view",
      "type": "function"
    },
    {
      "inputs": [
        {
          "internalType": "string",
          "name": "message",
          "type": "string"
        }
      ],
      "name": "emitTestEvent",
      "outputs": [],
      "stateMutability": "nonpayable",
      "type": "function"
    },
    {
      "inputs": [],
      "name": "getCounter",
      "outputs": [
        {
          "internalType": "uint256",
          "name": "",
          "type": "uint256"
        }
      ],
      "stateMutability": "view",
      "type": "function"
    }
  ],
  "bytecode": "0x60808060405234610016576101d1908161001c8239f35b600080fdfe6080604081815260048036101561001557600080fd5b600092833560e01c90816361bc221a146101aa575080638ada066e146101895763e50b61cf1461004457600080fd5b346101575760209081600319360112610185578035906001600160401b0390818311610181573660238401121561018157828101359282841161016e57855193601f1993601f82018516603f01851686019081118682101761015b5787528085528791903682820160240111610157578060248893018388013785010152855490600019821461014457506001019283865584519285845280518096850152865b8681106101305750508280926060928884897f370dfedc293fc804c1aad7ce4faca574818f8c01f36f99832842caf98f5aa179980101524290830152601f339701168101030190a380f35b8181018301518582016060015282016100e5565b634e487b7160e01b875260119052602486fd5b8280fd5b634e487b7160e01b895260418452602489fd5b634e487b7160e01b875260418252602487fd5b8580fd5b8380fd5b5050346101a657816003193601126101a657602091549051908152f35b5080fd5b8490346101a657816003193601126101a657602091548152f3fea164736f6c6343000814000a",
  "linkReferences": {},
  "deployedLinkReferences": {}
}