{
  "_format": "hh-sol-artifact-1",
  "contractName": "EventPool",
  "sourceName": "contracts/P2PMarketManager.sol",
  "abi": [
    {
      "inputs": [
        {
          "internalType": "address",
          "name": "initialOwner",
          "type": "address"
        },
        {
          "internalType": "address payable",
          "name": "_treasury",
          "type": "address"
        },
        {
          "internalType": "address",
          "name": "_adminManager",
          "type": "address"
        }
      ],
      "stateMutability": "nonpayable",
      "type": "constructor"
    },
    {
      "inputs": [
        {
          "internalType": "address",
          "name": "owner",
          "type": "address"
        }
      ],
      "name": "OwnableInvalidOwner",
      "type": "error"
    },
    {
      "inputs": [
        {
          "internalType": "address",
          "name": "account",
          "type": "address"
        }
      ],
      "name": "OwnableUnauthorizedAccount",
      "type": "error"
    },
    {
      "inputs": [
        {
          "internalType": "address",
          "name": "token",
          "type": "address"
        }
      ],
      "name": "SafeERC20FailedOperation",
      "type": "error"
    },
    {
      "anonymous": false,
      "inputs": [
        {
          "indexed": true,
          "internalType": "uint256",
          "name": "marketId",
          "type": "uint256"
        },
        {
          "indexed": false,
          "internalType": "string",
          "name": "reason",
          "type": "string"
        }
      ],
      "name": "MarketCancelled",
      "type": "event"
    },
    {
      "anonymous": false,
      "inputs": [
        {
          "indexed": true,
          "internalType": "uint256",
          "name": "marketId",
          "type": "uint256"
        },
        {
          "indexed": true,
          "internalType": "address",
          "name": "creator",
          "type": "address"
        },
        {
          "indexed": false,
          "internalType": "string",
          "name": "ipfsHash",
          "type": "string"
        },
        {
          "indexed": false,
          "internalType": "bool",
          "name": "isMultiOption",
          "type": "bool"
        },
        {
          "indexed": false,
          "internalType": "uint256",
          "name": "maxOptions",
          "type": "uint256"
        },
        {
          "indexed": false,
          "internalType": "address",
          "name": "paymentToken",
          "type": "address"
        },
        {
          "indexed": false,
          "internalType": "uint256",
          "name": "minStake",
          "type": "uint256"
        },
        {
          "indexed": false,
          "internalType": "uint256",
          "name": "startTime",
          "type": "uint256"
        },
        {
          "indexed": false,
          "internalType": "uint256",
          "name": "stakeEndTime",
          "type": "uint256"
        },
        {
          "indexed": false,
          "internalType": "uint256",
          "name": "endTime",
          "type": "uint256"
        },
        {
          "indexed": false,
          "internalType": "uint256",
          "name": "resolutionEndTime",
          "type": "uint256"
        }
      ],
      "name": "MarketCreated",
      "type": "event"
    },
    {
      "anonymous": false,
      "inputs": [
        {
          "indexed": true,
          "internalType": "uint256",
          "name": "marketId",
          "type": "uint256"
        },
        {
          "indexed": false,
          "internalType": "uint256",
          "name": "winningOption",
          "type": "uint256"
        }
      ],
      "name": "MarketResolved",
      "type": "event"
    },
    {
      "anonymous": false,
      "inputs": [
        {
          "indexed": true,
          "internalType": "address",
          "name": "previousOwner",
          "type": "address"
        },
        {
          "indexed": true,
          "internalType": "address",
          "name": "newOwner",
          "type": "address"
        }
      ],
      "name": "OwnershipTransferred",
      "type": "event"
    },
    {
      "anonymous": false,
      "inputs": [
        {
          "indexed": true,
          "internalType": "uint256",
          "name": "marketId",
          "type": "uint256"
        },
        {
          "indexed": true,
          "internalType": "address",
          "name": "user",
          "type": "address"
        },
        {
          "indexed": false,
          "internalType": "uint256",
          "name": "amount",
          "type": "uint256"
        }
      ],
      "name": "RefundClaimed",
      "type": "event"
    },
    {
      "anonymous": false,
      "inputs": [
        {
          "indexed": true,
          "internalType": "uint256",
          "name": "marketId",
          "type": "uint256"
        },
        {
          "indexed": true,
          "internalType": "bytes32",
          "name": "assertionId",
          "type": "bytes32"
        }
      ],
      "name": "ResolutionRequested",
      "type": "event"
    },
    {
      "anonymous": false,
      "inputs": [
        {
          "indexed": true,
          "internalType": "uint256",
          "name": "marketId",
          "type": "uint256"
        },
        {
          "indexed": true,
          "internalType": "address",
          "name": "user",
          "type": "address"
        },
        {
          "indexed": false,
          "internalType": "uint256",
          "name": "option",
          "type": "uint256"
        },
        {
          "indexed": false,
          "internalType": "uint256",
          "name": "amount",
          "type": "uint256"
        }
      ],
      "name": "StakePlaced",
      "type": "event"
    },
    {
      "anonymous": false,
      "inputs": [
        {
          "indexed": true,
          "internalType": "uint256",
          "name": "marketId",
          "type": "uint256"
        },
        {
          "indexed": true,
          "internalType": "bytes32",
          "name": "assertionId",
          "type": "bytes32"
        },
        {
          "indexed": false,
          "internalType": "bool",
          "name": "outcome",
          "type": "bool"
        }
      ],
      "name": "UMAResolutionSettled",
      "type": "event"
    },
    {
      "anonymous": false,
      "inputs": [
        {
          "indexed": true,
          "internalType": "uint256",
          "name": "marketId",
          "type": "uint256"
        },
        {
          "indexed": true,
          "internalType": "address",
          "name": "user",
          "type": "address"
        },
        {
          "indexed": false,
          "internalType": "uint256",
          "name": "amount",
          "type": "uint256"
        }
      ],
      "name": "WinningsClaimed",
      "type": "event"
    },
    {
      "inputs": [],
      "name": "CREATOR_FEE_BPS",
      "outputs": [
        {
          "internalType": "uint256",
          "name": "",
          "type": "uint256"
        }
      ],
      "stateMutability": "view",
      "type": "function"
    },
    {
      "inputs": [],
      "name": "PLATFORM_FEE_BPS",
      "outputs": [
        {
          "internalType": "uint256",
          "name": "",
          "type": "uint256"
        }
      ],
      "stateMutability": "view",
      "type": "function"
    },
    {
      "inputs": [
        {
          "internalType": "uint256",
          "name": "",
          "type": "uint256"
        }
      ],
      "name": "activeMarkets",
      "outputs": [
        {
          "internalType": "uint256",
          "name": "",
          "type": "uint256"
        }
      ],
      "stateMutability": "view",
      "type": "function"
    },
    {
      "inputs": [],
      "name": "adminManager",
      "outputs": [
        {
          "internalType": "address",
          "name": "",
          "type": "address"
        }
      ],
      "stateMutability": "view",
      "type": "function"
    },
    {
      "inputs": [
        {
          "internalType": "uint256",
          "name": "marketId",
          "type": "uint256"
        },
        {
          "internalType": "address",
          "name": "user",
          "type": "address"
        }
      ],
      "name": "calculateWinnings",
      "outputs": [
        {
          "internalType": "uint256",
          "name": "",
          "type": "uint256"
        }
      ],
      "stateMutability": "view",
      "type": "function"
    },
    {
      "inputs": [
        {
          "internalType": "uint256",
          "name": "marketId",
          "type": "uint256"
        }
      ],
      "name": "cancelMarket",
      "outputs": [],
      "stateMutability": "nonpayable",
      "type": "function"
    },
    {
      "inputs": [
        {
          "internalType": "uint256",
          "name": "marketId",
          "type": "uint256"
        }
      ],
      "name": "claimRefund",
      "outputs": [],
      "stateMutability": "nonpayable",
      "type": "function"
    },
    {
      "inputs": [
        {
          "internalType": "uint256",
          "name": "marketId",
          "type": "uint256"
        }
      ],
      "name": "claimWinnings",
      "outputs": [],
      "stateMutability": "nonpayable",
      "type": "function"
    },
    {
      "inputs": [
        {
          "internalType": "string",
          "name": "ipfsHash",
          "type": "string"
        },
        {
          "internalType": "bool",
          "name": "isMultiOption",
          "type": "bool"
        },
        {
          "internalType": "uint256",
          "name": "maxOptions",
          "type": "uint256"
        },
        {
          "internalType": "address",
          "name": "paymentToken",
          "type": "address"
        },
        {
          "internalType": "uint256",
          "name": "minStake",
          "type": "uint256"
        },
        {
          "internalType": "uint256",
          "name": "creatorDeposit",
          "type": "uint256"
        },
        {
          "internalType": "uint256",
          "name": "creatorOutcome",
          "type": "uint256"
        },
        {
          "internalType": "uint256",
          "name": "stakeDurationMinutes",
          "type": "uint256"
        },
        {
          "internalType": "uint256",
          "name": "resolutionDurationMinutes",
          "type": "uint256"
        },
        {
          "internalType": "enum EventPool.MarketType",
          "name": "marketType",
          "type": "uint8"
        },
        {
          "internalType": "address",
          "name": "priceFeed",
          "type": "address"
        },
        {
          "internalType": "uint256",
          "name": "priceThreshold",
          "type": "uint256"
        }
      ],
      "name": "createMarket",
      "outputs": [
        {
          "internalType": "uint256",
          "name": "",
          "type": "uint256"
        }
      ],
      "stateMutability": "payable",
      "type": "function"
    },
    {
      "inputs": [
        {
          "internalType": "uint256",
          "name": "marketId",
          "type": "uint256"
        }
      ],
      "name": "creatorCancelMarket",
      "outputs": [],
      "stateMutability": "nonpayable",
      "type": "function"
    },
    {
      "inputs": [],
      "name": "defaultBond",
      "outputs": [
        {
          "internalType": "uint256",
          "name": "",
          "type": "uint256"
        }
      ],
      "stateMutability": "view",
      "type": "function"
    },
    {
      "inputs": [],
      "name": "defaultBondCurrency",
      "outputs": [
        {
          "internalType": "address",
          "name": "",
          "type": "address"
        }
      ],
      "stateMutability": "view",
      "type": "function"
    },
    {
      "inputs": [],
      "name": "defaultIdentifier",
      "outputs": [
        {
          "internalType": "bytes32",
          "name": "",
          "type": "bytes32"
        }
      ],
      "stateMutability": "view",
      "type": "function"
    },
    {
      "inputs": [],
      "name": "defaultLiveness",
      "outputs": [
        {
          "internalType": "uint64",
          "name": "",
          "type": "uint64"
        }
      ],
      "stateMutability": "view",
      "type": "function"
    },
    {
      "inputs": [
        {
          "internalType": "uint256",
          "name": "marketId",
          "type": "uint256"
        }
      ],
      "name": "endMarket",
      "outputs": [],
      "stateMutability": "nonpayable",
      "type": "function"
    },
    {
      "inputs": [],
      "name": "finder",
      "outputs": [
        {
          "internalType": "address",
          "name": "",
          "type": "address"
        }
      ],
      "stateMutability": "view",
      "type": "function"
    },
    {
      "inputs": [
        {
          "internalType": "uint256",
          "name": "marketId",
          "type": "uint256"
        }
      ],
      "name": "getMarket",
      "outputs": [
        {
          "components": [
            {
              "internalType": "address",
              "name": "creator",
              "type": "address"
            },
            {
              "internalType": "string",
              "name": "ipfsHash",
              "type": "string"
            },
            {
              "internalType": "bool",
              "name": "isMultiOption",
              "type": "bool"
            },
            {
              "internalType": "uint256",
              "name": "maxOptions",
              "type": "uint256"
            },
            {
              "internalType": "address",
              "name": "paymentToken",
              "type": "address"
            },
            {
              "internalType": "uint256",
              "name": "minStake",
              "type": "uint256"
            },
            {
              "internalType": "uint256",
              "name": "creatorDeposit",
              "type": "uint256"
            },
            {
              "internalType": "uint256",
              "name": "creatorOutcome",
              "type": "uint256"
            },
            {
              "internalType": "uint256",
              "name": "startTime",
              "type": "uint256"
            },
            {
              "internalType": "uint256",
              "name": "stakeEndTime",
              "type": "uint256"
            },
            {
              "internalType": "uint256",
              "name": "endTime",
              "type": "uint256"
            },
            {
              "internalType": "uint256",
              "name": "resolutionEndTime",
              "type": "uint256"
            },
            {
              "internalType": "enum EventPool.MarketState",
              "name": "state",
              "type": "uint8"
            },
            {
              "internalType": "uint256",
              "name": "winningOption",
              "type": "uint256"
            },
            {
              "internalType": "bool",
              "name": "isResolved",
              "type": "bool"
            },
            {
              "internalType": "enum EventPool.MarketType",
              "name": "marketType",
              "type": "uint8"
            },
            {
              "internalType": "address",
              "name": "priceFeed",
              "type": "address"
            },
            {
              "internalType": "uint256",
              "name": "priceThreshold",
              "type": "uint256"
            },
            {
              "internalType": "bytes32",
              "name": "umaAssertionId",
              "type": "bytes32"
            },
            {
              "internalType": "bool",
              "name": "umaAssertionMade",
              "type": "bool"
            }
          ],
          "internalType": "struct EventPool.Market",
          "name": "",
          "type": "tuple"
        }
      ],
      "stateMutability": "view",
      "type": "function"
    },
    {
      "inputs": [
        {
          "internalType": "uint256",
          "name": "marketId",
          "type": "uint256"
        }
      ],
      "name": "getMarketInfo",
      "outputs": [
        {
          "components": [
            {
              "internalType": "address",
              "name": "creator",
              "type": "address"
            },
            {
              "internalType": "string",
              "name": "ipfsHash",
              "type": "string"
            },
            {
              "internalType": "bool",
              "name": "isMultiOption",
              "type": "bool"
            },
            {
              "internalType": "uint256",
              "name": "maxOptions",
              "type": "uint256"
            },
            {
              "internalType": "address",
              "name": "paymentToken",
              "type": "address"
            },
            {
              "internalType": "uint256",
              "name": "minStake",
              "type": "uint256"
            },
            {
              "internalType": "uint256",
              "name": "creatorDeposit",
              "type": "uint256"
            },
            {
              "internalType": "uint256",
              "name": "creatorOutcome",
              "type": "uint256"
            },
            {
              "internalType": "uint256",
              "name": "startTime",
              "type": "uint256"
            },
            {
              "internalType": "uint256",
              "name": "stakeEndTime",
              "type": "uint256"
            },
            {
              "internalType": "uint256",
              "name": "endTime",
              "type": "uint256"
            },
            {
              "internalType": "uint256",
              "name": "resolutionEndTime",
              "type": "uint256"
            },
            {
              "internalType": "enum EventPool.MarketState",
              "name": "state",
              "type": "uint8"
            },
            {
              "internalType": "uint256",
              "name": "winningOption",
              "type": "uint256"
            },
            {
              "internalType": "bool",
              "name": "isResolved",
              "type": "bool"
            },
            {
              "internalType": "enum EventPool.MarketType",
              "name": "marketType",
              "type": "uint8"
            },
            {
              "internalType": "address",
              "name": "priceFeed",
              "type": "address"
            },
            {
              "internalType": "uint256",
              "name": "priceThreshold",
              "type": "uint256"
            },
            {
              "internalType": "bytes32",
              "name": "umaAssertionId",
              "type": "bytes32"
            },
            {
              "internalType": "bool",
              "name": "umaAssertionMade",
              "type": "bool"
            }
          ],
          "internalType": "struct EventPool.Market",
          "name": "market",
          "type": "tuple"
        },
        {
          "internalType": "uint256",
          "name": "totalPool",
          "type": "uint256"
        },
        {
          "internalType": "uint256",
          "name": "supportPool",
          "type": "uint256"
        },
        {
          "internalType": "uint256",
          "name": "stakerCount",
          "type": "uint256"
        },
        {
          "internalType": "uint256",
          "name": "supporterCount",
          "type": "uint256"
        },
        {
          "internalType": "address[]",
          "name": "stakers",
          "type": "address[]"
        },
        {
          "internalType": "address[]",
          "name": "supporters",
          "type": "address[]"
        },
        {
          "internalType": "string",
          "name": "tokenSymbol",
          "type": "string"
        }
      ],
      "stateMutability": "view",
      "type": "function"
    },
    {
      "inputs": [
        {
          "internalType": "uint256",
          "name": "marketId",
          "type": "uint256"
        }
      ],
      "name": "getMarketStakers",
      "outputs": [
        {
          "internalType": "address[]",
          "name": "",
          "type": "address[]"
        }
      ],
      "stateMutability": "view",
      "type": "function"
    },
    {
      "inputs": [],
      "name": "getNextMarketId",
      "outputs": [
        {
          "internalType": "uint256",
          "name": "",
          "type": "uint256"
        }
      ],
      "stateMutability": "view",
      "type": "function"
    },
    {
      "inputs": [
        {
          "internalType": "uint256",
          "name": "marketId",
          "type": "uint256"
        },
        {
          "internalType": "uint256",
          "name": "option",
          "type": "uint256"
        },
        {
          "internalType": "address",
          "name": "token",
          "type": "address"
        }
      ],
      "name": "getOptionPool",
      "outputs": [
        {
          "internalType": "uint256",
          "name": "",
          "type": "uint256"
        }
      ],
      "stateMutability": "view",
      "type": "function"
    },
    {
      "inputs": [
        {
          "internalType": "uint256",
          "name": "marketId",
          "type": "uint256"
        }
      ],
      "name": "getStakerCount",
      "outputs": [
        {
          "internalType": "uint256",
          "name": "",
          "type": "uint256"
        }
      ],
      "stateMutability": "view",
      "type": "function"
    },
    {
      "inputs": [
        {
          "internalType": "uint256",
          "name": "marketId",
          "type": "uint256"
        },
        {
          "internalType": "address",
          "name": "token",
          "type": "address"
        }
      ],
      "name": "getSupportPool",
      "outputs": [
        {
          "internalType": "uint256",
          "name": "",
          "type": "uint256"
        }
      ],
      "stateMutability": "view",
      "type": "function"
    },
    {
      "inputs": [
        {
          "internalType": "uint256",
          "name": "marketId",
          "type": "uint256"
        }
      ],
      "name": "getSupporterCount",
      "outputs": [
        {
          "internalType": "uint256",
          "name": "",
          "type": "uint256"
        }
      ],
      "stateMutability": "view",
      "type": "function"
    },
    {
      "inputs": [
        {
          "internalType": "uint256",
          "name": "marketId",
          "type": "uint256"
        },
        {
          "internalType": "address",
          "name": "token",
          "type": "address"
        }
      ],
      "name": "getTotalPool",
      "outputs": [
        {
          "internalType": "uint256",
          "name": "",
          "type": "uint256"
        }
      ],
      "stateMutability": "view",
      "type": "function"
    },
    {
      "inputs": [
        {
          "internalType": "uint256",
          "name": "marketId",
          "type": "uint256"
        },
        {
          "internalType": "address",
          "name": "user",
          "type": "address"
        },
        {
          "internalType": "address",
          "name": "token",
          "type": "address"
        }
      ],
      "name": "getUserStake",
      "outputs": [
        {
          "internalType": "uint256",
          "name": "",
          "type": "uint256"
        }
      ],
      "stateMutability": "view",
      "type": "function"
    },
    {
      "inputs": [
        {
          "internalType": "uint256",
          "name": "marketId",
          "type": "uint256"
        },
        {
          "internalType": "address",
          "name": "user",
          "type": "address"
        },
        {
          "internalType": "address",
          "name": "token",
          "type": "address"
        }
      ],
      "name": "getUserSupport",
      "outputs": [
        {
          "internalType": "uint256",
          "name": "",
          "type": "uint256"
        }
      ],
      "stateMutability": "view",
      "type": "function"
    },
    {
      "inputs": [
        {
          "internalType": "uint256",
          "name": "",
          "type": "uint256"
        }
      ],
      "name": "isActiveMarket",
      "outputs": [
        {
          "internalType": "bool",
          "name": "",
          "type": "bool"
        }
      ],
      "stateMutability": "view",
      "type": "function"
    },
    {
      "inputs": [
        {
          "internalType": "uint256",
          "name": "marketId",
          "type": "uint256"
        }
      ],
      "name": "markMarketDeleted",
      "outputs": [],
      "stateMutability": "nonpayable",
      "type": "function"
    },
    {
      "inputs": [
        {
          "internalType": "uint256",
          "name": "marketId",
          "type": "uint256"
        }
      ],
      "name": "markMarketPermanentlyRemoved",
      "outputs": [],
      "stateMutability": "nonpayable",
      "type": "function"
    },
    {
      "inputs": [],
      "name": "marketCreationFee",
      "outputs": [
        {
          "internalType": "uint256",
          "name": "",
          "type": "uint256"
        }
      ],
      "stateMutability": "view",
      "type": "function"
    },
    {
      "inputs": [
        {
          "internalType": "uint256",
          "name": "",
          "type": "uint256"
        },
        {
          "internalType": "uint256",
          "name": "",
          "type": "uint256"
        }
      ],
      "name": "marketStakers",
      "outputs": [
        {
          "internalType": "address",
          "name": "",
          "type": "address"
        }
      ],
      "stateMutability": "view",
      "type": "function"
    },
    {
      "inputs": [
        {
          "internalType": "uint256",
          "name": "",
          "type": "uint256"
        },
        {
          "internalType": "uint256",
          "name": "",
          "type": "uint256"
        }
      ],
      "name": "marketSupporters",
      "outputs": [
        {
          "internalType": "address",
          "name": "",
          "type": "address"
        }
      ],
      "stateMutability": "view",
      "type": "function"
    },
    {
      "inputs": [
        {
          "internalType": "uint256",
          "name": "",
          "type": "uint256"
        }
      ],
      "name": "markets",
      "outputs": [
        {
          "internalType": "address",
          "name": "creator",
          "type": "address"
        },
        {
          "internalType": "string",
          "name": "ipfsHash",
          "type": "string"
        },
        {
          "internalType": "bool",
          "name": "isMultiOption",
          "type": "bool"
        },
        {
          "internalType": "uint256",
          "name": "maxOptions",
          "type": "uint256"
        },
        {
          "internalType": "address",
          "name": "paymentToken",
          "type": "address"
        },
        {
          "internalType": "uint256",
          "name": "minStake",
          "type": "uint256"
        },
        {
          "internalType": "uint256",
          "name": "creatorDeposit",
          "type": "uint256"
        },
        {
          "internalType": "uint256",
          "name": "creatorOutcome",
          "type": "uint256"
        },
        {
          "internalType": "uint256",
          "name": "startTime",
          "type": "uint256"
        },
        {
          "internalType": "uint256",
          "name": "stakeEndTime",
          "type": "uint256"
        },
        {
          "internalType": "uint256",
          "name": "endTime",
          "type": "uint256"
        },
        {
          "internalType": "uint256",
          "name": "resolutionEndTime",
          "type": "uint256"
        },
        {
          "internalType": "enum EventPool.MarketState",
          "name": "state",
          "type": "uint8"
        },
        {
          "internalType": "uint256",
          "name": "winningOption",
          "type": "uint256"
        },
        {
          "internalType": "bool",
          "name": "isResolved",
          "type": "bool"
        },
        {
          "internalType": "enum EventPool.MarketType",
          "name": "marketType",
          "type": "uint8"
        },
        {
          "internalType": "address",
          "name": "priceFeed",
          "type": "address"
        },
        {
          "internalType": "uint256",
          "name": "priceThreshold",
          "type": "uint256"
        },
        {
          "internalType": "bytes32",
          "name": "umaAssertionId",
          "type": "bytes32"
        },
        {
          "internalType": "bool",
          "name": "umaAssertionMade",
          "type": "bool"
        }
      ],
      "stateMutability": "view",
      "type": "function"
    },
    {
      "inputs": [],
      "name": "nextMarketId",
      "outputs": [
        {
          "internalType": "uint256",
          "name": "",
          "type": "uint256"
        }
      ],
      "stateMutability": "view",
      "type": "function"
    },
    {
      "inputs": [],
      "name": "optimisticOracle",
      "outputs": [
        {
          "internalType": "address",
          "name": "",
          "type": "address"
        }
      ],
      "stateMutability": "view",
      "type": "function"
    },
    {
      "inputs": [],
      "name": "owner",
      "outputs": [
        {
          "internalType": "address",
          "name": "",
          "type": "address"
        }
      ],
      "stateMutability": "view",
      "type": "function"
    },
    {
      "inputs": [
        {
          "internalType": "uint256",
          "name": "marketId",
          "type": "uint256"
        },
        {
          "internalType": "uint256",
          "name": "option",
          "type": "uint256"
        }
      ],
      "name": "placeStake",
      "outputs": [],
      "stateMutability": "payable",
      "type": "function"
    },
    {
      "inputs": [
        {
          "internalType": "uint256",
          "name": "marketId",
          "type": "uint256"
        },
        {
          "internalType": "uint256",
          "name": "option",
          "type": "uint256"
        },
        {
          "internalType": "uint256",
          "name": "amount",
          "type": "uint256"
        }
      ],
      "name": "placeStakeWithToken",
      "outputs": [],
      "stateMutability": "nonpayable",
      "type": "function"
    },
    {
      "inputs": [],
      "name": "renounceOwnership",
      "outputs": [],
      "stateMutability": "nonpayable",
      "type": "function"
    },
    {
      "inputs": [
        {
          "internalType": "uint256",
          "name": "marketId",
          "type": "uint256"
        },
        {
          "internalType": "bytes",
          "name": "claim",
          "type": "bytes"
        }
      ],
      "name": "requestUMAResolution",
      "outputs": [],
      "stateMutability": "nonpayable",
      "type": "function"
    },
    {
      "inputs": [
        {
          "internalType": "uint256",
          "name": "marketId",
          "type": "uint256"
        }
      ],
      "name": "resolvePriceFeedMarket",
      "outputs": [],
      "stateMutability": "nonpayable",
      "type": "function"
    },
    {
      "inputs": [
        {
          "internalType": "address",
          "name": "_adminManager",
          "type": "address"
        }
      ],
      "name": "setAdminManager",
      "outputs": [],
      "stateMutability": "nonpayable",
      "type": "function"
    },
    {
      "inputs": [
        {
          "internalType": "address",
          "name": "_currency",
          "type": "address"
        },
        {
          "internalType": "uint256",
          "name": "_amount",
          "type": "uint256"
        }
      ],
      "name": "setDefaultBond",
      "outputs": [],
      "stateMutability": "nonpayable",
      "type": "function"
    },
    {
      "inputs": [
        {
          "internalType": "bytes32",
          "name": "_identifier",
          "type": "bytes32"
        }
      ],
      "name": "setDefaultIdentifier",
      "outputs": [],
      "stateMutability": "nonpayable",
      "type": "function"
    },
    {
      "inputs": [
        {
          "internalType": "uint64",
          "name": "_liveness",
          "type": "uint64"
        }
      ],
      "name": "setDefaultLiveness",
      "outputs": [],
      "stateMutability": "nonpayable",
      "type": "function"
    },
    {
      "inputs": [
        {
          "internalType": "address",
          "name": "_finder",
          "type": "address"
        }
      ],
      "name": "setFinder",
      "outputs": [],
      "stateMutability": "nonpayable",
      "type": "function"
    },
    {
      "inputs": [
        {
          "internalType": "address",
          "name": "_finder",
          "type": "address"
        }
      ],
      "name": "setFinderOnly",
      "outputs": [],
      "stateMutability": "nonpayable",
      "type": "function"
    },
    {
      "inputs": [
        {
          "internalType": "address",
          "name": "_oo",
          "type": "address"
        }
      ],
      "name": "setOptimisticOracle",
      "outputs": [],
      "stateMutability": "nonpayable",
      "type": "function"
    },
    {
      "inputs": [
        {
          "internalType": "uint256",
          "name": "marketId",
          "type": "uint256"
        },
        {
          "internalType": "uint256",
          "name": "winningOption",
          "type": "uint256"
        }
      ],
      "name": "settleUMAMarket",
      "outputs": [],
      "stateMutability": "nonpayable",
      "type": "function"
    },
    {
      "inputs": [
        {
          "internalType": "uint256",
          "name": "marketId",
          "type": "uint256"
        },
        {
          "internalType": "uint256",
          "name": "amount",
          "type": "uint256"
        }
      ],
      "name": "supportMarket",
      "outputs": [],
      "stateMutability": "payable",
      "type": "function"
    },
    {
      "inputs": [
        {
          "internalType": "address",
          "name": "newOwner",
          "type": "address"
        }
      ],
      "name": "transferOwnership",
      "outputs": [],
      "stateMutability": "nonpayable",
      "type": "function"
    },
    {
      "inputs": [],
      "name": "treasury",
      "outputs": [
        {
          "internalType": "address payable",
          "name": "",
          "type": "address"
        }
      ],
      "stateMutability": "view",
      "type": "function"
    },
    {
      "inputs": [
        {
          "internalType": "uint256",
          "name": "",
          "type": "uint256"
        },
        {
          "internalType": "address",
          "name": "",
          "type": "address"
        }
      ],
      "name": "userHasStaked",
      "outputs": [
        {
          "internalType": "bool",
          "name": "",
          "type": "bool"
        }
      ],
      "stateMutability": "view",
      "type": "function"
    },
    {
      "inputs": [
        {
          "internalType": "uint256",
          "name": "",
          "type": "uint256"
        },
        {
          "internalType": "address",
          "name": "",
          "type": "address"
        }
      ],
      "name": "userHasSupported",
      "outputs": [
        {
          "internalType": "bool",
          "name": "",
          "type": "bool"
        }
      ],
      "stateMutability": "view",
      "type": "function"
    },
    {
      "inputs": [
        {
          "internalType": "address",
          "name": "",
          "type": "address"
        },
        {
          "internalType": "uint256",
          "name": "",
          "type": "uint256"
        }
      ],
      "name": "userMarketHistory",
      "outputs": [
        {
          "internalType": "uint256",
          "name": "",
          "type": "uint256"
        }
      ],
      "stateMutability": "view",
      "type": "function"
    },
    {
      "inputs": [
        {
          "internalType": "uint256",
          "name": "",
          "type": "uint256"
        },
        {
          "internalType": "address",
          "name": "",
          "type": "address"
        }
      ],
      "name": "userStakeOptions",
      "outputs": [
        {
          "internalType": "uint256",
          "name": "",
          "type": "uint256"
        }
      ],
      "stateMutability": "view",
      "type": "function"
    },
    {
      "inputs": [
        {
          "internalType": "uint256",
          "name": "marketId",
          "type": "uint256"
        }
      ],
      "name": "withdrawSupport",
      "outputs": [],
      "stateMutability": "nonpayable",
      "type": "function"
    },
    {
      "stateMutability": "payable",
      "type": "receive"
    }
  ],
  "bytecode": "0x608034620000ff57601f6200604c38819003918201601f19168301916001600160401b038311848410176200010457808492606094604052833981010312620000ff576200004d816200011a565b60208201516001600160a01b03808216939091849003620000ff576200007760408392016200011a565b9216918215620000e6576000549360018060a01b03199380858716176000558360405196167f8be0079c531659141344cd1fd0a4f28419497f9722a3daafe3b4186f6b6457e0600080a3600160095583600754161760075516906008541617600855615f1c9081620001308239f35b604051631e4fbdf760e01b815260006004820152602490fd5b600080fd5b634e487b7160e01b600052604160045260246000fd5b51906001600160a01b0382168203620000ff5756fe61012080604052600436101561001e575b50361561001c57600080fd5b005b600090813560e01c9081630ccf446714614ba1575080630d64cdbd14614b72578063157bdcce14614aa4578063209c1c9414614a7b5780632230292214614a52578063256ba741146149bd578063287f57b5146149745780632ef1bdfa14614951578063304bf1f1146149085780633adfe6d0146148dd5780633e32a76c146146965780633ec7919314614234578063406ef2ef1461421657806342e5bd25146141c95780634f44289d14614180578063539aa77f146141635780635b7baf6414613dfc5780635e9a34e814613b3457806361d027b314613b0b57806366cf7ed414612d99578063677bd9ff1461294f5780636f59359e146128cd578063715018a614612885578063785052661461258f5780637c16cd9e146124b45780637e644a5f1461242c5780638053ec7b146122fa5780638333cb06146122dc578063847cf782146122985780638da5cb5b146122715780639300b5c21461224e57806398a17671146121f85780639a3a40d614611f72578063a210b6a414611f49578063a30a091414611f1f578063b1283e7714611d7c578063b9a3c84c14611d53578063bc16075814611cd7578063bf5c325214611c3e578063c22c62c314611c0c578063c3436e0c14611adb578063cc3cbd2a14611abe578063d509b01714611aa0578063d5f8270714611a55578063d70e9910146119c6578063d8c5dd671461197f578063dc4ce3491461192c578063e0bd4acc14611755578063eb44fdd314611605578063f00fe32114611562578063f15cc4061461111b578063f1b7dde314610d49578063f204072f1461093e578063f2fde38b146108c8578063f486759114610430578063fb87f2c3146102ee578063fe4e1983146102c55763fe53a6e80361001057346102c257806003193601126102c2576020600954604051908152f35b80fd5b50346102c257806003193601126102c2576011546040516001600160401b039091168152602090f35b50346102c25760208060031936011261042c576004359061033f60018060a01b0361031e81600854163314615cfa565b61032b6009548510615d3e565b838552600183526040852054161515615d77565b8183526001815260ff600c604085200154166005811015610418576004146103de576060600080516020615e908339815191529183855260018152600c6040862001600460ff19825416179055838552600b815260ff6040862054166103d0575b6017604051918083528201527626b0b935b2ba103232b632ba32b210313c9030b236b4b760491b6040820152a280f35b6103d984615c3f565b6103a0565b6064906040519062461bcd60e51b82526004820152601360248201527211540e88105b1c9958591e4819195b195d1959606a1b6044820152fd5b634e487b7160e01b84526021600452602484fd5b5080fd5b5061043a36614eeb565b600854604051634d9b423560e11b8152600481018490529192916020916001600160a01b0391908216908381602481855afa8015610854576104849188916108ab575b501561531c565b83865260018352604086209060ff600c830154166005811015610897576104ab901561535d565b60405163111a798960e31b81528481600481855afa801561088c578591899161085f575b506107b5575b5050841515806107a7575b6104e9906153ee565b60048101908282541661074757600561050691015434101561542b565b858080803486600754165af161051a61515b565b50156106f657908591848352600284526040832033600052845260ff60406000205416156106c9575b84835260028452604083203360005284526040600020600160ff1982541617905584835260048452604083203360005284528560406000205581806007541691541690803b1561066e576040516395f4109560e01b815291849183918290849082906105b8908d903490338f600487016151d6565b03925af19081156106aa5783916106b5575b505060048382600854166040519283809263406ad64560e11b82525afa9081156106aa57839161067d575b501680610621575b50506040519283523490830152600080516020615ef083398151915260403393a380f35b803b1561042c5781604051809263c228038d60e01b825281838161064b348c338d6004860161523e565b03925af1801561067257156105fd5761066390614e2c565b61066e5783386105fd565b8380fd5b6040513d84823e3d90fd5b61069d9150843d86116106a3575b6106958183614e76565b810190615206565b386105f5565b503d61068b565b6040513d85823e3d90fd5b6106be90614e2c565b61042c5781386105ca565b848352600584526106dd3360408520615467565b338352600c84526106f18560408520615135565b610543565b60405162461bcd60e51b815260048101849052602360248201527f45503a20455448207472616e7366657220746f205472656173757279206661696044820152621b195960ea1b6064820152608490fd5b60405162461bcd60e51b815260048101859052603260248201527f45503a2054686973206d61726b6574207573657320746f6b656e732c2075736560448201527110383630b1b2a132ba2bb4ba342a37b5b2b760711b6064820152608490fd5b5060038101548511156104e0565b604051632eaa712b60e21b815291829060049082905afa908115610854578791610822575b506009820154603c820291808304603c149015171561080e57610807916108009161539a565b42106153a7565b38836104d5565b634e487b7160e01b88526011600452602488fd5b90508381813d831161084d575b6108398183614e76565b810103126108485751386107da565b600080fd5b503d61082f565b6040513d89823e3d90fd5b61087f9150823d8411610885575b6108778183614e76565b81019061500d565b386104cf565b503d61086d565b6040513d8a823e3d90fd5b634e487b7160e01b88526021600452602488fd5b6108c29150853d8711610885576108778183614e76565b3861047d565b50346102c25760203660031901126102c2576108e2614bde565b6108ea614fe1565b6001600160a01b03908116908115610925576000548260018060a01b031982161760005516600080516020615eb0833981519152600080a380f35b604051631e4fbdf760e01b815260048101849052602490fd5b5061094836614eeb565b600854604051632b5ba3b960e01b815233600482015260209493916024916001600160a01b039182169087818581855afa9081156108545791610996899286948a91610d2c575b5015615025565b60405192838092634d9b423560e11b82528860048301525afa908115610d2157906109c8918791610d0a57501561531c565b828552600186526040852060ff600c820154166005811015610cf7576109ee901561535d565b6009810154421015610cb857600490610a088615156154a2565b0195818754168015600014610c425750843403610c0457610a2a3415156154a2565b858080803486600754165af1610a3e61515b565b5015610bb55785965b848752600382526040872033600052825260ff6040600020541615610b9c575b84875260038252604087203360005282526040600020600160ff1982541617905582806007541691541690803b15610b9857868891610ac0938360405180968195829463c15d980760e01b84528d339060048601615500565b03925af1908115610854578791610b80575b505060048183600854166040519283809263406ad64560e11b82525afa918215610854578792610b63575b50501680610b09578480f35b803b15610b5f578492836064926040519687958694638f46a5a160e01b86526004860152339085015260448401525af1801561067257610b4b575b8080808480f35b610b5490614e2c565b6102c2578038610b44565b8480fd5b610b799250803d106106a3576106958183614e76565b3880610afd565b610b8990614e2c565b610b94578538610ad2565b8580fd5b8780fd5b84875260068252610bb03360408920615467565b610a67565b6084906023846040519262461bcd60e51b845260048401528201527f45503a20455448207472616e7366657220746f207472656173757279206661696044820152621b195960ea1b6064820152fd5b6064906018846040519262461bcd60e51b845260048401528201527711540e88125b98dbdc9c9958dd0811551208185b5bdd5b9d60421b6044820152fd5b9634610c6057610c5b8688998560075416903390615284565b610a47565b60405162461bcd60e51b815260048101839052602b818601527f45503a204e6f204554482073686f756c642062652073656e7420666f7220746f60448201526a1ad95b881cdd5c1c1bdc9d60aa1b6064820152608490fd5b60405162461bcd60e51b8152600481018890526018818501527711540e8814dd5c1c1bdc9d081c195c9a5bd908195b99195960421b6044820152606490fd5b634e487b7160e01b875260216004528387fd5b6108c29150883d8a11610885576108778183614e76565b6040513d88823e3d90fd5b610d439150843d8611610885576108778183614e76565b3861098f565b50346102c25760603660031901126102c2576004356024359060443560018060a01b0380600854169060405191634d9b423560e11b83528460048401526020928381602481855afa801561088c57610da89189916108ab57501561531c565b84875260018352604087209060ff600c83015416600581101561110757610dcf901561535d565b60405163111a798960e31b81528481600481855afa80156110fc5785918a916110df575b5061104c575b50508515158061103e575b610e0d906153ee565b600481019082825416908115610fe9578589949392610e356005610e4294015483101561542b565b8460075416903390615284565b858352600284526040832033600052845260ff6040600020541615610fbc575b85835260028452604083203360005284526040600020600160ff1982541617905585835260048452604083203360005284528660406000205581806007541691541690803b1561066e578584918993838a610ed5604051978896879586946395f4109560e01b86523390600487016151d6565b03925af19081156106aa578391610fa8575b505060048382600854166040519283809263406ad64560e11b82525afa9081156106aa578391610f8b575b501680610f3c575b5050604051938452830152600080516020615ef083398151915260403393a380f35b803b1561042c5760405163c228038d60e01b81529082908290818381610f688a8d338e6004860161523e565b03925af180156106725715610f1a57610f8090614e2c565b610b5f578438610f1a565b610fa29150843d86116106a3576106958183614e76565b38610f12565b610fb190614e2c565b61042c578138610ee7565b85835260058452610fd03360408520615467565b338352600c8452610fe48660408520615135565b610e62565b60405162461bcd60e51b815260048101869052602760248201527f45503a2054686973206d61726b6574207573657320504550552c2075736520706044820152661b1858d950995d60ca1b6064820152608490fd5b506003810154861115610e04565b604051632eaa712b60e21b815291829060049082905afa90811561088c5788916110b2575b506009820154603c820291808304603c149015171561109e57611097916108009161539a565b3883610df9565b634e487b7160e01b89526011600452602489fd5b90508381813d83116110d8575b6110c98183614e76565b81010312610848575138611071565b503d6110bf565b6110f69150823d8411610885576108778183614e76565b38610df3565b6040513d8b823e3d90fd5b634e487b7160e01b89526021600452602489fd5b50346102c25760403660031901126102c257611135614bc8565b90600435815260016020526040812060ff600c82015416600581101561154e5760026111619114615656565b600d810154611171811515615695565b60043583526002602052604083209360018060a01b039485821660005260205260ff60406000205416156115135784600754166040516307c7a72d60e01b8152602081806111c58660043560048401615225565b0381855afa908115610d215786916114f4575b506114b95785600485015416936040519463423e7bc160e11b865260208680611208848860043560048501615571565b0381865afa958615610854578796611485575b5060405163dc4ce34960e01b8152926020848061123f858a600480359085016156d1565b0381845afa93841561088c578894611451575b50879260036001910154905b818111156113b057505061128e92916020916040518080968194634f44289d60e01b835260043560048401615225565b03915afa90811561085457879161137a575b6112aa92506150d9565b816112c1575050505050602091505b604051908152f35b939493806112fe5750506020946004358452600486526040842091166000528452604060002054146000146112f757505b6112b9565b90506112b9565b939291909495600435845260046020526040842091166000526020526040600020541460001461136e576123288083029283040361135a5750916113546112f29261134f61271060209604846150b0565b6156f2565b906150d9565b634e487b7160e01b81526011600452602490fd5b915050602091506112b9565b90506020823d6020116113a8575b8161139560209383614e76565b81010312610848576112aa9151906112a0565b3d9150611388565b8781036113c6575b6113c1906150e6565b61125e565b9360405163dc4ce34960e01b8152602081806113e9888a600435600485016156d1565b0381875afa908115611446578b91611412575b5061140a906113c1926150d9565b9490506113b8565b90506020813d60201161143e575b8161142d60209383614e76565b8101031261084857516113c16113fc565b3d9150611420565b6040513d8d823e3d90fd5b9093506020813d60201161147d575b8161146d60209383614e76565b8101031261084857519238611252565b3d9150611460565b9095506020813d6020116114b1575b816114a160209383614e76565b810103126108485751943861121b565b3d9150611494565b60405162461bcd60e51b815260206004820152601360248201527211540e88105b1c9958591e4818db185a5b5959606a1b6044820152606490fd5b61150d915060203d602011610885576108778183614e76565b386111d8565b60405162461bcd60e51b815260206004820152601360248201527211540e88139bc81cdd185ad9481c1b1858d959606a1b6044820152606490fd5b634e487b7160e01b83526021600452602483fd5b50346102c25760403660031901126102c2576115ab906020611582614bc8565b60018060a01b03600754166040518080968194633d1e7ba160e11b835260043560048401615225565b03915afa9081156115f957906115c7575b602090604051908152f35b506020813d82116115f1575b816115e060209383614e76565b8101031261084857602090516115bc565b3d91506115d3565b604051903d90823e3d90fd5b50346102c25760203660031901126102c257604061175191611625615dfc565b50600435815260016020522060ff60116040519261164284614e3f565b80546001600160a01b03908116855261165d60018301614f3b565b6020860152836002830154161515604086015260038201546060860152806004830154166080860152600582015460a0860152600682015460c0860152600782015460e086015260088201546101008601526009820154610120860152600a820154610140860152600b8201546101608601526116e484600c8401541661018087016150f5565b600d8201546101a0860152600e82015484811615156101c0870152611712858260081c166101e08801615101565b60101c16610200850152600f81015461022085015260108101546102408501520154161515610260820152604051918291602083526020830190614cea565b0390f35b50346102c25760208060031936011261042c576004359061178560018060a01b0361031e81600854163314615cfa565b8183526001815260ff600c604085200154166005811015610418576002036118ee576080600080516020615e9083398151915291838552600181528460116040822082815582600182016117d98154614f01565b806118ae575b505060028201556000600382015582600482015560006005820155600060068201556000600782015560006008820155600060098201556000600a8201556000600b82015582600c8201556000600d82015582600e8201556000600f820155600060108201550155838552600b815260ff6040862054166118a0575b6026604051918083528201527f5065726d616e656e746c792072656d6f76656420616674657220636c61696d206040820152651c195c9a5bd960d21b6060820152a280f35b6118a984615c3f565b61185b565b601f81116001146118c8575060009150555b8238806117df565b908060009184526118e7601f898620940160051c84016001850161510d565b55556118c0565b6064906040519062461bcd60e51b82526004820152601760248201527611540e8813585c9ad95d081b9bdd081c995cdbdb1d9959604a1b6044820152fd5b50346102c25760603660031901126102c257604435906001600160a01b038083168303610848576115ab9260209160075416604051808096819463dc4ce34960e01b8352602435600435600485016156d1565b50346102c25760403660031901126102c257604061199b614bc8565b9160043581526004602052209060018060a01b03166000526020526020604060002054604051908152f35b50346102c25760403660031901126102c2576119e0614bde565b6119e8614fe1565b6001600160a01b03168015611a1457600f80546001600160a01b03191691909117905560243560105580f35b60405162461bcd60e51b815260206004820152601960248201527845503a20496e76616c696420626f6e642063757272656e637960381b6044820152606490fd5b50346102c257611a6436614eeb565b919081526005602052604081209081548310156102c2576020611a878484614c5a565b905460405160039290921b1c6001600160a01b03168152f35b50346102c257806003193601126102c2576020601254604051908152f35b50346102c257806003193601126102c257602060405161015e8152f35b50346102c25760203660031901126102c25760043580825260016020526040822080546001600160a01b03163303611bc95760ff600c8201541660058110156104185790611b2b6009921561535d565b015461a8bf198101908111611bb557421015611b7757604051611b7491611b5182614e5b565b601182527010dc99585d1bdc8818d85b98d95b1b1959607a1b6020830152615712565b80f35b60405162461bcd60e51b815260206004820152601660248201527511540e88151bdbc81b185d19481d1bc818d85b98d95b60521b6044820152606490fd5b634e487b7160e01b83526011600452602483fd5b60405162461bcd60e51b815260206004820152601b60248201527a11540e8813db9b1e4818dc99585d1bdc8818d85b8818d85b98d95b602a1b6044820152606490fd5b50346102c257611c1b36614eeb565b919081526006602052604081209081548310156102c2576020611a878484614c5a565b50346102c25760203660031901126102c257611c58614bde565b611c60614fe1565b6001600160a01b03168015611c8657600d80546001600160a01b03191691909117905580f35b60405162461bcd60e51b8152602060048201526024808201527f45503a20496e76616c6964204f7074696d69737469634f7261636c65206164646044820152637265737360e01b6064820152608490fd5b50346102c25760203660031901126102c257611cf1614bde565b611cf9614fe1565b6001600160a01b03168015611d1f57600880546001600160a01b03191691909117905580f35b60405162461bcd60e51b815260206004820152600c60248201526b22a81d102130b21030b2323960a11b6044820152606490fd5b50346102c257806003193601126102c257600e546040516001600160a01b039091168152602090f35b50346102c25760203660031901126102c257600435815260016020819052604090912080546001600160a01b031691611db6908201614f3b565b60e052600281015460ff1661010052600381015460a052600160a01b600190036004820154169160058201546006830154600784015460088501546009860154600a87015490600b88015492600c89015460ff1694600d8a015496600e8b015498600f8c01549a60108d01549c6011015460ff166080526040518060c052526102808060c0516020015260c0510160e05190611e5191614c95565b9c61010051151560c0516040015260a05160c0516060015260c0516080015260c05160a0015260c05160c0015260c05160e0015260c051610100015260c051610120015260c051610140015260c051610160015260c05161018001611eb591614cba565b60c0516101a0015260ff8116151560c0516101c0015260c0516101e0018160081c60ff1690611ee391614cdd565b600160a01b600190039060101c1660c051610200015260c051610220015260c0516102400152608051151560c051610260015260c05180910390f35b50346102c25760203660031901126102c25760406020916004358152600683522054604051908152f35b50346102c257806003193601126102c2576008546040516001600160a01b039091168152602090f35b50346102c25760208060031936011261042c5760043590818352600181526040832090600e8201805460ff8160081c1660028110156121e4576121aa57600c84019081549060ff82166005811015611107576001611fd09114615591565b611fdd60ff8216156155cd565b600b860154421061216a57604051633fabe5a360e21b815288946001600160a01b0394939192919060a084600481601087901c8a165afa801561085457879061211a575b600f8a0154600295501161210f5760ff600d60019a5b0199168955600160ff198094161790551617905561205485615776565b60048382600854166040519283809263406ad64560e11b82525afa9081156106aa5783916120f2575b5016806120a2575b5050600080516020615ed08339815191529154604051908152a280f35b8354813b156120ee57829160448392604051948593849262ff4a7360e81b84528b600485015260248401525af180156106725715612085576120e390614e2c565b61066e578338612085565b8280fd5b6121099150843d86116106a3576106958183614e76565b3861207d565b60ff600d859a612037565b5060a0843d8211612162575b8161213360a09383614e76565b8101031261215e5783612147600295615608565b5061215860808a8301519201615608565b50612021565b8680fd5b3d9150612126565b60405162461bcd60e51b815260048101869052601860248201527745503a20546f6f206561726c7920746f207265736f6c766560401b6044820152606490fd5b60405162461bcd60e51b815260048101849052601260248201527111540e88139bdd081c1c9a58d9481999595960721b6044820152606490fd5b634e487b7160e01b87526021600452602487fd5b50346102c25760403660031901126102c257612212614bde565b6001600160a01b03168152600c60205260408120805460243592908310156102c25760206122408484614c5a565b90546040519160031b1c8152f35b50346102c25760203660031901126102c257612268614fe1565b60043560125580f35b50346102c257806003193601126102c257546040516001600160a01b039091168152602090f35b50346102c2576115ab9060206122ad36614bf4565b60075460405163423e7bc160e11b81529687946001600160a01b03909216938593849390919060048501615571565b50346102c257806003193601126102c2576020601054604051908152f35b50346102c25760208060031936011261042c57612315614bde565b61231d614fe1565b6001600160a01b03908116908390612336831515615db3565b60018060a01b0319928084600e541617600e558460405181810190714f7074696d69737469634f7261636c65563360701b82526012815261237681614e5b565b5190206024604051809481936302abf57960e61b835260048301525afa9081156106aa57839161240f575b50169182600d5491821617600d551617156123ba575080f35b6084906040519062461bcd60e51b82526004820152602860248201527f45503a204f7074696d69737469634f7261636c65206e6f7420666f756e64206960448201526737102334b73232b960c11b6064820152fd5b6124269150853d87116106a3576106958183614e76565b386123a1565b50346102c25760203660031901126102c2576004356001600160401b0381169081900361042c5761245b614fe1565b801561247857601180546001600160401b03191691909117905580f35b60405162461bcd60e51b815260206004820152601460248201527345503a20496e76616c6964206c6976656e65737360601b6044820152606490fd5b50346102c25760203660031901126102c2576004358082526001602052604082209060ff600c8301541660058110156104185760016124f39114615591565b600b820154421061254a5761251260ff600e611b7494015416156155cd565b6040519061251f82614e5b565b601982527814995cdbdb1d5d1a5bdb881c195c9a5bd908195e1c1a5c9959603a1b6020830152615712565b60405162461bcd60e51b815260206004820152601f60248201527f45503a205265736f6c7574696f6e20706572696f64206e6f7420656e646564006044820152606490fd5b50346102c25761259e36614eeb565b91908082526020600181526040832090600e8201805460ff8160081c1660028110156121e45760016125d0911461561c565b60ff601185015416156128485760ff6125ea9116156155cd565b8515158061283a575b156128005784958560018060a01b0380600d541693856010880195602487546040519c8d938492638ea2f2ab60e01b845260048401525af19889156106aa5783996127e1575b5060038701546002036127875760049350881561277e5760ff60015b16600d8801555b60ff19906001828254161790556002600c88019182541617905561267f87615776565b8481600854166040519485809263406ad64560e11b82525afa80156106725787938391612761575b5016806126fc575b5050600080516020615ed083398151915283600d7f32736e1fe22a85082b71b7eb923b176a17df522ea8342ff5e24ce4b7e2019bbf960154604051908152a254936040519015158152a380f35b909150600d850154813b156120ee57829160448392604051958693849262ff4a7360e81b84528c600485015260248401525af1918215612754578692156126af57612748919250614e2c565b610b94578386386126af565b50604051903d90823e3d90fd5b6127789150863d88116106a3576106958183614e76565b386126a7565b60ff6002612655565b915091871561279f57600d860155600491889161265c565b60405162461bcd60e51b815260048101869052601a60248201527911540e8815535048185cdcd95c9d1a5bdb881c995a9958dd195960321b6044820152606490fd5b6127f9919950863d8811610885576108778183614e76565b9738612639565b60405162461bcd60e51b815260048101839052601260248201527122a81d1024b73b30b634b21037b83a34b7b760711b6044820152606490fd5b5060038301548611156125f3565b60405162461bcd60e51b815260048101849052601560248201527445503a204e6f20617373657274696f6e206d61646560581b6044820152606490fd5b50346102c257806003193601126102c25761289e614fe1565b600080546001600160a01b0319811682556001600160a01b0316600080516020615eb08339815191528280a380f35b50346102c25760208060031936011261042c576004358252600581526040822091604051809384918482549182815201918452848420935b858282106129305750505061291c92500383614e76565b611751604051928284938452830190614def565b85546001600160a01b0316845260019586019588955093019201612905565b50346102c257602090816003193601126102c2576004359182825260018152604082209260ff600c8501541660058110156104185760026129909114615656565b600d840154916129a1831515615695565b818452600281526040842033600052815260ff6040600020541615612d66576007546040516307c7a72d60e01b81526001600160a01b039182169491908381806129ef338960048401615225565b0381895afa908115610854578791612d49575b50612d1657600487015416906040519063423e7bc160e11b8252838280612a2e86338a60048501615571565b0381895afa918215610854578792612ce7575b5060405163dc4ce34960e01b80825298858280612a6388878c600485016156d1565b03818b5afa9182156110fc578992612cb8575b50889960036001920154915b82811115612c21575050604051634f44289d60e01b8152899594939291508a878280612ab2898d60048401615225565b03818d5afa918215610854578792612bed575b5090612ad0916150d9565b81612b5c575050505081945b803b156120ee57858391612b099383604051809681958294632f0041ed60e11b8452338d60048601615500565b03925af1801561067257612b48575b50507f5380cf6fe903b40c6d5a9e0dfbca2f3a423f0a21520b4d5947ed5169bdba946d906040519384523393a380f35b612b5190614e2c565b61066e578385612b18565b80612b90575050858452600485526040842033600052855260406000205414600014612b885794612adc565b508194612adc565b9187869294959652600487526040822033600052875260406000205414600014612be157506123288082029182040361080e5791611354612bdb9261134f6127108b979604846150b0565b94612adc565b93925050508194612adc565b88809298508193503d8311612c1a575b612c078183614e76565b8101031261084857518995612ad0612ac5565b503d612bfd565b848103612c37575b612c32906150e6565b612a82565b9a612c5688888c8f8d604051958694859384938b8552600485016156d1565b03915afa908115612cad578c91612c7e575b50612c7690612c32926150d9565b9b9050612c29565b90508881813d8311612ca6575b612c958183614e76565b810103126108485751612c32612c68565b503d612c8b565b6040513d8e823e3d90fd5b9091508581813d8311612ce0575b612cd08183614e76565b8101031261084857519038612a76565b503d612cc6565b9091508381813d8311612d0f575b612cff8183614e76565b8101031261084857519038612a41565b503d612cf5565b60405162461bcd60e51b815260048101849052600b60248201526a11540e8810db185a5b595960aa1b6044820152606490fd5b612d609150843d8611610885576108778183614e76565b38612a02565b6064906040519062461bcd60e51b82526004820152600c60248201526b45503a204e6f207374616b6560a01b6044820152fd5b506101803660031901126102c2576004356001600160401b03811161042c573660238201121561042c57612dd7903690602481600401359101614eb4565b906024351515602435036102c2576064356001600160a01b03811690036108485760026101243510156102c25761014435906001600160a01b038216820361084857600854604051632b5ba3b960e01b81523360048201526001600160a01b0390911690602081602481855afa9081156106aa5790612e5d918491613af2575015615025565b835115613aba576002604435101580613aad575b15613a725760843515613a395760a435156139fe5760c4351515806139f0575b156139b557610124351561391b575b6040516317916e0160e01b8152602081600481855afa9081156106aa5783916138e9575b5060e435106138b15760e435610104351061386f576024351561380f576064356001600160a01b0316156137cb57604051633462561360e11b81526064356001600160a01b0316600482015290602090829060249082905afa9081156106725790612f369183916137ac575b5061506a565b670de0b6b3a7640000341061377057603c60e4350260e4358104603c1460e43515171561360357612f6790426150d9565b9061010435603c610104350204603c146101043515171561135a57612f92603c6101043502426150d9565b610124356137585780915b60095494612faa866150e6565b60095560405190612fba82614e3f565b33825287602083015260243515156040830152604435606083015260018060a01b0360643516608083015260843560a083015260a43560c083015260c43560e08301524261010083015285610120830152836101408301528461016083015282610180830152826101a0830152826101c083015261303f610124356101e08401615101565b6001600160a01b0390811661020083015261016435610220830152610240820183905261026082018390528683526001602090815260408420835181546001600160a01b03191693169290921782558201518051919291906001600160401b0382116137445781906130b46001860154614f01565b601f8111613706575b50602090601f831160011461369757869261368c575b50508160011b916000199060031b1c19161760018301555b6130fe6040820151151560028401615124565b606081015160038301556004820160018060a01b0360808301511660018060a01b031982541617905560a0810151600583015560c0810151600683015560e0810151600783015561010081015160088301556101208101516009830155610140810151600a830155610160810151600b830155600c820161018082015160058110156136785760ff801983541691161790556101a0810151600d830155600e82016131b06101c0830151151582615124565b6101e08201516002811015613678578154610200840151610100600160b01b031990911660089290921b61ff001691909117601091821b62010000600160b01b031617909155610220820151600f8401556102408201519083015561026001516132209190151590601101615124565b600a54600160401b8110156136625761325a613243826001899401600a55614c29565b819391549060031b91821b91600019901b19161790565b9055848152600b60205260408120805460ff191660011790556064356001600160a01b03166136175760a435670de0b6b3a76400000180670de0b6b3a7640000116136035734106135c6576132cf81808080670de0b6b3a764000060018060a01b038254165af16132c961515b565b5061518b565b8080808060a43560018060a01b03600754165af16132eb61515b565b5015613569575b848152600260205260408120336000526020526040600020600160ff198254161790558481526004602052604081203360005260205260c435604060002055338152600c6020526133468560408320615135565b6007546001600160a01b0316803b1561042c578160405180926395f4109560e01b825281838161338660c4358d60a43590606435903390600487016151d6565b03925af1801561067257908291613555575b505060085460405163406ad64560e11b815290602090829060049082906001600160a01b03165afa908115610672578291613536575b506001600160a01b038116613470575b505060209484927f5d0726a1bb5ec8c87527e69ba86d988202e885fad8f2b4aacd618793d6f297b29261341e604051936101208552610120850190614c95565b6024351515848a015260443560408501526064356001600160a01b0316606085015260843560808501524260a085015260c084019690965260e0830152610100820152339381900390a3604051908152f35b6001600160a01b0381163b1561042c5760405163782a780560e11b815282818061349e338b60048401615225565b0381836001600160a01b0387165af180156106aa57908391613522575b50506001600160a01b0381163b1561042c5760405163c228038d60e01b815290829082908183816134f660a43560c435338f6004860161523e565b03926001600160a01b03165af1801561067257156133de576135188291614e2c565b6102c257806133de565b61352b90614e2c565b61042c5781386134bb565b61354f915060203d6020116106a3576106958183614e76565b386133ce565b61355e90614e2c565b6102c2578038613398565b60405162461bcd60e51b815260206004820152602f60248201527f45503a2043726561746f72206465706f736974207472616e7366657220746f2060448201526e151c99585cdd5c9e4819985a5b1959608a1b6064820152608490fd5b60405162461bcd60e51b815260206004820152601560248201527445503a20496e73756666696369656e74205045505560581b6044820152606490fd5b634e487b7160e01b82526011600452602482fd5b61363b81808080670de0b6b3a764000060018060a01b038254165af16132c961515b565b60075461365d9060a435906001600160a01b0390811690339060643516615284565b6132f2565b634e487b7160e01b600052604160045260246000fd5b634e487b7160e01b85526021600452602485fd5b0151905038806130d3565b9250600185018652602086209086935b601f19841685106136eb576001945083601f198116106136d2575b505050811b0160018301556130eb565b015160001960f88460031b161c191690553880806136c2565b818101518355602094850194600190930192909101906136a7565b6137349060018701885260208820601f850160051c8101916020861061373a575b601f0160051c019061510d565b386130bd565b9091508190613727565b634e487b7160e01b85526041600452602485fd5b6202a30081018111613603576202a300810191612f9d565b60405162461bcd60e51b815260206004820152601460248201527345503a20496e73756666696369656e742066656560601b6044820152606490fd5b6137c5915060203d602011610885576108778183614e76565b38612f30565b606460405162461bcd60e51b815260206004820152602060248201527f45503a204d756c74692d6f7074696f6e206e656564732050325020746f6b656e6044820152fd5b6064356001600160a01b0316613826575b50612f36565b604051633462561360e11b81526064356001600160a01b0316600482015290602090829060249082905afa90811561067257906138699183916137ac575061506a565b38613820565b60405162461bcd60e51b815260206004820152601a60248201527945503a205265736f6c7574696f6e206166746572207374616b6560301b6044820152606490fd5b60405162461bcd60e51b815260206004820152601060248201526f22a81d1026b4b710323ab930ba34b7b760811b6044820152606490fd5b90506020813d602011613913575b8161390460209383614e76565b81010312610848575138612ec4565b3d91506138f7565b6001600160a01b038316156139765761016435612ea05760405162461bcd60e51b815260206004820152601c60248201527b11540e88141c9a58d9481d1a1c995cda1bdb19081c995c5d5a5c995960221b6044820152606490fd5b60405162461bcd60e51b815260206004820152601760248201527611540e88141c9a58d94819995959081c995c5d5a5c9959604a1b6044820152606490fd5b60405162461bcd60e51b815260206004820152601360248201527245503a20496e76616c6964206f7574636f6d6560681b6044820152606490fd5b5060443560c4351115612e91565b60405162461bcd60e51b815260206004820152601360248201527211540e88125b9d985b1a590819195c1bdcda5d606a1b6044820152606490fd5b60405162461bcd60e51b815260206004820152601160248201527045503a20496e76616c6964207374616b6560781b6044820152606490fd5b60405162461bcd60e51b815260206004820152601360248201527245503a20496e76616c6964206f7074696f6e7360681b6044820152606490fd5b50600a6044351115612e71565b60405162461bcd60e51b815260206004820152601060248201526f08aa0744092dcecc2d8d2c840d0c2e6d60831b6044820152606490fd5b610d43915060203d602011610885576108778183614e76565b50346102c257806003193601126102c2576007546040516001600160a01b039091168152602090f35b50346102c25760031960403682011261042c576004356001600160401b0360248035828111610b945736602382011215610b9457613b7b9036908381600401359101614eb4565b91838652602094600186526040872092600e84015460ff8160081c166002811015613de9576001613bac911461561c565b60ff600c860154166005811015613de957613bd691613bcf600160ff9314615591565b16156155cd565b600b8401544210613db657601184019460ff865416613d7d57600d546001600160a01b0390811692908315613d4857600f5416938415613d115789949392613c94613c66938b8e946010549a601254906011541690604051938c8501528b8452613c3f84614e5b565b604051638a8218bb60e01b815261010060048201529c8d9b8c9a8b996101048b0190614c95565b9633908a01523060448a01526064890152608488015260a487015260c48601528483030160e4850152614c95565b03925af1948515610d21578695613ce0575b5050601001839055805460ff191660011790557fc92f993487c6d961b60ff2a81386dff5cc620cd4aed9cddabe26500391655e828380a380f35b90809550813d8311613d0a575b613cf78183614e76565b81010312610b5f57601093519338613ca6565b503d613ced565b60405162461bcd60e51b8152600481018b90526010818401526f11540e88109bdb99081b9bdd081cd95d60821b6044820152606490fd5b60405162461bcd60e51b8152600481018b9052600e818401526d11540e8813d3c81b9bdd081cd95d60921b6044820152606490fd5b60405162461bcd60e51b8152600481018990526012818401527145503a20417373657274696f6e206d61646560701b6044820152606490fd5b86600d6064926040519262461bcd60e51b845260048401528201526c45503a20546f6f206561726c7960981b6044820152fd5b634e487b7160e01b8a526021600452828afd5b50346102c25760208060031936011261042c5760043580835260018252604083209160ff600c8401541660058110156136785760030361412457818452600281526040842033600052815260ff604060002054168015614104575b156140c7578392828552600282526040852033600052825260ff60406000205416614021575b828552600382526040852033600052825260ff60406000205416613f79575b8315613f3a5760075460049091015485916001600160a01b039182169116803b156120ee57858391613ee7938360405180968195829463164fcd7d60e21b8452338d60048601615500565b03925af1801561067257613f26575b50507ff3f402280ef0a7905e124aa621b65eaeb2725c343e8b36d398ed78c29daf285c906040519384523393a380f35b613f2f90614e2c565b61066e578338613ef6565b60405162461bcd60e51b815260048101839052601760248201527645503a204e6f20726566756e6420617661696c61626c6560481b6044820152606490fd5b92613fb0908260018060a01b0380600754169060048801541690604051808096819463256ba74160e01b8352338b60048501615571565b03915afa908115610d21578691613ff0575b613fcc92506150d9565b928285526003825260408520336000528252604060002060ff198154169055613e9c565b90508282813d831161401a575b6140078183614e76565b8101031261084857613fcc915190613fc2565b503d613ffd565b92506140588160018060a01b0380600754169060048701541690604051808095819463423e7bc160e11b8352338a60048501615571565b03915afa9081156140bc57859161408f575b50928285526002825260408520336000528252604060002060ff198154169055613e7d565b90508181813d83116140b5575b6140a68183614e76565b8101031261084857513861406a565b503d61409c565b6040513d87823e3d90fd5b6064906040519062461bcd60e51b82526004820152601660248201527511540e88139bc81cdd185ad9481d1bc81c99599d5b9960521b6044820152fd5b50818452600381526040842033600052815260ff60406000205416613e57565b6064906040519062461bcd60e51b82526004820152601860248201527711540e8813585c9ad95d081b9bdd0818d85b98d95b1b195960421b6044820152fd5b50346102c257806003193601126102c25760206040516101f48152f35b50346102c25760403660031901126102c2576115ab9060206141a0614bc8565b60018060a01b03600754166040518080968194634f44289d60e01b835260043560048401615225565b50346102c25760203660031901126102c2576141e3614bde565b6141eb614fe1565b6001600160a01b03166141ff811515615db3565b600e80546001600160a01b03191691909117905580f35b50346102c257806003193601126102c2576020600954604051908152f35b50346102c25760203660031901126102c25761424e615dfc565b50600435815260016020526040812060ff60116040519261426e84614e3f565b80546001600160a01b0316845261428760018201614f3b565b602085015260028101548316151560408501526003810154606085015260048101546001600160a01b03166080850152600581015460a0850152600681015460c0850152600781015460e085015260088101546101008501526009810154610120850152600a810154610140850152600b810154610160850152600c81015461431690841661018086016150f5565b600d8101546101a0850152600e81015483811615156101c0860152614344848260081c166101e08701615101565b6001600160a01b03601091821c8116610200870152600f830154610220870152908201546102408601529101549190911615156102608301526007546080830151604051633d1e7ba160e11b81529291821691602091849182916143af911660048035908401615225565b0381845afa918215614656578492614661575b506080830151604051634f44289d60e01b81529291602091849190829081906143fa906001600160a01b031660048035908401615225565b03915afa918215614656578492614622575b506004358452600560205260408420546006602052604085205460056020526040862091604051808460208296549384815201908a5260208a20928a5b81811061460057505061445e92500384614e76565b600435875260066020526040872094604051808760208299549384815201908b5260208b20928b5b8181106145de57505061449b92500387614e76565b6008546080880151604051637d85959b60e11b81526001600160a01b039182166004820152918a9183916024918391165afa9889156115f9578099614543575b614505896117518c6145358c6145278d8d8d8d8d6040519b8c9b6101008d526101008d0190614cea565b9460208c015260408b015260608a0152608089015287820360a0890152614def565b9085820360c0870152614def565b9083820360e0850152614c95565b909198503d8082843e6145568184614e76565b82019160208184031261042c578051906001600160401b0382116120ee570182601f8201121561042c5780519161458c83614e99565b9361459a6040519586614e76565b838552602084840101116102c257509361452793836145cd61453598946117519b9860206145059f9c9881019101614c72565b9a50935093968195509591956144db565b84546001600160a01b031683526001948501948b945060209093019201614486565b84546001600160a01b0316835260019485019488945060209093019201614449565b9091506020813d60201161464e575b8161463e60209383614e76565b810103126108485751903861440c565b3d9150614631565b6040513d86823e3d90fd5b91506020823d60201161468e575b8161467c60209383614e76565b810103126108485790519060206143c2565b3d915061466f565b50346102c25760208060031936011261042c576004358083526001825260408320600383526040842033855283526146d460ff604086205416615528565b60ff600c82015416600581101561367857806148685750600981015461a8bf198101908111614854574210156147f4575b8360018060a01b036004816007541693015416916040519063256ba74160e01b825285828061473987338a60048501615571565b0381845afa9182156106aa5783926147c5575b50614758821515615528565b803b156120ee5761478293836040518096819582946317be0b2f60e11b8452338b60048601615500565b03925af18015614656576147b2575b5082526003815260408220903360005252604060002060ff19815416905580f35b6147be90939193614e2c565b9138614791565b9091508581813d83116147ed575b6147dd8183614e76565b810103126120ee5751903861474c565b503d6147d3565b60405162461bcd60e51b815260048101849052603260248201527f45503a2043616e6e6f742077697468647261772077697468696e20313220686f6044820152711d5c9cc81bd9881cdd185ada5b99c8195b9960721b6064820152608490fd5b634e487b7160e01b85526011600452602485fd5b600481149081156148d2575b506147055760405162461bcd60e51b815260048101849052602b60248201527f45503a2043616e6e6f7420776974686472617720696e2063757272656e74206d60448201526a61726b657420737461746560a81b6064820152608490fd5b600391501438614874565b50346102c25760203660031901126102c25760043590600a548210156102c257602061224083614c29565b50346102c25760403660031901126102c25760ff6040602092614929614bc8565b6004358252600285528282206001600160a01b03909116825284522054604051911615158152f35b50346102c257806003193601126102c2576020604051670de0b6b3a76400008152f35b50346102c25760403660031901126102c25760ff6040602092614995614bc8565b6004358252600385528282206001600160a01b03909116825284522054604051911615158152f35b50346102c257614a0060206149d136614bf4565b60075460405163256ba74160e01b81529586946001600160a01b03909216938593849390919060048501615571565b03915afa908115610672578291614a1d575b602082604051908152f35b90506020813d8211614a4a575b81614a3760209383614e76565b8101031261042c57602091505138614a12565b3d9150614a2a565b50346102c257806003193601126102c257600d546040516001600160a01b039091168152602090f35b50346102c257806003193601126102c257600f546040516001600160a01b039091168152602090f35b50346102c25760203660031901126102c257600435808252600160205260408220600c81019081549060ff82166005811015614b5e5790614ae7600a921561535d565b01544210614b195760ff19166001179055808252600b602052604082205460ff16614b10575080f35b611b7490615c3f565b60405162461bcd60e51b815260206004820152601f60248201527f45503a205265736f6c7574696f6e2074696d65206e6f742072656163686564006044820152606490fd5b634e487b7160e01b86526021600452602486fd5b50346102c25760203660031901126102c25760ff60406020926004358152600b84522054166040519015158152f35b90503461042c57602036600319011261042c57604060209260043581526005845220548152f35b602435906001600160a01b038216820361084857565b600435906001600160a01b038216820361084857565b606090600319011261084857600435906001600160a01b03906024358281168103610848579160443590811681036108485790565b600a54811015614c4457600a60005260206000200190600090565b634e487b7160e01b600052603260045260246000fd5b8054821015614c445760005260206000200190600090565b60005b838110614c855750506000910152565b8181015183820152602001614c75565b90602091614cae81518092818552858086019101614c72565b601f01601f1916010190565b906005821015614cc75752565b634e487b7160e01b600052602160045260246000fd5b906002821015614cc75752565b9060018060a01b0391828151168252614d126020820151610280806020860152840190614c95565b926040820151151560408401526060820151606084015280608083015116608084015260a082015160a084015260c082015160c084015260e082015160e08401526101008083015190840152610120808301519084015261014080830151908401526101608083015190840152614d926101808084015190850190614cba565b6101a080830151908401526101c080830151151590840152614dbd6101e08084015190850190614cdd565b610200908183015116908301526102208082015190830152610240808201519083015261026080910151151591015290565b90815180825260208080930193019160005b828110614e0f575050505090565b83516001600160a01b031685529381019392810192600101614e01565b6001600160401b03811161366257604052565b61028081019081106001600160401b0382111761366257604052565b604081019081106001600160401b0382111761366257604052565b601f909101601f19168101906001600160401b0382119082101761366257604052565b6001600160401b03811161366257601f01601f191660200190565b929192614ec082614e99565b91614ece6040519384614e76565b829481845281830111610848578281602093846000960137010152565b6040906003190112610848576004359060243590565b90600182811c92168015614f31575b6020831014614f1b57565b634e487b7160e01b600052602260045260246000fd5b91607f1691614f10565b9060405191826000825492614f4f84614f01565b908184526001948581169081600014614fbe5750600114614f7b575b5050614f7992500383614e76565b565b9093915060005260209081600020936000915b818310614fa6575050614f7993508201013880614f6b565b85548884018501529485019487945091830191614f8e565b915050614f7994506020925060ff191682840152151560051b8201013880614f6b565b6000546001600160a01b03163303614ff557565b60405163118cdaa760e01b8152336004820152602490fd5b90816020910312610848575180151581036108485790565b1561502c57565b60405162461bcd60e51b815260206004820152601660248201527511540e8815d85b1b195d08189b1858dadb1a5cdd195960521b6044820152606490fd5b1561507157565b60405162461bcd60e51b815260206004820152601760248201527611540e88151bdad95b881b9bdd081cdd5c1c1bdc9d1959604a1b6044820152606490fd5b818102929181159184041417156150c357565b634e487b7160e01b600052601160045260246000fd5b919082018092116150c357565b60001981146150c35760010190565b6005821015614cc75752565b6002821015614cc75752565b818110615118575050565b6000815560010161510d565b9060ff801983541691151516179055565b805490600160401b821015613662578161324391600161515794018155614c5a565b9055565b3d15615186573d9061516c82614e99565b9161517a6040519384614e76565b82523d6000602084013e565b606090565b1561519257565b606460405162461bcd60e51b815260206004820152602060248201527f45503a20466565207472616e7366657220746f206f776e6572206661696c65646044820152fd5b9081526001600160a01b039182166020820152911660408201526060810191909152608081019190915260a00190565b9081602091031261084857516001600160a01b03811681036108485790565b9081526001600160a01b03909116602082015260400190565b909493926060926080830196835260018060a01b0316602083015260408201520152565b6001600160a01b03918216815291166020820152604081019190915260600190565b92906000916152bd6020946152af604051938492888401966323b872dd60e01b885260248501615262565b03601f198101835282614e76565b519082855af115615310576000513d61530757506001600160a01b0381163b155b6152e55750565b604051635274afe760e01b81526001600160a01b039091166004820152602490fd5b600114156152de565b6040513d6000823e3d90fd5b1561532357565b60405162461bcd60e51b815260206004820152601260248201527111540e8813585c9ad95d0819195b195d195960721b6044820152606490fd5b1561536457565b60405162461bcd60e51b815260206004820152600e60248201526d45503a204e6f742061637469766560901b6044820152606490fd5b919082039182116150c357565b156153ae57565b60405162461bcd60e51b815260206004820152601860248201527711540e8814dd185ada5b99c81c195c9a5bd908195b99195960421b6044820152606490fd5b156153f557565b60405162461bcd60e51b815260206004820152600e60248201526d22a81d102130b21037b83a34b7b760911b6044820152606490fd5b1561543257565b60405162461bcd60e51b815260206004820152600d60248201526c22a81d102132b637bb9036b4b760991b6044820152606490fd5b8054600160401b8110156136625761548491600182018155614c5a565b819291549060031b9160018060a01b03809116831b921b1916179055565b156154a957565b60405162461bcd60e51b815260206004820152602960248201527f45503a20537570706f727420616d6f756e74206d75737420626520677265617460448201526806572207468616e20360bc1b6064820152608490fd5b9081526001600160a01b03918216602082015291166040820152606081019190915260800190565b1561552f57565b60405162461bcd60e51b815260206004820152601a60248201527945503a204e6f20737570706f727420746f20776974686472617760301b6044820152606490fd5b9081526001600160a01b0391821660208201529116604082015260600190565b1561559857565b60405162461bcd60e51b815260206004820152600d60248201526c11540e88139bdd08195b991959609a1b6044820152606490fd5b156155d457565b60405162461bcd60e51b815260206004820152600c60248201526b11540e8814995cdbdb1d995960a21b6044820152606490fd5b51906001600160501b038216820361084857565b1561562357565b60405162461bcd60e51b815260206004820152600b60248201526a45503a204e6f7420554d4160a81b6044820152606490fd5b1561565d57565b60405162461bcd60e51b815260206004820152601060248201526f11540e88139bdd081c995cdbdb1d995960821b6044820152606490fd5b1561569c57565b60405162461bcd60e51b815260206004820152600d60248201526c22a81d102737903bb4b73732b960991b6044820152606490fd5b90815260208101919091526001600160a01b03909116604082015260600190565b81156156fc570490565b634e487b7160e01b600052601260045260246000fd5b90615756600080516020615e9083398151915291836000526001602052600c604060002001600360ff19825416179055604051918291602083526020830190614c95565b0390a2565b6001600160a01b039091168152602081019190915260400190565b60009080825260206001815260409182842090849160016003820154600d830154915b81811115615b91575050600754600483810180548951634f44289d60e01b81526001600160a01b03999298939792948a1693918a1692918582806157e08787838f01615225565b0381885afa918215615b87579189918d97969594938f92615b44575b50916158268561580e86948a966150d9565b995163dc4ce34960e01b81529a8b94859485016156d1565b0381865afa958615615b07578c96615b11575b508382615859928d519384928392633d1e7ba160e11b84528d8401615225565b0381865afa938415615b07578c94615ad7575b505061015e9384840284159585820414861715615ac457612710809104956101f49081870291878304141715615ab15704956159b3575050506158b9906158b384846150d9565b9061539a565b9281615946575b5050906158cc916150d9565b92836158db575b505050505050565b806007541692541690823b15610b94579184939186809461590f97519788958694859363f0824f3360e01b8552840161575b565b03925af190811561593d5750615929575b808080806158d3565b6159338291614e2c565b6102c25780615920565b513d84823e3d90fd5b8680600754169154168787541690823b156159af579161597f93918b80948c519687958694859363112cd22360e01b85528d8501615262565b03925af180156159a557908891156158c05761599a90614e2c565b61215e5786386158c0565b87513d8a823e3d90fd5b8a80fd5b9092509794909293976159cd575b50505050505050505050565b849084615a4b575b5050505050836159e9575b808080806159c1565b806007541692541690823b15610b945791849391868094615a1d9751978895869485936348fef59560e01b8552840161575b565b03925af190811561593d5750615a37575b808080806159e0565b615a418291614e2c565b6102c25780615a2e565b5416823b15615aad5791615a7893918a80948b519687958694859363112cd22360e01b85528c8501615262565b03925af18015615aa357615a90575b808083816159d5565b615a9c90969196614e2c565b9438615a87565b86513d89823e3d90fd5b8980fd5b634e487b7160e01b8e5260118a5260248efd5b634e487b7160e01b8d526011895260248dfd5b9080929450813d8311615b00575b615aef8183614e76565b810103126159af575191388061586c565b503d615ae5565b8b513d8e823e3d90fd5b9095508381813d8311615b3d575b615b298183614e76565b81010312615b3957519483615839565b8b80fd5b503d615b1f565b9250929394959650508581813d8311615b80575b615b628183614e76565b81010312615b7c57518b95949392918991906158266157fc565b8c80fd5b503d615b58565b8c513d8f823e3d90fd5b828103615ba7575b615ba2906150e6565b615799565b9487878760018060a01b0388816007541691615bde600491828c01541696519687958694859463dc4ce34960e01b865285016156d1565b03915afa908115615c35578a91615c06575b50615bfe90615ba2926150d9565b959050615b99565b90508781813d8311615c2e575b615c1d8183614e76565b81010312615aad5751615ba2615bf0565b503d615c13565b89513d8c823e3d90fd5b60005b600a9081549182821015615cf4578392615c5b83614c29565b949054600395861b1c14615c7a575050615c7591506150e6565b615c42565b9091600019918281019081116150c357613243615c99615ca592614c29565b905490871b1c92614c29565b905581548015615cde57810192615cbb84614c29565b81939154921b1b1916905555600052600b602052604060002060ff198154169055565b634e487b7160e01b600052603160045260246000fd5b50505050565b15615d0157565b60405162461bcd60e51b815260206004820152601560248201527422a81d1027b7363c9020b236b4b726b0b730b3b2b960591b6044820152606490fd5b15615d4557565b60405162461bcd60e51b815260206004820152600a60248201526911540e8810985908125160b21b6044820152606490fd5b15615d7e57565b60405162461bcd60e51b815260206004820152600d60248201526c11540e88139bc81b585c9ad95d609a1b6044820152606490fd5b15615dba57565b60405162461bcd60e51b815260206004820152601a60248201527945503a20496e76616c69642046696e646572206164647265737360301b6044820152606490fd5b60405190615e0982614e3f565b81610260600091828152606060208201528260408201528260608201528260808201528260a08201528260c08201528260e08201528261010082015282610120820152826101408201528261016082015282610180820152826101a0820152826101c0820152826101e0820152826102008201528261022082015282610240820152015256fe4c4561c5b0048424071c1115e9f1e325486e21c21333d968f21097b7b72d12ad8be0079c531659141344cd1fd0a4f28419497f9722a3daafe3b4186f6b6457e06dfc24f0f2fb42e49fb4fa3ffa8abb148cab908a1fb8335b3f128a08b2594af1e10fdde2c5cd9b92e449ee25df01febda2cbebc5553e38f2250ffe7f2d5143bca164736f6c6343000814000a",
  "linkReferences": {},
  "deployedLinkReferences": {}
}