{
  "_format": "hh-sol-artifact-1",
  "contractName": "EventPool",
  "sourceName": "contracts/P2PMarketManager.sol",
  "abi": [
    {
      "inputs": [
        {
          "internalType": "address",
          "name": "initialOwner",
          "type": "address"
        },
        {
          "internalType": "address payable",
          "name": "_treasury",
          "type": "address"
        },
        {
          "internalType": "address",
          "name": "_adminManager",
          "type": "address"
        }
      ],
      "stateMutability": "nonpayable",
      "type": "constructor"
    },
    {
      "inputs": [
        {
          "internalType": "address",
          "name": "owner",
          "type": "address"
        }
      ],
      "name": "OwnableInvalidOwner",
      "type": "error"
    },
    {
      "inputs": [
        {
          "internalType": "address",
          "name": "account",
          "type": "address"
        }
      ],
      "name": "OwnableUnauthorizedAccount",
      "type": "error"
    },
    {
      "inputs": [
        {
          "internalType": "address",
          "name": "token",
          "type": "address"
        }
      ],
      "name": "SafeERC20FailedOperation",
      "type": "error"
    },
    {
      "anonymous": false,
      "inputs": [
        {
          "indexed": true,
          "internalType": "uint256",
          "name": "marketId",
          "type": "uint256"
        },
        {
          "indexed": false,
          "internalType": "string",
          "name": "reason",
          "type": "string"
        }
      ],
      "name": "MarketCancelled",
      "type": "event"
    },
    {
      "anonymous": false,
      "inputs": [
        {
          "indexed": true,
          "internalType": "uint256",
          "name": "marketId",
          "type": "uint256"
        },
        {
          "indexed": true,
          "internalType": "address",
          "name": "creator",
          "type": "address"
        },
        {
          "indexed": false,
          "internalType": "string",
          "name": "ipfsHash",
          "type": "string"
        },
        {
          "indexed": false,
          "internalType": "bool",
          "name": "isMultiOption",
          "type": "bool"
        },
        {
          "indexed": false,
          "internalType": "uint256",
          "name": "maxOptions",
          "type": "uint256"
        },
        {
          "indexed": false,
          "internalType": "address",
          "name": "paymentToken",
          "type": "address"
        },
        {
          "indexed": false,
          "internalType": "uint256",
          "name": "minStake",
          "type": "uint256"
        },
        {
          "indexed": false,
          "internalType": "uint256",
          "name": "startTime",
          "type": "uint256"
        },
        {
          "indexed": false,
          "internalType": "uint256",
          "name": "stakeEndTime",
          "type": "uint256"
        },
        {
          "indexed": false,
          "internalType": "uint256",
          "name": "endTime",
          "type": "uint256"
        },
        {
          "indexed": false,
          "internalType": "uint256",
          "name": "resolutionEndTime",
          "type": "uint256"
        }
      ],
      "name": "MarketCreated",
      "type": "event"
    },
    {
      "anonymous": false,
      "inputs": [
        {
          "indexed": true,
          "internalType": "uint256",
          "name": "marketId",
          "type": "uint256"
        },
        {
          "indexed": false,
          "internalType": "uint256",
          "name": "winningOption",
          "type": "uint256"
        }
      ],
      "name": "MarketResolved",
      "type": "event"
    },
    {
      "anonymous": false,
      "inputs": [
        {
          "indexed": true,
          "internalType": "uint256",
          "name": "marketId",
          "type": "uint256"
        },
        {
          "indexed": true,
          "internalType": "bytes32",
          "name": "assertionId",
          "type": "bytes32"
        },
        {
          "indexed": true,
          "internalType": "address",
          "name": "disputer",
          "type": "address"
        }
      ],
      "name": "OracleDisputed",
      "type": "event"
    },
    {
      "anonymous": false,
      "inputs": [
        {
          "indexed": true,
          "internalType": "uint256",
          "name": "marketId",
          "type": "uint256"
        },
        {
          "indexed": true,
          "internalType": "bytes32",
          "name": "assertionId",
          "type": "bytes32"
        }
      ],
      "name": "OracleSettled",
      "type": "event"
    },
    {
      "anonymous": false,
      "inputs": [
        {
          "indexed": true,
          "internalType": "address",
          "name": "previousOwner",
          "type": "address"
        },
        {
          "indexed": true,
          "internalType": "address",
          "name": "newOwner",
          "type": "address"
        }
      ],
      "name": "OwnershipTransferred",
      "type": "event"
    },
    {
      "anonymous": false,
      "inputs": [
        {
          "indexed": true,
          "internalType": "uint256",
          "name": "marketId",
          "type": "uint256"
        },
        {
          "indexed": true,
          "internalType": "address",
          "name": "user",
          "type": "address"
        },
        {
          "indexed": false,
          "internalType": "uint256",
          "name": "amount",
          "type": "uint256"
        }
      ],
      "name": "RefundClaimed",
      "type": "event"
    },
    {
      "anonymous": false,
      "inputs": [
        {
          "indexed": true,
          "internalType": "uint256",
          "name": "marketId",
          "type": "uint256"
        },
        {
          "indexed": true,
          "internalType": "bytes32",
          "name": "assertionId",
          "type": "bytes32"
        }
      ],
      "name": "ResolutionRequested",
      "type": "event"
    },
    {
      "anonymous": false,
      "inputs": [
        {
          "indexed": true,
          "internalType": "uint256",
          "name": "marketId",
          "type": "uint256"
        },
        {
          "indexed": true,
          "internalType": "address",
          "name": "user",
          "type": "address"
        },
        {
          "indexed": false,
          "internalType": "uint256",
          "name": "option",
          "type": "uint256"
        },
        {
          "indexed": false,
          "internalType": "uint256",
          "name": "amount",
          "type": "uint256"
        }
      ],
      "name": "StakePlaced",
      "type": "event"
    },
    {
      "anonymous": false,
      "inputs": [
        {
          "indexed": true,
          "internalType": "uint256",
          "name": "marketId",
          "type": "uint256"
        },
        {
          "indexed": true,
          "internalType": "bytes32",
          "name": "assertionId",
          "type": "bytes32"
        },
        {
          "indexed": false,
          "internalType": "bool",
          "name": "outcome",
          "type": "bool"
        }
      ],
      "name": "UMAResolutionSettled",
      "type": "event"
    },
    {
      "anonymous": false,
      "inputs": [
        {
          "indexed": true,
          "internalType": "uint256",
          "name": "marketId",
          "type": "uint256"
        },
        {
          "indexed": true,
          "internalType": "address",
          "name": "user",
          "type": "address"
        },
        {
          "indexed": false,
          "internalType": "uint256",
          "name": "amount",
          "type": "uint256"
        }
      ],
      "name": "WinningsClaimed",
      "type": "event"
    },
    {
      "inputs": [],
      "name": "CREATOR_FEE_BPS",
      "outputs": [
        {
          "internalType": "uint256",
          "name": "",
          "type": "uint256"
        }
      ],
      "stateMutability": "view",
      "type": "function"
    },
    {
      "inputs": [],
      "name": "PLATFORM_FEE_BPS",
      "outputs": [
        {
          "internalType": "uint256",
          "name": "",
          "type": "uint256"
        }
      ],
      "stateMutability": "view",
      "type": "function"
    },
    {
      "inputs": [
        {
          "internalType": "uint256",
          "name": "",
          "type": "uint256"
        }
      ],
      "name": "activeMarkets",
      "outputs": [
        {
          "internalType": "uint256",
          "name": "",
          "type": "uint256"
        }
      ],
      "stateMutability": "view",
      "type": "function"
    },
    {
      "inputs": [],
      "name": "adminManager",
      "outputs": [
        {
          "internalType": "address",
          "name": "",
          "type": "address"
        }
      ],
      "stateMutability": "view",
      "type": "function"
    },
    {
      "inputs": [
        {
          "internalType": "uint256",
          "name": "marketId",
          "type": "uint256"
        },
        {
          "internalType": "address",
          "name": "user",
          "type": "address"
        }
      ],
      "name": "calculateWinnings",
      "outputs": [
        {
          "internalType": "uint256",
          "name": "",
          "type": "uint256"
        }
      ],
      "stateMutability": "view",
      "type": "function"
    },
    {
      "inputs": [
        {
          "internalType": "uint256",
          "name": "marketId",
          "type": "uint256"
        }
      ],
      "name": "cancelMarket",
      "outputs": [],
      "stateMutability": "nonpayable",
      "type": "function"
    },
    {
      "inputs": [
        {
          "internalType": "uint256",
          "name": "marketId",
          "type": "uint256"
        }
      ],
      "name": "claimRefund",
      "outputs": [],
      "stateMutability": "nonpayable",
      "type": "function"
    },
    {
      "inputs": [
        {
          "internalType": "uint256",
          "name": "marketId",
          "type": "uint256"
        }
      ],
      "name": "claimWinnings",
      "outputs": [],
      "stateMutability": "nonpayable",
      "type": "function"
    },
    {
      "inputs": [
        {
          "internalType": "string",
          "name": "ipfsHash",
          "type": "string"
        },
        {
          "internalType": "bool",
          "name": "isMultiOption",
          "type": "bool"
        },
        {
          "internalType": "uint256",
          "name": "maxOptions",
          "type": "uint256"
        },
        {
          "internalType": "address",
          "name": "paymentToken",
          "type": "address"
        },
        {
          "internalType": "uint256",
          "name": "minStake",
          "type": "uint256"
        },
        {
          "internalType": "uint256",
          "name": "creatorDeposit",
          "type": "uint256"
        },
        {
          "internalType": "uint256",
          "name": "creatorOutcome",
          "type": "uint256"
        },
        {
          "internalType": "uint256",
          "name": "stakeDurationMinutes",
          "type": "uint256"
        },
        {
          "internalType": "uint256",
          "name": "resolutionDurationMinutes",
          "type": "uint256"
        },
        {
          "internalType": "enum EventPool.MarketType",
          "name": "marketType",
          "type": "uint8"
        },
        {
          "internalType": "address",
          "name": "priceFeed",
          "type": "address"
        },
        {
          "internalType": "uint256",
          "name": "priceThreshold",
          "type": "uint256"
        }
      ],
      "name": "createMarket",
      "outputs": [
        {
          "internalType": "uint256",
          "name": "",
          "type": "uint256"
        }
      ],
      "stateMutability": "payable",
      "type": "function"
    },
    {
      "inputs": [
        {
          "internalType": "uint256",
          "name": "marketId",
          "type": "uint256"
        }
      ],
      "name": "creatorCancelMarket",
      "outputs": [],
      "stateMutability": "nonpayable",
      "type": "function"
    },
    {
      "inputs": [],
      "name": "defaultBondCurrency",
      "outputs": [
        {
          "internalType": "address",
          "name": "",
          "type": "address"
        }
      ],
      "stateMutability": "view",
      "type": "function"
    },
    {
      "inputs": [
        {
          "internalType": "uint256",
          "name": "marketId",
          "type": "uint256"
        }
      ],
      "name": "disputeOracle",
      "outputs": [],
      "stateMutability": "nonpayable",
      "type": "function"
    },
    {
      "inputs": [
        {
          "internalType": "uint256",
          "name": "marketId",
          "type": "uint256"
        }
      ],
      "name": "endMarket",
      "outputs": [],
      "stateMutability": "nonpayable",
      "type": "function"
    },
    {
      "inputs": [
        {
          "internalType": "uint256",
          "name": "marketId",
          "type": "uint256"
        }
      ],
      "name": "getMarket",
      "outputs": [
        {
          "components": [
            {
              "internalType": "address",
              "name": "creator",
              "type": "address"
            },
            {
              "internalType": "string",
              "name": "ipfsHash",
              "type": "string"
            },
            {
              "internalType": "bool",
              "name": "isMultiOption",
              "type": "bool"
            },
            {
              "internalType": "uint256",
              "name": "maxOptions",
              "type": "uint256"
            },
            {
              "internalType": "address",
              "name": "paymentToken",
              "type": "address"
            },
            {
              "internalType": "uint256",
              "name": "minStake",
              "type": "uint256"
            },
            {
              "internalType": "uint256",
              "name": "creatorDeposit",
              "type": "uint256"
            },
            {
              "internalType": "uint256",
              "name": "creatorOutcome",
              "type": "uint256"
            },
            {
              "internalType": "uint256",
              "name": "startTime",
              "type": "uint256"
            },
            {
              "internalType": "uint256",
              "name": "stakeEndTime",
              "type": "uint256"
            },
            {
              "internalType": "uint256",
              "name": "endTime",
              "type": "uint256"
            },
            {
              "internalType": "uint256",
              "name": "resolutionEndTime",
              "type": "uint256"
            },
            {
              "internalType": "enum EventPool.MarketState",
              "name": "state",
              "type": "uint8"
            },
            {
              "internalType": "uint256",
              "name": "winningOption",
              "type": "uint256"
            },
            {
              "internalType": "bool",
              "name": "isResolved",
              "type": "bool"
            },
            {
              "internalType": "enum EventPool.MarketType",
              "name": "marketType",
              "type": "uint8"
            },
            {
              "internalType": "address",
              "name": "priceFeed",
              "type": "address"
            },
            {
              "internalType": "uint256",
              "name": "priceThreshold",
              "type": "uint256"
            },
            {
              "internalType": "bytes32",
              "name": "p2pAssertionId",
              "type": "bytes32"
            },
            {
              "internalType": "bool",
              "name": "p2pAssertionMade",
              "type": "bool"
            }
          ],
          "internalType": "struct EventPool.Market",
          "name": "",
          "type": "tuple"
        }
      ],
      "stateMutability": "view",
      "type": "function"
    },
    {
      "inputs": [
        {
          "internalType": "uint256",
          "name": "marketId",
          "type": "uint256"
        }
      ],
      "name": "getMarketStakers",
      "outputs": [
        {
          "internalType": "address[]",
          "name": "",
          "type": "address[]"
        }
      ],
      "stateMutability": "view",
      "type": "function"
    },
    {
      "inputs": [],
      "name": "getNextMarketId",
      "outputs": [
        {
          "internalType": "uint256",
          "name": "",
          "type": "uint256"
        }
      ],
      "stateMutability": "view",
      "type": "function"
    },
    {
      "inputs": [
        {
          "internalType": "uint256",
          "name": "marketId",
          "type": "uint256"
        },
        {
          "internalType": "uint256",
          "name": "option",
          "type": "uint256"
        },
        {
          "internalType": "address",
          "name": "token",
          "type": "address"
        }
      ],
      "name": "getOptionPool",
      "outputs": [
        {
          "internalType": "uint256",
          "name": "",
          "type": "uint256"
        }
      ],
      "stateMutability": "view",
      "type": "function"
    },
    {
      "inputs": [
        {
          "internalType": "uint256",
          "name": "marketId",
          "type": "uint256"
        }
      ],
      "name": "getStakerCount",
      "outputs": [
        {
          "internalType": "uint256",
          "name": "",
          "type": "uint256"
        }
      ],
      "stateMutability": "view",
      "type": "function"
    },
    {
      "inputs": [
        {
          "internalType": "uint256",
          "name": "marketId",
          "type": "uint256"
        },
        {
          "internalType": "address",
          "name": "token",
          "type": "address"
        }
      ],
      "name": "getSupportPool",
      "outputs": [
        {
          "internalType": "uint256",
          "name": "",
          "type": "uint256"
        }
      ],
      "stateMutability": "view",
      "type": "function"
    },
    {
      "inputs": [
        {
          "internalType": "uint256",
          "name": "marketId",
          "type": "uint256"
        }
      ],
      "name": "getSupporterCount",
      "outputs": [
        {
          "internalType": "uint256",
          "name": "",
          "type": "uint256"
        }
      ],
      "stateMutability": "view",
      "type": "function"
    },
    {
      "inputs": [
        {
          "internalType": "uint256",
          "name": "marketId",
          "type": "uint256"
        },
        {
          "internalType": "address",
          "name": "token",
          "type": "address"
        }
      ],
      "name": "getTotalPool",
      "outputs": [
        {
          "internalType": "uint256",
          "name": "",
          "type": "uint256"
        }
      ],
      "stateMutability": "view",
      "type": "function"
    },
    {
      "inputs": [
        {
          "internalType": "uint256",
          "name": "marketId",
          "type": "uint256"
        },
        {
          "internalType": "address",
          "name": "user",
          "type": "address"
        },
        {
          "internalType": "address",
          "name": "token",
          "type": "address"
        }
      ],
      "name": "getUserStake",
      "outputs": [
        {
          "internalType": "uint256",
          "name": "",
          "type": "uint256"
        }
      ],
      "stateMutability": "view",
      "type": "function"
    },
    {
      "inputs": [
        {
          "internalType": "uint256",
          "name": "marketId",
          "type": "uint256"
        },
        {
          "internalType": "address",
          "name": "user",
          "type": "address"
        },
        {
          "internalType": "address",
          "name": "token",
          "type": "address"
        }
      ],
      "name": "getUserSupport",
      "outputs": [
        {
          "internalType": "uint256",
          "name": "",
          "type": "uint256"
        }
      ],
      "stateMutability": "view",
      "type": "function"
    },
    {
      "inputs": [
        {
          "internalType": "uint256",
          "name": "",
          "type": "uint256"
        }
      ],
      "name": "isActiveMarket",
      "outputs": [
        {
          "internalType": "bool",
          "name": "",
          "type": "bool"
        }
      ],
      "stateMutability": "view",
      "type": "function"
    },
    {
      "inputs": [
        {
          "internalType": "uint256",
          "name": "marketId",
          "type": "uint256"
        }
      ],
      "name": "markMarketDeleted",
      "outputs": [],
      "stateMutability": "nonpayable",
      "type": "function"
    },
    {
      "inputs": [
        {
          "internalType": "uint256",
          "name": "marketId",
          "type": "uint256"
        }
      ],
      "name": "markMarketPermanentlyRemoved",
      "outputs": [],
      "stateMutability": "nonpayable",
      "type": "function"
    },
    {
      "inputs": [],
      "name": "marketCreationFee",
      "outputs": [
        {
          "internalType": "uint256",
          "name": "",
          "type": "uint256"
        }
      ],
      "stateMutability": "view",
      "type": "function"
    },
    {
      "inputs": [
        {
          "internalType": "uint256",
          "name": "",
          "type": "uint256"
        },
        {
          "internalType": "uint256",
          "name": "",
          "type": "uint256"
        }
      ],
      "name": "marketStakers",
      "outputs": [
        {
          "internalType": "address",
          "name": "",
          "type": "address"
        }
      ],
      "stateMutability": "view",
      "type": "function"
    },
    {
      "inputs": [
        {
          "internalType": "uint256",
          "name": "",
          "type": "uint256"
        },
        {
          "internalType": "uint256",
          "name": "",
          "type": "uint256"
        }
      ],
      "name": "marketSupporters",
      "outputs": [
        {
          "internalType": "address",
          "name": "",
          "type": "address"
        }
      ],
      "stateMutability": "view",
      "type": "function"
    },
    {
      "inputs": [
        {
          "internalType": "uint256",
          "name": "",
          "type": "uint256"
        }
      ],
      "name": "markets",
      "outputs": [
        {
          "internalType": "address",
          "name": "creator",
          "type": "address"
        },
        {
          "internalType": "string",
          "name": "ipfsHash",
          "type": "string"
        },
        {
          "internalType": "bool",
          "name": "isMultiOption",
          "type": "bool"
        },
        {
          "internalType": "uint256",
          "name": "maxOptions",
          "type": "uint256"
        },
        {
          "internalType": "address",
          "name": "paymentToken",
          "type": "address"
        },
        {
          "internalType": "uint256",
          "name": "minStake",
          "type": "uint256"
        },
        {
          "internalType": "uint256",
          "name": "creatorDeposit",
          "type": "uint256"
        },
        {
          "internalType": "uint256",
          "name": "creatorOutcome",
          "type": "uint256"
        },
        {
          "internalType": "uint256",
          "name": "startTime",
          "type": "uint256"
        },
        {
          "internalType": "uint256",
          "name": "stakeEndTime",
          "type": "uint256"
        },
        {
          "internalType": "uint256",
          "name": "endTime",
          "type": "uint256"
        },
        {
          "internalType": "uint256",
          "name": "resolutionEndTime",
          "type": "uint256"
        },
        {
          "internalType": "enum EventPool.MarketState",
          "name": "state",
          "type": "uint8"
        },
        {
          "internalType": "uint256",
          "name": "winningOption",
          "type": "uint256"
        },
        {
          "internalType": "bool",
          "name": "isResolved",
          "type": "bool"
        },
        {
          "internalType": "enum EventPool.MarketType",
          "name": "marketType",
          "type": "uint8"
        },
        {
          "internalType": "address",
          "name": "priceFeed",
          "type": "address"
        },
        {
          "internalType": "uint256",
          "name": "priceThreshold",
          "type": "uint256"
        },
        {
          "internalType": "bytes32",
          "name": "p2pAssertionId",
          "type": "bytes32"
        },
        {
          "internalType": "bool",
          "name": "p2pAssertionMade",
          "type": "bool"
        }
      ],
      "stateMutability": "view",
      "type": "function"
    },
    {
      "inputs": [],
      "name": "nextMarketId",
      "outputs": [
        {
          "internalType": "uint256",
          "name": "",
          "type": "uint256"
        }
      ],
      "stateMutability": "view",
      "type": "function"
    },
    {
      "inputs": [],
      "name": "optimisticOracle",
      "outputs": [
        {
          "internalType": "address",
          "name": "",
          "type": "address"
        }
      ],
      "stateMutability": "view",
      "type": "function"
    },
    {
      "inputs": [],
      "name": "owner",
      "outputs": [
        {
          "internalType": "address",
          "name": "",
          "type": "address"
        }
      ],
      "stateMutability": "view",
      "type": "function"
    },
    {
      "inputs": [
        {
          "internalType": "uint256",
          "name": "marketId",
          "type": "uint256"
        },
        {
          "internalType": "uint256",
          "name": "option",
          "type": "uint256"
        }
      ],
      "name": "placeStake",
      "outputs": [],
      "stateMutability": "payable",
      "type": "function"
    },
    {
      "inputs": [
        {
          "internalType": "uint256",
          "name": "marketId",
          "type": "uint256"
        },
        {
          "internalType": "uint256",
          "name": "option",
          "type": "uint256"
        },
        {
          "internalType": "uint256",
          "name": "amount",
          "type": "uint256"
        }
      ],
      "name": "placeStakeWithToken",
      "outputs": [],
      "stateMutability": "nonpayable",
      "type": "function"
    },
    {
      "inputs": [],
      "name": "renounceOwnership",
      "outputs": [],
      "stateMutability": "nonpayable",
      "type": "function"
    },
    {
      "inputs": [
        {
          "internalType": "uint256",
          "name": "marketId",
          "type": "uint256"
        },
        {
          "internalType": "bytes",
          "name": "claim",
          "type": "bytes"
        },
        {
          "internalType": "uint256",
          "name": "optionId",
          "type": "uint256"
        }
      ],
      "name": "requestP2PResolution",
      "outputs": [],
      "stateMutability": "nonpayable",
      "type": "function"
    },
    {
      "inputs": [
        {
          "internalType": "uint256",
          "name": "marketId",
          "type": "uint256"
        }
      ],
      "name": "resolveP2PMarket",
      "outputs": [],
      "stateMutability": "nonpayable",
      "type": "function"
    },
    {
      "inputs": [
        {
          "internalType": "uint256",
          "name": "marketId",
          "type": "uint256"
        }
      ],
      "name": "resolvePriceFeedMarket",
      "outputs": [],
      "stateMutability": "nonpayable",
      "type": "function"
    },
    {
      "inputs": [
        {
          "internalType": "address",
          "name": "_adminManager",
          "type": "address"
        }
      ],
      "name": "setAdminManager",
      "outputs": [],
      "stateMutability": "nonpayable",
      "type": "function"
    },
    {
      "inputs": [
        {
          "internalType": "address",
          "name": "_currency",
          "type": "address"
        }
      ],
      "name": "setDefaultBondCurrency",
      "outputs": [],
      "stateMutability": "nonpayable",
      "type": "function"
    },
    {
      "inputs": [
        {
          "internalType": "address",
          "name": "_oo",
          "type": "address"
        }
      ],
      "name": "setOptimisticOracle",
      "outputs": [],
      "stateMutability": "nonpayable",
      "type": "function"
    },
    {
      "inputs": [
        {
          "internalType": "uint256",
          "name": "marketId",
          "type": "uint256"
        }
      ],
      "name": "settleOracle",
      "outputs": [],
      "stateMutability": "nonpayable",
      "type": "function"
    },
    {
      "inputs": [
        {
          "internalType": "uint256",
          "name": "marketId",
          "type": "uint256"
        },
        {
          "internalType": "uint256",
          "name": "amount",
          "type": "uint256"
        }
      ],
      "name": "supportMarket",
      "outputs": [],
      "stateMutability": "payable",
      "type": "function"
    },
    {
      "inputs": [
        {
          "internalType": "address",
          "name": "newOwner",
          "type": "address"
        }
      ],
      "name": "transferOwnership",
      "outputs": [],
      "stateMutability": "nonpayable",
      "type": "function"
    },
    {
      "inputs": [],
      "name": "treasury",
      "outputs": [
        {
          "internalType": "address payable",
          "name": "",
          "type": "address"
        }
      ],
      "stateMutability": "view",
      "type": "function"
    },
    {
      "inputs": [
        {
          "internalType": "uint256",
          "name": "",
          "type": "uint256"
        },
        {
          "internalType": "address",
          "name": "",
          "type": "address"
        }
      ],
      "name": "userHasStaked",
      "outputs": [
        {
          "internalType": "bool",
          "name": "",
          "type": "bool"
        }
      ],
      "stateMutability": "view",
      "type": "function"
    },
    {
      "inputs": [
        {
          "internalType": "uint256",
          "name": "",
          "type": "uint256"
        },
        {
          "internalType": "address",
          "name": "",
          "type": "address"
        }
      ],
      "name": "userHasSupported",
      "outputs": [
        {
          "internalType": "bool",
          "name": "",
          "type": "bool"
        }
      ],
      "stateMutability": "view",
      "type": "function"
    },
    {
      "inputs": [
        {
          "internalType": "address",
          "name": "",
          "type": "address"
        },
        {
          "internalType": "uint256",
          "name": "",
          "type": "uint256"
        }
      ],
      "name": "userMarketHistory",
      "outputs": [
        {
          "internalType": "uint256",
          "name": "",
          "type": "uint256"
        }
      ],
      "stateMutability": "view",
      "type": "function"
    },
    {
      "inputs": [
        {
          "internalType": "uint256",
          "name": "",
          "type": "uint256"
        },
        {
          "internalType": "address",
          "name": "",
          "type": "address"
        }
      ],
      "name": "userStakeOptions",
      "outputs": [
        {
          "internalType": "uint256",
          "name": "",
          "type": "uint256"
        }
      ],
      "stateMutability": "view",
      "type": "function"
    },
    {
      "inputs": [
        {
          "internalType": "uint256",
          "name": "marketId",
          "type": "uint256"
        }
      ],
      "name": "withdrawSupport",
      "outputs": [],
      "stateMutability": "nonpayable",
      "type": "function"
    },
    {
      "stateMutability": "payable",
      "type": "receive"
    }
  ],
  "bytecode": "0x608034620000ff57601f62005f1938819003918201601f19168301916001600160401b038311848410176200010457808492606094604052833981010312620000ff576200004d816200011a565b60208201516001600160a01b03808216939091849003620000ff576200007760408392016200011a565b9216918215620000e6576000549360018060a01b03199380858716176000558360405196167f8be0079c531659141344cd1fd0a4f28419497f9722a3daafe3b4186f6b6457e0600080a3600160095583600754161760075516906008541617600855615de99081620001308239f35b604051631e4fbdf760e01b815260006004820152602490fd5b600080fd5b634e487b7160e01b600052604160045260246000fd5b51906001600160a01b0382168203620000ff5756fe61012080604052600436101561001e575b50361561001c57600080fd5b005b600090813560e01c9081630ccf446714614a83575080630d64cdbd14614a54578063157bdcce1461499a578063209c1c94146149715780632230292214614948578063256ba741146148b3578063287f57b51461486a5780632ef1bdfa14614847578063304bf1f1146147fe5780633adfe6d0146147d35780633e32a76c1461458c578063406ef2ef1461456e5780634f44289d14614525578063539aa77f14614508578063569946c5146144285780635b7baf64146140cc5780635cb305a614613ee757806361d027b314613ebe57806366cf7ed4146130d9578063677bd9ff14612c775780636d4476ec146129ae5780636f59359e146128fc578063715018a6146128b45780637c16cd9e146127d9578063847cf782146127955780638da5cb5b1461276e57806398a17671146127185780639a3a40d614612496578063a210b6a41461246d578063a30a091414612443578063a550725d146123ba578063b1283e7714612217578063bc1607581461219b578063bf5c325214612102578063c22c62c3146120d0578063c3436e0c14611f9f578063cc3cbd2a14611f82578063d18e181a14611c27578063d5f8270714611bdc578063d8c5dd6714611b95578063dc4ce34914611b42578063e0bd4acc1461196b578063eb44fdd314611664578063f00fe321146115c1578063f15cc4061461115f578063f1b7dde314610d39578063f204072f146108f2578063f2fde38b1461087c578063f4867591146103ba578063fb87f2c3146102785763fe53a6e80361001057346102755780600319360112610275576020600954604051908152f35b80fd5b5034610275576020806003193601126103b657600435906102c960018060a01b036102a881600854163314615ca3565b6102b56009548510615ce7565b838552600183526040852054161515615d20565b8183526001815260ff600c6040852001541660058110156103a257600414610368576060600080516020615d5d8339815191529183855260018152600c6040862001600460ff19825416179055838552600b815260ff60408620541661035a575b6017604051918083528201527626b0b935b2ba103232b632ba32b210313c9030b236b4b760491b6040820152a280f35b61036384615be8565b61032a565b6064906040519062461bcd60e51b82526004820152601360248201527211540e88105b1c9958591e4819195b195d1959606a1b6044820152fd5b634e487b7160e01b84526021600452602484fd5b5080fd5b506103c436614d4d565b600854604051634d9b423560e11b8152600481018490529192916020916001600160a01b0391908216908381602481855afa80156107de578790610842575b61040e91501561508d565b83865260018352604086209060ff600c83015416600581101561082e5761043590156150ce565b60405163111a798960e31b81528481600481855afa801561082357859189916107e9575b5061073f575b505084151580610731575b6104739061515f565b6004810190828254166106d157600561049091015434101561519c565b858080803486600754165af16104a4614ec6565b501561068057908591848352600284526040832033600052845260ff6040600020541615610653575b84835260028452604083203360005284526040600020600160ff1982541617905584835260048452604083203360005284528560406000205581806007541691541690803b156105f8576040516395f4109560e01b81529184918391829084908290610542908d903490338f60048701614f41565b03925af190811561063457839161063f575b505060048382600854166040519283809263406ad64560e11b82525afa908115610634578391610607575b5016806105ab575b50506040519283523490830152600080516020615dbd83398151915260403393a380f35b803b156103b65781604051809263c228038d60e01b82528183816105d5348c338d60048601614fa9565b03925af180156105fc5715610587576105ed90614b54565b6105f8578338610587565b8380fd5b6040513d84823e3d90fd5b6106279150843d861161062d575b61061f8183614b9e565b810190614f71565b3861057f565b503d610615565b6040513d85823e3d90fd5b61064890614b54565b6103b6578138610554565b8483526005845261066733604085206151d8565b338352600c845261067b8560408520614ea0565b6104cd565b60405162461bcd60e51b815260048101849052602360248201527f45503a20455448207472616e7366657220746f205472656173757279206661696044820152621b195960ea1b6064820152608490fd5b60405162461bcd60e51b815260048101859052603260248201527f45503a2054686973206d61726b6574207573657320746f6b656e732c2075736560448201527110383630b1b2a132ba2bb4ba342a37b5b2b760711b6064820152608490fd5b50600381015485111561046a565b604051632eaa712b60e21b815291829060049082905afa9081156107de5787916107ac575b506009820154603c820291808304603c1490151715610798576107919161078a9161510b565b4210615118565b388361045f565b634e487b7160e01b88526011600452602488fd5b90508381813d83116107d7575b6107c38183614b9e565b810103126107d2575138610764565b600080fd5b503d6107b9565b6040513d89823e3d90fd5b82819392503d831161081c575b6108008183614b9e565b81010312610818576108128591614d8f565b38610459565b8780fd5b503d6107f6565b6040513d8a823e3d90fd5b634e487b7160e01b88526021600452602488fd5b508381813d8311610875575b6108588183614b9e565b810103126108715761086c61040e91614d8f565b610403565b8680fd5b503d61084e565b503461027557602036600319011261027557610896614ac0565b61089e614d63565b6001600160a01b039081169081156108d9576000548260018060a01b031982161760005516600080516020615d7d833981519152600080a380f35b604051631e4fbdf760e01b815260048101849052602490fd5b506108fc36614d4d565b600854604051632b5ba3b960e01b815233600482015260209493916024916001600160a01b039182169087818581855afa9081156107de5791889185938991610cfb575b5061094b9015614d9c565b60405192838092634d9b423560e11b82528860048301525afa8015610cf0578690610cba575b61097c91501561508d565b828552600186526040852060ff600c820154166005811015610ca7576109a290156150ce565b6009810154421015610c68576004906109bc861515615213565b0195818754168015600014610bf25750843403610bb4576109de341515615213565b858080803486600754165af16109f2614ec6565b5015610b655785965b848752600382526040872033600052825260ff6040600020541615610b4c575b84875260038252604087203360005282526040600020600160ff1982541617905582806007541691541690803b1561081857868891610a74938360405180968195829463c15d980760e01b84528d339060048601615271565b03925af19081156107de578791610b34575b505060048183600854166040519283809263406ad64560e11b82525afa9182156107de578792610b17575b50501680610abd578480f35b803b15610b13578492836064926040519687958694638f46a5a160e01b86526004860152339085015260448401525af180156105fc57610aff575b8080808480f35b610b0890614b54565b610275578038610af8565b8480fd5b610b2d9250803d1061062d5761061f8183614b9e565b3880610ab1565b610b3d90614b54565b610b48578538610a86565b8580fd5b84875260068252610b6033604089206151d8565b610a1b565b6084906023846040519262461bcd60e51b845260048401528201527f45503a20455448207472616e7366657220746f207472656173757279206661696044820152621b195960ea1b6064820152fd5b6064906018846040519262461bcd60e51b845260048401528201527711540e88125b98dbdc9c9958dd0811551208185b5bdd5b9d60421b6044820152fd5b9634610c1057610c0b8688998560075416903390614fef565b6109fb565b60405162461bcd60e51b815260048101839052602b818601527f45503a204e6f204554482073686f756c642062652073656e7420666f7220746f60448201526a1ad95b881cdd5c1c1bdc9d60aa1b6064820152608490fd5b60405162461bcd60e51b8152600481018890526018818501527711540e8814dd5c1c1bdc9d081c195c9a5bd908195b99195960421b6044820152606490fd5b634e487b7160e01b875260216004528387fd5b508681813d8311610ce9575b610cd08183614b9e565b81010312610b4857610ce461097c91614d8f565b610971565b503d610cc6565b6040513d88823e3d90fd5b92809294508391503d8311610d32575b610d158183614b9e565b8101031261087157839161094b610d2c8a93614d8f565b90610940565b503d610d0b565b5034610275576060366003190112610275576004356024359060443560018060a01b0380600854169060405191634d9b423560e11b83528460048401526020928381602481855afa8015610823578890611129575b610d9991501561508d565b84875260018352604087209060ff600c83015416600581101561111557610dc090156150ce565b60405163111a798960e31b81528481600481855afa801561110a5785918a916110d0575b5061103d575b50508515158061102f575b610dfe9061515f565b600481019082825416908115610fda578589949392610e266005610e3394015483101561519c565b8460075416903390614fef565b858352600284526040832033600052845260ff6040600020541615610fad575b85835260028452604083203360005284526040600020600160ff1982541617905585835260048452604083203360005284528660406000205581806007541691541690803b156105f8578584918993838a610ec6604051978896879586946395f4109560e01b8652339060048701614f41565b03925af1908115610634578391610f99575b505060048382600854166040519283809263406ad64560e11b82525afa908115610634578391610f7c575b501680610f2d575b5050604051938452830152600080516020615dbd83398151915260403393a380f35b803b156103b65760405163c228038d60e01b81529082908290818381610f598a8d338e60048601614fa9565b03925af180156105fc5715610f0b57610f7190614b54565b610b13578438610f0b565b610f939150843d861161062d5761061f8183614b9e565b38610f03565b610fa290614b54565b6103b6578138610ed8565b85835260058452610fc133604085206151d8565b338352600c8452610fd58660408520614ea0565b610e53565b60405162461bcd60e51b815260048101869052602760248201527f45503a2054686973206d61726b6574207573657320504550552c2075736520706044820152661b1858d950995d60ca1b6064820152608490fd5b506003810154861115610df5565b604051632eaa712b60e21b815291829060049082905afa9081156108235788916110a3575b506009820154603c820291808304603c149015171561108f576110889161078a9161510b565b3883610dea565b634e487b7160e01b89526011600452602489fd5b90508381813d83116110c9575b6110ba8183614b9e565b810103126107d2575138611062565b503d6110b0565b82819392503d8311611103575b6110e78183614b9e565b810103126110ff576110f98591614d8f565b38610de4565b8880fd5b503d6110dd565b6040513d8b823e3d90fd5b634e487b7160e01b89526021600452602489fd5b508381813d8311611158575b61113f8183614b9e565b8101031261081857611153610d9991614d8f565b610d8e565b503d611135565b503461027557604036600319011261027557611179614aaa565b90600435815260016020526040812060ff600c8201541660058110156115ad5760026111a5911461561a565b600d8101546111b5811515615659565b60043583526002602052604083209360018060a01b039485821660005260205260ff60406000205416156115725784600754166040516307c7a72d60e01b8152602081806112098660043560048401614f90565b0381855afa908115610cf0578691611538575b506114fd5785600485015416936040519463423e7bc160e11b86526020868061124c8488600435600485016152e2565b0381865afa9586156107de5787966114c9575b5060405163dc4ce34960e01b81529260208480611283858a60048035908501615695565b0381845afa938415610823578894611495575b50879260036001910154905b818111156113f45750506112d292916020916040518080968194634f44289d60e01b835260043560048401614f90565b03915afa9081156107de5787916113be575b6112ee9250614e50565b81611305575050505050602091505b604051908152f35b9394938061134257505060209460043584526004865260408420911660005284526040600020541460001461133b57505b6112fd565b90506112fd565b93929190949560043584526004602052604084209116600052602052604060002054146000146113b2576123288083029283040361139e575091611398611336926113936127106020960484614e27565b6156b6565b90614e50565b634e487b7160e01b81526011600452602490fd5b915050602091506112fd565b90506020823d6020116113ec575b816113d960209383614b9e565b810103126107d2576112ee9151906112e4565b3d91506113cc565b87810361140a575b61140590614e5d565b6112a2565b9360405163dc4ce34960e01b81526020818061142d888a60043560048501615695565b0381875afa90811561148a578b91611456575b5061144e9061140592614e50565b9490506113fc565b90506020813d602011611482575b8161147160209383614b9e565b810103126107d25751611405611440565b3d9150611464565b6040513d8d823e3d90fd5b9093506020813d6020116114c1575b816114b160209383614b9e565b810103126107d257519238611296565b3d91506114a4565b9095506020813d6020116114f5575b816114e560209383614b9e565b810103126107d25751943861125f565b3d91506114d8565b60405162461bcd60e51b815260206004820152601360248201527211540e88105b1c9958591e4818db185a5b5959606a1b6044820152606490fd5b90506020813d60201161156a575b8161155360209383614b9e565b81010312610b485761156490614d8f565b3861121c565b3d9150611546565b60405162461bcd60e51b815260206004820152601360248201527211540e88139bc81cdd185ad9481c1b1858d959606a1b6044820152606490fd5b634e487b7160e01b83526021600452602483fd5b50346102755760403660031901126102755761160a9060206115e1614aaa565b60018060a01b03600754166040518080968194633d1e7ba160e11b835260043560048401614f90565b03915afa9081156116585790611626575b602090604051908152f35b506020813d8211611650575b8161163f60209383614b9e565b810103126107d2576020905161161b565b3d9150611632565b604051903d90823e3d90fd5b50346102755760203660031901126102755780604091610260835161168881614b67565b8281526060602082015282858201528260608201528260808201528260a08201528260c08201528260e08201528261010082015282610120820152826101408201528261016082015282610180820152826101a0820152826101c0820152826101e0820152826102008201528261022082015282610240820152015260043581526001602052206040519061171c82614b67565b80546001600160a01b0316825261173560018201614c4d565b602083015260ff600282015416151560408301526003810154606083015260018060a01b036004820154166080830152600581015460a0830152600681015460c0830152600781015460e083015260088101546101008301526009810154610120830152600a810154610140830152600b81015461016083015260ff600c8201541660058110156119555760ff91601191610180850152600d8101546101a0850152600e81015483811615156101c08601526117fa848260081c166101e08701614e6c565b60018060a01b039060101c16610200850152600f8101546102208501526010810154610240850152015416151561026082015260405180916020825260018060a01b038151166020830152610260611863602083015161028060408601526102a0850190614cf3565b916040810151151560608501526060810151608085015260018060a01b0360808201511660a085015260a081015160c085015260c081015160e085015260e08101516101008501526101008101516101208501526101208101516101408501526101408101516101608501526101608101516101808501526118ef6101808201516101a0860190614d33565b6101a08101516101c08501526101c081015115156101e085015261191d6101e0820151610200860190614d40565b60018060a01b036102008201511661022085015261022081015161024085015261024081015182850152015115156102808301520390f35b634e487b7160e01b600052602160045260246000fd5b5034610275576020806003193601126103b6576004359061199b60018060a01b036102a881600854163314615ca3565b8183526001815260ff600c6040852001541660058110156103a257600203611b04576080600080516020615d5d83398151915291838552600181528460116040822082815582600182016119ef8154614c13565b80611ac4575b505060028201556000600382015582600482015560006005820155600060068201556000600782015560006008820155600060098201556000600a8201556000600b82015582600c8201556000600d82015582600e8201556000600f820155600060108201550155838552600b815260ff604086205416611ab6575b6026604051918083528201527f5065726d616e656e746c792072656d6f76656420616674657220636c61696d206040820152651c195c9a5bd960d21b6060820152a280f35b611abf84615be8565b611a71565b601f8111600114611ade575060009150555b8238806119f5565b90806000918452611afd601f898620940160051c840160018501614e78565b5555611ad6565b6064906040519062461bcd60e51b82526004820152601760248201527611540e8813585c9ad95d081b9bdd081c995cdbdb1d9959604a1b6044820152fd5b503461027557606036600319011261027557604435906001600160a01b0380831683036107d25761160a9260209160075416604051808096819463dc4ce34960e01b835260243560043560048501615695565b5034610275576040366003190112610275576040611bb1614aaa565b9160043581526004602052209060018060a01b03166000526020526020604060002054604051908152f35b503461027557611beb36614d4d565b91908152600560205260408120908154831015610275576020611c0e8484614b3c565b905460405160039290921b1c6001600160a01b03168152f35b503461027557606036600319011261027557602460043581356001600160401b0381116105f857366023820112156105f857611c6c9036908481600401359101614bdc565b60448035838652602094600186526040872092600e84015460ff8160081c166002811015611f6f576001611ca0911461538d565b60ff600c860154166005811015611f6f57611cca91611cc3600160ff9314615302565b161561533e565b600a8401544210611f3d57601184019460ff865416611f055784546001600160a01b039081163314611ec65780600d5416611d068115156153d1565b81600e541690611d1782151561540e565b86151580611eb8575b15611e8057918593918b8d9460405198898092634360af3d60e01b82528560048301525afa908115611e75578c978592611e39575b5081611d7981611d8993611d70611db399989796151561544d565b30903390614fef565b82600e541683600d5416906154a7565b600d54169360405197889687958694631a43338160e21b8652606060048701526064860190614cf3565b92339085015283015203925af1948515610cf0578695611e08575b5050601001839055805460ff191660011790557fc92f993487c6d961b60ff2a81386dff5cc620cd4aed9cddabe26500391655e828380a380f35b90809550813d8311611e32575b611e1f8183614b9e565b81010312610b1357601093519338611dce565b503d611e15565b9450929196905083813d8311611e6e575b611e548183614b9e565b810103126107d25791518a958c9392909190611d89611d55565b503d611e4a565b6040513d86823e3d90fd5b60405162461bcd60e51b8152600481018c90526012818801527122a81d1024b73b30b634b21037b83a34b7b760711b81870152606490fd5b506003880154871115611d20565b60405162461bcd60e51b8152600481018a90526019818601527811540e8810dc99585d1bdc8818d85b9b9bdd08185cdcd95c9d603a1b81850152606490fd5b60405162461bcd60e51b8152600481018990526012818501527145503a20417373657274696f6e206d61646560701b81840152606490fd5b6c45503a20546f6f206561726c7960981b8791600d6064946040519462461bcd60e51b86526004860152840152820152fd5b634e487b7160e01b8a526021600452838afd5b5034610275578060031936011261027557602060405161015e8152f35b50346102755760203660031901126102755760043580825260016020526040822080546001600160a01b0316330361208d5760ff600c8201541660058110156103a25790611fef600992156150ce565b015461a8bf1981019081116120795742101561203b576040516120389161201582614b83565b601182527010dc99585d1bdc8818d85b98d95b1b1959607a1b60208301526156d6565b80f35b60405162461bcd60e51b815260206004820152601660248201527511540e88151bdbc81b185d19481d1bc818d85b98d95b60521b6044820152606490fd5b634e487b7160e01b83526011600452602483fd5b60405162461bcd60e51b815260206004820152601b60248201527a11540e8813db9b1e4818dc99585d1bdc8818d85b8818d85b98d95b602a1b6044820152606490fd5b5034610275576120df36614d4d565b91908152600660205260408120908154831015610275576020611c0e8484614b3c565b50346102755760203660031901126102755761211c614ac0565b612124614d63565b6001600160a01b0316801561214a57600d80546001600160a01b03191691909117905580f35b60405162461bcd60e51b8152602060048201526024808201527f45503a20496e76616c6964204f7074696d69737469634f7261636c65206164646044820152637265737360e01b6064820152608490fd5b5034610275576020366003190112610275576121b5614ac0565b6121bd614d63565b6001600160a01b031680156121e357600880546001600160a01b03191691909117905580f35b60405162461bcd60e51b815260206004820152600c60248201526b22a81d102130b21030b2323960a11b6044820152606490fd5b503461027557602036600319011261027557600435815260016020819052604090912080546001600160a01b031691612251908201614c4d565b60e052600281015460ff16608052600381015461010052600160a01b600190036004820154169160058201546006830154600784015460088501546009860154600a87015490600b88015492600c89015460ff1694600d8a015496600e8b015498600f8c01549a60108d01549c6011015460ff1660a0526040518060c052526102808060c0516020015260c0510160e051906122ec91614cf3565b9c608051151560c051604001526101005160c0516060015260c0516080015260c05160a0015260c05160c0015260c05160e0015260c051610100015260c051610120015260c051610140015260c051610160015260c0516101800161235091614d33565b60c0516101a0015260ff8116151560c0516101c0015260c0516101e0018160081c60ff169061237e91614d40565b600160a01b600190039060101c1660c051610200015260c051610220015260c051610240015260a051151560c051610260015260c05180910390f35b5034610275576020366003190112610275576123d4614ac0565b6123dc614d63565b6001600160a01b0316801561240257600e80546001600160a01b03191691909117905580f35b60405162461bcd60e51b815260206004820152601960248201527845503a20496e76616c696420626f6e642063757272656e637960381b6044820152606490fd5b50346102755760203660031901126102755760406020916004358152600683522054604051908152f35b50346102755780600319360112610275576008546040516001600160a01b039091168152602090f35b5034610275576020806003193601126103b65760043590818352600181526040832090600e8201805460ff8160081c166002811015612704576126ca57600c84019081549060ff821660058110156111155760016124f49114615302565b61250160ff82161561533e565b600b860154421061268a57604051633fabe5a360e21b815288946001600160a01b0394939192919060a084600481601087901c8a165afa80156107de57879061263e575b600f8a015460029550116126335760ff600d60019a5b0199168955600160ff19809416179055161790556125788561571f565b60048382600854166040519283809263406ad64560e11b82525afa908115610634578391612616575b5016806125c6575b5050600080516020615d9d8339815191529154604051908152a280f35b8354813b1561261257829160448392604051948593849262ff4a7360e81b84528b600485015260248401525af180156105fc57156125a95761260790614b54565b6105f85783386125a9565b8280fd5b61262d9150843d861161062d5761061f8183614b9e565b386125a1565b60ff600d859a61255b565b5060a0843d8211612682575b8161265760a09383614b9e565b81010312610871578361266b600295615379565b5061267c60808a8301519201615379565b50612545565b3d915061264a565b60405162461bcd60e51b815260048101869052601860248201527745503a20546f6f206561726c7920746f207265736f6c766560401b6044820152606490fd5b60405162461bcd60e51b815260048101849052601260248201527111540e88139bdd081c1c9a58d9481999595960721b6044820152606490fd5b634e487b7160e01b87526021600452602487fd5b503461027557604036600319011261027557612732614ac0565b6001600160a01b03168152600c60205260408120805460243592908310156102755760206127608484614b3c565b90546040519160031b1c8152f35b5034610275578060031936011261027557546040516001600160a01b039091168152602090f35b50346102755761160a9060206127aa36614ad6565b60075460405163423e7bc160e11b81529687946001600160a01b039092169385938493909190600485016152e2565b5034610275576020366003190112610275576004358082526001602052604082209060ff600c8301541660058110156103a25760016128189114615302565b600b820154421061286f5761283760ff600e612038940154161561533e565b6040519061284482614b83565b601982527814995cdbdb1d5d1a5bdb881c195c9a5bd908195e1c1a5c9959603a1b60208301526156d6565b60405162461bcd60e51b815260206004820152601f60248201527f45503a205265736f6c7574696f6e20706572696f64206e6f7420656e646564006044820152606490fd5b50346102755780600319360112610275576128cd614d63565b600080546001600160a01b0319811682556001600160a01b0316600080516020615d7d8339815191528280a380f35b5034610275576020806003193601126103b6576004358252600581526040822060405192838383549182815201908193835284832090835b818110612991575050508461294a910385614b9e565b60405193838594850191818652518092526040850193925b82811061297157505050500390f35b83516001600160a01b031685528695509381019392810192600101612962565b82546001600160a01b031684529286019260019283019201612934565b5034610275576020806003193601126103b6576004358083526001825260408320600e810180549060ff8260081c1660028110156127045760016129f2911461538d565b612a0260ff601185015416615594565b612a0f60ff83161561533e565b6010830191825493612a228515156155d8565b600d546040805163e39dfd7f60e01b815260048101979097526001600160a01b0394918790602490829088165afa95861561110a5789908a97612c37575b5015612bf25785151580612be4575b15612b9f57600d820195865560ff199283166001179055600c0180549091166002179055612a9c8461571f565b6004868683600854166040519384809263406ad64560e11b82525afa928315612b9257869388938391612b75575b501680612b1b575b5050600080516020615d9d833981519152907f32736e1fe22a85082b71b7eb923b176a17df522ea8342ff5e24ce4b7e2019bbf9454604051908152a2549260405160018152a380f35b91509150835490803b156126125760448392604051948593849262ff4a7360e81b84528a600485015260248401525af1868115611658578592879215612ad257909250612b689150614b54565b610b135782848638612ad2565b612b8c9150843d861161062d5761061f8183614b9e565b38612aca565b50604051903d90823e3d90fd5b60405162461bcd60e51b815260048101899052601e60248201527f45503a20496e76616c6964206f7074696f6e2066726f6d206f7261636c6500006044820152606490fd5b506003820154861115612a6f565b60405162461bcd60e51b815260048101899052601d60248201527f45503a204f7261636c6520617373657274696f6e2072656a65637465640000006044820152606490fd5b9650506040863d604011612c6f575b81612c5360409383614b9e565b810103126110ff5787612c6587614d8f565b9601519538612a60565b3d9150612c46565b50346102755760209081600319360112610275576004359182825260018152604082209260ff600c8501541660058110156103a2576002612cb8911461561a565b600d84015491612cc9831515615659565b818452600281526040842033600052815260ff60406000205416156130a6576007546040516307c7a72d60e01b81526001600160a01b03918216949190838180612d17338960048401614f90565b0381895afa9081156107de578791613071575b5061303e57600487015416906040519063423e7bc160e11b8252838280612d5686338a600485016152e2565b0381895afa9182156107de57879261300f575b5060405163dc4ce34960e01b80825298858280612d8b88878c60048501615695565b03818b5afa91821561110a578992612fe0575b50889960036001920154915b82811115612f49575050604051634f44289d60e01b8152899594939291508a878280612dda898d60048401614f90565b03818d5afa9182156107de578792612f15575b5090612df891614e50565b81612e84575050505081945b803b1561261257858391612e319383604051809681958294632f0041ed60e11b8452338d60048601615271565b03925af180156105fc57612e70575b50507f5380cf6fe903b40c6d5a9e0dfbca2f3a423f0a21520b4d5947ed5169bdba946d906040519384523393a380f35b612e7990614b54565b6105f8578385612e40565b80612eb8575050858452600485526040842033600052855260406000205414600014612eb05794612e04565b508194612e04565b9187869294959652600487526040822033600052875260406000205414600014612f095750612328808202918204036107985791611398612f03926113936127108b97960484614e27565b94612e04565b93925050508194612e04565b88809298508193503d8311612f42575b612f2f8183614b9e565b810103126107d257518995612df8612ded565b503d612f25565b848103612f5f575b612f5a90614e5d565b612daa565b9a612f7e88888c8f8d604051958694859384938b855260048501615695565b03915afa908115612fd5578c91612fa6575b50612f9e90612f5a92614e50565b9b9050612f51565b90508881813d8311612fce575b612fbd8183614b9e565b810103126107d25751612f5a612f90565b503d612fb3565b6040513d8e823e3d90fd5b9091508581813d8311613008575b612ff88183614b9e565b810103126107d257519038612d9e565b503d612fee565b9091508381813d8311613037575b6130278183614b9e565b810103126107d257519038612d69565b503d61301d565b60405162461bcd60e51b815260048101849052600b60248201526a11540e8810db185a5b595960aa1b6044820152606490fd5b90508381813d831161309f575b6130888183614b9e565b810103126108715761309990614d8f565b38612d2a565b503d61307e565b6064906040519062461bcd60e51b82526004820152600c60248201526b45503a204e6f207374616b6560a01b6044820152fd5b50610180366003190112610275576004356001600160401b0381116103b657366023820112156103b657613117903690602481600401359101614bdc565b90602435151560243503610275576064356001600160a01b03811690036107d25760026101243510156102755761014435906001600160a01b03821682036107d257600854604051632b5ba3b960e01b81523360048201526001600160a01b0390911690602081602481855afa8015610634578390613e83575b61319c915015614d9c565b835115613e4b576002604435101580613e3e575b15613e035760843515613dca5760a43515613d8f5760c435151580613d81575b15613d46576101243515613cac575b6040516317916e0160e01b8152602081600481855afa908115610634578391613c7a575b5060e43510613c425760e4356101043510613c005760243515613b66576064356001600160a01b031615613b2257604051633462561360e11b81526064356001600160a01b0316600482015290602090829060249082905afa80156105fc578290613ae7575b6132739150614de1565b670de0b6b3a76400003410613aab57603c60e4350260e4358104603c1460e435151715613940576132a49042614e50565b9061010435603c610104350204603c146101043515171561139e576132cf603c610104350242614e50565b61012435613a955780915b600954946132e786614e5d565b600955604051906132f782614b67565b33825287602083015260243515156040830152604435606083015260018060a01b0360643516608083015260843560a083015260a43560c083015260c43560e08301524261010083015285610120830152836101408301528461016083015282610180830152826101a0830152826101c083015261337c610124356101e08401614e6c565b6001600160a01b0390811661020083015261016435610220830152610240820183905261026082018390528683526001602090815260408420835181546001600160a01b03191693169290921782558201518051919291906001600160401b038211613a815781906133f16001860154614c13565b601f8111613a43575b50602090601f83116001146139d45786926139c9575b50508160011b916000199060031b1c19161760018301555b61343b6040820151151560028401614e8f565b606081015160038301556004820160018060a01b0360808301511660018060a01b031982541617905560a0810151600583015560c0810151600683015560e0810151600783015561010081015160088301556101208101516009830155610140810151600a830155610160810151600b830155600c820161018082015160058110156139b55760ff801983541691161790556101a0810151600d830155600e82016134ed6101c0830151151582614e8f565b6101e082015160028110156139b5578154610200840151610100600160b01b031990911660089290921b61ff001691909117601091821b62010000600160b01b031617909155610220820151600f84015561024082015190830155610260015161355d9190151590601101614e8f565b600a54600160401b81101561399f57613597613580826001899401600a55614b0b565b819391549060031b91821b91600019901b19161790565b9055848152600b60205260408120805460ff191660011790556064356001600160a01b03166139545760a435670de0b6b3a76400000180670de0b6b3a7640000116139405734106139035761360c81808080670de0b6b3a764000060018060a01b038254165af1613606614ec6565b50614ef6565b8080808060a43560018060a01b03600754165af1613628614ec6565b50156138a6575b848152600260205260408120336000526020526040600020600160ff198254161790558481526004602052604081203360005260205260c435604060002055338152600c6020526136838560408320614ea0565b6007546001600160a01b0316803b156103b6578160405180926395f4109560e01b82528183816136c360c4358d60a4359060643590339060048701614f41565b03925af180156105fc57908291613892575b505060085460405163406ad64560e11b815290602090829060049082906001600160a01b03165afa9081156105fc578291613873575b506001600160a01b0381166137ad575b505060209484927f5d0726a1bb5ec8c87527e69ba86d988202e885fad8f2b4aacd618793d6f297b29261375b604051936101208552610120850190614cf3565b6024351515848a015260443560408501526064356001600160a01b0316606085015260843560808501524260a085015260c084019690965260e0830152610100820152339381900390a3604051908152f35b6001600160a01b0381163b156103b65760405163782a780560e11b81528281806137db338b60048401614f90565b0381836001600160a01b0387165af180156106345790839161385f575b50506001600160a01b0381163b156103b65760405163c228038d60e01b8152908290829081838161383360a43560c435338f60048601614fa9565b03926001600160a01b03165af180156105fc571561371b576138558291614b54565b610275578061371b565b61386890614b54565b6103b65781386137f8565b61388c915060203d60201161062d5761061f8183614b9e565b3861370b565b61389b90614b54565b6102755780386136d5565b60405162461bcd60e51b815260206004820152602f60248201527f45503a2043726561746f72206465706f736974207472616e7366657220746f2060448201526e151c99585cdd5c9e4819985a5b1959608a1b6064820152608490fd5b60405162461bcd60e51b815260206004820152601560248201527445503a20496e73756666696369656e74205045505560581b6044820152606490fd5b634e487b7160e01b82526011600452602482fd5b61397881808080670de0b6b3a764000060018060a01b038254165af1613606614ec6565b60075461399a9060a435906001600160a01b0390811690339060643516614fef565b61362f565b634e487b7160e01b600052604160045260246000fd5b634e487b7160e01b85526021600452602485fd5b015190503880613410565b9250600185018652602086209086935b601f1984168510613a28576001945083601f19811610613a0f575b505050811b016001830155613428565b015160001960f88460031b161c191690553880806139ff565b818101518355602094850194600190930192909101906139e4565b613a719060018701885260208820601f850160051c81019160208610613a77575b601f0160051c0190614e78565b386133fa565b9091508190613a64565b634e487b7160e01b85526041600452602485fd5b61c4e0810181116139405761c4e08101916132da565b60405162461bcd60e51b815260206004820152601460248201527345503a20496e73756666696369656e742066656560601b6044820152606490fd5b506020813d602011613b1a575b81613b0160209383614b9e565b810103126103b657613b1561327391614d8f565b613269565b3d9150613af4565b606460405162461bcd60e51b815260206004820152602060248201527f45503a204d756c74692d6f7074696f6e206e656564732050325020746f6b656e6044820152fd5b6064356001600160a01b0316613b7d575b50613273565b604051633462561360e11b81526064356001600160a01b0316600482015290602090829060249082905afa80156105fc578290613bc5575b613bbf9150614de1565b38613b77565b506020813d602011613bf8575b81613bdf60209383614b9e565b810103126103b657613bf3613bbf91614d8f565b613bb5565b3d9150613bd2565b60405162461bcd60e51b815260206004820152601a60248201527945503a205265736f6c7574696f6e206166746572207374616b6560301b6044820152606490fd5b60405162461bcd60e51b815260206004820152601060248201526f22a81d1026b4b710323ab930ba34b7b760811b6044820152606490fd5b90506020813d602011613ca4575b81613c9560209383614b9e565b810103126107d2575138613203565b3d9150613c88565b6001600160a01b03831615613d0757610164356131df5760405162461bcd60e51b815260206004820152601c60248201527b11540e88141c9a58d9481d1a1c995cda1bdb19081c995c5d5a5c995960221b6044820152606490fd5b60405162461bcd60e51b815260206004820152601760248201527611540e88141c9a58d94819995959081c995c5d5a5c9959604a1b6044820152606490fd5b60405162461bcd60e51b815260206004820152601360248201527245503a20496e76616c6964206f7574636f6d6560681b6044820152606490fd5b5060443560c43511156131d0565b60405162461bcd60e51b815260206004820152601360248201527211540e88125b9d985b1a590819195c1bdcda5d606a1b6044820152606490fd5b60405162461bcd60e51b815260206004820152601160248201527045503a20496e76616c6964207374616b6560781b6044820152606490fd5b60405162461bcd60e51b815260206004820152601360248201527245503a20496e76616c6964206f7074696f6e7360681b6044820152606490fd5b50600a60443511156131b0565b60405162461bcd60e51b815260206004820152601060248201526f08aa0744092dcecc2d8d2c840d0c2e6d60831b6044820152606490fd5b506020813d602011613eb6575b81613e9d60209383614b9e565b8101031261261257613eb161319c91614d8f565b613191565b3d9150613e90565b50346102755780600319360112610275576007546040516001600160a01b039091168152602090f35b5034610275576020806003193601126103b657600435808352600182526040832091600e8301549260ff8460081c1660028110156140b85760ff91613f3060016010931461538d565b613f3f83601183015416615594565b0193613f4d855415156155d8565b1661407d57600d5484916001600160a01b03918216613f6d8115156153d1565b60248284600e541692613f8184151561540e565b60405192838092634360af3d60e01b82528660048301525afa92831561407257859361403c575b505090611d7981613fbe93611d7082151561544d565b600d54168354813b1561261257829160448392604051948593849263a6a22b4360e01b845260048401523360248401525af180156105fc57614028575b5050339154907f8764c70ba5e4ae969c50093a5cb46e29238fb82e4b7eb17d22a8102996b01c8a8480a480f35b61403190614b54565b612612578238613ffb565b809295508193503d831161406b575b6140558183614b9e565b810103126107d257518592611d79613fbe613fa8565b503d61404b565b6040513d87823e3d90fd5b6064906040519062461bcd60e51b82526004820152601460248201527311540e88105b1c9958591e481c995cdbdb1d995960621b6044820152fd5b634e487b7160e01b86526021600452602486fd5b5034610275576020806003193601126103b65760043580835260018252604083209160ff600c8401541660058110156139b5576003036143e957818452600281526040842033600052815260ff6040600020541680156143c9575b1561438c578392828552600282526040852033600052825260ff604060002054166142f1575b828552600382526040852033600052825260ff60406000205416614249575b831561420a5760075460049091015485916001600160a01b039182169116803b15612612578583916141b7938360405180968195829463164fcd7d60e21b8452338d60048601615271565b03925af180156105fc576141f6575b50507ff3f402280ef0a7905e124aa621b65eaeb2725c343e8b36d398ed78c29daf285c906040519384523393a380f35b6141ff90614b54565b6105f85783386141c6565b60405162461bcd60e51b815260048101839052601760248201527645503a204e6f20726566756e6420617661696c61626c6560481b6044820152606490fd5b92614280908260018060a01b0380600754169060048801541690604051808096819463256ba74160e01b8352338b600485016152e2565b03915afa908115610cf05786916142c0575b61429c9250614e50565b928285526003825260408520336000528252604060002060ff19815416905561416c565b90508282813d83116142ea575b6142d78183614b9e565b810103126107d25761429c915190614292565b503d6142cd565b92506143288160018060a01b0380600754169060048701541690604051808095819463423e7bc160e11b8352338a600485016152e2565b03915afa90811561407257859161435f575b50928285526002825260408520336000528252604060002060ff19815416905561414d565b90508181813d8311614385575b6143768183614b9e565b810103126107d257513861433a565b503d61436c565b6064906040519062461bcd60e51b82526004820152601660248201527511540e88139bc81cdd185ad9481d1bc81c99599d5b9960521b6044820152fd5b50818452600381526040842033600052815260ff60406000205416614127565b6064906040519062461bcd60e51b82526004820152601860248201527711540e8813585c9ad95d081b9bdd0818d85b98d95b1b195960421b6044820152fd5b50346102755760203660031901126102755760043580825260016020526040822060ff600e82015460081c1660028110156103a2579061446c60016010931461538d565b61447c60ff601183015416615594565b0182815461448b8115156155d8565b600d546001600160a01b031690813b15612612578291602483926040519485938492634124beef60e01b845260048401525af180156105fc576144f4575b505054907f049c1c3eca1ffdb1b59f7205ce06f2461ace420050f9ad1b4b6b55f4a0f2e5268380a380f35b6144fd90614b54565b6126125782386144c9565b503461027557806003193601126102755760206040516101f48152f35b50346102755760403660031901126102755761160a906020614545614aaa565b60018060a01b03600754166040518080968194634f44289d60e01b835260043560048401614f90565b50346102755780600319360112610275576020600954604051908152f35b5034610275576020806003193601126103b6576004358083526001825260408320600383526040842033855283526145ca60ff604086205416615299565b60ff600c8201541660058110156139b5578061475e5750600981015461a8bf19810190811161474a574210156146ea575b8360018060a01b036004816007541693015416916040519063256ba74160e01b825285828061462f87338a600485016152e2565b0381845afa9182156106345783926146bb575b5061464e821515615299565b803b156126125761467893836040518096819582946317be0b2f60e11b8452338b60048601615271565b03925af18015611e75576146a8575b5082526003815260408220903360005252604060002060ff19815416905580f35b6146b490939193614b54565b9138614687565b9091508581813d83116146e3575b6146d38183614b9e565b8101031261261257519038614642565b503d6146c9565b60405162461bcd60e51b815260048101849052603260248201527f45503a2043616e6e6f742077697468647261772077697468696e20313220686f6044820152711d5c9cc81bd9881cdd185ada5b99c8195b9960721b6064820152608490fd5b634e487b7160e01b85526011600452602485fd5b600481149081156147c8575b506145fb5760405162461bcd60e51b815260048101849052602b60248201527f45503a2043616e6e6f7420776974686472617720696e2063757272656e74206d60448201526a61726b657420737461746560a81b6064820152608490fd5b60039150143861476a565b50346102755760203660031901126102755760043590600a5482101561027557602061276083614b0b565b50346102755760403660031901126102755760ff604060209261481f614aaa565b6004358252600285528282206001600160a01b03909116825284522054604051911615158152f35b50346102755780600319360112610275576020604051670de0b6b3a76400008152f35b50346102755760403660031901126102755760ff604060209261488b614aaa565b6004358252600385528282206001600160a01b03909116825284522054604051911615158152f35b5034610275576148f660206148c736614ad6565b60075460405163256ba74160e01b81529586946001600160a01b039092169385938493909190600485016152e2565b03915afa9081156105fc578291614913575b602082604051908152f35b90506020813d8211614940575b8161492d60209383614b9e565b810103126103b657602091505138614908565b3d9150614920565b5034610275578060031936011261027557600d546040516001600160a01b039091168152602090f35b5034610275578060031936011261027557600e546040516001600160a01b039091168152602090f35b503461027557602036600319011261027557600435808252600160205260408220600c81019081549060ff821660058110156140b857906149dd600a92156150ce565b01544210614a0f5760ff19166001179055808252600b602052604082205460ff16614a06575080f35b61203890615be8565b60405162461bcd60e51b815260206004820152601f60248201527f45503a205265736f6c7574696f6e2074696d65206e6f742072656163686564006044820152606490fd5b50346102755760203660031901126102755760ff60406020926004358152600b84522054166040519015158152f35b9050346103b65760203660031901126103b657604060209260043581526005845220548152f35b602435906001600160a01b03821682036107d257565b600435906001600160a01b03821682036107d257565b60609060031901126107d257600435906001600160a01b039060243582811681036107d2579160443590811681036107d25790565b600a54811015614b2657600a60005260206000200190600090565b634e487b7160e01b600052603260045260246000fd5b8054821015614b265760005260206000200190600090565b6001600160401b03811161399f57604052565b61028081019081106001600160401b0382111761399f57604052565b604081019081106001600160401b0382111761399f57604052565b601f909101601f19168101906001600160401b0382119082101761399f57604052565b6001600160401b03811161399f57601f01601f191660200190565b929192614be882614bc1565b91614bf66040519384614b9e565b8294818452818301116107d2578281602093846000960137010152565b90600182811c92168015614c43575b6020831014614c2d57565b634e487b7160e01b600052602260045260246000fd5b91607f1691614c22565b9060405191826000825492614c6184614c13565b908184526001948581169081600014614cd05750600114614c8d575b5050614c8b92500383614b9e565b565b9093915060005260209081600020936000915b818310614cb8575050614c8b93508201013880614c7d565b85548884018501529485019487945091830191614ca0565b915050614c8b94506020925060ff191682840152151560051b8201013880614c7d565b919082519283825260005b848110614d1f575050826000602080949584010152601f8019910116010190565b602081830181015184830182015201614cfe565b9060058210156119555752565b9060028210156119555752565b60409060031901126107d2576004359060243590565b6000546001600160a01b03163303614d7757565b60405163118cdaa760e01b8152336004820152602490fd5b519081151582036107d257565b15614da357565b60405162461bcd60e51b815260206004820152601660248201527511540e8815d85b1b195d08189b1858dadb1a5cdd195960521b6044820152606490fd5b15614de857565b60405162461bcd60e51b815260206004820152601760248201527611540e88151bdad95b881b9bdd081cdd5c1c1bdc9d1959604a1b6044820152606490fd5b81810292918115918404141715614e3a57565b634e487b7160e01b600052601160045260246000fd5b91908201809211614e3a57565b6000198114614e3a5760010190565b60028210156119555752565b818110614e83575050565b60008155600101614e78565b9060ff801983541691151516179055565b805490600160401b82101561399f5781613580916001614ec294018155614b3c565b9055565b3d15614ef1573d90614ed782614bc1565b91614ee56040519384614b9e565b82523d6000602084013e565b606090565b15614efd57565b606460405162461bcd60e51b815260206004820152602060248201527f45503a20466565207472616e7366657220746f206f776e6572206661696c65646044820152fd5b9081526001600160a01b039182166020820152911660408201526060810191909152608081019190915260a00190565b908160209103126107d257516001600160a01b03811681036107d25790565b9081526001600160a01b03909116602082015260400190565b909493926060926080830196835260018060a01b0316602083015260408201520152565b6001600160a01b03918216815291166020820152604081019190915260600190565b9061502590615017614c8b956040519586936323b872dd60e01b602086015260248501614fcd565b03601f198101845283614b9e565b906000602091828151910182855af115615081576000513d61507857506001600160a01b0381163b155b6150565750565b604051635274afe760e01b81526001600160a01b039091166004820152602490fd5b6001141561504f565b6040513d6000823e3d90fd5b1561509457565b60405162461bcd60e51b815260206004820152601260248201527111540e8813585c9ad95d0819195b195d195960721b6044820152606490fd5b156150d557565b60405162461bcd60e51b815260206004820152600e60248201526d45503a204e6f742061637469766560901b6044820152606490fd5b91908203918211614e3a57565b1561511f57565b60405162461bcd60e51b815260206004820152601860248201527711540e8814dd185ada5b99c81c195c9a5bd908195b99195960421b6044820152606490fd5b1561516657565b60405162461bcd60e51b815260206004820152600e60248201526d22a81d102130b21037b83a34b7b760911b6044820152606490fd5b156151a357565b60405162461bcd60e51b815260206004820152600d60248201526c22a81d102132b637bb9036b4b760991b6044820152606490fd5b8054600160401b81101561399f576151f591600182018155614b3c565b819291549060031b9160018060a01b03809116831b921b1916179055565b1561521a57565b60405162461bcd60e51b815260206004820152602960248201527f45503a20537570706f727420616d6f756e74206d75737420626520677265617460448201526806572207468616e20360bc1b6064820152608490fd5b9081526001600160a01b03918216602082015291166040820152606081019190915260800190565b156152a057565b60405162461bcd60e51b815260206004820152601a60248201527945503a204e6f20737570706f727420746f20776974686472617760301b6044820152606490fd5b9081526001600160a01b0391821660208201529116604082015260600190565b1561530957565b60405162461bcd60e51b815260206004820152600d60248201526c11540e88139bdd08195b991959609a1b6044820152606490fd5b1561534557565b60405162461bcd60e51b815260206004820152600c60248201526b11540e8814995cdbdb1d995960a21b6044820152606490fd5b51906001600160501b03821682036107d257565b1561539457565b60405162461bcd60e51b815260206004820152601560248201527445503a204e6f74205032504f5054494d495354494360581b6044820152606490fd5b156153d857565b60405162461bcd60e51b815260206004820152600e60248201526d11540e8813d3c81b9bdd081cd95d60921b6044820152606490fd5b1561541557565b60405162461bcd60e51b815260206004820152601060248201526f11540e88109bdb99081b9bdd081cd95d60821b6044820152606490fd5b1561545457565b60405162461bcd60e51b815260206004820152601060248201526f11540e88125b9d985b1a5908189bdb9960821b6044820152606490fd5b6001600160a01b039091168152602081019190915260400190565b9291926040519160208301906154de846154d063095ea7b360e01b98898652846024840161548c565b03601f198101865285614b9e565b60206000809386519082875af182513d8261556f575b505015615504575b505050509050565b60405160208101969096526001600160a01b031660248601526044808601829052855260808501906001600160401b0382118683101761555b575061555193946150259160405282615025565b80388080806154fc565b634e487b7160e01b81526041600452602490fd5b90915061558c57506001600160a01b0383163b15155b38806154f4565b600114615585565b1561559b57565b60405162461bcd60e51b815260206004820152601560248201527445503a204e6f20617373657274696f6e206d61646560581b6044820152606490fd5b156155df57565b60405162461bcd60e51b815260206004820152601360248201527211540e88139bc8185cdcd95c9d1a5bdb881251606a1b6044820152606490fd5b1561562157565b60405162461bcd60e51b815260206004820152601060248201526f11540e88139bdd081c995cdbdb1d995960821b6044820152606490fd5b1561566057565b60405162461bcd60e51b815260206004820152600d60248201526c22a81d102737903bb4b73732b960991b6044820152606490fd5b90815260208101919091526001600160a01b03909116604082015260600190565b81156156c0570490565b634e487b7160e01b600052601260045260246000fd5b9061571a600080516020615d5d83398151915291836000526001602052600c604060002001600360ff19825416179055604051918291602083526020830190614cf3565b0390a2565b60009080825260206001815260409182842090849160016003820154600d830154915b81811115615b3a575050600754600483810180548951634f44289d60e01b81526001600160a01b03999298939792948a1693918a1692918582806157898787838f01614f90565b0381885afa918215615b30579189918d97969594938f92615aed575b50916157cf856157b786948a96614e50565b995163dc4ce34960e01b81529a8b9485948501615695565b0381865afa958615615ab0578c96615aba575b508382615802928d519384928392633d1e7ba160e11b84528d8401614f90565b0381865afa938415615ab0578c94615a80575b505061015e9384840284159585820414861715615a6d57612710809104956101f49081870291878304141715615a5a57049561595c575050506158629061585c8484614e50565b9061510b565b92816158ef575b50509061587591614e50565b9283615884575b505050505050565b806007541692541690823b15610b4857918493918680946158b897519788958694859363f0824f3360e01b8552840161548c565b03925af19081156158e657506158d2575b8080808061587c565b6158dc8291614b54565b61027557806158c9565b513d84823e3d90fd5b8680600754169154168787541690823b15615958579161592893918b80948c519687958694859363112cd22360e01b85528d8501614fcd565b03925af1801561594e57908891156158695761594390614b54565b610871578638615869565b87513d8a823e3d90fd5b8a80fd5b909250979490929397615976575b50505050505050505050565b8490846159f4575b505050505083615992575b8080808061596a565b806007541692541690823b15610b4857918493918680946159c69751978895869485936348fef59560e01b8552840161548c565b03925af19081156158e657506159e0575b80808080615989565b6159ea8291614b54565b61027557806159d7565b5416823b15615a565791615a2193918a80948b519687958694859363112cd22360e01b85528c8501614fcd565b03925af18015615a4c57615a39575b8080838161597e565b615a4590969196614b54565b9438615a30565b86513d89823e3d90fd5b8980fd5b634e487b7160e01b8e5260118a5260248efd5b634e487b7160e01b8d526011895260248dfd5b9080929450813d8311615aa9575b615a988183614b9e565b810103126159585751913880615815565b503d615a8e565b8b513d8e823e3d90fd5b9095508381813d8311615ae6575b615ad28183614b9e565b81010312615ae2575194836157e2565b8b80fd5b503d615ac8565b9250929394959650508581813d8311615b29575b615b0b8183614b9e565b81010312615b2557518b95949392918991906157cf6157a5565b8c80fd5b503d615b01565b8c513d8f823e3d90fd5b828103615b50575b615b4b90614e5d565b615742565b9487878760018060a01b0388816007541691615b87600491828c01541696519687958694859463dc4ce34960e01b86528501615695565b03915afa908115615bde578a91615baf575b50615ba790615b4b92614e50565b959050615b42565b90508781813d8311615bd7575b615bc68183614b9e565b81010312615a565751615b4b615b99565b503d615bbc565b89513d8c823e3d90fd5b60005b600a9081549182821015615c9d578392615c0483614b0b565b949054600395861b1c14615c23575050615c1e9150614e5d565b615beb565b909160001991828101908111614e3a57613580615c42615c4e92614b0b565b905490871b1c92614b0b565b905581548015615c8757810192615c6484614b0b565b81939154921b1b1916905555600052600b602052604060002060ff198154169055565b634e487b7160e01b600052603160045260246000fd5b50505050565b15615caa57565b60405162461bcd60e51b815260206004820152601560248201527422a81d1027b7363c9020b236b4b726b0b730b3b2b960591b6044820152606490fd5b15615cee57565b60405162461bcd60e51b815260206004820152600a60248201526911540e8810985908125160b21b6044820152606490fd5b15615d2757565b60405162461bcd60e51b815260206004820152600d60248201526c11540e88139bc81b585c9ad95d609a1b6044820152606490fdfe4c4561c5b0048424071c1115e9f1e325486e21c21333d968f21097b7b72d12ad8be0079c531659141344cd1fd0a4f28419497f9722a3daafe3b4186f6b6457e06dfc24f0f2fb42e49fb4fa3ffa8abb148cab908a1fb8335b3f128a08b2594af1e10fdde2c5cd9b92e449ee25df01febda2cbebc5553e38f2250ffe7f2d5143bca164736f6c6343000814000a",
  "linkReferences": {},
  "deployedLinkReferences": {}
}