{
  "_format": "hh-sol-artifact-1",
  "contractName": "EventPool",
  "sourceName": "contracts/P2PMarketManager.sol",
  "abi": [
    {
      "inputs": [
        {
          "internalType": "address",
          "name": "initialOwner",
          "type": "address"
        },
        {
          "internalType": "address payable",
          "name": "_treasury",
          "type": "address"
        },
        {
          "internalType": "address",
          "name": "_verification",
          "type": "address"
        },
        {
          "internalType": "address",
          "name": "_analytics",
          "type": "address"
        },
        {
          "internalType": "uint256",
          "name": "_marketCreationFee",
          "type": "uint256"
        }
      ],
      "stateMutability": "nonpayable",
      "type": "constructor"
    },
    {
      "inputs": [
        {
          "internalType": "address",
          "name": "owner",
          "type": "address"
        }
      ],
      "name": "OwnableInvalidOwner",
      "type": "error"
    },
    {
      "inputs": [
        {
          "internalType": "address",
          "name": "account",
          "type": "address"
        }
      ],
      "name": "OwnableUnauthorizedAccount",
      "type": "error"
    },
    {
      "inputs": [
        {
          "internalType": "address",
          "name": "token",
          "type": "address"
        }
      ],
      "name": "SafeERC20FailedOperation",
      "type": "error"
    },
    {
      "anonymous": false,
      "inputs": [
        {
          "indexed": true,
          "internalType": "uint256",
          "name": "marketId",
          "type": "uint256"
        },
        {
          "indexed": false,
          "internalType": "string",
          "name": "reason",
          "type": "string"
        }
      ],
      "name": "MarketCancelled",
      "type": "event"
    },
    {
      "anonymous": false,
      "inputs": [
        {
          "indexed": true,
          "internalType": "uint256",
          "name": "marketId",
          "type": "uint256"
        },
        {
          "indexed": true,
          "internalType": "address",
          "name": "creator",
          "type": "address"
        },
        {
          "indexed": false,
          "internalType": "string",
          "name": "ipfsHash",
          "type": "string"
        },
        {
          "indexed": false,
          "internalType": "bool",
          "name": "isMultiOption",
          "type": "bool"
        },
        {
          "indexed": false,
          "internalType": "uint256",
          "name": "maxOptions",
          "type": "uint256"
        },
        {
          "indexed": false,
          "internalType": "address",
          "name": "paymentToken",
          "type": "address"
        },
        {
          "indexed": false,
          "internalType": "uint256",
          "name": "minStake",
          "type": "uint256"
        },
        {
          "indexed": false,
          "internalType": "uint256",
          "name": "startTime",
          "type": "uint256"
        },
        {
          "indexed": false,
          "internalType": "uint256",
          "name": "stakeEndTime",
          "type": "uint256"
        },
        {
          "indexed": false,
          "internalType": "uint256",
          "name": "endTime",
          "type": "uint256"
        },
        {
          "indexed": false,
          "internalType": "uint256",
          "name": "resolutionEndTime",
          "type": "uint256"
        }
      ],
      "name": "MarketCreated",
      "type": "event"
    },
    {
      "anonymous": false,
      "inputs": [
        {
          "indexed": true,
          "internalType": "uint256",
          "name": "marketId",
          "type": "uint256"
        },
        {
          "indexed": false,
          "internalType": "uint256",
          "name": "winningOption",
          "type": "uint256"
        }
      ],
      "name": "MarketResolved",
      "type": "event"
    },
    {
      "anonymous": false,
      "inputs": [
        {
          "indexed": true,
          "internalType": "address",
          "name": "previousOwner",
          "type": "address"
        },
        {
          "indexed": true,
          "internalType": "address",
          "name": "newOwner",
          "type": "address"
        }
      ],
      "name": "OwnershipTransferred",
      "type": "event"
    },
    {
      "anonymous": false,
      "inputs": [
        {
          "indexed": true,
          "internalType": "uint256",
          "name": "marketId",
          "type": "uint256"
        },
        {
          "indexed": true,
          "internalType": "address",
          "name": "user",
          "type": "address"
        },
        {
          "indexed": false,
          "internalType": "uint256",
          "name": "amount",
          "type": "uint256"
        }
      ],
      "name": "RefundClaimed",
      "type": "event"
    },
    {
      "anonymous": false,
      "inputs": [
        {
          "indexed": true,
          "internalType": "uint256",
          "name": "marketId",
          "type": "uint256"
        },
        {
          "indexed": true,
          "internalType": "address",
          "name": "user",
          "type": "address"
        },
        {
          "indexed": false,
          "internalType": "uint256",
          "name": "option",
          "type": "uint256"
        },
        {
          "indexed": false,
          "internalType": "uint256",
          "name": "amount",
          "type": "uint256"
        }
      ],
      "name": "StakePlaced",
      "type": "event"
    },
    {
      "anonymous": false,
      "inputs": [
        {
          "indexed": true,
          "internalType": "uint256",
          "name": "marketId",
          "type": "uint256"
        },
        {
          "indexed": true,
          "internalType": "address",
          "name": "user",
          "type": "address"
        },
        {
          "indexed": false,
          "internalType": "uint256",
          "name": "amount",
          "type": "uint256"
        }
      ],
      "name": "WinningsClaimed",
      "type": "event"
    },
    {
      "inputs": [
        {
          "internalType": "uint256",
          "name": "",
          "type": "uint256"
        }
      ],
      "name": "activeMarkets",
      "outputs": [
        {
          "internalType": "uint256",
          "name": "",
          "type": "uint256"
        }
      ],
      "stateMutability": "view",
      "type": "function"
    },
    {
      "inputs": [
        {
          "internalType": "address",
          "name": "token",
          "type": "address"
        },
        {
          "internalType": "string",
          "name": "symbol",
          "type": "string"
        }
      ],
      "name": "addSupportedToken",
      "outputs": [],
      "stateMutability": "nonpayable",
      "type": "function"
    },
    {
      "inputs": [],
      "name": "analytics",
      "outputs": [
        {
          "internalType": "address",
          "name": "",
          "type": "address"
        }
      ],
      "stateMutability": "view",
      "type": "function"
    },
    {
      "inputs": [
        {
          "internalType": "uint256",
          "name": "marketId",
          "type": "uint256"
        }
      ],
      "name": "autoResolve",
      "outputs": [],
      "stateMutability": "nonpayable",
      "type": "function"
    },
    {
      "inputs": [],
      "name": "bettingRestrictionEnabled",
      "outputs": [
        {
          "internalType": "bool",
          "name": "",
          "type": "bool"
        }
      ],
      "stateMutability": "view",
      "type": "function"
    },
    {
      "inputs": [],
      "name": "bettingRestrictionMinutes",
      "outputs": [
        {
          "internalType": "uint256",
          "name": "",
          "type": "uint256"
        }
      ],
      "stateMutability": "view",
      "type": "function"
    },
    {
      "inputs": [
        {
          "internalType": "uint256",
          "name": "",
          "type": "uint256"
        }
      ],
      "name": "blacklistedAddresses",
      "outputs": [
        {
          "internalType": "address",
          "name": "",
          "type": "address"
        }
      ],
      "stateMutability": "view",
      "type": "function"
    },
    {
      "inputs": [
        {
          "internalType": "address",
          "name": "",
          "type": "address"
        }
      ],
      "name": "blacklistedWallets",
      "outputs": [
        {
          "internalType": "bool",
          "name": "",
          "type": "bool"
        }
      ],
      "stateMutability": "view",
      "type": "function"
    },
    {
      "inputs": [
        {
          "internalType": "uint256",
          "name": "marketId",
          "type": "uint256"
        },
        {
          "internalType": "address",
          "name": "user",
          "type": "address"
        }
      ],
      "name": "calculateWinnings",
      "outputs": [
        {
          "internalType": "uint256",
          "name": "",
          "type": "uint256"
        }
      ],
      "stateMutability": "view",
      "type": "function"
    },
    {
      "inputs": [
        {
          "internalType": "uint256",
          "name": "marketId",
          "type": "uint256"
        }
      ],
      "name": "cancelMarket",
      "outputs": [],
      "stateMutability": "nonpayable",
      "type": "function"
    },
    {
      "inputs": [
        {
          "internalType": "uint256",
          "name": "marketId",
          "type": "uint256"
        }
      ],
      "name": "claimRefund",
      "outputs": [],
      "stateMutability": "nonpayable",
      "type": "function"
    },
    {
      "inputs": [
        {
          "internalType": "uint256",
          "name": "marketId",
          "type": "uint256"
        }
      ],
      "name": "claimWinnings",
      "outputs": [],
      "stateMutability": "nonpayable",
      "type": "function"
    },
    {
      "inputs": [
        {
          "internalType": "string",
          "name": "ipfsHash",
          "type": "string"
        },
        {
          "internalType": "bool",
          "name": "isMultiOption",
          "type": "bool"
        },
        {
          "internalType": "uint256",
          "name": "maxOptions",
          "type": "uint256"
        },
        {
          "internalType": "address",
          "name": "paymentToken",
          "type": "address"
        },
        {
          "internalType": "uint256",
          "name": "minStake",
          "type": "uint256"
        },
        {
          "internalType": "uint256",
          "name": "creatorDeposit",
          "type": "uint256"
        },
        {
          "internalType": "uint256",
          "name": "creatorOutcome",
          "type": "uint256"
        },
        {
          "internalType": "uint256",
          "name": "stakeDurationMinutes",
          "type": "uint256"
        },
        {
          "internalType": "uint256",
          "name": "resolutionDurationMinutes",
          "type": "uint256"
        }
      ],
      "name": "createMarket",
      "outputs": [
        {
          "internalType": "uint256",
          "name": "",
          "type": "uint256"
        }
      ],
      "stateMutability": "payable",
      "type": "function"
    },
    {
      "inputs": [
        {
          "internalType": "uint256",
          "name": "marketId",
          "type": "uint256"
        }
      ],
      "name": "creatorCancelMarket",
      "outputs": [],
      "stateMutability": "nonpayable",
      "type": "function"
    },
    {
      "inputs": [
        {
          "internalType": "uint256",
          "name": "marketId",
          "type": "uint256"
        },
        {
          "internalType": "string",
          "name": "reason",
          "type": "string"
        }
      ],
      "name": "deleteMarket",
      "outputs": [],
      "stateMutability": "nonpayable",
      "type": "function"
    },
    {
      "inputs": [
        {
          "internalType": "uint256",
          "name": "",
          "type": "uint256"
        }
      ],
      "name": "deletedMarkets",
      "outputs": [
        {
          "internalType": "uint256",
          "name": "",
          "type": "uint256"
        }
      ],
      "stateMutability": "view",
      "type": "function"
    },
    {
      "inputs": [
        {
          "internalType": "uint256",
          "name": "",
          "type": "uint256"
        }
      ],
      "name": "deletionTimestamp",
      "outputs": [
        {
          "internalType": "uint256",
          "name": "",
          "type": "uint256"
        }
      ],
      "stateMutability": "view",
      "type": "function"
    },
    {
      "inputs": [
        {
          "internalType": "uint256",
          "name": "marketId",
          "type": "uint256"
        }
      ],
      "name": "endMarket",
      "outputs": [],
      "stateMutability": "nonpayable",
      "type": "function"
    },
    {
      "inputs": [],
      "name": "getActiveMarketCount",
      "outputs": [
        {
          "internalType": "uint256",
          "name": "",
          "type": "uint256"
        }
      ],
      "stateMutability": "view",
      "type": "function"
    },
    {
      "inputs": [],
      "name": "getActiveMarkets",
      "outputs": [
        {
          "internalType": "uint256[]",
          "name": "",
          "type": "uint256[]"
        }
      ],
      "stateMutability": "view",
      "type": "function"
    },
    {
      "inputs": [],
      "name": "getAllMarketIds",
      "outputs": [
        {
          "internalType": "uint256[]",
          "name": "",
          "type": "uint256[]"
        }
      ],
      "stateMutability": "view",
      "type": "function"
    },
    {
      "inputs": [],
      "name": "getBlacklistedAddresses",
      "outputs": [
        {
          "internalType": "address[]",
          "name": "",
          "type": "address[]"
        }
      ],
      "stateMutability": "view",
      "type": "function"
    },
    {
      "inputs": [],
      "name": "getDeletedMarkets",
      "outputs": [
        {
          "internalType": "uint256[]",
          "name": "",
          "type": "uint256[]"
        }
      ],
      "stateMutability": "view",
      "type": "function"
    },
    {
      "inputs": [
        {
          "internalType": "uint256",
          "name": "marketId",
          "type": "uint256"
        }
      ],
      "name": "getMarket",
      "outputs": [
        {
          "components": [
            {
              "internalType": "address",
              "name": "creator",
              "type": "address"
            },
            {
              "internalType": "string",
              "name": "ipfsHash",
              "type": "string"
            },
            {
              "internalType": "bool",
              "name": "isMultiOption",
              "type": "bool"
            },
            {
              "internalType": "uint256",
              "name": "maxOptions",
              "type": "uint256"
            },
            {
              "internalType": "address",
              "name": "paymentToken",
              "type": "address"
            },
            {
              "internalType": "uint256",
              "name": "minStake",
              "type": "uint256"
            },
            {
              "internalType": "uint256",
              "name": "creatorDeposit",
              "type": "uint256"
            },
            {
              "internalType": "uint256",
              "name": "creatorOutcome",
              "type": "uint256"
            },
            {
              "internalType": "uint256",
              "name": "startTime",
              "type": "uint256"
            },
            {
              "internalType": "uint256",
              "name": "stakeEndTime",
              "type": "uint256"
            },
            {
              "internalType": "uint256",
              "name": "endTime",
              "type": "uint256"
            },
            {
              "internalType": "uint256",
              "name": "resolutionEndTime",
              "type": "uint256"
            },
            {
              "internalType": "enum EventPool.MarketState",
              "name": "state",
              "type": "uint8"
            },
            {
              "internalType": "uint256",
              "name": "winningOption",
              "type": "uint256"
            },
            {
              "internalType": "bool",
              "name": "isResolved",
              "type": "bool"
            }
          ],
          "internalType": "struct EventPool.Market",
          "name": "",
          "type": "tuple"
        }
      ],
      "stateMutability": "view",
      "type": "function"
    },
    {
      "inputs": [
        {
          "internalType": "uint256",
          "name": "marketId",
          "type": "uint256"
        }
      ],
      "name": "getMarketInfo",
      "outputs": [
        {
          "components": [
            {
              "internalType": "address",
              "name": "creator",
              "type": "address"
            },
            {
              "internalType": "string",
              "name": "ipfsHash",
              "type": "string"
            },
            {
              "internalType": "bool",
              "name": "isMultiOption",
              "type": "bool"
            },
            {
              "internalType": "uint256",
              "name": "maxOptions",
              "type": "uint256"
            },
            {
              "internalType": "address",
              "name": "paymentToken",
              "type": "address"
            },
            {
              "internalType": "uint256",
              "name": "minStake",
              "type": "uint256"
            },
            {
              "internalType": "uint256",
              "name": "creatorDeposit",
              "type": "uint256"
            },
            {
              "internalType": "uint256",
              "name": "creatorOutcome",
              "type": "uint256"
            },
            {
              "internalType": "uint256",
              "name": "startTime",
              "type": "uint256"
            },
            {
              "internalType": "uint256",
              "name": "stakeEndTime",
              "type": "uint256"
            },
            {
              "internalType": "uint256",
              "name": "endTime",
              "type": "uint256"
            },
            {
              "internalType": "uint256",
              "name": "resolutionEndTime",
              "type": "uint256"
            },
            {
              "internalType": "enum EventPool.MarketState",
              "name": "state",
              "type": "uint8"
            },
            {
              "internalType": "uint256",
              "name": "winningOption",
              "type": "uint256"
            },
            {
              "internalType": "bool",
              "name": "isResolved",
              "type": "bool"
            }
          ],
          "internalType": "struct EventPool.Market",
          "name": "market",
          "type": "tuple"
        },
        {
          "internalType": "uint256",
          "name": "totalPool",
          "type": "uint256"
        },
        {
          "internalType": "uint256",
          "name": "supportPool",
          "type": "uint256"
        },
        {
          "internalType": "uint256",
          "name": "stakerCount",
          "type": "uint256"
        },
        {
          "internalType": "uint256",
          "name": "supporterCount",
          "type": "uint256"
        },
        {
          "internalType": "address[]",
          "name": "stakers",
          "type": "address[]"
        },
        {
          "internalType": "address[]",
          "name": "supporters",
          "type": "address[]"
        },
        {
          "internalType": "string",
          "name": "tokenSymbol",
          "type": "string"
        }
      ],
      "stateMutability": "view",
      "type": "function"
    },
    {
      "inputs": [
        {
          "internalType": "uint256",
          "name": "marketId",
          "type": "uint256"
        }
      ],
      "name": "getMarketStakers",
      "outputs": [
        {
          "internalType": "address[]",
          "name": "",
          "type": "address[]"
        }
      ],
      "stateMutability": "view",
      "type": "function"
    },
    {
      "inputs": [],
      "name": "getMarketsReadyForRemoval",
      "outputs": [
        {
          "internalType": "uint256[]",
          "name": "",
          "type": "uint256[]"
        }
      ],
      "stateMutability": "view",
      "type": "function"
    },
    {
      "inputs": [],
      "name": "getNextMarketId",
      "outputs": [
        {
          "internalType": "uint256",
          "name": "",
          "type": "uint256"
        }
      ],
      "stateMutability": "view",
      "type": "function"
    },
    {
      "inputs": [
        {
          "internalType": "uint256",
          "name": "marketId",
          "type": "uint256"
        },
        {
          "internalType": "uint256",
          "name": "option",
          "type": "uint256"
        },
        {
          "internalType": "address",
          "name": "token",
          "type": "address"
        }
      ],
      "name": "getOptionPool",
      "outputs": [
        {
          "internalType": "uint256",
          "name": "",
          "type": "uint256"
        }
      ],
      "stateMutability": "view",
      "type": "function"
    },
    {
      "inputs": [],
      "name": "getPermanentlyRemovedMarkets",
      "outputs": [
        {
          "internalType": "uint256[]",
          "name": "",
          "type": "uint256[]"
        }
      ],
      "stateMutability": "view",
      "type": "function"
    },
    {
      "inputs": [
        {
          "internalType": "uint256",
          "name": "marketId",
          "type": "uint256"
        }
      ],
      "name": "getStakerCount",
      "outputs": [
        {
          "internalType": "uint256",
          "name": "",
          "type": "uint256"
        }
      ],
      "stateMutability": "view",
      "type": "function"
    },
    {
      "inputs": [
        {
          "internalType": "uint256",
          "name": "marketId",
          "type": "uint256"
        },
        {
          "internalType": "address",
          "name": "token",
          "type": "address"
        }
      ],
      "name": "getSupportPool",
      "outputs": [
        {
          "internalType": "uint256",
          "name": "",
          "type": "uint256"
        }
      ],
      "stateMutability": "view",
      "type": "function"
    },
    {
      "inputs": [],
      "name": "getSupportedTokens",
      "outputs": [
        {
          "internalType": "address[]",
          "name": "tokens",
          "type": "address[]"
        },
        {
          "internalType": "string[]",
          "name": "symbols",
          "type": "string[]"
        }
      ],
      "stateMutability": "view",
      "type": "function"
    },
    {
      "inputs": [
        {
          "internalType": "uint256",
          "name": "marketId",
          "type": "uint256"
        }
      ],
      "name": "getSupporterCount",
      "outputs": [
        {
          "internalType": "uint256",
          "name": "",
          "type": "uint256"
        }
      ],
      "stateMutability": "view",
      "type": "function"
    },
    {
      "inputs": [
        {
          "internalType": "uint256",
          "name": "marketId",
          "type": "uint256"
        },
        {
          "internalType": "address",
          "name": "token",
          "type": "address"
        }
      ],
      "name": "getTotalPool",
      "outputs": [
        {
          "internalType": "uint256",
          "name": "",
          "type": "uint256"
        }
      ],
      "stateMutability": "view",
      "type": "function"
    },
    {
      "inputs": [
        {
          "internalType": "address",
          "name": "user",
          "type": "address"
        }
      ],
      "name": "getUserMarketHistory",
      "outputs": [
        {
          "internalType": "uint256[]",
          "name": "",
          "type": "uint256[]"
        }
      ],
      "stateMutability": "view",
      "type": "function"
    },
    {
      "inputs": [
        {
          "internalType": "uint256",
          "name": "marketId",
          "type": "uint256"
        },
        {
          "internalType": "address",
          "name": "user",
          "type": "address"
        },
        {
          "internalType": "address",
          "name": "token",
          "type": "address"
        }
      ],
      "name": "getUserStake",
      "outputs": [
        {
          "internalType": "uint256",
          "name": "",
          "type": "uint256"
        }
      ],
      "stateMutability": "view",
      "type": "function"
    },
    {
      "inputs": [
        {
          "internalType": "uint256",
          "name": "marketId",
          "type": "uint256"
        },
        {
          "internalType": "address",
          "name": "user",
          "type": "address"
        },
        {
          "internalType": "address",
          "name": "token",
          "type": "address"
        }
      ],
      "name": "getUserSupport",
      "outputs": [
        {
          "internalType": "uint256",
          "name": "",
          "type": "uint256"
        }
      ],
      "stateMutability": "view",
      "type": "function"
    },
    {
      "inputs": [
        {
          "internalType": "uint256",
          "name": "",
          "type": "uint256"
        }
      ],
      "name": "isActiveMarket",
      "outputs": [
        {
          "internalType": "bool",
          "name": "",
          "type": "bool"
        }
      ],
      "stateMutability": "view",
      "type": "function"
    },
    {
      "inputs": [
        {
          "internalType": "uint256",
          "name": "marketId",
          "type": "uint256"
        }
      ],
      "name": "isMarketActive",
      "outputs": [
        {
          "internalType": "bool",
          "name": "",
          "type": "bool"
        }
      ],
      "stateMutability": "view",
      "type": "function"
    },
    {
      "inputs": [
        {
          "internalType": "address",
          "name": "wallet",
          "type": "address"
        }
      ],
      "name": "isWalletBlacklisted",
      "outputs": [
        {
          "internalType": "bool",
          "name": "",
          "type": "bool"
        }
      ],
      "stateMutability": "view",
      "type": "function"
    },
    {
      "inputs": [],
      "name": "marketCreationFee",
      "outputs": [
        {
          "internalType": "uint256",
          "name": "",
          "type": "uint256"
        }
      ],
      "stateMutability": "view",
      "type": "function"
    },
    {
      "inputs": [
        {
          "internalType": "uint256",
          "name": "",
          "type": "uint256"
        },
        {
          "internalType": "uint256",
          "name": "",
          "type": "uint256"
        }
      ],
      "name": "marketStakers",
      "outputs": [
        {
          "internalType": "address",
          "name": "",
          "type": "address"
        }
      ],
      "stateMutability": "view",
      "type": "function"
    },
    {
      "inputs": [
        {
          "internalType": "uint256",
          "name": "",
          "type": "uint256"
        },
        {
          "internalType": "uint256",
          "name": "",
          "type": "uint256"
        }
      ],
      "name": "marketSupporters",
      "outputs": [
        {
          "internalType": "address",
          "name": "",
          "type": "address"
        }
      ],
      "stateMutability": "view",
      "type": "function"
    },
    {
      "inputs": [
        {
          "internalType": "uint256",
          "name": "",
          "type": "uint256"
        }
      ],
      "name": "markets",
      "outputs": [
        {
          "internalType": "address",
          "name": "creator",
          "type": "address"
        },
        {
          "internalType": "string",
          "name": "ipfsHash",
          "type": "string"
        },
        {
          "internalType": "bool",
          "name": "isMultiOption",
          "type": "bool"
        },
        {
          "internalType": "uint256",
          "name": "maxOptions",
          "type": "uint256"
        },
        {
          "internalType": "address",
          "name": "paymentToken",
          "type": "address"
        },
        {
          "internalType": "uint256",
          "name": "minStake",
          "type": "uint256"
        },
        {
          "internalType": "uint256",
          "name": "creatorDeposit",
          "type": "uint256"
        },
        {
          "internalType": "uint256",
          "name": "creatorOutcome",
          "type": "uint256"
        },
        {
          "internalType": "uint256",
          "name": "startTime",
          "type": "uint256"
        },
        {
          "internalType": "uint256",
          "name": "stakeEndTime",
          "type": "uint256"
        },
        {
          "internalType": "uint256",
          "name": "endTime",
          "type": "uint256"
        },
        {
          "internalType": "uint256",
          "name": "resolutionEndTime",
          "type": "uint256"
        },
        {
          "internalType": "enum EventPool.MarketState",
          "name": "state",
          "type": "uint8"
        },
        {
          "internalType": "uint256",
          "name": "winningOption",
          "type": "uint256"
        },
        {
          "internalType": "bool",
          "name": "isResolved",
          "type": "bool"
        }
      ],
      "stateMutability": "view",
      "type": "function"
    },
    {
      "inputs": [],
      "name": "minMarketDurationMinutes",
      "outputs": [
        {
          "internalType": "uint256",
          "name": "",
          "type": "uint256"
        }
      ],
      "stateMutability": "view",
      "type": "function"
    },
    {
      "inputs": [],
      "name": "nextMarketId",
      "outputs": [
        {
          "internalType": "uint256",
          "name": "",
          "type": "uint256"
        }
      ],
      "stateMutability": "view",
      "type": "function"
    },
    {
      "inputs": [],
      "name": "owner",
      "outputs": [
        {
          "internalType": "address",
          "name": "",
          "type": "address"
        }
      ],
      "stateMutability": "view",
      "type": "function"
    },
    {
      "inputs": [
        {
          "internalType": "uint256",
          "name": "marketId",
          "type": "uint256"
        }
      ],
      "name": "permanentlyRemoveMarket",
      "outputs": [],
      "stateMutability": "nonpayable",
      "type": "function"
    },
    {
      "inputs": [
        {
          "internalType": "uint256",
          "name": "",
          "type": "uint256"
        }
      ],
      "name": "permanentlyRemovedMarkets",
      "outputs": [
        {
          "internalType": "uint256",
          "name": "",
          "type": "uint256"
        }
      ],
      "stateMutability": "view",
      "type": "function"
    },
    {
      "inputs": [
        {
          "internalType": "uint256",
          "name": "marketId",
          "type": "uint256"
        },
        {
          "internalType": "uint256",
          "name": "option",
          "type": "uint256"
        }
      ],
      "name": "placeStake",
      "outputs": [],
      "stateMutability": "payable",
      "type": "function"
    },
    {
      "inputs": [
        {
          "internalType": "uint256",
          "name": "marketId",
          "type": "uint256"
        },
        {
          "internalType": "uint256",
          "name": "option",
          "type": "uint256"
        },
        {
          "internalType": "uint256",
          "name": "amount",
          "type": "uint256"
        }
      ],
      "name": "placeStakeWithToken",
      "outputs": [],
      "stateMutability": "nonpayable",
      "type": "function"
    },
    {
      "inputs": [
        {
          "internalType": "address",
          "name": "token",
          "type": "address"
        }
      ],
      "name": "removeSupportedToken",
      "outputs": [],
      "stateMutability": "nonpayable",
      "type": "function"
    },
    {
      "inputs": [],
      "name": "renounceOwnership",
      "outputs": [],
      "stateMutability": "nonpayable",
      "type": "function"
    },
    {
      "inputs": [
        {
          "internalType": "uint256",
          "name": "marketId",
          "type": "uint256"
        },
        {
          "internalType": "uint256",
          "name": "_winningOption",
          "type": "uint256"
        }
      ],
      "name": "resolveMarket",
      "outputs": [],
      "stateMutability": "nonpayable",
      "type": "function"
    },
    {
      "inputs": [
        {
          "internalType": "address",
          "name": "_analytics",
          "type": "address"
        }
      ],
      "name": "setAnalytics",
      "outputs": [],
      "stateMutability": "nonpayable",
      "type": "function"
    },
    {
      "inputs": [
        {
          "internalType": "bool",
          "name": "_enabled",
          "type": "bool"
        },
        {
          "internalType": "uint256",
          "name": "_restrictionMinutes",
          "type": "uint256"
        }
      ],
      "name": "setBettingRestriction",
      "outputs": [],
      "stateMutability": "nonpayable",
      "type": "function"
    },
    {
      "inputs": [
        {
          "internalType": "uint256",
          "name": "_marketCreationFee",
          "type": "uint256"
        }
      ],
      "name": "setMarketCreationFee",
      "outputs": [],
      "stateMutability": "nonpayable",
      "type": "function"
    },
    {
      "inputs": [
        {
          "internalType": "uint256",
          "name": "_minMarketDurationMinutes",
          "type": "uint256"
        }
      ],
      "name": "setMinMarketDuration",
      "outputs": [],
      "stateMutability": "nonpayable",
      "type": "function"
    },
    {
      "inputs": [
        {
          "internalType": "address",
          "name": "_verification",
          "type": "address"
        }
      ],
      "name": "setVerification",
      "outputs": [],
      "stateMutability": "nonpayable",
      "type": "function"
    },
    {
      "inputs": [
        {
          "internalType": "address",
          "name": "wallet",
          "type": "address"
        },
        {
          "internalType": "bool",
          "name": "blacklisted",
          "type": "bool"
        }
      ],
      "name": "setWalletBlacklist",
      "outputs": [],
      "stateMutability": "nonpayable",
      "type": "function"
    },
    {
      "inputs": [
        {
          "internalType": "uint256",
          "name": "marketId",
          "type": "uint256"
        },
        {
          "internalType": "uint256",
          "name": "amount",
          "type": "uint256"
        }
      ],
      "name": "supportMarket",
      "outputs": [],
      "stateMutability": "payable",
      "type": "function"
    },
    {
      "inputs": [
        {
          "internalType": "uint256",
          "name": "",
          "type": "uint256"
        }
      ],
      "name": "supportedTokenList",
      "outputs": [
        {
          "internalType": "address",
          "name": "",
          "type": "address"
        }
      ],
      "stateMutability": "view",
      "type": "function"
    },
    {
      "inputs": [
        {
          "internalType": "address",
          "name": "",
          "type": "address"
        }
      ],
      "name": "supportedTokens",
      "outputs": [
        {
          "internalType": "bool",
          "name": "",
          "type": "bool"
        }
      ],
      "stateMutability": "view",
      "type": "function"
    },
    {
      "inputs": [
        {
          "internalType": "address",
          "name": "",
          "type": "address"
        }
      ],
      "name": "tokenSymbols",
      "outputs": [
        {
          "internalType": "string",
          "name": "",
          "type": "string"
        }
      ],
      "stateMutability": "view",
      "type": "function"
    },
    {
      "inputs": [
        {
          "internalType": "address",
          "name": "newOwner",
          "type": "address"
        }
      ],
      "name": "transferOwnership",
      "outputs": [],
      "stateMutability": "nonpayable",
      "type": "function"
    },
    {
      "inputs": [],
      "name": "treasury",
      "outputs": [
        {
          "internalType": "address payable",
          "name": "",
          "type": "address"
        }
      ],
      "stateMutability": "view",
      "type": "function"
    },
    {
      "inputs": [
        {
          "internalType": "uint256",
          "name": "",
          "type": "uint256"
        },
        {
          "internalType": "address",
          "name": "",
          "type": "address"
        }
      ],
      "name": "userHasStaked",
      "outputs": [
        {
          "internalType": "bool",
          "name": "",
          "type": "bool"
        }
      ],
      "stateMutability": "view",
      "type": "function"
    },
    {
      "inputs": [
        {
          "internalType": "uint256",
          "name": "",
          "type": "uint256"
        },
        {
          "internalType": "address",
          "name": "",
          "type": "address"
        }
      ],
      "name": "userHasSupported",
      "outputs": [
        {
          "internalType": "bool",
          "name": "",
          "type": "bool"
        }
      ],
      "stateMutability": "view",
      "type": "function"
    },
    {
      "inputs": [
        {
          "internalType": "address",
          "name": "",
          "type": "address"
        },
        {
          "internalType": "uint256",
          "name": "",
          "type": "uint256"
        }
      ],
      "name": "userMarketHistory",
      "outputs": [
        {
          "internalType": "uint256",
          "name": "",
          "type": "uint256"
        }
      ],
      "stateMutability": "view",
      "type": "function"
    },
    {
      "inputs": [
        {
          "internalType": "uint256",
          "name": "",
          "type": "uint256"
        },
        {
          "internalType": "address",
          "name": "",
          "type": "address"
        }
      ],
      "name": "userStakeOptions",
      "outputs": [
        {
          "internalType": "uint256",
          "name": "",
          "type": "uint256"
        }
      ],
      "stateMutability": "view",
      "type": "function"
    },
    {
      "inputs": [],
      "name": "verification",
      "outputs": [
        {
          "internalType": "address",
          "name": "",
          "type": "address"
        }
      ],
      "stateMutability": "view",
      "type": "function"
    },
    {
      "inputs": [
        {
          "internalType": "uint256",
          "name": "marketId",
          "type": "uint256"
        }
      ],
      "name": "withdrawSupport",
      "outputs": [],
      "stateMutability": "nonpayable",
      "type": "function"
    },
    {
      "stateMutability": "payable",
      "type": "receive"
    }
  ],
  "bytecode": "0x6080346200023457601f6200622738819003918201601f1916830191906001600160401b0383118484101762000239578160a09285926040958652833981010312620002345762000050826200024f565b6020838101519192916001600160a01b03908181169081900362000234576200007b8487016200024f565b938260806200008d60608a016200024f565b98015196169586156200021c57600080546001600160a01b03198082168a17835584519a9099929692909183167f8be0079c531659141344cd1fd0a4f28419497f9722a3daafe3b4186f6b6457e08880a38160019889600f55600560115560ff1996876012541660125560056013558b600c541617600c551689600d541617600d551687600e541617600e556010558280526008845280832080548681811c9116801562000211575b86821014620001fd579081601f88949311620001d1575b506008635045505560e01b01905583805260078552832080549092161790556009549268010000000000000000841015620001bd57830180600955831015620001a957600981522001908154169055615fc29081620002658239f35b634e487b7160e01b81526032600452602490fd5b634e487b7160e01b82526041600452602482fd5b818652601f878720910160051c8101905b818110620001f157506200014d565b868155889401620001e2565b634e487b7160e01b85526022600452602485fd5b90607f169062000136565b8151631e4fbdf760e01b815260006004820152602490fd5b600080fd5b634e487b7160e01b600052604160045260246000fd5b51906001600160a01b0382168203620002345756fe6080604052600436101561001b575b361561001957600080fd5b005b6000803560e01c806307adc191146146875780630ccf44671461465d5780630d64cdbd1461462e5780631356af0214614445578063157bdcce1461458057806317916e0114614562578063256ba741146144cd578063287f57b5146144845780632b5ba3b9146144455780632b60c8221461441a5780632ef1bdfa146143fc578063304bf1f1146143b357806333d6b46e146143405780633adfe6d0146143155780633bbab179146142b35780633e32a76c1461404b5780633ec7919314613d3c578063406ef2ef14613d1e5780634584369514613ca05780634f44289d14613c575780634ffe2a8b14613c2e5780635104996914613ac85780635b7baf641461372e5780635da3247a1461371057806360557333146136f857806361d027b3146136cf578063638b022c14612b5c57806365ebce5514612ae6578063677bd9ff1461270957806368c4ac26146126ca5780636d822220146126665780636f59359e146125e4578063715018a61461259c578063720138e8146122dc57806374c350eb14612297578063763191901461214f5780637c16cd9e1461208b57806380d5ac8a1461206257806381b17d2914612022578063847cf78214611fde578063881df9e114611fb357806388d3cc4814611f905780638da5cb5b14611f69578063971f8bb114611f2457806398a1767114611ece5780639f37022a14611eab578063a30a091414611e81578063a5e973c314611dff578063a7a8c35914611dd4578063ad8e42ff14611daa578063b1138b5014611be5578063b1283e7714611ae1578063b85ed63614611a57578063baa9c4ac14611a39578063c22c62c314611a07578063c3436e0c146118b7578063c8a843b7146117ac578063d3c7c2c714611637578063d5f82707146115ec578063d8c5dd67146115a5578063db62c6de146113b0578063dc4ce3491461135d578063e78d0117146112b6578063eb44fdd3146111ae578063f00fe3211461110b578063f15cc40614610dfc578063f1b7dde314610b44578063f204072f146107dc578063f2fde38b14610766578063f486759114610430578063f849f69e146103bd578063fb0b2b361461036a5763fe53a6e81461034a575061000e565b346103675780600319360112610367576020600f54604051908152f35b80fd5b5034610367576020366003190112610367576103b9906103a5906040906001600160a01b03610397614888565b168152600860205220614c4d565b6040519182916020835260208301906149fb565b0390f35b5034610367576020366003190112610367576004358152601560205260ff604082205416806103f4575b6020906040519015158152f35b50600160205260ff600c6040832001541690600582101561041c5750600460209114156103e7565b634e487b7160e01b81526021600452602490fd5b5061043a36614bee565b908083526020600181526040842060ff600c82015416600581101561075257610463901561500d565b60ff60125416610709575b831515806106fb575b610480906150ed565b6004810180546001600160a01b03929083166106a25760056104a6910154341015615139565b858080803486600c54165af16104ba614e56565b501561064657908591848352600284526040832033600052845260ff6040600020541615610619575b84835260028452604083203360005284526040600020600160ff198254161790558483526004845260408320336000528452856040600020558180600c541691541690803b156105e7576040516395f4109560e01b81529184918391829084908290610558908d903490338f60048701614ee6565b03925af190811561060e5783916105fa575b5050600e54168061059a575b50506040519283523490830152600080516020615f4d83398151915260403393a380f35b803b156105f65781604051809263c228038d60e01b82528183816105c4348c338d60048601614f2f565b03925af180156105eb5715610576576105dc90614b1f565b6105e7578338610576565b8380fd5b6040513d84823e3d90fd5b5080fd5b61060390614b1f565b6105f657813861056a565b6040513d85823e3d90fd5b8483526005845261062d336040852061517e565b338352601684526106418560408520614e33565b6104e3565b60405162461bcd60e51b815260048101849052602e60248201527f4d61726b65744d616e616765723a20455448207472616e7366657220746f205460448201526d1c99585cdd5c9e4819985a5b195960921b6064820152608490fd5b60405162461bcd60e51b815260048101859052603d6024820152600080516020615e8d83398151915260448201527f746f6b656e732c2075736520706c61636542657457697468546f6b656e0000006064820152608490fd5b506003810154841115610477565b600981015460135490603c820291808304603c149015171561073e576107399161073291615058565b4210615065565b61046e565b634e487b7160e01b87526011600452602487fd5b634e487b7160e01b86526021600452602486fd5b503461036757602036600319011261036757610780614888565b610788614cf3565b6001600160a01b039081169081156107c3576000548260018060a01b031982161760005516600080516020615eed833981519152600080a380f35b604051631e4fbdf760e01b815260048101849052602490fd5b506107e636614bee565b8183929352602092600184526040832060ff600c820154166005811015610b3057610811901561500d565b6009810154421015610adf57600490338552600a865261083860ff60408720541615614d1f565b6108438415156151a1565b0180546001600160a01b039190821680610a5d5750833403610a0c5761086a3415156151a1565b848080803486600c54165af161087e614e56565b50156109b05784955b838652600381526040862033600052815260ff6040600020541615610997575b83865260038152604086209033600052526040600020600160ff198254161790558180600c541691541690803b15610993578486916108ff938360405180968195829463c15d980760e01b8452338c6004860161520a565b03925af1908115610988578591610974575b5050600e5416918261092257505050f35b823b1561096f5760648492836040519586948593638f46a5a160e01b8552600485015233602485015260448401525af180156105eb5761095f5750f35b61096890614b1f565b6103675780f35b505050fd5b61097d90614b1f565b61096f578338610911565b6040513d87823e3d90fd5b8580fd5b838652600681526109ab336040882061517e565b6108a7565b60405162461bcd60e51b815260048101879052602e60248201527f4d61726b65744d616e616765723a20455448207472616e7366657220746f207460448201526d1c99585cdd5c9e4819985a5b195960921b6064820152608490fd5b60405162461bcd60e51b815260048101879052602360248201527f4d61726b65744d616e616765723a20496e636f72726563742045544820616d6f6044820152621d5b9d60ea1b6064820152608490fd5b34610a7b5795610a7685879885600c5416903390614f75565b610887565b60405162461bcd60e51b815260048101889052603660248201527f4d61726b65744d616e616765723a204e6f204554482073686f756c64206265206044820152751cd95b9d08199bdc881d1bdad95b881cdd5c1c1bdc9d60521b6064820152608490fd5b60405162461bcd60e51b815260048101869052602360248201527f4d61726b65744d616e616765723a20537570706f727420706572696f6420656e60448201526219195960ea1b6064820152608490fd5b634e487b7160e01b85526021600452602485fd5b503461036757606036600319011261036757600435602435906044358184526020600181526040852060ff600c820154166005811015610de857610b88901561500d565b60ff60125416610da6575b84151580610d98575b610ba5906150ed565b6004810180546001600160a01b0392908316908115610d4a578589949392610bd66005610be3940154831015615139565b84600c5416903390614f75565b858352600284526040832033600052845260ff6040600020541615610d1d575b85835260028452604083203360005284526040600020600160ff198254161790558583526004845260408320336000528452866040600020558180600c541691541690803b156105e7578584918993838a610c76604051978896879586946395f4109560e01b8652339060048701614ee6565b03925af190811561060e578391610d09575b5050600e541680610cb6575b5050604051938452830152600080516020615f4d83398151915260403393a380f35b803b156105f65760405163c228038d60e01b81529082908290818381610ce28a8d338e60048601614f2f565b03925af180156105eb5715610c9457610cfa90614b1f565b610d05578438610c94565b8480fd5b610d1290614b1f565b6105f6578138610c88565b85835260058452610d31336040852061517e565b33835260168452610d458660408520614e33565b610c03565b60405162461bcd60e51b81526004810186905260326024820152600080516020615e8d833981519152604482015271141154154b081d5cd9481c1b1858d950995d60721b6064820152608490fd5b506003810154851115610b9c565b600981015460135490603c820291808304603c1490151715610dd457610dcf9161073291615058565b610b93565b634e487b7160e01b88526011600452602488fd5b634e487b7160e01b87526021600452602487fd5b503461036757604036600319011261036757600435610e1961489e565b9181815260209160018352604082209360ff600c8601541660058110156110f7576002610e469114615625565b600d850154610e5681151561567c565b828452600285526040842060018060a01b039384841691826000528752610e8460ff604060002054166156c7565b84600c5416946040516307c7a72d60e01b8152888180610ea8898760048401614f16565b03818a5afa9081156110705788916110aa575b50906004899a610ed0610ef19a9b9415615713565b0154168095604051988992839263423e7bc160e11b8452866004850161528c565b0381885afa95861561103257879661107b575b5060405163dc4ce34960e01b815293888580610f258488876004850161575f565b0381895afa94851561107057908991899661103d575b50610f5d95966040518080988194633d1e7ba160e11b83528760048401614f16565b03915afa938415611032578794610ffe575b5084610f84575050505050505b604051908152f35b869394959652600487526040832090600052865260406000205414600014610ff55761232891828102928184041490151715610fe15750610fdc9291610fd1612710610fd6930484614dba565b615780565b90614de3565b610f7c565b634e487b7160e01b81526011600452602490fd5b92505050610f7c565b9093508781813d831161102b575b6110168183614b69565b8101031261102657519238610f6f565b600080fd5b503d61100c565b6040513d89823e3d90fd5b8281939297503d8311611069575b6110558183614b69565b810103126110265751938890610f5d610f3b565b503d61104b565b6040513d8a823e3d90fd5b9095508781813d83116110a3575b6110938183614b69565b8101031261102657519438610f04565b503d611089565b90508881813d83116110f0575b6110c18183614b69565b810103126110ec57906004899a610ed06110df610ef19b9c9561538a565b939450509a999850610ebb565b8780fd5b503d6110b7565b634e487b7160e01b84526021600452602484fd5b50346103675760403660031901126103675761115490602061112b61489e565b60018060a01b03600c54166040518080968194633d1e7ba160e11b835260043560048401614f16565b03915afa9081156111a25790611170575b602090604051908152f35b506020813d821161119a575b8161118960209383614b69565b810103126110265760209051611165565b3d915061117c565b604051903d90823e3d90fd5b50346103675760203660031901126103675760406103b9916111ce615dca565b50600435815260016020522060ff600e604051926111eb84614b32565b80546001600160a01b03908116855261120660018301614c4d565b60208601528360028301541615156040860152600382015460608601526004820154166080850152600581015460a0850152600681015460c0850152600781015460e085015260088101546101008501526009810154610120850152600a810154610140850152600b81015461016085015261128c83600c830154166101808601614dff565b600d8101546101a085015201541615156101c0820152604051918291602083526020830190614a5e565b5034610367576040366003190112610367576004358015159081810361102657602435916112e2614cf3565b60ff8019601254169116176012556112f8575080f35b80156113045760135580f35b60405162461bcd60e51b815260206004820152602b60248201527f4d61726b65744d616e616765723a20496e76616c69642072657374726963746960448201526a37b710323ab930ba34b7b760a91b6064820152608490fd5b503461036757606036600319011261036757604435906001600160a01b0380831683036110265761115492602091600c5416604051808096819463dc4ce34960e01b83526024356004356004850161575f565b5034610367576040366003190112610367576113ca614888565b6113d2614c04565b6113da614cf3565b6001600160a01b0382811691821561155257828552600a60205260408520906114088160ff84541693614e22565b808061154a575b15611474575050600b5492915050600160401b82101561145e5761143c82600161145b9401600b55614950565b90919082549060031b9160018060a01b03809116831b921b1916179055565b80f35b634e487b7160e01b600052604160045260246000fd5b9091929350159081611542575b5061148b57505080f35b825b600b80548083101561153a5783856114a485614950565b929054600393841b1c16146114c4575050506114bf90614df0565b61148d565b91945060001993919084810190811161073e579161143c916114e96114f59594614950565b9054911b1c1691614950565b8154801561152457019061152061150b83614950565b81549060018060a01b039060031b1b19169055565b5580f35b634e487b7160e01b600052603160045260246000fd5b505050505080f35b905038611481565b50811561140f565b60405162461bcd60e51b815260206004820152602560248201527f4d61726b65744d616e616765723a20496e76616c69642077616c6c6574206164604482015264647265737360d81b6064820152608490fd5b50346103675760403660031901126103675760406115c161489e565b9160043581526004602052209060018060a01b03166000526020526020604060002054604051908152f35b5034610367576115fb36614bee565b9190815260056020526040812090815483101561036757602061161e848461496b565b905460405160039290921b1c6001600160a01b03168152f35b503461036757806003193601126103675760095461165481615c58565b906116626040519283614b69565b808252601f19928361167383615c58565b0193602094368686013761168683615c58565b926116946040519485614b69565b808452816116a182615c58565b01835b81811061179d575050825b8181106117285750506116cd604051946040865260408601906149be565b94848603818601528351918287528187019082808560051b8a0101960194975b8489106116fa5787870388f35b9091929394958480611716838686600196030188528a516149fb565b980194019801979190949392946116ed565b8061173961179492989495986148e9565b90546001600160a01b039160039190821b1c8216611757848b615c6f565b52611761836148e9565b9054911b1c1688526008845261177960408920614c4d565b6117838288615c6f565b5261178e8187615c6f565b50614df0565b959291956116af565b606086820189015287016116a4565b50346103675780600319360112610367576017546117c981615e3a565b8291835b81811061181a5750506117df82615e3a565b925b8281106117f657604051806103b98682614983565b806118046118159284615c6f565b5161180f8287615c6f565b52614df0565b6117e1565b61182381614935565b90549060031b1c80865260206001815260ff600c6040892001541660058110156118a3576004149081611880575b50611866575b5061186190614df0565b6117cd565b846118799161180f611861949787615c6f565b9390611857565b6018915082885252604086205462278d00810180911161073e5742101538611851565b634e487b7160e01b88526021600452602488fd5b50346103675760203660031901126103675760043580825260016020526040822080546001600160a01b031633036119b35760ff600c8201541660058110156110f757906119076009921561500d565b015461a8bf19810190811161199f574210156119505760405161145b9161192d82614b4e565b601182527010dc99585d1bdc8818d85b98d95b1b1959607a1b60208301526157a0565b60405162461bcd60e51b815260206004820152602160248201527f4d61726b65744d616e616765723a20546f6f206c61746520746f2063616e63656044820152601b60fa1b6064820152608490fd5b634e487b7160e01b83526011600452602483fd5b60405162461bcd60e51b815260206004820152602660248201527f4d61726b65744d616e616765723a204f6e6c792063726561746f722063616e2060448201526518d85b98d95b60d21b6064820152608490fd5b503461036757611a1636614bee565b9190815260066020526040812090815483101561036757602061161e848461496b565b50346103675780600319360112610367576020601354604051908152f35b5034610367578060031936011261036757600f5460001990818101818111611acd57611a8290615e3a565b9160015b828110611a9b57604051806103b98682614983565b818101818111611ab957908061180f611ab49387615c6f565b611a86565b634e487b7160e01b86526011600452602486fd5b634e487b7160e01b84526011600452602484fd5b5034610367576020366003190112610367576004358152600160205260409020600160a01b60019003808254169160018101611b1c90614c4d565b91600282015460ff16916003810154916004820154166005820154600683015460078401546008850154600986015491600a87015493600b88015495600c89015460ff1697600d8a015499600e015460ff169a6040519e8f9e8f9182526101e08060208401528201611b8d916149fb565b9d151560408201526060015260808d015260a08c015260c08b015260e08a01526101008901526101208801526101408701526101608601526101808501611bd391614a3b565b6101a084015215156101c08301520390f35b5034610367576020366003190112610367576004359081815260016020526040812091600c830192835460ff8116946005861015610b3057611c2d60016024959697146152ac565b600e8301928354611c4160ff821615615309565b600d5460408051633313865560e21b8152600481018a9052976001600160a01b039692899190829089165afa968715611d9f5789908a98611d6b575b5015611d1a57889587600d6002950155600160ff1980941617905516179055611ca584615804565b600e541680611ccd575b50506020600080516020615f0d83398151915291604051908152a280f35b803b156105f65781809160446040518094819362ff4a7360e81b83528960048401528860248401525af180156105eb5715611caf57611d0b90614b1f565b611d16578238611caf565b8280fd5b60405162461bcd60e51b8152602060048201526024808201527f4d61726b65744d616e616765723a204e6f207265736f6c7574696f6e2072656160448201526318da195960e21b6064820152608490fd5b9050611d9091975060403d604011611d98575b611d888183614b69565b810190615397565b969038611c7d565b503d611d7e565b6040513d8b823e3d90fd5b50346103675760203660031901126103675760406020916004358152601883522054604051908152f35b50346103675760203660031901126103675760043590600b5482101561036757602061161e83614950565b5034610367578060031936011261036757604051601480548083529083526020808301937fce6d7b5282bd9a3661ae061feed1dbda4e52ab073b1f9285be6e155d9c38d4ec92915b828210611e6a576103b985611e5e81890382614b69565b60405191829182614983565b835486529485019460019384019390910190611e47565b50346103675760203660031901126103675760406020916004358152600683522054604051908152f35b503461036757602036600319011261036757611ec5614cf3565b60043560105580f35b503461036757604036600319011261036757611ee8614888565b6001600160a01b0316815260166020526040812080546024359290831015610367576020611f16848461496b565b90546040519160031b1c8152f35b503461036757602036600319011261036757611f3e614888565b611f46614cf3565b600d80546001600160a01b0319166001600160a01b039290921691909117905580f35b5034610367578060031936011261036757546040516001600160a01b039091168152602090f35b5034610367578060031936011261036757602060ff601254166040519015158152f35b50346103675760203660031901126103675760043590601754821015610367576020611f1683614935565b503461036757611154906020611ff3366148b4565b600c5460405163423e7bc160e11b81529687946001600160a01b0390921693859384939091906004850161528c565b5034610367576020366003190112610367576004356019548110156105f6576019600052600080516020615f6d8339815191520154604051908152602090f35b5034610367578060031936011261036757600e546040516001600160a01b039091168152602090f35b5034610367576020366003190112610367576004358082526001602052604082209060ff600c8301541660058110156110f75760016120ca91146152ac565b600b82015442106120f7576120e960ff600e61145b9401541615615309565b6120f1615355565b906157a0565b60405162461bcd60e51b815260206004820152602a60248201527f4d61726b65744d616e616765723a205265736f6c7574696f6e20706572696f64604482015269081b9bdd08195b99195960b21b6064820152608490fd5b503461036757602036600319011261036757612169614888565b612171614cf3565b6001600160a01b0390811690811561224057818352600760205261219b60ff604085205416614d75565b81835260076020526040832060ff19815416905560086020526121c060408420615c0f565b825b600980548083101561153a5783856121d9856148e9565b929054600393841b1c16146121f9575050506121f490614df0565b6121c2565b91945060001993919084810190811161073e579161143c9161221e61222a95946148e9565b9054911b1c16916148e9565b8154801561152457019061152061150b836148e9565b60405162461bcd60e51b815260206004820152602960248201527f4d61726b65744d616e616765723a2043616e6e6f742072656d6f7665206e617460448201526834bb32903a37b5b2b760b91b6064820152608490fd5b5034610367576020366003190112610367576122b1614888565b6122b9614cf3565b600e80546001600160a01b0319166001600160a01b039290921691909117905580f35b5034610367576040366003190112610367576122f6614888565b60246001600160401b038135818111610d0557612317903690600401614ba7565b61231f614cf3565b6001600160a01b03841691821561254b578151156124fb578286526020926007845260ff6040882054166124a85786526007835260408620926001938460ff198254161790556008815260408720928051928311612495579082916123848554614c13565b601f811161245c575b5081601f84116001146123f9575088926123ee575b5050600019600383901b1c191690831b1790555b60095491600160401b8310156123da57508161143c9161145b9493016009556148e9565b634e487b7160e01b60009081526041600452fd5b0151905038806123a2565b9190869450601f198416868b52838b20938b905b828210612443575050841161242a575b505050811b0190556123b6565b015160001960f88460031b161c1916905538808061241d565b848401518655899790950194938401939081019061240d565b61248590868b52838b20601f860160051c81019185871061248b575b601f0160051c0190614e0b565b3861238d565b9091508190612478565b634e487b7160e01b885260416004528588fd5b60405162461bcd60e51b8152600481018590526026818701527f4d61726b65744d616e616765723a20546f6b656e20616c7265616479207375706044820152651c1bdc9d195960d21b6064820152608490fd5b60405162461bcd60e51b8152602060048201526023818601527f4d61726b65744d616e616765723a20496e76616c696420746f6b656e2073796d604482015262189bdb60ea1b6064820152608490fd5b60405162461bcd60e51b8152602060048201528085018590527f4d61726b65744d616e616765723a20496e76616c696420746f6b656e206164646044820152637265737360e01b6064820152608490fd5b50346103675780600319360112610367576125b5614cf3565b600080546001600160a01b0319811682556001600160a01b0316600080516020615eed8339815191528280a380f35b5034610367576020806003193601126105f6576004358252600581526040822091604051809384918482549182815201918452848420935b858282106126475750505061263392500383614b69565b6103b96040519282849384528301906149be565b85546001600160a01b031684526001958601958895509301920161261c565b503461036757806003193601126103675760405160198054808352908352602080830193600080516020615f6d83398151915292915b8282106126b3576103b985611e5e81890382614b69565b83548652948501946001938401939091019061269c565b50346103675760203660031901126103675760209060ff906040906001600160a01b036126f5614888565b168152600784522054166040519015158152f35b50346103675760209081600319360112610367576004359182825260018152604082209260ff600c8501541660058110156110f757600261274a9114615625565b600d8401549161275b83151561567c565b818452600281526040842033600052815261277d60ff604060002054166156c7565b600c546040516307c7a72d60e01b81526001600160a01b039182169491908381806127ac338960048401614f16565b0381895afa8015611032578790612aac575b6127c9915015615713565b600487015416906040519063423e7bc160e11b82528382806127f086338a6004850161528c565b0381895afa918215611032578792612a7d575b506040519063dc4ce34960e01b9889835285838061282688868c6004850161575f565b03818b5afa928315611d9f578993612a4e575b50889960036001920154915b828111156129b7575050604051634f44289d60e01b8152899594939291508a878280612875898d60048401614f16565b03818d5afa918215611032578792612983575b509061289391614de3565b9082612920575050505081945b803b15611d16578583916128cd9383604051809681958294632f0041ed60e11b8452338d6004860161520a565b03925af180156105eb5761290c575b50507f5380cf6fe903b40c6d5a9e0dfbca2f3a423f0a21520b4d5947ed5169bdba946d906040519384523393a380f35b61291590614b1f565b6105e75783856128dc565b8786929394959652600487526040822033600052875260406000205414600014612977575061232890818102918183041490151715610dd45791610fd661297192610fd16127108b97960484614dba565b946128a0565b939250505081946128a0565b88809298508193503d83116129b0575b61299d8183614b69565b8101031261102657518995612893612888565b503d612993565b8381036129cd575b6129c890614df0565b612845565b9a6129ec88888c8f8d604051958694859384938b85526004850161575f565b03915afa908115612a43578c91612a14575b50612a0c906129c892614de3565b9b90506129bf565b90508881813d8311612a3c575b612a2b8183614b69565b8101031261102657516129c86129fe565b503d612a21565b6040513d8e823e3d90fd5b9092508581813d8311612a76575b612a668183614b69565b8101031261102657519138612839565b503d612a5c565b9091508381813d8311612aa5575b612a958183614b69565b8101031261102657519038612803565b503d612a8b565b508381813d8311612adf575b612ac28183614b69565b81010312612adb57612ad66127c99161538a565b6127be565b8680fd5b503d612ab8565b5034610367578060031936011261036757604051601780548083529083526020808301937fc624b66cc0138b8fabc209247f72d758e1cf3343756d543badbf24212bed8c1592915b828210612b45576103b985611e5e81890382614b69565b835486529485019460019384019390910190612b2e565b50610120366003190112610367576004356001600160401b0381116105f657612b89903690600401614ba7565b90612b92614c04565b6064356001600160a01b038116900361102657338252600a602052612bbe60ff60408420541615614d1f565b82511561368b57600260443510158061367e575b1561362e57608435156135ea5760a435156135965760c435151580613588575b156135345760115460e435106134ed5760e435610104351061348b578015613451576064356001600160a01b0316156133ee576064356001600160a01b031682526007602052604082205460ff161561339f575b601054341061334957603c60e4350260e4358104603c1460e43515171561199f57612c719042614de3565b603c6101043502610104358104603c1461010435151715611acd57612c969042614de3565b906202a30082018211611acd57600f5493612cb085614df0565b600f55604051612cbf81614b32565b338152602080820188815286151560408085019190915260443560608501526064356001600160a01b03908116608086015260843560a086015260a43560c086015260c43560e086015242610100860152610120850187905261014085018890526202a300880161016086015261018085018690526101a085018690526101c0850186905289865260019093528420835181546001600160a01b0319169316929092178255518051919291906001600160401b038211613335578190612d886001860154614c13565b601f8111613302575b50602090601f8311600114613293578692613288575b50508160011b916000199060031b1c19161760018301555b612dd26040820151151560028401614e22565b606081015160038301556004820160018060a01b0360808301511660018060a01b031982541617905560a0810151600583015560c0810151600683015560e0810151600783015561010081015160088301556101208101516009830155610140810151600a830155610160810151600b830155600c82016101808201516005811015610b3057612e869392600e926101c09260ff801983541691161790556101a0810151600d850155015115159101614e22565b601454600160401b81101561145e5785612ea9826001612ec2940160145561491a565b90919082549060031b91821b91600019901b1916179055565b848152601560205260408120805460ff191660011790556064356001600160a01b03166131ee57601054612ef860a43582614de3565b34106131bc5781808080612f209460018060a01b038254165af1612f1a614e56565b50614e86565b8080808060a43560018060a01b03600c54165af1612f3c614e56565b5015613154575b848152600260205260408120336000526020526040600020600160ff198254161790558481526004602052604081203360005260205260c4356040600020553381526016602052612f978560408320614e33565b600c546001600160a01b0316803b156105f6578160405180926395f4109560e01b8252818381612fd760c4358d60a4359060643590339060048701614ee6565b03925af180156105eb57908291613140575b5050600e546001600160a01b031680613091575b50506020946202a30085937f5d0726a1bb5ec8c87527e69ba86d988202e885fad8f2b4aacd618793d6f297b2936130416040519461012086526101208601906149fb565b961515848a015260443560408501526064356001600160a01b0316606085015260843560808501524260a085015260c084015260e0830181905201610100820152339381900390a3604051908152f35b803b156105f65781604051809263782a780560e11b82528183816130b9338d60048401614f16565b03925af180156105eb5790829161312c575b5050600e546001600160a01b0316803b156105f65760405163c228038d60e01b8152908290829081838161310960a43560c435338f60048601614f2f565b03925af180156105eb5715612ffd576131228291614b1f565b6103675780612ffd565b61313590614b1f565b6103675780386130cb565b61314990614b1f565b610367578038612fe9565b60405162461bcd60e51b815260206004820152603a60248201527f4d61726b65744d616e616765723a2043726561746f72206465706f73697420746044820152791c985b9cd9995c881d1bc8151c99585cdd5c9e4819985a5b195960321b6064820152608490fd5b606460405162461bcd60e51b81526020600482015260206024820152600080516020615f2d8339815191526044820152fd5b60105480341061323b57818080806132149460018060a01b038254165af1612f1a614e56565b600c546132369060a435906001600160a01b0390811690339060643516614f75565b612f43565b60405162461bcd60e51b81526020600482015260316024820152600080516020615f2d83398151915260448201527020666f72206372656174696f6e2066656560781b6064820152608490fd5b015190503880612da7565b9250600185018652602086209086935b601f19841685106132e7576001945083601f198116106132ce575b505050811b016001830155612dbf565b015160001960f88460031b161c191690553880806132be565b818101518355602094850194600190930192909101906132a3565b61332f9060018701885260208820601f850160051c8101916020861061248b57601f0160051c0190614e0b565b38612d91565b634e487b7160e01b85526041600452602485fd5b60405162461bcd60e51b815260206004820152602860248201527f4d61726b65744d616e616765723a20496e73756666696369656e74206372656160448201526774696f6e2066656560c01b6064820152608490fd5b60405162461bcd60e51b81526020600482015260336024820152600080516020615ead83398151915260448201527232b2103337b91036bab63a3496b7b83a34b7b760691b6064820152608490fd5b60405162461bcd60e51b815260206004820152603560248201527f4d61726b65744d616e616765723a204d756c74692d6f7074696f6e206d61726b60448201527432ba39903932b8bab4b93290281928103a37b5b2b760591b6064820152608490fd5b6064356001600160a01b031615612c46576064356001600160a01b03168252600760205260408220546134869060ff16614d75565b612c46565b60405162461bcd60e51b815260206004820152603460248201527f4d61726b65744d616e616765723a205265736f6c7574696f6e206d7573742062604482015273194818599d195c881cdd185ad9481c195c9a5bd960621b6064820152608490fd5b60405162461bcd60e51b815260206004820152602b6024820152600080516020615ecd83398151915260448201526a35b290323ab930ba34b7b760a91b6064820152608490fd5b60405162461bcd60e51b815260206004820152602660248201527f4d61726b65744d616e616765723a20496e76616c69642063726561746f72206f6044820152657574636f6d6560d01b6064820152608490fd5b5060443560c4351115612bf2565b60405162461bcd60e51b815260206004820152602660248201527f4d61726b65744d616e616765723a20496e76616c69642063726561746f722064604482015265195c1bdcda5d60d21b6064820152608490fd5b606460405162461bcd60e51b815260206004820152602060248201527f4d61726b65744d616e616765723a20496e76616c6964206d696e207374616b656044820152fd5b60405162461bcd60e51b815260206004820152602260248201527f4d61726b65744d616e616765723a20496e76616c6964206d6178206f7074696f6044820152616e7360f01b6064820152608490fd5b50600a6044351115612bd2565b606460405162461bcd60e51b815260206004820152602060248201527f4d61726b65744d616e616765723a20496e76616c6964204950465320686173686044820152fd5b5034610367578060031936011261036757600c546040516001600160a01b039091168152602090f35b50346103675761145b61370a36614bee565b906153b4565b50346103675780600319360112610367576020601454604051908152f35b5034610367576020806003193601126105f65760043580835260018252604083209160ff600c840154166005811015610b3057600303613a7857818452600281526040842033600052815260ff604060002054168015613a58575b15613a0a578392828552600282526040852033600052825260ff6040600020541661396f575b828552600382526040852033600052825260ff604060002054166138bc575b831561386c57600c5460049091015485916001600160a01b039182169116803b15611d1657858391613819938360405180968195829463164fcd7d60e21b8452338d6004860161520a565b03925af180156105eb57613858575b50507ff3f402280ef0a7905e124aa621b65eaeb2725c343e8b36d398ed78c29daf285c906040519384523393a380f35b61386190614b1f565b6105e7578338613828565b60405162461bcd60e51b815260048101839052602260248201527f4d61726b65744d616e616765723a204e6f20726566756e6420617661696c61626044820152616c6560f01b6064820152608490fd5b926138f3908260018060a01b0380600c54169060048801541690604051808096819463256ba74160e01b8352338b6004850161528c565b03915afa908115613964578691613933575b61390f9250614de3565b928285526003825260408520336000528252604060002060ff1981541690556137ce565b90508282813d831161395d575b61394a8183614b69565b810103126110265761390f915190613905565b503d613940565b6040513d88823e3d90fd5b92506139a68160018060a01b0380600c54169060048701541690604051808095819463423e7bc160e11b8352338a6004850161528c565b03915afa9081156109885785916139dd575b50928285526002825260408520336000528252604060002060ff1981541690556137af565b90508181813d8311613a03575b6139f48183614b69565b810103126110265751386139b8565b503d6139ea565b6084906040519062461bcd60e51b82526004820152602160248201527f4d61726b65744d616e616765723a204e6f207374616b6520746f20726566756e6044820152601960fa1b6064820152fd5b50818452600381526040842033600052815260ff60406000205416613789565b6084906040519062461bcd60e51b82526004820152602360248201527f4d61726b65744d616e616765723a204d61726b6574206e6f742063616e63656c6044820152621b195960ea1b6064820152fd5b5034610367576040366003190112610367576004356024356001600160401b038111611d1657613afc903690600401614ba7565b613b04614cf3565b613b11600f548310615c83565b81835260209060018252613b3260018060a01b036040862054161515615cce565b8284526001825260ff600c604086200154166005811015610b3057600414613be957828452600182526040808520600c01805460ff1916600417905583855260188352842042905560175491600160401b83101561145e57613bad84612ea9856001600080516020615e6d8339815191529701601755614935565b8385526015815260ff604086205416613bdb575b613bd56040519282849384528301906149fb565b0390a280f35b613be484615d26565b613bc1565b60405162461bcd60e51b815260048101839052601e60248201527f4d61726b65744d616e616765723a20416c72656164792064656c6574656400006044820152606490fd5b5034610367578060031936011261036757600d546040516001600160a01b039091168152602090f35b503461036757604036600319011261036757611154906020613c7761489e565b60018060a01b03600c54166040518080968194634f44289d60e01b835260043560048401614f16565b503461036757602036600319011261036757600435613cbd614cf3565b8015613cc95760115580f35b60405162461bcd60e51b815260206004820152602760248201527f4d61726b65744d616e616765723a20496e76616c6964206d696e696d756d20646044820152663ab930ba34b7b760c91b6064820152608490fd5b50346103675780600319360112610367576020600f54604051908152f35b5034610367576020806003193601126105f657613e6160043591613d5e615dca565b50828452600190818152604085209360405195613d7a87614b32565b85546001600160a01b039081168852613d94858801614c4d565b8489015260ff6002880154161515604089015260038701546060890152806004880154169160808901928352600588015460a08a0152600688015460c08a0152600788015460e08a015260ff600e60088a0154996101009a8b8d015260098101546101208d0152600a8101546101408d0152600b8101546101608d0152613e268c61018085600c850154169101614dff565b600d8101546101a08d015201541615156101c08a015281600c54168583855116604051809a8192633d1e7ba160e11b83528960048401614f16565b0381845afa9788156105eb57829861401a575b509085613e9c9284865116906040518080968194634f44289d60e01b83528b60048401614f16565b03915afa91821561400d578192613fde575b5084815260058652604081205492600687526040822054946005885260408320968960405180998a918c825491828152019188528c8089209489915b838310613fc55750505050613f0192500389614b69565b83526006885260408320604051809a8a835492838152019286528a862091865b818110613fb057505050506040613f949794613fa29a97948c9a9794613f506103b99f9e613f5e96038d614b69565b511681526008885220614c4d565b98613f746040519d8d8f9e8f9081520190614a5e565b958c015260408b015260608a0152608089015287820360a08901526149be565b9085820360c08701526149be565b9083820360e08501526149fb565b835487168552938c0193928201928201613f21565b86548a168552958101958e955090930192018e8e613eea565b9091508581813d8311614006575b613ff68183614b69565b8101031261102657519038613eae565b503d613fec565b50604051903d90823e3d90fd5b919097508582813d8311614044575b6140338183614b69565b810103126110265790519685613e74565b503d614029565b5034610367576020806003193601126105f65760043580835260018252604083206003835260408420338552835261408960ff604086205416615232565b60ff600c820154166005811015610b3057806142335750600981015461a8bf19810190811161421f574210156141b4575b8360018060a01b03600481600c541693015416916040519063256ba74160e01b82528582806140ee87338a6004850161528c565b0381845afa91821561060e578392614185575b5061410d821515615232565b803b15611d165761413793836040518096819582946317be0b2f60e11b8452338b6004860161520a565b03925af1801561417a57614167575b5082526003815260408220903360005252604060002060ff19815416905580f35b61417390939193614b1f565b9138614146565b6040513d86823e3d90fd5b9091508581813d83116141ad575b61419d8183614b69565b81010312611d1657519038614101565b503d614193565b60405162461bcd60e51b815260048101849052603d60248201527f4d61726b65744d616e616765723a2043616e6e6f74207769746864726177207760448201527f697468696e20313220686f757273206f66207374616b696e6720656e640000006064820152608490fd5b634e487b7160e01b85526011600452602485fd5b600481149081156142a8575b506140ba5760405162461bcd60e51b815260048101849052603660248201527f4d61726b65744d616e616765723a2043616e6e6f7420776974686472617720696044820152756e2063757272656e74206d61726b657420737461746560501b6064820152608490fd5b60039150143861423f565b5034610367578060031936011261036757604051809182600b54808452602080940190600b8452848420935b858282106142f65750505061263392500383614b69565b85546001600160a01b03168452600195860195889550930192016142df565b50346103675760203660031901126103675760043590601454821015610367576020611f168361491a565b5034610367576020806003193601126105f6576001600160a01b03614363614888565b1682526016815260408220916040518092808554928381520194835280832092905b82821061439c576103b985611e5e81890382614b69565b835486529485019460019384019390910190614385565b50346103675760403660031901126103675760ff60406020926143d461489e565b6004358252600285528282206001600160a01b03909116825284522054604051911615158152f35b50346103675780600319360112610367576020601054604051908152f35b5034610367576020366003190112610367576004359060095482101561036757602061161e836148e9565b50346103675760203660031901126103675760209060ff906040906001600160a01b03614470614888565b168152600a84522054166040519015158152f35b50346103675760403660031901126103675760ff60406020926144a561489e565b6004358252600385528282206001600160a01b03909116825284522054604051911615158152f35b50346103675761451060206144e1366148b4565b600c5460405163256ba74160e01b81529586946001600160a01b0390921693859384939091906004850161528c565b03915afa9081156105eb57829161452d575b602082604051908152f35b90506020813d821161455a575b8161454760209383614b69565b810103126105f657602091505138614522565b3d915061453a565b50346103675780600319360112610367576020601154604051908152f35b5034610367576020366003190112610367576004358152600160205260408120600c81019081549060ff82166005811015610b3057906145c2600a921561500d565b015442106145d65760ff1916600117905580f35b60405162461bcd60e51b815260206004820152602a60248201527f4d61726b65744d616e616765723a205265736f6c7574696f6e2074696d65206e6044820152691bdd081c995858da195960b21b6064820152608490fd5b50346103675760203660031901126103675760ff60406020926004358152601584522054166040519015158152f35b50346103675760203660031901126103675760406020916004358152600583522054604051908152f35b5034610367576020806003193601126105f657600435906146a6614cf3565b6146b3600f548310615c83565b818352600180825260408420546146d4906001600160a01b03161515615cce565b82845280825260ff600c604086200154166005811015610b305760026146fa9114615625565b828452808252600b60408520015462278d00810180911161421f5742106148355782845280825283600e60408220828155614736848201615c0f565b82600282015582600382015582600482015582600582015582600682015582600782015582600882015582600982015582600a82015582600b82015582600c82015582600d82015501558284526015825260ff604085205416614827575b60195490600160401b8210156133355781018060195581101561481357600080516020615e6d83398151915291836080926019875282872001556026604051918083528201527f5065726d616e656e746c792072656d6f76656420616674657220636c61696d206040820152651c195c9a5bd960d21b6060820152a280f35b634e487b7160e01b84526032600452602484fd5b61483083615d26565b614794565b60405162461bcd60e51b815260048101839052602560248201527f4d61726b65744d616e616765723a20436c61696d20706572696f64206e6f7420604482015264195b99195960da1b6064820152608490fd5b600435906001600160a01b038216820361102657565b602435906001600160a01b038216820361102657565b606090600319011261102657600435906001600160a01b03906024358281168103611026579160443590811681036110265790565b60095481101561490457600960005260206000200190600090565b634e487b7160e01b600052603260045260246000fd5b60145481101561490457601460005260206000200190600090565b60175481101561490457601760005260206000200190600090565b600b5481101561490457600b60005260206000200190600090565b80548210156149045760005260206000200190600090565b6020908160408183019282815285518094520193019160005b8281106149aa575050505090565b83518552938101939281019260010161499c565b90815180825260208080930193019160005b8281106149de575050505090565b83516001600160a01b0316855293810193928101926001016149d0565b919082519283825260005b848110614a27575050826000602080949584010152601f8019910116010190565b602081830181015184830182015201614a06565b906005821015614a485752565b634e487b7160e01b600052602160045260246000fd5b9060018060a01b0391828151168252614a8660208201516101e08060208601528401906149fb565b9260408201511515604084015260608201516060840152608082015116608083015260a081015160a083015260c081015160c083015260e081015160e08301526101008082015190830152610120808201519083015261014080820151908301526101608082015190830152614b056101808083015190840190614a3b565b6101a080820151908301526101c080910151151591015290565b6001600160401b03811161145e57604052565b6101e081019081106001600160401b0382111761145e57604052565b604081019081106001600160401b0382111761145e57604052565b601f909101601f19168101906001600160401b0382119082101761145e57604052565b6001600160401b03811161145e57601f01601f191660200190565b81601f8201121561102657803590614bbe82614b8c565b92614bcc6040519485614b69565b8284526020838301011161102657816000926020809301838601378301015290565b6040906003190112611026576004359060243590565b60243590811515820361102657565b90600182811c92168015614c43575b6020831014614c2d57565b634e487b7160e01b600052602260045260246000fd5b91607f1691614c22565b9060405191826000825492614c6184614c13565b908184526001948581169081600014614cd05750600114614c8d575b5050614c8b92500383614b69565b565b9093915060005260209081600020936000915b818310614cb8575050614c8b93508201013880614c7d565b85548884018501529485019487945091830191614ca0565b915050614c8b94506020925060ff191682840152151560051b8201013880614c7d565b6000546001600160a01b03163303614d0757565b60405163118cdaa760e01b8152336004820152602490fd5b15614d2657565b60405162461bcd60e51b815260206004820152602160248201527f4d61726b65744d616e616765723a2057616c6c657420626c61636b6c697374656044820152601960fa1b6064820152608490fd5b15614d7c57565b60405162461bcd60e51b81526020600482015260226024820152600080516020615ead833981519152604482015261195960f21b6064820152608490fd5b81810292918115918404141715614dcd57565b634e487b7160e01b600052601160045260246000fd5b91908201809211614dcd57565b6000198114614dcd5760010190565b6005821015614a485752565b818110614e16575050565b60008155600101614e0b565b9060ff801983541691151516179055565b80549190600160401b83101561145e5782612ea9916001614c8b9501815561496b565b3d15614e81573d90614e6782614b8c565b91614e756040519384614b69565b82523d6000602084013e565b606090565b15614e8d57565b60405162461bcd60e51b815260206004820152602b60248201527f4d61726b65744d616e616765723a20466565207472616e7366657220746f206f60448201526a1ddb995c8819985a5b195960aa1b6064820152608490fd5b9081526001600160a01b039182166020820152911660408201526060810191909152608081019190915260a00190565b9081526001600160a01b03909116602082015260400190565b909493926060926080830196835260018060a01b0316602083015260408201520152565b6001600160a01b03918216815291166020820152604081019190915260600190565b9290600091614fae602094614fa0604051938492888401966323b872dd60e01b885260248501614f53565b03601f198101835282614b69565b519082855af115615001576000513d614ff857506001600160a01b0381163b155b614fd65750565b604051635274afe760e01b81526001600160a01b039091166004820152602490fd5b60011415614fcf565b6040513d6000823e3d90fd5b1561501457565b606460405162461bcd60e51b815260206004820152602060248201527f4d61726b65744d616e616765723a204d61726b6574206e6f74206163746976656044820152fd5b91908203918211614dcd57565b1561506c57565b60405162461bcd60e51b815260206004820152604d60248201527f4d61726b65744d616e616765723a205374616b696e6720706572696f6420656e60448201527f646564202d206e6f207374616b657320616c6c6f77656420696e20726573747260648201526c1a58dd1a5bdb881c195c9a5bd9609a1b608482015260a490fd5b156150f457565b60405162461bcd60e51b815260206004820152601d60248201527f4d61726b65744d616e616765723a20496e76616c6964206f7074696f6e0000006044820152606490fd5b1561514057565b60405162461bcd60e51b81526020600482015260226024820152600080516020615ecd8339815191526044820152616b6560f01b6064820152608490fd5b80549190600160401b83101561145e578261143c916001614c8b9501815561496b565b156151a857565b60405162461bcd60e51b815260206004820152603460248201527f4d61726b65744d616e616765723a20537570706f727420616d6f756e74206d75604482015273073742062652067726561746572207468616e20360641b6064820152608490fd5b9081526001600160a01b03918216602082015291166040820152606081019190915260800190565b1561523957565b60405162461bcd60e51b815260206004820152602560248201527f4d61726b65744d616e616765723a204e6f20737570706f727420746f20776974604482015264686472617760d81b6064820152608490fd5b9081526001600160a01b0391821660208201529116604082015260600190565b156152b357565b60405162461bcd60e51b815260206004820152602860248201527f4d61726b65744d616e616765723a204d61726b6574206e6f7420696e20656e64604482015267656420737461746560c01b6064820152608490fd5b1561531057565b60405162461bcd60e51b815260206004820152601f60248201527f4d61726b65744d616e616765723a20416c7265616479207265736f6c766564006044820152606490fd5b6040519061536282614b4e565b601982527814995cdbdb1d5d1a5bdb881c195c9a5bd908195e1c1a5c9959603a1b6020830152565b5190811515820361102657565b91908260409103126110265760206153ae8361538a565b92015190565b9060008281526001602052604090818120600c810160ff81541660058110156110f75760016153e391146152ac565b84151580615617575b156155c557600e820161540360ff82541615615309565b600b8301544210156155b357600d548551633313865560e21b8152600481018990526001600160a01b03949187908290602490829089165afa80156155a957889087928891615586575b508261557c575b50501561551557600d01869055805460ff19908116600117909155815416600217905561548085615804565b600e5416806154a6575b5050600080516020615f0d8339815191529160209151908152a2565b803b156105f657818091604485518095819362ff4a7360e81b83528a60048401528960248401525af190811561550a575091600080516020615f0d83398151915293916020936154fb575b509181935061548a565b61550490614b1f565b386154f1565b8351903d90823e3d90fd5b855162461bcd60e51b815260206004820152603a60248201527f4d61726b65744d616e616765723a20496e73756666696369656e7420766572696044820152793334b2b9103b37ba32b9903337b9103a3434b99037b83a34b7b760311b6064820152608490fd5b1490508738615454565b90506155a0919250883d8a11611d9857611d888183614b69565b9190913861544d565b87513d88823e3d90fd5b505050505050614c8b906120f1615355565b835162461bcd60e51b815260206004820152602560248201527f4d61726b65744d616e616765723a20496e76616c69642077696e6e696e67206f604482015264383a34b7b760d91b6064820152608490fd5b5060038201548511156153ec565b1561562c57565b60405162461bcd60e51b815260206004820152602260248201527f4d61726b65744d616e616765723a204d61726b6574206e6f74207265736f6c76604482015261195960f21b6064820152608490fd5b1561568357565b606460405162461bcd60e51b815260206004820152602060248201527f4d61726b65744d616e616765723a204e6f2077696e6e696e67206f7074696f6e6044820152fd5b156156ce57565b60405162461bcd60e51b815260206004820152601e60248201527f4d61726b65744d616e616765723a204e6f207374616b6520706c6163656400006044820152606490fd5b1561571a57565b60405162461bcd60e51b815260206004820152601e60248201527f4d61726b65744d616e616765723a20416c726561647920636c61696d656400006044820152606490fd5b90815260208101919091526001600160a01b03909116604082015260600190565b811561578a570490565b634e487b7160e01b600052601260045260246000fd5b906157e4600080516020615e6d83398151915291836000526001602052600c604060002001600360ff198254161790556040519182916020835260208301906149fb565b0390a2565b6001600160a01b039091168152602081019190915260400190565b6000908082526020906001825260409182842091849160019085600386015493600d870154945b80851115615b595750600c54600480890180549451634f44289d60e01b81526001600160a01b039a91999298958b16975094928a1693909290918686806158758b87838f01614f16565b0381885afa958615615b4f5791889188938f98615b0d575b506158b69761589b91614de3565b508c5163dc4ce34960e01b81529687928392868d850161575f565b0381865afa938415615ac857859187918d96615ad2575b508b51633d1e7ba160e11b81529291839182916158ec918c8401614f16565b0381865afa948515615ac8578b95615a94575b50506101f4928385029585159486880414851715615a8157612710809704938a8515159485615a1b575b50505050156000146159d557505061251c8083029283041417156159c257049283615957575b505050505050565b80600c541692541690823b15610993579184939186809461598b97519788958694859363f0824f3360e01b855284016157e9565b03925af19081156159b957506159a5575b8080808061594f565b6159af8291614b1f565b610367578061599c565b513d84823e3d90fd5b634e487b7160e01b875260118352602487fd5b9250959250506159e757505050505050565b80600c541692541690823b15610993579184939186809461598b9751978895869485936348fef59560e01b855284016157e9565b5416813b15615a7d57918d918693838f615a498e91519788968795869463112cd22360e01b86528501614f53565b03925af18015615a7357615a60575b808a81615929565b615a6c909b919b614b1f565b9938615a58565b8b513d8e823e3d90fd5b8d80fd5b634e487b7160e01b8c526011885260248cfd5b9080929550813d8311615ac1575b615aac8183614b69565b81010312615abd57519238806158ff565b8980fd5b503d615aa2565b8a513d8d823e3d90fd5b92839196508092503d8311615b06575b615aec8183614b69565b81010312615b02575192849086906158ec6158cd565b8a80fd5b503d615ae2565b92509290939495965081813d8311615b48575b615b2a8183614b69565b81010312615b44575194939291869188919061589b61588d565b8c80fd5b503d615b20565b8c513d8f823e3d90fd5b91509192848103615b77575b615b6e90614df0565b9291879161582b565b9487848760018060a01b03868b615bae83600c5416936004809301541696519687958694859463dc4ce34960e01b8652850161575f565b03915afa908115615c05578a91615bd6575b50615bce90615b6e92614de3565b959050615b65565b90508481813d8311615bfe575b615bed8183614b69565b81010312615abd5751615b6e615bc0565b503d615be3565b89513d8c823e3d90fd5b615c198154614c13565b9081615c23575050565b81601f60009311600114615c35575055565b908083918252615c54601f60208420940160051c840160018501614e0b565b5555565b6001600160401b03811161145e5760051b60200190565b80518210156149045760209160051b010190565b15615c8a57565b606460405162461bcd60e51b815260206004820152602060248201527f4d61726b65744d616e616765723a20496e76616c6964206d61726b65742049446044820152fd5b15615cd557565b60405162461bcd60e51b8152602060048201526024808201527f4d61726b65744d616e616765723a204d61726b657420646f6573206e6f7420656044820152631e1a5cdd60e21b6064820152608490fd5b60005b60149081549182821015615dc4578392615d428361491a565b949054600395861b1c14615d61575050615d5c9150614df0565b615d29565b90916000199180830191908211614dcd57612ea9615d81615d8d9361491a565b905490871b1c9161491a565b8154801561152457810192615da18461491a565b81939154921b1b19169055556000526015602052604060002060ff198154169055565b50505050565b60405190615dd782614b32565b816101c0600091828152606060208201528260408201528260608201528260808201528260a08201528260c08201528260e08201528261010082015282610120820152826101408201528261016082015282610180820152826101a08201520152565b90615e4482615c58565b615e516040519182614b69565b8281528092615e62601f1991615c58565b019060203691013756fe4c4561c5b0048424071c1115e9f1e325486e21c21333d968f21097b7b72d12ad4d61726b65744d616e616765723a2054686973206d61726b65742075736573204d61726b65744d616e616765723a20546f6b656e206e6f7420737570706f72744d61726b65744d616e616765723a2042656c6f77206d696e696d756d207374618be0079c531659141344cd1fd0a4f28419497f9722a3daafe3b4186f6b6457e06dfc24f0f2fb42e49fb4fa3ffa8abb148cab908a1fb8335b3f128a08b2594af14d61726b65744d616e616765723a20496e73756666696369656e742050455055e10fdde2c5cd9b92e449ee25df01febda2cbebc5553e38f2250ffe7f2d5143bc944998273e477b495144fb8794c914197f3ccb46be2900f4698fd0ef743c9695a2646970667358221220997925d21f0ff7246ad40bfc75ca41f49ea2fbb390b5c29abec310c77a9eb80264736f6c63430008140033",
  "linkReferences": {},
  "deployedLinkReferences": {}
}