{
  "_format": "hh-sol-artifact-1",
  "contractName": "EventPool",
  "sourceName": "contracts/P2PMarketManager.sol",
  "abi": [
    {
      "inputs": [
        {
          "internalType": "address",
          "name": "initialOwner",
          "type": "address"
        },
        {
          "internalType": "address payable",
          "name": "_treasury",
          "type": "address"
        },
        {
          "internalType": "address",
          "name": "_adminManager",
          "type": "address"
        }
      ],
      "stateMutability": "nonpayable",
      "type": "constructor"
    },
    {
      "inputs": [
        {
          "internalType": "address",
          "name": "owner",
          "type": "address"
        }
      ],
      "name": "OwnableInvalidOwner",
      "type": "error"
    },
    {
      "inputs": [
        {
          "internalType": "address",
          "name": "account",
          "type": "address"
        }
      ],
      "name": "OwnableUnauthorizedAccount",
      "type": "error"
    },
    {
      "inputs": [
        {
          "internalType": "address",
          "name": "token",
          "type": "address"
        }
      ],
      "name": "SafeERC20FailedOperation",
      "type": "error"
    },
    {
      "anonymous": false,
      "inputs": [
        {
          "indexed": true,
          "internalType": "uint256",
          "name": "marketId",
          "type": "uint256"
        },
        {
          "indexed": false,
          "internalType": "string",
          "name": "reason",
          "type": "string"
        }
      ],
      "name": "MarketCancelled",
      "type": "event"
    },
    {
      "anonymous": false,
      "inputs": [
        {
          "indexed": true,
          "internalType": "uint256",
          "name": "marketId",
          "type": "uint256"
        },
        {
          "indexed": true,
          "internalType": "address",
          "name": "creator",
          "type": "address"
        },
        {
          "indexed": false,
          "internalType": "string",
          "name": "ipfsHash",
          "type": "string"
        },
        {
          "indexed": false,
          "internalType": "bool",
          "name": "isMultiOption",
          "type": "bool"
        },
        {
          "indexed": false,
          "internalType": "uint256",
          "name": "maxOptions",
          "type": "uint256"
        },
        {
          "indexed": false,
          "internalType": "address",
          "name": "paymentToken",
          "type": "address"
        },
        {
          "indexed": false,
          "internalType": "uint256",
          "name": "minStake",
          "type": "uint256"
        },
        {
          "indexed": false,
          "internalType": "uint256",
          "name": "startTime",
          "type": "uint256"
        },
        {
          "indexed": false,
          "internalType": "uint256",
          "name": "stakeEndTime",
          "type": "uint256"
        },
        {
          "indexed": false,
          "internalType": "uint256",
          "name": "endTime",
          "type": "uint256"
        },
        {
          "indexed": false,
          "internalType": "uint256",
          "name": "resolutionEndTime",
          "type": "uint256"
        }
      ],
      "name": "MarketCreated",
      "type": "event"
    },
    {
      "anonymous": false,
      "inputs": [
        {
          "indexed": true,
          "internalType": "uint256",
          "name": "marketId",
          "type": "uint256"
        },
        {
          "indexed": false,
          "internalType": "uint256",
          "name": "winningOption",
          "type": "uint256"
        }
      ],
      "name": "MarketResolved",
      "type": "event"
    },
    {
      "anonymous": false,
      "inputs": [
        {
          "indexed": true,
          "internalType": "address",
          "name": "previousOwner",
          "type": "address"
        },
        {
          "indexed": true,
          "internalType": "address",
          "name": "newOwner",
          "type": "address"
        }
      ],
      "name": "OwnershipTransferred",
      "type": "event"
    },
    {
      "anonymous": false,
      "inputs": [
        {
          "indexed": true,
          "internalType": "uint256",
          "name": "marketId",
          "type": "uint256"
        },
        {
          "indexed": true,
          "internalType": "address",
          "name": "user",
          "type": "address"
        },
        {
          "indexed": false,
          "internalType": "uint256",
          "name": "amount",
          "type": "uint256"
        }
      ],
      "name": "RefundClaimed",
      "type": "event"
    },
    {
      "anonymous": false,
      "inputs": [
        {
          "indexed": true,
          "internalType": "uint256",
          "name": "marketId",
          "type": "uint256"
        },
        {
          "indexed": true,
          "internalType": "address",
          "name": "user",
          "type": "address"
        },
        {
          "indexed": false,
          "internalType": "uint256",
          "name": "option",
          "type": "uint256"
        },
        {
          "indexed": false,
          "internalType": "uint256",
          "name": "amount",
          "type": "uint256"
        }
      ],
      "name": "StakePlaced",
      "type": "event"
    },
    {
      "anonymous": false,
      "inputs": [
        {
          "indexed": true,
          "internalType": "uint256",
          "name": "marketId",
          "type": "uint256"
        },
        {
          "indexed": true,
          "internalType": "address",
          "name": "user",
          "type": "address"
        },
        {
          "indexed": false,
          "internalType": "uint256",
          "name": "amount",
          "type": "uint256"
        }
      ],
      "name": "WinningsClaimed",
      "type": "event"
    },
    {
      "inputs": [],
      "name": "CREATOR_FEE_BPS",
      "outputs": [
        {
          "internalType": "uint256",
          "name": "",
          "type": "uint256"
        }
      ],
      "stateMutability": "view",
      "type": "function"
    },
    {
      "inputs": [],
      "name": "PLATFORM_FEE_BPS",
      "outputs": [
        {
          "internalType": "uint256",
          "name": "",
          "type": "uint256"
        }
      ],
      "stateMutability": "view",
      "type": "function"
    },
    {
      "inputs": [],
      "name": "VERIFIER_FEE_BPS",
      "outputs": [
        {
          "internalType": "uint256",
          "name": "",
          "type": "uint256"
        }
      ],
      "stateMutability": "view",
      "type": "function"
    },
    {
      "inputs": [
        {
          "internalType": "uint256",
          "name": "",
          "type": "uint256"
        }
      ],
      "name": "activeMarkets",
      "outputs": [
        {
          "internalType": "uint256",
          "name": "",
          "type": "uint256"
        }
      ],
      "stateMutability": "view",
      "type": "function"
    },
    {
      "inputs": [],
      "name": "adminManager",
      "outputs": [
        {
          "internalType": "address",
          "name": "",
          "type": "address"
        }
      ],
      "stateMutability": "view",
      "type": "function"
    },
    {
      "inputs": [
        {
          "internalType": "uint256",
          "name": "marketId",
          "type": "uint256"
        }
      ],
      "name": "autoResolve",
      "outputs": [],
      "stateMutability": "nonpayable",
      "type": "function"
    },
    {
      "inputs": [
        {
          "internalType": "uint256",
          "name": "marketId",
          "type": "uint256"
        },
        {
          "internalType": "address",
          "name": "user",
          "type": "address"
        }
      ],
      "name": "calculateWinnings",
      "outputs": [
        {
          "internalType": "uint256",
          "name": "",
          "type": "uint256"
        }
      ],
      "stateMutability": "view",
      "type": "function"
    },
    {
      "inputs": [
        {
          "internalType": "uint256",
          "name": "marketId",
          "type": "uint256"
        }
      ],
      "name": "cancelMarket",
      "outputs": [],
      "stateMutability": "nonpayable",
      "type": "function"
    },
    {
      "inputs": [
        {
          "internalType": "uint256",
          "name": "marketId",
          "type": "uint256"
        }
      ],
      "name": "claimRefund",
      "outputs": [],
      "stateMutability": "nonpayable",
      "type": "function"
    },
    {
      "inputs": [
        {
          "internalType": "uint256",
          "name": "marketId",
          "type": "uint256"
        }
      ],
      "name": "claimWinnings",
      "outputs": [],
      "stateMutability": "nonpayable",
      "type": "function"
    },
    {
      "inputs": [
        {
          "internalType": "string",
          "name": "ipfsHash",
          "type": "string"
        },
        {
          "internalType": "bool",
          "name": "isMultiOption",
          "type": "bool"
        },
        {
          "internalType": "uint256",
          "name": "maxOptions",
          "type": "uint256"
        },
        {
          "internalType": "address",
          "name": "paymentToken",
          "type": "address"
        },
        {
          "internalType": "uint256",
          "name": "minStake",
          "type": "uint256"
        },
        {
          "internalType": "uint256",
          "name": "creatorDeposit",
          "type": "uint256"
        },
        {
          "internalType": "uint256",
          "name": "creatorOutcome",
          "type": "uint256"
        },
        {
          "internalType": "uint256",
          "name": "stakeDurationMinutes",
          "type": "uint256"
        },
        {
          "internalType": "uint256",
          "name": "resolutionDurationMinutes",
          "type": "uint256"
        }
      ],
      "name": "createMarket",
      "outputs": [
        {
          "internalType": "uint256",
          "name": "",
          "type": "uint256"
        }
      ],
      "stateMutability": "payable",
      "type": "function"
    },
    {
      "inputs": [
        {
          "internalType": "uint256",
          "name": "marketId",
          "type": "uint256"
        }
      ],
      "name": "creatorCancelMarket",
      "outputs": [],
      "stateMutability": "nonpayable",
      "type": "function"
    },
    {
      "inputs": [
        {
          "internalType": "uint256",
          "name": "marketId",
          "type": "uint256"
        }
      ],
      "name": "endMarket",
      "outputs": [],
      "stateMutability": "nonpayable",
      "type": "function"
    },
    {
      "inputs": [],
      "name": "getActiveMarketCount",
      "outputs": [
        {
          "internalType": "uint256",
          "name": "",
          "type": "uint256"
        }
      ],
      "stateMutability": "view",
      "type": "function"
    },
    {
      "inputs": [],
      "name": "getActiveMarkets",
      "outputs": [
        {
          "internalType": "uint256[]",
          "name": "",
          "type": "uint256[]"
        }
      ],
      "stateMutability": "view",
      "type": "function"
    },
    {
      "inputs": [],
      "name": "getAllMarketIds",
      "outputs": [
        {
          "internalType": "uint256[]",
          "name": "",
          "type": "uint256[]"
        }
      ],
      "stateMutability": "view",
      "type": "function"
    },
    {
      "inputs": [
        {
          "internalType": "uint256",
          "name": "marketId",
          "type": "uint256"
        }
      ],
      "name": "getMarket",
      "outputs": [
        {
          "components": [
            {
              "internalType": "address",
              "name": "creator",
              "type": "address"
            },
            {
              "internalType": "string",
              "name": "ipfsHash",
              "type": "string"
            },
            {
              "internalType": "bool",
              "name": "isMultiOption",
              "type": "bool"
            },
            {
              "internalType": "uint256",
              "name": "maxOptions",
              "type": "uint256"
            },
            {
              "internalType": "address",
              "name": "paymentToken",
              "type": "address"
            },
            {
              "internalType": "uint256",
              "name": "minStake",
              "type": "uint256"
            },
            {
              "internalType": "uint256",
              "name": "creatorDeposit",
              "type": "uint256"
            },
            {
              "internalType": "uint256",
              "name": "creatorOutcome",
              "type": "uint256"
            },
            {
              "internalType": "uint256",
              "name": "startTime",
              "type": "uint256"
            },
            {
              "internalType": "uint256",
              "name": "stakeEndTime",
              "type": "uint256"
            },
            {
              "internalType": "uint256",
              "name": "endTime",
              "type": "uint256"
            },
            {
              "internalType": "uint256",
              "name": "resolutionEndTime",
              "type": "uint256"
            },
            {
              "internalType": "enum EventPool.MarketState",
              "name": "state",
              "type": "uint8"
            },
            {
              "internalType": "uint256",
              "name": "winningOption",
              "type": "uint256"
            },
            {
              "internalType": "bool",
              "name": "isResolved",
              "type": "bool"
            }
          ],
          "internalType": "struct EventPool.Market",
          "name": "",
          "type": "tuple"
        }
      ],
      "stateMutability": "view",
      "type": "function"
    },
    {
      "inputs": [
        {
          "internalType": "uint256",
          "name": "marketId",
          "type": "uint256"
        }
      ],
      "name": "getMarketInfo",
      "outputs": [
        {
          "components": [
            {
              "internalType": "address",
              "name": "creator",
              "type": "address"
            },
            {
              "internalType": "string",
              "name": "ipfsHash",
              "type": "string"
            },
            {
              "internalType": "bool",
              "name": "isMultiOption",
              "type": "bool"
            },
            {
              "internalType": "uint256",
              "name": "maxOptions",
              "type": "uint256"
            },
            {
              "internalType": "address",
              "name": "paymentToken",
              "type": "address"
            },
            {
              "internalType": "uint256",
              "name": "minStake",
              "type": "uint256"
            },
            {
              "internalType": "uint256",
              "name": "creatorDeposit",
              "type": "uint256"
            },
            {
              "internalType": "uint256",
              "name": "creatorOutcome",
              "type": "uint256"
            },
            {
              "internalType": "uint256",
              "name": "startTime",
              "type": "uint256"
            },
            {
              "internalType": "uint256",
              "name": "stakeEndTime",
              "type": "uint256"
            },
            {
              "internalType": "uint256",
              "name": "endTime",
              "type": "uint256"
            },
            {
              "internalType": "uint256",
              "name": "resolutionEndTime",
              "type": "uint256"
            },
            {
              "internalType": "enum EventPool.MarketState",
              "name": "state",
              "type": "uint8"
            },
            {
              "internalType": "uint256",
              "name": "winningOption",
              "type": "uint256"
            },
            {
              "internalType": "bool",
              "name": "isResolved",
              "type": "bool"
            }
          ],
          "internalType": "struct EventPool.Market",
          "name": "market",
          "type": "tuple"
        },
        {
          "internalType": "uint256",
          "name": "totalPool",
          "type": "uint256"
        },
        {
          "internalType": "uint256",
          "name": "supportPool",
          "type": "uint256"
        },
        {
          "internalType": "uint256",
          "name": "stakerCount",
          "type": "uint256"
        },
        {
          "internalType": "uint256",
          "name": "supporterCount",
          "type": "uint256"
        },
        {
          "internalType": "address[]",
          "name": "stakers",
          "type": "address[]"
        },
        {
          "internalType": "address[]",
          "name": "supporters",
          "type": "address[]"
        },
        {
          "internalType": "string",
          "name": "tokenSymbol",
          "type": "string"
        }
      ],
      "stateMutability": "view",
      "type": "function"
    },
    {
      "inputs": [
        {
          "internalType": "uint256",
          "name": "marketId",
          "type": "uint256"
        }
      ],
      "name": "getMarketResolvingVerifiers",
      "outputs": [
        {
          "internalType": "address[]",
          "name": "",
          "type": "address[]"
        }
      ],
      "stateMutability": "view",
      "type": "function"
    },
    {
      "inputs": [
        {
          "internalType": "uint256",
          "name": "marketId",
          "type": "uint256"
        }
      ],
      "name": "getMarketStakers",
      "outputs": [
        {
          "internalType": "address[]",
          "name": "",
          "type": "address[]"
        }
      ],
      "stateMutability": "view",
      "type": "function"
    },
    {
      "inputs": [],
      "name": "getNextMarketId",
      "outputs": [
        {
          "internalType": "uint256",
          "name": "",
          "type": "uint256"
        }
      ],
      "stateMutability": "view",
      "type": "function"
    },
    {
      "inputs": [
        {
          "internalType": "uint256",
          "name": "marketId",
          "type": "uint256"
        },
        {
          "internalType": "uint256",
          "name": "option",
          "type": "uint256"
        },
        {
          "internalType": "address",
          "name": "token",
          "type": "address"
        }
      ],
      "name": "getOptionPool",
      "outputs": [
        {
          "internalType": "uint256",
          "name": "",
          "type": "uint256"
        }
      ],
      "stateMutability": "view",
      "type": "function"
    },
    {
      "inputs": [
        {
          "internalType": "uint256",
          "name": "marketId",
          "type": "uint256"
        }
      ],
      "name": "getStakerCount",
      "outputs": [
        {
          "internalType": "uint256",
          "name": "",
          "type": "uint256"
        }
      ],
      "stateMutability": "view",
      "type": "function"
    },
    {
      "inputs": [
        {
          "internalType": "uint256",
          "name": "marketId",
          "type": "uint256"
        },
        {
          "internalType": "address",
          "name": "token",
          "type": "address"
        }
      ],
      "name": "getSupportPool",
      "outputs": [
        {
          "internalType": "uint256",
          "name": "",
          "type": "uint256"
        }
      ],
      "stateMutability": "view",
      "type": "function"
    },
    {
      "inputs": [
        {
          "internalType": "uint256",
          "name": "marketId",
          "type": "uint256"
        }
      ],
      "name": "getSupporterCount",
      "outputs": [
        {
          "internalType": "uint256",
          "name": "",
          "type": "uint256"
        }
      ],
      "stateMutability": "view",
      "type": "function"
    },
    {
      "inputs": [
        {
          "internalType": "uint256",
          "name": "marketId",
          "type": "uint256"
        },
        {
          "internalType": "address",
          "name": "token",
          "type": "address"
        }
      ],
      "name": "getTotalPool",
      "outputs": [
        {
          "internalType": "uint256",
          "name": "",
          "type": "uint256"
        }
      ],
      "stateMutability": "view",
      "type": "function"
    },
    {
      "inputs": [
        {
          "internalType": "address",
          "name": "user",
          "type": "address"
        }
      ],
      "name": "getUserMarketHistory",
      "outputs": [
        {
          "internalType": "uint256[]",
          "name": "",
          "type": "uint256[]"
        }
      ],
      "stateMutability": "view",
      "type": "function"
    },
    {
      "inputs": [
        {
          "internalType": "uint256",
          "name": "marketId",
          "type": "uint256"
        },
        {
          "internalType": "address",
          "name": "user",
          "type": "address"
        },
        {
          "internalType": "address",
          "name": "token",
          "type": "address"
        }
      ],
      "name": "getUserStake",
      "outputs": [
        {
          "internalType": "uint256",
          "name": "",
          "type": "uint256"
        }
      ],
      "stateMutability": "view",
      "type": "function"
    },
    {
      "inputs": [
        {
          "internalType": "uint256",
          "name": "marketId",
          "type": "uint256"
        },
        {
          "internalType": "address",
          "name": "user",
          "type": "address"
        },
        {
          "internalType": "address",
          "name": "token",
          "type": "address"
        }
      ],
      "name": "getUserSupport",
      "outputs": [
        {
          "internalType": "uint256",
          "name": "",
          "type": "uint256"
        }
      ],
      "stateMutability": "view",
      "type": "function"
    },
    {
      "inputs": [
        {
          "internalType": "uint256",
          "name": "",
          "type": "uint256"
        }
      ],
      "name": "isActiveMarket",
      "outputs": [
        {
          "internalType": "bool",
          "name": "",
          "type": "bool"
        }
      ],
      "stateMutability": "view",
      "type": "function"
    },
    {
      "inputs": [
        {
          "internalType": "uint256",
          "name": "marketId",
          "type": "uint256"
        }
      ],
      "name": "isMarketActive",
      "outputs": [
        {
          "internalType": "bool",
          "name": "",
          "type": "bool"
        }
      ],
      "stateMutability": "view",
      "type": "function"
    },
    {
      "inputs": [
        {
          "internalType": "uint256",
          "name": "marketId",
          "type": "uint256"
        }
      ],
      "name": "markMarketDeleted",
      "outputs": [],
      "stateMutability": "nonpayable",
      "type": "function"
    },
    {
      "inputs": [
        {
          "internalType": "uint256",
          "name": "marketId",
          "type": "uint256"
        }
      ],
      "name": "markMarketPermanentlyRemoved",
      "outputs": [],
      "stateMutability": "nonpayable",
      "type": "function"
    },
    {
      "inputs": [],
      "name": "marketCreationFee",
      "outputs": [
        {
          "internalType": "uint256",
          "name": "",
          "type": "uint256"
        }
      ],
      "stateMutability": "view",
      "type": "function"
    },
    {
      "inputs": [
        {
          "internalType": "uint256",
          "name": "",
          "type": "uint256"
        },
        {
          "internalType": "uint256",
          "name": "",
          "type": "uint256"
        }
      ],
      "name": "marketResolvingVerifiers",
      "outputs": [
        {
          "internalType": "address",
          "name": "",
          "type": "address"
        }
      ],
      "stateMutability": "view",
      "type": "function"
    },
    {
      "inputs": [
        {
          "internalType": "uint256",
          "name": "",
          "type": "uint256"
        },
        {
          "internalType": "uint256",
          "name": "",
          "type": "uint256"
        }
      ],
      "name": "marketStakers",
      "outputs": [
        {
          "internalType": "address",
          "name": "",
          "type": "address"
        }
      ],
      "stateMutability": "view",
      "type": "function"
    },
    {
      "inputs": [
        {
          "internalType": "uint256",
          "name": "",
          "type": "uint256"
        },
        {
          "internalType": "uint256",
          "name": "",
          "type": "uint256"
        }
      ],
      "name": "marketSupporters",
      "outputs": [
        {
          "internalType": "address",
          "name": "",
          "type": "address"
        }
      ],
      "stateMutability": "view",
      "type": "function"
    },
    {
      "inputs": [
        {
          "internalType": "uint256",
          "name": "",
          "type": "uint256"
        }
      ],
      "name": "markets",
      "outputs": [
        {
          "internalType": "address",
          "name": "creator",
          "type": "address"
        },
        {
          "internalType": "string",
          "name": "ipfsHash",
          "type": "string"
        },
        {
          "internalType": "bool",
          "name": "isMultiOption",
          "type": "bool"
        },
        {
          "internalType": "uint256",
          "name": "maxOptions",
          "type": "uint256"
        },
        {
          "internalType": "address",
          "name": "paymentToken",
          "type": "address"
        },
        {
          "internalType": "uint256",
          "name": "minStake",
          "type": "uint256"
        },
        {
          "internalType": "uint256",
          "name": "creatorDeposit",
          "type": "uint256"
        },
        {
          "internalType": "uint256",
          "name": "creatorOutcome",
          "type": "uint256"
        },
        {
          "internalType": "uint256",
          "name": "startTime",
          "type": "uint256"
        },
        {
          "internalType": "uint256",
          "name": "stakeEndTime",
          "type": "uint256"
        },
        {
          "internalType": "uint256",
          "name": "endTime",
          "type": "uint256"
        },
        {
          "internalType": "uint256",
          "name": "resolutionEndTime",
          "type": "uint256"
        },
        {
          "internalType": "enum EventPool.MarketState",
          "name": "state",
          "type": "uint8"
        },
        {
          "internalType": "uint256",
          "name": "winningOption",
          "type": "uint256"
        },
        {
          "internalType": "bool",
          "name": "isResolved",
          "type": "bool"
        }
      ],
      "stateMutability": "view",
      "type": "function"
    },
    {
      "inputs": [],
      "name": "nextMarketId",
      "outputs": [
        {
          "internalType": "uint256",
          "name": "",
          "type": "uint256"
        }
      ],
      "stateMutability": "view",
      "type": "function"
    },
    {
      "inputs": [],
      "name": "owner",
      "outputs": [
        {
          "internalType": "address",
          "name": "",
          "type": "address"
        }
      ],
      "stateMutability": "view",
      "type": "function"
    },
    {
      "inputs": [
        {
          "internalType": "uint256",
          "name": "marketId",
          "type": "uint256"
        },
        {
          "internalType": "uint256",
          "name": "option",
          "type": "uint256"
        }
      ],
      "name": "placeStake",
      "outputs": [],
      "stateMutability": "payable",
      "type": "function"
    },
    {
      "inputs": [
        {
          "internalType": "uint256",
          "name": "marketId",
          "type": "uint256"
        },
        {
          "internalType": "uint256",
          "name": "option",
          "type": "uint256"
        },
        {
          "internalType": "uint256",
          "name": "amount",
          "type": "uint256"
        }
      ],
      "name": "placeStakeWithToken",
      "outputs": [],
      "stateMutability": "nonpayable",
      "type": "function"
    },
    {
      "inputs": [],
      "name": "renounceOwnership",
      "outputs": [],
      "stateMutability": "nonpayable",
      "type": "function"
    },
    {
      "inputs": [
        {
          "internalType": "uint256",
          "name": "marketId",
          "type": "uint256"
        },
        {
          "internalType": "uint256",
          "name": "_winningOption",
          "type": "uint256"
        }
      ],
      "name": "resolveMarket",
      "outputs": [],
      "stateMutability": "nonpayable",
      "type": "function"
    },
    {
      "inputs": [
        {
          "internalType": "address",
          "name": "_adminManager",
          "type": "address"
        }
      ],
      "name": "setAdminManager",
      "outputs": [],
      "stateMutability": "nonpayable",
      "type": "function"
    },
    {
      "inputs": [
        {
          "internalType": "uint256",
          "name": "marketId",
          "type": "uint256"
        },
        {
          "internalType": "uint256",
          "name": "amount",
          "type": "uint256"
        }
      ],
      "name": "supportMarket",
      "outputs": [],
      "stateMutability": "payable",
      "type": "function"
    },
    {
      "inputs": [
        {
          "internalType": "address",
          "name": "newOwner",
          "type": "address"
        }
      ],
      "name": "transferOwnership",
      "outputs": [],
      "stateMutability": "nonpayable",
      "type": "function"
    },
    {
      "inputs": [],
      "name": "treasury",
      "outputs": [
        {
          "internalType": "address payable",
          "name": "",
          "type": "address"
        }
      ],
      "stateMutability": "view",
      "type": "function"
    },
    {
      "inputs": [
        {
          "internalType": "uint256",
          "name": "",
          "type": "uint256"
        },
        {
          "internalType": "address",
          "name": "",
          "type": "address"
        }
      ],
      "name": "userHasStaked",
      "outputs": [
        {
          "internalType": "bool",
          "name": "",
          "type": "bool"
        }
      ],
      "stateMutability": "view",
      "type": "function"
    },
    {
      "inputs": [
        {
          "internalType": "uint256",
          "name": "",
          "type": "uint256"
        },
        {
          "internalType": "address",
          "name": "",
          "type": "address"
        }
      ],
      "name": "userHasSupported",
      "outputs": [
        {
          "internalType": "bool",
          "name": "",
          "type": "bool"
        }
      ],
      "stateMutability": "view",
      "type": "function"
    },
    {
      "inputs": [
        {
          "internalType": "address",
          "name": "",
          "type": "address"
        },
        {
          "internalType": "uint256",
          "name": "",
          "type": "uint256"
        }
      ],
      "name": "userMarketHistory",
      "outputs": [
        {
          "internalType": "uint256",
          "name": "",
          "type": "uint256"
        }
      ],
      "stateMutability": "view",
      "type": "function"
    },
    {
      "inputs": [
        {
          "internalType": "uint256",
          "name": "",
          "type": "uint256"
        },
        {
          "internalType": "address",
          "name": "",
          "type": "address"
        }
      ],
      "name": "userStakeOptions",
      "outputs": [
        {
          "internalType": "uint256",
          "name": "",
          "type": "uint256"
        }
      ],
      "stateMutability": "view",
      "type": "function"
    },
    {
      "inputs": [
        {
          "internalType": "uint256",
          "name": "marketId",
          "type": "uint256"
        }
      ],
      "name": "withdrawSupport",
      "outputs": [],
      "stateMutability": "nonpayable",
      "type": "function"
    },
    {
      "stateMutability": "payable",
      "type": "receive"
    }
  ],
  "bytecode": "0x608034620000ff57601f6200604838819003918201601f19168301916001600160401b038311848410176200010457808492606094604052833981010312620000ff576200004d816200011a565b60208201516001600160a01b03808216939091849003620000ff576200007760408392016200011a565b9216918215620000e6576000549360018060a01b03199380858716176000558360405196167f8be0079c531659141344cd1fd0a4f28419497f9722a3daafe3b4186f6b6457e0600080a3600160095583600754161760075516906008541617600855615f189081620001308239f35b604051631e4fbdf760e01b815260006004820152602490fd5b600080fd5b634e487b7160e01b600052604160045260246000fd5b51906001600160a01b0382168203620000ff5756fe608080604052600436101561001d575b50361561001b57600080fd5b005b600090813560e01c9081630ccf44671461448d575080630d64cdbd1461445e578063157bdcce14614381578063256ba741146142ec578063287f57b5146142a35780632bdbb884146142715780632ee4018f146142555780632ef1bdfa14614232578063304bf1f1146141e957806333d6b46e146141765780633adfe6d01461414b5780633e32a76c14613ef65780633ec7919314613add578063406ef2ef14613abf5780634f44289d14613a76578063539aa77f14613a595780635b7baf64146136e05780635da3247a146136c257806360557333146136aa57806361d027b314613681578063638b022c14612862578063677bd9ff1461245d5780636f59359e146123ef578063715018a6146123a75780637c16cd9e146122e7578063847cf782146122a35780638da5cb5b1461227c578063902315ec146121fa57806398a17671146121a4578063a210b6a41461217b578063a30a091414612151578063a5e973c3146120cf578063b1138b5014611e3d578063b1283e7714611d39578063b85ed63614611c85578063bc16075814611bfb578063c22c62c314611bc9578063c3436e0c14611a84578063cc3cbd2a14611a67578063d5f8270714611a1c578063d8c5dd67146119d5578063dc4ce34914611982578063e0bd4acc146117f8578063eb44fdd3146116ec578063f00fe32114611649578063f15cc40614611254578063f1b7dde314610e0f578063f204072f1461099b578063f2fde38b14610925578063f486759114610449578063f849f69e146103d6578063fb87f2c31461028d5763fe53a6e80361000f573461028a578060031936011261028a576020600954604051908152f35b80fd5b503461028a576020806003193601126103d257600435906102de60018060a01b036102bd81600854163314615d11565b6102ca6009548510615d5c565b838552600183526040852054161515615da7565b8183526001815260ff600c6040852001541660058110156103be5760041461037d576060600080516020615e638339815191529183855260018152600c6040862001600460ff19825416179055838552600b815260ff60408620541661036f575b6017604051918083528201527626b0b935b2ba103232b632ba32b210313c9030b236b4b760491b6040820152a280f35b61037884615c57565b61033f565b6064906040519062461bcd60e51b82526004820152601a602482015279115d995b9d141bdbdb0e88105b1c9958591e4819195b195d195960321b6044820152fd5b634e487b7160e01b84526021600452602484fd5b5080fd5b503461028a57602036600319011261028a576004358152600b60205260ff6040822054168061040d575b6020906040519015158152f35b50600160205260ff600c60408320015416906005821015610435575060046020911415610400565b634e487b7160e01b81526021600452602490fd5b5061045336614515565b600854604051634d9b423560e11b8152600481018490529192916020916001600160a01b0391908216908381602481855afa80156108875787906108eb575b61049d915015614b57565b83865260018352604086209060ff600c8301541660058110156108d7576104c49015614b9f565b60405163111a798960e31b81528481600481855afa80156108cc5785918991610892575b506107e8575b5050841515806107da575b61050290614c43565b60048101908282541661077357600561051f910154341015614c8b565b858080803486600754165af1610533614990565b501561071b57908591848352600284526040832033600052845260ff60406000205416156106ee575b84835260028452604083203360005284526040600020600160ff1982541617905584835260048452604083203360005284528560406000205581806007541691541690803b15610687576040516395f4109560e01b815291849183918290849082906105d1908d903490338f60048701614a1c565b03925af19081156106cf5783916106da575b505060048382600854166040519283809263406ad64560e11b82525afa9081156106cf578391610696575b50168061063a575b50506040519283523490830152600080516020615ec383398151915260403393a380f35b803b156103d25781604051809263c228038d60e01b8252818381610664348c338d60048601614a79565b03925af1801561068b57156106165761067c90614718565b610687578338610616565b8380fd5b6040513d84823e3d90fd5b90508381813d83116106c8575b6106ad8183614762565b810103126106c4576106be90614a4c565b3861060e565b8280fd5b503d6106a3565b6040513d85823e3d90fd5b6106e390614718565b6103d25781386105e3565b848352600584526107023360408520614cd7565b338352600c8452610716856040852061496d565b61055c565b60405162461bcd60e51b815260048101849052602a60248201527f4576656e74506f6f6c3a20455448207472616e7366657220746f2054726561736044820152691d5c9e4819985a5b195960b21b6064820152608490fd5b60405162461bcd60e51b815260048101859052603960248201527f4576656e74506f6f6c3a2054686973206d61726b6574207573657320746f6b65604482015278373996103ab9b290383630b1b2a132ba2bb4ba342a37b5b2b760391b6064820152608490fd5b5060038101548511156104f9565b604051632eaa712b60e21b815291829060049082905afa908115610887578791610855575b506009820154603c820291808304603c14901517156108415761083a9161083391614bea565b4210614bf7565b38836104ee565b634e487b7160e01b88526011600452602488fd5b90508381813d8311610880575b61086c8183614762565b8101031261087b57513861080d565b600080fd5b503d610862565b6040513d89823e3d90fd5b82819392503d83116108c5575b6108a98183614762565b810103126108c1576108bb85916148ac565b386104e8565b8780fd5b503d61089f565b6040513d8a823e3d90fd5b634e487b7160e01b88526021600452602488fd5b508381813d831161091e575b6109018183614762565b8101031261091a5761091561049d916148ac565b610492565b8680fd5b503d6108f7565b503461028a57602036600319011261028a5761093f6144ca565b610947614880565b6001600160a01b03908116908115610982576000548260018060a01b031982161760005516600080516020615e83833981519152600080a380f35b604051631e4fbdf760e01b815260048101849052602490fd5b506109a536614515565b600854604051632b5ba3b960e01b815233600482015260249493916001600160a01b039160209183169082818981855afa9081156108875791839189938991610dd1575b506109f490156148b9565b60405192838092634d9b423560e11b82528860048301525afa8015610bef578690610d97575b610a25915015614b57565b828552600181526040852060ff600c820154166005811015610d8457610a4b9015614b9f565b6009810154421015610d4057600490610a65861515614d12565b018054831680610cc25750843403610c7e57610a82341515614d12565b858080803487600754165af1610a96614990565b5015610c27578596505b838652600382526040862033600052825260ff6040600020541615610c0e575b83865260038252604086203360005282526040600020600160ff1982541617905582806007541691541690803b1561091a57858791610b18938360405180968195829463c15d980760e01b8452338d60048601614d77565b03925af1908115610bef578691610bfa575b505060048183600854166040519283809263406ad64560e11b82525afa918215610bef578692610bb5575b5050169182610b6357505050f35b823b15610bb057610b8f92849283604051809681958294638f46a5a160e01b8452339060048501614d9f565b03925af1801561068b57610ba05750f35b610ba990614718565b61028a5780f35b505050fd5b90809250813d8311610be8575b610bcc8183614762565b81010312610be457610bdd90614a4c565b3880610b55565b8480fd5b503d610bc2565b6040513d88823e3d90fd5b610c0390614718565b610be4578438610b2a565b83865260068252610c223360408820614cd7565b610ac0565b60405162461bcd60e51b815260048101839052602a818901527f4576656e74506f6f6c3a20455448207472616e7366657220746f2074726561736044820152691d5c9e4819985a5b195960b21b6064820152608490fd5b60405162461bcd60e51b815260048101839052601f818901527f4576656e74506f6f6c3a20496e636f72726563742045544820616d6f756e74006044820152606490fd5b34610ce15786975085610cdc918560075416903390614abf565b610aa0565b60405162461bcd60e51b8152600481018490526032818a01527f4576656e74506f6f6c3a204e6f204554482073686f756c642062652073656e7460448201527108199bdc881d1bdad95b881cdd5c1c1bdc9d60721b6064820152608490fd5b60405162461bcd60e51b815260048101839052601f818901527f4576656e74506f6f6c3a20537570706f727420706572696f6420656e646564006044820152606490fd5b634e487b7160e01b875260216004528787fd5b508181813d8311610dca575b610dad8183614762565b81010312610dc657610dc1610a25916148ac565b610a1a565b8580fd5b503d610da3565b92809294508391503d8311610e08575b610deb8183614762565b8101031261091a5787916109f4610e0285936148ac565b906109e9565b503d610de1565b503461028a57606036600319011261028a576004356024359060443560018060a01b0380600854169060405191634d9b423560e11b83528460048401526020928381602481855afa80156108cc57889061121e575b610e6f915015614b57565b84875260018352604087209060ff600c83015416600581101561120a57610e969015614b9f565b60405163111a798960e31b81528481600481855afa80156111ff5785918a916111c5575b50611132575b505085151580611124575b610ed490614c43565b6004810190828254169081156110c8578589949392610efc6005610f09940154831015614c8b565b8460075416903390614abf565b858352600284526040832033600052845260ff604060002054161561109b575b85835260028452604083203360005284526040600020600160ff1982541617905585835260048452604083203360005284528660406000205581806007541691541690803b15610687578584918993838a610f9c604051978896879586946395f4109560e01b8652339060048701614a1c565b03925af19081156106cf578391611087575b505060048382600854166040519283809263406ad64560e11b82525afa9081156106cf578391611052575b501680611003575b5050604051938452830152600080516020615ec383398151915260403393a380f35b803b156103d25760405163c228038d60e01b8152908290829081838161102f8a8d338e60048601614a79565b03925af1801561068b5715610fe15761104790614718565b610be4578438610fe1565b90508381813d8311611080575b6110698183614762565b810103126106c45761107a90614a4c565b38610fd9565b503d61105f565b61109090614718565b6103d2578138610fae565b858352600584526110af3360408520614cd7565b338352600c84526110c3866040852061496d565b610f29565b60405162461bcd60e51b815260048101869052602e60248201527f4576656e74506f6f6c3a2054686973206d61726b65742075736573205045505560448201526d0b081d5cd9481c1b1858d950995d60921b6064820152608490fd5b506003810154861115610ecb565b604051632eaa712b60e21b815291829060049082905afa9081156108cc578891611198575b506009820154603c820291808304603c14901517156111845761117d9161083391614bea565b3883610ec0565b634e487b7160e01b89526011600452602489fd5b90508381813d83116111be575b6111af8183614762565b8101031261087b575138611157565b503d6111a5565b82819392503d83116111f8575b6111dc8183614762565b810103126111f4576111ee85916148ac565b38610eba565b8880fd5b503d6111d2565b6040513d8b823e3d90fd5b634e487b7160e01b89526021600452602489fd5b508381813d831161124d575b6112348183614762565b810103126108c157611248610e6f916148ac565b610e64565b503d61122a565b503461028a57604036600319011261028a5761126e6144b4565b90600435815260016020526040812060ff600c82015416600581101561163557600261129a9114615267565b600d8101546112aa8115156152b3565b60043583526002602052604083209360018060a01b03948582166000526020526112db60ff604060002054166152fe565b84600754166040516307c7a72d60e01b8152602081806113018660043560048401614a60565b0381855afa8015610bef5786906115fa575b61131e915015615347565b85600485015416936040519463423e7bc160e11b865260208680611349848860043560048501614e16565b0381865afa9586156108875787966115c6575b5060405163dc4ce34960e01b81529260208480611380858a60048035908501615390565b0381845afa9384156108cc578894611592575b50879260036001910154905b818111156114f15750506113cf92916020916040518080968194634f44289d60e01b835260043560048401614a60565b03915afa9081156108875787916114bb575b6113eb925061492e565b81611402575050505050602091505b604051908152f35b9394938061143f57505060209460043584526004865260408420911660005284526040600020541460001461143857505b6113fa565b90506113fa565b93929190949560043584526004602052604084209116600052602052604060002054146000146114af576123288083029283040361149b575091611495611433926114906127106020960484614905565b6153b1565b9061492e565b634e487b7160e01b81526011600452602490fd5b915050602091506113fa565b90506020823d6020116114e9575b816114d660209383614762565b8101031261087b576113eb9151906113e1565b3d91506114c9565b878103611507575b6115029061493b565b61139f565b9360405163dc4ce34960e01b81526020818061152a888a60043560048501615390565b0381875afa908115611587578b91611553575b5061154b906115029261492e565b9490506114f9565b90506020813d60201161157f575b8161156e60209383614762565b8101031261087b575161150261153d565b3d9150611561565b6040513d8d823e3d90fd5b9093506020813d6020116115be575b816115ae60209383614762565b8101031261087b57519238611393565b3d91506115a1565b9095506020813d6020116115f2575b816115e260209383614762565b8101031261087b5751943861135c565b3d91506115d5565b506020813d60201161162d575b8161161460209383614762565b81010312610dc65761162861131e916148ac565b611313565b3d9150611607565b634e487b7160e01b83526021600452602483fd5b503461028a57604036600319011261028a576116929060206116696144b4565b60018060a01b03600754166040518080968194633d1e7ba160e11b835260043560048401614a60565b03915afa9081156116e057906116ae575b602090604051908152f35b506020813d82116116d8575b816116c760209383614762565b8101031261087b57602090516116a3565b3d91506116ba565b604051903d90823e3d90fd5b503461028a57602036600319011261028a5760406117f49161170c615df2565b50600435815260016020522060ff600e604051926117298461472b565b80546001600160a01b039081168552611744600183016147da565b60208601528360028301541615156040860152600382015460608601526004820154166080850152600581015460a0850152600681015460c0850152600781015460e085015260088101546101008501526009810154610120850152600a810154610140850152600b8101546101608501526117ca83600c83015416610180860161494a565b600d8101546101a085015201541615156101c082015260405191829160208352602083019061461a565b0390f35b503461028a576020806003193601126103d2576004359061182860018060a01b036102bd81600854163314615d11565b8183526001815260ff600c6040852001541660058110156103be57600080516020615e6383398151915291611861600260809314615267565b8385526001815284600e60408220828155826001820161188181546147a0565b80611942575b505060028201556000600382015582600482015560006005820155600060068201556000600782015560006008820155600060098201556000600a8201556000600b82015582600c8201556000600d8201550155838552600b815260ff604086205416611934575b6026604051918083528201527f5065726d616e656e746c792072656d6f76656420616674657220636c61696d206040820152651c195c9a5bd960d21b6060820152a280f35b61193d84615c57565b6118ef565b601f811160011461195c575060009150555b823880611887565b9080600091845261197b601f898620940160051c840160018501614956565b5555611954565b503461028a57606036600319011261028a57604435906001600160a01b03808316830361087b576116929260209160075416604051808096819463dc4ce34960e01b835260243560043560048501615390565b503461028a57604036600319011261028a5760406119f16144b4565b9160043581526004602052209060018060a01b03166000526020526020604060002054604051908152f35b503461028a57611a2b36614515565b9190815260056020526040812090815483101561028a576020611a4e848461455c565b905460405160039290921b1c6001600160a01b03168152f35b503461028a578060031936011261028a57602060405161015e8152f35b503461028a57602036600319011261028a5760043580825260016020526040822080546001600160a01b03163303611b795760ff600c8201541660058110156103be5790611ad460099215614b9f565b015461a8bf198101908111611b6557421015611b2057604051611b1d91611afa82614747565b601182527010dc99585d1bdc8818d85b98d95b1b1959607a1b60208301526153d1565b80f35b60405162461bcd60e51b815260206004820152601d60248201527f4576656e74506f6f6c3a20546f6f206c61746520746f2063616e63656c0000006044820152606490fd5b634e487b7160e01b83526011600452602483fd5b60405162461bcd60e51b815260206004820152602260248201527f4576656e74506f6f6c3a204f6e6c792063726561746f722063616e2063616e63604482015261195b60f21b6064820152608490fd5b503461028a57611bd836614515565b9190815260066020526040812090815483101561028a576020611a4e848461455c565b503461028a57602036600319011261028a57611c156144ca565b611c1d614880565b6001600160a01b03168015611c4357600880546001600160a01b03191691909117905580f35b60405162461bcd60e51b815260206004820152601a6024820152794576656e74506f6f6c3a20496e76616c6964206164647265737360301b6044820152606490fd5b503461028a578060031936011261028a576009546000198082019190818311611d2557611cb18361541a565b92611cbf6040519485614762565b808452611cce601f199161541a565b0136602085013760015b828110611ced57604051806117f48682614574565b818101818111611d11579080611d06611d0c9387615431565b5261493b565b611cd8565b634e487b7160e01b86526011600452602486fd5b634e487b7160e01b84526011600452602484fd5b503461028a57602036600319011261028a576004358152600160205260409020600160a01b60019003808254169160018101611d74906147da565b91600282015460ff16916003810154916004820154166005820154600683015460078401546008850154600986015491600a87015493600b88015495600c89015460ff1697600d8a015499600e015460ff169a6040519e8f9e8f9182526101e08060208401528201611de5916145d2565b9d151560408201526060015260808d015260a08c015260c08b015260e08a01526101008901526101208801526101408701526101608601526101808501611e2b916145f7565b6101a084015215156101c08301520390f35b503461028a576020806003193601126103d25760043590818352600181526040832090600c8201805460ff811660058110156120bb5790611e8360016004949314614e36565b600e850190815491611e9860ff841615614e8e565b600854604051634ffe2a8b60e01b81526001600160a01b0398909690918891889182908c165afa80156120725788968b9161207d575b5060409060248b83519b8c938492633313865560e21b84526004840152165afa978815612072578a908b9961203e575b5015611ffb57600d0187905560ff1992831660011790551660021790558490611f278486615445565b611f3085615689565b60048382600854166040519283809263406ad64560e11b82525afa9081156106cf578391611fc6575b501680611f7d575b5050600080516020615ea383398151915291604051908152a280f35b803b156103d25781809160446040518094819362ff4a7360e81b83528a60048401528960248401525af1801561068b5715611f6157611fbb90614718565b610687578338611f61565b90508381813d8311611ff4575b611fdd8183614762565b810103126106c457611fee90614a4c565b38611f59565b503d611fd3565b6064876040519062461bcd60e51b825280600483015260248201527f4576656e74506f6f6c3a204e6f207265736f6c7574696f6e20726561636865646044820152fd5b905061206391985060403d60401161206b575b61205b8183614762565b810190614f0d565b979038611efe565b503d612051565b6040513d8c823e3d90fd5b809750888092503d83116120b4575b6120968183614762565b810103126120b05760406120aa8997614a4c565b90611ece565b8980fd5b503d61208c565b634e487b7160e01b87526021600452602487fd5b503461028a578060031936011261028a57604051600a80548083529083526020808301937fc65a7bb8d6351c1cf70c95a316cc6a92839c986682d98bc35f958f4883f9d2a892915b82821061213a576117f48561212e81890382614762565b60405191829182614574565b835486529485019460019384019390910190612117565b503461028a57602036600319011261028a5760406020916004358152600683522054604051908152f35b503461028a578060031936011261028a576008546040516001600160a01b039091168152602090f35b503461028a57604036600319011261028a576121be6144ca565b6001600160a01b03168152600c602052604081208054602435929083101561028a5760206121ec848461455c565b90546040519160031b1c8152f35b503461028a576020806003193601126103d2576004358252600d81526040822091604051809384918482549182815201918452848420935b8582821061225d5750505061224992500383614762565b6117f46040519282849384528301906146db565b85546001600160a01b0316845260019586019588955093019201612232565b503461028a578060031936011261028a57546040516001600160a01b039091168152602090f35b503461028a576116929060206122b8366144e0565b60075460405163423e7bc160e11b81529687946001600160a01b03909216938593849390919060048501614e16565b503461028a57602036600319011261028a576004358082526001602052604082209060ff600c8301541660058110156103be5760016123269114614e36565b600b82015442106123535761234560ff600e611b1d9401541615614e8e565b61234d614ed8565b906153d1565b60405162461bcd60e51b815260206004820152602660248201527f4576656e74506f6f6c3a205265736f6c7574696f6e20706572696f64206e6f7460448201526508195b99195960d21b6064820152608490fd5b503461028a578060031936011261028a576123c0614880565b600080546001600160a01b0319811682556001600160a01b0316600080516020615e838339815191528280a380f35b503461028a576020806003193601126103d2576004358252600581526040822091604051809384918482549182815201918452848420935b8582821061243e5750505061224992500383614762565b85546001600160a01b0316845260019586019588955093019201612427565b503461028a576020908160031936011261028a576004359182825260018152604082209260ff600c8501541660058110156103be57600261249e9114615267565b600d840154916124af8315156152b3565b81845260028152604084203360005281526124d160ff604060002054166152fe565b6007546040516307c7a72d60e01b81526001600160a01b03918216949190838180612500338960048401614a60565b0381895afa801561088757879061282c575b61251d915015615347565b600487015416906040519063423e7bc160e11b825283828061254486338a60048501614e16565b0381895afa9182156108875787926127fd575b5060405163dc4ce34960e01b8082529885828061257988878c60048501615390565b03818b5afa9182156111ff5789926127ce575b50889960036001920154915b82811115612737575050604051634f44289d60e01b8152899594939291508a8782806125c8898d60048401614a60565b03818d5afa918215610887578792612703575b50906125e69161492e565b81612672575050505081945b803b156106c45785839161261f9383604051809681958294632f0041ed60e11b8452338d60048601614d77565b03925af1801561068b5761265e575b50507f5380cf6fe903b40c6d5a9e0dfbca2f3a423f0a21520b4d5947ed5169bdba946d906040519384523393a380f35b61266790614718565b61068757838561262e565b806126a657505085845260048552604084203360005285526040600020541460001461269e57946125f2565b5081946125f2565b91878692949596526004875260408220336000528752604060002054146000146126f757506123288082029182040361084157916114956126f1926114906127108b97960484614905565b946125f2565b939250505081946125f2565b88809298508193503d8311612730575b61271d8183614762565b8101031261087b575189956125e66125db565b503d612713565b84810361274d575b6127489061493b565b612598565b9a61276c88888c8f8d604051958694859384938b855260048501615390565b03915afa9081156127c3578c91612794575b5061278c906127489261492e565b9b905061273f565b90508881813d83116127bc575b6127ab8183614762565b8101031261087b575161274861277e565b503d6127a1565b6040513d8e823e3d90fd5b9091508581813d83116127f6575b6127e68183614762565b8101031261087b5751903861258c565b503d6127dc565b9091508381813d8311612825575b6128158183614762565b8101031261087b57519038612557565b503d61280b565b508381813d831161285b575b6128428183614762565b8101031261091a5761285661251d916148ac565b612512565b503d612838565b5061012036600319011261028a57600435906001600160401b03821161028a573660238301121561028a57816004013561289b81614785565b926128a96040519485614762565b81845236602483830101116106c457818392602460209301838701378401015260243515156024350361028a576064356001600160a01b038116900361087b57600854604051632b5ba3b960e01b81523360048201526001600160a01b0390911690602081602481855afa80156106cf578390613646575b61292c9150156148b9565b8251156136025760026044351015806135f5575b156135b0576084351561356c5760a4351561351c5760c43515158061350e575b156134be576040516317916e0160e01b8152602081600481855afa9081156106cf57839161348c575b5060e435106134375760e43561010435106133d957602435156132fe576064356001600160a01b03161561329f57604051633462561360e11b81526064356001600160a01b0316600482015290602090829060249082905afa90811561068b578291613265575b5015613208575b670de0b6b3a764000034106131b757603c60e4350260e4358104603c1460e43515171561306257612a28904261492e565b603c6101043502610104358104603c1461010435151715611b6557612a4d904261492e565b6202a30081018111611b655760095492612a668461493b565b600955604051612a758161472b565b3381526020808201878152602435151560408085019190915260443560608501526064356001600160a01b03908116608086015260843560a086015260a43560c086015260c43560e086015242610100860152610120850188905261014085018790526202a300870161016086015261018085018690526101a085018690526101c0850186905288865260019093528420835181546001600160a01b0319169316929092178255518051919291906001600160401b0382116131a3578190612b4060018601546147a0565b601f8111613165575b50602090601f83116001146130f65786926130eb575b50508160011b916000199060031b1c19161760018301555b612b9660408201511515600284019060ff801983541691151516179055565b606081015160038301556004820160018060a01b0360808301511660018060a01b031982541617905560a0810151600583015560c0810151600683015560e0810151600783015561010081015160088301556101208101516009830155610140810151600a830155610160810151600b830155600c820161018082015160058110156130d757612c569392600e926101c09260ff801983541691161790556101a0810151600d8501550151151591019060ff801983541691151516179055565b600a54600160401b8110156130c15784612c79826001612c929401600a5561452b565b90919082549060031b91821b91600019901b1916179055565b838152600b60205260408120805460ff191660011790556064356001600160a01b03166130765760a435670de0b6b3a76400000180670de0b6b3a76400001161306257341061301e57612d0581808080670de0b6b3a764000060018060a01b038254165af1612cff614990565b506149c0565b8080808060a43560018060a01b03600754165af1612d21614990565b5015612fba575b838152600260205260408120336000526020526040600020600160ff198254161790558381526004602052604081203360005260205260c435604060002055338152600c602052612d7c846040832061496d565b6007546001600160a01b0316803b156103d2576040516395f4109560e01b81529082908290818381612dbb60c43560a435606435338f60048701614a1c565b03925af1801561068b57908291612fa6575b505060085460405163406ad64560e11b815290602090829060049082906001600160a01b03165afa90811561068b578291612f6c575b506001600160a01b038116612ea6575b50507f5d0726a1bb5ec8c87527e69ba86d988202e885fad8f2b4aacd618793d6f297b26020946202a3008593612e566040519361012085526101208501906145d2565b95602435151589850152604435604085015260018060a01b0360643516606085015260843560808501524260a085015260c08401528060e0840152016101008201528033940390a3604051908152f35b6001600160a01b0381163b156103d25760405163782a780560e11b8152828180612ed4338a60048401614a60565b0381836001600160a01b0387165af180156106cf57908391612f58575b50506001600160a01b0381163b156103d25760405163c228038d60e01b81529082908290818381612f2c60a43560c435338e60048601614a79565b03926001600160a01b03165af1801561068b5715612e1357612f4e8291614718565b61028a5780612e13565b612f6190614718565b6103d2578138612ef1565b90506020813d602011612f9e575b81612f8760209383614762565b810103126103d257612f9890614a4c565b38612e03565b3d9150612f7a565b612faf90614718565b61028a578038612dcd565b60405162461bcd60e51b815260206004820152603660248201527f4576656e74506f6f6c3a2043726561746f72206465706f736974207472616e7360448201527519995c881d1bc8151c99585cdd5c9e4819985a5b195960521b6064820152608490fd5b60405162461bcd60e51b815260206004820152601c60248201527b4576656e74506f6f6c3a20496e73756666696369656e74205045505560201b6044820152606490fd5b634e487b7160e01b82526011600452602482fd5b61309a81808080670de0b6b3a764000060018060a01b038254165af1612cff614990565b6007546130bc9060a435906001600160a01b0390811690339060643516614abf565b612d28565b634e487b7160e01b600052604160045260246000fd5b634e487b7160e01b85526021600452602485fd5b015190503880612b5f565b9250600185018652602086209086935b601f198416851061314a576001945083601f19811610613131575b505050811b016001830155612b77565b015160001960f88460031b161c19169055388080613121565b81810151835560209485019460019093019290910190613106565b6131939060018701885260208820601f850160051c81019160208610613199575b601f0160051c0190614956565b38612b49565b9091508190613186565b634e487b7160e01b85526041600452602485fd5b60405162461bcd60e51b8152602060048201526024808201527f4576656e74506f6f6c3a20496e73756666696369656e74206372656174696f6e6044820152632066656560e01b6064820152608490fd5b60405162461bcd60e51b815260206004820152602f60248201527f4576656e74506f6f6c3a20546f6b656e206e6f7420737570706f72746564206660448201526e37b91036bab63a3496b7b83a34b7b760891b6064820152608490fd5b90506020813d602011613297575b8161328060209383614762565b810103126103d257613291906148ac565b386129f0565b3d9150613273565b60405162461bcd60e51b815260206004820152603160248201527f4576656e74506f6f6c3a204d756c74692d6f7074696f6e206d61726b657473206044820152703932b8bab4b93290281928103a37b5b2b760791b6064820152608490fd5b6064356001600160a01b0316613315575b506129f7565b604051633462561360e11b81526064356001600160a01b0316600482015290602090829060249082905afa90811561068b57829161339f575b501561335a573861330f565b60405162461bcd60e51b815260206004820152601e60248201527f4576656e74506f6f6c3a20546f6b656e206e6f7420737570706f7274656400006044820152606490fd5b90506020813d6020116133d1575b816133ba60209383614762565b810103126103d2576133cb906148ac565b3861334e565b3d91506133ad565b60405162461bcd60e51b815260206004820152603060248201527f4576656e74506f6f6c3a205265736f6c7574696f6e206d75737420626520616660448201526f1d195c881cdd185ad9481c195c9a5bd960821b6064820152608490fd5b60405162461bcd60e51b815260206004820152602760248201527f4576656e74506f6f6c3a2042656c6f77206d696e696d756d207374616b6520646044820152663ab930ba34b7b760c91b6064820152608490fd5b90506020813d6020116134b6575b816134a760209383614762565b8101031261087b575138612989565b3d915061349a565b60405162461bcd60e51b815260206004820152602260248201527f4576656e74506f6f6c3a20496e76616c69642063726561746f72206f7574636f6044820152616d6560f01b6064820152608490fd5b5060443560c4351115612960565b60405162461bcd60e51b815260206004820152602260248201527f4576656e74506f6f6c3a20496e76616c69642063726561746f72206465706f736044820152611a5d60f21b6064820152608490fd5b60405162461bcd60e51b815260206004820152601c60248201527b4576656e74506f6f6c3a20496e76616c6964206d696e207374616b6560201b6044820152606490fd5b60405162461bcd60e51b815260206004820152601e60248201527f4576656e74506f6f6c3a20496e76616c6964206d6178206f7074696f6e7300006044820152606490fd5b50600a6044351115612940565b60405162461bcd60e51b815260206004820152601c60248201527b08aeccadce8a0deded8744092dcecc2d8d2c84092a08ca640d0c2e6d60231b6044820152606490fd5b506020813d602011613679575b8161366060209383614762565b810103126106c45761367461292c916148ac565b612921565b3d9150613653565b503461028a578060031936011261028a576007546040516001600160a01b039091168152602090f35b503461028a57611b1d6136bc36614515565b90614f2a565b503461028a578060031936011261028a576020600a54604051908152f35b503461028a576020806003193601126103d25760043580835260018252604083209160ff600c8401541660058110156130d757600303613a1557818452600281526040842033600052815260ff6040600020541680156139f5575b156139b1578392828552600282526040852033600052825260ff6040600020541661390b575b828552600382526040852033600052825260ff60406000205416613863575b831561381e5760075460049091015485916001600160a01b039182169116803b156106c4578583916137cb938360405180968195829463164fcd7d60e21b8452338d60048601614d77565b03925af1801561068b5761380a575b50507ff3f402280ef0a7905e124aa621b65eaeb2725c343e8b36d398ed78c29daf285c906040519384523393a380f35b61381390614718565b6106875783386137da565b60405162461bcd60e51b815260048101839052601e60248201527f4576656e74506f6f6c3a204e6f20726566756e6420617661696c61626c6500006044820152606490fd5b9261389a908260018060a01b0380600754169060048801541690604051808096819463256ba74160e01b8352338b60048501614e16565b03915afa908115610bef5786916138da575b6138b6925061492e565b928285526003825260408520336000528252604060002060ff198154169055613780565b90508282813d8311613904575b6138f18183614762565b8101031261087b576138b69151906138ac565b503d6138e7565b92506139428160018060a01b0380600754169060048701541690604051808095819463423e7bc160e11b8352338a60048501614e16565b03915afa9081156139a6578591613979575b50928285526002825260408520336000528252604060002060ff198154169055613761565b90508181813d831161399f575b6139908183614762565b8101031261087b575138613954565b503d613986565b6040513d87823e3d90fd5b6064906040519062461bcd60e51b82526004820152601d60248201527f4576656e74506f6f6c3a204e6f207374616b6520746f20726566756e640000006044820152fd5b50818452600381526040842033600052815260ff6040600020541661373b565b6064906040519062461bcd60e51b82526004820152601f60248201527f4576656e74506f6f6c3a204d61726b6574206e6f742063616e63656c6c6564006044820152fd5b503461028a578060031936011261028a5760206040516101f48152f35b503461028a57604036600319011261028a57611692906020613a966144b4565b60018060a01b03600754166040518080968194634f44289d60e01b835260043560048401614a60565b503461028a578060031936011261028a576020600954604051908152f35b503461028a57602036600319011261028a57613af7615df2565b50600435815260016020526040812060ff600e60405192613b178461472b565b80546001600160a01b03168452613b30600182016147da565b602085015260028101548316151560408501526003810154606085015260048101546001600160a01b03166080850152600581015460a0850152600681015460c0850152600781015460e085015260088101546101008501526009810154610120850152600a810154610140850152600b810154610160850152600c810154613bbf908416610180860161494a565b600d8101546101a085015201541615156101c08201526007546080820151604051633d1e7ba160e11b8152916001600160a01b039081169160209184918291613c0f911660048035908401614a60565b0381845afa918215613eb6578492613ec1575b506080830151604051634f44289d60e01b8152929160209184919082908190613c5a906001600160a01b031660048035908401614a60565b03915afa918215613eb6578492613e82575b506004358452600560205260408420546006602052604085205460056020526040862091604051808460208296549384815201908a5260208a20928a5b818110613e60575050613cbe92500384614762565b600435875260066020526040872094604051808760208299549384815201908b5260208b20928b5b818110613e3e575050613cfb92500387614762565b6008546080880151604051637d85959b60e11b81526001600160a01b039182166004820152918a9183916024918391165afa9889156116e0578099613da3575b613d65896117f48c613d958c613d878d8d8d8d8d6040519b8c9b6101008d526101008d019061461a565b9460208c015260408b015260608a0152608089015287820360a08901526146db565b9085820360c08701526146db565b9083820360e08501526145d2565b909198503d8082843e613db68184614762565b8201916020818403126103d2578051906001600160401b0382116106c4570182601f820112156103d257805191613dec83614785565b93613dfa6040519586614762565b8385526020848401011161028a575093613d879383613e2d613d9598946117f49b986020613d659f9c98810191016145af565b9a5093509396819550959195613d3b565b84546001600160a01b031683526001948501948b945060209093019201613ce6565b84546001600160a01b0316835260019485019488945060209093019201613ca9565b9091506020813d602011613eae575b81613e9e60209383614762565b8101031261087b57519038613c6c565b3d9150613e91565b6040513d86823e3d90fd5b91506020823d602011613eee575b81613edc60209383614762565b8101031261087b579051906020613c22565b3d9150613ecf565b503461028a576020806003193601126103d257600435808352600182526040832060038352604084203385528352613f3460ff604086205416614dc0565b60ff600c8201541660058110156130d757806140cf5750600981015461a8bf1981019081116140bb57421015614054575b8360018060a01b036004816007541693015416916040519063256ba74160e01b8252858280613f9987338a60048501614e16565b0381845afa9182156106cf578392614025575b50613fb8821515614dc0565b803b156106c457613fe293836040518096819582946317be0b2f60e11b8452338b60048601614d77565b03925af18015613eb657614012575b5082526003815260408220903360005252604060002060ff19815416905580f35b61401e90939193614718565b9138613ff1565b9091508581813d831161404d575b61403d8183614762565b810103126106c457519038613fac565b503d614033565b60405162461bcd60e51b815260048101849052603960248201527f4576656e74506f6f6c3a2043616e6e6f742077697468647261772077697468696044820152781b880c4c881a1bdd5c9cc81bd9881cdd185ada5b99c8195b99603a1b6064820152608490fd5b634e487b7160e01b85526011600452602485fd5b60048114908115614140575b50613f655760405162461bcd60e51b815260048101849052603260248201527f4576656e74506f6f6c3a2043616e6e6f7420776974686472617720696e2063756044820152717272656e74206d61726b657420737461746560701b6064820152608490fd5b6003915014386140db565b503461028a57602036600319011261028a5760043590600a5482101561028a5760206121ec8361452b565b503461028a576020806003193601126103d2576001600160a01b036141996144ca565b168252600c815260408220916040518092808554928381520194835280832092905b8282106141d2576117f48561212e81890382614762565b8354865294850194600193840193909101906141bb565b503461028a57604036600319011261028a5760ff604060209261420a6144b4565b6004358252600285528282206001600160a01b03909116825284522054604051911615158152f35b503461028a578060031936011261028a576020604051670de0b6b3a76400008152f35b503461028a578060031936011261028a57602060405160968152f35b503461028a5761428036614515565b91908152600d6020526040812090815483101561028a576020611a4e848461455c565b503461028a57604036600319011261028a5760ff60406020926142c46144b4565b6004358252600385528282206001600160a01b03909116825284522054604051911615158152f35b503461028a5761432f6020614300366144e0565b60075460405163256ba74160e01b81529586946001600160a01b03909216938593849390919060048501614e16565b03915afa90811561068b57829161434c575b602082604051908152f35b90506020813d8211614379575b8161436660209383614762565b810103126103d257602091505138614341565b3d9150614359565b503461028a57602036600319011261028a57600435808252600160205260408220600c81019081549060ff8216600581101561444a57906143c4600a9215614b9f565b015442106143f65760ff19166001179055808252600b602052604082205460ff166143ed575080f35b611b1d90615c57565b60405162461bcd60e51b815260206004820152602660248201527f4576656e74506f6f6c3a205265736f6c7574696f6e2074696d65206e6f742072604482015265195858da195960d21b6064820152608490fd5b634e487b7160e01b86526021600452602486fd5b503461028a57602036600319011261028a5760ff60406020926004358152600b84522054166040519015158152f35b9050346103d25760203660031901126103d257604060209260043581526005845220548152f35b602435906001600160a01b038216820361087b57565b600435906001600160a01b038216820361087b57565b606090600319011261087b57600435906001600160a01b0390602435828116810361087b5791604435908116810361087b5790565b604090600319011261087b576004359060243590565b600a5481101561454657600a60005260206000200190600090565b634e487b7160e01b600052603260045260246000fd5b80548210156145465760005260206000200190600090565b6020908160408183019282815285518094520193019160005b82811061459b575050505090565b83518552938101939281019260010161458d565b60005b8381106145c25750506000910152565b81810151838201526020016145b2565b906020916145eb815180928185528580860191016145af565b601f01601f1916010190565b9060058210156146045752565b634e487b7160e01b600052602160045260246000fd5b9060018060a01b039182815116825261464260208201516101e08060208601528401906145d2565b9260408201511515604084015260608201516060840152608082015116608083015260a081015160a083015260c081015160c083015260e081015160e083015261010080820151908301526101208082015190830152610140808201519083015261016080820151908301526146c161018080830151908401906145f7565b6101a080820151908301526101c080910151151591015290565b90815180825260208080930193019160005b8281106146fb575050505090565b83516001600160a01b0316855293810193928101926001016146ed565b6001600160401b0381116130c157604052565b6101e081019081106001600160401b038211176130c157604052565b604081019081106001600160401b038211176130c157604052565b601f909101601f19168101906001600160401b038211908210176130c157604052565b6001600160401b0381116130c157601f01601f191660200190565b90600182811c921680156147d0575b60208310146147ba57565b634e487b7160e01b600052602260045260246000fd5b91607f16916147af565b90604051918260008254926147ee846147a0565b90818452600194858116908160001461485d575060011461481a575b505061481892500383614762565b565b9093915060005260209081600020936000915b8183106148455750506148189350820101388061480a565b8554888401850152948501948794509183019161482d565b91505061481894506020925060ff191682840152151560051b820101388061480a565b6000546001600160a01b0316330361489457565b60405163118cdaa760e01b8152336004820152602490fd5b5190811515820361087b57565b156148c057565b60405162461bcd60e51b815260206004820152601d60248201527f4576656e74506f6f6c3a2057616c6c657420626c61636b6c69737465640000006044820152606490fd5b8181029291811591840414171561491857565b634e487b7160e01b600052601160045260246000fd5b9190820180921161491857565b60001981146149185760010190565b60058210156146045752565b818110614961575050565b60008155600101614956565b80549190600160401b8310156130c15782612c799160016148189501815561455c565b3d156149bb573d906149a182614785565b916149af6040519384614762565b82523d6000602084013e565b606090565b156149c757565b60405162461bcd60e51b815260206004820152602760248201527f4576656e74506f6f6c3a20466565207472616e7366657220746f206f776e65726044820152660819985a5b195960ca1b6064820152608490fd5b9081526001600160a01b039182166020820152911660408201526060810191909152608081019190915260a00190565b51906001600160a01b038216820361087b57565b9081526001600160a01b03909116602082015260400190565b909493926060926080830196835260018060a01b0316602083015260408201520152565b6001600160a01b03918216815291166020820152604081019190915260600190565b9290600091614af8602094614aea604051938492888401966323b872dd60e01b885260248501614a9d565b03601f198101835282614762565b519082855af115614b4b576000513d614b4257506001600160a01b0381163b155b614b205750565b604051635274afe760e01b81526001600160a01b039091166004820152602490fd5b60011415614b19565b6040513d6000823e3d90fd5b15614b5e57565b60405162461bcd60e51b8152602060048201526019602482015278115d995b9d141bdbdb0e8813585c9ad95d0819195b195d1959603a1b6044820152606490fd5b15614ba657565b60405162461bcd60e51b815260206004820152601c60248201527b4576656e74506f6f6c3a204d61726b6574206e6f742061637469766560201b6044820152606490fd5b9190820391821161491857565b15614bfe57565b60405162461bcd60e51b815260206004820152601f60248201527f4576656e74506f6f6c3a205374616b696e6720706572696f6420656e646564006044820152606490fd5b15614c4a57565b60405162461bcd60e51b815260206004820152601960248201527822bb32b73a2837b7b61d1024b73b30b634b21037b83a34b7b760391b6044820152606490fd5b15614c9257565b60405162461bcd60e51b815260206004820152601e60248201527f4576656e74506f6f6c3a2042656c6f77206d696e696d756d207374616b6500006044820152606490fd5b8054600160401b8110156130c157614cf49160018201815561455c565b819291549060031b9160018060a01b03809116831b921b1916179055565b15614d1957565b60405162461bcd60e51b815260206004820152603060248201527f4576656e74506f6f6c3a20537570706f727420616d6f756e74206d757374206260448201526f0652067726561746572207468616e20360841b6064820152608490fd5b9081526001600160a01b03918216602082015291166040820152606081019190915260800190565b9081526001600160a01b039091166020820152604081019190915260600190565b15614dc757565b60405162461bcd60e51b815260206004820152602160248201527f4576656e74506f6f6c3a204e6f20737570706f727420746f20776974686472616044820152607760f81b6064820152608490fd5b9081526001600160a01b0391821660208201529116604082015260600190565b15614e3d57565b60405162461bcd60e51b8152602060048201526024808201527f4576656e74506f6f6c3a204d61726b6574206e6f7420696e20656e64656420736044820152637461746560e01b6064820152608490fd5b15614e9557565b60405162461bcd60e51b815260206004820152601b60248201527a115d995b9d141bdbdb0e88105b1c9958591e481c995cdbdb1d9959602a1b6044820152606490fd5b60405190614ee582614747565b601982527814995cdbdb1d5d1a5bdb881c195c9a5bd908195e1c1a5c9959603a1b6020830152565b919082604091031261087b576020614f24836148ac565b92015190565b919091600092818452602090600182526040808620600c810160ff815416600581101561120a576001614f5d9114614e36565b83151580615259575b1561520b57600e8201614f7d60ff82541615614e8e565b600b8301544210156151f7576008548451634ffe2a8b60e01b81526001600160a01b03949188908290600490829089165afa9081156151b057859187918d916151ba575b5060248b83519485938492633313865560e21b84526004840152165afa80156151b05787908c928d9161518d575b5082615183575b50501561512057600d01859055805460ff1990811660011790915581541660021790556150238386615445565b61502c85615689565b600484826008541684519283809263406ad64560e11b82525afa9081156151165788916150e1575b501680615077575b50600080516020615ea38339815191529394955051908152a2565b8087913b156103d2578190604484518094819362ff4a7360e81b83528a60048401528860248401525af180156150d757600080516020615ea3833981519152959697506150c8575b8695945061505c565b6150d190614718565b386150bf565b82513d89823e3d90fd5b90508481813d831161510f575b6150f88183614762565b810103126108c15761510990614a4c565b38615054565b503d6150ee565b83513d8a823e3d90fd5b845162461bcd60e51b815260048101889052603660248201527f4576656e74506f6f6c3a20496e73756666696369656e74207665726966696572604482015275103b37ba32b9903337b9103a3434b99037b83a34b7b760511b6064820152608490fd5b1490508638614ff6565b90506151a7919250873d891161206b5761205b8183614762565b91909138614fef565b86513d8d823e3d90fd5b925050508781813d83116151f0575b6151d38183614762565b810103126151ec57856151e68692614a4c565b38614fc1565b8a80fd5b503d6151c9565b50505050505061481891925061234d614ed8565b825162461bcd60e51b815260048101869052602160248201527f4576656e74506f6f6c3a20496e76616c69642077696e6e696e67206f7074696f6044820152603760f91b6064820152608490fd5b506003820154841115614f66565b1561526e57565b60405162461bcd60e51b815260206004820152601e60248201527f4576656e74506f6f6c3a204d61726b6574206e6f74207265736f6c76656400006044820152606490fd5b156152ba57565b60405162461bcd60e51b815260206004820152601c60248201527b22bb32b73a2837b7b61d102737903bb4b73734b7339037b83a34b7b760211b6044820152606490fd5b1561530557565b60405162461bcd60e51b815260206004820152601a602482015279115d995b9d141bdbdb0e88139bc81cdd185ad9481c1b1858d95960321b6044820152606490fd5b1561534e57565b60405162461bcd60e51b815260206004820152601a602482015279115d995b9d141bdbdb0e88105b1c9958591e4818db185a5b595960321b6044820152606490fd5b90815260208101919091526001600160a01b03909116604082015260600190565b81156153bb570490565b634e487b7160e01b600052601260045260246000fd5b90615415600080516020615e6383398151915291836000526001602052600c604060002001600360ff198254161790556040519182916020835260208301906145d2565b0390a2565b6001600160401b0381116130c15760051b60200190565b80518210156145465760209160051b010190565b60085460408051634ffe2a8b60e01b8152909493916001600160a01b039160209160049190839082908490829088165afa801561566357849160009161562c575b50885163549af3b360e11b81529591166000868481845afa95861561562157600096615587575b5060005b865181101561557b578985848a6154e78a6154cc878e615431565b5116945194859384936321dc9b5960e21b85528b8501615390565b0381865afa90811561557057600091615536575b509061550a9161550f5761493b565b6154b1565b88600052600d86526155318b60002088615529848c615431565b511690614cd7565b61493b565b908682813d8311615569575b61554c8183614762565b8101031261028a57509061556261550a926148ac565b90916154fb565b503d615542565b8b513d6000823e3d90fd5b50505050505050509050565b9590953d8083833e6155998183614762565b81019085818303126106c4578051906001600160401b038211610687570181601f820112156106c4578051906155ce8261541a565b936155db8d519586614762565b828552878086019360051b83010193841161028a575086809101915b838310615609575050505094386154ad565b819061561484614a4c565b81520191019086906155f7565b89513d6000823e3d90fd5b91508382813d831161565c575b6156438183614762565b8101031261028a57506156568491614a4c565b38615486565b503d615639565b88513d6000823e3d90fd5b6001600160a01b039091168152602081019190915260400190565b600090808252602090600182526040918284209084906001926003810154600d820154945b81811115615bb357505060018060a01b0393849260079684885416916156f58a60049883858b808b019d8e5416958695519586938493634f44289d60e01b85528401614a60565b0381895afa918215615b23578d9493928f928c92889492615b76575b50846157238795949361573b9361492e565b975163dc4ce34960e01b81529a8b9485948501615390565b0381885afa958615615b6c578c8a918f98615b2f575b508583926157718693519485938493633d1e7ba160e11b85528401614a60565b0381895afa928315615b23578e93615af3575b505061015e948583029383159684860414871715615ae0576127108095049460968502858104609614891715615acb57819004976101f49081870291878304141715615acb57049761595a575050506157f0906157ea866157e5878661492e565b61492e565b90614bea565b94816158ed575b505081615886575b50509061580b9161492e565b938461581b575b50505050505050565b8190541692541690823b15610dc6579184939186809461584e97519788958694859363f0824f3360e01b8552840161566e565b03925af190811561587d5750615869575b8080808080615812565b6158738291614718565b61028a578061585f565b513d84823e3d90fd5b848854168588541691813b156158e957908b929183896158b98e5197889687958694633afb1f3f60e11b86528501614d9f565b03925af180156158df57908991156157ff576158d490614718565b6108c15787386157ff565b88513d8b823e3d90fd5b8b80fd5b86808b541691541690878a541691813b1561595657908d9291838b8f61592690519788968795869463112cd22360e01b86528501614a9d565b03925af1801561594c57908b91156157f75761594190614718565b6120b05789386157f7565b8a513d8d823e3d90fd5b8d80fd5b9092509a9690929394959a615979575b50505050505050505050505050565b879084615a66575b505050505081615a01575b50508461599f575b80808080808061596a565b8190541692541690823b15610dc657918493918680946159d29751978895869485936348fef59560e01b8552840161566e565b03925af190811561587d57506159ed575b8080808080615994565b6159f78291614718565b61028a57806159e3565b83835416908487541690823b156151ec5791615a3693918b80948c5196879586948593633afb1f3f60e11b85528d8501614d9f565b03925af18015615a5c579088911561598c57615a5190614718565b61091a57863861598c565b87513d8a823e3d90fd5b5416813b15615ac757908c9291838a615a928f519788968795869463112cd22360e01b86528501614a9d565b03925af18015615abd57615aaa575b80808681615981565b615ab690999199614718565b9738615aa1565b89513d8c823e3d90fd5b8c80fd5b5050634e487b7160e01b8f5260118b5260248ffd5b634e487b7160e01b8f5260118b5260248ffd5b9080929350813d8311615b1c575b615b0b8183614762565b81010312615ac75751903880615784565b503d615b01565b8e8e51903d90823e3d90fd5b92938095969798508092508391503d8311615b65575b615b4f8183614762565b81010312615ac757519493929190888c85615751565b503d615b45565b8c513d8f823e3d90fd5b935093948096508092508391503d8311615bac575b615b958183614762565b8101031261595657518c93929185918b9184615711565b503d615b8b565b858103615bc9575b615bc49061493b565b6156ae565b9387848660018060a01b038a816007541691615c00600491828b01541696519687958694859463dc4ce34960e01b86528501615390565b03915afa908115615abd578a91615c28575b50615c2090615bc49261492e565b949050615bbb565b90508481813d8311615c50575b615c3f8183614762565b810103126120b05751615bc4615c12565b503d615c35565b60005b600a9081549182821015615d0b578392615c738361452b565b949054600395861b1c14615c92575050615c8d915061493b565b615c5a565b9091600019918083019190821161491857612c79615cb2615cbe9361452b565b905490871b1c9161452b565b81548015615cf557810192615cd28461452b565b81939154921b1b1916905555600052600b602052604060002060ff198154169055565b634e487b7160e01b600052603160045260246000fd5b50505050565b15615d1857565b60405162461bcd60e51b815260206004820152601c60248201527b22bb32b73a2837b7b61d1027b7363c9020b236b4b726b0b730b3b2b960211b6044820152606490fd5b15615d6357565b60405162461bcd60e51b815260206004820152601c60248201527b115d995b9d141bdbdb0e88125b9d985b1a59081b585c9ad95d08125160221b6044820152606490fd5b15615dae57565b606460405162461bcd60e51b815260206004820152602060248201527f4576656e74506f6f6c3a204d61726b657420646f6573206e6f742065786973746044820152fd5b60405190615dff8261472b565b816101c0600091828152606060208201528260408201528260608201528260808201528260a08201528260c08201528260e08201528261010082015282610120820152826101408201528261016082015282610180820152826101a0820152015256fe4c4561c5b0048424071c1115e9f1e325486e21c21333d968f21097b7b72d12ad8be0079c531659141344cd1fd0a4f28419497f9722a3daafe3b4186f6b6457e06dfc24f0f2fb42e49fb4fa3ffa8abb148cab908a1fb8335b3f128a08b2594af1e10fdde2c5cd9b92e449ee25df01febda2cbebc5553e38f2250ffe7f2d5143bca2646970667358221220626edcc25efb2e67789f975c6ad9da0e0fcf24c137b87bff732e5760bdddf49a64736f6c63430008140033",
  "linkReferences": {},
  "deployedLinkReferences": {}
}