{
  "_format": "hh-sol-artifact-1",
  "contractName": "EventPool",
  "sourceName": "contracts/P2PMarketManager.sol",
  "abi": [
    {
      "inputs": [
        {
          "internalType": "address",
          "name": "initialOwner",
          "type": "address"
        },
        {
          "internalType": "address payable",
          "name": "_treasury",
          "type": "address"
        },
        {
          "internalType": "address",
          "name": "_verification",
          "type": "address"
        },
        {
          "internalType": "address",
          "name": "_analytics",
          "type": "address"
        },
        {
          "internalType": "uint256",
          "name": "_marketCreationFee",
          "type": "uint256"
        }
      ],
      "stateMutability": "nonpayable",
      "type": "constructor"
    },
    {
      "inputs": [
        {
          "internalType": "address",
          "name": "owner",
          "type": "address"
        }
      ],
      "name": "OwnableInvalidOwner",
      "type": "error"
    },
    {
      "inputs": [
        {
          "internalType": "address",
          "name": "account",
          "type": "address"
        }
      ],
      "name": "OwnableUnauthorizedAccount",
      "type": "error"
    },
    {
      "inputs": [
        {
          "internalType": "address",
          "name": "token",
          "type": "address"
        }
      ],
      "name": "SafeERC20FailedOperation",
      "type": "error"
    },
    {
      "anonymous": false,
      "inputs": [
        {
          "indexed": true,
          "internalType": "uint256",
          "name": "marketId",
          "type": "uint256"
        },
        {
          "indexed": true,
          "internalType": "address",
          "name": "user",
          "type": "address"
        },
        {
          "indexed": false,
          "internalType": "uint256",
          "name": "option",
          "type": "uint256"
        },
        {
          "indexed": false,
          "internalType": "uint256",
          "name": "amount",
          "type": "uint256"
        }
      ],
      "name": "BetPlaced",
      "type": "event"
    },
    {
      "anonymous": false,
      "inputs": [
        {
          "indexed": true,
          "internalType": "uint256",
          "name": "marketId",
          "type": "uint256"
        },
        {
          "indexed": false,
          "internalType": "string",
          "name": "reason",
          "type": "string"
        }
      ],
      "name": "MarketCancelled",
      "type": "event"
    },
    {
      "anonymous": false,
      "inputs": [
        {
          "indexed": true,
          "internalType": "uint256",
          "name": "marketId",
          "type": "uint256"
        },
        {
          "indexed": true,
          "internalType": "address",
          "name": "creator",
          "type": "address"
        },
        {
          "indexed": false,
          "internalType": "string",
          "name": "ipfsHash",
          "type": "string"
        },
        {
          "indexed": false,
          "internalType": "bool",
          "name": "isMultiOption",
          "type": "bool"
        },
        {
          "indexed": false,
          "internalType": "uint256",
          "name": "maxOptions",
          "type": "uint256"
        },
        {
          "indexed": false,
          "internalType": "address",
          "name": "paymentToken",
          "type": "address"
        },
        {
          "indexed": false,
          "internalType": "uint256",
          "name": "minStake",
          "type": "uint256"
        }
      ],
      "name": "MarketCreated",
      "type": "event"
    },
    {
      "anonymous": false,
      "inputs": [
        {
          "indexed": true,
          "internalType": "uint256",
          "name": "marketId",
          "type": "uint256"
        },
        {
          "indexed": false,
          "internalType": "uint256",
          "name": "endTime",
          "type": "uint256"
        }
      ],
      "name": "MarketEnded",
      "type": "event"
    },
    {
      "anonymous": false,
      "inputs": [
        {
          "indexed": true,
          "internalType": "uint256",
          "name": "marketId",
          "type": "uint256"
        },
        {
          "indexed": false,
          "internalType": "uint256",
          "name": "winningOption",
          "type": "uint256"
        }
      ],
      "name": "MarketResolved",
      "type": "event"
    },
    {
      "anonymous": false,
      "inputs": [
        {
          "indexed": true,
          "internalType": "uint256",
          "name": "marketId",
          "type": "uint256"
        },
        {
          "indexed": true,
          "internalType": "address",
          "name": "supporter",
          "type": "address"
        },
        {
          "indexed": false,
          "internalType": "uint256",
          "name": "amount",
          "type": "uint256"
        }
      ],
      "name": "MarketSupported",
      "type": "event"
    },
    {
      "anonymous": false,
      "inputs": [
        {
          "indexed": true,
          "internalType": "address",
          "name": "previousOwner",
          "type": "address"
        },
        {
          "indexed": true,
          "internalType": "address",
          "name": "newOwner",
          "type": "address"
        }
      ],
      "name": "OwnershipTransferred",
      "type": "event"
    },
    {
      "anonymous": false,
      "inputs": [
        {
          "indexed": true,
          "internalType": "uint256",
          "name": "marketId",
          "type": "uint256"
        },
        {
          "indexed": true,
          "internalType": "address",
          "name": "user",
          "type": "address"
        },
        {
          "indexed": false,
          "internalType": "uint256",
          "name": "amount",
          "type": "uint256"
        }
      ],
      "name": "RefundClaimed",
      "type": "event"
    },
    {
      "anonymous": false,
      "inputs": [
        {
          "indexed": true,
          "internalType": "uint256",
          "name": "marketId",
          "type": "uint256"
        },
        {
          "indexed": true,
          "internalType": "address",
          "name": "supporter",
          "type": "address"
        },
        {
          "indexed": false,
          "internalType": "uint256",
          "name": "amount",
          "type": "uint256"
        }
      ],
      "name": "SupportRewardClaimed",
      "type": "event"
    },
    {
      "anonymous": false,
      "inputs": [
        {
          "indexed": true,
          "internalType": "uint256",
          "name": "marketId",
          "type": "uint256"
        },
        {
          "indexed": true,
          "internalType": "address",
          "name": "supporter",
          "type": "address"
        },
        {
          "indexed": false,
          "internalType": "uint256",
          "name": "amount",
          "type": "uint256"
        }
      ],
      "name": "SupportWithdrawn",
      "type": "event"
    },
    {
      "anonymous": false,
      "inputs": [
        {
          "indexed": true,
          "internalType": "uint256",
          "name": "marketId",
          "type": "uint256"
        },
        {
          "indexed": true,
          "internalType": "address",
          "name": "user",
          "type": "address"
        },
        {
          "indexed": false,
          "internalType": "uint256",
          "name": "amount",
          "type": "uint256"
        }
      ],
      "name": "WinningsClaimed",
      "type": "event"
    },
    {
      "inputs": [
        {
          "internalType": "uint256",
          "name": "",
          "type": "uint256"
        }
      ],
      "name": "activeMarkets",
      "outputs": [
        {
          "internalType": "uint256",
          "name": "",
          "type": "uint256"
        }
      ],
      "stateMutability": "view",
      "type": "function"
    },
    {
      "inputs": [
        {
          "internalType": "address",
          "name": "token",
          "type": "address"
        },
        {
          "internalType": "string",
          "name": "symbol",
          "type": "string"
        }
      ],
      "name": "addSupportedToken",
      "outputs": [],
      "stateMutability": "nonpayable",
      "type": "function"
    },
    {
      "inputs": [],
      "name": "analytics",
      "outputs": [
        {
          "internalType": "address",
          "name": "",
          "type": "address"
        }
      ],
      "stateMutability": "view",
      "type": "function"
    },
    {
      "inputs": [
        {
          "internalType": "uint256",
          "name": "marketId",
          "type": "uint256"
        }
      ],
      "name": "autoResolve",
      "outputs": [],
      "stateMutability": "nonpayable",
      "type": "function"
    },
    {
      "inputs": [],
      "name": "bettingRestrictionEnabled",
      "outputs": [
        {
          "internalType": "bool",
          "name": "",
          "type": "bool"
        }
      ],
      "stateMutability": "view",
      "type": "function"
    },
    {
      "inputs": [],
      "name": "bettingRestrictionMinutes",
      "outputs": [
        {
          "internalType": "uint256",
          "name": "",
          "type": "uint256"
        }
      ],
      "stateMutability": "view",
      "type": "function"
    },
    {
      "inputs": [
        {
          "internalType": "address",
          "name": "",
          "type": "address"
        }
      ],
      "name": "blacklistedWallets",
      "outputs": [
        {
          "internalType": "bool",
          "name": "",
          "type": "bool"
        }
      ],
      "stateMutability": "view",
      "type": "function"
    },
    {
      "inputs": [
        {
          "internalType": "uint256",
          "name": "marketId",
          "type": "uint256"
        }
      ],
      "name": "cancelMarket",
      "outputs": [],
      "stateMutability": "nonpayable",
      "type": "function"
    },
    {
      "inputs": [
        {
          "internalType": "uint256",
          "name": "marketId",
          "type": "uint256"
        }
      ],
      "name": "claimRefund",
      "outputs": [],
      "stateMutability": "nonpayable",
      "type": "function"
    },
    {
      "inputs": [
        {
          "internalType": "uint256",
          "name": "marketId",
          "type": "uint256"
        }
      ],
      "name": "claimWinnings",
      "outputs": [],
      "stateMutability": "nonpayable",
      "type": "function"
    },
    {
      "inputs": [
        {
          "internalType": "string",
          "name": "ipfsHash",
          "type": "string"
        },
        {
          "internalType": "bool",
          "name": "isMultiOption",
          "type": "bool"
        },
        {
          "internalType": "uint256",
          "name": "maxOptions",
          "type": "uint256"
        },
        {
          "internalType": "address",
          "name": "paymentToken",
          "type": "address"
        },
        {
          "internalType": "uint256",
          "name": "minStake",
          "type": "uint256"
        },
        {
          "internalType": "uint256",
          "name": "creatorDeposit",
          "type": "uint256"
        },
        {
          "internalType": "uint256",
          "name": "creatorOutcome",
          "type": "uint256"
        },
        {
          "internalType": "uint256",
          "name": "durationMinutes",
          "type": "uint256"
        }
      ],
      "name": "createMarket",
      "outputs": [
        {
          "internalType": "uint256",
          "name": "",
          "type": "uint256"
        }
      ],
      "stateMutability": "payable",
      "type": "function"
    },
    {
      "inputs": [
        {
          "internalType": "uint256",
          "name": "marketId",
          "type": "uint256"
        }
      ],
      "name": "creatorCancelMarket",
      "outputs": [],
      "stateMutability": "nonpayable",
      "type": "function"
    },
    {
      "inputs": [
        {
          "internalType": "uint256",
          "name": "marketId",
          "type": "uint256"
        },
        {
          "internalType": "string",
          "name": "reason",
          "type": "string"
        }
      ],
      "name": "deleteMarket",
      "outputs": [],
      "stateMutability": "nonpayable",
      "type": "function"
    },
    {
      "inputs": [
        {
          "internalType": "uint256",
          "name": "",
          "type": "uint256"
        }
      ],
      "name": "deletedMarkets",
      "outputs": [
        {
          "internalType": "uint256",
          "name": "",
          "type": "uint256"
        }
      ],
      "stateMutability": "view",
      "type": "function"
    },
    {
      "inputs": [
        {
          "internalType": "uint256",
          "name": "",
          "type": "uint256"
        }
      ],
      "name": "deletionTimestamp",
      "outputs": [
        {
          "internalType": "uint256",
          "name": "",
          "type": "uint256"
        }
      ],
      "stateMutability": "view",
      "type": "function"
    },
    {
      "inputs": [
        {
          "internalType": "uint256",
          "name": "marketId",
          "type": "uint256"
        }
      ],
      "name": "endMarket",
      "outputs": [],
      "stateMutability": "nonpayable",
      "type": "function"
    },
    {
      "inputs": [],
      "name": "getActiveMarketCount",
      "outputs": [
        {
          "internalType": "uint256",
          "name": "",
          "type": "uint256"
        }
      ],
      "stateMutability": "view",
      "type": "function"
    },
    {
      "inputs": [],
      "name": "getActiveMarkets",
      "outputs": [
        {
          "internalType": "uint256[]",
          "name": "",
          "type": "uint256[]"
        }
      ],
      "stateMutability": "view",
      "type": "function"
    },
    {
      "inputs": [],
      "name": "getAllMarketIds",
      "outputs": [
        {
          "internalType": "uint256[]",
          "name": "",
          "type": "uint256[]"
        }
      ],
      "stateMutability": "view",
      "type": "function"
    },
    {
      "inputs": [
        {
          "internalType": "uint256",
          "name": "marketId",
          "type": "uint256"
        }
      ],
      "name": "getBettorCount",
      "outputs": [
        {
          "internalType": "uint256",
          "name": "",
          "type": "uint256"
        }
      ],
      "stateMutability": "view",
      "type": "function"
    },
    {
      "inputs": [],
      "name": "getDeletedMarkets",
      "outputs": [
        {
          "internalType": "uint256[]",
          "name": "",
          "type": "uint256[]"
        }
      ],
      "stateMutability": "view",
      "type": "function"
    },
    {
      "inputs": [
        {
          "internalType": "uint256",
          "name": "marketId",
          "type": "uint256"
        }
      ],
      "name": "getMarket",
      "outputs": [
        {
          "components": [
            {
              "internalType": "address",
              "name": "creator",
              "type": "address"
            },
            {
              "internalType": "string",
              "name": "ipfsHash",
              "type": "string"
            },
            {
              "internalType": "bool",
              "name": "isMultiOption",
              "type": "bool"
            },
            {
              "internalType": "uint256",
              "name": "maxOptions",
              "type": "uint256"
            },
            {
              "internalType": "address",
              "name": "paymentToken",
              "type": "address"
            },
            {
              "internalType": "uint256",
              "name": "minStake",
              "type": "uint256"
            },
            {
              "internalType": "uint256",
              "name": "creatorDeposit",
              "type": "uint256"
            },
            {
              "internalType": "uint256",
              "name": "creatorOutcome",
              "type": "uint256"
            },
            {
              "internalType": "uint256",
              "name": "startTime",
              "type": "uint256"
            },
            {
              "internalType": "uint256",
              "name": "endTime",
              "type": "uint256"
            },
            {
              "internalType": "uint256",
              "name": "resolutionEndTime",
              "type": "uint256"
            },
            {
              "internalType": "enum EventPool.MarketState",
              "name": "state",
              "type": "uint8"
            },
            {
              "internalType": "uint256",
              "name": "winningOption",
              "type": "uint256"
            },
            {
              "internalType": "bool",
              "name": "isResolved",
              "type": "bool"
            }
          ],
          "internalType": "struct EventPool.Market",
          "name": "",
          "type": "tuple"
        }
      ],
      "stateMutability": "view",
      "type": "function"
    },
    {
      "inputs": [
        {
          "internalType": "uint256",
          "name": "marketId",
          "type": "uint256"
        }
      ],
      "name": "getMarketBettors",
      "outputs": [
        {
          "internalType": "address[]",
          "name": "",
          "type": "address[]"
        }
      ],
      "stateMutability": "view",
      "type": "function"
    },
    {
      "inputs": [
        {
          "internalType": "uint256",
          "name": "marketId",
          "type": "uint256"
        }
      ],
      "name": "getMarketInfo",
      "outputs": [
        {
          "components": [
            {
              "internalType": "address",
              "name": "creator",
              "type": "address"
            },
            {
              "internalType": "string",
              "name": "ipfsHash",
              "type": "string"
            },
            {
              "internalType": "bool",
              "name": "isMultiOption",
              "type": "bool"
            },
            {
              "internalType": "uint256",
              "name": "maxOptions",
              "type": "uint256"
            },
            {
              "internalType": "address",
              "name": "paymentToken",
              "type": "address"
            },
            {
              "internalType": "uint256",
              "name": "minStake",
              "type": "uint256"
            },
            {
              "internalType": "uint256",
              "name": "creatorDeposit",
              "type": "uint256"
            },
            {
              "internalType": "uint256",
              "name": "creatorOutcome",
              "type": "uint256"
            },
            {
              "internalType": "uint256",
              "name": "startTime",
              "type": "uint256"
            },
            {
              "internalType": "uint256",
              "name": "endTime",
              "type": "uint256"
            },
            {
              "internalType": "uint256",
              "name": "resolutionEndTime",
              "type": "uint256"
            },
            {
              "internalType": "enum EventPool.MarketState",
              "name": "state",
              "type": "uint8"
            },
            {
              "internalType": "uint256",
              "name": "winningOption",
              "type": "uint256"
            },
            {
              "internalType": "bool",
              "name": "isResolved",
              "type": "bool"
            }
          ],
          "internalType": "struct EventPool.Market",
          "name": "market",
          "type": "tuple"
        },
        {
          "internalType": "uint256",
          "name": "totalPool",
          "type": "uint256"
        },
        {
          "internalType": "uint256",
          "name": "supportPool",
          "type": "uint256"
        },
        {
          "internalType": "uint256",
          "name": "bettorCount",
          "type": "uint256"
        },
        {
          "internalType": "uint256",
          "name": "supporterCount",
          "type": "uint256"
        },
        {
          "internalType": "address[]",
          "name": "bettors",
          "type": "address[]"
        },
        {
          "internalType": "address[]",
          "name": "supporters",
          "type": "address[]"
        },
        {
          "internalType": "string",
          "name": "tokenSymbol",
          "type": "string"
        }
      ],
      "stateMutability": "view",
      "type": "function"
    },
    {
      "inputs": [
        {
          "internalType": "uint256",
          "name": "marketId",
          "type": "uint256"
        }
      ],
      "name": "getMarketSupporters",
      "outputs": [
        {
          "internalType": "address[]",
          "name": "",
          "type": "address[]"
        }
      ],
      "stateMutability": "view",
      "type": "function"
    },
    {
      "inputs": [],
      "name": "getMarketsReadyForRemoval",
      "outputs": [
        {
          "internalType": "uint256[]",
          "name": "",
          "type": "uint256[]"
        }
      ],
      "stateMutability": "view",
      "type": "function"
    },
    {
      "inputs": [],
      "name": "getNextMarketId",
      "outputs": [
        {
          "internalType": "uint256",
          "name": "",
          "type": "uint256"
        }
      ],
      "stateMutability": "view",
      "type": "function"
    },
    {
      "inputs": [
        {
          "internalType": "uint256",
          "name": "marketId",
          "type": "uint256"
        },
        {
          "internalType": "uint256",
          "name": "option",
          "type": "uint256"
        },
        {
          "internalType": "address",
          "name": "token",
          "type": "address"
        }
      ],
      "name": "getOptionPool",
      "outputs": [
        {
          "internalType": "uint256",
          "name": "",
          "type": "uint256"
        }
      ],
      "stateMutability": "view",
      "type": "function"
    },
    {
      "inputs": [],
      "name": "getPermanentlyRemovedMarkets",
      "outputs": [
        {
          "internalType": "uint256[]",
          "name": "",
          "type": "uint256[]"
        }
      ],
      "stateMutability": "view",
      "type": "function"
    },
    {
      "inputs": [
        {
          "internalType": "uint256",
          "name": "marketId",
          "type": "uint256"
        },
        {
          "internalType": "address",
          "name": "token",
          "type": "address"
        }
      ],
      "name": "getSupportPool",
      "outputs": [
        {
          "internalType": "uint256",
          "name": "",
          "type": "uint256"
        }
      ],
      "stateMutability": "view",
      "type": "function"
    },
    {
      "inputs": [],
      "name": "getSupportedTokenCount",
      "outputs": [
        {
          "internalType": "uint256",
          "name": "",
          "type": "uint256"
        }
      ],
      "stateMutability": "view",
      "type": "function"
    },
    {
      "inputs": [],
      "name": "getSupportedTokens",
      "outputs": [
        {
          "internalType": "address[]",
          "name": "tokens",
          "type": "address[]"
        },
        {
          "internalType": "string[]",
          "name": "symbols",
          "type": "string[]"
        }
      ],
      "stateMutability": "view",
      "type": "function"
    },
    {
      "inputs": [
        {
          "internalType": "uint256",
          "name": "marketId",
          "type": "uint256"
        }
      ],
      "name": "getSupporterCount",
      "outputs": [
        {
          "internalType": "uint256",
          "name": "",
          "type": "uint256"
        }
      ],
      "stateMutability": "view",
      "type": "function"
    },
    {
      "inputs": [
        {
          "internalType": "uint256",
          "name": "marketId",
          "type": "uint256"
        },
        {
          "internalType": "address",
          "name": "token",
          "type": "address"
        }
      ],
      "name": "getTotalPool",
      "outputs": [
        {
          "internalType": "uint256",
          "name": "",
          "type": "uint256"
        }
      ],
      "stateMutability": "view",
      "type": "function"
    },
    {
      "inputs": [
        {
          "internalType": "uint256",
          "name": "marketId",
          "type": "uint256"
        },
        {
          "internalType": "address",
          "name": "user",
          "type": "address"
        },
        {
          "internalType": "address",
          "name": "token",
          "type": "address"
        }
      ],
      "name": "getUserBet",
      "outputs": [
        {
          "internalType": "uint256",
          "name": "",
          "type": "uint256"
        }
      ],
      "stateMutability": "view",
      "type": "function"
    },
    {
      "inputs": [
        {
          "internalType": "address",
          "name": "user",
          "type": "address"
        }
      ],
      "name": "getUserMarketHistory",
      "outputs": [
        {
          "internalType": "uint256[]",
          "name": "",
          "type": "uint256[]"
        }
      ],
      "stateMutability": "view",
      "type": "function"
    },
    {
      "inputs": [
        {
          "internalType": "uint256",
          "name": "marketId",
          "type": "uint256"
        },
        {
          "internalType": "address",
          "name": "user",
          "type": "address"
        },
        {
          "internalType": "address",
          "name": "token",
          "type": "address"
        }
      ],
      "name": "getUserSupport",
      "outputs": [
        {
          "internalType": "uint256",
          "name": "",
          "type": "uint256"
        }
      ],
      "stateMutability": "view",
      "type": "function"
    },
    {
      "inputs": [
        {
          "internalType": "uint256",
          "name": "",
          "type": "uint256"
        }
      ],
      "name": "isActiveMarket",
      "outputs": [
        {
          "internalType": "bool",
          "name": "",
          "type": "bool"
        }
      ],
      "stateMutability": "view",
      "type": "function"
    },
    {
      "inputs": [
        {
          "internalType": "uint256",
          "name": "marketId",
          "type": "uint256"
        }
      ],
      "name": "isMarketActive",
      "outputs": [
        {
          "internalType": "bool",
          "name": "",
          "type": "bool"
        }
      ],
      "stateMutability": "view",
      "type": "function"
    },
    {
      "inputs": [
        {
          "internalType": "uint256",
          "name": "",
          "type": "uint256"
        },
        {
          "internalType": "uint256",
          "name": "",
          "type": "uint256"
        }
      ],
      "name": "marketBettors",
      "outputs": [
        {
          "internalType": "address",
          "name": "",
          "type": "address"
        }
      ],
      "stateMutability": "view",
      "type": "function"
    },
    {
      "inputs": [],
      "name": "marketCreationFee",
      "outputs": [
        {
          "internalType": "uint256",
          "name": "",
          "type": "uint256"
        }
      ],
      "stateMutability": "view",
      "type": "function"
    },
    {
      "inputs": [
        {
          "internalType": "uint256",
          "name": "",
          "type": "uint256"
        },
        {
          "internalType": "uint256",
          "name": "",
          "type": "uint256"
        }
      ],
      "name": "marketSupporters",
      "outputs": [
        {
          "internalType": "address",
          "name": "",
          "type": "address"
        }
      ],
      "stateMutability": "view",
      "type": "function"
    },
    {
      "inputs": [
        {
          "internalType": "uint256",
          "name": "",
          "type": "uint256"
        }
      ],
      "name": "markets",
      "outputs": [
        {
          "internalType": "address",
          "name": "creator",
          "type": "address"
        },
        {
          "internalType": "string",
          "name": "ipfsHash",
          "type": "string"
        },
        {
          "internalType": "bool",
          "name": "isMultiOption",
          "type": "bool"
        },
        {
          "internalType": "uint256",
          "name": "maxOptions",
          "type": "uint256"
        },
        {
          "internalType": "address",
          "name": "paymentToken",
          "type": "address"
        },
        {
          "internalType": "uint256",
          "name": "minStake",
          "type": "uint256"
        },
        {
          "internalType": "uint256",
          "name": "creatorDeposit",
          "type": "uint256"
        },
        {
          "internalType": "uint256",
          "name": "creatorOutcome",
          "type": "uint256"
        },
        {
          "internalType": "uint256",
          "name": "startTime",
          "type": "uint256"
        },
        {
          "internalType": "uint256",
          "name": "endTime",
          "type": "uint256"
        },
        {
          "internalType": "uint256",
          "name": "resolutionEndTime",
          "type": "uint256"
        },
        {
          "internalType": "enum EventPool.MarketState",
          "name": "state",
          "type": "uint8"
        },
        {
          "internalType": "uint256",
          "name": "winningOption",
          "type": "uint256"
        },
        {
          "internalType": "bool",
          "name": "isResolved",
          "type": "bool"
        }
      ],
      "stateMutability": "view",
      "type": "function"
    },
    {
      "inputs": [],
      "name": "minMarketDurationMinutes",
      "outputs": [
        {
          "internalType": "uint256",
          "name": "",
          "type": "uint256"
        }
      ],
      "stateMutability": "view",
      "type": "function"
    },
    {
      "inputs": [],
      "name": "nextMarketId",
      "outputs": [
        {
          "internalType": "uint256",
          "name": "",
          "type": "uint256"
        }
      ],
      "stateMutability": "view",
      "type": "function"
    },
    {
      "inputs": [],
      "name": "owner",
      "outputs": [
        {
          "internalType": "address",
          "name": "",
          "type": "address"
        }
      ],
      "stateMutability": "view",
      "type": "function"
    },
    {
      "inputs": [
        {
          "internalType": "uint256",
          "name": "marketId",
          "type": "uint256"
        }
      ],
      "name": "permanentlyRemoveMarket",
      "outputs": [],
      "stateMutability": "nonpayable",
      "type": "function"
    },
    {
      "inputs": [
        {
          "internalType": "uint256",
          "name": "",
          "type": "uint256"
        }
      ],
      "name": "permanentlyRemovedMarkets",
      "outputs": [
        {
          "internalType": "uint256",
          "name": "",
          "type": "uint256"
        }
      ],
      "stateMutability": "view",
      "type": "function"
    },
    {
      "inputs": [
        {
          "internalType": "uint256",
          "name": "marketId",
          "type": "uint256"
        },
        {
          "internalType": "uint256",
          "name": "option",
          "type": "uint256"
        }
      ],
      "name": "placeBet",
      "outputs": [],
      "stateMutability": "payable",
      "type": "function"
    },
    {
      "inputs": [
        {
          "internalType": "uint256",
          "name": "marketId",
          "type": "uint256"
        },
        {
          "internalType": "uint256",
          "name": "option",
          "type": "uint256"
        },
        {
          "internalType": "uint256",
          "name": "amount",
          "type": "uint256"
        }
      ],
      "name": "placeBetWithToken",
      "outputs": [],
      "stateMutability": "nonpayable",
      "type": "function"
    },
    {
      "inputs": [
        {
          "internalType": "address",
          "name": "token",
          "type": "address"
        }
      ],
      "name": "removeSupportedToken",
      "outputs": [],
      "stateMutability": "nonpayable",
      "type": "function"
    },
    {
      "inputs": [],
      "name": "renounceOwnership",
      "outputs": [],
      "stateMutability": "nonpayable",
      "type": "function"
    },
    {
      "inputs": [
        {
          "internalType": "uint256",
          "name": "marketId",
          "type": "uint256"
        },
        {
          "internalType": "uint256",
          "name": "_winningOption",
          "type": "uint256"
        }
      ],
      "name": "resolveMarket",
      "outputs": [],
      "stateMutability": "nonpayable",
      "type": "function"
    },
    {
      "inputs": [
        {
          "internalType": "address",
          "name": "_analytics",
          "type": "address"
        }
      ],
      "name": "setAnalytics",
      "outputs": [],
      "stateMutability": "nonpayable",
      "type": "function"
    },
    {
      "inputs": [
        {
          "internalType": "bool",
          "name": "_enabled",
          "type": "bool"
        },
        {
          "internalType": "uint256",
          "name": "_restrictionMinutes",
          "type": "uint256"
        }
      ],
      "name": "setBettingRestriction",
      "outputs": [],
      "stateMutability": "nonpayable",
      "type": "function"
    },
    {
      "inputs": [
        {
          "internalType": "uint256",
          "name": "_marketCreationFee",
          "type": "uint256"
        }
      ],
      "name": "setMarketCreationFee",
      "outputs": [],
      "stateMutability": "nonpayable",
      "type": "function"
    },
    {
      "inputs": [
        {
          "internalType": "uint256",
          "name": "_minMarketDurationMinutes",
          "type": "uint256"
        }
      ],
      "name": "setMinMarketDuration",
      "outputs": [],
      "stateMutability": "nonpayable",
      "type": "function"
    },
    {
      "inputs": [
        {
          "internalType": "address",
          "name": "_verification",
          "type": "address"
        }
      ],
      "name": "setVerification",
      "outputs": [],
      "stateMutability": "nonpayable",
      "type": "function"
    },
    {
      "inputs": [
        {
          "internalType": "address",
          "name": "wallet",
          "type": "address"
        },
        {
          "internalType": "bool",
          "name": "blacklisted",
          "type": "bool"
        }
      ],
      "name": "setWalletBlacklist",
      "outputs": [],
      "stateMutability": "nonpayable",
      "type": "function"
    },
    {
      "inputs": [
        {
          "internalType": "uint256",
          "name": "marketId",
          "type": "uint256"
        },
        {
          "internalType": "uint256",
          "name": "amount",
          "type": "uint256"
        }
      ],
      "name": "supportMarket",
      "outputs": [],
      "stateMutability": "nonpayable",
      "type": "function"
    },
    {
      "inputs": [
        {
          "internalType": "uint256",
          "name": "",
          "type": "uint256"
        }
      ],
      "name": "supportedTokenList",
      "outputs": [
        {
          "internalType": "address",
          "name": "",
          "type": "address"
        }
      ],
      "stateMutability": "view",
      "type": "function"
    },
    {
      "inputs": [
        {
          "internalType": "address",
          "name": "",
          "type": "address"
        }
      ],
      "name": "supportedTokens",
      "outputs": [
        {
          "internalType": "bool",
          "name": "",
          "type": "bool"
        }
      ],
      "stateMutability": "view",
      "type": "function"
    },
    {
      "inputs": [
        {
          "internalType": "address",
          "name": "",
          "type": "address"
        }
      ],
      "name": "tokenSymbols",
      "outputs": [
        {
          "internalType": "string",
          "name": "",
          "type": "string"
        }
      ],
      "stateMutability": "view",
      "type": "function"
    },
    {
      "inputs": [
        {
          "internalType": "address",
          "name": "newOwner",
          "type": "address"
        }
      ],
      "name": "transferOwnership",
      "outputs": [],
      "stateMutability": "nonpayable",
      "type": "function"
    },
    {
      "inputs": [],
      "name": "treasury",
      "outputs": [
        {
          "internalType": "address payable",
          "name": "",
          "type": "address"
        }
      ],
      "stateMutability": "view",
      "type": "function"
    },
    {
      "inputs": [
        {
          "internalType": "uint256",
          "name": "",
          "type": "uint256"
        },
        {
          "internalType": "address",
          "name": "",
          "type": "address"
        }
      ],
      "name": "userBetOptions",
      "outputs": [
        {
          "internalType": "uint256",
          "name": "",
          "type": "uint256"
        }
      ],
      "stateMutability": "view",
      "type": "function"
    },
    {
      "inputs": [
        {
          "internalType": "uint256",
          "name": "",
          "type": "uint256"
        },
        {
          "internalType": "address",
          "name": "",
          "type": "address"
        }
      ],
      "name": "userHasBet",
      "outputs": [
        {
          "internalType": "bool",
          "name": "",
          "type": "bool"
        }
      ],
      "stateMutability": "view",
      "type": "function"
    },
    {
      "inputs": [
        {
          "internalType": "uint256",
          "name": "",
          "type": "uint256"
        },
        {
          "internalType": "address",
          "name": "",
          "type": "address"
        }
      ],
      "name": "userHasSupported",
      "outputs": [
        {
          "internalType": "bool",
          "name": "",
          "type": "bool"
        }
      ],
      "stateMutability": "view",
      "type": "function"
    },
    {
      "inputs": [
        {
          "internalType": "address",
          "name": "",
          "type": "address"
        },
        {
          "internalType": "uint256",
          "name": "",
          "type": "uint256"
        }
      ],
      "name": "userMarketHistory",
      "outputs": [
        {
          "internalType": "uint256",
          "name": "",
          "type": "uint256"
        }
      ],
      "stateMutability": "view",
      "type": "function"
    },
    {
      "inputs": [],
      "name": "verification",
      "outputs": [
        {
          "internalType": "address",
          "name": "",
          "type": "address"
        }
      ],
      "stateMutability": "view",
      "type": "function"
    },
    {
      "inputs": [
        {
          "internalType": "uint256",
          "name": "marketId",
          "type": "uint256"
        }
      ],
      "name": "withdrawSupport",
      "outputs": [],
      "stateMutability": "nonpayable",
      "type": "function"
    },
    {
      "stateMutability": "payable",
      "type": "receive"
    }
  ],
  "bytecode": "0x6080346200023457601f62005ebc38819003918201601f1916830191906001600160401b0383118484101762000239578160a09285926040958652833981010312620002345762000050826200024f565b6020838101519192916001600160a01b03908181169081900362000234576200007b8487016200024f565b938260806200008d60608a016200024f565b98015196169586156200021c57600080546001600160a01b03198082168a17835584519a9099929692909183167f8be0079c531659141344cd1fd0a4f28419497f9722a3daafe3b4186f6b6457e08880a38160019889600e55600560105560ff1996876011541660115560056012558b600b541617600b551689600c541617600c551687600d541617600d55600f558280526008845280832080548681811c9116801562000211575b86821014620001fd579081601f88949311620001d1575b506008635045505560e01b01905583805260078552832080549092161790556009549268010000000000000000841015620001bd57830180600955831015620001a957600981522001908154169055615c579081620002658239f35b634e487b7160e01b81526032600452602490fd5b634e487b7160e01b82526041600452602482fd5b818652601f878720910160051c8101905b818110620001f157506200014d565b868155889401620001e2565b634e487b7160e01b85526022600452602485fd5b90607f169062000136565b8151631e4fbdf760e01b815260006004820152602490fd5b600080fd5b634e487b7160e01b600052604160045260246000fd5b51906001600160a01b0382168203620002345756fe6080604052600436101561001b575b361561001957600080fd5b005b6000803560e01c806307adc191146146f85780630b501ab81461468a5780630d64cdbd1461465b578063157bdcce1461458357806317916e0114614565578063256ba741146144bc578063287f57b5146144735780632b5ba3b9146144345780632b60c822146144095780632ef1bdfa146143eb57806333d6b46e146143785780633adfe6d01461434d5780633e32a76c146140865780633ec7919314613d5f578063406ef2ef14613d415780634584369514613cc35780634986597f14613c7c5780634afe62b51461394b5780634f44289d146138f15780634ffe2a8b146138c8578063510499691461374f5780635351404414613725578063553b7cbb146136cd5780635b7baf64146133035780635da3247a146132e557806360557333146132cd57806361d027b3146132a457806365ebce551461322e578063677bd9ff14612b8b57806368c4ac2614612b4c5780636d82222014612ad65780636ed2151a146127d1578063715018a614612777578063720138e8146124bd57806374c350eb1461247d57806376319190146122ec5780637c16cd9e1461222857806380d5ac8a146121ff57806381b17d29146121ad5780638704bec01461216157806387fea110146120df578063881df9e1146120b457806388d3cc48146120915780638da5cb5b1461206a578063971f8bb11461202a57806398a1767114611fd45780639f37022a14611fb1578063a30a091414611f87578063a5e973c314611f05578063ad8e42ff14611edb578063b1138b5014611d04578063b1283e7714611c08578063b85ed63614611b7e578063baa9c4ac14611b60578063c22c62c314611b2e578063c3436e0c146119de578063c8a843b7146118bf578063ce67be26146118a1578063d3c7c2c71461172c578063db62c6de1461167b578063dc4ce34914611613578063e053bcec146115c8578063e78d011714611521578063eb44fdd314611424578063efb2b69014610895578063f00fe321146107dc578063f204072f146104a5578063f2fde38b1461041a578063f849f69e146103a7578063fb0b2b36146103545763fe53a6e814610334575061000e565b346103515780600319360112610351576020600e54604051908152f35b80fd5b5034610351576020366003190112610351576103a39061038f906040906001600160a01b03610381614976565b168152600860205220614d0a565b604051918291602083526020830190614acf565b0390f35b5034610351576020366003190112610351576004358152601460205260ff604082205416806103de575b6020906040519015158152f35b50600160205260ff600b604083200154169060058210156104065750600460209114156103d1565b634e487b7160e01b81526021600452602490fd5b503461035157602036600319011261035157610434614976565b61043c614dbf565b6001600160a01b0390811690811561048c57600054826001600160601b0360a01b821617600055167f8be0079c531659141344cd1fd0a4f28419497f9722a3daafe3b4186f6b6457e0600080a380f35b604051631e4fbdf760e01b815260048101849052602490fd5b5034610351576104b436614be8565b908083526020600181526040842060ff600b8201541660058110156107c8576104dd9015615035565b600981015442101561077757600490338652600a835261050460ff60408820541615614deb565b0180546001600160a01b0391908216801561070c5785156106aa57906105348684938995600b5416903390614f8a565b848352600384526040832033600052845260ff6040600020541615610691575b84835260038452604083203360005284526040600020600160ff198254161790558180600b541691541690803b1561065f5760405163c15d980760e01b8152600481018790523360248201526001600160a01b039290921660448301526064820187905283908290608490829084905af1908115610686578391610672575b5050600d54168061060f575b50507fc02bbaff19bde22745e7227aeb31741efd4bf98ebb8b48ac49dd40833fac6756906040519384523393a380f35b803b1561066e57818091606460405180948193638f46a5a160e01b83528960048401523360248401528a60448401525af1801561066357156105df5761065490614bfe565b61065f5783386105df565b8380fd5b6040513d84823e3d90fd5b5080fd5b61067b90614bfe565b61066e5781386105d3565b6040513d85823e3d90fd5b848352600684526106a533604085206151b6565b610554565b60405162461bcd60e51b815260048101859052603460248201527f4d61726b65744d616e616765723a20537570706f727420616d6f756e74206d75604482015273073742062652067726561746572207468616e20360641b6064820152608490fd5b60405162461bcd60e51b815260048101859052603760248201527f4d61726b65744d616e616765723a20537570706f7274206f6e6c79206176616960448201527f6c61626c6520666f7220746f6b656e206d61726b6574730000000000000000006064820152608490fd5b60405162461bcd60e51b815260048101839052602360248201527f4d61726b65744d616e616765723a20537570706f727420706572696f6420656e60448201526219195960ea1b6064820152608490fd5b634e487b7160e01b86526021600452602486fd5b5034610351576040366003190112610351576108369060206107fc614960565b600b54604051633d1e7ba160e11b815260048035908201526001600160a01b03928316602482015294859290911690829081906044820190565b03915afa9081156108895790610852575b602090604051908152f35b506020813d8211610881575b8161086b60209383614c4b565b8101031261087c5760209051610847565b600080fd5b3d915061085e565b604051903d90823e3d90fd5b506101003660031901126103515760043567ffffffffffffffff811161066e576108c3903690600401614c89565b906108cc614db0565b6064356001600160a01b038116900361087c57338252600a6020526108f860ff60408420541615614deb565b8251156113e05760026044351015806113d3575b15611383576084351561133f5760a435156112eb5760c4351515806112dd575b156112895760105460e435106112365780156111fc576064356001600160a01b031615611199576064356001600160a01b031682526007602052604082205460ff1615611138575b600f5434106110e257603c60e4350260e4358104603c1460e4351517156110ce5761099f9042614e98565b916202a300830183116110ba57600e54926109b984614ea5565b600e556202a300604051916109cd83614c12565b3383528660208401528415156040840152604435606084015260018060a01b0360643516608084015260843560a084015260a43560c084015260c43560e08401524261010084015280610120840152016101408201528161016082015281610180820152816101a08201528382526001602052604082209060018060a01b038151166001600160601b0360a01b835416178255602081015180519067ffffffffffffffff82116110a6578190610a866001860154614cd0565b601f8111611068575b50602090601f8311600114610ff9578692610fee575b50508160011b916000199060031b1c19161760018301555b610adc60408201511515600284019060ff801983541691151516179055565b606081015160038301556004820160018060a01b036080830151166001600160601b0360a01b82541617905560a0810151600583015560c0810151600683015560e0810151600783015561010081015160088301556101208101516009830155610140810151600a830155600b82016101608201516005811015610fda57610b949392600d926101a09260ff80198354169116179055610180810151600c8501550151151591019060ff801983541691151516179055565b601354600160401b811015610fc45783610bb7826001610bd09401601355614a0e565b90919082549060031b91821b91600019901b1916179055565b828152601460205260408120805460ff191660011790556064356001600160a01b0316610f1857600f54610c0660a43582614e98565b3410610ed45781808080610c2e9460018060a01b038254165af1610c28614efa565b50614f2a565b8080808060a43560018060a01b03600b54165af1610c4a614efa565b5015610e69575b828152600260205260408120336000526020526040600020600160ff198254161790558281526004602052604081203360005260205260c4356040600020553381526015602052610ca58360408320614ed7565b600b546001600160a01b0316803b1561066e57604051633805180760e21b815260048101859052336024820152606480356001600160a01b0316604483015260a480359183019190915260c4356084830152909183918391829084905af1801561066357908291610e55575b5050600d546001600160a01b031680610d98575b5050817fe47f69e204f188e4f9df6adc50c9cf0bd76c1cd85f34a8a3e8284064afb4fb82602094610d616040519160a0835260a0830190614acf565b9315158187015260443560408201526064356001600160a01b031660608201526084356080820152339381900390a3604051908152f35b803b1561066e5760405163782a780560e11b8152600481018590523360248201529082908290604490829084905af1801561066357908291610e41575b5050600d546001600160a01b0316803b1561066e57604051635374b47b60e01b81526004810185905233602482015260c435604482015260a43560648201529082908290608490829084905af180156106635715610d2557610e378291614bfe565b6103515780610d25565b610e4a90614bfe565b610351578038610dd5565b610e5e90614bfe565b610351578038610d11565b60405162461bcd60e51b815260206004820152603a60248201527f4d61726b65744d616e616765723a2043726561746f72206465706f736974207460448201527f72616e7366657220746f205472656173757279206661696c65640000000000006064820152608490fd5b606460405162461bcd60e51b815260206004820152602060248201527f4d61726b65744d616e616765723a20496e73756666696369656e7420504550556044820152fd5b600f54803410610f655781808080610f3e9460018060a01b038254165af1610c28614efa565b600b54610f609060a435906001600160a01b0390811690339060643516614f8a565b610c51565b60405162461bcd60e51b815260206004820152603160248201527f4d61726b65744d616e616765723a20496e73756666696369656e74205045505560448201527020666f72206372656174696f6e2066656560781b6064820152608490fd5b634e487b7160e01b600052604160045260246000fd5b634e487b7160e01b85526021600452602485fd5b015190503880610aa5565b9250600185018652602086209086935b601f198416851061104d576001945083601f19811610611034575b505050811b016001830155610abd565b015160001960f88460031b161c19169055388080611024565b81810151835560209485019460019093019290910190611009565b6110969060018701885260208820601f850160051c8101916020861061109c575b601f0160051c0190614ec0565b38610a8f565b9091508190611089565b634e487b7160e01b85526041600452602485fd5b634e487b7160e01b81526011600452602490fd5b634e487b7160e01b83526011600452602483fd5b60405162461bcd60e51b815260206004820152602860248201527f4d61726b65744d616e616765723a20496e73756666696369656e74206372656160448201526774696f6e2066656560c01b6064820152608490fd5b60405162461bcd60e51b815260206004820152603360248201527f4d61726b65744d616e616765723a20546f6b656e206e6f7420737570706f727460448201527232b2103337b91036bab63a3496b7b83a34b7b760691b6064820152608490fd5b60405162461bcd60e51b815260206004820152603560248201527f4d61726b65744d616e616765723a204d756c74692d6f7074696f6e206d61726b60448201527432ba39903932b8bab4b93290281928103a37b5b2b760591b6064820152608490fd5b6064356001600160a01b031615610974576064356001600160a01b03168252600760205260408220546112319060ff16614e41565b610974565b60405162461bcd60e51b815260206004820152602560248201527f4d61726b65744d616e616765723a2042656c6f77206d696e696d756d2064757260448201526430ba34b7b760d91b6064820152608490fd5b60405162461bcd60e51b815260206004820152602660248201527f4d61726b65744d616e616765723a20496e76616c69642063726561746f72206f6044820152657574636f6d6560d01b6064820152608490fd5b5060443560c435111561092c565b60405162461bcd60e51b815260206004820152602660248201527f4d61726b65744d616e616765723a20496e76616c69642063726561746f722064604482015265195c1bdcda5d60d21b6064820152608490fd5b606460405162461bcd60e51b815260206004820152602060248201527f4d61726b65744d616e616765723a20496e76616c6964206d696e207374616b656044820152fd5b60405162461bcd60e51b815260206004820152602260248201527f4d61726b65744d616e616765723a20496e76616c6964206d6178206f7074696f6044820152616e7360f01b6064820152608490fd5b50600a604435111561090c565b606460405162461bcd60e51b815260206004820152602060248201527f4d61726b65744d616e616765723a20496e76616c6964204950465320686173686044820152fd5b50346103515760203660031901126103515760406103a391611444615b86565b50600435815260016020522060ff600d6040519261146184614c12565b80546001600160a01b03908116855261147c60018301614d0a565b60208601528360028301541615156040860152600382015460608601526004820154166080850152600581015460a0850152600681015460c0850152600781015460e085015260088101546101008501526009810154610120850152600a8101546101408501526114f783600b830154166101608601614eb4565b600c81015461018085015201541615156101a0820152604051918291602083526020830190614b32565b5034610351576040366003190112610351576004358015159081810361087c576024359161154d614dbf565b60ff801960115416911617601155611563575080f35b801561156f5760125580f35b60405162461bcd60e51b815260206004820152602b60248201527f4d61726b65744d616e616765723a20496e76616c69642072657374726963746960448201526a37b710323ab930ba34b7b760a91b6064820152608490fd5b5034610351576115d736614be8565b919081526005602052604081209081548310156103515760206115fa8484614a7c565b905460405160039290921b1c6001600160a01b03168152f35b503461035157606036600319011261035157604435906001600160a01b03808316830361087c57600b5460405163dc4ce34960e01b8152600480359082015260248035908201526001600160a01b039094166044850152602091849116818060648101610836565b503461035157604036600319011261035157611695614976565b61169d614db0565b906116a6614dbf565b6001600160a01b03169081156116d9576116d6918352600a602052604083209060ff801983541691151516179055565b80f35b60405162461bcd60e51b815260206004820152602560248201527f4d61726b65744d616e616765723a20496e76616c69642077616c6c6574206164604482015264647265737360d81b6064820152608490fd5b5034610351578060031936011261035157600954611749816159fd565b906117576040519283614c4b565b808252601f199283611768836159fd565b0193602094368686013761177b836159fd565b926117896040519485614c4b565b80845281611796826159fd565b01835b818110611892575050825b81811061181d5750506117c260405194604086526040860190614923565b94848603818601528351918287528187019082808560051b8a0101960194975b8489106117ef5787870388f35b909192939495848061180b838686600196030188528a51614acf565b980194019801979190949392946117e2565b8061182e61188992989495986149c1565b90546001600160a01b039160039190821b1c821661184c848b615a15565b52611856836149c1565b9054911b1c1688526008845261186e60408920614d0a565b6118788288615a15565b526118838187615a15565b50614ea5565b959291956117a4565b60608682018901528701611799565b50346103515780600319360112610351576020600954604051908152f35b50346103515780600319360112610351576016546118dc81615bef565b8291835b81811061192d5750506118f282615bef565b925b82811061190957604051806103a38682614a94565b806119176119289284615a15565b516119228287615a15565b52614ea5565b6118f4565b61193681614a45565b90549060031b1c80865260206001815260ff600b6040892001541660058110156119ca576004149081611993575b50611979575b5061197490614ea5565b6118e0565b8461198c91611922611974949787615a15565b939061196a565b6017915082885252604086205462278d0081018091116119b65742101538611964565b634e487b7160e01b87526011600452602487fd5b634e487b7160e01b88526021600452602488fd5b50346103515760203660031901126103515760043580825260016020526040822080546001600160a01b03163303611ada5760ff600b820154166005811015611ac65790611a2e60099215615035565b015461a8bf1981019081116110ce57421015611a77576040516116d691611a5482614c2f565b601182527010dc99585d1bdc8818d85b98d95b1b1959607a1b602083015261562e565b60405162461bcd60e51b815260206004820152602160248201527f4d61726b65744d616e616765723a20546f6f206c61746520746f2063616e63656044820152601b60fa1b6064820152608490fd5b634e487b7160e01b84526021600452602484fd5b60405162461bcd60e51b815260206004820152602660248201527f4d61726b65744d616e616765723a204f6e6c792063726561746f722063616e2060448201526518d85b98d95b60d21b6064820152608490fd5b503461035157611b3d36614be8565b919081526006602052604081209081548310156103515760206115fa8484614a7c565b50346103515780600319360112610351576020601254604051908152f35b5034610351578060031936011261035157600e5460001990818101818111611bf457611ba990615bef565b9160015b828110611bc257604051806103a38682614a94565b818101818111611be0579080611922611bdb9387615a15565b611bad565b634e487b7160e01b86526011600452602486fd5b634e487b7160e01b84526011600452602484fd5b503461035157602036600319011261035157600435815260016020819052604090912080546001600160a01b03929083169190611c46908201614d0a565b92600282015460ff1691600381015491600482015416600582015460068301546007840154600885015490600986015492600a87015494600b88015460ff1696600c89015498600d015460ff1699604051809e819e82526101c08060208401528201611cb191614acf565b9c1515906040015260608d015260808c015260a08b015260c08a015260e08901526101008801526101208701526101408601526101608501611cf291614b0f565b61018084015215156101a08301520390f35b5034610351576020366003190112610351576004359081815260016020526040812091600b830192835460ff8116946005861015610fda57611d4c6001602495969714615233565b600d8301928354611d6060ff821615615290565b600c5460408051633313865560e21b8152600481018a9052976001600160a01b039692899190829089165afa968715611ed05789908a98611e9c575b5015611e4b57889587600c6002950155600160ff1980941617905516179055611dc484615689565b600d541680611dfe575b505060207f6dfc24f0f2fb42e49fb4fa3ffa8abb148cab908a1fb8335b3f128a08b2594af191604051908152a280f35b803b1561066e5781809160446040518094819362ff4a7360e81b83528960048401528860248401525af180156106635715611dce57611e3c90614bfe565b611e47578238611dce565b8280fd5b60405162461bcd60e51b8152602060048201526024808201527f4d61726b65744d616e616765723a204e6f207265736f6c7574696f6e2072656160448201526318da195960e21b6064820152608490fd5b9050611ec191975060403d604011611ec9575b611eb98183614c4b565b810190615322565b969038611d9c565b503d611eaf565b6040513d8b823e3d90fd5b50346103515760203660031901126103515760406020916004358152601783522054604051908152f35b5034610351578060031936011261035157604051601380548083529083526020808301937f66de8ffda797e3de9c05e8fc57b3bf0ec28a930d40b0d285d93c06501cf6a09092915b828210611f70576103a385611f6481890382614c4b565b60405191829182614a94565b835486529485019460019384019390910190611f4d565b50346103515760203660031901126103515760406020916004358152600683522054604051908152f35b503461035157602036600319011261035157611fcb614dbf565b600435600f5580f35b503461035157604036600319011261035157611fee614976565b6001600160a01b031681526015602052604081208054602435929083101561035157602061201c8484614a7c565b90546040519160031b1c8152f35b503461035157602036600319011261035157612044614976565b61204c614dbf565b60018060a01b03166001600160601b0360a01b600c541617600c5580f35b5034610351578060031936011261035157546040516001600160a01b039091168152602090f35b5034610351578060031936011261035157602060ff601154166040519015158152f35b5034610351576020366003190112610351576004359060165482101561035157602061201c83614a45565b50346103515760208060031936011261066e576004358252600681526040822091604051809384918482549182815201918452848420935b858282106121425750505061212e92500383614c4b565b6103a3604051928284938452830190614923565b85546001600160a01b0316845260019586019588955093019201612117565b503461035157604036600319011261035157604061217d614960565b9160043581526002602052209060018060a01b0316600052602052602060ff604060002054166040519015158152f35b50346103515760203660031901126103515760043560185481101561066e5760209060186000527fb13d2d76d1f4b7be834882e410b3e3a8afaf69f83600ae24db354391d2378d2e0154604051908152f35b5034610351578060031936011261035157600d546040516001600160a01b039091168152602090f35b5034610351576020366003190112610351576004358082526001602052604082209060ff600b830154166005811015611ac65760016122679114615233565b600a82015442106122945761228660ff600d6116d69401541615615290565b61228e6152dc565b9061562e565b60405162461bcd60e51b815260206004820152602a60248201527f4d61726b65744d616e616765723a205265736f6c7574696f6e20706572696f64604482015269081b9bdd08195b99195960b21b6064820152608490fd5b503461035157602036600319011261035157612306614976565b61230e614dbf565b6001600160a01b0390811690811561242657818352600760205261233860ff604085205416614e41565b81835260076020526040832060ff198154169055600860205261235d604084206159b4565b825b60098054908183101561241e57839185612378856149c1565b949054600395861b1c16146123985750505061239390614ea5565b61235f565b9194509291600019918281019081116119b657906123c9846123bc6123e8946149c1565b905490891b1c16916149c1565b90919082549060031b9160018060a01b03809116831b921b1916179055565b8254801561240a5701926123fb846149c1565b81939154921b1b191690555580f35b634e487b7160e01b86526031600452602486fd5b505050505080f35b60405162461bcd60e51b815260206004820152602960248201527f4d61726b65744d616e616765723a2043616e6e6f742072656d6f7665206e617460448201526834bb32903a37b5b2b760b91b6064820152608490fd5b503461035157602036600319011261035157612497614976565b61249f614dbf565b60018060a01b03166001600160601b0360a01b600d541617600d5580f35b5034610351576040366003190112610351576124d7614976565b602467ffffffffffffffff8135818111612773576124f9903690600401614c89565b612501614dbf565b6001600160a01b038416918215612722578151156126d2578286526020926007845260ff60408820541661267f5786526007835260408620926001938460ff19825416179055600881526040872092805192831161266c579082916125668554614cd0565b601f811161263e575b5081601f84116001146125db575088926125d0575b5050600019600383901b1c191690831b1790555b60095491600160401b8310156125bc5750816123c9916116d69493016009556149c1565b634e487b7160e01b60009081526041600452fd5b015190503880612584565b9190869450601f198416868b52838b20938b905b828210612625575050841161260c575b505050811b019055612598565b015160001960f88460031b161c191690553880806125ff565b84840151865589979095019493840193908101906125ef565b61266690868b52838b20601f860160051c81019185871061109c57601f0160051c0190614ec0565b3861256f565b634e487b7160e01b885260416004528588fd5b60405162461bcd60e51b8152600481018590526026818701527f4d61726b65744d616e616765723a20546f6b656e20616c7265616479207375706044820152651c1bdc9d195960d21b6064820152608490fd5b60405162461bcd60e51b8152602060048201526023818601527f4d61726b65744d616e616765723a20496e76616c696420746f6b656e2073796d604482015262189bdb60ea1b6064820152608490fd5b60405162461bcd60e51b8152602060048201528085018590527f4d61726b65744d616e616765723a20496e76616c696420746f6b656e206164646044820152637265737360e01b6064820152608490fd5b8480fd5b5034610351578060031936011261035157612790614dbf565b600080546001600160a01b0319811682556001600160a01b03167f8be0079c531659141344cd1fd0a4f28419497f9722a3daafe3b4186f6b6457e08280a380f35b503461035157606036600319011261035157600435602435906044358184526020600181526040852060ff600b820154166005811015612ac2576128159015615035565b60ff60115416612a79575b84151580612a6b575b61283290615113565b6004810180546001600160a01b0392908316908115612a0b578589949392612863600561287094015483101561515f565b84600b5416903390614f8a565b858352600284526040832033600052845260ff60406000205416156129de575b85835260028452604083203360005284526040600020600160ff198254161790558583526004845260408320336000528452866040600020558180600b541691541690803b1561065f57604051633805180760e21b8152600481018890523360248201526001600160a01b0392909216604483015260648201869052608482018890528390829060a490829084905af19081156106865783916129ca575b5050600d54168061296e575b50506040519384528301527f1b8a9031cb9351278d70a994f81536e9e08c91162e64f92b2fe4766fb7a891b460403393a380f35b803b1561066e57604051635374b47b60e01b81526004810186905233602482015260448101879052606481018590529082908290608490829084905af18015610663571561293a576129bf90614bfe565b61277357843861293a565b6129d390614bfe565b61066e57813861292e565b858352600584526129f233604085206151b6565b33835260158452612a068660408520614ed7565b612890565b60405162461bcd60e51b815260048101869052603260248201527f4d61726b65744d616e616765723a2054686973206d61726b6574207573657320604482015271141154154b081d5cd9481c1b1858d950995d60721b6064820152608490fd5b506003810154851115612829565b600981015460125490603c820291808304603c1490151715612aae57612aa991612aa291615080565b421061508d565b612820565b634e487b7160e01b88526011600452602488fd5b634e487b7160e01b87526021600452602487fd5b5034610351578060031936011261035157604051601880548083529083526020808301937fb13d2d76d1f4b7be834882e410b3e3a8afaf69f83600ae24db354391d2378d2e92915b828210612b35576103a385611f6481890382614c4b565b835486529485019460019384019390910190612b1e565b50346103515760203660031901126103515760209060ff906040906001600160a01b03612b77614976565b168152600784522054166040519015158152f35b50346103515760208060031936011261066e5760043580835260018252604083209160ff600b840154166005811015610fda576002612bca91146155d7565b600c83015480156131eb57828552600282526040852033600052825260ff60406000205416156131a6578285526004825260408520336000528252806040600020540361316357600b546040516307c7a72d60e01b8152600481018590523360248201526001600160a01b0391821695919084816044818a5afa908115612eb357889161312a575b506130e55760048281015460405163553b7cbb60e01b815291820187905233602483015282166001600160a01b0381166044830152939085816064818b5afa8015611ed05787918a916130b4575b5060405163dc4ce34960e01b8082526004820193909352602481018490526001600160a01b03871660448201529287846064818d5afa9384156130a9578b9461307a575b5060038601548b9390916001858b8b8f8f5b88861115612fce57505050509350505050508215600014612ebe575050604051633d1e7ba160e11b8152600481018790526001600160a01b038516602482015292905084836044818a5afa928315612eb3578893612e84575b506101f492838102938185041490151715612aae5754163314600014612e0d5790612710869204945b803b15611e4757604051632f0041ed60e11b8152600481018690523360248201526001600160a01b039290921660448301526064820186905282908290608490829084905af1801561066357612df9575b50507f5380cf6fe903b40c6d5a9e0dfbca2f3a423f0a21520b4d5947ed5169bdba946d906040519384523393a380f35b612e0290614bfe565b61065f578338612dc9565b60a4836040519062461bcd60e51b82526004820152604460248201527f4d61726b65744d616e616765723a204e6f206f6e6520626574206f6e2077696e60448201527f6e696e67206f7074696f6e202d206f6e6c792063726561746f722063616e20636064820152636c61696d60e01b6084820152fd5b9092508481813d8311612eac575b612e9c8183614c4b565b8101031261087c57519138612d4f565b503d612e92565b6040513d8a823e3d90fd5b6123289893919295949892838102938185041490151715612fba5761271080930490818102918183041481151715612fa4578a96612efd920490614e98565b9754163314612f0d575b50612d78565b604051633d1e7ba160e11b8152600481018790526001600160a01b038416602482015291969293509084816044818a5afa908115612eb3578891612f77575b506101f490818102918183041490151715612aae5791612f70918894930490614e98565b9438612f07565b90508481813d8311612f9d575b612f8e8183614c4b565b8101031261087c575138612f4c565b503d612f84565b634e487b7160e01b600052601160045260246000fd5b634e487b7160e01b8a52601160045260248afd5b868603612fee575b5050505050612fe490614ea5565b8d8b8b8f8f612cf6565b6040518881526004810191909152602481018690526001600160a01b03929092166044830152939893909190829060649082905afa918215610889579161304b575b5061303e90612fe492614e98565b9590508d8b8b8f8f612fd6565b90508b81813d8311613073575b6130628183614c4b565b8101031261087c5751612fe4613030565b503d613058565b9093508781813d83116130a2575b6130928183614c4b565b8101031261087c57519238612ce4565b503d613088565b6040513d8d823e3d90fd5b809250878092503d83116130de575b6130cd8183614c4b565b8101031261087c5786905138612ca0565b503d6130c3565b60405162461bcd60e51b815260048101859052601e60248201527f4d61726b65744d616e616765723a20416c726561647920636c61696d656400006044820152606490fd5b90508481813d831161315c575b6131418183614c4b565b810103126131585761315290615315565b38612c52565b8780fd5b503d613137565b6064826040519062461bcd60e51b825280600483015260248201527f4d61726b65744d616e616765723a204e6f7420612077696e6e696e67206265746044820152fd5b60405162461bcd60e51b815260048101839052601c60248201527f4d61726b65744d616e616765723a204e6f2062657420706c61636564000000006044820152606490fd5b6064826040519062461bcd60e51b825280600483015260248201527f4d61726b65744d616e616765723a204e6f2077696e6e696e67206f7074696f6e6044820152fd5b5034610351578060031936011261035157604051601680548083529083526020808301937fd833147d7dc355ba459fc788f669e58cfaf9dc25ddcd0702e87d69c7b512428992915b82821061328d576103a385611f6481890382614c4b565b835486529485019460019384019390910190613276565b5034610351578060031936011261035157600b546040516001600160a01b039091168152602090f35b5034610351576116d66132df36614be8565b9061533f565b50346103515780600319360112610351576020601354604051908152f35b50346103515760208060031936011261066e5760043580835260018252604083209160ff600b840154166005811015610fda5760030361367d57818452600281526040842033600052815260ff60406000205416801561365d575b1561360f578392828552600282526040852033600052825260ff60406000205416613562575b828552600382526040852033600052825260ff604060002054166134a6575b831561345657600b5460049091015485916001600160a01b039182169116803b15611e475760405163164fcd7d60e21b8152600481018690523360248201526001600160a01b039290921660448301526064820186905282908290608490829084905af1801561066357613442575b50507ff3f402280ef0a7905e124aa621b65eaeb2725c343e8b36d398ed78c29daf285c906040519384523393a380f35b61344b90614bfe565b61065f578338613412565b60405162461bcd60e51b815260048101839052602260248201527f4d61726b65744d616e616765723a204e6f20726566756e6420617661696c61626044820152616c6560f01b6064820152608490fd5b600b5460048281015460405163256ba74160e01b81529182018690523360248301526001600160a01b039081166044830152929590929091849184916064918391165afa908115613557578691613526575b6135029250614e98565b928285526003825260408520336000528252604060002060ff1981541690556133a3565b90508282813d8311613550575b61353d8183614c4b565b8101031261087c576135029151906134f8565b503d613533565b6040513d88823e3d90fd5b600b5460048281015460405163553b7cbb60e01b81529182018690523360248301526001600160a01b03908116604483015292955091839183916064918391165afa9081156136045785916135d7575b50928285526002825260408520336000528252604060002060ff198154169055613384565b90508181813d83116135fd575b6135ee8183614c4b565b8101031261087c5751386135b2565b503d6135e4565b6040513d87823e3d90fd5b6084906040519062461bcd60e51b82526004820152602160248201527f4d61726b65744d616e616765723a204e6f207374616b6520746f20726566756e6044820152601960fa1b6064820152fd5b50818452600381526040842033600052815260ff6040600020541661335e565b6084906040519062461bcd60e51b82526004820152602360248201527f4d61726b65744d616e616765723a204d61726b6574206e6f742063616e63656c6044820152621b195960ea1b6064820152fd5b5034610351576108369060206136e23661498c565b600b5460405163553b7cbb60e01b815260048101949094526001600160a01b03928316602485015290821660448401529194859290911690829081906064820190565b50346103515760203660031901126103515760406020916004358152600583522054604051908152f35b50346103515760403660031901126103515760043560243567ffffffffffffffff8111611e4757613784903690600401614c89565b61378c614dbf565b613799600e548310615a29565b818352602090600182526137ba60018060a01b036040862054161515615a74565b8284526001825260ff600b604086200154166005811015610fda576004146138835782845260018252600b6040852001600460ff198254161790558284526017825242604085205560165491600160401b831015610fc45761384784610bb78560017f4c4561c5b0048424071c1115e9f1e325486e21c21333d968f21097b7b72d12ad9701601655614a45565b8385526014815260ff604086205416613875575b61386f604051928284938452830190614acf565b0390a280f35b61387e84615acc565b61385b565b60405162461bcd60e51b815260048101839052601e60248201527f4d61726b65744d616e616765723a20416c72656164792064656c6574656400006044820152606490fd5b5034610351578060031936011261035157600c546040516001600160a01b039091168152602090f35b503461035157604036600319011261035157610836906020613911614960565b600b54604051634f44289d60e01b815260048035908201526001600160a01b03928316602482015294859290911690829081906044820190565b5061395536614be8565b908083526020600181526040842060ff600b8201541660058110156107c85761397e9015615035565b60ff60115416613c4e575b83151580613c40575b61399b90615113565b6004810180546001600160a01b0392908316613bd55760056139c191015434101561515f565b858080803486600b54165af16139d5614efa565b5015613b7957908591848352600284526040832033600052845260ff6040600020541615613b4c575b84835260028452604083203360005284526040600020600160ff198254161790558483526004845260408320336000528452856040600020558180600b541691541690803b1561065f57604051633805180760e21b8152600481018790523360248201526001600160a01b03929092166044830152346064830152608482018790528390829060a490829084905af1908115610686578391613b38575b5050600d541680613add575b505060405192835234908301527f1b8a9031cb9351278d70a994f81536e9e08c91162e64f92b2fe4766fb7a891b460403393a380f35b803b1561066e57604051635374b47b60e01b815260048101859052336024820152604481018690523460648201529082908290608490829084905af180156106635715613aa757613b2d90614bfe565b61065f578338613aa7565b613b4190614bfe565b61066e578138613a9b565b84835260058452613b6033604085206151b6565b33835260158452613b748560408520614ed7565b6139fe565b60405162461bcd60e51b815260048101849052602e60248201527f4d61726b65744d616e616765723a20455448207472616e7366657220746f205460448201526d1c99585cdd5c9e4819985a5b195960921b6064820152608490fd5b60405162461bcd60e51b815260048101859052603d60248201527f4d61726b65744d616e616765723a2054686973206d61726b657420757365732060448201527f746f6b656e732c2075736520706c61636542657457697468546f6b656e0000006064820152608490fd5b506003810154841115613992565b600981015460125490603c820291808304603c14901517156119b657613c7791612aa291615080565b613989565b5034610351576040366003190112610351576040613c98614960565b9160043581526004602052209060018060a01b03166000526020526020604060002054604051908152f35b503461035157602036600319011261035157600435613ce0614dbf565b8015613cec5760105580f35b60405162461bcd60e51b815260206004820152602760248201527f4d61726b65744d616e616765723a20496e76616c6964206d696e696d756d20646044820152663ab930ba34b7b760c91b6064820152608490fd5b50346103515780600319360112610351576020600e54604051908152f35b50346103515760208060031936011261066e57613e9060043591613d81615b86565b50828452600190818152604085209360405195613d9d87614c12565b85546001600160a01b039081168852613db7858801614d0a565b8489015260ff6002880154161515604089015260038701546060890152806004880154169160808901928352600588015460a08a0152600688015460c08a0152600788015460e08a015260ff600d60088a0154996101009a8b8d015260098101546101208d0152600a8101546101408d0152613e3e8c61016085600b850154169101614eb4565b600c8101546101808d015201541615156101a08a0152600b548351604051633d1e7ba160e11b8152600481018790529084166001600160a01b0316602482015297908316908690899081906044820190565b0381845afa978815610663578298614055575b508351604051634f44289d60e01b8152600481018790529084166001600160a01b0316602482015291908690839081806044810103915afa918215614048578192614019575b5084815260058652604081205492600687526040822054946005885260408320968960405180998a918c825491828152019188528c8089209489915b8383106140005750505050613f3c92500389614c4b565b83526006885260408320604051809a8a835492838152019286528a862091865b818110613feb57505050506040613fcf9794613fdd9a97948c9a9794613f8b6103a39f9e613f9996038d614c4b565b511681526008885220614d0a565b98613faf6040519d8d8f9e8f9081520190614b32565b958c015260408b015260608a0152608089015287820360a0890152614923565b9085820360c0870152614923565b9083820360e0850152614acf565b835487168552938c0193928201928201613f5c565b86548a168552958101958e955090930192018e8e613f25565b9091508581813d8311614041575b6140318183614c4b565b8101031261087c57519038613ee9565b503d614027565b50604051903d90823e3d90fd5b919097508582813d831161407f575b61406e8183614c4b565b8101031261087c5790519685613ea3565b503d614064565b50346103515760208060031936011261066e57600435808352600182526040832091600381526040842033855281526140c560ff6040862054166151d9565b60ff600b840154166005811015610fda57806142ce5750600983015461a8bf1981019081116142ba57421015614250575b600b5460049384015460405163256ba74160e01b81529485018490523360248601526001600160a01b039081166044860181905291169085908386606481865afa958615610663578296614221575b506141518615156151d9565b823b1561066e576040516317be0b2f60e11b8152600481018690523360248201526001600160a01b0391909116604482015260648101869052918290608490829084905af18015613604576141ee575b507ffb349e367fa58e764f8867e52d91c7e0b9e6904700091667054ce1fdb56c496d908285526003815260408520336000528152604060002060ff1981541690556040519384523393a380f35b9361421a7ffb349e367fa58e764f8867e52d91c7e0b9e6904700091667054ce1fdb56c496d9295614bfe565b93906141a1565b9095508381813d8311614249575b6142398183614c4b565b8101031261066e57519438614145565b503d61422f565b6084906040519062461bcd60e51b82526004820152603c60248201527f4d61726b65744d616e616765723a2043616e6e6f74207769746864726177207760448201527f697468696e20313220686f757273206f66206d61726b657420656e64000000006064820152fd5b634e487b7160e01b85526011600452602485fd5b60048114908115614342575b506140f6576084906040519062461bcd60e51b82526004820152603660248201527f4d61726b65744d616e616765723a2043616e6e6f7420776974686472617720696044820152756e2063757272656e74206d61726b657420737461746560501b6064820152fd5b6003915014386142da565b5034610351576020366003190112610351576004359060135482101561035157602061201c83614a0e565b50346103515760208060031936011261066e576001600160a01b0361439b614976565b1682526015815260408220916040518092808554928381520194835280832092905b8282106143d4576103a385611f6481890382614c4b565b8354865294850194600193840193909101906143bd565b50346103515780600319360112610351576020600f54604051908152f35b503461035157602036600319011261035157600435906009548210156103515760206115fa836149c1565b50346103515760203660031901126103515760209060ff906040906001600160a01b0361445f614976565b168152600a84522054166040519015158152f35b50346103515760403660031901126103515760ff6040602092614494614960565b6004358252600385528282206001600160a01b03909116825284522054604051911615158152f35b50346103515761451360206144d03661498c565b600b5460405163256ba74160e01b815260048101949094526001600160a01b03928316602485015290821660448401529193849290911690829081906064820190565b03915afa908115610663578291614530575b602082604051908152f35b90506020813d821161455d575b8161454a60209383614c4b565b8101031261066e57602091505138614525565b3d915061453d565b50346103515780600319360112610351576020601054604051908152f35b503461035157602036600319011261035157600435808252600160205260408220600b81019081549060ff821660058110156107c857906145c660099215615035565b0154804210614606577e0b6feae4bec70344a7d0e99f4c0237adaaeee2fbb258266be400bd8612a33292600160209360ff1916179055604051908152a280f35b60405162461bcd60e51b815260206004820152602760248201527f4d61726b65744d616e616765723a2042657474696e6720706572696f64206e6f6044820152661d08195b99195960ca1b6064820152608490fd5b50346103515760203660031901126103515760ff60406020926004358152601484522054166040519015158152f35b50346103515760208060031936011261066e576004358252600581526040822091604051809384918482549182815201918452848420935b858282106146d95750505061212e92500383614c4b565b85546001600160a01b03168452600195860195889550930192016146c2565b50346103515760208060031936011261066e5760043590614717614dbf565b614724600e548310615a29565b81835260018082526040842054614745906001600160a01b03161515615a74565b82845280825260ff600b604086200154166005811015610fda57600261476b91146155d7565b828452808252600a60408520015462278d0081018091116142ba5742106148d05782845280825283600d604082208281556147a78482016159b4565b82600282015582600382015582600482015582600582015582600682015582600782015582600882015582600982015582600a82015582600b82015582600c82015501558284526014825260ff6040852054166148c2575b60185490600160401b8210156110a6578101806018558110156148ae577f4c4561c5b0048424071c1115e9f1e325486e21c21333d968f21097b7b72d12ad9183608092601887527fb13d2d76d1f4b7be834882e410b3e3a8afaf69f83600ae24db354391d2378d2e01556026604051918083528201527f5065726d616e656e746c792072656d6f76656420616674657220636c61696d206040820152651c195c9a5bd960d21b6060820152a280f35b634e487b7160e01b84526032600452602484fd5b6148cb83615acc565b6147ff565b60405162461bcd60e51b815260048101839052602560248201527f4d61726b65744d616e616765723a20436c61696d20706572696f64206e6f7420604482015264195b99195960da1b6064820152608490fd5b90815180825260208080930193019160005b828110614943575050505090565b83516001600160a01b031685529381019392810192600101614935565b602435906001600160a01b038216820361087c57565b600435906001600160a01b038216820361087c57565b606090600319011261087c57600435906001600160a01b0390602435828116810361087c5791604435908116810361087c5790565b6009548110156149f85760096000527f6e1540171b6c0c960b71a7020d9f60077f6af931a8bbf590da0223dacf75c7af0190600090565b634e487b7160e01b600052603260045260246000fd5b6013548110156149f85760136000527f66de8ffda797e3de9c05e8fc57b3bf0ec28a930d40b0d285d93c06501cf6a0900190600090565b6016548110156149f85760166000527fd833147d7dc355ba459fc788f669e58cfaf9dc25ddcd0702e87d69c7b51242890190600090565b80548210156149f85760005260206000200190600090565b6020908160408183019282815285518094520193019160005b828110614abb575050505090565b835185529381019392810192600101614aad565b919082519283825260005b848110614afb575050826000602080949584010152601f8019910116010190565b602081830181015184830182015201614ada565b906005821015614b1c5752565b634e487b7160e01b600052602160045260246000fd5b9060018060a01b0391828151168252614b5a60208201516101c0806020860152840190614acf565b9260408201511515604084015260608201516060840152608082015116608083015260a081015160a083015260c081015160c083015260e081015160e0830152610100808201519083015261012080820151908301526101408082015190830152614bce6101608083015190840190614b0f565b61018080820151908301526101a080910151151591015290565b604090600319011261087c576004359060243590565b67ffffffffffffffff8111610fc457604052565b6101c0810190811067ffffffffffffffff821117610fc457604052565b6040810190811067ffffffffffffffff821117610fc457604052565b90601f8019910116810190811067ffffffffffffffff821117610fc457604052565b67ffffffffffffffff8111610fc457601f01601f191660200190565b81601f8201121561087c57803590614ca082614c6d565b92614cae6040519485614c4b565b8284526020838301011161087c57816000926020809301838601378301015290565b90600182811c92168015614d00575b6020831014614cea57565b634e487b7160e01b600052602260045260246000fd5b91607f1691614cdf565b9060405191826000825492614d1e84614cd0565b908184526001948581169081600014614d8d5750600114614d4a575b5050614d4892500383614c4b565b565b9093915060005260209081600020936000915b818310614d75575050614d4893508201013880614d3a565b85548884018501529485019487945091830191614d5d565b915050614d4894506020925060ff191682840152151560051b8201013880614d3a565b60243590811515820361087c57565b6000546001600160a01b03163303614dd357565b60405163118cdaa760e01b8152336004820152602490fd5b15614df257565b60405162461bcd60e51b815260206004820152602160248201527f4d61726b65744d616e616765723a2057616c6c657420626c61636b6c697374656044820152601960fa1b6064820152608490fd5b15614e4857565b60405162461bcd60e51b815260206004820152602260248201527f4d61726b65744d616e616765723a20546f6b656e206e6f7420737570706f7274604482015261195960f21b6064820152608490fd5b91908201809211612fa457565b6000198114612fa45760010190565b6005821015614b1c5752565b818110614ecb575050565b60008155600101614ec0565b90815491600160401b831015610fc45782610bb7916001614d4895018155614a7c565b3d15614f25573d90614f0b82614c6d565b91614f196040519384614c4b565b82523d6000602084013e565b606090565b15614f3157565b60405162461bcd60e51b815260206004820152602b60248201527f4d61726b65744d616e616765723a20466565207472616e7366657220746f206f60448201526a1ddb995c8819985a5b195960aa1b6064820152608490fd5b6040516323b872dd60e01b602082019081526001600160a01b039384166024830152938316604482015260648082019590955293845292909160a082019067ffffffffffffffff821183831017610fc457602092600092604052519082865af115615029576000513d61502057508082163b155b615006575050565b604051635274afe760e01b81529116600482015260249150fd5b60011415614ffe565b6040513d6000823e3d90fd5b1561503c57565b606460405162461bcd60e51b815260206004820152602060248201527f4d61726b65744d616e616765723a204d61726b6574206e6f74206163746976656044820152fd5b91908203918211612fa457565b1561509457565b60405162461bcd60e51b815260206004820152604b60248201527f4d61726b65744d616e616765723a2042657474696e6720706572696f6420656e60448201527f646564202d206e6f206265747320616c6c6f77656420696e207265737472696360648201526a1d1a5bdb881c195c9a5bd960aa1b608482015260a490fd5b1561511a57565b60405162461bcd60e51b815260206004820152601d60248201527f4d61726b65744d616e616765723a20496e76616c6964206f7074696f6e0000006044820152606490fd5b1561516657565b60405162461bcd60e51b815260206004820152602260248201527f4d61726b65744d616e616765723a2042656c6f77206d696e696d756d207374616044820152616b6560f01b6064820152608490fd5b90815491600160401b831015610fc457826123c9916001614d4895018155614a7c565b156151e057565b60405162461bcd60e51b815260206004820152602560248201527f4d61726b65744d616e616765723a204e6f20737570706f727420746f20776974604482015264686472617760d81b6064820152608490fd5b1561523a57565b60405162461bcd60e51b815260206004820152602860248201527f4d61726b65744d616e616765723a204d61726b6574206e6f7420696e20656e64604482015267656420737461746560c01b6064820152608490fd5b1561529757565b60405162461bcd60e51b815260206004820152601f60248201527f4d61726b65744d616e616765723a20416c7265616479207265736f6c766564006044820152606490fd5b604051906152e982614c2f565b601982527f5265736f6c7574696f6e20706572696f642065787069726564000000000000006020830152565b5190811515820361087c57565b919082604091031261087c57602061533983615315565b92015190565b9060008281526001602052604090818120600b810160ff8154166005811015611ac657600161536e9114615233565b841515806155c9575b1561557757600d820161538e60ff82541615615290565b600a83015442101561556557600c548551633313865560e21b8152600481018990526001600160a01b03949187908290602490829089165afa801561555b57889087928891615538575b508261552e575b5050156154c457600c01869055805460ff19908116600117909155815416600217905561540b85615689565b600d541680615443575b50507f6dfc24f0f2fb42e49fb4fa3ffa8abb148cab908a1fb8335b3f128a08b2594af19160209151908152a2565b803b1561066e57818091604485518095819362ff4a7360e81b83528a60048401528960248401525af19081156154b95750917f6dfc24f0f2fb42e49fb4fa3ffa8abb148cab908a1fb8335b3f128a08b2594af193916020936154aa575b5091819350615415565b6154b390614bfe565b386154a0565b8351903d90823e3d90fd5b855162461bcd60e51b815260206004820152603a60248201527f4d61726b65744d616e616765723a20496e73756666696369656e74207665726960448201527f6669657220766f74657320666f722074686973206f7074696f6e0000000000006064820152608490fd5b14905087386153df565b9050615552919250883d8a11611ec957611eb98183614c4b565b919091386153d8565b87513d88823e3d90fd5b505050505050614d489061228e6152dc565b835162461bcd60e51b815260206004820152602560248201527f4d61726b65744d616e616765723a20496e76616c69642077696e6e696e67206f604482015264383a34b7b760d91b6064820152608490fd5b506003820154851115615377565b156155de57565b60405162461bcd60e51b815260206004820152602260248201527f4d61726b65744d616e616765723a204d61726b6574206e6f74207265736f6c76604482015261195960f21b6064820152608490fd5b906156847f4c4561c5b0048424071c1115e9f1e325486e21c21333d968f21097b7b72d12ad91836000526001602052600b604060002001600360ff19825416179055604051918291602083526020830190614acf565b0390a2565b90600091808352602090600182526040918285209185916001926003850154600c860154945b818111156158fa575050600b5460049586018054885163dc4ce34960e01b815280890187905260248101979097526001600160a01b03908116604488018190529196909392841692908581606481875afa9081156158f0578c916158bf575b5061584f575050600b5494548751633d1e7ba160e11b81528781019586529083166001600160a01b038116602087015292909516949193839150829081906040010381875afa918215615845578892615817575b505061251c90818102918183041490151715615804576127109004928361578d575b50505050509050565b823b1561580057845163f0824f3360e01b81526001600160a01b039092169082019081526020810193909352939491829185918290849082906040015b03925af19182156157f65750506157e7575b808080808594615784565b6157f090614bfe565b386157dc565b51903d90823e3d90fd5b8680fd5b634e487b7160e01b875260118452602487fd5b90809250813d831161583e575b61582e8183614c4b565b8101031261580057513880615762565b503d615824565b86513d8a823e3d90fd5b935093509350506101f490818102918183041490151715615804576127109004928361587e5750505050509050565b823b156158005784516348fef59560e01b81526001600160a01b039092169082019081526020810193909352939491829185918290849082906040016157ca565b90508581813d83116158e9575b6158d68183614c4b565b810103126158e557513861570e565b8b80fd5b503d6158cc565b8a513d8e823e3d90fd5b858103615910575b61590b90614ea5565b6156af565b600b546004888101548a5163dc4ce34960e01b8152918201889052602482018490526001600160a01b0390811660448301529294929091869183916064918391165afa9081156159aa578b91615977575b5061596f9061590b92614e98565b929050615902565b90508481813d83116159a3575b61598e8183614c4b565b8101031261599f575161590b615961565b8a80fd5b503d615984565b89513d8d823e3d90fd5b6159be8154614cd0565b90816159c8575050565b81601f600093116001146159da575055565b9080839182526159f9601f60208420940160051c840160018501614ec0565b5555565b67ffffffffffffffff8111610fc45760051b60200190565b80518210156149f85760209160051b010190565b15615a3057565b606460405162461bcd60e51b815260206004820152602060248201527f4d61726b65744d616e616765723a20496e76616c6964206d61726b65742049446044820152fd5b15615a7b57565b60405162461bcd60e51b8152602060048201526024808201527f4d61726b65744d616e616765723a204d61726b657420646f6573206e6f7420656044820152631e1a5cdd60e21b6064820152608490fd5b60005b60139081549182821015615b80578392615ae883614a0e565b949054600395861b1c14615b07575050615b029150614ea5565b615acf565b90916000199180830191908211612fa457610bb7615b27615b3393614a0e565b905490871b1c91614a0e565b81548015615b6a57810192615b4784614a0e565b81939154921b1b19169055556000526014602052604060002060ff198154169055565b634e487b7160e01b600052603160045260246000fd5b50505050565b60405190615b9382614c12565b816101a0600091828152606060208201528260408201528260608201528260808201528260a08201528260c08201528260e082015282610100820152826101208201528261014082015282610160820152826101808201520152565b90615bf9826159fd565b615c066040519182614c4b565b8281528092615c17601f19916159fd565b019060203691013756fea264697066735822122038537b1f1eb03b4ed6e0581c8c4b0b41f95fe405c481bf045ebf9d55ee9a4c6b64736f6c63430008140033",
  "linkReferences": {},
  "deployedLinkReferences": {}
}