{
  "_format": "hh-sol-artifact-1",
  "contractName": "EventPool",
  "sourceName": "contracts/P2PMarketManager.sol",
  "abi": [
    {
      "inputs": [
        {
          "internalType": "address",
          "name": "initialOwner",
          "type": "address"
        },
        {
          "internalType": "address payable",
          "name": "_treasury",
          "type": "address"
        },
        {
          "internalType": "address",
          "name": "_verification",
          "type": "address"
        },
        {
          "internalType": "address",
          "name": "_analytics",
          "type": "address"
        },
        {
          "internalType": "uint256",
          "name": "_marketCreationFee",
          "type": "uint256"
        }
      ],
      "stateMutability": "nonpayable",
      "type": "constructor"
    },
    {
      "inputs": [
        {
          "internalType": "address",
          "name": "owner",
          "type": "address"
        }
      ],
      "name": "OwnableInvalidOwner",
      "type": "error"
    },
    {
      "inputs": [
        {
          "internalType": "address",
          "name": "account",
          "type": "address"
        }
      ],
      "name": "OwnableUnauthorizedAccount",
      "type": "error"
    },
    {
      "inputs": [
        {
          "internalType": "address",
          "name": "token",
          "type": "address"
        }
      ],
      "name": "SafeERC20FailedOperation",
      "type": "error"
    },
    {
      "anonymous": false,
      "inputs": [
        {
          "indexed": true,
          "internalType": "uint256",
          "name": "marketId",
          "type": "uint256"
        },
        {
          "indexed": true,
          "internalType": "address",
          "name": "user",
          "type": "address"
        },
        {
          "indexed": false,
          "internalType": "uint256",
          "name": "option",
          "type": "uint256"
        },
        {
          "indexed": false,
          "internalType": "uint256",
          "name": "amount",
          "type": "uint256"
        }
      ],
      "name": "BetPlaced",
      "type": "event"
    },
    {
      "anonymous": false,
      "inputs": [
        {
          "indexed": true,
          "internalType": "uint256",
          "name": "marketId",
          "type": "uint256"
        },
        {
          "indexed": false,
          "internalType": "string",
          "name": "reason",
          "type": "string"
        }
      ],
      "name": "MarketCancelled",
      "type": "event"
    },
    {
      "anonymous": false,
      "inputs": [
        {
          "indexed": true,
          "internalType": "uint256",
          "name": "marketId",
          "type": "uint256"
        },
        {
          "indexed": true,
          "internalType": "address",
          "name": "creator",
          "type": "address"
        },
        {
          "indexed": false,
          "internalType": "string",
          "name": "ipfsHash",
          "type": "string"
        },
        {
          "indexed": false,
          "internalType": "bool",
          "name": "isMultiOption",
          "type": "bool"
        },
        {
          "indexed": false,
          "internalType": "uint256",
          "name": "maxOptions",
          "type": "uint256"
        },
        {
          "indexed": false,
          "internalType": "address",
          "name": "paymentToken",
          "type": "address"
        },
        {
          "indexed": false,
          "internalType": "uint256",
          "name": "minStake",
          "type": "uint256"
        }
      ],
      "name": "MarketCreated",
      "type": "event"
    },
    {
      "anonymous": false,
      "inputs": [
        {
          "indexed": true,
          "internalType": "uint256",
          "name": "marketId",
          "type": "uint256"
        },
        {
          "indexed": false,
          "internalType": "uint256",
          "name": "endTime",
          "type": "uint256"
        }
      ],
      "name": "MarketEnded",
      "type": "event"
    },
    {
      "anonymous": false,
      "inputs": [
        {
          "indexed": true,
          "internalType": "uint256",
          "name": "marketId",
          "type": "uint256"
        },
        {
          "indexed": false,
          "internalType": "uint256",
          "name": "winningOption",
          "type": "uint256"
        }
      ],
      "name": "MarketResolved",
      "type": "event"
    },
    {
      "anonymous": false,
      "inputs": [
        {
          "indexed": true,
          "internalType": "uint256",
          "name": "marketId",
          "type": "uint256"
        },
        {
          "indexed": true,
          "internalType": "address",
          "name": "supporter",
          "type": "address"
        },
        {
          "indexed": false,
          "internalType": "uint256",
          "name": "amount",
          "type": "uint256"
        }
      ],
      "name": "MarketSupported",
      "type": "event"
    },
    {
      "anonymous": false,
      "inputs": [
        {
          "indexed": true,
          "internalType": "address",
          "name": "previousOwner",
          "type": "address"
        },
        {
          "indexed": true,
          "internalType": "address",
          "name": "newOwner",
          "type": "address"
        }
      ],
      "name": "OwnershipTransferred",
      "type": "event"
    },
    {
      "anonymous": false,
      "inputs": [
        {
          "indexed": true,
          "internalType": "uint256",
          "name": "marketId",
          "type": "uint256"
        },
        {
          "indexed": true,
          "internalType": "address",
          "name": "user",
          "type": "address"
        },
        {
          "indexed": false,
          "internalType": "uint256",
          "name": "amount",
          "type": "uint256"
        }
      ],
      "name": "RefundClaimed",
      "type": "event"
    },
    {
      "anonymous": false,
      "inputs": [
        {
          "indexed": true,
          "internalType": "uint256",
          "name": "marketId",
          "type": "uint256"
        },
        {
          "indexed": true,
          "internalType": "address",
          "name": "supporter",
          "type": "address"
        },
        {
          "indexed": false,
          "internalType": "uint256",
          "name": "amount",
          "type": "uint256"
        }
      ],
      "name": "SupportRewardClaimed",
      "type": "event"
    },
    {
      "anonymous": false,
      "inputs": [
        {
          "indexed": true,
          "internalType": "uint256",
          "name": "marketId",
          "type": "uint256"
        },
        {
          "indexed": true,
          "internalType": "address",
          "name": "supporter",
          "type": "address"
        },
        {
          "indexed": false,
          "internalType": "uint256",
          "name": "amount",
          "type": "uint256"
        }
      ],
      "name": "SupportWithdrawn",
      "type": "event"
    },
    {
      "anonymous": false,
      "inputs": [
        {
          "indexed": true,
          "internalType": "uint256",
          "name": "marketId",
          "type": "uint256"
        },
        {
          "indexed": true,
          "internalType": "address",
          "name": "user",
          "type": "address"
        },
        {
          "indexed": false,
          "internalType": "uint256",
          "name": "amount",
          "type": "uint256"
        }
      ],
      "name": "WinningsClaimed",
      "type": "event"
    },
    {
      "inputs": [
        {
          "internalType": "uint256",
          "name": "",
          "type": "uint256"
        }
      ],
      "name": "activeMarkets",
      "outputs": [
        {
          "internalType": "uint256",
          "name": "",
          "type": "uint256"
        }
      ],
      "stateMutability": "view",
      "type": "function"
    },
    {
      "inputs": [
        {
          "internalType": "address",
          "name": "token",
          "type": "address"
        },
        {
          "internalType": "string",
          "name": "symbol",
          "type": "string"
        }
      ],
      "name": "addSupportedToken",
      "outputs": [],
      "stateMutability": "nonpayable",
      "type": "function"
    },
    {
      "inputs": [],
      "name": "analytics",
      "outputs": [
        {
          "internalType": "address",
          "name": "",
          "type": "address"
        }
      ],
      "stateMutability": "view",
      "type": "function"
    },
    {
      "inputs": [
        {
          "internalType": "uint256",
          "name": "marketId",
          "type": "uint256"
        }
      ],
      "name": "autoResolve",
      "outputs": [],
      "stateMutability": "nonpayable",
      "type": "function"
    },
    {
      "inputs": [
        {
          "internalType": "address",
          "name": "",
          "type": "address"
        }
      ],
      "name": "blacklistedWallets",
      "outputs": [
        {
          "internalType": "bool",
          "name": "",
          "type": "bool"
        }
      ],
      "stateMutability": "view",
      "type": "function"
    },
    {
      "inputs": [
        {
          "internalType": "uint256",
          "name": "marketId",
          "type": "uint256"
        }
      ],
      "name": "cancelMarket",
      "outputs": [],
      "stateMutability": "nonpayable",
      "type": "function"
    },
    {
      "inputs": [
        {
          "internalType": "uint256",
          "name": "marketId",
          "type": "uint256"
        }
      ],
      "name": "claimRefund",
      "outputs": [],
      "stateMutability": "nonpayable",
      "type": "function"
    },
    {
      "inputs": [
        {
          "internalType": "uint256",
          "name": "marketId",
          "type": "uint256"
        }
      ],
      "name": "claimWinnings",
      "outputs": [],
      "stateMutability": "nonpayable",
      "type": "function"
    },
    {
      "inputs": [
        {
          "internalType": "string",
          "name": "ipfsHash",
          "type": "string"
        },
        {
          "internalType": "bool",
          "name": "isMultiOption",
          "type": "bool"
        },
        {
          "internalType": "uint256",
          "name": "maxOptions",
          "type": "uint256"
        },
        {
          "internalType": "address",
          "name": "paymentToken",
          "type": "address"
        },
        {
          "internalType": "uint256",
          "name": "minStake",
          "type": "uint256"
        },
        {
          "internalType": "uint256",
          "name": "creatorDeposit",
          "type": "uint256"
        },
        {
          "internalType": "uint256",
          "name": "creatorOutcome",
          "type": "uint256"
        },
        {
          "internalType": "uint256",
          "name": "durationHours",
          "type": "uint256"
        }
      ],
      "name": "createMarket",
      "outputs": [
        {
          "internalType": "uint256",
          "name": "",
          "type": "uint256"
        }
      ],
      "stateMutability": "payable",
      "type": "function"
    },
    {
      "inputs": [
        {
          "internalType": "uint256",
          "name": "marketId",
          "type": "uint256"
        }
      ],
      "name": "creatorCancelMarket",
      "outputs": [],
      "stateMutability": "nonpayable",
      "type": "function"
    },
    {
      "inputs": [
        {
          "internalType": "uint256",
          "name": "marketId",
          "type": "uint256"
        },
        {
          "internalType": "string",
          "name": "reason",
          "type": "string"
        }
      ],
      "name": "deleteMarket",
      "outputs": [],
      "stateMutability": "nonpayable",
      "type": "function"
    },
    {
      "inputs": [
        {
          "internalType": "uint256",
          "name": "",
          "type": "uint256"
        }
      ],
      "name": "deletedMarkets",
      "outputs": [
        {
          "internalType": "uint256",
          "name": "",
          "type": "uint256"
        }
      ],
      "stateMutability": "view",
      "type": "function"
    },
    {
      "inputs": [
        {
          "internalType": "uint256",
          "name": "",
          "type": "uint256"
        }
      ],
      "name": "deletionTimestamp",
      "outputs": [
        {
          "internalType": "uint256",
          "name": "",
          "type": "uint256"
        }
      ],
      "stateMutability": "view",
      "type": "function"
    },
    {
      "inputs": [
        {
          "internalType": "uint256",
          "name": "marketId",
          "type": "uint256"
        }
      ],
      "name": "endMarket",
      "outputs": [],
      "stateMutability": "nonpayable",
      "type": "function"
    },
    {
      "inputs": [],
      "name": "getActiveMarketCount",
      "outputs": [
        {
          "internalType": "uint256",
          "name": "",
          "type": "uint256"
        }
      ],
      "stateMutability": "view",
      "type": "function"
    },
    {
      "inputs": [],
      "name": "getActiveMarkets",
      "outputs": [
        {
          "internalType": "uint256[]",
          "name": "",
          "type": "uint256[]"
        }
      ],
      "stateMutability": "view",
      "type": "function"
    },
    {
      "inputs": [],
      "name": "getAllMarketIds",
      "outputs": [
        {
          "internalType": "uint256[]",
          "name": "",
          "type": "uint256[]"
        }
      ],
      "stateMutability": "view",
      "type": "function"
    },
    {
      "inputs": [
        {
          "internalType": "uint256",
          "name": "marketId",
          "type": "uint256"
        }
      ],
      "name": "getBettorCount",
      "outputs": [
        {
          "internalType": "uint256",
          "name": "",
          "type": "uint256"
        }
      ],
      "stateMutability": "view",
      "type": "function"
    },
    {
      "inputs": [],
      "name": "getDeletedMarkets",
      "outputs": [
        {
          "internalType": "uint256[]",
          "name": "",
          "type": "uint256[]"
        }
      ],
      "stateMutability": "view",
      "type": "function"
    },
    {
      "inputs": [
        {
          "internalType": "uint256",
          "name": "marketId",
          "type": "uint256"
        }
      ],
      "name": "getMarket",
      "outputs": [
        {
          "components": [
            {
              "internalType": "address",
              "name": "creator",
              "type": "address"
            },
            {
              "internalType": "string",
              "name": "ipfsHash",
              "type": "string"
            },
            {
              "internalType": "bool",
              "name": "isMultiOption",
              "type": "bool"
            },
            {
              "internalType": "uint256",
              "name": "maxOptions",
              "type": "uint256"
            },
            {
              "internalType": "address",
              "name": "paymentToken",
              "type": "address"
            },
            {
              "internalType": "uint256",
              "name": "minStake",
              "type": "uint256"
            },
            {
              "internalType": "uint256",
              "name": "creatorDeposit",
              "type": "uint256"
            },
            {
              "internalType": "uint256",
              "name": "creatorOutcome",
              "type": "uint256"
            },
            {
              "internalType": "uint256",
              "name": "startTime",
              "type": "uint256"
            },
            {
              "internalType": "uint256",
              "name": "endTime",
              "type": "uint256"
            },
            {
              "internalType": "uint256",
              "name": "resolutionEndTime",
              "type": "uint256"
            },
            {
              "internalType": "enum EventPool.MarketState",
              "name": "state",
              "type": "uint8"
            },
            {
              "internalType": "uint256",
              "name": "winningOption",
              "type": "uint256"
            },
            {
              "internalType": "bool",
              "name": "isResolved",
              "type": "bool"
            }
          ],
          "internalType": "struct EventPool.Market",
          "name": "",
          "type": "tuple"
        }
      ],
      "stateMutability": "view",
      "type": "function"
    },
    {
      "inputs": [
        {
          "internalType": "uint256",
          "name": "marketId",
          "type": "uint256"
        }
      ],
      "name": "getMarketBettors",
      "outputs": [
        {
          "internalType": "address[]",
          "name": "",
          "type": "address[]"
        }
      ],
      "stateMutability": "view",
      "type": "function"
    },
    {
      "inputs": [
        {
          "internalType": "uint256",
          "name": "marketId",
          "type": "uint256"
        }
      ],
      "name": "getMarketInfo",
      "outputs": [
        {
          "components": [
            {
              "internalType": "address",
              "name": "creator",
              "type": "address"
            },
            {
              "internalType": "string",
              "name": "ipfsHash",
              "type": "string"
            },
            {
              "internalType": "bool",
              "name": "isMultiOption",
              "type": "bool"
            },
            {
              "internalType": "uint256",
              "name": "maxOptions",
              "type": "uint256"
            },
            {
              "internalType": "address",
              "name": "paymentToken",
              "type": "address"
            },
            {
              "internalType": "uint256",
              "name": "minStake",
              "type": "uint256"
            },
            {
              "internalType": "uint256",
              "name": "creatorDeposit",
              "type": "uint256"
            },
            {
              "internalType": "uint256",
              "name": "creatorOutcome",
              "type": "uint256"
            },
            {
              "internalType": "uint256",
              "name": "startTime",
              "type": "uint256"
            },
            {
              "internalType": "uint256",
              "name": "endTime",
              "type": "uint256"
            },
            {
              "internalType": "uint256",
              "name": "resolutionEndTime",
              "type": "uint256"
            },
            {
              "internalType": "enum EventPool.MarketState",
              "name": "state",
              "type": "uint8"
            },
            {
              "internalType": "uint256",
              "name": "winningOption",
              "type": "uint256"
            },
            {
              "internalType": "bool",
              "name": "isResolved",
              "type": "bool"
            }
          ],
          "internalType": "struct EventPool.Market",
          "name": "market",
          "type": "tuple"
        },
        {
          "internalType": "uint256",
          "name": "totalPool",
          "type": "uint256"
        },
        {
          "internalType": "uint256",
          "name": "supportPool",
          "type": "uint256"
        },
        {
          "internalType": "uint256",
          "name": "bettorCount",
          "type": "uint256"
        },
        {
          "internalType": "uint256",
          "name": "supporterCount",
          "type": "uint256"
        },
        {
          "internalType": "address[]",
          "name": "bettors",
          "type": "address[]"
        },
        {
          "internalType": "address[]",
          "name": "supporters",
          "type": "address[]"
        },
        {
          "internalType": "string",
          "name": "tokenSymbol",
          "type": "string"
        }
      ],
      "stateMutability": "view",
      "type": "function"
    },
    {
      "inputs": [
        {
          "internalType": "uint256",
          "name": "marketId",
          "type": "uint256"
        }
      ],
      "name": "getMarketSupporters",
      "outputs": [
        {
          "internalType": "address[]",
          "name": "",
          "type": "address[]"
        }
      ],
      "stateMutability": "view",
      "type": "function"
    },
    {
      "inputs": [],
      "name": "getMarketsReadyForRemoval",
      "outputs": [
        {
          "internalType": "uint256[]",
          "name": "",
          "type": "uint256[]"
        }
      ],
      "stateMutability": "view",
      "type": "function"
    },
    {
      "inputs": [],
      "name": "getNextMarketId",
      "outputs": [
        {
          "internalType": "uint256",
          "name": "",
          "type": "uint256"
        }
      ],
      "stateMutability": "view",
      "type": "function"
    },
    {
      "inputs": [
        {
          "internalType": "uint256",
          "name": "marketId",
          "type": "uint256"
        },
        {
          "internalType": "uint256",
          "name": "option",
          "type": "uint256"
        },
        {
          "internalType": "address",
          "name": "token",
          "type": "address"
        }
      ],
      "name": "getOptionPool",
      "outputs": [
        {
          "internalType": "uint256",
          "name": "",
          "type": "uint256"
        }
      ],
      "stateMutability": "view",
      "type": "function"
    },
    {
      "inputs": [],
      "name": "getPermanentlyRemovedMarkets",
      "outputs": [
        {
          "internalType": "uint256[]",
          "name": "",
          "type": "uint256[]"
        }
      ],
      "stateMutability": "view",
      "type": "function"
    },
    {
      "inputs": [
        {
          "internalType": "uint256",
          "name": "marketId",
          "type": "uint256"
        },
        {
          "internalType": "address",
          "name": "token",
          "type": "address"
        }
      ],
      "name": "getSupportPool",
      "outputs": [
        {
          "internalType": "uint256",
          "name": "",
          "type": "uint256"
        }
      ],
      "stateMutability": "view",
      "type": "function"
    },
    {
      "inputs": [],
      "name": "getSupportedTokenCount",
      "outputs": [
        {
          "internalType": "uint256",
          "name": "",
          "type": "uint256"
        }
      ],
      "stateMutability": "view",
      "type": "function"
    },
    {
      "inputs": [],
      "name": "getSupportedTokens",
      "outputs": [
        {
          "internalType": "address[]",
          "name": "tokens",
          "type": "address[]"
        },
        {
          "internalType": "string[]",
          "name": "symbols",
          "type": "string[]"
        }
      ],
      "stateMutability": "view",
      "type": "function"
    },
    {
      "inputs": [
        {
          "internalType": "uint256",
          "name": "marketId",
          "type": "uint256"
        }
      ],
      "name": "getSupporterCount",
      "outputs": [
        {
          "internalType": "uint256",
          "name": "",
          "type": "uint256"
        }
      ],
      "stateMutability": "view",
      "type": "function"
    },
    {
      "inputs": [
        {
          "internalType": "uint256",
          "name": "marketId",
          "type": "uint256"
        },
        {
          "internalType": "address",
          "name": "token",
          "type": "address"
        }
      ],
      "name": "getTotalPool",
      "outputs": [
        {
          "internalType": "uint256",
          "name": "",
          "type": "uint256"
        }
      ],
      "stateMutability": "view",
      "type": "function"
    },
    {
      "inputs": [
        {
          "internalType": "uint256",
          "name": "marketId",
          "type": "uint256"
        },
        {
          "internalType": "address",
          "name": "user",
          "type": "address"
        },
        {
          "internalType": "address",
          "name": "token",
          "type": "address"
        }
      ],
      "name": "getUserBet",
      "outputs": [
        {
          "internalType": "uint256",
          "name": "",
          "type": "uint256"
        }
      ],
      "stateMutability": "view",
      "type": "function"
    },
    {
      "inputs": [
        {
          "internalType": "address",
          "name": "user",
          "type": "address"
        }
      ],
      "name": "getUserMarketHistory",
      "outputs": [
        {
          "internalType": "uint256[]",
          "name": "",
          "type": "uint256[]"
        }
      ],
      "stateMutability": "view",
      "type": "function"
    },
    {
      "inputs": [
        {
          "internalType": "uint256",
          "name": "marketId",
          "type": "uint256"
        },
        {
          "internalType": "address",
          "name": "user",
          "type": "address"
        },
        {
          "internalType": "address",
          "name": "token",
          "type": "address"
        }
      ],
      "name": "getUserSupport",
      "outputs": [
        {
          "internalType": "uint256",
          "name": "",
          "type": "uint256"
        }
      ],
      "stateMutability": "view",
      "type": "function"
    },
    {
      "inputs": [
        {
          "internalType": "uint256",
          "name": "",
          "type": "uint256"
        }
      ],
      "name": "isActiveMarket",
      "outputs": [
        {
          "internalType": "bool",
          "name": "",
          "type": "bool"
        }
      ],
      "stateMutability": "view",
      "type": "function"
    },
    {
      "inputs": [
        {
          "internalType": "uint256",
          "name": "marketId",
          "type": "uint256"
        }
      ],
      "name": "isMarketActive",
      "outputs": [
        {
          "internalType": "bool",
          "name": "",
          "type": "bool"
        }
      ],
      "stateMutability": "view",
      "type": "function"
    },
    {
      "inputs": [
        {
          "internalType": "uint256",
          "name": "",
          "type": "uint256"
        },
        {
          "internalType": "uint256",
          "name": "",
          "type": "uint256"
        }
      ],
      "name": "marketBettors",
      "outputs": [
        {
          "internalType": "address",
          "name": "",
          "type": "address"
        }
      ],
      "stateMutability": "view",
      "type": "function"
    },
    {
      "inputs": [],
      "name": "marketCreationFee",
      "outputs": [
        {
          "internalType": "uint256",
          "name": "",
          "type": "uint256"
        }
      ],
      "stateMutability": "view",
      "type": "function"
    },
    {
      "inputs": [
        {
          "internalType": "uint256",
          "name": "",
          "type": "uint256"
        },
        {
          "internalType": "uint256",
          "name": "",
          "type": "uint256"
        }
      ],
      "name": "marketSupporters",
      "outputs": [
        {
          "internalType": "address",
          "name": "",
          "type": "address"
        }
      ],
      "stateMutability": "view",
      "type": "function"
    },
    {
      "inputs": [
        {
          "internalType": "uint256",
          "name": "",
          "type": "uint256"
        }
      ],
      "name": "markets",
      "outputs": [
        {
          "internalType": "address",
          "name": "creator",
          "type": "address"
        },
        {
          "internalType": "string",
          "name": "ipfsHash",
          "type": "string"
        },
        {
          "internalType": "bool",
          "name": "isMultiOption",
          "type": "bool"
        },
        {
          "internalType": "uint256",
          "name": "maxOptions",
          "type": "uint256"
        },
        {
          "internalType": "address",
          "name": "paymentToken",
          "type": "address"
        },
        {
          "internalType": "uint256",
          "name": "minStake",
          "type": "uint256"
        },
        {
          "internalType": "uint256",
          "name": "creatorDeposit",
          "type": "uint256"
        },
        {
          "internalType": "uint256",
          "name": "creatorOutcome",
          "type": "uint256"
        },
        {
          "internalType": "uint256",
          "name": "startTime",
          "type": "uint256"
        },
        {
          "internalType": "uint256",
          "name": "endTime",
          "type": "uint256"
        },
        {
          "internalType": "uint256",
          "name": "resolutionEndTime",
          "type": "uint256"
        },
        {
          "internalType": "enum EventPool.MarketState",
          "name": "state",
          "type": "uint8"
        },
        {
          "internalType": "uint256",
          "name": "winningOption",
          "type": "uint256"
        },
        {
          "internalType": "bool",
          "name": "isResolved",
          "type": "bool"
        }
      ],
      "stateMutability": "view",
      "type": "function"
    },
    {
      "inputs": [],
      "name": "nextMarketId",
      "outputs": [
        {
          "internalType": "uint256",
          "name": "",
          "type": "uint256"
        }
      ],
      "stateMutability": "view",
      "type": "function"
    },
    {
      "inputs": [],
      "name": "owner",
      "outputs": [
        {
          "internalType": "address",
          "name": "",
          "type": "address"
        }
      ],
      "stateMutability": "view",
      "type": "function"
    },
    {
      "inputs": [
        {
          "internalType": "uint256",
          "name": "marketId",
          "type": "uint256"
        }
      ],
      "name": "permanentlyRemoveMarket",
      "outputs": [],
      "stateMutability": "nonpayable",
      "type": "function"
    },
    {
      "inputs": [
        {
          "internalType": "uint256",
          "name": "",
          "type": "uint256"
        }
      ],
      "name": "permanentlyRemovedMarkets",
      "outputs": [
        {
          "internalType": "uint256",
          "name": "",
          "type": "uint256"
        }
      ],
      "stateMutability": "view",
      "type": "function"
    },
    {
      "inputs": [
        {
          "internalType": "uint256",
          "name": "marketId",
          "type": "uint256"
        },
        {
          "internalType": "uint256",
          "name": "option",
          "type": "uint256"
        }
      ],
      "name": "placeBet",
      "outputs": [],
      "stateMutability": "payable",
      "type": "function"
    },
    {
      "inputs": [
        {
          "internalType": "uint256",
          "name": "marketId",
          "type": "uint256"
        },
        {
          "internalType": "uint256",
          "name": "option",
          "type": "uint256"
        },
        {
          "internalType": "uint256",
          "name": "amount",
          "type": "uint256"
        }
      ],
      "name": "placeBetWithToken",
      "outputs": [],
      "stateMutability": "nonpayable",
      "type": "function"
    },
    {
      "inputs": [
        {
          "internalType": "address",
          "name": "token",
          "type": "address"
        }
      ],
      "name": "removeSupportedToken",
      "outputs": [],
      "stateMutability": "nonpayable",
      "type": "function"
    },
    {
      "inputs": [],
      "name": "renounceOwnership",
      "outputs": [],
      "stateMutability": "nonpayable",
      "type": "function"
    },
    {
      "inputs": [
        {
          "internalType": "uint256",
          "name": "marketId",
          "type": "uint256"
        },
        {
          "internalType": "uint256",
          "name": "_winningOption",
          "type": "uint256"
        }
      ],
      "name": "resolveMarket",
      "outputs": [],
      "stateMutability": "nonpayable",
      "type": "function"
    },
    {
      "inputs": [
        {
          "internalType": "address",
          "name": "_analytics",
          "type": "address"
        }
      ],
      "name": "setAnalytics",
      "outputs": [],
      "stateMutability": "nonpayable",
      "type": "function"
    },
    {
      "inputs": [
        {
          "internalType": "uint256",
          "name": "_marketCreationFee",
          "type": "uint256"
        }
      ],
      "name": "setMarketCreationFee",
      "outputs": [],
      "stateMutability": "nonpayable",
      "type": "function"
    },
    {
      "inputs": [
        {
          "internalType": "address",
          "name": "_verification",
          "type": "address"
        }
      ],
      "name": "setVerification",
      "outputs": [],
      "stateMutability": "nonpayable",
      "type": "function"
    },
    {
      "inputs": [
        {
          "internalType": "address",
          "name": "wallet",
          "type": "address"
        },
        {
          "internalType": "bool",
          "name": "blacklisted",
          "type": "bool"
        }
      ],
      "name": "setWalletBlacklist",
      "outputs": [],
      "stateMutability": "nonpayable",
      "type": "function"
    },
    {
      "inputs": [
        {
          "internalType": "uint256",
          "name": "marketId",
          "type": "uint256"
        },
        {
          "internalType": "uint256",
          "name": "amount",
          "type": "uint256"
        }
      ],
      "name": "supportMarket",
      "outputs": [],
      "stateMutability": "nonpayable",
      "type": "function"
    },
    {
      "inputs": [
        {
          "internalType": "uint256",
          "name": "",
          "type": "uint256"
        }
      ],
      "name": "supportedTokenList",
      "outputs": [
        {
          "internalType": "address",
          "name": "",
          "type": "address"
        }
      ],
      "stateMutability": "view",
      "type": "function"
    },
    {
      "inputs": [
        {
          "internalType": "address",
          "name": "",
          "type": "address"
        }
      ],
      "name": "supportedTokens",
      "outputs": [
        {
          "internalType": "bool",
          "name": "",
          "type": "bool"
        }
      ],
      "stateMutability": "view",
      "type": "function"
    },
    {
      "inputs": [
        {
          "internalType": "address",
          "name": "",
          "type": "address"
        }
      ],
      "name": "tokenSymbols",
      "outputs": [
        {
          "internalType": "string",
          "name": "",
          "type": "string"
        }
      ],
      "stateMutability": "view",
      "type": "function"
    },
    {
      "inputs": [
        {
          "internalType": "address",
          "name": "newOwner",
          "type": "address"
        }
      ],
      "name": "transferOwnership",
      "outputs": [],
      "stateMutability": "nonpayable",
      "type": "function"
    },
    {
      "inputs": [],
      "name": "treasury",
      "outputs": [
        {
          "internalType": "address payable",
          "name": "",
          "type": "address"
        }
      ],
      "stateMutability": "view",
      "type": "function"
    },
    {
      "inputs": [
        {
          "internalType": "uint256",
          "name": "",
          "type": "uint256"
        },
        {
          "internalType": "address",
          "name": "",
          "type": "address"
        }
      ],
      "name": "userBetOptions",
      "outputs": [
        {
          "internalType": "uint256",
          "name": "",
          "type": "uint256"
        }
      ],
      "stateMutability": "view",
      "type": "function"
    },
    {
      "inputs": [
        {
          "internalType": "uint256",
          "name": "",
          "type": "uint256"
        },
        {
          "internalType": "address",
          "name": "",
          "type": "address"
        }
      ],
      "name": "userHasBet",
      "outputs": [
        {
          "internalType": "bool",
          "name": "",
          "type": "bool"
        }
      ],
      "stateMutability": "view",
      "type": "function"
    },
    {
      "inputs": [
        {
          "internalType": "uint256",
          "name": "",
          "type": "uint256"
        },
        {
          "internalType": "address",
          "name": "",
          "type": "address"
        }
      ],
      "name": "userHasSupported",
      "outputs": [
        {
          "internalType": "bool",
          "name": "",
          "type": "bool"
        }
      ],
      "stateMutability": "view",
      "type": "function"
    },
    {
      "inputs": [
        {
          "internalType": "address",
          "name": "",
          "type": "address"
        },
        {
          "internalType": "uint256",
          "name": "",
          "type": "uint256"
        }
      ],
      "name": "userMarketHistory",
      "outputs": [
        {
          "internalType": "uint256",
          "name": "",
          "type": "uint256"
        }
      ],
      "stateMutability": "view",
      "type": "function"
    },
    {
      "inputs": [],
      "name": "verification",
      "outputs": [
        {
          "internalType": "address",
          "name": "",
          "type": "address"
        }
      ],
      "stateMutability": "view",
      "type": "function"
    },
    {
      "inputs": [
        {
          "internalType": "uint256",
          "name": "marketId",
          "type": "uint256"
        }
      ],
      "name": "withdrawSupport",
      "outputs": [],
      "stateMutability": "nonpayable",
      "type": "function"
    },
    {
      "stateMutability": "payable",
      "type": "receive"
    }
  ],
  "bytecode": "0x6080346200021c57601f6200592838819003918201601f1916830191906001600160401b0383118484101762000221578160a092859260409586528339810103126200021c57620000508262000237565b60208084015191936001600160a01b0393848416938490036200021c576200007a81830162000237565b958560806200008c6060860162000237565b94015191169586156200020457600080546001600160a01b03198082168a17835585519a9099929692849283167f8be0079c531659141344cd1fd0a4f28419497f9722a3daafe3b4186f6b6457e08980a360019889600e558a600b541617600b551688600c541617600c551686600d541617600d55600f558180526008835280822080548581811c91168015620001f9575b85821014620001e557601f8111620001b7575b506008635045505560e01b019055818052600783528120805460ff1916841790556009549268010000000000000000841015620001a3578301806009558310156200018f576009815220019081541690556156db90816200024d8239f35b634e487b7160e01b81526032600452602490fd5b634e487b7160e01b82526041600452602482fd5b81845285601f868620920160051c8201915b828110620001d957505062000131565b858155018690620001c9565b634e487b7160e01b84526022600452602484fd5b90607f16906200011e565b8251631e4fbdf760e01b815260006004820152602490fd5b600080fd5b634e487b7160e01b600052604160045260246000fd5b51906001600160a01b03821682036200021c5756fe6080604052600436101561001b575b361561001957600080fd5b005b6000803560e01c806307adc191146142355780630b501ab8146141c75780630d64cdbd14614198578063157bdcce146140c0578063256ba74114614017578063287f57b514613fce5780632b5ba3b914613f8f5780632b60c82214613f645780632ef1bdfa14613f4657806333d6b46e14613ed35780633adfe6d014613ea85780633e32a76c14613be15780633ec79193146138ba578063406ef2ef1461389c5780634986597f146138555780634afe62b5146135b65780634f44289d1461355c5780634ffe2a8b1461353357806351049969146133ba5780635351404414613390578063553b7cbb146133385780635b7baf6414612fd45780635da3247a14612fb65780636055733314612f9e57806361d027b314612f7557806365ebce5514612eff578063677bd9ff1461293657806368c4ac26146128f75780636d822220146128815780636ed2151a1461261e578063715018a6146125c4578063720138e81461230a57806374c350eb146122ca57806376319190146121395780637c16cd9e1461207557806380d5ac8a1461204c57806381b17d2914611ffa5780638704bec014611fae57806387fea11014611f2c578063881df9e114611f015780638da5cb5b14611eda578063971f8bb114611e9a57806398a1767114611e445780639f37022a14611e21578063a30a091414611df7578063a5e973c314611d75578063ad8e42ff14611d4b578063b1138b5014611b74578063b1283e7714611a78578063b85ed636146119ee578063c22c62c3146119bc578063c3436e0c1461186c578063c8a843b71461174d578063ce67be261461172f578063d3c7c2c7146115ba578063db62c6de14611509578063dc4ce349146114a1578063e053bcec14611456578063eb44fdd314611359578063efb2b6901461085e578063f00fe321146107a5578063f204072f1461046e578063f2fde38b146103e3578063f849f69e14610370578063fb0b2b361461031d5763fe53a6e8146102fd575061000e565b3461031a578060031936011261031a576020600e54604051908152f35b80fd5b503461031a57602036600319011261031a5761036c90610358906040906001600160a01b0361034a6144b3565b168152600860205220614847565b60405191829160208352602083019061460c565b0390f35b503461031a57602036600319011261031a576004358152601160205260ff604082205416806103a7575b6020906040519015158152f35b50600160205260ff600b604083200154169060058210156103cf57506004602091141561039a565b634e487b7160e01b81526021600452602490fd5b503461031a57602036600319011261031a576103fd6144b3565b6104056148fc565b6001600160a01b0390811690811561045557600054826001600160601b0360a01b821617600055167f8be0079c531659141344cd1fd0a4f28419497f9722a3daafe3b4186f6b6457e0600080a380f35b604051631e4fbdf760e01b815260048101849052602490fd5b503461031a5761047d36614725565b908083526020600181526040842060ff600b820154166005811015610791576104a69015614b84565b600981015442101561074057600490338652600a83526104cd60ff60408820541615614928565b0180546001600160a01b039190821680156106d557851561067357906104fd8684938995600b5416903390614ac7565b848352600384526040832033600052845260ff604060002054161561065a575b84835260038452604083203360005284526040600020600160ff198254161790558180600b541691541690803b156106285760405163c15d980760e01b8152600481018790523360248201526001600160a01b039290921660448301526064820187905283908290608490829084905af190811561064f57839161063b575b5050600d5416806105d8575b50507fc02bbaff19bde22745e7227aeb31741efd4bf98ebb8b48ac49dd40833fac6756906040519384523393a380f35b803b1561063757818091606460405180948193638f46a5a160e01b83528960048401523360248401528a60448401525af1801561062c57156105a85761061d9061473b565b6106285783386105a8565b8380fd5b6040513d84823e3d90fd5b5080fd5b6106449061473b565b61063757813861059c565b6040513d85823e3d90fd5b8483526006845261066e3360408520614cf3565b61051d565b60405162461bcd60e51b815260048101859052603460248201527f4d61726b65744d616e616765723a20537570706f727420616d6f756e74206d75604482015273073742062652067726561746572207468616e20360641b6064820152608490fd5b60405162461bcd60e51b815260048101859052603760248201527f4d61726b65744d616e616765723a20537570706f7274206f6e6c79206176616960448201527f6c61626c6520666f7220746f6b656e206d61726b6574730000000000000000006064820152608490fd5b60405162461bcd60e51b815260048101839052602360248201527f4d61726b65744d616e616765723a20537570706f727420706572696f6420656e60448201526219195960ea1b6064820152608490fd5b634e487b7160e01b86526021600452602486fd5b503461031a57604036600319011261031a576107ff9060206107c561449d565b600b54604051633d1e7ba160e11b815260048035908201526001600160a01b03928316602482015294859290911690829081906044820190565b03915afa908115610852579061081b575b602090604051908152f35b506020813d821161084a575b8161083460209383614788565b810103126108455760209051610810565b600080fd5b3d9150610827565b604051903d90823e3d90fd5b5061010036600319011261031a5760043567ffffffffffffffff81116106375761088c9036906004016147c6565b906108956148ed565b6064356001600160a01b038116900361084557338252600a6020526108c160ff60408420541615614928565b825115611315576002604435101580611308575b156112b857608435156112745760a435156112205760c435151580611212575b156111be57601860e4351061116857801561112e576064356001600160a01b0316156110cb576064356001600160a01b031682526007602052604082205460ff161561106a575b600f54341061101457610e108060e435029060e43582041460e4351517156110005761096890426149d5565b916202a30083018311610fec57600e5492610982846149e2565b600e556202a300604051916109968361474f565b3383528660208401528415156040840152604435606084015260018060a01b0360643516608084015260843560a084015260a43560c084015260c43560e08401524261010084015280610120840152016101408201528161016082015281610180820152816101a08201528382526001602052604082209060018060a01b038151166001600160601b0360a01b835416178255602081015180519067ffffffffffffffff8211610fd8578190610a4f600186015461480d565b601f8111610f9a575b50602090601f8311600114610f2b578692610f20575b50508160011b916000199060031b1c19161760018301555b610aa560408201511515600284019060ff801983541691151516179055565b606081015160038301556004820160018060a01b036080830151166001600160601b0360a01b82541617905560a0810151600583015560c0810151600683015560e0810151600783015561010081015160088301556101208101516009830155610140810151600a830155600b82016101608201516005811015610f0c57610b5d9392600d926101a09260ff80198354169116179055610180810151600c8501550151151591019060ff801983541691151516179055565b601054600160401b811015610ef65783610b80826001610b99940160105561454b565b90919082549060031b91821b91600019901b1916179055565b828152601160205260408120805460ff191660011790556064356001600160a01b0316610e5357600f54610bcf60a435826149d5565b3410610e0f5781808080610bf79460018060a01b038254165af1610bf1614a37565b50614a67565b828152600260205260408120336000526020526040600020600160ff198254161790558281526004602052604081203360005260205260c4356040600020553381526012602052610c4b8360408320614a14565b600b546001600160a01b0316803b1561063757604051633805180760e21b815260048101859052336024820152606480356001600160a01b0316604483015260a480359183019190915260c4356084830152909183918391829084905af1801561062c57908291610dfb575b5050600d546001600160a01b031680610d3e575b5050817fe47f69e204f188e4f9df6adc50c9cf0bd76c1cd85f34a8a3e8284064afb4fb82602094610d076040519160a0835260a083019061460c565b9315158187015260443560408201526064356001600160a01b031660608201526084356080820152339381900390a3604051908152f35b803b156106375760405163782a780560e11b8152600481018590523360248201529082908290604490829084905af1801561062c57908291610de7575b5050600d546001600160a01b0316803b1561063757604051635374b47b60e01b81526004810185905233602482015260c435604482015260a43560648201529082908290608490829084905af1801561062c5715610ccb57610ddd829161473b565b61031a5780610ccb565b610df09061473b565b61031a578038610d7b565b610e049061473b565b61031a578038610cb7565b606460405162461bcd60e51b815260206004820152602060248201527f4d61726b65744d616e616765723a20496e73756666696369656e7420504550556044820152fd5b600f54803410610e975781808080610e799460018060a01b038254165af1610bf1614a37565b610e9260a43530336064356001600160a01b0316614ac7565b610bf7565b60405162461bcd60e51b815260206004820152603160248201527f4d61726b65744d616e616765723a20496e73756666696369656e74205045505560448201527020666f72206372656174696f6e2066656560781b6064820152608490fd5b634e487b7160e01b600052604160045260246000fd5b634e487b7160e01b85526021600452602485fd5b015190503880610a6e565b9250600185018652602086209086935b601f1984168510610f7f576001945083601f19811610610f66575b505050811b016001830155610a86565b015160001960f88460031b161c19169055388080610f56565b81810151835560209485019460019093019290910190610f3b565b610fc89060018701885260208820601f850160051c81019160208610610fce575b601f0160051c01906149fd565b38610a58565b9091508190610fbb565b634e487b7160e01b85526041600452602485fd5b634e487b7160e01b81526011600452602490fd5b634e487b7160e01b83526011600452602483fd5b60405162461bcd60e51b815260206004820152602860248201527f4d61726b65744d616e616765723a20496e73756666696369656e74206372656160448201526774696f6e2066656560c01b6064820152608490fd5b60405162461bcd60e51b815260206004820152603360248201527f4d61726b65744d616e616765723a20546f6b656e206e6f7420737570706f727460448201527232b2103337b91036bab63a3496b7b83a34b7b760691b6064820152608490fd5b60405162461bcd60e51b815260206004820152603560248201527f4d61726b65744d616e616765723a204d756c74692d6f7074696f6e206d61726b60448201527432ba39903932b8bab4b93290281928103a37b5b2b760591b6064820152608490fd5b6064356001600160a01b03161561093c576064356001600160a01b03168252600760205260408220546111639060ff1661497e565b61093c565b60405162461bcd60e51b815260206004820152602860248201527f4d61726b65744d616e616765723a204d696e696d756d20323420686f757273206044820152671c995c5d5a5c995960c21b6064820152608490fd5b60405162461bcd60e51b815260206004820152602660248201527f4d61726b65744d616e616765723a20496e76616c69642063726561746f72206f6044820152657574636f6d6560d01b6064820152608490fd5b5060443560c43511156108f5565b60405162461bcd60e51b815260206004820152602660248201527f4d61726b65744d616e616765723a20496e76616c69642063726561746f722064604482015265195c1bdcda5d60d21b6064820152608490fd5b606460405162461bcd60e51b815260206004820152602060248201527f4d61726b65744d616e616765723a20496e76616c6964206d696e207374616b656044820152fd5b60405162461bcd60e51b815260206004820152602260248201527f4d61726b65744d616e616765723a20496e76616c6964206d6178206f7074696f6044820152616e7360f01b6064820152608490fd5b50600a60443511156108d5565b606460405162461bcd60e51b815260206004820152602060248201527f4d61726b65744d616e616765723a20496e76616c6964204950465320686173686044820152fd5b503461031a57602036600319011261031a57604061036c9161137961560a565b50600435815260016020522060ff600d604051926113968461474f565b80546001600160a01b0390811685526113b160018301614847565b60208601528360028301541615156040860152600382015460608601526004820154166080850152600581015460a0850152600681015460c0850152600781015460e085015260088101546101008501526009810154610120850152600a81015461014085015261142c83600b8301541661016086016149f1565b600c81015461018085015201541615156101a082015260405191829160208352602083019061466f565b503461031a5761146536614725565b9190815260056020526040812090815483101561031a57602061148884846145b9565b905460405160039290921b1c6001600160a01b03168152f35b503461031a57606036600319011261031a57604435906001600160a01b03808316830361084557600b5460405163dc4ce34960e01b8152600480359082015260248035908201526001600160a01b0390941660448501526020918491168180606481016107ff565b503461031a57604036600319011261031a576115236144b3565b61152b6148ed565b906115346148fc565b6001600160a01b031690811561156757611564918352600a602052604083209060ff801983541691151516179055565b80f35b60405162461bcd60e51b815260206004820152602560248201527f4d61726b65744d616e616765723a20496e76616c69642077616c6c6574206164604482015264647265737360d81b6064820152608490fd5b503461031a578060031936011261031a576009546115d781615481565b906115e56040519283614788565b808252601f1992836115f683615481565b0193602094368686013761160983615481565b926116176040519485614788565b8084528161162482615481565b01835b818110611720575050825b8181106116ab57505061165060405194604086526040860190614460565b94848603818601528351918287528187019082808560051b8a0101960194975b84891061167d5787870388f35b9091929394958480611699838686600196030188528a5161460c565b98019401980197919094939294611670565b806116bc61171792989495986144fe565b90546001600160a01b039160039190821b1c82166116da848b615499565b526116e4836144fe565b9054911b1c168852600884526116fc60408920614847565b6117068288615499565b526117118187615499565b506149e2565b95929195611632565b60608682018901528701611627565b503461031a578060031936011261031a576020600954604051908152f35b503461031a578060031936011261031a5760135461176a81615673565b8291835b8181106117bb57505061178082615673565b925b828110611797576040518061036c86826145d1565b806117a56117b69284615499565b516117b08287615499565b526149e2565b611782565b6117c481614582565b90549060031b1c80865260206001815260ff600b604089200154166005811015611858576004149081611821575b50611807575b50611802906149e2565b61176e565b8461181a916117b0611802949787615499565b93906117f8565b6014915082885252604086205462278d00810180911161184457421015386117f2565b634e487b7160e01b87526011600452602487fd5b634e487b7160e01b88526021600452602488fd5b503461031a57602036600319011261031a5760043580825260016020526040822080546001600160a01b031633036119685760ff600b82015416600581101561195457906118bc60099215614b84565b015461a8bf1981019081116110005742101561190557604051611564916118e28261476c565b601182527010dc99585d1bdc8818d85b98d95b1b1959607a1b602083015261516b565b60405162461bcd60e51b815260206004820152602160248201527f4d61726b65744d616e616765723a20546f6f206c61746520746f2063616e63656044820152601b60fa1b6064820152608490fd5b634e487b7160e01b84526021600452602484fd5b60405162461bcd60e51b815260206004820152602660248201527f4d61726b65744d616e616765723a204f6e6c792063726561746f722063616e2060448201526518d85b98d95b60d21b6064820152608490fd5b503461031a576119cb36614725565b9190815260066020526040812090815483101561031a57602061148884846145b9565b503461031a578060031936011261031a57600e5460001990818101818111611a6457611a1990615673565b9160015b828110611a32576040518061036c86826145d1565b818101818111611a505790806117b0611a4b9387615499565b611a1d565b634e487b7160e01b86526011600452602486fd5b634e487b7160e01b84526011600452602484fd5b503461031a57602036600319011261031a57600435815260016020819052604090912080546001600160a01b03929083169190611ab6908201614847565b92600282015460ff1691600381015491600482015416600582015460068301546007840154600885015490600986015492600a87015494600b88015460ff1696600c89015498600d015460ff1699604051809e819e82526101c08060208401528201611b219161460c565b9c1515906040015260608d015260808c015260a08b015260c08a015260e08901526101008801526101208701526101408601526101608501611b629161464c565b61018084015215156101a08301520390f35b503461031a57602036600319011261031a576004359081815260016020526040812091600b830192835460ff8116946005861015610f0c57611bbc6001602495969714614d70565b600d8301928354611bd060ff821615614dcd565b600c5460408051633313865560e21b8152600481018a9052976001600160a01b039692899190829089165afa968715611d405789908a98611d0c575b5015611cbb57889587600c6002950155600160ff1980941617905516179055611c34846151c6565b600d541680611c6e575b505060207f6dfc24f0f2fb42e49fb4fa3ffa8abb148cab908a1fb8335b3f128a08b2594af191604051908152a280f35b803b156106375781809160446040518094819362ff4a7360e81b83528960048401528860248401525af1801561062c5715611c3e57611cac9061473b565b611cb7578238611c3e565b8280fd5b60405162461bcd60e51b8152602060048201526024808201527f4d61726b65744d616e616765723a204e6f207265736f6c7574696f6e2072656160448201526318da195960e21b6064820152608490fd5b9050611d3191975060403d604011611d39575b611d298183614788565b810190614e5f565b969038611c0c565b503d611d1f565b6040513d8b823e3d90fd5b503461031a57602036600319011261031a5760406020916004358152601483522054604051908152f35b503461031a578060031936011261031a57604051601080548083529083526020808301937f1b6847dc741a1b0cd08d278845f9d819d87b734759afb55fe2de5cb82a9ae67292915b828210611de05761036c85611dd481890382614788565b604051918291826145d1565b835486529485019460019384019390910190611dbd565b503461031a57602036600319011261031a5760406020916004358152600683522054604051908152f35b503461031a57602036600319011261031a57611e3b6148fc565b600435600f5580f35b503461031a57604036600319011261031a57611e5e6144b3565b6001600160a01b031681526012602052604081208054602435929083101561031a576020611e8c84846145b9565b90546040519160031b1c8152f35b503461031a57602036600319011261031a57611eb46144b3565b611ebc6148fc565b60018060a01b03166001600160601b0360a01b600c541617600c5580f35b503461031a578060031936011261031a57546040516001600160a01b039091168152602090f35b503461031a57602036600319011261031a576004359060135482101561031a576020611e8c83614582565b503461031a57602080600319360112610637576004358252600681526040822091604051809384918482549182815201918452848420935b85828210611f8f57505050611f7b92500383614788565b61036c604051928284938452830190614460565b85546001600160a01b0316845260019586019588955093019201611f64565b503461031a57604036600319011261031a576040611fca61449d565b9160043581526002602052209060018060a01b0316600052602052602060ff604060002054166040519015158152f35b503461031a57602036600319011261031a576004356015548110156106375760209060156000527f55f448fdea98c4d29eb340757ef0a66cd03dbb9538908a6a81d96026b71ec4750154604051908152f35b503461031a578060031936011261031a57600d546040516001600160a01b039091168152602090f35b503461031a57602036600319011261031a576004358082526001602052604082209060ff600b8301541660058110156119545760016120b49114614d70565b600a82015442106120e1576120d360ff600d6115649401541615614dcd565b6120db614e19565b9061516b565b60405162461bcd60e51b815260206004820152602a60248201527f4d61726b65744d616e616765723a205265736f6c7574696f6e20706572696f64604482015269081b9bdd08195b99195960b21b6064820152608490fd5b503461031a57602036600319011261031a576121536144b3565b61215b6148fc565b6001600160a01b0390811690811561227357818352600760205261218560ff60408520541661497e565b81835260076020526040832060ff19815416905560086020526121aa60408420615438565b825b60098054908183101561226b578391856121c5856144fe565b949054600395861b1c16146121e5575050506121e0906149e2565b6121ac565b919450929160001991828101908111611844579061221684612209612235946144fe565b905490891b1c16916144fe565b90919082549060031b9160018060a01b03809116831b921b1916179055565b82548015612257570192612248846144fe565b81939154921b1b191690555580f35b634e487b7160e01b86526031600452602486fd5b505050505080f35b60405162461bcd60e51b815260206004820152602960248201527f4d61726b65744d616e616765723a2043616e6e6f742072656d6f7665206e617460448201526834bb32903a37b5b2b760b91b6064820152608490fd5b503461031a57602036600319011261031a576122e46144b3565b6122ec6148fc565b60018060a01b03166001600160601b0360a01b600d541617600d5580f35b503461031a57604036600319011261031a576123246144b3565b602467ffffffffffffffff81358181116125c0576123469036906004016147c6565b61234e6148fc565b6001600160a01b03841691821561256f5781511561251f578286526020926007845260ff6040882054166124cc5786526007835260408620926001938460ff1982541617905560088152604087209280519283116124b9579082916123b3855461480d565b601f811161248b575b5081601f84116001146124285750889261241d575b5050600019600383901b1c191690831b1790555b60095491600160401b831015612409575081612216916115649493016009556144fe565b634e487b7160e01b60009081526041600452fd5b0151905038806123d1565b9190869450601f198416868b52838b20938b905b8282106124725750508411612459575b505050811b0190556123e5565b015160001960f88460031b161c1916905538808061244c565b848401518655899790950194938401939081019061243c565b6124b390868b52838b20601f860160051c810191858710610fce57601f0160051c01906149fd565b386123bc565b634e487b7160e01b885260416004528588fd5b60405162461bcd60e51b8152600481018590526026818701527f4d61726b65744d616e616765723a20546f6b656e20616c7265616479207375706044820152651c1bdc9d195960d21b6064820152608490fd5b60405162461bcd60e51b8152602060048201526023818601527f4d61726b65744d616e616765723a20496e76616c696420746f6b656e2073796d604482015262189bdb60ea1b6064820152608490fd5b60405162461bcd60e51b8152602060048201528085018590527f4d61726b65744d616e616765723a20496e76616c696420746f6b656e206164646044820152637265737360e01b6064820152608490fd5b8480fd5b503461031a578060031936011261031a576125dd6148fc565b600080546001600160a01b0319811682556001600160a01b03167f8be0079c531659141344cd1fd0a4f28419497f9722a3daafe3b4186f6b6457e08280a380f35b503461031a57606036600319011261031a57600435602435906044358184526020600181526040852060ff600b82015416600581101561286d576126629015614b84565b600981015461a8bf1981019081116118445761267f904210614bcf565b8415158061285f575b61269190614c50565b60048101805490916001600160a01b039182169081156127ff5785899493926126c360056126d0940154831015614c9c565b83600b5416903390614ac7565b858352600284526040832033600052845260ff60406000205416156127d2575b85835260028452604083203360005284526040600020600160ff1982541617905585835260048452604083203360005284528660406000205580600b541691541690803b15611cb757604051633805180760e21b8152600481018790523360248201526001600160a01b0392909216604483015260648201859052608482018790528290829060a490829084905af1801561062c576127be575b50506040519384528301527f1b8a9031cb9351278d70a994f81536e9e08c91162e64f92b2fe4766fb7a891b460403393a380f35b6127c79061473b565b6125c057843861278a565b858352600584526127e63360408520614cf3565b338352601284526127fa8660408520614a14565b6126f0565b60405162461bcd60e51b815260048101869052603260248201527f4d61726b65744d616e616765723a2054686973206d61726b6574207573657320604482015271141154154b081d5cd9481c1b1858d950995d60721b6064820152608490fd5b506003810154851115612688565b634e487b7160e01b87526021600452602487fd5b503461031a578060031936011261031a57604051601580548083529083526020808301937f55f448fdea98c4d29eb340757ef0a66cd03dbb9538908a6a81d96026b71ec47592915b8282106128e05761036c85611dd481890382614788565b8354865294850194600193840193909101906128c9565b503461031a57602036600319011261031a5760209060ff906040906001600160a01b036129226144b3565b168152600784522054166040519015158152f35b503461031a576020806003193601126106375760043580835260018252604083209160ff600b840154166005811015610f0c5760026129759114615114565b600c8301548015612ebc57828552600282526040852033600052825260ff6040600020541615612e775782855260048252604085203360005282528060406000205403612e3457600b546040516307c7a72d60e01b8152600481018590523360248201526001600160a01b03918216908481604481855afa908115612e29578891612df0575b50612dab5760048681015460405163553b7cbb60e01b815291820187905233602483015283166001600160a01b0381166044830152928582606481865afa908115611d405787928a92612d79575b5060405163dc4ce34960e01b8082526004820194909452602481018790526001600160a01b0386166044820152958787606481885afa968715612d6e578b97612d3f575b5060038a01548b949091600186898c8e5b87851115612c9b5750505050505050508215916101f49284848102048414811715612c8757612328808602958604141715612c735761271080940490818102918183041481151715612c5d578715612c47578b97612afd9204906149d5565b9854163314612b9e575b5050803b15611cb757604051632f0041ed60e11b8152600481018690523360248201526001600160a01b039290921660448301526064820186905282908290608490829084905af1801561062c57612b8a575b50507f5380cf6fe903b40c6d5a9e0dfbca2f3a423f0a21520b4d5947ed5169bdba946d906040519384523393a380f35b612b939061473b565b610628578338612b5a565b604051633d1e7ba160e11b8152600481018890526001600160a01b03851660248201529297939450909185816044818b5afa908115611d40578991612c1a575b50818102918183041490151715612c065791612bfe9188949304906149d5565b943880612b07565b634e487b7160e01b88526011600452602488fd5b90508581813d8311612c40575b612c318183614788565b81010312610845575138612bde565b503d612c27565b634e487b7160e01b600052601260045260246000fd5b634e487b7160e01b600052601160045260246000fd5b634e487b7160e01b8b52601160045260248bfd5b634e487b7160e01b8c52601160045260248cfd5b858503612cb9575b50505050612cb0906149e2565b8d898c8e612a9e565b6040518781526004810191909152602481018590526001600160a01b03929092166044830152929892816064818d5afa9182156108525791612d10575b50612d0490612cb0926149d5565b9690508d898c8e612ca3565b90508b81813d8311612d38575b612d278183614788565b810103126108455751612cb0612cf6565b503d612d1d565b9096508781813d8311612d67575b612d578183614788565b8101031261084557519538612a8d565b503d612d4d565b6040513d8d823e3d90fd5b925090508582813d8111612da4575b612d928183614788565b81010312610845578691519038612a49565b503d612d88565b60405162461bcd60e51b815260048101859052601e60248201527f4d61726b65744d616e616765723a20416c726561647920636c61696d656400006044820152606490fd5b90508481813d8311612e22575b612e078183614788565b81010312612e1e57612e1890614e52565b386129fb565b8780fd5b503d612dfd565b6040513d8a823e3d90fd5b6064826040519062461bcd60e51b825280600483015260248201527f4d61726b65744d616e616765723a204e6f7420612077696e6e696e67206265746044820152fd5b60405162461bcd60e51b815260048101839052601c60248201527f4d61726b65744d616e616765723a204e6f2062657420706c61636564000000006044820152606490fd5b6064826040519062461bcd60e51b825280600483015260248201527f4d61726b65744d616e616765723a204e6f2077696e6e696e67206f7074696f6e6044820152fd5b503461031a578060031936011261031a57604051601380548083529083526020808301937f66de8ffda797e3de9c05e8fc57b3bf0ec28a930d40b0d285d93c06501cf6a09092915b828210612f5e5761036c85611dd481890382614788565b835486529485019460019384019390910190612f47565b503461031a578060031936011261031a57600b546040516001600160a01b039091168152602090f35b503461031a57611564612fb036614725565b90614e7c565b503461031a578060031936011261031a576020601054604051908152f35b503461031a576020806003193601126106375760043580835260018252604083209160ff600b840154166005811015610f0c576003036132e857818452600281526040842033600052815260ff6040600020541680156132c8575b1561327a578392828552600282526040852033600052825260ff604060002054166131cd575b828552600382526040852033600052825260ff60406000205416613111575b83156130c157600401547ff3f402280ef0a7905e124aa621b65eaeb2725c343e8b36d398ed78c29daf285c91906130b5906001600160a01b0316853361537d565b6040519384523393a380f35b60405162461bcd60e51b815260048101839052602260248201527f4d61726b65744d616e616765723a204e6f20726566756e6420617661696c61626044820152616c6560f01b6064820152608490fd5b600b5460048281015460405163256ba74160e01b81529182018690523360248301526001600160a01b039081166044830152929590929091849184916064918391165afa9081156131c2578691613191575b61316d92506149d5565b928285526003825260408520336000528252604060002060ff198154169055613074565b90508282813d83116131bb575b6131a88183614788565b810103126108455761316d915190613163565b503d61319e565b6040513d88823e3d90fd5b600b5460048281015460405163553b7cbb60e01b81529182018690523360248301526001600160a01b03908116604483015292955091839183916064918391165afa90811561326f578591613242575b50928285526002825260408520336000528252604060002060ff198154169055613055565b90508181813d8311613268575b6132598183614788565b8101031261084557513861321d565b503d61324f565b6040513d87823e3d90fd5b6084906040519062461bcd60e51b82526004820152602160248201527f4d61726b65744d616e616765723a204e6f207374616b6520746f20726566756e6044820152601960fa1b6064820152fd5b50818452600381526040842033600052815260ff6040600020541661302f565b6084906040519062461bcd60e51b82526004820152602360248201527f4d61726b65744d616e616765723a204d61726b6574206e6f742063616e63656c6044820152621b195960ea1b6064820152fd5b503461031a576107ff90602061334d366144c9565b600b5460405163553b7cbb60e01b815260048101949094526001600160a01b03928316602485015290821660448401529194859290911690829081906064820190565b503461031a57602036600319011261031a5760406020916004358152600583522054604051908152f35b503461031a57604036600319011261031a5760043560243567ffffffffffffffff8111611cb7576133ef9036906004016147c6565b6133f76148fc565b613404600e5483106154ad565b8183526020906001825261342560018060a01b0360408620541615156154f8565b8284526001825260ff600b604086200154166005811015610f0c576004146134ee5782845260018252600b6040852001600460ff198254161790558284526014825242604085205560135491600160401b831015610ef6576134b284610b808560017f4c4561c5b0048424071c1115e9f1e325486e21c21333d968f21097b7b72d12ad9701601355614582565b8385526011815260ff6040862054166134e0575b6134da60405192828493845283019061460c565b0390a280f35b6134e984615550565b6134c6565b60405162461bcd60e51b815260048101839052601e60248201527f4d61726b65744d616e616765723a20416c72656164792064656c6574656400006044820152606490fd5b503461031a578060031936011261031a57600c546040516001600160a01b039091168152602090f35b503461031a57604036600319011261031a576107ff90602061357c61449d565b600b54604051634f44289d60e01b815260048035908201526001600160a01b03928316602482015294859290911690829081906044820190565b506135c036614725565b908083526020600181526040842060ff600b820154166005811015610791576135e99015614b84565b600981015461a8bf198101908111611a5057613606904210614bcf565b83151580613847575b61361890614c50565b6004810180546001600160a01b03929083166137dc579061364160058894930154341015614c9c565b848352600284526040832033600052845260ff60406000205416156137af575b84835260028452604083203360005284526040600020600160ff198254161790558483526004845260408320336000528452856040600020558180600b541691541690803b1561062857604051633805180760e21b8152600481018790523360248201526001600160a01b03929092166044830152346064830152608482018790528390829060a490829084905af190811561064f57839161379b575b5050600d541680613740575b505060405192835234908301527f1b8a9031cb9351278d70a994f81536e9e08c91162e64f92b2fe4766fb7a891b460403393a380f35b803b1561063757604051635374b47b60e01b815260048101859052336024820152604481018690523460648201529082908290608490829084905af1801561062c571561370a576137909061473b565b61062857833861370a565b6137a49061473b565b6106375781386136fe565b848352600584526137c33360408520614cf3565b338352601284526137d78560408520614a14565b613661565b60405162461bcd60e51b815260048101859052603d60248201527f4d61726b65744d616e616765723a2054686973206d61726b657420757365732060448201527f746f6b656e732c2075736520706c61636542657457697468546f6b656e0000006064820152608490fd5b50600381015484111561360f565b503461031a57604036600319011261031a57604061387161449d565b9160043581526004602052209060018060a01b03166000526020526020604060002054604051908152f35b503461031a578060031936011261031a576020600e54604051908152f35b503461031a57602080600319360112610637576139eb600435916138dc61560a565b508284526001908181526040852093604051956138f88761474f565b85546001600160a01b039081168852613912858801614847565b8489015260ff6002880154161515604089015260038701546060890152806004880154169160808901928352600588015460a08a0152600688015460c08a0152600788015460e08a015260ff600d60088a0154996101009a8b8d015260098101546101208d0152600a8101546101408d01526139998c61016085600b8501541691016149f1565b600c8101546101808d015201541615156101a08a0152600b548351604051633d1e7ba160e11b8152600481018790529084166001600160a01b0316602482015297908316908690899081906044820190565b0381845afa97881561062c578298613bb0575b508351604051634f44289d60e01b8152600481018790529084166001600160a01b0316602482015291908690839081806044810103915afa918215613ba3578192613b74575b5084815260058652604081205492600687526040822054946005885260408320968960405180998a918c825491828152019188528c8089209489915b838310613b5b5750505050613a9792500389614788565b83526006885260408320604051809a8a835492838152019286528a862091865b818110613b4657505050506040613b2a9794613b389a97948c9a9794613ae661036c9f9e613af496038d614788565b511681526008885220614847565b98613b0a6040519d8d8f9e8f908152019061466f565b958c015260408b015260608a0152608089015287820360a0890152614460565b9085820360c0870152614460565b9083820360e085015261460c565b835487168552938c0193928201928201613ab7565b86548a168552958101958e955090930192018e8e613a80565b9091508581813d8311613b9c575b613b8c8183614788565b8101031261084557519038613a44565b503d613b82565b50604051903d90823e3d90fd5b919097508582813d8311613bda575b613bc98183614788565b8101031261084557905196856139fe565b503d613bbf565b503461031a576020806003193601126106375760043580835260018252604083209160038152604084203385528152613c2060ff604086205416614d16565b60ff600b840154166005811015610f0c5780613e295750600983015461a8bf198101908111613e1557421015613dab575b600b5460049384015460405163256ba74160e01b81529485018490523360248601526001600160a01b039081166044860181905291169085908386606481865afa95861561062c578296613d7c575b50613cac861515614d16565b823b15610637576040516317be0b2f60e11b8152600481018690523360248201526001600160a01b0391909116604482015260648101869052918290608490829084905af1801561326f57613d49575b507ffb349e367fa58e764f8867e52d91c7e0b9e6904700091667054ce1fdb56c496d908285526003815260408520336000528152604060002060ff1981541690556040519384523393a380f35b93613d757ffb349e367fa58e764f8867e52d91c7e0b9e6904700091667054ce1fdb56c496d929561473b565b9390613cfc565b9095508381813d8311613da4575b613d948183614788565b8101031261063757519438613ca0565b503d613d8a565b6084906040519062461bcd60e51b82526004820152603c60248201527f4d61726b65744d616e616765723a2043616e6e6f74207769746864726177207760448201527f697468696e20313220686f757273206f66206d61726b657420656e64000000006064820152fd5b634e487b7160e01b85526011600452602485fd5b60048114908115613e9d575b50613c51576084906040519062461bcd60e51b82526004820152603660248201527f4d61726b65744d616e616765723a2043616e6e6f7420776974686472617720696044820152756e2063757272656e74206d61726b657420737461746560501b6064820152fd5b600391501438613e35565b503461031a57602036600319011261031a576004359060105482101561031a576020611e8c8361454b565b503461031a57602080600319360112610637576001600160a01b03613ef66144b3565b1682526012815260408220916040518092808554928381520194835280832092905b828210613f2f5761036c85611dd481890382614788565b835486529485019460019384019390910190613f18565b503461031a578060031936011261031a576020600f54604051908152f35b503461031a57602036600319011261031a576004359060095482101561031a576020611488836144fe565b503461031a57602036600319011261031a5760209060ff906040906001600160a01b03613fba6144b3565b168152600a84522054166040519015158152f35b503461031a57604036600319011261031a5760ff6040602092613fef61449d565b6004358252600385528282206001600160a01b03909116825284522054604051911615158152f35b503461031a5761406e602061402b366144c9565b600b5460405163256ba74160e01b815260048101949094526001600160a01b03928316602485015290821660448401529193849290911690829081906064820190565b03915afa90811561062c57829161408b575b602082604051908152f35b90506020813d82116140b8575b816140a560209383614788565b8101031261063757602091505138614080565b3d9150614098565b503461031a57602036600319011261031a57600435808252600160205260408220600b81019081549060ff82166005811015610791579061410360099215614b84565b0154804210614143577e0b6feae4bec70344a7d0e99f4c0237adaaeee2fbb258266be400bd8612a33292600160209360ff1916179055604051908152a280f35b60405162461bcd60e51b815260206004820152602760248201527f4d61726b65744d616e616765723a2042657474696e6720706572696f64206e6f6044820152661d08195b99195960ca1b6064820152608490fd5b503461031a57602036600319011261031a5760ff60406020926004358152601184522054166040519015158152f35b503461031a57602080600319360112610637576004358252600581526040822091604051809384918482549182815201918452848420935b8582821061421657505050611f7b92500383614788565b85546001600160a01b03168452600195860195889550930192016141ff565b503461031a5760208060031936011261063757600435906142546148fc565b614261600e5483106154ad565b81835260018082526040842054614282906001600160a01b031615156154f8565b82845280825260ff600b604086200154166005811015610f0c5760026142a89114615114565b828452808252600a60408520015462278d008101809111613e1557421061440d5782845280825283600d604082208281556142e4848201615438565b82600282015582600382015582600482015582600582015582600682015582600782015582600882015582600982015582600a82015582600b82015582600c82015501558284526011825260ff6040852054166143ff575b60155490600160401b821015610fd8578101806015558110156143eb577f4c4561c5b0048424071c1115e9f1e325486e21c21333d968f21097b7b72d12ad9183608092601587527f55f448fdea98c4d29eb340757ef0a66cd03dbb9538908a6a81d96026b71ec47501556026604051918083528201527f5065726d616e656e746c792072656d6f76656420616674657220636c61696d206040820152651c195c9a5bd960d21b6060820152a280f35b634e487b7160e01b84526032600452602484fd5b61440883615550565b61433c565b60405162461bcd60e51b815260048101839052602560248201527f4d61726b65744d616e616765723a20436c61696d20706572696f64206e6f7420604482015264195b99195960da1b6064820152608490fd5b90815180825260208080930193019160005b828110614480575050505090565b83516001600160a01b031685529381019392810192600101614472565b602435906001600160a01b038216820361084557565b600435906001600160a01b038216820361084557565b606090600319011261084557600435906001600160a01b03906024358281168103610845579160443590811681036108455790565b6009548110156145355760096000527f6e1540171b6c0c960b71a7020d9f60077f6af931a8bbf590da0223dacf75c7af0190600090565b634e487b7160e01b600052603260045260246000fd5b6010548110156145355760106000527f1b6847dc741a1b0cd08d278845f9d819d87b734759afb55fe2de5cb82a9ae6720190600090565b6013548110156145355760136000527f66de8ffda797e3de9c05e8fc57b3bf0ec28a930d40b0d285d93c06501cf6a0900190600090565b80548210156145355760005260206000200190600090565b6020908160408183019282815285518094520193019160005b8281106145f8575050505090565b8351855293810193928101926001016145ea565b919082519283825260005b848110614638575050826000602080949584010152601f8019910116010190565b602081830181015184830182015201614617565b9060058210156146595752565b634e487b7160e01b600052602160045260246000fd5b9060018060a01b039182815116825261469760208201516101c080602086015284019061460c565b9260408201511515604084015260608201516060840152608082015116608083015260a081015160a083015260c081015160c083015260e081015160e083015261010080820151908301526101208082015190830152610140808201519083015261470b610160808301519084019061464c565b61018080820151908301526101a080910151151591015290565b6040906003190112610845576004359060243590565b67ffffffffffffffff8111610ef657604052565b6101c0810190811067ffffffffffffffff821117610ef657604052565b6040810190811067ffffffffffffffff821117610ef657604052565b90601f8019910116810190811067ffffffffffffffff821117610ef657604052565b67ffffffffffffffff8111610ef657601f01601f191660200190565b81601f82011215610845578035906147dd826147aa565b926147eb6040519485614788565b8284526020838301011161084557816000926020809301838601378301015290565b90600182811c9216801561483d575b602083101461482757565b634e487b7160e01b600052602260045260246000fd5b91607f169161481c565b906040519182600082549261485b8461480d565b9081845260019485811690816000146148ca5750600114614887575b505061488592500383614788565b565b9093915060005260209081600020936000915b8183106148b257505061488593508201013880614877565b8554888401850152948501948794509183019161489a565b91505061488594506020925060ff191682840152151560051b8201013880614877565b60243590811515820361084557565b6000546001600160a01b0316330361491057565b60405163118cdaa760e01b8152336004820152602490fd5b1561492f57565b60405162461bcd60e51b815260206004820152602160248201527f4d61726b65744d616e616765723a2057616c6c657420626c61636b6c697374656044820152601960fa1b6064820152608490fd5b1561498557565b60405162461bcd60e51b815260206004820152602260248201527f4d61726b65744d616e616765723a20546f6b656e206e6f7420737570706f7274604482015261195960f21b6064820152608490fd5b91908201809211612c5d57565b6000198114612c5d5760010190565b60058210156146595752565b818110614a08575050565b600081556001016149fd565b90815491600160401b831015610ef65782610b80916001614885950181556145b9565b3d15614a62573d90614a48826147aa565b91614a566040519384614788565b82523d6000602084013e565b606090565b15614a6e57565b60405162461bcd60e51b815260206004820152602b60248201527f4d61726b65744d616e616765723a20466565207472616e7366657220746f206f60448201526a1ddb995c8819985a5b195960aa1b6064820152608490fd5b6040516323b872dd60e01b60208201526001600160a01b03928316602482015292909116604483015260648083019390935291815260a081019181831067ffffffffffffffff841117610ef657614885926040525b906000602091828151910182855af115614b78576000513d614b6f57506001600160a01b0381163b155b614b4d5750565b604051635274afe760e01b81526001600160a01b039091166004820152602490fd5b60011415614b46565b6040513d6000823e3d90fd5b15614b8b57565b606460405162461bcd60e51b815260206004820152602060248201527f4d61726b65744d616e616765723a204d61726b6574206e6f74206163746976656044820152fd5b15614bd657565b60405162461bcd60e51b815260206004820152604660248201527f4d61726b65744d616e616765723a2042657474696e6720706572696f6420656e60448201527f646564202d206e6f206265747320616c6c6f77656420696e206c61737420313260648201526520686f75727360d01b608482015260a490fd5b15614c5757565b60405162461bcd60e51b815260206004820152601d60248201527f4d61726b65744d616e616765723a20496e76616c6964206f7074696f6e0000006044820152606490fd5b15614ca357565b60405162461bcd60e51b815260206004820152602260248201527f4d61726b65744d616e616765723a2042656c6f77206d696e696d756d207374616044820152616b6560f01b6064820152608490fd5b90815491600160401b831015610ef65782612216916001614885950181556145b9565b15614d1d57565b60405162461bcd60e51b815260206004820152602560248201527f4d61726b65744d616e616765723a204e6f20737570706f727420746f20776974604482015264686472617760d81b6064820152608490fd5b15614d7757565b60405162461bcd60e51b815260206004820152602860248201527f4d61726b65744d616e616765723a204d61726b6574206e6f7420696e20656e64604482015267656420737461746560c01b6064820152608490fd5b15614dd457565b60405162461bcd60e51b815260206004820152601f60248201527f4d61726b65744d616e616765723a20416c7265616479207265736f6c766564006044820152606490fd5b60405190614e268261476c565b601982527f5265736f6c7574696f6e20706572696f642065787069726564000000000000006020830152565b5190811515820361084557565b9190826040910312610845576020614e7683614e52565b92015190565b9060008281526001602052604090818120600b810160ff8154166005811015611954576001614eab9114614d70565b84151580615106575b156150b457600d8201614ecb60ff82541615614dcd565b600a8301544210156150a257600c548551633313865560e21b8152600481018990526001600160a01b03949187908290602490829089165afa801561509857889087928891615075575b508261506b575b50501561500157600c01869055805460ff199081166001179091558154166002179055614f48856151c6565b600d541680614f80575b50507f6dfc24f0f2fb42e49fb4fa3ffa8abb148cab908a1fb8335b3f128a08b2594af19160209151908152a2565b803b1561063757818091604485518095819362ff4a7360e81b83528a60048401528960248401525af1908115614ff65750917f6dfc24f0f2fb42e49fb4fa3ffa8abb148cab908a1fb8335b3f128a08b2594af19391602093614fe7575b5091819350614f52565b614ff09061473b565b38614fdd565b8351903d90823e3d90fd5b855162461bcd60e51b815260206004820152603a60248201527f4d61726b65744d616e616765723a20496e73756666696369656e74207665726960448201527f6669657220766f74657320666f722074686973206f7074696f6e0000000000006064820152608490fd5b1490508738614f1c565b905061508f919250883d8a11611d3957611d298183614788565b91909138614f15565b87513d88823e3d90fd5b505050505050614885906120db614e19565b835162461bcd60e51b815260206004820152602560248201527f4d61726b65744d616e616765723a20496e76616c69642077696e6e696e67206f604482015264383a34b7b760d91b6064820152608490fd5b506003820154851115614eb4565b1561511b57565b60405162461bcd60e51b815260206004820152602260248201527f4d61726b65744d616e616765723a204d61726b6574206e6f74207265736f6c76604482015261195960f21b6064820152608490fd5b906151c17f4c4561c5b0048424071c1115e9f1e325486e21c21333d968f21097b7b72d12ad91836000526001602052600b604060002001600360ff1982541617905560405191829160208352602083019061460c565b0390a2565b90600082815260209060018252604091828220948291600191600388015492600c890154905b848111156152c75750505050506101f4908181029181830414901517156152b35761271090049384615220575b5050509050565b60018060a01b0361523f600482600b541693019287838554169161537d565b80600b5416915416813b15611cb75783516348fef59560e01b81526001600160a01b03919091166004820152602481019590955292939281908490604490829084905af19182156152a957505061529a575b80808392615219565b6152a39061473b565b38615291565b51903d90823e3d90fd5b634e487b7160e01b82526011600452602482fd5b8181036152dd575b6152d8906149e2565b6151ec565b600b5460048b8101548a5163dc4ce34960e01b8152918201869052602482018490526001600160a01b0390811660448301529297929091869183916064918391165afa908115615373578891615344575b5061533c906152d8926149d5565b9590506152cf565b90508481813d831161536c575b61535b8183614788565b81010312612e1e57516152d861532e565b503d615351565b89513d8a823e3d90fd5b90916001600160a01b0316806153f75750600080809381935af161539f614a37565b50156153a757565b60405162461bcd60e51b815260206004820152602260248201527f4d61726b65744d616e616765723a20455448207472616e73666572206661696c604482015261195960f21b6064820152608490fd5b60405163a9059cbb60e01b60208201526001600160a01b0392909216602483015260448083019390935291815261488591615433606483614788565b614b1c565b615442815461480d565b908161544c575050565b81601f6000931160011461545e575055565b90808391825261547d601f60208420940160051c8401600185016149fd565b5555565b67ffffffffffffffff8111610ef65760051b60200190565b80518210156145355760209160051b010190565b156154b457565b606460405162461bcd60e51b815260206004820152602060248201527f4d61726b65744d616e616765723a20496e76616c6964206d61726b65742049446044820152fd5b156154ff57565b60405162461bcd60e51b8152602060048201526024808201527f4d61726b65744d616e616765723a204d61726b657420646f6573206e6f7420656044820152631e1a5cdd60e21b6064820152608490fd5b60005b6010908154918282101561560457839261556c8361454b565b949054600395861b1c1461558b57505061558691506149e2565b615553565b90916000199180830191908211612c5d57610b806155ab6155b79361454b565b905490871b1c9161454b565b815480156155ee578101926155cb8461454b565b81939154921b1b19169055556000526011602052604060002060ff198154169055565b634e487b7160e01b600052603160045260246000fd5b50505050565b604051906156178261474f565b816101a0600091828152606060208201528260408201528260608201528260808201528260a08201528260c08201528260e082015282610100820152826101208201528261014082015282610160820152826101808201520152565b9061567d82615481565b61568a6040519182614788565b828152809261569b601f1991615481565b019060203691013756fea2646970667358221220dd9fa8f073fb2c466cc80e167c8985b8c2b882732b90bbd8f731aa572f43493564736f6c63430008140033",
  "linkReferences": {},
  "deployedLinkReferences": {}
}