{
  "_format": "hh-sol-artifact-1",
  "contractName": "P2PMarketManager",
  "sourceName": "contracts/P2PMarketManager.sol",
  "abi": [
    {
      "inputs": [
        {
          "internalType": "address",
          "name": "initialOwner",
          "type": "address"
        },
        {
          "internalType": "address payable",
          "name": "_treasury",
          "type": "address"
        },
        {
          "internalType": "address",
          "name": "_adminManager",
          "type": "address"
        }
      ],
      "stateMutability": "nonpayable",
      "type": "constructor"
    },
    {
      "inputs": [
        {
          "internalType": "address",
          "name": "owner",
          "type": "address"
        }
      ],
      "name": "OwnableInvalidOwner",
      "type": "error"
    },
    {
      "inputs": [
        {
          "internalType": "address",
          "name": "account",
          "type": "address"
        }
      ],
      "name": "OwnableUnauthorizedAccount",
      "type": "error"
    },
    {
      "inputs": [
        {
          "internalType": "address",
          "name": "token",
          "type": "address"
        }
      ],
      "name": "SafeERC20FailedOperation",
      "type": "error"
    },
    {
      "anonymous": false,
      "inputs": [
        {
          "indexed": true,
          "internalType": "uint256",
          "name": "marketId",
          "type": "uint256"
        },
        {
          "indexed": false,
          "internalType": "string",
          "name": "reason",
          "type": "string"
        }
      ],
      "name": "MarketCancelled",
      "type": "event"
    },
    {
      "anonymous": false,
      "inputs": [
        {
          "indexed": true,
          "internalType": "uint256",
          "name": "marketId",
          "type": "uint256"
        },
        {
          "indexed": true,
          "internalType": "address",
          "name": "creator",
          "type": "address"
        },
        {
          "indexed": false,
          "internalType": "string",
          "name": "ipfsHash",
          "type": "string"
        },
        {
          "indexed": false,
          "internalType": "bool",
          "name": "isMultiOption",
          "type": "bool"
        },
        {
          "indexed": false,
          "internalType": "uint256",
          "name": "maxOptions",
          "type": "uint256"
        },
        {
          "indexed": false,
          "internalType": "address",
          "name": "paymentToken",
          "type": "address"
        },
        {
          "indexed": false,
          "internalType": "uint256",
          "name": "minStake",
          "type": "uint256"
        },
        {
          "indexed": false,
          "internalType": "uint256",
          "name": "startTime",
          "type": "uint256"
        },
        {
          "indexed": false,
          "internalType": "uint256",
          "name": "stakeEndTime",
          "type": "uint256"
        },
        {
          "indexed": false,
          "internalType": "uint256",
          "name": "endTime",
          "type": "uint256"
        },
        {
          "indexed": false,
          "internalType": "uint256",
          "name": "resolutionEndTime",
          "type": "uint256"
        }
      ],
      "name": "MarketCreated",
      "type": "event"
    },
    {
      "anonymous": false,
      "inputs": [
        {
          "indexed": true,
          "internalType": "uint256",
          "name": "marketId",
          "type": "uint256"
        },
        {
          "indexed": false,
          "internalType": "uint256",
          "name": "winningOption",
          "type": "uint256"
        }
      ],
      "name": "MarketResolved",
      "type": "event"
    },
    {
      "anonymous": false,
      "inputs": [
        {
          "indexed": true,
          "internalType": "uint256",
          "name": "marketId",
          "type": "uint256"
        },
        {
          "indexed": false,
          "internalType": "uint256",
          "name": "winningOption",
          "type": "uint256"
        },
        {
          "indexed": false,
          "internalType": "uint256",
          "name": "resolvedTimestamp",
          "type": "uint256"
        },
        {
          "indexed": false,
          "internalType": "uint256",
          "name": "resolvedPrice",
          "type": "uint256"
        }
      ],
      "name": "MarketResolvedDetailed",
      "type": "event"
    },
    {
      "anonymous": false,
      "inputs": [
        {
          "indexed": true,
          "internalType": "uint256",
          "name": "marketId",
          "type": "uint256"
        },
        {
          "indexed": true,
          "internalType": "bytes32",
          "name": "assertionId",
          "type": "bytes32"
        },
        {
          "indexed": true,
          "internalType": "address",
          "name": "disputer",
          "type": "address"
        },
        {
          "indexed": false,
          "internalType": "uint256",
          "name": "disputedOptionId",
          "type": "uint256"
        }
      ],
      "name": "OracleDisputed",
      "type": "event"
    },
    {
      "anonymous": false,
      "inputs": [
        {
          "indexed": true,
          "internalType": "uint256",
          "name": "marketId",
          "type": "uint256"
        },
        {
          "indexed": true,
          "internalType": "bytes32",
          "name": "assertionId",
          "type": "bytes32"
        },
        {
          "indexed": false,
          "internalType": "bool",
          "name": "accepted",
          "type": "bool"
        }
      ],
      "name": "OracleResultProcessed",
      "type": "event"
    },
    {
      "anonymous": false,
      "inputs": [
        {
          "indexed": true,
          "internalType": "uint256",
          "name": "marketId",
          "type": "uint256"
        },
        {
          "indexed": true,
          "internalType": "bytes32",
          "name": "assertionId",
          "type": "bytes32"
        }
      ],
      "name": "OracleSettled",
      "type": "event"
    },
    {
      "anonymous": false,
      "inputs": [
        {
          "indexed": true,
          "internalType": "address",
          "name": "previousOwner",
          "type": "address"
        },
        {
          "indexed": true,
          "internalType": "address",
          "name": "newOwner",
          "type": "address"
        }
      ],
      "name": "OwnershipTransferred",
      "type": "event"
    },
    {
      "anonymous": false,
      "inputs": [
        {
          "indexed": true,
          "internalType": "uint256",
          "name": "marketId",
          "type": "uint256"
        },
        {
          "indexed": true,
          "internalType": "address",
          "name": "user",
          "type": "address"
        },
        {
          "indexed": false,
          "internalType": "uint256",
          "name": "amount",
          "type": "uint256"
        }
      ],
      "name": "RefundClaimed",
      "type": "event"
    },
    {
      "anonymous": false,
      "inputs": [
        {
          "indexed": true,
          "internalType": "uint256",
          "name": "marketId",
          "type": "uint256"
        },
        {
          "indexed": true,
          "internalType": "bytes32",
          "name": "assertionId",
          "type": "bytes32"
        }
      ],
      "name": "ResolutionRequested",
      "type": "event"
    },
    {
      "anonymous": false,
      "inputs": [
        {
          "indexed": true,
          "internalType": "uint256",
          "name": "marketId",
          "type": "uint256"
        },
        {
          "indexed": true,
          "internalType": "address",
          "name": "user",
          "type": "address"
        },
        {
          "indexed": false,
          "internalType": "uint256",
          "name": "option",
          "type": "uint256"
        },
        {
          "indexed": false,
          "internalType": "uint256",
          "name": "amount",
          "type": "uint256"
        }
      ],
      "name": "StakePlaced",
      "type": "event"
    },
    {
      "anonymous": false,
      "inputs": [
        {
          "indexed": true,
          "internalType": "uint256",
          "name": "marketId",
          "type": "uint256"
        },
        {
          "indexed": true,
          "internalType": "address",
          "name": "user",
          "type": "address"
        },
        {
          "indexed": false,
          "internalType": "uint256",
          "name": "amount",
          "type": "uint256"
        }
      ],
      "name": "WinningsClaimed",
      "type": "event"
    },
    {
      "inputs": [],
      "name": "CREATOR_FEE_BPS",
      "outputs": [
        {
          "internalType": "uint256",
          "name": "",
          "type": "uint256"
        }
      ],
      "stateMutability": "view",
      "type": "function"
    },
    {
      "inputs": [],
      "name": "NET_WINNER_BPS",
      "outputs": [
        {
          "internalType": "uint256",
          "name": "",
          "type": "uint256"
        }
      ],
      "stateMutability": "view",
      "type": "function"
    },
    {
      "inputs": [],
      "name": "PLATFORM_FEE_BPS",
      "outputs": [
        {
          "internalType": "uint256",
          "name": "",
          "type": "uint256"
        }
      ],
      "stateMutability": "view",
      "type": "function"
    },
    {
      "inputs": [],
      "name": "TOTAL_FEE_BPS",
      "outputs": [
        {
          "internalType": "uint256",
          "name": "",
          "type": "uint256"
        }
      ],
      "stateMutability": "view",
      "type": "function"
    },
    {
      "inputs": [
        {
          "internalType": "uint256",
          "name": "",
          "type": "uint256"
        }
      ],
      "name": "activeMarkets",
      "outputs": [
        {
          "internalType": "uint256",
          "name": "",
          "type": "uint256"
        }
      ],
      "stateMutability": "view",
      "type": "function"
    },
    {
      "inputs": [],
      "name": "adminManager",
      "outputs": [
        {
          "internalType": "address",
          "name": "",
          "type": "address"
        }
      ],
      "stateMutability": "view",
      "type": "function"
    },
    {
      "inputs": [],
      "name": "assertionGracePeriod",
      "outputs": [
        {
          "internalType": "uint256",
          "name": "",
          "type": "uint256"
        }
      ],
      "stateMutability": "view",
      "type": "function"
    },
    {
      "inputs": [
        {
          "internalType": "uint256",
          "name": "marketId",
          "type": "uint256"
        },
        {
          "internalType": "address",
          "name": "user",
          "type": "address"
        }
      ],
      "name": "calculateWinnings",
      "outputs": [
        {
          "internalType": "uint256",
          "name": "",
          "type": "uint256"
        }
      ],
      "stateMutability": "view",
      "type": "function"
    },
    {
      "inputs": [
        {
          "internalType": "uint256",
          "name": "marketId",
          "type": "uint256"
        }
      ],
      "name": "cancelMarket",
      "outputs": [],
      "stateMutability": "nonpayable",
      "type": "function"
    },
    {
      "inputs": [
        {
          "internalType": "uint256",
          "name": "marketId",
          "type": "uint256"
        }
      ],
      "name": "cancelMarketNoAssertion",
      "outputs": [],
      "stateMutability": "nonpayable",
      "type": "function"
    },
    {
      "inputs": [
        {
          "internalType": "uint256",
          "name": "marketId",
          "type": "uint256"
        }
      ],
      "name": "claimRefund",
      "outputs": [],
      "stateMutability": "nonpayable",
      "type": "function"
    },
    {
      "inputs": [
        {
          "internalType": "uint256",
          "name": "marketId",
          "type": "uint256"
        }
      ],
      "name": "claimWinnings",
      "outputs": [],
      "stateMutability": "nonpayable",
      "type": "function"
    },
    {
      "inputs": [
        {
          "internalType": "string",
          "name": "ipfsHash",
          "type": "string"
        },
        {
          "internalType": "bool",
          "name": "isMultiOption",
          "type": "bool"
        },
        {
          "internalType": "uint256",
          "name": "maxOptions",
          "type": "uint256"
        },
        {
          "internalType": "address",
          "name": "paymentToken",
          "type": "address"
        },
        {
          "internalType": "uint256",
          "name": "minStake",
          "type": "uint256"
        },
        {
          "internalType": "uint256",
          "name": "creatorDeposit",
          "type": "uint256"
        },
        {
          "internalType": "uint256",
          "name": "creatorOutcome",
          "type": "uint256"
        },
        {
          "internalType": "uint256",
          "name": "stakeDurationMinutes",
          "type": "uint256"
        },
        {
          "internalType": "uint256",
          "name": "resolutionDurationMinutes",
          "type": "uint256"
        },
        {
          "internalType": "enum P2PMarketManager.MarketType",
          "name": "marketType",
          "type": "uint8"
        },
        {
          "internalType": "address",
          "name": "priceFeed",
          "type": "address"
        },
        {
          "internalType": "uint256",
          "name": "priceThreshold",
          "type": "uint256"
        }
      ],
      "name": "createMarket",
      "outputs": [
        {
          "internalType": "uint256",
          "name": "",
          "type": "uint256"
        }
      ],
      "stateMutability": "payable",
      "type": "function"
    },
    {
      "inputs": [
        {
          "internalType": "uint256",
          "name": "marketId",
          "type": "uint256"
        }
      ],
      "name": "creatorCancelMarket",
      "outputs": [],
      "stateMutability": "nonpayable",
      "type": "function"
    },
    {
      "inputs": [],
      "name": "defaultBondCurrency",
      "outputs": [
        {
          "internalType": "address",
          "name": "",
          "type": "address"
        }
      ],
      "stateMutability": "view",
      "type": "function"
    },
    {
      "inputs": [
        {
          "internalType": "uint256",
          "name": "marketId",
          "type": "uint256"
        },
        {
          "internalType": "uint256",
          "name": "optionId",
          "type": "uint256"
        }
      ],
      "name": "disputeOracle",
      "outputs": [],
      "stateMutability": "nonpayable",
      "type": "function"
    },
    {
      "inputs": [
        {
          "internalType": "uint256",
          "name": "marketId",
          "type": "uint256"
        }
      ],
      "name": "endMarket",
      "outputs": [],
      "stateMutability": "nonpayable",
      "type": "function"
    },
    {
      "inputs": [
        {
          "internalType": "uint256",
          "name": "marketId",
          "type": "uint256"
        }
      ],
      "name": "getMarket",
      "outputs": [
        {
          "components": [
            {
              "internalType": "address",
              "name": "creator",
              "type": "address"
            },
            {
              "internalType": "string",
              "name": "ipfsHash",
              "type": "string"
            },
            {
              "internalType": "bool",
              "name": "isMultiOption",
              "type": "bool"
            },
            {
              "internalType": "uint256",
              "name": "maxOptions",
              "type": "uint256"
            },
            {
              "internalType": "address",
              "name": "paymentToken",
              "type": "address"
            },
            {
              "internalType": "uint256",
              "name": "minStake",
              "type": "uint256"
            },
            {
              "internalType": "uint256",
              "name": "creatorDeposit",
              "type": "uint256"
            },
            {
              "internalType": "uint256",
              "name": "creatorOutcome",
              "type": "uint256"
            },
            {
              "internalType": "uint256",
              "name": "startTime",
              "type": "uint256"
            },
            {
              "internalType": "uint256",
              "name": "stakeEndTime",
              "type": "uint256"
            },
            {
              "internalType": "uint256",
              "name": "endTime",
              "type": "uint256"
            },
            {
              "internalType": "uint256",
              "name": "resolutionEndTime",
              "type": "uint256"
            },
            {
              "internalType": "enum P2PMarketManager.MarketState",
              "name": "state",
              "type": "uint8"
            },
            {
              "internalType": "uint256",
              "name": "winningOption",
              "type": "uint256"
            },
            {
              "internalType": "bool",
              "name": "isResolved",
              "type": "bool"
            },
            {
              "internalType": "uint256",
              "name": "resolvedTimestamp",
              "type": "uint256"
            },
            {
              "internalType": "uint256",
              "name": "resolvedPrice",
              "type": "uint256"
            },
            {
              "internalType": "enum P2PMarketManager.MarketType",
              "name": "marketType",
              "type": "uint8"
            },
            {
              "internalType": "address",
              "name": "priceFeed",
              "type": "address"
            },
            {
              "internalType": "uint256",
              "name": "priceThreshold",
              "type": "uint256"
            },
            {
              "internalType": "bytes32",
              "name": "p2pAssertionId",
              "type": "bytes32"
            },
            {
              "internalType": "bool",
              "name": "p2pAssertionMade",
              "type": "bool"
            },
            {
              "internalType": "uint256",
              "name": "p2pDisputedOptionId",
              "type": "uint256"
            }
          ],
          "internalType": "struct P2PMarketManager.Market",
          "name": "",
          "type": "tuple"
        }
      ],
      "stateMutability": "view",
      "type": "function"
    },
    {
      "inputs": [
        {
          "internalType": "uint256",
          "name": "marketId",
          "type": "uint256"
        }
      ],
      "name": "getMarketStakers",
      "outputs": [
        {
          "internalType": "address[]",
          "name": "",
          "type": "address[]"
        }
      ],
      "stateMutability": "view",
      "type": "function"
    },
    {
      "inputs": [],
      "name": "getNextMarketId",
      "outputs": [
        {
          "internalType": "uint256",
          "name": "",
          "type": "uint256"
        }
      ],
      "stateMutability": "view",
      "type": "function"
    },
    {
      "inputs": [
        {
          "internalType": "uint256",
          "name": "marketId",
          "type": "uint256"
        },
        {
          "internalType": "uint256",
          "name": "option",
          "type": "uint256"
        },
        {
          "internalType": "address",
          "name": "token",
          "type": "address"
        }
      ],
      "name": "getOptionPool",
      "outputs": [
        {
          "internalType": "uint256",
          "name": "",
          "type": "uint256"
        }
      ],
      "stateMutability": "view",
      "type": "function"
    },
    {
      "inputs": [
        {
          "internalType": "uint256",
          "name": "marketId",
          "type": "uint256"
        }
      ],
      "name": "getStakerCount",
      "outputs": [
        {
          "internalType": "uint256",
          "name": "",
          "type": "uint256"
        }
      ],
      "stateMutability": "view",
      "type": "function"
    },
    {
      "inputs": [
        {
          "internalType": "uint256",
          "name": "marketId",
          "type": "uint256"
        },
        {
          "internalType": "address",
          "name": "token",
          "type": "address"
        }
      ],
      "name": "getSupportPool",
      "outputs": [
        {
          "internalType": "uint256",
          "name": "",
          "type": "uint256"
        }
      ],
      "stateMutability": "view",
      "type": "function"
    },
    {
      "inputs": [
        {
          "internalType": "uint256",
          "name": "marketId",
          "type": "uint256"
        }
      ],
      "name": "getSupporterCount",
      "outputs": [
        {
          "internalType": "uint256",
          "name": "",
          "type": "uint256"
        }
      ],
      "stateMutability": "view",
      "type": "function"
    },
    {
      "inputs": [
        {
          "internalType": "uint256",
          "name": "marketId",
          "type": "uint256"
        },
        {
          "internalType": "address",
          "name": "token",
          "type": "address"
        }
      ],
      "name": "getTotalPool",
      "outputs": [
        {
          "internalType": "uint256",
          "name": "",
          "type": "uint256"
        }
      ],
      "stateMutability": "view",
      "type": "function"
    },
    {
      "inputs": [
        {
          "internalType": "uint256",
          "name": "marketId",
          "type": "uint256"
        },
        {
          "internalType": "address",
          "name": "user",
          "type": "address"
        },
        {
          "internalType": "address",
          "name": "token",
          "type": "address"
        }
      ],
      "name": "getUserStake",
      "outputs": [
        {
          "internalType": "uint256",
          "name": "",
          "type": "uint256"
        }
      ],
      "stateMutability": "view",
      "type": "function"
    },
    {
      "inputs": [
        {
          "internalType": "uint256",
          "name": "marketId",
          "type": "uint256"
        },
        {
          "internalType": "address",
          "name": "user",
          "type": "address"
        },
        {
          "internalType": "address",
          "name": "token",
          "type": "address"
        }
      ],
      "name": "getUserSupport",
      "outputs": [
        {
          "internalType": "uint256",
          "name": "",
          "type": "uint256"
        }
      ],
      "stateMutability": "view",
      "type": "function"
    },
    {
      "inputs": [
        {
          "internalType": "uint256",
          "name": "",
          "type": "uint256"
        }
      ],
      "name": "isActiveMarket",
      "outputs": [
        {
          "internalType": "bool",
          "name": "",
          "type": "bool"
        }
      ],
      "stateMutability": "view",
      "type": "function"
    },
    {
      "inputs": [
        {
          "internalType": "uint256",
          "name": "marketId",
          "type": "uint256"
        }
      ],
      "name": "markMarketDeleted",
      "outputs": [],
      "stateMutability": "nonpayable",
      "type": "function"
    },
    {
      "inputs": [
        {
          "internalType": "uint256",
          "name": "marketId",
          "type": "uint256"
        }
      ],
      "name": "markMarketPermanentlyRemoved",
      "outputs": [],
      "stateMutability": "nonpayable",
      "type": "function"
    },
    {
      "inputs": [],
      "name": "marketCreationFee",
      "outputs": [
        {
          "internalType": "uint256",
          "name": "",
          "type": "uint256"
        }
      ],
      "stateMutability": "view",
      "type": "function"
    },
    {
      "inputs": [
        {
          "internalType": "uint256",
          "name": "",
          "type": "uint256"
        },
        {
          "internalType": "uint256",
          "name": "",
          "type": "uint256"
        }
      ],
      "name": "marketStakers",
      "outputs": [
        {
          "internalType": "address",
          "name": "",
          "type": "address"
        }
      ],
      "stateMutability": "view",
      "type": "function"
    },
    {
      "inputs": [
        {
          "internalType": "uint256",
          "name": "",
          "type": "uint256"
        },
        {
          "internalType": "uint256",
          "name": "",
          "type": "uint256"
        }
      ],
      "name": "marketSupporters",
      "outputs": [
        {
          "internalType": "address",
          "name": "",
          "type": "address"
        }
      ],
      "stateMutability": "view",
      "type": "function"
    },
    {
      "inputs": [
        {
          "internalType": "uint256",
          "name": "",
          "type": "uint256"
        }
      ],
      "name": "markets",
      "outputs": [
        {
          "internalType": "address",
          "name": "creator",
          "type": "address"
        },
        {
          "internalType": "string",
          "name": "ipfsHash",
          "type": "string"
        },
        {
          "internalType": "bool",
          "name": "isMultiOption",
          "type": "bool"
        },
        {
          "internalType": "uint256",
          "name": "maxOptions",
          "type": "uint256"
        },
        {
          "internalType": "address",
          "name": "paymentToken",
          "type": "address"
        },
        {
          "internalType": "uint256",
          "name": "minStake",
          "type": "uint256"
        },
        {
          "internalType": "uint256",
          "name": "creatorDeposit",
          "type": "uint256"
        },
        {
          "internalType": "uint256",
          "name": "creatorOutcome",
          "type": "uint256"
        },
        {
          "internalType": "uint256",
          "name": "startTime",
          "type": "uint256"
        },
        {
          "internalType": "uint256",
          "name": "stakeEndTime",
          "type": "uint256"
        },
        {
          "internalType": "uint256",
          "name": "endTime",
          "type": "uint256"
        },
        {
          "internalType": "uint256",
          "name": "resolutionEndTime",
          "type": "uint256"
        },
        {
          "internalType": "enum P2PMarketManager.MarketState",
          "name": "state",
          "type": "uint8"
        },
        {
          "internalType": "uint256",
          "name": "winningOption",
          "type": "uint256"
        },
        {
          "internalType": "bool",
          "name": "isResolved",
          "type": "bool"
        },
        {
          "internalType": "uint256",
          "name": "resolvedTimestamp",
          "type": "uint256"
        },
        {
          "internalType": "uint256",
          "name": "resolvedPrice",
          "type": "uint256"
        },
        {
          "internalType": "enum P2PMarketManager.MarketType",
          "name": "marketType",
          "type": "uint8"
        },
        {
          "internalType": "address",
          "name": "priceFeed",
          "type": "address"
        },
        {
          "internalType": "uint256",
          "name": "priceThreshold",
          "type": "uint256"
        },
        {
          "internalType": "bytes32",
          "name": "p2pAssertionId",
          "type": "bytes32"
        },
        {
          "internalType": "bool",
          "name": "p2pAssertionMade",
          "type": "bool"
        },
        {
          "internalType": "uint256",
          "name": "p2pDisputedOptionId",
          "type": "uint256"
        }
      ],
      "stateMutability": "view",
      "type": "function"
    },
    {
      "inputs": [],
      "name": "nextMarketId",
      "outputs": [
        {
          "internalType": "uint256",
          "name": "",
          "type": "uint256"
        }
      ],
      "stateMutability": "view",
      "type": "function"
    },
    {
      "inputs": [],
      "name": "optimisticOracle",
      "outputs": [
        {
          "internalType": "contract IOptimisticOracle",
          "name": "",
          "type": "address"
        }
      ],
      "stateMutability": "view",
      "type": "function"
    },
    {
      "inputs": [],
      "name": "owner",
      "outputs": [
        {
          "internalType": "address",
          "name": "",
          "type": "address"
        }
      ],
      "stateMutability": "view",
      "type": "function"
    },
    {
      "inputs": [
        {
          "internalType": "uint256",
          "name": "marketId",
          "type": "uint256"
        },
        {
          "internalType": "uint256",
          "name": "option",
          "type": "uint256"
        }
      ],
      "name": "placeStake",
      "outputs": [],
      "stateMutability": "payable",
      "type": "function"
    },
    {
      "inputs": [
        {
          "internalType": "uint256",
          "name": "marketId",
          "type": "uint256"
        },
        {
          "internalType": "uint256",
          "name": "option",
          "type": "uint256"
        },
        {
          "internalType": "uint256",
          "name": "amount",
          "type": "uint256"
        }
      ],
      "name": "placeStakeWithToken",
      "outputs": [],
      "stateMutability": "nonpayable",
      "type": "function"
    },
    {
      "inputs": [],
      "name": "renounceOwnership",
      "outputs": [],
      "stateMutability": "nonpayable",
      "type": "function"
    },
    {
      "inputs": [
        {
          "internalType": "uint256",
          "name": "marketId",
          "type": "uint256"
        },
        {
          "internalType": "uint256",
          "name": "optionId",
          "type": "uint256"
        },
        {
          "internalType": "bytes",
          "name": "claim",
          "type": "bytes"
        }
      ],
      "name": "requestP2PResolution",
      "outputs": [],
      "stateMutability": "nonpayable",
      "type": "function"
    },
    {
      "inputs": [
        {
          "internalType": "uint256",
          "name": "marketId",
          "type": "uint256"
        }
      ],
      "name": "resolveP2PMarket",
      "outputs": [],
      "stateMutability": "nonpayable",
      "type": "function"
    },
    {
      "inputs": [
        {
          "internalType": "uint256",
          "name": "marketId",
          "type": "uint256"
        }
      ],
      "name": "resolvePriceFeedMarket",
      "outputs": [],
      "stateMutability": "nonpayable",
      "type": "function"
    },
    {
      "inputs": [
        {
          "internalType": "address",
          "name": "_adminManager",
          "type": "address"
        }
      ],
      "name": "setAdminManager",
      "outputs": [],
      "stateMutability": "nonpayable",
      "type": "function"
    },
    {
      "inputs": [
        {
          "internalType": "uint256",
          "name": "_seconds",
          "type": "uint256"
        }
      ],
      "name": "setAssertionGracePeriod",
      "outputs": [],
      "stateMutability": "nonpayable",
      "type": "function"
    },
    {
      "inputs": [
        {
          "internalType": "address",
          "name": "_currency",
          "type": "address"
        }
      ],
      "name": "setDefaultBondCurrency",
      "outputs": [],
      "stateMutability": "nonpayable",
      "type": "function"
    },
    {
      "inputs": [
        {
          "internalType": "address",
          "name": "_oo",
          "type": "address"
        }
      ],
      "name": "setOptimisticOracle",
      "outputs": [],
      "stateMutability": "nonpayable",
      "type": "function"
    },
    {
      "inputs": [
        {
          "internalType": "uint256",
          "name": "marketId",
          "type": "uint256"
        }
      ],
      "name": "settleOracle",
      "outputs": [],
      "stateMutability": "nonpayable",
      "type": "function"
    },
    {
      "inputs": [
        {
          "internalType": "uint256",
          "name": "marketId",
          "type": "uint256"
        },
        {
          "internalType": "uint256",
          "name": "amount",
          "type": "uint256"
        }
      ],
      "name": "supportMarket",
      "outputs": [],
      "stateMutability": "payable",
      "type": "function"
    },
    {
      "inputs": [
        {
          "internalType": "address",
          "name": "newOwner",
          "type": "address"
        }
      ],
      "name": "transferOwnership",
      "outputs": [],
      "stateMutability": "nonpayable",
      "type": "function"
    },
    {
      "inputs": [],
      "name": "treasury",
      "outputs": [
        {
          "internalType": "address payable",
          "name": "",
          "type": "address"
        }
      ],
      "stateMutability": "view",
      "type": "function"
    },
    {
      "inputs": [
        {
          "internalType": "uint256",
          "name": "",
          "type": "uint256"
        },
        {
          "internalType": "address",
          "name": "",
          "type": "address"
        }
      ],
      "name": "userHasStaked",
      "outputs": [
        {
          "internalType": "bool",
          "name": "",
          "type": "bool"
        }
      ],
      "stateMutability": "view",
      "type": "function"
    },
    {
      "inputs": [
        {
          "internalType": "uint256",
          "name": "",
          "type": "uint256"
        },
        {
          "internalType": "address",
          "name": "",
          "type": "address"
        }
      ],
      "name": "userHasSupported",
      "outputs": [
        {
          "internalType": "bool",
          "name": "",
          "type": "bool"
        }
      ],
      "stateMutability": "view",
      "type": "function"
    },
    {
      "inputs": [
        {
          "internalType": "address",
          "name": "",
          "type": "address"
        },
        {
          "internalType": "uint256",
          "name": "",
          "type": "uint256"
        }
      ],
      "name": "userMarketHistory",
      "outputs": [
        {
          "internalType": "uint256",
          "name": "",
          "type": "uint256"
        }
      ],
      "stateMutability": "view",
      "type": "function"
    },
    {
      "inputs": [
        {
          "internalType": "uint256",
          "name": "",
          "type": "uint256"
        },
        {
          "internalType": "address",
          "name": "",
          "type": "address"
        }
      ],
      "name": "userStakeOptions",
      "outputs": [
        {
          "internalType": "uint256",
          "name": "",
          "type": "uint256"
        }
      ],
      "stateMutability": "view",
      "type": "function"
    },
    {
      "inputs": [
        {
          "internalType": "uint256",
          "name": "marketId",
          "type": "uint256"
        }
      ],
      "name": "withdrawSupport",
      "outputs": [],
      "stateMutability": "nonpayable",
      "type": "function"
    },
    {
      "stateMutability": "payable",
      "type": "receive"
    }
  ],
  "bytecode": "0x6080346200010657601f620059fb38819003918201601f19168301916001600160401b038311848410176200010b5780849260609460405283398101031262000106576200004d8162000121565b60208201516001600160a01b03808216939091849003620001065762000077604083920162000121565b9216918215620000ed576000549360018060a01b03199380858716176000558360405196167f8be0079c531659141344cd1fd0a4f28419497f9722a3daafe3b4186f6b6457e0600080a36202a300600155600160095583600c541617600c551690600d541617600d556158c49081620001378239f35b604051631e4fbdf760e01b815260006004820152602490fd5b600080fd5b634e487b7160e01b600052604160045260246000fd5b51906001600160a01b0382168203620001065756fe6101e080604052600436101561001e575b50361561001c57600080fd5b005b600090813560e01c9081630ccf446714614162575080630d64cdbd14614133578063157bdcce146140cf578063209c1c94146140a6578063223029221461407d578063256ba74114613fe8578063287f57b514613fa05780632ef1bdfa14613f7d578063304bf1f114613f345780633adfe6d014613f095780633e32a76c14613c82578063406ef2ef14613c645780634f44289d14613c1b578063539aa77f14613bfe578063569946c514613b2d5780635b7baf64146137d257806361d027b3146137a957806366cf7ed4146129ad578063677bd9ff146126e85780636d4476ec1461248e5780636f28507c146124715780636f59359e146123bf578063715018a6146123775780637c16cd9e1461229d5780637d54943314612280578063818ef5f61461221f578063847cf782146121db57806387a6b0ff146120ca5780638d0d180e14611d9c5780638da5cb5b14611d7557806393fcf24d14611d5757806398a1767114611d015780639a3a40d614611ac1578063a210b6a414611a98578063a30a091414611a6e578063a550725d14611a21578063b1283e771461180e578063bc160758146117c1578063bf5c325214611774578063bf5f984b1461151f578063c22c62c3146114ed578063c3436e0c146113d2578063cc3cbd2a146113b5578063d5f827071461136a578063d8c5dd6714611323578063dc4ce349146112d0578063e0bd4acc14611143578063eb44fdd314610ddf578063f00fe32114610d43578063f15cc40614610c0e578063f1b7dde314610a79578063f204072f14610665578063f2fde38b146105ef578063f486759114610448578063fb87f2c3146102af5763fe53a6e80361001057346102ac57806003193601126102ac576020600954604051908152f35b80fd5b50346102ac57602080600319360112610444576004359060018060a01b036102dc81600d541633146157d3565b6009548310156104125782845260028252604084205416156103de578183526002815260ff600c6040852001541660058110156103ca576004146103905760606000805160206158188339815191529183855260028152600c6040862001600460ff19825416179055838552600b815260ff604086205416610382575b6010604051918083528201526f2232b632ba32b210313c9030b236b4b760811b6040820152a280f35b61038b846156d9565b610359565b6064906040519062461bcd60e51b82526004820152601360248201527211540e88185b1c9958591e4819195b195d1959606a1b6044820152fd5b634e487b7160e01b84526021600452602484fd5b6064906040519062461bcd60e51b82526004820152600d60248201526c11540e881b9bc81b585c9ad95d609a1b6044820152fd5b60405162461bcd60e51b815260048101839052600a60248201526911540e8818985908125160b21b6044820152606490fd5b5080fd5b5061045236614418565b9060018060a01b0380600d5416906040518092634d9b423560e11b825284600483015281602460209586935afa80156105e45786906105aa575b6104979150156146d7565b828552600282526040852060ff600c820154166005811015610596576104bd9015614711565b600481019082825416610553579185916104fb60056105239585151580610545575b6104e89061474e565b6104f181615532565b015434101561478b565b610518888080803487600c54165af1610512614575565b506147c7565b54163490338661534d565b604051928352349083015260008051602061589883398151915260403393a380f35b5060038101548611156104df565b60405162461bcd60e51b815260048101859052601b60248201527a22a81d103ab9b290383630b1b2a9ba30b5b2abb4ba342a37b5b2b760291b6044820152606490fd5b634e487b7160e01b87526021600452602487fd5b508281813d83116105dd575b6105c08183614298565b810103126105d9576105d46104979161445a565b61048c565b8580fd5b503d6105b6565b6040513d88823e3d90fd5b50346102ac5760203660031901126102ac5761060961419f565b61061161442e565b6001600160a01b0390811690811561064c576000548260018060a01b031982161760005516600080516020615858833981519152600080a380f35b604051631e4fbdf760e01b815260048101849052602490fd5b5061066f36614418565b600d54604051632b5ba3b960e01b815233600482015260209493916024916001600160a01b039182169087818581855afa9081156108ad5791889185938991610a37575b506106be9015614467565b60405192838092634d9b423560e11b82528860048301525afa80156105e4578690610a01575b6106ef9150156146d7565b828552600286526040852060ff600c8201541660058110156109ee576107159015614711565b60098101544210156109b557841561097f576004019581875416801560001461091f57508434036108e9578596610759878080808a88600c54165af1610512614575565b848752600482526040872033600052825260ff60406000205416156108d0575b84875260048252604087203360005282526040600020600160ff198254161790558280600c541691541690803b156108cc578688916107d2938360405180968195829463c15d980760e01b84528d339060048601614849565b03925af19081156108ad5787916108b8575b505060048183600d54166040519283809263406ad64560e11b82525afa9182156108ad578792610880575b5050168061081b578480f35b803b1561087c578492836064926040519687958694638f46a5a160e01b86526004860152339085015260448401525af180156108715761085d575b8080808480f35b61086690614233565b6102ac578038610856565b6040513d84823e3d90fd5b8480fd5b61089f9250803d106108a6575b6108978183614298565b810190614871565b388061080f565b503d61088d565b6040513d89823e3d90fd5b6108c190614233565b6105d95785386107e4565b8780fd5b848752600782526108e4336040892061480e565b610779565b6064906010846040519262461bcd60e51b845260048401528201526f08aa074408aa89040dad2e6dac2e8c6d60831b6044820152fd5b963461093d5761093886889985600c5416903390614639565b610759565b60405162461bcd60e51b815260048101839052601b818601527a11540e881b9bc811551208199bdc881d1bdad95b881b585c9ad95d602a1b6044820152606490fd5b60405162461bcd60e51b815260048101889052600f818501526e11540e881e995c9bc8185b5bdd5b9d608a1b6044820152606490fd5b60405162461bcd60e51b8152600481018890526012818501527111540e881cdd5c1c1bdc9d0818db1bdcd95960721b6044820152606490fd5b634e487b7160e01b875260216004528387fd5b508681813d8311610a30575b610a178183614298565b810103126105d957610a2b6106ef9161445a565b6106e4565b503d610a0d565b92809294508391503d8311610a72575b610a518183614298565b81010312610a6e5783916106be610a688a9361445a565b906106b3565b8680fd5b503d610a47565b50346102ac5760603660031901126102ac576004356024359060443560018060a01b0380600d5416906040518092634d9b423560e11b825285600483015281602460209586935afa80156108ad578790610bd8575b610ad99150156146d7565b838652600282526040862060ff600c820154166005811015610bc457610aff9015614711565b600481019082825416908115610b8a57928792610b53878094610b46610b5c9888151580610b7c575b610b319061474e565b610b41600582015485101561478b565b615532565b84600c5416903390614639565b5416338761534d565b60405193845283015260008051602061589883398151915260403393a380f35b506003810154891115610b28565b60405162461bcd60e51b815260048101869052601260248201527145503a2075736520706c6163655374616b6560701b6044820152606490fd5b634e487b7160e01b88526021600452602488fd5b508281813d8311610c07575b610bee8183614298565b81010312610a6e57610c02610ad99161445a565b610ace565b503d610be4565b50346102ac5760403660031901126102ac57600435610c2b614189565b818352602091600283526040842060ff600c820154166005811015610d2f57610c6591610c5c6002600d9314614be2565b01541515614c21565b808452600383526040842060018060a01b03908184166000528452610c9160ff60406000205416614c5d565b600c54168360405180926307c7a72d60e01b82528180610cb5888860048401614c98565b03915afa948515610d23578095610ce4575b5050610cd7610cdc939415614cb1565b614d0c565b604051908152f35b9094508385813d8311610d1c575b610cfc8183614298565b810103126102ac5750610cd7610d15610cdc949561445a565b9493610cc7565b503d610cf2565b604051903d90823e3d90fd5b634e487b7160e01b86526021600452602486fd5b50346102ac5760403660031901126102ac57610d8c906020610d63614189565b60018060a01b03600c54166040518080968194633d1e7ba160e11b835260043560048401614c98565b03915afa908115610d235790610da8575b602090604051908152f35b506020813d8211610dd7575b81610dc160209383614298565b81010312610dd25760209051610d9d565b600080fd5b3d9150610db4565b50346102ac5760203660031901126102ac57806040916102c08351610e0381614246565b8281526060602082015282858201528260608201528260808201528260a08201528260c08201528260e08201528261010082015282610120820152826101408201528261016082015282610180820152826101a0820152826101c0820152826101e08201528261020082015282610220820152826102408201528261026082015282610280820152826102a08201520152600435815260026020522060405190610eac82614246565b80546001600160a01b03168252610ec560018201614310565b602083015260ff600282015416151560408301526003810154606083015260018060a01b036004820154166080830152600581015460a0830152600681015460c0830152600781015460e083015260088101546101008301526009810154610120830152600a810154610140830152600b81015461016083015260ff600c8201541690600582101561112d57601591610180840152600d8101546101a084015260ff600e8201541615156101c0840152600f8101546101e084015260108101546102008401526011810154610fa160ff8216610220860161451b565b60018060a01b039060081c166102408401526012810154610260840152601381015461028084015260ff60148201541615156102a084015201546102c082015260405180916020825260018060a01b0381511660208301526102c061101760208301516102e060408601526103008501906143d9565b916040810151151560608501526060810151608085015260018060a01b0360808201511660a085015260a081015160c085015260c081015160e085015260e08101516101008501526101008101516101208501526101208101516101408501526101408101516101608501526101608101516101808501526110a36101808201516101a08601906143fe565b6101a08101516101c08501526101c081015115156101e08501526101e08101516102008501526102008101516102208501526110e961022082015161024086019061440b565b60018060a01b03610240820151166102608501526102608101516102808501526102808101516102a08501526102a081015115158285015201516102e08301520390f35b634e487b7160e01b600052602160045260246000fd5b50346102ac57602080600319360112610444576004359061116f60018060a01b03600d541633146157d3565b8183526002815260ff600c6040852001541660058110156103ca57600080516020615818833981519152916111a8600260609314614be2565b83855260028152600060156040872087815587600182016111c981546142d6565b80611292575b5050600282015582600382015587600482015582600582015582600682015582600782015582600882015582600982015582600a82015582600b82015587600c82015582600d82015587600e82015582600f8201558260108201558760118201558260128201558260138201558760148201550155838552600b815260ff604086205416611284575b6013604051918083528201527214195c9b585b995b9d1b1e481c995b5bdd9959606a1b6040820152a280f35b61128d846156d9565b611258565b601f81116001146112ab5750849150555b8738806111cf565b9080869184526112c9601f898620940160051c840160018501614527565b55556112a3565b50346102ac5760603660031901126102ac57604435906001600160a01b038083168303610dd257610d8c92602091600c5416604051808096819463dc4ce34960e01b835260243560043560048501614ceb565b50346102ac5760403660031901126102ac57604061133f614189565b9160043581526005602052209060018060a01b03166000526020526020604060002054604051908152f35b50346102ac5761137936614418565b919081526006602052604081209081548310156102ac57602061139c848461421b565b905460405160039290921b1c6001600160a01b03168152f35b50346102ac57806003193601126102ac57602060405161015e8152f35b50346102ac5760203660031901126102ac5760043580825260026020526040822080546001600160a01b031633036114b65760ff600c8201541660058110156103ca579061142260099215614711565b015461a8bf1981019081116114a25742101561146e5760405161146b9161144882614262565b601182527010dc99585d1bdc8818d85b98d95b1b1959607a1b60208301526152bf565b80f35b60405162461bcd60e51b815260206004820152600c60248201526b45503a20746f6f206c61746560a01b6044820152606490fd5b634e487b7160e01b83526011600452602483fd5b60405162461bcd60e51b815260206004820152600f60248201526e22a81d103737ba1031b932b0ba37b960891b6044820152606490fd5b50346102ac576114fc36614418565b919081526007602052604081209081548310156102ac57602061139c848461421b565b50346102ac5761152e36614418565b90808352602090600282526040842060ff6011820154166002811015610d2f57600161155a9114614950565b61156a60ff601483015416614ba3565b61157b60ff600e8301541615614994565b6015810190815461173857600e546001600160a01b0390811661159f811515614a12565b81600f5416906115b0821515614a53565b8715158061172a575b156116f0579188918760249460405195868092634360af3d60e01b82528560048301525afa9384156116e55783946116b0575b5083611602601394956116129330903390614639565b82600f541683600e541690614ab6565b600e54169201918254813b156116ac57829160448392604051958693849263a6a22b4360e01b845260048401523360248401525af191821561169f578792611688575b50507f51bc042e638ad412f566e4dc9014de5071ce0c49cc314e1056d2d492f4fa6d9c925554926040519485523394a480f35b611693919250614233565b6105d957848638611655565b50604051903d90823e3d90fd5b8280fd5b935091508683813d81116116de575b6116c98183614298565b81010312610dd25791519188916116126115ec565b503d6116bf565b6040513d85823e3d90fd5b60405162461bcd60e51b815260048101889052601260248201527122a81d1034b73b30b634b21037b83a34b7b760711b6044820152606490fd5b5060038401548811156115b9565b60405162461bcd60e51b815260048101859052601460248201527311540e88185b1c9958591e48191a5cdc1d5d195960621b6044820152606490fd5b50346102ac5760203660031901126102ac5761178e61419f565b61179661442e565b6001600160a01b03166117aa811515615794565b600e80546001600160a01b03191691909117905580f35b50346102ac5760203660031901126102ac576117db61419f565b6117e361442e565b6001600160a01b03166117f7811515615794565b600d80546001600160a01b03191691909117905580f35b50346102ac5760203660031901126102ac57600435815260026020526040902061014081905280546001600160a01b03169061184c90600101614310565b6101005261014051600281015460ff1660a052600381015460c052600160a01b6001900360048201541660e0526005810154916006820154600783015460088401546009850154600a860154600b87015491600c88015460ff1693600d89015495600e8a015460ff1697600f8b01549960108c01549b60118101546101605260128101546101c052601381015461018052601481015460ff16608052601501546101a0526040518061012052526102e080610120516020015261012051016101005190611918916143d9565b9b60a0511515610120516040015260c051610120516060015260e05161012051608001526101205160a001526101205160c001526101205160e001526101205161010001526101205161012001526101205161014001526101205161016001526101205161018001611989916143fe565b610120516101a001521515610120516101c00152610120516101e0015261012051610200015261012051610220016101605160ff16906119c89161440b565b600160a01b600190036101605160081c166101205161024001526101c051610120516102600152610180516101205161028001526080511515610120516102a001526101a051610120516102c001526101205180910390f35b50346102ac5760203660031901126102ac57611a3b61419f565b611a4361442e565b6001600160a01b0316611a57811515615794565b600f80546001600160a01b03191691909117905580f35b50346102ac5760203660031901126102ac5760406020916004358152600783522054604051908152f35b50346102ac57806003193601126102ac57600d546040516001600160a01b039091168152602090f35b50346102ac576020806003193601126104445760043590818352600281526040832060118101549060ff82166002811015610d2f57611cc757600c810180549260ff84166005811015610bc4576001611b1a91146148bd565b600e830192835491611b2f60ff8416156148f9565b600b8201544210611c9257604051633fabe5a360e21b8152949392919060a0908690600490829060081c6001600160a01b03165afa948515611c87578995611c12575b50916002600080516020615838833981519152979492600f85601260609a99970154871015600014611c0b576001955b60ff600d83019716875560108201978855600160ff19809516179055019642885516179055611bd087614e84565b611bdb815488615638565b54928660008051602061587883398151915284604051878152a2549054916040519384528301526040820152a280f35b8395611ba2565b9693919594509160a0873d8211611c7f575b81611c3160a09383614298565b81010312611c7b576002606096600f89611c596000805160206158388339815191529b61493c565b50611c6a608089830151920161493c565b509798505092949750929092611b72565b8880fd5b3d9150611c24565b6040513d8b823e3d90fd5b60405162461bcd60e51b815260048101889052600d60248201526c45503a20746f6f206561726c7960981b6044820152606490fd5b60405162461bcd60e51b815260048101849052601260248201527111540e881b9bdd0814149250d157d191515160721b6044820152606490fd5b50346102ac5760403660031901126102ac57611d1b61419f565b6001600160a01b03168152600860205260408120805460243592908310156102ac576020611d49848461421b565b90546040519160031b1c8152f35b50346102ac57806003193601126102ac576020600154604051908152f35b50346102ac57806003193601126102ac57546040516001600160a01b039091168152602090f35b50346102ac5760603660031901126102ac5760443560043560248035906001600160401b038085116105d957366023860112156105d95784600401359081116105d957368282870101116105d95783865260209460028652604087209260ff60118501541660028110156120b7576001611e169114614950565b60ff600c8501541660058110156120b7576001611e3391146148bd565b611e4460ff600e8601541615614994565b6014840194611e5760ff875416156149cf565b84546001600160a01b0393908416331461207757878a526003895260408a2033600052895260ff604060002054161561203d578983918315158061202f575b611e9f9061474e565b85600e541695611eb0871515614a12565b8b81600f541697611ec2891515614a53565b60405197888092634360af3d60e01b82528b60048301525afa80156116e5578c9789978592611ff1575b5081611602611f749493611f039330903390614639565b604051958c89880152604087015260408652611f1e8661427d565b600e5416946084856040519a8b998a98899763abdc5dcd60e01b8952606060048a01528260648a0152018488013786838288010152601f80199101168501903390860152608085820301604486015201906143d9565b03925af19485156105e4578695611fc0575b5050601301839055805460ff191660011790557fc92f993487c6d961b60ff2a81386dff5cc620cd4aed9cddabe26500391655e828380a380f35b90809550813d8311611fea575b611fd78183614298565b8101031261087c57601393519338611f86565b503d611fcd565b945097809297508491503d8311612028575b61200d8183614298565b81010312610dd25790518a9587958d93929091611f03611eec565b503d612003565b506003880154841115611e96565b60405162461bcd60e51b8152600481018a90526013818501527245503a206d7573742068617665207374616b6560681b6044820152606490fd5b60405162461bcd60e51b8152600481018a90526019818501527811540e8818dc99585d1bdc8818d85b9b9bdd08185cdcd95c9d603a1b6044820152606490fd5b50634e487b7160e01b8852602160045287fd5b50346102ac5760203660031901126102ac5760043580825260026020526040822060ff60118201541660028110156103ca5760016121089114614950565b60ff600c8201541660058110156103ca576121479161212b6001600a93146148bd565b61213c60ff601483015416156149cf565b0154600154906144e9565b421061219c5760405161146b9161215d8261427d565b602782527f4e6f20617373657274696f6e206d61646520e2809420726566756e647320617660208301526661696c61626c6560c81b60408301526152bf565b60405162461bcd60e51b815260206004820152601760248201527645503a20677261636520706572696f642061637469766560481b6044820152606490fd5b50346102ac57610d8c9060206121f0366141b5565b600c5460405163423e7bc160e11b81529687946001600160a01b0390921693859384939091906004850161489d565b50346102ac5760203660031901126102ac5760043561223c61442e565b610e10811061224b5760015580f35b60405162461bcd60e51b815260206004820152600d60248201526c11540e881d1bdbc81cda1bdc9d609a1b6044820152606490fd5b50346102ac57806003193601126102ac5760206040516123be8152f35b50346102ac5760203660031901126102ac576004358082526002602052604082209060ff600c8301541660058110156103ca5760016122dc91146148bd565b600b8201544210612333576122fb60ff600e61146b94015416156148f9565b6040519061230882614262565b601982527814995cdbdb1d5d1a5bdb881c195c9a5bd908195e1c1a5c9959603a1b60208301526152bf565b60405162461bcd60e51b815260206004820152601c60248201527b45503a207265736f6c7574696f6e20706572696f642061637469766560201b6044820152606490fd5b50346102ac57806003193601126102ac5761239061442e565b600080546001600160a01b0319811682556001600160a01b03166000805160206158588339815191528280a380f35b50346102ac57602080600319360112610444576004358252600681526040822060405192838383549182815201908193835284832090835b818110612454575050508461240d910385614298565b60405193838594850191818652518092526040850193925b82811061243457505050500390f35b83516001600160a01b031685528695509381019392810192600101612425565b82546001600160a01b0316845292860192600192830192016123f7565b50346102ac57806003193601126102ac5760206040516103528152f35b50346102ac576020806003193601126104445760043590818352600281526040832060ff60118201541660028110156126d45760016124cd9114614950565b6124dd60ff601483015416614ba3565b600e8101908154926124f260ff851615614994565b600e54601383015460405163e39dfd7f60e01b8152600481018290529094918890829060249082906001600160a01b03165afa9485156126c9578891899661263b575b50877f01bcfc076833db7a342b2b4213f01d2341de157027e6a14cb082cc770513937c856040518515158152a31561261c57604084805181010312610a6e576000805160206158388339815191529460406060950151915b8215158061260e575b61259f9061474e565b600d8501928355886010860155600160ff198093161790556002600c600f86019542875501918254161790556125d486614e84565b6125df815487615638565b54918560008051602061587883398151915283604051868152a25490604051928352820152846040820152a280f35b506003850154831115612596565b606093506000805160206158388339815191529460158401549161258d565b915094503d8089833e61264e8183614298565b810190604081830312611c7b576126648161445a565b8482015190916001600160401b0382116126c1570182601f820112156126c557805161268f816142bb565b9361269d6040519586614298565b8185528682840101116126c1576126b9918680860191016143b6565b909438612535565b8a80fd5b8980fd5b6040513d8a823e3d90fd5b634e487b7160e01b85526021600452602485fd5b50346102ac57602090816003193601126102ac576004359182825260028152604082209260ff600c850154169360058510156103ca5761272b6002859614614be2565b61273a600d8201541515614c21565b818452600383526040842033600052835261275c60ff60406000205416614c5d565b600c546040516307c7a72d60e01b81526001600160a01b0391821690858180612789338960048401614c98565b0381855afa80156108ad578790612977575b6127a6915015614cb1565b60046127b23386614d0c565b9301908282541690803b156108cc578488916127e89383604051809681958294632f0041ed60e11b84528d339060048601614849565b03925af19081156108ad578791612963575b5050604051838152847f5380cf6fe903b40c6d5a9e0dfbca2f3a423f0a21520b4d5947ed5169bdba946d873393a360048583600d54166040519283809263406ad64560e11b82525afa80156108ad5783918891612946575b501694851515908161293c575b816128ce575b5061286e578580f35b541692803b1561087c57849283608492604051968795869463a2daa08760e01b86526004860152336024860152604485015260648401525af18015610871576128ba575b808080808580f35b6128c390614233565b6102ac5780386128b2565b825460405163ec88636160e01b8152908516600482015290915081816024818a5afa9182156126c9578892612906575b505038612865565b90809250813d8311612935575b61291d8183614298565b81010312610a6e5761292e9061445a565b38806128fe565b503d612913565b841515915061285f565b61295d9150873d89116108a6576108978183614298565b38612852565b61296c90614233565b6105d95785386127fa565b508581813d83116129a6575b61298d8183614298565b81010312610a6e576129a16127a69161445a565b61279b565b503d612983565b506101803660031901126102ac57600435906001600160401b0382116102ac57366023830112156102ac5781600401356129e6816142bb565b926129f46040519485614298565b81845236602483830101116116ac5781839260246020930183870137840101526024351515602435036102ac576064356001600160a01b0381169003610dd25760026101243510156102ac5761014435906001600160a01b0382168203610dd257600d54604051632b5ba3b960e01b81523360048201526001600160a01b0390911690602081602481855afa80156116e557839061376e575b612a98915015614467565b83511561373857600260443510158061372b575b156136f457608435156136bf5760a435156136885760c43515158061367a575b156136435761012435156135b5575b6040516317916e0160e01b8152602081600481855afa9081156116e5578391613583575b5060e4351061354b5760e4356101043510613509576024351561346f576064356001600160a01b03161561343257604051633462561360e11b81526064356001600160a01b0316600482015290602090829060249082905afa80156108715782906133f7575b612b6f91506144a5565b670de0b6b3a764000034106133c057603c60e4350260e4358104603c1460e43515171561325357612ba090426144e9565b9061010435603c610104350204603c14610104351517156133ac57612bcb603c6101043502426144e9565b610124356133945780915b60095494612be38661450c565b60095560405190612bf382614246565b33825287602083015260243515156040830152604435606083015260018060a01b0360643516608083015260843560a083015260a43560c083015260c43560e08301524261010083015285610120830152836101408301528461016083015282610180830152826101a0830152826101c0830152826101e083015282610200830152612c8661012435610220840161451b565b6001600160a01b039081166102408301526101643561026083015261028082018390526102a082018390526102c082018390528683526002602090815260408420835181546001600160a01b03191693169290921782558201518051919291906001600160401b038211613380578190612d0360018601546142d6565b601f8111613342575b50602090601f83116001146132d35786926132c8575b50508160011b916000199060031b1c19161760018301555b612d4d604082015115156002840161453e565b606081015160038301556004820160018060a01b0360808301511660018060a01b031982541617905560a0810151600583015560c0810151600683015560e0810151600783015561010081015160088301556101208101516009830155610140810151600a830155610160810151600b83015561018081015160058110156103ca5760ff8019600c85015416911617600c8301556101a0810151600d830155612e006101c08201511515600e840161453e565b6101e0810151600f83015561020081015160108301556011820161022082015160028110156126d4578154610240840151610100600160a81b0360089190911b1660ff929092166001600160a81b031990911617179055610260810151601283015561028081015160138301556102a08101516015916102c091612e899015156014860161453e565b0151910155600a54600160401b8110156132b257612ec8612eb1826001899401600a556141ea565b819391549060031b91821b91600019901b19161790565b9055848152600b60205260408120805460ff191660011790556064356001600160a01b03166132675760a435670de0b6b3a76400000180670de0b6b3a76400001161325357341061321657612f3d81808080670de0b6b3a764000060018060a01b038254165af1612f37614575565b506145a5565b8080808060a43560018060a01b03600c54165af1612f59614575565b50156131d7575b848152600360205260408120336000526020526040600020600160ff198254161790558481526005602052604081203360005260205260c4356040600020553381526008602052612fb4856040832061454f565b600c546001600160a01b0316803b15610444578160405180926395f4109560e01b8252818381612ff460c4358d60a43590606435903390600487016145e7565b03925af18015610871579082916131c3575b5050600d5460405163406ad64560e11b815290602090829060049082906001600160a01b03165afa9081156108715782916131a4575b506001600160a01b0381166130de575b505060209484927f5d0726a1bb5ec8c87527e69ba86d988202e885fad8f2b4aacd618793d6f297b29261308c6040519361012085526101208501906143d9565b6024351515848a015260443560408501526064356001600160a01b0316606085015260843560808501524260a085015260c084019690965260e0830152610100820152339381900390a3604051908152f35b6001600160a01b0381163b156104445760405163782a780560e11b815282818061310c338b60048401614c98565b0381836001600160a01b0387165af180156116e557908391613190575b50506001600160a01b0381163b156104445760405163c228038d60e01b8152908290829081838161316460a43560c435338f60048601615329565b03926001600160a01b03165af18015610871571561304c576131868291614233565b6102ac578061304c565b61319990614233565b610444578138613129565b6131bd915060203d6020116108a6576108978183614298565b3861303c565b6131cc90614233565b6102ac578038613006565b60405162461bcd60e51b815260206004820152601760248201527611540e8819195c1bdcda5d081cd95b990819985a5b1959604a1b6044820152606490fd5b60405162461bcd60e51b815260206004820152601560248201527445503a20696e73756666696369656e74205045505560581b6044820152606490fd5b634e487b7160e01b82526011600452602482fd5b61328b81808080670de0b6b3a764000060018060a01b038254165af1612f37614575565b600c546132ad9060a435906001600160a01b0390811690339060643516614639565b612f60565b634e487b7160e01b600052604160045260246000fd5b015190503880612d22565b9250600185018652602086209086935b601f1984168510613327576001945083601f1981161061330e575b505050811b016001830155612d3a565b015160001960f88460031b161c191690553880806132fe565b818101518355602094850194600190930192909101906132e3565b6133709060018701885260208820601f850160051c81019160208610613376575b601f0160051c0190614527565b38612d0c565b9091508190613363565b634e487b7160e01b85526041600452602485fd5b6201a5e081018111613253576201a5e0810191612bd6565b634e487b7160e01b81526011600452602490fd5b60405162461bcd60e51b815260206004820152600f60248201526e45503a2066656520746f6f206c6f7760881b6044820152606490fd5b506020813d60201161342a575b8161341160209383614298565b8101031261044457613425612b6f9161445a565b612b65565b3d9150613404565b60405162461bcd60e51b815260206004820152601560248201527422a81d1036bab63a34903732b2b239903a37b5b2b760591b6044820152606490fd5b6064356001600160a01b0316613486575b50612b6f565b604051633462561360e11b81526064356001600160a01b0316600482015290602090829060249082905afa80156108715782906134ce575b6134c891506144a5565b38613480565b506020813d602011613501575b816134e860209383614298565b81010312610444576134fc6134c89161445a565b6134be565b3d91506134db565b60405162461bcd60e51b815260206004820152601a60248201527945503a207265736f6c7574696f6e206166746572207374616b6560301b6044820152606490fd5b60405162461bcd60e51b815260206004820152601060248201526f22a81d1036b4b710323ab930ba34b7b760811b6044820152606490fd5b90506020813d6020116135ad575b8161359e60209383614298565b81010312610dd2575138612aff565b3d9150613591565b6001600160a01b0383161561360a5761016435612adb5760405162461bcd60e51b815260206004820152601660248201527511540e881d1a1c995cda1bdb19081c995c5d5a5c995960521b6044820152606490fd5b60405162461bcd60e51b815260206004820152601160248201527011540e8819995959081c995c5d5a5c9959607a1b6044820152606490fd5b60405162461bcd60e51b815260206004820152600f60248201526e45503a20626164206f7574636f6d6560881b6044820152606490fd5b5060443560c4351115612acc565b60405162461bcd60e51b815260206004820152600f60248201526e11540e881898590819195c1bdcda5d608a1b6044820152606490fd5b60405162461bcd60e51b815260206004820152600d60248201526c45503a20626164207374616b6560981b6044820152606490fd5b60405162461bcd60e51b815260206004820152600f60248201526e45503a20626164206f7074696f6e7360881b6044820152606490fd5b50600a6044351115612aac565b60405162461bcd60e51b815260206004820152600e60248201526d08aa07440cadae0e8f240d0c2e6d60931b6044820152606490fd5b506020813d6020116137a1575b8161378860209383614298565b810103126116ac5761379c612a989161445a565b612a8d565b3d915061377b565b50346102ac57806003193601126102ac57600c546040516001600160a01b039091168152602090f35b50346102ac576020806003193601126104445760043580835260028252604083209160ff600c8401541660058110156126d457600303613af557818452600381526040842033600052815260ff604060002054168015613ad5575b15613a99578392828552600382526040852033600052825260ff604060002054166139f3575b828552600482526040852033600052825260ff6040600020541661394b575b831561391457600c5460049091015485916001600160a01b039182169116803b156116ac578583916138bd938360405180968195829463164fcd7d60e21b8452338d60048601614849565b03925af18015610871576138fc575b50507ff3f402280ef0a7905e124aa621b65eaeb2725c343e8b36d398ed78c29daf285c906040519384523393a380f35b61390590614233565b6139105783386138cc565b8380fd5b60405162461bcd60e51b815260048101839052600f60248201526e11540e881e995c9bc81c99599d5b99608a1b6044820152606490fd5b92613982908260018060a01b0380600c54169060048801541690604051808096819463256ba74160e01b8352338b6004850161489d565b03915afa9081156105e45786916139c2575b61399e92506144e9565b928285526004825260408520336000528252604060002060ff198154169055613872565b90508282813d83116139ec575b6139d98183614298565b81010312610dd25761399e915190613994565b503d6139cf565b9250613a2a8160018060a01b0380600c54169060048701541690604051808095819463423e7bc160e11b8352338a6004850161489d565b03915afa908115613a8e578591613a61575b50928285526003825260408520336000528252604060002060ff198154169055613853565b90508181813d8311613a87575b613a788183614298565b81010312610dd2575138613a3c565b503d613a6e565b6040513d87823e3d90fd5b6064906040519062461bcd60e51b82526004820152601560248201527411540e881b9bdd1a1a5b99c81d1bc81c99599d5b99605a1b6044820152fd5b50818452600481526040842033600052815260ff6040600020541661382d565b6064906040519062461bcd60e51b82526004820152601160248201527011540e881b9bdd0818d85b98d95b1b1959607a1b6044820152fd5b50346102ac5760203660031901126102ac5760043580825260026020526040822060ff60118201541660028110156103ca576001613b6b9114614950565b613b7b60ff601483015416614ba3565b82601360018060a01b03600e54169201918254813b156116ac578291602483926040519485938492634124beef60e01b845260048401525af1801561087157613bea575b505054907f049c1c3eca1ffdb1b59f7205ce06f2461ace420050f9ad1b4b6b55f4a0f2e5268380a380f35b613bf390614233565b6116ac578238613bbf565b50346102ac57806003193601126102ac5760206040516101f48152f35b50346102ac5760403660031901126102ac57610d8c906020613c3b614189565b60018060a01b03600c54166040518080968194634f44289d60e01b835260043560048401614c98565b50346102ac57806003193601126102ac576020600954604051908152f35b50346102ac576020806003193601126104445760043580835260028252604083206004835260408420338552835260ff60408520541615613ed35760ff600c8201541660058110156126d45780613e785750600981015461a8bf198101908111613e6457421015613e24575b60018060a01b03600481600c541692015416906040519063256ba74160e01b8252848280613d218633896004850161489d565b0381845afa9182156105e4578692613df5575b508115613db657908186923b156116ac57613d6893836040518096819582946317be0b2f60e11b8452338b60048601614849565b03925af18015613dab57613d98575b5082526004815260408220903360005252604060002060ff19815416905580f35b613da490939193614233565b9138613d77565b6040513d86823e3d90fd5b60405162461bcd60e51b815260048101869052601760248201527645503a206e6f7468696e6720746f20776974686472617760481b6044820152606490fd5b9091508481813d8311613e1d575b613e0d8183614298565b810103126105d957519038613d34565b503d613e03565b60405162461bcd60e51b815260048101849052601860248201527745503a20746f6f206c61746520746f20776974686472617760401b6044820152606490fd5b634e487b7160e01b85526011600452602485fd5b60048114908115613ec8575b50613cee5760405162461bcd60e51b815260048101849052601760248201527645503a2063616e6e6f74207769746864726177206e6f7760481b6044820152606490fd5b600391501438613e84565b60405162461bcd60e51b815260048101849052600e60248201526d11540e881b9bc81cdd5c1c1bdc9d60921b6044820152606490fd5b50346102ac5760203660031901126102ac5760043590600a548210156102ac576020611d49836141ea565b50346102ac5760403660031901126102ac5760ff6040602092613f55614189565b6004358252600385528282206001600160a01b03909116825284522054604051911615158152f35b50346102ac57806003193601126102ac576020604051670de0b6b3a76400008152f35b50346102ac5760403660031901126102ac5760ff6040602092613fc1614189565b60048035835285528282206001600160a01b03909116825284522054604051911615158152f35b50346102ac5761402b6020613ffc366141b5565b600c5460405163256ba74160e01b81529586946001600160a01b0390921693859384939091906004850161489d565b03915afa908115610871578291614048575b602082604051908152f35b90506020813d8211614075575b8161406260209383614298565b810103126104445760209150513861403d565b3d9150614055565b50346102ac57806003193601126102ac57600e546040516001600160a01b039091168152602090f35b50346102ac57806003193601126102ac57600f546040516001600160a01b039091168152602090f35b50346102ac5760203660031901126102ac576004359081815260026020526040812091600c830180549360ff851660058110156126d45794614127600a60019361411d61146b989915614711565b01544210156148bd565b60ff19161790556156d9565b50346102ac5760203660031901126102ac5760ff60406020926004358152600b84522054166040519015158152f35b90503461044457602036600319011261044457604060209260043581526006845220548152f35b602435906001600160a01b0382168203610dd257565b600435906001600160a01b0382168203610dd257565b6060906003190112610dd257600435906001600160a01b03906024358281168103610dd257916044359081168103610dd25790565b600a5481101561420557600a60005260206000200190600090565b634e487b7160e01b600052603260045260246000fd5b80548210156142055760005260206000200190600090565b6001600160401b0381116132b257604052565b6102e081019081106001600160401b038211176132b257604052565b604081019081106001600160401b038211176132b257604052565b606081019081106001600160401b038211176132b257604052565b601f909101601f19168101906001600160401b038211908210176132b257604052565b6001600160401b0381116132b257601f01601f191660200190565b90600182811c92168015614306575b60208310146142f057565b634e487b7160e01b600052602260045260246000fd5b91607f16916142e5565b9060405191826000825492614324846142d6565b9081845260019485811690816000146143935750600114614350575b505061434e92500383614298565b565b9093915060005260209081600020936000915b81831061437b57505061434e93508201013880614340565b85548884018501529485019487945091830191614363565b91505061434e94506020925060ff191682840152151560051b8201013880614340565b60005b8381106143c95750506000910152565b81810151838201526020016143b9565b906020916143f2815180928185528580860191016143b6565b601f01601f1916010190565b90600582101561112d5752565b90600282101561112d5752565b6040906003190112610dd2576004359060243590565b6000546001600160a01b0316330361444257565b60405163118cdaa760e01b8152336004820152602490fd5b51908115158203610dd257565b1561446e57565b60405162461bcd60e51b815260206004820152600f60248201526e11540e88189b1858dadb1a5cdd1959608a1b6044820152606490fd5b156144ac57565b60405162461bcd60e51b815260206004820152601560248201527422a81d103ab739bab83837b93a32b2103a37b5b2b760591b6044820152606490fd5b919082018092116144f657565b634e487b7160e01b600052601160045260246000fd5b60001981146144f65760010190565b600282101561112d5752565b818110614532575050565b60008155600101614527565b9060ff801983541691151516179055565b805490600160401b8210156132b25781612eb19160016145719401815561421b565b9055565b3d156145a0573d90614586826142bb565b916145946040519384614298565b82523d6000602084013e565b606090565b156145ac57565b60405162461bcd60e51b815260206004820152601360248201527211540e88199959481cd95b990819985a5b1959606a1b6044820152606490fd5b9081526001600160a01b039182166020820152911660408201526060810191909152608081019190915260a00190565b6001600160a01b03918216815291166020820152604081019190915260600190565b9061466f9061466161434e956040519586936323b872dd60e01b602086015260248501614617565b03601f198101845283614298565b906000602091828151910182855af1156146cb576000513d6146c257506001600160a01b0381163b155b6146a05750565b604051635274afe760e01b81526001600160a01b039091166004820152602490fd5b60011415614699565b6040513d6000823e3d90fd5b156146de57565b60405162461bcd60e51b815260206004820152600b60248201526a11540e8819195b195d195960aa1b6044820152606490fd5b1561471857565b60405162461bcd60e51b815260206004820152600e60248201526d45503a206e6f742061637469766560901b6044820152606490fd5b1561475557565b60405162461bcd60e51b815260206004820152600e60248201526d22a81d103130b21037b83a34b7b760911b6044820152606490fd5b1561479257565b60405162461bcd60e51b815260206004820152600d60248201526c22a81d103132b637bb9036b4b760991b6044820152606490fd5b156147ce57565b60405162461bcd60e51b815260206004820152601860248201527711540e881d1c99585cdd5c9e481cd95b990819985a5b195960421b6044820152606490fd5b8054600160401b8110156132b25761482b9160018201815561421b565b819291549060031b9160018060a01b03809116831b921b1916179055565b9081526001600160a01b03918216602082015291166040820152606081019190915260800190565b90816020910312610dd257516001600160a01b0381168103610dd25790565b919082039182116144f657565b9081526001600160a01b0391821660208201529116604082015260600190565b156148c457565b60405162461bcd60e51b815260206004820152600d60248201526c11540e881b9bdd08195b991959609a1b6044820152606490fd5b1561490057565b60405162461bcd60e51b815260206004820152601460248201527311540e88185b1c9958591e481c995cdbdb1d995960621b6044820152606490fd5b51906001600160501b0382168203610dd257565b1561495757565b60405162461bcd60e51b815260206004820152601560248201527445503a206e6f74205032504f5054494d495354494360581b6044820152606490fd5b1561499b57565b60405162461bcd60e51b815260206004820152600c60248201526b11540e881c995cdbdb1d995960a21b6044820152606490fd5b156149d657565b60405162461bcd60e51b815260206004820152601460248201527345503a20617373657274696f6e2065786973747360601b6044820152606490fd5b15614a1957565b60405162461bcd60e51b815260206004820152601260248201527111540e881bdc9858db19481b9bdd081cd95d60721b6044820152606490fd5b15614a5a57565b60405162461bcd60e51b815260206004820152601960248201527811540e88189bdb990818dd5c9c995b98de481b9bdd081cd95d603a1b6044820152606490fd5b6001600160a01b039091168152602081019190915260400190565b929192604051916020830190614aed84614adf63095ea7b360e01b988986528460248401614a9b565b03601f198101865285614298565b60206000809386519082875af182513d82614b7e575b505015614b13575b505050509050565b60405160208101969096526001600160a01b031660248601526044808601829052855260808501906001600160401b03821186831017614b6a5750614b60939461466f916040528261466f565b8038808080614b0b565b634e487b7160e01b81526041600452602490fd5b909150614b9b57506001600160a01b0383163b15155b3880614b03565b600114614b94565b15614baa57565b60405162461bcd60e51b815260206004820152601060248201526f22a81d1037379030b9b9b2b93a34b7b760811b6044820152606490fd5b15614be957565b60405162461bcd60e51b815260206004820152601060248201526f11540e881b9bdd081c995cdbdb1d995960821b6044820152606490fd5b15614c2857565b60405162461bcd60e51b815260206004820152600d60248201526c22a81d103737903bb4b73732b960991b6044820152606490fd5b15614c6457565b60405162461bcd60e51b815260206004820152600c60248201526b45503a206e6f207374616b6560a01b6044820152606490fd5b9081526001600160a01b03909116602082015260400190565b15614cb857565b60405162461bcd60e51b815260206004820152600b60248201526a11540e8818db185a5b595960aa1b6044820152606490fd5b90815260208101919091526001600160a01b03909116604082015260600190565b919091600092818452602091600283526040928386209360018060a01b039384600c541692856004880154169583519663423e7bc160e11b8852828880614d5884888c6004850161489d565b0381895afa978815614e7a578b98614e4b575b508290600d614d94999a015496865180809b819463dc4ce34960e01b83528b8d60048501614ceb565b03915afa968715614e41578a97614e12575b50614db08661514b565b958a5260058252838a20921689525286205403614e0d578115614e0d578015614e06576123be80820291820403613e64576127109004808302908382041483151715613e6457614e0393945004906144e9565b90565b5090925050565b505050565b9096508181813d8311614e3a575b614e2a8183614298565b810103126126c557519538614da6565b503d614e20565b84513d8c823e3d90fd5b9097508281813d8311614e73575b614e638183614298565b810103126126c157519682614d6b565b503d614e59565b85513d8d823e3d90fd5b60009080825260026020526040908183209060018060a01b039182600c5416600d82015490600492614ed58482019560208888541680968b51948592839263dc4ce34960e01b8452868c8501614ceb565b0381875afa918215615141578a9261510c575b50614ef29061514b565b9283156151005761015e84029461015d19858704016150ed57612710809604956101f480870290878204036150da5704926150245750505082614fb5575b5090614f3b91614890565b9283614f4a575b505050505050565b80600c541692541690823b156105d95791849391868094614f7e97519788958694859363f0824f3360e01b85528401614a9b565b03925af1908115614fac5750614f98575b80808080614f42565b614fa28291614233565b6102ac5780614f8f565b513d84823e3d90fd5b8580600c54169154168686541690823b156126c557614fee928a928387938c519687958694859363112cd22360e01b85528d8501614617565b03925af1801561501a57908891615006575b50614f30565b61500f90614233565b610a6e578638615000565b87513d8a823e3d90fd5b919794935091849084615078575b50505050508361504457505050505050565b80600c541692541690823b156105d95791849391868094614f7e9751978895869485936348fef59560e01b85528401614a9b565b5416823b156126c557916150a593918a80948b519687958694859363112cd22360e01b85528c8501614617565b03925af180156150d0576150bd575b80808381615032565b6150c990969196614233565b94386150b4565b86513d89823e3d90fd5b634e487b7160e01b8d526011895260248dfd5b634e487b7160e01b8b526011875260248bfd5b50505050505050505050565b9091506020813d8211615139575b8161512760209383614298565b810103126126c5575190614ef2614ee8565b3d915061511a565b89513d8c823e3d90fd5b90600091808352602090600282526040918285209185926001600382015490600d830154905b82811115615211575050509180916151b19360018060a01b03600481600c541692015416918751809681948293634f44289d60e01b845260048401614c98565b03915afa938415615208575085936151d1575b5050614e039293506144e9565b9080929350813d8311615201575b6151e98183614298565b8101031261391057614e0392935051908392386151c4565b503d6151df565b513d87823e3d90fd5b818103615227575b6152229061450c565b615171565b9587868860018060a01b038881600c54169161525e600491828c01541696519687958694859463dc4ce34960e01b86528501614ceb565b03915afa9081156152b5578b91615286575b5061527e90615222926144e9565b969050615219565b90508681813d83116152ae575b61529d8183614298565b810103126126c15751615222615270565b503d615293565b89513d8d823e3d90fd5b9061531660008051602061581883398151915291836000526002602052600c604060002001600360ff19825416179055600b60205260ff6040600020541661531b575b6040519182916020835260208301906143d9565b0390a2565b615324846156d9565b615302565b909493926060926080830196835260018060a01b0316602083015260408201520152565b939093600094818652602093600385526040948588209160018060a01b039283851690818b52835260ff888b205416156154c6575b858a5260038352878a20818b528352878a20600160ff19825416179055858a5260058352878a20908a52825285878a205582600c5416803b156126c55788918a918683896153e68c8e51988997889687956395f4109560e01b8752600487016145e7565b03925af180156154a9576154b3575b5060048183600d541688519283809263406ad64560e11b82525afa9182156154a957899261548c575b5050169182615431575b50505050505050565b823b15610a6e5790868094939261545d87519889968795869463c228038d60e01b865260048601615329565b03925af1908115614fac5750615478575b8080808080615428565b6154828291614233565b6102ac578061546e565b6154a29250803d106108a6576108978183614298565b388061541e565b87513d8b823e3d90fd5b6154bf90989198614233565b96386153f5565b858a52600683526154d985898c2061480e565b808a52600883526154ec86898c2061454f565b615382565b156154f857565b60405162461bcd60e51b815260206004820152601260248201527111540e881cdd185ada5b99c818db1bdcd95960721b6044820152606490fd5b600d5460405163111a798960e31b8152602092916001600160a01b0316908381600481855afa9081156146cb57600091615603575b50156155f2578260049160405192838092632eaa712b60e21b82525afa9283156146cb576000936155c0575b505060090154603c820291808304603c14901517156144f65761434e916155b991614890565b42106154f1565b8181949293943d83116155eb575b6155d88183614298565b810103126102ac57505190600938615593565b503d6155ce565b5061434e91506009015442106154f1565b908482813d8311615631575b6156198183614298565b810103126102ac575061562b9061445a565b38615567565b503d61560f565b600d5460405163406ad64560e11b81526001600160a01b03916020908290600490829086165afa9081156146cb576000916156bb575b5016918261567b57505050565b823b15610dd257604460009283604051958694859362ff4a7360e81b8552600485015260248401525af180156146cb576156b25750565b61434e90614233565b6156d3915060203d81116108a6576108978183614298565b3861566e565b60005b600a908154918282101561578e5783926156f5836141ea565b949054600395861b1c1461571457505061570f915061450c565b6156dc565b9091600019918281019081116144f657612eb161573361573f926141ea565b905490871b1c926141ea565b90558154801561577857810192615755846141ea565b81939154921b1b1916905555600052600b602052604060002060ff198154169055565b634e487b7160e01b600052603160045260246000fd5b50505050565b1561579b57565b60405162461bcd60e51b815260206004820152601060248201526f45503a207a65726f206164647265737360801b6044820152606490fd5b156157da57565b60405162461bcd60e51b815260206004820152601560248201527422a81d1037b7363c9020b236b4b726b0b730b3b2b960591b6044820152606490fdfe4c4561c5b0048424071c1115e9f1e325486e21c21333d968f21097b7b72d12ad08afae4e86110ea235d8bcdfcf9e4ce28970591d583838c26cfa08286a38d1b18be0079c531659141344cd1fd0a4f28419497f9722a3daafe3b4186f6b6457e06dfc24f0f2fb42e49fb4fa3ffa8abb148cab908a1fb8335b3f128a08b2594af1e10fdde2c5cd9b92e449ee25df01febda2cbebc5553e38f2250ffe7f2d5143bca164736f6c6343000814000a",
  "linkReferences": {},
  "deployedLinkReferences": {}
}