{
  "_format": "hh-sol-artifact-1",
  "contractName": "P2PMarketManager",
  "sourceName": "contracts/P2PMarketManager.sol",
  "abi": [
    {
      "inputs": [
        {
          "internalType": "address",
          "name": "initialOwner",
          "type": "address"
        },
        {
          "internalType": "address payable",
          "name": "_treasury",
          "type": "address"
        },
        {
          "internalType": "address",
          "name": "_adminManager",
          "type": "address"
        }
      ],
      "stateMutability": "nonpayable",
      "type": "constructor"
    },
    {
      "inputs": [
        {
          "internalType": "address",
          "name": "owner",
          "type": "address"
        }
      ],
      "name": "OwnableInvalidOwner",
      "type": "error"
    },
    {
      "inputs": [
        {
          "internalType": "address",
          "name": "account",
          "type": "address"
        }
      ],
      "name": "OwnableUnauthorizedAccount",
      "type": "error"
    },
    {
      "inputs": [
        {
          "internalType": "address",
          "name": "token",
          "type": "address"
        }
      ],
      "name": "SafeERC20FailedOperation",
      "type": "error"
    },
    {
      "anonymous": false,
      "inputs": [
        {
          "indexed": true,
          "internalType": "uint256",
          "name": "marketId",
          "type": "uint256"
        },
        {
          "indexed": false,
          "internalType": "string",
          "name": "reason",
          "type": "string"
        }
      ],
      "name": "MarketCancelled",
      "type": "event"
    },
    {
      "anonymous": false,
      "inputs": [
        {
          "indexed": true,
          "internalType": "uint256",
          "name": "marketId",
          "type": "uint256"
        },
        {
          "indexed": true,
          "internalType": "address",
          "name": "creator",
          "type": "address"
        },
        {
          "indexed": false,
          "internalType": "string",
          "name": "ipfsHash",
          "type": "string"
        },
        {
          "indexed": false,
          "internalType": "bool",
          "name": "isMultiOption",
          "type": "bool"
        },
        {
          "indexed": false,
          "internalType": "uint256",
          "name": "maxOptions",
          "type": "uint256"
        },
        {
          "indexed": false,
          "internalType": "address",
          "name": "paymentToken",
          "type": "address"
        },
        {
          "indexed": false,
          "internalType": "uint256",
          "name": "minStake",
          "type": "uint256"
        },
        {
          "indexed": false,
          "internalType": "uint256",
          "name": "startTime",
          "type": "uint256"
        },
        {
          "indexed": false,
          "internalType": "uint256",
          "name": "stakeEndTime",
          "type": "uint256"
        },
        {
          "indexed": false,
          "internalType": "uint256",
          "name": "endTime",
          "type": "uint256"
        },
        {
          "indexed": false,
          "internalType": "uint256",
          "name": "resolutionEndTime",
          "type": "uint256"
        }
      ],
      "name": "MarketCreated",
      "type": "event"
    },
    {
      "anonymous": false,
      "inputs": [
        {
          "indexed": true,
          "internalType": "uint256",
          "name": "marketId",
          "type": "uint256"
        },
        {
          "indexed": false,
          "internalType": "uint256",
          "name": "winningOption",
          "type": "uint256"
        }
      ],
      "name": "MarketResolved",
      "type": "event"
    },
    {
      "anonymous": false,
      "inputs": [
        {
          "indexed": true,
          "internalType": "uint256",
          "name": "marketId",
          "type": "uint256"
        },
        {
          "indexed": true,
          "internalType": "bytes32",
          "name": "assertionId",
          "type": "bytes32"
        },
        {
          "indexed": true,
          "internalType": "address",
          "name": "disputer",
          "type": "address"
        }
      ],
      "name": "OracleDisputed",
      "type": "event"
    },
    {
      "anonymous": false,
      "inputs": [
        {
          "indexed": true,
          "internalType": "uint256",
          "name": "marketId",
          "type": "uint256"
        },
        {
          "indexed": true,
          "internalType": "bytes32",
          "name": "assertionId",
          "type": "bytes32"
        },
        {
          "indexed": false,
          "internalType": "bool",
          "name": "accepted",
          "type": "bool"
        }
      ],
      "name": "OracleResultProcessed",
      "type": "event"
    },
    {
      "anonymous": false,
      "inputs": [
        {
          "indexed": true,
          "internalType": "uint256",
          "name": "marketId",
          "type": "uint256"
        },
        {
          "indexed": true,
          "internalType": "bytes32",
          "name": "assertionId",
          "type": "bytes32"
        }
      ],
      "name": "OracleSettled",
      "type": "event"
    },
    {
      "anonymous": false,
      "inputs": [
        {
          "indexed": true,
          "internalType": "address",
          "name": "previousOwner",
          "type": "address"
        },
        {
          "indexed": true,
          "internalType": "address",
          "name": "newOwner",
          "type": "address"
        }
      ],
      "name": "OwnershipTransferred",
      "type": "event"
    },
    {
      "anonymous": false,
      "inputs": [
        {
          "indexed": true,
          "internalType": "uint256",
          "name": "marketId",
          "type": "uint256"
        },
        {
          "indexed": true,
          "internalType": "address",
          "name": "user",
          "type": "address"
        },
        {
          "indexed": false,
          "internalType": "uint256",
          "name": "amount",
          "type": "uint256"
        }
      ],
      "name": "RefundClaimed",
      "type": "event"
    },
    {
      "anonymous": false,
      "inputs": [
        {
          "indexed": true,
          "internalType": "uint256",
          "name": "marketId",
          "type": "uint256"
        },
        {
          "indexed": true,
          "internalType": "bytes32",
          "name": "assertionId",
          "type": "bytes32"
        }
      ],
      "name": "ResolutionRequested",
      "type": "event"
    },
    {
      "anonymous": false,
      "inputs": [
        {
          "indexed": true,
          "internalType": "uint256",
          "name": "marketId",
          "type": "uint256"
        },
        {
          "indexed": true,
          "internalType": "address",
          "name": "user",
          "type": "address"
        },
        {
          "indexed": false,
          "internalType": "uint256",
          "name": "option",
          "type": "uint256"
        },
        {
          "indexed": false,
          "internalType": "uint256",
          "name": "amount",
          "type": "uint256"
        }
      ],
      "name": "StakePlaced",
      "type": "event"
    },
    {
      "anonymous": false,
      "inputs": [
        {
          "indexed": true,
          "internalType": "uint256",
          "name": "marketId",
          "type": "uint256"
        },
        {
          "indexed": true,
          "internalType": "address",
          "name": "user",
          "type": "address"
        },
        {
          "indexed": false,
          "internalType": "uint256",
          "name": "amount",
          "type": "uint256"
        }
      ],
      "name": "WinningsClaimed",
      "type": "event"
    },
    {
      "inputs": [],
      "name": "CREATOR_FEE_BPS",
      "outputs": [
        {
          "internalType": "uint256",
          "name": "",
          "type": "uint256"
        }
      ],
      "stateMutability": "view",
      "type": "function"
    },
    {
      "inputs": [],
      "name": "PLATFORM_FEE_BPS",
      "outputs": [
        {
          "internalType": "uint256",
          "name": "",
          "type": "uint256"
        }
      ],
      "stateMutability": "view",
      "type": "function"
    },
    {
      "inputs": [
        {
          "internalType": "uint256",
          "name": "",
          "type": "uint256"
        }
      ],
      "name": "activeMarkets",
      "outputs": [
        {
          "internalType": "uint256",
          "name": "",
          "type": "uint256"
        }
      ],
      "stateMutability": "view",
      "type": "function"
    },
    {
      "inputs": [],
      "name": "adminManager",
      "outputs": [
        {
          "internalType": "address",
          "name": "",
          "type": "address"
        }
      ],
      "stateMutability": "view",
      "type": "function"
    },
    {
      "inputs": [],
      "name": "assertionGracePeriod",
      "outputs": [
        {
          "internalType": "uint256",
          "name": "",
          "type": "uint256"
        }
      ],
      "stateMutability": "view",
      "type": "function"
    },
    {
      "inputs": [
        {
          "internalType": "uint256",
          "name": "marketId",
          "type": "uint256"
        },
        {
          "internalType": "address",
          "name": "user",
          "type": "address"
        }
      ],
      "name": "calculateWinnings",
      "outputs": [
        {
          "internalType": "uint256",
          "name": "",
          "type": "uint256"
        }
      ],
      "stateMutability": "view",
      "type": "function"
    },
    {
      "inputs": [
        {
          "internalType": "uint256",
          "name": "marketId",
          "type": "uint256"
        }
      ],
      "name": "cancelMarket",
      "outputs": [],
      "stateMutability": "nonpayable",
      "type": "function"
    },
    {
      "inputs": [
        {
          "internalType": "uint256",
          "name": "marketId",
          "type": "uint256"
        }
      ],
      "name": "cancelMarketNoAssertion",
      "outputs": [],
      "stateMutability": "nonpayable",
      "type": "function"
    },
    {
      "inputs": [
        {
          "internalType": "uint256",
          "name": "marketId",
          "type": "uint256"
        }
      ],
      "name": "claimRefund",
      "outputs": [],
      "stateMutability": "nonpayable",
      "type": "function"
    },
    {
      "inputs": [
        {
          "internalType": "uint256",
          "name": "marketId",
          "type": "uint256"
        }
      ],
      "name": "claimWinnings",
      "outputs": [],
      "stateMutability": "nonpayable",
      "type": "function"
    },
    {
      "inputs": [
        {
          "internalType": "string",
          "name": "ipfsHash",
          "type": "string"
        },
        {
          "internalType": "bool",
          "name": "isMultiOption",
          "type": "bool"
        },
        {
          "internalType": "uint256",
          "name": "maxOptions",
          "type": "uint256"
        },
        {
          "internalType": "address",
          "name": "paymentToken",
          "type": "address"
        },
        {
          "internalType": "uint256",
          "name": "minStake",
          "type": "uint256"
        },
        {
          "internalType": "uint256",
          "name": "creatorDeposit",
          "type": "uint256"
        },
        {
          "internalType": "uint256",
          "name": "creatorOutcome",
          "type": "uint256"
        },
        {
          "internalType": "uint256",
          "name": "stakeDurationMinutes",
          "type": "uint256"
        },
        {
          "internalType": "uint256",
          "name": "resolutionDurationMinutes",
          "type": "uint256"
        },
        {
          "internalType": "enum P2PMarketManager.MarketType",
          "name": "marketType",
          "type": "uint8"
        },
        {
          "internalType": "address",
          "name": "priceFeed",
          "type": "address"
        },
        {
          "internalType": "uint256",
          "name": "priceThreshold",
          "type": "uint256"
        }
      ],
      "name": "createMarket",
      "outputs": [
        {
          "internalType": "uint256",
          "name": "",
          "type": "uint256"
        }
      ],
      "stateMutability": "payable",
      "type": "function"
    },
    {
      "inputs": [
        {
          "internalType": "uint256",
          "name": "marketId",
          "type": "uint256"
        }
      ],
      "name": "creatorCancelMarket",
      "outputs": [],
      "stateMutability": "nonpayable",
      "type": "function"
    },
    {
      "inputs": [],
      "name": "defaultBondCurrency",
      "outputs": [
        {
          "internalType": "address",
          "name": "",
          "type": "address"
        }
      ],
      "stateMutability": "view",
      "type": "function"
    },
    {
      "inputs": [
        {
          "internalType": "uint256",
          "name": "marketId",
          "type": "uint256"
        }
      ],
      "name": "disputeOracle",
      "outputs": [],
      "stateMutability": "nonpayable",
      "type": "function"
    },
    {
      "inputs": [
        {
          "internalType": "uint256",
          "name": "marketId",
          "type": "uint256"
        }
      ],
      "name": "endMarket",
      "outputs": [],
      "stateMutability": "nonpayable",
      "type": "function"
    },
    {
      "inputs": [
        {
          "internalType": "uint256",
          "name": "marketId",
          "type": "uint256"
        }
      ],
      "name": "getMarket",
      "outputs": [
        {
          "components": [
            {
              "internalType": "address",
              "name": "creator",
              "type": "address"
            },
            {
              "internalType": "string",
              "name": "ipfsHash",
              "type": "string"
            },
            {
              "internalType": "bool",
              "name": "isMultiOption",
              "type": "bool"
            },
            {
              "internalType": "uint256",
              "name": "maxOptions",
              "type": "uint256"
            },
            {
              "internalType": "address",
              "name": "paymentToken",
              "type": "address"
            },
            {
              "internalType": "uint256",
              "name": "minStake",
              "type": "uint256"
            },
            {
              "internalType": "uint256",
              "name": "creatorDeposit",
              "type": "uint256"
            },
            {
              "internalType": "uint256",
              "name": "creatorOutcome",
              "type": "uint256"
            },
            {
              "internalType": "uint256",
              "name": "startTime",
              "type": "uint256"
            },
            {
              "internalType": "uint256",
              "name": "stakeEndTime",
              "type": "uint256"
            },
            {
              "internalType": "uint256",
              "name": "endTime",
              "type": "uint256"
            },
            {
              "internalType": "uint256",
              "name": "resolutionEndTime",
              "type": "uint256"
            },
            {
              "internalType": "enum P2PMarketManager.MarketState",
              "name": "state",
              "type": "uint8"
            },
            {
              "internalType": "uint256",
              "name": "winningOption",
              "type": "uint256"
            },
            {
              "internalType": "bool",
              "name": "isResolved",
              "type": "bool"
            },
            {
              "internalType": "enum P2PMarketManager.MarketType",
              "name": "marketType",
              "type": "uint8"
            },
            {
              "internalType": "address",
              "name": "priceFeed",
              "type": "address"
            },
            {
              "internalType": "uint256",
              "name": "priceThreshold",
              "type": "uint256"
            },
            {
              "internalType": "bytes32",
              "name": "p2pAssertionId",
              "type": "bytes32"
            },
            {
              "internalType": "bool",
              "name": "p2pAssertionMade",
              "type": "bool"
            }
          ],
          "internalType": "struct P2PMarketManager.Market",
          "name": "",
          "type": "tuple"
        }
      ],
      "stateMutability": "view",
      "type": "function"
    },
    {
      "inputs": [
        {
          "internalType": "uint256",
          "name": "marketId",
          "type": "uint256"
        }
      ],
      "name": "getMarketStakers",
      "outputs": [
        {
          "internalType": "address[]",
          "name": "",
          "type": "address[]"
        }
      ],
      "stateMutability": "view",
      "type": "function"
    },
    {
      "inputs": [],
      "name": "getNextMarketId",
      "outputs": [
        {
          "internalType": "uint256",
          "name": "",
          "type": "uint256"
        }
      ],
      "stateMutability": "view",
      "type": "function"
    },
    {
      "inputs": [
        {
          "internalType": "uint256",
          "name": "marketId",
          "type": "uint256"
        },
        {
          "internalType": "uint256",
          "name": "option",
          "type": "uint256"
        },
        {
          "internalType": "address",
          "name": "token",
          "type": "address"
        }
      ],
      "name": "getOptionPool",
      "outputs": [
        {
          "internalType": "uint256",
          "name": "",
          "type": "uint256"
        }
      ],
      "stateMutability": "view",
      "type": "function"
    },
    {
      "inputs": [
        {
          "internalType": "uint256",
          "name": "marketId",
          "type": "uint256"
        }
      ],
      "name": "getStakerCount",
      "outputs": [
        {
          "internalType": "uint256",
          "name": "",
          "type": "uint256"
        }
      ],
      "stateMutability": "view",
      "type": "function"
    },
    {
      "inputs": [
        {
          "internalType": "uint256",
          "name": "marketId",
          "type": "uint256"
        },
        {
          "internalType": "address",
          "name": "token",
          "type": "address"
        }
      ],
      "name": "getSupportPool",
      "outputs": [
        {
          "internalType": "uint256",
          "name": "",
          "type": "uint256"
        }
      ],
      "stateMutability": "view",
      "type": "function"
    },
    {
      "inputs": [
        {
          "internalType": "uint256",
          "name": "marketId",
          "type": "uint256"
        }
      ],
      "name": "getSupporterCount",
      "outputs": [
        {
          "internalType": "uint256",
          "name": "",
          "type": "uint256"
        }
      ],
      "stateMutability": "view",
      "type": "function"
    },
    {
      "inputs": [
        {
          "internalType": "uint256",
          "name": "marketId",
          "type": "uint256"
        },
        {
          "internalType": "address",
          "name": "token",
          "type": "address"
        }
      ],
      "name": "getTotalPool",
      "outputs": [
        {
          "internalType": "uint256",
          "name": "",
          "type": "uint256"
        }
      ],
      "stateMutability": "view",
      "type": "function"
    },
    {
      "inputs": [
        {
          "internalType": "uint256",
          "name": "marketId",
          "type": "uint256"
        },
        {
          "internalType": "address",
          "name": "user",
          "type": "address"
        },
        {
          "internalType": "address",
          "name": "token",
          "type": "address"
        }
      ],
      "name": "getUserStake",
      "outputs": [
        {
          "internalType": "uint256",
          "name": "",
          "type": "uint256"
        }
      ],
      "stateMutability": "view",
      "type": "function"
    },
    {
      "inputs": [
        {
          "internalType": "uint256",
          "name": "marketId",
          "type": "uint256"
        },
        {
          "internalType": "address",
          "name": "user",
          "type": "address"
        },
        {
          "internalType": "address",
          "name": "token",
          "type": "address"
        }
      ],
      "name": "getUserSupport",
      "outputs": [
        {
          "internalType": "uint256",
          "name": "",
          "type": "uint256"
        }
      ],
      "stateMutability": "view",
      "type": "function"
    },
    {
      "inputs": [
        {
          "internalType": "uint256",
          "name": "",
          "type": "uint256"
        }
      ],
      "name": "isActiveMarket",
      "outputs": [
        {
          "internalType": "bool",
          "name": "",
          "type": "bool"
        }
      ],
      "stateMutability": "view",
      "type": "function"
    },
    {
      "inputs": [
        {
          "internalType": "uint256",
          "name": "marketId",
          "type": "uint256"
        }
      ],
      "name": "markMarketDeleted",
      "outputs": [],
      "stateMutability": "nonpayable",
      "type": "function"
    },
    {
      "inputs": [
        {
          "internalType": "uint256",
          "name": "marketId",
          "type": "uint256"
        }
      ],
      "name": "markMarketPermanentlyRemoved",
      "outputs": [],
      "stateMutability": "nonpayable",
      "type": "function"
    },
    {
      "inputs": [],
      "name": "marketCreationFee",
      "outputs": [
        {
          "internalType": "uint256",
          "name": "",
          "type": "uint256"
        }
      ],
      "stateMutability": "view",
      "type": "function"
    },
    {
      "inputs": [
        {
          "internalType": "uint256",
          "name": "",
          "type": "uint256"
        },
        {
          "internalType": "uint256",
          "name": "",
          "type": "uint256"
        }
      ],
      "name": "marketStakers",
      "outputs": [
        {
          "internalType": "address",
          "name": "",
          "type": "address"
        }
      ],
      "stateMutability": "view",
      "type": "function"
    },
    {
      "inputs": [
        {
          "internalType": "uint256",
          "name": "",
          "type": "uint256"
        },
        {
          "internalType": "uint256",
          "name": "",
          "type": "uint256"
        }
      ],
      "name": "marketSupporters",
      "outputs": [
        {
          "internalType": "address",
          "name": "",
          "type": "address"
        }
      ],
      "stateMutability": "view",
      "type": "function"
    },
    {
      "inputs": [
        {
          "internalType": "uint256",
          "name": "",
          "type": "uint256"
        }
      ],
      "name": "markets",
      "outputs": [
        {
          "internalType": "address",
          "name": "creator",
          "type": "address"
        },
        {
          "internalType": "string",
          "name": "ipfsHash",
          "type": "string"
        },
        {
          "internalType": "bool",
          "name": "isMultiOption",
          "type": "bool"
        },
        {
          "internalType": "uint256",
          "name": "maxOptions",
          "type": "uint256"
        },
        {
          "internalType": "address",
          "name": "paymentToken",
          "type": "address"
        },
        {
          "internalType": "uint256",
          "name": "minStake",
          "type": "uint256"
        },
        {
          "internalType": "uint256",
          "name": "creatorDeposit",
          "type": "uint256"
        },
        {
          "internalType": "uint256",
          "name": "creatorOutcome",
          "type": "uint256"
        },
        {
          "internalType": "uint256",
          "name": "startTime",
          "type": "uint256"
        },
        {
          "internalType": "uint256",
          "name": "stakeEndTime",
          "type": "uint256"
        },
        {
          "internalType": "uint256",
          "name": "endTime",
          "type": "uint256"
        },
        {
          "internalType": "uint256",
          "name": "resolutionEndTime",
          "type": "uint256"
        },
        {
          "internalType": "enum P2PMarketManager.MarketState",
          "name": "state",
          "type": "uint8"
        },
        {
          "internalType": "uint256",
          "name": "winningOption",
          "type": "uint256"
        },
        {
          "internalType": "bool",
          "name": "isResolved",
          "type": "bool"
        },
        {
          "internalType": "enum P2PMarketManager.MarketType",
          "name": "marketType",
          "type": "uint8"
        },
        {
          "internalType": "address",
          "name": "priceFeed",
          "type": "address"
        },
        {
          "internalType": "uint256",
          "name": "priceThreshold",
          "type": "uint256"
        },
        {
          "internalType": "bytes32",
          "name": "p2pAssertionId",
          "type": "bytes32"
        },
        {
          "internalType": "bool",
          "name": "p2pAssertionMade",
          "type": "bool"
        }
      ],
      "stateMutability": "view",
      "type": "function"
    },
    {
      "inputs": [],
      "name": "nextMarketId",
      "outputs": [
        {
          "internalType": "uint256",
          "name": "",
          "type": "uint256"
        }
      ],
      "stateMutability": "view",
      "type": "function"
    },
    {
      "inputs": [],
      "name": "optimisticOracle",
      "outputs": [
        {
          "internalType": "contract IOptimisticOracle",
          "name": "",
          "type": "address"
        }
      ],
      "stateMutability": "view",
      "type": "function"
    },
    {
      "inputs": [],
      "name": "owner",
      "outputs": [
        {
          "internalType": "address",
          "name": "",
          "type": "address"
        }
      ],
      "stateMutability": "view",
      "type": "function"
    },
    {
      "inputs": [
        {
          "internalType": "uint256",
          "name": "marketId",
          "type": "uint256"
        },
        {
          "internalType": "uint256",
          "name": "option",
          "type": "uint256"
        }
      ],
      "name": "placeStake",
      "outputs": [],
      "stateMutability": "payable",
      "type": "function"
    },
    {
      "inputs": [
        {
          "internalType": "uint256",
          "name": "marketId",
          "type": "uint256"
        },
        {
          "internalType": "uint256",
          "name": "option",
          "type": "uint256"
        },
        {
          "internalType": "uint256",
          "name": "amount",
          "type": "uint256"
        }
      ],
      "name": "placeStakeWithToken",
      "outputs": [],
      "stateMutability": "nonpayable",
      "type": "function"
    },
    {
      "inputs": [],
      "name": "renounceOwnership",
      "outputs": [],
      "stateMutability": "nonpayable",
      "type": "function"
    },
    {
      "inputs": [
        {
          "internalType": "uint256",
          "name": "marketId",
          "type": "uint256"
        },
        {
          "internalType": "uint256",
          "name": "optionId",
          "type": "uint256"
        },
        {
          "internalType": "bytes",
          "name": "claim",
          "type": "bytes"
        }
      ],
      "name": "requestP2PResolution",
      "outputs": [],
      "stateMutability": "nonpayable",
      "type": "function"
    },
    {
      "inputs": [
        {
          "internalType": "uint256",
          "name": "marketId",
          "type": "uint256"
        }
      ],
      "name": "resolveP2PMarket",
      "outputs": [],
      "stateMutability": "nonpayable",
      "type": "function"
    },
    {
      "inputs": [
        {
          "internalType": "uint256",
          "name": "marketId",
          "type": "uint256"
        }
      ],
      "name": "resolvePriceFeedMarket",
      "outputs": [],
      "stateMutability": "nonpayable",
      "type": "function"
    },
    {
      "inputs": [
        {
          "internalType": "address",
          "name": "_adminManager",
          "type": "address"
        }
      ],
      "name": "setAdminManager",
      "outputs": [],
      "stateMutability": "nonpayable",
      "type": "function"
    },
    {
      "inputs": [
        {
          "internalType": "uint256",
          "name": "_seconds",
          "type": "uint256"
        }
      ],
      "name": "setAssertionGracePeriod",
      "outputs": [],
      "stateMutability": "nonpayable",
      "type": "function"
    },
    {
      "inputs": [
        {
          "internalType": "address",
          "name": "_currency",
          "type": "address"
        }
      ],
      "name": "setDefaultBondCurrency",
      "outputs": [],
      "stateMutability": "nonpayable",
      "type": "function"
    },
    {
      "inputs": [
        {
          "internalType": "address",
          "name": "_oo",
          "type": "address"
        }
      ],
      "name": "setOptimisticOracle",
      "outputs": [],
      "stateMutability": "nonpayable",
      "type": "function"
    },
    {
      "inputs": [
        {
          "internalType": "uint256",
          "name": "marketId",
          "type": "uint256"
        }
      ],
      "name": "settleOracle",
      "outputs": [],
      "stateMutability": "nonpayable",
      "type": "function"
    },
    {
      "inputs": [
        {
          "internalType": "uint256",
          "name": "marketId",
          "type": "uint256"
        },
        {
          "internalType": "uint256",
          "name": "amount",
          "type": "uint256"
        }
      ],
      "name": "supportMarket",
      "outputs": [],
      "stateMutability": "payable",
      "type": "function"
    },
    {
      "inputs": [
        {
          "internalType": "address",
          "name": "newOwner",
          "type": "address"
        }
      ],
      "name": "transferOwnership",
      "outputs": [],
      "stateMutability": "nonpayable",
      "type": "function"
    },
    {
      "inputs": [],
      "name": "treasury",
      "outputs": [
        {
          "internalType": "address payable",
          "name": "",
          "type": "address"
        }
      ],
      "stateMutability": "view",
      "type": "function"
    },
    {
      "inputs": [
        {
          "internalType": "uint256",
          "name": "",
          "type": "uint256"
        },
        {
          "internalType": "address",
          "name": "",
          "type": "address"
        }
      ],
      "name": "userHasStaked",
      "outputs": [
        {
          "internalType": "bool",
          "name": "",
          "type": "bool"
        }
      ],
      "stateMutability": "view",
      "type": "function"
    },
    {
      "inputs": [
        {
          "internalType": "uint256",
          "name": "",
          "type": "uint256"
        },
        {
          "internalType": "address",
          "name": "",
          "type": "address"
        }
      ],
      "name": "userHasSupported",
      "outputs": [
        {
          "internalType": "bool",
          "name": "",
          "type": "bool"
        }
      ],
      "stateMutability": "view",
      "type": "function"
    },
    {
      "inputs": [
        {
          "internalType": "address",
          "name": "",
          "type": "address"
        },
        {
          "internalType": "uint256",
          "name": "",
          "type": "uint256"
        }
      ],
      "name": "userMarketHistory",
      "outputs": [
        {
          "internalType": "uint256",
          "name": "",
          "type": "uint256"
        }
      ],
      "stateMutability": "view",
      "type": "function"
    },
    {
      "inputs": [
        {
          "internalType": "uint256",
          "name": "",
          "type": "uint256"
        },
        {
          "internalType": "address",
          "name": "",
          "type": "address"
        }
      ],
      "name": "userStakeOptions",
      "outputs": [
        {
          "internalType": "uint256",
          "name": "",
          "type": "uint256"
        }
      ],
      "stateMutability": "view",
      "type": "function"
    },
    {
      "inputs": [
        {
          "internalType": "uint256",
          "name": "marketId",
          "type": "uint256"
        }
      ],
      "name": "withdrawSupport",
      "outputs": [],
      "stateMutability": "nonpayable",
      "type": "function"
    },
    {
      "stateMutability": "payable",
      "type": "receive"
    }
  ],
  "bytecode": "0x6080346200010657601f620057e738819003918201601f19168301916001600160401b038311848410176200010b5780849260609460405283398101031262000106576200004d8162000121565b60208201516001600160a01b03808216939091849003620001065762000077604083920162000121565b9216918215620000ed576000549360018060a01b03199380858716176000558360405196167f8be0079c531659141344cd1fd0a4f28419497f9722a3daafe3b4186f6b6457e0600080a36202a300600155600160095583600c541617600c551690600d541617600d556156b09081620001378239f35b604051631e4fbdf760e01b815260006004820152602490fd5b600080fd5b634e487b7160e01b600052604160045260246000fd5b51906001600160a01b0382168203620001065756fe61012080604052600436101561001e575b50361561001c57600080fd5b005b600090813560e01c9081630ccf446714613d8a575080630d64cdbd14613d5b578063157bdcce14613cf7578063209c1c9414613cce5780632230292214613ca5578063256ba74114613c10578063287f57b514613bc85780632ef1bdfa14613ba5578063304bf1f114613b5c5780633adfe6d014613b315780633e32a76c146138b5578063406ef2ef146138975780634f44289d1461384e578063539aa77f14613831578063569946c51461375d5780635b7baf64146134065780635cb305a61461328a57806361d027b31461326157806366cf7ed41461249c578063677bd9ff146122f25780636d4476ec146120985780636f59359e14611fe6578063715018a614611f9e5780637c16cd9e14611ec4578063818ef5f614611e63578063847cf78214611e1f57806387a6b0ff14611d0b5780638d0d180e14611a1b5780638da5cb5b146119f457806393fcf24d146119d657806398a17671146119805780639a3a40d61461177b578063a210b6a414611752578063a30a091414611728578063a550725d146116db578063b1283e771461153a578063bc160758146114ed578063bf5c3252146114a0578063c22c62c31461146e578063c3436e0c14611353578063cc3cbd2a14611336578063d5f82707146112eb578063d8c5dd67146112a4578063dc4ce34914611251578063e0bd4acc146110d0578063eb44fdd314610dc9578063f00fe32114610d2d578063f15cc40614610bf8578063f1b7dde314610a63578063f204072f1461064f578063f2fde38b146105d9578063f486759114610432578063fb87f2c3146102995763fe53a6e80361001057346102965780600319360112610296576020600954604051908152f35b80fd5b50346102965760208060031936011261042e576004359060018060a01b036102c681600d541633146155df565b6009548310156103fc5782845260028252604084205416156103c8578183526002815260ff600c6040852001541660058110156103b45760041461037a5760606000805160206156248339815191529183855260028152600c6040862001600460ff19825416179055838552600b815260ff60408620541661036c575b6010604051918083528201526f2232b632ba32b210313c9030b236b4b760811b6040820152a280f35b610375846154e5565b610343565b6064906040519062461bcd60e51b82526004820152601360248201527211540e88185b1c9958591e4819195b195d1959606a1b6044820152fd5b634e487b7160e01b84526021600452602484fd5b6064906040519062461bcd60e51b82526004820152600d60248201526c11540e881b9bc81b585c9ad95d609a1b6044820152fd5b60405162461bcd60e51b815260048101839052600a60248201526911540e8818985908125160b21b6044820152606490fd5b5080fd5b5061043c36614040565b9060018060a01b0380600d5416906040518092634d9b423560e11b825284600483015281602460209586935afa80156105ce578690610594575b6104819150156142ff565b828552600282526040852060ff600c820154166005811015610580576104a79015614339565b60048101908282541661053d579185916104e5600561050d958515158061052f575b6104d290614376565b6104db8161533e565b01543410156143b3565b610502888080803487600c54165af16104fc61419d565b506143ef565b541634903386615159565b604051928352349083015260008051602061568483398151915260403393a380f35b5060038101548611156104c9565b60405162461bcd60e51b815260048101859052601b60248201527a22a81d103ab9b290383630b1b2a9ba30b5b2abb4ba342a37b5b2b760291b6044820152606490fd5b634e487b7160e01b87526021600452602487fd5b508281813d83116105c7575b6105aa8183613ec0565b810103126105c3576105be61048191614082565b610476565b8580fd5b503d6105a0565b6040513d88823e3d90fd5b5034610296576020366003190112610296576105f3613dc7565b6105fb614056565b6001600160a01b03908116908115610636576000548260018060a01b031982161760005516600080516020615644833981519152600080a380f35b604051631e4fbdf760e01b815260048101849052602490fd5b5061065936614040565b600d54604051632b5ba3b960e01b815233600482015260209493916024916001600160a01b039182169087818581855afa9081156108975791889185938991610a21575b506106a8901561408f565b60405192838092634d9b423560e11b82528860048301525afa80156105ce5786906109eb575b6106d99150156142ff565b828552600286526040852060ff600c8201541660058110156109d8576106ff9015614339565b600981015442101561099f578415610969576004019581875416801560001461090957508434036108d3578596610743878080808a88600c54165af16104fc61419d565b848752600482526040872033600052825260ff60406000205416156108ba575b84875260048252604087203360005282526040600020600160ff198254161790558280600c541691541690803b156108b6578688916107bc938360405180968195829463c15d980760e01b84528d339060048601614471565b03925af19081156108975787916108a2575b505060048183600d54166040519283809263406ad64560e11b82525afa91821561089757879261086a575b50501680610805578480f35b803b15610866578492836064926040519687958694638f46a5a160e01b86526004860152339085015260448401525af1801561085b57610847575b8080808480f35b61085090613e5b565b610296578038610840565b6040513d84823e3d90fd5b8480fd5b6108899250803d10610890575b6108818183613ec0565b810190614499565b38806107f9565b503d610877565b6040513d89823e3d90fd5b6108ab90613e5b565b6105c35785386107ce565b8780fd5b848752600782526108ce3360408920614436565b610763565b6064906010846040519262461bcd60e51b845260048401528201526f08aa074408aa89040dad2e6dac2e8c6d60831b6044820152fd5b96346109275761092286889985600c5416903390614261565b610743565b60405162461bcd60e51b815260048101839052601b818601527a11540e881b9bc811551208199bdc881d1bdad95b881b585c9ad95d602a1b6044820152606490fd5b60405162461bcd60e51b815260048101889052600f818501526e11540e881e995c9bc8185b5bdd5b9d608a1b6044820152606490fd5b60405162461bcd60e51b8152600481018890526012818501527111540e881cdd5c1c1bdc9d0818db1bdcd95960721b6044820152606490fd5b634e487b7160e01b875260216004528387fd5b508681813d8311610a1a575b610a018183613ec0565b810103126105c357610a156106d991614082565b6106ce565b503d6109f7565b92809294508391503d8311610a5c575b610a3b8183613ec0565b81010312610a585783916106a8610a528a93614082565b9061069d565b8680fd5b503d610a31565b5034610296576060366003190112610296576004356024359060443560018060a01b0380600d5416906040518092634d9b423560e11b825285600483015281602460209586935afa8015610897578790610bc2575b610ac39150156142ff565b838652600282526040862060ff600c820154166005811015610bae57610ae99015614339565b600481019082825416908115610b7457928792610b3d878094610b30610b469888151580610b66575b610b1b90614376565b610b2b60058201548510156143b3565b61533e565b84600c5416903390614261565b54163387615159565b60405193845283015260008051602061568483398151915260403393a380f35b506003810154891115610b12565b60405162461bcd60e51b815260048101869052601260248201527145503a2075736520706c6163655374616b6560701b6044820152606490fd5b634e487b7160e01b88526021600452602488fd5b508281813d8311610bf1575b610bd88183613ec0565b81010312610a5857610bec610ac391614082565b610ab8565b503d610bce565b503461029657604036600319011261029657600435610c15613db1565b818352602091600283526040842060ff600c820154166005811015610d1957610c4f91610c466002600d931461480a565b01541515614849565b808452600383526040842060018060a01b03908184166000528452610c7b60ff60406000205416614885565b600c54168360405180926307c7a72d60e01b82528180610c9f8888600484016148c0565b03915afa948515610d0d578095610cce575b5050610cc1610cc69394156148d9565b614934565b604051908152f35b9094508385813d8311610d06575b610ce68183613ec0565b810103126102965750610cc1610cff610cc69495614082565b9493610cb1565b503d610cdc565b604051903d90823e3d90fd5b634e487b7160e01b86526021600452602486fd5b503461029657604036600319011261029657610d76906020610d4d613db1565b60018060a01b03600c54166040518080968194633d1e7ba160e11b8352600435600484016148c0565b03915afa908115610d0d5790610d92575b602090604051908152f35b506020813d8211610dc1575b81610dab60209383613ec0565b81010312610dbc5760209051610d87565b600080fd5b3d9150610d9e565b503461029657602036600319011261029657806040916102608351610ded81613e6e565b8281526060602082015282858201528260608201528260808201528260a08201528260c08201528260e08201528261010082015282610120820152826101408201528261016082015282610180820152826101a0820152826101c0820152826101e08201528261020082015282610220820152826102408201520152600435815260026020522060405190610e8182613e6e565b80546001600160a01b03168252610e9a60018201613f38565b602083015260ff600282015416151560408301526003810154606083015260018060a01b036004820154166080830152600581015460a0830152600681015460c0830152600781015460e083015260088101546101008301526009810154610120830152600a810154610140830152600b81015461016083015260ff600c8201541660058110156110ba5760ff91601191610180850152600d8101546101a0850152600e81015483811615156101c0860152610f5f848260081c166101e08701614143565b60018060a01b039060101c16610200850152600f8101546102208501526010810154610240850152015416151561026082015260405180916020825260018060a01b038151166020830152610260610fc8602083015161028060408601526102a0850190614001565b916040810151151560608501526060810151608085015260018060a01b0360808201511660a085015260a081015160c085015260c081015160e085015260e08101516101008501526101008101516101208501526101208101516101408501526101408101516101608501526101608101516101808501526110546101808201516101a0860190614026565b6101a08101516101c08501526101c081015115156101e08501526110826101e0820151610200860190614033565b60018060a01b036102008201511661022085015261022081015161024085015261024081015182850152015115156102808301520390f35b634e487b7160e01b600052602160045260246000fd5b50346102965760208060031936011261042e57600435906110fc60018060a01b03600d541633146155df565b8183526002815260ff600c6040852001541660058110156103b4576000805160206156248339815191529161113560026060931461480a565b838552600281528460116040822082815582600182016111558154613efe565b80611211575b505060028201556000600382015582600482015560006005820155600060068201556000600782015560006008820155600060098201556000600a8201556000600b82015582600c8201556000600d82015582600e8201556000600f820155600060108201550155838552600b815260ff604086205416611203575b6013604051918083528201527214195c9b585b995b9d1b1e481c995b5bdd9959606a1b6040820152a280f35b61120c846154e5565b6111d7565b601f811160011461122b575060009150555b82388061115b565b9080600091845261124a601f898620940160051c84016001850161414f565b5555611223565b503461029657606036600319011261029657604435906001600160a01b038083168303610dbc57610d7692602091600c5416604051808096819463dc4ce34960e01b835260243560043560048501614913565b50346102965760403660031901126102965760406112c0613db1565b9160043581526005602052209060018060a01b03166000526020526020604060002054604051908152f35b5034610296576112fa36614040565b9190815260066020526040812090815483101561029657602061131d8484613e43565b905460405160039290921b1c6001600160a01b03168152f35b5034610296578060031936011261029657602060405161015e8152f35b50346102965760203660031901126102965760043580825260026020526040822080546001600160a01b031633036114375760ff600c8201541660058110156103b457906113a360099215614339565b015461a8bf198101908111611423574210156113ef576040516113ec916113c982613ea5565b601182527010dc99585d1bdc8818d85b98d95b1b1959607a1b60208301526150cb565b80f35b60405162461bcd60e51b815260206004820152600c60248201526b45503a20746f6f206c61746560a01b6044820152606490fd5b634e487b7160e01b83526011600452602483fd5b60405162461bcd60e51b815260206004820152600f60248201526e22a81d103737ba1031b932b0ba37b960891b6044820152606490fd5b50346102965761147d36614040565b9190815260076020526040812090815483101561029657602061131d8484613e43565b5034610296576020366003190112610296576114ba613dc7565b6114c2614056565b6001600160a01b03166114d68115156155a0565b600e80546001600160a01b03191691909117905580f35b503461029657602036600319011261029657611507613dc7565b61150f614056565b6001600160a01b03166115238115156155a0565b600d80546001600160a01b03191691909117905580f35b503461029657602036600319011261029657600435815260026020526040902080546001600160a01b03169061157260018201613f38565b60c052600281015460ff16608052600381015460e052600160a01b600190036004820154169160058201546006830154600784015460088501546009860154600a87015490600b88015492600c89015460ff1694600d8a015496600e8b015498600f8c01549a60108d01549c6011015460ff16610100526040518060a052526102808060a0516020015260a0510160c0519061160d91614001565b9c608051151560a0516040015260e05160a0516060015260a0516080015260a05160a0015260a05160c0015260a05160e0015260a051610100015260a051610120015260a051610140015260a051610160015260a0516101800161167091614026565b60a0516101a0015260ff8116151560a0516101c0015260a0516101e0018160081c60ff169061169e91614033565b600160a01b600190039060101c1660a051610200015260a051610220015260a051610240015261010051151560a051610260015260a05180910390f35b5034610296576020366003190112610296576116f5613dc7565b6116fd614056565b6001600160a01b03166117118115156155a0565b600f80546001600160a01b03191691909117905580f35b50346102965760203660031901126102965760406020916004358152600783522054604051908152f35b5034610296578060031936011261029657600d546040516001600160a01b039091168152602090f35b50346102965760208060031936011261042e5760043590818352600281526040832090600e820191825460ff8160081c1660028110156105805761194657600c820190815460ff811660058110156119325760016117d991146144e5565b6117e660ff831615614521565b600b84015442106118fd57604051633fabe5a360e21b815260a081600481601087901c6001600160a01b03165afa9081156118f257899161188a575b50600f85015460008051602061566483398151915297600294939290911161187f5760ff600d6001975b0196168655600160ff198094161790551617905561186984614c03565b611874815485615444565b54604051908152a280f35b60ff600d859761184c565b9291905060a0833d82116118ea575b816118a660a09383613ec0565b810103126118e65760008051602061566483398151915296836118ca600295614564565b506118db6080898301519201614564565b509192935096611822565b8880fd5b3d9150611899565b6040513d8b823e3d90fd5b60405162461bcd60e51b815260048101869052600d60248201526c45503a20746f6f206561726c7960981b6044820152606490fd5b634e487b7160e01b89526021600452602489fd5b60405162461bcd60e51b815260048101849052601260248201527111540e881b9bdd0814149250d157d191515160721b6044820152606490fd5b50346102965760403660031901126102965761199a613dc7565b6001600160a01b03168152600860205260408120805460243592908310156102965760206119c88484613e43565b90546040519160031b1c8152f35b50346102965780600319360112610296576020600154604051908152f35b5034610296578060031936011261029657546040516001600160a01b039091168152602090f35b50346102965760603660031901126102965760443560043560248035906001600160401b038085116105c357366023860112156105c35784600401359081116105c357368282870101116105c357838652602094600286526040872092600e84015460ff8160081c166002811015611cf8576001611a999114614578565b60ff600c860154166005811015611cf857611ac391611abc600160ff93146144e5565b16156145bc565b6011840194611ad660ff875416156145f7565b84546001600160a01b03939084163314611cb85789839183151580611caa575b611aff90614376565b85600e541695611b1087151561463a565b8b81600f541697611b2289151561467b565b60405197888092634360af3d60e01b82528b60048301525afa8015611c9f578c9789978592611c61575b5081611b63611be49493611b739330903390614261565b82600f541683600e5416906146de565b604051958c89880152604087015260408652611b8e86613e8a565b600e5416946084856040519a8b998a98899763abdc5dcd60e01b8952606060048a01528260648a0152018488013786838288010152601f8019910116850190339086015260808582030160448601520190614001565b03925af19485156105ce578695611c30575b5050601001839055805460ff191660011790557fc92f993487c6d961b60ff2a81386dff5cc620cd4aed9cddabe26500391655e828380a380f35b90809550813d8311611c5a575b611c478183613ec0565b8101031261086657601093519338611bf6565b503d611c3d565b945097809297508491503d8311611c98575b611c7d8183613ec0565b81010312610dbc5790518a9587958d93929091611b73611b4c565b503d611c73565b6040513d85823e3d90fd5b506003880154841115611af6565b60405162461bcd60e51b8152600481018a90526019818501527811540e8818dc99585d1bdc8818d85b9b9bdd08185cdcd95c9d603a1b6044820152606490fd5b634e487b7160e01b8a526021600452828afd5b50346102965760203660031901126102965760043580825260026020526040822060ff600e82015460081c1660028110156103b4576001611d4c9114614578565b60ff600c8201541660058110156103b457611d8b91611d6f6001600a93146144e5565b611d8060ff601183015416156145f7565b015460015490614111565b4210611de0576040516113ec91611da182613e8a565b602782527f4e6f20617373657274696f6e206d61646520e2809420726566756e647320617660208301526661696c61626c6560c81b60408301526150cb565b60405162461bcd60e51b815260206004820152601760248201527645503a20677261636520706572696f642061637469766560481b6044820152606490fd5b503461029657610d76906020611e3436613ddd565b600c5460405163423e7bc160e11b81529687946001600160a01b039092169385938493909190600485016144c5565b503461029657602036600319011261029657600435611e80614056565b610e108110611e8f5760015580f35b60405162461bcd60e51b815260206004820152600d60248201526c11540e881d1bdbc81cda1bdc9d609a1b6044820152606490fd5b5034610296576020366003190112610296576004358082526002602052604082209060ff600c8301541660058110156103b4576001611f0391146144e5565b600b8201544210611f5a57611f2260ff600e6113ec9401541615614521565b60405190611f2f82613ea5565b601982527814995cdbdb1d5d1a5bdb881c195c9a5bd908195e1c1a5c9959603a1b60208301526150cb565b60405162461bcd60e51b815260206004820152601c60248201527b45503a207265736f6c7574696f6e20706572696f642061637469766560201b6044820152606490fd5b5034610296578060031936011261029657611fb7614056565b600080546001600160a01b0319811682556001600160a01b03166000805160206156448339815191528280a380f35b50346102965760208060031936011261042e576004358252600681526040822060405192838383549182815201908193835284832090835b81811061207b5750505084612034910385613ec0565b60405193838594850191818652518092526040850193925b82811061205b57505050500390f35b83516001600160a01b03168552869550938101939281019260010161204c565b82546001600160a01b03168452928601926001928301920161201e565b5034610296576020908160031936011261029657600435808252600283526040822092600e8401805460ff8160081c166002811015610d19576120f2916120e3600160ff9314614578565b611abc8260118a0154166147cb565b600e54601086015460405163e39dfd7f60e01b81526004810182905290918690829060249082906001600160a01b03165afa9182156105ce578691879361226a575b50857f01bcfc076833db7a342b2b4213f01d2341de157027e6a14cb082cc770513937c866040518515158152a3156122115760408180518101031261086657604001519081151580612203575b156121c1576002600c87600d6000805160206156648339815191529798990194855560ff1993600185825416179055019182541617905561186984614c03565b60405162461bcd60e51b815260048101849052601a60248201527945503a20626164206f7074696f6e2066726f6d206f7261636c6560301b6044820152606490fd5b506003860154821115612181565b5050906113ec9293507f4f7261636c6520617373657274696f6e2072656a6563746564202d20726566756040519261224884613e8a565b602d84528301526c6e647320617661696c61626c6560981b60408301526150cb565b915091503d8087833e61227d8183613ec0565b810190604081830312610a585761229381614082565b8582015190916001600160401b0382116118e6570182601f820112156108b6578051906122bf82613ee3565b936122cd6040519586613ec0565b8285528783830101116118e657906122ea91878086019101613fde565b909138612134565b50346102965760208060031936011261042e5760043580835260028252604083209160ff600c840154166005811015612488576002612331911461480a565b612340600d8401541515614849565b818452600381526040842033600052815261236260ff60406000205416614885565b600c546040516307c7a72d60e01b815285916001600160a01b0390811691848180612391338a600484016148c0565b0381865afa801561247d578490612447575b6123ae9150156148d9565b60046123ba3387614934565b9601541690803b15612443578583916123ec9383604051809681958294632f0041ed60e11b8452338d60048601614471565b03925af1801561085b5761242b575b50507f5380cf6fe903b40c6d5a9e0dfbca2f3a423f0a21520b4d5947ed5169bdba946d906040519384523393a380f35b61243490613e5b565b61243f5783386123fb565b8380fd5b8280fd5b508481813d8311612476575b61245d8183613ec0565b8101031261243f576124716123ae91614082565b6123a3565b503d612453565b6040513d86823e3d90fd5b634e487b7160e01b85526021600452602485fd5b5061018036600319011261029657600435906001600160401b03821161029657366023830112156102965781600401356124d581613ee3565b926124e36040519485613ec0565b8184523660248383010111612443578183926024602093018387013784010152602435151560243503610296576064356001600160a01b0381169003610dbc5760026101243510156102965761014435906001600160a01b0382168203610dbc57600d54604051632b5ba3b960e01b81523360048201526001600160a01b0390911690602081602481855afa8015611c9f578390613226575b61258791501561408f565b8351156131f05760026044351015806131e3575b156131ac57608435156131775760a435156131405760c435151580613132575b156130fb57610124351561306d575b6040516317916e0160e01b8152602081600481855afa908115611c9f57839161303b575b5060e435106130035760e4356101043510612fc15760243515612f27576064356001600160a01b031615612eea57604051633462561360e11b81526064356001600160a01b0316600482015290602090829060249082905afa801561085b578290612eaf575b61265e91506140cd565b670de0b6b3a76400003410612e7857603c60e4350260e4358104603c1460e435151715612d0d5761268f9042614111565b9061010435603c610104350204603c1461010435151715612e64576126ba603c610104350242614111565b61012435612e4e5780915b600954946126d286614134565b600955604051906126e282613e6e565b33825287602083015260243515156040830152604435606083015260018060a01b0360643516608083015260843560a083015260a43560c083015260c43560e08301524261010083015285610120830152836101408301528461016083015282610180830152826101a0830152826101c0830152612767610124356101e08401614143565b6001600160a01b0390811661020083015261016435610220830152610240820183905261026082018390528683526002602090815260408420835181546001600160a01b03191693169290921782558201518051919291906001600160401b038211612e3a5781906127dc6001860154613efe565b601f8111612dfc575b50602090601f8311600114612d8d578692612d82575b50508160011b916000199060031b1c19161760018301555b6128266040820151151560028401614166565b606081015160038301556004820160018060a01b0360808301511660018060a01b031982541617905560a0810151600583015560c0810151600683015560e0810151600783015561010081015160088301556101208101516009830155610140810151600a830155610160810151600b830155600c820161018082015160058110156124885760ff801983541691161790556101a0810151600d830155600e82016128d86101c0830151151582614166565b6101e08201516002811015612488578154610200840151610100600160b01b031990911660089290921b61ff001691909117601091821b62010000600160b01b031617909155610220820151600f8401556102408201519083015561026001516129489190151590601101614166565b600a54600160401b811015612d6c5761298261296b826001899401600a55613e12565b819391549060031b91821b91600019901b19161790565b9055848152600b60205260408120805460ff191660011790556064356001600160a01b0316612d215760a435670de0b6b3a76400000180670de0b6b3a764000011612d0d573410612cd0576129f781808080670de0b6b3a764000060018060a01b038254165af16129f161419d565b506141cd565b8080808060a43560018060a01b03600c54165af1612a1361419d565b5015612c91575b848152600360205260408120336000526020526040600020600160ff198254161790558481526005602052604081203360005260205260c4356040600020553381526008602052612a6e8560408320614177565b600c546001600160a01b0316803b1561042e578160405180926395f4109560e01b8252818381612aae60c4358d60a435906064359033906004870161420f565b03925af1801561085b57908291612c7d575b5050600d5460405163406ad64560e11b815290602090829060049082906001600160a01b03165afa90811561085b578291612c5e575b506001600160a01b038116612b98575b505060209484927f5d0726a1bb5ec8c87527e69ba86d988202e885fad8f2b4aacd618793d6f297b292612b46604051936101208552610120850190614001565b6024351515848a015260443560408501526064356001600160a01b0316606085015260843560808501524260a085015260c084019690965260e0830152610100820152339381900390a3604051908152f35b6001600160a01b0381163b1561042e5760405163782a780560e11b8152828180612bc6338b600484016148c0565b0381836001600160a01b0387165af18015611c9f57908391612c4a575b50506001600160a01b0381163b1561042e5760405163c228038d60e01b81529082908290818381612c1e60a43560c435338f60048601615135565b03926001600160a01b03165af1801561085b5715612b0657612c408291613e5b565b6102965780612b06565b612c5390613e5b565b61042e578138612be3565b612c77915060203d602011610890576108818183613ec0565b38612af6565b612c8690613e5b565b610296578038612ac0565b60405162461bcd60e51b815260206004820152601760248201527611540e8819195c1bdcda5d081cd95b990819985a5b1959604a1b6044820152606490fd5b60405162461bcd60e51b815260206004820152601560248201527445503a20696e73756666696369656e74205045505560581b6044820152606490fd5b634e487b7160e01b82526011600452602482fd5b612d4581808080670de0b6b3a764000060018060a01b038254165af16129f161419d565b600c54612d679060a435906001600160a01b0390811690339060643516614261565b612a1a565b634e487b7160e01b600052604160045260246000fd5b0151905038806127fb565b9250600185018652602086209086935b601f1984168510612de1576001945083601f19811610612dc8575b505050811b016001830155612813565b015160001960f88460031b161c19169055388080612db8565b81810151835560209485019460019093019290910190612d9d565b612e2a9060018701885260208820601f850160051c81019160208610612e30575b601f0160051c019061414f565b386127e5565b9091508190612e1d565b634e487b7160e01b85526041600452602485fd5b61e10081018111612d0d5761e1008101916126c5565b634e487b7160e01b81526011600452602490fd5b60405162461bcd60e51b815260206004820152600f60248201526e45503a2066656520746f6f206c6f7760881b6044820152606490fd5b506020813d602011612ee2575b81612ec960209383613ec0565b8101031261042e57612edd61265e91614082565b612654565b3d9150612ebc565b60405162461bcd60e51b815260206004820152601560248201527422a81d1036bab63a34903732b2b239903a37b5b2b760591b6044820152606490fd5b6064356001600160a01b0316612f3e575b5061265e565b604051633462561360e11b81526064356001600160a01b0316600482015290602090829060249082905afa801561085b578290612f86575b612f8091506140cd565b38612f38565b506020813d602011612fb9575b81612fa060209383613ec0565b8101031261042e57612fb4612f8091614082565b612f76565b3d9150612f93565b60405162461bcd60e51b815260206004820152601a60248201527945503a207265736f6c7574696f6e206166746572207374616b6560301b6044820152606490fd5b60405162461bcd60e51b815260206004820152601060248201526f22a81d1036b4b710323ab930ba34b7b760811b6044820152606490fd5b90506020813d602011613065575b8161305660209383613ec0565b81010312610dbc5751386125ee565b3d9150613049565b6001600160a01b038316156130c257610164356125ca5760405162461bcd60e51b815260206004820152601660248201527511540e881d1a1c995cda1bdb19081c995c5d5a5c995960521b6044820152606490fd5b60405162461bcd60e51b815260206004820152601160248201527011540e8819995959081c995c5d5a5c9959607a1b6044820152606490fd5b60405162461bcd60e51b815260206004820152600f60248201526e45503a20626164206f7574636f6d6560881b6044820152606490fd5b5060443560c43511156125bb565b60405162461bcd60e51b815260206004820152600f60248201526e11540e881898590819195c1bdcda5d608a1b6044820152606490fd5b60405162461bcd60e51b815260206004820152600d60248201526c45503a20626164207374616b6560981b6044820152606490fd5b60405162461bcd60e51b815260206004820152600f60248201526e45503a20626164206f7074696f6e7360881b6044820152606490fd5b50600a604435111561259b565b60405162461bcd60e51b815260206004820152600e60248201526d08aa07440cadae0e8f240d0c2e6d60931b6044820152606490fd5b506020813d602011613259575b8161324060209383613ec0565b810103126124435761325461258791614082565b61257c565b3d9150613233565b5034610296578060031936011261029657600c546040516001600160a01b039091168152602090f35b50346102965760208060031936011261042e57600435808352600282526040832091600e83015460ff8160081c166002811015610d19576132e2916132d3600160ff9314614578565b611abc826011880154166147cb565b600e5484906001600160a01b039081166132fd81151561463a565b60248483600f54169261331184151561467b565b60405192838092634360af3d60e01b82528660048301525afa94851561247d5784956133d0575b505083611b636010949561334f9330903390614261565b600e54169301928354813b1561244357829160448392604051948593849263a6a22b4360e01b845260048401523360248401525af1801561085b576133bc575b5050339154907f8764c70ba5e4ae969c50093a5cb46e29238fb82e4b7eb17d22a8102996b01c8a8480a480f35b6133c590613e5b565b61244357823861338f565b819550809294503d83116133ff575b6133e98183613ec0565b81010312610dbc57915191859180611b63613338565b503d6133df565b50346102965760208060031936011261042e5760043580835260028252604083209160ff600c8401541660058110156124885760030361372557818452600381526040842033600052815260ff604060002054168015613705575b156136c9578392828552600382526040852033600052825260ff60406000205416613623575b828552600482526040852033600052825260ff6040600020541661357b575b831561354457600c5460049091015485916001600160a01b039182169116803b15612443578583916134f1938360405180968195829463164fcd7d60e21b8452338d60048601614471565b03925af1801561085b57613530575b50507ff3f402280ef0a7905e124aa621b65eaeb2725c343e8b36d398ed78c29daf285c906040519384523393a380f35b61353990613e5b565b61243f578338613500565b60405162461bcd60e51b815260048101839052600f60248201526e11540e881e995c9bc81c99599d5b99608a1b6044820152606490fd5b926135b2908260018060a01b0380600c54169060048801541690604051808096819463256ba74160e01b8352338b600485016144c5565b03915afa9081156105ce5786916135f2575b6135ce9250614111565b928285526004825260408520336000528252604060002060ff1981541690556134a6565b90508282813d831161361c575b6136098183613ec0565b81010312610dbc576135ce9151906135c4565b503d6135ff565b925061365a8160018060a01b0380600c54169060048701541690604051808095819463423e7bc160e11b8352338a600485016144c5565b03915afa9081156136be578591613691575b50928285526003825260408520336000528252604060002060ff198154169055613487565b90508181813d83116136b7575b6136a88183613ec0565b81010312610dbc57513861366c565b503d61369e565b6040513d87823e3d90fd5b6064906040519062461bcd60e51b82526004820152601560248201527411540e881b9bdd1a1a5b99c81d1bc81c99599d5b99605a1b6044820152fd5b50818452600481526040842033600052815260ff60406000205416613461565b6064906040519062461bcd60e51b82526004820152601160248201527011540e881b9bdd0818d85b98d95b1b1959607a1b6044820152fd5b50346102965760203660031901126102965760043580825260026020526040822060ff600e82015460081c1660028110156103b457600161379e9114614578565b6137ae60ff6011830154166147cb565b82601060018060a01b03600e54169201918254813b15612443578291602483926040519485938492634124beef60e01b845260048401525af1801561085b5761381d575b505054907f049c1c3eca1ffdb1b59f7205ce06f2461ace420050f9ad1b4b6b55f4a0f2e5268380a380f35b61382690613e5b565b6124435782386137f2565b503461029657806003193601126102965760206040516101f48152f35b503461029657604036600319011261029657610d7690602061386e613db1565b60018060a01b03600c54166040518080968194634f44289d60e01b8352600435600484016148c0565b50346102965780600319360112610296576020600954604051908152f35b50346102965760208060031936011261042e5760043580835260028252604083206004835260408420338552835260ff60408520541615613afb5760ff600c8201541660058110156124885780613aa05750600981015461a8bf198101908111613a8c57421015613a4c575b60018060a01b03600481600c541692015416906040519063256ba74160e01b8252848280613954863389600485016144c5565b0381845afa9182156105ce578692613a1d575b5081156139de57908186923b156124435761399b93836040518096819582946317be0b2f60e11b8452338b60048601614471565b03925af1801561247d576139cb575b5082526004815260408220903360005252604060002060ff19815416905580f35b6139d790939193613e5b565b91386139aa565b60405162461bcd60e51b815260048101869052601760248201527645503a206e6f7468696e6720746f20776974686472617760481b6044820152606490fd5b9091508481813d8311613a45575b613a358183613ec0565b810103126105c357519038613967565b503d613a2b565b60405162461bcd60e51b815260048101849052601860248201527745503a20746f6f206c61746520746f20776974686472617760401b6044820152606490fd5b634e487b7160e01b85526011600452602485fd5b60048114908115613af0575b506139215760405162461bcd60e51b815260048101849052601760248201527645503a2063616e6e6f74207769746864726177206e6f7760481b6044820152606490fd5b600391501438613aac565b60405162461bcd60e51b815260048101849052600e60248201526d11540e881b9bc81cdd5c1c1bdc9d60921b6044820152606490fd5b50346102965760203660031901126102965760043590600a548210156102965760206119c883613e12565b50346102965760403660031901126102965760ff6040602092613b7d613db1565b6004358252600385528282206001600160a01b03909116825284522054604051911615158152f35b50346102965780600319360112610296576020604051670de0b6b3a76400008152f35b50346102965760403660031901126102965760ff6040602092613be9613db1565b60048035835285528282206001600160a01b03909116825284522054604051911615158152f35b503461029657613c536020613c2436613ddd565b600c5460405163256ba74160e01b81529586946001600160a01b039092169385938493909190600485016144c5565b03915afa90811561085b578291613c70575b602082604051908152f35b90506020813d8211613c9d575b81613c8a60209383613ec0565b8101031261042e57602091505138613c65565b3d9150613c7d565b5034610296578060031936011261029657600e546040516001600160a01b039091168152602090f35b5034610296578060031936011261029657600f546040516001600160a01b039091168152602090f35b5034610296576020366003190112610296576004359081815260026020526040812091600c830180549360ff851660058110156124885794613d4f600a600193613d456113ec989915614339565b01544210156144e5565b60ff19161790556154e5565b50346102965760203660031901126102965760ff60406020926004358152600b84522054166040519015158152f35b90503461042e57602036600319011261042e57604060209260043581526006845220548152f35b602435906001600160a01b0382168203610dbc57565b600435906001600160a01b0382168203610dbc57565b6060906003190112610dbc57600435906001600160a01b03906024358281168103610dbc57916044359081168103610dbc5790565b600a54811015613e2d57600a60005260206000200190600090565b634e487b7160e01b600052603260045260246000fd5b8054821015613e2d5760005260206000200190600090565b6001600160401b038111612d6c57604052565b61028081019081106001600160401b03821117612d6c57604052565b606081019081106001600160401b03821117612d6c57604052565b604081019081106001600160401b03821117612d6c57604052565b601f909101601f19168101906001600160401b03821190821017612d6c57604052565b6001600160401b038111612d6c57601f01601f191660200190565b90600182811c92168015613f2e575b6020831014613f1857565b634e487b7160e01b600052602260045260246000fd5b91607f1691613f0d565b9060405191826000825492613f4c84613efe565b908184526001948581169081600014613fbb5750600114613f78575b5050613f7692500383613ec0565b565b9093915060005260209081600020936000915b818310613fa3575050613f7693508201013880613f68565b85548884018501529485019487945091830191613f8b565b915050613f7694506020925060ff191682840152151560051b8201013880613f68565b60005b838110613ff15750506000910152565b8181015183820152602001613fe1565b9060209161401a81518092818552858086019101613fde565b601f01601f1916010190565b9060058210156110ba5752565b9060028210156110ba5752565b6040906003190112610dbc576004359060243590565b6000546001600160a01b0316330361406a57565b60405163118cdaa760e01b8152336004820152602490fd5b51908115158203610dbc57565b1561409657565b60405162461bcd60e51b815260206004820152600f60248201526e11540e88189b1858dadb1a5cdd1959608a1b6044820152606490fd5b156140d457565b60405162461bcd60e51b815260206004820152601560248201527422a81d103ab739bab83837b93a32b2103a37b5b2b760591b6044820152606490fd5b9190820180921161411e57565b634e487b7160e01b600052601160045260246000fd5b600019811461411e5760010190565b60028210156110ba5752565b81811061415a575050565b6000815560010161414f565b9060ff801983541691151516179055565b805490600160401b821015612d6c578161296b91600161419994018155613e43565b9055565b3d156141c8573d906141ae82613ee3565b916141bc6040519384613ec0565b82523d6000602084013e565b606090565b156141d457565b60405162461bcd60e51b815260206004820152601360248201527211540e88199959481cd95b990819985a5b1959606a1b6044820152606490fd5b9081526001600160a01b039182166020820152911660408201526060810191909152608081019190915260a00190565b6001600160a01b03918216815291166020820152604081019190915260600190565b9061429790614289613f76956040519586936323b872dd60e01b60208601526024850161423f565b03601f198101845283613ec0565b906000602091828151910182855af1156142f3576000513d6142ea57506001600160a01b0381163b155b6142c85750565b604051635274afe760e01b81526001600160a01b039091166004820152602490fd5b600114156142c1565b6040513d6000823e3d90fd5b1561430657565b60405162461bcd60e51b815260206004820152600b60248201526a11540e8819195b195d195960aa1b6044820152606490fd5b1561434057565b60405162461bcd60e51b815260206004820152600e60248201526d45503a206e6f742061637469766560901b6044820152606490fd5b1561437d57565b60405162461bcd60e51b815260206004820152600e60248201526d22a81d103130b21037b83a34b7b760911b6044820152606490fd5b156143ba57565b60405162461bcd60e51b815260206004820152600d60248201526c22a81d103132b637bb9036b4b760991b6044820152606490fd5b156143f657565b60405162461bcd60e51b815260206004820152601860248201527711540e881d1c99585cdd5c9e481cd95b990819985a5b195960421b6044820152606490fd5b8054600160401b811015612d6c5761445391600182018155613e43565b819291549060031b9160018060a01b03809116831b921b1916179055565b9081526001600160a01b03918216602082015291166040820152606081019190915260800190565b90816020910312610dbc57516001600160a01b0381168103610dbc5790565b9190820391821161411e57565b9081526001600160a01b0391821660208201529116604082015260600190565b156144ec57565b60405162461bcd60e51b815260206004820152600d60248201526c11540e881b9bdd08195b991959609a1b6044820152606490fd5b1561452857565b60405162461bcd60e51b815260206004820152601460248201527311540e88185b1c9958591e481c995cdbdb1d995960621b6044820152606490fd5b51906001600160501b0382168203610dbc57565b1561457f57565b60405162461bcd60e51b815260206004820152601560248201527445503a206e6f74205032504f5054494d495354494360581b6044820152606490fd5b156145c357565b60405162461bcd60e51b815260206004820152600c60248201526b11540e881c995cdbdb1d995960a21b6044820152606490fd5b156145fe57565b60405162461bcd60e51b815260206004820152601460248201527345503a20617373657274696f6e2065786973747360601b6044820152606490fd5b1561464157565b60405162461bcd60e51b815260206004820152601260248201527111540e881bdc9858db19481b9bdd081cd95d60721b6044820152606490fd5b1561468257565b60405162461bcd60e51b815260206004820152601960248201527811540e88189bdb990818dd5c9c995b98de481b9bdd081cd95d603a1b6044820152606490fd5b6001600160a01b039091168152602081019190915260400190565b9291926040519160208301906147158461470763095ea7b360e01b9889865284602484016146c3565b03601f198101865285613ec0565b60206000809386519082875af182513d826147a6575b50501561473b575b505050509050565b60405160208101969096526001600160a01b031660248601526044808601829052855260808501906001600160401b03821186831017614792575061478893946142979160405282614297565b8038808080614733565b634e487b7160e01b81526041600452602490fd5b9091506147c357506001600160a01b0383163b15155b388061472b565b6001146147bc565b156147d257565b60405162461bcd60e51b815260206004820152601060248201526f22a81d1037379030b9b9b2b93a34b7b760811b6044820152606490fd5b1561481157565b60405162461bcd60e51b815260206004820152601060248201526f11540e881b9bdd081c995cdbdb1d995960821b6044820152606490fd5b1561485057565b60405162461bcd60e51b815260206004820152600d60248201526c22a81d103737903bb4b73732b960991b6044820152606490fd5b1561488c57565b60405162461bcd60e51b815260206004820152600c60248201526b45503a206e6f207374616b6560a01b6044820152606490fd5b9081526001600160a01b03909116602082015260400190565b156148e057565b60405162461bcd60e51b815260206004820152600b60248201526a11540e8818db185a5b595960aa1b6044820152606490fd5b90815260208101919091526001600160a01b03909116604082015260600190565b90816000526002602052604091826000209160018060a01b03600c54169360018060a01b036004850154169181519463423e7bc160e11b86526020868061498087868a600485016144c5565b03818a5afa958615614bf857600096614bc4575b50600d8101549383519763dc4ce34960e01b8952602089806149bb858a8c60048501614913565b0381845afa988915614bb957600099614b85575b5060009260036001910154905b81811115614ae4575050614a09929160209186518080968194634f44289d60e01b83528c600484016148c0565b03915afa908115614ad957600091614aa3575b614a269250614111565b938615614a97576000526005602052816000209060018060a01b03166000526020526000205403614a8f578015614a89576123288082029182040361411e5761271090049182820292828404148215171561411e57614a86920490614111565b90565b50905090565b505050600090565b50505050505050600090565b90506020823d602011614ad1575b81614abe60209383613ec0565b81010312610dbc57614a26915190614a1c565b3d9150614ab1565b84513d6000823e3d90fd5b878103614afa575b614af590614134565b6149dc565b865163dc4ce34960e01b815290949060208180614b1c888a8f60048501614913565b0381875afa908115614b7a57600091614b46575b50614b3e90614af592614111565b949050614aec565b90506020813d602011614b72575b81614b6160209383613ec0565b81010312610dbc5751614af5614b30565b3d9150614b54565b88513d6000823e3d90fd5b9098506020813d602011614bb1575b81614ba160209383613ec0565b81010312610dbc575197386149cf565b3d9150614b94565b85513d6000823e3d90fd5b9095506020813d602011614bf0575b81614be060209383613ec0565b81010312610dbc57519438614994565b3d9150614bd3565b83513d6000823e3d90fd5b600090808252602090600282526040918284209184916001936003810154600d820154955b8181111561501d575050600c54600482810180548951634f44289d60e01b81526001600160a01b03999298939792948a1693918a169291878280614c6f8787838f016148c0565b0381885afa918215615013579189918d999897969594938f92614fcc575b5091614cb785614c9f86948c96614111565b9b5163dc4ce34960e01b815298899485948501614913565b0381865afa938415614f8d579086918d95614f97575b508b51633d1e7ba160e11b8152919082908190614cee9086908d84016148c0565b0381865afa958615614f8d578c96614f59575b505061015e9586860286159787820414881715614f4657612710809104976101f49081890291898304141715614f33570493614e39575050505082614dc6575b5090614d4c916144b8565b9283614d5b575b505050505050565b80600c541692541690823b156105c35791849391868094614d8f97519788958694859363f0824f3360e01b855284016146c3565b03925af1908115614dbd5750614da9575b80808080614d53565b614db38291613e5b565b6102965780614da0565b513d84823e3d90fd5b8580600c54169154168686541690823b15614e3557614dff928a928387938c519687958694859363112cd22360e01b85528d850161423f565b03925af18015614e2b57908891614e17575b50614d41565b614e2090613e5b565b610a58578638614e11565b87513d8a823e3d90fd5b8980fd5b909298959450929092614e53575b50505050505050505050565b849084614ed1575b505050505083614e6f575b80808080614e47565b80600c541692541690823b156105c35791849391868094614ea39751978895869485936348fef59560e01b855284016146c3565b03925af1908115614dbd5750614ebd575b80808080614e66565b614ec78291613e5b565b6102965780614eb4565b5416823b15614e355791614efe93918a80948b519687958694859363112cd22360e01b85528c850161423f565b03925af18015614f2957614f16575b80808381614e5b565b614f2290969196613e5b565b9438614f0d565b86513d89823e3d90fd5b634e487b7160e01b8e5260118a5260248efd5b634e487b7160e01b8d526011895260248dfd5b9080929650813d8311614f86575b614f718183613ec0565b81010312614f825751933880614d01565b8a80fd5b503d614f67565b8b513d8e823e3d90fd5b8281939296503d8311614fc5575b614faf8183613ec0565b81010312614fc1575192859082614ccd565b8b80fd5b503d614fa5565b92509293949596979850508781813d831161500c575b614fec8183613ec0565b8101031261500857518b97969594939291899190614cb7614c8d565b8c80fd5b503d614fe2565b8c513d8f823e3d90fd5b868103615033575b61502e90614134565b614c28565b9487848760018060a01b038881600c54169161506a600491828b01541696519687958694859463dc4ce34960e01b86528501614913565b03915afa9081156150c1578a91615092575b5061508a9061502e92614111565b959050615025565b90508481813d83116150ba575b6150a98183613ec0565b81010312614e35575161502e61507c565b503d61509f565b89513d8c823e3d90fd5b9061512260008051602061562483398151915291836000526002602052600c604060002001600360ff19825416179055600b60205260ff60406000205416615127575b604051918291602083526020830190614001565b0390a2565b615130846154e5565b61510e565b909493926060926080830196835260018060a01b0316602083015260408201520152565b939093600094818652602093600385526040948588209160018060a01b039283851690818b52835260ff888b205416156152d2575b858a5260038352878a20818b528352878a20600160ff19825416179055858a5260058352878a20908a52825285878a205582600c5416803b15614e355788918a918683896151f28c8e51988997889687956395f4109560e01b87526004870161420f565b03925af180156152b5576152bf575b5060048183600d541688519283809263406ad64560e11b82525afa9182156152b5578992615298575b505016918261523d575b50505050505050565b823b15610a585790868094939261526987519889968795869463c228038d60e01b865260048601615135565b03925af1908115614dbd5750615284575b8080808080615234565b61528e8291613e5b565b610296578061527a565b6152ae9250803d10610890576108818183613ec0565b388061522a565b87513d8b823e3d90fd5b6152cb90989198613e5b565b9638615201565b858a52600683526152e585898c20614436565b808a52600883526152f886898c20614177565b61518e565b1561530457565b60405162461bcd60e51b815260206004820152601260248201527111540e881cdd185ada5b99c818db1bdcd95960721b6044820152606490fd5b600d5460405163111a798960e31b8152602092916001600160a01b0316908381600481855afa9081156142f35760009161540f575b50156153fe578260049160405192838092632eaa712b60e21b82525afa9283156142f3576000936153cc575b505060090154603c820291808304603c149015171561411e57613f76916153c5916144b8565b42106152fd565b8181949293943d83116153f7575b6153e48183613ec0565b810103126102965750519060093861539f565b503d6153da565b50613f7691506009015442106152fd565b908482813d831161543d575b6154258183613ec0565b81010312610296575061543790614082565b38615373565b503d61541b565b600d5460405163406ad64560e11b81526001600160a01b03916020908290600490829086165afa9081156142f3576000916154c7575b5016918261548757505050565b823b15610dbc57604460009283604051958694859362ff4a7360e81b8552600485015260248401525af180156142f3576154be5750565b613f7690613e5b565b6154df915060203d8111610890576108818183613ec0565b3861547a565b60005b600a908154918282101561559a57839261550183613e12565b949054600395861b1c1461552057505061551b9150614134565b6154e8565b90916000199182810190811161411e5761296b61553f61554b92613e12565b905490871b1c92613e12565b9055815480156155845781019261556184613e12565b81939154921b1b1916905555600052600b602052604060002060ff198154169055565b634e487b7160e01b600052603160045260246000fd5b50505050565b156155a757565b60405162461bcd60e51b815260206004820152601060248201526f45503a207a65726f206164647265737360801b6044820152606490fd5b156155e657565b60405162461bcd60e51b815260206004820152601560248201527422a81d1037b7363c9020b236b4b726b0b730b3b2b960591b6044820152606490fdfe4c4561c5b0048424071c1115e9f1e325486e21c21333d968f21097b7b72d12ad8be0079c531659141344cd1fd0a4f28419497f9722a3daafe3b4186f6b6457e06dfc24f0f2fb42e49fb4fa3ffa8abb148cab908a1fb8335b3f128a08b2594af1e10fdde2c5cd9b92e449ee25df01febda2cbebc5553e38f2250ffe7f2d5143bca164736f6c6343000814000a",
  "linkReferences": {},
  "deployedLinkReferences": {}
}