{
  "_format": "hh-sol-artifact-1",
  "contractName": "P2PMarketManager",
  "sourceName": "contracts/P2PMarketManager.sol",
  "abi": [
    {
      "inputs": [
        {
          "internalType": "address",
          "name": "initialOwner",
          "type": "address"
        },
        {
          "internalType": "address payable",
          "name": "_treasury",
          "type": "address"
        },
        {
          "internalType": "address",
          "name": "_adminManager",
          "type": "address"
        }
      ],
      "stateMutability": "nonpayable",
      "type": "constructor"
    },
    {
      "inputs": [
        {
          "internalType": "address",
          "name": "owner",
          "type": "address"
        }
      ],
      "name": "OwnableInvalidOwner",
      "type": "error"
    },
    {
      "inputs": [
        {
          "internalType": "address",
          "name": "account",
          "type": "address"
        }
      ],
      "name": "OwnableUnauthorizedAccount",
      "type": "error"
    },
    {
      "inputs": [
        {
          "internalType": "address",
          "name": "token",
          "type": "address"
        }
      ],
      "name": "SafeERC20FailedOperation",
      "type": "error"
    },
    {
      "anonymous": false,
      "inputs": [
        {
          "indexed": true,
          "internalType": "uint256",
          "name": "marketId",
          "type": "uint256"
        },
        {
          "indexed": false,
          "internalType": "string",
          "name": "reason",
          "type": "string"
        }
      ],
      "name": "MarketCancelled",
      "type": "event"
    },
    {
      "anonymous": false,
      "inputs": [
        {
          "indexed": true,
          "internalType": "uint256",
          "name": "marketId",
          "type": "uint256"
        },
        {
          "indexed": true,
          "internalType": "address",
          "name": "creator",
          "type": "address"
        },
        {
          "indexed": false,
          "internalType": "string",
          "name": "ipfsHash",
          "type": "string"
        },
        {
          "indexed": false,
          "internalType": "bool",
          "name": "isMultiOption",
          "type": "bool"
        },
        {
          "indexed": false,
          "internalType": "uint256",
          "name": "maxOptions",
          "type": "uint256"
        },
        {
          "indexed": false,
          "internalType": "address",
          "name": "paymentToken",
          "type": "address"
        },
        {
          "indexed": false,
          "internalType": "uint256",
          "name": "minStake",
          "type": "uint256"
        },
        {
          "indexed": false,
          "internalType": "uint256",
          "name": "startTime",
          "type": "uint256"
        },
        {
          "indexed": false,
          "internalType": "uint256",
          "name": "stakeEndTime",
          "type": "uint256"
        },
        {
          "indexed": false,
          "internalType": "uint256",
          "name": "endTime",
          "type": "uint256"
        },
        {
          "indexed": false,
          "internalType": "uint256",
          "name": "resolutionEndTime",
          "type": "uint256"
        }
      ],
      "name": "MarketCreated",
      "type": "event"
    },
    {
      "anonymous": false,
      "inputs": [
        {
          "indexed": true,
          "internalType": "uint256",
          "name": "marketId",
          "type": "uint256"
        },
        {
          "indexed": false,
          "internalType": "uint256",
          "name": "winningOption",
          "type": "uint256"
        }
      ],
      "name": "MarketResolved",
      "type": "event"
    },
    {
      "anonymous": false,
      "inputs": [
        {
          "indexed": true,
          "internalType": "uint256",
          "name": "marketId",
          "type": "uint256"
        },
        {
          "indexed": false,
          "internalType": "uint256",
          "name": "winningOption",
          "type": "uint256"
        },
        {
          "indexed": false,
          "internalType": "uint256",
          "name": "resolvedTimestamp",
          "type": "uint256"
        },
        {
          "indexed": false,
          "internalType": "uint256",
          "name": "resolvedPrice",
          "type": "uint256"
        }
      ],
      "name": "MarketResolvedDetailed",
      "type": "event"
    },
    {
      "anonymous": false,
      "inputs": [
        {
          "indexed": true,
          "internalType": "uint256",
          "name": "marketId",
          "type": "uint256"
        },
        {
          "indexed": true,
          "internalType": "bytes32",
          "name": "assertionId",
          "type": "bytes32"
        },
        {
          "indexed": true,
          "internalType": "address",
          "name": "disputer",
          "type": "address"
        },
        {
          "indexed": false,
          "internalType": "uint256",
          "name": "disputedOptionId",
          "type": "uint256"
        }
      ],
      "name": "OracleDisputed",
      "type": "event"
    },
    {
      "anonymous": false,
      "inputs": [
        {
          "indexed": true,
          "internalType": "uint256",
          "name": "marketId",
          "type": "uint256"
        },
        {
          "indexed": true,
          "internalType": "bytes32",
          "name": "assertionId",
          "type": "bytes32"
        },
        {
          "indexed": false,
          "internalType": "bool",
          "name": "accepted",
          "type": "bool"
        }
      ],
      "name": "OracleResultProcessed",
      "type": "event"
    },
    {
      "anonymous": false,
      "inputs": [
        {
          "indexed": true,
          "internalType": "uint256",
          "name": "marketId",
          "type": "uint256"
        },
        {
          "indexed": true,
          "internalType": "bytes32",
          "name": "assertionId",
          "type": "bytes32"
        }
      ],
      "name": "OracleSettled",
      "type": "event"
    },
    {
      "anonymous": false,
      "inputs": [
        {
          "indexed": true,
          "internalType": "address",
          "name": "previousOwner",
          "type": "address"
        },
        {
          "indexed": true,
          "internalType": "address",
          "name": "newOwner",
          "type": "address"
        }
      ],
      "name": "OwnershipTransferred",
      "type": "event"
    },
    {
      "anonymous": false,
      "inputs": [
        {
          "indexed": true,
          "internalType": "uint256",
          "name": "marketId",
          "type": "uint256"
        },
        {
          "indexed": true,
          "internalType": "address",
          "name": "user",
          "type": "address"
        },
        {
          "indexed": false,
          "internalType": "uint256",
          "name": "amount",
          "type": "uint256"
        }
      ],
      "name": "RefundClaimed",
      "type": "event"
    },
    {
      "anonymous": false,
      "inputs": [
        {
          "indexed": true,
          "internalType": "uint256",
          "name": "marketId",
          "type": "uint256"
        },
        {
          "indexed": true,
          "internalType": "bytes32",
          "name": "assertionId",
          "type": "bytes32"
        }
      ],
      "name": "ResolutionRequested",
      "type": "event"
    },
    {
      "anonymous": false,
      "inputs": [
        {
          "indexed": true,
          "internalType": "uint256",
          "name": "marketId",
          "type": "uint256"
        },
        {
          "indexed": true,
          "internalType": "address",
          "name": "user",
          "type": "address"
        },
        {
          "indexed": false,
          "internalType": "uint256",
          "name": "option",
          "type": "uint256"
        },
        {
          "indexed": false,
          "internalType": "uint256",
          "name": "amount",
          "type": "uint256"
        }
      ],
      "name": "StakePlaced",
      "type": "event"
    },
    {
      "anonymous": false,
      "inputs": [
        {
          "indexed": true,
          "internalType": "uint256",
          "name": "marketId",
          "type": "uint256"
        },
        {
          "indexed": true,
          "internalType": "address",
          "name": "user",
          "type": "address"
        },
        {
          "indexed": false,
          "internalType": "uint256",
          "name": "amount",
          "type": "uint256"
        }
      ],
      "name": "WinningsClaimed",
      "type": "event"
    },
    {
      "inputs": [],
      "name": "CREATOR_FEE_BPS",
      "outputs": [
        {
          "internalType": "uint256",
          "name": "",
          "type": "uint256"
        }
      ],
      "stateMutability": "view",
      "type": "function"
    },
    {
      "inputs": [],
      "name": "NET_WINNER_BPS",
      "outputs": [
        {
          "internalType": "uint256",
          "name": "",
          "type": "uint256"
        }
      ],
      "stateMutability": "view",
      "type": "function"
    },
    {
      "inputs": [],
      "name": "PLATFORM_FEE_BPS",
      "outputs": [
        {
          "internalType": "uint256",
          "name": "",
          "type": "uint256"
        }
      ],
      "stateMutability": "view",
      "type": "function"
    },
    {
      "inputs": [],
      "name": "TOTAL_FEE_BPS",
      "outputs": [
        {
          "internalType": "uint256",
          "name": "",
          "type": "uint256"
        }
      ],
      "stateMutability": "view",
      "type": "function"
    },
    {
      "inputs": [
        {
          "internalType": "uint256",
          "name": "",
          "type": "uint256"
        }
      ],
      "name": "activeMarkets",
      "outputs": [
        {
          "internalType": "uint256",
          "name": "",
          "type": "uint256"
        }
      ],
      "stateMutability": "view",
      "type": "function"
    },
    {
      "inputs": [],
      "name": "adminManager",
      "outputs": [
        {
          "internalType": "address",
          "name": "",
          "type": "address"
        }
      ],
      "stateMutability": "view",
      "type": "function"
    },
    {
      "inputs": [],
      "name": "assertionGracePeriod",
      "outputs": [
        {
          "internalType": "uint256",
          "name": "",
          "type": "uint256"
        }
      ],
      "stateMutability": "view",
      "type": "function"
    },
    {
      "inputs": [
        {
          "internalType": "uint256",
          "name": "marketId",
          "type": "uint256"
        },
        {
          "internalType": "address",
          "name": "user",
          "type": "address"
        }
      ],
      "name": "calculateWinnings",
      "outputs": [
        {
          "internalType": "uint256",
          "name": "",
          "type": "uint256"
        }
      ],
      "stateMutability": "view",
      "type": "function"
    },
    {
      "inputs": [
        {
          "internalType": "uint256",
          "name": "marketId",
          "type": "uint256"
        }
      ],
      "name": "cancelMarket",
      "outputs": [],
      "stateMutability": "nonpayable",
      "type": "function"
    },
    {
      "inputs": [
        {
          "internalType": "uint256",
          "name": "marketId",
          "type": "uint256"
        }
      ],
      "name": "cancelMarketNoAssertion",
      "outputs": [],
      "stateMutability": "nonpayable",
      "type": "function"
    },
    {
      "inputs": [
        {
          "internalType": "uint256",
          "name": "marketId",
          "type": "uint256"
        }
      ],
      "name": "claimRefund",
      "outputs": [],
      "stateMutability": "nonpayable",
      "type": "function"
    },
    {
      "inputs": [
        {
          "internalType": "uint256",
          "name": "marketId",
          "type": "uint256"
        }
      ],
      "name": "claimWinnings",
      "outputs": [],
      "stateMutability": "nonpayable",
      "type": "function"
    },
    {
      "inputs": [
        {
          "internalType": "string",
          "name": "ipfsHash",
          "type": "string"
        },
        {
          "internalType": "bool",
          "name": "isMultiOption",
          "type": "bool"
        },
        {
          "internalType": "uint256",
          "name": "maxOptions",
          "type": "uint256"
        },
        {
          "internalType": "address",
          "name": "paymentToken",
          "type": "address"
        },
        {
          "internalType": "uint256",
          "name": "minStake",
          "type": "uint256"
        },
        {
          "internalType": "uint256",
          "name": "creatorDeposit",
          "type": "uint256"
        },
        {
          "internalType": "uint256",
          "name": "creatorOutcome",
          "type": "uint256"
        },
        {
          "internalType": "uint256",
          "name": "stakeDurationMinutes",
          "type": "uint256"
        },
        {
          "internalType": "uint256",
          "name": "resolutionDurationMinutes",
          "type": "uint256"
        },
        {
          "internalType": "enum P2PMarketManager.MarketType",
          "name": "marketType",
          "type": "uint8"
        },
        {
          "internalType": "address",
          "name": "priceFeed",
          "type": "address"
        },
        {
          "internalType": "uint256",
          "name": "priceThreshold",
          "type": "uint256"
        }
      ],
      "name": "createMarket",
      "outputs": [
        {
          "internalType": "uint256",
          "name": "",
          "type": "uint256"
        }
      ],
      "stateMutability": "payable",
      "type": "function"
    },
    {
      "inputs": [
        {
          "internalType": "uint256",
          "name": "marketId",
          "type": "uint256"
        }
      ],
      "name": "creatorCancelMarket",
      "outputs": [],
      "stateMutability": "nonpayable",
      "type": "function"
    },
    {
      "inputs": [],
      "name": "defaultBondCurrency",
      "outputs": [
        {
          "internalType": "address",
          "name": "",
          "type": "address"
        }
      ],
      "stateMutability": "view",
      "type": "function"
    },
    {
      "inputs": [
        {
          "internalType": "uint256",
          "name": "marketId",
          "type": "uint256"
        },
        {
          "internalType": "uint256",
          "name": "optionId",
          "type": "uint256"
        }
      ],
      "name": "disputeOracle",
      "outputs": [],
      "stateMutability": "nonpayable",
      "type": "function"
    },
    {
      "inputs": [
        {
          "internalType": "uint256",
          "name": "marketId",
          "type": "uint256"
        }
      ],
      "name": "endMarket",
      "outputs": [],
      "stateMutability": "nonpayable",
      "type": "function"
    },
    {
      "inputs": [
        {
          "internalType": "uint256",
          "name": "marketId",
          "type": "uint256"
        }
      ],
      "name": "getMarket",
      "outputs": [
        {
          "components": [
            {
              "internalType": "address",
              "name": "creator",
              "type": "address"
            },
            {
              "internalType": "string",
              "name": "ipfsHash",
              "type": "string"
            },
            {
              "internalType": "bool",
              "name": "isMultiOption",
              "type": "bool"
            },
            {
              "internalType": "uint256",
              "name": "maxOptions",
              "type": "uint256"
            },
            {
              "internalType": "address",
              "name": "paymentToken",
              "type": "address"
            },
            {
              "internalType": "uint256",
              "name": "minStake",
              "type": "uint256"
            },
            {
              "internalType": "uint256",
              "name": "creatorDeposit",
              "type": "uint256"
            },
            {
              "internalType": "uint256",
              "name": "creatorOutcome",
              "type": "uint256"
            },
            {
              "internalType": "uint256",
              "name": "startTime",
              "type": "uint256"
            },
            {
              "internalType": "uint256",
              "name": "stakeEndTime",
              "type": "uint256"
            },
            {
              "internalType": "uint256",
              "name": "endTime",
              "type": "uint256"
            },
            {
              "internalType": "uint256",
              "name": "resolutionEndTime",
              "type": "uint256"
            },
            {
              "internalType": "enum P2PMarketManager.MarketState",
              "name": "state",
              "type": "uint8"
            },
            {
              "internalType": "uint256",
              "name": "winningOption",
              "type": "uint256"
            },
            {
              "internalType": "bool",
              "name": "isResolved",
              "type": "bool"
            },
            {
              "internalType": "uint256",
              "name": "resolvedTimestamp",
              "type": "uint256"
            },
            {
              "internalType": "uint256",
              "name": "resolvedPrice",
              "type": "uint256"
            },
            {
              "internalType": "enum P2PMarketManager.MarketType",
              "name": "marketType",
              "type": "uint8"
            },
            {
              "internalType": "address",
              "name": "priceFeed",
              "type": "address"
            },
            {
              "internalType": "uint256",
              "name": "priceThreshold",
              "type": "uint256"
            },
            {
              "internalType": "bytes32",
              "name": "p2pAssertionId",
              "type": "bytes32"
            },
            {
              "internalType": "bool",
              "name": "p2pAssertionMade",
              "type": "bool"
            },
            {
              "internalType": "uint256",
              "name": "p2pDisputedOptionId",
              "type": "uint256"
            }
          ],
          "internalType": "struct P2PMarketManager.Market",
          "name": "",
          "type": "tuple"
        }
      ],
      "stateMutability": "view",
      "type": "function"
    },
    {
      "inputs": [
        {
          "internalType": "uint256",
          "name": "marketId",
          "type": "uint256"
        }
      ],
      "name": "getMarketStakers",
      "outputs": [
        {
          "internalType": "address[]",
          "name": "",
          "type": "address[]"
        }
      ],
      "stateMutability": "view",
      "type": "function"
    },
    {
      "inputs": [],
      "name": "getNextMarketId",
      "outputs": [
        {
          "internalType": "uint256",
          "name": "",
          "type": "uint256"
        }
      ],
      "stateMutability": "view",
      "type": "function"
    },
    {
      "inputs": [
        {
          "internalType": "uint256",
          "name": "marketId",
          "type": "uint256"
        },
        {
          "internalType": "uint256",
          "name": "option",
          "type": "uint256"
        },
        {
          "internalType": "address",
          "name": "token",
          "type": "address"
        }
      ],
      "name": "getOptionPool",
      "outputs": [
        {
          "internalType": "uint256",
          "name": "",
          "type": "uint256"
        }
      ],
      "stateMutability": "view",
      "type": "function"
    },
    {
      "inputs": [
        {
          "internalType": "uint256",
          "name": "marketId",
          "type": "uint256"
        }
      ],
      "name": "getStakerCount",
      "outputs": [
        {
          "internalType": "uint256",
          "name": "",
          "type": "uint256"
        }
      ],
      "stateMutability": "view",
      "type": "function"
    },
    {
      "inputs": [
        {
          "internalType": "uint256",
          "name": "marketId",
          "type": "uint256"
        },
        {
          "internalType": "address",
          "name": "token",
          "type": "address"
        }
      ],
      "name": "getSupportPool",
      "outputs": [
        {
          "internalType": "uint256",
          "name": "",
          "type": "uint256"
        }
      ],
      "stateMutability": "view",
      "type": "function"
    },
    {
      "inputs": [
        {
          "internalType": "uint256",
          "name": "marketId",
          "type": "uint256"
        }
      ],
      "name": "getSupporterCount",
      "outputs": [
        {
          "internalType": "uint256",
          "name": "",
          "type": "uint256"
        }
      ],
      "stateMutability": "view",
      "type": "function"
    },
    {
      "inputs": [
        {
          "internalType": "uint256",
          "name": "marketId",
          "type": "uint256"
        },
        {
          "internalType": "address",
          "name": "token",
          "type": "address"
        }
      ],
      "name": "getTotalPool",
      "outputs": [
        {
          "internalType": "uint256",
          "name": "",
          "type": "uint256"
        }
      ],
      "stateMutability": "view",
      "type": "function"
    },
    {
      "inputs": [
        {
          "internalType": "uint256",
          "name": "marketId",
          "type": "uint256"
        },
        {
          "internalType": "address",
          "name": "user",
          "type": "address"
        },
        {
          "internalType": "address",
          "name": "token",
          "type": "address"
        }
      ],
      "name": "getUserStake",
      "outputs": [
        {
          "internalType": "uint256",
          "name": "",
          "type": "uint256"
        }
      ],
      "stateMutability": "view",
      "type": "function"
    },
    {
      "inputs": [
        {
          "internalType": "uint256",
          "name": "marketId",
          "type": "uint256"
        },
        {
          "internalType": "address",
          "name": "user",
          "type": "address"
        },
        {
          "internalType": "address",
          "name": "token",
          "type": "address"
        }
      ],
      "name": "getUserSupport",
      "outputs": [
        {
          "internalType": "uint256",
          "name": "",
          "type": "uint256"
        }
      ],
      "stateMutability": "view",
      "type": "function"
    },
    {
      "inputs": [
        {
          "internalType": "uint256",
          "name": "",
          "type": "uint256"
        }
      ],
      "name": "isActiveMarket",
      "outputs": [
        {
          "internalType": "bool",
          "name": "",
          "type": "bool"
        }
      ],
      "stateMutability": "view",
      "type": "function"
    },
    {
      "inputs": [
        {
          "internalType": "uint256",
          "name": "marketId",
          "type": "uint256"
        }
      ],
      "name": "markMarketDeleted",
      "outputs": [],
      "stateMutability": "nonpayable",
      "type": "function"
    },
    {
      "inputs": [
        {
          "internalType": "uint256",
          "name": "marketId",
          "type": "uint256"
        }
      ],
      "name": "markMarketPermanentlyRemoved",
      "outputs": [],
      "stateMutability": "nonpayable",
      "type": "function"
    },
    {
      "inputs": [],
      "name": "marketCreationFee",
      "outputs": [
        {
          "internalType": "uint256",
          "name": "",
          "type": "uint256"
        }
      ],
      "stateMutability": "view",
      "type": "function"
    },
    {
      "inputs": [
        {
          "internalType": "uint256",
          "name": "",
          "type": "uint256"
        },
        {
          "internalType": "uint256",
          "name": "",
          "type": "uint256"
        }
      ],
      "name": "marketStakers",
      "outputs": [
        {
          "internalType": "address",
          "name": "",
          "type": "address"
        }
      ],
      "stateMutability": "view",
      "type": "function"
    },
    {
      "inputs": [
        {
          "internalType": "uint256",
          "name": "",
          "type": "uint256"
        },
        {
          "internalType": "uint256",
          "name": "",
          "type": "uint256"
        }
      ],
      "name": "marketSupporters",
      "outputs": [
        {
          "internalType": "address",
          "name": "",
          "type": "address"
        }
      ],
      "stateMutability": "view",
      "type": "function"
    },
    {
      "inputs": [
        {
          "internalType": "uint256",
          "name": "",
          "type": "uint256"
        }
      ],
      "name": "markets",
      "outputs": [
        {
          "internalType": "address",
          "name": "creator",
          "type": "address"
        },
        {
          "internalType": "string",
          "name": "ipfsHash",
          "type": "string"
        },
        {
          "internalType": "bool",
          "name": "isMultiOption",
          "type": "bool"
        },
        {
          "internalType": "uint256",
          "name": "maxOptions",
          "type": "uint256"
        },
        {
          "internalType": "address",
          "name": "paymentToken",
          "type": "address"
        },
        {
          "internalType": "uint256",
          "name": "minStake",
          "type": "uint256"
        },
        {
          "internalType": "uint256",
          "name": "creatorDeposit",
          "type": "uint256"
        },
        {
          "internalType": "uint256",
          "name": "creatorOutcome",
          "type": "uint256"
        },
        {
          "internalType": "uint256",
          "name": "startTime",
          "type": "uint256"
        },
        {
          "internalType": "uint256",
          "name": "stakeEndTime",
          "type": "uint256"
        },
        {
          "internalType": "uint256",
          "name": "endTime",
          "type": "uint256"
        },
        {
          "internalType": "uint256",
          "name": "resolutionEndTime",
          "type": "uint256"
        },
        {
          "internalType": "enum P2PMarketManager.MarketState",
          "name": "state",
          "type": "uint8"
        },
        {
          "internalType": "uint256",
          "name": "winningOption",
          "type": "uint256"
        },
        {
          "internalType": "bool",
          "name": "isResolved",
          "type": "bool"
        },
        {
          "internalType": "uint256",
          "name": "resolvedTimestamp",
          "type": "uint256"
        },
        {
          "internalType": "uint256",
          "name": "resolvedPrice",
          "type": "uint256"
        },
        {
          "internalType": "enum P2PMarketManager.MarketType",
          "name": "marketType",
          "type": "uint8"
        },
        {
          "internalType": "address",
          "name": "priceFeed",
          "type": "address"
        },
        {
          "internalType": "uint256",
          "name": "priceThreshold",
          "type": "uint256"
        },
        {
          "internalType": "bytes32",
          "name": "p2pAssertionId",
          "type": "bytes32"
        },
        {
          "internalType": "bool",
          "name": "p2pAssertionMade",
          "type": "bool"
        },
        {
          "internalType": "uint256",
          "name": "p2pDisputedOptionId",
          "type": "uint256"
        }
      ],
      "stateMutability": "view",
      "type": "function"
    },
    {
      "inputs": [],
      "name": "nextMarketId",
      "outputs": [
        {
          "internalType": "uint256",
          "name": "",
          "type": "uint256"
        }
      ],
      "stateMutability": "view",
      "type": "function"
    },
    {
      "inputs": [],
      "name": "optimisticOracle",
      "outputs": [
        {
          "internalType": "contract IOptimisticOracle",
          "name": "",
          "type": "address"
        }
      ],
      "stateMutability": "view",
      "type": "function"
    },
    {
      "inputs": [],
      "name": "owner",
      "outputs": [
        {
          "internalType": "address",
          "name": "",
          "type": "address"
        }
      ],
      "stateMutability": "view",
      "type": "function"
    },
    {
      "inputs": [
        {
          "internalType": "uint256",
          "name": "marketId",
          "type": "uint256"
        },
        {
          "internalType": "uint256",
          "name": "option",
          "type": "uint256"
        }
      ],
      "name": "placeStake",
      "outputs": [],
      "stateMutability": "payable",
      "type": "function"
    },
    {
      "inputs": [
        {
          "internalType": "uint256",
          "name": "marketId",
          "type": "uint256"
        },
        {
          "internalType": "uint256",
          "name": "option",
          "type": "uint256"
        },
        {
          "internalType": "uint256",
          "name": "amount",
          "type": "uint256"
        }
      ],
      "name": "placeStakeWithToken",
      "outputs": [],
      "stateMutability": "nonpayable",
      "type": "function"
    },
    {
      "inputs": [],
      "name": "renounceOwnership",
      "outputs": [],
      "stateMutability": "nonpayable",
      "type": "function"
    },
    {
      "inputs": [
        {
          "internalType": "uint256",
          "name": "marketId",
          "type": "uint256"
        },
        {
          "internalType": "uint256",
          "name": "optionId",
          "type": "uint256"
        },
        {
          "internalType": "bytes",
          "name": "claim",
          "type": "bytes"
        }
      ],
      "name": "requestP2PResolution",
      "outputs": [],
      "stateMutability": "nonpayable",
      "type": "function"
    },
    {
      "inputs": [
        {
          "internalType": "uint256",
          "name": "marketId",
          "type": "uint256"
        }
      ],
      "name": "resolveP2PMarket",
      "outputs": [],
      "stateMutability": "nonpayable",
      "type": "function"
    },
    {
      "inputs": [
        {
          "internalType": "uint256",
          "name": "marketId",
          "type": "uint256"
        }
      ],
      "name": "resolvePriceFeedMarket",
      "outputs": [],
      "stateMutability": "nonpayable",
      "type": "function"
    },
    {
      "inputs": [
        {
          "internalType": "address",
          "name": "_adminManager",
          "type": "address"
        }
      ],
      "name": "setAdminManager",
      "outputs": [],
      "stateMutability": "nonpayable",
      "type": "function"
    },
    {
      "inputs": [
        {
          "internalType": "uint256",
          "name": "_seconds",
          "type": "uint256"
        }
      ],
      "name": "setAssertionGracePeriod",
      "outputs": [],
      "stateMutability": "nonpayable",
      "type": "function"
    },
    {
      "inputs": [
        {
          "internalType": "address",
          "name": "_currency",
          "type": "address"
        }
      ],
      "name": "setDefaultBondCurrency",
      "outputs": [],
      "stateMutability": "nonpayable",
      "type": "function"
    },
    {
      "inputs": [
        {
          "internalType": "address",
          "name": "_oo",
          "type": "address"
        }
      ],
      "name": "setOptimisticOracle",
      "outputs": [],
      "stateMutability": "nonpayable",
      "type": "function"
    },
    {
      "inputs": [
        {
          "internalType": "uint256",
          "name": "marketId",
          "type": "uint256"
        }
      ],
      "name": "settleOracle",
      "outputs": [],
      "stateMutability": "nonpayable",
      "type": "function"
    },
    {
      "inputs": [
        {
          "internalType": "uint256",
          "name": "marketId",
          "type": "uint256"
        },
        {
          "internalType": "uint256",
          "name": "amount",
          "type": "uint256"
        }
      ],
      "name": "supportMarket",
      "outputs": [],
      "stateMutability": "payable",
      "type": "function"
    },
    {
      "inputs": [
        {
          "internalType": "address",
          "name": "newOwner",
          "type": "address"
        }
      ],
      "name": "transferOwnership",
      "outputs": [],
      "stateMutability": "nonpayable",
      "type": "function"
    },
    {
      "inputs": [],
      "name": "treasury",
      "outputs": [
        {
          "internalType": "address payable",
          "name": "",
          "type": "address"
        }
      ],
      "stateMutability": "view",
      "type": "function"
    },
    {
      "inputs": [
        {
          "internalType": "uint256",
          "name": "",
          "type": "uint256"
        },
        {
          "internalType": "address",
          "name": "",
          "type": "address"
        }
      ],
      "name": "userHasStaked",
      "outputs": [
        {
          "internalType": "bool",
          "name": "",
          "type": "bool"
        }
      ],
      "stateMutability": "view",
      "type": "function"
    },
    {
      "inputs": [
        {
          "internalType": "uint256",
          "name": "",
          "type": "uint256"
        },
        {
          "internalType": "address",
          "name": "",
          "type": "address"
        }
      ],
      "name": "userHasSupported",
      "outputs": [
        {
          "internalType": "bool",
          "name": "",
          "type": "bool"
        }
      ],
      "stateMutability": "view",
      "type": "function"
    },
    {
      "inputs": [
        {
          "internalType": "address",
          "name": "",
          "type": "address"
        },
        {
          "internalType": "uint256",
          "name": "",
          "type": "uint256"
        }
      ],
      "name": "userMarketHistory",
      "outputs": [
        {
          "internalType": "uint256",
          "name": "",
          "type": "uint256"
        }
      ],
      "stateMutability": "view",
      "type": "function"
    },
    {
      "inputs": [
        {
          "internalType": "uint256",
          "name": "",
          "type": "uint256"
        },
        {
          "internalType": "address",
          "name": "",
          "type": "address"
        }
      ],
      "name": "userStakeOptions",
      "outputs": [
        {
          "internalType": "uint256",
          "name": "",
          "type": "uint256"
        }
      ],
      "stateMutability": "view",
      "type": "function"
    },
    {
      "inputs": [
        {
          "internalType": "uint256",
          "name": "marketId",
          "type": "uint256"
        }
      ],
      "name": "withdrawSupport",
      "outputs": [],
      "stateMutability": "nonpayable",
      "type": "function"
    },
    {
      "stateMutability": "payable",
      "type": "receive"
    }
  ],
  "bytecode": "0x6080346200010657601f620058a238819003918201601f19168301916001600160401b038311848410176200010b5780849260609460405283398101031262000106576200004d8162000121565b60208201516001600160a01b03808216939091849003620001065762000077604083920162000121565b9216918215620000ed576000549360018060a01b03199380858716176000558360405196167f8be0079c531659141344cd1fd0a4f28419497f9722a3daafe3b4186f6b6457e0600080a36202a300600155600160095583600c541617600c551690600d541617600d5561576b9081620001378239f35b604051631e4fbdf760e01b815260006004820152602490fd5b600080fd5b634e487b7160e01b600052604160045260246000fd5b51906001600160a01b0382168203620001065756fe6101e080604052600436101561001e575b50361561001c57600080fd5b005b600090813560e01c9081630ccf446714614009575080630d64cdbd14613fda578063157bdcce14613f76578063209c1c9414613f4d5780632230292214613f24578063256ba74114613e8f578063287f57b514613e475780632ef1bdfa14613e24578063304bf1f114613ddb5780633adfe6d014613db05780633e32a76c14613b34578063406ef2ef14613b165780634f44289d14613acd578063539aa77f14613ab0578063569946c5146139df5780635b7baf641461368857806361d027b31461365f57806366cf7ed414612863578063677bd9ff146126d15780636d4476ec146124775780636f28507c1461245a5780636f59359e146123a8578063715018a6146123605780637c16cd9e146122865780637d54943314612269578063818ef5f614612208578063847cf782146121c457806387a6b0ff146120b35780638d0d180e14611d855780638da5cb5b14611d5e57806393fcf24d14611d4057806398a1767114611cea5780639a3a40d614611aaa578063a210b6a414611a81578063a30a091414611a57578063a550725d14611a0a578063b1283e771461180e578063bc160758146117c1578063bf5c325214611774578063bf5f984b1461151f578063c22c62c3146114ed578063c3436e0c146113d2578063cc3cbd2a146113b5578063d5f827071461136a578063d8c5dd6714611323578063dc4ce349146112d0578063e0bd4acc14611143578063eb44fdd314610ddf578063f00fe32114610d43578063f15cc40614610c0e578063f1b7dde314610a79578063f204072f14610665578063f2fde38b146105ef578063f486759114610448578063fb87f2c3146102af5763fe53a6e80361001057346102ac57806003193601126102ac576020600954604051908152f35b80fd5b50346102ac57602080600319360112610444576004359060018060a01b036102dc81600d5416331461567a565b6009548310156104125782845260028252604084205416156103de578183526002815260ff600c6040852001541660058110156103ca576004146103905760606000805160206156bf8339815191529183855260028152600c6040862001600460ff19825416179055838552600b815260ff604086205416610382575b6010604051918083528201526f2232b632ba32b210313c9030b236b4b760811b6040820152a280f35b61038b84615580565b610359565b6064906040519062461bcd60e51b82526004820152601360248201527211540e88185b1c9958591e4819195b195d1959606a1b6044820152fd5b634e487b7160e01b84526021600452602484fd5b6064906040519062461bcd60e51b82526004820152600d60248201526c11540e881b9bc81b585c9ad95d609a1b6044820152fd5b60405162461bcd60e51b815260048101839052600a60248201526911540e8818985908125160b21b6044820152606490fd5b5080fd5b50610452366142bf565b9060018060a01b0380600d5416906040518092634d9b423560e11b825284600483015281602460209586935afa80156105e45786906105aa575b61049791501561457e565b828552600282526040852060ff600c820154166005811015610596576104bd90156145b8565b600481019082825416610553579185916104fb60056105239585151580610545575b6104e8906145f5565b6104f1816153d9565b0154341015614632565b610518888080803487600c54165af161051261441c565b5061466e565b5416349033866151f4565b604051928352349083015260008051602061573f83398151915260403393a380f35b5060038101548611156104df565b60405162461bcd60e51b815260048101859052601b60248201527a22a81d103ab9b290383630b1b2a9ba30b5b2abb4ba342a37b5b2b760291b6044820152606490fd5b634e487b7160e01b87526021600452602487fd5b508281813d83116105dd575b6105c0818361413f565b810103126105d9576105d461049791614301565b61048c565b8580fd5b503d6105b6565b6040513d88823e3d90fd5b50346102ac5760203660031901126102ac57610609614046565b6106116142d5565b6001600160a01b0390811690811561064c576000548260018060a01b0319821617600055166000805160206156ff833981519152600080a380f35b604051631e4fbdf760e01b815260048101849052602490fd5b5061066f366142bf565b600d54604051632b5ba3b960e01b815233600482015260209493916024916001600160a01b039182169087818581855afa9081156108ad5791889185938991610a37575b506106be901561430e565b60405192838092634d9b423560e11b82528860048301525afa80156105e4578690610a01575b6106ef91501561457e565b828552600286526040852060ff600c8201541660058110156109ee5761071590156145b8565b60098101544210156109b557841561097f576004019581875416801560001461091f57508434036108e9578596610759878080808a88600c54165af161051261441c565b848752600482526040872033600052825260ff60406000205416156108d0575b84875260048252604087203360005282526040600020600160ff198254161790558280600c541691541690803b156108cc578688916107d2938360405180968195829463c15d980760e01b84528d3390600486016146f0565b03925af19081156108ad5787916108b8575b505060048183600d54166040519283809263406ad64560e11b82525afa9182156108ad578792610880575b5050168061081b578480f35b803b1561087c578492836064926040519687958694638f46a5a160e01b86526004860152339085015260448401525af180156108715761085d575b8080808480f35b610866906140da565b6102ac578038610856565b6040513d84823e3d90fd5b8480fd5b61089f9250803d106108a6575b610897818361413f565b810190614718565b388061080f565b503d61088d565b6040513d89823e3d90fd5b6108c1906140da565b6105d95785386107e4565b8780fd5b848752600782526108e433604089206146b5565b610779565b6064906010846040519262461bcd60e51b845260048401528201526f08aa074408aa89040dad2e6dac2e8c6d60831b6044820152fd5b963461093d5761093886889985600c54169033906144e0565b610759565b60405162461bcd60e51b815260048101839052601b818601527a11540e881b9bc811551208199bdc881d1bdad95b881b585c9ad95d602a1b6044820152606490fd5b60405162461bcd60e51b815260048101889052600f818501526e11540e881e995c9bc8185b5bdd5b9d608a1b6044820152606490fd5b60405162461bcd60e51b8152600481018890526012818501527111540e881cdd5c1c1bdc9d0818db1bdcd95960721b6044820152606490fd5b634e487b7160e01b875260216004528387fd5b508681813d8311610a30575b610a17818361413f565b810103126105d957610a2b6106ef91614301565b6106e4565b503d610a0d565b92809294508391503d8311610a72575b610a51818361413f565b81010312610a6e5783916106be610a688a93614301565b906106b3565b8680fd5b503d610a47565b50346102ac5760603660031901126102ac576004356024359060443560018060a01b0380600d5416906040518092634d9b423560e11b825285600483015281602460209586935afa80156108ad578790610bd8575b610ad991501561457e565b838652600282526040862060ff600c820154166005811015610bc457610aff90156145b8565b600481019082825416908115610b8a57928792610b53878094610b46610b5c9888151580610b7c575b610b31906145f5565b610b416005820154851015614632565b6153d9565b84600c54169033906144e0565b541633876151f4565b60405193845283015260008051602061573f83398151915260403393a380f35b506003810154891115610b28565b60405162461bcd60e51b815260048101869052601260248201527145503a2075736520706c6163655374616b6560701b6044820152606490fd5b634e487b7160e01b88526021600452602488fd5b508281813d8311610c07575b610bee818361413f565b81010312610a6e57610c02610ad991614301565b610ace565b503d610be4565b50346102ac5760403660031901126102ac57600435610c2b614030565b818352602091600283526040842060ff600c820154166005811015610d2f57610c6591610c5c6002600d9314614a89565b01541515614ac8565b808452600383526040842060018060a01b03908184166000528452610c9160ff60406000205416614b04565b600c54168360405180926307c7a72d60e01b82528180610cb5888860048401614b3f565b03915afa948515610d23578095610ce4575b5050610cd7610cdc939415614b58565b614bb3565b604051908152f35b9094508385813d8311610d1c575b610cfc818361413f565b810103126102ac5750610cd7610d15610cdc9495614301565b9493610cc7565b503d610cf2565b604051903d90823e3d90fd5b634e487b7160e01b86526021600452602486fd5b50346102ac5760403660031901126102ac57610d8c906020610d63614030565b60018060a01b03600c54166040518080968194633d1e7ba160e11b835260043560048401614b3f565b03915afa908115610d235790610da8575b602090604051908152f35b506020813d8211610dd7575b81610dc16020938361413f565b81010312610dd25760209051610d9d565b600080fd5b3d9150610db4565b50346102ac5760203660031901126102ac57806040916102c08351610e03816140ed565b8281526060602082015282858201528260608201528260808201528260a08201528260c08201528260e08201528261010082015282610120820152826101408201528261016082015282610180820152826101a0820152826101c0820152826101e08201528261020082015282610220820152826102408201528261026082015282610280820152826102a08201520152600435815260026020522060405190610eac826140ed565b80546001600160a01b03168252610ec5600182016141b7565b602083015260ff600282015416151560408301526003810154606083015260018060a01b036004820154166080830152600581015460a0830152600681015460c0830152600781015460e083015260088101546101008301526009810154610120830152600a810154610140830152600b81015461016083015260ff600c8201541690600582101561112d57601591610180840152600d8101546101a084015260ff600e8201541615156101c0840152600f8101546101e084015260108101546102008401526011810154610fa160ff821661022086016143c2565b60018060a01b039060081c166102408401526012810154610260840152601381015461028084015260ff60148201541615156102a084015201546102c082015260405180916020825260018060a01b0381511660208301526102c061101760208301516102e06040860152610300850190614280565b916040810151151560608501526060810151608085015260018060a01b0360808201511660a085015260a081015160c085015260c081015160e085015260e08101516101008501526101008101516101208501526101208101516101408501526101408101516101608501526101608101516101808501526110a36101808201516101a08601906142a5565b6101a08101516101c08501526101c081015115156101e08501526101e08101516102008501526102008101516102208501526110e96102208201516102408601906142b2565b60018060a01b03610240820151166102608501526102608101516102808501526102808101516102a08501526102a081015115158285015201516102e08301520390f35b634e487b7160e01b600052602160045260246000fd5b50346102ac57602080600319360112610444576004359061116f60018060a01b03600d5416331461567a565b8183526002815260ff600c6040852001541660058110156103ca576000805160206156bf833981519152916111a8600260609314614a89565b83855260028152600060156040872087815587600182016111c9815461417d565b80611292575b5050600282015582600382015587600482015582600582015582600682015582600782015582600882015582600982015582600a82015582600b82015587600c82015582600d82015587600e82015582600f8201558260108201558760118201558260128201558260138201558760148201550155838552600b815260ff604086205416611284575b6013604051918083528201527214195c9b585b995b9d1b1e481c995b5bdd9959606a1b6040820152a280f35b61128d84615580565b611258565b601f81116001146112ab5750849150555b8738806111cf565b9080869184526112c9601f898620940160051c8401600185016143ce565b55556112a3565b50346102ac5760603660031901126102ac57604435906001600160a01b038083168303610dd257610d8c92602091600c5416604051808096819463dc4ce34960e01b835260243560043560048501614b92565b50346102ac5760403660031901126102ac57604061133f614030565b9160043581526005602052209060018060a01b03166000526020526020604060002054604051908152f35b50346102ac57611379366142bf565b919081526006602052604081209081548310156102ac57602061139c84846140c2565b905460405160039290921b1c6001600160a01b03168152f35b50346102ac57806003193601126102ac57602060405161015e8152f35b50346102ac5760203660031901126102ac5760043580825260026020526040822080546001600160a01b031633036114b65760ff600c8201541660058110156103ca5790611422600992156145b8565b015461a8bf1981019081116114a25742101561146e5760405161146b9161144882614109565b601182527010dc99585d1bdc8818d85b98d95b1b1959607a1b6020830152615166565b80f35b60405162461bcd60e51b815260206004820152600c60248201526b45503a20746f6f206c61746560a01b6044820152606490fd5b634e487b7160e01b83526011600452602483fd5b60405162461bcd60e51b815260206004820152600f60248201526e22a81d103737ba1031b932b0ba37b960891b6044820152606490fd5b50346102ac576114fc366142bf565b919081526007602052604081209081548310156102ac57602061139c84846140c2565b50346102ac5761152e366142bf565b90808352602090600282526040842060ff6011820154166002811015610d2f57600161155a91146147f7565b61156a60ff601483015416614a4a565b61157b60ff600e830154161561483b565b6015810190815461173857600e546001600160a01b0390811661159f8115156148b9565b81600f5416906115b08215156148fa565b8715158061172a575b156116f0579188918760249460405195868092634360af3d60e01b82528560048301525afa9384156116e55783946116b0575b50836116026013949561161293309033906144e0565b82600f541683600e54169061495d565b600e54169201918254813b156116ac57829160448392604051958693849263a6a22b4360e01b845260048401523360248401525af191821561169f578792611688575b50507f51bc042e638ad412f566e4dc9014de5071ce0c49cc314e1056d2d492f4fa6d9c925554926040519485523394a480f35b6116939192506140da565b6105d957848638611655565b50604051903d90823e3d90fd5b8280fd5b935091508683813d81116116de575b6116c9818361413f565b81010312610dd25791519188916116126115ec565b503d6116bf565b6040513d85823e3d90fd5b60405162461bcd60e51b815260048101889052601260248201527122a81d1034b73b30b634b21037b83a34b7b760711b6044820152606490fd5b5060038401548811156115b9565b60405162461bcd60e51b815260048101859052601460248201527311540e88185b1c9958591e48191a5cdc1d5d195960621b6044820152606490fd5b50346102ac5760203660031901126102ac5761178e614046565b6117966142d5565b6001600160a01b03166117aa81151561563b565b600e80546001600160a01b03191691909117905580f35b50346102ac5760203660031901126102ac576117db614046565b6117e36142d5565b6001600160a01b03166117f781151561563b565b600d80546001600160a01b03191691909117905580f35b50346102ac5760203660031901126102ac57600435815260026020526040902061010081905280546001600160a01b03169061184c906001016141b7565b6101405261010051600281015460ff16608052600381015461018052600160a01b60019003600482015416610120526005810154916006820154600783015460088401546009850154600a860154600b87015491600c88015460ff1693600d89015495600e8a015460ff1697600f8b01549960108c01549b60118101546101a052601281015460c05260138101546101c052601481015460ff16610160526015015460e0526040518060a052526102e08060a0516020015260a05101610140519061191691614280565b9b608051151560a051604001526101805160a051606001526101205160a0516080015260a05160a0015260a05160c0015260a05160e0015260a051610100015260a051610120015260a051610140015260a051610160015260a0516101800161197e916142a5565b60a0516101a00152151560a0516101c0015260a0516101e0015260a051610200015260a051610220016101a05160ff16906119b8916142b2565b600160a01b600190036101a05160081c1660a051610240015260c05160a05161026001526101c05160a051610280015261016051151560a0516102a0015260e05160a0516102c0015260a05180910390f35b50346102ac5760203660031901126102ac57611a24614046565b611a2c6142d5565b6001600160a01b0316611a4081151561563b565b600f80546001600160a01b03191691909117905580f35b50346102ac5760203660031901126102ac5760406020916004358152600783522054604051908152f35b50346102ac57806003193601126102ac57600d546040516001600160a01b039091168152602090f35b50346102ac576020806003193601126104445760043590818352600281526040832060118101549060ff82166002811015610d2f57611cb057600c810180549260ff84166005811015610bc4576001611b039114614764565b600e830192835491611b1860ff8416156147a0565b600b8201544210611c7b57604051633fabe5a360e21b8152949392919060a0908690600490829060081c6001600160a01b03165afa948515611c70578995611bfb575b509160026000805160206156df833981519152979492600f85601260609a99970154871015600014611bf4576001955b60ff600d83019716875560108201978855600160ff19809516179055019642885516179055611bb987614d2b565b611bc48154886154df565b54928660008051602061571f83398151915284604051878152a2549054916040519384528301526040820152a280f35b8395611b8b565b9693919594509160a0873d8211611c68575b81611c1a60a0938361413f565b81010312611c64576002606096600f89611c426000805160206156df8339815191529b6147e3565b50611c5360808983015192016147e3565b509798505092949750929092611b5b565b8880fd5b3d9150611c0d565b6040513d8b823e3d90fd5b60405162461bcd60e51b815260048101889052600d60248201526c45503a20746f6f206561726c7960981b6044820152606490fd5b60405162461bcd60e51b815260048101849052601260248201527111540e881b9bdd0814149250d157d191515160721b6044820152606490fd5b50346102ac5760403660031901126102ac57611d04614046565b6001600160a01b03168152600860205260408120805460243592908310156102ac576020611d3284846140c2565b90546040519160031b1c8152f35b50346102ac57806003193601126102ac576020600154604051908152f35b50346102ac57806003193601126102ac57546040516001600160a01b039091168152602090f35b50346102ac5760603660031901126102ac5760443560043560248035906001600160401b038085116105d957366023860112156105d95784600401359081116105d957368282870101116105d95783865260209460028652604087209260ff60118501541660028110156120a0576001611dff91146147f7565b60ff600c8501541660058110156120a0576001611e1c9114614764565b611e2d60ff600e860154161561483b565b6014840194611e4060ff87541615614876565b84546001600160a01b0393908416331461206057878a526003895260408a2033600052895260ff60406000205416156120265789839183151580612018575b611e88906145f5565b85600e541695611e998715156148b9565b8b81600f541697611eab8915156148fa565b60405197888092634360af3d60e01b82528b60048301525afa80156116e5578c9789978592611fda575b5081611602611f5d9493611eec93309033906144e0565b604051958c89880152604087015260408652611f0786614124565b600e5416946084856040519a8b998a98899763abdc5dcd60e01b8952606060048a01528260648a0152018488013786838288010152601f8019910116850190339086015260808582030160448601520190614280565b03925af19485156105e4578695611fa9575b5050601301839055805460ff191660011790557fc92f993487c6d961b60ff2a81386dff5cc620cd4aed9cddabe26500391655e828380a380f35b90809550813d8311611fd3575b611fc0818361413f565b8101031261087c57601393519338611f6f565b503d611fb6565b945097809297508491503d8311612011575b611ff6818361413f565b81010312610dd25790518a9587958d93929091611eec611ed5565b503d611fec565b506003880154841115611e7f565b60405162461bcd60e51b8152600481018a90526013818501527245503a206d7573742068617665207374616b6560681b6044820152606490fd5b60405162461bcd60e51b8152600481018a90526019818501527811540e8818dc99585d1bdc8818d85b9b9bdd08185cdcd95c9d603a1b6044820152606490fd5b50634e487b7160e01b8852602160045287fd5b50346102ac5760203660031901126102ac5760043580825260026020526040822060ff60118201541660028110156103ca5760016120f191146147f7565b60ff600c8201541660058110156103ca57612130916121146001600a9314614764565b61212560ff60148301541615614876565b015460015490614390565b42106121855760405161146b9161214682614124565b602782527f4e6f20617373657274696f6e206d61646520e2809420726566756e647320617660208301526661696c61626c6560c81b6040830152615166565b60405162461bcd60e51b815260206004820152601760248201527645503a20677261636520706572696f642061637469766560481b6044820152606490fd5b50346102ac57610d8c9060206121d93661405c565b600c5460405163423e7bc160e11b81529687946001600160a01b03909216938593849390919060048501614744565b50346102ac5760203660031901126102ac576004356122256142d5565b610e1081106122345760015580f35b60405162461bcd60e51b815260206004820152600d60248201526c11540e881d1bdbc81cda1bdc9d609a1b6044820152606490fd5b50346102ac57806003193601126102ac5760206040516123be8152f35b50346102ac5760203660031901126102ac576004358082526002602052604082209060ff600c8301541660058110156103ca5760016122c59114614764565b600b820154421061231c576122e460ff600e61146b94015416156147a0565b604051906122f182614109565b601982527814995cdbdb1d5d1a5bdb881c195c9a5bd908195e1c1a5c9959603a1b6020830152615166565b60405162461bcd60e51b815260206004820152601c60248201527b45503a207265736f6c7574696f6e20706572696f642061637469766560201b6044820152606490fd5b50346102ac57806003193601126102ac576123796142d5565b600080546001600160a01b0319811682556001600160a01b03166000805160206156ff8339815191528280a380f35b50346102ac57602080600319360112610444576004358252600681526040822060405192838383549182815201908193835284832090835b81811061243d57505050846123f691038561413f565b60405193838594850191818652518092526040850193925b82811061241d57505050500390f35b83516001600160a01b03168552869550938101939281019260010161240e565b82546001600160a01b0316845292860192600192830192016123e0565b50346102ac57806003193601126102ac5760206040516103528152f35b50346102ac576020806003193601126104445760043590818352600281526040832060ff60118201541660028110156126bd5760016124b691146147f7565b6124c660ff601483015416614a4a565b600e8101908154926124db60ff85161561483b565b600e54601383015460405163e39dfd7f60e01b8152600481018290529094918890829060249082906001600160a01b03165afa9485156126b25788918996612624575b50877f01bcfc076833db7a342b2b4213f01d2341de157027e6a14cb082cc770513937c856040518515158152a31561260557604084805181010312610a6e576000805160206156df8339815191529460406060950151915b821515806125f7575b612588906145f5565b600d8501928355886010860155600160ff198093161790556002600c600f86019542875501918254161790556125bd86614d2b565b6125c88154876154df565b54918560008051602061571f83398151915283604051868152a25490604051928352820152846040820152a280f35b50600385015483111561257f565b606093506000805160206156df83398151915294601584015491612576565b915094503d8089833e612637818361413f565b810190604081830312611c645761264d81614301565b8482015190916001600160401b0382116126aa570182601f820112156126ae57805161267881614162565b93612686604051958661413f565b8185528682840101116126aa576126a29186808601910161425d565b90943861251e565b8a80fd5b8980fd5b6040513d8a823e3d90fd5b634e487b7160e01b85526021600452602485fd5b50346102ac576020806003193601126104445760043580835260028252604083209160ff600c8401541660058110156126bd5760026127109114614a89565b61271f600d8401541515614ac8565b818452600381526040842033600052815261274160ff60406000205416614b04565b600c546040516307c7a72d60e01b815285916001600160a01b0390811691848180612770338a60048401614b3f565b0381865afa8015612858578490612822575b61278d915015614b58565b60046127993387614bb3565b9601541690803b156116ac578583916127cb9383604051809681958294632f0041ed60e11b8452338d600486016146f0565b03925af180156108715761280a575b50507f5380cf6fe903b40c6d5a9e0dfbca2f3a423f0a21520b4d5947ed5169bdba946d906040519384523393a380f35b612813906140da565b61281e5783386127da565b8380fd5b508481813d8311612851575b612838818361413f565b8101031261281e5761284c61278d91614301565b612782565b503d61282e565b6040513d86823e3d90fd5b506101803660031901126102ac57600435906001600160401b0382116102ac57366023830112156102ac57816004013561289c81614162565b926128aa604051948561413f565b81845236602483830101116116ac5781839260246020930183870137840101526024351515602435036102ac576064356001600160a01b0381169003610dd25760026101243510156102ac5761014435906001600160a01b0382168203610dd257600d54604051632b5ba3b960e01b81523360048201526001600160a01b0390911690602081602481855afa80156116e5578390613624575b61294e91501561430e565b8351156135ee5760026044351015806135e1575b156135aa57608435156135755760a4351561353e5760c435151580613530575b156134f957610124351561346b575b6040516317916e0160e01b8152602081600481855afa9081156116e5578391613439575b5060e435106134015760e43561010435106133bf5760243515613325576064356001600160a01b0316156132e857604051633462561360e11b81526064356001600160a01b0316600482015290602090829060249082905afa80156108715782906132ad575b612a25915061434c565b670de0b6b3a7640000341061327657603c60e4350260e4358104603c1460e43515171561310957612a569042614390565b9061010435603c610104350204603c146101043515171561326257612a81603c610104350242614390565b6101243561324a5780915b60095494612a99866143b3565b60095560405190612aa9826140ed565b33825287602083015260243515156040830152604435606083015260018060a01b0360643516608083015260843560a083015260a43560c083015260c43560e08301524261010083015285610120830152836101408301528461016083015282610180830152826101a0830152826101c0830152826101e083015282610200830152612b3c6101243561022084016143c2565b6001600160a01b039081166102408301526101643561026083015261028082018390526102a082018390526102c082018390528683526002602090815260408420835181546001600160a01b03191693169290921782558201518051919291906001600160401b038211613236578190612bb9600186015461417d565b601f81116131f8575b50602090601f831160011461318957869261317e575b50508160011b916000199060031b1c19161760018301555b612c0360408201511515600284016143e5565b606081015160038301556004820160018060a01b0360808301511660018060a01b031982541617905560a0810151600583015560c0810151600683015560e0810151600783015561010081015160088301556101208101516009830155610140810151600a830155610160810151600b83015561018081015160058110156103ca5760ff8019600c85015416911617600c8301556101a0810151600d830155612cb66101c08201511515600e84016143e5565b6101e0810151600f83015561020081015160108301556011820161022082015160028110156126bd578154610240840151610100600160a81b0360089190911b1660ff929092166001600160a81b031990911617179055610260810151601283015561028081015160138301556102a08101516015916102c091612d3f901515601486016143e5565b0151910155600a54600160401b81101561316857612d7e612d67826001899401600a55614091565b819391549060031b91821b91600019901b19161790565b9055848152600b60205260408120805460ff191660011790556064356001600160a01b031661311d5760a435670de0b6b3a76400000180670de0b6b3a7640000116131095734106130cc57612df381808080670de0b6b3a764000060018060a01b038254165af1612ded61441c565b5061444c565b8080808060a43560018060a01b03600c54165af1612e0f61441c565b501561308d575b848152600360205260408120336000526020526040600020600160ff198254161790558481526005602052604081203360005260205260c4356040600020553381526008602052612e6a85604083206143f6565b600c546001600160a01b0316803b15610444578160405180926395f4109560e01b8252818381612eaa60c4358d60a435906064359033906004870161448e565b03925af1801561087157908291613079575b5050600d5460405163406ad64560e11b815290602090829060049082906001600160a01b03165afa90811561087157829161305a575b506001600160a01b038116612f94575b505060209484927f5d0726a1bb5ec8c87527e69ba86d988202e885fad8f2b4aacd618793d6f297b292612f42604051936101208552610120850190614280565b6024351515848a015260443560408501526064356001600160a01b0316606085015260843560808501524260a085015260c084019690965260e0830152610100820152339381900390a3604051908152f35b6001600160a01b0381163b156104445760405163782a780560e11b8152828180612fc2338b60048401614b3f565b0381836001600160a01b0387165af180156116e557908391613046575b50506001600160a01b0381163b156104445760405163c228038d60e01b8152908290829081838161301a60a43560c435338f600486016151d0565b03926001600160a01b03165af180156108715715612f025761303c82916140da565b6102ac5780612f02565b61304f906140da565b610444578138612fdf565b613073915060203d6020116108a657610897818361413f565b38612ef2565b613082906140da565b6102ac578038612ebc565b60405162461bcd60e51b815260206004820152601760248201527611540e8819195c1bdcda5d081cd95b990819985a5b1959604a1b6044820152606490fd5b60405162461bcd60e51b815260206004820152601560248201527445503a20696e73756666696369656e74205045505560581b6044820152606490fd5b634e487b7160e01b82526011600452602482fd5b61314181808080670de0b6b3a764000060018060a01b038254165af1612ded61441c565b600c546131639060a435906001600160a01b03908116903390606435166144e0565b612e16565b634e487b7160e01b600052604160045260246000fd5b015190503880612bd8565b9250600185018652602086209086935b601f19841685106131dd576001945083601f198116106131c4575b505050811b016001830155612bf0565b015160001960f88460031b161c191690553880806131b4565b81810151835560209485019460019093019290910190613199565b6132269060018701885260208820601f850160051c8101916020861061322c575b601f0160051c01906143ce565b38612bc2565b9091508190613219565b634e487b7160e01b85526041600452602485fd5b6201a5e081018111613109576201a5e0810191612a8c565b634e487b7160e01b81526011600452602490fd5b60405162461bcd60e51b815260206004820152600f60248201526e45503a2066656520746f6f206c6f7760881b6044820152606490fd5b506020813d6020116132e0575b816132c76020938361413f565b81010312610444576132db612a2591614301565b612a1b565b3d91506132ba565b60405162461bcd60e51b815260206004820152601560248201527422a81d1036bab63a34903732b2b239903a37b5b2b760591b6044820152606490fd5b6064356001600160a01b031661333c575b50612a25565b604051633462561360e11b81526064356001600160a01b0316600482015290602090829060249082905afa8015610871578290613384575b61337e915061434c565b38613336565b506020813d6020116133b7575b8161339e6020938361413f565b81010312610444576133b261337e91614301565b613374565b3d9150613391565b60405162461bcd60e51b815260206004820152601a60248201527945503a207265736f6c7574696f6e206166746572207374616b6560301b6044820152606490fd5b60405162461bcd60e51b815260206004820152601060248201526f22a81d1036b4b710323ab930ba34b7b760811b6044820152606490fd5b90506020813d602011613463575b816134546020938361413f565b81010312610dd25751386129b5565b3d9150613447565b6001600160a01b038316156134c057610164356129915760405162461bcd60e51b815260206004820152601660248201527511540e881d1a1c995cda1bdb19081c995c5d5a5c995960521b6044820152606490fd5b60405162461bcd60e51b815260206004820152601160248201527011540e8819995959081c995c5d5a5c9959607a1b6044820152606490fd5b60405162461bcd60e51b815260206004820152600f60248201526e45503a20626164206f7574636f6d6560881b6044820152606490fd5b5060443560c4351115612982565b60405162461bcd60e51b815260206004820152600f60248201526e11540e881898590819195c1bdcda5d608a1b6044820152606490fd5b60405162461bcd60e51b815260206004820152600d60248201526c45503a20626164207374616b6560981b6044820152606490fd5b60405162461bcd60e51b815260206004820152600f60248201526e45503a20626164206f7074696f6e7360881b6044820152606490fd5b50600a6044351115612962565b60405162461bcd60e51b815260206004820152600e60248201526d08aa07440cadae0e8f240d0c2e6d60931b6044820152606490fd5b506020813d602011613657575b8161363e6020938361413f565b810103126116ac5761365261294e91614301565b612943565b3d9150613631565b50346102ac57806003193601126102ac57600c546040516001600160a01b039091168152602090f35b50346102ac576020806003193601126104445760043580835260028252604083209160ff600c8401541660058110156126bd576003036139a757818452600381526040842033600052815260ff604060002054168015613987575b1561394b578392828552600382526040852033600052825260ff604060002054166138a5575b828552600482526040852033600052825260ff604060002054166137fd575b83156137c657600c5460049091015485916001600160a01b039182169116803b156116ac57858391613773938360405180968195829463164fcd7d60e21b8452338d600486016146f0565b03925af18015610871576137b2575b50507ff3f402280ef0a7905e124aa621b65eaeb2725c343e8b36d398ed78c29daf285c906040519384523393a380f35b6137bb906140da565b61281e578338613782565b60405162461bcd60e51b815260048101839052600f60248201526e11540e881e995c9bc81c99599d5b99608a1b6044820152606490fd5b92613834908260018060a01b0380600c54169060048801541690604051808096819463256ba74160e01b8352338b60048501614744565b03915afa9081156105e4578691613874575b6138509250614390565b928285526004825260408520336000528252604060002060ff198154169055613728565b90508282813d831161389e575b61388b818361413f565b81010312610dd257613850915190613846565b503d613881565b92506138dc8160018060a01b0380600c54169060048701541690604051808095819463423e7bc160e11b8352338a60048501614744565b03915afa908115613940578591613913575b50928285526003825260408520336000528252604060002060ff198154169055613709565b90508181813d8311613939575b61392a818361413f565b81010312610dd25751386138ee565b503d613920565b6040513d87823e3d90fd5b6064906040519062461bcd60e51b82526004820152601560248201527411540e881b9bdd1a1a5b99c81d1bc81c99599d5b99605a1b6044820152fd5b50818452600481526040842033600052815260ff604060002054166136e3565b6064906040519062461bcd60e51b82526004820152601160248201527011540e881b9bdd0818d85b98d95b1b1959607a1b6044820152fd5b50346102ac5760203660031901126102ac5760043580825260026020526040822060ff60118201541660028110156103ca576001613a1d91146147f7565b613a2d60ff601483015416614a4a565b82601360018060a01b03600e54169201918254813b156116ac578291602483926040519485938492634124beef60e01b845260048401525af1801561087157613a9c575b505054907f049c1c3eca1ffdb1b59f7205ce06f2461ace420050f9ad1b4b6b55f4a0f2e5268380a380f35b613aa5906140da565b6116ac578238613a71565b50346102ac57806003193601126102ac5760206040516101f48152f35b50346102ac5760403660031901126102ac57610d8c906020613aed614030565b60018060a01b03600c54166040518080968194634f44289d60e01b835260043560048401614b3f565b50346102ac57806003193601126102ac576020600954604051908152f35b50346102ac576020806003193601126104445760043580835260028252604083206004835260408420338552835260ff60408520541615613d7a5760ff600c8201541660058110156126bd5780613d1f5750600981015461a8bf198101908111613d0b57421015613ccb575b60018060a01b03600481600c541692015416906040519063256ba74160e01b8252848280613bd386338960048501614744565b0381845afa9182156105e4578692613c9c575b508115613c5d57908186923b156116ac57613c1a93836040518096819582946317be0b2f60e11b8452338b600486016146f0565b03925af1801561285857613c4a575b5082526004815260408220903360005252604060002060ff19815416905580f35b613c56909391936140da565b9138613c29565b60405162461bcd60e51b815260048101869052601760248201527645503a206e6f7468696e6720746f20776974686472617760481b6044820152606490fd5b9091508481813d8311613cc4575b613cb4818361413f565b810103126105d957519038613be6565b503d613caa565b60405162461bcd60e51b815260048101849052601860248201527745503a20746f6f206c61746520746f20776974686472617760401b6044820152606490fd5b634e487b7160e01b85526011600452602485fd5b60048114908115613d6f575b50613ba05760405162461bcd60e51b815260048101849052601760248201527645503a2063616e6e6f74207769746864726177206e6f7760481b6044820152606490fd5b600391501438613d2b565b60405162461bcd60e51b815260048101849052600e60248201526d11540e881b9bc81cdd5c1c1bdc9d60921b6044820152606490fd5b50346102ac5760203660031901126102ac5760043590600a548210156102ac576020611d3283614091565b50346102ac5760403660031901126102ac5760ff6040602092613dfc614030565b6004358252600385528282206001600160a01b03909116825284522054604051911615158152f35b50346102ac57806003193601126102ac576020604051670de0b6b3a76400008152f35b50346102ac5760403660031901126102ac5760ff6040602092613e68614030565b60048035835285528282206001600160a01b03909116825284522054604051911615158152f35b50346102ac57613ed26020613ea33661405c565b600c5460405163256ba74160e01b81529586946001600160a01b03909216938593849390919060048501614744565b03915afa908115610871578291613eef575b602082604051908152f35b90506020813d8211613f1c575b81613f096020938361413f565b8101031261044457602091505138613ee4565b3d9150613efc565b50346102ac57806003193601126102ac57600e546040516001600160a01b039091168152602090f35b50346102ac57806003193601126102ac57600f546040516001600160a01b039091168152602090f35b50346102ac5760203660031901126102ac576004359081815260026020526040812091600c830180549360ff851660058110156126bd5794613fce600a600193613fc461146b9899156145b8565b0154421015614764565b60ff1916179055615580565b50346102ac5760203660031901126102ac5760ff60406020926004358152600b84522054166040519015158152f35b90503461044457602036600319011261044457604060209260043581526006845220548152f35b602435906001600160a01b0382168203610dd257565b600435906001600160a01b0382168203610dd257565b6060906003190112610dd257600435906001600160a01b03906024358281168103610dd257916044359081168103610dd25790565b600a548110156140ac57600a60005260206000200190600090565b634e487b7160e01b600052603260045260246000fd5b80548210156140ac5760005260206000200190600090565b6001600160401b03811161316857604052565b6102e081019081106001600160401b0382111761316857604052565b604081019081106001600160401b0382111761316857604052565b606081019081106001600160401b0382111761316857604052565b601f909101601f19168101906001600160401b0382119082101761316857604052565b6001600160401b03811161316857601f01601f191660200190565b90600182811c921680156141ad575b602083101461419757565b634e487b7160e01b600052602260045260246000fd5b91607f169161418c565b90604051918260008254926141cb8461417d565b90818452600194858116908160001461423a57506001146141f7575b50506141f59250038361413f565b565b9093915060005260209081600020936000915b8183106142225750506141f5935082010138806141e7565b8554888401850152948501948794509183019161420a565b9150506141f594506020925060ff191682840152151560051b82010138806141e7565b60005b8381106142705750506000910152565b8181015183820152602001614260565b906020916142998151809281855285808601910161425d565b601f01601f1916010190565b90600582101561112d5752565b90600282101561112d5752565b6040906003190112610dd2576004359060243590565b6000546001600160a01b031633036142e957565b60405163118cdaa760e01b8152336004820152602490fd5b51908115158203610dd257565b1561431557565b60405162461bcd60e51b815260206004820152600f60248201526e11540e88189b1858dadb1a5cdd1959608a1b6044820152606490fd5b1561435357565b60405162461bcd60e51b815260206004820152601560248201527422a81d103ab739bab83837b93a32b2103a37b5b2b760591b6044820152606490fd5b9190820180921161439d57565b634e487b7160e01b600052601160045260246000fd5b600019811461439d5760010190565b600282101561112d5752565b8181106143d9575050565b600081556001016143ce565b9060ff801983541691151516179055565b805490600160401b8210156131685781612d67916001614418940181556140c2565b9055565b3d15614447573d9061442d82614162565b9161443b604051938461413f565b82523d6000602084013e565b606090565b1561445357565b60405162461bcd60e51b815260206004820152601360248201527211540e88199959481cd95b990819985a5b1959606a1b6044820152606490fd5b9081526001600160a01b039182166020820152911660408201526060810191909152608081019190915260a00190565b6001600160a01b03918216815291166020820152604081019190915260600190565b90614516906145086141f5956040519586936323b872dd60e01b6020860152602485016144be565b03601f19810184528361413f565b906000602091828151910182855af115614572576000513d61456957506001600160a01b0381163b155b6145475750565b604051635274afe760e01b81526001600160a01b039091166004820152602490fd5b60011415614540565b6040513d6000823e3d90fd5b1561458557565b60405162461bcd60e51b815260206004820152600b60248201526a11540e8819195b195d195960aa1b6044820152606490fd5b156145bf57565b60405162461bcd60e51b815260206004820152600e60248201526d45503a206e6f742061637469766560901b6044820152606490fd5b156145fc57565b60405162461bcd60e51b815260206004820152600e60248201526d22a81d103130b21037b83a34b7b760911b6044820152606490fd5b1561463957565b60405162461bcd60e51b815260206004820152600d60248201526c22a81d103132b637bb9036b4b760991b6044820152606490fd5b1561467557565b60405162461bcd60e51b815260206004820152601860248201527711540e881d1c99585cdd5c9e481cd95b990819985a5b195960421b6044820152606490fd5b8054600160401b811015613168576146d2916001820181556140c2565b819291549060031b9160018060a01b03809116831b921b1916179055565b9081526001600160a01b03918216602082015291166040820152606081019190915260800190565b90816020910312610dd257516001600160a01b0381168103610dd25790565b9190820391821161439d57565b9081526001600160a01b0391821660208201529116604082015260600190565b1561476b57565b60405162461bcd60e51b815260206004820152600d60248201526c11540e881b9bdd08195b991959609a1b6044820152606490fd5b156147a757565b60405162461bcd60e51b815260206004820152601460248201527311540e88185b1c9958591e481c995cdbdb1d995960621b6044820152606490fd5b51906001600160501b0382168203610dd257565b156147fe57565b60405162461bcd60e51b815260206004820152601560248201527445503a206e6f74205032504f5054494d495354494360581b6044820152606490fd5b1561484257565b60405162461bcd60e51b815260206004820152600c60248201526b11540e881c995cdbdb1d995960a21b6044820152606490fd5b1561487d57565b60405162461bcd60e51b815260206004820152601460248201527345503a20617373657274696f6e2065786973747360601b6044820152606490fd5b156148c057565b60405162461bcd60e51b815260206004820152601260248201527111540e881bdc9858db19481b9bdd081cd95d60721b6044820152606490fd5b1561490157565b60405162461bcd60e51b815260206004820152601960248201527811540e88189bdb990818dd5c9c995b98de481b9bdd081cd95d603a1b6044820152606490fd5b6001600160a01b039091168152602081019190915260400190565b9291926040519160208301906149948461498663095ea7b360e01b988986528460248401614942565b03601f19810186528561413f565b60206000809386519082875af182513d82614a25575b5050156149ba575b505050509050565b60405160208101969096526001600160a01b031660248601526044808601829052855260808501906001600160401b03821186831017614a115750614a0793946145169160405282614516565b80388080806149b2565b634e487b7160e01b81526041600452602490fd5b909150614a4257506001600160a01b0383163b15155b38806149aa565b600114614a3b565b15614a5157565b60405162461bcd60e51b815260206004820152601060248201526f22a81d1037379030b9b9b2b93a34b7b760811b6044820152606490fd5b15614a9057565b60405162461bcd60e51b815260206004820152601060248201526f11540e881b9bdd081c995cdbdb1d995960821b6044820152606490fd5b15614acf57565b60405162461bcd60e51b815260206004820152600d60248201526c22a81d103737903bb4b73732b960991b6044820152606490fd5b15614b0b57565b60405162461bcd60e51b815260206004820152600c60248201526b45503a206e6f207374616b6560a01b6044820152606490fd5b9081526001600160a01b03909116602082015260400190565b15614b5f57565b60405162461bcd60e51b815260206004820152600b60248201526a11540e8818db185a5b595960aa1b6044820152606490fd5b90815260208101919091526001600160a01b03909116604082015260600190565b919091600092818452602091600283526040928386209360018060a01b039384600c541692856004880154169583519663423e7bc160e11b8852828880614bff84888c60048501614744565b0381895afa978815614d21578b98614cf2575b508290600d614c3b999a015496865180809b819463dc4ce34960e01b83528b8d60048501614b92565b03915afa968715614ce8578a97614cb9575b50614c5786614ff2565b958a5260058252838a20921689525286205403614cb4578115614cb4578015614cad576123be80820291820403613d0b576127109004808302908382041483151715613d0b57614caa9394500490614390565b90565b5090925050565b505050565b9096508181813d8311614ce1575b614cd1818361413f565b810103126126ae57519538614c4d565b503d614cc7565b84513d8c823e3d90fd5b9097508281813d8311614d1a575b614d0a818361413f565b810103126126aa57519682614c12565b503d614d00565b85513d8d823e3d90fd5b60009080825260026020526040908183209060018060a01b039182600c5416600d82015490600492614d7c8482019560208888541680968b51948592839263dc4ce34960e01b8452868c8501614b92565b0381875afa918215614fe8578a92614fb3575b50614d9990614ff2565b928315614fa75761015e84029461015d1985870401614f9457612710809604956101f48087029087820403614f81570492614ecb5750505082614e5c575b5090614de291614737565b9283614df1575b505050505050565b80600c541692541690823b156105d95791849391868094614e2597519788958694859363f0824f3360e01b85528401614942565b03925af1908115614e535750614e3f575b80808080614de9565b614e4982916140da565b6102ac5780614e36565b513d84823e3d90fd5b8580600c54169154168686541690823b156126ae57614e95928a928387938c519687958694859363112cd22360e01b85528d85016144be565b03925af18015614ec157908891614ead575b50614dd7565b614eb6906140da565b610a6e578638614ea7565b87513d8a823e3d90fd5b919794935091849084614f1f575b505050505083614eeb57505050505050565b80600c541692541690823b156105d95791849391868094614e259751978895869485936348fef59560e01b85528401614942565b5416823b156126ae5791614f4c93918a80948b519687958694859363112cd22360e01b85528c85016144be565b03925af18015614f7757614f64575b80808381614ed9565b614f70909691966140da565b9438614f5b565b86513d89823e3d90fd5b634e487b7160e01b8d526011895260248dfd5b634e487b7160e01b8b526011875260248bfd5b50505050505050505050565b9091506020813d8211614fe0575b81614fce6020938361413f565b810103126126ae575190614d99614d8f565b3d9150614fc1565b89513d8c823e3d90fd5b90600091808352602090600282526040918285209185926001600382015490600d830154905b828111156150b8575050509180916150589360018060a01b03600481600c541692015416918751809681948293634f44289d60e01b845260048401614b3f565b03915afa9384156150af57508593615078575b5050614caa929350614390565b9080929350813d83116150a8575b615090818361413f565b8101031261281e57614caa929350519083923861506b565b503d615086565b513d87823e3d90fd5b8181036150ce575b6150c9906143b3565b615018565b9587868860018060a01b038881600c541691615105600491828c01541696519687958694859463dc4ce34960e01b86528501614b92565b03915afa90811561515c578b9161512d575b50615125906150c992614390565b9690506150c0565b90508681813d8311615155575b615144818361413f565b810103126126aa57516150c9615117565b503d61513a565b89513d8d823e3d90fd5b906151bd6000805160206156bf83398151915291836000526002602052600c604060002001600360ff19825416179055600b60205260ff604060002054166151c2575b604051918291602083526020830190614280565b0390a2565b6151cb84615580565b6151a9565b909493926060926080830196835260018060a01b0316602083015260408201520152565b939093600094818652602093600385526040948588209160018060a01b039283851690818b52835260ff888b2054161561536d575b858a5260038352878a20818b528352878a20600160ff19825416179055858a5260058352878a20908a52825285878a205582600c5416803b156126ae5788918a9186838961528d8c8e51988997889687956395f4109560e01b87526004870161448e565b03925af180156153505761535a575b5060048183600d541688519283809263406ad64560e11b82525afa918215615350578992615333575b50501691826152d8575b50505050505050565b823b15610a6e5790868094939261530487519889968795869463c228038d60e01b8652600486016151d0565b03925af1908115614e53575061531f575b80808080806152cf565b61532982916140da565b6102ac5780615315565b6153499250803d106108a657610897818361413f565b38806152c5565b87513d8b823e3d90fd5b615366909891986140da565b963861529c565b858a526006835261538085898c206146b5565b808a526008835261539386898c206143f6565b615229565b1561539f57565b60405162461bcd60e51b815260206004820152601260248201527111540e881cdd185ada5b99c818db1bdcd95960721b6044820152606490fd5b600d5460405163111a798960e31b8152602092916001600160a01b0316908381600481855afa908115614572576000916154aa575b5015615499578260049160405192838092632eaa712b60e21b82525afa92831561457257600093615467575b505060090154603c820291808304603c149015171561439d576141f59161546091614737565b4210615398565b8181949293943d8311615492575b61547f818361413f565b810103126102ac5750519060093861543a565b503d615475565b506141f59150600901544210615398565b908482813d83116154d8575b6154c0818361413f565b810103126102ac57506154d290614301565b3861540e565b503d6154b6565b600d5460405163406ad64560e11b81526001600160a01b03916020908290600490829086165afa90811561457257600091615562575b5016918261552257505050565b823b15610dd257604460009283604051958694859362ff4a7360e81b8552600485015260248401525af18015614572576155595750565b6141f5906140da565b61557a915060203d81116108a657610897818361413f565b38615515565b60005b600a908154918282101561563557839261559c83614091565b949054600395861b1c146155bb5750506155b691506143b3565b615583565b90916000199182810190811161439d57612d676155da6155e692614091565b905490871b1c92614091565b90558154801561561f578101926155fc84614091565b81939154921b1b1916905555600052600b602052604060002060ff198154169055565b634e487b7160e01b600052603160045260246000fd5b50505050565b1561564257565b60405162461bcd60e51b815260206004820152601060248201526f45503a207a65726f206164647265737360801b6044820152606490fd5b1561568157565b60405162461bcd60e51b815260206004820152601560248201527422a81d1037b7363c9020b236b4b726b0b730b3b2b960591b6044820152606490fdfe4c4561c5b0048424071c1115e9f1e325486e21c21333d968f21097b7b72d12ad08afae4e86110ea235d8bcdfcf9e4ce28970591d583838c26cfa08286a38d1b18be0079c531659141344cd1fd0a4f28419497f9722a3daafe3b4186f6b6457e06dfc24f0f2fb42e49fb4fa3ffa8abb148cab908a1fb8335b3f128a08b2594af1e10fdde2c5cd9b92e449ee25df01febda2cbebc5553e38f2250ffe7f2d5143bca164736f6c6343000814000a",
  "linkReferences": {},
  "deployedLinkReferences": {}
}